{
  "address": "0x91d4a556aa0E32B9A12f5726350e03BD24fEb83e",
  "abi": [
    {
      "inputs": [
        {
          "internalType": "address",
          "name": "hubAddress",
          "type": "address"
        }
      ],
      "stateMutability": "nonpayable",
      "type": "constructor"
    },
    {
      "inputs": [
        {
          "internalType": "bytes32",
          "name": "assertionId",
          "type": "bytes32"
        }
      ],
      "name": "assertionExists",
      "outputs": [
        {
          "internalType": "bool",
          "name": "",
          "type": "bool"
        }
      ],
      "stateMutability": "view",
      "type": "function"
    },
    {
      "inputs": [
        {
          "internalType": "bytes32",
          "name": "assertionId",
          "type": "bytes32"
        },
        {
          "internalType": "uint128",
          "name": "size",
          "type": "uint128"
        },
        {
          "internalType": "uint32",
          "name": "triplesNumber",
          "type": "uint32"
        },
        {
          "internalType": "uint96",
          "name": "chunksNumber",
          "type": "uint96"
        }
      ],
      "name": "createAssertion",
      "outputs": [],
      "stateMutability": "nonpayable",
      "type": "function"
    },
    {
      "inputs": [
        {
          "internalType": "bytes32",
          "name": "assertionId",
          "type": "bytes32"
        }
      ],
      "name": "deleteAssertion",
      "outputs": [],
      "stateMutability": "nonpayable",
      "type": "function"
    },
    {
      "inputs": [
        {
          "internalType": "bytes32",
          "name": "assertionId",
          "type": "bytes32"
        }
      ],
      "name": "getAssertion",
      "outputs": [
        {
          "components": [
            {
              "internalType": "uint256",
              "name": "timestamp",
              "type": "uint256"
            },
            {
              "internalType": "uint128",
              "name": "size",
              "type": "uint128"
            },
            {
              "internalType": "uint32",
              "name": "triplesNumber",
              "type": "uint32"
            },
            {
              "internalType": "uint96",
              "name": "chunksNumber",
              "type": "uint96"
            }
          ],
          "internalType": "struct AssertionStructs.Assertion",
          "name": "",
          "type": "tuple"
        }
      ],
      "stateMutability": "view",
      "type": "function"
    },
    {
      "inputs": [
        {
          "internalType": "bytes32",
          "name": "assertionId",
          "type": "bytes32"
        }
      ],
      "name": "getAssertionChunksNumber",
      "outputs": [
        {
          "internalType": "uint96",
          "name": "",
          "type": "uint96"
        }
      ],
      "stateMutability": "view",
      "type": "function"
    },
    {
      "inputs": [
        {
          "internalType": "bytes32",
          "name": "assertionId",
          "type": "bytes32"
        }
      ],
      "name": "getAssertionSize",
      "outputs": [
        {
          "internalType": "uint128",
          "name": "",
          "type": "uint128"
        }
      ],
      "stateMutability": "view",
      "type": "function"
    },
    {
      "inputs": [
        {
          "internalType": "bytes32",
          "name": "assertionId",
          "type": "bytes32"
        }
      ],
      "name": "getAssertionTimestamp",
      "outputs": [
        {
          "internalType": "uint256",
          "name": "",
          "type": "uint256"
        }
      ],
      "stateMutability": "view",
      "type": "function"
    },
    {
      "inputs": [
        {
          "internalType": "bytes32",
          "name": "assertionId",
          "type": "bytes32"
        }
      ],
      "name": "getAssertionTriplesNumber",
      "outputs": [
        {
          "internalType": "uint32",
          "name": "",
          "type": "uint32"
        }
      ],
      "stateMutability": "view",
      "type": "function"
    },
    {
      "inputs": [],
      "name": "hub",
      "outputs": [
        {
          "internalType": "contract Hub",
          "name": "",
          "type": "address"
        }
      ],
      "stateMutability": "view",
      "type": "function"
    },
    {
      "inputs": [],
      "name": "name",
      "outputs": [
        {
          "internalType": "string",
          "name": "",
          "type": "string"
        }
      ],
      "stateMutability": "pure",
      "type": "function"
    },
    {
      "inputs": [],
      "name": "version",
      "outputs": [
        {
          "internalType": "string",
          "name": "",
          "type": "string"
        }
      ],
      "stateMutability": "pure",
      "type": "function"
    }
  ],
  "transactionHash": "0x36bfb6da24308d081412e7e136d9359b2db67a2ab6aacc9fa2f4abfd0144c3ea",
  "args": [
    "0x224aEC6891d26e994D4Dbf207aE099ca029b3E67"
  ],
  "numDeployments": 1,
  "solcInputHash": "6736b5a2b01ed07b57366e384b7e7c88",
  "bytecode": "0x6080346100bf57601f61066e38819003918201601f19168301916001600160401b038311848410176100c4578084926020946040528339810103126100bf57516001600160a01b038116908190036100bf57801561007a57600080546001600160a01b03191691909117905560405161059390816100db8239f35b60405162461bcd60e51b815260206004820152601960248201527f48756220416464726573732063616e6e6f7420626520307830000000000000006044820152606490fd5b600080fd5b634e487b7160e01b600052604160045260246000fdfe6080604081815260048036101561001557600080fd5b600092833560e01c90816306fdde0314610381575080632111070914610355578063365a86fc1461032d5780634303b3da146102fb57806354fd4d50146102b65780635a4038f51461028d5780636a81cbdb1461025d57806388302884146101b95780639f9c2c5314610187578063af17a875146101605763b83838f21461009c57600080fd5b3461015c57608036600319011261015c576024356001600160801b038082168092036101585760443563ffffffff811680910361015457606435916001600160601b038316809303610150576001936100f361045c565b8651956100ff8761040e565b4287526020870191825287870193845260608701948552358852846020528688209551865551169063ffffffff60801b905160801b16916001600160601b0360a01b905160a01b1691171791015551f35b8680fd5b8580fd5b8480fd5b8280fd5b503461015c57602036600319011261015c5760209282913581526001845220549051908152f35b503461015c57602036600319011261015c576001826020946001600160801b0393358152828652200154169051908152f35b503461015c57602036600319011261015c5781836001600160601b0392608095606084516101e68161040e565b828152826020820152828682015201523581526001602052209180519061020c8261040e565b6001845494858452015491602081016001600160801b03808516825283830191606063ffffffff9485888c1c168552019560a01c865284519788525116602087015251169084015251166060820152f35b503461015c57602036600319011261015c5761027761045c565b3582526001602052816001828220828155015551f35b503461015c57602036600319011261015c57602092829135815260018452205415159051908152f35b5050346102f757816003193601126102f75780516102f3916102d782610440565b60058252640312e302e360dc1b602083015251918291826103c5565b0390f35b5080fd5b503461015c57602036600319011261015c5760018260209463ffffffff9335815282865220015460801c169051908152f35b5050346102f757816003193601126102f757905490516001600160a01b039091168152602090f35b503461015c57602036600319011261015c578160209360019235815282855220015460a01c9051908152f35b8490843461015c578260031936011261015c576102f392506103a282610440565b601082526f417373657274696f6e53746f7261676560801b602083015251918291825b6020808252825181830181905290939260005b8281106103fa57505060409293506000838284010152601f8019910116010190565b8181018601518482016040015285016103d8565b6080810190811067ffffffffffffffff82111761042a57604052565b634e487b7160e01b600052604160045260246000fd5b6040810190811067ffffffffffffffff82111761042a57604052565b60008054604051631627905560e01b815233600482015260209290918390839060249082906001600160a01b03165afa9182156105505781926104e7575b5050156104a45750565b6064906040519062461bcd60e51b825280600483015260248201527f466e2063616e206f6e6c792062652063616c6c656420627920746865206875626044820152fd5b909150823d8411610549575b601f8101601f1916820167ffffffffffffffff8111838210176105355784918391604052810103126102f757519081151582036105325750388061049a565b80fd5b634e487b7160e01b84526041600452602484fd5b503d6104f3565b50604051903d90823e3d90fdfea26469706673582212208f5cfe3c5a5f558c43c337b3f5f6f5b3dc8acf2105ca25c1038b37700574d69964736f6c63430008100033",
  "devdoc": {
    "kind": "dev",
    "methods": {},
    "version": 1
  },
  "userdoc": {
    "kind": "user",
    "methods": {},
    "version": 1
  },
  "storageLayout": {
    "storage": [
      {
        "astId": 15408,
        "contract": "contracts/storage/AssertionStorage.sol:AssertionStorage",
        "label": "hub",
        "offset": 0,
        "slot": "0",
        "type": "t_contract(Hub)9211"
      },
      {
        "astId": 17925,
        "contract": "contracts/storage/AssertionStorage.sol:AssertionStorage",
        "label": "assertions",
        "offset": 0,
        "slot": "1",
        "type": "t_mapping(t_bytes32,t_struct(Assertion)23797_storage)"
      }
    ],
    "types": {
      "t_bytes32": {
        "encoding": "inplace",
        "label": "bytes32",
        "numberOfBytes": "32"
      },
      "t_contract(Hub)9211": {
        "encoding": "inplace",
        "label": "contract Hub",
        "numberOfBytes": "20"
      },
      "t_mapping(t_bytes32,t_struct(Assertion)23797_storage)": {
        "encoding": "mapping",
        "key": "t_bytes32",
        "label": "mapping(bytes32 => struct AssertionStructs.Assertion)",
        "numberOfBytes": "32",
        "value": "t_struct(Assertion)23797_storage"
      },
      "t_struct(Assertion)23797_storage": {
        "encoding": "inplace",
        "label": "struct AssertionStructs.Assertion",
        "members": [
          {
            "astId": 23790,
            "contract": "contracts/storage/AssertionStorage.sol:AssertionStorage",
            "label": "timestamp",
            "offset": 0,
            "slot": "0",
            "type": "t_uint256"
          },
          {
            "astId": 23792,
            "contract": "contracts/storage/AssertionStorage.sol:AssertionStorage",
            "label": "size",
            "offset": 0,
            "slot": "1",
            "type": "t_uint128"
          },
          {
            "astId": 23794,
            "contract": "contracts/storage/AssertionStorage.sol:AssertionStorage",
            "label": "triplesNumber",
            "offset": 16,
            "slot": "1",
            "type": "t_uint32"
          },
          {
            "astId": 23796,
            "contract": "contracts/storage/AssertionStorage.sol:AssertionStorage",
            "label": "chunksNumber",
            "offset": 20,
            "slot": "1",
            "type": "t_uint96"
          }
        ],
        "numberOfBytes": "64"
      },
      "t_uint128": {
        "encoding": "inplace",
        "label": "uint128",
        "numberOfBytes": "16"
      },
      "t_uint256": {
        "encoding": "inplace",
        "label": "uint256",
        "numberOfBytes": "32"
      },
      "t_uint32": {
        "encoding": "inplace",
        "label": "uint32",
        "numberOfBytes": "4"
      },
      "t_uint96": {
        "encoding": "inplace",
        "label": "uint96",
        "numberOfBytes": "12"
      }
    }
  }
}