{
  "address": "0xcB858543CA9525350D4CD2CA1B4ED308D9769D6d",
  "abi": [
    {
      "inputs": [
        {
          "internalType": "address",
          "name": "hubAddress",
          "type": "address"
        }
      ],
      "stateMutability": "nonpayable",
      "type": "constructor"
    },
    {
      "anonymous": false,
      "inputs": [
        {
          "indexed": true,
          "internalType": "bytes32",
          "name": "assertionId",
          "type": "bytes32"
        },
        {
          "indexed": false,
          "internalType": "uint128",
          "name": "size",
          "type": "uint128"
        },
        {
          "indexed": false,
          "internalType": "uint32",
          "name": "triplesNumber",
          "type": "uint32"
        },
        {
          "indexed": false,
          "internalType": "uint96",
          "name": "chunksNumber",
          "type": "uint96"
        }
      ],
      "name": "AssertionCreated",
      "type": "event"
    },
    {
      "inputs": [],
      "name": "assertionStorage",
      "outputs": [
        {
          "internalType": "contract AssertionStorage",
          "name": "",
          "type": "address"
        }
      ],
      "stateMutability": "view",
      "type": "function"
    },
    {
      "inputs": [
        {
          "internalType": "bytes32",
          "name": "assertionId",
          "type": "bytes32"
        },
        {
          "internalType": "uint128",
          "name": "size",
          "type": "uint128"
        },
        {
          "internalType": "uint32",
          "name": "triplesNumber",
          "type": "uint32"
        },
        {
          "internalType": "uint96",
          "name": "chunksNumber",
          "type": "uint96"
        }
      ],
      "name": "createAssertion",
      "outputs": [],
      "stateMutability": "nonpayable",
      "type": "function"
    },
    {
      "inputs": [],
      "name": "hub",
      "outputs": [
        {
          "internalType": "contract Hub",
          "name": "",
          "type": "address"
        }
      ],
      "stateMutability": "view",
      "type": "function"
    },
    {
      "inputs": [],
      "name": "initialize",
      "outputs": [],
      "stateMutability": "nonpayable",
      "type": "function"
    },
    {
      "inputs": [],
      "name": "name",
      "outputs": [
        {
          "internalType": "string",
          "name": "",
          "type": "string"
        }
      ],
      "stateMutability": "pure",
      "type": "function"
    },
    {
      "inputs": [
        {
          "internalType": "bool",
          "name": "_status",
          "type": "bool"
        }
      ],
      "name": "setStatus",
      "outputs": [],
      "stateMutability": "nonpayable",
      "type": "function"
    },
    {
      "inputs": [],
      "name": "status",
      "outputs": [
        {
          "internalType": "bool",
          "name": "",
          "type": "bool"
        }
      ],
      "stateMutability": "view",
      "type": "function"
    },
    {
      "inputs": [],
      "name": "version",
      "outputs": [
        {
          "internalType": "string",
          "name": "",
          "type": "string"
        }
      ],
      "stateMutability": "pure",
      "type": "function"
    }
  ],
  "transactionHash": "0x943794852370c19d0f61d21da06771b47edf1a21c57462d588bc569cff564089",
  "args": [
    "0x224aEC6891d26e994D4Dbf207aE099ca029b3E67"
  ],
  "numDeployments": 1,
  "solcInputHash": "6736b5a2b01ed07b57366e384b7e7c88",
  "bytecode": "0x6080346100bf57601f61081438819003918201601f19168301916001600160401b038311848410176100c4578084926020946040528339810103126100bf57516001600160a01b038116908190036100bf57801561007a57600080546001600160a01b03191691909117905560405161073990816100db8239f35b60405162461bcd60e51b815260206004820152601960248201527f48756220416464726573732063616e6e6f7420626520307830000000000000006044820152606490fd5b600080fd5b634e487b7160e01b600052604160045260246000fdfe608060408181526004918236101561001657600080fd5b600092833560e01c91826306fdde031461055757508163200d2ed214610532578163365a86fc1461050a57816354fd4d50146104c95781635c40f6f4146104885781638129fc1c146103bc578163b83838f2146100a8575063d210b7cf1461007d57600080fd5b346100a457816003193601126100a45760015490516001600160a01b039091168152602090f35b5080fd5b90503461023f57608036600319011261023f578035906024908135916fffffffffffffffffffffffffffffffff83168093036103b85760449081359163ffffffff83168093036103b4576064918235946bffffffffffffffffffffffff86168096036103b05789548951631627905560e01b81523383820152602095916001600160a01b039190879082908790829086165afa9081156103a6578d9161036c575b501561032e57600154169089156102f05788156102bf57861561028157871561024357908b91813b1561023f578a838b938b8f948c608496519b8c988997635c1c1c7960e11b89528c8901528c8801528601528401525af18015610235576101e4575b5050865194855250830152818401527f6228bc6c1a8f028a2e3476a455a34f5fa23b4387611f3c147a965e375ebd17ba90606090a251f35b67ffffffffffffffff839a949a116102245750508652958160607f6228bc6c1a8f028a2e3476a455a34f5fa23b4387611f3c147a965e375ebd17ba6101ac565b634e487b7160e01b84526041905282fd5b89513d8c823e3d90fd5b8280fd5b8a5162461bcd60e51b81528084018790526019818601527f4368756e6b73206e756d6265722063616e6e6f7420626520300000000000000081870152fd5b8a5162461bcd60e51b8152808401879052601a818601527f547269706c6573206e756d6265722063616e6e6f74206265203000000000000081870152fd5b8a5162461bcd60e51b81528084018790526010818601526f053697a652063616e6e6f7420626520360841b81870152fd5b8a5162461bcd60e51b8152808401879052601c818601527f417373657274696f6e2049442063616e6e6f7420626520656d7074790000000081870152fd5b5092847f466e2063616e206f6e6c792062652063616c6c656420627920746865206875629293818c519562461bcd60e51b8752860152840152820152fd5b90508681813d831161039f575b610383818361060f565b8101031261039b5751801515810361039b5738610149565b8c80fd5b503d610379565b8c513d8f823e3d90fd5b8980fd5b8780fd5b8580fd5b90503461023f578260031936011261023f576103d6610655565b82548251630110ceef60e21b81526020928101839052601060248201526f417373657274696f6e53746f7261676560801b60448201526001600160a01b039290918290606490829086165afa90811561047b57849161044d575b50166bffffffffffffffffffffffff60a01b600154161760015551f35b61046e915060203d8111610474575b610466818361060f565b810190610631565b38610430565b503d61045c565b50505051903d90823e3d90fd5b90503461023f57602036600319011261023f573580151580910361023f576104ae610655565b825460ff60a01b191660a09190911b60ff60a01b1617825551f35b5050346100a457816003193601126100a4578051610506916104ea826105dd565b6005825264312e302e3160d81b60208301525191829182610594565b0390f35b5050346100a457816003193601126100a457905490516001600160a01b039091168152602090f35b5050346100a457816003193601126100a45760ff6020925460a01c1690519015158152f35b8490843461023f578260031936011261023f576105069250610578826105dd565b600982526820b9b9b2b93a34b7b760b91b602083015251918291825b6020808252825181830181905290939260005b8281106105c957505060409293506000838284010152601f8019910116010190565b8181018601518482016040015285016105a7565b6040810190811067ffffffffffffffff8211176105f957604052565b634e487b7160e01b600052604160045260246000fd5b90601f8019910116810190811067ffffffffffffffff8211176105f957604052565b9081602091031261065057516001600160a01b03811681036106505790565b600080fd5b600054604051638da5cb5b60e01b81526001600160a01b03916020908290600490829086165afa9081156106f7576000916106d9575b5016330361069557565b606460405162461bcd60e51b815260206004820152602060248201527f466e2063616e206f6e6c79206265207573656420627920687562206f776e65726044820152fd5b6106f1915060203d811161047457610466818361060f565b3861068b565b6040513d6000823e3d90fdfea2646970667358221220b9cb9f49a2845ea0f06b1aea155193d5b06df5c501701bfbfca0ac75a7ba7a2764736f6c63430008100033",
  "devdoc": {
    "kind": "dev",
    "methods": {},
    "version": 1
  },
  "userdoc": {
    "kind": "user",
    "methods": {},
    "version": 1
  },
  "storageLayout": {
    "storage": [
      {
        "astId": 15408,
        "contract": "contracts/Assertion.sol:Assertion",
        "label": "hub",
        "offset": 0,
        "slot": "0",
        "type": "t_contract(Hub)9211"
      },
      {
        "astId": 15379,
        "contract": "contracts/Assertion.sol:Assertion",
        "label": "status",
        "offset": 20,
        "slot": "0",
        "type": "t_bool"
      },
      {
        "astId": 5892,
        "contract": "contracts/Assertion.sol:Assertion",
        "label": "assertionStorage",
        "offset": 0,
        "slot": "1",
        "type": "t_contract(AssertionStorage)18073"
      }
    ],
    "types": {
      "t_bool": {
        "encoding": "inplace",
        "label": "bool",
        "numberOfBytes": "1"
      },
      "t_contract(AssertionStorage)18073": {
        "encoding": "inplace",
        "label": "contract AssertionStorage",
        "numberOfBytes": "20"
      },
      "t_contract(Hub)9211": {
        "encoding": "inplace",
        "label": "contract Hub",
        "numberOfBytes": "20"
      }
    }
  }
}