{
  "address": "0xC74D4d924F1b64d68d04441C973015Bd288c9f5a",
  "abi": [
    {
      "inputs": [
        {
          "internalType": "address",
          "name": "hubAddress",
          "type": "address"
        }
      ],
      "stateMutability": "nonpayable",
      "type": "constructor"
    },
    {
      "inputs": [
        {
          "internalType": "bytes32",
          "name": "agreementId",
          "type": "bytes32"
        },
        {
          "internalType": "uint16",
          "name": "epoch",
          "type": "uint16"
        },
        {
          "internalType": "uint256",
          "name": "commitWindowOpen",
          "type": "uint256"
        },
        {
          "internalType": "uint256",
          "name": "commitWindowClose",
          "type": "uint256"
        },
        {
          "internalType": "uint256",
          "name": "timeNow",
          "type": "uint256"
        }
      ],
      "name": "CommitWindowClosed",
      "type": "error"
    },
    {
      "inputs": [
        {
          "internalType": "bytes32",
          "name": "agreementId",
          "type": "bytes32"
        },
        {
          "internalType": "uint16",
          "name": "epoch",
          "type": "uint16"
        },
        {
          "internalType": "uint72",
          "name": "identityId",
          "type": "uint72"
        },
        {
          "internalType": "bytes",
          "name": "nodeId",
          "type": "bytes"
        }
      ],
      "name": "NodeAlreadySubmittedCommit",
      "type": "error"
    },
    {
      "inputs": [
        {
          "internalType": "bytes32",
          "name": "agreementId",
          "type": "bytes32"
        },
        {
          "internalType": "uint16",
          "name": "epoch",
          "type": "uint16"
        },
        {
          "internalType": "uint72",
          "name": "identityId",
          "type": "uint72"
        },
        {
          "internalType": "bytes",
          "name": "nodeId",
          "type": "bytes"
        },
        {
          "internalType": "uint8",
          "name": "rank",
          "type": "uint8"
        }
      ],
      "name": "NodeNotAwarded",
      "type": "error"
    },
    {
      "inputs": [
        {
          "internalType": "uint72",
          "name": "identityId",
          "type": "uint72"
        },
        {
          "internalType": "bytes",
          "name": "nodeId",
          "type": "bytes"
        },
        {
          "internalType": "uint96",
          "name": "ask",
          "type": "uint96"
        },
        {
          "internalType": "uint96",
          "name": "stake",
          "type": "uint96"
        }
      ],
      "name": "NodeNotInShardingTable",
      "type": "error"
    },
    {
      "inputs": [
        {
          "internalType": "bytes32",
          "name": "agreementId",
          "type": "bytes32"
        }
      ],
      "name": "ServiceAgreementDoesntExist",
      "type": "error"
    },
    {
      "inputs": [
        {
          "internalType": "bytes32",
          "name": "agreementId",
          "type": "bytes32"
        },
        {
          "internalType": "uint256",
          "name": "startTime",
          "type": "uint256"
        },
        {
          "internalType": "uint16",
          "name": "epochsNumber",
          "type": "uint16"
        },
        {
          "internalType": "uint128",
          "name": "epochLength",
          "type": "uint128"
        }
      ],
      "name": "ServiceAgreementHasBeenExpired",
      "type": "error"
    },
    {
      "anonymous": false,
      "inputs": [
        {
          "indexed": true,
          "internalType": "address",
          "name": "assetContract",
          "type": "address"
        },
        {
          "indexed": true,
          "internalType": "uint256",
          "name": "tokenId",
          "type": "uint256"
        },
        {
          "indexed": false,
          "internalType": "bytes",
          "name": "keyword",
          "type": "bytes"
        },
        {
          "indexed": false,
          "internalType": "uint8",
          "name": "hashFunctionId",
          "type": "uint8"
        },
        {
          "indexed": false,
          "internalType": "uint16",
          "name": "epoch",
          "type": "uint16"
        },
        {
          "indexed": true,
          "internalType": "uint72",
          "name": "identityId",
          "type": "uint72"
        },
        {
          "indexed": false,
          "internalType": "uint40",
          "name": "score",
          "type": "uint40"
        }
      ],
      "name": "CommitSubmitted",
      "type": "event"
    },
    {
      "inputs": [
        {
          "internalType": "bytes32",
          "name": "agreementId",
          "type": "bytes32"
        },
        {
          "internalType": "uint16",
          "name": "epoch",
          "type": "uint16"
        }
      ],
      "name": "getTopCommitSubmissions",
      "outputs": [
        {
          "components": [
            {
              "internalType": "uint72",
              "name": "identityId",
              "type": "uint72"
            },
            {
              "internalType": "uint72",
              "name": "prevIdentityId",
              "type": "uint72"
            },
            {
              "internalType": "uint72",
              "name": "nextIdentityId",
              "type": "uint72"
            },
            {
              "internalType": "uint40",
              "name": "score",
              "type": "uint40"
            }
          ],
          "internalType": "struct ServiceAgreementStructsV1.CommitSubmission[]",
          "name": "",
          "type": "tuple[]"
        }
      ],
      "stateMutability": "view",
      "type": "function"
    },
    {
      "inputs": [],
      "name": "hashingProxy",
      "outputs": [
        {
          "internalType": "contract HashingProxy",
          "name": "",
          "type": "address"
        }
      ],
      "stateMutability": "view",
      "type": "function"
    },
    {
      "inputs": [],
      "name": "hub",
      "outputs": [
        {
          "internalType": "contract Hub",
          "name": "",
          "type": "address"
        }
      ],
      "stateMutability": "view",
      "type": "function"
    },
    {
      "inputs": [],
      "name": "identityStorage",
      "outputs": [
        {
          "internalType": "contract IdentityStorage",
          "name": "",
          "type": "address"
        }
      ],
      "stateMutability": "view",
      "type": "function"
    },
    {
      "inputs": [],
      "name": "initialize",
      "outputs": [],
      "stateMutability": "nonpayable",
      "type": "function"
    },
    {
      "inputs": [
        {
          "internalType": "bytes32",
          "name": "agreementId",
          "type": "bytes32"
        },
        {
          "internalType": "uint16",
          "name": "epoch",
          "type": "uint16"
        }
      ],
      "name": "isCommitWindowOpen",
      "outputs": [
        {
          "internalType": "bool",
          "name": "",
          "type": "bool"
        }
      ],
      "stateMutability": "view",
      "type": "function"
    },
    {
      "inputs": [],
      "name": "name",
      "outputs": [
        {
          "internalType": "string",
          "name": "",
          "type": "string"
        }
      ],
      "stateMutability": "pure",
      "type": "function"
    },
    {
      "inputs": [],
      "name": "parametersStorage",
      "outputs": [
        {
          "internalType": "contract ParametersStorage",
          "name": "",
          "type": "address"
        }
      ],
      "stateMutability": "view",
      "type": "function"
    },
    {
      "inputs": [],
      "name": "profileStorage",
      "outputs": [
        {
          "internalType": "contract ProfileStorage",
          "name": "",
          "type": "address"
        }
      ],
      "stateMutability": "view",
      "type": "function"
    },
    {
      "inputs": [
        {
          "internalType": "uint256",
          "name": "",
          "type": "uint256"
        }
      ],
      "name": "reqs",
      "outputs": [
        {
          "internalType": "bool",
          "name": "",
          "type": "bool"
        }
      ],
      "stateMutability": "view",
      "type": "function"
    },
    {
      "inputs": [],
      "name": "scoringProxy",
      "outputs": [
        {
          "internalType": "contract ScoringProxy",
          "name": "",
          "type": "address"
        }
      ],
      "stateMutability": "view",
      "type": "function"
    },
    {
      "inputs": [],
      "name": "serviceAgreementStorageProxy",
      "outputs": [
        {
          "internalType": "contract ServiceAgreementStorageProxy",
          "name": "",
          "type": "address"
        }
      ],
      "stateMutability": "view",
      "type": "function"
    },
    {
      "inputs": [
        {
          "internalType": "uint256",
          "name": "index",
          "type": "uint256"
        },
        {
          "internalType": "bool",
          "name": "req",
          "type": "bool"
        }
      ],
      "name": "setReq",
      "outputs": [],
      "stateMutability": "nonpayable",
      "type": "function"
    },
    {
      "inputs": [
        {
          "internalType": "bool",
          "name": "_status",
          "type": "bool"
        }
      ],
      "name": "setStatus",
      "outputs": [],
      "stateMutability": "nonpayable",
      "type": "function"
    },
    {
      "inputs": [],
      "name": "shardingTableStorage",
      "outputs": [
        {
          "internalType": "contract ShardingTableStorage",
          "name": "",
          "type": "address"
        }
      ],
      "stateMutability": "view",
      "type": "function"
    },
    {
      "inputs": [],
      "name": "stakingContract",
      "outputs": [
        {
          "internalType": "contract Staking",
          "name": "",
          "type": "address"
        }
      ],
      "stateMutability": "view",
      "type": "function"
    },
    {
      "inputs": [],
      "name": "stakingStorage",
      "outputs": [
        {
          "internalType": "contract StakingStorage",
          "name": "",
          "type": "address"
        }
      ],
      "stateMutability": "view",
      "type": "function"
    },
    {
      "inputs": [],
      "name": "status",
      "outputs": [
        {
          "internalType": "bool",
          "name": "",
          "type": "bool"
        }
      ],
      "stateMutability": "view",
      "type": "function"
    },
    {
      "inputs": [
        {
          "components": [
            {
              "internalType": "address",
              "name": "assetContract",
              "type": "address"
            },
            {
              "internalType": "uint256",
              "name": "tokenId",
              "type": "uint256"
            },
            {
              "internalType": "bytes",
              "name": "keyword",
              "type": "bytes"
            },
            {
              "internalType": "uint8",
              "name": "hashFunctionId",
              "type": "uint8"
            },
            {
              "internalType": "uint16",
              "name": "epoch",
              "type": "uint16"
            }
          ],
          "internalType": "struct ServiceAgreementStructsV1.CommitInputArgs",
          "name": "args",
          "type": "tuple"
        }
      ],
      "name": "submitCommit",
      "outputs": [],
      "stateMutability": "nonpayable",
      "type": "function"
    },
    {
      "inputs": [],
      "name": "version",
      "outputs": [
        {
          "internalType": "string",
          "name": "",
          "type": "string"
        }
      ],
      "stateMutability": "pure",
      "type": "function"
    }
  ],
  "transactionHash": "0x20e1f71e69a4247282a5dd16e9e80639087e6a75b915eb415b0a18e993413b3a",
  "args": [
    "0x224aEC6891d26e994D4Dbf207aE099ca029b3E67"
  ],
  "numDeployments": 1,
  "solcInputHash": "6736b5a2b01ed07b57366e384b7e7c88",
  "bytecode": "0x6080346200014357601f620028ba38819003918201601f19168301926001600160401b0392909190838511838610176200014857808392604096875283396020928391810103126200014357516001600160a01b038116929083900362000143578215620000ff57600080546001600160a01b03191690931783558351906080820190811182821017620000eb578452828152828282015282848201528260608201529082905b60048210620000c3575050506001555161275b90816200015f8239f35b9091928160019185511515908560031b60ff811b9283911b16911916179401920190620000a6565b634e487b7160e01b84526041600452602484fd5b835162461bcd60e51b815260048101839052601960248201527f48756220416464726573732063616e6e6f7420626520307830000000000000006044820152606490fd5b600080fd5b634e487b7160e01b600052604160045260246000fdfe608080604052600436101561001357600080fd5b600090813560e01c90816306fdde0314611e445750806311c94ee814611e1b578063169df8d814610da9578063200d2ed214610d84578063365a86fc14610d5d57806354fd4d5014610d135780635c40f6f414610ccf578063639a86a314610ca65780637662966a14610c7d5780637db4ffd8146106f05780637ea63c6e1461067d5780638129fc1c1461025a578063823e2bc71461023157806383de896b146101f057806390b8145a146101c7578063b518a00e1461019e578063becdd5971461017a578063ee99205c14610151578063f11abfd8146101285763f42cb038146100fd57600080fd5b346101255780600319360112610125576007546040516001600160a01b039091168152602090f35b80fd5b50346101255780600319360112610125576005546040516001600160a01b039091168152602090f35b50346101255780600319360112610125576004546040516001600160a01b039091168152602090f35b503461012557602061019461018e36611edb565b90612035565b6040519015158152f35b5034610125578060031936011261012557600a546040516001600160a01b039091168152602090f35b50346101255780600319360112610125576008546040516001600160a01b039091168152602090f35b503461012557602036600319011261012557600435600481101561022d578060ff60209260051c6001015460f86040519360031b161c1615158152f35b5080fd5b50346101255780600319360112610125576009546040516001600160a01b039091168152602090f35b5034610125578060031936011261012557610273612657565b60018060a01b0380825416906040519183630110ceef60e21b808552602092836004870152602490600c828801526044926b48617368696e6750726f787960a01b8489015260649186898481845afa988915610672578699610653575b50876001600160601b0360a01b9916896002541617600255604051828152876004820152600c858201526b53636f72696e6750726f787960a01b8682015287818581855afa801561059a5789918891610636575b5016896003541617600355604051828152876004820152600785820152665374616b696e6760c81b8682015287818581855afa801561059a5789918891610619575b5016896004541617600455604051828152876004820152600f858201526e4964656e7469747953746f7261676560881b8682015287818581855afa801561059a57899188916105fc575b501689600554161760055560405182815287600482015260118582015270506172616d657465727353746f7261676560781b8682015287818581855afa801561059a57899188916105df575b5016896006541617600655604051828152876004820152600e858201526d50726f66696c6553746f7261676560901b8682015287818581855afa801561059a57899188916105c2575b5016896007541617600755604051828152876004820152601c858201527f5365727669636541677265656d656e7453746f7261676550726f7879000000008682015287818581855afa801561059a57899188916105a5575b5016896008541617600855604051828152876004820152601485820152735368617264696e675461626c6553746f7261676560601b8682015287818581855afa95861561059a578989976d5374616b696e6753746f7261676560901b93600e9a9161057d575b50168b6009541617600955604051978896879586528860048701528501528301525afa918215610572578592610545575b50501690600a541617600a55604051f35b6105649250803d1061056b575b61055c8183611f5e565b810190611f80565b3880610534565b503d610552565b6040513d87823e3d90fd5b6105949150893d8b1161056b5761055c8183611f5e565b38610503565b6040513d89823e3d90fd5b6105bc9150893d8b1161056b5761055c8183611f5e565b3861049d565b6105d99150893d8b1161056b5761055c8183611f5e565b38610445565b6105f69150893d8b1161056b5761055c8183611f5e565b386103fc565b6106139150893d8b1161056b5761055c8183611f5e565b386103b0565b6106309150893d8b1161056b5761055c8183611f5e565b38610366565b61064d9150893d8b1161056b5761055c8183611f5e565b38610324565b61066b919950873d891161056b5761055c8183611f5e565b97386102d0565b6040513d88823e3d90fd5b5034610125576040366003190112610125576004356024358015158091036106eb576106a7612657565b60048210156106d5578160051c6001019160f883549160031b1660ff811b9283911b16911916179055604051f35b634e487b7160e01b600052603260045260246000fd5b600080fd5b5034610125576106ff36611edb565b6008546040516310dc199160e31b8152600481018490526001600160a01b03939184169190602081602481865afa908115610672578691610c4e575b5015610c365760405163d1a640c760e01b8082526004820183905290602081602481875afa90811561059a578791610c17575b5061ffff8091169085161015610ab657506020600494600654166040519586809263659621b560e01b82525afa938415610572578594610a85575b506107b963ffffffff851661232e565b926107c76040519485611f5e565b63ffffffff8516808552601f19906107de9061232e565b01865b818110610a5657505060405163bec3db4360e01b81526004810183905261ffff82166024820152602081604481875afa90811561059a578791610a24575b506040519063223dea6d60e21b82526004820152608081602481875afa90811561059a578791610a05575b50610854856123c4565b5261085e846123c4565b506001600160481b036040610872866123c4565b51015116906001915b63ffffffff871660ff841610806109f3575b15610969576040516108b7816108a960208201948689876123e5565b03601f198101835282611f5e565b5190206040519063223dea6d60e21b82526004820152608081602481885afa90811561095e57889161092f575b506108f260ff8416876123d1565b5261090060ff8316866123d1565b5063ffffffff60ff60016001600160481b0360406109208488168b6123d1565b5101511694011692905061087b565b610951915060803d608011610957575b6109498183611f5e565b81019061236c565b386108e4565b503d61093f565b6040513d8a823e3d90fd5b8588604051918291602083016020845282518091526020604085019301915b818110610996575050500390f35b919350916020608060019286516001600160481b0381511682526001600160481b038482015116848301526001600160481b03604082015116604083015264ffffffffff6060809201511690820152019401910191849392610988565b506001600160481b038116151561088d565b610a1e915060803d608011610957576109498183611f5e565b3861084a565b90506020813d602011610a4e575b81610a3f60209383611f5e565b810103126106eb57513861081f565b3d9150610a32565b602090604051610a6581611f26565b8981528983820152896040820152896060820152828289010152016107e1565b610aa891945060203d602011610aaf575b610aa08183611f5e565b810190612312565b92386107a9565b503d610a96565b604051630271c2cf60e61b81526004810183905286945092602084602481845afa938415610572578594610be3575b50604051918252826004830152602082602481845afa908115610572576024928692610bb1575b506020906040519384809263484a47e760e01b82528760048301525afa91821561057257610b7c93949592610b80575b50604051948594631b18d90960e31b865260048601929361ffff6001600160801b0392969560609460808701988752602087015216604085015216910152565b0390fd5b610ba391925060203d602011610baa575b610b9b8183611f5e565b810190611f9f565b9085610b3c565b503d610b91565b6020919250610bd590823d8411610bdc575b610bcd8183611f5e565b810190611fbe565b9190610b0c565b503d610bc3565b9093506020813d602011610c0f575b81610bff60209383611f5e565b810103126106eb57519285610ae5565b3d9150610bf2565b610c30915060203d602011610bdc57610bcd8183611f5e565b3861076e565b60249060405190635013c2b960e01b82526004820152fd5b610c70915060203d602011610c76575b610c688183611f5e565b8101906122fa565b3861073b565b503d610c5e565b50346101255780600319360112610125576003546040516001600160a01b039091168152602090f35b50346101255780600319360112610125576006546040516001600160a01b039091168152602090f35b5034610125576020366003190112610125576004358015158091036106eb57610cf6612657565b815460ff60a01b191660a09190911b60ff60a01b16178155604051f35b5034610125578060031936011261012557610d59604051610d3381611f42565b60058152640312e302e360dc1b6020820152604051918291602083526020830190611eb6565b0390f35b5034610125578060031936011261012557546040516001600160a01b039091168152602090f35b503461012557806003193601126101255760ff6020915460a01c166040519015158152f35b50346101255760203660031901126101255767ffffffffffffffff600435116101255760a06004353603600319011261012557600854600254610ea092916001600160a01b039081169160209116610e05600435606401612418565b9060ff610e16600435600401612426565b92610e756054610e3060446004350160043560040161243a565b60405160609890981b6bffffffffffffffffffffffff191689890152600435602401356034890152879181908484013781018a83820152036034810187520185611f5e565b604051978894859384936345ed59e560e01b8552166004840152604060248401526044830190611eb6565b03915afa92831561143e578293611de7575b506040516310dc199160e31b815260048101849052602081602481855afa908115611ddc578391611dbd575b5015611da4576001549260ff84161580611d86575b611bec5760055460405163010cf48d60e71b815233600482015290602090829060249082906001600160a01b03165afa908115611be1578491611ba3575b5060ff8560081c161580611b39575b6119e55760035460405163ce60dc6160e01b81526004810184905291906001600160a01b0316602083602481885afa9283156106725786936119b4575b50610f8c606460043501612418565b9060018060a01b0360075416936040516320e085cd60e11b81526001600160481b03851660048201528881602481895afa90811561162657906024918a9161199a575b50610fe460446004350160043560040161243a565b600a54604051639d2b48ad60e01b81526001600160481b038a166004820152949293919260209186919082906001600160a01b03165afa93841561126d579260ff9897959260209795928a958f94611956575b509161108c9161107a6001600160601b03946040519d8e9b8c9a8b9a630168f40160e31b8c521660048b015216602489015260a0604489015260a4880190611eb6565b86810360031901606488015291612507565b9116608483015203915afa91821561067257869261191a575b506110b460846004350161246d565b9160405160208101906110cd816108a986888b876123e5565b51902060ff8960101c1615806118c9575b6118235760405163bec3db4360e01b81526004810187905261ffff85166024820152946020866044818b5afa9586156116265789966117eb575b50600654604051635b3db70f60e11b8152600481018890526001600160a01b039091169691906020816024818d5afa90811561179d578b916117a8575b506020600491986040519283809263659621b560e01b82525afa90811561179d578b9161177e575b5091968a975b604051635c6c1fef60e01b8152600481018290526020816024818f5afa908115611773578d91611735575b5064ffffffffff8091169087161080611723575b80611711575b1561127857506108a96111e88a926040519283918b6020840196876123e5565b519020604051635b3db70f60e11b8152600481018290529092906020816024818e5afa90811561126d578c9161122a575b50600160ff91990116979092611183565b90506020813d602011611265575b8161124560209383611f5e565b8101031261126157600161125a60ff92612346565b9150611219565b8b80fd5b3d9150611238565b6040513d8e823e3d90fd5b8a91508b9794928a9460ff8f60181c161590816116fd575b506116355750813b1561163157604051986347c5347360e11b8a528360048b01526001600160481b03881660248b01528860448b01528860648b015264ffffffffff871660848b0152888a60a48183875af180156116265761160e575b889950604098969798519163223dea6d60e21b83526004830152608082602481865afa91821561059a5787926115eb575b5060ff161580806115d9575b1561144d575050803b1561144957604051632301fccf60e11b8152600481019390935261ffff93909316602483015260448201529082908290606490829084905af1801561143e57611426575b505061ffff6000805160206127068339815191526001600160481b036080945b64ffffffffff6113ab600435600401612426565b956113c060446004350160043560040161243a565b60ff6113f56113d6606460049b959b3501612418565b996113e560846004350161246d565b936040519d8e8181520191612507565b981660208b0152166040890152166060870152169360043560240135936001600160a01b03169281900390a4604051f35b61142f90611efc565b61143a578284611377565b8280fd5b6040513d84823e3d90fd5b8480fd5b8080979493929597906115bd575b1561149657505050508461149160809661ffff95600080516020612706833981519152956001600160481b038096511691612528565b611397565b806115a2575b1561153357803b1561143a57604051632301fccf60e11b81526004810187905261ffff86166024820152604481019290925282908290606490829084905af1801561143e57611515575b50508461149161ffff94608097600080516020612706833981519152956001600160481b038096511692612528565b61152190949394611efc565b61152f5785879392936114e6565b8580fd5b505050848161ffff946080976000805160206127068339815191529564ffffffffff60606001600160481b039701511664ffffffffff8a161160001461159257858461158a84836020611491990151168588612528565b511692612528565b8561149194939293511691612528565b5064ffffffffff60608501511664ffffffffff88161161149c565b5064ffffffffff60608601511664ffffffffff8916111561145b565b506001600160481b038251161561132a565b60ff9192506116079060803d8111610957576109498183611f5e565b919061131e565b959697909861161c90611efc565b96959488906112ed565b6040513d8b823e3d90fd5b8780fd5b848a8a8a6024828b96604051928380926320e085cd60e11b82526001600160481b03871660048301525afa9283156116f1579160ff9391836116b794936116c2575b50506001600160481b039061ffff6040519889986311168fa360e01b8a5260048a015216602488015216604486015260a0606486015260a4850190611eb6565b911660848301520390fd5b6001600160481b03929350906116e9913d8091833e6116e18183611f5e565b81019061247c565b919088611677565b604051903d90823e3d90fd5b63ffffffff91501660ff8b1610158b611290565b5063ffffffff841660ff8a16106111c8565b506001600160481b03821615156111c2565b90506020813d60201161176b575b8161175060209383611f5e565b81010312611767576117619061235a565b386111ae565b8c80fd5b3d9150611743565b6040513d8f823e3d90fd5b611797915060203d602011610aaf57610aa08183611f5e565b3861117d565b6040513d8d823e3d90fd5b90506020813d6020116117e3575b816117c360209383611f5e565b810103126117df5760206117d8600492612346565b9150611155565b8a80fd5b3d91506117b6565b9095506020813d60201161181b575b8161180760209383611f5e565b8101031261181757519438611118565b8880fd5b3d91506117fa565b505090935084602492604051938480926320e085cd60e11b82526001600160481b03861660048301525afa9182156105725785610b7c949596936118a2575b50506001600160481b039061ffff604051968796631f5a1aa960e11b88526004880152166024860152166044840152608060648401526084830190611eb6565b6001600160481b03929350906118c1913d8091833e6116e18183611f5e565b919086611862565b5060405163c45d174960e01b8152600481018290526020816024818b5afa9081156116265789916118fb575b506110de565b611914915060203d602011610c7657610c688183611f5e565b386118f5565b9091506020813d60201161194e575b8161193660209383611f5e565b8101031261152f576119479061235a565b90386110a5565b3d9150611929565b6001600160601b03939194509161107a61198861108c948c3d8e11611993575b6119808183611f5e565b8101906124e8565b959294505091611037565b503d611976565b6119ae91503d808c833e6116e18183611f5e565b38610fcf565b6119d791935060203d6020116119de575b6119cf8183611f5e565b810190611fd8565b9138610f7d565b503d6119c5565b6007546040516320e085cd60e11b81526001600160481b0392909216600483018190529085906001600160a01b03168184602481845afa93841561143e578294611b17575b506020602491604051928380926339fb67dd60e01b82528760048301525afa90811561143e578291611af8575b50600a54604051639d2b48ad60e01b81526004810185905290602090829060249082906001600160a01b03165afa9283156116f15792611ad7575b50611abc604051948594636e2310c160e01b86526004860152608060248601526084850190611eb6565b916001600160601b0380921660448501521660648301520390fd5b611af191925060203d602011611993576119808183611f5e565b9084611a92565b611b11915060203d602011611993576119808183611f5e565b84611a57565b6024919450611b316020913d8086833e6116e18183611f5e565b949150611a2a565b5060095460405163175a11e760e21b81526001600160481b038316600482015290602090829060249082906001600160a01b03165afa908115610572578591611b84575b5015610f40565b611b9d915060203d602011610c7657610c688183611f5e565b38611b7d565b90506020813d602011611bd9575b81611bbe60209383611f5e565b81010312611bd557611bcf90612346565b38610f31565b8380fd5b3d9150611bb1565b6040513d86823e3d90fd5b60405163484a47e760e01b8152600481018290529091602082602481845afa918215611be1578492611d61575b50602060249160405192838092630271c2cf60e61b82528760048301525afa908115611be1578491611d2f575b50611c7661ffff916001600160801b03611c6f8585611c6960846004350161246d565b16611ff1565b1690612028565b90611c8560846004350161246d565b600654604051637ad65f2760e01b815291949190602090829060049082906001600160a01b03165afa90811561059a576001600160801b03611cdb611ce49460ff839560649560a49d91611d10575b5016611ff1565b16041683612028565b9260405194632689ca7960e21b8652600486015216602484015260448301526064820152426084820152fd5b611d29915060203d6020116119de576119cf8183611f5e565b8d611cd4565b90506020813d602011611d59575b81611d4a60209383611f5e565b81010312611bd5575184611c46565b3d9150611d3d565b6024919250611d7e602091823d8411610baa57610b9b8183611f5e565b929150611c19565b50611d9e611d9860846004350161246d565b82612035565b15610ef3565b604051635013c2b960e01b815260048101849052602490fd5b611dd6915060203d602011610c7657610c688183611f5e565b38610ede565b6040513d85823e3d90fd5b9092506020813d602011611e13575b81611e0360209383611f5e565b8101031261022d57519138610eb2565b3d9150611df6565b50346101255780600319360112610125576002546040516001600160a01b039091168152602090f35b90503461022d578160031936011261022d5780611e63610d5992611f42565b600f81526e436f6d6d69744d616e61676572563160881b6020820152604051918291602083526020830190611eb6565b60005b838110611ea65750506000910152565b8181015183820152602001611e96565b90602091611ecf81518092818552858086019101611e93565b601f01601f1916010190565b60409060031901126106eb576004359060243561ffff811681036106eb5790565b67ffffffffffffffff8111611f1057604052565b634e487b7160e01b600052604160045260246000fd5b6080810190811067ffffffffffffffff821117611f1057604052565b6040810190811067ffffffffffffffff821117611f1057604052565b90601f8019910116810190811067ffffffffffffffff821117611f1057604052565b908160209103126106eb57516001600160a01b03811681036106eb5790565b908160209103126106eb57516001600160801b03811681036106eb5790565b908160209103126106eb575161ffff811681036106eb5790565b908160209103126106eb575160ff811681036106eb5790565b6001600160801b039182809216918291169204821181151516612012570290565b634e487b7160e01b600052601160045260246000fd5b9190820180921161201257565b60085460408051630271c2cf60e61b815260048082018590526001600160a01b0393841695949193909160209182866024818b5afa9586156122ef576000966122c0575b50600654169084519763484a47e760e01b895281858a01528389602481845afa9889156122b557600099612296575b50861561227f57855163d1a640c760e01b8082528682018490529098858a602481865afa998a156122745760009a612255575b5061ffff80911699168910156121c15750508451637ad65f2760e01b815293839285925082905afa9283156121b75750859260ff9260649260009261219a575b50506121336001600160801b03948594859316611ff1565b160416928015612189576121528261214b8388611ff1565b1684612028565b4210159485612164575b505050505090565b61217d9550612178939291611c6f91611ff1565b612028565b4210388080808061215c565b50506121959250612028565b421090565b6121b09250803d106119de576119cf8183611f5e565b388061211b565b513d6000823e3d90fd5b898593928989868a95602483518096819382528a8a8301525afa92831561224a57610b7c95969760009461222b575b505051631b18d90960e31b8152948501958652602086015261ffff1660408501526001600160801b0316606084015290918291608090910190565b612242929450803d10610bdc57610bcd8183611f5e565b9187806121f0565b50513d6000823e3d90fd5b61226d919a50863d8811610bdc57610bcd8183611f5e565b98386120db565b88513d6000823e3d90fd5b8551635013c2b960e01b8152808601839052602490fd5b6122ae919950843d8611610baa57610b9b8183611f5e565b97386120a8565b86513d6000823e3d90fd5b90958382813d83116122e8575b6122d78183611f5e565b810103126101255750519438612079565b503d6122cd565b85513d6000823e3d90fd5b908160209103126106eb575180151581036106eb5790565b908160209103126106eb575163ffffffff811681036106eb5790565b67ffffffffffffffff8111611f105760051b60200190565b51906001600160481b03821682036106eb57565b519064ffffffffff821682036106eb57565b908160809103126106eb576123bc60606040519261238984611f26565b61239281612346565b84526123a060208201612346565b60208501526123b160408201612346565b60408501520161235a565b606082015290565b8051156106d55760200190565b80518210156106d55760209160051b010190565b90815260f09190911b6001600160f01b031916602082015260b89190911b6001600160b81b0319166022820152602b0190565b3560ff811681036106eb5790565b356001600160a01b03811681036106eb5790565b903590601e19813603018212156106eb570180359067ffffffffffffffff82116106eb576020019181360383136106eb57565b3561ffff811681036106eb5790565b6020818303126106eb57805167ffffffffffffffff918282116106eb57019082601f830112156106eb578151908111611f1057604051926124c7601f8301601f191660200185611f5e565b818452602082840101116106eb576124e59160208085019101611e93565b90565b908160209103126106eb57516001600160601b03811681036106eb5790565b908060209392818452848401376000828201840152601f01601f1916010190565b600854604080516000969195946001600160a01b0390931693926020820182612553888488856123e5565b0392612567601f1994858101835282611f5e565b519020853b15611817578751638a0f01b560e01b815260048101919091526001600160481b03841660248201528881604481838a5af1801561264d57612636575b50906125cd916125c188519485926020840197886123e5565b03908101835282611f5e565b519020813b15611449578351631c30973d60e31b815260048101919091526001600160481b0392909216602483015290919083908390604490829084905af190811561262d575061261c575050565b6126268291611efc565b6101255750565b513d84823e3d90fd5b976126456125cd939299611efc565b9790916125a8565b88513d8b823e3d90fd5b600054604051638da5cb5b60e01b81526001600160a01b03916020908290600490829086165afa9081156126f9576000916126db575b5016330361269757565b606460405162461bcd60e51b815260206004820152602060248201527f466e2063616e206f6e6c79206265207573656420627920687562206f776e65726044820152fd5b6126f3915060203d811161056b5761055c8183611f5e565b3861268d565b6040513d6000823e3d90fdfee1a7e1465ab7eb42ef723e017eaef81cadc2f5b2d92fc93fea184d3222854e5da26469706673582212200bbe09cb8aa7c0ed24a1e69ac720ae1bdab5c706eeb7bdc712fac693b41fa5a564736f6c63430008100033",
  "devdoc": {
    "kind": "dev",
    "methods": {},
    "version": 1
  },
  "userdoc": {
    "kind": "user",
    "methods": {},
    "version": 1
  },
  "storageLayout": {
    "storage": [
      {
        "astId": 15408,
        "contract": "contracts/CommitManagerV1.sol:CommitManagerV1",
        "label": "hub",
        "offset": 0,
        "slot": "0",
        "type": "t_contract(Hub)9211"
      },
      {
        "astId": 15379,
        "contract": "contracts/CommitManagerV1.sol:CommitManagerV1",
        "label": "status",
        "offset": 20,
        "slot": "0",
        "type": "t_bool"
      },
      {
        "astId": 6076,
        "contract": "contracts/CommitManagerV1.sol:CommitManagerV1",
        "label": "reqs",
        "offset": 0,
        "slot": "1",
        "type": "t_array(t_bool)4_storage"
      },
      {
        "astId": 6079,
        "contract": "contracts/CommitManagerV1.sol:CommitManagerV1",
        "label": "hashingProxy",
        "offset": 0,
        "slot": "2",
        "type": "t_contract(HashingProxy)8950"
      },
      {
        "astId": 6082,
        "contract": "contracts/CommitManagerV1.sol:CommitManagerV1",
        "label": "scoringProxy",
        "offset": 0,
        "slot": "3",
        "type": "t_contract(ScoringProxy)12659"
      },
      {
        "astId": 6085,
        "contract": "contracts/CommitManagerV1.sol:CommitManagerV1",
        "label": "stakingContract",
        "offset": 0,
        "slot": "4",
        "type": "t_contract(Staking)15211"
      },
      {
        "astId": 6088,
        "contract": "contracts/CommitManagerV1.sol:CommitManagerV1",
        "label": "identityStorage",
        "offset": 0,
        "slot": "5",
        "type": "t_contract(IdentityStorage)18485"
      },
      {
        "astId": 6091,
        "contract": "contracts/CommitManagerV1.sol:CommitManagerV1",
        "label": "parametersStorage",
        "offset": 0,
        "slot": "6",
        "type": "t_contract(ParametersStorage)19108"
      },
      {
        "astId": 6094,
        "contract": "contracts/CommitManagerV1.sol:CommitManagerV1",
        "label": "profileStorage",
        "offset": 0,
        "slot": "7",
        "type": "t_contract(ProfileStorage)19582"
      },
      {
        "astId": 6097,
        "contract": "contracts/CommitManagerV1.sol:CommitManagerV1",
        "label": "serviceAgreementStorageProxy",
        "offset": 0,
        "slot": "8",
        "type": "t_contract(ServiceAgreementStorageProxy)21098"
      },
      {
        "astId": 6100,
        "contract": "contracts/CommitManagerV1.sol:CommitManagerV1",
        "label": "shardingTableStorage",
        "offset": 0,
        "slot": "9",
        "type": "t_contract(ShardingTableStorage)22972"
      },
      {
        "astId": 6103,
        "contract": "contracts/CommitManagerV1.sol:CommitManagerV1",
        "label": "stakingStorage",
        "offset": 0,
        "slot": "10",
        "type": "t_contract(StakingStorage)23184"
      }
    ],
    "types": {
      "t_array(t_bool)4_storage": {
        "base": "t_bool",
        "encoding": "inplace",
        "label": "bool[4]",
        "numberOfBytes": "32"
      },
      "t_bool": {
        "encoding": "inplace",
        "label": "bool",
        "numberOfBytes": "1"
      },
      "t_contract(HashingProxy)8950": {
        "encoding": "inplace",
        "label": "contract HashingProxy",
        "numberOfBytes": "20"
      },
      "t_contract(Hub)9211": {
        "encoding": "inplace",
        "label": "contract Hub",
        "numberOfBytes": "20"
      },
      "t_contract(IdentityStorage)18485": {
        "encoding": "inplace",
        "label": "contract IdentityStorage",
        "numberOfBytes": "20"
      },
      "t_contract(ParametersStorage)19108": {
        "encoding": "inplace",
        "label": "contract ParametersStorage",
        "numberOfBytes": "20"
      },
      "t_contract(ProfileStorage)19582": {
        "encoding": "inplace",
        "label": "contract ProfileStorage",
        "numberOfBytes": "20"
      },
      "t_contract(ScoringProxy)12659": {
        "encoding": "inplace",
        "label": "contract ScoringProxy",
        "numberOfBytes": "20"
      },
      "t_contract(ServiceAgreementStorageProxy)21098": {
        "encoding": "inplace",
        "label": "contract ServiceAgreementStorageProxy",
        "numberOfBytes": "20"
      },
      "t_contract(ShardingTableStorage)22972": {
        "encoding": "inplace",
        "label": "contract ShardingTableStorage",
        "numberOfBytes": "20"
      },
      "t_contract(Staking)15211": {
        "encoding": "inplace",
        "label": "contract Staking",
        "numberOfBytes": "20"
      },
      "t_contract(StakingStorage)23184": {
        "encoding": "inplace",
        "label": "contract StakingStorage",
        "numberOfBytes": "20"
      }
    }
  }
}