{
  "address": "0x85C4E94b0a852E014C054E6372A177062Dd41ac4",
  "abi": [
    {
      "inputs": [
        {
          "internalType": "address",
          "name": "hubAddress",
          "type": "address"
        }
      ],
      "stateMutability": "nonpayable",
      "type": "constructor"
    },
    {
      "inputs": [
        {
          "internalType": "bytes32",
          "name": "agreementId",
          "type": "bytes32"
        },
        {
          "internalType": "uint16",
          "name": "epoch",
          "type": "uint16"
        },
        {
          "internalType": "uint256",
          "name": "stateIndex",
          "type": "uint256"
        },
        {
          "internalType": "uint256",
          "name": "commitWindowOpen",
          "type": "uint256"
        },
        {
          "internalType": "uint256",
          "name": "commitWindowClose",
          "type": "uint256"
        },
        {
          "internalType": "uint256",
          "name": "timeNow",
          "type": "uint256"
        }
      ],
      "name": "CommitWindowClosed",
      "type": "error"
    },
    {
      "inputs": [
        {
          "internalType": "address",
          "name": "assetStorage",
          "type": "address"
        },
        {
          "internalType": "uint256",
          "name": "tokenId",
          "type": "uint256"
        }
      ],
      "name": "NoPendingUpdate",
      "type": "error"
    },
    {
      "inputs": [
        {
          "internalType": "bytes32",
          "name": "agreementId",
          "type": "bytes32"
        },
        {
          "internalType": "uint16",
          "name": "epoch",
          "type": "uint16"
        },
        {
          "internalType": "uint256",
          "name": "stateIndex",
          "type": "uint256"
        },
        {
          "internalType": "uint72",
          "name": "identityId",
          "type": "uint72"
        },
        {
          "internalType": "bytes",
          "name": "nodeId",
          "type": "bytes"
        }
      ],
      "name": "NodeAlreadySubmittedCommit",
      "type": "error"
    },
    {
      "inputs": [
        {
          "internalType": "bytes32",
          "name": "agreementId",
          "type": "bytes32"
        },
        {
          "internalType": "uint16",
          "name": "epoch",
          "type": "uint16"
        },
        {
          "internalType": "uint256",
          "name": "stateIndex",
          "type": "uint256"
        },
        {
          "internalType": "uint72",
          "name": "identityId",
          "type": "uint72"
        },
        {
          "internalType": "bytes",
          "name": "nodeId",
          "type": "bytes"
        },
        {
          "internalType": "uint8",
          "name": "rank",
          "type": "uint8"
        }
      ],
      "name": "NodeNotAwarded",
      "type": "error"
    },
    {
      "inputs": [
        {
          "internalType": "uint72",
          "name": "identityId",
          "type": "uint72"
        },
        {
          "internalType": "bytes",
          "name": "nodeId",
          "type": "bytes"
        },
        {
          "internalType": "uint96",
          "name": "ask",
          "type": "uint96"
        },
        {
          "internalType": "uint96",
          "name": "stake",
          "type": "uint96"
        }
      ],
      "name": "NodeNotInShardingTable",
      "type": "error"
    },
    {
      "inputs": [
        {
          "internalType": "bytes32",
          "name": "agreementId",
          "type": "bytes32"
        }
      ],
      "name": "ServiceAgreementDoesntExist",
      "type": "error"
    },
    {
      "inputs": [
        {
          "internalType": "bytes32",
          "name": "agreementId",
          "type": "bytes32"
        },
        {
          "internalType": "uint256",
          "name": "startTime",
          "type": "uint256"
        },
        {
          "internalType": "uint16",
          "name": "epochsNumber",
          "type": "uint16"
        },
        {
          "internalType": "uint128",
          "name": "epochLength",
          "type": "uint128"
        }
      ],
      "name": "ServiceAgreementHasBeenExpired",
      "type": "error"
    },
    {
      "anonymous": false,
      "inputs": [
        {
          "indexed": true,
          "internalType": "address",
          "name": "assetContract",
          "type": "address"
        },
        {
          "indexed": true,
          "internalType": "uint256",
          "name": "tokenId",
          "type": "uint256"
        },
        {
          "indexed": false,
          "internalType": "bytes",
          "name": "keyword",
          "type": "bytes"
        },
        {
          "indexed": false,
          "internalType": "uint8",
          "name": "hashFunctionId",
          "type": "uint8"
        },
        {
          "indexed": false,
          "internalType": "uint16",
          "name": "epoch",
          "type": "uint16"
        },
        {
          "indexed": false,
          "internalType": "uint256",
          "name": "stateIndex",
          "type": "uint256"
        },
        {
          "indexed": true,
          "internalType": "uint72",
          "name": "identityId",
          "type": "uint72"
        },
        {
          "indexed": false,
          "internalType": "uint40",
          "name": "score",
          "type": "uint40"
        }
      ],
      "name": "CommitSubmitted",
      "type": "event"
    },
    {
      "anonymous": false,
      "inputs": [
        {
          "indexed": true,
          "internalType": "address",
          "name": "assetContract",
          "type": "address"
        },
        {
          "indexed": true,
          "internalType": "uint256",
          "name": "tokenId",
          "type": "uint256"
        },
        {
          "indexed": false,
          "internalType": "bytes",
          "name": "keyword",
          "type": "bytes"
        },
        {
          "indexed": false,
          "internalType": "uint8",
          "name": "hashFunctionId",
          "type": "uint8"
        },
        {
          "indexed": false,
          "internalType": "uint16",
          "name": "epoch",
          "type": "uint16"
        },
        {
          "indexed": false,
          "internalType": "uint256",
          "name": "stateIndex",
          "type": "uint256"
        },
        {
          "indexed": false,
          "internalType": "bytes32",
          "name": "state",
          "type": "bytes32"
        }
      ],
      "name": "StateFinalized",
      "type": "event"
    },
    {
      "inputs": [],
      "name": "contentAssetStorage",
      "outputs": [
        {
          "internalType": "contract ContentAssetStorage",
          "name": "",
          "type": "address"
        }
      ],
      "stateMutability": "view",
      "type": "function"
    },
    {
      "inputs": [
        {
          "internalType": "bytes32",
          "name": "agreementId",
          "type": "bytes32"
        },
        {
          "internalType": "uint16",
          "name": "epoch",
          "type": "uint16"
        },
        {
          "internalType": "uint256",
          "name": "stateIndex",
          "type": "uint256"
        }
      ],
      "name": "getTopCommitSubmissions",
      "outputs": [
        {
          "components": [
            {
              "internalType": "uint72",
              "name": "identityId",
              "type": "uint72"
            },
            {
              "internalType": "uint72",
              "name": "prevIdentityId",
              "type": "uint72"
            },
            {
              "internalType": "uint72",
              "name": "nextIdentityId",
              "type": "uint72"
            },
            {
              "internalType": "uint40",
              "name": "score",
              "type": "uint40"
            }
          ],
          "internalType": "struct ServiceAgreementStructsV1.CommitSubmission[]",
          "name": "",
          "type": "tuple[]"
        }
      ],
      "stateMutability": "view",
      "type": "function"
    },
    {
      "inputs": [],
      "name": "hashingProxy",
      "outputs": [
        {
          "internalType": "contract HashingProxy",
          "name": "",
          "type": "address"
        }
      ],
      "stateMutability": "view",
      "type": "function"
    },
    {
      "inputs": [],
      "name": "hub",
      "outputs": [
        {
          "internalType": "contract Hub",
          "name": "",
          "type": "address"
        }
      ],
      "stateMutability": "view",
      "type": "function"
    },
    {
      "inputs": [],
      "name": "identityStorage",
      "outputs": [
        {
          "internalType": "contract IdentityStorage",
          "name": "",
          "type": "address"
        }
      ],
      "stateMutability": "view",
      "type": "function"
    },
    {
      "inputs": [],
      "name": "initialize",
      "outputs": [],
      "stateMutability": "nonpayable",
      "type": "function"
    },
    {
      "inputs": [
        {
          "internalType": "bytes32",
          "name": "agreementId",
          "type": "bytes32"
        },
        {
          "internalType": "uint16",
          "name": "epoch",
          "type": "uint16"
        }
      ],
      "name": "isCommitWindowOpen",
      "outputs": [
        {
          "internalType": "bool",
          "name": "",
          "type": "bool"
        }
      ],
      "stateMutability": "view",
      "type": "function"
    },
    {
      "inputs": [
        {
          "internalType": "bytes32",
          "name": "agreementId",
          "type": "bytes32"
        },
        {
          "internalType": "uint16",
          "name": "epoch",
          "type": "uint16"
        },
        {
          "internalType": "uint256",
          "name": "stateIndex",
          "type": "uint256"
        }
      ],
      "name": "isUpdateCommitWindowOpen",
      "outputs": [
        {
          "internalType": "bool",
          "name": "",
          "type": "bool"
        }
      ],
      "stateMutability": "view",
      "type": "function"
    },
    {
      "inputs": [],
      "name": "name",
      "outputs": [
        {
          "internalType": "string",
          "name": "",
          "type": "string"
        }
      ],
      "stateMutability": "pure",
      "type": "function"
    },
    {
      "inputs": [],
      "name": "parametersStorage",
      "outputs": [
        {
          "internalType": "contract ParametersStorage",
          "name": "",
          "type": "address"
        }
      ],
      "stateMutability": "view",
      "type": "function"
    },
    {
      "inputs": [],
      "name": "profileStorage",
      "outputs": [
        {
          "internalType": "contract ProfileStorage",
          "name": "",
          "type": "address"
        }
      ],
      "stateMutability": "view",
      "type": "function"
    },
    {
      "inputs": [
        {
          "internalType": "uint256",
          "name": "",
          "type": "uint256"
        }
      ],
      "name": "reqs",
      "outputs": [
        {
          "internalType": "bool",
          "name": "",
          "type": "bool"
        }
      ],
      "stateMutability": "view",
      "type": "function"
    },
    {
      "inputs": [],
      "name": "scoringProxy",
      "outputs": [
        {
          "internalType": "contract ScoringProxy",
          "name": "",
          "type": "address"
        }
      ],
      "stateMutability": "view",
      "type": "function"
    },
    {
      "inputs": [],
      "name": "serviceAgreementStorageProxy",
      "outputs": [
        {
          "internalType": "contract ServiceAgreementStorageProxy",
          "name": "",
          "type": "address"
        }
      ],
      "stateMutability": "view",
      "type": "function"
    },
    {
      "inputs": [
        {
          "internalType": "uint256",
          "name": "index",
          "type": "uint256"
        },
        {
          "internalType": "bool",
          "name": "req",
          "type": "bool"
        }
      ],
      "name": "setReq",
      "outputs": [],
      "stateMutability": "nonpayable",
      "type": "function"
    },
    {
      "inputs": [
        {
          "internalType": "bool",
          "name": "_status",
          "type": "bool"
        }
      ],
      "name": "setStatus",
      "outputs": [],
      "stateMutability": "nonpayable",
      "type": "function"
    },
    {
      "inputs": [],
      "name": "shardingTableStorage",
      "outputs": [
        {
          "internalType": "contract ShardingTableStorage",
          "name": "",
          "type": "address"
        }
      ],
      "stateMutability": "view",
      "type": "function"
    },
    {
      "inputs": [],
      "name": "stakingContract",
      "outputs": [
        {
          "internalType": "contract Staking",
          "name": "",
          "type": "address"
        }
      ],
      "stateMutability": "view",
      "type": "function"
    },
    {
      "inputs": [],
      "name": "stakingStorage",
      "outputs": [
        {
          "internalType": "contract StakingStorage",
          "name": "",
          "type": "address"
        }
      ],
      "stateMutability": "view",
      "type": "function"
    },
    {
      "inputs": [],
      "name": "status",
      "outputs": [
        {
          "internalType": "bool",
          "name": "",
          "type": "bool"
        }
      ],
      "stateMutability": "view",
      "type": "function"
    },
    {
      "inputs": [
        {
          "components": [
            {
              "internalType": "address",
              "name": "assetContract",
              "type": "address"
            },
            {
              "internalType": "uint256",
              "name": "tokenId",
              "type": "uint256"
            },
            {
              "internalType": "bytes",
              "name": "keyword",
              "type": "bytes"
            },
            {
              "internalType": "uint8",
              "name": "hashFunctionId",
              "type": "uint8"
            },
            {
              "internalType": "uint16",
              "name": "epoch",
              "type": "uint16"
            }
          ],
          "internalType": "struct ServiceAgreementStructsV1.CommitInputArgs",
          "name": "args",
          "type": "tuple"
        }
      ],
      "name": "submitCommit",
      "outputs": [],
      "stateMutability": "nonpayable",
      "type": "function"
    },
    {
      "inputs": [
        {
          "components": [
            {
              "internalType": "address",
              "name": "assetContract",
              "type": "address"
            },
            {
              "internalType": "uint256",
              "name": "tokenId",
              "type": "uint256"
            },
            {
              "internalType": "bytes",
              "name": "keyword",
              "type": "bytes"
            },
            {
              "internalType": "uint8",
              "name": "hashFunctionId",
              "type": "uint8"
            },
            {
              "internalType": "uint16",
              "name": "epoch",
              "type": "uint16"
            }
          ],
          "internalType": "struct ServiceAgreementStructsV1.CommitInputArgs",
          "name": "args",
          "type": "tuple"
        }
      ],
      "name": "submitUpdateCommit",
      "outputs": [],
      "stateMutability": "nonpayable",
      "type": "function"
    },
    {
      "inputs": [],
      "name": "unfinalizedStateStorage",
      "outputs": [
        {
          "internalType": "contract UnfinalizedStateStorage",
          "name": "",
          "type": "address"
        }
      ],
      "stateMutability": "view",
      "type": "function"
    },
    {
      "inputs": [],
      "name": "version",
      "outputs": [
        {
          "internalType": "string",
          "name": "",
          "type": "string"
        }
      ],
      "stateMutability": "pure",
      "type": "function"
    }
  ],
  "transactionHash": "0x7f739e9add7caa3c4465de8c3b67dfd631fdf6e5eaf34732841cdbaf7df55c37",
  "args": [
    "0x224aEC6891d26e994D4Dbf207aE099ca029b3E67"
  ],
  "numDeployments": 1,
  "solcInputHash": "6736b5a2b01ed07b57366e384b7e7c88",
  "bytecode": "0x6080346200014f57601f62003b8638819003918201601f19168301926001600160401b0392909190838511838610176200015457808392604096875283396020928391810103126200014f57516001600160a01b03811692908390036200014f5782156200010b57600080546001600160a01b031916909317835583519060c0820190811182821017620000f7578452828152828282015282848201528260608201528260808201528260a08201529082905b60068210620000cf5750505060015551613a1b90816200016b8239f35b9091928160019185511515908560031b60ff811b9283911b16911916179401920190620000b2565b634e487b7160e01b84526041600452602484fd5b835162461bcd60e51b815260048101839052601960248201527f48756220416464726573732063616e6e6f7420626520307830000000000000006044820152606490fd5b600080fd5b634e487b7160e01b600052604160045260246000fdfe608080604052600436101561001357600080fd5b600090813560e01c90816306fdde03146125555750806311c94ee81461252c578063169df8d814611d9a578063200d2ed214611d75578063365a86fc14611d4e5780635415d03b14610ede57806354fd4d5014610e945780635c40f6f414610e50578063639a86a314610e275780637662966a14610dfe5780637c3e678e14610de45780637ea63c6e14610d765780638129fc1c1461088d578063823e2bc71461086457806383de896b1461082357806390b8145a146107fa578063b518a00e146107d1578063bd1346ae146107a8578063be07fc231461020c578063becdd597146101cf578063c3573ec7146101a6578063ee99205c1461017d578063f11abfd8146101545763f42cb0381461012957600080fd5b346101515780600319360112610151576008546040516001600160a01b039091168152602090f35b80fd5b50346101515780600319360112610151576006546040516001600160a01b039091168152602090f35b50346101515780600319360112610151576004546040516001600160a01b039091168152602090f35b5034610151578060031936011261015157600c546040516001600160a01b039091168152602090f35b50346101515760403660031901126101515760243561ffff81168103610207576101fd6020916004356127c5565b6040519015158152f35b600080fd5b50346101515761021b36612620565b6009546040516310dc199160e31b8152600481018590526001600160a01b03949185169290602081602481875afa90811561079d57879161076e575b50156107555760405163d1a640c760e01b8082526004820184905290602081602481885afa908115610547578891610736575b5061ffff80911690861610156105ef57506020600495600754166040519687809263659621b560e01b82525afa9485156105e45786956105b3575b506102d563ffffffff8616612cf4565b936102e360405195866126c3565b63ffffffff8616808652601f19906102fa90612cf4565b01875b8181106105845750506040516357e1255760e01b81526004810184905261ffff8216602482015260448101839052602081606481885afa908115610547578891610552575b506040519063223dea6d60e21b82526004820152608081602481885afa908115610547578891610528575b5061037786612d8a565b5261038185612d8a565b506001600160481b03604061039587612d8a565b510151166001905b63ffffffff881660ff83161080610516575b1561048c576040516103da816103cc602082019488888b88612dab565b03601f1981018352826126c3565b5190206040519063223dea6d60e21b82526004820152608081602481895afa908115610481578991610452575b5061041560ff831688612d97565b5261042360ff821687612d97565b5063ffffffff60ff60016001600160481b0360406104438487168c612d97565b5101511693011691905061039d565b610474915060803d60801161047a575b61046c81836126c3565b810190612d32565b38610407565b503d610462565b6040513d8b823e3d90fd5b8689604051918291602083016020845282518091526020604085019301915b8181106104b9575050500390f35b919350916020608060019286516001600160481b0381511682526001600160481b038482015116848301526001600160481b03604082015116604083015264ffffffffff60608092015116908201520194019101918493926104ab565b506001600160481b03811615156103af565b610541915060803d60801161047a5761046c81836126c3565b3861036d565b6040513d8a823e3d90fd5b90506020813d60201161057c575b8161056d602093836126c3565b81010312610207575138610342565b3d9150610560565b6020906040516105938161266f565b8a81528a838201528a60408201528a606082015282828a010152016102fd565b6105d691955060203d6020116105dd575b6105ce81836126c3565b810190612cd8565b93386102c5565b503d6105c4565b6040513d88823e3d90fd5b604051630271c2cf60e61b8152600481018490528791849086602084602481845afa9384156106c5578594610702575b50604051918252826004830152602082602481845afa9081156106c55760249286926106d0575b506020906040519384809263484a47e760e01b82528760048301525afa9182156106c55761069093949592610694575b50604051631b18d90960e31b81529485946004860161273d565b0390fd5b6106b791925060203d6020116106be575b6106af81836126c3565b810190612704565b9085610676565b503d6106a5565b6040513d87823e3d90fd5b60209192506106f490823d84116106fb575b6106ec81836126c3565b810190612723565b9190610646565b503d6106e2565b9093506020813d60201161072e575b8161071e602093836126c3565b810103126102075751928561061f565b3d9150610711565b61074f915060203d6020116106fb576106ec81836126c3565b3861028a565b604051635013c2b960e01b815260048101839052602490fd5b610790915060203d602011610796575b61078881836126c3565b810190612a66565b38610257565b503d61077e565b6040513d89823e3d90fd5b50346101515780600319360112610151576005546040516001600160a01b039091168152602090f35b5034610151578060031936011261015157600b546040516001600160a01b039091168152602090f35b50346101515780600319360112610151576009546040516001600160a01b039091168152602090f35b5034610151576020366003190112610151576004356006811015610860578060ff60209260051c6001015460f86040519360031b161c1615158152f35b5080fd5b5034610151578060031936011261015157600a546040516001600160a01b039091168152602090f35b50346101515780600319360112610151576108a6613917565b60018060a01b0380825416906040519183630110ceef60e21b808552602092836004870152602490600c828801526044926b48617368696e6750726f787960a01b8489015260649186898481845afa9889156105e4578699610d57575b50876001600160601b0360a01b9916896002541617600255604051828152876004820152600c858201526b53636f72696e6750726f787960a01b8682015287818581855afa801561079d5789918891610d3a575b5016896003541617600355604051828152876004820152600785820152665374616b696e6760c81b8682015287818581855afa801561079d5789918891610d1d575b5016896004541617600455604051633222517f60e11b815287600482015260138582015272436f6e74656e74417373657453746f7261676560681b8682015287818581855afa801561079d5789918891610d00575b5016896005541617600555604051828152876004820152600f858201526e4964656e7469747953746f7261676560881b8682015287818581855afa801561079d5789918891610ce3575b501689600654161760065560405182815287600482015260118582015270506172616d657465727353746f7261676560781b8682015287818581855afa801561079d5789918891610cc6575b5016896007541617600755604051828152876004820152600e858201526d50726f66696c6553746f7261676560901b8682015287818581855afa801561079d5789918891610ca9575b5016896008541617600855604051828152876004820152601c858201527f5365727669636541677265656d656e7453746f7261676550726f7879000000008682015287818581855afa801561079d5789918891610c8c575b5016896009541617600955604051828152876004820152601485820152735368617264696e675461626c6553746f7261676560601b8682015287818581855afa801561079d5789918891610c6f575b501689600a541617600a55604051828152876004820152600e858201526d5374616b696e6753746f7261676560901b8682015287818581855afa95861561079d578989977f556e66696e616c697a6564537461746553746f726167650000000000000000009360179a91610c52575b50168b600b541617600b55604051978896879586528860048701528501528301525afa9182156106c5578592610c25575b50501690600c541617600c55604051f35b610c449250803d10610c4b575b610c3c81836126c3565b8101906126e5565b3880610c14565b503d610c32565b610c699150893d8b11610c4b57610c3c81836126c3565b38610be3565b610c869150893d8b11610c4b57610c3c81836126c3565b38610b74565b610ca39150893d8b11610c4b57610c3c81836126c3565b38610b25565b610cc09150893d8b11610c4b57610c3c81836126c3565b38610acd565b610cdd9150893d8b11610c4b57610c3c81836126c3565b38610a84565b610cfa9150893d8b11610c4b57610c3c81836126c3565b38610a38565b610d179150893d8b11610c4b57610c3c81836126c3565b386109ee565b610d349150893d8b11610c4b57610c3c81836126c3565b38610999565b610d519150893d8b11610c4b57610c3c81836126c3565b38610957565b610d6f919950873d8911610c4b57610c3c81836126c3565b9738610903565b50346101515760403660031901126101515760043560243580151580910361020757610da0613917565b6006821015610dce578160051c6001019160f883549160031b1660ff811b9283911b16911916179055604051f35b634e487b7160e01b600052603260045260246000fd5b50346101515760206101fd610df836612620565b91612a7e565b50346101515780600319360112610151576003546040516001600160a01b039091168152602090f35b50346101515780600319360112610151576007546040516001600160a01b039091168152602090f35b50346101515760203660031901126101515760043580151580910361020757610e77613917565b815460ff60a01b191660a09190911b60ff60a01b16178155604051f35b5034610151578060031936011261015157610eda604051610eb48161268b565b60058152640312e302e360dc1b60208201526040519182916020835260208301906125c9565b0390f35b503461015157610eed366125ee565b600c546001600160a01b0390811690610f0583612df4565b16906040519063273267a360e11b80835260208501356004840152602083602481855afa9283156105e4578693611d17575b5060206024946040519586809263fef57daf60e01b8252848a013560048301525afa9384156105e4578694611ce3575b5060405190815260208501356004820152602081602481855afa9081156105e4578691611cb1575b5015611c7c576009546002546001600160a01b039182169161101691602091829116610fbd60608a01612de6565b610ffa8a610fec610fcd82612df4565b610fda6040840184612e08565b916040519889950135908a8601612e3b565b03601f1981018552846126c3565b6040518095819482936345ed59e560e01b845260048401612e65565b03915afa90811561079d578791611c4a575b506040516310dc199160e31b815260048101829052602081602481865afa908115610547578891611c2b575b5015611c135760015460ff8160101c161580611bf6575b611aa55760065460405163010cf48d60e71b81523360048201529190602090839060249082906001600160a01b03165afa918215610481578992611a67575b5060181c60ff1615806119fd575b6118cf5760035460405163ce60dc6160e01b815260048101849052906001600160a01b0316602082602481885afa9182156118c4578a926118a3575b50602461110360608b01612de6565b6008546040516320e085cd60e11b81526001600160481b0387166004820152919391928d9184919082906001600160a01b03165afa918215611898578c92611873575b5061115460408c018c612e08565b600b54604051639d2b48ad60e01b81526001600160481b03891660048201529296929592918f91602090889060249082906001600160a01b03165afa90811561162f576020976111c29392611854575b50604051630168f40160e31b81529889978896879660048801612f79565b03915afa90811561048157889288918b936117f8575b506001600160481b0381611209856000805160206139c6833981519152948661120360808b01612e82565b8b613001565b61125b61121587612df4565b956112236040890189612e08565b61123260608b99939901612de6565b61123e60808c01612e82565b916020604051988998169c01359a60018060a01b03169987612fc3565b0390a461126a60808701612e82565b60405161129c816103cc89602083019587879160429391835261ffff60f01b9060f01b16602083015260228201520190565b51902060405190634849174160e01b82526004820152602081602481865afa9081156105475788916117d9575b506007546040516392c62af360e01b815290602090829060049082906001600160a01b03165afa9081156104815760ff9182918b916117aa575b5016911614611313575b86604051f35b6040516339075c2560e11b815260048101829052602081602481865afa90811561054757889161178b575b5061173f575b604051634089a17d60e01b815260048101829052602081602481865afa908115610547578891611720575b5060405163044c990b60e41b81526004810183905290602082602481875afa9182156104815789926116ef575b506001600160601b0380831681831601116116db57908392918995943b156116d7576001600160601b039081806040519463e54b26ff60e01b865286600487015216911601166024820152848160448183875af19081156106c55785916116c3575b5050813b1561162b57839160448392604051948593849263e25aa72560e01b845260048401528160248401525af190811561164e5783916116af575b50506005546040516349044e2360e11b815260208781013560048301526001600160a01b039092169181602481865afa908115611685578491611690575b50813b1561162b5760405163eaeb169560e01b815260208801356004820152602481018690526001600160a01b039091166044820152838160648183865af1908115611685578491611671575b5050803b1561166d5782809160446040518094819363367bcd9f60e01b835260208c013560048401528960248401525af190811561164e578391611659575b5050803b156108605760405163a021d76d60e01b815260208601356004820152828160248183865af190811561164e57839161163a575b5050803b1561086057818091602460405180948193635498a1d160e11b835260208b013560048401525af1801561162f57611617575b50507f56b6b4dd8196c56f848777686cb227d4532c0c7467653448208a1499a4eb5c549061159e84612df4565b9360206115ae6040830183612e08565b9290936115bd60608301612de6565b9661ffff6115cd60808501612e82565b60ff6115e6604051998a9960a08b5260a08b0191612f58565b9a1687870152166040860152606085015260808401520135946001600160a01b0316930390a338808080808061130d565b61162090612645565b61162b578338611571565b8380fd5b6040513d84823e3d90fd5b61164390612645565b61086057813861153b565b6040513d85823e3d90fd5b61166290612645565b610860578138611504565b8280fd5b61167a90612645565b61166d5782386114c5565b6040513d86823e3d90fd5b6116a9915060203d602011610c4b57610c3c81836126c3565b38611478565b6116b890612645565b61086057813861143a565b6116cc90612645565b61162b5783386113fe565b8580fd5b634e487b7160e01b89526011600452602489fd5b61171291925060203d602011611719575b61170a81836126c3565b810190612efa565b903861139c565b503d611700565b611739915060203d6020116117195761170a81836126c3565b3861136f565b813b156117875760405163fc75b3fb60e01b815260048101829052878160248183875af1801561054757611774575b50611344565b61178090979197612645565b953861176e565b8680fd5b6117a4915060203d6020116107965761078881836126c3565b3861133e565b6117cc915060203d6020116117d2575b6117c481836126c3565b810190612768565b38611303565b503d6117ba565b6117f2915060203d6020116117d2576117c481836126c3565b386112c9565b93509150506020823d60201161184c575b81611816602093836126c3565b8101031261184857866000805160206139c68339815191526001600160481b036118408b95612d20565b9391506111d8565b8880fd5b3d9150611809565b61186c919250883d8a116117195761170a81836126c3565b90386111a4565b6118919192508c3d8091833e61188981836126c3565b810190612e91565b9038611146565b6040513d8e823e3d90fd5b6118bd91925060203d6020116117d2576117c481836126c3565b90386110f4565b6040513d8c823e3d90fd5b6008546040516320e085cd60e11b81526001600160481b038316600482018190528a9391926001600160a01b03168484602481845afa9384156106c55785946119db575b506020602491604051928380926339fb67dd60e01b82528660048301525afa9081156106c55785916119bc575b50600b54604051639d2b48ad60e01b81526004810193909352602090839060249082906001600160a01b03165afa9182156106c5576106909394959261199b575b50604051636e2310c160e01b815294859460048601612f19565b6119b591925060203d6020116117195761170a81836126c3565b9085611981565b6119d5915060203d6020116117195761170a81836126c3565b85611940565b60249194506119f56020913d8089833e61188981836126c3565b949150611913565b50600a5460405163175a11e760e21b81526001600160481b038316600482015290602090829060249082906001600160a01b03165afa908115610481578991611a48575b50156110b8565b611a61915060203d6020116107965761078881836126c3565b38611a41565b9091506020813d602011611a9d575b81611a83602093836126c3565b8101031261184857611a9660ff91612d0c565b91906110aa565b3d9150611a76565b878684848a60206040518181019084825286604082015260408152611ac9816126a7565b5190206024604051809681936315ce5a4560e01b835260048301525afa9283156106c5578593611bbd575b506080611b019101612e82565b60075460405163daa303cf60e01b815291939190602090829060049082906001600160a01b03165afa80156105e45761ffff918791611b9e575b50168103818111611b8a57604051631544e26360e11b8152600481019390935261ffff9390931660248301526044820193909352606481019190915260848101919091524260a482015260c490fd5b634e487b7160e01b86526011600452602486fd5b611bb7915060203d6020116106fb576106ec81836126c3565b87611b3b565b9092506020813d602011611bee575b81611bd9602093836126c3565b81010312611bea5751916080611af4565b8480fd5b3d9150611bcc565b50611c0d86611c0760808a01612e82565b84612a7e565b1561106b565b60249060405190635013c2b960e01b82526004820152fd5b611c44915060203d6020116107965761078881836126c3565b38611054565b90506020813d602011611c74575b81611c65602093836126c3565b81010312611787575138611028565b3d9150611c58565b6044846020611c8a82612df4565b6040516340501bd760e01b81526001600160a01b0390911660048201529101356024820152fd5b90506020813d602011611cdb575b81611ccc602093836126c3565b810103126116d7575138610f8f565b3d9150611cbf565b9093506020813d602011611d0f575b81611cff602093836126c3565b810103126116d757519238610f67565b3d9150611cf2565b9392506020843d602011611d46575b81611d33602093836126c3565b810103126116d757925191926020610f37565b3d9150611d26565b5034610151578060031936011261015157546040516001600160a01b039091168152602090f35b503461015157806003193601126101515760ff6020915460a01c166040519015158152f35b503461015157611da9366125ee565b600954600254611e1e916001600160a01b0390811691602091610fec9116611dd360608701612de6565b611e02611ddf88612df4565b611dec60408a018a612e08565b604096919651968793898d0135908a8601612e3b565b6040518096819482936345ed59e560e01b845260048401612e65565b03915afa9182156116855784926124f8575b506040516310dc199160e31b815260048101839052602081602481855afa9081156106c55785916124d9575b50156107555760249060206001600160a01b03611e7886612df4565b166040519384809263fef57daf60e01b82528489013560048301525afa9182156106c55785926124a5575b50816000198101116124915760015460ff81161580612475575b6122c15760065460405163010cf48d60e71b8152336004820152929190602090849060249082906001600160a01b03165afa92831561079d578793612283575b5060081c60ff161580612219575b61214f57602490602060018060a01b0360035416916040519384809263ce60dc6160e01b82528960048301525afa91821561079d57879261212e575b506024611f5660608801612de6565b6008546040516320e085cd60e11b81526001600160481b0387166004820152919391928a9184919082906001600160a01b03165afa918215610481578992612112575b50611fa76040890189612e08565b600b54604051639d2b48ad60e01b81526001600160481b03891660048201529296929592918c91602090889060249082906001600160a01b03165afa90811561162f5760209761201493926118545750604051630168f40160e31b81529889978896879660048801612f79565b03915afa9081156105e45786916120ba575b50816120b2826120626001600160481b03946000805160206139c68339815191529660808b01996000198a019061205c8c612e82565b90613001565b61206b88612df4565b9661207960408a018a612e08565b909161209061208a60608d01612de6565b91612e82565b916020604051988998169c01359a60018060a01b031699600019019387612fc3565b0390a4604051f35b90506020813d60201161210a575b816120d5602093836126c3565b810103126116d7576000805160206139c6833981519152916120b26121016001600160481b0393612d20565b92505091612026565b3d91506120c8565b6121279192503d808b833e61188981836126c3565b9038611f99565b61214891925060203d6020116117d2576117c481836126c3565b9038611f47565b6008546040516320e085cd60e11b81526001600160481b0384166004820181905288928591906001600160a01b03168484602481845afa9384156106c55785946119db57506020602491604051928380926339fb67dd60e01b82528660048301525afa9081156106c55785916119bc5750600b54604051639d2b48ad60e01b81526004810193909352602090839060249082906001600160a01b03165afa9182156106c5576106909394959261199b5750604051636e2310c160e01b815294859460048601612f19565b50600a5460405163175a11e760e21b81526001600160481b038416600482015290602090829060249082906001600160a01b03165afa90811561079d578791612264575b5015611f0b565b61227d915060203d6020116107965761078881836126c3565b3861225d565b9092506020813d6020116122b9575b8161229f602093836126c3565b81010312611787576122b260ff91612d0c565b9290611efd565b3d9150612292565b5060405163484a47e760e01b815260048101849052929390602084602481845afa9384156105e4578694612450575b50602060249160405192838092630271c2cf60e61b82528960048301525afa9081156105e457869161241d575b50608061234e612355926001600160801b036123478861ffff612341878a01612e82565b16612781565b16906127b8565b9201612e82565b600754604051637ad65f2760e01b815291949190602090829060049082906001600160a01b03165afa90811561079d576001600160801b036123ae6123b79460ff83956064956106909b9c9d916123fe575b5016612781565b160416826127b8565b604051631544e26360e11b8152600481019690965261ffff90941660248601526000199091016044850152606484015260848301919091524260a4830152819060c4820190565b612417915060203d6020116117d2576117c481836126c3565b386123a7565b90506020813d602011612448575b81612438602093836126c3565b810103126116d75751608061231d565b3d915061242b565b602491945061246d602091823d84116106be576106af81836126c3565b9491506122f0565b5061248b61248560808701612e82565b856127c5565b15611ebd565b634e487b7160e01b85526011600452602485fd5b9091506020813d6020116124d1575b816124c1602093836126c3565b81010312611bea57519038611ea3565b3d91506124b4565b6124f2915060203d6020116107965761078881836126c3565b38611e5c565b9091506020813d602011612524575b81612514602093836126c3565b8101031261162b57519038611e30565b3d9150612507565b50346101515780600319360112610151576002546040516001600160a01b039091168152602090f35b90503461086057816003193601126108605780612574610eda9261268b565b6011815270436f6d6d69744d616e616765725631553160781b60208201526040519182916020835260208301906125c9565b60005b8381106125b95750506000910152565b81810151838201526020016125a9565b906020916125e2815180928185528580860191016125a6565b601f01601f1916010190565b60031990602081830112610207576004359167ffffffffffffffff8311610207578260a0920301126102075760040190565b6060906003190112610207576004359060243561ffff81168103610207579060443590565b67ffffffffffffffff811161265957604052565b634e487b7160e01b600052604160045260246000fd5b6080810190811067ffffffffffffffff82111761265957604052565b6040810190811067ffffffffffffffff82111761265957604052565b6060810190811067ffffffffffffffff82111761265957604052565b90601f8019910116810190811067ffffffffffffffff82111761265957604052565b9081602091031261020757516001600160a01b03811681036102075790565b9081602091031261020757516001600160801b03811681036102075790565b90816020910312610207575161ffff811681036102075790565b929361ffff6001600160801b0392969560609460808701988752602087015216604085015216910152565b90816020910312610207575160ff811681036102075790565b6001600160801b0391828092169182911692048211811515166127a2570290565b634e487b7160e01b600052601160045260246000fd5b919082018092116127a257565b60095460408051630271c2cf60e61b815260048082018590526001600160a01b0393841695949193909160209182866024818b5afa958615612a5b57600096612a2c575b50600754169084519763484a47e760e01b895281858a01528389602481845afa988915612a2157600099612a02575b5086156129eb57855163d1a640c760e01b8082528682018490529098858a602481865afa998a156129e05760009a6129c1575b5061ffff80911699168910156129515750508451637ad65f2760e01b815293839285925082905afa9283156129475750859260ff9260649260009261292a575b50506128c36001600160801b03948594859316612781565b160416928015612919576128e2826128db8388612781565b16846127b8565b42101594856128f4575b505050505090565b61290d955061290893929161234791612781565b6127b8565b421038808080806128ec565b505061292592506127b8565b421090565b6129409250803d106117d2576117c481836126c3565b38806128ab565b513d6000823e3d90fd5b898593928989868a95602483518096819382528a8a8301525afa9283156129b657610690959697600094612997575b505051631b18d90960e31b8152958695860161273d565b6129ae929450803d106106fb576106ec81836126c3565b918780612980565b50513d6000823e3d90fd5b6129d9919a50863d88116106fb576106ec81836126c3565b983861286b565b88513d6000823e3d90fd5b8551635013c2b960e01b8152808601839052602490fd5b612a1a919950843d86116106be576106af81836126c3565b9738612838565b86513d6000823e3d90fd5b90958382813d8311612a54575b612a4381836126c3565b810103126101515750519438612809565b503d612a39565b85513d6000823e3d90fd5b90816020910312610207575180151581036102075790565b60018060a01b03600954169260409283519263484a47e760e01b84526004928184860152602094602493868286818c5afa9182156129e057600092612cb9575b5087516310dc199160e31b8152868101859052878187818d5afa908115612cae57600091612c91575b5015612c7b57875163d1a640c760e01b8082528782018690529190888188818e5afa908115612c7057600091612c53575b5061ffff80911691161015612ba5575050908493929186519085820192835287820152868152612b47816126a7565b51902091855196879384926315ce5a4560e01b84528301525afa9182156129475750600091612b79575b509050421090565b82813d8311612b9e575b612b8d81836126c3565b810103126101515750518038612b71565b503d612b83565b8789949798929593505192630271c2cf60e61b8452878785015288848281885afa938415612c485790899291600095612c14575b5083518096819382528a8a8301525afa9283156129b65761069095969760009461299757505051631b18d90960e31b8152958695860161273d565b919282819692963d8311612c41575b612c2d81836126c3565b81010312610151575090889151938a612bd9565b503d612c23565b83513d6000823e3d90fd5b612c6a9150893d8b116106fb576106ec81836126c3565b38612b18565b8a513d6000823e3d90fd5b8751635013c2b960e01b81528087018590528590fd5b612ca89150883d8a116107965761078881836126c3565b38612ae7565b89513d6000823e3d90fd5b612cd1919250873d89116106be576106af81836126c3565b9038612abe565b90816020910312610207575163ffffffff811681036102075790565b67ffffffffffffffff81116126595760051b60200190565b51906001600160481b038216820361020757565b519064ffffffffff8216820361020757565b9081608091031261020757612d82606060405192612d4f8461266f565b612d5881612d0c565b8452612d6660208201612d0c565b6020850152612d7760408201612d0c565b604085015201612d20565b606082015290565b805115610dce5760200190565b8051821015610dce5760209160051b010190565b90815260f09190911b6001600160f01b0319166020820152602281019190915260b89190911b6001600160b81b0319166042820152604b0190565b3560ff811681036102075790565b356001600160a01b03811681036102075790565b903590601e1981360301821215610207570180359067ffffffffffffffff82116102075760200191813603831361020757565b91928493603495926001600160601b03199060601b16845260148401528483013701016000815290565b60409060ff612e7f949316815281602082015201906125c9565b90565b3561ffff811681036102075790565b60208183031261020757805167ffffffffffffffff9182821161020757019082601f830112156102075781519081116126595760405192612edc601f8301601f1916602001856126c3565b8184526020828401011161020757612e7f91602080850191016125a6565b9081602091031261020757516001600160601b03811681036102075790565b92906060926001600160481b03612f41929796971685526080602086015260808501906125c9565b946001600160601b03809216604085015216910152565b908060209392818452848401376000828201840152601f01601f1916010190565b94612fae6001600160601b039460ff612fbc9581608099969c9b9c168a5216602089015260a0604089015260a08801906125c9565b918683036060880152612f58565b9416910152565b949060809460ff612fe961ffff9364ffffffffff979b9a9660a08b5260a08b0191612f58565b99166020880152166040860152606085015216910152565b919094929460009460018060a01b036009541694604051602081019061302e816103cc8c89898c88612dab565b5190206001549860ff8a60201c16158061379f575b6136fc576040516357e1255760e01b81526004810188905261ffff8616602482015260448101879052936020856064818c5afa9485156118c4578a956136c8575b50600754604051635b3db70f60e11b8152600481018790526001600160a01b039091169591906020816024818e5afa908115611898578c91613685575b506020600491976040519283809263659621b560e01b82525afa908115611898578c91613666575b5091958b965b602460208d60405192838092635c6c1fef60e01b82528660048301525afa908115613659578e9161361b575b5064ffffffffff8091169084161080613609575b806135f7575b156131e657506103cc6131568b926040519283918d8d602085019788612dab565b519020604051635b3db70f60e11b8152600481018290529092906020816024818f5afa9081156131db578d91613198575b50600160ff919801169690926130ef565b90506020813d6020116131d3575b816131b3602093836126c3565b810103126131cf5760016131c860ff92612d0c565b9150613187565b8c80fd5b3d91506131a6565b6040513d8f823e3d90fd5b9496929193959c60ff915060281c161590816135e3575b5061352657883b1561352257604051631aa2f9f760e21b8152600481018690526001600160481b0385166024820152604481018b9052606481018b905264ffffffffff831660848201528a8160a481838e5af1801561351757613504575b506040519263223dea6d60e21b845260048401526080836024818c5afa9283156118c4578a936134e1575b5060ff161580806134cf575b1561337a5750505050843b156116d757604051638bea143b60e01b81526004810185905261ffff83166024820152604481018490526064810191909152858160848183895af180156105e457908691613366575b505061331e905b604080516020810195865260f09290921b6001600160f01b03191690820152604281019290925281606281016103cc565b519020813b1561166d578291602483926040519485938492638f04d1c160e01b845260048401525af1801561162f57613355575050565b61335f8291612645565b6101515750565b61336f90612645565b611bea5784386132e6565b9293919280806134b3575b156133ad5750505061331e92916001600160481b036133a89251168584886137f0565b6132ed565b80613498575b1561343a5750863b1561343657604051638bea143b60e01b81526004810187905261ffff851660248201526044810186905260648101919091528781608481838b5af1801561054757908891613422575b505061331e92916001600160481b036133a8925116908584886137f0565b61342b90612645565b611787578638613404565b8780fd5b61331e9493915064ffffffffff80606085015116911611600014613482576001600160481b0382613477838360206133a89701511689888c6137f0565b5116908584886137f0565b6001600160481b036133a89251168584886137f0565b5064ffffffffff60608401511664ffffffffff8216116133b3565b5064ffffffffff60608501511664ffffffffff83161115613385565b506001600160481b0383511615613292565b60ff9193506134fd9060803d811161047a5761046c81836126c3565b9290613286565b613510909a919a612645565b983861325b565b6040513d8d823e3d90fd5b8980fd5b8786918b868a6001600160481b038360018060a01b0360085416936024604051809481936320e085cd60e11b835216968760048301525afa9384156135d757916135af93918360ff966135ba575b505061ffff604051988998636806074560e01b8a5260048a01521660248801526044870152606486015260c0608486015260c48501906125c9565b911660a48301520390fd5b6135cf9294503d8091833e61188981836126c3565b918880613574565b604051903d90823e3d90fd5b63ffffffff91501660ff82161015386131fd565b5063ffffffff841660ff891610613135565b506001600160481b038216151561312f565b90506020813d602011613651575b81613636602093836126c3565b8101031261364d5761364790612d20565b3861311b565b8d80fd5b3d9150613629565b8e604051903d90823e3d90fd5b61367f915060203d6020116105dd576105ce81836126c3565b386130e9565b90506020813d6020116136c0575b816136a0602093836126c3565b810103126136bc5760206136b5600492612d0c565b91506130c1565b8b80fd5b3d9150613693565b9094506020813d6020116136f4575b816136e4602093836126c3565b8101031261352257519338613084565b3d91506136d7565b84876001600160481b038b93898560018060a01b0360085416926024604051809681936320e085cd60e11b835216958660048301525afa9283156105e4578661069095969794613782575b505061ffff6040519687966302041f5d60e51b885260048801521660248601526044850152606484015260a0608484015260a48301906125c9565b6137979294503d8091833e61188981836126c3565b918680613747565b5060405163c45d174960e01b8152600481018390526020816024818c5afa9081156118c4578a916137d1575b50613043565b6137ea915060203d6020116107965761078881836126c3565b386137cb565b600954604080516000979196956001600160a01b03909316949091602083018361381d8987868a86612dab565b0393613831601f19958681018352826126c3565b519020863b15613522578851638a0f01b560e01b815260048101919091526001600160481b03821660248201528981604481838b5af1801561390d576138f0575b509061388c61389893928951958693602085019889612dab565b039081018352826126c3565b519020813b15611bea578351631c30973d60e31b815260048101919091526001600160481b0392909216602483015290919083908390604490829084905af19081156138e75750613355575050565b513d84823e3d90fd5b6138989392919961390361388c92612645565b9991929350613872565b89513d8c823e3d90fd5b600054604051638da5cb5b60e01b81526001600160a01b03916020908290600490829086165afa9081156139b95760009161399b575b5016330361395757565b606460405162461bcd60e51b815260206004820152602060248201527f466e2063616e206f6e6c79206265207573656420627920687562206f776e65726044820152fd5b6139b3915060203d8111610c4b57610c3c81836126c3565b3861394d565b6040513d6000823e3d90fdfe188fe0d5f9d9c076fe45a5974b2728c033c7e0a91cef00c6db5665172a3af745a2646970667358221220678fc29ed9d39ad6a1fa4a35bd15d92372e5500873414fe8df7c4ed381661aa864736f6c63430008100033",
  "devdoc": {
    "kind": "dev",
    "methods": {},
    "version": 1
  },
  "userdoc": {
    "kind": "user",
    "methods": {},
    "version": 1
  },
  "storageLayout": {
    "storage": [
      {
        "astId": 15408,
        "contract": "contracts/CommitManagerV1U1.sol:CommitManagerV1U1",
        "label": "hub",
        "offset": 0,
        "slot": "0",
        "type": "t_contract(Hub)9211"
      },
      {
        "astId": 15379,
        "contract": "contracts/CommitManagerV1U1.sol:CommitManagerV1U1",
        "label": "status",
        "offset": 20,
        "slot": "0",
        "type": "t_bool"
      },
      {
        "astId": 7091,
        "contract": "contracts/CommitManagerV1U1.sol:CommitManagerV1U1",
        "label": "reqs",
        "offset": 0,
        "slot": "1",
        "type": "t_array(t_bool)6_storage"
      },
      {
        "astId": 7094,
        "contract": "contracts/CommitManagerV1U1.sol:CommitManagerV1U1",
        "label": "hashingProxy",
        "offset": 0,
        "slot": "2",
        "type": "t_contract(HashingProxy)8950"
      },
      {
        "astId": 7097,
        "contract": "contracts/CommitManagerV1U1.sol:CommitManagerV1U1",
        "label": "scoringProxy",
        "offset": 0,
        "slot": "3",
        "type": "t_contract(ScoringProxy)12659"
      },
      {
        "astId": 7100,
        "contract": "contracts/CommitManagerV1U1.sol:CommitManagerV1U1",
        "label": "stakingContract",
        "offset": 0,
        "slot": "4",
        "type": "t_contract(Staking)15211"
      },
      {
        "astId": 7103,
        "contract": "contracts/CommitManagerV1U1.sol:CommitManagerV1U1",
        "label": "contentAssetStorage",
        "offset": 0,
        "slot": "5",
        "type": "t_contract(ContentAssetStorage)23786"
      },
      {
        "astId": 7106,
        "contract": "contracts/CommitManagerV1U1.sol:CommitManagerV1U1",
        "label": "identityStorage",
        "offset": 0,
        "slot": "6",
        "type": "t_contract(IdentityStorage)18485"
      },
      {
        "astId": 7109,
        "contract": "contracts/CommitManagerV1U1.sol:CommitManagerV1U1",
        "label": "parametersStorage",
        "offset": 0,
        "slot": "7",
        "type": "t_contract(ParametersStorage)19108"
      },
      {
        "astId": 7112,
        "contract": "contracts/CommitManagerV1U1.sol:CommitManagerV1U1",
        "label": "profileStorage",
        "offset": 0,
        "slot": "8",
        "type": "t_contract(ProfileStorage)19582"
      },
      {
        "astId": 7115,
        "contract": "contracts/CommitManagerV1U1.sol:CommitManagerV1U1",
        "label": "serviceAgreementStorageProxy",
        "offset": 0,
        "slot": "9",
        "type": "t_contract(ServiceAgreementStorageProxy)21098"
      },
      {
        "astId": 7118,
        "contract": "contracts/CommitManagerV1U1.sol:CommitManagerV1U1",
        "label": "shardingTableStorage",
        "offset": 0,
        "slot": "10",
        "type": "t_contract(ShardingTableStorage)22972"
      },
      {
        "astId": 7121,
        "contract": "contracts/CommitManagerV1U1.sol:CommitManagerV1U1",
        "label": "stakingStorage",
        "offset": 0,
        "slot": "11",
        "type": "t_contract(StakingStorage)23184"
      },
      {
        "astId": 7124,
        "contract": "contracts/CommitManagerV1U1.sol:CommitManagerV1U1",
        "label": "unfinalizedStateStorage",
        "offset": 0,
        "slot": "12",
        "type": "t_contract(UnfinalizedStateStorage)23339"
      }
    ],
    "types": {
      "t_array(t_bool)6_storage": {
        "base": "t_bool",
        "encoding": "inplace",
        "label": "bool[6]",
        "numberOfBytes": "32"
      },
      "t_bool": {
        "encoding": "inplace",
        "label": "bool",
        "numberOfBytes": "1"
      },
      "t_contract(ContentAssetStorage)23786": {
        "encoding": "inplace",
        "label": "contract ContentAssetStorage",
        "numberOfBytes": "20"
      },
      "t_contract(HashingProxy)8950": {
        "encoding": "inplace",
        "label": "contract HashingProxy",
        "numberOfBytes": "20"
      },
      "t_contract(Hub)9211": {
        "encoding": "inplace",
        "label": "contract Hub",
        "numberOfBytes": "20"
      },
      "t_contract(IdentityStorage)18485": {
        "encoding": "inplace",
        "label": "contract IdentityStorage",
        "numberOfBytes": "20"
      },
      "t_contract(ParametersStorage)19108": {
        "encoding": "inplace",
        "label": "contract ParametersStorage",
        "numberOfBytes": "20"
      },
      "t_contract(ProfileStorage)19582": {
        "encoding": "inplace",
        "label": "contract ProfileStorage",
        "numberOfBytes": "20"
      },
      "t_contract(ScoringProxy)12659": {
        "encoding": "inplace",
        "label": "contract ScoringProxy",
        "numberOfBytes": "20"
      },
      "t_contract(ServiceAgreementStorageProxy)21098": {
        "encoding": "inplace",
        "label": "contract ServiceAgreementStorageProxy",
        "numberOfBytes": "20"
      },
      "t_contract(ShardingTableStorage)22972": {
        "encoding": "inplace",
        "label": "contract ShardingTableStorage",
        "numberOfBytes": "20"
      },
      "t_contract(Staking)15211": {
        "encoding": "inplace",
        "label": "contract Staking",
        "numberOfBytes": "20"
      },
      "t_contract(StakingStorage)23184": {
        "encoding": "inplace",
        "label": "contract StakingStorage",
        "numberOfBytes": "20"
      },
      "t_contract(UnfinalizedStateStorage)23339": {
        "encoding": "inplace",
        "label": "contract UnfinalizedStateStorage",
        "numberOfBytes": "20"
      }
    }
  }
}