{
  "address": "0x52a120370b113b270155E0E168B4A5269f03ABd7",
  "abi": [
    {
      "inputs": [
        {
          "internalType": "address",
          "name": "hubAddress",
          "type": "address"
        }
      ],
      "stateMutability": "nonpayable",
      "type": "constructor"
    },
    {
      "inputs": [
        {
          "internalType": "uint256",
          "name": "tokenId",
          "type": "uint256"
        }
      ],
      "name": "AssetExpired",
      "type": "error"
    },
    {
      "inputs": [
        {
          "internalType": "bytes32",
          "name": "agreementId",
          "type": "bytes32"
        }
      ],
      "name": "CommitPhaseOngoing",
      "type": "error"
    },
    {
      "inputs": [
        {
          "internalType": "bytes32",
          "name": "agreementId",
          "type": "bytes32"
        }
      ],
      "name": "CommitPhaseSucceeded",
      "type": "error"
    },
    {
      "inputs": [
        {
          "internalType": "bytes32",
          "name": "agreementId",
          "type": "bytes32"
        }
      ],
      "name": "FirstEpochHasAlreadyEnded",
      "type": "error"
    },
    {
      "inputs": [
        {
          "internalType": "address",
          "name": "assetStorage",
          "type": "address"
        },
        {
          "internalType": "uint256",
          "name": "tokenId",
          "type": "uint256"
        }
      ],
      "name": "NoPendingUpdate",
      "type": "error"
    },
    {
      "inputs": [
        {
          "internalType": "address",
          "name": "assetStorage",
          "type": "address"
        },
        {
          "internalType": "uint256",
          "name": "tokenId",
          "type": "uint256"
        },
        {
          "internalType": "uint256",
          "name": "latestStateIndex",
          "type": "uint256"
        }
      ],
      "name": "PendingUpdateFinalization",
      "type": "error"
    },
    {
      "inputs": [
        {
          "internalType": "address",
          "name": "assetStorage",
          "type": "address"
        },
        {
          "internalType": "uint256",
          "name": "tokenId",
          "type": "uint256"
        },
        {
          "internalType": "bytes32",
          "name": "latestState",
          "type": "bytes32"
        }
      ],
      "name": "UpdateIsNotFinalized",
      "type": "error"
    },
    {
      "anonymous": false,
      "inputs": [
        {
          "indexed": true,
          "internalType": "address",
          "name": "assetContract",
          "type": "address"
        },
        {
          "indexed": true,
          "internalType": "uint256",
          "name": "tokenId",
          "type": "uint256"
        },
        {
          "indexed": false,
          "internalType": "uint96",
          "name": "returnedTokenAmount",
          "type": "uint96"
        }
      ],
      "name": "AssetBurnt",
      "type": "event"
    },
    {
      "anonymous": false,
      "inputs": [
        {
          "indexed": true,
          "internalType": "address",
          "name": "assetContract",
          "type": "address"
        },
        {
          "indexed": true,
          "internalType": "uint256",
          "name": "tokenId",
          "type": "uint256"
        },
        {
          "indexed": true,
          "internalType": "bytes32",
          "name": "state",
          "type": "bytes32"
        }
      ],
      "name": "AssetMinted",
      "type": "event"
    },
    {
      "anonymous": false,
      "inputs": [
        {
          "indexed": true,
          "internalType": "address",
          "name": "assetContract",
          "type": "address"
        },
        {
          "indexed": true,
          "internalType": "uint256",
          "name": "tokenId",
          "type": "uint256"
        },
        {
          "indexed": false,
          "internalType": "uint96",
          "name": "tokenAmount",
          "type": "uint96"
        }
      ],
      "name": "AssetPaymentIncreased",
      "type": "event"
    },
    {
      "anonymous": false,
      "inputs": [
        {
          "indexed": true,
          "internalType": "address",
          "name": "assetContract",
          "type": "address"
        },
        {
          "indexed": true,
          "internalType": "uint256",
          "name": "tokenId",
          "type": "uint256"
        },
        {
          "indexed": true,
          "internalType": "uint256",
          "name": "stateIndex",
          "type": "uint256"
        },
        {
          "indexed": false,
          "internalType": "uint96",
          "name": "returnedTokenAmount",
          "type": "uint96"
        }
      ],
      "name": "AssetStateUpdateCanceled",
      "type": "event"
    },
    {
      "anonymous": false,
      "inputs": [
        {
          "indexed": true,
          "internalType": "address",
          "name": "assetContract",
          "type": "address"
        },
        {
          "indexed": true,
          "internalType": "uint256",
          "name": "tokenId",
          "type": "uint256"
        },
        {
          "indexed": true,
          "internalType": "uint256",
          "name": "stateIndex",
          "type": "uint256"
        },
        {
          "indexed": false,
          "internalType": "uint96",
          "name": "updateTokenAmount",
          "type": "uint96"
        }
      ],
      "name": "AssetStateUpdated",
      "type": "event"
    },
    {
      "anonymous": false,
      "inputs": [
        {
          "indexed": true,
          "internalType": "address",
          "name": "assetContract",
          "type": "address"
        },
        {
          "indexed": true,
          "internalType": "uint256",
          "name": "tokenId",
          "type": "uint256"
        },
        {
          "indexed": false,
          "internalType": "uint16",
          "name": "epochsNumber",
          "type": "uint16"
        },
        {
          "indexed": false,
          "internalType": "uint96",
          "name": "tokenAmount",
          "type": "uint96"
        }
      ],
      "name": "AssetStoringPeriodExtended",
      "type": "event"
    },
    {
      "anonymous": false,
      "inputs": [
        {
          "indexed": true,
          "internalType": "address",
          "name": "assetContract",
          "type": "address"
        },
        {
          "indexed": true,
          "internalType": "uint256",
          "name": "tokenId",
          "type": "uint256"
        },
        {
          "indexed": false,
          "internalType": "uint96",
          "name": "tokenAmount",
          "type": "uint96"
        }
      ],
      "name": "AssetUpdatePaymentIncreased",
      "type": "event"
    },
    {
      "inputs": [],
      "name": "assertionContract",
      "outputs": [
        {
          "internalType": "contract Assertion",
          "name": "",
          "type": "address"
        }
      ],
      "stateMutability": "view",
      "type": "function"
    },
    {
      "inputs": [
        {
          "internalType": "uint256",
          "name": "tokenId",
          "type": "uint256"
        }
      ],
      "name": "burnAsset",
      "outputs": [],
      "stateMutability": "nonpayable",
      "type": "function"
    },
    {
      "inputs": [
        {
          "internalType": "uint256",
          "name": "tokenId",
          "type": "uint256"
        }
      ],
      "name": "cancelAssetStateUpdate",
      "outputs": [],
      "stateMutability": "nonpayable",
      "type": "function"
    },
    {
      "inputs": [],
      "name": "contentAssetStorage",
      "outputs": [
        {
          "internalType": "contract ContentAssetStorage",
          "name": "",
          "type": "address"
        }
      ],
      "stateMutability": "view",
      "type": "function"
    },
    {
      "inputs": [
        {
          "components": [
            {
              "internalType": "bytes32",
              "name": "assertionId",
              "type": "bytes32"
            },
            {
              "internalType": "uint128",
              "name": "size",
              "type": "uint128"
            },
            {
              "internalType": "uint32",
              "name": "triplesNumber",
              "type": "uint32"
            },
            {
              "internalType": "uint96",
              "name": "chunksNumber",
              "type": "uint96"
            },
            {
              "internalType": "uint16",
              "name": "epochsNumber",
              "type": "uint16"
            },
            {
              "internalType": "uint96",
              "name": "tokenAmount",
              "type": "uint96"
            },
            {
              "internalType": "uint8",
              "name": "scoreFunctionId",
              "type": "uint8"
            },
            {
              "internalType": "bool",
              "name": "immutable_",
              "type": "bool"
            }
          ],
          "internalType": "struct ContentAssetStructs.AssetInputArgs",
          "name": "args",
          "type": "tuple"
        }
      ],
      "name": "createAsset",
      "outputs": [],
      "stateMutability": "nonpayable",
      "type": "function"
    },
    {
      "inputs": [
        {
          "internalType": "bytes32",
          "name": "assertionId",
          "type": "bytes32"
        },
        {
          "internalType": "uint128",
          "name": "size",
          "type": "uint128"
        },
        {
          "internalType": "uint32",
          "name": "triplesNumber",
          "type": "uint32"
        },
        {
          "internalType": "uint96",
          "name": "chunksNumber",
          "type": "uint96"
        },
        {
          "internalType": "uint16",
          "name": "epochsNumber",
          "type": "uint16"
        },
        {
          "internalType": "uint96",
          "name": "tokenAmount",
          "type": "uint96"
        },
        {
          "internalType": "uint8",
          "name": "scoreFunctionId",
          "type": "uint8"
        },
        {
          "internalType": "bool",
          "name": "immutable_",
          "type": "bool"
        }
      ],
      "name": "createAssetWithVariables",
      "outputs": [],
      "stateMutability": "nonpayable",
      "type": "function"
    },
    {
      "inputs": [
        {
          "internalType": "uint256",
          "name": "tokenId",
          "type": "uint256"
        },
        {
          "internalType": "uint16",
          "name": "epochsNumber",
          "type": "uint16"
        },
        {
          "internalType": "uint96",
          "name": "tokenAmount",
          "type": "uint96"
        }
      ],
      "name": "extendAssetStoringPeriod",
      "outputs": [],
      "stateMutability": "nonpayable",
      "type": "function"
    },
    {
      "inputs": [],
      "name": "hashingProxy",
      "outputs": [
        {
          "internalType": "contract HashingProxy",
          "name": "",
          "type": "address"
        }
      ],
      "stateMutability": "view",
      "type": "function"
    },
    {
      "inputs": [],
      "name": "hub",
      "outputs": [
        {
          "internalType": "contract Hub",
          "name": "",
          "type": "address"
        }
      ],
      "stateMutability": "view",
      "type": "function"
    },
    {
      "inputs": [
        {
          "internalType": "uint256",
          "name": "tokenId",
          "type": "uint256"
        },
        {
          "internalType": "uint96",
          "name": "tokenAmount",
          "type": "uint96"
        }
      ],
      "name": "increaseAssetTokenAmount",
      "outputs": [],
      "stateMutability": "nonpayable",
      "type": "function"
    },
    {
      "inputs": [
        {
          "internalType": "uint256",
          "name": "tokenId",
          "type": "uint256"
        },
        {
          "internalType": "uint96",
          "name": "tokenAmount",
          "type": "uint96"
        }
      ],
      "name": "increaseAssetUpdateTokenAmount",
      "outputs": [],
      "stateMutability": "nonpayable",
      "type": "function"
    },
    {
      "inputs": [],
      "name": "initialize",
      "outputs": [],
      "stateMutability": "nonpayable",
      "type": "function"
    },
    {
      "inputs": [],
      "name": "name",
      "outputs": [
        {
          "internalType": "string",
          "name": "",
          "type": "string"
        }
      ],
      "stateMutability": "pure",
      "type": "function"
    },
    {
      "inputs": [],
      "name": "parametersStorage",
      "outputs": [
        {
          "internalType": "contract ParametersStorage",
          "name": "",
          "type": "address"
        }
      ],
      "stateMutability": "view",
      "type": "function"
    },
    {
      "inputs": [],
      "name": "serviceAgreementStorageProxy",
      "outputs": [
        {
          "internalType": "contract ServiceAgreementStorageProxy",
          "name": "",
          "type": "address"
        }
      ],
      "stateMutability": "view",
      "type": "function"
    },
    {
      "inputs": [],
      "name": "serviceAgreementV1",
      "outputs": [
        {
          "internalType": "contract ServiceAgreementV1",
          "name": "",
          "type": "address"
        }
      ],
      "stateMutability": "view",
      "type": "function"
    },
    {
      "inputs": [],
      "name": "unfinalizedStateStorage",
      "outputs": [
        {
          "internalType": "contract UnfinalizedStateStorage",
          "name": "",
          "type": "address"
        }
      ],
      "stateMutability": "view",
      "type": "function"
    },
    {
      "inputs": [
        {
          "internalType": "uint256",
          "name": "tokenId",
          "type": "uint256"
        },
        {
          "internalType": "bytes32",
          "name": "assertionId",
          "type": "bytes32"
        },
        {
          "internalType": "uint128",
          "name": "size",
          "type": "uint128"
        },
        {
          "internalType": "uint32",
          "name": "triplesNumber",
          "type": "uint32"
        },
        {
          "internalType": "uint96",
          "name": "chunksNumber",
          "type": "uint96"
        },
        {
          "internalType": "uint96",
          "name": "updateTokenAmount",
          "type": "uint96"
        }
      ],
      "name": "updateAssetState",
      "outputs": [],
      "stateMutability": "nonpayable",
      "type": "function"
    },
    {
      "inputs": [],
      "name": "version",
      "outputs": [
        {
          "internalType": "string",
          "name": "",
          "type": "string"
        }
      ],
      "stateMutability": "pure",
      "type": "function"
    }
  ],
  "transactionHash": "0x1e55d95dcab1a392c73aa4d043191310bffcd092ed43d47d5c68a5e141588b01",
  "args": [
    "0x224aEC6891d26e994D4Dbf207aE099ca029b3E67"
  ],
  "numDeployments": 1,
  "solcInputHash": "f39b719713632a929f2674749808e322",
  "bytecode": "0x608034620000c657601f62002e8338819003918201601f19168301916001600160401b03831184841017620000cb57808492602094604052833981010312620000c657516001600160a01b03811690819003620000c65780156200008157600080546001600160a01b031916919091179055604051612da19081620000e28239f35b60405162461bcd60e51b815260206004820152601960248201527f48756220416464726573732063616e6e6f7420626520307830000000000000006044820152606490fd5b600080fd5b634e487b7160e01b600052604160045260246000fdfe608080604052600436101561001357600080fd5b600090813560e01c90816306fdde03146125ca5750806311c94ee8146125a15780631e98f3ae146122d757806322729ad01461224c578063365a86fc146122255780634b4aeac7146121fc5780634f0350e314611c6c57806354fd4d5014611c22578063631fe36e146118f2578063639a86a3146118c95780636f2f5780146115825780637b5561fd146114f65780638129fc1c1461111c5780638f08d44d146109bb57806390b8145a146109925780639f00b0681461016f578063bd1346ae14610146578063c3573ec71461011d5763c6a2eeca146100f257600080fd5b3461011a578060031936011261011a576006546040516001600160a01b039091168152602090f35b80fd5b503461011a578060031936011261011a576007546040516001600160a01b039091168152602090f35b503461011a578060031936011261011a576003546040516001600160a01b039091168152602090f35b503461011a5760c036600319011261011a576001600160801b0360443516604435036106525763ffffffff6064351660643503610652576001600160601b036084351660843503610652576101c2612674565b906101ce600435612cb4565b6003546040516318d069bd60e01b815260048035908201526001600160a01b0390911690602081602481855afa90811561065f578391610973575b5015610939576007546005546040516375e5231b60e01b81526004803590820152602481018590526001600160a01b039283169590939092909116602084604481855afa9384156108f9578594610904575b5060206102c46102936102d06102eb976040519283918887840190916034926001600160601b03199060601b16825260148201520190565b036102a6601f19918281018552846126ec565b60018060a01b0360025416926040519485916004358a89850161272d565b039081018452836126ec565b60405180809881946345ed59e560e01b835260048301612760565b03915afa9384156108f95785946108c5575b506040805161030b816126b4565b3690376040516337f80ad760e11b81526004810185905260e081602481855afa9081156108ba5786918788928992610883575b5061035f6001600160801b036103588561ffff851661279d565b16856127d4565b421161086a5760405163273267a360e11b815260048035908201529960208b602481845afa9a8b1561085f578a9b61082b575b508a6107f9576001548a969594939291906001600160a01b0316803b156107f557876040518092635c1c1c7960e11b82528183816103de608435606435604435602435600486016128c8565b03925af19081156107d65788916107e1575b5050803b1561076c57604051633972192d60e01b815260043560048201526024356024820152878160448183865af19081156107d65788916107c2575b5050803b1561076c578680916044604051809481936303a59c5760e11b835260043560048401523360248401525af190811561079f5787916107aa575b50506040516307936c9360e11b8152600481018a9052602081602481895afa90811561079f578791610770575b50156106e5575b505050506001600160601b03841661066a575b60405163fef57daf60e01b8152600480359082015294602086602481875afa95861561065f578396610623575b5060405160208101918252866040820152604081526104fc816126d0565b5190206004805460405163daa303cf60e01b81529160209183919082906001600160a01b03165afa9081156106185784916105d7575b5061ffff6105419116426127d4565b823b156105c85760448492836040519586948593636988c39d60e11b8552600485015260248401525af180156105cc576105b4575b50506001600160601b03604051921682527f69c8288fbbca6d30ee12fcf4280fec7b680b04b11a312c85292cb47a7610aa43602060043593a4604051f35b6105bd9061268a565b6105c8578385610576565b8380fd5b6040513d84823e3d90fd5b90506020813d602011610610575b816105f2602093836126ec565b810103126105c85761ffff610609610541926127f5565b9150610532565b3d91506105e5565b6040513d86823e3d90fd5b925094506020823d602011610657575b81610640602093836126ec565b810103126106525785915194876104de565b600080fd5b3d9150610633565b6040513d85823e3d90fd5b6006546001600160a01b0316803b156106e1576040516357856ce160e11b8152336004820152602481018790526001600160601b03861660448201529083908290606490829084905af190811561065f5783916106c9575b50506104b1565b6106d29061268a565b6106dd5781876106c2565b5080fd5b8280fd5b60ff6020818451169301511692853b1561076c5761ffff6001600160801b039260405196630925ffd960e01b88528c6004890152602488015216604486015216606484015284608484015260a483015260c4820152828160e48183865af190811561065f578391610758575b808061049e565b6107619061268a565b6106dd578187610751565b8680fd5b610792915060203d602011610798575b61078a81836126ec565b8101906128fe565b8b610497565b503d610780565b6040513d89823e3d90fd5b6107b39061268a565b6107be57858b61046a565b8580fd5b6107cb9061268a565b61076c57868c61042d565b6040513d8a823e3d90fd5b6107ea9061268a565b61076c57868c6103f0565b8780fd5b60405163ba69cfd960e01b81526001600160a01b038816600480830191909152356024820152604481018c9052606490fd5b909a506020813d602011610857575b81610847602093836126ec565b8101031261065257519938610392565b3d915061083a565b6040513d8c823e3d90fd5b602460405163f72d5efd60e01b81526004356004820152fd5b925050506108a9915060e03d60e0116108b3575b6108a181836126ec565b810190612804565b919290503861033e565b503d610897565b6040513d88823e3d90fd5b9093506020813d6020116108f1575b816108e1602093836126ec565b81010312610652575192386102fd565b3d91506108d4565b6040513d87823e3d90fd5b93506020843d602011610931575b8161091f602093836126ec565b8101031261065257925192602061025b565b3d9150610912565b60405162461bcd60e51b8152602060048201526012602482015271417373657420697320696d6d757461626c6560701b6044820152606490fd5b61098c915060203d6020116107985761078a81836126ec565b38610209565b503461011a578060031936011261011a576005546040516001600160a01b039091168152602090f35b503461011a576020806003193601126106dd57600435916109db83612cb4565b60018060a01b03928360035416604051936375e5231b60e01b855282600486015260249584878701528186604481865afa9586156108f95785966110ed575b50816102c4610a51610a7a610a95996040519283918987840190916034926001600160601b03199060601b16825260148201520190565b03610a64601f19918281018552846126ec565b8560025416926040519485918b8b89850161272d565b60405180809a81946345ed59e560e01b835260048301612760565b03915afa9586156108f95785966110be575b50868282600754166040519283809263273267a360e11b82528960048301525afa9081156108ba578691611091575b5080611061575080600554168160045416604051630271c2cf60e61b815288600482015284818b81865afa9081156107d6578891611034575b5060405163484a47e760e01b808252600482018b905286828d81885afa91821561085f578a92610ffd575b50604051637ad65f2760e01b81528781600481885afa908115610f12578d9594928d94928a928e91610fb2575b5060ff6064610b9092610b876001600160801b039788948593169061279d565b160416856127d4565b966040519586928352600483015281895afa8015610f12578b90610f74575b610bbb935016906127d4565b60405163fef57daf60e01b815260048101899052909286828d818b5afa91821561085f578a92610f45575b506000198201918211610f325760405191878301908c82528b60408501526042840152604283528c608084019184831067ffffffffffffffff841117610f1d57604083905284519020634849174160e01b835260848501528890829081895afa928315610f12579088918c94610ed6575b505060405163659621b560e01b815293849060049082905afa92831561085f578a93610e96575b50421080610e84575b15610ca45760405163136e51c560e21b8152600481018b90528b90fd5b8242109182610e6e575b505015610ccd5760405163279363a160e21b8152600481018990528990fd5b9187918994934211610e565787929184869260405197888092634089a17d60e01b82528760048301525afa958615610618578496610e1f575b50863b156105c857604051637eb79b5360e01b81526004810189905284818481838c5af19081156108f9578591610e0b575b5050863b156105c857604051630852cd8d60e31b81526004810189905284818481838c5af19081156108f9578591610df7575b50506006541691823b156105c857604484928360405195869485936388adf4cd60e01b85523360048601528401525af180156105cc57610ddf575b50507fd3a95f1c237197f6a34313d9091d204fe02cb5e29a25bb37fe5396bc0ac0c2d0916001600160601b0360405191168152a3604051f35b610de89061268a565b610df3578486610da6565b8480fd5b610e009061268a565b6105c857838a610d6b565b610e149061268a565b6105c857838a610d38565b9095508481813d8311610e4f575b610e3781836126ec565b810103126105c857610e48906127e1565b9489610d06565b503d610e2d565b60405163220e7b1960e11b8152600481018490528590fd5b60ff91925063ffffffff16911610153880610cae565b5063ffffffff821660ff821610610c87565b9092508681813d8311610ecf575b610eae81836126ec565b81010312610ecb575163ffffffff81168103610ecb579138610c7e565b8980fd5b503d610ea4565b90929350813d8311610f0b575b610eed81856126ec565b81010312610ecb579086610f036004949361278f565b929338610c57565b503d610ee3565b6040513d8d823e3d90fd5b50634e487b7160e01b60009081526041600452fd5b634e487b7160e01b8a5260116004528b8afd5b9091508681813d8311610f6d575b610f5d81836126ec565b8101031261065257519038610be6565b503d610f53565b5090918781813d8311610fab575b610f8c81836126ec565b81010312610fa75790610fa2610bbb939261277b565b610baf565b8a80fd5b503d610f82565b939550509294955081813d8311610ff6575b610fce81836126ec565b81010312610fa75791878d959492610b9060ff8f96610fee60649161278f565b925050610b67565b503d610fc4565b9091508681813d831161102d575b61101581836126ec565b81010312610ecb576110269061277b565b9038610b3a565b503d61100b565b90508481813d831161105a575b61104b81836126ec565b81010312610652575138610b0f565b503d611041565b60405163ba69cfd960e01b81526001600160a01b0385166004820152602481018690526044810191909152606490fd5b90508281813d83116110b7575b6110a881836126ec565b81010312610652575138610ad6565b503d61109e565b9095508181813d83116110e6575b6110d681836126ec565b8101031261065257519438610aa7565b503d6110cc565b95508186813d8311611115575b61110481836126ec565b810103126106525794519481610a1a565b503d6110fa565b503461011a578060031936011261011a578054604051638da5cb5b60e01b81526001600160a01b0391821691906020908181600481875afa80156108f957839186916114d9575b50163303611496578360405193630110ceef60e21b908186528360048701526024906009828801526044926820b9b9b2b93a34b7b760b91b8489015260649186898481845afa9889156108ba578699611477575b50876001600160601b0360a01b9916896001541617600155604051828152876004820152600c858201526b48617368696e6750726f787960a01b8682015287818581855afa801561079f578991889161145a575b5016896002541617600255604051633222517f60e11b815287600482015260138582015272436f6e74656e74417373657453746f7261676560681b8682015287818581855afa801561079f578991889161143d575b501689600354161760035560405182815287600482015260118582015270506172616d657465727353746f7261676560781b8682015287818581855afa801561079f5789918891611420575b5016896004541617600455604051828152876004820152601c858201527f5365727669636541677265656d656e7453746f7261676550726f7879000000008682015287818581855afa801561079f5789918891611403575b5016896005541617600555604051828152876004820152601285820152715365727669636541677265656d656e74563160701b8682015287818581855afa95861561079f578989977f556e66696e616c697a6564537461746553746f726167650000000000000000009360179a916113e6575b50168b6006541617600655604051978896879586528860048701528501528301525afa9182156108f95785926113b9575b505016906007541617600755604051f35b6113d89250803d106113df575b6113d081836126ec565b81019061270e565b38806113a8565b503d6113c6565b6113fd9150893d8b116113df576113d081836126ec565b38611377565b61141a9150893d8b116113df576113d081836126ec565b38611304565b6114379150893d8b116113df576113d081836126ec565b386112ac565b6114549150893d8b116113df576113d081836126ec565b38611260565b6114719150893d8b116113df576113d081836126ec565b3861120b565b61148f919950873d89116113df576113d081836126ec565b97386111b7565b6064906040519062461bcd60e51b825280600483015260248201527f466e2063616e206f6e6c79206265207573656420627920687562206f776e65726044820152fd5b6114f09150833d85116113df576113d081836126ec565b38611163565b503461011a5761010036600319011261011a576024356001600160801b03811681036106525760443563ffffffff81168103610652576064356001600160601b03811681036106525760843561ffff8116810361065257611555612674565b9060c4359260ff8416840361076c5760e4359485151586036107f55761157d96600435612916565b604051f35b503461011a57606036600319011261011a576004356024803561ffff9081811680910361065257604435916001600160601b038316809303610652576115c785612cb4565b60018060a01b03806003541694816006541691806007541693604051809563273267a360e11b82528a6004830152818560209889935afa908115610f12578b9161189c575b508061186c57506040516375e5231b60e01b81528960048201528a8482015285816044818c5afa8015610f12578a87918d9061183b575b6116bc93506116a18c61167660405193849287840190916034926001600160601b03199060601b16825260148201520190565b03611689601f19918281018552846126ec565b8d6102c489600254169460405196879389850161272d565b60405180809581946345ed59e560e01b835260048301612760565b03915afa928315610f125784918c94611807575b5060e09060055416604051928380926337f80ad760e11b82528760048301525afa8015610f1257611721928c809381936117d0575b509161171a916001600160801b03931661279d565b16906127d4565b42116117b95790829189933b156105c857608484928360405195869485936399a5c86b60e01b85523360048601528401528960448401528a60648401525af180156105cc576117a1575b5050907ff95dba7d7d00ab9b8357396c7d1f2a9bab2ba9a9dab4c76b19417c1e56129a66926040928351928352820152a3604051f35b6117ad9093929361268a565b6107be5790853861176b565b5060405163f72d5efd60e01b815260048101889052fd5b61171a9294506001600160801b0393506117f9915060e03d60e0116108b3576108a181836126ec565b505091949091935091611705565b87809295508193503d8311611834575b61182181836126ec565b81010312610652575191839060e06116d0565b503d611817565b505081813d8311611865575b61185181836126ec565b8101031261065257858a6116bc9251611643565b503d611847565b60405163ba69cfd960e01b81526001600160a01b038a166004820152602481018b90526044810191909152606490fd5b90508581813d83116118c2575b6118b381836126ec565b8101031261065257513861160c565b503d6118a9565b503461011a578060031936011261011a576004546040516001600160a01b039091168152602090f35b503461011a57604036600319011261011a5760043561190f61265e565b61191882612cb4565b60018060a01b0390816003541691806006541690806007541691604051809363273267a360e11b825287600483015281602460209687935afa9081156107d6578891611bf5575b5080611bc55750604051916375e5231b60e01b83528660048401528760248401528383604481895afa9283156107d6578785918a95611b92575b50604051606089901b6001600160601b0319168382019081526014810196909652611a0e956119f39082906034015b036119db601f19918281018552846126ec565b8a6102c487600254169460405196879389850161272d565b60405180809781946345ed59e560e01b835260048301612760565b03915afa9283156107d6578893611b62575b5060e060249160055416604051928380926337f80ad760e11b82528760048301525afa9081156107d657611a719189908a8b91611b29575b6001600160801b039293509061ffff61171a921661279d565b4211611b1057908187923b156106e157604051637ca3fa7360e01b815233600482015260248101929092526001600160601b038516604483015282908290606490829084905af180156105cc57611afc575b50507f94bb2d6c0b0156b69860650cb41ebb691db20169e5ea6b8d02e791fd32213740916001600160601b0360405191168152a3604051f35b611b059061268a565b610df3578438611ac3565b60405163f72d5efd60e01b815260048101879052602490fd5b5050506001600160801b0361171a611b5261ffff9360e03d60e0116108b3576108a181836126ec565b5092955085945092509050611a58565b9092508381813d8311611b8b575b611b7a81836126ec565b8101031261065257519160e0611a20565b503d611b70565b94505083813d8311611bbe575b611ba981836126ec565b810103126106525791519183876119c8611999565b503d611b9f565b60405163ba69cfd960e01b81526001600160a01b0387166004820152602481018890526044810191909152606490fd5b90508381813d8311611c1b575b611c0c81836126ec565b8101031261065257513861195f565b503d611c02565b503461011a578060031936011261011a57611c68604051611c42816126b4565b60058152640312e302e360dc1b6020820152604051918291602083526020830190612639565b0390f35b503461011a576020806003193601126106dd5760043591611c8c83612cb4565b60018060a01b03806003541692816005541691806007541692604051936375e5231b60e01b8552876004860152602494868682015284816044818b5afa90811561079f578886928b928a916121c3575b50611d3b96611d14926102c46119f393604051958691848a840190916034926001600160601b03199060601b16825260148201520190565b0392611d28601f19948581018852876126ec565b600254169460405196879389850161272d565b03915afa9283156108ba578693612194575b506040516337f80ad760e11b81526004810184905260e0818781865afa801561079f5790611d97918890898a91611b29576001600160801b039293509061ffff61171a921661279d565b421161217c5760405163273267a360e11b8152600481018990529184838781855afa92831561079f57879361214d575b5060405163fef57daf60e01b808252600482018b905293868289818d5afa918215612142578992612113575b50611e20576040516340501bd760e01b81526001600160a01b038a166004820152602481018b9052604490fd5b6040999799989698518681019086825282604082015260408152611e43816126d0565b519020604051906315ce5a4560e01b8252600482015286818b81865afa908115610f12578b916120e6575b504211156120c35750908892916040519463044c990b60e41b865280600487015286868b81855afa9586156108f957859661208c575b50813b15610df3576040519063e25aa72560e01b82526004820152848a820152848160448183865af19081156108f9578591612078575b5050803b156105c857836001600160601b0360448b97836040519586948593632c640e6d60e01b855233600486015216809b8401525af1908115610618578491612064575b5050803b156106e15760405163a021d76d60e01b81526004810188905283818a8183865af1908115610618578491612050575b5050803b156106e1578280918960405180968193635498a1d160e11b83528c60048401525af192831561204357859361202a575b5050604051968791825286600483015281865afa9485156108ba578695611fd9575b50907fbf781c6dda1607f992095470fe21fac1ed7628c89a45ca78b7dfde2ed2e72b3b91604051908152a4604051f35b918091955082813d8311612023575b611ff281836126ec565b81010312610652579051937fbf781c6dda1607f992095470fe21fac1ed7628c89a45ca78b7dfde2ed2e72b3b611fa9565b503d611fe8565b6120369192935061268a565b61076c5782908738611f87565b50604051903d90823e3d90fd5b6120599061268a565b6106e1578238611f53565b61206d9061268a565b6106e1578238611f20565b6120819061268a565b6105c8578338611edb565b9095508681813d83116120bc575b6120a481836126ec565b81010312610df3576120b5906127e1565b9438611ea4565b503d61209a565b86606491898b6040519363343304af60e01b855260048501528301526044820152fd5b90508681813d831161210c575b6120fd81836126ec565b81010312610652575138611e6e565b503d6120f3565b9091508681813d831161213b575b61212b81836126ec565b8101031261065257519038611df3565b503d612121565b6040513d8b823e3d90fd5b9092508481813d8311612175575b61216581836126ec565b8101031261065257519138611dc7565b503d61215b565b60405163f72d5efd60e01b8152600481018990528590fd5b9092508381813d83116121bc575b6121ac81836126ec565b8101031261065257519138611d4d565b503d6121a2565b96939250505084813d83116121f5575b6121dd81836126ec565b81010312610652579251849089908990611d3b611cdc565b503d6121d3565b503461011a578060031936011261011a576001546040516001600160a01b039091168152602090f35b503461011a578060031936011261011a57546040516001600160a01b039091168152602090f35b503461011a5761010036600319011261011a576024356001600160801b03811681036106dd5760443563ffffffff811681036106e1576064356001600160601b0380821682036106525760843561ffff811681036107be5760a43591821682036106525760c4359260ff8416840361076c5760e4359485151586036107f55761157d96600435612916565b503461011a57604036600319011261011a576004356122f461265e565b6122fd82612cb4565b60018060a01b038060035416918160065416826007541692604051809463273267a360e11b825287600483015281602460209788935afa9081156107d6578891612574575b501561254c57604051906375e5231b60e01b82528660048301528760248301528482604481895afa9182156107d6578786918a94612519575b50604051606089901b6001600160601b03191683820190815260148101959095526123c9946123ae9082906034016119c8565b60405180809681946345ed59e560e01b835260048301612760565b03915afa9182156107d65788926124e9575b5060e060249160055416604051928380926337f80ad760e11b82528660048301525afa9081156107d65761242b9189908a8b91611b29576001600160801b039293509061ffff61171a921661279d565b4211611b10578690823b156106dd576040516357856ce160e11b815233600482015260248101919091526001600160601b0384166044820152918290606490829084905af180156108ba576124b4575b50907ff70a2f6971e3b06b83151f5a9b7dc691b79b15e828db0adcf68dc8f97cd29997916001600160601b0360405191168152a3604051f35b946124e17ff70a2f6971e3b06b83151f5a9b7dc691b79b15e828db0adcf68dc8f97cd2999793929661268a565b94909161247b565b9091508481813d8311612512575b61250181836126ec565b810103126107f557519060e06123db565b503d6124f7565b93505082813d8311612545575b61253081836126ec565b810103126107f55790519084876119c861237b565b503d612526565b6040516340501bd760e01b81526001600160a01b038616600482015260248101879052604490fd5b90508481813d831161259a575b61258b81836126ec565b810103126107f5575138612342565b503d612581565b503461011a578060031936011261011a576002546040516001600160a01b039091168152602090f35b9050346106dd57816003193601126106dd57806125e9611c68926126b4565b600c81526b10dbdb9d195b9d105cdcd95d60a21b6020820152604051918291602083526020830190612639565b60005b8381106126295750506000910152565b8181015183820152602001612619565b9060209161265281518092818552858086019101612616565b601f01601f1916010190565b602435906001600160601b038216820361065257565b60a435906001600160601b038216820361065257565b67ffffffffffffffff811161269e57604052565b634e487b7160e01b600052604160045260246000fd5b6040810190811067ffffffffffffffff82111761269e57604052565b6060810190811067ffffffffffffffff82111761269e57604052565b90601f8019910116810190811067ffffffffffffffff82111761269e57604052565b9081602091031261065257516001600160a01b03811681036106525790565b9091603493926001600160601b03199060601b168252601482015261275b8251809360208685019101612616565b010190565b90604061277892600181528160208201520190612639565b90565b51906001600160801b038216820361065257565b519060ff8216820361065257565b6001600160801b0391828092169182911692048211811515166127be570290565b634e487b7160e01b600052601160045260246000fd5b919082018092116127be57565b51906001600160601b038216820361065257565b519061ffff8216820361065257565b9160e083830312610652578251926020916128208383016127f5565b9361282d6040840161277b565b9381607f850112156106525760405191612846836126b4565b8260a0860193828511610652578360608801915b8683106128b057505050948160bf82011215610652576040519361287d856126b4565b60e085920192831161065257905b828210612899575050505090565b8380916128a58461278f565b81520191019061288b565b81906128bb846127e1565b815201910190849061285a565b929363ffffffff6001600160601b039296956001600160801b036060956080880199885216602087015216604085015216910152565b90816020910312610652575180151581036106525790565b600354604051636db6095560e01b8152919891976001600160a01b039091169660009690959194909360208a6004818b8d5af1998a156107d657889a612c80575b50883b156107f5576040516340c10f1960e01b8152336004820152602481018b90528881604481838e5af1801561214257612c6d575b506001546001600160a01b031690813b15612c695790889291838d6129c860405197889687958694635c1c1c7960e11b8652600486016128c8565b03925af180156108ba57908691612c55575b5050853b15610df35760405163eaeb169560e01b81528760048201528860248201523360448201528581606481838b5af180156108ba57908691612c41575b5050853b15610df3576040516312d540c560e01b81526004810188905290151560248201528481604481838a5af180156108f957908591612c2d575b5050843b156105c85760405163367bcd9f60e01b81528660048201528760248201528481604481838a5af180156108f957908591612c19575b5050600654604051606087901b6001600160601b031916602082015260348082018a905281526001600160a01b039091169290612acc6054826126ec565b60405194610100860186811067ffffffffffffffff82111761269e5760ff946001600160601b039361ffff926040523389528a60208a01528b60408a01526060890152600160808901521660a08701521660c08501521660e0830152803b156106e1578291829160405180948180946370ab967360e11b82526020600483015260018060a01b03815116602483015260018060a01b0360208201511660448301526040810151606483015260ff60e0612b9660608401516101006084870152610124860190612639565b928260808201511660a486015261ffff60a08201511660c48601526001600160601b0360c08201511660e486015201511661010483015203925af180156105cc57612c05575b507f60e45db7c8cb9f55f92f3de18053b0b426eb919a763a1daca0ea9ad20961e87890604051a4565b612c0f829161268a565b61011a5738612bdc565b612c229061268a565b6105c8578338612a8e565b612c369061268a565b6105c8578338612a55565b612c4a9061268a565b610df3578438612a19565b612c5e9061268a565b610df35784386129da565b8880fd5b612c799098919861268a565b963861298d565b9099506020813d602011612cac575b81612c9c602093836126ec565b810103126107f557519838612957565b3d9150612c8f565b6003546040516331a9108f60e11b815260048101929092526001600160a01b0391906020908290602490829086165afa908115612d5f57600091612d41575b50163303612cfd57565b606460405162461bcd60e51b815260206004820152602060248201527f4f6e6c79206173736574206f776e65722063616e20757365207468697320666e6044820152fd5b612d59915060203d81116113df576113d081836126ec565b38612cf3565b6040513d6000823e3d90fdfea26469706673582212206d56174992a7bb3955e147b99a7ff4d3e61b49283e82e8a8ff690d751e3947a364736f6c63430008100033",
  "devdoc": {
    "kind": "dev",
    "methods": {},
    "version": 1
  },
  "userdoc": {
    "kind": "user",
    "methods": {},
    "version": 1
  },
  "storageLayout": {
    "storage": [
      {
        "astId": 10767,
        "contract": "contracts/assets/ContentAsset.sol:ContentAsset",
        "label": "hub",
        "offset": 0,
        "slot": "0",
        "type": "t_contract(Hub)6314"
      },
      {
        "astId": 10942,
        "contract": "contracts/assets/ContentAsset.sol:ContentAsset",
        "label": "assertionContract",
        "offset": 0,
        "slot": "1",
        "type": "t_contract(Assertion)3104"
      },
      {
        "astId": 10945,
        "contract": "contracts/assets/ContentAsset.sol:ContentAsset",
        "label": "hashingProxy",
        "offset": 0,
        "slot": "2",
        "type": "t_contract(HashingProxy)6053"
      },
      {
        "astId": 10948,
        "contract": "contracts/assets/ContentAsset.sol:ContentAsset",
        "label": "contentAssetStorage",
        "offset": 0,
        "slot": "3",
        "type": "t_contract(ContentAssetStorage)18569"
      },
      {
        "astId": 10951,
        "contract": "contracts/assets/ContentAsset.sol:ContentAsset",
        "label": "parametersStorage",
        "offset": 0,
        "slot": "4",
        "type": "t_contract(ParametersStorage)13997"
      },
      {
        "astId": 10954,
        "contract": "contracts/assets/ContentAsset.sol:ContentAsset",
        "label": "serviceAgreementStorageProxy",
        "offset": 0,
        "slot": "5",
        "type": "t_contract(ServiceAgreementStorageProxy)15987"
      },
      {
        "astId": 10957,
        "contract": "contracts/assets/ContentAsset.sol:ContentAsset",
        "label": "serviceAgreementV1",
        "offset": 0,
        "slot": "6",
        "type": "t_contract(ServiceAgreementV1)9030"
      },
      {
        "astId": 10960,
        "contract": "contracts/assets/ContentAsset.sol:ContentAsset",
        "label": "unfinalizedStateStorage",
        "offset": 0,
        "slot": "7",
        "type": "t_contract(UnfinalizedStateStorage)18228"
      }
    ],
    "types": {
      "t_contract(Assertion)3104": {
        "encoding": "inplace",
        "label": "contract Assertion",
        "numberOfBytes": "20"
      },
      "t_contract(ContentAssetStorage)18569": {
        "encoding": "inplace",
        "label": "contract ContentAssetStorage",
        "numberOfBytes": "20"
      },
      "t_contract(HashingProxy)6053": {
        "encoding": "inplace",
        "label": "contract HashingProxy",
        "numberOfBytes": "20"
      },
      "t_contract(Hub)6314": {
        "encoding": "inplace",
        "label": "contract Hub",
        "numberOfBytes": "20"
      },
      "t_contract(ParametersStorage)13997": {
        "encoding": "inplace",
        "label": "contract ParametersStorage",
        "numberOfBytes": "20"
      },
      "t_contract(ServiceAgreementStorageProxy)15987": {
        "encoding": "inplace",
        "label": "contract ServiceAgreementStorageProxy",
        "numberOfBytes": "20"
      },
      "t_contract(ServiceAgreementV1)9030": {
        "encoding": "inplace",
        "label": "contract ServiceAgreementV1",
        "numberOfBytes": "20"
      },
      "t_contract(UnfinalizedStateStorage)18228": {
        "encoding": "inplace",
        "label": "contract UnfinalizedStateStorage",
        "numberOfBytes": "20"
      }
    }
  }
}