{
  "address": "0xEa997D7156f1EC53FF585285359e2B860114Bed5",
  "abi": [
    {
      "inputs": [
        {
          "internalType": "address",
          "name": "hubAddress",
          "type": "address"
        }
      ],
      "stateMutability": "nonpayable",
      "type": "constructor"
    },
    {
      "anonymous": false,
      "inputs": [
        {
          "indexed": true,
          "internalType": "uint8",
          "name": "hashFunctionId",
          "type": "uint8"
        },
        {
          "indexed": false,
          "internalType": "address",
          "name": "newContractAddress",
          "type": "address"
        }
      ],
      "name": "HashFunctionContractChanged",
      "type": "event"
    },
    {
      "anonymous": false,
      "inputs": [
        {
          "indexed": true,
          "internalType": "uint8",
          "name": "hashFunctionId",
          "type": "uint8"
        },
        {
          "indexed": false,
          "internalType": "address",
          "name": "newContractAddress",
          "type": "address"
        }
      ],
      "name": "NewHashFunctionContract",
      "type": "event"
    },
    {
      "inputs": [
        {
          "internalType": "uint8",
          "name": "hashFunctionId",
          "type": "uint8"
        },
        {
          "internalType": "bytes",
          "name": "data",
          "type": "bytes"
        }
      ],
      "name": "callHashFunction",
      "outputs": [
        {
          "internalType": "bytes32",
          "name": "",
          "type": "bytes32"
        }
      ],
      "stateMutability": "view",
      "type": "function"
    },
    {
      "inputs": [],
      "name": "getAllHashFunctions",
      "outputs": [
        {
          "components": [
            {
              "internalType": "uint8",
              "name": "id",
              "type": "uint8"
            },
            {
              "internalType": "address",
              "name": "addr",
              "type": "address"
            }
          ],
          "internalType": "struct UnorderedIndexableContractDynamicSetLib.Contract[]",
          "name": "",
          "type": "tuple[]"
        }
      ],
      "stateMutability": "view",
      "type": "function"
    },
    {
      "inputs": [
        {
          "internalType": "uint8",
          "name": "hashFunctionId",
          "type": "uint8"
        }
      ],
      "name": "getHashFunctionContractAddress",
      "outputs": [
        {
          "internalType": "address",
          "name": "",
          "type": "address"
        }
      ],
      "stateMutability": "view",
      "type": "function"
    },
    {
      "inputs": [
        {
          "internalType": "uint8",
          "name": "hashFunctionId",
          "type": "uint8"
        }
      ],
      "name": "getHashFunctionName",
      "outputs": [
        {
          "internalType": "string",
          "name": "",
          "type": "string"
        }
      ],
      "stateMutability": "view",
      "type": "function"
    },
    {
      "inputs": [],
      "name": "hub",
      "outputs": [
        {
          "internalType": "contract Hub",
          "name": "",
          "type": "address"
        }
      ],
      "stateMutability": "view",
      "type": "function"
    },
    {
      "inputs": [
        {
          "internalType": "uint8",
          "name": "hashFunctionId",
          "type": "uint8"
        }
      ],
      "name": "isHashFunction",
      "outputs": [
        {
          "internalType": "bool",
          "name": "",
          "type": "bool"
        }
      ],
      "stateMutability": "view",
      "type": "function"
    },
    {
      "inputs": [],
      "name": "name",
      "outputs": [
        {
          "internalType": "string",
          "name": "",
          "type": "string"
        }
      ],
      "stateMutability": "pure",
      "type": "function"
    },
    {
      "inputs": [
        {
          "internalType": "uint8",
          "name": "hashFunctionId",
          "type": "uint8"
        }
      ],
      "name": "removeContract",
      "outputs": [],
      "stateMutability": "nonpayable",
      "type": "function"
    },
    {
      "inputs": [
        {
          "internalType": "uint8",
          "name": "hashFunctionId",
          "type": "uint8"
        },
        {
          "internalType": "address",
          "name": "hashingContractAddress",
          "type": "address"
        }
      ],
      "name": "setContractAddress",
      "outputs": [],
      "stateMutability": "nonpayable",
      "type": "function"
    },
    {
      "inputs": [
        {
          "internalType": "bool",
          "name": "_status",
          "type": "bool"
        }
      ],
      "name": "setStatus",
      "outputs": [],
      "stateMutability": "nonpayable",
      "type": "function"
    },
    {
      "inputs": [],
      "name": "status",
      "outputs": [
        {
          "internalType": "bool",
          "name": "",
          "type": "bool"
        }
      ],
      "stateMutability": "view",
      "type": "function"
    },
    {
      "inputs": [],
      "name": "version",
      "outputs": [
        {
          "internalType": "string",
          "name": "",
          "type": "string"
        }
      ],
      "stateMutability": "pure",
      "type": "function"
    }
  ],
  "transactionHash": "0x2bbbb73213eb6f98acb253280615a99938123be8fdf82812d3c835ac2e1ed559",
  "args": [
    "0x224aEC6891d26e994D4Dbf207aE099ca029b3E67"
  ],
  "numDeployments": 1,
  "solcInputHash": "6736b5a2b01ed07b57366e384b7e7c88",
  "bytecode": "0x6080346100bf57601f610e0d38819003918201601f19168301916001600160401b038311848410176100c4578084926020946040528339810103126100bf57516001600160a01b038116908190036100bf57801561007a57600080546001600160a01b031916919091179055604051610d3290816100db8239f35b60405162461bcd60e51b815260206004820152601960248201527f48756220416464726573732063616e6e6f7420626520307830000000000000006044820152606490fd5b600080fd5b634e487b7160e01b600052604160045260246000fdfe608060408181526004918236101561001657600080fd5b600092833560e01c91826306fdde03146108ce57508163200d2ed2146108a9578163365a86fc1461088157816344a7c8d31461085257816345ed59e51461075357816354fd4d50146107165781635c40f6f4146106d5578163802f2368146105e25781638b6602d814610451578163b58abd4614610347578163c413e5be146100e4575063f75a30a9146100a957600080fd5b346100e05760203660031901126100e0576020906001600160a01b03826100d66100d1610961565b610c2f565b0151169051908152f35b5080fd5b9050346103435781600319360112610343576100fe610961565b906024356001600160a01b0381169182820361033f5761011c6109ca565b61012584610c70565b156101c3575060ff82936101b86020936101617f87344d3e74d17609f4e724277f74dda482a7dec50d0dc2e62d7c93101dd968bc961515610a98565b61017261016d84610c70565b610b95565b61019261018c8460ff166000526001602052604060002090565b54610af8565b508054610100600160a81b03191660089290921b610100600160a81b0316919091179055565b85519485521692a251f35b905060ff83169283156102f0576101db831515610a98565b6101e481610c70565b610287576102059060025491829160ff166000526001602052604060002090565b5584519161021283610976565b8483528360208401526801000000000000000082101561027457509161026b6020926102658560017f9f9bb0dfe32a0f6d822a9eebfa9002f04cc064f036f9dabd0b95d694bffb52899701600255610af8565b90610b45565b8451908152a251f35b634e487b7160e01b875260419052602486fd5b845162461bcd60e51b8152602081840152603b60248201527f496e64657861626c65436f6e74726163745365743a20436f6e7472616374207760448201527f69746820676976656e20494420616c72656164792065786973747300000000006064820152608490fd5b845162461bcd60e51b8152602081840152602360248201527f496e64657861626c65436f6e74726163745365743a2049442063616e6f74206260448201526206520360ec1b6064820152608490fd5b8580fd5b8280fd5b9050823461044e578060031936011261044e576002549167ffffffffffffffff831161043b57509190815192602093610385858460051b01826109a8565b8281526002825284810192827f405787fa12a823e0f2b7631cc41b3ba8828b3321ca811111fa75cd3aa3bb5ace855b8383106104135750505050835194859481860192828752518093528086019493905b8382106103e35786860387f35b8451805160ff1687528301516001600160a01b0316868401528796509485019493820193600191909101906103d6565b6001898192610427859c99989a9b9c610c07565b8152019201920191909796959394976103b4565b634e487b7160e01b825260419052602490fd5b80fd5b905034610343576020806003193601126105de5761046d610961565b906104766109ca565b61048261016d83610c70565b6104998260ff166000526001602052604060002090565b546002546000199391908481019081116105cb57906104c36104bd89959493610af8565b50610c07565b83810151885163af640d0f60e01b815291949190829082908a9082906001600160a01b03165afa9182156105c1578692610581575b505092610265826105239361051d6105369760ff166000526001602052604060002090565b55610af8565b60ff166000526001602052604060002090565b55600254801561056e57019061054b82610af8565b91909161055c575083905560025551f35b634e487b7160e01b8552849052602484fd5b634e487b7160e01b855260318352602485fd5b90809250813d83116105ba575b61059881836109a8565b810103126105b657519260ff841684036105b65792610265826104f8565b8480fd5b503d61058e565b89513d88823e3d90fd5b634e487b7160e01b885260118652602488fd5b8380fd5b8383346100e0576020918260031936011261044e5783816001600160a01b038561060d6100d1610961565b0151168451968780926306fdde0360e01b82525afa9384156106cb578294610641575b83518061063d8782610935565b0390f35b90919293503d8084873e61065581876109a8565b850192818685031261044e57855167ffffffffffffffff9687821161034357019284601f850112156100e057835196871161043b57508451936106a1601f8801601f19168401866109a8565b86855282878501011161044e5750936106c2918561063d9685019101610912565b90838080610630565b83513d84823e3d90fd5b9050346103435760203660031901126103435735801515809103610343576106fb6109ca565b825460ff60a01b191660a09190911b60ff60a01b1617825551f35b5050346100e057816003193601126100e057805161063d9161073782610976565b6005825264312e302e3160d81b60208301525191829182610935565b8383346100e057806003193601126100e05761076d610961565b6024359067ffffffffffffffff908183116105b657366023840112156105b657828601359182116105b65736602483850101116105b657916044959160249360209788948592836107c460018060a01b0392610c2f565b015116938089519889978896879563550f426f60e11b87528601528282860152018484013781810183018a9052601f01601f191681010301915afa928315610847578093610815575b505051908152f35b909192508382813d8311610840575b61082e81836109a8565b8101031261044e57505190838061080d565b503d610824565b8251903d90823e3d90fd5b5050346100e05760203660031901126100e057602090610878610873610961565b610c70565b90519015158152f35b5050346100e057816003193601126100e057905490516001600160a01b039091168152602090f35b5050346100e057816003193601126100e05760ff6020925460a01c1690519015158152f35b8490843461034357826003193601126103435761063d92506108ef82610976565b600c82526b48617368696e6750726f787960a01b60208301525191829182610935565b60005b8381106109255750506000910152565b8181015183820152602001610915565b604091602082526109558151809281602086015260208686019101610912565b601f01601f1916010190565b6004359060ff8216820361097157565b600080fd5b6040810190811067ffffffffffffffff82111761099257604052565b634e487b7160e01b600052604160045260246000fd5b90601f8019910116810190811067ffffffffffffffff82111761099257604052565b60008054604051638da5cb5b60e01b81526020926001600160a01b039284908390600490829087165afa918215610a8b578192610a51575b5050163303610a0e5750565b6064906040519062461bcd60e51b825280600483015260248201527f466e2063616e206f6e6c79206265207573656420627920687562206f776e65726044820152fd5b9091508381813d8311610a84575b610a6981836109a8565b810103126100e0575190828216820361044e57503880610a02565b503d610a5f565b50604051903d90823e3d90fd5b15610a9f57565b60405162461bcd60e51b815260206004820152602b60248201527f496e64657861626c65436f6e74726163745365743a204164647265737320636160448201526a06e6e6f74206265203078360ac1b6064820152608490fd5b600254811015610b2f5760026000527f405787fa12a823e0f2b7631cc41b3ba8828b3321ca811111fa75cd3aa3bb5ace0190600090565b634e487b7160e01b600052603260045260246000fd5b90610b7f57815181546020909301516001600160a81b031990931660ff919091161760089290921b610100600160a81b0316919091179055565b634e487b7160e01b600052600060045260246000fd5b15610b9c57565b60405162461bcd60e51b815260206004820152603b60248201527f496e64657861626c65436f6e74726163745365743a20436f6e7472616374207760448201527f69746820676976656e20494420646f65736e27742065786973747300000000006064820152608490fd5b90604051610c1481610976565b915460ff8116835260081c6001600160a01b03166020830152565b60ff9060006020604051610c4281610976565b8281520152610c5361016d82610ca1565b166000526001602052610c6d6104bd604060002054610af8565b90565b60025415610c9b5760ff1680600052600160205260ff610c94604060002054610af8565b5054161490565b50600090565b600254908115610cf55760ff169081600052600160205260406000205490811015610b2f5760026000527f405787fa12a823e0f2b7631cc41b3ba8828b3321ca811111fa75cd3aa3bb5ace015460ff161490565b505060009056fea264697066735822122051848961b61f880e607d8d78c00f5733c2b8331a0215cd88ed1db8fe30454ea864736f6c63430008100033",
  "devdoc": {
    "kind": "dev",
    "methods": {},
    "version": 1
  },
  "userdoc": {
    "kind": "user",
    "methods": {},
    "version": 1
  },
  "storageLayout": {
    "storage": [
      {
        "astId": 15408,
        "contract": "contracts/HashingProxy.sol:HashingProxy",
        "label": "hub",
        "offset": 0,
        "slot": "0",
        "type": "t_contract(Hub)9211"
      },
      {
        "astId": 15379,
        "contract": "contracts/HashingProxy.sol:HashingProxy",
        "label": "status",
        "offset": 20,
        "slot": "0",
        "type": "t_bool"
      },
      {
        "astId": 8789,
        "contract": "contracts/HashingProxy.sol:HashingProxy",
        "label": "hashFunctionSet",
        "offset": 0,
        "slot": "1",
        "type": "t_struct(Set)24090_storage"
      }
    ],
    "types": {
      "t_address": {
        "encoding": "inplace",
        "label": "address",
        "numberOfBytes": "20"
      },
      "t_array(t_struct(Contract)24081_storage)dyn_storage": {
        "base": "t_struct(Contract)24081_storage",
        "encoding": "dynamic_array",
        "label": "struct UnorderedIndexableContractDynamicSetLib.Contract[]",
        "numberOfBytes": "32"
      },
      "t_bool": {
        "encoding": "inplace",
        "label": "bool",
        "numberOfBytes": "1"
      },
      "t_contract(Hub)9211": {
        "encoding": "inplace",
        "label": "contract Hub",
        "numberOfBytes": "20"
      },
      "t_mapping(t_uint8,t_uint256)": {
        "encoding": "mapping",
        "key": "t_uint8",
        "label": "mapping(uint8 => uint256)",
        "numberOfBytes": "32",
        "value": "t_uint256"
      },
      "t_struct(Contract)24081_storage": {
        "encoding": "inplace",
        "label": "struct UnorderedIndexableContractDynamicSetLib.Contract",
        "members": [
          {
            "astId": 24078,
            "contract": "contracts/HashingProxy.sol:HashingProxy",
            "label": "id",
            "offset": 0,
            "slot": "0",
            "type": "t_uint8"
          },
          {
            "astId": 24080,
            "contract": "contracts/HashingProxy.sol:HashingProxy",
            "label": "addr",
            "offset": 1,
            "slot": "0",
            "type": "t_address"
          }
        ],
        "numberOfBytes": "32"
      },
      "t_struct(Set)24090_storage": {
        "encoding": "inplace",
        "label": "struct UnorderedIndexableContractDynamicSetLib.Set",
        "members": [
          {
            "astId": 24085,
            "contract": "contracts/HashingProxy.sol:HashingProxy",
            "label": "indexPointers",
            "offset": 0,
            "slot": "0",
            "type": "t_mapping(t_uint8,t_uint256)"
          },
          {
            "astId": 24089,
            "contract": "contracts/HashingProxy.sol:HashingProxy",
            "label": "contractList",
            "offset": 0,
            "slot": "1",
            "type": "t_array(t_struct(Contract)24081_storage)dyn_storage"
          }
        ],
        "numberOfBytes": "64"
      },
      "t_uint256": {
        "encoding": "inplace",
        "label": "uint256",
        "numberOfBytes": "32"
      },
      "t_uint8": {
        "encoding": "inplace",
        "label": "uint8",
        "numberOfBytes": "1"
      }
    }
  }
}