{
  "address": "0x57f27780627e0fb487eAB450c299CD9729DE89a0",
  "abi": [
    {
      "inputs": [
        {
          "internalType": "address",
          "name": "hubAddress",
          "type": "address"
        }
      ],
      "stateMutability": "nonpayable",
      "type": "constructor"
    },
    {
      "anonymous": false,
      "inputs": [
        {
          "indexed": true,
          "internalType": "address",
          "name": "previousOwner",
          "type": "address"
        },
        {
          "indexed": true,
          "internalType": "address",
          "name": "newOwner",
          "type": "address"
        }
      ],
      "name": "OwnershipTransferred",
      "type": "event"
    },
    {
      "inputs": [
        {
          "internalType": "address",
          "name": "target",
          "type": "address"
        },
        {
          "internalType": "bytes",
          "name": "data",
          "type": "bytes"
        }
      ],
      "name": "forwardCall",
      "outputs": [
        {
          "internalType": "bytes",
          "name": "",
          "type": "bytes"
        }
      ],
      "stateMutability": "nonpayable",
      "type": "function"
    },
    {
      "inputs": [],
      "name": "hub",
      "outputs": [
        {
          "internalType": "contract Hub",
          "name": "",
          "type": "address"
        }
      ],
      "stateMutability": "view",
      "type": "function"
    },
    {
      "inputs": [],
      "name": "name",
      "outputs": [
        {
          "internalType": "string",
          "name": "",
          "type": "string"
        }
      ],
      "stateMutability": "pure",
      "type": "function"
    },
    {
      "inputs": [],
      "name": "owner",
      "outputs": [
        {
          "internalType": "address",
          "name": "",
          "type": "address"
        }
      ],
      "stateMutability": "view",
      "type": "function"
    },
    {
      "inputs": [],
      "name": "renounceHubOwnership",
      "outputs": [],
      "stateMutability": "nonpayable",
      "type": "function"
    },
    {
      "inputs": [],
      "name": "renounceOwnership",
      "outputs": [],
      "stateMutability": "nonpayable",
      "type": "function"
    },
    {
      "inputs": [
        {
          "components": [
            {
              "internalType": "string",
              "name": "name",
              "type": "string"
            },
            {
              "internalType": "address",
              "name": "addr",
              "type": "address"
            }
          ],
          "internalType": "struct GeneralStructs.Contract[]",
          "name": "newContracts",
          "type": "tuple[]"
        },
        {
          "components": [
            {
              "internalType": "string",
              "name": "name",
              "type": "string"
            },
            {
              "internalType": "address",
              "name": "addr",
              "type": "address"
            }
          ],
          "internalType": "struct GeneralStructs.Contract[]",
          "name": "newAssetStorageContracts",
          "type": "tuple[]"
        },
        {
          "internalType": "address[]",
          "name": "contractsToReinitialize",
          "type": "address[]"
        },
        {
          "internalType": "bytes[]",
          "name": "setParametersEncodedData",
          "type": "bytes[]"
        },
        {
          "internalType": "address[]",
          "name": "newHashFunctions",
          "type": "address[]"
        },
        {
          "internalType": "address[]",
          "name": "newScoreFunctions",
          "type": "address[]"
        }
      ],
      "name": "setAndReinitializeContracts",
      "outputs": [],
      "stateMutability": "nonpayable",
      "type": "function"
    },
    {
      "inputs": [
        {
          "internalType": "string",
          "name": "assetStorageName",
          "type": "string"
        },
        {
          "internalType": "address",
          "name": "assetStorageAddress",
          "type": "address"
        }
      ],
      "name": "setAssetStorageAddress",
      "outputs": [],
      "stateMutability": "nonpayable",
      "type": "function"
    },
    {
      "inputs": [
        {
          "internalType": "string",
          "name": "contractName",
          "type": "string"
        },
        {
          "internalType": "address",
          "name": "newContractAddress",
          "type": "address"
        }
      ],
      "name": "setContractAddress",
      "outputs": [],
      "stateMutability": "nonpayable",
      "type": "function"
    },
    {
      "inputs": [
        {
          "internalType": "bool",
          "name": "_status",
          "type": "bool"
        }
      ],
      "name": "setStatus",
      "outputs": [],
      "stateMutability": "nonpayable",
      "type": "function"
    },
    {
      "inputs": [],
      "name": "status",
      "outputs": [
        {
          "internalType": "bool",
          "name": "",
          "type": "bool"
        }
      ],
      "stateMutability": "view",
      "type": "function"
    },
    {
      "inputs": [
        {
          "internalType": "address",
          "name": "newOwner",
          "type": "address"
        }
      ],
      "name": "transferHubOwnership",
      "outputs": [],
      "stateMutability": "nonpayable",
      "type": "function"
    },
    {
      "inputs": [
        {
          "internalType": "address",
          "name": "newOwner",
          "type": "address"
        }
      ],
      "name": "transferOwnership",
      "outputs": [],
      "stateMutability": "nonpayable",
      "type": "function"
    },
    {
      "inputs": [],
      "name": "version",
      "outputs": [
        {
          "internalType": "string",
          "name": "",
          "type": "string"
        }
      ],
      "stateMutability": "pure",
      "type": "function"
    }
  ],
  "transactionHash": "0xe95ffc0ec5394729c9aad5c79fa7ee5dc5951b00032727d41d58e4bf9eddd733",
  "args": [
    "0x224aEC6891d26e994D4Dbf207aE099ca029b3E67"
  ],
  "numDeployments": 1,
  "solcInputHash": "6736b5a2b01ed07b57366e384b7e7c88",
  "bytecode": "0x6080346100f457601f61155638819003918201601f19168301916001600160401b038311848410176100f9578084926020946040528339810103126100f457516001600160a01b0390818116908190036100f45780156100af5760018060a01b031990816000541617600055600154903390821617600155604051913391167f8be0079c531659141344cd1fd0a4f28419497f9722a3daafe3b4186f6b6457e0600084a361144690816101108239f35b60405162461bcd60e51b815260206004820152601960248201527f48756220416464726573732063616e6e6f7420626520307830000000000000006044820152606490fd5b600080fd5b634e487b7160e01b600052604160045260246000fdfe60806040526004361015610013575b600080fd5b60003560e01c806306fdde031461012b578063077512fa146101225780631b75470214610119578063200d2ed21461011057806322bee49414610107578063365a86fc146100fe5780634371858c146100f5578063534e785c146100ec57806354fd4d50146100e35780635c40f6f4146100da578063715018a6146100d15780638da5cb5b146100c8578063e8d27687146100bf5763f2fde38b146100b757600080fd5b61000e610772565b5061000e6106b4565b5061000e610659565b5061000e6105f7565b5061000e6104fe565b5061000e6104ad565b5061000e610457565b5061000e6103fe565b5061000e6103d4565b5061000e610375565b5061000e61034e565b5061000e6102d9565b5061000e61024d565b5061000e61017f565b600091031261000e57565b919082519283825260005b84811061016b575050826000602080949584010152601f8019910116010190565b60208183018101518483018201520161014a565b503461000e57600036600319011261000e576101ce6040516101a0816108d7565b600d81526c243ab121b7b73a3937b63632b960991b602082015260405191829160208352602083019061013f565b0390f35b9181601f8401121561000e5782359167ffffffffffffffff831161000e576020838186019501011161000e57565b6001600160a01b0381160361000e57565b604060031982011261000e576004359067ffffffffffffffff821161000e5761023c916004016101d2565b909160243561024a81610200565b90565b503461000e5761025c36610211565b9190610266611226565b600080549093849290916001600160a01b031690813b156102d557836102a395604051968795869485936303ba897d60e11b855260048501610bb6565b03925af180156102c8575b6102b9575b50604051f35b6102c2906108b6565b386102b3565b6102d06109ff565b6102ae565b8380fd5b503461000e576000602036600319011261034b576004356102f981610200565b610301610847565b81546001600160a01b0390811691839190833b156103475760249083604051958694859363f2fde38b60e01b85521660048401525af180156102c8576102b95750604051f35b8280fd5b80fd5b503461000e57600036600319011261000e57602060ff60005460a01c166040519015158152f35b503461000e57604036600319011261000e5760043561039381610200565b60243567ffffffffffffffff811161000e576101ce916103ba6103c09236906004016101d2565b91610915565b60405191829160208352602083019061013f565b503461000e57600036600319011261000e576000546040516001600160a01b039091168152602090f35b503461000e5760008060031936011261034b57610419610847565b805481906001600160a01b0316803b156104545781906004604051809481936338a80c5360e11b83525af180156102c8576102b95750604051f35b50fd5b503461000e5761046636610211565b9190610470611226565b600080549093849290916001600160a01b031690813b156102d557836102a395604051968795869485936314d39e1760e21b855260048501610bb6565b503461000e57600036600319011261000e576101ce6040516104ce816108d7565b60058152640312e302e360dc1b602082015260405191829160208352602083019061013f565b8015150361000e57565b503461000e5760208060031936011261000e576004359061051e826104f4565b600054604051638da5cb5b60e01b81526001600160a01b039183908290600490829086165afa9081156105ea575b6000916105bd575b5016330361057a576000805460ff60a01b191683151560a01b60ff60a01b16179055005b005b6064906040519062461bcd60e51b825280600483015260248201527f466e2063616e206f6e6c79206265207573656420627920687562206f776e65726044820152fd5b6105dd9150833d85116105e3575b6105d581836108f3565b810190610db9565b38610554565b503d6105cb565b6105f26109ff565b61054c565b503461000e5760008060031936011261034b57610612610847565b600180546001600160a01b031981169091556040519082906001600160a01b03167f8be0079c531659141344cd1fd0a4f28419497f9722a3daafe3b4186f6b6457e08284a3f35b503461000e57600036600319011261000e576001546040516001600160a01b039091168152602090f35b9181601f8401121561000e5782359167ffffffffffffffff831161000e576020808501948460051b01011161000e57565b503461000e5760c036600319011261000e57600467ffffffffffffffff813581811161000e576106e79036908401610683565b9160243581811161000e576106ff9036908601610683565b60449291923582811161000e576107199036908801610683565b60649291923584811161000e576107339036908a01610683565b93909260843586811161000e5761074d9036908c01610683565b97909660a43590811161000e576105789b61076a91369101610683565b9a9099610ab3565b503461000e57602036600319011261000e5760043561079081610200565b610798610847565b6001600160a01b039081169081156107f35760009160015491816bffffffffffffffffffffffff60a01b84161760015560405192167f8be0079c531659141344cd1fd0a4f28419497f9722a3daafe3b4186f6b6457e08484a3f35b60405162461bcd60e51b815260206004820152602660248201527f4f776e61626c653a206e6577206f776e657220697320746865207a65726f206160448201526564647265737360d01b6064820152608490fd5b6001546001600160a01b0316330361085b57565b606460405162461bcd60e51b815260206004820152602060248201527f4f776e61626c653a2063616c6c6572206973206e6f7420746865206f776e65726044820152fd5b50634e487b7160e01b600052604160045260246000fd5b67ffffffffffffffff81116108ca57604052565b6108d261089f565b604052565b6040810190811067ffffffffffffffff8211176108ca57604052565b90601f8019910116810190811067ffffffffffffffff8211176108ca57604052565b909161091f611226565b60008054604051631627905560e01b81526001600160a01b0385811660048301529295869493909260209183916024918391165afa9081156109f2575b84916109a2575b50839492916109728592610a0c565b61098160405180948193610a57565b03925af19061098e610a65565b9115610998575090565b6040513d8092823efd5b91929350506020813d82116109ea575b816109bf602093836108f3565b810103126109e65791848094926109728295516109db816104f4565b925050919294610963565b8480fd5b3d91506109b2565b6109fa6109ff565b61095c565b506040513d6000823e3d90fd5b15610a1357565b606460405162461bcd60e51b815260206004820152602060248201527f54617267657420636f6e74726163742069736e277420696e20746865204875626044820152fd5b908092918237016000815290565b3d15610aae573d9067ffffffffffffffff8211610aa1575b60405191610a95601f8201601f1916602001846108f3565b82523d6000602084013e565b610aa961089f565b610a7d565b606090565b909b9a99989b610ac1611226565b60005b818110610b0157505050610af593610aff9a9b9693610aeb610afa999794610af094610c73565b610d37565b610df8565b610ec9565b611084565b565b600054610b1e906001600160a01b03165b6001600160a01b031690565b90610b33610b2d828587610c06565b80610c36565b90610b4a6020610b4485888a610c06565b01610c69565b843b1561000e57600194610b799360008094604051968795869485936314d39e1760e21b855260048501610bb6565b03925af18015610ba9575b610b90575b5001610ac4565b80610b9d610ba3926108b6565b80610134565b38610b89565b610bb16109ff565b610b84565b918060609160209396959660408652816040870152838601376000828286010152601f80199101168301019360018060a01b0316910152565b50634e487b7160e01b600052603260045260246000fd5b9190811015610c29575b60051b81013590603e198136030182121561000e570190565b610c31610bef565b610c10565b903590601e198136030182121561000e570180359067ffffffffffffffff821161000e5760200191813603831361000e57565b3561024a81610200565b9060005b818110610c8357505050565b6000546001600160a01b031690610c9e610b2d828587610c06565b906020610cac848789610c06565b0135610cb781610200565b843b1561000e57600194610ce69360008094604051968795869485936303ba897d60e11b855260048501610bb6565b03925af18015610d0c575b610cfd575b5001610c77565b610d06906108b6565b38610cf6565b610d146109ff565b610cf1565b9190811015610d2a575b60051b0190565b610d32610bef565b610d23565b919060005b818110610d495750509050565b610d54818386610d19565b35610d5e81610200565b6001600160a01b031690813b1561000e5760008060019360046040518094819363204a7f0760e21b83525af18015610dac575b610d9d575b5001610d3c565b610da6906108b6565b38610d96565b610db46109ff565b610d91565b9081602091031261000e575161024a81610200565b9091610de792811015610deb575b60051b810190610c36565b9091565b610df3610bef565b610ddc565b90606490602060018060a01b036000541660405193848092630110ceef60e21b82528460048301526011602483015270506172616d657465727353746f7261676560781b60448301525afa918215610ea3575b600092610e83575b5060005b818110610e645750505050565b80610e7c610e756001938588610dce565b9086610915565b5001610e57565b610e9c91925060203d81116105e3576105d581836108f3565b9038610e53565b610eab6109ff565b610e4b565b9081602091031261000e575160ff8116810361000e5790565b60008054909290610ee2906001600160a01b0316610b12565b90604091825190630110ceef60e21b825260209182816004938180610f2a87820160609060208152600c60208201526b48617368696e6750726f787960a01b60408201520190565b03915afa908115611077575b879161105a575b506001600160a01b031692865b818110610f5b575050505050505050565b8284610f76610b12610b12610f7186888e610d19565b610c69565b885163af640d0f60e01b815292839182905afa90811561104d575b8991611020575b50610fa7610f7183858b610d19565b90863b1561101c578751636209f2df60e11b815260ff9091168582019081526001600160a01b039092166020830152600192918a90829081906040010381838b5af1801561100f575b610ffc575b5001610f4a565b80610b9d611009926108b6565b38610ff5565b6110176109ff565b610ff0565b8980fd5b6110409150853d8711611046575b61103881836108f3565b810190610eb0565b38610f98565b503d61102e565b6110556109ff565b610f91565b6110719150833d85116105e3576105d581836108f3565b38610f3d565b61107f6109ff565b610f36565b6000805490929061109d906001600160a01b0316610b12565b90604091825190630110ceef60e21b8252602091828160049381806110e587820160609060208152600c60208201526b53636f72696e6750726f787960a01b60408201520190565b03915afa908115611219575b87916111fc575b506001600160a01b031692865b818110611116575050505050505050565b828461112c610b12610b12610f7186888e610d19565b885163af640d0f60e01b815292839182905afa9081156111ef575b89916111d2575b5061115d610f7183858b610d19565b90863b1561101c578751636209f2df60e11b815260ff9091168582019081526001600160a01b039092166020830152600192918a90829081906040010381838b5af180156111c5575b6111b2575b5001611105565b80610b9d6111bf926108b6565b386111ab565b6111cd6109ff565b6111a6565b6111e99150853d87116110465761103881836108f3565b3861114e565b6111f76109ff565b611147565b6112139150833d85116105e3576105d581836108f3565b386110f8565b6112216109ff565b6110f1565b60018060a01b0360015416803314908115611288575b501561124457565b606460405162461bcd60e51b815260206004820152602060248201527f4f776e6572202f204d756c7469536967206f776e65722066756e6374696f6e216044820152fd5b61129291506112df565b3861123c565b60001981146112a75760010190565b634e487b7160e01b600052601160045260246000fd5b60209181518110156112d2575b60051b010190565b6112da610bef565b6112ca565b60405163a0e67e2b60e01b81526000918290829060049082906001600160a01b03165afa82918161135d575b50611314575090565b815b81518110156113585761133c610b1261132f83856112bd565b516001600160a01b031690565b33146113505761134b90611298565b611316565b505050600190565b505090565b9091503d8084833e61136f81836108f3565b810160209081838203126109e657825167ffffffffffffffff938482116113fb570181601f8201121561140c5780519384116113ff575b8360051b90604051946113bb858401876108f3565b855283808601928201019283116113fb578301905b8282106113e25750505050903861130b565b83809183516113f081610200565b8152019101906113d0565b8680fd5b61140761089f565b6113a6565b8580fdfea2646970667358221220c16925c0f8206b1d537549ea1fb06dbfbb76f2dd85556062cb387fc81cb4073c64736f6c63430008100033",
  "devdoc": {
    "kind": "dev",
    "methods": {
      "forwardCall(address,bytes)": {
        "details": "Forwards a function call to a specified target contract.",
        "params": {
          "data": "The calldata containing the function signature and arguments for the target contract's function.",
          "target": "The address of the target contract."
        },
        "returns": {
          "_0": "result The return data of the target contract's function call."
        }
      },
      "owner()": {
        "details": "Returns the address of the current owner."
      },
      "renounceOwnership()": {
        "details": "Leaves the contract without owner. It will not be possible to call `onlyOwner` functions anymore. Can only be called by the current owner. NOTE: Renouncing ownership will leave the contract without an owner, thereby removing any functionality that is only available to the owner."
      },
      "transferOwnership(address)": {
        "details": "Transfers ownership of the contract to a new account (`newOwner`). Can only be called by the current owner."
      }
    },
    "version": 1
  },
  "userdoc": {
    "kind": "user",
    "methods": {
      "forwardCall(address,bytes)": {
        "notice": "This function can only be called by the contract owner or a multisig owner."
      }
    },
    "version": 1
  },
  "storageLayout": {
    "storage": [
      {
        "astId": 15408,
        "contract": "contracts/HubController.sol:HubController",
        "label": "hub",
        "offset": 0,
        "slot": "0",
        "type": "t_contract(Hub)9211"
      },
      {
        "astId": 15379,
        "contract": "contracts/HubController.sol:HubController",
        "label": "status",
        "offset": 20,
        "slot": "0",
        "type": "t_bool"
      },
      {
        "astId": 400,
        "contract": "contracts/HubController.sol:HubController",
        "label": "_owner",
        "offset": 0,
        "slot": "1",
        "type": "t_address"
      }
    ],
    "types": {
      "t_address": {
        "encoding": "inplace",
        "label": "address",
        "numberOfBytes": "20"
      },
      "t_bool": {
        "encoding": "inplace",
        "label": "bool",
        "numberOfBytes": "1"
      },
      "t_contract(Hub)9211": {
        "encoding": "inplace",
        "label": "contract Hub",
        "numberOfBytes": "20"
      }
    }
  }
}