{
  "address": "0x9F2875F850B6CBC23126Ac0c692598E68b66110a",
  "abi": [
    {
      "inputs": [
        {
          "internalType": "address",
          "name": "hubAddress",
          "type": "address"
        }
      ],
      "stateMutability": "nonpayable",
      "type": "constructor"
    },
    {
      "anonymous": false,
      "inputs": [
        {
          "indexed": true,
          "internalType": "uint72",
          "name": "identityId",
          "type": "uint72"
        },
        {
          "indexed": true,
          "internalType": "bytes32",
          "name": "operationalKey",
          "type": "bytes32"
        },
        {
          "indexed": true,
          "internalType": "bytes32",
          "name": "adminKey",
          "type": "bytes32"
        }
      ],
      "name": "IdentityCreated",
      "type": "event"
    },
    {
      "anonymous": false,
      "inputs": [
        {
          "indexed": true,
          "internalType": "uint72",
          "name": "identityId",
          "type": "uint72"
        }
      ],
      "name": "IdentityDeleted",
      "type": "event"
    },
    {
      "inputs": [
        {
          "internalType": "uint72",
          "name": "identityId",
          "type": "uint72"
        },
        {
          "internalType": "bytes32",
          "name": "key",
          "type": "bytes32"
        },
        {
          "internalType": "uint256",
          "name": "keyPurpose",
          "type": "uint256"
        },
        {
          "internalType": "uint256",
          "name": "keyType",
          "type": "uint256"
        }
      ],
      "name": "addKey",
      "outputs": [],
      "stateMutability": "nonpayable",
      "type": "function"
    },
    {
      "inputs": [
        {
          "internalType": "address",
          "name": "operational",
          "type": "address"
        },
        {
          "internalType": "address",
          "name": "admin",
          "type": "address"
        }
      ],
      "name": "createIdentity",
      "outputs": [
        {
          "internalType": "uint72",
          "name": "",
          "type": "uint72"
        }
      ],
      "stateMutability": "nonpayable",
      "type": "function"
    },
    {
      "inputs": [
        {
          "internalType": "uint72",
          "name": "identityId",
          "type": "uint72"
        }
      ],
      "name": "deleteIdentity",
      "outputs": [],
      "stateMutability": "nonpayable",
      "type": "function"
    },
    {
      "inputs": [],
      "name": "hub",
      "outputs": [
        {
          "internalType": "contract Hub",
          "name": "",
          "type": "address"
        }
      ],
      "stateMutability": "view",
      "type": "function"
    },
    {
      "inputs": [],
      "name": "identityStorage",
      "outputs": [
        {
          "internalType": "contract IdentityStorage",
          "name": "",
          "type": "address"
        }
      ],
      "stateMutability": "view",
      "type": "function"
    },
    {
      "inputs": [],
      "name": "initialize",
      "outputs": [],
      "stateMutability": "nonpayable",
      "type": "function"
    },
    {
      "inputs": [],
      "name": "name",
      "outputs": [
        {
          "internalType": "string",
          "name": "",
          "type": "string"
        }
      ],
      "stateMutability": "pure",
      "type": "function"
    },
    {
      "inputs": [
        {
          "internalType": "uint72",
          "name": "identityId",
          "type": "uint72"
        },
        {
          "internalType": "bytes32",
          "name": "key",
          "type": "bytes32"
        }
      ],
      "name": "removeKey",
      "outputs": [],
      "stateMutability": "nonpayable",
      "type": "function"
    },
    {
      "inputs": [
        {
          "internalType": "bool",
          "name": "_status",
          "type": "bool"
        }
      ],
      "name": "setStatus",
      "outputs": [],
      "stateMutability": "nonpayable",
      "type": "function"
    },
    {
      "inputs": [],
      "name": "status",
      "outputs": [
        {
          "internalType": "bool",
          "name": "",
          "type": "bool"
        }
      ],
      "stateMutability": "view",
      "type": "function"
    },
    {
      "inputs": [],
      "name": "version",
      "outputs": [
        {
          "internalType": "string",
          "name": "",
          "type": "string"
        }
      ],
      "stateMutability": "pure",
      "type": "function"
    }
  ],
  "transactionHash": "0x13b37e1831b1e3836914da01376b7e7c1cbd02e80ab770b142381d638bf776dd",
  "args": [
    "0x224aEC6891d26e994D4Dbf207aE099ca029b3E67"
  ],
  "numDeployments": 1,
  "solcInputHash": "6736b5a2b01ed07b57366e384b7e7c88",
  "bytecode": "0x6080346100bf57601f61114738819003918201601f19168301916001600160401b038311848410176100c4578084926020946040528339810103126100bf57516001600160a01b038116908190036100bf57801561007a57600080546001600160a01b03191691909117905560405161106c90816100db8239f35b60405162461bcd60e51b815260206004820152601960248201527f48756220416464726573732063616e6e6f7420626520307830000000000000006044820152606490fd5b600080fd5b634e487b7160e01b600052604160045260246000fdfe608060408181526004918236101561001657600080fd5b600092833560e01c91826306fdde0314610c0c57508163200d2ed214610be7578163365a86fc14610bbf57816354fd4d5014610b7e5781635c40f6f414610b3d57816367ac664f1461078f5781638129fc1c146106d1578163bee3b94e146104d3578163d10e73ab1461017f578163dc06a39d146100c9575063f11abfd81461009e57600080fd5b346100c557816003193601126100c55760015490516001600160a01b039091168152602090f35b5080fd5b9190503461017157602036600319011261017157826100e6610c91565b6100ee610f91565b6001546001600160a01b031690813b15610171576001600160481b0360248492838751958694859363dc06a39d60e01b855216809a8401525af180156101755761015d575b505051907f8eb76f325ff8b1aeeacdc5189acc141ef54246ceae65dc6d5458e385388472a88383a2f35b61016690610ca7565b610171578238610133565b8280fd5b83513d84823e3d90fd5b8383346100c557806003193601126100c5578235906001600160a01b03808316918284036104ce576024918235938185168086036104ce576101bf610f91565b811561048c57801561044a57146104085760015416815190633f2f9ac560e21b8252602097888382818b865af19283156103fe5788936103bf575b508351898101906bffffffffffffffffffffffff19809860601b1682526014815261022481610cd1565b51902095823b156103bb57845197635f71dca760e11b91828a526001600160481b038616998a85820152898982015260016044820152600160648201528b81608481838a5af180156103b157908c91610399575b50508651908c82019260601b1682526014815261029481610cd1565b51902095833b15610395578690865192835289848401528201526002604482015260016064820152888160848183875af1801561038b57908991610377575b5050813b1561037357835163383a4c6560e11b81529081018581526001600160481b039093166020840152918791839182908490829060400103925af1801561036957859291879161034c575b50507f075aca39edba283f02f8c21a516c19dd1208d3b3d647f7012be49fe0e8dc2fd790519586a48152f35b61035891929350610ca7565b6103655783908588610320565b8480fd5b82513d88823e3d90fd5b8780fd5b61038090610ca7565b61037357878a6102d3565b85513d8b823e3d90fd5b8980fd5b6103a290610ca7565b6103ad578a8d610278565b8a80fd5b88513d8e823e3d90fd5b8880fd5b9092508881813d83116103f7575b6103d78183610ced565b8101031261037357516001600160481b03811681036103735791896101fa565b503d6103cd565b84513d8a823e3d90fd5b815162461bcd60e51b8152602081890152601b818501527f41646d696e2073686f756c6420213d204f7065726174696f6e616c00000000006044820152606490fd5b835162461bcd60e51b81526020818b0152601a818701527f41646d696e20616464726573732063616e2774206265203078300000000000006044820152606490fd5b835162461bcd60e51b81526020818b01819052818701527f4f7065726174696f6e616c20616464726573732063616e2774206265203078306044820152606490fd5b600080fd5b8383346100c55760803660031901126100c5576104ee610c91565b60443593602435916104ff81610e1c565b61050a831515610d2e565b600154845163345914fd60e11b81526001600160481b038316848201908152602081018690526001600160a01b0390921691606090829081906040010381855afa9081156106c7579085918891610696575b5014610653578596819695963b15610645578651635f71dca760e11b81526001600160481b038416858201528560248201528160448201526064356064820152868160848183875af1908115610649578791610631575b50506002146105c157848651f35b803b1561036557855163383a4c6560e11b81529283019384526001600160481b03909116602084015290918391839182908490829060400103925af1801561062457610610575b808080848651f35b61061990610ca7565b6100c5578183610608565b50505051903d90823e3d90fd5b61063a90610ca7565b6106455785896105b3565b8580fd5b88513d89823e3d90fd5b845162461bcd60e51b8152602081850152601760248201527f4b657920697320616c72656164792061747461636865640000000000000000006044820152606490fd5b6106b7915060603d81116106c0575b6106af8183610ced565b810190610d6d565b9150508961055c565b503d6106a5565b86513d89823e3d90fd5b9050346101715782600319360112610171576106eb610eef565b82548251630110ceef60e21b81526020928101839052600f60248201526e4964656e7469747953746f7261676560881b60448201526001600160a01b039290918290606490829086165afa908115610624578491610761575b50166bffffffffffffffffffffffff60a01b600154161760015551f35b610782915060203d8111610788575b61077a8183610ced565b810190610d0f565b38610744565b503d610770565b8383346100c557806003193601126100c5576107a9610c91565b9260249081356107b886610e1c565b6107c3811515610d2e565b600154845163345914fd60e11b81526001600160481b0388168482019081526020810184905290976001600160a01b03909216949190606090899081906040010381885afa80156106c75787988891610b19575b508303610ae257855163238ce1ef60e11b8082526001600160481b0383169081878401526001858401526044928a8185818c5afa908115610abe57906001918c91610ac8575b50511480610a66575b610a255788519081528187820152600285820152898184818b5afa908115610a1b57906001918b916109f9575b5051149081610985575b506109455750843b156109415785516367ac664f60e01b81526001600160481b0390911684820190815260208101849052879082908190604001038183895af180156106c75761092b575b5060028697969596146108fa57848651f35b833b156103655784928387519586948593620ef85560ea1b85528401525af180156106245761061057808080848651f35b956109396002989697610ca7565b9594966108e8565b8680fd5b847f43616e6e6f742064656c65746520746865206f6e6c79206f7065722e206b6579606492602086818c519562461bcd60e51b8752860152840152820152fd5b9050875190631af27dbd60e11b82528682015284848201526002828201526020816064818a5afa9081156109ef5789916109c1575b508a61089d565b6109e2915060203d81116109e8575b6109da8183610ced565b810190610e04565b8a6109ba565b503d6109d0565b88513d8b823e3d90fd5b610a1591503d808d833e610a0d8183610ced565b810190610d88565b8c610893565b89513d8c823e3d90fd5b885162461bcd60e51b81526020818901819052818701527f43616e6e6f742064656c65746520746865206f6e6c792061646d696e206b657981850152606490fd5b508851631af27dbd60e11b8152828882015286868201526001848201526020816064818c5afa908115610abe578b91610aa0575b50610866565b610ab8915060203d81116109e8576109da8183610ced565b8c610a9a565b8a513d8d823e3d90fd5b610adc91503d808e833e610a0d8183610ced565b8d61085d565b855162461bcd60e51b81526020818601526012818401527112d95e481a5cdb89dd08185d1d1858da195960721b6044820152606490fd5b849950610b34915060603d81116106c0576106af8183610ced565b91999050610817565b905034610171576020366003190112610171573580151580910361017157610b63610eef565b825460ff60a01b191660a09190911b60ff60a01b1617825551f35b5050346100c557816003193601126100c5578051610bbb91610b9f82610cd1565b6005825264312e302e3160d81b60208301525191829182610c48565b0390f35b5050346100c557816003193601126100c557905490516001600160a01b039091168152602090f35b5050346100c557816003193601126100c55760ff6020925460a01c1690519015158152f35b84908434610171578260031936011261017157610bbb9250610c2d82610cd1565b60088252674964656e7469747960c01b602083015251918291825b6020808252825181830181905290939260005b828110610c7d57505060409293506000838284010152601f8019910116010190565b818101860151848201604001528501610c5b565b600435906001600160481b03821682036104ce57565b67ffffffffffffffff8111610cbb57604052565b634e487b7160e01b600052604160045260246000fd5b6040810190811067ffffffffffffffff821117610cbb57604052565b90601f8019910116810190811067ffffffffffffffff821117610cbb57604052565b908160209103126104ce57516001600160a01b03811681036104ce5790565b15610d3557565b60405162461bcd60e51b815260206004820152601060248201526f4b65792061726720697320656d70747960801b6044820152606490fd5b908160609103126104ce578051916040602083015192015190565b9060209081838203126104ce57825167ffffffffffffffff938482116104ce570181601f820112156104ce578051938411610cbb578360051b9060405194610dd285840187610ced565b855283808601928201019283116104ce578301905b828210610df5575050505090565b81518152908301908301610de7565b908160209103126104ce575180151581036104ce5790565b60206001600160481b03606460018060a01b036001541693604051848101903360601b825260148152610e4e81610cd1565b519020946040519586948593631af27dbd60e11b85521660048401526024830152600160448301525afa908115610ee357600091610ec5575b5015610e8f57565b60405162461bcd60e51b815260206004820152600e60248201526d20b236b4b710333ab731ba34b7b760911b6044820152606490fd5b610edd915060203d81116109e8576109da8183610ced565b38610e87565b6040513d6000823e3d90fd5b600054604051638da5cb5b60e01b81526001600160a01b03916020908290600490829086165afa908115610ee357600091610f73575b50163303610f2f57565b606460405162461bcd60e51b815260206004820152602060248201527f466e2063616e206f6e6c79206265207573656420627920687562206f776e65726044820152fd5b610f8b915060203d81116107885761077a8183610ced565b38610f25565b600054604051631627905560e01b815233600482015290602090829060249082906001600160a01b03165afa908115610ee357600091611018575b5015610fd457565b606460405162461bcd60e51b815260206004820152602060248201527f466e2063616e206f6e6c792062652063616c6c656420627920746865206875626044820152fd5b611030915060203d81116109e8576109da8183610ced565b38610fcc56fea2646970667358221220e3f285cf2a82440c1507553ba87abba9691c9168c3ce6e18208ca48c22f5a78564736f6c63430008100033",
  "devdoc": {
    "kind": "dev",
    "methods": {},
    "version": 1
  },
  "userdoc": {
    "kind": "user",
    "methods": {},
    "version": 1
  },
  "storageLayout": {
    "storage": [
      {
        "astId": 15408,
        "contract": "contracts/Identity.sol:Identity",
        "label": "hub",
        "offset": 0,
        "slot": "0",
        "type": "t_contract(Hub)9211"
      },
      {
        "astId": 15379,
        "contract": "contracts/Identity.sol:Identity",
        "label": "status",
        "offset": 20,
        "slot": "0",
        "type": "t_bool"
      },
      {
        "astId": 9765,
        "contract": "contracts/Identity.sol:Identity",
        "label": "identityStorage",
        "offset": 0,
        "slot": "1",
        "type": "t_contract(IdentityStorage)18485"
      }
    ],
    "types": {
      "t_bool": {
        "encoding": "inplace",
        "label": "bool",
        "numberOfBytes": "1"
      },
      "t_contract(Hub)9211": {
        "encoding": "inplace",
        "label": "contract Hub",
        "numberOfBytes": "20"
      },
      "t_contract(IdentityStorage)18485": {
        "encoding": "inplace",
        "label": "contract IdentityStorage",
        "numberOfBytes": "20"
      }
    }
  }
}