{
  "address": "0x70fc8cb0F1Cf4a54e5D5Bfaf5A8d5d2C50362dc2",
  "abi": [
    {
      "inputs": [
        {
          "internalType": "address",
          "name": "hubAddress",
          "type": "address"
        }
      ],
      "stateMutability": "nonpayable",
      "type": "constructor"
    },
    {
      "inputs": [
        {
          "internalType": "uint256",
          "name": "x",
          "type": "uint256"
        }
      ],
      "name": "PRBMathUD60x18__LogInputTooSmall",
      "type": "error"
    },
    {
      "inputs": [],
      "name": "a",
      "outputs": [
        {
          "internalType": "uint32",
          "name": "",
          "type": "uint32"
        }
      ],
      "stateMutability": "view",
      "type": "function"
    },
    {
      "inputs": [],
      "name": "b",
      "outputs": [
        {
          "internalType": "uint32",
          "name": "",
          "type": "uint32"
        }
      ],
      "stateMutability": "view",
      "type": "function"
    },
    {
      "inputs": [],
      "name": "c",
      "outputs": [
        {
          "internalType": "uint32",
          "name": "",
          "type": "uint32"
        }
      ],
      "stateMutability": "view",
      "type": "function"
    },
    {
      "inputs": [
        {
          "internalType": "uint8",
          "name": "hashFunctionId",
          "type": "uint8"
        },
        {
          "internalType": "bytes",
          "name": "nodeId",
          "type": "bytes"
        },
        {
          "internalType": "bytes",
          "name": "keyword",
          "type": "bytes"
        }
      ],
      "name": "calculateDistance",
      "outputs": [
        {
          "internalType": "uint256",
          "name": "",
          "type": "uint256"
        }
      ],
      "stateMutability": "view",
      "type": "function"
    },
    {
      "inputs": [
        {
          "internalType": "uint256",
          "name": "distance",
          "type": "uint256"
        },
        {
          "internalType": "uint96",
          "name": "stake",
          "type": "uint96"
        }
      ],
      "name": "calculateScore",
      "outputs": [
        {
          "internalType": "uint40",
          "name": "",
          "type": "uint40"
        }
      ],
      "stateMutability": "view",
      "type": "function"
    },
    {
      "inputs": [],
      "name": "d",
      "outputs": [
        {
          "internalType": "uint32",
          "name": "",
          "type": "uint32"
        }
      ],
      "stateMutability": "view",
      "type": "function"
    },
    {
      "inputs": [],
      "name": "distanceExponent",
      "outputs": [
        {
          "internalType": "uint32",
          "name": "",
          "type": "uint32"
        }
      ],
      "stateMutability": "view",
      "type": "function"
    },
    {
      "inputs": [],
      "name": "distanceMappingCoefficient",
      "outputs": [
        {
          "internalType": "uint256",
          "name": "",
          "type": "uint256"
        }
      ],
      "stateMutability": "view",
      "type": "function"
    },
    {
      "inputs": [],
      "name": "getParameters",
      "outputs": [
        {
          "internalType": "uint256",
          "name": "distanceMapCoefficient",
          "type": "uint256"
        },
        {
          "internalType": "uint96",
          "name": "stakeMapCoefficient",
          "type": "uint96"
        },
        {
          "internalType": "uint32[8]",
          "name": "formulaCoefficients",
          "type": "uint32[8]"
        }
      ],
      "stateMutability": "view",
      "type": "function"
    },
    {
      "inputs": [],
      "name": "hashingProxy",
      "outputs": [
        {
          "internalType": "contract HashingProxy",
          "name": "",
          "type": "address"
        }
      ],
      "stateMutability": "view",
      "type": "function"
    },
    {
      "inputs": [],
      "name": "hub",
      "outputs": [
        {
          "internalType": "contract Hub",
          "name": "",
          "type": "address"
        }
      ],
      "stateMutability": "view",
      "type": "function"
    },
    {
      "inputs": [],
      "name": "id",
      "outputs": [
        {
          "internalType": "uint8",
          "name": "",
          "type": "uint8"
        }
      ],
      "stateMutability": "pure",
      "type": "function"
    },
    {
      "inputs": [],
      "name": "initialize",
      "outputs": [],
      "stateMutability": "nonpayable",
      "type": "function"
    },
    {
      "inputs": [],
      "name": "logArgumentConstant",
      "outputs": [
        {
          "internalType": "uint32",
          "name": "",
          "type": "uint32"
        }
      ],
      "stateMutability": "view",
      "type": "function"
    },
    {
      "inputs": [],
      "name": "multiplier",
      "outputs": [
        {
          "internalType": "uint32",
          "name": "",
          "type": "uint32"
        }
      ],
      "stateMutability": "view",
      "type": "function"
    },
    {
      "inputs": [],
      "name": "name",
      "outputs": [
        {
          "internalType": "string",
          "name": "",
          "type": "string"
        }
      ],
      "stateMutability": "pure",
      "type": "function"
    },
    {
      "inputs": [],
      "name": "parametersStorage",
      "outputs": [
        {
          "internalType": "contract ParametersStorage",
          "name": "",
          "type": "address"
        }
      ],
      "stateMutability": "view",
      "type": "function"
    },
    {
      "inputs": [
        {
          "internalType": "uint32",
          "name": "a_",
          "type": "uint32"
        }
      ],
      "name": "setA",
      "outputs": [],
      "stateMutability": "nonpayable",
      "type": "function"
    },
    {
      "inputs": [
        {
          "internalType": "uint32",
          "name": "b_",
          "type": "uint32"
        }
      ],
      "name": "setB",
      "outputs": [],
      "stateMutability": "nonpayable",
      "type": "function"
    },
    {
      "inputs": [
        {
          "internalType": "uint32",
          "name": "c_",
          "type": "uint32"
        }
      ],
      "name": "setC",
      "outputs": [],
      "stateMutability": "nonpayable",
      "type": "function"
    },
    {
      "inputs": [
        {
          "internalType": "uint32",
          "name": "d_",
          "type": "uint32"
        }
      ],
      "name": "setD",
      "outputs": [],
      "stateMutability": "nonpayable",
      "type": "function"
    },
    {
      "inputs": [
        {
          "internalType": "uint32",
          "name": "distanceExponent_",
          "type": "uint32"
        }
      ],
      "name": "setDistanceExponent",
      "outputs": [],
      "stateMutability": "nonpayable",
      "type": "function"
    },
    {
      "inputs": [
        {
          "internalType": "uint256",
          "name": "distanceRangeMax",
          "type": "uint256"
        }
      ],
      "name": "setDistanceMappingCoefficient",
      "outputs": [],
      "stateMutability": "nonpayable",
      "type": "function"
    },
    {
      "inputs": [
        {
          "internalType": "uint32",
          "name": "logArgumentConstant_",
          "type": "uint32"
        }
      ],
      "name": "setLogArgumentConstant",
      "outputs": [],
      "stateMutability": "nonpayable",
      "type": "function"
    },
    {
      "inputs": [
        {
          "internalType": "uint32",
          "name": "multiplier_",
          "type": "uint32"
        }
      ],
      "name": "setMultiplier",
      "outputs": [],
      "stateMutability": "nonpayable",
      "type": "function"
    },
    {
      "inputs": [
        {
          "internalType": "uint32",
          "name": "stakeExponent_",
          "type": "uint32"
        }
      ],
      "name": "setStakeExponent",
      "outputs": [],
      "stateMutability": "nonpayable",
      "type": "function"
    },
    {
      "inputs": [
        {
          "internalType": "uint96",
          "name": "stakeRangeMax_",
          "type": "uint96"
        }
      ],
      "name": "setStakeRangeMax",
      "outputs": [],
      "stateMutability": "nonpayable",
      "type": "function"
    },
    {
      "inputs": [],
      "name": "stakeExponent",
      "outputs": [
        {
          "internalType": "uint32",
          "name": "",
          "type": "uint32"
        }
      ],
      "stateMutability": "view",
      "type": "function"
    },
    {
      "inputs": [],
      "name": "stakeRangeMax",
      "outputs": [
        {
          "internalType": "uint96",
          "name": "",
          "type": "uint96"
        }
      ],
      "stateMutability": "view",
      "type": "function"
    }
  ],
  "transactionHash": "0xb4312de82be9147a4f7d470dd4f59167b55b96f096a09f3f5a5032c3567f64fa",
  "args": [
    "0x224aEC6891d26e994D4Dbf207aE099ca029b3E67"
  ],
  "numDeployments": 1,
  "solcInputHash": "6736b5a2b01ed07b57366e384b7e7c88",
  "bytecode": "0x60803461011a57601f61135338819003918201601f19168301916001600160401b0383118484101761011f5780849260209460405283398101031261011a57516001600160a01b0381169081900361011a5780156100d557600080546001600160a01b0319169190911790557e4189374bc6a7ef9db22d0e5604189374bc6a7ef9db22d0e5604189374bc6a76003557801000000010000000100002710000000000000000000030d40600455600580546001600160601b0319166801000000020000000117905560405161121d90816101368239f35b60405162461bcd60e51b815260206004820152601960248201527f48756220416464726573732063616e6e6f7420626520307830000000000000006044820152606490fd5b600080fd5b634e487b7160e01b600052604160045260246000fdfe608060408181526004918236101561001657600080fd5b60009260e08435811c92836306fdde0314610c74575082630c5ccf5714610c285782630dbe671f14610c005782631051e18f14610bd857826311c94ee814610bae5782631b3ed72214610b86578263274e196214610a31578263365a86fc14610a0857826339581169146109bc5782634212a54e146109805782634df7e3d0146109605782634f10335314610912578263639a86a3146108e85782636b9f85ef146108a25782637525e9e81461085457826375a146cb1461082d57826380f65fda146107ea5782638129fc1c1461069f5782638a054ac214610678578263a0db80ad14610489578263a5ea11da1461030157508163af640d0f146102e5578163bd8aad271461029a578163c3da42b814610275578163df6ccca014610226578163e4e74e89146101ff578163ecfb34bf146101b1578163ee8a523d14610187575063f1cee31e1461016657600080fd5b346101835781600319360112610183576020906003549051908152f35b5080fd5b8284346101ae57806003193601126101ae575063ffffffff6020925460801c169051908152f35b80fd5b9050346101fb5760203660031901126101fb573563ffffffff811681036101fb576101da610d9c565b63ffffffff60401b60055491831b169063ffffffff60401b19161760055551f35b8280fd5b8284346101ae57806003193601126101ae57506001600160601b0360209254169051908152f35b9050346101fb5760203660031901126101fb57803563ffffffff8116810361027157610250610d9c565b815463ffffffff60601b191660609190911b63ffffffff60601b1617905551f35b8380fd5b50503461018357816003193601126101835760209063ffffffff600554169051908152f35b9050346101fb5760203660031901126101fb57803563ffffffff81168103610271576102c4610d9c565b815463ffffffff60a01b191660a09190911b63ffffffff60a01b1617905551f35b5050346101835781600319360112610183576020905160018152f35b915092346101ae57806003193601126101ae57825167ffffffffffffffff9361010091828101868111828210176104765782528290369037600354600254825163b5c6b45360e01b81529197602096909187908490849082906001600160a01b03165afa92831561046c57869361043d575b5081549761038c6001600160601b0394858b1690610e89565b928551968701918783109083111761042a5750849695965263ffffffff97888160601c168752888160801c1688880152888160a01c1685880152888160c01c166060880152811c60808701528760055481811660a089015281818a1c1660c0890152851c16908601528251978852168487015285019190915b600883106104135761014086f35b838060019287855116815201920192019190610405565b634e487b7160e01b885260419052602487fd5b61045e919350873d8911610465575b6104568183610d45565b810190610e6a565b9138610373565b503d61044c565b84513d88823e3d90fd5b634e487b7160e01b855260418852602485fd5b915092346101ae57826003193601126101ae576024356001600160601b039182821682036101ae57908592916104c26003548535610e4a565b600254875163b5c6b45360e01b81529591939160209187919082906001600160a01b03165afa94851561066e57829561064a575b506105109061050a89549686881690610e89565b90610e89565b9063ffffffff93848660801c169367ffffffffffffffff93670de0b6b3a7640000988686048a11871515166106375783610558898b60a01c1693828b8d60c01c169116610ea1565b169082850482118315151661062457908985921c92021601828111610611578216926412725dd1d284116001166105fe57506105e688956105f59560209a6105de8d9b978b976105d58e64ffffffffff9e6105eb9a6105cc6105c46005549260208486911c1690610f84565b838316611015565b921c1690611028565b91840216610e4a565b920216611028565b611035565b9160601c16611015565b04169051908152f35b634e487b7160e01b815260118b52602490fd5b634e487b7160e01b845260118b52602484fd5b634e487b7160e01b865260118d52602486fd5b634e487b7160e01b855260118c52602485fd5b6105109195506106679060203d8111610465576104568183610d45565b94906104f6565b87513d84823e3d90fd5b505050346101835781600319360112610183576005548151911c63ffffffff168152602090f35b509050346101fb57826003193601126101fb576106ba610d9c565b82548251630110ceef60e21b8082526020848301819052600c60248401526b48617368696e6750726f787960a01b604484015291936001600160a01b039390919084168386606481845afa9586156107e05788966107b6575b509160648493928493876001600160601b0360a01b99168960015416176001558951958694859384528301526011602483015270506172616d657465727353746f7261676560781b60448301525afa9182156107ac57869261077f575b50501690600254161760025551f35b61079e9250803d106107a5575b6107968183610d45565b810190610d7d565b3880610770565b503d61078c565b85513d88823e3d90fd5b849391965083926107d5606492853d87116107a5576107968183610d45565b979294509250610713565b87513d8a823e3d90fd5b509050346101fb5760203660031901126101fb57803590610809610d9c565b811561081a57506000190460035551f35b634e487b7160e01b845260129052602483fd5b505050346101835781600319360112610183576005549051602091821c63ffffffff168152f35b509050346101fb5760203660031901126101fb573563ffffffff811681036101fb5761087e610d9c565b67ffffffff000000006005549160201b169067ffffffff0000000019161760055551f35b509050346101fb5760203660031901126101fb5780356001600160601b038116809103610271576108d1610d9c565b81546bffffffffffffffffffffffff191617905551f35b5050503461018357816003193601126101835760025490516001600160a01b039091168152602090f35b909150346102715760203660031901126102715781359063ffffffff8216820361095c5761093e610d9c565b82546001600160e01b031691901b6001600160e01b03191617905551f35b8480fd5b9150346102715783600319360112610271576020935054901c9051908152f35b509050346101fb5760203660031901126101fb573563ffffffff81168091036101fb576109ab610d9c565b63ffffffff19600554161760055551f35b509050346101fb5760203660031901126101fb57803563ffffffff81168103610271576109e7610d9c565b815463ffffffff60c01b191660c09190911b63ffffffff60c01b1617905551f35b50505034610183578160031936011261018357905490516001600160a01b039091168152602090f35b838286346101ae5760603660031901126101ae5781359260ff841684036101835767ffffffffffffffff9260243584811161027157610a739036908301610d12565b95909460443590811161095c57610a8d9036908401610d12565b95909260018060a01b0360015416918551976345ed59e560e01b91828a528980610abe60209d8e948a8985016111b6565b0381875afa9889156107e057908a9594939291899a610b47575b50610aef90885197889687958695865285016111b6565b03915afa928315610b3c578093610b0a575b50505191188152f35b909192508482813d8311610b35575b610b238183610d45565b810103126101ae575051908480610b01565b503d610b19565b8251903d90823e3d90fd5b86819394959697929b503d8311610b7f575b610b638183610d45565b81010312610b7b575197899493929190610aef610ad8565b8780fd5b503d610b59565b508284346101ae57806003193601126101ae575063ffffffff6020925460601c169051908152f35b5050503461018357816003193601126101835760015490516001600160a01b039091168152602090f35b508284346101ae57806003193601126101ae575063ffffffff6020925460c01c169051908152f35b508284346101ae57806003193601126101ae575063ffffffff6020925460a01c169051908152f35b509050346101fb5760203660031901126101fb57803563ffffffff8116810361027157610c53610d9c565b815463ffffffff60801b191660809190911b63ffffffff60801b1617905551f35b925050346102715783600319360112610271578282019082821067ffffffffffffffff831117610cff5750825260098152602090682637b39928262229a360b91b8282015282519382859384528251928382860152825b848110610ce957505050828201840152601f01601f19168101030190f35b8181018301518882018801528795508201610ccb565b634e487b7160e01b855260419052602484fd5b9181601f84011215610d405782359167ffffffffffffffff8311610d405760208381860195010111610d4057565b600080fd5b90601f8019910116810190811067ffffffffffffffff821117610d6757604052565b634e487b7160e01b600052604160045260246000fd5b90816020910312610d4057516001600160a01b0381168103610d405790565b600054604051638da5cb5b60e01b81526001600160a01b03916020908290600490829086165afa908115610e3e57600091610e20575b50163303610ddc57565b606460405162461bcd60e51b815260206004820152602060248201527f466e2063616e206f6e6c79206265207573656420627920687562206f776e65726044820152fd5b610e38915060203d81116107a5576107968183610d45565b38610dd2565b6040513d6000823e3d90fd5b8115610e54570490565b634e487b7160e01b600052601260045260246000fd5b90816020910312610d4057516001600160601b0381168103610d405790565b906001600160601b03809116918215610e5457160490565b908015610f7d578115610f76578180600114610f6e57600214610f4f5760208110610133831016604e8210600b84101617610f3c57600190815b808211610f0e575050816001600160601b03048111610ef8570290565b634e487b7160e01b600052601160045260246000fd5b9092806001600160601b03048111610ef857818416610f33575b800292811c90610edb565b80920291610f28565b900a906001600160601b038211610ef857565b905060ff8111610ef8576001901b906001600160601b038211610ef857565b505050600190565b5050600090565b5050600190565b908015610f7d578115610f76578180600114610f6e576002146110045760208110610133831016604e8210600b84101617610fff57600190815b808211610fd657505081600019048111610ef8570290565b909280600019048111610ef857818416610ff6575b800292811c90610fbe565b80920291610feb565b900a90565b905060ff8111610ef8576001901b90565b8060001904821181151516610ef8570290565b91908201809211610ef857565b90670de0b6b3a764000080831061119d57600092818104600160801b811015611192575b6801000000000000000081101561117d575b640100000000811015611168575b62010000811015611153575b61010081101561113e575b6010811015611129575b6004811015611114575b60021115611102575b818402931c908082146110fe576706f05b59d3b2000091825b6110cf57505050565b808291020491671bc16d674ec800008310156110f0575b60011c91826110c6565b809294019360011c916110e6565b5050565b9260018101809111610ef857926110ad565b60021c9360028101809111610ef857936110a4565b60041c9360048101809111610ef8579361109a565b60081c9360088101809111610ef85793611090565b60101c9360108101809111610ef85793611085565b60201c9360208101809111610ef85793611079565b60401c9360408101809111610ef8579361106b565b60809450841c611059565b604051633621413760e21b815260048101849052602490fd5b919260609360ff829316845260406020850152816040850152848401376000828201840152601f01601f191601019056fea264697066735822122050e66f1a6583fb3e5566880beed01e0fdfc392c73e66220bad086c553e72750364736f6c63430008100033",
  "devdoc": {
    "kind": "dev",
    "methods": {},
    "version": 1
  },
  "userdoc": {
    "errors": {
      "PRBMathUD60x18__LogInputTooSmall(uint256)": [
        {
          "notice": "Emitted when the input is less than 1."
        }
      ]
    },
    "kind": "user",
    "methods": {},
    "version": 1
  },
  "storageLayout": {
    "storage": [
      {
        "astId": 15408,
        "contract": "contracts/scoring/log2pldsf.sol:Log2PLDSF",
        "label": "hub",
        "offset": 0,
        "slot": "0",
        "type": "t_contract(Hub)9211"
      },
      {
        "astId": 17512,
        "contract": "contracts/scoring/log2pldsf.sol:Log2PLDSF",
        "label": "hashingProxy",
        "offset": 0,
        "slot": "1",
        "type": "t_contract(HashingProxy)8950"
      },
      {
        "astId": 17515,
        "contract": "contracts/scoring/log2pldsf.sol:Log2PLDSF",
        "label": "parametersStorage",
        "offset": 0,
        "slot": "2",
        "type": "t_contract(ParametersStorage)19108"
      },
      {
        "astId": 17517,
        "contract": "contracts/scoring/log2pldsf.sol:Log2PLDSF",
        "label": "distanceMappingCoefficient",
        "offset": 0,
        "slot": "3",
        "type": "t_uint256"
      },
      {
        "astId": 17519,
        "contract": "contracts/scoring/log2pldsf.sol:Log2PLDSF",
        "label": "stakeRangeMax",
        "offset": 0,
        "slot": "4",
        "type": "t_uint96"
      },
      {
        "astId": 17521,
        "contract": "contracts/scoring/log2pldsf.sol:Log2PLDSF",
        "label": "multiplier",
        "offset": 12,
        "slot": "4",
        "type": "t_uint32"
      },
      {
        "astId": 17523,
        "contract": "contracts/scoring/log2pldsf.sol:Log2PLDSF",
        "label": "logArgumentConstant",
        "offset": 16,
        "slot": "4",
        "type": "t_uint32"
      },
      {
        "astId": 17525,
        "contract": "contracts/scoring/log2pldsf.sol:Log2PLDSF",
        "label": "a",
        "offset": 20,
        "slot": "4",
        "type": "t_uint32"
      },
      {
        "astId": 17527,
        "contract": "contracts/scoring/log2pldsf.sol:Log2PLDSF",
        "label": "stakeExponent",
        "offset": 24,
        "slot": "4",
        "type": "t_uint32"
      },
      {
        "astId": 17529,
        "contract": "contracts/scoring/log2pldsf.sol:Log2PLDSF",
        "label": "b",
        "offset": 28,
        "slot": "4",
        "type": "t_uint32"
      },
      {
        "astId": 17531,
        "contract": "contracts/scoring/log2pldsf.sol:Log2PLDSF",
        "label": "c",
        "offset": 0,
        "slot": "5",
        "type": "t_uint32"
      },
      {
        "astId": 17533,
        "contract": "contracts/scoring/log2pldsf.sol:Log2PLDSF",
        "label": "distanceExponent",
        "offset": 4,
        "slot": "5",
        "type": "t_uint32"
      },
      {
        "astId": 17535,
        "contract": "contracts/scoring/log2pldsf.sol:Log2PLDSF",
        "label": "d",
        "offset": 8,
        "slot": "5",
        "type": "t_uint32"
      }
    ],
    "types": {
      "t_contract(HashingProxy)8950": {
        "encoding": "inplace",
        "label": "contract HashingProxy",
        "numberOfBytes": "20"
      },
      "t_contract(Hub)9211": {
        "encoding": "inplace",
        "label": "contract Hub",
        "numberOfBytes": "20"
      },
      "t_contract(ParametersStorage)19108": {
        "encoding": "inplace",
        "label": "contract ParametersStorage",
        "numberOfBytes": "20"
      },
      "t_uint256": {
        "encoding": "inplace",
        "label": "uint256",
        "numberOfBytes": "32"
      },
      "t_uint32": {
        "encoding": "inplace",
        "label": "uint32",
        "numberOfBytes": "4"
      },
      "t_uint96": {
        "encoding": "inplace",
        "label": "uint96",
        "numberOfBytes": "12"
      }
    }
  }
}