{
  "address": "0x420c3d9CD8304f82284B16C5cF6558028B41eADc",
  "abi": [
    {
      "inputs": [
        {
          "internalType": "address",
          "name": "hubAddress",
          "type": "address"
        }
      ],
      "stateMutability": "nonpayable",
      "type": "constructor"
    },
    {
      "anonymous": false,
      "inputs": [
        {
          "indexed": true,
          "internalType": "uint72",
          "name": "identityId",
          "type": "uint72"
        },
        {
          "indexed": false,
          "internalType": "bytes",
          "name": "nodeId",
          "type": "bytes"
        },
        {
          "indexed": false,
          "internalType": "uint96",
          "name": "ask",
          "type": "uint96"
        }
      ],
      "name": "AskUpdated",
      "type": "event"
    },
    {
      "anonymous": false,
      "inputs": [
        {
          "indexed": true,
          "internalType": "uint72",
          "name": "identityId",
          "type": "uint72"
        },
        {
          "indexed": false,
          "internalType": "bytes",
          "name": "nodeId",
          "type": "bytes"
        }
      ],
      "name": "ProfileCreated",
      "type": "event"
    },
    {
      "anonymous": false,
      "inputs": [
        {
          "indexed": true,
          "internalType": "uint72",
          "name": "identityId",
          "type": "uint72"
        }
      ],
      "name": "ProfileDeleted",
      "type": "event"
    },
    {
      "inputs": [
        {
          "internalType": "address",
          "name": "adminWallet",
          "type": "address"
        },
        {
          "internalType": "bytes",
          "name": "nodeId",
          "type": "bytes"
        },
        {
          "internalType": "string",
          "name": "sharesTokenName",
          "type": "string"
        },
        {
          "internalType": "string",
          "name": "sharesTokenSymbol",
          "type": "string"
        }
      ],
      "name": "createProfile",
      "outputs": [],
      "stateMutability": "nonpayable",
      "type": "function"
    },
    {
      "inputs": [],
      "name": "hashingProxy",
      "outputs": [
        {
          "internalType": "contract HashingProxy",
          "name": "",
          "type": "address"
        }
      ],
      "stateMutability": "view",
      "type": "function"
    },
    {
      "inputs": [],
      "name": "hub",
      "outputs": [
        {
          "internalType": "contract Hub",
          "name": "",
          "type": "address"
        }
      ],
      "stateMutability": "view",
      "type": "function"
    },
    {
      "inputs": [],
      "name": "identityContract",
      "outputs": [
        {
          "internalType": "contract Identity",
          "name": "",
          "type": "address"
        }
      ],
      "stateMutability": "view",
      "type": "function"
    },
    {
      "inputs": [],
      "name": "identityStorage",
      "outputs": [
        {
          "internalType": "contract IdentityStorage",
          "name": "",
          "type": "address"
        }
      ],
      "stateMutability": "view",
      "type": "function"
    },
    {
      "inputs": [],
      "name": "initialize",
      "outputs": [],
      "stateMutability": "nonpayable",
      "type": "function"
    },
    {
      "inputs": [],
      "name": "name",
      "outputs": [
        {
          "internalType": "string",
          "name": "",
          "type": "string"
        }
      ],
      "stateMutability": "pure",
      "type": "function"
    },
    {
      "inputs": [],
      "name": "parametersStorage",
      "outputs": [
        {
          "internalType": "contract ParametersStorage",
          "name": "",
          "type": "address"
        }
      ],
      "stateMutability": "view",
      "type": "function"
    },
    {
      "inputs": [],
      "name": "profileStorage",
      "outputs": [
        {
          "internalType": "contract ProfileStorage",
          "name": "",
          "type": "address"
        }
      ],
      "stateMutability": "view",
      "type": "function"
    },
    {
      "inputs": [
        {
          "internalType": "uint72",
          "name": "identityId",
          "type": "uint72"
        },
        {
          "internalType": "uint96",
          "name": "ask",
          "type": "uint96"
        }
      ],
      "name": "setAsk",
      "outputs": [],
      "stateMutability": "nonpayable",
      "type": "function"
    },
    {
      "inputs": [
        {
          "internalType": "bool",
          "name": "_status",
          "type": "bool"
        }
      ],
      "name": "setStatus",
      "outputs": [],
      "stateMutability": "nonpayable",
      "type": "function"
    },
    {
      "inputs": [
        {
          "internalType": "uint72",
          "name": "identityId",
          "type": "uint72"
        }
      ],
      "name": "stakeAccumulatedOperatorFee",
      "outputs": [],
      "stateMutability": "nonpayable",
      "type": "function"
    },
    {
      "inputs": [],
      "name": "stakingContract",
      "outputs": [
        {
          "internalType": "contract Staking",
          "name": "",
          "type": "address"
        }
      ],
      "stateMutability": "view",
      "type": "function"
    },
    {
      "inputs": [
        {
          "internalType": "uint72",
          "name": "identityId",
          "type": "uint72"
        }
      ],
      "name": "startAccumulatedOperatorFeeWithdrawal",
      "outputs": [],
      "stateMutability": "nonpayable",
      "type": "function"
    },
    {
      "inputs": [],
      "name": "status",
      "outputs": [
        {
          "internalType": "bool",
          "name": "",
          "type": "bool"
        }
      ],
      "stateMutability": "view",
      "type": "function"
    },
    {
      "inputs": [],
      "name": "version",
      "outputs": [
        {
          "internalType": "string",
          "name": "",
          "type": "string"
        }
      ],
      "stateMutability": "pure",
      "type": "function"
    },
    {
      "inputs": [],
      "name": "whitelistStorage",
      "outputs": [
        {
          "internalType": "contract WhitelistStorage",
          "name": "",
          "type": "address"
        }
      ],
      "stateMutability": "view",
      "type": "function"
    },
    {
      "inputs": [
        {
          "internalType": "uint72",
          "name": "identityId",
          "type": "uint72"
        }
      ],
      "name": "withdrawAccumulatedOperatorFee",
      "outputs": [],
      "stateMutability": "nonpayable",
      "type": "function"
    }
  ],
  "transactionHash": "0x18e04f7dceeef8563949bdb34062066d18722708bc3190e73a46da2cff01f979",
  "args": [
    "0x224aEC6891d26e994D4Dbf207aE099ca029b3E67"
  ],
  "numDeployments": 1,
  "solcInputHash": "6736b5a2b01ed07b57366e384b7e7c88",
  "bytecode": "0x6080346100bf57601f61321238819003918201601f19168301916001600160401b038311848410176100c4578084926020946040528339810103126100bf57516001600160a01b038116908190036100bf57801561007a57600080546001600160a01b03191691909117905560405161313790816100db8239f35b60405162461bcd60e51b815260206004820152601960248201527f48756220416464726573732063616e6e6f7420626520307830000000000000006044820152606490fd5b600080fd5b634e487b7160e01b600052604160045260246000fdfe608060405260043610156200001357600080fd5b6000803560e01c8063051785f61462001b2257806306fdde031462001ad457806311c94ee81462001aa9578063200d2ed21462001a82578063365a86fc1462001a5957806354fd4d501462001a095780635c40f6f414620019c0578063639a86a3146200199557806367031bae146200196a5780638129fc1c146200153757806385404ed114620012bc5780639e2469ec1462001291578063a1e344d01462000fa1578063d184a8691462000c98578063dbab8cd61462000179578063ee99205c146200014e578063f11abfd814620001235763f42cb03814620000f657600080fd5b3462000120578060031936011262000120576006546040516001600160a01b039091168152602090f35b80fd5b503462000120578060031936011262000120576004546040516001600160a01b039091168152602090f35b503462000120578060031936011262000120576003546040516001600160a01b039091168152602090f35b5034620001205760803660031901126200012057600435906001600160a01b038216820362000120576024356001600160401b03811162000c9457620001c490369060040162001cd3565b90926044356001600160401b03811162000c9057620001e890369060040162001cd3565b6064356001600160401b03811162000c8c576200020a90369060040162001cd3565b600754604051635b0c29eb60e01b81526001600160a01b0390911690602081600481855afa908115620009b557899162000c68575b5062000bc3575b506004805460065460405163010cf48d60e71b815233938101939093526001600160a01b0390811696929160209183916024918391165afa908115620009b557906001600160481b03918a9162000b9f575b501662000b5a57861562000b1c5760405163947bb61560e01b81526020600482018190528180620002ce602482018c8f62001dc1565b0381895afa908115620009b557899162000af8575b5062000ab357604051602081019085838337620003106020828881018d8382015203808452018262001d4f565b519020604051898152620003248162001d33565b602081519101201462000a6e57604051602081019083858337620003586020828681018d8382015203808452018262001d4f565b5190206040518981526200036c8162001d33565b602081519101201462000a295760405163cbb12bed60e01b81526020600482018190528180620003a160248201898762001dc1565b0381895afa908115620009b557899162000a05575b50620009c057604051637208606b60e11b81526020600482018190528180620003e460248201878962001dc1565b0381895afa908115620009b55789916200097f575b506200093a5760025460405163d10e73ab60e01b81523360048201526001600160a01b03978816602482015296602091889160449183918d91165af19586156200092f578896620008f7575b50875460405194906001600160a01b03166001600160401b036110998701908111908711176200087557859492620004b694926200049f926110996200206989396110998801908152606060208201819052019162001dc1565b916110998501830360406110998701015262001dc1565b039085f0908115620008e857803b15620008f35760405163dc827de960e01b81526001600160481b038416600482015260606024820152918591839182908490829062000508606483018b8e62001dc1565b6001600160a01b03909116604483015203925af18015620008e857908491620008cc575b50506006546001546040516320e085cd60e11b81526001600160481b03841660048201526001600160a01b039182169492909116918582602481865afa918215620008c157869262000898575b50604051635ac55ea360e11b8152908682600481895afa9182156200088d5787926200073a575b50815190875b60ff811683811015620006e95784511115620006d55760ff6020611fe08360051b168601015151166040516345ed59e560e01b81528160048201526040602482015260208180620005fb604482018b62001cac565b03818d5afa908115620006ca578b9162000692575b50873b156200068e576040519163efe0aa2d60e01b83526001600160481b038a166004840152602483015260448201528981606481838b5af180156200068357908a9162000667575b505060010160ff16620005a6565b620006729062001d03565b6200067f57883862000659565b8880fd5b6040513d8c823e3d90fd5b8a80fd5b90506020813d602011620006c1575b81620006b06020938362001d4f565b810103126200068e57513862000610565b3d9150620006a1565b6040513d8d823e3d90fd5b634e487b7160e01b89526032600452602489fd5b5088827f1e1141aabf8a6876b928816de88db5e6ba4ba57cdb2f84229da1cc8e020d3e1c6001600160481b038a620007328f604051938493602085521695602084019162001dc1565b0390a2604051f35b9091503d8088833e6200074e818362001d4f565b602082828101031262000889578151906001600160401b0382116200067f57808301601f8385010112156200067f5781830151906001600160401b038211620008755760405193620007a760208460051b018662001d4f565b828552602085019382820160208560061b8385010101116200087157602081830101945b60208560061b83850101018610620007eb575050505050509038620005a0565b60408685850103126200086d576040518060408101106001600160401b03604083011117620008575760408101604052865160ff811681036200085357602093928285926040945262000840838b0162001d71565b83820152815201960195909150620007cb565b8e80fd5b634e487b7160e01b600052604160045260246000fd5b8c80fd5b8b80fd5b634e487b7160e01b8a52604160045260248afd5b8780fd5b6040513d89823e3d90fd5b620008b99192503d8088833e620008b0818362001d4f565b81019062001de2565b903862000579565b6040513d88823e3d90fd5b620008d79062001d03565b620008e45782386200052c565b8280fd5b6040513d86823e3d90fd5b8480fd5b6200091f91965060203d60201162000927575b62000916818362001d4f565b81019062001d86565b943862000445565b503d6200090a565b6040513d8a823e3d90fd5b60405162461bcd60e51b815260206004820152601d60248201527f546f6b656e2073796d626f6c20697320616c72656164792074616b656e0000006044820152606490fd5b620009a6915060203d602011620009ad575b6200099d818362001d4f565b81019062001da7565b38620003f9565b503d62000991565b6040513d8b823e3d90fd5b60405162461bcd60e51b815260206004820152601b60248201527f546f6b656e206e616d6520697320616c72656164792074616b656e00000000006044820152606490fd5b62000a22915060203d602011620009ad576200099d818362001d4f565b38620003b6565b60405162461bcd60e51b815260206004820152601c60248201527f546f6b656e2073796d626f6c2063616e6e6f7420626520656d707479000000006044820152606490fd5b60405162461bcd60e51b815260206004820152601a60248201527f546f6b656e206e616d652063616e6e6f7420626520656d7074790000000000006044820152606490fd5b60405162461bcd60e51b815260206004820152601d60248201527f4e6f646520494420697320616c726561647920726567697374657265640000006044820152606490fd5b62000b15915060203d602011620009ad576200099d818362001d4f565b38620002e3565b60405162461bcd60e51b81526020600482015260166024820152754e6f64652049442063616e277420626520656d70747960501b6044820152606490fd5b60405162461bcd60e51b815260206004820152601760248201527f4964656e7469747920616c7265616479206578697374730000000000000000006044820152606490fd5b62000bbc915060203d602011620009275762000916818362001d4f565b3862000298565b602060249160405192838092636c9b2a3f60e11b82523360048301525afa9081156200092f57889162000c44575b501562000bff573862000246565b60405162461bcd60e51b815260206004820152601960248201527f416464726573732069736e27742077686974656c6973746564000000000000006044820152606490fd5b62000c61915060203d602011620009ad576200099d818362001d4f565b3862000bf1565b62000c85915060203d602011620009ad576200099d818362001d4f565b386200023f565b8580fd5b8380fd5b5080fd5b503462000120576040366003190112620001205762000cb662001c6b565b6024908135916001600160601b03831691828403620008f35760018060a01b0390816004541694604051926020938481013360601b918282526014815262000cfe8162001d17565b51902097604051631af27dbd60e11b8082526001600160481b0387169a8b600484015289830152600160448301528782606481865afa93841562000f965788928d9562000f72575b50841562000ef5575b505050501562000eb157851562000e7b57908792916006541691823b1562000c905760405163d184a86960e01b81526001600160481b039190911660048201526001600160601b03919091166024820152828160448183865af190811562000e7057839162000e58575b5050604051938480926320e085cd60e11b82528860048301525afa90811562000e4d577f49030f1a1927583e71883baca5a4776a7878294f0f0e1e1788734a335d0dfe7f9362000e2193879362000e2d575b5060405193849360408552604085019062001cac565b918301520390a2604051f35b62000e459193503d8089833e620008b0818362001d4f565b913862000e0b565b6040513d87823e3d90fd5b62000e639062001d03565b62000c9457813862000db9565b6040513d85823e3d90fd5b60405162461bcd60e51b815260048101859052600f818701526e041736b2063616e6e6f74206265203608c1b6044820152606490fd5b60405162461bcd60e51b815260048101859052601f818701527f466e2063616e2062652075736564206f6e6c79206279206964206f776e6572006044820152606490fd5b606491929394506040518481019182526014815262000f148162001d17565b51902091604051948593849283528d60048401528b830152600260448301525afa908115620009b557899162000f50575b503885818062000d4f565b62000f6b9150853d8711620009ad576200099d818362001d4f565b3862000f45565b62000f8e919550833d8511620009ad576200099d818362001d4f565b933862000d46565b6040513d8e823e3d90fd5b5034620001205760209081600319360112620001205762000fc162001c6b565b9162000fcd8362001ec4565b600654604051636095a63b60e11b81526001600160481b038516600482018190526024956001600160a01b0393841694919391929083828981895afa9182156200088d5787926200126d575b506001600160601b038092166200103281151562001e77565b863b1562000889576040516368751ff760e11b8152866004820152888a8201528881604481838c5af18015620009b55790899162001255575b505060405163e6c79da560e01b81526004810187905285818b818b5afa908115620009b5579084918a9162001221575b5016019182116200120e57853b156200120a5760405163eb2145e360e01b81526001600160481b039190911660048201526001600160601b03919091166024820152858160448183895af18015620008c157908691620011f2575b50509080600492600554166040519384809263151db1b960e01b82525afa90811562000e4d578591620011ae575b5062ffffff9150164201918242116200119a57938484953b15620008f35784928360449260405196879586946315aaf86160e21b865260048601528401525af180156200118f5762001177575b50604051f35b620011829062001d03565b6200012057803862001171565b6040513d84823e3d90fd5b5050634e487b7160e01b8252506011600452fd5b905081813d8311620011ea575b620011c7818362001d4f565b8101031262000c90575162ffffff8116810362000c905762ffffff903862001124565b503d620011bb565b620011fd9062001d03565b620008f3578438620010f6565b8680fd5b634e487b7160e01b875260116004528787fd5b620012469150873d89116200124d575b6200123d818362001d4f565b81019062001e56565b386200109b565b503d62001231565b620012609062001d03565b620008895787386200106b565b62001289919250843d86116200124d576200123d818362001d4f565b903862001019565b503462000120578060031936011262000120576007546040516001600160a01b039091168152602090f35b50346200012057602090816003193601126200012057620012dc62001c6b565b620012e78162001ec4565b60018060a01b0360065416906001600160481b036040519163e6c79da560e01b8352169384600483015260249181818481875afa90811562000e4d57906001600160601b0391869162001515575b5016908115620014d357604051631913cd5560e01b81526004810187905281818581885afa908115620008c1578691620014a0575b504211156200145d57508394833b15620008f35760405163eb2145e360e01b81528160048201528584820152858160448183895af1908115620008c157869162001445575b5050833b15620008f357604051906315aaf86160e21b825260048201528483820152848160448183885af190811562000e4d5785916200142d575b5050823b15620014285760448492836040519586948593632ea7919360e21b85523360048601528401525af180156200118f57620011775750604051f35b505050fd5b620014389062001d03565b62001428578338620013ea565b620014509062001d03565b620008f3578438620013af565b606490601e846040519262461bcd60e51b845260048401528201527f5769746864726177616c20706572696f64206861736e277420656e64656400006044820152fd5b90508181813d8311620014cb575b620014ba818362001d4f565b8101031262000c8c5751386200136a565b503d620014ae565b826064916040519162461bcd60e51b83528160048401528201527f5769746864726177616c206861736e2774206265656e20696e697469617465646044820152fd5b620015309150833d85116200124d576200123d818362001d4f565b3862001335565b503462000120578060031936011262000120576200155462001fa1565b60018060a01b03808254169060405191630110ceef60e21b8084526020918260048601526024600c818701526044926b48617368696e6750726f787960a01b8488015260649085888381875afa978815620009b55789986200192b575b50866001600160601b0360a01b9816886001541617600155604051818152866004820152600884820152674964656e7469747960c01b8682015286818481885afa8015620006835788918b91620018eb575b5016886002541617600255604051818152866004820152600784820152665374616b696e6760c81b8682015286818481885afa8015620006835788918b91620018ab575b5016886003541617600355604051818152866004820152600f848201526e4964656e7469747953746f7261676560881b8682015286818481885afa8015620006835788918b916200186b575b501688600454161760045560405181815286600482015260118482015270506172616d657465727353746f7261676560781b8682015286818481885afa8015620006835788918b916200182b575b501688600554161760055560405193818552866004860152600e848601526d50726f66696c6553746f7261676560901b8686015286858481845afa9485156200068357879589918c91620017cb575b50966f57686974656c69737453746f7261676560801b91601098168b6006541617600655604051978896879586528860048701528501528301525afa91821562000e4d5785926200178d575b505016906007541617600755604051f35b90809250813d8311620017c3575b620017a7818362001d4f565b8101031262000c9057620017bb9062001d71565b38806200177c565b503d6200179b565b97968092508891503d831162001823575b620017e8818362001d4f565b810103126200181f576f57686974656c69737453746f7261676560801b8795896200181560109962001d71565b9198509162001730565b8980fd5b503d620017dc565b809250888092503d831162001863575b62001847818362001d4f565b810103126200181f576200185c889162001d71565b38620016e1565b503d6200183b565b809250888092503d8311620018a3575b62001887818362001d4f565b810103126200181f576200189c889162001d71565b3862001693565b503d6200187b565b809250888092503d8311620018e3575b620018c7818362001d4f565b810103126200181f57620018dc889162001d71565b3862001647565b503d620018bb565b809250888092503d831162001923575b62001907818362001d4f565b810103126200181f576200191c889162001d71565b3862001603565b503d620018fb565b9097508581813d831162001962575b62001946818362001d4f565b810103126200067f576200195a9062001d71565b9638620015b1565b503d6200193a565b503462000120578060031936011262000120576002546040516001600160a01b039091168152602090f35b503462000120578060031936011262000120576005546040516001600160a01b039091168152602090f35b503462000120576020366003190112620001205760043580151580910362000c9457620019ec62001fa1565b815460ff60a01b191660a09190911b60ff60a01b16178155604051f35b5034620001205780600319360112620001205762001a5560405162001a2e8162001d17565b6005815264189718171960d91b602082015260405191829160208352602083019062001cac565b0390f35b50346200012057806003193601126200012057546040516001600160a01b039091168152602090f35b5034620001205780600319360112620001205760ff6020915460a01c166040519015158152f35b503462000120578060031936011262000120576001546040516001600160a01b039091168152602090f35b5034620001205780600319360112620001205762001a5560405162001af98162001d17565b600781526650726f66696c6560c81b602082015260405191829160208352602083019062001cac565b50346200012057602036600319011262000120578062001b4162001c6b565b62001b4c8162001ec4565b600654604051636095a63b60e11b81526001600160481b03909216600483018190526001600160a01b0391821692909190602081602481875afa801562000e4d576001600160601b0391869162001c48575b50169262001bae84151562001e77565b803b15620008f35784906044604051809881936368751ff760e11b83528760048401528160248401525af18015620008e85762001c31575b8394506003541691823b156200142857606484928360405195869485936309a35b7960e21b8552336004860152602485015260448401525af180156200118f57620011775750604051f35b92909362001c3f9062001d03565b91839062001be6565b62001c64915060203d81116200124d576200123d818362001d4f565b3862001b9e565b600435906001600160481b038216820362001c8257565b600080fd5b60005b83811062001c9b5750506000910152565b818101518382015260200162001c8a565b9060209162001cc78151809281855285808601910162001c87565b601f01601f1916010190565b9181601f8401121562001c82578235916001600160401b03831162001c82576020838186019501011162001c8257565b6001600160401b0381116200085757604052565b604081019081106001600160401b038211176200085757604052565b602081019081106001600160401b038211176200085757604052565b90601f801991011681019081106001600160401b038211176200085757604052565b51906001600160a01b038216820362001c8257565b9081602091031262001c8257516001600160481b038116810362001c825790565b9081602091031262001c825751801515810362001c825790565b908060209392818452848401376000828201840152601f01601f1916010190565b60208183031262001c825780516001600160401b039182821162001c8257019082601f8301121562001c8257815190811162000857576040519262001e32601f8301601f19166020018562001d4f565b8184526020828401011162001c825762001e53916020808501910162001c87565b90565b9081602091031262001c8257516001600160601b038116810362001c825790565b1562001e7f57565b60405162461bcd60e51b815260206004820152601960248201527f596f752068617665206e6f206f70657261746f722066656573000000000000006044820152606490fd5b60206001600160481b03606460018060a01b036004541693604051848101903360601b82526014815262001ef88162001d17565b519020946040519586948593631af27dbd60e11b85521660048401526024830152600160448301525afa90811562001f955760009162001f72575b501562001f3c57565b60405162461bcd60e51b815260206004820152600e60248201526d20b236b4b710333ab731ba34b7b760911b6044820152606490fd5b62001f8e915060203d8111620009ad576200099d818362001d4f565b3862001f33565b6040513d6000823e3d90fd5b600054604051638da5cb5b60e01b81526020916001600160a01b03919083908290600490829086165afa90811562001f95576000916200202b575b5016330362001fe85750565b6064906040519062461bcd60e51b825280600483015260248201527f466e2063616e206f6e6c79206265207573656420627920687562206f776e65726044820152fd5b908382813d831162002060575b62002044818362001d4f565b81010312620001205750620020599062001d71565b3862001fdc565b503d6200203856fe608060405234620003955762001099803803806200001d816200039a565b9283398101606082820312620003955781516001600160a01b0381169290839003620003955760208181015190926001600160401b039290918381116200039557826200006c918301620003d6565b9160408201518481116200039557620000869201620003d6565b84156200035057600080546001600160a01b03191690951785558151908382116200033c576004958654926001948585811c9516801562000331575b888610146200031e578190601f95868111620002cb575b508890868311600114620002675784926200025b575b5050600019600383901b1c191690851b1787555b815194851162000248576005968754908582811c921680156200023d575b888310146200022a5750838111620001e4575b50859285116001146200017d57939450849291908362000171575b50501b916000199060031b1c19161790555b604051610c509081620004498239f35b0151925038806200014f565b86815285812093958591601f198316915b88838310620001c95750505010620001af575b505050811b01905562000161565b015160001960f88460031b161c19169055388080620001a1565b8587015188559096019594850194879350908101906200018e565b878252868220848088018a1c82019289891062000220575b01891c019085905b8281106200021457505062000134565b83815501859062000204565b92508192620001fc565b634e487b7160e01b835260229052602482fd5b91607f169162000121565b634e487b7160e01b815260418752602490fd5b015190503880620000ef565b8a85528985208894509190601f198416865b8c828210620002b457505084116200029a575b505050811b01875562000103565b015160001960f88460031b161c191690553880806200028c565b8385015186558b9790950194938401930162000279565b9091508984528884208680850160051c8201928b861062000314575b918991869594930160051c01915b82811062000305575050620000d9565b868155859450899101620002f5565b92508192620002e7565b634e487b7160e01b835260228952602483fd5b94607f1694620000c2565b634e487b7160e01b86526041600452602486fd5b60405162461bcd60e51b815260048101859052601960248201527f48756220416464726573732063616e6e6f7420626520307830000000000000006044820152606490fd5b600080fd5b6040519190601f01601f191682016001600160401b03811183821017620003c057604052565b634e487b7160e01b600052604160045260246000fd5b919080601f84011215620003955782516001600160401b038111620003c0576020906200040c601f8201601f191683016200039a565b92818452828287010111620003955760005b8181106200043457508260009394955001015290565b85810183015184820184015282016200041e56fe608060408181526004918236101561001657600080fd5b600092833560e01c91826306fdde031461061b57508163095ea7b3146105f157816318160ddd146105d257816323b872dd14610595578163313ce56714610579578163365a86fc14610551578163395093511461050157816340c10f191461037e57816342966c681461036057816370a082311461032857816379cc6790146102f457816395d89b41146101ed578163a457c2d71461014557508063a9059cbb146101155763dd62ed3e146100ca57600080fd5b34610111578060031936011261011157806020926100e6610756565b6100ee610771565b6001600160a01b0391821683526002865283832091168252845220549051908152f35b5080fd5b503461011157806003193601126101115760209061013e610134610756565b60243590336107e2565b5160018152f35b905082346101ea57826003193601126101ea57610160610756565b918360243592338152600260205281812060018060a01b03861682526020522054908282106101995760208561013e8585038733610959565b608490602086519162461bcd60e51b8352820152602560248201527f45524332303a2064656372656173656420616c6c6f77616e63652062656c6f77604482015264207a65726f60d81b6064820152fd5b80fd5b919050346102f057826003193601126102f057805191836005549060019082821c9282811680156102e6575b60209586861082146102d357508488529081156102b15750600114610258575b610254868661024a828b0383610787565b519182918261070d565b0390f35b929550600583527f036b6384b5eca791c62761152d0c79bb0604c104a5fb6f4eb0703f3154bb3db05b82841061029e57505050826102549461024a928201019438610239565b8054868501880152928601928101610281565b60ff191687860152505050151560051b830101925061024a8261025438610239565b634e487b7160e01b845260229052602483fd5b93607f1693610219565b8280fd5b505034610111578060031936011261011157610325610311610756565b60243590610320823383610a5b565b610af3565b51f35b5050346101115760203660031901126101115760209181906001600160a01b03610350610756565b1681526001845220549051908152f35b9050346102f05760203660031901126102f057610325903533610af3565b9050346102f057816003193601126102f057610398610756565b83548351631627905560e01b8152338482015260209260248035936001600160a01b0393918691839190829087165afa9081156104f75788916104bd575b501561047b571692831561043857508491816104157fddf252ad1be2c89b69c2b068fc378daa952ba7f163c4a11628f55a4df523b3ef936003546107bf565b6003558484526001825285842061042d8282546107bf565b90558551908152a351f35b845162461bcd60e51b8152908101839052601f60248201527f45524332303a206d696e7420746f20746865207a65726f2061646472657373006044820152606490fd5b50505080606493519262461bcd60e51b845283015260248201527f466e2063616e206f6e6c792062652063616c6c656420627920746865206875626044820152fd5b90508481813d83116104f0575b6104d48183610787565b810103126104ec575180151581036104ec57386103d6565b8780fd5b503d6104ca565b87513d8a823e3d90fd5b50503461011157806003193601126101115761013e60209261054a610524610756565b338352600286528483206001600160a01b038216845286529184902054602435906107bf565b9033610959565b505034610111578160031936011261011157905490516001600160a01b039091168152602090f35b5050346101115781600319360112610111576020905160128152f35b5050346101115760603660031901126101115760209061013e6105b6610756565b6105be610771565b604435916105cd833383610a5b565b6107e2565b5050346101115781600319360112610111576020906003549051908152f35b50503461011157806003193601126101115760209061013e610611610756565b6024359033610959565b8385346101ea57806003193601126101ea57809380549160019083821c92828516948515610703575b60209586861081146106f0578589529081156106cc5750600114610674575b610254878761024a828c0383610787565b81529295507f8a35acfbc15ff81a39ae7d344fd709f28e8600b4aa8c65c6b64bfe7fe36bd19b5b8284106106b957505050826102549461024a92820101948680610663565b805486850188015292860192810161069b565b60ff19168887015250505050151560051b830101925061024a826102548680610663565b634e487b7160e01b845260228352602484fd5b93607f1693610644565b6020808252825181830181905290939260005b82811061074257505060409293506000838284010152601f8019910116010190565b818101860151848201604001528501610720565b600435906001600160a01b038216820361076c57565b600080fd5b602435906001600160a01b038216820361076c57565b90601f8019910116810190811067ffffffffffffffff8211176107a957604052565b634e487b7160e01b600052604160045260246000fd5b919082018092116107cc57565b634e487b7160e01b600052601160045260246000fd5b6001600160a01b0390811691821561090657169182156108b5576000828152600160205260408120549180831061086157604082827fddf252ad1be2c89b69c2b068fc378daa952ba7f163c4a11628f55a4df523b3ef958760209652600186520382822055868152206108568282546107bf565b9055604051908152a3565b60405162461bcd60e51b815260206004820152602660248201527f45524332303a207472616e7366657220616d6f756e7420657863656564732062604482015265616c616e636560d01b6064820152608490fd5b60405162461bcd60e51b815260206004820152602360248201527f45524332303a207472616e7366657220746f20746865207a65726f206164647260448201526265737360e81b6064820152608490fd5b60405162461bcd60e51b815260206004820152602560248201527f45524332303a207472616e736665722066726f6d20746865207a65726f206164604482015264647265737360d81b6064820152608490fd5b6001600160a01b03908116918215610a0a57169182156109ba5760207f8c5be1e5ebec7d5bd14f71427d1e84f3dd0314c0f7b2291e5b200ac8c7c3b925918360005260028252604060002085600052825280604060002055604051908152a3565b60405162461bcd60e51b815260206004820152602260248201527f45524332303a20617070726f766520746f20746865207a65726f206164647265604482015261737360f01b6064820152608490fd5b60405162461bcd60e51b8152602060048201526024808201527f45524332303a20617070726f76652066726f6d20746865207a65726f206164646044820152637265737360e01b6064820152608490fd5b9060018060a01b0380831660005260026020526040600020908216600052602052604060002054926000198403610a93575b50505050565b808410610aae57610aa5930391610959565b38808080610a8d565b60405162461bcd60e51b815260206004820152601d60248201527f45524332303a20696e73756666696369656e7420616c6c6f77616e63650000006044820152606490fd5b6001600160a01b03168015610bcb5760009181835260016020526040832054818110610b7b5781908385526001602052036040842055600354818103908111610b67577fddf252ad1be2c89b69c2b068fc378daa952ba7f163c4a11628f55a4df523b3ef91602091600355604051908152a3565b634e487b7160e01b84526011600452602484fd5b60405162461bcd60e51b815260206004820152602260248201527f45524332303a206275726e20616d6f756e7420657863656564732062616c616e604482015261636560f01b6064820152608490fd5b60405162461bcd60e51b815260206004820152602160248201527f45524332303a206275726e2066726f6d20746865207a65726f206164647265736044820152607360f81b6064820152608490fdfea2646970667358221220acff48da0b168182c3ab60f68f9779c79914a2d4f9a8f102ae554b53c5eda7b764736f6c63430008100033a264697066735822122057b39f085b076e185729bede771c4588cd2ce253fa083c06587f82c5ad275aab64736f6c63430008100033",
  "devdoc": {
    "kind": "dev",
    "methods": {},
    "version": 1
  },
  "userdoc": {
    "kind": "user",
    "methods": {},
    "version": 1
  },
  "storageLayout": {
    "storage": [
      {
        "astId": 15408,
        "contract": "contracts/Profile.sol:Profile",
        "label": "hub",
        "offset": 0,
        "slot": "0",
        "type": "t_contract(Hub)9211"
      },
      {
        "astId": 15379,
        "contract": "contracts/Profile.sol:Profile",
        "label": "status",
        "offset": 20,
        "slot": "0",
        "type": "t_bool"
      },
      {
        "astId": 10204,
        "contract": "contracts/Profile.sol:Profile",
        "label": "hashingProxy",
        "offset": 0,
        "slot": "1",
        "type": "t_contract(HashingProxy)8950"
      },
      {
        "astId": 10207,
        "contract": "contracts/Profile.sol:Profile",
        "label": "identityContract",
        "offset": 0,
        "slot": "2",
        "type": "t_contract(Identity)10138"
      },
      {
        "astId": 10210,
        "contract": "contracts/Profile.sol:Profile",
        "label": "stakingContract",
        "offset": 0,
        "slot": "3",
        "type": "t_contract(Staking)15211"
      },
      {
        "astId": 10213,
        "contract": "contracts/Profile.sol:Profile",
        "label": "identityStorage",
        "offset": 0,
        "slot": "4",
        "type": "t_contract(IdentityStorage)18485"
      },
      {
        "astId": 10216,
        "contract": "contracts/Profile.sol:Profile",
        "label": "parametersStorage",
        "offset": 0,
        "slot": "5",
        "type": "t_contract(ParametersStorage)19108"
      },
      {
        "astId": 10219,
        "contract": "contracts/Profile.sol:Profile",
        "label": "profileStorage",
        "offset": 0,
        "slot": "6",
        "type": "t_contract(ProfileStorage)19582"
      },
      {
        "astId": 10222,
        "contract": "contracts/Profile.sol:Profile",
        "label": "whitelistStorage",
        "offset": 0,
        "slot": "7",
        "type": "t_contract(WhitelistStorage)23445"
      }
    ],
    "types": {
      "t_bool": {
        "encoding": "inplace",
        "label": "bool",
        "numberOfBytes": "1"
      },
      "t_contract(HashingProxy)8950": {
        "encoding": "inplace",
        "label": "contract HashingProxy",
        "numberOfBytes": "20"
      },
      "t_contract(Hub)9211": {
        "encoding": "inplace",
        "label": "contract Hub",
        "numberOfBytes": "20"
      },
      "t_contract(Identity)10138": {
        "encoding": "inplace",
        "label": "contract Identity",
        "numberOfBytes": "20"
      },
      "t_contract(IdentityStorage)18485": {
        "encoding": "inplace",
        "label": "contract IdentityStorage",
        "numberOfBytes": "20"
      },
      "t_contract(ParametersStorage)19108": {
        "encoding": "inplace",
        "label": "contract ParametersStorage",
        "numberOfBytes": "20"
      },
      "t_contract(ProfileStorage)19582": {
        "encoding": "inplace",
        "label": "contract ProfileStorage",
        "numberOfBytes": "20"
      },
      "t_contract(Staking)15211": {
        "encoding": "inplace",
        "label": "contract Staking",
        "numberOfBytes": "20"
      },
      "t_contract(WhitelistStorage)23445": {
        "encoding": "inplace",
        "label": "contract WhitelistStorage",
        "numberOfBytes": "20"
      }
    }
  }
}