{
  "address": "0x062f620c5A0CE93aB277CaAf8Adc29E9dbBE5818",
  "abi": [
    {
      "inputs": [
        {
          "internalType": "address",
          "name": "hubAddress",
          "type": "address"
        }
      ],
      "stateMutability": "nonpayable",
      "type": "constructor"
    },
    {
      "inputs": [
        {
          "internalType": "bytes32",
          "name": "agreementId",
          "type": "bytes32"
        },
        {
          "internalType": "uint16",
          "name": "epoch",
          "type": "uint16"
        },
        {
          "internalType": "uint72",
          "name": "identityId",
          "type": "uint72"
        },
        {
          "internalType": "bytes",
          "name": "nodeId",
          "type": "bytes"
        }
      ],
      "name": "NodeAlreadyRewarded",
      "type": "error"
    },
    {
      "inputs": [
        {
          "internalType": "bytes32",
          "name": "agreementId",
          "type": "bytes32"
        },
        {
          "internalType": "uint16",
          "name": "epoch",
          "type": "uint16"
        },
        {
          "internalType": "uint72",
          "name": "identityId",
          "type": "uint72"
        },
        {
          "internalType": "bytes",
          "name": "nodeId",
          "type": "bytes"
        },
        {
          "internalType": "uint8",
          "name": "rank",
          "type": "uint8"
        }
      ],
      "name": "NodeNotAwarded",
      "type": "error"
    },
    {
      "inputs": [
        {
          "internalType": "bytes32",
          "name": "agreementId",
          "type": "bytes32"
        },
        {
          "internalType": "uint16",
          "name": "epoch",
          "type": "uint16"
        },
        {
          "internalType": "uint256",
          "name": "proofWindowOpen",
          "type": "uint256"
        },
        {
          "internalType": "uint256",
          "name": "proofWindowClose",
          "type": "uint256"
        },
        {
          "internalType": "uint256",
          "name": "timeNow",
          "type": "uint256"
        }
      ],
      "name": "ProofWindowClosed",
      "type": "error"
    },
    {
      "inputs": [
        {
          "internalType": "bytes32",
          "name": "agreementId",
          "type": "bytes32"
        }
      ],
      "name": "ServiceAgreementDoesntExist",
      "type": "error"
    },
    {
      "inputs": [
        {
          "internalType": "bytes32",
          "name": "agreementId",
          "type": "bytes32"
        },
        {
          "internalType": "uint256",
          "name": "startTime",
          "type": "uint256"
        },
        {
          "internalType": "uint16",
          "name": "epochsNumber",
          "type": "uint16"
        },
        {
          "internalType": "uint128",
          "name": "epochLength",
          "type": "uint128"
        }
      ],
      "name": "ServiceAgreementHasBeenExpired",
      "type": "error"
    },
    {
      "inputs": [
        {
          "internalType": "bytes32",
          "name": "agreementId",
          "type": "bytes32"
        },
        {
          "internalType": "uint16",
          "name": "epoch",
          "type": "uint16"
        },
        {
          "internalType": "uint72",
          "name": "identityId",
          "type": "uint72"
        },
        {
          "internalType": "bytes",
          "name": "nodeId",
          "type": "bytes"
        },
        {
          "internalType": "bytes32[]",
          "name": "merkleProof",
          "type": "bytes32[]"
        },
        {
          "internalType": "bytes32",
          "name": "merkleRoot",
          "type": "bytes32"
        },
        {
          "internalType": "bytes32",
          "name": "chunkHash",
          "type": "bytes32"
        },
        {
          "internalType": "uint256",
          "name": "challenge",
          "type": "uint256"
        }
      ],
      "name": "WrongMerkleProof",
      "type": "error"
    },
    {
      "anonymous": false,
      "inputs": [
        {
          "indexed": true,
          "internalType": "address",
          "name": "assetContract",
          "type": "address"
        },
        {
          "indexed": true,
          "internalType": "uint256",
          "name": "tokenId",
          "type": "uint256"
        },
        {
          "indexed": false,
          "internalType": "bytes",
          "name": "keyword",
          "type": "bytes"
        },
        {
          "indexed": false,
          "internalType": "uint8",
          "name": "hashFunctionId",
          "type": "uint8"
        },
        {
          "indexed": false,
          "internalType": "uint16",
          "name": "epoch",
          "type": "uint16"
        },
        {
          "indexed": true,
          "internalType": "uint72",
          "name": "identityId",
          "type": "uint72"
        }
      ],
      "name": "ProofSubmitted",
      "type": "event"
    },
    {
      "inputs": [],
      "name": "assertionStorage",
      "outputs": [
        {
          "internalType": "contract AssertionStorage",
          "name": "",
          "type": "address"
        }
      ],
      "stateMutability": "view",
      "type": "function"
    },
    {
      "inputs": [
        {
          "internalType": "address",
          "name": "sender",
          "type": "address"
        },
        {
          "internalType": "address",
          "name": "assetContract",
          "type": "address"
        },
        {
          "internalType": "uint256",
          "name": "tokenId",
          "type": "uint256"
        },
        {
          "internalType": "uint16",
          "name": "epoch",
          "type": "uint16"
        }
      ],
      "name": "getChallenge",
      "outputs": [
        {
          "internalType": "bytes32",
          "name": "assertionId",
          "type": "bytes32"
        },
        {
          "internalType": "uint256",
          "name": "challenge",
          "type": "uint256"
        }
      ],
      "stateMutability": "view",
      "type": "function"
    },
    {
      "inputs": [],
      "name": "hashingProxy",
      "outputs": [
        {
          "internalType": "contract HashingProxy",
          "name": "",
          "type": "address"
        }
      ],
      "stateMutability": "view",
      "type": "function"
    },
    {
      "inputs": [],
      "name": "hub",
      "outputs": [
        {
          "internalType": "contract Hub",
          "name": "",
          "type": "address"
        }
      ],
      "stateMutability": "view",
      "type": "function"
    },
    {
      "inputs": [],
      "name": "identityStorage",
      "outputs": [
        {
          "internalType": "contract IdentityStorage",
          "name": "",
          "type": "address"
        }
      ],
      "stateMutability": "view",
      "type": "function"
    },
    {
      "inputs": [],
      "name": "initialize",
      "outputs": [],
      "stateMutability": "nonpayable",
      "type": "function"
    },
    {
      "inputs": [
        {
          "internalType": "bytes32",
          "name": "agreementId",
          "type": "bytes32"
        },
        {
          "internalType": "uint16",
          "name": "epoch",
          "type": "uint16"
        }
      ],
      "name": "isProofWindowOpen",
      "outputs": [
        {
          "internalType": "bool",
          "name": "",
          "type": "bool"
        }
      ],
      "stateMutability": "view",
      "type": "function"
    },
    {
      "inputs": [],
      "name": "name",
      "outputs": [
        {
          "internalType": "string",
          "name": "",
          "type": "string"
        }
      ],
      "stateMutability": "pure",
      "type": "function"
    },
    {
      "inputs": [],
      "name": "parametersStorage",
      "outputs": [
        {
          "internalType": "contract ParametersStorage",
          "name": "",
          "type": "address"
        }
      ],
      "stateMutability": "view",
      "type": "function"
    },
    {
      "inputs": [],
      "name": "profileStorage",
      "outputs": [
        {
          "internalType": "contract ProfileStorage",
          "name": "",
          "type": "address"
        }
      ],
      "stateMutability": "view",
      "type": "function"
    },
    {
      "inputs": [
        {
          "internalType": "uint256",
          "name": "",
          "type": "uint256"
        }
      ],
      "name": "reqs",
      "outputs": [
        {
          "internalType": "bool",
          "name": "",
          "type": "bool"
        }
      ],
      "stateMutability": "view",
      "type": "function"
    },
    {
      "inputs": [
        {
          "components": [
            {
              "internalType": "address",
              "name": "assetContract",
              "type": "address"
            },
            {
              "internalType": "uint256",
              "name": "tokenId",
              "type": "uint256"
            },
            {
              "internalType": "bytes",
              "name": "keyword",
              "type": "bytes"
            },
            {
              "internalType": "uint8",
              "name": "hashFunctionId",
              "type": "uint8"
            },
            {
              "internalType": "uint16",
              "name": "epoch",
              "type": "uint16"
            },
            {
              "internalType": "bytes32[]",
              "name": "proof",
              "type": "bytes32[]"
            },
            {
              "internalType": "bytes32",
              "name": "chunkHash",
              "type": "bytes32"
            }
          ],
          "internalType": "struct ServiceAgreementStructsV1.ProofInputArgs",
          "name": "args",
          "type": "tuple"
        }
      ],
      "name": "sendProof",
      "outputs": [],
      "stateMutability": "nonpayable",
      "type": "function"
    },
    {
      "inputs": [],
      "name": "serviceAgreementStorageProxy",
      "outputs": [
        {
          "internalType": "contract ServiceAgreementStorageProxy",
          "name": "",
          "type": "address"
        }
      ],
      "stateMutability": "view",
      "type": "function"
    },
    {
      "inputs": [
        {
          "internalType": "uint256",
          "name": "index",
          "type": "uint256"
        },
        {
          "internalType": "bool",
          "name": "req",
          "type": "bool"
        }
      ],
      "name": "setReq",
      "outputs": [],
      "stateMutability": "nonpayable",
      "type": "function"
    },
    {
      "inputs": [
        {
          "internalType": "bool",
          "name": "_status",
          "type": "bool"
        }
      ],
      "name": "setStatus",
      "outputs": [],
      "stateMutability": "nonpayable",
      "type": "function"
    },
    {
      "inputs": [],
      "name": "stakingContract",
      "outputs": [
        {
          "internalType": "contract Staking",
          "name": "",
          "type": "address"
        }
      ],
      "stateMutability": "view",
      "type": "function"
    },
    {
      "inputs": [],
      "name": "status",
      "outputs": [
        {
          "internalType": "bool",
          "name": "",
          "type": "bool"
        }
      ],
      "stateMutability": "view",
      "type": "function"
    },
    {
      "inputs": [],
      "name": "version",
      "outputs": [
        {
          "internalType": "string",
          "name": "",
          "type": "string"
        }
      ],
      "stateMutability": "pure",
      "type": "function"
    }
  ],
  "transactionHash": "0xa523edf866a5370b8a502352791a7239388e5f332cf5d7cb68c509fff02e1329",
  "args": [
    "0x224aEC6891d26e994D4Dbf207aE099ca029b3E67"
  ],
  "numDeployments": 1,
  "solcInputHash": "6736b5a2b01ed07b57366e384b7e7c88",
  "bytecode": "0x6080346200014357601f6200227338819003918201601f19168301926001600160401b0392909190838511838610176200014857808392604096875283396020928391810103126200014357516001600160a01b038116929083900362000143578215620000ff57600080546001600160a01b03191690931783558351906080820190811182821017620000eb578452828152828282015282848201528260608201529082905b60048210620000c3575050506001555161211490816200015f8239f35b9091928160019185511515908560031b60ff811b9283911b16911916179401920190620000a6565b634e487b7160e01b84526041600452602484fd5b835162461bcd60e51b815260048101839052601960248201527f48756220416464726573732063616e6e6f7420626520307830000000000000006044820152606490fd5b600080fd5b634e487b7160e01b600052604160045260246000fdfe608080604052600436101561001357600080fd5b600090813560e01c90816306fdde03146117fb575080630f0020161461179e57806311c94ee814611775578063200d2ed214611750578063365a86fc1461172957806354fd4d50146116df5780635c40f6f41461169b578063639a86a3146116725780637522c2b1146105f75780637ea63c6e146105895780638129fc1c1461023457806383de896b146101f357806390b8145a146101ca578063aa6a00fd1461018d578063d210b7cf14610164578063ee99205c1461013b578063f11abfd8146101125763f42cb038146100e757600080fd5b3461010f578060031936011261010f576007546040516001600160a01b039091168152602090f35b80fd5b503461010f578060031936011261010f576005546040516001600160a01b039091168152602090f35b503461010f578060031936011261010f576003546040516001600160a01b039091168152602090f35b503461010f578060031936011261010f576004546040516001600160a01b039091168152602090f35b503461010f57604036600319011261010f5760243561ffff811681036101c5576101bb6020916004356119ae565b6040519015158152f35b600080fd5b503461010f578060031936011261010f576008546040516001600160a01b039091168152602090f35b503461010f57602036600319011261010f576004356004811015610230578060ff60209260051c6001015460f86040519360031b161c1615158152f35b5080fd5b503461010f578060031936011261010f5761024d612030565b60018060a01b0380825416906040519183630110ceef60e21b808552602092836004870152602490600c828801526044926b48617368696e6750726f787960a01b8489015260649186898481845afa98891561057e57869961055f575b50876001600160601b0360a01b9916896002541617600255604051828152876004820152600785820152665374616b696e6760c81b8682015287818581855afa80156104e05789918891610542575b50168960035416176003556040518281528760048201526010858201526f417373657274696f6e53746f7261676560801b8682015287818581855afa80156104e05789918891610525575b5016896004541617600455604051828152876004820152600f858201526e4964656e7469747953746f7261676560881b8682015287818581855afa80156104e05789918891610508575b501689600554161760055560405182815287600482015260118582015270506172616d657465727353746f7261676560781b8682015287818581855afa80156104e057899188916104eb575b5016896006541617600655604051828152876004820152600e858201526d50726f66696c6553746f7261676560901b8682015287818581855afa9586156104e0578989977f5365727669636541677265656d656e7453746f7261676550726f78790000000093601c9a916104c3575b50168b6007541617600755604051978896879586528860048701528501528301525afa9182156104b857859261048b575b505016906008541617600855604051f35b6104aa9250803d106104b1575b6104a281836118d7565b8101906118f9565b388061047a565b503d610498565b6040513d87823e3d90fd5b6104da9150893d8b116104b1576104a281836118d7565b38610449565b6040513d89823e3d90fd5b6105029150893d8b116104b1576104a281836118d7565b386103da565b61051f9150893d8b116104b1576104a281836118d7565b3861038e565b61053c9150893d8b116104b1576104a281836118d7565b38610344565b6105599150893d8b116104b1576104a281836118d7565b386102f9565b610577919950873d89116104b1576104a281836118d7565b97386102aa565b6040513d88823e3d90fd5b503461010f57604036600319011261010f576004356024358015158091036101c5576105b3612030565b60048210156105e1578160051c6001019160f883549160031b1660ff811b9283911b16911916179055604051f35b634e487b7160e01b600052603260045260246000fd5b503461010f57602036600319011261010f5767ffffffffffffffff6004351161010f5760e06004353603600319011261010f576008546002546001600160a01b03918216916106ed9160209116610652600435606401611ef6565b9060ff610663600435600401611f04565b926106c2605461067d604460043501600435600401611f18565b60405160609890981b6bffffffffffffffffffffffff191689890152600435602401356034890152879181908484013781018b838201520360348101875201856118d7565b604051958694859384936345ed59e560e01b855216600484015260406024840152604483019061186c565b03915afa908115611667578391611631575b506040516310dc199160e31b815260048101829052602081602481865afa9081156115805784916115f6575b50156115de576001549160ff831615806115c0575b6113f65760055460405163010cf48d60e71b815233600482015290602090829060249082906001600160a01b03165afa9081156104b85785916113d7575b5060ff8460081c161580611305575b611250576107cf60206107a4608460043501611f4b565b60405163bec3db4360e01b81526004810187905261ffff909116602482015291829081906044820190565b0381865afa90811561057e57869161121a575b5060065460405163659621b560e01b815291929190602090829060049082906001600160a01b03165afa9081156104e05787916111fb575b5086925b604051620153f560ea1b815260048101829052602081602481895afa90811561092f5789916111dc575b506001600160481b0384811691161415806111ca575b1561093a57610871608460043501611f4b565b9060405190635b3db70f60e11b82526004820152602081602481895afa91821561092f576108e66108f460ff946001948d91610900575b5060405192839160208301958d8791602b9391835261ffff60f01b9060f01b1660208301526001600160481b0360b81b9060b81b1660228201520190565b03601f1981018352826118d7565b5190209401169261081e565b610922915060203d602011610928575b61091a81836118d7565b810190611d0e565b386108a8565b503d610910565b6040513d8b823e3d90fd5b50909486949260ff8260101c1615806111b7575b6110ea575060ff90610984610967600435600401611f04565b610975608460043501611f4b565b90602460043501359033611d4c565b92909160181c161580610f8f575b610e625750506109a6600435600401611f04565b6109ba604460043501600435600401611f18565b61ffff6109ce606460049594953501611ef6565b60ff6109de608460043501611f4b565b918460405197606089528160608a015260808901378a608086890101521660208601521660408401527fe6ecae4b7152cd744b7711f430df2c51c97082e76242e59667c590f88a2b068a6001600160481b03891693608081602460043501359560018060a01b031694601f80199101168101030190a4604051634089a17d60e01b815260048101839052602081602481875afa9081156104b8578591610e43575b5060405163d1a640c760e01b815260048101849052602081602481885afa90811561057e578691610e14575b5061ffff80610abe608460043501611f4b565b1691160361ffff8111610dcf5761ffff60018183160111610dcf57610b2c9161ffff600181610af09416011690612018565b916020610b01608460043501611f4b565b604051632b275f3d60e21b81526004810187905261ffff909116602482015292839081906044820190565b0381885afa91821561057e578692610de3575b5063ffffffff80809316911603818111610dcf57610b5f92911690612018565b6003546001600160a01b031690813b15610d6157846001600160601b03606482936040519485938492633277e5f760e11b84528960048501526001600160481b038d16602485015216968760448401525af180156104b857610dbc575b50604051634089a17d60e01b815260048101839052602081602481875afa9081156104b857906001600160601b03918691610d8d575b501603936001600160601b038511610d79578394833b15610d61576001600160601b036040519163e54b26ff60e01b8352846004840152166024820152848160448183885af19081156104b8578591610d65575b5050610c56608460043501611f4b565b833b15610d615760405163beca40f360e01b81526004810184905261ffff919091166024820152848160448183885af19081156104b8578591610d48575b5050610ce5610ca7608460043501611f4b565b604080516020810195865260f09290921b6001600160f01b0319169082015260b89290921b6001600160b81b031916604283015281604b81016108e6565b519020813b15610d44578291604483926040519485938492631eb18b8b60e11b845260048401528160248401525af18015610d3957610d25575b50604051f35b610d2e90611891565b61010f578082610d1f565b6040513d84823e3d90fd5b5050fd5b610d5190611891565b610d5c578386610c94565b505050fd5b8480fd5b610d6e90611891565b610d5c578386610c46565b634e487b7160e01b84526011600452602484fd5b610daf915060203d602011610db5575b610da781836118d7565b810190611d2d565b87610bf2565b503d610d9d565b610dc890949194611891565b9285610bbc565b634e487b7160e01b86526011600452602486fd5b610e0691925060203d602011610e0d575b610dfe81836118d7565b810190611fc6565b9087610b3f565b503d610df4565b610e36915060203d602011610e3c575b610e2e81836118d7565b810190611918565b87610aab565b503d610e24565b610e5c915060203d602011610db557610da781836118d7565b86610a7f565b85849288926024610e77608460043501611f4b565b6007546040516320e085cd60e11b81526001600160481b038816600482015291969192869184919082906001600160a01b03165afa9182156104b85791610f169161ffff938792610f62575b506001600160481b0390610ee160a460043501600435600401611fe2565b9590996040519b635926ff1b60e11b8d5260048d01521660248b0152166044890152610100606489015261010488019061186c565b868103600319016084880152818152936001600160fb1b03821161010f5750918593916020959360051b80948785013760a485015260c4600435013560c485015260e484015201030190fd5b6001600160481b03919250610f88903d808a833e610f8081836118d7565b810190611f5a565b9190610ec3565b50959192610faa60a460049693963501600435600401611fe2565b6040959195519560c4600435013560208801528760408801526040875286606081011067ffffffffffffffff6060890111176110d65760608701604052865160208801209167ffffffffffffffff81116110c2578060051b906110136020830160608b016118d7565b6060890152608088019036818401116110be5782915b81840183106110ae57505050509587965b606087015188101561109b5760808860051b880101519081811060001461108c578952602052604088205b966000198114611078576001019661103a565b634e487b7160e01b89526011600452602489fd5b90895260205260408820611065565b9093965088929550979093971415610992565b8235815260209283019201611029565b8a80fd5b634e487b7160e01b8a52604160045260248afd5b634e487b7160e01b89526041600452602489fd5b93505050916110fd608460043501611f4b565b6007546040516320e085cd60e11b81526001600160481b03909616600487018190529195908390829060249082906001600160a01b03165afa9283156111ab579160ff939183611183949361118e575b505061ffff6040519788976311168fa360e01b89526004890152166024870152604486015260a0606486015260a485019061186c565b911660848301520390fd5b6111a39293503d8091833e610f8081836118d7565b90878061114d565b604051903d90823e3d90fd5b5063ffffffff831660ff8216101561094e565b5063ffffffff821660ff85161061085e565b6111f5915060203d6020116109285761091a81836118d7565b38610848565b611214915060203d602011610e0d57610dfe81836118d7565b3861081a565b90506020813d602011611248575b81611235602093836118d7565b810103126112445751386107e2565b8580fd5b3d9150611228565b9250506001600160481b03611269608460043501611f4b565b6007546040516320e085cd60e11b8152929094166004830181905290938590839060249082906001600160a01b03165afa9182156104b857856112e4949596936112e8575b505061ffff6040519586956305e3db5760e31b87526004870152166024850152604484015260806064840152608483019061186c565b0390fd5b6112fd9293503d8091833e610f8081836118d7565b9038806112ae565b50611314608460043501611f4b565b604080516020810186815260f09390931b6001600160f01b0319169181019190915260b883901b6001600160b81b031916604282015261135781604b81016108e6565b51902060405190635c6c1fef60e01b82526004820152602081602481865afa801561057e578690611392575b64ffffffffff9150161561078d565b506020813d6020116113cf575b816113ac602093836118d7565b81010312611244575164ffffffffff811681036112445764ffffffffff90611383565b3d915061139f565b6113f0915060203d6020116109285761091a81836118d7565b3861077e565b60405163484a47e760e01b815260048101839052919250602082602481845afa91821561158057849261158b575b50602060249160405192838092630271c2cf60e61b82528760048301525afa90811561158057849161154a575b5061148161ffff916001600160801b0361147a8585611474608460043501611f4b565b1661196a565b16906119a1565b90611490608460043501611f4b565b600654604051637ad65f2760e01b815291949190602090829060049082906001600160a01b03165afa9081156104e0576001600160801b036114e66114ef9460ff839560649560a49d9161151b575b501661196a565b160416836119a1565b926040519463d28d7f1f60e01b8652600486015216602484015260448301526064820152426084820152fd5b61153d915060203d602011611543575b61153581836118d7565b810190611951565b386114df565b503d61152b565b90506020813d602011611578575b81611565602093836118d7565b81010312611574575138611451565b8380fd5b3d9150611558565b6040513d86823e3d90fd5b60249192506115b1602091823d84116115b9575b6115a981836118d7565b810190611932565b929150611424565b503d61159f565b506115d86115d2608460043501611f4b565b836119ae565b15610740565b60249060405190635013c2b960e01b82526004820152fd5b90506020813d602011611629575b81611611602093836118d7565b8101031261157457518015158103611574573861072b565b3d9150611604565b90506020813d60201161165f575b8161164c602093836118d7565b8101031261165b5751386106ff565b8280fd5b3d915061163f565b6040513d85823e3d90fd5b503461010f578060031936011261010f576006546040516001600160a01b039091168152602090f35b503461010f57602036600319011261010f57600435801515809103610230576116c2612030565b815460ff60a01b191660a09190911b60ff60a01b16178155604051f35b503461010f578060031936011261010f576117256040516116ff816118bb565b60058152640312e302e360dc1b602082015260405191829160208352602083019061186c565b0390f35b503461010f578060031936011261010f57546040516001600160a01b039091168152602090f35b503461010f578060031936011261010f5760ff6020915460a01c166040519015158152f35b503461010f578060031936011261010f576002546040516001600160a01b039091168152602090f35b503461010f57608036600319011261010f576004356001600160a01b03808216820361165b57602435908116810361165b576064359261ffff8416840361010f5760406117ef856044358587611d4c565b82519182526020820152f35b9050346102305781600319360112610230578061181a611725926118bb565b600e81526d50726f6f664d616e61676572563160901b602082015260405191829160208352602083019061186c565b60005b83811061185c5750506000910152565b818101518382015260200161184c565b9060209161188581518092818552858086019101611849565b601f01601f1916010190565b67ffffffffffffffff81116118a557604052565b634e487b7160e01b600052604160045260246000fd5b6040810190811067ffffffffffffffff8211176118a557604052565b90601f8019910116810190811067ffffffffffffffff8211176118a557604052565b908160209103126101c557516001600160a01b03811681036101c55790565b908160209103126101c5575161ffff811681036101c55790565b908160209103126101c557516001600160801b03811681036101c55790565b908160209103126101c5575160ff811681036101c55790565b6001600160801b03918280921691829116920482118115151661198b570290565b634e487b7160e01b600052601160045260246000fd5b9190820180921161198b57565b60085460408051630271c2cf60e61b81526004808201859052602495946001600160a01b03949293926020919086169082868a81855afa958615611d0357600096611cd4575b508515611cbf5784519763d1a640c760e01b808a5282868b0152848a8c81875afa998a15611cb45760009a611c95575b5061ffff808093169a168a1015611bc1575050845163484a47e760e01b815284810182905298838a8281865afa998a15611bb65760009a611b93575b509083918651809481936399149f7760e01b8352888301525afa908115611b88579160ff60648293611aab979695600091611b6b575b506001600160801b039788938492168d61196a565b160416966006541684519384809263274f3ac360e21b82525afa928315611b615750611aea60ff85946064948694600092611b44575b5050168961196a565b16041693611b0c84611b0784611b00858b61196a565b16866119a1565b6119a1565b4210159586611b1f575b50505050505090565b611b3796509161147a611b07959492611b079461196a565b4210388080808080611b16565b611b5a9250803d106115435761153581836118d7565b3880611ae1565b513d6000823e3d90fd5b611b829150843d86116115435761153581836118d7565b38611a96565b84513d6000823e3d90fd5b8492919a50611bae90833d85116115b9576115a981836118d7565b999091611a60565b86513d6000823e3d90fd5b879193928b918851908152818882015286818481885afa948515611c67578791600096611c72575b509083918a519283809263484a47e760e01b8252868d8301525afa968715611c6757986001600160801b039796959493929160849a600098611c48575b505051631b18d90960e31b815297880152860152166044840152166064820152fd5b611c5f929850803d106115b9576115a981836118d7565b958a80611c26565b89513d6000823e3d90fd5b82919650611c8d9085933d8411610e3c57610e2e81836118d7565b959091611be9565b611cad919a50853d8711610e3c57610e2e81836118d7565b9838611a24565b87513d6000823e3d90fd5b838991865191635013c2b960e01b8352820152fd5b90958382813d8311611cfc575b611ceb81836118d7565b8101031261010f57505194386119f4565b503d611ce1565b85513d6000823e3d90fd5b908160209103126101c557516001600160481b03811681036101c55790565b908160209103126101c557516001600160601b03811681036101c55790565b6005546040805163010cf48d60e71b81526001600160a01b03938416600482015292969592949093602093929091908490879060249082908c165afa958615611d035790889291600097611ed0575b50906024859287519a8b93849263cede992f60e01b84526004840152165afa968715611b8857600097611ea1575b508260249160045416855192838092632111070960e01b82528b60048301525afa908115611b8857916001600160601b03611e51926000948591611e84575b5016958551908582019261ffff60f01b9060f01b1683526001600160481b0360b81b9060b81b166022820152600b8152611e41816118bb565b8551928392839251928391611849565b8101039060025afa15611b615750600051928115611e6e57920690565b634e487b7160e01b600052601260045260246000fd5b611e9b9150863d8811610db557610da781836118d7565b38611e08565b90968382813d8311611ec9575b611eb881836118d7565b8101031261010f5750519582611dc9565b503d611eae565b8592919750611eed602491843d86116109285761091a81836118d7565b97919250611d9b565b3560ff811681036101c55790565b356001600160a01b03811681036101c55790565b903590601e19813603018212156101c5570180359067ffffffffffffffff82116101c5576020019181360383136101c557565b3561ffff811681036101c55790565b6020818303126101c557805167ffffffffffffffff918282116101c557019082601f830112156101c55781519081116118a55760405192611fa5601f8301601f1916602001856118d7565b818452602082840101116101c557611fc39160208085019101611849565b90565b908160209103126101c5575163ffffffff811681036101c55790565b903590601e19813603018212156101c5570180359067ffffffffffffffff82116101c557602001918160051b360383136101c557565b906001600160601b03809116918215611e6e57160490565b600054604051638da5cb5b60e01b81526001600160a01b03916020908290600490829086165afa9081156120d2576000916120b4575b5016330361207057565b606460405162461bcd60e51b815260206004820152602060248201527f466e2063616e206f6e6c79206265207573656420627920687562206f776e65726044820152fd5b6120cc915060203d81116104b1576104a281836118d7565b38612066565b6040513d6000823e3d90fdfea2646970667358221220e0fe742b28d1710858ef03a60d76f77a50ce25a2f4983f787a3101a0480f78d464736f6c63430008100033",
  "devdoc": {
    "kind": "dev",
    "methods": {},
    "version": 1
  },
  "userdoc": {
    "kind": "user",
    "methods": {},
    "version": 1
  },
  "storageLayout": {
    "storage": [
      {
        "astId": 15408,
        "contract": "contracts/ProofManagerV1.sol:ProofManagerV1",
        "label": "hub",
        "offset": 0,
        "slot": "0",
        "type": "t_contract(Hub)9211"
      },
      {
        "astId": 15379,
        "contract": "contracts/ProofManagerV1.sol:ProofManagerV1",
        "label": "status",
        "offset": 20,
        "slot": "0",
        "type": "t_bool"
      },
      {
        "astId": 10960,
        "contract": "contracts/ProofManagerV1.sol:ProofManagerV1",
        "label": "reqs",
        "offset": 0,
        "slot": "1",
        "type": "t_array(t_bool)4_storage"
      },
      {
        "astId": 10963,
        "contract": "contracts/ProofManagerV1.sol:ProofManagerV1",
        "label": "hashingProxy",
        "offset": 0,
        "slot": "2",
        "type": "t_contract(HashingProxy)8950"
      },
      {
        "astId": 10966,
        "contract": "contracts/ProofManagerV1.sol:ProofManagerV1",
        "label": "stakingContract",
        "offset": 0,
        "slot": "3",
        "type": "t_contract(Staking)15211"
      },
      {
        "astId": 10969,
        "contract": "contracts/ProofManagerV1.sol:ProofManagerV1",
        "label": "assertionStorage",
        "offset": 0,
        "slot": "4",
        "type": "t_contract(AssertionStorage)18073"
      },
      {
        "astId": 10972,
        "contract": "contracts/ProofManagerV1.sol:ProofManagerV1",
        "label": "identityStorage",
        "offset": 0,
        "slot": "5",
        "type": "t_contract(IdentityStorage)18485"
      },
      {
        "astId": 10975,
        "contract": "contracts/ProofManagerV1.sol:ProofManagerV1",
        "label": "parametersStorage",
        "offset": 0,
        "slot": "6",
        "type": "t_contract(ParametersStorage)19108"
      },
      {
        "astId": 10978,
        "contract": "contracts/ProofManagerV1.sol:ProofManagerV1",
        "label": "profileStorage",
        "offset": 0,
        "slot": "7",
        "type": "t_contract(ProfileStorage)19582"
      },
      {
        "astId": 10981,
        "contract": "contracts/ProofManagerV1.sol:ProofManagerV1",
        "label": "serviceAgreementStorageProxy",
        "offset": 0,
        "slot": "8",
        "type": "t_contract(ServiceAgreementStorageProxy)21098"
      }
    ],
    "types": {
      "t_array(t_bool)4_storage": {
        "base": "t_bool",
        "encoding": "inplace",
        "label": "bool[4]",
        "numberOfBytes": "32"
      },
      "t_bool": {
        "encoding": "inplace",
        "label": "bool",
        "numberOfBytes": "1"
      },
      "t_contract(AssertionStorage)18073": {
        "encoding": "inplace",
        "label": "contract AssertionStorage",
        "numberOfBytes": "20"
      },
      "t_contract(HashingProxy)8950": {
        "encoding": "inplace",
        "label": "contract HashingProxy",
        "numberOfBytes": "20"
      },
      "t_contract(Hub)9211": {
        "encoding": "inplace",
        "label": "contract Hub",
        "numberOfBytes": "20"
      },
      "t_contract(IdentityStorage)18485": {
        "encoding": "inplace",
        "label": "contract IdentityStorage",
        "numberOfBytes": "20"
      },
      "t_contract(ParametersStorage)19108": {
        "encoding": "inplace",
        "label": "contract ParametersStorage",
        "numberOfBytes": "20"
      },
      "t_contract(ProfileStorage)19582": {
        "encoding": "inplace",
        "label": "contract ProfileStorage",
        "numberOfBytes": "20"
      },
      "t_contract(ServiceAgreementStorageProxy)21098": {
        "encoding": "inplace",
        "label": "contract ServiceAgreementStorageProxy",
        "numberOfBytes": "20"
      },
      "t_contract(Staking)15211": {
        "encoding": "inplace",
        "label": "contract Staking",
        "numberOfBytes": "20"
      }
    }
  }
}