{
  "address": "0x88D43b01E99D55B73733F5a791a7a9DC82946d9f",
  "abi": [
    {
      "inputs": [
        {
          "internalType": "address",
          "name": "hubAddress",
          "type": "address"
        }
      ],
      "stateMutability": "nonpayable",
      "type": "constructor"
    },
    {
      "inputs": [
        {
          "internalType": "bytes32",
          "name": "agreementId",
          "type": "bytes32"
        },
        {
          "internalType": "uint16",
          "name": "epoch",
          "type": "uint16"
        },
        {
          "internalType": "uint256",
          "name": "stateIndex",
          "type": "uint256"
        },
        {
          "internalType": "uint72",
          "name": "identityId",
          "type": "uint72"
        },
        {
          "internalType": "bytes",
          "name": "nodeId",
          "type": "bytes"
        }
      ],
      "name": "NodeAlreadyRewarded",
      "type": "error"
    },
    {
      "inputs": [
        {
          "internalType": "bytes32",
          "name": "agreementId",
          "type": "bytes32"
        },
        {
          "internalType": "uint16",
          "name": "epoch",
          "type": "uint16"
        },
        {
          "internalType": "uint256",
          "name": "stateIndex",
          "type": "uint256"
        },
        {
          "internalType": "uint72",
          "name": "identityId",
          "type": "uint72"
        },
        {
          "internalType": "bytes",
          "name": "nodeId",
          "type": "bytes"
        },
        {
          "internalType": "uint8",
          "name": "rank",
          "type": "uint8"
        }
      ],
      "name": "NodeNotAwarded",
      "type": "error"
    },
    {
      "inputs": [
        {
          "internalType": "bytes32",
          "name": "agreementId",
          "type": "bytes32"
        },
        {
          "internalType": "uint16",
          "name": "epoch",
          "type": "uint16"
        },
        {
          "internalType": "uint256",
          "name": "stateIndex",
          "type": "uint256"
        },
        {
          "internalType": "uint256",
          "name": "proofWindowOpen",
          "type": "uint256"
        },
        {
          "internalType": "uint256",
          "name": "proofWindowClose",
          "type": "uint256"
        },
        {
          "internalType": "uint256",
          "name": "timeNow",
          "type": "uint256"
        }
      ],
      "name": "ProofWindowClosed",
      "type": "error"
    },
    {
      "inputs": [
        {
          "internalType": "bytes32",
          "name": "agreementId",
          "type": "bytes32"
        }
      ],
      "name": "ServiceAgreementDoesntExist",
      "type": "error"
    },
    {
      "inputs": [
        {
          "internalType": "bytes32",
          "name": "agreementId",
          "type": "bytes32"
        },
        {
          "internalType": "uint256",
          "name": "startTime",
          "type": "uint256"
        },
        {
          "internalType": "uint16",
          "name": "epochsNumber",
          "type": "uint16"
        },
        {
          "internalType": "uint128",
          "name": "epochLength",
          "type": "uint128"
        }
      ],
      "name": "ServiceAgreementHasBeenExpired",
      "type": "error"
    },
    {
      "inputs": [
        {
          "internalType": "bytes32",
          "name": "agreementId",
          "type": "bytes32"
        },
        {
          "internalType": "uint16",
          "name": "epoch",
          "type": "uint16"
        },
        {
          "internalType": "uint256",
          "name": "stateIndex",
          "type": "uint256"
        },
        {
          "internalType": "uint72",
          "name": "identityId",
          "type": "uint72"
        },
        {
          "internalType": "bytes",
          "name": "nodeId",
          "type": "bytes"
        },
        {
          "internalType": "bytes32[]",
          "name": "merkleProof",
          "type": "bytes32[]"
        },
        {
          "internalType": "bytes32",
          "name": "merkleRoot",
          "type": "bytes32"
        },
        {
          "internalType": "bytes32",
          "name": "chunkHash",
          "type": "bytes32"
        },
        {
          "internalType": "uint256",
          "name": "challenge",
          "type": "uint256"
        }
      ],
      "name": "WrongMerkleProof",
      "type": "error"
    },
    {
      "anonymous": false,
      "inputs": [
        {
          "indexed": true,
          "internalType": "address",
          "name": "assetContract",
          "type": "address"
        },
        {
          "indexed": true,
          "internalType": "uint256",
          "name": "tokenId",
          "type": "uint256"
        },
        {
          "indexed": false,
          "internalType": "bytes",
          "name": "keyword",
          "type": "bytes"
        },
        {
          "indexed": false,
          "internalType": "uint8",
          "name": "hashFunctionId",
          "type": "uint8"
        },
        {
          "indexed": false,
          "internalType": "uint16",
          "name": "epoch",
          "type": "uint16"
        },
        {
          "indexed": false,
          "internalType": "uint256",
          "name": "stateIndex",
          "type": "uint256"
        },
        {
          "indexed": true,
          "internalType": "uint72",
          "name": "identityId",
          "type": "uint72"
        }
      ],
      "name": "ProofSubmitted",
      "type": "event"
    },
    {
      "inputs": [],
      "name": "assertionStorage",
      "outputs": [
        {
          "internalType": "contract AssertionStorage",
          "name": "",
          "type": "address"
        }
      ],
      "stateMutability": "view",
      "type": "function"
    },
    {
      "inputs": [
        {
          "internalType": "address",
          "name": "assetContract",
          "type": "address"
        },
        {
          "internalType": "uint256",
          "name": "tokenId",
          "type": "uint256"
        },
        {
          "internalType": "uint16",
          "name": "epoch",
          "type": "uint16"
        }
      ],
      "name": "getChallenge",
      "outputs": [
        {
          "internalType": "bytes32",
          "name": "assertionId",
          "type": "bytes32"
        },
        {
          "internalType": "uint256",
          "name": "challenge",
          "type": "uint256"
        }
      ],
      "stateMutability": "view",
      "type": "function"
    },
    {
      "inputs": [],
      "name": "hashingProxy",
      "outputs": [
        {
          "internalType": "contract HashingProxy",
          "name": "",
          "type": "address"
        }
      ],
      "stateMutability": "view",
      "type": "function"
    },
    {
      "inputs": [],
      "name": "hub",
      "outputs": [
        {
          "internalType": "contract Hub",
          "name": "",
          "type": "address"
        }
      ],
      "stateMutability": "view",
      "type": "function"
    },
    {
      "inputs": [],
      "name": "identityStorage",
      "outputs": [
        {
          "internalType": "contract IdentityStorage",
          "name": "",
          "type": "address"
        }
      ],
      "stateMutability": "view",
      "type": "function"
    },
    {
      "inputs": [],
      "name": "initialize",
      "outputs": [],
      "stateMutability": "nonpayable",
      "type": "function"
    },
    {
      "inputs": [
        {
          "internalType": "bytes32",
          "name": "agreementId",
          "type": "bytes32"
        },
        {
          "internalType": "uint16",
          "name": "epoch",
          "type": "uint16"
        }
      ],
      "name": "isProofWindowOpen",
      "outputs": [
        {
          "internalType": "bool",
          "name": "",
          "type": "bool"
        }
      ],
      "stateMutability": "view",
      "type": "function"
    },
    {
      "inputs": [],
      "name": "name",
      "outputs": [
        {
          "internalType": "string",
          "name": "",
          "type": "string"
        }
      ],
      "stateMutability": "pure",
      "type": "function"
    },
    {
      "inputs": [],
      "name": "parametersStorage",
      "outputs": [
        {
          "internalType": "contract ParametersStorage",
          "name": "",
          "type": "address"
        }
      ],
      "stateMutability": "view",
      "type": "function"
    },
    {
      "inputs": [],
      "name": "profileStorage",
      "outputs": [
        {
          "internalType": "contract ProfileStorage",
          "name": "",
          "type": "address"
        }
      ],
      "stateMutability": "view",
      "type": "function"
    },
    {
      "inputs": [
        {
          "internalType": "uint256",
          "name": "",
          "type": "uint256"
        }
      ],
      "name": "reqs",
      "outputs": [
        {
          "internalType": "bool",
          "name": "",
          "type": "bool"
        }
      ],
      "stateMutability": "view",
      "type": "function"
    },
    {
      "inputs": [
        {
          "components": [
            {
              "internalType": "address",
              "name": "assetContract",
              "type": "address"
            },
            {
              "internalType": "uint256",
              "name": "tokenId",
              "type": "uint256"
            },
            {
              "internalType": "bytes",
              "name": "keyword",
              "type": "bytes"
            },
            {
              "internalType": "uint8",
              "name": "hashFunctionId",
              "type": "uint8"
            },
            {
              "internalType": "uint16",
              "name": "epoch",
              "type": "uint16"
            },
            {
              "internalType": "bytes32[]",
              "name": "proof",
              "type": "bytes32[]"
            },
            {
              "internalType": "bytes32",
              "name": "chunkHash",
              "type": "bytes32"
            }
          ],
          "internalType": "struct ServiceAgreementStructsV1.ProofInputArgs",
          "name": "args",
          "type": "tuple"
        }
      ],
      "name": "sendProof",
      "outputs": [],
      "stateMutability": "nonpayable",
      "type": "function"
    },
    {
      "inputs": [],
      "name": "serviceAgreementStorageProxy",
      "outputs": [
        {
          "internalType": "contract ServiceAgreementStorageProxy",
          "name": "",
          "type": "address"
        }
      ],
      "stateMutability": "view",
      "type": "function"
    },
    {
      "inputs": [
        {
          "internalType": "uint256",
          "name": "index",
          "type": "uint256"
        },
        {
          "internalType": "bool",
          "name": "req",
          "type": "bool"
        }
      ],
      "name": "setReq",
      "outputs": [],
      "stateMutability": "nonpayable",
      "type": "function"
    },
    {
      "inputs": [
        {
          "internalType": "bool",
          "name": "_status",
          "type": "bool"
        }
      ],
      "name": "setStatus",
      "outputs": [],
      "stateMutability": "nonpayable",
      "type": "function"
    },
    {
      "inputs": [],
      "name": "stakingContract",
      "outputs": [
        {
          "internalType": "contract Staking",
          "name": "",
          "type": "address"
        }
      ],
      "stateMutability": "view",
      "type": "function"
    },
    {
      "inputs": [],
      "name": "status",
      "outputs": [
        {
          "internalType": "bool",
          "name": "",
          "type": "bool"
        }
      ],
      "stateMutability": "view",
      "type": "function"
    },
    {
      "inputs": [],
      "name": "version",
      "outputs": [
        {
          "internalType": "string",
          "name": "",
          "type": "string"
        }
      ],
      "stateMutability": "pure",
      "type": "function"
    }
  ],
  "transactionHash": "0x934bdd2be04116f121c3cac5aae93303af2fd5d73707199eb529942d7e9bc65b",
  "args": [
    "0x224aEC6891d26e994D4Dbf207aE099ca029b3E67"
  ],
  "numDeployments": 1,
  "solcInputHash": "6736b5a2b01ed07b57366e384b7e7c88",
  "bytecode": "0x6080346200014357601f6200236c38819003918201601f19168301926001600160401b0392909190838511838610176200014857808392604096875283396020928391810103126200014357516001600160a01b038116929083900362000143578215620000ff57600080546001600160a01b03191690931783558351906080820190811182821017620000eb578452828152828282015282848201528260608201529082905b60048210620000c3575050506001555161220d90816200015f8239f35b9091928160019185511515908560031b60ff811b9283911b16911916179401920190620000a6565b634e487b7160e01b84526041600452602484fd5b835162461bcd60e51b815260048101839052601960248201527f48756220416464726573732063616e6e6f7420626520307830000000000000006044820152606490fd5b600080fd5b634e487b7160e01b600052604160045260246000fdfe608080604052600436101561001357600080fd5b600090813560e01c90816306fdde03146118f25750806311c94ee8146118c9578063200d2ed2146118a457806332c2fbf114611854578063365a86fc1461182d57806354fd4d50146117e35780635c40f6f41461179f578063639a86a3146117765780637522c2b1146105f75780637ea63c6e146105895780638129fc1c1461023457806383de896b146101f357806390b8145a146101ca578063aa6a00fd1461018d578063d210b7cf14610164578063ee99205c1461013b578063f11abfd8146101125763f42cb038146100e757600080fd5b3461010f578060031936011261010f576007546040516001600160a01b039091168152602090f35b80fd5b503461010f578060031936011261010f576005546040516001600160a01b039091168152602090f35b503461010f578060031936011261010f576003546040516001600160a01b039091168152602090f35b503461010f578060031936011261010f576004546040516001600160a01b039091168152602090f35b503461010f57604036600319011261010f5760243561ffff811681036101c5576101bb602091600435611aa7565b6040519015158152f35b600080fd5b503461010f578060031936011261010f576008546040516001600160a01b039091168152602090f35b503461010f57602036600319011261010f576004356004811015610230578060ff60209260051c6001015460f86040519360031b161c1615158152f35b5080fd5b503461010f578060031936011261010f5761024d612129565b60018060a01b0380825416906040519183630110ceef60e21b808552602092836004870152602490600c828801526044926b48617368696e6750726f787960a01b8489015260649186898481845afa98891561057e57869961055f575b50876001600160601b0360a01b9916896002541617600255604051828152876004820152600785820152665374616b696e6760c81b8682015287818581855afa80156104e05789918891610542575b50168960035416176003556040518281528760048201526010858201526f417373657274696f6e53746f7261676560801b8682015287818581855afa80156104e05789918891610525575b5016896004541617600455604051828152876004820152600f858201526e4964656e7469747953746f7261676560881b8682015287818581855afa80156104e05789918891610508575b501689600554161760055560405182815287600482015260118582015270506172616d657465727353746f7261676560781b8682015287818581855afa80156104e057899188916104eb575b5016896006541617600655604051828152876004820152600e858201526d50726f66696c6553746f7261676560901b8682015287818581855afa9586156104e0578989977f5365727669636541677265656d656e7453746f7261676550726f78790000000093601c9a916104c3575b50168b6007541617600755604051978896879586528860048701528501528301525afa9182156104b857859261048b575b505016906008541617600855604051f35b6104aa9250803d106104b1575b6104a281836119d0565b8101906119f2565b388061047a565b503d610498565b6040513d87823e3d90fd5b6104da9150893d8b116104b1576104a281836119d0565b38610449565b6040513d89823e3d90fd5b6105029150893d8b116104b1576104a281836119d0565b386103da565b61051f9150893d8b116104b1576104a281836119d0565b3861038e565b61053c9150893d8b116104b1576104a281836119d0565b38610344565b6105599150893d8b116104b1576104a281836119d0565b386102f9565b610577919950873d89116104b1576104a281836119d0565b97386102aa565b6040513d88823e3d90fd5b503461010f57604036600319011261010f576004356024358015158091036101c5576105b3612129565b60048210156105e1578160051c6001019160f883549160031b1660ff811b9283911b16911916179055604051f35b634e487b7160e01b600052603260045260246000fd5b503461010f57602036600319011261010f5767ffffffffffffffff6004351161010f5760e06004353603600319011261010f576008546002546001600160a01b03918216916106ed9160209116610652600435606401611e07565b9060ff610663600435600401611e15565b926106c2605461067d604460043501600435600401611e29565b60405160609890981b6bffffffffffffffffffffffff191689890152600435602401356034890152879181908484013781018b838201520360348101875201856119d0565b604051958694859384936345ed59e560e01b8552166004840152604060248401526044830190611965565b03915afa90811561176b578391611735575b506040516310dc199160e31b815260048101829052602081602481865afa908115610dce5784916116fa575b50156116e25760249060206001600160a01b0361074b6004803501611e15565b166040519384809263fef57daf60e01b825282600435013560048301525afa918215610dce5784926116aa575b5081600019810111610df6576001549260ff8416158061168c575b6114575760055460405163010cf48d60e71b81523360048201529190602090839060249082906001600160a01b03165afa91821561057e578692611436575b50816108376107e5608460043501611e5c565b604080516020810188905260f09290921b6001600160f01b031916908201526000198701604282015260b89290921b6001600160b81b031916606283015281606b81015b03601f1981018352826119d0565b6020815191012060ff8660081c1615806113b7575b6112fe5761085e608460043501611e5c565b61ffff604051916357e1255760e01b835286600484015216602482015260001986016044820152602081606481865afa9081156112f35788916112bd575b5060065460405163659621b560e01b815291949190602090829060049082906001600160a01b03165afa9081156112b2578991611293575b5088945b604051620153f560ea1b815260048101829052602081602481895afa908115611288578b91611269575b506001600160481b038481169116141580611257575b156109f75761092b608460043501611e5c565b60405191635b3db70f60e11b835260048301528a6020836024818a5afa80156109ea576109af6001936108298c9360ff978f96916109bb575b50604080516020810196875260f09490941b6001600160f01b03191690840152600019909501604283015260b89490941b6001600160b81b031916606282015291928290606b820190565b519020960116946108d8565b6109dd915060203d6020116109e3575b6109d581836119d0565b810190611e6b565b38610964565b503d6109cb565b50604051903d90823e3d90fd5b5086888a9660ff8260101c161580611244575b611175575060ff90610a40610a23600435600401611e15565b610a31608460043501611e5c565b90602460043501359033611f95565b92909160181c161580611017575b610ee3575050610a62600435600401611e15565b610a76604460043501600435600401611e29565b909261ffff610a89606460043501611e07565b60ff610a99608460043501611e5c565b91856040519860808a528160808b015260a08a01378c60a0878a0101521660208701521660408501526000190160608401527f55643f50949abc304fd96835e8f3a28d40d1ea5e41a1ac3d8ef593880adc679c6001600160481b0386169360a0816024600435013595600180841b031694601f80199101168101030190a4604051634089a17d60e01b815260048101879052602081602481885afa90811561057e578691610ec4575b5060405163d1a640c760e01b815260048101889052602081602481895afa9081156104e0578791610e95575b5061ffff80610b81608460043501611e5c565b1691160361ffff8111610e505761ffff600191160161ffff8111610e5057610bed9161ffff610bb1921690611f67565b916020610bc2608460043501611e5c565b604051632b275f3d60e21b8152600481018b905261ffff909116602482015292839081906044820190565b0381895afa9182156104e0578792610e64575b5063ffffffff80809316911603818111610e5057610c2092911690611f67565b6003546001600160a01b03169190823b15610e4c576001600160481b0391606488886001600160601b0381956040519788968795633277e5f760e11b8752600487015216602485015216968760448401525af180156104b857610e39575b50604051634089a17d60e01b815260048101869052602081602481875afa9081156104b857906001600160601b03918691610e0a575b501603936001600160601b038511610df6578394833b15610dd9576001600160601b036040519163e54b26ff60e01b8352836004840152166024820152848160448183885af19081156104b8578591610ddd575b5050610d18608460043501611e5c565b90833b15610dd95760405163beca40f360e01b8152600481019190915261ffff919091166024820152838160448183875af1908115610dce578491610dba575b5050813b15610db6578291604483926040519485938492631eb18b8b60e11b845260048401528160248401525af18015610dab57610d97575b50604051f35b610da09061198a565b61010f578082610d91565b6040513d84823e3d90fd5b5050fd5b610dc39061198a565b610db6578285610d58565b6040513d86823e3d90fd5b8480fd5b610de69061198a565b610df1578386610d08565b505050fd5b634e487b7160e01b84526011600452602484fd5b610e2c915060203d602011610e32575b610e2481836119d0565b810190611f48565b87610cb4565b503d610e1a565b610e459094919461198a565b9285610c7e565b8580fd5b634e487b7160e01b87526011600452602487fd5b610e8791925060203d602011610e8e575b610e7f81836119d0565b810190611ef6565b9088610c00565b503d610e75565b610eb7915060203d602011610ebd575b610eaf81836119d0565b810190611a11565b88610b6e565b503d610ea5565b610edd915060203d602011610e3257610e2481836119d0565b87610b42565b88918891866024610ef8608460043501611e5c565b6007546040516320e085cd60e11b81526001600160481b038516600482015291939192879184919082906001600160a01b03165afa91821561057e579160049891610f9f938892610fec575b506001600160481b03919261ffff610f6360a48d35018d358e01611f12565b97909b6040519d8e63f7c6048760e01b815201521660248c01526000190160448b01521660648901526101206084890152610124880190611965565b8681036003190160a4880152818152936001600160fb1b03821161010f5750918593916020959360051b80948785013760c485015260c4600435013560e485015261010484015201030190fd5b6001600160481b039250611011903d808b833e61100981836119d0565b810190611e8a565b91610f44565b50979390959261103460a460049794973501600435600401611f12565b6040979197519760c4600435013560208a01528960408a01526040895288606081011067ffffffffffffffff60608b0111176111615760608901604052885160208a01209167ffffffffffffffff811161114d578060051b9061109d6020830160608d016119d0565b60608b015260808a019036818401116111495782915b818401831061113957505050509789985b60608901518a10156111255760808a60051b8a01015190818110600014611116578b5260205260408a205b98600019811461110257600101986110c4565b634e487b7160e01b8b52601160045260248bfd5b908b5260205260408a206110ef565b9093969a9295985082919497501415610a4e565b82358152602092830192016110b3565b8c80fd5b634e487b7160e01b8c52604160045260248cfd5b634e487b7160e01b8b52604160045260248bfd5b8891508785611188608460043501611e5c565b946001600160481b038360018060a01b0360075416936024604051809481936320e085cd60e11b835216968760048301525afa938415611238579161121093918360ff9661121b575b505061ffff604051988998636806074560e01b8a5260048a0152166024880152600019016044870152606486015260c0608486015260c4850190611965565b911660a48301520390fd5b6112309294503d8091833e61100981836119d0565b9188806111d1565b604051903d90823e3d90fd5b5063ffffffff841660ff82161015610a0a565b5063ffffffff821660ff871610610918565b611282915060203d6020116109e3576109d581836119d0565b38610902565b6040513d8d823e3d90fd5b6112ac915060203d602011610e8e57610e7f81836119d0565b386108d4565b6040513d8b823e3d90fd5b90506020813d6020116112eb575b816112d8602093836119d0565b810103126112e757513861089c565b8780fd5b3d91506112cb565b6040513d8a823e3d90fd5b8685856001600160481b0386611318608460043501611e5c565b938560018060a01b0360075416926024604051809681936320e085cd60e11b835216958660048301525afa92831561057e57866113969596979461139a575b505061ffff604051968796634755f22560e01b88526004880152166024860152600019016044850152606484015260a0608484015260a4830190611965565b0390fd5b6113af9294503d8091833e61100981836119d0565b918680611357565b50604051635c6c1fef60e01b815260048101829052602081602481865afa80156112f35788906113f1575b64ffffffffff9150161561084c565b506020813d60201161142e575b8161140b602093836119d0565b810103126112e7575164ffffffffff811681036112e75764ffffffffff906113e2565b3d91506113fe565b61145091925060203d6020116109e3576109d581836119d0565b90386107d2565b84926040519163484a47e760e01b8352836004840152602083602481845afa9283156104b857859361165b575b50604051630271c2cf60e61b81526004810185905290602082602481845afa91821561057e578692611626575b5060206114e46024936001600160801b036114dd8861ffff6114d7608460043501611e5c565b16611a63565b1690611a9a565b91604051938480926399149f7760e01b82528960048301525afa801561057e5760646001600160801b036115288760ff8395611531988d91611607575b5016611a63565b16041690611a9a565b90611540608460043501611e5c565b60065460405163274f3ac360e21b815291949190602090829060049082906001600160a01b03165afa9081156104e05760646001600160801b0361159861ffff9560ff6115a196849660c49e916115d8575016611a63565b16041684611a9a565b604051638b98b4a760e01b8152600481019690965293166024850152600019016044840152606483015260848201524260a4820152fd5b6115fa915060203d602011611600575b6115f281836119d0565b810190611a4a565b8e611521565b503d6115e8565b611620915060203d602011611600576115f281836119d0565b8d611521565b91506020823d602011611653575b81611641602093836119d0565b81010312610e4c5790519060206114b1565b3d9150611634565b61167e91935060203d602011611685575b61167681836119d0565b810190611a2b565b9185611484565b503d61166c565b506116a461169e608460043501611e5c565b83611aa7565b15610793565b9091506020813d6020116116da575b816116c6602093836119d0565b810103126116d657519038610778565b8380fd5b3d91506116b9565b60249060405190635013c2b960e01b82526004820152fd5b90506020813d60201161172d575b81611715602093836119d0565b810103126116d6575180151581036116d6573861072b565b3d9150611708565b90506020813d602011611763575b81611750602093836119d0565b8101031261175f5751386106ff565b8280fd5b3d9150611743565b6040513d85823e3d90fd5b503461010f578060031936011261010f576006546040516001600160a01b039091168152602090f35b503461010f57602036600319011261010f57600435801515809103610230576117c6612129565b815460ff60a01b191660a09190911b60ff60a01b16178155604051f35b503461010f578060031936011261010f57611829604051611803816119b4565b60058152640312e302e360dc1b6020820152604051918291602083526020830190611965565b0390f35b503461010f578060031936011261010f57546040516001600160a01b039091168152602090f35b503461010f57606036600319011261010f576004356001600160a01b0381168103610230576044359161ffff8316830361010f576040611898846024358533611f95565b82519182526020820152f35b503461010f578060031936011261010f5760ff6020915460a01c166040519015158152f35b503461010f578060031936011261010f576002546040516001600160a01b039091168152602090f35b90503461023057816003193601126102305780611911611829926119b4565b601081526f50726f6f664d616e616765725631553160801b6020820152604051918291602083526020830190611965565b60005b8381106119555750506000910152565b8181015183820152602001611945565b9060209161197e81518092818552858086019101611942565b601f01601f1916010190565b67ffffffffffffffff811161199e57604052565b634e487b7160e01b600052604160045260246000fd5b6040810190811067ffffffffffffffff82111761199e57604052565b90601f8019910116810190811067ffffffffffffffff82111761199e57604052565b908160209103126101c557516001600160a01b03811681036101c55790565b908160209103126101c5575161ffff811681036101c55790565b908160209103126101c557516001600160801b03811681036101c55790565b908160209103126101c5575160ff811681036101c55790565b6001600160801b039182809216918291169204821181151516611a84570290565b634e487b7160e01b600052601160045260246000fd5b91908201809211611a8457565b60085460408051630271c2cf60e61b81526004808201859052602495946001600160a01b03949293926020919086169082868a81855afa958615611dfc57600096611dcd575b508515611db85784519763d1a640c760e01b808a5282868b0152848a8c81875afa998a15611dad5760009a611d8e575b5061ffff808093169a168a1015611cba575050845163484a47e760e01b815284810182905298838a8281865afa998a15611caf5760009a611c8c575b509083918651809481936399149f7760e01b8352888301525afa908115611c81579160ff60648293611ba4979695600091611c64575b506001600160801b039788938492168d611a63565b160416966006541684519384809263274f3ac360e21b82525afa928315611c5a5750611be360ff85946064948694600092611c3d575b50501689611a63565b16041693611c0584611c0084611bf9858b611a63565b1686611a9a565b611a9a565b4210159586611c18575b50505050505090565b611c309650916114dd611c00959492611c0094611a63565b4210388080808080611c0f565b611c539250803d10611600576115f281836119d0565b3880611bda565b513d6000823e3d90fd5b611c7b9150843d8611611600576115f281836119d0565b38611b8f565b84513d6000823e3d90fd5b8492919a50611ca790833d85116116855761167681836119d0565b999091611b59565b86513d6000823e3d90fd5b879193928b918851908152818882015286818481885afa948515611d60578791600096611d6b575b509083918a519283809263484a47e760e01b8252868d8301525afa968715611d6057986001600160801b039796959493929160849a600098611d41575b505051631b18d90960e31b815297880152860152166044840152166064820152fd5b611d58929850803d106116855761167681836119d0565b958a80611d1f565b89513d6000823e3d90fd5b82919650611d869085933d8411610ebd57610eaf81836119d0565b959091611ce2565b611da6919a50853d8711610ebd57610eaf81836119d0565b9838611b1d565b87513d6000823e3d90fd5b838991865191635013c2b960e01b8352820152fd5b90958382813d8311611df5575b611de481836119d0565b8101031261010f5750519438611aed565b503d611dda565b85513d6000823e3d90fd5b3560ff811681036101c55790565b356001600160a01b03811681036101c55790565b903590601e19813603018212156101c5570180359067ffffffffffffffff82116101c5576020019181360383136101c557565b3561ffff811681036101c55790565b908160209103126101c557516001600160481b03811681036101c55790565b6020818303126101c557805167ffffffffffffffff918282116101c557019082601f830112156101c557815190811161199e5760405192611ed5601f8301601f1916602001856119d0565b818452602082840101116101c557611ef39160208085019101611942565b90565b908160209103126101c5575163ffffffff811681036101c55790565b903590601e19813603018212156101c5570180359067ffffffffffffffff82116101c557602001918160051b360383136101c557565b908160209103126101c557516001600160601b03811681036101c55790565b906001600160601b03809116918215611f7f57160490565b634e487b7160e01b600052601260045260246000fd5b6005546040805163010cf48d60e71b81526001600160a01b03938416600482015292969592949093602093929091908490879060249082908c165afa958615611dfc5790889291600097612103575b50906024859287519a8b93849263cede992f60e01b84526004840152165afa968715611c81576000976120d4575b508260249160045416855192838092632111070960e01b82528b60048301525afa908115611c8157916001600160601b0361209a9260009485916120b7575b5016958551908582019261ffff60f01b9060f01b1683526001600160481b0360b81b9060b81b166022820152600b815261208a816119b4565b8551928392839251928391611942565b8101039060025afa15611c5a5750600051928115611f7f57920690565b6120ce9150863d8811610e3257610e2481836119d0565b38612051565b90968382813d83116120fc575b6120eb81836119d0565b8101031261010f5750519582612012565b503d6120e1565b8592919750612120602491843d86116109e3576109d581836119d0565b97919250611fe4565b600054604051638da5cb5b60e01b81526001600160a01b03916020908290600490829086165afa9081156121cb576000916121ad575b5016330361216957565b606460405162461bcd60e51b815260206004820152602060248201527f466e2063616e206f6e6c79206265207573656420627920687562206f776e65726044820152fd5b6121c5915060203d81116104b1576104a281836119d0565b3861215f565b6040513d6000823e3d90fdfea26469706673582212200b2cf6de498933adcae426644c131a758d7be13eae18f0e8de7147f96410183364736f6c63430008100033",
  "devdoc": {
    "kind": "dev",
    "methods": {},
    "version": 1
  },
  "userdoc": {
    "kind": "user",
    "methods": {},
    "version": 1
  },
  "storageLayout": {
    "storage": [
      {
        "astId": 15408,
        "contract": "contracts/ProofManagerV1U1.sol:ProofManagerV1U1",
        "label": "hub",
        "offset": 0,
        "slot": "0",
        "type": "t_contract(Hub)9211"
      },
      {
        "astId": 15379,
        "contract": "contracts/ProofManagerV1U1.sol:ProofManagerV1U1",
        "label": "status",
        "offset": 20,
        "slot": "0",
        "type": "t_bool"
      },
      {
        "astId": 11710,
        "contract": "contracts/ProofManagerV1U1.sol:ProofManagerV1U1",
        "label": "reqs",
        "offset": 0,
        "slot": "1",
        "type": "t_array(t_bool)4_storage"
      },
      {
        "astId": 11713,
        "contract": "contracts/ProofManagerV1U1.sol:ProofManagerV1U1",
        "label": "hashingProxy",
        "offset": 0,
        "slot": "2",
        "type": "t_contract(HashingProxy)8950"
      },
      {
        "astId": 11716,
        "contract": "contracts/ProofManagerV1U1.sol:ProofManagerV1U1",
        "label": "stakingContract",
        "offset": 0,
        "slot": "3",
        "type": "t_contract(Staking)15211"
      },
      {
        "astId": 11719,
        "contract": "contracts/ProofManagerV1U1.sol:ProofManagerV1U1",
        "label": "assertionStorage",
        "offset": 0,
        "slot": "4",
        "type": "t_contract(AssertionStorage)18073"
      },
      {
        "astId": 11722,
        "contract": "contracts/ProofManagerV1U1.sol:ProofManagerV1U1",
        "label": "identityStorage",
        "offset": 0,
        "slot": "5",
        "type": "t_contract(IdentityStorage)18485"
      },
      {
        "astId": 11725,
        "contract": "contracts/ProofManagerV1U1.sol:ProofManagerV1U1",
        "label": "parametersStorage",
        "offset": 0,
        "slot": "6",
        "type": "t_contract(ParametersStorage)19108"
      },
      {
        "astId": 11728,
        "contract": "contracts/ProofManagerV1U1.sol:ProofManagerV1U1",
        "label": "profileStorage",
        "offset": 0,
        "slot": "7",
        "type": "t_contract(ProfileStorage)19582"
      },
      {
        "astId": 11731,
        "contract": "contracts/ProofManagerV1U1.sol:ProofManagerV1U1",
        "label": "serviceAgreementStorageProxy",
        "offset": 0,
        "slot": "8",
        "type": "t_contract(ServiceAgreementStorageProxy)21098"
      }
    ],
    "types": {
      "t_array(t_bool)4_storage": {
        "base": "t_bool",
        "encoding": "inplace",
        "label": "bool[4]",
        "numberOfBytes": "32"
      },
      "t_bool": {
        "encoding": "inplace",
        "label": "bool",
        "numberOfBytes": "1"
      },
      "t_contract(AssertionStorage)18073": {
        "encoding": "inplace",
        "label": "contract AssertionStorage",
        "numberOfBytes": "20"
      },
      "t_contract(HashingProxy)8950": {
        "encoding": "inplace",
        "label": "contract HashingProxy",
        "numberOfBytes": "20"
      },
      "t_contract(Hub)9211": {
        "encoding": "inplace",
        "label": "contract Hub",
        "numberOfBytes": "20"
      },
      "t_contract(IdentityStorage)18485": {
        "encoding": "inplace",
        "label": "contract IdentityStorage",
        "numberOfBytes": "20"
      },
      "t_contract(ParametersStorage)19108": {
        "encoding": "inplace",
        "label": "contract ParametersStorage",
        "numberOfBytes": "20"
      },
      "t_contract(ProfileStorage)19582": {
        "encoding": "inplace",
        "label": "contract ProfileStorage",
        "numberOfBytes": "20"
      },
      "t_contract(ServiceAgreementStorageProxy)21098": {
        "encoding": "inplace",
        "label": "contract ServiceAgreementStorageProxy",
        "numberOfBytes": "20"
      },
      "t_contract(Staking)15211": {
        "encoding": "inplace",
        "label": "contract Staking",
        "numberOfBytes": "20"
      }
    }
  }
}