{
  "address": "0x213d60FbAf3a2a4E6151Fd9a996a7423D85aeC77",
  "abi": [
    {
      "inputs": [
        {
          "internalType": "address",
          "name": "hubAddress",
          "type": "address"
        }
      ],
      "stateMutability": "nonpayable",
      "type": "constructor"
    },
    {
      "anonymous": false,
      "inputs": [
        {
          "indexed": true,
          "internalType": "uint8",
          "name": "scoreFunctionId",
          "type": "uint8"
        },
        {
          "indexed": false,
          "internalType": "address",
          "name": "newContractAddress",
          "type": "address"
        }
      ],
      "name": "NewScoringFunctionContract",
      "type": "event"
    },
    {
      "anonymous": false,
      "inputs": [
        {
          "indexed": true,
          "internalType": "uint8",
          "name": "scoreFunctionId",
          "type": "uint8"
        },
        {
          "indexed": false,
          "internalType": "address",
          "name": "newContractAddress",
          "type": "address"
        }
      ],
      "name": "ScoringFunctionContractUpdated",
      "type": "event"
    },
    {
      "inputs": [
        {
          "internalType": "uint8",
          "name": "scoreFunctionId",
          "type": "uint8"
        },
        {
          "internalType": "uint8",
          "name": "hashFunctionId",
          "type": "uint8"
        },
        {
          "internalType": "bytes",
          "name": "nodeId",
          "type": "bytes"
        },
        {
          "internalType": "bytes",
          "name": "keyword",
          "type": "bytes"
        },
        {
          "internalType": "uint96",
          "name": "stake",
          "type": "uint96"
        }
      ],
      "name": "callScoreFunction",
      "outputs": [
        {
          "internalType": "uint40",
          "name": "",
          "type": "uint40"
        }
      ],
      "stateMutability": "view",
      "type": "function"
    },
    {
      "inputs": [],
      "name": "getAllScoreFunctions",
      "outputs": [
        {
          "components": [
            {
              "internalType": "uint8",
              "name": "id",
              "type": "uint8"
            },
            {
              "internalType": "address",
              "name": "addr",
              "type": "address"
            }
          ],
          "internalType": "struct UnorderedIndexableContractDynamicSetLib.Contract[]",
          "name": "",
          "type": "tuple[]"
        }
      ],
      "stateMutability": "view",
      "type": "function"
    },
    {
      "inputs": [
        {
          "internalType": "uint8",
          "name": "scoreFunctionId",
          "type": "uint8"
        }
      ],
      "name": "getScoreFunctionContractAddress",
      "outputs": [
        {
          "internalType": "address",
          "name": "",
          "type": "address"
        }
      ],
      "stateMutability": "view",
      "type": "function"
    },
    {
      "inputs": [
        {
          "internalType": "uint8",
          "name": "scoreFunctionId",
          "type": "uint8"
        }
      ],
      "name": "getScoreFunctionName",
      "outputs": [
        {
          "internalType": "string",
          "name": "",
          "type": "string"
        }
      ],
      "stateMutability": "view",
      "type": "function"
    },
    {
      "inputs": [],
      "name": "hub",
      "outputs": [
        {
          "internalType": "contract Hub",
          "name": "",
          "type": "address"
        }
      ],
      "stateMutability": "view",
      "type": "function"
    },
    {
      "inputs": [
        {
          "internalType": "uint8",
          "name": "scoreFunctionId",
          "type": "uint8"
        }
      ],
      "name": "isScoreFunction",
      "outputs": [
        {
          "internalType": "bool",
          "name": "",
          "type": "bool"
        }
      ],
      "stateMutability": "view",
      "type": "function"
    },
    {
      "inputs": [],
      "name": "name",
      "outputs": [
        {
          "internalType": "string",
          "name": "",
          "type": "string"
        }
      ],
      "stateMutability": "pure",
      "type": "function"
    },
    {
      "inputs": [
        {
          "internalType": "uint8",
          "name": "scoreFunctionId",
          "type": "uint8"
        }
      ],
      "name": "removeContract",
      "outputs": [],
      "stateMutability": "nonpayable",
      "type": "function"
    },
    {
      "inputs": [
        {
          "internalType": "uint8",
          "name": "scoreFunctionId",
          "type": "uint8"
        },
        {
          "internalType": "address",
          "name": "scoringContractAddress",
          "type": "address"
        }
      ],
      "name": "setContractAddress",
      "outputs": [],
      "stateMutability": "nonpayable",
      "type": "function"
    },
    {
      "inputs": [
        {
          "internalType": "bool",
          "name": "_status",
          "type": "bool"
        }
      ],
      "name": "setStatus",
      "outputs": [],
      "stateMutability": "nonpayable",
      "type": "function"
    },
    {
      "inputs": [],
      "name": "status",
      "outputs": [
        {
          "internalType": "bool",
          "name": "",
          "type": "bool"
        }
      ],
      "stateMutability": "view",
      "type": "function"
    },
    {
      "inputs": [],
      "name": "version",
      "outputs": [
        {
          "internalType": "string",
          "name": "",
          "type": "string"
        }
      ],
      "stateMutability": "pure",
      "type": "function"
    }
  ],
  "transactionHash": "0x405649f977649dd8de5045c892605254cf011fec9cd4344827e70ed55d3af6de",
  "args": [
    "0x224aEC6891d26e994D4Dbf207aE099ca029b3E67"
  ],
  "numDeployments": 1,
  "solcInputHash": "6736b5a2b01ed07b57366e384b7e7c88",
  "bytecode": "0x6080346100bf57601f610f1138819003918201601f19168301916001600160401b038311848410176100c4578084926020946040528339810103126100bf57516001600160a01b038116908190036100bf57801561007a57600080546001600160a01b031916919091179055604051610e3690816100db8239f35b60405162461bcd60e51b815260206004820152601960248201527f48756220416464726573732063616e6e6f7420626520307830000000000000006044820152606490fd5b600080fd5b634e487b7160e01b600052604160045260246000fdfe60806040908082526004908136101561001757600080fd5b600090813560e01c90816306fdde0314610983575080630b47a008146107bd578063200d2ed214610798578063365a86fc1461077057806354fd4d5014610733578063588372aa146106405780635c40f6f4146105fe578063893d3fc0146105c55780638b6602d814610446578063c413e5be146101e3578063e12e56a7146101b05763eaf57a4e146100a957600080fd5b346101ad57806003193601126101ad576002549167ffffffffffffffff831161019a575091908151926020936100e4858460051b0182610a8b565b8281526002825284810192827f405787fa12a823e0f2b7631cc41b3ba8828b3321ca811111fa75cd3aa3bb5ace855b8383106101725750505050835194859481860192828752518093528086019493905b8382106101425786860387f35b8451805160ff1687528301516001600160a01b031686840152879650948501949382019360019190910190610135565b6001898192610186859c99989a9b9c610d0b565b815201920192019190979695939497610113565b634e487b7160e01b825260419052602490fd5b80fd5b5082346101df5760203660031901126101df576020906101d66101d1610a16565b610d74565b90519015158152f35b5080fd5b509190346104425781600319360112610442576101fe610a16565b602435916001600160a01b0383169081840361043e5761021c610ace565b61022583610d74565b156102c257506102936102bf939261026f6102999387518181527fe2dcdbd6453b0466368d1ccccaa259e2e0b98656fbd2067d8d42578850e7e63f602060ff861692a21515610b9c565b61028061027b82610d74565b610c99565b60ff166000526001602052604060002090565b54610bfc565b508054610100600160a81b03191660089290921b610100600160a81b0316919091179055565b51f35b9493925060ff821691827fc6cd47d9d457746d0ded074885432d127a1bb30a241fa26040bf0a4f43852b4360208651858152a282156103ef57610306821515610b9c565b61030f81610d74565b61038657906103319160025492839160ff166000526001602052604060002090565b5583519261033e84610a59565b8352602083015268010000000000000000811015610373576102bf9293945080600161036d9201600255610bfc565b90610c49565b634e487b7160e01b845260418552602484fd5b835162461bcd60e51b8152602081880152603b60248201527f496e64657861626c65436f6e74726163745365743a20436f6e7472616374207760448201527f69746820676976656e20494420616c72656164792065786973747300000000006064820152608490fd5b835162461bcd60e51b8152602081880152602360248201527f496e64657861626c65436f6e74726163745365743a2049442063616e6f74206260448201526206520360ec1b6064820152608490fd5b8580fd5b8280fd5b50919034610442576020806003193601126105c157610463610a16565b9061046c610ace565b61047861027b83610d74565b61048f8260ff166000526001602052604060002090565b546002546000199391908481019081116105ae57906104b96104b389959493610bfc565b50610d0b565b83810151885163af640d0f60e01b815291949190829082908a9082906001600160a01b03165afa9182156105a4578692610564575b50509261036d82610280936105136105199760ff166000526001602052604060002090565b55610bfc565b55600254801561055157019061052e82610bfc565b91909161053f575083905560025551f35b634e487b7160e01b8552849052602484fd5b634e487b7160e01b855260318352602485fd5b90809250813d831161059d575b61057b8183610a8b565b8101031261059957519260ff84168403610599579261036d826104ee565b8480fd5b503d610571565b89513d88823e3d90fd5b634e487b7160e01b885260118652602488fd5b8380fd5b5082346101df5760203660031901126101df576020906001600160a01b03826105f46105ef610a16565b610d33565b0151169051908152f35b50919034610442576020366003190112610442573580151580910361044257610625610ace565b825460ff60a01b191660a09190911b60ff60a01b1617825551f35b5082346101df57602091826003193601126101ad5783816001600160a01b038561066b6105ef610a16565b0151168451968780926306fdde0360e01b82525afa93841561072957829461069f575b83518061069b87826109ea565b0390f35b90919293503d8084873e6106b38187610a8b565b85019281868503126101ad57855167ffffffffffffffff9687821161044257019284601f850112156101df57835196871161019a57508451936106ff601f8801601f1916840186610a8b565b8685528287850101116101ad575093610720918561069b96850191016109c7565b9083808061068e565b83513d84823e3d90fd5b5082346101df57816003193601126101df57805161069b9161075482610a59565b6005825264312e302e3160d81b602083015251918291826109ea565b5082346101df57816003193601126101df57905490516001600160a01b039091168152602090f35b5082346101df57816003193601126101df5760ff6020925460a01c1690519015158152f35b5082346101df576003199160a0368401126101ad576107da610a16565b936024359060ff82168092036104425767ffffffffffffffff916044358381116105995761080b9036908401610a2b565b97909360643590811161043e576108259036908501610a2b565b989092608435986bffffffffffffffffffffffff8a16809a0361097f576108989060209b8c958661085c60018060a01b0392610d33565b015116966108898c519a8b9788976313a70cb160e11b89528c890152606060248901526064880191610aad565b92858403016044860152610aad565b0381845afa9283156109755790879392918593610940575b50906044918651978894859363a0db80ad60e01b855284015260248301525afa9283156109345781936108ee575b505064ffffffffff905191168152f35b909192508381813d831161092d575b6109078183610a8b565b810103126101df57519064ffffffffff821682036101ad57509064ffffffffff846108de565b503d6108fd565b509051903d90823e3d90fd5b809293508491943d831161096e575b6109598183610a8b565b810103126105c15751869290919060446108b0565b503d61094f565b85513d86823e3d90fd5b8780fd5b9050833461044257826003193601126104425761069b92506109a482610a59565b600c82526b53636f72696e6750726f787960a01b602083015251918291826109ea565b60005b8381106109da5750506000910152565b81810151838201526020016109ca565b60409160208252610a0a81518092816020860152602086860191016109c7565b601f01601f1916010190565b6004359060ff82168203610a2657565b600080fd5b9181601f84011215610a265782359167ffffffffffffffff8311610a265760208381860195010111610a2657565b6040810190811067ffffffffffffffff821117610a7557604052565b634e487b7160e01b600052604160045260246000fd5b90601f8019910116810190811067ffffffffffffffff821117610a7557604052565b908060209392818452848401376000828201840152601f01601f1916010190565b60008054604051638da5cb5b60e01b81526020926001600160a01b039284908390600490829087165afa918215610b8f578192610b55575b5050163303610b125750565b6064906040519062461bcd60e51b825280600483015260248201527f466e2063616e206f6e6c79206265207573656420627920687562206f776e65726044820152fd5b9091508381813d8311610b88575b610b6d8183610a8b565b810103126101df57519082821682036101ad57503880610b06565b503d610b63565b50604051903d90823e3d90fd5b15610ba357565b60405162461bcd60e51b815260206004820152602b60248201527f496e64657861626c65436f6e74726163745365743a204164647265737320636160448201526a06e6e6f74206265203078360ac1b6064820152608490fd5b600254811015610c335760026000527f405787fa12a823e0f2b7631cc41b3ba8828b3321ca811111fa75cd3aa3bb5ace0190600090565b634e487b7160e01b600052603260045260246000fd5b90610c8357815181546020909301516001600160a81b031990931660ff919091161760089290921b610100600160a81b0316919091179055565b634e487b7160e01b600052600060045260246000fd5b15610ca057565b60405162461bcd60e51b815260206004820152603b60248201527f496e64657861626c65436f6e74726163745365743a20436f6e7472616374207760448201527f69746820676976656e20494420646f65736e27742065786973747300000000006064820152608490fd5b90604051610d1881610a59565b915460ff8116835260081c6001600160a01b03166020830152565b60ff9060006020604051610d4681610a59565b8281520152610d5761027b82610da5565b166000526001602052610d716104b3604060002054610bfc565b90565b60025415610d9f5760ff1680600052600160205260ff610d98604060002054610bfc565b5054161490565b50600090565b600254908115610df95760ff169081600052600160205260406000205490811015610c335760026000527f405787fa12a823e0f2b7631cc41b3ba8828b3321ca811111fa75cd3aa3bb5ace015460ff161490565b505060009056fea2646970667358221220c141b0c5d08d2c8ba4fdbd4449e8aee44ca03631eac7c13ba7892e661287a01764736f6c63430008100033",
  "devdoc": {
    "kind": "dev",
    "methods": {},
    "version": 1
  },
  "userdoc": {
    "kind": "user",
    "methods": {},
    "version": 1
  },
  "storageLayout": {
    "storage": [
      {
        "astId": 15408,
        "contract": "contracts/ScoringProxy.sol:ScoringProxy",
        "label": "hub",
        "offset": 0,
        "slot": "0",
        "type": "t_contract(Hub)9211"
      },
      {
        "astId": 15379,
        "contract": "contracts/ScoringProxy.sol:ScoringProxy",
        "label": "status",
        "offset": 20,
        "slot": "0",
        "type": "t_bool"
      },
      {
        "astId": 12477,
        "contract": "contracts/ScoringProxy.sol:ScoringProxy",
        "label": "scoreFunctionSet",
        "offset": 0,
        "slot": "1",
        "type": "t_struct(Set)24090_storage"
      }
    ],
    "types": {
      "t_address": {
        "encoding": "inplace",
        "label": "address",
        "numberOfBytes": "20"
      },
      "t_array(t_struct(Contract)24081_storage)dyn_storage": {
        "base": "t_struct(Contract)24081_storage",
        "encoding": "dynamic_array",
        "label": "struct UnorderedIndexableContractDynamicSetLib.Contract[]",
        "numberOfBytes": "32"
      },
      "t_bool": {
        "encoding": "inplace",
        "label": "bool",
        "numberOfBytes": "1"
      },
      "t_contract(Hub)9211": {
        "encoding": "inplace",
        "label": "contract Hub",
        "numberOfBytes": "20"
      },
      "t_mapping(t_uint8,t_uint256)": {
        "encoding": "mapping",
        "key": "t_uint8",
        "label": "mapping(uint8 => uint256)",
        "numberOfBytes": "32",
        "value": "t_uint256"
      },
      "t_struct(Contract)24081_storage": {
        "encoding": "inplace",
        "label": "struct UnorderedIndexableContractDynamicSetLib.Contract",
        "members": [
          {
            "astId": 24078,
            "contract": "contracts/ScoringProxy.sol:ScoringProxy",
            "label": "id",
            "offset": 0,
            "slot": "0",
            "type": "t_uint8"
          },
          {
            "astId": 24080,
            "contract": "contracts/ScoringProxy.sol:ScoringProxy",
            "label": "addr",
            "offset": 1,
            "slot": "0",
            "type": "t_address"
          }
        ],
        "numberOfBytes": "32"
      },
      "t_struct(Set)24090_storage": {
        "encoding": "inplace",
        "label": "struct UnorderedIndexableContractDynamicSetLib.Set",
        "members": [
          {
            "astId": 24085,
            "contract": "contracts/ScoringProxy.sol:ScoringProxy",
            "label": "indexPointers",
            "offset": 0,
            "slot": "0",
            "type": "t_mapping(t_uint8,t_uint256)"
          },
          {
            "astId": 24089,
            "contract": "contracts/ScoringProxy.sol:ScoringProxy",
            "label": "contractList",
            "offset": 0,
            "slot": "1",
            "type": "t_array(t_struct(Contract)24081_storage)dyn_storage"
          }
        ],
        "numberOfBytes": "64"
      },
      "t_uint256": {
        "encoding": "inplace",
        "label": "uint256",
        "numberOfBytes": "32"
      },
      "t_uint8": {
        "encoding": "inplace",
        "label": "uint8",
        "numberOfBytes": "1"
      }
    }
  }
}