{
  "address": "0xc3b7b107F40287e686C9B0D5333E28285A735F4E",
  "abi": [
    {
      "inputs": [
        {
          "internalType": "address",
          "name": "hubAddress",
          "type": "address"
        }
      ],
      "stateMutability": "nonpayable",
      "type": "constructor"
    },
    {
      "anonymous": false,
      "inputs": [
        {
          "indexed": true,
          "internalType": "address",
          "name": "custodian",
          "type": "address"
        },
        {
          "indexed": false,
          "internalType": "uint256",
          "name": "amount",
          "type": "uint256"
        }
      ],
      "name": "MisplacedOTPWithdrawn",
      "type": "event"
    },
    {
      "anonymous": false,
      "inputs": [
        {
          "indexed": true,
          "internalType": "address",
          "name": "custodian",
          "type": "address"
        },
        {
          "indexed": false,
          "internalType": "address",
          "name": "tokenContract",
          "type": "address"
        },
        {
          "indexed": false,
          "internalType": "uint256",
          "name": "amount",
          "type": "uint256"
        }
      ],
      "name": "MisplacedTokensWithdrawn",
      "type": "event"
    },
    {
      "anonymous": false,
      "inputs": [
        {
          "indexed": true,
          "internalType": "address",
          "name": "custodian",
          "type": "address"
        },
        {
          "indexed": false,
          "internalType": "uint256",
          "name": "amount",
          "type": "uint256"
        }
      ],
      "name": "TokenTransferred",
      "type": "event"
    },
    {
      "inputs": [
        {
          "internalType": "bytes32",
          "name": "commitId",
          "type": "bytes32"
        },
        {
          "internalType": "uint72",
          "name": "identityId",
          "type": "uint72"
        },
        {
          "internalType": "uint72",
          "name": "prevIdentityId",
          "type": "uint72"
        },
        {
          "internalType": "uint72",
          "name": "nextIdentityId",
          "type": "uint72"
        },
        {
          "internalType": "uint40",
          "name": "score",
          "type": "uint40"
        }
      ],
      "name": "createEpochStateCommitSubmissionObject",
      "outputs": [],
      "stateMutability": "nonpayable",
      "type": "function"
    },
    {
      "inputs": [
        {
          "internalType": "bytes32",
          "name": "agreementId",
          "type": "bytes32"
        },
        {
          "internalType": "uint256",
          "name": "startTime",
          "type": "uint256"
        },
        {
          "internalType": "uint16",
          "name": "epochsNumber",
          "type": "uint16"
        },
        {
          "internalType": "uint128",
          "name": "epochLength",
          "type": "uint128"
        },
        {
          "internalType": "uint96",
          "name": "tokenAmount",
          "type": "uint96"
        },
        {
          "internalType": "uint8",
          "name": "scoreFunctionId",
          "type": "uint8"
        },
        {
          "internalType": "uint8",
          "name": "proofWindowOffsetPerc",
          "type": "uint8"
        }
      ],
      "name": "createServiceAgreementObject",
      "outputs": [],
      "stateMutability": "nonpayable",
      "type": "function"
    },
    {
      "inputs": [
        {
          "internalType": "bytes32",
          "name": "agreementId",
          "type": "bytes32"
        },
        {
          "internalType": "uint16",
          "name": "epoch",
          "type": "uint16"
        }
      ],
      "name": "decrementAgreementRewardedNodesNumber",
      "outputs": [],
      "stateMutability": "nonpayable",
      "type": "function"
    },
    {
      "inputs": [
        {
          "internalType": "bytes32",
          "name": "epochStateId",
          "type": "bytes32"
        }
      ],
      "name": "decrementEpochStateCommitsCount",
      "outputs": [],
      "stateMutability": "nonpayable",
      "type": "function"
    },
    {
      "inputs": [
        {
          "internalType": "bytes32",
          "name": "agreementId",
          "type": "bytes32"
        },
        {
          "internalType": "uint16",
          "name": "epoch",
          "type": "uint16"
        }
      ],
      "name": "deleteAgreementRewardedNodesNumber",
      "outputs": [],
      "stateMutability": "nonpayable",
      "type": "function"
    },
    {
      "inputs": [
        {
          "internalType": "bytes32",
          "name": "commitId",
          "type": "bytes32"
        }
      ],
      "name": "deleteEpochStateCommitSubmissionsObject",
      "outputs": [],
      "stateMutability": "nonpayable",
      "type": "function"
    },
    {
      "inputs": [
        {
          "internalType": "bytes32",
          "name": "epochStateId",
          "type": "bytes32"
        }
      ],
      "name": "deleteEpochStateCommitsCount",
      "outputs": [],
      "stateMutability": "nonpayable",
      "type": "function"
    },
    {
      "inputs": [
        {
          "internalType": "bytes32",
          "name": "agreementId",
          "type": "bytes32"
        }
      ],
      "name": "deleteServiceAgreementObject",
      "outputs": [],
      "stateMutability": "nonpayable",
      "type": "function"
    },
    {
      "inputs": [
        {
          "internalType": "bytes32",
          "name": "stateId",
          "type": "bytes32"
        }
      ],
      "name": "deleteUpdateCommitsDeadline",
      "outputs": [],
      "stateMutability": "nonpayable",
      "type": "function"
    },
    {
      "inputs": [
        {
          "internalType": "bytes32",
          "name": "commitId",
          "type": "bytes32"
        }
      ],
      "name": "epochStateCommitSubmissionExists",
      "outputs": [
        {
          "internalType": "bool",
          "name": "",
          "type": "bool"
        }
      ],
      "stateMutability": "view",
      "type": "function"
    },
    {
      "inputs": [
        {
          "internalType": "bytes32",
          "name": "agreementId",
          "type": "bytes32"
        }
      ],
      "name": "getAgreementData",
      "outputs": [
        {
          "internalType": "uint256",
          "name": "startTime",
          "type": "uint256"
        },
        {
          "internalType": "uint16",
          "name": "epochsNumber",
          "type": "uint16"
        },
        {
          "internalType": "uint128",
          "name": "epochLength",
          "type": "uint128"
        },
        {
          "internalType": "uint96[2]",
          "name": "tokens",
          "type": "uint96[2]"
        },
        {
          "internalType": "uint8[2]",
          "name": "scoreFunctionIdAndProofWindowOffsetPerc",
          "type": "uint8[2]"
        }
      ],
      "stateMutability": "view",
      "type": "function"
    },
    {
      "inputs": [
        {
          "internalType": "bytes32",
          "name": "agreementId",
          "type": "bytes32"
        }
      ],
      "name": "getAgreementEpochLength",
      "outputs": [
        {
          "internalType": "uint128",
          "name": "",
          "type": "uint128"
        }
      ],
      "stateMutability": "view",
      "type": "function"
    },
    {
      "inputs": [
        {
          "internalType": "bytes32",
          "name": "agreementId",
          "type": "bytes32"
        },
        {
          "internalType": "uint16",
          "name": "epoch",
          "type": "uint16"
        },
        {
          "internalType": "uint256",
          "name": "stateIndex",
          "type": "uint256"
        }
      ],
      "name": "getAgreementEpochSubmissionHead",
      "outputs": [
        {
          "internalType": "bytes32",
          "name": "",
          "type": "bytes32"
        }
      ],
      "stateMutability": "view",
      "type": "function"
    },
    {
      "inputs": [
        {
          "internalType": "bytes32",
          "name": "agreementId",
          "type": "bytes32"
        }
      ],
      "name": "getAgreementEpochsNumber",
      "outputs": [
        {
          "internalType": "uint16",
          "name": "",
          "type": "uint16"
        }
      ],
      "stateMutability": "view",
      "type": "function"
    },
    {
      "inputs": [
        {
          "internalType": "bytes32",
          "name": "agreementId",
          "type": "bytes32"
        }
      ],
      "name": "getAgreementProofWindowOffsetPerc",
      "outputs": [
        {
          "internalType": "uint8",
          "name": "",
          "type": "uint8"
        }
      ],
      "stateMutability": "view",
      "type": "function"
    },
    {
      "inputs": [
        {
          "internalType": "bytes32",
          "name": "agreementId",
          "type": "bytes32"
        },
        {
          "internalType": "uint16",
          "name": "epoch",
          "type": "uint16"
        }
      ],
      "name": "getAgreementRewardedNodesNumber",
      "outputs": [
        {
          "internalType": "uint32",
          "name": "",
          "type": "uint32"
        }
      ],
      "stateMutability": "view",
      "type": "function"
    },
    {
      "inputs": [
        {
          "internalType": "bytes32",
          "name": "agreementId",
          "type": "bytes32"
        }
      ],
      "name": "getAgreementScoreFunctionId",
      "outputs": [
        {
          "internalType": "uint8",
          "name": "",
          "type": "uint8"
        }
      ],
      "stateMutability": "view",
      "type": "function"
    },
    {
      "inputs": [
        {
          "internalType": "bytes32",
          "name": "agreementId",
          "type": "bytes32"
        }
      ],
      "name": "getAgreementStartTime",
      "outputs": [
        {
          "internalType": "uint256",
          "name": "",
          "type": "uint256"
        }
      ],
      "stateMutability": "view",
      "type": "function"
    },
    {
      "inputs": [
        {
          "internalType": "bytes32",
          "name": "agreementId",
          "type": "bytes32"
        }
      ],
      "name": "getAgreementTokenAmount",
      "outputs": [
        {
          "internalType": "uint96",
          "name": "",
          "type": "uint96"
        }
      ],
      "stateMutability": "view",
      "type": "function"
    },
    {
      "inputs": [
        {
          "internalType": "bytes32",
          "name": "agreementId",
          "type": "bytes32"
        }
      ],
      "name": "getAgreementUpdateTokenAmount",
      "outputs": [
        {
          "internalType": "uint96",
          "name": "",
          "type": "uint96"
        }
      ],
      "stateMutability": "view",
      "type": "function"
    },
    {
      "inputs": [
        {
          "internalType": "bytes32",
          "name": "commitId",
          "type": "bytes32"
        }
      ],
      "name": "getEpochStateCommitSubmission",
      "outputs": [
        {
          "components": [
            {
              "internalType": "uint72",
              "name": "identityId",
              "type": "uint72"
            },
            {
              "internalType": "uint72",
              "name": "prevIdentityId",
              "type": "uint72"
            },
            {
              "internalType": "uint72",
              "name": "nextIdentityId",
              "type": "uint72"
            },
            {
              "internalType": "uint40",
              "name": "score",
              "type": "uint40"
            }
          ],
          "internalType": "struct ServiceAgreementStructsV1.CommitSubmission",
          "name": "",
          "type": "tuple"
        }
      ],
      "stateMutability": "view",
      "type": "function"
    },
    {
      "inputs": [
        {
          "internalType": "bytes32",
          "name": "commitId",
          "type": "bytes32"
        }
      ],
      "name": "getEpochStateCommitSubmissionIdentityId",
      "outputs": [
        {
          "internalType": "uint72",
          "name": "",
          "type": "uint72"
        }
      ],
      "stateMutability": "view",
      "type": "function"
    },
    {
      "inputs": [
        {
          "internalType": "bytes32",
          "name": "commitId",
          "type": "bytes32"
        }
      ],
      "name": "getEpochStateCommitSubmissionNextIdentityId",
      "outputs": [
        {
          "internalType": "uint72",
          "name": "",
          "type": "uint72"
        }
      ],
      "stateMutability": "view",
      "type": "function"
    },
    {
      "inputs": [
        {
          "internalType": "bytes32",
          "name": "commitId",
          "type": "bytes32"
        }
      ],
      "name": "getEpochStateCommitSubmissionPrevIdentityId",
      "outputs": [
        {
          "internalType": "uint72",
          "name": "",
          "type": "uint72"
        }
      ],
      "stateMutability": "view",
      "type": "function"
    },
    {
      "inputs": [
        {
          "internalType": "bytes32",
          "name": "commitId",
          "type": "bytes32"
        }
      ],
      "name": "getEpochStateCommitSubmissionScore",
      "outputs": [
        {
          "internalType": "uint40",
          "name": "",
          "type": "uint40"
        }
      ],
      "stateMutability": "view",
      "type": "function"
    },
    {
      "inputs": [
        {
          "internalType": "bytes32",
          "name": "epochStateId",
          "type": "bytes32"
        }
      ],
      "name": "getEpochStateCommitsCount",
      "outputs": [
        {
          "internalType": "uint8",
          "name": "",
          "type": "uint8"
        }
      ],
      "stateMutability": "view",
      "type": "function"
    },
    {
      "inputs": [
        {
          "internalType": "bytes32",
          "name": "stateId",
          "type": "bytes32"
        }
      ],
      "name": "getUpdateCommitsDeadline",
      "outputs": [
        {
          "internalType": "uint256",
          "name": "",
          "type": "uint256"
        }
      ],
      "stateMutability": "view",
      "type": "function"
    },
    {
      "inputs": [],
      "name": "hub",
      "outputs": [
        {
          "internalType": "contract Hub",
          "name": "",
          "type": "address"
        }
      ],
      "stateMutability": "view",
      "type": "function"
    },
    {
      "inputs": [
        {
          "internalType": "bytes32",
          "name": "agreementId",
          "type": "bytes32"
        },
        {
          "internalType": "uint16",
          "name": "epoch",
          "type": "uint16"
        }
      ],
      "name": "incrementAgreementRewardedNodesNumber",
      "outputs": [],
      "stateMutability": "nonpayable",
      "type": "function"
    },
    {
      "inputs": [
        {
          "internalType": "bytes32",
          "name": "epochStateId",
          "type": "bytes32"
        }
      ],
      "name": "incrementEpochStateCommitsCount",
      "outputs": [],
      "stateMutability": "nonpayable",
      "type": "function"
    },
    {
      "inputs": [],
      "name": "initialize",
      "outputs": [],
      "stateMutability": "nonpayable",
      "type": "function"
    },
    {
      "inputs": [],
      "name": "name",
      "outputs": [
        {
          "internalType": "string",
          "name": "",
          "type": "string"
        }
      ],
      "stateMutability": "pure",
      "type": "function"
    },
    {
      "inputs": [
        {
          "internalType": "bytes32",
          "name": "agreementId",
          "type": "bytes32"
        }
      ],
      "name": "serviceAgreementExists",
      "outputs": [
        {
          "internalType": "bool",
          "name": "",
          "type": "bool"
        }
      ],
      "stateMutability": "view",
      "type": "function"
    },
    {
      "inputs": [
        {
          "internalType": "bytes32",
          "name": "agreementId",
          "type": "bytes32"
        },
        {
          "internalType": "uint128",
          "name": "epochLength",
          "type": "uint128"
        }
      ],
      "name": "setAgreementEpochLength",
      "outputs": [],
      "stateMutability": "nonpayable",
      "type": "function"
    },
    {
      "inputs": [
        {
          "internalType": "bytes32",
          "name": "agreementId",
          "type": "bytes32"
        },
        {
          "internalType": "uint16",
          "name": "epoch",
          "type": "uint16"
        },
        {
          "internalType": "uint256",
          "name": "stateIndex",
          "type": "uint256"
        },
        {
          "internalType": "bytes32",
          "name": "headCommitId",
          "type": "bytes32"
        }
      ],
      "name": "setAgreementEpochSubmissionHead",
      "outputs": [],
      "stateMutability": "nonpayable",
      "type": "function"
    },
    {
      "inputs": [
        {
          "internalType": "bytes32",
          "name": "agreementId",
          "type": "bytes32"
        },
        {
          "internalType": "uint16",
          "name": "epochsNumber",
          "type": "uint16"
        }
      ],
      "name": "setAgreementEpochsNumber",
      "outputs": [],
      "stateMutability": "nonpayable",
      "type": "function"
    },
    {
      "inputs": [
        {
          "internalType": "bytes32",
          "name": "agreementId",
          "type": "bytes32"
        },
        {
          "internalType": "uint8",
          "name": "proofWindowOffsetPerc",
          "type": "uint8"
        }
      ],
      "name": "setAgreementProofWindowOffsetPerc",
      "outputs": [],
      "stateMutability": "nonpayable",
      "type": "function"
    },
    {
      "inputs": [
        {
          "internalType": "bytes32",
          "name": "agreementId",
          "type": "bytes32"
        },
        {
          "internalType": "uint16",
          "name": "epoch",
          "type": "uint16"
        },
        {
          "internalType": "uint32",
          "name": "rewardedNodesNumber",
          "type": "uint32"
        }
      ],
      "name": "setAgreementRewardedNodesNumber",
      "outputs": [],
      "stateMutability": "nonpayable",
      "type": "function"
    },
    {
      "inputs": [
        {
          "internalType": "bytes32",
          "name": "agreementId",
          "type": "bytes32"
        },
        {
          "internalType": "uint8",
          "name": "newScoreFunctionId",
          "type": "uint8"
        }
      ],
      "name": "setAgreementScoreFunctionId",
      "outputs": [],
      "stateMutability": "nonpayable",
      "type": "function"
    },
    {
      "inputs": [
        {
          "internalType": "bytes32",
          "name": "agreementId",
          "type": "bytes32"
        },
        {
          "internalType": "uint256",
          "name": "startTime",
          "type": "uint256"
        }
      ],
      "name": "setAgreementStartTime",
      "outputs": [],
      "stateMutability": "nonpayable",
      "type": "function"
    },
    {
      "inputs": [
        {
          "internalType": "bytes32",
          "name": "agreementId",
          "type": "bytes32"
        },
        {
          "internalType": "uint96",
          "name": "tokenAmount",
          "type": "uint96"
        }
      ],
      "name": "setAgreementTokenAmount",
      "outputs": [],
      "stateMutability": "nonpayable",
      "type": "function"
    },
    {
      "inputs": [
        {
          "internalType": "bytes32",
          "name": "agreementId",
          "type": "bytes32"
        },
        {
          "internalType": "uint96",
          "name": "updateTokenAmount",
          "type": "uint96"
        }
      ],
      "name": "setAgreementUpdateTokenAmount",
      "outputs": [],
      "stateMutability": "nonpayable",
      "type": "function"
    },
    {
      "inputs": [
        {
          "internalType": "bytes32",
          "name": "commitId",
          "type": "bytes32"
        },
        {
          "internalType": "uint72",
          "name": "identityId",
          "type": "uint72"
        }
      ],
      "name": "setEpochStateCommitSubmissionIdentityId",
      "outputs": [],
      "stateMutability": "nonpayable",
      "type": "function"
    },
    {
      "inputs": [
        {
          "internalType": "bytes32",
          "name": "commitId",
          "type": "bytes32"
        },
        {
          "internalType": "uint72",
          "name": "nextIdentityId",
          "type": "uint72"
        }
      ],
      "name": "setEpochStateCommitSubmissionNextIdentityId",
      "outputs": [],
      "stateMutability": "nonpayable",
      "type": "function"
    },
    {
      "inputs": [
        {
          "internalType": "bytes32",
          "name": "commitId",
          "type": "bytes32"
        },
        {
          "internalType": "uint72",
          "name": "prevIdentityId",
          "type": "uint72"
        }
      ],
      "name": "setEpochStateCommitSubmissionPrevIdentityId",
      "outputs": [],
      "stateMutability": "nonpayable",
      "type": "function"
    },
    {
      "inputs": [
        {
          "internalType": "bytes32",
          "name": "commitId",
          "type": "bytes32"
        },
        {
          "internalType": "uint40",
          "name": "score",
          "type": "uint40"
        }
      ],
      "name": "setEpochStateCommitSubmissionScore",
      "outputs": [],
      "stateMutability": "nonpayable",
      "type": "function"
    },
    {
      "inputs": [
        {
          "internalType": "bytes32",
          "name": "epochStateId",
          "type": "bytes32"
        },
        {
          "internalType": "uint8",
          "name": "newEpochStateCommitsCount",
          "type": "uint8"
        }
      ],
      "name": "setEpochStateCommitsCount",
      "outputs": [],
      "stateMutability": "nonpayable",
      "type": "function"
    },
    {
      "inputs": [
        {
          "internalType": "bytes32",
          "name": "stateId",
          "type": "bytes32"
        },
        {
          "internalType": "uint256",
          "name": "deadline",
          "type": "uint256"
        }
      ],
      "name": "setUpdateCommitsDeadline",
      "outputs": [],
      "stateMutability": "nonpayable",
      "type": "function"
    },
    {
      "inputs": [],
      "name": "tokenContract",
      "outputs": [
        {
          "internalType": "contract IERC20",
          "name": "",
          "type": "address"
        }
      ],
      "stateMutability": "view",
      "type": "function"
    },
    {
      "inputs": [
        {
          "internalType": "address",
          "name": "receiver",
          "type": "address"
        },
        {
          "internalType": "uint96",
          "name": "tokenAmount",
          "type": "uint96"
        }
      ],
      "name": "transferAgreementTokens",
      "outputs": [],
      "stateMutability": "nonpayable",
      "type": "function"
    },
    {
      "inputs": [
        {
          "internalType": "address payable",
          "name": "custodian",
          "type": "address"
        }
      ],
      "name": "transferTokens",
      "outputs": [],
      "stateMutability": "nonpayable",
      "type": "function"
    },
    {
      "inputs": [],
      "name": "version",
      "outputs": [
        {
          "internalType": "string",
          "name": "",
          "type": "string"
        }
      ],
      "stateMutability": "pure",
      "type": "function"
    },
    {
      "inputs": [],
      "name": "withdrawMisplacedOTP",
      "outputs": [],
      "stateMutability": "nonpayable",
      "type": "function"
    },
    {
      "inputs": [
        {
          "internalType": "address",
          "name": "tokenContractAddress",
          "type": "address"
        }
      ],
      "name": "withdrawMisplacedTokens",
      "outputs": [],
      "stateMutability": "nonpayable",
      "type": "function"
    }
  ],
  "transactionHash": "0x93a4939c9ad448d49fd7a71949a63ea26b74062ba3b7670f4d92dd546cf578c9",
  "args": [
    "0x224aEC6891d26e994D4Dbf207aE099ca029b3E67"
  ],
  "numDeployments": 1,
  "solcInputHash": "6736b5a2b01ed07b57366e384b7e7c88",
  "bytecode": "0x6080346100bf57601f611e5e38819003918201601f19168301916001600160401b038311848410176100c4578084926020946040528339810103126100bf57516001600160a01b038116908190036100bf57801561007a57600080546001600160a01b031916919091179055604051611d8390816100db8239f35b60405162461bcd60e51b815260206004820152601960248201527f48756220416464726573732063616e6e6f7420626520307830000000000000006044820152606490fd5b600080fd5b634e487b7160e01b600052604160045260246000fdfe6040608081526004908136101561001557600080fd5b600091823560e01c80620486e114611947578063038fed731461192057806303ddf885146118ed57806306fdde03146118985780630c89a0df146114ab5780630f3a549d146114695780631101ca951461142057806315ce5a45146113f957806326b8fa70146113cf578063365a86fc146113a75780634089a17d1461137157806344c990b01461133f578063484a47e7146113095780635310aaaf146112c157806354fd4d501461128057806355a373d614611257578063607a63f0146111f957806361f31d6d1461115a5780636441a276146111095780636ce1510e146110275780636ff015ae14610ef55780638129fc1c14610e2f578063848e591114610dd357806386e0cc8814610daa5780638bdf6d6414610d7a57806399149f7714610d4b57806399eb184d14610d195780639c70b3c014610cf25780639d7937b214610b00578063a631489614610a9e578063ac64112e14610a4d578063ac9d7cf414610a0b578063ad7ae2c3146109dc578063b0686dea146109a9578063b2ffa99714610945578063b7687472146108fb578063beca40f314610884578063c332964714610848578063c6b25e57146107da578063ca58ef7d1461077f578063cb327c7d1461071c578063ce60dc61146106ed578063d1a640c7146106bf578063d311873a14610694578063d66fca081461065e578063db0d103814610634578063dbe3177114610508578063e022f23f146104a8578063e25aa7251461045c578063e54b26ff146103f2578063e6123b3814610375578063e9410053146102c8578063eb5983451461029f5763ecd431db1461027257600080fd5b3461029b57602036600319011261029b57602092829135815260038452205460d81c9051908152f35b8280fd5b503461029b57602036600319011261029b57816020938260ff9335825285522054169051908152f35b503461029b578160031936011261029b5760206102e3611b2b565b60446102ed611a90565b916102f6611ca8565b600154865163a9059cbb60e01b81526001600160a01b03928316968101969096526001600160601b039093166024860152849283918891165af180156103695761033e575051f35b61035e9060203d8111610362575b6103568183611b8f565b810190611bc5565b5051f35b503d61034c565b505051903d90823e3d90fd5b503461029b57608036600319011261029b5761038f611a7a565b90610398611ca8565b35835260026020908152828420835160f09390931b6001600160f01b0319169183019182526044356022840152600301916103e081604281015b03601f198101835282611b8f565b51902083526020526064358183205551f35b503461029b578160031936011261029b576104599061040f611a90565b90610418611ca8565b358452600260205282842060010180546bffffffffffffffffffffffff60901b191660909290921b6bffffffffffffffffffffffff60901b16919091179055565b51f35b503461029b578160031936011261029b57610475611a90565b9061047e611ca8565b35835260026020526001600160601b0360028385200191166001600160601b031982541617905551f35b503461029b578160031936011261029b5760243564ffffffffff8116810361050457610459916104d6611ca8565b358452600360205282842080546001600160d81b031660d89290921b6001600160d81b031916919091179055565b8380fd5b503461029b5760a036600319011261029b57610522611b15565b604435916001600160481b03808416809403610630576064359181831680930361062c576084359164ffffffffff93848416809403610628576105de82610459986106089561056f611ca8565b828c519a61057c8c611b41565b168a5260208a019182528b8a0194855260608a01978852358c526003602052818b8d209951166001600160481b03198a54161789555116879068ffffffffffffffffff60481b82549160481b169068ffffffffffffffffff60481b1916179055565b51855468ffffffffffffffffff60901b1916911660901b68ffffffffffffffffff60901b16178455565b5182546001600160d81b0316911660d81b6001600160d81b031916179055565b8880fd5b8680fd5b8580fd5b503461029b57602036600319011261029b5761064e611ca8565b3582526005602052818181205551f35b503461029b57602036600319011261029b57610678611ca8565b3582526002602052816002828220828155826001820155015551f35b5050346106bb576106a436611ab6565b906106ad611ca8565b835260056020528183205551f35b5080fd5b503461029b57602036600319011261029b5760018260209461ffff9335815260028652200154169051908152f35b503461029b57602036600319011261029b5760028260209460ff9335815282865220015460601c169051908152f35b503461029b57606036600319011261029b57610736611a7a565b6044359163ffffffff831680930361077b5761ffff90610754611ca8565b80358652600260205284862001911684526020528183209063ffffffff1982541617905551f35b8480fd5b503461029b578160031936011261029b576104599061079c611b15565b906107a5611ca8565b35845260036020528284209068ffffffffffffffffff60481b82549160481b169068ffffffffffffffffff60481b1916179055565b503461029b57606036600319011261029b5760209282916107f9611a7a565b903582526002808652838320845160f09390931b6001600160f01b031916838801908152604435928101929092526003019161083881602284016103d2565b5190208252845220549051908152f35b503461029b578160031936011261029b57610861611aa6565b9061086a611ca8565b8035845260205260ff828420911660ff1982541617905551f35b503461029b578160031936011261029b5761089d611a7a565b6108a5611ca8565b81358452600260205261ffff8284862001911684526020528183209081549063ffffffff90818316908282146108e85750600101169063ffffffff191617905551f35b634e487b7160e01b875260119052602486fd5b503461029b578160031936011261029b5761ffff610917611a7a565b91610920611ca8565b803585526002602052838520019116835260205280822063ffffffff19815416905551f35b503461029b578160031936011261029b5761095e611a7a565b610966611ca8565b81358452600260205261ffff8284862001911684526020528183209081549063ffffffff908183169081156108e8575060001901169063ffffffff191617905551f35b503461029b57602036600319011261029b57816020936001600160481b039235815260038552205460481c169051908152f35b503461029b57602036600319011261029b576109f6611ca8565b80358352602052808220805460ff1916905551f35b503461029b578160031936011261029b578160209363ffffffff9261ffff610a31611a7a565b8235845260028852848420911683520185522054915191168152f35b503461029b578160031936011261029b5761045990610a6a611aa6565b90610a73611ca8565b3584526002602081905283852001805460ff60681b191660689290921b60ff60681b16919091179055565b503461029b578160031936011261029b576024356001600160801b03811681036105045761045991610ace611ca8565b35845260026020526001838520019062010000600160901b0382549160101b169062010000600160901b031916179055565b503461029b5760208060031936011261050457610b1b611b2b565b91610b24611bdd565b6001546001600160a01b038481169391168314610c985784516370a0823160e01b81523083820152928184602481845afa938415610c5f578794610c69575b5083610bad575b505083516001600160a01b0393909316835250602082015233907f5fe8cbe5f97c59a4b590a924c3fc62aac6b6a653ec22e39f5fc6d3732f18c25490604090a251f35b855163a9059cbb60e01b815233848201908152602081018690529091839183919082908b90829060400103925af1908115610c5f578791610c42575b5015610bf55780610b6a565b845162461bcd60e51b815291820152602260248201527f546f6b656e207472616e73616374696f6e20657865637574696f6e206661696c604482015261195960f21b606482015260849150fd5b610c599150823d8411610362576103568183611b8f565b38610be9565b86513d89823e3d90fd5b9093508181813d8311610c91575b610c818183611b8f565b8101031261062c57519238610b63565b503d610c77565b845162461bcd60e51b815291820152602f60248201527f43616e6e6f742075736520746869732066756e6374696f6e207769746820746860448201526e194815149050c818dbdb9d1c9858dd608a1b606482015260849150fd5b503461029b57602036600319011261029b5760209282913581526002845220549051908152f35b503461029b57602036600319011261029b57816020936001600160481b03923581526003855220541615159051908152f35b503461029b57602036600319011261029b5760028260209460ff9335815282865220015460681c169051908152f35b503461029b57602036600319011261029b57816020936001600160481b0392358152600385522054169051908152f35b503461029b57602036600319011261029b57602092829135815260028452205415159051908152f35b503461029b57602036600319011261029b57610ded611ca8565b80358352806020528183209081549060ff82169060ff8214610e1c5750600160ff9101169060ff191617905551f35b634e487b7160e01b865260119052602485fd5b503461029b578260031936011261029b57610e48611bdd565b82548251630110ceef60e21b8152602092810183905260056024820152642a37b5b2b760d91b60448201526001600160a01b039290918290606490829086165afa908115610ee8578491610eaf575b50166001600160601b0360a01b600154161760015551f35b90506020813d8211610ee0575b81610ec960209383611b8f565b8101031261050457610eda90611bb1565b38610e97565b3d9150610ebc565b50505051903d90823e3d90fd5b50903461029b5760209182600319360112610504578284913590838051610f1b81611b73565b369037838051610f2a81611b73565b36903781835260028082528484208054600191820154875161ffff82169892979396949594929160101c6001600160801b0316610f6682611b73565b8385528686526001600160601b03928389828820015460901c16835284865287875283888288200154168784015280519a610fa08c611b73565b85875288885260ff95868a848a20015460601c168d5287528888528589838920015460681c16888d015281519a8b52878b0152890152606088019084915b878310611012575050505060a086019691965b848810610ffd5760e087f35b82518216815296850196918301918301610ff1565b81518416815291880191908601908601610fde565b503461029b578260031936011261029b57611040611bdd565b479081611077575b5081519081527fd32ec2b96f6389848e3f68f670160bf5a50b5024b6f62a61108f20025179a29160203392a251f35b838080855185335af13d15611104573d67ffffffffffffffff81116110f1578451906110ad601f8201601f191660200183611b8f565b81528560203d92013e5b61104857606490602084519162461bcd60e51b8352820152601060248201526f2a3930b739b332b9103330b4b632b21760811b6044820152fd5b634e487b7160e01b865260418352602486fd5b6110b7565b503461029b578160031936011261029b5761045990611126611aa6565b9061112f611ca8565b3584526002602081905283852001805460ff60601b191660609290921b60ff60601b16919091179055565b503461029b57602036600319011261029b57818364ffffffffff926080956060845161118581611b41565b82815282602082015282868201520152358152600360205220918051926111ab84611b41565b54906001600160481b03808316948581528160208201818660481c168152606085840193838860901c168552019560d81c865284519788525116602087015251169084015251166060820152f35b503461029b578160031936011261029b5761045990611216611b15565b9061121f611ca8565b3584526003602052828420805468ffffffffffffffffff60901b191660909290921b68ffffffffffffffffff60901b16919091179055565b5050346106bb57816003193601126106bb5760015490516001600160a01b039091168152602090f35b5050346106bb57816003193601126106bb5780516112bd916112a182611b73565b60058252640312e302e360dc1b60208301525191829182611acc565b0390f35b503461029b57602036600319011261029b576112db611ca8565b80358352806020528183209081549060ff8216908115610e1c575060ff9060001901169060ff191617905551f35b503461029b57602036600319011261029b576001826020946001600160801b03933581526002865220015460101c169051908152f35b503461029b57602036600319011261029b576002826020946001600160601b0393358152828652200154169051908152f35b503461029b57602036600319011261029b576001826020946001600160601b03933581526002865220015460901c169051908152f35b5050346106bb57816003193601126106bb57905490516001600160a01b039091168152602090f35b503461029b57602036600319011261029b576113e9611ca8565b3582526003602052818181205551f35b503461029b57602036600319011261029b5760209282913581526005845220549051908152f35b503461029b578160031936011261029b57611439611b15565b90611442611ca8565b35835260036020526001600160481b0382842091166001600160481b031982541617905551f35b503461029b578160031936011261029b57611482611a7a565b9061148b611ca8565b358352600260205261ffff600183852001911661ffff1982541617905551f35b503461029b576020806003193601126105045781356001600160a01b03818116939184810361062c576114dc611bdd565b841561184a573b156117e257845163a0e67e2b60e01b8152869081818581895afa889181611729575b506116b0575b50156116485760015416908585516370a0823160e01b815230838201528481602481875afa93841561163e578591839561160d575b50604488518094819363a9059cbb60e01b83528a888401528860248401525af1908115610c5f5787916115f0575b50156115a15750907fefed6b8d78a916dbd402a323824ae4454c9214b8f3d05fa85b3bb7f30dc25c06918451908152a251f35b845162461bcd60e51b8152908101839052602360248201527f546f6b656e207472616e73616374696f6e20657865637574696f6e206661696c60448201526265642160e81b6064820152608490fd5b6116079150843d8611610362576103568183611b8f565b3861156e565b8281939296503d8311611637575b6116258183611b8f565b810103126106bb578490519338611540565b503d61161b565b87513d84823e3d90fd5b5060849184519162461bcd60e51b8352820152603f60248201527f43616e6e6f74207472616e7366657220746f6b656e7320746f20637573746f6460448201527f69616e20776974686f7574206765744f776e6572732066756e6374696f6e21006064820152fd5b5160019150156116c0573861150b565b855162461bcd60e51b8152808401859052603b60248201527f43616e6e6f74207472616e7366657220746f6b656e7320746f20637573746f6460448201527f69616e20776974686f7574206f776e65727320646566696e65642100000000006064820152608490fd5b9091503d808a833e61173b8183611b8f565b810186828203126117de57815167ffffffffffffffff928382116117c3570181601f820112156117da5780519283116117c7578260051b908a51936117828a840186611b8f565b845288808501928201019283116117c35788809101915b8383106117ab57505050509038611505565b81906117b684611bb1565b8152019101908890611799565b8b80fd5b634e487b7160e01b8b526041875260248bfd5b8a80fd5b8980fd5b5060849184519162461bcd60e51b8352820152603b60248201527f43616e6e6f74207472616e7366657220746f6b656e7320746f20637573746f6460448201527f69616e2074686174206973206e6f74206120636f6e74726163742100000000006064820152fd5b855162461bcd60e51b8152808401859052602260248201527f437573746f6469616e2063616e6e6f742062652061207a65726f206164647265604482015261737360f01b6064820152608490fd5b5050346106bb57816003193601126106bb5780516112bd916118b982611b73565b601b82527f5365727669636541677265656d656e7453746f7261676556315531000000000060208301525191829182611acc565b503461029b57602036600319011261029b57816020936001600160481b039235815260038552205460901c169051908152f35b5050346106bb5761193036611ab6565b90611939611ca8565b835260026020528183205551f35b503461029b5760e036600319011261029b5760443561ffff811680910361050457606435906001600160801b038216820361077b576084356001600160601b03811681036106305760a4359160ff8316830361062c5760c4359360ff85168503611a7657611a3b611a5993600293610459986119c1611ca8565b358b5284602052611a088a8c20946024358655600186019261ffff19845416178355829062010000600160901b0382549160101b169062010000600160901b031916179055565b80546bffffffffffffffffffffffff60901b191660909290921b6bffffffffffffffffffffffff60901b16919091179055565b01805460ff60601b191660609390931b60ff60601b16929092178255565b805460ff60681b191660689290921b60ff60681b16919091179055565b8780fd5b6024359061ffff82168203611a8b57565b600080fd5b602435906001600160601b0382168203611a8b57565b6024359060ff82168203611a8b57565b6040906003190112611a8b576004359060243590565b6020808252825181830181905290939260005b828110611b0157505060409293506000838284010152601f8019910116010190565b818101860151848201604001528501611adf565b602435906001600160481b0382168203611a8b57565b600435906001600160a01b0382168203611a8b57565b6080810190811067ffffffffffffffff821117611b5d57604052565b634e487b7160e01b600052604160045260246000fd5b6040810190811067ffffffffffffffff821117611b5d57604052565b90601f8019910116810190811067ffffffffffffffff821117611b5d57604052565b51906001600160a01b0382168203611a8b57565b90816020910312611a8b57518015158103611a8b5790565b600054604051638da5cb5b60e01b81526020916001600160a01b03919083908290600490829086165afa908115611c9c57600091611c64575b50163303611c215750565b6064906040519062461bcd60e51b825280600483015260248201527f466e2063616e206f6e6c79206265207573656420627920687562206f776e65726044820152fd5b908382813d8311611c95575b611c7a8183611b8f565b81010312611c925750611c8c90611bb1565b38611c16565b80fd5b503d611c70565b6040513d6000823e3d90fd5b600054604051631627905560e01b815233600482015290602090829060249082906001600160a01b03165afa908115611c9c57600091611d2f575b5015611ceb57565b606460405162461bcd60e51b815260206004820152602060248201527f466e2063616e206f6e6c792062652063616c6c656420627920746865206875626044820152fd5b611d47915060203d8111610362576103568183611b8f565b38611ce356fea2646970667358221220f29bc768e7fc0ea67555c9f95a75b82c238e7f0fbf3501a294fe62abc0ecca4364736f6c63430008100033",
  "devdoc": {
    "kind": "dev",
    "methods": {},
    "version": 1
  },
  "userdoc": {
    "kind": "user",
    "methods": {},
    "version": 1
  },
  "storageLayout": {
    "storage": [
      {
        "astId": 15408,
        "contract": "contracts/storage/ServiceAgreementStorageV1U1.sol:ServiceAgreementStorageV1U1",
        "label": "hub",
        "offset": 0,
        "slot": "0",
        "type": "t_contract(Hub)9211"
      },
      {
        "astId": 8523,
        "contract": "contracts/storage/ServiceAgreementStorageV1U1.sol:ServiceAgreementStorageV1U1",
        "label": "tokenContract",
        "offset": 0,
        "slot": "1",
        "type": "t_contract(IERC20)1169"
      },
      {
        "astId": 21820,
        "contract": "contracts/storage/ServiceAgreementStorageV1U1.sol:ServiceAgreementStorageV1U1",
        "label": "serviceAgreements",
        "offset": 0,
        "slot": "2",
        "type": "t_mapping(t_bytes32,t_struct(ExtendedServiceAgreement)23878_storage)"
      },
      {
        "astId": 21825,
        "contract": "contracts/storage/ServiceAgreementStorageV1U1.sol:ServiceAgreementStorageV1U1",
        "label": "epochStateCommitSubmissions",
        "offset": 0,
        "slot": "3",
        "type": "t_mapping(t_bytes32,t_struct(CommitSubmission)23817_storage)"
      },
      {
        "astId": 21829,
        "contract": "contracts/storage/ServiceAgreementStorageV1U1.sol:ServiceAgreementStorageV1U1",
        "label": "epochStateCommitsCount",
        "offset": 0,
        "slot": "4",
        "type": "t_mapping(t_bytes32,t_uint8)"
      },
      {
        "astId": 21833,
        "contract": "contracts/storage/ServiceAgreementStorageV1U1.sol:ServiceAgreementStorageV1U1",
        "label": "updateCommitsDeadlines",
        "offset": 0,
        "slot": "5",
        "type": "t_mapping(t_bytes32,t_uint256)"
      }
    ],
    "types": {
      "t_bytes32": {
        "encoding": "inplace",
        "label": "bytes32",
        "numberOfBytes": "32"
      },
      "t_contract(Hub)9211": {
        "encoding": "inplace",
        "label": "contract Hub",
        "numberOfBytes": "20"
      },
      "t_contract(IERC20)1169": {
        "encoding": "inplace",
        "label": "contract IERC20",
        "numberOfBytes": "20"
      },
      "t_mapping(t_bytes32,t_bytes32)": {
        "encoding": "mapping",
        "key": "t_bytes32",
        "label": "mapping(bytes32 => bytes32)",
        "numberOfBytes": "32",
        "value": "t_bytes32"
      },
      "t_mapping(t_bytes32,t_struct(CommitSubmission)23817_storage)": {
        "encoding": "mapping",
        "key": "t_bytes32",
        "label": "mapping(bytes32 => struct ServiceAgreementStructsV1.CommitSubmission)",
        "numberOfBytes": "32",
        "value": "t_struct(CommitSubmission)23817_storage"
      },
      "t_mapping(t_bytes32,t_struct(ExtendedServiceAgreement)23878_storage)": {
        "encoding": "mapping",
        "key": "t_bytes32",
        "label": "mapping(bytes32 => struct ServiceAgreementStructsV1.ExtendedServiceAgreement)",
        "numberOfBytes": "32",
        "value": "t_struct(ExtendedServiceAgreement)23878_storage"
      },
      "t_mapping(t_bytes32,t_uint256)": {
        "encoding": "mapping",
        "key": "t_bytes32",
        "label": "mapping(bytes32 => uint256)",
        "numberOfBytes": "32",
        "value": "t_uint256"
      },
      "t_mapping(t_bytes32,t_uint8)": {
        "encoding": "mapping",
        "key": "t_bytes32",
        "label": "mapping(bytes32 => uint8)",
        "numberOfBytes": "32",
        "value": "t_uint8"
      },
      "t_mapping(t_uint16,t_uint32)": {
        "encoding": "mapping",
        "key": "t_uint16",
        "label": "mapping(uint16 => uint32)",
        "numberOfBytes": "32",
        "value": "t_uint32"
      },
      "t_struct(CommitSubmission)23817_storage": {
        "encoding": "inplace",
        "label": "struct ServiceAgreementStructsV1.CommitSubmission",
        "members": [
          {
            "astId": 23810,
            "contract": "contracts/storage/ServiceAgreementStorageV1U1.sol:ServiceAgreementStorageV1U1",
            "label": "identityId",
            "offset": 0,
            "slot": "0",
            "type": "t_uint72"
          },
          {
            "astId": 23812,
            "contract": "contracts/storage/ServiceAgreementStorageV1U1.sol:ServiceAgreementStorageV1U1",
            "label": "prevIdentityId",
            "offset": 9,
            "slot": "0",
            "type": "t_uint72"
          },
          {
            "astId": 23814,
            "contract": "contracts/storage/ServiceAgreementStorageV1U1.sol:ServiceAgreementStorageV1U1",
            "label": "nextIdentityId",
            "offset": 18,
            "slot": "0",
            "type": "t_uint72"
          },
          {
            "astId": 23816,
            "contract": "contracts/storage/ServiceAgreementStorageV1U1.sol:ServiceAgreementStorageV1U1",
            "label": "score",
            "offset": 27,
            "slot": "0",
            "type": "t_uint40"
          }
        ],
        "numberOfBytes": "32"
      },
      "t_struct(ExtendedServiceAgreement)23878_storage": {
        "encoding": "inplace",
        "label": "struct ServiceAgreementStructsV1.ExtendedServiceAgreement",
        "members": [
          {
            "astId": 23857,
            "contract": "contracts/storage/ServiceAgreementStorageV1U1.sol:ServiceAgreementStorageV1U1",
            "label": "startTime",
            "offset": 0,
            "slot": "0",
            "type": "t_uint256"
          },
          {
            "astId": 23859,
            "contract": "contracts/storage/ServiceAgreementStorageV1U1.sol:ServiceAgreementStorageV1U1",
            "label": "epochsNumber",
            "offset": 0,
            "slot": "1",
            "type": "t_uint16"
          },
          {
            "astId": 23861,
            "contract": "contracts/storage/ServiceAgreementStorageV1U1.sol:ServiceAgreementStorageV1U1",
            "label": "epochLength",
            "offset": 2,
            "slot": "1",
            "type": "t_uint128"
          },
          {
            "astId": 23863,
            "contract": "contracts/storage/ServiceAgreementStorageV1U1.sol:ServiceAgreementStorageV1U1",
            "label": "tokenAmount",
            "offset": 18,
            "slot": "1",
            "type": "t_uint96"
          },
          {
            "astId": 23865,
            "contract": "contracts/storage/ServiceAgreementStorageV1U1.sol:ServiceAgreementStorageV1U1",
            "label": "updateTokenAmount",
            "offset": 0,
            "slot": "2",
            "type": "t_uint96"
          },
          {
            "astId": 23867,
            "contract": "contracts/storage/ServiceAgreementStorageV1U1.sol:ServiceAgreementStorageV1U1",
            "label": "scoreFunctionId",
            "offset": 12,
            "slot": "2",
            "type": "t_uint8"
          },
          {
            "astId": 23869,
            "contract": "contracts/storage/ServiceAgreementStorageV1U1.sol:ServiceAgreementStorageV1U1",
            "label": "proofWindowOffsetPerc",
            "offset": 13,
            "slot": "2",
            "type": "t_uint8"
          },
          {
            "astId": 23873,
            "contract": "contracts/storage/ServiceAgreementStorageV1U1.sol:ServiceAgreementStorageV1U1",
            "label": "epochSubmissionHeads",
            "offset": 0,
            "slot": "3",
            "type": "t_mapping(t_bytes32,t_bytes32)"
          },
          {
            "astId": 23877,
            "contract": "contracts/storage/ServiceAgreementStorageV1U1.sol:ServiceAgreementStorageV1U1",
            "label": "rewardedNodesNumber",
            "offset": 0,
            "slot": "4",
            "type": "t_mapping(t_uint16,t_uint32)"
          }
        ],
        "numberOfBytes": "160"
      },
      "t_uint128": {
        "encoding": "inplace",
        "label": "uint128",
        "numberOfBytes": "16"
      },
      "t_uint16": {
        "encoding": "inplace",
        "label": "uint16",
        "numberOfBytes": "2"
      },
      "t_uint256": {
        "encoding": "inplace",
        "label": "uint256",
        "numberOfBytes": "32"
      },
      "t_uint32": {
        "encoding": "inplace",
        "label": "uint32",
        "numberOfBytes": "4"
      },
      "t_uint40": {
        "encoding": "inplace",
        "label": "uint40",
        "numberOfBytes": "5"
      },
      "t_uint72": {
        "encoding": "inplace",
        "label": "uint72",
        "numberOfBytes": "9"
      },
      "t_uint8": {
        "encoding": "inplace",
        "label": "uint8",
        "numberOfBytes": "1"
      },
      "t_uint96": {
        "encoding": "inplace",
        "label": "uint96",
        "numberOfBytes": "12"
      }
    }
  }
}