{
  "address": "0xAc31f44728641fe1e631e9Bce1308C0e16e2c7F1",
  "abi": [
    {
      "inputs": [
        {
          "internalType": "address",
          "name": "hubAddress",
          "type": "address"
        }
      ],
      "stateMutability": "nonpayable",
      "type": "constructor"
    },
    {
      "inputs": [],
      "name": "ScoreError",
      "type": "error"
    },
    {
      "inputs": [
        {
          "internalType": "uint8",
          "name": "scoreFunctionId",
          "type": "uint8"
        }
      ],
      "name": "ScoreFunctionDoesntExist",
      "type": "error"
    },
    {
      "inputs": [
        {
          "internalType": "uint256",
          "name": "amount",
          "type": "uint256"
        }
      ],
      "name": "TooLowAllowance",
      "type": "error"
    },
    {
      "inputs": [
        {
          "internalType": "uint256",
          "name": "amount",
          "type": "uint256"
        }
      ],
      "name": "TooLowBalance",
      "type": "error"
    },
    {
      "inputs": [],
      "name": "ZeroEpochsNumber",
      "type": "error"
    },
    {
      "inputs": [],
      "name": "ZeroTokenAmount",
      "type": "error"
    },
    {
      "anonymous": false,
      "inputs": [
        {
          "indexed": true,
          "internalType": "address",
          "name": "assetContract",
          "type": "address"
        },
        {
          "indexed": true,
          "internalType": "uint256",
          "name": "tokenId",
          "type": "uint256"
        },
        {
          "indexed": false,
          "internalType": "bytes",
          "name": "keyword",
          "type": "bytes"
        },
        {
          "indexed": false,
          "internalType": "uint8",
          "name": "hashFunctionId",
          "type": "uint8"
        },
        {
          "indexed": false,
          "internalType": "uint256",
          "name": "startTime",
          "type": "uint256"
        },
        {
          "indexed": false,
          "internalType": "uint16",
          "name": "epochsNumber",
          "type": "uint16"
        },
        {
          "indexed": false,
          "internalType": "uint128",
          "name": "epochLength",
          "type": "uint128"
        },
        {
          "indexed": false,
          "internalType": "uint96",
          "name": "tokenAmount",
          "type": "uint96"
        }
      ],
      "name": "ServiceAgreementV1Created",
      "type": "event"
    },
    {
      "anonymous": false,
      "inputs": [
        {
          "indexed": true,
          "internalType": "bytes32",
          "name": "agreementId",
          "type": "bytes32"
        },
        {
          "indexed": false,
          "internalType": "uint16",
          "name": "epochsNumber",
          "type": "uint16"
        }
      ],
      "name": "ServiceAgreementV1Extended",
      "type": "event"
    },
    {
      "anonymous": false,
      "inputs": [
        {
          "indexed": true,
          "internalType": "bytes32",
          "name": "agreementId",
          "type": "bytes32"
        },
        {
          "indexed": false,
          "internalType": "uint96",
          "name": "tokenAmount",
          "type": "uint96"
        }
      ],
      "name": "ServiceAgreementV1RewardRaised",
      "type": "event"
    },
    {
      "anonymous": false,
      "inputs": [
        {
          "indexed": true,
          "internalType": "bytes32",
          "name": "agreementId",
          "type": "bytes32"
        }
      ],
      "name": "ServiceAgreementV1Terminated",
      "type": "event"
    },
    {
      "anonymous": false,
      "inputs": [
        {
          "indexed": true,
          "internalType": "bytes32",
          "name": "agreementId",
          "type": "bytes32"
        },
        {
          "indexed": false,
          "internalType": "uint96",
          "name": "updateTokenAmount",
          "type": "uint96"
        }
      ],
      "name": "ServiceAgreementV1UpdateRewardRaised",
      "type": "event"
    },
    {
      "inputs": [
        {
          "internalType": "address",
          "name": "assetOwner",
          "type": "address"
        },
        {
          "internalType": "bytes32",
          "name": "agreementId",
          "type": "bytes32"
        },
        {
          "internalType": "uint96",
          "name": "tokenAmount",
          "type": "uint96"
        }
      ],
      "name": "addTokens",
      "outputs": [],
      "stateMutability": "nonpayable",
      "type": "function"
    },
    {
      "inputs": [
        {
          "internalType": "address",
          "name": "assetOwner",
          "type": "address"
        },
        {
          "internalType": "bytes32",
          "name": "agreementId",
          "type": "bytes32"
        },
        {
          "internalType": "uint96",
          "name": "tokenAmount",
          "type": "uint96"
        }
      ],
      "name": "addUpdateTokens",
      "outputs": [],
      "stateMutability": "nonpayable",
      "type": "function"
    },
    {
      "inputs": [],
      "name": "commitManagerV1",
      "outputs": [
        {
          "internalType": "contract CommitManagerV1",
          "name": "",
          "type": "address"
        }
      ],
      "stateMutability": "view",
      "type": "function"
    },
    {
      "inputs": [],
      "name": "commitManagerV1U1",
      "outputs": [
        {
          "internalType": "contract CommitManagerV1U1",
          "name": "",
          "type": "address"
        }
      ],
      "stateMutability": "view",
      "type": "function"
    },
    {
      "inputs": [
        {
          "components": [
            {
              "internalType": "address",
              "name": "assetCreator",
              "type": "address"
            },
            {
              "internalType": "address",
              "name": "assetContract",
              "type": "address"
            },
            {
              "internalType": "uint256",
              "name": "tokenId",
              "type": "uint256"
            },
            {
              "internalType": "bytes",
              "name": "keyword",
              "type": "bytes"
            },
            {
              "internalType": "uint8",
              "name": "hashFunctionId",
              "type": "uint8"
            },
            {
              "internalType": "uint16",
              "name": "epochsNumber",
              "type": "uint16"
            },
            {
              "internalType": "uint96",
              "name": "tokenAmount",
              "type": "uint96"
            },
            {
              "internalType": "uint8",
              "name": "scoreFunctionId",
              "type": "uint8"
            }
          ],
          "internalType": "struct ServiceAgreementStructsV1.ServiceAgreementInputArgs",
          "name": "args",
          "type": "tuple"
        }
      ],
      "name": "createServiceAgreement",
      "outputs": [],
      "stateMutability": "nonpayable",
      "type": "function"
    },
    {
      "inputs": [
        {
          "internalType": "address",
          "name": "assetOwner",
          "type": "address"
        },
        {
          "internalType": "bytes32",
          "name": "agreementId",
          "type": "bytes32"
        },
        {
          "internalType": "uint16",
          "name": "epochsNumber",
          "type": "uint16"
        },
        {
          "internalType": "uint96",
          "name": "tokenAmount",
          "type": "uint96"
        }
      ],
      "name": "extendStoringPeriod",
      "outputs": [],
      "stateMutability": "nonpayable",
      "type": "function"
    },
    {
      "inputs": [
        {
          "internalType": "address",
          "name": "sender",
          "type": "address"
        },
        {
          "internalType": "address",
          "name": "assetContract",
          "type": "address"
        },
        {
          "internalType": "uint256",
          "name": "tokenId",
          "type": "uint256"
        },
        {
          "internalType": "uint16",
          "name": "epoch",
          "type": "uint16"
        }
      ],
      "name": "getChallenge",
      "outputs": [
        {
          "internalType": "bytes32",
          "name": "assertionId",
          "type": "bytes32"
        },
        {
          "internalType": "uint256",
          "name": "challenge",
          "type": "uint256"
        }
      ],
      "stateMutability": "view",
      "type": "function"
    },
    {
      "inputs": [
        {
          "internalType": "bytes32",
          "name": "agreementId",
          "type": "bytes32"
        },
        {
          "internalType": "uint16",
          "name": "epoch",
          "type": "uint16"
        }
      ],
      "name": "getTopCommitSubmissions",
      "outputs": [
        {
          "components": [
            {
              "internalType": "uint72",
              "name": "identityId",
              "type": "uint72"
            },
            {
              "internalType": "uint72",
              "name": "prevIdentityId",
              "type": "uint72"
            },
            {
              "internalType": "uint72",
              "name": "nextIdentityId",
              "type": "uint72"
            },
            {
              "internalType": "uint40",
              "name": "score",
              "type": "uint40"
            }
          ],
          "internalType": "struct ServiceAgreementStructsV1.CommitSubmission[]",
          "name": "",
          "type": "tuple[]"
        }
      ],
      "stateMutability": "view",
      "type": "function"
    },
    {
      "inputs": [],
      "name": "hashingProxy",
      "outputs": [
        {
          "internalType": "contract HashingProxy",
          "name": "",
          "type": "address"
        }
      ],
      "stateMutability": "view",
      "type": "function"
    },
    {
      "inputs": [],
      "name": "hub",
      "outputs": [
        {
          "internalType": "contract Hub",
          "name": "",
          "type": "address"
        }
      ],
      "stateMutability": "view",
      "type": "function"
    },
    {
      "inputs": [],
      "name": "initialize",
      "outputs": [],
      "stateMutability": "nonpayable",
      "type": "function"
    },
    {
      "inputs": [
        {
          "internalType": "bytes32",
          "name": "agreementId",
          "type": "bytes32"
        },
        {
          "internalType": "uint16",
          "name": "epoch",
          "type": "uint16"
        }
      ],
      "name": "isCommitWindowOpen",
      "outputs": [
        {
          "internalType": "bool",
          "name": "",
          "type": "bool"
        }
      ],
      "stateMutability": "view",
      "type": "function"
    },
    {
      "inputs": [
        {
          "internalType": "bytes32",
          "name": "agreementId",
          "type": "bytes32"
        },
        {
          "internalType": "uint16",
          "name": "epoch",
          "type": "uint16"
        }
      ],
      "name": "isProofWindowOpen",
      "outputs": [
        {
          "internalType": "bool",
          "name": "",
          "type": "bool"
        }
      ],
      "stateMutability": "view",
      "type": "function"
    },
    {
      "inputs": [],
      "name": "name",
      "outputs": [
        {
          "internalType": "string",
          "name": "",
          "type": "string"
        }
      ],
      "stateMutability": "pure",
      "type": "function"
    },
    {
      "inputs": [],
      "name": "parametersStorage",
      "outputs": [
        {
          "internalType": "contract ParametersStorage",
          "name": "",
          "type": "address"
        }
      ],
      "stateMutability": "view",
      "type": "function"
    },
    {
      "inputs": [],
      "name": "proofManagerV1",
      "outputs": [
        {
          "internalType": "contract ProofManagerV1",
          "name": "",
          "type": "address"
        }
      ],
      "stateMutability": "view",
      "type": "function"
    },
    {
      "inputs": [],
      "name": "proofManagerV1U1",
      "outputs": [
        {
          "internalType": "contract ProofManagerV1U1",
          "name": "",
          "type": "address"
        }
      ],
      "stateMutability": "view",
      "type": "function"
    },
    {
      "inputs": [],
      "name": "scoringProxy",
      "outputs": [
        {
          "internalType": "contract ScoringProxy",
          "name": "",
          "type": "address"
        }
      ],
      "stateMutability": "view",
      "type": "function"
    },
    {
      "inputs": [
        {
          "components": [
            {
              "internalType": "address",
              "name": "assetContract",
              "type": "address"
            },
            {
              "internalType": "uint256",
              "name": "tokenId",
              "type": "uint256"
            },
            {
              "internalType": "bytes",
              "name": "keyword",
              "type": "bytes"
            },
            {
              "internalType": "uint8",
              "name": "hashFunctionId",
              "type": "uint8"
            },
            {
              "internalType": "uint16",
              "name": "epoch",
              "type": "uint16"
            },
            {
              "internalType": "bytes32[]",
              "name": "proof",
              "type": "bytes32[]"
            },
            {
              "internalType": "bytes32",
              "name": "chunkHash",
              "type": "bytes32"
            }
          ],
          "internalType": "struct ServiceAgreementStructsV1.ProofInputArgs",
          "name": "args",
          "type": "tuple"
        }
      ],
      "name": "sendProof",
      "outputs": [],
      "stateMutability": "nonpayable",
      "type": "function"
    },
    {
      "inputs": [],
      "name": "serviceAgreementStorageProxy",
      "outputs": [
        {
          "internalType": "contract ServiceAgreementStorageProxy",
          "name": "",
          "type": "address"
        }
      ],
      "stateMutability": "view",
      "type": "function"
    },
    {
      "inputs": [
        {
          "internalType": "bool",
          "name": "_status",
          "type": "bool"
        }
      ],
      "name": "setStatus",
      "outputs": [],
      "stateMutability": "nonpayable",
      "type": "function"
    },
    {
      "inputs": [],
      "name": "status",
      "outputs": [
        {
          "internalType": "bool",
          "name": "",
          "type": "bool"
        }
      ],
      "stateMutability": "view",
      "type": "function"
    },
    {
      "inputs": [
        {
          "components": [
            {
              "internalType": "address",
              "name": "assetContract",
              "type": "address"
            },
            {
              "internalType": "uint256",
              "name": "tokenId",
              "type": "uint256"
            },
            {
              "internalType": "bytes",
              "name": "keyword",
              "type": "bytes"
            },
            {
              "internalType": "uint8",
              "name": "hashFunctionId",
              "type": "uint8"
            },
            {
              "internalType": "uint16",
              "name": "epoch",
              "type": "uint16"
            }
          ],
          "internalType": "struct ServiceAgreementStructsV1.CommitInputArgs",
          "name": "args",
          "type": "tuple"
        }
      ],
      "name": "submitCommit",
      "outputs": [],
      "stateMutability": "nonpayable",
      "type": "function"
    },
    {
      "inputs": [
        {
          "internalType": "address",
          "name": "assetOwner",
          "type": "address"
        },
        {
          "internalType": "bytes32",
          "name": "agreementId",
          "type": "bytes32"
        }
      ],
      "name": "terminateAgreement",
      "outputs": [],
      "stateMutability": "nonpayable",
      "type": "function"
    },
    {
      "inputs": [],
      "name": "tokenContract",
      "outputs": [
        {
          "internalType": "contract IERC20",
          "name": "",
          "type": "address"
        }
      ],
      "stateMutability": "view",
      "type": "function"
    },
    {
      "inputs": [],
      "name": "version",
      "outputs": [
        {
          "internalType": "string",
          "name": "",
          "type": "string"
        }
      ],
      "stateMutability": "pure",
      "type": "function"
    }
  ],
  "transactionHash": "0x9b56f81483b3405d9f6acc0a8e65eebe7e8f85236442e6670c6e4fa3db76ebe2",
  "args": [
    "0x224aEC6891d26e994D4Dbf207aE099ca029b3E67"
  ],
  "numDeployments": 1,
  "solcInputHash": "6736b5a2b01ed07b57366e384b7e7c88",
  "bytecode": "0x6080346100c157601f62002b5938819003918201601f19168301916001600160401b038311848410176100c6578084926020946040528339810103126100c157516001600160a01b038116908190036100c157801561007c57600080546001600160a01b031916919091179055604051612a7c9081620000dd8239f35b60405162461bcd60e51b815260206004820152601960248201527f48756220416464726573732063616e6e6f7420626520307830000000000000006044820152606490fd5b600080fd5b634e487b7160e01b600052604160045260246000fdfe608080604052600436101561001357600080fd5b600090813560e01c90816306fdde0314611dfd575080630f00201614611d2657806311c94ee814611cfd578063169df8d814611b89578063200d2ed214611b64578063365a86fc14611b3d57806354fd4d5014611af357806355a373d614611aca5780635c40f6f414611a86578063639a86a314611a5d5780637522c2b1146118a85780637662966a1461187f578063794b8e53146118565780637ca3fa73146116ad5780637db4ffd8146116135780638129fc1c1461122457806388adf4cd146110855780639062b3ef1461105c57806390b8145a1461103357806399a5c86b14610d3f578063a97b32cc14610d16578063aa6a00fd14610cef578063af0ad9c214610b82578063becdd59714610b51578063e1572ce61461016a5763f3bced2a1461013f57600080fd5b346101675780600319360112610167576004546040516001600160a01b039091168152602090f35b80fd5b503461016757600319602036820112610b4d5767ffffffffffffffff60043511610b4d576101009060043536030112610167576101a56129a1565b61ffff6101b660a460043501611f80565b1615610b3b576001600160601b036101d260c460043501611f8f565b1615610b29576006546001600160a01b0316602060ff60246101f860043560e401611fa3565b604051948593849263e12e56a760e01b84521660048301525afa908115610999578291610b0a575b5015610ae2576005546102b390602090610289906001600160a01b031661024b600435608401611fa3565b61029761025c602460043501611fc9565b610270606460043501600435600401611fdd565b60409691965196879360446004350135908a8601612010565b03601f198101855284611f3f565b6040518095819482936345ed59e560e01b84526004840161203a565b03915afa908115610999578291610ab0575b506008546007546001600160a01b03908116929116906102e960043560a401611f80565b90604051630afaeebf60e31b8152602081600481885afa908115610aa5578691610a86575b5061031d60c460043501611f8f565b9061032c60e460043501611fa3565b9160405192634731312160e11b918285526020856004818c5afa948515610a7b578a95610a5a575b50610363600435600401611fc9565b604051600162dee8bd60e01b031981529093908b6020826004818f5afa928315610a2b578c928294610a38575b5060209060046040518095819382525afa8015610a2b5760ff928392916109fc575b50169116039260ff84116109e85760ff600181861601116109a857604051904260208301526001600160601b03199060601b1660408201524360548201526054815280608081011067ffffffffffffffff6080830111176109d257600160ff82608082940160405260208151910120951601169384156109be5760ff808686061681881601116109a8578a97893b156109a457604051976303cfb9b560e21b8952600489015261ffff1660248801526001600160801b031660448701526001600160601b0316606486015260ff1660848501520660ff169060ff160160ff1660a482015281818481835a9260c493f1801561099957610981575b50506009546001600160a01b0316906104fc60206104cd6004803501611fc9565b604051636eb1769f60e11b81526001600160a01b03909116600482015230602482015291829081906044820190565b0381865afa9081156107cd57859161094f575b506001600160601b0361052660c460043501611f8f565b16116108ac5761053a600435600401611fc9565b6040516370a0823160e01b81526001600160a01b039091166004820152602081602481865afa9081156107cd57859161087a575b506001600160601b0361058560c460043501611f8f565b16116107d857600490602061059c83358401611fc9565b91604051938480926324bdf84360e01b82525afa9283156107cd576106199360209387916107a0575b50866105d560c460043501611f8f565b6040516323b872dd60e01b81526001600160a01b0395861660048201529290941660248301526001600160601b039093166044820152938492839182906064820190565b03925af1801561079557610766575b50610637602460043501611fc9565b90600461064b606482350182358301611fdd565b909261065a6084843501611fa3565b93602061066a60a4863501611f80565b9260405195868092630afaeebf60e31b82525afa93841561075b577f4b81188c3c973dd634ec0dae5b7e72f92bb03834c830739d63935923950d6f64946001600160601b03936001600160801b03928a92610726575b5061ffff9060ff6106eb6106d860c460043501611f8f565b966040519960c08b5260c08b019161208f565b991660208801524260408801521660608601521660808401521660a082015260043560440135936001600160a01b03169281900390a3604051f35b61ffff91925061074d9060203d602011610754575b6107458183611f3f565b810190612057565b91906106c0565b503d61073b565b6040513d89823e3d90fd5b6107879060203d60201161078e575b61077f8183611f3f565b810190611fb1565b5038610628565b503d610775565b6040513d85823e3d90fd5b6107c09150843d86116107c6575b6107b88183611f3f565b810190611f61565b386105c5565b503d6107ae565b6040513d87823e3d90fd5b508260206107ea600435600401611fc9565b6040516370a0823160e01b81526001600160a01b03909116600482015292839060249082905afa90811561086e5790610836575b602490604051906317bf085b60e11b82526004820152fd5b506020813d602011610866575b8161085060209383611f3f565b81010312610861576024905161081e565b600080fd5b3d9150610843565b604051903d90823e3d90fd5b90506020813d6020116108a4575b8161089560209383611f3f565b8101031261086157513861056e565b3d9150610888565b6108f3846020846108c1600435600401611fc9565b604051636eb1769f60e11b81526001600160a01b03909116600482015230602482015293849190829081906044820190565b03915afa90811561086e579061091c575b60249060405190630aff60cd60e01b82526004820152fd5b506020813d602011610947575b8161093660209383611f3f565b810103126108615760249051610904565b3d9150610929565b90506020813d602011610979575b8161096a60209383611f3f565b8101031261086157513861050f565b3d915061095d565b61098a90611f0f565b6109955782386104ac565b8280fd5b6040513d84823e3d90fd5b8880fd5b634e487b7160e01b600052601160045260246000fd5b634e487b7160e01b8b52601260045260248bfd5b634e487b7160e01b600052604160045260246000fd5b634e487b7160e01b8b52601160045260248bfd5b610a1e915060203d602011610a24575b610a168183611f3f565b810190612076565b386103b2565b503d610a0c565b50604051903d90823e3d90fd5b6020919450610a5390823d8411610a2457610a168183611f3f565b9390610390565b610a7491955060203d602011610a2457610a168183611f3f565b9338610354565b6040513d8c823e3d90fd5b610a9f915060203d602011610754576107458183611f3f565b3861030e565b6040513d88823e3d90fd5b90506020813d602011610ada575b81610acb60209383611f3f565b810103126108615751386102c5565b3d9150610abe565b6024610af260e460043501611fa3565b60ff60405191633345e8a560e11b8352166004820152fd5b610b23915060203d60201161078e5761077f8183611f3f565b38610220565b6040516382c4a8c960e01b8152600490fd5b60405163223e71ab60e21b8152600490fd5b5080fd5b5034610167576040366003190112610167576020610b78610b70611eb5565b6004356120ea565b6040519015158152f35b503461016757610b9136611ed5565b9091610b9b6129a1565b60018060a01b0360085416916040519163044c990b60e41b8352846004840152856020938481602481895afa90811561099957610be19185918491610cc2575b506120cf565b853b15610b4d5760405163e25aa72560e01b8152600481018890526001600160601b039190911660248201528181604481838a5af1801561099957610caa575b505082600494604051958680926319109b2960e01b82525afa938415610aa5577f3b81258b404713da9e3591f3b422e39802a2def5d5fab04f9731ef691933c38294610c769284928992610c8b575b50612679565b6001600160601b0360405191168152a2604051f35b610ca3919250863d88116107c6576107b88183611f3f565b9038610c70565b610cb390611f0f565b610cbe578538610c21565b8580fd5b610ce29150873d8911610ce8575b610cda8183611f3f565b8101906120b0565b38610bdb565b503d610cd0565b5034610167576040366003190112610167576020610b78610d0e611eb5565b6004356124d0565b50346101675780600319360112610167576001546040516001600160a01b039091168152602090f35b503461016757608036600319011261016757610d59611e8b565b6024359060443561ffff90818116809103610861576064356001600160601b038116810361086157610d896129a1565b8115610b3b5760085460405163d1a640c760e01b8152600481018790526020946001600160a01b039092169291908581602481875afa90811561102857859183918b91610fed575b501601908111610fd9578790833b15610b4d57604051630f3a549d60e01b81526004810189905261ffff919091166024820152818160448183885af1801561099957610fc5575b50604051634089a17d60e01b8152600481018890528581602481875afa90811561099957610e4e9184918491610fae57506120cf565b833b15610b4d5760405163e54b26ff60e01b8152600481018990526001600160601b03919091166024820152818160448183885af1801561099957610f96575b50506040516339075c2560e11b8152600481018790528481602481865afa928315610f8b5760049386928a91610f6e575b5015610f1d576040516324bdf84360e01b815293849182905afa801561075b577fd3c4c2750e1e1293020095a2f42986ac9b3a4673299e4c653d411f4f23366fba95610f11938992610c8b5750612679565b604051908152a2604051f35b6040516319109b2960e01b815293849182905afa801561075b577fd3c4c2750e1e1293020095a2f42986ac9b3a4673299e4c653d411f4f23366fba95610f69938992610c8b5750612679565b610f11565b610f859150833d851161078e5761077f8183611f3f565b38610ebf565b6040513d8a823e3d90fd5b610f9f90611f0f565b610faa578638610e8e565b8680fd5b610ce29150883d8a11610ce857610cda8183611f3f565b610fce90611f0f565b610faa578638610e18565b634e487b7160e01b88526011600452602488fd5b925050508581813d8311611021575b6110068183611f3f565b810103126109a4575181811681036109a45781859138610dd1565b503d610ffc565b6040513d8b823e3d90fd5b50346101675780600319360112610167576008546040516001600160a01b039091168152602090f35b50346101675780600319360112610167576002546040516001600160a01b039091168152602090f35b50346101675760403660031901126101675761109f611e8b565b81602435916110ac6129a1565b600854604051634089a17d60e01b8152600481018590526001600160a01b03918216929190602081602481875afa9081156107cd578591611206575b50833b156111ee5760405163e54b26ff60e01b8152866004820152856024820152858160448183895af1908115610aa55786916111f2575b5050833b156111ee576001600160601b03916040519362c7060f60e11b8552876004860152166024840152166044820152828160648183865af19081156107955783916111da575b5050803b15610b4d57818091602460405180948193631acdf94160e31b83528860048401525af18015610999576111c6575b5050604051907fa2046e95b0f3c09b590f520cc8ff057dae18eab6f5babd635cdc736093364ea38383a2f35b6111cf90611f0f565b610b4d57813861119a565b6111e390611f0f565b610b4d578138611168565b8480fd5b6111fb90611f0f565b6111ee578438611120565b61121e915060203d8111610ce857610cda8183611f3f565b386110e8565b503461016757806003193601126101675761123d6128f3565b60018060a01b0380825416906040519183630110ceef60e21b808552602092836004870152602490600f828801526044926e436f6d6d69744d616e61676572563160881b8489015260649186898481845afa988915610aa55786996115f4575b50876001600160601b0360a01b991689600154161760015560405182815287600482015260118582015270436f6d6d69744d616e616765725631553160781b8682015287818581855afa801561075b57899188916115d7575b5016896002541617600255604051828152876004820152600e858201526d50726f6f664d616e61676572563160901b8682015287818581855afa801561075b57899188916115ba575b50168960035416176003556040518281528760048201526010858201526f50726f6f664d616e616765725631553160801b8682015287818581855afa801561075b578991889161159d575b5016896004541617600455604051828152876004820152600c858201526b48617368696e6750726f787960a01b8682015287818581855afa801561075b5789918891611580575b5016896005541617600555604051828152876004820152600c858201526b53636f72696e6750726f787960a01b8682015287818581855afa801561075b5789918891611563575b501689600654161760065560405182815287600482015260118582015270506172616d657465727353746f7261676560781b8682015287818581855afa801561075b5789918891611546575b5016896007541617600755604051828152876004820152601c858201527f5365727669636541677265656d656e7453746f7261676550726f7879000000008682015287818581855afa95861561075b57898997642a37b5b2b760d91b9360059a91611529575b50168b6008541617600855604051978896879586528860048701528501528301525afa9182156107cd57859261150c575b505016906009541617600955604051f35b6115229250803d106107c6576107b88183611f3f565b38806114fb565b6115409150893d8b116107c6576107b88183611f3f565b386114ca565b61155d9150893d8b116107c6576107b88183611f3f565b38611464565b61157a9150893d8b116107c6576107b88183611f3f565b38611418565b6115979150893d8b116107c6576107b88183611f3f565b386113d1565b6115b49150893d8b116107c6576107b88183611f3f565b3861138a565b6115d19150893d8b116107c6576107b88183611f3f565b3861133f565b6115ee9150893d8b116107c6576107b88183611f3f565b386112f6565b61160c919950873d89116107c6576107b88183611f3f565b973861129d565b503461016757604036600319011261016757611638611630611eb5565b600435612309565b60405190602080830190808452825180925280604085019301945b8281106116605784840385f35b8551805168ffffffffffffffffff9081168652818401518116868501526040808301519091169086015260609081015164ffffffffff169085015294810194608090930192600101611653565b5034610167576116bc36611ed5565b90916116c66129a1565b60018060a01b03600854169160405191634089a17d60e01b8352846004840152856020938481602481895afa9081156109995761170b9185918491610cc257506120cf565b853b15610b4d5760405163e54b26ff60e01b8152600481018890526001600160601b039190911660248201528181604481838a5af1801561099957611842575b50506040516339075c2560e11b8152600481018690528381602481885afa94851561075b5760049585928991611825575b50156117d1576040516324bdf84360e01b815295869182905afa938415610aa5577f90840e0b7ccf40ddc471c0368c567e5f17ba45b13a4d3df78e7b15777a5a942194610c769284928992610c8b5750612679565b6040516319109b2960e01b815295869182905afa938415610aa5577f90840e0b7ccf40ddc471c0368c567e5f17ba45b13a4d3df78e7b15777a5a9421946118209284928992610c8b5750612679565b610c76565b61183c9150833d851161078e5761077f8183611f3f565b3861177c565b61184b90611f0f565b610cbe57853861174b565b50346101675780600319360112610167576003546040516001600160a01b039091168152602090f35b50346101675780600319360112610167576006546040516001600160a01b039091168152602090f35b50346101675780600319602036820181136119d6576004359067ffffffffffffffff8211611a585760e082600401938336030112611a58576005546001600160a01b039261193391839160249186169061029761190760648301611fa3565b916102896119148b611fc9565b611921604484018d611fdd565b916040519889950135908a8601612010565b03915afa9081156107cd578591611a27575b50818360085416916024604051809481936339075c2560e11b835260048301525afa9182156107cd578592611a0a575b5050156119da5760035416803b156119d657604051637522c2b160e01b815291839183918290849082906119ac906004830161259e565b03925af18015610999576119c2575b5050604051f35b6119cb90611f0f565b6101675780386119bb565b5050fd5b60045416803b156119d657604051637522c2b160e01b815291839183918290849082906119ac906004830161259e565b611a209250803d1061078e5761077f8183611f3f565b3880611975565b809550828092503d8311611a51575b611a408183611f3f565b810103126108615784935138611945565b503d611a36565b505050fd5b50346101675780600319360112610167576007546040516001600160a01b039091168152602090f35b503461016757602036600319011261016757600435801515809103610b4d57611aad6128f3565b815460ff60a01b191660a09190911b60ff60a01b16178155604051f35b50346101675780600319360112610167576009546040516001600160a01b039091168152602090f35b5034610167578060031936011261016757611b39604051611b1381611f23565b6005815264312e312e3160d81b6020820152604051918291602083526020830190611e4b565b0390f35b5034610167578060031936011261016757546040516001600160a01b039091168152602090f35b503461016757806003193601126101675760ff6020915460a01c166040519015158152f35b50346101675780600319602036820181136119d6576004359067ffffffffffffffff8211611a585760a082600401938336030112611a58576005546001600160a01b0392611be891839160249186169061029761190760648301611fa3565b03915afa9081156107cd578591611cd0575b50818360085416916024604051809481936339075c2560e11b835260048301525afa9182156107cd578592611cb3575b505015611c615760015416803b156119d6576040516302d3bf1b60e31b815291839183918290849082906119ac9060048301612460565b6002541690813b156119d6578291611c8f916040519485809481936302d3bf1b60e31b835260048301612460565b03925af1801561099957611ca4575b50604051f35b611cad90611f0f565b38611c9e565b611cc99250803d1061078e5761077f8183611f3f565b3880611c2a565b90508181813d8311611cf6575b611ce78183611f3f565b810103126111ee575138611bfa565b503d611cdd565b50346101675780600319360112610167576005546040516001600160a01b039091168152602090f35b503461016757608036600319011261016757611d40611e8b565b6024356001600160a01b038181169291839003611df95760643561ffff81168091036111ee5760409260849183600354169085519687958694630780100b60e11b86521660048501526024840152604435604484015260648301525afa80156109995782918391611dbc575b6040838382519182526020820152f35b9150506040813d604011611df1575b81611dd860409383611f3f565b81010312610b4d57604091506020815191015138611dac565b3d9150611dcb565b8380fd5b905034610b4d5781600319360112610b4d5780611e1c611b3992611f23565b60128152715365727669636541677265656d656e74563160701b60208201526040519182916020835260208301905b919082519283825260005b848110611e77575050826000602080949584010152601f8019910116010190565b602081830181015184830182015201611e56565b600435906001600160a01b038216820361086157565b35906001600160a01b038216820361086157565b6024359061ffff8216820361086157565b359061ffff8216820361086157565b6060906003190112610861576004356001600160a01b03811681036108615790602435906044356001600160601b03811681036108615790565b67ffffffffffffffff81116109d257604052565b6040810190811067ffffffffffffffff8211176109d257604052565b90601f8019910116810190811067ffffffffffffffff8211176109d257604052565b9081602091031261086157516001600160a01b03811681036108615790565b3561ffff811681036108615790565b356001600160601b03811681036108615790565b3560ff811681036108615790565b90816020910312610861575180151581036108615790565b356001600160a01b03811681036108615790565b903590601e1981360301821215610861570180359067ffffffffffffffff82116108615760200191813603831361086157565b91928493603495926001600160601b03199060601b16845260148401528483013701016000815290565b60409060ff61205494931681528160208201520190611e4b565b90565b9081602091031261086157516001600160801b03811681036108615790565b90816020910312610861575160ff811681036108615790565b908060209392818452848401376000828201840152601f01601f1916010190565b9081602091031261086157516001600160601b03811681036108615790565b9190916001600160601b03808094169116019182116109a857565b600854604080516339075c2560e11b81526004810184905290939260209290916001600160a01b039184908290602490829086165afa9081156121ee576000916121d1575b501561219d57600154855163becdd59760e01b8152600481019390935261ffff9094166024830152909282918491168180604481015b03915afa928315612193575060009261217d57505090565b6120549250803d1061078e5761077f8183611f3f565b513d6000823e3d90fd5b600254855163becdd59760e01b8152600481019390935261ffff909416602483015290928291849116818060448101612165565b6121e89150843d861161078e5761077f8183611f3f565b3861212f565b86513d6000823e3d90fd5b519068ffffffffffffffffff8216820361086157565b6020808284031261086157815167ffffffffffffffff9283821161086157019183601f84011215610861578251908082116109d257604090815195612259858560051b0188611f3f565b838752848088019460071b87010195818711610861578501935b868510612284575050505050505090565b6080908186840312610861578451918201828110858211176122f45785526122ab866121f9565b82526122b88787016121f9565b878301526122c78587016121f9565b85830152606090818701519264ffffffffff84168403610861576080938993820152815201940193612273565b60246000634e487b7160e01b81526041600452fd5b600854604080516339075c2560e11b815260048101849052909392916001600160a01b0391906020908290602490829086165afa908115612415576000916123f7575b50156123b2576001548451630fb69ffb60e31b8152600481019390935261ffff939093166024830152909160009183916044918391165afa9182156121935750600091612397575090565b612054913d8091833e6123aa8183611f3f565b81019061220f565b91606460009261ffff94600254168651958694859363be07fc2360e01b855260048501521660248301528460448301525afa9182156121935750600091612397575090565b61240f915060203d811161078e5761077f8183611f3f565b3861234c565b85513d6000823e3d90fd5b9035601e198236030181121561086157016020813591019167ffffffffffffffff821161086157813603831361086157565b359060ff8216820361086157565b602081526001600160a01b0361247583611ea1565b1660208201526020820135604082015260a061ffff6124c960806124af61249f6040880188612420565b86606089015260c088019161208f565b9560ff6124be60608301612452565b168287015201611ec6565b1691015290565b600854604080516339075c2560e11b81526004810184905290939260209290916001600160a01b039184908290602490829086165afa9081156121ee57600091612581575b501561254f57600354855163aa6a00fd60e01b8152600481019390935261ffff909416602483015290928291849116818060448101612165565b60048054865163aa6a00fd60e01b81529182019390935261ffff90941660248501528291849116818060448101612165565b6125989150843d861161078e5761077f8183611f3f565b38612515565b602080825291906001600160a01b036125b683611ea1565b16838201528282013560408201526125e66125d46040840184612420565b60e0606085015261010084019161208f565b9060ff6125f560608501612452565b16608082015261ffff61260a60808501611ec6565b1660a082015260a0830135601e198436030181121561086157830192848435940167ffffffffffffffff8511610861578460051b94853603821361086157838503601f190160c08501528085526001600160fb1b03106108615760e0918560c092888701370135910152010190565b91906001600160601b038216908115610b295760095460408051636eb1769f60e11b8082526001600160a01b0388811660048085019190915230602485015260209994979582169590939092908a816044818a5afa908115612834579084916000916128c3575b501061283f575086516370a0823160e01b80825291851684820181905292908a816024818a5afa90811561283457600091612807575b501061279057505084516323b872dd60e01b81526001600160a01b039283169181019182529190931660208401526001600160601b03909416604083015284918491908290600090829060600103925af19081156121935750612777575050565b8161278d92903d1061078e5761077f8183611f3f565b50565b848980949360248a94855194859384928352888301525afa9384156127fc576000946127ce575b82516317bf085b60e11b8152808501869052602490fd5b81813d83116127f5575b6127e28183611f3f565b81010312611df9575192506024846127b7565b503d6127d8565b82513d6000823e3d90fd5b908b82813d831161282d575b61281d8183611f3f565b8101031261016757505138612716565b503d612813565b89513d6000823e3d90fd5b87519081526001600160a01b0385168482019081523060208201528a9185918a919084908290819003604001818c5afa9384156127fc57600094612895575b8251630aff60cd60e01b8152808501869052602490fd5b81813d83116128bc575b6128a98183611f3f565b81010312611df95751925060248461287e565b503d61289f565b91508b82813d83116128ec575b6128da8183611f3f565b810103126101675750839051386126e0565b503d6128d0565b600054604051638da5cb5b60e01b81526001600160a01b03916020908290600490829086165afa90811561299557600091612977575b5016330361293357565b606460405162461bcd60e51b815260206004820152602060248201527f466e2063616e206f6e6c79206265207573656420627920687562206f776e65726044820152fd5b61298f915060203d81116107c6576107b88183611f3f565b38612929565b6040513d6000823e3d90fd5b600054604051631627905560e01b815233600482015290602090829060249082906001600160a01b03165afa90811561299557600091612a28575b50156129e457565b606460405162461bcd60e51b815260206004820152602060248201527f466e2063616e206f6e6c792062652063616c6c656420627920746865206875626044820152fd5b612a40915060203d811161078e5761077f8183611f3f565b386129dc56fea2646970667358221220851d0fab9b44910dc18ae8d23316e53e2c0658cea0ecc9f849ec3b02dc16af2764736f6c63430008100033",
  "devdoc": {
    "kind": "dev",
    "methods": {},
    "version": 1
  },
  "userdoc": {
    "kind": "user",
    "methods": {},
    "version": 1
  },
  "storageLayout": {
    "storage": [
      {
        "astId": 15408,
        "contract": "contracts/ServiceAgreementV1.sol:ServiceAgreementV1",
        "label": "hub",
        "offset": 0,
        "slot": "0",
        "type": "t_contract(Hub)9211"
      },
      {
        "astId": 15379,
        "contract": "contracts/ServiceAgreementV1.sol:ServiceAgreementV1",
        "label": "status",
        "offset": 20,
        "slot": "0",
        "type": "t_bool"
      },
      {
        "astId": 12750,
        "contract": "contracts/ServiceAgreementV1.sol:ServiceAgreementV1",
        "label": "commitManagerV1",
        "offset": 0,
        "slot": "1",
        "type": "t_contract(CommitManagerV1)6990"
      },
      {
        "astId": 12753,
        "contract": "contracts/ServiceAgreementV1.sol:ServiceAgreementV1",
        "label": "commitManagerV1U1",
        "offset": 0,
        "slot": "2",
        "type": "t_contract(CommitManagerV1U1)8490"
      },
      {
        "astId": 12756,
        "contract": "contracts/ServiceAgreementV1.sol:ServiceAgreementV1",
        "label": "proofManagerV1",
        "offset": 0,
        "slot": "3",
        "type": "t_contract(ProofManagerV1)11635"
      },
      {
        "astId": 12759,
        "contract": "contracts/ServiceAgreementV1.sol:ServiceAgreementV1",
        "label": "proofManagerV1U1",
        "offset": 0,
        "slot": "4",
        "type": "t_contract(ProofManagerV1U1)12434"
      },
      {
        "astId": 12762,
        "contract": "contracts/ServiceAgreementV1.sol:ServiceAgreementV1",
        "label": "hashingProxy",
        "offset": 0,
        "slot": "5",
        "type": "t_contract(HashingProxy)8950"
      },
      {
        "astId": 12765,
        "contract": "contracts/ServiceAgreementV1.sol:ServiceAgreementV1",
        "label": "scoringProxy",
        "offset": 0,
        "slot": "6",
        "type": "t_contract(ScoringProxy)12659"
      },
      {
        "astId": 12768,
        "contract": "contracts/ServiceAgreementV1.sol:ServiceAgreementV1",
        "label": "parametersStorage",
        "offset": 0,
        "slot": "7",
        "type": "t_contract(ParametersStorage)19108"
      },
      {
        "astId": 12771,
        "contract": "contracts/ServiceAgreementV1.sol:ServiceAgreementV1",
        "label": "serviceAgreementStorageProxy",
        "offset": 0,
        "slot": "8",
        "type": "t_contract(ServiceAgreementStorageProxy)21098"
      },
      {
        "astId": 12774,
        "contract": "contracts/ServiceAgreementV1.sol:ServiceAgreementV1",
        "label": "tokenContract",
        "offset": 0,
        "slot": "9",
        "type": "t_contract(IERC20)1169"
      }
    ],
    "types": {
      "t_bool": {
        "encoding": "inplace",
        "label": "bool",
        "numberOfBytes": "1"
      },
      "t_contract(CommitManagerV1)6990": {
        "encoding": "inplace",
        "label": "contract CommitManagerV1",
        "numberOfBytes": "20"
      },
      "t_contract(CommitManagerV1U1)8490": {
        "encoding": "inplace",
        "label": "contract CommitManagerV1U1",
        "numberOfBytes": "20"
      },
      "t_contract(HashingProxy)8950": {
        "encoding": "inplace",
        "label": "contract HashingProxy",
        "numberOfBytes": "20"
      },
      "t_contract(Hub)9211": {
        "encoding": "inplace",
        "label": "contract Hub",
        "numberOfBytes": "20"
      },
      "t_contract(IERC20)1169": {
        "encoding": "inplace",
        "label": "contract IERC20",
        "numberOfBytes": "20"
      },
      "t_contract(ParametersStorage)19108": {
        "encoding": "inplace",
        "label": "contract ParametersStorage",
        "numberOfBytes": "20"
      },
      "t_contract(ProofManagerV1)11635": {
        "encoding": "inplace",
        "label": "contract ProofManagerV1",
        "numberOfBytes": "20"
      },
      "t_contract(ProofManagerV1U1)12434": {
        "encoding": "inplace",
        "label": "contract ProofManagerV1U1",
        "numberOfBytes": "20"
      },
      "t_contract(ScoringProxy)12659": {
        "encoding": "inplace",
        "label": "contract ScoringProxy",
        "numberOfBytes": "20"
      },
      "t_contract(ServiceAgreementStorageProxy)21098": {
        "encoding": "inplace",
        "label": "contract ServiceAgreementStorageProxy",
        "numberOfBytes": "20"
      }
    }
  }
}