{
  "address": "0xF24e3Ef12d6357CcBEFDf01772146b39416daA44",
  "abi": [
    {
      "inputs": [
        {
          "internalType": "address",
          "name": "hubAddress",
          "type": "address"
        }
      ],
      "stateMutability": "nonpayable",
      "type": "constructor"
    },
    {
      "anonymous": false,
      "inputs": [
        {
          "indexed": true,
          "internalType": "address",
          "name": "custodian",
          "type": "address"
        },
        {
          "indexed": false,
          "internalType": "uint256",
          "name": "amount",
          "type": "uint256"
        }
      ],
      "name": "MisplacedOTPWithdrawn",
      "type": "event"
    },
    {
      "anonymous": false,
      "inputs": [
        {
          "indexed": true,
          "internalType": "address",
          "name": "custodian",
          "type": "address"
        },
        {
          "indexed": false,
          "internalType": "address",
          "name": "tokenContract",
          "type": "address"
        },
        {
          "indexed": false,
          "internalType": "uint256",
          "name": "amount",
          "type": "uint256"
        }
      ],
      "name": "MisplacedTokensWithdrawn",
      "type": "event"
    },
    {
      "anonymous": false,
      "inputs": [
        {
          "indexed": true,
          "internalType": "address",
          "name": "custodian",
          "type": "address"
        },
        {
          "indexed": false,
          "internalType": "uint256",
          "name": "amount",
          "type": "uint256"
        }
      ],
      "name": "TokenTransferred",
      "type": "event"
    },
    {
      "inputs": [
        {
          "internalType": "bytes32",
          "name": "commitId",
          "type": "bytes32"
        }
      ],
      "name": "commitSubmissionExists",
      "outputs": [
        {
          "internalType": "bool",
          "name": "",
          "type": "bool"
        }
      ],
      "stateMutability": "view",
      "type": "function"
    },
    {
      "inputs": [
        {
          "internalType": "bytes32",
          "name": "commitId",
          "type": "bytes32"
        },
        {
          "internalType": "uint72",
          "name": "identityId",
          "type": "uint72"
        },
        {
          "internalType": "uint72",
          "name": "prevIdentityId",
          "type": "uint72"
        },
        {
          "internalType": "uint72",
          "name": "nextIdentityId",
          "type": "uint72"
        },
        {
          "internalType": "uint40",
          "name": "score",
          "type": "uint40"
        }
      ],
      "name": "createCommitSubmissionObject",
      "outputs": [],
      "stateMutability": "nonpayable",
      "type": "function"
    },
    {
      "inputs": [
        {
          "internalType": "bytes32",
          "name": "agreementId",
          "type": "bytes32"
        },
        {
          "internalType": "uint16",
          "name": "epochsNumber",
          "type": "uint16"
        },
        {
          "internalType": "uint128",
          "name": "epochLength",
          "type": "uint128"
        },
        {
          "internalType": "uint96",
          "name": "tokenAmount",
          "type": "uint96"
        },
        {
          "internalType": "uint8",
          "name": "scoreFunctionId",
          "type": "uint8"
        },
        {
          "internalType": "uint8",
          "name": "proofWindowOffsetPerc",
          "type": "uint8"
        }
      ],
      "name": "createServiceAgreementObject",
      "outputs": [],
      "stateMutability": "nonpayable",
      "type": "function"
    },
    {
      "inputs": [
        {
          "internalType": "bytes32",
          "name": "agreementId",
          "type": "bytes32"
        },
        {
          "internalType": "uint16",
          "name": "epoch",
          "type": "uint16"
        }
      ],
      "name": "decrementAgreementRewardedNodesNumber",
      "outputs": [],
      "stateMutability": "nonpayable",
      "type": "function"
    },
    {
      "inputs": [
        {
          "internalType": "bytes32",
          "name": "commitId",
          "type": "bytes32"
        }
      ],
      "name": "deleteCommitSubmissionsObject",
      "outputs": [],
      "stateMutability": "nonpayable",
      "type": "function"
    },
    {
      "inputs": [
        {
          "internalType": "bytes32",
          "name": "agreementId",
          "type": "bytes32"
        }
      ],
      "name": "deleteServiceAgreementObject",
      "outputs": [],
      "stateMutability": "nonpayable",
      "type": "function"
    },
    {
      "inputs": [
        {
          "internalType": "bytes32",
          "name": "agreementId",
          "type": "bytes32"
        }
      ],
      "name": "getAgreementData",
      "outputs": [
        {
          "internalType": "uint256",
          "name": "startTime",
          "type": "uint256"
        },
        {
          "internalType": "uint16",
          "name": "epochsNumber",
          "type": "uint16"
        },
        {
          "internalType": "uint128",
          "name": "epochLength",
          "type": "uint128"
        },
        {
          "internalType": "uint96",
          "name": "tokenAmount",
          "type": "uint96"
        },
        {
          "internalType": "uint8[2]",
          "name": "scoreFunctionIdAndProofWindowOffsetPerc",
          "type": "uint8[2]"
        }
      ],
      "stateMutability": "view",
      "type": "function"
    },
    {
      "inputs": [
        {
          "internalType": "bytes32",
          "name": "agreementId",
          "type": "bytes32"
        }
      ],
      "name": "getAgreementEpochLength",
      "outputs": [
        {
          "internalType": "uint128",
          "name": "",
          "type": "uint128"
        }
      ],
      "stateMutability": "view",
      "type": "function"
    },
    {
      "inputs": [
        {
          "internalType": "bytes32",
          "name": "agreementId",
          "type": "bytes32"
        },
        {
          "internalType": "uint16",
          "name": "epoch",
          "type": "uint16"
        }
      ],
      "name": "getAgreementEpochSubmissionHead",
      "outputs": [
        {
          "internalType": "bytes32",
          "name": "",
          "type": "bytes32"
        }
      ],
      "stateMutability": "view",
      "type": "function"
    },
    {
      "inputs": [
        {
          "internalType": "bytes32",
          "name": "agreementId",
          "type": "bytes32"
        }
      ],
      "name": "getAgreementEpochsNumber",
      "outputs": [
        {
          "internalType": "uint16",
          "name": "",
          "type": "uint16"
        }
      ],
      "stateMutability": "view",
      "type": "function"
    },
    {
      "inputs": [
        {
          "internalType": "bytes32",
          "name": "agreementId",
          "type": "bytes32"
        }
      ],
      "name": "getAgreementProofWindowOffsetPerc",
      "outputs": [
        {
          "internalType": "uint8",
          "name": "",
          "type": "uint8"
        }
      ],
      "stateMutability": "view",
      "type": "function"
    },
    {
      "inputs": [
        {
          "internalType": "bytes32",
          "name": "agreementId",
          "type": "bytes32"
        },
        {
          "internalType": "uint16",
          "name": "epoch",
          "type": "uint16"
        }
      ],
      "name": "getAgreementRewardedNodesNumber",
      "outputs": [
        {
          "internalType": "uint32",
          "name": "",
          "type": "uint32"
        }
      ],
      "stateMutability": "view",
      "type": "function"
    },
    {
      "inputs": [
        {
          "internalType": "bytes32",
          "name": "agreementId",
          "type": "bytes32"
        }
      ],
      "name": "getAgreementScoreFunctionId",
      "outputs": [
        {
          "internalType": "uint8",
          "name": "",
          "type": "uint8"
        }
      ],
      "stateMutability": "view",
      "type": "function"
    },
    {
      "inputs": [
        {
          "internalType": "bytes32",
          "name": "agreementId",
          "type": "bytes32"
        }
      ],
      "name": "getAgreementStartTime",
      "outputs": [
        {
          "internalType": "uint256",
          "name": "",
          "type": "uint256"
        }
      ],
      "stateMutability": "view",
      "type": "function"
    },
    {
      "inputs": [
        {
          "internalType": "bytes32",
          "name": "agreementId",
          "type": "bytes32"
        }
      ],
      "name": "getAgreementTokenAmount",
      "outputs": [
        {
          "internalType": "uint96",
          "name": "",
          "type": "uint96"
        }
      ],
      "stateMutability": "view",
      "type": "function"
    },
    {
      "inputs": [
        {
          "internalType": "bytes32",
          "name": "commitId",
          "type": "bytes32"
        }
      ],
      "name": "getCommitSubmission",
      "outputs": [
        {
          "components": [
            {
              "internalType": "uint72",
              "name": "identityId",
              "type": "uint72"
            },
            {
              "internalType": "uint72",
              "name": "prevIdentityId",
              "type": "uint72"
            },
            {
              "internalType": "uint72",
              "name": "nextIdentityId",
              "type": "uint72"
            },
            {
              "internalType": "uint40",
              "name": "score",
              "type": "uint40"
            }
          ],
          "internalType": "struct ServiceAgreementStructsV1.CommitSubmission",
          "name": "",
          "type": "tuple"
        }
      ],
      "stateMutability": "view",
      "type": "function"
    },
    {
      "inputs": [
        {
          "internalType": "bytes32",
          "name": "commitId",
          "type": "bytes32"
        }
      ],
      "name": "getCommitSubmissionIdentityId",
      "outputs": [
        {
          "internalType": "uint72",
          "name": "",
          "type": "uint72"
        }
      ],
      "stateMutability": "view",
      "type": "function"
    },
    {
      "inputs": [
        {
          "internalType": "bytes32",
          "name": "commitId",
          "type": "bytes32"
        }
      ],
      "name": "getCommitSubmissionNextIdentityId",
      "outputs": [
        {
          "internalType": "uint72",
          "name": "",
          "type": "uint72"
        }
      ],
      "stateMutability": "view",
      "type": "function"
    },
    {
      "inputs": [
        {
          "internalType": "bytes32",
          "name": "commitId",
          "type": "bytes32"
        }
      ],
      "name": "getCommitSubmissionPrevIdentityId",
      "outputs": [
        {
          "internalType": "uint72",
          "name": "",
          "type": "uint72"
        }
      ],
      "stateMutability": "view",
      "type": "function"
    },
    {
      "inputs": [
        {
          "internalType": "bytes32",
          "name": "commitId",
          "type": "bytes32"
        }
      ],
      "name": "getCommitSubmissionScore",
      "outputs": [
        {
          "internalType": "uint40",
          "name": "",
          "type": "uint40"
        }
      ],
      "stateMutability": "view",
      "type": "function"
    },
    {
      "inputs": [],
      "name": "hub",
      "outputs": [
        {
          "internalType": "contract Hub",
          "name": "",
          "type": "address"
        }
      ],
      "stateMutability": "view",
      "type": "function"
    },
    {
      "inputs": [
        {
          "internalType": "bytes32",
          "name": "agreementId",
          "type": "bytes32"
        },
        {
          "internalType": "uint16",
          "name": "epoch",
          "type": "uint16"
        }
      ],
      "name": "incrementAgreementRewardedNodesNumber",
      "outputs": [],
      "stateMutability": "nonpayable",
      "type": "function"
    },
    {
      "inputs": [],
      "name": "initialize",
      "outputs": [],
      "stateMutability": "nonpayable",
      "type": "function"
    },
    {
      "inputs": [],
      "name": "name",
      "outputs": [
        {
          "internalType": "string",
          "name": "",
          "type": "string"
        }
      ],
      "stateMutability": "pure",
      "type": "function"
    },
    {
      "inputs": [
        {
          "internalType": "bytes32",
          "name": "agreementId",
          "type": "bytes32"
        }
      ],
      "name": "serviceAgreementExists",
      "outputs": [
        {
          "internalType": "bool",
          "name": "",
          "type": "bool"
        }
      ],
      "stateMutability": "view",
      "type": "function"
    },
    {
      "inputs": [
        {
          "internalType": "bytes32",
          "name": "agreementId",
          "type": "bytes32"
        },
        {
          "internalType": "uint128",
          "name": "epochLength",
          "type": "uint128"
        }
      ],
      "name": "setAgreementEpochLength",
      "outputs": [],
      "stateMutability": "nonpayable",
      "type": "function"
    },
    {
      "inputs": [
        {
          "internalType": "bytes32",
          "name": "agreementId",
          "type": "bytes32"
        },
        {
          "internalType": "uint16",
          "name": "epoch",
          "type": "uint16"
        },
        {
          "internalType": "bytes32",
          "name": "headCommitId",
          "type": "bytes32"
        }
      ],
      "name": "setAgreementEpochSubmissionHead",
      "outputs": [],
      "stateMutability": "nonpayable",
      "type": "function"
    },
    {
      "inputs": [
        {
          "internalType": "bytes32",
          "name": "agreementId",
          "type": "bytes32"
        },
        {
          "internalType": "uint16",
          "name": "epochsNumber",
          "type": "uint16"
        }
      ],
      "name": "setAgreementEpochsNumber",
      "outputs": [],
      "stateMutability": "nonpayable",
      "type": "function"
    },
    {
      "inputs": [
        {
          "internalType": "bytes32",
          "name": "agreementId",
          "type": "bytes32"
        },
        {
          "internalType": "uint8",
          "name": "proofWindowOffsetPerc",
          "type": "uint8"
        }
      ],
      "name": "setAgreementProofWindowOffsetPerc",
      "outputs": [],
      "stateMutability": "nonpayable",
      "type": "function"
    },
    {
      "inputs": [
        {
          "internalType": "bytes32",
          "name": "agreementId",
          "type": "bytes32"
        },
        {
          "internalType": "uint16",
          "name": "epoch",
          "type": "uint16"
        },
        {
          "internalType": "uint32",
          "name": "rewardedNodesNumber",
          "type": "uint32"
        }
      ],
      "name": "setAgreementRewardedNodesNumber",
      "outputs": [],
      "stateMutability": "nonpayable",
      "type": "function"
    },
    {
      "inputs": [
        {
          "internalType": "bytes32",
          "name": "agreementId",
          "type": "bytes32"
        },
        {
          "internalType": "uint8",
          "name": "newScoreFunctionId",
          "type": "uint8"
        }
      ],
      "name": "setAgreementScoreFunctionId",
      "outputs": [],
      "stateMutability": "nonpayable",
      "type": "function"
    },
    {
      "inputs": [
        {
          "internalType": "bytes32",
          "name": "agreementId",
          "type": "bytes32"
        },
        {
          "internalType": "uint256",
          "name": "startTime",
          "type": "uint256"
        }
      ],
      "name": "setAgreementStartTime",
      "outputs": [],
      "stateMutability": "nonpayable",
      "type": "function"
    },
    {
      "inputs": [
        {
          "internalType": "bytes32",
          "name": "agreementId",
          "type": "bytes32"
        },
        {
          "internalType": "uint96",
          "name": "tokenAmount",
          "type": "uint96"
        }
      ],
      "name": "setAgreementTokenAmount",
      "outputs": [],
      "stateMutability": "nonpayable",
      "type": "function"
    },
    {
      "inputs": [
        {
          "internalType": "bytes32",
          "name": "commitId",
          "type": "bytes32"
        },
        {
          "internalType": "uint72",
          "name": "identityId",
          "type": "uint72"
        }
      ],
      "name": "setCommitSubmissionIdentityId",
      "outputs": [],
      "stateMutability": "nonpayable",
      "type": "function"
    },
    {
      "inputs": [
        {
          "internalType": "bytes32",
          "name": "commitId",
          "type": "bytes32"
        },
        {
          "internalType": "uint72",
          "name": "nextIdentityId",
          "type": "uint72"
        }
      ],
      "name": "setCommitSubmissionNextIdentityId",
      "outputs": [],
      "stateMutability": "nonpayable",
      "type": "function"
    },
    {
      "inputs": [
        {
          "internalType": "bytes32",
          "name": "commitId",
          "type": "bytes32"
        },
        {
          "internalType": "uint72",
          "name": "prevIdentityId",
          "type": "uint72"
        }
      ],
      "name": "setCommitSubmissionPrevIdentityId",
      "outputs": [],
      "stateMutability": "nonpayable",
      "type": "function"
    },
    {
      "inputs": [
        {
          "internalType": "bytes32",
          "name": "commitId",
          "type": "bytes32"
        },
        {
          "internalType": "uint40",
          "name": "score",
          "type": "uint40"
        }
      ],
      "name": "setCommitSubmissionScore",
      "outputs": [],
      "stateMutability": "nonpayable",
      "type": "function"
    },
    {
      "inputs": [],
      "name": "tokenContract",
      "outputs": [
        {
          "internalType": "contract IERC20",
          "name": "",
          "type": "address"
        }
      ],
      "stateMutability": "view",
      "type": "function"
    },
    {
      "inputs": [
        {
          "internalType": "address",
          "name": "receiver",
          "type": "address"
        },
        {
          "internalType": "uint96",
          "name": "tokenAmount",
          "type": "uint96"
        }
      ],
      "name": "transferAgreementTokens",
      "outputs": [],
      "stateMutability": "nonpayable",
      "type": "function"
    },
    {
      "inputs": [
        {
          "internalType": "address payable",
          "name": "custodian",
          "type": "address"
        }
      ],
      "name": "transferTokens",
      "outputs": [],
      "stateMutability": "nonpayable",
      "type": "function"
    },
    {
      "inputs": [],
      "name": "version",
      "outputs": [
        {
          "internalType": "string",
          "name": "",
          "type": "string"
        }
      ],
      "stateMutability": "pure",
      "type": "function"
    },
    {
      "inputs": [],
      "name": "withdrawMisplacedOTP",
      "outputs": [],
      "stateMutability": "nonpayable",
      "type": "function"
    },
    {
      "inputs": [
        {
          "internalType": "address",
          "name": "tokenContractAddress",
          "type": "address"
        }
      ],
      "name": "withdrawMisplacedTokens",
      "outputs": [],
      "stateMutability": "nonpayable",
      "type": "function"
    }
  ],
  "transactionHash": "0xcd75c15ce71f33dd0a46784f53bf5e0d486a0fd25949a8b9b21652cb3a7776a8",
  "args": [
    "0x224aEC6891d26e994D4Dbf207aE099ca029b3E67"
  ],
  "numDeployments": 1,
  "solcInputHash": "6736b5a2b01ed07b57366e384b7e7c88",
  "bytecode": "0x6080346100bf57601f611ab638819003918201601f19168301916001600160401b038311848410176100c4578084926020946040528339810103126100bf57516001600160a01b038116908190036100bf57801561007a57600080546001600160a01b0319169190911790556040516119db90816100db8239f35b60405162461bcd60e51b815260206004820152601960248201527f48756220416464726573732063616e6e6f7420626520307830000000000000006044820152606490fd5b600080fd5b634e487b7160e01b600052604160045260246000fdfe6040608081526004908136101561001557600080fd5b600091823560e01c8063038fed73146116bd578063054fd4001461168d57806306fdde03146116385780630c89a0df1461124b5780630f3a549d14611209578063365a86fc146111e15780633c96f02b146111ae5780633d631716146111525780634089a17d1461111c5780634750b9f4146110d3578063484a47e71461109d5780634c72fefc14610f6f57806354fd4d5014610f2e57806355a373d614610f01578063572943f714610ec35780635c6c1fef14610e995780636441a27614610e485780636ce1510e14610d665780636ff015ae14610c705780638129fc1c14610baa57806386e0cc8814610b8157806388f6df5614610b3c57806388f7a9b414610a9d5780638a0f01b514610a3f578063932e9c2914610a1557806399149f77146109e85780639c70b3c0146109c15780639d7937b2146107cf578063a631489614610769578063ac64112e14610712578063ac9d7cf4146106ce578063b2ffa99714610669578063b67b6e1e14610636578063beca40f3146105be578063c45d17491461058c578063cb327c7d14610529578063ce60dc61146104f9578063cf57ca2f146103cd578063d1a640c71461039f578063d66fca081461036f578063e184b9e814610314578063e54b26ff146102aa5763e9410053146101fa57600080fd5b346102a657816003193601126102a6576020610214611783565b604461021e61175d565b91610227611900565b600154865163a9059cbb60e01b81526001600160a01b03928316968101969096526001600160601b039093166024860152849283918891165af1801561029a5761026f575051f35b61028f9060203d8111610293575b61028781836117e7565b81019061181d565b5051f35b503d61027d565b505051903d90823e3d90fd5b8280fd5b50346102a657816003193601126102a657610311906102c761175d565b906102d0611900565b358452600360205282842060010180546bffffffffffffffffffffffff60901b191660909290921b6bffffffffffffffffffffffff60901b16919091179055565b51f35b50346102a657816003193601126102a65761031190610331611747565b9061033a611900565b35845260026020528284209068ffffffffffffffffff60481b82549160481b169068ffffffffffffffffff60481b1916179055565b50346102a65760203660031901126102a657610389611900565b3582526003602052816001828220828155015551f35b50346102a65760203660031901126102a65760018260209461ffff9335815260038652200154169051908152f35b50346102a65760a03660031901126102a6576103e7611747565b604435916001600160481b038084168094036104f557606435918183168093036104f1576084359164ffffffffff938484168094036104ed576104a382610311986104cd95610434611900565b828c519a6104418c611799565b168a5260208a019182528b8a0194855260608a01978852358c526002602052818b8d209951166001600160481b03198a54161789555116879068ffffffffffffffffff60481b82549160481b169068ffffffffffffffffff60481b1916179055565b51855468ffffffffffffffffff60901b1916911660901b68ffffffffffffffffff60901b16178455565b5182546001600160d81b0316911660d81b6001600160d81b031916179055565b8880fd5b8680fd5b8580fd5b50346102a65760203660031901126102a65760018260209460ff933581526003865220015460f01c169051908152f35b50346102a65760603660031901126102a657610543611731565b6044359163ffffffff83168093036105885761055d611900565b358452600360205261ffff600384862001911684526020528183209063ffffffff1982541617905551f35b8480fd5b50346102a65760203660031901126102a657816020936001600160481b03923581526002855220541615159051908152f35b50346102a657816003193601126102a6576105d7611731565b6105df611900565b81358452600360205261ffff600384862001911684526020528183209081549063ffffffff90818316908282146106235750600101169063ffffffff191617905551f35b634e487b7160e01b875260119052602486fd5b50346102a65760203660031901126102a657816020936001600160481b039235815260028552205460901c169051908152f35b50346102a657816003193601126102a657610682611731565b61068a611900565b81358452600360205261ffff600384862001911684526020528183209081549063ffffffff90818316908115610623575060001901169063ffffffff191617905551f35b50346102a657816003193601126102a6578160209363ffffffff926106f1611731565b903582526003865261ffff6003848420019116825285522054169051908152f35b50346102a657816003193601126102a6576103119061072f611773565b90610738611900565b358452600360205282842060010180546001600160f81b031660f89290921b6001600160f81b031916919091179055565b50346102a657816003193601126102a6576024356001600160801b03811681036107cb5761031191610799611900565b35845260036020526001838520019062010000600160901b0382549160101b169062010000600160901b031916179055565b8380fd5b50346102a6576020806003193601126107cb576107ea611783565b916107f3611835565b6001546001600160a01b0384811693911683146109675784516370a0823160e01b81523083820152928184602481845afa93841561092e578794610938575b508361087c575b505083516001600160a01b0393909316835250602082015233907f5fe8cbe5f97c59a4b590a924c3fc62aac6b6a653ec22e39f5fc6d3732f18c25490604090a251f35b855163a9059cbb60e01b815233848201908152602081018690529091839183919082908b90829060400103925af190811561092e578791610911575b50156108c45780610839565b845162461bcd60e51b815291820152602260248201527f546f6b656e207472616e73616374696f6e20657865637574696f6e206661696c604482015261195960f21b606482015260849150fd5b6109289150823d84116102935761028781836117e7565b386108b8565b86513d89823e3d90fd5b9093508181813d8311610960575b61095081836117e7565b810103126104f157519238610832565b503d610946565b845162461bcd60e51b815291820152602f60248201527f43616e6e6f742075736520746869732066756e6374696f6e207769746820746860448201526e194815149050c818dbdb9d1c9858dd608a1b606482015260849150fd5b50346102a65760203660031901126102a65760209282913581526003845220549051908152f35b50346102a65760203660031901126102a657816020936001923581526003855220015460f81c9051908152f35b50346102a65760203660031901126102a657610a2f611900565b3582526002602052818181205551f35b50346102a657816003193601126102a65761031190610a5c611747565b90610a65611900565b3584526002602052828420805468ffffffffffffffffff60901b191660909290921b68ffffffffffffffffff60901b16919091179055565b50346102a65760203660031901126102a657818364ffffffffff9260809560608451610ac881611799565b8281528260208201528286820152015235815260026020522091805192610aee84611799565b54906001600160481b03808316948581528160208201818660481c168152606085840193838860901c168552019560d81c865284519788525116602087015251169084015251166060820152f35b50346102a65760603660031901126102a657610b56611731565b90610b5f611900565b358352600360205261ffff600283852001911683526020526044358183205551f35b50346102a65760203660031901126102a657602092829135815260038452205415159051908152f35b50346102a657826003193601126102a657610bc3611835565b82548251630110ceef60e21b8152602092810183905260056024820152642a37b5b2b760d91b60448201526001600160a01b039290918290606490829086165afa908115610c63578491610c2a575b50166001600160601b0360a01b600154161760015551f35b90506020813d8211610c5b575b81610c44602093836117e7565b810103126107cb57610c5590611809565b38610c12565b3d9150610c37565b50505051903d90823e3d90fd5b5090346102a6576020806003193601126107cb57823590828051610c93816117cb565b36903781855260038152828520805460019182015485519196929591926001600160601b03609083901c16926001600160801b03601084901c1692909161ffff909116908583019086821067ffffffffffffffff831117610d5357508252868a526003808752828b2089015460f01c60ff9081168752978b528652818a2088015460f81c868601528151988952888601528701526060860152608085015b60028710610d3e5760c086f35b81518416815295840195908201908201610d31565b634e487b7160e01b8c526041905260248bfd5b50346102a657826003193601126102a657610d7f611835565b479081610db6575b5081519081527fd32ec2b96f6389848e3f68f670160bf5a50b5024b6f62a61108f20025179a29160203392a251f35b838080855185335af13d15610e43573d67ffffffffffffffff8111610e3057845190610dec601f8201601f1916602001836117e7565b81528560203d92013e5b610d8757606490602084519162461bcd60e51b8352820152601060248201526f2a3930b739b332b9103330b4b632b21760811b6044820152fd5b634e487b7160e01b865260418352602486fd5b610df6565b50346102a657816003193601126102a65761031190610e65611773565b90610e6e611900565b3584526003602052828420600101805460ff60f01b191660f09290921b60ff60f01b16919091179055565b50346102a65760203660031901126102a657602092829135815260028452205460d81c9051908152f35b50346102a657816003193601126102a6576020928291610ee1611731565b903582526003855261ffff60028484200191168252845220549051908152f35b505034610f2a5781600319360112610f2a5760015490516001600160a01b039091168152602090f35b5080fd5b505034610f2a5781600319360112610f2a578051610f6b91610f4f826117cb565b60058252640312e302e360dc1b602083015251918291826116e8565b0390f35b50346102a65760c03660031901126102a657610f89611731565b604435906001600160801b038216820361058857606435926001600160601b03841684036104f55760843560ff811681036104f15760a4359360ff85168503611099576103119561102c61105c9261107695610fe3611900565b358b526003602052898b20428155600101805471ffffffffffffffffffffffffffffffffffff191661ffff989098169790971760109190911b62010000600160901b0316178655565b84546bffffffffffffffffffffffff60901b191660909190911b6bffffffffffffffffffffffff60901b16178455565b825460ff60f01b191660f09190911b60ff60f01b16178255565b80546001600160f81b031660f89290921b6001600160f81b031916919091179055565b8780fd5b50346102a65760203660031901126102a6576001826020946001600160801b03933581526003865220015460101c169051908152f35b50346102a657816003193601126102a6576110ec611747565b906110f5611900565b35835260026020526001600160481b0382842091166001600160481b031982541617905551f35b50346102a65760203660031901126102a6576001826020946001600160601b03933581526003865220015460901c169051908152f35b50346102a657816003193601126102a65760243564ffffffffff811681036107cb5761031191611180611900565b358452600260205282842080546001600160d81b031660d89290921b6001600160d81b031916919091179055565b50346102a65760203660031901126102a657816020936001600160481b039235815260028552205460481c169051908152f35b505034610f2a5781600319360112610f2a57905490516001600160a01b039091168152602090f35b50346102a657816003193601126102a657611222611731565b9061122b611900565b358352600360205261ffff600183852001911661ffff1982541617905551f35b50346102a6576020806003193601126107cb5781356001600160a01b0381811693918481036104f15761127c611835565b84156115ea573b1561158257845163a0e67e2b60e01b8152869081818581895afa8891816114c9575b50611450575b50156113e85760015416908585516370a0823160e01b815230838201528481602481875afa9384156113de57859183956113ad575b50604488518094819363a9059cbb60e01b83528a888401528860248401525af190811561092e578791611390575b50156113415750907fefed6b8d78a916dbd402a323824ae4454c9214b8f3d05fa85b3bb7f30dc25c06918451908152a251f35b845162461bcd60e51b8152908101839052602360248201527f546f6b656e207472616e73616374696f6e20657865637574696f6e206661696c60448201526265642160e81b6064820152608490fd5b6113a79150843d86116102935761028781836117e7565b3861130e565b8281939296503d83116113d7575b6113c581836117e7565b81010312610f2a5784905193386112e0565b503d6113bb565b87513d84823e3d90fd5b5060849184519162461bcd60e51b8352820152603f60248201527f43616e6e6f74207472616e7366657220746f6b656e7320746f20637573746f6460448201527f69616e20776974686f7574206765744f776e6572732066756e6374696f6e21006064820152fd5b51600191501561146057386112ab565b855162461bcd60e51b8152808401859052603b60248201527f43616e6e6f74207472616e7366657220746f6b656e7320746f20637573746f6460448201527f69616e20776974686f7574206f776e65727320646566696e65642100000000006064820152608490fd5b9091503d808a833e6114db81836117e7565b8101868282031261157e57815167ffffffffffffffff92838211611563570181601f8201121561157a578051928311611567578260051b908a51936115228a8401866117e7565b845288808501928201019283116115635788809101915b83831061154b575050505090386112a5565b819061155684611809565b8152019101908890611539565b8b80fd5b634e487b7160e01b8b526041875260248bfd5b8a80fd5b8980fd5b5060849184519162461bcd60e51b8352820152603b60248201527f43616e6e6f74207472616e7366657220746f6b656e7320746f20637573746f6460448201527f69616e2074686174206973206e6f74206120636f6e74726163742100000000006064820152fd5b855162461bcd60e51b8152808401859052602260248201527f437573746f6469616e2063616e6e6f742062652061207a65726f206164647265604482015261737360f01b6064820152608490fd5b505034610f2a5781600319360112610f2a578051610f6b91611659826117cb565b601982527f5365727669636541677265656d656e7453746f72616765563100000000000000602083015251918291826116e8565b50346102a65760203660031901126102a657816020936001600160481b0392358152600285522054169051908152f35b50346102a657816003193601126102a6576116d6611900565b35825260036020526024358183205551f35b6020808252825181830181905290939260005b82811061171d57505060409293506000838284010152601f8019910116010190565b8181018601518482016040015285016116fb565b6024359061ffff8216820361174257565b600080fd5b602435906001600160481b038216820361174257565b602435906001600160601b038216820361174257565b6024359060ff8216820361174257565b600435906001600160a01b038216820361174257565b6080810190811067ffffffffffffffff8211176117b557604052565b634e487b7160e01b600052604160045260246000fd5b6040810190811067ffffffffffffffff8211176117b557604052565b90601f8019910116810190811067ffffffffffffffff8211176117b557604052565b51906001600160a01b038216820361174257565b90816020910312611742575180151581036117425790565b600054604051638da5cb5b60e01b81526020916001600160a01b03919083908290600490829086165afa9081156118f4576000916118bc575b501633036118795750565b6064906040519062461bcd60e51b825280600483015260248201527f466e2063616e206f6e6c79206265207573656420627920687562206f776e65726044820152fd5b908382813d83116118ed575b6118d281836117e7565b810103126118ea57506118e490611809565b3861186e565b80fd5b503d6118c8565b6040513d6000823e3d90fd5b600054604051631627905560e01b815233600482015290602090829060249082906001600160a01b03165afa9081156118f457600091611987575b501561194357565b606460405162461bcd60e51b815260206004820152602060248201527f466e2063616e206f6e6c792062652063616c6c656420627920746865206875626044820152fd5b61199f915060203d81116102935761028781836117e7565b3861193b56fea2646970667358221220b5a5123c3b56d0320ffb82086d1a6441dcd6b79ca0cfb7296f4eb832c63dc45664736f6c63430008100033",
  "devdoc": {
    "kind": "dev",
    "methods": {},
    "version": 1
  },
  "userdoc": {
    "kind": "user",
    "methods": {},
    "version": 1
  },
  "storageLayout": {
    "storage": [
      {
        "astId": 15408,
        "contract": "contracts/storage/ServiceAgreementStorageV1.sol:ServiceAgreementStorageV1",
        "label": "hub",
        "offset": 0,
        "slot": "0",
        "type": "t_contract(Hub)9211"
      },
      {
        "astId": 8523,
        "contract": "contracts/storage/ServiceAgreementStorageV1.sol:ServiceAgreementStorageV1",
        "label": "tokenContract",
        "offset": 0,
        "slot": "1",
        "type": "t_contract(IERC20)1169"
      },
      {
        "astId": 21125,
        "contract": "contracts/storage/ServiceAgreementStorageV1.sol:ServiceAgreementStorageV1",
        "label": "commitSubmissions",
        "offset": 0,
        "slot": "2",
        "type": "t_mapping(t_bytes32,t_struct(CommitSubmission)23817_storage)"
      },
      {
        "astId": 21130,
        "contract": "contracts/storage/ServiceAgreementStorageV1.sol:ServiceAgreementStorageV1",
        "label": "serviceAgreements",
        "offset": 0,
        "slot": "3",
        "type": "t_mapping(t_bytes32,t_struct(ServiceAgreement)23855_storage)"
      }
    ],
    "types": {
      "t_bytes32": {
        "encoding": "inplace",
        "label": "bytes32",
        "numberOfBytes": "32"
      },
      "t_contract(Hub)9211": {
        "encoding": "inplace",
        "label": "contract Hub",
        "numberOfBytes": "20"
      },
      "t_contract(IERC20)1169": {
        "encoding": "inplace",
        "label": "contract IERC20",
        "numberOfBytes": "20"
      },
      "t_mapping(t_bytes32,t_struct(CommitSubmission)23817_storage)": {
        "encoding": "mapping",
        "key": "t_bytes32",
        "label": "mapping(bytes32 => struct ServiceAgreementStructsV1.CommitSubmission)",
        "numberOfBytes": "32",
        "value": "t_struct(CommitSubmission)23817_storage"
      },
      "t_mapping(t_bytes32,t_struct(ServiceAgreement)23855_storage)": {
        "encoding": "mapping",
        "key": "t_bytes32",
        "label": "mapping(bytes32 => struct ServiceAgreementStructsV1.ServiceAgreement)",
        "numberOfBytes": "32",
        "value": "t_struct(ServiceAgreement)23855_storage"
      },
      "t_mapping(t_uint16,t_bytes32)": {
        "encoding": "mapping",
        "key": "t_uint16",
        "label": "mapping(uint16 => bytes32)",
        "numberOfBytes": "32",
        "value": "t_bytes32"
      },
      "t_mapping(t_uint16,t_uint32)": {
        "encoding": "mapping",
        "key": "t_uint16",
        "label": "mapping(uint16 => uint32)",
        "numberOfBytes": "32",
        "value": "t_uint32"
      },
      "t_struct(CommitSubmission)23817_storage": {
        "encoding": "inplace",
        "label": "struct ServiceAgreementStructsV1.CommitSubmission",
        "members": [
          {
            "astId": 23810,
            "contract": "contracts/storage/ServiceAgreementStorageV1.sol:ServiceAgreementStorageV1",
            "label": "identityId",
            "offset": 0,
            "slot": "0",
            "type": "t_uint72"
          },
          {
            "astId": 23812,
            "contract": "contracts/storage/ServiceAgreementStorageV1.sol:ServiceAgreementStorageV1",
            "label": "prevIdentityId",
            "offset": 9,
            "slot": "0",
            "type": "t_uint72"
          },
          {
            "astId": 23814,
            "contract": "contracts/storage/ServiceAgreementStorageV1.sol:ServiceAgreementStorageV1",
            "label": "nextIdentityId",
            "offset": 18,
            "slot": "0",
            "type": "t_uint72"
          },
          {
            "astId": 23816,
            "contract": "contracts/storage/ServiceAgreementStorageV1.sol:ServiceAgreementStorageV1",
            "label": "score",
            "offset": 27,
            "slot": "0",
            "type": "t_uint40"
          }
        ],
        "numberOfBytes": "32"
      },
      "t_struct(ServiceAgreement)23855_storage": {
        "encoding": "inplace",
        "label": "struct ServiceAgreementStructsV1.ServiceAgreement",
        "members": [
          {
            "astId": 23836,
            "contract": "contracts/storage/ServiceAgreementStorageV1.sol:ServiceAgreementStorageV1",
            "label": "startTime",
            "offset": 0,
            "slot": "0",
            "type": "t_uint256"
          },
          {
            "astId": 23838,
            "contract": "contracts/storage/ServiceAgreementStorageV1.sol:ServiceAgreementStorageV1",
            "label": "epochsNumber",
            "offset": 0,
            "slot": "1",
            "type": "t_uint16"
          },
          {
            "astId": 23840,
            "contract": "contracts/storage/ServiceAgreementStorageV1.sol:ServiceAgreementStorageV1",
            "label": "epochLength",
            "offset": 2,
            "slot": "1",
            "type": "t_uint128"
          },
          {
            "astId": 23842,
            "contract": "contracts/storage/ServiceAgreementStorageV1.sol:ServiceAgreementStorageV1",
            "label": "tokenAmount",
            "offset": 18,
            "slot": "1",
            "type": "t_uint96"
          },
          {
            "astId": 23844,
            "contract": "contracts/storage/ServiceAgreementStorageV1.sol:ServiceAgreementStorageV1",
            "label": "scoreFunctionId",
            "offset": 30,
            "slot": "1",
            "type": "t_uint8"
          },
          {
            "astId": 23846,
            "contract": "contracts/storage/ServiceAgreementStorageV1.sol:ServiceAgreementStorageV1",
            "label": "proofWindowOffsetPerc",
            "offset": 31,
            "slot": "1",
            "type": "t_uint8"
          },
          {
            "astId": 23850,
            "contract": "contracts/storage/ServiceAgreementStorageV1.sol:ServiceAgreementStorageV1",
            "label": "epochSubmissionHeads",
            "offset": 0,
            "slot": "2",
            "type": "t_mapping(t_uint16,t_bytes32)"
          },
          {
            "astId": 23854,
            "contract": "contracts/storage/ServiceAgreementStorageV1.sol:ServiceAgreementStorageV1",
            "label": "rewardedNodesNumber",
            "offset": 0,
            "slot": "3",
            "type": "t_mapping(t_uint16,t_uint32)"
          }
        ],
        "numberOfBytes": "128"
      },
      "t_uint128": {
        "encoding": "inplace",
        "label": "uint128",
        "numberOfBytes": "16"
      },
      "t_uint16": {
        "encoding": "inplace",
        "label": "uint16",
        "numberOfBytes": "2"
      },
      "t_uint256": {
        "encoding": "inplace",
        "label": "uint256",
        "numberOfBytes": "32"
      },
      "t_uint32": {
        "encoding": "inplace",
        "label": "uint32",
        "numberOfBytes": "4"
      },
      "t_uint40": {
        "encoding": "inplace",
        "label": "uint40",
        "numberOfBytes": "5"
      },
      "t_uint72": {
        "encoding": "inplace",
        "label": "uint72",
        "numberOfBytes": "9"
      },
      "t_uint8": {
        "encoding": "inplace",
        "label": "uint8",
        "numberOfBytes": "1"
      },
      "t_uint96": {
        "encoding": "inplace",
        "label": "uint96",
        "numberOfBytes": "12"
      }
    }
  }
}