{
  "address": "0x2539310a4d02f8C1D440E9B3D3967a6CbBec2aE3",
  "abi": [
    {
      "inputs": [
        {
          "internalType": "address",
          "name": "hubAddress",
          "type": "address"
        }
      ],
      "stateMutability": "nonpayable",
      "type": "constructor"
    },
    {
      "anonymous": false,
      "inputs": [
        {
          "indexed": true,
          "internalType": "uint72",
          "name": "identityId",
          "type": "uint72"
        },
        {
          "indexed": false,
          "internalType": "bytes",
          "name": "nodeId",
          "type": "bytes"
        },
        {
          "indexed": false,
          "internalType": "uint96",
          "name": "ask",
          "type": "uint96"
        },
        {
          "indexed": false,
          "internalType": "uint96",
          "name": "stake",
          "type": "uint96"
        }
      ],
      "name": "NodeAdded",
      "type": "event"
    },
    {
      "anonymous": false,
      "inputs": [
        {
          "indexed": true,
          "internalType": "uint72",
          "name": "identityId",
          "type": "uint72"
        },
        {
          "indexed": false,
          "internalType": "bytes",
          "name": "nodeId",
          "type": "bytes"
        }
      ],
      "name": "NodeRemoved",
      "type": "event"
    },
    {
      "inputs": [],
      "name": "getShardingTable",
      "outputs": [
        {
          "components": [
            {
              "internalType": "bytes",
              "name": "nodeId",
              "type": "bytes"
            },
            {
              "internalType": "uint72",
              "name": "identityId",
              "type": "uint72"
            },
            {
              "internalType": "uint96",
              "name": "ask",
              "type": "uint96"
            },
            {
              "internalType": "uint96",
              "name": "stake",
              "type": "uint96"
            }
          ],
          "internalType": "struct ShardingTableStructs.NodeInfo[]",
          "name": "",
          "type": "tuple[]"
        }
      ],
      "stateMutability": "view",
      "type": "function"
    },
    {
      "inputs": [
        {
          "internalType": "uint72",
          "name": "startingIdentityId",
          "type": "uint72"
        },
        {
          "internalType": "uint72",
          "name": "nodesNumber",
          "type": "uint72"
        }
      ],
      "name": "getShardingTable",
      "outputs": [
        {
          "components": [
            {
              "internalType": "bytes",
              "name": "nodeId",
              "type": "bytes"
            },
            {
              "internalType": "uint72",
              "name": "identityId",
              "type": "uint72"
            },
            {
              "internalType": "uint96",
              "name": "ask",
              "type": "uint96"
            },
            {
              "internalType": "uint96",
              "name": "stake",
              "type": "uint96"
            }
          ],
          "internalType": "struct ShardingTableStructs.NodeInfo[]",
          "name": "",
          "type": "tuple[]"
        }
      ],
      "stateMutability": "view",
      "type": "function"
    },
    {
      "inputs": [],
      "name": "hub",
      "outputs": [
        {
          "internalType": "contract Hub",
          "name": "",
          "type": "address"
        }
      ],
      "stateMutability": "view",
      "type": "function"
    },
    {
      "inputs": [],
      "name": "initialize",
      "outputs": [],
      "stateMutability": "nonpayable",
      "type": "function"
    },
    {
      "inputs": [],
      "name": "name",
      "outputs": [
        {
          "internalType": "string",
          "name": "",
          "type": "string"
        }
      ],
      "stateMutability": "pure",
      "type": "function"
    },
    {
      "inputs": [],
      "name": "profileStorage",
      "outputs": [
        {
          "internalType": "contract ProfileStorage",
          "name": "",
          "type": "address"
        }
      ],
      "stateMutability": "view",
      "type": "function"
    },
    {
      "inputs": [
        {
          "internalType": "uint72",
          "name": "identityId",
          "type": "uint72"
        }
      ],
      "name": "pushBack",
      "outputs": [],
      "stateMutability": "nonpayable",
      "type": "function"
    },
    {
      "inputs": [
        {
          "internalType": "uint72",
          "name": "identityId",
          "type": "uint72"
        }
      ],
      "name": "pushFront",
      "outputs": [],
      "stateMutability": "nonpayable",
      "type": "function"
    },
    {
      "inputs": [
        {
          "internalType": "uint72",
          "name": "identityId",
          "type": "uint72"
        }
      ],
      "name": "removeNode",
      "outputs": [],
      "stateMutability": "nonpayable",
      "type": "function"
    },
    {
      "inputs": [
        {
          "internalType": "bool",
          "name": "_status",
          "type": "bool"
        }
      ],
      "name": "setStatus",
      "outputs": [],
      "stateMutability": "nonpayable",
      "type": "function"
    },
    {
      "inputs": [],
      "name": "shardingTableStorage",
      "outputs": [
        {
          "internalType": "contract ShardingTableStorage",
          "name": "",
          "type": "address"
        }
      ],
      "stateMutability": "view",
      "type": "function"
    },
    {
      "inputs": [],
      "name": "stakingStorage",
      "outputs": [
        {
          "internalType": "contract StakingStorage",
          "name": "",
          "type": "address"
        }
      ],
      "stateMutability": "view",
      "type": "function"
    },
    {
      "inputs": [],
      "name": "status",
      "outputs": [
        {
          "internalType": "bool",
          "name": "",
          "type": "bool"
        }
      ],
      "stateMutability": "view",
      "type": "function"
    },
    {
      "inputs": [],
      "name": "version",
      "outputs": [
        {
          "internalType": "string",
          "name": "",
          "type": "string"
        }
      ],
      "stateMutability": "pure",
      "type": "function"
    }
  ],
  "transactionHash": "0x5d66d03dfdb515aa787b302751b2b0660722d362335390b162c2810c12f01019",
  "args": [
    "0x224aEC6891d26e994D4Dbf207aE099ca029b3E67"
  ],
  "numDeployments": 1,
  "solcInputHash": "6736b5a2b01ed07b57366e384b7e7c88",
  "bytecode": "0x6080346100bf57601f611e4538819003918201601f19168301916001600160401b038311848410176100c4578084926020946040528339810103126100bf57516001600160a01b038116908190036100bf57801561007a57600080546001600160a01b031916919091179055604051611d6a90816100db8239f35b60405162461bcd60e51b815260206004820152601960248201527f48756220416464726573732063616e6e6f7420626520307830000000000000006044820152606490fd5b600080fd5b634e487b7160e01b600052604160045260246000fdfe608060408181526004918236101561001657600080fd5b600092833560e01c91826306fdde03146112f257508163200d2ed2146112cd578163289220c6146111ca578163365a86fc146111a2578163415942b114610dce57816354fd4d5014610d895781635c40f6f414610d485781638129fc1c14610b9e578163823e2bc714610b7557816392b7c87d146106d1578163af9c1ec61461016657508063b518a00e1461013e578063e5de01f1146100ea5763f42cb038146100bf57600080fd5b346100e657816003193601126100e65760015490516001600160a01b039091168152602090f35b5080fd5b50903461013b578160031936011261013b5750610105611425565b90602435916001600160481b03831683036101365761013292610127916116b0565b905191829182611387565b0390f35b600080fd5b80fd5b50346100e657816003193601126100e65760035490516001600160a01b039091168152602090f35b9050346103d757602090816003193601126103e557610183611425565b9161018c611c8f565b600154845163c04d7dcf60e01b81526001600160481b03948516818501819052946001600160a01b03928316948893919260249290868185818b5afa80156104ea576101df9187916106a4575b5061150a565b600254895163162929e960e01b81528381018a90529116936060828581885afa9182156104ea578692610674575b508951638f7dcfa360e01b81529187838581895afa92831561066a57879361062f575b508a51624f632160e61b815290888286818a5afa93841561062557899289956105e9575b508c8185168d1480806105de575b1561042f5750505050505050823b156103e5578751631bcc8f9560e31b81528181018590528481848183885af19081156103fd57859161041b575b5050823b156103e557875163406def5b60e01b81528181018590528481848183885af19081156103fd578591610407575b50505b823b156103e5578751632e9893a160e21b81528181018890528481848183885af19081156103fd5785916103e9575b5050823b156103e557838093828a518096819363d9b6546360e01b83525af180156103db57879385916103be575b5050875195869384926320e085cd60e11b84528301525afa9081156103b4577fef12f3576561c48ba6945e9b712ac4715d1ac62879143672fcd6e3c63a19619c928692610390575b5061038a8551928284938452830190611362565b0390a251f35b6103ad9192503d8088833e6103a5818361149d565b81019061154e565b9038610376565b84513d87823e3d90fd5b6103ca9192945061143b565b6103d7578591833861032e565b8280fd5b88513d86823e3d90fd5b8380fd5b6103f29061143b565b6103e5578338610300565b89513d87823e3d90fd5b6104109061143b565b6103e55783386102ce565b6104249061143b565b6103e557833861029d565b8686168e036104f857505050015116843b156104f45789519063406def5b60e01b8252838201528581858183895af19081156104ea5786916104d6575b5050833b156104d257885163d0f4c7cf60e01b81526001600160481b03909116828201908152600060208201528590829081906040015b038183885af19081156103fd5785916104be575b50506102d1565b6104c79061143b565b6103e55783386104b7565b8480fd5b6104df9061143b565b6104d257843861046c565b8a513d88823e3d90fd5b8580fd5b91955092501561058257015116843b156104f457895190631bcc8f9560e31b8252838201528581858183895af19081156104ea57869161056e575b5050833b156104d25788516335ab940760e11b81526001600160481b03909116828201908152600060208201528590829081906040016104a3565b6105779061143b565b6104d2578438610533565b888101519101518216925016843b156104f457895163283350a560e01b81526001600160481b03918216848201908152919092166020820152859082908190604001038183885af19081156103fd5785916104be5750506102d1565b508d86881614610262565b8381949296503d831161061e575b610601818361149d565b8101031261061a5761061389926114de565b9338610254565b8780fd5b503d6105f7565b8c513d8a823e3d90fd5b9092508781813d8311610663575b610647818361149d565b8101031261065f57610658906114de565b9138610230565b8680fd5b503d61063d565b8b513d89823e3d90fd5b61069691925060603d811161069d575b61068e818361149d565b810190611608565b903861020d565b503d610684565b6106c49150883d8a116106ca575b6106bc818361149d565b8101906114f2565b386101d9565b503d6106b2565b9050346103d757602090816003193601126103e5576106ee611425565b916106f7611c8f565b600154845163c04d7dcf60e01b81526001600160481b03858116858301819052956001600160a01b039460249486169390928a929184818881895afa8015610a3057610749918591610b5e575061150a565b866002541691823b156103e5578a51634e8d2def60e11b81526001600160481b038216818b019081526000602082018190526040820152859082908190606001038183885af1908115610afe578591610b4a575b50508a51638f7dcfa360e01b808252919086818c81885afa8015610b405784918791610b08575b5016610a4e575b50508660025416803b156103e557838a888b838f519586948593631bcc8f9560e31b85528401525af1908115610a30578491610a3a575b50508951624f632160e61b815284818a81865afa908115610a305784916109fb575b5016156109a7575b803b156100e657818091888b518094819363279d74f760e11b83525af1801561099d57610989575b505086516320e085cd60e11b815285810187905288818581865afa9283156109615784918a9461096b575b5082908951928380926339fb67dd60e01b82528b8b8301525afa9384156109615787918a95610940575b5082939495600354169689519788938492639d2b48ad60e01b84528301525afa8015610936577f05eef2d4c7b6f7d090582906c8987ff8d9afdead95f51156c0cda2e82707afc79461038a928992610909575b50508651938493846115d9565b6109289250803d1061092f575b610920818361149d565b8101906115ba565b38806108fc565b503d610916565b86513d89823e3d90fd5b8394955061095a90843d861161092f57610920818361149d565b94936108a9565b88513d8b823e3d90fd5b83919450610982903d808d833e6103a5818361149d565b939061087f565b6109929061143b565b61061a578738610854565b89513d84823e3d90fd5b803b156100e657885163406def5b60e01b81528781018990528281878183865af19081156109f15783916109dd575b505061082c565b6109e69061143b565b6100e65781386109d6565b8a513d85823e3d90fd5b90508481813d8311610a29575b610a12818361149d565b810103126103e557610a23906114de565b38610824565b503d610a08565b8b513d86823e3d90fd5b610a439061143b565b6103d7578238610802565b8b5191825285828b81875afa918215610afe578592610ac7575b50833b156104d2578b5163283350a560e01b81526001600160481b03918216818c01908152919092166020820152849082908190604001038183875af1908115610a30578491156107cb57610abc9061143b565b6103d75782386107cb565b9091508581813d8311610af7575b610adf818361149d565b810103126104d257610af0906114de565b9038610a68565b503d610ad5565b8c513d87823e3d90fd5b809250888092503d8311610b39575b610b21818361149d565b810103126104f457610b3384916114de565b386107c4565b503d610b17565b8d513d88823e3d90fd5b610b539061143b565b6103e557833861079d565b6106c49150863d88116106ca576106bc818361149d565b5050346100e657816003193601126100e65760025490516001600160a01b039091168152602090f35b9050346103d757826003193601126103d757610bb8611bed565b82548251630110ceef60e21b8082526020828501819052600e60248401526d50726f66696c6553746f7261676560901b604484015291936001600160a01b0393841691908386606481865afa958615610d3e578896610d1f575b50846001600160601b0360a01b9616866001541617600155865191808352848284015260146024840152735368617264696e675461626c6553746f7261676560601b60448401528483606481875afa9081156109615785948760649387968d91610d02575b5016896002541617600255895195869485938452830152600e60248301526d5374616b696e6753746f7261676560901b60448301525afa918215610cf8578692610ccb575b50501690600354161760035551f35b610cea9250803d10610cf1575b610ce2818361149d565b8101906114bf565b3880610cbc565b503d610cd8565b85513d88823e3d90fd5b610d199150873d8911610cf157610ce2818361149d565b38610c77565b610d37919650843d8611610cf157610ce2818361149d565b9438610c12565b87513d8a823e3d90fd5b9050346103d75760203660031901126103d757358015158091036103d757610d6e611bed565b825460ff60a01b191660a09190911b60ff60a01b1617825551f35b5050346100e657816003193601126100e657805161013291610daa82611481565b6005825264312e302e3160d81b602083015251918291602083526020830190611362565b9050346103d757602090816003193601126103e557610deb611425565b91610df4611c8f565b600154845163c04d7dcf60e01b81526001600160481b03858116858301819052956001600160a01b039460249486169390929083818781885afa801561119857610e44918c91611181575061150a565b856002541691823b1561117d578951634e8d2def60e11b81526001600160481b03821689820190815260006020820181905260408201528c9082908190606001038183885af180156111735761115c575b508951624f632160e61b8082528c9493929186818c81885afa8015610b405784918791611124575b5016611076575b5050813b156103d757895163406def5b60e01b81528881018a90528381888183875af1908115610a30578491611062575b50508951638f7dcfa360e01b815284818a81865afa908115610a3057849161102d575b501615610ff857803b156100e657818091888b518094819363279d74f760e11b83525af1801561099d5761098957505086516320e085cd60e11b815285810187905288818581865afa9283156109615784918a9461096b575082908951928380926339fb67dd60e01b82528b8b8301525afa9384156109615787918a95610940575082939495600354169689519788938492639d2b48ad60e01b84528301525afa8015610936577f05eef2d4c7b6f7d090582906c8987ff8d9afdead95f51156c0cda2e82707afc79461038a9289926109095750508651938493846115d9565b803b156100e6578851631bcc8f9560e31b81528781018990528281878183865af19081156109f15783916109dd57505061082c565b90508481813d831161105b575b611044818361149d565b810103126103e557611055906114de565b38610f18565b503d61103a565b61106b9061143b565b6103d7578238610ef5565b8b5190815285818b81875afa908115610afe5785916110ef575b50833b156104d2578b5163283350a560e01b81526001600160481b03918216818c01908152919092166020820152849082908190604001038183875af1908115610a3057849115610ec4576110e49061143b565b6103d7578238610ec4565b90508581813d831161111d575b611106818361149d565b810103126104d257611117906114de565b38611090565b503d6110fc565b809250888092503d8311611155575b61113d818361149d565b810103126104f45761114f84916114de565b38610ebd565b503d611133565b61116a909b9193929b61143b565b99909138610e95565b8b513d8e823e3d90fd5b8a80fd5b6106c49150853d87116106ca576106bc818361149d565b8a513d8d823e3d90fd5b5050346100e657816003193601126100e657905490516001600160a01b039091168152602090f35b9050346103d757826003193601126103d7576002548251638f7dcfa360e01b815293602092916001600160a01b031683868481845afa9586156112c357829661128b575b50839085519384809263f1a3c5b360e01b82525afa92831561127f57819361123f575b6101328561012786896116b0565b9091809350813d8311611278575b611257818361149d565b8101031261013b575061013292611270610127926114de565b918194611231565b503d61124d565b508351903d90823e3d90fd5b9095508381813d83116112bc575b6112a3818361149d565b810103126100e6576112b584916114de565b959061120e565b503d611299565b85513d84823e3d90fd5b5050346100e657816003193601126100e65760ff6020925460a01c1690519015158152f35b849084346103d757826003193601126103d757610132925061131382611481565b600d82526c5368617264696e675461626c6560981b602083015251918291602083526020830190611362565b60005b8381106113525750506000910152565b8181015183820152602001611342565b9060209161137b8151809281855285808601910161133f565b601f01601f1916010190565b602080820190808352835180925260409283810182858560051b8401019601946000925b8584106113bc575050505050505090565b909192939495968580600192603f198582030187528a51906113e682516080808452830190611362565b916001600160481b038482015116848301526001600160601b0380898301511689840152606080920151169101529901940194019295949391906113ab565b600435906001600160481b038216820361013657565b67ffffffffffffffff811161144f57604052565b634e487b7160e01b600052604160045260246000fd5b6080810190811067ffffffffffffffff82111761144f57604052565b6040810190811067ffffffffffffffff82111761144f57604052565b90601f8019910116810190811067ffffffffffffffff82111761144f57604052565b9081602091031261013657516001600160a01b03811681036101365790565b51906001600160481b038216820361013657565b90816020910312610136575180151581036101365790565b1561151157565b60405162461bcd60e51b8152602060048201526015602482015274141c9bd99a5b1948191bd95cdb89dd08195e1a5cdd605a1b6044820152606490fd5b60208183031261013657805167ffffffffffffffff9182821161013657019082601f8301121561013657815190811161144f5760405192611599601f8301601f19166020018561149d565b81845260208284010111610136576115b7916020808501910161133f565b90565b9081602091031261013657516001600160601b03811681036101365790565b916115f1604092959495606085526060850190611362565b946001600160601b03809216602085015216910152565b9081606091031261013657604051906060820182811067ffffffffffffffff82111761144f57611659916040918252611640816114de565b845261164e602082016114de565b6020850152016114de565b604082015290565b67ffffffffffffffff811161144f5760051b60200190565b8051156116865760200190565b634e487b7160e01b600052603260045260246000fd5b80518210156116865760209160051b010190565b9060018060a01b036002541660405163f1a3c5b360e01b8152602081600481855afa8015611a0257600090611bad575b6001600160481b03915016158015611b9c575b611b945760405163162929e960e01b81526001600160481b038416600482015290606082602481845afa918215611a0257600092611b73575b506001600160481b038416158015611b60575b15611b1b576117566001600160481b038416611661565b94611764604051968761149d565b6001600160481b038416808752601f199061177e90611661565b0160005b818110611ae85750506001546003546040516320e085cd60e11b81526001600160481b03881660048201526001600160a01b039283169792909116946000826024818b5afa918215611a0257600092611acd575b506001600160481b0381511690604051916339fb67dd60e01b835260048301526020826024818c5afa918215611a0257600092611aa3575b5051604051639d2b48ad60e01b81526001600160481b039091166004820152906020826024818a5afa908115611a02576001600160601b0392600092611a80575b5082906040519461185f86611465565b85526001600160481b038616602086015216604084015216606082015261188588611679565b5261188f87611679565b50906001915b6001600160481b0386166001600160481b0384161080611a6e575b15611a65576001600160481b036040519163162929e960e01b8352166004820152606081602481875afa908115611a02576001600160481b0391604091600091611a46575b50015116916040516320e085cd60e11b81528360048201526000816024818b5afa908115611a0257600091611a2d575b506040516339fb67dd60e01b8152600481018590526020816024818c5afa908115611a0257600091611a0e575b50604051639d2b48ad60e01b815260048101869052926020846024818b5afa928315611a02576001600160601b036001600160481b03959460019487966000926119df575b508290604051946119a786611465565b85528a60208601521660408401521660608201526119c78483168d61169c565b526119d48382168c61169c565b500116929050611895565b839192506119fb9060203d60201161092f57610920818361149d565b9190611997565b6040513d6000823e3d90fd5b611a27915060203d60201161092f57610920818361149d565b38611952565b611a40913d8091833e6103a5818361149d565b38611925565b611a5f915060603d60601161069d5761068e818361149d565b386118f5565b50945050505050565b506001600160481b03811615156118b0565b83919250611a9c9060203d60201161092f57610920818361149d565b919061184f565b6001600160481b03919250611ac69060203d60201161092f57610920818361149d565b919061180e565b611ae191923d8091833e6103a5818361149d565b90386117d6565b602090604051611af781611465565b60608152600083820152600060408201526000606082015282828b01015201611782565b60405162461bcd60e51b815260206004820152601a60248201527f57726f6e67207374617274696e67204964656e746974792049440000000000006044820152606490fd5b506001600160481b03825116151561173f565b611b8d91925060603d60601161069d5761068e818361149d565b903861172c565b505050606090565b506001600160481b038216156116f3565b6020823d602011611be5575b81611bc66020938361149d565b8101031261013b5750611be06001600160481b03916114de565b6116e0565b3d9150611bb9565b600054604051638da5cb5b60e01b81526001600160a01b03916020908290600490829086165afa908115611a0257600091611c71575b50163303611c2d57565b606460405162461bcd60e51b815260206004820152602060248201527f466e2063616e206f6e6c79206265207573656420627920687562206f776e65726044820152fd5b611c89915060203d8111610cf157610ce2818361149d565b38611c23565b600054604051631627905560e01b815233600482015290602090829060249082906001600160a01b03165afa908115611a0257600091611d16575b5015611cd257565b606460405162461bcd60e51b815260206004820152602060248201527f466e2063616e206f6e6c792062652063616c6c656420627920746865206875626044820152fd5b611d2e915060203d81116106ca576106bc818361149d565b38611cca56fea2646970667358221220626a10c003d5964d92e82968e3686794df3414c27d8e59ddb76014144fee698a64736f6c63430008100033",
  "devdoc": {
    "kind": "dev",
    "methods": {},
    "version": 1
  },
  "userdoc": {
    "kind": "user",
    "methods": {},
    "version": 1
  },
  "storageLayout": {
    "storage": [
      {
        "astId": 15408,
        "contract": "contracts/ShardingTable.sol:ShardingTable",
        "label": "hub",
        "offset": 0,
        "slot": "0",
        "type": "t_contract(Hub)9211"
      },
      {
        "astId": 15379,
        "contract": "contracts/ShardingTable.sol:ShardingTable",
        "label": "status",
        "offset": 20,
        "slot": "0",
        "type": "t_bool"
      },
      {
        "astId": 13656,
        "contract": "contracts/ShardingTable.sol:ShardingTable",
        "label": "profileStorage",
        "offset": 0,
        "slot": "1",
        "type": "t_contract(ProfileStorage)19582"
      },
      {
        "astId": 13659,
        "contract": "contracts/ShardingTable.sol:ShardingTable",
        "label": "shardingTableStorage",
        "offset": 0,
        "slot": "2",
        "type": "t_contract(ShardingTableStorage)22972"
      },
      {
        "astId": 13662,
        "contract": "contracts/ShardingTable.sol:ShardingTable",
        "label": "stakingStorage",
        "offset": 0,
        "slot": "3",
        "type": "t_contract(StakingStorage)23184"
      }
    ],
    "types": {
      "t_bool": {
        "encoding": "inplace",
        "label": "bool",
        "numberOfBytes": "1"
      },
      "t_contract(Hub)9211": {
        "encoding": "inplace",
        "label": "contract Hub",
        "numberOfBytes": "20"
      },
      "t_contract(ProfileStorage)19582": {
        "encoding": "inplace",
        "label": "contract ProfileStorage",
        "numberOfBytes": "20"
      },
      "t_contract(ShardingTableStorage)22972": {
        "encoding": "inplace",
        "label": "contract ShardingTableStorage",
        "numberOfBytes": "20"
      },
      "t_contract(StakingStorage)23184": {
        "encoding": "inplace",
        "label": "contract StakingStorage",
        "numberOfBytes": "20"
      }
    }
  }
}