{
  "address": "0x4b08A849E94216e8e45267059B31C6b5C550Bab3",
  "abi": [
    {
      "inputs": [
        {
          "internalType": "address",
          "name": "hubAddress",
          "type": "address"
        }
      ],
      "stateMutability": "nonpayable",
      "type": "constructor"
    },
    {
      "inputs": [
        {
          "internalType": "uint72",
          "name": "identityId",
          "type": "uint72"
        },
        {
          "internalType": "uint72",
          "name": "prevIdentityId",
          "type": "uint72"
        },
        {
          "internalType": "uint72",
          "name": "nextIdentityId",
          "type": "uint72"
        }
      ],
      "name": "createNodeObject",
      "outputs": [],
      "stateMutability": "nonpayable",
      "type": "function"
    },
    {
      "inputs": [],
      "name": "decrementNodesCount",
      "outputs": [],
      "stateMutability": "nonpayable",
      "type": "function"
    },
    {
      "inputs": [
        {
          "internalType": "uint72",
          "name": "identityId",
          "type": "uint72"
        }
      ],
      "name": "deleteNodeObject",
      "outputs": [],
      "stateMutability": "nonpayable",
      "type": "function"
    },
    {
      "inputs": [
        {
          "internalType": "uint72",
          "name": "firstIdentityId",
          "type": "uint72"
        },
        {
          "internalType": "uint16",
          "name": "nodesNumber",
          "type": "uint16"
        }
      ],
      "name": "getMultipleNodes",
      "outputs": [
        {
          "components": [
            {
              "internalType": "uint72",
              "name": "identityId",
              "type": "uint72"
            },
            {
              "internalType": "uint72",
              "name": "prevIdentityId",
              "type": "uint72"
            },
            {
              "internalType": "uint72",
              "name": "nextIdentityId",
              "type": "uint72"
            }
          ],
          "internalType": "struct ShardingTableStructs.Node[]",
          "name": "",
          "type": "tuple[]"
        }
      ],
      "stateMutability": "view",
      "type": "function"
    },
    {
      "inputs": [
        {
          "internalType": "uint72",
          "name": "identityId",
          "type": "uint72"
        }
      ],
      "name": "getNode",
      "outputs": [
        {
          "components": [
            {
              "internalType": "uint72",
              "name": "identityId",
              "type": "uint72"
            },
            {
              "internalType": "uint72",
              "name": "prevIdentityId",
              "type": "uint72"
            },
            {
              "internalType": "uint72",
              "name": "nextIdentityId",
              "type": "uint72"
            }
          ],
          "internalType": "struct ShardingTableStructs.Node",
          "name": "",
          "type": "tuple"
        }
      ],
      "stateMutability": "view",
      "type": "function"
    },
    {
      "inputs": [],
      "name": "head",
      "outputs": [
        {
          "internalType": "uint72",
          "name": "",
          "type": "uint72"
        }
      ],
      "stateMutability": "view",
      "type": "function"
    },
    {
      "inputs": [],
      "name": "hub",
      "outputs": [
        {
          "internalType": "contract Hub",
          "name": "",
          "type": "address"
        }
      ],
      "stateMutability": "view",
      "type": "function"
    },
    {
      "inputs": [],
      "name": "incrementNodesCount",
      "outputs": [],
      "stateMutability": "nonpayable",
      "type": "function"
    },
    {
      "inputs": [
        {
          "internalType": "uint72",
          "name": "leftNodeIdentityId",
          "type": "uint72"
        },
        {
          "internalType": "uint72",
          "name": "rightNodeIdentityId",
          "type": "uint72"
        }
      ],
      "name": "link",
      "outputs": [],
      "stateMutability": "nonpayable",
      "type": "function"
    },
    {
      "inputs": [],
      "name": "name",
      "outputs": [
        {
          "internalType": "string",
          "name": "",
          "type": "string"
        }
      ],
      "stateMutability": "pure",
      "type": "function"
    },
    {
      "inputs": [
        {
          "internalType": "uint72",
          "name": "identityId",
          "type": "uint72"
        }
      ],
      "name": "nodeExists",
      "outputs": [
        {
          "internalType": "bool",
          "name": "",
          "type": "bool"
        }
      ],
      "stateMutability": "view",
      "type": "function"
    },
    {
      "inputs": [],
      "name": "nodesCount",
      "outputs": [
        {
          "internalType": "uint72",
          "name": "",
          "type": "uint72"
        }
      ],
      "stateMutability": "view",
      "type": "function"
    },
    {
      "inputs": [
        {
          "internalType": "uint72",
          "name": "identityId",
          "type": "uint72"
        }
      ],
      "name": "setHead",
      "outputs": [],
      "stateMutability": "nonpayable",
      "type": "function"
    },
    {
      "inputs": [
        {
          "internalType": "uint72",
          "name": "identityId",
          "type": "uint72"
        },
        {
          "internalType": "uint72",
          "name": "newNextIdentityId",
          "type": "uint72"
        }
      ],
      "name": "setNextIdentityId",
      "outputs": [],
      "stateMutability": "nonpayable",
      "type": "function"
    },
    {
      "inputs": [
        {
          "internalType": "uint72",
          "name": "identityId",
          "type": "uint72"
        },
        {
          "internalType": "uint72",
          "name": "newPrevIdentityId",
          "type": "uint72"
        }
      ],
      "name": "setPrevIdentityId",
      "outputs": [],
      "stateMutability": "nonpayable",
      "type": "function"
    },
    {
      "inputs": [
        {
          "internalType": "uint72",
          "name": "identityId",
          "type": "uint72"
        }
      ],
      "name": "setTail",
      "outputs": [],
      "stateMutability": "nonpayable",
      "type": "function"
    },
    {
      "inputs": [],
      "name": "tail",
      "outputs": [
        {
          "internalType": "uint72",
          "name": "",
          "type": "uint72"
        }
      ],
      "stateMutability": "view",
      "type": "function"
    },
    {
      "inputs": [],
      "name": "version",
      "outputs": [
        {
          "internalType": "string",
          "name": "",
          "type": "string"
        }
      ],
      "stateMutability": "pure",
      "type": "function"
    }
  ],
  "transactionHash": "0x8c8a7e7884634ea683a9322b720cdf48c70c39082bda6cb25a5b32870fdc56ba",
  "args": [
    "0x224aEC6891d26e994D4Dbf207aE099ca029b3E67"
  ],
  "numDeployments": 1,
  "solcInputHash": "6736b5a2b01ed07b57366e384b7e7c88",
  "bytecode": "0x6080346100cf57601f610b4d38819003918201601f19168301916001600160401b038311848410176100d4578084926020946040528339810103126100cf57516001600160a01b038116908190036100cf57801561008a57600080546001600160e81b031916919091179055600180546001600160481b0319169055604051610a6290816100eb8239f35b60405162461bcd60e51b815260206004820152601960248201527f48756220416464726573732063616e6e6f7420626520307830000000000000006044820152606490fd5b600080fd5b634e487b7160e01b600052604160045260246000fdfe60806040818152600436101561001457600080fd5b600091823560e01c90816306fdde03146107a15750806313d8c8401461077a578063162929e9146106e9578063283350a514610676578063365a86fc1461064f578063406def5b146106105780634f3ae9ee146105b757806354fd4d50146105775780635d68479c1461053c5780636b57280e146104f757806376d03c2f1461035c5780638f7dcfa3146103345780639d1a5bde14610278578063ba624e841461023e578063d0f4c7cf146101ce578063d9b6546314610162578063de647ca8146101155763f1a3c5b3146100e857600080fd5b346101115781600319360112610111576020906001600160481b0360015460481c169051908152f35b5080fd5b50346101115760203660031901126101115761012f610832565b6101376108f9565b825468ffffffffffffffffff60a01b191660a09190911b68ffffffffffffffffff60a01b1617825551f35b503461011157816003193601126101115761017b6108f9565b6001546001600160481b038160481c1680156101ba57600160481b600160901b03906000190160481b1690600160481b600160901b0319161760015551f35b634e487b7160e01b84526011600452602484fd5b503461011157806003193601126101115761023b6101ea610832565b6001600160481b036101fa61084d565b916102036108f9565b1684526002602052828420805468ffffffffffffffffff60901b191660909290921b68ffffffffffffffffff60901b16919091179055565b51f35b5034610111576020366003190112610111576001600160481b03610260610832565b6102686108f9565b1682526002602052818181205551f35b503461011157606036600319011261011157610292610832565b61029a61084d565b906044356001600160481b0390818116809103610330576103068261023b956102c16108f9565b818851966102ce88610863565b168087528260208801921682528887019485528952600260205281888a209651166001600160481b03198754161786555116846108d3565b51825468ffffffffffffffffff60901b1916911660901b68ffffffffffffffffff60901b16179055565b8580fd5b50346101115781600319360112610111576001600160481b036020925460a01c169051908152f35b5090346104f457816003193601126104f457610376610832565b916024359261ffff84168094036104f057919290610393826109ea565b916103a0825193846108b1565b808352601f196103af826109ea565b01855b8181106104cf5750506001600160481b038094168552600293602094808652838720908451916103e183610863565b549083821683526048928483851c168982015284609093841c168782015289905b8682106104745787518a81528951818c018190528a8c019190818b01908d8f5b82811061042f5784840385f35b909192826060826104656001948a51604090816001600160481b0391828151168552826020820151166020860152015116910152565b01960191019492919094610422565b8781610491848c9e9d9b9c8a9561048b8383610a02565b52610a02565b5001511689528187526001888a20868a51916104ac83610863565b5481811683528181891c168b840152861c168a8201529101909997969899610402565b6020906104df97969495976109cb565b82828a0101520195939294956103b2565b8280fd5b80fd5b503461011157806003193601126101115761023b610513610832565b6001600160481b0361052361084d565b9161052c6108f9565b16845260026020528284206108d3565b503461011157602036600319011261011157602091816001600160481b039182610564610832565b1681526002855220541615159051908152f35b503461011157816003193601126101115780516105b39161059782610895565b60058252640312e302e360dc1b602083015251918291826107e9565b0390f35b50346101115781600319360112610111576105d06108f9565b6001546001600160481b03808260481c169081146101ba576001600160481b600160901b03910160481b1690600160481b600160901b0319161760015551f35b5034610111576020366003190112610111576001600160481b03610632610832565b61063a6108f9565b166001600160481b0319600154161760015551f35b5034610111578160031936011261011157905490516001600160a01b039091168152602090f35b503461011157806003193601126101115761023b610692610832565b61069a61084d565b6106a26108f9565b6001600160481b0382811686526002602052848620805468ffffffffffffffffff60901b1916609084901b68ffffffffffffffffff60901b161790551684528284206108d3565b503461011157602036600319011261011157906107788260609361070b610832565b936107146109cb565b506001600160481b0380951681526002602052209281519361073585610863565b548181168552818160481c16602086015260901c1681840152518092604090816001600160481b0391828151168552826020820151166020860152015116910152565bf35b50346101115781600319360112610111576020906001600160481b03600154169051908152f35b919050346104f057826003193601126104f0576105b392506107c282610895565b60148252735368617264696e675461626c6553746f7261676560601b602083015251918291825b6020808252825181830181905290939260005b82811061081e57505060409293506000838284010152601f8019910116010190565b8181018601518482016040015285016107fc565b600435906001600160481b038216820361084857565b600080fd5b602435906001600160481b038216820361084857565b6060810190811067ffffffffffffffff82111761087f57604052565b634e487b7160e01b600052604160045260246000fd5b6040810190811067ffffffffffffffff82111761087f57604052565b90601f8019910116810190811067ffffffffffffffff82111761087f57604052565b90600160481b600160901b0382549160481b1690600160481b600160901b031916179055565b60008054604051631627905560e01b815233600482015260209290918390839060249082906001600160a01b03165afa9182156109be578192610984575b5050156109415750565b6064906040519062461bcd60e51b825280600483015260248201527f466e2063616e206f6e6c792062652063616c6c656420627920746865206875626044820152fd5b9091508281813d83116109b7575b61099c81836108b1565b8101031261011157519081151582036104f457503880610937565b503d610992565b50604051903d90823e3d90fd5b604051906109d882610863565b60006040838281528260208201520152565b67ffffffffffffffff811161087f5760051b60200190565b8051821015610a165760209160051b010190565b634e487b7160e01b600052603260045260246000fdfea2646970667358221220fa6c9b76bd4a165f3e38afc03aa94789e4778b843409d20dea35f26ded3bdffc64736f6c63430008100033",
  "devdoc": {
    "kind": "dev",
    "methods": {},
    "version": 1
  },
  "userdoc": {
    "kind": "user",
    "methods": {},
    "version": 1
  },
  "storageLayout": {
    "storage": [
      {
        "astId": 15408,
        "contract": "contracts/storage/ShardingTableStorage.sol:ShardingTableStorage",
        "label": "hub",
        "offset": 0,
        "slot": "0",
        "type": "t_contract(Hub)9211"
      },
      {
        "astId": 22702,
        "contract": "contracts/storage/ShardingTableStorage.sol:ShardingTableStorage",
        "label": "head",
        "offset": 20,
        "slot": "0",
        "type": "t_uint72"
      },
      {
        "astId": 22704,
        "contract": "contracts/storage/ShardingTableStorage.sol:ShardingTableStorage",
        "label": "tail",
        "offset": 0,
        "slot": "1",
        "type": "t_uint72"
      },
      {
        "astId": 22706,
        "contract": "contracts/storage/ShardingTableStorage.sol:ShardingTableStorage",
        "label": "nodesCount",
        "offset": 9,
        "slot": "1",
        "type": "t_uint72"
      },
      {
        "astId": 22711,
        "contract": "contracts/storage/ShardingTableStorage.sol:ShardingTableStorage",
        "label": "nodes",
        "offset": 0,
        "slot": "2",
        "type": "t_mapping(t_uint72,t_struct(Node)23924_storage)"
      }
    ],
    "types": {
      "t_contract(Hub)9211": {
        "encoding": "inplace",
        "label": "contract Hub",
        "numberOfBytes": "20"
      },
      "t_mapping(t_uint72,t_struct(Node)23924_storage)": {
        "encoding": "mapping",
        "key": "t_uint72",
        "label": "mapping(uint72 => struct ShardingTableStructs.Node)",
        "numberOfBytes": "32",
        "value": "t_struct(Node)23924_storage"
      },
      "t_struct(Node)23924_storage": {
        "encoding": "inplace",
        "label": "struct ShardingTableStructs.Node",
        "members": [
          {
            "astId": 23919,
            "contract": "contracts/storage/ShardingTableStorage.sol:ShardingTableStorage",
            "label": "identityId",
            "offset": 0,
            "slot": "0",
            "type": "t_uint72"
          },
          {
            "astId": 23921,
            "contract": "contracts/storage/ShardingTableStorage.sol:ShardingTableStorage",
            "label": "prevIdentityId",
            "offset": 9,
            "slot": "0",
            "type": "t_uint72"
          },
          {
            "astId": 23923,
            "contract": "contracts/storage/ShardingTableStorage.sol:ShardingTableStorage",
            "label": "nextIdentityId",
            "offset": 18,
            "slot": "0",
            "type": "t_uint72"
          }
        ],
        "numberOfBytes": "32"
      },
      "t_uint72": {
        "encoding": "inplace",
        "label": "uint72",
        "numberOfBytes": "9"
      }
    }
  }
}