{
  "address": "0xFc1e2D470F0bA2F0b5b9cc79eB6F2E3Fb4A91D17",
  "abi": [
    {
      "inputs": [
        {
          "internalType": "address",
          "name": "hubAddress",
          "type": "address"
        }
      ],
      "stateMutability": "nonpayable",
      "type": "constructor"
    },
    {
      "anonymous": false,
      "inputs": [
        {
          "indexed": true,
          "internalType": "uint72",
          "name": "identityId",
          "type": "uint72"
        },
        {
          "indexed": false,
          "internalType": "bytes",
          "name": "nodeId",
          "type": "bytes"
        },
        {
          "indexed": false,
          "internalType": "uint96",
          "name": "oldAccumulatedOperatorFee",
          "type": "uint96"
        },
        {
          "indexed": false,
          "internalType": "uint96",
          "name": "newAccumulatedOperatorFee",
          "type": "uint96"
        }
      ],
      "name": "AccumulatedOperatorFeeIncreased",
      "type": "event"
    },
    {
      "anonymous": false,
      "inputs": [
        {
          "indexed": true,
          "internalType": "uint72",
          "name": "identityId",
          "type": "uint72"
        },
        {
          "indexed": false,
          "internalType": "bytes",
          "name": "nodeId",
          "type": "bytes"
        },
        {
          "indexed": false,
          "internalType": "uint8",
          "name": "operatorFee",
          "type": "uint8"
        }
      ],
      "name": "OperatorFeeUpdated",
      "type": "event"
    },
    {
      "anonymous": false,
      "inputs": [
        {
          "indexed": true,
          "internalType": "uint72",
          "name": "identityId",
          "type": "uint72"
        },
        {
          "indexed": false,
          "internalType": "bytes",
          "name": "nodeId",
          "type": "bytes"
        },
        {
          "indexed": true,
          "internalType": "address",
          "name": "staker",
          "type": "address"
        },
        {
          "indexed": false,
          "internalType": "uint96",
          "name": "oldStake",
          "type": "uint96"
        },
        {
          "indexed": false,
          "internalType": "uint96",
          "name": "newStake",
          "type": "uint96"
        }
      ],
      "name": "StakeIncreased",
      "type": "event"
    },
    {
      "anonymous": false,
      "inputs": [
        {
          "indexed": true,
          "internalType": "uint72",
          "name": "identityId",
          "type": "uint72"
        },
        {
          "indexed": false,
          "internalType": "bytes",
          "name": "nodeId",
          "type": "bytes"
        },
        {
          "indexed": true,
          "internalType": "address",
          "name": "staker",
          "type": "address"
        },
        {
          "indexed": false,
          "internalType": "uint96",
          "name": "oldStake",
          "type": "uint96"
        },
        {
          "indexed": false,
          "internalType": "uint96",
          "name": "newStake",
          "type": "uint96"
        },
        {
          "indexed": false,
          "internalType": "uint256",
          "name": "withdrawalPeriodEnd",
          "type": "uint256"
        }
      ],
      "name": "StakeWithdrawalStarted",
      "type": "event"
    },
    {
      "anonymous": false,
      "inputs": [
        {
          "indexed": true,
          "internalType": "uint72",
          "name": "identityId",
          "type": "uint72"
        },
        {
          "indexed": false,
          "internalType": "bytes",
          "name": "nodeId",
          "type": "bytes"
        },
        {
          "indexed": true,
          "internalType": "address",
          "name": "staker",
          "type": "address"
        },
        {
          "indexed": false,
          "internalType": "uint96",
          "name": "withdrawnStakeAmount",
          "type": "uint96"
        }
      ],
      "name": "StakeWithdrawn",
      "type": "event"
    },
    {
      "inputs": [
        {
          "internalType": "bytes32",
          "name": "agreementId",
          "type": "bytes32"
        },
        {
          "internalType": "uint72",
          "name": "identityId",
          "type": "uint72"
        },
        {
          "internalType": "uint96",
          "name": "rewardAmount",
          "type": "uint96"
        }
      ],
      "name": "addReward",
      "outputs": [],
      "stateMutability": "nonpayable",
      "type": "function"
    },
    {
      "inputs": [
        {
          "internalType": "address",
          "name": "sender",
          "type": "address"
        },
        {
          "internalType": "uint72",
          "name": "identityId",
          "type": "uint72"
        },
        {
          "internalType": "uint96",
          "name": "stakeAmount",
          "type": "uint96"
        }
      ],
      "name": "addStake",
      "outputs": [],
      "stateMutability": "nonpayable",
      "type": "function"
    },
    {
      "inputs": [
        {
          "internalType": "uint72",
          "name": "identityId",
          "type": "uint72"
        },
        {
          "internalType": "uint96",
          "name": "stakeAmount",
          "type": "uint96"
        }
      ],
      "name": "addStake",
      "outputs": [],
      "stateMutability": "nonpayable",
      "type": "function"
    },
    {
      "inputs": [],
      "name": "hub",
      "outputs": [
        {
          "internalType": "contract Hub",
          "name": "",
          "type": "address"
        }
      ],
      "stateMutability": "view",
      "type": "function"
    },
    {
      "inputs": [],
      "name": "identityStorage",
      "outputs": [
        {
          "internalType": "contract IdentityStorage",
          "name": "",
          "type": "address"
        }
      ],
      "stateMutability": "view",
      "type": "function"
    },
    {
      "inputs": [],
      "name": "initialize",
      "outputs": [],
      "stateMutability": "nonpayable",
      "type": "function"
    },
    {
      "inputs": [],
      "name": "name",
      "outputs": [
        {
          "internalType": "string",
          "name": "",
          "type": "string"
        }
      ],
      "stateMutability": "pure",
      "type": "function"
    },
    {
      "inputs": [],
      "name": "parametersStorage",
      "outputs": [
        {
          "internalType": "contract ParametersStorage",
          "name": "",
          "type": "address"
        }
      ],
      "stateMutability": "view",
      "type": "function"
    },
    {
      "inputs": [],
      "name": "profileStorage",
      "outputs": [
        {
          "internalType": "contract ProfileStorage",
          "name": "",
          "type": "address"
        }
      ],
      "stateMutability": "view",
      "type": "function"
    },
    {
      "inputs": [],
      "name": "serviceAgreementStorageProxy",
      "outputs": [
        {
          "internalType": "contract ServiceAgreementStorageProxy",
          "name": "",
          "type": "address"
        }
      ],
      "stateMutability": "view",
      "type": "function"
    },
    {
      "inputs": [
        {
          "internalType": "uint72",
          "name": "identityId",
          "type": "uint72"
        },
        {
          "internalType": "uint8",
          "name": "operatorFee",
          "type": "uint8"
        }
      ],
      "name": "setOperatorFee",
      "outputs": [],
      "stateMutability": "nonpayable",
      "type": "function"
    },
    {
      "inputs": [
        {
          "internalType": "bool",
          "name": "_status",
          "type": "bool"
        }
      ],
      "name": "setStatus",
      "outputs": [],
      "stateMutability": "nonpayable",
      "type": "function"
    },
    {
      "inputs": [],
      "name": "shardingTableContract",
      "outputs": [
        {
          "internalType": "contract ShardingTable",
          "name": "",
          "type": "address"
        }
      ],
      "stateMutability": "view",
      "type": "function"
    },
    {
      "inputs": [],
      "name": "shardingTableStorage",
      "outputs": [
        {
          "internalType": "contract ShardingTableStorage",
          "name": "",
          "type": "address"
        }
      ],
      "stateMutability": "view",
      "type": "function"
    },
    {
      "inputs": [
        {
          "internalType": "uint72",
          "name": "identityId",
          "type": "uint72"
        }
      ],
      "name": "slash",
      "outputs": [],
      "stateMutability": "nonpayable",
      "type": "function"
    },
    {
      "inputs": [],
      "name": "stakingStorage",
      "outputs": [
        {
          "internalType": "contract StakingStorage",
          "name": "",
          "type": "address"
        }
      ],
      "stateMutability": "view",
      "type": "function"
    },
    {
      "inputs": [
        {
          "internalType": "uint72",
          "name": "identityId",
          "type": "uint72"
        },
        {
          "internalType": "uint96",
          "name": "sharesToBurn",
          "type": "uint96"
        }
      ],
      "name": "startStakeWithdrawal",
      "outputs": [],
      "stateMutability": "nonpayable",
      "type": "function"
    },
    {
      "inputs": [],
      "name": "status",
      "outputs": [
        {
          "internalType": "bool",
          "name": "",
          "type": "bool"
        }
      ],
      "stateMutability": "view",
      "type": "function"
    },
    {
      "inputs": [],
      "name": "tokenContract",
      "outputs": [
        {
          "internalType": "contract IERC20",
          "name": "",
          "type": "address"
        }
      ],
      "stateMutability": "view",
      "type": "function"
    },
    {
      "inputs": [],
      "name": "version",
      "outputs": [
        {
          "internalType": "string",
          "name": "",
          "type": "string"
        }
      ],
      "stateMutability": "pure",
      "type": "function"
    },
    {
      "inputs": [
        {
          "internalType": "uint72",
          "name": "identityId",
          "type": "uint72"
        }
      ],
      "name": "withdrawStake",
      "outputs": [],
      "stateMutability": "nonpayable",
      "type": "function"
    }
  ],
  "transactionHash": "0x665f5619b2324c764f1410309178feb4c4f268ea25f9c30db623b5b70d2ba0ac",
  "args": [
    "0x224aEC6891d26e994D4Dbf207aE099ca029b3E67"
  ],
  "numDeployments": 1,
  "solcInputHash": "6736b5a2b01ed07b57366e384b7e7c88",
  "bytecode": "0x6080346100c157601f6200290d38819003918201601f19168301916001600160401b038311848410176100c6578084926020946040528339810103126100c157516001600160a01b038116908190036100c157801561007c57600080546001600160a01b0319169190911790556040516128309081620000dd8239f35b60405162461bcd60e51b815260206004820152601960248201527f48756220416464726573732063616e6e6f7420626520307830000000000000006044820152606490fd5b600080fd5b634e487b7160e01b600052604160045260246000fdfe608080604052600436101561001357600080fd5b600090813560e01c90816306fdde0314611b9757508063200d2ed214611b72578063268d6de414611b2b5780632c86da5a14611390578063365a86fc1461136957806354fd4d501461131f57806355a373d6146112f65780635c40f6f4146112b2578063639a86a31461128957806364efcbee14610abf5780636b838a5a14610a965780638129fc1c146106ee578063823e2bc7146106c557806390b8145a1461069c57806397c596071461051a578063b16b109c146101e2578063b518a00e146101b9578063c47408e314610184578063d7ec3d7d1461015c578063f11abfd8146101335763f42cb0381461010857600080fd5b346101305780600319360112610130576004546040516001600160a01b039091168152602090f35b80fd5b50346101305780600319360112610130576002546040516001600160a01b039091168152602090f35b503461013057602036600319011261013057610176611c41565b5061017f612735565b604051f35b50346101305760403660031901126101305761017f6101a1611c41565b6101a9611c6d565b906101b3816125c0565b33611e92565b50346101305780600319360112610130576005546040516001600160a01b039091168152602090f35b5034610130576020806003193601126103e7576101fd611c41565b6004805460405163c04d7dcf60e01b81526001600160481b03841692810183905291926001600160a01b03918216929091908581602481875afa80156104e25761024e9188916104ed575b50611d22565b60055460408051630a67642560e21b81526001600160481b03851660048201523360248201529392909116919083604481855afa9283156104e25787908894610496575b506001600160601b03169283156104535742111561040e57908691813b1561040a5760405163a88021cb60e01b81526001600160481b03919091166004820152336024820152828160448183865af19081156103ff5783916103eb575b5050803b156103e757818091604460405180948193636f6d60d760e11b83523360048401528860248401525af180156103dc576103c8575b50602492604051938480926320e085cd60e11b82528760048301525afa9081156103bd577fd3bcdb34c5e5ee009db75963106b1f70754ba993806cb1eb6bc7225de01ba092928692610399575b5061038a60405192604084526040840190611c01565b948201528033940390a3604051f35b6103b69192503d8088833e6103ae8183611cc9565b810190611df7565b9038610374565b6040513d87823e3d90fd5b6103d28291611c83565b6101305738610327565b6040513d84823e3d90fd5b5080fd5b6103f490611c83565b6103e75781386102ef565b6040513d85823e3d90fd5b8280fd5b60405162461bcd60e51b815260048101879052601e60248201527f5769746864726177616c20706572696f64206861736e277420656e64656400006044820152606490fd5b6064876040519062461bcd60e51b825280600483015260248201527f5769746864726177616c206861736e2774206265656e20696e697469617465646044820152fd5b9350506040833d6040116104da575b816104b260409383611cc9565b810103126104d6576001600160601b03866104cc85611d66565b9401519390610292565b8680fd5b3d91506104a5565b6040513d89823e3d90fd5b61050d9150873d8911610513575b6105058183611cc9565b810190611d0a565b38610248565b503d6104fb565b503461013057604036600319011261013057610534611c41565b60243560ff811680910361040a5761054b826125c0565b60648111610657576005546001600160a01b03908116928490843b156103e757816001600160481b03604482936040519485938492635b19b2e560e11b845216998a60048401528960248401525af180156103dc57610643575b5060249160045416604051928380926320e085cd60e11b82528760048301525afa8015610638577fe6a2394a4d6dad5274e51217afd3926e9caa2dd69a6fea3e91486e44af0060e89261060e92869261061c575b50604051928392604084526040840190611c01565b9060208301520390a2604051f35b6106319192503d8088833e6103ae8183611cc9565b90386105f9565b6040513d86823e3d90fd5b61064d8291611c83565b61013057386105a5565b60405162461bcd60e51b815260206004820152601c60248201527f4f70657261746f7220666565206f7574206f66205b302c203130305d000000006044820152606490fd5b50346101305780600319360112610130576006546040516001600160a01b039091168152602090f35b50346101305780600319360112610130576007546040516001600160a01b039091168152602090f35b5034610130578060031936011261013057610707612693565b60018060a01b0380825416906040519183630110ceef60e21b808552602092836004870152602490600d828801526044926c5368617264696e675461626c6560981b8489015260649186898481845afa988915610a8b578699610a6c575b50876001600160601b0360a01b9916896001541617600155604051828152876004820152600f858201526e4964656e7469747953746f7261676560881b8682015287818581855afa80156104e25789918891610a4f575b501689600254161760025560405182815287600482015260118582015270506172616d657465727353746f7261676560781b8682015287818581855afa80156104e25789918891610a32575b5016896003541617600355604051828152876004820152600e858201526d50726f66696c6553746f7261676560901b8682015287818581855afa80156104e25789918891610a15575b5016896004541617600455604051828152876004820152600e858201526d5374616b696e6753746f7261676560901b8682015287818581855afa80156104e257899188916109f8575b5016896005541617600555604051828152876004820152601c858201527f5365727669636541677265656d656e7453746f7261676550726f7879000000008682015287818581855afa80156104e257899188916109db575b5016896006541617600655604051828152876004820152601485820152735368617264696e675461626c6553746f7261676560601b8682015287818581855afa9586156104e257898997642a37b5b2b760d91b9360059a916109be575b50168b6007541617600755604051978896879586528860048701528501528301525afa9182156103bd578592610991575b505016906008541617600855604051f35b6109b09250803d106109b7575b6109a88183611cc9565b810190611ceb565b3880610980565b503d61099e565b6109d59150893d8b116109b7576109a88183611cc9565b3861094f565b6109f29150893d8b116109b7576109a88183611cc9565b386108f2565b610a0f9150893d8b116109b7576109a88183611cc9565b3861089a565b610a2c9150893d8b116109b7576109a88183611cc9565b38610851565b610a499150893d8b116109b7576109a88183611cc9565b38610808565b610a669150893d8b116109b7576109a88183611cc9565b386107bc565b610a84919950873d89116109b7576109a88183611cc9565b9738610765565b6040513d88823e3d90fd5b50346101305780600319360112610130576001546040516001600160a01b039091168152602090f35b503461013057606036600319011261013057610ad9611c26565b610ae1611c57565b610ae9612735565b600654600554604051631987767160e11b81526001600160481b038516600482015292916001600160a01b039182169116602084602481855afa938415610a8b57869461124d575b506001600160601b03808416941692846001600160601b030484118515151661123957610b6e879160646001600160601b03878902160490611dc3565b9160018060a01b036004541695604051636095a63b60e11b81526001600160481b03891660048201526020816024818b5afa9081156106385784916111ff575b50604051639d2b48ad60e01b81526001600160481b038a16600482015295602087602481845afa9687156103bd5785976111c3575b506001600160601b036064818a86021604166110d6575b6001600160601b038616610e8f575b50604051906320e085cd60e11b978883526001600160481b038b16600484015285836024818d5afa938415610a8b578b938795610e2d575b506001600160481b0392610c8860646001600160601b037fedbeffc26c9d9d29776b0663b9127191ea4e6afeaa3d32ade40adc74e3263d0f9795610c979502160482611ddc565b90604051948594169684611e63565b0390a26040516339075c2560e11b81526004803590820152602081602481855afa9182156103ff576004926020928591610e10575b5015610dc8576040516324bdf84360e01b815292839182905afa9081156103dc578291610da9575b50935b60246040518097819382526001600160481b038a1660048301525afa938415610a8b578694610d68575b5091610d6082610d486000805160206127db833981519152956001600160481b0395611ddc565b9060405194859460018060a01b031698169684611e63565b0390a3604051f35b6000805160206127db833981519152939194506001600160481b0392610d48610d9d610d60933d808c833e6103ae8183611cc9565b96939550509250610d21565b610dc2915060203d6020116109b7576109a88183611cc9565b38610cf4565b6040516319109b2960e01b815292839182905afa9081156103dc578291610df1575b5093610cf7565b610e0a915060203d6020116109b7576109a88183611cc9565b38610dea565b610e279150833d8511610513576105058183611cc9565b38610ccc565b610c9791955092610c8860646001600160601b037fedbeffc26c9d9d29776b0663b9127191ea4e6afeaa3d32ade40adc74e3263d0f9795610e806001600160481b03988d3d8091833e6103ae8183611cc9565b99955095975050505092610c41565b610e998688611ddc565b813b156110d257604051635611f9a360e01b81526001600160481b038c1660048201526001600160601b03919091166024820152858160448183865af1908115610a8b5786916110be575b5050833b15610ff75760405162c7060f60e11b815260048035908201526001600160a01b039190911660248201526001600160601b0386166044820152848160648183885af19081156103bd5785916110aa575b505060075460405163175a11e760e21b81526001600160481b038b16600482015290602090829060249082906001600160a01b03165afa9081156103bd57859161108b575b501580610ffb575b610f90575b38610c09565b6001546001600160a01b0316803b15610ff757846001600160481b0360248c83604051958694859363415942b160e01b85521660048401525af19081156103bd578591610fdf575b5050610f8a565b610fe890611c83565b610ff3578338610fd8565b8380fd5b8480fd5b5060035460405163762ffd6160e11b815290602090829060049082906001600160a01b03165afa80156103bd57859061104b575b6001600160601b039150166001600160601b0387161015610f85565b506020813d602011611083575b8161106560209383611cc9565b81010312610ff75761107e6001600160601b0391611d66565b61102f565b3d9150611058565b6110a4915060203d602011610513576105058183611cc9565b38610f7d565b6110b390611c83565b610ff3578338610f38565b6110c790611c83565b610ff7578438610ee4565b8580fd5b6110ee60646001600160601b038a8602160483611ddc565b893b156110d2576040516368751ff760e11b81526001600160481b038c1660048201526001600160601b039190911660248201528581604481838e5af1908115610a8b5786916111af575b5050833b15610ff75760405162c7060f60e11b815260048035908201526001600160a01b038a16602482015260646001600160601b038a86028116829004166044830152869082908183895af1908115610a8b57869161119b575b5050610bfa565b6111a490611c83565b610ff7578438611194565b6111b890611c83565b610ff7578438611139565b9096506020813d6020116111f7575b816111df60209383611cc9565b81010312610ff7576111f090611d66565b9538610be3565b3d91506111d2565b90506020813d602011611231575b8161121a60209383611cc9565b81010312610ff35761122b90611d66565b38610bae565b3d915061120d565b634e487b7160e01b87526011600452602487fd5b9093506020813d602011611281575b8161126960209383611cc9565b810103126110d25761127a90611d66565b9238610b31565b3d915061125c565b50346101305780600319360112610130576003546040516001600160a01b039091168152602090f35b5034610130576020366003190112610130576004358015158091036103e7576112d9612693565b815460ff60a01b191660a09190911b60ff60a01b16178155604051f35b50346101305780600319360112610130576008546040516001600160a01b039091168152602090f35b503461013057806003193601126101305761136560405161133f81611cad565b6005815264189718171960d91b6020820152604051918291602083526020830190611c01565b0390f35b5034610130578060031936011261013057546040516001600160a01b039091168152602090f35b5034610130576040366003190112610130576113aa611c41565b6001600160601b036113ba611c6d565b168015611ae6576004805460055460405163c04d7dcf60e01b81526001600160481b038616938101939093526001600160a01b0390811693911691602081602481865afa8015610a8b57611414918791611acd5750611d22565b604051632e15869560e21b81526001600160481b038516600482015290602082602481865afa918215610a8b578692611aac575b506040516370a0823160e01b81523360048201526020816024816001600160a01b0387165afa9081156104e2578791611a7a575b508111611a3557604051639d2b48ad60e01b81526001600160481b038616600482015293602085602481845afa9485156104e25787956119f9575b506114cb826001600160601b038716611d7a565b6040516318160ddd60e01b81526020816004816001600160a01b0389165afa9081156119ee5789916119b1575b5061150b906001600160601b0392611da3565b16926115178487611dc3565b604051632347e51760e01b81526001600160481b03891660048201523360248201529094602082604481875afa80156119a6578a90611967575b61155b9250611ddc565b60035460405163151db1b960e01b8152946001600160a01b03909116939091602086600481885afa958615611904578b96611927575b5062ffffff86164201421161191357813b1561190f576001600160601b036040519163dc99106f60e01b83526001600160481b038c16600484015233602484015216604482015262ffffff8616420160648201528a8160848183865af18015611904576118eb575b5090818a9493923b15610ff757604051635611f9a360e01b81526001600160481b038b1660048201526001600160601b03881660248201529085908290604490829084905af19081156103bd5785916118d7575b50506001600160a01b0382163b15610ff35760405163079cc67960e41b815233600482015260248101919091529083908290604490829084906001600160a01b03165af19081156103ff5783916118c3575b505060075460405163175a11e760e21b81526001600160481b03891660048201529190602090839060249082906001600160a01b03165afa9182156103ff5783926118a2575b508161181e575b506117bf575b6040516320e085cd60e11b81526001600160481b038716600482015293849060249082905afa908115610a8b577fd0899a6c0c45a599b53cc9708405ffdf2ff388dc058f4bf8ce408e7259a44174938792611797575b506001600160601b0362ffffff92938161176d60405196608088526080880190611c01565b971660208601521660408401521642016060820152806001600160481b03339516930390a3604051f35b62ffffff92506117b86001600160601b03913d808b833e6103ae8183611cc9565b9250611748565b6001546001600160a01b0316803b156103e7578180916024604051809481936357ce0f6360e11b83526001600160481b038d1660048401525af180156103dc5761180a575b506116f2565b6118148291611c83565b6101305738611804565b60405163762ffd6160e11b81529150602090829060049082905afa80156103dc578290611862575b6001600160601b039150166001600160601b03841610386116ec565b506020813d60201161189a575b8161187c60209383611cc9565b810103126103e7576118956001600160601b0391611d66565b611846565b3d915061186f565b6118bc91925060203d602011610513576105058183611cc9565b90386116e5565b6118cc90611c83565b6103e757813861169f565b6118e090611c83565b610ff357833861164d565b6118fa909a919493929a611c83565b98909192386115f9565b6040513d8d823e3d90fd5b8a80fd5b634e487b7160e01b8b52601160045260248bfd5b9095506020813d60201161195f575b8161194360209383611cc9565b8101031261190f575162ffffff8116810361190f579438611591565b3d9150611936565b506020823d60201161199e575b8161198160209383611cc9565b8101031261199a5761199561155b92611d66565b611551565b8980fd5b3d9150611974565b6040513d8c823e3d90fd5b90506020813d6020116119e6575b816119cc60209383611cc9565b810103126119e257516001600160601b036114f8565b8880fd5b3d91506119bf565b6040513d8b823e3d90fd5b9094506020813d602011611a2d575b81611a1560209383611cc9565b810103126104d657611a2690611d66565b93386114b7565b3d9150611a08565b60405162461bcd60e51b815260206004820152601f60248201527f736861726573546f4275726e206d757374206265203c3d2062616c616e6365006044820152606490fd5b90506020813d602011611aa4575b81611a9560209383611cc9565b810103126104d657513861147c565b3d9150611a88565b611ac691925060203d6020116109b7576109a88183611cc9565b9038611448565b61050d915060203d602011610513576105058183611cc9565b60405162461bcd60e51b815260206004820152601d60248201527f5769746864726177616c20616d6f756e742063616e6e6f7420626520300000006044820152606490fd5b5034610130576060366003190112610130576004356001600160a01b03811681036103e75761017f90611b5c611c26565b611b64611c57565b91611b6d612735565b611e92565b503461013057806003193601126101305760ff6020915460a01c166040519015158152f35b9050346103e757816003193601126103e75780611bb661136592611cad565b60078152665374616b696e6760c81b6020820152604051918291602083526020830190611c01565b60005b838110611bf15750506000910152565b8181015183820152602001611be1565b90602091611c1a81518092818552858086019101611bde565b601f01601f1916010190565b602435906001600160481b0382168203611c3c57565b600080fd5b600435906001600160481b0382168203611c3c57565b604435906001600160601b0382168203611c3c57565b602435906001600160601b0382168203611c3c57565b67ffffffffffffffff8111611c9757604052565b634e487b7160e01b600052604160045260246000fd5b6040810190811067ffffffffffffffff821117611c9757604052565b90601f8019910116810190811067ffffffffffffffff821117611c9757604052565b90816020910312611c3c57516001600160a01b0381168103611c3c5790565b90816020910312611c3c57518015158103611c3c5790565b15611d2957565b60405162461bcd60e51b8152602060048201526015602482015274141c9bd99a5b1948191bd95cdb89dd08195e1a5cdd605a1b6044820152606490fd5b51906001600160601b0382168203611c3c57565b8060001904821181151516611d8d570290565b634e487b7160e01b600052601160045260246000fd5b8115611dad570490565b634e487b7160e01b600052601260045260246000fd5b6001600160601b039182169082160391908211611d8d57565b9190916001600160601b0380809416911601918211611d8d57565b602081830312611c3c57805167ffffffffffffffff91828211611c3c57019082601f83011215611c3c578151908111611c975760405192611e42601f8301601f191660200185611cc9565b81845260208284010111611c3c57611e609160208085019101611bde565b90565b91611e7b604092959495606085526060850190611c01565b946001600160601b03809216602085015216910152565b60055460048054600354600854604051639d2b48ad60e01b81526001600160481b0388169481019490945295966000966001600160a01b03908116959381169392811692906020908690602490829085165afa9485156125b5578895612575575b50611efe8286611ddc565b9560405163c04d7dcf60e01b81526001600160481b038b166004820152602081602481895afa9081156119a65790611f3c918b91611acd5750611d22565b604051636eb1769f60e11b81526001600160a01b0389166004820152306024820152602081604481855afa9081156119a6578a91612543575b506001600160601b038416116124fe5760405163b5c6b45360e01b8152602081600481885afa80156119a6578a906124be575b6001600160601b039150166001600160601b0388161161247957604051632e15869560e21b81526001600160481b038b166004820152602081602481895afa9081156119a6578a9161245a575b506040516318160ddd60e01b81526020816004816001600160a01b0386165afa908115611904578b91612428575b5061239b576001600160601b0384165b6001600160a01b0382163b1561190f576040516340c10f1960e01b81526001600160a01b03808c1660048301526024820192909252918b91839160449183918591165af180156119a657612388575b506001600160a01b0382163b156119e257604051635611f9a360e01b81526001600160481b038b1660048201526001600160601b03881660248201528981604481836001600160a01b0388165af180156119a657918a918a93612370575b506040516323b872dd60e01b81526001600160a01b0393841660048201529290931660248301526001600160601b039390931660448201529160209183916064918391905af180156104e257612351575b5060075460405163175a11e760e21b81526001600160481b038916600482015290602090829060249082906001600160a01b03165afa9081156104e257908792918391612332575b501590816122a5575b50612242575b6040516320e085cd60e11b81526001600160481b038816600482015291829060249082905afa9485156122365780956121f9575b50506040516001600160a01b03909316946001600160481b0316936000805160206127db833981519152939283926121f49284611e63565b0390a3565b6000805160206127db833981519152949295509261222c6121f4926001600160481b03953d8091833e6103ae8183611cc9565b95929450926121bc565b604051903d90823e3d90fd5b506001546001600160a01b0316803b156110d25785809160246040518094819363415942b160e01b83526001600160481b038d1660048401525af18015610a8b57908691612291575b50612188565b61229a90611c83565b610ff757843861228b565b60405163762ffd6160e11b8152925060209150829060049082905afa908115610a8b5790869182916122ee575b506001600160601b03166001600160601b038516101538612182565b9150506020813d60201161232a575b8161230a60209383611cc9565b810103126110d2576001600160601b036123248792611d66565b906122d2565b3d91506122fd565b61234b915060203d602011610513576105058183611cc9565b38612179565b6123699060203d602011610513576105058183611cc9565b5038612131565b61237b919350611c83565b6119e257888891386120e0565b61239490999199611c83565b9738612082565b6040516318160ddd60e01b81526020816004816001600160a01b0386165afa908115611904578b916123f4575b506123df6123ef916001600160601b038716611d7a565b6001600160601b03891690611da3565b612033565b90506020813d602011612420575b8161240f60209383611cc9565b8101031261190f57516123df6123c8565b3d9150612402565b90506020813d602011612452575b8161244360209383611cc9565b8101031261190f575138612023565b3d9150612436565b612473915060203d6020116109b7576109a88183611cc9565b38611ff5565b60405162461bcd60e51b815260206004820152601a60248201527f457863656564656420746865206d6178696d756d207374616b650000000000006044820152606490fd5b506020813d6020116124f6575b816124d860209383611cc9565b8101031261199a576124f16001600160601b0391611d66565b611fa8565b3d91506124cb565b60405162461bcd60e51b815260206004820152601760248201527f416c6c6f77616e6365203c207374616b65416d6f756e740000000000000000006044820152606490fd5b90506020813d60201161256d575b8161255e60209383611cc9565b8101031261199a575138611f75565b3d9150612551565b9094506020813d6020116125ad575b8161259160209383611cc9565b810103126125a9576125a290611d66565b9338611ef3565b8780fd5b3d9150612584565b6040513d8a823e3d90fd5b60206001600160481b03606460018060a01b036002541693604051848101903360601b8252601481526125f281611cad565b519020946040519586948593631af27dbd60e11b85521660048401526024830152600160448301525afa90811561268757600091612669575b501561263357565b60405162461bcd60e51b815260206004820152600e60248201526d20b236b4b710333ab731ba34b7b760911b6044820152606490fd5b612681915060203d8111610513576105058183611cc9565b3861262b565b6040513d6000823e3d90fd5b600054604051638da5cb5b60e01b81526001600160a01b03916020908290600490829086165afa90811561268757600091612717575b501633036126d357565b606460405162461bcd60e51b815260206004820152602060248201527f466e2063616e206f6e6c79206265207573656420627920687562206f776e65726044820152fd5b61272f915060203d81116109b7576109a88183611cc9565b386126c9565b600054604051631627905560e01b815233600482015290602090829060249082906001600160a01b03165afa908115612687576000916127bc575b501561277857565b606460405162461bcd60e51b815260206004820152602060248201527f466e2063616e206f6e6c792062652063616c6c656420627920746865206875626044820152fd5b6127d4915060203d8111610513576105058183611cc9565b3861277056fecb56fcd923db408189656425ce7e77e7142d6b0a228bb5bf641e9f23bac27867a2646970667358221220afbe0b73f7208bd303848df61aa7cb5e616197a427d5a0c613ce16086cc839ab64736f6c63430008100033",
  "devdoc": {
    "kind": "dev",
    "methods": {},
    "version": 1
  },
  "userdoc": {
    "kind": "user",
    "methods": {},
    "version": 1
  },
  "storageLayout": {
    "storage": [
      {
        "astId": 15408,
        "contract": "contracts/Staking.sol:Staking",
        "label": "hub",
        "offset": 0,
        "slot": "0",
        "type": "t_contract(Hub)9211"
      },
      {
        "astId": 15379,
        "contract": "contracts/Staking.sol:Staking",
        "label": "status",
        "offset": 20,
        "slot": "0",
        "type": "t_bool"
      },
      {
        "astId": 14384,
        "contract": "contracts/Staking.sol:Staking",
        "label": "shardingTableContract",
        "offset": 0,
        "slot": "1",
        "type": "t_contract(ShardingTable)14236"
      },
      {
        "astId": 14387,
        "contract": "contracts/Staking.sol:Staking",
        "label": "identityStorage",
        "offset": 0,
        "slot": "2",
        "type": "t_contract(IdentityStorage)18485"
      },
      {
        "astId": 14390,
        "contract": "contracts/Staking.sol:Staking",
        "label": "parametersStorage",
        "offset": 0,
        "slot": "3",
        "type": "t_contract(ParametersStorage)19108"
      },
      {
        "astId": 14393,
        "contract": "contracts/Staking.sol:Staking",
        "label": "profileStorage",
        "offset": 0,
        "slot": "4",
        "type": "t_contract(ProfileStorage)19582"
      },
      {
        "astId": 14396,
        "contract": "contracts/Staking.sol:Staking",
        "label": "stakingStorage",
        "offset": 0,
        "slot": "5",
        "type": "t_contract(StakingStorage)23184"
      },
      {
        "astId": 14399,
        "contract": "contracts/Staking.sol:Staking",
        "label": "serviceAgreementStorageProxy",
        "offset": 0,
        "slot": "6",
        "type": "t_contract(ServiceAgreementStorageProxy)21098"
      },
      {
        "astId": 14402,
        "contract": "contracts/Staking.sol:Staking",
        "label": "shardingTableStorage",
        "offset": 0,
        "slot": "7",
        "type": "t_contract(ShardingTableStorage)22972"
      },
      {
        "astId": 14405,
        "contract": "contracts/Staking.sol:Staking",
        "label": "tokenContract",
        "offset": 0,
        "slot": "8",
        "type": "t_contract(IERC20)1169"
      }
    ],
    "types": {
      "t_bool": {
        "encoding": "inplace",
        "label": "bool",
        "numberOfBytes": "1"
      },
      "t_contract(Hub)9211": {
        "encoding": "inplace",
        "label": "contract Hub",
        "numberOfBytes": "20"
      },
      "t_contract(IERC20)1169": {
        "encoding": "inplace",
        "label": "contract IERC20",
        "numberOfBytes": "20"
      },
      "t_contract(IdentityStorage)18485": {
        "encoding": "inplace",
        "label": "contract IdentityStorage",
        "numberOfBytes": "20"
      },
      "t_contract(ParametersStorage)19108": {
        "encoding": "inplace",
        "label": "contract ParametersStorage",
        "numberOfBytes": "20"
      },
      "t_contract(ProfileStorage)19582": {
        "encoding": "inplace",
        "label": "contract ProfileStorage",
        "numberOfBytes": "20"
      },
      "t_contract(ServiceAgreementStorageProxy)21098": {
        "encoding": "inplace",
        "label": "contract ServiceAgreementStorageProxy",
        "numberOfBytes": "20"
      },
      "t_contract(ShardingTable)14236": {
        "encoding": "inplace",
        "label": "contract ShardingTable",
        "numberOfBytes": "20"
      },
      "t_contract(ShardingTableStorage)22972": {
        "encoding": "inplace",
        "label": "contract ShardingTableStorage",
        "numberOfBytes": "20"
      },
      "t_contract(StakingStorage)23184": {
        "encoding": "inplace",
        "label": "contract StakingStorage",
        "numberOfBytes": "20"
      }
    }
  }
}