{
  "address": "0x8336fA14e9cEB885EbFd766B2D84e0c53562D56c",
  "abi": [
    {
      "inputs": [
        {
          "internalType": "address",
          "name": "hubAddress",
          "type": "address"
        }
      ],
      "stateMutability": "nonpayable",
      "type": "constructor"
    },
    {
      "anonymous": false,
      "inputs": [
        {
          "indexed": true,
          "internalType": "address",
          "name": "custodian",
          "type": "address"
        },
        {
          "indexed": false,
          "internalType": "uint256",
          "name": "amount",
          "type": "uint256"
        }
      ],
      "name": "MisplacedOTPWithdrawn",
      "type": "event"
    },
    {
      "anonymous": false,
      "inputs": [
        {
          "indexed": true,
          "internalType": "address",
          "name": "custodian",
          "type": "address"
        },
        {
          "indexed": false,
          "internalType": "address",
          "name": "tokenContract",
          "type": "address"
        },
        {
          "indexed": false,
          "internalType": "uint256",
          "name": "amount",
          "type": "uint256"
        }
      ],
      "name": "MisplacedTokensWithdrawn",
      "type": "event"
    },
    {
      "anonymous": false,
      "inputs": [
        {
          "indexed": true,
          "internalType": "address",
          "name": "custodian",
          "type": "address"
        },
        {
          "indexed": false,
          "internalType": "uint256",
          "name": "amount",
          "type": "uint256"
        }
      ],
      "name": "TokenTransferred",
      "type": "event"
    },
    {
      "inputs": [
        {
          "internalType": "uint72",
          "name": "identityId",
          "type": "uint72"
        },
        {
          "internalType": "address",
          "name": "staker",
          "type": "address"
        },
        {
          "internalType": "uint96",
          "name": "amount",
          "type": "uint96"
        },
        {
          "internalType": "uint256",
          "name": "timestamp",
          "type": "uint256"
        }
      ],
      "name": "createWithdrawalRequest",
      "outputs": [],
      "stateMutability": "nonpayable",
      "type": "function"
    },
    {
      "inputs": [
        {
          "internalType": "uint72",
          "name": "identityId",
          "type": "uint72"
        },
        {
          "internalType": "address",
          "name": "staker",
          "type": "address"
        }
      ],
      "name": "deleteWithdrawalRequest",
      "outputs": [],
      "stateMutability": "nonpayable",
      "type": "function"
    },
    {
      "inputs": [
        {
          "internalType": "uint72",
          "name": "identityId",
          "type": "uint72"
        },
        {
          "internalType": "address",
          "name": "staker",
          "type": "address"
        }
      ],
      "name": "getWithdrawalRequestAmount",
      "outputs": [
        {
          "internalType": "uint96",
          "name": "",
          "type": "uint96"
        }
      ],
      "stateMutability": "view",
      "type": "function"
    },
    {
      "inputs": [
        {
          "internalType": "uint72",
          "name": "identityId",
          "type": "uint72"
        },
        {
          "internalType": "address",
          "name": "staker",
          "type": "address"
        }
      ],
      "name": "getWithdrawalRequestTimestamp",
      "outputs": [
        {
          "internalType": "uint256",
          "name": "",
          "type": "uint256"
        }
      ],
      "stateMutability": "view",
      "type": "function"
    },
    {
      "inputs": [],
      "name": "hub",
      "outputs": [
        {
          "internalType": "contract Hub",
          "name": "",
          "type": "address"
        }
      ],
      "stateMutability": "view",
      "type": "function"
    },
    {
      "inputs": [],
      "name": "initialize",
      "outputs": [],
      "stateMutability": "nonpayable",
      "type": "function"
    },
    {
      "inputs": [],
      "name": "name",
      "outputs": [
        {
          "internalType": "string",
          "name": "",
          "type": "string"
        }
      ],
      "stateMutability": "pure",
      "type": "function"
    },
    {
      "inputs": [
        {
          "internalType": "uint72",
          "name": "",
          "type": "uint72"
        }
      ],
      "name": "operatorFees",
      "outputs": [
        {
          "internalType": "uint96",
          "name": "",
          "type": "uint96"
        }
      ],
      "stateMutability": "view",
      "type": "function"
    },
    {
      "inputs": [
        {
          "internalType": "uint72",
          "name": "identityId",
          "type": "uint72"
        },
        {
          "internalType": "uint96",
          "name": "operatorFee",
          "type": "uint96"
        }
      ],
      "name": "setOperatorFee",
      "outputs": [],
      "stateMutability": "nonpayable",
      "type": "function"
    },
    {
      "inputs": [
        {
          "internalType": "uint72",
          "name": "identityId",
          "type": "uint72"
        },
        {
          "internalType": "uint96",
          "name": "newTotalStake",
          "type": "uint96"
        }
      ],
      "name": "setTotalStake",
      "outputs": [],
      "stateMutability": "nonpayable",
      "type": "function"
    },
    {
      "inputs": [],
      "name": "tokenContract",
      "outputs": [
        {
          "internalType": "contract IERC20",
          "name": "",
          "type": "address"
        }
      ],
      "stateMutability": "view",
      "type": "function"
    },
    {
      "inputs": [
        {
          "internalType": "uint72",
          "name": "",
          "type": "uint72"
        }
      ],
      "name": "totalStakes",
      "outputs": [
        {
          "internalType": "uint96",
          "name": "",
          "type": "uint96"
        }
      ],
      "stateMutability": "view",
      "type": "function"
    },
    {
      "inputs": [
        {
          "internalType": "address",
          "name": "receiver",
          "type": "address"
        },
        {
          "internalType": "uint96",
          "name": "stakeAmount",
          "type": "uint96"
        }
      ],
      "name": "transferStake",
      "outputs": [],
      "stateMutability": "nonpayable",
      "type": "function"
    },
    {
      "inputs": [
        {
          "internalType": "address payable",
          "name": "custodian",
          "type": "address"
        }
      ],
      "name": "transferTokens",
      "outputs": [],
      "stateMutability": "nonpayable",
      "type": "function"
    },
    {
      "inputs": [],
      "name": "version",
      "outputs": [
        {
          "internalType": "string",
          "name": "",
          "type": "string"
        }
      ],
      "stateMutability": "pure",
      "type": "function"
    },
    {
      "inputs": [],
      "name": "withdrawMisplacedOTP",
      "outputs": [],
      "stateMutability": "nonpayable",
      "type": "function"
    },
    {
      "inputs": [
        {
          "internalType": "address",
          "name": "tokenContractAddress",
          "type": "address"
        }
      ],
      "name": "withdrawMisplacedTokens",
      "outputs": [],
      "stateMutability": "nonpayable",
      "type": "function"
    },
    {
      "inputs": [
        {
          "internalType": "uint72",
          "name": "identityId",
          "type": "uint72"
        },
        {
          "internalType": "address",
          "name": "staker",
          "type": "address"
        }
      ],
      "name": "withdrawalRequestExists",
      "outputs": [
        {
          "internalType": "bool",
          "name": "",
          "type": "bool"
        }
      ],
      "stateMutability": "view",
      "type": "function"
    },
    {
      "inputs": [
        {
          "internalType": "uint72",
          "name": "",
          "type": "uint72"
        },
        {
          "internalType": "address",
          "name": "",
          "type": "address"
        }
      ],
      "name": "withdrawalRequests",
      "outputs": [
        {
          "internalType": "uint96",
          "name": "amount",
          "type": "uint96"
        },
        {
          "internalType": "uint256",
          "name": "timestamp",
          "type": "uint256"
        }
      ],
      "stateMutability": "view",
      "type": "function"
    }
  ],
  "transactionHash": "0xd047051e16d09ad4c39024fc66d8fdbd7db2065222755789d787bdec66a76a65",
  "args": [
    "0x224aEC6891d26e994D4Dbf207aE099ca029b3E67"
  ],
  "numDeployments": 1,
  "solcInputHash": "6736b5a2b01ed07b57366e384b7e7c88",
  "bytecode": "0x6080346100bf57601f61116b38819003918201601f19168301916001600160401b038311848410176100c4578084926020946040528339810103126100bf57516001600160a01b038116908190036100bf57801561007a57600080546001600160a01b03191691909117905560405161109090816100db8239f35b60405162461bcd60e51b815260206004820152601960248201527f48756220416464726573732063616e6e6f7420626520307830000000000000006044820152606490fd5b600080fd5b634e487b7160e01b600052604160045260246000fdfe6080604081815260048036101561001557600080fd5b600092833560e01c90816306fdde0314610d82575080630c89a0df146109955780632347e5171461093c578063299d9094146108da578063330eece21461089a578063365a86fc146108725780633825b66d1461081757806354fd4d50146107d657806355a373d6146107ad5780635611f9a3146107535780636ce1510e146106715780638129fc1c146105ab5780639d2b48ad1461056b5780639d7937b214610371578063a88021cb14610316578063ac37a2fb146102c6578063b63365ca1461026c578063dc99106f146101a45763dedac1ae146100f457600080fd5b346101a057816003193601126101a057602061010e610e3e565b6044610118610e54565b91610121610fb5565b600154865163a9059cbb60e01b81526001600160a01b03928316968101969096526001600160601b039093166024860152849283918891165af1801561019457610169575051f35b6101899060203d811161018d575b6101818183610e9c565b810190610ed2565b5051f35b503d610177565b505051903d90823e3d90fd5b8280fd5b50919034610268576080366003190112610268576101c0610e0d565b6101c8610e28565b90604435916001600160601b0390818416809403610264576101e8610fb5565b84519385850185811067ffffffffffffffff821117610251579086979891600196975286526001600160481b036020870194606435865216885260205285872090848060a01b031687526020528486209351166001600160601b03198454161783555191015551f35b634e487b7160e01b885260418952602488fd5b8580fd5b5080fd5b505034610268578060031936011261026857610286610e0d565b6001600160481b03610296610e54565b9161029f610fb5565b16835260036020526001600160601b0382842091166001600160601b031982541617905551f35b50346101a057816003193601126101a057816020936001926102e6610e0d565b906001600160481b036102f7610e28565b92168352865282822090848060a01b0316825285522001549051908152f35b50346101a057816003193601126101a05761032f610e0d565b906001600160481b03610340610e28565b92610349610fb5565b16845260209081528284206001600160a01b0390921684525280822082815560010182905551f35b50346101a0576020806003193601126105675761038c610e3e565b91610395610eea565b6001546001600160a01b03848116939116831461050d5784516370a0823160e01b81523083820152928184602481845afa9384156104d05787946104da575b508361041e575b505083516001600160a01b0393909316835250602082015233907f5fe8cbe5f97c59a4b590a924c3fc62aac6b6a653ec22e39f5fc6d3732f18c25490604090a251f35b855163a9059cbb60e01b815233848201908152602081018690529091839183919082908b90829060400103925af19081156104d05787916104b3575b501561046657806103db565b845162461bcd60e51b815291820152602260248201527f546f6b656e207472616e73616374696f6e20657865637574696f6e206661696c604482015261195960f21b606482015260849150fd5b6104ca9150823d841161018d576101818183610e9c565b3861045a565b86513d89823e3d90fd5b9093508181813d8311610506575b6104f28183610e9c565b81010312610502575192386103d4565b8680fd5b503d6104e8565b845162461bcd60e51b815291820152602f60248201527f43616e6e6f742075736520746869732066756e6374696f6e207769746820746860448201526e194815149050c818dbdb9d1c9858dd608a1b606482015260849150fd5b8380fd5b505034610268576020366003190112610268576001600160601b03816020936001600160481b0361059a610e0d565b168152600285522054169051908152f35b50346101a057826003193601126101a0576105c4610eea565b82548251630110ceef60e21b8152602092810183905260056024820152642a37b5b2b760d91b60448201526001600160a01b039290918290606490829086165afa90811561066457849161062b575b50166001600160601b0360a01b600154161760015551f35b90506020813d821161065c575b8161064560209383610e9c565b810103126105675761065690610ebe565b38610613565b3d9150610638565b50505051903d90823e3d90fd5b50346101a057826003193601126101a05761068a610eea565b4790816106c1575b5081519081527fd32ec2b96f6389848e3f68f670160bf5a50b5024b6f62a61108f20025179a29160203392a251f35b838080855185335af13d1561074e573d67ffffffffffffffff811161073b578451906106f7601f8201601f191660200183610e9c565b81528560203d92013e5b61069257606490602084519162461bcd60e51b8352820152601060248201526f2a3930b739b332b9103330b4b632b21760811b6044820152fd5b634e487b7160e01b865260418352602486fd5b610701565b50503461026857806003193601126102685761076d610e0d565b6001600160481b0361077d610e54565b91610786610fb5565b16835260026020526001600160601b0382842091166001600160601b031982541617905551f35b50503461026857816003193601126102685760015490516001600160a01b039091168152602090f35b5050346102685781600319360112610268578051610813916107f782610e6a565b60058252640312e302e360dc1b60208301525191829182610dc4565b0390f35b50346101a057816003193601126101a057816020936001600160601b039261083d610e0d565b906001600160481b0361084e610e28565b9216835286528282206001600160a01b039091168252855220549151911615158152f35b505034610268578160031936011261026857905490516001600160a01b039091168152602090f35b505034610268576020366003190112610268576001600160601b03816020936001600160481b036108c9610e0d565b168152600385522054169051908152f35b50346101a057816003193601126101a0579181926108f6610e0d565b906001600160481b03610907610e28565b921683526020528282209060018060a01b031682526020522060016001600160601b0382541691015482519182526020820152f35b50346101a057816003193601126101a057816020936001600160601b0392610962610e0d565b906001600160481b03610973610e28565b9216835286528282206001600160a01b03909116825285522054915191168152f35b50346101a0576020806003193601126105675781356001600160a01b038181169391848103610502576109c6610eea565b8415610d34573b15610ccc57845163a0e67e2b60e01b8152869081818581895afa889181610c13575b50610b9a575b5015610b325760015416908585516370a0823160e01b815230838201528481602481875afa938415610b285785918395610af7575b50604488518094819363a9059cbb60e01b83528a888401528860248401525af19081156104d0578791610ada575b5015610a8b5750907fefed6b8d78a916dbd402a323824ae4454c9214b8f3d05fa85b3bb7f30dc25c06918451908152a251f35b845162461bcd60e51b8152908101839052602360248201527f546f6b656e207472616e73616374696f6e20657865637574696f6e206661696c60448201526265642160e81b6064820152608490fd5b610af19150843d861161018d576101818183610e9c565b38610a58565b8281939296503d8311610b21575b610b0f8183610e9c565b81010312610268578490519338610a2a565b503d610b05565b87513d84823e3d90fd5b5060849184519162461bcd60e51b8352820152603f60248201527f43616e6e6f74207472616e7366657220746f6b656e7320746f20637573746f6460448201527f69616e20776974686f7574206765744f776e6572732066756e6374696f6e21006064820152fd5b516001915015610baa57386109f5565b855162461bcd60e51b8152808401859052603b60248201527f43616e6e6f74207472616e7366657220746f6b656e7320746f20637573746f6460448201527f69616e20776974686f7574206f776e65727320646566696e65642100000000006064820152608490fd5b9091503d808a833e610c258183610e9c565b81018682820312610cc857815167ffffffffffffffff92838211610cad570181601f82011215610cc4578051928311610cb1578260051b908a5193610c6c8a840186610e9c565b84528880850192820101928311610cad5788809101915b838310610c95575050505090386109ef565b8190610ca084610ebe565b8152019101908890610c83565b8b80fd5b634e487b7160e01b8b526041875260248bfd5b8a80fd5b8980fd5b5060849184519162461bcd60e51b8352820152603b60248201527f43616e6e6f74207472616e7366657220746f6b656e7320746f20637573746f6460448201527f69616e2074686174206973206e6f74206120636f6e74726163742100000000006064820152fd5b855162461bcd60e51b8152808401859052602260248201527f437573746f6469616e2063616e6e6f742062652061207a65726f206164647265604482015261737360f01b6064820152608490fd5b849084346101a057826003193601126101a0576108139250610da382610e6a565b600e82526d5374616b696e6753746f7261676560901b602083015251918291825b6020808252825181830181905290939260005b828110610df957505060409293506000838284010152601f8019910116010190565b818101860151848201604001528501610dd7565b600435906001600160481b0382168203610e2357565b600080fd5b602435906001600160a01b0382168203610e2357565b600435906001600160a01b0382168203610e2357565b602435906001600160601b0382168203610e2357565b6040810190811067ffffffffffffffff821117610e8657604052565b634e487b7160e01b600052604160045260246000fd5b90601f8019910116810190811067ffffffffffffffff821117610e8657604052565b51906001600160a01b0382168203610e2357565b90816020910312610e2357518015158103610e235790565b600054604051638da5cb5b60e01b81526020916001600160a01b03919083908290600490829086165afa908115610fa957600091610f71575b50163303610f2e5750565b6064906040519062461bcd60e51b825280600483015260248201527f466e2063616e206f6e6c79206265207573656420627920687562206f776e65726044820152fd5b908382813d8311610fa2575b610f878183610e9c565b81010312610f9f5750610f9990610ebe565b38610f23565b80fd5b503d610f7d565b6040513d6000823e3d90fd5b600054604051631627905560e01b815233600482015290602090829060249082906001600160a01b03165afa908115610fa95760009161103c575b5015610ff857565b606460405162461bcd60e51b815260206004820152602060248201527f466e2063616e206f6e6c792062652063616c6c656420627920746865206875626044820152fd5b611054915060203d811161018d576101818183610e9c565b38610ff056fea2646970667358221220d85dc34980763b1eea5b04f80034ba73329b59273818364732d5608f18bef57b64736f6c63430008100033",
  "devdoc": {
    "kind": "dev",
    "methods": {},
    "version": 1
  },
  "userdoc": {
    "kind": "user",
    "methods": {},
    "version": 1
  },
  "storageLayout": {
    "storage": [
      {
        "astId": 15408,
        "contract": "contracts/storage/StakingStorage.sol:StakingStorage",
        "label": "hub",
        "offset": 0,
        "slot": "0",
        "type": "t_contract(Hub)9211"
      },
      {
        "astId": 8523,
        "contract": "contracts/storage/StakingStorage.sol:StakingStorage",
        "label": "tokenContract",
        "offset": 0,
        "slot": "1",
        "type": "t_contract(IERC20)1169"
      },
      {
        "astId": 23001,
        "contract": "contracts/storage/StakingStorage.sol:StakingStorage",
        "label": "totalStakes",
        "offset": 0,
        "slot": "2",
        "type": "t_mapping(t_uint72,t_uint96)"
      },
      {
        "astId": 23005,
        "contract": "contracts/storage/StakingStorage.sol:StakingStorage",
        "label": "operatorFees",
        "offset": 0,
        "slot": "3",
        "type": "t_mapping(t_uint72,t_uint96)"
      },
      {
        "astId": 23012,
        "contract": "contracts/storage/StakingStorage.sol:StakingStorage",
        "label": "withdrawalRequests",
        "offset": 0,
        "slot": "4",
        "type": "t_mapping(t_uint72,t_mapping(t_address,t_struct(WithdrawalRequest)22997_storage))"
      }
    ],
    "types": {
      "t_address": {
        "encoding": "inplace",
        "label": "address",
        "numberOfBytes": "20"
      },
      "t_contract(Hub)9211": {
        "encoding": "inplace",
        "label": "contract Hub",
        "numberOfBytes": "20"
      },
      "t_contract(IERC20)1169": {
        "encoding": "inplace",
        "label": "contract IERC20",
        "numberOfBytes": "20"
      },
      "t_mapping(t_address,t_struct(WithdrawalRequest)22997_storage)": {
        "encoding": "mapping",
        "key": "t_address",
        "label": "mapping(address => struct StakingStorage.WithdrawalRequest)",
        "numberOfBytes": "32",
        "value": "t_struct(WithdrawalRequest)22997_storage"
      },
      "t_mapping(t_uint72,t_mapping(t_address,t_struct(WithdrawalRequest)22997_storage))": {
        "encoding": "mapping",
        "key": "t_uint72",
        "label": "mapping(uint72 => mapping(address => struct StakingStorage.WithdrawalRequest))",
        "numberOfBytes": "32",
        "value": "t_mapping(t_address,t_struct(WithdrawalRequest)22997_storage)"
      },
      "t_mapping(t_uint72,t_uint96)": {
        "encoding": "mapping",
        "key": "t_uint72",
        "label": "mapping(uint72 => uint96)",
        "numberOfBytes": "32",
        "value": "t_uint96"
      },
      "t_struct(WithdrawalRequest)22997_storage": {
        "encoding": "inplace",
        "label": "struct StakingStorage.WithdrawalRequest",
        "members": [
          {
            "astId": 22994,
            "contract": "contracts/storage/StakingStorage.sol:StakingStorage",
            "label": "amount",
            "offset": 0,
            "slot": "0",
            "type": "t_uint96"
          },
          {
            "astId": 22996,
            "contract": "contracts/storage/StakingStorage.sol:StakingStorage",
            "label": "timestamp",
            "offset": 0,
            "slot": "1",
            "type": "t_uint256"
          }
        ],
        "numberOfBytes": "64"
      },
      "t_uint256": {
        "encoding": "inplace",
        "label": "uint256",
        "numberOfBytes": "32"
      },
      "t_uint72": {
        "encoding": "inplace",
        "label": "uint72",
        "numberOfBytes": "9"
      },
      "t_uint96": {
        "encoding": "inplace",
        "label": "uint96",
        "numberOfBytes": "12"
      }
    }
  }
}