{
  "address": "0x84901F22BdE7d60c3C3a56afAd71344a82E80635",
  "abi": [
    {
      "inputs": [
        {
          "internalType": "address",
          "name": "hubAddress",
          "type": "address"
        }
      ],
      "stateMutability": "nonpayable",
      "type": "constructor"
    },
    {
      "inputs": [
        {
          "internalType": "uint256",
          "name": "tokenId",
          "type": "uint256"
        }
      ],
      "name": "deleteIssuer",
      "outputs": [],
      "stateMutability": "nonpayable",
      "type": "function"
    },
    {
      "inputs": [
        {
          "internalType": "uint256",
          "name": "tokenId",
          "type": "uint256"
        }
      ],
      "name": "deleteUnfinalizedState",
      "outputs": [],
      "stateMutability": "nonpayable",
      "type": "function"
    },
    {
      "inputs": [
        {
          "internalType": "uint256",
          "name": "tokenId",
          "type": "uint256"
        }
      ],
      "name": "getIssuer",
      "outputs": [
        {
          "internalType": "address",
          "name": "",
          "type": "address"
        }
      ],
      "stateMutability": "view",
      "type": "function"
    },
    {
      "inputs": [
        {
          "internalType": "uint256",
          "name": "tokenId",
          "type": "uint256"
        }
      ],
      "name": "getUnfinalizedState",
      "outputs": [
        {
          "internalType": "bytes32",
          "name": "",
          "type": "bytes32"
        }
      ],
      "stateMutability": "view",
      "type": "function"
    },
    {
      "inputs": [
        {
          "internalType": "uint256",
          "name": "tokenId",
          "type": "uint256"
        }
      ],
      "name": "hasPendingUpdate",
      "outputs": [
        {
          "internalType": "bool",
          "name": "",
          "type": "bool"
        }
      ],
      "stateMutability": "view",
      "type": "function"
    },
    {
      "inputs": [],
      "name": "hub",
      "outputs": [
        {
          "internalType": "contract Hub",
          "name": "",
          "type": "address"
        }
      ],
      "stateMutability": "view",
      "type": "function"
    },
    {
      "inputs": [],
      "name": "name",
      "outputs": [
        {
          "internalType": "string",
          "name": "",
          "type": "string"
        }
      ],
      "stateMutability": "pure",
      "type": "function"
    },
    {
      "inputs": [
        {
          "internalType": "uint256",
          "name": "tokenId",
          "type": "uint256"
        },
        {
          "internalType": "address",
          "name": "issuer",
          "type": "address"
        }
      ],
      "name": "setIssuer",
      "outputs": [],
      "stateMutability": "nonpayable",
      "type": "function"
    },
    {
      "inputs": [
        {
          "internalType": "uint256",
          "name": "tokenId",
          "type": "uint256"
        },
        {
          "internalType": "bytes32",
          "name": "state",
          "type": "bytes32"
        }
      ],
      "name": "setUnfinalizedState",
      "outputs": [],
      "stateMutability": "nonpayable",
      "type": "function"
    },
    {
      "inputs": [],
      "name": "version",
      "outputs": [
        {
          "internalType": "string",
          "name": "",
          "type": "string"
        }
      ],
      "stateMutability": "pure",
      "type": "function"
    }
  ],
  "transactionHash": "0xa54a941cf349b2a49eb825c8752260f792631685de14065b6880abc4faa30ec9",
  "args": [
    "0x224aEC6891d26e994D4Dbf207aE099ca029b3E67"
  ],
  "numDeployments": 1,
  "solcInputHash": "6736b5a2b01ed07b57366e384b7e7c88",
  "bytecode": "0x6080346100bf57601f61053e38819003918201601f19168301916001600160401b038311848410176100c4578084926020946040528339810103126100bf57516001600160a01b038116908190036100bf57801561007a57600080546001600160a01b03191691909117905560405161046390816100db8239f35b60405162461bcd60e51b815260206004820152601960248201527f48756220416464726573732063616e6e6f7420626520307830000000000000006044820152606490fd5b600080fd5b634e487b7160e01b600052604160045260246000fdfe6080604081815260048036101561001557600080fd5b600092833560e01c90816306fdde031461026057508063074b38ae1461020e578063365a86fc146101e65780633972192d146101bb5780634e64cf461461019457806354fd4d501461014f57806392089c461461011d578063a021d76d146100e7578063a93143a2146100bd5763f69307db1461009157600080fd5b346100b95760203660031901126100b957602092829135815260018452205415159051908152f35b8280fd5b50346100b95760203660031901126100b9576100d761032c565b3582526001602052818181205551f35b50346100b95760203660031901126100b95761010161032c565b358252600260205280822080546001600160a01b031916905551f35b50346100b95760203660031901126100b95735825260026020908152918190205490516001600160a01b039091168152f35b505034610190578160031936011261019057805161018c91610170826102fa565b60058252640312e302e360dc1b602083015251918291826102b1565b0390f35b5080fd5b50346100b95760203660031901126100b95760209282913581526001845220549051908152f35b50346100b957816003193601126100b9576101d461032c565b35825260016020526024358183205551f35b505034610190578160031936011261019057905490516001600160a01b039091168152602090f35b50346100b957816003193601126100b9576024356001600160a01b038116919082900361025c5761023d61032c565b358352600260205281832080546001600160a01b031916909117905551f35b8380fd5b849084346100b957826003193601126100b95761018c9250610281826102fa565b601782527f556e66696e616c697a6564537461746553746f72616765000000000000000000602083015251918291825b6020808252825181830181905290939260005b8281106102e657505060409293506000838284010152601f8019910116010190565b8181018601518482016040015285016102c4565b6040810190811067ffffffffffffffff82111761031657604052565b634e487b7160e01b600052604160045260246000fd5b60008054604051631627905560e01b815233600482015260209290918390839060249082906001600160a01b03165afa9182156104205781926103b7575b5050156103745750565b6064906040519062461bcd60e51b825280600483015260248201527f466e2063616e206f6e6c792062652063616c6c656420627920746865206875626044820152fd5b909150823d8411610419575b601f8101601f1916820167ffffffffffffffff81118382101761040557849183916040528101031261019057519081151582036104025750388061036a565b80fd5b634e487b7160e01b84526041600452602484fd5b503d6103c3565b50604051903d90823e3d90fdfea2646970667358221220c2c44b112c0c904a2d987f20ad6db3bc84cad9ed2617b54f7cb0b1d7df81c9e564736f6c63430008100033",
  "devdoc": {
    "kind": "dev",
    "methods": {},
    "version": 1
  },
  "userdoc": {
    "kind": "user",
    "methods": {},
    "version": 1
  },
  "storageLayout": {
    "storage": [
      {
        "astId": 15408,
        "contract": "contracts/storage/UnfinalizedStateStorage.sol:UnfinalizedStateStorage",
        "label": "hub",
        "offset": 0,
        "slot": "0",
        "type": "t_contract(Hub)9211"
      },
      {
        "astId": 23208,
        "contract": "contracts/storage/UnfinalizedStateStorage.sol:UnfinalizedStateStorage",
        "label": "unfinalizedStates",
        "offset": 0,
        "slot": "1",
        "type": "t_mapping(t_uint256,t_bytes32)"
      },
      {
        "astId": 23212,
        "contract": "contracts/storage/UnfinalizedStateStorage.sol:UnfinalizedStateStorage",
        "label": "issuers",
        "offset": 0,
        "slot": "2",
        "type": "t_mapping(t_uint256,t_address)"
      }
    ],
    "types": {
      "t_address": {
        "encoding": "inplace",
        "label": "address",
        "numberOfBytes": "20"
      },
      "t_bytes32": {
        "encoding": "inplace",
        "label": "bytes32",
        "numberOfBytes": "32"
      },
      "t_contract(Hub)9211": {
        "encoding": "inplace",
        "label": "contract Hub",
        "numberOfBytes": "20"
      },
      "t_mapping(t_uint256,t_address)": {
        "encoding": "mapping",
        "key": "t_uint256",
        "label": "mapping(uint256 => address)",
        "numberOfBytes": "32",
        "value": "t_address"
      },
      "t_mapping(t_uint256,t_bytes32)": {
        "encoding": "mapping",
        "key": "t_uint256",
        "label": "mapping(uint256 => bytes32)",
        "numberOfBytes": "32",
        "value": "t_bytes32"
      },
      "t_uint256": {
        "encoding": "inplace",
        "label": "uint256",
        "numberOfBytes": "32"
      }
    }
  }
}