{
  "address": "0x9BF88b3684cDea00F317ea278E9C28bf72Dc1305",
  "abi": [
    {
      "inputs": [
        {
          "internalType": "address",
          "name": "hubAddress",
          "type": "address"
        }
      ],
      "stateMutability": "nonpayable",
      "type": "constructor"
    },
    {
      "inputs": [
        {
          "internalType": "address",
          "name": "addr",
          "type": "address"
        }
      ],
      "name": "blacklistAddress",
      "outputs": [],
      "stateMutability": "nonpayable",
      "type": "function"
    },
    {
      "inputs": [],
      "name": "disableWhitelist",
      "outputs": [],
      "stateMutability": "nonpayable",
      "type": "function"
    },
    {
      "inputs": [],
      "name": "enableWhitelist",
      "outputs": [],
      "stateMutability": "nonpayable",
      "type": "function"
    },
    {
      "inputs": [],
      "name": "hub",
      "outputs": [
        {
          "internalType": "contract Hub",
          "name": "",
          "type": "address"
        }
      ],
      "stateMutability": "view",
      "type": "function"
    },
    {
      "inputs": [],
      "name": "name",
      "outputs": [
        {
          "internalType": "string",
          "name": "",
          "type": "string"
        }
      ],
      "stateMutability": "pure",
      "type": "function"
    },
    {
      "inputs": [],
      "name": "version",
      "outputs": [
        {
          "internalType": "string",
          "name": "",
          "type": "string"
        }
      ],
      "stateMutability": "pure",
      "type": "function"
    },
    {
      "inputs": [
        {
          "internalType": "address",
          "name": "addr",
          "type": "address"
        }
      ],
      "name": "whitelistAddress",
      "outputs": [],
      "stateMutability": "nonpayable",
      "type": "function"
    },
    {
      "inputs": [
        {
          "internalType": "address",
          "name": "",
          "type": "address"
        }
      ],
      "name": "whitelisted",
      "outputs": [
        {
          "internalType": "bool",
          "name": "",
          "type": "bool"
        }
      ],
      "stateMutability": "view",
      "type": "function"
    },
    {
      "inputs": [],
      "name": "whitelistingEnabled",
      "outputs": [
        {
          "internalType": "bool",
          "name": "",
          "type": "bool"
        }
      ],
      "stateMutability": "view",
      "type": "function"
    }
  ],
  "transactionHash": "0x5df2108b2385b0ad53654157ee20cf92c1619817df23fe1f7e1922e2724bc73c",
  "args": [
    "0x224aEC6891d26e994D4Dbf207aE099ca029b3E67"
  ],
  "numDeployments": 1,
  "solcInputHash": "6736b5a2b01ed07b57366e384b7e7c88",
  "bytecode": "0x6080346100bf57601f61050338819003918201601f19168301916001600160401b038311848410176100c4578084926020946040528339810103126100bf57516001600160a01b038116908190036100bf57801561007a57600080546001600160a81b03191691909117905560405161042890816100db8239f35b60405162461bcd60e51b815260206004820152601960248201527f48756220416464726573732063616e6e6f7420626520307830000000000000006044820152606490fd5b600080fd5b634e487b7160e01b600052604160045260246000fdfe60806040818152600436101561001457600080fd5b600091823560e01c90816306fdde031461023657508063365a86fc1461020f57806341566585146101c857806354fd4d50146101885780635b0c29eb14610164578063cdfb2b4e14610137578063d6b0f48414610110578063d936547e146100d05763f3290d751461008557600080fd5b346100cc5760203660031901126100cc576004356001600160a01b038116908190036100c8576100b36102f5565b82526001602052808220805460ff1916905551f35b8280fd5b5080fd5b50346100cc5760203660031901126100cc576004356001600160a01b038116908190036100c857818360ff92602095526001855220541690519015158152f35b50346100cc57816003193601126100cc576101296102f5565b815460ff60a01b1916825551f35b50346100cc57816003193601126100cc576101506102f5565b815460ff60a01b1916600160a01b17825551f35b50346100cc57816003193601126100cc5760ff6020925460a01c1690519015158152f35b50346100cc57816003193601126100cc5780516101c4916101a8826102c3565b60058252640312e302e360dc1b6020830152519182918261027a565b0390f35b50346100cc5760203660031901126100cc576004356001600160a01b038116908190036100c8576101f76102f5565b82526001602052808220600160ff1982541617905551f35b50346100cc57816003193601126100cc57905490516001600160a01b039091168152602090f35b919050346100c857826003193601126100c8576101c49250610257826102c3565b601082526f57686974656c69737453746f7261676560801b602083015251918291825b6020808252825181830181905290939260005b8281106102af57505060409293506000838284010152601f8019910116010190565b81810186015184820160400152850161028d565b6040810190811067ffffffffffffffff8211176102df57604052565b634e487b7160e01b600052604160045260246000fd5b60008054604051638da5cb5b60e01b81526020926001600160a01b039284908390600490829087165afa9182156103e557819261037c575b50501633036103395750565b6064906040519062461bcd60e51b825280600483015260248201527f466e2063616e206f6e6c79206265207573656420627920687562206f776e65726044820152fd5b909150833d85116103de575b601f8101601f1916820167ffffffffffffffff8111838210176103ca5785918391604052810103126100cc57519082821682036103c75750388061032d565b80fd5b634e487b7160e01b84526041600452602484fd5b503d610388565b50604051903d90823e3d90fdfea26469706673582212201d1ebb4caf7ed268d8c0f3f7804864ba44724de2aff35abff314ef407b13746264736f6c63430008100033",
  "devdoc": {
    "kind": "dev",
    "methods": {},
    "version": 1
  },
  "userdoc": {
    "kind": "user",
    "methods": {},
    "version": 1
  },
  "storageLayout": {
    "storage": [
      {
        "astId": 15408,
        "contract": "contracts/storage/WhitelistStorage.sol:WhitelistStorage",
        "label": "hub",
        "offset": 0,
        "slot": "0",
        "type": "t_contract(Hub)9211"
      },
      {
        "astId": 23361,
        "contract": "contracts/storage/WhitelistStorage.sol:WhitelistStorage",
        "label": "whitelistingEnabled",
        "offset": 20,
        "slot": "0",
        "type": "t_bool"
      },
      {
        "astId": 23365,
        "contract": "contracts/storage/WhitelistStorage.sol:WhitelistStorage",
        "label": "whitelisted",
        "offset": 0,
        "slot": "1",
        "type": "t_mapping(t_address,t_bool)"
      }
    ],
    "types": {
      "t_address": {
        "encoding": "inplace",
        "label": "address",
        "numberOfBytes": "20"
      },
      "t_bool": {
        "encoding": "inplace",
        "label": "bool",
        "numberOfBytes": "1"
      },
      "t_contract(Hub)9211": {
        "encoding": "inplace",
        "label": "contract Hub",
        "numberOfBytes": "20"
      },
      "t_mapping(t_address,t_bool)": {
        "encoding": "mapping",
        "key": "t_address",
        "label": "mapping(address => bool)",
        "numberOfBytes": "32",
        "value": "t_bool"
      }
    }
  }
}