{
  "contractName": "AssertionStorage",
  "abi": [
    {
      "inputs": [
        {
          "internalType": "address",
          "name": "hubAddress",
          "type": "address"
        }
      ],
      "stateMutability": "nonpayable",
      "type": "constructor"
    },
    {
      "inputs": [],
      "name": "hub",
      "outputs": [
        {
          "internalType": "contract Hub",
          "name": "",
          "type": "address"
        }
      ],
      "stateMutability": "view",
      "type": "function"
    },
    {
      "inputs": [
        {
          "internalType": "bytes32",
          "name": "assertionId",
          "type": "bytes32"
        },
        {
          "internalType": "address",
          "name": "issuer",
          "type": "address"
        },
        {
          "internalType": "uint128",
          "name": "size",
          "type": "uint128"
        },
        {
          "internalType": "uint32",
          "name": "triplesNumber",
          "type": "uint32"
        },
        {
          "internalType": "uint96",
          "name": "chunksNumber",
          "type": "uint96"
        }
      ],
      "name": "createAssertion",
      "outputs": [],
      "stateMutability": "nonpayable",
      "type": "function"
    },
    {
      "inputs": [
        {
          "internalType": "bytes32",
          "name": "assertionId",
          "type": "bytes32"
        }
      ],
      "name": "getAssertion",
      "outputs": [
        {
          "components": [
            {
              "internalType": "uint256",
              "name": "timestamp",
              "type": "uint256"
            },
            {
              "internalType": "address",
              "name": "issuer",
              "type": "address"
            },
            {
              "internalType": "uint128",
              "name": "size",
              "type": "uint128"
            },
            {
              "internalType": "uint32",
              "name": "triplesNumber",
              "type": "uint32"
            },
            {
              "internalType": "uint96",
              "name": "chunksNumber",
              "type": "uint96"
            }
          ],
          "internalType": "struct AssertionStructs.Assertion",
          "name": "",
          "type": "tuple"
        }
      ],
      "stateMutability": "view",
      "type": "function"
    },
    {
      "inputs": [
        {
          "internalType": "bytes32",
          "name": "assertionId",
          "type": "bytes32"
        }
      ],
      "name": "getAssertionTimestamp",
      "outputs": [
        {
          "internalType": "uint256",
          "name": "",
          "type": "uint256"
        }
      ],
      "stateMutability": "view",
      "type": "function"
    },
    {
      "inputs": [
        {
          "internalType": "bytes32",
          "name": "assertionId",
          "type": "bytes32"
        }
      ],
      "name": "getAssertionIssuer",
      "outputs": [
        {
          "internalType": "address",
          "name": "",
          "type": "address"
        }
      ],
      "stateMutability": "view",
      "type": "function"
    },
    {
      "inputs": [
        {
          "internalType": "bytes32",
          "name": "assertionId",
          "type": "bytes32"
        }
      ],
      "name": "getAssertionSize",
      "outputs": [
        {
          "internalType": "uint128",
          "name": "",
          "type": "uint128"
        }
      ],
      "stateMutability": "view",
      "type": "function"
    },
    {
      "inputs": [
        {
          "internalType": "bytes32",
          "name": "assertionId",
          "type": "bytes32"
        }
      ],
      "name": "getAssertionTriplesNumber",
      "outputs": [
        {
          "internalType": "uint32",
          "name": "",
          "type": "uint32"
        }
      ],
      "stateMutability": "view",
      "type": "function"
    },
    {
      "inputs": [
        {
          "internalType": "bytes32",
          "name": "assertionId",
          "type": "bytes32"
        }
      ],
      "name": "getAssertionChunksNumber",
      "outputs": [
        {
          "internalType": "uint96",
          "name": "",
          "type": "uint96"
        }
      ],
      "stateMutability": "view",
      "type": "function"
    },
    {
      "inputs": [
        {
          "internalType": "bytes32",
          "name": "assertionId",
          "type": "bytes32"
        }
      ],
      "name": "assertionExists",
      "outputs": [
        {
          "internalType": "bool",
          "name": "",
          "type": "bool"
        }
      ],
      "stateMutability": "view",
      "type": "function"
    }
  ],
  "bytecode": "0x608060405234801561001057600080fd5b506040516107ed3803806107ed83398101604081905261002f91610067565b6001600160a01b03811661004257600080fd5b600080546001600160a01b0319166001600160a01b0392909216919091179055610097565b60006020828403121561007957600080fd5b81516001600160a01b038116811461009057600080fd5b9392505050565b610747806100a66000396000f3fe608060405234801561001057600080fd5b50600436106100a35760003560e01c8063448338bd11610076578063883028841161005b578063883028841461022b5780639f9c2c531461038e578063af17a875146103e457600080fd5b8063448338bd146101e45780635a4038f5146101f957600080fd5b80630828e9f3146100a8578063211107091461010c578063365a86fc146101725780634303b3da14610192575b600080fd5b6100e26100b636600461061f565b6000908152600160208190526040909120015473ffffffffffffffffffffffffffffffffffffffff1690565b60405173ffffffffffffffffffffffffffffffffffffffff90911681526020015b60405180910390f35b61015561011a36600461061f565b6000908152600160205260409020600201547401000000000000000000000000000000000000000090046bffffffffffffffffffffffff1690565b6040516bffffffffffffffffffffffff9091168152602001610103565b6000546100e29073ffffffffffffffffffffffffffffffffffffffff1681565b6101cf6101a036600461061f565b600090815260016020526040902060020154700100000000000000000000000000000000900463ffffffff1690565b60405163ffffffff9091168152602001610103565b6101f76101f2366004610638565b610412565b005b61021b61020736600461061f565b600090815260016020526040902054151590565b6040519015158152602001610103565b61031061023936600461061f565b6040805160a08101825260008082526020820181905291810182905260608101829052608081019190915250600090815260016020818152604092839020835160a081018552815481529281015473ffffffffffffffffffffffffffffffffffffffff1691830191909152600201546fffffffffffffffffffffffffffffffff811692820192909252700100000000000000000000000000000000820463ffffffff166060820152740100000000000000000000000000000000000000009091046bffffffffffffffffffffffff16608082015290565b6040516101039190600060a0820190508251825273ffffffffffffffffffffffffffffffffffffffff60208401511660208301526fffffffffffffffffffffffffffffffff604084015116604083015263ffffffff60608401511660608301526bffffffffffffffffffffffff608084015116608083015292915050565b6103c361039c36600461061f565b6000908152600160205260409020600201546fffffffffffffffffffffffffffffffff1690565b6040516fffffffffffffffffffffffffffffffff9091168152602001610103565b6104046103f236600461061f565b60009081526001602052604090205490565b604051908152602001610103565b61041a610521565b6040805160a08101825242815273ffffffffffffffffffffffffffffffffffffffff95861660208083019182526fffffffffffffffffffffffffffffffff96871683850190815263ffffffff968716606085019081526bffffffffffffffffffffffff9687166080860190815260009b8c5260019384905295909a2093518455915190830180549189167fffffffffffffffffffffffff0000000000000000000000000000000000000000928316179055905160029092018054985193519094167401000000000000000000000000000000000000000002929094167001000000000000000000000000000000000296909316929093169190911793909317909116179055565b6000546040517f1627905500000000000000000000000000000000000000000000000000000000815233600482015273ffffffffffffffffffffffffffffffffffffffff90911690631627905590602401602060405180830381865afa15801561058f573d6000803e3d6000fd5b505050506040513d601f19601f820116820180604052508101906105b391906106e8565b61061d576040517f08c379a000000000000000000000000000000000000000000000000000000000815260206004820181905260248201527f466e2063616e206f6e6c792062652063616c6c65642062792074686520687562604482015260640160405180910390fd5b565b60006020828403121561063157600080fd5b5035919050565b600080600080600060a0868803121561065057600080fd5b85359450602086013573ffffffffffffffffffffffffffffffffffffffff8116811461067b57600080fd5b935060408601356fffffffffffffffffffffffffffffffff811681146106a057600080fd5b9250606086013563ffffffff811681146106b957600080fd5b915060808601356bffffffffffffffffffffffff811681146106da57600080fd5b809150509295509295909350565b6000602082840312156106fa57600080fd5b8151801515811461070a57600080fd5b939250505056fea2646970667358221220249bb042ab1e4e7733f5c30721d29da4c2c4aef7862f1da3f444171737a08c9f64736f6c634300080e0033",
  "immutableReferences": {},
  "source": "// SPDX-License-Identifier: MIT\n\npragma solidity ^0.8.0;\n\nimport { Hub } from \"../Hub.sol\";\nimport { AssertionStructs } from \"../structs/AssertionStructs.sol\";\n\ncontract AssertionStorage {\n\n\tHub public hub;\n\n\t// assertionId => Assertion\n\tmapping(bytes32 => AssertionStructs.Assertion) assertions;\n\n\tconstructor(address hubAddress) {\n\t\trequire(hubAddress != address(0));\n\n\t\thub = Hub(hubAddress);\n\t}\n\n\tmodifier onlyContracts() {\n        _checkHub();\n        _;\n    }\n\n\tfunction createAssertion(\n\t\tbytes32 assertionId,\n\t\taddress issuer,\n\t\tuint128 size,\n\t\tuint32 triplesNumber,\n\t\tuint96 chunksNumber\n\t)\n\t\texternal\n\t\tonlyContracts\n\t{\n        assertions[assertionId] = AssertionStructs.Assertion({\n            timestamp: block.timestamp,\n            issuer: issuer,\n            size: size,\n            triplesNumber: triplesNumber,\n            chunksNumber: chunksNumber\n        });\n\t}\n\n    function getAssertion(bytes32 assertionId) external view returns (AssertionStructs.Assertion memory) {\n        return assertions[assertionId];\n    }\n\n    function getAssertionTimestamp(bytes32 assertionId) external view returns (uint256) {\n        return assertions[assertionId].timestamp;\n    }\n\n    function getAssertionIssuer(bytes32 assertionId) external view returns (address) {\n        return assertions[assertionId].issuer;\n    }\n\n    function getAssertionSize(bytes32 assertionId) external view returns (uint128) {\n        return assertions[assertionId].size;\n    }\n\n    function getAssertionTriplesNumber(bytes32 assertionId) external view returns (uint32) {\n        return assertions[assertionId].triplesNumber;\n    }\n\n    function getAssertionChunksNumber(bytes32 assertionId) external view returns (uint96) {\n        return assertions[assertionId].chunksNumber;\n    }\n\n    function assertionExists(bytes32 assertionId) external view returns (bool) {\n        return assertions[assertionId].timestamp != 0;\n    }\n\n\tfunction _checkHub() internal view virtual {\n        require(hub.isContract(msg.sender), \"Fn can only be called by the hub\");\n    }\n\n}\n",
  "sourcePath": "/Users/waving/Desktop/OriginTrail/dkg-evm-module/contracts/storage/AssertionStorage.sol",
  "compiler": {
    "name": "solc",
    "version": "0.8.14+commit.80d49f37.Emscripten.clang"
  },
  "schemaVersion": "3.4.10",
  "updatedAt": "2022-12-02T20:40:59.654Z",
  "devdoc": {
    "kind": "dev",
    "methods": {},
    "version": 1
  },
  "userdoc": {
    "kind": "user",
    "methods": {},
    "version": 1
  }
}