{
  "contractName": "AssertionRegistry",
  "abi": [
    {
      "inputs": [
        {
          "internalType": "address",
          "name": "hubAddress",
          "type": "address"
        }
      ],
      "stateMutability": "nonpayable",
      "type": "constructor"
    },
    {
      "anonymous": false,
      "inputs": [
        {
          "indexed": true,
          "internalType": "bytes32",
          "name": "assertionId",
          "type": "bytes32"
        },
        {
          "indexed": false,
          "internalType": "address",
          "name": "issuer",
          "type": "address"
        },
        {
          "indexed": false,
          "internalType": "uint128",
          "name": "size",
          "type": "uint128"
        },
        {
          "indexed": false,
          "internalType": "uint32",
          "name": "triplesNumber",
          "type": "uint32"
        },
        {
          "indexed": false,
          "internalType": "uint96",
          "name": "chunksNumber",
          "type": "uint96"
        }
      ],
      "name": "AssertionCreated",
      "type": "event"
    },
    {
      "anonymous": false,
      "inputs": [
        {
          "indexed": true,
          "internalType": "address",
          "name": "previousOwner",
          "type": "address"
        },
        {
          "indexed": true,
          "internalType": "address",
          "name": "newOwner",
          "type": "address"
        }
      ],
      "name": "OwnershipTransferred",
      "type": "event"
    },
    {
      "inputs": [],
      "name": "hub",
      "outputs": [
        {
          "internalType": "contract Hub",
          "name": "",
          "type": "address"
        }
      ],
      "stateMutability": "view",
      "type": "function"
    },
    {
      "inputs": [],
      "name": "owner",
      "outputs": [
        {
          "internalType": "address",
          "name": "",
          "type": "address"
        }
      ],
      "stateMutability": "view",
      "type": "function"
    },
    {
      "inputs": [],
      "name": "renounceOwnership",
      "outputs": [],
      "stateMutability": "nonpayable",
      "type": "function"
    },
    {
      "inputs": [
        {
          "internalType": "address",
          "name": "newOwner",
          "type": "address"
        }
      ],
      "name": "transferOwnership",
      "outputs": [],
      "stateMutability": "nonpayable",
      "type": "function"
    },
    {
      "inputs": [
        {
          "internalType": "bytes32",
          "name": "assertionId",
          "type": "bytes32"
        },
        {
          "internalType": "address",
          "name": "issuer",
          "type": "address"
        },
        {
          "internalType": "uint128",
          "name": "size",
          "type": "uint128"
        },
        {
          "internalType": "uint32",
          "name": "triplesNumber",
          "type": "uint32"
        },
        {
          "internalType": "uint96",
          "name": "chunksNumber",
          "type": "uint96"
        }
      ],
      "name": "createAssertionRecord",
      "outputs": [],
      "stateMutability": "nonpayable",
      "type": "function"
    },
    {
      "inputs": [
        {
          "internalType": "bytes32",
          "name": "assertionId",
          "type": "bytes32"
        }
      ],
      "name": "getIssuer",
      "outputs": [
        {
          "internalType": "address",
          "name": "",
          "type": "address"
        }
      ],
      "stateMutability": "view",
      "type": "function"
    },
    {
      "inputs": [
        {
          "internalType": "bytes32",
          "name": "assertionId",
          "type": "bytes32"
        }
      ],
      "name": "getTimestamp",
      "outputs": [
        {
          "internalType": "uint256",
          "name": "",
          "type": "uint256"
        }
      ],
      "stateMutability": "view",
      "type": "function"
    },
    {
      "inputs": [
        {
          "internalType": "bytes32",
          "name": "assertionId",
          "type": "bytes32"
        }
      ],
      "name": "getSize",
      "outputs": [
        {
          "internalType": "uint128",
          "name": "",
          "type": "uint128"
        }
      ],
      "stateMutability": "view",
      "type": "function"
    },
    {
      "inputs": [
        {
          "internalType": "bytes32",
          "name": "assertionId",
          "type": "bytes32"
        }
      ],
      "name": "getTriplesNumber",
      "outputs": [
        {
          "internalType": "uint32",
          "name": "",
          "type": "uint32"
        }
      ],
      "stateMutability": "view",
      "type": "function"
    },
    {
      "inputs": [
        {
          "internalType": "bytes32",
          "name": "assertionId",
          "type": "bytes32"
        }
      ],
      "name": "getChunksNumber",
      "outputs": [
        {
          "internalType": "uint96",
          "name": "",
          "type": "uint96"
        }
      ],
      "stateMutability": "view",
      "type": "function"
    }
  ],
  "bytecode": "0x60806040523480156200001157600080fd5b50604051620012313803806200123183398181016040528101906200003791906200020f565b620000576200004b620000d960201b60201c565b620000e160201b60201c565b600073ffffffffffffffffffffffffffffffffffffffff168173ffffffffffffffffffffffffffffffffffffffff16036200009157600080fd5b80600160006101000a81548173ffffffffffffffffffffffffffffffffffffffff021916908373ffffffffffffffffffffffffffffffffffffffff1602179055505062000241565b600033905090565b60008060009054906101000a900473ffffffffffffffffffffffffffffffffffffffff169050816000806101000a81548173ffffffffffffffffffffffffffffffffffffffff021916908373ffffffffffffffffffffffffffffffffffffffff1602179055508173ffffffffffffffffffffffffffffffffffffffff168173ffffffffffffffffffffffffffffffffffffffff167f8be0079c531659141344cd1fd0a4f28419497f9722a3daafe3b4186f6b6457e060405160405180910390a35050565b600080fd5b600073ffffffffffffffffffffffffffffffffffffffff82169050919050565b6000620001d782620001aa565b9050919050565b620001e981620001ca565b8114620001f557600080fd5b50565b6000815190506200020981620001de565b92915050565b600060208284031215620002285762000227620001a5565b5b60006200023884828501620001f8565b91505092915050565b610fe080620002516000396000f3fe608060405234801561001057600080fd5b506004361061009e5760003560e01c8063798d5f2811610066578063798d5f281461015b5780638da5cb5b14610177578063d45c443514610195578063ec82e3a7146101c5578063f2fde38b146101f55761009e565b80632341c963146100a3578063365a86fc146100d35780633ec6dac2146100f15780634883075814610121578063715018a614610151575b600080fd5b6100bd60048036038101906100b891906108ca565b610211565b6040516100ca9190610938565b60405180910390f35b6100db610251565b6040516100e891906109b2565b60405180910390f35b61010b600480360381019061010691906108ca565b610277565b60405161011891906109f8565b60405180910390f35b61013b600480360381019061013691906108ca565b6102b3565b6040516101489190610a32565b60405180910390f35b6101596102e3565b005b61017560048036038101906101709190610b15565b6102f7565b005b61017f610641565b60405161018c9190610938565b60405180910390f35b6101af60048036038101906101aa91906108ca565b61066a565b6040516101bc9190610ba9565b60405180910390f35b6101df60048036038101906101da91906108ca565b61068a565b6040516101ec9190610bd3565b60405180910390f35b61020f600480360381019061020a9190610bee565b6106c2565b005b60006002600083815260200190815260200160002060010160009054906101000a900473ffffffffffffffffffffffffffffffffffffffff169050919050565b600160009054906101000a900473ffffffffffffffffffffffffffffffffffffffff1681565b60006002600083815260200190815260200160002060020160009054906101000a90046fffffffffffffffffffffffffffffffff169050919050565b60006002600083815260200190815260200160002060020160109054906101000a900463ffffffff169050919050565b6102eb610745565b6102f560006107c3565b565b600160009054906101000a900473ffffffffffffffffffffffffffffffffffffffff1673ffffffffffffffffffffffffffffffffffffffff16638d5d2d85336040518263ffffffff1660e01b81526004016103529190610938565b602060405180830381865afa15801561036f573d6000803e3d6000fd5b505050506040513d601f19601f820116820180604052508101906103939190610c53565b6103d2576040517f08c379a00000000000000000000000000000000000000000000000000000000081526004016103c990610d03565b60405180910390fd5b6000801b8503610417576040517f08c379a000000000000000000000000000000000000000000000000000000000815260040161040e90610d6f565b60405180910390fd5b6000836fffffffffffffffffffffffffffffffff160361046c576040517f08c379a000000000000000000000000000000000000000000000000000000000815260040161046390610ddb565b60405180910390fd5b60006002600087815260200190815260200160002060000154146104c5576040517f08c379a00000000000000000000000000000000000000000000000000000000081526004016104bc90610e47565b60405180910390fd5b426002600087815260200190815260200160002060000181905550836002600087815260200190815260200160002060010160006101000a81548173ffffffffffffffffffffffffffffffffffffffff021916908373ffffffffffffffffffffffffffffffffffffffff160217905550826002600087815260200190815260200160002060020160006101000a8154816fffffffffffffffffffffffffffffffff02191690836fffffffffffffffffffffffffffffffff160217905550816002600087815260200190815260200160002060020160106101000a81548163ffffffff021916908363ffffffff160217905550806002600087815260200190815260200160002060020160146101000a8154816bffffffffffffffffffffffff02191690836bffffffffffffffffffffffff160217905550847fe0abc42b99f2943708059678140f1c02c6ca3ad0c5f46e7030d30c17b4ad5638858585856040516106329493929190610e67565b60405180910390a25050505050565b60008060009054906101000a900473ffffffffffffffffffffffffffffffffffffffff16905090565b600060026000838152602001908152602001600020600001549050919050565b60006002600083815260200190815260200160002060020160149054906101000a90046bffffffffffffffffffffffff169050919050565b6106ca610745565b600073ffffffffffffffffffffffffffffffffffffffff168173ffffffffffffffffffffffffffffffffffffffff1603610739576040517f08c379a000000000000000000000000000000000000000000000000000000000815260040161073090610f1e565b60405180910390fd5b610742816107c3565b50565b61074d610887565b73ffffffffffffffffffffffffffffffffffffffff1661076b610641565b73ffffffffffffffffffffffffffffffffffffffff16146107c1576040517f08c379a00000000000000000000000000000000000000000000000000000000081526004016107b890610f8a565b60405180910390fd5b565b60008060009054906101000a900473ffffffffffffffffffffffffffffffffffffffff169050816000806101000a81548173ffffffffffffffffffffffffffffffffffffffff021916908373ffffffffffffffffffffffffffffffffffffffff1602179055508173ffffffffffffffffffffffffffffffffffffffff168173ffffffffffffffffffffffffffffffffffffffff167f8be0079c531659141344cd1fd0a4f28419497f9722a3daafe3b4186f6b6457e060405160405180910390a35050565b600033905090565b600080fd5b6000819050919050565b6108a781610894565b81146108b257600080fd5b50565b6000813590506108c48161089e565b92915050565b6000602082840312156108e0576108df61088f565b5b60006108ee848285016108b5565b91505092915050565b600073ffffffffffffffffffffffffffffffffffffffff82169050919050565b6000610922826108f7565b9050919050565b61093281610917565b82525050565b600060208201905061094d6000830184610929565b92915050565b6000819050919050565b600061097861097361096e846108f7565b610953565b6108f7565b9050919050565b600061098a8261095d565b9050919050565b600061099c8261097f565b9050919050565b6109ac81610991565b82525050565b60006020820190506109c760008301846109a3565b92915050565b60006fffffffffffffffffffffffffffffffff82169050919050565b6109f2816109cd565b82525050565b6000602082019050610a0d60008301846109e9565b92915050565b600063ffffffff82169050919050565b610a2c81610a13565b82525050565b6000602082019050610a476000830184610a23565b92915050565b610a5681610917565b8114610a6157600080fd5b50565b600081359050610a7381610a4d565b92915050565b610a82816109cd565b8114610a8d57600080fd5b50565b600081359050610a9f81610a79565b92915050565b610aae81610a13565b8114610ab957600080fd5b50565b600081359050610acb81610aa5565b92915050565b60006bffffffffffffffffffffffff82169050919050565b610af281610ad1565b8114610afd57600080fd5b50565b600081359050610b0f81610ae9565b92915050565b600080600080600060a08688031215610b3157610b3061088f565b5b6000610b3f888289016108b5565b9550506020610b5088828901610a64565b9450506040610b6188828901610a90565b9350506060610b7288828901610abc565b9250506080610b8388828901610b00565b9150509295509295909350565b6000819050919050565b610ba381610b90565b82525050565b6000602082019050610bbe6000830184610b9a565b92915050565b610bcd81610ad1565b82525050565b6000602082019050610be86000830184610bc4565b92915050565b600060208284031215610c0457610c0361088f565b5b6000610c1284828501610a64565b91505092915050565b60008115159050919050565b610c3081610c1b565b8114610c3b57600080fd5b50565b600081519050610c4d81610c27565b92915050565b600060208284031215610c6957610c6861088f565b5b6000610c7784828501610c3e565b91505092915050565b600082825260208201905092915050565b7f46756e6374696f6e2063616e206f6e6c792062652063616c6c6564206279204160008201527f73736574205479706520436f6e74726163747321000000000000000000000000602082015250565b6000610ced603483610c80565b9150610cf882610c91565b604082019050919050565b60006020820190508181036000830152610d1c81610ce0565b9050919050565b7f617373657274696f6e49642063616e6e6f74206265207a65726f000000000000600082015250565b6000610d59601a83610c80565b9150610d6482610d23565b602082019050919050565b60006020820190508181036000830152610d8881610d4c565b9050919050565b7f73697a652063616e6e6f74206265207a65726f00000000000000000000000000600082015250565b6000610dc5601383610c80565b9150610dd082610d8f565b602082019050919050565b60006020820190508181036000830152610df481610db8565b9050919050565b7f417373657274696f6e20616c7265616479206578697374730000000000000000600082015250565b6000610e31601883610c80565b9150610e3c82610dfb565b602082019050919050565b60006020820190508181036000830152610e6081610e24565b9050919050565b6000608082019050610e7c6000830187610929565b610e8960208301866109e9565b610e966040830185610a23565b610ea36060830184610bc4565b95945050505050565b7f4f776e61626c653a206e6577206f776e657220697320746865207a65726f206160008201527f6464726573730000000000000000000000000000000000000000000000000000602082015250565b6000610f08602683610c80565b9150610f1382610eac565b604082019050919050565b60006020820190508181036000830152610f3781610efb565b9050919050565b7f4f776e61626c653a2063616c6c6572206973206e6f7420746865206f776e6572600082015250565b6000610f74602083610c80565b9150610f7f82610f3e565b602082019050919050565b60006020820190508181036000830152610fa381610f67565b905091905056fea2646970667358221220e741b1b948be0c3501cea471cd6ac9e64a791c0564b9917205edf12109380f9964736f6c634300080e0033",
  "immutableReferences": {},
  "source": "// SPDX-License-Identifier: MIT\n\npragma solidity ^0.8.0;\n\nimport { Hub } from \"./Hub.sol\";\nimport { Ownable } from \"@openzeppelin/contracts/access/Ownable.sol\";\n\ncontract AssertionRegistry is Ownable {\n\tevent AssertionCreated(\n\t\tbytes32 indexed assertionId, address issuer, uint128 size, uint32 triplesNumber, uint96 chunksNumber\n\t);\n\n\tHub public hub;\n\n\t// TODO: Optimize storage usage\n\tstruct AssertionRecord{\n\t\tuint256 timestamp;\n\t\taddress issuer;\n\t\tuint128 size;\n\t\tuint32 triplesNumber;\n\t\tuint96 chunksNumber;\n\t}\n\n\tmapping(bytes32 => AssertionRecord) internal assertionRecords;\n\n\tconstructor(address hubAddress) {\n\t\trequire(hubAddress != address(0));\n\t\thub = Hub(hubAddress);\n\t}\n\n\tmodifier onlyAssetContracts() {\n        require (\n            hub.isAssetContract(msg.sender),\n            \"Function can only be called by Asset Type Contracts!\"\n        );\n        _;\n    }\n\n\tfunction createAssertionRecord(\n\t\tbytes32 assertionId,\n\t\taddress issuer,\n\t\tuint128 size,\n\t\tuint32 triplesNumber,\n\t\tuint96 chunksNumber\n\t)\n\t\tpublic\n\t\tonlyAssetContracts\n\t{\n\t\trequire(assertionId != 0, \"assertionId cannot be zero\");\n\t\trequire(size != 0, \"size cannot be zero\");\n\t\trequire(assertionRecords[assertionId].timestamp == 0, \"Assertion already exists\");\n\n\t\tassertionRecords[assertionId].timestamp = block.timestamp;\n\t\tassertionRecords[assertionId].issuer = issuer;\n\t\tassertionRecords[assertionId].size = size;\n\t\tassertionRecords[assertionId].triplesNumber = triplesNumber;\n\t\tassertionRecords[assertionId].chunksNumber = chunksNumber;\n\n\t\temit AssertionCreated(assertionId, issuer, size, triplesNumber, chunksNumber);\n\t}\n\n\tfunction getIssuer(bytes32 assertionId)\n\t\tpublic\n\t\tview\n\t\treturns(address)\n\t{\n\t\treturn assertionRecords[assertionId].issuer;\n\t}\n\n\tfunction getTimestamp(bytes32 assertionId)\n\t\tpublic\n\t\tview\n\t\treturns(uint256)\n\t{\n\t\treturn assertionRecords[assertionId].timestamp;\n\t}\n\n\tfunction getSize(bytes32 assertionId)\n\t\tpublic\n\t\tview\n\t\treturns (uint128)\n\t{\n\t\treturn assertionRecords[assertionId].size;\n\t}\n\n\tfunction getTriplesNumber(bytes32 assertionId)\n\t\tpublic\n\t\tview\n\t\treturns (uint32)\n\t{\n\t\treturn assertionRecords[assertionId].triplesNumber;\n\t}\n\n\tfunction getChunksNumber(bytes32 assertionId)\n\t\tpublic\n\t\tview\n\t\treturns (uint96)\n\t{\n\t\treturn assertionRecords[assertionId].chunksNumber;\n\t}\n}",
  "sourcePath": "/Users/waving/Desktop/OriginTrail/dkg-evm-module/contracts/AssertionRegistry.sol",
  "compiler": {
    "name": "solc",
    "version": "0.8.14+commit.80d49f37.Emscripten.clang"
  },
  "schemaVersion": "3.4.10",
  "updatedAt": "2022-11-21T10:31:02.455Z",
  "devdoc": {
    "kind": "dev",
    "methods": {
      "owner()": {
        "details": "Returns the address of the current owner."
      },
      "renounceOwnership()": {
        "details": "Leaves the contract without owner. It will not be possible to call `onlyOwner` functions anymore. Can only be called by the current owner. NOTE: Renouncing ownership will leave the contract without an owner, thereby removing any functionality that is only available to the owner."
      },
      "transferOwnership(address)": {
        "details": "Transfers ownership of the contract to a new account (`newOwner`). Can only be called by the current owner."
      }
    },
    "version": 1
  },
  "userdoc": {
    "kind": "user",
    "methods": {},
    "version": 1
  }
}