{
  "contractName": "AssetRegistry",
  "abi": [
    {
      "inputs": [
        {
          "internalType": "address",
          "name": "hubAddress",
          "type": "address"
        }
      ],
      "stateMutability": "nonpayable",
      "type": "constructor"
    },
    {
      "anonymous": false,
      "inputs": [
        {
          "indexed": true,
          "internalType": "uint256",
          "name": "UAI",
          "type": "uint256"
        },
        {
          "indexed": true,
          "internalType": "bytes32",
          "name": "stateCommitHash",
          "type": "bytes32"
        }
      ],
      "name": "AssetCreated",
      "type": "event"
    },
    {
      "anonymous": false,
      "inputs": [
        {
          "indexed": true,
          "internalType": "uint256",
          "name": "UAI",
          "type": "uint256"
        },
        {
          "indexed": true,
          "internalType": "bytes32",
          "name": "stateCommitHash",
          "type": "bytes32"
        }
      ],
      "name": "AssetUpdated",
      "type": "event"
    },
    {
      "anonymous": false,
      "inputs": [
        {
          "indexed": true,
          "internalType": "address",
          "name": "previousOwner",
          "type": "address"
        },
        {
          "indexed": true,
          "internalType": "address",
          "name": "newOwner",
          "type": "address"
        }
      ],
      "name": "OwnershipTransferred",
      "type": "event"
    },
    {
      "anonymous": false,
      "inputs": [
        {
          "indexed": true,
          "internalType": "bytes32",
          "name": "UAI",
          "type": "bytes32"
        },
        {
          "indexed": true,
          "internalType": "uint256",
          "name": "amount",
          "type": "uint256"
        },
        {
          "indexed": true,
          "internalType": "address",
          "name": "depositor",
          "type": "address"
        }
      ],
      "name": "TokensDepositedToAsset",
      "type": "event"
    },
    {
      "inputs": [
        {
          "internalType": "uint256",
          "name": "",
          "type": "uint256"
        }
      ],
      "name": "assetRecords",
      "outputs": [
        {
          "internalType": "uint256",
          "name": "timestamp",
          "type": "uint256"
        },
        {
          "internalType": "uint256",
          "name": "holdingTimeInYears",
          "type": "uint256"
        },
        {
          "internalType": "uint256",
          "name": "assetStake",
          "type": "uint256"
        },
        {
          "internalType": "uint256",
          "name": "priceLimit",
          "type": "uint256"
        }
      ],
      "stateMutability": "view",
      "type": "function"
    },
    {
      "inputs": [
        {
          "internalType": "bytes32",
          "name": "",
          "type": "bytes32"
        }
      ],
      "name": "assetStake",
      "outputs": [
        {
          "internalType": "uint256",
          "name": "",
          "type": "uint256"
        }
      ],
      "stateMutability": "view",
      "type": "function"
    },
    {
      "inputs": [],
      "name": "hub",
      "outputs": [
        {
          "internalType": "contract Hub",
          "name": "",
          "type": "address"
        }
      ],
      "stateMutability": "view",
      "type": "function"
    },
    {
      "inputs": [],
      "name": "owner",
      "outputs": [
        {
          "internalType": "address",
          "name": "",
          "type": "address"
        }
      ],
      "stateMutability": "view",
      "type": "function"
    },
    {
      "inputs": [],
      "name": "renounceOwnership",
      "outputs": [],
      "stateMutability": "nonpayable",
      "type": "function"
    },
    {
      "inputs": [
        {
          "internalType": "address",
          "name": "newOwner",
          "type": "address"
        }
      ],
      "name": "transferOwnership",
      "outputs": [],
      "stateMutability": "nonpayable",
      "type": "function"
    },
    {
      "inputs": [
        {
          "internalType": "bytes32",
          "name": "assertionId",
          "type": "bytes32"
        },
        {
          "internalType": "uint256",
          "name": "size",
          "type": "uint256"
        },
        {
          "internalType": "uint256",
          "name": "visibility",
          "type": "uint256"
        },
        {
          "internalType": "uint256",
          "name": "holdingTimeInYears",
          "type": "uint256"
        },
        {
          "internalType": "uint256",
          "name": "tokenAmount",
          "type": "uint256"
        }
      ],
      "name": "createAsset",
      "outputs": [
        {
          "internalType": "uint256",
          "name": "_UAI",
          "type": "uint256"
        }
      ],
      "stateMutability": "nonpayable",
      "type": "function"
    },
    {
      "inputs": [
        {
          "internalType": "uint256",
          "name": "UAI",
          "type": "uint256"
        },
        {
          "internalType": "bytes32",
          "name": "assertionId",
          "type": "bytes32"
        },
        {
          "internalType": "uint256",
          "name": "size",
          "type": "uint256"
        },
        {
          "internalType": "uint256",
          "name": "visibility",
          "type": "uint256"
        },
        {
          "internalType": "uint256",
          "name": "tokenAmount",
          "type": "uint256"
        }
      ],
      "name": "updateAsset",
      "outputs": [],
      "stateMutability": "nonpayable",
      "type": "function"
    },
    {
      "inputs": [
        {
          "internalType": "uint256",
          "name": "blockNumber",
          "type": "uint256"
        },
        {
          "internalType": "uint256",
          "name": "numberOfEpochs",
          "type": "uint256"
        },
        {
          "internalType": "uint256",
          "name": "blockTime",
          "type": "uint256"
        },
        {
          "internalType": "uint256",
          "name": "holdingTimeInYears",
          "type": "uint256"
        }
      ],
      "name": "generateEpochs",
      "outputs": [
        {
          "internalType": "uint256[]",
          "name": "",
          "type": "uint256[]"
        }
      ],
      "stateMutability": "pure",
      "type": "function"
    },
    {
      "inputs": [
        {
          "internalType": "uint256",
          "name": "UAI",
          "type": "uint256"
        },
        {
          "internalType": "uint256",
          "name": "offset",
          "type": "uint256"
        }
      ],
      "name": "getCommitHash",
      "outputs": [
        {
          "internalType": "bytes32",
          "name": "commitHash",
          "type": "bytes32"
        }
      ],
      "stateMutability": "view",
      "type": "function"
    },
    {
      "inputs": [
        {
          "internalType": "uint256",
          "name": "UAI",
          "type": "uint256"
        }
      ],
      "name": "getAssetOwner",
      "outputs": [
        {
          "internalType": "address",
          "name": "owner",
          "type": "address"
        }
      ],
      "stateMutability": "view",
      "type": "function"
    },
    {
      "inputs": [
        {
          "internalType": "uint256",
          "name": "UAI",
          "type": "uint256"
        }
      ],
      "name": "getAssetTimestamp",
      "outputs": [
        {
          "internalType": "uint256",
          "name": "timestamp",
          "type": "uint256"
        }
      ],
      "stateMutability": "view",
      "type": "function"
    },
    {
      "inputs": [],
      "name": "getNumberOfEpochs",
      "outputs": [
        {
          "internalType": "uint256",
          "name": "",
          "type": "uint256"
        }
      ],
      "stateMutability": "view",
      "type": "function"
    },
    {
      "inputs": [
        {
          "internalType": "uint256",
          "name": "numberOfEpochs",
          "type": "uint256"
        }
      ],
      "name": "setNumberOfEpochs",
      "outputs": [],
      "stateMutability": "nonpayable",
      "type": "function"
    },
    {
      "inputs": [],
      "name": "getBlockTime",
      "outputs": [
        {
          "internalType": "uint256",
          "name": "",
          "type": "uint256"
        }
      ],
      "stateMutability": "view",
      "type": "function"
    },
    {
      "inputs": [
        {
          "internalType": "uint256",
          "name": "blockTime",
          "type": "uint256"
        }
      ],
      "name": "setBlockTime",
      "outputs": [],
      "stateMutability": "nonpayable",
      "type": "function"
    },
    {
      "inputs": [],
      "name": "getNumberOfHolders",
      "outputs": [
        {
          "internalType": "uint256",
          "name": "",
          "type": "uint256"
        }
      ],
      "stateMutability": "view",
      "type": "function"
    },
    {
      "inputs": [
        {
          "internalType": "uint256",
          "name": "numberOfHolders",
          "type": "uint256"
        }
      ],
      "name": "setNumberOfHolders",
      "outputs": [],
      "stateMutability": "nonpayable",
      "type": "function"
    },
    {
      "inputs": [],
      "name": "getEpochValidityInBlocks",
      "outputs": [
        {
          "internalType": "uint256",
          "name": "",
          "type": "uint256"
        }
      ],
      "stateMutability": "view",
      "type": "function"
    },
    {
      "inputs": [
        {
          "internalType": "uint256",
          "name": "epochValidityInBlocks",
          "type": "uint256"
        }
      ],
      "name": "setEpochValidityInBlocks",
      "outputs": [],
      "stateMutability": "nonpayable",
      "type": "function"
    }
  ],
  "bytecode": "0x60806040523480156200001157600080fd5b50604051620034063803806200340683398181016040528101906200003791906200061c565b620000576200004b620004e660201b60201c565b620004ee60201b60201c565b600073ffffffffffffffffffffffffffffffffffffffff168173ffffffffffffffffffffffffffffffffffffffff16036200009157600080fd5b80600160006101000a81548173ffffffffffffffffffffffffffffffffffffffff021916908373ffffffffffffffffffffffffffffffffffffffff1602179055506000600460008060f81b7effffffffffffffffffffffffffffffffffffffffffffffffffffffffffffff1916815260200190815260200160002081905550600160046000600160f81b7effffffffffffffffffffffffffffffffffffffffffffffffffffffffffffff1916815260200190815260200160002081905550600160046000600260f81b7effffffffffffffffffffffffffffffffffffffffffffffffffffffffffffff1916815260200190815260200160002081905550600260046000600360f81b7effffffffffffffffffffffffffffffffffffffffffffffffffffffffffffff1916815260200190815260200160002081905550600160046000600460f81b7effffffffffffffffffffffffffffffffffffffffffffffffffffffffffffff1916815260200190815260200160002081905550600260046000600560f81b7effffffffffffffffffffffffffffffffffffffffffffffffffffffffffffff1916815260200190815260200160002081905550600260046000600660f81b7effffffffffffffffffffffffffffffffffffffffffffffffffffffffffffff1916815260200190815260200160002081905550600360046000600760f81b7effffffffffffffffffffffffffffffffffffffffffffffffffffffffffffff1916815260200190815260200160002081905550600160046000600860f81b7effffffffffffffffffffffffffffffffffffffffffffffffffffffffffffff1916815260200190815260200160002081905550600260046000600960f81b7effffffffffffffffffffffffffffffffffffffffffffffffffffffffffffff1916815260200190815260200160002081905550600260046000600a60f81b7effffffffffffffffffffffffffffffffffffffffffffffffffffffffffffff1916815260200190815260200160002081905550600360046000600b60f81b7effffffffffffffffffffffffffffffffffffffffffffffffffffffffffffff1916815260200190815260200160002081905550600260046000600c60f81b7effffffffffffffffffffffffffffffffffffffffffffffffffffffffffffff1916815260200190815260200160002081905550600360046000600d60f81b7effffffffffffffffffffffffffffffffffffffffffffffffffffffffffffff1916815260200190815260200160002081905550600360046000600e60f81b7effffffffffffffffffffffffffffffffffffffffffffffffffffffffffffff19168152602001908152602001600020819055506004806000600f60f81b7effffffffffffffffffffffffffffffffffffffffffffffffffffffffffffff191681526020019081526020016000208190555060058081905550600c60078190555060036008819055506014600681905550506200064e565b600033905090565b60008060009054906101000a900473ffffffffffffffffffffffffffffffffffffffff169050816000806101000a81548173ffffffffffffffffffffffffffffffffffffffff021916908373ffffffffffffffffffffffffffffffffffffffff1602179055508173ffffffffffffffffffffffffffffffffffffffff168173ffffffffffffffffffffffffffffffffffffffff167f8be0079c531659141344cd1fd0a4f28419497f9722a3daafe3b4186f6b6457e060405160405180910390a35050565b600080fd5b600073ffffffffffffffffffffffffffffffffffffffff82169050919050565b6000620005e482620005b7565b9050919050565b620005f681620005d7565b81146200060257600080fd5b50565b6000815190506200061681620005eb565b92915050565b600060208284031215620006355762000634620005b2565b5b6000620006458482850162000605565b91505092915050565b612da8806200065e6000396000f3fe608060405234801561001057600080fd5b506004361061012c5760003560e01c80638da5cb5b116100ad578063d9a7a2d511610071578063d9a7a2d514610322578063dffc093e14610352578063eeaf6c7914610382578063f2fde38b1461039e578063fafeba46146103ba5761012c565b80638da5cb5b1461027957806390247808146102975780639f5a9a54146102b5578063a88dc956146102d3578063bc7a5944146103065761012c565b80636ec6be9a116100f45780636ec6be9a146101d5578063715018a614610205578063758b1ce31461020f57806387ceff091461022b5780638d5802e2146102495761012c565b8063089d5b77146101315780631ca5ca4b1461014d578063308feec31461016957806334e5197b14610187578063365a86fc146101b7575b600080fd5b61014b60048036038101906101469190611fcf565b6103ea565b005b61016760048036038101906101629190611fcf565b610470565b005b6101716104f6565b60405161017e919061200b565b60405180910390f35b6101a1600480360381019061019c919061205c565b610500565b6040516101ae919061200b565b60405180910390f35b6101bf610518565b6040516101cc9190612108565b60405180910390f35b6101ef60048036038101906101ea9190612123565b61053e565b6040516101fc9190612248565b60405180910390f35b61020d61064c565b005b61022960048036038101906102249190611fcf565b6106d4565b005b61023361075a565b604051610240919061200b565b60405180910390f35b610263600480360381019061025e9190611fcf565b610764565b604051610270919061228b565b60405180910390f35b610281610880565b60405161028e919061228b565b60405180910390f35b61029f6108a9565b6040516102ac919061200b565b60405180910390f35b6102bd6108b3565b6040516102ca919061200b565b60405180910390f35b6102ed60048036038101906102e89190611fcf565b6108bd565b6040516102fd94939291906122a6565b60405180910390f35b610320600480360381019061031b91906122eb565b6108ed565b005b61033c60048036038101906103379190612366565b610e9c565b604051610349919061200b565b60405180910390f35b61036c600480360381019061036791906123e1565b611a45565b6040516103799190612430565b60405180910390f35b61039c60048036038101906103979190611fcf565b611b0d565b005b6103b860048036038101906103b39190612477565b611b93565b005b6103d460048036038101906103cf9190611fcf565b611c8a565b6040516103e1919061200b565b60405180910390f35b6103f2611caa565b73ffffffffffffffffffffffffffffffffffffffff16610410610880565b73ffffffffffffffffffffffffffffffffffffffff1614610466576040517f08c379a000000000000000000000000000000000000000000000000000000000815260040161045d90612501565b60405180910390fd5b8060068190555050565b610478611caa565b73ffffffffffffffffffffffffffffffffffffffff16610496610880565b73ffffffffffffffffffffffffffffffffffffffff16146104ec576040517f08c379a00000000000000000000000000000000000000000000000000000000081526004016104e390612501565b60405180910390fd5b8060058190555050565b6000600854905090565b60036020528060005260406000206000915090505481565b600160009054906101000a900473ffffffffffffffffffffffffffffffffffffffff1681565b6060600060018561054f9190612550565b67ffffffffffffffff811115610568576105676125a6565b5b6040519080825280602002602001820160405280156105965781602001602082028036833780820191505090505b50905060005b6001866105a99190612550565b81101561063f578585603c80601861016d89876105c691906125d5565b6105d091906125d5565b6105da91906125d5565b6105e491906125d5565b6105ee91906125d5565b6105f8919061265e565b610602919061265e565b8761060d9190612550565b8282815181106106205761061f61268f565b5b6020026020010181815250508080610637906126be565b91505061059c565b5080915050949350505050565b610654611caa565b73ffffffffffffffffffffffffffffffffffffffff16610672610880565b73ffffffffffffffffffffffffffffffffffffffff16146106c8576040517f08c379a00000000000000000000000000000000000000000000000000000000081526004016106bf90612501565b60405180910390fd5b6106d26000611cb2565b565b6106dc611caa565b73ffffffffffffffffffffffffffffffffffffffff166106fa610880565b73ffffffffffffffffffffffffffffffffffffffff1614610750576040517f08c379a000000000000000000000000000000000000000000000000000000000815260040161074790612501565b60405180910390fd5b8060078190555050565b6000600754905090565b6000600160009054906101000a900473ffffffffffffffffffffffffffffffffffffffff1673ffffffffffffffffffffffffffffffffffffffff166304433bbc6040518163ffffffff1660e01b81526004016107bf90612752565b602060405180830381865afa1580156107dc573d6000803e3d6000fd5b505050506040513d601f19601f820116820180604052508101906108009190612787565b73ffffffffffffffffffffffffffffffffffffffff16636352211e836040518263ffffffff1660e01b8152600401610838919061200b565b602060405180830381865afa158015610855573d6000803e3d6000fd5b505050506040513d601f19601f820116820180604052508101906108799190612787565b9050919050565b60008060009054906101000a900473ffffffffffffffffffffffffffffffffffffffff16905090565b6000600554905090565b6000600654905090565b60026020528060005260406000206000915090508060000154908060010154908060020154908060050154905084565b6000801b8403610932576040517f08c379a000000000000000000000000000000000000000000000000000000000815260040161092990612800565b60405180910390fd5b6000600160009054906101000a900473ffffffffffffffffffffffffffffffffffffffff1673ffffffffffffffffffffffffffffffffffffffff166304433bbc6040518163ffffffff1660e01b815260040161098d90612752565b602060405180830381865afa1580156109aa573d6000803e3d6000fd5b505050506040513d601f19601f820116820180604052508101906109ce9190612787565b73ffffffffffffffffffffffffffffffffffffffff16636352211e876040518263ffffffff1660e01b8152600401610a06919061200b565b602060405180830381865afa158015610a23573d6000803e3d6000fd5b505050506040513d601f19601f82011682018060405250810190610a479190612787565b90503373ffffffffffffffffffffffffffffffffffffffff168173ffffffffffffffffffffffffffffffffffffffff1614610ab7576040517f08c379a0000000000000000000000000000000000000000000000000000000008152600401610aae9061286c565b60405180910390fd5b6000600160009054906101000a900473ffffffffffffffffffffffffffffffffffffffff1673ffffffffffffffffffffffffffffffffffffffff166304433bbc6040518163ffffffff1660e01b8152600401610b12906128d8565b602060405180830381865afa158015610b2f573d6000803e3d6000fd5b505050506040513d601f19601f82011682018060405250810190610b539190612787565b73ffffffffffffffffffffffffffffffffffffffff1663d45c4435876040518263ffffffff1660e01b8152600401610b8b9190612430565b602060405180830381865afa158015610ba8573d6000803e3d6000fd5b505050506040513d601f19601f82011682018060405250810190610bcc919061290d565b03610cdc57600160009054906101000a900473ffffffffffffffffffffffffffffffffffffffff1673ffffffffffffffffffffffffffffffffffffffff166304433bbc6040518163ffffffff1660e01b8152600401610c2a906128d8565b602060405180830381865afa158015610c47573d6000803e3d6000fd5b505050506040513d601f19601f82011682018060405250810190610c6b9190612787565b73ffffffffffffffffffffffffffffffffffffffff16632216f559863387876040518563ffffffff1660e01b8152600401610ca9949392919061293a565b600060405180830381600087803b158015610cc357600080fd5b505af1158015610cd7573d6000803e3d6000fd5b505050505b6000600160009054906101000a900473ffffffffffffffffffffffffffffffffffffffff1673ffffffffffffffffffffffffffffffffffffffff166304433bbc6040518163ffffffff1660e01b8152600401610d37906129cb565b602060405180830381865afa158015610d54573d6000803e3d6000fd5b505050506040513d601f19601f82011682018060405250810190610d789190612787565b90508073ffffffffffffffffffffffffffffffffffffffff166323b872dd3330866040518463ffffffff1660e01b8152600401610db7939291906129eb565b6020604051808303816000875af1158015610dd6573d6000803e3d6000fd5b505050506040513d601f19601f82011682018060405250810190610dfa9190612a5a565b5082600260008981526020019081526020016000206002016000828254610e219190612550565b925050819055506002600088815260200190815260200160002060030186908060018154018082558091505060019003906000526020600020016000909190919091505585877fd8802cf5c11ee22bbcf303218874618686a09bcd94bbb441916d708f3e8b16e360405160405180910390a350505050505050565b60008060001b8603610ee3576040517f08c379a0000000000000000000000000000000000000000000000000000000008152600401610eda90612800565b60405180910390fd5b6000600160009054906101000a900473ffffffffffffffffffffffffffffffffffffffff1673ffffffffffffffffffffffffffffffffffffffff166304433bbc6040518163ffffffff1660e01b8152600401610f3e906129cb565b602060405180830381865afa158015610f5b573d6000803e3d6000fd5b505050506040513d601f19601f82011682018060405250810190610f7f9190612787565b9050828173ffffffffffffffffffffffffffffffffffffffff1663dd62ed3e33306040518363ffffffff1660e01b8152600401610fbd929190612a87565b602060405180830381865afa158015610fda573d6000803e3d6000fd5b505050506040513d601f19601f82011682018060405250810190610ffe919061290d565b101561103f576040517f08c379a000000000000000000000000000000000000000000000000000000000815260040161103690612b22565b60405180910390fd5b828173ffffffffffffffffffffffffffffffffffffffff166370a08231336040518263ffffffff1660e01b8152600401611079919061228b565b602060405180830381865afa158015611096573d6000803e3d6000fd5b505050506040513d601f19601f820116820180604052508101906110ba919061290d565b10156110fb576040517f08c379a00000000000000000000000000000000000000000000000000000000081526004016110f290612bb4565b60405180910390fd5b6000600160009054906101000a900473ffffffffffffffffffffffffffffffffffffffff1673ffffffffffffffffffffffffffffffffffffffff166304433bbc6040518163ffffffff1660e01b815260040161115690612752565b602060405180830381865afa158015611173573d6000803e3d6000fd5b505050506040513d601f19601f820116820180604052508101906111979190612787565b73ffffffffffffffffffffffffffffffffffffffff1663a61788ba336040518263ffffffff1660e01b81526004016111cf919061228b565b6020604051808303816000875af11580156111ee573d6000803e3d6000fd5b505050506040513d601f19601f82011682018060405250810190611212919061290d565b9050600060026000838152602001908152602001600020600001541461126d576040517f08c379a000000000000000000000000000000000000000000000000000000000815260040161126490612c20565b60405180910390fd5b6000600160009054906101000a900473ffffffffffffffffffffffffffffffffffffffff1673ffffffffffffffffffffffffffffffffffffffff166304433bbc6040518163ffffffff1660e01b81526004016112c8906128d8565b602060405180830381865afa1580156112e5573d6000803e3d6000fd5b505050506040513d601f19601f820116820180604052508101906113099190612787565b73ffffffffffffffffffffffffffffffffffffffff1663d45c44358a6040518263ffffffff1660e01b81526004016113419190612430565b602060405180830381865afa15801561135e573d6000803e3d6000fd5b505050506040513d601f19601f82011682018060405250810190611382919061290d565b0361149257600160009054906101000a900473ffffffffffffffffffffffffffffffffffffffff1673ffffffffffffffffffffffffffffffffffffffff166304433bbc6040518163ffffffff1660e01b81526004016113e0906128d8565b602060405180830381865afa1580156113fd573d6000803e3d6000fd5b505050506040513d601f19601f820116820180604052508101906114219190612787565b73ffffffffffffffffffffffffffffffffffffffff16632216f55989338a8a6040518563ffffffff1660e01b815260040161145f949392919061293a565b600060405180830381600087803b15801561147957600080fd5b505af115801561148d573d6000803e3d6000fd5b505050505b8173ffffffffffffffffffffffffffffffffffffffff166323b872dd3330876040518463ffffffff1660e01b81526004016114cf939291906129eb565b6020604051808303816000875af11580156114ee573d6000803e3d6000fd5b505050506040513d601f19601f820116820180604052508101906115129190612a5a565b50836002600083815260200190815260200160002060020160008282546115399190612550565b92505081905550600260008281526020019081526020016000206003018890806001815401808255809150506001900390600052602060002001600090919091909150558460026000838152602001908152602001600020600101819055504260026000838152602001908152602001600020600001819055506115c3436005546007548861053e565b6002600083815260200190815260200160002060040190805190602001906115ec929190611d76565b50600854600554856115fe919061265e565b611608919061265e565b6002600083815260200190815260200160002060050181905550600567ffffffffffffffff81111561163d5761163c6125a6565b5b60405190808252806020026020018201604052801561167057816020015b606081526020019060019003908161165b5790505b5060026000838152602001908152602001600020600601908051906020019061169a929190611dc3565b50600567ffffffffffffffff8111156116b6576116b56125a6565b5b6040519080825280602002602001820160405280156116e957816020015b60608152602001906001900390816116d45790505b50600260008381526020019081526020016000206007019080519060200190611713929190611e23565b50600567ffffffffffffffff81111561172f5761172e6125a6565b5b60405190808252806020026020018201604052801561176257816020015b606081526020019060019003908161174d5790505b5060026000838152602001908152602001600020600801908051906020019061178c929190611e23565b50600567ffffffffffffffff8111156117a8576117a76125a6565b5b6040519080825280602002602001820160405280156117d65781602001602082028036833780820191505090505b50600260008381526020019081526020016000206009019080519060200190611800929190611d76565b5060005b6005811015611a0857600367ffffffffffffffff811115611828576118276125a6565b5b6040519080825280602002602001820160405280156118565781602001602082028036833780820191505090505b5060026000848152602001908152602001600020600601828154811061187f5761187e61268f565b5b90600052602060002001908051906020019061189c929190611e83565b50600367ffffffffffffffff8111156118b8576118b76125a6565b5b6040519080825280602002602001820160405280156118e65781602001602082028036833780820191505090505b5060026000848152602001908152602001600020600701828154811061190f5761190e61268f565b5b90600052602060002001908051906020019061192c929190611d76565b50600367ffffffffffffffff811115611948576119476125a6565b5b6040519080825280602002602001820160405280156119765781602001602082028036833780820191505090505b5060026000848152602001908152602001600020600801828154811061199f5761199e61268f565b5b9060005260206000200190805190602001906119bc929190611d76565b5060006002600084815260200190815260200160002060090182815481106119e7576119e661268f565b5b90600052602060002001819055508080611a00906126be565b915050611804565b5087817f5863c932b4caa63f7e8856a49b4d0a438e7c26163d5553ecbcd67dee29a8907160405160405180910390a3809250505095945050505050565b600081600260008581526020019081526020016000206003018054905011611aa2576040517f08c379a0000000000000000000000000000000000000000000000000000000008152600401611a9990612c8c565b60405180910390fd5b600260008481526020019081526020016000206003018260016002600087815260200190815260200160002060030180549050611adf9190612cac565b611ae99190612cac565b81548110611afa57611af961268f565b5b9060005260206000200154905092915050565b611b15611caa565b73ffffffffffffffffffffffffffffffffffffffff16611b33610880565b73ffffffffffffffffffffffffffffffffffffffff1614611b89576040517f08c379a0000000000000000000000000000000000000000000000000000000008152600401611b8090612501565b60405180910390fd5b8060088190555050565b611b9b611caa565b73ffffffffffffffffffffffffffffffffffffffff16611bb9610880565b73ffffffffffffffffffffffffffffffffffffffff1614611c0f576040517f08c379a0000000000000000000000000000000000000000000000000000000008152600401611c0690612501565b60405180910390fd5b600073ffffffffffffffffffffffffffffffffffffffff168173ffffffffffffffffffffffffffffffffffffffff1603611c7e576040517f08c379a0000000000000000000000000000000000000000000000000000000008152600401611c7590612d52565b60405180910390fd5b611c8781611cb2565b50565b600060026000838152602001908152602001600020600001549050919050565b600033905090565b60008060009054906101000a900473ffffffffffffffffffffffffffffffffffffffff169050816000806101000a81548173ffffffffffffffffffffffffffffffffffffffff021916908373ffffffffffffffffffffffffffffffffffffffff1602179055508173ffffffffffffffffffffffffffffffffffffffff168173ffffffffffffffffffffffffffffffffffffffff167f8be0079c531659141344cd1fd0a4f28419497f9722a3daafe3b4186f6b6457e060405160405180910390a35050565b828054828255906000526020600020908101928215611db2579160200282015b82811115611db1578251825591602001919060010190611d96565b5b509050611dbf9190611ed0565b5090565b828054828255906000526020600020908101928215611e12579160200282015b82811115611e11578251829080519060200190611e01929190611e83565b5091602001919060010190611de3565b5b509050611e1f9190611eed565b5090565b828054828255906000526020600020908101928215611e72579160200282015b82811115611e71578251829080519060200190611e61929190611d76565b5091602001919060010190611e43565b5b509050611e7f9190611f11565b5090565b828054828255906000526020600020908101928215611ebf579160200282015b82811115611ebe578251825591602001919060010190611ea3565b5b509050611ecc9190611f35565b5090565b5b80821115611ee9576000816000905550600101611ed1565b5090565b5b80821115611f0d5760008181611f049190611f52565b50600101611eee565b5090565b5b80821115611f315760008181611f289190611f73565b50600101611f12565b5090565b5b80821115611f4e576000816000905550600101611f36565b5090565b5080546000825590600052602060002090810190611f709190611f35565b50565b5080546000825590600052602060002090810190611f919190611ed0565b50565b600080fd5b6000819050919050565b611fac81611f99565b8114611fb757600080fd5b50565b600081359050611fc981611fa3565b92915050565b600060208284031215611fe557611fe4611f94565b5b6000611ff384828501611fba565b91505092915050565b61200581611f99565b82525050565b60006020820190506120206000830184611ffc565b92915050565b6000819050919050565b61203981612026565b811461204457600080fd5b50565b60008135905061205681612030565b92915050565b60006020828403121561207257612071611f94565b5b600061208084828501612047565b91505092915050565b600073ffffffffffffffffffffffffffffffffffffffff82169050919050565b6000819050919050565b60006120ce6120c96120c484612089565b6120a9565b612089565b9050919050565b60006120e0826120b3565b9050919050565b60006120f2826120d5565b9050919050565b612102816120e7565b82525050565b600060208201905061211d60008301846120f9565b92915050565b6000806000806080858703121561213d5761213c611f94565b5b600061214b87828801611fba565b945050602061215c87828801611fba565b935050604061216d87828801611fba565b925050606061217e87828801611fba565b91505092959194509250565b600081519050919050565b600082825260208201905092915050565b6000819050602082019050919050565b6121bf81611f99565b82525050565b60006121d183836121b6565b60208301905092915050565b6000602082019050919050565b60006121f58261218a565b6121ff8185612195565b935061220a836121a6565b8060005b8381101561223b57815161222288826121c5565b975061222d836121dd565b92505060018101905061220e565b5085935050505092915050565b6000602082019050818103600083015261226281846121ea565b905092915050565b600061227582612089565b9050919050565b6122858161226a565b82525050565b60006020820190506122a0600083018461227c565b92915050565b60006080820190506122bb6000830187611ffc565b6122c86020830186611ffc565b6122d56040830185611ffc565b6122e26060830184611ffc565b95945050505050565b600080600080600060a0868803121561230757612306611f94565b5b600061231588828901611fba565b955050602061232688828901612047565b945050604061233788828901611fba565b935050606061234888828901611fba565b925050608061235988828901611fba565b9150509295509295909350565b600080600080600060a0868803121561238257612381611f94565b5b600061239088828901612047565b95505060206123a188828901611fba565b94505060406123b288828901611fba565b93505060606123c388828901611fba565b92505060806123d488828901611fba565b9150509295509295909350565b600080604083850312156123f8576123f7611f94565b5b600061240685828601611fba565b925050602061241785828601611fba565b9150509250929050565b61242a81612026565b82525050565b60006020820190506124456000830184612421565b92915050565b6124548161226a565b811461245f57600080fd5b50565b6000813590506124718161244b565b92915050565b60006020828403121561248d5761248c611f94565b5b600061249b84828501612462565b91505092915050565b600082825260208201905092915050565b7f4f776e61626c653a2063616c6c6572206973206e6f7420746865206f776e6572600082015250565b60006124eb6020836124a4565b91506124f6826124b5565b602082019050919050565b6000602082019050818103600083015261251a816124de565b9050919050565b7f4e487b7100000000000000000000000000000000000000000000000000000000600052601160045260246000fd5b600061255b82611f99565b915061256683611f99565b9250827fffffffffffffffffffffffffffffffffffffffffffffffffffffffffffffffff0382111561259b5761259a612521565b5b828201905092915050565b7f4e487b7100000000000000000000000000000000000000000000000000000000600052604160045260246000fd5b60006125e082611f99565b91506125eb83611f99565b9250817fffffffffffffffffffffffffffffffffffffffffffffffffffffffffffffffff048311821515161561262457612623612521565b5b828202905092915050565b7f4e487b7100000000000000000000000000000000000000000000000000000000600052601260045260246000fd5b600061266982611f99565b915061267483611f99565b9250826126845761268361262f565b5b828204905092915050565b7f4e487b7100000000000000000000000000000000000000000000000000000000600052603260045260246000fd5b60006126c982611f99565b91507fffffffffffffffffffffffffffffffffffffffffffffffffffffffffffffffff82036126fb576126fa612521565b5b600182019050919050565b7f5541495265676973747279000000000000000000000000000000000000000000600082015250565b600061273c600b836124a4565b915061274782612706565b602082019050919050565b6000602082019050818103600083015261276b8161272f565b9050919050565b6000815190506127818161244b565b92915050565b60006020828403121561279d5761279c611f94565b5b60006127ab84828501612772565b91505092915050565b7f617373657274696f6e49642063616e6e6f74206265207a65726f000000000000600082015250565b60006127ea601a836124a4565b91506127f5826127b4565b602082019050919050565b60006020820190508181036000830152612819816127dd565b9050919050565b7f4f6e6c79206f776e65722063616e2075706461746520616e2061737365740000600082015250565b6000612856601e836124a4565b915061286182612820565b602082019050919050565b6000602082019050818103600083015261288581612849565b9050919050565b7f417373657274696f6e5265676973747279000000000000000000000000000000600082015250565b60006128c26011836124a4565b91506128cd8261288c565b602082019050919050565b600060208201905081810360008301526128f1816128b5565b9050919050565b60008151905061290781611fa3565b92915050565b60006020828403121561292357612922611f94565b5b6000612931848285016128f8565b91505092915050565b600060808201905061294f6000830187612421565b61295c602083018661227c565b6129696040830185611ffc565b6129766060830184611ffc565b95945050505050565b7f546f6b656e000000000000000000000000000000000000000000000000000000600082015250565b60006129b56005836124a4565b91506129c08261297f565b602082019050919050565b600060208201905081810360008301526129e4816129a8565b9050919050565b6000606082019050612a00600083018661227c565b612a0d602083018561227c565b612a1a6040830184611ffc565b949350505050565b60008115159050919050565b612a3781612a22565b8114612a4257600080fd5b50565b600081519050612a5481612a2e565b92915050565b600060208284031215612a7057612a6f611f94565b5b6000612a7e84828501612a45565b91505092915050565b6000604082019050612a9c600083018561227c565b612aa9602083018461227c565b9392505050565b7f53656e64657220616c6c6f77616e6365206d75737420626520657175616c207460008201527f6f206f7220686967686572207468616e2063686f73656e20616d6f756e740000602082015250565b6000612b0c603e836124a4565b9150612b1782612ab0565b604082019050919050565b60006020820190508181036000830152612b3b81612aff565b9050919050565b7f53656e6465722062616c616e6365206d75737420626520657175616c20746f2060008201527f6f7220686967686572207468616e2063686f73656e20616d6f756e7421000000602082015250565b6000612b9e603d836124a4565b9150612ba982612b42565b604082019050919050565b60006020820190508181036000830152612bcd81612b91565b9050919050565b7f55414920616c7265616479206578697374732100000000000000000000000000600082015250565b6000612c0a6013836124a4565b9150612c1582612bd4565b602082019050919050565b60006020820190508181036000830152612c3981612bfd565b9050919050565b7f4f666673657420697320696e76616c6964000000000000000000000000000000600082015250565b6000612c766011836124a4565b9150612c8182612c40565b602082019050919050565b60006020820190508181036000830152612ca581612c69565b9050919050565b6000612cb782611f99565b9150612cc283611f99565b925082821015612cd557612cd4612521565b5b828203905092915050565b7f4f776e61626c653a206e6577206f776e657220697320746865207a65726f206160008201527f6464726573730000000000000000000000000000000000000000000000000000602082015250565b6000612d3c6026836124a4565b9150612d4782612ce0565b604082019050919050565b60006020820190508181036000830152612d6b81612d2f565b905091905056fea264697066735822122005f0a07405588cec93fffecd3b57a75ba35ed994575ba3ad66fb202e412b9c3364736f6c634300080e0033",
  "immutableReferences": {},
  "source": "// SPDX-License-Identifier: MIT\n\npragma solidity ^0.8.0;\n\nimport \"@openzeppelin/contracts/token/ERC20/IERC20.sol\";\nimport \"@openzeppelin/contracts/access/Ownable.sol\";\nimport \"@openzeppelin/contracts/utils/cryptography/MerkleProof.sol\";\nimport \"./AssertionRegistry.sol\";\nimport \"./UAIRegistry.sol\";\nimport \"./Hub.sol\";\nimport \"./Identity.sol\";\nimport \"./storage/ProfileStorage.sol\";\n\n// TODO linked assertions\n// TODO storages\n// TODO contributions\n// TODO challenges\n\ncontract AssetRegistry is Ownable {\n    Hub public hub;\n\n    struct AssetRecord {\n        uint256 timestamp;\n        uint256 holdingTimeInYears;\n        uint256 assetStake;\n        bytes32 [] assertions;\n\n        uint256 [] epochs;\n        uint256 priceLimit;\n        bytes32 [][] holderIds;\n        uint256 [][] holderDistances;\n        uint256 [][] holderPrices;\n        uint256 [] holderCount;\n    }\n\n    mapping(uint256 => AssetRecord) public assetRecords;\n    mapping(bytes32 => uint256) public assetStake;\n\n    mapping(bytes1 => uint) bytesLookup;\n\n    uint256 _numberOfEpochs;\n    uint256 _epochValidityInBlocks;\n    uint256 _blockTime;\n    uint256 _numberOfHolders;\n\n    // events\n    event AssetCreated(uint256 indexed UAI, bytes32 indexed stateCommitHash);\n    event AssetUpdated(uint256 indexed UAI, bytes32 indexed stateCommitHash);\n    event TokensDepositedToAsset(bytes32 indexed UAI, uint256 indexed amount, address indexed depositor);\n\n    constructor(address hubAddress) {\n        require(hubAddress != address(0));\n        hub = Hub(hubAddress);\n\n        bytesLookup[0x00] = 0;\n        bytesLookup[0x01] = 1;\n        bytesLookup[0x02] = 1;\n        bytesLookup[0x03] = 2;\n        bytesLookup[0x04] = 1;\n        bytesLookup[0x05] = 2;\n        bytesLookup[0x06] = 2;\n        bytesLookup[0x07] = 3;\n        bytesLookup[0x08] = 1;\n        bytesLookup[0x09] = 2;\n        bytesLookup[0x0a] = 2;\n        bytesLookup[0x0b] = 3;\n        bytesLookup[0x0c] = 2;\n        bytesLookup[0x0d] = 3;\n        bytesLookup[0x0e] = 3;\n        bytesLookup[0x0f] = 4;\n\n        _numberOfEpochs = 5;\n        _blockTime = 12;\n        _numberOfHolders = 3;\n        _epochValidityInBlocks = 20;\n    }\n\n    function createAsset(bytes32 assertionId, uint256 size, uint256 visibility, uint256 holdingTimeInYears, uint256 tokenAmount) public returns (uint256 _UAI) {\n        require(assertionId != 0, \"assertionId cannot be zero\");\n\n        IERC20 tokenContract = IERC20(hub.getContractAddress(\"Token\"));\n        require(tokenContract.allowance(msg.sender, address(this)) >= tokenAmount, \"Sender allowance must be equal to or higher than chosen amount\");\n        require(tokenContract.balanceOf(msg.sender) >= tokenAmount, \"Sender balance must be equal to or higher than chosen amount!\");\n\n        // TODO ERC 1155?\n        uint256 UAI = UAIRegistry(hub.getContractAddress(\"UAIRegistry\")).mintUAI(msg.sender);\n        require(assetRecords[UAI].timestamp == 0, \"UAI already exists!\");\n\n        // TODO introduce old holding contract?\n        if (AssertionRegistry(hub.getContractAddress(\"AssertionRegistry\")).getTimestamp(assertionId) == 0) {\n            AssertionRegistry(hub.getContractAddress(\"AssertionRegistry\")).createAssertionRecord(assertionId, msg.sender, size, visibility);\n        }\n        tokenContract.transferFrom(msg.sender, address(this), tokenAmount);\n        assetRecords[UAI].assetStake += tokenAmount;\n\n        assetRecords[UAI].assertions.push(assertionId);\n        assetRecords[UAI].holdingTimeInYears = holdingTimeInYears;\n        assetRecords[UAI].timestamp = block.timestamp;\n\n        assetRecords[UAI].epochs = generateEpochs(block.number, _numberOfEpochs, _blockTime, holdingTimeInYears);\n        assetRecords[UAI].priceLimit = tokenAmount / _numberOfEpochs / _numberOfHolders;\n\n        assetRecords[UAI].holderIds = new bytes32[][](5);\n        assetRecords[UAI].holderDistances = new uint256[][](5);\n        assetRecords[UAI].holderPrices = new uint256[][](5);\n        assetRecords[UAI].holderCount = new uint256[](5);\n        for (uint i = 0; i < 5; i++) {\n            assetRecords[UAI].holderIds[i] = new bytes32[](3);\n            assetRecords[UAI].holderDistances[i] = new uint256[](3);\n            assetRecords[UAI].holderPrices[i] = new uint256[](3);\n            assetRecords[UAI].holderCount[i] = 0;\n        }\n\n        emit AssetCreated(UAI, assertionId);\n\n        return UAI;\n    }\n\n    function updateAsset(uint256 UAI, bytes32 assertionId, uint256 size, uint256 visibility, uint256 tokenAmount) public {\n        require(assertionId != 0, \"assertionId cannot be zero\");\n\n        address owner = UAIRegistry(hub.getContractAddress(\"UAIRegistry\")).ownerOf(UAI);\n        require(owner == msg.sender, \"Only owner can update an asset\");\n\n        if (AssertionRegistry(hub.getContractAddress(\"AssertionRegistry\")).getTimestamp(assertionId) == 0) {\n            AssertionRegistry(hub.getContractAddress(\"AssertionRegistry\")).createAssertionRecord(assertionId, msg.sender, size, visibility);\n        }\n\n        IERC20 tokenContract = IERC20(hub.getContractAddress(\"Token\"));\n        tokenContract.transferFrom(msg.sender, address(this), tokenAmount);\n        assetRecords[UAI].assetStake += tokenAmount;\n\n        assetRecords[UAI].assertions.push(assertionId);\n\n        emit AssetUpdated(UAI, assertionId);\n    }\n\n\n    function generateEpochs(uint blockNumber, uint256 numberOfEpochs, uint256 blockTime, uint256 holdingTimeInYears) public pure returns (uint256 [] memory) {\n        uint256 [] memory epochs = new uint256[](numberOfEpochs + 1);\n        for (uint i = 0; i < numberOfEpochs + 1; i++) {\n            epochs[i] = blockNumber + i * holdingTimeInYears * 365 * 24 * 60 * 60 / blockTime / numberOfEpochs;\n        }\n\n        return epochs;\n    }\n\n    //    function getEpochs(uint256 UAI) public view returns (uint256 [] memory) {\n    //        return assetRecords[UAI].epochs;\n    //    }\n    //\n    //    function getEpoch(uint256 UAI) public view returns (uint) {\n    //        uint i;\n    //        require(block.number >= assetRecords[UAI].epochs[0] && block.number <= assetRecords[UAI].epochs[assetRecords[UAI].epochs.length - 1], \"UAI has expired.\");\n    //        for (i = 1; i < assetRecords[UAI].epochs.length - 1; i++) {\n    //            if (block.number < assetRecords[UAI].epochs[i]) {\n    //                return i - 1;\n    //            }\n    //        }\n    //\n    //        return i - 1;\n    //    }\n    //\n    //    function getEpoch(uint256 UAI, uint256 blockNumber) public view returns (uint256) {\n    //        uint i;\n    //        require(block.number >= assetRecords[UAI].epochs[0] && block.number <= assetRecords[UAI].epochs[assetRecords[UAI].epochs.length - 1], \"UAI has expired.\");\n    //        for (i = 1; i < assetRecords[UAI].epochs.length - 1; i++) {\n    //            if (blockNumber < assetRecords[UAI].epochs[i]) {\n    //                return i - 1;\n    //            }\n    //        }\n    //\n    //        return i - 1;\n    //    }\n    //\n    //    function isEpochActive(uint256 UAI, uint256 epoch) public view returns (bool) {\n    //        if (assetRecords[UAI].epochs.length - 1 > epoch) {\n    //            if (assetRecords[UAI].epochs[epoch] <= block.number && assetRecords[UAI].epochs[epoch] + _epochValidityInBlocks >= block.number) {\n    //                return true;\n    //            }\n    //        }\n    //        return false;\n    //    }\n    //\n    //    function hammingDistance(bytes32 x, bytes32 y) public view returns (uint) {\n    //        bytes32 xor = x ^ y;\n    //        uint distance = 0;\n    //        for (uint i = 0; i < xor.length; i++) {\n    //            distance += bytesLookup[xor[i] >> 4];\n    //            distance += bytesLookup[(xor[i] << 4) >> 4];\n    //        }\n    //\n    //        return distance;\n    //    }\n    //\n    //    function getChallenge(uint256 UAI, uint256 blockNumber, address identity) public view returns (uint256) {\n    ////        require(ERC734(identity).keyHasPurpose(keccak256(abi.encodePacked(msg.sender)), 2), \"Sender does not have action permission for identity!\");\n    //        uint256 epoch = getEpoch(UAI, blockNumber);\n    //        bool isActive = isEpochActive(UAI, epoch);\n    //\n    //        if (isActive) {\n    //            return calculateChallenge(UAI, blockNumber, identity);\n    //        } else {\n    //            return 0;\n    //        }\n    //    }\n    //\n    //    function calculateChallenge(uint256 UAI, uint256 blockNumber, address identity) public view returns (uint256) {\n    //        return uint256(sha256(abi.encodePacked(blockhash(blockNumber), identity))) % assetRecords[UAI].size;\n    //    }\n    //\n    //\n    //    function getContributionRank(uint256 UAI, uint256 epoch, address identity) public view returns (uint256) {\n    //        ProfileStorage profileStorage = ProfileStorage(hub.getContractAddress(\"ProfileStorage\"));\n    //        bytes32 nodeId = profileStorage.getNodeId(identity);\n    //        uint256 distance = hammingDistance(nodeId, sha256(abi.encodePacked(UAI)));\n    //        uint i;\n    //        for (i = 0; i < assetRecords[UAI].holderCount[epoch]; i++) {\n    //            if (assetRecords[UAI].holderDistances[epoch][i] > distance)\n    //            {\n    //                return i;\n    //            }\n    //        }\n    //        return i;\n    //    }\n    //\n    //    function getContributors(uint256 UAI) public view returns (bytes32 [][] memory, uint256[][] memory, uint256[][] memory, uint256 [] memory) {\n    //        return (assetRecords[UAI].holderIds, assetRecords[UAI].holderDistances, assetRecords[UAI].holderPrices, assetRecords[UAI].holderCount);\n    //    }\n    //\n    //\n    //    function addContributor(uint256 UAI, uint256 epoch, uint rank, uint256 price, address identity) internal {\n    //        uint256 length = assetRecords[UAI].holderCount[epoch];\n    //        for (uint i = length; i >= rank + 1; i--) {\n    //            if (i == 3) {\n    //                continue;\n    //            }\n    //            assetRecords[UAI].holderIds[epoch][i] = assetRecords[UAI].holderIds[epoch][i - 1];\n    //            assetRecords[UAI].holderDistances[epoch][i] = assetRecords[UAI].holderDistances[epoch][i - 1];\n    //            assetRecords[UAI].holderPrices[epoch][i] = assetRecords[UAI].holderPrices[epoch][i - 1];\n    //        }\n    //\n    //        ProfileStorage profileStorage = ProfileStorage(hub.getContractAddress(\"ProfileStorage\"));\n    //        bytes32 nodeId = profileStorage.getNodeId(identity);\n    //\n    //        assetRecords[UAI].holderIds[epoch][rank] = nodeId;\n    //        assetRecords[UAI].holderDistances[epoch][rank] = hammingDistance(nodeId, sha256(abi.encodePacked(UAI)));\n    //        assetRecords[UAI].holderPrices[epoch][rank] = price;\n    //\n    //        if (length < 3) {\n\n    //            assetRecords[UAI].holderCount[epoch] += 1;\n    //        }\n    //    }\n    //\n    //    function answerChallenge(uint256 UAI, uint256 blockNumber, bytes32 [] memory proof, bytes32 leaf, uint256 price, address identity) public {\n    //        require(UAIRegistry(hub.getContractAddress(\"UAIRegistry\")).exists(UAI) == true, \"ERC721 token doesn't exist!\");\n    //        require(price <= assetRecords[UAI].priceLimit, \"Price limit has been exceeded!\");\n    //        require(UAIRegistry(hub.getContractAddress(\"UAIRegistry\")).exists(UAI) == true, \"ERC721 token doesn't exist!\");\n    ////        require(ERC734(identity).keyHasPurpose(keccak256(abi.encodePacked(msg.sender)), 2), \"Sender does not have action permission for identity!\");\n    //\n    //        uint256 epoch = getEpoch(UAI, blockNumber);\n    //        bool isActive = isEpochActive(UAI, epoch);\n    //\n    //        require(isActive);\n    //\n    //        // TODO Bid with lower price\n    //        ProfileStorage profileStorage = ProfileStorage(hub.getContractAddress(\"ProfileStorage\"));\n    //        bytes32 nodeId = profileStorage.getNodeId(identity);\n    //        for (uint256 i = 0; i < assetRecords[UAI].holderCount[epoch]; i++) {\n    //            require(nodeId != assetRecords[UAI].holderIds[epoch][i], \"Node has already answered the challenge!\");\n    //        }\n    //\n    //        uint256 challenge = calculateChallenge(UAI, blockNumber, identity);\n    //        uint256 rank = getContributionRank(UAI, epoch, identity);\n    //        // 0, 1, 2, 3\n    //        require(rank < 3, \"Contribution rank is too low\");\n    //\n    //        require(MerkleProof.verify(proof, assetRecords[UAI].stateCommitHash, keccak256(abi.encodePacked(leaf, challenge))), \"Root hash doesn't match\");\n    //        addContributor(UAI, epoch, rank, price, identity);\n    //    }\n    //\n    //\n    //    function getReward(uint256 UAI, uint256 epoch, address identity) public {\n    //        require(ERC734(identity).keyHasPurpose(keccak256(abi.encodePacked(msg.sender)), 2), \"Sender does not have action permission for identity!\");\n    //        require(UAIRegistry(hub.getContractAddress(\"UAIRegistry\")).exists(UAI) == true, \"ERC721 token doesn't exist!\");\n    //\n    //        bool isActive = isEpochActive(UAI, epoch);\n    //\n    //        require(isActive == false);\n    //\n    //        ProfileStorage profileStorage = ProfileStorage(hub.getContractAddress(\"ProfileStorage\"));\n    //        bytes32 nodeId = profileStorage.getNodeId(identity);\n    //\n    //        for (uint i = 0; i < assetRecords[UAI].holderCount[epoch]; i++) {\n    //            if (assetRecords[UAI].holderIds[epoch][i] == nodeId) {\n    //                uint256 amount = assetRecords[UAI].holderPrices[epoch][i];\n    //                require(amount > 0);\n    //                assetRecords[UAI].holderPrices[epoch][i] = 0;\n    //                assetRecords[UAI].stake -= amount;\n    //                profileStorage.setStake(identity, profileStorage.getStake(identity) + amount);\n    //                IERC20 tokenContract = IERC20(hub.getContractAddress(\"Token\"));\n    //                //                require(tokenContract.allowance(msg.sender, address(this)) >= tokenAmount, \"Sender allowance must be equal to or higher than chosen amount\");\n    //                //                require(tokenContract.balanceOf(msg.sender) >= tokenAmount, \"Sender balance must be equal to or higher than chosen amount!\");\n    //                tokenContract.transfer(hub.getContractAddress(\"ProfileStorage\"), amount);\n    //\n    //                break;\n    //            }\n    //        }\n    //    }\n\n    // getters\n    function getCommitHash(uint256 UAI, uint256 offset) public view returns (bytes32 commitHash){\n        require(assetRecords[UAI].assertions.length > offset, \"Offset is invalid\");\n        return assetRecords[UAI].assertions[assetRecords[UAI].assertions.length - 1 - offset];\n    }\n\n    function getAssetOwner(uint256 UAI) public view returns (address owner){\n        return UAIRegistry(hub.getContractAddress(\"UAIRegistry\")).ownerOf(UAI);\n    }\n\n    function getAssetTimestamp(uint256 UAI) public view returns (uint256 timestamp){\n        return assetRecords[UAI].timestamp;\n    }\n\n    function getNumberOfEpochs() public view returns (uint256) {\n        return _numberOfEpochs;\n    }\n\n    function setNumberOfEpochs(uint256 numberOfEpochs) public onlyOwner {\n        _numberOfEpochs = numberOfEpochs;\n    }\n\n    function getBlockTime() public view returns (uint256) {\n        return _blockTime;\n    }\n\n    function setBlockTime(uint256 blockTime) public onlyOwner {\n        _blockTime = blockTime;\n    }\n\n    function getNumberOfHolders() public view returns (uint256) {\n        return _numberOfHolders;\n    }\n\n    function setNumberOfHolders(uint256 numberOfHolders) public onlyOwner {\n        _numberOfHolders = numberOfHolders;\n    }\n\n    function getEpochValidityInBlocks() public view returns (uint256) {\n        return _epochValidityInBlocks;\n    }\n\n    function setEpochValidityInBlocks(uint256 epochValidityInBlocks) public onlyOwner {\n        _epochValidityInBlocks = epochValidityInBlocks;\n    }\n}",
  "sourcePath": "/Users/miloskotlar/dkg-evm-module/contracts/AssetRegistry.sol",
  "compiler": {
    "name": "solc",
    "version": "0.8.14+commit.80d49f37.Emscripten.clang"
  },
  "schemaVersion": "3.4.3",
  "updatedAt": "2022-08-11T11:46:27.797Z",
  "devdoc": {
    "kind": "dev",
    "methods": {
      "owner()": {
        "details": "Returns the address of the current owner."
      },
      "renounceOwnership()": {
        "details": "Leaves the contract without owner. It will not be possible to call `onlyOwner` functions anymore. Can only be called by the current owner. NOTE: Renouncing ownership will leave the contract without an owner, thereby removing any functionality that is only available to the owner."
      },
      "transferOwnership(address)": {
        "details": "Transfers ownership of the contract to a new account (`newOwner`). Can only be called by the current owner."
      }
    },
    "version": 1
  },
  "userdoc": {
    "kind": "user",
    "methods": {},
    "version": 1
  }
}