{
  "contractName": "AssertionStorage",
  "abi": [
    {
      "inputs": [
        {
          "internalType": "address",
          "name": "hubAddress",
          "type": "address"
        }
      ],
      "stateMutability": "nonpayable",
      "type": "constructor"
    },
    {
      "anonymous": false,
      "inputs": [
        {
          "indexed": true,
          "internalType": "bytes32",
          "name": "assertionId",
          "type": "bytes32"
        },
        {
          "indexed": false,
          "internalType": "address",
          "name": "issuer",
          "type": "address"
        },
        {
          "indexed": false,
          "internalType": "uint128",
          "name": "size",
          "type": "uint128"
        },
        {
          "indexed": false,
          "internalType": "uint32",
          "name": "triplesNumber",
          "type": "uint32"
        },
        {
          "indexed": false,
          "internalType": "uint96",
          "name": "chunksNumber",
          "type": "uint96"
        }
      ],
      "name": "AssertionCreated",
      "type": "event"
    },
    {
      "inputs": [],
      "name": "hub",
      "outputs": [
        {
          "internalType": "contract Hub",
          "name": "",
          "type": "address"
        }
      ],
      "stateMutability": "view",
      "type": "function"
    },
    {
      "inputs": [
        {
          "internalType": "bytes32",
          "name": "assertionId",
          "type": "bytes32"
        },
        {
          "internalType": "address",
          "name": "issuer",
          "type": "address"
        },
        {
          "internalType": "uint128",
          "name": "size",
          "type": "uint128"
        },
        {
          "internalType": "uint32",
          "name": "triplesNumber",
          "type": "uint32"
        },
        {
          "internalType": "uint96",
          "name": "chunksNumber",
          "type": "uint96"
        }
      ],
      "name": "createAssertion",
      "outputs": [],
      "stateMutability": "nonpayable",
      "type": "function"
    },
    {
      "inputs": [
        {
          "internalType": "bytes32",
          "name": "assertionId",
          "type": "bytes32"
        }
      ],
      "name": "getAssertion",
      "outputs": [
        {
          "components": [
            {
              "internalType": "uint256",
              "name": "timestamp",
              "type": "uint256"
            },
            {
              "internalType": "address",
              "name": "issuer",
              "type": "address"
            },
            {
              "internalType": "uint128",
              "name": "size",
              "type": "uint128"
            },
            {
              "internalType": "uint32",
              "name": "triplesNumber",
              "type": "uint32"
            },
            {
              "internalType": "uint96",
              "name": "chunksNumber",
              "type": "uint96"
            }
          ],
          "internalType": "struct AssertionStructs.Assertion",
          "name": "",
          "type": "tuple"
        }
      ],
      "stateMutability": "view",
      "type": "function"
    },
    {
      "inputs": [
        {
          "internalType": "bytes32",
          "name": "assertionId",
          "type": "bytes32"
        }
      ],
      "name": "getAssertionTimestamp",
      "outputs": [
        {
          "internalType": "uint256",
          "name": "",
          "type": "uint256"
        }
      ],
      "stateMutability": "view",
      "type": "function"
    },
    {
      "inputs": [
        {
          "internalType": "bytes32",
          "name": "assertionId",
          "type": "bytes32"
        }
      ],
      "name": "getAssertionIssuer",
      "outputs": [
        {
          "internalType": "address",
          "name": "",
          "type": "address"
        }
      ],
      "stateMutability": "view",
      "type": "function"
    },
    {
      "inputs": [
        {
          "internalType": "bytes32",
          "name": "assertionId",
          "type": "bytes32"
        }
      ],
      "name": "getAssertionSize",
      "outputs": [
        {
          "internalType": "uint128",
          "name": "",
          "type": "uint128"
        }
      ],
      "stateMutability": "view",
      "type": "function"
    },
    {
      "inputs": [
        {
          "internalType": "bytes32",
          "name": "assertionId",
          "type": "bytes32"
        }
      ],
      "name": "getAssertionTriplesNumber",
      "outputs": [
        {
          "internalType": "uint32",
          "name": "",
          "type": "uint32"
        }
      ],
      "stateMutability": "view",
      "type": "function"
    },
    {
      "inputs": [
        {
          "internalType": "bytes32",
          "name": "assertionId",
          "type": "bytes32"
        }
      ],
      "name": "getAssertionChunksNumber",
      "outputs": [
        {
          "internalType": "uint96",
          "name": "",
          "type": "uint96"
        }
      ],
      "stateMutability": "view",
      "type": "function"
    },
    {
      "inputs": [
        {
          "internalType": "bytes32",
          "name": "assertionId",
          "type": "bytes32"
        }
      ],
      "name": "assertionExists",
      "outputs": [
        {
          "internalType": "bool",
          "name": "",
          "type": "bool"
        }
      ],
      "stateMutability": "view",
      "type": "function"
    }
  ],
  "bytecode": "0x608060405234801561001057600080fd5b506040516108e63803806108e683398101604081905261002f91610067565b6001600160a01b03811661004257600080fd5b600080546001600160a01b0319166001600160a01b0392909216919091179055610097565b60006020828403121561007957600080fd5b81516001600160a01b038116811461009057600080fd5b9392505050565b610840806100a66000396000f3fe608060405234801561001057600080fd5b50600436106100a35760003560e01c8063448338bd11610076578063883028841161005b578063883028841461022b5780639f9c2c531461038e578063af17a875146103e457600080fd5b8063448338bd146101e45780635a4038f5146101f957600080fd5b80630828e9f3146100a8578063211107091461010c578063365a86fc146101725780634303b3da14610192575b600080fd5b6100e26100b6366004610718565b6000908152600160208190526040909120015473ffffffffffffffffffffffffffffffffffffffff1690565b60405173ffffffffffffffffffffffffffffffffffffffff90911681526020015b60405180910390f35b61015561011a366004610718565b6000908152600160205260409020600201547401000000000000000000000000000000000000000090046bffffffffffffffffffffffff1690565b6040516bffffffffffffffffffffffff9091168152602001610103565b6000546100e29073ffffffffffffffffffffffffffffffffffffffff1681565b6101cf6101a0366004610718565b600090815260016020526040902060020154700100000000000000000000000000000000900463ffffffff1690565b60405163ffffffff9091168152602001610103565b6101f76101f2366004610731565b610412565b005b61021b610207366004610718565b600090815260016020526040902054151590565b6040519015158152602001610103565b610310610239366004610718565b6040805160a08101825260008082526020820181905291810182905260608101829052608081019190915250600090815260016020818152604092839020835160a081018552815481529281015473ffffffffffffffffffffffffffffffffffffffff1691830191909152600201546fffffffffffffffffffffffffffffffff811692820192909252700100000000000000000000000000000000820463ffffffff166060820152740100000000000000000000000000000000000000009091046bffffffffffffffffffffffff16608082015290565b6040516101039190600060a0820190508251825273ffffffffffffffffffffffffffffffffffffffff60208401511660208301526fffffffffffffffffffffffffffffffff604084015116604083015263ffffffff60608401511660608301526bffffffffffffffffffffffff608084015116608083015292915050565b6103c361039c366004610718565b6000908152600160205260409020600201546fffffffffffffffffffffffffffffffff1690565b6040516fffffffffffffffffffffffffffffffff9091168152602001610103565b6104046103f2366004610718565b60009081526001602052604090205490565b604051908152602001610103565b61041a61061a565b6040518060a001604052804281526020018573ffffffffffffffffffffffffffffffffffffffff168152602001846fffffffffffffffffffffffffffffffff1681526020018363ffffffff168152602001826bffffffffffffffffffffffff16815250600160008781526020019081526020016000206000820151816000015560208201518160010160006101000a81548173ffffffffffffffffffffffffffffffffffffffff021916908373ffffffffffffffffffffffffffffffffffffffff16021790555060408201518160020160006101000a8154816fffffffffffffffffffffffffffffffff02191690836fffffffffffffffffffffffffffffffff16021790555060608201518160020160106101000a81548163ffffffff021916908363ffffffff16021790555060808201518160020160146101000a8154816bffffffffffffffffffffffff02191690836bffffffffffffffffffffffff160217905550905050847fe0abc42b99f2943708059678140f1c02c6ca3ad0c5f46e7030d30c17b4ad56388585858560405161060b949392919073ffffffffffffffffffffffffffffffffffffffff9490941684526fffffffffffffffffffffffffffffffff92909216602084015263ffffffff1660408301526bffffffffffffffffffffffff16606082015260800190565b60405180910390a25050505050565b6000546040517f1627905500000000000000000000000000000000000000000000000000000000815233600482015273ffffffffffffffffffffffffffffffffffffffff90911690631627905590602401602060405180830381865afa158015610688573d6000803e3d6000fd5b505050506040513d601f19601f820116820180604052508101906106ac91906107e1565b610716576040517f08c379a000000000000000000000000000000000000000000000000000000000815260206004820181905260248201527f466e2063616e206f6e6c792062652063616c6c65642062792074686520687562604482015260640160405180910390fd5b565b60006020828403121561072a57600080fd5b5035919050565b600080600080600060a0868803121561074957600080fd5b85359450602086013573ffffffffffffffffffffffffffffffffffffffff8116811461077457600080fd5b935060408601356fffffffffffffffffffffffffffffffff8116811461079957600080fd5b9250606086013563ffffffff811681146107b257600080fd5b915060808601356bffffffffffffffffffffffff811681146107d357600080fd5b809150509295509295909350565b6000602082840312156107f357600080fd5b8151801515811461080357600080fd5b939250505056fea26469706673582212203747e8f7b9492172320eeb1f2a6698f25607b14974a4755594747d0a786dd21764736f6c634300080e0033",
  "immutableReferences": {},
  "source": "// SPDX-License-Identifier: MIT\n\npragma solidity ^0.8.0;\n\nimport { Hub } from \"../Hub.sol\";\nimport { AssertionStructs } from \"../structs/AssertionStructs.sol\";\n\ncontract AssertionStorage {\n\n\tevent AssertionCreated(\n\t\tbytes32 indexed assertionId, address issuer, uint128 size, uint32 triplesNumber, uint96 chunksNumber\n\t);\n\n\tHub public hub;\n\n\t// assertionId => Assertion\n\tmapping(bytes32 => AssertionStructs.Assertion) assertions;\n\n\tconstructor(address hubAddress) {\n\t\trequire(hubAddress != address(0));\n\n\t\thub = Hub(hubAddress);\n\t}\n\n\tmodifier onlyContracts() {\n        _checkHub();\n        _;\n    }\n\n\tfunction createAssertion(\n\t\tbytes32 assertionId,\n\t\taddress issuer,\n\t\tuint128 size,\n\t\tuint32 triplesNumber,\n\t\tuint96 chunksNumber\n\t)\n\t\texternal\n\t\tonlyContracts\n\t{\n        assertions[assertionId] = AssertionStructs.Assertion({\n            timestamp: block.timestamp,\n            issuer: issuer,\n            size: size,\n            triplesNumber: triplesNumber,\n            chunksNumber: chunksNumber\n        });\n\n\t\temit AssertionCreated(assertionId, issuer, size, triplesNumber, chunksNumber);\n\t}\n\n    function getAssertion(bytes32 assertionId) external view returns (AssertionStructs.Assertion memory) {\n        return assertions[assertionId];\n    }\n\n    function getAssertionTimestamp(bytes32 assertionId) external view returns (uint256) {\n        return assertions[assertionId].timestamp;\n    }\n\n    function getAssertionIssuer(bytes32 assertionId) external view returns (address) {\n        return assertions[assertionId].issuer;\n    }\n\n    function getAssertionSize(bytes32 assertionId) external view returns (uint128) {\n        return assertions[assertionId].size;\n    }\n\n    function getAssertionTriplesNumber(bytes32 assertionId) external view returns (uint32) {\n        return assertions[assertionId].triplesNumber;\n    }\n\n    function getAssertionChunksNumber(bytes32 assertionId) external view returns (uint96) {\n        return assertions[assertionId].chunksNumber;\n    }\n\n    function assertionExists(bytes32 assertionId) external view returns (bool) {\n        return assertions[assertionId].timestamp != 0;\n    }\n\n\tfunction _checkHub() internal view virtual {\n        require(hub.isContract(msg.sender), \"Fn can only be called by the hub\");\n    }\n\n}\n",
  "sourcePath": "/Users/waving/Desktop/OriginTrail/dkg-evm-module/contracts/storage/AssertionStorage.sol",
  "compiler": {
    "name": "solc",
    "version": "0.8.14+commit.80d49f37.Emscripten.clang"
  },
  "schemaVersion": "3.4.10",
  "updatedAt": "2022-12-02T10:25:44.678Z",
  "devdoc": {
    "kind": "dev",
    "methods": {},
    "version": 1
  },
  "userdoc": {
    "kind": "user",
    "methods": {},
    "version": 1
  }
}