{
  "contractName": "AssetRegistry",
  "abi": [
    {
      "inputs": [
        {
          "internalType": "address",
          "name": "hubAddress",
          "type": "address"
        }
      ],
      "stateMutability": "nonpayable",
      "type": "constructor"
    },
    {
      "anonymous": false,
      "inputs": [
        {
          "indexed": true,
          "internalType": "uint256",
          "name": "UAI",
          "type": "uint256"
        },
        {
          "indexed": true,
          "internalType": "bytes32",
          "name": "stateCommitHash",
          "type": "bytes32"
        }
      ],
      "name": "AssetCreated",
      "type": "event"
    },
    {
      "anonymous": false,
      "inputs": [
        {
          "indexed": true,
          "internalType": "uint256",
          "name": "UAI",
          "type": "uint256"
        },
        {
          "indexed": true,
          "internalType": "bytes32",
          "name": "stateCommitHash",
          "type": "bytes32"
        }
      ],
      "name": "AssetUpdated",
      "type": "event"
    },
    {
      "anonymous": false,
      "inputs": [
        {
          "indexed": true,
          "internalType": "address",
          "name": "previousOwner",
          "type": "address"
        },
        {
          "indexed": true,
          "internalType": "address",
          "name": "newOwner",
          "type": "address"
        }
      ],
      "name": "OwnershipTransferred",
      "type": "event"
    },
    {
      "anonymous": false,
      "inputs": [
        {
          "indexed": true,
          "internalType": "bytes32",
          "name": "UAI",
          "type": "bytes32"
        },
        {
          "indexed": true,
          "internalType": "uint256",
          "name": "amount",
          "type": "uint256"
        },
        {
          "indexed": true,
          "internalType": "address",
          "name": "depositor",
          "type": "address"
        }
      ],
      "name": "TokensDepositedToAsset",
      "type": "event"
    },
    {
      "inputs": [
        {
          "internalType": "uint256",
          "name": "",
          "type": "uint256"
        }
      ],
      "name": "assetRecords",
      "outputs": [
        {
          "internalType": "uint256",
          "name": "timestamp",
          "type": "uint256"
        },
        {
          "internalType": "uint256",
          "name": "holdingTimeInYears",
          "type": "uint256"
        },
        {
          "internalType": "uint256",
          "name": "assetStake",
          "type": "uint256"
        },
        {
          "internalType": "uint256",
          "name": "priceLimit",
          "type": "uint256"
        }
      ],
      "stateMutability": "view",
      "type": "function",
      "constant": true
    },
    {
      "inputs": [
        {
          "internalType": "bytes32",
          "name": "",
          "type": "bytes32"
        }
      ],
      "name": "assetStake",
      "outputs": [
        {
          "internalType": "uint256",
          "name": "",
          "type": "uint256"
        }
      ],
      "stateMutability": "view",
      "type": "function",
      "constant": true
    },
    {
      "inputs": [],
      "name": "hub",
      "outputs": [
        {
          "internalType": "contract Hub",
          "name": "",
          "type": "address"
        }
      ],
      "stateMutability": "view",
      "type": "function",
      "constant": true
    },
    {
      "inputs": [],
      "name": "owner",
      "outputs": [
        {
          "internalType": "address",
          "name": "",
          "type": "address"
        }
      ],
      "stateMutability": "view",
      "type": "function",
      "constant": true
    },
    {
      "inputs": [],
      "name": "renounceOwnership",
      "outputs": [],
      "stateMutability": "nonpayable",
      "type": "function"
    },
    {
      "inputs": [
        {
          "internalType": "address",
          "name": "newOwner",
          "type": "address"
        }
      ],
      "name": "transferOwnership",
      "outputs": [],
      "stateMutability": "nonpayable",
      "type": "function"
    },
    {
      "inputs": [
        {
          "internalType": "bytes32",
          "name": "assertionId",
          "type": "bytes32"
        },
        {
          "internalType": "uint256",
          "name": "size",
          "type": "uint256"
        },
        {
          "internalType": "uint256",
          "name": "visibility",
          "type": "uint256"
        },
        {
          "internalType": "uint256",
          "name": "holdingTimeInYears",
          "type": "uint256"
        },
        {
          "internalType": "uint256",
          "name": "tokenAmount",
          "type": "uint256"
        }
      ],
      "name": "createAsset",
      "outputs": [
        {
          "internalType": "uint256",
          "name": "_UAI",
          "type": "uint256"
        }
      ],
      "stateMutability": "nonpayable",
      "type": "function"
    },
    {
      "inputs": [
        {
          "internalType": "uint256",
          "name": "UAI",
          "type": "uint256"
        },
        {
          "internalType": "bytes32",
          "name": "assertionId",
          "type": "bytes32"
        },
        {
          "internalType": "uint256",
          "name": "size",
          "type": "uint256"
        },
        {
          "internalType": "uint256",
          "name": "visibility",
          "type": "uint256"
        },
        {
          "internalType": "uint256",
          "name": "tokenAmount",
          "type": "uint256"
        }
      ],
      "name": "updateAsset",
      "outputs": [],
      "stateMutability": "nonpayable",
      "type": "function"
    },
    {
      "inputs": [
        {
          "internalType": "uint256",
          "name": "blockNumber",
          "type": "uint256"
        },
        {
          "internalType": "uint256",
          "name": "numberOfEpochs",
          "type": "uint256"
        },
        {
          "internalType": "uint256",
          "name": "blockTime",
          "type": "uint256"
        },
        {
          "internalType": "uint256",
          "name": "holdingTimeInYears",
          "type": "uint256"
        }
      ],
      "name": "generateEpochs",
      "outputs": [
        {
          "internalType": "uint256[]",
          "name": "",
          "type": "uint256[]"
        }
      ],
      "stateMutability": "pure",
      "type": "function",
      "constant": true
    },
    {
      "inputs": [
        {
          "internalType": "uint256",
          "name": "UAI",
          "type": "uint256"
        },
        {
          "internalType": "uint256",
          "name": "offset",
          "type": "uint256"
        }
      ],
      "name": "getCommitHash",
      "outputs": [
        {
          "internalType": "bytes32",
          "name": "commitHash",
          "type": "bytes32"
        }
      ],
      "stateMutability": "view",
      "type": "function",
      "constant": true
    },
    {
      "inputs": [
        {
          "internalType": "uint256",
          "name": "UAI",
          "type": "uint256"
        }
      ],
      "name": "getAssetOwner",
      "outputs": [
        {
          "internalType": "address",
          "name": "owner",
          "type": "address"
        }
      ],
      "stateMutability": "view",
      "type": "function",
      "constant": true
    },
    {
      "inputs": [
        {
          "internalType": "uint256",
          "name": "UAI",
          "type": "uint256"
        }
      ],
      "name": "getAssetTimestamp",
      "outputs": [
        {
          "internalType": "uint256",
          "name": "timestamp",
          "type": "uint256"
        }
      ],
      "stateMutability": "view",
      "type": "function",
      "constant": true
    },
    {
      "inputs": [],
      "name": "getNumberOfEpochs",
      "outputs": [
        {
          "internalType": "uint256",
          "name": "",
          "type": "uint256"
        }
      ],
      "stateMutability": "view",
      "type": "function",
      "constant": true
    },
    {
      "inputs": [
        {
          "internalType": "uint256",
          "name": "numberOfEpochs",
          "type": "uint256"
        }
      ],
      "name": "setNumberOfEpochs",
      "outputs": [],
      "stateMutability": "nonpayable",
      "type": "function"
    },
    {
      "inputs": [],
      "name": "getBlockTime",
      "outputs": [
        {
          "internalType": "uint256",
          "name": "",
          "type": "uint256"
        }
      ],
      "stateMutability": "view",
      "type": "function",
      "constant": true
    },
    {
      "inputs": [
        {
          "internalType": "uint256",
          "name": "blockTime",
          "type": "uint256"
        }
      ],
      "name": "setBlockTime",
      "outputs": [],
      "stateMutability": "nonpayable",
      "type": "function"
    },
    {
      "inputs": [],
      "name": "getNumberOfHolders",
      "outputs": [
        {
          "internalType": "uint256",
          "name": "",
          "type": "uint256"
        }
      ],
      "stateMutability": "view",
      "type": "function",
      "constant": true
    },
    {
      "inputs": [
        {
          "internalType": "uint256",
          "name": "numberOfHolders",
          "type": "uint256"
        }
      ],
      "name": "setNumberOfHolders",
      "outputs": [],
      "stateMutability": "nonpayable",
      "type": "function"
    },
    {
      "inputs": [],
      "name": "getEpochValidityInBlocks",
      "outputs": [
        {
          "internalType": "uint256",
          "name": "",
          "type": "uint256"
        }
      ],
      "stateMutability": "view",
      "type": "function",
      "constant": true
    },
    {
      "inputs": [
        {
          "internalType": "uint256",
          "name": "epochValidityInBlocks",
          "type": "uint256"
        }
      ],
      "name": "setEpochValidityInBlocks",
      "outputs": [],
      "stateMutability": "nonpayable",
      "type": "function"
    }
  ],
  "bytecode": "0x60806040523480156200001157600080fd5b50604051620031cc380380620031cc83398181016040528101906200003791906200061c565b620000576200004b620004e660201b60201c565b620004ee60201b60201c565b600073ffffffffffffffffffffffffffffffffffffffff168173ffffffffffffffffffffffffffffffffffffffff16036200009157600080fd5b80600160006101000a81548173ffffffffffffffffffffffffffffffffffffffff021916908373ffffffffffffffffffffffffffffffffffffffff1602179055506000600460008060f81b7effffffffffffffffffffffffffffffffffffffffffffffffffffffffffffff1916815260200190815260200160002081905550600160046000600160f81b7effffffffffffffffffffffffffffffffffffffffffffffffffffffffffffff1916815260200190815260200160002081905550600160046000600260f81b7effffffffffffffffffffffffffffffffffffffffffffffffffffffffffffff1916815260200190815260200160002081905550600260046000600360f81b7effffffffffffffffffffffffffffffffffffffffffffffffffffffffffffff1916815260200190815260200160002081905550600160046000600460f81b7effffffffffffffffffffffffffffffffffffffffffffffffffffffffffffff1916815260200190815260200160002081905550600260046000600560f81b7effffffffffffffffffffffffffffffffffffffffffffffffffffffffffffff1916815260200190815260200160002081905550600260046000600660f81b7effffffffffffffffffffffffffffffffffffffffffffffffffffffffffffff1916815260200190815260200160002081905550600360046000600760f81b7effffffffffffffffffffffffffffffffffffffffffffffffffffffffffffff1916815260200190815260200160002081905550600160046000600860f81b7effffffffffffffffffffffffffffffffffffffffffffffffffffffffffffff1916815260200190815260200160002081905550600260046000600960f81b7effffffffffffffffffffffffffffffffffffffffffffffffffffffffffffff1916815260200190815260200160002081905550600260046000600a60f81b7effffffffffffffffffffffffffffffffffffffffffffffffffffffffffffff1916815260200190815260200160002081905550600360046000600b60f81b7effffffffffffffffffffffffffffffffffffffffffffffffffffffffffffff1916815260200190815260200160002081905550600260046000600c60f81b7effffffffffffffffffffffffffffffffffffffffffffffffffffffffffffff1916815260200190815260200160002081905550600360046000600d60f81b7effffffffffffffffffffffffffffffffffffffffffffffffffffffffffffff1916815260200190815260200160002081905550600360046000600e60f81b7effffffffffffffffffffffffffffffffffffffffffffffffffffffffffffff19168152602001908152602001600020819055506004806000600f60f81b7effffffffffffffffffffffffffffffffffffffffffffffffffffffffffffff191681526020019081526020016000208190555060058081905550600c60078190555060036008819055506014600681905550506200064e565b600033905090565b60008060009054906101000a900473ffffffffffffffffffffffffffffffffffffffff169050816000806101000a81548173ffffffffffffffffffffffffffffffffffffffff021916908373ffffffffffffffffffffffffffffffffffffffff1602179055508173ffffffffffffffffffffffffffffffffffffffff168173ffffffffffffffffffffffffffffffffffffffff167f8be0079c531659141344cd1fd0a4f28419497f9722a3daafe3b4186f6b6457e060405160405180910390a35050565b600080fd5b600073ffffffffffffffffffffffffffffffffffffffff82169050919050565b6000620005e482620005b7565b9050919050565b620005f681620005d7565b81146200060257600080fd5b50565b6000815190506200061681620005eb565b92915050565b600060208284031215620006355762000634620005b2565b5b6000620006458482850162000605565b91505092915050565b612b6e806200065e6000396000f3fe608060405234801561001057600080fd5b506004361061012c5760003560e01c80638da5cb5b116100ad578063d9a7a2d511610071578063d9a7a2d514610322578063dffc093e14610352578063eeaf6c7914610382578063f2fde38b1461039e578063fafeba46146103ba5761012c565b80638da5cb5b1461027957806390247808146102975780639f5a9a54146102b5578063a88dc956146102d3578063bc7a5944146103065761012c565b80636ec6be9a116100f45780636ec6be9a146101d5578063715018a614610205578063758b1ce31461020f57806387ceff091461022b5780638d5802e2146102495761012c565b8063089d5b77146101315780631ca5ca4b1461014d578063308feec31461016957806334e5197b14610187578063365a86fc146101b7575b600080fd5b61014b60048036038101906101469190611d95565b6103ea565b005b61016760048036038101906101629190611d95565b6103fc565b005b61017161040e565b60405161017e9190611dd1565b60405180910390f35b6101a1600480360381019061019c9190611e22565b610418565b6040516101ae9190611dd1565b60405180910390f35b6101bf610430565b6040516101cc9190611ece565b60405180910390f35b6101ef60048036038101906101ea9190611ee9565b610456565b6040516101fc919061200e565b60405180910390f35b61020d610564565b005b61022960048036038101906102249190611d95565b610578565b005b61023361058a565b6040516102409190611dd1565b60405180910390f35b610263600480360381019061025e9190611d95565b610594565b6040516102709190612051565b60405180910390f35b6102816106b0565b60405161028e9190612051565b60405180910390f35b61029f6106d9565b6040516102ac9190611dd1565b60405180910390f35b6102bd6106e3565b6040516102ca9190611dd1565b60405180910390f35b6102ed60048036038101906102e89190611d95565b6106ed565b6040516102fd949392919061206c565b60405180910390f35b610320600480360381019061031b91906120b1565b61071d565b005b61033c6004803603810190610337919061212c565b610ccc565b6040516103499190611dd1565b60405180910390f35b61036c600480360381019061036791906121a7565b611875565b60405161037991906121f6565b60405180910390f35b61039c60048036038101906103979190611d95565b61193d565b005b6103b860048036038101906103b3919061223d565b61194f565b005b6103d460048036038101906103cf9190611d95565b6119d2565b6040516103e19190611dd1565b60405180910390f35b6103f26119f2565b8060068190555050565b6104046119f2565b8060058190555050565b6000600854905090565b60036020528060005260406000206000915090505481565b600160009054906101000a900473ffffffffffffffffffffffffffffffffffffffff1681565b606060006001856104679190612299565b67ffffffffffffffff8111156104805761047f6122ef565b5b6040519080825280602002602001820160405280156104ae5781602001602082028036833780820191505090505b50905060005b6001866104c19190612299565b811015610557578585603c80601861016d89876104de919061231e565b6104e8919061231e565b6104f2919061231e565b6104fc919061231e565b610506919061231e565b61051091906123a7565b61051a91906123a7565b876105259190612299565b828281518110610538576105376123d8565b5b602002602001018181525050808061054f90612407565b9150506104b4565b5080915050949350505050565b61056c6119f2565b6105766000611a70565b565b6105806119f2565b8060078190555050565b6000600754905090565b6000600160009054906101000a900473ffffffffffffffffffffffffffffffffffffffff1673ffffffffffffffffffffffffffffffffffffffff166304433bbc6040518163ffffffff1660e01b81526004016105ef906124ac565b602060405180830381865afa15801561060c573d6000803e3d6000fd5b505050506040513d601f19601f8201168201806040525081019061063091906124e1565b73ffffffffffffffffffffffffffffffffffffffff16636352211e836040518263ffffffff1660e01b81526004016106689190611dd1565b602060405180830381865afa158015610685573d6000803e3d6000fd5b505050506040513d601f19601f820116820180604052508101906106a991906124e1565b9050919050565b60008060009054906101000a900473ffffffffffffffffffffffffffffffffffffffff16905090565b6000600554905090565b6000600654905090565b60026020528060005260406000206000915090508060000154908060010154908060020154908060050154905084565b6000801b8403610762576040517f08c379a00000000000000000000000000000000000000000000000000000000081526004016107599061255a565b60405180910390fd5b6000600160009054906101000a900473ffffffffffffffffffffffffffffffffffffffff1673ffffffffffffffffffffffffffffffffffffffff166304433bbc6040518163ffffffff1660e01b81526004016107bd906124ac565b602060405180830381865afa1580156107da573d6000803e3d6000fd5b505050506040513d601f19601f820116820180604052508101906107fe91906124e1565b73ffffffffffffffffffffffffffffffffffffffff16636352211e876040518263ffffffff1660e01b81526004016108369190611dd1565b602060405180830381865afa158015610853573d6000803e3d6000fd5b505050506040513d601f19601f8201168201806040525081019061087791906124e1565b90503373ffffffffffffffffffffffffffffffffffffffff168173ffffffffffffffffffffffffffffffffffffffff16146108e7576040517f08c379a00000000000000000000000000000000000000000000000000000000081526004016108de906125c6565b60405180910390fd5b6000600160009054906101000a900473ffffffffffffffffffffffffffffffffffffffff1673ffffffffffffffffffffffffffffffffffffffff166304433bbc6040518163ffffffff1660e01b815260040161094290612632565b602060405180830381865afa15801561095f573d6000803e3d6000fd5b505050506040513d601f19601f8201168201806040525081019061098391906124e1565b73ffffffffffffffffffffffffffffffffffffffff1663d45c4435876040518263ffffffff1660e01b81526004016109bb91906121f6565b602060405180830381865afa1580156109d8573d6000803e3d6000fd5b505050506040513d601f19601f820116820180604052508101906109fc9190612667565b03610b0c57600160009054906101000a900473ffffffffffffffffffffffffffffffffffffffff1673ffffffffffffffffffffffffffffffffffffffff166304433bbc6040518163ffffffff1660e01b8152600401610a5a90612632565b602060405180830381865afa158015610a77573d6000803e3d6000fd5b505050506040513d601f19601f82011682018060405250810190610a9b91906124e1565b73ffffffffffffffffffffffffffffffffffffffff16632216f559863387876040518563ffffffff1660e01b8152600401610ad99493929190612694565b600060405180830381600087803b158015610af357600080fd5b505af1158015610b07573d6000803e3d6000fd5b505050505b6000600160009054906101000a900473ffffffffffffffffffffffffffffffffffffffff1673ffffffffffffffffffffffffffffffffffffffff166304433bbc6040518163ffffffff1660e01b8152600401610b6790612725565b602060405180830381865afa158015610b84573d6000803e3d6000fd5b505050506040513d601f19601f82011682018060405250810190610ba891906124e1565b90508073ffffffffffffffffffffffffffffffffffffffff166323b872dd3330866040518463ffffffff1660e01b8152600401610be793929190612745565b6020604051808303816000875af1158015610c06573d6000803e3d6000fd5b505050506040513d601f19601f82011682018060405250810190610c2a91906127b4565b5082600260008981526020019081526020016000206002016000828254610c519190612299565b925050819055506002600088815260200190815260200160002060030186908060018154018082558091505060019003906000526020600020016000909190919091505585877fd8802cf5c11ee22bbcf303218874618686a09bcd94bbb441916d708f3e8b16e360405160405180910390a350505050505050565b60008060001b8603610d13576040517f08c379a0000000000000000000000000000000000000000000000000000000008152600401610d0a9061255a565b60405180910390fd5b6000600160009054906101000a900473ffffffffffffffffffffffffffffffffffffffff1673ffffffffffffffffffffffffffffffffffffffff166304433bbc6040518163ffffffff1660e01b8152600401610d6e90612725565b602060405180830381865afa158015610d8b573d6000803e3d6000fd5b505050506040513d601f19601f82011682018060405250810190610daf91906124e1565b9050828173ffffffffffffffffffffffffffffffffffffffff1663dd62ed3e33306040518363ffffffff1660e01b8152600401610ded9291906127e1565b602060405180830381865afa158015610e0a573d6000803e3d6000fd5b505050506040513d601f19601f82011682018060405250810190610e2e9190612667565b1015610e6f576040517f08c379a0000000000000000000000000000000000000000000000000000000008152600401610e669061287c565b60405180910390fd5b828173ffffffffffffffffffffffffffffffffffffffff166370a08231336040518263ffffffff1660e01b8152600401610ea99190612051565b602060405180830381865afa158015610ec6573d6000803e3d6000fd5b505050506040513d601f19601f82011682018060405250810190610eea9190612667565b1015610f2b576040517f08c379a0000000000000000000000000000000000000000000000000000000008152600401610f229061290e565b60405180910390fd5b6000600160009054906101000a900473ffffffffffffffffffffffffffffffffffffffff1673ffffffffffffffffffffffffffffffffffffffff166304433bbc6040518163ffffffff1660e01b8152600401610f86906124ac565b602060405180830381865afa158015610fa3573d6000803e3d6000fd5b505050506040513d601f19601f82011682018060405250810190610fc791906124e1565b73ffffffffffffffffffffffffffffffffffffffff1663a61788ba336040518263ffffffff1660e01b8152600401610fff9190612051565b6020604051808303816000875af115801561101e573d6000803e3d6000fd5b505050506040513d601f19601f820116820180604052508101906110429190612667565b9050600060026000838152602001908152602001600020600001541461109d576040517f08c379a00000000000000000000000000000000000000000000000000000000081526004016110949061297a565b60405180910390fd5b6000600160009054906101000a900473ffffffffffffffffffffffffffffffffffffffff1673ffffffffffffffffffffffffffffffffffffffff166304433bbc6040518163ffffffff1660e01b81526004016110f890612632565b602060405180830381865afa158015611115573d6000803e3d6000fd5b505050506040513d601f19601f8201168201806040525081019061113991906124e1565b73ffffffffffffffffffffffffffffffffffffffff1663d45c44358a6040518263ffffffff1660e01b815260040161117191906121f6565b602060405180830381865afa15801561118e573d6000803e3d6000fd5b505050506040513d601f19601f820116820180604052508101906111b29190612667565b036112c257600160009054906101000a900473ffffffffffffffffffffffffffffffffffffffff1673ffffffffffffffffffffffffffffffffffffffff166304433bbc6040518163ffffffff1660e01b815260040161121090612632565b602060405180830381865afa15801561122d573d6000803e3d6000fd5b505050506040513d601f19601f8201168201806040525081019061125191906124e1565b73ffffffffffffffffffffffffffffffffffffffff16632216f55989338a8a6040518563ffffffff1660e01b815260040161128f9493929190612694565b600060405180830381600087803b1580156112a957600080fd5b505af11580156112bd573d6000803e3d6000fd5b505050505b8173ffffffffffffffffffffffffffffffffffffffff166323b872dd3330876040518463ffffffff1660e01b81526004016112ff93929190612745565b6020604051808303816000875af115801561131e573d6000803e3d6000fd5b505050506040513d601f19601f8201168201806040525081019061134291906127b4565b50836002600083815260200190815260200160002060020160008282546113699190612299565b92505081905550600260008281526020019081526020016000206003018890806001815401808255809150506001900390600052602060002001600090919091909150558460026000838152602001908152602001600020600101819055504260026000838152602001908152602001600020600001819055506113f34360055460075488610456565b60026000838152602001908152602001600020600401908051906020019061141c929190611b3c565b506008546005548561142e91906123a7565b61143891906123a7565b6002600083815260200190815260200160002060050181905550600567ffffffffffffffff81111561146d5761146c6122ef565b5b6040519080825280602002602001820160405280156114a057816020015b606081526020019060019003908161148b5790505b506002600083815260200190815260200160002060060190805190602001906114ca929190611b89565b50600567ffffffffffffffff8111156114e6576114e56122ef565b5b60405190808252806020026020018201604052801561151957816020015b60608152602001906001900390816115045790505b50600260008381526020019081526020016000206007019080519060200190611543929190611be9565b50600567ffffffffffffffff81111561155f5761155e6122ef565b5b60405190808252806020026020018201604052801561159257816020015b606081526020019060019003908161157d5790505b506002600083815260200190815260200160002060080190805190602001906115bc929190611be9565b50600567ffffffffffffffff8111156115d8576115d76122ef565b5b6040519080825280602002602001820160405280156116065781602001602082028036833780820191505090505b50600260008381526020019081526020016000206009019080519060200190611630929190611b3c565b5060005b600581101561183857600367ffffffffffffffff811115611658576116576122ef565b5b6040519080825280602002602001820160405280156116865781602001602082028036833780820191505090505b506002600084815260200190815260200160002060060182815481106116af576116ae6123d8565b5b9060005260206000200190805190602001906116cc929190611c49565b50600367ffffffffffffffff8111156116e8576116e76122ef565b5b6040519080825280602002602001820160405280156117165781602001602082028036833780820191505090505b5060026000848152602001908152602001600020600701828154811061173f5761173e6123d8565b5b90600052602060002001908051906020019061175c929190611b3c565b50600367ffffffffffffffff811115611778576117776122ef565b5b6040519080825280602002602001820160405280156117a65781602001602082028036833780820191505090505b506002600084815260200190815260200160002060080182815481106117cf576117ce6123d8565b5b9060005260206000200190805190602001906117ec929190611b3c565b506000600260008481526020019081526020016000206009018281548110611817576118166123d8565b5b9060005260206000200181905550808061183090612407565b915050611634565b5087817f5863c932b4caa63f7e8856a49b4d0a438e7c26163d5553ecbcd67dee29a8907160405160405180910390a3809250505095945050505050565b6000816002600085815260200190815260200160002060030180549050116118d2576040517f08c379a00000000000000000000000000000000000000000000000000000000081526004016118c9906129e6565b60405180910390fd5b60026000848152602001908152602001600020600301826001600260008781526020019081526020016000206003018054905061190f9190612a06565b6119199190612a06565b8154811061192a576119296123d8565b5b9060005260206000200154905092915050565b6119456119f2565b8060088190555050565b6119576119f2565b600073ffffffffffffffffffffffffffffffffffffffff168173ffffffffffffffffffffffffffffffffffffffff16036119c6576040517f08c379a00000000000000000000000000000000000000000000000000000000081526004016119bd90612aac565b60405180910390fd5b6119cf81611a70565b50565b600060026000838152602001908152602001600020600001549050919050565b6119fa611b34565b73ffffffffffffffffffffffffffffffffffffffff16611a186106b0565b73ffffffffffffffffffffffffffffffffffffffff1614611a6e576040517f08c379a0000000000000000000000000000000000000000000000000000000008152600401611a6590612b18565b60405180910390fd5b565b60008060009054906101000a900473ffffffffffffffffffffffffffffffffffffffff169050816000806101000a81548173ffffffffffffffffffffffffffffffffffffffff021916908373ffffffffffffffffffffffffffffffffffffffff1602179055508173ffffffffffffffffffffffffffffffffffffffff168173ffffffffffffffffffffffffffffffffffffffff167f8be0079c531659141344cd1fd0a4f28419497f9722a3daafe3b4186f6b6457e060405160405180910390a35050565b600033905090565b828054828255906000526020600020908101928215611b78579160200282015b82811115611b77578251825591602001919060010190611b5c565b5b509050611b859190611c96565b5090565b828054828255906000526020600020908101928215611bd8579160200282015b82811115611bd7578251829080519060200190611bc7929190611c49565b5091602001919060010190611ba9565b5b509050611be59190611cb3565b5090565b828054828255906000526020600020908101928215611c38579160200282015b82811115611c37578251829080519060200190611c27929190611b3c565b5091602001919060010190611c09565b5b509050611c459190611cd7565b5090565b828054828255906000526020600020908101928215611c85579160200282015b82811115611c84578251825591602001919060010190611c69565b5b509050611c929190611cfb565b5090565b5b80821115611caf576000816000905550600101611c97565b5090565b5b80821115611cd35760008181611cca9190611d18565b50600101611cb4565b5090565b5b80821115611cf75760008181611cee9190611d39565b50600101611cd8565b5090565b5b80821115611d14576000816000905550600101611cfc565b5090565b5080546000825590600052602060002090810190611d369190611cfb565b50565b5080546000825590600052602060002090810190611d579190611c96565b50565b600080fd5b6000819050919050565b611d7281611d5f565b8114611d7d57600080fd5b50565b600081359050611d8f81611d69565b92915050565b600060208284031215611dab57611daa611d5a565b5b6000611db984828501611d80565b91505092915050565b611dcb81611d5f565b82525050565b6000602082019050611de66000830184611dc2565b92915050565b6000819050919050565b611dff81611dec565b8114611e0a57600080fd5b50565b600081359050611e1c81611df6565b92915050565b600060208284031215611e3857611e37611d5a565b5b6000611e4684828501611e0d565b91505092915050565b600073ffffffffffffffffffffffffffffffffffffffff82169050919050565b6000819050919050565b6000611e94611e8f611e8a84611e4f565b611e6f565b611e4f565b9050919050565b6000611ea682611e79565b9050919050565b6000611eb882611e9b565b9050919050565b611ec881611ead565b82525050565b6000602082019050611ee36000830184611ebf565b92915050565b60008060008060808587031215611f0357611f02611d5a565b5b6000611f1187828801611d80565b9450506020611f2287828801611d80565b9350506040611f3387828801611d80565b9250506060611f4487828801611d80565b91505092959194509250565b600081519050919050565b600082825260208201905092915050565b6000819050602082019050919050565b611f8581611d5f565b82525050565b6000611f978383611f7c565b60208301905092915050565b6000602082019050919050565b6000611fbb82611f50565b611fc58185611f5b565b9350611fd083611f6c565b8060005b83811015612001578151611fe88882611f8b565b9750611ff383611fa3565b925050600181019050611fd4565b5085935050505092915050565b600060208201905081810360008301526120288184611fb0565b905092915050565b600061203b82611e4f565b9050919050565b61204b81612030565b82525050565b60006020820190506120666000830184612042565b92915050565b60006080820190506120816000830187611dc2565b61208e6020830186611dc2565b61209b6040830185611dc2565b6120a86060830184611dc2565b95945050505050565b600080600080600060a086880312156120cd576120cc611d5a565b5b60006120db88828901611d80565b95505060206120ec88828901611e0d565b94505060406120fd88828901611d80565b935050606061210e88828901611d80565b925050608061211f88828901611d80565b9150509295509295909350565b600080600080600060a0868803121561214857612147611d5a565b5b600061215688828901611e0d565b955050602061216788828901611d80565b945050604061217888828901611d80565b935050606061218988828901611d80565b925050608061219a88828901611d80565b9150509295509295909350565b600080604083850312156121be576121bd611d5a565b5b60006121cc85828601611d80565b92505060206121dd85828601611d80565b9150509250929050565b6121f081611dec565b82525050565b600060208201905061220b60008301846121e7565b92915050565b61221a81612030565b811461222557600080fd5b50565b60008135905061223781612211565b92915050565b60006020828403121561225357612252611d5a565b5b600061226184828501612228565b91505092915050565b7f4e487b7100000000000000000000000000000000000000000000000000000000600052601160045260246000fd5b60006122a482611d5f565b91506122af83611d5f565b9250827fffffffffffffffffffffffffffffffffffffffffffffffffffffffffffffffff038211156122e4576122e361226a565b5b828201905092915050565b7f4e487b7100000000000000000000000000000000000000000000000000000000600052604160045260246000fd5b600061232982611d5f565b915061233483611d5f565b9250817fffffffffffffffffffffffffffffffffffffffffffffffffffffffffffffffff048311821515161561236d5761236c61226a565b5b828202905092915050565b7f4e487b7100000000000000000000000000000000000000000000000000000000600052601260045260246000fd5b60006123b282611d5f565b91506123bd83611d5f565b9250826123cd576123cc612378565b5b828204905092915050565b7f4e487b7100000000000000000000000000000000000000000000000000000000600052603260045260246000fd5b600061241282611d5f565b91507fffffffffffffffffffffffffffffffffffffffffffffffffffffffffffffffff82036124445761244361226a565b5b600182019050919050565b600082825260208201905092915050565b7f5541495265676973747279000000000000000000000000000000000000000000600082015250565b6000612496600b8361244f565b91506124a182612460565b602082019050919050565b600060208201905081810360008301526124c581612489565b9050919050565b6000815190506124db81612211565b92915050565b6000602082840312156124f7576124f6611d5a565b5b6000612505848285016124cc565b91505092915050565b7f617373657274696f6e49642063616e6e6f74206265207a65726f000000000000600082015250565b6000612544601a8361244f565b915061254f8261250e565b602082019050919050565b6000602082019050818103600083015261257381612537565b9050919050565b7f4f6e6c79206f776e65722063616e2075706461746520616e2061737365740000600082015250565b60006125b0601e8361244f565b91506125bb8261257a565b602082019050919050565b600060208201905081810360008301526125df816125a3565b9050919050565b7f417373657274696f6e5265676973747279000000000000000000000000000000600082015250565b600061261c60118361244f565b9150612627826125e6565b602082019050919050565b6000602082019050818103600083015261264b8161260f565b9050919050565b60008151905061266181611d69565b92915050565b60006020828403121561267d5761267c611d5a565b5b600061268b84828501612652565b91505092915050565b60006080820190506126a960008301876121e7565b6126b66020830186612042565b6126c36040830185611dc2565b6126d06060830184611dc2565b95945050505050565b7f546f6b656e000000000000000000000000000000000000000000000000000000600082015250565b600061270f60058361244f565b915061271a826126d9565b602082019050919050565b6000602082019050818103600083015261273e81612702565b9050919050565b600060608201905061275a6000830186612042565b6127676020830185612042565b6127746040830184611dc2565b949350505050565b60008115159050919050565b6127918161277c565b811461279c57600080fd5b50565b6000815190506127ae81612788565b92915050565b6000602082840312156127ca576127c9611d5a565b5b60006127d88482850161279f565b91505092915050565b60006040820190506127f66000830185612042565b6128036020830184612042565b9392505050565b7f53656e64657220616c6c6f77616e6365206d75737420626520657175616c207460008201527f6f206f7220686967686572207468616e2063686f73656e20616d6f756e740000602082015250565b6000612866603e8361244f565b91506128718261280a565b604082019050919050565b6000602082019050818103600083015261289581612859565b9050919050565b7f53656e6465722062616c616e6365206d75737420626520657175616c20746f2060008201527f6f7220686967686572207468616e2063686f73656e20616d6f756e7421000000602082015250565b60006128f8603d8361244f565b91506129038261289c565b604082019050919050565b60006020820190508181036000830152612927816128eb565b9050919050565b7f55414920616c7265616479206578697374732100000000000000000000000000600082015250565b600061296460138361244f565b915061296f8261292e565b602082019050919050565b6000602082019050818103600083015261299381612957565b9050919050565b7f4f666673657420697320696e76616c6964000000000000000000000000000000600082015250565b60006129d060118361244f565b91506129db8261299a565b602082019050919050565b600060208201905081810360008301526129ff816129c3565b9050919050565b6000612a1182611d5f565b9150612a1c83611d5f565b925082821015612a2f57612a2e61226a565b5b828203905092915050565b7f4f776e61626c653a206e6577206f776e657220697320746865207a65726f206160008201527f6464726573730000000000000000000000000000000000000000000000000000602082015250565b6000612a9660268361244f565b9150612aa182612a3a565b604082019050919050565b60006020820190508181036000830152612ac581612a89565b9050919050565b7f4f776e61626c653a2063616c6c6572206973206e6f7420746865206f776e6572600082015250565b6000612b0260208361244f565b9150612b0d82612acc565b602082019050919050565b60006020820190508181036000830152612b3181612af5565b905091905056fea2646970667358221220c51da4e554c7f67c2aecd3c7b555ec46a8c6e2a699674c6c3f8c919c7771baee64736f6c634300080e0033",
  "immutableReferences": {},
  "source": "// SPDX-License-Identifier: MIT\n\npragma solidity ^0.8.0;\n\nimport \"@openzeppelin/contracts/token/ERC20/IERC20.sol\";\nimport \"@openzeppelin/contracts/access/Ownable.sol\";\nimport \"@openzeppelin/contracts/utils/cryptography/MerkleProof.sol\";\nimport \"./AssertionRegistry.sol\";\nimport \"./UAIRegistry.sol\";\nimport \"./Hub.sol\";\nimport \"./Identity.sol\";\nimport \"./storage/ProfileStorage.sol\";\n\n// TODO linked assertions\n// TODO storages\n// TODO contributions\n// TODO challenges\n\ncontract AssetRegistry is Ownable {\n    Hub public hub;\n\n    struct AssetRecord {\n        uint256 timestamp;\n        uint256 holdingTimeInYears;\n        uint256 assetStake;\n        bytes32 [] assertions;\n\n        uint256 [] epochs;\n        uint256 priceLimit;\n        bytes32 [][] holderIds;\n        uint256 [][] holderDistances;\n        uint256 [][] holderPrices;\n        uint256 [] holderCount;\n    }\n\n    mapping(uint256 => AssetRecord) public assetRecords;\n    mapping(bytes32 => uint256) public assetStake;\n\n    mapping(bytes1 => uint) bytesLookup;\n\n    uint256 _numberOfEpochs;\n    uint256 _epochValidityInBlocks;\n    uint256 _blockTime;\n    uint256 _numberOfHolders;\n\n    // events\n    event AssetCreated(uint256 indexed UAI, bytes32 indexed stateCommitHash);\n    event AssetUpdated(uint256 indexed UAI, bytes32 indexed stateCommitHash);\n    event TokensDepositedToAsset(bytes32 indexed UAI, uint256 indexed amount, address indexed depositor);\n\n    constructor(address hubAddress) {\n        require(hubAddress != address(0));\n        hub = Hub(hubAddress);\n\n        bytesLookup[0x00] = 0;\n        bytesLookup[0x01] = 1;\n        bytesLookup[0x02] = 1;\n        bytesLookup[0x03] = 2;\n        bytesLookup[0x04] = 1;\n        bytesLookup[0x05] = 2;\n        bytesLookup[0x06] = 2;\n        bytesLookup[0x07] = 3;\n        bytesLookup[0x08] = 1;\n        bytesLookup[0x09] = 2;\n        bytesLookup[0x0a] = 2;\n        bytesLookup[0x0b] = 3;\n        bytesLookup[0x0c] = 2;\n        bytesLookup[0x0d] = 3;\n        bytesLookup[0x0e] = 3;\n        bytesLookup[0x0f] = 4;\n\n        _numberOfEpochs = 5;\n        _blockTime = 12;\n        _numberOfHolders = 3;\n        _epochValidityInBlocks = 20;\n    }\n\n    function createAsset(bytes32 assertionId, uint256 size, uint256 visibility, uint256 holdingTimeInYears, uint256 tokenAmount) public returns (uint256 _UAI) {\n        require(assertionId != 0, \"assertionId cannot be zero\");\n\n        IERC20 tokenContract = IERC20(hub.getContractAddress(\"Token\"));\n        require(tokenContract.allowance(msg.sender, address(this)) >= tokenAmount, \"Sender allowance must be equal to or higher than chosen amount\");\n        require(tokenContract.balanceOf(msg.sender) >= tokenAmount, \"Sender balance must be equal to or higher than chosen amount!\");\n\n        // TODO ERC 1155?\n        uint256 UAI = UAIRegistry(hub.getContractAddress(\"UAIRegistry\")).mintUAI(msg.sender);\n        require(assetRecords[UAI].timestamp == 0, \"UAI already exists!\");\n\n        // TODO introduce old holding contract?\n        if (AssertionRegistry(hub.getContractAddress(\"AssertionRegistry\")).getTimestamp(assertionId) == 0) {\n            AssertionRegistry(hub.getContractAddress(\"AssertionRegistry\")).createAssertionRecord(assertionId, msg.sender, size, visibility);\n        }\n        tokenContract.transferFrom(msg.sender, address(this), tokenAmount);\n        assetRecords[UAI].assetStake += tokenAmount;\n\n        assetRecords[UAI].assertions.push(assertionId);\n        assetRecords[UAI].holdingTimeInYears = holdingTimeInYears;\n        assetRecords[UAI].timestamp = block.timestamp;\n\n        assetRecords[UAI].epochs = generateEpochs(block.number, _numberOfEpochs, _blockTime, holdingTimeInYears);\n        assetRecords[UAI].priceLimit = tokenAmount / _numberOfEpochs / _numberOfHolders;\n\n        assetRecords[UAI].holderIds = new bytes32[][](5);\n        assetRecords[UAI].holderDistances = new uint256[][](5);\n        assetRecords[UAI].holderPrices = new uint256[][](5);\n        assetRecords[UAI].holderCount = new uint256[](5);\n        for (uint i = 0; i < 5; i++) {\n            assetRecords[UAI].holderIds[i] = new bytes32[](3);\n            assetRecords[UAI].holderDistances[i] = new uint256[](3);\n            assetRecords[UAI].holderPrices[i] = new uint256[](3);\n            assetRecords[UAI].holderCount[i] = 0;\n        }\n\n        emit AssetCreated(UAI, assertionId);\n\n        return UAI;\n    }\n\n    function updateAsset(uint256 UAI, bytes32 assertionId, uint256 size, uint256 visibility, uint256 tokenAmount) public {\n        require(assertionId != 0, \"assertionId cannot be zero\");\n\n        address owner = UAIRegistry(hub.getContractAddress(\"UAIRegistry\")).ownerOf(UAI);\n        require(owner == msg.sender, \"Only owner can update an asset\");\n\n        if (AssertionRegistry(hub.getContractAddress(\"AssertionRegistry\")).getTimestamp(assertionId) == 0) {\n            AssertionRegistry(hub.getContractAddress(\"AssertionRegistry\")).createAssertionRecord(assertionId, msg.sender, size, visibility);\n        }\n\n        IERC20 tokenContract = IERC20(hub.getContractAddress(\"Token\"));\n        tokenContract.transferFrom(msg.sender, address(this), tokenAmount);\n        assetRecords[UAI].assetStake += tokenAmount;\n\n        assetRecords[UAI].assertions.push(assertionId);\n\n        emit AssetUpdated(UAI, assertionId);\n    }\n\n\n    function generateEpochs(uint blockNumber, uint256 numberOfEpochs, uint256 blockTime, uint256 holdingTimeInYears) public pure returns (uint256 [] memory) {\n        uint256 [] memory epochs = new uint256[](numberOfEpochs + 1);\n        for (uint i = 0; i < numberOfEpochs + 1; i++) {\n            epochs[i] = blockNumber + i * holdingTimeInYears * 365 * 24 * 60 * 60 / blockTime / numberOfEpochs;\n        }\n\n        return epochs;\n    }\n\n    //    function getEpochs(uint256 UAI) public view returns (uint256 [] memory) {\n    //        return assetRecords[UAI].epochs;\n    //    }\n    //\n    //    function getEpoch(uint256 UAI) public view returns (uint) {\n    //        uint i;\n    //        require(block.number >= assetRecords[UAI].epochs[0] && block.number <= assetRecords[UAI].epochs[assetRecords[UAI].epochs.length - 1], \"UAI has expired.\");\n    //        for (i = 1; i < assetRecords[UAI].epochs.length - 1; i++) {\n    //            if (block.number < assetRecords[UAI].epochs[i]) {\n    //                return i - 1;\n    //            }\n    //        }\n    //\n    //        return i - 1;\n    //    }\n    //\n    //    function getEpoch(uint256 UAI, uint256 blockNumber) public view returns (uint256) {\n    //        uint i;\n    //        require(block.number >= assetRecords[UAI].epochs[0] && block.number <= assetRecords[UAI].epochs[assetRecords[UAI].epochs.length - 1], \"UAI has expired.\");\n    //        for (i = 1; i < assetRecords[UAI].epochs.length - 1; i++) {\n    //            if (blockNumber < assetRecords[UAI].epochs[i]) {\n    //                return i - 1;\n    //            }\n    //        }\n    //\n    //        return i - 1;\n    //    }\n    //\n    //    function isEpochActive(uint256 UAI, uint256 epoch) public view returns (bool) {\n    //        if (assetRecords[UAI].epochs.length - 1 > epoch) {\n    //            if (assetRecords[UAI].epochs[epoch] <= block.number && assetRecords[UAI].epochs[epoch] + _epochValidityInBlocks >= block.number) {\n    //                return true;\n    //            }\n    //        }\n    //        return false;\n    //    }\n    //\n    //    function hammingDistance(bytes32 x, bytes32 y) public view returns (uint) {\n    //        bytes32 xor = x ^ y;\n    //        uint distance = 0;\n    //        for (uint i = 0; i < xor.length; i++) {\n    //            distance += bytesLookup[xor[i] >> 4];\n    //            distance += bytesLookup[(xor[i] << 4) >> 4];\n    //        }\n    //\n    //        return distance;\n    //    }\n    //\n    //    function getChallenge(uint256 UAI, uint256 blockNumber, address identity) public view returns (uint256) {\n    ////        require(ERC734(identity).keyHasPurpose(keccak256(abi.encodePacked(msg.sender)), 2), \"Sender does not have action permission for identity!\");\n    //        uint256 epoch = getEpoch(UAI, blockNumber);\n    //        bool isActive = isEpochActive(UAI, epoch);\n    //\n    //        if (isActive) {\n    //            return calculateChallenge(UAI, blockNumber, identity);\n    //        } else {\n    //            return 0;\n    //        }\n    //    }\n    //\n    //    function calculateChallenge(uint256 UAI, uint256 blockNumber, address identity) public view returns (uint256) {\n    //        return uint256(sha256(abi.encodePacked(blockhash(blockNumber), identity))) % assetRecords[UAI].size;\n    //    }\n    //\n    //\n    //    function getContributionRank(uint256 UAI, uint256 epoch, address identity) public view returns (uint256) {\n    //        ProfileStorage profileStorage = ProfileStorage(hub.getContractAddress(\"ProfileStorage\"));\n    //        bytes32 nodeId = profileStorage.getNodeId(identity);\n    //        uint256 distance = hammingDistance(nodeId, sha256(abi.encodePacked(UAI)));\n    //        uint i;\n    //        for (i = 0; i < assetRecords[UAI].holderCount[epoch]; i++) {\n    //            if (assetRecords[UAI].holderDistances[epoch][i] > distance)\n    //            {\n    //                return i;\n    //            }\n    //        }\n    //        return i;\n    //    }\n    //\n    //    function getContributors(uint256 UAI) public view returns (bytes32 [][] memory, uint256[][] memory, uint256[][] memory, uint256 [] memory) {\n    //        return (assetRecords[UAI].holderIds, assetRecords[UAI].holderDistances, assetRecords[UAI].holderPrices, assetRecords[UAI].holderCount);\n    //    }\n    //\n    //\n    //    function addContributor(uint256 UAI, uint256 epoch, uint rank, uint256 price, address identity) internal {\n    //        uint256 length = assetRecords[UAI].holderCount[epoch];\n    //        for (uint i = length; i >= rank + 1; i--) {\n    //            if (i == 3) {\n    //                continue;\n    //            }\n    //            assetRecords[UAI].holderIds[epoch][i] = assetRecords[UAI].holderIds[epoch][i - 1];\n    //            assetRecords[UAI].holderDistances[epoch][i] = assetRecords[UAI].holderDistances[epoch][i - 1];\n    //            assetRecords[UAI].holderPrices[epoch][i] = assetRecords[UAI].holderPrices[epoch][i - 1];\n    //        }\n    //\n    //        ProfileStorage profileStorage = ProfileStorage(hub.getContractAddress(\"ProfileStorage\"));\n    //        bytes32 nodeId = profileStorage.getNodeId(identity);\n    //\n    //        assetRecords[UAI].holderIds[epoch][rank] = nodeId;\n    //        assetRecords[UAI].holderDistances[epoch][rank] = hammingDistance(nodeId, sha256(abi.encodePacked(UAI)));\n    //        assetRecords[UAI].holderPrices[epoch][rank] = price;\n    //\n    //        if (length < 3) {\n\n    //            assetRecords[UAI].holderCount[epoch] += 1;\n    //        }\n    //    }\n    //\n    //    function answerChallenge(uint256 UAI, uint256 blockNumber, bytes32 [] memory proof, bytes32 leaf, uint256 price, address identity) public {\n    //        require(UAIRegistry(hub.getContractAddress(\"UAIRegistry\")).exists(UAI) == true, \"ERC721 token doesn't exist!\");\n    //        require(price <= assetRecords[UAI].priceLimit, \"Price limit has been exceeded!\");\n    //        require(UAIRegistry(hub.getContractAddress(\"UAIRegistry\")).exists(UAI) == true, \"ERC721 token doesn't exist!\");\n    ////        require(ERC734(identity).keyHasPurpose(keccak256(abi.encodePacked(msg.sender)), 2), \"Sender does not have action permission for identity!\");\n    //\n    //        uint256 epoch = getEpoch(UAI, blockNumber);\n    //        bool isActive = isEpochActive(UAI, epoch);\n    //\n    //        require(isActive);\n    //\n    //        // TODO Bid with lower price\n    //        ProfileStorage profileStorage = ProfileStorage(hub.getContractAddress(\"ProfileStorage\"));\n    //        bytes32 nodeId = profileStorage.getNodeId(identity);\n    //        for (uint256 i = 0; i < assetRecords[UAI].holderCount[epoch]; i++) {\n    //            require(nodeId != assetRecords[UAI].holderIds[epoch][i], \"Node has already answered the challenge!\");\n    //        }\n    //\n    //        uint256 challenge = calculateChallenge(UAI, blockNumber, identity);\n    //        uint256 rank = getContributionRank(UAI, epoch, identity);\n    //        // 0, 1, 2, 3\n    //        require(rank < 3, \"Contribution rank is too low\");\n    //\n    //        require(MerkleProof.verify(proof, assetRecords[UAI].stateCommitHash, keccak256(abi.encodePacked(leaf, challenge))), \"Root hash doesn't match\");\n    //        addContributor(UAI, epoch, rank, price, identity);\n    //    }\n    //\n    //\n    //    function getReward(uint256 UAI, uint256 epoch, address identity) public {\n    //        require(ERC734(identity).keyHasPurpose(keccak256(abi.encodePacked(msg.sender)), 2), \"Sender does not have action permission for identity!\");\n    //        require(UAIRegistry(hub.getContractAddress(\"UAIRegistry\")).exists(UAI) == true, \"ERC721 token doesn't exist!\");\n    //\n    //        bool isActive = isEpochActive(UAI, epoch);\n    //\n    //        require(isActive == false);\n    //\n    //        ProfileStorage profileStorage = ProfileStorage(hub.getContractAddress(\"ProfileStorage\"));\n    //        bytes32 nodeId = profileStorage.getNodeId(identity);\n    //\n    //        for (uint i = 0; i < assetRecords[UAI].holderCount[epoch]; i++) {\n    //            if (assetRecords[UAI].holderIds[epoch][i] == nodeId) {\n    //                uint256 amount = assetRecords[UAI].holderPrices[epoch][i];\n    //                require(amount > 0);\n    //                assetRecords[UAI].holderPrices[epoch][i] = 0;\n    //                assetRecords[UAI].stake -= amount;\n    //                profileStorage.setStake(identity, profileStorage.getStake(identity) + amount);\n    //                IERC20 tokenContract = IERC20(hub.getContractAddress(\"Token\"));\n    //                //                require(tokenContract.allowance(msg.sender, address(this)) >= tokenAmount, \"Sender allowance must be equal to or higher than chosen amount\");\n    //                //                require(tokenContract.balanceOf(msg.sender) >= tokenAmount, \"Sender balance must be equal to or higher than chosen amount!\");\n    //                tokenContract.transfer(hub.getContractAddress(\"ProfileStorage\"), amount);\n    //\n    //                break;\n    //            }\n    //        }\n    //    }\n\n    // getters\n    function getCommitHash(uint256 UAI, uint256 offset) public view returns (bytes32 commitHash){\n        require(assetRecords[UAI].assertions.length > offset, \"Offset is invalid\");\n        return assetRecords[UAI].assertions[assetRecords[UAI].assertions.length - 1 - offset];\n    }\n\n    function getAssetOwner(uint256 UAI) public view returns (address owner){\n        return UAIRegistry(hub.getContractAddress(\"UAIRegistry\")).ownerOf(UAI);\n    }\n\n    function getAssetTimestamp(uint256 UAI) public view returns (uint256 timestamp){\n        return assetRecords[UAI].timestamp;\n    }\n\n    function getNumberOfEpochs() public view returns (uint256) {\n        return _numberOfEpochs;\n    }\n\n    function setNumberOfEpochs(uint256 numberOfEpochs) public onlyOwner {\n        _numberOfEpochs = numberOfEpochs;\n    }\n\n    function getBlockTime() public view returns (uint256) {\n        return _blockTime;\n    }\n\n    function setBlockTime(uint256 blockTime) public onlyOwner {\n        _blockTime = blockTime;\n    }\n\n    function getNumberOfHolders() public view returns (uint256) {\n        return _numberOfHolders;\n    }\n\n    function setNumberOfHolders(uint256 numberOfHolders) public onlyOwner {\n        _numberOfHolders = numberOfHolders;\n    }\n\n    function getEpochValidityInBlocks() public view returns (uint256) {\n        return _epochValidityInBlocks;\n    }\n\n    function setEpochValidityInBlocks(uint256 epochValidityInBlocks) public onlyOwner {\n        _epochValidityInBlocks = epochValidityInBlocks;\n    }\n}",
  "sourcePath": "/Users/max/IdeaProjects/dkg-evm-module/contracts/AssetRegistry.sol",
  "compiler": {
    "name": "solc",
    "version": "0.8.14+commit.80d49f37.Emscripten.clang"
  },
  "schemaVersion": "3.4.10",
  "updatedAt": "2022-10-28T13:06:36.718Z",
  "networkType": "ethereum",
  "devdoc": {
    "kind": "dev",
    "methods": {
      "owner()": {
        "details": "Returns the address of the current owner."
      },
      "renounceOwnership()": {
        "details": "Leaves the contract without owner. It will not be possible to call `onlyOwner` functions anymore. Can only be called by the current owner. NOTE: Renouncing ownership will leave the contract without an owner, thereby removing any functionality that is only available to the owner."
      },
      "transferOwnership(address)": {
        "details": "Transfers ownership of the contract to a new account (`newOwner`). Can only be called by the current owner."
      }
    },
    "version": 1
  },
  "userdoc": {
    "kind": "user",
    "methods": {},
    "version": 1
  }
}