{
  "contractName": "AssertionStorage",
  "abi": [
    {
      "inputs": [
        {
          "internalType": "address",
          "name": "hubAddress",
          "type": "address"
        }
      ],
      "stateMutability": "nonpayable",
      "type": "constructor"
    },
    {
      "inputs": [],
      "name": "hub",
      "outputs": [
        {
          "internalType": "contract Hub",
          "name": "",
          "type": "address"
        }
      ],
      "stateMutability": "view",
      "type": "function"
    },
    {
      "inputs": [],
      "name": "name",
      "outputs": [
        {
          "internalType": "string",
          "name": "",
          "type": "string"
        }
      ],
      "stateMutability": "pure",
      "type": "function"
    },
    {
      "inputs": [],
      "name": "version",
      "outputs": [
        {
          "internalType": "string",
          "name": "",
          "type": "string"
        }
      ],
      "stateMutability": "pure",
      "type": "function"
    },
    {
      "inputs": [
        {
          "internalType": "bytes32",
          "name": "assertionId",
          "type": "bytes32"
        },
        {
          "internalType": "uint128",
          "name": "size",
          "type": "uint128"
        },
        {
          "internalType": "uint32",
          "name": "triplesNumber",
          "type": "uint32"
        },
        {
          "internalType": "uint96",
          "name": "chunksNumber",
          "type": "uint96"
        }
      ],
      "name": "createAssertion",
      "outputs": [],
      "stateMutability": "nonpayable",
      "type": "function"
    },
    {
      "inputs": [
        {
          "internalType": "bytes32",
          "name": "assertionId",
          "type": "bytes32"
        }
      ],
      "name": "getAssertion",
      "outputs": [
        {
          "components": [
            {
              "internalType": "uint256",
              "name": "timestamp",
              "type": "uint256"
            },
            {
              "internalType": "uint128",
              "name": "size",
              "type": "uint128"
            },
            {
              "internalType": "uint32",
              "name": "triplesNumber",
              "type": "uint32"
            },
            {
              "internalType": "uint96",
              "name": "chunksNumber",
              "type": "uint96"
            }
          ],
          "internalType": "struct AssertionStructs.Assertion",
          "name": "",
          "type": "tuple"
        }
      ],
      "stateMutability": "view",
      "type": "function"
    },
    {
      "inputs": [
        {
          "internalType": "bytes32",
          "name": "assertionId",
          "type": "bytes32"
        }
      ],
      "name": "getAssertionTimestamp",
      "outputs": [
        {
          "internalType": "uint256",
          "name": "",
          "type": "uint256"
        }
      ],
      "stateMutability": "view",
      "type": "function"
    },
    {
      "inputs": [
        {
          "internalType": "bytes32",
          "name": "assertionId",
          "type": "bytes32"
        }
      ],
      "name": "getAssertionSize",
      "outputs": [
        {
          "internalType": "uint128",
          "name": "",
          "type": "uint128"
        }
      ],
      "stateMutability": "view",
      "type": "function"
    },
    {
      "inputs": [
        {
          "internalType": "bytes32",
          "name": "assertionId",
          "type": "bytes32"
        }
      ],
      "name": "getAssertionTriplesNumber",
      "outputs": [
        {
          "internalType": "uint32",
          "name": "",
          "type": "uint32"
        }
      ],
      "stateMutability": "view",
      "type": "function"
    },
    {
      "inputs": [
        {
          "internalType": "bytes32",
          "name": "assertionId",
          "type": "bytes32"
        }
      ],
      "name": "getAssertionChunksNumber",
      "outputs": [
        {
          "internalType": "uint96",
          "name": "",
          "type": "uint96"
        }
      ],
      "stateMutability": "view",
      "type": "function"
    },
    {
      "inputs": [
        {
          "internalType": "bytes32",
          "name": "assertionId",
          "type": "bytes32"
        }
      ],
      "name": "assertionExists",
      "outputs": [
        {
          "internalType": "bool",
          "name": "",
          "type": "bool"
        }
      ],
      "stateMutability": "view",
      "type": "function"
    }
  ],
  "bytecode": "0x6080346100bf57601f61061f38819003918201601f19168301916001600160401b038311848410176100c4578084926020946040528339810103126100bf57516001600160a01b038116908190036100bf57801561007a57600080546001600160a01b03191691909117905560405161054490816100db8239f35b60405162461bcd60e51b815260206004820152601960248201527f48756220416464726573732063616e6e6f7420626520307830000000000000006044820152606490fd5b600080fd5b634e487b7160e01b600052604160045260246000fdfe60806040908082526004918236101561001757600080fd5b600091823560e01c90816306fdde0314610433575080632111070914610406578063365a86fc146103df5780634303b3da146103ac57806354fd4d501461036c5780635a4038f514610342578063883028841461029d5780639f9c2c531461026a578063af17a8751461023e5763b83838f21461009357600080fd5b3461023a57608036600319011261023a57602435926001600160801b038085168095036102365760443563ffffffff811680910361023257606435916001600160601b03831680930361022e5785548551631627905560e01b81523386820152602098918990829060249082906001600160a01b03165afa9081156102245788916101c0575b501561017f5760018697988196975197610132896104c0565b42895281890193845289890195865260608901968752358a52528688209551865551169063ffffffff60801b905160801b16916001600160601b0360a01b905160a01b1691171791015551f35b606485898089519262461bcd60e51b845283015260248201527f466e2063616e206f6e6c792062652063616c6c656420627920746865206875626044820152fd5b9050883d8a1161021d575b601f8101601f1916820167ffffffffffffffff81118382101761020a578a9183918a5281010312610206575180151581036102065738610119565b8780fd5b634e487b7160e01b8a526041885260248afd5b503d6101cb565b87513d8a823e3d90fd5b8580fd5b8480fd5b8380fd5b5080fd5b5082346102665760203660031901126102665760209282913581526001845220549051908152f35b8280fd5b508234610266576020366003190112610266576001826020946001600160801b0393358152828652200154169051908152f35b5082346102665760203660031901126102665781836001600160601b0392608095606084516102cb816104c0565b82815282602082015282868201520152358152600160205220918051906102f1826104c0565b6001845494858452015491602081016001600160801b03808516825283830191606063ffffffff9485888c1c168552019560a01c865284519788525116602087015251169084015251166060820152f35b50823461026657602036600319011261026657602092829135815260018452205415159051908152f35b503461023a578160031936011261023a5780516103a89161038c826104f2565b60058252640312e302e360dc1b60208301525191829182610477565b0390f35b5082346102665760203660031901126102665760018260209463ffffffff9335815282865220015460801c169051908152f35b503461023a578160031936011261023a57905490516001600160a01b039091168152602090f35b508234610266576020366003190112610266578160209360019235815282855220015460a01c9051908152f35b919050346102665782600319360112610266576103a89250610454826104f2565b601082526f417373657274696f6e53746f7261676560801b602083015251918291825b6020808252825181830181905290939260005b8281106104ac57505060409293506000838284010152601f8019910116010190565b81810186015184820160400152850161048a565b6080810190811067ffffffffffffffff8211176104dc57604052565b634e487b7160e01b600052604160045260246000fd5b6040810190811067ffffffffffffffff8211176104dc5760405256fea26469706673582212202fae3395a2fddd19204a3138283c617857976a8a8efb8f6f8a1a59432669fcd464736f6c63430008100033",
  "immutableReferences": {},
  "source": "// SPDX-License-Identifier: MIT\n\npragma solidity ^0.8.4;\n\nimport {Hub} from \"../Hub.sol\";\nimport {Named} from \"../interface/Named.sol\";\nimport {Versioned} from \"../interface/Versioned.sol\";\nimport {AssertionStructs} from \"../structs/AssertionStructs.sol\";\n\ncontract AssertionStorage is Named, Versioned {\n    string private constant _NAME = \"AssertionStorage\";\n    string private constant _VERSION = \"1.0.0\";\n\n    Hub public hub;\n\n    // assertionId => Assertion\n    mapping(bytes32 => AssertionStructs.Assertion) internal assertions;\n\n    constructor(address hubAddress) {\n        require(hubAddress != address(0), \"Hub Address cannot be 0x0\");\n\n        hub = Hub(hubAddress);\n    }\n\n    modifier onlyContracts() {\n        _checkHub();\n        _;\n    }\n\n    function name() external pure virtual override returns (string memory) {\n        return _NAME;\n    }\n\n    function version() external pure virtual override returns (string memory) {\n        return _VERSION;\n    }\n\n    function createAssertion(\n        bytes32 assertionId,\n        uint128 size,\n        uint32 triplesNumber,\n        uint96 chunksNumber\n    ) external onlyContracts {\n        assertions[assertionId] = AssertionStructs.Assertion({\n            timestamp: block.timestamp,\n            size: size,\n            triplesNumber: triplesNumber,\n            chunksNumber: chunksNumber\n        });\n    }\n\n    function getAssertion(bytes32 assertionId) external view returns (AssertionStructs.Assertion memory) {\n        return assertions[assertionId];\n    }\n\n    function getAssertionTimestamp(bytes32 assertionId) external view returns (uint256) {\n        return assertions[assertionId].timestamp;\n    }\n\n    function getAssertionSize(bytes32 assertionId) external view returns (uint128) {\n        return assertions[assertionId].size;\n    }\n\n    function getAssertionTriplesNumber(bytes32 assertionId) external view returns (uint32) {\n        return assertions[assertionId].triplesNumber;\n    }\n\n    function getAssertionChunksNumber(bytes32 assertionId) external view returns (uint96) {\n        return assertions[assertionId].chunksNumber;\n    }\n\n    function assertionExists(bytes32 assertionId) external view returns (bool) {\n        return assertions[assertionId].timestamp != 0;\n    }\n\n    function _checkHub() internal view virtual {\n        require(hub.isContract(msg.sender), \"Fn can only be called by the hub\");\n    }\n}\n",
  "sourcePath": "/Users/waving/Desktop/OriginTrail/dkg-evm-module/contracts/storage/AssertionStorage.sol",
  "compiler": {
    "name": "solc",
    "version": "0.8.16+commit.07a7930e.Emscripten.clang"
  },
  "schemaVersion": "3.4.10",
  "updatedAt": "2022-12-12T12:30:10.741Z",
  "devdoc": {
    "kind": "dev",
    "methods": {},
    "version": 1
  },
  "userdoc": {
    "kind": "user",
    "methods": {},
    "version": 1
  }
}