{
  "contractName": "Assertion",
  "abi": [
    {
      "inputs": [
        {
          "internalType": "address",
          "name": "hubAddress",
          "type": "address"
        }
      ],
      "stateMutability": "nonpayable",
      "type": "constructor"
    },
    {
      "anonymous": false,
      "inputs": [
        {
          "indexed": true,
          "internalType": "bytes32",
          "name": "assertionId",
          "type": "bytes32"
        },
        {
          "indexed": false,
          "internalType": "uint128",
          "name": "size",
          "type": "uint128"
        },
        {
          "indexed": false,
          "internalType": "uint32",
          "name": "triplesNumber",
          "type": "uint32"
        },
        {
          "indexed": false,
          "internalType": "uint96",
          "name": "chunksNumber",
          "type": "uint96"
        }
      ],
      "name": "AssertionCreated",
      "type": "event"
    },
    {
      "inputs": [],
      "name": "assertionStorage",
      "outputs": [
        {
          "internalType": "contract AssertionStorage",
          "name": "",
          "type": "address"
        }
      ],
      "stateMutability": "view",
      "type": "function"
    },
    {
      "inputs": [],
      "name": "hub",
      "outputs": [
        {
          "internalType": "contract Hub",
          "name": "",
          "type": "address"
        }
      ],
      "stateMutability": "view",
      "type": "function"
    },
    {
      "inputs": [],
      "name": "initialize",
      "outputs": [],
      "stateMutability": "nonpayable",
      "type": "function"
    },
    {
      "inputs": [],
      "name": "name",
      "outputs": [
        {
          "internalType": "string",
          "name": "",
          "type": "string"
        }
      ],
      "stateMutability": "pure",
      "type": "function"
    },
    {
      "inputs": [],
      "name": "version",
      "outputs": [
        {
          "internalType": "string",
          "name": "",
          "type": "string"
        }
      ],
      "stateMutability": "pure",
      "type": "function"
    },
    {
      "inputs": [
        {
          "internalType": "bytes32",
          "name": "assertionId",
          "type": "bytes32"
        },
        {
          "internalType": "uint128",
          "name": "size",
          "type": "uint128"
        },
        {
          "internalType": "uint32",
          "name": "triplesNumber",
          "type": "uint32"
        },
        {
          "internalType": "uint96",
          "name": "chunksNumber",
          "type": "uint96"
        }
      ],
      "name": "createAssertion",
      "outputs": [],
      "stateMutability": "nonpayable",
      "type": "function"
    }
  ],
  "bytecode": "0x608060405234801561001057600080fd5b5060405161092b38038061092b83398101604081905261002f916101fd565b6001600160a01b03811661004257600080fd5b600080546001600160a01b0319166001600160a01b03831617905561006561006b565b5061022d565b610073610122565b600054604051630110ceef60e21b815260206004820152601060248201526f417373657274696f6e53746f7261676560801b60448201526001600160a01b03909116906304433bbc90606401602060405180830381865afa1580156100dc573d6000803e3d6000fd5b505050506040513d601f19601f8201168201806040525081019061010091906101fd565b600180546001600160a01b0319166001600160a01b0392909216919091179055565b60008054906101000a90046001600160a01b03166001600160a01b0316638da5cb5b6040518163ffffffff1660e01b8152600401602060405180830381865afa158015610173573d6000803e3d6000fd5b505050506040513d601f19601f8201168201806040525081019061019791906101fd565b6001600160a01b0316336001600160a01b0316146101fb5760405162461bcd60e51b815260206004820181905260248201527f466e2063616e206f6e6c79206265207573656420627920687562206f776e6572604482015260640160405180910390fd5b565b60006020828403121561020f57600080fd5b81516001600160a01b038116811461022657600080fd5b9392505050565b6106ef8061023c6000396000f3fe608060405234801561001057600080fd5b50600436106100625760003560e01c806306fdde0314610067578063365a86fc1461009e57806354fd4d50146100c95780638129fc1c146100ea578063b83838f2146100f4578063d210b7cf14610107575b600080fd5b60408051808201909152600981526820b9b9b2b93a34b7b760b91b60208201525b60405161009591906105a5565b60405180910390f35b6000546100b1906001600160a01b031681565b6040516001600160a01b039091168152602001610095565b6040805180820190915260058152640312e302e360dc1b6020820152610088565b6100f261011a565b005b6100f26101023660046105f3565b6101d1565b6001546100b1906001600160a01b031681565b610122610416565b600054604051630110ceef60e21b815260206004820152601060248201526f417373657274696f6e53746f7261676560801b60448201526001600160a01b03909116906304433bbc90606401602060405180830381865afa15801561018b573d6000803e3d6000fd5b505050506040513d601f19601f820116820180604052508101906101af9190610667565b600180546001600160a01b0319166001600160a01b0392909216919091179055565b6101d96104ed565b6001546001600160a01b0316846102375760405162461bcd60e51b815260206004820152601c60248201527f417373657274696f6e2049442063616e6e6f7420626520656d7074790000000060448201526064015b60405180910390fd5b836001600160801b03166000036102835760405162461bcd60e51b815260206004820152601060248201526f053697a652063616e6e6f7420626520360841b604482015260640161022e565b8263ffffffff166000036102d95760405162461bcd60e51b815260206004820152601a60248201527f547269706c6573206e756d6265722063616e6e6f742062652030000000000000604482015260640161022e565b816001600160601b03166000036103325760405162461bcd60e51b815260206004820152601960248201527f4368756e6b73206e756d6265722063616e6e6f74206265203000000000000000604482015260640161022e565b604051635c1c1c7960e11b8152600481018690526001600160801b038516602482015263ffffffff841660448201526001600160601b03831660648201526001600160a01b0382169063b83838f290608401600060405180830381600087803b15801561039e57600080fd5b505af11580156103b2573d6000803e3d6000fd5b5050604080516001600160801b038816815263ffffffff871660208201526001600160601b0386168183015290518893507f6228bc6c1a8f028a2e3476a455a34f5fa23b4387611f3c147a965e375ebd17ba92509081900360600190a25050505050565b60008054906101000a90046001600160a01b03166001600160a01b0316638da5cb5b6040518163ffffffff1660e01b8152600401602060405180830381865afa158015610467573d6000803e3d6000fd5b505050506040513d601f19601f8201168201806040525081019061048b9190610667565b6001600160a01b0316336001600160a01b0316146104eb5760405162461bcd60e51b815260206004820181905260248201527f466e2063616e206f6e6c79206265207573656420627920687562206f776e6572604482015260640161022e565b565b600054604051631627905560e01b81523360048201526001600160a01b0390911690631627905590602401602060405180830381865afa158015610535573d6000803e3d6000fd5b505050506040513d601f19601f820116820180604052508101906105599190610697565b6104eb5760405162461bcd60e51b815260206004820181905260248201527f466e2063616e206f6e6c792062652063616c6c65642062792074686520687562604482015260640161022e565b600060208083528351808285015260005b818110156105d2578581018301518582016040015282016105b6565b506000604082860101526040601f19601f8301168501019250505092915050565b6000806000806080858703121561060957600080fd5b8435935060208501356001600160801b038116811461062757600080fd5b9250604085013563ffffffff8116811461064057600080fd5b915060608501356001600160601b038116811461065c57600080fd5b939692955090935050565b60006020828403121561067957600080fd5b81516001600160a01b038116811461069057600080fd5b9392505050565b6000602082840312156106a957600080fd5b8151801515811461069057600080fdfea26469706673582212205016f02495d3fd40502887f68ebc3c632e2a429a2653c1da6f3aa7c3d80cd42864736f6c63430008100033",
  "immutableReferences": {},
  "source": "// SPDX-License-Identifier: MIT\n\npragma solidity ^0.8.4;\n\nimport { Hub } from \"./Hub.sol\";\nimport { AssertionStorage } from \"./storage/AssertionStorage.sol\";\nimport { Named } from \"./interface/Named.sol\";\nimport { Versioned } from \"./interface/Versioned.sol\";\nimport { AssertionStructs } from \"./structs/AssertionStructs.sol\";\n\ncontract Assertion is Named, Versioned {\n\n\tevent AssertionCreated(bytes32 indexed assertionId, uint128 size, uint32 triplesNumber, uint96 chunksNumber);\n\n\tstring constant private _NAME = \"Assertion\";\n    string constant private _VERSION = \"1.0.0\";\n\n\tHub public hub;\n\tAssertionStorage public assertionStorage;\n\n\tconstructor(address hubAddress) {\n\t\trequire(hubAddress != address(0));\n\n\t\thub = Hub(hubAddress);\n\t\tinitialize();\n\t}\n\n\tmodifier onlyHubOwner() {\n\t\t_checkHubOwner();\n\t\t_;\n\t}\n\n\tmodifier onlyContracts() {\n        _checkHub();\n        _;\n    }\n\n\tfunction initialize() public onlyHubOwner {\n\t\tassertionStorage = AssertionStorage(hub.getContractAddress(\"AssertionStorage\"));\n\t}\n\n\tfunction name() external pure virtual override returns (string memory) {\n        return _NAME;\n    }\n\n    function version() external pure virtual override returns (string memory) {\n        return _VERSION;\n    }\n\n\tfunction createAssertion(\n\t\tbytes32 assertionId,\n\t\tuint128 size,\n\t\tuint32 triplesNumber,\n\t\tuint96 chunksNumber\n\t)\n\t\texternal\n\t\tonlyContracts\n\t{\n\t\tAssertionStorage ans = assertionStorage;\n\n\t\trequire(assertionId != bytes32(0), \"Assertion ID cannot be empty\");\n\t\trequire(size != 0, \"Size cannot be 0\");\n\t\trequire(triplesNumber != 0, \"Triples number cannot be 0\");\n\t\trequire(chunksNumber != 0, \"Chunks number cannot be 0\");\n\n\t\tans.createAssertion(assertionId, size, triplesNumber, chunksNumber);\n\n\t\temit AssertionCreated(assertionId, size, triplesNumber, chunksNumber);\n\t}\n\n\tfunction _checkHubOwner() internal view virtual {\n\t\trequire(msg.sender == hub.owner(), \"Fn can only be used by hub owner\");\n\t}\n\n\tfunction _checkHub() internal view virtual {\n\t\trequire (hub.isContract(msg.sender), \"Fn can only be called by the hub\");\n\t}\n\n}",
  "sourcePath": "/Users/waving/Desktop/OriginTrail/dkg-evm-module/contracts/Assertion.sol",
  "compiler": {
    "name": "solc",
    "version": "0.8.16+commit.07a7930e.Emscripten.clang"
  },
  "schemaVersion": "3.4.10",
  "updatedAt": "2022-12-09T11:22:31.767Z",
  "devdoc": {
    "kind": "dev",
    "methods": {},
    "version": 1
  },
  "userdoc": {
    "kind": "user",
    "methods": {},
    "version": 1
  }
}