{
  "contractName": "AssertionStorage",
  "abi": [
    {
      "inputs": [
        {
          "internalType": "address",
          "name": "hubAddress",
          "type": "address"
        }
      ],
      "stateMutability": "nonpayable",
      "type": "constructor"
    },
    {
      "inputs": [],
      "name": "hub",
      "outputs": [
        {
          "internalType": "contract Hub",
          "name": "",
          "type": "address"
        }
      ],
      "stateMutability": "view",
      "type": "function"
    },
    {
      "inputs": [],
      "name": "name",
      "outputs": [
        {
          "internalType": "string",
          "name": "",
          "type": "string"
        }
      ],
      "stateMutability": "pure",
      "type": "function"
    },
    {
      "inputs": [],
      "name": "version",
      "outputs": [
        {
          "internalType": "string",
          "name": "",
          "type": "string"
        }
      ],
      "stateMutability": "pure",
      "type": "function"
    },
    {
      "inputs": [
        {
          "internalType": "bytes32",
          "name": "assertionId",
          "type": "bytes32"
        },
        {
          "internalType": "uint128",
          "name": "size",
          "type": "uint128"
        },
        {
          "internalType": "uint32",
          "name": "triplesNumber",
          "type": "uint32"
        },
        {
          "internalType": "uint96",
          "name": "chunksNumber",
          "type": "uint96"
        }
      ],
      "name": "createAssertion",
      "outputs": [],
      "stateMutability": "nonpayable",
      "type": "function"
    },
    {
      "inputs": [
        {
          "internalType": "bytes32",
          "name": "assertionId",
          "type": "bytes32"
        }
      ],
      "name": "getAssertion",
      "outputs": [
        {
          "components": [
            {
              "internalType": "uint256",
              "name": "timestamp",
              "type": "uint256"
            },
            {
              "internalType": "uint128",
              "name": "size",
              "type": "uint128"
            },
            {
              "internalType": "uint32",
              "name": "triplesNumber",
              "type": "uint32"
            },
            {
              "internalType": "uint96",
              "name": "chunksNumber",
              "type": "uint96"
            }
          ],
          "internalType": "struct AssertionStructs.Assertion",
          "name": "",
          "type": "tuple"
        }
      ],
      "stateMutability": "view",
      "type": "function"
    },
    {
      "inputs": [
        {
          "internalType": "bytes32",
          "name": "assertionId",
          "type": "bytes32"
        }
      ],
      "name": "getAssertionTimestamp",
      "outputs": [
        {
          "internalType": "uint256",
          "name": "",
          "type": "uint256"
        }
      ],
      "stateMutability": "view",
      "type": "function"
    },
    {
      "inputs": [
        {
          "internalType": "bytes32",
          "name": "assertionId",
          "type": "bytes32"
        }
      ],
      "name": "getAssertionSize",
      "outputs": [
        {
          "internalType": "uint128",
          "name": "",
          "type": "uint128"
        }
      ],
      "stateMutability": "view",
      "type": "function"
    },
    {
      "inputs": [
        {
          "internalType": "bytes32",
          "name": "assertionId",
          "type": "bytes32"
        }
      ],
      "name": "getAssertionTriplesNumber",
      "outputs": [
        {
          "internalType": "uint32",
          "name": "",
          "type": "uint32"
        }
      ],
      "stateMutability": "view",
      "type": "function"
    },
    {
      "inputs": [
        {
          "internalType": "bytes32",
          "name": "assertionId",
          "type": "bytes32"
        }
      ],
      "name": "getAssertionChunksNumber",
      "outputs": [
        {
          "internalType": "uint96",
          "name": "",
          "type": "uint96"
        }
      ],
      "stateMutability": "view",
      "type": "function"
    },
    {
      "inputs": [
        {
          "internalType": "bytes32",
          "name": "assertionId",
          "type": "bytes32"
        }
      ],
      "name": "assertionExists",
      "outputs": [
        {
          "internalType": "bool",
          "name": "",
          "type": "bool"
        }
      ],
      "stateMutability": "view",
      "type": "function"
    }
  ],
  "bytecode": "0x608060405234801561001057600080fd5b5060405161069338038061069383398101604081905261002f91610067565b6001600160a01b03811661004257600080fd5b600080546001600160a01b0319166001600160a01b0392909216919091179055610097565b60006020828403121561007957600080fd5b81516001600160a01b038116811461009057600080fd5b9392505050565b6105ed806100a66000396000f3fe608060405234801561001057600080fd5b506004361061009e5760003560e01c80635a4038f5116100665780635a4038f5146101bf57806388302884146101f15780639f9c2c53146102ce578063af17a87514610313578063b83838f21461034157600080fd5b806306fdde03146100a357806321110709146100e1578063365a86fc1461012d5780634303b3da1461015857806354fd4d501461019e575b600080fd5b60408051808201909152601081526f417373657274696f6e53746f7261676560801b60208201525b6040516100d891906104b3565b60405180910390f35b6101156100ef366004610501565b60009081526001602081905260409091200154600160a01b90046001600160601b031690565b6040516001600160601b0390911681526020016100d8565b600054610140906001600160a01b031681565b6040516001600160a01b0390911681526020016100d8565b610189610166366004610501565b60009081526001602081905260409091200154600160801b900463ffffffff1690565b60405163ffffffff90911681526020016100d8565b6040805180820190915260058152640312e302e360dc1b60208201526100cb565b6101e16101cd366004610501565b600090815260016020526040902054151590565b60405190151581526020016100d8565b6102836101ff366004610501565b604080516080810182526000808252602082018190529181018290526060810191909152506000908152600160208181526040928390208351608081018552815481529201546001600160801b03811691830191909152600160801b810463ffffffff1692820192909252600160a01b9091046001600160601b0316606082015290565b6040516100d89190815181526020808301516001600160801b03169082015260408083015163ffffffff16908201526060918201516001600160601b03169181019190915260800190565b6102fb6102dc366004610501565b600090815260016020819052604090912001546001600160801b031690565b6040516001600160801b0390911681526020016100d8565b610333610321366004610501565b60009081526001602052604090205490565b6040519081526020016100d8565b61035461034f36600461051a565b610356565b005b61035e6103f5565b604080516080810182524281526001600160801b03948516602080830191825263ffffffff9586168385019081526001600160601b03958616606085019081526000998a52600192839052949098209251835590519101805496519251909316600160a01b026001600160a01b0392909416600160801b026001600160a01b03199096169416939093179390931791909116179055565b600054604051631627905560e01b81523360048201526001600160a01b0390911690631627905590602401602060405180830381865afa15801561043d573d6000803e3d6000fd5b505050506040513d601f19601f82011682018060405250810190610461919061058e565b6104b15760405162461bcd60e51b815260206004820181905260248201527f466e2063616e206f6e6c792062652063616c6c65642062792074686520687562604482015260640160405180910390fd5b565b600060208083528351808285015260005b818110156104e0578581018301518582016040015282016104c4565b506000604082860101526040601f19601f8301168501019250505092915050565b60006020828403121561051357600080fd5b5035919050565b6000806000806080858703121561053057600080fd5b8435935060208501356001600160801b038116811461054e57600080fd5b9250604085013563ffffffff8116811461056757600080fd5b915060608501356001600160601b038116811461058357600080fd5b939692955090935050565b6000602082840312156105a057600080fd5b815180151581146105b057600080fd5b939250505056fea264697066735822122082ce5601b0e9ed1b620942f06182aafa27f4c2d1446fdc5a7a19c5358bc66a1964736f6c63430008100033",
  "immutableReferences": {},
  "source": "// SPDX-License-Identifier: MIT\n\npragma solidity ^0.8.4;\n\nimport { Hub } from \"../Hub.sol\";\nimport { Named } from \"../interface/Named.sol\";\nimport { Versioned } from \"../interface/Versioned.sol\";\nimport { AssertionStructs } from \"../structs/AssertionStructs.sol\";\n\ncontract AssertionStorage is Named, Versioned {\n\n    string constant private _NAME = \"AssertionStorage\";\n    string constant private _VERSION = \"1.0.0\";\n\n\tHub public hub;\n\n\t// assertionId => Assertion\n\tmapping(bytes32 => AssertionStructs.Assertion) assertions;\n\n\tconstructor(address hubAddress) {\n\t\trequire(hubAddress != address(0));\n\n\t\thub = Hub(hubAddress);\n\t}\n\n\tmodifier onlyContracts() {\n        _checkHub();\n        _;\n    }\n\n    function name() external pure virtual override returns (string memory) {\n        return _NAME;\n    }\n\n    function version() external pure virtual override returns (string memory) {\n        return _VERSION;\n    }\n\n\tfunction createAssertion(\n\t\tbytes32 assertionId,\n\t\tuint128 size,\n\t\tuint32 triplesNumber,\n\t\tuint96 chunksNumber\n\t)\n\t\texternal\n\t\tonlyContracts\n\t{\n        assertions[assertionId] = AssertionStructs.Assertion({\n            timestamp: block.timestamp,\n            size: size,\n            triplesNumber: triplesNumber,\n            chunksNumber: chunksNumber\n        });\n\t}\n\n    function getAssertion(bytes32 assertionId) external view returns (AssertionStructs.Assertion memory) {\n        return assertions[assertionId];\n    }\n\n    function getAssertionTimestamp(bytes32 assertionId) external view returns (uint256) {\n        return assertions[assertionId].timestamp;\n    }\n\n    function getAssertionSize(bytes32 assertionId) external view returns (uint128) {\n        return assertions[assertionId].size;\n    }\n\n    function getAssertionTriplesNumber(bytes32 assertionId) external view returns (uint32) {\n        return assertions[assertionId].triplesNumber;\n    }\n\n    function getAssertionChunksNumber(bytes32 assertionId) external view returns (uint96) {\n        return assertions[assertionId].chunksNumber;\n    }\n\n    function assertionExists(bytes32 assertionId) external view returns (bool) {\n        return assertions[assertionId].timestamp != 0;\n    }\n\n\tfunction _checkHub() internal view virtual {\n        require(hub.isContract(msg.sender), \"Fn can only be called by the hub\");\n    }\n\n}\n",
  "sourcePath": "/Users/waving/Desktop/OriginTrail/dkg-evm-module/contracts/storage/AssertionStorage.sol",
  "compiler": {
    "name": "solc",
    "version": "0.8.16+commit.07a7930e.Emscripten.clang"
  },
  "schemaVersion": "3.4.10",
  "updatedAt": "2022-12-06T13:28:09.261Z",
  "devdoc": {
    "kind": "dev",
    "methods": {},
    "version": 1
  },
  "userdoc": {
    "kind": "user",
    "methods": {},
    "version": 1
  }
}