{
  "contractName": "AssertionStorage",
  "abi": [
    {
      "inputs": [
        {
          "internalType": "address",
          "name": "hubAddress",
          "type": "address"
        }
      ],
      "stateMutability": "nonpayable",
      "type": "constructor"
    },
    {
      "inputs": [],
      "name": "hub",
      "outputs": [
        {
          "internalType": "contract Hub",
          "name": "",
          "type": "address"
        }
      ],
      "stateMutability": "view",
      "type": "function"
    },
    {
      "inputs": [],
      "name": "name",
      "outputs": [
        {
          "internalType": "string",
          "name": "",
          "type": "string"
        }
      ],
      "stateMutability": "pure",
      "type": "function"
    },
    {
      "inputs": [],
      "name": "version",
      "outputs": [
        {
          "internalType": "string",
          "name": "",
          "type": "string"
        }
      ],
      "stateMutability": "pure",
      "type": "function"
    },
    {
      "inputs": [
        {
          "internalType": "bytes32",
          "name": "assertionId",
          "type": "bytes32"
        },
        {
          "internalType": "uint128",
          "name": "size",
          "type": "uint128"
        },
        {
          "internalType": "uint32",
          "name": "triplesNumber",
          "type": "uint32"
        },
        {
          "internalType": "uint96",
          "name": "chunksNumber",
          "type": "uint96"
        }
      ],
      "name": "createAssertion",
      "outputs": [],
      "stateMutability": "nonpayable",
      "type": "function"
    },
    {
      "inputs": [
        {
          "internalType": "bytes32",
          "name": "assertionId",
          "type": "bytes32"
        }
      ],
      "name": "deleteAssertion",
      "outputs": [],
      "stateMutability": "nonpayable",
      "type": "function"
    },
    {
      "inputs": [
        {
          "internalType": "bytes32",
          "name": "assertionId",
          "type": "bytes32"
        }
      ],
      "name": "getAssertion",
      "outputs": [
        {
          "components": [
            {
              "internalType": "uint256",
              "name": "timestamp",
              "type": "uint256"
            },
            {
              "internalType": "uint128",
              "name": "size",
              "type": "uint128"
            },
            {
              "internalType": "uint32",
              "name": "triplesNumber",
              "type": "uint32"
            },
            {
              "internalType": "uint96",
              "name": "chunksNumber",
              "type": "uint96"
            }
          ],
          "internalType": "struct AssertionStructs.Assertion",
          "name": "",
          "type": "tuple"
        }
      ],
      "stateMutability": "view",
      "type": "function"
    },
    {
      "inputs": [
        {
          "internalType": "bytes32",
          "name": "assertionId",
          "type": "bytes32"
        }
      ],
      "name": "getAssertionTimestamp",
      "outputs": [
        {
          "internalType": "uint256",
          "name": "",
          "type": "uint256"
        }
      ],
      "stateMutability": "view",
      "type": "function"
    },
    {
      "inputs": [
        {
          "internalType": "bytes32",
          "name": "assertionId",
          "type": "bytes32"
        }
      ],
      "name": "getAssertionSize",
      "outputs": [
        {
          "internalType": "uint128",
          "name": "",
          "type": "uint128"
        }
      ],
      "stateMutability": "view",
      "type": "function"
    },
    {
      "inputs": [
        {
          "internalType": "bytes32",
          "name": "assertionId",
          "type": "bytes32"
        }
      ],
      "name": "getAssertionTriplesNumber",
      "outputs": [
        {
          "internalType": "uint32",
          "name": "",
          "type": "uint32"
        }
      ],
      "stateMutability": "view",
      "type": "function"
    },
    {
      "inputs": [
        {
          "internalType": "bytes32",
          "name": "assertionId",
          "type": "bytes32"
        }
      ],
      "name": "getAssertionChunksNumber",
      "outputs": [
        {
          "internalType": "uint96",
          "name": "",
          "type": "uint96"
        }
      ],
      "stateMutability": "view",
      "type": "function"
    },
    {
      "inputs": [
        {
          "internalType": "bytes32",
          "name": "assertionId",
          "type": "bytes32"
        }
      ],
      "name": "assertionExists",
      "outputs": [
        {
          "internalType": "bool",
          "name": "",
          "type": "bool"
        }
      ],
      "stateMutability": "view",
      "type": "function"
    }
  ],
  "bytecode": "0x6080346100bf57601f61066e38819003918201601f19168301916001600160401b038311848410176100c4578084926020946040528339810103126100bf57516001600160a01b038116908190036100bf57801561007a57600080546001600160a01b03191691909117905560405161059390816100db8239f35b60405162461bcd60e51b815260206004820152601960248201527f48756220416464726573732063616e6e6f7420626520307830000000000000006044820152606490fd5b600080fd5b634e487b7160e01b600052604160045260246000fdfe6080604081815260048036101561001557600080fd5b600092833560e01c90816306fdde0314610381575080632111070914610355578063365a86fc1461032d5780634303b3da146102fb57806354fd4d50146102b65780635a4038f51461028d5780636a81cbdb1461025d57806388302884146101b95780639f9c2c5314610187578063af17a875146101605763b83838f21461009c57600080fd5b3461015c57608036600319011261015c576024356001600160801b038082168092036101585760443563ffffffff811680910361015457606435916001600160601b038316809303610150576001936100f361045c565b8651956100ff8761040e565b4287526020870191825287870193845260608701948552358852846020528688209551865551169063ffffffff60801b905160801b16916001600160601b0360a01b905160a01b1691171791015551f35b8680fd5b8580fd5b8480fd5b8280fd5b503461015c57602036600319011261015c5760209282913581526001845220549051908152f35b503461015c57602036600319011261015c576001826020946001600160801b0393358152828652200154169051908152f35b503461015c57602036600319011261015c5781836001600160601b0392608095606084516101e68161040e565b828152826020820152828682015201523581526001602052209180519061020c8261040e565b6001845494858452015491602081016001600160801b03808516825283830191606063ffffffff9485888c1c168552019560a01c865284519788525116602087015251169084015251166060820152f35b503461015c57602036600319011261015c5761027761045c565b3582526001602052816001828220828155015551f35b503461015c57602036600319011261015c57602092829135815260018452205415159051908152f35b5050346102f757816003193601126102f75780516102f3916102d782610440565b60058252640312e302e360dc1b602083015251918291826103c5565b0390f35b5080fd5b503461015c57602036600319011261015c5760018260209463ffffffff9335815282865220015460801c169051908152f35b5050346102f757816003193601126102f757905490516001600160a01b039091168152602090f35b503461015c57602036600319011261015c578160209360019235815282855220015460a01c9051908152f35b8490843461015c578260031936011261015c576102f392506103a282610440565b601082526f417373657274696f6e53746f7261676560801b602083015251918291825b6020808252825181830181905290939260005b8281106103fa57505060409293506000838284010152601f8019910116010190565b8181018601518482016040015285016103d8565b6080810190811067ffffffffffffffff82111761042a57604052565b634e487b7160e01b600052604160045260246000fd5b6040810190811067ffffffffffffffff82111761042a57604052565b60008054604051631627905560e01b815233600482015260209290918390839060249082906001600160a01b03165afa9182156105505781926104e7575b5050156104a45750565b6064906040519062461bcd60e51b825280600483015260248201527f466e2063616e206f6e6c792062652063616c6c656420627920746865206875626044820152fd5b909150823d8411610549575b601f8101601f1916820167ffffffffffffffff8111838210176105355784918391604052810103126102f757519081151582036105325750388061049a565b80fd5b634e487b7160e01b84526041600452602484fd5b503d6104f3565b50604051903d90823e3d90fdfea2646970667358221220755571efe40c7c73c29d6c8228343ebc3aa325c28c4f08697baf950bbc5d2d8064736f6c63430008100033",
  "immutableReferences": {},
  "source": "// SPDX-License-Identifier: MIT\n\npragma solidity ^0.8.4;\n\nimport {Hub} from \"../Hub.sol\";\nimport {Named} from \"../interface/Named.sol\";\nimport {Versioned} from \"../interface/Versioned.sol\";\nimport {AssertionStructs} from \"../structs/AssertionStructs.sol\";\n\ncontract AssertionStorage is Named, Versioned {\n    string private constant _NAME = \"AssertionStorage\";\n    string private constant _VERSION = \"1.0.0\";\n\n    Hub public hub;\n\n    // assertionId => Assertion\n    mapping(bytes32 => AssertionStructs.Assertion) internal assertions;\n\n    constructor(address hubAddress) {\n        require(hubAddress != address(0), \"Hub Address cannot be 0x0\");\n\n        hub = Hub(hubAddress);\n    }\n\n    modifier onlyContracts() {\n        _checkHub();\n        _;\n    }\n\n    function name() external pure virtual override returns (string memory) {\n        return _NAME;\n    }\n\n    function version() external pure virtual override returns (string memory) {\n        return _VERSION;\n    }\n\n    function createAssertion(\n        bytes32 assertionId,\n        uint128 size,\n        uint32 triplesNumber,\n        uint96 chunksNumber\n    ) external onlyContracts {\n        assertions[assertionId] = AssertionStructs.Assertion({\n            timestamp: block.timestamp,\n            size: size,\n            triplesNumber: triplesNumber,\n            chunksNumber: chunksNumber\n        });\n    }\n\n    function deleteAssertion(bytes32 assertionId) external onlyContracts {\n        delete assertions[assertionId];\n    }\n\n    function getAssertion(bytes32 assertionId) external view returns (AssertionStructs.Assertion memory) {\n        return assertions[assertionId];\n    }\n\n    function getAssertionTimestamp(bytes32 assertionId) external view returns (uint256) {\n        return assertions[assertionId].timestamp;\n    }\n\n    function getAssertionSize(bytes32 assertionId) external view returns (uint128) {\n        return assertions[assertionId].size;\n    }\n\n    function getAssertionTriplesNumber(bytes32 assertionId) external view returns (uint32) {\n        return assertions[assertionId].triplesNumber;\n    }\n\n    function getAssertionChunksNumber(bytes32 assertionId) external view returns (uint96) {\n        return assertions[assertionId].chunksNumber;\n    }\n\n    function assertionExists(bytes32 assertionId) external view returns (bool) {\n        return assertions[assertionId].timestamp != 0;\n    }\n\n    function _checkHub() internal view virtual {\n        require(hub.isContract(msg.sender), \"Fn can only be called by the hub\");\n    }\n}\n",
  "sourcePath": "/Users/waving/Desktop/OriginTrail/dkg-evm-module/contracts/storage/AssertionStorage.sol",
  "compiler": {
    "name": "solc",
    "version": "0.8.16+commit.07a7930e.Emscripten.clang"
  },
  "schemaVersion": "3.4.10",
  "updatedAt": "2022-12-14T11:36:06.436Z",
  "devdoc": {
    "kind": "dev",
    "methods": {},
    "version": 1
  },
  "userdoc": {
    "kind": "user",
    "methods": {},
    "version": 1
  }
}