{
  "contractName": "Assertion",
  "abi": [
    {
      "inputs": [
        {
          "internalType": "address",
          "name": "hubAddress",
          "type": "address"
        }
      ],
      "stateMutability": "nonpayable",
      "type": "constructor"
    },
    {
      "anonymous": false,
      "inputs": [
        {
          "indexed": true,
          "internalType": "bytes32",
          "name": "assertionId",
          "type": "bytes32"
        },
        {
          "indexed": false,
          "internalType": "address",
          "name": "issuer",
          "type": "address"
        },
        {
          "indexed": false,
          "internalType": "uint128",
          "name": "size",
          "type": "uint128"
        },
        {
          "indexed": false,
          "internalType": "uint32",
          "name": "triplesNumber",
          "type": "uint32"
        },
        {
          "indexed": false,
          "internalType": "uint96",
          "name": "chunksNumber",
          "type": "uint96"
        }
      ],
      "name": "AssertionCreated",
      "type": "event"
    },
    {
      "inputs": [],
      "name": "assertionStorage",
      "outputs": [
        {
          "internalType": "contract AssertionStorage",
          "name": "",
          "type": "address"
        }
      ],
      "stateMutability": "view",
      "type": "function"
    },
    {
      "inputs": [],
      "name": "hub",
      "outputs": [
        {
          "internalType": "contract Hub",
          "name": "",
          "type": "address"
        }
      ],
      "stateMutability": "view",
      "type": "function"
    },
    {
      "inputs": [
        {
          "internalType": "bytes32",
          "name": "assertionId",
          "type": "bytes32"
        },
        {
          "internalType": "address",
          "name": "issuer",
          "type": "address"
        },
        {
          "internalType": "uint128",
          "name": "size",
          "type": "uint128"
        },
        {
          "internalType": "uint32",
          "name": "triplesNumber",
          "type": "uint32"
        },
        {
          "internalType": "uint96",
          "name": "chunksNumber",
          "type": "uint96"
        }
      ],
      "name": "createAssertion",
      "outputs": [],
      "stateMutability": "nonpayable",
      "type": "function"
    }
  ],
  "bytecode": "0x608060405234801561001057600080fd5b506040516109ae3803806109ae83398101604081905261002f91610104565b6001600160a01b03811661004257600080fd5b600080546001600160a01b0319166001600160a01b038316908117909155604051630110ceef60e21b815260206004820152601060248201526f417373657274696f6e53746f7261676560801b60448201526304433bbc90606401602060405180830381865afa1580156100ba573d6000803e3d6000fd5b505050506040513d601f19601f820116820180604052508101906100de9190610104565b600180546001600160a01b0319166001600160a01b039290921691909117905550610134565b60006020828403121561011657600080fd5b81516001600160a01b038116811461012d57600080fd5b9392505050565b61086b806101436000396000f3fe608060405234801561001057600080fd5b50600436106100415760003560e01c8063365a86fc14610046578063448338bd1461008f578063d210b7cf146100a4575b600080fd5b6000546100669073ffffffffffffffffffffffffffffffffffffffff1681565b60405173ffffffffffffffffffffffffffffffffffffffff909116815260200160405180910390f35b6100a261009d366004610758565b6100c4565b005b6001546100669073ffffffffffffffffffffffffffffffffffffffff1681565b6100cc610639565b60015473ffffffffffffffffffffffffffffffffffffffff1685610151576040517f08c379a000000000000000000000000000000000000000000000000000000000815260206004820152601c60248201527f417373657274696f6e2049442063616e6e6f7420626520656d7074790000000060448201526064015b60405180910390fd5b73ffffffffffffffffffffffffffffffffffffffff85166101ce576040517f08c379a000000000000000000000000000000000000000000000000000000000815260206004820152601c60248201527f49737375657220616464726573732063616e6e6f7420626520307830000000006044820152606401610148565b6040517f5a4038f50000000000000000000000000000000000000000000000000000000081526004810187905273ffffffffffffffffffffffffffffffffffffffff821690635a4038f590602401602060405180830381865afa158015610239573d6000803e3d6000fd5b505050506040513d601f19601f8201168201806040525081019061025d91906107ef565b15801561032457506040517f0828e9f30000000000000000000000000000000000000000000000000000000081526004810187905273ffffffffffffffffffffffffffffffffffffffff821690630828e9f390602401602060405180830381865afa1580156102d0573d6000803e3d6000fd5b505050506040513d601f19601f820116820180604052508101906102f49190610818565b73ffffffffffffffffffffffffffffffffffffffff168573ffffffffffffffffffffffffffffffffffffffff1614155b61038a576040517f08c379a000000000000000000000000000000000000000000000000000000000815260206004820152601860248201527f417373657274696f6e20616c72656164792065786973747300000000000000006044820152606401610148565b836fffffffffffffffffffffffffffffffff16600003610406576040517f08c379a000000000000000000000000000000000000000000000000000000000815260206004820152601060248201527f53697a652063616e6e6f742062652030000000000000000000000000000000006044820152606401610148565b8263ffffffff16600003610476576040517f08c379a000000000000000000000000000000000000000000000000000000000815260206004820152601a60248201527f547269706c6573206e756d6265722063616e6e6f7420626520300000000000006044820152606401610148565b816bffffffffffffffffffffffff166000036104ee576040517f08c379a000000000000000000000000000000000000000000000000000000000815260206004820152601960248201527f4368756e6b73206e756d6265722063616e6e6f742062652030000000000000006044820152606401610148565b6040517f448338bd0000000000000000000000000000000000000000000000000000000081526004810187905273ffffffffffffffffffffffffffffffffffffffff86811660248301526fffffffffffffffffffffffffffffffff8616604483015263ffffffff851660648301526bffffffffffffffffffffffff8416608483015282169063448338bd9060a401600060405180830381600087803b15801561059657600080fd5b505af11580156105aa573d6000803e3d6000fd5b50506040805173ffffffffffffffffffffffffffffffffffffffff891681526fffffffffffffffffffffffffffffffff8816602082015263ffffffff8716818301526bffffffffffffffffffffffff8616606082015290518993507fe0abc42b99f2943708059678140f1c02c6ca3ad0c5f46e7030d30c17b4ad563892509081900360800190a2505050505050565b6000546040517f8d5d2d8500000000000000000000000000000000000000000000000000000000815233600482015273ffffffffffffffffffffffffffffffffffffffff90911690638d5d2d8590602401602060405180830381865afa1580156106a7573d6000803e3d6000fd5b505050506040513d601f19601f820116820180604052508101906106cb91906107ef565b610731576040517f08c379a000000000000000000000000000000000000000000000000000000000815260206004820152601f60248201527f466e2063616e206f6e6c792062652063616c6c656420627920617373657473006044820152606401610148565b565b73ffffffffffffffffffffffffffffffffffffffff8116811461075557600080fd5b50565b600080600080600060a0868803121561077057600080fd5b85359450602086013561078281610733565b935060408601356fffffffffffffffffffffffffffffffff811681146107a757600080fd5b9250606086013563ffffffff811681146107c057600080fd5b915060808601356bffffffffffffffffffffffff811681146107e157600080fd5b809150509295509295909350565b60006020828403121561080157600080fd5b8151801515811461081157600080fd5b9392505050565b60006020828403121561082a57600080fd5b81516108118161073356fea2646970667358221220f4a668863fcdceb10489203c604c3b21f8a251a884e67117f8c1ff0b99af90b164736f6c634300080e0033",
  "immutableReferences": {},
  "source": "// SPDX-License-Identifier: MIT\n\npragma solidity ^0.8.0;\n\nimport { Hub } from \"./Hub.sol\";\nimport { AssertionStorage } from \"./storage/AssertionStorage.sol\";\nimport { AssertionStructs } from \"./structs/AssertionStructs.sol\";\n\ncontract Assertion {\n\n\tevent AssertionCreated(\n\t\tbytes32 indexed assertionId, address issuer, uint128 size, uint32 triplesNumber, uint96 chunksNumber\n\t);\n\n\tHub public hub;\n\tAssertionStorage public assertionStorage;\n\n\tconstructor(address hubAddress) {\n\t\trequire(hubAddress != address(0));\n\n\t\thub = Hub(hubAddress);\n\t\tassertionStorage = AssertionStorage(hub.getContractAddress(\"AssertionStorage\"));\n\t}\n\n\tmodifier onlyAssetContracts() {\n        _checkAssetContract();\n        _;\n    }\n\n\tfunction createAssertion(\n\t\tbytes32 assertionId,\n\t\taddress issuer,\n\t\tuint128 size,\n\t\tuint32 triplesNumber,\n\t\tuint96 chunksNumber\n\t)\n\t\texternal\n\t\tonlyAssetContracts\n\t{\n\t\tAssertionStorage ans = assertionStorage;\n\n\t\trequire(assertionId != bytes32(0), \"Assertion ID cannot be empty\");\n\t\trequire(issuer != address(0), \"Issuer address cannot be 0x0\");\n\t\trequire(\n\t\t\t!ans.assertionExists(assertionId) && (issuer != ans.getAssertionIssuer(assertionId)),\n\t\t\t\"Assertion already exists\"\n\t\t);\n\t\trequire(size != 0, \"Size cannot be 0\");\n\t\trequire(triplesNumber != 0, \"Triples number cannot be 0\");\n\t\trequire(chunksNumber != 0, \"Chunks number cannot be 0\");\n\n\t\tans.createAssertion(assertionId, issuer, size, triplesNumber, chunksNumber);\n\n\t\temit AssertionCreated(assertionId, issuer, size, triplesNumber, chunksNumber);\n\t}\n\n\tfunction _checkAssetContract() internal view virtual {\n\t\trequire (hub.isAssetContract(msg.sender), \"Fn can only be called by assets\");\n\t}\n\n}",
  "sourcePath": "/Users/waving/Desktop/OriginTrail/dkg-evm-module/contracts/Assertion.sol",
  "compiler": {
    "name": "solc",
    "version": "0.8.14+commit.80d49f37.Emscripten.clang"
  },
  "schemaVersion": "3.4.10",
  "updatedAt": "2022-12-02T20:40:59.551Z",
  "devdoc": {
    "kind": "dev",
    "methods": {},
    "version": 1
  },
  "userdoc": {
    "kind": "user",
    "methods": {},
    "version": 1
  }
}