{
  "contractName": "ContentAssetStorage",
  "abi": [
    {
      "inputs": [
        {
          "internalType": "address",
          "name": "hubAddress",
          "type": "address"
        }
      ],
      "stateMutability": "nonpayable",
      "type": "constructor"
    },
    {
      "anonymous": false,
      "inputs": [
        {
          "indexed": true,
          "internalType": "address",
          "name": "owner",
          "type": "address"
        },
        {
          "indexed": true,
          "internalType": "address",
          "name": "approved",
          "type": "address"
        },
        {
          "indexed": true,
          "internalType": "uint256",
          "name": "tokenId",
          "type": "uint256"
        }
      ],
      "name": "Approval",
      "type": "event"
    },
    {
      "anonymous": false,
      "inputs": [
        {
          "indexed": true,
          "internalType": "address",
          "name": "owner",
          "type": "address"
        },
        {
          "indexed": true,
          "internalType": "address",
          "name": "operator",
          "type": "address"
        },
        {
          "indexed": false,
          "internalType": "bool",
          "name": "approved",
          "type": "bool"
        }
      ],
      "name": "ApprovalForAll",
      "type": "event"
    },
    {
      "anonymous": false,
      "inputs": [
        {
          "indexed": true,
          "internalType": "address",
          "name": "from",
          "type": "address"
        },
        {
          "indexed": true,
          "internalType": "address",
          "name": "to",
          "type": "address"
        },
        {
          "indexed": true,
          "internalType": "uint256",
          "name": "tokenId",
          "type": "uint256"
        }
      ],
      "name": "Transfer",
      "type": "event"
    },
    {
      "inputs": [
        {
          "internalType": "address",
          "name": "to",
          "type": "address"
        },
        {
          "internalType": "uint256",
          "name": "tokenId",
          "type": "uint256"
        }
      ],
      "name": "approve",
      "outputs": [],
      "stateMutability": "nonpayable",
      "type": "function"
    },
    {
      "inputs": [
        {
          "internalType": "address",
          "name": "owner",
          "type": "address"
        }
      ],
      "name": "balanceOf",
      "outputs": [
        {
          "internalType": "uint256",
          "name": "",
          "type": "uint256"
        }
      ],
      "stateMutability": "view",
      "type": "function"
    },
    {
      "inputs": [
        {
          "internalType": "uint256",
          "name": "tokenId",
          "type": "uint256"
        }
      ],
      "name": "getApproved",
      "outputs": [
        {
          "internalType": "address",
          "name": "",
          "type": "address"
        }
      ],
      "stateMutability": "view",
      "type": "function"
    },
    {
      "inputs": [
        {
          "internalType": "uint256",
          "name": "tokenId",
          "type": "uint256"
        },
        {
          "internalType": "uint256",
          "name": "index",
          "type": "uint256"
        }
      ],
      "name": "getAssertionIdByIndex",
      "outputs": [
        {
          "internalType": "bytes32",
          "name": "",
          "type": "bytes32"
        }
      ],
      "stateMutability": "view",
      "type": "function"
    },
    {
      "inputs": [
        {
          "internalType": "uint256",
          "name": "tokenId",
          "type": "uint256"
        }
      ],
      "name": "getAssertionIdsLength",
      "outputs": [
        {
          "internalType": "uint256",
          "name": "",
          "type": "uint256"
        }
      ],
      "stateMutability": "view",
      "type": "function"
    },
    {
      "inputs": [
        {
          "internalType": "uint256",
          "name": "tokenId",
          "type": "uint256"
        }
      ],
      "name": "getLatestAssertionId",
      "outputs": [
        {
          "internalType": "bytes32",
          "name": "",
          "type": "bytes32"
        }
      ],
      "stateMutability": "view",
      "type": "function"
    },
    {
      "inputs": [],
      "name": "hub",
      "outputs": [
        {
          "internalType": "contract Hub",
          "name": "",
          "type": "address"
        }
      ],
      "stateMutability": "view",
      "type": "function"
    },
    {
      "inputs": [
        {
          "internalType": "address",
          "name": "owner",
          "type": "address"
        },
        {
          "internalType": "address",
          "name": "operator",
          "type": "address"
        }
      ],
      "name": "isApprovedForAll",
      "outputs": [
        {
          "internalType": "bool",
          "name": "",
          "type": "bool"
        }
      ],
      "stateMutability": "view",
      "type": "function"
    },
    {
      "inputs": [
        {
          "internalType": "bytes32",
          "name": "",
          "type": "bytes32"
        }
      ],
      "name": "issuers",
      "outputs": [
        {
          "internalType": "address",
          "name": "",
          "type": "address"
        }
      ],
      "stateMutability": "view",
      "type": "function"
    },
    {
      "inputs": [
        {
          "internalType": "uint256",
          "name": "tokenId",
          "type": "uint256"
        }
      ],
      "name": "ownerOf",
      "outputs": [
        {
          "internalType": "address",
          "name": "",
          "type": "address"
        }
      ],
      "stateMutability": "view",
      "type": "function"
    },
    {
      "inputs": [
        {
          "internalType": "address",
          "name": "from",
          "type": "address"
        },
        {
          "internalType": "address",
          "name": "to",
          "type": "address"
        },
        {
          "internalType": "uint256",
          "name": "tokenId",
          "type": "uint256"
        }
      ],
      "name": "safeTransferFrom",
      "outputs": [],
      "stateMutability": "nonpayable",
      "type": "function"
    },
    {
      "inputs": [
        {
          "internalType": "address",
          "name": "from",
          "type": "address"
        },
        {
          "internalType": "address",
          "name": "to",
          "type": "address"
        },
        {
          "internalType": "uint256",
          "name": "tokenId",
          "type": "uint256"
        },
        {
          "internalType": "bytes",
          "name": "data",
          "type": "bytes"
        }
      ],
      "name": "safeTransferFrom",
      "outputs": [],
      "stateMutability": "nonpayable",
      "type": "function"
    },
    {
      "inputs": [
        {
          "internalType": "address",
          "name": "operator",
          "type": "address"
        },
        {
          "internalType": "bool",
          "name": "approved",
          "type": "bool"
        }
      ],
      "name": "setApprovalForAll",
      "outputs": [],
      "stateMutability": "nonpayable",
      "type": "function"
    },
    {
      "inputs": [
        {
          "internalType": "bytes4",
          "name": "interfaceId",
          "type": "bytes4"
        }
      ],
      "name": "supportsInterface",
      "outputs": [
        {
          "internalType": "bool",
          "name": "",
          "type": "bool"
        }
      ],
      "stateMutability": "view",
      "type": "function"
    },
    {
      "inputs": [],
      "name": "symbol",
      "outputs": [
        {
          "internalType": "string",
          "name": "",
          "type": "string"
        }
      ],
      "stateMutability": "view",
      "type": "function"
    },
    {
      "inputs": [
        {
          "internalType": "uint256",
          "name": "tokenId",
          "type": "uint256"
        }
      ],
      "name": "tokenURI",
      "outputs": [
        {
          "internalType": "string",
          "name": "",
          "type": "string"
        }
      ],
      "stateMutability": "view",
      "type": "function"
    },
    {
      "inputs": [
        {
          "internalType": "address",
          "name": "from",
          "type": "address"
        },
        {
          "internalType": "address",
          "name": "to",
          "type": "address"
        },
        {
          "internalType": "uint256",
          "name": "tokenId",
          "type": "uint256"
        }
      ],
      "name": "transferFrom",
      "outputs": [],
      "stateMutability": "nonpayable",
      "type": "function"
    },
    {
      "inputs": [],
      "name": "name",
      "outputs": [
        {
          "internalType": "string",
          "name": "",
          "type": "string"
        }
      ],
      "stateMutability": "view",
      "type": "function"
    },
    {
      "inputs": [],
      "name": "version",
      "outputs": [
        {
          "internalType": "string",
          "name": "",
          "type": "string"
        }
      ],
      "stateMutability": "pure",
      "type": "function"
    },
    {
      "inputs": [
        {
          "internalType": "address",
          "name": "to",
          "type": "address"
        },
        {
          "internalType": "uint256",
          "name": "tokenId",
          "type": "uint256"
        }
      ],
      "name": "mint",
      "outputs": [],
      "stateMutability": "nonpayable",
      "type": "function"
    },
    {
      "inputs": [],
      "name": "generateTokenId",
      "outputs": [
        {
          "internalType": "uint256",
          "name": "",
          "type": "uint256"
        }
      ],
      "stateMutability": "nonpayable",
      "type": "function"
    },
    {
      "inputs": [
        {
          "internalType": "uint256",
          "name": "tokenId",
          "type": "uint256"
        }
      ],
      "name": "getAsset",
      "outputs": [
        {
          "components": [
            {
              "internalType": "bytes32[]",
              "name": "assertionIds",
              "type": "bytes32[]"
            }
          ],
          "internalType": "struct ContentAssetStructs.Asset",
          "name": "",
          "type": "tuple"
        }
      ],
      "stateMutability": "view",
      "type": "function"
    },
    {
      "inputs": [
        {
          "internalType": "uint256",
          "name": "tokenId",
          "type": "uint256"
        },
        {
          "internalType": "bytes32",
          "name": "assertionId",
          "type": "bytes32"
        }
      ],
      "name": "pushAssertionId",
      "outputs": [],
      "stateMutability": "nonpayable",
      "type": "function"
    },
    {
      "inputs": [
        {
          "internalType": "uint256",
          "name": "tokenId",
          "type": "uint256"
        }
      ],
      "name": "getAssertionIds",
      "outputs": [
        {
          "internalType": "bytes32[]",
          "name": "",
          "type": "bytes32[]"
        }
      ],
      "stateMutability": "view",
      "type": "function"
    },
    {
      "inputs": [
        {
          "internalType": "uint256",
          "name": "tokenId",
          "type": "uint256"
        },
        {
          "internalType": "bytes32",
          "name": "assertionId",
          "type": "bytes32"
        },
        {
          "internalType": "address",
          "name": "issuer",
          "type": "address"
        }
      ],
      "name": "setAssertionIssuer",
      "outputs": [],
      "stateMutability": "nonpayable",
      "type": "function"
    },
    {
      "inputs": [
        {
          "internalType": "uint256",
          "name": "tokenId",
          "type": "uint256"
        },
        {
          "internalType": "bytes32",
          "name": "assertionId",
          "type": "bytes32"
        },
        {
          "internalType": "uint256",
          "name": "assertionIndex",
          "type": "uint256"
        }
      ],
      "name": "getAssertionIssuer",
      "outputs": [
        {
          "internalType": "address",
          "name": "",
          "type": "address"
        }
      ],
      "stateMutability": "view",
      "type": "function"
    },
    {
      "inputs": [
        {
          "internalType": "bytes32",
          "name": "assetAssertionId",
          "type": "bytes32"
        }
      ],
      "name": "assertionExists",
      "outputs": [
        {
          "internalType": "bool",
          "name": "",
          "type": "bool"
        }
      ],
      "stateMutability": "view",
      "type": "function"
    }
  ],
  "bytecode": "0x608034620003b2576001600160401b03601f601f19620019de388190038381018316860185811187821017620003b757869282916040528339602095869181010312620003b257516001600160a01b03811690819003620003b25762000064620003cd565b94601386527f436f6e74656e74417373657453746f72616765000000000000000000000000008187015262000098620003cd565b926003845262444b4760e81b8285015282156200036d57600080546001600160a01b03191690931783558651868111620003595760019788548981811c911680156200034e575b858210146200033a57908188849311620002e7575b508490888311600114620002865786926200027a575b5050600019600383901b1c191690881b1787555b835195861162000266576002548781811c911680156200025b575b838210146200024757858111620001fe575b508194861160011462000196575050918394918493946200018a575b50501b916000199060031b1c1916176002555b6040516115f09081620003ee8239f35b01519250388062000167565b600283528183209493928692918316915b88838310620001e35750505010620001c9575b505050811b016002556200017a565b015160001960f88460031b161c19169055388080620001ba565b858701518855909601959485019487935090810190620001a7565b600284528284208680890160051c820192858a106200023d575b0160051c019088905b828110620002315750506200014b565b85815501889062000221565b9250819262000218565b634e487b7160e01b84526022600452602484fd5b90607f169062000139565b634e487b7160e01b83526041600452602483fd5b0151905038806200010a565b90848b94169184885286882092885b88828210620002d05750508411620002b6575b505050811b0187556200011e565b015160001960f88460031b161c19169055388080620002a8565b8385015186558e9790950194938401930162000295565b9091508986528486208880850160051c82019287861062000330575b918c91869594930160051c01915b82811062000321575050620000f4565b8881558594508c910162000311565b9250819262000303565b634e487b7160e01b86526022600452602486fd5b90607f1690620000df565b634e487b7160e01b84526041600452602484fd5b60405162461bcd60e51b815260048101839052601960248201527f48756220416464726573732063616e6e6f7420626520307830000000000000006044820152606490fd5b600080fd5b634e487b7160e01b600052604160045260246000fd5b60408051919082016001600160401b03811183821017620003b75760405256fe6080604081815260048036101561001557600080fd5b600092833560e01c90816301ffc9a714610e055750806306fdde0314610d39578063081812fc14610d19578063095ea7b314610ba85780630bc29f0f14610b3b57806323b872dd14610b10578063365a86fc14610ae8578063367bcd9f14610a6b57806340c10f191461092357806342842e0e146108d357806354fd4d50146108675780635a4038f5146108335780636352211e1461080257806369941ccc146107a75780636db609551461077957806370a08231146106e857806375e5231b146106b657806395d89b411461059f578063a22cb465146104d4578063b88d4fde14610449578063c53a441314610417578063c87b56dd146103a7578063cede992f1461034e578063e985e9c514610300578063eac8f5b81461026f578063eaeb16951461017e5763fef57daf1461014c57600080fd5b3461017a57602036600319011261017a5781602093610172923581526008855220611497565b519051908152f35b8280fd5b503461017a57606036600319011261017a576044356001600160a01b038116919081359083900361026b576101b16114e8565b835163fef57daf60e01b81529182018190526020908183602481305afa92831561026157869361022c575b5084518281019182526024356020830152604082019390935260099261020f81606084015b03601f198101835282610f49565b51902085525281832080546001600160a01b031916909117905551f35b92508183813d831161025a575b6102438183610f49565b81010312610256579151916102016101dc565b8580fd5b503d610239565b85513d88823e3d90fd5b8480fd5b508290346102fc576020908160031936011261017a5760608493945161029481610f17565b5235835260088152818320926102b48351946102af86610f17565b611497565b8452825193849383855284019051928080860152835180925280606086019401925b8281106102e557505050500390f35b8351855286955093810193928101926001016102d6565b5080fd5b5050346102fc57806003193601126102fc5760ff81602093610320610eb1565b610328610ecc565b6001600160a01b0391821683526006875283832091168252855220549151911615158152f35b5091346103a45760203660031901126103a457823581526008602052610375828220611497565b805160001981019290831161039157602084610172858561146d565b634e487b7160e01b815260118552602490fd5b80fd5b509190346102fc5760203660031901126102fc576103e66103e16104139435600052600360205260018060a01b0360406000205416151590565b610f87565b8181516103f281610f17565b528051916103ff83610f17565b825251918291602083526020830190610e71565b0390f35b503461017a57602036600319011261017a5735825260096020908152918190205490516001600160a01b039091168152f35b503461017a57608036600319011261017a57610463610eb1565b9061046c610ecc565b916064359167ffffffffffffffff8311610256573660238401121561025657820135928561049985610f6b565b936104a687519586610f49565b85855236602487830101116102fc57856104d19660246020930183880137850101526044359161109a565b51f35b503461017a578160031936011261017a576104ed610eb1565b6024359081151580920361026b576001600160a01b03169133831461055c5750338452600660205282842082855260205282842060ff1981541660ff831617905582519081527f17307eab39ab6107e8899845ad3d59bd9653f200f220920489ca2b5937696c3160203392a351f35b606490602085519162461bcd60e51b8352820152601960248201527f4552433732313a20617070726f766520746f2063616c6c6572000000000000006044820152fd5b5091346103a457806003193601126103a4578151918160025492600184811c918186169586156106ac575b6020968785108114610699578899509688969785829a529182600014610672575050600114610616575b5050506104139291610607910385610f49565b51928284938452830190610e71565b9190869350600283527f405787fa12a823e0f2b7631cc41b3ba8828b3321ca811111fa75cd3aa3bb5ace5b82841061065a57505050820101816106076104136105f4565b8054848a018601528895508794909301928101610641565b60ff19168782015293151560051b86019093019350849250610607915061041390506105f4565b634e487b7160e01b835260228a52602483fd5b92607f16926105ca565b503461017a578160031936011261017a5760209261017291358152600884526106e3836024359220611497565b61146d565b5091346103a45760203660031901126103a4576001600160a01b0361070b610eb1565b1680156107245781526020928352819020549051908152f35b825162461bcd60e51b8152602081860152602960248201527f4552433732313a2061646472657373207a65726f206973206e6f7420612076616044820152683634b21037bbb732b960b91b6064820152608490fd5b5050346102fc57816003193601126102fc576020906107966114e8565b600754906001820160075551908152f35b503461017a57606036600319011261017a578151903560208281019182526024356040840152604435606084015293916107e48160808101610201565b5190208152600983528190205490516001600160a01b039091168152f35b5091346103a45760203660031901126103a4575061082260209235610fd3565b90516001600160a01b039091168152f35b503461017a57602036600319011261017a5735825260096020908152918190205490516001600160a01b0390911615158152f35b509190346102fc57816003193601126102fc578051918183019083821067ffffffffffffffff8311176108c057506104139350815260058252640312e302e360dc1b602083015251918291602083526020830190610e71565b634e487b7160e01b815260418552602490fd5b509190346102fc576108e436610ee2565b908351926020840184811067ffffffffffffffff82111761091057856104d1969798505286845261109a565b634e487b7160e01b875260418852602487fd5b50903461017a578060031936011261017a5761093d610eb1565b906024359161094a6114e8565b6001600160a01b0316928315610a29576000838152600360205260409020546001600160a01b03166109e75783855280602052818520805491600183018093116109d4575055818452600360205280842080546001600160a01b031916841790555191837fddf252ad1be2c89b69c2b068fc378daa952ba7f163c4a11628f55a4df523b3ef8185a4f35b634e487b7160e01b875260119052602486fd5b6020606492519162461bcd60e51b8352820152601c60248201527f4552433732313a20746f6b656e20616c7265616479206d696e746564000000006044820152fd5b6020606492519162461bcd60e51b8352820152602060248201527f4552433732313a206d696e7420746f20746865207a65726f20616464726573736044820152fd5b503461017a578160031936011261017a57610a846114e8565b80358352600860205281832080549168010000000000000000831015610ad55760018301808355831015610ac2575083526024359060208420015551f35b634e487b7160e01b855260329052602484fd5b634e487b7160e01b855260419052602484fd5b5050346102fc57816003193601126102fc57905490516001600160a01b039091168152602090f35b5050346102fc576104d1610b2336610ee2565b91610b36610b318433611135565b611037565b6111a3565b50903461017a5760209182600319360112610ba45792909235815260088252610b65838220611497565b9083519383808695860192818752855180945286019401925b828110610b8d57505050500390f35b835185528695509381019392810192600101610b7e565b8380fd5b503461017a578160031936011261017a57610bc1610eb1565b602435916001600160a01b03908180610bd986610fd3565b16931692808414610ccc57803314908115610cad575b5015610c445750828552600560205283852080546001600160a01b03191683179055610c1a83610fd3565b169251927f8c5be1e5ebec7d5bd14f71427d1e84f3dd0314c0f7b2291e5b200ac8c7c3b9258585a4f35b608490602086519162461bcd60e51b8352820152603e60248201527f4552433732313a20617070726f76652063616c6c6572206973206e6f7420746f60448201527f6b656e206f776e6572206e6f7220617070726f76656420666f7220616c6c00006064820152fd5b90508652600660205284862033875260205260ff858720541638610bef565b855162461bcd60e51b8152602081840152602160248201527f4552433732313a20617070726f76616c20746f2063757272656e74206f776e656044820152603960f91b6064820152608490fd5b5091346103a45760203660031901126103a4575061082260209235610ff9565b5091346103a457806003193601126103a4578151918160019283549384811c91818616958615610dfb575b6020968785108114610699578899509688969785829a529182600014610672575050600114610da0575050506104139291610607910385610f49565b91908693508083527fb10e2d527612073b26eecdfd717e6a320cf44b4afac2b0732d9fcbe2b7fa0cf65b828410610de357505050820101816106076104136105f4565b8054848a018601528895508794909301928101610dca565b92607f1692610d64565b9250503461017a57602036600319011261017a573563ffffffff60e01b811680910361017a57602092506380ac58cd60e01b8114908115610e60575b8115610e4f575b5015158152f35b6301ffc9a760e01b14905038610e48565b635b5e139f60e01b81149150610e41565b919082519283825260005b848110610e9d575050826000602080949584010152601f8019910116010190565b602081830181015184830182015201610e7c565b600435906001600160a01b0382168203610ec757565b600080fd5b602435906001600160a01b0382168203610ec757565b6060906003190112610ec7576001600160a01b03906004358281168103610ec757916024359081168103610ec7579060443590565b6020810190811067ffffffffffffffff821117610f3357604052565b634e487b7160e01b600052604160045260246000fd5b90601f8019910116810190811067ffffffffffffffff821117610f3357604052565b67ffffffffffffffff8111610f3357601f01601f191660200190565b15610f8e57565b60405162461bcd60e51b815260206004820152601860248201527f4552433732313a20696e76616c696420746f6b656e20494400000000000000006044820152606490fd5b6000908152600360205260409020546001600160a01b0316610ff6811515610f87565b90565b60008181526003602052604090205461101c906001600160a01b03161515610f87565b6000908152600560205260409020546001600160a01b031690565b1561103e57565b60405162461bcd60e51b815260206004820152602e60248201527f4552433732313a2063616c6c6572206973206e6f7420746f6b656e206f776e6560448201526d1c881b9bdc88185c1c1c9bdd995960921b6064820152608490fd5b906110be9392916110ae610b318433611135565b6110b98383836111a3565b61134c565b156110c557565b60405162461bcd60e51b8152806110de600482016110e2565b0390fd5b60809060208152603260208201527f4552433732313a207472616e7366657220746f206e6f6e20455243373231526560408201527131b2b4bb32b91034b6b83632b6b2b73a32b960711b60608201520190565b906001600160a01b03808061114984610fd3565b1693169183831493841561117c575b508315611166575b50505090565b61117291929350610ff9565b1614388080611160565b909350600052600660205260406000208260005260205260ff604060002054169238611158565b6111ac83610fd3565b6001600160a01b0392918316919083168290036112f95782169182156112a857600084815260056020526040812080546001600160a01b031990811690915590916111f686610fd3565b16908583604051937f8c5be1e5ebec7d5bd14f71427d1e84f3dd0314c0f7b2291e5b200ac8c7c3b9258286a4838352600460205260408320805460001981019190821161129457558483526004602052604083208054906001820180921161129457558583526003602052604083208054909116851790557fddf252ad1be2c89b69c2b068fc378daa952ba7f163c4a11628f55a4df523b3ef9190a4565b634e487b7160e01b85526011600452602485fd5b60405162461bcd60e51b8152602060048201526024808201527f4552433732313a207472616e7366657220746f20746865207a65726f206164646044820152637265737360e01b6064820152608490fd5b60405162461bcd60e51b815260206004820152602560248201527f4552433732313a207472616e736665722066726f6d20696e636f72726563742060448201526437bbb732b960d91b6064820152608490fd5b9293600093909291803b15611462579484916113a69660405180948193630a85bd0160e11b9788845233600485015260018060a01b0380921660248501526044840152608060648401528260209b8c976084830190610e71565b0393165af1849181611422575b50611411575050503d600014611409573d6113cd81610f6b565b906113db6040519283610f49565b81528091833d92013e5b805191826114065760405162461bcd60e51b8152806110de600482016110e2565b01fd5b5060606113e5565b6001600160e01b0319161492509050565b9091508581813d831161145b575b61143a8183610f49565b8101031261026b57516001600160e01b03198116810361026b5790386113b3565b503d611430565b505050915050600190565b80518210156114815760209160051b010190565b634e487b7160e01b600052603260045260246000fd5b9060405191828154918282526020928383019160005283600020936000905b8282106114ce575050506114cc92500383610f49565b565b8554845260019586019588955093810193909101906114b6565b60008054604051631627905560e01b815233600482015260209290918390839060249082906001600160a01b03165afa9182156115ad578192611573575b5050156115305750565b6064906040519062461bcd60e51b825280600483015260248201527f466e2063616e206f6e6c792062652063616c6c656420627920746865206875626044820152fd5b9091508281813d83116115a6575b61158b8183610f49565b810103126102fc57519081151582036103a457503880611526565b503d611581565b50604051903d90823e3d90fdfea2646970667358221220e0705e00d7c07b1637cf422e83f1e50d198c95ff2d384059c0067e9bf81dcaef64736f6c63430008100033",
  "immutableReferences": {},
  "source": "// SPDX-License-Identifier: MIT\n\npragma solidity ^0.8.4;\n\nimport {AbstractAsset} from \"../../assets/AbstractAsset.sol\";\nimport {Hub} from \"../../Hub.sol\";\nimport {Named} from \"../../interface/Named.sol\";\nimport {ContentAssetStructs} from \"../../structs/assets/ContentAssetStructs.sol\";\nimport {ERC721} from \"@openzeppelin/contracts/token/ERC721/ERC721.sol\";\n\ncontract ContentAssetStorage is AbstractAsset, ERC721 {\n    string private constant _NAME = \"ContentAssetStorage\";\n    string private constant _VERSION = \"1.0.0\";\n\n    uint256 private _tokenId;\n\n    // tokenId => Asset\n    mapping(uint256 => ContentAssetStructs.Asset) internal assets;\n\n    // keccak256(tokenId + assertionId + assertionIdIndex) => issuer\n    mapping(bytes32 => address) public issuers;\n\n    // solhint-disable-next-line no-empty-blocks\n    constructor(address hubAddress) AbstractAsset(hubAddress) ERC721(\"ContentAssetStorage\", \"DKG\") {}\n\n    modifier onlyContracts() {\n        _checkHub();\n        _;\n    }\n\n    function name() public view override(Named, ERC721) returns (string memory) {\n        return ERC721.name();\n    }\n\n    function version() external pure override returns (string memory) {\n        return _VERSION;\n    }\n\n    function mint(address to, uint256 tokenId) external onlyContracts {\n        _mint(to, tokenId);\n    }\n\n    function generateTokenId() external onlyContracts returns (uint256) {\n        unchecked {\n            return _tokenId++;\n        }\n    }\n\n    function getAsset(uint256 tokenId) external view returns (ContentAssetStructs.Asset memory) {\n        return assets[tokenId];\n    }\n\n    function pushAssertionId(uint256 tokenId, bytes32 assertionId) external onlyContracts {\n        assets[tokenId].assertionIds.push(assertionId);\n    }\n\n    function getAssertionIds(uint256 tokenId) public view override returns (bytes32[] memory) {\n        return assets[tokenId].assertionIds;\n    }\n\n    function setAssertionIssuer(uint256 tokenId, bytes32 assertionId, address issuer) external onlyContracts {\n        issuers[keccak256(abi.encodePacked(tokenId, assertionId, this.getAssertionIdsLength(tokenId)))] = issuer;\n    }\n\n    function getAssertionIssuer(\n        uint256 tokenId,\n        bytes32 assertionId,\n        uint256 assertionIndex\n    ) external view returns (address) {\n        return issuers[keccak256(abi.encodePacked(tokenId, assertionId, assertionIndex))];\n    }\n\n    function assertionExists(bytes32 assetAssertionId) external view returns (bool) {\n        return issuers[assetAssertionId] != address(0);\n    }\n\n    function _checkHub() internal view virtual {\n        require(hub.isContract(msg.sender), \"Fn can only be called by the hub\");\n    }\n}\n",
  "sourcePath": "/Users/waving/Desktop/OriginTrail/dkg-evm-module/contracts/storage/assets/ContentAssetStorage.sol",
  "compiler": {
    "name": "solc",
    "version": "0.8.16+commit.07a7930e.Emscripten.clang"
  },
  "schemaVersion": "3.4.10",
  "updatedAt": "2022-12-12T12:30:10.780Z",
  "devdoc": {
    "kind": "dev",
    "methods": {
      "approve(address,uint256)": {
        "details": "See {IERC721-approve}."
      },
      "balanceOf(address)": {
        "details": "See {IERC721-balanceOf}."
      },
      "getApproved(uint256)": {
        "details": "See {IERC721-getApproved}."
      },
      "isApprovedForAll(address,address)": {
        "details": "See {IERC721-isApprovedForAll}."
      },
      "ownerOf(uint256)": {
        "details": "See {IERC721-ownerOf}."
      },
      "safeTransferFrom(address,address,uint256)": {
        "details": "See {IERC721-safeTransferFrom}."
      },
      "safeTransferFrom(address,address,uint256,bytes)": {
        "details": "See {IERC721-safeTransferFrom}."
      },
      "setApprovalForAll(address,bool)": {
        "details": "See {IERC721-setApprovalForAll}."
      },
      "supportsInterface(bytes4)": {
        "details": "See {IERC165-supportsInterface}."
      },
      "symbol()": {
        "details": "See {IERC721Metadata-symbol}."
      },
      "tokenURI(uint256)": {
        "details": "See {IERC721Metadata-tokenURI}."
      },
      "transferFrom(address,address,uint256)": {
        "details": "See {IERC721-transferFrom}."
      }
    },
    "version": 1
  },
  "userdoc": {
    "kind": "user",
    "methods": {},
    "version": 1
  }
}