{
  "contractName": "ContentAsset",
  "abi": [
    {
      "inputs": [
        {
          "internalType": "address",
          "name": "hubAddress",
          "type": "address"
        }
      ],
      "stateMutability": "nonpayable",
      "type": "constructor"
    },
    {
      "anonymous": false,
      "inputs": [
        {
          "indexed": true,
          "internalType": "address",
          "name": "owner",
          "type": "address"
        },
        {
          "indexed": true,
          "internalType": "address",
          "name": "approved",
          "type": "address"
        },
        {
          "indexed": true,
          "internalType": "uint256",
          "name": "tokenId",
          "type": "uint256"
        }
      ],
      "name": "Approval",
      "type": "event"
    },
    {
      "anonymous": false,
      "inputs": [
        {
          "indexed": true,
          "internalType": "address",
          "name": "owner",
          "type": "address"
        },
        {
          "indexed": true,
          "internalType": "address",
          "name": "operator",
          "type": "address"
        },
        {
          "indexed": false,
          "internalType": "bool",
          "name": "approved",
          "type": "bool"
        }
      ],
      "name": "ApprovalForAll",
      "type": "event"
    },
    {
      "anonymous": false,
      "inputs": [
        {
          "indexed": true,
          "internalType": "address",
          "name": "assetContract",
          "type": "address"
        },
        {
          "indexed": true,
          "internalType": "uint256",
          "name": "tokenId",
          "type": "uint256"
        },
        {
          "indexed": true,
          "internalType": "bytes32",
          "name": "stateCommitHash",
          "type": "bytes32"
        }
      ],
      "name": "AssetCreated",
      "type": "event"
    },
    {
      "anonymous": false,
      "inputs": [
        {
          "indexed": true,
          "internalType": "address",
          "name": "assetContract",
          "type": "address"
        },
        {
          "indexed": true,
          "internalType": "uint256",
          "name": "tokenId",
          "type": "uint256"
        },
        {
          "indexed": true,
          "internalType": "bytes32",
          "name": "stateCommitHash",
          "type": "bytes32"
        }
      ],
      "name": "AssetUpdated",
      "type": "event"
    },
    {
      "anonymous": false,
      "inputs": [
        {
          "indexed": true,
          "internalType": "address",
          "name": "from",
          "type": "address"
        },
        {
          "indexed": true,
          "internalType": "address",
          "name": "to",
          "type": "address"
        },
        {
          "indexed": true,
          "internalType": "uint256",
          "name": "tokenId",
          "type": "uint256"
        }
      ],
      "name": "Transfer",
      "type": "event"
    },
    {
      "inputs": [
        {
          "internalType": "address",
          "name": "to",
          "type": "address"
        },
        {
          "internalType": "uint256",
          "name": "tokenId",
          "type": "uint256"
        }
      ],
      "name": "approve",
      "outputs": [],
      "stateMutability": "nonpayable",
      "type": "function"
    },
    {
      "inputs": [],
      "name": "assertionContract",
      "outputs": [
        {
          "internalType": "contract Assertion",
          "name": "",
          "type": "address"
        }
      ],
      "stateMutability": "view",
      "type": "function"
    },
    {
      "inputs": [
        {
          "internalType": "address",
          "name": "owner",
          "type": "address"
        }
      ],
      "name": "balanceOf",
      "outputs": [
        {
          "internalType": "uint256",
          "name": "",
          "type": "uint256"
        }
      ],
      "stateMutability": "view",
      "type": "function"
    },
    {
      "inputs": [
        {
          "internalType": "uint256",
          "name": "tokenId",
          "type": "uint256"
        }
      ],
      "name": "getApproved",
      "outputs": [
        {
          "internalType": "address",
          "name": "",
          "type": "address"
        }
      ],
      "stateMutability": "view",
      "type": "function"
    },
    {
      "inputs": [
        {
          "internalType": "uint256",
          "name": "tokenId",
          "type": "uint256"
        },
        {
          "internalType": "uint256",
          "name": "index",
          "type": "uint256"
        }
      ],
      "name": "getAssertionIdByIndex",
      "outputs": [
        {
          "internalType": "bytes32",
          "name": "",
          "type": "bytes32"
        }
      ],
      "stateMutability": "view",
      "type": "function"
    },
    {
      "inputs": [
        {
          "internalType": "uint256",
          "name": "tokenId",
          "type": "uint256"
        }
      ],
      "name": "getAssertionIdsLength",
      "outputs": [
        {
          "internalType": "uint256",
          "name": "",
          "type": "uint256"
        }
      ],
      "stateMutability": "view",
      "type": "function"
    },
    {
      "inputs": [
        {
          "internalType": "uint256",
          "name": "tokenId",
          "type": "uint256"
        }
      ],
      "name": "getLatestAssertionId",
      "outputs": [
        {
          "internalType": "bytes32",
          "name": "",
          "type": "bytes32"
        }
      ],
      "stateMutability": "view",
      "type": "function"
    },
    {
      "inputs": [],
      "name": "hub",
      "outputs": [
        {
          "internalType": "contract Hub",
          "name": "",
          "type": "address"
        }
      ],
      "stateMutability": "view",
      "type": "function"
    },
    {
      "inputs": [
        {
          "internalType": "address",
          "name": "owner",
          "type": "address"
        },
        {
          "internalType": "address",
          "name": "operator",
          "type": "address"
        }
      ],
      "name": "isApprovedForAll",
      "outputs": [
        {
          "internalType": "bool",
          "name": "",
          "type": "bool"
        }
      ],
      "stateMutability": "view",
      "type": "function"
    },
    {
      "inputs": [
        {
          "internalType": "uint256",
          "name": "tokenId",
          "type": "uint256"
        }
      ],
      "name": "ownerOf",
      "outputs": [
        {
          "internalType": "address",
          "name": "",
          "type": "address"
        }
      ],
      "stateMutability": "view",
      "type": "function"
    },
    {
      "inputs": [
        {
          "internalType": "address",
          "name": "from",
          "type": "address"
        },
        {
          "internalType": "address",
          "name": "to",
          "type": "address"
        },
        {
          "internalType": "uint256",
          "name": "tokenId",
          "type": "uint256"
        }
      ],
      "name": "safeTransferFrom",
      "outputs": [],
      "stateMutability": "nonpayable",
      "type": "function"
    },
    {
      "inputs": [
        {
          "internalType": "address",
          "name": "from",
          "type": "address"
        },
        {
          "internalType": "address",
          "name": "to",
          "type": "address"
        },
        {
          "internalType": "uint256",
          "name": "tokenId",
          "type": "uint256"
        },
        {
          "internalType": "bytes",
          "name": "data",
          "type": "bytes"
        }
      ],
      "name": "safeTransferFrom",
      "outputs": [],
      "stateMutability": "nonpayable",
      "type": "function"
    },
    {
      "inputs": [],
      "name": "serviceAgreement",
      "outputs": [
        {
          "internalType": "contract ServiceAgreementV1",
          "name": "",
          "type": "address"
        }
      ],
      "stateMutability": "view",
      "type": "function"
    },
    {
      "inputs": [
        {
          "internalType": "address",
          "name": "operator",
          "type": "address"
        },
        {
          "internalType": "bool",
          "name": "approved",
          "type": "bool"
        }
      ],
      "name": "setApprovalForAll",
      "outputs": [],
      "stateMutability": "nonpayable",
      "type": "function"
    },
    {
      "inputs": [
        {
          "internalType": "bytes4",
          "name": "interfaceId",
          "type": "bytes4"
        }
      ],
      "name": "supportsInterface",
      "outputs": [
        {
          "internalType": "bool",
          "name": "",
          "type": "bool"
        }
      ],
      "stateMutability": "view",
      "type": "function"
    },
    {
      "inputs": [],
      "name": "symbol",
      "outputs": [
        {
          "internalType": "string",
          "name": "",
          "type": "string"
        }
      ],
      "stateMutability": "view",
      "type": "function"
    },
    {
      "inputs": [
        {
          "internalType": "uint256",
          "name": "tokenId",
          "type": "uint256"
        }
      ],
      "name": "tokenURI",
      "outputs": [
        {
          "internalType": "string",
          "name": "",
          "type": "string"
        }
      ],
      "stateMutability": "view",
      "type": "function"
    },
    {
      "inputs": [
        {
          "internalType": "address",
          "name": "from",
          "type": "address"
        },
        {
          "internalType": "address",
          "name": "to",
          "type": "address"
        },
        {
          "internalType": "uint256",
          "name": "tokenId",
          "type": "uint256"
        }
      ],
      "name": "transferFrom",
      "outputs": [],
      "stateMutability": "nonpayable",
      "type": "function"
    },
    {
      "inputs": [],
      "name": "name",
      "outputs": [
        {
          "internalType": "string",
          "name": "",
          "type": "string"
        }
      ],
      "stateMutability": "view",
      "type": "function"
    },
    {
      "inputs": [
        {
          "components": [
            {
              "internalType": "bytes32",
              "name": "assertionId",
              "type": "bytes32"
            },
            {
              "internalType": "uint128",
              "name": "size",
              "type": "uint128"
            },
            {
              "internalType": "uint32",
              "name": "triplesNumber",
              "type": "uint32"
            },
            {
              "internalType": "uint96",
              "name": "chunksNumber",
              "type": "uint96"
            },
            {
              "internalType": "uint16",
              "name": "epochsNumber",
              "type": "uint16"
            },
            {
              "internalType": "uint96",
              "name": "tokenAmount",
              "type": "uint96"
            },
            {
              "internalType": "uint8",
              "name": "scoreFunctionId",
              "type": "uint8"
            }
          ],
          "internalType": "struct ContentAsset.AssetInputArgs",
          "name": "args",
          "type": "tuple"
        }
      ],
      "name": "createAsset",
      "outputs": [],
      "stateMutability": "nonpayable",
      "type": "function"
    },
    {
      "inputs": [
        {
          "internalType": "uint256",
          "name": "tokenId",
          "type": "uint256"
        },
        {
          "components": [
            {
              "internalType": "bytes32",
              "name": "assertionId",
              "type": "bytes32"
            },
            {
              "internalType": "uint128",
              "name": "size",
              "type": "uint128"
            },
            {
              "internalType": "uint32",
              "name": "triplesNumber",
              "type": "uint32"
            },
            {
              "internalType": "uint96",
              "name": "chunksNumber",
              "type": "uint96"
            },
            {
              "internalType": "uint16",
              "name": "epochsNumber",
              "type": "uint16"
            },
            {
              "internalType": "uint96",
              "name": "tokenAmount",
              "type": "uint96"
            },
            {
              "internalType": "uint8",
              "name": "scoreFunctionId",
              "type": "uint8"
            }
          ],
          "internalType": "struct ContentAsset.AssetInputArgs",
          "name": "args",
          "type": "tuple"
        }
      ],
      "name": "updateAsset",
      "outputs": [],
      "stateMutability": "nonpayable",
      "type": "function"
    },
    {
      "inputs": [
        {
          "internalType": "uint256",
          "name": "tokenId",
          "type": "uint256"
        }
      ],
      "name": "getAssertionIds",
      "outputs": [
        {
          "internalType": "bytes32[]",
          "name": "",
          "type": "bytes32[]"
        }
      ],
      "stateMutability": "view",
      "type": "function"
    }
  ],
  "bytecode": "0x60806040523480156200001157600080fd5b50604051620027a1380380620027a18339810160408190526200003491620002ce565b604080518082018252600c81526b10dbdb9d195b9d105cdcd95d60a21b60208083019190915282518084019093526003835262444b4760e81b9083015290826001600160a01b0381166200008757600080fd5b600080546001600160a01b0319166001600160a01b03929092169190911790558151620000bc90600190602085019062000228565b508051620000d290600290602084019062000228565b5050600054604051630110ceef60e21b815260206004820152600960248201526820b9b9b2b93a34b7b760b91b60448201526001600160a01b0390911691506304433bbc90606401602060405180830381865afa15801562000138573d6000803e3d6000fd5b505050506040513d601f19601f820116820180604052508101906200015e9190620002ce565b600880546001600160a01b0319166001600160a01b03928316179055600054604051630110ceef60e21b815260206004820152601060248201526f14d95c9d9a58d95059dc99595b595b9d60821b60448201529116906304433bbc90606401602060405180830381865afa158015620001db573d6000803e3d6000fd5b505050506040513d601f19601f82011682018060405250810190620002019190620002ce565b600980546001600160a01b0319166001600160a01b0392909216919091179055506200033c565b828054620002369062000300565b90600052602060002090601f0160209004810192826200025a5760008555620002a5565b82601f106200027557805160ff1916838001178555620002a5565b82800160010185558215620002a5579182015b82811115620002a557825182559160200191906001019062000288565b50620002b3929150620002b7565b5090565b5b80821115620002b35760008155600101620002b8565b600060208284031215620002e157600080fd5b81516001600160a01b0381168114620002f957600080fd5b9392505050565b600181811c908216806200031557607f821691505b6020821081036200033657634e487b7160e01b600052602260045260246000fd5b50919050565b612455806200034c6000396000f3fe608060405234801561001057600080fd5b50600436106101825760003560e01c806370a08231116100d8578063b6f614211161008c578063cede992f11610066578063cede992f14610365578063e985e9c514610378578063fef57daf146103c157600080fd5b8063b6f614211461032c578063b88d4fde1461033f578063c87b56dd1461035257600080fd5b806395d89b41116100bd57806395d89b41146102f15780639e8a8e5b146102f9578063a22cb4651461031957600080fd5b806370a08231146102bd57806375e5231b146102de57600080fd5b806323b872dd1161013a5780634b4aeac7116101145780634b4aeac7146102775780636352211e1461029757806365b34559146102aa57600080fd5b806323b872dd14610231578063365a86fc1461024457806342842e0e1461026457600080fd5b8063081812fc1161016b578063081812fc146101c4578063095ea7b3146101fc5780630bc29f0f1461021157600080fd5b806301ffc9a71461018757806306fdde03146101af575b600080fd5b61019a610195366004611ce5565b6103d4565b60405190151581526020015b60405180910390f35b6101b76104b9565b6040516101a69190611d78565b6101d76101d2366004611d8b565b6104c8565b60405173ffffffffffffffffffffffffffffffffffffffff90911681526020016101a6565b61020f61020a366004611dcd565b6104fc565b005b61022461021f366004611d8b565b61068d565b6040516101a69190611df7565b61020f61023f366004611e3b565b6106ef565b6000546101d79073ffffffffffffffffffffffffffffffffffffffff1681565b61020f610272366004611e3b565b610790565b6008546101d79073ffffffffffffffffffffffffffffffffffffffff1681565b6101d76102a5366004611d8b565b6107ab565b61020f6102b8366004611e8f565b610837565b6102d06102cb366004611eab565b610b1a565b6040519081526020016101a6565b6102d06102ec366004611ec6565b610be8565b6101b7610c19565b6009546101d79073ffffffffffffffffffffffffffffffffffffffff1681565b61020f610327366004611ee8565b610cab565b61020f61033a366004611f24565b610cba565b61020f61034d366004611f81565b610f91565b6101b7610360366004611d8b565b611039565b6102d0610373366004611d8b565b6110ad565b61019a61038636600461207b565b73ffffffffffffffffffffffffffffffffffffffff918216600090815260066020908152604080832093909416825291909152205460ff1690565b6102d06103cf366004611d8b565b6110ea565b60007fffffffff0000000000000000000000000000000000000000000000000000000082167f80ac58cd00000000000000000000000000000000000000000000000000000000148061046757507fffffffff0000000000000000000000000000000000000000000000000000000082167f5b5e139f00000000000000000000000000000000000000000000000000000000145b806104b357507f01ffc9a7000000000000000000000000000000000000000000000000000000007fffffffff000000000000000000000000000000000000000000000000000000008316145b92915050565b60606104c36110fc565b905090565b60006104d38261110b565b5060009081526005602052604090205473ffffffffffffffffffffffffffffffffffffffff1690565b6000610507826107ab565b90508073ffffffffffffffffffffffffffffffffffffffff168373ffffffffffffffffffffffffffffffffffffffff16036105c9576040517f08c379a000000000000000000000000000000000000000000000000000000000815260206004820152602160248201527f4552433732313a20617070726f76616c20746f2063757272656e74206f776e6560448201527f720000000000000000000000000000000000000000000000000000000000000060648201526084015b60405180910390fd5b3373ffffffffffffffffffffffffffffffffffffffff821614806105f257506105f28133610386565b61067e576040517f08c379a000000000000000000000000000000000000000000000000000000000815260206004820152603e60248201527f4552433732313a20617070726f76652063616c6c6572206973206e6f7420746f60448201527f6b656e206f776e6572206e6f7220617070726f76656420666f7220616c6c000060648201526084016105c0565b6106888383611199565b505050565b6000818152600a60209081526040918290208054835181840281018401909452808452606093928301828280156106e357602002820191906000526020600020905b8154815260200190600101908083116106cf575b50505050509050919050565b6106f93382611239565b610785576040517f08c379a000000000000000000000000000000000000000000000000000000000815260206004820152602e60248201527f4552433732313a2063616c6c6572206973206e6f7420746f6b656e206f776e6560448201527f72206e6f7220617070726f76656400000000000000000000000000000000000060648201526084016105c0565b6106888383836112f9565b61068883838360405180602001604052806000815250610f91565b60008181526003602052604081205473ffffffffffffffffffffffffffffffffffffffff16806104b3576040517f08c379a000000000000000000000000000000000000000000000000000000000815260206004820152601860248201527f4552433732313a20696e76616c696420746f6b656e204944000000000000000060448201526064016105c0565b6007805460009182610848836120d4565b9190505590506108583382611560565b60085473ffffffffffffffffffffffffffffffffffffffff1663448338bd833533610889604087016020880161210c565b610899606088016040890161213e565b6108a96080890160608a01612164565b6040517fffffffff0000000000000000000000000000000000000000000000000000000060e088901b168152600481019590955273ffffffffffffffffffffffffffffffffffffffff90931660248501526fffffffffffffffffffffffffffffffff909116604484015263ffffffff1660648301526bffffffffffffffffffffffff16608482015260a401600060405180830381600087803b15801561094e57600080fd5b505af1158015610962573d6000803e3d6000fd5b5050506000828152600a60209081526040808320805460018101825590845292829020863593018390556009548151610100810183523381523081850181905281840188905292517fffffffffffffffffffffffffffffffffffffffff000000000000000000000000606094851b169481019490945260348401879052605484019490945273ffffffffffffffffffffffffffffffffffffffff16935063e1572ce6929190820190607401604080517fffffffffffffffffffffffffffffffffffffffffffffffffffffffffffffffe08184030181529181529082526001602083015201610a5660a0870160808801612192565b61ffff168152602001610a6f60c0870160a08801612164565b6bffffffffffffffffffffffff168152602001610a9260e0870160c088016121b6565b60ff168152506040518263ffffffff1660e01b8152600401610ab491906121d9565b600060405180830381600087803b158015610ace57600080fd5b505af1158015610ae2573d6000803e3d6000fd5b50506040518435925083915030907fac922a526a52087fe0a96f1d8706cea6cfecda5848221cd24dc78515d2b3019d90600090a45050565b600073ffffffffffffffffffffffffffffffffffffffff8216610bbf576040517f08c379a000000000000000000000000000000000000000000000000000000000815260206004820152602960248201527f4552433732313a2061646472657373207a65726f206973206e6f74206120766160448201527f6c6964206f776e6572000000000000000000000000000000000000000000000060648201526084016105c0565b5073ffffffffffffffffffffffffffffffffffffffff1660009081526004602052604090205490565b600080610bf48461068d565b9050808381518110610c0857610c08612288565b602002602001015191505092915050565b606060028054610c28906122b7565b80601f0160208091040260200160405190810160405280929190818152602001828054610c54906122b7565b8015610ca15780601f10610c7657610100808354040283529160200191610ca1565b820191906000526020600020905b815481529060010190602001808311610c8457829003601f168201915b5050505050905090565b610cb6338383611722565b5050565b81610cc48161184f565b60085473ffffffffffffffffffffffffffffffffffffffff1663448338bd833533610cf5604087016020880161210c565b610d05606088016040890161213e565b610d156080890160608a01612164565b6040517fffffffff0000000000000000000000000000000000000000000000000000000060e088901b168152600481019590955273ffffffffffffffffffffffffffffffffffffffff90931660248501526fffffffffffffffffffffffffffffffff909116604484015263ffffffff1660648301526bffffffffffffffffffffffff16608482015260a401600060405180830381600087803b158015610dba57600080fd5b505af1158015610dce573d6000803e3d6000fd5b5050506000848152600a60209081526040808320805460018101825590845282842087359101556009548151610100810183523381523093810184905291820188905273ffffffffffffffffffffffffffffffffffffffff16935063271af8a892909160608301918890610e43908290610be8565b60405160609390931b7fffffffffffffffffffffffffffffffffffffffff00000000000000000000000016602084015260348301919091526054820152607401604080517fffffffffffffffffffffffffffffffffffffffffffffffffffffffffffffffe08184030181529181529082526001602083015201610ecc60a0870160808801612192565b61ffff168152602001610ee560c0870160a08801612164565b6bffffffffffffffffffffffff168152602001610f0860e0870160c088016121b6565b60ff168152506040518263ffffffff1660e01b8152600401610f2a91906121d9565b600060405180830381600087803b158015610f4457600080fd5b505af1158015610f58573d6000803e3d6000fd5b50506040518435925085915030907f317b13b972f7768c0e191b4ed63c15c50ec6ebc5c7868da502dd43b5fb48cf8690600090a4505050565b610f9b3383611239565b611027576040517f08c379a000000000000000000000000000000000000000000000000000000000815260206004820152602e60248201527f4552433732313a2063616c6c6572206973206e6f7420746f6b656e206f776e6560448201527f72206e6f7220617070726f76656400000000000000000000000000000000000060648201526084016105c0565b611033848484846118ec565b50505050565b60606110448261110b565b600061105b60408051602081019091526000815290565b9050600081511161107b57604051806020016040528060008152506110a6565b806110858461198f565b604051602001611096929190612304565b6040516020818303038152906040525b9392505050565b6000806110b98361068d565b905080600182516110ca9190612333565b815181106110da576110da612288565b6020026020010151915050919050565b60006110f58261068d565b5192915050565b606060018054610c28906122b7565b60008181526003602052604090205473ffffffffffffffffffffffffffffffffffffffff16611196576040517f08c379a000000000000000000000000000000000000000000000000000000000815260206004820152601860248201527f4552433732313a20696e76616c696420746f6b656e204944000000000000000060448201526064016105c0565b50565b600081815260056020526040902080547fffffffffffffffffffffffff00000000000000000000000000000000000000001673ffffffffffffffffffffffffffffffffffffffff841690811790915581906111f3826107ab565b73ffffffffffffffffffffffffffffffffffffffff167f8c5be1e5ebec7d5bd14f71427d1e84f3dd0314c0f7b2291e5b200ac8c7c3b92560405160405180910390a45050565b600080611245836107ab565b90508073ffffffffffffffffffffffffffffffffffffffff168473ffffffffffffffffffffffffffffffffffffffff1614806112b3575073ffffffffffffffffffffffffffffffffffffffff80821660009081526006602090815260408083209388168352929052205460ff165b806112f157508373ffffffffffffffffffffffffffffffffffffffff166112d9846104c8565b73ffffffffffffffffffffffffffffffffffffffff16145b949350505050565b8273ffffffffffffffffffffffffffffffffffffffff16611319826107ab565b73ffffffffffffffffffffffffffffffffffffffff16146113bc576040517f08c379a000000000000000000000000000000000000000000000000000000000815260206004820152602560248201527f4552433732313a207472616e736665722066726f6d20696e636f72726563742060448201527f6f776e657200000000000000000000000000000000000000000000000000000060648201526084016105c0565b73ffffffffffffffffffffffffffffffffffffffff821661145e576040517f08c379a0000000000000000000000000000000000000000000000000000000008152602060048201526024808201527f4552433732313a207472616e7366657220746f20746865207a65726f2061646460448201527f726573730000000000000000000000000000000000000000000000000000000060648201526084016105c0565b611469600082611199565b73ffffffffffffffffffffffffffffffffffffffff8316600090815260046020526040812080546001929061149f908490612333565b909155505073ffffffffffffffffffffffffffffffffffffffff821660009081526004602052604081208054600192906114da90849061234a565b909155505060008181526003602052604080822080547fffffffffffffffffffffffff00000000000000000000000000000000000000001673ffffffffffffffffffffffffffffffffffffffff86811691821790925591518493918716917fddf252ad1be2c89b69c2b068fc378daa952ba7f163c4a11628f55a4df523b3ef91a4505050565b73ffffffffffffffffffffffffffffffffffffffff82166115dd576040517f08c379a000000000000000000000000000000000000000000000000000000000815260206004820181905260248201527f4552433732313a206d696e7420746f20746865207a65726f206164647265737360448201526064016105c0565b60008181526003602052604090205473ffffffffffffffffffffffffffffffffffffffff1615611669576040517f08c379a000000000000000000000000000000000000000000000000000000000815260206004820152601c60248201527f4552433732313a20746f6b656e20616c7265616479206d696e7465640000000060448201526064016105c0565b73ffffffffffffffffffffffffffffffffffffffff8216600090815260046020526040812080546001929061169f90849061234a565b909155505060008181526003602052604080822080547fffffffffffffffffffffffff00000000000000000000000000000000000000001673ffffffffffffffffffffffffffffffffffffffff861690811790915590518392907fddf252ad1be2c89b69c2b068fc378daa952ba7f163c4a11628f55a4df523b3ef908290a45050565b8173ffffffffffffffffffffffffffffffffffffffff168373ffffffffffffffffffffffffffffffffffffffff16036117b7576040517f08c379a000000000000000000000000000000000000000000000000000000000815260206004820152601960248201527f4552433732313a20617070726f766520746f2063616c6c65720000000000000060448201526064016105c0565b73ffffffffffffffffffffffffffffffffffffffff83811660008181526006602090815260408083209487168084529482529182902080547fffffffffffffffffffffffffffffffffffffffffffffffffffffffffffffff001686151590811790915591519182527f17307eab39ab6107e8899845ad3d59bd9653f200f220920489ca2b5937696c31910160405180910390a3505050565b611858816107ab565b73ffffffffffffffffffffffffffffffffffffffff163373ffffffffffffffffffffffffffffffffffffffff1614611196576040517f08c379a000000000000000000000000000000000000000000000000000000000815260206004820181905260248201527f4f6e6c79206173736574206f776e65722063616e20757365207468697320666e60448201526064016105c0565b6118f78484846112f9565b61190384848484611ac4565b611033576040517f08c379a000000000000000000000000000000000000000000000000000000000815260206004820152603260248201527f4552433732313a207472616e7366657220746f206e6f6e20455243373231526560448201527f63656976657220696d706c656d656e746572000000000000000000000000000060648201526084016105c0565b6060816000036119d257505060408051808201909152600181527f3000000000000000000000000000000000000000000000000000000000000000602082015290565b8160005b81156119fc57806119e6816120d4565b91506119f59050600a83612391565b91506119d6565b60008167ffffffffffffffff811115611a1757611a17611f52565b6040519080825280601f01601f191660200182016040528015611a41576020820181803683370190505b5090505b84156112f157611a56600183612333565b9150611a63600a866123a5565b611a6e90603061234a565b60f81b818381518110611a8357611a83612288565b60200101907effffffffffffffffffffffffffffffffffffffffffffffffffffffffffffff1916908160001a905350611abd600a86612391565b9450611a45565b600073ffffffffffffffffffffffffffffffffffffffff84163b15611cac576040517f150b7a0200000000000000000000000000000000000000000000000000000000815273ffffffffffffffffffffffffffffffffffffffff85169063150b7a0290611b3b9033908990889088906004016123b9565b6020604051808303816000875af1925050508015611b94575060408051601f3d9081017fffffffffffffffffffffffffffffffffffffffffffffffffffffffffffffffe0168201909252611b9191810190612402565b60015b611c61573d808015611bc2576040519150601f19603f3d011682016040523d82523d6000602084013e611bc7565b606091505b508051600003611c59576040517f08c379a000000000000000000000000000000000000000000000000000000000815260206004820152603260248201527f4552433732313a207472616e7366657220746f206e6f6e20455243373231526560448201527f63656976657220696d706c656d656e746572000000000000000000000000000060648201526084016105c0565b805181602001fd5b7fffffffff00000000000000000000000000000000000000000000000000000000167f150b7a02000000000000000000000000000000000000000000000000000000001490506112f1565b506001949350505050565b7fffffffff000000000000000000000000000000000000000000000000000000008116811461119657600080fd5b600060208284031215611cf757600080fd5b81356110a681611cb7565b60005b83811015611d1d578181015183820152602001611d05565b838111156110335750506000910152565b60008151808452611d46816020860160208601611d02565b601f017fffffffffffffffffffffffffffffffffffffffffffffffffffffffffffffffe0169290920160200192915050565b6020815260006110a66020830184611d2e565b600060208284031215611d9d57600080fd5b5035919050565b803573ffffffffffffffffffffffffffffffffffffffff81168114611dc857600080fd5b919050565b60008060408385031215611de057600080fd5b611de983611da4565b946020939093013593505050565b6020808252825182820181905260009190848201906040850190845b81811015611e2f57835183529284019291840191600101611e13565b50909695505050505050565b600080600060608486031215611e5057600080fd5b611e5984611da4565b9250611e6760208501611da4565b9150604084013590509250925092565b600060e08284031215611e8957600080fd5b50919050565b600060e08284031215611ea157600080fd5b6110a68383611e77565b600060208284031215611ebd57600080fd5b6110a682611da4565b60008060408385031215611ed957600080fd5b50508035926020909101359150565b60008060408385031215611efb57600080fd5b611f0483611da4565b915060208301358015158114611f1957600080fd5b809150509250929050565b6000806101008385031215611f3857600080fd5b82359150611f498460208501611e77565b90509250929050565b7f4e487b7100000000000000000000000000000000000000000000000000000000600052604160045260246000fd5b60008060008060808587031215611f9757600080fd5b611fa085611da4565b9350611fae60208601611da4565b925060408501359150606085013567ffffffffffffffff80821115611fd257600080fd5b818701915087601f830112611fe657600080fd5b813581811115611ff857611ff8611f52565b604051601f82017fffffffffffffffffffffffffffffffffffffffffffffffffffffffffffffffe0908116603f0116810190838211818310171561203e5761203e611f52565b816040528281528a602084870101111561205757600080fd5b82602086016020830137600060208483010152809550505050505092959194509250565b6000806040838503121561208e57600080fd5b61209783611da4565b9150611f4960208401611da4565b7f4e487b7100000000000000000000000000000000000000000000000000000000600052601160045260246000fd5b60007fffffffffffffffffffffffffffffffffffffffffffffffffffffffffffffffff8203612105576121056120a5565b5060010190565b60006020828403121561211e57600080fd5b81356fffffffffffffffffffffffffffffffff811681146110a657600080fd5b60006020828403121561215057600080fd5b813563ffffffff811681146110a657600080fd5b60006020828403121561217657600080fd5b81356bffffffffffffffffffffffff811681146110a657600080fd5b6000602082840312156121a457600080fd5b813561ffff811681146110a657600080fd5b6000602082840312156121c857600080fd5b813560ff811681146110a657600080fd5b60208152600073ffffffffffffffffffffffffffffffffffffffff80845116602084015280602085015116604084015250604083015160608301526060830151610100806080850152612230610120850183611d2e565b9150608085015161224660a086018260ff169052565b5060a085015161ffff811660c08601525060c08501516bffffffffffffffffffffffff811660e08601525060e085015160ff8116858301525090949350505050565b7f4e487b7100000000000000000000000000000000000000000000000000000000600052603260045260246000fd5b600181811c908216806122cb57607f821691505b602082108103611e89577f4e487b7100000000000000000000000000000000000000000000000000000000600052602260045260246000fd5b60008351612316818460208801611d02565b83519083019061232a818360208801611d02565b01949350505050565b600082821015612345576123456120a5565b500390565b6000821982111561235d5761235d6120a5565b500190565b7f4e487b7100000000000000000000000000000000000000000000000000000000600052601260045260246000fd5b6000826123a0576123a0612362565b500490565b6000826123b4576123b4612362565b500690565b600073ffffffffffffffffffffffffffffffffffffffff8087168352808616602084015250836040830152608060608301526123f86080830184611d2e565b9695505050505050565b60006020828403121561241457600080fd5b81516110a681611cb756fea2646970667358221220092070806891a2dc975e19467ad14556eeb07d920ca101aa623ba120fb39f9d164736f6c634300080e0033",
  "immutableReferences": {},
  "source": "// SPDX-License-Identifier: MIT\n\npragma solidity ^0.8.0;\n\nimport { AbstractAsset } from \"./AbstractAsset.sol\";\nimport { Assertion } from \"../Assertion.sol\";\nimport { ServiceAgreementV1 } from \"../ServiceAgreementV1.sol\";\nimport { Named } from \"../interface/Named.sol\";\nimport { ServiceAgreementStructsV1 } from \"../structs/ServiceAgreementStructsV1.sol\";\nimport { ERC721 } from \"@openzeppelin/contracts/token/ERC721/ERC721.sol\";\n\ncontract ContentAsset is AbstractAsset, ERC721 {\n\n    event AssetCreated(address indexed assetContract, uint256 indexed tokenId, bytes32 indexed stateCommitHash);\n    event AssetUpdated(address indexed assetContract, uint256 indexed tokenId, bytes32 indexed stateCommitHash);\n\n    struct AssetInputArgs {\n        bytes32 assertionId;\n        uint128 size;\n        uint32 triplesNumber;\n        uint96 chunksNumber;\n        uint16 epochsNumber;\n        uint96 tokenAmount;\n        uint8 scoreFunctionId;\n    }\n\n    struct Asset {\n        bytes32[] assertionIds;\n    }\n\n    uint256 private _tokenId;\n\n    Assertion public assertionContract;\n    ServiceAgreementV1 public serviceAgreement;\n\n    mapping (uint256 => Asset) assets;\n\n    constructor(address hubAddress)\n        AbstractAsset(hubAddress)\n        ERC721(\"ContentAsset\", \"DKG\")\n    {\n        assertionContract = Assertion(hub.getContractAddress(\"Assertion\"));\n        serviceAgreement = ServiceAgreementV1(hub.getContractAddress(\"ServiceAgreement\"));\n    }\n\n    modifier onlyAssetOwner(uint256 tokenId) {\n        _checkAssetOwner(tokenId);\n        _;\n    }\n\n    function name() public view override(ERC721, Named) returns (string memory) {\n        return ERC721.name();\n    }\n\n    function createAsset(AssetInputArgs calldata args) external {\n        uint256 tokenId = _tokenId++;\n        _mint(msg.sender, tokenId);\n\n        assertionContract.createAssertion(\n            args.assertionId,\n            msg.sender,\n            args.size,\n            args.triplesNumber,\n            args.chunksNumber\n        );\n        assets[tokenId].assertionIds.push(args.assertionId);\n\n        serviceAgreement.createServiceAgreement(\n            ServiceAgreementStructsV1.ServiceAgreementInputArgs({\n                assetCreator: msg.sender,\n                assetContract: address(this),\n                tokenId: tokenId,\n                keyword: abi.encodePacked(address(this), tokenId, args.assertionId),\n                hashFunctionId: 1,  // hashFunctionId | 1 = sha256\n                epochsNumber: args.epochsNumber,\n                tokenAmount: args.tokenAmount,\n                scoreFunctionId: args.scoreFunctionId\n            })\n        );\n\n        emit AssetCreated(address(this), tokenId, args.assertionId);\n    }\n\n    function updateAsset(uint256 tokenId, AssetInputArgs calldata args) external onlyAssetOwner(tokenId) {\n        assertionContract.createAssertion(\n            args.assertionId,\n            msg.sender,\n            args.size,\n            args.triplesNumber,\n            args.chunksNumber\n        );\n        assets[tokenId].assertionIds.push(args.assertionId);\n\n        serviceAgreement.updateServiceAgreement(\n            ServiceAgreementStructsV1.ServiceAgreementInputArgs({\n                assetCreator: msg.sender,\n                assetContract: address(this),\n                tokenId: tokenId,\n                keyword: abi.encodePacked(address(this), tokenId, getAssertionIdByIndex(tokenId, 0)),\n                hashFunctionId: 1,  // hashFunctionId | 1 = sha256\n                epochsNumber: args.epochsNumber,\n                tokenAmount: args.tokenAmount,\n                scoreFunctionId: args.scoreFunctionId\n            })\n        );\n\n        emit AssetUpdated(address(this), tokenId, args.assertionId);\n    }\n\n    function getAssertionIds(uint256 tokenId) public view override returns (bytes32[] memory) {\n        return assets[tokenId].assertionIds;\n    }\n\n    function _checkAssetOwner(uint256 tokenId) internal view virtual {\n        require(msg.sender == ownerOf(tokenId), \"Only asset owner can use this fn\");\n    }\n\n}\n",
  "sourcePath": "/Users/max/IdeaProjects/dkg-evm-module/contracts/assets/ContentAsset.sol",
  "compiler": {
    "name": "solc",
    "version": "0.8.14+commit.80d49f37.Emscripten.clang"
  },
  "schemaVersion": "3.4.10",
  "updatedAt": "2022-12-03T12:20:15.586Z",
  "devdoc": {
    "kind": "dev",
    "methods": {
      "approve(address,uint256)": {
        "details": "See {IERC721-approve}."
      },
      "balanceOf(address)": {
        "details": "See {IERC721-balanceOf}."
      },
      "getApproved(uint256)": {
        "details": "See {IERC721-getApproved}."
      },
      "isApprovedForAll(address,address)": {
        "details": "See {IERC721-isApprovedForAll}."
      },
      "ownerOf(uint256)": {
        "details": "See {IERC721-ownerOf}."
      },
      "safeTransferFrom(address,address,uint256)": {
        "details": "See {IERC721-safeTransferFrom}."
      },
      "safeTransferFrom(address,address,uint256,bytes)": {
        "details": "See {IERC721-safeTransferFrom}."
      },
      "setApprovalForAll(address,bool)": {
        "details": "See {IERC721-setApprovalForAll}."
      },
      "supportsInterface(bytes4)": {
        "details": "See {IERC165-supportsInterface}."
      },
      "symbol()": {
        "details": "See {IERC721Metadata-symbol}."
      },
      "tokenURI(uint256)": {
        "details": "See {IERC721Metadata-tokenURI}."
      },
      "transferFrom(address,address,uint256)": {
        "details": "See {IERC721-transferFrom}."
      }
    },
    "version": 1
  },
  "userdoc": {
    "kind": "user",
    "methods": {},
    "version": 1
  }
}