{
  "contractName": "ContentAsset",
  "abi": [
    {
      "inputs": [
        {
          "internalType": "address",
          "name": "hubAddress",
          "type": "address"
        }
      ],
      "stateMutability": "nonpayable",
      "type": "constructor"
    },
    {
      "anonymous": false,
      "inputs": [
        {
          "indexed": true,
          "internalType": "address",
          "name": "owner",
          "type": "address"
        },
        {
          "indexed": true,
          "internalType": "address",
          "name": "approved",
          "type": "address"
        },
        {
          "indexed": true,
          "internalType": "uint256",
          "name": "tokenId",
          "type": "uint256"
        }
      ],
      "name": "Approval",
      "type": "event"
    },
    {
      "anonymous": false,
      "inputs": [
        {
          "indexed": true,
          "internalType": "address",
          "name": "owner",
          "type": "address"
        },
        {
          "indexed": true,
          "internalType": "address",
          "name": "operator",
          "type": "address"
        },
        {
          "indexed": false,
          "internalType": "bool",
          "name": "approved",
          "type": "bool"
        }
      ],
      "name": "ApprovalForAll",
      "type": "event"
    },
    {
      "anonymous": false,
      "inputs": [
        {
          "indexed": true,
          "internalType": "address",
          "name": "assetContract",
          "type": "address"
        },
        {
          "indexed": true,
          "internalType": "uint256",
          "name": "tokenId",
          "type": "uint256"
        },
        {
          "indexed": true,
          "internalType": "bytes32",
          "name": "stateCommitHash",
          "type": "bytes32"
        }
      ],
      "name": "AssetCreated",
      "type": "event"
    },
    {
      "anonymous": false,
      "inputs": [
        {
          "indexed": true,
          "internalType": "address",
          "name": "assetContract",
          "type": "address"
        },
        {
          "indexed": true,
          "internalType": "uint256",
          "name": "tokenId",
          "type": "uint256"
        },
        {
          "indexed": true,
          "internalType": "bytes32",
          "name": "stateCommitHash",
          "type": "bytes32"
        }
      ],
      "name": "AssetUpdated",
      "type": "event"
    },
    {
      "anonymous": false,
      "inputs": [
        {
          "indexed": true,
          "internalType": "address",
          "name": "from",
          "type": "address"
        },
        {
          "indexed": true,
          "internalType": "address",
          "name": "to",
          "type": "address"
        },
        {
          "indexed": true,
          "internalType": "uint256",
          "name": "tokenId",
          "type": "uint256"
        }
      ],
      "name": "Transfer",
      "type": "event"
    },
    {
      "inputs": [
        {
          "internalType": "address",
          "name": "to",
          "type": "address"
        },
        {
          "internalType": "uint256",
          "name": "tokenId",
          "type": "uint256"
        }
      ],
      "name": "approve",
      "outputs": [],
      "stateMutability": "nonpayable",
      "type": "function"
    },
    {
      "inputs": [],
      "name": "assertionContract",
      "outputs": [
        {
          "internalType": "contract Assertion",
          "name": "",
          "type": "address"
        }
      ],
      "stateMutability": "view",
      "type": "function"
    },
    {
      "inputs": [
        {
          "internalType": "address",
          "name": "owner",
          "type": "address"
        }
      ],
      "name": "balanceOf",
      "outputs": [
        {
          "internalType": "uint256",
          "name": "",
          "type": "uint256"
        }
      ],
      "stateMutability": "view",
      "type": "function"
    },
    {
      "inputs": [
        {
          "internalType": "uint256",
          "name": "tokenId",
          "type": "uint256"
        }
      ],
      "name": "getApproved",
      "outputs": [
        {
          "internalType": "address",
          "name": "",
          "type": "address"
        }
      ],
      "stateMutability": "view",
      "type": "function"
    },
    {
      "inputs": [
        {
          "internalType": "uint256",
          "name": "tokenId",
          "type": "uint256"
        },
        {
          "internalType": "uint256",
          "name": "index",
          "type": "uint256"
        }
      ],
      "name": "getAssertionIdByIndex",
      "outputs": [
        {
          "internalType": "bytes32",
          "name": "",
          "type": "bytes32"
        }
      ],
      "stateMutability": "view",
      "type": "function"
    },
    {
      "inputs": [
        {
          "internalType": "uint256",
          "name": "tokenId",
          "type": "uint256"
        }
      ],
      "name": "getAssertionIdsLength",
      "outputs": [
        {
          "internalType": "uint256",
          "name": "",
          "type": "uint256"
        }
      ],
      "stateMutability": "view",
      "type": "function"
    },
    {
      "inputs": [
        {
          "internalType": "uint256",
          "name": "tokenId",
          "type": "uint256"
        }
      ],
      "name": "getLatestAssertionId",
      "outputs": [
        {
          "internalType": "bytes32",
          "name": "",
          "type": "bytes32"
        }
      ],
      "stateMutability": "view",
      "type": "function"
    },
    {
      "inputs": [],
      "name": "hub",
      "outputs": [
        {
          "internalType": "contract Hub",
          "name": "",
          "type": "address"
        }
      ],
      "stateMutability": "view",
      "type": "function"
    },
    {
      "inputs": [
        {
          "internalType": "address",
          "name": "owner",
          "type": "address"
        },
        {
          "internalType": "address",
          "name": "operator",
          "type": "address"
        }
      ],
      "name": "isApprovedForAll",
      "outputs": [
        {
          "internalType": "bool",
          "name": "",
          "type": "bool"
        }
      ],
      "stateMutability": "view",
      "type": "function"
    },
    {
      "inputs": [
        {
          "internalType": "bytes32",
          "name": "",
          "type": "bytes32"
        }
      ],
      "name": "issuers",
      "outputs": [
        {
          "internalType": "address",
          "name": "",
          "type": "address"
        }
      ],
      "stateMutability": "view",
      "type": "function"
    },
    {
      "inputs": [
        {
          "internalType": "uint256",
          "name": "tokenId",
          "type": "uint256"
        }
      ],
      "name": "ownerOf",
      "outputs": [
        {
          "internalType": "address",
          "name": "",
          "type": "address"
        }
      ],
      "stateMutability": "view",
      "type": "function"
    },
    {
      "inputs": [
        {
          "internalType": "address",
          "name": "from",
          "type": "address"
        },
        {
          "internalType": "address",
          "name": "to",
          "type": "address"
        },
        {
          "internalType": "uint256",
          "name": "tokenId",
          "type": "uint256"
        }
      ],
      "name": "safeTransferFrom",
      "outputs": [],
      "stateMutability": "nonpayable",
      "type": "function"
    },
    {
      "inputs": [
        {
          "internalType": "address",
          "name": "from",
          "type": "address"
        },
        {
          "internalType": "address",
          "name": "to",
          "type": "address"
        },
        {
          "internalType": "uint256",
          "name": "tokenId",
          "type": "uint256"
        },
        {
          "internalType": "bytes",
          "name": "data",
          "type": "bytes"
        }
      ],
      "name": "safeTransferFrom",
      "outputs": [],
      "stateMutability": "nonpayable",
      "type": "function"
    },
    {
      "inputs": [],
      "name": "serviceAgreementV1",
      "outputs": [
        {
          "internalType": "contract ServiceAgreementV1",
          "name": "",
          "type": "address"
        }
      ],
      "stateMutability": "view",
      "type": "function"
    },
    {
      "inputs": [
        {
          "internalType": "address",
          "name": "operator",
          "type": "address"
        },
        {
          "internalType": "bool",
          "name": "approved",
          "type": "bool"
        }
      ],
      "name": "setApprovalForAll",
      "outputs": [],
      "stateMutability": "nonpayable",
      "type": "function"
    },
    {
      "inputs": [
        {
          "internalType": "bytes4",
          "name": "interfaceId",
          "type": "bytes4"
        }
      ],
      "name": "supportsInterface",
      "outputs": [
        {
          "internalType": "bool",
          "name": "",
          "type": "bool"
        }
      ],
      "stateMutability": "view",
      "type": "function"
    },
    {
      "inputs": [],
      "name": "symbol",
      "outputs": [
        {
          "internalType": "string",
          "name": "",
          "type": "string"
        }
      ],
      "stateMutability": "view",
      "type": "function"
    },
    {
      "inputs": [
        {
          "internalType": "uint256",
          "name": "tokenId",
          "type": "uint256"
        }
      ],
      "name": "tokenURI",
      "outputs": [
        {
          "internalType": "string",
          "name": "",
          "type": "string"
        }
      ],
      "stateMutability": "view",
      "type": "function"
    },
    {
      "inputs": [
        {
          "internalType": "address",
          "name": "from",
          "type": "address"
        },
        {
          "internalType": "address",
          "name": "to",
          "type": "address"
        },
        {
          "internalType": "uint256",
          "name": "tokenId",
          "type": "uint256"
        }
      ],
      "name": "transferFrom",
      "outputs": [],
      "stateMutability": "nonpayable",
      "type": "function"
    },
    {
      "inputs": [],
      "name": "name",
      "outputs": [
        {
          "internalType": "string",
          "name": "",
          "type": "string"
        }
      ],
      "stateMutability": "view",
      "type": "function"
    },
    {
      "inputs": [
        {
          "components": [
            {
              "internalType": "bytes32",
              "name": "assertionId",
              "type": "bytes32"
            },
            {
              "internalType": "uint128",
              "name": "size",
              "type": "uint128"
            },
            {
              "internalType": "uint32",
              "name": "triplesNumber",
              "type": "uint32"
            },
            {
              "internalType": "uint96",
              "name": "chunksNumber",
              "type": "uint96"
            },
            {
              "internalType": "uint16",
              "name": "epochsNumber",
              "type": "uint16"
            },
            {
              "internalType": "uint96",
              "name": "tokenAmount",
              "type": "uint96"
            },
            {
              "internalType": "uint8",
              "name": "scoreFunctionId",
              "type": "uint8"
            }
          ],
          "internalType": "struct ContentAsset.AssetInputArgs",
          "name": "args",
          "type": "tuple"
        }
      ],
      "name": "createAsset",
      "outputs": [],
      "stateMutability": "nonpayable",
      "type": "function"
    },
    {
      "inputs": [
        {
          "internalType": "uint256",
          "name": "tokenId",
          "type": "uint256"
        }
      ],
      "name": "getAssertionIds",
      "outputs": [
        {
          "internalType": "bytes32[]",
          "name": "",
          "type": "bytes32[]"
        }
      ],
      "stateMutability": "view",
      "type": "function"
    },
    {
      "inputs": [
        {
          "internalType": "uint256",
          "name": "tokenId",
          "type": "uint256"
        },
        {
          "internalType": "bytes32",
          "name": "assertionId",
          "type": "bytes32"
        }
      ],
      "name": "getAssertionIssuer",
      "outputs": [
        {
          "internalType": "address",
          "name": "",
          "type": "address"
        }
      ],
      "stateMutability": "view",
      "type": "function"
    },
    {
      "inputs": [
        {
          "internalType": "bytes32",
          "name": "assetAssertionId",
          "type": "bytes32"
        }
      ],
      "name": "assertionExists",
      "outputs": [
        {
          "internalType": "bool",
          "name": "",
          "type": "bool"
        }
      ],
      "stateMutability": "view",
      "type": "function"
    }
  ],
  "bytecode": "0x60806040523480156200001157600080fd5b5060405162001d7e38038062001d7e83398101604081905262000034916200021c565b604080518082018252600c81526b10dbdb9d195b9d105cdcd95d60a21b60208083019190915282518084019093526003835262444b4760e81b9083015290826001600160a01b0381166200008757600080fd5b600080546001600160a01b0319166001600160a01b03929092169190911790556001620000b58382620002f3565b506002620000c48282620002f3565b5050600054604051630110ceef60e21b815260206004820152600960248201526820b9b9b2b93a34b7b760b91b60448201526001600160a01b0390911691506304433bbc90606401602060405180830381865afa1580156200012a573d6000803e3d6000fd5b505050506040513d601f19601f820116820180604052508101906200015091906200021c565b600880546001600160a01b0319166001600160a01b03928316179055600054604051630110ceef60e21b81526020600482015260126024820152715365727669636541677265656d656e74563160701b60448201529116906304433bbc90606401602060405180830381865afa158015620001cf573d6000803e3d6000fd5b505050506040513d601f19601f82011682018060405250810190620001f591906200021c565b600980546001600160a01b0319166001600160a01b039290921691909117905550620003bf565b6000602082840312156200022f57600080fd5b81516001600160a01b03811681146200024757600080fd5b9392505050565b634e487b7160e01b600052604160045260246000fd5b600181811c908216806200027957607f821691505b6020821081036200029a57634e487b7160e01b600052602260045260246000fd5b50919050565b601f821115620002ee57600081815260208120601f850160051c81016020861015620002c95750805b601f850160051c820191505b81811015620002ea57828155600101620002d5565b5050505b505050565b81516001600160401b038111156200030f576200030f6200024e565b620003278162000320845462000264565b84620002a0565b602080601f8311600181146200035f5760008415620003465750858301515b600019600386901b1c1916600185901b178555620002ea565b600085815260208120601f198616915b8281101562000390578886015182559484019460019091019084016200036f565b5085821015620003af5787850151600019600388901b60f8161c191681555b5050505050600190811b01905550565b6119af80620003cf6000396000f3fe608060405234801561001057600080fd5b50600436106101585760003560e01c806370a08231116100c3578063c53a44131161007c578063c53a44131461030c578063c6a2eeca14610335578063c87b56dd14610348578063cede992f1461035b578063e985e9c51461036e578063fef57daf146103aa57600080fd5b806370a082311461029757806375e5231b146102b857806395d89b41146102cb578063a22cb465146102d3578063ab18364b146102e6578063b88d4fde146102f957600080fd5b8063365a86fc11610115578063365a86fc1461020d57806342842e0e146102205780634b4aeac7146102335780635a4038f5146102465780636352211e1461027157806365b345591461028457600080fd5b806301ffc9a71461015d57806306fdde0314610185578063081812fc1461019a578063095ea7b3146101c55780630bc29f0f146101da57806323b872dd146101fa575b600080fd5b61017061016b366004611303565b6103bd565b60405190151581526020015b60405180910390f35b61018d61040f565b60405161017c9190611370565b6101ad6101a8366004611383565b61041e565b6040516001600160a01b03909116815260200161017c565b6101d86101d33660046113b8565b610445565b005b6101ed6101e8366004611383565b61055f565b60405161017c91906113e2565b6101d8610208366004611426565b6105c1565b6000546101ad906001600160a01b031681565b6101d861022e366004611426565b6105f2565b6008546101ad906001600160a01b031681565b610170610254366004611383565b6000908152600b60205260409020546001600160a01b0316151590565b6101ad61027f366004611383565b61060d565b6101d8610292366004611462565b61066d565b6102aa6102a536600461147a565b610903565b60405190815260200161017c565b6102aa6102c6366004611495565b610989565b61018d6109ba565b6101d86102e13660046114b7565b610a4c565b6101ad6102f4366004611495565b610a5b565b6101d8610307366004611509565b610ab3565b6101ad61031a366004611383565b600b602052600090815260409020546001600160a01b031681565b6009546101ad906001600160a01b031681565b61018d610356366004611383565b610aeb565b6102aa610369366004611383565b610b5f565b61017061037c3660046115e5565b6001600160a01b03918216600090815260066020908152604080832093909416825291909152205460ff1690565b6102aa6103b8366004611383565b610b9c565b60006001600160e01b031982166380ac58cd60e01b14806103ee57506001600160e01b03198216635b5e139f60e01b145b8061040957506301ffc9a760e01b6001600160e01b03198316145b92915050565b6060610419610bae565b905090565b600061042982610bbd565b506000908152600560205260409020546001600160a01b031690565b60006104508261060d565b9050806001600160a01b0316836001600160a01b0316036104c25760405162461bcd60e51b815260206004820152602160248201527f4552433732313a20617070726f76616c20746f2063757272656e74206f776e656044820152603960f91b60648201526084015b60405180910390fd5b336001600160a01b03821614806104de57506104de813361037c565b6105505760405162461bcd60e51b815260206004820152603e60248201527f4552433732313a20617070726f76652063616c6c6572206973206e6f7420746f60448201527f6b656e206f776e6572206e6f7220617070726f76656420666f7220616c6c000060648201526084016104b9565b61055a8383610c1f565b505050565b6000818152600a60209081526040918290208054835181840281018401909452808452606093928301828280156105b557602002820191906000526020600020905b8154815260200190600101908083116105a1575b50505050509050919050565b6105cb3382610c8d565b6105e75760405162461bcd60e51b81526004016104b990611618565b61055a838383610d0c565b61055a83838360405180602001604052806000815250610ab3565b6000818152600360205260408120546001600160a01b0316806104095760405162461bcd60e51b8152602060048201526018602482015277115490cdcc8c4e881a5b9d985b1a59081d1bdad95b88125160421b60448201526064016104b9565b600780546000918261067e8361167c565b91905055905061068e3382610ea8565b6008546001600160a01b031663b83838f283356106b16040860160208701611695565b6106c160608701604088016116be565b6106d160808801606089016116e4565b6040516001600160e01b031960e087901b16815260048101949094526001600160801b03909216602484015263ffffffff1660448301526001600160601b03166064820152608401600060405180830381600087803b15801561073357600080fd5b505af1158015610747573d6000803e3d6000fd5b5050506000828152600a60209081526040808320805460018101825590845282842087359101819055815192830186905290820152339250600b919060600160408051808303601f19018152918152815160209283012083528282019390935290820160002080546001600160a01b0319166001600160a01b039485161790556009548251610100810184523381523081840181905281850187905293516bffffffffffffffffffffffff19606095861b16938101939093528635603484015293169263e1572ce69290919082019060540160408051601f19818403018152918152908252600160208301520161084460a087016080880161170d565b61ffff16815260200161085d60c0870160a088016116e4565b6001600160601b0316815260200161087b60e0870160c08801611731565b60ff168152506040518263ffffffff1660e01b815260040161089d9190611754565b600060405180830381600087803b1580156108b757600080fd5b505af11580156108cb573d6000803e3d6000fd5b50506040518435925083915030907fac922a526a52087fe0a96f1d8706cea6cfecda5848221cd24dc78515d2b3019d90600090a45050565b60006001600160a01b03821661096d5760405162461bcd60e51b815260206004820152602960248201527f4552433732313a2061646472657373207a65726f206973206e6f7420612076616044820152683634b21037bbb732b960b91b60648201526084016104b9565b506001600160a01b031660009081526004602052604090205490565b6000806109958461055f565b90508083815181106109a9576109a96117f0565b602002602001015191505092915050565b6060600280546109c990611806565b80601f01602080910402602001604051908101604052809291908181526020018280546109f590611806565b8015610a425780601f10610a1757610100808354040283529160200191610a42565b820191906000526020600020905b815481529060010190602001808311610a2557829003601f168201915b5050505050905090565b610a57338383610fea565b5050565b6000600b60008484604051602001610a7d929190918252602082015260400190565b60408051808303601f19018152918152815160209283012083529082019290925201600020546001600160a01b03169392505050565b610abd3383610c8d565b610ad95760405162461bcd60e51b81526004016104b990611618565b610ae5848484846110b8565b50505050565b6060610af682610bbd565b6000610b0d60408051602081019091526000815290565b90506000815111610b2d5760405180602001604052806000815250610b58565b80610b37846110eb565b604051602001610b4892919061183a565b6040516020818303038152906040525b9392505050565b600080610b6b8361055f565b90508060018251610b7c9190611869565b81518110610b8c57610b8c6117f0565b6020026020010151915050919050565b6000610ba78261055f565b5192915050565b6060600180546109c990611806565b6000818152600360205260409020546001600160a01b0316610c1c5760405162461bcd60e51b8152602060048201526018602482015277115490cdcc8c4e881a5b9d985b1a59081d1bdad95b88125160421b60448201526064016104b9565b50565b600081815260056020526040902080546001600160a01b0319166001600160a01b0384169081179091558190610c548261060d565b6001600160a01b03167f8c5be1e5ebec7d5bd14f71427d1e84f3dd0314c0f7b2291e5b200ac8c7c3b92560405160405180910390a45050565b600080610c998361060d565b9050806001600160a01b0316846001600160a01b03161480610ce057506001600160a01b0380821660009081526006602090815260408083209388168352929052205460ff165b80610d045750836001600160a01b0316610cf98461041e565b6001600160a01b0316145b949350505050565b826001600160a01b0316610d1f8261060d565b6001600160a01b031614610d835760405162461bcd60e51b815260206004820152602560248201527f4552433732313a207472616e736665722066726f6d20696e636f72726563742060448201526437bbb732b960d91b60648201526084016104b9565b6001600160a01b038216610de55760405162461bcd60e51b8152602060048201526024808201527f4552433732313a207472616e7366657220746f20746865207a65726f206164646044820152637265737360e01b60648201526084016104b9565b610df0600082610c1f565b6001600160a01b0383166000908152600460205260408120805460019290610e19908490611869565b90915550506001600160a01b0382166000908152600460205260408120805460019290610e4790849061187c565b909155505060008181526003602052604080822080546001600160a01b0319166001600160a01b0386811691821790925591518493918716917fddf252ad1be2c89b69c2b068fc378daa952ba7f163c4a11628f55a4df523b3ef91a4505050565b6001600160a01b038216610efe5760405162461bcd60e51b815260206004820181905260248201527f4552433732313a206d696e7420746f20746865207a65726f206164647265737360448201526064016104b9565b6000818152600360205260409020546001600160a01b031615610f635760405162461bcd60e51b815260206004820152601c60248201527f4552433732313a20746f6b656e20616c7265616479206d696e7465640000000060448201526064016104b9565b6001600160a01b0382166000908152600460205260408120805460019290610f8c90849061187c565b909155505060008181526003602052604080822080546001600160a01b0319166001600160a01b03861690811790915590518392907fddf252ad1be2c89b69c2b068fc378daa952ba7f163c4a11628f55a4df523b3ef908290a45050565b816001600160a01b0316836001600160a01b03160361104b5760405162461bcd60e51b815260206004820152601960248201527f4552433732313a20617070726f766520746f2063616c6c65720000000000000060448201526064016104b9565b6001600160a01b03838116600081815260066020908152604080832094871680845294825291829020805460ff191686151590811790915591519182527f17307eab39ab6107e8899845ad3d59bd9653f200f220920489ca2b5937696c31910160405180910390a3505050565b6110c3848484610d0c565b6110cf848484846111ec565b610ae55760405162461bcd60e51b81526004016104b99061188f565b6060816000036111125750506040805180820190915260018152600360fc1b602082015290565b8160005b811561113c57806111268161167c565b91506111359050600a836118f7565b9150611116565b60008167ffffffffffffffff811115611157576111576114f3565b6040519080825280601f01601f191660200182016040528015611181576020820181803683370190505b5090505b8415610d0457611196600183611869565b91506111a3600a8661190b565b6111ae90603061187c565b60f81b8183815181106111c3576111c36117f0565b60200101906001600160f81b031916908160001a9053506111e5600a866118f7565b9450611185565b60006001600160a01b0384163b156112e257604051630a85bd0160e11b81526001600160a01b0385169063150b7a029061123090339089908890889060040161191f565b6020604051808303816000875af192505050801561126b575060408051601f3d908101601f191682019092526112689181019061195c565b60015b6112c8573d808015611299576040519150601f19603f3d011682016040523d82523d6000602084013e61129e565b606091505b5080516000036112c05760405162461bcd60e51b81526004016104b99061188f565b805181602001fd5b6001600160e01b031916630a85bd0160e11b149050610d04565b506001949350505050565b6001600160e01b031981168114610c1c57600080fd5b60006020828403121561131557600080fd5b8135610b58816112ed565b60005b8381101561133b578181015183820152602001611323565b50506000910152565b6000815180845261135c816020860160208601611320565b601f01601f19169290920160200192915050565b602081526000610b586020830184611344565b60006020828403121561139557600080fd5b5035919050565b80356001600160a01b03811681146113b357600080fd5b919050565b600080604083850312156113cb57600080fd5b6113d48361139c565b946020939093013593505050565b6020808252825182820181905260009190848201906040850190845b8181101561141a578351835292840192918401916001016113fe565b50909695505050505050565b60008060006060848603121561143b57600080fd5b6114448461139c565b92506114526020850161139c565b9150604084013590509250925092565b600060e0828403121561147457600080fd5b50919050565b60006020828403121561148c57600080fd5b610b588261139c565b600080604083850312156114a857600080fd5b50508035926020909101359150565b600080604083850312156114ca57600080fd5b6114d38361139c565b9150602083013580151581146114e857600080fd5b809150509250929050565b634e487b7160e01b600052604160045260246000fd5b6000806000806080858703121561151f57600080fd5b6115288561139c565b93506115366020860161139c565b925060408501359150606085013567ffffffffffffffff8082111561155a57600080fd5b818701915087601f83011261156e57600080fd5b813581811115611580576115806114f3565b604051601f8201601f19908116603f011681019083821181831017156115a8576115a86114f3565b816040528281528a60208487010111156115c157600080fd5b82602086016020830137600060208483010152809550505050505092959194509250565b600080604083850312156115f857600080fd5b6116018361139c565b915061160f6020840161139c565b90509250929050565b6020808252602e908201527f4552433732313a2063616c6c6572206973206e6f7420746f6b656e206f776e6560408201526d1c881b9bdc88185c1c1c9bdd995960921b606082015260800190565b634e487b7160e01b600052601160045260246000fd5b60006001820161168e5761168e611666565b5060010190565b6000602082840312156116a757600080fd5b81356001600160801b0381168114610b5857600080fd5b6000602082840312156116d057600080fd5b813563ffffffff81168114610b5857600080fd5b6000602082840312156116f657600080fd5b81356001600160601b0381168114610b5857600080fd5b60006020828403121561171f57600080fd5b813561ffff81168114610b5857600080fd5b60006020828403121561174357600080fd5b813560ff81168114610b5857600080fd5b60208152600060018060a01b038084511660208401528060208501511660408401525060408301516060830152606083015161010080608085015261179d610120850183611344565b915060808501516117b360a086018260ff169052565b5060a085015161ffff811660c08601525060c08501516001600160601b03811660e08601525060e085015160ff8116858301525090949350505050565b634e487b7160e01b600052603260045260246000fd5b600181811c9082168061181a57607f821691505b60208210810361147457634e487b7160e01b600052602260045260246000fd5b6000835161184c818460208801611320565b835190830190611860818360208801611320565b01949350505050565b8181038181111561040957610409611666565b8082018082111561040957610409611666565b60208082526032908201527f4552433732313a207472616e7366657220746f206e6f6e20455243373231526560408201527131b2b4bb32b91034b6b83632b6b2b73a32b960711b606082015260800190565b634e487b7160e01b600052601260045260246000fd5b600082611906576119066118e1565b500490565b60008261191a5761191a6118e1565b500690565b6001600160a01b038581168252841660208201526040810183905260806060820181905260009061195290830184611344565b9695505050505050565b60006020828403121561196e57600080fd5b8151610b58816112ed56fea26469706673582212205758d48d271de5bbd5bcbb3583a60d3329e83803e20ce40df11eb7a04cc03ad664736f6c63430008100033",
  "immutableReferences": {},
  "source": "// SPDX-License-Identifier: MIT\n\npragma solidity ^0.8.4;\n\nimport { AbstractAsset } from \"./AbstractAsset.sol\";\nimport { Assertion } from \"../Assertion.sol\";\nimport { ServiceAgreementV1 } from \"../ServiceAgreementV1.sol\";\nimport { Named } from \"../interface/Named.sol\";\nimport { ServiceAgreementStructsV1 } from \"../structs/ServiceAgreementStructsV1.sol\";\nimport { ERC721 } from \"@openzeppelin/contracts/token/ERC721/ERC721.sol\";\n\ncontract ContentAsset is AbstractAsset, ERC721 {\n\n    event AssetCreated(address indexed assetContract, uint256 indexed tokenId, bytes32 indexed stateCommitHash);\n    event AssetUpdated(address indexed assetContract, uint256 indexed tokenId, bytes32 indexed stateCommitHash);\n\n    struct AssetInputArgs {\n        bytes32 assertionId;\n        uint128 size;\n        uint32 triplesNumber;\n        uint96 chunksNumber;\n        uint16 epochsNumber;\n        uint96 tokenAmount;\n        uint8 scoreFunctionId;\n    }\n\n    struct Asset {\n        bytes32[] assertionIds;\n    }\n\n    uint256 private _tokenId;\n\n    Assertion public assertionContract;\n    ServiceAgreementV1 public serviceAgreementV1;\n\n    // tokenId => Asset\n    mapping (uint256 => Asset) assets;\n\n    // keccak256(tokenId + assertionId) => issuer\n    mapping(bytes32 => address) public issuers;\n\n    constructor(address hubAddress)\n        AbstractAsset(hubAddress)\n        ERC721(\"ContentAsset\", \"DKG\")\n    {\n        assertionContract = Assertion(hub.getContractAddress(\"Assertion\"));\n        serviceAgreementV1 = ServiceAgreementV1(hub.getContractAddress(\"ServiceAgreementV1\"));\n    }\n\n    modifier onlyAssetOwner(uint256 tokenId) {\n        _checkAssetOwner(tokenId);\n        _;\n    }\n\n    function name() public view override(ERC721, Named) returns (string memory) {\n        return ERC721.name();\n    }\n\n    function createAsset(AssetInputArgs calldata args) external {\n        uint256 tokenId = _tokenId++;\n        _mint(msg.sender, tokenId);\n\n        assertionContract.createAssertion(\n            args.assertionId,\n            args.size,\n            args.triplesNumber,\n            args.chunksNumber\n        );\n        assets[tokenId].assertionIds.push(args.assertionId);\n        issuers[keccak256(abi.encodePacked(tokenId, args.assertionId))] = msg.sender;\n\n        serviceAgreementV1.createServiceAgreement(\n            ServiceAgreementStructsV1.ServiceAgreementInputArgs({\n                assetCreator: msg.sender,\n                assetContract: address(this),\n                tokenId: tokenId,\n                keyword: abi.encodePacked(address(this), args.assertionId),\n                hashFunctionId: 1,  // hashFunctionId | 1 = sha256\n                epochsNumber: args.epochsNumber,\n                tokenAmount: args.tokenAmount,\n                scoreFunctionId: args.scoreFunctionId\n            })\n        );\n\n        emit AssetCreated(address(this), tokenId, args.assertionId);\n    }\n\n    function getAssertionIds(uint256 tokenId) public view override returns (bytes32[] memory) {\n        return assets[tokenId].assertionIds;\n    }\n\n    function getAssertionIssuer(uint256 tokenId, bytes32 assertionId) external view returns (address) {\n        return issuers[keccak256(abi.encodePacked(tokenId, assertionId))];\n    }\n\n    function assertionExists(bytes32 assetAssertionId) public view returns (bool) {\n        return issuers[assetAssertionId] != address(0);\n    }\n\n    function _checkAssetOwner(uint256 tokenId) internal view virtual {\n        require(msg.sender == ownerOf(tokenId), \"Only asset owner can use this fn\");\n    }\n\n}\n",
  "sourcePath": "/Users/waving/Desktop/OriginTrail/dkg-evm-module/contracts/assets/ContentAsset.sol",
  "compiler": {
    "name": "solc",
    "version": "0.8.16+commit.07a7930e.Emscripten.clang"
  },
  "schemaVersion": "3.4.10",
  "updatedAt": "2022-12-05T20:57:28.566Z",
  "devdoc": {
    "kind": "dev",
    "methods": {
      "approve(address,uint256)": {
        "details": "See {IERC721-approve}."
      },
      "balanceOf(address)": {
        "details": "See {IERC721-balanceOf}."
      },
      "getApproved(uint256)": {
        "details": "See {IERC721-getApproved}."
      },
      "isApprovedForAll(address,address)": {
        "details": "See {IERC721-isApprovedForAll}."
      },
      "ownerOf(uint256)": {
        "details": "See {IERC721-ownerOf}."
      },
      "safeTransferFrom(address,address,uint256)": {
        "details": "See {IERC721-safeTransferFrom}."
      },
      "safeTransferFrom(address,address,uint256,bytes)": {
        "details": "See {IERC721-safeTransferFrom}."
      },
      "setApprovalForAll(address,bool)": {
        "details": "See {IERC721-setApprovalForAll}."
      },
      "supportsInterface(bytes4)": {
        "details": "See {IERC165-supportsInterface}."
      },
      "symbol()": {
        "details": "See {IERC721Metadata-symbol}."
      },
      "tokenURI(uint256)": {
        "details": "See {IERC721Metadata-tokenURI}."
      },
      "transferFrom(address,address,uint256)": {
        "details": "See {IERC721-transferFrom}."
      }
    },
    "version": 1
  },
  "userdoc": {
    "kind": "user",
    "methods": {},
    "version": 1
  }
}