{
  "contractName": "ContentAssetStorage",
  "abi": [
    {
      "inputs": [
        {
          "internalType": "address",
          "name": "hubAddress",
          "type": "address"
        }
      ],
      "stateMutability": "nonpayable",
      "type": "constructor"
    },
    {
      "anonymous": false,
      "inputs": [
        {
          "indexed": true,
          "internalType": "address",
          "name": "owner",
          "type": "address"
        },
        {
          "indexed": true,
          "internalType": "address",
          "name": "approved",
          "type": "address"
        },
        {
          "indexed": true,
          "internalType": "uint256",
          "name": "tokenId",
          "type": "uint256"
        }
      ],
      "name": "Approval",
      "type": "event"
    },
    {
      "anonymous": false,
      "inputs": [
        {
          "indexed": true,
          "internalType": "address",
          "name": "owner",
          "type": "address"
        },
        {
          "indexed": true,
          "internalType": "address",
          "name": "operator",
          "type": "address"
        },
        {
          "indexed": false,
          "internalType": "bool",
          "name": "approved",
          "type": "bool"
        }
      ],
      "name": "ApprovalForAll",
      "type": "event"
    },
    {
      "anonymous": false,
      "inputs": [
        {
          "indexed": true,
          "internalType": "address",
          "name": "from",
          "type": "address"
        },
        {
          "indexed": true,
          "internalType": "address",
          "name": "to",
          "type": "address"
        },
        {
          "indexed": true,
          "internalType": "uint256",
          "name": "tokenId",
          "type": "uint256"
        }
      ],
      "name": "Transfer",
      "type": "event"
    },
    {
      "inputs": [
        {
          "internalType": "address",
          "name": "to",
          "type": "address"
        },
        {
          "internalType": "uint256",
          "name": "tokenId",
          "type": "uint256"
        }
      ],
      "name": "approve",
      "outputs": [],
      "stateMutability": "nonpayable",
      "type": "function"
    },
    {
      "inputs": [
        {
          "internalType": "address",
          "name": "owner",
          "type": "address"
        }
      ],
      "name": "balanceOf",
      "outputs": [
        {
          "internalType": "uint256",
          "name": "",
          "type": "uint256"
        }
      ],
      "stateMutability": "view",
      "type": "function"
    },
    {
      "inputs": [
        {
          "internalType": "uint256",
          "name": "tokenId",
          "type": "uint256"
        }
      ],
      "name": "getApproved",
      "outputs": [
        {
          "internalType": "address",
          "name": "",
          "type": "address"
        }
      ],
      "stateMutability": "view",
      "type": "function"
    },
    {
      "inputs": [
        {
          "internalType": "uint256",
          "name": "tokenId",
          "type": "uint256"
        },
        {
          "internalType": "uint256",
          "name": "index",
          "type": "uint256"
        }
      ],
      "name": "getAssertionIdByIndex",
      "outputs": [
        {
          "internalType": "bytes32",
          "name": "",
          "type": "bytes32"
        }
      ],
      "stateMutability": "view",
      "type": "function"
    },
    {
      "inputs": [
        {
          "internalType": "uint256",
          "name": "tokenId",
          "type": "uint256"
        }
      ],
      "name": "getAssertionIdsLength",
      "outputs": [
        {
          "internalType": "uint256",
          "name": "",
          "type": "uint256"
        }
      ],
      "stateMutability": "view",
      "type": "function"
    },
    {
      "inputs": [
        {
          "internalType": "uint256",
          "name": "tokenId",
          "type": "uint256"
        }
      ],
      "name": "getLatestAssertionId",
      "outputs": [
        {
          "internalType": "bytes32",
          "name": "",
          "type": "bytes32"
        }
      ],
      "stateMutability": "view",
      "type": "function"
    },
    {
      "inputs": [],
      "name": "hub",
      "outputs": [
        {
          "internalType": "contract Hub",
          "name": "",
          "type": "address"
        }
      ],
      "stateMutability": "view",
      "type": "function"
    },
    {
      "inputs": [
        {
          "internalType": "address",
          "name": "owner",
          "type": "address"
        },
        {
          "internalType": "address",
          "name": "operator",
          "type": "address"
        }
      ],
      "name": "isApprovedForAll",
      "outputs": [
        {
          "internalType": "bool",
          "name": "",
          "type": "bool"
        }
      ],
      "stateMutability": "view",
      "type": "function"
    },
    {
      "inputs": [
        {
          "internalType": "bytes32",
          "name": "",
          "type": "bytes32"
        }
      ],
      "name": "issuers",
      "outputs": [
        {
          "internalType": "address",
          "name": "",
          "type": "address"
        }
      ],
      "stateMutability": "view",
      "type": "function"
    },
    {
      "inputs": [
        {
          "internalType": "uint256",
          "name": "tokenId",
          "type": "uint256"
        }
      ],
      "name": "ownerOf",
      "outputs": [
        {
          "internalType": "address",
          "name": "",
          "type": "address"
        }
      ],
      "stateMutability": "view",
      "type": "function"
    },
    {
      "inputs": [
        {
          "internalType": "address",
          "name": "from",
          "type": "address"
        },
        {
          "internalType": "address",
          "name": "to",
          "type": "address"
        },
        {
          "internalType": "uint256",
          "name": "tokenId",
          "type": "uint256"
        }
      ],
      "name": "safeTransferFrom",
      "outputs": [],
      "stateMutability": "nonpayable",
      "type": "function"
    },
    {
      "inputs": [
        {
          "internalType": "address",
          "name": "from",
          "type": "address"
        },
        {
          "internalType": "address",
          "name": "to",
          "type": "address"
        },
        {
          "internalType": "uint256",
          "name": "tokenId",
          "type": "uint256"
        },
        {
          "internalType": "bytes",
          "name": "data",
          "type": "bytes"
        }
      ],
      "name": "safeTransferFrom",
      "outputs": [],
      "stateMutability": "nonpayable",
      "type": "function"
    },
    {
      "inputs": [
        {
          "internalType": "address",
          "name": "operator",
          "type": "address"
        },
        {
          "internalType": "bool",
          "name": "approved",
          "type": "bool"
        }
      ],
      "name": "setApprovalForAll",
      "outputs": [],
      "stateMutability": "nonpayable",
      "type": "function"
    },
    {
      "inputs": [
        {
          "internalType": "bytes4",
          "name": "interfaceId",
          "type": "bytes4"
        }
      ],
      "name": "supportsInterface",
      "outputs": [
        {
          "internalType": "bool",
          "name": "",
          "type": "bool"
        }
      ],
      "stateMutability": "view",
      "type": "function"
    },
    {
      "inputs": [],
      "name": "symbol",
      "outputs": [
        {
          "internalType": "string",
          "name": "",
          "type": "string"
        }
      ],
      "stateMutability": "view",
      "type": "function"
    },
    {
      "inputs": [
        {
          "internalType": "uint256",
          "name": "tokenId",
          "type": "uint256"
        }
      ],
      "name": "tokenURI",
      "outputs": [
        {
          "internalType": "string",
          "name": "",
          "type": "string"
        }
      ],
      "stateMutability": "view",
      "type": "function"
    },
    {
      "inputs": [
        {
          "internalType": "address",
          "name": "from",
          "type": "address"
        },
        {
          "internalType": "address",
          "name": "to",
          "type": "address"
        },
        {
          "internalType": "uint256",
          "name": "tokenId",
          "type": "uint256"
        }
      ],
      "name": "transferFrom",
      "outputs": [],
      "stateMutability": "nonpayable",
      "type": "function"
    },
    {
      "inputs": [],
      "name": "name",
      "outputs": [
        {
          "internalType": "string",
          "name": "",
          "type": "string"
        }
      ],
      "stateMutability": "view",
      "type": "function"
    },
    {
      "inputs": [],
      "name": "version",
      "outputs": [
        {
          "internalType": "string",
          "name": "",
          "type": "string"
        }
      ],
      "stateMutability": "pure",
      "type": "function"
    },
    {
      "inputs": [
        {
          "internalType": "address",
          "name": "to",
          "type": "address"
        },
        {
          "internalType": "uint256",
          "name": "tokenId",
          "type": "uint256"
        }
      ],
      "name": "mint",
      "outputs": [],
      "stateMutability": "nonpayable",
      "type": "function"
    },
    {
      "inputs": [],
      "name": "generateTokenId",
      "outputs": [
        {
          "internalType": "uint256",
          "name": "",
          "type": "uint256"
        }
      ],
      "stateMutability": "nonpayable",
      "type": "function"
    },
    {
      "inputs": [
        {
          "internalType": "uint256",
          "name": "tokenId",
          "type": "uint256"
        }
      ],
      "name": "getAsset",
      "outputs": [
        {
          "components": [
            {
              "internalType": "bytes32[]",
              "name": "assertionIds",
              "type": "bytes32[]"
            }
          ],
          "internalType": "struct ContentAssetStructs.Asset",
          "name": "",
          "type": "tuple"
        }
      ],
      "stateMutability": "view",
      "type": "function"
    },
    {
      "inputs": [
        {
          "internalType": "uint256",
          "name": "tokenId",
          "type": "uint256"
        },
        {
          "internalType": "bytes32",
          "name": "assertionId",
          "type": "bytes32"
        }
      ],
      "name": "pushAssertionId",
      "outputs": [],
      "stateMutability": "nonpayable",
      "type": "function"
    },
    {
      "inputs": [
        {
          "internalType": "uint256",
          "name": "tokenId",
          "type": "uint256"
        }
      ],
      "name": "getAssertionIds",
      "outputs": [
        {
          "internalType": "bytes32[]",
          "name": "",
          "type": "bytes32[]"
        }
      ],
      "stateMutability": "view",
      "type": "function"
    },
    {
      "inputs": [
        {
          "internalType": "uint256",
          "name": "tokenId",
          "type": "uint256"
        },
        {
          "internalType": "bytes32",
          "name": "assertionId",
          "type": "bytes32"
        },
        {
          "internalType": "address",
          "name": "issuer",
          "type": "address"
        }
      ],
      "name": "setAssertionIssuer",
      "outputs": [],
      "stateMutability": "nonpayable",
      "type": "function"
    },
    {
      "inputs": [
        {
          "internalType": "uint256",
          "name": "tokenId",
          "type": "uint256"
        },
        {
          "internalType": "bytes32",
          "name": "assertionId",
          "type": "bytes32"
        },
        {
          "internalType": "uint256",
          "name": "assertionIndex",
          "type": "uint256"
        }
      ],
      "name": "getAssertionIssuer",
      "outputs": [
        {
          "internalType": "address",
          "name": "",
          "type": "address"
        }
      ],
      "stateMutability": "view",
      "type": "function"
    },
    {
      "inputs": [
        {
          "internalType": "bytes32",
          "name": "assetAssertionId",
          "type": "bytes32"
        }
      ],
      "name": "assertionExists",
      "outputs": [
        {
          "internalType": "bool",
          "name": "",
          "type": "bool"
        }
      ],
      "stateMutability": "view",
      "type": "function"
    }
  ],
  "bytecode": "0x60806040523480156200001157600080fd5b5060405162001c2638038062001c268339810160408190526200003491620000df565b604080518082018252601381527f436f6e74656e74417373657453746f726167650000000000000000000000000060208083019190915282518084019093526003835262444b4760e81b9083015290826001600160a01b0381166200009857600080fd5b600080546001600160a01b0319166001600160a01b03929092169190911790556001620000c68382620001b6565b506002620000d58282620001b6565b5050505062000282565b600060208284031215620000f257600080fd5b81516001600160a01b03811681146200010a57600080fd5b9392505050565b634e487b7160e01b600052604160045260246000fd5b600181811c908216806200013c57607f821691505b6020821081036200015d57634e487b7160e01b600052602260045260246000fd5b50919050565b601f821115620001b157600081815260208120601f850160051c810160208610156200018c5750805b601f850160051c820191505b81811015620001ad5782815560010162000198565b5050505b505050565b81516001600160401b03811115620001d257620001d262000111565b620001ea81620001e3845462000127565b8462000163565b602080601f831160018114620002225760008415620002095750858301515b600019600386901b1c1916600185901b178555620001ad565b600085815260208120601f198616915b82811015620002535788860151825594840194600190910190840162000232565b5085821015620002725787850151600019600388901b60f8161c191681555b5050505050600190811b01905550565b61199480620002926000396000f3fe608060405234801561001057600080fd5b50600436106101a95760003560e01c806369941ccc116100f9578063c53a441311610097578063e985e9c511610071578063e985e9c51461041d578063eac8f5b814610459578063eaeb169514610479578063fef57daf1461048c57600080fd5b8063c53a4413146103ce578063c87b56dd146103f7578063cede992f1461040a57600080fd5b806375e5231b116100d357806375e5231b1461038d57806395d89b41146103a0578063a22cb465146103a8578063b88d4fde146103bb57600080fd5b806369941ccc146103095780636db609551461036457806370a082311461037a57600080fd5b8063365a86fc1161016657806342842e0e1161014057806342842e0e1461029757806354fd4d50146102aa5780635a4038f5146102cb5780636352211e146102f657600080fd5b8063365a86fc1461025e578063367bcd9f1461027157806340c10f191461028457600080fd5b806301ffc9a7146101ae57806306fdde03146101d6578063081812fc146101eb578063095ea7b3146102165780630bc29f0f1461022b57806323b872dd1461024b575b600080fd5b6101c16101bc366004611365565b61049f565b60405190151581526020015b60405180910390f35b6101de6104f1565b6040516101cd91906113d2565b6101fe6101f93660046113e5565b610500565b6040516001600160a01b0390911681526020016101cd565b61022961022436600461141a565b610527565b005b61023e6102393660046113e5565b610641565b6040516101cd9190611444565b610229610259366004611488565b6106a3565b6000546101fe906001600160a01b031681565b61022961027f3660046114c4565b6106d4565b61022961029236600461141a565b6106ff565b6102296102a5366004611488565b610715565b6040805180820190915260058152640312e302e360dc1b60208201526101de565b6101c16102d93660046113e5565b6000908152600960205260409020546001600160a01b0316151590565b6101fe6103043660046113e5565b610730565b6101fe6103173660046114e6565b60408051602080820195909552808201939093526060808401929092528051808403909201825260809092018252805190830120600090815260099092529020546001600160a01b031690565b61036c610790565b6040519081526020016101cd565b61036c610388366004611512565b6107a9565b61036c61039b3660046114c4565b61082f565b6101de610860565b6102296103b636600461153b565b6108f2565b6102296103c9366004611588565b6108fd565b6101fe6103dc3660046113e5565b6009602052600090815260409020546001600160a01b031681565b6101de6104053660046113e5565b610935565b61036c6104183660046113e5565b6109a9565b6101c161042b366004611664565b6001600160a01b03918216600090815260066020908152604080832093909416825291909152205460ff1690565b61046c6104673660046113e5565b6109e6565b6040516101cd9190611697565b6102296104873660046116e7565b610a5f565b61036c61049a3660046113e5565b610b44565b60006001600160e01b031982166380ac58cd60e01b14806104d057506001600160e01b03198216635b5e139f60e01b145b806104eb57506301ffc9a760e01b6001600160e01b03198316145b92915050565b60606104fb610b56565b905090565b600061050b82610b65565b506000908152600560205260409020546001600160a01b031690565b600061053282610730565b9050806001600160a01b0316836001600160a01b0316036105a45760405162461bcd60e51b815260206004820152602160248201527f4552433732313a20617070726f76616c20746f2063757272656e74206f776e656044820152603960f91b60648201526084015b60405180910390fd5b336001600160a01b03821614806105c057506105c0813361042b565b6106325760405162461bcd60e51b815260206004820152603e60248201527f4552433732313a20617070726f76652063616c6c6572206973206e6f7420746f60448201527f6b656e206f776e6572206e6f7220617070726f76656420666f7220616c6c0000606482015260840161059b565b61063c8383610bc7565b505050565b60008181526008602090815260409182902080548351818402810184019094528084526060939283018282801561069757602002820191906000526020600020905b815481526020019060010190808311610683575b50505050509050919050565b6106ad3382610c35565b6106c95760405162461bcd60e51b815260040161059b9061171c565b61063c838383610cb4565b6106dc610e50565b600091825260086020908152604083208054600181018255908452922090910155565b610707610e50565b6107118282610f0a565b5050565b61063c838383604051806020016040528060008152506108fd565b6000818152600360205260408120546001600160a01b0316806104eb5760405162461bcd60e51b8152602060048201526018602482015277115490cdcc8c4e881a5b9d985b1a59081d1bdad95b88125160421b604482015260640161059b565b600061079a610e50565b50600780546001810190915590565b60006001600160a01b0382166108135760405162461bcd60e51b815260206004820152602960248201527f4552433732313a2061646472657373207a65726f206973206e6f7420612076616044820152683634b21037bbb732b960b91b606482015260840161059b565b506001600160a01b031660009081526004602052604090205490565b60008061083b84610641565b905080838151811061084f5761084f61176a565b602002602001015191505092915050565b60606002805461086f90611780565b80601f016020809104026020016040519081016040528092919081815260200182805461089b90611780565b80156108e85780601f106108bd576101008083540402835291602001916108e8565b820191906000526020600020905b8154815290600101906020018083116108cb57829003601f168201915b5050505050905090565b61071133838361104c565b6109073383610c35565b6109235760405162461bcd60e51b815260040161059b9061171c565b61092f8484848461111a565b50505050565b606061094082610b65565b600061095760408051602081019091526000815290565b9050600081511161097757604051806020016040528060008152506109a2565b806109818461114d565b6040516020016109929291906117ba565b6040516020818303038152906040525b9392505050565b6000806109b583610641565b905080600182516109c691906117ff565b815181106109d6576109d661176a565b6020026020010151915050919050565b60408051602080820183526060825260008481526008825283902083518154808402820186018652928101838152939490939192849291849190840182828015610a4f57602002820191906000526020600020905b815481526020019060010190808311610a3b575b5050505050815250509050919050565b610a67610e50565b80600960008585306001600160a01b031663fef57daf896040518263ffffffff1660e01b8152600401610a9c91815260200190565b602060405180830381865afa158015610ab9573d6000803e3d6000fd5b505050506040513d601f19601f82011682018060405250810190610add9190611812565b604080516020810194909452830191909152606082015260800160405160208183030381529060405280519060200120815260200190815260200160002060006101000a8154816001600160a01b0302191690836001600160a01b03160217905550505050565b6000610b4f82610641565b5192915050565b60606001805461086f90611780565b6000818152600360205260409020546001600160a01b0316610bc45760405162461bcd60e51b8152602060048201526018602482015277115490cdcc8c4e881a5b9d985b1a59081d1bdad95b88125160421b604482015260640161059b565b50565b600081815260056020526040902080546001600160a01b0319166001600160a01b0384169081179091558190610bfc82610730565b6001600160a01b03167f8c5be1e5ebec7d5bd14f71427d1e84f3dd0314c0f7b2291e5b200ac8c7c3b92560405160405180910390a45050565b600080610c4183610730565b9050806001600160a01b0316846001600160a01b03161480610c8857506001600160a01b0380821660009081526006602090815260408083209388168352929052205460ff165b80610cac5750836001600160a01b0316610ca184610500565b6001600160a01b0316145b949350505050565b826001600160a01b0316610cc782610730565b6001600160a01b031614610d2b5760405162461bcd60e51b815260206004820152602560248201527f4552433732313a207472616e736665722066726f6d20696e636f72726563742060448201526437bbb732b960d91b606482015260840161059b565b6001600160a01b038216610d8d5760405162461bcd60e51b8152602060048201526024808201527f4552433732313a207472616e7366657220746f20746865207a65726f206164646044820152637265737360e01b606482015260840161059b565b610d98600082610bc7565b6001600160a01b0383166000908152600460205260408120805460019290610dc19084906117ff565b90915550506001600160a01b0382166000908152600460205260408120805460019290610def90849061182b565b909155505060008181526003602052604080822080546001600160a01b0319166001600160a01b0386811691821790925591518493918716917fddf252ad1be2c89b69c2b068fc378daa952ba7f163c4a11628f55a4df523b3ef91a4505050565b600054604051631627905560e01b81523360048201526001600160a01b0390911690631627905590602401602060405180830381865afa158015610e98573d6000803e3d6000fd5b505050506040513d601f19601f82011682018060405250810190610ebc919061183e565b610f085760405162461bcd60e51b815260206004820181905260248201527f466e2063616e206f6e6c792062652063616c6c65642062792074686520687562604482015260640161059b565b565b6001600160a01b038216610f605760405162461bcd60e51b815260206004820181905260248201527f4552433732313a206d696e7420746f20746865207a65726f2061646472657373604482015260640161059b565b6000818152600360205260409020546001600160a01b031615610fc55760405162461bcd60e51b815260206004820152601c60248201527f4552433732313a20746f6b656e20616c7265616479206d696e74656400000000604482015260640161059b565b6001600160a01b0382166000908152600460205260408120805460019290610fee90849061182b565b909155505060008181526003602052604080822080546001600160a01b0319166001600160a01b03861690811790915590518392907fddf252ad1be2c89b69c2b068fc378daa952ba7f163c4a11628f55a4df523b3ef908290a45050565b816001600160a01b0316836001600160a01b0316036110ad5760405162461bcd60e51b815260206004820152601960248201527f4552433732313a20617070726f766520746f2063616c6c657200000000000000604482015260640161059b565b6001600160a01b03838116600081815260066020908152604080832094871680845294825291829020805460ff191686151590811790915591519182527f17307eab39ab6107e8899845ad3d59bd9653f200f220920489ca2b5937696c31910160405180910390a3505050565b611125848484610cb4565b6111318484848461124e565b61092f5760405162461bcd60e51b815260040161059b9061185b565b6060816000036111745750506040805180820190915260018152600360fc1b602082015290565b8160005b811561119e5780611188816118ad565b91506111979050600a836118dc565b9150611178565b60008167ffffffffffffffff8111156111b9576111b9611572565b6040519080825280601f01601f1916602001820160405280156111e3576020820181803683370190505b5090505b8415610cac576111f86001836117ff565b9150611205600a866118f0565b61121090603061182b565b60f81b8183815181106112255761122561176a565b60200101906001600160f81b031916908160001a905350611247600a866118dc565b94506111e7565b60006001600160a01b0384163b1561134457604051630a85bd0160e11b81526001600160a01b0385169063150b7a0290611292903390899088908890600401611904565b6020604051808303816000875af19250505080156112cd575060408051601f3d908101601f191682019092526112ca91810190611941565b60015b61132a573d8080156112fb576040519150601f19603f3d011682016040523d82523d6000602084013e611300565b606091505b5080516000036113225760405162461bcd60e51b815260040161059b9061185b565b805181602001fd5b6001600160e01b031916630a85bd0160e11b149050610cac565b506001949350505050565b6001600160e01b031981168114610bc457600080fd5b60006020828403121561137757600080fd5b81356109a28161134f565b60005b8381101561139d578181015183820152602001611385565b50506000910152565b600081518084526113be816020860160208601611382565b601f01601f19169290920160200192915050565b6020815260006109a260208301846113a6565b6000602082840312156113f757600080fd5b5035919050565b80356001600160a01b038116811461141557600080fd5b919050565b6000806040838503121561142d57600080fd5b611436836113fe565b946020939093013593505050565b6020808252825182820181905260009190848201906040850190845b8181101561147c57835183529284019291840191600101611460565b50909695505050505050565b60008060006060848603121561149d57600080fd5b6114a6846113fe565b92506114b4602085016113fe565b9150604084013590509250925092565b600080604083850312156114d757600080fd5b50508035926020909101359150565b6000806000606084860312156114fb57600080fd5b505081359360208301359350604090920135919050565b60006020828403121561152457600080fd5b6109a2826113fe565b8015158114610bc457600080fd5b6000806040838503121561154e57600080fd5b611557836113fe565b915060208301356115678161152d565b809150509250929050565b634e487b7160e01b600052604160045260246000fd5b6000806000806080858703121561159e57600080fd5b6115a7856113fe565b93506115b5602086016113fe565b925060408501359150606085013567ffffffffffffffff808211156115d957600080fd5b818701915087601f8301126115ed57600080fd5b8135818111156115ff576115ff611572565b604051601f8201601f19908116603f0116810190838211818310171561162757611627611572565b816040528281528a602084870101111561164057600080fd5b82602086016020830137600060208483010152809550505050505092959194509250565b6000806040838503121561167757600080fd5b611680836113fe565b915061168e602084016113fe565b90509250929050565b6020808252825182820182905280516040840181905260009291820190839060608601905b808310156116dc57835182529284019260019290920191908401906116bc565b509695505050505050565b6000806000606084860312156116fc57600080fd5b8335925060208401359150611713604085016113fe565b90509250925092565b6020808252602e908201527f4552433732313a2063616c6c6572206973206e6f7420746f6b656e206f776e6560408201526d1c881b9bdc88185c1c1c9bdd995960921b606082015260800190565b634e487b7160e01b600052603260045260246000fd5b600181811c9082168061179457607f821691505b6020821081036117b457634e487b7160e01b600052602260045260246000fd5b50919050565b600083516117cc818460208801611382565b8351908301906117e0818360208801611382565b01949350505050565b634e487b7160e01b600052601160045260246000fd5b818103818111156104eb576104eb6117e9565b60006020828403121561182457600080fd5b5051919050565b808201808211156104eb576104eb6117e9565b60006020828403121561185057600080fd5b81516109a28161152d565b60208082526032908201527f4552433732313a207472616e7366657220746f206e6f6e20455243373231526560408201527131b2b4bb32b91034b6b83632b6b2b73a32b960711b606082015260800190565b6000600182016118bf576118bf6117e9565b5060010190565b634e487b7160e01b600052601260045260246000fd5b6000826118eb576118eb6118c6565b500490565b6000826118ff576118ff6118c6565b500690565b6001600160a01b0385811682528416602082015260408101839052608060608201819052600090611937908301846113a6565b9695505050505050565b60006020828403121561195357600080fd5b81516109a28161134f56fea2646970667358221220e9460ca37fcc7d85d95f4b0ad5fde774537ab2162165e557874674af1c19a88e64736f6c63430008100033",
  "immutableReferences": {},
  "source": "// SPDX-License-Identifier: MIT\n\npragma solidity ^0.8.4;\n\nimport { AbstractAsset } from \"../../assets/AbstractAsset.sol\";\nimport { Hub } from \"../../Hub.sol\";\nimport { Named } from \"../../interface/Named.sol\";\nimport { ContentAssetStructs } from \"../../structs/assets/ContentAssetStructs.sol\";\nimport { ERC721 } from \"@openzeppelin/contracts/token/ERC721/ERC721.sol\";\n\ncontract ContentAssetStorage is AbstractAsset, ERC721 {\n\n    string constant private _NAME = \"ContentAssetStorage\";\n    string constant private _VERSION = \"1.0.0\";\n\n    uint256 private _tokenId;\n\n    // tokenId => Asset\n    mapping (uint256 => ContentAssetStructs.Asset) assets;\n\n    // keccak256(tokenId + assertionId + assertionIdIndex) => issuer\n    mapping(bytes32 => address) public issuers;\n\n    constructor(address hubAddress) AbstractAsset(hubAddress) ERC721(\"ContentAssetStorage\", \"DKG\") {}\n\n    modifier onlyContracts() {\n        _checkHub();\n        _;\n    }\n\n    function name() public view override(Named, ERC721) returns (string memory) {\n        return ERC721.name();\n    }\n\n    function version() external pure override returns (string memory) {\n        return _VERSION;\n    }\n\n    function mint(address to, uint256 tokenId) external onlyContracts {\n        _mint(to, tokenId);\n    }\n\n    function generateTokenId() external onlyContracts returns (uint256) {\n        unchecked { return _tokenId++; }\n    }\n\n    function getAsset(uint256 tokenId) external view returns (ContentAssetStructs.Asset memory) {\n        return assets[tokenId];\n    }\n\n    function pushAssertionId(uint256 tokenId, bytes32 assertionId) external onlyContracts {\n        assets[tokenId].assertionIds.push(assertionId);\n    }\n\n    function getAssertionIds(uint256 tokenId) public view override returns (bytes32[] memory) {\n        return assets[tokenId].assertionIds;\n    }\n\n    function setAssertionIssuer(uint256 tokenId, bytes32 assertionId, address issuer)\n        external\n        onlyContracts\n    {\n        issuers[keccak256(abi.encodePacked(tokenId, assertionId, this.getAssertionIdsLength(tokenId)))] = issuer;\n    }\n\n    function getAssertionIssuer(uint256 tokenId, bytes32 assertionId, uint256 assertionIndex)\n        external\n        view\n        returns (address)\n    {\n        return issuers[keccak256(abi.encodePacked(tokenId, assertionId, assertionIndex))];\n    }\n\n    function assertionExists(bytes32 assetAssertionId) external view returns (bool) {\n        return issuers[assetAssertionId] != address(0);\n    }\n\n    function _checkHub() internal view virtual {\n        require(hub.isContract(msg.sender), \"Fn can only be called by the hub\");\n    }\n\n}\n",
  "sourcePath": "/Users/waving/Desktop/OriginTrail/dkg-evm-module/contracts/storage/assets/ContentAssetStorage.sol",
  "compiler": {
    "name": "solc",
    "version": "0.8.16+commit.07a7930e.Emscripten.clang"
  },
  "schemaVersion": "3.4.10",
  "updatedAt": "2022-12-08T16:40:13.625Z",
  "devdoc": {
    "kind": "dev",
    "methods": {
      "approve(address,uint256)": {
        "details": "See {IERC721-approve}."
      },
      "balanceOf(address)": {
        "details": "See {IERC721-balanceOf}."
      },
      "getApproved(uint256)": {
        "details": "See {IERC721-getApproved}."
      },
      "isApprovedForAll(address,address)": {
        "details": "See {IERC721-isApprovedForAll}."
      },
      "ownerOf(uint256)": {
        "details": "See {IERC721-ownerOf}."
      },
      "safeTransferFrom(address,address,uint256)": {
        "details": "See {IERC721-safeTransferFrom}."
      },
      "safeTransferFrom(address,address,uint256,bytes)": {
        "details": "See {IERC721-safeTransferFrom}."
      },
      "setApprovalForAll(address,bool)": {
        "details": "See {IERC721-setApprovalForAll}."
      },
      "supportsInterface(bytes4)": {
        "details": "See {IERC165-supportsInterface}."
      },
      "symbol()": {
        "details": "See {IERC721Metadata-symbol}."
      },
      "tokenURI(uint256)": {
        "details": "See {IERC721Metadata-tokenURI}."
      },
      "transferFrom(address,address,uint256)": {
        "details": "See {IERC721-transferFrom}."
      }
    },
    "version": 1
  },
  "userdoc": {
    "kind": "user",
    "methods": {},
    "version": 1
  }
}