{
  "contractName": "ContentAsset",
  "abi": [
    {
      "inputs": [
        {
          "internalType": "address",
          "name": "hubAddress",
          "type": "address"
        }
      ],
      "stateMutability": "nonpayable",
      "type": "constructor"
    },
    {
      "anonymous": false,
      "inputs": [
        {
          "indexed": true,
          "internalType": "address",
          "name": "assetContract",
          "type": "address"
        },
        {
          "indexed": true,
          "internalType": "uint256",
          "name": "tokenId",
          "type": "uint256"
        },
        {
          "indexed": true,
          "internalType": "bytes32",
          "name": "stateCommitHash",
          "type": "bytes32"
        }
      ],
      "name": "AssetCreated",
      "type": "event"
    },
    {
      "anonymous": false,
      "inputs": [
        {
          "indexed": true,
          "internalType": "address",
          "name": "assetContract",
          "type": "address"
        },
        {
          "indexed": true,
          "internalType": "uint256",
          "name": "tokenId",
          "type": "uint256"
        },
        {
          "indexed": true,
          "internalType": "bytes32",
          "name": "stateCommitHash",
          "type": "bytes32"
        }
      ],
      "name": "AssetUpdated",
      "type": "event"
    },
    {
      "inputs": [],
      "name": "assertionContract",
      "outputs": [
        {
          "internalType": "contract Assertion",
          "name": "",
          "type": "address"
        }
      ],
      "stateMutability": "view",
      "type": "function"
    },
    {
      "inputs": [],
      "name": "contentAssetStorage",
      "outputs": [
        {
          "internalType": "contract ContentAssetStorage",
          "name": "",
          "type": "address"
        }
      ],
      "stateMutability": "view",
      "type": "function"
    },
    {
      "inputs": [],
      "name": "hub",
      "outputs": [
        {
          "internalType": "contract Hub",
          "name": "",
          "type": "address"
        }
      ],
      "stateMutability": "view",
      "type": "function"
    },
    {
      "inputs": [],
      "name": "serviceAgreementV1",
      "outputs": [
        {
          "internalType": "contract ServiceAgreementV1",
          "name": "",
          "type": "address"
        }
      ],
      "stateMutability": "view",
      "type": "function"
    },
    {
      "inputs": [],
      "name": "initialize",
      "outputs": [],
      "stateMutability": "nonpayable",
      "type": "function"
    },
    {
      "inputs": [],
      "name": "name",
      "outputs": [
        {
          "internalType": "string",
          "name": "",
          "type": "string"
        }
      ],
      "stateMutability": "pure",
      "type": "function"
    },
    {
      "inputs": [],
      "name": "version",
      "outputs": [
        {
          "internalType": "string",
          "name": "",
          "type": "string"
        }
      ],
      "stateMutability": "pure",
      "type": "function"
    },
    {
      "inputs": [
        {
          "components": [
            {
              "internalType": "bytes32",
              "name": "assertionId",
              "type": "bytes32"
            },
            {
              "internalType": "uint128",
              "name": "size",
              "type": "uint128"
            },
            {
              "internalType": "uint32",
              "name": "triplesNumber",
              "type": "uint32"
            },
            {
              "internalType": "uint96",
              "name": "chunksNumber",
              "type": "uint96"
            },
            {
              "internalType": "uint16",
              "name": "epochsNumber",
              "type": "uint16"
            },
            {
              "internalType": "uint96",
              "name": "tokenAmount",
              "type": "uint96"
            },
            {
              "internalType": "uint8",
              "name": "scoreFunctionId",
              "type": "uint8"
            }
          ],
          "internalType": "struct ContentAssetStructs.AssetInputArgs",
          "name": "args",
          "type": "tuple"
        }
      ],
      "name": "createAsset",
      "outputs": [],
      "stateMutability": "nonpayable",
      "type": "function"
    }
  ],
  "bytecode": "0x608060405234801561001057600080fd5b5060405162000dc438038062000dc483398101604081905261003191610347565b6001600160a01b03811661004457600080fd5b600080546001600160a01b0319166001600160a01b03831617905561006761006d565b50610377565b61007561026c565b600054604051630110ceef60e21b815260206004820152600960248201526820b9b9b2b93a34b7b760b91b60448201526001600160a01b03909116906304433bbc90606401602060405180830381865afa1580156100d7573d6000803e3d6000fd5b505050506040513d601f19601f820116820180604052508101906100fb9190610347565b600180546001600160a01b0319166001600160a01b03928316179055600054604051633222517f60e11b815260206004820152601360248201527f436f6e74656e74417373657453746f72616765000000000000000000000000006044820152911690636444a2fe90606401602060405180830381865afa158015610184573d6000803e3d6000fd5b505050506040513d601f19601f820116820180604052508101906101a89190610347565b600280546001600160a01b0319166001600160a01b03928316179055600054604051630110ceef60e21b81526020600482015260126024820152715365727669636541677265656d656e74563160701b60448201529116906304433bbc90606401602060405180830381865afa158015610226573d6000803e3d6000fd5b505050506040513d601f19601f8201168201806040525081019061024a9190610347565b600380546001600160a01b0319166001600160a01b0392909216919091179055565b60008054906101000a90046001600160a01b03166001600160a01b0316638da5cb5b6040518163ffffffff1660e01b8152600401602060405180830381865afa1580156102bd573d6000803e3d6000fd5b505050506040513d601f19601f820116820180604052508101906102e19190610347565b6001600160a01b0316336001600160a01b0316146103455760405162461bcd60e51b815260206004820181905260248201527f466e2063616e206f6e6c79206265207573656420627920687562206f776e6572604482015260640160405180910390fd5b565b60006020828403121561035957600080fd5b81516001600160a01b038116811461037057600080fd5b9392505050565b610a3d80620003876000396000f3fe608060405234801561001057600080fd5b50600436106100885760003560e01c806365b345591161005b57806365b34559146101265780638129fc1c1461013b578063bd1346ae14610143578063c6a2eeca1461015657600080fd5b806306fdde031461008d578063365a86fc146100c75780634b4aeac7146100f257806354fd4d5014610105575b600080fd5b60408051808201909152600c81526b10dbdb9d195b9d105cdcd95d60a21b60208201525b6040516100be9190610838565b60405180910390f35b6000546100da906001600160a01b031681565b6040516001600160a01b0390911681526020016100be565b6001546100da906001600160a01b031681565b6040805180820190915260058152640312e302e360dc1b60208201526100b1565b610139610134366004610852565b610169565b005b610139610522565b6002546100da906001600160a01b031681565b6003546100da906001600160a01b031681565b60025460408051636db6095560e01b815290516001600160a01b03909216916000918391636db6095591600480820192602092909190829003018187875af11580156101b9573d6000803e3d6000fd5b505050506040513d601f19601f820116820180604052508101906101dd919061086a565b6040516340c10f1960e01b8152336004820152602481018290529091506001600160a01b038316906340c10f1990604401600060405180830381600087803b15801561022857600080fd5b505af115801561023c573d6000803e3d6000fd5b50506001546001600160a01b0316915063b83838f2905084356102656040870160208801610883565b61027560608801604089016108ac565b6102856080890160608a016108d2565b6040516001600160e01b031960e087901b16815260048101949094526001600160801b03909216602484015263ffffffff1660448301526001600160601b03166064820152608401600060405180830381600087803b1580156102e757600080fd5b505af11580156102fb573d6000803e3d6000fd5b505060405163eaeb169560e01b815260048101849052853560248201523360448201526001600160a01b038516925063eaeb16959150606401600060405180830381600087803b15801561034e57600080fd5b505af1158015610362573d6000803e3d6000fd5b505060405163367bcd9f60e01b815260048101849052853560248201526001600160a01b038516925063367bcd9f9150604401600060405180830381600087803b1580156103af57600080fd5b505af11580156103c3573d6000803e3d6000fd5b505060035460408051610100810182523381526002546001600160a01b0380821660208085019190915283850189905293516bffffffffffffffffffffffff19606093841b169481019490945289356034850152909316945063e1572ce693509182019060540160408051601f19818403018152918152908252600160208301520161045560a08801608089016108fb565b61ffff16815260200161046e60c0880160a089016108d2565b6001600160601b0316815260200161048c60e0880160c0890161091f565b60ff168152506040518263ffffffff1660e01b81526004016104ae9190610942565b600060405180830381600087803b1580156104c857600080fd5b505af11580156104dc573d6000803e3d6000fd5b5050600254604051863593508492506001600160a01b03909116907fac922a526a52087fe0a96f1d8706cea6cfecda5848221cd24dc78515d2b3019d90600090a4505050565b61052a610717565b600054604051630110ceef60e21b815260206004820152600960248201526820b9b9b2b93a34b7b760b91b60448201526001600160a01b03909116906304433bbc90606401602060405180830381865afa15801561058c573d6000803e3d6000fd5b505050506040513d601f19601f820116820180604052508101906105b091906109de565b600180546001600160a01b0319166001600160a01b03928316179055600054604051633222517f60e11b8152602060048201526013602482015272436f6e74656e74417373657453746f7261676560681b6044820152911690636444a2fe90606401602060405180830381865afa15801561062f573d6000803e3d6000fd5b505050506040513d601f19601f8201168201806040525081019061065391906109de565b600280546001600160a01b0319166001600160a01b03928316179055600054604051630110ceef60e21b81526020600482015260126024820152715365727669636541677265656d656e74563160701b60448201529116906304433bbc90606401602060405180830381865afa1580156106d1573d6000803e3d6000fd5b505050506040513d601f19601f820116820180604052508101906106f591906109de565b600380546001600160a01b0319166001600160a01b0392909216919091179055565b60008054906101000a90046001600160a01b03166001600160a01b0316638da5cb5b6040518163ffffffff1660e01b8152600401602060405180830381865afa158015610768573d6000803e3d6000fd5b505050506040513d601f19601f8201168201806040525081019061078c91906109de565b6001600160a01b0316336001600160a01b0316146107f05760405162461bcd60e51b815260206004820181905260248201527f466e2063616e206f6e6c79206265207573656420627920687562206f776e6572604482015260640160405180910390fd5b565b6000815180845260005b81811015610818576020818501810151868301820152016107fc565b506000602082860101526020601f19601f83011685010191505092915050565b60208152600061084b60208301846107f2565b9392505050565b600060e0828403121561086457600080fd5b50919050565b60006020828403121561087c57600080fd5b5051919050565b60006020828403121561089557600080fd5b81356001600160801b038116811461084b57600080fd5b6000602082840312156108be57600080fd5b813563ffffffff8116811461084b57600080fd5b6000602082840312156108e457600080fd5b81356001600160601b038116811461084b57600080fd5b60006020828403121561090d57600080fd5b813561ffff8116811461084b57600080fd5b60006020828403121561093157600080fd5b813560ff8116811461084b57600080fd5b60208152600060018060a01b038084511660208401528060208501511660408401525060408301516060830152606083015161010080608085015261098b6101208501836107f2565b915060808501516109a160a086018260ff169052565b5060a085015161ffff811660c08601525060c08501516001600160601b03811660e08601525060e085015160ff8116858301525090949350505050565b6000602082840312156109f057600080fd5b81516001600160a01b038116811461084b57600080fdfea2646970667358221220327563c2e991de5ca7fc2b3a2564e53fa681f735e0397f93daebe7bf6ab330f664736f6c63430008100033",
  "immutableReferences": {},
  "source": "// SPDX-License-Identifier: MIT\n\npragma solidity ^0.8.4;\n\nimport { Assertion } from \"../Assertion.sol\";\nimport { Hub } from \"../Hub.sol\";\nimport { ServiceAgreementV1 } from \"../ServiceAgreementV1.sol\";\nimport { Named } from \"../interface/Named.sol\";\nimport { Versioned } from \"../interface/Versioned.sol\";\nimport { ContentAssetStorage } from \"../storage/assets/ContentAssetStorage.sol\";\nimport { ContentAssetStructs } from \"../structs/assets/ContentAssetStructs.sol\";\nimport { ServiceAgreementStructsV1 } from \"../structs/ServiceAgreementStructsV1.sol\";\n\ncontract ContentAsset is Named, Versioned {\n\n    event AssetCreated(address indexed assetContract, uint256 indexed tokenId, bytes32 indexed stateCommitHash);\n    event AssetUpdated(address indexed assetContract, uint256 indexed tokenId, bytes32 indexed stateCommitHash);\n\n    string constant private _NAME = \"ContentAsset\";\n    string constant private _VERSION = \"1.0.0\";\n\n    Hub public hub;\n    Assertion public assertionContract;\n    ContentAssetStorage public contentAssetStorage;\n    ServiceAgreementV1 public serviceAgreementV1;\n\n    constructor(address hubAddress) {\n        require(hubAddress != address(0));\n\n\t\thub = Hub(hubAddress);\n        initialize();\n    }\n\n    function initialize() public onlyHubOwner {\n        assertionContract = Assertion(hub.getContractAddress(\"Assertion\"));\n        contentAssetStorage = ContentAssetStorage(hub.getAssetStorageAddress(\"ContentAssetStorage\"));\n        serviceAgreementV1 = ServiceAgreementV1(hub.getContractAddress(\"ServiceAgreementV1\"));\n    }\n\n    modifier onlyHubOwner() {\n        _checkHubOwner();\n        _;\n    }\n\n    modifier onlyAssetOwner(uint256 tokenId) {\n        _checkAssetOwner(tokenId);\n        _;\n    }\n\n    function name() external pure override returns (string memory) {\n        return _NAME;\n    }\n\n    function version() external pure override returns (string memory) {\n        return _VERSION;\n    }\n\n    function createAsset(ContentAssetStructs.AssetInputArgs calldata args) external {\n        ContentAssetStorage cas = contentAssetStorage;\n\n        uint256 tokenId = cas.generateTokenId();\n        cas.mint(msg.sender, tokenId);\n\n        assertionContract.createAssertion(\n            args.assertionId,\n            args.size,\n            args.triplesNumber,\n            args.chunksNumber\n        );\n        cas.setAssertionIssuer(tokenId, args.assertionId, msg.sender);\n        cas.pushAssertionId(tokenId, args.assertionId);\n\n        serviceAgreementV1.createServiceAgreement(\n            ServiceAgreementStructsV1.ServiceAgreementInputArgs({\n                assetCreator: msg.sender,\n                assetContract: address(contentAssetStorage),\n                tokenId: tokenId,\n                keyword: abi.encodePacked(address(contentAssetStorage), args.assertionId),\n                hashFunctionId: 1,  // hashFunctionId | 1 = sha256\n                epochsNumber: args.epochsNumber,\n                tokenAmount: args.tokenAmount,\n                scoreFunctionId: args.scoreFunctionId\n            })\n        );\n\n        emit AssetCreated(address(contentAssetStorage), tokenId, args.assertionId);\n    }\n\n    function _checkHubOwner() internal view virtual {\n        require(msg.sender == hub.owner(), \"Fn can only be used by hub owner\");\n    }\n\n    function _checkAssetOwner(uint256 tokenId) internal view virtual {\n        require(msg.sender == contentAssetStorage.ownerOf(tokenId), \"Only asset owner can use this fn\");\n    }\n\n}\n",
  "sourcePath": "/Users/waving/Desktop/OriginTrail/dkg-evm-module/contracts/assets/ContentAsset.sol",
  "compiler": {
    "name": "solc",
    "version": "0.8.16+commit.07a7930e.Emscripten.clang"
  },
  "schemaVersion": "3.4.10",
  "updatedAt": "2022-12-08T17:46:21.982Z",
  "devdoc": {
    "kind": "dev",
    "methods": {},
    "version": 1
  },
  "userdoc": {
    "kind": "user",
    "methods": {},
    "version": 1
  }
}