{
  "contractName": "ContentAsset",
  "abi": [
    {
      "inputs": [
        {
          "internalType": "address",
          "name": "hubAddress",
          "type": "address"
        }
      ],
      "stateMutability": "nonpayable",
      "type": "constructor"
    },
    {
      "anonymous": false,
      "inputs": [
        {
          "indexed": true,
          "internalType": "address",
          "name": "owner",
          "type": "address"
        },
        {
          "indexed": true,
          "internalType": "address",
          "name": "approved",
          "type": "address"
        },
        {
          "indexed": true,
          "internalType": "uint256",
          "name": "tokenId",
          "type": "uint256"
        }
      ],
      "name": "Approval",
      "type": "event"
    },
    {
      "anonymous": false,
      "inputs": [
        {
          "indexed": true,
          "internalType": "address",
          "name": "owner",
          "type": "address"
        },
        {
          "indexed": true,
          "internalType": "address",
          "name": "operator",
          "type": "address"
        },
        {
          "indexed": false,
          "internalType": "bool",
          "name": "approved",
          "type": "bool"
        }
      ],
      "name": "ApprovalForAll",
      "type": "event"
    },
    {
      "anonymous": false,
      "inputs": [
        {
          "indexed": true,
          "internalType": "address",
          "name": "assetContract",
          "type": "address"
        },
        {
          "indexed": true,
          "internalType": "uint256",
          "name": "tokenId",
          "type": "uint256"
        },
        {
          "indexed": true,
          "internalType": "bytes32",
          "name": "stateCommitHash",
          "type": "bytes32"
        }
      ],
      "name": "AssetCreated",
      "type": "event"
    },
    {
      "anonymous": false,
      "inputs": [
        {
          "indexed": true,
          "internalType": "address",
          "name": "assetContract",
          "type": "address"
        },
        {
          "indexed": true,
          "internalType": "uint256",
          "name": "tokenId",
          "type": "uint256"
        },
        {
          "indexed": true,
          "internalType": "bytes32",
          "name": "stateCommitHash",
          "type": "bytes32"
        }
      ],
      "name": "AssetUpdated",
      "type": "event"
    },
    {
      "anonymous": false,
      "inputs": [
        {
          "indexed": true,
          "internalType": "address",
          "name": "from",
          "type": "address"
        },
        {
          "indexed": true,
          "internalType": "address",
          "name": "to",
          "type": "address"
        },
        {
          "indexed": true,
          "internalType": "uint256",
          "name": "tokenId",
          "type": "uint256"
        }
      ],
      "name": "Transfer",
      "type": "event"
    },
    {
      "inputs": [
        {
          "internalType": "address",
          "name": "to",
          "type": "address"
        },
        {
          "internalType": "uint256",
          "name": "tokenId",
          "type": "uint256"
        }
      ],
      "name": "approve",
      "outputs": [],
      "stateMutability": "nonpayable",
      "type": "function"
    },
    {
      "inputs": [
        {
          "internalType": "address",
          "name": "owner",
          "type": "address"
        }
      ],
      "name": "balanceOf",
      "outputs": [
        {
          "internalType": "uint256",
          "name": "",
          "type": "uint256"
        }
      ],
      "stateMutability": "view",
      "type": "function"
    },
    {
      "inputs": [
        {
          "internalType": "uint256",
          "name": "tokenId",
          "type": "uint256"
        }
      ],
      "name": "getApproved",
      "outputs": [
        {
          "internalType": "address",
          "name": "",
          "type": "address"
        }
      ],
      "stateMutability": "view",
      "type": "function"
    },
    {
      "inputs": [
        {
          "internalType": "uint256",
          "name": "tokenId",
          "type": "uint256"
        },
        {
          "internalType": "uint256",
          "name": "index",
          "type": "uint256"
        }
      ],
      "name": "getAssertionByIndex",
      "outputs": [
        {
          "internalType": "bytes32",
          "name": "",
          "type": "bytes32"
        }
      ],
      "stateMutability": "view",
      "type": "function"
    },
    {
      "inputs": [
        {
          "internalType": "uint256",
          "name": "tokenId",
          "type": "uint256"
        }
      ],
      "name": "getAssertionsLength",
      "outputs": [
        {
          "internalType": "uint256",
          "name": "",
          "type": "uint256"
        }
      ],
      "stateMutability": "view",
      "type": "function"
    },
    {
      "inputs": [],
      "name": "hub",
      "outputs": [
        {
          "internalType": "contract Hub",
          "name": "",
          "type": "address"
        }
      ],
      "stateMutability": "view",
      "type": "function"
    },
    {
      "inputs": [
        {
          "internalType": "address",
          "name": "owner",
          "type": "address"
        },
        {
          "internalType": "address",
          "name": "operator",
          "type": "address"
        }
      ],
      "name": "isApprovedForAll",
      "outputs": [
        {
          "internalType": "bool",
          "name": "",
          "type": "bool"
        }
      ],
      "stateMutability": "view",
      "type": "function"
    },
    {
      "inputs": [],
      "name": "name",
      "outputs": [
        {
          "internalType": "string",
          "name": "",
          "type": "string"
        }
      ],
      "stateMutability": "view",
      "type": "function"
    },
    {
      "inputs": [
        {
          "internalType": "uint256",
          "name": "tokenId",
          "type": "uint256"
        }
      ],
      "name": "ownerOf",
      "outputs": [
        {
          "internalType": "address",
          "name": "",
          "type": "address"
        }
      ],
      "stateMutability": "view",
      "type": "function"
    },
    {
      "inputs": [
        {
          "internalType": "address",
          "name": "from",
          "type": "address"
        },
        {
          "internalType": "address",
          "name": "to",
          "type": "address"
        },
        {
          "internalType": "uint256",
          "name": "tokenId",
          "type": "uint256"
        }
      ],
      "name": "safeTransferFrom",
      "outputs": [],
      "stateMutability": "nonpayable",
      "type": "function"
    },
    {
      "inputs": [
        {
          "internalType": "address",
          "name": "from",
          "type": "address"
        },
        {
          "internalType": "address",
          "name": "to",
          "type": "address"
        },
        {
          "internalType": "uint256",
          "name": "tokenId",
          "type": "uint256"
        },
        {
          "internalType": "bytes",
          "name": "data",
          "type": "bytes"
        }
      ],
      "name": "safeTransferFrom",
      "outputs": [],
      "stateMutability": "nonpayable",
      "type": "function"
    },
    {
      "inputs": [
        {
          "internalType": "address",
          "name": "operator",
          "type": "address"
        },
        {
          "internalType": "bool",
          "name": "approved",
          "type": "bool"
        }
      ],
      "name": "setApprovalForAll",
      "outputs": [],
      "stateMutability": "nonpayable",
      "type": "function"
    },
    {
      "inputs": [
        {
          "internalType": "bytes4",
          "name": "interfaceId",
          "type": "bytes4"
        }
      ],
      "name": "supportsInterface",
      "outputs": [
        {
          "internalType": "bool",
          "name": "",
          "type": "bool"
        }
      ],
      "stateMutability": "view",
      "type": "function"
    },
    {
      "inputs": [],
      "name": "symbol",
      "outputs": [
        {
          "internalType": "string",
          "name": "",
          "type": "string"
        }
      ],
      "stateMutability": "view",
      "type": "function"
    },
    {
      "inputs": [
        {
          "internalType": "uint256",
          "name": "tokenId",
          "type": "uint256"
        }
      ],
      "name": "tokenURI",
      "outputs": [
        {
          "internalType": "string",
          "name": "",
          "type": "string"
        }
      ],
      "stateMutability": "view",
      "type": "function"
    },
    {
      "inputs": [
        {
          "internalType": "address",
          "name": "from",
          "type": "address"
        },
        {
          "internalType": "address",
          "name": "to",
          "type": "address"
        },
        {
          "internalType": "uint256",
          "name": "tokenId",
          "type": "uint256"
        }
      ],
      "name": "transferFrom",
      "outputs": [],
      "stateMutability": "nonpayable",
      "type": "function"
    },
    {
      "inputs": [
        {
          "internalType": "bytes32",
          "name": "assertionId",
          "type": "bytes32"
        },
        {
          "internalType": "uint128",
          "name": "size",
          "type": "uint128"
        },
        {
          "internalType": "uint32",
          "name": "triplesNumber",
          "type": "uint32"
        },
        {
          "internalType": "uint96",
          "name": "chunksNumber",
          "type": "uint96"
        },
        {
          "internalType": "uint16",
          "name": "epochsNumber",
          "type": "uint16"
        },
        {
          "internalType": "uint96",
          "name": "tokenAmount",
          "type": "uint96"
        }
      ],
      "name": "createAsset",
      "outputs": [],
      "stateMutability": "nonpayable",
      "type": "function"
    },
    {
      "inputs": [
        {
          "internalType": "uint256",
          "name": "tokenId",
          "type": "uint256"
        },
        {
          "internalType": "bytes32",
          "name": "assertionId",
          "type": "bytes32"
        },
        {
          "internalType": "uint128",
          "name": "size",
          "type": "uint128"
        },
        {
          "internalType": "uint32",
          "name": "triplesNumber",
          "type": "uint32"
        },
        {
          "internalType": "uint96",
          "name": "chunksNumber",
          "type": "uint96"
        },
        {
          "internalType": "uint16",
          "name": "epochsNumber",
          "type": "uint16"
        },
        {
          "internalType": "uint96",
          "name": "tokenAmount",
          "type": "uint96"
        }
      ],
      "name": "updateAsset",
      "outputs": [],
      "stateMutability": "nonpayable",
      "type": "function"
    },
    {
      "inputs": [
        {
          "internalType": "uint256",
          "name": "tokenId",
          "type": "uint256"
        }
      ],
      "name": "getAssertions",
      "outputs": [
        {
          "internalType": "bytes32[]",
          "name": "",
          "type": "bytes32[]"
        }
      ],
      "stateMutability": "view",
      "type": "function"
    }
  ],
  "bytecode": "0x60806040523480156200001157600080fd5b5060405162003c2438038062003c2483398181016040528101906200003791906200027c565b6040518060400160405280600c81526020017f436f6e74656e74417373657400000000000000000000000000000000000000008152506040518060400160405280600381526020017f444b47000000000000000000000000000000000000000000000000000000000081525082600073ffffffffffffffffffffffffffffffffffffffff168173ffffffffffffffffffffffffffffffffffffffff1603620000de57600080fd5b806000806101000a81548173ffffffffffffffffffffffffffffffffffffffff021916908373ffffffffffffffffffffffffffffffffffffffff1602179055505081600190805190602001906200013792919062000162565b5080600290805190602001906200015092919062000162565b50505060006007819055505062000312565b8280546200017090620002dd565b90600052602060002090601f016020900481019282620001945760008555620001e0565b82601f10620001af57805160ff1916838001178555620001e0565b82800160010185558215620001e0579182015b82811115620001df578251825591602001919060010190620001c2565b5b509050620001ef9190620001f3565b5090565b5b808211156200020e576000816000905550600101620001f4565b5090565b600080fd5b600073ffffffffffffffffffffffffffffffffffffffff82169050919050565b6000620002448262000217565b9050919050565b620002568162000237565b81146200026257600080fd5b50565b60008151905062000276816200024b565b92915050565b60006020828403121562000295576200029462000212565b5b6000620002a58482850162000265565b91505092915050565b7f4e487b7100000000000000000000000000000000000000000000000000000000600052602260045260246000fd5b60006002820490506001821680620002f657607f821691505b6020821081036200030c576200030b620002ae565b5b50919050565b61390280620003226000396000f3fe608060405234801561001057600080fd5b50600436106101215760003560e01c80635a58db14116100ad57806395d89b411161007157806395d89b411461033e578063a22cb4651461035c578063b88d4fde14610378578063c87b56dd14610394578063e985e9c5146103c457610121565b80635a58db14146102625780636352211e14610292578063644c055b146102c25780636ae3c072146102de57806370a082311461030e57610121565b806323b872dd116100f457806323b872dd146101c0578063365a86fc146101dc57806340d73578146101fa57806342842e0e14610216578063469766661461023257610121565b806301ffc9a71461012657806306fdde0314610156578063081812fc14610174578063095ea7b3146101a4575b600080fd5b610140600480360381019061013b919061202f565b6103f4565b60405161014d9190612077565b60405180910390f35b61015e6104d6565b60405161016b919061212b565b60405180910390f35b61018e60048036038101906101899190612183565b610568565b60405161019b91906121f1565b60405180910390f35b6101be60048036038101906101b99190612238565b6105ae565b005b6101da60048036038101906101d59190612278565b6106c5565b005b6101e4610725565b6040516101f1919061232a565b60405180910390f35b610214600480360381019061020f919061247d565b610749565b005b610230600480360381019061022b9190612278565b610bb6565b005b61024c6004803603810190610247919061251f565b610bd6565b604051610259919061256e565b60405180910390f35b61027c60048036038101906102779190612183565b610c08565b6040516102899190612598565b60405180910390f35b6102ac60048036038101906102a79190612183565b610c1b565b6040516102b991906121f1565b60405180910390f35b6102dc60048036038101906102d791906125b3565b610ccc565b005b6102f860048036038101906102f39190612183565b6110ef565b60405161030591906126fe565b60405180910390f35b61032860048036038101906103239190612720565b61115d565b6040516103359190612598565b60405180910390f35b610346611214565b604051610353919061212b565b60405180910390f35b61037660048036038101906103719190612779565b6112a6565b005b610392600480360381019061038d91906128ee565b6112bc565b005b6103ae60048036038101906103a99190612183565b61131e565b6040516103bb919061212b565b60405180910390f35b6103de60048036038101906103d99190612971565b611386565b6040516103eb9190612077565b60405180910390f35b60007f80ac58cd000000000000000000000000000000000000000000000000000000007bffffffffffffffffffffffffffffffffffffffffffffffffffffffff1916827bffffffffffffffffffffffffffffffffffffffffffffffffffffffff191614806104bf57507f5b5e139f000000000000000000000000000000000000000000000000000000007bffffffffffffffffffffffffffffffffffffffffffffffffffffffff1916827bffffffffffffffffffffffffffffffffffffffffffffffffffffffff1916145b806104cf57506104ce8261141a565b5b9050919050565b6060600180546104e5906129e0565b80601f0160208091040260200160405190810160405280929190818152602001828054610511906129e0565b801561055e5780601f106105335761010080835404028352916020019161055e565b820191906000526020600020905b81548152906001019060200180831161054157829003601f168201915b5050505050905090565b600061057382611484565b6005600083815260200190815260200160002060009054906101000a900473ffffffffffffffffffffffffffffffffffffffff169050919050565b60006105b982610c1b565b90508073ffffffffffffffffffffffffffffffffffffffff168373ffffffffffffffffffffffffffffffffffffffff1603610629576040517f08c379a000000000000000000000000000000000000000000000000000000000815260040161062090612a83565b60405180910390fd5b8073ffffffffffffffffffffffffffffffffffffffff166106486114cf565b73ffffffffffffffffffffffffffffffffffffffff1614806106775750610676816106716114cf565b611386565b5b6106b6576040517f08c379a00000000000000000000000000000000000000000000000000000000081526004016106ad90612b15565b60405180910390fd5b6106c083836114d7565b505050565b6106d66106d06114cf565b82611590565b610715576040517f08c379a000000000000000000000000000000000000000000000000000000000815260040161070c90612ba7565b60405180910390fd5b610720838383611625565b505050565b60008054906101000a900473ffffffffffffffffffffffffffffffffffffffff1681565b61075287610c1b565b73ffffffffffffffffffffffffffffffffffffffff163373ffffffffffffffffffffffffffffffffffffffff16146107bf576040517f08c379a00000000000000000000000000000000000000000000000000000000081526004016107b690612c13565b60405180910390fd5b6000801b8603610804576040517f08c379a00000000000000000000000000000000000000000000000000000000081526004016107fb90612c7f565b60405180910390fd5b6000856fffffffffffffffffffffffffffffffff1611610859576040517f08c379a000000000000000000000000000000000000000000000000000000000815260040161085090612ceb565b60405180910390fd5b60008261ffff16116108a0576040517f08c379a000000000000000000000000000000000000000000000000000000000815260040161089790612d57565b60405180910390fd5b6000816bffffffffffffffffffffffff16116108f1576040517f08c379a00000000000000000000000000000000000000000000000000000000081526004016108e890612dc3565b60405180910390fd5b60008054906101000a900473ffffffffffffffffffffffffffffffffffffffff1673ffffffffffffffffffffffffffffffffffffffff166304433bbc6040518163ffffffff1660e01b815260040161094890612e2f565b602060405180830381865afa158015610965573d6000803e3d6000fd5b505050506040513d601f19601f820116820180604052508101906109899190612e64565b73ffffffffffffffffffffffffffffffffffffffff1663798d5f2887338888886040518663ffffffff1660e01b81526004016109c9959493929190612ebe565b600060405180830381600087803b1580156109e357600080fd5b505af11580156109f7573d6000803e3d6000fd5b505050506008600088815260200190815260200160002060000186908060018154018082558091505060019003906000526020600020016000909190919091505560008054906101000a900473ffffffffffffffffffffffffffffffffffffffff1673ffffffffffffffffffffffffffffffffffffffff166304433bbc6040518163ffffffff1660e01b8152600401610a8f90612f5d565b602060405180830381865afa158015610aac573d6000803e3d6000fd5b505050506040513d601f19601f82011682018060405250810190610ad09190612e64565b73ffffffffffffffffffffffffffffffffffffffff166361f14ece33308a308c604051602001610b01929190612fe6565b604051602081830303815290604052600088886040518863ffffffff1660e01b8152600401610b3697969594939291906130be565b600060405180830381600087803b158015610b5057600080fd5b505af1158015610b64573d6000803e3d6000fd5b5050505085873073ffffffffffffffffffffffffffffffffffffffff167f317b13b972f7768c0e191b4ed63c15c50ec6ebc5c7868da502dd43b5fb48cf8660405160405180910390a450505050505050565b610bd1838383604051806020016040528060008152506112bc565b505050565b600080610be2846110ef565b9050808381518110610bf757610bf6613134565b5b602002602001015191505092915050565b6000610c13826110ef565b519050919050565b6000806003600084815260200190815260200160002060009054906101000a900473ffffffffffffffffffffffffffffffffffffffff169050600073ffffffffffffffffffffffffffffffffffffffff168173ffffffffffffffffffffffffffffffffffffffff1603610cc3576040517f08c379a0000000000000000000000000000000000000000000000000000000008152600401610cba906131af565b60405180910390fd5b80915050919050565b6000801b8603610d11576040517f08c379a0000000000000000000000000000000000000000000000000000000008152600401610d089061321b565b60405180910390fd5b6000856fffffffffffffffffffffffffffffffff1611610d66576040517f08c379a0000000000000000000000000000000000000000000000000000000008152600401610d5d90612ceb565b60405180910390fd5b60008261ffff1611610dad576040517f08c379a0000000000000000000000000000000000000000000000000000000008152600401610da490612d57565b60405180910390fd5b6000816bffffffffffffffffffffffff1611610dfe576040517f08c379a0000000000000000000000000000000000000000000000000000000008152600401610df590612dc3565b60405180910390fd5b60006007549050610e0f338261188b565b60076000815480929190610e229061326a565b919050555060008054906101000a900473ffffffffffffffffffffffffffffffffffffffff1673ffffffffffffffffffffffffffffffffffffffff166304433bbc6040518163ffffffff1660e01b8152600401610e7e90612e2f565b602060405180830381865afa158015610e9b573d6000803e3d6000fd5b505050506040513d601f19601f82011682018060405250810190610ebf9190612e64565b73ffffffffffffffffffffffffffffffffffffffff1663798d5f2888338989896040518663ffffffff1660e01b8152600401610eff959493929190612ebe565b600060405180830381600087803b158015610f1957600080fd5b505af1158015610f2d573d6000803e3d6000fd5b505050506008600082815260200190815260200160002060000187908060018154018082558091505060019003906000526020600020016000909190919091505560008054906101000a900473ffffffffffffffffffffffffffffffffffffffff1673ffffffffffffffffffffffffffffffffffffffff166304433bbc6040518163ffffffff1660e01b8152600401610fc590612f5d565b602060405180830381865afa158015610fe2573d6000803e3d6000fd5b505050506040513d601f19601f820116820180604052508101906110069190612e64565b73ffffffffffffffffffffffffffffffffffffffff1663be82c4e23330843086604051602001611037929190612fe6565b6040516020818303038152906040526000898960006040518963ffffffff1660e01b815260040161106f9897969594939291906132b2565b600060405180830381600087803b15801561108957600080fd5b505af115801561109d573d6000803e3d6000fd5b5050505086813073ffffffffffffffffffffffffffffffffffffffff167fac922a526a52087fe0a96f1d8706cea6cfecda5848221cd24dc78515d2b3019d60405160405180910390a450505050505050565b60606008600083815260200190815260200160002060000180548060200260200160405190810160405280929190818152602001828054801561115157602002820191906000526020600020905b81548152602001906001019080831161113d575b50505050509050919050565b60008073ffffffffffffffffffffffffffffffffffffffff168273ffffffffffffffffffffffffffffffffffffffff16036111cd576040517f08c379a00000000000000000000000000000000000000000000000000000000081526004016111c4906133a9565b60405180910390fd5b600460008373ffffffffffffffffffffffffffffffffffffffff1673ffffffffffffffffffffffffffffffffffffffff168152602001908152602001600020549050919050565b606060028054611223906129e0565b80601f016020809104026020016040519081016040528092919081815260200182805461124f906129e0565b801561129c5780601f106112715761010080835404028352916020019161129c565b820191906000526020600020905b81548152906001019060200180831161127f57829003601f168201915b5050505050905090565b6112b86112b16114cf565b8383611a64565b5050565b6112cd6112c76114cf565b83611590565b61130c576040517f08c379a000000000000000000000000000000000000000000000000000000000815260040161130390612ba7565b60405180910390fd5b61131884848484611bd0565b50505050565b606061132982611484565b6000611333611c2c565b90506000815111611353576040518060200160405280600081525061137e565b8061135d84611c43565b60405160200161136e929190613405565b6040516020818303038152906040525b915050919050565b6000600660008473ffffffffffffffffffffffffffffffffffffffff1673ffffffffffffffffffffffffffffffffffffffff16815260200190815260200160002060008373ffffffffffffffffffffffffffffffffffffffff1673ffffffffffffffffffffffffffffffffffffffff16815260200190815260200160002060009054906101000a900460ff16905092915050565b60007f01ffc9a7000000000000000000000000000000000000000000000000000000007bffffffffffffffffffffffffffffffffffffffffffffffffffffffff1916827bffffffffffffffffffffffffffffffffffffffffffffffffffffffff1916149050919050565b61148d81611da3565b6114cc576040517f08c379a00000000000000000000000000000000000000000000000000000000081526004016114c3906131af565b60405180910390fd5b50565b600033905090565b816005600083815260200190815260200160002060006101000a81548173ffffffffffffffffffffffffffffffffffffffff021916908373ffffffffffffffffffffffffffffffffffffffff160217905550808273ffffffffffffffffffffffffffffffffffffffff1661154a83610c1b565b73ffffffffffffffffffffffffffffffffffffffff167f8c5be1e5ebec7d5bd14f71427d1e84f3dd0314c0f7b2291e5b200ac8c7c3b92560405160405180910390a45050565b60008061159c83610c1b565b90508073ffffffffffffffffffffffffffffffffffffffff168473ffffffffffffffffffffffffffffffffffffffff1614806115de57506115dd8185611386565b5b8061161c57508373ffffffffffffffffffffffffffffffffffffffff1661160484610568565b73ffffffffffffffffffffffffffffffffffffffff16145b91505092915050565b8273ffffffffffffffffffffffffffffffffffffffff1661164582610c1b565b73ffffffffffffffffffffffffffffffffffffffff161461169b576040517f08c379a00000000000000000000000000000000000000000000000000000000081526004016116929061349b565b60405180910390fd5b600073ffffffffffffffffffffffffffffffffffffffff168273ffffffffffffffffffffffffffffffffffffffff160361170a576040517f08c379a00000000000000000000000000000000000000000000000000000000081526004016117019061352d565b60405180910390fd5b611715838383611e0f565b6117206000826114d7565b6001600460008573ffffffffffffffffffffffffffffffffffffffff1673ffffffffffffffffffffffffffffffffffffffff1681526020019081526020016000206000828254611770919061354d565b925050819055506001600460008473ffffffffffffffffffffffffffffffffffffffff1673ffffffffffffffffffffffffffffffffffffffff16815260200190815260200160002060008282546117c79190613581565b92505081905550816003600083815260200190815260200160002060006101000a81548173ffffffffffffffffffffffffffffffffffffffff021916908373ffffffffffffffffffffffffffffffffffffffff160217905550808273ffffffffffffffffffffffffffffffffffffffff168473ffffffffffffffffffffffffffffffffffffffff167fddf252ad1be2c89b69c2b068fc378daa952ba7f163c4a11628f55a4df523b3ef60405160405180910390a4611886838383611e14565b505050565b600073ffffffffffffffffffffffffffffffffffffffff168273ffffffffffffffffffffffffffffffffffffffff16036118fa576040517f08c379a00000000000000000000000000000000000000000000000000000000081526004016118f190613623565b60405180910390fd5b61190381611da3565b15611943576040517f08c379a000000000000000000000000000000000000000000000000000000000815260040161193a9061368f565b60405180910390fd5b61194f60008383611e0f565b6001600460008473ffffffffffffffffffffffffffffffffffffffff1673ffffffffffffffffffffffffffffffffffffffff168152602001908152602001600020600082825461199f9190613581565b92505081905550816003600083815260200190815260200160002060006101000a81548173ffffffffffffffffffffffffffffffffffffffff021916908373ffffffffffffffffffffffffffffffffffffffff160217905550808273ffffffffffffffffffffffffffffffffffffffff16600073ffffffffffffffffffffffffffffffffffffffff167fddf252ad1be2c89b69c2b068fc378daa952ba7f163c4a11628f55a4df523b3ef60405160405180910390a4611a6060008383611e14565b5050565b8173ffffffffffffffffffffffffffffffffffffffff168373ffffffffffffffffffffffffffffffffffffffff1603611ad2576040517f08c379a0000000000000000000000000000000000000000000000000000000008152600401611ac9906136fb565b60405180910390fd5b80600660008573ffffffffffffffffffffffffffffffffffffffff1673ffffffffffffffffffffffffffffffffffffffff16815260200190815260200160002060008473ffffffffffffffffffffffffffffffffffffffff1673ffffffffffffffffffffffffffffffffffffffff16815260200190815260200160002060006101000a81548160ff0219169083151502179055508173ffffffffffffffffffffffffffffffffffffffff168373ffffffffffffffffffffffffffffffffffffffff167f17307eab39ab6107e8899845ad3d59bd9653f200f220920489ca2b5937696c3183604051611bc39190612077565b60405180910390a3505050565b611bdb848484611625565b611be784848484611e19565b611c26576040517f08c379a0000000000000000000000000000000000000000000000000000000008152600401611c1d9061378d565b60405180910390fd5b50505050565b606060405180602001604052806000815250905090565b606060008203611c8a576040518060400160405280600181526020017f30000000000000000000000000000000000000000000000000000000000000008152509050611d9e565b600082905060005b60008214611cbc578080611ca59061326a565b915050600a82611cb591906137dc565b9150611c92565b60008167ffffffffffffffff811115611cd857611cd76127c3565b5b6040519080825280601f01601f191660200182016040528015611d0a5781602001600182028036833780820191505090505b5090505b60008514611d9757600182611d23919061354d565b9150600a85611d32919061380d565b6030611d3e9190613581565b60f81b818381518110611d5457611d53613134565b5b60200101907effffffffffffffffffffffffffffffffffffffffffffffffffffffffffffff1916908160001a905350600a85611d9091906137dc565b9450611d0e565b8093505050505b919050565b60008073ffffffffffffffffffffffffffffffffffffffff166003600084815260200190815260200160002060009054906101000a900473ffffffffffffffffffffffffffffffffffffffff1673ffffffffffffffffffffffffffffffffffffffff1614159050919050565b505050565b505050565b6000611e3a8473ffffffffffffffffffffffffffffffffffffffff16611fa0565b15611f93578373ffffffffffffffffffffffffffffffffffffffff1663150b7a02611e636114cf565b8786866040518563ffffffff1660e01b8152600401611e85949392919061383e565b6020604051808303816000875af1925050508015611ec157506040513d601f19601f82011682018060405250810190611ebe919061389f565b60015b611f43573d8060008114611ef1576040519150601f19603f3d011682016040523d82523d6000602084013e611ef6565b606091505b506000815103611f3b576040517f08c379a0000000000000000000000000000000000000000000000000000000008152600401611f329061378d565b60405180910390fd5b805181602001fd5b63150b7a0260e01b7bffffffffffffffffffffffffffffffffffffffffffffffffffffffff1916817bffffffffffffffffffffffffffffffffffffffffffffffffffffffff191614915050611f98565b600190505b949350505050565b6000808273ffffffffffffffffffffffffffffffffffffffff163b119050919050565b6000604051905090565b600080fd5b600080fd5b60007fffffffff0000000000000000000000000000000000000000000000000000000082169050919050565b61200c81611fd7565b811461201757600080fd5b50565b60008135905061202981612003565b92915050565b60006020828403121561204557612044611fcd565b5b60006120538482850161201a565b91505092915050565b60008115159050919050565b6120718161205c565b82525050565b600060208201905061208c6000830184612068565b92915050565b600081519050919050565b600082825260208201905092915050565b60005b838110156120cc5780820151818401526020810190506120b1565b838111156120db576000848401525b50505050565b6000601f19601f8301169050919050565b60006120fd82612092565b612107818561209d565b93506121178185602086016120ae565b612120816120e1565b840191505092915050565b6000602082019050818103600083015261214581846120f2565b905092915050565b6000819050919050565b6121608161214d565b811461216b57600080fd5b50565b60008135905061217d81612157565b92915050565b60006020828403121561219957612198611fcd565b5b60006121a78482850161216e565b91505092915050565b600073ffffffffffffffffffffffffffffffffffffffff82169050919050565b60006121db826121b0565b9050919050565b6121eb816121d0565b82525050565b600060208201905061220660008301846121e2565b92915050565b612215816121d0565b811461222057600080fd5b50565b6000813590506122328161220c565b92915050565b6000806040838503121561224f5761224e611fcd565b5b600061225d85828601612223565b925050602061226e8582860161216e565b9150509250929050565b60008060006060848603121561229157612290611fcd565b5b600061229f86828701612223565b93505060206122b086828701612223565b92505060406122c18682870161216e565b9150509250925092565b6000819050919050565b60006122f06122eb6122e6846121b0565b6122cb565b6121b0565b9050919050565b6000612302826122d5565b9050919050565b6000612314826122f7565b9050919050565b61232481612309565b82525050565b600060208201905061233f600083018461231b565b92915050565b6000819050919050565b61235881612345565b811461236357600080fd5b50565b6000813590506123758161234f565b92915050565b60006fffffffffffffffffffffffffffffffff82169050919050565b6123a08161237b565b81146123ab57600080fd5b50565b6000813590506123bd81612397565b92915050565b600063ffffffff82169050919050565b6123dc816123c3565b81146123e757600080fd5b50565b6000813590506123f9816123d3565b92915050565b60006bffffffffffffffffffffffff82169050919050565b612420816123ff565b811461242b57600080fd5b50565b60008135905061243d81612417565b92915050565b600061ffff82169050919050565b61245a81612443565b811461246557600080fd5b50565b60008135905061247781612451565b92915050565b600080600080600080600060e0888a03121561249c5761249b611fcd565b5b60006124aa8a828b0161216e565b97505060206124bb8a828b01612366565b96505060406124cc8a828b016123ae565b95505060606124dd8a828b016123ea565b94505060806124ee8a828b0161242e565b93505060a06124ff8a828b01612468565b92505060c06125108a828b0161242e565b91505092959891949750929550565b6000806040838503121561253657612535611fcd565b5b60006125448582860161216e565b92505060206125558582860161216e565b9150509250929050565b61256881612345565b82525050565b6000602082019050612583600083018461255f565b92915050565b6125928161214d565b82525050565b60006020820190506125ad6000830184612589565b92915050565b60008060008060008060c087890312156125d0576125cf611fcd565b5b60006125de89828a01612366565b96505060206125ef89828a016123ae565b955050604061260089828a016123ea565b945050606061261189828a0161242e565b935050608061262289828a01612468565b92505060a061263389828a0161242e565b9150509295509295509295565b600081519050919050565b600082825260208201905092915050565b6000819050602082019050919050565b61267581612345565b82525050565b6000612687838361266c565b60208301905092915050565b6000602082019050919050565b60006126ab82612640565b6126b5818561264b565b93506126c08361265c565b8060005b838110156126f15781516126d8888261267b565b97506126e383612693565b9250506001810190506126c4565b5085935050505092915050565b6000602082019050818103600083015261271881846126a0565b905092915050565b60006020828403121561273657612735611fcd565b5b600061274484828501612223565b91505092915050565b6127568161205c565b811461276157600080fd5b50565b6000813590506127738161274d565b92915050565b600080604083850312156127905761278f611fcd565b5b600061279e85828601612223565b92505060206127af85828601612764565b9150509250929050565b600080fd5b600080fd5b7f4e487b7100000000000000000000000000000000000000000000000000000000600052604160045260246000fd5b6127fb826120e1565b810181811067ffffffffffffffff8211171561281a576128196127c3565b5b80604052505050565b600061282d611fc3565b905061283982826127f2565b919050565b600067ffffffffffffffff821115612859576128586127c3565b5b612862826120e1565b9050602081019050919050565b82818337600083830152505050565b600061289161288c8461283e565b612823565b9050828152602081018484840111156128ad576128ac6127be565b5b6128b884828561286f565b509392505050565b600082601f8301126128d5576128d46127b9565b5b81356128e584826020860161287e565b91505092915050565b6000806000806080858703121561290857612907611fcd565b5b600061291687828801612223565b945050602061292787828801612223565b93505060406129388782880161216e565b925050606085013567ffffffffffffffff81111561295957612958611fd2565b5b612965878288016128c0565b91505092959194509250565b6000806040838503121561298857612987611fcd565b5b600061299685828601612223565b92505060206129a785828601612223565b9150509250929050565b7f4e487b7100000000000000000000000000000000000000000000000000000000600052602260045260246000fd5b600060028204905060018216806129f857607f821691505b602082108103612a0b57612a0a6129b1565b5b50919050565b7f4552433732313a20617070726f76616c20746f2063757272656e74206f776e6560008201527f7200000000000000000000000000000000000000000000000000000000000000602082015250565b6000612a6d60218361209d565b9150612a7882612a11565b604082019050919050565b60006020820190508181036000830152612a9c81612a60565b9050919050565b7f4552433732313a20617070726f76652063616c6c6572206973206e6f7420746f60008201527f6b656e206f776e6572206e6f7220617070726f76656420666f7220616c6c0000602082015250565b6000612aff603e8361209d565b9150612b0a82612aa3565b604082019050919050565b60006020820190508181036000830152612b2e81612af2565b9050919050565b7f4552433732313a2063616c6c6572206973206e6f7420746f6b656e206f776e6560008201527f72206e6f7220617070726f766564000000000000000000000000000000000000602082015250565b6000612b91602e8361209d565b9150612b9c82612b35565b604082019050919050565b60006020820190508181036000830152612bc081612b84565b9050919050565b7f4f6e6c79206f776e65722063616e2075706461746520616e2061737365740000600082015250565b6000612bfd601e8361209d565b9150612c0882612bc7565b602082019050919050565b60006020820190508181036000830152612c2c81612bf0565b9050919050565b7f617373657274696f6e49642063616e6e6f742062652030000000000000000000600082015250565b6000612c6960178361209d565b9150612c7482612c33565b602082019050919050565b60006020820190508181036000830152612c9881612c5c565b9050919050565b7f53697a652063616e6e6f74206265203000000000000000000000000000000000600082015250565b6000612cd560108361209d565b9150612ce082612c9f565b602082019050919050565b60006020820190508181036000830152612d0481612cc8565b9050919050565b7f45706f636873206e756d6265722063616e6e6f74206265203000000000000000600082015250565b6000612d4160198361209d565b9150612d4c82612d0b565b602082019050919050565b60006020820190508181036000830152612d7081612d34565b9050919050565b7f546f6b656e20616d6f756e742063616e6e6f7420626520300000000000000000600082015250565b6000612dad60188361209d565b9150612db882612d77565b602082019050919050565b60006020820190508181036000830152612ddc81612da0565b9050919050565b7f417373657274696f6e5265676973747279000000000000000000000000000000600082015250565b6000612e1960118361209d565b9150612e2482612de3565b602082019050919050565b60006020820190508181036000830152612e4881612e0c565b9050919050565b600081519050612e5e8161220c565b92915050565b600060208284031215612e7a57612e79611fcd565b5b6000612e8884828501612e4f565b91505092915050565b612e9a8161237b565b82525050565b612ea9816123c3565b82525050565b612eb8816123ff565b82525050565b600060a082019050612ed3600083018861255f565b612ee060208301876121e2565b612eed6040830186612e91565b612efa6060830185612ea0565b612f076080830184612eaf565b9695505050505050565b7f5365727669636541677265656d656e7453746f72616765000000000000000000600082015250565b6000612f4760178361209d565b9150612f5282612f11565b602082019050919050565b60006020820190508181036000830152612f7681612f3a565b9050919050565b60008160601b9050919050565b6000612f9582612f7d565b9050919050565b6000612fa782612f8a565b9050919050565b612fbf612fba826121d0565b612f9c565b82525050565b6000819050919050565b612fe0612fdb8261214d565b612fc5565b82525050565b6000612ff28285612fae565b6014820191506130028284612fcf565b6020820191508190509392505050565b600081519050919050565b600082825260208201905092915050565b600061303982613012565b613043818561301d565b93506130538185602086016120ae565b61305c816120e1565b840191505092915050565b6000819050919050565b600060ff82169050919050565b600061309961309461308f84613067565b6122cb565b613071565b9050919050565b6130a98161307e565b82525050565b6130b881612443565b82525050565b600060e0820190506130d3600083018a6121e2565b6130e060208301896121e2565b6130ed6040830188612589565b81810360608301526130ff818761302e565b905061310e60808301866130a0565b61311b60a08301856130af565b61312860c0830184612eaf565b98975050505050505050565b7f4e487b7100000000000000000000000000000000000000000000000000000000600052603260045260246000fd5b7f4552433732313a20696e76616c696420746f6b656e2049440000000000000000600082015250565b600061319960188361209d565b91506131a482613163565b602082019050919050565b600060208201905081810360008301526131c88161318c565b9050919050565b7f617373657274696f6e49642063616e6e6f7420626520656d7074790000000000600082015250565b6000613205601b8361209d565b9150613210826131cf565b602082019050919050565b60006020820190508181036000830152613234816131f8565b9050919050565b7f4e487b7100000000000000000000000000000000000000000000000000000000600052601160045260246000fd5b60006132758261214d565b91507fffffffffffffffffffffffffffffffffffffffffffffffffffffffffffffffff82036132a7576132a661323b565b5b600182019050919050565b6000610100820190506132c8600083018b6121e2565b6132d5602083018a6121e2565b6132e26040830189612589565b81810360608301526132f4818861302e565b905061330360808301876130a0565b61331060a08301866130af565b61331d60c0830185612eaf565b61332a60e08301846130a0565b9998505050505050505050565b7f4552433732313a2061646472657373207a65726f206973206e6f74206120766160008201527f6c6964206f776e65720000000000000000000000000000000000000000000000602082015250565b600061339360298361209d565b915061339e82613337565b604082019050919050565b600060208201905081810360008301526133c281613386565b9050919050565b600081905092915050565b60006133df82612092565b6133e981856133c9565b93506133f98185602086016120ae565b80840191505092915050565b600061341182856133d4565b915061341d82846133d4565b91508190509392505050565b7f4552433732313a207472616e736665722066726f6d20696e636f72726563742060008201527f6f776e6572000000000000000000000000000000000000000000000000000000602082015250565b600061348560258361209d565b915061349082613429565b604082019050919050565b600060208201905081810360008301526134b481613478565b9050919050565b7f4552433732313a207472616e7366657220746f20746865207a65726f2061646460008201527f7265737300000000000000000000000000000000000000000000000000000000602082015250565b600061351760248361209d565b9150613522826134bb565b604082019050919050565b600060208201905081810360008301526135468161350a565b9050919050565b60006135588261214d565b91506135638361214d565b9250828210156135765761357561323b565b5b828203905092915050565b600061358c8261214d565b91506135978361214d565b9250827fffffffffffffffffffffffffffffffffffffffffffffffffffffffffffffffff038211156135cc576135cb61323b565b5b828201905092915050565b7f4552433732313a206d696e7420746f20746865207a65726f2061646472657373600082015250565b600061360d60208361209d565b9150613618826135d7565b602082019050919050565b6000602082019050818103600083015261363c81613600565b9050919050565b7f4552433732313a20746f6b656e20616c7265616479206d696e74656400000000600082015250565b6000613679601c8361209d565b915061368482613643565b602082019050919050565b600060208201905081810360008301526136a88161366c565b9050919050565b7f4552433732313a20617070726f766520746f2063616c6c657200000000000000600082015250565b60006136e560198361209d565b91506136f0826136af565b602082019050919050565b60006020820190508181036000830152613714816136d8565b9050919050565b7f4552433732313a207472616e7366657220746f206e6f6e20455243373231526560008201527f63656976657220696d706c656d656e7465720000000000000000000000000000602082015250565b600061377760328361209d565b91506137828261371b565b604082019050919050565b600060208201905081810360008301526137a68161376a565b9050919050565b7f4e487b7100000000000000000000000000000000000000000000000000000000600052601260045260246000fd5b60006137e78261214d565b91506137f28361214d565b925082613802576138016137ad565b5b828204905092915050565b60006138188261214d565b91506138238361214d565b925082613833576138326137ad565b5b828206905092915050565b600060808201905061385360008301876121e2565b61386060208301866121e2565b61386d6040830185612589565b818103606083015261387f818461302e565b905095945050505050565b60008151905061389981612003565b92915050565b6000602082840312156138b5576138b4611fcd565b5b60006138c38482850161388a565b9150509291505056fea26469706673582212206fdf9c02fb5921af5ecb500c2534390e1c6a459846470a794533a3fc164af6d464736f6c634300080e0033",
  "immutableReferences": {},
  "source": "// SPDX-License-Identifier: MIT\n\npragma solidity ^0.8.0;\n\nimport { AbstractAsset } from \"./AbstractAsset.sol\";\nimport { AssertionRegistry } from \"../AssertionRegistry.sol\";\nimport { ERC721 } from \"@openzeppelin/contracts/token/ERC721/ERC721.sol\";\nimport { IERC20 } from \"@openzeppelin/contracts/token/ERC20/IERC20.sol\";\nimport { ServiceAgreementStorage } from \"../storage/ServiceAgreementStorage.sol\";\n\ncontract ContentAsset is AbstractAsset, ERC721 {\n    struct AssetRecord {\n        bytes32[] assertions;\n    }\n\n    uint256 private _tokenId;\n\n    mapping (uint256 => AssetRecord) assetRecords;\n\n    constructor(address hubAddress)\n        AbstractAsset(hubAddress)\n        ERC721(\"ContentAsset\", \"DKG\")\n    {\n        _tokenId = 0;\n    }\n\n    function createAsset(\n        bytes32 assertionId,\n        uint128 size,\n        uint32 triplesNumber,\n        uint96 chunksNumber,\n        uint16 epochsNumber,\n        uint96 tokenAmount\n    )\n        public\n    {\n        require(assertionId != bytes32(0), \"assertionId cannot be empty\");\n        require(size > 0, \"Size cannot be 0\");\n        require(epochsNumber > 0, \"Epochs number cannot be 0\");\n        require(tokenAmount > 0, \"Token amount cannot be 0\");\n\n        uint256 tokenId = _tokenId;\n        _mint(msg.sender, tokenId);\n        _tokenId++;\n\n        AssertionRegistry(hub.getContractAddress(\"AssertionRegistry\")).createAssertionRecord(\n            assertionId,\n            msg.sender,\n            size,\n            triplesNumber,\n            chunksNumber\n        );\n        assetRecords[tokenId].assertions.push(assertionId);\n\n        ServiceAgreementStorage(hub.getContractAddress(\"ServiceAgreementStorage\")).createServiceAgreement(\n            msg.sender,\n            address(this),\n            tokenId,\n            abi.encodePacked(address(this), tokenId),\n            0,\n            epochsNumber,\n            tokenAmount,\n            0\n        );\n\n        emit AssetCreated(address(this), tokenId, assertionId);\n    }\n\n    function updateAsset(\n        uint256 tokenId,\n        bytes32 assertionId,\n        uint128 size,\n        uint32 triplesNumber,\n        uint96 chunksNumber,\n        uint16 epochsNumber,\n        uint96 tokenAmount\n    )\n        public\n    {\n        require(msg.sender == ownerOf(tokenId), \"Only owner can update an asset\");\n        require(assertionId != bytes32(0), \"assertionId cannot be 0\");\n        require(size > 0, \"Size cannot be 0\");\n        require(epochsNumber > 0, \"Epochs number cannot be 0\");\n        require(tokenAmount > 0, \"Token amount cannot be 0\");\n        \n        AssertionRegistry(hub.getContractAddress(\"AssertionRegistry\")).createAssertionRecord(\n            assertionId,\n            msg.sender,\n            size,\n            triplesNumber,\n            chunksNumber\n        );\n        assetRecords[tokenId].assertions.push(assertionId);\n\n        ServiceAgreementStorage(hub.getContractAddress(\"ServiceAgreementStorage\")).updateServiceAgreement(\n            msg.sender,\n            address(this),\n            tokenId,\n            abi.encodePacked(address(this), tokenId),\n            0,\n            epochsNumber,\n            tokenAmount\n        );\n\n        emit AssetUpdated(address(this), tokenId, assertionId);\n    }\n\n    function getAssertions(uint256 tokenId)\n        override\n        public\n        view\n        returns (bytes32 [] memory)\n    {\n        return assetRecords[tokenId].assertions;\n    }\n}\n",
  "sourcePath": "/Users/waving/Desktop/OriginTrail/dkg-evm-module/contracts/assets/ContentAsset.sol",
  "compiler": {
    "name": "solc",
    "version": "0.8.14+commit.80d49f37.Emscripten.clang"
  },
  "schemaVersion": "3.4.10",
  "updatedAt": "2022-11-21T10:31:02.578Z",
  "devdoc": {
    "kind": "dev",
    "methods": {
      "approve(address,uint256)": {
        "details": "See {IERC721-approve}."
      },
      "balanceOf(address)": {
        "details": "See {IERC721-balanceOf}."
      },
      "getApproved(uint256)": {
        "details": "See {IERC721-getApproved}."
      },
      "isApprovedForAll(address,address)": {
        "details": "See {IERC721-isApprovedForAll}."
      },
      "name()": {
        "details": "See {IERC721Metadata-name}."
      },
      "ownerOf(uint256)": {
        "details": "See {IERC721-ownerOf}."
      },
      "safeTransferFrom(address,address,uint256)": {
        "details": "See {IERC721-safeTransferFrom}."
      },
      "safeTransferFrom(address,address,uint256,bytes)": {
        "details": "See {IERC721-safeTransferFrom}."
      },
      "setApprovalForAll(address,bool)": {
        "details": "See {IERC721-setApprovalForAll}."
      },
      "supportsInterface(bytes4)": {
        "details": "See {IERC165-supportsInterface}."
      },
      "symbol()": {
        "details": "See {IERC721Metadata-symbol}."
      },
      "tokenURI(uint256)": {
        "details": "See {IERC721Metadata-tokenURI}."
      },
      "transferFrom(address,address,uint256)": {
        "details": "See {IERC721-transferFrom}."
      }
    },
    "version": 1
  },
  "userdoc": {
    "kind": "user",
    "methods": {},
    "version": 1
  }
}