{
  "contractName": "ContentAsset",
  "abi": [
    {
      "inputs": [
        {
          "internalType": "address",
          "name": "hubAddress",
          "type": "address"
        }
      ],
      "stateMutability": "nonpayable",
      "type": "constructor"
    },
    {
      "anonymous": false,
      "inputs": [
        {
          "indexed": true,
          "internalType": "address",
          "name": "owner",
          "type": "address"
        },
        {
          "indexed": true,
          "internalType": "address",
          "name": "approved",
          "type": "address"
        },
        {
          "indexed": true,
          "internalType": "uint256",
          "name": "tokenId",
          "type": "uint256"
        }
      ],
      "name": "Approval",
      "type": "event"
    },
    {
      "anonymous": false,
      "inputs": [
        {
          "indexed": true,
          "internalType": "address",
          "name": "owner",
          "type": "address"
        },
        {
          "indexed": true,
          "internalType": "address",
          "name": "operator",
          "type": "address"
        },
        {
          "indexed": false,
          "internalType": "bool",
          "name": "approved",
          "type": "bool"
        }
      ],
      "name": "ApprovalForAll",
      "type": "event"
    },
    {
      "anonymous": false,
      "inputs": [
        {
          "indexed": true,
          "internalType": "address",
          "name": "assetContract",
          "type": "address"
        },
        {
          "indexed": true,
          "internalType": "uint256",
          "name": "tokenId",
          "type": "uint256"
        },
        {
          "indexed": true,
          "internalType": "bytes32",
          "name": "stateCommitHash",
          "type": "bytes32"
        }
      ],
      "name": "AssetCreated",
      "type": "event"
    },
    {
      "anonymous": false,
      "inputs": [
        {
          "indexed": true,
          "internalType": "address",
          "name": "assetContract",
          "type": "address"
        },
        {
          "indexed": true,
          "internalType": "uint256",
          "name": "tokenId",
          "type": "uint256"
        },
        {
          "indexed": true,
          "internalType": "bytes32",
          "name": "stateCommitHash",
          "type": "bytes32"
        }
      ],
      "name": "AssetUpdated",
      "type": "event"
    },
    {
      "anonymous": false,
      "inputs": [
        {
          "indexed": true,
          "internalType": "address",
          "name": "from",
          "type": "address"
        },
        {
          "indexed": true,
          "internalType": "address",
          "name": "to",
          "type": "address"
        },
        {
          "indexed": true,
          "internalType": "uint256",
          "name": "tokenId",
          "type": "uint256"
        }
      ],
      "name": "Transfer",
      "type": "event"
    },
    {
      "inputs": [
        {
          "internalType": "address",
          "name": "to",
          "type": "address"
        },
        {
          "internalType": "uint256",
          "name": "tokenId",
          "type": "uint256"
        }
      ],
      "name": "approve",
      "outputs": [],
      "stateMutability": "nonpayable",
      "type": "function"
    },
    {
      "inputs": [
        {
          "internalType": "address",
          "name": "owner",
          "type": "address"
        }
      ],
      "name": "balanceOf",
      "outputs": [
        {
          "internalType": "uint256",
          "name": "",
          "type": "uint256"
        }
      ],
      "stateMutability": "view",
      "type": "function"
    },
    {
      "inputs": [
        {
          "internalType": "uint256",
          "name": "tokenId",
          "type": "uint256"
        }
      ],
      "name": "getApproved",
      "outputs": [
        {
          "internalType": "address",
          "name": "",
          "type": "address"
        }
      ],
      "stateMutability": "view",
      "type": "function"
    },
    {
      "inputs": [
        {
          "internalType": "uint256",
          "name": "tokenId",
          "type": "uint256"
        },
        {
          "internalType": "uint256",
          "name": "index",
          "type": "uint256"
        }
      ],
      "name": "getAssertionByIndex",
      "outputs": [
        {
          "internalType": "bytes32",
          "name": "",
          "type": "bytes32"
        }
      ],
      "stateMutability": "view",
      "type": "function"
    },
    {
      "inputs": [
        {
          "internalType": "uint256",
          "name": "tokenId",
          "type": "uint256"
        }
      ],
      "name": "getAssertionsLength",
      "outputs": [
        {
          "internalType": "uint256",
          "name": "",
          "type": "uint256"
        }
      ],
      "stateMutability": "view",
      "type": "function"
    },
    {
      "inputs": [
        {
          "internalType": "uint256",
          "name": "tokenId",
          "type": "uint256"
        }
      ],
      "name": "getLatestAssertion",
      "outputs": [
        {
          "internalType": "bytes32",
          "name": "",
          "type": "bytes32"
        }
      ],
      "stateMutability": "view",
      "type": "function"
    },
    {
      "inputs": [],
      "name": "hub",
      "outputs": [
        {
          "internalType": "contract Hub",
          "name": "",
          "type": "address"
        }
      ],
      "stateMutability": "view",
      "type": "function"
    },
    {
      "inputs": [
        {
          "internalType": "address",
          "name": "owner",
          "type": "address"
        },
        {
          "internalType": "address",
          "name": "operator",
          "type": "address"
        }
      ],
      "name": "isApprovedForAll",
      "outputs": [
        {
          "internalType": "bool",
          "name": "",
          "type": "bool"
        }
      ],
      "stateMutability": "view",
      "type": "function"
    },
    {
      "inputs": [],
      "name": "name",
      "outputs": [
        {
          "internalType": "string",
          "name": "",
          "type": "string"
        }
      ],
      "stateMutability": "view",
      "type": "function"
    },
    {
      "inputs": [
        {
          "internalType": "uint256",
          "name": "tokenId",
          "type": "uint256"
        }
      ],
      "name": "ownerOf",
      "outputs": [
        {
          "internalType": "address",
          "name": "",
          "type": "address"
        }
      ],
      "stateMutability": "view",
      "type": "function"
    },
    {
      "inputs": [
        {
          "internalType": "address",
          "name": "from",
          "type": "address"
        },
        {
          "internalType": "address",
          "name": "to",
          "type": "address"
        },
        {
          "internalType": "uint256",
          "name": "tokenId",
          "type": "uint256"
        }
      ],
      "name": "safeTransferFrom",
      "outputs": [],
      "stateMutability": "nonpayable",
      "type": "function"
    },
    {
      "inputs": [
        {
          "internalType": "address",
          "name": "from",
          "type": "address"
        },
        {
          "internalType": "address",
          "name": "to",
          "type": "address"
        },
        {
          "internalType": "uint256",
          "name": "tokenId",
          "type": "uint256"
        },
        {
          "internalType": "bytes",
          "name": "data",
          "type": "bytes"
        }
      ],
      "name": "safeTransferFrom",
      "outputs": [],
      "stateMutability": "nonpayable",
      "type": "function"
    },
    {
      "inputs": [
        {
          "internalType": "address",
          "name": "operator",
          "type": "address"
        },
        {
          "internalType": "bool",
          "name": "approved",
          "type": "bool"
        }
      ],
      "name": "setApprovalForAll",
      "outputs": [],
      "stateMutability": "nonpayable",
      "type": "function"
    },
    {
      "inputs": [
        {
          "internalType": "bytes4",
          "name": "interfaceId",
          "type": "bytes4"
        }
      ],
      "name": "supportsInterface",
      "outputs": [
        {
          "internalType": "bool",
          "name": "",
          "type": "bool"
        }
      ],
      "stateMutability": "view",
      "type": "function"
    },
    {
      "inputs": [],
      "name": "symbol",
      "outputs": [
        {
          "internalType": "string",
          "name": "",
          "type": "string"
        }
      ],
      "stateMutability": "view",
      "type": "function"
    },
    {
      "inputs": [
        {
          "internalType": "uint256",
          "name": "tokenId",
          "type": "uint256"
        }
      ],
      "name": "tokenURI",
      "outputs": [
        {
          "internalType": "string",
          "name": "",
          "type": "string"
        }
      ],
      "stateMutability": "view",
      "type": "function"
    },
    {
      "inputs": [
        {
          "internalType": "address",
          "name": "from",
          "type": "address"
        },
        {
          "internalType": "address",
          "name": "to",
          "type": "address"
        },
        {
          "internalType": "uint256",
          "name": "tokenId",
          "type": "uint256"
        }
      ],
      "name": "transferFrom",
      "outputs": [],
      "stateMutability": "nonpayable",
      "type": "function"
    },
    {
      "inputs": [
        {
          "internalType": "bytes32",
          "name": "assertionId",
          "type": "bytes32"
        },
        {
          "internalType": "uint128",
          "name": "size",
          "type": "uint128"
        },
        {
          "internalType": "uint32",
          "name": "triplesNumber",
          "type": "uint32"
        },
        {
          "internalType": "uint96",
          "name": "chunksNumber",
          "type": "uint96"
        },
        {
          "internalType": "uint16",
          "name": "epochsNumber",
          "type": "uint16"
        },
        {
          "internalType": "uint96",
          "name": "tokenAmount",
          "type": "uint96"
        }
      ],
      "name": "createAsset",
      "outputs": [],
      "stateMutability": "nonpayable",
      "type": "function"
    },
    {
      "inputs": [
        {
          "internalType": "uint256",
          "name": "tokenId",
          "type": "uint256"
        },
        {
          "internalType": "bytes32",
          "name": "assertionId",
          "type": "bytes32"
        },
        {
          "internalType": "uint128",
          "name": "size",
          "type": "uint128"
        },
        {
          "internalType": "uint32",
          "name": "triplesNumber",
          "type": "uint32"
        },
        {
          "internalType": "uint96",
          "name": "chunksNumber",
          "type": "uint96"
        },
        {
          "internalType": "uint16",
          "name": "epochsNumber",
          "type": "uint16"
        },
        {
          "internalType": "uint96",
          "name": "tokenAmount",
          "type": "uint96"
        }
      ],
      "name": "updateAsset",
      "outputs": [],
      "stateMutability": "nonpayable",
      "type": "function"
    },
    {
      "inputs": [
        {
          "internalType": "uint256",
          "name": "tokenId",
          "type": "uint256"
        }
      ],
      "name": "getAssertions",
      "outputs": [
        {
          "internalType": "bytes32[]",
          "name": "",
          "type": "bytes32[]"
        }
      ],
      "stateMutability": "view",
      "type": "function"
    }
  ],
  "bytecode": "0x60806040523480156200001157600080fd5b5060405162003deb38038062003deb83398181016040528101906200003791906200027c565b6040518060400160405280600c81526020017f436f6e74656e74417373657400000000000000000000000000000000000000008152506040518060400160405280600381526020017f444b47000000000000000000000000000000000000000000000000000000000081525082600073ffffffffffffffffffffffffffffffffffffffff168173ffffffffffffffffffffffffffffffffffffffff1603620000de57600080fd5b806000806101000a81548173ffffffffffffffffffffffffffffffffffffffff021916908373ffffffffffffffffffffffffffffffffffffffff1602179055505081600190805190602001906200013792919062000162565b5080600290805190602001906200015092919062000162565b50505060006007819055505062000312565b8280546200017090620002dd565b90600052602060002090601f016020900481019282620001945760008555620001e0565b82601f10620001af57805160ff1916838001178555620001e0565b82800160010185558215620001e0579182015b82811115620001df578251825591602001919060010190620001c2565b5b509050620001ef9190620001f3565b5090565b5b808211156200020e576000816000905550600101620001f4565b5090565b600080fd5b600073ffffffffffffffffffffffffffffffffffffffff82169050919050565b6000620002448262000217565b9050919050565b620002568162000237565b81146200026257600080fd5b50565b60008151905062000276816200024b565b92915050565b60006020828403121562000295576200029462000212565b5b6000620002a58482850162000265565b91505092915050565b7f4e487b7100000000000000000000000000000000000000000000000000000000600052602260045260246000fd5b60006002820490506001821680620002f657607f821691505b6020821081036200030c576200030b620002ae565b5b50919050565b613ac980620003226000396000f3fe608060405234801561001057600080fd5b506004361061012c5760003560e01c80636352211e116100ad57806395d89b411161007157806395d89b4114610379578063a22cb46514610397578063b88d4fde146103b3578063c87b56dd146103cf578063e985e9c5146103ff5761012c565b80636352211e1461029d578063644c055b146102cd5780636ae3c072146102e957806370a08231146103195780637c29b293146103495761012c565b8063365a86fc116100f4578063365a86fc146101e757806340d735781461020557806342842e0e14610221578063469766661461023d5780635a58db141461026d5761012c565b806301ffc9a71461013157806306fdde0314610161578063081812fc1461017f578063095ea7b3146101af57806323b872dd146101cb575b600080fd5b61014b60048036038101906101469190612128565b61042f565b6040516101589190612170565b60405180910390f35b610169610511565b6040516101769190612224565b60405180910390f35b6101996004803603810190610194919061227c565b6105a3565b6040516101a691906122ea565b60405180910390f35b6101c960048036038101906101c49190612331565b6105e9565b005b6101e560048036038101906101e09190612371565b610700565b005b6101ef610760565b6040516101fc9190612423565b60405180910390f35b61021f600480360381019061021a9190612576565b610784565b005b61023b60048036038101906102369190612371565b610c6f565b005b61025760048036038101906102529190612618565b610c8f565b6040516102649190612667565b60405180910390f35b6102876004803603810190610282919061227c565b610cc1565b6040516102949190612691565b60405180910390f35b6102b760048036038101906102b2919061227c565b610cd4565b6040516102c491906122ea565b60405180910390f35b6102e760048036038101906102e291906126ac565b610d85565b005b61030360048036038101906102fe919061227c565b6111aa565b60405161031091906127f7565b60405180910390f35b610333600480360381019061032e9190612819565b611218565b6040516103409190612691565b60405180910390f35b610363600480360381019061035e919061227c565b6112cf565b6040516103709190612667565b60405180910390f35b61038161130d565b60405161038e9190612224565b60405180910390f35b6103b160048036038101906103ac9190612872565b61139f565b005b6103cd60048036038101906103c891906129e7565b6113b5565b005b6103e960048036038101906103e4919061227c565b611417565b6040516103f69190612224565b60405180910390f35b61041960048036038101906104149190612a6a565b61147f565b6040516104269190612170565b60405180910390f35b60007f80ac58cd000000000000000000000000000000000000000000000000000000007bffffffffffffffffffffffffffffffffffffffffffffffffffffffff1916827bffffffffffffffffffffffffffffffffffffffffffffffffffffffff191614806104fa57507f5b5e139f000000000000000000000000000000000000000000000000000000007bffffffffffffffffffffffffffffffffffffffffffffffffffffffff1916827bffffffffffffffffffffffffffffffffffffffffffffffffffffffff1916145b8061050a575061050982611513565b5b9050919050565b60606001805461052090612ad9565b80601f016020809104026020016040519081016040528092919081815260200182805461054c90612ad9565b80156105995780601f1061056e57610100808354040283529160200191610599565b820191906000526020600020905b81548152906001019060200180831161057c57829003601f168201915b5050505050905090565b60006105ae8261157d565b6005600083815260200190815260200160002060009054906101000a900473ffffffffffffffffffffffffffffffffffffffff169050919050565b60006105f482610cd4565b90508073ffffffffffffffffffffffffffffffffffffffff168373ffffffffffffffffffffffffffffffffffffffff1603610664576040517f08c379a000000000000000000000000000000000000000000000000000000000815260040161065b90612b7c565b60405180910390fd5b8073ffffffffffffffffffffffffffffffffffffffff166106836115c8565b73ffffffffffffffffffffffffffffffffffffffff1614806106b257506106b1816106ac6115c8565b61147f565b5b6106f1576040517f08c379a00000000000000000000000000000000000000000000000000000000081526004016106e890612c0e565b60405180910390fd5b6106fb83836115d0565b505050565b61071161070b6115c8565b82611689565b610750576040517f08c379a000000000000000000000000000000000000000000000000000000000815260040161074790612ca0565b60405180910390fd5b61075b83838361171e565b505050565b60008054906101000a900473ffffffffffffffffffffffffffffffffffffffff1681565b61078d87610cd4565b73ffffffffffffffffffffffffffffffffffffffff163373ffffffffffffffffffffffffffffffffffffffff16146107fa576040517f08c379a00000000000000000000000000000000000000000000000000000000081526004016107f190612d0c565b60405180910390fd5b6000801b860361083f576040517f08c379a000000000000000000000000000000000000000000000000000000000815260040161083690612d78565b60405180910390fd5b6000856fffffffffffffffffffffffffffffffff1611610894576040517f08c379a000000000000000000000000000000000000000000000000000000000815260040161088b90612de4565b60405180910390fd5b60008261ffff16116108db576040517f08c379a00000000000000000000000000000000000000000000000000000000081526004016108d290612e50565b60405180910390fd5b6000816bffffffffffffffffffffffff161161092c576040517f08c379a000000000000000000000000000000000000000000000000000000000815260040161092390612ebc565b60405180910390fd5b60008054906101000a900473ffffffffffffffffffffffffffffffffffffffff1673ffffffffffffffffffffffffffffffffffffffff166304433bbc6040518163ffffffff1660e01b815260040161098390612f28565b602060405180830381865afa1580156109a0573d6000803e3d6000fd5b505050506040513d601f19601f820116820180604052508101906109c49190612f5d565b73ffffffffffffffffffffffffffffffffffffffff1663798d5f2887338888886040518663ffffffff1660e01b8152600401610a04959493929190612fb7565b600060405180830381600087803b158015610a1e57600080fd5b505af1158015610a32573d6000803e3d6000fd5b505050506008600088815260200190815260200160002060000186908060018154018082558091505060019003906000526020600020016000909190919091505560008054906101000a900473ffffffffffffffffffffffffffffffffffffffff1673ffffffffffffffffffffffffffffffffffffffff166304433bbc6040518163ffffffff1660e01b8152600401610aca90613056565b602060405180830381865afa158015610ae7573d6000803e3d6000fd5b505050506040513d601f19601f82011682018060405250810190610b0b9190612f5d565b73ffffffffffffffffffffffffffffffffffffffff166361f14ece33308a308c3073ffffffffffffffffffffffffffffffffffffffff1663469766668f60006040518363ffffffff1660e01b8152600401610b679291906130b1565b602060405180830381865afa158015610b84573d6000803e3d6000fd5b505050506040513d601f19601f82011682018060405250810190610ba891906130ef565b604051602001610bba939291906131a6565b604051602081830303815290604052600088886040518863ffffffff1660e01b8152600401610bef9796959493929190613285565b600060405180830381600087803b158015610c0957600080fd5b505af1158015610c1d573d6000803e3d6000fd5b5050505085873073ffffffffffffffffffffffffffffffffffffffff167f317b13b972f7768c0e191b4ed63c15c50ec6ebc5c7868da502dd43b5fb48cf8660405160405180910390a450505050505050565b610c8a838383604051806020016040528060008152506113b5565b505050565b600080610c9b846111aa565b9050808381518110610cb057610caf6132fb565b5b602002602001015191505092915050565b6000610ccc826111aa565b519050919050565b6000806003600084815260200190815260200160002060009054906101000a900473ffffffffffffffffffffffffffffffffffffffff169050600073ffffffffffffffffffffffffffffffffffffffff168173ffffffffffffffffffffffffffffffffffffffff1603610d7c576040517f08c379a0000000000000000000000000000000000000000000000000000000008152600401610d7390613376565b60405180910390fd5b80915050919050565b6000801b8603610dca576040517f08c379a0000000000000000000000000000000000000000000000000000000008152600401610dc1906133e2565b60405180910390fd5b6000856fffffffffffffffffffffffffffffffff1611610e1f576040517f08c379a0000000000000000000000000000000000000000000000000000000008152600401610e1690612de4565b60405180910390fd5b60008261ffff1611610e66576040517f08c379a0000000000000000000000000000000000000000000000000000000008152600401610e5d90612e50565b60405180910390fd5b6000816bffffffffffffffffffffffff1611610eb7576040517f08c379a0000000000000000000000000000000000000000000000000000000008152600401610eae90612ebc565b60405180910390fd5b60006007549050610ec83382611984565b60076000815480929190610edb90613431565b919050555060008054906101000a900473ffffffffffffffffffffffffffffffffffffffff1673ffffffffffffffffffffffffffffffffffffffff166304433bbc6040518163ffffffff1660e01b8152600401610f3790612f28565b602060405180830381865afa158015610f54573d6000803e3d6000fd5b505050506040513d601f19601f82011682018060405250810190610f789190612f5d565b73ffffffffffffffffffffffffffffffffffffffff1663798d5f2888338989896040518663ffffffff1660e01b8152600401610fb8959493929190612fb7565b600060405180830381600087803b158015610fd257600080fd5b505af1158015610fe6573d6000803e3d6000fd5b505050506008600082815260200190815260200160002060000187908060018154018082558091505060019003906000526020600020016000909190919091505560008054906101000a900473ffffffffffffffffffffffffffffffffffffffff1673ffffffffffffffffffffffffffffffffffffffff166304433bbc6040518163ffffffff1660e01b815260040161107e90613056565b602060405180830381865afa15801561109b573d6000803e3d6000fd5b505050506040513d601f19601f820116820180604052508101906110bf9190612f5d565b73ffffffffffffffffffffffffffffffffffffffff1663be82c4e233308430868d6040516020016110f2939291906131a6565b6040516020818303038152906040526000898960006040518963ffffffff1660e01b815260040161112a989796959493929190613479565b600060405180830381600087803b15801561114457600080fd5b505af1158015611158573d6000803e3d6000fd5b5050505086813073ffffffffffffffffffffffffffffffffffffffff167fac922a526a52087fe0a96f1d8706cea6cfecda5848221cd24dc78515d2b3019d60405160405180910390a450505050505050565b60606008600083815260200190815260200160002060000180548060200260200160405190810160405280929190818152602001828054801561120c57602002820191906000526020600020905b8154815260200190600101908083116111f8575b50505050509050919050565b60008073ffffffffffffffffffffffffffffffffffffffff168273ffffffffffffffffffffffffffffffffffffffff1603611288576040517f08c379a000000000000000000000000000000000000000000000000000000000815260040161127f90613570565b60405180910390fd5b600460008373ffffffffffffffffffffffffffffffffffffffff1673ffffffffffffffffffffffffffffffffffffffff168152602001908152602001600020549050919050565b6000806112db836111aa565b905080600182516112ec9190613590565b815181106112fd576112fc6132fb565b5b6020026020010151915050919050565b60606002805461131c90612ad9565b80601f016020809104026020016040519081016040528092919081815260200182805461134890612ad9565b80156113955780601f1061136a57610100808354040283529160200191611395565b820191906000526020600020905b81548152906001019060200180831161137857829003601f168201915b5050505050905090565b6113b16113aa6115c8565b8383611b5d565b5050565b6113c66113c06115c8565b83611689565b611405576040517f08c379a00000000000000000000000000000000000000000000000000000000081526004016113fc90612ca0565b60405180910390fd5b61141184848484611cc9565b50505050565b60606114228261157d565b600061142c611d25565b9050600081511161144c5760405180602001604052806000815250611477565b8061145684611d3c565b604051602001611467929190613600565b6040516020818303038152906040525b915050919050565b6000600660008473ffffffffffffffffffffffffffffffffffffffff1673ffffffffffffffffffffffffffffffffffffffff16815260200190815260200160002060008373ffffffffffffffffffffffffffffffffffffffff1673ffffffffffffffffffffffffffffffffffffffff16815260200190815260200160002060009054906101000a900460ff16905092915050565b60007f01ffc9a7000000000000000000000000000000000000000000000000000000007bffffffffffffffffffffffffffffffffffffffffffffffffffffffff1916827bffffffffffffffffffffffffffffffffffffffffffffffffffffffff1916149050919050565b61158681611e9c565b6115c5576040517f08c379a00000000000000000000000000000000000000000000000000000000081526004016115bc90613376565b60405180910390fd5b50565b600033905090565b816005600083815260200190815260200160002060006101000a81548173ffffffffffffffffffffffffffffffffffffffff021916908373ffffffffffffffffffffffffffffffffffffffff160217905550808273ffffffffffffffffffffffffffffffffffffffff1661164383610cd4565b73ffffffffffffffffffffffffffffffffffffffff167f8c5be1e5ebec7d5bd14f71427d1e84f3dd0314c0f7b2291e5b200ac8c7c3b92560405160405180910390a45050565b60008061169583610cd4565b90508073ffffffffffffffffffffffffffffffffffffffff168473ffffffffffffffffffffffffffffffffffffffff1614806116d757506116d6818561147f565b5b8061171557508373ffffffffffffffffffffffffffffffffffffffff166116fd846105a3565b73ffffffffffffffffffffffffffffffffffffffff16145b91505092915050565b8273ffffffffffffffffffffffffffffffffffffffff1661173e82610cd4565b73ffffffffffffffffffffffffffffffffffffffff1614611794576040517f08c379a000000000000000000000000000000000000000000000000000000000815260040161178b90613696565b60405180910390fd5b600073ffffffffffffffffffffffffffffffffffffffff168273ffffffffffffffffffffffffffffffffffffffff1603611803576040517f08c379a00000000000000000000000000000000000000000000000000000000081526004016117fa90613728565b60405180910390fd5b61180e838383611f08565b6118196000826115d0565b6001600460008573ffffffffffffffffffffffffffffffffffffffff1673ffffffffffffffffffffffffffffffffffffffff16815260200190815260200160002060008282546118699190613590565b925050819055506001600460008473ffffffffffffffffffffffffffffffffffffffff1673ffffffffffffffffffffffffffffffffffffffff16815260200190815260200160002060008282546118c09190613748565b92505081905550816003600083815260200190815260200160002060006101000a81548173ffffffffffffffffffffffffffffffffffffffff021916908373ffffffffffffffffffffffffffffffffffffffff160217905550808273ffffffffffffffffffffffffffffffffffffffff168473ffffffffffffffffffffffffffffffffffffffff167fddf252ad1be2c89b69c2b068fc378daa952ba7f163c4a11628f55a4df523b3ef60405160405180910390a461197f838383611f0d565b505050565b600073ffffffffffffffffffffffffffffffffffffffff168273ffffffffffffffffffffffffffffffffffffffff16036119f3576040517f08c379a00000000000000000000000000000000000000000000000000000000081526004016119ea906137ea565b60405180910390fd5b6119fc81611e9c565b15611a3c576040517f08c379a0000000000000000000000000000000000000000000000000000000008152600401611a3390613856565b60405180910390fd5b611a4860008383611f08565b6001600460008473ffffffffffffffffffffffffffffffffffffffff1673ffffffffffffffffffffffffffffffffffffffff1681526020019081526020016000206000828254611a989190613748565b92505081905550816003600083815260200190815260200160002060006101000a81548173ffffffffffffffffffffffffffffffffffffffff021916908373ffffffffffffffffffffffffffffffffffffffff160217905550808273ffffffffffffffffffffffffffffffffffffffff16600073ffffffffffffffffffffffffffffffffffffffff167fddf252ad1be2c89b69c2b068fc378daa952ba7f163c4a11628f55a4df523b3ef60405160405180910390a4611b5960008383611f0d565b5050565b8173ffffffffffffffffffffffffffffffffffffffff168373ffffffffffffffffffffffffffffffffffffffff1603611bcb576040517f08c379a0000000000000000000000000000000000000000000000000000000008152600401611bc2906138c2565b60405180910390fd5b80600660008573ffffffffffffffffffffffffffffffffffffffff1673ffffffffffffffffffffffffffffffffffffffff16815260200190815260200160002060008473ffffffffffffffffffffffffffffffffffffffff1673ffffffffffffffffffffffffffffffffffffffff16815260200190815260200160002060006101000a81548160ff0219169083151502179055508173ffffffffffffffffffffffffffffffffffffffff168373ffffffffffffffffffffffffffffffffffffffff167f17307eab39ab6107e8899845ad3d59bd9653f200f220920489ca2b5937696c3183604051611cbc9190612170565b60405180910390a3505050565b611cd484848461171e565b611ce084848484611f12565b611d1f576040517f08c379a0000000000000000000000000000000000000000000000000000000008152600401611d1690613954565b60405180910390fd5b50505050565b606060405180602001604052806000815250905090565b606060008203611d83576040518060400160405280600181526020017f30000000000000000000000000000000000000000000000000000000000000008152509050611e97565b600082905060005b60008214611db5578080611d9e90613431565b915050600a82611dae91906139a3565b9150611d8b565b60008167ffffffffffffffff811115611dd157611dd06128bc565b5b6040519080825280601f01601f191660200182016040528015611e035781602001600182028036833780820191505090505b5090505b60008514611e9057600182611e1c9190613590565b9150600a85611e2b91906139d4565b6030611e379190613748565b60f81b818381518110611e4d57611e4c6132fb565b5b60200101907effffffffffffffffffffffffffffffffffffffffffffffffffffffffffffff1916908160001a905350600a85611e8991906139a3565b9450611e07565b8093505050505b919050565b60008073ffffffffffffffffffffffffffffffffffffffff166003600084815260200190815260200160002060009054906101000a900473ffffffffffffffffffffffffffffffffffffffff1673ffffffffffffffffffffffffffffffffffffffff1614159050919050565b505050565b505050565b6000611f338473ffffffffffffffffffffffffffffffffffffffff16612099565b1561208c578373ffffffffffffffffffffffffffffffffffffffff1663150b7a02611f5c6115c8565b8786866040518563ffffffff1660e01b8152600401611f7e9493929190613a05565b6020604051808303816000875af1925050508015611fba57506040513d601f19601f82011682018060405250810190611fb79190613a66565b60015b61203c573d8060008114611fea576040519150601f19603f3d011682016040523d82523d6000602084013e611fef565b606091505b506000815103612034576040517f08c379a000000000000000000000000000000000000000000000000000000000815260040161202b90613954565b60405180910390fd5b805181602001fd5b63150b7a0260e01b7bffffffffffffffffffffffffffffffffffffffffffffffffffffffff1916817bffffffffffffffffffffffffffffffffffffffffffffffffffffffff191614915050612091565b600190505b949350505050565b6000808273ffffffffffffffffffffffffffffffffffffffff163b119050919050565b6000604051905090565b600080fd5b600080fd5b60007fffffffff0000000000000000000000000000000000000000000000000000000082169050919050565b612105816120d0565b811461211057600080fd5b50565b600081359050612122816120fc565b92915050565b60006020828403121561213e5761213d6120c6565b5b600061214c84828501612113565b91505092915050565b60008115159050919050565b61216a81612155565b82525050565b60006020820190506121856000830184612161565b92915050565b600081519050919050565b600082825260208201905092915050565b60005b838110156121c55780820151818401526020810190506121aa565b838111156121d4576000848401525b50505050565b6000601f19601f8301169050919050565b60006121f68261218b565b6122008185612196565b93506122108185602086016121a7565b612219816121da565b840191505092915050565b6000602082019050818103600083015261223e81846121eb565b905092915050565b6000819050919050565b61225981612246565b811461226457600080fd5b50565b60008135905061227681612250565b92915050565b600060208284031215612292576122916120c6565b5b60006122a084828501612267565b91505092915050565b600073ffffffffffffffffffffffffffffffffffffffff82169050919050565b60006122d4826122a9565b9050919050565b6122e4816122c9565b82525050565b60006020820190506122ff60008301846122db565b92915050565b61230e816122c9565b811461231957600080fd5b50565b60008135905061232b81612305565b92915050565b60008060408385031215612348576123476120c6565b5b60006123568582860161231c565b925050602061236785828601612267565b9150509250929050565b60008060006060848603121561238a576123896120c6565b5b60006123988682870161231c565b93505060206123a98682870161231c565b92505060406123ba86828701612267565b9150509250925092565b6000819050919050565b60006123e96123e46123df846122a9565b6123c4565b6122a9565b9050919050565b60006123fb826123ce565b9050919050565b600061240d826123f0565b9050919050565b61241d81612402565b82525050565b60006020820190506124386000830184612414565b92915050565b6000819050919050565b6124518161243e565b811461245c57600080fd5b50565b60008135905061246e81612448565b92915050565b60006fffffffffffffffffffffffffffffffff82169050919050565b61249981612474565b81146124a457600080fd5b50565b6000813590506124b681612490565b92915050565b600063ffffffff82169050919050565b6124d5816124bc565b81146124e057600080fd5b50565b6000813590506124f2816124cc565b92915050565b60006bffffffffffffffffffffffff82169050919050565b612519816124f8565b811461252457600080fd5b50565b60008135905061253681612510565b92915050565b600061ffff82169050919050565b6125538161253c565b811461255e57600080fd5b50565b6000813590506125708161254a565b92915050565b600080600080600080600060e0888a031215612595576125946120c6565b5b60006125a38a828b01612267565b97505060206125b48a828b0161245f565b96505060406125c58a828b016124a7565b95505060606125d68a828b016124e3565b94505060806125e78a828b01612527565b93505060a06125f88a828b01612561565b92505060c06126098a828b01612527565b91505092959891949750929550565b6000806040838503121561262f5761262e6120c6565b5b600061263d85828601612267565b925050602061264e85828601612267565b9150509250929050565b6126618161243e565b82525050565b600060208201905061267c6000830184612658565b92915050565b61268b81612246565b82525050565b60006020820190506126a66000830184612682565b92915050565b60008060008060008060c087890312156126c9576126c86120c6565b5b60006126d789828a0161245f565b96505060206126e889828a016124a7565b95505060406126f989828a016124e3565b945050606061270a89828a01612527565b935050608061271b89828a01612561565b92505060a061272c89828a01612527565b9150509295509295509295565b600081519050919050565b600082825260208201905092915050565b6000819050602082019050919050565b61276e8161243e565b82525050565b60006127808383612765565b60208301905092915050565b6000602082019050919050565b60006127a482612739565b6127ae8185612744565b93506127b983612755565b8060005b838110156127ea5781516127d18882612774565b97506127dc8361278c565b9250506001810190506127bd565b5085935050505092915050565b600060208201905081810360008301526128118184612799565b905092915050565b60006020828403121561282f5761282e6120c6565b5b600061283d8482850161231c565b91505092915050565b61284f81612155565b811461285a57600080fd5b50565b60008135905061286c81612846565b92915050565b60008060408385031215612889576128886120c6565b5b60006128978582860161231c565b92505060206128a88582860161285d565b9150509250929050565b600080fd5b600080fd5b7f4e487b7100000000000000000000000000000000000000000000000000000000600052604160045260246000fd5b6128f4826121da565b810181811067ffffffffffffffff82111715612913576129126128bc565b5b80604052505050565b60006129266120bc565b905061293282826128eb565b919050565b600067ffffffffffffffff821115612952576129516128bc565b5b61295b826121da565b9050602081019050919050565b82818337600083830152505050565b600061298a61298584612937565b61291c565b9050828152602081018484840111156129a6576129a56128b7565b5b6129b1848285612968565b509392505050565b600082601f8301126129ce576129cd6128b2565b5b81356129de848260208601612977565b91505092915050565b60008060008060808587031215612a0157612a006120c6565b5b6000612a0f8782880161231c565b9450506020612a208782880161231c565b9350506040612a3187828801612267565b925050606085013567ffffffffffffffff811115612a5257612a516120cb565b5b612a5e878288016129b9565b91505092959194509250565b60008060408385031215612a8157612a806120c6565b5b6000612a8f8582860161231c565b9250506020612aa08582860161231c565b9150509250929050565b7f4e487b7100000000000000000000000000000000000000000000000000000000600052602260045260246000fd5b60006002820490506001821680612af157607f821691505b602082108103612b0457612b03612aaa565b5b50919050565b7f4552433732313a20617070726f76616c20746f2063757272656e74206f776e6560008201527f7200000000000000000000000000000000000000000000000000000000000000602082015250565b6000612b66602183612196565b9150612b7182612b0a565b604082019050919050565b60006020820190508181036000830152612b9581612b59565b9050919050565b7f4552433732313a20617070726f76652063616c6c6572206973206e6f7420746f60008201527f6b656e206f776e6572206e6f7220617070726f76656420666f7220616c6c0000602082015250565b6000612bf8603e83612196565b9150612c0382612b9c565b604082019050919050565b60006020820190508181036000830152612c2781612beb565b9050919050565b7f4552433732313a2063616c6c6572206973206e6f7420746f6b656e206f776e6560008201527f72206e6f7220617070726f766564000000000000000000000000000000000000602082015250565b6000612c8a602e83612196565b9150612c9582612c2e565b604082019050919050565b60006020820190508181036000830152612cb981612c7d565b9050919050565b7f4f6e6c79206f776e65722063616e2075706461746520616e2061737365740000600082015250565b6000612cf6601e83612196565b9150612d0182612cc0565b602082019050919050565b60006020820190508181036000830152612d2581612ce9565b9050919050565b7f617373657274696f6e49642063616e6e6f742062652030000000000000000000600082015250565b6000612d62601783612196565b9150612d6d82612d2c565b602082019050919050565b60006020820190508181036000830152612d9181612d55565b9050919050565b7f53697a652063616e6e6f74206265203000000000000000000000000000000000600082015250565b6000612dce601083612196565b9150612dd982612d98565b602082019050919050565b60006020820190508181036000830152612dfd81612dc1565b9050919050565b7f45706f636873206e756d6265722063616e6e6f74206265203000000000000000600082015250565b6000612e3a601983612196565b9150612e4582612e04565b602082019050919050565b60006020820190508181036000830152612e6981612e2d565b9050919050565b7f546f6b656e20616d6f756e742063616e6e6f7420626520300000000000000000600082015250565b6000612ea6601883612196565b9150612eb182612e70565b602082019050919050565b60006020820190508181036000830152612ed581612e99565b9050919050565b7f417373657274696f6e5265676973747279000000000000000000000000000000600082015250565b6000612f12601183612196565b9150612f1d82612edc565b602082019050919050565b60006020820190508181036000830152612f4181612f05565b9050919050565b600081519050612f5781612305565b92915050565b600060208284031215612f7357612f726120c6565b5b6000612f8184828501612f48565b91505092915050565b612f9381612474565b82525050565b612fa2816124bc565b82525050565b612fb1816124f8565b82525050565b600060a082019050612fcc6000830188612658565b612fd960208301876122db565b612fe66040830186612f8a565b612ff36060830185612f99565b6130006080830184612fa8565b9695505050505050565b7f5365727669636541677265656d656e7453746f72616765000000000000000000600082015250565b6000613040601783612196565b915061304b8261300a565b602082019050919050565b6000602082019050818103600083015261306f81613033565b9050919050565b6000819050919050565b600061309b61309661309184613076565b6123c4565b612246565b9050919050565b6130ab81613080565b82525050565b60006040820190506130c66000830185612682565b6130d360208301846130a2565b9392505050565b6000815190506130e981612448565b92915050565b600060208284031215613105576131046120c6565b5b6000613113848285016130da565b91505092915050565b60008160601b9050919050565b60006131348261311c565b9050919050565b600061314682613129565b9050919050565b61315e613159826122c9565b61313b565b82525050565b6000819050919050565b61317f61317a82612246565b613164565b82525050565b6000819050919050565b6131a061319b8261243e565b613185565b82525050565b60006131b2828661314d565b6014820191506131c2828561316e565b6020820191506131d2828461318f565b602082019150819050949350505050565b600081519050919050565b600082825260208201905092915050565b600061320a826131e3565b61321481856131ee565b93506132248185602086016121a7565b61322d816121da565b840191505092915050565b600060ff82169050919050565b600061326061325b61325684613076565b6123c4565b613238565b9050919050565b61327081613245565b82525050565b61327f8161253c565b82525050565b600060e08201905061329a600083018a6122db565b6132a760208301896122db565b6132b46040830188612682565b81810360608301526132c681876131ff565b90506132d56080830186613267565b6132e260a0830185613276565b6132ef60c0830184612fa8565b98975050505050505050565b7f4e487b7100000000000000000000000000000000000000000000000000000000600052603260045260246000fd5b7f4552433732313a20696e76616c696420746f6b656e2049440000000000000000600082015250565b6000613360601883612196565b915061336b8261332a565b602082019050919050565b6000602082019050818103600083015261338f81613353565b9050919050565b7f617373657274696f6e49642063616e6e6f7420626520656d7074790000000000600082015250565b60006133cc601b83612196565b91506133d782613396565b602082019050919050565b600060208201905081810360008301526133fb816133bf565b9050919050565b7f4e487b7100000000000000000000000000000000000000000000000000000000600052601160045260246000fd5b600061343c82612246565b91507fffffffffffffffffffffffffffffffffffffffffffffffffffffffffffffffff820361346e5761346d613402565b5b600182019050919050565b60006101008201905061348f600083018b6122db565b61349c602083018a6122db565b6134a96040830189612682565b81810360608301526134bb81886131ff565b90506134ca6080830187613267565b6134d760a0830186613276565b6134e460c0830185612fa8565b6134f160e0830184613267565b9998505050505050505050565b7f4552433732313a2061646472657373207a65726f206973206e6f74206120766160008201527f6c6964206f776e65720000000000000000000000000000000000000000000000602082015250565b600061355a602983612196565b9150613565826134fe565b604082019050919050565b600060208201905081810360008301526135898161354d565b9050919050565b600061359b82612246565b91506135a683612246565b9250828210156135b9576135b8613402565b5b828203905092915050565b600081905092915050565b60006135da8261218b565b6135e481856135c4565b93506135f48185602086016121a7565b80840191505092915050565b600061360c82856135cf565b915061361882846135cf565b91508190509392505050565b7f4552433732313a207472616e736665722066726f6d20696e636f72726563742060008201527f6f776e6572000000000000000000000000000000000000000000000000000000602082015250565b6000613680602583612196565b915061368b82613624565b604082019050919050565b600060208201905081810360008301526136af81613673565b9050919050565b7f4552433732313a207472616e7366657220746f20746865207a65726f2061646460008201527f7265737300000000000000000000000000000000000000000000000000000000602082015250565b6000613712602483612196565b915061371d826136b6565b604082019050919050565b6000602082019050818103600083015261374181613705565b9050919050565b600061375382612246565b915061375e83612246565b9250827fffffffffffffffffffffffffffffffffffffffffffffffffffffffffffffffff0382111561379357613792613402565b5b828201905092915050565b7f4552433732313a206d696e7420746f20746865207a65726f2061646472657373600082015250565b60006137d4602083612196565b91506137df8261379e565b602082019050919050565b60006020820190508181036000830152613803816137c7565b9050919050565b7f4552433732313a20746f6b656e20616c7265616479206d696e74656400000000600082015250565b6000613840601c83612196565b915061384b8261380a565b602082019050919050565b6000602082019050818103600083015261386f81613833565b9050919050565b7f4552433732313a20617070726f766520746f2063616c6c657200000000000000600082015250565b60006138ac601983612196565b91506138b782613876565b602082019050919050565b600060208201905081810360008301526138db8161389f565b9050919050565b7f4552433732313a207472616e7366657220746f206e6f6e20455243373231526560008201527f63656976657220696d706c656d656e7465720000000000000000000000000000602082015250565b600061393e603283612196565b9150613949826138e2565b604082019050919050565b6000602082019050818103600083015261396d81613931565b9050919050565b7f4e487b7100000000000000000000000000000000000000000000000000000000600052601260045260246000fd5b60006139ae82612246565b91506139b983612246565b9250826139c9576139c8613974565b5b828204905092915050565b60006139df82612246565b91506139ea83612246565b9250826139fa576139f9613974565b5b828206905092915050565b6000608082019050613a1a60008301876122db565b613a2760208301866122db565b613a346040830185612682565b8181036060830152613a4681846131ff565b905095945050505050565b600081519050613a60816120fc565b92915050565b600060208284031215613a7c57613a7b6120c6565b5b6000613a8a84828501613a51565b9150509291505056fea26469706673582212208e803dff57e0ee244606e67635168832426c8464c2505de713cbc8e944cb546564736f6c634300080e0033",
  "immutableReferences": {},
  "source": "// SPDX-License-Identifier: MIT\n\npragma solidity ^0.8.0;\n\nimport { AbstractAsset } from \"./AbstractAsset.sol\";\nimport { AssertionRegistry } from \"../AssertionRegistry.sol\";\nimport { ERC721 } from \"@openzeppelin/contracts/token/ERC721/ERC721.sol\";\nimport { ServiceAgreementStorage } from \"../storage/ServiceAgreementStorage.sol\";\n\ncontract ContentAsset is AbstractAsset, ERC721 {\n    struct AssetRecord {\n        bytes32[] assertions;\n    }\n\n    uint256 private _tokenId;\n\n    mapping (uint256 => AssetRecord) assetRecords;\n\n    constructor(address hubAddress)\n        AbstractAsset(hubAddress)\n        ERC721(\"ContentAsset\", \"DKG\")\n    {\n        _tokenId = 0;\n    }\n\n    function createAsset(\n        bytes32 assertionId,\n        uint128 size,\n        uint32 triplesNumber,\n        uint96 chunksNumber,\n        uint16 epochsNumber,\n        uint96 tokenAmount\n    )\n        public\n    {\n        require(assertionId != bytes32(0), \"assertionId cannot be empty\");\n        require(size > 0, \"Size cannot be 0\");\n        require(epochsNumber > 0, \"Epochs number cannot be 0\");\n        require(tokenAmount > 0, \"Token amount cannot be 0\");\n\n        uint256 tokenId = _tokenId;\n        _mint(msg.sender, tokenId);\n        _tokenId++;\n\n        AssertionRegistry(hub.getContractAddress(\"AssertionRegistry\")).createAssertionRecord(\n            assertionId,\n            msg.sender,\n            size,\n            triplesNumber,\n            chunksNumber\n        );\n        assetRecords[tokenId].assertions.push(assertionId);\n\n        ServiceAgreementStorage(hub.getContractAddress(\"ServiceAgreementStorage\")).createServiceAgreement(\n            msg.sender,\n            address(this),\n            tokenId,\n            abi.encodePacked(address(this), tokenId, assertionId),\n            0,\n            epochsNumber,\n            tokenAmount,\n            0\n        );\n\n        emit AssetCreated(address(this), tokenId, assertionId);\n    }\n\n    function updateAsset(\n        uint256 tokenId,\n        bytes32 assertionId,\n        uint128 size,\n        uint32 triplesNumber,\n        uint96 chunksNumber,\n        uint16 epochsNumber,\n        uint96 tokenAmount\n    )\n        public\n    {\n        require(msg.sender == ownerOf(tokenId), \"Only owner can update an asset\");\n        require(assertionId != bytes32(0), \"assertionId cannot be 0\");\n        require(size > 0, \"Size cannot be 0\");\n        require(epochsNumber > 0, \"Epochs number cannot be 0\");\n        require(tokenAmount > 0, \"Token amount cannot be 0\");\n        \n        AssertionRegistry(hub.getContractAddress(\"AssertionRegistry\")).createAssertionRecord(\n            assertionId,\n            msg.sender,\n            size,\n            triplesNumber,\n            chunksNumber\n        );\n        assetRecords[tokenId].assertions.push(assertionId);\n\n        ServiceAgreementStorage(hub.getContractAddress(\"ServiceAgreementStorage\")).updateServiceAgreement(\n            msg.sender,\n            address(this),\n            tokenId,\n            abi.encodePacked(address(this), tokenId, this.getAssertionByIndex(tokenId, 0)),\n            0,\n            epochsNumber,\n            tokenAmount\n        );\n\n        emit AssetUpdated(address(this), tokenId, assertionId);\n    }\n\n    function getAssertions(uint256 tokenId)\n        override\n        public\n        view\n        returns (bytes32 [] memory)\n    {\n        return assetRecords[tokenId].assertions;\n    }\n}\n",
  "sourcePath": "/Users/max/IdeaProjects/dkg-evm-module/contracts/assets/ContentAsset.sol",
  "compiler": {
    "name": "solc",
    "version": "0.8.14+commit.80d49f37.Emscripten.clang"
  },
  "schemaVersion": "3.4.10",
  "updatedAt": "2022-11-24T16:27:45.224Z",
  "devdoc": {
    "kind": "dev",
    "methods": {
      "approve(address,uint256)": {
        "details": "See {IERC721-approve}."
      },
      "balanceOf(address)": {
        "details": "See {IERC721-balanceOf}."
      },
      "getApproved(uint256)": {
        "details": "See {IERC721-getApproved}."
      },
      "isApprovedForAll(address,address)": {
        "details": "See {IERC721-isApprovedForAll}."
      },
      "name()": {
        "details": "See {IERC721Metadata-name}."
      },
      "ownerOf(uint256)": {
        "details": "See {IERC721-ownerOf}."
      },
      "safeTransferFrom(address,address,uint256)": {
        "details": "See {IERC721-safeTransferFrom}."
      },
      "safeTransferFrom(address,address,uint256,bytes)": {
        "details": "See {IERC721-safeTransferFrom}."
      },
      "setApprovalForAll(address,bool)": {
        "details": "See {IERC721-setApprovalForAll}."
      },
      "supportsInterface(bytes4)": {
        "details": "See {IERC165-supportsInterface}."
      },
      "symbol()": {
        "details": "See {IERC721Metadata-symbol}."
      },
      "tokenURI(uint256)": {
        "details": "See {IERC721Metadata-tokenURI}."
      },
      "transferFrom(address,address,uint256)": {
        "details": "See {IERC721-transferFrom}."
      }
    },
    "version": 1
  },
  "userdoc": {
    "kind": "user",
    "methods": {},
    "version": 1
  }
}