{
  "contractName": "ContentAsset",
  "abi": [
    {
      "inputs": [
        {
          "internalType": "address",
          "name": "hubAddress",
          "type": "address"
        }
      ],
      "stateMutability": "nonpayable",
      "type": "constructor"
    },
    {
      "anonymous": false,
      "inputs": [
        {
          "indexed": true,
          "internalType": "address",
          "name": "owner",
          "type": "address"
        },
        {
          "indexed": true,
          "internalType": "address",
          "name": "approved",
          "type": "address"
        },
        {
          "indexed": true,
          "internalType": "uint256",
          "name": "tokenId",
          "type": "uint256"
        }
      ],
      "name": "Approval",
      "type": "event"
    },
    {
      "anonymous": false,
      "inputs": [
        {
          "indexed": true,
          "internalType": "address",
          "name": "owner",
          "type": "address"
        },
        {
          "indexed": true,
          "internalType": "address",
          "name": "operator",
          "type": "address"
        },
        {
          "indexed": false,
          "internalType": "bool",
          "name": "approved",
          "type": "bool"
        }
      ],
      "name": "ApprovalForAll",
      "type": "event"
    },
    {
      "anonymous": false,
      "inputs": [
        {
          "indexed": true,
          "internalType": "address",
          "name": "assetContract",
          "type": "address"
        },
        {
          "indexed": true,
          "internalType": "uint256",
          "name": "tokenId",
          "type": "uint256"
        },
        {
          "indexed": true,
          "internalType": "bytes32",
          "name": "stateCommitHash",
          "type": "bytes32"
        }
      ],
      "name": "AssetCreated",
      "type": "event"
    },
    {
      "anonymous": false,
      "inputs": [
        {
          "indexed": true,
          "internalType": "address",
          "name": "assetContract",
          "type": "address"
        },
        {
          "indexed": true,
          "internalType": "uint256",
          "name": "tokenId",
          "type": "uint256"
        },
        {
          "indexed": true,
          "internalType": "bytes32",
          "name": "stateCommitHash",
          "type": "bytes32"
        }
      ],
      "name": "AssetUpdated",
      "type": "event"
    },
    {
      "anonymous": false,
      "inputs": [
        {
          "indexed": true,
          "internalType": "address",
          "name": "from",
          "type": "address"
        },
        {
          "indexed": true,
          "internalType": "address",
          "name": "to",
          "type": "address"
        },
        {
          "indexed": true,
          "internalType": "uint256",
          "name": "tokenId",
          "type": "uint256"
        }
      ],
      "name": "Transfer",
      "type": "event"
    },
    {
      "inputs": [
        {
          "internalType": "address",
          "name": "to",
          "type": "address"
        },
        {
          "internalType": "uint256",
          "name": "tokenId",
          "type": "uint256"
        }
      ],
      "name": "approve",
      "outputs": [],
      "stateMutability": "nonpayable",
      "type": "function"
    },
    {
      "inputs": [
        {
          "internalType": "address",
          "name": "owner",
          "type": "address"
        }
      ],
      "name": "balanceOf",
      "outputs": [
        {
          "internalType": "uint256",
          "name": "",
          "type": "uint256"
        }
      ],
      "stateMutability": "view",
      "type": "function"
    },
    {
      "inputs": [
        {
          "internalType": "uint256",
          "name": "tokenId",
          "type": "uint256"
        }
      ],
      "name": "getApproved",
      "outputs": [
        {
          "internalType": "address",
          "name": "",
          "type": "address"
        }
      ],
      "stateMutability": "view",
      "type": "function"
    },
    {
      "inputs": [
        {
          "internalType": "uint256",
          "name": "tokenId",
          "type": "uint256"
        },
        {
          "internalType": "uint256",
          "name": "index",
          "type": "uint256"
        }
      ],
      "name": "getAssertionByIndex",
      "outputs": [
        {
          "internalType": "bytes32",
          "name": "",
          "type": "bytes32"
        }
      ],
      "stateMutability": "view",
      "type": "function"
    },
    {
      "inputs": [
        {
          "internalType": "uint256",
          "name": "tokenId",
          "type": "uint256"
        }
      ],
      "name": "getAssertionsLength",
      "outputs": [
        {
          "internalType": "uint256",
          "name": "",
          "type": "uint256"
        }
      ],
      "stateMutability": "view",
      "type": "function"
    },
    {
      "inputs": [
        {
          "internalType": "uint256",
          "name": "tokenId",
          "type": "uint256"
        }
      ],
      "name": "getLatestAssertion",
      "outputs": [
        {
          "internalType": "bytes32",
          "name": "",
          "type": "bytes32"
        }
      ],
      "stateMutability": "view",
      "type": "function"
    },
    {
      "inputs": [],
      "name": "hub",
      "outputs": [
        {
          "internalType": "contract Hub",
          "name": "",
          "type": "address"
        }
      ],
      "stateMutability": "view",
      "type": "function"
    },
    {
      "inputs": [
        {
          "internalType": "address",
          "name": "owner",
          "type": "address"
        },
        {
          "internalType": "address",
          "name": "operator",
          "type": "address"
        }
      ],
      "name": "isApprovedForAll",
      "outputs": [
        {
          "internalType": "bool",
          "name": "",
          "type": "bool"
        }
      ],
      "stateMutability": "view",
      "type": "function"
    },
    {
      "inputs": [],
      "name": "name",
      "outputs": [
        {
          "internalType": "string",
          "name": "",
          "type": "string"
        }
      ],
      "stateMutability": "view",
      "type": "function"
    },
    {
      "inputs": [
        {
          "internalType": "uint256",
          "name": "tokenId",
          "type": "uint256"
        }
      ],
      "name": "ownerOf",
      "outputs": [
        {
          "internalType": "address",
          "name": "",
          "type": "address"
        }
      ],
      "stateMutability": "view",
      "type": "function"
    },
    {
      "inputs": [
        {
          "internalType": "address",
          "name": "from",
          "type": "address"
        },
        {
          "internalType": "address",
          "name": "to",
          "type": "address"
        },
        {
          "internalType": "uint256",
          "name": "tokenId",
          "type": "uint256"
        }
      ],
      "name": "safeTransferFrom",
      "outputs": [],
      "stateMutability": "nonpayable",
      "type": "function"
    },
    {
      "inputs": [
        {
          "internalType": "address",
          "name": "from",
          "type": "address"
        },
        {
          "internalType": "address",
          "name": "to",
          "type": "address"
        },
        {
          "internalType": "uint256",
          "name": "tokenId",
          "type": "uint256"
        },
        {
          "internalType": "bytes",
          "name": "data",
          "type": "bytes"
        }
      ],
      "name": "safeTransferFrom",
      "outputs": [],
      "stateMutability": "nonpayable",
      "type": "function"
    },
    {
      "inputs": [
        {
          "internalType": "address",
          "name": "operator",
          "type": "address"
        },
        {
          "internalType": "bool",
          "name": "approved",
          "type": "bool"
        }
      ],
      "name": "setApprovalForAll",
      "outputs": [],
      "stateMutability": "nonpayable",
      "type": "function"
    },
    {
      "inputs": [
        {
          "internalType": "bytes4",
          "name": "interfaceId",
          "type": "bytes4"
        }
      ],
      "name": "supportsInterface",
      "outputs": [
        {
          "internalType": "bool",
          "name": "",
          "type": "bool"
        }
      ],
      "stateMutability": "view",
      "type": "function"
    },
    {
      "inputs": [],
      "name": "symbol",
      "outputs": [
        {
          "internalType": "string",
          "name": "",
          "type": "string"
        }
      ],
      "stateMutability": "view",
      "type": "function"
    },
    {
      "inputs": [
        {
          "internalType": "uint256",
          "name": "tokenId",
          "type": "uint256"
        }
      ],
      "name": "tokenURI",
      "outputs": [
        {
          "internalType": "string",
          "name": "",
          "type": "string"
        }
      ],
      "stateMutability": "view",
      "type": "function"
    },
    {
      "inputs": [
        {
          "internalType": "address",
          "name": "from",
          "type": "address"
        },
        {
          "internalType": "address",
          "name": "to",
          "type": "address"
        },
        {
          "internalType": "uint256",
          "name": "tokenId",
          "type": "uint256"
        }
      ],
      "name": "transferFrom",
      "outputs": [],
      "stateMutability": "nonpayable",
      "type": "function"
    },
    {
      "inputs": [
        {
          "internalType": "bytes32",
          "name": "assertionId",
          "type": "bytes32"
        },
        {
          "internalType": "uint128",
          "name": "size",
          "type": "uint128"
        },
        {
          "internalType": "uint32",
          "name": "triplesNumber",
          "type": "uint32"
        },
        {
          "internalType": "uint96",
          "name": "chunksNumber",
          "type": "uint96"
        },
        {
          "internalType": "uint16",
          "name": "epochsNumber",
          "type": "uint16"
        },
        {
          "internalType": "uint96",
          "name": "tokenAmount",
          "type": "uint96"
        }
      ],
      "name": "createAsset",
      "outputs": [],
      "stateMutability": "nonpayable",
      "type": "function"
    },
    {
      "inputs": [
        {
          "internalType": "uint256",
          "name": "tokenId",
          "type": "uint256"
        },
        {
          "internalType": "bytes32",
          "name": "assertionId",
          "type": "bytes32"
        },
        {
          "internalType": "uint128",
          "name": "size",
          "type": "uint128"
        },
        {
          "internalType": "uint32",
          "name": "triplesNumber",
          "type": "uint32"
        },
        {
          "internalType": "uint96",
          "name": "chunksNumber",
          "type": "uint96"
        },
        {
          "internalType": "uint16",
          "name": "epochsNumber",
          "type": "uint16"
        },
        {
          "internalType": "uint96",
          "name": "tokenAmount",
          "type": "uint96"
        }
      ],
      "name": "updateAsset",
      "outputs": [],
      "stateMutability": "nonpayable",
      "type": "function"
    },
    {
      "inputs": [
        {
          "internalType": "uint256",
          "name": "tokenId",
          "type": "uint256"
        }
      ],
      "name": "getAssertions",
      "outputs": [
        {
          "internalType": "bytes32[]",
          "name": "",
          "type": "bytes32[]"
        }
      ],
      "stateMutability": "view",
      "type": "function"
    }
  ],
  "bytecode": "0x60806040523480156200001157600080fd5b5060405162003c9d38038062003c9d83398181016040528101906200003791906200027c565b6040518060400160405280600c81526020017f436f6e74656e74417373657400000000000000000000000000000000000000008152506040518060400160405280600381526020017f444b47000000000000000000000000000000000000000000000000000000000081525082600073ffffffffffffffffffffffffffffffffffffffff168173ffffffffffffffffffffffffffffffffffffffff1603620000de57600080fd5b806000806101000a81548173ffffffffffffffffffffffffffffffffffffffff021916908373ffffffffffffffffffffffffffffffffffffffff1602179055505081600190805190602001906200013792919062000162565b5080600290805190602001906200015092919062000162565b50505060006007819055505062000312565b8280546200017090620002dd565b90600052602060002090601f016020900481019282620001945760008555620001e0565b82601f10620001af57805160ff1916838001178555620001e0565b82800160010185558215620001e0579182015b82811115620001df578251825591602001919060010190620001c2565b5b509050620001ef9190620001f3565b5090565b5b808211156200020e576000816000905550600101620001f4565b5090565b600080fd5b600073ffffffffffffffffffffffffffffffffffffffff82169050919050565b6000620002448262000217565b9050919050565b620002568162000237565b81146200026257600080fd5b50565b60008151905062000276816200024b565b92915050565b60006020828403121562000295576200029462000212565b5b6000620002a58482850162000265565b91505092915050565b7f4e487b7100000000000000000000000000000000000000000000000000000000600052602260045260246000fd5b60006002820490506001821680620002f657607f821691505b6020821081036200030c576200030b620002ae565b5b50919050565b61397b80620003226000396000f3fe608060405234801561001057600080fd5b506004361061012c5760003560e01c80636352211e116100ad57806395d89b411161007157806395d89b4114610379578063a22cb46514610397578063b88d4fde146103b3578063c87b56dd146103cf578063e985e9c5146103ff5761012c565b80636352211e1461029d578063644c055b146102cd5780636ae3c072146102e957806370a08231146103195780637c29b293146103495761012c565b8063365a86fc116100f4578063365a86fc146101e757806340d735781461020557806342842e0e14610221578063469766661461023d5780635a58db141461026d5761012c565b806301ffc9a71461013157806306fdde0314610161578063081812fc1461017f578063095ea7b3146101af57806323b872dd146101cb575b600080fd5b61014b600480360381019061014691906120a8565b61042f565b60405161015891906120f0565b60405180910390f35b610169610511565b60405161017691906121a4565b60405180910390f35b610199600480360381019061019491906121fc565b6105a3565b6040516101a6919061226a565b60405180910390f35b6101c960048036038101906101c491906122b1565b6105e9565b005b6101e560048036038101906101e091906122f1565b610700565b005b6101ef610760565b6040516101fc91906123a3565b60405180910390f35b61021f600480360381019061021a91906124f6565b610784565b005b61023b600480360381019061023691906122f1565b610bf1565b005b61025760048036038101906102529190612598565b610c11565b60405161026491906125e7565b60405180910390f35b610287600480360381019061028291906121fc565b610c43565b6040516102949190612611565b60405180910390f35b6102b760048036038101906102b291906121fc565b610c56565b6040516102c4919061226a565b60405180910390f35b6102e760048036038101906102e2919061262c565b610d07565b005b61030360048036038101906102fe91906121fc565b61112a565b6040516103109190612777565b60405180910390f35b610333600480360381019061032e9190612799565b611198565b6040516103409190612611565b60405180910390f35b610363600480360381019061035e91906121fc565b61124f565b60405161037091906125e7565b60405180910390f35b61038161128d565b60405161038e91906121a4565b60405180910390f35b6103b160048036038101906103ac91906127f2565b61131f565b005b6103cd60048036038101906103c89190612967565b611335565b005b6103e960048036038101906103e491906121fc565b611397565b6040516103f691906121a4565b60405180910390f35b610419600480360381019061041491906129ea565b6113ff565b60405161042691906120f0565b60405180910390f35b60007f80ac58cd000000000000000000000000000000000000000000000000000000007bffffffffffffffffffffffffffffffffffffffffffffffffffffffff1916827bffffffffffffffffffffffffffffffffffffffffffffffffffffffff191614806104fa57507f5b5e139f000000000000000000000000000000000000000000000000000000007bffffffffffffffffffffffffffffffffffffffffffffffffffffffff1916827bffffffffffffffffffffffffffffffffffffffffffffffffffffffff1916145b8061050a575061050982611493565b5b9050919050565b60606001805461052090612a59565b80601f016020809104026020016040519081016040528092919081815260200182805461054c90612a59565b80156105995780601f1061056e57610100808354040283529160200191610599565b820191906000526020600020905b81548152906001019060200180831161057c57829003601f168201915b5050505050905090565b60006105ae826114fd565b6005600083815260200190815260200160002060009054906101000a900473ffffffffffffffffffffffffffffffffffffffff169050919050565b60006105f482610c56565b90508073ffffffffffffffffffffffffffffffffffffffff168373ffffffffffffffffffffffffffffffffffffffff1603610664576040517f08c379a000000000000000000000000000000000000000000000000000000000815260040161065b90612afc565b60405180910390fd5b8073ffffffffffffffffffffffffffffffffffffffff16610683611548565b73ffffffffffffffffffffffffffffffffffffffff1614806106b257506106b1816106ac611548565b6113ff565b5b6106f1576040517f08c379a00000000000000000000000000000000000000000000000000000000081526004016106e890612b8e565b60405180910390fd5b6106fb8383611550565b505050565b61071161070b611548565b82611609565b610750576040517f08c379a000000000000000000000000000000000000000000000000000000000815260040161074790612c20565b60405180910390fd5b61075b83838361169e565b505050565b60008054906101000a900473ffffffffffffffffffffffffffffffffffffffff1681565b61078d87610c56565b73ffffffffffffffffffffffffffffffffffffffff163373ffffffffffffffffffffffffffffffffffffffff16146107fa576040517f08c379a00000000000000000000000000000000000000000000000000000000081526004016107f190612c8c565b60405180910390fd5b6000801b860361083f576040517f08c379a000000000000000000000000000000000000000000000000000000000815260040161083690612cf8565b60405180910390fd5b6000856fffffffffffffffffffffffffffffffff1611610894576040517f08c379a000000000000000000000000000000000000000000000000000000000815260040161088b90612d64565b60405180910390fd5b60008261ffff16116108db576040517f08c379a00000000000000000000000000000000000000000000000000000000081526004016108d290612dd0565b60405180910390fd5b6000816bffffffffffffffffffffffff161161092c576040517f08c379a000000000000000000000000000000000000000000000000000000000815260040161092390612e3c565b60405180910390fd5b60008054906101000a900473ffffffffffffffffffffffffffffffffffffffff1673ffffffffffffffffffffffffffffffffffffffff166304433bbc6040518163ffffffff1660e01b815260040161098390612ea8565b602060405180830381865afa1580156109a0573d6000803e3d6000fd5b505050506040513d601f19601f820116820180604052508101906109c49190612edd565b73ffffffffffffffffffffffffffffffffffffffff1663798d5f2887338888886040518663ffffffff1660e01b8152600401610a04959493929190612f37565b600060405180830381600087803b158015610a1e57600080fd5b505af1158015610a32573d6000803e3d6000fd5b505050506008600088815260200190815260200160002060000186908060018154018082558091505060019003906000526020600020016000909190919091505560008054906101000a900473ffffffffffffffffffffffffffffffffffffffff1673ffffffffffffffffffffffffffffffffffffffff166304433bbc6040518163ffffffff1660e01b8152600401610aca90612fd6565b602060405180830381865afa158015610ae7573d6000803e3d6000fd5b505050506040513d601f19601f82011682018060405250810190610b0b9190612edd565b73ffffffffffffffffffffffffffffffffffffffff166361f14ece33308a308c604051602001610b3c92919061305f565b604051602081830303815290604052600088886040518863ffffffff1660e01b8152600401610b719796959493929190613137565b600060405180830381600087803b158015610b8b57600080fd5b505af1158015610b9f573d6000803e3d6000fd5b5050505085873073ffffffffffffffffffffffffffffffffffffffff167f317b13b972f7768c0e191b4ed63c15c50ec6ebc5c7868da502dd43b5fb48cf8660405160405180910390a450505050505050565b610c0c83838360405180602001604052806000815250611335565b505050565b600080610c1d8461112a565b9050808381518110610c3257610c316131ad565b5b602002602001015191505092915050565b6000610c4e8261112a565b519050919050565b6000806003600084815260200190815260200160002060009054906101000a900473ffffffffffffffffffffffffffffffffffffffff169050600073ffffffffffffffffffffffffffffffffffffffff168173ffffffffffffffffffffffffffffffffffffffff1603610cfe576040517f08c379a0000000000000000000000000000000000000000000000000000000008152600401610cf590613228565b60405180910390fd5b80915050919050565b6000801b8603610d4c576040517f08c379a0000000000000000000000000000000000000000000000000000000008152600401610d4390613294565b60405180910390fd5b6000856fffffffffffffffffffffffffffffffff1611610da1576040517f08c379a0000000000000000000000000000000000000000000000000000000008152600401610d9890612d64565b60405180910390fd5b60008261ffff1611610de8576040517f08c379a0000000000000000000000000000000000000000000000000000000008152600401610ddf90612dd0565b60405180910390fd5b6000816bffffffffffffffffffffffff1611610e39576040517f08c379a0000000000000000000000000000000000000000000000000000000008152600401610e3090612e3c565b60405180910390fd5b60006007549050610e4a3382611904565b60076000815480929190610e5d906132e3565b919050555060008054906101000a900473ffffffffffffffffffffffffffffffffffffffff1673ffffffffffffffffffffffffffffffffffffffff166304433bbc6040518163ffffffff1660e01b8152600401610eb990612ea8565b602060405180830381865afa158015610ed6573d6000803e3d6000fd5b505050506040513d601f19601f82011682018060405250810190610efa9190612edd565b73ffffffffffffffffffffffffffffffffffffffff1663798d5f2888338989896040518663ffffffff1660e01b8152600401610f3a959493929190612f37565b600060405180830381600087803b158015610f5457600080fd5b505af1158015610f68573d6000803e3d6000fd5b505050506008600082815260200190815260200160002060000187908060018154018082558091505060019003906000526020600020016000909190919091505560008054906101000a900473ffffffffffffffffffffffffffffffffffffffff1673ffffffffffffffffffffffffffffffffffffffff166304433bbc6040518163ffffffff1660e01b815260040161100090612fd6565b602060405180830381865afa15801561101d573d6000803e3d6000fd5b505050506040513d601f19601f820116820180604052508101906110419190612edd565b73ffffffffffffffffffffffffffffffffffffffff1663be82c4e2333084308660405160200161107292919061305f565b6040516020818303038152906040526000898960006040518963ffffffff1660e01b81526004016110aa98979695949392919061332b565b600060405180830381600087803b1580156110c457600080fd5b505af11580156110d8573d6000803e3d6000fd5b5050505086813073ffffffffffffffffffffffffffffffffffffffff167fac922a526a52087fe0a96f1d8706cea6cfecda5848221cd24dc78515d2b3019d60405160405180910390a450505050505050565b60606008600083815260200190815260200160002060000180548060200260200160405190810160405280929190818152602001828054801561118c57602002820191906000526020600020905b815481526020019060010190808311611178575b50505050509050919050565b60008073ffffffffffffffffffffffffffffffffffffffff168273ffffffffffffffffffffffffffffffffffffffff1603611208576040517f08c379a00000000000000000000000000000000000000000000000000000000081526004016111ff90613422565b60405180910390fd5b600460008373ffffffffffffffffffffffffffffffffffffffff1673ffffffffffffffffffffffffffffffffffffffff168152602001908152602001600020549050919050565b60008061125b8361112a565b9050806001825161126c9190613442565b8151811061127d5761127c6131ad565b5b6020026020010151915050919050565b60606002805461129c90612a59565b80601f01602080910402602001604051908101604052809291908181526020018280546112c890612a59565b80156113155780601f106112ea57610100808354040283529160200191611315565b820191906000526020600020905b8154815290600101906020018083116112f857829003601f168201915b5050505050905090565b61133161132a611548565b8383611add565b5050565b611346611340611548565b83611609565b611385576040517f08c379a000000000000000000000000000000000000000000000000000000000815260040161137c90612c20565b60405180910390fd5b61139184848484611c49565b50505050565b60606113a2826114fd565b60006113ac611ca5565b905060008151116113cc57604051806020016040528060008152506113f7565b806113d684611cbc565b6040516020016113e79291906134b2565b6040516020818303038152906040525b915050919050565b6000600660008473ffffffffffffffffffffffffffffffffffffffff1673ffffffffffffffffffffffffffffffffffffffff16815260200190815260200160002060008373ffffffffffffffffffffffffffffffffffffffff1673ffffffffffffffffffffffffffffffffffffffff16815260200190815260200160002060009054906101000a900460ff16905092915050565b60007f01ffc9a7000000000000000000000000000000000000000000000000000000007bffffffffffffffffffffffffffffffffffffffffffffffffffffffff1916827bffffffffffffffffffffffffffffffffffffffffffffffffffffffff1916149050919050565b61150681611e1c565b611545576040517f08c379a000000000000000000000000000000000000000000000000000000000815260040161153c90613228565b60405180910390fd5b50565b600033905090565b816005600083815260200190815260200160002060006101000a81548173ffffffffffffffffffffffffffffffffffffffff021916908373ffffffffffffffffffffffffffffffffffffffff160217905550808273ffffffffffffffffffffffffffffffffffffffff166115c383610c56565b73ffffffffffffffffffffffffffffffffffffffff167f8c5be1e5ebec7d5bd14f71427d1e84f3dd0314c0f7b2291e5b200ac8c7c3b92560405160405180910390a45050565b60008061161583610c56565b90508073ffffffffffffffffffffffffffffffffffffffff168473ffffffffffffffffffffffffffffffffffffffff161480611657575061165681856113ff565b5b8061169557508373ffffffffffffffffffffffffffffffffffffffff1661167d846105a3565b73ffffffffffffffffffffffffffffffffffffffff16145b91505092915050565b8273ffffffffffffffffffffffffffffffffffffffff166116be82610c56565b73ffffffffffffffffffffffffffffffffffffffff1614611714576040517f08c379a000000000000000000000000000000000000000000000000000000000815260040161170b90613548565b60405180910390fd5b600073ffffffffffffffffffffffffffffffffffffffff168273ffffffffffffffffffffffffffffffffffffffff1603611783576040517f08c379a000000000000000000000000000000000000000000000000000000000815260040161177a906135da565b60405180910390fd5b61178e838383611e88565b611799600082611550565b6001600460008573ffffffffffffffffffffffffffffffffffffffff1673ffffffffffffffffffffffffffffffffffffffff16815260200190815260200160002060008282546117e99190613442565b925050819055506001600460008473ffffffffffffffffffffffffffffffffffffffff1673ffffffffffffffffffffffffffffffffffffffff168152602001908152602001600020600082825461184091906135fa565b92505081905550816003600083815260200190815260200160002060006101000a81548173ffffffffffffffffffffffffffffffffffffffff021916908373ffffffffffffffffffffffffffffffffffffffff160217905550808273ffffffffffffffffffffffffffffffffffffffff168473ffffffffffffffffffffffffffffffffffffffff167fddf252ad1be2c89b69c2b068fc378daa952ba7f163c4a11628f55a4df523b3ef60405160405180910390a46118ff838383611e8d565b505050565b600073ffffffffffffffffffffffffffffffffffffffff168273ffffffffffffffffffffffffffffffffffffffff1603611973576040517f08c379a000000000000000000000000000000000000000000000000000000000815260040161196a9061369c565b60405180910390fd5b61197c81611e1c565b156119bc576040517f08c379a00000000000000000000000000000000000000000000000000000000081526004016119b390613708565b60405180910390fd5b6119c860008383611e88565b6001600460008473ffffffffffffffffffffffffffffffffffffffff1673ffffffffffffffffffffffffffffffffffffffff1681526020019081526020016000206000828254611a1891906135fa565b92505081905550816003600083815260200190815260200160002060006101000a81548173ffffffffffffffffffffffffffffffffffffffff021916908373ffffffffffffffffffffffffffffffffffffffff160217905550808273ffffffffffffffffffffffffffffffffffffffff16600073ffffffffffffffffffffffffffffffffffffffff167fddf252ad1be2c89b69c2b068fc378daa952ba7f163c4a11628f55a4df523b3ef60405160405180910390a4611ad960008383611e8d565b5050565b8173ffffffffffffffffffffffffffffffffffffffff168373ffffffffffffffffffffffffffffffffffffffff1603611b4b576040517f08c379a0000000000000000000000000000000000000000000000000000000008152600401611b4290613774565b60405180910390fd5b80600660008573ffffffffffffffffffffffffffffffffffffffff1673ffffffffffffffffffffffffffffffffffffffff16815260200190815260200160002060008473ffffffffffffffffffffffffffffffffffffffff1673ffffffffffffffffffffffffffffffffffffffff16815260200190815260200160002060006101000a81548160ff0219169083151502179055508173ffffffffffffffffffffffffffffffffffffffff168373ffffffffffffffffffffffffffffffffffffffff167f17307eab39ab6107e8899845ad3d59bd9653f200f220920489ca2b5937696c3183604051611c3c91906120f0565b60405180910390a3505050565b611c5484848461169e565b611c6084848484611e92565b611c9f576040517f08c379a0000000000000000000000000000000000000000000000000000000008152600401611c9690613806565b60405180910390fd5b50505050565b606060405180602001604052806000815250905090565b606060008203611d03576040518060400160405280600181526020017f30000000000000000000000000000000000000000000000000000000000000008152509050611e17565b600082905060005b60008214611d35578080611d1e906132e3565b915050600a82611d2e9190613855565b9150611d0b565b60008167ffffffffffffffff811115611d5157611d5061283c565b5b6040519080825280601f01601f191660200182016040528015611d835781602001600182028036833780820191505090505b5090505b60008514611e1057600182611d9c9190613442565b9150600a85611dab9190613886565b6030611db791906135fa565b60f81b818381518110611dcd57611dcc6131ad565b5b60200101907effffffffffffffffffffffffffffffffffffffffffffffffffffffffffffff1916908160001a905350600a85611e099190613855565b9450611d87565b8093505050505b919050565b60008073ffffffffffffffffffffffffffffffffffffffff166003600084815260200190815260200160002060009054906101000a900473ffffffffffffffffffffffffffffffffffffffff1673ffffffffffffffffffffffffffffffffffffffff1614159050919050565b505050565b505050565b6000611eb38473ffffffffffffffffffffffffffffffffffffffff16612019565b1561200c578373ffffffffffffffffffffffffffffffffffffffff1663150b7a02611edc611548565b8786866040518563ffffffff1660e01b8152600401611efe94939291906138b7565b6020604051808303816000875af1925050508015611f3a57506040513d601f19601f82011682018060405250810190611f379190613918565b60015b611fbc573d8060008114611f6a576040519150601f19603f3d011682016040523d82523d6000602084013e611f6f565b606091505b506000815103611fb4576040517f08c379a0000000000000000000000000000000000000000000000000000000008152600401611fab90613806565b60405180910390fd5b805181602001fd5b63150b7a0260e01b7bffffffffffffffffffffffffffffffffffffffffffffffffffffffff1916817bffffffffffffffffffffffffffffffffffffffffffffffffffffffff191614915050612011565b600190505b949350505050565b6000808273ffffffffffffffffffffffffffffffffffffffff163b119050919050565b6000604051905090565b600080fd5b600080fd5b60007fffffffff0000000000000000000000000000000000000000000000000000000082169050919050565b61208581612050565b811461209057600080fd5b50565b6000813590506120a28161207c565b92915050565b6000602082840312156120be576120bd612046565b5b60006120cc84828501612093565b91505092915050565b60008115159050919050565b6120ea816120d5565b82525050565b600060208201905061210560008301846120e1565b92915050565b600081519050919050565b600082825260208201905092915050565b60005b8381101561214557808201518184015260208101905061212a565b83811115612154576000848401525b50505050565b6000601f19601f8301169050919050565b60006121768261210b565b6121808185612116565b9350612190818560208601612127565b6121998161215a565b840191505092915050565b600060208201905081810360008301526121be818461216b565b905092915050565b6000819050919050565b6121d9816121c6565b81146121e457600080fd5b50565b6000813590506121f6816121d0565b92915050565b60006020828403121561221257612211612046565b5b6000612220848285016121e7565b91505092915050565b600073ffffffffffffffffffffffffffffffffffffffff82169050919050565b600061225482612229565b9050919050565b61226481612249565b82525050565b600060208201905061227f600083018461225b565b92915050565b61228e81612249565b811461229957600080fd5b50565b6000813590506122ab81612285565b92915050565b600080604083850312156122c8576122c7612046565b5b60006122d68582860161229c565b92505060206122e7858286016121e7565b9150509250929050565b60008060006060848603121561230a57612309612046565b5b60006123188682870161229c565b93505060206123298682870161229c565b925050604061233a868287016121e7565b9150509250925092565b6000819050919050565b600061236961236461235f84612229565b612344565b612229565b9050919050565b600061237b8261234e565b9050919050565b600061238d82612370565b9050919050565b61239d81612382565b82525050565b60006020820190506123b86000830184612394565b92915050565b6000819050919050565b6123d1816123be565b81146123dc57600080fd5b50565b6000813590506123ee816123c8565b92915050565b60006fffffffffffffffffffffffffffffffff82169050919050565b612419816123f4565b811461242457600080fd5b50565b60008135905061243681612410565b92915050565b600063ffffffff82169050919050565b6124558161243c565b811461246057600080fd5b50565b6000813590506124728161244c565b92915050565b60006bffffffffffffffffffffffff82169050919050565b61249981612478565b81146124a457600080fd5b50565b6000813590506124b681612490565b92915050565b600061ffff82169050919050565b6124d3816124bc565b81146124de57600080fd5b50565b6000813590506124f0816124ca565b92915050565b600080600080600080600060e0888a03121561251557612514612046565b5b60006125238a828b016121e7565b97505060206125348a828b016123df565b96505060406125458a828b01612427565b95505060606125568a828b01612463565b94505060806125678a828b016124a7565b93505060a06125788a828b016124e1565b92505060c06125898a828b016124a7565b91505092959891949750929550565b600080604083850312156125af576125ae612046565b5b60006125bd858286016121e7565b92505060206125ce858286016121e7565b9150509250929050565b6125e1816123be565b82525050565b60006020820190506125fc60008301846125d8565b92915050565b61260b816121c6565b82525050565b60006020820190506126266000830184612602565b92915050565b60008060008060008060c0878903121561264957612648612046565b5b600061265789828a016123df565b965050602061266889828a01612427565b955050604061267989828a01612463565b945050606061268a89828a016124a7565b935050608061269b89828a016124e1565b92505060a06126ac89828a016124a7565b9150509295509295509295565b600081519050919050565b600082825260208201905092915050565b6000819050602082019050919050565b6126ee816123be565b82525050565b600061270083836126e5565b60208301905092915050565b6000602082019050919050565b6000612724826126b9565b61272e81856126c4565b9350612739836126d5565b8060005b8381101561276a57815161275188826126f4565b975061275c8361270c565b92505060018101905061273d565b5085935050505092915050565b600060208201905081810360008301526127918184612719565b905092915050565b6000602082840312156127af576127ae612046565b5b60006127bd8482850161229c565b91505092915050565b6127cf816120d5565b81146127da57600080fd5b50565b6000813590506127ec816127c6565b92915050565b6000806040838503121561280957612808612046565b5b60006128178582860161229c565b9250506020612828858286016127dd565b9150509250929050565b600080fd5b600080fd5b7f4e487b7100000000000000000000000000000000000000000000000000000000600052604160045260246000fd5b6128748261215a565b810181811067ffffffffffffffff821117156128935761289261283c565b5b80604052505050565b60006128a661203c565b90506128b2828261286b565b919050565b600067ffffffffffffffff8211156128d2576128d161283c565b5b6128db8261215a565b9050602081019050919050565b82818337600083830152505050565b600061290a612905846128b7565b61289c565b90508281526020810184848401111561292657612925612837565b5b6129318482856128e8565b509392505050565b600082601f83011261294e5761294d612832565b5b813561295e8482602086016128f7565b91505092915050565b6000806000806080858703121561298157612980612046565b5b600061298f8782880161229c565b94505060206129a08782880161229c565b93505060406129b1878288016121e7565b925050606085013567ffffffffffffffff8111156129d2576129d161204b565b5b6129de87828801612939565b91505092959194509250565b60008060408385031215612a0157612a00612046565b5b6000612a0f8582860161229c565b9250506020612a208582860161229c565b9150509250929050565b7f4e487b7100000000000000000000000000000000000000000000000000000000600052602260045260246000fd5b60006002820490506001821680612a7157607f821691505b602082108103612a8457612a83612a2a565b5b50919050565b7f4552433732313a20617070726f76616c20746f2063757272656e74206f776e6560008201527f7200000000000000000000000000000000000000000000000000000000000000602082015250565b6000612ae6602183612116565b9150612af182612a8a565b604082019050919050565b60006020820190508181036000830152612b1581612ad9565b9050919050565b7f4552433732313a20617070726f76652063616c6c6572206973206e6f7420746f60008201527f6b656e206f776e6572206e6f7220617070726f76656420666f7220616c6c0000602082015250565b6000612b78603e83612116565b9150612b8382612b1c565b604082019050919050565b60006020820190508181036000830152612ba781612b6b565b9050919050565b7f4552433732313a2063616c6c6572206973206e6f7420746f6b656e206f776e6560008201527f72206e6f7220617070726f766564000000000000000000000000000000000000602082015250565b6000612c0a602e83612116565b9150612c1582612bae565b604082019050919050565b60006020820190508181036000830152612c3981612bfd565b9050919050565b7f4f6e6c79206f776e65722063616e2075706461746520616e2061737365740000600082015250565b6000612c76601e83612116565b9150612c8182612c40565b602082019050919050565b60006020820190508181036000830152612ca581612c69565b9050919050565b7f617373657274696f6e49642063616e6e6f742062652030000000000000000000600082015250565b6000612ce2601783612116565b9150612ced82612cac565b602082019050919050565b60006020820190508181036000830152612d1181612cd5565b9050919050565b7f53697a652063616e6e6f74206265203000000000000000000000000000000000600082015250565b6000612d4e601083612116565b9150612d5982612d18565b602082019050919050565b60006020820190508181036000830152612d7d81612d41565b9050919050565b7f45706f636873206e756d6265722063616e6e6f74206265203000000000000000600082015250565b6000612dba601983612116565b9150612dc582612d84565b602082019050919050565b60006020820190508181036000830152612de981612dad565b9050919050565b7f546f6b656e20616d6f756e742063616e6e6f7420626520300000000000000000600082015250565b6000612e26601883612116565b9150612e3182612df0565b602082019050919050565b60006020820190508181036000830152612e5581612e19565b9050919050565b7f417373657274696f6e5265676973747279000000000000000000000000000000600082015250565b6000612e92601183612116565b9150612e9d82612e5c565b602082019050919050565b60006020820190508181036000830152612ec181612e85565b9050919050565b600081519050612ed781612285565b92915050565b600060208284031215612ef357612ef2612046565b5b6000612f0184828501612ec8565b91505092915050565b612f13816123f4565b82525050565b612f228161243c565b82525050565b612f3181612478565b82525050565b600060a082019050612f4c60008301886125d8565b612f59602083018761225b565b612f666040830186612f0a565b612f736060830185612f19565b612f806080830184612f28565b9695505050505050565b7f5365727669636541677265656d656e7453746f72616765000000000000000000600082015250565b6000612fc0601783612116565b9150612fcb82612f8a565b602082019050919050565b60006020820190508181036000830152612fef81612fb3565b9050919050565b60008160601b9050919050565b600061300e82612ff6565b9050919050565b600061302082613003565b9050919050565b61303861303382612249565b613015565b82525050565b6000819050919050565b613059613054826121c6565b61303e565b82525050565b600061306b8285613027565b60148201915061307b8284613048565b6020820191508190509392505050565b600081519050919050565b600082825260208201905092915050565b60006130b28261308b565b6130bc8185613096565b93506130cc818560208601612127565b6130d58161215a565b840191505092915050565b6000819050919050565b600060ff82169050919050565b600061311261310d613108846130e0565b612344565b6130ea565b9050919050565b613122816130f7565b82525050565b613131816124bc565b82525050565b600060e08201905061314c600083018a61225b565b613159602083018961225b565b6131666040830188612602565b818103606083015261317881876130a7565b90506131876080830186613119565b61319460a0830185613128565b6131a160c0830184612f28565b98975050505050505050565b7f4e487b7100000000000000000000000000000000000000000000000000000000600052603260045260246000fd5b7f4552433732313a20696e76616c696420746f6b656e2049440000000000000000600082015250565b6000613212601883612116565b915061321d826131dc565b602082019050919050565b6000602082019050818103600083015261324181613205565b9050919050565b7f617373657274696f6e49642063616e6e6f7420626520656d7074790000000000600082015250565b600061327e601b83612116565b915061328982613248565b602082019050919050565b600060208201905081810360008301526132ad81613271565b9050919050565b7f4e487b7100000000000000000000000000000000000000000000000000000000600052601160045260246000fd5b60006132ee826121c6565b91507fffffffffffffffffffffffffffffffffffffffffffffffffffffffffffffffff82036133205761331f6132b4565b5b600182019050919050565b600061010082019050613341600083018b61225b565b61334e602083018a61225b565b61335b6040830189612602565b818103606083015261336d81886130a7565b905061337c6080830187613119565b61338960a0830186613128565b61339660c0830185612f28565b6133a360e0830184613119565b9998505050505050505050565b7f4552433732313a2061646472657373207a65726f206973206e6f74206120766160008201527f6c6964206f776e65720000000000000000000000000000000000000000000000602082015250565b600061340c602983612116565b9150613417826133b0565b604082019050919050565b6000602082019050818103600083015261343b816133ff565b9050919050565b600061344d826121c6565b9150613458836121c6565b92508282101561346b5761346a6132b4565b5b828203905092915050565b600081905092915050565b600061348c8261210b565b6134968185613476565b93506134a6818560208601612127565b80840191505092915050565b60006134be8285613481565b91506134ca8284613481565b91508190509392505050565b7f4552433732313a207472616e736665722066726f6d20696e636f72726563742060008201527f6f776e6572000000000000000000000000000000000000000000000000000000602082015250565b6000613532602583612116565b915061353d826134d6565b604082019050919050565b6000602082019050818103600083015261356181613525565b9050919050565b7f4552433732313a207472616e7366657220746f20746865207a65726f2061646460008201527f7265737300000000000000000000000000000000000000000000000000000000602082015250565b60006135c4602483612116565b91506135cf82613568565b604082019050919050565b600060208201905081810360008301526135f3816135b7565b9050919050565b6000613605826121c6565b9150613610836121c6565b9250827fffffffffffffffffffffffffffffffffffffffffffffffffffffffffffffffff03821115613645576136446132b4565b5b828201905092915050565b7f4552433732313a206d696e7420746f20746865207a65726f2061646472657373600082015250565b6000613686602083612116565b915061369182613650565b602082019050919050565b600060208201905081810360008301526136b581613679565b9050919050565b7f4552433732313a20746f6b656e20616c7265616479206d696e74656400000000600082015250565b60006136f2601c83612116565b91506136fd826136bc565b602082019050919050565b60006020820190508181036000830152613721816136e5565b9050919050565b7f4552433732313a20617070726f766520746f2063616c6c657200000000000000600082015250565b600061375e601983612116565b915061376982613728565b602082019050919050565b6000602082019050818103600083015261378d81613751565b9050919050565b7f4552433732313a207472616e7366657220746f206e6f6e20455243373231526560008201527f63656976657220696d706c656d656e7465720000000000000000000000000000602082015250565b60006137f0603283612116565b91506137fb82613794565b604082019050919050565b6000602082019050818103600083015261381f816137e3565b9050919050565b7f4e487b7100000000000000000000000000000000000000000000000000000000600052601260045260246000fd5b6000613860826121c6565b915061386b836121c6565b92508261387b5761387a613826565b5b828204905092915050565b6000613891826121c6565b915061389c836121c6565b9250826138ac576138ab613826565b5b828206905092915050565b60006080820190506138cc600083018761225b565b6138d9602083018661225b565b6138e66040830185612602565b81810360608301526138f881846130a7565b905095945050505050565b6000815190506139128161207c565b92915050565b60006020828403121561392e5761392d612046565b5b600061393c84828501613903565b9150509291505056fea26469706673582212208f213840e669e8323db564e68ded4cfd1faaa42220303ae412c363cd870697ab64736f6c634300080e0033",
  "immutableReferences": {},
  "source": "// SPDX-License-Identifier: MIT\n\npragma solidity ^0.8.0;\n\nimport { AbstractAsset } from \"./AbstractAsset.sol\";\nimport { AssertionRegistry } from \"../AssertionRegistry.sol\";\nimport { ERC721 } from \"@openzeppelin/contracts/token/ERC721/ERC721.sol\";\nimport { IERC20 } from \"@openzeppelin/contracts/token/ERC20/IERC20.sol\";\nimport { ServiceAgreementStorage } from \"../storage/ServiceAgreementStorage.sol\";\n\ncontract ContentAsset is AbstractAsset, ERC721 {\n    struct AssetRecord {\n        bytes32[] assertions;\n    }\n\n    uint256 private _tokenId;\n\n    mapping (uint256 => AssetRecord) assetRecords;\n\n    constructor(address hubAddress)\n        AbstractAsset(hubAddress)\n        ERC721(\"ContentAsset\", \"DKG\")\n    {\n        _tokenId = 0;\n    }\n\n    function createAsset(\n        bytes32 assertionId,\n        uint128 size,\n        uint32 triplesNumber,\n        uint96 chunksNumber,\n        uint16 epochsNumber,\n        uint96 tokenAmount\n    )\n        public\n    {\n        require(assertionId != bytes32(0), \"assertionId cannot be empty\");\n        require(size > 0, \"Size cannot be 0\");\n        require(epochsNumber > 0, \"Epochs number cannot be 0\");\n        require(tokenAmount > 0, \"Token amount cannot be 0\");\n\n        uint256 tokenId = _tokenId;\n        _mint(msg.sender, tokenId);\n        _tokenId++;\n\n        AssertionRegistry(hub.getContractAddress(\"AssertionRegistry\")).createAssertionRecord(\n            assertionId,\n            msg.sender,\n            size,\n            triplesNumber,\n            chunksNumber\n        );\n        assetRecords[tokenId].assertions.push(assertionId);\n\n        ServiceAgreementStorage(hub.getContractAddress(\"ServiceAgreementStorage\")).createServiceAgreement(\n            msg.sender,\n            address(this),\n            tokenId,\n            abi.encodePacked(address(this), tokenId),\n            0,\n            epochsNumber,\n            tokenAmount,\n            0\n        );\n\n        emit AssetCreated(address(this), tokenId, assertionId);\n    }\n\n    function updateAsset(\n        uint256 tokenId,\n        bytes32 assertionId,\n        uint128 size,\n        uint32 triplesNumber,\n        uint96 chunksNumber,\n        uint16 epochsNumber,\n        uint96 tokenAmount\n    )\n        public\n    {\n        require(msg.sender == ownerOf(tokenId), \"Only owner can update an asset\");\n        require(assertionId != bytes32(0), \"assertionId cannot be 0\");\n        require(size > 0, \"Size cannot be 0\");\n        require(epochsNumber > 0, \"Epochs number cannot be 0\");\n        require(tokenAmount > 0, \"Token amount cannot be 0\");\n        \n        AssertionRegistry(hub.getContractAddress(\"AssertionRegistry\")).createAssertionRecord(\n            assertionId,\n            msg.sender,\n            size,\n            triplesNumber,\n            chunksNumber\n        );\n        assetRecords[tokenId].assertions.push(assertionId);\n\n        ServiceAgreementStorage(hub.getContractAddress(\"ServiceAgreementStorage\")).updateServiceAgreement(\n            msg.sender,\n            address(this),\n            tokenId,\n            abi.encodePacked(address(this), tokenId),\n            0,\n            epochsNumber,\n            tokenAmount\n        );\n\n        emit AssetUpdated(address(this), tokenId, assertionId);\n    }\n\n    function getAssertions(uint256 tokenId)\n        override\n        public\n        view\n        returns (bytes32 [] memory)\n    {\n        return assetRecords[tokenId].assertions;\n    }\n}\n",
  "sourcePath": "/Users/waving/Desktop/OriginTrail/dkg-evm-module/contracts/assets/ContentAsset.sol",
  "compiler": {
    "name": "solc",
    "version": "0.8.14+commit.80d49f37.Emscripten.clang"
  },
  "schemaVersion": "3.4.10",
  "updatedAt": "2022-11-23T15:54:42.571Z",
  "devdoc": {
    "kind": "dev",
    "methods": {
      "approve(address,uint256)": {
        "details": "See {IERC721-approve}."
      },
      "balanceOf(address)": {
        "details": "See {IERC721-balanceOf}."
      },
      "getApproved(uint256)": {
        "details": "See {IERC721-getApproved}."
      },
      "isApprovedForAll(address,address)": {
        "details": "See {IERC721-isApprovedForAll}."
      },
      "name()": {
        "details": "See {IERC721Metadata-name}."
      },
      "ownerOf(uint256)": {
        "details": "See {IERC721-ownerOf}."
      },
      "safeTransferFrom(address,address,uint256)": {
        "details": "See {IERC721-safeTransferFrom}."
      },
      "safeTransferFrom(address,address,uint256,bytes)": {
        "details": "See {IERC721-safeTransferFrom}."
      },
      "setApprovalForAll(address,bool)": {
        "details": "See {IERC721-setApprovalForAll}."
      },
      "supportsInterface(bytes4)": {
        "details": "See {IERC165-supportsInterface}."
      },
      "symbol()": {
        "details": "See {IERC721Metadata-symbol}."
      },
      "tokenURI(uint256)": {
        "details": "See {IERC721Metadata-tokenURI}."
      },
      "transferFrom(address,address,uint256)": {
        "details": "See {IERC721-transferFrom}."
      }
    },
    "version": 1
  },
  "userdoc": {
    "kind": "user",
    "methods": {},
    "version": 1
  }
}