{
  "contractName": "ContentAsset",
  "abi": [
    {
      "inputs": [
        {
          "internalType": "address",
          "name": "hubAddress",
          "type": "address"
        }
      ],
      "stateMutability": "nonpayable",
      "type": "constructor"
    },
    {
      "anonymous": false,
      "inputs": [
        {
          "indexed": true,
          "internalType": "address",
          "name": "assetContract",
          "type": "address"
        },
        {
          "indexed": true,
          "internalType": "uint256",
          "name": "tokenId",
          "type": "uint256"
        },
        {
          "indexed": true,
          "internalType": "bytes32",
          "name": "stateCommitHash",
          "type": "bytes32"
        }
      ],
      "name": "AssetCreated",
      "type": "event"
    },
    {
      "anonymous": false,
      "inputs": [
        {
          "indexed": true,
          "internalType": "address",
          "name": "assetContract",
          "type": "address"
        },
        {
          "indexed": true,
          "internalType": "uint256",
          "name": "tokenId",
          "type": "uint256"
        },
        {
          "indexed": true,
          "internalType": "bytes32",
          "name": "stateCommitHash",
          "type": "bytes32"
        }
      ],
      "name": "AssetUpdated",
      "type": "event"
    },
    {
      "inputs": [],
      "name": "assertionContract",
      "outputs": [
        {
          "internalType": "contract Assertion",
          "name": "",
          "type": "address"
        }
      ],
      "stateMutability": "view",
      "type": "function"
    },
    {
      "inputs": [],
      "name": "contentAssetStorage",
      "outputs": [
        {
          "internalType": "contract ContentAssetStorage",
          "name": "",
          "type": "address"
        }
      ],
      "stateMutability": "view",
      "type": "function"
    },
    {
      "inputs": [],
      "name": "hub",
      "outputs": [
        {
          "internalType": "contract Hub",
          "name": "",
          "type": "address"
        }
      ],
      "stateMutability": "view",
      "type": "function"
    },
    {
      "inputs": [],
      "name": "serviceAgreementV1",
      "outputs": [
        {
          "internalType": "contract ServiceAgreementV1",
          "name": "",
          "type": "address"
        }
      ],
      "stateMutability": "view",
      "type": "function"
    },
    {
      "inputs": [],
      "name": "initialize",
      "outputs": [],
      "stateMutability": "nonpayable",
      "type": "function"
    },
    {
      "inputs": [],
      "name": "name",
      "outputs": [
        {
          "internalType": "string",
          "name": "",
          "type": "string"
        }
      ],
      "stateMutability": "pure",
      "type": "function"
    },
    {
      "inputs": [],
      "name": "version",
      "outputs": [
        {
          "internalType": "string",
          "name": "",
          "type": "string"
        }
      ],
      "stateMutability": "pure",
      "type": "function"
    },
    {
      "inputs": [
        {
          "components": [
            {
              "internalType": "bytes32",
              "name": "assertionId",
              "type": "bytes32"
            },
            {
              "internalType": "uint128",
              "name": "size",
              "type": "uint128"
            },
            {
              "internalType": "uint32",
              "name": "triplesNumber",
              "type": "uint32"
            },
            {
              "internalType": "uint96",
              "name": "chunksNumber",
              "type": "uint96"
            },
            {
              "internalType": "uint16",
              "name": "epochsNumber",
              "type": "uint16"
            },
            {
              "internalType": "uint96",
              "name": "tokenAmount",
              "type": "uint96"
            },
            {
              "internalType": "uint8",
              "name": "scoreFunctionId",
              "type": "uint8"
            }
          ],
          "internalType": "struct ContentAssetStructs.AssetInputArgs",
          "name": "args",
          "type": "tuple"
        }
      ],
      "name": "createAsset",
      "outputs": [],
      "stateMutability": "nonpayable",
      "type": "function"
    },
    {
      "inputs": [
        {
          "internalType": "bytes32",
          "name": "assertionId",
          "type": "bytes32"
        },
        {
          "internalType": "uint128",
          "name": "size",
          "type": "uint128"
        },
        {
          "internalType": "uint32",
          "name": "triplesNumber",
          "type": "uint32"
        },
        {
          "internalType": "uint96",
          "name": "chunksNumber",
          "type": "uint96"
        },
        {
          "internalType": "uint16",
          "name": "epochsNumber",
          "type": "uint16"
        },
        {
          "internalType": "uint96",
          "name": "tokenAmount",
          "type": "uint96"
        },
        {
          "internalType": "uint8",
          "name": "scoreFunctionId",
          "type": "uint8"
        }
      ],
      "name": "createAsset",
      "outputs": [],
      "stateMutability": "nonpayable",
      "type": "function"
    }
  ],
  "bytecode": "0x608060409080825234620002e85762000cb68038038091620000228285620002ed565b83396001600160a01b039182916200003e919081019062000327565b16908115620002a457600080546001600160a01b0319908116841782558451638da5cb5b60e01b81529093906020908181600481865afa9081156200029a57908591859162000278575b5016330362000236578551630110ceef60e21b80825260048201839052600960248301526820b9b9b2b93a34b7b760b91b6044830152908281606481875afa9081156200020a57908691869162000214575b50168660015416176001558651633222517f60e11b8152826004820152601360248201527f436f6e74656e74417373657453746f726167650000000000000000000000000060448201528281606481875afa9081156200020a5783929187918791620001e8575b50168760025416176002556064885180958193825284600483015260126024830152715365727669636541677265656d656e74563160701b60448301525afa928315620001dd5792620001a9575b5050169060035416176003555161096d9081620003498239f35b620001cd9250803d10620001d5575b620001c48183620002ed565b81019062000327565b38806200018f565b503d620001b8565b8651903d90823e3d90fd5b620002039150843d8611620001d557620001c48183620002ed565b3862000141565b88513d87823e3d90fd5b6200022f9150843d8611620001d557620001c48183620002ed565b38620000da565b60649086519062461bcd60e51b825280600483015260248201527f466e2063616e206f6e6c79206265207573656420627920687562206f776e65726044820152fd5b620002939150833d8511620001d557620001c48183620002ed565b3862000088565b87513d86823e3d90fd5b825162461bcd60e51b815260206004820152601960248201527f48756220416464726573732063616e6e6f7420626520307830000000000000006044820152606490fd5b600080fd5b601f909101601f19168101906001600160401b038211908210176200031157604052565b634e487b7160e01b600052604160045260246000fd5b90816020910312620002e857516001600160a01b0381168103620002e8579056fe608060408181526004918236101561001657600080fd5b600092833560e01c91826306fdde031461045257508163365a86fc1461042a5781634b4aeac71461040157816354fd4d50146103b857816365b34559146100db5781638129fc1c14610174578163a107be4f146100db57508063bd1346ae146100b35763c6a2eeca1461008857600080fd5b346100af57816003193601126100af5760035490516001600160a01b039091168152602090f35b5080fd5b50346100af57816003193601126100af5760025490516001600160a01b039091168152602090f35b9050346101705760e0366003190112610170576024356001600160801b038116810361016c5760443563ffffffff81168103610168576001600160601b03906064358281168103610164576084359161ffff831683036101605760a43593841684036101605760c4359460ff8616860361015c576101599635610566565b51f35b8880fd5b8780fd5b8680fd5b8480fd5b8380fd5b8280fd5b90503461017057826003193601126101705782548251638da5cb5b60e01b81526001600160a01b03916020919083169082818681855afa80156103ae5784918891610391575b50163303610350578451630110ceef60e21b808252858201849052600960248301526820b9b9b2b93a34b7b760b91b604483015290948386606481865afa958615610346578896610327575b50846001600160601b0360a01b9616866001541617600155865191633222517f60e11b835284828401526013602484015272436f6e74656e74417373657453746f7261676560681b60448401528483606481875afa90811561031d5785948760649387968d91610300575b501689600254161760025589519586948593845283015260126024830152715365727669636541677265656d656e74563160701b60448301525afa9182156102f65786926102c9575b50501690600354161760035551f35b6102e89250803d106102ef575b6102e08183610520565b810190610542565b38806102ba565b503d6102d6565b85513d88823e3d90fd5b6103179150873d89116102ef576102e08183610520565b38610271565b88513d8b823e3d90fd5b61033f919650843d86116102ef576102e08183610520565b9438610206565b87513d8a823e3d90fd5b606484838088519262461bcd60e51b845283015260248201527f466e2063616e206f6e6c79206265207573656420627920687562206f776e65726044820152fd5b6103a89150843d86116102ef576102e08183610520565b386101ba565b86513d89823e3d90fd5b5050346100af57816003193601126100af5780516103fd916103d982610504565b60058252640312e302e360dc1b60208301525191829160208352602083019061049a565b0390f35b5050346100af57816003193601126100af5760015490516001600160a01b039091168152602090f35b5050346100af57816003193601126100af57905490516001600160a01b039091168152602090f35b849084346101705782600319360112610170576103fd925061047382610504565b600c82526b10dbdb9d195b9d105cdcd95d60a21b6020830152519182916020835260208301905b919082519283825260005b8481106104c6575050826000602080949584010152601f8019910116010190565b6020818301810151848301820152016104a5565b67ffffffffffffffff81116104ee57604052565b634e487b7160e01b600052604160045260246000fd5b6040810190811067ffffffffffffffff8211176104ee57604052565b90601f8019910116810190811067ffffffffffffffff8211176104ee57604052565b9081602091031261056157516001600160a01b03811681036105615790565b600080fd5b600254604051636db6095560e01b8152919791966000969095929490936001600160a01b03909216926020896004818b885af198891561092c5788996108f8575b50833b15610160576040516340c10f1960e01b8152336004820152602481018a9052888160448183895af180156108ed576108da575b506001546001600160a01b031691823b1561015c578a8980946001600160601b036001600160801b03979563ffffffff6084966040519a8b998a98635c1c1c7960e11b8a5260048a01521660248801521660448601521660648401525af180156108bb579086916108c6575b5050803b156101685760405163eaeb169560e01b8152866004820152876024820152336044820152858160648183865af180156108bb579086916108a7575b5050803b156101685784809160446040518094819363367bcd9f60e01b83528b60048401528c60248401525af1801561089c57908591610888575b505060018060a01b036003541691600254604051946001600160601b03198260601b1660208701528860348701526034865267ffffffffffffffff866060810110816060890111176104ee576101608701908111606088018210176104ee5760ff946001600160601b039361ffff926040523360608a015260018060a01b031660808901528960a08901528760c0810152600160e0890152166101008701521661012085015216610140830152803b15610170576040516370ab967360e11b81526020600482015260608301516001600160a01b039081166024830152608084015116604482015260a0830151606482015260c08301516101006084830152909284928492909183918591839160ff90610140906107e69061012486019061049a565b928260e08201511660a486015261ffff6101008201511660c48601526001600160601b036101208201511660e486015201511661010483015203925af1801561087d57908291610866575b50507fac922a526a52087fe0a96f1d8706cea6cfecda5848221cd24dc78515d2b3019d60018060a01b036002541691604051a4565b61086f906104da565b61087a578038610831565b80fd5b6040513d84823e3d90fd5b610891906104da565b61016c5783386106c3565b6040513d87823e3d90fd5b6108b0906104da565b610168578438610688565b6040513d88823e3d90fd5b6108cf906104da565b610168578438610649565b6108e6909891986104da565b96386105dd565b6040513d8b823e3d90fd5b9098506020813d602011610924575b8161091460209383610520565b81010312610160575197386105a7565b3d9150610907565b6040513d8a823e3d90fdfea2646970667358221220064b01b738eb5f33d58af5041d4d2db128fae7ac523dadf698de10440918bc4764736f6c63430008100033",
  "immutableReferences": {},
  "source": "// SPDX-License-Identifier: MIT\n\npragma solidity ^0.8.4;\n\nimport {Assertion} from \"../Assertion.sol\";\nimport {Hub} from \"../Hub.sol\";\nimport {ServiceAgreementV1} from \"../ServiceAgreementV1.sol\";\nimport {Named} from \"../interface/Named.sol\";\nimport {Versioned} from \"../interface/Versioned.sol\";\nimport {ContentAssetStorage} from \"../storage/assets/ContentAssetStorage.sol\";\nimport {ContentAssetStructs} from \"../structs/assets/ContentAssetStructs.sol\";\nimport {ServiceAgreementStructsV1} from \"../structs/ServiceAgreementStructsV1.sol\";\n\ncontract ContentAsset is Named, Versioned {\n    event AssetCreated(address indexed assetContract, uint256 indexed tokenId, bytes32 indexed stateCommitHash);\n    event AssetUpdated(address indexed assetContract, uint256 indexed tokenId, bytes32 indexed stateCommitHash);\n\n    string private constant _NAME = \"ContentAsset\";\n    string private constant _VERSION = \"1.0.0\";\n\n    Hub public hub;\n    Assertion public assertionContract;\n    ContentAssetStorage public contentAssetStorage;\n    ServiceAgreementV1 public serviceAgreementV1;\n\n    constructor(address hubAddress) {\n        require(hubAddress != address(0), \"Hub Address cannot be 0x0\");\n\n        hub = Hub(hubAddress);\n        initialize();\n    }\n\n    function initialize() public onlyHubOwner {\n        assertionContract = Assertion(hub.getContractAddress(\"Assertion\"));\n        contentAssetStorage = ContentAssetStorage(hub.getAssetStorageAddress(\"ContentAssetStorage\"));\n        serviceAgreementV1 = ServiceAgreementV1(hub.getContractAddress(\"ServiceAgreementV1\"));\n    }\n\n    modifier onlyHubOwner() {\n        _checkHubOwner();\n        _;\n    }\n\n    modifier onlyAssetOwner(uint256 tokenId) {\n        _checkAssetOwner(tokenId);\n        _;\n    }\n\n    function name() external pure override returns (string memory) {\n        return _NAME;\n    }\n\n    function version() external pure override returns (string memory) {\n        return _VERSION;\n    }\n\n    function createAsset(ContentAssetStructs.AssetInputArgs calldata args) external {\n        _createAsset(\n            args.assertionId,\n            args.size,\n            args.triplesNumber,\n            args.chunksNumber,\n            args.epochsNumber,\n            args.tokenAmount,\n            args.scoreFunctionId\n        );\n    }\n\n    function createAsset(\n        bytes32 assertionId,\n        uint128 size,\n        uint32 triplesNumber,\n        uint96 chunksNumber,\n        uint16 epochsNumber,\n        uint96 tokenAmount,\n        uint8 scoreFunctionId\n    ) external {\n        _createAsset(assertionId, size, triplesNumber, chunksNumber, epochsNumber, tokenAmount, scoreFunctionId);\n    }\n\n    function _createAsset(\n        bytes32 assertionId,\n        uint128 size,\n        uint32 triplesNumber,\n        uint96 chunksNumber,\n        uint16 epochsNumber,\n        uint96 tokenAmount,\n        uint8 scoreFunctionId\n    ) internal {\n        ContentAssetStorage cas = contentAssetStorage;\n\n        uint256 tokenId = cas.generateTokenId();\n        cas.mint(msg.sender, tokenId);\n\n        assertionContract.createAssertion(assertionId, size, triplesNumber, chunksNumber);\n        cas.setAssertionIssuer(tokenId, assertionId, msg.sender);\n        cas.pushAssertionId(tokenId, assertionId);\n\n        serviceAgreementV1.createServiceAgreement(\n            ServiceAgreementStructsV1.ServiceAgreementInputArgs({\n                assetCreator: msg.sender,\n                assetContract: address(contentAssetStorage),\n                tokenId: tokenId,\n                keyword: abi.encodePacked(address(contentAssetStorage), assertionId),\n                hashFunctionId: 1, // hashFunctionId | 1 = sha256\n                epochsNumber: epochsNumber,\n                tokenAmount: tokenAmount,\n                scoreFunctionId: scoreFunctionId\n            })\n        );\n\n        emit AssetCreated(address(contentAssetStorage), tokenId, assertionId);\n    }\n\n    function _checkHubOwner() internal view virtual {\n        require(msg.sender == hub.owner(), \"Fn can only be used by hub owner\");\n    }\n\n    function _checkAssetOwner(uint256 tokenId) internal view virtual {\n        require(msg.sender == contentAssetStorage.ownerOf(tokenId), \"Only asset owner can use this fn\");\n    }\n}\n",
  "sourcePath": "/Users/waving/Desktop/OriginTrail/dkg-evm-module/contracts/assets/ContentAsset.sol",
  "compiler": {
    "name": "solc",
    "version": "0.8.16+commit.07a7930e.Emscripten.clang"
  },
  "schemaVersion": "3.4.10",
  "updatedAt": "2022-12-12T12:30:10.722Z",
  "devdoc": {
    "kind": "dev",
    "methods": {},
    "version": 1
  },
  "userdoc": {
    "kind": "user",
    "methods": {},
    "version": 1
  }
}