{
  "contractName": "ContentAsset",
  "abi": [
    {
      "inputs": [
        {
          "internalType": "address",
          "name": "hubAddress",
          "type": "address"
        }
      ],
      "stateMutability": "nonpayable",
      "type": "constructor"
    },
    {
      "anonymous": false,
      "inputs": [
        {
          "indexed": true,
          "internalType": "address",
          "name": "owner",
          "type": "address"
        },
        {
          "indexed": true,
          "internalType": "address",
          "name": "approved",
          "type": "address"
        },
        {
          "indexed": true,
          "internalType": "uint256",
          "name": "tokenId",
          "type": "uint256"
        }
      ],
      "name": "Approval",
      "type": "event"
    },
    {
      "anonymous": false,
      "inputs": [
        {
          "indexed": true,
          "internalType": "address",
          "name": "owner",
          "type": "address"
        },
        {
          "indexed": true,
          "internalType": "address",
          "name": "operator",
          "type": "address"
        },
        {
          "indexed": false,
          "internalType": "bool",
          "name": "approved",
          "type": "bool"
        }
      ],
      "name": "ApprovalForAll",
      "type": "event"
    },
    {
      "anonymous": false,
      "inputs": [
        {
          "indexed": true,
          "internalType": "address",
          "name": "assetContract",
          "type": "address"
        },
        {
          "indexed": true,
          "internalType": "uint256",
          "name": "tokenId",
          "type": "uint256"
        },
        {
          "indexed": true,
          "internalType": "bytes32",
          "name": "stateCommitHash",
          "type": "bytes32"
        }
      ],
      "name": "AssetCreated",
      "type": "event"
    },
    {
      "anonymous": false,
      "inputs": [
        {
          "indexed": true,
          "internalType": "address",
          "name": "assetContract",
          "type": "address"
        },
        {
          "indexed": true,
          "internalType": "uint256",
          "name": "tokenId",
          "type": "uint256"
        },
        {
          "indexed": true,
          "internalType": "bytes32",
          "name": "stateCommitHash",
          "type": "bytes32"
        }
      ],
      "name": "AssetUpdated",
      "type": "event"
    },
    {
      "anonymous": false,
      "inputs": [
        {
          "indexed": true,
          "internalType": "address",
          "name": "from",
          "type": "address"
        },
        {
          "indexed": true,
          "internalType": "address",
          "name": "to",
          "type": "address"
        },
        {
          "indexed": true,
          "internalType": "uint256",
          "name": "tokenId",
          "type": "uint256"
        }
      ],
      "name": "Transfer",
      "type": "event"
    },
    {
      "inputs": [
        {
          "internalType": "address",
          "name": "to",
          "type": "address"
        },
        {
          "internalType": "uint256",
          "name": "tokenId",
          "type": "uint256"
        }
      ],
      "name": "approve",
      "outputs": [],
      "stateMutability": "nonpayable",
      "type": "function"
    },
    {
      "inputs": [
        {
          "internalType": "address",
          "name": "owner",
          "type": "address"
        }
      ],
      "name": "balanceOf",
      "outputs": [
        {
          "internalType": "uint256",
          "name": "",
          "type": "uint256"
        }
      ],
      "stateMutability": "view",
      "type": "function"
    },
    {
      "inputs": [
        {
          "internalType": "uint256",
          "name": "tokenId",
          "type": "uint256"
        }
      ],
      "name": "getApproved",
      "outputs": [
        {
          "internalType": "address",
          "name": "",
          "type": "address"
        }
      ],
      "stateMutability": "view",
      "type": "function"
    },
    {
      "inputs": [
        {
          "internalType": "uint256",
          "name": "tokenId",
          "type": "uint256"
        },
        {
          "internalType": "uint256",
          "name": "index",
          "type": "uint256"
        }
      ],
      "name": "getAssertionByIndex",
      "outputs": [
        {
          "internalType": "bytes32",
          "name": "",
          "type": "bytes32"
        }
      ],
      "stateMutability": "view",
      "type": "function"
    },
    {
      "inputs": [
        {
          "internalType": "uint256",
          "name": "tokenId",
          "type": "uint256"
        }
      ],
      "name": "getAssertionsLength",
      "outputs": [
        {
          "internalType": "uint256",
          "name": "",
          "type": "uint256"
        }
      ],
      "stateMutability": "view",
      "type": "function"
    },
    {
      "inputs": [],
      "name": "hub",
      "outputs": [
        {
          "internalType": "contract Hub",
          "name": "",
          "type": "address"
        }
      ],
      "stateMutability": "view",
      "type": "function"
    },
    {
      "inputs": [
        {
          "internalType": "address",
          "name": "owner",
          "type": "address"
        },
        {
          "internalType": "address",
          "name": "operator",
          "type": "address"
        }
      ],
      "name": "isApprovedForAll",
      "outputs": [
        {
          "internalType": "bool",
          "name": "",
          "type": "bool"
        }
      ],
      "stateMutability": "view",
      "type": "function"
    },
    {
      "inputs": [],
      "name": "name",
      "outputs": [
        {
          "internalType": "string",
          "name": "",
          "type": "string"
        }
      ],
      "stateMutability": "view",
      "type": "function"
    },
    {
      "inputs": [
        {
          "internalType": "uint256",
          "name": "tokenId",
          "type": "uint256"
        }
      ],
      "name": "ownerOf",
      "outputs": [
        {
          "internalType": "address",
          "name": "",
          "type": "address"
        }
      ],
      "stateMutability": "view",
      "type": "function"
    },
    {
      "inputs": [
        {
          "internalType": "address",
          "name": "from",
          "type": "address"
        },
        {
          "internalType": "address",
          "name": "to",
          "type": "address"
        },
        {
          "internalType": "uint256",
          "name": "tokenId",
          "type": "uint256"
        }
      ],
      "name": "safeTransferFrom",
      "outputs": [],
      "stateMutability": "nonpayable",
      "type": "function"
    },
    {
      "inputs": [
        {
          "internalType": "address",
          "name": "from",
          "type": "address"
        },
        {
          "internalType": "address",
          "name": "to",
          "type": "address"
        },
        {
          "internalType": "uint256",
          "name": "tokenId",
          "type": "uint256"
        },
        {
          "internalType": "bytes",
          "name": "data",
          "type": "bytes"
        }
      ],
      "name": "safeTransferFrom",
      "outputs": [],
      "stateMutability": "nonpayable",
      "type": "function"
    },
    {
      "inputs": [
        {
          "internalType": "address",
          "name": "operator",
          "type": "address"
        },
        {
          "internalType": "bool",
          "name": "approved",
          "type": "bool"
        }
      ],
      "name": "setApprovalForAll",
      "outputs": [],
      "stateMutability": "nonpayable",
      "type": "function"
    },
    {
      "inputs": [
        {
          "internalType": "bytes4",
          "name": "interfaceId",
          "type": "bytes4"
        }
      ],
      "name": "supportsInterface",
      "outputs": [
        {
          "internalType": "bool",
          "name": "",
          "type": "bool"
        }
      ],
      "stateMutability": "view",
      "type": "function"
    },
    {
      "inputs": [],
      "name": "symbol",
      "outputs": [
        {
          "internalType": "string",
          "name": "",
          "type": "string"
        }
      ],
      "stateMutability": "view",
      "type": "function"
    },
    {
      "inputs": [
        {
          "internalType": "uint256",
          "name": "tokenId",
          "type": "uint256"
        }
      ],
      "name": "tokenURI",
      "outputs": [
        {
          "internalType": "string",
          "name": "",
          "type": "string"
        }
      ],
      "stateMutability": "view",
      "type": "function"
    },
    {
      "inputs": [
        {
          "internalType": "address",
          "name": "from",
          "type": "address"
        },
        {
          "internalType": "address",
          "name": "to",
          "type": "address"
        },
        {
          "internalType": "uint256",
          "name": "tokenId",
          "type": "uint256"
        }
      ],
      "name": "transferFrom",
      "outputs": [],
      "stateMutability": "nonpayable",
      "type": "function"
    },
    {
      "inputs": [
        {
          "internalType": "bytes32",
          "name": "assertionId",
          "type": "bytes32"
        },
        {
          "internalType": "uint128",
          "name": "size",
          "type": "uint128"
        },
        {
          "internalType": "uint32",
          "name": "triplesNumber",
          "type": "uint32"
        },
        {
          "internalType": "uint96",
          "name": "chunksNumber",
          "type": "uint96"
        },
        {
          "internalType": "uint16",
          "name": "epochsNumber",
          "type": "uint16"
        },
        {
          "internalType": "uint96",
          "name": "tokenAmount",
          "type": "uint96"
        }
      ],
      "name": "createAsset",
      "outputs": [
        {
          "internalType": "uint256",
          "name": "",
          "type": "uint256"
        }
      ],
      "stateMutability": "nonpayable",
      "type": "function"
    },
    {
      "inputs": [
        {
          "internalType": "uint256",
          "name": "tokenId",
          "type": "uint256"
        },
        {
          "internalType": "bytes32",
          "name": "assertionId",
          "type": "bytes32"
        },
        {
          "internalType": "uint128",
          "name": "size",
          "type": "uint128"
        },
        {
          "internalType": "uint32",
          "name": "triplesNumber",
          "type": "uint32"
        },
        {
          "internalType": "uint96",
          "name": "chunksNumber",
          "type": "uint96"
        },
        {
          "internalType": "uint16",
          "name": "epochsNumber",
          "type": "uint16"
        },
        {
          "internalType": "uint96",
          "name": "tokenAmount",
          "type": "uint96"
        }
      ],
      "name": "updateAsset",
      "outputs": [],
      "stateMutability": "nonpayable",
      "type": "function"
    },
    {
      "inputs": [
        {
          "internalType": "uint256",
          "name": "tokenId",
          "type": "uint256"
        }
      ],
      "name": "getAssertions",
      "outputs": [
        {
          "internalType": "bytes32[]",
          "name": "",
          "type": "bytes32[]"
        }
      ],
      "stateMutability": "view",
      "type": "function"
    }
  ],
  "bytecode": "0x60806040523480156200001157600080fd5b5060405162003cb038038062003cb083398181016040528101906200003791906200027c565b6040518060400160405280600c81526020017f436f6e74656e74417373657400000000000000000000000000000000000000008152506040518060400160405280600381526020017f444b47000000000000000000000000000000000000000000000000000000000081525082600073ffffffffffffffffffffffffffffffffffffffff168173ffffffffffffffffffffffffffffffffffffffff1603620000de57600080fd5b806000806101000a81548173ffffffffffffffffffffffffffffffffffffffff021916908373ffffffffffffffffffffffffffffffffffffffff1602179055505081600190805190602001906200013792919062000162565b5080600290805190602001906200015092919062000162565b50505060006007819055505062000312565b8280546200017090620002dd565b90600052602060002090601f016020900481019282620001945760008555620001e0565b82601f10620001af57805160ff1916838001178555620001e0565b82800160010185558215620001e0579182015b82811115620001df578251825591602001919060010190620001c2565b5b509050620001ef9190620001f3565b5090565b5b808211156200020e576000816000905550600101620001f4565b5090565b600080fd5b600073ffffffffffffffffffffffffffffffffffffffff82169050919050565b6000620002448262000217565b9050919050565b620002568162000237565b81146200026257600080fd5b50565b60008151905062000276816200024b565b92915050565b60006020828403121562000295576200029462000212565b5b6000620002a58482850162000265565b91505092915050565b7f4e487b7100000000000000000000000000000000000000000000000000000000600052602260045260246000fd5b60006002820490506001821680620002f657607f821691505b6020821081036200030c576200030b620002ae565b5b50919050565b61398e80620003226000396000f3fe608060405234801561001057600080fd5b50600436106101215760003560e01c80635a58db14116100ad57806395d89b411161007157806395d89b4114610352578063a22cb46514610370578063b88d4fde1461038c578063c87b56dd146103a8578063e985e9c5146103d857610121565b80635a58db14146102625780636352211e14610292578063644c055b146102c25780636ae3c072146102f257806370a082311461032257610121565b806323b872dd116100f457806323b872dd146101c0578063365a86fc146101dc57806340d73578146101fa57806342842e0e14610216578063469766661461023257610121565b806301ffc9a71461012657806306fdde0314610156578063081812fc14610174578063095ea7b3146101a4575b600080fd5b610140600480360381019061013b91906120bb565b610408565b60405161014d9190612103565b60405180910390f35b61015e6104ea565b60405161016b91906121b7565b60405180910390f35b61018e6004803603810190610189919061220f565b61057c565b60405161019b919061227d565b60405180910390f35b6101be60048036038101906101b991906122c4565b6105c2565b005b6101da60048036038101906101d59190612304565b6106d9565b005b6101e4610739565b6040516101f191906123b6565b60405180910390f35b610214600480360381019061020f9190612509565b61075d565b005b610230600480360381019061022b9190612304565b610c3b565b005b61024c600480360381019061024791906125ab565b610c5b565b60405161025991906125fa565b60405180910390f35b61027c6004803603810190610277919061220f565b610c8d565b6040516102899190612624565b60405180910390f35b6102ac60048036038101906102a7919061220f565b610ca0565b6040516102b9919061227d565b60405180910390f35b6102dc60048036038101906102d7919061263f565b610d51565b6040516102e99190612624565b60405180910390f35b61030c6004803603810190610307919061220f565b61117b565b604051610319919061278a565b60405180910390f35b61033c600480360381019061033791906127ac565b6111e9565b6040516103499190612624565b60405180910390f35b61035a6112a0565b60405161036791906121b7565b60405180910390f35b61038a60048036038101906103859190612805565b611332565b005b6103a660048036038101906103a1919061297a565b611348565b005b6103c260048036038101906103bd919061220f565b6113aa565b6040516103cf91906121b7565b60405180910390f35b6103f260048036038101906103ed91906129fd565b611412565b6040516103ff9190612103565b60405180910390f35b60007f80ac58cd000000000000000000000000000000000000000000000000000000007bffffffffffffffffffffffffffffffffffffffffffffffffffffffff1916827bffffffffffffffffffffffffffffffffffffffffffffffffffffffff191614806104d357507f5b5e139f000000000000000000000000000000000000000000000000000000007bffffffffffffffffffffffffffffffffffffffffffffffffffffffff1916827bffffffffffffffffffffffffffffffffffffffffffffffffffffffff1916145b806104e357506104e2826114a6565b5b9050919050565b6060600180546104f990612a6c565b80601f016020809104026020016040519081016040528092919081815260200182805461052590612a6c565b80156105725780601f1061054757610100808354040283529160200191610572565b820191906000526020600020905b81548152906001019060200180831161055557829003601f168201915b5050505050905090565b600061058782611510565b6005600083815260200190815260200160002060009054906101000a900473ffffffffffffffffffffffffffffffffffffffff169050919050565b60006105cd82610ca0565b90508073ffffffffffffffffffffffffffffffffffffffff168373ffffffffffffffffffffffffffffffffffffffff160361063d576040517f08c379a000000000000000000000000000000000000000000000000000000000815260040161063490612b0f565b60405180910390fd5b8073ffffffffffffffffffffffffffffffffffffffff1661065c61155b565b73ffffffffffffffffffffffffffffffffffffffff16148061068b575061068a8161068561155b565b611412565b5b6106ca576040517f08c379a00000000000000000000000000000000000000000000000000000000081526004016106c190612ba1565b60405180910390fd5b6106d48383611563565b505050565b6106ea6106e461155b565b8261161c565b610729576040517f08c379a000000000000000000000000000000000000000000000000000000000815260040161072090612c33565b60405180910390fd5b6107348383836116b1565b505050565b60008054906101000a900473ffffffffffffffffffffffffffffffffffffffff1681565b3073ffffffffffffffffffffffffffffffffffffffff16636352211e886040518263ffffffff1660e01b81526004016107969190612624565b602060405180830381865afa1580156107b3573d6000803e3d6000fd5b505050506040513d601f19601f820116820180604052508101906107d79190612c68565b73ffffffffffffffffffffffffffffffffffffffff163373ffffffffffffffffffffffffffffffffffffffff1614610844576040517f08c379a000000000000000000000000000000000000000000000000000000000815260040161083b90612ce1565b60405180910390fd5b6000801b8603610889576040517f08c379a000000000000000000000000000000000000000000000000000000000815260040161088090612d4d565b60405180910390fd5b6000856fffffffffffffffffffffffffffffffff16116108de576040517f08c379a00000000000000000000000000000000000000000000000000000000081526004016108d590612db9565b60405180910390fd5b60008261ffff1611610925576040517f08c379a000000000000000000000000000000000000000000000000000000000815260040161091c90612e25565b60405180910390fd5b6000816bffffffffffffffffffffffff1611610976576040517f08c379a000000000000000000000000000000000000000000000000000000000815260040161096d90612e91565b60405180910390fd5b60008054906101000a900473ffffffffffffffffffffffffffffffffffffffff1673ffffffffffffffffffffffffffffffffffffffff166304433bbc6040518163ffffffff1660e01b81526004016109cd90612efd565b602060405180830381865afa1580156109ea573d6000803e3d6000fd5b505050506040513d601f19601f82011682018060405250810190610a0e9190612c68565b73ffffffffffffffffffffffffffffffffffffffff1663798d5f2887338888886040518663ffffffff1660e01b8152600401610a4e959493929190612f4a565b600060405180830381600087803b158015610a6857600080fd5b505af1158015610a7c573d6000803e3d6000fd5b505050506008600088815260200190815260200160002060000186908060018154018082558091505060019003906000526020600020016000909190919091505560008054906101000a900473ffffffffffffffffffffffffffffffffffffffff1673ffffffffffffffffffffffffffffffffffffffff166304433bbc6040518163ffffffff1660e01b8152600401610b1490612fe9565b602060405180830381865afa158015610b31573d6000803e3d6000fd5b505050506040513d601f19601f82011682018060405250810190610b559190612c68565b73ffffffffffffffffffffffffffffffffffffffff166361f14ece33308a308c604051602001610b86929190613072565b604051602081830303815290604052600088886040518863ffffffff1660e01b8152600401610bbb979695949392919061314a565b600060405180830381600087803b158015610bd557600080fd5b505af1158015610be9573d6000803e3d6000fd5b5050505085873073ffffffffffffffffffffffffffffffffffffffff167f317b13b972f7768c0e191b4ed63c15c50ec6ebc5c7868da502dd43b5fb48cf8660405160405180910390a450505050505050565b610c5683838360405180602001604052806000815250611348565b505050565b600080610c678461117b565b9050808381518110610c7c57610c7b6131c0565b5b602002602001015191505092915050565b6000610c988261117b565b519050919050565b6000806003600084815260200190815260200160002060009054906101000a900473ffffffffffffffffffffffffffffffffffffffff169050600073ffffffffffffffffffffffffffffffffffffffff168173ffffffffffffffffffffffffffffffffffffffff1603610d48576040517f08c379a0000000000000000000000000000000000000000000000000000000008152600401610d3f9061323b565b60405180910390fd5b80915050919050565b60008060001b8703610d98576040517f08c379a0000000000000000000000000000000000000000000000000000000008152600401610d8f906132a7565b60405180910390fd5b6000866fffffffffffffffffffffffffffffffff1611610ded576040517f08c379a0000000000000000000000000000000000000000000000000000000008152600401610de490612db9565b60405180910390fd5b60008361ffff1611610e34576040517f08c379a0000000000000000000000000000000000000000000000000000000008152600401610e2b90612e25565b60405180910390fd5b6000826bffffffffffffffffffffffff1611610e85576040517f08c379a0000000000000000000000000000000000000000000000000000000008152600401610e7c90612e91565b60405180910390fd5b60006007549050610e963382611917565b60076000815480929190610ea9906132f6565b919050555060008054906101000a900473ffffffffffffffffffffffffffffffffffffffff1673ffffffffffffffffffffffffffffffffffffffff166304433bbc6040518163ffffffff1660e01b8152600401610f0590612efd565b602060405180830381865afa158015610f22573d6000803e3d6000fd5b505050506040513d601f19601f82011682018060405250810190610f469190612c68565b73ffffffffffffffffffffffffffffffffffffffff1663798d5f2889338a8a8a6040518663ffffffff1660e01b8152600401610f86959493929190612f4a565b600060405180830381600087803b158015610fa057600080fd5b505af1158015610fb4573d6000803e3d6000fd5b505050506008600082815260200190815260200160002060000188908060018154018082558091505060019003906000526020600020016000909190919091505560008054906101000a900473ffffffffffffffffffffffffffffffffffffffff1673ffffffffffffffffffffffffffffffffffffffff166304433bbc6040518163ffffffff1660e01b815260040161104c90612fe9565b602060405180830381865afa158015611069573d6000803e3d6000fd5b505050506040513d601f19601f8201168201806040525081019061108d9190612c68565b73ffffffffffffffffffffffffffffffffffffffff1663be82c4e233308430866040516020016110be929190613072565b60405160208183030381529060405260008a8a60006040518963ffffffff1660e01b81526004016110f698979695949392919061333e565b600060405180830381600087803b15801561111057600080fd5b505af1158015611124573d6000803e3d6000fd5b5050505087813073ffffffffffffffffffffffffffffffffffffffff167fac922a526a52087fe0a96f1d8706cea6cfecda5848221cd24dc78515d2b3019d60405160405180910390a4809150509695505050505050565b6060600860008381526020019081526020016000206000018054806020026020016040519081016040528092919081815260200182805480156111dd57602002820191906000526020600020905b8154815260200190600101908083116111c9575b50505050509050919050565b60008073ffffffffffffffffffffffffffffffffffffffff168273ffffffffffffffffffffffffffffffffffffffff1603611259576040517f08c379a000000000000000000000000000000000000000000000000000000000815260040161125090613435565b60405180910390fd5b600460008373ffffffffffffffffffffffffffffffffffffffff1673ffffffffffffffffffffffffffffffffffffffff168152602001908152602001600020549050919050565b6060600280546112af90612a6c565b80601f01602080910402602001604051908101604052809291908181526020018280546112db90612a6c565b80156113285780601f106112fd57610100808354040283529160200191611328565b820191906000526020600020905b81548152906001019060200180831161130b57829003601f168201915b5050505050905090565b61134461133d61155b565b8383611af0565b5050565b61135961135361155b565b8361161c565b611398576040517f08c379a000000000000000000000000000000000000000000000000000000000815260040161138f90612c33565b60405180910390fd5b6113a484848484611c5c565b50505050565b60606113b582611510565b60006113bf611cb8565b905060008151116113df576040518060200160405280600081525061140a565b806113e984611ccf565b6040516020016113fa929190613491565b6040516020818303038152906040525b915050919050565b6000600660008473ffffffffffffffffffffffffffffffffffffffff1673ffffffffffffffffffffffffffffffffffffffff16815260200190815260200160002060008373ffffffffffffffffffffffffffffffffffffffff1673ffffffffffffffffffffffffffffffffffffffff16815260200190815260200160002060009054906101000a900460ff16905092915050565b60007f01ffc9a7000000000000000000000000000000000000000000000000000000007bffffffffffffffffffffffffffffffffffffffffffffffffffffffff1916827bffffffffffffffffffffffffffffffffffffffffffffffffffffffff1916149050919050565b61151981611e2f565b611558576040517f08c379a000000000000000000000000000000000000000000000000000000000815260040161154f9061323b565b60405180910390fd5b50565b600033905090565b816005600083815260200190815260200160002060006101000a81548173ffffffffffffffffffffffffffffffffffffffff021916908373ffffffffffffffffffffffffffffffffffffffff160217905550808273ffffffffffffffffffffffffffffffffffffffff166115d683610ca0565b73ffffffffffffffffffffffffffffffffffffffff167f8c5be1e5ebec7d5bd14f71427d1e84f3dd0314c0f7b2291e5b200ac8c7c3b92560405160405180910390a45050565b60008061162883610ca0565b90508073ffffffffffffffffffffffffffffffffffffffff168473ffffffffffffffffffffffffffffffffffffffff16148061166a57506116698185611412565b5b806116a857508373ffffffffffffffffffffffffffffffffffffffff166116908461057c565b73ffffffffffffffffffffffffffffffffffffffff16145b91505092915050565b8273ffffffffffffffffffffffffffffffffffffffff166116d182610ca0565b73ffffffffffffffffffffffffffffffffffffffff1614611727576040517f08c379a000000000000000000000000000000000000000000000000000000000815260040161171e90613527565b60405180910390fd5b600073ffffffffffffffffffffffffffffffffffffffff168273ffffffffffffffffffffffffffffffffffffffff1603611796576040517f08c379a000000000000000000000000000000000000000000000000000000000815260040161178d906135b9565b60405180910390fd5b6117a1838383611e9b565b6117ac600082611563565b6001600460008573ffffffffffffffffffffffffffffffffffffffff1673ffffffffffffffffffffffffffffffffffffffff16815260200190815260200160002060008282546117fc91906135d9565b925050819055506001600460008473ffffffffffffffffffffffffffffffffffffffff1673ffffffffffffffffffffffffffffffffffffffff1681526020019081526020016000206000828254611853919061360d565b92505081905550816003600083815260200190815260200160002060006101000a81548173ffffffffffffffffffffffffffffffffffffffff021916908373ffffffffffffffffffffffffffffffffffffffff160217905550808273ffffffffffffffffffffffffffffffffffffffff168473ffffffffffffffffffffffffffffffffffffffff167fddf252ad1be2c89b69c2b068fc378daa952ba7f163c4a11628f55a4df523b3ef60405160405180910390a4611912838383611ea0565b505050565b600073ffffffffffffffffffffffffffffffffffffffff168273ffffffffffffffffffffffffffffffffffffffff1603611986576040517f08c379a000000000000000000000000000000000000000000000000000000000815260040161197d906136af565b60405180910390fd5b61198f81611e2f565b156119cf576040517f08c379a00000000000000000000000000000000000000000000000000000000081526004016119c69061371b565b60405180910390fd5b6119db60008383611e9b565b6001600460008473ffffffffffffffffffffffffffffffffffffffff1673ffffffffffffffffffffffffffffffffffffffff1681526020019081526020016000206000828254611a2b919061360d565b92505081905550816003600083815260200190815260200160002060006101000a81548173ffffffffffffffffffffffffffffffffffffffff021916908373ffffffffffffffffffffffffffffffffffffffff160217905550808273ffffffffffffffffffffffffffffffffffffffff16600073ffffffffffffffffffffffffffffffffffffffff167fddf252ad1be2c89b69c2b068fc378daa952ba7f163c4a11628f55a4df523b3ef60405160405180910390a4611aec60008383611ea0565b5050565b8173ffffffffffffffffffffffffffffffffffffffff168373ffffffffffffffffffffffffffffffffffffffff1603611b5e576040517f08c379a0000000000000000000000000000000000000000000000000000000008152600401611b5590613787565b60405180910390fd5b80600660008573ffffffffffffffffffffffffffffffffffffffff1673ffffffffffffffffffffffffffffffffffffffff16815260200190815260200160002060008473ffffffffffffffffffffffffffffffffffffffff1673ffffffffffffffffffffffffffffffffffffffff16815260200190815260200160002060006101000a81548160ff0219169083151502179055508173ffffffffffffffffffffffffffffffffffffffff168373ffffffffffffffffffffffffffffffffffffffff167f17307eab39ab6107e8899845ad3d59bd9653f200f220920489ca2b5937696c3183604051611c4f9190612103565b60405180910390a3505050565b611c678484846116b1565b611c7384848484611ea5565b611cb2576040517f08c379a0000000000000000000000000000000000000000000000000000000008152600401611ca990613819565b60405180910390fd5b50505050565b606060405180602001604052806000815250905090565b606060008203611d16576040518060400160405280600181526020017f30000000000000000000000000000000000000000000000000000000000000008152509050611e2a565b600082905060005b60008214611d48578080611d31906132f6565b915050600a82611d419190613868565b9150611d1e565b60008167ffffffffffffffff811115611d6457611d6361284f565b5b6040519080825280601f01601f191660200182016040528015611d965781602001600182028036833780820191505090505b5090505b60008514611e2357600182611daf91906135d9565b9150600a85611dbe9190613899565b6030611dca919061360d565b60f81b818381518110611de057611ddf6131c0565b5b60200101907effffffffffffffffffffffffffffffffffffffffffffffffffffffffffffff1916908160001a905350600a85611e1c9190613868565b9450611d9a565b8093505050505b919050565b60008073ffffffffffffffffffffffffffffffffffffffff166003600084815260200190815260200160002060009054906101000a900473ffffffffffffffffffffffffffffffffffffffff1673ffffffffffffffffffffffffffffffffffffffff1614159050919050565b505050565b505050565b6000611ec68473ffffffffffffffffffffffffffffffffffffffff1661202c565b1561201f578373ffffffffffffffffffffffffffffffffffffffff1663150b7a02611eef61155b565b8786866040518563ffffffff1660e01b8152600401611f1194939291906138ca565b6020604051808303816000875af1925050508015611f4d57506040513d601f19601f82011682018060405250810190611f4a919061392b565b60015b611fcf573d8060008114611f7d576040519150601f19603f3d011682016040523d82523d6000602084013e611f82565b606091505b506000815103611fc7576040517f08c379a0000000000000000000000000000000000000000000000000000000008152600401611fbe90613819565b60405180910390fd5b805181602001fd5b63150b7a0260e01b7bffffffffffffffffffffffffffffffffffffffffffffffffffffffff1916817bffffffffffffffffffffffffffffffffffffffffffffffffffffffff191614915050612024565b600190505b949350505050565b6000808273ffffffffffffffffffffffffffffffffffffffff163b119050919050565b6000604051905090565b600080fd5b600080fd5b60007fffffffff0000000000000000000000000000000000000000000000000000000082169050919050565b61209881612063565b81146120a357600080fd5b50565b6000813590506120b58161208f565b92915050565b6000602082840312156120d1576120d0612059565b5b60006120df848285016120a6565b91505092915050565b60008115159050919050565b6120fd816120e8565b82525050565b600060208201905061211860008301846120f4565b92915050565b600081519050919050565b600082825260208201905092915050565b60005b8381101561215857808201518184015260208101905061213d565b83811115612167576000848401525b50505050565b6000601f19601f8301169050919050565b60006121898261211e565b6121938185612129565b93506121a381856020860161213a565b6121ac8161216d565b840191505092915050565b600060208201905081810360008301526121d1818461217e565b905092915050565b6000819050919050565b6121ec816121d9565b81146121f757600080fd5b50565b600081359050612209816121e3565b92915050565b60006020828403121561222557612224612059565b5b6000612233848285016121fa565b91505092915050565b600073ffffffffffffffffffffffffffffffffffffffff82169050919050565b60006122678261223c565b9050919050565b6122778161225c565b82525050565b6000602082019050612292600083018461226e565b92915050565b6122a18161225c565b81146122ac57600080fd5b50565b6000813590506122be81612298565b92915050565b600080604083850312156122db576122da612059565b5b60006122e9858286016122af565b92505060206122fa858286016121fa565b9150509250929050565b60008060006060848603121561231d5761231c612059565b5b600061232b868287016122af565b935050602061233c868287016122af565b925050604061234d868287016121fa565b9150509250925092565b6000819050919050565b600061237c6123776123728461223c565b612357565b61223c565b9050919050565b600061238e82612361565b9050919050565b60006123a082612383565b9050919050565b6123b081612395565b82525050565b60006020820190506123cb60008301846123a7565b92915050565b6000819050919050565b6123e4816123d1565b81146123ef57600080fd5b50565b600081359050612401816123db565b92915050565b60006fffffffffffffffffffffffffffffffff82169050919050565b61242c81612407565b811461243757600080fd5b50565b60008135905061244981612423565b92915050565b600063ffffffff82169050919050565b6124688161244f565b811461247357600080fd5b50565b6000813590506124858161245f565b92915050565b60006bffffffffffffffffffffffff82169050919050565b6124ac8161248b565b81146124b757600080fd5b50565b6000813590506124c9816124a3565b92915050565b600061ffff82169050919050565b6124e6816124cf565b81146124f157600080fd5b50565b600081359050612503816124dd565b92915050565b600080600080600080600060e0888a03121561252857612527612059565b5b60006125368a828b016121fa565b97505060206125478a828b016123f2565b96505060406125588a828b0161243a565b95505060606125698a828b01612476565b945050608061257a8a828b016124ba565b93505060a061258b8a828b016124f4565b92505060c061259c8a828b016124ba565b91505092959891949750929550565b600080604083850312156125c2576125c1612059565b5b60006125d0858286016121fa565b92505060206125e1858286016121fa565b9150509250929050565b6125f4816123d1565b82525050565b600060208201905061260f60008301846125eb565b92915050565b61261e816121d9565b82525050565b60006020820190506126396000830184612615565b92915050565b60008060008060008060c0878903121561265c5761265b612059565b5b600061266a89828a016123f2565b965050602061267b89828a0161243a565b955050604061268c89828a01612476565b945050606061269d89828a016124ba565b93505060806126ae89828a016124f4565b92505060a06126bf89828a016124ba565b9150509295509295509295565b600081519050919050565b600082825260208201905092915050565b6000819050602082019050919050565b612701816123d1565b82525050565b600061271383836126f8565b60208301905092915050565b6000602082019050919050565b6000612737826126cc565b61274181856126d7565b935061274c836126e8565b8060005b8381101561277d5781516127648882612707565b975061276f8361271f565b925050600181019050612750565b5085935050505092915050565b600060208201905081810360008301526127a4818461272c565b905092915050565b6000602082840312156127c2576127c1612059565b5b60006127d0848285016122af565b91505092915050565b6127e2816120e8565b81146127ed57600080fd5b50565b6000813590506127ff816127d9565b92915050565b6000806040838503121561281c5761281b612059565b5b600061282a858286016122af565b925050602061283b858286016127f0565b9150509250929050565b600080fd5b600080fd5b7f4e487b7100000000000000000000000000000000000000000000000000000000600052604160045260246000fd5b6128878261216d565b810181811067ffffffffffffffff821117156128a6576128a561284f565b5b80604052505050565b60006128b961204f565b90506128c5828261287e565b919050565b600067ffffffffffffffff8211156128e5576128e461284f565b5b6128ee8261216d565b9050602081019050919050565b82818337600083830152505050565b600061291d612918846128ca565b6128af565b9050828152602081018484840111156129395761293861284a565b5b6129448482856128fb565b509392505050565b600082601f83011261296157612960612845565b5b813561297184826020860161290a565b91505092915050565b6000806000806080858703121561299457612993612059565b5b60006129a2878288016122af565b94505060206129b3878288016122af565b93505060406129c4878288016121fa565b925050606085013567ffffffffffffffff8111156129e5576129e461205e565b5b6129f18782880161294c565b91505092959194509250565b60008060408385031215612a1457612a13612059565b5b6000612a22858286016122af565b9250506020612a33858286016122af565b9150509250929050565b7f4e487b7100000000000000000000000000000000000000000000000000000000600052602260045260246000fd5b60006002820490506001821680612a8457607f821691505b602082108103612a9757612a96612a3d565b5b50919050565b7f4552433732313a20617070726f76616c20746f2063757272656e74206f776e6560008201527f7200000000000000000000000000000000000000000000000000000000000000602082015250565b6000612af9602183612129565b9150612b0482612a9d565b604082019050919050565b60006020820190508181036000830152612b2881612aec565b9050919050565b7f4552433732313a20617070726f76652063616c6c6572206973206e6f7420746f60008201527f6b656e206f776e6572206e6f7220617070726f76656420666f7220616c6c0000602082015250565b6000612b8b603e83612129565b9150612b9682612b2f565b604082019050919050565b60006020820190508181036000830152612bba81612b7e565b9050919050565b7f4552433732313a2063616c6c6572206973206e6f7420746f6b656e206f776e6560008201527f72206e6f7220617070726f766564000000000000000000000000000000000000602082015250565b6000612c1d602e83612129565b9150612c2882612bc1565b604082019050919050565b60006020820190508181036000830152612c4c81612c10565b9050919050565b600081519050612c6281612298565b92915050565b600060208284031215612c7e57612c7d612059565b5b6000612c8c84828501612c53565b91505092915050565b7f4f6e6c79206f776e65722063616e2075706461746520616e2061737365740000600082015250565b6000612ccb601e83612129565b9150612cd682612c95565b602082019050919050565b60006020820190508181036000830152612cfa81612cbe565b9050919050565b7f617373657274696f6e49642063616e6e6f742062652030000000000000000000600082015250565b6000612d37601783612129565b9150612d4282612d01565b602082019050919050565b60006020820190508181036000830152612d6681612d2a565b9050919050565b7f53697a652063616e6e6f74206265203000000000000000000000000000000000600082015250565b6000612da3601083612129565b9150612dae82612d6d565b602082019050919050565b60006020820190508181036000830152612dd281612d96565b9050919050565b7f45706f636873206e756d6265722063616e6e6f74206265203000000000000000600082015250565b6000612e0f601983612129565b9150612e1a82612dd9565b602082019050919050565b60006020820190508181036000830152612e3e81612e02565b9050919050565b7f546f6b656e20616d6f756e742063616e6e6f7420626520300000000000000000600082015250565b6000612e7b601883612129565b9150612e8682612e45565b602082019050919050565b60006020820190508181036000830152612eaa81612e6e565b9050919050565b7f417373657274696f6e5265676973747279000000000000000000000000000000600082015250565b6000612ee7601183612129565b9150612ef282612eb1565b602082019050919050565b60006020820190508181036000830152612f1681612eda565b9050919050565b612f2681612407565b82525050565b612f358161244f565b82525050565b612f448161248b565b82525050565b600060a082019050612f5f60008301886125eb565b612f6c602083018761226e565b612f796040830186612f1d565b612f866060830185612f2c565b612f936080830184612f3b565b9695505050505050565b7f5365727669636541677265656d656e7453746f72616765000000000000000000600082015250565b6000612fd3601783612129565b9150612fde82612f9d565b602082019050919050565b6000602082019050818103600083015261300281612fc6565b9050919050565b60008160601b9050919050565b600061302182613009565b9050919050565b600061303382613016565b9050919050565b61304b6130468261225c565b613028565b82525050565b6000819050919050565b61306c613067826121d9565b613051565b82525050565b600061307e828561303a565b60148201915061308e828461305b565b6020820191508190509392505050565b600081519050919050565b600082825260208201905092915050565b60006130c58261309e565b6130cf81856130a9565b93506130df81856020860161213a565b6130e88161216d565b840191505092915050565b6000819050919050565b600060ff82169050919050565b600061312561312061311b846130f3565b612357565b6130fd565b9050919050565b6131358161310a565b82525050565b613144816124cf565b82525050565b600060e08201905061315f600083018a61226e565b61316c602083018961226e565b6131796040830188612615565b818103606083015261318b81876130ba565b905061319a608083018661312c565b6131a760a083018561313b565b6131b460c0830184612f3b565b98975050505050505050565b7f4e487b7100000000000000000000000000000000000000000000000000000000600052603260045260246000fd5b7f4552433732313a20696e76616c696420746f6b656e2049440000000000000000600082015250565b6000613225601883612129565b9150613230826131ef565b602082019050919050565b6000602082019050818103600083015261325481613218565b9050919050565b7f617373657274696f6e49642063616e6e6f7420626520656d7074790000000000600082015250565b6000613291601b83612129565b915061329c8261325b565b602082019050919050565b600060208201905081810360008301526132c081613284565b9050919050565b7f4e487b7100000000000000000000000000000000000000000000000000000000600052601160045260246000fd5b6000613301826121d9565b91507fffffffffffffffffffffffffffffffffffffffffffffffffffffffffffffffff8203613333576133326132c7565b5b600182019050919050565b600061010082019050613354600083018b61226e565b613361602083018a61226e565b61336e6040830189612615565b818103606083015261338081886130ba565b905061338f608083018761312c565b61339c60a083018661313b565b6133a960c0830185612f3b565b6133b660e083018461312c565b9998505050505050505050565b7f4552433732313a2061646472657373207a65726f206973206e6f74206120766160008201527f6c6964206f776e65720000000000000000000000000000000000000000000000602082015250565b600061341f602983612129565b915061342a826133c3565b604082019050919050565b6000602082019050818103600083015261344e81613412565b9050919050565b600081905092915050565b600061346b8261211e565b6134758185613455565b935061348581856020860161213a565b80840191505092915050565b600061349d8285613460565b91506134a98284613460565b91508190509392505050565b7f4552433732313a207472616e736665722066726f6d20696e636f72726563742060008201527f6f776e6572000000000000000000000000000000000000000000000000000000602082015250565b6000613511602583612129565b915061351c826134b5565b604082019050919050565b6000602082019050818103600083015261354081613504565b9050919050565b7f4552433732313a207472616e7366657220746f20746865207a65726f2061646460008201527f7265737300000000000000000000000000000000000000000000000000000000602082015250565b60006135a3602483612129565b91506135ae82613547565b604082019050919050565b600060208201905081810360008301526135d281613596565b9050919050565b60006135e4826121d9565b91506135ef836121d9565b925082821015613602576136016132c7565b5b828203905092915050565b6000613618826121d9565b9150613623836121d9565b9250827fffffffffffffffffffffffffffffffffffffffffffffffffffffffffffffffff03821115613658576136576132c7565b5b828201905092915050565b7f4552433732313a206d696e7420746f20746865207a65726f2061646472657373600082015250565b6000613699602083612129565b91506136a482613663565b602082019050919050565b600060208201905081810360008301526136c88161368c565b9050919050565b7f4552433732313a20746f6b656e20616c7265616479206d696e74656400000000600082015250565b6000613705601c83612129565b9150613710826136cf565b602082019050919050565b60006020820190508181036000830152613734816136f8565b9050919050565b7f4552433732313a20617070726f766520746f2063616c6c657200000000000000600082015250565b6000613771601983612129565b915061377c8261373b565b602082019050919050565b600060208201905081810360008301526137a081613764565b9050919050565b7f4552433732313a207472616e7366657220746f206e6f6e20455243373231526560008201527f63656976657220696d706c656d656e7465720000000000000000000000000000602082015250565b6000613803603283612129565b915061380e826137a7565b604082019050919050565b60006020820190508181036000830152613832816137f6565b9050919050565b7f4e487b7100000000000000000000000000000000000000000000000000000000600052601260045260246000fd5b6000613873826121d9565b915061387e836121d9565b92508261388e5761388d613839565b5b828204905092915050565b60006138a4826121d9565b91506138af836121d9565b9250826138bf576138be613839565b5b828206905092915050565b60006080820190506138df600083018761226e565b6138ec602083018661226e565b6138f96040830185612615565b818103606083015261390b81846130ba565b905095945050505050565b6000815190506139258161208f565b92915050565b60006020828403121561394157613940612059565b5b600061394f84828501613916565b9150509291505056fea2646970667358221220f6bc471c942b375f0f3127c72941dd6765e28c2567adb5fbb30c645141cf875064736f6c634300080e0033",
  "immutableReferences": {},
  "source": "// SPDX-License-Identifier: MIT\n\npragma solidity ^0.8.0;\n\nimport { AbstractAsset } from \"./AbstractAsset.sol\";\nimport { AssertionRegistry } from \"../AssertionRegistry.sol\";\nimport { ERC721 } from \"@openzeppelin/contracts/token/ERC721/ERC721.sol\";\nimport { IERC20 } from \"@openzeppelin/contracts/token/ERC20/IERC20.sol\";\nimport { ServiceAgreementStorage } from \"../storage/ServiceAgreementStorage.sol\";\n\ncontract ContentAsset is AbstractAsset, ERC721 {\n    struct AssetRecord {\n        bytes32[] assertions;\n    }\n\n    uint256 private _tokenId;\n\n    mapping (uint256 => AssetRecord) assetRecords;\n\n    constructor(address hubAddress)\n        AbstractAsset(hubAddress)\n        ERC721(\"ContentAsset\", \"DKG\")\n    {\n        _tokenId = 0;\n    }\n\n    function createAsset(\n        bytes32 assertionId,\n        uint128 size,\n        uint32 triplesNumber,\n        uint96 chunksNumber,\n        uint16 epochsNumber,\n        uint96 tokenAmount\n    )\n        public\n        returns (uint256)\n    {\n        require(assertionId != bytes32(0), \"assertionId cannot be empty\");\n        require(size > 0, \"Size cannot be 0\");\n        require(epochsNumber > 0, \"Epochs number cannot be 0\");\n        require(tokenAmount > 0, \"Token amount cannot be 0\");\n\n        uint256 tokenId = _tokenId;\n        _mint(msg.sender, tokenId);\n        _tokenId++;\n\n        AssertionRegistry(hub.getContractAddress(\"AssertionRegistry\")).createAssertionRecord(\n            assertionId,\n            msg.sender,\n            size,\n            triplesNumber,\n            chunksNumber\n        );\n        assetRecords[tokenId].assertions.push(assertionId);\n\n        ServiceAgreementStorage(hub.getContractAddress(\"ServiceAgreementStorage\")).createServiceAgreement(\n            msg.sender,\n            address(this),\n            tokenId,\n            abi.encodePacked(address(this), tokenId),\n            0,\n            epochsNumber,\n            tokenAmount,\n            0\n        );\n\n        emit AssetCreated(address(this), tokenId, assertionId);\n\n        return tokenId;\n    }\n\n    function updateAsset(\n        uint256 tokenId,\n        bytes32 assertionId,\n        uint128 size,\n        uint32 triplesNumber,\n        uint96 chunksNumber,\n        uint16 epochsNumber,\n        uint96 tokenAmount\n    )\n        public\n    {\n        require(msg.sender == this.ownerOf(tokenId), \"Only owner can update an asset\");\n        require(assertionId != bytes32(0), \"assertionId cannot be 0\");\n        require(size > 0, \"Size cannot be 0\");\n        require(epochsNumber > 0, \"Epochs number cannot be 0\");\n        require(tokenAmount > 0, \"Token amount cannot be 0\");\n        \n        AssertionRegistry(hub.getContractAddress(\"AssertionRegistry\")).createAssertionRecord(\n            assertionId,\n            msg.sender,\n            size,\n            triplesNumber,\n            chunksNumber\n        );\n        assetRecords[tokenId].assertions.push(assertionId);\n\n        ServiceAgreementStorage(hub.getContractAddress(\"ServiceAgreementStorage\")).updateServiceAgreement(\n            msg.sender,\n            address(this),\n            tokenId,\n            abi.encodePacked(address(this), tokenId),\n            0,\n            epochsNumber,\n            tokenAmount\n        );\n\n        emit AssetUpdated(address(this), tokenId, assertionId);\n    }\n\n    function getAssertions(uint256 tokenId)\n        override\n        public\n        view\n        returns (bytes32 [] memory)\n    {\n        return assetRecords[tokenId].assertions;\n    }\n}\n",
  "sourcePath": "/Users/waving/Desktop/OriginTrail/dkg-evm-module/contracts/assets/ContentAsset.sol",
  "compiler": {
    "name": "solc",
    "version": "0.8.14+commit.80d49f37.Emscripten.clang"
  },
  "schemaVersion": "3.4.10",
  "updatedAt": "2022-11-17T10:56:58.998Z",
  "devdoc": {
    "kind": "dev",
    "methods": {
      "approve(address,uint256)": {
        "details": "See {IERC721-approve}."
      },
      "balanceOf(address)": {
        "details": "See {IERC721-balanceOf}."
      },
      "getApproved(uint256)": {
        "details": "See {IERC721-getApproved}."
      },
      "isApprovedForAll(address,address)": {
        "details": "See {IERC721-isApprovedForAll}."
      },
      "name()": {
        "details": "See {IERC721Metadata-name}."
      },
      "ownerOf(uint256)": {
        "details": "See {IERC721-ownerOf}."
      },
      "safeTransferFrom(address,address,uint256)": {
        "details": "See {IERC721-safeTransferFrom}."
      },
      "safeTransferFrom(address,address,uint256,bytes)": {
        "details": "See {IERC721-safeTransferFrom}."
      },
      "setApprovalForAll(address,bool)": {
        "details": "See {IERC721-setApprovalForAll}."
      },
      "supportsInterface(bytes4)": {
        "details": "See {IERC165-supportsInterface}."
      },
      "symbol()": {
        "details": "See {IERC721Metadata-symbol}."
      },
      "tokenURI(uint256)": {
        "details": "See {IERC721Metadata-tokenURI}."
      },
      "transferFrom(address,address,uint256)": {
        "details": "See {IERC721-transferFrom}."
      }
    },
    "version": 1
  },
  "userdoc": {
    "kind": "user",
    "methods": {},
    "version": 1
  }
}