{
  "contractName": "Guardian",
  "abi": [
    {
      "inputs": [
        {
          "internalType": "address",
          "name": "hubAddress",
          "type": "address"
        }
      ],
      "stateMutability": "nonpayable",
      "type": "constructor"
    },
    {
      "anonymous": false,
      "inputs": [
        {
          "indexed": true,
          "internalType": "address",
          "name": "custodian",
          "type": "address"
        },
        {
          "indexed": false,
          "internalType": "uint256",
          "name": "amount",
          "type": "uint256"
        }
      ],
      "name": "MisplacedOTPWithdrawn",
      "type": "event"
    },
    {
      "anonymous": false,
      "inputs": [
        {
          "indexed": true,
          "internalType": "address",
          "name": "custodian",
          "type": "address"
        },
        {
          "indexed": false,
          "internalType": "address",
          "name": "tokenContract",
          "type": "address"
        },
        {
          "indexed": false,
          "internalType": "uint256",
          "name": "amount",
          "type": "uint256"
        }
      ],
      "name": "MisplacedTokensWithdrawn",
      "type": "event"
    },
    {
      "anonymous": false,
      "inputs": [
        {
          "indexed": true,
          "internalType": "address",
          "name": "custodian",
          "type": "address"
        },
        {
          "indexed": false,
          "internalType": "uint256",
          "name": "amount",
          "type": "uint256"
        }
      ],
      "name": "TokenTransferred",
      "type": "event"
    },
    {
      "inputs": [],
      "name": "hub",
      "outputs": [
        {
          "internalType": "contract Hub",
          "name": "",
          "type": "address"
        }
      ],
      "stateMutability": "view",
      "type": "function"
    },
    {
      "inputs": [],
      "name": "tokenContract",
      "outputs": [
        {
          "internalType": "contract IERC20",
          "name": "",
          "type": "address"
        }
      ],
      "stateMutability": "view",
      "type": "function"
    },
    {
      "inputs": [],
      "name": "initialize",
      "outputs": [],
      "stateMutability": "nonpayable",
      "type": "function"
    },
    {
      "inputs": [
        {
          "internalType": "address payable",
          "name": "custodian",
          "type": "address"
        }
      ],
      "name": "transferTokens",
      "outputs": [],
      "stateMutability": "nonpayable",
      "type": "function"
    },
    {
      "inputs": [],
      "name": "withdrawMisplacedOTP",
      "outputs": [],
      "stateMutability": "nonpayable",
      "type": "function"
    },
    {
      "inputs": [
        {
          "internalType": "address",
          "name": "tokenContractAddress",
          "type": "address"
        }
      ],
      "name": "withdrawMisplacedTokens",
      "outputs": [],
      "stateMutability": "nonpayable",
      "type": "function"
    }
  ],
  "bytecode": "0x608060409080825234620001985762000bc380380380916200002282856200019d565b83396001600160a01b039182916200003e9190810190620001d7565b169081156200019857600080546001600160a01b0319908116841782558451638da5cb5b60e01b815290936020918281600481855afa9081156200018e5790859185916200016c575b501633036200012a579080606492875193848092630110ceef60e21b825284600483015260056024830152642a37b5b2b760d91b60448301525afa9283156200011f5792620000eb575b505016906001541617600155516109ca9081620001f98239f35b6200010f9250803d1062000117575b6200010681836200019d565b810190620001d7565b3880620000d1565b503d620000fa565b8651903d90823e3d90fd5b60648287519062461bcd60e51b825280600483015260248201527f466e2063616e206f6e6c79206265207573656420627920687562206f776e65726044820152fd5b620001879150843d861162000117576200010681836200019d565b3862000087565b87513d86823e3d90fd5b600080fd5b601f909101601f19168101906001600160401b03821190821017620001c157604052565b634e487b7160e01b600052604160045260246000fd5b908160209103126200019857516001600160a01b038116810362000198579056fe6040608081526004908136101561001557600080fd5b600091823560e01c80630c89a0df14610473578063365a86fc1461044b57806355a373d61461041e5780636ce1510e1461033c5780638129fc1c1461027157639d7937b21461006357600080fd5b3461026d57602080600319360112610269578135916001600160a01b038084169290838503610204576100946108c9565b60015416831461020f5784516370a0823160e01b81523083820152928184602481845afa9384156101d25787946101dc575b5083610110575b505083516001600160a01b0393909316835250602082015233907f5fe8cbe5f97c59a4b590a924c3fc62aac6b6a653ec22e39f5fc6d3732f18c25490604090a251f35b855163a9059cbb60e01b815233848201908152602081018690529091839183919082908b90829060400103925af19081156101d25787916101a5575b501561015857806100cd565b845162461bcd60e51b815291820152602260248201527f546f6b656e207472616e73616374696f6e20657865637574696f6e206661696c604482015261195960f21b606482015260849150fd5b6101c59150823d84116101cb575b6101bd8183610860565b8101906108b1565b3861014c565b503d6101b3565b86513d89823e3d90fd5b9093508181813d8311610208575b6101f48183610860565b81010312610204575192386100c6565b8680fd5b503d6101ea565b845162461bcd60e51b815291820152602f60248201527f43616e6e6f742075736520746869732066756e6374696f6e207769746820746860448201526e194815149050c818dbdb9d1c9858dd608a1b606482015260849150fd5b8380fd5b8280fd5b503461026d578260031936011261026d5761028a6108c9565b82548251630110ceef60e21b8152602092810183905260056024820152642a37b5b2b760d91b60448201526001600160a01b039290918290606490829086165afa90811561032f5784916102f6575b50166bffffffffffffffffffffffff60a01b600154161760015551f35b90506020813d8211610327575b8161031060209383610860565b810103126102695761032190610898565b386102d9565b3d9150610303565b50505051903d90823e3d90fd5b503461026d578260031936011261026d576103556108c9565b47908161038c575b5081519081527fd32ec2b96f6389848e3f68f670160bf5a50b5024b6f62a61108f20025179a29160203392a251f35b838080855185335af13d15610419573d67ffffffffffffffff8111610406578451906103c2601f8201601f191660200183610860565b81528560203d92013e5b61035d57606490602084519162461bcd60e51b8352820152601060248201526f2a3930b739b332b9103330b4b632b21760811b6044820152fd5b634e487b7160e01b865260418352602486fd5b6103cc565b50503461044757816003193601126104475760015490516001600160a01b039091168152602090f35b5080fd5b505034610447578160031936011261044757905490516001600160a01b039091168152602090f35b503461026d576020806003193601126102695781356001600160a01b038181169391848103610204576104a46108c9565b8415610812573b156107aa57845163a0e67e2b60e01b8152869081818581895afa8891816106f1575b50610678575b50156106105760015416908585516370a0823160e01b815230838201528481602481875afa93841561060657859183956105d5575b50604488518094819363a9059cbb60e01b83528a888401528860248401525af19081156101d25787916105b8575b50156105695750907fefed6b8d78a916dbd402a323824ae4454c9214b8f3d05fa85b3bb7f30dc25c06918451908152a251f35b845162461bcd60e51b8152908101839052602360248201527f546f6b656e207472616e73616374696f6e20657865637574696f6e206661696c60448201526265642160e81b6064820152608490fd5b6105cf9150843d86116101cb576101bd8183610860565b38610536565b8281939296503d83116105ff575b6105ed8183610860565b81010312610447578490519338610508565b503d6105e3565b87513d84823e3d90fd5b5060849184519162461bcd60e51b8352820152603f60248201527f43616e6e6f74207472616e7366657220746f6b656e7320746f20637573746f6460448201527f69616e20776974686f7574206765744f776e6572732066756e6374696f6e21006064820152fd5b51600191501561068857386104d3565b855162461bcd60e51b8152808401859052603b60248201527f43616e6e6f74207472616e7366657220746f6b656e7320746f20637573746f6460448201527f69616e20776974686f7574206f776e65727320646566696e65642100000000006064820152608490fd5b9091503d808a833e6107038183610860565b810186828203126107a657815167ffffffffffffffff9283821161078b570181601f820112156107a257805192831161078f578260051b908a519361074a8a840186610860565b8452888085019282010192831161078b5788809101915b838310610773575050505090386104cd565b819061077e84610898565b8152019101908890610761565b8b80fd5b634e487b7160e01b8b526041875260248bfd5b8a80fd5b8980fd5b5060849184519162461bcd60e51b8352820152603b60248201527f43616e6e6f74207472616e7366657220746f6b656e7320746f20637573746f6460448201527f69616e2074686174206973206e6f74206120636f6e74726163742100000000006064820152fd5b855162461bcd60e51b8152808401859052602260248201527f437573746f6469616e2063616e6e6f742062652061207a65726f206164647265604482015261737360f01b6064820152608490fd5b90601f8019910116810190811067ffffffffffffffff82111761088257604052565b634e487b7160e01b600052604160045260246000fd5b51906001600160a01b03821682036108ac57565b600080fd5b908160209103126108ac575180151581036108ac5790565b600054604051638da5cb5b60e01b81526020916001600160a01b03919083908290600490829086165afa90811561098857600091610950575b5016330361090d5750565b6064906040519062461bcd60e51b825280600483015260248201527f466e2063616e206f6e6c79206265207573656420627920687562206f776e65726044820152fd5b908382813d8311610981575b6109668183610860565b8101031261097e575061097890610898565b38610902565b80fd5b503d61095c565b6040513d6000823e3d90fdfea2646970667358221220bc80f76457c253c813faa98293513ccaef9d5775088676cb0b63c3d0489df0de64736f6c63430008100033",
  "immutableReferences": {},
  "source": "// SPDX-License-Identifier: MIT\n\npragma solidity ^0.8.4;\n\nimport { Hub } from \"./Hub.sol\";\nimport { ICustodian } from \"./interface/ICustodian.sol\";\nimport { IERC20 } from \"@openzeppelin/contracts/token/ERC20/IERC20.sol\";\n\ncontract Guardian {\n\n    event TokenTransferred(address indexed custodian, uint256 amount);\n    event MisplacedOTPWithdrawn(address indexed custodian, uint256 amount);\n    event MisplacedTokensWithdrawn(address indexed custodian, address tokenContract, uint256 amount);\n\n    Hub public hub;\n    IERC20 public tokenContract;\n\n    constructor(address hubAddress) {\n        require(hubAddress != address(0));\n\n        hub = Hub(hubAddress);\n        initialize();\n    }\n\n    modifier onlyHubOwner() {\n        _checkHubOwner();\n        _;\n    }\n\n    function initialize() public onlyHubOwner {\n        tokenContract = IERC20(hub.getContractAddress(\"Token\")); \n    }\n\n    function transferTokens(address payable custodian) external onlyHubOwner {\n        require(custodian != address(0x0), \"Custodian cannot be a zero address\");\n        uint contractSize;\n        assembly { contractSize := extcodesize(custodian) }\n        require(contractSize > 0, \"Cannot transfer tokens to custodian that is not a contract!\");\n\n        ICustodian custodianContract = ICustodian(custodian);\n        bool hasOwnersFunction = false;\n        try custodianContract.getOwners() returns (address[] memory owners) {\n            hasOwnersFunction = true;\n            require(owners.length > 0, \"Cannot transfer tokens to custodian without owners defined!\");\n        } catch {}\n        require(hasOwnersFunction, \"Cannot transfer tokens to custodian without getOwners function!\");\n\n        uint256 balanceTransferred = tokenContract.balanceOf(address(this));\n        bool transactionResult = tokenContract.transfer(custodian, balanceTransferred);\n        require(transactionResult, \"Token transaction execution failed!\");\n\n        emit TokenTransferred(custodian, balanceTransferred);\n    }\n\n    function withdrawMisplacedOTP() external onlyHubOwner {\n        uint256 balance = address(this).balance;\n        if (balance > 0) {\n            (bool success, ) = msg.sender.call{value: balance}(\"\");\n            require(success, \"Transfer failed.\");\n        }\n        emit MisplacedOTPWithdrawn(msg.sender, balance);\n    }\n\n    function withdrawMisplacedTokens(address tokenContractAddress) external onlyHubOwner {\n        require(tokenContractAddress != address(tokenContract), \"Cannot use this function with the TRAC contract\");\n        IERC20 misplacedTokensContract = IERC20(tokenContractAddress);\n\n        uint256 balance = misplacedTokensContract.balanceOf(address(this));\n        if (balance > 0) {\n            bool transactionResult = misplacedTokensContract.transfer(msg.sender, balance);\n            require(transactionResult, \"Token transaction execution failed\");\n        }\n        emit MisplacedTokensWithdrawn(msg.sender, tokenContractAddress, balance);\n    }\n\n    function _checkHubOwner() internal view virtual {\n        require(msg.sender == hub.owner(), \"Fn can only be used by hub owner\");\n    }\n\n}\n",
  "sourcePath": "/Users/waving/Desktop/OriginTrail/dkg-evm-module/contracts/Guardian.sol",
  "compiler": {
    "name": "solc",
    "version": "0.8.16+commit.07a7930e.Emscripten.clang"
  },
  "schemaVersion": "3.4.10",
  "updatedAt": "2022-12-12T09:47:52.071Z",
  "devdoc": {
    "kind": "dev",
    "methods": {},
    "version": 1
  },
  "userdoc": {
    "kind": "user",
    "methods": {},
    "version": 1
  }
}