{
  "contractName": "HashingProxy",
  "abi": [
    {
      "anonymous": false,
      "inputs": [
        {
          "indexed": true,
          "internalType": "uint8",
          "name": "hashingFunctionId",
          "type": "uint8"
        },
        {
          "indexed": false,
          "internalType": "address",
          "name": "newContractAddress",
          "type": "address"
        }
      ],
      "name": "HashingFunctionContractChanged",
      "type": "event"
    },
    {
      "anonymous": false,
      "inputs": [
        {
          "indexed": true,
          "internalType": "uint8",
          "name": "hashingFunctionId",
          "type": "uint8"
        },
        {
          "indexed": false,
          "internalType": "address",
          "name": "newContractAddress",
          "type": "address"
        }
      ],
      "name": "NewHashingFunctionContract",
      "type": "event"
    },
    {
      "anonymous": false,
      "inputs": [
        {
          "indexed": true,
          "internalType": "address",
          "name": "previousOwner",
          "type": "address"
        },
        {
          "indexed": true,
          "internalType": "address",
          "name": "newOwner",
          "type": "address"
        }
      ],
      "name": "OwnershipTransferred",
      "type": "event"
    },
    {
      "inputs": [
        {
          "internalType": "uint8",
          "name": "",
          "type": "uint8"
        }
      ],
      "name": "functions",
      "outputs": [
        {
          "internalType": "address",
          "name": "",
          "type": "address"
        }
      ],
      "stateMutability": "view",
      "type": "function"
    },
    {
      "inputs": [],
      "name": "owner",
      "outputs": [
        {
          "internalType": "address",
          "name": "",
          "type": "address"
        }
      ],
      "stateMutability": "view",
      "type": "function"
    },
    {
      "inputs": [],
      "name": "renounceOwnership",
      "outputs": [],
      "stateMutability": "nonpayable",
      "type": "function"
    },
    {
      "inputs": [
        {
          "internalType": "address",
          "name": "newOwner",
          "type": "address"
        }
      ],
      "name": "transferOwnership",
      "outputs": [],
      "stateMutability": "nonpayable",
      "type": "function"
    },
    {
      "inputs": [
        {
          "internalType": "uint8",
          "name": "hashingFunctionId",
          "type": "uint8"
        },
        {
          "internalType": "bytes",
          "name": "data",
          "type": "bytes"
        }
      ],
      "name": "callHashingFunction",
      "outputs": [
        {
          "internalType": "bytes32",
          "name": "",
          "type": "bytes32"
        }
      ],
      "stateMutability": "nonpayable",
      "type": "function"
    },
    {
      "inputs": [
        {
          "internalType": "uint8",
          "name": "hashingFunctionId",
          "type": "uint8"
        }
      ],
      "name": "getHashingFunctionName",
      "outputs": [
        {
          "internalType": "string",
          "name": "",
          "type": "string"
        }
      ],
      "stateMutability": "view",
      "type": "function"
    },
    {
      "inputs": [
        {
          "internalType": "uint8",
          "name": "hashingFunctionId",
          "type": "uint8"
        },
        {
          "internalType": "address",
          "name": "hashingContractAddress",
          "type": "address"
        }
      ],
      "name": "setContractAddress",
      "outputs": [],
      "stateMutability": "nonpayable",
      "type": "function"
    }
  ],
  "bytecode": "0x608060405234801561001057600080fd5b5061002d61002261003260201b60201c565b61003a60201b60201c565b6100fe565b600033905090565b60008060009054906101000a900473ffffffffffffffffffffffffffffffffffffffff169050816000806101000a81548173ffffffffffffffffffffffffffffffffffffffff021916908373ffffffffffffffffffffffffffffffffffffffff1602179055508173ffffffffffffffffffffffffffffffffffffffff168173ffffffffffffffffffffffffffffffffffffffff167f8be0079c531659141344cd1fd0a4f28419497f9722a3daafe3b4186f6b6457e060405160405180910390a35050565b610ff08061010d6000396000f3fe608060405234801561001057600080fd5b506004361061007d5760003560e01c8063a182eb021161005b578063a182eb02146100da578063a2113a661461010a578063c413e5be1461013a578063f2fde38b146101565761007d565b80630f310e9614610082578063715018a6146100b25780638da5cb5b146100bc575b600080fd5b61009c60048036038101906100979190610888565b610172565b6040516100a9919061094e565b60405180910390f35b6100ba6102d6565b005b6100c46102ea565b6040516100d191906109b1565b60405180910390f35b6100f460048036038101906100ef9190610888565b610313565b60405161010191906109b1565b60405180910390f35b610124600480360381019061011f9190610b01565b610346565b6040516101319190610b76565b60405180910390f35b610154600480360381019061014f9190610bbd565b6104b2565b005b610170600480360381019061016b9190610bfd565b61066e565b005b6060600073ffffffffffffffffffffffffffffffffffffffff16600160008460ff1660ff16815260200190815260200160002060009054906101000a900473ffffffffffffffffffffffffffffffffffffffff1673ffffffffffffffffffffffffffffffffffffffff160361021c576040517f08c379a000000000000000000000000000000000000000000000000000000000815260040161021390610c76565b60405180910390fd5b6000600160008460ff1660ff16815260200190815260200160002060009054906101000a900473ffffffffffffffffffffffffffffffffffffffff1690508073ffffffffffffffffffffffffffffffffffffffff166306fdde036040518163ffffffff1660e01b8152600401600060405180830381865afa1580156102a5573d6000803e3d6000fd5b505050506040513d6000823e3d601f19601f820116820180604052508101906102ce9190610d37565b915050919050565b6102de6106f1565b6102e8600061076f565b565b60008060009054906101000a900473ffffffffffffffffffffffffffffffffffffffff16905090565b60016020528060005260406000206000915054906101000a900473ffffffffffffffffffffffffffffffffffffffff1681565b60008073ffffffffffffffffffffffffffffffffffffffff16600160008560ff1660ff16815260200190815260200160002060009054906101000a900473ffffffffffffffffffffffffffffffffffffffff1673ffffffffffffffffffffffffffffffffffffffff16036103ef576040517f08c379a00000000000000000000000000000000000000000000000000000000081526004016103e690610c76565b60405180910390fd5b6000600160008560ff1660ff16815260200190815260200160002060009054906101000a900473ffffffffffffffffffffffffffffffffffffffff1690508073ffffffffffffffffffffffffffffffffffffffff1663aa1e84de846040518263ffffffff1660e01b81526004016104669190610dd5565b6020604051808303816000875af1158015610485573d6000803e3d6000fd5b505050506040513d601f19601f820116820180604052508101906104a99190610e23565b91505092915050565b6104ba6106f1565b600073ffffffffffffffffffffffffffffffffffffffff168173ffffffffffffffffffffffffffffffffffffffff1603610529576040517f08c379a000000000000000000000000000000000000000000000000000000000815260040161052090610e9c565b60405180910390fd5b600073ffffffffffffffffffffffffffffffffffffffff16600160008460ff1660ff16815260200190815260200160002060009054906101000a900473ffffffffffffffffffffffffffffffffffffffff1673ffffffffffffffffffffffffffffffffffffffff16146105d6578160ff167f4b93ed58093f1919c2de8d6c59caf8d17537461aadffc6c2f5e7c6ea859e9c71826040516105c991906109b1565b60405180910390a2610612565b8160ff167fabe589b0c4a375b6e4505c29a826dbf3cc7ab4de9aabf6a010c3409954666f1f8260405161060991906109b1565b60405180910390a25b80600160008460ff1660ff16815260200190815260200160002060006101000a81548173ffffffffffffffffffffffffffffffffffffffff021916908373ffffffffffffffffffffffffffffffffffffffff1602179055505050565b6106766106f1565b600073ffffffffffffffffffffffffffffffffffffffff168173ffffffffffffffffffffffffffffffffffffffff16036106e5576040517f08c379a00000000000000000000000000000000000000000000000000000000081526004016106dc90610f2e565b60405180910390fd5b6106ee8161076f565b50565b6106f9610833565b73ffffffffffffffffffffffffffffffffffffffff166107176102ea565b73ffffffffffffffffffffffffffffffffffffffff161461076d576040517f08c379a000000000000000000000000000000000000000000000000000000000815260040161076490610f9a565b60405180910390fd5b565b60008060009054906101000a900473ffffffffffffffffffffffffffffffffffffffff169050816000806101000a81548173ffffffffffffffffffffffffffffffffffffffff021916908373ffffffffffffffffffffffffffffffffffffffff1602179055508173ffffffffffffffffffffffffffffffffffffffff168173ffffffffffffffffffffffffffffffffffffffff167f8be0079c531659141344cd1fd0a4f28419497f9722a3daafe3b4186f6b6457e060405160405180910390a35050565b600033905090565b6000604051905090565b600080fd5b600080fd5b600060ff82169050919050565b6108658161084f565b811461087057600080fd5b50565b6000813590506108828161085c565b92915050565b60006020828403121561089e5761089d610845565b5b60006108ac84828501610873565b91505092915050565b600081519050919050565b600082825260208201905092915050565b60005b838110156108ef5780820151818401526020810190506108d4565b838111156108fe576000848401525b50505050565b6000601f19601f8301169050919050565b6000610920826108b5565b61092a81856108c0565b935061093a8185602086016108d1565b61094381610904565b840191505092915050565b600060208201905081810360008301526109688184610915565b905092915050565b600073ffffffffffffffffffffffffffffffffffffffff82169050919050565b600061099b82610970565b9050919050565b6109ab81610990565b82525050565b60006020820190506109c660008301846109a2565b92915050565b600080fd5b600080fd5b7f4e487b7100000000000000000000000000000000000000000000000000000000600052604160045260246000fd5b610a0e82610904565b810181811067ffffffffffffffff82111715610a2d57610a2c6109d6565b5b80604052505050565b6000610a4061083b565b9050610a4c8282610a05565b919050565b600067ffffffffffffffff821115610a6c57610a6b6109d6565b5b610a7582610904565b9050602081019050919050565b82818337600083830152505050565b6000610aa4610a9f84610a51565b610a36565b905082815260208101848484011115610ac057610abf6109d1565b5b610acb848285610a82565b509392505050565b600082601f830112610ae857610ae76109cc565b5b8135610af8848260208601610a91565b91505092915050565b60008060408385031215610b1857610b17610845565b5b6000610b2685828601610873565b925050602083013567ffffffffffffffff811115610b4757610b4661084a565b5b610b5385828601610ad3565b9150509250929050565b6000819050919050565b610b7081610b5d565b82525050565b6000602082019050610b8b6000830184610b67565b92915050565b610b9a81610990565b8114610ba557600080fd5b50565b600081359050610bb781610b91565b92915050565b60008060408385031215610bd457610bd3610845565b5b6000610be285828601610873565b9250506020610bf385828601610ba8565b9150509250929050565b600060208284031215610c1357610c12610845565b5b6000610c2184828501610ba8565b91505092915050565b7f48617368696e672066756e6374696f6e20646f65736e27742065786973742100600082015250565b6000610c60601f836108c0565b9150610c6b82610c2a565b602082019050919050565b60006020820190508181036000830152610c8f81610c53565b9050919050565b600067ffffffffffffffff821115610cb157610cb06109d6565b5b610cba82610904565b9050602081019050919050565b6000610cda610cd584610c96565b610a36565b905082815260208101848484011115610cf657610cf56109d1565b5b610d018482856108d1565b509392505050565b600082601f830112610d1e57610d1d6109cc565b5b8151610d2e848260208601610cc7565b91505092915050565b600060208284031215610d4d57610d4c610845565b5b600082015167ffffffffffffffff811115610d6b57610d6a61084a565b5b610d7784828501610d09565b91505092915050565b600081519050919050565b600082825260208201905092915050565b6000610da782610d80565b610db18185610d8b565b9350610dc18185602086016108d1565b610dca81610904565b840191505092915050565b60006020820190508181036000830152610def8184610d9c565b905092915050565b610e0081610b5d565b8114610e0b57600080fd5b50565b600081519050610e1d81610df7565b92915050565b600060208284031215610e3957610e38610845565b5b6000610e4784828501610e0e565b91505092915050565b7f436f6e747261637420616464726573732063616e6e6f7420626520656d707479600082015250565b6000610e866020836108c0565b9150610e9182610e50565b602082019050919050565b60006020820190508181036000830152610eb581610e79565b9050919050565b7f4f776e61626c653a206e6577206f776e657220697320746865207a65726f206160008201527f6464726573730000000000000000000000000000000000000000000000000000602082015250565b6000610f186026836108c0565b9150610f2382610ebc565b604082019050919050565b60006020820190508181036000830152610f4781610f0b565b9050919050565b7f4f776e61626c653a2063616c6c6572206973206e6f7420746865206f776e6572600082015250565b6000610f846020836108c0565b9150610f8f82610f4e565b602082019050919050565b60006020820190508181036000830152610fb381610f77565b905091905056fea2646970667358221220636c6300de8e4056ce38656a4e98ad792f40751244380f2d7932ec7aa0c6024564736f6c634300080e0033",
  "immutableReferences": {},
  "source": "// SPDX-License-Identifier: MIT\n\npragma solidity ^0.8.0;\n\nimport { IHashingFunction } from \"./interface/HashingFunction.sol\";\nimport { Ownable } from \"@openzeppelin/contracts/access/Ownable.sol\";\n\ncontract HashingProxy is Ownable {\n    event NewHashingFunctionContract(uint8 indexed hashingFunctionId, address newContractAddress);\n    event HashingFunctionContractChanged(uint8 indexed hashingFunctionId, address newContractAddress);\n\n    // hashingFunctionId => Contract address\n    mapping(uint8 => address) public functions;\n\n    function callHashingFunction(uint8 hashingFunctionId, bytes memory data)\n        public\n        returns (bytes32)\n    {\n        require(functions[hashingFunctionId] != address(0), \"Hashing function doesn't exist!\");\n\n        IHashingFunction hashingFunction = IHashingFunction(functions[hashingFunctionId]);\n        return hashingFunction.hash(data);\n    }\n\n    function getHashingFunctionName(uint8 hashingFunctionId)\n        public\n        view\n        returns (string memory)\n    {\n        require(functions[hashingFunctionId] != address(0), \"Hashing function doesn't exist!\");\n\n        IHashingFunction hashingFunction = IHashingFunction(functions[hashingFunctionId]);\n        return hashingFunction.name();\n    }\n\n    function setContractAddress(uint8 hashingFunctionId, address hashingContractAddress)\n        public\n        onlyOwner\n    {\n        require(hashingContractAddress != address(0), \"Contract address cannot be empty\");\n\n        if (functions[hashingFunctionId] != address(0)) {\n            emit HashingFunctionContractChanged(\n                hashingFunctionId,\n                hashingContractAddress\n            );\n        } else {\n            emit NewHashingFunctionContract(hashingFunctionId, hashingContractAddress);\n        }\n\n        functions[hashingFunctionId] = hashingContractAddress;\n    }\n\n}\n",
  "sourcePath": "/Users/waving/Desktop/OriginTrail/dkg-evm-module/contracts/HashingProxy.sol",
  "compiler": {
    "name": "solc",
    "version": "0.8.14+commit.80d49f37.Emscripten.clang"
  },
  "schemaVersion": "3.4.10",
  "updatedAt": "2022-11-16T11:11:18.747Z",
  "devdoc": {
    "kind": "dev",
    "methods": {
      "owner()": {
        "details": "Returns the address of the current owner."
      },
      "renounceOwnership()": {
        "details": "Leaves the contract without owner. It will not be possible to call `onlyOwner` functions anymore. Can only be called by the current owner. NOTE: Renouncing ownership will leave the contract without an owner, thereby removing any functionality that is only available to the owner."
      },
      "transferOwnership(address)": {
        "details": "Transfers ownership of the contract to a new account (`newOwner`). Can only be called by the current owner."
      }
    },
    "version": 1
  },
  "userdoc": {
    "kind": "user",
    "methods": {},
    "version": 1
  }
}