{
  "contractName": "HashingProxy",
  "abi": [
    {
      "inputs": [
        {
          "internalType": "address",
          "name": "hubAddress",
          "type": "address"
        }
      ],
      "stateMutability": "nonpayable",
      "type": "constructor"
    },
    {
      "anonymous": false,
      "inputs": [
        {
          "indexed": true,
          "internalType": "uint8",
          "name": "hashFunctionId",
          "type": "uint8"
        },
        {
          "indexed": false,
          "internalType": "address",
          "name": "newContractAddress",
          "type": "address"
        }
      ],
      "name": "HashFunctionContractChanged",
      "type": "event"
    },
    {
      "anonymous": false,
      "inputs": [
        {
          "indexed": true,
          "internalType": "uint8",
          "name": "hashFunctionId",
          "type": "uint8"
        },
        {
          "indexed": false,
          "internalType": "address",
          "name": "newContractAddress",
          "type": "address"
        }
      ],
      "name": "NewHashFunctionContract",
      "type": "event"
    },
    {
      "inputs": [],
      "name": "hub",
      "outputs": [
        {
          "internalType": "contract Hub",
          "name": "",
          "type": "address"
        }
      ],
      "stateMutability": "view",
      "type": "function"
    },
    {
      "inputs": [],
      "name": "name",
      "outputs": [
        {
          "internalType": "string",
          "name": "",
          "type": "string"
        }
      ],
      "stateMutability": "pure",
      "type": "function"
    },
    {
      "inputs": [],
      "name": "version",
      "outputs": [
        {
          "internalType": "string",
          "name": "",
          "type": "string"
        }
      ],
      "stateMutability": "pure",
      "type": "function"
    },
    {
      "inputs": [
        {
          "internalType": "uint8",
          "name": "hashFunctionId",
          "type": "uint8"
        },
        {
          "internalType": "address",
          "name": "hashingContractAddress",
          "type": "address"
        }
      ],
      "name": "setContractAddress",
      "outputs": [],
      "stateMutability": "nonpayable",
      "type": "function"
    },
    {
      "inputs": [
        {
          "internalType": "uint8",
          "name": "hashFunctionId",
          "type": "uint8"
        }
      ],
      "name": "removeContract",
      "outputs": [],
      "stateMutability": "nonpayable",
      "type": "function"
    },
    {
      "inputs": [
        {
          "internalType": "uint8",
          "name": "hashFunctionId",
          "type": "uint8"
        },
        {
          "internalType": "bytes",
          "name": "data",
          "type": "bytes"
        }
      ],
      "name": "callHashFunction",
      "outputs": [
        {
          "internalType": "bytes32",
          "name": "",
          "type": "bytes32"
        }
      ],
      "stateMutability": "view",
      "type": "function"
    },
    {
      "inputs": [
        {
          "internalType": "uint8",
          "name": "hashFunctionId",
          "type": "uint8"
        }
      ],
      "name": "getHashFunctionName",
      "outputs": [
        {
          "internalType": "string",
          "name": "",
          "type": "string"
        }
      ],
      "stateMutability": "view",
      "type": "function"
    },
    {
      "inputs": [
        {
          "internalType": "uint8",
          "name": "hashFunctionId",
          "type": "uint8"
        }
      ],
      "name": "getHashFunctionContractAddress",
      "outputs": [
        {
          "internalType": "address",
          "name": "",
          "type": "address"
        }
      ],
      "stateMutability": "view",
      "type": "function"
    },
    {
      "inputs": [],
      "name": "getAllHashFunctions",
      "outputs": [
        {
          "components": [
            {
              "internalType": "uint8",
              "name": "id",
              "type": "uint8"
            },
            {
              "internalType": "address",
              "name": "addr",
              "type": "address"
            }
          ],
          "internalType": "struct UnorderedIndexableContractDynamicSetLib.Contract[]",
          "name": "",
          "type": "tuple[]"
        }
      ],
      "stateMutability": "view",
      "type": "function"
    },
    {
      "inputs": [
        {
          "internalType": "uint8",
          "name": "hashFunctionId",
          "type": "uint8"
        }
      ],
      "name": "isHashFunction",
      "outputs": [
        {
          "internalType": "bool",
          "name": "",
          "type": "bool"
        }
      ],
      "stateMutability": "view",
      "type": "function"
    }
  ],
  "bytecode": "0x608060405234801561001057600080fd5b50604051610eb7380380610eb783398101604081905261002f91610067565b6001600160a01b03811661004257600080fd5b600080546001600160a01b0319166001600160a01b0392909216919091179055610097565b60006020828403121561007957600080fd5b81516001600160a01b038116811461009057600080fd5b9392505050565b610e11806100a66000396000f3fe608060405234801561001057600080fd5b506004361061009e5760003560e01c8063802f236811610066578063802f23681461016d5780638b6602d814610180578063b58abd4614610195578063c413e5be146101aa578063f75a30a9146101bd57600080fd5b806306fdde03146100a3578063365a86fc146100dd57806344a7c8d31461010857806345ed59e51461012b57806354fd4d501461014c575b600080fd5b60408051808201909152600c81526b48617368696e6750726f787960a01b60208201525b6040516100d49190610a0d565b60405180910390f35b6000546100f0906001600160a01b031681565b6040516001600160a01b0390911681526020016100d4565b61011b610116366004610a4f565b6101d0565b60405190151581526020016100d4565b61013e610139366004610a73565b6101e3565b6040519081526020016100d4565b6040805180820190915260058152640312e302e360dc1b60208201526100c7565b6100c761017b366004610a4f565b61026a565b61019361018e366004610a4f565b6102e0565b005b61019d6102f6565b6040516100d49190610af8565b6101936101b8366004610b68565b610307565b6100f06101cb366004610a4f565b6103bb565b60006101dd6001836103d2565b92915050565b60006101f060018561042f565b602001516001600160a01b031663aa1e84de84846040518363ffffffff1660e01b8152600401610221929190610ba1565b602060405180830381865afa15801561023e573d6000803e3d6000fd5b505050506040513d601f19601f820116820180604052508101906102629190610bd0565b949350505050565b606061027760018361042f565b602001516001600160a01b03166306fdde036040518163ffffffff1660e01b8152600401600060405180830381865afa1580156102b8573d6000803e3d6000fd5b505050506040513d6000823e601f3d908101601f191682016040526101dd9190810190610bff565b6102e86104d6565b6102f36001826105ad565b50565b60606103026001610755565b905090565b61030f6104d6565b61031a6001836103d2565b156103715761032b600183836107cd565b6040516001600160a01b038216815260ff8316907f87344d3e74d17609f4e724277f74dda482a7dec50d0dc2e62d7c93101dd968bc906020015b60405180910390a25050565b61037d60018383610879565b6040516001600160a01b038216815260ff8316907f9f9bb0dfe32a0f6d822a9eebfa9002f04cc064f036f9dabd0b95d694bffb528990602001610365565b60006103c860018361042f565b6020015192915050565b60006103df836001015490565b6000036103ee575060006101dd565b60ff8216600081815260208590526040902054600185018054909190811061041857610418610cac565b60009182526020909120015460ff16149392505050565b604080518082019091526000808252602082015261044d83836103d2565b6104725760405162461bcd60e51b815260040161046990610cc2565b60405180910390fd5b60ff8216600090815260208490526040902054600184018054909190811061049c5761049c610cac565b60009182526020918290206040805180820190915291015460ff8116825261010090046001600160a01b0316918101919091529392505050565b60008054906101000a90046001600160a01b03166001600160a01b0316638da5cb5b6040518163ffffffff1660e01b8152600401602060405180830381865afa158015610527573d6000803e3d6000fd5b505050506040513d601f19601f8201168201806040525081019061054b9190610d1f565b6001600160a01b0316336001600160a01b0316146105ab5760405162461bcd60e51b815260206004820181905260248201527f466e2063616e206f6e6c79206265207573656420627920687562206f776e65726044820152606401610469565b565b6105b782826103d2565b6105d35760405162461bcd60e51b815260040161046990610cc2565b60ff8116600090815260208390526040812054906001808501906105f8866001015490565b6106029190610d3c565b8154811061061257610612610cac565b60009182526020808320604080518082018252919093015460ff811682526001600160a01b0361010090910416818301819052835163af640d0f60e01b815293519195509263af640d0f9260048083019391928290030181865afa15801561067e573d6000803e3d6000fd5b505050506040513d601f19601f820116820180604052508101906106a29190610d5d565b60ff811660009081526020879052604090208490556001860180549192508391859081106106d2576106d2610cac565b60009182526020808320845192018054948201516001600160a01b0316610100026001600160a81b031990951660ff9384161794909417909355861681529086905260408120556001850180548061072c5761072c610d7a565b600082815260209020810160001990810180546001600160a81b03191690550190555050505050565b606081600101805480602002602001604051908101604052809291908181526020016000905b828210156107c2576000848152602090819020604080518082019091529084015460ff8116825261010090046001600160a01b03168183015282526001909201910161077b565b505050509050919050565b6001600160a01b0381166107f35760405162461bcd60e51b815260040161046990610d90565b6107fd83836103d2565b6108195760405162461bcd60e51b815260040161046990610cc2565b60ff8216600090815260208490526040902054600184018054839290811061084357610843610cac565b9060005260206000200160000160016101000a8154816001600160a01b0302191690836001600160a01b03160217905550505050565b8160ff166000036108d85760405162461bcd60e51b815260206004820152602360248201527f496e64657861626c65436f6e74726163745365743a2049442063616e6f74206260448201526206520360ec1b6064820152608401610469565b6001600160a01b0381166108fe5760405162461bcd60e51b815260040161046990610d90565b61090883836103d2565b1561097b5760405162461bcd60e51b815260206004820152603b60248201527f496e64657861626c65436f6e74726163745365743a20436f6e7472616374207760448201527f69746820676976656e20494420616c72656164792065786973747300000000006064820152608401610469565b6001838101805460ff94851660008181526020978852604080822084905580518082019091529182526001600160a01b039586168289019081529483018455928352959091209451940180549151909216610100026001600160a81b03199091169390921692909217179055565b60005b83811015610a045781810151838201526020016109ec565b50506000910152565b6020815260008251806020840152610a2c8160408501602087016109e9565b601f01601f19169190910160400192915050565b60ff811681146102f357600080fd5b600060208284031215610a6157600080fd5b8135610a6c81610a40565b9392505050565b600080600060408486031215610a8857600080fd5b8335610a9381610a40565b9250602084013567ffffffffffffffff80821115610ab057600080fd5b818601915086601f830112610ac457600080fd5b813581811115610ad357600080fd5b876020828501011115610ae557600080fd5b6020830194508093505050509250925092565b602080825282518282018190526000919060409081850190868401855b82811015610b46578151805160ff1685528601516001600160a01b0316868501529284019290850190600101610b15565b5091979650505050505050565b6001600160a01b03811681146102f357600080fd5b60008060408385031215610b7b57600080fd5b8235610b8681610a40565b91506020830135610b9681610b53565b809150509250929050565b60208152816020820152818360408301376000818301604090810191909152601f909201601f19160101919050565b600060208284031215610be257600080fd5b5051919050565b634e487b7160e01b600052604160045260246000fd5b600060208284031215610c1157600080fd5b815167ffffffffffffffff80821115610c2957600080fd5b818401915084601f830112610c3d57600080fd5b815181811115610c4f57610c4f610be9565b604051601f8201601f19908116603f01168101908382118183101715610c7757610c77610be9565b81604052828152876020848701011115610c9057600080fd5b610ca18360208301602088016109e9565b979650505050505050565b634e487b7160e01b600052603260045260246000fd5b6020808252603b908201527f496e64657861626c65436f6e74726163745365743a20436f6e7472616374207760408201527f69746820676976656e20494420646f65736e2774206578697374730000000000606082015260800190565b600060208284031215610d3157600080fd5b8151610a6c81610b53565b818103818111156101dd57634e487b7160e01b600052601160045260246000fd5b600060208284031215610d6f57600080fd5b8151610a6c81610a40565b634e487b7160e01b600052603160045260246000fd5b6020808252602b908201527f496e64657861626c65436f6e74726163745365743a204164647265737320636160408201526a06e6e6f74206265203078360ac1b60608201526080019056fea2646970667358221220f6ef810197a867a2f8bd6765a5728f858afc2666480efedae79c07827017e9e964736f6c63430008100033",
  "immutableReferences": {},
  "source": "// SPDX-License-Identifier: MIT\n\npragma solidity ^0.8.4;\n\nimport { Hub } from \"./Hub.sol\";\nimport { IHashFunction } from \"./interface/IHashFunction.sol\";\nimport { Named } from \"./interface/Named.sol\";\nimport { Versioned } from \"./interface/Versioned.sol\";\nimport { UnorderedIndexableContractDynamicSetLib } from \"./utils/UnorderedIndexableContractDynamicSet.sol\";\n\ncontract HashingProxy is Named, Versioned {\n\n    using UnorderedIndexableContractDynamicSetLib for UnorderedIndexableContractDynamicSetLib.Set;\n\n    event NewHashFunctionContract(uint8 indexed hashFunctionId, address newContractAddress);\n    event HashFunctionContractChanged(uint8 indexed hashFunctionId, address newContractAddress);\n\n    string constant private _NAME = \"HashingProxy\";\n    string constant private _VERSION = \"1.0.0\";\n\n    Hub public hub;\n\n    UnorderedIndexableContractDynamicSetLib.Set hashFunctionSet;\n\n    constructor(address hubAddress) {\n        require(hubAddress != address(0));\n\n        hub = Hub(hubAddress);\n    }\n\n    modifier onlyHubOwner() {\n        _checkHubOwner();\n        _;\n    }\n\n    function name() external pure virtual override returns (string memory) {\n        return _NAME;\n    }\n\n    function version() external pure virtual override returns (string memory) {\n        return _VERSION;\n    }\n\n    function setContractAddress(uint8 hashFunctionId, address hashingContractAddress) external onlyHubOwner {\n        if (hashFunctionSet.exists(hashFunctionId)) {\n            hashFunctionSet.update(hashFunctionId, hashingContractAddress);\n            emit HashFunctionContractChanged(hashFunctionId, hashingContractAddress);\n        } else {\n            hashFunctionSet.append(hashFunctionId, hashingContractAddress);\n            emit NewHashFunctionContract(hashFunctionId, hashingContractAddress);\n        }\n    }\n\n    function removeContract(uint8 hashFunctionId) external onlyHubOwner {\n        hashFunctionSet.remove(hashFunctionId);\n    }\n\n    function callHashFunction(uint8 hashFunctionId, bytes calldata data) external view returns (bytes32) {\n        return IHashFunction(hashFunctionSet.get(hashFunctionId).addr).hash(data);\n    }\n\n    function getHashFunctionName(uint8 hashFunctionId) external view returns (string memory) {\n        return Named(hashFunctionSet.get(hashFunctionId).addr).name();\n    }\n\n    function getHashFunctionContractAddress(uint8 hashFunctionId) external view returns (address) {\n        return hashFunctionSet.get(hashFunctionId).addr;\n    }\n\n    function getAllHashFunctions() external view returns (UnorderedIndexableContractDynamicSetLib.Contract[] memory) {\n        return hashFunctionSet.getAll();\n    }\n\n    function isHashFunction(uint8 hashFunctionId) external view returns (bool) {\n        return hashFunctionSet.exists(hashFunctionId);\n    }\n\n    function _checkHubOwner() internal view virtual {\n        require(msg.sender == hub.owner(), \"Fn can only be used by hub owner\");\n    }\n\n}\n",
  "sourcePath": "/Users/waving/Desktop/OriginTrail/dkg-evm-module/contracts/HashingProxy.sol",
  "compiler": {
    "name": "solc",
    "version": "0.8.16+commit.07a7930e.Emscripten.clang"
  },
  "schemaVersion": "3.4.10",
  "updatedAt": "2022-12-08T16:40:13.554Z",
  "devdoc": {
    "kind": "dev",
    "methods": {},
    "version": 1
  },
  "userdoc": {
    "kind": "user",
    "methods": {},
    "version": 1
  }
}