{
  "contractName": "HashingProxy",
  "abi": [
    {
      "anonymous": false,
      "inputs": [
        {
          "indexed": true,
          "internalType": "uint8",
          "name": "hashFunctionId",
          "type": "uint8"
        },
        {
          "indexed": false,
          "internalType": "address",
          "name": "newContractAddress",
          "type": "address"
        }
      ],
      "name": "HashFunctionContractChanged",
      "type": "event"
    },
    {
      "anonymous": false,
      "inputs": [
        {
          "indexed": true,
          "internalType": "uint8",
          "name": "hashFunctionId",
          "type": "uint8"
        },
        {
          "indexed": false,
          "internalType": "address",
          "name": "newContractAddress",
          "type": "address"
        }
      ],
      "name": "NewHashFunctionContract",
      "type": "event"
    },
    {
      "anonymous": false,
      "inputs": [
        {
          "indexed": true,
          "internalType": "address",
          "name": "previousOwner",
          "type": "address"
        },
        {
          "indexed": true,
          "internalType": "address",
          "name": "newOwner",
          "type": "address"
        }
      ],
      "name": "OwnershipTransferred",
      "type": "event"
    },
    {
      "inputs": [
        {
          "internalType": "uint8",
          "name": "",
          "type": "uint8"
        }
      ],
      "name": "functions",
      "outputs": [
        {
          "internalType": "address",
          "name": "",
          "type": "address"
        }
      ],
      "stateMutability": "view",
      "type": "function"
    },
    {
      "inputs": [],
      "name": "owner",
      "outputs": [
        {
          "internalType": "address",
          "name": "",
          "type": "address"
        }
      ],
      "stateMutability": "view",
      "type": "function"
    },
    {
      "inputs": [],
      "name": "renounceOwnership",
      "outputs": [],
      "stateMutability": "nonpayable",
      "type": "function"
    },
    {
      "inputs": [
        {
          "internalType": "address",
          "name": "newOwner",
          "type": "address"
        }
      ],
      "name": "transferOwnership",
      "outputs": [],
      "stateMutability": "nonpayable",
      "type": "function"
    },
    {
      "inputs": [
        {
          "internalType": "uint8",
          "name": "hashFunctionId",
          "type": "uint8"
        },
        {
          "internalType": "bytes",
          "name": "data",
          "type": "bytes"
        }
      ],
      "name": "callHashFunction",
      "outputs": [
        {
          "internalType": "bytes32",
          "name": "",
          "type": "bytes32"
        }
      ],
      "stateMutability": "nonpayable",
      "type": "function"
    },
    {
      "inputs": [
        {
          "internalType": "uint8",
          "name": "hashFunctionId",
          "type": "uint8"
        }
      ],
      "name": "getHashFunctionName",
      "outputs": [
        {
          "internalType": "string",
          "name": "",
          "type": "string"
        }
      ],
      "stateMutability": "view",
      "type": "function"
    },
    {
      "inputs": [
        {
          "internalType": "uint8",
          "name": "hashFunctionId",
          "type": "uint8"
        },
        {
          "internalType": "address",
          "name": "hashingContractAddress",
          "type": "address"
        }
      ],
      "name": "setContractAddress",
      "outputs": [],
      "stateMutability": "nonpayable",
      "type": "function"
    }
  ],
  "bytecode": "0x608060405234801561001057600080fd5b5061002d61002261003260201b60201c565b61003a60201b60201c565b6100fe565b600033905090565b60008060009054906101000a900473ffffffffffffffffffffffffffffffffffffffff169050816000806101000a81548173ffffffffffffffffffffffffffffffffffffffff021916908373ffffffffffffffffffffffffffffffffffffffff1602179055508173ffffffffffffffffffffffffffffffffffffffff168173ffffffffffffffffffffffffffffffffffffffff167f8be0079c531659141344cd1fd0a4f28419497f9722a3daafe3b4186f6b6457e060405160405180910390a35050565b610ff08061010d6000396000f3fe608060405234801561001057600080fd5b506004361061007d5760003560e01c80638da5cb5b1161005b5780638da5cb5b146100ec578063a182eb021461010a578063c413e5be1461013a578063f2fde38b146101565761007d565b806345ed59e514610082578063715018a6146100b2578063802f2368146100bc575b600080fd5b61009c600480360381019061009791906109ce565b610172565b6040516100a99190610a43565b60405180910390f35b6100ba6102de565b005b6100d660048036038101906100d19190610a5e565b6102f2565b6040516100e39190610b13565b60405180910390f35b6100f4610456565b6040516101019190610b76565b60405180910390f35b610124600480360381019061011f9190610a5e565b61047f565b6040516101319190610b76565b60405180910390f35b610154600480360381019061014f9190610bbd565b6104b2565b005b610170600480360381019061016b9190610bfd565b61066e565b005b60008073ffffffffffffffffffffffffffffffffffffffff16600160008560ff1660ff16815260200190815260200160002060009054906101000a900473ffffffffffffffffffffffffffffffffffffffff1673ffffffffffffffffffffffffffffffffffffffff160361021b576040517f08c379a000000000000000000000000000000000000000000000000000000000815260040161021290610c76565b60405180910390fd5b6000600160008560ff1660ff16815260200190815260200160002060009054906101000a900473ffffffffffffffffffffffffffffffffffffffff1690508073ffffffffffffffffffffffffffffffffffffffff1663aa1e84de846040518263ffffffff1660e01b81526004016102929190610ceb565b6020604051808303816000875af11580156102b1573d6000803e3d6000fd5b505050506040513d601f19601f820116820180604052508101906102d59190610d39565b91505092915050565b6102e66106f1565b6102f0600061076f565b565b6060600073ffffffffffffffffffffffffffffffffffffffff16600160008460ff1660ff16815260200190815260200160002060009054906101000a900473ffffffffffffffffffffffffffffffffffffffff1673ffffffffffffffffffffffffffffffffffffffff160361039c576040517f08c379a000000000000000000000000000000000000000000000000000000000815260040161039390610c76565b60405180910390fd5b6000600160008460ff1660ff16815260200190815260200160002060009054906101000a900473ffffffffffffffffffffffffffffffffffffffff1690508073ffffffffffffffffffffffffffffffffffffffff166306fdde036040518163ffffffff1660e01b8152600401600060405180830381865afa158015610425573d6000803e3d6000fd5b505050506040513d6000823e3d601f19601f8201168201806040525081019061044e9190610e07565b915050919050565b60008060009054906101000a900473ffffffffffffffffffffffffffffffffffffffff16905090565b60016020528060005260406000206000915054906101000a900473ffffffffffffffffffffffffffffffffffffffff1681565b6104ba6106f1565b600073ffffffffffffffffffffffffffffffffffffffff168173ffffffffffffffffffffffffffffffffffffffff1603610529576040517f08c379a000000000000000000000000000000000000000000000000000000000815260040161052090610e9c565b60405180910390fd5b600073ffffffffffffffffffffffffffffffffffffffff16600160008460ff1660ff16815260200190815260200160002060009054906101000a900473ffffffffffffffffffffffffffffffffffffffff1673ffffffffffffffffffffffffffffffffffffffff16146105d6578160ff167f87344d3e74d17609f4e724277f74dda482a7dec50d0dc2e62d7c93101dd968bc826040516105c99190610b76565b60405180910390a2610612565b8160ff167f9f9bb0dfe32a0f6d822a9eebfa9002f04cc064f036f9dabd0b95d694bffb5289826040516106099190610b76565b60405180910390a25b80600160008460ff1660ff16815260200190815260200160002060006101000a81548173ffffffffffffffffffffffffffffffffffffffff021916908373ffffffffffffffffffffffffffffffffffffffff1602179055505050565b6106766106f1565b600073ffffffffffffffffffffffffffffffffffffffff168173ffffffffffffffffffffffffffffffffffffffff16036106e5576040517f08c379a00000000000000000000000000000000000000000000000000000000081526004016106dc90610f2e565b60405180910390fd5b6106ee8161076f565b50565b6106f9610833565b73ffffffffffffffffffffffffffffffffffffffff16610717610456565b73ffffffffffffffffffffffffffffffffffffffff161461076d576040517f08c379a000000000000000000000000000000000000000000000000000000000815260040161076490610f9a565b60405180910390fd5b565b60008060009054906101000a900473ffffffffffffffffffffffffffffffffffffffff169050816000806101000a81548173ffffffffffffffffffffffffffffffffffffffff021916908373ffffffffffffffffffffffffffffffffffffffff1602179055508173ffffffffffffffffffffffffffffffffffffffff168173ffffffffffffffffffffffffffffffffffffffff167f8be0079c531659141344cd1fd0a4f28419497f9722a3daafe3b4186f6b6457e060405160405180910390a35050565b600033905090565b6000604051905090565b600080fd5b600080fd5b600060ff82169050919050565b6108658161084f565b811461087057600080fd5b50565b6000813590506108828161085c565b92915050565b600080fd5b600080fd5b6000601f19601f8301169050919050565b7f4e487b7100000000000000000000000000000000000000000000000000000000600052604160045260246000fd5b6108db82610892565b810181811067ffffffffffffffff821117156108fa576108f96108a3565b5b80604052505050565b600061090d61083b565b905061091982826108d2565b919050565b600067ffffffffffffffff821115610939576109386108a3565b5b61094282610892565b9050602081019050919050565b82818337600083830152505050565b600061097161096c8461091e565b610903565b90508281526020810184848401111561098d5761098c61088d565b5b61099884828561094f565b509392505050565b600082601f8301126109b5576109b4610888565b5b81356109c584826020860161095e565b91505092915050565b600080604083850312156109e5576109e4610845565b5b60006109f385828601610873565b925050602083013567ffffffffffffffff811115610a1457610a1361084a565b5b610a20858286016109a0565b9150509250929050565b6000819050919050565b610a3d81610a2a565b82525050565b6000602082019050610a586000830184610a34565b92915050565b600060208284031215610a7457610a73610845565b5b6000610a8284828501610873565b91505092915050565b600081519050919050565b600082825260208201905092915050565b60005b83811015610ac5578082015181840152602081019050610aaa565b83811115610ad4576000848401525b50505050565b6000610ae582610a8b565b610aef8185610a96565b9350610aff818560208601610aa7565b610b0881610892565b840191505092915050565b60006020820190508181036000830152610b2d8184610ada565b905092915050565b600073ffffffffffffffffffffffffffffffffffffffff82169050919050565b6000610b6082610b35565b9050919050565b610b7081610b55565b82525050565b6000602082019050610b8b6000830184610b67565b92915050565b610b9a81610b55565b8114610ba557600080fd5b50565b600081359050610bb781610b91565b92915050565b60008060408385031215610bd457610bd3610845565b5b6000610be285828601610873565b9250506020610bf385828601610ba8565b9150509250929050565b600060208284031215610c1357610c12610845565b5b6000610c2184828501610ba8565b91505092915050565b7f48617368696e672066756e6374696f6e20646f65736e27742065786973742100600082015250565b6000610c60601f83610a96565b9150610c6b82610c2a565b602082019050919050565b60006020820190508181036000830152610c8f81610c53565b9050919050565b600081519050919050565b600082825260208201905092915050565b6000610cbd82610c96565b610cc78185610ca1565b9350610cd7818560208601610aa7565b610ce081610892565b840191505092915050565b60006020820190508181036000830152610d058184610cb2565b905092915050565b610d1681610a2a565b8114610d2157600080fd5b50565b600081519050610d3381610d0d565b92915050565b600060208284031215610d4f57610d4e610845565b5b6000610d5d84828501610d24565b91505092915050565b600067ffffffffffffffff821115610d8157610d806108a3565b5b610d8a82610892565b9050602081019050919050565b6000610daa610da584610d66565b610903565b905082815260208101848484011115610dc657610dc561088d565b5b610dd1848285610aa7565b509392505050565b600082601f830112610dee57610ded610888565b5b8151610dfe848260208601610d97565b91505092915050565b600060208284031215610e1d57610e1c610845565b5b600082015167ffffffffffffffff811115610e3b57610e3a61084a565b5b610e4784828501610dd9565b91505092915050565b7f436f6e747261637420616464726573732063616e6e6f7420626520656d707479600082015250565b6000610e86602083610a96565b9150610e9182610e50565b602082019050919050565b60006020820190508181036000830152610eb581610e79565b9050919050565b7f4f776e61626c653a206e6577206f776e657220697320746865207a65726f206160008201527f6464726573730000000000000000000000000000000000000000000000000000602082015250565b6000610f18602683610a96565b9150610f2382610ebc565b604082019050919050565b60006020820190508181036000830152610f4781610f0b565b9050919050565b7f4f776e61626c653a2063616c6c6572206973206e6f7420746865206f776e6572600082015250565b6000610f84602083610a96565b9150610f8f82610f4e565b602082019050919050565b60006020820190508181036000830152610fb381610f77565b905091905056fea2646970667358221220e9dfb65bc1750aa4e4e5c7e21d790d6759dafc87ec493fc70cd3208c24333f5764736f6c634300080e0033",
  "immutableReferences": {},
  "source": "// SPDX-License-Identifier: MIT\n\npragma solidity ^0.8.0;\n\nimport { IHashFunction } from \"./interface/IHashFunction.sol\";\nimport { Ownable } from \"@openzeppelin/contracts/access/Ownable.sol\";\n\ncontract HashingProxy is Ownable {\n    event NewHashFunctionContract(uint8 indexed hashFunctionId, address newContractAddress);\n    event HashFunctionContractChanged(uint8 indexed hashFunctionId, address newContractAddress);\n\n    // hashFunctionId => Contract address\n    mapping(uint8 => address) public functions;\n\n    function callHashFunction(uint8 hashFunctionId, bytes memory data)\n        public\n        returns (bytes32)\n    {\n        require(functions[hashFunctionId] != address(0), \"Hashing function doesn't exist!\");\n\n        IHashFunction hashFunction = IHashFunction(functions[hashFunctionId]);\n        return hashFunction.hash(data);\n    }\n\n    function getHashFunctionName(uint8 hashFunctionId)\n        public\n        view\n        returns (string memory)\n    {\n        require(functions[hashFunctionId] != address(0), \"Hashing function doesn't exist!\");\n\n        IHashFunction hashFunction = IHashFunction(functions[hashFunctionId]);\n        return hashFunction.name();\n    }\n\n    function setContractAddress(uint8 hashFunctionId, address hashingContractAddress)\n        public\n        onlyOwner\n    {\n        require(hashingContractAddress != address(0), \"Contract address cannot be empty\");\n\n        if (functions[hashFunctionId] != address(0)) {\n            emit HashFunctionContractChanged(\n                hashFunctionId,\n                hashingContractAddress\n            );\n        } else {\n            emit NewHashFunctionContract(hashFunctionId, hashingContractAddress);\n        }\n\n        functions[hashFunctionId] = hashingContractAddress;\n    }\n\n}\n",
  "sourcePath": "/Users/waving/Desktop/OriginTrail/dkg-evm-module/contracts/HashingProxy.sol",
  "compiler": {
    "name": "solc",
    "version": "0.8.14+commit.80d49f37.Emscripten.clang"
  },
  "schemaVersion": "3.4.10",
  "updatedAt": "2022-11-21T10:31:02.481Z",
  "devdoc": {
    "kind": "dev",
    "methods": {
      "owner()": {
        "details": "Returns the address of the current owner."
      },
      "renounceOwnership()": {
        "details": "Leaves the contract without owner. It will not be possible to call `onlyOwner` functions anymore. Can only be called by the current owner. NOTE: Renouncing ownership will leave the contract without an owner, thereby removing any functionality that is only available to the owner."
      },
      "transferOwnership(address)": {
        "details": "Transfers ownership of the contract to a new account (`newOwner`). Can only be called by the current owner."
      }
    },
    "version": 1
  },
  "userdoc": {
    "kind": "user",
    "methods": {},
    "version": 1
  }
}