{
  "contractName": "HashingProxy",
  "abi": [
    {
      "anonymous": false,
      "inputs": [
        {
          "indexed": true,
          "internalType": "uint8",
          "name": "hashFunctionId",
          "type": "uint8"
        },
        {
          "indexed": false,
          "internalType": "address",
          "name": "newContractAddress",
          "type": "address"
        }
      ],
      "name": "HashFunctionContractChanged",
      "type": "event"
    },
    {
      "anonymous": false,
      "inputs": [
        {
          "indexed": true,
          "internalType": "uint8",
          "name": "hashFunctionId",
          "type": "uint8"
        },
        {
          "indexed": false,
          "internalType": "address",
          "name": "newContractAddress",
          "type": "address"
        }
      ],
      "name": "NewHashFunctionContract",
      "type": "event"
    },
    {
      "anonymous": false,
      "inputs": [
        {
          "indexed": true,
          "internalType": "address",
          "name": "previousOwner",
          "type": "address"
        },
        {
          "indexed": true,
          "internalType": "address",
          "name": "newOwner",
          "type": "address"
        }
      ],
      "name": "OwnershipTransferred",
      "type": "event"
    },
    {
      "inputs": [],
      "name": "owner",
      "outputs": [
        {
          "internalType": "address",
          "name": "",
          "type": "address"
        }
      ],
      "stateMutability": "view",
      "type": "function"
    },
    {
      "inputs": [],
      "name": "renounceOwnership",
      "outputs": [],
      "stateMutability": "nonpayable",
      "type": "function"
    },
    {
      "inputs": [
        {
          "internalType": "address",
          "name": "newOwner",
          "type": "address"
        }
      ],
      "name": "transferOwnership",
      "outputs": [],
      "stateMutability": "nonpayable",
      "type": "function"
    },
    {
      "inputs": [
        {
          "internalType": "uint8",
          "name": "hashFunctionId",
          "type": "uint8"
        },
        {
          "internalType": "address",
          "name": "hashingContractAddress",
          "type": "address"
        }
      ],
      "name": "setContractAddress",
      "outputs": [],
      "stateMutability": "nonpayable",
      "type": "function"
    },
    {
      "inputs": [
        {
          "internalType": "uint8",
          "name": "hashFunctionId",
          "type": "uint8"
        }
      ],
      "name": "removeContract",
      "outputs": [],
      "stateMutability": "nonpayable",
      "type": "function"
    },
    {
      "inputs": [
        {
          "internalType": "uint8",
          "name": "hashFunctionId",
          "type": "uint8"
        },
        {
          "internalType": "bytes",
          "name": "data",
          "type": "bytes"
        }
      ],
      "name": "callHashFunction",
      "outputs": [
        {
          "internalType": "bytes32",
          "name": "",
          "type": "bytes32"
        }
      ],
      "stateMutability": "nonpayable",
      "type": "function"
    },
    {
      "inputs": [
        {
          "internalType": "uint8",
          "name": "hashFunctionId",
          "type": "uint8"
        }
      ],
      "name": "getHashFunctionName",
      "outputs": [
        {
          "internalType": "string",
          "name": "",
          "type": "string"
        }
      ],
      "stateMutability": "view",
      "type": "function"
    },
    {
      "inputs": [
        {
          "internalType": "uint8",
          "name": "hashFunctionId",
          "type": "uint8"
        }
      ],
      "name": "getHashFunctionContractAddress",
      "outputs": [
        {
          "internalType": "address",
          "name": "",
          "type": "address"
        }
      ],
      "stateMutability": "view",
      "type": "function"
    },
    {
      "inputs": [],
      "name": "getAllHashFunctions",
      "outputs": [
        {
          "components": [
            {
              "internalType": "uint8",
              "name": "id",
              "type": "uint8"
            },
            {
              "internalType": "address",
              "name": "addr",
              "type": "address"
            }
          ],
          "internalType": "struct UnorderedIndexableContractDynamicSetLib.Contract[]",
          "name": "",
          "type": "tuple[]"
        }
      ],
      "stateMutability": "view",
      "type": "function"
    },
    {
      "inputs": [
        {
          "internalType": "uint8",
          "name": "hashFunctionId",
          "type": "uint8"
        }
      ],
      "name": "isHashFunction",
      "outputs": [
        {
          "internalType": "bool",
          "name": "",
          "type": "bool"
        }
      ],
      "stateMutability": "view",
      "type": "function"
    }
  ],
  "bytecode": "0x608060405234801561001057600080fd5b5061001a3361001f565b61006f565b600080546001600160a01b038381166001600160a01b0319831681178455604051919092169283917f8be0079c531659141344cd1fd0a4f28419497f9722a3daafe3b4186f6b6457e09190a35050565b6113008061007e6000396000f3fe608060405234801561001057600080fd5b50600436106100be5760003560e01c80638da5cb5b11610076578063c413e5be1161005b578063c413e5be1461019d578063f2fde38b146101b0578063f75a30a9146101c357600080fd5b80638da5cb5b14610149578063b58abd461461018857600080fd5b8063715018a6116100a7578063715018a61461010c578063802f2368146101165780638b6602d81461013657600080fd5b806344a7c8d3146100c357806345ed59e5146100eb575b600080fd5b6100d66100d1366004610ea6565b6101d6565b60405190151581526020015b60405180910390f35b6100fe6100f9366004610eca565b6101e9565b6040519081526020016100e2565b61011461027f565b005b610129610124366004610ea6565b610293565b6040516100e29190610f7f565b610114610144366004610ea6565b610334565b60005473ffffffffffffffffffffffffffffffffffffffff165b60405173ffffffffffffffffffffffffffffffffffffffff90911681526020016100e2565b61019061034a565b6040516100e29190610fd0565b6101146101ab366004611061565b61035b565b6101146101be366004611096565b610429565b6101636101d1366004610ea6565b6104e2565b60006101e36001836104f9565b92915050565b60006101f6600185610556565b6020015173ffffffffffffffffffffffffffffffffffffffff1663aa1e84de84846040518363ffffffff1660e01b81526004016102349291906110b1565b6020604051808303816000875af1158015610253573d6000803e3d6000fd5b505050506040513d601f19601f8201168201806040525081019061027791906110fe565b949350505050565b610287610671565b61029160006106f2565b565b60606102a0600183610556565b6020015173ffffffffffffffffffffffffffffffffffffffff166306fdde036040518163ffffffff1660e01b8152600401600060405180830381865afa1580156102ee573d6000803e3d6000fd5b505050506040513d6000823e601f3d9081017fffffffffffffffffffffffffffffffffffffffffffffffffffffffffffffffe01682016040526101e39190810190611146565b61033c610671565b610347600182610767565b50565b60606103566001610a00565b905090565b610363610671565b61036e6001836104f9565b156103d25761037f60018383610a85565b60405173ffffffffffffffffffffffffffffffffffffffff8216815260ff8316907f87344d3e74d17609f4e724277f74dda482a7dec50d0dc2e62d7c93101dd968bc906020015b60405180910390a25050565b6103de60018383610c38565b60405173ffffffffffffffffffffffffffffffffffffffff8216815260ff8316907f9f9bb0dfe32a0f6d822a9eebfa9002f04cc064f036f9dabd0b95d694bffb5289906020016103c6565b610431610671565b73ffffffffffffffffffffffffffffffffffffffff81166104d9576040517f08c379a000000000000000000000000000000000000000000000000000000000815260206004820152602660248201527f4f776e61626c653a206e6577206f776e657220697320746865207a65726f206160448201527f646472657373000000000000000000000000000000000000000000000000000060648201526084015b60405180910390fd5b610347816106f2565b60006104ef600183610556565b6020015192915050565b6000610506836001015490565b600003610515575060006101e3565b60ff8216600081815260208590526040902054600185018054909190811061053f5761053f611211565b60009182526020909120015460ff16149392505050565b604080518082019091526000808252602082015261057483836104f9565b610600576040517f08c379a000000000000000000000000000000000000000000000000000000000815260206004820152603c60248201527f28496e64657861626c65436f6e74726163745365742920436f6e74726163742060448201527f7769746820676976656e20494420646f65736e2774206578697374730000000060648201526084016104d0565b60ff8216600090815260208490526040902054600184018054909190811061062a5761062a611211565b60009182526020918290206040805180820190915291015460ff81168252610100900473ffffffffffffffffffffffffffffffffffffffff16918101919091529392505050565b60005473ffffffffffffffffffffffffffffffffffffffff163314610291576040517f08c379a000000000000000000000000000000000000000000000000000000000815260206004820181905260248201527f4f776e61626c653a2063616c6c6572206973206e6f7420746865206f776e657260448201526064016104d0565b6000805473ffffffffffffffffffffffffffffffffffffffff8381167fffffffffffffffffffffffff0000000000000000000000000000000000000000831681178455604051919092169283917f8be0079c531659141344cd1fd0a4f28419497f9722a3daafe3b4186f6b6457e09190a35050565b61077182826104f9565b6107fd576040517f08c379a000000000000000000000000000000000000000000000000000000000815260206004820152603c60248201527f28496e64657861626c65436f6e74726163745365742920436f6e74726163742060448201527f7769746820676976656e20494420646f65736e2774206578697374730000000060648201526084016104d0565b60ff811660009081526020839052604081205490600180850190610822866001015490565b61082c9190611240565b8154811061083c5761083c611211565b60009182526020808320604080518082018252919093015460ff8116825273ffffffffffffffffffffffffffffffffffffffff6101009091041681830181905283517faf640d0f00000000000000000000000000000000000000000000000000000000815293519195509263af640d0f9260048083019391928290030181865afa1580156108ce573d6000803e3d6000fd5b505050506040513d601f19601f820116820180604052508101906108f2919061127e565b60ff8116600090815260208790526040902084905560018601805491925083918590811061092257610922611211565b600091825260208083208451920180549482015173ffffffffffffffffffffffffffffffffffffffff16610100027fffffffffffffffffffffff00000000000000000000000000000000000000000090951660ff938416179490941790935586168152908690526040812055600185018054806109a1576109a161129b565b60008281526020902081017fffffffffffffffffffffffffffffffffffffffffffffffffffffffffffffffff90810180547fffffffffffffffffffffff0000000000000000000000000000000000000000001690550190555050505050565b606081600101805480602002602001604051908101604052809291908181526020016000905b82821015610a7a576000848152602090819020604080518082019091529084015460ff81168252610100900473ffffffffffffffffffffffffffffffffffffffff1681830152825260019092019101610a26565b505050509050919050565b73ffffffffffffffffffffffffffffffffffffffff8116610b28576040517f08c379a000000000000000000000000000000000000000000000000000000000815260206004820152602c60248201527f28496e64657861626c65436f6e7472616374536574292041646472657373206360448201527f616e6e6f7420626520307830000000000000000000000000000000000000000060648201526084016104d0565b610b3283836104f9565b610bbe576040517f08c379a000000000000000000000000000000000000000000000000000000000815260206004820152603c60248201527f28496e64657861626c65436f6e74726163745365742920436f6e74726163742060448201527f7769746820676976656e20494420646f65736e2774206578697374730000000060648201526084016104d0565b60ff82166000908152602084905260409020546001840180548392908110610be857610be8611211565b9060005260206000200160000160016101000a81548173ffffffffffffffffffffffffffffffffffffffff021916908373ffffffffffffffffffffffffffffffffffffffff160217905550505050565b8160ff16600003610cca576040517f08c379a0000000000000000000000000000000000000000000000000000000008152602060048201526024808201527f28496e64657861626c65436f6e7472616374536574292049442063616e6f742060448201527f626520300000000000000000000000000000000000000000000000000000000060648201526084016104d0565b73ffffffffffffffffffffffffffffffffffffffff8116610d6d576040517f08c379a000000000000000000000000000000000000000000000000000000000815260206004820152602c60248201527f28496e64657861626c65436f6e7472616374536574292041646472657373206360448201527f616e6e6f7420626520307830000000000000000000000000000000000000000060648201526084016104d0565b610d7783836104f9565b15610e04576040517f08c379a000000000000000000000000000000000000000000000000000000000815260206004820152603c60248201527f28496e64657861626c65436f6e74726163745365742920436f6e74726163742060448201527f7769746820676976656e20494420616c7265616479206578697374730000000060648201526084016104d0565b6001838101805460ff948516600081815260209788526040808220849055805180820190915291825273ffffffffffffffffffffffffffffffffffffffff9586168289019081529483018455928352959091209451940180549151909216610100027fffffffffffffffffffffff0000000000000000000000000000000000000000009091169390921692909217179055565b60ff8116811461034757600080fd5b600060208284031215610eb857600080fd5b8135610ec381610e97565b9392505050565b600080600060408486031215610edf57600080fd5b8335610eea81610e97565b9250602084013567ffffffffffffffff80821115610f0757600080fd5b818601915086601f830112610f1b57600080fd5b813581811115610f2a57600080fd5b876020828501011115610f3c57600080fd5b6020830194508093505050509250925092565b60005b83811015610f6a578181015183820152602001610f52565b83811115610f79576000848401525b50505050565b6020815260008251806020840152610f9e816040850160208701610f4f565b601f017fffffffffffffffffffffffffffffffffffffffffffffffffffffffffffffffe0169190910160400192915050565b602080825282518282018190526000919060409081850190868401855b8281101561102b578151805160ff16855286015173ffffffffffffffffffffffffffffffffffffffff16868501529284019290850190600101610fed565b5091979650505050505050565b803573ffffffffffffffffffffffffffffffffffffffff8116811461105c57600080fd5b919050565b6000806040838503121561107457600080fd5b823561107f81610e97565b915061108d60208401611038565b90509250929050565b6000602082840312156110a857600080fd5b610ec382611038565b60208152816020820152818360408301376000818301604090810191909152601f9092017fffffffffffffffffffffffffffffffffffffffffffffffffffffffffffffffe0160101919050565b60006020828403121561111057600080fd5b5051919050565b7f4e487b7100000000000000000000000000000000000000000000000000000000600052604160045260246000fd5b60006020828403121561115857600080fd5b815167ffffffffffffffff8082111561117057600080fd5b818401915084601f83011261118457600080fd5b81518181111561119657611196611117565b604051601f82017fffffffffffffffffffffffffffffffffffffffffffffffffffffffffffffffe0908116603f011681019083821181831017156111dc576111dc611117565b816040528281528760208487010111156111f557600080fd5b611206836020830160208801610f4f565b979650505050505050565b7f4e487b7100000000000000000000000000000000000000000000000000000000600052603260045260246000fd5b600082821015611279577f4e487b7100000000000000000000000000000000000000000000000000000000600052601160045260246000fd5b500390565b60006020828403121561129057600080fd5b8151610ec381610e97565b7f4e487b7100000000000000000000000000000000000000000000000000000000600052603160045260246000fdfea2646970667358221220a632baa781d8cab410f687bcd41a3d8fd3e7a400e7edf71c43f1992525d330d664736f6c634300080e0033",
  "immutableReferences": {},
  "source": "// SPDX-License-Identifier: MIT\n\npragma solidity ^0.8.0;\n\nimport { IHashFunction } from \"./interface/IHashFunction.sol\";\nimport { Named } from \"./interface/Named.sol\";\nimport { UnorderedIndexableContractDynamicSetLib } from \"./utils/UnorderedIndexableContractDynamicSet.sol\";\nimport { Ownable } from \"@openzeppelin/contracts/access/Ownable.sol\";\n\ncontract HashingProxy is Ownable {\n\n    using UnorderedIndexableContractDynamicSetLib for UnorderedIndexableContractDynamicSetLib.Set;\n\n    event NewHashFunctionContract(uint8 indexed hashFunctionId, address newContractAddress);\n    event HashFunctionContractChanged(uint8 indexed hashFunctionId, address newContractAddress);\n\n    UnorderedIndexableContractDynamicSetLib.Set hashFunctionSet;\n\n    function setContractAddress(uint8 hashFunctionId, address hashingContractAddress) external onlyOwner {\n        if (hashFunctionSet.exists(hashFunctionId)) {\n            hashFunctionSet.update(hashFunctionId, hashingContractAddress);\n            emit HashFunctionContractChanged(hashFunctionId, hashingContractAddress);\n        } else {\n            hashFunctionSet.append(hashFunctionId, hashingContractAddress);\n            emit NewHashFunctionContract(hashFunctionId, hashingContractAddress);\n        }\n    }\n\n    function removeContract(uint8 hashFunctionId) external onlyOwner {\n        hashFunctionSet.remove(hashFunctionId);\n    }\n\n    function callHashFunction(uint8 hashFunctionId, bytes calldata data) external returns (bytes32) {\n        return IHashFunction(hashFunctionSet.get(hashFunctionId).addr).hash(data);\n    }\n\n    function getHashFunctionName(uint8 hashFunctionId) external view returns (string memory) {\n        return Named(hashFunctionSet.get(hashFunctionId).addr).name();\n    }\n\n    function getHashFunctionContractAddress(uint8 hashFunctionId) external view returns (address) {\n        return hashFunctionSet.get(hashFunctionId).addr;\n    }\n\n    function getAllHashFunctions() external view returns (UnorderedIndexableContractDynamicSetLib.Contract[] memory) {\n        return hashFunctionSet.getAll();\n    }\n\n    function isHashFunction(uint8 hashFunctionId) external view returns (bool) {\n        return hashFunctionSet.exists(hashFunctionId);\n    }\n\n}\n",
  "sourcePath": "/Users/max/IdeaProjects/dkg-evm-module/contracts/HashingProxy.sol",
  "compiler": {
    "name": "solc",
    "version": "0.8.14+commit.80d49f37.Emscripten.clang"
  },
  "schemaVersion": "3.4.10",
  "updatedAt": "2022-12-02T15:01:56.509Z",
  "devdoc": {
    "kind": "dev",
    "methods": {
      "owner()": {
        "details": "Returns the address of the current owner."
      },
      "renounceOwnership()": {
        "details": "Leaves the contract without owner. It will not be possible to call `onlyOwner` functions anymore. Can only be called by the current owner. NOTE: Renouncing ownership will leave the contract without an owner, thereby removing any functionality that is only available to the owner."
      },
      "transferOwnership(address)": {
        "details": "Transfers ownership of the contract to a new account (`newOwner`). Can only be called by the current owner."
      }
    },
    "version": 1
  },
  "userdoc": {
    "kind": "user",
    "methods": {},
    "version": 1
  }
}