{
  "contractName": "HashingProxy",
  "abi": [
    {
      "anonymous": false,
      "inputs": [
        {
          "indexed": true,
          "internalType": "uint8",
          "name": "hashFunctionId",
          "type": "uint8"
        },
        {
          "indexed": false,
          "internalType": "address",
          "name": "newContractAddress",
          "type": "address"
        }
      ],
      "name": "HashFunctionContractChanged",
      "type": "event"
    },
    {
      "anonymous": false,
      "inputs": [
        {
          "indexed": true,
          "internalType": "uint8",
          "name": "hashFunctionId",
          "type": "uint8"
        },
        {
          "indexed": false,
          "internalType": "address",
          "name": "newContractAddress",
          "type": "address"
        }
      ],
      "name": "NewHashFunctionContract",
      "type": "event"
    },
    {
      "anonymous": false,
      "inputs": [
        {
          "indexed": true,
          "internalType": "address",
          "name": "previousOwner",
          "type": "address"
        },
        {
          "indexed": true,
          "internalType": "address",
          "name": "newOwner",
          "type": "address"
        }
      ],
      "name": "OwnershipTransferred",
      "type": "event"
    },
    {
      "inputs": [],
      "name": "owner",
      "outputs": [
        {
          "internalType": "address",
          "name": "",
          "type": "address"
        }
      ],
      "stateMutability": "view",
      "type": "function"
    },
    {
      "inputs": [],
      "name": "renounceOwnership",
      "outputs": [],
      "stateMutability": "nonpayable",
      "type": "function"
    },
    {
      "inputs": [
        {
          "internalType": "address",
          "name": "newOwner",
          "type": "address"
        }
      ],
      "name": "transferOwnership",
      "outputs": [],
      "stateMutability": "nonpayable",
      "type": "function"
    },
    {
      "inputs": [],
      "name": "name",
      "outputs": [
        {
          "internalType": "string",
          "name": "",
          "type": "string"
        }
      ],
      "stateMutability": "pure",
      "type": "function"
    },
    {
      "inputs": [],
      "name": "version",
      "outputs": [
        {
          "internalType": "string",
          "name": "",
          "type": "string"
        }
      ],
      "stateMutability": "pure",
      "type": "function"
    },
    {
      "inputs": [
        {
          "internalType": "uint8",
          "name": "hashFunctionId",
          "type": "uint8"
        },
        {
          "internalType": "address",
          "name": "hashingContractAddress",
          "type": "address"
        }
      ],
      "name": "setContractAddress",
      "outputs": [],
      "stateMutability": "nonpayable",
      "type": "function"
    },
    {
      "inputs": [
        {
          "internalType": "uint8",
          "name": "hashFunctionId",
          "type": "uint8"
        }
      ],
      "name": "removeContract",
      "outputs": [],
      "stateMutability": "nonpayable",
      "type": "function"
    },
    {
      "inputs": [
        {
          "internalType": "uint8",
          "name": "hashFunctionId",
          "type": "uint8"
        },
        {
          "internalType": "bytes",
          "name": "data",
          "type": "bytes"
        }
      ],
      "name": "callHashFunction",
      "outputs": [
        {
          "internalType": "bytes32",
          "name": "",
          "type": "bytes32"
        }
      ],
      "stateMutability": "nonpayable",
      "type": "function"
    },
    {
      "inputs": [
        {
          "internalType": "uint8",
          "name": "hashFunctionId",
          "type": "uint8"
        }
      ],
      "name": "getHashFunctionName",
      "outputs": [
        {
          "internalType": "string",
          "name": "",
          "type": "string"
        }
      ],
      "stateMutability": "view",
      "type": "function"
    },
    {
      "inputs": [
        {
          "internalType": "uint8",
          "name": "hashFunctionId",
          "type": "uint8"
        }
      ],
      "name": "getHashFunctionContractAddress",
      "outputs": [
        {
          "internalType": "address",
          "name": "",
          "type": "address"
        }
      ],
      "stateMutability": "view",
      "type": "function"
    },
    {
      "inputs": [],
      "name": "getAllHashFunctions",
      "outputs": [
        {
          "components": [
            {
              "internalType": "uint8",
              "name": "id",
              "type": "uint8"
            },
            {
              "internalType": "address",
              "name": "addr",
              "type": "address"
            }
          ],
          "internalType": "struct UnorderedIndexableContractDynamicSetLib.Contract[]",
          "name": "",
          "type": "tuple[]"
        }
      ],
      "stateMutability": "view",
      "type": "function"
    },
    {
      "inputs": [
        {
          "internalType": "uint8",
          "name": "hashFunctionId",
          "type": "uint8"
        }
      ],
      "name": "isHashFunction",
      "outputs": [
        {
          "internalType": "bool",
          "name": "",
          "type": "bool"
        }
      ],
      "stateMutability": "view",
      "type": "function"
    }
  ],
  "bytecode": "0x608060405234801561001057600080fd5b5061001a3361001f565b61006f565b600080546001600160a01b038381166001600160a01b0319831681178455604051919092169283917f8be0079c531659141344cd1fd0a4f28419497f9722a3daafe3b4186f6b6457e09190a35050565b610e998061007e6000396000f3fe608060405234801561001057600080fd5b50600436106100b45760003560e01c80638b6602d8116100715780638b6602d8146101755780638da5cb5b14610188578063b58abd46146101ad578063c413e5be146101c2578063f2fde38b146101d5578063f75a30a9146101e857600080fd5b806306fdde03146100b957806344a7c8d3146100f357806345ed59e51461011657806354fd4d5014610137578063715018a614610158578063802f236814610162575b600080fd5b60408051808201909152600c81526b48617368696e6750726f787960a01b60208201525b6040516100ea9190610a93565b60405180910390f35b610106610101366004610ad5565b6101fb565b60405190151581526020016100ea565b610129610124366004610af9565b61020e565b6040519081526020016100ea565b6040805180820190915260058152640312e302e360dc1b60208201526100dd565b610160610297565b005b6100dd610170366004610ad5565b6102ab565b610160610183366004610ad5565b610321565b6000546001600160a01b03165b6040516001600160a01b0390911681526020016100ea565b6101b5610337565b6040516100ea9190610b7e565b6101606101d0366004610bf5565b610348565b6101606101e3366004610c2a565b6103fc565b6101956101f6366004610ad5565b610477565b600061020860018361048e565b92915050565b600061021b6001856104eb565b602001516001600160a01b031663aa1e84de84846040518363ffffffff1660e01b815260040161024c929190610c45565b6020604051808303816000875af115801561026b573d6000803e3d6000fd5b505050506040513d601f19601f8201168201806040525081019061028f9190610c74565b949350505050565b61029f610589565b6102a960006105e3565b565b60606102b86001836104eb565b602001516001600160a01b03166306fdde036040518163ffffffff1660e01b8152600401600060405180830381865afa1580156102f9573d6000803e3d6000fd5b505050506040513d6000823e601f3d908101601f191682016040526102089190810190610ca3565b610329610589565b610334600182610633565b50565b606061034360016107db565b905090565b610350610589565b61035b60018361048e565b156103b25761036c60018383610853565b6040516001600160a01b038216815260ff8316907f87344d3e74d17609f4e724277f74dda482a7dec50d0dc2e62d7c93101dd968bc906020015b60405180910390a25050565b6103be600183836108ff565b6040516001600160a01b038216815260ff8316907f9f9bb0dfe32a0f6d822a9eebfa9002f04cc064f036f9dabd0b95d694bffb5289906020016103a6565b610404610589565b6001600160a01b03811661046e5760405162461bcd60e51b815260206004820152602660248201527f4f776e61626c653a206e6577206f776e657220697320746865207a65726f206160448201526564647265737360d01b60648201526084015b60405180910390fd5b610334816105e3565b60006104846001836104eb565b6020015192915050565b600061049b836001015490565b6000036104aa57506000610208565b60ff821660008181526020859052604090205460018501805490919081106104d4576104d4610d50565b60009182526020909120015460ff16149392505050565b6040805180820190915260008082526020820152610509838361048e565b6105255760405162461bcd60e51b815260040161046590610d66565b60ff8216600090815260208490526040902054600184018054909190811061054f5761054f610d50565b60009182526020918290206040805180820190915291015460ff8116825261010090046001600160a01b0316918101919091529392505050565b6000546001600160a01b031633146102a95760405162461bcd60e51b815260206004820181905260248201527f4f776e61626c653a2063616c6c6572206973206e6f7420746865206f776e65726044820152606401610465565b600080546001600160a01b038381166001600160a01b0319831681178455604051919092169283917f8be0079c531659141344cd1fd0a4f28419497f9722a3daafe3b4186f6b6457e09190a35050565b61063d828261048e565b6106595760405162461bcd60e51b815260040161046590610d66565b60ff81166000908152602083905260408120549060018085019061067e866001015490565b6106889190610dc3565b8154811061069857610698610d50565b60009182526020808320604080518082018252919093015460ff811682526001600160a01b0361010090910416818301819052835163af640d0f60e01b815293519195509263af640d0f9260048083019391928290030181865afa158015610704573d6000803e3d6000fd5b505050506040513d601f19601f820116820180604052508101906107289190610de4565b60ff8116600090815260208790526040902084905560018601805491925083918590811061075857610758610d50565b60009182526020808320845192018054948201516001600160a01b0316610100026001600160a81b031990951660ff938416179490941790935586168152908690526040812055600185018054806107b2576107b2610e01565b600082815260209020810160001990810180546001600160a81b03191690550190555050505050565b606081600101805480602002602001604051908101604052809291908181526020016000905b82821015610848576000848152602090819020604080518082019091529084015460ff8116825261010090046001600160a01b031681830152825260019092019101610801565b505050509050919050565b6001600160a01b0381166108795760405162461bcd60e51b815260040161046590610e17565b610883838361048e565b61089f5760405162461bcd60e51b815260040161046590610d66565b60ff821660009081526020849052604090205460018401805483929081106108c9576108c9610d50565b9060005260206000200160000160016101000a8154816001600160a01b0302191690836001600160a01b03160217905550505050565b8160ff1660000361095e5760405162461bcd60e51b8152602060048201526024808201527f28496e64657861626c65436f6e7472616374536574292049442063616e6f74206044820152630626520360e41b6064820152608401610465565b6001600160a01b0381166109845760405162461bcd60e51b815260040161046590610e17565b61098e838361048e565b15610a015760405162461bcd60e51b815260206004820152603c60248201527f28496e64657861626c65436f6e74726163745365742920436f6e74726163742060448201527f7769746820676976656e20494420616c726561647920657869737473000000006064820152608401610465565b6001838101805460ff94851660008181526020978852604080822084905580518082019091529182526001600160a01b039586168289019081529483018455928352959091209451940180549151909216610100026001600160a81b03199091169390921692909217179055565b60005b83811015610a8a578181015183820152602001610a72565b50506000910152565b6020815260008251806020840152610ab2816040850160208701610a6f565b601f01601f19169190910160400192915050565b60ff8116811461033457600080fd5b600060208284031215610ae757600080fd5b8135610af281610ac6565b9392505050565b600080600060408486031215610b0e57600080fd5b8335610b1981610ac6565b9250602084013567ffffffffffffffff80821115610b3657600080fd5b818601915086601f830112610b4a57600080fd5b813581811115610b5957600080fd5b876020828501011115610b6b57600080fd5b6020830194508093505050509250925092565b602080825282518282018190526000919060409081850190868401855b82811015610bcc578151805160ff1685528601516001600160a01b0316868501529284019290850190600101610b9b565b5091979650505050505050565b80356001600160a01b0381168114610bf057600080fd5b919050565b60008060408385031215610c0857600080fd5b8235610c1381610ac6565b9150610c2160208401610bd9565b90509250929050565b600060208284031215610c3c57600080fd5b610af282610bd9565b60208152816020820152818360408301376000818301604090810191909152601f909201601f19160101919050565b600060208284031215610c8657600080fd5b5051919050565b634e487b7160e01b600052604160045260246000fd5b600060208284031215610cb557600080fd5b815167ffffffffffffffff80821115610ccd57600080fd5b818401915084601f830112610ce157600080fd5b815181811115610cf357610cf3610c8d565b604051601f8201601f19908116603f01168101908382118183101715610d1b57610d1b610c8d565b81604052828152876020848701011115610d3457600080fd5b610d45836020830160208801610a6f565b979650505050505050565b634e487b7160e01b600052603260045260246000fd5b6020808252603c908201527f28496e64657861626c65436f6e74726163745365742920436f6e74726163742060408201527f7769746820676976656e20494420646f65736e27742065786973747300000000606082015260800190565b8181038181111561020857634e487b7160e01b600052601160045260246000fd5b600060208284031215610df657600080fd5b8151610af281610ac6565b634e487b7160e01b600052603160045260246000fd5b6020808252602c908201527f28496e64657861626c65436f6e7472616374536574292041646472657373206360408201526b0616e6e6f74206265203078360a41b60608201526080019056fea26469706673582212200084a5b86b86fe289a4ace1cf45ea33d2b63a74473f010f0cf607e6ff19c009264736f6c63430008100033",
  "immutableReferences": {},
  "source": "// SPDX-License-Identifier: MIT\n\npragma solidity ^0.8.4;\n\nimport { IHashFunction } from \"./interface/IHashFunction.sol\";\nimport { Named } from \"./interface/Named.sol\";\nimport { Versioned } from \"./interface/Versioned.sol\";\nimport { UnorderedIndexableContractDynamicSetLib } from \"./utils/UnorderedIndexableContractDynamicSet.sol\";\nimport { Ownable } from \"@openzeppelin/contracts/access/Ownable.sol\";\n\ncontract HashingProxy is Named, Versioned, Ownable {\n\n    using UnorderedIndexableContractDynamicSetLib for UnorderedIndexableContractDynamicSetLib.Set;\n\n    event NewHashFunctionContract(uint8 indexed hashFunctionId, address newContractAddress);\n    event HashFunctionContractChanged(uint8 indexed hashFunctionId, address newContractAddress);\n\n    string constant private _NAME = \"HashingProxy\";\n    string constant private _VERSION = \"1.0.0\";\n\n    UnorderedIndexableContractDynamicSetLib.Set hashFunctionSet;\n\n    function name() external pure virtual override returns (string memory) {\n        return _NAME;\n    }\n\n    function version() external pure virtual override returns (string memory) {\n        return _VERSION;\n    }\n\n    function setContractAddress(uint8 hashFunctionId, address hashingContractAddress) external onlyOwner {\n        if (hashFunctionSet.exists(hashFunctionId)) {\n            hashFunctionSet.update(hashFunctionId, hashingContractAddress);\n            emit HashFunctionContractChanged(hashFunctionId, hashingContractAddress);\n        } else {\n            hashFunctionSet.append(hashFunctionId, hashingContractAddress);\n            emit NewHashFunctionContract(hashFunctionId, hashingContractAddress);\n        }\n    }\n\n    function removeContract(uint8 hashFunctionId) external onlyOwner {\n        hashFunctionSet.remove(hashFunctionId);\n    }\n\n    function callHashFunction(uint8 hashFunctionId, bytes calldata data) external returns (bytes32) {\n        return IHashFunction(hashFunctionSet.get(hashFunctionId).addr).hash(data);\n    }\n\n    function getHashFunctionName(uint8 hashFunctionId) external view returns (string memory) {\n        return Named(hashFunctionSet.get(hashFunctionId).addr).name();\n    }\n\n    function getHashFunctionContractAddress(uint8 hashFunctionId) external view returns (address) {\n        return hashFunctionSet.get(hashFunctionId).addr;\n    }\n\n    function getAllHashFunctions() external view returns (UnorderedIndexableContractDynamicSetLib.Contract[] memory) {\n        return hashFunctionSet.getAll();\n    }\n\n    function isHashFunction(uint8 hashFunctionId) external view returns (bool) {\n        return hashFunctionSet.exists(hashFunctionId);\n    }\n\n}\n",
  "sourcePath": "/Users/waving/Desktop/OriginTrail/dkg-evm-module/contracts/HashingProxy.sol",
  "compiler": {
    "name": "solc",
    "version": "0.8.16+commit.07a7930e.Emscripten.clang"
  },
  "schemaVersion": "3.4.10",
  "updatedAt": "2022-12-05T18:13:09.834Z",
  "devdoc": {
    "kind": "dev",
    "methods": {
      "owner()": {
        "details": "Returns the address of the current owner."
      },
      "renounceOwnership()": {
        "details": "Leaves the contract without owner. It will not be possible to call `onlyOwner` functions anymore. Can only be called by the current owner. NOTE: Renouncing ownership will leave the contract without an owner, thereby removing any functionality that is only available to the owner."
      },
      "transferOwnership(address)": {
        "details": "Transfers ownership of the contract to a new account (`newOwner`). Can only be called by the current owner."
      }
    },
    "version": 1
  },
  "userdoc": {
    "kind": "user",
    "methods": {},
    "version": 1
  }
}