{
  "contractName": "Hub",
  "abi": [
    {
      "anonymous": false,
      "inputs": [
        {
          "indexed": false,
          "internalType": "string",
          "name": "contractName",
          "type": "string"
        },
        {
          "indexed": false,
          "internalType": "address",
          "name": "newContractAddress",
          "type": "address"
        }
      ],
      "name": "AssetContractChanged",
      "type": "event"
    },
    {
      "anonymous": false,
      "inputs": [
        {
          "indexed": false,
          "internalType": "string",
          "name": "contractName",
          "type": "string"
        },
        {
          "indexed": false,
          "internalType": "address",
          "name": "newContractAddress",
          "type": "address"
        }
      ],
      "name": "ContractChanged",
      "type": "event"
    },
    {
      "anonymous": false,
      "inputs": [
        {
          "indexed": false,
          "internalType": "string",
          "name": "contractName",
          "type": "string"
        },
        {
          "indexed": false,
          "internalType": "address",
          "name": "newContractAddress",
          "type": "address"
        }
      ],
      "name": "NewAssetContract",
      "type": "event"
    },
    {
      "anonymous": false,
      "inputs": [
        {
          "indexed": false,
          "internalType": "string",
          "name": "contractName",
          "type": "string"
        },
        {
          "indexed": false,
          "internalType": "address",
          "name": "newContractAddress",
          "type": "address"
        }
      ],
      "name": "NewContract",
      "type": "event"
    },
    {
      "anonymous": false,
      "inputs": [
        {
          "indexed": true,
          "internalType": "address",
          "name": "previousOwner",
          "type": "address"
        },
        {
          "indexed": true,
          "internalType": "address",
          "name": "newOwner",
          "type": "address"
        }
      ],
      "name": "OwnershipTransferred",
      "type": "event"
    },
    {
      "inputs": [],
      "name": "owner",
      "outputs": [
        {
          "internalType": "address",
          "name": "",
          "type": "address"
        }
      ],
      "stateMutability": "view",
      "type": "function"
    },
    {
      "inputs": [],
      "name": "renounceOwnership",
      "outputs": [],
      "stateMutability": "nonpayable",
      "type": "function"
    },
    {
      "inputs": [
        {
          "internalType": "address",
          "name": "newOwner",
          "type": "address"
        }
      ],
      "name": "transferOwnership",
      "outputs": [],
      "stateMutability": "nonpayable",
      "type": "function"
    },
    {
      "inputs": [],
      "name": "name",
      "outputs": [
        {
          "internalType": "string",
          "name": "",
          "type": "string"
        }
      ],
      "stateMutability": "pure",
      "type": "function"
    },
    {
      "inputs": [],
      "name": "version",
      "outputs": [
        {
          "internalType": "string",
          "name": "",
          "type": "string"
        }
      ],
      "stateMutability": "pure",
      "type": "function"
    },
    {
      "inputs": [
        {
          "internalType": "string",
          "name": "contractName",
          "type": "string"
        },
        {
          "internalType": "address",
          "name": "newContractAddress",
          "type": "address"
        }
      ],
      "name": "setContractAddress",
      "outputs": [],
      "stateMutability": "nonpayable",
      "type": "function"
    },
    {
      "inputs": [
        {
          "internalType": "string",
          "name": "assetContractName",
          "type": "string"
        },
        {
          "internalType": "address",
          "name": "assetContractAddress",
          "type": "address"
        }
      ],
      "name": "setAssetContractAddress",
      "outputs": [],
      "stateMutability": "nonpayable",
      "type": "function"
    },
    {
      "inputs": [
        {
          "internalType": "string",
          "name": "contractName",
          "type": "string"
        }
      ],
      "name": "getContractAddress",
      "outputs": [
        {
          "internalType": "address",
          "name": "",
          "type": "address"
        }
      ],
      "stateMutability": "view",
      "type": "function"
    },
    {
      "inputs": [
        {
          "internalType": "string",
          "name": "assetContractName",
          "type": "string"
        }
      ],
      "name": "getAssetContractAddress",
      "outputs": [
        {
          "internalType": "address",
          "name": "",
          "type": "address"
        }
      ],
      "stateMutability": "view",
      "type": "function"
    },
    {
      "inputs": [],
      "name": "getAllContracts",
      "outputs": [
        {
          "components": [
            {
              "internalType": "string",
              "name": "name",
              "type": "string"
            },
            {
              "internalType": "address",
              "name": "addr",
              "type": "address"
            }
          ],
          "internalType": "struct UnorderedNamedContractDynamicSetLib.Contract[]",
          "name": "",
          "type": "tuple[]"
        }
      ],
      "stateMutability": "view",
      "type": "function"
    },
    {
      "inputs": [],
      "name": "getAllAssetContracts",
      "outputs": [
        {
          "components": [
            {
              "internalType": "string",
              "name": "name",
              "type": "string"
            },
            {
              "internalType": "address",
              "name": "addr",
              "type": "address"
            }
          ],
          "internalType": "struct UnorderedNamedContractDynamicSetLib.Contract[]",
          "name": "",
          "type": "tuple[]"
        }
      ],
      "stateMutability": "view",
      "type": "function"
    },
    {
      "inputs": [
        {
          "internalType": "address",
          "name": "selectedContractAddress",
          "type": "address"
        }
      ],
      "name": "isContract",
      "outputs": [
        {
          "internalType": "bool",
          "name": "",
          "type": "bool"
        }
      ],
      "stateMutability": "view",
      "type": "function"
    },
    {
      "inputs": [
        {
          "internalType": "string",
          "name": "contractName",
          "type": "string"
        }
      ],
      "name": "isContract",
      "outputs": [
        {
          "internalType": "bool",
          "name": "",
          "type": "bool"
        }
      ],
      "stateMutability": "view",
      "type": "function"
    },
    {
      "inputs": [
        {
          "internalType": "address",
          "name": "assetContractAddress",
          "type": "address"
        }
      ],
      "name": "isAssetContract",
      "outputs": [
        {
          "internalType": "bool",
          "name": "",
          "type": "bool"
        }
      ],
      "stateMutability": "view",
      "type": "function"
    },
    {
      "inputs": [
        {
          "internalType": "string",
          "name": "assetContractName",
          "type": "string"
        }
      ],
      "name": "isAssetContract",
      "outputs": [
        {
          "internalType": "bool",
          "name": "",
          "type": "bool"
        }
      ],
      "stateMutability": "view",
      "type": "function"
    }
  ],
  "bytecode": "0x608060405234801561001057600080fd5b5061001a3361001f565b61006f565b600080546001600160a01b038381166001600160a01b0319831681178455604051919092169283917f8be0079c531659141344cd1fd0a4f28419497f9722a3daafe3b4186f6b6457e09190a35050565b6111c88061007e6000396000f3fe608060405234801561001057600080fd5b50600436106100f55760003560e01c80636654bb4011610097578063a95fb24b11610066578063a95fb24b14610207578063ac047dd21461021a578063f2fde38b1461022d578063fd496e811461024057600080fd5b80636654bb40146101d3578063715018a6146101db5780638d5d2d85146101e35780638da5cb5b146101f657600080fd5b806318d3ce96116100d357806318d3ce9614610175578063211e940e1461018a578063534e785c1461019d57806354fd4d50146101b257600080fd5b806304433bbc146100fa57806306fdde031461012a5780631627905514610152575b600080fd5b61010d610108366004610d6b565b610253565b6040516001600160a01b0390911681526020015b60405180910390f35b604080518082019091526003815262243ab160e91b60208201525b6040516101219190610df3565b610165610160366004610e22565b61026e565b6040519015158152602001610121565b61017d61027b565b6040516101219190610e3d565b610165610198366004610d6b565b61028c565b6101b06101ab366004610ebc565b6102a1565b005b6040805180820190915260058152640312e302e360dc1b6020820152610145565b61017d61034f565b6101b061035b565b6101656101f1366004610e22565b61036f565b6000546001600160a01b031661010d565b61010d610215366004610d6b565b61037c565b610165610228366004610d6b565b61038a565b6101b061023b366004610e22565b610398565b6101b061024e366004610ebc565b610416565b6000610261600184846104bf565b6020015190505b92915050565b6000610268600183610650565b606061028760016106c8565b905090565b600061029a600184846107d0565b9392505050565b6102a961088d565b6102b5600184846107d0565b15610307577fcb274d507e7a9978f5a8c15929fd58c472b8addc1a9bba454b0c0a49a05c91528383836040516102ed93929190610f10565b60405180910390a161030260018484846108e7565b505050565b7f208f725e4760f521e142bbc1400aa805d7e669438e05e416eddc3df3db3d453683838360405161033a93929190610f10565b60405180910390a16103026001848484610aa7565b606061028760046106c8565b61036361088d565b61036d6000610cd2565b565b6000610268600483610650565b6000610261600484846104bf565b600061029a600484846107d0565b6103a061088d565b6001600160a01b03811661040a5760405162461bcd60e51b815260206004820152602660248201527f4f776e61626c653a206e6577206f776e657220697320746865207a65726f206160448201526564647265737360d01b60648201526084015b60405180910390fd5b61041381610cd2565b50565b61041e61088d565b61042a600484846107d0565b15610477577f02048a00c6529e8f3f2fd9d35c4bdd9426b231d6c9b7d0795f41cb1a8e34342e83838360405161046293929190610f10565b60405180910390a161030260048484846108e7565b7f20d1c46e5a10f0527ef6a9cb0d023404cfe52d9a31053bc79f69191d053970e18383836040516104aa93929190610f10565b60405180910390a16103026004848484610aa7565b6040805180820190915260608152600060208201526104df8484846107d0565b6105515760405162461bcd60e51b815260206004820152603860248201527f4e616d6564436f6e74726163745365743a20436f6e747261637420776974682060448201527f676976656e206e616d6520646f65736e277420657869737400000000000000006064820152608401610401565b83600201846000018484604051610569929190610f51565b9081526020016040518091039020548154811061058857610588610f61565b90600052602060002090600202016040518060400160405290816000820180546105b190610f77565b80601f01602080910402602001604051908101604052809291908181526020018280546105dd90610f77565b801561062a5780601f106105ff5761010080835404028352916020019161062a565b820191906000526020600020905b81548152906001019060200180831161060d57829003601f168201915b5050509183525050600191909101546001600160a01b0316602090910152949350505050565b600061065d836002015490565b60000361066c57506000610268565b6001600160a01b0382166000908152600184016020526040902054600284018054909190811061069e5761069e610f61565b60009182526020909120600160029092020101546001600160a01b03838116911614905092915050565b606081600201805480602002602001604051908101604052809291908181526020016000905b828210156107c5578382906000526020600020906002020160405180604001604052908160008201805461072190610f77565b80601f016020809104026020016040519081016040528092919081815260200182805461074d90610f77565b801561079a5780601f1061076f5761010080835404028352916020019161079a565b820191906000526020600020905b81548152906001019060200180831161077d57829003601f168201915b50505091835250506001918201546001600160a01b03166020918201529183529290920191016106ee565b505050509050919050565b60006107dd846002015490565b6000036107ec5750600061029a565b82826040516020016107ff929190610f51565b604051602081830303815290604052805190602001208460020185600001858560405161082d929190610f51565b9081526020016040518091039020548154811061084c5761084c610f61565b906000526020600020906002020160000160405160200161086d9190610fb1565b604051602081830303815290604052805190602001201490509392505050565b6000546001600160a01b0316331461036d5760405162461bcd60e51b815260206004820181905260248201527f4f776e61626c653a2063616c6c6572206973206e6f7420746865206f776e65726044820152606401610401565b6001600160a01b03811661090d5760405162461bcd60e51b815260040161040190611027565b6109188484846107d0565b61098a5760405162461bcd60e51b815260206004820152603960248201527f4e616d6564436f6e74726163745365743a20436f6e747261637420776974682060448201527f676976656e206e616d6520646f65736e277420657869737473000000000000006064820152608401610401565b836001016000856002018660000186866040516109a8929190610f51565b908152602001604051809103902054815481106109c7576109c7610f61565b60009182526020808320600160029093020191909101546001600160a01b031683528201929092526040908101822091909155518490610a0a9085908590610f51565b908152604080519182900360209081018320546001600160a01b03851660009081526001890190925291902055819060028601908690610a4d9087908790610f51565b90815260200160405180910390205481548110610a6c57610a6c610f61565b906000526020600020906002020160010160006101000a8154816001600160a01b0302191690836001600160a01b0316021790555050505050565b6040805160008152602081018083528151902091610ac9918691869101610f51565b6040516020818303038152906040528051906020012003610b3b5760405162461bcd60e51b815260206004820152602660248201527f4e616d6564436f6e74726163745365743a204e616d652063616e6e6f7420626560448201526520656d70747960d01b6064820152608401610401565b6001600160a01b038116610b615760405162461bcd60e51b815260040161040190611027565b610b6c8484846107d0565b15610bdf5760405162461bcd60e51b815260206004820152603960248201527f4e616d6564436f6e74726163745365743a20436f6e747261637420776974682060448201527f676976656e206e616d6520616c726561647920657869737473000000000000006064820152608401610401565b60028401546040518590610bf69086908690610f51565b90815260405190819003602001902055610c11846002015490565b6001600160a01b03821660009081526001860160209081526040918290209290925580516060601f86018490049093028101830182529081018481526002870192829190879087908190850183828082843760009201829052509385525050506001600160a01b0385166020928301528354600181018555938152208151919260020201908190610ca290826110d2565b5060209190910151600190910180546001600160a01b0319166001600160a01b0390921691909117905550505050565b600080546001600160a01b038381166001600160a01b0319831681178455604051919092169283917f8be0079c531659141344cd1fd0a4f28419497f9722a3daafe3b4186f6b6457e09190a35050565b60008083601f840112610d3457600080fd5b50813567ffffffffffffffff811115610d4c57600080fd5b602083019150836020828501011115610d6457600080fd5b9250929050565b60008060208385031215610d7e57600080fd5b823567ffffffffffffffff811115610d9557600080fd5b610da185828601610d22565b90969095509350505050565b6000815180845260005b81811015610dd357602081850181015186830182015201610db7565b506000602082860101526020601f19601f83011685010191505092915050565b60208152600061029a6020830184610dad565b80356001600160a01b0381168114610e1d57600080fd5b919050565b600060208284031215610e3457600080fd5b61029a82610e06565b60006020808301818452808551808352604092508286019150828160051b87010184880160005b83811015610eae57888303603f1901855281518051878552610e8888860182610dad565b918901516001600160a01b03169489019490945294870194925090860190600101610e64565b509098975050505050505050565b600080600060408486031215610ed157600080fd5b833567ffffffffffffffff811115610ee857600080fd5b610ef486828701610d22565b9094509250610f07905060208501610e06565b90509250925092565b6040815282604082015282846060830137600060608483018101919091526001600160a01b03929092166020820152601f909201601f191690910101919050565b8183823760009101908152919050565b634e487b7160e01b600052603260045260246000fd5b600181811c90821680610f8b57607f821691505b602082108103610fab57634e487b7160e01b600052602260045260246000fd5b50919050565b6000808354610fbf81610f77565b60018281168015610fd75760018114610fec5761101b565b60ff198416875282151583028701945061101b565b8760005260208060002060005b858110156110125781548a820152908401908201610ff9565b50505082870194505b50929695505050505050565b60208082526027908201527f4e616d6564436f6e74726163745365743a20416464726573732063616e6e6f746040820152660206265203078360cc1b606082015260800190565b634e487b7160e01b600052604160045260246000fd5b601f82111561030257600081815260208120601f850160051c810160208610156110ab5750805b601f850160051c820191505b818110156110ca578281556001016110b7565b505050505050565b815167ffffffffffffffff8111156110ec576110ec61106e565b611100816110fa8454610f77565b84611084565b602080601f831160018114611135576000841561111d5750858301515b600019600386901b1c1916600185901b1785556110ca565b600085815260208120601f198616915b8281101561116457888601518255948401946001909101908401611145565b50858210156111825787850151600019600388901b60f8161c191681555b5050505050600190811b0190555056fea26469706673582212201006fef59f4846f99f631287a228a89413673e3d72555e61badc81d0909af70e64736f6c63430008100033",
  "immutableReferences": {},
  "source": "// SPDX-License-Identifier: MIT\n\npragma solidity ^0.8.4;\n\nimport { Named } from \"./interface/Named.sol\";\nimport { Versioned } from \"./interface/Versioned.sol\";\nimport { UnorderedNamedContractDynamicSetLib } from \"./utils/UnorderedNamedContractDynamicSet.sol\";\nimport { Ownable } from \"@openzeppelin/contracts/access/Ownable.sol\";\n\ncontract Hub is Named, Versioned, Ownable {\n\n    using UnorderedNamedContractDynamicSetLib for UnorderedNamedContractDynamicSetLib.Set;\n\n    event NewContract(string contractName, address newContractAddress);\n    event ContractChanged(string contractName, address newContractAddress);\n    event NewAssetContract(string contractName, address newContractAddress);\n    event AssetContractChanged(string contractName, address newContractAddress);\n\n    string constant private _NAME = \"Hub\";\n    string constant private _VERSION = \"1.0.0\";\n\n    UnorderedNamedContractDynamicSetLib.Set contractSet;\n    UnorderedNamedContractDynamicSetLib.Set assetContractSet;\n\n    function name() external pure virtual override returns (string memory) {\n        return _NAME;\n    }\n\n    function version() external pure virtual override returns (string memory) {\n        return _VERSION;\n    }\n\n    function setContractAddress(string calldata contractName, address newContractAddress) external onlyOwner {\n        if(contractSet.exists(contractName)) {\n            emit ContractChanged(contractName, newContractAddress);\n            contractSet.update(contractName, newContractAddress);\n        } else {\n            emit NewContract(contractName, newContractAddress);\n            contractSet.append(contractName, newContractAddress);\n        }\n    }\n\n    function setAssetContractAddress(string calldata assetContractName, address assetContractAddress)\n        external\n        onlyOwner\n    {\n        if(assetContractSet.exists(assetContractName)) {\n            emit AssetContractChanged(assetContractName, assetContractAddress);\n            assetContractSet.update(assetContractName, assetContractAddress);\n        } else {\n            emit NewAssetContract(assetContractName, assetContractAddress);\n            assetContractSet.append(assetContractName, assetContractAddress);\n        }\n    }\n\n    function getContractAddress(string calldata contractName) external view returns (address) {\n        return contractSet.get(contractName).addr;\n    }\n\n    function getAssetContractAddress(string calldata assetContractName) external view returns (address) {\n        return assetContractSet.get(assetContractName).addr;\n    }\n\n    function getAllContracts() external view returns (UnorderedNamedContractDynamicSetLib.Contract[] memory) {\n        return contractSet.getAll();\n    }\n\n    function getAllAssetContracts() external view returns (UnorderedNamedContractDynamicSetLib.Contract[] memory) {\n        return assetContractSet.getAll();\n    }\n\n    function isContract(string calldata contractName) external view returns (bool) {\n        return contractSet.exists(contractName);\n    }\n    \n    function isContract(address selectedContractAddress) external view returns (bool) {\n        return contractSet.exists(selectedContractAddress);\n    }\n\n    function isAssetContract(string calldata assetContractName) external view returns (bool) {\n        return assetContractSet.exists(assetContractName);\n    }\n\n    function isAssetContract(address assetContractAddress) external view returns (bool) {\n        return assetContractSet.exists(assetContractAddress);\n    }\n\n}\n",
  "sourcePath": "/Users/waving/Desktop/OriginTrail/dkg-evm-module/contracts/Hub.sol",
  "compiler": {
    "name": "solc",
    "version": "0.8.16+commit.07a7930e.Emscripten.clang"
  },
  "schemaVersion": "3.4.10",
  "updatedAt": "2022-12-06T13:28:09.141Z",
  "devdoc": {
    "kind": "dev",
    "methods": {
      "owner()": {
        "details": "Returns the address of the current owner."
      },
      "renounceOwnership()": {
        "details": "Leaves the contract without owner. It will not be possible to call `onlyOwner` functions anymore. Can only be called by the current owner. NOTE: Renouncing ownership will leave the contract without an owner, thereby removing any functionality that is only available to the owner."
      },
      "transferOwnership(address)": {
        "details": "Transfers ownership of the contract to a new account (`newOwner`). Can only be called by the current owner."
      }
    },
    "version": 1
  },
  "userdoc": {
    "kind": "user",
    "methods": {},
    "version": 1
  }
}