{
  "contractName": "Hub",
  "abi": [
    {
      "anonymous": false,
      "inputs": [
        {
          "indexed": false,
          "internalType": "string",
          "name": "contractName",
          "type": "string"
        },
        {
          "indexed": false,
          "internalType": "address",
          "name": "newContractAddress",
          "type": "address"
        }
      ],
      "name": "AssetContractChanged",
      "type": "event"
    },
    {
      "anonymous": false,
      "inputs": [
        {
          "indexed": false,
          "internalType": "string",
          "name": "contractName",
          "type": "string"
        },
        {
          "indexed": false,
          "internalType": "address",
          "name": "newContractAddress",
          "type": "address"
        }
      ],
      "name": "ContractChanged",
      "type": "event"
    },
    {
      "anonymous": false,
      "inputs": [
        {
          "indexed": false,
          "internalType": "string",
          "name": "contractName",
          "type": "string"
        },
        {
          "indexed": false,
          "internalType": "address",
          "name": "newContractAddress",
          "type": "address"
        }
      ],
      "name": "NewAssetContract",
      "type": "event"
    },
    {
      "anonymous": false,
      "inputs": [
        {
          "indexed": false,
          "internalType": "string",
          "name": "contractName",
          "type": "string"
        },
        {
          "indexed": false,
          "internalType": "address",
          "name": "newContractAddress",
          "type": "address"
        }
      ],
      "name": "NewContract",
      "type": "event"
    },
    {
      "anonymous": false,
      "inputs": [
        {
          "indexed": true,
          "internalType": "address",
          "name": "previousOwner",
          "type": "address"
        },
        {
          "indexed": true,
          "internalType": "address",
          "name": "newOwner",
          "type": "address"
        }
      ],
      "name": "OwnershipTransferred",
      "type": "event"
    },
    {
      "inputs": [],
      "name": "owner",
      "outputs": [
        {
          "internalType": "address",
          "name": "",
          "type": "address"
        }
      ],
      "stateMutability": "view",
      "type": "function"
    },
    {
      "inputs": [],
      "name": "renounceOwnership",
      "outputs": [],
      "stateMutability": "nonpayable",
      "type": "function"
    },
    {
      "inputs": [
        {
          "internalType": "address",
          "name": "newOwner",
          "type": "address"
        }
      ],
      "name": "transferOwnership",
      "outputs": [],
      "stateMutability": "nonpayable",
      "type": "function"
    },
    {
      "inputs": [
        {
          "internalType": "string",
          "name": "contractName",
          "type": "string"
        },
        {
          "internalType": "address",
          "name": "newContractAddress",
          "type": "address"
        }
      ],
      "name": "setContractAddress",
      "outputs": [],
      "stateMutability": "nonpayable",
      "type": "function"
    },
    {
      "inputs": [
        {
          "internalType": "string",
          "name": "assetContractName",
          "type": "string"
        },
        {
          "internalType": "address",
          "name": "assetContractAddress",
          "type": "address"
        }
      ],
      "name": "setAssetContractAddress",
      "outputs": [],
      "stateMutability": "nonpayable",
      "type": "function"
    },
    {
      "inputs": [
        {
          "internalType": "string",
          "name": "contractName",
          "type": "string"
        }
      ],
      "name": "getContractAddress",
      "outputs": [
        {
          "internalType": "address",
          "name": "",
          "type": "address"
        }
      ],
      "stateMutability": "view",
      "type": "function"
    },
    {
      "inputs": [
        {
          "internalType": "string",
          "name": "assetContractName",
          "type": "string"
        }
      ],
      "name": "getAssetContractAddress",
      "outputs": [
        {
          "internalType": "address",
          "name": "",
          "type": "address"
        }
      ],
      "stateMutability": "view",
      "type": "function"
    },
    {
      "inputs": [],
      "name": "getAllAssetContracts",
      "outputs": [
        {
          "components": [
            {
              "internalType": "string",
              "name": "name",
              "type": "string"
            },
            {
              "internalType": "address",
              "name": "addr",
              "type": "address"
            }
          ],
          "internalType": "struct UnorderedNamedContractDynamicSetLib.Contract[]",
          "name": "",
          "type": "tuple[]"
        }
      ],
      "stateMutability": "view",
      "type": "function"
    },
    {
      "inputs": [
        {
          "internalType": "address",
          "name": "selectedContractAddress",
          "type": "address"
        }
      ],
      "name": "isContract",
      "outputs": [
        {
          "internalType": "bool",
          "name": "",
          "type": "bool"
        }
      ],
      "stateMutability": "view",
      "type": "function"
    },
    {
      "inputs": [
        {
          "internalType": "address",
          "name": "assetContractAddress",
          "type": "address"
        }
      ],
      "name": "isAssetContract",
      "outputs": [
        {
          "internalType": "bool",
          "name": "",
          "type": "bool"
        }
      ],
      "stateMutability": "view",
      "type": "function"
    },
    {
      "inputs": [
        {
          "internalType": "string",
          "name": "assetContractName",
          "type": "string"
        }
      ],
      "name": "isAssetContract",
      "outputs": [
        {
          "internalType": "bool",
          "name": "",
          "type": "bool"
        }
      ],
      "stateMutability": "view",
      "type": "function"
    }
  ],
  "bytecode": "0x608060405234801561001057600080fd5b5061001a3361001f565b61006f565b600080546001600160a01b038381166001600160a01b0319831681178455604051919092169283917f8be0079c531659141344cd1fd0a4f28419497f9722a3daafe3b4186f6b6457e09190a35050565b61171e8061007e6000396000f3fe608060405234801561001057600080fd5b50600436106100c95760003560e01c80638d5d2d8511610081578063ac047dd21161005b578063ac047dd2146101ca578063f2fde38b146101dd578063fd496e81146101f057600080fd5b80638d5d2d85146101865780638da5cb5b14610199578063a95fb24b146101b757600080fd5b8063534e785c116100b2578063534e785c146101545780636654bb4014610169578063715018a61461017e57600080fd5b806304433bbc146100ce578063162790551461010b575b600080fd5b6100e16100dc36600461121b565b610203565b60405173ffffffffffffffffffffffffffffffffffffffff90911681526020015b60405180910390f35b610144610119366004611286565b73ffffffffffffffffffffffffffffffffffffffff1660009081526002602052604090205460ff1690565b6040519015158152602001610102565b6101676101623660046112a1565b61027c565b005b6101716104dd565b6040516101029190611325565b6101676104ee565b610144610194366004611286565b610502565b60005473ffffffffffffffffffffffffffffffffffffffff166100e1565b6100e16101c536600461121b565b61050f565b6101446101d836600461121b565b610528565b6101676101eb366004611286565b61053d565b6101676101fe3660046112a1565b6105f4565b6000808383604051602001610219929190611401565b604080517fffffffffffffffffffffffffffffffffffffffffffffffffffffffffffffffe081840301815291815281516020928301206000908152600190925290205473ffffffffffffffffffffffffffffffffffffffff169150505b92915050565b6102846106a2565b73ffffffffffffffffffffffffffffffffffffffff8116610306576040517f08c379a000000000000000000000000000000000000000000000000000000000815260206004820181905260248201527f436f6e747261637420616464726573732063616e6e6f7420626520656d70747960448201526064015b60405180910390fd5b6000838360405160200161031b929190611401565b604080517fffffffffffffffffffffffffffffffffffffffffffffffffffffffffffffffe081840301815291815281516020928301206000818152600190935291205490915073ffffffffffffffffffffffffffffffffffffffff16156104175760008181526001602090815260408083205473ffffffffffffffffffffffffffffffffffffffff1680845260029092529182902080547fffffffffffffffffffffffffffffffffffffffffffffffffffffffffffffff0016905590517fcb274d507e7a9978f5a8c15929fd58c472b8addc1a9bba454b0c0a49a05c91529061040990879087908790611411565b60405180910390a150610453565b7f208f725e4760f521e142bbc1400aa805d7e669438e05e416eddc3df3db3d453684848460405161044a93929190611411565b60405180910390a15b6000908152600160208181526040808420805473ffffffffffffffffffffffffffffffffffffffff9096167fffffffffffffffffffffffff0000000000000000000000000000000000000000909616861790559383526002905291902080547fffffffffffffffffffffffffffffffffffffffffffffffffffffffffffffff001690911790555050565b60606104e96003610723565b905090565b6104f66106a2565b6105006000610838565b565b60006102766003836108ad565b600061051d600384846109fb565b602001519392505050565b600061053660038484610bb3565b9392505050565b6105456106a2565b73ffffffffffffffffffffffffffffffffffffffff81166105e8576040517f08c379a000000000000000000000000000000000000000000000000000000000815260206004820152602660248201527f4f776e61626c653a206e6577206f776e657220697320746865207a65726f206160448201527f646472657373000000000000000000000000000000000000000000000000000060648201526084016102fd565b6105f181610838565b50565b6105fc6106a2565b61060860038484610bb3565b1561065a577f02048a00c6529e8f3f2fd9d35c4bdd9426b231d6c9b7d0795f41cb1a8e34342e83838360405161064093929190611411565b60405180910390a16106556003848484610c70565b505050565b7f20d1c46e5a10f0527ef6a9cb0d023404cfe52d9a31053bc79f69191d053970e183838360405161068d93929190611411565b60405180910390a16106556003848484610e37565b60005473ffffffffffffffffffffffffffffffffffffffff163314610500576040517f08c379a000000000000000000000000000000000000000000000000000000000815260206004820181905260248201527f4f776e61626c653a2063616c6c6572206973206e6f7420746865206f776e657260448201526064016102fd565b606081600101805480602002602001604051908101604052809291908181526020016000905b8282101561082d578382906000526020600020906002020160405180604001604052908160008201805461077c9061147e565b80601f01602080910402602001604051908101604052809291908181526020018280546107a89061147e565b80156107f55780601f106107ca576101008083540402835291602001916107f5565b820191906000526020600020905b8154815290600101906020018083116107d857829003601f168201915b505050918352505060019182015473ffffffffffffffffffffffffffffffffffffffff16602091820152918352929092019101610749565b505050509050919050565b6000805473ffffffffffffffffffffffffffffffffffffffff8381167fffffffffffffffffffffffff0000000000000000000000000000000000000000831681178455604051919092169283917f8be0079c531659141344cd1fd0a4f28419497f9722a3daafe3b4186f6b6457e09190a35050565b60006108ba836001015490565b6000036108c957506000610276565b60008273ffffffffffffffffffffffffffffffffffffffff166306fdde036040518163ffffffff1660e01b8152600401600060405180830381865afa158015610916573d6000803e3d6000fd5b505050506040513d6000823e601f3d9081017fffffffffffffffffffffffffffffffffffffffffffffffffffffffffffffffe016820160405261095c9190810190611500565b90508060405160200161096f91906115cb565b6040516020818303038152906040528051906020012084600101856000018360405161099b91906115cb565b908152602001604051809103902054815481106109ba576109ba6115e7565b90600052602060002090600202016000016040516020016109db9190611616565b604051602081830303815290604052805190602001201491505092915050565b604080518082019091526060815260006020820152610a1b848484610bb3565b610aa7576040517f08c379a000000000000000000000000000000000000000000000000000000000815260206004820152603a60248201527f284e616d6564436f6e74726163745365742920436f6e7472616374207769746860448201527f20676976656e206e616d6520646f65736e27742065786973747300000000000060648201526084016102fd565b83600101846000018484604051610abf929190611401565b90815260200160405180910390205481548110610ade57610ade6115e7565b9060005260206000209060020201604051806040016040529081600082018054610b079061147e565b80601f0160208091040260200160405190810160405280929190818152602001828054610b339061147e565b8015610b805780601f10610b5557610100808354040283529160200191610b80565b820191906000526020600020905b815481529060010190602001808311610b6357829003601f168201915b50505091835250506001919091015473ffffffffffffffffffffffffffffffffffffffff16602090910152949350505050565b6000610bc0846001015490565b600003610bcf57506000610536565b8282604051602001610be2929190611401565b6040516020818303038152906040528051906020012084600101856000018585604051610c10929190611401565b90815260200160405180910390205481548110610c2f57610c2f6115e7565b9060005260206000209060020201600001604051602001610c509190611616565b604051602081830303815290604052805190602001201490509392505050565b73ffffffffffffffffffffffffffffffffffffffff8116610d13576040517f08c379a000000000000000000000000000000000000000000000000000000000815260206004820152602860248201527f284e616d6564436f6e74726163745365742920416464726573732063616e6e6f60448201527f742062652030783000000000000000000000000000000000000000000000000060648201526084016102fd565b610d1e848484610bb3565b610daa576040517f08c379a000000000000000000000000000000000000000000000000000000000815260206004820152603a60248201527f284e616d6564436f6e74726163745365742920436f6e7472616374207769746860448201527f20676976656e206e616d6520646f65736e27742065786973747300000000000060648201526084016102fd565b8084600101856000018585604051610dc3929190611401565b90815260200160405180910390205481548110610de257610de26115e7565b906000526020600020906002020160010160006101000a81548173ffffffffffffffffffffffffffffffffffffffff021916908373ffffffffffffffffffffffffffffffffffffffff16021790555050505050565b6040805160008152602081018083528151902091610e59918691869101611401565b6040516020818303038152906040528051906020012003610efc576040517f08c379a000000000000000000000000000000000000000000000000000000000815260206004820152602760248201527f284e616d6564436f6e747261637453657429204e616d652063616e6e6f74206260448201527f6520656d7074790000000000000000000000000000000000000000000000000060648201526084016102fd565b73ffffffffffffffffffffffffffffffffffffffff8116610f9f576040517f08c379a000000000000000000000000000000000000000000000000000000000815260206004820152602860248201527f284e616d6564436f6e74726163745365742920416464726573732063616e6e6f60448201527f742062652030783000000000000000000000000000000000000000000000000060648201526084016102fd565b610faa848484610bb3565b15611037576040517f08c379a000000000000000000000000000000000000000000000000000000000815260206004820152603a60248201527f284e616d6564436f6e74726163745365742920436f6e7472616374207769746860448201527f20676976656e206e616d6520616c72656164792065786973747300000000000060648201526084016102fd565b6001840154604051859061104e9086908690611401565b908152604080519182900360209081018320939093556060601f8601849004909302820183018152810184815260018701928291908790879081908501838280828437600092018290525093855250505073ffffffffffffffffffffffffffffffffffffffff85166020928301528354600181018555938152819020825180519394600202909101926110e49284920190611139565b5060209190910151600190910180547fffffffffffffffffffffffff00000000000000000000000000000000000000001673ffffffffffffffffffffffffffffffffffffffff90921691909117905550505050565b8280546111459061147e565b90600052602060002090601f01602090048101928261116757600085556111ad565b82601f1061118057805160ff19168380011785556111ad565b828001600101855582156111ad579182015b828111156111ad578251825591602001919060010190611192565b506111b99291506111bd565b5090565b5b808211156111b957600081556001016111be565b60008083601f8401126111e457600080fd5b50813567ffffffffffffffff8111156111fc57600080fd5b60208301915083602082850101111561121457600080fd5b9250929050565b6000806020838503121561122e57600080fd5b823567ffffffffffffffff81111561124557600080fd5b611251858286016111d2565b90969095509350505050565b803573ffffffffffffffffffffffffffffffffffffffff8116811461128157600080fd5b919050565b60006020828403121561129857600080fd5b6105368261125d565b6000806000604084860312156112b657600080fd5b833567ffffffffffffffff8111156112cd57600080fd5b6112d9868287016111d2565b90945092506112ec90506020850161125d565b90509250925092565b60005b838110156113105781810151838201526020016112f8565b8381111561131f576000848401525b50505050565b60006020808301818452808551808352604092508286019150828160051b87010184880160005b838110156113f3577fffffffffffffffffffffffffffffffffffffffffffffffffffffffffffffffc08984030185528151805187855280518089870152606061139a828289018d86016112f5565b928a015173ffffffffffffffffffffffffffffffffffffffff16868b015296890196601f017fffffffffffffffffffffffffffffffffffffffffffffffffffffffffffffffe0169094010192509086019060010161134c565b509098975050505050505050565b8183823760009101908152919050565b6040815282604082015282846060830137600060608483010152600060607fffffffffffffffffffffffffffffffffffffffffffffffffffffffffffffffe0601f860116830101905073ffffffffffffffffffffffffffffffffffffffff83166020830152949350505050565b600181811c9082168061149257607f821691505b6020821081036114cb577f4e487b7100000000000000000000000000000000000000000000000000000000600052602260045260246000fd5b50919050565b7f4e487b7100000000000000000000000000000000000000000000000000000000600052604160045260246000fd5b60006020828403121561151257600080fd5b815167ffffffffffffffff8082111561152a57600080fd5b818401915084601f83011261153e57600080fd5b815181811115611550576115506114d1565b604051601f82017fffffffffffffffffffffffffffffffffffffffffffffffffffffffffffffffe0908116603f01168101908382118183101715611596576115966114d1565b816040528281528760208487010111156115af57600080fd5b6115c08360208301602088016112f5565b979650505050505050565b600082516115dd8184602087016112f5565b9190910192915050565b7f4e487b7100000000000000000000000000000000000000000000000000000000600052603260045260246000fd5b600080835481600182811c91508083168061163257607f831692505b6020808410820361166a577f4e487b710000000000000000000000000000000000000000000000000000000086526022600452602486fd5b81801561167e57600181146116ad576116da565b7fffffffffffffffffffffffffffffffffffffffffffffffffffffffffffffff008616895284890196506116da565b60008a81526020902060005b868110156116d25781548b8201529085019083016116b9565b505084890196505b50949897505050505050505056fea2646970667358221220d50136795b61a81c9585ed725d95e8b5f7924a94b3e2895cd53a11a91b7eff5164736f6c634300080e0033",
  "immutableReferences": {},
  "source": "// SPDX-License-Identifier: MIT\n\npragma solidity ^0.8.0;\n\nimport { UnorderedNamedContractDynamicSetLib } from \"./utils/UnorderedNamedContractDynamicSet.sol\";\nimport { Ownable } from \"@openzeppelin/contracts/access/Ownable.sol\";\n\ncontract Hub is Ownable{\n\n    using UnorderedNamedContractDynamicSetLib for UnorderedNamedContractDynamicSetLib.Set;\n\n    event NewContract(string contractName, address newContractAddress);\n    event ContractChanged(string contractName, address newContractAddress);\n    event NewAssetContract(string contractName, address newContractAddress);\n    event AssetContractChanged(string contractName, address newContractAddress);\n\n    mapping(bytes32 => address) contractAddress;\n    mapping(address => bool) contractList;\n\n    UnorderedNamedContractDynamicSetLib.Set assetContractSet;\n\n    function setContractAddress(string calldata contractName, address newContractAddress) external onlyOwner {\n        require(newContractAddress != address(0), \"Contract address cannot be empty\");\n\n        bytes32 index = keccak256(abi.encodePacked(contractName));\n\n        if(contractAddress[index] != address(0)) {\n            address oldContractAddress = contractAddress[index];\n            contractList[oldContractAddress] = false;\n\n            emit ContractChanged(contractName, newContractAddress);\n        } else {\n            emit NewContract(contractName, newContractAddress);\n        }\n\n        contractAddress[index] = newContractAddress;\n        contractList[newContractAddress] = true;\n    }\n\n    function setAssetContractAddress(string calldata assetContractName, address assetContractAddress)\n        external\n        onlyOwner\n    {\n        if(assetContractSet.exists(assetContractName)) {\n            emit AssetContractChanged(assetContractName, assetContractAddress);\n            assetContractSet.update(assetContractName, assetContractAddress);\n        } else {\n            emit NewAssetContract(assetContractName, assetContractAddress);\n            assetContractSet.append(assetContractName, assetContractAddress);\n        }\n    }\n\n    function getContractAddress(string calldata contractName) external view returns (address) {\n        bytes32 index = keccak256(abi.encodePacked(contractName));\n        return contractAddress[index];\n    }\n\n    function getAssetContractAddress(string calldata assetContractName) external view returns (address) {\n        return assetContractSet.get(assetContractName).addr;\n    }\n\n    function getAllAssetContracts() external view returns (UnorderedNamedContractDynamicSetLib.Contract[] memory) {\n        return assetContractSet.getAll();\n    }\n    \n    function isContract(address selectedContractAddress) external view returns (bool) {\n        return contractList[selectedContractAddress];\n    }\n\n    function isAssetContract(string calldata assetContractName) external view returns (bool) {\n        return assetContractSet.exists(assetContractName);\n    }\n\n    function isAssetContract(address assetContractAddress) external view returns (bool) {\n        return assetContractSet.exists(assetContractAddress);\n    }\n\n}\n",
  "sourcePath": "/Users/waving/Desktop/OriginTrail/dkg-evm-module/contracts/Hub.sol",
  "compiler": {
    "name": "solc",
    "version": "0.8.14+commit.80d49f37.Emscripten.clang"
  },
  "schemaVersion": "3.4.10",
  "updatedAt": "2022-12-02T11:59:36.406Z",
  "devdoc": {
    "kind": "dev",
    "methods": {
      "owner()": {
        "details": "Returns the address of the current owner."
      },
      "renounceOwnership()": {
        "details": "Leaves the contract without owner. It will not be possible to call `onlyOwner` functions anymore. Can only be called by the current owner. NOTE: Renouncing ownership will leave the contract without an owner, thereby removing any functionality that is only available to the owner."
      },
      "transferOwnership(address)": {
        "details": "Transfers ownership of the contract to a new account (`newOwner`). Can only be called by the current owner."
      }
    },
    "version": 1
  },
  "userdoc": {
    "kind": "user",
    "methods": {},
    "version": 1
  }
}