{
  "contractName": "Hub",
  "abi": [
    {
      "anonymous": false,
      "inputs": [
        {
          "indexed": false,
          "internalType": "string",
          "name": "contractName",
          "type": "string"
        },
        {
          "indexed": false,
          "internalType": "address",
          "name": "newContractAddress",
          "type": "address"
        }
      ],
      "name": "AssetContractChanged",
      "type": "event"
    },
    {
      "anonymous": false,
      "inputs": [
        {
          "indexed": false,
          "internalType": "string",
          "name": "contractName",
          "type": "string"
        },
        {
          "indexed": false,
          "internalType": "address",
          "name": "newContractAddress",
          "type": "address"
        }
      ],
      "name": "ContractChanged",
      "type": "event"
    },
    {
      "anonymous": false,
      "inputs": [
        {
          "indexed": false,
          "internalType": "string",
          "name": "contractName",
          "type": "string"
        },
        {
          "indexed": false,
          "internalType": "address",
          "name": "newContractAddress",
          "type": "address"
        }
      ],
      "name": "NewAssetContract",
      "type": "event"
    },
    {
      "anonymous": false,
      "inputs": [
        {
          "indexed": false,
          "internalType": "string",
          "name": "contractName",
          "type": "string"
        },
        {
          "indexed": false,
          "internalType": "address",
          "name": "newContractAddress",
          "type": "address"
        }
      ],
      "name": "NewContract",
      "type": "event"
    },
    {
      "anonymous": false,
      "inputs": [
        {
          "indexed": true,
          "internalType": "address",
          "name": "previousOwner",
          "type": "address"
        },
        {
          "indexed": true,
          "internalType": "address",
          "name": "newOwner",
          "type": "address"
        }
      ],
      "name": "OwnershipTransferred",
      "type": "event"
    },
    {
      "inputs": [],
      "name": "owner",
      "outputs": [
        {
          "internalType": "address",
          "name": "",
          "type": "address"
        }
      ],
      "stateMutability": "view",
      "type": "function"
    },
    {
      "inputs": [],
      "name": "renounceOwnership",
      "outputs": [],
      "stateMutability": "nonpayable",
      "type": "function"
    },
    {
      "inputs": [
        {
          "internalType": "address",
          "name": "newOwner",
          "type": "address"
        }
      ],
      "name": "transferOwnership",
      "outputs": [],
      "stateMutability": "nonpayable",
      "type": "function"
    },
    {
      "inputs": [],
      "name": "name",
      "outputs": [
        {
          "internalType": "string",
          "name": "",
          "type": "string"
        }
      ],
      "stateMutability": "pure",
      "type": "function"
    },
    {
      "inputs": [],
      "name": "version",
      "outputs": [
        {
          "internalType": "string",
          "name": "",
          "type": "string"
        }
      ],
      "stateMutability": "pure",
      "type": "function"
    },
    {
      "inputs": [
        {
          "internalType": "string",
          "name": "contractName",
          "type": "string"
        },
        {
          "internalType": "address",
          "name": "newContractAddress",
          "type": "address"
        }
      ],
      "name": "setContractAddress",
      "outputs": [],
      "stateMutability": "nonpayable",
      "type": "function"
    },
    {
      "inputs": [
        {
          "internalType": "string",
          "name": "assetContractName",
          "type": "string"
        },
        {
          "internalType": "address",
          "name": "assetContractAddress",
          "type": "address"
        }
      ],
      "name": "setAssetContractAddress",
      "outputs": [],
      "stateMutability": "nonpayable",
      "type": "function"
    },
    {
      "inputs": [
        {
          "internalType": "string",
          "name": "contractName",
          "type": "string"
        }
      ],
      "name": "getContractAddress",
      "outputs": [
        {
          "internalType": "address",
          "name": "",
          "type": "address"
        }
      ],
      "stateMutability": "view",
      "type": "function"
    },
    {
      "inputs": [
        {
          "internalType": "string",
          "name": "assetContractName",
          "type": "string"
        }
      ],
      "name": "getAssetContractAddress",
      "outputs": [
        {
          "internalType": "address",
          "name": "",
          "type": "address"
        }
      ],
      "stateMutability": "view",
      "type": "function"
    },
    {
      "inputs": [],
      "name": "getAllContracts",
      "outputs": [
        {
          "components": [
            {
              "internalType": "string",
              "name": "name",
              "type": "string"
            },
            {
              "internalType": "address",
              "name": "addr",
              "type": "address"
            }
          ],
          "internalType": "struct UnorderedNamedContractDynamicSetLib.Contract[]",
          "name": "",
          "type": "tuple[]"
        }
      ],
      "stateMutability": "view",
      "type": "function"
    },
    {
      "inputs": [],
      "name": "getAllAssetContracts",
      "outputs": [
        {
          "components": [
            {
              "internalType": "string",
              "name": "name",
              "type": "string"
            },
            {
              "internalType": "address",
              "name": "addr",
              "type": "address"
            }
          ],
          "internalType": "struct UnorderedNamedContractDynamicSetLib.Contract[]",
          "name": "",
          "type": "tuple[]"
        }
      ],
      "stateMutability": "view",
      "type": "function"
    },
    {
      "inputs": [
        {
          "internalType": "address",
          "name": "selectedContractAddress",
          "type": "address"
        }
      ],
      "name": "isContract",
      "outputs": [
        {
          "internalType": "bool",
          "name": "",
          "type": "bool"
        }
      ],
      "stateMutability": "view",
      "type": "function"
    },
    {
      "inputs": [
        {
          "internalType": "string",
          "name": "contractName",
          "type": "string"
        }
      ],
      "name": "isContract",
      "outputs": [
        {
          "internalType": "bool",
          "name": "",
          "type": "bool"
        }
      ],
      "stateMutability": "view",
      "type": "function"
    },
    {
      "inputs": [
        {
          "internalType": "address",
          "name": "assetContractAddress",
          "type": "address"
        }
      ],
      "name": "isAssetContract",
      "outputs": [
        {
          "internalType": "bool",
          "name": "",
          "type": "bool"
        }
      ],
      "stateMutability": "view",
      "type": "function"
    },
    {
      "inputs": [
        {
          "internalType": "string",
          "name": "assetContractName",
          "type": "string"
        }
      ],
      "name": "isAssetContract",
      "outputs": [
        {
          "internalType": "bool",
          "name": "",
          "type": "bool"
        }
      ],
      "stateMutability": "view",
      "type": "function"
    }
  ],
  "bytecode": "0x608060405234801561001057600080fd5b5061001a3361001f565b61006f565b600080546001600160a01b038381166001600160a01b0319831681178455604051919092169283917f8be0079c531659141344cd1fd0a4f28419497f9722a3daafe3b4186f6b6457e09190a35050565b6112258061007e6000396000f3fe608060405234801561001057600080fd5b50600436106100f55760003560e01c80636654bb4011610097578063a95fb24b11610066578063a95fb24b14610207578063ac047dd21461021a578063f2fde38b1461022d578063fd496e811461024057600080fd5b80636654bb40146101d3578063715018a6146101db5780638d5d2d85146101e35780638da5cb5b146101f657600080fd5b806318d3ce96116100d357806318d3ce9614610175578063211e940e1461018a578063534e785c1461019d57806354fd4d50146101b257600080fd5b806304433bbc146100fa57806306fdde031461012a5780631627905514610152575b600080fd5b61010d610108366004610c97565b610253565b6040516001600160a01b0390911681526020015b60405180910390f35b604080518082019091526003815262243ab160e91b60208201525b6040516101219190610d29565b610165610160366004610d58565b61026e565b6040519015158152602001610121565b61017d61027b565b6040516101219190610d73565b610165610198366004610c97565b61028c565b6101b06101ab366004610df2565b6102a1565b005b6040805180820190915260058152640312e302e360dc1b6020820152610145565b61017d61034f565b6101b061035b565b6101656101f1366004610d58565b61036f565b6000546001600160a01b031661010d565b61010d610215366004610c97565b61037c565b610165610228366004610c97565b61038a565b6101b061023b366004610d58565b610398565b6101b061024e366004610df2565b610416565b6000610261600184846104bf565b6020015190505b92915050565b60006102686001836105fa565b6060610287600161071d565b905090565b600061029a60018484610825565b9392505050565b6102a96108e2565b6102b560018484610825565b15610307577fcb274d507e7a9978f5a8c15929fd58c472b8addc1a9bba454b0c0a49a05c91528383836040516102ed93929190610e46565b60405180910390a1610302600184848461093c565b505050565b7f208f725e4760f521e142bbc1400aa805d7e669438e05e416eddc3df3db3d453683838360405161033a93929190610e46565b60405180910390a161030260018484846109fc565b6060610287600361071d565b6103636108e2565b61036d6000610bfe565b565b60006102686003836105fa565b6000610261600384846104bf565b600061029a60038484610825565b6103a06108e2565b6001600160a01b03811661040a5760405162461bcd60e51b815260206004820152602660248201527f4f776e61626c653a206e6577206f776e657220697320746865207a65726f206160448201526564647265737360d01b60648201526084015b60405180910390fd5b61041381610bfe565b50565b61041e6108e2565b61042a60038484610825565b15610477577f02048a00c6529e8f3f2fd9d35c4bdd9426b231d6c9b7d0795f41cb1a8e34342e83838360405161046293929190610e46565b60405180910390a1610302600384848461093c565b7f20d1c46e5a10f0527ef6a9cb0d023404cfe52d9a31053bc79f69191d053970e18383836040516104aa93929190610e46565b60405180910390a161030260038484846109fc565b6040805180820190915260608152600060208201526104df848484610825565b6104fb5760405162461bcd60e51b815260040161040190610e87565b83600101846000018484604051610513929190610ee4565b9081526020016040518091039020548154811061053257610532610ef4565b906000526020600020906002020160405180604001604052908160008201805461055b90610f0a565b80601f016020809104026020016040519081016040528092919081815260200182805461058790610f0a565b80156105d45780601f106105a9576101008083540402835291602001916105d4565b820191906000526020600020905b8154815290600101906020018083116105b757829003601f168201915b5050509183525050600191909101546001600160a01b0316602090910152949350505050565b6000610607836001015490565b60000361061657506000610268565b6000826001600160a01b03166306fdde036040518163ffffffff1660e01b8152600401600060405180830381865afa158015610656573d6000803e3d6000fd5b505050506040513d6000823e601f3d908101601f1916820160405261067e9190810190610f5a565b9050806040516020016106919190611007565b604051602081830303815290604052805190602001208460010185600001836040516106bd9190611007565b908152602001604051809103902054815481106106dc576106dc610ef4565b90600052602060002090600202016000016040516020016106fd9190611023565b604051602081830303815290604052805190602001201491505092915050565b606081600101805480602002602001604051908101604052809291908181526020016000905b8282101561081a578382906000526020600020906002020160405180604001604052908160008201805461077690610f0a565b80601f01602080910402602001604051908101604052809291908181526020018280546107a290610f0a565b80156107ef5780601f106107c4576101008083540402835291602001916107ef565b820191906000526020600020905b8154815290600101906020018083116107d257829003601f168201915b50505091835250506001918201546001600160a01b0316602091820152918352929092019101610743565b505050509050919050565b6000610832846001015490565b6000036108415750600061029a565b8282604051602001610854929190610ee4565b6040516020818303038152906040528051906020012084600101856000018585604051610882929190610ee4565b908152602001604051809103902054815481106108a1576108a1610ef4565b90600052602060002090600202016000016040516020016108c29190611023565b604051602081830303815290604052805190602001201490509392505050565b6000546001600160a01b0316331461036d5760405162461bcd60e51b815260206004820181905260248201527f4f776e61626c653a2063616c6c6572206973206e6f7420746865206f776e65726044820152606401610401565b6001600160a01b0381166109625760405162461bcd60e51b815260040161040190611099565b61096d848484610825565b6109895760405162461bcd60e51b815260040161040190610e87565b80846001018560000185856040516109a2929190610ee4565b908152602001604051809103902054815481106109c1576109c1610ef4565b906000526020600020906002020160010160006101000a8154816001600160a01b0302191690836001600160a01b0316021790555050505050565b6040805160008152602081018083528151902091610a1e918691869101610ee4565b6040516020818303038152906040528051906020012003610a915760405162461bcd60e51b815260206004820152602760248201527f284e616d6564436f6e747261637453657429204e616d652063616e6e6f7420626044820152666520656d70747960c81b6064820152608401610401565b6001600160a01b038116610ab75760405162461bcd60e51b815260040161040190611099565b610ac2848484610825565b15610b355760405162461bcd60e51b815260206004820152603a60248201527f284e616d6564436f6e74726163745365742920436f6e7472616374207769746860448201527f20676976656e206e616d6520616c7265616479206578697374730000000000006064820152608401610401565b60018401546040518590610b4c9086908690610ee4565b908152604080519182900360209081018320939093556060601f860184900490930282018301815281018481526001870192829190879087908190850183828082843760009201829052509385525050506001600160a01b0385166020928301528354600181018555938152208151919260020201908190610bce908261112f565b5060209190910151600190910180546001600160a01b0319166001600160a01b0390921691909117905550505050565b600080546001600160a01b038381166001600160a01b0319831681178455604051919092169283917f8be0079c531659141344cd1fd0a4f28419497f9722a3daafe3b4186f6b6457e09190a35050565b60008083601f840112610c6057600080fd5b50813567ffffffffffffffff811115610c7857600080fd5b602083019150836020828501011115610c9057600080fd5b9250929050565b60008060208385031215610caa57600080fd5b823567ffffffffffffffff811115610cc157600080fd5b610ccd85828601610c4e565b90969095509350505050565b60005b83811015610cf4578181015183820152602001610cdc565b50506000910152565b60008151808452610d15816020860160208601610cd9565b601f01601f19169290920160200192915050565b60208152600061029a6020830184610cfd565b80356001600160a01b0381168114610d5357600080fd5b919050565b600060208284031215610d6a57600080fd5b61029a82610d3c565b60006020808301818452808551808352604092508286019150828160051b87010184880160005b83811015610de457888303603f1901855281518051878552610dbe88860182610cfd565b918901516001600160a01b03169489019490945294870194925090860190600101610d9a565b509098975050505050505050565b600080600060408486031215610e0757600080fd5b833567ffffffffffffffff811115610e1e57600080fd5b610e2a86828701610c4e565b9094509250610e3d905060208501610d3c565b90509250925092565b6040815282604082015282846060830137600060608483018101919091526001600160a01b03929092166020820152601f909201601f191690910101919050565b6020808252603a908201527f284e616d6564436f6e74726163745365742920436f6e7472616374207769746860408201527f20676976656e206e616d6520646f65736e277420657869737473000000000000606082015260800190565b8183823760009101908152919050565b634e487b7160e01b600052603260045260246000fd5b600181811c90821680610f1e57607f821691505b602082108103610f3e57634e487b7160e01b600052602260045260246000fd5b50919050565b634e487b7160e01b600052604160045260246000fd5b600060208284031215610f6c57600080fd5b815167ffffffffffffffff80821115610f8457600080fd5b818401915084601f830112610f9857600080fd5b815181811115610faa57610faa610f44565b604051601f8201601f19908116603f01168101908382118183101715610fd257610fd2610f44565b81604052828152876020848701011115610feb57600080fd5b610ffc836020830160208801610cd9565b979650505050505050565b60008251611019818460208701610cd9565b9190910192915050565b600080835461103181610f0a565b60018281168015611049576001811461105e5761108d565b60ff198416875282151583028701945061108d565b8760005260208060002060005b858110156110845781548a82015290840190820161106b565b50505082870194505b50929695505050505050565b60208082526028908201527f284e616d6564436f6e74726163745365742920416464726573732063616e6e6f604082015267074206265203078360c41b606082015260800190565b601f82111561030257600081815260208120601f850160051c810160208610156111085750805b601f850160051c820191505b8181101561112757828155600101611114565b505050505050565b815167ffffffffffffffff81111561114957611149610f44565b61115d816111578454610f0a565b846110e1565b602080601f831160018114611192576000841561117a5750858301515b600019600386901b1c1916600185901b178555611127565b600085815260208120601f198616915b828110156111c1578886015182559484019460019091019084016111a2565b50858210156111df5787850151600019600388901b60f8161c191681555b5050505050600190811b0190555056fea2646970667358221220c3cd0853b2803d2ec75979cd9a6e783c969cd4e362b00eaf932d7e02d33af04564736f6c63430008100033",
  "immutableReferences": {},
  "source": "// SPDX-License-Identifier: MIT\n\npragma solidity ^0.8.4;\n\nimport { Named } from \"./interface/Named.sol\";\nimport { Versioned } from \"./interface/Versioned.sol\";\nimport { UnorderedNamedContractDynamicSetLib } from \"./utils/UnorderedNamedContractDynamicSet.sol\";\nimport { Ownable } from \"@openzeppelin/contracts/access/Ownable.sol\";\n\ncontract Hub is Named, Versioned, Ownable {\n\n    using UnorderedNamedContractDynamicSetLib for UnorderedNamedContractDynamicSetLib.Set;\n\n    event NewContract(string contractName, address newContractAddress);\n    event ContractChanged(string contractName, address newContractAddress);\n    event NewAssetContract(string contractName, address newContractAddress);\n    event AssetContractChanged(string contractName, address newContractAddress);\n\n    string constant private _NAME = \"Hub\";\n    string constant private _VERSION = \"1.0.0\";\n\n    UnorderedNamedContractDynamicSetLib.Set contractSet;\n    UnorderedNamedContractDynamicSetLib.Set assetContractSet;\n\n    function name() external pure virtual override returns (string memory) {\n        return _NAME;\n    }\n\n    function version() external pure virtual override returns (string memory) {\n        return _VERSION;\n    }\n\n    function setContractAddress(string calldata contractName, address newContractAddress) external onlyOwner {\n        if(contractSet.exists(contractName)) {\n            emit ContractChanged(contractName, newContractAddress);\n            contractSet.update(contractName, newContractAddress);\n        } else {\n            emit NewContract(contractName, newContractAddress);\n            contractSet.append(contractName, newContractAddress);\n        }\n    }\n\n    function setAssetContractAddress(string calldata assetContractName, address assetContractAddress)\n        external\n        onlyOwner\n    {\n        if(assetContractSet.exists(assetContractName)) {\n            emit AssetContractChanged(assetContractName, assetContractAddress);\n            assetContractSet.update(assetContractName, assetContractAddress);\n        } else {\n            emit NewAssetContract(assetContractName, assetContractAddress);\n            assetContractSet.append(assetContractName, assetContractAddress);\n        }\n    }\n\n    function getContractAddress(string calldata contractName) external view returns (address) {\n        return contractSet.get(contractName).addr;\n    }\n\n    function getAssetContractAddress(string calldata assetContractName) external view returns (address) {\n        return assetContractSet.get(assetContractName).addr;\n    }\n\n    function getAllContracts() external view returns (UnorderedNamedContractDynamicSetLib.Contract[] memory) {\n        return contractSet.getAll();\n    }\n\n    function getAllAssetContracts() external view returns (UnorderedNamedContractDynamicSetLib.Contract[] memory) {\n        return assetContractSet.getAll();\n    }\n\n    function isContract(string calldata contractName) external view returns (bool) {\n        return contractSet.exists(contractName);\n    }\n    \n    function isContract(address selectedContractAddress) external view returns (bool) {\n        return contractSet.exists(selectedContractAddress);\n    }\n\n    function isAssetContract(string calldata assetContractName) external view returns (bool) {\n        return assetContractSet.exists(assetContractName);\n    }\n\n    function isAssetContract(address assetContractAddress) external view returns (bool) {\n        return assetContractSet.exists(assetContractAddress);\n    }\n\n}\n",
  "sourcePath": "/Users/waving/Desktop/OriginTrail/dkg-evm-module/contracts/Hub.sol",
  "compiler": {
    "name": "solc",
    "version": "0.8.16+commit.07a7930e.Emscripten.clang"
  },
  "schemaVersion": "3.4.10",
  "updatedAt": "2022-12-06T03:50:29.701Z",
  "devdoc": {
    "kind": "dev",
    "methods": {
      "owner()": {
        "details": "Returns the address of the current owner."
      },
      "renounceOwnership()": {
        "details": "Leaves the contract without owner. It will not be possible to call `onlyOwner` functions anymore. Can only be called by the current owner. NOTE: Renouncing ownership will leave the contract without an owner, thereby removing any functionality that is only available to the owner."
      },
      "transferOwnership(address)": {
        "details": "Transfers ownership of the contract to a new account (`newOwner`). Can only be called by the current owner."
      }
    },
    "version": 1
  },
  "userdoc": {
    "kind": "user",
    "methods": {},
    "version": 1
  }
}