{
  "contractName": "Hub",
  "abi": [
    {
      "anonymous": false,
      "inputs": [
        {
          "indexed": false,
          "internalType": "string",
          "name": "contractName",
          "type": "string"
        },
        {
          "indexed": false,
          "internalType": "address",
          "name": "newContractAddress",
          "type": "address"
        }
      ],
      "name": "AssetStorageChanged",
      "type": "event"
    },
    {
      "anonymous": false,
      "inputs": [
        {
          "indexed": false,
          "internalType": "string",
          "name": "contractName",
          "type": "string"
        },
        {
          "indexed": false,
          "internalType": "address",
          "name": "newContractAddress",
          "type": "address"
        }
      ],
      "name": "ContractChanged",
      "type": "event"
    },
    {
      "anonymous": false,
      "inputs": [
        {
          "indexed": false,
          "internalType": "string",
          "name": "contractName",
          "type": "string"
        },
        {
          "indexed": false,
          "internalType": "address",
          "name": "newContractAddress",
          "type": "address"
        }
      ],
      "name": "NewAssetStorage",
      "type": "event"
    },
    {
      "anonymous": false,
      "inputs": [
        {
          "indexed": false,
          "internalType": "string",
          "name": "contractName",
          "type": "string"
        },
        {
          "indexed": false,
          "internalType": "address",
          "name": "newContractAddress",
          "type": "address"
        }
      ],
      "name": "NewContract",
      "type": "event"
    },
    {
      "anonymous": false,
      "inputs": [
        {
          "indexed": true,
          "internalType": "address",
          "name": "previousOwner",
          "type": "address"
        },
        {
          "indexed": true,
          "internalType": "address",
          "name": "newOwner",
          "type": "address"
        }
      ],
      "name": "OwnershipTransferred",
      "type": "event"
    },
    {
      "inputs": [],
      "name": "owner",
      "outputs": [
        {
          "internalType": "address",
          "name": "",
          "type": "address"
        }
      ],
      "stateMutability": "view",
      "type": "function"
    },
    {
      "inputs": [],
      "name": "renounceOwnership",
      "outputs": [],
      "stateMutability": "nonpayable",
      "type": "function"
    },
    {
      "inputs": [
        {
          "internalType": "address",
          "name": "newOwner",
          "type": "address"
        }
      ],
      "name": "transferOwnership",
      "outputs": [],
      "stateMutability": "nonpayable",
      "type": "function"
    },
    {
      "inputs": [],
      "name": "name",
      "outputs": [
        {
          "internalType": "string",
          "name": "",
          "type": "string"
        }
      ],
      "stateMutability": "pure",
      "type": "function"
    },
    {
      "inputs": [],
      "name": "version",
      "outputs": [
        {
          "internalType": "string",
          "name": "",
          "type": "string"
        }
      ],
      "stateMutability": "pure",
      "type": "function"
    },
    {
      "inputs": [
        {
          "internalType": "string",
          "name": "contractName",
          "type": "string"
        },
        {
          "internalType": "address",
          "name": "newContractAddress",
          "type": "address"
        }
      ],
      "name": "setContractAddress",
      "outputs": [],
      "stateMutability": "nonpayable",
      "type": "function"
    },
    {
      "inputs": [
        {
          "internalType": "string",
          "name": "assetStorageName",
          "type": "string"
        },
        {
          "internalType": "address",
          "name": "assetStorageAddress",
          "type": "address"
        }
      ],
      "name": "setAssetStorageAddress",
      "outputs": [],
      "stateMutability": "nonpayable",
      "type": "function"
    },
    {
      "inputs": [
        {
          "internalType": "string",
          "name": "contractName",
          "type": "string"
        }
      ],
      "name": "getContractAddress",
      "outputs": [
        {
          "internalType": "address",
          "name": "",
          "type": "address"
        }
      ],
      "stateMutability": "view",
      "type": "function"
    },
    {
      "inputs": [
        {
          "internalType": "string",
          "name": "assetStorageName",
          "type": "string"
        }
      ],
      "name": "getAssetStorageAddress",
      "outputs": [
        {
          "internalType": "address",
          "name": "",
          "type": "address"
        }
      ],
      "stateMutability": "view",
      "type": "function"
    },
    {
      "inputs": [],
      "name": "getAllContracts",
      "outputs": [
        {
          "components": [
            {
              "internalType": "string",
              "name": "name",
              "type": "string"
            },
            {
              "internalType": "address",
              "name": "addr",
              "type": "address"
            }
          ],
          "internalType": "struct UnorderedNamedContractDynamicSetLib.Contract[]",
          "name": "",
          "type": "tuple[]"
        }
      ],
      "stateMutability": "view",
      "type": "function"
    },
    {
      "inputs": [],
      "name": "getAllAssetStorages",
      "outputs": [
        {
          "components": [
            {
              "internalType": "string",
              "name": "name",
              "type": "string"
            },
            {
              "internalType": "address",
              "name": "addr",
              "type": "address"
            }
          ],
          "internalType": "struct UnorderedNamedContractDynamicSetLib.Contract[]",
          "name": "",
          "type": "tuple[]"
        }
      ],
      "stateMutability": "view",
      "type": "function"
    },
    {
      "inputs": [
        {
          "internalType": "address",
          "name": "selectedContractAddress",
          "type": "address"
        }
      ],
      "name": "isContract",
      "outputs": [
        {
          "internalType": "bool",
          "name": "",
          "type": "bool"
        }
      ],
      "stateMutability": "view",
      "type": "function"
    },
    {
      "inputs": [
        {
          "internalType": "string",
          "name": "contractName",
          "type": "string"
        }
      ],
      "name": "isContract",
      "outputs": [
        {
          "internalType": "bool",
          "name": "",
          "type": "bool"
        }
      ],
      "stateMutability": "view",
      "type": "function"
    },
    {
      "inputs": [
        {
          "internalType": "address",
          "name": "assetStorageAddress",
          "type": "address"
        }
      ],
      "name": "isAssetStorage",
      "outputs": [
        {
          "internalType": "bool",
          "name": "",
          "type": "bool"
        }
      ],
      "stateMutability": "view",
      "type": "function"
    },
    {
      "inputs": [
        {
          "internalType": "string",
          "name": "assetStorageName",
          "type": "string"
        }
      ],
      "name": "isAssetStorage",
      "outputs": [
        {
          "internalType": "bool",
          "name": "",
          "type": "bool"
        }
      ],
      "stateMutability": "view",
      "type": "function"
    }
  ],
  "bytecode": "0x608060405234801561001057600080fd5b5061001a3361001f565b61006f565b600080546001600160a01b038381166001600160a01b0319831681178455604051919092169283917f8be0079c531659141344cd1fd0a4f28419497f9722a3daafe3b4186f6b6457e09190a35050565b6111c88061007e6000396000f3fe608060405234801561001057600080fd5b50600436106100f55760003560e01c8063534e785c11610097578063715018a611610066578063715018a61461021f5780638da5cb5b14610227578063ef51fdf114610238578063f2fde38b1461024057600080fd5b8063534e785c146101c557806354fd4d50146101d8578063598f847f146101f95780636444a2fe1461020c57600080fd5b806316279055116100d3578063162790551461016757806318d3ce961461018a578063211e940e1461019f57806334f702db146101b257600080fd5b806304433bbc146100fa57806306fdde031461012a578063077512fa14610152575b600080fd5b61010d610108366004610d6b565b610253565b6040516001600160a01b0390911681526020015b60405180910390f35b604080518082019091526003815262243ab160e91b60208201525b6040516101219190610df3565b610165610160366004610e22565b61026e565b005b61017a610175366004610e76565b61031c565b6040519015158152602001610121565b610192610329565b6040516101219190610e91565b61017a6101ad366004610d6b565b61033a565b61017a6101c0366004610e76565b61034f565b6101656101d3366004610e22565b61035c565b6040805180820190915260058152640312e302e360dc1b6020820152610145565b61017a610207366004610d6b565b610405565b61010d61021a366004610d6b565b610413565b610165610421565b6000546001600160a01b031661010d565b610192610435565b61016561024e366004610e76565b610441565b6000610261600184846104bf565b6020015190505b92915050565b610276610650565b610282600484846106aa565b156102d4577f63815734218aeae79d59f32dd4a1c3e52f1b7ee925099608c48820fd6a9e86228383836040516102ba93929190610f10565b60405180910390a16102cf6004848484610767565b505050565b7fcdc1fe6fc2802fb854569bcc8beec2e254e7c890e42fea11687b53f62bb1456583838360405161030793929190610f10565b60405180910390a16102cf6004848484610927565b6000610268600183610b52565b60606103356001610bca565b905090565b6000610348600184846106aa565b9392505050565b6000610268600483610b52565b610364610650565b610370600184846106aa565b156103bd577fcb274d507e7a9978f5a8c15929fd58c472b8addc1a9bba454b0c0a49a05c91528383836040516103a893929190610f10565b60405180910390a16102cf6001848484610767565b7f208f725e4760f521e142bbc1400aa805d7e669438e05e416eddc3df3db3d45368383836040516103f093929190610f10565b60405180910390a16102cf6001848484610927565b6000610348600484846106aa565b6000610261600484846104bf565b610429610650565b6104336000610cd2565b565b60606103356004610bca565b610449610650565b6001600160a01b0381166104b35760405162461bcd60e51b815260206004820152602660248201527f4f776e61626c653a206e6577206f776e657220697320746865207a65726f206160448201526564647265737360d01b60648201526084015b60405180910390fd5b6104bc81610cd2565b50565b6040805180820190915260608152600060208201526104df8484846106aa565b6105515760405162461bcd60e51b815260206004820152603860248201527f4e616d6564436f6e74726163745365743a20436f6e747261637420776974682060448201527f676976656e206e616d6520646f65736e2774206578697374000000000000000060648201526084016104aa565b83600201846000018484604051610569929190610f51565b9081526020016040518091039020548154811061058857610588610f61565b90600052602060002090600202016040518060400160405290816000820180546105b190610f77565b80601f01602080910402602001604051908101604052809291908181526020018280546105dd90610f77565b801561062a5780601f106105ff5761010080835404028352916020019161062a565b820191906000526020600020905b81548152906001019060200180831161060d57829003601f168201915b5050509183525050600191909101546001600160a01b0316602090910152949350505050565b6000546001600160a01b031633146104335760405162461bcd60e51b815260206004820181905260248201527f4f776e61626c653a2063616c6c6572206973206e6f7420746865206f776e657260448201526064016104aa565b60006106b7846002015490565b6000036106c657506000610348565b82826040516020016106d9929190610f51565b6040516020818303038152906040528051906020012084600201856000018585604051610707929190610f51565b9081526020016040518091039020548154811061072657610726610f61565b90600052602060002090600202016000016040516020016107479190610fb1565b604051602081830303815290604052805190602001201490509392505050565b6001600160a01b03811661078d5760405162461bcd60e51b81526004016104aa90611027565b6107988484846106aa565b61080a5760405162461bcd60e51b815260206004820152603960248201527f4e616d6564436f6e74726163745365743a20436f6e747261637420776974682060448201527f676976656e206e616d6520646f65736e2774206578697374730000000000000060648201526084016104aa565b83600101600085600201866000018686604051610828929190610f51565b9081526020016040518091039020548154811061084757610847610f61565b60009182526020808320600160029093020191909101546001600160a01b03168352820192909252604090810182209190915551849061088a9085908590610f51565b908152604080519182900360209081018320546001600160a01b038516600090815260018901909252919020558190600286019086906108cd9087908790610f51565b908152602001604051809103902054815481106108ec576108ec610f61565b906000526020600020906002020160010160006101000a8154816001600160a01b0302191690836001600160a01b0316021790555050505050565b6040805160008152602081018083528151902091610949918691869101610f51565b60405160208183030381529060405280519060200120036109bb5760405162461bcd60e51b815260206004820152602660248201527f4e616d6564436f6e74726163745365743a204e616d652063616e6e6f7420626560448201526520656d70747960d01b60648201526084016104aa565b6001600160a01b0381166109e15760405162461bcd60e51b81526004016104aa90611027565b6109ec8484846106aa565b15610a5f5760405162461bcd60e51b815260206004820152603960248201527f4e616d6564436f6e74726163745365743a20436f6e747261637420776974682060448201527f676976656e206e616d6520616c7265616479206578697374730000000000000060648201526084016104aa565b60028401546040518590610a769086908690610f51565b90815260405190819003602001902055610a91846002015490565b6001600160a01b03821660009081526001860160209081526040918290209290925580516060601f86018490049093028101830182529081018481526002870192829190879087908190850183828082843760009201829052509385525050506001600160a01b0385166020928301528354600181018555938152208151919260020201908190610b2290826110d2565b5060209190910151600190910180546001600160a01b0319166001600160a01b0390921691909117905550505050565b6000610b5f836002015490565b600003610b6e57506000610268565b6001600160a01b03821660009081526001840160205260409020546002840180549091908110610ba057610ba0610f61565b60009182526020909120600160029092020101546001600160a01b03838116911614905092915050565b606081600201805480602002602001604051908101604052809291908181526020016000905b82821015610cc75783829060005260206000209060020201604051806040016040529081600082018054610c2390610f77565b80601f0160208091040260200160405190810160405280929190818152602001828054610c4f90610f77565b8015610c9c5780601f10610c7157610100808354040283529160200191610c9c565b820191906000526020600020905b815481529060010190602001808311610c7f57829003601f168201915b50505091835250506001918201546001600160a01b0316602091820152918352929092019101610bf0565b505050509050919050565b600080546001600160a01b038381166001600160a01b0319831681178455604051919092169283917f8be0079c531659141344cd1fd0a4f28419497f9722a3daafe3b4186f6b6457e09190a35050565b60008083601f840112610d3457600080fd5b50813567ffffffffffffffff811115610d4c57600080fd5b602083019150836020828501011115610d6457600080fd5b9250929050565b60008060208385031215610d7e57600080fd5b823567ffffffffffffffff811115610d9557600080fd5b610da185828601610d22565b90969095509350505050565b6000815180845260005b81811015610dd357602081850181015186830182015201610db7565b506000602082860101526020601f19601f83011685010191505092915050565b6020815260006103486020830184610dad565b80356001600160a01b0381168114610e1d57600080fd5b919050565b600080600060408486031215610e3757600080fd5b833567ffffffffffffffff811115610e4e57600080fd5b610e5a86828701610d22565b9094509250610e6d905060208501610e06565b90509250925092565b600060208284031215610e8857600080fd5b61034882610e06565b60006020808301818452808551808352604092508286019150828160051b87010184880160005b83811015610f0257888303603f1901855281518051878552610edc88860182610dad565b918901516001600160a01b03169489019490945294870194925090860190600101610eb8565b509098975050505050505050565b6040815282604082015282846060830137600060608483018101919091526001600160a01b03929092166020820152601f909201601f191690910101919050565b8183823760009101908152919050565b634e487b7160e01b600052603260045260246000fd5b600181811c90821680610f8b57607f821691505b602082108103610fab57634e487b7160e01b600052602260045260246000fd5b50919050565b6000808354610fbf81610f77565b60018281168015610fd75760018114610fec5761101b565b60ff198416875282151583028701945061101b565b8760005260208060002060005b858110156110125781548a820152908401908201610ff9565b50505082870194505b50929695505050505050565b60208082526027908201527f4e616d6564436f6e74726163745365743a20416464726573732063616e6e6f746040820152660206265203078360cc1b606082015260800190565b634e487b7160e01b600052604160045260246000fd5b601f8211156102cf57600081815260208120601f850160051c810160208610156110ab5750805b601f850160051c820191505b818110156110ca578281556001016110b7565b505050505050565b815167ffffffffffffffff8111156110ec576110ec61106e565b611100816110fa8454610f77565b84611084565b602080601f831160018114611135576000841561111d5750858301515b600019600386901b1c1916600185901b1785556110ca565b600085815260208120601f198616915b8281101561116457888601518255948401946001909101908401611145565b50858210156111825787850151600019600388901b60f8161c191681555b5050505050600190811b0190555056fea26469706673582212201e6c2674d828892acd1f1a475a5f8d95d103598b3ab5beb3290b7833d518388564736f6c63430008100033",
  "immutableReferences": {},
  "source": "// SPDX-License-Identifier: MIT\n\npragma solidity ^0.8.4;\n\nimport { Named } from \"./interface/Named.sol\";\nimport { Versioned } from \"./interface/Versioned.sol\";\nimport { UnorderedNamedContractDynamicSetLib } from \"./utils/UnorderedNamedContractDynamicSet.sol\";\nimport { Ownable } from \"@openzeppelin/contracts/access/Ownable.sol\";\n\ncontract Hub is Named, Versioned, Ownable {\n\n    using UnorderedNamedContractDynamicSetLib for UnorderedNamedContractDynamicSetLib.Set;\n\n    event NewContract(string contractName, address newContractAddress);\n    event ContractChanged(string contractName, address newContractAddress);\n    event NewAssetStorage(string contractName, address newContractAddress);\n    event AssetStorageChanged(string contractName, address newContractAddress);\n\n    string constant private _NAME = \"Hub\";\n    string constant private _VERSION = \"1.0.0\";\n\n    UnorderedNamedContractDynamicSetLib.Set contractSet;\n    UnorderedNamedContractDynamicSetLib.Set assetStorageSet;\n\n    function name() external pure virtual override returns (string memory) {\n        return _NAME;\n    }\n\n    function version() external pure virtual override returns (string memory) {\n        return _VERSION;\n    }\n\n    function setContractAddress(string calldata contractName, address newContractAddress) external onlyOwner {\n        if(contractSet.exists(contractName)) {\n            emit ContractChanged(contractName, newContractAddress);\n            contractSet.update(contractName, newContractAddress);\n        } else {\n            emit NewContract(contractName, newContractAddress);\n            contractSet.append(contractName, newContractAddress);\n        }\n    }\n\n    function setAssetStorageAddress(string calldata assetStorageName, address assetStorageAddress)\n        external\n        onlyOwner\n    {\n        if(assetStorageSet.exists(assetStorageName)) {\n            emit AssetStorageChanged(assetStorageName, assetStorageAddress);\n            assetStorageSet.update(assetStorageName, assetStorageAddress);\n        } else {\n            emit NewAssetStorage(assetStorageName, assetStorageAddress);\n            assetStorageSet.append(assetStorageName, assetStorageAddress);\n        }\n    }\n\n    function getContractAddress(string calldata contractName) external view returns (address) {\n        return contractSet.get(contractName).addr;\n    }\n\n    function getAssetStorageAddress(string calldata assetStorageName) external view returns (address) {\n        return assetStorageSet.get(assetStorageName).addr;\n    }\n\n    function getAllContracts() external view returns (UnorderedNamedContractDynamicSetLib.Contract[] memory) {\n        return contractSet.getAll();\n    }\n\n    function getAllAssetStorages() external view returns (UnorderedNamedContractDynamicSetLib.Contract[] memory) {\n        return assetStorageSet.getAll();\n    }\n\n    function isContract(string calldata contractName) external view returns (bool) {\n        return contractSet.exists(contractName);\n    }\n    \n    function isContract(address selectedContractAddress) external view returns (bool) {\n        return contractSet.exists(selectedContractAddress);\n    }\n\n    function isAssetStorage(string calldata assetStorageName) external view returns (bool) {\n        return assetStorageSet.exists(assetStorageName);\n    }\n\n    function isAssetStorage(address assetStorageAddress) external view returns (bool) {\n        return assetStorageSet.exists(assetStorageAddress);\n    }\n\n}\n",
  "sourcePath": "/Users/waving/Desktop/OriginTrail/dkg-evm-module/contracts/Hub.sol",
  "compiler": {
    "name": "solc",
    "version": "0.8.16+commit.07a7930e.Emscripten.clang"
  },
  "schemaVersion": "3.4.10",
  "updatedAt": "2022-12-08T16:40:13.557Z",
  "devdoc": {
    "kind": "dev",
    "methods": {
      "owner()": {
        "details": "Returns the address of the current owner."
      },
      "renounceOwnership()": {
        "details": "Leaves the contract without owner. It will not be possible to call `onlyOwner` functions anymore. Can only be called by the current owner. NOTE: Renouncing ownership will leave the contract without an owner, thereby removing any functionality that is only available to the owner."
      },
      "transferOwnership(address)": {
        "details": "Transfers ownership of the contract to a new account (`newOwner`). Can only be called by the current owner."
      }
    },
    "version": 1
  },
  "userdoc": {
    "kind": "user",
    "methods": {},
    "version": 1
  }
}