{
  "contractName": "Hub",
  "abi": [
    {
      "anonymous": false,
      "inputs": [
        {
          "indexed": false,
          "internalType": "string",
          "name": "contractName",
          "type": "string"
        },
        {
          "indexed": false,
          "internalType": "address",
          "name": "newContractAddress",
          "type": "address"
        }
      ],
      "name": "AssetContractChanged",
      "type": "event"
    },
    {
      "anonymous": false,
      "inputs": [
        {
          "indexed": false,
          "internalType": "string",
          "name": "contractName",
          "type": "string"
        },
        {
          "indexed": false,
          "internalType": "address",
          "name": "newContractAddress",
          "type": "address"
        }
      ],
      "name": "ContractChanged",
      "type": "event"
    },
    {
      "anonymous": false,
      "inputs": [
        {
          "indexed": false,
          "internalType": "string",
          "name": "contractName",
          "type": "string"
        },
        {
          "indexed": false,
          "internalType": "address",
          "name": "newContractAddress",
          "type": "address"
        }
      ],
      "name": "NewAssetContract",
      "type": "event"
    },
    {
      "anonymous": false,
      "inputs": [
        {
          "indexed": false,
          "internalType": "string",
          "name": "contractName",
          "type": "string"
        },
        {
          "indexed": false,
          "internalType": "address",
          "name": "newContractAddress",
          "type": "address"
        }
      ],
      "name": "NewContract",
      "type": "event"
    },
    {
      "anonymous": false,
      "inputs": [
        {
          "indexed": true,
          "internalType": "address",
          "name": "previousOwner",
          "type": "address"
        },
        {
          "indexed": true,
          "internalType": "address",
          "name": "newOwner",
          "type": "address"
        }
      ],
      "name": "OwnershipTransferred",
      "type": "event"
    },
    {
      "inputs": [],
      "name": "owner",
      "outputs": [
        {
          "internalType": "address",
          "name": "",
          "type": "address"
        }
      ],
      "stateMutability": "view",
      "type": "function"
    },
    {
      "inputs": [],
      "name": "renounceOwnership",
      "outputs": [],
      "stateMutability": "nonpayable",
      "type": "function"
    },
    {
      "inputs": [
        {
          "internalType": "address",
          "name": "newOwner",
          "type": "address"
        }
      ],
      "name": "transferOwnership",
      "outputs": [],
      "stateMutability": "nonpayable",
      "type": "function"
    },
    {
      "inputs": [
        {
          "internalType": "string",
          "name": "contractName",
          "type": "string"
        },
        {
          "internalType": "address",
          "name": "newContractAddress",
          "type": "address"
        }
      ],
      "name": "setContractAddress",
      "outputs": [],
      "stateMutability": "nonpayable",
      "type": "function"
    },
    {
      "inputs": [
        {
          "internalType": "string",
          "name": "assetContractName",
          "type": "string"
        },
        {
          "internalType": "address",
          "name": "newContractAddress",
          "type": "address"
        }
      ],
      "name": "setAssetContractAddress",
      "outputs": [],
      "stateMutability": "nonpayable",
      "type": "function"
    },
    {
      "inputs": [
        {
          "internalType": "string",
          "name": "contractName",
          "type": "string"
        }
      ],
      "name": "getContractAddress",
      "outputs": [
        {
          "internalType": "address",
          "name": "",
          "type": "address"
        }
      ],
      "stateMutability": "view",
      "type": "function"
    },
    {
      "inputs": [
        {
          "internalType": "string",
          "name": "assetContractName",
          "type": "string"
        }
      ],
      "name": "getAssetContractAddress",
      "outputs": [
        {
          "internalType": "address",
          "name": "",
          "type": "address"
        }
      ],
      "stateMutability": "view",
      "type": "function"
    },
    {
      "inputs": [
        {
          "internalType": "address",
          "name": "selectedContractAddress",
          "type": "address"
        }
      ],
      "name": "isContract",
      "outputs": [
        {
          "internalType": "bool",
          "name": "",
          "type": "bool"
        }
      ],
      "stateMutability": "view",
      "type": "function"
    },
    {
      "inputs": [
        {
          "internalType": "address",
          "name": "assetContractAddress",
          "type": "address"
        }
      ],
      "name": "isAssetContract",
      "outputs": [
        {
          "internalType": "bool",
          "name": "",
          "type": "bool"
        }
      ],
      "stateMutability": "view",
      "type": "function"
    }
  ],
  "bytecode": "0x608060405234801561001057600080fd5b5061002d61002261003260201b60201c565b61003a60201b60201c565b6100fe565b600033905090565b60008060009054906101000a900473ffffffffffffffffffffffffffffffffffffffff169050816000806101000a81548173ffffffffffffffffffffffffffffffffffffffff021916908373ffffffffffffffffffffffffffffffffffffffff1602179055508173ffffffffffffffffffffffffffffffffffffffff168173ffffffffffffffffffffffffffffffffffffffff167f8be0079c531659141344cd1fd0a4f28419497f9722a3daafe3b4186f6b6457e060405160405180910390a35050565b6110718061010d6000396000f3fe608060405234801561001057600080fd5b50600436106100935760003560e01c80638d5d2d85116100665780638d5d2d851461011e5780638da5cb5b1461014e578063a95fb24b1461016c578063f2fde38b1461019c578063fd496e81146101b857610093565b806304433bbc1461009857806316279055146100c8578063534e785c146100f8578063715018a614610114575b600080fd5b6100b260048036038101906100ad9190610c36565b6101d4565b6040516100bf9190610cc0565b60405180910390f35b6100e260048036038101906100dd9190610d07565b61023c565b6040516100ef9190610d4f565b60405180910390f35b610112600480360381019061010d9190610d6a565b610292565b005b61011c610553565b005b61013860048036038101906101339190610d07565b610567565b6040516101459190610d4f565b60405180910390f35b6101566105bd565b6040516101639190610cc0565b60405180910390f35b61018660048036038101906101819190610c36565b6105e6565b6040516101939190610cc0565b60405180910390f35b6101b660048036038101906101b19190610d07565b61064e565b005b6101d260048036038101906101cd9190610d6a565b6106d1565b005b600080826040516020016101e89190610e40565b6040516020818303038152906040528051906020012090506001600082815260200190815260200160002060009054906101000a900473ffffffffffffffffffffffffffffffffffffffff16915050919050565b6000600260008373ffffffffffffffffffffffffffffffffffffffff1673ffffffffffffffffffffffffffffffffffffffff16815260200190815260200160002060009054906101000a900460ff169050919050565b61029a610992565b600073ffffffffffffffffffffffffffffffffffffffff168173ffffffffffffffffffffffffffffffffffffffff1603610309576040517f08c379a000000000000000000000000000000000000000000000000000000000815260040161030090610eb4565b60405180910390fd5b60008260405160200161031c9190610e40565b604051602081830303815290604052805190602001209050600073ffffffffffffffffffffffffffffffffffffffff166001600083815260200190815260200160002060009054906101000a900473ffffffffffffffffffffffffffffffffffffffff1673ffffffffffffffffffffffffffffffffffffffff161461046a5760006001600083815260200190815260200160002060009054906101000a900473ffffffffffffffffffffffffffffffffffffffff1690506000600260008373ffffffffffffffffffffffffffffffffffffffff1673ffffffffffffffffffffffffffffffffffffffff16815260200190815260200160002060006101000a81548160ff0219169083151502179055507fcb274d507e7a9978f5a8c15929fd58c472b8addc1a9bba454b0c0a49a05c9152848460405161045c929190610f0d565b60405180910390a1506104a4565b7f208f725e4760f521e142bbc1400aa805d7e669438e05e416eddc3df3db3d4536838360405161049b929190610f0d565b60405180910390a15b816001600083815260200190815260200160002060006101000a81548173ffffffffffffffffffffffffffffffffffffffff021916908373ffffffffffffffffffffffffffffffffffffffff1602179055506001600260008473ffffffffffffffffffffffffffffffffffffffff1673ffffffffffffffffffffffffffffffffffffffff16815260200190815260200160002060006101000a81548160ff021916908315150217905550505050565b61055b610992565b6105656000610a10565b565b6000600460008373ffffffffffffffffffffffffffffffffffffffff1673ffffffffffffffffffffffffffffffffffffffff16815260200190815260200160002060009054906101000a900460ff169050919050565b60008060009054906101000a900473ffffffffffffffffffffffffffffffffffffffff16905090565b600080826040516020016105fa9190610e40565b6040516020818303038152906040528051906020012090506003600082815260200190815260200160002060009054906101000a900473ffffffffffffffffffffffffffffffffffffffff16915050919050565b610656610992565b600073ffffffffffffffffffffffffffffffffffffffff168173ffffffffffffffffffffffffffffffffffffffff16036106c5576040517f08c379a00000000000000000000000000000000000000000000000000000000081526004016106bc90610faf565b60405180910390fd5b6106ce81610a10565b50565b6106d9610992565b600073ffffffffffffffffffffffffffffffffffffffff168173ffffffffffffffffffffffffffffffffffffffff1603610748576040517f08c379a000000000000000000000000000000000000000000000000000000000815260040161073f90610eb4565b60405180910390fd5b60008260405160200161075b9190610e40565b604051602081830303815290604052805190602001209050600073ffffffffffffffffffffffffffffffffffffffff166003600083815260200190815260200160002060009054906101000a900473ffffffffffffffffffffffffffffffffffffffff1673ffffffffffffffffffffffffffffffffffffffff16146108a95760006003600083815260200190815260200160002060009054906101000a900473ffffffffffffffffffffffffffffffffffffffff1690506000600460008373ffffffffffffffffffffffffffffffffffffffff1673ffffffffffffffffffffffffffffffffffffffff16815260200190815260200160002060006101000a81548160ff0219169083151502179055507f02048a00c6529e8f3f2fd9d35c4bdd9426b231d6c9b7d0795f41cb1a8e34342e848460405161089b929190610f0d565b60405180910390a1506108e3565b7f20d1c46e5a10f0527ef6a9cb0d023404cfe52d9a31053bc79f69191d053970e183836040516108da929190610f0d565b60405180910390a15b816003600083815260200190815260200160002060006101000a81548173ffffffffffffffffffffffffffffffffffffffff021916908373ffffffffffffffffffffffffffffffffffffffff1602179055506001600460008473ffffffffffffffffffffffffffffffffffffffff1673ffffffffffffffffffffffffffffffffffffffff16815260200190815260200160002060006101000a81548160ff021916908315150217905550505050565b61099a610ad4565b73ffffffffffffffffffffffffffffffffffffffff166109b86105bd565b73ffffffffffffffffffffffffffffffffffffffff1614610a0e576040517f08c379a0000000000000000000000000000000000000000000000000000000008152600401610a059061101b565b60405180910390fd5b565b60008060009054906101000a900473ffffffffffffffffffffffffffffffffffffffff169050816000806101000a81548173ffffffffffffffffffffffffffffffffffffffff021916908373ffffffffffffffffffffffffffffffffffffffff1602179055508173ffffffffffffffffffffffffffffffffffffffff168173ffffffffffffffffffffffffffffffffffffffff167f8be0079c531659141344cd1fd0a4f28419497f9722a3daafe3b4186f6b6457e060405160405180910390a35050565b600033905090565b6000604051905090565b600080fd5b600080fd5b600080fd5b600080fd5b6000601f19601f8301169050919050565b7f4e487b7100000000000000000000000000000000000000000000000000000000600052604160045260246000fd5b610b4382610afa565b810181811067ffffffffffffffff82111715610b6257610b61610b0b565b5b80604052505050565b6000610b75610adc565b9050610b818282610b3a565b919050565b600067ffffffffffffffff821115610ba157610ba0610b0b565b5b610baa82610afa565b9050602081019050919050565b82818337600083830152505050565b6000610bd9610bd484610b86565b610b6b565b905082815260208101848484011115610bf557610bf4610af5565b5b610c00848285610bb7565b509392505050565b600082601f830112610c1d57610c1c610af0565b5b8135610c2d848260208601610bc6565b91505092915050565b600060208284031215610c4c57610c4b610ae6565b5b600082013567ffffffffffffffff811115610c6a57610c69610aeb565b5b610c7684828501610c08565b91505092915050565b600073ffffffffffffffffffffffffffffffffffffffff82169050919050565b6000610caa82610c7f565b9050919050565b610cba81610c9f565b82525050565b6000602082019050610cd56000830184610cb1565b92915050565b610ce481610c9f565b8114610cef57600080fd5b50565b600081359050610d0181610cdb565b92915050565b600060208284031215610d1d57610d1c610ae6565b5b6000610d2b84828501610cf2565b91505092915050565b60008115159050919050565b610d4981610d34565b82525050565b6000602082019050610d646000830184610d40565b92915050565b60008060408385031215610d8157610d80610ae6565b5b600083013567ffffffffffffffff811115610d9f57610d9e610aeb565b5b610dab85828601610c08565b9250506020610dbc85828601610cf2565b9150509250929050565b600081519050919050565b600081905092915050565b60005b83811015610dfa578082015181840152602081019050610ddf565b83811115610e09576000848401525b50505050565b6000610e1a82610dc6565b610e248185610dd1565b9350610e34818560208601610ddc565b80840191505092915050565b6000610e4c8284610e0f565b915081905092915050565b600082825260208201905092915050565b7f436f6e747261637420616464726573732063616e6e6f7420626520656d707479600082015250565b6000610e9e602083610e57565b9150610ea982610e68565b602082019050919050565b60006020820190508181036000830152610ecd81610e91565b9050919050565b6000610edf82610dc6565b610ee98185610e57565b9350610ef9818560208601610ddc565b610f0281610afa565b840191505092915050565b60006040820190508181036000830152610f278185610ed4565b9050610f366020830184610cb1565b9392505050565b7f4f776e61626c653a206e6577206f776e657220697320746865207a65726f206160008201527f6464726573730000000000000000000000000000000000000000000000000000602082015250565b6000610f99602683610e57565b9150610fa482610f3d565b604082019050919050565b60006020820190508181036000830152610fc881610f8c565b9050919050565b7f4f776e61626c653a2063616c6c6572206973206e6f7420746865206f776e6572600082015250565b6000611005602083610e57565b915061101082610fcf565b602082019050919050565b6000602082019050818103600083015261103481610ff8565b905091905056fea26469706673582212204b40e3a90d050ccba3f6183990d8805841caecbea49dbfad06d5e72574874b7664736f6c634300080e0033",
  "immutableReferences": {},
  "source": "// SPDX-License-Identifier: MIT\n\npragma solidity ^0.8.0;\n\nimport { Ownable } from \"@openzeppelin/contracts/access/Ownable.sol\";\n\ncontract Hub is Ownable{\n    event NewContract(string contractName, address newContractAddress);\n    event ContractChanged(string contractName, address newContractAddress);\n    event NewAssetContract(string contractName, address newContractAddress);\n    event AssetContractChanged(string contractName, address newContractAddress);\n\n    mapping(bytes32 => address) contractAddress;\n    mapping(address => bool) contractList;\n\n    mapping(bytes32 => address) assetContractAdresses;\n    mapping(address => bool) assetContractsList;\n\n    function setContractAddress(string memory contractName, address newContractAddress)\n        public\n        onlyOwner\n    {\n        require(newContractAddress != address(0), \"Contract address cannot be empty\");\n\n        bytes32 index = keccak256(abi.encodePacked(contractName));\n\n        if(contractAddress[index] != address(0)) {\n            address oldContractAddress = contractAddress[index];\n            contractList[oldContractAddress] = false;\n\n            emit ContractChanged(contractName, newContractAddress);\n        } else {\n            emit NewContract(contractName, newContractAddress);\n        }\n\n        contractAddress[index] = newContractAddress;\n        contractList[newContractAddress] = true;\n    }\n\n    function setAssetContractAddress(string memory assetContractName, address newContractAddress)\n        public\n        onlyOwner\n    {\n        require(newContractAddress != address(0), \"Contract address cannot be empty\");\n\n        bytes32 index = keccak256(abi.encodePacked(assetContractName));\n\n        if(assetContractAdresses[index] != address(0)) {\n            address oldContractAddress = assetContractAdresses[index];\n            assetContractsList[oldContractAddress] = false;\n\n            emit AssetContractChanged(assetContractName, newContractAddress);\n        } else {\n            emit NewAssetContract(assetContractName, newContractAddress);\n        }\n\n        assetContractAdresses[index] = newContractAddress;\n        assetContractsList[newContractAddress] = true;\n    }\n\n    function getContractAddress(string memory contractName)\n        public\n        view\n        returns (address)\n    {\n        bytes32 index = keccak256(abi.encodePacked(contractName));\n        return contractAddress[index];\n    }\n\n    function getAssetContractAddress(string memory assetContractName)\n        public\n        view\n        returns (address)\n    {\n        bytes32 index = keccak256(abi.encodePacked(assetContractName));\n        return assetContractAdresses[index];\n    }\n    \n    function isContract(address selectedContractAddress)\n        public\n        view\n        returns (bool)\n    {\n        return contractList[selectedContractAddress];\n    }\n\n    function isAssetContract(address assetContractAddress)\n        public\n        view\n        returns (bool)\n    {\n        return assetContractsList[assetContractAddress];\n    }\n}\n",
  "sourcePath": "/Users/max/IdeaProjects/dkg-evm-module/contracts/Hub.sol",
  "compiler": {
    "name": "solc",
    "version": "0.8.14+commit.80d49f37.Emscripten.clang"
  },
  "schemaVersion": "3.4.10",
  "updatedAt": "2022-11-24T16:20:27.415Z",
  "devdoc": {
    "kind": "dev",
    "methods": {
      "owner()": {
        "details": "Returns the address of the current owner."
      },
      "renounceOwnership()": {
        "details": "Leaves the contract without owner. It will not be possible to call `onlyOwner` functions anymore. Can only be called by the current owner. NOTE: Renouncing ownership will leave the contract without an owner, thereby removing any functionality that is only available to the owner."
      },
      "transferOwnership(address)": {
        "details": "Transfers ownership of the contract to a new account (`newOwner`). Can only be called by the current owner."
      }
    },
    "version": 1
  },
  "userdoc": {
    "kind": "user",
    "methods": {},
    "version": 1
  }
}