{
  "contractName": "Identity",
  "abi": [
    {
      "inputs": [
        {
          "internalType": "address",
          "name": "hubAddress",
          "type": "address"
        }
      ],
      "stateMutability": "nonpayable",
      "type": "constructor"
    },
    {
      "anonymous": false,
      "inputs": [
        {
          "indexed": true,
          "internalType": "uint72",
          "name": "identityId",
          "type": "uint72"
        },
        {
          "indexed": true,
          "internalType": "bytes32",
          "name": "operationalKey",
          "type": "bytes32"
        },
        {
          "indexed": true,
          "internalType": "bytes32",
          "name": "adminKey",
          "type": "bytes32"
        }
      ],
      "name": "IdentityCreated",
      "type": "event"
    },
    {
      "anonymous": false,
      "inputs": [
        {
          "indexed": true,
          "internalType": "uint72",
          "name": "identityId",
          "type": "uint72"
        }
      ],
      "name": "IdentityDeleted",
      "type": "event"
    },
    {
      "inputs": [],
      "name": "hub",
      "outputs": [
        {
          "internalType": "contract Hub",
          "name": "",
          "type": "address"
        }
      ],
      "stateMutability": "view",
      "type": "function"
    },
    {
      "inputs": [],
      "name": "identityStorage",
      "outputs": [
        {
          "internalType": "contract IdentityStorage",
          "name": "",
          "type": "address"
        }
      ],
      "stateMutability": "view",
      "type": "function"
    },
    {
      "inputs": [
        {
          "internalType": "address",
          "name": "operational",
          "type": "address"
        },
        {
          "internalType": "address",
          "name": "admin",
          "type": "address"
        }
      ],
      "name": "createIdentity",
      "outputs": [
        {
          "internalType": "uint72",
          "name": "",
          "type": "uint72"
        }
      ],
      "stateMutability": "nonpayable",
      "type": "function"
    },
    {
      "inputs": [
        {
          "internalType": "uint72",
          "name": "identityId",
          "type": "uint72"
        }
      ],
      "name": "deleteIdentity",
      "outputs": [],
      "stateMutability": "nonpayable",
      "type": "function"
    },
    {
      "inputs": [
        {
          "internalType": "uint72",
          "name": "identityId",
          "type": "uint72"
        },
        {
          "internalType": "bytes32",
          "name": "key",
          "type": "bytes32"
        },
        {
          "internalType": "uint256",
          "name": "keyPurpose",
          "type": "uint256"
        },
        {
          "internalType": "uint256",
          "name": "keyType",
          "type": "uint256"
        }
      ],
      "name": "addKey",
      "outputs": [],
      "stateMutability": "nonpayable",
      "type": "function"
    },
    {
      "inputs": [
        {
          "internalType": "uint72",
          "name": "identityId",
          "type": "uint72"
        },
        {
          "internalType": "bytes32",
          "name": "key",
          "type": "bytes32"
        }
      ],
      "name": "removeKey",
      "outputs": [],
      "stateMutability": "nonpayable",
      "type": "function"
    }
  ],
  "bytecode": "0x608060405234801561001057600080fd5b5060405161164138038061164183398101604081905261002f91610103565b6001600160a01b03811661004257600080fd5b600080546001600160a01b0319166001600160a01b038316908117909155604051630110ceef60e21b815260206004820152600f60248201526e4964656e7469747953746f7261676560881b60448201526304433bbc90606401602060405180830381865afa1580156100b9573d6000803e3d6000fd5b505050506040513d601f19601f820116820180604052508101906100dd9190610103565b600180546001600160a01b0319166001600160a01b039290921691909117905550610133565b60006020828403121561011557600080fd5b81516001600160a01b038116811461012c57600080fd5b9392505050565b6114ff806101426000396000f3fe608060405234801561001057600080fd5b50600436106100725760003560e01c8063d10e73ab11610050578063d10e73ab146100e9578063dc06a39d14610116578063f11abfd81461012957600080fd5b8063365a86fc1461007757806367ac664f146100c1578063bee3b94e146100d6575b600080fd5b6000546100979073ffffffffffffffffffffffffffffffffffffffff1681565b60405173ffffffffffffffffffffffffffffffffffffffff90911681526020015b60405180910390f35b6100d46100cf36600461126a565b610149565b005b6100d46100e4366004611296565b6107b2565b6100fc6100f73660046112fa565b610a7b565b60405168ffffffffffffffffff90911681526020016100b8565b6100d461012436600461132d565b610f07565b6001546100979073ffffffffffffffffffffffffffffffffffffffff1681565b8161015381610fd6565b816101bf576040517f08c379a000000000000000000000000000000000000000000000000000000000815260206004820152601060248201527f4b65792061726720697320656d7074790000000000000000000000000000000060448201526064015b60405180910390fd5b6001546040517f68b229fa00000000000000000000000000000000000000000000000000000000815268ffffffffffffffffff851660048201526024810184905273ffffffffffffffffffffffffffffffffffffffff90911690600090819083906368b229fa90604401606060405180830381865afa158015610246573d6000803e3d6000fd5b505050506040513d601f19601f8201168201806040525081019061026a9190611351565b919350909150508481146102da576040517f08c379a000000000000000000000000000000000000000000000000000000000815260206004820152601260248201527f4b65792069736e2774206174746163686564000000000000000000000000000060448201526064016101b6565b6040517f4719c3de00000000000000000000000000000000000000000000000000000000815268ffffffffffffffffff871660048201526001602482015273ffffffffffffffffffffffffffffffffffffffff841690634719c3de90604401600060405180830381865afa158015610356573d6000803e3d6000fd5b505050506040513d6000823e601f3d9081017fffffffffffffffffffffffffffffffffffffffffffffffffffffffffffffffe016820160405261039c91908101906113ae565b51600114801561044e57506040517f35e4fb7a00000000000000000000000000000000000000000000000000000000815268ffffffffffffffffff87166004820152602481018690526001604482015273ffffffffffffffffffffffffffffffffffffffff8416906335e4fb7a90606401602060405180830381865afa15801561042a573d6000803e3d6000fd5b505050506040513d601f19601f8201168201806040525081019061044e919061148a565b156104b5576040517f08c379a000000000000000000000000000000000000000000000000000000000815260206004820181905260248201527f43616e6e6f742064656c65746520746865206f6e6c792061646d696e206b657960448201526064016101b6565b6040517f4719c3de00000000000000000000000000000000000000000000000000000000815268ffffffffffffffffff871660048201526002602482015273ffffffffffffffffffffffffffffffffffffffff841690634719c3de90604401600060405180830381865afa158015610531573d6000803e3d6000fd5b505050506040513d6000823e601f3d9081017fffffffffffffffffffffffffffffffffffffffffffffffffffffffffffffffe016820160405261057791908101906113ae565b51600114801561062957506040517f35e4fb7a00000000000000000000000000000000000000000000000000000000815268ffffffffffffffffff87166004820152602481018690526002604482015273ffffffffffffffffffffffffffffffffffffffff8416906335e4fb7a90606401602060405180830381865afa158015610605573d6000803e3d6000fd5b505050506040513d601f19601f82011682018060405250810190610629919061148a565b15610690576040517f08c379a000000000000000000000000000000000000000000000000000000000815260206004820181905260248201527f43616e6e6f742064656c65746520746865206f6e6c79206f7065722e206b657960448201526064016101b6565b6040517f67ac664f00000000000000000000000000000000000000000000000000000000815268ffffffffffffffffff871660048201526024810186905273ffffffffffffffffffffffffffffffffffffffff8416906367ac664f90604401600060405180830381600087803b15801561070957600080fd5b505af115801561071d573d6000803e3d6000fd5b50505050600282036107aa576040517f3be154000000000000000000000000000000000000000000000000000000000081526004810186905273ffffffffffffffffffffffffffffffffffffffff841690633be1540090602401600060405180830381600087803b15801561079157600080fd5b505af11580156107a5573d6000803e3d6000fd5b505050505b505050505050565b836107bc81610fd6565b83610823576040517f08c379a000000000000000000000000000000000000000000000000000000000815260206004820152601060248201527f4b65792061726720697320656d7074790000000000000000000000000000000060448201526064016101b6565b6001546040517f68b229fa00000000000000000000000000000000000000000000000000000000815268ffffffffffffffffff871660048201526024810186905273ffffffffffffffffffffffffffffffffffffffff9091169060009082906368b229fa90604401606060405180830381865afa1580156108a8573d6000803e3d6000fd5b505050506040513d601f19601f820116820180604052508101906108cc9190611351565b92505050858103610939576040517f08c379a000000000000000000000000000000000000000000000000000000000815260206004820152601760248201527f4b657920697320616c726561647920617474616368656400000000000000000060448201526064016101b6565b6040517fbee3b94e00000000000000000000000000000000000000000000000000000000815268ffffffffffffffffff8816600482015260248101879052604481018690526064810185905273ffffffffffffffffffffffffffffffffffffffff83169063bee3b94e90608401600060405180830381600087803b1580156109c057600080fd5b505af11580156109d4573d6000803e3d6000fd5b5050505060028503610a72576040517f707498ca0000000000000000000000000000000000000000000000000000000081526004810187905268ffffffffffffffffff8816602482015273ffffffffffffffffffffffffffffffffffffffff83169063707498ca90604401600060405180830381600087803b158015610a5957600080fd5b505af1158015610a6d573d6000803e3d6000fd5b505050505b50505050505050565b6000610a85611159565b73ffffffffffffffffffffffffffffffffffffffff8316610b02576040517f08c379a000000000000000000000000000000000000000000000000000000000815260206004820181905260248201527f4f7065726174696f6e616c20616464726573732063616e27742062652030783060448201526064016101b6565b73ffffffffffffffffffffffffffffffffffffffff8216610b7f576040517f08c379a000000000000000000000000000000000000000000000000000000000815260206004820152601a60248201527f41646d696e20616464726573732063616e27742062652030783000000000000060448201526064016101b6565b600154604080517ffcbe6b14000000000000000000000000000000000000000000000000000000008152905173ffffffffffffffffffffffffffffffffffffffff90921691600091839163fcbe6b1491600480820192602092909190829003018187875af1158015610bf5573d6000803e3d6000fd5b505050506040513d601f19601f82011682018060405250810190610c1991906114ac565b6040517fffffffffffffffffffffffffffffffffffffffff000000000000000000000000606087901b166020820152909150600090603401604080518083037fffffffffffffffffffffffffffffffffffffffffffffffffffffffffffffffe00181529082905280516020909101207fbee3b94e00000000000000000000000000000000000000000000000000000000825268ffffffffffffffffff84166004830152602482018190526001604483018190526064830152915073ffffffffffffffffffffffffffffffffffffffff84169063bee3b94e90608401600060405180830381600087803b158015610d0e57600080fd5b505af1158015610d22573d6000803e3d6000fd5b50506040517fffffffffffffffffffffffffffffffffffffffff00000000000000000000000060608a901b166020820152600092506034019050604080518083037fffffffffffffffffffffffffffffffffffffffffffffffffffffffffffffffe00181529082905280516020909101207fbee3b94e00000000000000000000000000000000000000000000000000000000825268ffffffffffffffffff85166004830152602482018190526002604483015260016064830152915073ffffffffffffffffffffffffffffffffffffffff85169063bee3b94e90608401600060405180830381600087803b158015610e1957600080fd5b505af1158015610e2d573d6000803e3d6000fd5b50506040517f707498ca0000000000000000000000000000000000000000000000000000000081526004810184905268ffffffffffffffffff8616602482015273ffffffffffffffffffffffffffffffffffffffff8716925063707498ca9150604401600060405180830381600087803b158015610eaa57600080fd5b505af1158015610ebe573d6000803e3d6000fd5b5050505081818468ffffffffffffffffff167f075aca39edba283f02f8c21a516c19dd1208d3b3d647f7012be49fe0e8dc2fd760405160405180910390a4509095945050505050565b610f0f611159565b6001546040517fdc06a39d00000000000000000000000000000000000000000000000000000000815268ffffffffffffffffff8316600482015273ffffffffffffffffffffffffffffffffffffffff9091169063dc06a39d90602401600060405180830381600087803b158015610f8557600080fd5b505af1158015610f99573d6000803e3d6000fd5b505060405168ffffffffffffffffff841692507f8eb76f325ff8b1aeeacdc5189acc141ef54246ceae65dc6d5458e385388472a89150600090a250565b6001546040517fffffffffffffffffffffffffffffffffffffffff0000000000000000000000003360601b16602082015273ffffffffffffffffffffffffffffffffffffffff909116906335e4fb7a908390603401604080517fffffffffffffffffffffffffffffffffffffffffffffffffffffffffffffffe08184030181529082905280516020909101207fffffffff0000000000000000000000000000000000000000000000000000000060e085901b16825268ffffffffffffffffff9092166004820152602481019190915260016044820152606401602060405180830381865afa1580156110cc573d6000803e3d6000fd5b505050506040513d601f19601f820116820180604052508101906110f0919061148a565b611156576040517f08c379a000000000000000000000000000000000000000000000000000000000815260206004820152600e60248201527f41646d696e2066756e6374696f6e00000000000000000000000000000000000060448201526064016101b6565b50565b6000546040517f1627905500000000000000000000000000000000000000000000000000000000815233600482015273ffffffffffffffffffffffffffffffffffffffff90911690631627905590602401602060405180830381865afa1580156111c7573d6000803e3d6000fd5b505050506040513d601f19601f820116820180604052508101906111eb919061148a565b611251576040517f08c379a000000000000000000000000000000000000000000000000000000000815260206004820181905260248201527f466e2063616e206f6e6c792062652063616c6c6564206279207468652068756260448201526064016101b6565b565b68ffffffffffffffffff8116811461115657600080fd5b6000806040838503121561127d57600080fd5b823561128881611253565b946020939093013593505050565b600080600080608085870312156112ac57600080fd5b84356112b781611253565b966020860135965060408601359560600135945092505050565b803573ffffffffffffffffffffffffffffffffffffffff811681146112f557600080fd5b919050565b6000806040838503121561130d57600080fd5b611316836112d1565b9150611324602084016112d1565b90509250929050565b60006020828403121561133f57600080fd5b813561134a81611253565b9392505050565b60008060006060848603121561136657600080fd5b8351925060208401519150604084015190509250925092565b7f4e487b7100000000000000000000000000000000000000000000000000000000600052604160045260246000fd5b600060208083850312156113c157600080fd5b825167ffffffffffffffff808211156113d957600080fd5b818501915085601f8301126113ed57600080fd5b8151818111156113ff576113ff61137f565b8060051b6040517fffffffffffffffffffffffffffffffffffffffffffffffffffffffffffffffe0603f830116810181811085821117156114425761144261137f565b60405291825284820192508381018501918883111561146057600080fd5b938501935b8285101561147e57845184529385019392850192611465565b98975050505050505050565b60006020828403121561149c57600080fd5b8151801515811461134a57600080fd5b6000602082840312156114be57600080fd5b815161134a8161125356fea26469706673582212205a5edf65c4e83a5c5f068dac14b596c09507766cb6989eb51fb86f8a662f2d9d64736f6c634300080e0033",
  "immutableReferences": {},
  "source": "// SPDX-License-Identifier: MIT\n\npragma solidity ^0.8.0;\n\nimport { Hub } from \"./Hub.sol\";\nimport { IdentityStorage } from \"./storage/IdentityStorage.sol\";\nimport { ADMIN_KEY, OPERATIONAL_KEY, ECDSA, RSA } from \"./constants/IdentityConstants.sol\";\n\ncontract Identity {\n\n    event IdentityCreated(uint72 indexed identityId, bytes32 indexed operationalKey, bytes32 indexed adminKey);\n    event IdentityDeleted(uint72 indexed identityId);\n\n    Hub public hub;\n    IdentityStorage public identityStorage;\n\n    constructor(address hubAddress) {\n        require(hubAddress != address(0));\n\n        hub = Hub(hubAddress);\n        identityStorage = IdentityStorage(hub.getContractAddress(\"IdentityStorage\"));\n    }\n\n    modifier onlyContracts() {\n        _checkHub();\n        _;\n    }\n\n    modifier onlyAdmin(uint72 identityId) {\n        _checkAdmin(identityId);\n        _;\n    }\n\n    function createIdentity(address operational, address admin) external onlyContracts returns (uint72) {\n        require(operational != address(0), \"Operational address can't be 0x0\");\n        require(admin != address(0), \"Admin address can't be 0x0\");\n\n        IdentityStorage ids = identityStorage;\n\n        uint72 identityId = ids.generateIdentityId();\n\n        bytes32 _admin_key = keccak256(abi.encodePacked(admin));\n        ids.addKey(identityId, _admin_key, ADMIN_KEY, ECDSA);\n\n        bytes32 _operational_key = keccak256(abi.encodePacked(operational));\n        ids.addKey(identityId, _operational_key, OPERATIONAL_KEY, ECDSA);\n\n        ids.setOperationalKeyIdentityId(_operational_key, identityId);\n\n        emit IdentityCreated(\n            identityId,\n            _operational_key,\n            _admin_key\n        );\n\n        return identityId;\n    }\n\n    function deleteIdentity(uint72 identityId) external onlyContracts {\n        identityStorage.deleteIdentity(identityId);\n\n        emit IdentityDeleted(identityId);\n    }\n\n    function addKey(uint72 identityId, bytes32 key, uint256 keyPurpose, uint256 keyType)\n        external\n        onlyAdmin(identityId)\n    {\n        require(key != bytes32(0), \"Key arg is empty\");\n\n        IdentityStorage ids = identityStorage;\n\n        bytes32 attachedKey;\n        ( , , attachedKey) = ids.getKey(identityId, key);\n        require(attachedKey != key, \"Key is already attached\");\n\n        ids.addKey(identityId, key, keyPurpose, keyType);\n\n        if (keyPurpose == OPERATIONAL_KEY) {\n            ids.setOperationalKeyIdentityId(key, identityId);\n        }\n    }\n\n    function removeKey(uint72 identityId, bytes32 key) external onlyAdmin(identityId) {\n        require(key != bytes32(0), \"Key arg is empty\");\n\n        IdentityStorage ids = identityStorage;\n\n        uint256 purpose;\n        bytes32 attachedKey;\n        (purpose, , attachedKey) = ids.getKey(identityId, key);\n        require(attachedKey == key, \"Key isn't attached\");\n\n        require(\n            !(\n                ids.getKeysByPurpose(identityId, ADMIN_KEY).length == 1 &&\n                ids.keyHasPurpose(identityId, key, ADMIN_KEY)\n            ),\n            \"Cannot delete the only admin key\"\n        );\n        require(\n            !(\n                ids.getKeysByPurpose(identityId, OPERATIONAL_KEY).length == 1 &&\n                ids.keyHasPurpose(identityId, key, OPERATIONAL_KEY)\n            ),\n            \"Cannot delete the only oper. key\"\n        );\n\n        ids.removeKey(identityId, key);\n\n        if (purpose == OPERATIONAL_KEY) {\n            ids.removeOperationalKeyIdentityId(key);\n        }\n    }\n\n    function _checkHub() internal view virtual {\n        require(hub.isContract(msg.sender), \"Fn can only be called by the hub\");\n    }\n\n    function _checkAdmin(uint72 identityId) internal view virtual {\n        require(\n            identityStorage.keyHasPurpose(identityId, keccak256(abi.encodePacked(msg.sender)), ADMIN_KEY),\n            \"Admin function\"\n        );\n    }\n\n}\n",
  "sourcePath": "/Users/waving/Desktop/OriginTrail/dkg-evm-module/contracts/Identity.sol",
  "compiler": {
    "name": "solc",
    "version": "0.8.14+commit.80d49f37.Emscripten.clang"
  },
  "schemaVersion": "3.4.10",
  "updatedAt": "2022-12-02T20:40:59.560Z",
  "devdoc": {
    "kind": "dev",
    "methods": {},
    "version": 1
  },
  "userdoc": {
    "kind": "user",
    "methods": {},
    "version": 1
  }
}