{
  "contractName": "IdentityStorage",
  "abi": [
    {
      "inputs": [
        {
          "internalType": "address",
          "name": "hubAddress",
          "type": "address"
        }
      ],
      "stateMutability": "nonpayable",
      "type": "constructor"
    },
    {
      "anonymous": false,
      "inputs": [
        {
          "indexed": true,
          "internalType": "uint96",
          "name": "identityId",
          "type": "uint96"
        },
        {
          "indexed": true,
          "internalType": "bytes32",
          "name": "operationalKey",
          "type": "bytes32"
        },
        {
          "indexed": true,
          "internalType": "bytes32",
          "name": "adminKey",
          "type": "bytes32"
        }
      ],
      "name": "IdentityCreated",
      "type": "event"
    },
    {
      "anonymous": false,
      "inputs": [
        {
          "indexed": true,
          "internalType": "uint96",
          "name": "identityId",
          "type": "uint96"
        },
        {
          "indexed": true,
          "internalType": "bytes32",
          "name": "key",
          "type": "bytes32"
        },
        {
          "indexed": false,
          "internalType": "uint256",
          "name": "purpose",
          "type": "uint256"
        },
        {
          "indexed": false,
          "internalType": "uint256",
          "name": "keyType",
          "type": "uint256"
        }
      ],
      "name": "KeyAdded",
      "type": "event"
    },
    {
      "anonymous": false,
      "inputs": [
        {
          "indexed": true,
          "internalType": "uint96",
          "name": "identityId",
          "type": "uint96"
        },
        {
          "indexed": true,
          "internalType": "bytes32",
          "name": "key",
          "type": "bytes32"
        },
        {
          "indexed": false,
          "internalType": "uint256",
          "name": "purpose",
          "type": "uint256"
        },
        {
          "indexed": false,
          "internalType": "uint256",
          "name": "keyType",
          "type": "uint256"
        }
      ],
      "name": "KeyRemoved",
      "type": "event"
    },
    {
      "inputs": [],
      "name": "hub",
      "outputs": [
        {
          "internalType": "contract Hub",
          "name": "",
          "type": "address"
        }
      ],
      "stateMutability": "view",
      "type": "function"
    },
    {
      "inputs": [
        {
          "internalType": "uint96",
          "name": "",
          "type": "uint96"
        }
      ],
      "name": "identities",
      "outputs": [
        {
          "internalType": "uint96",
          "name": "identityId",
          "type": "uint96"
        }
      ],
      "stateMutability": "view",
      "type": "function"
    },
    {
      "inputs": [
        {
          "internalType": "bytes32",
          "name": "",
          "type": "bytes32"
        }
      ],
      "name": "identityIds",
      "outputs": [
        {
          "internalType": "uint96",
          "name": "",
          "type": "uint96"
        }
      ],
      "stateMutability": "view",
      "type": "function"
    },
    {
      "inputs": [
        {
          "internalType": "address",
          "name": "operational",
          "type": "address"
        },
        {
          "internalType": "address",
          "name": "admin",
          "type": "address"
        }
      ],
      "name": "createIdentity",
      "outputs": [
        {
          "internalType": "uint96",
          "name": "",
          "type": "uint96"
        }
      ],
      "stateMutability": "nonpayable",
      "type": "function"
    },
    {
      "inputs": [],
      "name": "getIdentityId",
      "outputs": [
        {
          "internalType": "uint96",
          "name": "",
          "type": "uint96"
        }
      ],
      "stateMutability": "view",
      "type": "function"
    },
    {
      "inputs": [
        {
          "internalType": "uint96",
          "name": "identityId",
          "type": "uint96"
        },
        {
          "internalType": "bytes32",
          "name": "_key",
          "type": "bytes32"
        }
      ],
      "name": "getKey",
      "outputs": [
        {
          "internalType": "uint256",
          "name": "",
          "type": "uint256"
        },
        {
          "internalType": "uint256",
          "name": "",
          "type": "uint256"
        },
        {
          "internalType": "bytes32",
          "name": "",
          "type": "bytes32"
        }
      ],
      "stateMutability": "view",
      "type": "function"
    },
    {
      "inputs": [
        {
          "internalType": "uint96",
          "name": "identityId",
          "type": "uint96"
        },
        {
          "internalType": "bytes32",
          "name": "_key",
          "type": "bytes32"
        },
        {
          "internalType": "uint256",
          "name": "_purpose",
          "type": "uint256"
        }
      ],
      "name": "keyHasPurpose",
      "outputs": [
        {
          "internalType": "bool",
          "name": "",
          "type": "bool"
        }
      ],
      "stateMutability": "view",
      "type": "function"
    },
    {
      "inputs": [
        {
          "internalType": "uint96",
          "name": "identityId",
          "type": "uint96"
        },
        {
          "internalType": "uint256",
          "name": "_purpose",
          "type": "uint256"
        }
      ],
      "name": "getKeysByPurpose",
      "outputs": [
        {
          "internalType": "bytes32[]",
          "name": "",
          "type": "bytes32[]"
        }
      ],
      "stateMutability": "view",
      "type": "function"
    },
    {
      "inputs": [
        {
          "internalType": "uint96",
          "name": "identityId",
          "type": "uint96"
        },
        {
          "internalType": "bytes32",
          "name": "_key",
          "type": "bytes32"
        },
        {
          "internalType": "uint256",
          "name": "_purpose",
          "type": "uint256"
        },
        {
          "internalType": "uint256",
          "name": "_type",
          "type": "uint256"
        }
      ],
      "name": "addKey",
      "outputs": [
        {
          "internalType": "bool",
          "name": "",
          "type": "bool"
        }
      ],
      "stateMutability": "nonpayable",
      "type": "function"
    },
    {
      "inputs": [
        {
          "internalType": "uint96",
          "name": "identityId",
          "type": "uint96"
        },
        {
          "internalType": "bytes32",
          "name": "_key",
          "type": "bytes32"
        }
      ],
      "name": "removeKey",
      "outputs": [
        {
          "internalType": "bool",
          "name": "",
          "type": "bool"
        }
      ],
      "stateMutability": "nonpayable",
      "type": "function"
    }
  ],
  "bytecode": "0x60806040523480156200001157600080fd5b50604051620021df380380620021df833981810160405281019062000037919062000154565b600073ffffffffffffffffffffffffffffffffffffffff168173ffffffffffffffffffffffffffffffffffffffff16036200007157600080fd5b806000806101000a81548173ffffffffffffffffffffffffffffffffffffffff021916908373ffffffffffffffffffffffffffffffffffffffff1602179055506001600060146101000a8154816bffffffffffffffffffffffff02191690836bffffffffffffffffffffffff1602179055505062000186565b600080fd5b600073ffffffffffffffffffffffffffffffffffffffff82169050919050565b60006200011c82620000ef565b9050919050565b6200012e816200010f565b81146200013a57600080fd5b50565b6000815190506200014e8162000123565b92915050565b6000602082840312156200016d576200016c620000ea565b5b60006200017d848285016200013d565b91505092915050565b61204980620001966000396000f3fe608060405234801561001057600080fd5b506004361061009e5760003560e01c80637b451d37116100665780637b451d371461016f578063c01e51381461019f578063d10e73ab146101d1578063d55bbcac14610201578063e8b98464146102315761009e565b80630bf03a6c146100a35780631fc2b3ab146100d3578063365a86fc146101035780636787bf24146101215780637006045c14610151575b600080fd5b6100bd60048036038101906100b8919061139c565b610261565b6040516100ca91906113d8565b60405180910390f35b6100ed60048036038101906100e89190611429565b610297565b6040516100fa91906113d8565b60405180910390f35b61010b6102c2565b60405161011891906114d5565b60405180910390f35b61013b60048036038101906101369190611526565b6102e6565b60405161014891906115a8565b60405180910390f35b610159610611565b60405161016691906113d8565b60405180910390f35b610189600480360381019061018491906115c3565b61066a565b60405161019691906115a8565b60405180910390f35b6101b960048036038101906101b491906115c3565b610a38565b6040516101c893929190611621565b60405180910390f35b6101eb60048036038101906101e69190611696565b610b1f565b6040516101f891906113d8565b60405180910390f35b61021b600480360381019061021691906116d6565b61111d565b60405161022891906115a8565b60405180910390f35b61024b60048036038101906102469190611729565b611171565b6040516102589190611827565b60405180910390f35b60026020528060005260406000206000915090508060000160009054906101000a90046bffffffffffffffffffffffff16905081565b60016020528060005260406000206000915054906101000a90046bffffffffffffffffffffffff1681565b60008054906101000a900473ffffffffffffffffffffffffffffffffffffffff1681565b600061031a85336040516020016102fd9190611891565b60405160208183030381529060405280519060200120600161111d565b610359576040517f08c379a000000000000000000000000000000000000000000000000000000000815260040161035090611909565b60405180910390fd5b6000801b840361039e576040517f08c379a000000000000000000000000000000000000000000000000000000000815260040161039590611975565b60405180910390fd5b8360026000876bffffffffffffffffffffffff166bffffffffffffffffffffffff16815260200190815260200160002060010160008681526020019081526020016000206002015403610426576040517f08c379a000000000000000000000000000000000000000000000000000000000815260040161041d90611a07565b60405180910390fd5b8260026000876bffffffffffffffffffffffff166bffffffffffffffffffffffff1681526020019081526020016000206001016000868152602001908152602001600020600001819055508160026000876bffffffffffffffffffffffff166bffffffffffffffffffffffff1681526020019081526020016000206001016000868152602001908152602001600020600101819055508360026000876bffffffffffffffffffffffff166bffffffffffffffffffffffff16815260200190815260200160002060010160008681526020019081526020016000206002018190555060026000866bffffffffffffffffffffffff166bffffffffffffffffffffffff1681526020019081526020016000206002016000848152602001908152602001600020849080600181540180825580915050600190039060005260206000200160009091909190915055600283036105bc57846001600086815260200190815260200160002060006101000a8154816bffffffffffffffffffffffff02191690836bffffffffffffffffffffffff1602179055505b83856bffffffffffffffffffffffff167fddb3379e7a64dd6a3168dd79f0aefb02aa90026561607038bfb00e4c1942b52f85856040516105fd929190611a27565b60405180910390a360019050949350505050565b600060016000336040516020016106289190611891565b60405160208183030381529060405280519060200120815260200190815260200160002060009054906101000a90046bffffffffffffffffffffffff16905090565b600061069e83336040516020016106819190611891565b60405160208183030381529060405280519060200120600161111d565b6106dd576040517f08c379a00000000000000000000000000000000000000000000000000000000081526004016106d490611909565b60405180910390fd5b6000801b8203610722576040517f08c379a000000000000000000000000000000000000000000000000000000000815260040161071990611975565b60405180910390fd5b600060026000856bffffffffffffffffffffffff166bffffffffffffffffffffffff16815260200190815260200160002090508281600101600085815260200190815260200160002060020154146107af576040517f08c379a00000000000000000000000000000000000000000000000000000000081526004016107a690611ac2565b60405180910390fd5b600181600201600060018152602001908152602001600020805490501480156107e057506107df8484600161111d565b5b15610820576040517f08c379a000000000000000000000000000000000000000000000000000000000815260040161081790611b2e565b60405180910390fd5b6001816002016000600281526020019081526020016000208054905014801561085157506108508484600261111d565b5b15610891576040517f08c379a000000000000000000000000000000000000000000000000000000000815260040161088890611bc0565b60405180910390fd5b80600101600084815260200190815260200160002060020154846bffffffffffffffffffffffff167f0641c9782718a45df6ce449d0f27b47c35cf945084dd989350a7e5a947584763836001016000878152602001908152602001600020600001548460010160008881526020019081526020016000206001015460405161091a929190611a27565b60405180910390a3600080610964858460020160008660010160008a815260200190815260200160002060000154815260200190815260200160002061120d90919063ffffffff16565b80925081935050506109ab828460020160008660010160008a815260200190815260200160002060000154815260200190815260200160002061127390919063ffffffff16565b5082600101600086815260200190815260200160002060008082016000905560018201600090556002820160009055505060028360010160008781526020019081526020016000206000015403610a2b576001600086815260200190815260200160002060006101000a8154906bffffffffffffffffffffffff02191690555b6001935050505092915050565b600080600060026000866bffffffffffffffffffffffff166bffffffffffffffffffffffff16815260200190815260200160002060010160008581526020019081526020016000206000015460026000876bffffffffffffffffffffffff166bffffffffffffffffffffffff16815260200190815260200160002060010160008681526020019081526020016000206001015460026000886bffffffffffffffffffffffff166bffffffffffffffffffffffff1681526020019081526020016000206001016000878152602001908152602001600020600201549250925092509250925092565b60008060009054906101000a900473ffffffffffffffffffffffffffffffffffffffff1673ffffffffffffffffffffffffffffffffffffffff166304433bbc6040518163ffffffff1660e01b8152600401610b7990611c2c565b602060405180830381865afa158015610b96573d6000803e3d6000fd5b505050506040513d601f19601f82011682018060405250810190610bba9190611c61565b73ffffffffffffffffffffffffffffffffffffffff163373ffffffffffffffffffffffffffffffffffffffff1614610c27576040517f08c379a0000000000000000000000000000000000000000000000000000000008152600401610c1e90611d00565b60405180910390fd5b600073ffffffffffffffffffffffffffffffffffffffff168373ffffffffffffffffffffffffffffffffffffffff1603610c96576040517f08c379a0000000000000000000000000000000000000000000000000000000008152600401610c8d90611d92565b60405180910390fd5b600073ffffffffffffffffffffffffffffffffffffffff168273ffffffffffffffffffffffffffffffffffffffff1603610d05576040517f08c379a0000000000000000000000000000000000000000000000000000000008152600401610cfc90611e24565b60405180910390fd5b8173ffffffffffffffffffffffffffffffffffffffff168373ffffffffffffffffffffffffffffffffffffffff1603610d73576040517f08c379a0000000000000000000000000000000000000000000000000000000008152600401610d6a90611eb6565b60405180910390fd5b600082604051602001610d869190611891565b60405160208183030381529060405280519060200120905060008060149054906101000a90046bffffffffffffffffffffffff169050600060026000836bffffffffffffffffffffffff166bffffffffffffffffffffffff16815260200190815260200160002090506000601481819054906101000a90046bffffffffffffffffffffffff1680929190610e1990611f05565b91906101000a8154816bffffffffffffffffffffffff02191690836bffffffffffffffffffffffff1602179055505060018160010160008581526020019081526020016000206000018190555060018160010160008581526020019081526020016000206001018190555082816001016000858152602001908152602001600020600201819055508060020160006001815260200190815260200160002083908060018154018082558091505060019003906000526020600020016000909190919091505582826bffffffffffffffffffffffff167fddb3379e7a64dd6a3168dd79f0aefb02aa90026561607038bfb00e4c1942b52f8360010160008781526020019081526020016000206000015484600101600088815260200190815260200160002060010154604051610f4f929190611a27565b60405180910390a3600086604051602001610f6a9190611891565b604051602081830303815290604052805190602001209050826001600083815260200190815260200160002060006101000a8154816bffffffffffffffffffffffff02191690836bffffffffffffffffffffffff16021790555060028260010160008381526020019081526020016000206000018190555060018260010160008381526020019081526020016000206001018190555080826001016000838152602001908152602001600020600201819055508160020160006002815260200190815260200160002081908060018154018082558091505060019003906000526020600020016000909190919091505580836bffffffffffffffffffffffff167fddb3379e7a64dd6a3168dd79f0aefb02aa90026561607038bfb00e4c1942b52f84600101600085815260200190815260200160002060000154856001016000868152602001908152602001600020600101546040516110cb929190611a27565b60405180910390a38381846bffffffffffffffffffffffff167f1152bb203c8119b3be98cdef8f655065df73e147286b3d7911d8f03c69881b6a60405160405180910390a48294505050505092915050565b60008160026000866bffffffffffffffffffffffff166bffffffffffffffffffffffff1681526020019081526020016000206001016000858152602001908152602001600020600001541490509392505050565b606060026000846bffffffffffffffffffffffff166bffffffffffffffffffffffff168152602001908152602001600020600201600083815260200190815260200160002080548060200260200160405190810160405280929190818152602001828054801561120057602002820191906000526020600020905b8154815260200190600101908083116111ec575b5050505050905092915050565b60008060005b8480549050811015611263578385828154811061123357611232611f39565b5b90600052602060002001540361125057806001925092505061126c565b808061125b90611f68565b915050611213565b50600080915091505b9250929050565b60608280549050821061128557600080fd5b82600184805490506112979190611fb0565b815481106112a8576112a7611f39565b5b90600052602060002001548383815481106112c6576112c5611f39565b5b9060005260206000200181905550828054806112e5576112e4611fe4565b5b600190038181906000526020600020016000905590558280548060200260200160405190810160405280929190818152602001828054801561134657602002820191906000526020600020905b815481526020019060010190808311611332575b5050505050905092915050565b600080fd5b60006bffffffffffffffffffffffff82169050919050565b61137981611358565b811461138457600080fd5b50565b60008135905061139681611370565b92915050565b6000602082840312156113b2576113b1611353565b5b60006113c084828501611387565b91505092915050565b6113d281611358565b82525050565b60006020820190506113ed60008301846113c9565b92915050565b6000819050919050565b611406816113f3565b811461141157600080fd5b50565b600081359050611423816113fd565b92915050565b60006020828403121561143f5761143e611353565b5b600061144d84828501611414565b91505092915050565b600073ffffffffffffffffffffffffffffffffffffffff82169050919050565b6000819050919050565b600061149b61149661149184611456565b611476565b611456565b9050919050565b60006114ad82611480565b9050919050565b60006114bf826114a2565b9050919050565b6114cf816114b4565b82525050565b60006020820190506114ea60008301846114c6565b92915050565b6000819050919050565b611503816114f0565b811461150e57600080fd5b50565b600081359050611520816114fa565b92915050565b600080600080608085870312156115405761153f611353565b5b600061154e87828801611387565b945050602061155f87828801611414565b935050604061157087828801611511565b925050606061158187828801611511565b91505092959194509250565b60008115159050919050565b6115a28161158d565b82525050565b60006020820190506115bd6000830184611599565b92915050565b600080604083850312156115da576115d9611353565b5b60006115e885828601611387565b92505060206115f985828601611414565b9150509250929050565b61160c816114f0565b82525050565b61161b816113f3565b82525050565b60006060820190506116366000830186611603565b6116436020830185611603565b6116506040830184611612565b949350505050565b600061166382611456565b9050919050565b61167381611658565b811461167e57600080fd5b50565b6000813590506116908161166a565b92915050565b600080604083850312156116ad576116ac611353565b5b60006116bb85828601611681565b92505060206116cc85828601611681565b9150509250929050565b6000806000606084860312156116ef576116ee611353565b5b60006116fd86828701611387565b935050602061170e86828701611414565b925050604061171f86828701611511565b9150509250925092565b600080604083850312156117405761173f611353565b5b600061174e85828601611387565b925050602061175f85828601611511565b9150509250929050565b600081519050919050565b600082825260208201905092915050565b6000819050602082019050919050565b61179e816113f3565b82525050565b60006117b08383611795565b60208301905092915050565b6000602082019050919050565b60006117d482611769565b6117de8185611774565b93506117e983611785565b8060005b8381101561181a57815161180188826117a4565b975061180c836117bc565b9250506001810190506117ed565b5085935050505092915050565b6000602082019050818103600083015261184181846117c9565b905092915050565b60008160601b9050919050565b600061186182611849565b9050919050565b600061187382611856565b9050919050565b61188b61188682611658565b611868565b82525050565b600061189d828461187a565b60148201915081905092915050565b600082825260208201905092915050565b7f41646d696e2066756e6374696f6e000000000000000000000000000000000000600082015250565b60006118f3600e836118ac565b91506118fe826118bd565b602082019050919050565b60006020820190508181036000830152611922816118e6565b9050919050565b7f4b65792061726720697320656d70747900000000000000000000000000000000600082015250565b600061195f6010836118ac565b915061196a82611929565b602082019050919050565b6000602082019050818103600083015261198e81611952565b9050919050565b7f4b657920697320616c726561647920617474616368656420746f20746865206960008201527f64656e7469747900000000000000000000000000000000000000000000000000602082015250565b60006119f16027836118ac565b91506119fc82611995565b604082019050919050565b60006020820190508181036000830152611a20816119e4565b9050919050565b6000604082019050611a3c6000830185611603565b611a496020830184611603565b9392505050565b7f4b65792069736e277420617474616368656420746f20746865206964656e746960008201527f7479000000000000000000000000000000000000000000000000000000000000602082015250565b6000611aac6022836118ac565b9150611ab782611a50565b604082019050919050565b60006020820190508181036000830152611adb81611a9f565b9050919050565b7f43616e6e6f742064656c65746520746865206f6e6c792061646d696e206b6579600082015250565b6000611b186020836118ac565b9150611b2382611ae2565b602082019050919050565b60006020820190508181036000830152611b4781611b0b565b9050919050565b7f43616e6e6f742064656c65746520746865206f6e6c79206f7065726174696f6e60008201527f616c206b65790000000000000000000000000000000000000000000000000000602082015250565b6000611baa6026836118ac565b9150611bb582611b4e565b604082019050919050565b60006020820190508181036000830152611bd981611b9d565b9050919050565b7f50726f66696c6553746f72616765000000000000000000000000000000000000600082015250565b6000611c16600e836118ac565b9150611c2182611be0565b602082019050919050565b60006020820190508181036000830152611c4581611c09565b9050919050565b600081519050611c5b8161166a565b92915050565b600060208284031215611c7757611c76611353565b5b6000611c8584828501611c4c565b91505092915050565b7f46756e6374696f6e2063616e206f6e6c792062652063616c6c6564206279205060008201527f726f66696c6553746f7261676520636f6e747261637400000000000000000000602082015250565b6000611cea6036836118ac565b9150611cf582611c8e565b604082019050919050565b60006020820190508181036000830152611d1981611cdd565b9050919050565b7f4f7065726174696f6e616c2077616c6c657420616464726573732063616e277460008201527f20626520656d7074790000000000000000000000000000000000000000000000602082015250565b6000611d7c6029836118ac565b9150611d8782611d20565b604082019050919050565b60006020820190508181036000830152611dab81611d6f565b9050919050565b7f41646d696e2077616c6c657420616464726573732063616e277420626520656d60008201527f7074790000000000000000000000000000000000000000000000000000000000602082015250565b6000611e0e6023836118ac565b9150611e1982611db2565b604082019050919050565b60006020820190508181036000830152611e3d81611e01565b9050919050565b7f53616d65206164647265737320666f722041444d494e2f4f5045524154494f4e60008201527f414c20707572706f736573000000000000000000000000000000000000000000602082015250565b6000611ea0602b836118ac565b9150611eab82611e44565b604082019050919050565b60006020820190508181036000830152611ecf81611e93565b9050919050565b7f4e487b7100000000000000000000000000000000000000000000000000000000600052601160045260246000fd5b6000611f1082611358565b91506bffffffffffffffffffffffff8203611f2e57611f2d611ed6565b5b600182019050919050565b7f4e487b7100000000000000000000000000000000000000000000000000000000600052603260045260246000fd5b6000611f73826114f0565b91507fffffffffffffffffffffffffffffffffffffffffffffffffffffffffffffffff8203611fa557611fa4611ed6565b5b600182019050919050565b6000611fbb826114f0565b9150611fc6836114f0565b925082821015611fd957611fd8611ed6565b5b828203905092915050565b7f4e487b7100000000000000000000000000000000000000000000000000000000600052603160045260246000fdfea2646970667358221220b1bbf435169fe712c1286ddd7c282fc18f510dba3c73f8dc9ee4c5ec48dddd4664736f6c634300080e0033",
  "immutableReferences": {},
  "source": "// SPDX-License-Identifier: MIT\n\npragma solidity ^0.8.0;\n\nimport { ByteArr } from \"../utils/ByteArr.sol\";\nimport { Hub } from \"../Hub.sol\";\nimport { IERC734Extended } from \"../interface/IERC734Extended.sol\";\n\ncontract IdentityStorage is IERC734Extended {\n    using ByteArr for bytes;\n    using ByteArr for bytes32[];\n    using ByteArr for uint256[];\n\n    uint256 constant ADMIN_KEY = 1;\n    uint256 constant OPERATIONAL_KEY = 2;\n\n    Hub public hub;\n\n    uint96 private _identityId;\n\n    struct Identity {\n        uint96 identityId;\n        mapping (bytes32 => Key) keys;\n        mapping (uint256 => bytes32[]) keysByPurpose;\n    }\n\n    // operationalKey => identityId\n    mapping(bytes32 => uint96) public identityIds;\n    // identityId => Identity\n    mapping(uint96 => Identity) public identities;\n\n    constructor(address hubAddress) {\n        require(hubAddress != address(0));\n        hub = Hub(hubAddress);\n\n        _identityId = 1;\n    }\n\n    modifier onlyProfileStorage() {\n        require(\n            msg.sender == hub.getContractAddress(\"ProfileStorage\"),\n            \"Function can only be called by ProfileStorage contract\"\n        );\n        _;\n    }\n\n    function createIdentity(address operational, address admin) public onlyProfileStorage returns (uint96) {\n        require(operational != address(0), \"Operational wallet address can't be empty\");\n        require(admin != address(0), \"Admin wallet address can't be empty\");\n        require(operational != admin, \"Same address for ADMIN/OPERATIONAL purposes\");\n\n        bytes32 _admin_key = keccak256(abi.encodePacked(admin));\n\n        uint96 identityId = _identityId;\n        Identity storage identity = identities[identityId];\n        _identityId++;\n        \n        identity.keys[_admin_key].purpose = ADMIN_KEY;\n        identity.keys[_admin_key].keyType = 1;  // ECDSA\n        identity.keys[_admin_key].key = _admin_key;\n        identity.keysByPurpose[ADMIN_KEY].push(_admin_key);\n\n        emit KeyAdded(identityId, _admin_key, identity.keys[_admin_key].purpose, identity.keys[_admin_key].keyType);\n\n        bytes32 _operational_key = keccak256(abi.encodePacked(operational));\n\n        identityIds[_operational_key] = identityId;\n\n        identity.keys[_operational_key].purpose = OPERATIONAL_KEY;\n        identity.keys[_operational_key].keyType = 1;  // ECDSA\n        identity.keys[_operational_key].key = _operational_key;\n        identity.keysByPurpose[OPERATIONAL_KEY].push(_operational_key);\n\n        emit KeyAdded(\n            identityId,\n            _operational_key,\n            identity.keys[_operational_key].purpose,\n            identity.keys[_operational_key].keyType\n        );\n\n        emit IdentityCreated(identityId, _operational_key, _admin_key);\n\n        return identityId;\n    }\n\n    function getIdentityId() public view returns (uint96) {\n        return identityIds[keccak256(abi.encodePacked(msg.sender))];\n    }\n\n    function getKey(uint96 identityId, bytes32 _key) public view override returns (uint256, uint256, bytes32) {\n        return (\n            identities[identityId].keys[_key].purpose,\n            identities[identityId].keys[_key].keyType,\n            identities[identityId].keys[_key].key\n        );\n    }\n\n    function keyHasPurpose(uint96 identityId, bytes32 _key, uint256 _purpose) public view override returns (bool) {\n        return identities[identityId].keys[_key].purpose == _purpose;\n    }\n\n    function getKeysByPurpose(uint96 identityId, uint256 _purpose) public view override returns (bytes32[] memory) {\n        return identities[identityId].keysByPurpose[_purpose];\n    }\n\n    function addKey(uint96 identityId, bytes32 _key, uint256 _purpose, uint256 _type) public override returns (bool) {\n        require(keyHasPurpose(identityId, keccak256(abi.encodePacked(msg.sender)), ADMIN_KEY), \"Admin function\");\n        require(_key != bytes32(0), \"Key arg is empty\");\n        require(identities[identityId].keys[_key].key != _key, \"Key is already attached to the identity\");\n\n        identities[identityId].keys[_key].purpose = _purpose;\n        identities[identityId].keys[_key].keyType = _type;\n        identities[identityId].keys[_key].key = _key;\n        identities[identityId].keysByPurpose[_purpose].push(_key);\n\n        if (_purpose == OPERATIONAL_KEY) {\n            identityIds[_key] = identityId;\n        }\n\n        emit KeyAdded(identityId, _key, _purpose, _type);\n\n        return true;\n    }\n\n    function removeKey(uint96 identityId, bytes32 _key) public override returns (bool) {\n        require(keyHasPurpose(identityId, keccak256(abi.encodePacked(msg.sender)), ADMIN_KEY), \"Admin function\");\n        require(_key != bytes32(0), \"Key arg is empty\");\n\n        Identity storage identity = identities[identityId];\n        require(identity.keys[_key].key == _key, \"Key isn't attached to the identity\");\n\n        require(\n            !(identity.keysByPurpose[ADMIN_KEY].length == 1 && keyHasPurpose(identityId, _key, ADMIN_KEY)),\n            \"Cannot delete the only admin key\"\n        );\n        require(\n            !(identity.keysByPurpose[OPERATIONAL_KEY].length == 1 && keyHasPurpose(identityId, _key, OPERATIONAL_KEY)),\n            \"Cannot delete the only operational key\"\n        );\n\n        emit KeyRemoved(identityId, identity.keys[_key].key, identity.keys[_key].purpose, identity.keys[_key].keyType);\n\n        uint256 index;\n        bool success;\n        (index, success) = identity.keysByPurpose[identity.keys[_key].purpose].indexOf(_key);\n        identity.keysByPurpose[identity.keys[_key].purpose].removeByIndex(index);\n\n        delete identity.keys[_key];\n\n        if (identity.keys[_key].purpose == OPERATIONAL_KEY) {\n            delete identityIds[_key];\n        }\n\n        return true;\n    }\n}\n",
  "sourcePath": "/Users/waving/Desktop/OriginTrail/dkg-evm-module/contracts/storage/IdentityStorage.sol",
  "compiler": {
    "name": "solc",
    "version": "0.8.14+commit.80d49f37.Emscripten.clang"
  },
  "schemaVersion": "3.4.10",
  "updatedAt": "2022-11-16T12:47:53.415Z",
  "devdoc": {
    "kind": "dev",
    "methods": {},
    "version": 1
  },
  "userdoc": {
    "kind": "user",
    "methods": {},
    "version": 1
  }
}