{
  "contractName": "IdentityStorage",
  "abi": [
    {
      "inputs": [
        {
          "internalType": "address",
          "name": "hubAddress",
          "type": "address"
        }
      ],
      "stateMutability": "nonpayable",
      "type": "constructor"
    },
    {
      "anonymous": false,
      "inputs": [
        {
          "indexed": true,
          "internalType": "uint72",
          "name": "identityId",
          "type": "uint72"
        },
        {
          "indexed": true,
          "internalType": "bytes32",
          "name": "key",
          "type": "bytes32"
        },
        {
          "indexed": false,
          "internalType": "uint256",
          "name": "purpose",
          "type": "uint256"
        },
        {
          "indexed": false,
          "internalType": "uint256",
          "name": "keyType",
          "type": "uint256"
        }
      ],
      "name": "KeyAdded",
      "type": "event"
    },
    {
      "anonymous": false,
      "inputs": [
        {
          "indexed": true,
          "internalType": "uint72",
          "name": "identityId",
          "type": "uint72"
        },
        {
          "indexed": true,
          "internalType": "bytes32",
          "name": "key",
          "type": "bytes32"
        },
        {
          "indexed": false,
          "internalType": "uint256",
          "name": "purpose",
          "type": "uint256"
        },
        {
          "indexed": false,
          "internalType": "uint256",
          "name": "keyType",
          "type": "uint256"
        }
      ],
      "name": "KeyRemoved",
      "type": "event"
    },
    {
      "inputs": [],
      "name": "hub",
      "outputs": [
        {
          "internalType": "contract Hub",
          "name": "",
          "type": "address"
        }
      ],
      "stateMutability": "view",
      "type": "function"
    },
    {
      "inputs": [
        {
          "internalType": "bytes32",
          "name": "",
          "type": "bytes32"
        }
      ],
      "name": "identityIds",
      "outputs": [
        {
          "internalType": "uint72",
          "name": "",
          "type": "uint72"
        }
      ],
      "stateMutability": "view",
      "type": "function"
    },
    {
      "inputs": [
        {
          "internalType": "uint72",
          "name": "identityId",
          "type": "uint72"
        }
      ],
      "name": "deleteIdentity",
      "outputs": [],
      "stateMutability": "nonpayable",
      "type": "function"
    },
    {
      "inputs": [
        {
          "internalType": "uint72",
          "name": "identityId",
          "type": "uint72"
        },
        {
          "internalType": "bytes32",
          "name": "_key",
          "type": "bytes32"
        },
        {
          "internalType": "uint256",
          "name": "_purpose",
          "type": "uint256"
        },
        {
          "internalType": "uint256",
          "name": "_type",
          "type": "uint256"
        }
      ],
      "name": "addKey",
      "outputs": [],
      "stateMutability": "nonpayable",
      "type": "function"
    },
    {
      "inputs": [
        {
          "internalType": "uint72",
          "name": "identityId",
          "type": "uint72"
        },
        {
          "internalType": "bytes32",
          "name": "_key",
          "type": "bytes32"
        }
      ],
      "name": "removeKey",
      "outputs": [],
      "stateMutability": "nonpayable",
      "type": "function"
    },
    {
      "inputs": [
        {
          "internalType": "uint72",
          "name": "identityId",
          "type": "uint72"
        },
        {
          "internalType": "bytes32",
          "name": "_key",
          "type": "bytes32"
        },
        {
          "internalType": "uint256",
          "name": "_purpose",
          "type": "uint256"
        }
      ],
      "name": "keyHasPurpose",
      "outputs": [
        {
          "internalType": "bool",
          "name": "",
          "type": "bool"
        }
      ],
      "stateMutability": "view",
      "type": "function"
    },
    {
      "inputs": [
        {
          "internalType": "uint72",
          "name": "identityId",
          "type": "uint72"
        },
        {
          "internalType": "bytes32",
          "name": "_key",
          "type": "bytes32"
        }
      ],
      "name": "getKey",
      "outputs": [
        {
          "internalType": "uint256",
          "name": "",
          "type": "uint256"
        },
        {
          "internalType": "uint256",
          "name": "",
          "type": "uint256"
        },
        {
          "internalType": "bytes32",
          "name": "",
          "type": "bytes32"
        }
      ],
      "stateMutability": "view",
      "type": "function"
    },
    {
      "inputs": [
        {
          "internalType": "uint72",
          "name": "identityId",
          "type": "uint72"
        },
        {
          "internalType": "uint256",
          "name": "_purpose",
          "type": "uint256"
        }
      ],
      "name": "getKeysByPurpose",
      "outputs": [
        {
          "internalType": "bytes32[]",
          "name": "",
          "type": "bytes32[]"
        }
      ],
      "stateMutability": "view",
      "type": "function"
    },
    {
      "inputs": [
        {
          "internalType": "address",
          "name": "operational",
          "type": "address"
        }
      ],
      "name": "getIdentityId",
      "outputs": [
        {
          "internalType": "uint72",
          "name": "",
          "type": "uint72"
        }
      ],
      "stateMutability": "view",
      "type": "function"
    },
    {
      "inputs": [
        {
          "internalType": "bytes32",
          "name": "operationalKey",
          "type": "bytes32"
        },
        {
          "internalType": "uint72",
          "name": "identityId",
          "type": "uint72"
        }
      ],
      "name": "setOperationalKeyIdentityId",
      "outputs": [],
      "stateMutability": "nonpayable",
      "type": "function"
    },
    {
      "inputs": [
        {
          "internalType": "bytes32",
          "name": "operationalKey",
          "type": "bytes32"
        }
      ],
      "name": "removeOperationalKeyIdentityId",
      "outputs": [],
      "stateMutability": "nonpayable",
      "type": "function"
    },
    {
      "inputs": [
        {
          "internalType": "uint72",
          "name": "identityId",
          "type": "uint72"
        }
      ],
      "name": "identityExists",
      "outputs": [
        {
          "internalType": "bool",
          "name": "",
          "type": "bool"
        }
      ],
      "stateMutability": "view",
      "type": "function"
    },
    {
      "inputs": [],
      "name": "generateIdentityId",
      "outputs": [
        {
          "internalType": "uint72",
          "name": "",
          "type": "uint72"
        }
      ],
      "stateMutability": "nonpayable",
      "type": "function"
    }
  ],
  "bytecode": "0x608060405234801561001057600080fd5b50604051610c5d380380610c5d83398101604081905261002f9161006c565b6001600160a01b03811661004257600080fd5b600080546001600160e81b0319166001600160a01b0390921691909117600160a01b17905561009c565b60006020828403121561007e57600080fd5b81516001600160a01b038116811461009557600080fd5b9392505050565b610bb2806100ab6000396000f3fe608060405234801561001057600080fd5b50600436106100df5760003560e01c806368b229fa1161008c5780639a53409c116100665780639a53409c146102f9578063bee3b94e1461032a578063dc06a39d1461033d578063fcbe6b141461035057600080fd5b806368b229fa14610208578063707498ca1461026e578063867a46801461028157600080fd5b80633be15400116100bd5780633be15400146101c05780634719c3de146101d557806367ac664f146101f557600080fd5b80631fc2b3ab146100e457806335e4fb7a1461012e578063365a86fc1461017b575b600080fd5b61010f6100f23660046108c1565b60016020526000908152604090205468ffffffffffffffffff1681565b60405168ffffffffffffffffff90911681526020015b60405180910390f35b61016b61013c3660046108f8565b68ffffffffffffffffff9290921660009081526002602090815260408083209383526001909301905220541490565b6040519015158152602001610125565b60005461019b9073ffffffffffffffffffffffffffffffffffffffff1681565b60405173ffffffffffffffffffffffffffffffffffffffff9091168152602001610125565b6101d36101ce3660046108c1565b610358565b005b6101e86101e336600461092b565b610396565b6040516101259190610955565b6101d361020336600461092b565b61040f565b61025361021636600461092b565b68ffffffffffffffffff91909116600090815260026020818152604080842094845260019485019091529091208054928101549101549192909190565b60408051938452602084019290925290820152606001610125565b6101d361027c366004610999565b6104f5565b61010f61028f3660046109c5565b6040805160609290921b7fffffffffffffffffffffffffffffffffffffffff0000000000000000000000001660208084019190915281516014818503018152603490930182528251928101929092206000908152600190925290205468ffffffffffffffffff1690565b61016b610307366004610a02565b68ffffffffffffffffff9081166000818152600260205260409020549091161490565b6101d3610338366004610a1d565b610545565b6101d361034b366004610a02565b6105da565b61010f610623565b61036061068d565b600090815260016020526040902080547fffffffffffffffffffffffffffffffffffffffffffffff000000000000000000169055565b68ffffffffffffffffff82166000908152600260208181526040808420858552909201815291819020805482518185028101850190935280835260609383018282801561040257602002820191906000526020600020905b8154815260200190600101908083116103ee575b5050505050905092915050565b61041761068d565b68ffffffffffffffffff821660009081526002602081815260408084208585526001810183528185205485529283019091528220909190610458908461078b565b506000848152600184016020908152604080832054835260028601909152902090915061048590826107ea565b5060008381526001838101602090815260408084208481559283018490556002909201839055815183815290810183905268ffffffffffffffffff8716917fdd68ded2d8d9c661206e0e22f9d41397a921724bfc768864e3d32b21a9557ba991015b60405180910390a350505050565b6104fd61068d565b60009182526001602052604090912080547fffffffffffffffffffffffffffffffffffffffffffffff0000000000000000001668ffffffffffffffffff909216919091179055565b61054d61068d565b68ffffffffffffffffff841660008181526002602081815260408084208885526001808201845282862089815580820189905585018a905588865293018252808420805493840181558452922001859055518491907f29ba4d095336046dcffc9e75d3d46d22e7b304e050464d5a198f183f9c4b21d8906104e79086908690918252602082015260400190565b6105e261068d565b68ffffffffffffffffff16600090815260026020526040902080547fffffffffffffffffffffffffffffffffffffffffffffff000000000000000000169055565b600061062d61068d565b6000805474010000000000000000000000000000000000000000900468ffffffffffffffffff1690601461066083610a85565b91906101000a81548168ffffffffffffffffff021916908368ffffffffffffffffff160217905550905090565b6000546040517f1627905500000000000000000000000000000000000000000000000000000000815233600482015273ffffffffffffffffffffffffffffffffffffffff90911690631627905590602401602060405180830381865afa1580156106fb573d6000803e3d6000fd5b505050506040513d601f19601f8201168201806040525081019061071f9190610aad565b610789576040517f08c379a000000000000000000000000000000000000000000000000000000000815260206004820181905260248201527f466e2063616e206f6e6c792062652063616c6c65642062792074686520687562604482015260640160405180910390fd5b565b60008060005b84548110156107da57838582815481106107ad576107ad610acf565b9060005260206000200154036107c8579150600190506107e3565b806107d281610afe565b915050610791565b50600080915091505b9250929050565b815460609082106107fa57600080fd5b8254839061080a90600190610b36565b8154811061081a5761081a610acf565b906000526020600020015483838154811061083757610837610acf565b90600052602060002001819055508280548061085557610855610b4d565b600190038181906000526020600020016000905590558280548060200260200160405190810160405280929190818152602001828054801561040257602002820191906000526020600020908154815260200190600101908083116103ee575050505050905092915050565b6000602082840312156108d357600080fd5b5035919050565b803568ffffffffffffffffff811681146108f357600080fd5b919050565b60008060006060848603121561090d57600080fd5b610916846108da565b95602085013595506040909401359392505050565b6000806040838503121561093e57600080fd5b610947836108da565b946020939093013593505050565b6020808252825182820181905260009190848201906040850190845b8181101561098d57835183529284019291840191600101610971565b50909695505050505050565b600080604083850312156109ac57600080fd5b823591506109bc602084016108da565b90509250929050565b6000602082840312156109d757600080fd5b813573ffffffffffffffffffffffffffffffffffffffff811681146109fb57600080fd5b9392505050565b600060208284031215610a1457600080fd5b6109fb826108da565b60008060008060808587031215610a3357600080fd5b610a3c856108da565b966020860135965060408601359560600135945092505050565b7f4e487b7100000000000000000000000000000000000000000000000000000000600052601160045260246000fd5b600068ffffffffffffffffff808316818103610aa357610aa3610a56565b6001019392505050565b600060208284031215610abf57600080fd5b815180151581146109fb57600080fd5b7f4e487b7100000000000000000000000000000000000000000000000000000000600052603260045260246000fd5b60007fffffffffffffffffffffffffffffffffffffffffffffffffffffffffffffffff8203610b2f57610b2f610a56565b5060010190565b600082821015610b4857610b48610a56565b500390565b7f4e487b7100000000000000000000000000000000000000000000000000000000600052603160045260246000fdfea26469706673582212209e321ff7566c2dd0e37ba23327d21942e6fa7b6329ecfc83c4beb994cc18ee6c64736f6c634300080e0033",
  "immutableReferences": {},
  "source": "// SPDX-License-Identifier: MIT\n\npragma solidity ^0.8.0;\n\nimport { Hub } from \"../Hub.sol\";\nimport { IERC734Extended } from \"../interface/IERC734Extended.sol\";\nimport { ByteArr } from \"../utils/ByteArr.sol\";\n\ncontract IdentityStorage is IERC734Extended {\n\n    using ByteArr for bytes32[];\n\n    Hub public hub;\n\n    uint72 private _identityId;\n\n    struct Identity {\n        uint72 identityId;\n        mapping (bytes32 => Key) keys;\n        mapping (uint256 => bytes32[]) keysByPurpose;\n    }\n\n    // operationalKey => identityId\n    mapping(bytes32 => uint72) public identityIds;\n    // identityId => Identity\n    mapping(uint72 => Identity) identities;\n\n    constructor(address hubAddress) {\n        require(hubAddress != address(0));\n\n        hub = Hub(hubAddress);\n\n        _identityId = 1;\n    }\n\n    modifier onlyContracts() {\n        _checkHub();\n        _;\n    }\n\n    function deleteIdentity(uint72 identityId) external onlyContracts {\n        delete identities[identityId];\n    }\n\n    function addKey(uint72 identityId, bytes32 _key, uint256 _purpose, uint256 _type) external override onlyContracts {\n        identities[identityId].keys[_key].purpose = _purpose;\n        identities[identityId].keys[_key].keyType = _type;\n        identities[identityId].keys[_key].key = _key;\n        identities[identityId].keysByPurpose[_purpose].push(_key);\n\n        emit KeyAdded(identityId, _key, _purpose, _type);\n    }\n\n    function removeKey(uint72 identityId, bytes32 _key) external override onlyContracts {\n        Identity storage identity = identities[identityId];\n\n        uint256 index;\n        (index, ) = identity.keysByPurpose[identity.keys[_key].purpose].indexOf(_key);\n        identity.keysByPurpose[identity.keys[_key].purpose].removeByIndex(index);\n\n        delete identity.keys[_key];\n\n        emit KeyRemoved(identityId, identity.keys[_key].key, identity.keys[_key].purpose, identity.keys[_key].keyType);\n    }\n\n    function keyHasPurpose(uint72 identityId, bytes32 _key, uint256 _purpose) external view override returns (bool) {\n        return identities[identityId].keys[_key].purpose == _purpose;\n    }\n\n    function getKey(uint72 identityId, bytes32 _key) external view override returns (uint256, uint256, bytes32) {\n        return (\n            identities[identityId].keys[_key].purpose,\n            identities[identityId].keys[_key].keyType,\n            identities[identityId].keys[_key].key\n        );\n    }\n\n    function getKeysByPurpose(uint72 identityId, uint256 _purpose) external view override returns (bytes32[] memory) {\n        return identities[identityId].keysByPurpose[_purpose];\n    }\n\n    function getIdentityId(address operational) external view returns (uint72) {\n        return identityIds[keccak256(abi.encodePacked(operational))];\n    }\n\n    function setOperationalKeyIdentityId(bytes32 operationalKey, uint72 identityId) external onlyContracts {\n        identityIds[operationalKey] = identityId;\n    }\n\n    function removeOperationalKeyIdentityId(bytes32 operationalKey) external onlyContracts {\n        delete identityIds[operationalKey];\n    }\n\n    function identityExists(uint72 identityId) external view returns (bool) {\n        return identities[identityId].identityId == identityId;\n    }\n\n    function generateIdentityId() external onlyContracts returns (uint72) {\n        return _identityId++;\n    }\n\n    function _checkHub() internal view virtual {\n        require(hub.isContract(msg.sender), \"Fn can only be called by the hub\");\n    }\n\n}\n",
  "sourcePath": "/Users/waving/Desktop/OriginTrail/dkg-evm-module/contracts/storage/IdentityStorage.sol",
  "compiler": {
    "name": "solc",
    "version": "0.8.14+commit.80d49f37.Emscripten.clang"
  },
  "schemaVersion": "3.4.10",
  "updatedAt": "2022-12-02T11:59:36.533Z",
  "devdoc": {
    "kind": "dev",
    "methods": {},
    "version": 1
  },
  "userdoc": {
    "kind": "user",
    "methods": {},
    "version": 1
  }
}