{
  "contractName": "IdentityStorage",
  "abi": [
    {
      "inputs": [
        {
          "internalType": "address",
          "name": "hubAddress",
          "type": "address"
        }
      ],
      "stateMutability": "nonpayable",
      "type": "constructor"
    },
    {
      "anonymous": false,
      "inputs": [
        {
          "indexed": true,
          "internalType": "uint72",
          "name": "identityId",
          "type": "uint72"
        },
        {
          "indexed": true,
          "internalType": "bytes32",
          "name": "key",
          "type": "bytes32"
        },
        {
          "indexed": false,
          "internalType": "uint256",
          "name": "purpose",
          "type": "uint256"
        },
        {
          "indexed": false,
          "internalType": "uint256",
          "name": "keyType",
          "type": "uint256"
        }
      ],
      "name": "KeyAdded",
      "type": "event"
    },
    {
      "anonymous": false,
      "inputs": [
        {
          "indexed": true,
          "internalType": "uint72",
          "name": "identityId",
          "type": "uint72"
        },
        {
          "indexed": true,
          "internalType": "bytes32",
          "name": "key",
          "type": "bytes32"
        },
        {
          "indexed": false,
          "internalType": "uint256",
          "name": "purpose",
          "type": "uint256"
        },
        {
          "indexed": false,
          "internalType": "uint256",
          "name": "keyType",
          "type": "uint256"
        }
      ],
      "name": "KeyRemoved",
      "type": "event"
    },
    {
      "inputs": [],
      "name": "hub",
      "outputs": [
        {
          "internalType": "contract Hub",
          "name": "",
          "type": "address"
        }
      ],
      "stateMutability": "view",
      "type": "function"
    },
    {
      "inputs": [
        {
          "internalType": "bytes32",
          "name": "",
          "type": "bytes32"
        }
      ],
      "name": "identityIds",
      "outputs": [
        {
          "internalType": "uint72",
          "name": "",
          "type": "uint72"
        }
      ],
      "stateMutability": "view",
      "type": "function"
    },
    {
      "inputs": [],
      "name": "name",
      "outputs": [
        {
          "internalType": "string",
          "name": "",
          "type": "string"
        }
      ],
      "stateMutability": "pure",
      "type": "function"
    },
    {
      "inputs": [],
      "name": "version",
      "outputs": [
        {
          "internalType": "string",
          "name": "",
          "type": "string"
        }
      ],
      "stateMutability": "pure",
      "type": "function"
    },
    {
      "inputs": [
        {
          "internalType": "uint72",
          "name": "identityId",
          "type": "uint72"
        }
      ],
      "name": "deleteIdentity",
      "outputs": [],
      "stateMutability": "nonpayable",
      "type": "function"
    },
    {
      "inputs": [
        {
          "internalType": "uint72",
          "name": "identityId",
          "type": "uint72"
        },
        {
          "internalType": "bytes32",
          "name": "_key",
          "type": "bytes32"
        },
        {
          "internalType": "uint256",
          "name": "_purpose",
          "type": "uint256"
        },
        {
          "internalType": "uint256",
          "name": "_type",
          "type": "uint256"
        }
      ],
      "name": "addKey",
      "outputs": [],
      "stateMutability": "nonpayable",
      "type": "function"
    },
    {
      "inputs": [
        {
          "internalType": "uint72",
          "name": "identityId",
          "type": "uint72"
        },
        {
          "internalType": "bytes32",
          "name": "_key",
          "type": "bytes32"
        }
      ],
      "name": "removeKey",
      "outputs": [],
      "stateMutability": "nonpayable",
      "type": "function"
    },
    {
      "inputs": [
        {
          "internalType": "uint72",
          "name": "identityId",
          "type": "uint72"
        },
        {
          "internalType": "bytes32",
          "name": "_key",
          "type": "bytes32"
        },
        {
          "internalType": "uint256",
          "name": "_purpose",
          "type": "uint256"
        }
      ],
      "name": "keyHasPurpose",
      "outputs": [
        {
          "internalType": "bool",
          "name": "",
          "type": "bool"
        }
      ],
      "stateMutability": "view",
      "type": "function"
    },
    {
      "inputs": [
        {
          "internalType": "uint72",
          "name": "identityId",
          "type": "uint72"
        },
        {
          "internalType": "bytes32",
          "name": "_key",
          "type": "bytes32"
        }
      ],
      "name": "getKey",
      "outputs": [
        {
          "internalType": "uint256",
          "name": "",
          "type": "uint256"
        },
        {
          "internalType": "uint256",
          "name": "",
          "type": "uint256"
        },
        {
          "internalType": "bytes32",
          "name": "",
          "type": "bytes32"
        }
      ],
      "stateMutability": "view",
      "type": "function"
    },
    {
      "inputs": [
        {
          "internalType": "uint72",
          "name": "identityId",
          "type": "uint72"
        },
        {
          "internalType": "uint256",
          "name": "_purpose",
          "type": "uint256"
        }
      ],
      "name": "getKeysByPurpose",
      "outputs": [
        {
          "internalType": "bytes32[]",
          "name": "",
          "type": "bytes32[]"
        }
      ],
      "stateMutability": "view",
      "type": "function"
    },
    {
      "inputs": [
        {
          "internalType": "address",
          "name": "operational",
          "type": "address"
        }
      ],
      "name": "getIdentityId",
      "outputs": [
        {
          "internalType": "uint72",
          "name": "",
          "type": "uint72"
        }
      ],
      "stateMutability": "view",
      "type": "function"
    },
    {
      "inputs": [
        {
          "internalType": "bytes32",
          "name": "operationalKey",
          "type": "bytes32"
        },
        {
          "internalType": "uint72",
          "name": "identityId",
          "type": "uint72"
        }
      ],
      "name": "setOperationalKeyIdentityId",
      "outputs": [],
      "stateMutability": "nonpayable",
      "type": "function"
    },
    {
      "inputs": [
        {
          "internalType": "bytes32",
          "name": "operationalKey",
          "type": "bytes32"
        }
      ],
      "name": "removeOperationalKeyIdentityId",
      "outputs": [],
      "stateMutability": "nonpayable",
      "type": "function"
    },
    {
      "inputs": [],
      "name": "generateIdentityId",
      "outputs": [
        {
          "internalType": "uint72",
          "name": "",
          "type": "uint72"
        }
      ],
      "stateMutability": "nonpayable",
      "type": "function"
    }
  ],
  "bytecode": "0x608060405234801561001057600080fd5b50604051610b66380380610b6683398101604081905261002f9161006c565b6001600160a01b03811661004257600080fd5b600080546001600160e81b0319166001600160a01b0390921691909117600160a01b17905561009c565b60006020828403121561007e57600080fd5b81516001600160a01b038116811461009557600080fd5b9392505050565b610abb806100ab6000396000f3fe608060405234801561001057600080fd5b50600436106100ea5760003560e01c806367ac664f1161008c578063867a468011610066578063867a4680146102bd578063bee3b94e14610320578063dc06a39d14610333578063fcbe6b141461034657600080fd5b806367ac664f1461023557806368b229fa14610248578063707498ca146102aa57600080fd5b8063365a86fc116100c8578063365a86fc146101b45780633be15400146101df5780634719c3de146101f457806354fd4d501461021457600080fd5b806306fdde03146100ef5780631fc2b3ab1461012c57806335e4fb7a1461016d575b600080fd5b60408051808201909152600f81526e4964656e7469747953746f7261676560881b60208201525b60405161012391906107fb565b60405180910390f35b61015561013a366004610849565b6001602052600090815260409020546001600160481b031681565b6040516001600160481b039091168152602001610123565b6101a461017b36600461087e565b6001600160481b0392909216600090815260026020908152604080832093835292905220541490565b6040519015158152602001610123565b6000546101c7906001600160a01b031681565b6040516001600160a01b039091168152602001610123565b6101f26101ed366004610849565b61034e565b005b6102076102023660046108b1565b610376565b60405161012391906108db565b6040805180820190915260058152640312e302e360dc1b6020820152610116565b6101f26102433660046108b1565b6103ef565b61028f6102563660046108b1565b6001600160481b039190911660009081526002602081815260408084209484529390529190208054600182015491909201549192909190565b60408051938452602084019290925290820152606001610123565b6101f26102b836600461091f565b6104c4565b6101556102cb36600461094b565b6040805160609290921b6bffffffffffffffffffffffff19166020808401919091528151601481850301815260349093018252825192810192909220600090815260019092529020546001600160481b031690565b6101f261032e36600461097b565b6104fc565b6101f26103413660046109b4565b610599565b6101556105b4565b610356610607565b6000908152600160205260409020805468ffffffffffffffffff19169055565b6001600160481b03821660009081526002602090815260408083208484526001018252918290208054835181840281018401909452808452606093928301828280156103e157602002820191906000526020600020905b8154815260200190600101908083116103cd575b505050505090505b92915050565b6103f7610607565b6001600160481b038216600090815260026020908152604080832084845280835281842054845260018101909252822090919061043490846106c5565b5060008481526020848152604080832054835260018601909152902090915061045d9082610724565b506000838152602083815260408083208381556001810184905560020183905580518381529182018390526001600160481b038716917fdd68ded2d8d9c661206e0e22f9d41397a921724bfc768864e3d32b21a9557ba9910160405180910390a350505050565b6104cc610607565b600091825260016020526040909120805468ffffffffffffffffff19166001600160481b03909216919091179055565b610504610607565b6001600160481b03841660008181526002602081815260408084208885528083528185208881556001808201899055940189905587855283810183528185208054948501815585529382902090920187905581518681529081018590529192869290917f29ba4d095336046dcffc9e75d3d46d22e7b304e050464d5a198f183f9c4b21d8910160405180910390a35050505050565b6105a1610607565b6001600160481b03166000526002602052565b60006105be610607565b60008054600160a01b90046001600160481b03169060146105de836109e5565b91906101000a8154816001600160481b0302191690836001600160481b03160217905550905090565b600054604051631627905560e01b81523360048201526001600160a01b0390911690631627905590602401602060405180830381865afa15801561064f573d6000803e3d6000fd5b505050506040513d601f19601f820116820180604052508101906106739190610a0b565b6106c35760405162461bcd60e51b815260206004820181905260248201527f466e2063616e206f6e6c792062652063616c6c65642062792074686520687562604482015260640160405180910390fd5b565b60008060005b845481101561071457838582815481106106e7576106e7610a2d565b9060005260206000200154036107025791506001905061071d565b8061070c81610a43565b9150506106cb565b50600080915091505b9250929050565b8154606090821061073457600080fd5b8254839061074490600190610a5c565b8154811061075457610754610a2d565b906000526020600020015483838154811061077157610771610a2d565b90600052602060002001819055508280548061078f5761078f610a6f565b60019003818190600052602060002001600090559055828054806020026020016040519081016040528092919081815260200182805480156103e157602002820191906000526020600020908154815260200190600101908083116103cd575050505050905092915050565b600060208083528351808285015260005b818110156108285785810183015185820160400152820161080c565b506000604082860101526040601f19601f8301168501019250505092915050565b60006020828403121561085b57600080fd5b5035919050565b80356001600160481b038116811461087957600080fd5b919050565b60008060006060848603121561089357600080fd5b61089c84610862565b95602085013595506040909401359392505050565b600080604083850312156108c457600080fd5b6108cd83610862565b946020939093013593505050565b6020808252825182820181905260009190848201906040850190845b81811015610913578351835292840192918401916001016108f7565b50909695505050505050565b6000806040838503121561093257600080fd5b8235915061094260208401610862565b90509250929050565b60006020828403121561095d57600080fd5b81356001600160a01b038116811461097457600080fd5b9392505050565b6000806000806080858703121561099157600080fd5b61099a85610862565b966020860135965060408601359560600135945092505050565b6000602082840312156109c657600080fd5b61097482610862565b634e487b7160e01b600052601160045260246000fd5b60006001600160481b03808316818103610a0157610a016109cf565b6001019392505050565b600060208284031215610a1d57600080fd5b8151801515811461097457600080fd5b634e487b7160e01b600052603260045260246000fd5b600060018201610a5557610a556109cf565b5060010190565b818103818111156103e9576103e96109cf565b634e487b7160e01b600052603160045260246000fdfea2646970667358221220af48a112860acb7ef7419d7821818361a37175c3ebef5268a052d9619e60834664736f6c63430008100033",
  "immutableReferences": {},
  "source": "// SPDX-License-Identifier: MIT\n\npragma solidity ^0.8.4;\n\nimport { Hub } from \"../Hub.sol\";\nimport { IERC734Extended } from \"../interface/IERC734Extended.sol\";\nimport { Named } from \"../interface/Named.sol\";\nimport { Versioned } from \"../interface/Versioned.sol\";\nimport { ByteArr } from \"../utils/ByteArr.sol\";\n\ncontract IdentityStorage is IERC734Extended, Named, Versioned {\n\n    using ByteArr for bytes32[];\n\n    string constant private _NAME = \"IdentityStorage\";\n    string constant private _VERSION = \"1.0.0\";\n\n    Hub public hub;\n\n    uint72 private _identityId;\n\n    struct Identity {\n        mapping (bytes32 => Key) keys;\n        mapping (uint256 => bytes32[]) keysByPurpose;\n    }\n\n    // operationalKey => identityId\n    mapping(bytes32 => uint72) public identityIds;\n    // identityId => Identity\n    mapping(uint72 => Identity) identities;\n\n    constructor(address hubAddress) {\n        require(hubAddress != address(0));\n\n        hub = Hub(hubAddress);\n\n        _identityId = 1;\n    }\n\n    modifier onlyContracts() {\n        _checkHub();\n        _;\n    }\n\n    function name() external pure virtual override returns (string memory) {\n        return _NAME;\n    }\n\n    function version() external pure virtual override returns (string memory) {\n        return _VERSION;\n    }\n\n    function deleteIdentity(uint72 identityId) external onlyContracts {\n        delete identities[identityId];\n    }\n\n    function addKey(uint72 identityId, bytes32 _key, uint256 _purpose, uint256 _type) external override onlyContracts {\n        Identity storage identity = identities[identityId];\n        identity.keys[_key].purpose = _purpose;\n        identity.keys[_key].keyType = _type;\n        identity.keys[_key].key = _key;\n        identity.keysByPurpose[_purpose].push(_key);\n\n        emit KeyAdded(identityId, _key, _purpose, _type);\n    }\n\n    function removeKey(uint72 identityId, bytes32 _key) external override onlyContracts {\n        Identity storage identity = identities[identityId];\n\n        uint256 index;\n        (index, ) = identity.keysByPurpose[identity.keys[_key].purpose].indexOf(_key);\n        identity.keysByPurpose[identity.keys[_key].purpose].removeByIndex(index);\n\n        delete identity.keys[_key];\n\n        emit KeyRemoved(identityId, identity.keys[_key].key, identity.keys[_key].purpose, identity.keys[_key].keyType);\n    }\n\n    function keyHasPurpose(uint72 identityId, bytes32 _key, uint256 _purpose) external view override returns (bool) {\n        return identities[identityId].keys[_key].purpose == _purpose;\n    }\n\n    function getKey(uint72 identityId, bytes32 _key) external view override returns (uint256, uint256, bytes32) {\n        return (\n            identities[identityId].keys[_key].purpose,\n            identities[identityId].keys[_key].keyType,\n            identities[identityId].keys[_key].key\n        );\n    }\n\n    function getKeysByPurpose(uint72 identityId, uint256 _purpose) external view override returns (bytes32[] memory) {\n        return identities[identityId].keysByPurpose[_purpose];\n    }\n\n    function getIdentityId(address operational) external view returns (uint72) {\n        return identityIds[keccak256(abi.encodePacked(operational))];\n    }\n\n    function setOperationalKeyIdentityId(bytes32 operationalKey, uint72 identityId) external onlyContracts {\n        identityIds[operationalKey] = identityId;\n    }\n\n    function removeOperationalKeyIdentityId(bytes32 operationalKey) external onlyContracts {\n        delete identityIds[operationalKey];\n    }\n\n    function generateIdentityId() external onlyContracts returns (uint72) {\n        return _identityId++;\n    }\n\n    function _checkHub() internal view virtual {\n        require(hub.isContract(msg.sender), \"Fn can only be called by the hub\");\n    }\n\n}\n",
  "sourcePath": "/Users/waving/Desktop/OriginTrail/dkg-evm-module/contracts/storage/IdentityStorage.sol",
  "compiler": {
    "name": "solc",
    "version": "0.8.16+commit.07a7930e.Emscripten.clang"
  },
  "schemaVersion": "3.4.10",
  "updatedAt": "2022-12-06T11:50:01.266Z",
  "devdoc": {
    "kind": "dev",
    "methods": {},
    "version": 1
  },
  "userdoc": {
    "kind": "user",
    "methods": {},
    "version": 1
  }
}