{
  "contractName": "IdentityStorage",
  "abi": [
    {
      "inputs": [
        {
          "internalType": "address",
          "name": "hubAddress",
          "type": "address"
        }
      ],
      "stateMutability": "nonpayable",
      "type": "constructor"
    },
    {
      "anonymous": false,
      "inputs": [
        {
          "indexed": true,
          "internalType": "uint96",
          "name": "identityId",
          "type": "uint96"
        },
        {
          "indexed": true,
          "internalType": "bytes32",
          "name": "operationalKey",
          "type": "bytes32"
        },
        {
          "indexed": true,
          "internalType": "bytes32",
          "name": "adminKey",
          "type": "bytes32"
        }
      ],
      "name": "IdentityCreated",
      "type": "event"
    },
    {
      "anonymous": false,
      "inputs": [
        {
          "indexed": true,
          "internalType": "uint96",
          "name": "identityId",
          "type": "uint96"
        },
        {
          "indexed": true,
          "internalType": "bytes32",
          "name": "key",
          "type": "bytes32"
        },
        {
          "indexed": false,
          "internalType": "uint256",
          "name": "purpose",
          "type": "uint256"
        },
        {
          "indexed": false,
          "internalType": "uint256",
          "name": "keyType",
          "type": "uint256"
        }
      ],
      "name": "KeyAdded",
      "type": "event"
    },
    {
      "anonymous": false,
      "inputs": [
        {
          "indexed": true,
          "internalType": "uint96",
          "name": "identityId",
          "type": "uint96"
        },
        {
          "indexed": true,
          "internalType": "bytes32",
          "name": "key",
          "type": "bytes32"
        },
        {
          "indexed": false,
          "internalType": "uint256",
          "name": "purpose",
          "type": "uint256"
        },
        {
          "indexed": false,
          "internalType": "uint256",
          "name": "keyType",
          "type": "uint256"
        }
      ],
      "name": "KeyRemoved",
      "type": "event"
    },
    {
      "inputs": [],
      "name": "hub",
      "outputs": [
        {
          "internalType": "contract Hub",
          "name": "",
          "type": "address"
        }
      ],
      "stateMutability": "view",
      "type": "function"
    },
    {
      "inputs": [
        {
          "internalType": "uint96",
          "name": "",
          "type": "uint96"
        }
      ],
      "name": "identities",
      "outputs": [
        {
          "internalType": "uint96",
          "name": "identityId",
          "type": "uint96"
        }
      ],
      "stateMutability": "view",
      "type": "function"
    },
    {
      "inputs": [
        {
          "internalType": "bytes32",
          "name": "",
          "type": "bytes32"
        }
      ],
      "name": "identityIds",
      "outputs": [
        {
          "internalType": "uint96",
          "name": "",
          "type": "uint96"
        }
      ],
      "stateMutability": "view",
      "type": "function"
    },
    {
      "inputs": [
        {
          "internalType": "address",
          "name": "operational",
          "type": "address"
        },
        {
          "internalType": "address",
          "name": "admin",
          "type": "address"
        }
      ],
      "name": "createIdentity",
      "outputs": [
        {
          "internalType": "uint96",
          "name": "",
          "type": "uint96"
        }
      ],
      "stateMutability": "nonpayable",
      "type": "function"
    },
    {
      "inputs": [
        {
          "internalType": "uint96",
          "name": "identityId",
          "type": "uint96"
        },
        {
          "internalType": "bytes32",
          "name": "_key",
          "type": "bytes32"
        }
      ],
      "name": "getKey",
      "outputs": [
        {
          "internalType": "uint256",
          "name": "",
          "type": "uint256"
        },
        {
          "internalType": "uint256",
          "name": "",
          "type": "uint256"
        },
        {
          "internalType": "bytes32",
          "name": "",
          "type": "bytes32"
        }
      ],
      "stateMutability": "view",
      "type": "function"
    },
    {
      "inputs": [
        {
          "internalType": "uint96",
          "name": "identityId",
          "type": "uint96"
        },
        {
          "internalType": "bytes32",
          "name": "_key",
          "type": "bytes32"
        },
        {
          "internalType": "uint256",
          "name": "_purpose",
          "type": "uint256"
        }
      ],
      "name": "keyHasPurpose",
      "outputs": [
        {
          "internalType": "bool",
          "name": "",
          "type": "bool"
        }
      ],
      "stateMutability": "view",
      "type": "function"
    },
    {
      "inputs": [
        {
          "internalType": "uint96",
          "name": "identityId",
          "type": "uint96"
        },
        {
          "internalType": "uint256",
          "name": "_purpose",
          "type": "uint256"
        }
      ],
      "name": "getKeysByPurpose",
      "outputs": [
        {
          "internalType": "bytes32[]",
          "name": "",
          "type": "bytes32[]"
        }
      ],
      "stateMutability": "view",
      "type": "function"
    },
    {
      "inputs": [
        {
          "internalType": "uint96",
          "name": "identityId",
          "type": "uint96"
        },
        {
          "internalType": "bytes32",
          "name": "_key",
          "type": "bytes32"
        },
        {
          "internalType": "uint256",
          "name": "_purpose",
          "type": "uint256"
        },
        {
          "internalType": "uint256",
          "name": "_type",
          "type": "uint256"
        }
      ],
      "name": "addKey",
      "outputs": [
        {
          "internalType": "bool",
          "name": "",
          "type": "bool"
        }
      ],
      "stateMutability": "nonpayable",
      "type": "function"
    },
    {
      "inputs": [
        {
          "internalType": "uint96",
          "name": "identityId",
          "type": "uint96"
        },
        {
          "internalType": "bytes32",
          "name": "_key",
          "type": "bytes32"
        }
      ],
      "name": "removeKey",
      "outputs": [
        {
          "internalType": "bool",
          "name": "",
          "type": "bool"
        }
      ],
      "stateMutability": "nonpayable",
      "type": "function"
    }
  ],
  "bytecode": "0x60806040523480156200001157600080fd5b506040516200215d3803806200215d833981810160405281019062000037919062000154565b600073ffffffffffffffffffffffffffffffffffffffff168173ffffffffffffffffffffffffffffffffffffffff16036200007157600080fd5b806000806101000a81548173ffffffffffffffffffffffffffffffffffffffff021916908373ffffffffffffffffffffffffffffffffffffffff1602179055506001600060146101000a8154816bffffffffffffffffffffffff02191690836bffffffffffffffffffffffff1602179055505062000186565b600080fd5b600073ffffffffffffffffffffffffffffffffffffffff82169050919050565b60006200011c82620000ef565b9050919050565b6200012e816200010f565b81146200013a57600080fd5b50565b6000815190506200014e8162000123565b92915050565b6000602082840312156200016d576200016c620000ea565b5b60006200017d848285016200013d565b91505092915050565b611fc780620001966000396000f3fe608060405234801561001057600080fd5b50600436106100935760003560e01c80637b451d37116100665780637b451d3714610146578063c01e513814610176578063d10e73ab146101a8578063d55bbcac146101d8578063e8b984641461020857610093565b80630bf03a6c146100985780631fc2b3ab146100c8578063365a86fc146100f85780636787bf2414610116575b600080fd5b6100b260048036038101906100ad919061131a565b610238565b6040516100bf9190611356565b60405180910390f35b6100e260048036038101906100dd91906113a7565b61026e565b6040516100ef9190611356565b60405180910390f35b610100610299565b60405161010d9190611453565b60405180910390f35b610130600480360381019061012b91906114a4565b6102bd565b60405161013d9190611526565b60405180910390f35b610160600480360381019061015b9190611541565b6105e8565b60405161016d9190611526565b60405180910390f35b610190600480360381019061018b9190611541565b6109b6565b60405161019f9392919061159f565b60405180910390f35b6101c260048036038101906101bd9190611614565b610a9d565b6040516101cf9190611356565b60405180910390f35b6101f260048036038101906101ed9190611654565b61109b565b6040516101ff9190611526565b60405180910390f35b610222600480360381019061021d91906116a7565b6110ef565b60405161022f91906117a5565b60405180910390f35b60026020528060005260406000206000915090508060000160009054906101000a90046bffffffffffffffffffffffff16905081565b60016020528060005260406000206000915054906101000a90046bffffffffffffffffffffffff1681565b60008054906101000a900473ffffffffffffffffffffffffffffffffffffffff1681565b60006102f185336040516020016102d4919061180f565b60405160208183030381529060405280519060200120600161109b565b610330576040517f08c379a000000000000000000000000000000000000000000000000000000000815260040161032790611887565b60405180910390fd5b6000801b8403610375576040517f08c379a000000000000000000000000000000000000000000000000000000000815260040161036c906118f3565b60405180910390fd5b8360026000876bffffffffffffffffffffffff166bffffffffffffffffffffffff168152602001908152602001600020600101600086815260200190815260200160002060020154036103fd576040517f08c379a00000000000000000000000000000000000000000000000000000000081526004016103f490611985565b60405180910390fd5b8260026000876bffffffffffffffffffffffff166bffffffffffffffffffffffff1681526020019081526020016000206001016000868152602001908152602001600020600001819055508160026000876bffffffffffffffffffffffff166bffffffffffffffffffffffff1681526020019081526020016000206001016000868152602001908152602001600020600101819055508360026000876bffffffffffffffffffffffff166bffffffffffffffffffffffff16815260200190815260200160002060010160008681526020019081526020016000206002018190555060026000866bffffffffffffffffffffffff166bffffffffffffffffffffffff16815260200190815260200160002060020160008481526020019081526020016000208490806001815401808255809150506001900390600052602060002001600090919091909150556002830361059357846001600086815260200190815260200160002060006101000a8154816bffffffffffffffffffffffff02191690836bffffffffffffffffffffffff1602179055505b83856bffffffffffffffffffffffff167fddb3379e7a64dd6a3168dd79f0aefb02aa90026561607038bfb00e4c1942b52f85856040516105d49291906119a5565b60405180910390a360019050949350505050565b600061061c83336040516020016105ff919061180f565b60405160208183030381529060405280519060200120600161109b565b61065b576040517f08c379a000000000000000000000000000000000000000000000000000000000815260040161065290611887565b60405180910390fd5b6000801b82036106a0576040517f08c379a0000000000000000000000000000000000000000000000000000000008152600401610697906118f3565b60405180910390fd5b600060026000856bffffffffffffffffffffffff166bffffffffffffffffffffffff168152602001908152602001600020905082816001016000858152602001908152602001600020600201541461072d576040517f08c379a000000000000000000000000000000000000000000000000000000000815260040161072490611a40565b60405180910390fd5b6001816002016000600181526020019081526020016000208054905014801561075e575061075d8484600161109b565b5b1561079e576040517f08c379a000000000000000000000000000000000000000000000000000000000815260040161079590611aac565b60405180910390fd5b600181600201600060028152602001908152602001600020805490501480156107cf57506107ce8484600261109b565b5b1561080f576040517f08c379a000000000000000000000000000000000000000000000000000000000815260040161080690611b3e565b60405180910390fd5b80600101600084815260200190815260200160002060020154846bffffffffffffffffffffffff167f0641c9782718a45df6ce449d0f27b47c35cf945084dd989350a7e5a94758476383600101600087815260200190815260200160002060000154846001016000888152602001908152602001600020600101546040516108989291906119a5565b60405180910390a36000806108e2858460020160008660010160008a815260200190815260200160002060000154815260200190815260200160002061118b90919063ffffffff16565b8092508193505050610929828460020160008660010160008a81526020019081526020016000206000015481526020019081526020016000206111f190919063ffffffff16565b50826001016000868152602001908152602001600020600080820160009055600182016000905560028201600090555050600283600101600087815260200190815260200160002060000154036109a9576001600086815260200190815260200160002060006101000a8154906bffffffffffffffffffffffff02191690555b6001935050505092915050565b600080600060026000866bffffffffffffffffffffffff166bffffffffffffffffffffffff16815260200190815260200160002060010160008581526020019081526020016000206000015460026000876bffffffffffffffffffffffff166bffffffffffffffffffffffff16815260200190815260200160002060010160008681526020019081526020016000206001015460026000886bffffffffffffffffffffffff166bffffffffffffffffffffffff1681526020019081526020016000206001016000878152602001908152602001600020600201549250925092509250925092565b60008060009054906101000a900473ffffffffffffffffffffffffffffffffffffffff1673ffffffffffffffffffffffffffffffffffffffff166304433bbc6040518163ffffffff1660e01b8152600401610af790611baa565b602060405180830381865afa158015610b14573d6000803e3d6000fd5b505050506040513d601f19601f82011682018060405250810190610b389190611bdf565b73ffffffffffffffffffffffffffffffffffffffff163373ffffffffffffffffffffffffffffffffffffffff1614610ba5576040517f08c379a0000000000000000000000000000000000000000000000000000000008152600401610b9c90611c7e565b60405180910390fd5b600073ffffffffffffffffffffffffffffffffffffffff168373ffffffffffffffffffffffffffffffffffffffff1603610c14576040517f08c379a0000000000000000000000000000000000000000000000000000000008152600401610c0b90611d10565b60405180910390fd5b600073ffffffffffffffffffffffffffffffffffffffff168273ffffffffffffffffffffffffffffffffffffffff1603610c83576040517f08c379a0000000000000000000000000000000000000000000000000000000008152600401610c7a90611da2565b60405180910390fd5b8173ffffffffffffffffffffffffffffffffffffffff168373ffffffffffffffffffffffffffffffffffffffff1603610cf1576040517f08c379a0000000000000000000000000000000000000000000000000000000008152600401610ce890611e34565b60405180910390fd5b600082604051602001610d04919061180f565b60405160208183030381529060405280519060200120905060008060149054906101000a90046bffffffffffffffffffffffff169050600060026000836bffffffffffffffffffffffff166bffffffffffffffffffffffff16815260200190815260200160002090506000601481819054906101000a90046bffffffffffffffffffffffff1680929190610d9790611e83565b91906101000a8154816bffffffffffffffffffffffff02191690836bffffffffffffffffffffffff1602179055505060018160010160008581526020019081526020016000206000018190555060018160010160008581526020019081526020016000206001018190555082816001016000858152602001908152602001600020600201819055508060020160006001815260200190815260200160002083908060018154018082558091505060019003906000526020600020016000909190919091505582826bffffffffffffffffffffffff167fddb3379e7a64dd6a3168dd79f0aefb02aa90026561607038bfb00e4c1942b52f8360010160008781526020019081526020016000206000015484600101600088815260200190815260200160002060010154604051610ecd9291906119a5565b60405180910390a3600086604051602001610ee8919061180f565b604051602081830303815290604052805190602001209050826001600083815260200190815260200160002060006101000a8154816bffffffffffffffffffffffff02191690836bffffffffffffffffffffffff16021790555060028260010160008381526020019081526020016000206000018190555060018260010160008381526020019081526020016000206001018190555080826001016000838152602001908152602001600020600201819055508160020160006002815260200190815260200160002081908060018154018082558091505060019003906000526020600020016000909190919091505580836bffffffffffffffffffffffff167fddb3379e7a64dd6a3168dd79f0aefb02aa90026561607038bfb00e4c1942b52f84600101600085815260200190815260200160002060000154856001016000868152602001908152602001600020600101546040516110499291906119a5565b60405180910390a38381846bffffffffffffffffffffffff167f1152bb203c8119b3be98cdef8f655065df73e147286b3d7911d8f03c69881b6a60405160405180910390a48294505050505092915050565b60008160026000866bffffffffffffffffffffffff166bffffffffffffffffffffffff1681526020019081526020016000206001016000858152602001908152602001600020600001541490509392505050565b606060026000846bffffffffffffffffffffffff166bffffffffffffffffffffffff168152602001908152602001600020600201600083815260200190815260200160002080548060200260200160405190810160405280929190818152602001828054801561117e57602002820191906000526020600020905b81548152602001906001019080831161116a575b5050505050905092915050565b60008060005b84805490508110156111e157838582815481106111b1576111b0611eb7565b5b9060005260206000200154036111ce5780600192509250506111ea565b80806111d990611ee6565b915050611191565b50600080915091505b9250929050565b60608280549050821061120357600080fd5b82600184805490506112159190611f2e565b8154811061122657611225611eb7565b5b906000526020600020015483838154811061124457611243611eb7565b5b90600052602060002001819055508280548061126357611262611f62565b5b60019003818190600052602060002001600090559055828054806020026020016040519081016040528092919081815260200182805480156112c457602002820191906000526020600020905b8154815260200190600101908083116112b0575b5050505050905092915050565b600080fd5b60006bffffffffffffffffffffffff82169050919050565b6112f7816112d6565b811461130257600080fd5b50565b600081359050611314816112ee565b92915050565b6000602082840312156113305761132f6112d1565b5b600061133e84828501611305565b91505092915050565b611350816112d6565b82525050565b600060208201905061136b6000830184611347565b92915050565b6000819050919050565b61138481611371565b811461138f57600080fd5b50565b6000813590506113a18161137b565b92915050565b6000602082840312156113bd576113bc6112d1565b5b60006113cb84828501611392565b91505092915050565b600073ffffffffffffffffffffffffffffffffffffffff82169050919050565b6000819050919050565b600061141961141461140f846113d4565b6113f4565b6113d4565b9050919050565b600061142b826113fe565b9050919050565b600061143d82611420565b9050919050565b61144d81611432565b82525050565b60006020820190506114686000830184611444565b92915050565b6000819050919050565b6114818161146e565b811461148c57600080fd5b50565b60008135905061149e81611478565b92915050565b600080600080608085870312156114be576114bd6112d1565b5b60006114cc87828801611305565b94505060206114dd87828801611392565b93505060406114ee8782880161148f565b92505060606114ff8782880161148f565b91505092959194509250565b60008115159050919050565b6115208161150b565b82525050565b600060208201905061153b6000830184611517565b92915050565b60008060408385031215611558576115576112d1565b5b600061156685828601611305565b925050602061157785828601611392565b9150509250929050565b61158a8161146e565b82525050565b61159981611371565b82525050565b60006060820190506115b46000830186611581565b6115c16020830185611581565b6115ce6040830184611590565b949350505050565b60006115e1826113d4565b9050919050565b6115f1816115d6565b81146115fc57600080fd5b50565b60008135905061160e816115e8565b92915050565b6000806040838503121561162b5761162a6112d1565b5b6000611639858286016115ff565b925050602061164a858286016115ff565b9150509250929050565b60008060006060848603121561166d5761166c6112d1565b5b600061167b86828701611305565b935050602061168c86828701611392565b925050604061169d8682870161148f565b9150509250925092565b600080604083850312156116be576116bd6112d1565b5b60006116cc85828601611305565b92505060206116dd8582860161148f565b9150509250929050565b600081519050919050565b600082825260208201905092915050565b6000819050602082019050919050565b61171c81611371565b82525050565b600061172e8383611713565b60208301905092915050565b6000602082019050919050565b6000611752826116e7565b61175c81856116f2565b935061176783611703565b8060005b8381101561179857815161177f8882611722565b975061178a8361173a565b92505060018101905061176b565b5085935050505092915050565b600060208201905081810360008301526117bf8184611747565b905092915050565b60008160601b9050919050565b60006117df826117c7565b9050919050565b60006117f1826117d4565b9050919050565b611809611804826115d6565b6117e6565b82525050565b600061181b82846117f8565b60148201915081905092915050565b600082825260208201905092915050565b7f41646d696e2066756e6374696f6e000000000000000000000000000000000000600082015250565b6000611871600e8361182a565b915061187c8261183b565b602082019050919050565b600060208201905081810360008301526118a081611864565b9050919050565b7f4b65792061726720697320656d70747900000000000000000000000000000000600082015250565b60006118dd60108361182a565b91506118e8826118a7565b602082019050919050565b6000602082019050818103600083015261190c816118d0565b9050919050565b7f4b657920697320616c726561647920617474616368656420746f20746865206960008201527f64656e7469747900000000000000000000000000000000000000000000000000602082015250565b600061196f60278361182a565b915061197a82611913565b604082019050919050565b6000602082019050818103600083015261199e81611962565b9050919050565b60006040820190506119ba6000830185611581565b6119c76020830184611581565b9392505050565b7f4b65792069736e277420617474616368656420746f20746865206964656e746960008201527f7479000000000000000000000000000000000000000000000000000000000000602082015250565b6000611a2a60228361182a565b9150611a35826119ce565b604082019050919050565b60006020820190508181036000830152611a5981611a1d565b9050919050565b7f43616e6e6f742064656c65746520746865206f6e6c792061646d696e206b6579600082015250565b6000611a9660208361182a565b9150611aa182611a60565b602082019050919050565b60006020820190508181036000830152611ac581611a89565b9050919050565b7f43616e6e6f742064656c65746520746865206f6e6c79206f7065726174696f6e60008201527f616c206b65790000000000000000000000000000000000000000000000000000602082015250565b6000611b2860268361182a565b9150611b3382611acc565b604082019050919050565b60006020820190508181036000830152611b5781611b1b565b9050919050565b7f50726f66696c6553746f72616765000000000000000000000000000000000000600082015250565b6000611b94600e8361182a565b9150611b9f82611b5e565b602082019050919050565b60006020820190508181036000830152611bc381611b87565b9050919050565b600081519050611bd9816115e8565b92915050565b600060208284031215611bf557611bf46112d1565b5b6000611c0384828501611bca565b91505092915050565b7f46756e6374696f6e2063616e206f6e6c792062652063616c6c6564206279205060008201527f726f66696c6553746f7261676520636f6e747261637400000000000000000000602082015250565b6000611c6860368361182a565b9150611c7382611c0c565b604082019050919050565b60006020820190508181036000830152611c9781611c5b565b9050919050565b7f4f7065726174696f6e616c2077616c6c657420616464726573732063616e277460008201527f20626520656d7074790000000000000000000000000000000000000000000000602082015250565b6000611cfa60298361182a565b9150611d0582611c9e565b604082019050919050565b60006020820190508181036000830152611d2981611ced565b9050919050565b7f41646d696e2077616c6c657420616464726573732063616e277420626520656d60008201527f7074790000000000000000000000000000000000000000000000000000000000602082015250565b6000611d8c60238361182a565b9150611d9782611d30565b604082019050919050565b60006020820190508181036000830152611dbb81611d7f565b9050919050565b7f53616d65206164647265737320666f722041444d494e2f4f5045524154494f4e60008201527f414c20707572706f736573000000000000000000000000000000000000000000602082015250565b6000611e1e602b8361182a565b9150611e2982611dc2565b604082019050919050565b60006020820190508181036000830152611e4d81611e11565b9050919050565b7f4e487b7100000000000000000000000000000000000000000000000000000000600052601160045260246000fd5b6000611e8e826112d6565b91506bffffffffffffffffffffffff8203611eac57611eab611e54565b5b600182019050919050565b7f4e487b7100000000000000000000000000000000000000000000000000000000600052603260045260246000fd5b6000611ef18261146e565b91507fffffffffffffffffffffffffffffffffffffffffffffffffffffffffffffffff8203611f2357611f22611e54565b5b600182019050919050565b6000611f398261146e565b9150611f448361146e565b925082821015611f5757611f56611e54565b5b828203905092915050565b7f4e487b7100000000000000000000000000000000000000000000000000000000600052603160045260246000fdfea2646970667358221220b87d5c93451a60e2e24a2b629f9fceba6a5f2e9248ccf15d620ff00ae9c467ac64736f6c634300080e0033",
  "immutableReferences": {},
  "source": "// SPDX-License-Identifier: MIT\n\npragma solidity ^0.8.0;\n\nimport { ByteArr } from \"../utils/ByteArr.sol\";\nimport { Hub } from \"../Hub.sol\";\nimport { IERC734Extended } from \"../interface/IERC734Extended.sol\";\n\ncontract IdentityStorage is IERC734Extended {\n    using ByteArr for bytes;\n    using ByteArr for bytes32[];\n    using ByteArr for uint256[];\n\n    uint256 constant ADMIN_KEY = 1;\n    uint256 constant OPERATIONAL_KEY = 2;\n\n    Hub public hub;\n\n    uint96 private _identityId;\n\n    struct Identity {\n        uint96 identityId;\n        mapping (bytes32 => Key) keys;\n        mapping (uint256 => bytes32[]) keysByPurpose;\n    }\n\n    // operationalKey => identityId\n    mapping(bytes32 => uint96) public identityIds;\n    // identityId => Identity\n    mapping(uint96 => Identity) public identities;\n\n    constructor(address hubAddress) {\n        require(hubAddress != address(0));\n        hub = Hub(hubAddress);\n\n        _identityId = 1;\n    }\n\n    modifier onlyProfileStorage() {\n        require(\n            msg.sender == hub.getContractAddress(\"ProfileStorage\"),\n            \"Function can only be called by ProfileStorage contract\"\n        );\n        _;\n    }\n\n    function createIdentity(address operational, address admin) public onlyProfileStorage returns (uint96) {\n        require(operational != address(0), \"Operational wallet address can't be empty\");\n        require(admin != address(0), \"Admin wallet address can't be empty\");\n        require(operational != admin, \"Same address for ADMIN/OPERATIONAL purposes\");\n\n        bytes32 _admin_key = keccak256(abi.encodePacked(admin));\n\n        uint96 identityId = _identityId;\n        Identity storage identity = identities[identityId];\n        _identityId++;\n        \n        identity.keys[_admin_key].purpose = ADMIN_KEY;\n        identity.keys[_admin_key].keyType = 1;  // ECDSA\n        identity.keys[_admin_key].key = _admin_key;\n        identity.keysByPurpose[ADMIN_KEY].push(_admin_key);\n\n        emit KeyAdded(identityId, _admin_key, identity.keys[_admin_key].purpose, identity.keys[_admin_key].keyType);\n\n        bytes32 _operational_key = keccak256(abi.encodePacked(operational));\n\n        identityIds[_operational_key] = identityId;\n\n        identity.keys[_operational_key].purpose = OPERATIONAL_KEY;\n        identity.keys[_operational_key].keyType = 1;  // ECDSA\n        identity.keys[_operational_key].key = _operational_key;\n        identity.keysByPurpose[OPERATIONAL_KEY].push(_operational_key);\n\n        emit KeyAdded(\n            identityId,\n            _operational_key,\n            identity.keys[_operational_key].purpose,\n            identity.keys[_operational_key].keyType\n        );\n\n        emit IdentityCreated(identityId, _operational_key, _admin_key);\n\n        return identityId;\n    }\n\n    function getKey(uint96 identityId, bytes32 _key) public view override returns (uint256, uint256, bytes32) {\n        return (\n            identities[identityId].keys[_key].purpose,\n            identities[identityId].keys[_key].keyType,\n            identities[identityId].keys[_key].key\n        );\n    }\n\n    function keyHasPurpose(uint96 identityId, bytes32 _key, uint256 _purpose) public view override returns (bool) {\n        return identities[identityId].keys[_key].purpose == _purpose;\n    }\n\n    function getKeysByPurpose(uint96 identityId, uint256 _purpose) public view override returns (bytes32[] memory) {\n        return identities[identityId].keysByPurpose[_purpose];\n    }\n\n    function addKey(uint96 identityId, bytes32 _key, uint256 _purpose, uint256 _type) public override returns (bool) {\n        require(keyHasPurpose(identityId, keccak256(abi.encodePacked(msg.sender)), ADMIN_KEY), \"Admin function\");\n        require(_key != bytes32(0), \"Key arg is empty\");\n        require(identities[identityId].keys[_key].key != _key, \"Key is already attached to the identity\");\n\n        identities[identityId].keys[_key].purpose = _purpose;\n        identities[identityId].keys[_key].keyType = _type;\n        identities[identityId].keys[_key].key = _key;\n        identities[identityId].keysByPurpose[_purpose].push(_key);\n\n        if (_purpose == OPERATIONAL_KEY) {\n            identityIds[_key] = identityId;\n        }\n\n        emit KeyAdded(identityId, _key, _purpose, _type);\n\n        return true;\n    }\n\n    function removeKey(uint96 identityId, bytes32 _key) public override returns (bool) {\n        require(keyHasPurpose(identityId, keccak256(abi.encodePacked(msg.sender)), ADMIN_KEY), \"Admin function\");\n        require(_key != bytes32(0), \"Key arg is empty\");\n\n        Identity storage identity = identities[identityId];\n        require(identity.keys[_key].key == _key, \"Key isn't attached to the identity\");\n\n        require(\n            !(identity.keysByPurpose[ADMIN_KEY].length == 1 && keyHasPurpose(identityId, _key, ADMIN_KEY)),\n            \"Cannot delete the only admin key\"\n        );\n        require(\n            !(identity.keysByPurpose[OPERATIONAL_KEY].length == 1 && keyHasPurpose(identityId, _key, OPERATIONAL_KEY)),\n            \"Cannot delete the only operational key\"\n        );\n\n        emit KeyRemoved(identityId, identity.keys[_key].key, identity.keys[_key].purpose, identity.keys[_key].keyType);\n\n        uint256 index;\n        bool success;\n        (index, success) = identity.keysByPurpose[identity.keys[_key].purpose].indexOf(_key);\n        identity.keysByPurpose[identity.keys[_key].purpose].removeByIndex(index);\n\n        delete identity.keys[_key];\n\n        if (identity.keys[_key].purpose == OPERATIONAL_KEY) {\n            delete identityIds[_key];\n        }\n\n        return true;\n    }\n}\n",
  "sourcePath": "/Users/waving/Desktop/OriginTrail/dkg-evm-module/contracts/storage/IdentityStorage.sol",
  "compiler": {
    "name": "solc",
    "version": "0.8.14+commit.80d49f37.Emscripten.clang"
  },
  "schemaVersion": "3.4.10",
  "updatedAt": "2022-11-16T11:11:18.803Z",
  "devdoc": {
    "kind": "dev",
    "methods": {},
    "version": 1
  },
  "userdoc": {
    "kind": "user",
    "methods": {},
    "version": 1
  }
}