{
  "contractName": "IdentityStorage",
  "abi": [
    {
      "inputs": [
        {
          "internalType": "address",
          "name": "hubAddress",
          "type": "address"
        }
      ],
      "stateMutability": "nonpayable",
      "type": "constructor"
    },
    {
      "anonymous": false,
      "inputs": [
        {
          "indexed": true,
          "internalType": "uint72",
          "name": "identityId",
          "type": "uint72"
        },
        {
          "indexed": true,
          "internalType": "bytes32",
          "name": "operationalKey",
          "type": "bytes32"
        },
        {
          "indexed": true,
          "internalType": "bytes32",
          "name": "adminKey",
          "type": "bytes32"
        }
      ],
      "name": "IdentityCreated",
      "type": "event"
    },
    {
      "anonymous": false,
      "inputs": [
        {
          "indexed": true,
          "internalType": "uint72",
          "name": "identityId",
          "type": "uint72"
        },
        {
          "indexed": true,
          "internalType": "bytes32",
          "name": "key",
          "type": "bytes32"
        },
        {
          "indexed": false,
          "internalType": "uint256",
          "name": "purpose",
          "type": "uint256"
        },
        {
          "indexed": false,
          "internalType": "uint256",
          "name": "keyType",
          "type": "uint256"
        }
      ],
      "name": "KeyAdded",
      "type": "event"
    },
    {
      "anonymous": false,
      "inputs": [
        {
          "indexed": true,
          "internalType": "uint72",
          "name": "identityId",
          "type": "uint72"
        },
        {
          "indexed": true,
          "internalType": "bytes32",
          "name": "key",
          "type": "bytes32"
        },
        {
          "indexed": false,
          "internalType": "uint256",
          "name": "purpose",
          "type": "uint256"
        },
        {
          "indexed": false,
          "internalType": "uint256",
          "name": "keyType",
          "type": "uint256"
        }
      ],
      "name": "KeyRemoved",
      "type": "event"
    },
    {
      "inputs": [],
      "name": "hub",
      "outputs": [
        {
          "internalType": "contract Hub",
          "name": "",
          "type": "address"
        }
      ],
      "stateMutability": "view",
      "type": "function"
    },
    {
      "inputs": [
        {
          "internalType": "bytes32",
          "name": "",
          "type": "bytes32"
        }
      ],
      "name": "identityIds",
      "outputs": [
        {
          "internalType": "uint72",
          "name": "",
          "type": "uint72"
        }
      ],
      "stateMutability": "view",
      "type": "function"
    },
    {
      "inputs": [
        {
          "internalType": "address",
          "name": "operational",
          "type": "address"
        },
        {
          "internalType": "address",
          "name": "admin",
          "type": "address"
        }
      ],
      "name": "createIdentity",
      "outputs": [
        {
          "internalType": "uint72",
          "name": "",
          "type": "uint72"
        }
      ],
      "stateMutability": "nonpayable",
      "type": "function"
    },
    {
      "inputs": [
        {
          "internalType": "address",
          "name": "operational",
          "type": "address"
        }
      ],
      "name": "getIdentityId",
      "outputs": [
        {
          "internalType": "uint72",
          "name": "",
          "type": "uint72"
        }
      ],
      "stateMutability": "view",
      "type": "function"
    },
    {
      "inputs": [
        {
          "internalType": "uint72",
          "name": "identityId",
          "type": "uint72"
        },
        {
          "internalType": "bytes32",
          "name": "_key",
          "type": "bytes32"
        }
      ],
      "name": "getKey",
      "outputs": [
        {
          "internalType": "uint256",
          "name": "",
          "type": "uint256"
        },
        {
          "internalType": "uint256",
          "name": "",
          "type": "uint256"
        },
        {
          "internalType": "bytes32",
          "name": "",
          "type": "bytes32"
        }
      ],
      "stateMutability": "view",
      "type": "function"
    },
    {
      "inputs": [
        {
          "internalType": "uint72",
          "name": "identityId",
          "type": "uint72"
        },
        {
          "internalType": "bytes32",
          "name": "_key",
          "type": "bytes32"
        },
        {
          "internalType": "uint256",
          "name": "_purpose",
          "type": "uint256"
        }
      ],
      "name": "keyHasPurpose",
      "outputs": [
        {
          "internalType": "bool",
          "name": "",
          "type": "bool"
        }
      ],
      "stateMutability": "view",
      "type": "function"
    },
    {
      "inputs": [
        {
          "internalType": "uint72",
          "name": "identityId",
          "type": "uint72"
        },
        {
          "internalType": "uint256",
          "name": "_purpose",
          "type": "uint256"
        }
      ],
      "name": "getKeysByPurpose",
      "outputs": [
        {
          "internalType": "bytes32[]",
          "name": "",
          "type": "bytes32[]"
        }
      ],
      "stateMutability": "view",
      "type": "function"
    },
    {
      "inputs": [
        {
          "internalType": "uint72",
          "name": "identityId",
          "type": "uint72"
        },
        {
          "internalType": "bytes32",
          "name": "_key",
          "type": "bytes32"
        },
        {
          "internalType": "uint256",
          "name": "_purpose",
          "type": "uint256"
        },
        {
          "internalType": "uint256",
          "name": "_type",
          "type": "uint256"
        }
      ],
      "name": "addKey",
      "outputs": [],
      "stateMutability": "nonpayable",
      "type": "function"
    },
    {
      "inputs": [
        {
          "internalType": "uint72",
          "name": "identityId",
          "type": "uint72"
        },
        {
          "internalType": "bytes32",
          "name": "_key",
          "type": "bytes32"
        }
      ],
      "name": "removeKey",
      "outputs": [],
      "stateMutability": "nonpayable",
      "type": "function"
    }
  ],
  "bytecode": "0x60806040523480156200001157600080fd5b50604051620020c6380380620020c683398181016040528101906200003791906200014e565b600073ffffffffffffffffffffffffffffffffffffffff168173ffffffffffffffffffffffffffffffffffffffff16036200007157600080fd5b806000806101000a81548173ffffffffffffffffffffffffffffffffffffffff021916908373ffffffffffffffffffffffffffffffffffffffff1602179055506001600060146101000a81548168ffffffffffffffffff021916908368ffffffffffffffffff1602179055505062000180565b600080fd5b600073ffffffffffffffffffffffffffffffffffffffff82169050919050565b60006200011682620000e9565b9050919050565b620001288162000109565b81146200013457600080fd5b50565b60008151905062000148816200011d565b92915050565b600060208284031215620001675762000166620000e4565b5b6000620001778482850162000137565b91505092915050565b611f3680620001906000396000f3fe608060405234801561001057600080fd5b50600436106100935760003560e01c806367ac664f1161006657806367ac664f1461014657806368b229fa14610162578063867a468014610194578063bee3b94e146101c4578063d10e73ab146101e057610093565b80631fc2b3ab1461009857806335e4fb7a146100c8578063365a86fc146100f85780634719c3de14610116575b600080fd5b6100b260048036038101906100ad9190611281565b610210565b6040516100bf91906112d2565b60405180910390f35b6100e260048036038101906100dd919061134f565b610238565b6040516100ef91906113bd565b60405180910390f35b610100610286565b60405161010d9190611457565b60405180910390f35b610130600480360381019061012b9190611472565b6102aa565b60405161013d9190611570565b60405180910390f35b610160600480360381019061015b9190611592565b610340565b005b61017c60048036038101906101779190611592565b6106fa565b60405161018b939291906115f0565b60405180910390f35b6101ae60048036038101906101a99190611665565b6107cf565b6040516101bb91906112d2565b60405180910390f35b6101de60048036038101906101d99190611692565b610827565b005b6101fa60048036038101906101f591906116f9565b610b23565b60405161020791906112d2565b60405180910390f35b60016020528060005260406000206000915054906101000a900468ffffffffffffffffff1681565b600081600260008668ffffffffffffffffff1668ffffffffffffffffff1681526020019081526020016000206001016000858152602001908152602001600020600001541490509392505050565b60008054906101000a900473ffffffffffffffffffffffffffffffffffffffff1681565b6060600260008468ffffffffffffffffff1668ffffffffffffffffff168152602001908152602001600020600201600083815260200190815260200160002080548060200260200160405190810160405280929190818152602001828054801561033357602002820191906000526020600020905b81548152602001906001019080831161031f575b5050505050905092915050565b61037282336040516020016103559190611781565b604051602081830303815290604052805190602001206001610238565b6103b1576040517f08c379a00000000000000000000000000000000000000000000000000000000081526004016103a8906117f9565b60405180910390fd5b6000801b81036103f6576040517f08c379a00000000000000000000000000000000000000000000000000000000081526004016103ed90611865565b60405180910390fd5b6000600260008468ffffffffffffffffff1668ffffffffffffffffff168152602001908152602001600020905081816001016000848152602001908152602001600020600201541461047d576040517f08c379a0000000000000000000000000000000000000000000000000000000008152600401610474906118f7565b60405180910390fd5b600181600201600060018152602001908152602001600020805490501480156104ae57506104ad83836001610238565b5b156104ee576040517f08c379a00000000000000000000000000000000000000000000000000000000081526004016104e590611963565b60405180910390fd5b6001816002016000600281526020019081526020016000208054905014801561051f575061051e83836002610238565b5b1561055f576040517f08c379a0000000000000000000000000000000000000000000000000000000008152600401610556906119f5565b60405180910390fd5b806001016000838152602001908152602001600020600201548368ffffffffffffffffff167fdd68ded2d8d9c661206e0e22f9d41397a921724bfc768864e3d32b21a9557ba983600101600086815260200190815260200160002060000154846001016000878152602001908152602001600020600101546040516105e5929190611a15565b60405180910390a360008061062f8484600201600086600101600089815260200190815260200160002060000154815260200190815260200160002061110090919063ffffffff16565b80925081935050506106768284600201600086600101600089815260200190815260200160002060000154815260200190815260200160002061116690919063ffffffff16565b50826001016000858152602001908152602001600020600080820160009055600182016000905560028201600090555050600283600101600086815260200190815260200160002060000154036106f3576001600085815260200190815260200160002060006101000a81549068ffffffffffffffffff02191690555b5050505050565b6000806000600260008668ffffffffffffffffff1668ffffffffffffffffff168152602001908152602001600020600101600085815260200190815260200160002060000154600260008768ffffffffffffffffff1668ffffffffffffffffff168152602001908152602001600020600101600086815260200190815260200160002060010154600260008868ffffffffffffffffff1668ffffffffffffffffff1681526020019081526020016000206001016000878152602001908152602001600020600201549250925092509250925092565b600060016000836040516020016107e69190611781565b60405160208183030381529060405280519060200120815260200190815260200160002060009054906101000a900468ffffffffffffffffff169050919050565b610859843360405160200161083c9190611781565b604051602081830303815290604052805190602001206001610238565b610898576040517f08c379a000000000000000000000000000000000000000000000000000000000815260040161088f906117f9565b60405180910390fd5b6000801b83036108dd576040517f08c379a00000000000000000000000000000000000000000000000000000000081526004016108d490611865565b60405180910390fd5b82600260008668ffffffffffffffffff1668ffffffffffffffffff1681526020019081526020016000206001016000858152602001908152602001600020600201540361095f576040517f08c379a000000000000000000000000000000000000000000000000000000000815260040161095690611ab0565b60405180910390fd5b81600260008668ffffffffffffffffff1668ffffffffffffffffff16815260200190815260200160002060010160008581526020019081526020016000206000018190555080600260008668ffffffffffffffffff1668ffffffffffffffffff16815260200190815260200160002060010160008581526020019081526020016000206001018190555082600260008668ffffffffffffffffff1668ffffffffffffffffff168152602001908152602001600020600101600085815260200190815260200160002060020181905550600260008568ffffffffffffffffff1668ffffffffffffffffff168152602001908152602001600020600201600083815260200190815260200160002083908060018154018082558091505060019003906000526020600020016000909190919091505560028203610ad757836001600085815260200190815260200160002060006101000a81548168ffffffffffffffffff021916908368ffffffffffffffffff1602179055505b828468ffffffffffffffffff167f29ba4d095336046dcffc9e75d3d46d22e7b304e050464d5a198f183f9c4b21d88484604051610b15929190611a15565b60405180910390a350505050565b60008060009054906101000a900473ffffffffffffffffffffffffffffffffffffffff1673ffffffffffffffffffffffffffffffffffffffff166304433bbc6040518163ffffffff1660e01b8152600401610b7d90611b1c565b602060405180830381865afa158015610b9a573d6000803e3d6000fd5b505050506040513d601f19601f82011682018060405250810190610bbe9190611b51565b73ffffffffffffffffffffffffffffffffffffffff163373ffffffffffffffffffffffffffffffffffffffff1614610c2b576040517f08c379a0000000000000000000000000000000000000000000000000000000008152600401610c2290611bf0565b60405180910390fd5b600073ffffffffffffffffffffffffffffffffffffffff168373ffffffffffffffffffffffffffffffffffffffff1603610c9a576040517f08c379a0000000000000000000000000000000000000000000000000000000008152600401610c9190611c82565b60405180910390fd5b600073ffffffffffffffffffffffffffffffffffffffff168273ffffffffffffffffffffffffffffffffffffffff1603610d09576040517f08c379a0000000000000000000000000000000000000000000000000000000008152600401610d0090611d14565b60405180910390fd5b8173ffffffffffffffffffffffffffffffffffffffff168373ffffffffffffffffffffffffffffffffffffffff1603610d77576040517f08c379a0000000000000000000000000000000000000000000000000000000008152600401610d6e90611da6565b60405180910390fd5b600082604051602001610d8a9190611781565b60405160208183030381529060405280519060200120905060008060149054906101000a900468ffffffffffffffffff1690506000600260008368ffffffffffffffffff1668ffffffffffffffffff16815260200190815260200160002090506000601481819054906101000a900468ffffffffffffffffff1680929190610e1190611df5565b91906101000a81548168ffffffffffffffffff021916908368ffffffffffffffffff16021790555050600181600101600085815260200190815260200160002060000181905550600181600101600085815260200190815260200160002060010181905550828160010160008581526020019081526020016000206002018190555080600201600060018152602001908152602001600020839080600181540180825580915050600190039060005260206000200160009091909190915055828268ffffffffffffffffff167f29ba4d095336046dcffc9e75d3d46d22e7b304e050464d5a198f183f9c4b21d88360010160008781526020019081526020016000206000015484600101600088815260200190815260200160002060010154604051610f3e929190611a15565b60405180910390a3600086604051602001610f599190611781565b604051602081830303815290604052805190602001209050826001600083815260200190815260200160002060006101000a81548168ffffffffffffffffff021916908368ffffffffffffffffff160217905550600282600101600083815260200190815260200160002060000181905550600182600101600083815260200190815260200160002060010181905550808260010160008381526020019081526020016000206002018190555081600201600060028152602001908152602001600020819080600181540180825580915050600190039060005260206000200160009091909190915055808368ffffffffffffffffff167f29ba4d095336046dcffc9e75d3d46d22e7b304e050464d5a198f183f9c4b21d884600101600085815260200190815260200160002060000154856001016000868152602001908152602001600020600101546040516110b1929190611a15565b60405180910390a383818468ffffffffffffffffff167f075aca39edba283f02f8c21a516c19dd1208d3b3d647f7012be49fe0e8dc2fd760405160405180910390a48294505050505092915050565b60008060005b8480549050811015611156578385828154811061112657611125611e26565b5b90600052602060002001540361114357806001925092505061115f565b808061114e90611e55565b915050611106565b50600080915091505b9250929050565b60608280549050821061117857600080fd5b826001848054905061118a9190611e9d565b8154811061119b5761119a611e26565b5b90600052602060002001548383815481106111b9576111b8611e26565b5b9060005260206000200181905550828054806111d8576111d7611ed1565b5b600190038181906000526020600020016000905590558280548060200260200160405190810160405280929190818152602001828054801561123957602002820191906000526020600020905b815481526020019060010190808311611225575b5050505050905092915050565b600080fd5b6000819050919050565b61125e8161124b565b811461126957600080fd5b50565b60008135905061127b81611255565b92915050565b60006020828403121561129757611296611246565b5b60006112a58482850161126c565b91505092915050565b600068ffffffffffffffffff82169050919050565b6112cc816112ae565b82525050565b60006020820190506112e760008301846112c3565b92915050565b6112f6816112ae565b811461130157600080fd5b50565b600081359050611313816112ed565b92915050565b6000819050919050565b61132c81611319565b811461133757600080fd5b50565b60008135905061134981611323565b92915050565b60008060006060848603121561136857611367611246565b5b600061137686828701611304565b93505060206113878682870161126c565b92505060406113988682870161133a565b9150509250925092565b60008115159050919050565b6113b7816113a2565b82525050565b60006020820190506113d260008301846113ae565b92915050565b600073ffffffffffffffffffffffffffffffffffffffff82169050919050565b6000819050919050565b600061141d611418611413846113d8565b6113f8565b6113d8565b9050919050565b600061142f82611402565b9050919050565b600061144182611424565b9050919050565b61145181611436565b82525050565b600060208201905061146c6000830184611448565b92915050565b6000806040838503121561148957611488611246565b5b600061149785828601611304565b92505060206114a88582860161133a565b9150509250929050565b600081519050919050565b600082825260208201905092915050565b6000819050602082019050919050565b6114e78161124b565b82525050565b60006114f983836114de565b60208301905092915050565b6000602082019050919050565b600061151d826114b2565b61152781856114bd565b9350611532836114ce565b8060005b8381101561156357815161154a88826114ed565b975061155583611505565b925050600181019050611536565b5085935050505092915050565b6000602082019050818103600083015261158a8184611512565b905092915050565b600080604083850312156115a9576115a8611246565b5b60006115b785828601611304565b92505060206115c88582860161126c565b9150509250929050565b6115db81611319565b82525050565b6115ea8161124b565b82525050565b600060608201905061160560008301866115d2565b61161260208301856115d2565b61161f60408301846115e1565b949350505050565b6000611632826113d8565b9050919050565b61164281611627565b811461164d57600080fd5b50565b60008135905061165f81611639565b92915050565b60006020828403121561167b5761167a611246565b5b600061168984828501611650565b91505092915050565b600080600080608085870312156116ac576116ab611246565b5b60006116ba87828801611304565b94505060206116cb8782880161126c565b93505060406116dc8782880161133a565b92505060606116ed8782880161133a565b91505092959194509250565b600080604083850312156117105761170f611246565b5b600061171e85828601611650565b925050602061172f85828601611650565b9150509250929050565b60008160601b9050919050565b600061175182611739565b9050919050565b600061176382611746565b9050919050565b61177b61177682611627565b611758565b82525050565b600061178d828461176a565b60148201915081905092915050565b600082825260208201905092915050565b7f41646d696e2066756e6374696f6e000000000000000000000000000000000000600082015250565b60006117e3600e8361179c565b91506117ee826117ad565b602082019050919050565b60006020820190508181036000830152611812816117d6565b9050919050565b7f4b65792061726720697320656d70747900000000000000000000000000000000600082015250565b600061184f60108361179c565b915061185a82611819565b602082019050919050565b6000602082019050818103600083015261187e81611842565b9050919050565b7f4b65792069736e277420617474616368656420746f20746865206964656e746960008201527f7479000000000000000000000000000000000000000000000000000000000000602082015250565b60006118e160228361179c565b91506118ec82611885565b604082019050919050565b60006020820190508181036000830152611910816118d4565b9050919050565b7f43616e6e6f742064656c65746520746865206f6e6c792061646d696e206b6579600082015250565b600061194d60208361179c565b915061195882611917565b602082019050919050565b6000602082019050818103600083015261197c81611940565b9050919050565b7f43616e6e6f742064656c65746520746865206f6e6c79206f7065726174696f6e60008201527f616c206b65790000000000000000000000000000000000000000000000000000602082015250565b60006119df60268361179c565b91506119ea82611983565b604082019050919050565b60006020820190508181036000830152611a0e816119d2565b9050919050565b6000604082019050611a2a60008301856115d2565b611a3760208301846115d2565b9392505050565b7f4b657920697320616c726561647920617474616368656420746f20746865206960008201527f64656e7469747900000000000000000000000000000000000000000000000000602082015250565b6000611a9a60278361179c565b9150611aa582611a3e565b604082019050919050565b60006020820190508181036000830152611ac981611a8d565b9050919050565b7f50726f66696c6553746f72616765000000000000000000000000000000000000600082015250565b6000611b06600e8361179c565b9150611b1182611ad0565b602082019050919050565b60006020820190508181036000830152611b3581611af9565b9050919050565b600081519050611b4b81611639565b92915050565b600060208284031215611b6757611b66611246565b5b6000611b7584828501611b3c565b91505092915050565b7f46756e6374696f6e2063616e206f6e6c792062652063616c6c6564206279205060008201527f726f66696c6553746f7261676520636f6e747261637400000000000000000000602082015250565b6000611bda60368361179c565b9150611be582611b7e565b604082019050919050565b60006020820190508181036000830152611c0981611bcd565b9050919050565b7f4f7065726174696f6e616c2077616c6c657420616464726573732063616e277460008201527f20626520656d7074790000000000000000000000000000000000000000000000602082015250565b6000611c6c60298361179c565b9150611c7782611c10565b604082019050919050565b60006020820190508181036000830152611c9b81611c5f565b9050919050565b7f41646d696e2077616c6c657420616464726573732063616e277420626520656d60008201527f7074790000000000000000000000000000000000000000000000000000000000602082015250565b6000611cfe60238361179c565b9150611d0982611ca2565b604082019050919050565b60006020820190508181036000830152611d2d81611cf1565b9050919050565b7f53616d65206164647265737320666f722041444d494e2f4f5045524154494f4e60008201527f414c20707572706f736573000000000000000000000000000000000000000000602082015250565b6000611d90602b8361179c565b9150611d9b82611d34565b604082019050919050565b60006020820190508181036000830152611dbf81611d83565b9050919050565b7f4e487b7100000000000000000000000000000000000000000000000000000000600052601160045260246000fd5b6000611e00826112ae565b915068ffffffffffffffffff8203611e1b57611e1a611dc6565b5b600182019050919050565b7f4e487b7100000000000000000000000000000000000000000000000000000000600052603260045260246000fd5b6000611e6082611319565b91507fffffffffffffffffffffffffffffffffffffffffffffffffffffffffffffffff8203611e9257611e91611dc6565b5b600182019050919050565b6000611ea882611319565b9150611eb383611319565b925082821015611ec657611ec5611dc6565b5b828203905092915050565b7f4e487b7100000000000000000000000000000000000000000000000000000000600052603160045260246000fdfea26469706673582212205de20d3cdbbb51bf1737935fdb69eb2960ecfadc7b544045e7059e5337834a3464736f6c634300080e0033",
  "immutableReferences": {},
  "source": "// SPDX-License-Identifier: MIT\n\npragma solidity ^0.8.0;\n\nimport { ByteArr } from \"../utils/ByteArr.sol\";\nimport { Hub } from \"../Hub.sol\";\nimport { IERC734Extended } from \"../interface/IERC734Extended.sol\";\n\ncontract IdentityStorage is IERC734Extended {\n    using ByteArr for bytes;\n    using ByteArr for bytes32[];\n    using ByteArr for uint256[];\n\n    uint256 constant ADMIN_KEY = 1;\n    uint256 constant OPERATIONAL_KEY = 2;\n\n    Hub public hub;\n\n    uint72 private _identityId;\n\n    struct Identity {\n        uint72 identityId;\n        mapping (bytes32 => Key) keys;\n        mapping (uint256 => bytes32[]) keysByPurpose;\n    }\n\n    // operationalKey => identityId\n    mapping(bytes32 => uint72) public identityIds;\n    // identityId => Identity\n    mapping(uint72 => Identity) identities;\n\n    constructor(address hubAddress) {\n        require(hubAddress != address(0));\n        hub = Hub(hubAddress);\n\n        _identityId = 1;\n    }\n\n    modifier onlyProfileStorage() {\n        require(\n            msg.sender == hub.getContractAddress(\"ProfileStorage\"),\n            \"Function can only be called by ProfileStorage contract\"\n        );\n        _;\n    }\n\n    function createIdentity(address operational, address admin) public onlyProfileStorage returns (uint72) {\n        require(operational != address(0), \"Operational wallet address can't be empty\");\n        require(admin != address(0), \"Admin wallet address can't be empty\");\n        require(operational != admin, \"Same address for ADMIN/OPERATIONAL purposes\");\n\n        bytes32 _admin_key = keccak256(abi.encodePacked(admin));\n\n        uint72 identityId = _identityId;\n        Identity storage identity = identities[identityId];\n        _identityId++;\n        \n        identity.keys[_admin_key].purpose = ADMIN_KEY;\n        identity.keys[_admin_key].keyType = 1;  // ECDSA\n        identity.keys[_admin_key].key = _admin_key;\n        identity.keysByPurpose[ADMIN_KEY].push(_admin_key);\n\n        emit KeyAdded(identityId, _admin_key, identity.keys[_admin_key].purpose, identity.keys[_admin_key].keyType);\n\n        bytes32 _operational_key = keccak256(abi.encodePacked(operational));\n\n        identityIds[_operational_key] = identityId;\n\n        identity.keys[_operational_key].purpose = OPERATIONAL_KEY;\n        identity.keys[_operational_key].keyType = 1;  // ECDSA\n        identity.keys[_operational_key].key = _operational_key;\n        identity.keysByPurpose[OPERATIONAL_KEY].push(_operational_key);\n\n        emit KeyAdded(\n            identityId,\n            _operational_key,\n            identity.keys[_operational_key].purpose,\n            identity.keys[_operational_key].keyType\n        );\n\n        emit IdentityCreated(identityId, _operational_key, _admin_key);\n\n        return identityId;\n    }\n\n    function getIdentityId(address operational) public view returns (uint72) {\n        return identityIds[keccak256(abi.encodePacked(operational))];\n    }\n\n    function getKey(uint72 identityId, bytes32 _key) public view override returns (uint256, uint256, bytes32) {\n        return (\n            identities[identityId].keys[_key].purpose,\n            identities[identityId].keys[_key].keyType,\n            identities[identityId].keys[_key].key\n        );\n    }\n\n    function keyHasPurpose(uint72 identityId, bytes32 _key, uint256 _purpose) public view override returns (bool) {\n        return identities[identityId].keys[_key].purpose == _purpose;\n    }\n\n    function getKeysByPurpose(uint72 identityId, uint256 _purpose) public view override returns (bytes32[] memory) {\n        return identities[identityId].keysByPurpose[_purpose];\n    }\n\n    function addKey(uint72 identityId, bytes32 _key, uint256 _purpose, uint256 _type) public override {\n        require(keyHasPurpose(identityId, keccak256(abi.encodePacked(msg.sender)), ADMIN_KEY), \"Admin function\");\n        require(_key != bytes32(0), \"Key arg is empty\");\n        require(identities[identityId].keys[_key].key != _key, \"Key is already attached to the identity\");\n\n        identities[identityId].keys[_key].purpose = _purpose;\n        identities[identityId].keys[_key].keyType = _type;\n        identities[identityId].keys[_key].key = _key;\n        identities[identityId].keysByPurpose[_purpose].push(_key);\n\n        if (_purpose == OPERATIONAL_KEY) {\n            identityIds[_key] = identityId;\n        }\n\n        emit KeyAdded(identityId, _key, _purpose, _type);\n    }\n\n    function removeKey(uint72 identityId, bytes32 _key) public override {\n        require(keyHasPurpose(identityId, keccak256(abi.encodePacked(msg.sender)), ADMIN_KEY), \"Admin function\");\n        require(_key != bytes32(0), \"Key arg is empty\");\n\n        Identity storage identity = identities[identityId];\n        require(identity.keys[_key].key == _key, \"Key isn't attached to the identity\");\n\n        require(\n            !(identity.keysByPurpose[ADMIN_KEY].length == 1 && keyHasPurpose(identityId, _key, ADMIN_KEY)),\n            \"Cannot delete the only admin key\"\n        );\n        require(\n            !(identity.keysByPurpose[OPERATIONAL_KEY].length == 1 && keyHasPurpose(identityId, _key, OPERATIONAL_KEY)),\n            \"Cannot delete the only operational key\"\n        );\n\n        emit KeyRemoved(identityId, identity.keys[_key].key, identity.keys[_key].purpose, identity.keys[_key].keyType);\n\n        uint256 index;\n        bool success;\n        (index, success) = identity.keysByPurpose[identity.keys[_key].purpose].indexOf(_key);\n        identity.keysByPurpose[identity.keys[_key].purpose].removeByIndex(index);\n\n        delete identity.keys[_key];\n\n        if (identity.keys[_key].purpose == OPERATIONAL_KEY) {\n            delete identityIds[_key];\n        }\n    }\n}\n",
  "sourcePath": "/Users/waving/Desktop/OriginTrail/dkg-evm-module/contracts/storage/IdentityStorage.sol",
  "compiler": {
    "name": "solc",
    "version": "0.8.14+commit.80d49f37.Emscripten.clang"
  },
  "schemaVersion": "3.4.10",
  "updatedAt": "2022-11-25T11:03:34.180Z",
  "devdoc": {
    "kind": "dev",
    "methods": {},
    "version": 1
  },
  "userdoc": {
    "kind": "user",
    "methods": {},
    "version": 1
  }
}