{
  "contractName": "Identity",
  "abi": [
    {
      "inputs": [
        {
          "internalType": "address",
          "name": "hubAddress",
          "type": "address"
        }
      ],
      "stateMutability": "nonpayable",
      "type": "constructor"
    },
    {
      "anonymous": false,
      "inputs": [
        {
          "indexed": true,
          "internalType": "uint72",
          "name": "identityId",
          "type": "uint72"
        },
        {
          "indexed": true,
          "internalType": "bytes32",
          "name": "operationalKey",
          "type": "bytes32"
        },
        {
          "indexed": true,
          "internalType": "bytes32",
          "name": "adminKey",
          "type": "bytes32"
        }
      ],
      "name": "IdentityCreated",
      "type": "event"
    },
    {
      "anonymous": false,
      "inputs": [
        {
          "indexed": true,
          "internalType": "uint72",
          "name": "identityId",
          "type": "uint72"
        }
      ],
      "name": "IdentityDeleted",
      "type": "event"
    },
    {
      "inputs": [],
      "name": "hub",
      "outputs": [
        {
          "internalType": "contract Hub",
          "name": "",
          "type": "address"
        }
      ],
      "stateMutability": "view",
      "type": "function"
    },
    {
      "inputs": [],
      "name": "identityStorage",
      "outputs": [
        {
          "internalType": "contract IdentityStorage",
          "name": "",
          "type": "address"
        }
      ],
      "stateMutability": "view",
      "type": "function"
    },
    {
      "inputs": [],
      "name": "initialize",
      "outputs": [],
      "stateMutability": "nonpayable",
      "type": "function"
    },
    {
      "inputs": [],
      "name": "name",
      "outputs": [
        {
          "internalType": "string",
          "name": "",
          "type": "string"
        }
      ],
      "stateMutability": "pure",
      "type": "function"
    },
    {
      "inputs": [],
      "name": "version",
      "outputs": [
        {
          "internalType": "string",
          "name": "",
          "type": "string"
        }
      ],
      "stateMutability": "pure",
      "type": "function"
    },
    {
      "inputs": [
        {
          "internalType": "address",
          "name": "operational",
          "type": "address"
        },
        {
          "internalType": "address",
          "name": "admin",
          "type": "address"
        }
      ],
      "name": "createIdentity",
      "outputs": [
        {
          "internalType": "uint72",
          "name": "",
          "type": "uint72"
        }
      ],
      "stateMutability": "nonpayable",
      "type": "function"
    },
    {
      "inputs": [
        {
          "internalType": "uint72",
          "name": "identityId",
          "type": "uint72"
        }
      ],
      "name": "deleteIdentity",
      "outputs": [],
      "stateMutability": "nonpayable",
      "type": "function"
    },
    {
      "inputs": [
        {
          "internalType": "uint72",
          "name": "identityId",
          "type": "uint72"
        },
        {
          "internalType": "bytes32",
          "name": "key",
          "type": "bytes32"
        },
        {
          "internalType": "uint256",
          "name": "keyPurpose",
          "type": "uint256"
        },
        {
          "internalType": "uint256",
          "name": "keyType",
          "type": "uint256"
        }
      ],
      "name": "addKey",
      "outputs": [],
      "stateMutability": "nonpayable",
      "type": "function"
    },
    {
      "inputs": [
        {
          "internalType": "uint72",
          "name": "identityId",
          "type": "uint72"
        },
        {
          "internalType": "bytes32",
          "name": "key",
          "type": "bytes32"
        }
      ],
      "name": "removeKey",
      "outputs": [],
      "stateMutability": "nonpayable",
      "type": "function"
    }
  ],
  "bytecode": "0x608060409080825234620001a257620011928038038091620000228285620001a7565b83396001600160a01b039182916200003e9190810190620001e1565b16908115620001a257600080546001600160a01b0319908116841782558451638da5cb5b60e01b815290936020918281600481855afa9081156200019857908591859162000176575b5016330362000134579080606492875193848092630110ceef60e21b8252846004830152600f60248301526e4964656e7469747953746f7261676560881b60448301525afa928315620001295792620000f5575b50501690600154161760015551610f8f9081620002038239f35b620001199250803d1062000121575b620001108183620001a7565b810190620001e1565b3880620000db565b503d62000104565b8651903d90823e3d90fd5b60648287519062461bcd60e51b825280600483015260248201527f466e2063616e206f6e6c79206265207573656420627920687562206f776e65726044820152fd5b620001919150843d86116200012157620001108183620001a7565b3862000087565b87513d86823e3d90fd5b600080fd5b601f909101601f19168101906001600160401b03821190821017620001cb57604052565b634e487b7160e01b600052604160045260246000fd5b90816020910312620001a257516001600160a01b0381168103620001a2579056fe608060408181526004918236101561001657600080fd5b600092833560e01c91826306fdde0314610bd157508163365a86fc14610ba957816354fd4d5014610b6857816367ac664f146107be5781638129fc1c14610676578163bee3b94e14610478578163d10e73ab14610169578163dc06a39d146100b3575063f11abfd81461008857600080fd5b346100af57816003193601126100af5760015490516001600160a01b039091168152602090f35b5080fd5b9190503461015b57602036600319011261015b57826100d0610c56565b6100d8610de1565b6001546001600160a01b031690813b1561015b576001600160481b0360248492838751958694859363dc06a39d60e01b855216809a8401525af1801561015f57610147575b505051907f8eb76f325ff8b1aeeacdc5189acc141ef54246ceae65dc6d5458e385388472a88383a2f35b61015090610c6c565b61015b57823861011d565b8280fd5b83513d84823e3d90fd5b839150346100af57826003193601126100af578035906001600160a01b0380831690818403610473576024359181831690818403610473576101a9610de1565b1561043057156103ed5760015416948051633f2f9ac560e21b8152602096878286818a855af19182156103e35787926103a0575b508251888101906bffffffffffffffffffffffff19809660601b1682526014815261020781610c96565b51902094813b1561035857835196635f71dca760e11b958689526001600160481b03851698898482015288602482015260016044820152600160648201528a8160848183895af1801561039657908b9161037e575b50508551908b82019260601b1682526014815261027881610c96565b51902094823b1561037a57845190815287828201528560248201526002604482015260016064820152888160848183875af180156103705790899161035c575b5050813b1561035857835163383a4c6560e11b81529081018581526001600160481b039093166020840152918791839182908490829060400103925af1801561034e578592918791610331575b50507f075aca39edba283f02f8c21a516c19dd1208d3b3d647f7012be49fe0e8dc2fd790519586a48152f35b61033d91929350610c6c565b61034a5783908588610305565b8480fd5b82513d88823e3d90fd5b8780fd5b61036590610c6c565b61035857878a6102b8565b85513d8b823e3d90fd5b8880fd5b61038790610c6c565b61039257898c61025c565b8980fd5b87513d8d823e3d90fd5b9091508781813d83116103dc575b6103b88183610cb2565b810103126103d857516001600160481b03811681036103d85790886101dd565b8680fd5b503d6103ae565b83513d89823e3d90fd5b855162461bcd60e51b8152602081850152601a60248201527f41646d696e20616464726573732063616e2774206265203078300000000000006044820152606490fd5b865162461bcd60e51b8152602081860181905260248201527f4f7065726174696f6e616c20616464726573732063616e2774206265203078306044820152606490fd5b600080fd5b8383346100af5760803660031901126100af57610493610c56565b60443593602435916104a481610e92565b6104af831515610cf3565b600154845163345914fd60e11b81526001600160481b038316848201908152602081018690526001600160a01b0390921691606090829081906040010381855afa90811561066c57908591889161063b575b50146105f8578596819695963b156105ea578651635f71dca760e11b81526001600160481b038416858201528560248201528160448201526064356064820152868160848183875af19081156105ee5787916105d6575b505060021461056657848651f35b803b1561034a57855163383a4c6560e11b81529283019384526001600160481b03909116602084015290918391839182908490829060400103925af180156105c9576105b5575b808080848651f35b6105be90610c6c565b6100af5781836105ad565b50505051903d90823e3d90fd5b6105df90610c6c565b6105ea578589610558565b8580fd5b88513d89823e3d90fd5b845162461bcd60e51b8152602081850152601760248201527f4b657920697320616c72656164792061747461636865640000000000000000006044820152606490fd5b61065c915060603d8111610665575b6106548183610cb2565b810190610d32565b91505089610501565b503d61064a565b86513d89823e3d90fd5b90503461015b578260031936011261015b5782548251638da5cb5b60e01b81526001600160a01b039260209284169183818381865afa801561066c57859188916107a1575b5016330361076057826064819287519485938492630110ceef60e21b8452830152600f60248301526e4964656e7469747953746f7261676560881b60448301525afa918215610756578592610729575b5050166bffffffffffffffffffffffff60a01b600154161760015551f35b6107489250803d1061074f575b6107408183610cb2565b810190610cd4565b388061070b565b503d610736565b84513d87823e3d90fd5b606490838087519262461bcd60e51b845283015260248201527f466e2063616e206f6e6c79206265207573656420627920687562206f776e65726044820152fd5b6107b89150853d871161074f576107408183610cb2565b386106bb565b8383346100af57806003193601126100af576107d8610c56565b9260249081356107e786610e92565b6107f2811515610cf3565b600154845163345914fd60e11b81526001600160481b0388168482019081526020810184905290976001600160a01b03909216949190606090899081906040010381885afa801561066c5787988891610b44575b508303610b0d57855163238ce1ef60e11b8082526001600160481b0383169081878401526001858401526044928a8185818c5afa908115610ae957906001918c91610af3575b50511480610a91575b610a505788519081528187820152600285820152898184818b5afa908115610a4657906001918b91610a24575b50511490816109b0575b506109705750843b156103d85785516367ac664f60e01b81526001600160481b0390911684820190815260208101849052879082908190604001038183895af1801561066c5761095a575b50600286979695961461092957848651f35b833b1561034a5784928387519586948593620ef85560ea1b85528401525af180156105c9576105b557808080848651f35b956109686002989697610c6c565b959496610917565b847f43616e6e6f742064656c65746520746865206f6e6c79206f7065722e206b6579606492602086818c519562461bcd60e51b8752860152840152820152fd5b9050875190631af27dbd60e11b82528682015284848201526002828201526020816064818a5afa908115610a1a5789916109ec575b508a6108cc565b610a0d915060203d8111610a13575b610a058183610cb2565b810190610dc9565b8a6109e5565b503d6109fb565b88513d8b823e3d90fd5b610a4091503d808d833e610a388183610cb2565b810190610d4d565b8c6108c2565b89513d8c823e3d90fd5b885162461bcd60e51b81526020818901819052818701527f43616e6e6f742064656c65746520746865206f6e6c792061646d696e206b657981850152606490fd5b508851631af27dbd60e11b8152828882015286868201526001848201526020816064818c5afa908115610ae9578b91610acb575b50610895565b610ae3915060203d8111610a1357610a058183610cb2565b8c610ac5565b8a513d8d823e3d90fd5b610b0791503d808e833e610a388183610cb2565b8d61088c565b855162461bcd60e51b81526020818601526012818401527112d95e481a5cdb89dd08185d1d1858da195960721b6044820152606490fd5b849950610b5f915060603d8111610665576106548183610cb2565b91999050610846565b5050346100af57816003193601126100af578051610ba591610b8982610c96565b60058252640312e302e360dc1b60208301525191829182610c0d565b0390f35b5050346100af57816003193601126100af57905490516001600160a01b039091168152602090f35b8490843461015b578260031936011261015b57610ba59250610bf282610c96565b60088252674964656e7469747960c01b602083015251918291825b6020808252825181830181905290939260005b828110610c4257505060409293506000838284010152601f8019910116010190565b818101860151848201604001528501610c20565b600435906001600160481b038216820361047357565b67ffffffffffffffff8111610c8057604052565b634e487b7160e01b600052604160045260246000fd5b6040810190811067ffffffffffffffff821117610c8057604052565b90601f8019910116810190811067ffffffffffffffff821117610c8057604052565b9081602091031261047357516001600160a01b03811681036104735790565b15610cfa57565b60405162461bcd60e51b815260206004820152601060248201526f4b65792061726720697320656d70747960801b6044820152606490fd5b90816060910312610473578051916040602083015192015190565b90602090818382031261047357825167ffffffffffffffff93848211610473570181601f82011215610473578051938411610c80578360051b9060405194610d9785840187610cb2565b85528380860192820101928311610473578301905b828210610dba575050505090565b81518152908301908301610dac565b90816020910312610473575180151581036104735790565b600054604051631627905560e01b815233600482015290602090829060249082906001600160a01b03165afa908115610e8657600091610e68575b5015610e2457565b606460405162461bcd60e51b815260206004820152602060248201527f466e2063616e206f6e6c792062652063616c6c656420627920746865206875626044820152fd5b610e80915060203d8111610a1357610a058183610cb2565b38610e1c565b6040513d6000823e3d90fd5b60206001600160481b03606460018060a01b036001541693604051848101903360601b825260148152610ec481610c96565b519020946040519586948593631af27dbd60e11b85521660048401526024830152600160448301525afa908115610e8657600091610f3b575b5015610f0557565b60405162461bcd60e51b815260206004820152600e60248201526d20b236b4b710333ab731ba34b7b760911b6044820152606490fd5b610f53915060203d8111610a1357610a058183610cb2565b38610efd56fea2646970667358221220313f82a4a5a478bf2ec0413106b5f152628cb8fc4406c574ab6170512e1936b464736f6c63430008100033",
  "immutableReferences": {},
  "source": "// SPDX-License-Identifier: MIT\n\npragma solidity ^0.8.4;\n\nimport { Hub } from \"./Hub.sol\";\nimport { IdentityStorage } from \"./storage/IdentityStorage.sol\";\nimport { Named } from \"./interface/Named.sol\";\nimport { Versioned } from \"./interface/Versioned.sol\";\nimport { ADMIN_KEY, OPERATIONAL_KEY, ECDSA, RSA } from \"./constants/IdentityConstants.sol\";\n\ncontract Identity is Named, Versioned {\n\n    event IdentityCreated(uint72 indexed identityId, bytes32 indexed operationalKey, bytes32 indexed adminKey);\n    event IdentityDeleted(uint72 indexed identityId);\n\n    string constant private _NAME = \"Identity\";\n    string constant private _VERSION = \"1.0.0\";\n\n    Hub public hub;\n    IdentityStorage public identityStorage;\n\n    constructor(address hubAddress) {\n        require(hubAddress != address(0));\n\n        hub = Hub(hubAddress);\n        initialize();\n    }\n\n    modifier onlyHubOwner() {\n\t\t_checkHubOwner();\n\t\t_;\n\t}\n\n    modifier onlyContracts() {\n        _checkHub();\n        _;\n    }\n\n    modifier onlyAdmin(uint72 identityId) {\n        _checkAdmin(identityId);\n        _;\n    }\n\n    function initialize() public onlyHubOwner {\n\t\tidentityStorage = IdentityStorage(hub.getContractAddress(\"IdentityStorage\"));\n\t}\n\n    function name() external pure virtual override returns (string memory) {\n        return _NAME;\n    }\n\n    function version() external pure virtual override returns (string memory) {\n        return _VERSION;\n    }\n\n    function createIdentity(address operational, address admin) external onlyContracts returns (uint72) {\n        require(operational != address(0), \"Operational address can't be 0x0\");\n        require(admin != address(0), \"Admin address can't be 0x0\");\n\n        IdentityStorage ids = identityStorage;\n\n        uint72 identityId = ids.generateIdentityId();\n\n        bytes32 _admin_key = keccak256(abi.encodePacked(admin));\n        ids.addKey(identityId, _admin_key, ADMIN_KEY, ECDSA);\n\n        bytes32 _operational_key = keccak256(abi.encodePacked(operational));\n        ids.addKey(identityId, _operational_key, OPERATIONAL_KEY, ECDSA);\n\n        ids.setOperationalKeyIdentityId(_operational_key, identityId);\n\n        emit IdentityCreated(\n            identityId,\n            _operational_key,\n            _admin_key\n        );\n\n        return identityId;\n    }\n\n    function deleteIdentity(uint72 identityId) external onlyContracts {\n        identityStorage.deleteIdentity(identityId);\n\n        emit IdentityDeleted(identityId);\n    }\n\n    function addKey(uint72 identityId, bytes32 key, uint256 keyPurpose, uint256 keyType)\n        external\n        onlyAdmin(identityId)\n    {\n        require(key != bytes32(0), \"Key arg is empty\");\n\n        IdentityStorage ids = identityStorage;\n\n        bytes32 attachedKey;\n        ( , , attachedKey) = ids.getKey(identityId, key);\n        require(attachedKey != key, \"Key is already attached\");\n\n        ids.addKey(identityId, key, keyPurpose, keyType);\n\n        if (keyPurpose == OPERATIONAL_KEY) {\n            ids.setOperationalKeyIdentityId(key, identityId);\n        }\n    }\n\n    function removeKey(uint72 identityId, bytes32 key) external onlyAdmin(identityId) {\n        require(key != bytes32(0), \"Key arg is empty\");\n\n        IdentityStorage ids = identityStorage;\n\n        uint256 purpose;\n        bytes32 attachedKey;\n        (purpose, , attachedKey) = ids.getKey(identityId, key);\n        require(attachedKey == key, \"Key isn't attached\");\n\n        require(\n            !(\n                ids.getKeysByPurpose(identityId, ADMIN_KEY).length == 1 &&\n                ids.keyHasPurpose(identityId, key, ADMIN_KEY)\n            ),\n            \"Cannot delete the only admin key\"\n        );\n        require(\n            !(\n                ids.getKeysByPurpose(identityId, OPERATIONAL_KEY).length == 1 &&\n                ids.keyHasPurpose(identityId, key, OPERATIONAL_KEY)\n            ),\n            \"Cannot delete the only oper. key\"\n        );\n\n        ids.removeKey(identityId, key);\n\n        if (purpose == OPERATIONAL_KEY) {\n            ids.removeOperationalKeyIdentityId(key);\n        }\n    }\n\n    function _checkHubOwner() internal view virtual {\n\t\trequire(msg.sender == hub.owner(), \"Fn can only be used by hub owner\");\n\t}\n\n    function _checkHub() internal view virtual {\n        require(hub.isContract(msg.sender), \"Fn can only be called by the hub\");\n    }\n\n    function _checkAdmin(uint72 identityId) internal view virtual {\n        require(\n            identityStorage.keyHasPurpose(identityId, keccak256(abi.encodePacked(msg.sender)), ADMIN_KEY),\n            \"Admin function\"\n        );\n    }\n\n}\n",
  "sourcePath": "/Users/waving/Desktop/OriginTrail/dkg-evm-module/contracts/Identity.sol",
  "compiler": {
    "name": "solc",
    "version": "0.8.16+commit.07a7930e.Emscripten.clang"
  },
  "schemaVersion": "3.4.10",
  "updatedAt": "2022-12-12T09:47:52.076Z",
  "devdoc": {
    "kind": "dev",
    "methods": {},
    "version": 1
  },
  "userdoc": {
    "kind": "user",
    "methods": {},
    "version": 1
  }
}