{
  "contractName": "IdentityStorage",
  "abi": [
    {
      "inputs": [
        {
          "internalType": "address",
          "name": "hubAddress",
          "type": "address"
        }
      ],
      "stateMutability": "nonpayable",
      "type": "constructor"
    },
    {
      "anonymous": false,
      "inputs": [
        {
          "indexed": true,
          "internalType": "uint96",
          "name": "identityId",
          "type": "uint96"
        },
        {
          "indexed": true,
          "internalType": "bytes32",
          "name": "operationalKey",
          "type": "bytes32"
        },
        {
          "indexed": true,
          "internalType": "bytes32",
          "name": "adminKey",
          "type": "bytes32"
        }
      ],
      "name": "IdentityCreated",
      "type": "event"
    },
    {
      "anonymous": false,
      "inputs": [
        {
          "indexed": true,
          "internalType": "uint96",
          "name": "identityId",
          "type": "uint96"
        },
        {
          "indexed": true,
          "internalType": "bytes32",
          "name": "key",
          "type": "bytes32"
        },
        {
          "indexed": false,
          "internalType": "uint256",
          "name": "purpose",
          "type": "uint256"
        },
        {
          "indexed": false,
          "internalType": "uint256",
          "name": "keyType",
          "type": "uint256"
        }
      ],
      "name": "KeyAdded",
      "type": "event"
    },
    {
      "anonymous": false,
      "inputs": [
        {
          "indexed": true,
          "internalType": "uint96",
          "name": "identityId",
          "type": "uint96"
        },
        {
          "indexed": true,
          "internalType": "bytes32",
          "name": "key",
          "type": "bytes32"
        },
        {
          "indexed": false,
          "internalType": "uint256",
          "name": "purpose",
          "type": "uint256"
        },
        {
          "indexed": false,
          "internalType": "uint256",
          "name": "keyType",
          "type": "uint256"
        }
      ],
      "name": "KeyRemoved",
      "type": "event"
    },
    {
      "inputs": [],
      "name": "hub",
      "outputs": [
        {
          "internalType": "contract Hub",
          "name": "",
          "type": "address"
        }
      ],
      "stateMutability": "view",
      "type": "function"
    },
    {
      "inputs": [
        {
          "internalType": "bytes32",
          "name": "",
          "type": "bytes32"
        }
      ],
      "name": "identityIds",
      "outputs": [
        {
          "internalType": "uint96",
          "name": "",
          "type": "uint96"
        }
      ],
      "stateMutability": "view",
      "type": "function"
    },
    {
      "inputs": [
        {
          "internalType": "address",
          "name": "operational",
          "type": "address"
        },
        {
          "internalType": "address",
          "name": "admin",
          "type": "address"
        }
      ],
      "name": "createIdentity",
      "outputs": [
        {
          "internalType": "uint96",
          "name": "",
          "type": "uint96"
        }
      ],
      "stateMutability": "nonpayable",
      "type": "function"
    },
    {
      "inputs": [],
      "name": "getIdentityId",
      "outputs": [
        {
          "internalType": "uint96",
          "name": "",
          "type": "uint96"
        }
      ],
      "stateMutability": "view",
      "type": "function"
    },
    {
      "inputs": [
        {
          "internalType": "uint96",
          "name": "identityId",
          "type": "uint96"
        },
        {
          "internalType": "bytes32",
          "name": "_key",
          "type": "bytes32"
        }
      ],
      "name": "getKey",
      "outputs": [
        {
          "internalType": "uint256",
          "name": "",
          "type": "uint256"
        },
        {
          "internalType": "uint256",
          "name": "",
          "type": "uint256"
        },
        {
          "internalType": "bytes32",
          "name": "",
          "type": "bytes32"
        }
      ],
      "stateMutability": "view",
      "type": "function"
    },
    {
      "inputs": [
        {
          "internalType": "uint96",
          "name": "identityId",
          "type": "uint96"
        },
        {
          "internalType": "bytes32",
          "name": "_key",
          "type": "bytes32"
        },
        {
          "internalType": "uint256",
          "name": "_purpose",
          "type": "uint256"
        }
      ],
      "name": "keyHasPurpose",
      "outputs": [
        {
          "internalType": "bool",
          "name": "",
          "type": "bool"
        }
      ],
      "stateMutability": "view",
      "type": "function"
    },
    {
      "inputs": [
        {
          "internalType": "uint96",
          "name": "identityId",
          "type": "uint96"
        },
        {
          "internalType": "uint256",
          "name": "_purpose",
          "type": "uint256"
        }
      ],
      "name": "getKeysByPurpose",
      "outputs": [
        {
          "internalType": "bytes32[]",
          "name": "",
          "type": "bytes32[]"
        }
      ],
      "stateMutability": "view",
      "type": "function"
    },
    {
      "inputs": [
        {
          "internalType": "uint96",
          "name": "identityId",
          "type": "uint96"
        },
        {
          "internalType": "bytes32",
          "name": "_key",
          "type": "bytes32"
        },
        {
          "internalType": "uint256",
          "name": "_purpose",
          "type": "uint256"
        },
        {
          "internalType": "uint256",
          "name": "_type",
          "type": "uint256"
        }
      ],
      "name": "addKey",
      "outputs": [
        {
          "internalType": "bool",
          "name": "",
          "type": "bool"
        }
      ],
      "stateMutability": "nonpayable",
      "type": "function"
    },
    {
      "inputs": [
        {
          "internalType": "uint96",
          "name": "identityId",
          "type": "uint96"
        },
        {
          "internalType": "bytes32",
          "name": "_key",
          "type": "bytes32"
        }
      ],
      "name": "removeKey",
      "outputs": [
        {
          "internalType": "bool",
          "name": "",
          "type": "bool"
        }
      ],
      "stateMutability": "nonpayable",
      "type": "function"
    }
  ],
  "bytecode": "0x60806040523480156200001157600080fd5b506040516200214138038062002141833981810160405281019062000037919062000154565b600073ffffffffffffffffffffffffffffffffffffffff168173ffffffffffffffffffffffffffffffffffffffff16036200007157600080fd5b806000806101000a81548173ffffffffffffffffffffffffffffffffffffffff021916908373ffffffffffffffffffffffffffffffffffffffff1602179055506001600060146101000a8154816bffffffffffffffffffffffff02191690836bffffffffffffffffffffffff1602179055505062000186565b600080fd5b600073ffffffffffffffffffffffffffffffffffffffff82169050919050565b60006200011c82620000ef565b9050919050565b6200012e816200010f565b81146200013a57600080fd5b50565b6000815190506200014e8162000123565b92915050565b6000602082840312156200016d576200016c620000ea565b5b60006200017d848285016200013d565b91505092915050565b611fab80620001966000396000f3fe608060405234801561001057600080fd5b50600436106100935760003560e01c80637b451d37116100665780637b451d3714610134578063c01e513814610164578063d10e73ab14610196578063d55bbcac146101c6578063e8b98464146101f657610093565b80631fc2b3ab14610098578063365a86fc146100c85780636787bf24146100e65780637006045c14610116575b600080fd5b6100b260048036038101906100ad919061131d565b610226565b6040516100bf9190611371565b60405180910390f35b6100d0610251565b6040516100dd919061140b565b60405180910390f35b61010060048036038101906100fb9190611488565b610275565b60405161010d919061150a565b60405180910390f35b61011e6105a0565b60405161012b9190611371565b60405180910390f35b61014e60048036038101906101499190611525565b6105f9565b60405161015b919061150a565b60405180910390f35b61017e60048036038101906101799190611525565b6109c7565b60405161018d93929190611583565b60405180910390f35b6101b060048036038101906101ab91906115f8565b610aae565b6040516101bd9190611371565b60405180910390f35b6101e060048036038101906101db9190611638565b6110ac565b6040516101ed919061150a565b60405180910390f35b610210600480360381019061020b919061168b565b611100565b60405161021d9190611789565b60405180910390f35b60016020528060005260406000206000915054906101000a90046bffffffffffffffffffffffff1681565b60008054906101000a900473ffffffffffffffffffffffffffffffffffffffff1681565b60006102a9853360405160200161028c91906117f3565b6040516020818303038152906040528051906020012060016110ac565b6102e8576040517f08c379a00000000000000000000000000000000000000000000000000000000081526004016102df9061186b565b60405180910390fd5b6000801b840361032d576040517f08c379a0000000000000000000000000000000000000000000000000000000008152600401610324906118d7565b60405180910390fd5b8360026000876bffffffffffffffffffffffff166bffffffffffffffffffffffff168152602001908152602001600020600101600086815260200190815260200160002060020154036103b5576040517f08c379a00000000000000000000000000000000000000000000000000000000081526004016103ac90611969565b60405180910390fd5b8260026000876bffffffffffffffffffffffff166bffffffffffffffffffffffff1681526020019081526020016000206001016000868152602001908152602001600020600001819055508160026000876bffffffffffffffffffffffff166bffffffffffffffffffffffff1681526020019081526020016000206001016000868152602001908152602001600020600101819055508360026000876bffffffffffffffffffffffff166bffffffffffffffffffffffff16815260200190815260200160002060010160008681526020019081526020016000206002018190555060026000866bffffffffffffffffffffffff166bffffffffffffffffffffffff16815260200190815260200160002060020160008481526020019081526020016000208490806001815401808255809150506001900390600052602060002001600090919091909150556002830361054b57846001600086815260200190815260200160002060006101000a8154816bffffffffffffffffffffffff02191690836bffffffffffffffffffffffff1602179055505b83856bffffffffffffffffffffffff167fddb3379e7a64dd6a3168dd79f0aefb02aa90026561607038bfb00e4c1942b52f858560405161058c929190611989565b60405180910390a360019050949350505050565b600060016000336040516020016105b791906117f3565b60405160208183030381529060405280519060200120815260200190815260200160002060009054906101000a90046bffffffffffffffffffffffff16905090565b600061062d833360405160200161061091906117f3565b6040516020818303038152906040528051906020012060016110ac565b61066c576040517f08c379a00000000000000000000000000000000000000000000000000000000081526004016106639061186b565b60405180910390fd5b6000801b82036106b1576040517f08c379a00000000000000000000000000000000000000000000000000000000081526004016106a8906118d7565b60405180910390fd5b600060026000856bffffffffffffffffffffffff166bffffffffffffffffffffffff168152602001908152602001600020905082816001016000858152602001908152602001600020600201541461073e576040517f08c379a000000000000000000000000000000000000000000000000000000000815260040161073590611a24565b60405180910390fd5b6001816002016000600181526020019081526020016000208054905014801561076f575061076e848460016110ac565b5b156107af576040517f08c379a00000000000000000000000000000000000000000000000000000000081526004016107a690611a90565b60405180910390fd5b600181600201600060028152602001908152602001600020805490501480156107e057506107df848460026110ac565b5b15610820576040517f08c379a000000000000000000000000000000000000000000000000000000000815260040161081790611b22565b60405180910390fd5b80600101600084815260200190815260200160002060020154846bffffffffffffffffffffffff167f0641c9782718a45df6ce449d0f27b47c35cf945084dd989350a7e5a94758476383600101600087815260200190815260200160002060000154846001016000888152602001908152602001600020600101546040516108a9929190611989565b60405180910390a36000806108f3858460020160008660010160008a815260200190815260200160002060000154815260200190815260200160002061119c90919063ffffffff16565b809250819350505061093a828460020160008660010160008a815260200190815260200160002060000154815260200190815260200160002061120290919063ffffffff16565b50826001016000868152602001908152602001600020600080820160009055600182016000905560028201600090555050600283600101600087815260200190815260200160002060000154036109ba576001600086815260200190815260200160002060006101000a8154906bffffffffffffffffffffffff02191690555b6001935050505092915050565b600080600060026000866bffffffffffffffffffffffff166bffffffffffffffffffffffff16815260200190815260200160002060010160008581526020019081526020016000206000015460026000876bffffffffffffffffffffffff166bffffffffffffffffffffffff16815260200190815260200160002060010160008681526020019081526020016000206001015460026000886bffffffffffffffffffffffff166bffffffffffffffffffffffff1681526020019081526020016000206001016000878152602001908152602001600020600201549250925092509250925092565b60008060009054906101000a900473ffffffffffffffffffffffffffffffffffffffff1673ffffffffffffffffffffffffffffffffffffffff166304433bbc6040518163ffffffff1660e01b8152600401610b0890611b8e565b602060405180830381865afa158015610b25573d6000803e3d6000fd5b505050506040513d601f19601f82011682018060405250810190610b499190611bc3565b73ffffffffffffffffffffffffffffffffffffffff163373ffffffffffffffffffffffffffffffffffffffff1614610bb6576040517f08c379a0000000000000000000000000000000000000000000000000000000008152600401610bad90611c62565b60405180910390fd5b600073ffffffffffffffffffffffffffffffffffffffff168373ffffffffffffffffffffffffffffffffffffffff1603610c25576040517f08c379a0000000000000000000000000000000000000000000000000000000008152600401610c1c90611cf4565b60405180910390fd5b600073ffffffffffffffffffffffffffffffffffffffff168273ffffffffffffffffffffffffffffffffffffffff1603610c94576040517f08c379a0000000000000000000000000000000000000000000000000000000008152600401610c8b90611d86565b60405180910390fd5b8173ffffffffffffffffffffffffffffffffffffffff168373ffffffffffffffffffffffffffffffffffffffff1603610d02576040517f08c379a0000000000000000000000000000000000000000000000000000000008152600401610cf990611e18565b60405180910390fd5b600082604051602001610d1591906117f3565b60405160208183030381529060405280519060200120905060008060149054906101000a90046bffffffffffffffffffffffff169050600060026000836bffffffffffffffffffffffff166bffffffffffffffffffffffff16815260200190815260200160002090506000601481819054906101000a90046bffffffffffffffffffffffff1680929190610da890611e67565b91906101000a8154816bffffffffffffffffffffffff02191690836bffffffffffffffffffffffff1602179055505060018160010160008581526020019081526020016000206000018190555060018160010160008581526020019081526020016000206001018190555082816001016000858152602001908152602001600020600201819055508060020160006001815260200190815260200160002083908060018154018082558091505060019003906000526020600020016000909190919091505582826bffffffffffffffffffffffff167fddb3379e7a64dd6a3168dd79f0aefb02aa90026561607038bfb00e4c1942b52f8360010160008781526020019081526020016000206000015484600101600088815260200190815260200160002060010154604051610ede929190611989565b60405180910390a3600086604051602001610ef991906117f3565b604051602081830303815290604052805190602001209050826001600083815260200190815260200160002060006101000a8154816bffffffffffffffffffffffff02191690836bffffffffffffffffffffffff16021790555060028260010160008381526020019081526020016000206000018190555060018260010160008381526020019081526020016000206001018190555080826001016000838152602001908152602001600020600201819055508160020160006002815260200190815260200160002081908060018154018082558091505060019003906000526020600020016000909190919091505580836bffffffffffffffffffffffff167fddb3379e7a64dd6a3168dd79f0aefb02aa90026561607038bfb00e4c1942b52f846001016000858152602001908152602001600020600001548560010160008681526020019081526020016000206001015460405161105a929190611989565b60405180910390a38381846bffffffffffffffffffffffff167f1152bb203c8119b3be98cdef8f655065df73e147286b3d7911d8f03c69881b6a60405160405180910390a48294505050505092915050565b60008160026000866bffffffffffffffffffffffff166bffffffffffffffffffffffff1681526020019081526020016000206001016000858152602001908152602001600020600001541490509392505050565b606060026000846bffffffffffffffffffffffff166bffffffffffffffffffffffff168152602001908152602001600020600201600083815260200190815260200160002080548060200260200160405190810160405280929190818152602001828054801561118f57602002820191906000526020600020905b81548152602001906001019080831161117b575b5050505050905092915050565b60008060005b84805490508110156111f257838582815481106111c2576111c1611e9b565b5b9060005260206000200154036111df5780600192509250506111fb565b80806111ea90611eca565b9150506111a2565b50600080915091505b9250929050565b60608280549050821061121457600080fd5b82600184805490506112269190611f12565b8154811061123757611236611e9b565b5b906000526020600020015483838154811061125557611254611e9b565b5b90600052602060002001819055508280548061127457611273611f46565b5b60019003818190600052602060002001600090559055828054806020026020016040519081016040528092919081815260200182805480156112d557602002820191906000526020600020905b8154815260200190600101908083116112c1575b5050505050905092915050565b600080fd5b6000819050919050565b6112fa816112e7565b811461130557600080fd5b50565b600081359050611317816112f1565b92915050565b600060208284031215611333576113326112e2565b5b600061134184828501611308565b91505092915050565b60006bffffffffffffffffffffffff82169050919050565b61136b8161134a565b82525050565b60006020820190506113866000830184611362565b92915050565b600073ffffffffffffffffffffffffffffffffffffffff82169050919050565b6000819050919050565b60006113d16113cc6113c78461138c565b6113ac565b61138c565b9050919050565b60006113e3826113b6565b9050919050565b60006113f5826113d8565b9050919050565b611405816113ea565b82525050565b600060208201905061142060008301846113fc565b92915050565b61142f8161134a565b811461143a57600080fd5b50565b60008135905061144c81611426565b92915050565b6000819050919050565b61146581611452565b811461147057600080fd5b50565b6000813590506114828161145c565b92915050565b600080600080608085870312156114a2576114a16112e2565b5b60006114b08782880161143d565b94505060206114c187828801611308565b93505060406114d287828801611473565b92505060606114e387828801611473565b91505092959194509250565b60008115159050919050565b611504816114ef565b82525050565b600060208201905061151f60008301846114fb565b92915050565b6000806040838503121561153c5761153b6112e2565b5b600061154a8582860161143d565b925050602061155b85828601611308565b9150509250929050565b61156e81611452565b82525050565b61157d816112e7565b82525050565b60006060820190506115986000830186611565565b6115a56020830185611565565b6115b26040830184611574565b949350505050565b60006115c58261138c565b9050919050565b6115d5816115ba565b81146115e057600080fd5b50565b6000813590506115f2816115cc565b92915050565b6000806040838503121561160f5761160e6112e2565b5b600061161d858286016115e3565b925050602061162e858286016115e3565b9150509250929050565b600080600060608486031215611651576116506112e2565b5b600061165f8682870161143d565b935050602061167086828701611308565b925050604061168186828701611473565b9150509250925092565b600080604083850312156116a2576116a16112e2565b5b60006116b08582860161143d565b92505060206116c185828601611473565b9150509250929050565b600081519050919050565b600082825260208201905092915050565b6000819050602082019050919050565b611700816112e7565b82525050565b600061171283836116f7565b60208301905092915050565b6000602082019050919050565b6000611736826116cb565b61174081856116d6565b935061174b836116e7565b8060005b8381101561177c5781516117638882611706565b975061176e8361171e565b92505060018101905061174f565b5085935050505092915050565b600060208201905081810360008301526117a3818461172b565b905092915050565b60008160601b9050919050565b60006117c3826117ab565b9050919050565b60006117d5826117b8565b9050919050565b6117ed6117e8826115ba565b6117ca565b82525050565b60006117ff82846117dc565b60148201915081905092915050565b600082825260208201905092915050565b7f41646d696e2066756e6374696f6e000000000000000000000000000000000000600082015250565b6000611855600e8361180e565b91506118608261181f565b602082019050919050565b6000602082019050818103600083015261188481611848565b9050919050565b7f4b65792061726720697320656d70747900000000000000000000000000000000600082015250565b60006118c160108361180e565b91506118cc8261188b565b602082019050919050565b600060208201905081810360008301526118f0816118b4565b9050919050565b7f4b657920697320616c726561647920617474616368656420746f20746865206960008201527f64656e7469747900000000000000000000000000000000000000000000000000602082015250565b600061195360278361180e565b915061195e826118f7565b604082019050919050565b6000602082019050818103600083015261198281611946565b9050919050565b600060408201905061199e6000830185611565565b6119ab6020830184611565565b9392505050565b7f4b65792069736e277420617474616368656420746f20746865206964656e746960008201527f7479000000000000000000000000000000000000000000000000000000000000602082015250565b6000611a0e60228361180e565b9150611a19826119b2565b604082019050919050565b60006020820190508181036000830152611a3d81611a01565b9050919050565b7f43616e6e6f742064656c65746520746865206f6e6c792061646d696e206b6579600082015250565b6000611a7a60208361180e565b9150611a8582611a44565b602082019050919050565b60006020820190508181036000830152611aa981611a6d565b9050919050565b7f43616e6e6f742064656c65746520746865206f6e6c79206f7065726174696f6e60008201527f616c206b65790000000000000000000000000000000000000000000000000000602082015250565b6000611b0c60268361180e565b9150611b1782611ab0565b604082019050919050565b60006020820190508181036000830152611b3b81611aff565b9050919050565b7f50726f66696c6553746f72616765000000000000000000000000000000000000600082015250565b6000611b78600e8361180e565b9150611b8382611b42565b602082019050919050565b60006020820190508181036000830152611ba781611b6b565b9050919050565b600081519050611bbd816115cc565b92915050565b600060208284031215611bd957611bd86112e2565b5b6000611be784828501611bae565b91505092915050565b7f46756e6374696f6e2063616e206f6e6c792062652063616c6c6564206279205060008201527f726f66696c6553746f7261676520636f6e747261637400000000000000000000602082015250565b6000611c4c60368361180e565b9150611c5782611bf0565b604082019050919050565b60006020820190508181036000830152611c7b81611c3f565b9050919050565b7f4f7065726174696f6e616c2077616c6c657420616464726573732063616e277460008201527f20626520656d7074790000000000000000000000000000000000000000000000602082015250565b6000611cde60298361180e565b9150611ce982611c82565b604082019050919050565b60006020820190508181036000830152611d0d81611cd1565b9050919050565b7f41646d696e2077616c6c657420616464726573732063616e277420626520656d60008201527f7074790000000000000000000000000000000000000000000000000000000000602082015250565b6000611d7060238361180e565b9150611d7b82611d14565b604082019050919050565b60006020820190508181036000830152611d9f81611d63565b9050919050565b7f53616d65206164647265737320666f722041444d494e2f4f5045524154494f4e60008201527f414c20707572706f736573000000000000000000000000000000000000000000602082015250565b6000611e02602b8361180e565b9150611e0d82611da6565b604082019050919050565b60006020820190508181036000830152611e3181611df5565b9050919050565b7f4e487b7100000000000000000000000000000000000000000000000000000000600052601160045260246000fd5b6000611e728261134a565b91506bffffffffffffffffffffffff8203611e9057611e8f611e38565b5b600182019050919050565b7f4e487b7100000000000000000000000000000000000000000000000000000000600052603260045260246000fd5b6000611ed582611452565b91507fffffffffffffffffffffffffffffffffffffffffffffffffffffffffffffffff8203611f0757611f06611e38565b5b600182019050919050565b6000611f1d82611452565b9150611f2883611452565b925082821015611f3b57611f3a611e38565b5b828203905092915050565b7f4e487b7100000000000000000000000000000000000000000000000000000000600052603160045260246000fdfea264697066735822122005f44fbf5eaf6a780d5cc89a63361fa1c5c07055279cb8f686680c58ccc1266464736f6c634300080e0033",
  "immutableReferences": {},
  "source": "// SPDX-License-Identifier: MIT\n\npragma solidity ^0.8.0;\n\nimport { ByteArr } from \"../utils/ByteArr.sol\";\nimport { Hub } from \"../Hub.sol\";\nimport { IERC734Extended } from \"../interface/IERC734Extended.sol\";\n\ncontract IdentityStorage is IERC734Extended {\n    using ByteArr for bytes;\n    using ByteArr for bytes32[];\n    using ByteArr for uint256[];\n\n    uint256 constant ADMIN_KEY = 1;\n    uint256 constant OPERATIONAL_KEY = 2;\n\n    Hub public hub;\n\n    uint96 private _identityId;\n\n    struct Identity {\n        uint96 identityId;\n        mapping (bytes32 => Key) keys;\n        mapping (uint256 => bytes32[]) keysByPurpose;\n    }\n\n    // operationalKey => identityId\n    mapping(bytes32 => uint96) public identityIds;\n    // identityId => Identity\n    mapping(uint96 => Identity) identities;\n\n    constructor(address hubAddress) {\n        require(hubAddress != address(0));\n        hub = Hub(hubAddress);\n\n        _identityId = 1;\n    }\n\n    modifier onlyProfileStorage() {\n        require(\n            msg.sender == hub.getContractAddress(\"ProfileStorage\"),\n            \"Function can only be called by ProfileStorage contract\"\n        );\n        _;\n    }\n\n    function createIdentity(address operational, address admin) public onlyProfileStorage returns (uint96) {\n        require(operational != address(0), \"Operational wallet address can't be empty\");\n        require(admin != address(0), \"Admin wallet address can't be empty\");\n        require(operational != admin, \"Same address for ADMIN/OPERATIONAL purposes\");\n\n        bytes32 _admin_key = keccak256(abi.encodePacked(admin));\n\n        uint96 identityId = _identityId;\n        Identity storage identity = identities[identityId];\n        _identityId++;\n        \n        identity.keys[_admin_key].purpose = ADMIN_KEY;\n        identity.keys[_admin_key].keyType = 1;  // ECDSA\n        identity.keys[_admin_key].key = _admin_key;\n        identity.keysByPurpose[ADMIN_KEY].push(_admin_key);\n\n        emit KeyAdded(identityId, _admin_key, identity.keys[_admin_key].purpose, identity.keys[_admin_key].keyType);\n\n        bytes32 _operational_key = keccak256(abi.encodePacked(operational));\n\n        identityIds[_operational_key] = identityId;\n\n        identity.keys[_operational_key].purpose = OPERATIONAL_KEY;\n        identity.keys[_operational_key].keyType = 1;  // ECDSA\n        identity.keys[_operational_key].key = _operational_key;\n        identity.keysByPurpose[OPERATIONAL_KEY].push(_operational_key);\n\n        emit KeyAdded(\n            identityId,\n            _operational_key,\n            identity.keys[_operational_key].purpose,\n            identity.keys[_operational_key].keyType\n        );\n\n        emit IdentityCreated(identityId, _operational_key, _admin_key);\n\n        return identityId;\n    }\n\n    function getIdentityId() public view returns (uint96) {\n        return identityIds[keccak256(abi.encodePacked(msg.sender))];\n    }\n\n    function getKey(uint96 identityId, bytes32 _key) public view override returns (uint256, uint256, bytes32) {\n        return (\n            identities[identityId].keys[_key].purpose,\n            identities[identityId].keys[_key].keyType,\n            identities[identityId].keys[_key].key\n        );\n    }\n\n    function keyHasPurpose(uint96 identityId, bytes32 _key, uint256 _purpose) public view override returns (bool) {\n        return identities[identityId].keys[_key].purpose == _purpose;\n    }\n\n    function getKeysByPurpose(uint96 identityId, uint256 _purpose) public view override returns (bytes32[] memory) {\n        return identities[identityId].keysByPurpose[_purpose];\n    }\n\n    function addKey(uint96 identityId, bytes32 _key, uint256 _purpose, uint256 _type) public override returns (bool) {\n        require(keyHasPurpose(identityId, keccak256(abi.encodePacked(msg.sender)), ADMIN_KEY), \"Admin function\");\n        require(_key != bytes32(0), \"Key arg is empty\");\n        require(identities[identityId].keys[_key].key != _key, \"Key is already attached to the identity\");\n\n        identities[identityId].keys[_key].purpose = _purpose;\n        identities[identityId].keys[_key].keyType = _type;\n        identities[identityId].keys[_key].key = _key;\n        identities[identityId].keysByPurpose[_purpose].push(_key);\n\n        if (_purpose == OPERATIONAL_KEY) {\n            identityIds[_key] = identityId;\n        }\n\n        emit KeyAdded(identityId, _key, _purpose, _type);\n\n        return true;\n    }\n\n    function removeKey(uint96 identityId, bytes32 _key) public override returns (bool) {\n        require(keyHasPurpose(identityId, keccak256(abi.encodePacked(msg.sender)), ADMIN_KEY), \"Admin function\");\n        require(_key != bytes32(0), \"Key arg is empty\");\n\n        Identity storage identity = identities[identityId];\n        require(identity.keys[_key].key == _key, \"Key isn't attached to the identity\");\n\n        require(\n            !(identity.keysByPurpose[ADMIN_KEY].length == 1 && keyHasPurpose(identityId, _key, ADMIN_KEY)),\n            \"Cannot delete the only admin key\"\n        );\n        require(\n            !(identity.keysByPurpose[OPERATIONAL_KEY].length == 1 && keyHasPurpose(identityId, _key, OPERATIONAL_KEY)),\n            \"Cannot delete the only operational key\"\n        );\n\n        emit KeyRemoved(identityId, identity.keys[_key].key, identity.keys[_key].purpose, identity.keys[_key].keyType);\n\n        uint256 index;\n        bool success;\n        (index, success) = identity.keysByPurpose[identity.keys[_key].purpose].indexOf(_key);\n        identity.keysByPurpose[identity.keys[_key].purpose].removeByIndex(index);\n\n        delete identity.keys[_key];\n\n        if (identity.keys[_key].purpose == OPERATIONAL_KEY) {\n            delete identityIds[_key];\n        }\n\n        return true;\n    }\n}\n",
  "sourcePath": "/Users/waving/Desktop/OriginTrail/dkg-evm-module/contracts/storage/IdentityStorage.sol",
  "compiler": {
    "name": "solc",
    "version": "0.8.14+commit.80d49f37.Emscripten.clang"
  },
  "schemaVersion": "3.4.10",
  "updatedAt": "2022-11-17T08:04:06.533Z",
  "devdoc": {
    "kind": "dev",
    "methods": {},
    "version": 1
  },
  "userdoc": {
    "kind": "user",
    "methods": {},
    "version": 1
  }
}