{
  "contractName": "IdentityStorage",
  "abi": [
    {
      "inputs": [
        {
          "internalType": "address",
          "name": "hubAddress",
          "type": "address"
        }
      ],
      "stateMutability": "nonpayable",
      "type": "constructor"
    },
    {
      "anonymous": false,
      "inputs": [
        {
          "indexed": true,
          "internalType": "uint72",
          "name": "identityId",
          "type": "uint72"
        },
        {
          "indexed": true,
          "internalType": "bytes32",
          "name": "key",
          "type": "bytes32"
        },
        {
          "indexed": false,
          "internalType": "uint256",
          "name": "purpose",
          "type": "uint256"
        },
        {
          "indexed": false,
          "internalType": "uint256",
          "name": "keyType",
          "type": "uint256"
        }
      ],
      "name": "KeyAdded",
      "type": "event"
    },
    {
      "anonymous": false,
      "inputs": [
        {
          "indexed": true,
          "internalType": "uint72",
          "name": "identityId",
          "type": "uint72"
        },
        {
          "indexed": true,
          "internalType": "bytes32",
          "name": "key",
          "type": "bytes32"
        },
        {
          "indexed": false,
          "internalType": "uint256",
          "name": "purpose",
          "type": "uint256"
        },
        {
          "indexed": false,
          "internalType": "uint256",
          "name": "keyType",
          "type": "uint256"
        }
      ],
      "name": "KeyRemoved",
      "type": "event"
    },
    {
      "inputs": [],
      "name": "hub",
      "outputs": [
        {
          "internalType": "contract Hub",
          "name": "",
          "type": "address"
        }
      ],
      "stateMutability": "view",
      "type": "function"
    },
    {
      "inputs": [
        {
          "internalType": "bytes32",
          "name": "",
          "type": "bytes32"
        }
      ],
      "name": "identityIds",
      "outputs": [
        {
          "internalType": "uint72",
          "name": "",
          "type": "uint72"
        }
      ],
      "stateMutability": "view",
      "type": "function"
    },
    {
      "inputs": [
        {
          "internalType": "uint72",
          "name": "identityId",
          "type": "uint72"
        }
      ],
      "name": "deleteIdentity",
      "outputs": [],
      "stateMutability": "nonpayable",
      "type": "function"
    },
    {
      "inputs": [
        {
          "internalType": "uint72",
          "name": "identityId",
          "type": "uint72"
        },
        {
          "internalType": "bytes32",
          "name": "_key",
          "type": "bytes32"
        },
        {
          "internalType": "uint256",
          "name": "_purpose",
          "type": "uint256"
        },
        {
          "internalType": "uint256",
          "name": "_type",
          "type": "uint256"
        }
      ],
      "name": "addKey",
      "outputs": [],
      "stateMutability": "nonpayable",
      "type": "function"
    },
    {
      "inputs": [
        {
          "internalType": "uint72",
          "name": "identityId",
          "type": "uint72"
        },
        {
          "internalType": "bytes32",
          "name": "_key",
          "type": "bytes32"
        }
      ],
      "name": "removeKey",
      "outputs": [],
      "stateMutability": "nonpayable",
      "type": "function"
    },
    {
      "inputs": [
        {
          "internalType": "uint72",
          "name": "identityId",
          "type": "uint72"
        },
        {
          "internalType": "bytes32",
          "name": "_key",
          "type": "bytes32"
        },
        {
          "internalType": "uint256",
          "name": "_purpose",
          "type": "uint256"
        }
      ],
      "name": "keyHasPurpose",
      "outputs": [
        {
          "internalType": "bool",
          "name": "",
          "type": "bool"
        }
      ],
      "stateMutability": "view",
      "type": "function"
    },
    {
      "inputs": [
        {
          "internalType": "uint72",
          "name": "identityId",
          "type": "uint72"
        },
        {
          "internalType": "bytes32",
          "name": "_key",
          "type": "bytes32"
        }
      ],
      "name": "getKey",
      "outputs": [
        {
          "internalType": "uint256",
          "name": "",
          "type": "uint256"
        },
        {
          "internalType": "uint256",
          "name": "",
          "type": "uint256"
        },
        {
          "internalType": "bytes32",
          "name": "",
          "type": "bytes32"
        }
      ],
      "stateMutability": "view",
      "type": "function"
    },
    {
      "inputs": [
        {
          "internalType": "uint72",
          "name": "identityId",
          "type": "uint72"
        },
        {
          "internalType": "uint256",
          "name": "_purpose",
          "type": "uint256"
        }
      ],
      "name": "getKeysByPurpose",
      "outputs": [
        {
          "internalType": "bytes32[]",
          "name": "",
          "type": "bytes32[]"
        }
      ],
      "stateMutability": "view",
      "type": "function"
    },
    {
      "inputs": [
        {
          "internalType": "address",
          "name": "operational",
          "type": "address"
        }
      ],
      "name": "getIdentityId",
      "outputs": [
        {
          "internalType": "uint72",
          "name": "",
          "type": "uint72"
        }
      ],
      "stateMutability": "view",
      "type": "function"
    },
    {
      "inputs": [
        {
          "internalType": "bytes32",
          "name": "operationalKey",
          "type": "bytes32"
        },
        {
          "internalType": "uint72",
          "name": "identityId",
          "type": "uint72"
        }
      ],
      "name": "setOperationalKeyIdentityId",
      "outputs": [],
      "stateMutability": "nonpayable",
      "type": "function"
    },
    {
      "inputs": [
        {
          "internalType": "bytes32",
          "name": "operationalKey",
          "type": "bytes32"
        }
      ],
      "name": "removeOperationalKeyIdentityId",
      "outputs": [],
      "stateMutability": "nonpayable",
      "type": "function"
    },
    {
      "inputs": [],
      "name": "generateIdentityId",
      "outputs": [
        {
          "internalType": "uint72",
          "name": "",
          "type": "uint72"
        }
      ],
      "stateMutability": "nonpayable",
      "type": "function"
    }
  ],
  "bytecode": "0x608060405234801561001057600080fd5b50604051610bed380380610bed83398101604081905261002f9161006c565b6001600160a01b03811661004257600080fd5b600080546001600160e81b0319166001600160a01b0390921691909117600160a01b17905561009c565b60006020828403121561007e57600080fd5b81516001600160a01b038116811461009557600080fd5b9392505050565b610b42806100ab6000396000f3fe608060405234801561001057600080fd5b50600436106100d45760003560e01c806368b229fa11610081578063bee3b94e1161005b578063bee3b94e146102e8578063dc06a39d146102fb578063fcbe6b141461030e57600080fd5b806368b229fa146101f9578063707498ca1461025d578063867a46801461027057600080fd5b80633be15400116100b25780633be15400146101b15780634719c3de146101c657806367ac664f146101e657600080fd5b80631fc2b3ab146100d957806335e4fb7a14610123578063365a86fc1461016c575b600080fd5b6101046100e7366004610851565b60016020526000908152604090205468ffffffffffffffffff1681565b60405168ffffffffffffffffff90911681526020015b60405180910390f35b61015c610131366004610888565b68ffffffffffffffffff92909216600090815260026020908152604080832093835292905220541490565b604051901515815260200161011a565b60005461018c9073ffffffffffffffffffffffffffffffffffffffff1681565b60405173ffffffffffffffffffffffffffffffffffffffff909116815260200161011a565b6101c46101bf366004610851565b610316565b005b6101d96101d43660046108bb565b610354565b60405161011a91906108e5565b6101c46101f43660046108bb565b6103ce565b6102426102073660046108bb565b68ffffffffffffffffff9190911660009081526002602081815260408084209484529390529190208054600182015491909201549192909190565b6040805193845260208401929092529082015260600161011a565b6101c461026b366004610929565b6104a7565b61010461027e366004610955565b6040805160609290921b7fffffffffffffffffffffffffffffffffffffffff0000000000000000000000001660208084019190915281516014818503018152603490930182528251928101929092206000908152600190925290205468ffffffffffffffffff1690565b6101c46102f6366004610992565b6104f7565b6101c46103093660046109cb565b610596565b6101046105b3565b61031e61061d565b600090815260016020526040902080547fffffffffffffffffffffffffffffffffffffffffffffff000000000000000000169055565b68ffffffffffffffffff821660009081526002602090815260408083208484526001018252918290208054835181840281018401909452808452606093928301828280156103c157602002820191906000526020600020905b8154815260200190600101908083116103ad575b5050505050905092915050565b6103d661061d565b68ffffffffffffffffff82166000908152600260209081526040808320848452808352818420548452600181019092528220909190610415908461071b565b5060008481526020848152604080832054835260018601909152902090915061043e908261077a565b5060008381526020838152604080832083815560018101849055600201839055805183815291820183905268ffffffffffffffffff8716917fdd68ded2d8d9c661206e0e22f9d41397a921724bfc768864e3d32b21a9557ba9910160405180910390a350505050565b6104af61061d565b60009182526001602052604090912080547fffffffffffffffffffffffffffffffffffffffffffffff0000000000000000001668ffffffffffffffffff909216919091179055565b6104ff61061d565b68ffffffffffffffffff841660008181526002602081815260408084208885528083528185208881556001808201899055940189905587855283810183528185208054948501815585529382902090920187905581518681529081018590529192869290917f29ba4d095336046dcffc9e75d3d46d22e7b304e050464d5a198f183f9c4b21d8910160405180910390a35050505050565b61059e61061d565b68ffffffffffffffffff166000526002602052565b60006105bd61061d565b6000805474010000000000000000000000000000000000000000900468ffffffffffffffffff169060146105f083610a15565b91906101000a81548168ffffffffffffffffff021916908368ffffffffffffffffff160217905550905090565b6000546040517f1627905500000000000000000000000000000000000000000000000000000000815233600482015273ffffffffffffffffffffffffffffffffffffffff90911690631627905590602401602060405180830381865afa15801561068b573d6000803e3d6000fd5b505050506040513d601f19601f820116820180604052508101906106af9190610a3d565b610719576040517f08c379a000000000000000000000000000000000000000000000000000000000815260206004820181905260248201527f466e2063616e206f6e6c792062652063616c6c65642062792074686520687562604482015260640160405180910390fd5b565b60008060005b845481101561076a578385828154811061073d5761073d610a5f565b90600052602060002001540361075857915060019050610773565b8061076281610a8e565b915050610721565b50600080915091505b9250929050565b8154606090821061078a57600080fd5b8254839061079a90600190610ac6565b815481106107aa576107aa610a5f565b90600052602060002001548383815481106107c7576107c7610a5f565b9060005260206000200181905550828054806107e5576107e5610add565b60019003818190600052602060002001600090559055828054806020026020016040519081016040528092919081815260200182805480156103c157602002820191906000526020600020908154815260200190600101908083116103ad575050505050905092915050565b60006020828403121561086357600080fd5b5035919050565b803568ffffffffffffffffff8116811461088357600080fd5b919050565b60008060006060848603121561089d57600080fd5b6108a68461086a565b95602085013595506040909401359392505050565b600080604083850312156108ce57600080fd5b6108d78361086a565b946020939093013593505050565b6020808252825182820181905260009190848201906040850190845b8181101561091d57835183529284019291840191600101610901565b50909695505050505050565b6000806040838503121561093c57600080fd5b8235915061094c6020840161086a565b90509250929050565b60006020828403121561096757600080fd5b813573ffffffffffffffffffffffffffffffffffffffff8116811461098b57600080fd5b9392505050565b600080600080608085870312156109a857600080fd5b6109b18561086a565b966020860135965060408601359560600135945092505050565b6000602082840312156109dd57600080fd5b61098b8261086a565b7f4e487b7100000000000000000000000000000000000000000000000000000000600052601160045260246000fd5b600068ffffffffffffffffff808316818103610a3357610a336109e6565b6001019392505050565b600060208284031215610a4f57600080fd5b8151801515811461098b57600080fd5b7f4e487b7100000000000000000000000000000000000000000000000000000000600052603260045260246000fd5b60007fffffffffffffffffffffffffffffffffffffffffffffffffffffffffffffffff8203610abf57610abf6109e6565b5060010190565b600082821015610ad857610ad86109e6565b500390565b7f4e487b7100000000000000000000000000000000000000000000000000000000600052603160045260246000fdfea26469706673582212208bf690f679a1a73d14bd0c0156274726399e71b082a7a3b2658904c8db43f9ae64736f6c634300080e0033",
  "immutableReferences": {},
  "source": "// SPDX-License-Identifier: MIT\n\npragma solidity ^0.8.0;\n\nimport { Hub } from \"../Hub.sol\";\nimport { IERC734Extended } from \"../interface/IERC734Extended.sol\";\nimport { ByteArr } from \"../utils/ByteArr.sol\";\n\ncontract IdentityStorage is IERC734Extended {\n\n    using ByteArr for bytes32[];\n\n    Hub public hub;\n\n    uint72 private _identityId;\n\n    struct Identity {\n        mapping (bytes32 => Key) keys;\n        mapping (uint256 => bytes32[]) keysByPurpose;\n    }\n\n    // operationalKey => identityId\n    mapping(bytes32 => uint72) public identityIds;\n    // identityId => Identity\n    mapping(uint72 => Identity) identities;\n\n    constructor(address hubAddress) {\n        require(hubAddress != address(0));\n\n        hub = Hub(hubAddress);\n\n        _identityId = 1;\n    }\n\n    modifier onlyContracts() {\n        _checkHub();\n        _;\n    }\n\n    function deleteIdentity(uint72 identityId) external onlyContracts {\n        delete identities[identityId];\n    }\n\n    function addKey(uint72 identityId, bytes32 _key, uint256 _purpose, uint256 _type) external override onlyContracts {\n        Identity storage identity = identities[identityId];\n        identity.keys[_key].purpose = _purpose;\n        identity.keys[_key].keyType = _type;\n        identity.keys[_key].key = _key;\n        identity.keysByPurpose[_purpose].push(_key);\n\n        emit KeyAdded(identityId, _key, _purpose, _type);\n    }\n\n    function removeKey(uint72 identityId, bytes32 _key) external override onlyContracts {\n        Identity storage identity = identities[identityId];\n\n        uint256 index;\n        (index, ) = identity.keysByPurpose[identity.keys[_key].purpose].indexOf(_key);\n        identity.keysByPurpose[identity.keys[_key].purpose].removeByIndex(index);\n\n        delete identity.keys[_key];\n\n        emit KeyRemoved(identityId, identity.keys[_key].key, identity.keys[_key].purpose, identity.keys[_key].keyType);\n    }\n\n    function keyHasPurpose(uint72 identityId, bytes32 _key, uint256 _purpose) external view override returns (bool) {\n        return identities[identityId].keys[_key].purpose == _purpose;\n    }\n\n    function getKey(uint72 identityId, bytes32 _key) external view override returns (uint256, uint256, bytes32) {\n        return (\n            identities[identityId].keys[_key].purpose,\n            identities[identityId].keys[_key].keyType,\n            identities[identityId].keys[_key].key\n        );\n    }\n\n    function getKeysByPurpose(uint72 identityId, uint256 _purpose) external view override returns (bytes32[] memory) {\n        return identities[identityId].keysByPurpose[_purpose];\n    }\n\n    function getIdentityId(address operational) external view returns (uint72) {\n        return identityIds[keccak256(abi.encodePacked(operational))];\n    }\n\n    function setOperationalKeyIdentityId(bytes32 operationalKey, uint72 identityId) external onlyContracts {\n        identityIds[operationalKey] = identityId;\n    }\n\n    function removeOperationalKeyIdentityId(bytes32 operationalKey) external onlyContracts {\n        delete identityIds[operationalKey];\n    }\n\n    function generateIdentityId() external onlyContracts returns (uint72) {\n        return _identityId++;\n    }\n\n    function _checkHub() internal view virtual {\n        require(hub.isContract(msg.sender), \"Fn can only be called by the hub\");\n    }\n\n}\n",
  "sourcePath": "/Users/max/IdeaProjects/dkg-evm-module/contracts/storage/IdentityStorage.sol",
  "compiler": {
    "name": "solc",
    "version": "0.8.14+commit.80d49f37.Emscripten.clang"
  },
  "schemaVersion": "3.4.10",
  "updatedAt": "2022-12-02T15:01:56.632Z",
  "devdoc": {
    "kind": "dev",
    "methods": {},
    "version": 1
  },
  "userdoc": {
    "kind": "user",
    "methods": {},
    "version": 1
  }
}