{
  "contractName": "IdentityStorage",
  "abi": [
    {
      "inputs": [
        {
          "internalType": "address",
          "name": "hubAddress",
          "type": "address"
        }
      ],
      "stateMutability": "nonpayable",
      "type": "constructor"
    },
    {
      "anonymous": false,
      "inputs": [
        {
          "indexed": true,
          "internalType": "uint96",
          "name": "identityId",
          "type": "uint96"
        },
        {
          "indexed": true,
          "internalType": "bytes32",
          "name": "operationalKey",
          "type": "bytes32"
        },
        {
          "indexed": true,
          "internalType": "bytes32",
          "name": "adminKey",
          "type": "bytes32"
        }
      ],
      "name": "IdentityCreated",
      "type": "event"
    },
    {
      "anonymous": false,
      "inputs": [
        {
          "indexed": true,
          "internalType": "uint96",
          "name": "identityId",
          "type": "uint96"
        },
        {
          "indexed": true,
          "internalType": "bytes32",
          "name": "key",
          "type": "bytes32"
        },
        {
          "indexed": false,
          "internalType": "uint256",
          "name": "purpose",
          "type": "uint256"
        },
        {
          "indexed": false,
          "internalType": "uint256",
          "name": "keyType",
          "type": "uint256"
        }
      ],
      "name": "KeyAdded",
      "type": "event"
    },
    {
      "anonymous": false,
      "inputs": [
        {
          "indexed": true,
          "internalType": "uint96",
          "name": "identityId",
          "type": "uint96"
        },
        {
          "indexed": true,
          "internalType": "bytes32",
          "name": "key",
          "type": "bytes32"
        },
        {
          "indexed": false,
          "internalType": "uint256",
          "name": "purpose",
          "type": "uint256"
        },
        {
          "indexed": false,
          "internalType": "uint256",
          "name": "keyType",
          "type": "uint256"
        }
      ],
      "name": "KeyRemoved",
      "type": "event"
    },
    {
      "inputs": [],
      "name": "hub",
      "outputs": [
        {
          "internalType": "contract Hub",
          "name": "",
          "type": "address"
        }
      ],
      "stateMutability": "view",
      "type": "function"
    },
    {
      "inputs": [
        {
          "internalType": "bytes32",
          "name": "",
          "type": "bytes32"
        }
      ],
      "name": "identityIds",
      "outputs": [
        {
          "internalType": "uint96",
          "name": "",
          "type": "uint96"
        }
      ],
      "stateMutability": "view",
      "type": "function"
    },
    {
      "inputs": [
        {
          "internalType": "address",
          "name": "operational",
          "type": "address"
        },
        {
          "internalType": "address",
          "name": "admin",
          "type": "address"
        }
      ],
      "name": "createIdentity",
      "outputs": [
        {
          "internalType": "uint96",
          "name": "",
          "type": "uint96"
        }
      ],
      "stateMutability": "nonpayable",
      "type": "function"
    },
    {
      "inputs": [
        {
          "internalType": "address",
          "name": "operational",
          "type": "address"
        }
      ],
      "name": "getIdentityId",
      "outputs": [
        {
          "internalType": "uint96",
          "name": "",
          "type": "uint96"
        }
      ],
      "stateMutability": "view",
      "type": "function"
    },
    {
      "inputs": [
        {
          "internalType": "uint96",
          "name": "identityId",
          "type": "uint96"
        },
        {
          "internalType": "bytes32",
          "name": "_key",
          "type": "bytes32"
        }
      ],
      "name": "getKey",
      "outputs": [
        {
          "internalType": "uint256",
          "name": "",
          "type": "uint256"
        },
        {
          "internalType": "uint256",
          "name": "",
          "type": "uint256"
        },
        {
          "internalType": "bytes32",
          "name": "",
          "type": "bytes32"
        }
      ],
      "stateMutability": "view",
      "type": "function"
    },
    {
      "inputs": [
        {
          "internalType": "uint96",
          "name": "identityId",
          "type": "uint96"
        },
        {
          "internalType": "bytes32",
          "name": "_key",
          "type": "bytes32"
        },
        {
          "internalType": "uint256",
          "name": "_purpose",
          "type": "uint256"
        }
      ],
      "name": "keyHasPurpose",
      "outputs": [
        {
          "internalType": "bool",
          "name": "",
          "type": "bool"
        }
      ],
      "stateMutability": "view",
      "type": "function"
    },
    {
      "inputs": [
        {
          "internalType": "uint96",
          "name": "identityId",
          "type": "uint96"
        },
        {
          "internalType": "uint256",
          "name": "_purpose",
          "type": "uint256"
        }
      ],
      "name": "getKeysByPurpose",
      "outputs": [
        {
          "internalType": "bytes32[]",
          "name": "",
          "type": "bytes32[]"
        }
      ],
      "stateMutability": "view",
      "type": "function"
    },
    {
      "inputs": [
        {
          "internalType": "uint96",
          "name": "identityId",
          "type": "uint96"
        },
        {
          "internalType": "bytes32",
          "name": "_key",
          "type": "bytes32"
        },
        {
          "internalType": "uint256",
          "name": "_purpose",
          "type": "uint256"
        },
        {
          "internalType": "uint256",
          "name": "_type",
          "type": "uint256"
        }
      ],
      "name": "addKey",
      "outputs": [],
      "stateMutability": "nonpayable",
      "type": "function"
    },
    {
      "inputs": [
        {
          "internalType": "uint96",
          "name": "identityId",
          "type": "uint96"
        },
        {
          "internalType": "bytes32",
          "name": "_key",
          "type": "bytes32"
        }
      ],
      "name": "removeKey",
      "outputs": [],
      "stateMutability": "nonpayable",
      "type": "function"
    }
  ],
  "bytecode": "0x60806040523480156200001157600080fd5b506040516200214a3803806200214a833981810160405281019062000037919062000154565b600073ffffffffffffffffffffffffffffffffffffffff168173ffffffffffffffffffffffffffffffffffffffff16036200007157600080fd5b806000806101000a81548173ffffffffffffffffffffffffffffffffffffffff021916908373ffffffffffffffffffffffffffffffffffffffff1602179055506001600060146101000a8154816bffffffffffffffffffffffff02191690836bffffffffffffffffffffffff1602179055505062000186565b600080fd5b600073ffffffffffffffffffffffffffffffffffffffff82169050919050565b60006200011c82620000ef565b9050919050565b6200012e816200010f565b81146200013a57600080fd5b50565b6000815190506200014e8162000123565b92915050565b6000602082840312156200016d576200016c620000ea565b5b60006200017d848285016200013d565b91505092915050565b611fb480620001966000396000f3fe608060405234801561001057600080fd5b50600436106100935760003560e01c8063867a468011610066578063867a46801461011e578063c01e51381461014e578063d10e73ab14610180578063d55bbcac146101b0578063e8b98464146101e057610093565b80631fc2b3ab14610098578063365a86fc146100c85780636787bf24146100e65780637b451d3714610102575b600080fd5b6100b260048036038101906100ad91906112f9565b610210565b6040516100bf919061134d565b60405180910390f35b6100d061023b565b6040516100dd91906113e7565b60405180910390f35b61010060048036038101906100fb9190611464565b61025f565b005b61011c600480360381019061011791906114cb565b610582565b005b61013860048036038101906101339190611549565b610948565b604051610145919061134d565b60405180910390f35b610168600480360381019061016391906114cb565b6109a3565b60405161017793929190611594565b60405180910390f35b61019a600480360381019061019591906115cb565b610a8a565b6040516101a7919061134d565b60405180910390f35b6101ca60048036038101906101c5919061160b565b611088565b6040516101d79190611679565b60405180910390f35b6101fa60048036038101906101f59190611694565b6110dc565b6040516102079190611792565b60405180910390f35b60016020528060005260406000206000915054906101000a90046bffffffffffffffffffffffff1681565b60008054906101000a900473ffffffffffffffffffffffffffffffffffffffff1681565b610291843360405160200161027491906117fc565b604051602081830303815290604052805190602001206001611088565b6102d0576040517f08c379a00000000000000000000000000000000000000000000000000000000081526004016102c790611874565b60405180910390fd5b6000801b8303610315576040517f08c379a000000000000000000000000000000000000000000000000000000000815260040161030c906118e0565b60405180910390fd5b8260026000866bffffffffffffffffffffffff166bffffffffffffffffffffffff1681526020019081526020016000206001016000858152602001908152602001600020600201540361039d576040517f08c379a000000000000000000000000000000000000000000000000000000000815260040161039490611972565b60405180910390fd5b8160026000866bffffffffffffffffffffffff166bffffffffffffffffffffffff1681526020019081526020016000206001016000858152602001908152602001600020600001819055508060026000866bffffffffffffffffffffffff166bffffffffffffffffffffffff1681526020019081526020016000206001016000858152602001908152602001600020600101819055508260026000866bffffffffffffffffffffffff166bffffffffffffffffffffffff16815260200190815260200160002060010160008581526020019081526020016000206002018190555060026000856bffffffffffffffffffffffff166bffffffffffffffffffffffff16815260200190815260200160002060020160008381526020019081526020016000208390806001815401808255809150506001900390600052602060002001600090919091909150556002820361053357836001600085815260200190815260200160002060006101000a8154816bffffffffffffffffffffffff02191690836bffffffffffffffffffffffff1602179055505b82846bffffffffffffffffffffffff167fddb3379e7a64dd6a3168dd79f0aefb02aa90026561607038bfb00e4c1942b52f8484604051610574929190611992565b60405180910390a350505050565b6105b4823360405160200161059791906117fc565b604051602081830303815290604052805190602001206001611088565b6105f3576040517f08c379a00000000000000000000000000000000000000000000000000000000081526004016105ea90611874565b60405180910390fd5b6000801b8103610638576040517f08c379a000000000000000000000000000000000000000000000000000000000815260040161062f906118e0565b60405180910390fd5b600060026000846bffffffffffffffffffffffff166bffffffffffffffffffffffff16815260200190815260200160002090508181600101600084815260200190815260200160002060020154146106c5576040517f08c379a00000000000000000000000000000000000000000000000000000000081526004016106bc90611a2d565b60405180910390fd5b600181600201600060018152602001908152602001600020805490501480156106f657506106f583836001611088565b5b15610736576040517f08c379a000000000000000000000000000000000000000000000000000000000815260040161072d90611a99565b60405180910390fd5b60018160020160006002815260200190815260200160002080549050148015610767575061076683836002611088565b5b156107a7576040517f08c379a000000000000000000000000000000000000000000000000000000000815260040161079e90611b2b565b60405180910390fd5b80600101600083815260200190815260200160002060020154836bffffffffffffffffffffffff167f0641c9782718a45df6ce449d0f27b47c35cf945084dd989350a7e5a9475847638360010160008681526020019081526020016000206000015484600101600087815260200190815260200160002060010154604051610830929190611992565b60405180910390a360008061087a8484600201600086600101600089815260200190815260200160002060000154815260200190815260200160002061117890919063ffffffff16565b80925081935050506108c1828460020160008660010160008981526020019081526020016000206000015481526020019081526020016000206111de90919063ffffffff16565b5082600101600085815260200190815260200160002060008082016000905560018201600090556002820160009055505060028360010160008681526020019081526020016000206000015403610941576001600085815260200190815260200160002060006101000a8154906bffffffffffffffffffffffff02191690555b5050505050565b6000600160008360405160200161095f91906117fc565b60405160208183030381529060405280519060200120815260200190815260200160002060009054906101000a90046bffffffffffffffffffffffff169050919050565b600080600060026000866bffffffffffffffffffffffff166bffffffffffffffffffffffff16815260200190815260200160002060010160008581526020019081526020016000206000015460026000876bffffffffffffffffffffffff166bffffffffffffffffffffffff16815260200190815260200160002060010160008681526020019081526020016000206001015460026000886bffffffffffffffffffffffff166bffffffffffffffffffffffff1681526020019081526020016000206001016000878152602001908152602001600020600201549250925092509250925092565b60008060009054906101000a900473ffffffffffffffffffffffffffffffffffffffff1673ffffffffffffffffffffffffffffffffffffffff166304433bbc6040518163ffffffff1660e01b8152600401610ae490611b97565b602060405180830381865afa158015610b01573d6000803e3d6000fd5b505050506040513d601f19601f82011682018060405250810190610b259190611bcc565b73ffffffffffffffffffffffffffffffffffffffff163373ffffffffffffffffffffffffffffffffffffffff1614610b92576040517f08c379a0000000000000000000000000000000000000000000000000000000008152600401610b8990611c6b565b60405180910390fd5b600073ffffffffffffffffffffffffffffffffffffffff168373ffffffffffffffffffffffffffffffffffffffff1603610c01576040517f08c379a0000000000000000000000000000000000000000000000000000000008152600401610bf890611cfd565b60405180910390fd5b600073ffffffffffffffffffffffffffffffffffffffff168273ffffffffffffffffffffffffffffffffffffffff1603610c70576040517f08c379a0000000000000000000000000000000000000000000000000000000008152600401610c6790611d8f565b60405180910390fd5b8173ffffffffffffffffffffffffffffffffffffffff168373ffffffffffffffffffffffffffffffffffffffff1603610cde576040517f08c379a0000000000000000000000000000000000000000000000000000000008152600401610cd590611e21565b60405180910390fd5b600082604051602001610cf191906117fc565b60405160208183030381529060405280519060200120905060008060149054906101000a90046bffffffffffffffffffffffff169050600060026000836bffffffffffffffffffffffff166bffffffffffffffffffffffff16815260200190815260200160002090506000601481819054906101000a90046bffffffffffffffffffffffff1680929190610d8490611e70565b91906101000a8154816bffffffffffffffffffffffff02191690836bffffffffffffffffffffffff1602179055505060018160010160008581526020019081526020016000206000018190555060018160010160008581526020019081526020016000206001018190555082816001016000858152602001908152602001600020600201819055508060020160006001815260200190815260200160002083908060018154018082558091505060019003906000526020600020016000909190919091505582826bffffffffffffffffffffffff167fddb3379e7a64dd6a3168dd79f0aefb02aa90026561607038bfb00e4c1942b52f8360010160008781526020019081526020016000206000015484600101600088815260200190815260200160002060010154604051610eba929190611992565b60405180910390a3600086604051602001610ed591906117fc565b604051602081830303815290604052805190602001209050826001600083815260200190815260200160002060006101000a8154816bffffffffffffffffffffffff02191690836bffffffffffffffffffffffff16021790555060028260010160008381526020019081526020016000206000018190555060018260010160008381526020019081526020016000206001018190555080826001016000838152602001908152602001600020600201819055508160020160006002815260200190815260200160002081908060018154018082558091505060019003906000526020600020016000909190919091505580836bffffffffffffffffffffffff167fddb3379e7a64dd6a3168dd79f0aefb02aa90026561607038bfb00e4c1942b52f8460010160008581526020019081526020016000206000015485600101600086815260200190815260200160002060010154604051611036929190611992565b60405180910390a38381846bffffffffffffffffffffffff167f1152bb203c8119b3be98cdef8f655065df73e147286b3d7911d8f03c69881b6a60405160405180910390a48294505050505092915050565b60008160026000866bffffffffffffffffffffffff166bffffffffffffffffffffffff1681526020019081526020016000206001016000858152602001908152602001600020600001541490509392505050565b606060026000846bffffffffffffffffffffffff166bffffffffffffffffffffffff168152602001908152602001600020600201600083815260200190815260200160002080548060200260200160405190810160405280929190818152602001828054801561116b57602002820191906000526020600020905b815481526020019060010190808311611157575b5050505050905092915050565b60008060005b84805490508110156111ce578385828154811061119e5761119d611ea4565b5b9060005260206000200154036111bb5780600192509250506111d7565b80806111c690611ed3565b91505061117e565b50600080915091505b9250929050565b6060828054905082106111f057600080fd5b82600184805490506112029190611f1b565b8154811061121357611212611ea4565b5b906000526020600020015483838154811061123157611230611ea4565b5b9060005260206000200181905550828054806112505761124f611f4f565b5b60019003818190600052602060002001600090559055828054806020026020016040519081016040528092919081815260200182805480156112b157602002820191906000526020600020905b81548152602001906001019080831161129d575b5050505050905092915050565b600080fd5b6000819050919050565b6112d6816112c3565b81146112e157600080fd5b50565b6000813590506112f3816112cd565b92915050565b60006020828403121561130f5761130e6112be565b5b600061131d848285016112e4565b91505092915050565b60006bffffffffffffffffffffffff82169050919050565b61134781611326565b82525050565b6000602082019050611362600083018461133e565b92915050565b600073ffffffffffffffffffffffffffffffffffffffff82169050919050565b6000819050919050565b60006113ad6113a86113a384611368565b611388565b611368565b9050919050565b60006113bf82611392565b9050919050565b60006113d1826113b4565b9050919050565b6113e1816113c6565b82525050565b60006020820190506113fc60008301846113d8565b92915050565b61140b81611326565b811461141657600080fd5b50565b60008135905061142881611402565b92915050565b6000819050919050565b6114418161142e565b811461144c57600080fd5b50565b60008135905061145e81611438565b92915050565b6000806000806080858703121561147e5761147d6112be565b5b600061148c87828801611419565b945050602061149d878288016112e4565b93505060406114ae8782880161144f565b92505060606114bf8782880161144f565b91505092959194509250565b600080604083850312156114e2576114e16112be565b5b60006114f085828601611419565b9250506020611501858286016112e4565b9150509250929050565b600061151682611368565b9050919050565b6115268161150b565b811461153157600080fd5b50565b6000813590506115438161151d565b92915050565b60006020828403121561155f5761155e6112be565b5b600061156d84828501611534565b91505092915050565b61157f8161142e565b82525050565b61158e816112c3565b82525050565b60006060820190506115a96000830186611576565b6115b66020830185611576565b6115c36040830184611585565b949350505050565b600080604083850312156115e2576115e16112be565b5b60006115f085828601611534565b925050602061160185828601611534565b9150509250929050565b600080600060608486031215611624576116236112be565b5b600061163286828701611419565b9350506020611643868287016112e4565b92505060406116548682870161144f565b9150509250925092565b60008115159050919050565b6116738161165e565b82525050565b600060208201905061168e600083018461166a565b92915050565b600080604083850312156116ab576116aa6112be565b5b60006116b985828601611419565b92505060206116ca8582860161144f565b9150509250929050565b600081519050919050565b600082825260208201905092915050565b6000819050602082019050919050565b611709816112c3565b82525050565b600061171b8383611700565b60208301905092915050565b6000602082019050919050565b600061173f826116d4565b61174981856116df565b9350611754836116f0565b8060005b8381101561178557815161176c888261170f565b975061177783611727565b925050600181019050611758565b5085935050505092915050565b600060208201905081810360008301526117ac8184611734565b905092915050565b60008160601b9050919050565b60006117cc826117b4565b9050919050565b60006117de826117c1565b9050919050565b6117f66117f18261150b565b6117d3565b82525050565b600061180882846117e5565b60148201915081905092915050565b600082825260208201905092915050565b7f41646d696e2066756e6374696f6e000000000000000000000000000000000000600082015250565b600061185e600e83611817565b915061186982611828565b602082019050919050565b6000602082019050818103600083015261188d81611851565b9050919050565b7f4b65792061726720697320656d70747900000000000000000000000000000000600082015250565b60006118ca601083611817565b91506118d582611894565b602082019050919050565b600060208201905081810360008301526118f9816118bd565b9050919050565b7f4b657920697320616c726561647920617474616368656420746f20746865206960008201527f64656e7469747900000000000000000000000000000000000000000000000000602082015250565b600061195c602783611817565b915061196782611900565b604082019050919050565b6000602082019050818103600083015261198b8161194f565b9050919050565b60006040820190506119a76000830185611576565b6119b46020830184611576565b9392505050565b7f4b65792069736e277420617474616368656420746f20746865206964656e746960008201527f7479000000000000000000000000000000000000000000000000000000000000602082015250565b6000611a17602283611817565b9150611a22826119bb565b604082019050919050565b60006020820190508181036000830152611a4681611a0a565b9050919050565b7f43616e6e6f742064656c65746520746865206f6e6c792061646d696e206b6579600082015250565b6000611a83602083611817565b9150611a8e82611a4d565b602082019050919050565b60006020820190508181036000830152611ab281611a76565b9050919050565b7f43616e6e6f742064656c65746520746865206f6e6c79206f7065726174696f6e60008201527f616c206b65790000000000000000000000000000000000000000000000000000602082015250565b6000611b15602683611817565b9150611b2082611ab9565b604082019050919050565b60006020820190508181036000830152611b4481611b08565b9050919050565b7f50726f66696c6553746f72616765000000000000000000000000000000000000600082015250565b6000611b81600e83611817565b9150611b8c82611b4b565b602082019050919050565b60006020820190508181036000830152611bb081611b74565b9050919050565b600081519050611bc68161151d565b92915050565b600060208284031215611be257611be16112be565b5b6000611bf084828501611bb7565b91505092915050565b7f46756e6374696f6e2063616e206f6e6c792062652063616c6c6564206279205060008201527f726f66696c6553746f7261676520636f6e747261637400000000000000000000602082015250565b6000611c55603683611817565b9150611c6082611bf9565b604082019050919050565b60006020820190508181036000830152611c8481611c48565b9050919050565b7f4f7065726174696f6e616c2077616c6c657420616464726573732063616e277460008201527f20626520656d7074790000000000000000000000000000000000000000000000602082015250565b6000611ce7602983611817565b9150611cf282611c8b565b604082019050919050565b60006020820190508181036000830152611d1681611cda565b9050919050565b7f41646d696e2077616c6c657420616464726573732063616e277420626520656d60008201527f7074790000000000000000000000000000000000000000000000000000000000602082015250565b6000611d79602383611817565b9150611d8482611d1d565b604082019050919050565b60006020820190508181036000830152611da881611d6c565b9050919050565b7f53616d65206164647265737320666f722041444d494e2f4f5045524154494f4e60008201527f414c20707572706f736573000000000000000000000000000000000000000000602082015250565b6000611e0b602b83611817565b9150611e1682611daf565b604082019050919050565b60006020820190508181036000830152611e3a81611dfe565b9050919050565b7f4e487b7100000000000000000000000000000000000000000000000000000000600052601160045260246000fd5b6000611e7b82611326565b91506bffffffffffffffffffffffff8203611e9957611e98611e41565b5b600182019050919050565b7f4e487b7100000000000000000000000000000000000000000000000000000000600052603260045260246000fd5b6000611ede8261142e565b91507fffffffffffffffffffffffffffffffffffffffffffffffffffffffffffffffff8203611f1057611f0f611e41565b5b600182019050919050565b6000611f268261142e565b9150611f318361142e565b925082821015611f4457611f43611e41565b5b828203905092915050565b7f4e487b7100000000000000000000000000000000000000000000000000000000600052603160045260246000fdfea26469706673582212200bbda77f68bdaa721eaac085b2f729f4f46c32926330e21c76bc6ac09337af5864736f6c634300080e0033",
  "immutableReferences": {},
  "source": "// SPDX-License-Identifier: MIT\n\npragma solidity ^0.8.0;\n\nimport { ByteArr } from \"../utils/ByteArr.sol\";\nimport { Hub } from \"../Hub.sol\";\nimport { IERC734Extended } from \"../interface/IERC734Extended.sol\";\n\ncontract IdentityStorage is IERC734Extended {\n    using ByteArr for bytes;\n    using ByteArr for bytes32[];\n    using ByteArr for uint256[];\n\n    uint256 constant ADMIN_KEY = 1;\n    uint256 constant OPERATIONAL_KEY = 2;\n\n    Hub public hub;\n\n    uint96 private _identityId;\n\n    struct Identity {\n        uint96 identityId;\n        mapping (bytes32 => Key) keys;\n        mapping (uint256 => bytes32[]) keysByPurpose;\n    }\n\n    // operationalKey => identityId\n    mapping(bytes32 => uint96) public identityIds;\n    // identityId => Identity\n    mapping(uint96 => Identity) identities;\n\n    constructor(address hubAddress) {\n        require(hubAddress != address(0));\n        hub = Hub(hubAddress);\n\n        _identityId = 1;\n    }\n\n    modifier onlyProfileStorage() {\n        require(\n            msg.sender == hub.getContractAddress(\"ProfileStorage\"),\n            \"Function can only be called by ProfileStorage contract\"\n        );\n        _;\n    }\n\n    function createIdentity(address operational, address admin) public onlyProfileStorage returns (uint96) {\n        require(operational != address(0), \"Operational wallet address can't be empty\");\n        require(admin != address(0), \"Admin wallet address can't be empty\");\n        require(operational != admin, \"Same address for ADMIN/OPERATIONAL purposes\");\n\n        bytes32 _admin_key = keccak256(abi.encodePacked(admin));\n\n        uint96 identityId = _identityId;\n        Identity storage identity = identities[identityId];\n        _identityId++;\n        \n        identity.keys[_admin_key].purpose = ADMIN_KEY;\n        identity.keys[_admin_key].keyType = 1;  // ECDSA\n        identity.keys[_admin_key].key = _admin_key;\n        identity.keysByPurpose[ADMIN_KEY].push(_admin_key);\n\n        emit KeyAdded(identityId, _admin_key, identity.keys[_admin_key].purpose, identity.keys[_admin_key].keyType);\n\n        bytes32 _operational_key = keccak256(abi.encodePacked(operational));\n\n        identityIds[_operational_key] = identityId;\n\n        identity.keys[_operational_key].purpose = OPERATIONAL_KEY;\n        identity.keys[_operational_key].keyType = 1;  // ECDSA\n        identity.keys[_operational_key].key = _operational_key;\n        identity.keysByPurpose[OPERATIONAL_KEY].push(_operational_key);\n\n        emit KeyAdded(\n            identityId,\n            _operational_key,\n            identity.keys[_operational_key].purpose,\n            identity.keys[_operational_key].keyType\n        );\n\n        emit IdentityCreated(identityId, _operational_key, _admin_key);\n\n        return identityId;\n    }\n\n    function getIdentityId(address operational) public view returns (uint96) {\n        return identityIds[keccak256(abi.encodePacked(operational))];\n    }\n\n    function getKey(uint96 identityId, bytes32 _key) public view override returns (uint256, uint256, bytes32) {\n        return (\n            identities[identityId].keys[_key].purpose,\n            identities[identityId].keys[_key].keyType,\n            identities[identityId].keys[_key].key\n        );\n    }\n\n    function keyHasPurpose(uint96 identityId, bytes32 _key, uint256 _purpose) public view override returns (bool) {\n        return identities[identityId].keys[_key].purpose == _purpose;\n    }\n\n    function getKeysByPurpose(uint96 identityId, uint256 _purpose) public view override returns (bytes32[] memory) {\n        return identities[identityId].keysByPurpose[_purpose];\n    }\n\n    function addKey(uint96 identityId, bytes32 _key, uint256 _purpose, uint256 _type) public override {\n        require(keyHasPurpose(identityId, keccak256(abi.encodePacked(msg.sender)), ADMIN_KEY), \"Admin function\");\n        require(_key != bytes32(0), \"Key arg is empty\");\n        require(identities[identityId].keys[_key].key != _key, \"Key is already attached to the identity\");\n\n        identities[identityId].keys[_key].purpose = _purpose;\n        identities[identityId].keys[_key].keyType = _type;\n        identities[identityId].keys[_key].key = _key;\n        identities[identityId].keysByPurpose[_purpose].push(_key);\n\n        if (_purpose == OPERATIONAL_KEY) {\n            identityIds[_key] = identityId;\n        }\n\n        emit KeyAdded(identityId, _key, _purpose, _type);\n    }\n\n    function removeKey(uint96 identityId, bytes32 _key) public override {\n        require(keyHasPurpose(identityId, keccak256(abi.encodePacked(msg.sender)), ADMIN_KEY), \"Admin function\");\n        require(_key != bytes32(0), \"Key arg is empty\");\n\n        Identity storage identity = identities[identityId];\n        require(identity.keys[_key].key == _key, \"Key isn't attached to the identity\");\n\n        require(\n            !(identity.keysByPurpose[ADMIN_KEY].length == 1 && keyHasPurpose(identityId, _key, ADMIN_KEY)),\n            \"Cannot delete the only admin key\"\n        );\n        require(\n            !(identity.keysByPurpose[OPERATIONAL_KEY].length == 1 && keyHasPurpose(identityId, _key, OPERATIONAL_KEY)),\n            \"Cannot delete the only operational key\"\n        );\n\n        emit KeyRemoved(identityId, identity.keys[_key].key, identity.keys[_key].purpose, identity.keys[_key].keyType);\n\n        uint256 index;\n        bool success;\n        (index, success) = identity.keysByPurpose[identity.keys[_key].purpose].indexOf(_key);\n        identity.keysByPurpose[identity.keys[_key].purpose].removeByIndex(index);\n\n        delete identity.keys[_key];\n\n        if (identity.keys[_key].purpose == OPERATIONAL_KEY) {\n            delete identityIds[_key];\n        }\n    }\n}\n",
  "sourcePath": "/Users/waving/Desktop/OriginTrail/dkg-evm-module/contracts/storage/IdentityStorage.sol",
  "compiler": {
    "name": "solc",
    "version": "0.8.14+commit.80d49f37.Emscripten.clang"
  },
  "schemaVersion": "3.4.10",
  "updatedAt": "2022-11-22T02:14:31.486Z",
  "devdoc": {
    "kind": "dev",
    "methods": {},
    "version": 1
  },
  "userdoc": {
    "kind": "user",
    "methods": {},
    "version": 1
  }
}