{
  "contractName": "Identity",
  "abi": [
    {
      "inputs": [
        {
          "internalType": "address",
          "name": "hubAddress",
          "type": "address"
        }
      ],
      "stateMutability": "nonpayable",
      "type": "constructor"
    },
    {
      "anonymous": false,
      "inputs": [
        {
          "indexed": true,
          "internalType": "uint72",
          "name": "identityId",
          "type": "uint72"
        },
        {
          "indexed": true,
          "internalType": "bytes32",
          "name": "operationalKey",
          "type": "bytes32"
        },
        {
          "indexed": true,
          "internalType": "bytes32",
          "name": "adminKey",
          "type": "bytes32"
        }
      ],
      "name": "IdentityCreated",
      "type": "event"
    },
    {
      "anonymous": false,
      "inputs": [
        {
          "indexed": true,
          "internalType": "uint72",
          "name": "identityId",
          "type": "uint72"
        }
      ],
      "name": "IdentityDeleted",
      "type": "event"
    },
    {
      "inputs": [],
      "name": "hub",
      "outputs": [
        {
          "internalType": "contract Hub",
          "name": "",
          "type": "address"
        }
      ],
      "stateMutability": "view",
      "type": "function"
    },
    {
      "inputs": [],
      "name": "identityStorage",
      "outputs": [
        {
          "internalType": "contract IdentityStorage",
          "name": "",
          "type": "address"
        }
      ],
      "stateMutability": "view",
      "type": "function"
    },
    {
      "inputs": [],
      "name": "initialize",
      "outputs": [],
      "stateMutability": "nonpayable",
      "type": "function"
    },
    {
      "inputs": [],
      "name": "name",
      "outputs": [
        {
          "internalType": "string",
          "name": "",
          "type": "string"
        }
      ],
      "stateMutability": "pure",
      "type": "function"
    },
    {
      "inputs": [],
      "name": "version",
      "outputs": [
        {
          "internalType": "string",
          "name": "",
          "type": "string"
        }
      ],
      "stateMutability": "pure",
      "type": "function"
    },
    {
      "inputs": [
        {
          "internalType": "address",
          "name": "operational",
          "type": "address"
        },
        {
          "internalType": "address",
          "name": "admin",
          "type": "address"
        }
      ],
      "name": "createIdentity",
      "outputs": [
        {
          "internalType": "uint72",
          "name": "",
          "type": "uint72"
        }
      ],
      "stateMutability": "nonpayable",
      "type": "function"
    },
    {
      "inputs": [
        {
          "internalType": "uint72",
          "name": "identityId",
          "type": "uint72"
        }
      ],
      "name": "deleteIdentity",
      "outputs": [],
      "stateMutability": "nonpayable",
      "type": "function"
    },
    {
      "inputs": [
        {
          "internalType": "uint72",
          "name": "identityId",
          "type": "uint72"
        },
        {
          "internalType": "bytes32",
          "name": "key",
          "type": "bytes32"
        },
        {
          "internalType": "uint256",
          "name": "keyPurpose",
          "type": "uint256"
        },
        {
          "internalType": "uint256",
          "name": "keyType",
          "type": "uint256"
        }
      ],
      "name": "addKey",
      "outputs": [],
      "stateMutability": "nonpayable",
      "type": "function"
    },
    {
      "inputs": [
        {
          "internalType": "uint72",
          "name": "identityId",
          "type": "uint72"
        },
        {
          "internalType": "bytes32",
          "name": "key",
          "type": "bytes32"
        }
      ],
      "name": "removeKey",
      "outputs": [],
      "stateMutability": "nonpayable",
      "type": "function"
    }
  ],
  "bytecode": "0x60806040523480156200001157600080fd5b506040516200147a3803806200147a83398101604081905262000034916200020e565b6001600160a01b0381166200004857600080fd5b600080546001600160a01b0319166001600160a01b0383161790556200006d62000074565b5062000240565b6200007e6200012f565b600054604051630110ceef60e21b815260206004820152600f60248201526e4964656e7469747953746f7261676560881b60448201526001600160a01b03909116906304433bbc90606401602060405180830381865afa158015620000e7573d6000803e3d6000fd5b505050506040513d601f19601f820116820180604052508101906200010d91906200020e565b600180546001600160a01b0319166001600160a01b0392909216919091179055565b60008054906101000a90046001600160a01b03166001600160a01b0316638da5cb5b6040518163ffffffff1660e01b8152600401602060405180830381865afa15801562000181573d6000803e3d6000fd5b505050506040513d601f19601f82011682018060405250810190620001a791906200020e565b6001600160a01b0316336001600160a01b0316146200020c5760405162461bcd60e51b815260206004820181905260248201527f466e2063616e206f6e6c79206265207573656420627920687562206f776e6572604482015260640160405180910390fd5b565b6000602082840312156200022157600080fd5b81516001600160a01b03811681146200023957600080fd5b9392505050565b61122a80620002506000396000f3fe608060405234801561001057600080fd5b50600436106100935760003560e01c80638129fc1c116100665780638129fc1c1461012f578063bee3b94e14610137578063d10e73ab1461014a578063dc06a39d14610175578063f11abfd81461018857600080fd5b806306fdde0314610098578063365a86fc146100ce57806354fd4d50146100f957806367ac664f1461011a575b600080fd5b6040805180820190915260088152674964656e7469747960c01b60208201525b6040516100c59190610f5a565b60405180910390f35b6000546100e1906001600160a01b031681565b6040516001600160a01b0390911681526020016100c5565b6040805180820190915260058152640312e302e360dc1b60208201526100b8565b61012d610128366004610fbd565b61019b565b005b61012d610631565b61012d610145366004610fe9565b6106e7565b61015d610158366004611039565b6108f7565b6040516001600160481b0390911681526020016100c5565b61012d610183366004611072565b610c29565b6001546100e1906001600160a01b031681565b816101a581610cce565b816101ea5760405162461bcd60e51b815260206004820152601060248201526f4b65792061726720697320656d70747960801b60448201526064015b60405180910390fd5b60015460405163345914fd60e11b81526001600160481b0385166004820152602481018490526001600160a01b0390911690600090819083906368b229fa90604401606060405180830381865afa158015610249573d6000803e3d6000fd5b505050506040513d601f19601f8201168201806040525081019061026d9190611096565b919350909150508481146102b85760405162461bcd60e51b815260206004820152601260248201527112d95e481a5cdb89dd08185d1d1858da195960721b60448201526064016101e1565b60405163238ce1ef60e11b81526001600160481b0387166004820152600160248201526001600160a01b03841690634719c3de90604401600060405180830381865afa15801561030c573d6000803e3d6000fd5b505050506040513d6000823e601f3d908101601f1916820160405261033491908101906110da565b5160011480156103be5750604051631af27dbd60e11b81526001600160481b038716600482015260248101869052600160448201526001600160a01b038416906335e4fb7a90606401602060405180830381865afa15801561039a573d6000803e3d6000fd5b505050506040513d601f19601f820116820180604052508101906103be9190611198565b1561040b5760405162461bcd60e51b815260206004820181905260248201527f43616e6e6f742064656c65746520746865206f6e6c792061646d696e206b657960448201526064016101e1565b60405163238ce1ef60e11b81526001600160481b0387166004820152600260248201526001600160a01b03841690634719c3de90604401600060405180830381865afa15801561045f573d6000803e3d6000fd5b505050506040513d6000823e601f3d908101601f1916820160405261048791908101906110da565b5160011480156105115750604051631af27dbd60e11b81526001600160481b038716600482015260248101869052600260448201526001600160a01b038416906335e4fb7a90606401602060405180830381865afa1580156104ed573d6000803e3d6000fd5b505050506040513d601f19601f820116820180604052508101906105119190611198565b1561055e5760405162461bcd60e51b815260206004820181905260248201527f43616e6e6f742064656c65746520746865206f6e6c79206f7065722e206b657960448201526064016101e1565b6040516367ac664f60e01b81526001600160481b0387166004820152602481018690526001600160a01b038416906367ac664f90604401600060405180830381600087803b1580156105af57600080fd5b505af11580156105c3573d6000803e3d6000fd5b505050506002820361062957604051620ef85560ea1b8152600481018690526001600160a01b03841690633be1540090602401600060405180830381600087803b15801561061057600080fd5b505af1158015610624573d6000803e3d6000fd5b505050505b505050505050565b610639610dcb565b600054604051630110ceef60e21b815260206004820152600f60248201526e4964656e7469747953746f7261676560881b60448201526001600160a01b03909116906304433bbc90606401602060405180830381865afa1580156106a1573d6000803e3d6000fd5b505050506040513d601f19601f820116820180604052508101906106c591906111ba565b600180546001600160a01b0319166001600160a01b0392909216919091179055565b836106f181610cce565b836107315760405162461bcd60e51b815260206004820152601060248201526f4b65792061726720697320656d70747960801b60448201526064016101e1565b60015460405163345914fd60e11b81526001600160481b0387166004820152602481018690526001600160a01b039091169060009082906368b229fa90604401606060405180830381865afa15801561078e573d6000803e3d6000fd5b505050506040513d601f19601f820116820180604052508101906107b29190611096565b925050508581036108055760405162461bcd60e51b815260206004820152601760248201527f4b657920697320616c726561647920617474616368656400000000000000000060448201526064016101e1565b604051635f71dca760e11b81526001600160481b03881660048201526024810187905260448101869052606481018590526001600160a01b0383169063bee3b94e90608401600060405180830381600087803b15801561086457600080fd5b505af1158015610878573d6000803e3d6000fd5b50505050600285036108ee5760405163383a4c6560e11b8152600481018790526001600160481b03881660248201526001600160a01b0383169063707498ca90604401600060405180830381600087803b1580156108d557600080fd5b505af11580156108e9573d6000803e3d6000fd5b505050505b50505050505050565b6000610901610ea2565b6001600160a01b0383166109575760405162461bcd60e51b815260206004820181905260248201527f4f7065726174696f6e616c20616464726573732063616e27742062652030783060448201526064016101e1565b6001600160a01b0382166109ad5760405162461bcd60e51b815260206004820152601a60248201527f41646d696e20616464726573732063616e27742062652030783000000000000060448201526064016101e1565b60015460408051633f2f9ac560e21b815290516001600160a01b0390921691600091839163fcbe6b1491600480820192602092909190829003018187875af11580156109fd573d6000803e3d6000fd5b505050506040513d601f19601f82011682018060405250810190610a2191906111d7565b6040516001600160601b0319606087901b16602082015290915060009060340160408051808303601f19018152908290528051602090910120635f71dca760e11b82526001600160481b038416600483015260248201819052600160448301819052606483015291506001600160a01b0384169063bee3b94e90608401600060405180830381600087803b158015610ab857600080fd5b505af1158015610acc573d6000803e3d6000fd5b50506040516001600160601b031960608a901b16602082015260009250603401905060408051808303601f19018152908290528051602090910120635f71dca760e11b82526001600160481b038516600483015260248201819052600260448301526001606483015291506001600160a01b0385169063bee3b94e90608401600060405180830381600087803b158015610b6557600080fd5b505af1158015610b79573d6000803e3d6000fd5b505060405163383a4c6560e11b8152600481018490526001600160481b03861660248201526001600160a01b038716925063707498ca9150604401600060405180830381600087803b158015610bce57600080fd5b505af1158015610be2573d6000803e3d6000fd5b505050508181846001600160481b03167f075aca39edba283f02f8c21a516c19dd1208d3b3d647f7012be49fe0e8dc2fd760405160405180910390a4509095945050505050565b610c31610ea2565b60015460405163dc06a39d60e01b81526001600160481b03831660048201526001600160a01b039091169063dc06a39d90602401600060405180830381600087803b158015610c7f57600080fd5b505af1158015610c93573d6000803e3d6000fd5b50506040516001600160481b03841692507f8eb76f325ff8b1aeeacdc5189acc141ef54246ceae65dc6d5458e385388472a89150600090a250565b6001546040516001600160601b03193360601b1660208201526001600160a01b03909116906335e4fb7a90839060340160408051601f198184030181529082905280516020909101206001600160e01b031960e085901b1682526001600160481b039092166004820152602481019190915260016044820152606401602060405180830381865afa158015610d67573d6000803e3d6000fd5b505050506040513d601f19601f82011682018060405250810190610d8b9190611198565b610dc85760405162461bcd60e51b815260206004820152600e60248201526d20b236b4b710333ab731ba34b7b760911b60448201526064016101e1565b50565b60008054906101000a90046001600160a01b03166001600160a01b0316638da5cb5b6040518163ffffffff1660e01b8152600401602060405180830381865afa158015610e1c573d6000803e3d6000fd5b505050506040513d601f19601f82011682018060405250810190610e4091906111ba565b6001600160a01b0316336001600160a01b031614610ea05760405162461bcd60e51b815260206004820181905260248201527f466e2063616e206f6e6c79206265207573656420627920687562206f776e657260448201526064016101e1565b565b600054604051631627905560e01b81523360048201526001600160a01b0390911690631627905590602401602060405180830381865afa158015610eea573d6000803e3d6000fd5b505050506040513d601f19601f82011682018060405250810190610f0e9190611198565b610ea05760405162461bcd60e51b815260206004820181905260248201527f466e2063616e206f6e6c792062652063616c6c6564206279207468652068756260448201526064016101e1565b600060208083528351808285015260005b81811015610f8757858101830151858201604001528201610f6b565b506000604082860101526040601f19601f8301168501019250505092915050565b6001600160481b0381168114610dc857600080fd5b60008060408385031215610fd057600080fd5b8235610fdb81610fa8565b946020939093013593505050565b60008060008060808587031215610fff57600080fd5b843561100a81610fa8565b966020860135965060408601359560600135945092505050565b6001600160a01b0381168114610dc857600080fd5b6000806040838503121561104c57600080fd5b823561105781611024565b9150602083013561106781611024565b809150509250929050565b60006020828403121561108457600080fd5b813561108f81610fa8565b9392505050565b6000806000606084860312156110ab57600080fd5b8351925060208401519150604084015190509250925092565b634e487b7160e01b600052604160045260246000fd5b600060208083850312156110ed57600080fd5b825167ffffffffffffffff8082111561110557600080fd5b818501915085601f83011261111957600080fd5b81518181111561112b5761112b6110c4565b8060051b604051601f19603f83011681018181108582111715611150576111506110c4565b60405291825284820192508381018501918883111561116e57600080fd5b938501935b8285101561118c57845184529385019392850192611173565b98975050505050505050565b6000602082840312156111aa57600080fd5b8151801515811461108f57600080fd5b6000602082840312156111cc57600080fd5b815161108f81611024565b6000602082840312156111e957600080fd5b815161108f81610fa856fea2646970667358221220738340b117a31bf3f1514b6092b98091dc7d8440f0e1fe381bc01c25e2bf5eb764736f6c63430008100033",
  "immutableReferences": {},
  "source": "// SPDX-License-Identifier: MIT\n\npragma solidity ^0.8.4;\n\nimport { Hub } from \"./Hub.sol\";\nimport { IdentityStorage } from \"./storage/IdentityStorage.sol\";\nimport { Named } from \"./interface/Named.sol\";\nimport { Versioned } from \"./interface/Versioned.sol\";\nimport { ADMIN_KEY, OPERATIONAL_KEY, ECDSA, RSA } from \"./constants/IdentityConstants.sol\";\n\ncontract Identity is Named, Versioned {\n\n    event IdentityCreated(uint72 indexed identityId, bytes32 indexed operationalKey, bytes32 indexed adminKey);\n    event IdentityDeleted(uint72 indexed identityId);\n\n    string constant private _NAME = \"Identity\";\n    string constant private _VERSION = \"1.0.0\";\n\n    Hub public hub;\n    IdentityStorage public identityStorage;\n\n    constructor(address hubAddress) {\n        require(hubAddress != address(0));\n\n        hub = Hub(hubAddress);\n        initialize();\n    }\n\n    modifier onlyHubOwner() {\n\t\t_checkHubOwner();\n\t\t_;\n\t}\n\n    modifier onlyContracts() {\n        _checkHub();\n        _;\n    }\n\n    modifier onlyAdmin(uint72 identityId) {\n        _checkAdmin(identityId);\n        _;\n    }\n\n    function initialize() public onlyHubOwner {\n\t\tidentityStorage = IdentityStorage(hub.getContractAddress(\"IdentityStorage\"));\n\t}\n\n    function name() external pure virtual override returns (string memory) {\n        return _NAME;\n    }\n\n    function version() external pure virtual override returns (string memory) {\n        return _VERSION;\n    }\n\n    function createIdentity(address operational, address admin) external onlyContracts returns (uint72) {\n        require(operational != address(0), \"Operational address can't be 0x0\");\n        require(admin != address(0), \"Admin address can't be 0x0\");\n\n        IdentityStorage ids = identityStorage;\n\n        uint72 identityId = ids.generateIdentityId();\n\n        bytes32 _admin_key = keccak256(abi.encodePacked(admin));\n        ids.addKey(identityId, _admin_key, ADMIN_KEY, ECDSA);\n\n        bytes32 _operational_key = keccak256(abi.encodePacked(operational));\n        ids.addKey(identityId, _operational_key, OPERATIONAL_KEY, ECDSA);\n\n        ids.setOperationalKeyIdentityId(_operational_key, identityId);\n\n        emit IdentityCreated(\n            identityId,\n            _operational_key,\n            _admin_key\n        );\n\n        return identityId;\n    }\n\n    function deleteIdentity(uint72 identityId) external onlyContracts {\n        identityStorage.deleteIdentity(identityId);\n\n        emit IdentityDeleted(identityId);\n    }\n\n    function addKey(uint72 identityId, bytes32 key, uint256 keyPurpose, uint256 keyType)\n        external\n        onlyAdmin(identityId)\n    {\n        require(key != bytes32(0), \"Key arg is empty\");\n\n        IdentityStorage ids = identityStorage;\n\n        bytes32 attachedKey;\n        ( , , attachedKey) = ids.getKey(identityId, key);\n        require(attachedKey != key, \"Key is already attached\");\n\n        ids.addKey(identityId, key, keyPurpose, keyType);\n\n        if (keyPurpose == OPERATIONAL_KEY) {\n            ids.setOperationalKeyIdentityId(key, identityId);\n        }\n    }\n\n    function removeKey(uint72 identityId, bytes32 key) external onlyAdmin(identityId) {\n        require(key != bytes32(0), \"Key arg is empty\");\n\n        IdentityStorage ids = identityStorage;\n\n        uint256 purpose;\n        bytes32 attachedKey;\n        (purpose, , attachedKey) = ids.getKey(identityId, key);\n        require(attachedKey == key, \"Key isn't attached\");\n\n        require(\n            !(\n                ids.getKeysByPurpose(identityId, ADMIN_KEY).length == 1 &&\n                ids.keyHasPurpose(identityId, key, ADMIN_KEY)\n            ),\n            \"Cannot delete the only admin key\"\n        );\n        require(\n            !(\n                ids.getKeysByPurpose(identityId, OPERATIONAL_KEY).length == 1 &&\n                ids.keyHasPurpose(identityId, key, OPERATIONAL_KEY)\n            ),\n            \"Cannot delete the only oper. key\"\n        );\n\n        ids.removeKey(identityId, key);\n\n        if (purpose == OPERATIONAL_KEY) {\n            ids.removeOperationalKeyIdentityId(key);\n        }\n    }\n\n    function _checkHubOwner() internal view virtual {\n\t\trequire(msg.sender == hub.owner(), \"Fn can only be used by hub owner\");\n\t}\n\n    function _checkHub() internal view virtual {\n        require(hub.isContract(msg.sender), \"Fn can only be called by the hub\");\n    }\n\n    function _checkAdmin(uint72 identityId) internal view virtual {\n        require(\n            identityStorage.keyHasPurpose(identityId, keccak256(abi.encodePacked(msg.sender)), ADMIN_KEY),\n            \"Admin function\"\n        );\n    }\n\n}\n",
  "sourcePath": "/Users/waving/Desktop/OriginTrail/dkg-evm-module/contracts/Identity.sol",
  "compiler": {
    "name": "solc",
    "version": "0.8.16+commit.07a7930e.Emscripten.clang"
  },
  "schemaVersion": "3.4.10",
  "updatedAt": "2022-12-08T16:29:53.185Z",
  "devdoc": {
    "kind": "dev",
    "methods": {},
    "version": 1
  },
  "userdoc": {
    "kind": "user",
    "methods": {},
    "version": 1
  }
}