{
  "contractName": "IndexAsset",
  "abi": [
    {
      "inputs": [
        {
          "internalType": "address",
          "name": "hubAddress",
          "type": "address"
        }
      ],
      "stateMutability": "nonpayable",
      "type": "constructor"
    },
    {
      "anonymous": false,
      "inputs": [
        {
          "indexed": true,
          "internalType": "address",
          "name": "owner",
          "type": "address"
        },
        {
          "indexed": true,
          "internalType": "address",
          "name": "approved",
          "type": "address"
        },
        {
          "indexed": true,
          "internalType": "uint256",
          "name": "tokenId",
          "type": "uint256"
        }
      ],
      "name": "Approval",
      "type": "event"
    },
    {
      "anonymous": false,
      "inputs": [
        {
          "indexed": true,
          "internalType": "address",
          "name": "owner",
          "type": "address"
        },
        {
          "indexed": true,
          "internalType": "address",
          "name": "operator",
          "type": "address"
        },
        {
          "indexed": false,
          "internalType": "bool",
          "name": "approved",
          "type": "bool"
        }
      ],
      "name": "ApprovalForAll",
      "type": "event"
    },
    {
      "anonymous": false,
      "inputs": [
        {
          "indexed": true,
          "internalType": "address",
          "name": "assetContract",
          "type": "address"
        },
        {
          "indexed": true,
          "internalType": "uint256",
          "name": "tokenId",
          "type": "uint256"
        },
        {
          "indexed": true,
          "internalType": "bytes32",
          "name": "stateCommitHash",
          "type": "bytes32"
        }
      ],
      "name": "AssetCreated",
      "type": "event"
    },
    {
      "anonymous": false,
      "inputs": [
        {
          "indexed": true,
          "internalType": "address",
          "name": "assetContract",
          "type": "address"
        },
        {
          "indexed": true,
          "internalType": "uint256",
          "name": "tokenId",
          "type": "uint256"
        },
        {
          "indexed": true,
          "internalType": "bytes32",
          "name": "stateCommitHash",
          "type": "bytes32"
        }
      ],
      "name": "AssetUpdated",
      "type": "event"
    },
    {
      "anonymous": false,
      "inputs": [
        {
          "indexed": true,
          "internalType": "address",
          "name": "from",
          "type": "address"
        },
        {
          "indexed": true,
          "internalType": "address",
          "name": "to",
          "type": "address"
        },
        {
          "indexed": true,
          "internalType": "uint256",
          "name": "tokenId",
          "type": "uint256"
        }
      ],
      "name": "Transfer",
      "type": "event"
    },
    {
      "inputs": [
        {
          "internalType": "address",
          "name": "to",
          "type": "address"
        },
        {
          "internalType": "uint256",
          "name": "tokenId",
          "type": "uint256"
        }
      ],
      "name": "approve",
      "outputs": [],
      "stateMutability": "nonpayable",
      "type": "function"
    },
    {
      "inputs": [
        {
          "internalType": "address",
          "name": "owner",
          "type": "address"
        }
      ],
      "name": "balanceOf",
      "outputs": [
        {
          "internalType": "uint256",
          "name": "",
          "type": "uint256"
        }
      ],
      "stateMutability": "view",
      "type": "function"
    },
    {
      "inputs": [
        {
          "internalType": "uint256",
          "name": "tokenId",
          "type": "uint256"
        }
      ],
      "name": "getApproved",
      "outputs": [
        {
          "internalType": "address",
          "name": "",
          "type": "address"
        }
      ],
      "stateMutability": "view",
      "type": "function"
    },
    {
      "inputs": [
        {
          "internalType": "uint256",
          "name": "tokenId",
          "type": "uint256"
        },
        {
          "internalType": "uint256",
          "name": "index",
          "type": "uint256"
        }
      ],
      "name": "getAssertionByIndex",
      "outputs": [
        {
          "internalType": "bytes32",
          "name": "",
          "type": "bytes32"
        }
      ],
      "stateMutability": "view",
      "type": "function"
    },
    {
      "inputs": [
        {
          "internalType": "uint256",
          "name": "tokenId",
          "type": "uint256"
        }
      ],
      "name": "getAssertionsLength",
      "outputs": [
        {
          "internalType": "uint256",
          "name": "",
          "type": "uint256"
        }
      ],
      "stateMutability": "view",
      "type": "function"
    },
    {
      "inputs": [],
      "name": "hub",
      "outputs": [
        {
          "internalType": "contract Hub",
          "name": "",
          "type": "address"
        }
      ],
      "stateMutability": "view",
      "type": "function"
    },
    {
      "inputs": [
        {
          "internalType": "address",
          "name": "owner",
          "type": "address"
        },
        {
          "internalType": "address",
          "name": "operator",
          "type": "address"
        }
      ],
      "name": "isApprovedForAll",
      "outputs": [
        {
          "internalType": "bool",
          "name": "",
          "type": "bool"
        }
      ],
      "stateMutability": "view",
      "type": "function"
    },
    {
      "inputs": [],
      "name": "name",
      "outputs": [
        {
          "internalType": "string",
          "name": "",
          "type": "string"
        }
      ],
      "stateMutability": "view",
      "type": "function"
    },
    {
      "inputs": [
        {
          "internalType": "uint256",
          "name": "tokenId",
          "type": "uint256"
        }
      ],
      "name": "ownerOf",
      "outputs": [
        {
          "internalType": "address",
          "name": "",
          "type": "address"
        }
      ],
      "stateMutability": "view",
      "type": "function"
    },
    {
      "inputs": [
        {
          "internalType": "address",
          "name": "from",
          "type": "address"
        },
        {
          "internalType": "address",
          "name": "to",
          "type": "address"
        },
        {
          "internalType": "uint256",
          "name": "tokenId",
          "type": "uint256"
        }
      ],
      "name": "safeTransferFrom",
      "outputs": [],
      "stateMutability": "nonpayable",
      "type": "function"
    },
    {
      "inputs": [
        {
          "internalType": "address",
          "name": "from",
          "type": "address"
        },
        {
          "internalType": "address",
          "name": "to",
          "type": "address"
        },
        {
          "internalType": "uint256",
          "name": "tokenId",
          "type": "uint256"
        },
        {
          "internalType": "bytes",
          "name": "data",
          "type": "bytes"
        }
      ],
      "name": "safeTransferFrom",
      "outputs": [],
      "stateMutability": "nonpayable",
      "type": "function"
    },
    {
      "inputs": [
        {
          "internalType": "address",
          "name": "operator",
          "type": "address"
        },
        {
          "internalType": "bool",
          "name": "approved",
          "type": "bool"
        }
      ],
      "name": "setApprovalForAll",
      "outputs": [],
      "stateMutability": "nonpayable",
      "type": "function"
    },
    {
      "inputs": [
        {
          "internalType": "bytes4",
          "name": "interfaceId",
          "type": "bytes4"
        }
      ],
      "name": "supportsInterface",
      "outputs": [
        {
          "internalType": "bool",
          "name": "",
          "type": "bool"
        }
      ],
      "stateMutability": "view",
      "type": "function"
    },
    {
      "inputs": [],
      "name": "symbol",
      "outputs": [
        {
          "internalType": "string",
          "name": "",
          "type": "string"
        }
      ],
      "stateMutability": "view",
      "type": "function"
    },
    {
      "inputs": [
        {
          "internalType": "uint256",
          "name": "tokenId",
          "type": "uint256"
        }
      ],
      "name": "tokenURI",
      "outputs": [
        {
          "internalType": "string",
          "name": "",
          "type": "string"
        }
      ],
      "stateMutability": "view",
      "type": "function"
    },
    {
      "inputs": [
        {
          "internalType": "address",
          "name": "from",
          "type": "address"
        },
        {
          "internalType": "address",
          "name": "to",
          "type": "address"
        },
        {
          "internalType": "uint256",
          "name": "tokenId",
          "type": "uint256"
        }
      ],
      "name": "transferFrom",
      "outputs": [],
      "stateMutability": "nonpayable",
      "type": "function"
    },
    {
      "inputs": [
        {
          "internalType": "bytes32",
          "name": "assertionId",
          "type": "bytes32"
        },
        {
          "internalType": "uint128",
          "name": "size",
          "type": "uint128"
        },
        {
          "internalType": "uint32",
          "name": "triplesNumber",
          "type": "uint32"
        },
        {
          "internalType": "uint96",
          "name": "chunksNumber",
          "type": "uint96"
        },
        {
          "internalType": "bytes[]",
          "name": "keywords",
          "type": "bytes[]"
        },
        {
          "internalType": "uint8[]",
          "name": "hashFunctionIds",
          "type": "uint8[]"
        },
        {
          "internalType": "uint16",
          "name": "epochsNumber",
          "type": "uint16"
        },
        {
          "internalType": "uint96",
          "name": "tokenAmount",
          "type": "uint96"
        },
        {
          "internalType": "uint8",
          "name": "scoreFunctionId",
          "type": "uint8"
        }
      ],
      "name": "createAsset",
      "outputs": [],
      "stateMutability": "nonpayable",
      "type": "function"
    },
    {
      "inputs": [
        {
          "internalType": "uint256",
          "name": "tokenId",
          "type": "uint256"
        },
        {
          "internalType": "bytes32",
          "name": "assertionId",
          "type": "bytes32"
        },
        {
          "internalType": "uint128",
          "name": "size",
          "type": "uint128"
        },
        {
          "internalType": "uint32",
          "name": "triplesNumber",
          "type": "uint32"
        },
        {
          "internalType": "uint96",
          "name": "chunksNumber",
          "type": "uint96"
        },
        {
          "internalType": "bytes32[]",
          "name": "keywords",
          "type": "bytes32[]"
        },
        {
          "internalType": "uint8[]",
          "name": "hashFunctionIds",
          "type": "uint8[]"
        },
        {
          "internalType": "uint16",
          "name": "epochsNumber",
          "type": "uint16"
        },
        {
          "internalType": "uint96",
          "name": "tokenAmount",
          "type": "uint96"
        },
        {
          "internalType": "uint8",
          "name": "scoreFunctionId",
          "type": "uint8"
        }
      ],
      "name": "updateAsset",
      "outputs": [],
      "stateMutability": "nonpayable",
      "type": "function"
    },
    {
      "inputs": [
        {
          "internalType": "uint256",
          "name": "tokenId",
          "type": "uint256"
        }
      ],
      "name": "getAssertions",
      "outputs": [
        {
          "internalType": "bytes32[]",
          "name": "",
          "type": "bytes32[]"
        }
      ],
      "stateMutability": "view",
      "type": "function"
    }
  ],
  "bytecode": "0x60806040523480156200001157600080fd5b5060405162003ff638038062003ff683398181016040528101906200003791906200027c565b6040518060400160405280600a81526020017f496e6465784173736574000000000000000000000000000000000000000000008152506040518060400160405280600381526020017f444b47000000000000000000000000000000000000000000000000000000000081525082600073ffffffffffffffffffffffffffffffffffffffff168173ffffffffffffffffffffffffffffffffffffffff1603620000de57600080fd5b806000806101000a81548173ffffffffffffffffffffffffffffffffffffffff021916908373ffffffffffffffffffffffffffffffffffffffff1602179055505081600190805190602001906200013792919062000162565b5080600290805190602001906200015092919062000162565b50505060006007819055505062000312565b8280546200017090620002dd565b90600052602060002090601f016020900481019282620001945760008555620001e0565b82601f10620001af57805160ff1916838001178555620001e0565b82800160010185558215620001e0579182015b82811115620001df578251825591602001919060010190620001c2565b5b509050620001ef9190620001f3565b5090565b5b808211156200020e576000816000905550600101620001f4565b5090565b600080fd5b600073ffffffffffffffffffffffffffffffffffffffff82169050919050565b6000620002448262000217565b9050919050565b620002568162000237565b81146200026257600080fd5b50565b60008151905062000276816200024b565b92915050565b60006020828403121562000295576200029462000212565b5b6000620002a58482850162000265565b91505092915050565b7f4e487b7100000000000000000000000000000000000000000000000000000000600052602260045260246000fd5b60006002820490506001821680620002f657607f821691505b6020821081036200030c576200030b620002ae565b5b50919050565b613cd480620003226000396000f3fe608060405234801561001057600080fd5b50600436106101215760003560e01c80636352211e116100ad5780639d2f74ad116100715780639d2f74ad14610340578063a22cb4651461035c578063b88d4fde14610378578063c87b56dd14610394578063e985e9c5146103c457610121565b80636352211e146102765780636ae3c072146102a657806370a08231146102d657806382ee11051461030657806395d89b411461032257610121565b806323b872dd116100f457806323b872dd146101c0578063365a86fc146101dc57806342842e0e146101fa57806346976666146102165780635a58db141461024657610121565b806301ffc9a71461012657806306fdde0314610156578063081812fc14610174578063095ea7b3146101a4575b600080fd5b610140600480360381019061013b91906120d5565b6103f4565b60405161014d919061211d565b60405180910390f35b61015e6104d6565b60405161016b91906121d1565b60405180910390f35b61018e60048036038101906101899190612229565b610568565b60405161019b9190612297565b60405180910390f35b6101be60048036038101906101b991906122de565b6105ae565b005b6101da60048036038101906101d5919061231e565b6106c5565b005b6101e4610725565b6040516101f191906123d0565b60405180910390f35b610214600480360381019061020f919061231e565b610749565b005b610230600480360381019061022b91906123eb565b610769565b60405161023d9190612444565b60405180910390f35b610260600480360381019061025b9190612229565b61079b565b60405161026d919061246e565b60405180910390f35b610290600480360381019061028b9190612229565b6107ae565b60405161029d9190612297565b60405180910390f35b6102c060048036038101906102bb9190612229565b61085f565b6040516102cd9190612547565b60405180910390f35b6102f060048036038101906102eb9190612569565b6108cd565b6040516102fd919061246e565b60405180910390f35b610320600480360381019061031b91906129db565b610984565b005b61032a610ec4565b60405161033791906121d1565b60405180910390f35b61035a60048036038101906103559190612ba0565b610f56565b005b61037660048036038101906103719190612ce3565b61134c565b005b610392600480360381019061038d9190612d23565b611362565b005b6103ae60048036038101906103a99190612229565b6113c4565b6040516103bb91906121d1565b60405180910390f35b6103de60048036038101906103d99190612da6565b61142c565b6040516103eb919061211d565b60405180910390f35b60007f80ac58cd000000000000000000000000000000000000000000000000000000007bffffffffffffffffffffffffffffffffffffffffffffffffffffffff1916827bffffffffffffffffffffffffffffffffffffffffffffffffffffffff191614806104bf57507f5b5e139f000000000000000000000000000000000000000000000000000000007bffffffffffffffffffffffffffffffffffffffffffffffffffffffff1916827bffffffffffffffffffffffffffffffffffffffffffffffffffffffff1916145b806104cf57506104ce826114c0565b5b9050919050565b6060600180546104e590612e15565b80601f016020809104026020016040519081016040528092919081815260200182805461051190612e15565b801561055e5780601f106105335761010080835404028352916020019161055e565b820191906000526020600020905b81548152906001019060200180831161054157829003601f168201915b5050505050905090565b60006105738261152a565b6005600083815260200190815260200160002060009054906101000a900473ffffffffffffffffffffffffffffffffffffffff169050919050565b60006105b9826107ae565b90508073ffffffffffffffffffffffffffffffffffffffff168373ffffffffffffffffffffffffffffffffffffffff1603610629576040517f08c379a000000000000000000000000000000000000000000000000000000000815260040161062090612eb8565b60405180910390fd5b8073ffffffffffffffffffffffffffffffffffffffff16610648611575565b73ffffffffffffffffffffffffffffffffffffffff161480610677575061067681610671611575565b61142c565b5b6106b6576040517f08c379a00000000000000000000000000000000000000000000000000000000081526004016106ad90612f4a565b60405180910390fd5b6106c0838361157d565b505050565b6106d66106d0611575565b82611636565b610715576040517f08c379a000000000000000000000000000000000000000000000000000000000815260040161070c90612fdc565b60405180910390fd5b6107208383836116cb565b505050565b60008054906101000a900473ffffffffffffffffffffffffffffffffffffffff1681565b61076483838360405180602001604052806000815250611362565b505050565b6000806107758461085f565b905080838151811061078a57610789612ffc565b5b602002602001015191505092915050565b60006107a68261085f565b519050919050565b6000806003600084815260200190815260200160002060009054906101000a900473ffffffffffffffffffffffffffffffffffffffff169050600073ffffffffffffffffffffffffffffffffffffffff168173ffffffffffffffffffffffffffffffffffffffff1603610856576040517f08c379a000000000000000000000000000000000000000000000000000000000815260040161084d90613077565b60405180910390fd5b80915050919050565b6060600860008381526020019081526020016000206000018054806020026020016040519081016040528092919081815260200182805480156108c157602002820191906000526020600020905b8154815260200190600101908083116108ad575b50505050509050919050565b60008073ffffffffffffffffffffffffffffffffffffffff168273ffffffffffffffffffffffffffffffffffffffff160361093d576040517f08c379a000000000000000000000000000000000000000000000000000000000815260040161093490613109565b60405180910390fd5b600460008373ffffffffffffffffffffffffffffffffffffffff1673ffffffffffffffffffffffffffffffffffffffff168152602001908152602001600020549050919050565b6000801b89036109c9576040517f08c379a00000000000000000000000000000000000000000000000000000000081526004016109c090613175565b60405180910390fd5b6000886fffffffffffffffffffffffffffffffff161180156109ff575061012c886fffffffffffffffffffffffffffffffff1611155b610a3e576040517f08c379a0000000000000000000000000000000000000000000000000000000008152600401610a35906131e1565b60405180910390fd5b60008551118015610a5157506005855111155b610a90576040517f08c379a0000000000000000000000000000000000000000000000000000000008152600401610a8790613273565b60405180910390fd5b6000845111610ad4576040517f08c379a0000000000000000000000000000000000000000000000000000000008152600401610acb90613305565b60405180910390fd5b60008361ffff1611610b1b576040517f08c379a0000000000000000000000000000000000000000000000000000000008152600401610b1290613371565b60405180910390fd5b6000826bffffffffffffffffffffffff1611610b6c576040517f08c379a0000000000000000000000000000000000000000000000000000000008152600401610b63906133dd565b60405180910390fd5b60006007549050610b7d3382611931565b60076000815480929190610b909061342c565b919050555060008054906101000a900473ffffffffffffffffffffffffffffffffffffffff1673ffffffffffffffffffffffffffffffffffffffff166304433bbc6040518163ffffffff1660e01b8152600401610bec906134c0565b602060405180830381865afa158015610c09573d6000803e3d6000fd5b505050506040513d601f19601f82011682018060405250810190610c2d91906134f5565b73ffffffffffffffffffffffffffffffffffffffff1663798d5f288b338c8c8c6040518663ffffffff1660e01b8152600401610c6d95949392919061354f565b600060405180830381600087803b158015610c8757600080fd5b505af1158015610c9b573d6000803e3d6000fd5b50505050600860008281526020019081526020016000206000018a908060018154018082558091505060019003906000526020600020016000909190919091505560008060009054906101000a900473ffffffffffffffffffffffffffffffffffffffff1673ffffffffffffffffffffffffffffffffffffffff166304433bbc6040518163ffffffff1660e01b8152600401610d36906135ee565b602060405180830381865afa158015610d53573d6000803e3d6000fd5b505050506040513d601f19601f82011682018060405250810190610d7791906134f5565b905060005b87518160ff161015610e715760005b87518160ff161015610e5d578273ffffffffffffffffffffffffffffffffffffffff1663be82c4e23330878d8760ff1681518110610dcc57610dcb612ffc565b5b60200260200101518d8760ff1681518110610dea57610de9612ffc565b5b60200260200101518d8d8d6040518963ffffffff1660e01b8152600401610e18989796959493929190613681565b600060405180830381600087803b158015610e3257600080fd5b505af1158015610e46573d6000803e3d6000fd5b505050508080610e5590613706565b915050610d8b565b508080610e6990613706565b915050610d7c565b508a823073ffffffffffffffffffffffffffffffffffffffff167fac922a526a52087fe0a96f1d8706cea6cfecda5848221cd24dc78515d2b3019d60405160405180910390a45050505050505050505050565b606060028054610ed390612e15565b80601f0160208091040260200160405190810160405280929190818152602001828054610eff90612e15565b8015610f4c5780601f10610f2157610100808354040283529160200191610f4c565b820191906000526020600020905b815481529060010190602001808311610f2f57829003601f168201915b5050505050905090565b610f5f8a6107ae565b73ffffffffffffffffffffffffffffffffffffffff163373ffffffffffffffffffffffffffffffffffffffff1614610fcc576040517f08c379a0000000000000000000000000000000000000000000000000000000008152600401610fc39061377b565b60405180910390fd5b6000801b8903611011576040517f08c379a000000000000000000000000000000000000000000000000000000000815260040161100890613175565b60405180910390fd5b6000886fffffffffffffffffffffffffffffffff16118015611047575061012c886fffffffffffffffffffffffffffffffff1611155b611086576040517f08c379a000000000000000000000000000000000000000000000000000000000815260040161107d906131e1565b60405180910390fd5b6000855111801561109957506005855111155b6110d8576040517f08c379a00000000000000000000000000000000000000000000000000000000081526004016110cf90613273565b60405180910390fd5b600084511161111c576040517f08c379a000000000000000000000000000000000000000000000000000000000815260040161111390613305565b60405180910390fd5b60008361ffff1611611163576040517f08c379a000000000000000000000000000000000000000000000000000000000815260040161115a90613371565b60405180910390fd5b6000826bffffffffffffffffffffffff16116111b4576040517f08c379a00000000000000000000000000000000000000000000000000000000081526004016111ab906133dd565b60405180910390fd5b60008054906101000a900473ffffffffffffffffffffffffffffffffffffffff1673ffffffffffffffffffffffffffffffffffffffff166304433bbc6040518163ffffffff1660e01b815260040161120b906134c0565b602060405180830381865afa158015611228573d6000803e3d6000fd5b505050506040513d601f19601f8201168201806040525081019061124c91906134f5565b73ffffffffffffffffffffffffffffffffffffffff1663798d5f288a338b8b8b6040518663ffffffff1660e01b815260040161128c95949392919061354f565b600060405180830381600087803b1580156112a657600080fd5b505af11580156112ba573d6000803e3d6000fd5b50505050600860008b8152602001908152602001600020600001899080600181540180825580915050600190039060005260206000200160009091909190915055888a3073ffffffffffffffffffffffffffffffffffffffff167f317b13b972f7768c0e191b4ed63c15c50ec6ebc5c7868da502dd43b5fb48cf8660405160405180910390a450505050505050505050565b61135e611357611575565b8383611b0a565b5050565b61137361136d611575565b83611636565b6113b2576040517f08c379a00000000000000000000000000000000000000000000000000000000081526004016113a990612fdc565b60405180910390fd5b6113be84848484611c76565b50505050565b60606113cf8261152a565b60006113d9611cd2565b905060008151116113f95760405180602001604052806000815250611424565b8061140384611ce9565b6040516020016114149291906137d7565b6040516020818303038152906040525b915050919050565b6000600660008473ffffffffffffffffffffffffffffffffffffffff1673ffffffffffffffffffffffffffffffffffffffff16815260200190815260200160002060008373ffffffffffffffffffffffffffffffffffffffff1673ffffffffffffffffffffffffffffffffffffffff16815260200190815260200160002060009054906101000a900460ff16905092915050565b60007f01ffc9a7000000000000000000000000000000000000000000000000000000007bffffffffffffffffffffffffffffffffffffffffffffffffffffffff1916827bffffffffffffffffffffffffffffffffffffffffffffffffffffffff1916149050919050565b61153381611e49565b611572576040517f08c379a000000000000000000000000000000000000000000000000000000000815260040161156990613077565b60405180910390fd5b50565b600033905090565b816005600083815260200190815260200160002060006101000a81548173ffffffffffffffffffffffffffffffffffffffff021916908373ffffffffffffffffffffffffffffffffffffffff160217905550808273ffffffffffffffffffffffffffffffffffffffff166115f0836107ae565b73ffffffffffffffffffffffffffffffffffffffff167f8c5be1e5ebec7d5bd14f71427d1e84f3dd0314c0f7b2291e5b200ac8c7c3b92560405160405180910390a45050565b600080611642836107ae565b90508073ffffffffffffffffffffffffffffffffffffffff168473ffffffffffffffffffffffffffffffffffffffff1614806116845750611683818561142c565b5b806116c257508373ffffffffffffffffffffffffffffffffffffffff166116aa84610568565b73ffffffffffffffffffffffffffffffffffffffff16145b91505092915050565b8273ffffffffffffffffffffffffffffffffffffffff166116eb826107ae565b73ffffffffffffffffffffffffffffffffffffffff1614611741576040517f08c379a00000000000000000000000000000000000000000000000000000000081526004016117389061386d565b60405180910390fd5b600073ffffffffffffffffffffffffffffffffffffffff168273ffffffffffffffffffffffffffffffffffffffff16036117b0576040517f08c379a00000000000000000000000000000000000000000000000000000000081526004016117a7906138ff565b60405180910390fd5b6117bb838383611eb5565b6117c660008261157d565b6001600460008573ffffffffffffffffffffffffffffffffffffffff1673ffffffffffffffffffffffffffffffffffffffff1681526020019081526020016000206000828254611816919061391f565b925050819055506001600460008473ffffffffffffffffffffffffffffffffffffffff1673ffffffffffffffffffffffffffffffffffffffff168152602001908152602001600020600082825461186d9190613953565b92505081905550816003600083815260200190815260200160002060006101000a81548173ffffffffffffffffffffffffffffffffffffffff021916908373ffffffffffffffffffffffffffffffffffffffff160217905550808273ffffffffffffffffffffffffffffffffffffffff168473ffffffffffffffffffffffffffffffffffffffff167fddf252ad1be2c89b69c2b068fc378daa952ba7f163c4a11628f55a4df523b3ef60405160405180910390a461192c838383611eba565b505050565b600073ffffffffffffffffffffffffffffffffffffffff168273ffffffffffffffffffffffffffffffffffffffff16036119a0576040517f08c379a0000000000000000000000000000000000000000000000000000000008152600401611997906139f5565b60405180910390fd5b6119a981611e49565b156119e9576040517f08c379a00000000000000000000000000000000000000000000000000000000081526004016119e090613a61565b60405180910390fd5b6119f560008383611eb5565b6001600460008473ffffffffffffffffffffffffffffffffffffffff1673ffffffffffffffffffffffffffffffffffffffff1681526020019081526020016000206000828254611a459190613953565b92505081905550816003600083815260200190815260200160002060006101000a81548173ffffffffffffffffffffffffffffffffffffffff021916908373ffffffffffffffffffffffffffffffffffffffff160217905550808273ffffffffffffffffffffffffffffffffffffffff16600073ffffffffffffffffffffffffffffffffffffffff167fddf252ad1be2c89b69c2b068fc378daa952ba7f163c4a11628f55a4df523b3ef60405160405180910390a4611b0660008383611eba565b5050565b8173ffffffffffffffffffffffffffffffffffffffff168373ffffffffffffffffffffffffffffffffffffffff1603611b78576040517f08c379a0000000000000000000000000000000000000000000000000000000008152600401611b6f90613acd565b60405180910390fd5b80600660008573ffffffffffffffffffffffffffffffffffffffff1673ffffffffffffffffffffffffffffffffffffffff16815260200190815260200160002060008473ffffffffffffffffffffffffffffffffffffffff1673ffffffffffffffffffffffffffffffffffffffff16815260200190815260200160002060006101000a81548160ff0219169083151502179055508173ffffffffffffffffffffffffffffffffffffffff168373ffffffffffffffffffffffffffffffffffffffff167f17307eab39ab6107e8899845ad3d59bd9653f200f220920489ca2b5937696c3183604051611c69919061211d565b60405180910390a3505050565b611c818484846116cb565b611c8d84848484611ebf565b611ccc576040517f08c379a0000000000000000000000000000000000000000000000000000000008152600401611cc390613b5f565b60405180910390fd5b50505050565b606060405180602001604052806000815250905090565b606060008203611d30576040518060400160405280600181526020017f30000000000000000000000000000000000000000000000000000000000000008152509050611e44565b600082905060005b60008214611d62578080611d4b9061342c565b915050600a82611d5b9190613bae565b9150611d38565b60008167ffffffffffffffff811115611d7e57611d7d61268f565b5b6040519080825280601f01601f191660200182016040528015611db05781602001600182028036833780820191505090505b5090505b60008514611e3d57600182611dc9919061391f565b9150600a85611dd89190613bdf565b6030611de49190613953565b60f81b818381518110611dfa57611df9612ffc565b5b60200101907effffffffffffffffffffffffffffffffffffffffffffffffffffffffffffff1916908160001a905350600a85611e369190613bae565b9450611db4565b8093505050505b919050565b60008073ffffffffffffffffffffffffffffffffffffffff166003600084815260200190815260200160002060009054906101000a900473ffffffffffffffffffffffffffffffffffffffff1673ffffffffffffffffffffffffffffffffffffffff1614159050919050565b505050565b505050565b6000611ee08473ffffffffffffffffffffffffffffffffffffffff16612046565b15612039578373ffffffffffffffffffffffffffffffffffffffff1663150b7a02611f09611575565b8786866040518563ffffffff1660e01b8152600401611f2b9493929190613c10565b6020604051808303816000875af1925050508015611f6757506040513d601f19601f82011682018060405250810190611f649190613c71565b60015b611fe9573d8060008114611f97576040519150601f19603f3d011682016040523d82523d6000602084013e611f9c565b606091505b506000815103611fe1576040517f08c379a0000000000000000000000000000000000000000000000000000000008152600401611fd890613b5f565b60405180910390fd5b805181602001fd5b63150b7a0260e01b7bffffffffffffffffffffffffffffffffffffffffffffffffffffffff1916817bffffffffffffffffffffffffffffffffffffffffffffffffffffffff19161491505061203e565b600190505b949350505050565b6000808273ffffffffffffffffffffffffffffffffffffffff163b119050919050565b6000604051905090565b600080fd5b600080fd5b60007fffffffff0000000000000000000000000000000000000000000000000000000082169050919050565b6120b28161207d565b81146120bd57600080fd5b50565b6000813590506120cf816120a9565b92915050565b6000602082840312156120eb576120ea612073565b5b60006120f9848285016120c0565b91505092915050565b60008115159050919050565b61211781612102565b82525050565b6000602082019050612132600083018461210e565b92915050565b600081519050919050565b600082825260208201905092915050565b60005b83811015612172578082015181840152602081019050612157565b83811115612181576000848401525b50505050565b6000601f19601f8301169050919050565b60006121a382612138565b6121ad8185612143565b93506121bd818560208601612154565b6121c681612187565b840191505092915050565b600060208201905081810360008301526121eb8184612198565b905092915050565b6000819050919050565b612206816121f3565b811461221157600080fd5b50565b600081359050612223816121fd565b92915050565b60006020828403121561223f5761223e612073565b5b600061224d84828501612214565b91505092915050565b600073ffffffffffffffffffffffffffffffffffffffff82169050919050565b600061228182612256565b9050919050565b61229181612276565b82525050565b60006020820190506122ac6000830184612288565b92915050565b6122bb81612276565b81146122c657600080fd5b50565b6000813590506122d8816122b2565b92915050565b600080604083850312156122f5576122f4612073565b5b6000612303858286016122c9565b925050602061231485828601612214565b9150509250929050565b60008060006060848603121561233757612336612073565b5b6000612345868287016122c9565b9350506020612356868287016122c9565b925050604061236786828701612214565b9150509250925092565b6000819050919050565b600061239661239161238c84612256565b612371565b612256565b9050919050565b60006123a88261237b565b9050919050565b60006123ba8261239d565b9050919050565b6123ca816123af565b82525050565b60006020820190506123e560008301846123c1565b92915050565b6000806040838503121561240257612401612073565b5b600061241085828601612214565b925050602061242185828601612214565b9150509250929050565b6000819050919050565b61243e8161242b565b82525050565b60006020820190506124596000830184612435565b92915050565b612468816121f3565b82525050565b6000602082019050612483600083018461245f565b92915050565b600081519050919050565b600082825260208201905092915050565b6000819050602082019050919050565b6124be8161242b565b82525050565b60006124d083836124b5565b60208301905092915050565b6000602082019050919050565b60006124f482612489565b6124fe8185612494565b9350612509836124a5565b8060005b8381101561253a57815161252188826124c4565b975061252c836124dc565b92505060018101905061250d565b5085935050505092915050565b6000602082019050818103600083015261256181846124e9565b905092915050565b60006020828403121561257f5761257e612073565b5b600061258d848285016122c9565b91505092915050565b61259f8161242b565b81146125aa57600080fd5b50565b6000813590506125bc81612596565b92915050565b60006fffffffffffffffffffffffffffffffff82169050919050565b6125e7816125c2565b81146125f257600080fd5b50565b600081359050612604816125de565b92915050565b600063ffffffff82169050919050565b6126238161260a565b811461262e57600080fd5b50565b6000813590506126408161261a565b92915050565b60006bffffffffffffffffffffffff82169050919050565b61266781612646565b811461267257600080fd5b50565b6000813590506126848161265e565b92915050565b600080fd5b7f4e487b7100000000000000000000000000000000000000000000000000000000600052604160045260246000fd5b6126c782612187565b810181811067ffffffffffffffff821117156126e6576126e561268f565b5b80604052505050565b60006126f9612069565b905061270582826126be565b919050565b600067ffffffffffffffff8211156127255761272461268f565b5b602082029050602081019050919050565b600080fd5b600080fd5b600067ffffffffffffffff82111561275b5761275a61268f565b5b61276482612187565b9050602081019050919050565b82818337600083830152505050565b600061279361278e84612740565b6126ef565b9050828152602081018484840111156127af576127ae61273b565b5b6127ba848285612771565b509392505050565b600082601f8301126127d7576127d661268a565b5b81356127e7848260208601612780565b91505092915050565b60006128036127fe8461270a565b6126ef565b9050808382526020820190506020840283018581111561282657612825612736565b5b835b8181101561286d57803567ffffffffffffffff81111561284b5761284a61268a565b5b80860161285889826127c2565b85526020850194505050602081019050612828565b5050509392505050565b600082601f83011261288c5761288b61268a565b5b813561289c8482602086016127f0565b91505092915050565b600067ffffffffffffffff8211156128c0576128bf61268f565b5b602082029050602081019050919050565b600060ff82169050919050565b6128e7816128d1565b81146128f257600080fd5b50565b600081359050612904816128de565b92915050565b600061291d612918846128a5565b6126ef565b905080838252602082019050602084028301858111156129405761293f612736565b5b835b81811015612969578061295588826128f5565b845260208401935050602081019050612942565b5050509392505050565b600082601f8301126129885761298761268a565b5b813561299884826020860161290a565b91505092915050565b600061ffff82169050919050565b6129b8816129a1565b81146129c357600080fd5b50565b6000813590506129d5816129af565b92915050565b60008060008060008060008060006101208a8c0312156129fe576129fd612073565b5b6000612a0c8c828d016125ad565b9950506020612a1d8c828d016125f5565b9850506040612a2e8c828d01612631565b9750506060612a3f8c828d01612675565b96505060808a013567ffffffffffffffff811115612a6057612a5f612078565b5b612a6c8c828d01612877565b95505060a08a013567ffffffffffffffff811115612a8d57612a8c612078565b5b612a998c828d01612973565b94505060c0612aaa8c828d016129c6565b93505060e0612abb8c828d01612675565b925050610100612acd8c828d016128f5565b9150509295985092959850929598565b600067ffffffffffffffff821115612af857612af761268f565b5b602082029050602081019050919050565b6000612b1c612b1784612add565b6126ef565b90508083825260208201905060208402830185811115612b3f57612b3e612736565b5b835b81811015612b685780612b5488826125ad565b845260208401935050602081019050612b41565b5050509392505050565b600082601f830112612b8757612b8661268a565b5b8135612b97848260208601612b09565b91505092915050565b6000806000806000806000806000806101408b8d031215612bc457612bc3612073565b5b6000612bd28d828e01612214565b9a50506020612be38d828e016125ad565b9950506040612bf48d828e016125f5565b9850506060612c058d828e01612631565b9750506080612c168d828e01612675565b96505060a08b013567ffffffffffffffff811115612c3757612c36612078565b5b612c438d828e01612b72565b95505060c08b013567ffffffffffffffff811115612c6457612c63612078565b5b612c708d828e01612973565b94505060e0612c818d828e016129c6565b935050610100612c938d828e01612675565b925050610120612ca58d828e016128f5565b9150509295989b9194979a5092959850565b612cc081612102565b8114612ccb57600080fd5b50565b600081359050612cdd81612cb7565b92915050565b60008060408385031215612cfa57612cf9612073565b5b6000612d08858286016122c9565b9250506020612d1985828601612cce565b9150509250929050565b60008060008060808587031215612d3d57612d3c612073565b5b6000612d4b878288016122c9565b9450506020612d5c878288016122c9565b9350506040612d6d87828801612214565b925050606085013567ffffffffffffffff811115612d8e57612d8d612078565b5b612d9a878288016127c2565b91505092959194509250565b60008060408385031215612dbd57612dbc612073565b5b6000612dcb858286016122c9565b9250506020612ddc858286016122c9565b9150509250929050565b7f4e487b7100000000000000000000000000000000000000000000000000000000600052602260045260246000fd5b60006002820490506001821680612e2d57607f821691505b602082108103612e4057612e3f612de6565b5b50919050565b7f4552433732313a20617070726f76616c20746f2063757272656e74206f776e6560008201527f7200000000000000000000000000000000000000000000000000000000000000602082015250565b6000612ea2602183612143565b9150612ead82612e46565b604082019050919050565b60006020820190508181036000830152612ed181612e95565b9050919050565b7f4552433732313a20617070726f76652063616c6c6572206973206e6f7420746f60008201527f6b656e206f776e6572206e6f7220617070726f76656420666f7220616c6c0000602082015250565b6000612f34603e83612143565b9150612f3f82612ed8565b604082019050919050565b60006020820190508181036000830152612f6381612f27565b9050919050565b7f4552433732313a2063616c6c6572206973206e6f7420746f6b656e206f776e6560008201527f72206e6f7220617070726f766564000000000000000000000000000000000000602082015250565b6000612fc6602e83612143565b9150612fd182612f6a565b604082019050919050565b60006020820190508181036000830152612ff581612fb9565b9050919050565b7f4e487b7100000000000000000000000000000000000000000000000000000000600052603260045260246000fd5b7f4552433732313a20696e76616c696420746f6b656e2049440000000000000000600082015250565b6000613061601883612143565b915061306c8261302b565b602082019050919050565b6000602082019050818103600083015261309081613054565b9050919050565b7f4552433732313a2061646472657373207a65726f206973206e6f74206120766160008201527f6c6964206f776e65720000000000000000000000000000000000000000000000602082015250565b60006130f3602983612143565b91506130fe82613097565b604082019050919050565b60006020820190508181036000830152613122816130e6565b9050919050565b7f617373657274696f6e49642063616e6e6f742062652030000000000000000000600082015250565b600061315f601783612143565b915061316a82613129565b602082019050919050565b6000602082019050818103600083015261318e81613152565b9050919050565b7f53697a65206973206f7574206f662072616e6765205b312c203330305d000000600082015250565b60006131cb601d83612143565b91506131d682613195565b602082019050919050565b600060208201905081810360008301526131fa816131be565b9050919050565b7f4e756d626572206f66206b6579776f726473206973206f7574206f662072616e60008201527f6765205b312c20355d0000000000000000000000000000000000000000000000602082015250565b600061325d602983612143565b915061326882613201565b604082019050919050565b6000602082019050818103600083015261328c81613250565b9050919050565b7f4e756d626572206f662068617368696e672066756e6374696f6e732063616e6e60008201527f6f74206265203000000000000000000000000000000000000000000000000000602082015250565b60006132ef602783612143565b91506132fa82613293565b604082019050919050565b6000602082019050818103600083015261331e816132e2565b9050919050565b7f45706f636873206e756d6265722063616e6e6f74206265203000000000000000600082015250565b600061335b601983612143565b915061336682613325565b602082019050919050565b6000602082019050818103600083015261338a8161334e565b9050919050565b7f546f6b656e20616d6f756e742063616e6e6f7420626520300000000000000000600082015250565b60006133c7601883612143565b91506133d282613391565b602082019050919050565b600060208201905081810360008301526133f6816133ba565b9050919050565b7f4e487b7100000000000000000000000000000000000000000000000000000000600052601160045260246000fd5b6000613437826121f3565b91507fffffffffffffffffffffffffffffffffffffffffffffffffffffffffffffffff8203613469576134686133fd565b5b600182019050919050565b7f417373657274696f6e5265676973747279000000000000000000000000000000600082015250565b60006134aa601183612143565b91506134b582613474565b602082019050919050565b600060208201905081810360008301526134d98161349d565b9050919050565b6000815190506134ef816122b2565b92915050565b60006020828403121561350b5761350a612073565b5b6000613519848285016134e0565b91505092915050565b61352b816125c2565b82525050565b61353a8161260a565b82525050565b61354981612646565b82525050565b600060a0820190506135646000830188612435565b6135716020830187612288565b61357e6040830186613522565b61358b6060830185613531565b6135986080830184613540565b9695505050505050565b7f5365727669636541677265656d656e7453746f72616765000000000000000000600082015250565b60006135d8601783612143565b91506135e3826135a2565b602082019050919050565b60006020820190508181036000830152613607816135cb565b9050919050565b600081519050919050565b600082825260208201905092915050565b60006136358261360e565b61363f8185613619565b935061364f818560208601612154565b61365881612187565b840191505092915050565b61366c816128d1565b82525050565b61367b816129a1565b82525050565b600061010082019050613697600083018b612288565b6136a4602083018a612288565b6136b1604083018961245f565b81810360608301526136c3818861362a565b90506136d26080830187613663565b6136df60a0830186613672565b6136ec60c0830185613540565b6136f960e0830184613663565b9998505050505050505050565b6000613711826128d1565b915060ff8203613724576137236133fd565b5b600182019050919050565b7f4f6e6c79206f776e65722063616e2075706461746520616e2061737365740000600082015250565b6000613765601e83612143565b91506137708261372f565b602082019050919050565b6000602082019050818103600083015261379481613758565b9050919050565b600081905092915050565b60006137b182612138565b6137bb818561379b565b93506137cb818560208601612154565b80840191505092915050565b60006137e382856137a6565b91506137ef82846137a6565b91508190509392505050565b7f4552433732313a207472616e736665722066726f6d20696e636f72726563742060008201527f6f776e6572000000000000000000000000000000000000000000000000000000602082015250565b6000613857602583612143565b9150613862826137fb565b604082019050919050565b600060208201905081810360008301526138868161384a565b9050919050565b7f4552433732313a207472616e7366657220746f20746865207a65726f2061646460008201527f7265737300000000000000000000000000000000000000000000000000000000602082015250565b60006138e9602483612143565b91506138f48261388d565b604082019050919050565b60006020820190508181036000830152613918816138dc565b9050919050565b600061392a826121f3565b9150613935836121f3565b925082821015613948576139476133fd565b5b828203905092915050565b600061395e826121f3565b9150613969836121f3565b9250827fffffffffffffffffffffffffffffffffffffffffffffffffffffffffffffffff0382111561399e5761399d6133fd565b5b828201905092915050565b7f4552433732313a206d696e7420746f20746865207a65726f2061646472657373600082015250565b60006139df602083612143565b91506139ea826139a9565b602082019050919050565b60006020820190508181036000830152613a0e816139d2565b9050919050565b7f4552433732313a20746f6b656e20616c7265616479206d696e74656400000000600082015250565b6000613a4b601c83612143565b9150613a5682613a15565b602082019050919050565b60006020820190508181036000830152613a7a81613a3e565b9050919050565b7f4552433732313a20617070726f766520746f2063616c6c657200000000000000600082015250565b6000613ab7601983612143565b9150613ac282613a81565b602082019050919050565b60006020820190508181036000830152613ae681613aaa565b9050919050565b7f4552433732313a207472616e7366657220746f206e6f6e20455243373231526560008201527f63656976657220696d706c656d656e7465720000000000000000000000000000602082015250565b6000613b49603283612143565b9150613b5482613aed565b604082019050919050565b60006020820190508181036000830152613b7881613b3c565b9050919050565b7f4e487b7100000000000000000000000000000000000000000000000000000000600052601260045260246000fd5b6000613bb9826121f3565b9150613bc4836121f3565b925082613bd457613bd3613b7f565b5b828204905092915050565b6000613bea826121f3565b9150613bf5836121f3565b925082613c0557613c04613b7f565b5b828206905092915050565b6000608082019050613c256000830187612288565b613c326020830186612288565b613c3f604083018561245f565b8181036060830152613c51818461362a565b905095945050505050565b600081519050613c6b816120a9565b92915050565b600060208284031215613c8757613c86612073565b5b6000613c9584828501613c5c565b9150509291505056fea2646970667358221220f9e64a99e5b05a702468d08ed765bbd21eafc1e3f71b37b14c0bac820cae177b64736f6c634300080e0033",
  "immutableReferences": {},
  "source": "// SPDX-License-Identifier: MIT\n\npragma solidity ^0.8.0;\n\nimport { AbstractAsset } from \"./AbstractAsset.sol\";\nimport { AssertionRegistry } from \"../AssertionRegistry.sol\";\nimport { ERC721 } from \"@openzeppelin/contracts/token/ERC721/ERC721.sol\";\nimport { IERC20 } from \"@openzeppelin/contracts/token/ERC20/IERC20.sol\";\nimport { ServiceAgreementStorage } from \"../storage/ServiceAgreementStorage.sol\";\n\ncontract IndexAsset is AbstractAsset, ERC721 {\n    struct AssetRecord {\n        bytes32[] assertions;\n    }\n\n    uint256 private _tokenId;\n\n    mapping (uint256 => AssetRecord) assetRecords;\n\n    constructor(address hubAddress)\n        AbstractAsset(hubAddress)\n        ERC721(\"IndexAsset\", \"DKG\")\n    {\n        _tokenId = 0;\n    }\n\n    function createAsset(\n        bytes32 assertionId,\n        uint128 size,\n        uint32 triplesNumber,\n        uint96 chunksNumber,\n        bytes[] memory keywords,\n        uint8[] memory hashFunctionIds,\n        uint16 epochsNumber,\n        uint96 tokenAmount,\n        uint8 scoreFunctionId\n    ) public\n    {\n\n        // address operationalWallet,\n        // address assetContract,\n        // uint256 tokenId,\n        // bytes memory keyword,\n        // uint8 hashFunctionId,\n        // uint16 epochsNumber,\n        // uint96 tokenAmount,\n        // uint8 scoreFunctionId\n\n        require(assertionId != bytes32(0), \"assertionId cannot be 0\");\n        require(size > 0 && size <= 300, \"Size is out of range [1, 300]\");\n        require(keywords.length > 0 && keywords.length <= 5, \"Number of keywords is out of range [1, 5]\");\n        require(hashFunctionIds.length > 0, \"Number of hashing functions cannot be 0\");\n        require(epochsNumber > 0, \"Epochs number cannot be 0\");\n        require(tokenAmount > 0, \"Token amount cannot be 0\");\n\n        uint256 tokenId = _tokenId;\n        _mint(msg.sender, tokenId);\n        _tokenId++;\n\n        AssertionRegistry(hub.getContractAddress(\"AssertionRegistry\")).createAssertionRecord(\n            assertionId,\n            msg.sender,\n            size,\n            triplesNumber,\n            chunksNumber\n        );\n        assetRecords[tokenId].assertions.push(assertionId);\n\n        ServiceAgreementStorage serviceAgreementStorage = ServiceAgreementStorage(\n            hub.getContractAddress(\"ServiceAgreementStorage\")\n        );\n        for (uint8 i = 0; i < keywords.length; i++) {\n            for (uint8 k = 0; k < hashFunctionIds.length; k++) {\n                serviceAgreementStorage.createServiceAgreement(\n                    msg.sender,\n                    address(this),\n                    tokenId,\n                    keywords[i],\n                    hashFunctionIds[k],\n                    epochsNumber,\n                    tokenAmount,\n                    scoreFunctionId\n                );\n            }\n        }\n\n        emit AssetCreated(address(this), tokenId, assertionId);\n    }\n\n    function updateAsset(\n        uint256 tokenId,\n        bytes32 assertionId,\n        uint128 size,\n        uint32 triplesNumber,\n        uint96 chunksNumber,\n        bytes32[] memory keywords,\n        uint8[] memory hashFunctionIds,\n        uint16 epochsNumber,\n        uint96 tokenAmount,\n        uint8 scoreFunctionId\n    ) public {\n        require(msg.sender == ownerOf(tokenId), \"Only owner can update an asset\");\n        require(assertionId != bytes32(0), \"assertionId cannot be 0\");\n        require(size > 0 && size <= 300, \"Size is out of range [1, 300]\");\n        require(keywords.length > 0 && keywords.length <= 5, \"Number of keywords is out of range [1, 5]\");\n        require(hashFunctionIds.length > 0, \"Number of hashing functions cannot be 0\");\n        require(epochsNumber > 0, \"Epochs number cannot be 0\");\n        require(tokenAmount > 0, \"Token amount cannot be 0\");\n\n        AssertionRegistry(hub.getContractAddress(\"AssertionRegistry\")).createAssertionRecord(\n            assertionId,\n            msg.sender,\n            size,\n            triplesNumber,\n            chunksNumber\n        );\n        assetRecords[tokenId].assertions.push(assertionId);\n\n        // TODO: Finish Service Agreements update\n        // ServiceAgreementStorage(hub.getContractAddress(\"ServiceAgreementStorage\")).updateServiceAgreement(\n        //     msg.sender,\n        //     address(this),\n        //     tokenId,\n        //     abi.encodePacked(address(this), tokenId),\n        //     0,\n        //     epochsNumber,\n        //     tokenAmount\n        // );\n\n        emit AssetUpdated(address(this), tokenId, assertionId);\n    }\n\n    function getAssertions(uint256 tokenId)\n        override\n        public\n        view\n        returns (bytes32 [] memory)\n    {\n        return assetRecords[tokenId].assertions;\n    }\n}",
  "sourcePath": "/Users/waving/Desktop/OriginTrail/dkg-evm-module/contracts/assets/IndexAsset.sol",
  "compiler": {
    "name": "solc",
    "version": "0.8.14+commit.80d49f37.Emscripten.clang"
  },
  "schemaVersion": "3.4.10",
  "updatedAt": "2022-11-21T10:31:02.605Z",
  "devdoc": {
    "kind": "dev",
    "methods": {
      "approve(address,uint256)": {
        "details": "See {IERC721-approve}."
      },
      "balanceOf(address)": {
        "details": "See {IERC721-balanceOf}."
      },
      "getApproved(uint256)": {
        "details": "See {IERC721-getApproved}."
      },
      "isApprovedForAll(address,address)": {
        "details": "See {IERC721-isApprovedForAll}."
      },
      "name()": {
        "details": "See {IERC721Metadata-name}."
      },
      "ownerOf(uint256)": {
        "details": "See {IERC721-ownerOf}."
      },
      "safeTransferFrom(address,address,uint256)": {
        "details": "See {IERC721-safeTransferFrom}."
      },
      "safeTransferFrom(address,address,uint256,bytes)": {
        "details": "See {IERC721-safeTransferFrom}."
      },
      "setApprovalForAll(address,bool)": {
        "details": "See {IERC721-setApprovalForAll}."
      },
      "supportsInterface(bytes4)": {
        "details": "See {IERC165-supportsInterface}."
      },
      "symbol()": {
        "details": "See {IERC721Metadata-symbol}."
      },
      "tokenURI(uint256)": {
        "details": "See {IERC721Metadata-tokenURI}."
      },
      "transferFrom(address,address,uint256)": {
        "details": "See {IERC721-transferFrom}."
      }
    },
    "version": 1
  },
  "userdoc": {
    "kind": "user",
    "methods": {},
    "version": 1
  }
}