{
  "contractName": "IndexAsset",
  "abi": [
    {
      "inputs": [
        {
          "internalType": "address",
          "name": "hubAddress",
          "type": "address"
        }
      ],
      "stateMutability": "nonpayable",
      "type": "constructor"
    },
    {
      "anonymous": false,
      "inputs": [
        {
          "indexed": true,
          "internalType": "address",
          "name": "owner",
          "type": "address"
        },
        {
          "indexed": true,
          "internalType": "address",
          "name": "approved",
          "type": "address"
        },
        {
          "indexed": true,
          "internalType": "uint256",
          "name": "tokenId",
          "type": "uint256"
        }
      ],
      "name": "Approval",
      "type": "event"
    },
    {
      "anonymous": false,
      "inputs": [
        {
          "indexed": true,
          "internalType": "address",
          "name": "owner",
          "type": "address"
        },
        {
          "indexed": true,
          "internalType": "address",
          "name": "operator",
          "type": "address"
        },
        {
          "indexed": false,
          "internalType": "bool",
          "name": "approved",
          "type": "bool"
        }
      ],
      "name": "ApprovalForAll",
      "type": "event"
    },
    {
      "anonymous": false,
      "inputs": [
        {
          "indexed": true,
          "internalType": "address",
          "name": "assetContract",
          "type": "address"
        },
        {
          "indexed": true,
          "internalType": "uint256",
          "name": "tokenId",
          "type": "uint256"
        },
        {
          "indexed": true,
          "internalType": "bytes32",
          "name": "stateCommitHash",
          "type": "bytes32"
        }
      ],
      "name": "AssetCreated",
      "type": "event"
    },
    {
      "anonymous": false,
      "inputs": [
        {
          "indexed": true,
          "internalType": "address",
          "name": "assetContract",
          "type": "address"
        },
        {
          "indexed": true,
          "internalType": "uint256",
          "name": "tokenId",
          "type": "uint256"
        },
        {
          "indexed": true,
          "internalType": "bytes32",
          "name": "stateCommitHash",
          "type": "bytes32"
        }
      ],
      "name": "AssetUpdated",
      "type": "event"
    },
    {
      "anonymous": false,
      "inputs": [
        {
          "indexed": true,
          "internalType": "address",
          "name": "from",
          "type": "address"
        },
        {
          "indexed": true,
          "internalType": "address",
          "name": "to",
          "type": "address"
        },
        {
          "indexed": true,
          "internalType": "uint256",
          "name": "tokenId",
          "type": "uint256"
        }
      ],
      "name": "Transfer",
      "type": "event"
    },
    {
      "inputs": [
        {
          "internalType": "address",
          "name": "to",
          "type": "address"
        },
        {
          "internalType": "uint256",
          "name": "tokenId",
          "type": "uint256"
        }
      ],
      "name": "approve",
      "outputs": [],
      "stateMutability": "nonpayable",
      "type": "function"
    },
    {
      "inputs": [
        {
          "internalType": "address",
          "name": "owner",
          "type": "address"
        }
      ],
      "name": "balanceOf",
      "outputs": [
        {
          "internalType": "uint256",
          "name": "",
          "type": "uint256"
        }
      ],
      "stateMutability": "view",
      "type": "function"
    },
    {
      "inputs": [
        {
          "internalType": "uint256",
          "name": "tokenId",
          "type": "uint256"
        }
      ],
      "name": "getApproved",
      "outputs": [
        {
          "internalType": "address",
          "name": "",
          "type": "address"
        }
      ],
      "stateMutability": "view",
      "type": "function"
    },
    {
      "inputs": [
        {
          "internalType": "uint256",
          "name": "tokenId",
          "type": "uint256"
        },
        {
          "internalType": "uint256",
          "name": "index",
          "type": "uint256"
        }
      ],
      "name": "getAssertionByIndex",
      "outputs": [
        {
          "internalType": "bytes32",
          "name": "",
          "type": "bytes32"
        }
      ],
      "stateMutability": "view",
      "type": "function"
    },
    {
      "inputs": [
        {
          "internalType": "uint256",
          "name": "tokenId",
          "type": "uint256"
        }
      ],
      "name": "getAssertionsLength",
      "outputs": [
        {
          "internalType": "uint256",
          "name": "",
          "type": "uint256"
        }
      ],
      "stateMutability": "view",
      "type": "function"
    },
    {
      "inputs": [
        {
          "internalType": "uint256",
          "name": "tokenId",
          "type": "uint256"
        }
      ],
      "name": "getLatestAssertion",
      "outputs": [
        {
          "internalType": "bytes32",
          "name": "",
          "type": "bytes32"
        }
      ],
      "stateMutability": "view",
      "type": "function"
    },
    {
      "inputs": [],
      "name": "hub",
      "outputs": [
        {
          "internalType": "contract Hub",
          "name": "",
          "type": "address"
        }
      ],
      "stateMutability": "view",
      "type": "function"
    },
    {
      "inputs": [
        {
          "internalType": "address",
          "name": "owner",
          "type": "address"
        },
        {
          "internalType": "address",
          "name": "operator",
          "type": "address"
        }
      ],
      "name": "isApprovedForAll",
      "outputs": [
        {
          "internalType": "bool",
          "name": "",
          "type": "bool"
        }
      ],
      "stateMutability": "view",
      "type": "function"
    },
    {
      "inputs": [],
      "name": "name",
      "outputs": [
        {
          "internalType": "string",
          "name": "",
          "type": "string"
        }
      ],
      "stateMutability": "view",
      "type": "function"
    },
    {
      "inputs": [
        {
          "internalType": "uint256",
          "name": "tokenId",
          "type": "uint256"
        }
      ],
      "name": "ownerOf",
      "outputs": [
        {
          "internalType": "address",
          "name": "",
          "type": "address"
        }
      ],
      "stateMutability": "view",
      "type": "function"
    },
    {
      "inputs": [
        {
          "internalType": "address",
          "name": "from",
          "type": "address"
        },
        {
          "internalType": "address",
          "name": "to",
          "type": "address"
        },
        {
          "internalType": "uint256",
          "name": "tokenId",
          "type": "uint256"
        }
      ],
      "name": "safeTransferFrom",
      "outputs": [],
      "stateMutability": "nonpayable",
      "type": "function"
    },
    {
      "inputs": [
        {
          "internalType": "address",
          "name": "from",
          "type": "address"
        },
        {
          "internalType": "address",
          "name": "to",
          "type": "address"
        },
        {
          "internalType": "uint256",
          "name": "tokenId",
          "type": "uint256"
        },
        {
          "internalType": "bytes",
          "name": "data",
          "type": "bytes"
        }
      ],
      "name": "safeTransferFrom",
      "outputs": [],
      "stateMutability": "nonpayable",
      "type": "function"
    },
    {
      "inputs": [
        {
          "internalType": "address",
          "name": "operator",
          "type": "address"
        },
        {
          "internalType": "bool",
          "name": "approved",
          "type": "bool"
        }
      ],
      "name": "setApprovalForAll",
      "outputs": [],
      "stateMutability": "nonpayable",
      "type": "function"
    },
    {
      "inputs": [
        {
          "internalType": "bytes4",
          "name": "interfaceId",
          "type": "bytes4"
        }
      ],
      "name": "supportsInterface",
      "outputs": [
        {
          "internalType": "bool",
          "name": "",
          "type": "bool"
        }
      ],
      "stateMutability": "view",
      "type": "function"
    },
    {
      "inputs": [],
      "name": "symbol",
      "outputs": [
        {
          "internalType": "string",
          "name": "",
          "type": "string"
        }
      ],
      "stateMutability": "view",
      "type": "function"
    },
    {
      "inputs": [
        {
          "internalType": "uint256",
          "name": "tokenId",
          "type": "uint256"
        }
      ],
      "name": "tokenURI",
      "outputs": [
        {
          "internalType": "string",
          "name": "",
          "type": "string"
        }
      ],
      "stateMutability": "view",
      "type": "function"
    },
    {
      "inputs": [
        {
          "internalType": "address",
          "name": "from",
          "type": "address"
        },
        {
          "internalType": "address",
          "name": "to",
          "type": "address"
        },
        {
          "internalType": "uint256",
          "name": "tokenId",
          "type": "uint256"
        }
      ],
      "name": "transferFrom",
      "outputs": [],
      "stateMutability": "nonpayable",
      "type": "function"
    },
    {
      "inputs": [
        {
          "internalType": "bytes32",
          "name": "assertionId",
          "type": "bytes32"
        },
        {
          "internalType": "uint128",
          "name": "size",
          "type": "uint128"
        },
        {
          "internalType": "uint32",
          "name": "triplesNumber",
          "type": "uint32"
        },
        {
          "internalType": "uint96",
          "name": "chunksNumber",
          "type": "uint96"
        },
        {
          "internalType": "bytes[]",
          "name": "keywords",
          "type": "bytes[]"
        },
        {
          "internalType": "uint8[]",
          "name": "hashFunctionIds",
          "type": "uint8[]"
        },
        {
          "internalType": "uint16",
          "name": "epochsNumber",
          "type": "uint16"
        },
        {
          "internalType": "uint96",
          "name": "tokenAmount",
          "type": "uint96"
        },
        {
          "internalType": "uint8",
          "name": "scoreFunctionId",
          "type": "uint8"
        }
      ],
      "name": "createAsset",
      "outputs": [],
      "stateMutability": "nonpayable",
      "type": "function"
    },
    {
      "inputs": [
        {
          "internalType": "uint256",
          "name": "tokenId",
          "type": "uint256"
        },
        {
          "internalType": "bytes32",
          "name": "assertionId",
          "type": "bytes32"
        },
        {
          "internalType": "uint128",
          "name": "size",
          "type": "uint128"
        },
        {
          "internalType": "uint32",
          "name": "triplesNumber",
          "type": "uint32"
        },
        {
          "internalType": "uint96",
          "name": "chunksNumber",
          "type": "uint96"
        },
        {
          "internalType": "bytes32[]",
          "name": "keywords",
          "type": "bytes32[]"
        },
        {
          "internalType": "uint8[]",
          "name": "hashFunctionIds",
          "type": "uint8[]"
        },
        {
          "internalType": "uint16",
          "name": "epochsNumber",
          "type": "uint16"
        },
        {
          "internalType": "uint96",
          "name": "tokenAmount",
          "type": "uint96"
        },
        {
          "internalType": "uint8",
          "name": "scoreFunctionId",
          "type": "uint8"
        }
      ],
      "name": "updateAsset",
      "outputs": [],
      "stateMutability": "nonpayable",
      "type": "function"
    },
    {
      "inputs": [
        {
          "internalType": "uint256",
          "name": "tokenId",
          "type": "uint256"
        }
      ],
      "name": "getAssertions",
      "outputs": [
        {
          "internalType": "bytes32[]",
          "name": "",
          "type": "bytes32[]"
        }
      ],
      "stateMutability": "view",
      "type": "function"
    }
  ],
  "bytecode": "0x60806040523480156200001157600080fd5b506040516200406f3803806200406f83398181016040528101906200003791906200027c565b6040518060400160405280600a81526020017f496e6465784173736574000000000000000000000000000000000000000000008152506040518060400160405280600381526020017f444b47000000000000000000000000000000000000000000000000000000000081525082600073ffffffffffffffffffffffffffffffffffffffff168173ffffffffffffffffffffffffffffffffffffffff1603620000de57600080fd5b806000806101000a81548173ffffffffffffffffffffffffffffffffffffffff021916908373ffffffffffffffffffffffffffffffffffffffff1602179055505081600190805190602001906200013792919062000162565b5080600290805190602001906200015092919062000162565b50505060006007819055505062000312565b8280546200017090620002dd565b90600052602060002090601f016020900481019282620001945760008555620001e0565b82601f10620001af57805160ff1916838001178555620001e0565b82800160010185558215620001e0579182015b82811115620001df578251825591602001919060010190620001c2565b5b509050620001ef9190620001f3565b5090565b5b808211156200020e576000816000905550600101620001f4565b5090565b600080fd5b600073ffffffffffffffffffffffffffffffffffffffff82169050919050565b6000620002448262000217565b9050919050565b620002568162000237565b81146200026257600080fd5b50565b60008151905062000276816200024b565b92915050565b60006020828403121562000295576200029462000212565b5b6000620002a58482850162000265565b91505092915050565b7f4e487b7100000000000000000000000000000000000000000000000000000000600052602260045260246000fd5b60006002820490506001821680620002f657607f821691505b6020821081036200030c576200030b620002ae565b5b50919050565b613d4d80620003226000396000f3fe608060405234801561001057600080fd5b506004361061012c5760003560e01c80636ae3c072116100ad5780639d2f74ad116100715780639d2f74ad1461037b578063a22cb46514610397578063b88d4fde146103b3578063c87b56dd146103cf578063e985e9c5146103ff5761012c565b80636ae3c072146102b157806370a08231146102e15780637c29b2931461031157806382ee11051461034157806395d89b411461035d5761012c565b8063365a86fc116100f4578063365a86fc146101e757806342842e0e1461020557806346976666146102215780635a58db14146102515780636352211e146102815761012c565b806301ffc9a71461013157806306fdde0314610161578063081812fc1461017f578063095ea7b3146101af57806323b872dd146101cb575b600080fd5b61014b6004803603810190610146919061214e565b61042f565b6040516101589190612196565b60405180910390f35b610169610511565b604051610176919061224a565b60405180910390f35b610199600480360381019061019491906122a2565b6105a3565b6040516101a69190612310565b60405180910390f35b6101c960048036038101906101c49190612357565b6105e9565b005b6101e560048036038101906101e09190612397565b610700565b005b6101ef610760565b6040516101fc9190612449565b60405180910390f35b61021f600480360381019061021a9190612397565b610784565b005b61023b60048036038101906102369190612464565b6107a4565b60405161024891906124bd565b60405180910390f35b61026b600480360381019061026691906122a2565b6107d6565b60405161027891906124e7565b60405180910390f35b61029b600480360381019061029691906122a2565b6107e9565b6040516102a89190612310565b60405180910390f35b6102cb60048036038101906102c691906122a2565b61089a565b6040516102d891906125c0565b60405180910390f35b6102fb60048036038101906102f691906125e2565b610908565b60405161030891906124e7565b60405180910390f35b61032b600480360381019061032691906122a2565b6109bf565b60405161033891906124bd565b60405180910390f35b61035b60048036038101906103569190612a54565b6109fd565b005b610365610f3d565b604051610372919061224a565b60405180910390f35b61039560048036038101906103909190612c19565b610fcf565b005b6103b160048036038101906103ac9190612d5c565b6113c5565b005b6103cd60048036038101906103c89190612d9c565b6113db565b005b6103e960048036038101906103e491906122a2565b61143d565b6040516103f6919061224a565b60405180910390f35b61041960048036038101906104149190612e1f565b6114a5565b6040516104269190612196565b60405180910390f35b60007f80ac58cd000000000000000000000000000000000000000000000000000000007bffffffffffffffffffffffffffffffffffffffffffffffffffffffff1916827bffffffffffffffffffffffffffffffffffffffffffffffffffffffff191614806104fa57507f5b5e139f000000000000000000000000000000000000000000000000000000007bffffffffffffffffffffffffffffffffffffffffffffffffffffffff1916827bffffffffffffffffffffffffffffffffffffffffffffffffffffffff1916145b8061050a575061050982611539565b5b9050919050565b60606001805461052090612e8e565b80601f016020809104026020016040519081016040528092919081815260200182805461054c90612e8e565b80156105995780601f1061056e57610100808354040283529160200191610599565b820191906000526020600020905b81548152906001019060200180831161057c57829003601f168201915b5050505050905090565b60006105ae826115a3565b6005600083815260200190815260200160002060009054906101000a900473ffffffffffffffffffffffffffffffffffffffff169050919050565b60006105f4826107e9565b90508073ffffffffffffffffffffffffffffffffffffffff168373ffffffffffffffffffffffffffffffffffffffff1603610664576040517f08c379a000000000000000000000000000000000000000000000000000000000815260040161065b90612f31565b60405180910390fd5b8073ffffffffffffffffffffffffffffffffffffffff166106836115ee565b73ffffffffffffffffffffffffffffffffffffffff1614806106b257506106b1816106ac6115ee565b6114a5565b5b6106f1576040517f08c379a00000000000000000000000000000000000000000000000000000000081526004016106e890612fc3565b60405180910390fd5b6106fb83836115f6565b505050565b61071161070b6115ee565b826116af565b610750576040517f08c379a000000000000000000000000000000000000000000000000000000000815260040161074790613055565b60405180910390fd5b61075b838383611744565b505050565b60008054906101000a900473ffffffffffffffffffffffffffffffffffffffff1681565b61079f838383604051806020016040528060008152506113db565b505050565b6000806107b08461089a565b90508083815181106107c5576107c4613075565b5b602002602001015191505092915050565b60006107e18261089a565b519050919050565b6000806003600084815260200190815260200160002060009054906101000a900473ffffffffffffffffffffffffffffffffffffffff169050600073ffffffffffffffffffffffffffffffffffffffff168173ffffffffffffffffffffffffffffffffffffffff1603610891576040517f08c379a0000000000000000000000000000000000000000000000000000000008152600401610888906130f0565b60405180910390fd5b80915050919050565b6060600860008381526020019081526020016000206000018054806020026020016040519081016040528092919081815260200182805480156108fc57602002820191906000526020600020905b8154815260200190600101908083116108e8575b50505050509050919050565b60008073ffffffffffffffffffffffffffffffffffffffff168273ffffffffffffffffffffffffffffffffffffffff1603610978576040517f08c379a000000000000000000000000000000000000000000000000000000000815260040161096f90613182565b60405180910390fd5b600460008373ffffffffffffffffffffffffffffffffffffffff1673ffffffffffffffffffffffffffffffffffffffff168152602001908152602001600020549050919050565b6000806109cb8361089a565b905080600182516109dc91906131d1565b815181106109ed576109ec613075565b5b6020026020010151915050919050565b6000801b8903610a42576040517f08c379a0000000000000000000000000000000000000000000000000000000008152600401610a3990613251565b60405180910390fd5b6000886fffffffffffffffffffffffffffffffff16118015610a78575061012c886fffffffffffffffffffffffffffffffff1611155b610ab7576040517f08c379a0000000000000000000000000000000000000000000000000000000008152600401610aae906132bd565b60405180910390fd5b60008551118015610aca57506005855111155b610b09576040517f08c379a0000000000000000000000000000000000000000000000000000000008152600401610b009061334f565b60405180910390fd5b6000845111610b4d576040517f08c379a0000000000000000000000000000000000000000000000000000000008152600401610b44906133e1565b60405180910390fd5b60008361ffff1611610b94576040517f08c379a0000000000000000000000000000000000000000000000000000000008152600401610b8b9061344d565b60405180910390fd5b6000826bffffffffffffffffffffffff1611610be5576040517f08c379a0000000000000000000000000000000000000000000000000000000008152600401610bdc906134b9565b60405180910390fd5b60006007549050610bf633826119aa565b60076000815480929190610c09906134d9565b919050555060008054906101000a900473ffffffffffffffffffffffffffffffffffffffff1673ffffffffffffffffffffffffffffffffffffffff166304433bbc6040518163ffffffff1660e01b8152600401610c659061356d565b602060405180830381865afa158015610c82573d6000803e3d6000fd5b505050506040513d601f19601f82011682018060405250810190610ca691906135a2565b73ffffffffffffffffffffffffffffffffffffffff1663798d5f288b338c8c8c6040518663ffffffff1660e01b8152600401610ce69594939291906135fc565b600060405180830381600087803b158015610d0057600080fd5b505af1158015610d14573d6000803e3d6000fd5b50505050600860008281526020019081526020016000206000018a908060018154018082558091505060019003906000526020600020016000909190919091505560008060009054906101000a900473ffffffffffffffffffffffffffffffffffffffff1673ffffffffffffffffffffffffffffffffffffffff166304433bbc6040518163ffffffff1660e01b8152600401610daf9061369b565b602060405180830381865afa158015610dcc573d6000803e3d6000fd5b505050506040513d601f19601f82011682018060405250810190610df091906135a2565b905060005b87518160ff161015610eea5760005b87518160ff161015610ed6578273ffffffffffffffffffffffffffffffffffffffff1663be82c4e23330878d8760ff1681518110610e4557610e44613075565b5b60200260200101518d8760ff1681518110610e6357610e62613075565b5b60200260200101518d8d8d6040518963ffffffff1660e01b8152600401610e9198979695949392919061372e565b600060405180830381600087803b158015610eab57600080fd5b505af1158015610ebf573d6000803e3d6000fd5b505050508080610ece906137b3565b915050610e04565b508080610ee2906137b3565b915050610df5565b508a823073ffffffffffffffffffffffffffffffffffffffff167fac922a526a52087fe0a96f1d8706cea6cfecda5848221cd24dc78515d2b3019d60405160405180910390a45050505050505050505050565b606060028054610f4c90612e8e565b80601f0160208091040260200160405190810160405280929190818152602001828054610f7890612e8e565b8015610fc55780601f10610f9a57610100808354040283529160200191610fc5565b820191906000526020600020905b815481529060010190602001808311610fa857829003601f168201915b5050505050905090565b610fd88a6107e9565b73ffffffffffffffffffffffffffffffffffffffff163373ffffffffffffffffffffffffffffffffffffffff1614611045576040517f08c379a000000000000000000000000000000000000000000000000000000000815260040161103c90613828565b60405180910390fd5b6000801b890361108a576040517f08c379a000000000000000000000000000000000000000000000000000000000815260040161108190613251565b60405180910390fd5b6000886fffffffffffffffffffffffffffffffff161180156110c0575061012c886fffffffffffffffffffffffffffffffff1611155b6110ff576040517f08c379a00000000000000000000000000000000000000000000000000000000081526004016110f6906132bd565b60405180910390fd5b6000855111801561111257506005855111155b611151576040517f08c379a00000000000000000000000000000000000000000000000000000000081526004016111489061334f565b60405180910390fd5b6000845111611195576040517f08c379a000000000000000000000000000000000000000000000000000000000815260040161118c906133e1565b60405180910390fd5b60008361ffff16116111dc576040517f08c379a00000000000000000000000000000000000000000000000000000000081526004016111d39061344d565b60405180910390fd5b6000826bffffffffffffffffffffffff161161122d576040517f08c379a0000000000000000000000000000000000000000000000000000000008152600401611224906134b9565b60405180910390fd5b60008054906101000a900473ffffffffffffffffffffffffffffffffffffffff1673ffffffffffffffffffffffffffffffffffffffff166304433bbc6040518163ffffffff1660e01b81526004016112849061356d565b602060405180830381865afa1580156112a1573d6000803e3d6000fd5b505050506040513d601f19601f820116820180604052508101906112c591906135a2565b73ffffffffffffffffffffffffffffffffffffffff1663798d5f288a338b8b8b6040518663ffffffff1660e01b81526004016113059594939291906135fc565b600060405180830381600087803b15801561131f57600080fd5b505af1158015611333573d6000803e3d6000fd5b50505050600860008b8152602001908152602001600020600001899080600181540180825580915050600190039060005260206000200160009091909190915055888a3073ffffffffffffffffffffffffffffffffffffffff167f317b13b972f7768c0e191b4ed63c15c50ec6ebc5c7868da502dd43b5fb48cf8660405160405180910390a450505050505050505050565b6113d76113d06115ee565b8383611b83565b5050565b6113ec6113e66115ee565b836116af565b61142b576040517f08c379a000000000000000000000000000000000000000000000000000000000815260040161142290613055565b60405180910390fd5b61143784848484611cef565b50505050565b6060611448826115a3565b6000611452611d4b565b90506000815111611472576040518060200160405280600081525061149d565b8061147c84611d62565b60405160200161148d929190613884565b6040516020818303038152906040525b915050919050565b6000600660008473ffffffffffffffffffffffffffffffffffffffff1673ffffffffffffffffffffffffffffffffffffffff16815260200190815260200160002060008373ffffffffffffffffffffffffffffffffffffffff1673ffffffffffffffffffffffffffffffffffffffff16815260200190815260200160002060009054906101000a900460ff16905092915050565b60007f01ffc9a7000000000000000000000000000000000000000000000000000000007bffffffffffffffffffffffffffffffffffffffffffffffffffffffff1916827bffffffffffffffffffffffffffffffffffffffffffffffffffffffff1916149050919050565b6115ac81611ec2565b6115eb576040517f08c379a00000000000000000000000000000000000000000000000000000000081526004016115e2906130f0565b60405180910390fd5b50565b600033905090565b816005600083815260200190815260200160002060006101000a81548173ffffffffffffffffffffffffffffffffffffffff021916908373ffffffffffffffffffffffffffffffffffffffff160217905550808273ffffffffffffffffffffffffffffffffffffffff16611669836107e9565b73ffffffffffffffffffffffffffffffffffffffff167f8c5be1e5ebec7d5bd14f71427d1e84f3dd0314c0f7b2291e5b200ac8c7c3b92560405160405180910390a45050565b6000806116bb836107e9565b90508073ffffffffffffffffffffffffffffffffffffffff168473ffffffffffffffffffffffffffffffffffffffff1614806116fd57506116fc81856114a5565b5b8061173b57508373ffffffffffffffffffffffffffffffffffffffff16611723846105a3565b73ffffffffffffffffffffffffffffffffffffffff16145b91505092915050565b8273ffffffffffffffffffffffffffffffffffffffff16611764826107e9565b73ffffffffffffffffffffffffffffffffffffffff16146117ba576040517f08c379a00000000000000000000000000000000000000000000000000000000081526004016117b19061391a565b60405180910390fd5b600073ffffffffffffffffffffffffffffffffffffffff168273ffffffffffffffffffffffffffffffffffffffff1603611829576040517f08c379a0000000000000000000000000000000000000000000000000000000008152600401611820906139ac565b60405180910390fd5b611834838383611f2e565b61183f6000826115f6565b6001600460008573ffffffffffffffffffffffffffffffffffffffff1673ffffffffffffffffffffffffffffffffffffffff168152602001908152602001600020600082825461188f91906131d1565b925050819055506001600460008473ffffffffffffffffffffffffffffffffffffffff1673ffffffffffffffffffffffffffffffffffffffff16815260200190815260200160002060008282546118e691906139cc565b92505081905550816003600083815260200190815260200160002060006101000a81548173ffffffffffffffffffffffffffffffffffffffff021916908373ffffffffffffffffffffffffffffffffffffffff160217905550808273ffffffffffffffffffffffffffffffffffffffff168473ffffffffffffffffffffffffffffffffffffffff167fddf252ad1be2c89b69c2b068fc378daa952ba7f163c4a11628f55a4df523b3ef60405160405180910390a46119a5838383611f33565b505050565b600073ffffffffffffffffffffffffffffffffffffffff168273ffffffffffffffffffffffffffffffffffffffff1603611a19576040517f08c379a0000000000000000000000000000000000000000000000000000000008152600401611a1090613a6e565b60405180910390fd5b611a2281611ec2565b15611a62576040517f08c379a0000000000000000000000000000000000000000000000000000000008152600401611a5990613ada565b60405180910390fd5b611a6e60008383611f2e565b6001600460008473ffffffffffffffffffffffffffffffffffffffff1673ffffffffffffffffffffffffffffffffffffffff1681526020019081526020016000206000828254611abe91906139cc565b92505081905550816003600083815260200190815260200160002060006101000a81548173ffffffffffffffffffffffffffffffffffffffff021916908373ffffffffffffffffffffffffffffffffffffffff160217905550808273ffffffffffffffffffffffffffffffffffffffff16600073ffffffffffffffffffffffffffffffffffffffff167fddf252ad1be2c89b69c2b068fc378daa952ba7f163c4a11628f55a4df523b3ef60405160405180910390a4611b7f60008383611f33565b5050565b8173ffffffffffffffffffffffffffffffffffffffff168373ffffffffffffffffffffffffffffffffffffffff1603611bf1576040517f08c379a0000000000000000000000000000000000000000000000000000000008152600401611be890613b46565b60405180910390fd5b80600660008573ffffffffffffffffffffffffffffffffffffffff1673ffffffffffffffffffffffffffffffffffffffff16815260200190815260200160002060008473ffffffffffffffffffffffffffffffffffffffff1673ffffffffffffffffffffffffffffffffffffffff16815260200190815260200160002060006101000a81548160ff0219169083151502179055508173ffffffffffffffffffffffffffffffffffffffff168373ffffffffffffffffffffffffffffffffffffffff167f17307eab39ab6107e8899845ad3d59bd9653f200f220920489ca2b5937696c3183604051611ce29190612196565b60405180910390a3505050565b611cfa848484611744565b611d0684848484611f38565b611d45576040517f08c379a0000000000000000000000000000000000000000000000000000000008152600401611d3c90613bd8565b60405180910390fd5b50505050565b606060405180602001604052806000815250905090565b606060008203611da9576040518060400160405280600181526020017f30000000000000000000000000000000000000000000000000000000000000008152509050611ebd565b600082905060005b60008214611ddb578080611dc4906134d9565b915050600a82611dd49190613c27565b9150611db1565b60008167ffffffffffffffff811115611df757611df6612708565b5b6040519080825280601f01601f191660200182016040528015611e295781602001600182028036833780820191505090505b5090505b60008514611eb657600182611e4291906131d1565b9150600a85611e519190613c58565b6030611e5d91906139cc565b60f81b818381518110611e7357611e72613075565b5b60200101907effffffffffffffffffffffffffffffffffffffffffffffffffffffffffffff1916908160001a905350600a85611eaf9190613c27565b9450611e2d565b8093505050505b919050565b60008073ffffffffffffffffffffffffffffffffffffffff166003600084815260200190815260200160002060009054906101000a900473ffffffffffffffffffffffffffffffffffffffff1673ffffffffffffffffffffffffffffffffffffffff1614159050919050565b505050565b505050565b6000611f598473ffffffffffffffffffffffffffffffffffffffff166120bf565b156120b2578373ffffffffffffffffffffffffffffffffffffffff1663150b7a02611f826115ee565b8786866040518563ffffffff1660e01b8152600401611fa49493929190613c89565b6020604051808303816000875af1925050508015611fe057506040513d601f19601f82011682018060405250810190611fdd9190613cea565b60015b612062573d8060008114612010576040519150601f19603f3d011682016040523d82523d6000602084013e612015565b606091505b50600081510361205a576040517f08c379a000000000000000000000000000000000000000000000000000000000815260040161205190613bd8565b60405180910390fd5b805181602001fd5b63150b7a0260e01b7bffffffffffffffffffffffffffffffffffffffffffffffffffffffff1916817bffffffffffffffffffffffffffffffffffffffffffffffffffffffff1916149150506120b7565b600190505b949350505050565b6000808273ffffffffffffffffffffffffffffffffffffffff163b119050919050565b6000604051905090565b600080fd5b600080fd5b60007fffffffff0000000000000000000000000000000000000000000000000000000082169050919050565b61212b816120f6565b811461213657600080fd5b50565b60008135905061214881612122565b92915050565b600060208284031215612164576121636120ec565b5b600061217284828501612139565b91505092915050565b60008115159050919050565b6121908161217b565b82525050565b60006020820190506121ab6000830184612187565b92915050565b600081519050919050565b600082825260208201905092915050565b60005b838110156121eb5780820151818401526020810190506121d0565b838111156121fa576000848401525b50505050565b6000601f19601f8301169050919050565b600061221c826121b1565b61222681856121bc565b93506122368185602086016121cd565b61223f81612200565b840191505092915050565b600060208201905081810360008301526122648184612211565b905092915050565b6000819050919050565b61227f8161226c565b811461228a57600080fd5b50565b60008135905061229c81612276565b92915050565b6000602082840312156122b8576122b76120ec565b5b60006122c68482850161228d565b91505092915050565b600073ffffffffffffffffffffffffffffffffffffffff82169050919050565b60006122fa826122cf565b9050919050565b61230a816122ef565b82525050565b60006020820190506123256000830184612301565b92915050565b612334816122ef565b811461233f57600080fd5b50565b6000813590506123518161232b565b92915050565b6000806040838503121561236e5761236d6120ec565b5b600061237c85828601612342565b925050602061238d8582860161228d565b9150509250929050565b6000806000606084860312156123b0576123af6120ec565b5b60006123be86828701612342565b93505060206123cf86828701612342565b92505060406123e08682870161228d565b9150509250925092565b6000819050919050565b600061240f61240a612405846122cf565b6123ea565b6122cf565b9050919050565b6000612421826123f4565b9050919050565b600061243382612416565b9050919050565b61244381612428565b82525050565b600060208201905061245e600083018461243a565b92915050565b6000806040838503121561247b5761247a6120ec565b5b60006124898582860161228d565b925050602061249a8582860161228d565b9150509250929050565b6000819050919050565b6124b7816124a4565b82525050565b60006020820190506124d260008301846124ae565b92915050565b6124e18161226c565b82525050565b60006020820190506124fc60008301846124d8565b92915050565b600081519050919050565b600082825260208201905092915050565b6000819050602082019050919050565b612537816124a4565b82525050565b6000612549838361252e565b60208301905092915050565b6000602082019050919050565b600061256d82612502565b612577818561250d565b93506125828361251e565b8060005b838110156125b357815161259a888261253d565b97506125a583612555565b925050600181019050612586565b5085935050505092915050565b600060208201905081810360008301526125da8184612562565b905092915050565b6000602082840312156125f8576125f76120ec565b5b600061260684828501612342565b91505092915050565b612618816124a4565b811461262357600080fd5b50565b6000813590506126358161260f565b92915050565b60006fffffffffffffffffffffffffffffffff82169050919050565b6126608161263b565b811461266b57600080fd5b50565b60008135905061267d81612657565b92915050565b600063ffffffff82169050919050565b61269c81612683565b81146126a757600080fd5b50565b6000813590506126b981612693565b92915050565b60006bffffffffffffffffffffffff82169050919050565b6126e0816126bf565b81146126eb57600080fd5b50565b6000813590506126fd816126d7565b92915050565b600080fd5b7f4e487b7100000000000000000000000000000000000000000000000000000000600052604160045260246000fd5b61274082612200565b810181811067ffffffffffffffff8211171561275f5761275e612708565b5b80604052505050565b60006127726120e2565b905061277e8282612737565b919050565b600067ffffffffffffffff82111561279e5761279d612708565b5b602082029050602081019050919050565b600080fd5b600080fd5b600067ffffffffffffffff8211156127d4576127d3612708565b5b6127dd82612200565b9050602081019050919050565b82818337600083830152505050565b600061280c612807846127b9565b612768565b905082815260208101848484011115612828576128276127b4565b5b6128338482856127ea565b509392505050565b600082601f8301126128505761284f612703565b5b81356128608482602086016127f9565b91505092915050565b600061287c61287784612783565b612768565b9050808382526020820190506020840283018581111561289f5761289e6127af565b5b835b818110156128e657803567ffffffffffffffff8111156128c4576128c3612703565b5b8086016128d1898261283b565b855260208501945050506020810190506128a1565b5050509392505050565b600082601f83011261290557612904612703565b5b8135612915848260208601612869565b91505092915050565b600067ffffffffffffffff82111561293957612938612708565b5b602082029050602081019050919050565b600060ff82169050919050565b6129608161294a565b811461296b57600080fd5b50565b60008135905061297d81612957565b92915050565b60006129966129918461291e565b612768565b905080838252602082019050602084028301858111156129b9576129b86127af565b5b835b818110156129e257806129ce888261296e565b8452602084019350506020810190506129bb565b5050509392505050565b600082601f830112612a0157612a00612703565b5b8135612a11848260208601612983565b91505092915050565b600061ffff82169050919050565b612a3181612a1a565b8114612a3c57600080fd5b50565b600081359050612a4e81612a28565b92915050565b60008060008060008060008060006101208a8c031215612a7757612a766120ec565b5b6000612a858c828d01612626565b9950506020612a968c828d0161266e565b9850506040612aa78c828d016126aa565b9750506060612ab88c828d016126ee565b96505060808a013567ffffffffffffffff811115612ad957612ad86120f1565b5b612ae58c828d016128f0565b95505060a08a013567ffffffffffffffff811115612b0657612b056120f1565b5b612b128c828d016129ec565b94505060c0612b238c828d01612a3f565b93505060e0612b348c828d016126ee565b925050610100612b468c828d0161296e565b9150509295985092959850929598565b600067ffffffffffffffff821115612b7157612b70612708565b5b602082029050602081019050919050565b6000612b95612b9084612b56565b612768565b90508083825260208201905060208402830185811115612bb857612bb76127af565b5b835b81811015612be15780612bcd8882612626565b845260208401935050602081019050612bba565b5050509392505050565b600082601f830112612c0057612bff612703565b5b8135612c10848260208601612b82565b91505092915050565b6000806000806000806000806000806101408b8d031215612c3d57612c3c6120ec565b5b6000612c4b8d828e0161228d565b9a50506020612c5c8d828e01612626565b9950506040612c6d8d828e0161266e565b9850506060612c7e8d828e016126aa565b9750506080612c8f8d828e016126ee565b96505060a08b013567ffffffffffffffff811115612cb057612caf6120f1565b5b612cbc8d828e01612beb565b95505060c08b013567ffffffffffffffff811115612cdd57612cdc6120f1565b5b612ce98d828e016129ec565b94505060e0612cfa8d828e01612a3f565b935050610100612d0c8d828e016126ee565b925050610120612d1e8d828e0161296e565b9150509295989b9194979a5092959850565b612d398161217b565b8114612d4457600080fd5b50565b600081359050612d5681612d30565b92915050565b60008060408385031215612d7357612d726120ec565b5b6000612d8185828601612342565b9250506020612d9285828601612d47565b9150509250929050565b60008060008060808587031215612db657612db56120ec565b5b6000612dc487828801612342565b9450506020612dd587828801612342565b9350506040612de68782880161228d565b925050606085013567ffffffffffffffff811115612e0757612e066120f1565b5b612e138782880161283b565b91505092959194509250565b60008060408385031215612e3657612e356120ec565b5b6000612e4485828601612342565b9250506020612e5585828601612342565b9150509250929050565b7f4e487b7100000000000000000000000000000000000000000000000000000000600052602260045260246000fd5b60006002820490506001821680612ea657607f821691505b602082108103612eb957612eb8612e5f565b5b50919050565b7f4552433732313a20617070726f76616c20746f2063757272656e74206f776e6560008201527f7200000000000000000000000000000000000000000000000000000000000000602082015250565b6000612f1b6021836121bc565b9150612f2682612ebf565b604082019050919050565b60006020820190508181036000830152612f4a81612f0e565b9050919050565b7f4552433732313a20617070726f76652063616c6c6572206973206e6f7420746f60008201527f6b656e206f776e6572206e6f7220617070726f76656420666f7220616c6c0000602082015250565b6000612fad603e836121bc565b9150612fb882612f51565b604082019050919050565b60006020820190508181036000830152612fdc81612fa0565b9050919050565b7f4552433732313a2063616c6c6572206973206e6f7420746f6b656e206f776e6560008201527f72206e6f7220617070726f766564000000000000000000000000000000000000602082015250565b600061303f602e836121bc565b915061304a82612fe3565b604082019050919050565b6000602082019050818103600083015261306e81613032565b9050919050565b7f4e487b7100000000000000000000000000000000000000000000000000000000600052603260045260246000fd5b7f4552433732313a20696e76616c696420746f6b656e2049440000000000000000600082015250565b60006130da6018836121bc565b91506130e5826130a4565b602082019050919050565b60006020820190508181036000830152613109816130cd565b9050919050565b7f4552433732313a2061646472657373207a65726f206973206e6f74206120766160008201527f6c6964206f776e65720000000000000000000000000000000000000000000000602082015250565b600061316c6029836121bc565b915061317782613110565b604082019050919050565b6000602082019050818103600083015261319b8161315f565b9050919050565b7f4e487b7100000000000000000000000000000000000000000000000000000000600052601160045260246000fd5b60006131dc8261226c565b91506131e78361226c565b9250828210156131fa576131f96131a2565b5b828203905092915050565b7f617373657274696f6e49642063616e6e6f742062652030000000000000000000600082015250565b600061323b6017836121bc565b915061324682613205565b602082019050919050565b6000602082019050818103600083015261326a8161322e565b9050919050565b7f53697a65206973206f7574206f662072616e6765205b312c203330305d000000600082015250565b60006132a7601d836121bc565b91506132b282613271565b602082019050919050565b600060208201905081810360008301526132d68161329a565b9050919050565b7f4e756d626572206f66206b6579776f726473206973206f7574206f662072616e60008201527f6765205b312c20355d0000000000000000000000000000000000000000000000602082015250565b60006133396029836121bc565b9150613344826132dd565b604082019050919050565b600060208201905081810360008301526133688161332c565b9050919050565b7f4e756d626572206f662068617368696e672066756e6374696f6e732063616e6e60008201527f6f74206265203000000000000000000000000000000000000000000000000000602082015250565b60006133cb6027836121bc565b91506133d68261336f565b604082019050919050565b600060208201905081810360008301526133fa816133be565b9050919050565b7f45706f636873206e756d6265722063616e6e6f74206265203000000000000000600082015250565b60006134376019836121bc565b915061344282613401565b602082019050919050565b600060208201905081810360008301526134668161342a565b9050919050565b7f546f6b656e20616d6f756e742063616e6e6f7420626520300000000000000000600082015250565b60006134a36018836121bc565b91506134ae8261346d565b602082019050919050565b600060208201905081810360008301526134d281613496565b9050919050565b60006134e48261226c565b91507fffffffffffffffffffffffffffffffffffffffffffffffffffffffffffffffff8203613516576135156131a2565b5b600182019050919050565b7f417373657274696f6e5265676973747279000000000000000000000000000000600082015250565b60006135576011836121bc565b915061356282613521565b602082019050919050565b600060208201905081810360008301526135868161354a565b9050919050565b60008151905061359c8161232b565b92915050565b6000602082840312156135b8576135b76120ec565b5b60006135c68482850161358d565b91505092915050565b6135d88161263b565b82525050565b6135e781612683565b82525050565b6135f6816126bf565b82525050565b600060a08201905061361160008301886124ae565b61361e6020830187612301565b61362b60408301866135cf565b61363860608301856135de565b61364560808301846135ed565b9695505050505050565b7f5365727669636541677265656d656e7453746f72616765000000000000000000600082015250565b60006136856017836121bc565b91506136908261364f565b602082019050919050565b600060208201905081810360008301526136b481613678565b9050919050565b600081519050919050565b600082825260208201905092915050565b60006136e2826136bb565b6136ec81856136c6565b93506136fc8185602086016121cd565b61370581612200565b840191505092915050565b6137198161294a565b82525050565b61372881612a1a565b82525050565b600061010082019050613744600083018b612301565b613751602083018a612301565b61375e60408301896124d8565b818103606083015261377081886136d7565b905061377f6080830187613710565b61378c60a083018661371f565b61379960c08301856135ed565b6137a660e0830184613710565b9998505050505050505050565b60006137be8261294a565b915060ff82036137d1576137d06131a2565b5b600182019050919050565b7f4f6e6c79206f776e65722063616e2075706461746520616e2061737365740000600082015250565b6000613812601e836121bc565b915061381d826137dc565b602082019050919050565b6000602082019050818103600083015261384181613805565b9050919050565b600081905092915050565b600061385e826121b1565b6138688185613848565b93506138788185602086016121cd565b80840191505092915050565b60006138908285613853565b915061389c8284613853565b91508190509392505050565b7f4552433732313a207472616e736665722066726f6d20696e636f72726563742060008201527f6f776e6572000000000000000000000000000000000000000000000000000000602082015250565b60006139046025836121bc565b915061390f826138a8565b604082019050919050565b60006020820190508181036000830152613933816138f7565b9050919050565b7f4552433732313a207472616e7366657220746f20746865207a65726f2061646460008201527f7265737300000000000000000000000000000000000000000000000000000000602082015250565b60006139966024836121bc565b91506139a18261393a565b604082019050919050565b600060208201905081810360008301526139c581613989565b9050919050565b60006139d78261226c565b91506139e28361226c565b9250827fffffffffffffffffffffffffffffffffffffffffffffffffffffffffffffffff03821115613a1757613a166131a2565b5b828201905092915050565b7f4552433732313a206d696e7420746f20746865207a65726f2061646472657373600082015250565b6000613a586020836121bc565b9150613a6382613a22565b602082019050919050565b60006020820190508181036000830152613a8781613a4b565b9050919050565b7f4552433732313a20746f6b656e20616c7265616479206d696e74656400000000600082015250565b6000613ac4601c836121bc565b9150613acf82613a8e565b602082019050919050565b60006020820190508181036000830152613af381613ab7565b9050919050565b7f4552433732313a20617070726f766520746f2063616c6c657200000000000000600082015250565b6000613b306019836121bc565b9150613b3b82613afa565b602082019050919050565b60006020820190508181036000830152613b5f81613b23565b9050919050565b7f4552433732313a207472616e7366657220746f206e6f6e20455243373231526560008201527f63656976657220696d706c656d656e7465720000000000000000000000000000602082015250565b6000613bc26032836121bc565b9150613bcd82613b66565b604082019050919050565b60006020820190508181036000830152613bf181613bb5565b9050919050565b7f4e487b7100000000000000000000000000000000000000000000000000000000600052601260045260246000fd5b6000613c328261226c565b9150613c3d8361226c565b925082613c4d57613c4c613bf8565b5b828204905092915050565b6000613c638261226c565b9150613c6e8361226c565b925082613c7e57613c7d613bf8565b5b828206905092915050565b6000608082019050613c9e6000830187612301565b613cab6020830186612301565b613cb860408301856124d8565b8181036060830152613cca81846136d7565b905095945050505050565b600081519050613ce481612122565b92915050565b600060208284031215613d0057613cff6120ec565b5b6000613d0e84828501613cd5565b9150509291505056fea2646970667358221220545390f324e1bdb131837b99f31647dec62ae3ee5c60a7bbd6933c128b32312d64736f6c634300080e0033",
  "immutableReferences": {},
  "source": "// SPDX-License-Identifier: MIT\n\npragma solidity ^0.8.0;\n\nimport { AbstractAsset } from \"./AbstractAsset.sol\";\nimport { AssertionRegistry } from \"../AssertionRegistry.sol\";\nimport { ERC721 } from \"@openzeppelin/contracts/token/ERC721/ERC721.sol\";\nimport { IERC20 } from \"@openzeppelin/contracts/token/ERC20/IERC20.sol\";\nimport { ServiceAgreementStorage } from \"../storage/ServiceAgreementStorage.sol\";\n\ncontract IndexAsset is AbstractAsset, ERC721 {\n    struct AssetRecord {\n        bytes32[] assertions;\n    }\n\n    uint256 private _tokenId;\n\n    mapping (uint256 => AssetRecord) assetRecords;\n\n    constructor(address hubAddress)\n        AbstractAsset(hubAddress)\n        ERC721(\"IndexAsset\", \"DKG\")\n    {\n        _tokenId = 0;\n    }\n\n    function createAsset(\n        bytes32 assertionId,\n        uint128 size,\n        uint32 triplesNumber,\n        uint96 chunksNumber,\n        bytes[] memory keywords,\n        uint8[] memory hashFunctionIds,\n        uint16 epochsNumber,\n        uint96 tokenAmount,\n        uint8 scoreFunctionId\n    ) public\n    {\n\n        // address operationalWallet,\n        // address assetContract,\n        // uint256 tokenId,\n        // bytes memory keyword,\n        // uint8 hashFunctionId,\n        // uint16 epochsNumber,\n        // uint96 tokenAmount,\n        // uint8 scoreFunctionId\n\n        require(assertionId != bytes32(0), \"assertionId cannot be 0\");\n        require(size > 0 && size <= 300, \"Size is out of range [1, 300]\");\n        require(keywords.length > 0 && keywords.length <= 5, \"Number of keywords is out of range [1, 5]\");\n        require(hashFunctionIds.length > 0, \"Number of hashing functions cannot be 0\");\n        require(epochsNumber > 0, \"Epochs number cannot be 0\");\n        require(tokenAmount > 0, \"Token amount cannot be 0\");\n\n        uint256 tokenId = _tokenId;\n        _mint(msg.sender, tokenId);\n        _tokenId++;\n\n        AssertionRegistry(hub.getContractAddress(\"AssertionRegistry\")).createAssertionRecord(\n            assertionId,\n            msg.sender,\n            size,\n            triplesNumber,\n            chunksNumber\n        );\n        assetRecords[tokenId].assertions.push(assertionId);\n\n        ServiceAgreementStorage serviceAgreementStorage = ServiceAgreementStorage(\n            hub.getContractAddress(\"ServiceAgreementStorage\")\n        );\n        for (uint8 i = 0; i < keywords.length; i++) {\n            for (uint8 k = 0; k < hashFunctionIds.length; k++) {\n                serviceAgreementStorage.createServiceAgreement(\n                    msg.sender,\n                    address(this),\n                    tokenId,\n                    keywords[i],\n                    hashFunctionIds[k],\n                    epochsNumber,\n                    tokenAmount,\n                    scoreFunctionId\n                );\n            }\n        }\n\n        emit AssetCreated(address(this), tokenId, assertionId);\n    }\n\n    function updateAsset(\n        uint256 tokenId,\n        bytes32 assertionId,\n        uint128 size,\n        uint32 triplesNumber,\n        uint96 chunksNumber,\n        bytes32[] memory keywords,\n        uint8[] memory hashFunctionIds,\n        uint16 epochsNumber,\n        uint96 tokenAmount,\n        uint8 scoreFunctionId\n    ) public {\n        require(msg.sender == ownerOf(tokenId), \"Only owner can update an asset\");\n        require(assertionId != bytes32(0), \"assertionId cannot be 0\");\n        require(size > 0 && size <= 300, \"Size is out of range [1, 300]\");\n        require(keywords.length > 0 && keywords.length <= 5, \"Number of keywords is out of range [1, 5]\");\n        require(hashFunctionIds.length > 0, \"Number of hashing functions cannot be 0\");\n        require(epochsNumber > 0, \"Epochs number cannot be 0\");\n        require(tokenAmount > 0, \"Token amount cannot be 0\");\n\n        AssertionRegistry(hub.getContractAddress(\"AssertionRegistry\")).createAssertionRecord(\n            assertionId,\n            msg.sender,\n            size,\n            triplesNumber,\n            chunksNumber\n        );\n        assetRecords[tokenId].assertions.push(assertionId);\n\n        // TODO: Finish Service Agreements update\n        // ServiceAgreementStorage(hub.getContractAddress(\"ServiceAgreementStorage\")).updateServiceAgreement(\n        //     msg.sender,\n        //     address(this),\n        //     tokenId,\n        //     abi.encodePacked(address(this), tokenId),\n        //     0,\n        //     epochsNumber,\n        //     tokenAmount\n        // );\n\n        emit AssetUpdated(address(this), tokenId, assertionId);\n    }\n\n    function getAssertions(uint256 tokenId)\n        override\n        public\n        view\n        returns (bytes32 [] memory)\n    {\n        return assetRecords[tokenId].assertions;\n    }\n}",
  "sourcePath": "/Users/max/IdeaProjects/dkg-evm-module/contracts/assets/IndexAsset.sol",
  "compiler": {
    "name": "solc",
    "version": "0.8.14+commit.80d49f37.Emscripten.clang"
  },
  "schemaVersion": "3.4.10",
  "updatedAt": "2022-11-24T16:20:27.468Z",
  "devdoc": {
    "kind": "dev",
    "methods": {
      "approve(address,uint256)": {
        "details": "See {IERC721-approve}."
      },
      "balanceOf(address)": {
        "details": "See {IERC721-balanceOf}."
      },
      "getApproved(uint256)": {
        "details": "See {IERC721-getApproved}."
      },
      "isApprovedForAll(address,address)": {
        "details": "See {IERC721-isApprovedForAll}."
      },
      "name()": {
        "details": "See {IERC721Metadata-name}."
      },
      "ownerOf(uint256)": {
        "details": "See {IERC721-ownerOf}."
      },
      "safeTransferFrom(address,address,uint256)": {
        "details": "See {IERC721-safeTransferFrom}."
      },
      "safeTransferFrom(address,address,uint256,bytes)": {
        "details": "See {IERC721-safeTransferFrom}."
      },
      "setApprovalForAll(address,bool)": {
        "details": "See {IERC721-setApprovalForAll}."
      },
      "supportsInterface(bytes4)": {
        "details": "See {IERC165-supportsInterface}."
      },
      "symbol()": {
        "details": "See {IERC721Metadata-symbol}."
      },
      "tokenURI(uint256)": {
        "details": "See {IERC721Metadata-tokenURI}."
      },
      "transferFrom(address,address,uint256)": {
        "details": "See {IERC721-transferFrom}."
      }
    },
    "version": 1
  },
  "userdoc": {
    "kind": "user",
    "methods": {},
    "version": 1
  }
}