{
  "contractName": "IndexRegistry",
  "abi": [
    {
      "inputs": [
        {
          "internalType": "address",
          "name": "hubAddress",
          "type": "address"
        }
      ],
      "stateMutability": "nonpayable",
      "type": "constructor"
    },
    {
      "anonymous": false,
      "inputs": [
        {
          "indexed": true,
          "internalType": "uint256",
          "name": "UAI",
          "type": "uint256"
        },
        {
          "indexed": true,
          "internalType": "string",
          "name": "keyword",
          "type": "string"
        },
        {
          "indexed": false,
          "internalType": "bytes32",
          "name": "stateCommitHash",
          "type": "bytes32"
        }
      ],
      "name": "IndexCreated",
      "type": "event"
    },
    {
      "anonymous": false,
      "inputs": [
        {
          "indexed": true,
          "internalType": "uint256",
          "name": "UAI",
          "type": "uint256"
        },
        {
          "indexed": true,
          "internalType": "string",
          "name": "keyword",
          "type": "string"
        },
        {
          "indexed": false,
          "internalType": "bytes32",
          "name": "stateCommitHash",
          "type": "bytes32"
        }
      ],
      "name": "IndexUpdated",
      "type": "event"
    },
    {
      "anonymous": false,
      "inputs": [
        {
          "indexed": true,
          "internalType": "address",
          "name": "previousOwner",
          "type": "address"
        },
        {
          "indexed": true,
          "internalType": "address",
          "name": "newOwner",
          "type": "address"
        }
      ],
      "name": "OwnershipTransferred",
      "type": "event"
    },
    {
      "inputs": [],
      "name": "hub",
      "outputs": [
        {
          "internalType": "contract Hub",
          "name": "",
          "type": "address"
        }
      ],
      "stateMutability": "view",
      "type": "function"
    },
    {
      "inputs": [
        {
          "internalType": "uint256",
          "name": "",
          "type": "uint256"
        },
        {
          "internalType": "string",
          "name": "",
          "type": "string"
        }
      ],
      "name": "indexRecords",
      "outputs": [
        {
          "internalType": "uint256",
          "name": "timestamp",
          "type": "uint256"
        },
        {
          "internalType": "uint256",
          "name": "holdingTimeInYears",
          "type": "uint256"
        },
        {
          "internalType": "uint256",
          "name": "indexStake",
          "type": "uint256"
        },
        {
          "internalType": "bytes32",
          "name": "assertionId",
          "type": "bytes32"
        }
      ],
      "stateMutability": "view",
      "type": "function"
    },
    {
      "inputs": [],
      "name": "owner",
      "outputs": [
        {
          "internalType": "address",
          "name": "",
          "type": "address"
        }
      ],
      "stateMutability": "view",
      "type": "function"
    },
    {
      "inputs": [],
      "name": "renounceOwnership",
      "outputs": [],
      "stateMutability": "nonpayable",
      "type": "function"
    },
    {
      "inputs": [
        {
          "internalType": "address",
          "name": "newOwner",
          "type": "address"
        }
      ],
      "name": "transferOwnership",
      "outputs": [],
      "stateMutability": "nonpayable",
      "type": "function"
    },
    {
      "inputs": [
        {
          "internalType": "uint256",
          "name": "UAI",
          "type": "uint256"
        },
        {
          "internalType": "string[]",
          "name": "keywords",
          "type": "string[]"
        },
        {
          "internalType": "bytes32",
          "name": "assertionId",
          "type": "bytes32"
        },
        {
          "internalType": "uint256",
          "name": "size",
          "type": "uint256"
        },
        {
          "internalType": "uint256",
          "name": "holdingTimeInYears",
          "type": "uint256"
        },
        {
          "internalType": "uint256",
          "name": "tokenAmount",
          "type": "uint256"
        }
      ],
      "name": "createIndex",
      "outputs": [],
      "stateMutability": "nonpayable",
      "type": "function"
    },
    {
      "inputs": [
        {
          "internalType": "uint256",
          "name": "UAI",
          "type": "uint256"
        },
        {
          "internalType": "string[]",
          "name": "keywords",
          "type": "string[]"
        },
        {
          "internalType": "bytes32",
          "name": "assertionId",
          "type": "bytes32"
        },
        {
          "internalType": "uint256",
          "name": "size",
          "type": "uint256"
        },
        {
          "internalType": "uint256",
          "name": "tokenAmount",
          "type": "uint256"
        }
      ],
      "name": "updateIndex",
      "outputs": [],
      "stateMutability": "nonpayable",
      "type": "function"
    },
    {
      "inputs": [
        {
          "internalType": "uint256",
          "name": "UAI",
          "type": "uint256"
        },
        {
          "internalType": "string",
          "name": "keyword",
          "type": "string"
        }
      ],
      "name": "getCommitHash",
      "outputs": [
        {
          "internalType": "bytes32",
          "name": "commitHash",
          "type": "bytes32"
        }
      ],
      "stateMutability": "view",
      "type": "function"
    }
  ],
  "bytecode": "0x60806040523480156200001157600080fd5b50604051620025473803806200254783398181016040528101906200003791906200020f565b620000576200004b620000d960201b60201c565b620000e160201b60201c565b600073ffffffffffffffffffffffffffffffffffffffff168173ffffffffffffffffffffffffffffffffffffffff16036200009157600080fd5b80600160006101000a81548173ffffffffffffffffffffffffffffffffffffffff021916908373ffffffffffffffffffffffffffffffffffffffff1602179055505062000241565b600033905090565b60008060009054906101000a900473ffffffffffffffffffffffffffffffffffffffff169050816000806101000a81548173ffffffffffffffffffffffffffffffffffffffff021916908373ffffffffffffffffffffffffffffffffffffffff1602179055508173ffffffffffffffffffffffffffffffffffffffff168173ffffffffffffffffffffffffffffffffffffffff167f8be0079c531659141344cd1fd0a4f28419497f9722a3daafe3b4186f6b6457e060405160405180910390a35050565b600080fd5b600073ffffffffffffffffffffffffffffffffffffffff82169050919050565b6000620001d782620001aa565b9050919050565b620001e981620001ca565b8114620001f557600080fd5b50565b6000815190506200020981620001de565b92915050565b600060208284031215620002285762000227620001a5565b5b60006200023884828501620001f8565b91505092915050565b6122f680620002516000396000f3fe608060405234801561001057600080fd5b50600436106100885760003560e01c806399577ff11161005b57806399577ff1146100ef578063c15a5e7f1461010b578063c4f07d021461013e578063f2fde38b1461016e57610088565b806310eb2d331461008d578063365a86fc146100a9578063715018a6146100c75780638da5cb5b146100d1575b600080fd5b6100a760048036038101906100a29190611659565b61018a565b005b6100b1610868565b6040516100be919061176f565b60405180910390f35b6100cf61088e565b005b6100d9610916565b6040516100e691906117ab565b60405180910390f35b610109600480360381019061010491906117c6565b61093f565b005b6101256004803603810190610120919061186f565b61115a565b60405161013594939291906118e9565b60405180910390f35b6101586004803603810190610153919061186f565b6111ad565b604051610165919061192e565b60405180910390f35b61018860048036038101906101839190611975565b6111ea565b005b6000801b83036101cf576040517f08c379a00000000000000000000000000000000000000000000000000000000081526004016101c6906119ff565b60405180910390fd5b6000600160009054906101000a900473ffffffffffffffffffffffffffffffffffffffff1673ffffffffffffffffffffffffffffffffffffffff166304433bbc6040518163ffffffff1660e01b815260040161022a90611a6b565b602060405180830381865afa158015610247573d6000803e3d6000fd5b505050506040513d601f19601f8201168201806040525081019061026b9190611aa0565b73ffffffffffffffffffffffffffffffffffffffff16636352211e876040518263ffffffff1660e01b81526004016102a39190611acd565b602060405180830381865afa1580156102c0573d6000803e3d6000fd5b505050506040513d601f19601f820116820180604052508101906102e49190611aa0565b90503373ffffffffffffffffffffffffffffffffffffffff168173ffffffffffffffffffffffffffffffffffffffff1614610354576040517f08c379a000000000000000000000000000000000000000000000000000000000815260040161034b90611b34565b60405180910390fd5b6000600160009054906101000a900473ffffffffffffffffffffffffffffffffffffffff1673ffffffffffffffffffffffffffffffffffffffff166304433bbc6040518163ffffffff1660e01b81526004016103af90611ba0565b602060405180830381865afa1580156103cc573d6000803e3d6000fd5b505050506040513d601f19601f820116820180604052508101906103f09190611aa0565b73ffffffffffffffffffffffffffffffffffffffff1663d45c4435866040518263ffffffff1660e01b8152600401610428919061192e565b602060405180830381865afa158015610445573d6000803e3d6000fd5b505050506040513d601f19601f820116820180604052508101906104699190611bd5565b0361057a57600160009054906101000a900473ffffffffffffffffffffffffffffffffffffffff1673ffffffffffffffffffffffffffffffffffffffff166304433bbc6040518163ffffffff1660e01b81526004016104c790611ba0565b602060405180830381865afa1580156104e4573d6000803e3d6000fd5b505050506040513d601f19601f820116820180604052508101906105089190611aa0565b73ffffffffffffffffffffffffffffffffffffffff16632216f55985338660016040518563ffffffff1660e01b81526004016105479493929190611c3d565b600060405180830381600087803b15801561056157600080fd5b505af1158015610575573d6000803e3d6000fd5b505050505b6000600160009054906101000a900473ffffffffffffffffffffffffffffffffffffffff1673ffffffffffffffffffffffffffffffffffffffff166304433bbc6040518163ffffffff1660e01b81526004016105d590611cce565b602060405180830381865afa1580156105f2573d6000803e3d6000fd5b505050506040513d601f19601f820116820180604052508101906106169190611aa0565b90508073ffffffffffffffffffffffffffffffffffffffff166323b872dd3330866040518463ffffffff1660e01b815260040161065593929190611cee565b6020604051808303816000875af1158015610674573d6000803e3d6000fd5b505050506040513d601f19601f820116820180604052508101906106989190611d5d565b5060005b865181101561085e5760008782815181106106ba576106b9611d8a565b5b602002602001015190506000600260008b8152602001908152602001600020826040516106e79190611e33565b90815260200160405180910390206000015411610739576040517f08c379a000000000000000000000000000000000000000000000000000000000815260040161073090611ebc565b60405180910390fd5b8751856107469190611f3a565b600260008b8152602001908152602001600020826040516107679190611e33565b908152602001604051809103902060020160008282546107879190611f6b565b9250508190555086600260008b8152602001908152602001600020826040516107b09190611e33565b90815260200160405180910390206003018190555042600260008b8152602001908152602001600020826040516107e79190611e33565b9081526020016040518091039020600001819055508060405161080a9190611e33565b6040518091039020897f097831c142278e2769dc68e3505429a38aef16b226041cff1b437e8038ec581689604051610842919061192e565b60405180910390a350808061085690611fc1565b91505061069c565b5050505050505050565b600160009054906101000a900473ffffffffffffffffffffffffffffffffffffffff1681565b6108966112e1565b73ffffffffffffffffffffffffffffffffffffffff166108b4610916565b73ffffffffffffffffffffffffffffffffffffffff161461090a576040517f08c379a000000000000000000000000000000000000000000000000000000000815260040161090190612055565b60405180910390fd5b61091460006112e9565b565b60008060009054906101000a900473ffffffffffffffffffffffffffffffffffffffff16905090565b6000801b8403610984576040517f08c379a000000000000000000000000000000000000000000000000000000000815260040161097b906119ff565b60405180910390fd5b6000600160009054906101000a900473ffffffffffffffffffffffffffffffffffffffff1673ffffffffffffffffffffffffffffffffffffffff166304433bbc6040518163ffffffff1660e01b81526004016109df90611cce565b602060405180830381865afa1580156109fc573d6000803e3d6000fd5b505050506040513d601f19601f82011682018060405250810190610a209190611aa0565b9050818173ffffffffffffffffffffffffffffffffffffffff1663dd62ed3e33306040518363ffffffff1660e01b8152600401610a5e929190612075565b602060405180830381865afa158015610a7b573d6000803e3d6000fd5b505050506040513d601f19601f82011682018060405250810190610a9f9190611bd5565b1015610ae0576040517f08c379a0000000000000000000000000000000000000000000000000000000008152600401610ad790612110565b60405180910390fd5b818173ffffffffffffffffffffffffffffffffffffffff166370a08231336040518263ffffffff1660e01b8152600401610b1a91906117ab565b602060405180830381865afa158015610b37573d6000803e3d6000fd5b505050506040513d601f19601f82011682018060405250810190610b5b9190611bd5565b1015610b9c576040517f08c379a0000000000000000000000000000000000000000000000000000000008152600401610b93906121a2565b60405180910390fd5b6000600160009054906101000a900473ffffffffffffffffffffffffffffffffffffffff1673ffffffffffffffffffffffffffffffffffffffff166304433bbc6040518163ffffffff1660e01b8152600401610bf790611a6b565b602060405180830381865afa158015610c14573d6000803e3d6000fd5b505050506040513d601f19601f82011682018060405250810190610c389190611aa0565b73ffffffffffffffffffffffffffffffffffffffff16636352211e896040518263ffffffff1660e01b8152600401610c709190611acd565b602060405180830381865afa158015610c8d573d6000803e3d6000fd5b505050506040513d601f19601f82011682018060405250810190610cb19190611aa0565b90503373ffffffffffffffffffffffffffffffffffffffff168173ffffffffffffffffffffffffffffffffffffffff1614610d21576040517f08c379a0000000000000000000000000000000000000000000000000000000008152600401610d189061220e565b60405180910390fd5b6000600160009054906101000a900473ffffffffffffffffffffffffffffffffffffffff1673ffffffffffffffffffffffffffffffffffffffff166304433bbc6040518163ffffffff1660e01b8152600401610d7c90611ba0565b602060405180830381865afa158015610d99573d6000803e3d6000fd5b505050506040513d601f19601f82011682018060405250810190610dbd9190611aa0565b73ffffffffffffffffffffffffffffffffffffffff1663d45c4435886040518263ffffffff1660e01b8152600401610df5919061192e565b602060405180830381865afa158015610e12573d6000803e3d6000fd5b505050506040513d601f19601f82011682018060405250810190610e369190611bd5565b03610f4757600160009054906101000a900473ffffffffffffffffffffffffffffffffffffffff1673ffffffffffffffffffffffffffffffffffffffff166304433bbc6040518163ffffffff1660e01b8152600401610e9490611ba0565b602060405180830381865afa158015610eb1573d6000803e3d6000fd5b505050506040513d601f19601f82011682018060405250810190610ed59190611aa0565b73ffffffffffffffffffffffffffffffffffffffff16632216f55987338860016040518563ffffffff1660e01b8152600401610f149493929190611c3d565b600060405180830381600087803b158015610f2e57600080fd5b505af1158015610f42573d6000803e3d6000fd5b505050505b8173ffffffffffffffffffffffffffffffffffffffff166323b872dd3330866040518463ffffffff1660e01b8152600401610f8493929190611cee565b6020604051808303816000875af1158015610fa3573d6000803e3d6000fd5b505050506040513d601f19601f82011682018060405250810190610fc79190611d5d565b5060005b875181101561114f576000888281518110610fe957610fe8611d8a565b5b602002602001015190508851856110009190611f3a565b600260008c8152602001908152602001600020826040516110219190611e33565b908152602001604051809103902060020160008282546110419190611f6b565b9250508190555087600260008c81526020019081526020016000208260405161106a9190611e33565b90815260200160405180910390206003018190555085600260008c8152602001908152602001600020826040516110a19190611e33565b90815260200160405180910390206001018190555042600260008c8152602001908152602001600020826040516110d89190611e33565b908152602001604051809103902060000181905550806040516110fb9190611e33565b60405180910390208a7ff9414eb6b3fc29c1f48f44c75c8d5c1801f504118fa999dd3fed8d2902ad4a3f8a604051611133919061192e565b60405180910390a350808061114790611fc1565b915050610fcb565b505050505050505050565b600260205281600052604060002081805160208101820180518482526020830160208501208183528095505050505050600091509150508060000154908060010154908060020154908060030154905084565b600060026000848152602001908152602001600020826040516111d09190611e33565b908152602001604051809103902060030154905092915050565b6111f26112e1565b73ffffffffffffffffffffffffffffffffffffffff16611210610916565b73ffffffffffffffffffffffffffffffffffffffff1614611266576040517f08c379a000000000000000000000000000000000000000000000000000000000815260040161125d90612055565b60405180910390fd5b600073ffffffffffffffffffffffffffffffffffffffff168173ffffffffffffffffffffffffffffffffffffffff16036112d5576040517f08c379a00000000000000000000000000000000000000000000000000000000081526004016112cc906122a0565b60405180910390fd5b6112de816112e9565b50565b600033905090565b60008060009054906101000a900473ffffffffffffffffffffffffffffffffffffffff169050816000806101000a81548173ffffffffffffffffffffffffffffffffffffffff021916908373ffffffffffffffffffffffffffffffffffffffff1602179055508173ffffffffffffffffffffffffffffffffffffffff168173ffffffffffffffffffffffffffffffffffffffff167f8be0079c531659141344cd1fd0a4f28419497f9722a3daafe3b4186f6b6457e060405160405180910390a35050565b6000604051905090565b600080fd5b600080fd5b6000819050919050565b6113d4816113c1565b81146113df57600080fd5b50565b6000813590506113f1816113cb565b92915050565b600080fd5b6000601f19601f8301169050919050565b7f4e487b7100000000000000000000000000000000000000000000000000000000600052604160045260246000fd5b611445826113fc565b810181811067ffffffffffffffff821117156114645761146361140d565b5b80604052505050565b60006114776113ad565b9050611483828261143c565b919050565b600067ffffffffffffffff8211156114a3576114a261140d565b5b602082029050602081019050919050565b600080fd5b600080fd5b600067ffffffffffffffff8211156114d9576114d861140d565b5b6114e2826113fc565b9050602081019050919050565b82818337600083830152505050565b600061151161150c846114be565b61146d565b90508281526020810184848401111561152d5761152c6114b9565b5b6115388482856114ef565b509392505050565b600082601f830112611555576115546113f7565b5b81356115658482602086016114fe565b91505092915050565b600061158161157c84611488565b61146d565b905080838252602082019050602084028301858111156115a4576115a36114b4565b5b835b818110156115eb57803567ffffffffffffffff8111156115c9576115c86113f7565b5b8086016115d68982611540565b855260208501945050506020810190506115a6565b5050509392505050565b600082601f83011261160a576116096113f7565b5b813561161a84826020860161156e565b91505092915050565b6000819050919050565b61163681611623565b811461164157600080fd5b50565b6000813590506116538161162d565b92915050565b600080600080600060a08688031215611675576116746113b7565b5b6000611683888289016113e2565b955050602086013567ffffffffffffffff8111156116a4576116a36113bc565b5b6116b0888289016115f5565b94505060406116c188828901611644565b93505060606116d2888289016113e2565b92505060806116e3888289016113e2565b9150509295509295909350565b600073ffffffffffffffffffffffffffffffffffffffff82169050919050565b6000819050919050565b600061173561173061172b846116f0565b611710565b6116f0565b9050919050565b60006117478261171a565b9050919050565b60006117598261173c565b9050919050565b6117698161174e565b82525050565b60006020820190506117846000830184611760565b92915050565b6000611795826116f0565b9050919050565b6117a58161178a565b82525050565b60006020820190506117c0600083018461179c565b92915050565b60008060008060008060c087890312156117e3576117e26113b7565b5b60006117f189828a016113e2565b965050602087013567ffffffffffffffff811115611812576118116113bc565b5b61181e89828a016115f5565b955050604061182f89828a01611644565b945050606061184089828a016113e2565b935050608061185189828a016113e2565b92505060a061186289828a016113e2565b9150509295509295509295565b60008060408385031215611886576118856113b7565b5b6000611894858286016113e2565b925050602083013567ffffffffffffffff8111156118b5576118b46113bc565b5b6118c185828601611540565b9150509250929050565b6118d4816113c1565b82525050565b6118e381611623565b82525050565b60006080820190506118fe60008301876118cb565b61190b60208301866118cb565b61191860408301856118cb565b61192560608301846118da565b95945050505050565b600060208201905061194360008301846118da565b92915050565b6119528161178a565b811461195d57600080fd5b50565b60008135905061196f81611949565b92915050565b60006020828403121561198b5761198a6113b7565b5b600061199984828501611960565b91505092915050565b600082825260208201905092915050565b7f617373657274696f6e49642063616e6e6f74206265207a65726f000000000000600082015250565b60006119e9601a836119a2565b91506119f4826119b3565b602082019050919050565b60006020820190508181036000830152611a18816119dc565b9050919050565b7f5541495265676973747279000000000000000000000000000000000000000000600082015250565b6000611a55600b836119a2565b9150611a6082611a1f565b602082019050919050565b60006020820190508181036000830152611a8481611a48565b9050919050565b600081519050611a9a81611949565b92915050565b600060208284031215611ab657611ab56113b7565b5b6000611ac484828501611a8b565b91505092915050565b6000602082019050611ae260008301846118cb565b92915050565b7f4f6e6c79206f776e65722063616e2075706461746520616e20696e6465780000600082015250565b6000611b1e601e836119a2565b9150611b2982611ae8565b602082019050919050565b60006020820190508181036000830152611b4d81611b11565b9050919050565b7f417373657274696f6e5265676973747279000000000000000000000000000000600082015250565b6000611b8a6011836119a2565b9150611b9582611b54565b602082019050919050565b60006020820190508181036000830152611bb981611b7d565b9050919050565b600081519050611bcf816113cb565b92915050565b600060208284031215611beb57611bea6113b7565b5b6000611bf984828501611bc0565b91505092915050565b6000819050919050565b6000611c27611c22611c1d84611c02565b611710565b6113c1565b9050919050565b611c3781611c0c565b82525050565b6000608082019050611c5260008301876118da565b611c5f602083018661179c565b611c6c60408301856118cb565b611c796060830184611c2e565b95945050505050565b7f546f6b656e000000000000000000000000000000000000000000000000000000600082015250565b6000611cb86005836119a2565b9150611cc382611c82565b602082019050919050565b60006020820190508181036000830152611ce781611cab565b9050919050565b6000606082019050611d03600083018661179c565b611d10602083018561179c565b611d1d60408301846118cb565b949350505050565b60008115159050919050565b611d3a81611d25565b8114611d4557600080fd5b50565b600081519050611d5781611d31565b92915050565b600060208284031215611d7357611d726113b7565b5b6000611d8184828501611d48565b91505092915050565b7f4e487b7100000000000000000000000000000000000000000000000000000000600052603260045260246000fd5b600081519050919050565b600081905092915050565b60005b83811015611ded578082015181840152602081019050611dd2565b83811115611dfc576000848401525b50505050565b6000611e0d82611db9565b611e178185611dc4565b9350611e27818560208601611dcf565b80840191505092915050565b6000611e3f8284611e02565b915081905092915050565b7f43616e6e6f742075706461746520696e646578207468617420646f65736e277460008201527f2065786973740000000000000000000000000000000000000000000000000000602082015250565b6000611ea66026836119a2565b9150611eb182611e4a565b604082019050919050565b60006020820190508181036000830152611ed581611e99565b9050919050565b7f4e487b7100000000000000000000000000000000000000000000000000000000600052601260045260246000fd5b7f4e487b7100000000000000000000000000000000000000000000000000000000600052601160045260246000fd5b6000611f45826113c1565b9150611f50836113c1565b925082611f6057611f5f611edc565b5b828204905092915050565b6000611f76826113c1565b9150611f81836113c1565b9250827fffffffffffffffffffffffffffffffffffffffffffffffffffffffffffffffff03821115611fb657611fb5611f0b565b5b828201905092915050565b6000611fcc826113c1565b91507fffffffffffffffffffffffffffffffffffffffffffffffffffffffffffffffff8203611ffe57611ffd611f0b565b5b600182019050919050565b7f4f776e61626c653a2063616c6c6572206973206e6f7420746865206f776e6572600082015250565b600061203f6020836119a2565b915061204a82612009565b602082019050919050565b6000602082019050818103600083015261206e81612032565b9050919050565b600060408201905061208a600083018561179c565b612097602083018461179c565b9392505050565b7f53656e64657220616c6c6f77616e6365206d75737420626520657175616c207460008201527f6f206f7220686967686572207468616e2063686f73656e20616d6f756e740000602082015250565b60006120fa603e836119a2565b91506121058261209e565b604082019050919050565b60006020820190508181036000830152612129816120ed565b9050919050565b7f53656e6465722062616c616e6365206d75737420626520657175616c20746f2060008201527f6f7220686967686572207468616e2063686f73656e20616d6f756e7421000000602082015250565b600061218c603d836119a2565b915061219782612130565b604082019050919050565b600060208201905081810360008301526121bb8161217f565b9050919050565b7f4f6e6c79206f776e65722063616e2061646420616e20696e6465780000000000600082015250565b60006121f8601b836119a2565b9150612203826121c2565b602082019050919050565b60006020820190508181036000830152612227816121eb565b9050919050565b7f4f776e61626c653a206e6577206f776e657220697320746865207a65726f206160008201527f6464726573730000000000000000000000000000000000000000000000000000602082015250565b600061228a6026836119a2565b91506122958261222e565b604082019050919050565b600060208201905081810360008301526122b98161227d565b905091905056fea2646970667358221220cdecefbda70dba3233cac954b92e0e7621820b40fc04e6ae612bfa45352695e564736f6c634300080e0033",
  "immutableReferences": {},
  "source": "// SPDX-License-Identifier: MIT\n\npragma solidity ^0.8.0;\n\nimport \"@openzeppelin/contracts/token/ERC20/IERC20.sol\";\nimport \"@openzeppelin/contracts/access/Ownable.sol\";\nimport \"./AssertionRegistry.sol\";\nimport \"./UAIRegistry.sol\";\nimport \"./Hub.sol\";\n\ncontract IndexRegistry is Ownable {\n    Hub public hub;\n\n    struct IndexRecord {\n        uint256 timestamp;\n        uint256 holdingTimeInYears;\n        uint256 indexStake;\n        bytes32 assertionId;\n    }\n\n    mapping(uint256 => mapping(string => IndexRecord)) public indexRecords;\n\n    uint256 _numberOfEpochs;\n    uint256 _epochValidityInBlocks;\n    uint256 _blockTime;\n    uint256 _numberOfHolders;\n\n    // events\n    event IndexCreated(uint256 indexed UAI, string indexed keyword, bytes32 stateCommitHash);\n    event IndexUpdated(uint256 indexed UAI, string indexed keyword, bytes32 stateCommitHash);\n\n    constructor(address hubAddress) {\n        require(hubAddress != address(0));\n        hub = Hub(hubAddress);\n    }\n\n    function createIndex(uint256 UAI, string [] memory keywords, bytes32 assertionId, uint256 size, uint256 holdingTimeInYears, uint256 tokenAmount) public  {\n        require(assertionId != 0, \"assertionId cannot be zero\");\n\n        IERC20 tokenContract = IERC20(hub.getContractAddress(\"Token\"));\n        require(tokenContract.allowance(msg.sender, address(this)) >= tokenAmount, \"Sender allowance must be equal to or higher than chosen amount\");\n        require(tokenContract.balanceOf(msg.sender) >= tokenAmount, \"Sender balance must be equal to or higher than chosen amount!\");\n\n        address owner = UAIRegistry(hub.getContractAddress(\"UAIRegistry\")).ownerOf(UAI);\n        require(owner == msg.sender, \"Only owner can add an index\");\n\n        // TODO introduce old holding contract?\n        if (AssertionRegistry(hub.getContractAddress(\"AssertionRegistry\")).getTimestamp(assertionId) == 0) {\n            AssertionRegistry(hub.getContractAddress(\"AssertionRegistry\")).createAssertionRecord(assertionId, msg.sender, size, 1);\n        }\n        tokenContract.transferFrom(msg.sender, address(this), tokenAmount);\n\n        for (uint i = 0; i < keywords.length; i++) {\n            string memory keyword = keywords[i];\n            indexRecords[UAI][keyword].indexStake += tokenAmount / keywords.length;\n\n            indexRecords[UAI][keyword].assertionId = assertionId;\n            indexRecords[UAI][keyword].holdingTimeInYears = holdingTimeInYears;\n            indexRecords[UAI][keyword].timestamp = block.timestamp;\n\n            emit IndexCreated(UAI, keyword, assertionId);\n        }\n    }\n\n    function updateIndex(uint256 UAI, string [] memory keywords, bytes32 assertionId, uint256 size, uint256 tokenAmount) public {\n        require(assertionId != 0, \"assertionId cannot be zero\");\n\n        address owner = UAIRegistry(hub.getContractAddress(\"UAIRegistry\")).ownerOf(UAI);\n        require(owner == msg.sender, \"Only owner can update an index\");\n\n        if (AssertionRegistry(hub.getContractAddress(\"AssertionRegistry\")).getTimestamp(assertionId) == 0) {\n            AssertionRegistry(hub.getContractAddress(\"AssertionRegistry\")).createAssertionRecord(assertionId, msg.sender, size, 1);\n        }\n        IERC20 tokenContract = IERC20(hub.getContractAddress(\"Token\"));\n        tokenContract.transferFrom(msg.sender, address(this), tokenAmount);\n\n        for (uint i = 0; i < keywords.length; i++) {\n            string memory keyword = keywords[i];\n            require(indexRecords[UAI][keyword].timestamp > 0, \"Cannot update index that doesn't exist\");\n            indexRecords[UAI][keyword].indexStake += tokenAmount / keywords.length;\n\n            indexRecords[UAI][keyword].assertionId = assertionId;\n            indexRecords[UAI][keyword].timestamp = block.timestamp;\n\n            emit IndexUpdated(UAI, keyword, assertionId);\n        }\n    }\n\n    function getCommitHash(uint256 UAI, string memory keyword) public view returns (bytes32 commitHash){\n        return indexRecords[UAI][keyword].assertionId;\n    }\n}",
  "sourcePath": "/Users/miloskotlar/dkg-evm-module/contracts/IndexRegistry.sol",
  "compiler": {
    "name": "solc",
    "version": "0.8.14+commit.80d49f37.Emscripten.clang"
  },
  "schemaVersion": "3.4.3",
  "updatedAt": "2022-08-11T11:54:59.908Z",
  "devdoc": {
    "kind": "dev",
    "methods": {
      "owner()": {
        "details": "Returns the address of the current owner."
      },
      "renounceOwnership()": {
        "details": "Leaves the contract without owner. It will not be possible to call `onlyOwner` functions anymore. Can only be called by the current owner. NOTE: Renouncing ownership will leave the contract without an owner, thereby removing any functionality that is only available to the owner."
      },
      "transferOwnership(address)": {
        "details": "Transfers ownership of the contract to a new account (`newOwner`). Can only be called by the current owner."
      }
    },
    "version": 1
  },
  "userdoc": {
    "kind": "user",
    "methods": {},
    "version": 1
  }
}