{
  "contractName": "IndexAsset",
  "abi": [
    {
      "inputs": [
        {
          "internalType": "address",
          "name": "hubAddress",
          "type": "address"
        }
      ],
      "stateMutability": "nonpayable",
      "type": "constructor"
    },
    {
      "anonymous": false,
      "inputs": [
        {
          "indexed": true,
          "internalType": "address",
          "name": "owner",
          "type": "address"
        },
        {
          "indexed": true,
          "internalType": "address",
          "name": "approved",
          "type": "address"
        },
        {
          "indexed": true,
          "internalType": "uint256",
          "name": "tokenId",
          "type": "uint256"
        }
      ],
      "name": "Approval",
      "type": "event"
    },
    {
      "anonymous": false,
      "inputs": [
        {
          "indexed": true,
          "internalType": "address",
          "name": "owner",
          "type": "address"
        },
        {
          "indexed": true,
          "internalType": "address",
          "name": "operator",
          "type": "address"
        },
        {
          "indexed": false,
          "internalType": "bool",
          "name": "approved",
          "type": "bool"
        }
      ],
      "name": "ApprovalForAll",
      "type": "event"
    },
    {
      "anonymous": false,
      "inputs": [
        {
          "indexed": true,
          "internalType": "address",
          "name": "assetContract",
          "type": "address"
        },
        {
          "indexed": true,
          "internalType": "uint256",
          "name": "tokenId",
          "type": "uint256"
        },
        {
          "indexed": true,
          "internalType": "bytes32",
          "name": "stateCommitHash",
          "type": "bytes32"
        }
      ],
      "name": "AssetCreated",
      "type": "event"
    },
    {
      "anonymous": false,
      "inputs": [
        {
          "indexed": true,
          "internalType": "address",
          "name": "assetContract",
          "type": "address"
        },
        {
          "indexed": true,
          "internalType": "uint256",
          "name": "tokenId",
          "type": "uint256"
        },
        {
          "indexed": true,
          "internalType": "bytes32",
          "name": "stateCommitHash",
          "type": "bytes32"
        }
      ],
      "name": "AssetUpdated",
      "type": "event"
    },
    {
      "anonymous": false,
      "inputs": [
        {
          "indexed": true,
          "internalType": "address",
          "name": "from",
          "type": "address"
        },
        {
          "indexed": true,
          "internalType": "address",
          "name": "to",
          "type": "address"
        },
        {
          "indexed": true,
          "internalType": "uint256",
          "name": "tokenId",
          "type": "uint256"
        }
      ],
      "name": "Transfer",
      "type": "event"
    },
    {
      "inputs": [
        {
          "internalType": "address",
          "name": "to",
          "type": "address"
        },
        {
          "internalType": "uint256",
          "name": "tokenId",
          "type": "uint256"
        }
      ],
      "name": "approve",
      "outputs": [],
      "stateMutability": "nonpayable",
      "type": "function"
    },
    {
      "inputs": [
        {
          "internalType": "address",
          "name": "owner",
          "type": "address"
        }
      ],
      "name": "balanceOf",
      "outputs": [
        {
          "internalType": "uint256",
          "name": "",
          "type": "uint256"
        }
      ],
      "stateMutability": "view",
      "type": "function"
    },
    {
      "inputs": [
        {
          "internalType": "uint256",
          "name": "tokenId",
          "type": "uint256"
        }
      ],
      "name": "getApproved",
      "outputs": [
        {
          "internalType": "address",
          "name": "",
          "type": "address"
        }
      ],
      "stateMutability": "view",
      "type": "function"
    },
    {
      "inputs": [
        {
          "internalType": "uint256",
          "name": "tokenId",
          "type": "uint256"
        },
        {
          "internalType": "uint256",
          "name": "index",
          "type": "uint256"
        }
      ],
      "name": "getAssertionByIndex",
      "outputs": [
        {
          "internalType": "bytes32",
          "name": "",
          "type": "bytes32"
        }
      ],
      "stateMutability": "view",
      "type": "function"
    },
    {
      "inputs": [
        {
          "internalType": "uint256",
          "name": "tokenId",
          "type": "uint256"
        }
      ],
      "name": "getAssertionsLength",
      "outputs": [
        {
          "internalType": "uint256",
          "name": "",
          "type": "uint256"
        }
      ],
      "stateMutability": "view",
      "type": "function"
    },
    {
      "inputs": [],
      "name": "hub",
      "outputs": [
        {
          "internalType": "contract Hub",
          "name": "",
          "type": "address"
        }
      ],
      "stateMutability": "view",
      "type": "function"
    },
    {
      "inputs": [
        {
          "internalType": "address",
          "name": "owner",
          "type": "address"
        },
        {
          "internalType": "address",
          "name": "operator",
          "type": "address"
        }
      ],
      "name": "isApprovedForAll",
      "outputs": [
        {
          "internalType": "bool",
          "name": "",
          "type": "bool"
        }
      ],
      "stateMutability": "view",
      "type": "function"
    },
    {
      "inputs": [],
      "name": "name",
      "outputs": [
        {
          "internalType": "string",
          "name": "",
          "type": "string"
        }
      ],
      "stateMutability": "view",
      "type": "function"
    },
    {
      "inputs": [
        {
          "internalType": "uint256",
          "name": "tokenId",
          "type": "uint256"
        }
      ],
      "name": "ownerOf",
      "outputs": [
        {
          "internalType": "address",
          "name": "",
          "type": "address"
        }
      ],
      "stateMutability": "view",
      "type": "function"
    },
    {
      "inputs": [
        {
          "internalType": "address",
          "name": "from",
          "type": "address"
        },
        {
          "internalType": "address",
          "name": "to",
          "type": "address"
        },
        {
          "internalType": "uint256",
          "name": "tokenId",
          "type": "uint256"
        }
      ],
      "name": "safeTransferFrom",
      "outputs": [],
      "stateMutability": "nonpayable",
      "type": "function"
    },
    {
      "inputs": [
        {
          "internalType": "address",
          "name": "from",
          "type": "address"
        },
        {
          "internalType": "address",
          "name": "to",
          "type": "address"
        },
        {
          "internalType": "uint256",
          "name": "tokenId",
          "type": "uint256"
        },
        {
          "internalType": "bytes",
          "name": "data",
          "type": "bytes"
        }
      ],
      "name": "safeTransferFrom",
      "outputs": [],
      "stateMutability": "nonpayable",
      "type": "function"
    },
    {
      "inputs": [
        {
          "internalType": "address",
          "name": "operator",
          "type": "address"
        },
        {
          "internalType": "bool",
          "name": "approved",
          "type": "bool"
        }
      ],
      "name": "setApprovalForAll",
      "outputs": [],
      "stateMutability": "nonpayable",
      "type": "function"
    },
    {
      "inputs": [
        {
          "internalType": "bytes4",
          "name": "interfaceId",
          "type": "bytes4"
        }
      ],
      "name": "supportsInterface",
      "outputs": [
        {
          "internalType": "bool",
          "name": "",
          "type": "bool"
        }
      ],
      "stateMutability": "view",
      "type": "function"
    },
    {
      "inputs": [],
      "name": "symbol",
      "outputs": [
        {
          "internalType": "string",
          "name": "",
          "type": "string"
        }
      ],
      "stateMutability": "view",
      "type": "function"
    },
    {
      "inputs": [
        {
          "internalType": "uint256",
          "name": "tokenId",
          "type": "uint256"
        }
      ],
      "name": "tokenURI",
      "outputs": [
        {
          "internalType": "string",
          "name": "",
          "type": "string"
        }
      ],
      "stateMutability": "view",
      "type": "function"
    },
    {
      "inputs": [
        {
          "internalType": "address",
          "name": "from",
          "type": "address"
        },
        {
          "internalType": "address",
          "name": "to",
          "type": "address"
        },
        {
          "internalType": "uint256",
          "name": "tokenId",
          "type": "uint256"
        }
      ],
      "name": "transferFrom",
      "outputs": [],
      "stateMutability": "nonpayable",
      "type": "function"
    },
    {
      "inputs": [
        {
          "internalType": "bytes32",
          "name": "assertionId",
          "type": "bytes32"
        },
        {
          "internalType": "uint128",
          "name": "size",
          "type": "uint128"
        },
        {
          "internalType": "uint32",
          "name": "triplesNumber",
          "type": "uint32"
        },
        {
          "internalType": "uint96",
          "name": "chunksNumber",
          "type": "uint96"
        },
        {
          "internalType": "bytes[]",
          "name": "keywords",
          "type": "bytes[]"
        },
        {
          "internalType": "uint8[]",
          "name": "hashingFunctionIds",
          "type": "uint8[]"
        },
        {
          "internalType": "uint16",
          "name": "epochsNum",
          "type": "uint16"
        },
        {
          "internalType": "uint96",
          "name": "tokenAmount",
          "type": "uint96"
        },
        {
          "internalType": "uint8",
          "name": "scoringFunctionId",
          "type": "uint8"
        }
      ],
      "name": "createAsset",
      "outputs": [
        {
          "internalType": "uint256",
          "name": "",
          "type": "uint256"
        }
      ],
      "stateMutability": "nonpayable",
      "type": "function"
    },
    {
      "inputs": [
        {
          "internalType": "uint256",
          "name": "tokenId",
          "type": "uint256"
        },
        {
          "internalType": "bytes32",
          "name": "assertionId",
          "type": "bytes32"
        },
        {
          "internalType": "uint128",
          "name": "size",
          "type": "uint128"
        },
        {
          "internalType": "uint32",
          "name": "triplesNumber",
          "type": "uint32"
        },
        {
          "internalType": "uint96",
          "name": "chunksNumber",
          "type": "uint96"
        },
        {
          "internalType": "bytes32[]",
          "name": "keywords",
          "type": "bytes32[]"
        },
        {
          "internalType": "uint8[]",
          "name": "hashingFunctionIds",
          "type": "uint8[]"
        },
        {
          "internalType": "uint16",
          "name": "epochsNum",
          "type": "uint16"
        },
        {
          "internalType": "uint96",
          "name": "tokenAmount",
          "type": "uint96"
        },
        {
          "internalType": "uint8",
          "name": "scoringFunctionId",
          "type": "uint8"
        }
      ],
      "name": "updateAsset",
      "outputs": [],
      "stateMutability": "nonpayable",
      "type": "function"
    },
    {
      "inputs": [
        {
          "internalType": "uint256",
          "name": "tokenId",
          "type": "uint256"
        }
      ],
      "name": "getAssertions",
      "outputs": [
        {
          "internalType": "bytes32[]",
          "name": "",
          "type": "bytes32[]"
        }
      ],
      "stateMutability": "view",
      "type": "function"
    }
  ],
  "bytecode": "0x60806040523480156200001157600080fd5b50604051620040823803806200408283398181016040528101906200003791906200027c565b6040518060400160405280600a81526020017f496e6465784173736574000000000000000000000000000000000000000000008152506040518060400160405280600381526020017f444b47000000000000000000000000000000000000000000000000000000000081525082600073ffffffffffffffffffffffffffffffffffffffff168173ffffffffffffffffffffffffffffffffffffffff1603620000de57600080fd5b806000806101000a81548173ffffffffffffffffffffffffffffffffffffffff021916908373ffffffffffffffffffffffffffffffffffffffff1602179055505081600190805190602001906200013792919062000162565b5080600290805190602001906200015092919062000162565b50505060006007819055505062000312565b8280546200017090620002dd565b90600052602060002090601f016020900481019282620001945760008555620001e0565b82601f10620001af57805160ff1916838001178555620001e0565b82800160010185558215620001e0579182015b82811115620001df578251825591602001919060010190620001c2565b5b509050620001ef9190620001f3565b5090565b5b808211156200020e576000816000905550600101620001f4565b5090565b600080fd5b600073ffffffffffffffffffffffffffffffffffffffff82169050919050565b6000620002448262000217565b9050919050565b620002568162000237565b81146200026257600080fd5b50565b60008151905062000276816200024b565b92915050565b60006020828403121562000295576200029462000212565b5b6000620002a58482850162000265565b91505092915050565b7f4e487b7100000000000000000000000000000000000000000000000000000000600052602260045260246000fd5b60006002820490506001821680620002f657607f821691505b6020821081036200030c576200030b620002ae565b5b50919050565b613d6080620003226000396000f3fe608060405234801561001057600080fd5b50600436106101215760003560e01c80636352211e116100ad5780639d2f74ad116100715780639d2f74ad14610354578063a22cb46514610370578063b88d4fde1461038c578063c87b56dd146103a8578063e985e9c5146103d857610121565b80636352211e146102765780636ae3c072146102a657806370a08231146102d657806382ee11051461030657806395d89b411461033657610121565b806323b872dd116100f457806323b872dd146101c0578063365a86fc146101dc57806342842e0e146101fa57806346976666146102165780635a58db141461024657610121565b806301ffc9a71461012657806306fdde0314610156578063081812fc14610174578063095ea7b3146101a4575b600080fd5b610140600480360381019061013b9190612161565b610408565b60405161014d91906121a9565b60405180910390f35b61015e6104ea565b60405161016b919061225d565b60405180910390f35b61018e600480360381019061018991906122b5565b61057c565b60405161019b9190612323565b60405180910390f35b6101be60048036038101906101b9919061236a565b6105c2565b005b6101da60048036038101906101d591906123aa565b6106d9565b005b6101e4610739565b6040516101f1919061245c565b60405180910390f35b610214600480360381019061020f91906123aa565b61075d565b005b610230600480360381019061022b9190612477565b61077d565b60405161023d91906124d0565b60405180910390f35b610260600480360381019061025b91906122b5565b6107af565b60405161026d91906124fa565b60405180910390f35b610290600480360381019061028b91906122b5565b6107c2565b60405161029d9190612323565b60405180910390f35b6102c060048036038101906102bb91906122b5565b610873565b6040516102cd91906125d3565b60405180910390f35b6102f060048036038101906102eb91906125f5565b6108e1565b6040516102fd91906124fa565b60405180910390f35b610320600480360381019061031b9190612a67565b610998565b60405161032d91906124fa565b60405180910390f35b61033e610edf565b60405161034b919061225d565b60405180910390f35b61036e60048036038101906103699190612c2c565b610f71565b005b61038a60048036038101906103859190612d6f565b6113d8565b005b6103a660048036038101906103a19190612daf565b6113ee565b005b6103c260048036038101906103bd91906122b5565b611450565b6040516103cf919061225d565b60405180910390f35b6103f260048036038101906103ed9190612e32565b6114b8565b6040516103ff91906121a9565b60405180910390f35b60007f80ac58cd000000000000000000000000000000000000000000000000000000007bffffffffffffffffffffffffffffffffffffffffffffffffffffffff1916827bffffffffffffffffffffffffffffffffffffffffffffffffffffffff191614806104d357507f5b5e139f000000000000000000000000000000000000000000000000000000007bffffffffffffffffffffffffffffffffffffffffffffffffffffffff1916827bffffffffffffffffffffffffffffffffffffffffffffffffffffffff1916145b806104e357506104e28261154c565b5b9050919050565b6060600180546104f990612ea1565b80601f016020809104026020016040519081016040528092919081815260200182805461052590612ea1565b80156105725780601f1061054757610100808354040283529160200191610572565b820191906000526020600020905b81548152906001019060200180831161055557829003601f168201915b5050505050905090565b6000610587826115b6565b6005600083815260200190815260200160002060009054906101000a900473ffffffffffffffffffffffffffffffffffffffff169050919050565b60006105cd826107c2565b90508073ffffffffffffffffffffffffffffffffffffffff168373ffffffffffffffffffffffffffffffffffffffff160361063d576040517f08c379a000000000000000000000000000000000000000000000000000000000815260040161063490612f44565b60405180910390fd5b8073ffffffffffffffffffffffffffffffffffffffff1661065c611601565b73ffffffffffffffffffffffffffffffffffffffff16148061068b575061068a81610685611601565b6114b8565b5b6106ca576040517f08c379a00000000000000000000000000000000000000000000000000000000081526004016106c190612fd6565b60405180910390fd5b6106d48383611609565b505050565b6106ea6106e4611601565b826116c2565b610729576040517f08c379a000000000000000000000000000000000000000000000000000000000815260040161072090613068565b60405180910390fd5b610734838383611757565b505050565b60008054906101000a900473ffffffffffffffffffffffffffffffffffffffff1681565b610778838383604051806020016040528060008152506113ee565b505050565b60008061078984610873565b905080838151811061079e5761079d613088565b5b602002602001015191505092915050565b60006107ba82610873565b519050919050565b6000806003600084815260200190815260200160002060009054906101000a900473ffffffffffffffffffffffffffffffffffffffff169050600073ffffffffffffffffffffffffffffffffffffffff168173ffffffffffffffffffffffffffffffffffffffff160361086a576040517f08c379a000000000000000000000000000000000000000000000000000000000815260040161086190613103565b60405180910390fd5b80915050919050565b6060600860008381526020019081526020016000206000018054806020026020016040519081016040528092919081815260200182805480156108d557602002820191906000526020600020905b8154815260200190600101908083116108c1575b50505050509050919050565b60008073ffffffffffffffffffffffffffffffffffffffff168273ffffffffffffffffffffffffffffffffffffffff1603610951576040517f08c379a000000000000000000000000000000000000000000000000000000000815260040161094890613195565b60405180910390fd5b600460008373ffffffffffffffffffffffffffffffffffffffff1673ffffffffffffffffffffffffffffffffffffffff168152602001908152602001600020549050919050565b60008060001b8a036109df576040517f08c379a00000000000000000000000000000000000000000000000000000000081526004016109d690613201565b60405180910390fd5b6000896fffffffffffffffffffffffffffffffff16118015610a15575061012c896fffffffffffffffffffffffffffffffff1611155b610a54576040517f08c379a0000000000000000000000000000000000000000000000000000000008152600401610a4b9061326d565b60405180910390fd5b60008651118015610a6757506005865111155b610aa6576040517f08c379a0000000000000000000000000000000000000000000000000000000008152600401610a9d906132ff565b60405180910390fd5b6000855111610aea576040517f08c379a0000000000000000000000000000000000000000000000000000000008152600401610ae190613391565b60405180910390fd5b60008461ffff1611610b31576040517f08c379a0000000000000000000000000000000000000000000000000000000008152600401610b28906133fd565b60405180910390fd5b6000836bffffffffffffffffffffffff1611610b82576040517f08c379a0000000000000000000000000000000000000000000000000000000008152600401610b7990613469565b60405180910390fd5b60006007549050610b9333826119bd565b60076000815480929190610ba6906134b8565b919050555060008054906101000a900473ffffffffffffffffffffffffffffffffffffffff1673ffffffffffffffffffffffffffffffffffffffff166304433bbc6040518163ffffffff1660e01b8152600401610c029061354c565b602060405180830381865afa158015610c1f573d6000803e3d6000fd5b505050506040513d601f19601f82011682018060405250810190610c439190613581565b73ffffffffffffffffffffffffffffffffffffffff1663798d5f288c338d8d8d6040518663ffffffff1660e01b8152600401610c839594939291906135db565b600060405180830381600087803b158015610c9d57600080fd5b505af1158015610cb1573d6000803e3d6000fd5b50505050600860008281526020019081526020016000206000018b908060018154018082558091505060019003906000526020600020016000909190919091505560008060009054906101000a900473ffffffffffffffffffffffffffffffffffffffff1673ffffffffffffffffffffffffffffffffffffffff166304433bbc6040518163ffffffff1660e01b8152600401610d4c9061367a565b602060405180830381865afa158015610d69573d6000803e3d6000fd5b505050506040513d601f19601f82011682018060405250810190610d8d9190613581565b905060005b88518160ff161015610e875760005b88518160ff161015610e73578273ffffffffffffffffffffffffffffffffffffffff1663be82c4e23330878e8760ff1681518110610de257610de1613088565b5b60200260200101518e8760ff1681518110610e0057610dff613088565b5b60200260200101518e8e8e6040518963ffffffff1660e01b8152600401610e2e98979695949392919061370d565b600060405180830381600087803b158015610e4857600080fd5b505af1158015610e5c573d6000803e3d6000fd5b505050508080610e6b90613792565b915050610da1565b508080610e7f90613792565b915050610d92565b508b823073ffffffffffffffffffffffffffffffffffffffff167fac922a526a52087fe0a96f1d8706cea6cfecda5848221cd24dc78515d2b3019d60405160405180910390a481925050509998505050505050505050565b606060028054610eee90612ea1565b80601f0160208091040260200160405190810160405280929190818152602001828054610f1a90612ea1565b8015610f675780601f10610f3c57610100808354040283529160200191610f67565b820191906000526020600020905b815481529060010190602001808311610f4a57829003601f168201915b5050505050905090565b3073ffffffffffffffffffffffffffffffffffffffff16636352211e8b6040518263ffffffff1660e01b8152600401610faa91906124fa565b602060405180830381865afa158015610fc7573d6000803e3d6000fd5b505050506040513d601f19601f82011682018060405250810190610feb9190613581565b73ffffffffffffffffffffffffffffffffffffffff163373ffffffffffffffffffffffffffffffffffffffff1614611058576040517f08c379a000000000000000000000000000000000000000000000000000000000815260040161104f90613807565b60405180910390fd5b6000801b890361109d576040517f08c379a000000000000000000000000000000000000000000000000000000000815260040161109490613201565b60405180910390fd5b6000886fffffffffffffffffffffffffffffffff161180156110d3575061012c886fffffffffffffffffffffffffffffffff1611155b611112576040517f08c379a00000000000000000000000000000000000000000000000000000000081526004016111099061326d565b60405180910390fd5b6000855111801561112557506005855111155b611164576040517f08c379a000000000000000000000000000000000000000000000000000000000815260040161115b906132ff565b60405180910390fd5b60008451116111a8576040517f08c379a000000000000000000000000000000000000000000000000000000000815260040161119f90613391565b60405180910390fd5b60008361ffff16116111ef576040517f08c379a00000000000000000000000000000000000000000000000000000000081526004016111e6906133fd565b60405180910390fd5b6000826bffffffffffffffffffffffff1611611240576040517f08c379a000000000000000000000000000000000000000000000000000000000815260040161123790613469565b60405180910390fd5b60008054906101000a900473ffffffffffffffffffffffffffffffffffffffff1673ffffffffffffffffffffffffffffffffffffffff166304433bbc6040518163ffffffff1660e01b81526004016112979061354c565b602060405180830381865afa1580156112b4573d6000803e3d6000fd5b505050506040513d601f19601f820116820180604052508101906112d89190613581565b73ffffffffffffffffffffffffffffffffffffffff1663798d5f288a338b8b8b6040518663ffffffff1660e01b81526004016113189594939291906135db565b600060405180830381600087803b15801561133257600080fd5b505af1158015611346573d6000803e3d6000fd5b50505050600860008b8152602001908152602001600020600001899080600181540180825580915050600190039060005260206000200160009091909190915055888a3073ffffffffffffffffffffffffffffffffffffffff167f317b13b972f7768c0e191b4ed63c15c50ec6ebc5c7868da502dd43b5fb48cf8660405160405180910390a450505050505050505050565b6113ea6113e3611601565b8383611b96565b5050565b6113ff6113f9611601565b836116c2565b61143e576040517f08c379a000000000000000000000000000000000000000000000000000000000815260040161143590613068565b60405180910390fd5b61144a84848484611d02565b50505050565b606061145b826115b6565b6000611465611d5e565b9050600081511161148557604051806020016040528060008152506114b0565b8061148f84611d75565b6040516020016114a0929190613863565b6040516020818303038152906040525b915050919050565b6000600660008473ffffffffffffffffffffffffffffffffffffffff1673ffffffffffffffffffffffffffffffffffffffff16815260200190815260200160002060008373ffffffffffffffffffffffffffffffffffffffff1673ffffffffffffffffffffffffffffffffffffffff16815260200190815260200160002060009054906101000a900460ff16905092915050565b60007f01ffc9a7000000000000000000000000000000000000000000000000000000007bffffffffffffffffffffffffffffffffffffffffffffffffffffffff1916827bffffffffffffffffffffffffffffffffffffffffffffffffffffffff1916149050919050565b6115bf81611ed5565b6115fe576040517f08c379a00000000000000000000000000000000000000000000000000000000081526004016115f590613103565b60405180910390fd5b50565b600033905090565b816005600083815260200190815260200160002060006101000a81548173ffffffffffffffffffffffffffffffffffffffff021916908373ffffffffffffffffffffffffffffffffffffffff160217905550808273ffffffffffffffffffffffffffffffffffffffff1661167c836107c2565b73ffffffffffffffffffffffffffffffffffffffff167f8c5be1e5ebec7d5bd14f71427d1e84f3dd0314c0f7b2291e5b200ac8c7c3b92560405160405180910390a45050565b6000806116ce836107c2565b90508073ffffffffffffffffffffffffffffffffffffffff168473ffffffffffffffffffffffffffffffffffffffff161480611710575061170f81856114b8565b5b8061174e57508373ffffffffffffffffffffffffffffffffffffffff166117368461057c565b73ffffffffffffffffffffffffffffffffffffffff16145b91505092915050565b8273ffffffffffffffffffffffffffffffffffffffff16611777826107c2565b73ffffffffffffffffffffffffffffffffffffffff16146117cd576040517f08c379a00000000000000000000000000000000000000000000000000000000081526004016117c4906138f9565b60405180910390fd5b600073ffffffffffffffffffffffffffffffffffffffff168273ffffffffffffffffffffffffffffffffffffffff160361183c576040517f08c379a00000000000000000000000000000000000000000000000000000000081526004016118339061398b565b60405180910390fd5b611847838383611f41565b611852600082611609565b6001600460008573ffffffffffffffffffffffffffffffffffffffff1673ffffffffffffffffffffffffffffffffffffffff16815260200190815260200160002060008282546118a291906139ab565b925050819055506001600460008473ffffffffffffffffffffffffffffffffffffffff1673ffffffffffffffffffffffffffffffffffffffff16815260200190815260200160002060008282546118f991906139df565b92505081905550816003600083815260200190815260200160002060006101000a81548173ffffffffffffffffffffffffffffffffffffffff021916908373ffffffffffffffffffffffffffffffffffffffff160217905550808273ffffffffffffffffffffffffffffffffffffffff168473ffffffffffffffffffffffffffffffffffffffff167fddf252ad1be2c89b69c2b068fc378daa952ba7f163c4a11628f55a4df523b3ef60405160405180910390a46119b8838383611f46565b505050565b600073ffffffffffffffffffffffffffffffffffffffff168273ffffffffffffffffffffffffffffffffffffffff1603611a2c576040517f08c379a0000000000000000000000000000000000000000000000000000000008152600401611a2390613a81565b60405180910390fd5b611a3581611ed5565b15611a75576040517f08c379a0000000000000000000000000000000000000000000000000000000008152600401611a6c90613aed565b60405180910390fd5b611a8160008383611f41565b6001600460008473ffffffffffffffffffffffffffffffffffffffff1673ffffffffffffffffffffffffffffffffffffffff1681526020019081526020016000206000828254611ad191906139df565b92505081905550816003600083815260200190815260200160002060006101000a81548173ffffffffffffffffffffffffffffffffffffffff021916908373ffffffffffffffffffffffffffffffffffffffff160217905550808273ffffffffffffffffffffffffffffffffffffffff16600073ffffffffffffffffffffffffffffffffffffffff167fddf252ad1be2c89b69c2b068fc378daa952ba7f163c4a11628f55a4df523b3ef60405160405180910390a4611b9260008383611f46565b5050565b8173ffffffffffffffffffffffffffffffffffffffff168373ffffffffffffffffffffffffffffffffffffffff1603611c04576040517f08c379a0000000000000000000000000000000000000000000000000000000008152600401611bfb90613b59565b60405180910390fd5b80600660008573ffffffffffffffffffffffffffffffffffffffff1673ffffffffffffffffffffffffffffffffffffffff16815260200190815260200160002060008473ffffffffffffffffffffffffffffffffffffffff1673ffffffffffffffffffffffffffffffffffffffff16815260200190815260200160002060006101000a81548160ff0219169083151502179055508173ffffffffffffffffffffffffffffffffffffffff168373ffffffffffffffffffffffffffffffffffffffff167f17307eab39ab6107e8899845ad3d59bd9653f200f220920489ca2b5937696c3183604051611cf591906121a9565b60405180910390a3505050565b611d0d848484611757565b611d1984848484611f4b565b611d58576040517f08c379a0000000000000000000000000000000000000000000000000000000008152600401611d4f90613beb565b60405180910390fd5b50505050565b606060405180602001604052806000815250905090565b606060008203611dbc576040518060400160405280600181526020017f30000000000000000000000000000000000000000000000000000000000000008152509050611ed0565b600082905060005b60008214611dee578080611dd7906134b8565b915050600a82611de79190613c3a565b9150611dc4565b60008167ffffffffffffffff811115611e0a57611e0961271b565b5b6040519080825280601f01601f191660200182016040528015611e3c5781602001600182028036833780820191505090505b5090505b60008514611ec957600182611e5591906139ab565b9150600a85611e649190613c6b565b6030611e7091906139df565b60f81b818381518110611e8657611e85613088565b5b60200101907effffffffffffffffffffffffffffffffffffffffffffffffffffffffffffff1916908160001a905350600a85611ec29190613c3a565b9450611e40565b8093505050505b919050565b60008073ffffffffffffffffffffffffffffffffffffffff166003600084815260200190815260200160002060009054906101000a900473ffffffffffffffffffffffffffffffffffffffff1673ffffffffffffffffffffffffffffffffffffffff1614159050919050565b505050565b505050565b6000611f6c8473ffffffffffffffffffffffffffffffffffffffff166120d2565b156120c5578373ffffffffffffffffffffffffffffffffffffffff1663150b7a02611f95611601565b8786866040518563ffffffff1660e01b8152600401611fb79493929190613c9c565b6020604051808303816000875af1925050508015611ff357506040513d601f19601f82011682018060405250810190611ff09190613cfd565b60015b612075573d8060008114612023576040519150601f19603f3d011682016040523d82523d6000602084013e612028565b606091505b50600081510361206d576040517f08c379a000000000000000000000000000000000000000000000000000000000815260040161206490613beb565b60405180910390fd5b805181602001fd5b63150b7a0260e01b7bffffffffffffffffffffffffffffffffffffffffffffffffffffffff1916817bffffffffffffffffffffffffffffffffffffffffffffffffffffffff1916149150506120ca565b600190505b949350505050565b6000808273ffffffffffffffffffffffffffffffffffffffff163b119050919050565b6000604051905090565b600080fd5b600080fd5b60007fffffffff0000000000000000000000000000000000000000000000000000000082169050919050565b61213e81612109565b811461214957600080fd5b50565b60008135905061215b81612135565b92915050565b600060208284031215612177576121766120ff565b5b60006121858482850161214c565b91505092915050565b60008115159050919050565b6121a38161218e565b82525050565b60006020820190506121be600083018461219a565b92915050565b600081519050919050565b600082825260208201905092915050565b60005b838110156121fe5780820151818401526020810190506121e3565b8381111561220d576000848401525b50505050565b6000601f19601f8301169050919050565b600061222f826121c4565b61223981856121cf565b93506122498185602086016121e0565b61225281612213565b840191505092915050565b600060208201905081810360008301526122778184612224565b905092915050565b6000819050919050565b6122928161227f565b811461229d57600080fd5b50565b6000813590506122af81612289565b92915050565b6000602082840312156122cb576122ca6120ff565b5b60006122d9848285016122a0565b91505092915050565b600073ffffffffffffffffffffffffffffffffffffffff82169050919050565b600061230d826122e2565b9050919050565b61231d81612302565b82525050565b60006020820190506123386000830184612314565b92915050565b61234781612302565b811461235257600080fd5b50565b6000813590506123648161233e565b92915050565b60008060408385031215612381576123806120ff565b5b600061238f85828601612355565b92505060206123a0858286016122a0565b9150509250929050565b6000806000606084860312156123c3576123c26120ff565b5b60006123d186828701612355565b93505060206123e286828701612355565b92505060406123f3868287016122a0565b9150509250925092565b6000819050919050565b600061242261241d612418846122e2565b6123fd565b6122e2565b9050919050565b600061243482612407565b9050919050565b600061244682612429565b9050919050565b6124568161243b565b82525050565b6000602082019050612471600083018461244d565b92915050565b6000806040838503121561248e5761248d6120ff565b5b600061249c858286016122a0565b92505060206124ad858286016122a0565b9150509250929050565b6000819050919050565b6124ca816124b7565b82525050565b60006020820190506124e560008301846124c1565b92915050565b6124f48161227f565b82525050565b600060208201905061250f60008301846124eb565b92915050565b600081519050919050565b600082825260208201905092915050565b6000819050602082019050919050565b61254a816124b7565b82525050565b600061255c8383612541565b60208301905092915050565b6000602082019050919050565b600061258082612515565b61258a8185612520565b935061259583612531565b8060005b838110156125c65781516125ad8882612550565b97506125b883612568565b925050600181019050612599565b5085935050505092915050565b600060208201905081810360008301526125ed8184612575565b905092915050565b60006020828403121561260b5761260a6120ff565b5b600061261984828501612355565b91505092915050565b61262b816124b7565b811461263657600080fd5b50565b60008135905061264881612622565b92915050565b60006fffffffffffffffffffffffffffffffff82169050919050565b6126738161264e565b811461267e57600080fd5b50565b6000813590506126908161266a565b92915050565b600063ffffffff82169050919050565b6126af81612696565b81146126ba57600080fd5b50565b6000813590506126cc816126a6565b92915050565b60006bffffffffffffffffffffffff82169050919050565b6126f3816126d2565b81146126fe57600080fd5b50565b600081359050612710816126ea565b92915050565b600080fd5b7f4e487b7100000000000000000000000000000000000000000000000000000000600052604160045260246000fd5b61275382612213565b810181811067ffffffffffffffff821117156127725761277161271b565b5b80604052505050565b60006127856120f5565b9050612791828261274a565b919050565b600067ffffffffffffffff8211156127b1576127b061271b565b5b602082029050602081019050919050565b600080fd5b600080fd5b600067ffffffffffffffff8211156127e7576127e661271b565b5b6127f082612213565b9050602081019050919050565b82818337600083830152505050565b600061281f61281a846127cc565b61277b565b90508281526020810184848401111561283b5761283a6127c7565b5b6128468482856127fd565b509392505050565b600082601f83011261286357612862612716565b5b813561287384826020860161280c565b91505092915050565b600061288f61288a84612796565b61277b565b905080838252602082019050602084028301858111156128b2576128b16127c2565b5b835b818110156128f957803567ffffffffffffffff8111156128d7576128d6612716565b5b8086016128e4898261284e565b855260208501945050506020810190506128b4565b5050509392505050565b600082601f83011261291857612917612716565b5b813561292884826020860161287c565b91505092915050565b600067ffffffffffffffff82111561294c5761294b61271b565b5b602082029050602081019050919050565b600060ff82169050919050565b6129738161295d565b811461297e57600080fd5b50565b6000813590506129908161296a565b92915050565b60006129a96129a484612931565b61277b565b905080838252602082019050602084028301858111156129cc576129cb6127c2565b5b835b818110156129f557806129e18882612981565b8452602084019350506020810190506129ce565b5050509392505050565b600082601f830112612a1457612a13612716565b5b8135612a24848260208601612996565b91505092915050565b600061ffff82169050919050565b612a4481612a2d565b8114612a4f57600080fd5b50565b600081359050612a6181612a3b565b92915050565b60008060008060008060008060006101208a8c031215612a8a57612a896120ff565b5b6000612a988c828d01612639565b9950506020612aa98c828d01612681565b9850506040612aba8c828d016126bd565b9750506060612acb8c828d01612701565b96505060808a013567ffffffffffffffff811115612aec57612aeb612104565b5b612af88c828d01612903565b95505060a08a013567ffffffffffffffff811115612b1957612b18612104565b5b612b258c828d016129ff565b94505060c0612b368c828d01612a52565b93505060e0612b478c828d01612701565b925050610100612b598c828d01612981565b9150509295985092959850929598565b600067ffffffffffffffff821115612b8457612b8361271b565b5b602082029050602081019050919050565b6000612ba8612ba384612b69565b61277b565b90508083825260208201905060208402830185811115612bcb57612bca6127c2565b5b835b81811015612bf45780612be08882612639565b845260208401935050602081019050612bcd565b5050509392505050565b600082601f830112612c1357612c12612716565b5b8135612c23848260208601612b95565b91505092915050565b6000806000806000806000806000806101408b8d031215612c5057612c4f6120ff565b5b6000612c5e8d828e016122a0565b9a50506020612c6f8d828e01612639565b9950506040612c808d828e01612681565b9850506060612c918d828e016126bd565b9750506080612ca28d828e01612701565b96505060a08b013567ffffffffffffffff811115612cc357612cc2612104565b5b612ccf8d828e01612bfe565b95505060c08b013567ffffffffffffffff811115612cf057612cef612104565b5b612cfc8d828e016129ff565b94505060e0612d0d8d828e01612a52565b935050610100612d1f8d828e01612701565b925050610120612d318d828e01612981565b9150509295989b9194979a5092959850565b612d4c8161218e565b8114612d5757600080fd5b50565b600081359050612d6981612d43565b92915050565b60008060408385031215612d8657612d856120ff565b5b6000612d9485828601612355565b9250506020612da585828601612d5a565b9150509250929050565b60008060008060808587031215612dc957612dc86120ff565b5b6000612dd787828801612355565b9450506020612de887828801612355565b9350506040612df9878288016122a0565b925050606085013567ffffffffffffffff811115612e1a57612e19612104565b5b612e268782880161284e565b91505092959194509250565b60008060408385031215612e4957612e486120ff565b5b6000612e5785828601612355565b9250506020612e6885828601612355565b9150509250929050565b7f4e487b7100000000000000000000000000000000000000000000000000000000600052602260045260246000fd5b60006002820490506001821680612eb957607f821691505b602082108103612ecc57612ecb612e72565b5b50919050565b7f4552433732313a20617070726f76616c20746f2063757272656e74206f776e6560008201527f7200000000000000000000000000000000000000000000000000000000000000602082015250565b6000612f2e6021836121cf565b9150612f3982612ed2565b604082019050919050565b60006020820190508181036000830152612f5d81612f21565b9050919050565b7f4552433732313a20617070726f76652063616c6c6572206973206e6f7420746f60008201527f6b656e206f776e6572206e6f7220617070726f76656420666f7220616c6c0000602082015250565b6000612fc0603e836121cf565b9150612fcb82612f64565b604082019050919050565b60006020820190508181036000830152612fef81612fb3565b9050919050565b7f4552433732313a2063616c6c6572206973206e6f7420746f6b656e206f776e6560008201527f72206e6f7220617070726f766564000000000000000000000000000000000000602082015250565b6000613052602e836121cf565b915061305d82612ff6565b604082019050919050565b6000602082019050818103600083015261308181613045565b9050919050565b7f4e487b7100000000000000000000000000000000000000000000000000000000600052603260045260246000fd5b7f4552433732313a20696e76616c696420746f6b656e2049440000000000000000600082015250565b60006130ed6018836121cf565b91506130f8826130b7565b602082019050919050565b6000602082019050818103600083015261311c816130e0565b9050919050565b7f4552433732313a2061646472657373207a65726f206973206e6f74206120766160008201527f6c6964206f776e65720000000000000000000000000000000000000000000000602082015250565b600061317f6029836121cf565b915061318a82613123565b604082019050919050565b600060208201905081810360008301526131ae81613172565b9050919050565b7f617373657274696f6e49642063616e6e6f742062652030000000000000000000600082015250565b60006131eb6017836121cf565b91506131f6826131b5565b602082019050919050565b6000602082019050818103600083015261321a816131de565b9050919050565b7f53697a65206973206f7574206f662072616e6765205b312c203330305d000000600082015250565b6000613257601d836121cf565b915061326282613221565b602082019050919050565b600060208201905081810360008301526132868161324a565b9050919050565b7f4e756d626572206f66206b6579776f726473206973206f7574206f662072616e60008201527f6765205b312c20355d0000000000000000000000000000000000000000000000602082015250565b60006132e96029836121cf565b91506132f48261328d565b604082019050919050565b60006020820190508181036000830152613318816132dc565b9050919050565b7f4e756d626572206f662068617368696e672066756e6374696f6e732063616e6e60008201527f6f74206265203000000000000000000000000000000000000000000000000000602082015250565b600061337b6027836121cf565b91506133868261331f565b604082019050919050565b600060208201905081810360008301526133aa8161336e565b9050919050565b7f45706f636873206e756d6265722063616e6e6f74206265203000000000000000600082015250565b60006133e76019836121cf565b91506133f2826133b1565b602082019050919050565b60006020820190508181036000830152613416816133da565b9050919050565b7f546f6b656e20616d6f756e742063616e6e6f7420626520300000000000000000600082015250565b60006134536018836121cf565b915061345e8261341d565b602082019050919050565b6000602082019050818103600083015261348281613446565b9050919050565b7f4e487b7100000000000000000000000000000000000000000000000000000000600052601160045260246000fd5b60006134c38261227f565b91507fffffffffffffffffffffffffffffffffffffffffffffffffffffffffffffffff82036134f5576134f4613489565b5b600182019050919050565b7f417373657274696f6e5265676973747279000000000000000000000000000000600082015250565b60006135366011836121cf565b915061354182613500565b602082019050919050565b6000602082019050818103600083015261356581613529565b9050919050565b60008151905061357b8161233e565b92915050565b600060208284031215613597576135966120ff565b5b60006135a58482850161356c565b91505092915050565b6135b78161264e565b82525050565b6135c681612696565b82525050565b6135d5816126d2565b82525050565b600060a0820190506135f060008301886124c1565b6135fd6020830187612314565b61360a60408301866135ae565b61361760608301856135bd565b61362460808301846135cc565b9695505050505050565b7f5365727669636541677265656d656e7453746f72616765000000000000000000600082015250565b60006136646017836121cf565b915061366f8261362e565b602082019050919050565b6000602082019050818103600083015261369381613657565b9050919050565b600081519050919050565b600082825260208201905092915050565b60006136c18261369a565b6136cb81856136a5565b93506136db8185602086016121e0565b6136e481612213565b840191505092915050565b6136f88161295d565b82525050565b61370781612a2d565b82525050565b600061010082019050613723600083018b612314565b613730602083018a612314565b61373d60408301896124eb565b818103606083015261374f81886136b6565b905061375e60808301876136ef565b61376b60a08301866136fe565b61377860c08301856135cc565b61378560e08301846136ef565b9998505050505050505050565b600061379d8261295d565b915060ff82036137b0576137af613489565b5b600182019050919050565b7f4f6e6c79206f776e65722063616e2075706461746520616e2061737365740000600082015250565b60006137f1601e836121cf565b91506137fc826137bb565b602082019050919050565b60006020820190508181036000830152613820816137e4565b9050919050565b600081905092915050565b600061383d826121c4565b6138478185613827565b93506138578185602086016121e0565b80840191505092915050565b600061386f8285613832565b915061387b8284613832565b91508190509392505050565b7f4552433732313a207472616e736665722066726f6d20696e636f72726563742060008201527f6f776e6572000000000000000000000000000000000000000000000000000000602082015250565b60006138e36025836121cf565b91506138ee82613887565b604082019050919050565b60006020820190508181036000830152613912816138d6565b9050919050565b7f4552433732313a207472616e7366657220746f20746865207a65726f2061646460008201527f7265737300000000000000000000000000000000000000000000000000000000602082015250565b60006139756024836121cf565b915061398082613919565b604082019050919050565b600060208201905081810360008301526139a481613968565b9050919050565b60006139b68261227f565b91506139c18361227f565b9250828210156139d4576139d3613489565b5b828203905092915050565b60006139ea8261227f565b91506139f58361227f565b9250827fffffffffffffffffffffffffffffffffffffffffffffffffffffffffffffffff03821115613a2a57613a29613489565b5b828201905092915050565b7f4552433732313a206d696e7420746f20746865207a65726f2061646472657373600082015250565b6000613a6b6020836121cf565b9150613a7682613a35565b602082019050919050565b60006020820190508181036000830152613a9a81613a5e565b9050919050565b7f4552433732313a20746f6b656e20616c7265616479206d696e74656400000000600082015250565b6000613ad7601c836121cf565b9150613ae282613aa1565b602082019050919050565b60006020820190508181036000830152613b0681613aca565b9050919050565b7f4552433732313a20617070726f766520746f2063616c6c657200000000000000600082015250565b6000613b436019836121cf565b9150613b4e82613b0d565b602082019050919050565b60006020820190508181036000830152613b7281613b36565b9050919050565b7f4552433732313a207472616e7366657220746f206e6f6e20455243373231526560008201527f63656976657220696d706c656d656e7465720000000000000000000000000000602082015250565b6000613bd56032836121cf565b9150613be082613b79565b604082019050919050565b60006020820190508181036000830152613c0481613bc8565b9050919050565b7f4e487b7100000000000000000000000000000000000000000000000000000000600052601260045260246000fd5b6000613c458261227f565b9150613c508361227f565b925082613c6057613c5f613c0b565b5b828204905092915050565b6000613c768261227f565b9150613c818361227f565b925082613c9157613c90613c0b565b5b828206905092915050565b6000608082019050613cb16000830187612314565b613cbe6020830186612314565b613ccb60408301856124eb565b8181036060830152613cdd81846136b6565b905095945050505050565b600081519050613cf781612135565b92915050565b600060208284031215613d1357613d126120ff565b5b6000613d2184828501613ce8565b9150509291505056fea264697066735822122034be1ded47134437612d6478f4e8a171f3ddb6bb0b0fe05a3437876b2e949ba364736f6c634300080e0033",
  "immutableReferences": {},
  "source": "// SPDX-License-Identifier: MIT\n\npragma solidity ^0.8.0;\n\nimport { AbstractAsset } from \"./AbstractAsset.sol\";\nimport { AssertionRegistry } from \"../AssertionRegistry.sol\";\nimport { ERC721 } from \"@openzeppelin/contracts/token/ERC721/ERC721.sol\";\nimport { IERC20 } from \"@openzeppelin/contracts/token/ERC20/IERC20.sol\";\nimport { ServiceAgreementStorage } from \"../storage/ServiceAgreementStorage.sol\";\n\ncontract IndexAsset is AbstractAsset, ERC721 {\n    struct AssetRecord {\n        bytes32[] assertions;\n    }\n\n    uint256 private _tokenId;\n\n    mapping (uint256 => AssetRecord) assetRecords;\n\n    constructor(address hubAddress)\n        AbstractAsset(hubAddress)\n        ERC721(\"IndexAsset\", \"DKG\")\n    {\n        _tokenId = 0;\n    }\n\n    function createAsset(\n        bytes32 assertionId,\n        uint128 size,\n        uint32 triplesNumber,\n        uint96 chunksNumber,\n        bytes[] memory keywords,\n        uint8[] memory hashingFunctionIds,\n        uint16 epochsNum,\n        uint96 tokenAmount,\n        uint8 scoringFunctionId\n    ) public returns (uint256) {\n\n        // address operationalWallet,\n        // address assetContract,\n        // uint256 tokenId,\n        // bytes memory keyword,\n        // uint8 hashingFunctionId,\n        // uint16 epochsNum,\n        // uint96 tokenAmount,\n        // uint8 scoringFunctionId\n\n        require(assertionId != bytes32(0), \"assertionId cannot be 0\");\n        require(size > 0 && size <= 300, \"Size is out of range [1, 300]\");\n        require(keywords.length > 0 && keywords.length <= 5, \"Number of keywords is out of range [1, 5]\");\n        require(hashingFunctionIds.length > 0, \"Number of hashing functions cannot be 0\");\n        require(epochsNum > 0, \"Epochs number cannot be 0\");\n        require(tokenAmount > 0, \"Token amount cannot be 0\");\n\n        uint256 tokenId = _tokenId;\n        _mint(msg.sender, tokenId);\n        _tokenId++;\n\n        AssertionRegistry(hub.getContractAddress(\"AssertionRegistry\")).createAssertionRecord(\n            assertionId,\n            msg.sender,\n            size,\n            triplesNumber,\n            chunksNumber\n        );\n        assetRecords[tokenId].assertions.push(assertionId);\n\n        ServiceAgreementStorage serviceAgreementStorage = ServiceAgreementStorage(\n            hub.getContractAddress(\"ServiceAgreementStorage\")\n        );\n        for (uint8 i = 0; i < keywords.length; i++) {\n            for (uint8 k = 0; k < hashingFunctionIds.length; k++) {\n                serviceAgreementStorage.createServiceAgreement(\n                    msg.sender,\n                    address(this),\n                    tokenId,\n                    keywords[i],\n                    hashingFunctionIds[k],\n                    epochsNum,\n                    tokenAmount,\n                    scoringFunctionId\n                );\n            }\n        }\n\n        emit AssetCreated(address(this), tokenId, assertionId);\n\n        return tokenId;\n    }\n\n    function updateAsset(\n        uint256 tokenId,\n        bytes32 assertionId,\n        uint128 size,\n        uint32 triplesNumber,\n        uint96 chunksNumber,\n        bytes32[] memory keywords,\n        uint8[] memory hashingFunctionIds,\n        uint16 epochsNum,\n        uint96 tokenAmount,\n        uint8 scoringFunctionId\n    ) public {\n        require(msg.sender == this.ownerOf(tokenId), \"Only owner can update an asset\");\n        require(assertionId != bytes32(0), \"assertionId cannot be 0\");\n        require(size > 0 && size <= 300, \"Size is out of range [1, 300]\");\n        require(keywords.length > 0 && keywords.length <= 5, \"Number of keywords is out of range [1, 5]\");\n        require(hashingFunctionIds.length > 0, \"Number of hashing functions cannot be 0\");\n        require(epochsNum > 0, \"Epochs number cannot be 0\");\n        require(tokenAmount > 0, \"Token amount cannot be 0\");\n\n        AssertionRegistry(hub.getContractAddress(\"AssertionRegistry\")).createAssertionRecord(\n            assertionId,\n            msg.sender,\n            size,\n            triplesNumber,\n            chunksNumber\n        );\n        assetRecords[tokenId].assertions.push(assertionId);\n\n        // TODO: Finish Service Agreements update\n        // ServiceAgreementStorage(hub.getContractAddress(\"ServiceAgreementStorage\")).updateServiceAgreement(\n        //     msg.sender,\n        //     address(this),\n        //     tokenId,\n        //     abi.encodePacked(address(this), tokenId),\n        //     0,\n        //     epochsNum,\n        //     tokenAmount\n        // );\n\n        emit AssetUpdated(address(this), tokenId, assertionId);\n    }\n\n    function getAssertions(uint256 tokenId)\n        override\n        public\n        view\n        returns (bytes32 [] memory)\n    {\n        return assetRecords[tokenId].assertions;\n    }\n}",
  "sourcePath": "/Users/waving/Desktop/OriginTrail/dkg-evm-module/contracts/assets/IndexAsset.sol",
  "compiler": {
    "name": "solc",
    "version": "0.8.14+commit.80d49f37.Emscripten.clang"
  },
  "schemaVersion": "3.4.10",
  "updatedAt": "2022-11-16T11:11:18.787Z",
  "devdoc": {
    "kind": "dev",
    "methods": {
      "approve(address,uint256)": {
        "details": "See {IERC721-approve}."
      },
      "balanceOf(address)": {
        "details": "See {IERC721-balanceOf}."
      },
      "getApproved(uint256)": {
        "details": "See {IERC721-getApproved}."
      },
      "isApprovedForAll(address,address)": {
        "details": "See {IERC721-isApprovedForAll}."
      },
      "name()": {
        "details": "See {IERC721Metadata-name}."
      },
      "ownerOf(uint256)": {
        "details": "See {IERC721-ownerOf}."
      },
      "safeTransferFrom(address,address,uint256)": {
        "details": "See {IERC721-safeTransferFrom}."
      },
      "safeTransferFrom(address,address,uint256,bytes)": {
        "details": "See {IERC721-safeTransferFrom}."
      },
      "setApprovalForAll(address,bool)": {
        "details": "See {IERC721-setApprovalForAll}."
      },
      "supportsInterface(bytes4)": {
        "details": "See {IERC165-supportsInterface}."
      },
      "symbol()": {
        "details": "See {IERC721Metadata-symbol}."
      },
      "tokenURI(uint256)": {
        "details": "See {IERC721Metadata-tokenURI}."
      },
      "transferFrom(address,address,uint256)": {
        "details": "See {IERC721-transferFrom}."
      }
    },
    "version": 1
  },
  "userdoc": {
    "kind": "user",
    "methods": {},
    "version": 1
  }
}