{
  "contractName": "Log2PLDSF",
  "abi": [
    {
      "inputs": [
        {
          "internalType": "address",
          "name": "hubAddress",
          "type": "address"
        }
      ],
      "stateMutability": "nonpayable",
      "type": "constructor"
    },
    {
      "inputs": [
        {
          "internalType": "uint256",
          "name": "x",
          "type": "uint256"
        }
      ],
      "name": "PRBMathUD60x18__LogInputTooSmall",
      "type": "error"
    },
    {
      "inputs": [],
      "name": "a",
      "outputs": [
        {
          "internalType": "uint32",
          "name": "",
          "type": "uint32"
        }
      ],
      "stateMutability": "view",
      "type": "function"
    },
    {
      "inputs": [],
      "name": "b",
      "outputs": [
        {
          "internalType": "uint32",
          "name": "",
          "type": "uint32"
        }
      ],
      "stateMutability": "view",
      "type": "function"
    },
    {
      "inputs": [],
      "name": "c",
      "outputs": [
        {
          "internalType": "uint32",
          "name": "",
          "type": "uint32"
        }
      ],
      "stateMutability": "view",
      "type": "function"
    },
    {
      "inputs": [],
      "name": "d",
      "outputs": [
        {
          "internalType": "uint32",
          "name": "",
          "type": "uint32"
        }
      ],
      "stateMutability": "view",
      "type": "function"
    },
    {
      "inputs": [],
      "name": "distanceExponent",
      "outputs": [
        {
          "internalType": "uint32",
          "name": "",
          "type": "uint32"
        }
      ],
      "stateMutability": "view",
      "type": "function"
    },
    {
      "inputs": [],
      "name": "distanceMappingCoefficient",
      "outputs": [
        {
          "internalType": "uint256",
          "name": "",
          "type": "uint256"
        }
      ],
      "stateMutability": "view",
      "type": "function"
    },
    {
      "inputs": [],
      "name": "hashingProxy",
      "outputs": [
        {
          "internalType": "contract HashingProxy",
          "name": "",
          "type": "address"
        }
      ],
      "stateMutability": "view",
      "type": "function"
    },
    {
      "inputs": [],
      "name": "hub",
      "outputs": [
        {
          "internalType": "contract Hub",
          "name": "",
          "type": "address"
        }
      ],
      "stateMutability": "view",
      "type": "function"
    },
    {
      "inputs": [],
      "name": "logArgumentConstant",
      "outputs": [
        {
          "internalType": "uint32",
          "name": "",
          "type": "uint32"
        }
      ],
      "stateMutability": "view",
      "type": "function"
    },
    {
      "inputs": [],
      "name": "multiplier",
      "outputs": [
        {
          "internalType": "uint32",
          "name": "",
          "type": "uint32"
        }
      ],
      "stateMutability": "view",
      "type": "function"
    },
    {
      "inputs": [],
      "name": "parametersStorage",
      "outputs": [
        {
          "internalType": "contract ParametersStorage",
          "name": "",
          "type": "address"
        }
      ],
      "stateMutability": "view",
      "type": "function"
    },
    {
      "inputs": [],
      "name": "stakeExponent",
      "outputs": [
        {
          "internalType": "uint32",
          "name": "",
          "type": "uint32"
        }
      ],
      "stateMutability": "view",
      "type": "function"
    },
    {
      "inputs": [],
      "name": "stakeMappingCoefficient",
      "outputs": [
        {
          "internalType": "uint96",
          "name": "",
          "type": "uint96"
        }
      ],
      "stateMutability": "view",
      "type": "function"
    },
    {
      "inputs": [],
      "name": "initialize",
      "outputs": [],
      "stateMutability": "nonpayable",
      "type": "function"
    },
    {
      "inputs": [],
      "name": "id",
      "outputs": [
        {
          "internalType": "uint8",
          "name": "",
          "type": "uint8"
        }
      ],
      "stateMutability": "pure",
      "type": "function"
    },
    {
      "inputs": [],
      "name": "name",
      "outputs": [
        {
          "internalType": "string",
          "name": "",
          "type": "string"
        }
      ],
      "stateMutability": "pure",
      "type": "function"
    },
    {
      "inputs": [
        {
          "internalType": "uint256",
          "name": "distance",
          "type": "uint256"
        },
        {
          "internalType": "uint96",
          "name": "stake",
          "type": "uint96"
        }
      ],
      "name": "calculateScore",
      "outputs": [
        {
          "internalType": "uint40",
          "name": "",
          "type": "uint40"
        }
      ],
      "stateMutability": "view",
      "type": "function"
    },
    {
      "inputs": [
        {
          "internalType": "uint8",
          "name": "hashFunctionId",
          "type": "uint8"
        },
        {
          "internalType": "bytes",
          "name": "nodeId",
          "type": "bytes"
        },
        {
          "internalType": "bytes",
          "name": "keyword",
          "type": "bytes"
        }
      ],
      "name": "calculateDistance",
      "outputs": [
        {
          "internalType": "uint256",
          "name": "",
          "type": "uint256"
        }
      ],
      "stateMutability": "view",
      "type": "function"
    },
    {
      "inputs": [],
      "name": "getParameters",
      "outputs": [
        {
          "internalType": "uint256",
          "name": "",
          "type": "uint256"
        },
        {
          "internalType": "uint96",
          "name": "",
          "type": "uint96"
        },
        {
          "internalType": "uint32[8]",
          "name": "",
          "type": "uint32[8]"
        }
      ],
      "stateMutability": "view",
      "type": "function"
    },
    {
      "inputs": [
        {
          "internalType": "uint256",
          "name": "distanceRangeMax",
          "type": "uint256"
        }
      ],
      "name": "setDistanceMappingCoefficient",
      "outputs": [],
      "stateMutability": "nonpayable",
      "type": "function"
    },
    {
      "inputs": [
        {
          "internalType": "uint96",
          "name": "stakeRangeMax",
          "type": "uint96"
        }
      ],
      "name": "setStakeMappingCoefficient",
      "outputs": [],
      "stateMutability": "nonpayable",
      "type": "function"
    },
    {
      "inputs": [
        {
          "internalType": "uint32",
          "name": "multiplier_",
          "type": "uint32"
        }
      ],
      "name": "setMultiplier",
      "outputs": [],
      "stateMutability": "nonpayable",
      "type": "function"
    },
    {
      "inputs": [
        {
          "internalType": "uint32",
          "name": "logArgumentConstant_",
          "type": "uint32"
        }
      ],
      "name": "setLogArgumentConstant",
      "outputs": [],
      "stateMutability": "nonpayable",
      "type": "function"
    },
    {
      "inputs": [
        {
          "internalType": "uint32",
          "name": "a_",
          "type": "uint32"
        }
      ],
      "name": "setA",
      "outputs": [],
      "stateMutability": "nonpayable",
      "type": "function"
    },
    {
      "inputs": [
        {
          "internalType": "uint32",
          "name": "stakeExponent_",
          "type": "uint32"
        }
      ],
      "name": "setStakeExponent",
      "outputs": [],
      "stateMutability": "nonpayable",
      "type": "function"
    },
    {
      "inputs": [
        {
          "internalType": "uint32",
          "name": "b_",
          "type": "uint32"
        }
      ],
      "name": "setB",
      "outputs": [],
      "stateMutability": "nonpayable",
      "type": "function"
    },
    {
      "inputs": [
        {
          "internalType": "uint32",
          "name": "c_",
          "type": "uint32"
        }
      ],
      "name": "setC",
      "outputs": [],
      "stateMutability": "nonpayable",
      "type": "function"
    },
    {
      "inputs": [
        {
          "internalType": "uint32",
          "name": "distanceExponent_",
          "type": "uint32"
        }
      ],
      "name": "setDistanceExponent",
      "outputs": [],
      "stateMutability": "nonpayable",
      "type": "function"
    },
    {
      "inputs": [
        {
          "internalType": "uint32",
          "name": "d_",
          "type": "uint32"
        }
      ],
      "name": "setD",
      "outputs": [],
      "stateMutability": "nonpayable",
      "type": "function"
    }
  ],
  "bytecode": "0x60806040523480156200001157600080fd5b5060405162001822380380620018228339810160408190526200003491620003b2565b6001600160a01b0381166200004857600080fd5b600080546001600160a01b0319166001600160a01b0383161790556200006d62000177565b6200007d6103e8600019620003fa565b6003556002546040805163b5c6b45360e01b8152905162030d40926001600160a01b03169163b5c6b4539160048083019260209291908290030181865afa158015620000cd573d6000803e3d6000fd5b505050506040513d601f19601f82011682018060405250810190620000f3919062000411565b620000ff91906200043c565b6004805478010000000100000001000000000000000000000000000000006001600160601b03939093166001600160801b0319909116176d2710000000000000000000000000176001600160801b031691909117905550600580546001600160601b0319166801000000020000000117905562000465565b62000181620002d3565b600054604051630110ceef60e21b815260206004820152600c60248201526b48617368696e6750726f787960a01b60448201526001600160a01b03909116906304433bbc90606401602060405180830381865afa158015620001e7573d6000803e3d6000fd5b505050506040513d601f19601f820116820180604052508101906200020d9190620003b2565b600180546001600160a01b0319166001600160a01b03928316179055600054604051630110ceef60e21b8152602060048201526011602482015270506172616d657465727353746f7261676560781b60448201529116906304433bbc90606401602060405180830381865afa1580156200028b573d6000803e3d6000fd5b505050506040513d601f19601f82011682018060405250810190620002b19190620003b2565b600280546001600160a01b0319166001600160a01b0392909216919091179055565b60008054906101000a90046001600160a01b03166001600160a01b0316638da5cb5b6040518163ffffffff1660e01b8152600401602060405180830381865afa15801562000325573d6000803e3d6000fd5b505050506040513d601f19601f820116820180604052508101906200034b9190620003b2565b6001600160a01b0316336001600160a01b031614620003b05760405162461bcd60e51b815260206004820181905260248201527f466e2063616e206f6e6c79206265207573656420627920687562206f776e6572604482015260640160405180910390fd5b565b600060208284031215620003c557600080fd5b81516001600160a01b0381168114620003dd57600080fd5b9392505050565b634e487b7160e01b600052601260045260246000fd5b6000826200040c576200040c620003e4565b500490565b6000602082840312156200042457600080fd5b81516001600160601b0381168114620003dd57600080fd5b60006001600160601b0383811680620004595762000459620003e4565b92169190910492915050565b6113ad80620004756000396000f3fe608060405234801561001057600080fd5b50600436106101cf5760003560e01c80637525e9e811610104578063af640d0f116100a2578063df6ccca011610071578063df6ccca014610446578063ecfb34bf14610459578063ee8a523d1461046c578063f1cee31e1461048357600080fd5b8063af640d0f146103e9578063bd8aad27146103f8578063c3da42b81461040b578063ccd19ae11461041b57600080fd5b80638129fc1c116100de5780638129fc1c1461038a5780638a054ac214610392578063a0db80ad146103a9578063a5ea11da146103d257600080fd5b80637525e9e81461034c57806375a146cb1461035f57806380f65fda1461037757600080fd5b8063274e1962116101715780634212a54e1161014b5780634212a54e146102fc5780634df7e3d01461030f5780634f10335314610326578063639a86a31461033957600080fd5b8063274e1962146102b5578063365a86fc146102d657806339581169146102e957600080fd5b80630dbe671f116101ad5780630dbe671f146102305780631051e18f1461025c57806311c94ee8146102735780631b3ed7221461029e57600080fd5b8063015342c2146101d457806306fdde03146101e95780630c5ccf571461021d575b600080fd5b6101e76101e2366004610db5565b61048c565b005b60408051808201825260098152682637b39928262229a360b91b602082015290516102149190610dd9565b60405180910390f35b6101e761022b366004610e27565b610533565b60045461024790600160a01b900463ffffffff1681565b60405163ffffffff9091168152602001610214565b60045461024790600160c01b900463ffffffff1681565b600154610286906001600160a01b031681565b6040516001600160a01b039091168152602001610214565b60045461024790600160601b900463ffffffff1681565b6102c86102c3366004610e96565b610561565b604051908152602001610214565b600054610286906001600160a01b031681565b6101e76102f7366004610e27565b610660565b6101e761030a366004610e27565b61068e565b60045461024790600160e01b900463ffffffff1681565b6101e7610334366004610e27565b6106b2565b600254610286906001600160a01b031681565b6101e761035a366004610e27565b6106df565b60055461024790640100000000900463ffffffff1681565b6101e7610385366004610f1f565b61070f565b6101e7610729565b60055461024790600160401b900463ffffffff1681565b6103bc6103b7366004610f38565b61087d565b60405164ffffffffff9091168152602001610214565b6103da6109d4565b60405161021493929190610f68565b60405160018152602001610214565b6101e7610406366004610e27565b610a76565b6005546102479063ffffffff1681565b60045461042e906001600160601b031681565b6040516001600160601b039091168152602001610214565b6101e7610454366004610e27565b610aa4565b6101e7610467366004610e27565b610ad2565b60045461024790600160801b900463ffffffff1681565b6102c860035481565b610494610b05565b6002546040805163b5c6b45360e01b8152905183926001600160a01b03169163b5c6b4539160048083019260209291908290030181865afa1580156104dd573d6000803e3d6000fd5b505050506040513d601f19601f820116820180604052508101906105019190610fbb565b61050b9190611004565b600480546bffffffffffffffffffffffff19166001600160601b039290921691909117905550565b61053b610b05565b6004805463ffffffff909216600160801b0263ffffffff60801b19909216919091179055565b6001546040516345ed59e560e01b81526000916001600160a01b031690829082906345ed59e59061059a908b908b908b9060040161102a565b602060405180830381865afa1580156105b7573d6000803e3d6000fd5b505050506040513d601f19601f820116820180604052508101906105db9190611063565b90506000826001600160a01b03166345ed59e58a88886040518463ffffffff1660e01b815260040161060f9392919061102a565b602060405180830381865afa15801561062c573d6000803e3d6000fd5b505050506040513d601f19601f820116820180604052508101906106509190611063565b9190911898975050505050505050565b610668610b05565b6004805463ffffffff909216600160c01b0263ffffffff60c01b19909216919091179055565b610696610b05565b6005805463ffffffff191663ffffffff92909216919091179055565b6106ba610b05565b6004805463ffffffff909216600160e01b026001600160e01b03909216919091179055565b6106e7610b05565b6005805463ffffffff9092166401000000000267ffffffff0000000019909216919091179055565b610717610b05565b6107238160001961107c565b60035550565b610731610b05565b600054604051630110ceef60e21b815260206004820152600c60248201526b48617368696e6750726f787960a01b60448201526001600160a01b03909116906304433bbc90606401602060405180830381865afa158015610796573d6000803e3d6000fd5b505050506040513d601f19601f820116820180604052508101906107ba9190611090565b600180546001600160a01b0319166001600160a01b03928316179055600054604051630110ceef60e21b8152602060048201526011602482015270506172616d657465727353746f7261676560781b60448201529116906304433bbc90606401602060405180830381865afa158015610837573d6000803e3d6000fd5b505050506040513d601f19601f8201168201806040525081019061085b9190611090565b600280546001600160a01b0319166001600160a01b0392909216919091179055565b6000806003548461088e919061107c565b6004549091506000906108aa906001600160601b031685611004565b600554909150670de0b6b3a76400009081906109a49063ffffffff600160401b82048116916108e391640100000000909104168761129b565b6005546108f6919063ffffffff166112ad565b61090091906112cc565b60045463ffffffff600160e01b820481169161092591600160c01b90910416876112df565b60045461093f9190600160a01b900463ffffffff166112fa565b6109499190611329565b61095d9067ffffffffffffffff86166112fa565b6001600160601b0316610970919061107c565b60045461098b908590600160801b900463ffffffff16611350565b67ffffffffffffffff1661099f91906112cc565b610be1565b6004546109be9190600160601b900463ffffffff166112ad565b6109c8919061107c565b93505050505b92915050565b6000806109df610d7e565b5050600354600454604080516101008101825263ffffffff600160601b840481168252600160801b840481166020830152600160a01b8404811692820192909252600160c01b830482166060820152600160e01b83048216608082015260055480831660a08301526401000000008104831660c0830152600160401b900490911660e082015291936001600160601b039091169250565b610a7e610b05565b6004805463ffffffff909216600160a01b0263ffffffff60a01b19909216919091179055565b610aac610b05565b6004805463ffffffff909216600160601b0263ffffffff60601b19909216919091179055565b610ada610b05565b6005805463ffffffff909216600160401b026bffffffff000000000000000019909216919091179055565b60008054906101000a90046001600160a01b03166001600160a01b0316638da5cb5b6040518163ffffffff1660e01b8152600401602060405180830381865afa158015610b56573d6000803e3d6000fd5b505050506040513d601f19601f82011682018060405250810190610b7a9190611090565b6001600160a01b0316336001600160a01b031614610bdf5760405162461bcd60e51b815260206004820181905260248201527f466e2063616e206f6e6c79206265207573656420627920687562206f776e657260448201526064015b60405180910390fd5b565b6000670de0b6b3a7640000821015610c0f57604051633621413760e21b815260048101839052602401610bd6565b6000610c24670de0b6b3a76400008404610c97565b670de0b6b3a764000081029250905082811c670de0b6b3a763ffff198101610c4d575050919050565b6706f05b59d3b200005b8015610c8f57670de0b6b3a7640000828002049150671bc16d674ec800008210610c87579283019260019190911c905b60011c610c57565b505050919050565b6000600160801b8210610cb757608091821c91610cb490826112cc565b90505b600160401b8210610cd557604091821c91610cd290826112cc565b90505b6401000000008210610cf457602091821c91610cf190826112cc565b90505b620100008210610d1157601091821c91610d0e90826112cc565b90505b6101008210610d2d57600891821c91610d2a90826112cc565b90505b60108210610d4857600491821c91610d4590826112cc565b90505b60048210610d6357600291821c91610d6090826112cc565b90505b60028210610d7957610d766001826112cc565b90505b919050565b6040518061010001604052806008906020820280368337509192915050565b6001600160601b0381168114610db257600080fd5b50565b600060208284031215610dc757600080fd5b8135610dd281610d9d565b9392505050565b600060208083528351808285015260005b81811015610e0657858101830151858201604001528201610dea565b506000604082860101526040601f19601f8301168501019250505092915050565b600060208284031215610e3957600080fd5b813563ffffffff81168114610dd257600080fd5b60008083601f840112610e5f57600080fd5b50813567ffffffffffffffff811115610e7757600080fd5b602083019150836020828501011115610e8f57600080fd5b9250929050565b600080600080600060608688031215610eae57600080fd5b853560ff81168114610ebf57600080fd5b9450602086013567ffffffffffffffff80821115610edc57600080fd5b610ee889838a01610e4d565b90965094506040880135915080821115610f0157600080fd5b50610f0e88828901610e4d565b969995985093965092949392505050565b600060208284031215610f3157600080fd5b5035919050565b60008060408385031215610f4b57600080fd5b823591506020830135610f5d81610d9d565b809150509250929050565b60006101408201905084825260206001600160601b03851681840152604083018460005b6008811015610faf57815163ffffffff1683529183019190830190600101610f8c565b50505050949350505050565b600060208284031215610fcd57600080fd5b8151610dd281610d9d565b634e487b7160e01b600052601260045260246000fd5b634e487b7160e01b600052601160045260246000fd5b60006001600160601b038084168061101e5761101e610fd8565b92169190910492915050565b60ff8416815260406020820152816040820152818360608301376000818301606090810191909152601f909201601f1916010192915050565b60006020828403121561107557600080fd5b5051919050565b60008261108b5761108b610fd8565b500490565b6000602082840312156110a257600080fd5b81516001600160a01b0381168114610dd257600080fd5b600181815b808511156110f45781600019048211156110da576110da610fee565b808516156110e757918102915b93841c93908002906110be565b509250929050565b600181815b808511156110f457816001600160601b030482111561112257611122610fee565b8085161561112f57918102915b93841c9390800290611101565b60008261114b575060016109ce565b81611158575060006109ce565b816001811461116e576002811461117857611194565b60019150506109ce565b60ff84111561118957611189610fee565b50506001821b6109ce565b5060208310610133831016604e8410600b84101617156111b7575081810a6109ce565b6111c183836110b9565b80600019048211156111d5576111d5610fee565b029392505050565b6000826111ec575060016109ce565b816111f9575060006109ce565b816001811461116e576002810361123e5760ff84111561121b5761121b610fee565b6001841b91506001600160601b0382111561123857611238610fee565b506109ce565b5060208310610133831016604e8410600b8410161715611278575081810a6001600160601b0381111561127357611273610fee565b6109ce565b61128283836110fc565b806001600160601b03048211156111d5576111d5610fee565b6000610dd263ffffffff84168361113c565b60008160001904831182151516156112c7576112c7610fee565b500290565b808201808211156109ce576109ce610fee565b6000610dd263ffffffff84166001600160601b0384166111dd565b60006001600160601b038083168185168183048111821515161561132057611320610fee565b02949350505050565b6001600160601b0381811683821601908082111561134957611349610fee565b5092915050565b600067ffffffffffffffff8083168185168183048111821515161561132057611320610fee56fea2646970667358221220c2635d1dc4c34e893f82488b66febba341e6f6462e4d3b6d2e3faf34e889dba264736f6c63430008100033",
  "immutableReferences": {},
  "source": "// SPDX-License-Identifier: MIT\n\npragma solidity ^0.8.4;\n\nimport { HashingProxy } from \"../HashingProxy.sol\";\nimport { Hub } from \"../Hub.sol\";\nimport { ParametersStorage } from \"../storage/ParametersStorage.sol\";\nimport { Indexable } from \"../interface/Indexable.sol\";\nimport { IScoreFunction } from \"../interface/IScoreFunction.sol\";\nimport { Named } from \"../interface/Named.sol\";\nimport { PRBMathUD60x18 } from \"@prb/math/contracts/PRBMathUD60x18.sol\";\n\n// Logarithmic Polynomial Long Division Score Function\ncontract Log2PLDSF is IScoreFunction, Indexable, Named {\n\n    using PRBMathUD60x18 for uint256;\n\n    uint8 private constant _ID = 1;\n    string private constant _NAME = \"Log2PLDSF\";\n\n    Hub public hub;\n    HashingProxy public hashingProxy;\n    ParametersStorage public parametersStorage;\n\n    uint256 public distanceMappingCoefficient;\n    uint96 public stakeMappingCoefficient;\n\n    uint32 public multiplier;\n    uint32 public logArgumentConstant;\n    uint32 public a;\n    uint32 public stakeExponent;\n    uint32 public b;\n    uint32 public c;\n    uint32 public distanceExponent;\n    uint32 public d;\n\n    constructor(address hubAddress) {\n        require(hubAddress != address(0));\n\n        hub = Hub(hubAddress);\n        initialize();\n\n        distanceMappingCoefficient = type(uint256).max / 1_000;\n        stakeMappingCoefficient = parametersStorage.maximumStake() / 200_000;\n\n        multiplier = 10000;\n        logArgumentConstant = 1;\n        a = 1;\n        stakeExponent = 1;\n        b = 0;\n        c = 1;\n        distanceExponent = 2;\n        d = 1;\n    }\n\n    modifier onlyHubOwner() {\n        _checkHubOwner();\n        _;\n    }\n\n    function initialize() public onlyHubOwner {\n        hashingProxy = HashingProxy(hub.getContractAddress(\"HashingProxy\"));\n        parametersStorage = ParametersStorage(hub.getContractAddress(\"ParametersStorage\"));\n    }\n\n    function id() external pure virtual override returns (uint8) {\n        return _ID;\n    }\n\n    function name() external pure virtual override returns (string memory) {\n        return _NAME;\n    }\n\n    function calculateScore(uint256 distance, uint96 stake) external view returns (uint40) {\n        uint256 mappedDistance = distance / distanceMappingCoefficient;\n        uint96 mappedStake = stake / stakeMappingCoefficient;\n\n        uint64 coefficient = 1 ether;\n\n        return uint40(\n            multiplier * (\n                logArgumentConstant * coefficient +\n                coefficient * (a * (mappedStake ** stakeExponent) + b) / (c * (mappedDistance ** distanceExponent) + d)\n            ).log2() / coefficient\n        );\n    }\n\n    function calculateDistance(uint8 hashFunctionId, bytes calldata nodeId, bytes calldata keyword)\n        external\n        view\n        returns (uint256)\n    {\n        HashingProxy hp = hashingProxy;\n        bytes32 nodeIdHash = hp.callHashFunction(hashFunctionId, nodeId);\n        bytes32 keywordHash = hp.callHashFunction(hashFunctionId, keyword);\n\n        return uint256(nodeIdHash ^ keywordHash);\n    }\n\n    function getParameters() external view returns (uint256, uint96, uint32[8] memory) {\n        return (\n            distanceMappingCoefficient,\n            stakeMappingCoefficient,\n            [\n                multiplier,\n                logArgumentConstant,\n                a,\n                stakeExponent,\n                b,\n                c,\n                distanceExponent,\n                d\n            ]\n        );\n    }\n\n    function setDistanceMappingCoefficient(uint256 distanceRangeMax) external onlyHubOwner {\n        distanceMappingCoefficient = type(uint256).max / distanceRangeMax;\n    }\n\n    function setStakeMappingCoefficient(uint96 stakeRangeMax) external onlyHubOwner {\n        stakeMappingCoefficient = parametersStorage.maximumStake() / stakeRangeMax;\n    }\n\n    function setMultiplier(uint32 multiplier_) external onlyHubOwner {\n        multiplier = multiplier_;\n    }\n\n    function setLogArgumentConstant(uint32 logArgumentConstant_) external onlyHubOwner {\n        logArgumentConstant = logArgumentConstant_;\n    }\n\n    function setA(uint32 a_) external onlyHubOwner {\n        a = a_;\n    }\n\n    function setStakeExponent(uint32 stakeExponent_) external onlyHubOwner {\n        stakeExponent = stakeExponent_;\n    }\n\n    function setB(uint32 b_) external onlyHubOwner {\n        b = b_;\n    }\n\n    function setC(uint32 c_) external onlyHubOwner {\n        c = c_;\n    }\n\n    function setDistanceExponent(uint32 distanceExponent_) external onlyHubOwner {\n        distanceExponent = distanceExponent_;\n    }\n\n    function setD(uint32 d_) external onlyHubOwner {\n        d = d_;\n    }\n\n    function _checkHubOwner() internal view virtual {\n        require (msg.sender == hub.owner(), \"Fn can only be used by hub owner\");\n    }\n\n}\n",
  "sourcePath": "/Users/waving/Desktop/OriginTrail/dkg-evm-module/contracts/scoring/log2pldsf.sol",
  "compiler": {
    "name": "solc",
    "version": "0.8.16+commit.07a7930e.Emscripten.clang"
  },
  "schemaVersion": "3.4.10",
  "updatedAt": "2022-12-08T17:46:21.990Z",
  "devdoc": {
    "kind": "dev",
    "methods": {},
    "version": 1
  },
  "userdoc": {
    "errors": {
      "PRBMathUD60x18__LogInputTooSmall(uint256)": [
        {
          "notice": "Emitted when the input is less than 1."
        }
      ]
    },
    "kind": "user",
    "methods": {},
    "version": 1
  }
}