{
  "contractName": "Log2PLDSF",
  "abi": [
    {
      "inputs": [
        {
          "internalType": "address",
          "name": "hubAddress",
          "type": "address"
        }
      ],
      "stateMutability": "nonpayable",
      "type": "constructor"
    },
    {
      "inputs": [
        {
          "internalType": "uint256",
          "name": "x",
          "type": "uint256"
        }
      ],
      "name": "PRBMathUD60x18__LogInputTooSmall",
      "type": "error"
    },
    {
      "inputs": [],
      "name": "a",
      "outputs": [
        {
          "internalType": "uint32",
          "name": "",
          "type": "uint32"
        }
      ],
      "stateMutability": "view",
      "type": "function"
    },
    {
      "inputs": [],
      "name": "b",
      "outputs": [
        {
          "internalType": "uint32",
          "name": "",
          "type": "uint32"
        }
      ],
      "stateMutability": "view",
      "type": "function"
    },
    {
      "inputs": [],
      "name": "c",
      "outputs": [
        {
          "internalType": "uint32",
          "name": "",
          "type": "uint32"
        }
      ],
      "stateMutability": "view",
      "type": "function"
    },
    {
      "inputs": [],
      "name": "d",
      "outputs": [
        {
          "internalType": "uint32",
          "name": "",
          "type": "uint32"
        }
      ],
      "stateMutability": "view",
      "type": "function"
    },
    {
      "inputs": [],
      "name": "distanceExponent",
      "outputs": [
        {
          "internalType": "uint32",
          "name": "",
          "type": "uint32"
        }
      ],
      "stateMutability": "view",
      "type": "function"
    },
    {
      "inputs": [],
      "name": "distanceMappingCoefficient",
      "outputs": [
        {
          "internalType": "uint256",
          "name": "",
          "type": "uint256"
        }
      ],
      "stateMutability": "view",
      "type": "function"
    },
    {
      "inputs": [],
      "name": "hub",
      "outputs": [
        {
          "internalType": "contract Hub",
          "name": "",
          "type": "address"
        }
      ],
      "stateMutability": "view",
      "type": "function"
    },
    {
      "inputs": [],
      "name": "logArgumentConstant",
      "outputs": [
        {
          "internalType": "uint32",
          "name": "",
          "type": "uint32"
        }
      ],
      "stateMutability": "view",
      "type": "function"
    },
    {
      "inputs": [],
      "name": "multiplier",
      "outputs": [
        {
          "internalType": "uint32",
          "name": "",
          "type": "uint32"
        }
      ],
      "stateMutability": "view",
      "type": "function"
    },
    {
      "inputs": [],
      "name": "stakeExponent",
      "outputs": [
        {
          "internalType": "uint32",
          "name": "",
          "type": "uint32"
        }
      ],
      "stateMutability": "view",
      "type": "function"
    },
    {
      "inputs": [],
      "name": "stakeMappingCoefficient",
      "outputs": [
        {
          "internalType": "uint96",
          "name": "",
          "type": "uint96"
        }
      ],
      "stateMutability": "view",
      "type": "function"
    },
    {
      "inputs": [
        {
          "internalType": "uint256",
          "name": "distance",
          "type": "uint256"
        },
        {
          "internalType": "uint96",
          "name": "stake",
          "type": "uint96"
        }
      ],
      "name": "calculateScore",
      "outputs": [
        {
          "internalType": "uint32",
          "name": "",
          "type": "uint32"
        }
      ],
      "stateMutability": "view",
      "type": "function"
    },
    {
      "inputs": [
        {
          "internalType": "uint8",
          "name": "hashFunctionId",
          "type": "uint8"
        },
        {
          "internalType": "bytes",
          "name": "nodeId",
          "type": "bytes"
        },
        {
          "internalType": "bytes",
          "name": "keyword",
          "type": "bytes"
        }
      ],
      "name": "calculateDistance",
      "outputs": [
        {
          "internalType": "uint256",
          "name": "",
          "type": "uint256"
        }
      ],
      "stateMutability": "nonpayable",
      "type": "function"
    },
    {
      "inputs": [
        {
          "internalType": "uint256",
          "name": "distanceRangeMax",
          "type": "uint256"
        }
      ],
      "name": "setDistanceMappingCoefficient",
      "outputs": [],
      "stateMutability": "nonpayable",
      "type": "function"
    },
    {
      "inputs": [
        {
          "internalType": "uint96",
          "name": "stakeRangeMax",
          "type": "uint96"
        }
      ],
      "name": "setStakeMappingCoefficient",
      "outputs": [],
      "stateMutability": "nonpayable",
      "type": "function"
    },
    {
      "inputs": [
        {
          "internalType": "uint32",
          "name": "multiplier_",
          "type": "uint32"
        }
      ],
      "name": "setMultiplier",
      "outputs": [],
      "stateMutability": "nonpayable",
      "type": "function"
    },
    {
      "inputs": [
        {
          "internalType": "uint32",
          "name": "logArgumentConstant_",
          "type": "uint32"
        }
      ],
      "name": "setLogArgumentConstant",
      "outputs": [],
      "stateMutability": "nonpayable",
      "type": "function"
    },
    {
      "inputs": [
        {
          "internalType": "uint32",
          "name": "a_",
          "type": "uint32"
        }
      ],
      "name": "setA",
      "outputs": [],
      "stateMutability": "nonpayable",
      "type": "function"
    },
    {
      "inputs": [
        {
          "internalType": "uint32",
          "name": "stakeExponent_",
          "type": "uint32"
        }
      ],
      "name": "setStakeExponent",
      "outputs": [],
      "stateMutability": "nonpayable",
      "type": "function"
    },
    {
      "inputs": [
        {
          "internalType": "uint32",
          "name": "b_",
          "type": "uint32"
        }
      ],
      "name": "setB",
      "outputs": [],
      "stateMutability": "nonpayable",
      "type": "function"
    },
    {
      "inputs": [
        {
          "internalType": "uint32",
          "name": "c_",
          "type": "uint32"
        }
      ],
      "name": "setC",
      "outputs": [],
      "stateMutability": "nonpayable",
      "type": "function"
    },
    {
      "inputs": [
        {
          "internalType": "uint32",
          "name": "distanceExponent_",
          "type": "uint32"
        }
      ],
      "name": "setDistanceExponent",
      "outputs": [],
      "stateMutability": "nonpayable",
      "type": "function"
    },
    {
      "inputs": [
        {
          "internalType": "uint32",
          "name": "d_",
          "type": "uint32"
        }
      ],
      "name": "setD",
      "outputs": [],
      "stateMutability": "nonpayable",
      "type": "function"
    }
  ],
  "bytecode": "0x60806040523480156200001157600080fd5b5060405162002bc838038062002bc88339818101604052810190620000379190620005f2565b600073ffffffffffffffffffffffffffffffffffffffff168173ffffffffffffffffffffffffffffffffffffffff16036200007157600080fd5b806000806101000a81548173ffffffffffffffffffffffffffffffffffffffff021916908373ffffffffffffffffffffffffffffffffffffffff160217905550620000c46103e8620001f860201b60201c565b620000e06aa56fa5b99019a5c80000006200033160201b60201c565b6127106002600c6101000a81548163ffffffff021916908363ffffffff1602179055506001600260106101000a81548163ffffffff021916908363ffffffff1602179055506001600260146101000a81548163ffffffff021916908363ffffffff1602179055506001600260186101000a81548163ffffffff021916908363ffffffff16021790555060006002601c6101000a81548163ffffffff021916908363ffffffff1602179055506001600360006101000a81548163ffffffff021916908363ffffffff1602179055506002600360046101000a81548163ffffffff021916908363ffffffff1602179055506001600360086101000a81548163ffffffff021916908363ffffffff1602179055505062000863565b60008054906101000a900473ffffffffffffffffffffffffffffffffffffffff1673ffffffffffffffffffffffffffffffffffffffff16638da5cb5b6040518163ffffffff1660e01b8152600401602060405180830381865afa15801562000264573d6000803e3d6000fd5b505050506040513d601f19601f820116820180604052508101906200028a9190620005f2565b73ffffffffffffffffffffffffffffffffffffffff163373ffffffffffffffffffffffffffffffffffffffff1614620002fa576040517f08c379a0000000000000000000000000000000000000000000000000000000008152600401620002f190620006ab565b60405180910390fd5b807fffffffffffffffffffffffffffffffffffffffffffffffffffffffffffffffff62000328919062000706565b60018190555050565b60008054906101000a900473ffffffffffffffffffffffffffffffffffffffff1673ffffffffffffffffffffffffffffffffffffffff16638da5cb5b6040518163ffffffff1660e01b8152600401602060405180830381865afa1580156200039d573d6000803e3d6000fd5b505050506040513d601f19601f82011682018060405250810190620003c39190620005f2565b73ffffffffffffffffffffffffffffffffffffffff163373ffffffffffffffffffffffffffffffffffffffff161462000433576040517f08c379a00000000000000000000000000000000000000000000000000000000081526004016200042a90620006ab565b60405180910390fd5b60008060009054906101000a900473ffffffffffffffffffffffffffffffffffffffff1673ffffffffffffffffffffffffffffffffffffffff166304433bbc6040518163ffffffff1660e01b81526004016200048f906200078e565b602060405180830381865afa158015620004ad573d6000803e3d6000fd5b505050506040513d601f19601f82011682018060405250810190620004d39190620005f2565b9050818173ffffffffffffffffffffffffffffffffffffffff1663b5c6b4536040518163ffffffff1660e01b8152600401602060405180830381865afa15801562000522573d6000803e3d6000fd5b505050506040513d601f19601f82011682018060405250810190620005489190620007f9565b6200055491906200082b565b600260006101000a8154816bffffffffffffffffffffffff02191690836bffffffffffffffffffffffff1602179055505050565b600080fd5b600073ffffffffffffffffffffffffffffffffffffffff82169050919050565b6000620005ba826200058d565b9050919050565b620005cc81620005ad565b8114620005d857600080fd5b50565b600081519050620005ec81620005c1565b92915050565b6000602082840312156200060b576200060a62000588565b5b60006200061b84828501620005db565b91505092915050565b600082825260208201905092915050565b7f46756e6374696f6e2063616e206f6e6c792062652063616c6c6564206279206860008201527f7562206f776e6572000000000000000000000000000000000000000000000000602082015250565b60006200069360288362000624565b9150620006a08262000635565b604082019050919050565b60006020820190508181036000830152620006c68162000684565b9050919050565b6000819050919050565b7f4e487b7100000000000000000000000000000000000000000000000000000000600052601260045260246000fd5b60006200071382620006cd565b91506200072083620006cd565b925082620007335762000732620006d7565b5b828204905092915050565b7f506172616d657465727353746f72616765000000000000000000000000000000600082015250565b60006200077660118362000624565b915062000783826200073e565b602082019050919050565b60006020820190508181036000830152620007a98162000767565b9050919050565b60006bffffffffffffffffffffffff82169050919050565b620007d381620007b0565b8114620007df57600080fd5b50565b600081519050620007f381620007c8565b92915050565b60006020828403121562000812576200081162000588565b5b60006200082284828501620007e2565b91505092915050565b60006200083882620007b0565b91506200084583620007b0565b925082620008585762000857620006d7565b5b828204905092915050565b61235580620008736000396000f3fe608060405234801561001057600080fd5b506004361061014d5760003560e01c80637525e9e8116100c3578063c3da42b81161007c578063c3da42b814610364578063ccd19ae114610382578063df6ccca0146103a0578063ecfb34bf146103bc578063ee8a523d146103d8578063f1cee31e146103f65761014d565b80637525e9e8146102a457806375a146cb146102c057806380f65fda146102de5780638a054ac2146102fa578063a0db80ad14610318578063bd8aad27146103485761014d565b8063274e196211610115578063274e1962146101e4578063365a86fc1461021457806339581169146102325780634212a54e1461024e5780634df7e3d01461026a5780634f103353146102885761014d565b8063015342c2146101525780630c5ccf571461016e5780630dbe671f1461018a5780631051e18f146101a85780631b3ed722146101c6575b600080fd5b61016c6004803603810190610167919061176f565b610414565b005b610188600480360381019061018391906117d8565b61065b565b005b61019261077b565b60405161019f9190611814565b60405180910390f35b6101b0610791565b6040516101bd9190611814565b60405180910390f35b6101ce6107a7565b6040516101db9190611814565b60405180910390f35b6101fe60048036038101906101f991906119ae565b6107bd565b60405161020b9190611a52565b60405180910390f35b61021c610970565b6040516102299190611aec565b60405180910390f35b61024c600480360381019061024791906117d8565b610994565b005b610268600480360381019061026391906117d8565b610ab4565b005b610272610bd4565b60405161027f9190611814565b60405180910390f35b6102a2600480360381019061029d91906117d8565b610bea565b005b6102be60048036038101906102b991906117d8565b610d0a565b005b6102c8610e2a565b6040516102d59190611814565b60405180910390f35b6102f860048036038101906102f39190611b33565b610e40565b005b610302610f71565b60405161030f9190611814565b60405180910390f35b610332600480360381019061032d9190611b60565b610f87565b60405161033f9190611814565b60405180910390f35b610362600480360381019061035d91906117d8565b611149565b005b61036c611269565b6040516103799190611814565b60405180910390f35b61038a61127f565b6040516103979190611baf565b60405180910390f35b6103ba60048036038101906103b591906117d8565b61129d565b005b6103d660048036038101906103d191906117d8565b6113bd565b005b6103e06114dd565b6040516103ed9190611814565b60405180910390f35b6103fe6114f3565b60405161040b9190611a52565b60405180910390f35b60008054906101000a900473ffffffffffffffffffffffffffffffffffffffff1673ffffffffffffffffffffffffffffffffffffffff16638da5cb5b6040518163ffffffff1660e01b8152600401602060405180830381865afa15801561047f573d6000803e3d6000fd5b505050506040513d601f19601f820116820180604052508101906104a39190611c08565b73ffffffffffffffffffffffffffffffffffffffff163373ffffffffffffffffffffffffffffffffffffffff1614610510576040517f08c379a000000000000000000000000000000000000000000000000000000000815260040161050790611cb8565b60405180910390fd5b60008060009054906101000a900473ffffffffffffffffffffffffffffffffffffffff1673ffffffffffffffffffffffffffffffffffffffff166304433bbc6040518163ffffffff1660e01b815260040161056a90611d24565b602060405180830381865afa158015610587573d6000803e3d6000fd5b505050506040513d601f19601f820116820180604052508101906105ab9190611c08565b9050818173ffffffffffffffffffffffffffffffffffffffff1663b5c6b4536040518163ffffffff1660e01b8152600401602060405180830381865afa1580156105f9573d6000803e3d6000fd5b505050506040513d601f19601f8201168201806040525081019061061d9190611d59565b6106279190611de4565b600260006101000a8154816bffffffffffffffffffffffff02191690836bffffffffffffffffffffffff1602179055505050565b60008054906101000a900473ffffffffffffffffffffffffffffffffffffffff1673ffffffffffffffffffffffffffffffffffffffff16638da5cb5b6040518163ffffffff1660e01b8152600401602060405180830381865afa1580156106c6573d6000803e3d6000fd5b505050506040513d601f19601f820116820180604052508101906106ea9190611c08565b73ffffffffffffffffffffffffffffffffffffffff163373ffffffffffffffffffffffffffffffffffffffff1614610757576040517f08c379a000000000000000000000000000000000000000000000000000000000815260040161074e90611cb8565b60405180910390fd5b80600260106101000a81548163ffffffff021916908363ffffffff16021790555050565b600260149054906101000a900463ffffffff1681565b600260189054906101000a900463ffffffff1681565b6002600c9054906101000a900463ffffffff1681565b60008060008054906101000a900473ffffffffffffffffffffffffffffffffffffffff1673ffffffffffffffffffffffffffffffffffffffff166304433bbc6040518163ffffffff1660e01b815260040161081790611e61565b602060405180830381865afa158015610834573d6000803e3d6000fd5b505050506040513d601f19601f820116820180604052508101906108589190611c08565b905060008173ffffffffffffffffffffffffffffffffffffffff166345ed59e587876040518363ffffffff1660e01b8152600401610897929190611f18565b6020604051808303816000875af11580156108b6573d6000803e3d6000fd5b505050506040513d601f19601f820116820180604052508101906108da9190611f7e565b905060008273ffffffffffffffffffffffffffffffffffffffff166345ed59e588876040518363ffffffff1660e01b8152600401610919929190611f18565b6020604051808303816000875af1158015610938573d6000803e3d6000fd5b505050506040513d601f19601f8201168201806040525081019061095c9190611f7e565b905080821860001c93505050509392505050565b60008054906101000a900473ffffffffffffffffffffffffffffffffffffffff1681565b60008054906101000a900473ffffffffffffffffffffffffffffffffffffffff1673ffffffffffffffffffffffffffffffffffffffff16638da5cb5b6040518163ffffffff1660e01b8152600401602060405180830381865afa1580156109ff573d6000803e3d6000fd5b505050506040513d601f19601f82011682018060405250810190610a239190611c08565b73ffffffffffffffffffffffffffffffffffffffff163373ffffffffffffffffffffffffffffffffffffffff1614610a90576040517f08c379a0000000000000000000000000000000000000000000000000000000008152600401610a8790611cb8565b60405180910390fd5b80600260186101000a81548163ffffffff021916908363ffffffff16021790555050565b60008054906101000a900473ffffffffffffffffffffffffffffffffffffffff1673ffffffffffffffffffffffffffffffffffffffff16638da5cb5b6040518163ffffffff1660e01b8152600401602060405180830381865afa158015610b1f573d6000803e3d6000fd5b505050506040513d601f19601f82011682018060405250810190610b439190611c08565b73ffffffffffffffffffffffffffffffffffffffff163373ffffffffffffffffffffffffffffffffffffffff1614610bb0576040517f08c379a0000000000000000000000000000000000000000000000000000000008152600401610ba790611cb8565b60405180910390fd5b80600360006101000a81548163ffffffff021916908363ffffffff16021790555050565b6002601c9054906101000a900463ffffffff1681565b60008054906101000a900473ffffffffffffffffffffffffffffffffffffffff1673ffffffffffffffffffffffffffffffffffffffff16638da5cb5b6040518163ffffffff1660e01b8152600401602060405180830381865afa158015610c55573d6000803e3d6000fd5b505050506040513d601f19601f82011682018060405250810190610c799190611c08565b73ffffffffffffffffffffffffffffffffffffffff163373ffffffffffffffffffffffffffffffffffffffff1614610ce6576040517f08c379a0000000000000000000000000000000000000000000000000000000008152600401610cdd90611cb8565b60405180910390fd5b806002601c6101000a81548163ffffffff021916908363ffffffff16021790555050565b60008054906101000a900473ffffffffffffffffffffffffffffffffffffffff1673ffffffffffffffffffffffffffffffffffffffff16638da5cb5b6040518163ffffffff1660e01b8152600401602060405180830381865afa158015610d75573d6000803e3d6000fd5b505050506040513d601f19601f82011682018060405250810190610d999190611c08565b73ffffffffffffffffffffffffffffffffffffffff163373ffffffffffffffffffffffffffffffffffffffff1614610e06576040517f08c379a0000000000000000000000000000000000000000000000000000000008152600401610dfd90611cb8565b60405180910390fd5b80600360046101000a81548163ffffffff021916908363ffffffff16021790555050565b600360049054906101000a900463ffffffff1681565b60008054906101000a900473ffffffffffffffffffffffffffffffffffffffff1673ffffffffffffffffffffffffffffffffffffffff16638da5cb5b6040518163ffffffff1660e01b8152600401602060405180830381865afa158015610eab573d6000803e3d6000fd5b505050506040513d601f19601f82011682018060405250810190610ecf9190611c08565b73ffffffffffffffffffffffffffffffffffffffff163373ffffffffffffffffffffffffffffffffffffffff1614610f3c576040517f08c379a0000000000000000000000000000000000000000000000000000000008152600401610f3390611cb8565b60405180910390fd5b807fffffffffffffffffffffffffffffffffffffffffffffffffffffffffffffffff610f689190611fab565b60018190555050565b600360089054906101000a900463ffffffff1681565b60008060015484610f989190611fab565b90506000600260009054906101000a90046bffffffffffffffffffffffff1684610fc29190611de4565b90506000670de0b6b3a764000090508067ffffffffffffffff16611111600360089054906101000a900463ffffffff1663ffffffff16600360049054906101000a900463ffffffff1686611016919061210f565b600360009054906101000a900463ffffffff1663ffffffff16611039919061215a565b61104391906121b4565b6002601c9054906101000a900463ffffffff1663ffffffff16600260189054906101000a900463ffffffff168661107a919061220a565b600260149054906101000a900463ffffffff1663ffffffff1661109d9190612241565b6110a79190612287565b8467ffffffffffffffff166110bc9190612241565b6bffffffffffffffffffffffff166110d49190611fab565b83600260109054906101000a900463ffffffff1663ffffffff166110f891906122dd565b67ffffffffffffffff1661110c91906121b4565b6114f9565b6002600c9054906101000a900463ffffffff1663ffffffff16611134919061215a565b61113e9190611fab565b935050505092915050565b60008054906101000a900473ffffffffffffffffffffffffffffffffffffffff1673ffffffffffffffffffffffffffffffffffffffff16638da5cb5b6040518163ffffffff1660e01b8152600401602060405180830381865afa1580156111b4573d6000803e3d6000fd5b505050506040513d601f19601f820116820180604052508101906111d89190611c08565b73ffffffffffffffffffffffffffffffffffffffff163373ffffffffffffffffffffffffffffffffffffffff1614611245576040517f08c379a000000000000000000000000000000000000000000000000000000000815260040161123c90611cb8565b60405180910390fd5b80600260146101000a81548163ffffffff021916908363ffffffff16021790555050565b600360009054906101000a900463ffffffff1681565b600260009054906101000a90046bffffffffffffffffffffffff1681565b60008054906101000a900473ffffffffffffffffffffffffffffffffffffffff1673ffffffffffffffffffffffffffffffffffffffff16638da5cb5b6040518163ffffffff1660e01b8152600401602060405180830381865afa158015611308573d6000803e3d6000fd5b505050506040513d601f19601f8201168201806040525081019061132c9190611c08565b73ffffffffffffffffffffffffffffffffffffffff163373ffffffffffffffffffffffffffffffffffffffff1614611399576040517f08c379a000000000000000000000000000000000000000000000000000000000815260040161139090611cb8565b60405180910390fd5b806002600c6101000a81548163ffffffff021916908363ffffffff16021790555050565b60008054906101000a900473ffffffffffffffffffffffffffffffffffffffff1673ffffffffffffffffffffffffffffffffffffffff16638da5cb5b6040518163ffffffff1660e01b8152600401602060405180830381865afa158015611428573d6000803e3d6000fd5b505050506040513d601f19601f8201168201806040525081019061144c9190611c08565b73ffffffffffffffffffffffffffffffffffffffff163373ffffffffffffffffffffffffffffffffffffffff16146114b9576040517f08c379a00000000000000000000000000000000000000000000000000000000081526004016114b090611cb8565b60405180910390fd5b80600360086101000a81548163ffffffff021916908363ffffffff16021790555050565b600260109054906101000a900463ffffffff1681565b60015481565b6000670de0b6b3a764000082101561154857816040517fd88504dc00000000000000000000000000000000000000000000000000000000815260040161153f9190611a52565b60405180910390fd5b600061156b670de0b6b3a7640000848161156557611564611d86565b5b04611600565b9050670de0b6b3a76400008102915060008184901c9050670de0b6b3a764000081036115985750506115fb565b60006706f05b59d3b2000090505b60008111156115f757670de0b6b3a7640000828302816115c9576115c8611d86565b5b049150670de0b6b3a764000060020282106115eb578084019350600182901c91505b600181901c90506115a6565b5050505b919050565b6000700100000000000000000000000000000000821061163157608082901c915060808161162e91906121b4565b90505b68010000000000000000821061165857604082901c915060408161165591906121b4565b90505b640100000000821061167b57602082901c915060208161167891906121b4565b90505b62010000821061169c57601082901c915060108161169991906121b4565b90505b61010082106116bc57600882901c91506008816116b991906121b4565b90505b601082106116db57600482901c91506004816116d891906121b4565b90505b600482106116fa57600282901c91506002816116f791906121b4565b90505b600282106117125760018161170f91906121b4565b90505b919050565b6000604051905090565b600080fd5b600080fd5b60006bffffffffffffffffffffffff82169050919050565b61174c8161172b565b811461175757600080fd5b50565b60008135905061176981611743565b92915050565b60006020828403121561178557611784611721565b5b60006117938482850161175a565b91505092915050565b600063ffffffff82169050919050565b6117b58161179c565b81146117c057600080fd5b50565b6000813590506117d2816117ac565b92915050565b6000602082840312156117ee576117ed611721565b5b60006117fc848285016117c3565b91505092915050565b61180e8161179c565b82525050565b60006020820190506118296000830184611805565b92915050565b600060ff82169050919050565b6118458161182f565b811461185057600080fd5b50565b6000813590506118628161183c565b92915050565b600080fd5b600080fd5b6000601f19601f8301169050919050565b7f4e487b7100000000000000000000000000000000000000000000000000000000600052604160045260246000fd5b6118bb82611872565b810181811067ffffffffffffffff821117156118da576118d9611883565b5b80604052505050565b60006118ed611717565b90506118f982826118b2565b919050565b600067ffffffffffffffff82111561191957611918611883565b5b61192282611872565b9050602081019050919050565b82818337600083830152505050565b600061195161194c846118fe565b6118e3565b90508281526020810184848401111561196d5761196c61186d565b5b61197884828561192f565b509392505050565b600082601f83011261199557611994611868565b5b81356119a584826020860161193e565b91505092915050565b6000806000606084860312156119c7576119c6611721565b5b60006119d586828701611853565b935050602084013567ffffffffffffffff8111156119f6576119f5611726565b5b611a0286828701611980565b925050604084013567ffffffffffffffff811115611a2357611a22611726565b5b611a2f86828701611980565b9150509250925092565b6000819050919050565b611a4c81611a39565b82525050565b6000602082019050611a676000830184611a43565b92915050565b600073ffffffffffffffffffffffffffffffffffffffff82169050919050565b6000819050919050565b6000611ab2611aad611aa884611a6d565b611a8d565b611a6d565b9050919050565b6000611ac482611a97565b9050919050565b6000611ad682611ab9565b9050919050565b611ae681611acb565b82525050565b6000602082019050611b016000830184611add565b92915050565b611b1081611a39565b8114611b1b57600080fd5b50565b600081359050611b2d81611b07565b92915050565b600060208284031215611b4957611b48611721565b5b6000611b5784828501611b1e565b91505092915050565b60008060408385031215611b7757611b76611721565b5b6000611b8585828601611b1e565b9250506020611b968582860161175a565b9150509250929050565b611ba98161172b565b82525050565b6000602082019050611bc46000830184611ba0565b92915050565b6000611bd582611a6d565b9050919050565b611be581611bca565b8114611bf057600080fd5b50565b600081519050611c0281611bdc565b92915050565b600060208284031215611c1e57611c1d611721565b5b6000611c2c84828501611bf3565b91505092915050565b600082825260208201905092915050565b7f46756e6374696f6e2063616e206f6e6c792062652063616c6c6564206279206860008201527f7562206f776e6572000000000000000000000000000000000000000000000000602082015250565b6000611ca2602883611c35565b9150611cad82611c46565b604082019050919050565b60006020820190508181036000830152611cd181611c95565b9050919050565b7f506172616d657465727353746f72616765000000000000000000000000000000600082015250565b6000611d0e601183611c35565b9150611d1982611cd8565b602082019050919050565b60006020820190508181036000830152611d3d81611d01565b9050919050565b600081519050611d5381611743565b92915050565b600060208284031215611d6f57611d6e611721565b5b6000611d7d84828501611d44565b91505092915050565b7f4e487b7100000000000000000000000000000000000000000000000000000000600052601260045260246000fd5b7f4e487b7100000000000000000000000000000000000000000000000000000000600052601160045260246000fd5b6000611def8261172b565b9150611dfa8361172b565b925082611e0a57611e09611d86565b5b828204905092915050565b7f48617368696e6750726f78790000000000000000000000000000000000000000600082015250565b6000611e4b600c83611c35565b9150611e5682611e15565b602082019050919050565b60006020820190508181036000830152611e7a81611e3e565b9050919050565b611e8a8161182f565b82525050565b600081519050919050565b600082825260208201905092915050565b60005b83811015611eca578082015181840152602081019050611eaf565b83811115611ed9576000848401525b50505050565b6000611eea82611e90565b611ef48185611e9b565b9350611f04818560208601611eac565b611f0d81611872565b840191505092915050565b6000604082019050611f2d6000830185611e81565b8181036020830152611f3f8184611edf565b90509392505050565b6000819050919050565b611f5b81611f48565b8114611f6657600080fd5b50565b600081519050611f7881611f52565b92915050565b600060208284031215611f9457611f93611721565b5b6000611fa284828501611f69565b91505092915050565b6000611fb682611a39565b9150611fc183611a39565b925082611fd157611fd0611d86565b5b828204905092915050565b60008160011c9050919050565b6000808291508390505b60018511156120335780860481111561200f5761200e611db5565b5b600185161561201e5780820291505b808102905061202c85611fdc565b9450611ff3565b94509492505050565b60008261204c5760019050612108565b8161205a5760009050612108565b8160018114612070576002811461207a576120a9565b6001915050612108565b60ff84111561208c5761208b611db5565b5b8360020a9150848211156120a3576120a2611db5565b5b50612108565b5060208310610133831016604e8410600b84101617156120de5782820a9050838111156120d9576120d8611db5565b5b612108565b6120eb8484846001611fe9565b9250905081840481111561210257612101611db5565b5b81810290505b9392505050565b600061211a82611a39565b91506121258361179c565b92506121527fffffffffffffffffffffffffffffffffffffffffffffffffffffffffffffffff848461203c565b905092915050565b600061216582611a39565b915061217083611a39565b9250817fffffffffffffffffffffffffffffffffffffffffffffffffffffffffffffffff04831182151516156121a9576121a8611db5565b5b828202905092915050565b60006121bf82611a39565b91506121ca83611a39565b9250827fffffffffffffffffffffffffffffffffffffffffffffffffffffffffffffffff038211156121ff576121fe611db5565b5b828201905092915050565b60006122158261172b565b91506122208361179c565b92506122396bffffffffffffffffffffffff848461203c565b905092915050565b600061224c8261172b565b91506122578361172b565b9250816bffffffffffffffffffffffff048311821515161561227c5761227b611db5565b5b828202905092915050565b60006122928261172b565b915061229d8361172b565b9250826bffffffffffffffffffffffff038211156122be576122bd611db5565b5b828201905092915050565b600067ffffffffffffffff82169050919050565b60006122e8826122c9565b91506122f3836122c9565b92508167ffffffffffffffff048311821515161561231457612313611db5565b5b82820290509291505056fea2646970667358221220f8d5e84c6d61bc0b5a2ba9296bafea80caaef56f48cbb912bb10d4c17fa6669964736f6c634300080e0033",
  "immutableReferences": {},
  "source": "// SPDX-License-Identifier: MIT\n\npragma solidity ^0.8.0;\n\nimport { HashingProxy } from \"../HashingProxy.sol\";\nimport { Hub } from \"../Hub.sol\";\nimport { IScoreFunction } from \"../interface/IScoreFunction.sol\";\nimport { ParametersStorage } from \"../storage/ParametersStorage.sol\";\nimport { PRBMathUD60x18 } from \"@prb/math/contracts/PRBMathUD60x18.sol\";\n\n// Logarithmic Polynomial Long Division Score Function\ncontract Log2PLDSF is IScoreFunction {\n    using PRBMathUD60x18 for uint256;\n\n    Hub public hub;\n\n    uint256 public distanceMappingCoefficient;\n    uint96 public stakeMappingCoefficient;\n\n    uint32 public multiplier;\n    uint32 public logArgumentConstant;\n    uint32 public a;\n    uint32 public stakeExponent;\n    uint32 public b;\n    uint32 public c;\n    uint32 public distanceExponent;\n    uint32 public d;\n\n    constructor(address hubAddress) {\n        require(hubAddress != address(0));\n        hub = Hub(hubAddress);\n\n        setDistanceMappingCoefficient(1_000);\n        setStakeMappingCoefficient(200_000_000 ether);\n\n        multiplier = 10000;\n        logArgumentConstant = 1;\n        a = 1;\n        stakeExponent = 1;\n        b = 0;\n        c = 1;\n        distanceExponent = 2;\n        d = 1;\n    }\n\n    modifier onlyHubOwner() {\n        require (\n            msg.sender == hub.owner(),\n            \"Function can only be called by hub owner\"\n        );\n        _;\n    }\n\n    function calculateScore(uint256 distance, uint96 stake)\n        public\n        view\n        returns (uint32)\n    {\n        uint256 mappedDistance = distance / distanceMappingCoefficient;\n        uint96 mappedStake = stake / stakeMappingCoefficient;\n\n        uint64 coefficient = 1 ether;\n\n        return uint32(\n            multiplier * (\n                logArgumentConstant * coefficient +\n                coefficient * (a * (mappedStake ** stakeExponent) + b) / (c * (mappedDistance ** distanceExponent) + d)\n            ).log2() / coefficient\n        );\n    }\n\n    function calculateDistance(uint8 hashFunctionId, bytes memory nodeId, bytes memory keyword)\n        public\n        returns (uint256)\n    {\n        HashingProxy hashingProxy = HashingProxy(hub.getContractAddress(\"HashingProxy\"));\n        bytes32 nodeIdHash = hashingProxy.callHashFunction(hashFunctionId, nodeId);\n        bytes32 keywordHash = hashingProxy.callHashFunction(hashFunctionId, keyword);\n\n        return uint256(nodeIdHash ^ keywordHash);\n    }\n\n    function setDistanceMappingCoefficient(uint256 distanceRangeMax)\n        public\n        onlyHubOwner\n    {\n        distanceMappingCoefficient = type(uint256).max / distanceRangeMax;\n    }\n\n    function setStakeMappingCoefficient(uint96 stakeRangeMax)\n        public\n        onlyHubOwner\n    {\n        ParametersStorage parametersStorage = ParametersStorage(hub.getContractAddress(\"ParametersStorage\"));\n        stakeMappingCoefficient = parametersStorage.maximumStake() / stakeRangeMax;\n    }\n\n    function setMultiplier(uint32 multiplier_)\n        public\n        onlyHubOwner\n    {\n        multiplier = multiplier_;\n    }\n\n    function setLogArgumentConstant(uint32 logArgumentConstant_)\n        public\n        onlyHubOwner\n    {\n        logArgumentConstant = logArgumentConstant_;\n    }\n\n    function setA(uint32 a_)\n        public\n        onlyHubOwner\n    {\n        a = a_;\n    }\n\n    function setStakeExponent(uint32 stakeExponent_)\n        public\n        onlyHubOwner\n    {\n        stakeExponent = stakeExponent_;\n    }\n\n    function setB(uint32 b_)\n        public\n        onlyHubOwner\n    {\n        b = b_;\n    }\n\n    function setC(uint32 c_)\n        public\n        onlyHubOwner\n    {\n        c = c_;\n    }\n\n    function setDistanceExponent(uint32 distanceExponent_)\n        public\n        onlyHubOwner\n    {\n        distanceExponent = distanceExponent_;\n    }\n\n    function setD(uint32 d_)\n        public\n        onlyHubOwner\n    {\n        d = d_;\n    }\n}\n",
  "sourcePath": "/Users/waving/Desktop/OriginTrail/dkg-evm-module/contracts/scoring/log2pldsf.sol",
  "compiler": {
    "name": "solc",
    "version": "0.8.14+commit.80d49f37.Emscripten.clang"
  },
  "schemaVersion": "3.4.10",
  "updatedAt": "2022-11-23T15:59:42.188Z",
  "devdoc": {
    "kind": "dev",
    "methods": {},
    "version": 1
  },
  "userdoc": {
    "errors": {
      "PRBMathUD60x18__LogInputTooSmall(uint256)": [
        {
          "notice": "Emitted when the input is less than 1."
        }
      ]
    },
    "kind": "user",
    "methods": {},
    "version": 1
  }
}