{
  "contractName": "Log2PLDSF",
  "abi": [
    {
      "inputs": [
        {
          "internalType": "address",
          "name": "hubAddress",
          "type": "address"
        }
      ],
      "stateMutability": "nonpayable",
      "type": "constructor"
    },
    {
      "inputs": [
        {
          "internalType": "uint256",
          "name": "x",
          "type": "uint256"
        }
      ],
      "name": "PRBMathUD60x18__LogInputTooSmall",
      "type": "error"
    },
    {
      "inputs": [],
      "name": "a",
      "outputs": [
        {
          "internalType": "uint32",
          "name": "",
          "type": "uint32"
        }
      ],
      "stateMutability": "view",
      "type": "function"
    },
    {
      "inputs": [],
      "name": "b",
      "outputs": [
        {
          "internalType": "uint32",
          "name": "",
          "type": "uint32"
        }
      ],
      "stateMutability": "view",
      "type": "function"
    },
    {
      "inputs": [],
      "name": "c",
      "outputs": [
        {
          "internalType": "uint32",
          "name": "",
          "type": "uint32"
        }
      ],
      "stateMutability": "view",
      "type": "function"
    },
    {
      "inputs": [],
      "name": "d",
      "outputs": [
        {
          "internalType": "uint32",
          "name": "",
          "type": "uint32"
        }
      ],
      "stateMutability": "view",
      "type": "function"
    },
    {
      "inputs": [],
      "name": "distanceExponent",
      "outputs": [
        {
          "internalType": "uint32",
          "name": "",
          "type": "uint32"
        }
      ],
      "stateMutability": "view",
      "type": "function"
    },
    {
      "inputs": [],
      "name": "distanceMappingCoefficient",
      "outputs": [
        {
          "internalType": "uint256",
          "name": "",
          "type": "uint256"
        }
      ],
      "stateMutability": "view",
      "type": "function"
    },
    {
      "inputs": [],
      "name": "hashingProxy",
      "outputs": [
        {
          "internalType": "contract HashingProxy",
          "name": "",
          "type": "address"
        }
      ],
      "stateMutability": "view",
      "type": "function"
    },
    {
      "inputs": [],
      "name": "hub",
      "outputs": [
        {
          "internalType": "contract Hub",
          "name": "",
          "type": "address"
        }
      ],
      "stateMutability": "view",
      "type": "function"
    },
    {
      "inputs": [],
      "name": "logArgumentConstant",
      "outputs": [
        {
          "internalType": "uint32",
          "name": "",
          "type": "uint32"
        }
      ],
      "stateMutability": "view",
      "type": "function"
    },
    {
      "inputs": [],
      "name": "multiplier",
      "outputs": [
        {
          "internalType": "uint32",
          "name": "",
          "type": "uint32"
        }
      ],
      "stateMutability": "view",
      "type": "function"
    },
    {
      "inputs": [],
      "name": "parametersStorage",
      "outputs": [
        {
          "internalType": "contract ParametersStorage",
          "name": "",
          "type": "address"
        }
      ],
      "stateMutability": "view",
      "type": "function"
    },
    {
      "inputs": [],
      "name": "stakeExponent",
      "outputs": [
        {
          "internalType": "uint32",
          "name": "",
          "type": "uint32"
        }
      ],
      "stateMutability": "view",
      "type": "function"
    },
    {
      "inputs": [],
      "name": "stakeMappingCoefficient",
      "outputs": [
        {
          "internalType": "uint96",
          "name": "",
          "type": "uint96"
        }
      ],
      "stateMutability": "view",
      "type": "function"
    },
    {
      "inputs": [],
      "name": "id",
      "outputs": [
        {
          "internalType": "uint8",
          "name": "",
          "type": "uint8"
        }
      ],
      "stateMutability": "pure",
      "type": "function"
    },
    {
      "inputs": [],
      "name": "name",
      "outputs": [
        {
          "internalType": "string",
          "name": "",
          "type": "string"
        }
      ],
      "stateMutability": "pure",
      "type": "function"
    },
    {
      "inputs": [
        {
          "internalType": "uint256",
          "name": "distance",
          "type": "uint256"
        },
        {
          "internalType": "uint96",
          "name": "stake",
          "type": "uint96"
        }
      ],
      "name": "calculateScore",
      "outputs": [
        {
          "internalType": "uint40",
          "name": "",
          "type": "uint40"
        }
      ],
      "stateMutability": "view",
      "type": "function"
    },
    {
      "inputs": [
        {
          "internalType": "uint8",
          "name": "hashFunctionId",
          "type": "uint8"
        },
        {
          "internalType": "bytes",
          "name": "nodeId",
          "type": "bytes"
        },
        {
          "internalType": "bytes",
          "name": "keyword",
          "type": "bytes"
        }
      ],
      "name": "calculateDistance",
      "outputs": [
        {
          "internalType": "uint256",
          "name": "",
          "type": "uint256"
        }
      ],
      "stateMutability": "nonpayable",
      "type": "function"
    },
    {
      "inputs": [],
      "name": "getParameters",
      "outputs": [
        {
          "internalType": "uint256",
          "name": "",
          "type": "uint256"
        },
        {
          "internalType": "uint96",
          "name": "",
          "type": "uint96"
        },
        {
          "internalType": "uint32[8]",
          "name": "",
          "type": "uint32[8]"
        }
      ],
      "stateMutability": "view",
      "type": "function"
    },
    {
      "inputs": [
        {
          "internalType": "uint256",
          "name": "distanceRangeMax",
          "type": "uint256"
        }
      ],
      "name": "setDistanceMappingCoefficient",
      "outputs": [],
      "stateMutability": "nonpayable",
      "type": "function"
    },
    {
      "inputs": [
        {
          "internalType": "uint96",
          "name": "stakeRangeMax",
          "type": "uint96"
        }
      ],
      "name": "setStakeMappingCoefficient",
      "outputs": [],
      "stateMutability": "nonpayable",
      "type": "function"
    },
    {
      "inputs": [
        {
          "internalType": "uint32",
          "name": "multiplier_",
          "type": "uint32"
        }
      ],
      "name": "setMultiplier",
      "outputs": [],
      "stateMutability": "nonpayable",
      "type": "function"
    },
    {
      "inputs": [
        {
          "internalType": "uint32",
          "name": "logArgumentConstant_",
          "type": "uint32"
        }
      ],
      "name": "setLogArgumentConstant",
      "outputs": [],
      "stateMutability": "nonpayable",
      "type": "function"
    },
    {
      "inputs": [
        {
          "internalType": "uint32",
          "name": "a_",
          "type": "uint32"
        }
      ],
      "name": "setA",
      "outputs": [],
      "stateMutability": "nonpayable",
      "type": "function"
    },
    {
      "inputs": [
        {
          "internalType": "uint32",
          "name": "stakeExponent_",
          "type": "uint32"
        }
      ],
      "name": "setStakeExponent",
      "outputs": [],
      "stateMutability": "nonpayable",
      "type": "function"
    },
    {
      "inputs": [
        {
          "internalType": "uint32",
          "name": "b_",
          "type": "uint32"
        }
      ],
      "name": "setB",
      "outputs": [],
      "stateMutability": "nonpayable",
      "type": "function"
    },
    {
      "inputs": [
        {
          "internalType": "uint32",
          "name": "c_",
          "type": "uint32"
        }
      ],
      "name": "setC",
      "outputs": [],
      "stateMutability": "nonpayable",
      "type": "function"
    },
    {
      "inputs": [
        {
          "internalType": "uint32",
          "name": "distanceExponent_",
          "type": "uint32"
        }
      ],
      "name": "setDistanceExponent",
      "outputs": [],
      "stateMutability": "nonpayable",
      "type": "function"
    },
    {
      "inputs": [
        {
          "internalType": "uint32",
          "name": "d_",
          "type": "uint32"
        }
      ],
      "name": "setD",
      "outputs": [],
      "stateMutability": "nonpayable",
      "type": "function"
    }
  ],
  "bytecode": "0x60806040523480156200001157600080fd5b5060405162001a7738038062001a778339810160408190526200003491620002b1565b6001600160a01b0381166200004857600080fd5b600080546001600160a01b0319166001600160a01b038316908117909155604051630110ceef60e21b815260206004820152600c60248201526b48617368696e6750726f787960a01b60448201526304433bbc90606401602060405180830381865afa158015620000bd573d6000803e3d6000fd5b505050506040513d601f19601f82011682018060405250810190620000e39190620002b1565b600180546001600160a01b0319166001600160a01b03928316179055600054604051630110ceef60e21b8152602060048201526011602482015270506172616d657465727353746f7261676560781b60448201529116906304433bbc90606401602060405180830381865afa15801562000161573d6000803e3d6000fd5b505050506040513d601f19601f82011682018060405250810190620001879190620002b1565b600280546001600160a01b0319166001600160a01b0392909216919091179055620001b76103e8600019620002f9565b6003556002546040805163b5c6b45360e01b8152905162030d40926001600160a01b03169163b5c6b4539160048083019260209291908290030181865afa15801562000207573d6000803e3d6000fd5b505050506040513d601f19601f820116820180604052508101906200022d919062000310565b6200023991906200033b565b6004805478010000000100000001000000000000000000000000000000006001600160601b03939093166001600160801b0319909116176d2710000000000000000000000000176001600160801b031691909117905550600580546001600160601b0319166801000000020000000117905562000364565b600060208284031215620002c457600080fd5b81516001600160a01b0381168114620002dc57600080fd5b9392505050565b634e487b7160e01b600052601260045260246000fd5b6000826200030b576200030b620002e3565b500490565b6000602082840312156200032357600080fd5b81516001600160601b0381168114620002dc57600080fd5b60006001600160601b0383811680620003585762000358620002e3565b92169190910492915050565b61170380620003746000396000f3fe608060405234801561001057600080fd5b50600436106101c45760003560e01c80637525e9e8116100f9578063bd8aad2711610097578063df6ccca011610071578063df6ccca0146104d2578063ecfb34bf146104e5578063ee8a523d146104f8578063f1cee31e1461051c57600080fd5b8063bd8aad271461047a578063c3da42b81461048d578063ccd19ae11461049d57600080fd5b80638a054ac2116100d35780638a054ac21461040f578063a0db80ad1461042b578063a5ea11da14610454578063af640d0f1461046b57600080fd5b80637525e9e8146103d157806375a146cb146103e457806380f65fda146103fc57600080fd5b8063274e1962116101665780634212a54e116101405780634212a54e1461035b5780634df7e3d01461036e5780634f1033531461039e578063639a86a3146103b157600080fd5b8063274e196214610307578063365a86fc14610328578063395811691461034857600080fd5b80630dbe671f116101a25780630dbe671f146102395780631051e18f1461027657806311c94ee8146102a25780631b3ed722146102e757600080fd5b8063015342c2146101c957806306fdde03146101de5780630c5ccf5714610226575b600080fd5b6101dc6101d7366004610ff9565b610525565b005b604080518082018252600981527f4c6f6732504c44534600000000000000000000000000000000000000000000006020820152905161021d919061101d565b60405180910390f35b6101dc610234366004611090565b61060a565b6004546102619074010000000000000000000000000000000000000000900463ffffffff1681565b60405163ffffffff909116815260200161021d565b600454610261907801000000000000000000000000000000000000000000000000900463ffffffff1681565b6001546102c29073ffffffffffffffffffffffffffffffffffffffff1681565b60405173ffffffffffffffffffffffffffffffffffffffff909116815260200161021d565b600454610261906c01000000000000000000000000900463ffffffff1681565b61031a6103153660046110ff565b61065d565b60405190815260200161021d565b6000546102c29073ffffffffffffffffffffffffffffffffffffffff1681565b6101dc610356366004611090565b610793565b6101dc610369366004611090565b6107ee565b600454610261907c0100000000000000000000000000000000000000000000000000000000900463ffffffff1681565b6101dc6103ac366004611090565b61082d565b6002546102c29073ffffffffffffffffffffffffffffffffffffffff1681565b6101dc6103df366004611090565b610888565b60055461026190640100000000900463ffffffff1681565b6101dc61040a366004611188565b6108cf565b6005546102619068010000000000000000900463ffffffff1681565b61043e6104393660046111a1565b610907565b60405164ffffffffff909116815260200161021d565b61045c610ac2565b60405161021d939291906111d1565b6040516001815260200161021d565b6101dc610488366004611090565b610bc3565b6005546102619063ffffffff1681565b6004546104b5906bffffffffffffffffffffffff1681565b6040516bffffffffffffffffffffffff909116815260200161021d565b6101dc6104e0366004611090565b610c1a565b6101dc6104f3366004611090565b610c69565b60045461026190700100000000000000000000000000000000900463ffffffff1681565b61031a60035481565b61052d610cb4565b600254604080517fb5c6b4530000000000000000000000000000000000000000000000000000000081529051839273ffffffffffffffffffffffffffffffffffffffff169163b5c6b4539160048083019260209291908290030181865afa15801561059c573d6000803e3d6000fd5b505050506040513d601f19601f820116820180604052508101906105c09190611229565b6105ca91906112a4565b600480547fffffffffffffffffffffffffffffffffffffffff000000000000000000000000166bffffffffffffffffffffffff9290921691909117905550565b610612610cb4565b6004805463ffffffff909216700100000000000000000000000000000000027fffffffffffffffffffffffff00000000ffffffffffffffffffffffffffffffff909216919091179055565b6001546040517f45ed59e500000000000000000000000000000000000000000000000000000000815260009173ffffffffffffffffffffffffffffffffffffffff1690829082906345ed59e5906106bc908b908b908b906004016112cf565b6020604051808303816000875af11580156106db573d6000803e3d6000fd5b505050506040513d601f19601f820116820180604052508101906106ff9190611326565b905060008273ffffffffffffffffffffffffffffffffffffffff166345ed59e58a88886040518463ffffffff1660e01b8152600401610740939291906112cf565b6020604051808303816000875af115801561075f573d6000803e3d6000fd5b505050506040513d601f19601f820116820180604052508101906107839190611326565b9190911898975050505050505050565b61079b610cb4565b6004805463ffffffff9092167801000000000000000000000000000000000000000000000000027fffffffff00000000ffffffffffffffffffffffffffffffffffffffffffffffff909216919091179055565b6107f6610cb4565b600580547fffffffffffffffffffffffffffffffffffffffffffffffffffffffff000000001663ffffffff92909216919091179055565b610835610cb4565b6004805463ffffffff9092167c0100000000000000000000000000000000000000000000000000000000027bffffffffffffffffffffffffffffffffffffffffffffffffffffffff909216919091179055565b610890610cb4565b6005805463ffffffff909216640100000000027fffffffffffffffffffffffffffffffffffffffffffffffff00000000ffffffff909216919091179055565b6108d7610cb4565b610901817fffffffffffffffffffffffffffffffffffffffffffffffffffffffffffffffff61133f565b60035550565b60008060035484610918919061133f565b600454909150600090610939906bffffffffffffffffffffffff16856112a4565b600554909150670de0b6b3a7640000908190610a899063ffffffff680100000000000000008204811691610977916401000000009091041687611585565b60055461098a919063ffffffff16611597565b61099491906115d4565b60045463ffffffff7c010000000000000000000000000000000000000000000000000000000082048116916109e791780100000000000000000000000000000000000000000000000090910416876115ec565b600454610a12919074010000000000000000000000000000000000000000900463ffffffff1661160c565b610a1c9190611640565b610a309067ffffffffffffffff861661160c565b6bffffffffffffffffffffffff16610a48919061133f565b600454610a70908590700100000000000000000000000000000000900463ffffffff16611670565b67ffffffffffffffff16610a8491906115d4565b610dde565b600454610aac91906c01000000000000000000000000900463ffffffff16611597565b610ab6919061133f565b93505050505b92915050565b600080610acd610fbd565b5050600354600454604080516101008101825263ffffffff6c0100000000000000000000000084048116825270010000000000000000000000000000000084048116602083015274010000000000000000000000000000000000000000840481169282019290925278010000000000000000000000000000000000000000000000008304821660608201527c010000000000000000000000000000000000000000000000000000000083048216608082015260055480831660a08301526401000000008104831660c083015268010000000000000000900490911660e082015291936bffffffffffffffffffffffff9091169250565b610bcb610cb4565b6004805463ffffffff90921674010000000000000000000000000000000000000000027fffffffffffffffff00000000ffffffffffffffffffffffffffffffffffffffff909216919091179055565b610c22610cb4565b6004805463ffffffff9092166c01000000000000000000000000027fffffffffffffffffffffffffffffffff00000000ffffffffffffffffffffffff909216919091179055565b610c71610cb4565b6005805463ffffffff90921668010000000000000000027fffffffffffffffffffffffffffffffffffffffff00000000ffffffffffffffff909216919091179055565b60008054906101000a900473ffffffffffffffffffffffffffffffffffffffff1673ffffffffffffffffffffffffffffffffffffffff16638da5cb5b6040518163ffffffff1660e01b8152600401602060405180830381865afa158015610d1f573d6000803e3d6000fd5b505050506040513d601f19601f82011682018060405250810190610d439190611697565b73ffffffffffffffffffffffffffffffffffffffff163373ffffffffffffffffffffffffffffffffffffffff1614610ddc576040517f08c379a000000000000000000000000000000000000000000000000000000000815260206004820152601e60248201527f466e2063616e206f6e6c792062652063616c6c6564206279206f776e6572000060448201526064015b60405180910390fd5b565b6000670de0b6b3a7640000821015610e25576040517fd88504dc00000000000000000000000000000000000000000000000000000000815260048101839052602401610dd3565b6000610e3a670de0b6b3a76400008404610ec4565b670de0b6b3a764000081029250905082811c7ffffffffffffffffffffffffffffffffffffffffffffffffff21f494c589c00008101610e7a575050919050565b6706f05b59d3b200005b8015610ebc57670de0b6b3a7640000828002049150671bc16d674ec800008210610eb4579283019260019190911c905b60011c610e84565b505050919050565b60007001000000000000000000000000000000008210610ef157608091821c91610eee90826115d4565b90505b680100000000000000008210610f1457604091821c91610f1190826115d4565b90505b6401000000008210610f3357602091821c91610f3090826115d4565b90505b620100008210610f5057601091821c91610f4d90826115d4565b90505b6101008210610f6c57600891821c91610f6990826115d4565b90505b60108210610f8757600491821c91610f8490826115d4565b90505b60048210610fa257600291821c91610f9f90826115d4565b90505b60028210610fb857610fb56001826115d4565b90505b919050565b6040518061010001604052806008906020820280368337509192915050565b6bffffffffffffffffffffffff81168114610ff657600080fd5b50565b60006020828403121561100b57600080fd5b813561101681610fdc565b9392505050565b600060208083528351808285015260005b8181101561104a5785810183015185820160400152820161102e565b8181111561105c576000604083870101525b50601f017fffffffffffffffffffffffffffffffffffffffffffffffffffffffffffffffe016929092016040019392505050565b6000602082840312156110a257600080fd5b813563ffffffff8116811461101657600080fd5b60008083601f8401126110c857600080fd5b50813567ffffffffffffffff8111156110e057600080fd5b6020830191508360208285010111156110f857600080fd5b9250929050565b60008060008060006060868803121561111757600080fd5b853560ff8116811461112857600080fd5b9450602086013567ffffffffffffffff8082111561114557600080fd5b61115189838a016110b6565b9096509450604088013591508082111561116a57600080fd5b50611177888289016110b6565b969995985093965092949392505050565b60006020828403121561119a57600080fd5b5035919050565b600080604083850312156111b457600080fd5b8235915060208301356111c681610fdc565b809150509250929050565b60006101408201905084825260206bffffffffffffffffffffffff851681840152604083018460005b600881101561121d57815163ffffffff16835291830191908301906001016111fa565b50505050949350505050565b60006020828403121561123b57600080fd5b815161101681610fdc565b7f4e487b7100000000000000000000000000000000000000000000000000000000600052601260045260246000fd5b7f4e487b7100000000000000000000000000000000000000000000000000000000600052601160045260246000fd5b60006bffffffffffffffffffffffff808416806112c3576112c3611246565b92169190910492915050565b60ff8416815260406020820152816040820152818360608301376000818301606090810191909152601f9092017fffffffffffffffffffffffffffffffffffffffffffffffffffffffffffffffe016010192915050565b60006020828403121561133857600080fd5b5051919050565b60008261134e5761134e611246565b500490565b600181815b808511156113ac57817fffffffffffffffffffffffffffffffffffffffffffffffffffffffffffffffff0482111561139257611392611275565b8085161561139f57918102915b93841c9390800290611358565b509250929050565b600181815b808511156113ac57816bffffffffffffffffffffffff048211156113df576113df611275565b808516156113ec57918102915b93841c93908002906113b9565b60008261140857506001610abc565b8161141557506000610abc565b816001811461142b576002811461143557611451565b6001915050610abc565b60ff84111561144657611446611275565b50506001821b610abc565b5060208310610133831016604e8410600b8410161715611474575081810a610abc565b61147e8383611353565b807fffffffffffffffffffffffffffffffffffffffffffffffffffffffffffffffff048211156114b0576114b0611275565b029392505050565b6000826114c757506001610abc565b816114d457506000610abc565b816001811461142b576002810361151e5760ff8411156114f6576114f6611275565b6001841b91506bffffffffffffffffffffffff82111561151857611518611275565b50610abc565b5060208310610133831016604e8410600b841016171561155d575081810a6bffffffffffffffffffffffff81111561155857611558611275565b610abc565b61156783836113b4565b806bffffffffffffffffffffffff048211156114b0576114b0611275565b600061101663ffffffff8416836113f9565b6000817fffffffffffffffffffffffffffffffffffffffffffffffffffffffffffffffff04831182151516156115cf576115cf611275565b500290565b600082198211156115e7576115e7611275565b500190565b600061101663ffffffff84166bffffffffffffffffffffffff84166114b8565b60006bffffffffffffffffffffffff8083168185168183048111821515161561163757611637611275565b02949350505050565b60006bffffffffffffffffffffffff80831681851680830382111561166757611667611275565b01949350505050565b600067ffffffffffffffff8083168185168183048111821515161561163757611637611275565b6000602082840312156116a957600080fd5b815173ffffffffffffffffffffffffffffffffffffffff8116811461101657600080fdfea2646970667358221220dfdc88278b038546a4ed017f9af73fadd53df6d173b671fafcb823dca63319aa64736f6c634300080e0033",
  "immutableReferences": {},
  "source": "// SPDX-License-Identifier: MIT\n\npragma solidity ^0.8.0;\n\nimport { HashingProxy } from \"../HashingProxy.sol\";\nimport { Hub } from \"../Hub.sol\";\nimport { ParametersStorage } from \"../storage/ParametersStorage.sol\";\nimport { Indexable } from \"../interface/Indexable.sol\";\nimport { IScoreFunction } from \"../interface/IScoreFunction.sol\";\nimport { Named } from \"../interface/Named.sol\";\nimport { PRBMathUD60x18 } from \"@prb/math/contracts/PRBMathUD60x18.sol\";\n\n// Logarithmic Polynomial Long Division Score Function\ncontract Log2PLDSF is IScoreFunction, Indexable, Named {\n\n    using PRBMathUD60x18 for uint256;\n\n    uint8 private constant _ID = 1;\n    string private constant _NAME = \"Log2PLDSF\";\n\n    Hub public hub;\n    HashingProxy public hashingProxy;\n    ParametersStorage public parametersStorage;\n\n    uint256 public distanceMappingCoefficient;\n    uint96 public stakeMappingCoefficient;\n\n    uint32 public multiplier;\n    uint32 public logArgumentConstant;\n    uint32 public a;\n    uint32 public stakeExponent;\n    uint32 public b;\n    uint32 public c;\n    uint32 public distanceExponent;\n    uint32 public d;\n\n    constructor(address hubAddress) {\n        require(hubAddress != address(0));\n\n        hub = Hub(hubAddress);\n        hashingProxy = HashingProxy(hub.getContractAddress(\"HashingProxy\"));\n        parametersStorage = ParametersStorage(hub.getContractAddress(\"ParametersStorage\"));\n\n        distanceMappingCoefficient = type(uint256).max / 1_000;\n        stakeMappingCoefficient = parametersStorage.maximumStake() / 200_000;\n\n        multiplier = 10000;\n        logArgumentConstant = 1;\n        a = 1;\n        stakeExponent = 1;\n        b = 0;\n        c = 1;\n        distanceExponent = 2;\n        d = 1;\n    }\n\n    modifier onlyHubOwner() {\n        _checkOwner();\n        _;\n    }\n\n    function id() external pure virtual override returns (uint8) {\n        return _ID;\n    }\n\n    function name() external pure virtual override returns (string memory) {\n        return _NAME;\n    }\n\n    function calculateScore(uint256 distance, uint96 stake) external view returns (uint40) {\n        uint256 mappedDistance = distance / distanceMappingCoefficient;\n        uint96 mappedStake = stake / stakeMappingCoefficient;\n\n        uint64 coefficient = 1 ether;\n\n        return uint40(\n            multiplier * (\n                logArgumentConstant * coefficient +\n                coefficient * (a * (mappedStake ** stakeExponent) + b) / (c * (mappedDistance ** distanceExponent) + d)\n            ).log2() / coefficient\n        );\n    }\n\n    function calculateDistance(uint8 hashFunctionId, bytes calldata nodeId, bytes calldata keyword)\n        external\n        returns (uint256)\n    {\n        HashingProxy hp = hashingProxy;\n        bytes32 nodeIdHash = hp.callHashFunction(hashFunctionId, nodeId);\n        bytes32 keywordHash = hp.callHashFunction(hashFunctionId, keyword);\n\n        return uint256(nodeIdHash ^ keywordHash);\n    }\n\n    function getParameters() external view returns (uint256, uint96, uint32[8] memory) {\n        return (\n            distanceMappingCoefficient,\n            stakeMappingCoefficient,\n            [\n                multiplier,\n                logArgumentConstant,\n                a,\n                stakeExponent,\n                b,\n                c,\n                distanceExponent,\n                d\n            ]\n        );\n    }\n\n    function setDistanceMappingCoefficient(uint256 distanceRangeMax) external onlyHubOwner {\n        distanceMappingCoefficient = type(uint256).max / distanceRangeMax;\n    }\n\n    function setStakeMappingCoefficient(uint96 stakeRangeMax) external onlyHubOwner {\n        stakeMappingCoefficient = parametersStorage.maximumStake() / stakeRangeMax;\n    }\n\n    function setMultiplier(uint32 multiplier_) external onlyHubOwner {\n        multiplier = multiplier_;\n    }\n\n    function setLogArgumentConstant(uint32 logArgumentConstant_) external onlyHubOwner {\n        logArgumentConstant = logArgumentConstant_;\n    }\n\n    function setA(uint32 a_) external onlyHubOwner {\n        a = a_;\n    }\n\n    function setStakeExponent(uint32 stakeExponent_) external onlyHubOwner {\n        stakeExponent = stakeExponent_;\n    }\n\n    function setB(uint32 b_) external onlyHubOwner {\n        b = b_;\n    }\n\n    function setC(uint32 c_) external onlyHubOwner {\n        c = c_;\n    }\n\n    function setDistanceExponent(uint32 distanceExponent_) external onlyHubOwner {\n        distanceExponent = distanceExponent_;\n    }\n\n    function setD(uint32 d_) external onlyHubOwner {\n        d = d_;\n    }\n\n    function _checkOwner() internal view virtual {\n        require (msg.sender == hub.owner(), \"Fn can only be called by owner\");\n    }\n\n}\n",
  "sourcePath": "/Users/waving/Desktop/OriginTrail/dkg-evm-module/contracts/scoring/log2pldsf.sol",
  "compiler": {
    "name": "solc",
    "version": "0.8.14+commit.80d49f37.Emscripten.clang"
  },
  "schemaVersion": "3.4.10",
  "updatedAt": "2022-12-02T11:59:36.522Z",
  "devdoc": {
    "kind": "dev",
    "methods": {},
    "version": 1
  },
  "userdoc": {
    "errors": {
      "PRBMathUD60x18__LogInputTooSmall(uint256)": [
        {
          "notice": "Emitted when the input is less than 1."
        }
      ]
    },
    "kind": "user",
    "methods": {},
    "version": 1
  }
}