{
  "contractName": "Log2PLDSF",
  "abi": [
    {
      "inputs": [
        {
          "internalType": "address",
          "name": "hubAddress",
          "type": "address"
        }
      ],
      "stateMutability": "nonpayable",
      "type": "constructor"
    },
    {
      "inputs": [
        {
          "internalType": "uint256",
          "name": "x",
          "type": "uint256"
        }
      ],
      "name": "PRBMathUD60x18__LogInputTooSmall",
      "type": "error"
    },
    {
      "inputs": [],
      "name": "a",
      "outputs": [
        {
          "internalType": "uint32",
          "name": "",
          "type": "uint32"
        }
      ],
      "stateMutability": "view",
      "type": "function"
    },
    {
      "inputs": [],
      "name": "b",
      "outputs": [
        {
          "internalType": "uint32",
          "name": "",
          "type": "uint32"
        }
      ],
      "stateMutability": "view",
      "type": "function"
    },
    {
      "inputs": [],
      "name": "c",
      "outputs": [
        {
          "internalType": "uint32",
          "name": "",
          "type": "uint32"
        }
      ],
      "stateMutability": "view",
      "type": "function"
    },
    {
      "inputs": [],
      "name": "d",
      "outputs": [
        {
          "internalType": "uint32",
          "name": "",
          "type": "uint32"
        }
      ],
      "stateMutability": "view",
      "type": "function"
    },
    {
      "inputs": [],
      "name": "distanceExponent",
      "outputs": [
        {
          "internalType": "uint32",
          "name": "",
          "type": "uint32"
        }
      ],
      "stateMutability": "view",
      "type": "function"
    },
    {
      "inputs": [],
      "name": "distanceMappingCoefficient",
      "outputs": [
        {
          "internalType": "uint256",
          "name": "",
          "type": "uint256"
        }
      ],
      "stateMutability": "view",
      "type": "function"
    },
    {
      "inputs": [],
      "name": "hashingProxy",
      "outputs": [
        {
          "internalType": "contract HashingProxy",
          "name": "",
          "type": "address"
        }
      ],
      "stateMutability": "view",
      "type": "function"
    },
    {
      "inputs": [],
      "name": "hub",
      "outputs": [
        {
          "internalType": "contract Hub",
          "name": "",
          "type": "address"
        }
      ],
      "stateMutability": "view",
      "type": "function"
    },
    {
      "inputs": [],
      "name": "logArgumentConstant",
      "outputs": [
        {
          "internalType": "uint32",
          "name": "",
          "type": "uint32"
        }
      ],
      "stateMutability": "view",
      "type": "function"
    },
    {
      "inputs": [],
      "name": "multiplier",
      "outputs": [
        {
          "internalType": "uint32",
          "name": "",
          "type": "uint32"
        }
      ],
      "stateMutability": "view",
      "type": "function"
    },
    {
      "inputs": [],
      "name": "parametersStorage",
      "outputs": [
        {
          "internalType": "contract ParametersStorage",
          "name": "",
          "type": "address"
        }
      ],
      "stateMutability": "view",
      "type": "function"
    },
    {
      "inputs": [],
      "name": "stakeExponent",
      "outputs": [
        {
          "internalType": "uint32",
          "name": "",
          "type": "uint32"
        }
      ],
      "stateMutability": "view",
      "type": "function"
    },
    {
      "inputs": [],
      "name": "stakeMappingCoefficient",
      "outputs": [
        {
          "internalType": "uint96",
          "name": "",
          "type": "uint96"
        }
      ],
      "stateMutability": "view",
      "type": "function"
    },
    {
      "inputs": [],
      "name": "initialize",
      "outputs": [],
      "stateMutability": "nonpayable",
      "type": "function"
    },
    {
      "inputs": [],
      "name": "id",
      "outputs": [
        {
          "internalType": "uint8",
          "name": "",
          "type": "uint8"
        }
      ],
      "stateMutability": "pure",
      "type": "function"
    },
    {
      "inputs": [],
      "name": "name",
      "outputs": [
        {
          "internalType": "string",
          "name": "",
          "type": "string"
        }
      ],
      "stateMutability": "pure",
      "type": "function"
    },
    {
      "inputs": [
        {
          "internalType": "uint256",
          "name": "distance",
          "type": "uint256"
        },
        {
          "internalType": "uint96",
          "name": "stake",
          "type": "uint96"
        }
      ],
      "name": "calculateScore",
      "outputs": [
        {
          "internalType": "uint40",
          "name": "",
          "type": "uint40"
        }
      ],
      "stateMutability": "view",
      "type": "function"
    },
    {
      "inputs": [
        {
          "internalType": "uint8",
          "name": "hashFunctionId",
          "type": "uint8"
        },
        {
          "internalType": "bytes",
          "name": "nodeId",
          "type": "bytes"
        },
        {
          "internalType": "bytes",
          "name": "keyword",
          "type": "bytes"
        }
      ],
      "name": "calculateDistance",
      "outputs": [
        {
          "internalType": "uint256",
          "name": "",
          "type": "uint256"
        }
      ],
      "stateMutability": "view",
      "type": "function"
    },
    {
      "inputs": [],
      "name": "getParameters",
      "outputs": [
        {
          "internalType": "uint256",
          "name": "",
          "type": "uint256"
        },
        {
          "internalType": "uint96",
          "name": "",
          "type": "uint96"
        },
        {
          "internalType": "uint32[8]",
          "name": "",
          "type": "uint32[8]"
        }
      ],
      "stateMutability": "view",
      "type": "function"
    },
    {
      "inputs": [
        {
          "internalType": "uint256",
          "name": "distanceRangeMax",
          "type": "uint256"
        }
      ],
      "name": "setDistanceMappingCoefficient",
      "outputs": [],
      "stateMutability": "nonpayable",
      "type": "function"
    },
    {
      "inputs": [
        {
          "internalType": "uint96",
          "name": "stakeRangeMax",
          "type": "uint96"
        }
      ],
      "name": "setStakeMappingCoefficient",
      "outputs": [],
      "stateMutability": "nonpayable",
      "type": "function"
    },
    {
      "inputs": [
        {
          "internalType": "uint32",
          "name": "multiplier_",
          "type": "uint32"
        }
      ],
      "name": "setMultiplier",
      "outputs": [],
      "stateMutability": "nonpayable",
      "type": "function"
    },
    {
      "inputs": [
        {
          "internalType": "uint32",
          "name": "logArgumentConstant_",
          "type": "uint32"
        }
      ],
      "name": "setLogArgumentConstant",
      "outputs": [],
      "stateMutability": "nonpayable",
      "type": "function"
    },
    {
      "inputs": [
        {
          "internalType": "uint32",
          "name": "a_",
          "type": "uint32"
        }
      ],
      "name": "setA",
      "outputs": [],
      "stateMutability": "nonpayable",
      "type": "function"
    },
    {
      "inputs": [
        {
          "internalType": "uint32",
          "name": "stakeExponent_",
          "type": "uint32"
        }
      ],
      "name": "setStakeExponent",
      "outputs": [],
      "stateMutability": "nonpayable",
      "type": "function"
    },
    {
      "inputs": [
        {
          "internalType": "uint32",
          "name": "b_",
          "type": "uint32"
        }
      ],
      "name": "setB",
      "outputs": [],
      "stateMutability": "nonpayable",
      "type": "function"
    },
    {
      "inputs": [
        {
          "internalType": "uint32",
          "name": "c_",
          "type": "uint32"
        }
      ],
      "name": "setC",
      "outputs": [],
      "stateMutability": "nonpayable",
      "type": "function"
    },
    {
      "inputs": [
        {
          "internalType": "uint32",
          "name": "distanceExponent_",
          "type": "uint32"
        }
      ],
      "name": "setDistanceExponent",
      "outputs": [],
      "stateMutability": "nonpayable",
      "type": "function"
    },
    {
      "inputs": [
        {
          "internalType": "uint32",
          "name": "d_",
          "type": "uint32"
        }
      ],
      "name": "setD",
      "outputs": [],
      "stateMutability": "nonpayable",
      "type": "function"
    }
  ],
  "bytecode": "0x60806040908082523462000339576200151980380380916200002282856200033e565b83396001600160a01b039182916200003e919081019062000378565b1680156200033957600080546001600160a01b0319908116831782558451638da5cb5b60e01b8152600494602094909185818881855afa9081156200032f5790839186916200030d575b50163303620002cc578651630110ceef60e21b808252878201879052600c60248301526b48617368696e6750726f787960a01b6044830152908681606481865afa908115620002c25787929185918891620002a0575b501685600154161760015560648951809481938252848b8301526011602483015270506172616d657465727353746f7261676560781b60448301525afa9081156200029657918693918693869162000262575b5016809160025416176002557e4189374bc6a7ef9db22d0e5604189374bc6a7ef9db22d0e5604189374bc6a760035586519283809263b5c6b45360e01b82525afa9283156200025857829362000208575b505082546001600160801b03191662030d406001600160601b0393841604909216919091176d2710000000000000000000000000176001600160801b031678010000000100000001000000000000000000000000000000001790915550600580546001600160601b031916680100000002000000011790555161117f90816200039a8239f35b9080929350813d831162000250575b6200022381836200033e565b810103126200024c5751906001600160601b038216820362000249575038808062000182565b80fd5b5080fd5b503d62000217565b85513d84823e3d90fd5b620002879150843d86116200028e575b6200027e81836200033e565b81019062000378565b3862000131565b503d62000272565b87513d86823e3d90fd5b620002bb9150843d86116200028e576200027e81836200033e565b38620000de565b89513d88823e3d90fd5b60648686808a519262461bcd60e51b845283015260248201527f466e2063616e206f6e6c79206265207573656420627920687562206f776e65726044820152fd5b620003289150873d89116200028e576200027e81836200033e565b3862000088565b88513d87823e3d90fd5b600080fd5b601f909101601f19168101906001600160401b038211908210176200036257604052565b634e487b7160e01b600052604160045260246000fd5b908160209103126200033957516001600160a01b038116810362000339579056fe6040608081526004908136101561001557600080fd5b60009160e0908335821c918263015342c214610bd357826306fdde0314610b455782630c5ccf5714610af95782630dbe671f14610ad15782631051e18f14610aa957826311c94ee814610a7f5782631b3ed72214610a57578263274e196214610902578263365a86fc146108d9578263395811691461088d5782634212a54e146108515782634df7e3d0146108315782634f103353146107e3578263639a86a3146107b95782637525e9e81461076b57826375a146cb1461074457826380f65fda146107015782638129fc1c146105b65782638a054ac21461058f578263a0db80ad1461040f578263a5ea11da1461030057508163af640d0f146102e4578163bd8aad2714610299578163c3da42b814610274578163ccd19ae11461024d578163df6ccca0146101fe578163ecfb34bf146101b0578163ee8a523d14610186575063f1cee31e1461016557600080fd5b346101825781600319360112610182576020906003549051908152f35b5080fd5b8284346101ad57806003193601126101ad575063ffffffff6020925460801c169051908152f35b80fd5b9050346101fa5760203660031901126101fa573563ffffffff811681036101fa576101d961109b565b63ffffffff60401b60055491831b169063ffffffff60401b19161760055551f35b8280fd5b9050346101fa5760203660031901126101fa57803563ffffffff811681036102495761022861109b565b815463ffffffff60601b191660609190911b63ffffffff60601b1617905551f35b8380fd5b8284346101ad57806003193601126101ad57506001600160601b0360209254169051908152f35b50503461018257816003193601126101825760209063ffffffff600554169051908152f35b9050346101fa5760203660031901126101fa57803563ffffffff81168103610249576102c361109b565b815463ffffffff60a01b191660a09190911b63ffffffff60a01b1617905551f35b5050346101825781600319360112610182576020905160018152f35b91509192346101ad57806003193601126101ad57835167ffffffffffffffff9461010091828101878111828210176103fc578252829036903760035495855495825193840191848310908311176103e9575081939293526001600160601b0363ffffffff95868160601c168552602095878260801c1687870152878260a01c1684870152878260c01c16606087015281811c60808701528760055481811660a089015281818a1c1660c0890152851c16908601528251978852168487015285019190915b600883106103d25761014086f35b8380600192878551168152019201920191906103c4565b634e487b7160e01b855260419052602484fd5b634e487b7160e01b855260418752602485fd5b915092346101ad57826003193601126101ad57602435906001600160601b039081831683036101ad576104456003548735610d1d565b9061045587549484861690610d3d565b9063ffffffff93848660801c169367ffffffffffffffff93670de0b6b3a7640000988686048a118715151661057c578361049d898b60a01c1693828b8d60c01c169116610d55565b169082850482118315151661056957908985921c92021601828111610556578216926412725dd1d28411600116610543575061052b889561053a9560209a6105238d9b978b9761051a8e64ffffffffff9e6105309a6105116105096005549260208486911c1690610e38565b838316610ec9565b921c1690610edc565b91840216610d1d565b920216610edc565b610ee9565b9160601c16610ec9565b04169051908152f35b634e487b7160e01b815260118b52602490fd5b634e487b7160e01b845260118b52602484fd5b634e487b7160e01b865260118d52602486fd5b634e487b7160e01b855260118c52602485fd5b505050346101825781600319360112610182576005548151911c63ffffffff168152602090f35b509050346101fa57826003193601126101fa576105d161109b565b82548251630110ceef60e21b8082526020848301819052600c60248401526b48617368696e6750726f787960a01b604484015291936001600160a01b039390919084168386606481845afa9586156106f75788966106cd575b509160648493928493876001600160601b0360a01b99168960015416176001558951958694859384528301526011602483015270506172616d657465727353746f7261676560781b60448301525afa9182156106c3578692610696575b50501690600254161760025551f35b6106b59250803d106106bc575b6106ad8183610cc6565b810190610cfe565b3880610687565b503d6106a3565b85513d88823e3d90fd5b849391965083926106ec606492853d87116106bc576106ad8183610cc6565b97929450925061062a565b87513d8a823e3d90fd5b509050346101fa5760203660031901126101fa5780359061072061109b565b811561073157506000190460035551f35b634e487b7160e01b845260129052602483fd5b505050346101825781600319360112610182576005549051602091821c63ffffffff168152f35b509050346101fa5760203660031901126101fa573563ffffffff811681036101fa5761079561109b565b67ffffffff000000006005549160201b169067ffffffff0000000019161760055551f35b5050503461018257816003193601126101825760025490516001600160a01b039091168152602090f35b909150346102495760203660031901126102495781359063ffffffff8216820361082d5761080f61109b565b82546001600160e01b031691901b6001600160e01b03191617905551f35b8480fd5b9150346102495783600319360112610249576020935054901c9051908152f35b509050346101fa5760203660031901126101fa573563ffffffff81168091036101fa5761087c61109b565b63ffffffff19600554161760055551f35b509050346101fa5760203660031901126101fa57803563ffffffff81168103610249576108b861109b565b815463ffffffff60c01b191660c09190911b63ffffffff60c01b1617905551f35b50505034610182578160031936011261018257905490516001600160a01b039091168152602090f35b838286346101ad5760603660031901126101ad5781359260ff841684036101825767ffffffffffffffff92602435848111610249576109449036908301610c93565b95909460443590811161082d5761095e9036908401610c93565b95909260018060a01b0360015416918551976345ed59e560e01b91828a52898061098f60209d8e948a89850161106a565b0381875afa9889156106f757908a9594939291899a610a18575b506109c0908851978896879586958652850161106a565b03915afa928315610a0d5780936109db575b50505191188152f35b909192508482813d8311610a06575b6109f48183610cc6565b810103126101ad5750519084806109d2565b503d6109ea565b8251903d90823e3d90fd5b86819394959697929b503d8311610a50575b610a348183610cc6565b81010312610a4c5751978994939291906109c06109a9565b8780fd5b503d610a2a565b508284346101ad57806003193601126101ad575063ffffffff6020925460601c169051908152f35b5050503461018257816003193601126101825760015490516001600160a01b039091168152602090f35b508284346101ad57806003193601126101ad575063ffffffff6020925460c01c169051908152f35b508284346101ad57806003193601126101ad575063ffffffff6020925460a01c169051908152f35b509050346101fa5760203660031901126101fa57803563ffffffff8116810361024957610b2461109b565b815463ffffffff60801b191660809190911b63ffffffff60801b1617905551f35b509050346101fa57826003193601126101fa578151908282019082821067ffffffffffffffff8311176103e95750825260098152602090682637b39928262229a360b91b8282015282519382859384528251928382860152825b848110610bbd57505050828201840152601f01601f19168101030190f35b8181018301518882018801528795508201610b9f565b509050346101fa5760203660031901126101fa576001600160601b038135818116810361082d578290610c0461109b565b600254855163b5c6b45360e01b81529260209184919082906001600160a01b03165afa80156106c3578690610c51575b610c3e9250610d3d565b166001600160601b031982541617905551f35b50906020813d8211610c8b575b81610c6b60209383610cc6565b81010312610c875751908282168203610c8757610c3e91610c34565b8580fd5b3d9150610c5e565b9181601f84011215610cc15782359167ffffffffffffffff8311610cc15760208381860195010111610cc157565b600080fd5b90601f8019910116810190811067ffffffffffffffff821117610ce857604052565b634e487b7160e01b600052604160045260246000fd5b90816020910312610cc157516001600160a01b0381168103610cc15790565b8115610d27570490565b634e487b7160e01b600052601260045260246000fd5b906001600160601b03809116918215610d2757160490565b908015610e31578115610e2a578180600114610e2257600214610e035760208110610133831016604e8210600b84101617610df057600190815b808211610dc2575050816001600160601b03048111610dac570290565b634e487b7160e01b600052601160045260246000fd5b9092806001600160601b03048111610dac57818416610de7575b800292811c90610d8f565b80920291610ddc565b900a906001600160601b038211610dac57565b905060ff8111610dac576001901b906001600160601b038211610dac57565b505050600190565b5050600090565b5050600190565b908015610e31578115610e2a578180600114610e2257600214610eb85760208110610133831016604e8210600b84101617610eb357600190815b808211610e8a57505081600019048111610dac570290565b909280600019048111610dac57818416610eaa575b800292811c90610e72565b80920291610e9f565b900a90565b905060ff8111610dac576001901b90565b8060001904821181151516610dac570290565b91908201809211610dac57565b90670de0b6b3a764000080831061105157600092818104600160801b811015611046575b68010000000000000000811015611031575b64010000000081101561101c575b62010000811015611007575b610100811015610ff2575b6010811015610fdd575b6004811015610fc8575b60021115610fb6575b818402931c90808214610fb2576706f05b59d3b2000091825b610f8357505050565b808291020491671bc16d674ec80000831015610fa4575b60011c9182610f7a565b809294019360011c91610f9a565b5050565b9260018101809111610dac5792610f61565b60021c9360028101809111610dac5793610f58565b60041c9360048101809111610dac5793610f4e565b60081c9360088101809111610dac5793610f44565b60101c9360108101809111610dac5793610f39565b60201c9360208101809111610dac5793610f2d565b60401c9360408101809111610dac5793610f1f565b60809450841c610f0d565b604051633621413760e21b815260048101849052602490fd5b919260609360ff829316845260406020850152816040850152848401376000828201840152601f01601f1916010190565b600054604051638da5cb5b60e01b81526001600160a01b03916020908290600490829086165afa90811561113d5760009161111f575b501633036110db57565b606460405162461bcd60e51b815260206004820152602060248201527f466e2063616e206f6e6c79206265207573656420627920687562206f776e65726044820152fd5b611137915060203d81116106bc576106ad8183610cc6565b386110d1565b6040513d6000823e3d90fdfea26469706673582212204043b3ec38baa81c955bb647b0ee559b481475fd07a8ade8284760230adb63f964736f6c63430008100033",
  "immutableReferences": {},
  "source": "// SPDX-License-Identifier: MIT\n\npragma solidity ^0.8.4;\n\nimport { HashingProxy } from \"../HashingProxy.sol\";\nimport { Hub } from \"../Hub.sol\";\nimport { ParametersStorage } from \"../storage/ParametersStorage.sol\";\nimport { Indexable } from \"../interface/Indexable.sol\";\nimport { IScoreFunction } from \"../interface/IScoreFunction.sol\";\nimport { Named } from \"../interface/Named.sol\";\nimport { PRBMathUD60x18 } from \"@prb/math/contracts/PRBMathUD60x18.sol\";\n\n// Logarithmic Polynomial Long Division Score Function\ncontract Log2PLDSF is IScoreFunction, Indexable, Named {\n\n    using PRBMathUD60x18 for uint256;\n\n    uint8 private constant _ID = 1;\n    string private constant _NAME = \"Log2PLDSF\";\n\n    Hub public hub;\n    HashingProxy public hashingProxy;\n    ParametersStorage public parametersStorage;\n\n    uint256 public distanceMappingCoefficient;\n    uint96 public stakeMappingCoefficient;\n\n    uint32 public multiplier;\n    uint32 public logArgumentConstant;\n    uint32 public a;\n    uint32 public stakeExponent;\n    uint32 public b;\n    uint32 public c;\n    uint32 public distanceExponent;\n    uint32 public d;\n\n    constructor(address hubAddress) {\n        require(hubAddress != address(0));\n\n        hub = Hub(hubAddress);\n        initialize();\n\n        distanceMappingCoefficient = type(uint256).max / 1_000;\n        stakeMappingCoefficient = parametersStorage.maximumStake() / 200_000;\n\n        multiplier = 10000;\n        logArgumentConstant = 1;\n        a = 1;\n        stakeExponent = 1;\n        b = 0;\n        c = 1;\n        distanceExponent = 2;\n        d = 1;\n    }\n\n    modifier onlyHubOwner() {\n        _checkHubOwner();\n        _;\n    }\n\n    function initialize() public onlyHubOwner {\n        hashingProxy = HashingProxy(hub.getContractAddress(\"HashingProxy\"));\n        parametersStorage = ParametersStorage(hub.getContractAddress(\"ParametersStorage\"));\n    }\n\n    function id() external pure virtual override returns (uint8) {\n        return _ID;\n    }\n\n    function name() external pure virtual override returns (string memory) {\n        return _NAME;\n    }\n\n    function calculateScore(uint256 distance, uint96 stake) external view returns (uint40) {\n        uint256 mappedDistance = distance / distanceMappingCoefficient;\n        uint96 mappedStake = stake / stakeMappingCoefficient;\n\n        uint64 coefficient = 1 ether;\n\n        return uint40(\n            multiplier * (\n                logArgumentConstant * coefficient +\n                coefficient * (a * (mappedStake ** stakeExponent) + b) / (c * (mappedDistance ** distanceExponent) + d)\n            ).log2() / coefficient\n        );\n    }\n\n    function calculateDistance(uint8 hashFunctionId, bytes calldata nodeId, bytes calldata keyword)\n        external\n        view\n        returns (uint256)\n    {\n        HashingProxy hp = hashingProxy;\n        bytes32 nodeIdHash = hp.callHashFunction(hashFunctionId, nodeId);\n        bytes32 keywordHash = hp.callHashFunction(hashFunctionId, keyword);\n\n        return uint256(nodeIdHash ^ keywordHash);\n    }\n\n    function getParameters() external view returns (uint256, uint96, uint32[8] memory) {\n        return (\n            distanceMappingCoefficient,\n            stakeMappingCoefficient,\n            [\n                multiplier,\n                logArgumentConstant,\n                a,\n                stakeExponent,\n                b,\n                c,\n                distanceExponent,\n                d\n            ]\n        );\n    }\n\n    function setDistanceMappingCoefficient(uint256 distanceRangeMax) external onlyHubOwner {\n        distanceMappingCoefficient = type(uint256).max / distanceRangeMax;\n    }\n\n    function setStakeMappingCoefficient(uint96 stakeRangeMax) external onlyHubOwner {\n        stakeMappingCoefficient = parametersStorage.maximumStake() / stakeRangeMax;\n    }\n\n    function setMultiplier(uint32 multiplier_) external onlyHubOwner {\n        multiplier = multiplier_;\n    }\n\n    function setLogArgumentConstant(uint32 logArgumentConstant_) external onlyHubOwner {\n        logArgumentConstant = logArgumentConstant_;\n    }\n\n    function setA(uint32 a_) external onlyHubOwner {\n        a = a_;\n    }\n\n    function setStakeExponent(uint32 stakeExponent_) external onlyHubOwner {\n        stakeExponent = stakeExponent_;\n    }\n\n    function setB(uint32 b_) external onlyHubOwner {\n        b = b_;\n    }\n\n    function setC(uint32 c_) external onlyHubOwner {\n        c = c_;\n    }\n\n    function setDistanceExponent(uint32 distanceExponent_) external onlyHubOwner {\n        distanceExponent = distanceExponent_;\n    }\n\n    function setD(uint32 d_) external onlyHubOwner {\n        d = d_;\n    }\n\n    function _checkHubOwner() internal view virtual {\n        require (msg.sender == hub.owner(), \"Fn can only be used by hub owner\");\n    }\n\n}\n",
  "sourcePath": "/Users/waving/Desktop/OriginTrail/dkg-evm-module/contracts/scoring/log2pldsf.sol",
  "compiler": {
    "name": "solc",
    "version": "0.8.16+commit.07a7930e.Emscripten.clang"
  },
  "schemaVersion": "3.4.10",
  "updatedAt": "2022-12-12T09:47:52.150Z",
  "devdoc": {
    "kind": "dev",
    "methods": {},
    "version": 1
  },
  "userdoc": {
    "errors": {
      "PRBMathUD60x18__LogInputTooSmall(uint256)": [
        {
          "notice": "Emitted when the input is less than 1."
        }
      ]
    },
    "kind": "user",
    "methods": {},
    "version": 1
  }
}