{
  "contractName": "Log2PLDSF",
  "abi": [
    {
      "inputs": [
        {
          "internalType": "address",
          "name": "hubAddress",
          "type": "address"
        }
      ],
      "stateMutability": "nonpayable",
      "type": "constructor"
    },
    {
      "inputs": [
        {
          "internalType": "uint256",
          "name": "x",
          "type": "uint256"
        }
      ],
      "name": "PRBMathUD60x18__LogInputTooSmall",
      "type": "error"
    },
    {
      "inputs": [],
      "name": "a",
      "outputs": [
        {
          "internalType": "uint32",
          "name": "",
          "type": "uint32"
        }
      ],
      "stateMutability": "view",
      "type": "function"
    },
    {
      "inputs": [],
      "name": "b",
      "outputs": [
        {
          "internalType": "uint32",
          "name": "",
          "type": "uint32"
        }
      ],
      "stateMutability": "view",
      "type": "function"
    },
    {
      "inputs": [],
      "name": "c",
      "outputs": [
        {
          "internalType": "uint32",
          "name": "",
          "type": "uint32"
        }
      ],
      "stateMutability": "view",
      "type": "function"
    },
    {
      "inputs": [],
      "name": "d",
      "outputs": [
        {
          "internalType": "uint32",
          "name": "",
          "type": "uint32"
        }
      ],
      "stateMutability": "view",
      "type": "function"
    },
    {
      "inputs": [],
      "name": "distanceExponent",
      "outputs": [
        {
          "internalType": "uint32",
          "name": "",
          "type": "uint32"
        }
      ],
      "stateMutability": "view",
      "type": "function"
    },
    {
      "inputs": [],
      "name": "distanceMappingCoefficient",
      "outputs": [
        {
          "internalType": "uint256",
          "name": "",
          "type": "uint256"
        }
      ],
      "stateMutability": "view",
      "type": "function"
    },
    {
      "inputs": [],
      "name": "hashingProxy",
      "outputs": [
        {
          "internalType": "contract HashingProxy",
          "name": "",
          "type": "address"
        }
      ],
      "stateMutability": "view",
      "type": "function"
    },
    {
      "inputs": [],
      "name": "hub",
      "outputs": [
        {
          "internalType": "contract Hub",
          "name": "",
          "type": "address"
        }
      ],
      "stateMutability": "view",
      "type": "function"
    },
    {
      "inputs": [],
      "name": "logArgumentConstant",
      "outputs": [
        {
          "internalType": "uint32",
          "name": "",
          "type": "uint32"
        }
      ],
      "stateMutability": "view",
      "type": "function"
    },
    {
      "inputs": [],
      "name": "multiplier",
      "outputs": [
        {
          "internalType": "uint32",
          "name": "",
          "type": "uint32"
        }
      ],
      "stateMutability": "view",
      "type": "function"
    },
    {
      "inputs": [],
      "name": "parametersStorage",
      "outputs": [
        {
          "internalType": "contract ParametersStorage",
          "name": "",
          "type": "address"
        }
      ],
      "stateMutability": "view",
      "type": "function"
    },
    {
      "inputs": [],
      "name": "stakeExponent",
      "outputs": [
        {
          "internalType": "uint32",
          "name": "",
          "type": "uint32"
        }
      ],
      "stateMutability": "view",
      "type": "function"
    },
    {
      "inputs": [],
      "name": "stakeMappingCoefficient",
      "outputs": [
        {
          "internalType": "uint96",
          "name": "",
          "type": "uint96"
        }
      ],
      "stateMutability": "view",
      "type": "function"
    },
    {
      "inputs": [],
      "name": "id",
      "outputs": [
        {
          "internalType": "uint8",
          "name": "",
          "type": "uint8"
        }
      ],
      "stateMutability": "pure",
      "type": "function"
    },
    {
      "inputs": [],
      "name": "name",
      "outputs": [
        {
          "internalType": "string",
          "name": "",
          "type": "string"
        }
      ],
      "stateMutability": "pure",
      "type": "function"
    },
    {
      "inputs": [
        {
          "internalType": "uint256",
          "name": "distance",
          "type": "uint256"
        },
        {
          "internalType": "uint96",
          "name": "stake",
          "type": "uint96"
        }
      ],
      "name": "calculateScore",
      "outputs": [
        {
          "internalType": "uint40",
          "name": "",
          "type": "uint40"
        }
      ],
      "stateMutability": "view",
      "type": "function"
    },
    {
      "inputs": [
        {
          "internalType": "uint8",
          "name": "hashFunctionId",
          "type": "uint8"
        },
        {
          "internalType": "bytes",
          "name": "nodeId",
          "type": "bytes"
        },
        {
          "internalType": "bytes",
          "name": "keyword",
          "type": "bytes"
        }
      ],
      "name": "calculateDistance",
      "outputs": [
        {
          "internalType": "uint256",
          "name": "",
          "type": "uint256"
        }
      ],
      "stateMutability": "nonpayable",
      "type": "function"
    },
    {
      "inputs": [],
      "name": "getParameters",
      "outputs": [
        {
          "internalType": "uint256",
          "name": "",
          "type": "uint256"
        },
        {
          "internalType": "uint96",
          "name": "",
          "type": "uint96"
        },
        {
          "internalType": "uint32[8]",
          "name": "",
          "type": "uint32[8]"
        }
      ],
      "stateMutability": "view",
      "type": "function"
    },
    {
      "inputs": [
        {
          "internalType": "uint256",
          "name": "distanceRangeMax",
          "type": "uint256"
        }
      ],
      "name": "setDistanceMappingCoefficient",
      "outputs": [],
      "stateMutability": "nonpayable",
      "type": "function"
    },
    {
      "inputs": [
        {
          "internalType": "uint96",
          "name": "stakeRangeMax",
          "type": "uint96"
        }
      ],
      "name": "setStakeMappingCoefficient",
      "outputs": [],
      "stateMutability": "nonpayable",
      "type": "function"
    },
    {
      "inputs": [
        {
          "internalType": "uint32",
          "name": "multiplier_",
          "type": "uint32"
        }
      ],
      "name": "setMultiplier",
      "outputs": [],
      "stateMutability": "nonpayable",
      "type": "function"
    },
    {
      "inputs": [
        {
          "internalType": "uint32",
          "name": "logArgumentConstant_",
          "type": "uint32"
        }
      ],
      "name": "setLogArgumentConstant",
      "outputs": [],
      "stateMutability": "nonpayable",
      "type": "function"
    },
    {
      "inputs": [
        {
          "internalType": "uint32",
          "name": "a_",
          "type": "uint32"
        }
      ],
      "name": "setA",
      "outputs": [],
      "stateMutability": "nonpayable",
      "type": "function"
    },
    {
      "inputs": [
        {
          "internalType": "uint32",
          "name": "stakeExponent_",
          "type": "uint32"
        }
      ],
      "name": "setStakeExponent",
      "outputs": [],
      "stateMutability": "nonpayable",
      "type": "function"
    },
    {
      "inputs": [
        {
          "internalType": "uint32",
          "name": "b_",
          "type": "uint32"
        }
      ],
      "name": "setB",
      "outputs": [],
      "stateMutability": "nonpayable",
      "type": "function"
    },
    {
      "inputs": [
        {
          "internalType": "uint32",
          "name": "c_",
          "type": "uint32"
        }
      ],
      "name": "setC",
      "outputs": [],
      "stateMutability": "nonpayable",
      "type": "function"
    },
    {
      "inputs": [
        {
          "internalType": "uint32",
          "name": "distanceExponent_",
          "type": "uint32"
        }
      ],
      "name": "setDistanceExponent",
      "outputs": [],
      "stateMutability": "nonpayable",
      "type": "function"
    },
    {
      "inputs": [
        {
          "internalType": "uint32",
          "name": "d_",
          "type": "uint32"
        }
      ],
      "name": "setD",
      "outputs": [],
      "stateMutability": "nonpayable",
      "type": "function"
    }
  ],
  "bytecode": "0x60806040523480156200001157600080fd5b50604051620015be380380620015be8339810160408190526200003491620002b1565b6001600160a01b0381166200004857600080fd5b600080546001600160a01b0319166001600160a01b038316908117909155604051630110ceef60e21b815260206004820152600c60248201526b48617368696e6750726f787960a01b60448201526304433bbc90606401602060405180830381865afa158015620000bd573d6000803e3d6000fd5b505050506040513d601f19601f82011682018060405250810190620000e39190620002b1565b600180546001600160a01b0319166001600160a01b03928316179055600054604051630110ceef60e21b8152602060048201526011602482015270506172616d657465727353746f7261676560781b60448201529116906304433bbc90606401602060405180830381865afa15801562000161573d6000803e3d6000fd5b505050506040513d601f19601f82011682018060405250810190620001879190620002b1565b600280546001600160a01b0319166001600160a01b0392909216919091179055620001b76103e8600019620002f9565b6003556002546040805163b5c6b45360e01b8152905162030d40926001600160a01b03169163b5c6b4539160048083019260209291908290030181865afa15801562000207573d6000803e3d6000fd5b505050506040513d601f19601f820116820180604052508101906200022d919062000310565b6200023991906200033b565b6004805478010000000100000001000000000000000000000000000000006001600160601b03939093166001600160801b0319909116176d2710000000000000000000000000176001600160801b031691909117905550600580546001600160601b0319166801000000020000000117905562000364565b600060208284031215620002c457600080fd5b81516001600160a01b0381168114620002dc57600080fd5b9392505050565b634e487b7160e01b600052601260045260246000fd5b6000826200030b576200030b620002e3565b500490565b6000602082840312156200032357600080fd5b81516001600160601b0381168114620002dc57600080fd5b60006001600160601b0383811680620003585762000358620002e3565b92169190910492915050565b61124a80620003746000396000f3fe608060405234801561001057600080fd5b50600436106101c45760003560e01c80637525e9e8116100f9578063bd8aad2711610097578063df6ccca011610071578063df6ccca014610433578063ecfb34bf14610446578063ee8a523d14610459578063f1cee31e1461047057600080fd5b8063bd8aad27146103e5578063c3da42b8146103f8578063ccd19ae11461040857600080fd5b80638a054ac2116100d35780638a054ac21461037f578063a0db80ad14610396578063a5ea11da146103bf578063af640d0f146103d657600080fd5b80637525e9e81461034157806375a146cb1461035457806380f65fda1461036c57600080fd5b8063274e1962116101665780634212a54e116101405780634212a54e146102f15780634df7e3d0146103045780634f1033531461031b578063639a86a31461032e57600080fd5b8063274e1962146102aa578063365a86fc146102cb57806339581169146102de57600080fd5b80630dbe671f116101a25780630dbe671f146102255780631051e18f1461025157806311c94ee8146102685780631b3ed7221461029357600080fd5b8063015342c2146101c957806306fdde03146101de5780630c5ccf5714610212575b600080fd5b6101dc6101d7366004610c52565b610479565b005b60408051808201825260098152682637b39928262229a360b91b602082015290516102099190610c76565b60405180910390f35b6101dc610220366004610cc4565b610520565b60045461023c90600160a01b900463ffffffff1681565b60405163ffffffff9091168152602001610209565b60045461023c90600160c01b900463ffffffff1681565b60015461027b906001600160a01b031681565b6040516001600160a01b039091168152602001610209565b60045461023c90600160601b900463ffffffff1681565b6102bd6102b8366004610d33565b61054e565b604051908152602001610209565b60005461027b906001600160a01b031681565b6101dc6102ec366004610cc4565b610651565b6101dc6102ff366004610cc4565b61067f565b60045461023c90600160e01b900463ffffffff1681565b6101dc610329366004610cc4565b6106a3565b60025461027b906001600160a01b031681565b6101dc61034f366004610cc4565b6106d0565b60055461023c90640100000000900463ffffffff1681565b6101dc61037a366004610dbc565b610700565b60055461023c90600160401b900463ffffffff1681565b6103a96103a4366004610dd5565b61071a565b60405164ffffffffff9091168152602001610209565b6103c7610871565b60405161020993929190610e05565b60405160018152602001610209565b6101dc6103f3366004610cc4565b610913565b60055461023c9063ffffffff1681565b60045461041b906001600160601b031681565b6040516001600160601b039091168152602001610209565b6101dc610441366004610cc4565b610941565b6101dc610454366004610cc4565b61096f565b60045461023c90600160801b900463ffffffff1681565b6102bd60035481565b6104816109a2565b6002546040805163b5c6b45360e01b8152905183926001600160a01b03169163b5c6b4539160048083019260209291908290030181865afa1580156104ca573d6000803e3d6000fd5b505050506040513d601f19601f820116820180604052508101906104ee9190610e58565b6104f89190610ea1565b600480546bffffffffffffffffffffffff19166001600160601b039290921691909117905550565b6105286109a2565b6004805463ffffffff909216600160801b0263ffffffff60801b19909216919091179055565b6001546040516345ed59e560e01b81526000916001600160a01b031690829082906345ed59e590610587908b908b908b90600401610ec7565b6020604051808303816000875af11580156105a6573d6000803e3d6000fd5b505050506040513d601f19601f820116820180604052508101906105ca9190610f00565b90506000826001600160a01b03166345ed59e58a88886040518463ffffffff1660e01b81526004016105fe93929190610ec7565b6020604051808303816000875af115801561061d573d6000803e3d6000fd5b505050506040513d601f19601f820116820180604052508101906106419190610f00565b9190911898975050505050505050565b6106596109a2565b6004805463ffffffff909216600160c01b0263ffffffff60c01b19909216919091179055565b6106876109a2565b6005805463ffffffff191663ffffffff92909216919091179055565b6106ab6109a2565b6004805463ffffffff909216600160e01b026001600160e01b03909216919091179055565b6106d86109a2565b6005805463ffffffff9092166401000000000267ffffffff0000000019909216919091179055565b6107086109a2565b61071481600019610f19565b60035550565b6000806003548461072b9190610f19565b600454909150600090610747906001600160601b031685610ea1565b600554909150670de0b6b3a76400009081906108419063ffffffff600160401b820481169161078091640100000000909104168761110f565b600554610793919063ffffffff16611121565b61079d9190611140565b60045463ffffffff600160e01b82048116916107c291600160c01b9091041687611153565b6004546107dc9190600160a01b900463ffffffff1661116e565b6107e6919061119d565b6107fa9067ffffffffffffffff861661116e565b6001600160601b031661080d9190610f19565b600454610828908590600160801b900463ffffffff166111c4565b67ffffffffffffffff1661083c9190611140565b610a7e565b60045461085b9190600160601b900463ffffffff16611121565b6108659190610f19565b93505050505b92915050565b60008061087c610c1b565b5050600354600454604080516101008101825263ffffffff600160601b840481168252600160801b840481166020830152600160a01b8404811692820192909252600160c01b830482166060820152600160e01b83048216608082015260055480831660a08301526401000000008104831660c0830152600160401b900490911660e082015291936001600160601b039091169250565b61091b6109a2565b6004805463ffffffff909216600160a01b0263ffffffff60a01b19909216919091179055565b6109496109a2565b6004805463ffffffff909216600160601b0263ffffffff60601b19909216919091179055565b6109776109a2565b6005805463ffffffff909216600160401b026bffffffff000000000000000019909216919091179055565b60008054906101000a90046001600160a01b03166001600160a01b0316638da5cb5b6040518163ffffffff1660e01b8152600401602060405180830381865afa1580156109f3573d6000803e3d6000fd5b505050506040513d601f19601f82011682018060405250810190610a1791906111eb565b6001600160a01b0316336001600160a01b031614610a7c5760405162461bcd60e51b815260206004820152601e60248201527f466e2063616e206f6e6c792062652063616c6c6564206279206f776e6572000060448201526064015b60405180910390fd5b565b6000670de0b6b3a7640000821015610aac57604051633621413760e21b815260048101839052602401610a73565b6000610ac1670de0b6b3a76400008404610b34565b670de0b6b3a764000081029250905082811c670de0b6b3a763ffff198101610aea575050919050565b6706f05b59d3b200005b8015610b2c57670de0b6b3a7640000828002049150671bc16d674ec800008210610b24579283019260019190911c905b60011c610af4565b505050919050565b6000600160801b8210610b5457608091821c91610b519082611140565b90505b600160401b8210610b7257604091821c91610b6f9082611140565b90505b6401000000008210610b9157602091821c91610b8e9082611140565b90505b620100008210610bae57601091821c91610bab9082611140565b90505b6101008210610bca57600891821c91610bc79082611140565b90505b60108210610be557600491821c91610be29082611140565b90505b60048210610c0057600291821c91610bfd9082611140565b90505b60028210610c1657610c13600182611140565b90505b919050565b6040518061010001604052806008906020820280368337509192915050565b6001600160601b0381168114610c4f57600080fd5b50565b600060208284031215610c6457600080fd5b8135610c6f81610c3a565b9392505050565b600060208083528351808285015260005b81811015610ca357858101830151858201604001528201610c87565b506000604082860101526040601f19601f8301168501019250505092915050565b600060208284031215610cd657600080fd5b813563ffffffff81168114610c6f57600080fd5b60008083601f840112610cfc57600080fd5b50813567ffffffffffffffff811115610d1457600080fd5b602083019150836020828501011115610d2c57600080fd5b9250929050565b600080600080600060608688031215610d4b57600080fd5b853560ff81168114610d5c57600080fd5b9450602086013567ffffffffffffffff80821115610d7957600080fd5b610d8589838a01610cea565b90965094506040880135915080821115610d9e57600080fd5b50610dab88828901610cea565b969995985093965092949392505050565b600060208284031215610dce57600080fd5b5035919050565b60008060408385031215610de857600080fd5b823591506020830135610dfa81610c3a565b809150509250929050565b60006101408201905084825260206001600160601b03851681840152604083018460005b6008811015610e4c57815163ffffffff1683529183019190830190600101610e29565b50505050949350505050565b600060208284031215610e6a57600080fd5b8151610c6f81610c3a565b634e487b7160e01b600052601260045260246000fd5b634e487b7160e01b600052601160045260246000fd5b60006001600160601b0380841680610ebb57610ebb610e75565b92169190910492915050565b60ff8416815260406020820152816040820152818360608301376000818301606090810191909152601f909201601f1916010192915050565b600060208284031215610f1257600080fd5b5051919050565b600082610f2857610f28610e75565b500490565b600181815b80851115610f68578160001904821115610f4e57610f4e610e8b565b80851615610f5b57918102915b93841c9390800290610f32565b509250929050565b600181815b80851115610f6857816001600160601b0304821115610f9657610f96610e8b565b80851615610fa357918102915b93841c9390800290610f75565b600082610fbf5750600161086b565b81610fcc5750600061086b565b8160018114610fe25760028114610fec57611008565b600191505061086b565b60ff841115610ffd57610ffd610e8b565b50506001821b61086b565b5060208310610133831016604e8410600b841016171561102b575081810a61086b565b6110358383610f2d565b806000190482111561104957611049610e8b565b029392505050565b6000826110605750600161086b565b8161106d5750600061086b565b8160018114610fe257600281036110b25760ff84111561108f5761108f610e8b565b6001841b91506001600160601b038211156110ac576110ac610e8b565b5061086b565b5060208310610133831016604e8410600b84101617156110ec575081810a6001600160601b038111156110e7576110e7610e8b565b61086b565b6110f68383610f70565b806001600160601b030482111561104957611049610e8b565b6000610c6f63ffffffff841683610fb0565b600081600019048311821515161561113b5761113b610e8b565b500290565b8082018082111561086b5761086b610e8b565b6000610c6f63ffffffff84166001600160601b038416611051565b60006001600160601b038083168185168183048111821515161561119457611194610e8b565b02949350505050565b6001600160601b038181168382160190808211156111bd576111bd610e8b565b5092915050565b600067ffffffffffffffff8083168185168183048111821515161561119457611194610e8b565b6000602082840312156111fd57600080fd5b81516001600160a01b0381168114610c6f57600080fdfea264697066735822122092f56e7023f9162b4838d13dba9ab881edac2e33ca39ed32c1f0ab755edc104b64736f6c63430008100033",
  "immutableReferences": {},
  "source": "// SPDX-License-Identifier: MIT\n\npragma solidity ^0.8.4;\n\nimport { HashingProxy } from \"../HashingProxy.sol\";\nimport { Hub } from \"../Hub.sol\";\nimport { ParametersStorage } from \"../storage/ParametersStorage.sol\";\nimport { Indexable } from \"../interface/Indexable.sol\";\nimport { IScoreFunction } from \"../interface/IScoreFunction.sol\";\nimport { Named } from \"../interface/Named.sol\";\nimport { PRBMathUD60x18 } from \"@prb/math/contracts/PRBMathUD60x18.sol\";\n\n// Logarithmic Polynomial Long Division Score Function\ncontract Log2PLDSF is IScoreFunction, Indexable, Named {\n\n    using PRBMathUD60x18 for uint256;\n\n    uint8 private constant _ID = 1;\n    string private constant _NAME = \"Log2PLDSF\";\n\n    Hub public hub;\n    HashingProxy public hashingProxy;\n    ParametersStorage public parametersStorage;\n\n    uint256 public distanceMappingCoefficient;\n    uint96 public stakeMappingCoefficient;\n\n    uint32 public multiplier;\n    uint32 public logArgumentConstant;\n    uint32 public a;\n    uint32 public stakeExponent;\n    uint32 public b;\n    uint32 public c;\n    uint32 public distanceExponent;\n    uint32 public d;\n\n    constructor(address hubAddress) {\n        require(hubAddress != address(0));\n\n        hub = Hub(hubAddress);\n        hashingProxy = HashingProxy(hub.getContractAddress(\"HashingProxy\"));\n        parametersStorage = ParametersStorage(hub.getContractAddress(\"ParametersStorage\"));\n\n        distanceMappingCoefficient = type(uint256).max / 1_000;\n        stakeMappingCoefficient = parametersStorage.maximumStake() / 200_000;\n\n        multiplier = 10000;\n        logArgumentConstant = 1;\n        a = 1;\n        stakeExponent = 1;\n        b = 0;\n        c = 1;\n        distanceExponent = 2;\n        d = 1;\n    }\n\n    modifier onlyHubOwner() {\n        _checkOwner();\n        _;\n    }\n\n    function id() external pure virtual override returns (uint8) {\n        return _ID;\n    }\n\n    function name() external pure virtual override returns (string memory) {\n        return _NAME;\n    }\n\n    function calculateScore(uint256 distance, uint96 stake) external view returns (uint40) {\n        uint256 mappedDistance = distance / distanceMappingCoefficient;\n        uint96 mappedStake = stake / stakeMappingCoefficient;\n\n        uint64 coefficient = 1 ether;\n\n        return uint40(\n            multiplier * (\n                logArgumentConstant * coefficient +\n                coefficient * (a * (mappedStake ** stakeExponent) + b) / (c * (mappedDistance ** distanceExponent) + d)\n            ).log2() / coefficient\n        );\n    }\n\n    function calculateDistance(uint8 hashFunctionId, bytes calldata nodeId, bytes calldata keyword)\n        external\n        returns (uint256)\n    {\n        HashingProxy hp = hashingProxy;\n        bytes32 nodeIdHash = hp.callHashFunction(hashFunctionId, nodeId);\n        bytes32 keywordHash = hp.callHashFunction(hashFunctionId, keyword);\n\n        return uint256(nodeIdHash ^ keywordHash);\n    }\n\n    function getParameters() external view returns (uint256, uint96, uint32[8] memory) {\n        return (\n            distanceMappingCoefficient,\n            stakeMappingCoefficient,\n            [\n                multiplier,\n                logArgumentConstant,\n                a,\n                stakeExponent,\n                b,\n                c,\n                distanceExponent,\n                d\n            ]\n        );\n    }\n\n    function setDistanceMappingCoefficient(uint256 distanceRangeMax) external onlyHubOwner {\n        distanceMappingCoefficient = type(uint256).max / distanceRangeMax;\n    }\n\n    function setStakeMappingCoefficient(uint96 stakeRangeMax) external onlyHubOwner {\n        stakeMappingCoefficient = parametersStorage.maximumStake() / stakeRangeMax;\n    }\n\n    function setMultiplier(uint32 multiplier_) external onlyHubOwner {\n        multiplier = multiplier_;\n    }\n\n    function setLogArgumentConstant(uint32 logArgumentConstant_) external onlyHubOwner {\n        logArgumentConstant = logArgumentConstant_;\n    }\n\n    function setA(uint32 a_) external onlyHubOwner {\n        a = a_;\n    }\n\n    function setStakeExponent(uint32 stakeExponent_) external onlyHubOwner {\n        stakeExponent = stakeExponent_;\n    }\n\n    function setB(uint32 b_) external onlyHubOwner {\n        b = b_;\n    }\n\n    function setC(uint32 c_) external onlyHubOwner {\n        c = c_;\n    }\n\n    function setDistanceExponent(uint32 distanceExponent_) external onlyHubOwner {\n        distanceExponent = distanceExponent_;\n    }\n\n    function setD(uint32 d_) external onlyHubOwner {\n        d = d_;\n    }\n\n    function _checkOwner() internal view virtual {\n        require (msg.sender == hub.owner(), \"Fn can only be called by owner\");\n    }\n\n}\n",
  "sourcePath": "/Users/waving/Desktop/OriginTrail/dkg-evm-module/contracts/scoring/log2pldsf.sol",
  "compiler": {
    "name": "solc",
    "version": "0.8.16+commit.07a7930e.Emscripten.clang"
  },
  "schemaVersion": "3.4.10",
  "updatedAt": "2022-12-06T11:50:01.250Z",
  "devdoc": {
    "kind": "dev",
    "methods": {},
    "version": 1
  },
  "userdoc": {
    "errors": {
      "PRBMathUD60x18__LogInputTooSmall(uint256)": [
        {
          "notice": "Emitted when the input is less than 1."
        }
      ]
    },
    "kind": "user",
    "methods": {},
    "version": 1
  }
}