{
  "contractName": "Log2PLDSF",
  "abi": [
    {
      "inputs": [
        {
          "internalType": "address",
          "name": "hubAddress",
          "type": "address"
        }
      ],
      "stateMutability": "nonpayable",
      "type": "constructor"
    },
    {
      "inputs": [
        {
          "internalType": "uint256",
          "name": "x",
          "type": "uint256"
        }
      ],
      "name": "PRBMathUD60x18__LogInputTooSmall",
      "type": "error"
    },
    {
      "inputs": [],
      "name": "a",
      "outputs": [
        {
          "internalType": "uint32",
          "name": "",
          "type": "uint32"
        }
      ],
      "stateMutability": "view",
      "type": "function"
    },
    {
      "inputs": [],
      "name": "b",
      "outputs": [
        {
          "internalType": "uint32",
          "name": "",
          "type": "uint32"
        }
      ],
      "stateMutability": "view",
      "type": "function"
    },
    {
      "inputs": [],
      "name": "c",
      "outputs": [
        {
          "internalType": "uint32",
          "name": "",
          "type": "uint32"
        }
      ],
      "stateMutability": "view",
      "type": "function"
    },
    {
      "inputs": [],
      "name": "d",
      "outputs": [
        {
          "internalType": "uint32",
          "name": "",
          "type": "uint32"
        }
      ],
      "stateMutability": "view",
      "type": "function"
    },
    {
      "inputs": [],
      "name": "distanceExponent",
      "outputs": [
        {
          "internalType": "uint32",
          "name": "",
          "type": "uint32"
        }
      ],
      "stateMutability": "view",
      "type": "function"
    },
    {
      "inputs": [],
      "name": "distanceMappingCoefficient",
      "outputs": [
        {
          "internalType": "uint256",
          "name": "",
          "type": "uint256"
        }
      ],
      "stateMutability": "view",
      "type": "function"
    },
    {
      "inputs": [],
      "name": "hub",
      "outputs": [
        {
          "internalType": "contract Hub",
          "name": "",
          "type": "address"
        }
      ],
      "stateMutability": "view",
      "type": "function"
    },
    {
      "inputs": [],
      "name": "logArgumentConstant",
      "outputs": [
        {
          "internalType": "uint32",
          "name": "",
          "type": "uint32"
        }
      ],
      "stateMutability": "view",
      "type": "function"
    },
    {
      "inputs": [],
      "name": "multiplier",
      "outputs": [
        {
          "internalType": "uint32",
          "name": "",
          "type": "uint32"
        }
      ],
      "stateMutability": "view",
      "type": "function"
    },
    {
      "inputs": [],
      "name": "stakeExponent",
      "outputs": [
        {
          "internalType": "uint32",
          "name": "",
          "type": "uint32"
        }
      ],
      "stateMutability": "view",
      "type": "function"
    },
    {
      "inputs": [],
      "name": "stakeMappingCoefficient",
      "outputs": [
        {
          "internalType": "uint96",
          "name": "",
          "type": "uint96"
        }
      ],
      "stateMutability": "view",
      "type": "function"
    },
    {
      "inputs": [
        {
          "internalType": "uint256",
          "name": "distance",
          "type": "uint256"
        },
        {
          "internalType": "uint96",
          "name": "stake",
          "type": "uint96"
        }
      ],
      "name": "calculateScore",
      "outputs": [
        {
          "internalType": "uint40",
          "name": "",
          "type": "uint40"
        }
      ],
      "stateMutability": "view",
      "type": "function"
    },
    {
      "inputs": [
        {
          "internalType": "uint8",
          "name": "hashFunctionId",
          "type": "uint8"
        },
        {
          "internalType": "bytes",
          "name": "nodeId",
          "type": "bytes"
        },
        {
          "internalType": "bytes",
          "name": "keyword",
          "type": "bytes"
        }
      ],
      "name": "calculateDistance",
      "outputs": [
        {
          "internalType": "uint256",
          "name": "",
          "type": "uint256"
        }
      ],
      "stateMutability": "nonpayable",
      "type": "function"
    },
    {
      "inputs": [],
      "name": "getParameters",
      "outputs": [
        {
          "internalType": "uint256",
          "name": "",
          "type": "uint256"
        },
        {
          "internalType": "uint96",
          "name": "",
          "type": "uint96"
        },
        {
          "internalType": "uint32[8]",
          "name": "",
          "type": "uint32[8]"
        }
      ],
      "stateMutability": "view",
      "type": "function"
    },
    {
      "inputs": [
        {
          "internalType": "uint256",
          "name": "distanceRangeMax",
          "type": "uint256"
        }
      ],
      "name": "setDistanceMappingCoefficient",
      "outputs": [],
      "stateMutability": "nonpayable",
      "type": "function"
    },
    {
      "inputs": [
        {
          "internalType": "uint96",
          "name": "stakeRangeMax",
          "type": "uint96"
        }
      ],
      "name": "setStakeMappingCoefficient",
      "outputs": [],
      "stateMutability": "nonpayable",
      "type": "function"
    },
    {
      "inputs": [
        {
          "internalType": "uint32",
          "name": "multiplier_",
          "type": "uint32"
        }
      ],
      "name": "setMultiplier",
      "outputs": [],
      "stateMutability": "nonpayable",
      "type": "function"
    },
    {
      "inputs": [
        {
          "internalType": "uint32",
          "name": "logArgumentConstant_",
          "type": "uint32"
        }
      ],
      "name": "setLogArgumentConstant",
      "outputs": [],
      "stateMutability": "nonpayable",
      "type": "function"
    },
    {
      "inputs": [
        {
          "internalType": "uint32",
          "name": "a_",
          "type": "uint32"
        }
      ],
      "name": "setA",
      "outputs": [],
      "stateMutability": "nonpayable",
      "type": "function"
    },
    {
      "inputs": [
        {
          "internalType": "uint32",
          "name": "stakeExponent_",
          "type": "uint32"
        }
      ],
      "name": "setStakeExponent",
      "outputs": [],
      "stateMutability": "nonpayable",
      "type": "function"
    },
    {
      "inputs": [
        {
          "internalType": "uint32",
          "name": "b_",
          "type": "uint32"
        }
      ],
      "name": "setB",
      "outputs": [],
      "stateMutability": "nonpayable",
      "type": "function"
    },
    {
      "inputs": [
        {
          "internalType": "uint32",
          "name": "c_",
          "type": "uint32"
        }
      ],
      "name": "setC",
      "outputs": [],
      "stateMutability": "nonpayable",
      "type": "function"
    },
    {
      "inputs": [
        {
          "internalType": "uint32",
          "name": "distanceExponent_",
          "type": "uint32"
        }
      ],
      "name": "setDistanceExponent",
      "outputs": [],
      "stateMutability": "nonpayable",
      "type": "function"
    },
    {
      "inputs": [
        {
          "internalType": "uint32",
          "name": "d_",
          "type": "uint32"
        }
      ],
      "name": "setD",
      "outputs": [],
      "stateMutability": "nonpayable",
      "type": "function"
    }
  ],
  "bytecode": "0x60806040523480156200001157600080fd5b5060405162002e8a38038062002e8a8339818101604052810190620000379190620005ea565b600073ffffffffffffffffffffffffffffffffffffffff168173ffffffffffffffffffffffffffffffffffffffff16036200007157600080fd5b806000806101000a81548173ffffffffffffffffffffffffffffffffffffffff021916908373ffffffffffffffffffffffffffffffffffffffff160217905550620000c46103e8620001f060201b60201c565b620000d862030d406200032960201b60201c565b6127106002600c6101000a81548163ffffffff021916908363ffffffff1602179055506001600260106101000a81548163ffffffff021916908363ffffffff1602179055506001600260146101000a81548163ffffffff021916908363ffffffff1602179055506001600260186101000a81548163ffffffff021916908363ffffffff16021790555060006002601c6101000a81548163ffffffff021916908363ffffffff1602179055506001600360006101000a81548163ffffffff021916908363ffffffff1602179055506002600360046101000a81548163ffffffff021916908363ffffffff1602179055506001600360086101000a81548163ffffffff021916908363ffffffff160217905550506200085b565b60008054906101000a900473ffffffffffffffffffffffffffffffffffffffff1673ffffffffffffffffffffffffffffffffffffffff16638da5cb5b6040518163ffffffff1660e01b8152600401602060405180830381865afa1580156200025c573d6000803e3d6000fd5b505050506040513d601f19601f82011682018060405250810190620002829190620005ea565b73ffffffffffffffffffffffffffffffffffffffff163373ffffffffffffffffffffffffffffffffffffffff1614620002f2576040517f08c379a0000000000000000000000000000000000000000000000000000000008152600401620002e990620006a3565b60405180910390fd5b807fffffffffffffffffffffffffffffffffffffffffffffffffffffffffffffffff620003209190620006fe565b60018190555050565b60008054906101000a900473ffffffffffffffffffffffffffffffffffffffff1673ffffffffffffffffffffffffffffffffffffffff16638da5cb5b6040518163ffffffff1660e01b8152600401602060405180830381865afa15801562000395573d6000803e3d6000fd5b505050506040513d601f19601f82011682018060405250810190620003bb9190620005ea565b73ffffffffffffffffffffffffffffffffffffffff163373ffffffffffffffffffffffffffffffffffffffff16146200042b576040517f08c379a00000000000000000000000000000000000000000000000000000000081526004016200042290620006a3565b60405180910390fd5b60008060009054906101000a900473ffffffffffffffffffffffffffffffffffffffff1673ffffffffffffffffffffffffffffffffffffffff166304433bbc6040518163ffffffff1660e01b8152600401620004879062000786565b602060405180830381865afa158015620004a5573d6000803e3d6000fd5b505050506040513d601f19601f82011682018060405250810190620004cb9190620005ea565b9050818173ffffffffffffffffffffffffffffffffffffffff1663b5c6b4536040518163ffffffff1660e01b8152600401602060405180830381865afa1580156200051a573d6000803e3d6000fd5b505050506040513d601f19601f82011682018060405250810190620005409190620007f1565b6200054c919062000823565b600260006101000a8154816bffffffffffffffffffffffff02191690836bffffffffffffffffffffffff1602179055505050565b600080fd5b600073ffffffffffffffffffffffffffffffffffffffff82169050919050565b6000620005b28262000585565b9050919050565b620005c481620005a5565b8114620005d057600080fd5b50565b600081519050620005e481620005b9565b92915050565b60006020828403121562000603576200060262000580565b5b60006200061384828501620005d3565b91505092915050565b600082825260208201905092915050565b7f46756e6374696f6e2063616e206f6e6c792062652063616c6c6564206279206860008201527f7562206f776e6572000000000000000000000000000000000000000000000000602082015250565b60006200068b6028836200061c565b915062000698826200062d565b604082019050919050565b60006020820190508181036000830152620006be816200067c565b9050919050565b6000819050919050565b7f4e487b7100000000000000000000000000000000000000000000000000000000600052601260045260246000fd5b60006200070b82620006c5565b91506200071883620006c5565b9250826200072b576200072a620006cf565b5b828204905092915050565b7f506172616d657465727353746f72616765000000000000000000000000000000600082015250565b60006200076e6011836200061c565b91506200077b8262000736565b602082019050919050565b60006020820190508181036000830152620007a1816200075f565b9050919050565b60006bffffffffffffffffffffffff82169050919050565b620007cb81620007a8565b8114620007d757600080fd5b50565b600081519050620007eb81620007c0565b92915050565b6000602082840312156200080a576200080962000580565b5b60006200081a84828501620007da565b91505092915050565b60006200083082620007a8565b91506200083d83620007a8565b92508262000850576200084f620006cf565b5b828204905092915050565b61261f806200086b6000396000f3fe608060405234801561001057600080fd5b50600436106101585760003560e01c806375a146cb116100c3578063c3da42b81161007c578063c3da42b81461038f578063ccd19ae1146103ad578063df6ccca0146103cb578063ecfb34bf146103e7578063ee8a523d14610403578063f1cee31e1461042157610158565b806375a146cb146102cb57806380f65fda146102e95780638a054ac214610305578063a0db80ad14610323578063a5ea11da14610353578063bd8aad271461037357610158565b8063365a86fc11610115578063365a86fc1461021f578063395811691461023d5780634212a54e146102595780634df7e3d0146102755780634f103353146102935780637525e9e8146102af57610158565b8063015342c21461015d5780630c5ccf57146101795780630dbe671f146101955780631051e18f146101b35780631b3ed722146101d1578063274e1962146101ef575b600080fd5b6101776004803603810190610172919061191b565b61043f565b005b610193600480360381019061018e9190611984565b610686565b005b61019d6107a6565b6040516101aa91906119c0565b60405180910390f35b6101bb6107bc565b6040516101c891906119c0565b60405180910390f35b6101d96107d2565b6040516101e691906119c0565b60405180910390f35b61020960048036038101906102049190611b5a565b6107e8565b6040516102169190611bfe565b60405180910390f35b61022761099b565b6040516102349190611c98565b60405180910390f35b61025760048036038101906102529190611984565b6109bf565b005b610273600480360381019061026e9190611984565b610adf565b005b61027d610bff565b60405161028a91906119c0565b60405180910390f35b6102ad60048036038101906102a89190611984565b610c15565b005b6102c960048036038101906102c49190611984565b610d35565b005b6102d3610e55565b6040516102e091906119c0565b60405180910390f35b61030360048036038101906102fe9190611cdf565b610e6b565b005b61030d610f9c565b60405161031a91906119c0565b60405180910390f35b61033d60048036038101906103389190611d0c565b610fb2565b60405161034a9190611d6c565b60405180910390f35b61035b611174565b60405161036a93929190611e41565b60405180910390f35b61038d60048036038101906103889190611984565b6112d2565b005b6103976113f2565b6040516103a491906119c0565b60405180910390f35b6103b5611408565b6040516103c29190611e79565b60405180910390f35b6103e560048036038101906103e09190611984565b611426565b005b61040160048036038101906103fc9190611984565b611546565b005b61040b611666565b60405161041891906119c0565b60405180910390f35b61042961167c565b6040516104369190611bfe565b60405180910390f35b60008054906101000a900473ffffffffffffffffffffffffffffffffffffffff1673ffffffffffffffffffffffffffffffffffffffff16638da5cb5b6040518163ffffffff1660e01b8152600401602060405180830381865afa1580156104aa573d6000803e3d6000fd5b505050506040513d601f19601f820116820180604052508101906104ce9190611ed2565b73ffffffffffffffffffffffffffffffffffffffff163373ffffffffffffffffffffffffffffffffffffffff161461053b576040517f08c379a000000000000000000000000000000000000000000000000000000000815260040161053290611f82565b60405180910390fd5b60008060009054906101000a900473ffffffffffffffffffffffffffffffffffffffff1673ffffffffffffffffffffffffffffffffffffffff166304433bbc6040518163ffffffff1660e01b815260040161059590611fee565b602060405180830381865afa1580156105b2573d6000803e3d6000fd5b505050506040513d601f19601f820116820180604052508101906105d69190611ed2565b9050818173ffffffffffffffffffffffffffffffffffffffff1663b5c6b4536040518163ffffffff1660e01b8152600401602060405180830381865afa158015610624573d6000803e3d6000fd5b505050506040513d601f19601f820116820180604052508101906106489190612023565b61065291906120ae565b600260006101000a8154816bffffffffffffffffffffffff02191690836bffffffffffffffffffffffff1602179055505050565b60008054906101000a900473ffffffffffffffffffffffffffffffffffffffff1673ffffffffffffffffffffffffffffffffffffffff16638da5cb5b6040518163ffffffff1660e01b8152600401602060405180830381865afa1580156106f1573d6000803e3d6000fd5b505050506040513d601f19601f820116820180604052508101906107159190611ed2565b73ffffffffffffffffffffffffffffffffffffffff163373ffffffffffffffffffffffffffffffffffffffff1614610782576040517f08c379a000000000000000000000000000000000000000000000000000000000815260040161077990611f82565b60405180910390fd5b80600260106101000a81548163ffffffff021916908363ffffffff16021790555050565b600260149054906101000a900463ffffffff1681565b600260189054906101000a900463ffffffff1681565b6002600c9054906101000a900463ffffffff1681565b60008060008054906101000a900473ffffffffffffffffffffffffffffffffffffffff1673ffffffffffffffffffffffffffffffffffffffff166304433bbc6040518163ffffffff1660e01b81526004016108429061212b565b602060405180830381865afa15801561085f573d6000803e3d6000fd5b505050506040513d601f19601f820116820180604052508101906108839190611ed2565b905060008173ffffffffffffffffffffffffffffffffffffffff166345ed59e587876040518363ffffffff1660e01b81526004016108c29291906121e2565b6020604051808303816000875af11580156108e1573d6000803e3d6000fd5b505050506040513d601f19601f820116820180604052508101906109059190612248565b905060008273ffffffffffffffffffffffffffffffffffffffff166345ed59e588876040518363ffffffff1660e01b81526004016109449291906121e2565b6020604051808303816000875af1158015610963573d6000803e3d6000fd5b505050506040513d601f19601f820116820180604052508101906109879190612248565b905080821860001c93505050509392505050565b60008054906101000a900473ffffffffffffffffffffffffffffffffffffffff1681565b60008054906101000a900473ffffffffffffffffffffffffffffffffffffffff1673ffffffffffffffffffffffffffffffffffffffff16638da5cb5b6040518163ffffffff1660e01b8152600401602060405180830381865afa158015610a2a573d6000803e3d6000fd5b505050506040513d601f19601f82011682018060405250810190610a4e9190611ed2565b73ffffffffffffffffffffffffffffffffffffffff163373ffffffffffffffffffffffffffffffffffffffff1614610abb576040517f08c379a0000000000000000000000000000000000000000000000000000000008152600401610ab290611f82565b60405180910390fd5b80600260186101000a81548163ffffffff021916908363ffffffff16021790555050565b60008054906101000a900473ffffffffffffffffffffffffffffffffffffffff1673ffffffffffffffffffffffffffffffffffffffff16638da5cb5b6040518163ffffffff1660e01b8152600401602060405180830381865afa158015610b4a573d6000803e3d6000fd5b505050506040513d601f19601f82011682018060405250810190610b6e9190611ed2565b73ffffffffffffffffffffffffffffffffffffffff163373ffffffffffffffffffffffffffffffffffffffff1614610bdb576040517f08c379a0000000000000000000000000000000000000000000000000000000008152600401610bd290611f82565b60405180910390fd5b80600360006101000a81548163ffffffff021916908363ffffffff16021790555050565b6002601c9054906101000a900463ffffffff1681565b60008054906101000a900473ffffffffffffffffffffffffffffffffffffffff1673ffffffffffffffffffffffffffffffffffffffff16638da5cb5b6040518163ffffffff1660e01b8152600401602060405180830381865afa158015610c80573d6000803e3d6000fd5b505050506040513d601f19601f82011682018060405250810190610ca49190611ed2565b73ffffffffffffffffffffffffffffffffffffffff163373ffffffffffffffffffffffffffffffffffffffff1614610d11576040517f08c379a0000000000000000000000000000000000000000000000000000000008152600401610d0890611f82565b60405180910390fd5b806002601c6101000a81548163ffffffff021916908363ffffffff16021790555050565b60008054906101000a900473ffffffffffffffffffffffffffffffffffffffff1673ffffffffffffffffffffffffffffffffffffffff16638da5cb5b6040518163ffffffff1660e01b8152600401602060405180830381865afa158015610da0573d6000803e3d6000fd5b505050506040513d601f19601f82011682018060405250810190610dc49190611ed2565b73ffffffffffffffffffffffffffffffffffffffff163373ffffffffffffffffffffffffffffffffffffffff1614610e31576040517f08c379a0000000000000000000000000000000000000000000000000000000008152600401610e2890611f82565b60405180910390fd5b80600360046101000a81548163ffffffff021916908363ffffffff16021790555050565b600360049054906101000a900463ffffffff1681565b60008054906101000a900473ffffffffffffffffffffffffffffffffffffffff1673ffffffffffffffffffffffffffffffffffffffff16638da5cb5b6040518163ffffffff1660e01b8152600401602060405180830381865afa158015610ed6573d6000803e3d6000fd5b505050506040513d601f19601f82011682018060405250810190610efa9190611ed2565b73ffffffffffffffffffffffffffffffffffffffff163373ffffffffffffffffffffffffffffffffffffffff1614610f67576040517f08c379a0000000000000000000000000000000000000000000000000000000008152600401610f5e90611f82565b60405180910390fd5b807fffffffffffffffffffffffffffffffffffffffffffffffffffffffffffffffff610f939190612275565b60018190555050565b600360089054906101000a900463ffffffff1681565b60008060015484610fc39190612275565b90506000600260009054906101000a90046bffffffffffffffffffffffff1684610fed91906120ae565b90506000670de0b6b3a764000090508067ffffffffffffffff1661113c600360089054906101000a900463ffffffff1663ffffffff16600360049054906101000a900463ffffffff168661104191906123d9565b600360009054906101000a900463ffffffff1663ffffffff166110649190612424565b61106e919061247e565b6002601c9054906101000a900463ffffffff1663ffffffff16600260189054906101000a900463ffffffff16866110a591906124d4565b600260149054906101000a900463ffffffff1663ffffffff166110c8919061250b565b6110d29190612551565b8467ffffffffffffffff166110e7919061250b565b6bffffffffffffffffffffffff166110ff9190612275565b83600260109054906101000a900463ffffffff1663ffffffff1661112391906125a7565b67ffffffffffffffff16611137919061247e565b611682565b6002600c9054906101000a900463ffffffff1663ffffffff1661115f9190612424565b6111699190612275565b935050505092915050565b60008061117f6118a0565b600154600260009054906101000a90046bffffffffffffffffffffffff166040518061010001604052806002600c9054906101000a900463ffffffff1663ffffffff1663ffffffff168152602001600260109054906101000a900463ffffffff1663ffffffff1663ffffffff168152602001600260149054906101000a900463ffffffff1663ffffffff1663ffffffff168152602001600260189054906101000a900463ffffffff1663ffffffff1663ffffffff1681526020016002601c9054906101000a900463ffffffff1663ffffffff1663ffffffff168152602001600360009054906101000a900463ffffffff1663ffffffff1663ffffffff168152602001600360049054906101000a900463ffffffff1663ffffffff1663ffffffff168152602001600360089054906101000a900463ffffffff1663ffffffff1663ffffffff16815250925092509250909192565b60008054906101000a900473ffffffffffffffffffffffffffffffffffffffff1673ffffffffffffffffffffffffffffffffffffffff16638da5cb5b6040518163ffffffff1660e01b8152600401602060405180830381865afa15801561133d573d6000803e3d6000fd5b505050506040513d601f19601f820116820180604052508101906113619190611ed2565b73ffffffffffffffffffffffffffffffffffffffff163373ffffffffffffffffffffffffffffffffffffffff16146113ce576040517f08c379a00000000000000000000000000000000000000000000000000000000081526004016113c590611f82565b60405180910390fd5b80600260146101000a81548163ffffffff021916908363ffffffff16021790555050565b600360009054906101000a900463ffffffff1681565b600260009054906101000a90046bffffffffffffffffffffffff1681565b60008054906101000a900473ffffffffffffffffffffffffffffffffffffffff1673ffffffffffffffffffffffffffffffffffffffff16638da5cb5b6040518163ffffffff1660e01b8152600401602060405180830381865afa158015611491573d6000803e3d6000fd5b505050506040513d601f19601f820116820180604052508101906114b59190611ed2565b73ffffffffffffffffffffffffffffffffffffffff163373ffffffffffffffffffffffffffffffffffffffff1614611522576040517f08c379a000000000000000000000000000000000000000000000000000000000815260040161151990611f82565b60405180910390fd5b806002600c6101000a81548163ffffffff021916908363ffffffff16021790555050565b60008054906101000a900473ffffffffffffffffffffffffffffffffffffffff1673ffffffffffffffffffffffffffffffffffffffff16638da5cb5b6040518163ffffffff1660e01b8152600401602060405180830381865afa1580156115b1573d6000803e3d6000fd5b505050506040513d601f19601f820116820180604052508101906115d59190611ed2565b73ffffffffffffffffffffffffffffffffffffffff163373ffffffffffffffffffffffffffffffffffffffff1614611642576040517f08c379a000000000000000000000000000000000000000000000000000000000815260040161163990611f82565b60405180910390fd5b80600360086101000a81548163ffffffff021916908363ffffffff16021790555050565b600260109054906101000a900463ffffffff1681565b60015481565b6000670de0b6b3a76400008210156116d157816040517fd88504dc0000000000000000000000000000000000000000000000000000000081526004016116c89190611bfe565b60405180910390fd5b60006116f4670de0b6b3a764000084816116ee576116ed612050565b5b04611789565b9050670de0b6b3a76400008102915060008184901c9050670de0b6b3a76400008103611721575050611784565b60006706f05b59d3b2000090505b600081111561178057670de0b6b3a76400008283028161175257611751612050565b5b049150670de0b6b3a76400006002028210611774578084019350600182901c91505b600181901c905061172f565b5050505b919050565b600070010000000000000000000000000000000082106117ba57608082901c91506080816117b7919061247e565b90505b6801000000000000000082106117e157604082901c91506040816117de919061247e565b90505b640100000000821061180457602082901c9150602081611801919061247e565b90505b62010000821061182557601082901c9150601081611822919061247e565b90505b610100821061184557600882901c9150600881611842919061247e565b90505b6010821061186457600482901c9150600481611861919061247e565b90505b6004821061188357600282901c9150600281611880919061247e565b90505b6002821061189b57600181611898919061247e565b90505b919050565b604051806101000160405280600890602082028036833780820191505090505090565b6000604051905090565b600080fd5b600080fd5b60006bffffffffffffffffffffffff82169050919050565b6118f8816118d7565b811461190357600080fd5b50565b600081359050611915816118ef565b92915050565b600060208284031215611931576119306118cd565b5b600061193f84828501611906565b91505092915050565b600063ffffffff82169050919050565b61196181611948565b811461196c57600080fd5b50565b60008135905061197e81611958565b92915050565b60006020828403121561199a576119996118cd565b5b60006119a88482850161196f565b91505092915050565b6119ba81611948565b82525050565b60006020820190506119d560008301846119b1565b92915050565b600060ff82169050919050565b6119f1816119db565b81146119fc57600080fd5b50565b600081359050611a0e816119e8565b92915050565b600080fd5b600080fd5b6000601f19601f8301169050919050565b7f4e487b7100000000000000000000000000000000000000000000000000000000600052604160045260246000fd5b611a6782611a1e565b810181811067ffffffffffffffff82111715611a8657611a85611a2f565b5b80604052505050565b6000611a996118c3565b9050611aa58282611a5e565b919050565b600067ffffffffffffffff821115611ac557611ac4611a2f565b5b611ace82611a1e565b9050602081019050919050565b82818337600083830152505050565b6000611afd611af884611aaa565b611a8f565b905082815260208101848484011115611b1957611b18611a19565b5b611b24848285611adb565b509392505050565b600082601f830112611b4157611b40611a14565b5b8135611b51848260208601611aea565b91505092915050565b600080600060608486031215611b7357611b726118cd565b5b6000611b81868287016119ff565b935050602084013567ffffffffffffffff811115611ba257611ba16118d2565b5b611bae86828701611b2c565b925050604084013567ffffffffffffffff811115611bcf57611bce6118d2565b5b611bdb86828701611b2c565b9150509250925092565b6000819050919050565b611bf881611be5565b82525050565b6000602082019050611c136000830184611bef565b92915050565b600073ffffffffffffffffffffffffffffffffffffffff82169050919050565b6000819050919050565b6000611c5e611c59611c5484611c19565b611c39565b611c19565b9050919050565b6000611c7082611c43565b9050919050565b6000611c8282611c65565b9050919050565b611c9281611c77565b82525050565b6000602082019050611cad6000830184611c89565b92915050565b611cbc81611be5565b8114611cc757600080fd5b50565b600081359050611cd981611cb3565b92915050565b600060208284031215611cf557611cf46118cd565b5b6000611d0384828501611cca565b91505092915050565b60008060408385031215611d2357611d226118cd565b5b6000611d3185828601611cca565b9250506020611d4285828601611906565b9150509250929050565b600064ffffffffff82169050919050565b611d6681611d4c565b82525050565b6000602082019050611d816000830184611d5d565b92915050565b611d90816118d7565b82525050565b600060089050919050565b600081905092915050565b6000819050919050565b611dbf81611948565b82525050565b6000611dd18383611db6565b60208301905092915050565b6000602082019050919050565b611df381611d96565b611dfd8184611da1565b9250611e0882611dac565b8060005b83811015611e39578151611e208782611dc5565b9650611e2b83611ddd565b925050600181019050611e0c565b505050505050565b600061014082019050611e576000830186611bef565b611e646020830185611d87565b611e716040830184611dea565b949350505050565b6000602082019050611e8e6000830184611d87565b92915050565b6000611e9f82611c19565b9050919050565b611eaf81611e94565b8114611eba57600080fd5b50565b600081519050611ecc81611ea6565b92915050565b600060208284031215611ee857611ee76118cd565b5b6000611ef684828501611ebd565b91505092915050565b600082825260208201905092915050565b7f46756e6374696f6e2063616e206f6e6c792062652063616c6c6564206279206860008201527f7562206f776e6572000000000000000000000000000000000000000000000000602082015250565b6000611f6c602883611eff565b9150611f7782611f10565b604082019050919050565b60006020820190508181036000830152611f9b81611f5f565b9050919050565b7f506172616d657465727353746f72616765000000000000000000000000000000600082015250565b6000611fd8601183611eff565b9150611fe382611fa2565b602082019050919050565b6000602082019050818103600083015261200781611fcb565b9050919050565b60008151905061201d816118ef565b92915050565b600060208284031215612039576120386118cd565b5b60006120478482850161200e565b91505092915050565b7f4e487b7100000000000000000000000000000000000000000000000000000000600052601260045260246000fd5b7f4e487b7100000000000000000000000000000000000000000000000000000000600052601160045260246000fd5b60006120b9826118d7565b91506120c4836118d7565b9250826120d4576120d3612050565b5b828204905092915050565b7f48617368696e6750726f78790000000000000000000000000000000000000000600082015250565b6000612115600c83611eff565b9150612120826120df565b602082019050919050565b6000602082019050818103600083015261214481612108565b9050919050565b612154816119db565b82525050565b600081519050919050565b600082825260208201905092915050565b60005b83811015612194578082015181840152602081019050612179565b838111156121a3576000848401525b50505050565b60006121b48261215a565b6121be8185612165565b93506121ce818560208601612176565b6121d781611a1e565b840191505092915050565b60006040820190506121f7600083018561214b565b818103602083015261220981846121a9565b90509392505050565b6000819050919050565b61222581612212565b811461223057600080fd5b50565b6000815190506122428161221c565b92915050565b60006020828403121561225e5761225d6118cd565b5b600061226c84828501612233565b91505092915050565b600061228082611be5565b915061228b83611be5565b92508261229b5761229a612050565b5b828204905092915050565b60008160011c9050919050565b6000808291508390505b60018511156122fd578086048111156122d9576122d861207f565b5b60018516156122e85780820291505b80810290506122f6856122a6565b94506122bd565b94509492505050565b60008261231657600190506123d2565b8161232457600090506123d2565b816001811461233a576002811461234457612373565b60019150506123d2565b60ff8411156123565761235561207f565b5b8360020a91508482111561236d5761236c61207f565b5b506123d2565b5060208310610133831016604e8410600b84101617156123a85782820a9050838111156123a3576123a261207f565b5b6123d2565b6123b584848460016122b3565b925090508184048111156123cc576123cb61207f565b5b81810290505b9392505050565b60006123e482611be5565b91506123ef83611948565b925061241c7fffffffffffffffffffffffffffffffffffffffffffffffffffffffffffffffff8484612306565b905092915050565b600061242f82611be5565b915061243a83611be5565b9250817fffffffffffffffffffffffffffffffffffffffffffffffffffffffffffffffff04831182151516156124735761247261207f565b5b828202905092915050565b600061248982611be5565b915061249483611be5565b9250827fffffffffffffffffffffffffffffffffffffffffffffffffffffffffffffffff038211156124c9576124c861207f565b5b828201905092915050565b60006124df826118d7565b91506124ea83611948565b92506125036bffffffffffffffffffffffff8484612306565b905092915050565b6000612516826118d7565b9150612521836118d7565b9250816bffffffffffffffffffffffff04831182151516156125465761254561207f565b5b828202905092915050565b600061255c826118d7565b9150612567836118d7565b9250826bffffffffffffffffffffffff038211156125885761258761207f565b5b828201905092915050565b600067ffffffffffffffff82169050919050565b60006125b282612593565b91506125bd83612593565b92508167ffffffffffffffff04831182151516156125de576125dd61207f565b5b82820290509291505056fea26469706673582212204be13498eacac1380cb8ff4d4a9df2d19df71ad77e5c63a254b898daf22f3cef64736f6c634300080e0033",
  "immutableReferences": {},
  "source": "// SPDX-License-Identifier: MIT\n\npragma solidity ^0.8.0;\n\nimport { HashingProxy } from \"../HashingProxy.sol\";\nimport { Hub } from \"../Hub.sol\";\nimport { IScoreFunction } from \"../interface/IScoreFunction.sol\";\nimport { ParametersStorage } from \"../storage/ParametersStorage.sol\";\nimport { PRBMathUD60x18 } from \"@prb/math/contracts/PRBMathUD60x18.sol\";\n\n// Logarithmic Polynomial Long Division Score Function\ncontract Log2PLDSF is IScoreFunction {\n    using PRBMathUD60x18 for uint256;\n\n    Hub public hub;\n\n    uint256 public distanceMappingCoefficient;\n    uint96 public stakeMappingCoefficient;\n\n    uint32 public multiplier;\n    uint32 public logArgumentConstant;\n    uint32 public a;\n    uint32 public stakeExponent;\n    uint32 public b;\n    uint32 public c;\n    uint32 public distanceExponent;\n    uint32 public d;\n\n    constructor(address hubAddress) {\n        require(hubAddress != address(0));\n        hub = Hub(hubAddress);\n\n        setDistanceMappingCoefficient(1_000);\n        setStakeMappingCoefficient(200_000);\n\n        multiplier = 10000;\n        logArgumentConstant = 1;\n        a = 1;\n        stakeExponent = 1;\n        b = 0;\n        c = 1;\n        distanceExponent = 2;\n        d = 1;\n    }\n\n    modifier onlyHubOwner() {\n        require (\n            msg.sender == hub.owner(),\n            \"Function can only be called by hub owner\"\n        );\n        _;\n    }\n\n    function calculateScore(uint256 distance, uint96 stake)\n        public\n        view\n        returns (uint40)\n    {\n        uint256 mappedDistance = distance / distanceMappingCoefficient;\n        uint96 mappedStake = stake / stakeMappingCoefficient;\n\n        uint64 coefficient = 1 ether;\n\n        return uint40(\n            multiplier * (\n                logArgumentConstant * coefficient +\n                coefficient * (a * (mappedStake ** stakeExponent) + b) / (c * (mappedDistance ** distanceExponent) + d)\n            ).log2() / coefficient\n        );\n    }\n\n    function calculateDistance(uint8 hashFunctionId, bytes memory nodeId, bytes memory keyword)\n        public\n        returns (uint256)\n    {\n        HashingProxy hashingProxy = HashingProxy(hub.getContractAddress(\"HashingProxy\"));\n        bytes32 nodeIdHash = hashingProxy.callHashFunction(hashFunctionId, nodeId);\n        bytes32 keywordHash = hashingProxy.callHashFunction(hashFunctionId, keyword);\n\n        return uint256(nodeIdHash ^ keywordHash);\n    }\n\n    function getParameters()\n        public\n        view\n        returns (uint256, uint96, uint32[8] memory)\n    {\n        return (\n            distanceMappingCoefficient,\n            stakeMappingCoefficient,\n            [\n                multiplier,\n                logArgumentConstant,\n                a,\n                stakeExponent,\n                b,\n                c,\n                distanceExponent,\n                d\n            ]\n        );\n    }\n\n    function setDistanceMappingCoefficient(uint256 distanceRangeMax)\n        public\n        onlyHubOwner\n    {\n        distanceMappingCoefficient = type(uint256).max / distanceRangeMax;\n    }\n\n    function setStakeMappingCoefficient(uint96 stakeRangeMax)\n        public\n        onlyHubOwner\n    {\n        ParametersStorage parametersStorage = ParametersStorage(hub.getContractAddress(\"ParametersStorage\"));\n        stakeMappingCoefficient = parametersStorage.maximumStake() / stakeRangeMax;\n    }\n\n    function setMultiplier(uint32 multiplier_)\n        public\n        onlyHubOwner\n    {\n        multiplier = multiplier_;\n    }\n\n    function setLogArgumentConstant(uint32 logArgumentConstant_)\n        public\n        onlyHubOwner\n    {\n        logArgumentConstant = logArgumentConstant_;\n    }\n\n    function setA(uint32 a_)\n        public\n        onlyHubOwner\n    {\n        a = a_;\n    }\n\n    function setStakeExponent(uint32 stakeExponent_)\n        public\n        onlyHubOwner\n    {\n        stakeExponent = stakeExponent_;\n    }\n\n    function setB(uint32 b_)\n        public\n        onlyHubOwner\n    {\n        b = b_;\n    }\n\n    function setC(uint32 c_)\n        public\n        onlyHubOwner\n    {\n        c = c_;\n    }\n\n    function setDistanceExponent(uint32 distanceExponent_)\n        public\n        onlyHubOwner\n    {\n        distanceExponent = distanceExponent_;\n    }\n\n    function setD(uint32 d_)\n        public\n        onlyHubOwner\n    {\n        d = d_;\n    }\n}\n",
  "sourcePath": "/Users/waving/Desktop/OriginTrail/dkg-evm-module/contracts/scoring/log2pldsf.sol",
  "compiler": {
    "name": "solc",
    "version": "0.8.14+commit.80d49f37.Emscripten.clang"
  },
  "schemaVersion": "3.4.10",
  "updatedAt": "2022-11-25T11:03:34.165Z",
  "devdoc": {
    "kind": "dev",
    "methods": {},
    "version": 1
  },
  "userdoc": {
    "errors": {
      "PRBMathUD60x18__LogInputTooSmall(uint256)": [
        {
          "notice": "Emitted when the input is less than 1."
        }
      ]
    },
    "kind": "user",
    "methods": {},
    "version": 1
  }
}