{
  "contractName": "ParametersStorage",
  "abi": [
    {
      "inputs": [],
      "stateMutability": "nonpayable",
      "type": "constructor"
    },
    {
      "anonymous": false,
      "inputs": [
        {
          "indexed": true,
          "internalType": "address",
          "name": "previousOwner",
          "type": "address"
        },
        {
          "indexed": true,
          "internalType": "address",
          "name": "newOwner",
          "type": "address"
        }
      ],
      "name": "OwnershipTransferred",
      "type": "event"
    },
    {
      "inputs": [],
      "name": "R0",
      "outputs": [
        {
          "internalType": "uint32",
          "name": "",
          "type": "uint32"
        }
      ],
      "stateMutability": "view",
      "type": "function"
    },
    {
      "inputs": [],
      "name": "R1",
      "outputs": [
        {
          "internalType": "uint32",
          "name": "",
          "type": "uint32"
        }
      ],
      "stateMutability": "view",
      "type": "function"
    },
    {
      "inputs": [],
      "name": "R2",
      "outputs": [
        {
          "internalType": "uint48",
          "name": "",
          "type": "uint48"
        }
      ],
      "stateMutability": "view",
      "type": "function"
    },
    {
      "inputs": [],
      "name": "commitWindowDuration",
      "outputs": [
        {
          "internalType": "uint16",
          "name": "",
          "type": "uint16"
        }
      ],
      "stateMutability": "view",
      "type": "function"
    },
    {
      "inputs": [],
      "name": "delegationEnabled",
      "outputs": [
        {
          "internalType": "bool",
          "name": "",
          "type": "bool"
        }
      ],
      "stateMutability": "view",
      "type": "function"
    },
    {
      "inputs": [],
      "name": "epochLength",
      "outputs": [
        {
          "internalType": "uint128",
          "name": "",
          "type": "uint128"
        }
      ],
      "stateMutability": "view",
      "type": "function"
    },
    {
      "inputs": [],
      "name": "maxProofWindowOffsetPerc",
      "outputs": [
        {
          "internalType": "uint8",
          "name": "",
          "type": "uint8"
        }
      ],
      "stateMutability": "view",
      "type": "function"
    },
    {
      "inputs": [],
      "name": "maximumStake",
      "outputs": [
        {
          "internalType": "uint96",
          "name": "",
          "type": "uint96"
        }
      ],
      "stateMutability": "view",
      "type": "function"
    },
    {
      "inputs": [],
      "name": "minProofWindowOffsetPerc",
      "outputs": [
        {
          "internalType": "uint8",
          "name": "",
          "type": "uint8"
        }
      ],
      "stateMutability": "view",
      "type": "function"
    },
    {
      "inputs": [],
      "name": "minimumStake",
      "outputs": [
        {
          "internalType": "uint96",
          "name": "",
          "type": "uint96"
        }
      ],
      "stateMutability": "view",
      "type": "function"
    },
    {
      "inputs": [],
      "name": "owner",
      "outputs": [
        {
          "internalType": "address",
          "name": "",
          "type": "address"
        }
      ],
      "stateMutability": "view",
      "type": "function"
    },
    {
      "inputs": [],
      "name": "proofWindowDurationPerc",
      "outputs": [
        {
          "internalType": "uint8",
          "name": "",
          "type": "uint8"
        }
      ],
      "stateMutability": "view",
      "type": "function"
    },
    {
      "inputs": [],
      "name": "renounceOwnership",
      "outputs": [],
      "stateMutability": "nonpayable",
      "type": "function"
    },
    {
      "inputs": [],
      "name": "replacementWindowDurationPerc",
      "outputs": [
        {
          "internalType": "uint8",
          "name": "",
          "type": "uint8"
        }
      ],
      "stateMutability": "view",
      "type": "function"
    },
    {
      "inputs": [],
      "name": "rewardWithdrawalDelay",
      "outputs": [
        {
          "internalType": "uint24",
          "name": "",
          "type": "uint24"
        }
      ],
      "stateMutability": "view",
      "type": "function"
    },
    {
      "inputs": [],
      "name": "slashingFreezeDuration",
      "outputs": [
        {
          "internalType": "uint32",
          "name": "",
          "type": "uint32"
        }
      ],
      "stateMutability": "view",
      "type": "function"
    },
    {
      "inputs": [],
      "name": "stakeWithdrawalDelay",
      "outputs": [
        {
          "internalType": "uint24",
          "name": "",
          "type": "uint24"
        }
      ],
      "stateMutability": "view",
      "type": "function"
    },
    {
      "inputs": [
        {
          "internalType": "address",
          "name": "newOwner",
          "type": "address"
        }
      ],
      "name": "transferOwnership",
      "outputs": [],
      "stateMutability": "nonpayable",
      "type": "function"
    },
    {
      "inputs": [
        {
          "internalType": "uint96",
          "name": "newMinimumStake",
          "type": "uint96"
        }
      ],
      "name": "setMinimumStake",
      "outputs": [],
      "stateMutability": "nonpayable",
      "type": "function"
    },
    {
      "inputs": [
        {
          "internalType": "uint48",
          "name": "newR2",
          "type": "uint48"
        }
      ],
      "name": "setR2",
      "outputs": [],
      "stateMutability": "nonpayable",
      "type": "function"
    },
    {
      "inputs": [
        {
          "internalType": "uint32",
          "name": "newR1",
          "type": "uint32"
        }
      ],
      "name": "setR1",
      "outputs": [],
      "stateMutability": "nonpayable",
      "type": "function"
    },
    {
      "inputs": [
        {
          "internalType": "uint32",
          "name": "newR0",
          "type": "uint32"
        }
      ],
      "name": "setR0",
      "outputs": [],
      "stateMutability": "nonpayable",
      "type": "function"
    },
    {
      "inputs": [
        {
          "internalType": "uint16",
          "name": "newCommitWindowDuration",
          "type": "uint16"
        }
      ],
      "name": "setCommitWindowDuration",
      "outputs": [],
      "stateMutability": "nonpayable",
      "type": "function"
    },
    {
      "inputs": [
        {
          "internalType": "uint8",
          "name": "newMinProofWindowOffsetPerc",
          "type": "uint8"
        }
      ],
      "name": "setMinProofWindowOffsetPerc",
      "outputs": [],
      "stateMutability": "nonpayable",
      "type": "function"
    },
    {
      "inputs": [
        {
          "internalType": "uint8",
          "name": "newMaxProofWindowOffsetPerc",
          "type": "uint8"
        }
      ],
      "name": "setMaxProofWindowOffsetPerc",
      "outputs": [],
      "stateMutability": "nonpayable",
      "type": "function"
    },
    {
      "inputs": [
        {
          "internalType": "uint8",
          "name": "newProofWindowDurationPerc",
          "type": "uint8"
        }
      ],
      "name": "setProofWindowDurationPerc",
      "outputs": [],
      "stateMutability": "nonpayable",
      "type": "function"
    },
    {
      "inputs": [
        {
          "internalType": "uint8",
          "name": "newReplacementWindowDurationPerc",
          "type": "uint8"
        }
      ],
      "name": "setReplacementWindowDurationPerc",
      "outputs": [],
      "stateMutability": "nonpayable",
      "type": "function"
    },
    {
      "inputs": [
        {
          "internalType": "uint128",
          "name": "newEpochLength",
          "type": "uint128"
        }
      ],
      "name": "setEpochLength",
      "outputs": [],
      "stateMutability": "nonpayable",
      "type": "function"
    },
    {
      "inputs": [
        {
          "internalType": "uint24",
          "name": "newStakeWithdrawalDelay",
          "type": "uint24"
        }
      ],
      "name": "setStakeWithdrawalDelay",
      "outputs": [],
      "stateMutability": "nonpayable",
      "type": "function"
    },
    {
      "inputs": [
        {
          "internalType": "uint24",
          "name": "newRewardWithdrawalDelay",
          "type": "uint24"
        }
      ],
      "name": "setRewardWithdrawalDelay",
      "outputs": [],
      "stateMutability": "nonpayable",
      "type": "function"
    },
    {
      "inputs": [
        {
          "internalType": "uint32",
          "name": "newSlashingFreezeDuration",
          "type": "uint32"
        }
      ],
      "name": "setSlashingFreezeDuration",
      "outputs": [],
      "stateMutability": "nonpayable",
      "type": "function"
    },
    {
      "inputs": [
        {
          "internalType": "bool",
          "name": "enabled",
          "type": "bool"
        }
      ],
      "name": "setDelegationEnabled",
      "outputs": [],
      "stateMutability": "nonpayable",
      "type": "function"
    }
  ],
  "bytecode": "0x608060405234801561001057600080fd5b5061001a3361008b565b60008054662a5a058fc295ed60b61b6001600160a01b039091161790557e194b3203840000000300000008000000000014000422ca8b0a00a425000000600155600280546001600160d81b0319167903c2670000012c00012c00000000000000000000000000000e101790556100db565b600080546001600160a01b038381166001600160a01b0319831681178455604051919092169283917f8be0079c531659141344cd1fd0a4f28419497f9722a3daafe3b4186f6b6457e09190a35050565b610e90806100ea6000396000f3fe608060405234801561001057600080fd5b50600436106101f05760003560e01c80639d3ceb0c1161010f578063e8d487ff116100a2578063f2fde38b11610071578063f2fde38b146105c9578063fdf1afa2146105dc578063fee2cb05146105ef578063ff2117431461062857600080fd5b8063e8d487ff14610521578063ec5ffac214610560578063f1b776f514610590578063f28699fa146105b657600080fd5b8063b5c6b453116100de578063b5c6b453146104b3578063b7f854fc146104e8578063cd3e290c146104fb578063d1287dba1461050e57600080fd5b80639d3ceb0c14610438578063a387120e14610467578063b13a8c071461047a578063b22dd2ca1461048d57600080fd5b806354b8c601116101875780638d73d86a116101565780638d73d86a146103a65780638da5cb5b146103d05780638e626242146103f8578063998d95dc1461042557600080fd5b806354b8c6011461031357806357d775f81461034e578063715018a61461038b578063862bc1311461039357600080fd5b806319bd84dc116101c357806319bd84dc1461029b57806322a0d629146102ae5780633de3fdf4146102c1578063539711571461030057600080fd5b80630d8d840b146101f5578063108778f51461020a578063151db1b914610251578063175b07f814610288575b600080fd5b610208610203366004610ce1565b610656565b005b60015461023a907f0100000000000000000000000000000000000000000000000000000000000000900460ff1681565b60405160ff90911681526020015b60405180910390f35b60025461027490700100000000000000000000000000000000900462ffffff1681565b60405162ffffff9091168152602001610248565b610208610296366004610d1a565b6106a1565b6102086102a9366004610d1a565b6106fa565b6102086102bc366004610d40565b61074f565b6002546102eb90760100000000000000000000000000000000000000000000900463ffffffff1681565b60405163ffffffff9091168152602001610248565b61020861030e366004610d63565b6107ad565b60025461033e907a010000000000000000000000000000000000000000000000000000900460ff1681565b6040519015158152602001610248565b60025461036a906fffffffffffffffffffffffffffffffff1681565b6040516fffffffffffffffffffffffffffffffff9091168152602001610248565b6102086107ff565b6102086103a1366004610d40565b610813565b6001546102eb90760100000000000000000000000000000000000000000000900463ffffffff1681565b60005460405173ffffffffffffffffffffffffffffffffffffffff9091168152602001610248565b60015461023a907c0100000000000000000000000000000000000000000000000000000000900460ff1681565b610208610433366004610d1a565b610870565b60015461023a907e01000000000000000000000000000000000000000000000000000000000000900460ff1681565b610208610475366004610d88565b6108c9565b610208610488366004610dac565b610924565b6001546102eb907201000000000000000000000000000000000000900463ffffffff1681565b6001546104cb906bffffffffffffffffffffffff1681565b6040516bffffffffffffffffffffffff9091168152602001610248565b6102086104f6366004610dda565b610977565b610208610509366004610d40565b6109c8565b61020861051c366004610d63565b610a24565b60015461054d907a010000000000000000000000000000000000000000000000000000900461ffff1681565b60405161ffff9091168152602001610248565b6000546104cb907401000000000000000000000000000000000000000090046bffffffffffffffffffffffff1681565b60025461027490730100000000000000000000000000000000000000900462ffffff1681565b6102086105c4366004610e02565b610a79565b6102086105d7366004610e24565b610ad1565b6102086105ea366004610d40565b610b8d565b600154610611906c01000000000000000000000000900465ffffffffffff1681565b60405165ffffffffffff9091168152602001610248565b60015461023a907d010000000000000000000000000000000000000000000000000000000000900460ff1681565b61065e610beb565b600280547fffffffffffffffffffffffffffffffff00000000000000000000000000000000166fffffffffffffffffffffffffffffffff92909216919091179055565b6106a9610beb565b6001805463ffffffff909216760100000000000000000000000000000000000000000000027fffffffffffff00000000ffffffffffffffffffffffffffffffffffffffffffff909216919091179055565b610702610beb565b6001805463ffffffff9092167201000000000000000000000000000000000000027fffffffffffffffffffff00000000ffffffffffffffffffffffffffffffffffff909216919091179055565b610757610beb565b6001805460ff9092167e01000000000000000000000000000000000000000000000000000000000000027fff00ffffffffffffffffffffffffffffffffffffffffffffffffffffffffffff909216919091179055565b6107b5610beb565b6002805462ffffff909216700100000000000000000000000000000000027fffffffffffffffffffffffffff000000ffffffffffffffffffffffffffffffff909216919091179055565b610807610beb565b6108116000610c6c565b565b61081b610beb565b6001805460ff9092167d010000000000000000000000000000000000000000000000000000000000027fffff00ffffffffffffffffffffffffffffffffffffffffffffffffffffffffff909216919091179055565b610878610beb565b6002805463ffffffff909216760100000000000000000000000000000000000000000000027fffffffffffff00000000ffffffffffffffffffffffffffffffffffffffffffff909216919091179055565b6108d1610beb565b6001805461ffff9092167a010000000000000000000000000000000000000000000000000000027fffffffff0000ffffffffffffffffffffffffffffffffffffffffffffffffffff909216919091179055565b61092c610beb565b600080546bffffffffffffffffffffffff909216740100000000000000000000000000000000000000000273ffffffffffffffffffffffffffffffffffffffff909216919091179055565b61097f610beb565b6001805465ffffffffffff9092166c01000000000000000000000000027fffffffffffffffffffffffffffff000000000000ffffffffffffffffffffffff909216919091179055565b6109d0610beb565b6001805460ff9092167c0100000000000000000000000000000000000000000000000000000000027fffffff00ffffffffffffffffffffffffffffffffffffffffffffffffffffffff909216919091179055565b610a2c610beb565b6002805462ffffff909216730100000000000000000000000000000000000000027fffffffffffffffffffff000000ffffffffffffffffffffffffffffffffffffff909216919091179055565b610a81610beb565b600280549115157a010000000000000000000000000000000000000000000000000000027fffffffffff00ffffffffffffffffffffffffffffffffffffffffffffffffffff909216919091179055565b610ad9610beb565b73ffffffffffffffffffffffffffffffffffffffff8116610b81576040517f08c379a000000000000000000000000000000000000000000000000000000000815260206004820152602660248201527f4f776e61626c653a206e6577206f776e657220697320746865207a65726f206160448201527f646472657373000000000000000000000000000000000000000000000000000060648201526084015b60405180910390fd5b610b8a81610c6c565b50565b610b95610beb565b6001805460ff9092167f0100000000000000000000000000000000000000000000000000000000000000027effffffffffffffffffffffffffffffffffffffffffffffffffffffffffffff909216919091179055565b60005473ffffffffffffffffffffffffffffffffffffffff163314610811576040517f08c379a000000000000000000000000000000000000000000000000000000000815260206004820181905260248201527f4f776e61626c653a2063616c6c6572206973206e6f7420746865206f776e65726044820152606401610b78565b6000805473ffffffffffffffffffffffffffffffffffffffff8381167fffffffffffffffffffffffff0000000000000000000000000000000000000000831681178455604051919092169283917f8be0079c531659141344cd1fd0a4f28419497f9722a3daafe3b4186f6b6457e09190a35050565b600060208284031215610cf357600080fd5b81356fffffffffffffffffffffffffffffffff81168114610d1357600080fd5b9392505050565b600060208284031215610d2c57600080fd5b813563ffffffff81168114610d1357600080fd5b600060208284031215610d5257600080fd5b813560ff81168114610d1357600080fd5b600060208284031215610d7557600080fd5b813562ffffff81168114610d1357600080fd5b600060208284031215610d9a57600080fd5b813561ffff81168114610d1357600080fd5b600060208284031215610dbe57600080fd5b81356bffffffffffffffffffffffff81168114610d1357600080fd5b600060208284031215610dec57600080fd5b813565ffffffffffff81168114610d1357600080fd5b600060208284031215610e1457600080fd5b81358015158114610d1357600080fd5b600060208284031215610e3657600080fd5b813573ffffffffffffffffffffffffffffffffffffffff81168114610d1357600080fdfea26469706673582212206fc7337476aa5ed90045e7f6f639aed28fc4be270a42107ea3438faa25e6e9fe64736f6c634300080e0033",
  "immutableReferences": {},
  "source": "// SPDX-License-Identifier: MIT\n\npragma solidity ^0.8.0;\n\nimport { Ownable } from \"@openzeppelin/contracts/access/Ownable.sol\";\n\ncontract ParametersStorage is Ownable {\n\n    uint96 public minimumStake;\n    uint96 public maximumStake;\n\n    uint48 public R2;\n    uint32 public R1;\n    uint32 public R0;\n\n    uint16 public commitWindowDuration;\n    uint8 public minProofWindowOffsetPerc;\n    uint8 public maxProofWindowOffsetPerc;\n    uint8 public proofWindowDurationPerc;\n    uint8 public replacementWindowDurationPerc;\n\n    uint128 public epochLength;\n\n    uint24 public stakeWithdrawalDelay;\n    uint24 public rewardWithdrawalDelay;\n    uint32 public slashingFreezeDuration;\n\n    bool public delegationEnabled;\n\n    constructor() {\n        minimumStake = 50_000 ether;\n        maximumStake = 5_000_000 ether;\n\n        R2 = 20;\n        R1 = 8;\n        R0 = 3;\n\n        commitWindowDuration = 15 minutes;\n        minProofWindowOffsetPerc = 50;\n        maxProofWindowOffsetPerc = 75;\n        proofWindowDurationPerc = 25;\n        replacementWindowDurationPerc = 0;\n\n        epochLength = 1 hours;\n\n        stakeWithdrawalDelay = 5 minutes;\n        rewardWithdrawalDelay = 5 minutes;\n        slashingFreezeDuration = 730 days;\n\n        delegationEnabled = false;\n    }\n\n    function setMinimumStake(uint96 newMinimumStake) external onlyOwner {\n        minimumStake = newMinimumStake;\n    }\n\n    function setR2(uint48 newR2) external onlyOwner {\n        R2 = newR2;\n    }\n\n    function setR1(uint32 newR1) external onlyOwner {\n        R1 = newR1;\n    }\n\n    function setR0(uint32 newR0) external onlyOwner {\n        R0 = newR0;\n    }\n\n    function setCommitWindowDuration(uint16 newCommitWindowDuration) external onlyOwner {\n        commitWindowDuration = newCommitWindowDuration;\n    }\n\n    function setMinProofWindowOffsetPerc(uint8 newMinProofWindowOffsetPerc) external onlyOwner {\n        minProofWindowOffsetPerc = newMinProofWindowOffsetPerc;\n    }\n\n    function setMaxProofWindowOffsetPerc(uint8 newMaxProofWindowOffsetPerc) external onlyOwner {\n        maxProofWindowOffsetPerc = newMaxProofWindowOffsetPerc;\n    }\n\n    function setProofWindowDurationPerc(uint8 newProofWindowDurationPerc) external onlyOwner {\n        proofWindowDurationPerc = newProofWindowDurationPerc;\n    }\n\n    function setReplacementWindowDurationPerc(uint8 newReplacementWindowDurationPerc) external onlyOwner {\n        replacementWindowDurationPerc = newReplacementWindowDurationPerc;\n    }\n\n    function setEpochLength(uint128 newEpochLength) external onlyOwner {\n        epochLength = newEpochLength;\n    }\n\n    function setStakeWithdrawalDelay(uint24 newStakeWithdrawalDelay) external onlyOwner {\n        stakeWithdrawalDelay = newStakeWithdrawalDelay;\n    }\n\n    function setRewardWithdrawalDelay(uint24 newRewardWithdrawalDelay) external onlyOwner {\n        rewardWithdrawalDelay = newRewardWithdrawalDelay;\n    }\n\n    function setSlashingFreezeDuration(uint32 newSlashingFreezeDuration) external onlyOwner {\n        slashingFreezeDuration = newSlashingFreezeDuration;\n    }\n\n    function setDelegationEnabled(bool enabled) external onlyOwner {\n        delegationEnabled = enabled;\n    }\n\n}\n",
  "sourcePath": "/Users/waving/Desktop/OriginTrail/dkg-evm-module/contracts/storage/ParametersStorage.sol",
  "compiler": {
    "name": "solc",
    "version": "0.8.14+commit.80d49f37.Emscripten.clang"
  },
  "schemaVersion": "3.4.10",
  "updatedAt": "2022-12-02T11:59:36.538Z",
  "devdoc": {
    "kind": "dev",
    "methods": {
      "owner()": {
        "details": "Returns the address of the current owner."
      },
      "renounceOwnership()": {
        "details": "Leaves the contract without owner. It will not be possible to call `onlyOwner` functions anymore. Can only be called by the current owner. NOTE: Renouncing ownership will leave the contract without an owner, thereby removing any functionality that is only available to the owner."
      },
      "transferOwnership(address)": {
        "details": "Transfers ownership of the contract to a new account (`newOwner`). Can only be called by the current owner."
      }
    },
    "version": 1
  },
  "userdoc": {
    "kind": "user",
    "methods": {},
    "version": 1
  }
}