{
  "contractName": "ParametersStorage",
  "abi": [
    {
      "inputs": [],
      "stateMutability": "nonpayable",
      "type": "constructor"
    },
    {
      "anonymous": false,
      "inputs": [
        {
          "indexed": true,
          "internalType": "address",
          "name": "previousOwner",
          "type": "address"
        },
        {
          "indexed": true,
          "internalType": "address",
          "name": "newOwner",
          "type": "address"
        }
      ],
      "name": "OwnershipTransferred",
      "type": "event"
    },
    {
      "inputs": [],
      "name": "R0",
      "outputs": [
        {
          "internalType": "uint32",
          "name": "",
          "type": "uint32"
        }
      ],
      "stateMutability": "view",
      "type": "function"
    },
    {
      "inputs": [],
      "name": "R1",
      "outputs": [
        {
          "internalType": "uint32",
          "name": "",
          "type": "uint32"
        }
      ],
      "stateMutability": "view",
      "type": "function"
    },
    {
      "inputs": [],
      "name": "R2",
      "outputs": [
        {
          "internalType": "uint48",
          "name": "",
          "type": "uint48"
        }
      ],
      "stateMutability": "view",
      "type": "function"
    },
    {
      "inputs": [],
      "name": "commitWindowDuration",
      "outputs": [
        {
          "internalType": "uint16",
          "name": "",
          "type": "uint16"
        }
      ],
      "stateMutability": "view",
      "type": "function"
    },
    {
      "inputs": [],
      "name": "delegationEnabled",
      "outputs": [
        {
          "internalType": "bool",
          "name": "",
          "type": "bool"
        }
      ],
      "stateMutability": "view",
      "type": "function"
    },
    {
      "inputs": [],
      "name": "epochLength",
      "outputs": [
        {
          "internalType": "uint128",
          "name": "",
          "type": "uint128"
        }
      ],
      "stateMutability": "view",
      "type": "function"
    },
    {
      "inputs": [],
      "name": "maxProofWindowOffsetPerc",
      "outputs": [
        {
          "internalType": "uint8",
          "name": "",
          "type": "uint8"
        }
      ],
      "stateMutability": "view",
      "type": "function"
    },
    {
      "inputs": [],
      "name": "maximumStake",
      "outputs": [
        {
          "internalType": "uint96",
          "name": "",
          "type": "uint96"
        }
      ],
      "stateMutability": "view",
      "type": "function"
    },
    {
      "inputs": [],
      "name": "minProofWindowOffsetPerc",
      "outputs": [
        {
          "internalType": "uint8",
          "name": "",
          "type": "uint8"
        }
      ],
      "stateMutability": "view",
      "type": "function"
    },
    {
      "inputs": [],
      "name": "minimumStake",
      "outputs": [
        {
          "internalType": "uint96",
          "name": "",
          "type": "uint96"
        }
      ],
      "stateMutability": "view",
      "type": "function"
    },
    {
      "inputs": [],
      "name": "owner",
      "outputs": [
        {
          "internalType": "address",
          "name": "",
          "type": "address"
        }
      ],
      "stateMutability": "view",
      "type": "function"
    },
    {
      "inputs": [],
      "name": "proofWindowDurationPerc",
      "outputs": [
        {
          "internalType": "uint8",
          "name": "",
          "type": "uint8"
        }
      ],
      "stateMutability": "view",
      "type": "function"
    },
    {
      "inputs": [],
      "name": "renounceOwnership",
      "outputs": [],
      "stateMutability": "nonpayable",
      "type": "function"
    },
    {
      "inputs": [],
      "name": "replacementWindowDurationPerc",
      "outputs": [
        {
          "internalType": "uint8",
          "name": "",
          "type": "uint8"
        }
      ],
      "stateMutability": "view",
      "type": "function"
    },
    {
      "inputs": [],
      "name": "rewardWithdrawalDelay",
      "outputs": [
        {
          "internalType": "uint24",
          "name": "",
          "type": "uint24"
        }
      ],
      "stateMutability": "view",
      "type": "function"
    },
    {
      "inputs": [],
      "name": "slashingFreezeDuration",
      "outputs": [
        {
          "internalType": "uint32",
          "name": "",
          "type": "uint32"
        }
      ],
      "stateMutability": "view",
      "type": "function"
    },
    {
      "inputs": [],
      "name": "stakeWithdrawalDelay",
      "outputs": [
        {
          "internalType": "uint24",
          "name": "",
          "type": "uint24"
        }
      ],
      "stateMutability": "view",
      "type": "function"
    },
    {
      "inputs": [
        {
          "internalType": "address",
          "name": "newOwner",
          "type": "address"
        }
      ],
      "name": "transferOwnership",
      "outputs": [],
      "stateMutability": "nonpayable",
      "type": "function"
    },
    {
      "inputs": [
        {
          "internalType": "uint96",
          "name": "newMinimumStake",
          "type": "uint96"
        }
      ],
      "name": "setMinimumStake",
      "outputs": [],
      "stateMutability": "nonpayable",
      "type": "function"
    },
    {
      "inputs": [
        {
          "internalType": "uint48",
          "name": "newR2",
          "type": "uint48"
        }
      ],
      "name": "setR2",
      "outputs": [],
      "stateMutability": "nonpayable",
      "type": "function"
    },
    {
      "inputs": [
        {
          "internalType": "uint32",
          "name": "newR1",
          "type": "uint32"
        }
      ],
      "name": "setR1",
      "outputs": [],
      "stateMutability": "nonpayable",
      "type": "function"
    },
    {
      "inputs": [
        {
          "internalType": "uint32",
          "name": "newR0",
          "type": "uint32"
        }
      ],
      "name": "setR0",
      "outputs": [],
      "stateMutability": "nonpayable",
      "type": "function"
    },
    {
      "inputs": [
        {
          "internalType": "uint16",
          "name": "newCommitWindowDuration",
          "type": "uint16"
        }
      ],
      "name": "setCommitWindowDuration",
      "outputs": [],
      "stateMutability": "nonpayable",
      "type": "function"
    },
    {
      "inputs": [
        {
          "internalType": "uint8",
          "name": "newMinProofWindowOffsetPerc",
          "type": "uint8"
        }
      ],
      "name": "setMinProofWindowOffsetPerc",
      "outputs": [],
      "stateMutability": "nonpayable",
      "type": "function"
    },
    {
      "inputs": [
        {
          "internalType": "uint8",
          "name": "newMaxProofWindowOffsetPerc",
          "type": "uint8"
        }
      ],
      "name": "setMaxProofWindowOffsetPerc",
      "outputs": [],
      "stateMutability": "nonpayable",
      "type": "function"
    },
    {
      "inputs": [
        {
          "internalType": "uint8",
          "name": "newProofWindowDurationPerc",
          "type": "uint8"
        }
      ],
      "name": "setProofWindowDurationPerc",
      "outputs": [],
      "stateMutability": "nonpayable",
      "type": "function"
    },
    {
      "inputs": [
        {
          "internalType": "uint8",
          "name": "newReplacementWindowDurationPerc",
          "type": "uint8"
        }
      ],
      "name": "setReplacementWindowDurationPerc",
      "outputs": [],
      "stateMutability": "nonpayable",
      "type": "function"
    },
    {
      "inputs": [
        {
          "internalType": "uint128",
          "name": "newEpochLength",
          "type": "uint128"
        }
      ],
      "name": "setEpochLength",
      "outputs": [],
      "stateMutability": "nonpayable",
      "type": "function"
    },
    {
      "inputs": [
        {
          "internalType": "uint24",
          "name": "newStakeWithdrawalDelay",
          "type": "uint24"
        }
      ],
      "name": "setStakeWithdrawalDelay",
      "outputs": [],
      "stateMutability": "nonpayable",
      "type": "function"
    },
    {
      "inputs": [
        {
          "internalType": "uint24",
          "name": "newRewardWithdrawalDelay",
          "type": "uint24"
        }
      ],
      "name": "setRewardWithdrawalDelay",
      "outputs": [],
      "stateMutability": "nonpayable",
      "type": "function"
    },
    {
      "inputs": [
        {
          "internalType": "uint32",
          "name": "newSlashingFreezeDuration",
          "type": "uint32"
        }
      ],
      "name": "setSlashingFreezeDuration",
      "outputs": [],
      "stateMutability": "nonpayable",
      "type": "function"
    }
  ],
  "bytecode": "0x608060405234801561001057600080fd5b5061001a33610089565b600080546001600160a01b0316662a5a058fc295ed60b61b1790557e194b3203840000000300000008000000000014000422ca8b0a00a425000000600155600280546001600160d01b0319167903c2670000012c00012c00000000000000000000000000000e101790556100d9565b600080546001600160a01b038381166001600160a01b0319831681178455604051919092169283917f8be0079c531659141344cd1fd0a4f28419497f9722a3daafe3b4186f6b6457e09190a35050565b610df8806100e86000396000f3fe608060405234801561001057600080fd5b50600436106101e55760003560e01c8063998d95dc1161010f578063d1287dba116100a2578063f2fde38b11610071578063f2fde38b146105ab578063fdf1afa2146105be578063fee2cb05146105d1578063ff2117431461060a57600080fd5b8063d1287dba14610503578063e8d487ff14610516578063ec5ffac214610555578063f1b776f51461058557600080fd5b8063b22dd2ca116100de578063b22dd2ca14610482578063b5c6b453146104a8578063b7f854fc146104dd578063cd3e290c146104f057600080fd5b8063998d95dc1461041a5780639d3ceb0c1461042d578063a387120e1461045c578063b13a8c071461046f57600080fd5b80635397115711610187578063862bc13111610156578063862bc131146103885780638d73d86a1461039b5780638da5cb5b146103c55780638e626242146103ed57600080fd5b806353971157146102f557806354b8c6011461030857806357d775f814610343578063715018a61461038057600080fd5b8063175b07f8116101c3578063175b07f81461027d57806319bd84dc1461029057806322a0d629146102a35780633de3fdf4146102b657600080fd5b80630d8d840b146101ea578063108778f5146101ff578063151db1b914610246575b600080fd5b6101fd6101f8366004610c6b565b610638565b005b60015461022f907f0100000000000000000000000000000000000000000000000000000000000000900460ff1681565b60405160ff90911681526020015b60405180910390f35b60025461026990700100000000000000000000000000000000900462ffffff1681565b60405162ffffff909116815260200161023d565b6101fd61028b366004610ca4565b610683565b6101fd61029e366004610ca4565b6106dc565b6101fd6102b1366004610cca565b610731565b6002546102e090760100000000000000000000000000000000000000000000900463ffffffff1681565b60405163ffffffff909116815260200161023d565b6101fd610303366004610ced565b61078f565b600254610333907a010000000000000000000000000000000000000000000000000000900460ff1681565b604051901515815260200161023d565b60025461035f906fffffffffffffffffffffffffffffffff1681565b6040516fffffffffffffffffffffffffffffffff909116815260200161023d565b6101fd6107e1565b6101fd610396366004610cca565b6107f5565b6001546102e090760100000000000000000000000000000000000000000000900463ffffffff1681565b60005460405173ffffffffffffffffffffffffffffffffffffffff909116815260200161023d565b60015461022f907c0100000000000000000000000000000000000000000000000000000000900460ff1681565b6101fd610428366004610ca4565b610852565b60015461022f907e01000000000000000000000000000000000000000000000000000000000000900460ff1681565b6101fd61046a366004610d12565b6108ab565b6101fd61047d366004610d36565b610906565b6001546102e0907201000000000000000000000000000000000000900463ffffffff1681565b6001546104c0906bffffffffffffffffffffffff1681565b6040516bffffffffffffffffffffffff909116815260200161023d565b6101fd6104eb366004610d64565b610959565b6101fd6104fe366004610cca565b6109aa565b6101fd610511366004610ced565b610a06565b600154610542907a010000000000000000000000000000000000000000000000000000900461ffff1681565b60405161ffff909116815260200161023d565b6000546104c0907401000000000000000000000000000000000000000090046bffffffffffffffffffffffff1681565b60025461026990730100000000000000000000000000000000000000900462ffffff1681565b6101fd6105b9366004610d8c565b610a5b565b6101fd6105cc366004610cca565b610b17565b6001546105f3906c01000000000000000000000000900465ffffffffffff1681565b60405165ffffffffffff909116815260200161023d565b60015461022f907d010000000000000000000000000000000000000000000000000000000000900460ff1681565b610640610b75565b600280547fffffffffffffffffffffffffffffffff00000000000000000000000000000000166fffffffffffffffffffffffffffffffff92909216919091179055565b61068b610b75565b6001805463ffffffff909216760100000000000000000000000000000000000000000000027fffffffffffff00000000ffffffffffffffffffffffffffffffffffffffffffff909216919091179055565b6106e4610b75565b6001805463ffffffff9092167201000000000000000000000000000000000000027fffffffffffffffffffff00000000ffffffffffffffffffffffffffffffffffff909216919091179055565b610739610b75565b6001805460ff9092167e01000000000000000000000000000000000000000000000000000000000000027fff00ffffffffffffffffffffffffffffffffffffffffffffffffffffffffffff909216919091179055565b610797610b75565b6002805462ffffff909216700100000000000000000000000000000000027fffffffffffffffffffffffffff000000ffffffffffffffffffffffffffffffff909216919091179055565b6107e9610b75565b6107f36000610bf6565b565b6107fd610b75565b6001805460ff9092167d010000000000000000000000000000000000000000000000000000000000027fffff00ffffffffffffffffffffffffffffffffffffffffffffffffffffffffff909216919091179055565b61085a610b75565b6002805463ffffffff909216760100000000000000000000000000000000000000000000027fffffffffffff00000000ffffffffffffffffffffffffffffffffffffffffffff909216919091179055565b6108b3610b75565b6001805461ffff9092167a010000000000000000000000000000000000000000000000000000027fffffffff0000ffffffffffffffffffffffffffffffffffffffffffffffffffff909216919091179055565b61090e610b75565b600080546bffffffffffffffffffffffff909216740100000000000000000000000000000000000000000273ffffffffffffffffffffffffffffffffffffffff909216919091179055565b610961610b75565b6001805465ffffffffffff9092166c01000000000000000000000000027fffffffffffffffffffffffffffff000000000000ffffffffffffffffffffffff909216919091179055565b6109b2610b75565b6001805460ff9092167c0100000000000000000000000000000000000000000000000000000000027fffffff00ffffffffffffffffffffffffffffffffffffffffffffffffffffffff909216919091179055565b610a0e610b75565b6002805462ffffff909216730100000000000000000000000000000000000000027fffffffffffffffffffff000000ffffffffffffffffffffffffffffffffffffff909216919091179055565b610a63610b75565b73ffffffffffffffffffffffffffffffffffffffff8116610b0b576040517f08c379a000000000000000000000000000000000000000000000000000000000815260206004820152602660248201527f4f776e61626c653a206e6577206f776e657220697320746865207a65726f206160448201527f646472657373000000000000000000000000000000000000000000000000000060648201526084015b60405180910390fd5b610b1481610bf6565b50565b610b1f610b75565b6001805460ff9092167f0100000000000000000000000000000000000000000000000000000000000000027effffffffffffffffffffffffffffffffffffffffffffffffffffffffffffff909216919091179055565b60005473ffffffffffffffffffffffffffffffffffffffff1633146107f3576040517f08c379a000000000000000000000000000000000000000000000000000000000815260206004820181905260248201527f4f776e61626c653a2063616c6c6572206973206e6f7420746865206f776e65726044820152606401610b02565b6000805473ffffffffffffffffffffffffffffffffffffffff8381167fffffffffffffffffffffffff0000000000000000000000000000000000000000831681178455604051919092169283917f8be0079c531659141344cd1fd0a4f28419497f9722a3daafe3b4186f6b6457e09190a35050565b600060208284031215610c7d57600080fd5b81356fffffffffffffffffffffffffffffffff81168114610c9d57600080fd5b9392505050565b600060208284031215610cb657600080fd5b813563ffffffff81168114610c9d57600080fd5b600060208284031215610cdc57600080fd5b813560ff81168114610c9d57600080fd5b600060208284031215610cff57600080fd5b813562ffffff81168114610c9d57600080fd5b600060208284031215610d2457600080fd5b813561ffff81168114610c9d57600080fd5b600060208284031215610d4857600080fd5b81356bffffffffffffffffffffffff81168114610c9d57600080fd5b600060208284031215610d7657600080fd5b813565ffffffffffff81168114610c9d57600080fd5b600060208284031215610d9e57600080fd5b813573ffffffffffffffffffffffffffffffffffffffff81168114610c9d57600080fdfea26469706673582212208fb7c7ca43e8cfbdc378f0a1dfa609efecbe457607957d99f5f0b101730c421f64736f6c634300080e0033",
  "immutableReferences": {},
  "source": "// SPDX-License-Identifier: MIT\n\npragma solidity ^0.8.0;\n\nimport { Ownable } from \"@openzeppelin/contracts/access/Ownable.sol\";\n\ncontract ParametersStorage is Ownable {\n\n    uint96 public minimumStake;\n    uint96 public maximumStake;\n\n    uint48 public R2;\n    uint32 public R1;\n    uint32 public R0;\n\n    uint16 public commitWindowDuration;\n    uint8 public minProofWindowOffsetPerc;\n    uint8 public maxProofWindowOffsetPerc;\n    uint8 public proofWindowDurationPerc;\n    uint8 public replacementWindowDurationPerc;\n\n    uint128 public epochLength;\n\n    uint24 public stakeWithdrawalDelay;\n    uint24 public rewardWithdrawalDelay;\n    uint32 public slashingFreezeDuration;\n\n    bool public delegationEnabled;\n\n    constructor() {\n        minimumStake = 50_000 ether;\n        maximumStake = 5_000_000 ether;\n\n        R2 = 20;\n        R1 = 8;\n        R0 = 3;\n\n        commitWindowDuration = 15 minutes;\n        minProofWindowOffsetPerc = 50;\n        maxProofWindowOffsetPerc = 75;\n        proofWindowDurationPerc = 25;\n        replacementWindowDurationPerc = 0;\n\n        epochLength = 1 hours;\n\n        stakeWithdrawalDelay = 5 minutes;\n        rewardWithdrawalDelay = 5 minutes;\n        slashingFreezeDuration = 730 days;\n    }\n\n    function setMinimumStake(uint96 newMinimumStake) external onlyOwner {\n        minimumStake = newMinimumStake;\n    }\n\n    function setR2(uint48 newR2) external onlyOwner {\n        R2 = newR2;\n    }\n\n    function setR1(uint32 newR1) external onlyOwner {\n        R1 = newR1;\n    }\n\n    function setR0(uint32 newR0) external onlyOwner {\n        R0 = newR0;\n    }\n\n    function setCommitWindowDuration(uint16 newCommitWindowDuration) external onlyOwner {\n        commitWindowDuration = newCommitWindowDuration;\n    }\n\n    function setMinProofWindowOffsetPerc(uint8 newMinProofWindowOffsetPerc) external onlyOwner {\n        minProofWindowOffsetPerc = newMinProofWindowOffsetPerc;\n    }\n\n    function setMaxProofWindowOffsetPerc(uint8 newMaxProofWindowOffsetPerc) external onlyOwner {\n        maxProofWindowOffsetPerc = newMaxProofWindowOffsetPerc;\n    }\n\n    function setProofWindowDurationPerc(uint8 newProofWindowDurationPerc) external onlyOwner {\n        proofWindowDurationPerc = newProofWindowDurationPerc;\n    }\n\n    function setReplacementWindowDurationPerc(uint8 newReplacementWindowDurationPerc) external onlyOwner {\n        replacementWindowDurationPerc = newReplacementWindowDurationPerc;\n    }\n\n    function setEpochLength(uint128 newEpochLength) external onlyOwner {\n        epochLength = newEpochLength;\n    }\n\n    function setStakeWithdrawalDelay(uint24 newStakeWithdrawalDelay) external onlyOwner {\n        stakeWithdrawalDelay = newStakeWithdrawalDelay;\n    }\n\n    function setRewardWithdrawalDelay(uint24 newRewardWithdrawalDelay) external onlyOwner {\n        rewardWithdrawalDelay = newRewardWithdrawalDelay;\n    }\n\n    function setSlashingFreezeDuration(uint32 newSlashingFreezeDuration) external onlyOwner {\n        slashingFreezeDuration = newSlashingFreezeDuration;\n    }\n\n}\n",
  "sourcePath": "/Users/waving/Desktop/OriginTrail/dkg-evm-module/contracts/storage/ParametersStorage.sol",
  "compiler": {
    "name": "solc",
    "version": "0.8.14+commit.80d49f37.Emscripten.clang"
  },
  "schemaVersion": "3.4.10",
  "updatedAt": "2022-12-02T20:40:59.663Z",
  "devdoc": {
    "kind": "dev",
    "methods": {
      "owner()": {
        "details": "Returns the address of the current owner."
      },
      "renounceOwnership()": {
        "details": "Leaves the contract without owner. It will not be possible to call `onlyOwner` functions anymore. Can only be called by the current owner. NOTE: Renouncing ownership will leave the contract without an owner, thereby removing any functionality that is only available to the owner."
      },
      "transferOwnership(address)": {
        "details": "Transfers ownership of the contract to a new account (`newOwner`). Can only be called by the current owner."
      }
    },
    "version": 1
  },
  "userdoc": {
    "kind": "user",
    "methods": {},
    "version": 1
  }
}