{
  "contractName": "ParametersStorage",
  "abi": [
    {
      "inputs": [
        {
          "internalType": "address",
          "name": "hubAddress",
          "type": "address"
        }
      ],
      "stateMutability": "nonpayable",
      "type": "constructor"
    },
    {
      "inputs": [],
      "name": "R0",
      "outputs": [
        {
          "internalType": "uint32",
          "name": "",
          "type": "uint32"
        }
      ],
      "stateMutability": "view",
      "type": "function"
    },
    {
      "inputs": [],
      "name": "R1",
      "outputs": [
        {
          "internalType": "uint32",
          "name": "",
          "type": "uint32"
        }
      ],
      "stateMutability": "view",
      "type": "function"
    },
    {
      "inputs": [],
      "name": "R2",
      "outputs": [
        {
          "internalType": "uint48",
          "name": "",
          "type": "uint48"
        }
      ],
      "stateMutability": "view",
      "type": "function"
    },
    {
      "inputs": [],
      "name": "commitWindowDuration",
      "outputs": [
        {
          "internalType": "uint16",
          "name": "",
          "type": "uint16"
        }
      ],
      "stateMutability": "view",
      "type": "function"
    },
    {
      "inputs": [],
      "name": "epochLength",
      "outputs": [
        {
          "internalType": "uint128",
          "name": "",
          "type": "uint128"
        }
      ],
      "stateMutability": "view",
      "type": "function"
    },
    {
      "inputs": [],
      "name": "hub",
      "outputs": [
        {
          "internalType": "contract Hub",
          "name": "",
          "type": "address"
        }
      ],
      "stateMutability": "view",
      "type": "function"
    },
    {
      "inputs": [],
      "name": "maxProofWindowOffsetPerc",
      "outputs": [
        {
          "internalType": "uint8",
          "name": "",
          "type": "uint8"
        }
      ],
      "stateMutability": "view",
      "type": "function"
    },
    {
      "inputs": [],
      "name": "maximumStake",
      "outputs": [
        {
          "internalType": "uint96",
          "name": "",
          "type": "uint96"
        }
      ],
      "stateMutability": "view",
      "type": "function"
    },
    {
      "inputs": [],
      "name": "minProofWindowOffsetPerc",
      "outputs": [
        {
          "internalType": "uint8",
          "name": "",
          "type": "uint8"
        }
      ],
      "stateMutability": "view",
      "type": "function"
    },
    {
      "inputs": [],
      "name": "minimumStake",
      "outputs": [
        {
          "internalType": "uint96",
          "name": "",
          "type": "uint96"
        }
      ],
      "stateMutability": "view",
      "type": "function"
    },
    {
      "inputs": [],
      "name": "proofWindowDurationPerc",
      "outputs": [
        {
          "internalType": "uint8",
          "name": "",
          "type": "uint8"
        }
      ],
      "stateMutability": "view",
      "type": "function"
    },
    {
      "inputs": [],
      "name": "replacementWindowDurationPerc",
      "outputs": [
        {
          "internalType": "uint8",
          "name": "",
          "type": "uint8"
        }
      ],
      "stateMutability": "view",
      "type": "function"
    },
    {
      "inputs": [],
      "name": "rewardWithdrawalDelay",
      "outputs": [
        {
          "internalType": "uint24",
          "name": "",
          "type": "uint24"
        }
      ],
      "stateMutability": "view",
      "type": "function"
    },
    {
      "inputs": [],
      "name": "slashingFreezeDuration",
      "outputs": [
        {
          "internalType": "uint32",
          "name": "",
          "type": "uint32"
        }
      ],
      "stateMutability": "view",
      "type": "function"
    },
    {
      "inputs": [],
      "name": "stakeWithdrawalDelay",
      "outputs": [
        {
          "internalType": "uint24",
          "name": "",
          "type": "uint24"
        }
      ],
      "stateMutability": "view",
      "type": "function"
    },
    {
      "inputs": [
        {
          "internalType": "uint96",
          "name": "newMinimumStake",
          "type": "uint96"
        }
      ],
      "name": "setMinimumStake",
      "outputs": [],
      "stateMutability": "nonpayable",
      "type": "function"
    },
    {
      "inputs": [
        {
          "internalType": "uint48",
          "name": "newR2",
          "type": "uint48"
        }
      ],
      "name": "setR2",
      "outputs": [],
      "stateMutability": "nonpayable",
      "type": "function"
    },
    {
      "inputs": [
        {
          "internalType": "uint32",
          "name": "newR1",
          "type": "uint32"
        }
      ],
      "name": "setR1",
      "outputs": [],
      "stateMutability": "nonpayable",
      "type": "function"
    },
    {
      "inputs": [
        {
          "internalType": "uint32",
          "name": "newR0",
          "type": "uint32"
        }
      ],
      "name": "setR0",
      "outputs": [],
      "stateMutability": "nonpayable",
      "type": "function"
    },
    {
      "inputs": [
        {
          "internalType": "uint16",
          "name": "newCommitWindowDuration",
          "type": "uint16"
        }
      ],
      "name": "setCommitWindowDuration",
      "outputs": [],
      "stateMutability": "nonpayable",
      "type": "function"
    },
    {
      "inputs": [
        {
          "internalType": "uint8",
          "name": "newMinProofWindowOffsetPerc",
          "type": "uint8"
        }
      ],
      "name": "setMinProofWindowOffsetPerc",
      "outputs": [],
      "stateMutability": "nonpayable",
      "type": "function"
    },
    {
      "inputs": [
        {
          "internalType": "uint8",
          "name": "newMaxProofWindowOffsetPerc",
          "type": "uint8"
        }
      ],
      "name": "setMaxProofWindowOffsetPerc",
      "outputs": [],
      "stateMutability": "nonpayable",
      "type": "function"
    },
    {
      "inputs": [
        {
          "internalType": "uint8",
          "name": "newProofWindowDurationPerc",
          "type": "uint8"
        }
      ],
      "name": "setProofWindowDurationPerc",
      "outputs": [],
      "stateMutability": "nonpayable",
      "type": "function"
    },
    {
      "inputs": [
        {
          "internalType": "uint8",
          "name": "newReplacementWindowDurationPerc",
          "type": "uint8"
        }
      ],
      "name": "setReplacementWindowDurationPerc",
      "outputs": [],
      "stateMutability": "nonpayable",
      "type": "function"
    },
    {
      "inputs": [
        {
          "internalType": "uint128",
          "name": "newEpochLength",
          "type": "uint128"
        }
      ],
      "name": "setEpochLength",
      "outputs": [],
      "stateMutability": "nonpayable",
      "type": "function"
    },
    {
      "inputs": [
        {
          "internalType": "uint24",
          "name": "newStakeWithdrawalDelay",
          "type": "uint24"
        }
      ],
      "name": "setStakeWithdrawalDelay",
      "outputs": [],
      "stateMutability": "nonpayable",
      "type": "function"
    },
    {
      "inputs": [
        {
          "internalType": "uint24",
          "name": "newRewardWithdrawalDelay",
          "type": "uint24"
        }
      ],
      "name": "setRewardWithdrawalDelay",
      "outputs": [],
      "stateMutability": "nonpayable",
      "type": "function"
    },
    {
      "inputs": [
        {
          "internalType": "uint32",
          "name": "newSlashingFreezeDuration",
          "type": "uint32"
        }
      ],
      "name": "setSlashingFreezeDuration",
      "outputs": [],
      "stateMutability": "nonpayable",
      "type": "function"
    }
  ],
  "bytecode": "0x608060405234801561001057600080fd5b50604051610a33380380610a3383398101604081905261002f916100ae565b6001600160a01b03811661004257600080fd5b6001600160a01b0316662a5a058fc295ed60b61b176000557e194b3203840000000300000008000000000014000422ca8b0a00a425000000600155600280546001600160d01b0319167903c2670000012c00012c00000000000000000000000000000e101790556100de565b6000602082840312156100c057600080fd5b81516001600160a01b03811681146100d757600080fd5b9392505050565b610946806100ed6000396000f3fe608060405234801561001057600080fd5b50600436106101c45760003560e01c80639d3ceb0c116100f9578063d1287dba11610097578063f1b776f511610071578063f1b776f514610449578063fdf1afa21461045f578063fee2cb0514610472578063ff211743146104a257600080fd5b8063d1287dba146103f4578063e8d487ff14610407578063ec5ffac21461042f57600080fd5b8063b22dd2ca116100d3578063b22dd2ca1461038c578063b5c6b453146103a3578063b7f854fc146103ce578063cd3e290c146103e157600080fd5b80639d3ceb0c14610352578063a387120e14610366578063b13a8c071461037957600080fd5b80633de3fdf411610166578063862bc13111610140578063862bc131146103015780638d73d86a146103145780638e6262421461032b578063998d95dc1461033f57600080fd5b80633de3fdf41461029757806353971157146102c357806357d775f8146102d657600080fd5b8063175b07f8116101a2578063175b07f81461023357806319bd84dc1461024657806322a0d62914610259578063365a86fc1461026c57600080fd5b80630d8d840b146101c9578063108778f5146101de578063151db1b914610209575b600080fd5b6101dc6101d73660046107d4565b6104b6565b005b6001546101f290600160f81b900460ff1681565b60405160ff90911681526020015b60405180910390f35b60025461021f90600160801b900462ffffff1681565b60405162ffffff9091168152602001610200565b6101dc610241366004610804565b6104e9565b6101dc610254366004610804565b610517565b6101dc61026736600461082a565b610545565b60005461027f906001600160a01b031681565b6040516001600160a01b039091168152602001610200565b6002546102ae90600160b01b900463ffffffff1681565b60405163ffffffff9091168152602001610200565b6101dc6102d136600461084d565b61056d565b6002546102e9906001600160801b031681565b6040516001600160801b039091168152602001610200565b6101dc61030f36600461082a565b610599565b6001546102ae90600160b01b900463ffffffff1681565b6001546101f290600160e01b900460ff1681565b6101dc61034d366004610804565b6105c1565b6001546101f290600160f01b900460ff1681565b6101dc610374366004610872565b6105ef565b6101dc610387366004610896565b610619565b6001546102ae90600160901b900463ffffffff1681565b6001546103b6906001600160601b031681565b6040516001600160601b039091168152602001610200565b6101dc6103dc3660046108bf565b610649565b6101dc6103ef36600461082a565b61067b565b6101dc61040236600461084d565b6106a3565b60015461041c90600160d01b900461ffff1681565b60405161ffff9091168152602001610200565b6000546103b690600160a01b90046001600160601b031681565b60025461021f90600160981b900462ffffff1681565b6101dc61046d36600461082a565b6106cf565b60015461048b90600160601b900465ffffffffffff1681565b60405165ffffffffffff9091168152602001610200565b6001546101f290600160e81b900460ff1681565b6104be6106f9565b600280546fffffffffffffffffffffffffffffffff19166001600160801b0392909216919091179055565b6104f16106f9565b6001805463ffffffff909216600160b01b0263ffffffff60b01b19909216919091179055565b61051f6106f9565b6001805463ffffffff909216600160901b0263ffffffff60901b19909216919091179055565b61054d6106f9565b6001805460ff909216600160f01b0260ff60f01b19909216919091179055565b6105756106f9565b6002805462ffffff909216600160801b0262ffffff60801b19909216919091179055565b6105a16106f9565b6001805460ff909216600160e81b0260ff60e81b19909216919091179055565b6105c96106f9565b6002805463ffffffff909216600160b01b0263ffffffff60b01b19909216919091179055565b6105f76106f9565b6001805461ffff909216600160d01b0261ffff60d01b19909216919091179055565b6106216106f9565b600080546001600160601b03909216600160a01b026001600160a01b03909216919091179055565b6106516106f9565b6001805465ffffffffffff909216600160601b0265ffffffffffff60601b19909216919091179055565b6106836106f9565b6001805460ff909216600160e01b0260ff60e01b19909216919091179055565b6106ab6106f9565b6002805462ffffff909216600160981b0262ffffff60981b19909216919091179055565b6106d76106f9565b6001805460ff909216600160f81b026001600160f81b03909216919091179055565b60008054906101000a90046001600160a01b03166001600160a01b0316638da5cb5b6040518163ffffffff1660e01b8152600401602060405180830381865afa15801561074a573d6000803e3d6000fd5b505050506040513d601f19601f8201168201806040525081019061076e91906108e7565b6001600160a01b0316336001600160a01b0316146107d25760405162461bcd60e51b815260206004820181905260248201527f466e2063616e206f6e6c79206265207573656420627920687562206f776e6572604482015260640160405180910390fd5b565b6000602082840312156107e657600080fd5b81356001600160801b03811681146107fd57600080fd5b9392505050565b60006020828403121561081657600080fd5b813563ffffffff811681146107fd57600080fd5b60006020828403121561083c57600080fd5b813560ff811681146107fd57600080fd5b60006020828403121561085f57600080fd5b813562ffffff811681146107fd57600080fd5b60006020828403121561088457600080fd5b813561ffff811681146107fd57600080fd5b6000602082840312156108a857600080fd5b81356001600160601b03811681146107fd57600080fd5b6000602082840312156108d157600080fd5b813565ffffffffffff811681146107fd57600080fd5b6000602082840312156108f957600080fd5b81516001600160a01b03811681146107fd57600080fdfea26469706673582212209c260914694c1b2973ee80e9d3d77bba8846d0e22c6fa4d4a437518f8995d81164736f6c63430008100033",
  "immutableReferences": {},
  "source": "// SPDX-License-Identifier: MIT\n\npragma solidity ^0.8.4;\n\nimport { Hub } from \"../Hub.sol\";\n\ncontract ParametersStorage {\n\n    Hub public hub;\n\n    uint96 public minimumStake;\n    uint96 public maximumStake;\n\n    uint48 public R2;\n    uint32 public R1;\n    uint32 public R0;\n\n    uint16 public commitWindowDuration;\n    uint8 public minProofWindowOffsetPerc;\n    uint8 public maxProofWindowOffsetPerc;\n    uint8 public proofWindowDurationPerc;\n    uint8 public replacementWindowDurationPerc;\n\n    uint128 public epochLength;\n\n    uint24 public stakeWithdrawalDelay;\n    uint24 public rewardWithdrawalDelay;\n    uint32 public slashingFreezeDuration;\n\n    constructor(address hubAddress) {\n        require(hubAddress != address(0));\n\n        hub = Hub(hubAddress);\n\n        minimumStake = 50_000 ether;\n        maximumStake = 5_000_000 ether;\n\n        R2 = 20;\n        R1 = 8;\n        R0 = 3;\n\n        commitWindowDuration = 15 minutes;\n        minProofWindowOffsetPerc = 50;\n        maxProofWindowOffsetPerc = 75;\n        proofWindowDurationPerc = 25;\n        replacementWindowDurationPerc = 0;\n\n        epochLength = 1 hours;\n\n        stakeWithdrawalDelay = 5 minutes;\n        rewardWithdrawalDelay = 5 minutes;\n        slashingFreezeDuration = 730 days;\n    }\n\n    modifier onlyHubOwner() {\n        _checkHubOwner();\n        _;\n    }\n\n    function setMinimumStake(uint96 newMinimumStake) external onlyHubOwner {\n        minimumStake = newMinimumStake;\n    }\n\n    function setR2(uint48 newR2) external onlyHubOwner {\n        R2 = newR2;\n    }\n\n    function setR1(uint32 newR1) external onlyHubOwner {\n        R1 = newR1;\n    }\n\n    function setR0(uint32 newR0) external onlyHubOwner {\n        R0 = newR0;\n    }\n\n    function setCommitWindowDuration(uint16 newCommitWindowDuration) external onlyHubOwner {\n        commitWindowDuration = newCommitWindowDuration;\n    }\n\n    function setMinProofWindowOffsetPerc(uint8 newMinProofWindowOffsetPerc) external onlyHubOwner {\n        minProofWindowOffsetPerc = newMinProofWindowOffsetPerc;\n    }\n\n    function setMaxProofWindowOffsetPerc(uint8 newMaxProofWindowOffsetPerc) external onlyHubOwner {\n        maxProofWindowOffsetPerc = newMaxProofWindowOffsetPerc;\n    }\n\n    function setProofWindowDurationPerc(uint8 newProofWindowDurationPerc) external onlyHubOwner {\n        proofWindowDurationPerc = newProofWindowDurationPerc;\n    }\n\n    function setReplacementWindowDurationPerc(uint8 newReplacementWindowDurationPerc) external onlyHubOwner {\n        replacementWindowDurationPerc = newReplacementWindowDurationPerc;\n    }\n\n    function setEpochLength(uint128 newEpochLength) external onlyHubOwner {\n        epochLength = newEpochLength;\n    }\n\n    function setStakeWithdrawalDelay(uint24 newStakeWithdrawalDelay) external onlyHubOwner {\n        stakeWithdrawalDelay = newStakeWithdrawalDelay;\n    }\n\n    function setRewardWithdrawalDelay(uint24 newRewardWithdrawalDelay) external onlyHubOwner {\n        rewardWithdrawalDelay = newRewardWithdrawalDelay;\n    }\n\n    function setSlashingFreezeDuration(uint32 newSlashingFreezeDuration) external onlyHubOwner {\n        slashingFreezeDuration = newSlashingFreezeDuration;\n    }\n\n    function _checkHubOwner() internal view virtual {\n        require(msg.sender == hub.owner(), \"Fn can only be used by hub owner\");\n    }\n\n}\n",
  "sourcePath": "/Users/waving/Desktop/OriginTrail/dkg-evm-module/contracts/storage/ParametersStorage.sol",
  "compiler": {
    "name": "solc",
    "version": "0.8.16+commit.07a7930e.Emscripten.clang"
  },
  "schemaVersion": "3.4.10",
  "updatedAt": "2022-12-08T16:40:13.611Z",
  "devdoc": {
    "kind": "dev",
    "methods": {},
    "version": 1
  },
  "userdoc": {
    "kind": "user",
    "methods": {},
    "version": 1
  }
}