{
  "contractName": "ParametersStorage",
  "abi": [
    {
      "inputs": [
        {
          "internalType": "address",
          "name": "hubAddress",
          "type": "address"
        }
      ],
      "stateMutability": "nonpayable",
      "type": "constructor"
    },
    {
      "inputs": [],
      "name": "commitWindowDuration",
      "outputs": [
        {
          "internalType": "uint16",
          "name": "",
          "type": "uint16"
        }
      ],
      "stateMutability": "view",
      "type": "function"
    },
    {
      "inputs": [],
      "name": "epochLength",
      "outputs": [
        {
          "internalType": "uint128",
          "name": "",
          "type": "uint128"
        }
      ],
      "stateMutability": "view",
      "type": "function"
    },
    {
      "inputs": [],
      "name": "hub",
      "outputs": [
        {
          "internalType": "contract Hub",
          "name": "",
          "type": "address"
        }
      ],
      "stateMutability": "view",
      "type": "function"
    },
    {
      "inputs": [],
      "name": "maxProofWindowOffsetPerc",
      "outputs": [
        {
          "internalType": "uint8",
          "name": "",
          "type": "uint8"
        }
      ],
      "stateMutability": "view",
      "type": "function"
    },
    {
      "inputs": [],
      "name": "maximumStake",
      "outputs": [
        {
          "internalType": "uint96",
          "name": "",
          "type": "uint96"
        }
      ],
      "stateMutability": "view",
      "type": "function"
    },
    {
      "inputs": [],
      "name": "minProofWindowOffsetPerc",
      "outputs": [
        {
          "internalType": "uint8",
          "name": "",
          "type": "uint8"
        }
      ],
      "stateMutability": "view",
      "type": "function"
    },
    {
      "inputs": [],
      "name": "minimumStake",
      "outputs": [
        {
          "internalType": "uint96",
          "name": "",
          "type": "uint96"
        }
      ],
      "stateMutability": "view",
      "type": "function"
    },
    {
      "inputs": [],
      "name": "proofWindowDurationPerc",
      "outputs": [
        {
          "internalType": "uint8",
          "name": "",
          "type": "uint8"
        }
      ],
      "stateMutability": "view",
      "type": "function"
    },
    {
      "inputs": [],
      "name": "r0",
      "outputs": [
        {
          "internalType": "uint32",
          "name": "",
          "type": "uint32"
        }
      ],
      "stateMutability": "view",
      "type": "function"
    },
    {
      "inputs": [],
      "name": "r1",
      "outputs": [
        {
          "internalType": "uint32",
          "name": "",
          "type": "uint32"
        }
      ],
      "stateMutability": "view",
      "type": "function"
    },
    {
      "inputs": [],
      "name": "r2",
      "outputs": [
        {
          "internalType": "uint48",
          "name": "",
          "type": "uint48"
        }
      ],
      "stateMutability": "view",
      "type": "function"
    },
    {
      "inputs": [],
      "name": "replacementWindowDurationPerc",
      "outputs": [
        {
          "internalType": "uint8",
          "name": "",
          "type": "uint8"
        }
      ],
      "stateMutability": "view",
      "type": "function"
    },
    {
      "inputs": [],
      "name": "rewardWithdrawalDelay",
      "outputs": [
        {
          "internalType": "uint24",
          "name": "",
          "type": "uint24"
        }
      ],
      "stateMutability": "view",
      "type": "function"
    },
    {
      "inputs": [],
      "name": "slashingFreezeDuration",
      "outputs": [
        {
          "internalType": "uint32",
          "name": "",
          "type": "uint32"
        }
      ],
      "stateMutability": "view",
      "type": "function"
    },
    {
      "inputs": [],
      "name": "stakeWithdrawalDelay",
      "outputs": [
        {
          "internalType": "uint24",
          "name": "",
          "type": "uint24"
        }
      ],
      "stateMutability": "view",
      "type": "function"
    },
    {
      "inputs": [
        {
          "internalType": "uint96",
          "name": "newMinimumStake",
          "type": "uint96"
        }
      ],
      "name": "setMinimumStake",
      "outputs": [],
      "stateMutability": "nonpayable",
      "type": "function"
    },
    {
      "inputs": [
        {
          "internalType": "uint48",
          "name": "newR2",
          "type": "uint48"
        }
      ],
      "name": "setR2",
      "outputs": [],
      "stateMutability": "nonpayable",
      "type": "function"
    },
    {
      "inputs": [
        {
          "internalType": "uint32",
          "name": "newR1",
          "type": "uint32"
        }
      ],
      "name": "setR1",
      "outputs": [],
      "stateMutability": "nonpayable",
      "type": "function"
    },
    {
      "inputs": [
        {
          "internalType": "uint32",
          "name": "newR0",
          "type": "uint32"
        }
      ],
      "name": "setR0",
      "outputs": [],
      "stateMutability": "nonpayable",
      "type": "function"
    },
    {
      "inputs": [
        {
          "internalType": "uint16",
          "name": "newCommitWindowDuration",
          "type": "uint16"
        }
      ],
      "name": "setCommitWindowDuration",
      "outputs": [],
      "stateMutability": "nonpayable",
      "type": "function"
    },
    {
      "inputs": [
        {
          "internalType": "uint8",
          "name": "newMinProofWindowOffsetPerc",
          "type": "uint8"
        }
      ],
      "name": "setMinProofWindowOffsetPerc",
      "outputs": [],
      "stateMutability": "nonpayable",
      "type": "function"
    },
    {
      "inputs": [
        {
          "internalType": "uint8",
          "name": "newMaxProofWindowOffsetPerc",
          "type": "uint8"
        }
      ],
      "name": "setMaxProofWindowOffsetPerc",
      "outputs": [],
      "stateMutability": "nonpayable",
      "type": "function"
    },
    {
      "inputs": [
        {
          "internalType": "uint8",
          "name": "newProofWindowDurationPerc",
          "type": "uint8"
        }
      ],
      "name": "setProofWindowDurationPerc",
      "outputs": [],
      "stateMutability": "nonpayable",
      "type": "function"
    },
    {
      "inputs": [
        {
          "internalType": "uint8",
          "name": "newReplacementWindowDurationPerc",
          "type": "uint8"
        }
      ],
      "name": "setReplacementWindowDurationPerc",
      "outputs": [],
      "stateMutability": "nonpayable",
      "type": "function"
    },
    {
      "inputs": [
        {
          "internalType": "uint128",
          "name": "newEpochLength",
          "type": "uint128"
        }
      ],
      "name": "setEpochLength",
      "outputs": [],
      "stateMutability": "nonpayable",
      "type": "function"
    },
    {
      "inputs": [
        {
          "internalType": "uint24",
          "name": "newStakeWithdrawalDelay",
          "type": "uint24"
        }
      ],
      "name": "setStakeWithdrawalDelay",
      "outputs": [],
      "stateMutability": "nonpayable",
      "type": "function"
    },
    {
      "inputs": [
        {
          "internalType": "uint24",
          "name": "newRewardWithdrawalDelay",
          "type": "uint24"
        }
      ],
      "name": "setRewardWithdrawalDelay",
      "outputs": [],
      "stateMutability": "nonpayable",
      "type": "function"
    },
    {
      "inputs": [
        {
          "internalType": "uint32",
          "name": "newSlashingFreezeDuration",
          "type": "uint32"
        }
      ],
      "name": "setSlashingFreezeDuration",
      "outputs": [],
      "stateMutability": "nonpayable",
      "type": "function"
    }
  ],
  "bytecode": "0x60803461010957601f6109cc38819003918201601f19168301916001600160401b0383118484101761010e5780849260209460405283398101031261010957516001600160a01b038116908190036101095780156100c457662a5a058fc295ed60b61b176000557e194b3203840000000300000008000000000014000422ca8b0a00a425000000600155600280546001600160d01b0319167903c2670000012c00012c00000000000000000000000000000e101790556040516108a790816101258239f35b60405162461bcd60e51b815260206004820152601960248201527f48756220416464726573732063616e6e6f7420626520307830000000000000006044820152606490fd5b600080fd5b634e487b7160e01b600052604160045260246000fdfe608060408181526004918236101561001657600080fd5b600092833560e01c9182630bcbbd211461074d575081630d8d840b1461070c578163108778f5146106ea578163151db1b9146106c3578163175b07f81461067457816319bd84dc1461062557816322a0d629146105df578163365a86fc146105b75781633de3fdf41461058f578163539711571461054357816357d775f81461051b578163659621b5146104f35781636ca5b5b0146104cb578163862bc131146104855781638e62624214610460578163998d95dc146104115781639d3ceb0c146103ec578163a387120e146103a3578163b13a8c0714610351578163b5c6b45314610324578163b7f854fc146102cf578163cd3e290c14610289578163d1287dba1461023d578163e8d487ff14610217578163ec5ffac2146101f7578163f1b776f5146101d0578163fdf1afa214610180575063ff2117431461015957600080fd5b3461017c578160031936011261017c5760209060ff60015460e81c169051908152f35b5080fd5b9050346101cc5760203660031901126101cc573560ff811681036101cc576101a6610774565b600180546001600160f81b031660f89290921b6001600160f81b03191691909117905551f35b8280fd5b50503461017c578160031936011261017c5760209062ffffff60025460981c169051908152f35b50503461017c578160031936011261017c576020915460a01c9051908152f35b50503461017c578160031936011261017c5760209061ffff60015460d01c169051908152f35b9050346101cc5760203660031901126101cc573562ffffff811681036101cc57610265610774565b6002805462ffffff60981b191660989290921b62ffffff60981b1691909117905551f35b9050346101cc5760203660031901126101cc573560ff811681036101cc576102af610774565b6001805460ff60e01b191660e09290921b60ff60e01b1691909117905551f35b9050346101cc5760203660031901126101cc573565ffffffffffff811681036101cc576102fa610774565b6001805465ffffffffffff60601b191660609290921b65ffffffffffff60601b1691909117905551f35b50503461017c578160031936011261017c576020906bffffffffffffffffffffffff600154169051908152f35b9050346101cc5760203660031901126101cc57356bffffffffffffffffffffffff811681036101cc57610382610774565b82546001600160a01b031660a09190911b6001600160a01b03191617825551f35b9050346101cc5760203660031901126101cc573561ffff811681036101cc576103ca610774565b6001805461ffff60d01b191660d09290921b61ffff60d01b1691909117905551f35b50503461017c578160031936011261017c5760209060ff60015460f01c169051908152f35b9050346101cc5760203660031901126101cc573563ffffffff811681036101cc5761043a610774565b6002805463ffffffff60b01b191660b09290921b63ffffffff60b01b1691909117905551f35b50503461017c578160031936011261017c5760209060ff60015460e01c169051908152f35b9050346101cc5760203660031901126101cc573560ff811681036101cc576104ab610774565b6001805460ff60e81b191660e89290921b60ff60e81b1691909117905551f35b50503461017c578160031936011261017c5760209063ffffffff60015460901c169051908152f35b50503461017c578160031936011261017c5760209063ffffffff60015460b01c169051908152f35b50503461017c578160031936011261017c576020906001600160801b03600254169051908152f35b9050346101cc5760203660031901126101cc573562ffffff811681036101cc5761056b610774565b6002805462ffffff60801b191660809290921b62ffffff60801b1691909117905551f35b50503461017c578160031936011261017c5760209063ffffffff60025460b01c169051908152f35b50503461017c578160031936011261017c57905490516001600160a01b039091168152602090f35b9050346101cc5760203660031901126101cc573560ff811681036101cc57610605610774565b6001805460ff60f01b191660f09290921b60ff60f01b1691909117905551f35b9050346101cc5760203660031901126101cc573563ffffffff811681036101cc5761064e610774565b6001805463ffffffff60901b191660909290921b63ffffffff60901b1691909117905551f35b9050346101cc5760203660031901126101cc573563ffffffff811681036101cc5761069d610774565b6001805463ffffffff60b01b191660b09290921b63ffffffff60b01b1691909117905551f35b50503461017c578160031936011261017c5760209062ffffff60025460801c169051908152f35b50503461017c578160031936011261017c5760209060015460f81c9051908152f35b9050346101cc5760203660031901126101cc57356001600160801b0381168091036101cc57610739610774565b6001600160801b0319600254161760025551f35b84903461017c578160031936011261017c5760209065ffffffffffff60015460601c168152f35b60008054604051638da5cb5b60e01b81526020926001600160a01b039284908390600490829087165afa9182156108645781926107fb575b50501633036107b85750565b6064906040519062461bcd60e51b825280600483015260248201527f466e2063616e206f6e6c79206265207573656420627920687562206f776e65726044820152fd5b909150833d851161085d575b601f8101601f1916820167ffffffffffffffff81118382101761084957859183916040528101031261017c5751908282168203610846575038806107ac565b80fd5b634e487b7160e01b84526041600452602484fd5b503d610807565b50604051903d90823e3d90fdfea2646970667358221220a5c08c5f9a735e1bf7708519970d4779eaec4fbff491df105731c312e3061ba764736f6c63430008100033",
  "immutableReferences": {},
  "source": "// SPDX-License-Identifier: MIT\n\npragma solidity ^0.8.4;\n\nimport {Hub} from \"../Hub.sol\";\n\ncontract ParametersStorage {\n    Hub public hub;\n\n    uint96 public minimumStake;\n    uint96 public maximumStake;\n\n    uint48 public r2;\n    uint32 public r1;\n    uint32 public r0;\n\n    uint16 public commitWindowDuration;\n    uint8 public minProofWindowOffsetPerc;\n    uint8 public maxProofWindowOffsetPerc;\n    uint8 public proofWindowDurationPerc;\n    uint8 public replacementWindowDurationPerc;\n\n    uint128 public epochLength;\n\n    uint24 public stakeWithdrawalDelay;\n    uint24 public rewardWithdrawalDelay;\n    uint32 public slashingFreezeDuration;\n\n    constructor(address hubAddress) {\n        require(hubAddress != address(0), \"Hub Address cannot be 0x0\");\n\n        hub = Hub(hubAddress);\n\n        minimumStake = 50_000 ether;\n        maximumStake = 5_000_000 ether;\n\n        r2 = 20;\n        r1 = 8;\n        r0 = 3;\n\n        commitWindowDuration = 15 minutes;\n        minProofWindowOffsetPerc = 50;\n        maxProofWindowOffsetPerc = 75;\n        proofWindowDurationPerc = 25;\n        replacementWindowDurationPerc = 0;\n\n        epochLength = 1 hours;\n\n        stakeWithdrawalDelay = 5 minutes;\n        rewardWithdrawalDelay = 5 minutes;\n        slashingFreezeDuration = 730 days;\n    }\n\n    modifier onlyHubOwner() {\n        _checkHubOwner();\n        _;\n    }\n\n    function setMinimumStake(uint96 newMinimumStake) external onlyHubOwner {\n        minimumStake = newMinimumStake;\n    }\n\n    function setR2(uint48 newR2) external onlyHubOwner {\n        r2 = newR2;\n    }\n\n    function setR1(uint32 newR1) external onlyHubOwner {\n        r1 = newR1;\n    }\n\n    function setR0(uint32 newR0) external onlyHubOwner {\n        r0 = newR0;\n    }\n\n    function setCommitWindowDuration(uint16 newCommitWindowDuration) external onlyHubOwner {\n        commitWindowDuration = newCommitWindowDuration;\n    }\n\n    function setMinProofWindowOffsetPerc(uint8 newMinProofWindowOffsetPerc) external onlyHubOwner {\n        minProofWindowOffsetPerc = newMinProofWindowOffsetPerc;\n    }\n\n    function setMaxProofWindowOffsetPerc(uint8 newMaxProofWindowOffsetPerc) external onlyHubOwner {\n        maxProofWindowOffsetPerc = newMaxProofWindowOffsetPerc;\n    }\n\n    function setProofWindowDurationPerc(uint8 newProofWindowDurationPerc) external onlyHubOwner {\n        proofWindowDurationPerc = newProofWindowDurationPerc;\n    }\n\n    function setReplacementWindowDurationPerc(uint8 newReplacementWindowDurationPerc) external onlyHubOwner {\n        replacementWindowDurationPerc = newReplacementWindowDurationPerc;\n    }\n\n    function setEpochLength(uint128 newEpochLength) external onlyHubOwner {\n        epochLength = newEpochLength;\n    }\n\n    function setStakeWithdrawalDelay(uint24 newStakeWithdrawalDelay) external onlyHubOwner {\n        stakeWithdrawalDelay = newStakeWithdrawalDelay;\n    }\n\n    function setRewardWithdrawalDelay(uint24 newRewardWithdrawalDelay) external onlyHubOwner {\n        rewardWithdrawalDelay = newRewardWithdrawalDelay;\n    }\n\n    function setSlashingFreezeDuration(uint32 newSlashingFreezeDuration) external onlyHubOwner {\n        slashingFreezeDuration = newSlashingFreezeDuration;\n    }\n\n    function _checkHubOwner() internal view virtual {\n        require(msg.sender == hub.owner(), \"Fn can only be used by hub owner\");\n    }\n}\n",
  "sourcePath": "/Users/waving/Desktop/OriginTrail/dkg-evm-module/contracts/storage/ParametersStorage.sol",
  "compiler": {
    "name": "solc",
    "version": "0.8.16+commit.07a7930e.Emscripten.clang"
  },
  "schemaVersion": "3.4.10",
  "updatedAt": "2022-12-12T12:30:10.750Z",
  "devdoc": {
    "kind": "dev",
    "methods": {},
    "version": 1
  },
  "userdoc": {
    "kind": "user",
    "methods": {},
    "version": 1
  }
}