{
  "contractName": "ParametersStorage",
  "abi": [
    {
      "inputs": [],
      "stateMutability": "nonpayable",
      "type": "constructor"
    },
    {
      "anonymous": false,
      "inputs": [
        {
          "indexed": true,
          "internalType": "address",
          "name": "previousOwner",
          "type": "address"
        },
        {
          "indexed": true,
          "internalType": "address",
          "name": "newOwner",
          "type": "address"
        }
      ],
      "name": "OwnershipTransferred",
      "type": "event"
    },
    {
      "inputs": [],
      "name": "R0",
      "outputs": [
        {
          "internalType": "uint32",
          "name": "",
          "type": "uint32"
        }
      ],
      "stateMutability": "view",
      "type": "function"
    },
    {
      "inputs": [],
      "name": "R1",
      "outputs": [
        {
          "internalType": "uint32",
          "name": "",
          "type": "uint32"
        }
      ],
      "stateMutability": "view",
      "type": "function"
    },
    {
      "inputs": [],
      "name": "R2",
      "outputs": [
        {
          "internalType": "uint48",
          "name": "",
          "type": "uint48"
        }
      ],
      "stateMutability": "view",
      "type": "function"
    },
    {
      "inputs": [],
      "name": "commitWindowDuration",
      "outputs": [
        {
          "internalType": "uint16",
          "name": "",
          "type": "uint16"
        }
      ],
      "stateMutability": "view",
      "type": "function"
    },
    {
      "inputs": [],
      "name": "epochLength",
      "outputs": [
        {
          "internalType": "uint128",
          "name": "",
          "type": "uint128"
        }
      ],
      "stateMutability": "view",
      "type": "function"
    },
    {
      "inputs": [],
      "name": "maxProofWindowOffsetPerc",
      "outputs": [
        {
          "internalType": "uint8",
          "name": "",
          "type": "uint8"
        }
      ],
      "stateMutability": "view",
      "type": "function"
    },
    {
      "inputs": [],
      "name": "minProofWindowOffsetPerc",
      "outputs": [
        {
          "internalType": "uint8",
          "name": "",
          "type": "uint8"
        }
      ],
      "stateMutability": "view",
      "type": "function"
    },
    {
      "inputs": [],
      "name": "minimalStake",
      "outputs": [
        {
          "internalType": "uint96",
          "name": "",
          "type": "uint96"
        }
      ],
      "stateMutability": "view",
      "type": "function"
    },
    {
      "inputs": [],
      "name": "owner",
      "outputs": [
        {
          "internalType": "address",
          "name": "",
          "type": "address"
        }
      ],
      "stateMutability": "view",
      "type": "function"
    },
    {
      "inputs": [],
      "name": "proofWindowDurationPerc",
      "outputs": [
        {
          "internalType": "uint8",
          "name": "",
          "type": "uint8"
        }
      ],
      "stateMutability": "view",
      "type": "function"
    },
    {
      "inputs": [],
      "name": "renounceOwnership",
      "outputs": [],
      "stateMutability": "nonpayable",
      "type": "function"
    },
    {
      "inputs": [],
      "name": "replacementWindowDurationPerc",
      "outputs": [
        {
          "internalType": "uint8",
          "name": "",
          "type": "uint8"
        }
      ],
      "stateMutability": "view",
      "type": "function"
    },
    {
      "inputs": [],
      "name": "rewardWithdrawalDelay",
      "outputs": [
        {
          "internalType": "uint24",
          "name": "",
          "type": "uint24"
        }
      ],
      "stateMutability": "view",
      "type": "function"
    },
    {
      "inputs": [],
      "name": "slashingFreezeDuration",
      "outputs": [
        {
          "internalType": "uint32",
          "name": "",
          "type": "uint32"
        }
      ],
      "stateMutability": "view",
      "type": "function"
    },
    {
      "inputs": [],
      "name": "stakeWithdrawalDelay",
      "outputs": [
        {
          "internalType": "uint24",
          "name": "",
          "type": "uint24"
        }
      ],
      "stateMutability": "view",
      "type": "function"
    },
    {
      "inputs": [
        {
          "internalType": "address",
          "name": "newOwner",
          "type": "address"
        }
      ],
      "name": "transferOwnership",
      "outputs": [],
      "stateMutability": "nonpayable",
      "type": "function"
    },
    {
      "inputs": [
        {
          "internalType": "uint96",
          "name": "newMinimalStake",
          "type": "uint96"
        }
      ],
      "name": "setMinimalStake",
      "outputs": [],
      "stateMutability": "nonpayable",
      "type": "function"
    },
    {
      "inputs": [
        {
          "internalType": "uint48",
          "name": "newR2",
          "type": "uint48"
        }
      ],
      "name": "setR2",
      "outputs": [],
      "stateMutability": "nonpayable",
      "type": "function"
    },
    {
      "inputs": [
        {
          "internalType": "uint32",
          "name": "newR1",
          "type": "uint32"
        }
      ],
      "name": "setR1",
      "outputs": [],
      "stateMutability": "nonpayable",
      "type": "function"
    },
    {
      "inputs": [
        {
          "internalType": "uint32",
          "name": "newR0",
          "type": "uint32"
        }
      ],
      "name": "setR0",
      "outputs": [],
      "stateMutability": "nonpayable",
      "type": "function"
    },
    {
      "inputs": [
        {
          "internalType": "uint16",
          "name": "newCommitWindowDuration",
          "type": "uint16"
        }
      ],
      "name": "setCommitWindowDuration",
      "outputs": [],
      "stateMutability": "nonpayable",
      "type": "function"
    },
    {
      "inputs": [
        {
          "internalType": "uint8",
          "name": "newMinProofWindowOffsetPerc",
          "type": "uint8"
        }
      ],
      "name": "setMinProofWindowOffsetPerc",
      "outputs": [],
      "stateMutability": "nonpayable",
      "type": "function"
    },
    {
      "inputs": [
        {
          "internalType": "uint8",
          "name": "newMaxProofWindowOffsetPerc",
          "type": "uint8"
        }
      ],
      "name": "setMaxProofWindowOffsetPerc",
      "outputs": [],
      "stateMutability": "nonpayable",
      "type": "function"
    },
    {
      "inputs": [
        {
          "internalType": "uint8",
          "name": "newProofWindowDurationPerc",
          "type": "uint8"
        }
      ],
      "name": "setProofWindowDurationPerc",
      "outputs": [],
      "stateMutability": "nonpayable",
      "type": "function"
    },
    {
      "inputs": [
        {
          "internalType": "uint8",
          "name": "newReplacementWindowDurationPerc",
          "type": "uint8"
        }
      ],
      "name": "setReplacementWindowDurationPerc",
      "outputs": [],
      "stateMutability": "nonpayable",
      "type": "function"
    },
    {
      "inputs": [
        {
          "internalType": "uint128",
          "name": "newEpochLength",
          "type": "uint128"
        }
      ],
      "name": "setEpochLength",
      "outputs": [],
      "stateMutability": "nonpayable",
      "type": "function"
    },
    {
      "inputs": [
        {
          "internalType": "uint24",
          "name": "newStakeWithdrawalDelay",
          "type": "uint24"
        }
      ],
      "name": "setStakeWithdrawalDelay",
      "outputs": [],
      "stateMutability": "nonpayable",
      "type": "function"
    },
    {
      "inputs": [
        {
          "internalType": "uint24",
          "name": "newRewardWithdrawalDelay",
          "type": "uint24"
        }
      ],
      "name": "setRewardWithdrawalDelay",
      "outputs": [],
      "stateMutability": "nonpayable",
      "type": "function"
    },
    {
      "inputs": [
        {
          "internalType": "uint32",
          "name": "newSlashingFreezeDuration",
          "type": "uint32"
        }
      ],
      "name": "setSlashingFreezeDuration",
      "outputs": [],
      "stateMutability": "nonpayable",
      "type": "function"
    }
  ],
  "bytecode": "0x608060405234801561001057600080fd5b5061002d61002261020960201b60201c565b61021160201b60201c565b690a968163f0a57b400000600060146101000a8154816bffffffffffffffffffffffff02191690836bffffffffffffffffffffffff1602179055506014600160006101000a81548165ffffffffffff021916908365ffffffffffff1602179055506008600160066101000a81548163ffffffff021916908363ffffffff16021790555060036001600a6101000a81548163ffffffff021916908363ffffffff1602179055506103846001600e6101000a81548161ffff021916908361ffff160217905550605a600160106101000a81548160ff021916908360ff1602179055506062600160116101000a81548160ff021916908360ff16021790555060018060126101000a81548160ff021916908360ff16021790555060018060136101000a81548160ff021916908360ff16021790555062278d00600260006101000a8154816fffffffffffffffffffffffffffffffff02191690836fffffffffffffffffffffffffffffffff1602179055506224ea00600260106101000a81548162ffffff021916908362ffffff160217905550621baf80600260136101000a81548162ffffff021916908362ffffff1602179055506303c26700600260166101000a81548163ffffffff021916908363ffffffff1602179055506102d5565b600033905090565b60008060009054906101000a900473ffffffffffffffffffffffffffffffffffffffff169050816000806101000a81548173ffffffffffffffffffffffffffffffffffffffff021916908373ffffffffffffffffffffffffffffffffffffffff1602179055508173ffffffffffffffffffffffffffffffffffffffff168173ffffffffffffffffffffffffffffffffffffffff167f8be0079c531659141344cd1fd0a4f28419497f9722a3daafe3b4186f6b6457e060405160405180910390a35050565b611094806102e46000396000f3fe608060405234801561001057600080fd5b50600436106101cf5760003560e01c8063998d95dc11610104578063d1287dba116100a2578063f2fde38b11610071578063f2fde38b14610496578063fdf1afa2146104b2578063fee2cb05146104ce578063ff211743146104ec576101cf565b8063d1287dba14610422578063d2dbeada1461043e578063e8d487ff1461045a578063f1b776f514610478576101cf565b8063a387120e116100de578063a387120e146103b0578063b22dd2ca146103cc578063b7f854fc146103ea578063cd3e290c14610406576101cf565b8063998d95dc146103585780639d3ceb0c146103745780639ec41a2d14610392576101cf565b80635397115711610171578063862bc1311161014b578063862bc131146102e25780638d73d86a146102fe5780638da5cb5b1461031c5780638e6262421461033a576101cf565b8063539711571461029e57806357d775f8146102ba578063715018a6146102d8576101cf565b8063175b07f8116101ad578063175b07f81461022c57806319bd84dc1461024857806322a0d629146102645780633de3fdf414610280576101cf565b80630d8d840b146101d4578063108778f5146101f0578063151db1b91461020e575b600080fd5b6101ee60048036038101906101e99190610acd565b61050a565b005b6101f861054e565b6040516102059190610b16565b60405180910390f35b610216610561565b6040516102239190610b4f565b60405180910390f35b61024660048036038101906102419190610ba6565b610576565b005b610262600480360381019061025d9190610ba6565b6105a2565b005b61027e60048036038101906102799190610bff565b6105ce565b005b6102886105f4565b6040516102959190610c3b565b60405180910390f35b6102b860048036038101906102b39190610c82565b61060a565b005b6102c2610634565b6040516102cf9190610cbe565b60405180910390f35b6102e0610656565b005b6102fc60048036038101906102f79190610bff565b61066a565b005b610306610690565b6040516103139190610c3b565b60405180910390f35b6103246106a6565b6040516103319190610d1a565b60405180910390f35b6103426106cf565b60405161034f9190610b16565b60405180910390f35b610372600480360381019061036d9190610ba6565b6106e2565b005b61037c61070e565b6040516103899190610b16565b60405180910390f35b61039a610721565b6040516103a79190610d5c565b60405180910390f35b6103ca60048036038101906103c59190610db1565b61073f565b005b6103d4610767565b6040516103e19190610c3b565b60405180910390f35b61040460048036038101906103ff9190610e1c565b61077d565b005b610420600480360381019061041b9190610bff565b6107ad565b005b61043c60048036038101906104379190610c82565b6107d3565b005b61045860048036038101906104539190610e75565b6107fd565b005b610462610839565b60405161046f9190610eb1565b60405180910390f35b61048061084d565b60405161048d9190610b4f565b60405180910390f35b6104b060048036038101906104ab9190610ef8565b610862565b005b6104cc60048036038101906104c79190610bff565b6108e5565b005b6104d661090b565b6040516104e39190610f34565b60405180910390f35b6104f4610923565b6040516105019190610b16565b60405180910390f35b610512610936565b80600260006101000a8154816fffffffffffffffffffffffffffffffff02191690836fffffffffffffffffffffffffffffffff16021790555050565b600160139054906101000a900460ff1681565b600260109054906101000a900462ffffff1681565b61057e610936565b806001600a6101000a81548163ffffffff021916908363ffffffff16021790555050565b6105aa610936565b80600160066101000a81548163ffffffff021916908363ffffffff16021790555050565b6105d6610936565b80600160126101000a81548160ff021916908360ff16021790555050565b600260169054906101000a900463ffffffff1681565b610612610936565b80600260106101000a81548162ffffff021916908362ffffff16021790555050565b600260009054906101000a90046fffffffffffffffffffffffffffffffff1681565b61065e610936565b61066860006109b4565b565b610672610936565b80600160116101000a81548160ff021916908360ff16021790555050565b6001600a9054906101000a900463ffffffff1681565b60008060009054906101000a900473ffffffffffffffffffffffffffffffffffffffff16905090565b600160109054906101000a900460ff1681565b6106ea610936565b80600260166101000a81548163ffffffff021916908363ffffffff16021790555050565b600160129054906101000a900460ff1681565b600060149054906101000a90046bffffffffffffffffffffffff1681565b610747610936565b806001600e6101000a81548161ffff021916908361ffff16021790555050565b600160069054906101000a900463ffffffff1681565b610785610936565b80600160006101000a81548165ffffffffffff021916908365ffffffffffff16021790555050565b6107b5610936565b80600160106101000a81548160ff021916908360ff16021790555050565b6107db610936565b80600260136101000a81548162ffffff021916908362ffffff16021790555050565b610805610936565b80600060146101000a8154816bffffffffffffffffffffffff02191690836bffffffffffffffffffffffff16021790555050565b6001600e9054906101000a900461ffff1681565b600260139054906101000a900462ffffff1681565b61086a610936565b600073ffffffffffffffffffffffffffffffffffffffff168173ffffffffffffffffffffffffffffffffffffffff16036108d9576040517f08c379a00000000000000000000000000000000000000000000000000000000081526004016108d090610fd2565b60405180910390fd5b6108e2816109b4565b50565b6108ed610936565b80600160136101000a81548160ff021916908360ff16021790555050565b600160009054906101000a900465ffffffffffff1681565b600160119054906101000a900460ff1681565b61093e610a78565b73ffffffffffffffffffffffffffffffffffffffff1661095c6106a6565b73ffffffffffffffffffffffffffffffffffffffff16146109b2576040517f08c379a00000000000000000000000000000000000000000000000000000000081526004016109a99061103e565b60405180910390fd5b565b60008060009054906101000a900473ffffffffffffffffffffffffffffffffffffffff169050816000806101000a81548173ffffffffffffffffffffffffffffffffffffffff021916908373ffffffffffffffffffffffffffffffffffffffff1602179055508173ffffffffffffffffffffffffffffffffffffffff168173ffffffffffffffffffffffffffffffffffffffff167f8be0079c531659141344cd1fd0a4f28419497f9722a3daafe3b4186f6b6457e060405160405180910390a35050565b600033905090565b600080fd5b60006fffffffffffffffffffffffffffffffff82169050919050565b610aaa81610a85565b8114610ab557600080fd5b50565b600081359050610ac781610aa1565b92915050565b600060208284031215610ae357610ae2610a80565b5b6000610af184828501610ab8565b91505092915050565b600060ff82169050919050565b610b1081610afa565b82525050565b6000602082019050610b2b6000830184610b07565b92915050565b600062ffffff82169050919050565b610b4981610b31565b82525050565b6000602082019050610b646000830184610b40565b92915050565b600063ffffffff82169050919050565b610b8381610b6a565b8114610b8e57600080fd5b50565b600081359050610ba081610b7a565b92915050565b600060208284031215610bbc57610bbb610a80565b5b6000610bca84828501610b91565b91505092915050565b610bdc81610afa565b8114610be757600080fd5b50565b600081359050610bf981610bd3565b92915050565b600060208284031215610c1557610c14610a80565b5b6000610c2384828501610bea565b91505092915050565b610c3581610b6a565b82525050565b6000602082019050610c506000830184610c2c565b92915050565b610c5f81610b31565b8114610c6a57600080fd5b50565b600081359050610c7c81610c56565b92915050565b600060208284031215610c9857610c97610a80565b5b6000610ca684828501610c6d565b91505092915050565b610cb881610a85565b82525050565b6000602082019050610cd36000830184610caf565b92915050565b600073ffffffffffffffffffffffffffffffffffffffff82169050919050565b6000610d0482610cd9565b9050919050565b610d1481610cf9565b82525050565b6000602082019050610d2f6000830184610d0b565b92915050565b60006bffffffffffffffffffffffff82169050919050565b610d5681610d35565b82525050565b6000602082019050610d716000830184610d4d565b92915050565b600061ffff82169050919050565b610d8e81610d77565b8114610d9957600080fd5b50565b600081359050610dab81610d85565b92915050565b600060208284031215610dc757610dc6610a80565b5b6000610dd584828501610d9c565b91505092915050565b600065ffffffffffff82169050919050565b610df981610dde565b8114610e0457600080fd5b50565b600081359050610e1681610df0565b92915050565b600060208284031215610e3257610e31610a80565b5b6000610e4084828501610e07565b91505092915050565b610e5281610d35565b8114610e5d57600080fd5b50565b600081359050610e6f81610e49565b92915050565b600060208284031215610e8b57610e8a610a80565b5b6000610e9984828501610e60565b91505092915050565b610eab81610d77565b82525050565b6000602082019050610ec66000830184610ea2565b92915050565b610ed581610cf9565b8114610ee057600080fd5b50565b600081359050610ef281610ecc565b92915050565b600060208284031215610f0e57610f0d610a80565b5b6000610f1c84828501610ee3565b91505092915050565b610f2e81610dde565b82525050565b6000602082019050610f496000830184610f25565b92915050565b600082825260208201905092915050565b7f4f776e61626c653a206e6577206f776e657220697320746865207a65726f206160008201527f6464726573730000000000000000000000000000000000000000000000000000602082015250565b6000610fbc602683610f4f565b9150610fc782610f60565b604082019050919050565b60006020820190508181036000830152610feb81610faf565b9050919050565b7f4f776e61626c653a2063616c6c6572206973206e6f7420746865206f776e6572600082015250565b6000611028602083610f4f565b915061103382610ff2565b602082019050919050565b600060208201905081810360008301526110578161101b565b905091905056fea2646970667358221220cfa7cea1953ec18fe985ef2b51ce83f687480cf6fe7ce503ce9eaa4319964aaa64736f6c634300080e0033",
  "immutableReferences": {},
  "source": "// SPDX-License-Identifier: MIT\n\npragma solidity ^0.8.0;\n\nimport { Ownable } from \"@openzeppelin/contracts/access/Ownable.sol\";\n\ncontract ParametersStorage is Ownable {\n    uint96 public minimalStake;\n\n    uint48 public R2;\n    uint32 public R1;\n    uint32 public R0;\n\n    uint16 public commitWindowDuration;\n    uint8 public minProofWindowOffsetPerc;\n    uint8 public maxProofWindowOffsetPerc;\n    uint8 public proofWindowDurationPerc;\n    uint8 public replacementWindowDurationPerc;\n\n    uint128 public epochLength;\n\n    uint24 public stakeWithdrawalDelay;\n    uint24 public rewardWithdrawalDelay;\n    uint32 public slashingFreezeDuration;\n\n    constructor() {\n        minimalStake = 50000 ether;\n\n        R2 = 20;\n        R1 = 8;\n        R0 = 3;\n\n        commitWindowDuration = 15 minutes;\n        minProofWindowOffsetPerc = 90;\n        maxProofWindowOffsetPerc = 98;\n        proofWindowDurationPerc = 1;\n        replacementWindowDurationPerc = 1;\n\n        epochLength = 30 days;\n\n        stakeWithdrawalDelay = 28 days;\n        rewardWithdrawalDelay = 21 days;\n        slashingFreezeDuration = 730 days;\n    }\n\n    function setMinimalStake(uint96 newMinimalStake)\n        public\n        onlyOwner\n    {\n        minimalStake = newMinimalStake;\n    }\n\n    function setR2(uint48 newR2)\n        public\n        onlyOwner\n    {\n        R2 = newR2;\n    }\n\n    function setR1(uint32 newR1)\n        public\n        onlyOwner\n    {\n        R1 = newR1;\n    }\n\n    function setR0(uint32 newR0)\n        public\n        onlyOwner\n    {\n        R0 = newR0;\n    }\n\n    function setCommitWindowDuration(uint16 newCommitWindowDuration)\n        public\n        onlyOwner\n    {\n        commitWindowDuration = newCommitWindowDuration;\n    }\n\n    function setMinProofWindowOffsetPerc(uint8 newMinProofWindowOffsetPerc)\n        public\n        onlyOwner\n    {\n        minProofWindowOffsetPerc = newMinProofWindowOffsetPerc;\n    }\n\n    function setMaxProofWindowOffsetPerc(uint8 newMaxProofWindowOffsetPerc)\n        public\n        onlyOwner\n    {\n        maxProofWindowOffsetPerc = newMaxProofWindowOffsetPerc;\n    }\n\n    function setProofWindowDurationPerc(uint8 newProofWindowDurationPerc)\n        public\n        onlyOwner\n    {\n        proofWindowDurationPerc = newProofWindowDurationPerc;\n    }\n\n    function setReplacementWindowDurationPerc(uint8 newReplacementWindowDurationPerc)\n        public\n        onlyOwner\n    {\n        replacementWindowDurationPerc = newReplacementWindowDurationPerc;\n    }\n\n    function setEpochLength(uint128 newEpochLength)\n        public\n        onlyOwner\n    {\n        epochLength = newEpochLength;\n    }\n\n    function setStakeWithdrawalDelay(uint24 newStakeWithdrawalDelay)\n        public\n        onlyOwner\n    {\n        stakeWithdrawalDelay = newStakeWithdrawalDelay;\n    }\n\n    function setRewardWithdrawalDelay(uint24 newRewardWithdrawalDelay)\n        public\n        onlyOwner\n    {\n        rewardWithdrawalDelay = newRewardWithdrawalDelay;\n    }\n\n    function setSlashingFreezeDuration(uint32 newSlashingFreezeDuration)\n        public\n        onlyOwner\n    {\n        slashingFreezeDuration = newSlashingFreezeDuration;\n    }\n}\n",
  "sourcePath": "/Users/waving/Desktop/OriginTrail/dkg-evm-module/contracts/storage/ParametersStorage.sol",
  "compiler": {
    "name": "solc",
    "version": "0.8.14+commit.80d49f37.Emscripten.clang"
  },
  "schemaVersion": "3.4.10",
  "updatedAt": "2022-11-21T10:31:02.661Z",
  "devdoc": {
    "kind": "dev",
    "methods": {
      "owner()": {
        "details": "Returns the address of the current owner."
      },
      "renounceOwnership()": {
        "details": "Leaves the contract without owner. It will not be possible to call `onlyOwner` functions anymore. Can only be called by the current owner. NOTE: Renouncing ownership will leave the contract without an owner, thereby removing any functionality that is only available to the owner."
      },
      "transferOwnership(address)": {
        "details": "Transfers ownership of the contract to a new account (`newOwner`). Can only be called by the current owner."
      }
    },
    "version": 1
  },
  "userdoc": {
    "kind": "user",
    "methods": {},
    "version": 1
  }
}