{
  "contractName": "ParametersStorage",
  "abi": [
    {
      "inputs": [],
      "stateMutability": "nonpayable",
      "type": "constructor"
    },
    {
      "anonymous": false,
      "inputs": [
        {
          "indexed": true,
          "internalType": "address",
          "name": "previousOwner",
          "type": "address"
        },
        {
          "indexed": true,
          "internalType": "address",
          "name": "newOwner",
          "type": "address"
        }
      ],
      "name": "OwnershipTransferred",
      "type": "event"
    },
    {
      "inputs": [],
      "name": "R0",
      "outputs": [
        {
          "internalType": "uint32",
          "name": "",
          "type": "uint32"
        }
      ],
      "stateMutability": "view",
      "type": "function"
    },
    {
      "inputs": [],
      "name": "R1",
      "outputs": [
        {
          "internalType": "uint32",
          "name": "",
          "type": "uint32"
        }
      ],
      "stateMutability": "view",
      "type": "function"
    },
    {
      "inputs": [],
      "name": "R2",
      "outputs": [
        {
          "internalType": "uint48",
          "name": "",
          "type": "uint48"
        }
      ],
      "stateMutability": "view",
      "type": "function"
    },
    {
      "inputs": [],
      "name": "commitWindowDuration",
      "outputs": [
        {
          "internalType": "uint16",
          "name": "",
          "type": "uint16"
        }
      ],
      "stateMutability": "view",
      "type": "function"
    },
    {
      "inputs": [],
      "name": "epochLength",
      "outputs": [
        {
          "internalType": "uint128",
          "name": "",
          "type": "uint128"
        }
      ],
      "stateMutability": "view",
      "type": "function"
    },
    {
      "inputs": [],
      "name": "maxProofWindowOffsetPerc",
      "outputs": [
        {
          "internalType": "uint8",
          "name": "",
          "type": "uint8"
        }
      ],
      "stateMutability": "view",
      "type": "function"
    },
    {
      "inputs": [],
      "name": "maximumStake",
      "outputs": [
        {
          "internalType": "uint96",
          "name": "",
          "type": "uint96"
        }
      ],
      "stateMutability": "view",
      "type": "function"
    },
    {
      "inputs": [],
      "name": "minProofWindowOffsetPerc",
      "outputs": [
        {
          "internalType": "uint8",
          "name": "",
          "type": "uint8"
        }
      ],
      "stateMutability": "view",
      "type": "function"
    },
    {
      "inputs": [],
      "name": "minimumStake",
      "outputs": [
        {
          "internalType": "uint96",
          "name": "",
          "type": "uint96"
        }
      ],
      "stateMutability": "view",
      "type": "function"
    },
    {
      "inputs": [],
      "name": "owner",
      "outputs": [
        {
          "internalType": "address",
          "name": "",
          "type": "address"
        }
      ],
      "stateMutability": "view",
      "type": "function"
    },
    {
      "inputs": [],
      "name": "proofWindowDurationPerc",
      "outputs": [
        {
          "internalType": "uint8",
          "name": "",
          "type": "uint8"
        }
      ],
      "stateMutability": "view",
      "type": "function"
    },
    {
      "inputs": [],
      "name": "renounceOwnership",
      "outputs": [],
      "stateMutability": "nonpayable",
      "type": "function"
    },
    {
      "inputs": [],
      "name": "replacementWindowDurationPerc",
      "outputs": [
        {
          "internalType": "uint8",
          "name": "",
          "type": "uint8"
        }
      ],
      "stateMutability": "view",
      "type": "function"
    },
    {
      "inputs": [],
      "name": "rewardWithdrawalDelay",
      "outputs": [
        {
          "internalType": "uint24",
          "name": "",
          "type": "uint24"
        }
      ],
      "stateMutability": "view",
      "type": "function"
    },
    {
      "inputs": [],
      "name": "slashingFreezeDuration",
      "outputs": [
        {
          "internalType": "uint32",
          "name": "",
          "type": "uint32"
        }
      ],
      "stateMutability": "view",
      "type": "function"
    },
    {
      "inputs": [],
      "name": "stakeWithdrawalDelay",
      "outputs": [
        {
          "internalType": "uint24",
          "name": "",
          "type": "uint24"
        }
      ],
      "stateMutability": "view",
      "type": "function"
    },
    {
      "inputs": [
        {
          "internalType": "address",
          "name": "newOwner",
          "type": "address"
        }
      ],
      "name": "transferOwnership",
      "outputs": [],
      "stateMutability": "nonpayable",
      "type": "function"
    },
    {
      "inputs": [
        {
          "internalType": "uint96",
          "name": "newMinimumStake",
          "type": "uint96"
        }
      ],
      "name": "setMinimumStake",
      "outputs": [],
      "stateMutability": "nonpayable",
      "type": "function"
    },
    {
      "inputs": [
        {
          "internalType": "uint48",
          "name": "newR2",
          "type": "uint48"
        }
      ],
      "name": "setR2",
      "outputs": [],
      "stateMutability": "nonpayable",
      "type": "function"
    },
    {
      "inputs": [
        {
          "internalType": "uint32",
          "name": "newR1",
          "type": "uint32"
        }
      ],
      "name": "setR1",
      "outputs": [],
      "stateMutability": "nonpayable",
      "type": "function"
    },
    {
      "inputs": [
        {
          "internalType": "uint32",
          "name": "newR0",
          "type": "uint32"
        }
      ],
      "name": "setR0",
      "outputs": [],
      "stateMutability": "nonpayable",
      "type": "function"
    },
    {
      "inputs": [
        {
          "internalType": "uint16",
          "name": "newCommitWindowDuration",
          "type": "uint16"
        }
      ],
      "name": "setCommitWindowDuration",
      "outputs": [],
      "stateMutability": "nonpayable",
      "type": "function"
    },
    {
      "inputs": [
        {
          "internalType": "uint8",
          "name": "newMinProofWindowOffsetPerc",
          "type": "uint8"
        }
      ],
      "name": "setMinProofWindowOffsetPerc",
      "outputs": [],
      "stateMutability": "nonpayable",
      "type": "function"
    },
    {
      "inputs": [
        {
          "internalType": "uint8",
          "name": "newMaxProofWindowOffsetPerc",
          "type": "uint8"
        }
      ],
      "name": "setMaxProofWindowOffsetPerc",
      "outputs": [],
      "stateMutability": "nonpayable",
      "type": "function"
    },
    {
      "inputs": [
        {
          "internalType": "uint8",
          "name": "newProofWindowDurationPerc",
          "type": "uint8"
        }
      ],
      "name": "setProofWindowDurationPerc",
      "outputs": [],
      "stateMutability": "nonpayable",
      "type": "function"
    },
    {
      "inputs": [
        {
          "internalType": "uint8",
          "name": "newReplacementWindowDurationPerc",
          "type": "uint8"
        }
      ],
      "name": "setReplacementWindowDurationPerc",
      "outputs": [],
      "stateMutability": "nonpayable",
      "type": "function"
    },
    {
      "inputs": [
        {
          "internalType": "uint128",
          "name": "newEpochLength",
          "type": "uint128"
        }
      ],
      "name": "setEpochLength",
      "outputs": [],
      "stateMutability": "nonpayable",
      "type": "function"
    },
    {
      "inputs": [
        {
          "internalType": "uint24",
          "name": "newStakeWithdrawalDelay",
          "type": "uint24"
        }
      ],
      "name": "setStakeWithdrawalDelay",
      "outputs": [],
      "stateMutability": "nonpayable",
      "type": "function"
    },
    {
      "inputs": [
        {
          "internalType": "uint24",
          "name": "newRewardWithdrawalDelay",
          "type": "uint24"
        }
      ],
      "name": "setRewardWithdrawalDelay",
      "outputs": [],
      "stateMutability": "nonpayable",
      "type": "function"
    },
    {
      "inputs": [
        {
          "internalType": "uint32",
          "name": "newSlashingFreezeDuration",
          "type": "uint32"
        }
      ],
      "name": "setSlashingFreezeDuration",
      "outputs": [],
      "stateMutability": "nonpayable",
      "type": "function"
    }
  ],
  "bytecode": "0x608060405234801561001057600080fd5b5061001a33610089565b600080546001600160a01b0316662a5a058fc295ed60b61b1790557e194b3203840000000300000008000000000014000422ca8b0a00a425000000600155600280546001600160d01b0319167903c2670000012c00012c00000000000000000000000000000e101790556100d9565b600080546001600160a01b038381166001600160a01b0319831681178455604051919092169283917f8be0079c531659141344cd1fd0a4f28419497f9722a3daafe3b4186f6b6457e09190a35050565b6109c8806100e86000396000f3fe608060405234801561001057600080fd5b50600436106101da5760003560e01c80639d3ceb0c11610104578063d1287dba116100a2578063f2fde38b11610071578063f2fde38b1461046d578063fdf1afa214610480578063fee2cb0514610493578063ff211743146104c357600080fd5b8063d1287dba14610402578063e8d487ff14610415578063ec5ffac21461043d578063f1b776f51461045757600080fd5b8063b22dd2ca116100de578063b22dd2ca1461039a578063b5c6b453146103b1578063b7f854fc146103dc578063cd3e290c146103ef57600080fd5b80639d3ceb0c14610360578063a387120e14610374578063b13a8c071461038757600080fd5b8063539711571161017c5780638d73d86a1161014b5780638d73d86a146103075780638da5cb5b1461031e5780638e62624214610339578063998d95dc1461034d57600080fd5b806353971157146102ae57806357d775f8146102c1578063715018a6146102ec578063862bc131146102f457600080fd5b8063175b07f8116101b8578063175b07f81461024957806319bd84dc1461025c57806322a0d6291461026f5780633de3fdf41461028257600080fd5b80630d8d840b146101df578063108778f5146101f4578063151db1b91461021f575b600080fd5b6101f26101ed366004610856565b6104d7565b005b60015461020890600160f81b900460ff1681565b60405160ff90911681526020015b60405180910390f35b60025461023590600160801b900462ffffff1681565b60405162ffffff9091168152602001610216565b6101f2610257366004610886565b61050a565b6101f261026a366004610886565b610538565b6101f261027d3660046108ac565b610566565b60025461029990600160b01b900463ffffffff1681565b60405163ffffffff9091168152602001610216565b6101f26102bc3660046108cf565b61058e565b6002546102d4906001600160801b031681565b6040516001600160801b039091168152602001610216565b6101f26105ba565b6101f26103023660046108ac565b6105ce565b60015461029990600160b01b900463ffffffff1681565b6000546040516001600160a01b039091168152602001610216565b60015461020890600160e01b900460ff1681565b6101f261035b366004610886565b6105f6565b60015461020890600160f01b900460ff1681565b6101f26103823660046108f4565b610624565b6101f2610395366004610918565b61064e565b60015461029990600160901b900463ffffffff1681565b6001546103c4906001600160601b031681565b6040516001600160601b039091168152602001610216565b6101f26103ea366004610941565b61067e565b6101f26103fd3660046108ac565b6106b0565b6101f26104103660046108cf565b6106d8565b60015461042a90600160d01b900461ffff1681565b60405161ffff9091168152602001610216565b6000546103c490600160a01b90046001600160601b031681565b60025461023590600160981b900462ffffff1681565b6101f261047b366004610969565b610704565b6101f261048e3660046108ac565b610782565b6001546104ac90600160601b900465ffffffffffff1681565b60405165ffffffffffff9091168152602001610216565b60015461020890600160e81b900460ff1681565b6104df6107ac565b600280546fffffffffffffffffffffffffffffffff19166001600160801b0392909216919091179055565b6105126107ac565b6001805463ffffffff909216600160b01b0263ffffffff60b01b19909216919091179055565b6105406107ac565b6001805463ffffffff909216600160901b0263ffffffff60901b19909216919091179055565b61056e6107ac565b6001805460ff909216600160f01b0260ff60f01b19909216919091179055565b6105966107ac565b6002805462ffffff909216600160801b0262ffffff60801b19909216919091179055565b6105c26107ac565b6105cc6000610806565b565b6105d66107ac565b6001805460ff909216600160e81b0260ff60e81b19909216919091179055565b6105fe6107ac565b6002805463ffffffff909216600160b01b0263ffffffff60b01b19909216919091179055565b61062c6107ac565b6001805461ffff909216600160d01b0261ffff60d01b19909216919091179055565b6106566107ac565b600080546001600160601b03909216600160a01b026001600160a01b03909216919091179055565b6106866107ac565b6001805465ffffffffffff909216600160601b0265ffffffffffff60601b19909216919091179055565b6106b86107ac565b6001805460ff909216600160e01b0260ff60e01b19909216919091179055565b6106e06107ac565b6002805462ffffff909216600160981b0262ffffff60981b19909216919091179055565b61070c6107ac565b6001600160a01b0381166107765760405162461bcd60e51b815260206004820152602660248201527f4f776e61626c653a206e6577206f776e657220697320746865207a65726f206160448201526564647265737360d01b60648201526084015b60405180910390fd5b61077f81610806565b50565b61078a6107ac565b6001805460ff909216600160f81b026001600160f81b03909216919091179055565b6000546001600160a01b031633146105cc5760405162461bcd60e51b815260206004820181905260248201527f4f776e61626c653a2063616c6c6572206973206e6f7420746865206f776e6572604482015260640161076d565b600080546001600160a01b038381166001600160a01b0319831681178455604051919092169283917f8be0079c531659141344cd1fd0a4f28419497f9722a3daafe3b4186f6b6457e09190a35050565b60006020828403121561086857600080fd5b81356001600160801b038116811461087f57600080fd5b9392505050565b60006020828403121561089857600080fd5b813563ffffffff8116811461087f57600080fd5b6000602082840312156108be57600080fd5b813560ff8116811461087f57600080fd5b6000602082840312156108e157600080fd5b813562ffffff8116811461087f57600080fd5b60006020828403121561090657600080fd5b813561ffff8116811461087f57600080fd5b60006020828403121561092a57600080fd5b81356001600160601b038116811461087f57600080fd5b60006020828403121561095357600080fd5b813565ffffffffffff8116811461087f57600080fd5b60006020828403121561097b57600080fd5b81356001600160a01b038116811461087f57600080fdfea264697066735822122032a9a6ac8375da4e370de359a1a36092a6e6ea1419a00dce2a3703b8a40a6b1564736f6c63430008100033",
  "immutableReferences": {},
  "source": "// SPDX-License-Identifier: MIT\n\npragma solidity ^0.8.4;\n\nimport { Ownable } from \"@openzeppelin/contracts/access/Ownable.sol\";\n\ncontract ParametersStorage is Ownable {\n\n    uint96 public minimumStake;\n    uint96 public maximumStake;\n\n    uint48 public R2;\n    uint32 public R1;\n    uint32 public R0;\n\n    uint16 public commitWindowDuration;\n    uint8 public minProofWindowOffsetPerc;\n    uint8 public maxProofWindowOffsetPerc;\n    uint8 public proofWindowDurationPerc;\n    uint8 public replacementWindowDurationPerc;\n\n    uint128 public epochLength;\n\n    uint24 public stakeWithdrawalDelay;\n    uint24 public rewardWithdrawalDelay;\n    uint32 public slashingFreezeDuration;\n\n    constructor() {\n        minimumStake = 50_000 ether;\n        maximumStake = 5_000_000 ether;\n\n        R2 = 20;\n        R1 = 8;\n        R0 = 3;\n\n        commitWindowDuration = 15 minutes;\n        minProofWindowOffsetPerc = 50;\n        maxProofWindowOffsetPerc = 75;\n        proofWindowDurationPerc = 25;\n        replacementWindowDurationPerc = 0;\n\n        epochLength = 1 hours;\n\n        stakeWithdrawalDelay = 5 minutes;\n        rewardWithdrawalDelay = 5 minutes;\n        slashingFreezeDuration = 730 days;\n    }\n\n    function setMinimumStake(uint96 newMinimumStake) external onlyOwner {\n        minimumStake = newMinimumStake;\n    }\n\n    function setR2(uint48 newR2) external onlyOwner {\n        R2 = newR2;\n    }\n\n    function setR1(uint32 newR1) external onlyOwner {\n        R1 = newR1;\n    }\n\n    function setR0(uint32 newR0) external onlyOwner {\n        R0 = newR0;\n    }\n\n    function setCommitWindowDuration(uint16 newCommitWindowDuration) external onlyOwner {\n        commitWindowDuration = newCommitWindowDuration;\n    }\n\n    function setMinProofWindowOffsetPerc(uint8 newMinProofWindowOffsetPerc) external onlyOwner {\n        minProofWindowOffsetPerc = newMinProofWindowOffsetPerc;\n    }\n\n    function setMaxProofWindowOffsetPerc(uint8 newMaxProofWindowOffsetPerc) external onlyOwner {\n        maxProofWindowOffsetPerc = newMaxProofWindowOffsetPerc;\n    }\n\n    function setProofWindowDurationPerc(uint8 newProofWindowDurationPerc) external onlyOwner {\n        proofWindowDurationPerc = newProofWindowDurationPerc;\n    }\n\n    function setReplacementWindowDurationPerc(uint8 newReplacementWindowDurationPerc) external onlyOwner {\n        replacementWindowDurationPerc = newReplacementWindowDurationPerc;\n    }\n\n    function setEpochLength(uint128 newEpochLength) external onlyOwner {\n        epochLength = newEpochLength;\n    }\n\n    function setStakeWithdrawalDelay(uint24 newStakeWithdrawalDelay) external onlyOwner {\n        stakeWithdrawalDelay = newStakeWithdrawalDelay;\n    }\n\n    function setRewardWithdrawalDelay(uint24 newRewardWithdrawalDelay) external onlyOwner {\n        rewardWithdrawalDelay = newRewardWithdrawalDelay;\n    }\n\n    function setSlashingFreezeDuration(uint32 newSlashingFreezeDuration) external onlyOwner {\n        slashingFreezeDuration = newSlashingFreezeDuration;\n    }\n\n}\n",
  "sourcePath": "/Users/waving/Desktop/OriginTrail/dkg-evm-module/contracts/storage/ParametersStorage.sol",
  "compiler": {
    "name": "solc",
    "version": "0.8.16+commit.07a7930e.Emscripten.clang"
  },
  "schemaVersion": "3.4.10",
  "updatedAt": "2022-12-05T17:33:43.059Z",
  "devdoc": {
    "kind": "dev",
    "methods": {
      "owner()": {
        "details": "Returns the address of the current owner."
      },
      "renounceOwnership()": {
        "details": "Leaves the contract without owner. It will not be possible to call `onlyOwner` functions anymore. Can only be called by the current owner. NOTE: Renouncing ownership will leave the contract without an owner, thereby removing any functionality that is only available to the owner."
      },
      "transferOwnership(address)": {
        "details": "Transfers ownership of the contract to a new account (`newOwner`). Can only be called by the current owner."
      }
    },
    "version": 1
  },
  "userdoc": {
    "kind": "user",
    "methods": {},
    "version": 1
  }
}