{
  "contractName": "ParametersStorage",
  "abi": [
    {
      "inputs": [],
      "stateMutability": "nonpayable",
      "type": "constructor"
    },
    {
      "anonymous": false,
      "inputs": [
        {
          "indexed": true,
          "internalType": "address",
          "name": "previousOwner",
          "type": "address"
        },
        {
          "indexed": true,
          "internalType": "address",
          "name": "newOwner",
          "type": "address"
        }
      ],
      "name": "OwnershipTransferred",
      "type": "event"
    },
    {
      "inputs": [],
      "name": "R0",
      "outputs": [
        {
          "internalType": "uint32",
          "name": "",
          "type": "uint32"
        }
      ],
      "stateMutability": "view",
      "type": "function"
    },
    {
      "inputs": [],
      "name": "R1",
      "outputs": [
        {
          "internalType": "uint32",
          "name": "",
          "type": "uint32"
        }
      ],
      "stateMutability": "view",
      "type": "function"
    },
    {
      "inputs": [],
      "name": "R2",
      "outputs": [
        {
          "internalType": "uint48",
          "name": "",
          "type": "uint48"
        }
      ],
      "stateMutability": "view",
      "type": "function"
    },
    {
      "inputs": [],
      "name": "commitWindowDuration",
      "outputs": [
        {
          "internalType": "uint16",
          "name": "",
          "type": "uint16"
        }
      ],
      "stateMutability": "view",
      "type": "function"
    },
    {
      "inputs": [],
      "name": "epochLength",
      "outputs": [
        {
          "internalType": "uint128",
          "name": "",
          "type": "uint128"
        }
      ],
      "stateMutability": "view",
      "type": "function"
    },
    {
      "inputs": [],
      "name": "maxProofWindowOffsetPerc",
      "outputs": [
        {
          "internalType": "uint8",
          "name": "",
          "type": "uint8"
        }
      ],
      "stateMutability": "view",
      "type": "function"
    },
    {
      "inputs": [],
      "name": "maximumStake",
      "outputs": [
        {
          "internalType": "uint96",
          "name": "",
          "type": "uint96"
        }
      ],
      "stateMutability": "view",
      "type": "function"
    },
    {
      "inputs": [],
      "name": "minProofWindowOffsetPerc",
      "outputs": [
        {
          "internalType": "uint8",
          "name": "",
          "type": "uint8"
        }
      ],
      "stateMutability": "view",
      "type": "function"
    },
    {
      "inputs": [],
      "name": "minimumStake",
      "outputs": [
        {
          "internalType": "uint96",
          "name": "",
          "type": "uint96"
        }
      ],
      "stateMutability": "view",
      "type": "function"
    },
    {
      "inputs": [],
      "name": "owner",
      "outputs": [
        {
          "internalType": "address",
          "name": "",
          "type": "address"
        }
      ],
      "stateMutability": "view",
      "type": "function"
    },
    {
      "inputs": [],
      "name": "proofWindowDurationPerc",
      "outputs": [
        {
          "internalType": "uint8",
          "name": "",
          "type": "uint8"
        }
      ],
      "stateMutability": "view",
      "type": "function"
    },
    {
      "inputs": [],
      "name": "renounceOwnership",
      "outputs": [],
      "stateMutability": "nonpayable",
      "type": "function"
    },
    {
      "inputs": [],
      "name": "replacementWindowDurationPerc",
      "outputs": [
        {
          "internalType": "uint8",
          "name": "",
          "type": "uint8"
        }
      ],
      "stateMutability": "view",
      "type": "function"
    },
    {
      "inputs": [],
      "name": "rewardWithdrawalDelay",
      "outputs": [
        {
          "internalType": "uint24",
          "name": "",
          "type": "uint24"
        }
      ],
      "stateMutability": "view",
      "type": "function"
    },
    {
      "inputs": [],
      "name": "slashingFreezeDuration",
      "outputs": [
        {
          "internalType": "uint32",
          "name": "",
          "type": "uint32"
        }
      ],
      "stateMutability": "view",
      "type": "function"
    },
    {
      "inputs": [],
      "name": "stakeWithdrawalDelay",
      "outputs": [
        {
          "internalType": "uint24",
          "name": "",
          "type": "uint24"
        }
      ],
      "stateMutability": "view",
      "type": "function"
    },
    {
      "inputs": [
        {
          "internalType": "address",
          "name": "newOwner",
          "type": "address"
        }
      ],
      "name": "transferOwnership",
      "outputs": [],
      "stateMutability": "nonpayable",
      "type": "function"
    },
    {
      "inputs": [
        {
          "internalType": "uint96",
          "name": "newMinimumStake",
          "type": "uint96"
        }
      ],
      "name": "setMinimumStake",
      "outputs": [],
      "stateMutability": "nonpayable",
      "type": "function"
    },
    {
      "inputs": [
        {
          "internalType": "uint48",
          "name": "newR2",
          "type": "uint48"
        }
      ],
      "name": "setR2",
      "outputs": [],
      "stateMutability": "nonpayable",
      "type": "function"
    },
    {
      "inputs": [
        {
          "internalType": "uint32",
          "name": "newR1",
          "type": "uint32"
        }
      ],
      "name": "setR1",
      "outputs": [],
      "stateMutability": "nonpayable",
      "type": "function"
    },
    {
      "inputs": [
        {
          "internalType": "uint32",
          "name": "newR0",
          "type": "uint32"
        }
      ],
      "name": "setR0",
      "outputs": [],
      "stateMutability": "nonpayable",
      "type": "function"
    },
    {
      "inputs": [
        {
          "internalType": "uint16",
          "name": "newCommitWindowDuration",
          "type": "uint16"
        }
      ],
      "name": "setCommitWindowDuration",
      "outputs": [],
      "stateMutability": "nonpayable",
      "type": "function"
    },
    {
      "inputs": [
        {
          "internalType": "uint8",
          "name": "newMinProofWindowOffsetPerc",
          "type": "uint8"
        }
      ],
      "name": "setMinProofWindowOffsetPerc",
      "outputs": [],
      "stateMutability": "nonpayable",
      "type": "function"
    },
    {
      "inputs": [
        {
          "internalType": "uint8",
          "name": "newMaxProofWindowOffsetPerc",
          "type": "uint8"
        }
      ],
      "name": "setMaxProofWindowOffsetPerc",
      "outputs": [],
      "stateMutability": "nonpayable",
      "type": "function"
    },
    {
      "inputs": [
        {
          "internalType": "uint8",
          "name": "newProofWindowDurationPerc",
          "type": "uint8"
        }
      ],
      "name": "setProofWindowDurationPerc",
      "outputs": [],
      "stateMutability": "nonpayable",
      "type": "function"
    },
    {
      "inputs": [
        {
          "internalType": "uint8",
          "name": "newReplacementWindowDurationPerc",
          "type": "uint8"
        }
      ],
      "name": "setReplacementWindowDurationPerc",
      "outputs": [],
      "stateMutability": "nonpayable",
      "type": "function"
    },
    {
      "inputs": [
        {
          "internalType": "uint128",
          "name": "newEpochLength",
          "type": "uint128"
        }
      ],
      "name": "setEpochLength",
      "outputs": [],
      "stateMutability": "nonpayable",
      "type": "function"
    },
    {
      "inputs": [
        {
          "internalType": "uint24",
          "name": "newStakeWithdrawalDelay",
          "type": "uint24"
        }
      ],
      "name": "setStakeWithdrawalDelay",
      "outputs": [],
      "stateMutability": "nonpayable",
      "type": "function"
    },
    {
      "inputs": [
        {
          "internalType": "uint24",
          "name": "newRewardWithdrawalDelay",
          "type": "uint24"
        }
      ],
      "name": "setRewardWithdrawalDelay",
      "outputs": [],
      "stateMutability": "nonpayable",
      "type": "function"
    },
    {
      "inputs": [
        {
          "internalType": "uint32",
          "name": "newSlashingFreezeDuration",
          "type": "uint32"
        }
      ],
      "name": "setSlashingFreezeDuration",
      "outputs": [],
      "stateMutability": "nonpayable",
      "type": "function"
    }
  ],
  "bytecode": "0x608060405234801561001057600080fd5b5061002d61002261024560201b60201c565b61024d60201b60201c565b690a968163f0a57b400000600060146101000a8154816bffffffffffffffffffffffff02191690836bffffffffffffffffffffffff1602179055506a0422ca8b0a00a425000000600160006101000a8154816bffffffffffffffffffffffff02191690836bffffffffffffffffffffffff16021790555060146001600c6101000a81548165ffffffffffff021916908365ffffffffffff1602179055506008600160126101000a81548163ffffffff021916908363ffffffff1602179055506003600160166101000a81548163ffffffff021916908363ffffffff1602179055506103846001601a6101000a81548161ffff021916908361ffff160217905550605a6001601c6101000a81548160ff021916908360ff16021790555060626001601d6101000a81548160ff021916908360ff160217905550600180601e6101000a81548160ff021916908360ff160217905550600180601f6101000a81548160ff021916908360ff16021790555062278d00600260006101000a8154816fffffffffffffffffffffffffffffffff02191690836fffffffffffffffffffffffffffffffff1602179055506224ea00600260106101000a81548162ffffff021916908362ffffff160217905550621baf80600260136101000a81548162ffffff021916908362ffffff1602179055506303c26700600260166101000a81548163ffffffff021916908363ffffffff160217905550610311565b600033905090565b60008060009054906101000a900473ffffffffffffffffffffffffffffffffffffffff169050816000806101000a81548173ffffffffffffffffffffffffffffffffffffffff021916908373ffffffffffffffffffffffffffffffffffffffff1602179055508173ffffffffffffffffffffffffffffffffffffffff168173ffffffffffffffffffffffffffffffffffffffff167f8be0079c531659141344cd1fd0a4f28419497f9722a3daafe3b4186f6b6457e060405160405180910390a35050565b6110db806103206000396000f3fe608060405234801561001057600080fd5b50600436106101da5760003560e01c80639d3ceb0c11610104578063d1287dba116100a2578063f2fde38b11610071578063f2fde38b146104bf578063fdf1afa2146104db578063fee2cb05146104f7578063ff21174314610515576101da565b8063d1287dba14610449578063e8d487ff14610465578063ec5ffac214610483578063f1b776f5146104a1576101da565b8063b22dd2ca116100de578063b22dd2ca146103d5578063b5c6b453146103f3578063b7f854fc14610411578063cd3e290c1461042d576101da565b80639d3ceb0c1461037f578063a387120e1461039d578063b13a8c07146103b9576101da565b8063539711571161017c5780638d73d86a1161014b5780638d73d86a146103095780638da5cb5b146103275780638e62624214610345578063998d95dc14610363576101da565b806353971157146102a957806357d775f8146102c5578063715018a6146102e3578063862bc131146102ed576101da565b8063175b07f8116101b8578063175b07f81461023757806319bd84dc1461025357806322a0d6291461026f5780633de3fdf41461028b576101da565b80630d8d840b146101df578063108778f5146101fb578063151db1b914610219575b600080fd5b6101f960048036038101906101f49190610b14565b610533565b005b610203610577565b6040516102109190610b5d565b60405180910390f35b61022161058a565b60405161022e9190610b96565b60405180910390f35b610251600480360381019061024c9190610bed565b61059f565b005b61026d60048036038101906102689190610bed565b6105cb565b005b61028960048036038101906102849190610c46565b6105f7565b005b61029361061d565b6040516102a09190610c82565b60405180910390f35b6102c360048036038101906102be9190610cc9565b610633565b005b6102cd61065d565b6040516102da9190610d05565b60405180910390f35b6102eb61067f565b005b61030760048036038101906103029190610c46565b610693565b005b6103116106b9565b60405161031e9190610c82565b60405180910390f35b61032f6106cf565b60405161033c9190610d61565b60405180910390f35b61034d6106f8565b60405161035a9190610b5d565b60405180910390f35b61037d60048036038101906103789190610bed565b61070b565b005b610387610737565b6040516103949190610b5d565b60405180910390f35b6103b760048036038101906103b29190610db6565b61074a565b005b6103d360048036038101906103ce9190610e27565b610772565b005b6103dd6107ae565b6040516103ea9190610c82565b60405180910390f35b6103fb6107c4565b6040516104089190610e63565b60405180910390f35b61042b60048036038101906104269190610ebc565b6107e2565b005b61044760048036038101906104429190610c46565b610812565b005b610463600480360381019061045e9190610cc9565b610838565b005b61046d610862565b60405161047a9190610ef8565b60405180910390f35b61048b610876565b6040516104989190610e63565b60405180910390f35b6104a9610894565b6040516104b69190610b96565b60405180910390f35b6104d960048036038101906104d49190610f3f565b6108a9565b005b6104f560048036038101906104f09190610c46565b61092c565b005b6104ff610952565b60405161050c9190610f7b565b60405180910390f35b61051d61096a565b60405161052a9190610b5d565b60405180910390f35b61053b61097d565b80600260006101000a8154816fffffffffffffffffffffffffffffffff02191690836fffffffffffffffffffffffffffffffff16021790555050565b6001601f9054906101000a900460ff1681565b600260109054906101000a900462ffffff1681565b6105a761097d565b80600160166101000a81548163ffffffff021916908363ffffffff16021790555050565b6105d361097d565b80600160126101000a81548163ffffffff021916908363ffffffff16021790555050565b6105ff61097d565b806001601e6101000a81548160ff021916908360ff16021790555050565b600260169054906101000a900463ffffffff1681565b61063b61097d565b80600260106101000a81548162ffffff021916908362ffffff16021790555050565b600260009054906101000a90046fffffffffffffffffffffffffffffffff1681565b61068761097d565b61069160006109fb565b565b61069b61097d565b806001601d6101000a81548160ff021916908360ff16021790555050565b600160169054906101000a900463ffffffff1681565b60008060009054906101000a900473ffffffffffffffffffffffffffffffffffffffff16905090565b6001601c9054906101000a900460ff1681565b61071361097d565b80600260166101000a81548163ffffffff021916908363ffffffff16021790555050565b6001601e9054906101000a900460ff1681565b61075261097d565b806001601a6101000a81548161ffff021916908361ffff16021790555050565b61077a61097d565b80600060146101000a8154816bffffffffffffffffffffffff02191690836bffffffffffffffffffffffff16021790555050565b600160129054906101000a900463ffffffff1681565b600160009054906101000a90046bffffffffffffffffffffffff1681565b6107ea61097d565b806001600c6101000a81548165ffffffffffff021916908365ffffffffffff16021790555050565b61081a61097d565b806001601c6101000a81548160ff021916908360ff16021790555050565b61084061097d565b80600260136101000a81548162ffffff021916908362ffffff16021790555050565b6001601a9054906101000a900461ffff1681565b600060149054906101000a90046bffffffffffffffffffffffff1681565b600260139054906101000a900462ffffff1681565b6108b161097d565b600073ffffffffffffffffffffffffffffffffffffffff168173ffffffffffffffffffffffffffffffffffffffff1603610920576040517f08c379a000000000000000000000000000000000000000000000000000000000815260040161091790611019565b60405180910390fd5b610929816109fb565b50565b61093461097d565b806001601f6101000a81548160ff021916908360ff16021790555050565b6001600c9054906101000a900465ffffffffffff1681565b6001601d9054906101000a900460ff1681565b610985610abf565b73ffffffffffffffffffffffffffffffffffffffff166109a36106cf565b73ffffffffffffffffffffffffffffffffffffffff16146109f9576040517f08c379a00000000000000000000000000000000000000000000000000000000081526004016109f090611085565b60405180910390fd5b565b60008060009054906101000a900473ffffffffffffffffffffffffffffffffffffffff169050816000806101000a81548173ffffffffffffffffffffffffffffffffffffffff021916908373ffffffffffffffffffffffffffffffffffffffff1602179055508173ffffffffffffffffffffffffffffffffffffffff168173ffffffffffffffffffffffffffffffffffffffff167f8be0079c531659141344cd1fd0a4f28419497f9722a3daafe3b4186f6b6457e060405160405180910390a35050565b600033905090565b600080fd5b60006fffffffffffffffffffffffffffffffff82169050919050565b610af181610acc565b8114610afc57600080fd5b50565b600081359050610b0e81610ae8565b92915050565b600060208284031215610b2a57610b29610ac7565b5b6000610b3884828501610aff565b91505092915050565b600060ff82169050919050565b610b5781610b41565b82525050565b6000602082019050610b726000830184610b4e565b92915050565b600062ffffff82169050919050565b610b9081610b78565b82525050565b6000602082019050610bab6000830184610b87565b92915050565b600063ffffffff82169050919050565b610bca81610bb1565b8114610bd557600080fd5b50565b600081359050610be781610bc1565b92915050565b600060208284031215610c0357610c02610ac7565b5b6000610c1184828501610bd8565b91505092915050565b610c2381610b41565b8114610c2e57600080fd5b50565b600081359050610c4081610c1a565b92915050565b600060208284031215610c5c57610c5b610ac7565b5b6000610c6a84828501610c31565b91505092915050565b610c7c81610bb1565b82525050565b6000602082019050610c976000830184610c73565b92915050565b610ca681610b78565b8114610cb157600080fd5b50565b600081359050610cc381610c9d565b92915050565b600060208284031215610cdf57610cde610ac7565b5b6000610ced84828501610cb4565b91505092915050565b610cff81610acc565b82525050565b6000602082019050610d1a6000830184610cf6565b92915050565b600073ffffffffffffffffffffffffffffffffffffffff82169050919050565b6000610d4b82610d20565b9050919050565b610d5b81610d40565b82525050565b6000602082019050610d766000830184610d52565b92915050565b600061ffff82169050919050565b610d9381610d7c565b8114610d9e57600080fd5b50565b600081359050610db081610d8a565b92915050565b600060208284031215610dcc57610dcb610ac7565b5b6000610dda84828501610da1565b91505092915050565b60006bffffffffffffffffffffffff82169050919050565b610e0481610de3565b8114610e0f57600080fd5b50565b600081359050610e2181610dfb565b92915050565b600060208284031215610e3d57610e3c610ac7565b5b6000610e4b84828501610e12565b91505092915050565b610e5d81610de3565b82525050565b6000602082019050610e786000830184610e54565b92915050565b600065ffffffffffff82169050919050565b610e9981610e7e565b8114610ea457600080fd5b50565b600081359050610eb681610e90565b92915050565b600060208284031215610ed257610ed1610ac7565b5b6000610ee084828501610ea7565b91505092915050565b610ef281610d7c565b82525050565b6000602082019050610f0d6000830184610ee9565b92915050565b610f1c81610d40565b8114610f2757600080fd5b50565b600081359050610f3981610f13565b92915050565b600060208284031215610f5557610f54610ac7565b5b6000610f6384828501610f2a565b91505092915050565b610f7581610e7e565b82525050565b6000602082019050610f906000830184610f6c565b92915050565b600082825260208201905092915050565b7f4f776e61626c653a206e6577206f776e657220697320746865207a65726f206160008201527f6464726573730000000000000000000000000000000000000000000000000000602082015250565b6000611003602683610f96565b915061100e82610fa7565b604082019050919050565b6000602082019050818103600083015261103281610ff6565b9050919050565b7f4f776e61626c653a2063616c6c6572206973206e6f7420746865206f776e6572600082015250565b600061106f602083610f96565b915061107a82611039565b602082019050919050565b6000602082019050818103600083015261109e81611062565b905091905056fea264697066735822122027aeff4336ab599ea0798c30b3b4e8119552f12cfd32f2ef9935661767d62f1c64736f6c634300080e0033",
  "immutableReferences": {},
  "source": "// SPDX-License-Identifier: MIT\n\npragma solidity ^0.8.0;\n\nimport { Ownable } from \"@openzeppelin/contracts/access/Ownable.sol\";\n\ncontract ParametersStorage is Ownable {\n    uint96 public minimumStake;\n    uint96 public maximumStake;\n\n    uint48 public R2;\n    uint32 public R1;\n    uint32 public R0;\n\n    uint16 public commitWindowDuration;\n    uint8 public minProofWindowOffsetPerc;\n    uint8 public maxProofWindowOffsetPerc;\n    uint8 public proofWindowDurationPerc;\n    uint8 public replacementWindowDurationPerc;\n\n    uint128 public epochLength;\n\n    uint24 public stakeWithdrawalDelay;\n    uint24 public rewardWithdrawalDelay;\n    uint32 public slashingFreezeDuration;\n\n    constructor() {\n        minimumStake = 50_000 ether;\n        maximumStake = 5_000_000 ether;\n\n        R2 = 20;\n        R1 = 8;\n        R0 = 3;\n\n        commitWindowDuration = 15 minutes;\n        minProofWindowOffsetPerc = 90;\n        maxProofWindowOffsetPerc = 98;\n        proofWindowDurationPerc = 1;\n        replacementWindowDurationPerc = 1;\n\n        epochLength = 30 days;\n\n        stakeWithdrawalDelay = 28 days;\n        rewardWithdrawalDelay = 21 days;\n        slashingFreezeDuration = 730 days;\n    }\n\n    function setMinimumStake(uint96 newMinimumStake)\n        public\n        onlyOwner\n    {\n        minimumStake = newMinimumStake;\n    }\n\n    function setR2(uint48 newR2)\n        public\n        onlyOwner\n    {\n        R2 = newR2;\n    }\n\n    function setR1(uint32 newR1)\n        public\n        onlyOwner\n    {\n        R1 = newR1;\n    }\n\n    function setR0(uint32 newR0)\n        public\n        onlyOwner\n    {\n        R0 = newR0;\n    }\n\n    function setCommitWindowDuration(uint16 newCommitWindowDuration)\n        public\n        onlyOwner\n    {\n        commitWindowDuration = newCommitWindowDuration;\n    }\n\n    function setMinProofWindowOffsetPerc(uint8 newMinProofWindowOffsetPerc)\n        public\n        onlyOwner\n    {\n        minProofWindowOffsetPerc = newMinProofWindowOffsetPerc;\n    }\n\n    function setMaxProofWindowOffsetPerc(uint8 newMaxProofWindowOffsetPerc)\n        public\n        onlyOwner\n    {\n        maxProofWindowOffsetPerc = newMaxProofWindowOffsetPerc;\n    }\n\n    function setProofWindowDurationPerc(uint8 newProofWindowDurationPerc)\n        public\n        onlyOwner\n    {\n        proofWindowDurationPerc = newProofWindowDurationPerc;\n    }\n\n    function setReplacementWindowDurationPerc(uint8 newReplacementWindowDurationPerc)\n        public\n        onlyOwner\n    {\n        replacementWindowDurationPerc = newReplacementWindowDurationPerc;\n    }\n\n    function setEpochLength(uint128 newEpochLength)\n        public\n        onlyOwner\n    {\n        epochLength = newEpochLength;\n    }\n\n    function setStakeWithdrawalDelay(uint24 newStakeWithdrawalDelay)\n        public\n        onlyOwner\n    {\n        stakeWithdrawalDelay = newStakeWithdrawalDelay;\n    }\n\n    function setRewardWithdrawalDelay(uint24 newRewardWithdrawalDelay)\n        public\n        onlyOwner\n    {\n        rewardWithdrawalDelay = newRewardWithdrawalDelay;\n    }\n\n    function setSlashingFreezeDuration(uint32 newSlashingFreezeDuration)\n        public\n        onlyOwner\n    {\n        slashingFreezeDuration = newSlashingFreezeDuration;\n    }\n}\n",
  "sourcePath": "/Users/max/IdeaProjects/dkg-evm-module/contracts/storage/ParametersStorage.sol",
  "compiler": {
    "name": "solc",
    "version": "0.8.14+commit.80d49f37.Emscripten.clang"
  },
  "schemaVersion": "3.4.10",
  "updatedAt": "2022-11-24T16:20:27.498Z",
  "devdoc": {
    "kind": "dev",
    "methods": {
      "owner()": {
        "details": "Returns the address of the current owner."
      },
      "renounceOwnership()": {
        "details": "Leaves the contract without owner. It will not be possible to call `onlyOwner` functions anymore. Can only be called by the current owner. NOTE: Renouncing ownership will leave the contract without an owner, thereby removing any functionality that is only available to the owner."
      },
      "transferOwnership(address)": {
        "details": "Transfers ownership of the contract to a new account (`newOwner`). Can only be called by the current owner."
      }
    },
    "version": 1
  },
  "userdoc": {
    "kind": "user",
    "methods": {},
    "version": 1
  }
}