{
  "contractName": "ParametersStorage",
  "abi": [
    {
      "inputs": [
        {
          "internalType": "address",
          "name": "hubAddress",
          "type": "address"
        }
      ],
      "stateMutability": "nonpayable",
      "type": "constructor"
    },
    {
      "inputs": [],
      "name": "R0",
      "outputs": [
        {
          "internalType": "uint32",
          "name": "",
          "type": "uint32"
        }
      ],
      "stateMutability": "view",
      "type": "function"
    },
    {
      "inputs": [],
      "name": "R1",
      "outputs": [
        {
          "internalType": "uint32",
          "name": "",
          "type": "uint32"
        }
      ],
      "stateMutability": "view",
      "type": "function"
    },
    {
      "inputs": [],
      "name": "R2",
      "outputs": [
        {
          "internalType": "uint48",
          "name": "",
          "type": "uint48"
        }
      ],
      "stateMutability": "view",
      "type": "function"
    },
    {
      "inputs": [],
      "name": "commitWindowDuration",
      "outputs": [
        {
          "internalType": "uint16",
          "name": "",
          "type": "uint16"
        }
      ],
      "stateMutability": "view",
      "type": "function"
    },
    {
      "inputs": [],
      "name": "epochLength",
      "outputs": [
        {
          "internalType": "uint128",
          "name": "",
          "type": "uint128"
        }
      ],
      "stateMutability": "view",
      "type": "function"
    },
    {
      "inputs": [],
      "name": "hub",
      "outputs": [
        {
          "internalType": "contract Hub",
          "name": "",
          "type": "address"
        }
      ],
      "stateMutability": "view",
      "type": "function"
    },
    {
      "inputs": [],
      "name": "maxProofWindowOffsetPerc",
      "outputs": [
        {
          "internalType": "uint8",
          "name": "",
          "type": "uint8"
        }
      ],
      "stateMutability": "view",
      "type": "function"
    },
    {
      "inputs": [],
      "name": "maximumStake",
      "outputs": [
        {
          "internalType": "uint96",
          "name": "",
          "type": "uint96"
        }
      ],
      "stateMutability": "view",
      "type": "function"
    },
    {
      "inputs": [],
      "name": "minProofWindowOffsetPerc",
      "outputs": [
        {
          "internalType": "uint8",
          "name": "",
          "type": "uint8"
        }
      ],
      "stateMutability": "view",
      "type": "function"
    },
    {
      "inputs": [],
      "name": "minimumStake",
      "outputs": [
        {
          "internalType": "uint96",
          "name": "",
          "type": "uint96"
        }
      ],
      "stateMutability": "view",
      "type": "function"
    },
    {
      "inputs": [],
      "name": "proofWindowDurationPerc",
      "outputs": [
        {
          "internalType": "uint8",
          "name": "",
          "type": "uint8"
        }
      ],
      "stateMutability": "view",
      "type": "function"
    },
    {
      "inputs": [],
      "name": "replacementWindowDurationPerc",
      "outputs": [
        {
          "internalType": "uint8",
          "name": "",
          "type": "uint8"
        }
      ],
      "stateMutability": "view",
      "type": "function"
    },
    {
      "inputs": [],
      "name": "rewardWithdrawalDelay",
      "outputs": [
        {
          "internalType": "uint24",
          "name": "",
          "type": "uint24"
        }
      ],
      "stateMutability": "view",
      "type": "function"
    },
    {
      "inputs": [],
      "name": "slashingFreezeDuration",
      "outputs": [
        {
          "internalType": "uint32",
          "name": "",
          "type": "uint32"
        }
      ],
      "stateMutability": "view",
      "type": "function"
    },
    {
      "inputs": [],
      "name": "stakeWithdrawalDelay",
      "outputs": [
        {
          "internalType": "uint24",
          "name": "",
          "type": "uint24"
        }
      ],
      "stateMutability": "view",
      "type": "function"
    },
    {
      "inputs": [
        {
          "internalType": "uint96",
          "name": "newMinimumStake",
          "type": "uint96"
        }
      ],
      "name": "setMinimumStake",
      "outputs": [],
      "stateMutability": "nonpayable",
      "type": "function"
    },
    {
      "inputs": [
        {
          "internalType": "uint48",
          "name": "newR2",
          "type": "uint48"
        }
      ],
      "name": "setR2",
      "outputs": [],
      "stateMutability": "nonpayable",
      "type": "function"
    },
    {
      "inputs": [
        {
          "internalType": "uint32",
          "name": "newR1",
          "type": "uint32"
        }
      ],
      "name": "setR1",
      "outputs": [],
      "stateMutability": "nonpayable",
      "type": "function"
    },
    {
      "inputs": [
        {
          "internalType": "uint32",
          "name": "newR0",
          "type": "uint32"
        }
      ],
      "name": "setR0",
      "outputs": [],
      "stateMutability": "nonpayable",
      "type": "function"
    },
    {
      "inputs": [
        {
          "internalType": "uint16",
          "name": "newCommitWindowDuration",
          "type": "uint16"
        }
      ],
      "name": "setCommitWindowDuration",
      "outputs": [],
      "stateMutability": "nonpayable",
      "type": "function"
    },
    {
      "inputs": [
        {
          "internalType": "uint8",
          "name": "newMinProofWindowOffsetPerc",
          "type": "uint8"
        }
      ],
      "name": "setMinProofWindowOffsetPerc",
      "outputs": [],
      "stateMutability": "nonpayable",
      "type": "function"
    },
    {
      "inputs": [
        {
          "internalType": "uint8",
          "name": "newMaxProofWindowOffsetPerc",
          "type": "uint8"
        }
      ],
      "name": "setMaxProofWindowOffsetPerc",
      "outputs": [],
      "stateMutability": "nonpayable",
      "type": "function"
    },
    {
      "inputs": [
        {
          "internalType": "uint8",
          "name": "newProofWindowDurationPerc",
          "type": "uint8"
        }
      ],
      "name": "setProofWindowDurationPerc",
      "outputs": [],
      "stateMutability": "nonpayable",
      "type": "function"
    },
    {
      "inputs": [
        {
          "internalType": "uint8",
          "name": "newReplacementWindowDurationPerc",
          "type": "uint8"
        }
      ],
      "name": "setReplacementWindowDurationPerc",
      "outputs": [],
      "stateMutability": "nonpayable",
      "type": "function"
    },
    {
      "inputs": [
        {
          "internalType": "uint128",
          "name": "newEpochLength",
          "type": "uint128"
        }
      ],
      "name": "setEpochLength",
      "outputs": [],
      "stateMutability": "nonpayable",
      "type": "function"
    },
    {
      "inputs": [
        {
          "internalType": "uint24",
          "name": "newStakeWithdrawalDelay",
          "type": "uint24"
        }
      ],
      "name": "setStakeWithdrawalDelay",
      "outputs": [],
      "stateMutability": "nonpayable",
      "type": "function"
    },
    {
      "inputs": [
        {
          "internalType": "uint24",
          "name": "newRewardWithdrawalDelay",
          "type": "uint24"
        }
      ],
      "name": "setRewardWithdrawalDelay",
      "outputs": [],
      "stateMutability": "nonpayable",
      "type": "function"
    },
    {
      "inputs": [
        {
          "internalType": "uint32",
          "name": "newSlashingFreezeDuration",
          "type": "uint32"
        }
      ],
      "name": "setSlashingFreezeDuration",
      "outputs": [],
      "stateMutability": "nonpayable",
      "type": "function"
    }
  ],
  "bytecode": "0x6080346100c457601f61098738819003918201601f19168301916001600160401b038311848410176100c9578084926020946040528339810103126100c457516001600160a01b038116908190036100c45780156100c457662a5a058fc295ed60b61b176000557e194b3203840000000300000008000000000014000422ca8b0a00a425000000600155600280546001600160d01b0319167903c2670000012c00012c00000000000000000000000000000e101790556040516108a790816100e08239f35b600080fd5b634e487b7160e01b600052604160045260246000fdfe6040608081526004908136101561001557600080fd5b600091823560e01c9081630d8d840b14610733578163108778f514610711578163151db1b9146106ea578163175b07f81461069b57816319bd84dc1461064c57816322a0d62914610606578163365a86fc146105de5781633de3fdf4146105b6578163539711571461056a57816357d775f814610542578163862bc131146104fc5781638d73d86a146104d45781638e626242146104af578163998d95dc146104605781639d3ceb0c1461043b578163a387120e146103f2578163b13a8c07146103a0578163b22dd2ca14610378578163b5c6b4531461034b578163b7f854fc146102f6578163cd3e290c146102b0578163d1287dba14610264578163e8d487ff1461023e578163ec5ffac21461021e578163f1b776f5146101f7578163fdf1afa2146101a757508063fee2cb051461017e5763ff2117431461015757600080fd5b3461017a578160031936011261017a5760209060ff60015460e81c169051908152f35b5080fd5b503461017a578160031936011261017a5760209065ffffffffffff60015460601c169051908152f35b9050346101f35760203660031901126101f3573560ff811681036101f3576101cd610774565b600180546001600160f81b031660f89290921b6001600160f81b03191691909117905551f35b8280fd5b50503461017a578160031936011261017a5760209062ffffff60025460981c169051908152f35b50503461017a578160031936011261017a576020915460a01c9051908152f35b50503461017a578160031936011261017a5760209061ffff60015460d01c169051908152f35b9050346101f35760203660031901126101f3573562ffffff811681036101f35761028c610774565b6002805462ffffff60981b191660989290921b62ffffff60981b1691909117905551f35b9050346101f35760203660031901126101f3573560ff811681036101f3576102d6610774565b6001805460ff60e01b191660e09290921b60ff60e01b1691909117905551f35b9050346101f35760203660031901126101f3573565ffffffffffff811681036101f357610321610774565b6001805465ffffffffffff60601b191660609290921b65ffffffffffff60601b1691909117905551f35b50503461017a578160031936011261017a576020906bffffffffffffffffffffffff600154169051908152f35b50503461017a578160031936011261017a5760209063ffffffff60015460901c169051908152f35b9050346101f35760203660031901126101f357356bffffffffffffffffffffffff811681036101f3576103d1610774565b82546001600160a01b031660a09190911b6001600160a01b03191617825551f35b9050346101f35760203660031901126101f3573561ffff811681036101f357610419610774565b6001805461ffff60d01b191660d09290921b61ffff60d01b1691909117905551f35b50503461017a578160031936011261017a5760209060ff60015460f01c169051908152f35b9050346101f35760203660031901126101f3573563ffffffff811681036101f357610489610774565b6002805463ffffffff60b01b191660b09290921b63ffffffff60b01b1691909117905551f35b50503461017a578160031936011261017a5760209060ff60015460e01c169051908152f35b50503461017a578160031936011261017a5760209063ffffffff60015460b01c169051908152f35b9050346101f35760203660031901126101f3573560ff811681036101f357610522610774565b6001805460ff60e81b191660e89290921b60ff60e81b1691909117905551f35b50503461017a578160031936011261017a576020906001600160801b03600254169051908152f35b9050346101f35760203660031901126101f3573562ffffff811681036101f357610592610774565b6002805462ffffff60801b191660809290921b62ffffff60801b1691909117905551f35b50503461017a578160031936011261017a5760209063ffffffff60025460b01c169051908152f35b50503461017a578160031936011261017a57905490516001600160a01b039091168152602090f35b9050346101f35760203660031901126101f3573560ff811681036101f35761062c610774565b6001805460ff60f01b191660f09290921b60ff60f01b1691909117905551f35b9050346101f35760203660031901126101f3573563ffffffff811681036101f357610675610774565b6001805463ffffffff60901b191660909290921b63ffffffff60901b1691909117905551f35b9050346101f35760203660031901126101f3573563ffffffff811681036101f3576106c4610774565b6001805463ffffffff60b01b191660b09290921b63ffffffff60b01b1691909117905551f35b50503461017a578160031936011261017a5760209062ffffff60025460801c169051908152f35b50503461017a578160031936011261017a5760209060015460f81c9051908152f35b9050346101f35760203660031901126101f357356001600160801b0381168091036101f357610760610774565b6001600160801b0319600254161760025551f35b60008054604051638da5cb5b60e01b81526020926001600160a01b039284908390600490829087165afa9182156108645781926107fb575b50501633036107b85750565b6064906040519062461bcd60e51b825280600483015260248201527f466e2063616e206f6e6c79206265207573656420627920687562206f776e65726044820152fd5b909150833d851161085d575b601f8101601f1916820167ffffffffffffffff81118382101761084957859183916040528101031261017a5751908282168203610846575038806107ac565b80fd5b634e487b7160e01b84526041600452602484fd5b503d610807565b50604051903d90823e3d90fdfea2646970667358221220f28306985368a54da7e66ea51368e6ba166e330dd6b8290e621c2cead55d5b9c64736f6c63430008100033",
  "immutableReferences": {},
  "source": "// SPDX-License-Identifier: MIT\n\npragma solidity ^0.8.4;\n\nimport { Hub } from \"../Hub.sol\";\n\ncontract ParametersStorage {\n\n    Hub public hub;\n\n    uint96 public minimumStake;\n    uint96 public maximumStake;\n\n    uint48 public R2;\n    uint32 public R1;\n    uint32 public R0;\n\n    uint16 public commitWindowDuration;\n    uint8 public minProofWindowOffsetPerc;\n    uint8 public maxProofWindowOffsetPerc;\n    uint8 public proofWindowDurationPerc;\n    uint8 public replacementWindowDurationPerc;\n\n    uint128 public epochLength;\n\n    uint24 public stakeWithdrawalDelay;\n    uint24 public rewardWithdrawalDelay;\n    uint32 public slashingFreezeDuration;\n\n    constructor(address hubAddress) {\n        require(hubAddress != address(0));\n\n        hub = Hub(hubAddress);\n\n        minimumStake = 50_000 ether;\n        maximumStake = 5_000_000 ether;\n\n        R2 = 20;\n        R1 = 8;\n        R0 = 3;\n\n        commitWindowDuration = 15 minutes;\n        minProofWindowOffsetPerc = 50;\n        maxProofWindowOffsetPerc = 75;\n        proofWindowDurationPerc = 25;\n        replacementWindowDurationPerc = 0;\n\n        epochLength = 1 hours;\n\n        stakeWithdrawalDelay = 5 minutes;\n        rewardWithdrawalDelay = 5 minutes;\n        slashingFreezeDuration = 730 days;\n    }\n\n    modifier onlyHubOwner() {\n        _checkHubOwner();\n        _;\n    }\n\n    function setMinimumStake(uint96 newMinimumStake) external onlyHubOwner {\n        minimumStake = newMinimumStake;\n    }\n\n    function setR2(uint48 newR2) external onlyHubOwner {\n        R2 = newR2;\n    }\n\n    function setR1(uint32 newR1) external onlyHubOwner {\n        R1 = newR1;\n    }\n\n    function setR0(uint32 newR0) external onlyHubOwner {\n        R0 = newR0;\n    }\n\n    function setCommitWindowDuration(uint16 newCommitWindowDuration) external onlyHubOwner {\n        commitWindowDuration = newCommitWindowDuration;\n    }\n\n    function setMinProofWindowOffsetPerc(uint8 newMinProofWindowOffsetPerc) external onlyHubOwner {\n        minProofWindowOffsetPerc = newMinProofWindowOffsetPerc;\n    }\n\n    function setMaxProofWindowOffsetPerc(uint8 newMaxProofWindowOffsetPerc) external onlyHubOwner {\n        maxProofWindowOffsetPerc = newMaxProofWindowOffsetPerc;\n    }\n\n    function setProofWindowDurationPerc(uint8 newProofWindowDurationPerc) external onlyHubOwner {\n        proofWindowDurationPerc = newProofWindowDurationPerc;\n    }\n\n    function setReplacementWindowDurationPerc(uint8 newReplacementWindowDurationPerc) external onlyHubOwner {\n        replacementWindowDurationPerc = newReplacementWindowDurationPerc;\n    }\n\n    function setEpochLength(uint128 newEpochLength) external onlyHubOwner {\n        epochLength = newEpochLength;\n    }\n\n    function setStakeWithdrawalDelay(uint24 newStakeWithdrawalDelay) external onlyHubOwner {\n        stakeWithdrawalDelay = newStakeWithdrawalDelay;\n    }\n\n    function setRewardWithdrawalDelay(uint24 newRewardWithdrawalDelay) external onlyHubOwner {\n        rewardWithdrawalDelay = newRewardWithdrawalDelay;\n    }\n\n    function setSlashingFreezeDuration(uint32 newSlashingFreezeDuration) external onlyHubOwner {\n        slashingFreezeDuration = newSlashingFreezeDuration;\n    }\n\n    function _checkHubOwner() internal view virtual {\n        require(msg.sender == hub.owner(), \"Fn can only be used by hub owner\");\n    }\n\n}\n",
  "sourcePath": "/Users/waving/Desktop/OriginTrail/dkg-evm-module/contracts/storage/ParametersStorage.sol",
  "compiler": {
    "name": "solc",
    "version": "0.8.16+commit.07a7930e.Emscripten.clang"
  },
  "schemaVersion": "3.4.10",
  "updatedAt": "2022-12-12T09:47:52.153Z",
  "devdoc": {
    "kind": "dev",
    "methods": {},
    "version": 1
  },
  "userdoc": {
    "kind": "user",
    "methods": {},
    "version": 1
  }
}