{
  "contractName": "PLDSF",
  "abi": [
    {
      "inputs": [
        {
          "internalType": "address",
          "name": "hubAddress",
          "type": "address"
        }
      ],
      "stateMutability": "nonpayable",
      "type": "constructor"
    },
    {
      "inputs": [],
      "name": "hub",
      "outputs": [
        {
          "internalType": "contract Hub",
          "name": "",
          "type": "address"
        }
      ],
      "stateMutability": "view",
      "type": "function"
    },
    {
      "inputs": [
        {
          "internalType": "uint256",
          "name": "distance",
          "type": "uint256"
        },
        {
          "internalType": "uint96",
          "name": "stake",
          "type": "uint96"
        }
      ],
      "name": "calculateScore",
      "outputs": [
        {
          "internalType": "uint32",
          "name": "",
          "type": "uint32"
        }
      ],
      "stateMutability": "view",
      "type": "function"
    },
    {
      "inputs": [
        {
          "internalType": "uint8",
          "name": "hashFunctionId",
          "type": "uint8"
        },
        {
          "internalType": "bytes",
          "name": "nodeId",
          "type": "bytes"
        },
        {
          "internalType": "bytes",
          "name": "keyword",
          "type": "bytes"
        }
      ],
      "name": "calculateDistance",
      "outputs": [
        {
          "internalType": "uint256",
          "name": "",
          "type": "uint256"
        }
      ],
      "stateMutability": "nonpayable",
      "type": "function"
    },
    {
      "inputs": [
        {
          "internalType": "uint32",
          "name": "a_",
          "type": "uint32"
        }
      ],
      "name": "setA",
      "outputs": [],
      "stateMutability": "nonpayable",
      "type": "function"
    },
    {
      "inputs": [
        {
          "internalType": "uint32",
          "name": "stakeExponent_",
          "type": "uint32"
        }
      ],
      "name": "setStakeExponent",
      "outputs": [],
      "stateMutability": "nonpayable",
      "type": "function"
    },
    {
      "inputs": [
        {
          "internalType": "uint32",
          "name": "b_",
          "type": "uint32"
        }
      ],
      "name": "setB",
      "outputs": [],
      "stateMutability": "nonpayable",
      "type": "function"
    },
    {
      "inputs": [
        {
          "internalType": "uint32",
          "name": "c_",
          "type": "uint32"
        }
      ],
      "name": "setC",
      "outputs": [],
      "stateMutability": "nonpayable",
      "type": "function"
    },
    {
      "inputs": [
        {
          "internalType": "uint32",
          "name": "distanceExponent_",
          "type": "uint32"
        }
      ],
      "name": "setDistanceExponent",
      "outputs": [],
      "stateMutability": "nonpayable",
      "type": "function"
    },
    {
      "inputs": [
        {
          "internalType": "uint32",
          "name": "d_",
          "type": "uint32"
        }
      ],
      "name": "setD",
      "outputs": [],
      "stateMutability": "nonpayable",
      "type": "function"
    }
  ],
  "bytecode": "0x60806040523480156200001157600080fd5b50604051620014d6380380620014d68339818101604052810190620000379190620001fc565b600073ffffffffffffffffffffffffffffffffffffffff168173ffffffffffffffffffffffffffffffffffffffff16036200007157600080fd5b806000806101000a81548173ffffffffffffffffffffffffffffffffffffffff021916908373ffffffffffffffffffffffffffffffffffffffff1602179055506001600060146101000a81548167ffffffffffffffff021916908367ffffffffffffffff16021790555060016000601c6101000a81548163ffffffff021916908363ffffffff1602179055506000600160006101000a81548163ffffffff021916908363ffffffff16021790555060018060046101000a81548167ffffffffffffffff021916908367ffffffffffffffff160217905550600180600c6101000a81548163ffffffff021916908363ffffffff1602179055506000600160106101000a81548163ffffffff021916908363ffffffff160217905550506200022e565b600080fd5b600073ffffffffffffffffffffffffffffffffffffffff82169050919050565b6000620001c48262000197565b9050919050565b620001d681620001b7565b8114620001e257600080fd5b50565b600081519050620001f681620001cb565b92915050565b60006020828403121562000215576200021462000192565b5b60006200022584828501620001e5565b91505092915050565b611298806200023e6000396000f3fe608060405234801561001057600080fd5b50600436106100935760003560e01c80634f103353116100665780634f1033531461011e5780637525e9e81461013a578063a0db80ad14610156578063bd8aad2714610186578063ecfb34bf146101a257610093565b8063274e196214610098578063365a86fc146100c857806339581169146100e65780634212a54e14610102575b600080fd5b6100b260048036038101906100ad9190610c5f565b6101be565b6040516100bf9190610d03565b60405180910390f35b6100d0610371565b6040516100dd9190610d9d565b60405180910390f35b61010060048036038101906100fb9190610df4565b610395565b005b61011c60048036038101906101179190610df4565b6104b5565b005b61013860048036038101906101339190610df4565b6105e3565b005b610154600480360381019061014f9190610df4565b610703565b005b610170600480360381019061016b9190610e91565b610823565b60405161017d9190610ee0565b60405180910390f35b6101a0600480360381019061019b9190610df4565b61087e565b005b6101bc60048036038101906101b79190610df4565b6109ac565b005b60008060008054906101000a900473ffffffffffffffffffffffffffffffffffffffff1673ffffffffffffffffffffffffffffffffffffffff166304433bbc6040518163ffffffff1660e01b815260040161021890610f58565b602060405180830381865afa158015610235573d6000803e3d6000fd5b505050506040513d601f19601f820116820180604052508101906102599190610fb6565b905060008173ffffffffffffffffffffffffffffffffffffffff166345ed59e587876040518363ffffffff1660e01b815260040161029892919061107a565b6020604051808303816000875af11580156102b7573d6000803e3d6000fd5b505050506040513d601f19601f820116820180604052508101906102db91906110e0565b905060008273ffffffffffffffffffffffffffffffffffffffff166345ed59e588876040518363ffffffff1660e01b815260040161031a92919061107a565b6020604051808303816000875af1158015610339573d6000803e3d6000fd5b505050506040513d601f19601f8201168201806040525081019061035d91906110e0565b905080821860001c93505050509392505050565b60008054906101000a900473ffffffffffffffffffffffffffffffffffffffff1681565b60008054906101000a900473ffffffffffffffffffffffffffffffffffffffff1673ffffffffffffffffffffffffffffffffffffffff16638da5cb5b6040518163ffffffff1660e01b8152600401602060405180830381865afa158015610400573d6000803e3d6000fd5b505050506040513d601f19601f820116820180604052508101906104249190610fb6565b73ffffffffffffffffffffffffffffffffffffffff163373ffffffffffffffffffffffffffffffffffffffff1614610491576040517f08c379a00000000000000000000000000000000000000000000000000000000081526004016104889061117f565b60405180910390fd5b806000601c6101000a81548163ffffffff021916908363ffffffff16021790555050565b60008054906101000a900473ffffffffffffffffffffffffffffffffffffffff1673ffffffffffffffffffffffffffffffffffffffff16638da5cb5b6040518163ffffffff1660e01b8152600401602060405180830381865afa158015610520573d6000803e3d6000fd5b505050506040513d601f19601f820116820180604052508101906105449190610fb6565b73ffffffffffffffffffffffffffffffffffffffff163373ffffffffffffffffffffffffffffffffffffffff16146105b1576040517f08c379a00000000000000000000000000000000000000000000000000000000081526004016105a89061117f565b60405180910390fd5b8063ffffffff16600160046101000a81548167ffffffffffffffff021916908367ffffffffffffffff16021790555050565b60008054906101000a900473ffffffffffffffffffffffffffffffffffffffff1673ffffffffffffffffffffffffffffffffffffffff16638da5cb5b6040518163ffffffff1660e01b8152600401602060405180830381865afa15801561064e573d6000803e3d6000fd5b505050506040513d601f19601f820116820180604052508101906106729190610fb6565b73ffffffffffffffffffffffffffffffffffffffff163373ffffffffffffffffffffffffffffffffffffffff16146106df576040517f08c379a00000000000000000000000000000000000000000000000000000000081526004016106d69061117f565b60405180910390fd5b80600160006101000a81548163ffffffff021916908363ffffffff16021790555050565b60008054906101000a900473ffffffffffffffffffffffffffffffffffffffff1673ffffffffffffffffffffffffffffffffffffffff16638da5cb5b6040518163ffffffff1660e01b8152600401602060405180830381865afa15801561076e573d6000803e3d6000fd5b505050506040513d601f19601f820116820180604052508101906107929190610fb6565b73ffffffffffffffffffffffffffffffffffffffff163373ffffffffffffffffffffffffffffffffffffffff16146107ff576040517f08c379a00000000000000000000000000000000000000000000000000000000081526004016107f69061117f565b60405180910390fd5b806001600c6101000a81548163ffffffff021916908363ffffffff16021790555050565b60008063ffffffff80167fffffffffffffffffffffffffffffffffffffffffffffffffffffffffffffffff61085891906111fd565b9050808461086691906111fd565b63ffffffff610875919061122e565b91505092915050565b60008054906101000a900473ffffffffffffffffffffffffffffffffffffffff1673ffffffffffffffffffffffffffffffffffffffff16638da5cb5b6040518163ffffffff1660e01b8152600401602060405180830381865afa1580156108e9573d6000803e3d6000fd5b505050506040513d601f19601f8201168201806040525081019061090d9190610fb6565b73ffffffffffffffffffffffffffffffffffffffff163373ffffffffffffffffffffffffffffffffffffffff161461097a576040517f08c379a00000000000000000000000000000000000000000000000000000000081526004016109719061117f565b60405180910390fd5b8063ffffffff16600060146101000a81548167ffffffffffffffff021916908367ffffffffffffffff16021790555050565b60008054906101000a900473ffffffffffffffffffffffffffffffffffffffff1673ffffffffffffffffffffffffffffffffffffffff16638da5cb5b6040518163ffffffff1660e01b8152600401602060405180830381865afa158015610a17573d6000803e3d6000fd5b505050506040513d601f19601f82011682018060405250810190610a3b9190610fb6565b73ffffffffffffffffffffffffffffffffffffffff163373ffffffffffffffffffffffffffffffffffffffff1614610aa8576040517f08c379a0000000000000000000000000000000000000000000000000000000008152600401610a9f9061117f565b60405180910390fd5b80600160106101000a81548163ffffffff021916908363ffffffff16021790555050565b6000604051905090565b600080fd5b600080fd5b600060ff82169050919050565b610af681610ae0565b8114610b0157600080fd5b50565b600081359050610b1381610aed565b92915050565b600080fd5b600080fd5b6000601f19601f8301169050919050565b7f4e487b7100000000000000000000000000000000000000000000000000000000600052604160045260246000fd5b610b6c82610b23565b810181811067ffffffffffffffff82111715610b8b57610b8a610b34565b5b80604052505050565b6000610b9e610acc565b9050610baa8282610b63565b919050565b600067ffffffffffffffff821115610bca57610bc9610b34565b5b610bd382610b23565b9050602081019050919050565b82818337600083830152505050565b6000610c02610bfd84610baf565b610b94565b905082815260208101848484011115610c1e57610c1d610b1e565b5b610c29848285610be0565b509392505050565b600082601f830112610c4657610c45610b19565b5b8135610c56848260208601610bef565b91505092915050565b600080600060608486031215610c7857610c77610ad6565b5b6000610c8686828701610b04565b935050602084013567ffffffffffffffff811115610ca757610ca6610adb565b5b610cb386828701610c31565b925050604084013567ffffffffffffffff811115610cd457610cd3610adb565b5b610ce086828701610c31565b9150509250925092565b6000819050919050565b610cfd81610cea565b82525050565b6000602082019050610d186000830184610cf4565b92915050565b600073ffffffffffffffffffffffffffffffffffffffff82169050919050565b6000819050919050565b6000610d63610d5e610d5984610d1e565b610d3e565b610d1e565b9050919050565b6000610d7582610d48565b9050919050565b6000610d8782610d6a565b9050919050565b610d9781610d7c565b82525050565b6000602082019050610db26000830184610d8e565b92915050565b600063ffffffff82169050919050565b610dd181610db8565b8114610ddc57600080fd5b50565b600081359050610dee81610dc8565b92915050565b600060208284031215610e0a57610e09610ad6565b5b6000610e1884828501610ddf565b91505092915050565b610e2a81610cea565b8114610e3557600080fd5b50565b600081359050610e4781610e21565b92915050565b60006bffffffffffffffffffffffff82169050919050565b610e6e81610e4d565b8114610e7957600080fd5b50565b600081359050610e8b81610e65565b92915050565b60008060408385031215610ea857610ea7610ad6565b5b6000610eb685828601610e38565b9250506020610ec785828601610e7c565b9150509250929050565b610eda81610db8565b82525050565b6000602082019050610ef56000830184610ed1565b92915050565b600082825260208201905092915050565b7f48617368696e6750726f78790000000000000000000000000000000000000000600082015250565b6000610f42600c83610efb565b9150610f4d82610f0c565b602082019050919050565b60006020820190508181036000830152610f7181610f35565b9050919050565b6000610f8382610d1e565b9050919050565b610f9381610f78565b8114610f9e57600080fd5b50565b600081519050610fb081610f8a565b92915050565b600060208284031215610fcc57610fcb610ad6565b5b6000610fda84828501610fa1565b91505092915050565b610fec81610ae0565b82525050565b600081519050919050565b600082825260208201905092915050565b60005b8381101561102c578082015181840152602081019050611011565b8381111561103b576000848401525b50505050565b600061104c82610ff2565b6110568185610ffd565b935061106681856020860161100e565b61106f81610b23565b840191505092915050565b600060408201905061108f6000830185610fe3565b81810360208301526110a18184611041565b90509392505050565b6000819050919050565b6110bd816110aa565b81146110c857600080fd5b50565b6000815190506110da816110b4565b92915050565b6000602082840312156110f6576110f5610ad6565b5b6000611104848285016110cb565b91505092915050565b7f46756e6374696f6e2063616e206f6e6c792062652063616c6c6564206279206860008201527f7562206f776e6572000000000000000000000000000000000000000000000000602082015250565b6000611169602883610efb565b91506111748261110d565b604082019050919050565b600060208201905081810360008301526111988161115c565b9050919050565b7f4e487b7100000000000000000000000000000000000000000000000000000000600052601260045260246000fd5b7f4e487b7100000000000000000000000000000000000000000000000000000000600052601160045260246000fd5b600061120882610cea565b915061121383610cea565b9250826112235761122261119f565b5b828204905092915050565b600061123982610db8565b915061124483610db8565b925082821015611257576112566111ce565b5b82820390509291505056fea26469706673582212202592f98a28777ff7499e738eafd126f8dc4b818463b8b6560da77db8acdc2b6964736f6c634300080e0033",
  "immutableReferences": {},
  "source": "// SPDX-License-Identifier: MIT\n\npragma solidity ^0.8.0;\n\nimport { HashingProxy } from \"../HashingProxy.sol\";\nimport { Hub } from \"../Hub.sol\";\nimport { IScoreFunction } from \"../interface/IScoreFunction.sol\";\n\n// Polynomial Long Division Scoring Function\ncontract PLDSF is IScoreFunction {\n    Hub public hub;\n\n    uint64 private _a;\n    uint32 private _stakeExponent;\n    uint32 private _b;\n    uint64 private _c;\n    uint32 private _distanceExponent;\n    uint32 private _d;\n\n    constructor(address hubAddress) {\n        require(hubAddress != address(0));\n        hub = Hub(hubAddress);\n\n        _a = 1;\n        _stakeExponent = 1;\n        _b = 0;\n        _c = 1;\n        _distanceExponent = 1;\n        _d = 0;\n    }\n\n    modifier onlyHubOwner() {\n        require (\n            msg.sender == hub.owner(),\n            \"Function can only be called by hub owner\"\n        );\n        _;\n    }\n\n    function calculateScore(uint256 distance, uint96 stake)\n        public\n        view\n        returns (uint32)\n    {\n        uint256 mappingCoefficient = type(uint256).max / type(uint32).max;\n        // return uint32((_a * stake^_stakeExponent + _b) / (_c * distance^_distanceExponent + _d) / mappingCoefficient);\n        return type(uint32).max - uint32(distance / mappingCoefficient);\n    }\n\n    function calculateDistance(uint8 hashFunctionId, bytes memory nodeId, bytes memory keyword)\n        public\n        returns (uint256)\n    {\n        HashingProxy hashingProxy = HashingProxy(hub.getContractAddress(\"HashingProxy\"));\n        bytes32 nodeIdHash = hashingProxy.callHashFunction(hashFunctionId, nodeId);\n        bytes32 keywordHash = hashingProxy.callHashFunction(hashFunctionId, keyword);\n\n        return uint256(nodeIdHash ^ keywordHash);\n    }\n\n    function setA(uint32 a_)\n        public\n        onlyHubOwner\n    {\n        _a = a_;\n    }\n\n    function setStakeExponent(uint32 stakeExponent_)\n        public\n        onlyHubOwner\n    {\n        _stakeExponent = stakeExponent_;\n    }\n\n    function setB(uint32 b_)\n        public\n        onlyHubOwner\n    {\n        _b = b_;\n    }\n\n    function setC(uint32 c_)\n        public\n        onlyHubOwner\n    {\n        _c = c_;\n    }\n\n    function setDistanceExponent(uint32 distanceExponent_)\n        public\n        onlyHubOwner\n    {\n        _distanceExponent = distanceExponent_;\n    }\n\n    function setD(uint32 d_)\n        public\n        onlyHubOwner\n    {\n        _d = d_;\n    }\n}\n",
  "sourcePath": "/Users/waving/Desktop/OriginTrail/dkg-evm-module/contracts/scoring/pldsf.sol",
  "compiler": {
    "name": "solc",
    "version": "0.8.14+commit.80d49f37.Emscripten.clang"
  },
  "schemaVersion": "3.4.10",
  "updatedAt": "2022-11-21T10:31:02.634Z",
  "devdoc": {
    "kind": "dev",
    "methods": {},
    "version": 1
  },
  "userdoc": {
    "kind": "user",
    "methods": {},
    "version": 1
  }
}