{
  "contractName": "PLDSF",
  "abi": [
    {
      "inputs": [
        {
          "internalType": "address",
          "name": "hubAddress",
          "type": "address"
        }
      ],
      "stateMutability": "nonpayable",
      "type": "constructor"
    },
    {
      "inputs": [],
      "name": "hub",
      "outputs": [
        {
          "internalType": "contract Hub",
          "name": "",
          "type": "address"
        }
      ],
      "stateMutability": "view",
      "type": "function"
    },
    {
      "inputs": [
        {
          "internalType": "uint256",
          "name": "distance",
          "type": "uint256"
        },
        {
          "internalType": "uint96",
          "name": "stake",
          "type": "uint96"
        }
      ],
      "name": "calculateScore",
      "outputs": [
        {
          "internalType": "uint32",
          "name": "",
          "type": "uint32"
        }
      ],
      "stateMutability": "view",
      "type": "function"
    },
    {
      "inputs": [
        {
          "internalType": "uint8",
          "name": "hashingFunctionId",
          "type": "uint8"
        },
        {
          "internalType": "bytes",
          "name": "nodeId",
          "type": "bytes"
        },
        {
          "internalType": "bytes",
          "name": "keyword",
          "type": "bytes"
        }
      ],
      "name": "calculateDistance",
      "outputs": [
        {
          "internalType": "uint256",
          "name": "",
          "type": "uint256"
        }
      ],
      "stateMutability": "nonpayable",
      "type": "function"
    },
    {
      "inputs": [
        {
          "internalType": "uint32",
          "name": "a_",
          "type": "uint32"
        }
      ],
      "name": "setA",
      "outputs": [],
      "stateMutability": "nonpayable",
      "type": "function"
    },
    {
      "inputs": [
        {
          "internalType": "uint32",
          "name": "stakeExponent_",
          "type": "uint32"
        }
      ],
      "name": "setStakeExponent",
      "outputs": [],
      "stateMutability": "nonpayable",
      "type": "function"
    },
    {
      "inputs": [
        {
          "internalType": "uint32",
          "name": "b_",
          "type": "uint32"
        }
      ],
      "name": "setB",
      "outputs": [],
      "stateMutability": "nonpayable",
      "type": "function"
    },
    {
      "inputs": [
        {
          "internalType": "uint32",
          "name": "c_",
          "type": "uint32"
        }
      ],
      "name": "setC",
      "outputs": [],
      "stateMutability": "nonpayable",
      "type": "function"
    },
    {
      "inputs": [
        {
          "internalType": "uint32",
          "name": "distanceExponent_",
          "type": "uint32"
        }
      ],
      "name": "setDistanceExponent",
      "outputs": [],
      "stateMutability": "nonpayable",
      "type": "function"
    },
    {
      "inputs": [
        {
          "internalType": "uint32",
          "name": "d_",
          "type": "uint32"
        }
      ],
      "name": "setD",
      "outputs": [],
      "stateMutability": "nonpayable",
      "type": "function"
    }
  ],
  "bytecode": "0x60806040523480156200001157600080fd5b506040516200150338038062001503833981810160405281019062000037919062000122565b600073ffffffffffffffffffffffffffffffffffffffff168173ffffffffffffffffffffffffffffffffffffffff16036200007157600080fd5b806000806101000a81548173ffffffffffffffffffffffffffffffffffffffff021916908373ffffffffffffffffffffffffffffffffffffffff1602179055505062000154565b600080fd5b600073ffffffffffffffffffffffffffffffffffffffff82169050919050565b6000620000ea82620000bd565b9050919050565b620000fc81620000dd565b81146200010857600080fd5b50565b6000815190506200011c81620000f1565b92915050565b6000602082840312156200013b576200013a620000b8565b5b60006200014b848285016200010b565b91505092915050565b61139f80620001646000396000f3fe608060405234801561001057600080fd5b50600436106100935760003560e01c80634f103353116100665780634f1033531461011e5780637525e9e81461013a578063a0db80ad14610156578063bd8aad2714610186578063ecfb34bf146101a257610093565b8063274e196214610098578063365a86fc146100c857806339581169146100e65780634212a54e14610102575b600080fd5b6100b260048036038101906100ad9190610cc0565b6101be565b6040516100bf9190610d64565b60405180910390f35b6100d0610371565b6040516100dd9190610dfe565b60405180910390f35b61010060048036038101906100fb9190610e55565b610395565b005b61011c60048036038101906101179190610e55565b6104b5565b005b61013860048036038101906101339190610e55565b6105d5565b005b610154600480360381019061014f9190610e55565b6106f5565b005b610170600480360381019061016b9190610ef2565b610815565b60405161017d9190610f41565b60405180910390f35b6101a0600480360381019061019b9190610e55565b6108ed565b005b6101bc60048036038101906101b79190610e55565b610a0d565b005b60008060008054906101000a900473ffffffffffffffffffffffffffffffffffffffff1673ffffffffffffffffffffffffffffffffffffffff166304433bbc6040518163ffffffff1660e01b815260040161021890610fb9565b602060405180830381865afa158015610235573d6000803e3d6000fd5b505050506040513d601f19601f820116820180604052508101906102599190611017565b905060008173ffffffffffffffffffffffffffffffffffffffff1663a2113a6687876040518363ffffffff1660e01b81526004016102989291906110db565b6020604051808303816000875af11580156102b7573d6000803e3d6000fd5b505050506040513d601f19601f820116820180604052508101906102db9190611141565b905060008273ffffffffffffffffffffffffffffffffffffffff1663a2113a6688876040518363ffffffff1660e01b815260040161031a9291906110db565b6020604051808303816000875af1158015610339573d6000803e3d6000fd5b505050506040513d601f19601f8201168201806040525081019061035d9190611141565b905080821860001c93505050509392505050565b60008054906101000a900473ffffffffffffffffffffffffffffffffffffffff1681565b60008054906101000a900473ffffffffffffffffffffffffffffffffffffffff1673ffffffffffffffffffffffffffffffffffffffff16638da5cb5b6040518163ffffffff1660e01b8152600401602060405180830381865afa158015610400573d6000803e3d6000fd5b505050506040513d601f19601f820116820180604052508101906104249190611017565b73ffffffffffffffffffffffffffffffffffffffff163373ffffffffffffffffffffffffffffffffffffffff1614610491576040517f08c379a0000000000000000000000000000000000000000000000000000000008152600401610488906111e0565b60405180910390fd5b80600060186101000a81548163ffffffff021916908363ffffffff16021790555050565b60008054906101000a900473ffffffffffffffffffffffffffffffffffffffff1673ffffffffffffffffffffffffffffffffffffffff16638da5cb5b6040518163ffffffff1660e01b8152600401602060405180830381865afa158015610520573d6000803e3d6000fd5b505050506040513d601f19601f820116820180604052508101906105449190611017565b73ffffffffffffffffffffffffffffffffffffffff163373ffffffffffffffffffffffffffffffffffffffff16146105b1576040517f08c379a00000000000000000000000000000000000000000000000000000000081526004016105a8906111e0565b60405180910390fd5b80600160006101000a81548163ffffffff021916908363ffffffff16021790555050565b60008054906101000a900473ffffffffffffffffffffffffffffffffffffffff1673ffffffffffffffffffffffffffffffffffffffff16638da5cb5b6040518163ffffffff1660e01b8152600401602060405180830381865afa158015610640573d6000803e3d6000fd5b505050506040513d601f19601f820116820180604052508101906106649190611017565b73ffffffffffffffffffffffffffffffffffffffff163373ffffffffffffffffffffffffffffffffffffffff16146106d1576040517f08c379a00000000000000000000000000000000000000000000000000000000081526004016106c8906111e0565b60405180910390fd5b806000601c6101000a81548163ffffffff021916908363ffffffff16021790555050565b60008054906101000a900473ffffffffffffffffffffffffffffffffffffffff1673ffffffffffffffffffffffffffffffffffffffff16638da5cb5b6040518163ffffffff1660e01b8152600401602060405180830381865afa158015610760573d6000803e3d6000fd5b505050506040513d601f19601f820116820180604052508101906107849190611017565b73ffffffffffffffffffffffffffffffffffffffff163373ffffffffffffffffffffffffffffffffffffffff16146107f1576040517f08c379a00000000000000000000000000000000000000000000000000000000081526004016107e8906111e0565b60405180910390fd5b80600160046101000a81548163ffffffff021916908363ffffffff16021790555050565b6000600160089054906101000a900463ffffffff16600160049054906101000a900463ffffffff16610847919061122f565b63ffffffff1683600160009054906101000a900463ffffffff1663ffffffff166108719190611269565b186000601c9054906101000a900463ffffffff16600060189054906101000a900463ffffffff166108a2919061122f565b63ffffffff1683600060149054906101000a900463ffffffff1663ffffffff166108cc91906112c3565b186bffffffffffffffffffffffff166108e59190611338565b905092915050565b60008054906101000a900473ffffffffffffffffffffffffffffffffffffffff1673ffffffffffffffffffffffffffffffffffffffff16638da5cb5b6040518163ffffffff1660e01b8152600401602060405180830381865afa158015610958573d6000803e3d6000fd5b505050506040513d601f19601f8201168201806040525081019061097c9190611017565b73ffffffffffffffffffffffffffffffffffffffff163373ffffffffffffffffffffffffffffffffffffffff16146109e9576040517f08c379a00000000000000000000000000000000000000000000000000000000081526004016109e0906111e0565b60405180910390fd5b80600060146101000a81548163ffffffff021916908363ffffffff16021790555050565b60008054906101000a900473ffffffffffffffffffffffffffffffffffffffff1673ffffffffffffffffffffffffffffffffffffffff16638da5cb5b6040518163ffffffff1660e01b8152600401602060405180830381865afa158015610a78573d6000803e3d6000fd5b505050506040513d601f19601f82011682018060405250810190610a9c9190611017565b73ffffffffffffffffffffffffffffffffffffffff163373ffffffffffffffffffffffffffffffffffffffff1614610b09576040517f08c379a0000000000000000000000000000000000000000000000000000000008152600401610b00906111e0565b60405180910390fd5b80600160086101000a81548163ffffffff021916908363ffffffff16021790555050565b6000604051905090565b600080fd5b600080fd5b600060ff82169050919050565b610b5781610b41565b8114610b6257600080fd5b50565b600081359050610b7481610b4e565b92915050565b600080fd5b600080fd5b6000601f19601f8301169050919050565b7f4e487b7100000000000000000000000000000000000000000000000000000000600052604160045260246000fd5b610bcd82610b84565b810181811067ffffffffffffffff82111715610bec57610beb610b95565b5b80604052505050565b6000610bff610b2d565b9050610c0b8282610bc4565b919050565b600067ffffffffffffffff821115610c2b57610c2a610b95565b5b610c3482610b84565b9050602081019050919050565b82818337600083830152505050565b6000610c63610c5e84610c10565b610bf5565b905082815260208101848484011115610c7f57610c7e610b7f565b5b610c8a848285610c41565b509392505050565b600082601f830112610ca757610ca6610b7a565b5b8135610cb7848260208601610c50565b91505092915050565b600080600060608486031215610cd957610cd8610b37565b5b6000610ce786828701610b65565b935050602084013567ffffffffffffffff811115610d0857610d07610b3c565b5b610d1486828701610c92565b925050604084013567ffffffffffffffff811115610d3557610d34610b3c565b5b610d4186828701610c92565b9150509250925092565b6000819050919050565b610d5e81610d4b565b82525050565b6000602082019050610d796000830184610d55565b92915050565b600073ffffffffffffffffffffffffffffffffffffffff82169050919050565b6000819050919050565b6000610dc4610dbf610dba84610d7f565b610d9f565b610d7f565b9050919050565b6000610dd682610da9565b9050919050565b6000610de882610dcb565b9050919050565b610df881610ddd565b82525050565b6000602082019050610e136000830184610def565b92915050565b600063ffffffff82169050919050565b610e3281610e19565b8114610e3d57600080fd5b50565b600081359050610e4f81610e29565b92915050565b600060208284031215610e6b57610e6a610b37565b5b6000610e7984828501610e40565b91505092915050565b610e8b81610d4b565b8114610e9657600080fd5b50565b600081359050610ea881610e82565b92915050565b60006bffffffffffffffffffffffff82169050919050565b610ecf81610eae565b8114610eda57600080fd5b50565b600081359050610eec81610ec6565b92915050565b60008060408385031215610f0957610f08610b37565b5b6000610f1785828601610e99565b9250506020610f2885828601610edd565b9150509250929050565b610f3b81610e19565b82525050565b6000602082019050610f566000830184610f32565b92915050565b600082825260208201905092915050565b7f48617368696e6750726f78790000000000000000000000000000000000000000600082015250565b6000610fa3600c83610f5c565b9150610fae82610f6d565b602082019050919050565b60006020820190508181036000830152610fd281610f96565b9050919050565b6000610fe482610d7f565b9050919050565b610ff481610fd9565b8114610fff57600080fd5b50565b60008151905061101181610feb565b92915050565b60006020828403121561102d5761102c610b37565b5b600061103b84828501611002565b91505092915050565b61104d81610b41565b82525050565b600081519050919050565b600082825260208201905092915050565b60005b8381101561108d578082015181840152602081019050611072565b8381111561109c576000848401525b50505050565b60006110ad82611053565b6110b7818561105e565b93506110c781856020860161106f565b6110d081610b84565b840191505092915050565b60006040820190506110f06000830185611044565b818103602083015261110281846110a2565b90509392505050565b6000819050919050565b61111e8161110b565b811461112957600080fd5b50565b60008151905061113b81611115565b92915050565b60006020828403121561115757611156610b37565b5b60006111658482850161112c565b91505092915050565b7f46756e6374696f6e2063616e206f6e6c792062652063616c6c6564206279206860008201527f7562206f776e6572000000000000000000000000000000000000000000000000602082015250565b60006111ca602883610f5c565b91506111d58261116e565b604082019050919050565b600060208201905081810360008301526111f9816111bd565b9050919050565b7f4e487b7100000000000000000000000000000000000000000000000000000000600052601160045260246000fd5b600061123a82610e19565b915061124583610e19565b92508263ffffffff0382111561125e5761125d611200565b5b828201905092915050565b600061127482610d4b565b915061127f83610d4b565b9250817fffffffffffffffffffffffffffffffffffffffffffffffffffffffffffffffff04831182151516156112b8576112b7611200565b5b828202905092915050565b60006112ce82610eae565b91506112d983610eae565b9250816bffffffffffffffffffffffff04831182151516156112fe576112fd611200565b5b828202905092915050565b7f4e487b7100000000000000000000000000000000000000000000000000000000600052601260045260246000fd5b600061134382610d4b565b915061134e83610d4b565b92508261135e5761135d611309565b5b82820490509291505056fea26469706673582212205ab6bf8a9d589909a2fc1642156c59da676de9168fdb59694830cb9256b012a264736f6c634300080e0033",
  "immutableReferences": {},
  "source": "// SPDX-License-Identifier: MIT\n\npragma solidity ^0.8.0;\n\nimport { HashingProxy } from \"../HashingProxy.sol\";\nimport { Hub } from \"../Hub.sol\";\nimport { IScoringFunction } from \"../interface/ScoringFunction.sol\";\n\n// Polynomial Long Division Scoring Function\ncontract PLDSF is IScoringFunction {\n    Hub public hub;\n\n    uint32 private _a;\n    uint32 private _stakeExponent;\n    uint32 private _b;\n    uint32 private _c;\n    uint32 private _distanceExponent;\n    uint32 private _d;\n\n    constructor(address hubAddress) {\n        require(hubAddress != address(0));\n        hub = Hub(hubAddress);\n    }\n\n    modifier onlyHubOwner() {\n        require (\n            msg.sender == hub.owner(),\n            \"Function can only be called by hub owner\"\n        );\n        _;\n    }\n\n    function calculateScore(uint256 distance, uint96 stake)\n        public\n        view\n        returns (uint32)\n    {\n        // VERIFY: uint256 -> uint32 casting\n        return uint32((_a * stake^_stakeExponent + _b) / (_c * distance^_distanceExponent + _d));\n    }\n\n    function calculateDistance(uint8 hashingFunctionId, bytes memory nodeId, bytes memory keyword)\n        public\n        returns (uint256)\n    {\n        HashingProxy hashingProxy = HashingProxy(hub.getContractAddress(\"HashingProxy\"));\n        bytes32 nodeIdHash = hashingProxy.callHashingFunction(hashingFunctionId, nodeId);\n        bytes32 keywordHash = hashingProxy.callHashingFunction(hashingFunctionId, keyword);\n\n        return uint256(nodeIdHash ^ keywordHash);\n    }\n\n    function setA(uint32 a_)\n        public\n        onlyHubOwner\n    {\n        _a = a_;\n    }\n\n    function setStakeExponent(uint32 stakeExponent_)\n        public\n        onlyHubOwner\n    {\n        _stakeExponent = stakeExponent_;\n    }\n\n    function setB(uint32 b_)\n        public\n        onlyHubOwner\n    {\n        _b = b_;\n    }\n\n    function setC(uint32 c_)\n        public\n        onlyHubOwner\n    {\n        _c = c_;\n    }\n\n    function setDistanceExponent(uint32 distanceExponent_)\n        public\n        onlyHubOwner\n    {\n        _distanceExponent = distanceExponent_;\n    }\n\n    function setD(uint32 d_)\n        public\n        onlyHubOwner\n    {\n        _d = d_;\n    }\n}\n",
  "sourcePath": "/Users/waving/Desktop/OriginTrail/dkg-evm-module/contracts/scoring/pldsf.sol",
  "compiler": {
    "name": "solc",
    "version": "0.8.14+commit.80d49f37.Emscripten.clang"
  },
  "schemaVersion": "3.4.10",
  "updatedAt": "2022-11-16T11:11:18.799Z",
  "devdoc": {
    "kind": "dev",
    "methods": {},
    "version": 1
  },
  "userdoc": {
    "kind": "user",
    "methods": {},
    "version": 1
  }
}