{
  "contractName": "ProfileStorage",
  "abi": [
    {
      "inputs": [
        {
          "internalType": "address",
          "name": "hubAddress",
          "type": "address"
        }
      ],
      "stateMutability": "nonpayable",
      "type": "constructor"
    },
    {
      "anonymous": false,
      "inputs": [
        {
          "indexed": true,
          "internalType": "uint72",
          "name": "identityId",
          "type": "uint72"
        },
        {
          "indexed": false,
          "internalType": "uint96",
          "name": "ask",
          "type": "uint96"
        }
      ],
      "name": "AskUpdated",
      "type": "event"
    },
    {
      "anonymous": false,
      "inputs": [
        {
          "indexed": true,
          "internalType": "uint72",
          "name": "identityId",
          "type": "uint72"
        },
        {
          "indexed": false,
          "internalType": "uint96",
          "name": "ask",
          "type": "uint96"
        }
      ],
      "name": "ProfileCreated",
      "type": "event"
    },
    {
      "anonymous": false,
      "inputs": [
        {
          "indexed": true,
          "internalType": "uint72",
          "name": "identityId",
          "type": "uint72"
        }
      ],
      "name": "ProfileDeleted",
      "type": "event"
    },
    {
      "anonymous": false,
      "inputs": [
        {
          "indexed": true,
          "internalType": "uint72",
          "name": "identityId",
          "type": "uint72"
        },
        {
          "indexed": false,
          "internalType": "address",
          "name": "sharesContractAddress",
          "type": "address"
        }
      ],
      "name": "SharesContractUpdated",
      "type": "event"
    },
    {
      "inputs": [],
      "name": "hashingProxy",
      "outputs": [
        {
          "internalType": "contract HashingProxy",
          "name": "",
          "type": "address"
        }
      ],
      "stateMutability": "view",
      "type": "function"
    },
    {
      "inputs": [],
      "name": "hub",
      "outputs": [
        {
          "internalType": "contract Hub",
          "name": "",
          "type": "address"
        }
      ],
      "stateMutability": "view",
      "type": "function"
    },
    {
      "inputs": [
        {
          "internalType": "bytes",
          "name": "",
          "type": "bytes"
        }
      ],
      "name": "nodeIdsList",
      "outputs": [
        {
          "internalType": "bool",
          "name": "",
          "type": "bool"
        }
      ],
      "stateMutability": "view",
      "type": "function"
    },
    {
      "inputs": [],
      "name": "tokenContract",
      "outputs": [
        {
          "internalType": "contract IERC20",
          "name": "",
          "type": "address"
        }
      ],
      "stateMutability": "view",
      "type": "function"
    },
    {
      "inputs": [
        {
          "internalType": "uint72",
          "name": "identityId",
          "type": "uint72"
        },
        {
          "internalType": "bytes",
          "name": "nodeId",
          "type": "bytes"
        },
        {
          "internalType": "uint96",
          "name": "ask",
          "type": "uint96"
        },
        {
          "internalType": "address",
          "name": "sharesContractAddress",
          "type": "address"
        }
      ],
      "name": "createProfile",
      "outputs": [],
      "stateMutability": "nonpayable",
      "type": "function"
    },
    {
      "inputs": [
        {
          "internalType": "uint72",
          "name": "identityId",
          "type": "uint72"
        }
      ],
      "name": "getProfile",
      "outputs": [
        {
          "internalType": "bytes",
          "name": "",
          "type": "bytes"
        },
        {
          "internalType": "uint96[2]",
          "name": "",
          "type": "uint96[2]"
        },
        {
          "internalType": "address",
          "name": "",
          "type": "address"
        }
      ],
      "stateMutability": "view",
      "type": "function"
    },
    {
      "inputs": [
        {
          "internalType": "uint72",
          "name": "identityId",
          "type": "uint72"
        }
      ],
      "name": "deleteProfile",
      "outputs": [],
      "stateMutability": "nonpayable",
      "type": "function"
    },
    {
      "inputs": [
        {
          "internalType": "uint72",
          "name": "identityId",
          "type": "uint72"
        }
      ],
      "name": "getNodeId",
      "outputs": [
        {
          "internalType": "bytes",
          "name": "",
          "type": "bytes"
        }
      ],
      "stateMutability": "view",
      "type": "function"
    },
    {
      "inputs": [
        {
          "internalType": "uint72",
          "name": "identityId",
          "type": "uint72"
        },
        {
          "internalType": "bytes",
          "name": "nodeId",
          "type": "bytes"
        }
      ],
      "name": "setNodeId",
      "outputs": [],
      "stateMutability": "nonpayable",
      "type": "function"
    },
    {
      "inputs": [
        {
          "internalType": "uint72",
          "name": "identityId",
          "type": "uint72"
        }
      ],
      "name": "getAsk",
      "outputs": [
        {
          "internalType": "uint96",
          "name": "",
          "type": "uint96"
        }
      ],
      "stateMutability": "view",
      "type": "function"
    },
    {
      "inputs": [
        {
          "internalType": "uint72",
          "name": "identityId",
          "type": "uint72"
        },
        {
          "internalType": "uint96",
          "name": "ask",
          "type": "uint96"
        }
      ],
      "name": "setAsk",
      "outputs": [],
      "stateMutability": "nonpayable",
      "type": "function"
    },
    {
      "inputs": [
        {
          "internalType": "uint72",
          "name": "identityId",
          "type": "uint72"
        }
      ],
      "name": "getAccumulatedOperatorFee",
      "outputs": [
        {
          "internalType": "uint96",
          "name": "",
          "type": "uint96"
        }
      ],
      "stateMutability": "view",
      "type": "function"
    },
    {
      "inputs": [
        {
          "internalType": "uint72",
          "name": "identityId",
          "type": "uint72"
        },
        {
          "internalType": "uint96",
          "name": "newOperatorFeeAmount",
          "type": "uint96"
        }
      ],
      "name": "setAccumulatedOperatorFee",
      "outputs": [],
      "stateMutability": "nonpayable",
      "type": "function"
    },
    {
      "inputs": [
        {
          "internalType": "uint72",
          "name": "identityId",
          "type": "uint72"
        }
      ],
      "name": "getSharesContractAddress",
      "outputs": [
        {
          "internalType": "address",
          "name": "",
          "type": "address"
        }
      ],
      "stateMutability": "view",
      "type": "function"
    },
    {
      "inputs": [
        {
          "internalType": "uint72",
          "name": "identityId",
          "type": "uint72"
        },
        {
          "internalType": "address",
          "name": "sharesContractAddress",
          "type": "address"
        }
      ],
      "name": "setSharesContractAddress",
      "outputs": [],
      "stateMutability": "nonpayable",
      "type": "function"
    },
    {
      "inputs": [
        {
          "internalType": "uint72",
          "name": "identityId",
          "type": "uint72"
        },
        {
          "internalType": "uint8",
          "name": "hashFunctionId",
          "type": "uint8"
        }
      ],
      "name": "getNodeAddress",
      "outputs": [
        {
          "internalType": "bytes32",
          "name": "",
          "type": "bytes32"
        }
      ],
      "stateMutability": "view",
      "type": "function"
    },
    {
      "inputs": [
        {
          "internalType": "uint72",
          "name": "identityId",
          "type": "uint72"
        },
        {
          "internalType": "uint8",
          "name": "hashFunctionId",
          "type": "uint8"
        }
      ],
      "name": "setNodeAddress",
      "outputs": [],
      "stateMutability": "nonpayable",
      "type": "function"
    },
    {
      "inputs": [
        {
          "internalType": "uint72",
          "name": "identityId",
          "type": "uint72"
        }
      ],
      "name": "profileExists",
      "outputs": [
        {
          "internalType": "bool",
          "name": "",
          "type": "bool"
        }
      ],
      "stateMutability": "view",
      "type": "function"
    },
    {
      "inputs": [
        {
          "internalType": "bytes",
          "name": "nodeId",
          "type": "bytes"
        }
      ],
      "name": "nodeIdRegistered",
      "outputs": [
        {
          "internalType": "bool",
          "name": "",
          "type": "bool"
        }
      ],
      "stateMutability": "view",
      "type": "function"
    },
    {
      "inputs": [
        {
          "internalType": "address",
          "name": "receiver",
          "type": "address"
        },
        {
          "internalType": "uint96",
          "name": "amount",
          "type": "uint96"
        }
      ],
      "name": "transferTokens",
      "outputs": [],
      "stateMutability": "nonpayable",
      "type": "function"
    }
  ],
  "bytecode": "0x60806040523480156200001157600080fd5b50604051620017a9380380620017a98339810160408190526200003491620001a2565b6001600160a01b0381166200004857600080fd5b600080546001600160a01b0319166001600160a01b038316908117909155604051630110ceef60e21b815260206004820152600c60248201526b48617368696e6750726f787960a01b60448201526304433bbc90606401602060405180830381865afa158015620000bd573d6000803e3d6000fd5b505050506040513d601f19601f82011682018060405250810190620000e39190620001a2565b600180546001600160a01b0319166001600160a01b03928316179055600054604051630110ceef60e21b81526020600482015260056024820152642a37b5b2b760d91b60448201529116906304433bbc90606401602060405180830381865afa15801562000155573d6000803e3d6000fd5b505050506040513d601f19601f820116820180604052508101906200017b9190620001a2565b600280546001600160a01b0319166001600160a01b039290921691909117905550620001d4565b600060208284031215620001b557600080fd5b81516001600160a01b0381168114620001cd57600080fd5b9392505050565b6115c580620001e46000396000f3fe608060405234801561001057600080fd5b506004361061016c5760003560e01c8063abe979e1116100cd578063c12b4c7611610081578063d184a86911610066578063d184a8691461042a578063e49f999b1461043d578063fdf64e431461045f57600080fd5b8063c12b4c76146103cb578063d0ea3fee1461041757600080fd5b8063b8561a54116100b2578063b8561a5414610326578063b89bba061461036a578063c04d7dcf146103b857600080fd5b8063abe979e114610300578063b014809f1461031357600080fd5b806341c10b9a1161012457806368dae4fd1161010957806368dae4fd1461029c57806378153abf146102af578063947bb615146102d257600080fd5b806341c10b9a1461025c57806355a373d61461027c57600080fd5b8063365a86fc11610155578063365a86fc146101d05780633718ac59146101f057806339fb67dd1461020357600080fd5b806311c94ee81461017157806322bd9e81146101bb575b600080fd5b6001546101919073ffffffffffffffffffffffffffffffffffffffff1681565b60405173ffffffffffffffffffffffffffffffffffffffff90911681526020015b60405180910390f35b6101ce6101c9366004610fa3565b610472565b005b6000546101919073ffffffffffffffffffffffffffffffffffffffff1681565b6101ce6101fe366004610ff6565b61054a565b61023f610211366004610ff6565b68ffffffffffffffffff166000908152600460205260409020600101546bffffffffffffffffffffffff1690565b6040516bffffffffffffffffffffffff90911681526020016101b2565b61026f61026a366004610ff6565b61066b565b6040516101b29190611083565b6002546101919073ffffffffffffffffffffffffffffffffffffffff1681565b6101ce6102aa366004611096565b610719565b6102c26102bd3660046110d3565b610805565b60405190151581526020016101b2565b6102c26102e0366004611144565b805160208183018101805160038252928201919093012091525460ff1681565b6101ce61030e366004611253565b610834565b6101ce610321366004611286565b6108eb565b610191610334366004610ff6565b68ffffffffffffffffff1660009081526004602052604090206002015473ffffffffffffffffffffffffffffffffffffffff1690565b6103aa610378366004611096565b68ffffffffffffffffff8216600090815260046020908152604080832060ff8516845260030190915290205492915050565b6040519081526020016101b2565b6102c26103c6366004610ff6565b61098a565b61023f6103d9366004610ff6565b68ffffffffffffffffff166000908152600460205260409020600101546c0100000000000000000000000090046bffffffffffffffffffffffff1690565b6101ce6104253660046112b0565b6109c9565b6101ce6104383660046112b0565b610a3c565b61045061044b366004610ff6565b610acb565b6040516101b2939291906112cc565b6101ce61046d36600461133d565b610be4565b61047a610d31565b68ffffffffffffffffff831660009081526004602052604080822090519091906003906104a8908490611406565b90815260405190819003602001902080549115157fffffffffffffffffffffffffffffffffffffffffffffffffffffffffffffff009092169190911790556104f1818484610e2f565b50600160038484604051610506929190611496565b90815260405190819003602001902080549115157fffffffffffffffffffffffffffffffffffffffffffffffffffffffffffffff0090921691909117905550505050565b610552610d31565b68ffffffffffffffffff8116600090815260046020526040808220905160039161057b91611406565b908152604080516020928190038301902080547fffffffffffffffffffffffffffffffffffffffffffffffffffffffffffffff00169315159390931790925568ffffffffffffffffff831660009081526004909152908120906105de8282610ed1565b506001810180547fffffffffffffffff00000000000000000000000000000000000000000000000016905560020180547fffffffffffffffffffffffff000000000000000000000000000000000000000016905560405168ffffffffffffffffff8216907feeb448f37e4c8b3ec0e3f94960f32b72e76c7622324b3c7a07e2c38bce3ea70c90600090a250565b68ffffffffffffffffff81166000908152600460205260409020805460609190610694906113b3565b80601f01602080910402602001604051908101604052809291908181526020018280546106c0906113b3565b801561070d5780601f106106e25761010080835404028352916020019161070d565b820191906000526020600020905b8154815290600101906020018083116106f057829003601f168201915b50505050509050919050565b610721610d31565b60015468ffffffffffffffffff831660009081526004602081905260409182902091517f45ed59e500000000000000000000000000000000000000000000000000000000815273ffffffffffffffffffffffffffffffffffffffff909316926345ed59e592610792928692016114a6565b6020604051808303816000875af11580156107b1573d6000803e3d6000fd5b505050506040513d601f19601f820116820180604052508101906107d59190611554565b68ffffffffffffffffff909216600090815260046020908152604080832060ff9094168352600390930190522055565b600060038383604051610819929190611496565b9081526040519081900360200190205460ff16905092915050565b61083c610d31565b6002546040517fa9059cbb00000000000000000000000000000000000000000000000000000000815273ffffffffffffffffffffffffffffffffffffffff84811660048301526bffffffffffffffffffffffff841660248301529091169063a9059cbb906044016020604051808303816000875af11580156108c2573d6000803e3d6000fd5b505050506040513d601f19601f820116820180604052508101906108e6919061156d565b505050565b6108f3610d31565b68ffffffffffffffffff821660008181526004602090815260409182902060020180547fffffffffffffffffffffffff00000000000000000000000000000000000000001673ffffffffffffffffffffffffffffffffffffffff861690811790915591519182527f9e859b29afb3d5c03cd22bb4441f74dd2bafeb4dfec85004cf7831af07d1f40891015b60405180910390a25050565b6000610994610d31565b5068ffffffffffffffffff81166000908152600460205260409020600101546bffffffffffffffffffffffff1615155b919050565b6109d1610d31565b68ffffffffffffffffff909116600090815260046020526040902060010180546bffffffffffffffffffffffff9092166c01000000000000000000000000027fffffffffffffffff000000000000000000000000ffffffffffffffffffffffff909216919091179055565b610a44610d31565b68ffffffffffffffffff821660008181526004602090815260409182902060010180547fffffffffffffffffffffffffffffffffffffffff000000000000000000000000166bffffffffffffffffffffffff861690811790915591519182527fb51e5e2c47c64c8dbd67745b0493cbde7cf30614860a8371f4d40e6d426622cc910161097e565b6060610ad5610f0e565b68ffffffffffffffffff83166000908152600460209081526040808320815180830190925260018101546bffffffffffffffffffffffff80821684526c0100000000000000000000000090910416928201929092526002820154825483929173ffffffffffffffffffffffffffffffffffffffff16908390610b56906113b3565b80601f0160208091040260200160405190810160405280929190818152602001828054610b82906113b3565b8015610bcf5780601f10610ba457610100808354040283529160200191610bcf565b820191906000526020600020905b815481529060010190602001808311610bb257829003601f168201915b50505050509250935093509350509193909250565b610bec610d31565b68ffffffffffffffffff85166000908152600460205260409020610c11818686610e2f565b50600181810180547fffffffffffffffffffffffffffffffffffffffff000000000000000000000000166bffffffffffffffffffffffff86161790556002820180547fffffffffffffffffffffffff00000000000000000000000000000000000000001673ffffffffffffffffffffffffffffffffffffffff8516179055604051600390610ca29088908890611496565b9081526040516020918190038201812080547fffffffffffffffffffffffffffffffffffffffffffffffffffffffffffffff0016931515939093179092556bffffffffffffffffffffffff8516825268ffffffffffffffffff8816917fd276222d9a9a896020208ce3b938db1692fc67dbc6b829c1d9a5b4ccb20bcef1910160405180910390a2505050505050565b6000546040517f1627905500000000000000000000000000000000000000000000000000000000815233600482015273ffffffffffffffffffffffffffffffffffffffff90911690631627905590602401602060405180830381865afa158015610d9f573d6000803e3d6000fd5b505050506040513d601f19601f82011682018060405250810190610dc3919061156d565b610e2d576040517f08c379a000000000000000000000000000000000000000000000000000000000815260206004820181905260248201527f466e2063616e206f6e6c792062652063616c6c65642062792074686520687562604482015260640160405180910390fd5b565b828054610e3b906113b3565b90600052602060002090601f016020900481019282610e5d5760008555610ec1565b82601f10610e94578280017fffffffffffffffffffffffffffffffffffffffffffffffffffffffffffffff00823516178555610ec1565b82800160010185558215610ec1579182015b82811115610ec1578235825591602001919060010190610ea6565b50610ecd929150610f2c565b5090565b508054610edd906113b3565b6000825580601f10610eed575050565b601f016020900490600052602060002090810190610f0b9190610f2c565b50565b60405180604001604052806002906020820280368337509192915050565b5b80821115610ecd5760008155600101610f2d565b803568ffffffffffffffffff811681146109c457600080fd5b60008083601f840112610f6c57600080fd5b50813567ffffffffffffffff811115610f8457600080fd5b602083019150836020828501011115610f9c57600080fd5b9250929050565b600080600060408486031215610fb857600080fd5b610fc184610f41565b9250602084013567ffffffffffffffff811115610fdd57600080fd5b610fe986828701610f5a565b9497909650939450505050565b60006020828403121561100857600080fd5b61101182610f41565b9392505050565b6000815180845260005b8181101561103e57602081850181015186830182015201611022565b81811115611050576000602083870101525b50601f017fffffffffffffffffffffffffffffffffffffffffffffffffffffffffffffffe0169290920160200192915050565b6020815260006110116020830184611018565b600080604083850312156110a957600080fd5b6110b283610f41565b9150602083013560ff811681146110c857600080fd5b809150509250929050565b600080602083850312156110e657600080fd5b823567ffffffffffffffff8111156110fd57600080fd5b61110985828601610f5a565b90969095509350505050565b7f4e487b7100000000000000000000000000000000000000000000000000000000600052604160045260246000fd5b60006020828403121561115657600080fd5b813567ffffffffffffffff8082111561116e57600080fd5b818401915084601f83011261118257600080fd5b81358181111561119457611194611115565b604051601f82017fffffffffffffffffffffffffffffffffffffffffffffffffffffffffffffffe0908116603f011681019083821181831017156111da576111da611115565b816040528281528760208487010111156111f357600080fd5b826020860160208301376000928101602001929092525095945050505050565b803573ffffffffffffffffffffffffffffffffffffffff811681146109c457600080fd5b80356bffffffffffffffffffffffff811681146109c457600080fd5b6000806040838503121561126657600080fd5b61126f83611213565b915061127d60208401611237565b90509250929050565b6000806040838503121561129957600080fd5b6112a283610f41565b915061127d60208401611213565b600080604083850312156112c357600080fd5b61126f83610f41565b6080815260006112df6080830186611018565b905060208083018560005b60028110156113155781516bffffffffffffffffffffffff16835291830191908301906001016112ea565b5050505073ffffffffffffffffffffffffffffffffffffffff83166060830152949350505050565b60008060008060006080868803121561135557600080fd5b61135e86610f41565b9450602086013567ffffffffffffffff81111561137a57600080fd5b61138688828901610f5a565b9095509350611399905060408701611237565b91506113a760608701611213565b90509295509295909350565b600181811c908216806113c757607f821691505b602082108103611400577f4e487b7100000000000000000000000000000000000000000000000000000000600052602260045260246000fd5b50919050565b6000808354611414816113b3565b6001828116801561142c576001811461145b5761148a565b7fffffffffffffffffffffffffffffffffffffffffffffffffffffffffffffff0084168752828701945061148a565b8760005260208060002060005b858110156114815781548a820152908401908201611468565b50505082870194505b50929695505050505050565b8183823760009101908152919050565b60ff8316815260006020604081840152600084546114c3816113b3565b80604087015260606001808416600081146114e5576001811461151757611545565b7fffffffffffffffffffffffffffffffffffffffffffffffffffffffffffffff008516838a0152608089019550611545565b896000528660002060005b8581101561153d5781548b8201860152908301908801611522565b8a0184019650505b50939998505050505050505050565b60006020828403121561156657600080fd5b5051919050565b60006020828403121561157f57600080fd5b8151801515811461101157600080fdfea26469706673582212204567a32e7c43f9b5a7e67c4238ede229af154a1f663da47be2edecd12352d74764736f6c634300080e0033",
  "immutableReferences": {},
  "source": "// SPDX-License-Identifier: MIT\n\npragma solidity ^0.8.0;\n\nimport { HashingProxy } from \"../HashingProxy.sol\";\nimport { Hub } from \"../Hub.sol\";\nimport { IERC20 } from \"@openzeppelin/contracts/token/ERC20/IERC20.sol\";\n\ncontract ProfileStorage {\n\n    event ProfileCreated(uint72 indexed identityId, uint96 ask);\n    event ProfileDeleted(uint72 indexed identityId);\n    event AskUpdated(uint72 indexed identityId, uint96 ask);\n    event SharesContractUpdated(uint72 indexed identityId, address sharesContractAddress);\n\n    Hub public hub;\n    HashingProxy public hashingProxy;\n    IERC20 public tokenContract;\n\n    struct ProfileDefinition{\n        bytes nodeId;\n        uint96 ask;\n        uint96 accumulatedOperatorFee;\n        address sharesContractAddress;\n        mapping(uint8 => bytes32) nodeAddresses;\n    }\n\n    // nodeId => isRegistered?\n    mapping(bytes => bool) public nodeIdsList;\n    // identityId => Profile\n    mapping(uint72 => ProfileDefinition) profiles;\n\n    constructor(address hubAddress) {\n        require(hubAddress != address(0));\n\n        hub = Hub(hubAddress);\n        hashingProxy = HashingProxy(hub.getContractAddress(\"HashingProxy\"));\n        tokenContract = IERC20(hub.getContractAddress(\"Token\"));\n    }\n\n    modifier onlyContracts() {\n        _checkHub();\n        _;\n    }\n\n    function createProfile(uint72 identityId, bytes calldata nodeId, uint96 ask, address sharesContractAddress)\n        external onlyContracts\n    {\n        ProfileDefinition storage profile = profiles[identityId];\n        profile.nodeId = nodeId;\n        profile.ask = ask;\n        profile.sharesContractAddress = sharesContractAddress;\n\n        nodeIdsList[nodeId] = true;\n\n        emit ProfileCreated(identityId, ask);\n    }\n\n    function getProfile(uint72 identityId) external view returns (bytes memory, uint96[2] memory, address) {\n        ProfileDefinition storage profile = profiles[identityId];\n        return (profile.nodeId, [profile.ask, profile.accumulatedOperatorFee], profile.sharesContractAddress);\n    }\n\n    function deleteProfile(uint72 identityId) external onlyContracts {\n        nodeIdsList[profiles[identityId].nodeId] = false;\n        delete profiles[identityId];\n\n        emit ProfileDeleted(identityId);\n    }\n\n    function getNodeId(uint72 identityId) external view returns (bytes memory) {\n        return profiles[identityId].nodeId;\n    }\n\n    function setNodeId(uint72 identityId, bytes calldata nodeId) external onlyContracts {\n        ProfileDefinition storage profile = profiles[identityId];\n\n        nodeIdsList[profile.nodeId] = false;\n        profile.nodeId = nodeId;\n        nodeIdsList[nodeId] = true;\n    }\n\n    function getAsk(uint72 identityId) external view returns (uint96) {\n        return profiles[identityId].ask;\n    }\n\n    function setAsk(uint72 identityId, uint96 ask) external onlyContracts {\n        profiles[identityId].ask = ask;\n\n        emit AskUpdated(identityId, ask);\n    }\n\n    function getAccumulatedOperatorFee(uint72 identityId) external view returns (uint96) {\n        return profiles[identityId].accumulatedOperatorFee;\n    }\n\n    function setAccumulatedOperatorFee(uint72 identityId, uint96 newOperatorFeeAmount) external onlyContracts {\n        profiles[identityId].accumulatedOperatorFee = newOperatorFeeAmount;\n    }\n\n    function getSharesContractAddress(uint72 identityId) external view returns (address) {\n        return profiles[identityId].sharesContractAddress;\n    }\n\n    function setSharesContractAddress(uint72 identityId, address sharesContractAddress) external onlyContracts {\n        profiles[identityId].sharesContractAddress = sharesContractAddress;\n\n        emit SharesContractUpdated(identityId, sharesContractAddress);\n    }\n\n    function getNodeAddress(uint72 identityId, uint8 hashFunctionId) external view returns (bytes32) {\n        return profiles[identityId].nodeAddresses[hashFunctionId];\n    }\n\n    function setNodeAddress(uint72 identityId, uint8 hashFunctionId) external onlyContracts {\n        profiles[identityId].nodeAddresses[hashFunctionId] = hashingProxy.callHashFunction(\n            hashFunctionId,\n            profiles[identityId].nodeId\n        );\n    }\n\n    function profileExists(uint72 identityId) external view onlyContracts returns (bool) {\n        return profiles[identityId].ask != 0;\n    }\n\n    function nodeIdRegistered(bytes calldata nodeId) external view returns (bool) {\n        return nodeIdsList[nodeId];\n    }\n\n    function transferTokens(address receiver, uint96 amount) external onlyContracts {\n        tokenContract.transfer(receiver, amount);\n    }\n\n    function _checkHub() internal view virtual {\n        require(hub.isContract(msg.sender), \"Fn can only be called by the hub\");\n    }\n}\n",
  "sourcePath": "/Users/waving/Desktop/OriginTrail/dkg-evm-module/contracts/storage/ProfileStorage.sol",
  "compiler": {
    "name": "solc",
    "version": "0.8.14+commit.80d49f37.Emscripten.clang"
  },
  "schemaVersion": "3.4.10",
  "updatedAt": "2022-12-03T15:00:22.503Z",
  "devdoc": {
    "kind": "dev",
    "methods": {},
    "version": 1
  },
  "userdoc": {
    "kind": "user",
    "methods": {},
    "version": 1
  }
}