{
  "contractName": "ProfileStorage",
  "abi": [
    {
      "inputs": [
        {
          "internalType": "address",
          "name": "hubAddress",
          "type": "address"
        }
      ],
      "stateMutability": "nonpayable",
      "type": "constructor"
    },
    {
      "anonymous": false,
      "inputs": [
        {
          "indexed": true,
          "internalType": "uint96",
          "name": "identityId",
          "type": "uint96"
        },
        {
          "indexed": false,
          "internalType": "bytes",
          "name": "nodeId",
          "type": "bytes"
        },
        {
          "indexed": false,
          "internalType": "uint96",
          "name": "ask",
          "type": "uint96"
        }
      ],
      "name": "AskUpdated",
      "type": "event"
    },
    {
      "anonymous": false,
      "inputs": [
        {
          "indexed": true,
          "internalType": "uint96",
          "name": "identityId",
          "type": "uint96"
        },
        {
          "indexed": false,
          "internalType": "bytes",
          "name": "nodeId",
          "type": "bytes"
        },
        {
          "indexed": false,
          "internalType": "uint96",
          "name": "reward",
          "type": "uint96"
        }
      ],
      "name": "RewardUpdated",
      "type": "event"
    },
    {
      "anonymous": false,
      "inputs": [
        {
          "indexed": true,
          "internalType": "uint96",
          "name": "identityId",
          "type": "uint96"
        },
        {
          "indexed": false,
          "internalType": "bytes",
          "name": "nodeId",
          "type": "bytes"
        },
        {
          "indexed": false,
          "internalType": "uint96",
          "name": "stake",
          "type": "uint96"
        }
      ],
      "name": "StakeUpdated",
      "type": "event"
    },
    {
      "inputs": [],
      "name": "hub",
      "outputs": [
        {
          "internalType": "contract Hub",
          "name": "",
          "type": "address"
        }
      ],
      "stateMutability": "view",
      "type": "function"
    },
    {
      "inputs": [
        {
          "internalType": "bytes",
          "name": "",
          "type": "bytes"
        }
      ],
      "name": "nodeIdsList",
      "outputs": [
        {
          "internalType": "bool",
          "name": "",
          "type": "bool"
        }
      ],
      "stateMutability": "view",
      "type": "function"
    },
    {
      "inputs": [
        {
          "internalType": "address",
          "name": "operationalWallet",
          "type": "address"
        },
        {
          "internalType": "address",
          "name": "adminWallet",
          "type": "address"
        },
        {
          "internalType": "bytes",
          "name": "nodeId",
          "type": "bytes"
        },
        {
          "internalType": "uint96",
          "name": "initialAsk",
          "type": "uint96"
        },
        {
          "internalType": "uint96",
          "name": "initialStake",
          "type": "uint96"
        }
      ],
      "name": "createProfile",
      "outputs": [
        {
          "internalType": "uint96",
          "name": "",
          "type": "uint96"
        }
      ],
      "stateMutability": "nonpayable",
      "type": "function"
    },
    {
      "inputs": [
        {
          "internalType": "uint96",
          "name": "identityId",
          "type": "uint96"
        }
      ],
      "name": "getProfile",
      "outputs": [
        {
          "internalType": "uint96[6]",
          "name": "",
          "type": "uint96[6]"
        },
        {
          "internalType": "uint256[3]",
          "name": "",
          "type": "uint256[3]"
        },
        {
          "internalType": "bytes",
          "name": "",
          "type": "bytes"
        }
      ],
      "stateMutability": "view",
      "type": "function"
    },
    {
      "inputs": [
        {
          "internalType": "uint96",
          "name": "identityId",
          "type": "uint96"
        }
      ],
      "name": "getAsk",
      "outputs": [
        {
          "internalType": "uint96",
          "name": "",
          "type": "uint96"
        }
      ],
      "stateMutability": "view",
      "type": "function"
    },
    {
      "inputs": [
        {
          "internalType": "uint96",
          "name": "identityId",
          "type": "uint96"
        }
      ],
      "name": "getStake",
      "outputs": [
        {
          "internalType": "uint96",
          "name": "",
          "type": "uint96"
        }
      ],
      "stateMutability": "view",
      "type": "function"
    },
    {
      "inputs": [
        {
          "internalType": "uint96",
          "name": "identityId",
          "type": "uint96"
        }
      ],
      "name": "getReward",
      "outputs": [
        {
          "internalType": "uint96",
          "name": "",
          "type": "uint96"
        }
      ],
      "stateMutability": "view",
      "type": "function"
    },
    {
      "inputs": [
        {
          "internalType": "uint96",
          "name": "identityId",
          "type": "uint96"
        }
      ],
      "name": "getStakeWithdrawalAmount",
      "outputs": [
        {
          "internalType": "uint96",
          "name": "",
          "type": "uint96"
        }
      ],
      "stateMutability": "view",
      "type": "function"
    },
    {
      "inputs": [
        {
          "internalType": "uint96",
          "name": "identityId",
          "type": "uint96"
        }
      ],
      "name": "getRewardWithdrawalAmount",
      "outputs": [
        {
          "internalType": "uint96",
          "name": "",
          "type": "uint96"
        }
      ],
      "stateMutability": "view",
      "type": "function"
    },
    {
      "inputs": [
        {
          "internalType": "uint96",
          "name": "identityId",
          "type": "uint96"
        }
      ],
      "name": "getFrozenAmount",
      "outputs": [
        {
          "internalType": "uint96",
          "name": "",
          "type": "uint96"
        }
      ],
      "stateMutability": "view",
      "type": "function"
    },
    {
      "inputs": [
        {
          "internalType": "uint96",
          "name": "identityId",
          "type": "uint96"
        }
      ],
      "name": "getStakeWithdrawalTimestamp",
      "outputs": [
        {
          "internalType": "uint256",
          "name": "",
          "type": "uint256"
        }
      ],
      "stateMutability": "view",
      "type": "function"
    },
    {
      "inputs": [
        {
          "internalType": "uint96",
          "name": "identityId",
          "type": "uint96"
        }
      ],
      "name": "getRewardWithdrawalTimestamp",
      "outputs": [
        {
          "internalType": "uint256",
          "name": "",
          "type": "uint256"
        }
      ],
      "stateMutability": "view",
      "type": "function"
    },
    {
      "inputs": [
        {
          "internalType": "uint96",
          "name": "identityId",
          "type": "uint96"
        }
      ],
      "name": "getFreezeTimestamp",
      "outputs": [
        {
          "internalType": "uint256",
          "name": "",
          "type": "uint256"
        }
      ],
      "stateMutability": "view",
      "type": "function"
    },
    {
      "inputs": [
        {
          "internalType": "uint96",
          "name": "identityId",
          "type": "uint96"
        }
      ],
      "name": "getNodeId",
      "outputs": [
        {
          "internalType": "bytes",
          "name": "",
          "type": "bytes"
        }
      ],
      "stateMutability": "view",
      "type": "function"
    },
    {
      "inputs": [
        {
          "internalType": "uint96",
          "name": "identityId",
          "type": "uint96"
        },
        {
          "internalType": "uint8",
          "name": "hashFunctionId",
          "type": "uint8"
        }
      ],
      "name": "getNodeAddress",
      "outputs": [
        {
          "internalType": "bytes32",
          "name": "",
          "type": "bytes32"
        }
      ],
      "stateMutability": "view",
      "type": "function"
    },
    {
      "inputs": [
        {
          "internalType": "uint96",
          "name": "identityId",
          "type": "uint96"
        },
        {
          "internalType": "uint96",
          "name": "ask",
          "type": "uint96"
        }
      ],
      "name": "setAsk",
      "outputs": [],
      "stateMutability": "nonpayable",
      "type": "function"
    },
    {
      "inputs": [
        {
          "internalType": "uint96",
          "name": "identityId",
          "type": "uint96"
        },
        {
          "internalType": "uint96",
          "name": "stake",
          "type": "uint96"
        }
      ],
      "name": "setStake",
      "outputs": [],
      "stateMutability": "nonpayable",
      "type": "function"
    },
    {
      "inputs": [
        {
          "internalType": "uint96",
          "name": "identityId",
          "type": "uint96"
        },
        {
          "internalType": "uint96",
          "name": "reward",
          "type": "uint96"
        }
      ],
      "name": "setReward",
      "outputs": [],
      "stateMutability": "nonpayable",
      "type": "function"
    },
    {
      "inputs": [
        {
          "internalType": "uint96",
          "name": "identityId",
          "type": "uint96"
        },
        {
          "internalType": "uint96",
          "name": "stakeWithdrawalAmount",
          "type": "uint96"
        }
      ],
      "name": "setStakeWithdrawalAmount",
      "outputs": [],
      "stateMutability": "nonpayable",
      "type": "function"
    },
    {
      "inputs": [
        {
          "internalType": "uint96",
          "name": "identityId",
          "type": "uint96"
        },
        {
          "internalType": "uint96",
          "name": "rewardWithdrawalAmount",
          "type": "uint96"
        }
      ],
      "name": "setRewardWithdrawalAmount",
      "outputs": [],
      "stateMutability": "nonpayable",
      "type": "function"
    },
    {
      "inputs": [
        {
          "internalType": "uint96",
          "name": "identityId",
          "type": "uint96"
        },
        {
          "internalType": "uint96",
          "name": "frozenAmount",
          "type": "uint96"
        }
      ],
      "name": "setFrozenAmount",
      "outputs": [],
      "stateMutability": "nonpayable",
      "type": "function"
    },
    {
      "inputs": [
        {
          "internalType": "uint96",
          "name": "identityId",
          "type": "uint96"
        },
        {
          "internalType": "uint256",
          "name": "stakeWithdrawalTimestamp",
          "type": "uint256"
        }
      ],
      "name": "setStakeWithdrawalTimestamp",
      "outputs": [],
      "stateMutability": "nonpayable",
      "type": "function"
    },
    {
      "inputs": [
        {
          "internalType": "uint96",
          "name": "identityId",
          "type": "uint96"
        },
        {
          "internalType": "uint256",
          "name": "rewardWithdrawalTimestamp",
          "type": "uint256"
        }
      ],
      "name": "setRewardWithdrawalTimestamp",
      "outputs": [],
      "stateMutability": "nonpayable",
      "type": "function"
    },
    {
      "inputs": [
        {
          "internalType": "uint96",
          "name": "identityId",
          "type": "uint96"
        },
        {
          "internalType": "uint256",
          "name": "freezeTimestamp",
          "type": "uint256"
        }
      ],
      "name": "setFreezeTimestamp",
      "outputs": [],
      "stateMutability": "nonpayable",
      "type": "function"
    },
    {
      "inputs": [
        {
          "internalType": "uint96",
          "name": "identityId",
          "type": "uint96"
        },
        {
          "internalType": "bytes",
          "name": "nodeId",
          "type": "bytes"
        }
      ],
      "name": "setNodeId",
      "outputs": [],
      "stateMutability": "nonpayable",
      "type": "function"
    },
    {
      "inputs": [
        {
          "internalType": "uint96",
          "name": "identityId",
          "type": "uint96"
        },
        {
          "internalType": "uint8",
          "name": "hashFunctionId",
          "type": "uint8"
        }
      ],
      "name": "setNodeAddress",
      "outputs": [],
      "stateMutability": "nonpayable",
      "type": "function"
    },
    {
      "inputs": [
        {
          "internalType": "address",
          "name": "receiver",
          "type": "address"
        },
        {
          "internalType": "uint96",
          "name": "amount",
          "type": "uint96"
        }
      ],
      "name": "transferTokens",
      "outputs": [],
      "stateMutability": "nonpayable",
      "type": "function"
    }
  ],
  "bytecode": "0x60806040523480156200001157600080fd5b506040516200382238038062003822833981810160405281019062000037919062000122565b600073ffffffffffffffffffffffffffffffffffffffff168173ffffffffffffffffffffffffffffffffffffffff16036200007157600080fd5b806000806101000a81548173ffffffffffffffffffffffffffffffffffffffff021916908373ffffffffffffffffffffffffffffffffffffffff1602179055505062000154565b600080fd5b600073ffffffffffffffffffffffffffffffffffffffff82169050919050565b6000620000ea82620000bd565b9050919050565b620000fc81620000dd565b81146200010857600080fd5b50565b6000815190506200011c81620000f1565b92915050565b6000602082840312156200013b576200013a620000b8565b5b60006200014b848285016200010b565b91505092915050565b6136be80620001646000396000f3fe608060405234801561001057600080fd5b50600436106101a85760003560e01c806374cb0edb116100f9578063a707c06911610097578063b088511711610071578063b088511714610511578063d9e2bcbc14610541578063e2bd16bd14610571578063f93aad56146105a1576101a8565b8063a707c069146104a9578063a793e821146104d9578063abe979e1146104f5576101a8565b8063832c7bc1116100d3578063832c7bc114610411578063947bb6151461044157806394fceaeb14610471578063a4f906231461048d576101a8565b806374cb0edb14610393578063769653e6146103c35780637e32f997146103df576101a8565b8063365a86fc1161016657806350f0f4081161014057806350f0f408146102e75780636b1374f0146103175780636c5c281c146103475780636dccf56d14610377576101a8565b8063365a86fc1461029157806349d99785146102af5780634f3cc7c0146102cb576101a8565b8062ada70b146101ad578063115ab48e146101dd57806316b1f1521461020d5780631860bd8e14610229578063283bee65146102595780632ccec74714610275575b600080fd5b6101c760048036038101906101c2919061256c565b6105bd565b6040516101d491906125a8565b60405180910390f35b6101f760048036038101906101f2919061256c565b610611565b60405161020491906125dc565b60405180910390f35b61022760048036038101906102229190612630565b61064d565b005b610243600480360381019061023e919061256c565b6108c4565b60405161025091906125a8565b60405180910390f35b610273600480360381019061026e91906127b6565b610918565b005b61028f600480360381019061028a9190612812565b610b1e565b005b610299610c5c565b6040516102a691906128d1565b60405180910390f35b6102c960048036038101906102c49190612812565b610c80565b005b6102e560048036038101906102e09190612918565b610e5f565b005b61030160048036038101906102fc919061256c565b610f73565b60405161030e91906125a8565b60405180910390f35b610331600480360381019061032c919061256c565b610fc7565b60405161033e91906125a8565b60405180910390f35b610361600480360381019061035c919061256c565b61101b565b60405161036e91906129e0565b60405180910390f35b610391600480360381019061038c9190612812565b6110df565b005b6103ad60048036038101906103a8919061256c565b61126d565b6040516103ba91906125a8565b60405180910390f35b6103dd60048036038101906103d89190612812565b6112c1565b005b6103f960048036038101906103f4919061256c565b6113ff565b60405161040893929190612b58565b60405180910390f35b61042b6004803603810190610426919061256c565b611686565b60405161043891906125dc565b60405180910390f35b61045b60048036038101906104569190612b98565b6116c2565b6040516104689190612bfc565b60405180910390f35b61048b60048036038101906104869190612918565b6116f8565b005b6104a760048036038101906104a29190612812565b61180c565b005b6104c360048036038101906104be919061256c565b61199a565b6040516104d091906125dc565b60405180910390f35b6104f360048036038101906104ee9190612812565b6119d6565b005b61050f600480360381019061050a9190612c55565b611b14565b005b61052b6004803603810190610526919061256c565b611d7d565b60405161053891906125a8565b60405180910390f35b61055b60048036038101906105569190612c95565b611dd1565b60405161056891906125a8565b60405180910390f35b61058b60048036038101906105869190612630565b6122c5565b6040516105989190612d45565b60405180910390f35b6105bb60048036038101906105b69190612918565b612319565b005b600060026000836bffffffffffffffffffffffff166bffffffffffffffffffffffff16815260200190815260200160002060020160009054906101000a90046bffffffffffffffffffffffff169050919050565b600060026000836bffffffffffffffffffffffff166bffffffffffffffffffffffff168152602001908152602001600020600401549050919050565b60008054906101000a900473ffffffffffffffffffffffffffffffffffffffff1673ffffffffffffffffffffffffffffffffffffffff166316279055336040518263ffffffff1660e01b81526004016106a69190612d6f565b602060405180830381865afa1580156106c3573d6000803e3d6000fd5b505050506040513d601f19601f820116820180604052508101906106e79190612db6565b610726576040517f08c379a000000000000000000000000000000000000000000000000000000000815260040161071d90612e66565b60405180910390fd5b60008060009054906101000a900473ffffffffffffffffffffffffffffffffffffffff1673ffffffffffffffffffffffffffffffffffffffff166304433bbc6040518163ffffffff1660e01b815260040161078090612ed2565b602060405180830381865afa15801561079d573d6000803e3d6000fd5b505050506040513d601f19601f820116820180604052508101906107c19190612f07565b90508073ffffffffffffffffffffffffffffffffffffffff166345ed59e58360026000876bffffffffffffffffffffffff166bffffffffffffffffffffffff1681526020019081526020016000206006016040518363ffffffff1660e01b815260040161082f929190613038565b6020604051808303816000875af115801561084e573d6000803e3d6000fd5b505050506040513d601f19601f820116820180604052508101906108729190613094565b60026000856bffffffffffffffffffffffff166bffffffffffffffffffffffff16815260200190815260200160002060070160008460ff1660ff16815260200190815260200160002081905550505050565b600060026000836bffffffffffffffffffffffff166bffffffffffffffffffffffff168152602001908152602001600020600001600c9054906101000a90046bffffffffffffffffffffffff169050919050565b60008054906101000a900473ffffffffffffffffffffffffffffffffffffffff1673ffffffffffffffffffffffffffffffffffffffff166316279055336040518263ffffffff1660e01b81526004016109719190612d6f565b602060405180830381865afa15801561098e573d6000803e3d6000fd5b505050506040513d601f19601f820116820180604052508101906109b29190612db6565b6109f1576040517f08c379a00000000000000000000000000000000000000000000000000000000081526004016109e890612e66565b60405180910390fd5b6000815103610a35576040517f08c379a0000000000000000000000000000000000000000000000000000000008152600401610a2c9061310d565b60405180910390fd5b8060026000846bffffffffffffffffffffffff166bffffffffffffffffffffffff1681526020019081526020016000206006019080519060200190610a7b92919061242d565b506000600160026000856bffffffffffffffffffffffff166bffffffffffffffffffffffff168152602001908152602001600020600601604051610abf91906131b7565b908152602001604051809103902060006101000a81548160ff02191690831515021790555060018082604051610af591906131ff565b908152602001604051809103902060006101000a81548160ff0219169083151502179055505050565b60008054906101000a900473ffffffffffffffffffffffffffffffffffffffff1673ffffffffffffffffffffffffffffffffffffffff166316279055336040518263ffffffff1660e01b8152600401610b779190612d6f565b602060405180830381865afa158015610b94573d6000803e3d6000fd5b505050506040513d601f19601f82011682018060405250810190610bb89190612db6565b610bf7576040517f08c379a0000000000000000000000000000000000000000000000000000000008152600401610bee90612e66565b60405180910390fd5b8060026000846bffffffffffffffffffffffff166bffffffffffffffffffffffff168152602001908152602001600020600201600c6101000a8154816bffffffffffffffffffffffff02191690836bffffffffffffffffffffffff1602179055505050565b60008054906101000a900473ffffffffffffffffffffffffffffffffffffffff1681565b60008054906101000a900473ffffffffffffffffffffffffffffffffffffffff1673ffffffffffffffffffffffffffffffffffffffff166316279055336040518263ffffffff1660e01b8152600401610cd99190612d6f565b602060405180830381865afa158015610cf6573d6000803e3d6000fd5b505050506040513d601f19601f82011682018060405250810190610d1a9190612db6565b610d59576040517f08c379a0000000000000000000000000000000000000000000000000000000008152600401610d5090612e66565b60405180910390fd5b6000816bffffffffffffffffffffffff1611610daa576040517f08c379a0000000000000000000000000000000000000000000000000000000008152600401610da190613262565b60405180910390fd5b8060026000846bffffffffffffffffffffffff166bffffffffffffffffffffffff16815260200190815260200160002060000160006101000a8154816bffffffffffffffffffffffff02191690836bffffffffffffffffffffffff160217905550816bffffffffffffffffffffffff167f9bf13a73b26042469d0163547ba939edab9e3238984e553a4b312d07118bb081610e448461101b565b83604051610e53929190613282565b60405180910390a25050565b60008054906101000a900473ffffffffffffffffffffffffffffffffffffffff1673ffffffffffffffffffffffffffffffffffffffff166316279055336040518263ffffffff1660e01b8152600401610eb89190612d6f565b602060405180830381865afa158015610ed5573d6000803e3d6000fd5b505050506040513d601f19601f82011682018060405250810190610ef99190612db6565b610f38576040517f08c379a0000000000000000000000000000000000000000000000000000000008152600401610f2f90612e66565b60405180910390fd5b8060026000846bffffffffffffffffffffffff166bffffffffffffffffffffffff168152602001908152602001600020600301819055505050565b600060026000836bffffffffffffffffffffffff166bffffffffffffffffffffffff16815260200190815260200160002060000160009054906101000a90046bffffffffffffffffffffffff169050919050565b600060026000836bffffffffffffffffffffffff166bffffffffffffffffffffffff168152602001908152602001600020600101600c9054906101000a90046bffffffffffffffffffffffff169050919050565b606060026000836bffffffffffffffffffffffff166bffffffffffffffffffffffff168152602001908152602001600020600601805461105a90612f72565b80601f016020809104026020016040519081016040528092919081815260200182805461108690612f72565b80156110d35780601f106110a8576101008083540402835291602001916110d3565b820191906000526020600020905b8154815290600101906020018083116110b657829003601f168201915b50505050509050919050565b60008054906101000a900473ffffffffffffffffffffffffffffffffffffffff1673ffffffffffffffffffffffffffffffffffffffff166316279055336040518263ffffffff1660e01b81526004016111389190612d6f565b602060405180830381865afa158015611155573d6000803e3d6000fd5b505050506040513d601f19601f820116820180604052508101906111799190612db6565b6111b8576040517f08c379a00000000000000000000000000000000000000000000000000000000081526004016111af90612e66565b60405180910390fd5b8060026000846bffffffffffffffffffffffff166bffffffffffffffffffffffff168152602001908152602001600020600001600c6101000a8154816bffffffffffffffffffffffff02191690836bffffffffffffffffffffffff160217905550816bffffffffffffffffffffffff167fa77a36466625d36755152ef1d8c0ab7feb095e9c5591540c91421799a4185e7f6112528461101b565b83604051611261929190613282565b60405180910390a25050565b600060026000836bffffffffffffffffffffffff166bffffffffffffffffffffffff16815260200190815260200160002060010160009054906101000a90046bffffffffffffffffffffffff169050919050565b60008054906101000a900473ffffffffffffffffffffffffffffffffffffffff1673ffffffffffffffffffffffffffffffffffffffff166316279055336040518263ffffffff1660e01b815260040161131a9190612d6f565b602060405180830381865afa158015611337573d6000803e3d6000fd5b505050506040513d601f19601f8201168201806040525081019061135b9190612db6565b61139a576040517f08c379a000000000000000000000000000000000000000000000000000000000815260040161139190612e66565b60405180910390fd5b8060026000846bffffffffffffffffffffffff166bffffffffffffffffffffffff168152602001908152602001600020600101600c6101000a8154816bffffffffffffffffffffffff02191690836bffffffffffffffffffffffff1602179055505050565b6114076124b3565b61140f6124d5565b6060600060026000866bffffffffffffffffffffffff166bffffffffffffffffffffffff16815260200190815260200160002090506040518060c001604052808260000160009054906101000a90046bffffffffffffffffffffffff166bffffffffffffffffffffffff166bffffffffffffffffffffffff16815260200182600001600c9054906101000a90046bffffffffffffffffffffffff166bffffffffffffffffffffffff166bffffffffffffffffffffffff1681526020018260010160009054906101000a90046bffffffffffffffffffffffff166bffffffffffffffffffffffff166bffffffffffffffffffffffff16815260200182600101600c9054906101000a90046bffffffffffffffffffffffff166bffffffffffffffffffffffff166bffffffffffffffffffffffff1681526020018260020160009054906101000a90046bffffffffffffffffffffffff166bffffffffffffffffffffffff166bffffffffffffffffffffffff16815260200182600201600c9054906101000a90046bffffffffffffffffffffffff166bffffffffffffffffffffffff166bffffffffffffffffffffffff16815250604051806060016040528083600301548152602001836004015481526020018360050154815250826006018080546115f890612f72565b80601f016020809104026020016040519081016040528092919081815260200182805461162490612f72565b80156116715780601f1061164657610100808354040283529160200191611671565b820191906000526020600020905b81548152906001019060200180831161165457829003601f168201915b50505050509050935093509350509193909250565b600060026000836bffffffffffffffffffffffff166bffffffffffffffffffffffff168152602001908152602001600020600301549050919050565b6001818051602081018201805184825260208301602085012081835280955050505050506000915054906101000a900460ff1681565b60008054906101000a900473ffffffffffffffffffffffffffffffffffffffff1673ffffffffffffffffffffffffffffffffffffffff166316279055336040518263ffffffff1660e01b81526004016117519190612d6f565b602060405180830381865afa15801561176e573d6000803e3d6000fd5b505050506040513d601f19601f820116820180604052508101906117929190612db6565b6117d1576040517f08c379a00000000000000000000000000000000000000000000000000000000081526004016117c890612e66565b60405180910390fd5b8060026000846bffffffffffffffffffffffff166bffffffffffffffffffffffff168152602001908152602001600020600401819055505050565b60008054906101000a900473ffffffffffffffffffffffffffffffffffffffff1673ffffffffffffffffffffffffffffffffffffffff166316279055336040518263ffffffff1660e01b81526004016118659190612d6f565b602060405180830381865afa158015611882573d6000803e3d6000fd5b505050506040513d601f19601f820116820180604052508101906118a69190612db6565b6118e5576040517f08c379a00000000000000000000000000000000000000000000000000000000081526004016118dc90612e66565b60405180910390fd5b8060026000846bffffffffffffffffffffffff166bffffffffffffffffffffffff16815260200190815260200160002060010160006101000a8154816bffffffffffffffffffffffff02191690836bffffffffffffffffffffffff160217905550816bffffffffffffffffffffffff167fdf6c9caf0223338d1b1d8e941d6b125e547ec14bf3b9789e3a7096b6f17c816361197f8461101b565b8360405161198e929190613282565b60405180910390a25050565b600060026000836bffffffffffffffffffffffff166bffffffffffffffffffffffff168152602001908152602001600020600501549050919050565b60008054906101000a900473ffffffffffffffffffffffffffffffffffffffff1673ffffffffffffffffffffffffffffffffffffffff166316279055336040518263ffffffff1660e01b8152600401611a2f9190612d6f565b602060405180830381865afa158015611a4c573d6000803e3d6000fd5b505050506040513d601f19601f82011682018060405250810190611a709190612db6565b611aaf576040517f08c379a0000000000000000000000000000000000000000000000000000000008152600401611aa690612e66565b60405180910390fd5b8060026000846bffffffffffffffffffffffff166bffffffffffffffffffffffff16815260200190815260200160002060020160006101000a8154816bffffffffffffffffffffffff02191690836bffffffffffffffffffffffff1602179055505050565b60008054906101000a900473ffffffffffffffffffffffffffffffffffffffff1673ffffffffffffffffffffffffffffffffffffffff166316279055336040518263ffffffff1660e01b8152600401611b6d9190612d6f565b602060405180830381865afa158015611b8a573d6000803e3d6000fd5b505050506040513d601f19601f82011682018060405250810190611bae9190612db6565b611bed576040517f08c379a0000000000000000000000000000000000000000000000000000000008152600401611be490612e66565b60405180910390fd5b600073ffffffffffffffffffffffffffffffffffffffff168273ffffffffffffffffffffffffffffffffffffffff1603611c5c576040517f08c379a0000000000000000000000000000000000000000000000000000000008152600401611c53906132fe565b60405180910390fd5b60008060009054906101000a900473ffffffffffffffffffffffffffffffffffffffff1673ffffffffffffffffffffffffffffffffffffffff166304433bbc6040518163ffffffff1660e01b8152600401611cb69061336a565b602060405180830381865afa158015611cd3573d6000803e3d6000fd5b505050506040513d601f19601f82011682018060405250810190611cf79190612f07565b90508073ffffffffffffffffffffffffffffffffffffffff1663a9059cbb84846040518363ffffffff1660e01b8152600401611d349291906133bb565b6020604051808303816000875af1158015611d53573d6000803e3d6000fd5b505050506040513d601f19601f82011682018060405250810190611d779190612db6565b50505050565b600060026000836bffffffffffffffffffffffff166bffffffffffffffffffffffff168152602001908152602001600020600201600c9054906101000a90046bffffffffffffffffffffffff169050919050565b60008060009054906101000a900473ffffffffffffffffffffffffffffffffffffffff1673ffffffffffffffffffffffffffffffffffffffff166316279055336040518263ffffffff1660e01b8152600401611e2d9190612d6f565b602060405180830381865afa158015611e4a573d6000803e3d6000fd5b505050506040513d601f19601f82011682018060405250810190611e6e9190612db6565b611ead576040517f08c379a0000000000000000000000000000000000000000000000000000000008152600401611ea490612e66565b60405180910390fd5b60008060009054906101000a900473ffffffffffffffffffffffffffffffffffffffff1673ffffffffffffffffffffffffffffffffffffffff166304433bbc6040518163ffffffff1660e01b8152600401611f0790613430565b602060405180830381865afa158015611f24573d6000803e3d6000fd5b505050506040513d601f19601f82011682018060405250810190611f489190612f07565b9050600087604051602001611f5d9190613498565b60405160208183030381529060405280519060200120905060008273ffffffffffffffffffffffffffffffffffffffff16631fc2b3ab836040518263ffffffff1660e01b8152600401611fb09190612d45565b602060405180830381865afa158015611fcd573d6000803e3d6000fd5b505050506040513d601f19601f82011682018060405250810190611ff191906134c8565b6bffffffffffffffffffffffff161461203f576040517f08c379a000000000000000000000000000000000000000000000000000000000815260040161203690613541565b60405180910390fd5b60018660405161204f91906131ff565b908152602001604051809103902060009054906101000a900460ff16156120ab576040517f08c379a00000000000000000000000000000000000000000000000000000000081526004016120a2906135d3565b60405180910390fd5b60008651036120ef576040517f08c379a00000000000000000000000000000000000000000000000000000000081526004016120e69061310d565b60405180910390fd5b6000856bffffffffffffffffffffffff1611612140576040517f08c379a00000000000000000000000000000000000000000000000000000000081526004016121379061363f565b60405180910390fd5b60008273ffffffffffffffffffffffffffffffffffffffff1663d10e73ab8a8a6040518363ffffffff1660e01b815260040161217d92919061365f565b6020604051808303816000875af115801561219c573d6000803e3d6000fd5b505050506040513d601f19601f820116820180604052508101906121c091906134c8565b9050600060026000836bffffffffffffffffffffffff166bffffffffffffffffffffffff1681526020019081526020016000209050868160000160006101000a8154816bffffffffffffffffffffffff02191690836bffffffffffffffffffffffff1602179055508581600001600c6101000a8154816bffffffffffffffffffffffff02191690836bffffffffffffffffffffffff1602179055508781600601908051906020019061227392919061242d565b5061227f82600061064d565b6001808960405161229091906131ff565b908152602001604051809103902060006101000a81548160ff0219169083151502179055508194505050505095945050505050565b600060026000846bffffffffffffffffffffffff166bffffffffffffffffffffffff16815260200190815260200160002060070160008360ff1660ff16815260200190815260200160002054905092915050565b60008054906101000a900473ffffffffffffffffffffffffffffffffffffffff1673ffffffffffffffffffffffffffffffffffffffff166316279055336040518263ffffffff1660e01b81526004016123729190612d6f565b602060405180830381865afa15801561238f573d6000803e3d6000fd5b505050506040513d601f19601f820116820180604052508101906123b39190612db6565b6123f2576040517f08c379a00000000000000000000000000000000000000000000000000000000081526004016123e990612e66565b60405180910390fd5b8060026000846bffffffffffffffffffffffff166bffffffffffffffffffffffff168152602001908152602001600020600501819055505050565b82805461243990612f72565b90600052602060002090601f01602090048101928261245b57600085556124a2565b82601f1061247457805160ff19168380011785556124a2565b828001600101855582156124a2579182015b828111156124a1578251825591602001919060010190612486565b5b5090506124af91906124f7565b5090565b6040518060c00160405280600690602082028036833780820191505090505090565b6040518060600160405280600390602082028036833780820191505090505090565b5b808211156125105760008160009055506001016124f8565b5090565b6000604051905090565b600080fd5b600080fd5b60006bffffffffffffffffffffffff82169050919050565b61254981612528565b811461255457600080fd5b50565b60008135905061256681612540565b92915050565b6000602082840312156125825761258161251e565b5b600061259084828501612557565b91505092915050565b6125a281612528565b82525050565b60006020820190506125bd6000830184612599565b92915050565b6000819050919050565b6125d6816125c3565b82525050565b60006020820190506125f160008301846125cd565b92915050565b600060ff82169050919050565b61260d816125f7565b811461261857600080fd5b50565b60008135905061262a81612604565b92915050565b600080604083850312156126475761264661251e565b5b600061265585828601612557565b92505060206126668582860161261b565b9150509250929050565b600080fd5b600080fd5b6000601f19601f8301169050919050565b7f4e487b7100000000000000000000000000000000000000000000000000000000600052604160045260246000fd5b6126c38261267a565b810181811067ffffffffffffffff821117156126e2576126e161268b565b5b80604052505050565b60006126f5612514565b905061270182826126ba565b919050565b600067ffffffffffffffff8211156127215761272061268b565b5b61272a8261267a565b9050602081019050919050565b82818337600083830152505050565b600061275961275484612706565b6126eb565b90508281526020810184848401111561277557612774612675565b5b612780848285612737565b509392505050565b600082601f83011261279d5761279c612670565b5b81356127ad848260208601612746565b91505092915050565b600080604083850312156127cd576127cc61251e565b5b60006127db85828601612557565b925050602083013567ffffffffffffffff8111156127fc576127fb612523565b5b61280885828601612788565b9150509250929050565b600080604083850312156128295761282861251e565b5b600061283785828601612557565b925050602061284885828601612557565b9150509250929050565b600073ffffffffffffffffffffffffffffffffffffffff82169050919050565b6000819050919050565b600061289761289261288d84612852565b612872565b612852565b9050919050565b60006128a98261287c565b9050919050565b60006128bb8261289e565b9050919050565b6128cb816128b0565b82525050565b60006020820190506128e660008301846128c2565b92915050565b6128f5816125c3565b811461290057600080fd5b50565b600081359050612912816128ec565b92915050565b6000806040838503121561292f5761292e61251e565b5b600061293d85828601612557565b925050602061294e85828601612903565b9150509250929050565b600081519050919050565b600082825260208201905092915050565b60005b83811015612992578082015181840152602081019050612977565b838111156129a1576000848401525b50505050565b60006129b282612958565b6129bc8185612963565b93506129cc818560208601612974565b6129d58161267a565b840191505092915050565b600060208201905081810360008301526129fa81846129a7565b905092915050565b600060069050919050565b600081905092915050565b6000819050919050565b612a2b81612528565b82525050565b6000612a3d8383612a22565b60208301905092915050565b6000602082019050919050565b612a5f81612a02565b612a698184612a0d565b9250612a7482612a18565b8060005b83811015612aa5578151612a8c8782612a31565b9650612a9783612a49565b925050600181019050612a78565b505050505050565b600060039050919050565b600081905092915050565b6000819050919050565b612ad6816125c3565b82525050565b6000612ae88383612acd565b60208301905092915050565b6000602082019050919050565b612b0a81612aad565b612b148184612ab8565b9250612b1f82612ac3565b8060005b83811015612b50578151612b378782612adc565b9650612b4283612af4565b925050600181019050612b23565b505050505050565b600061014082019050612b6e6000830186612a56565b612b7b60c0830185612b01565b818103610120830152612b8e81846129a7565b9050949350505050565b600060208284031215612bae57612bad61251e565b5b600082013567ffffffffffffffff811115612bcc57612bcb612523565b5b612bd884828501612788565b91505092915050565b60008115159050919050565b612bf681612be1565b82525050565b6000602082019050612c116000830184612bed565b92915050565b6000612c2282612852565b9050919050565b612c3281612c17565b8114612c3d57600080fd5b50565b600081359050612c4f81612c29565b92915050565b60008060408385031215612c6c57612c6b61251e565b5b6000612c7a85828601612c40565b9250506020612c8b85828601612557565b9150509250929050565b600080600080600060a08688031215612cb157612cb061251e565b5b6000612cbf88828901612c40565b9550506020612cd088828901612c40565b945050604086013567ffffffffffffffff811115612cf157612cf0612523565b5b612cfd88828901612788565b9350506060612d0e88828901612557565b9250506080612d1f88828901612557565b9150509295509295909350565b6000819050919050565b612d3f81612d2c565b82525050565b6000602082019050612d5a6000830184612d36565b92915050565b612d6981612c17565b82525050565b6000602082019050612d846000830184612d60565b92915050565b612d9381612be1565b8114612d9e57600080fd5b50565b600081519050612db081612d8a565b92915050565b600060208284031215612dcc57612dcb61251e565b5b6000612dda84828501612da1565b91505092915050565b600082825260208201905092915050565b7f46756e6374696f6e2063616e206f6e6c792062652063616c6c6564206279206360008201527f6f6e747261637473210000000000000000000000000000000000000000000000602082015250565b6000612e50602983612de3565b9150612e5b82612df4565b604082019050919050565b60006020820190508181036000830152612e7f81612e43565b9050919050565b7f48617368696e6750726f78790000000000000000000000000000000000000000600082015250565b6000612ebc600c83612de3565b9150612ec782612e86565b602082019050919050565b60006020820190508181036000830152612eeb81612eaf565b9050919050565b600081519050612f0181612c29565b92915050565b600060208284031215612f1d57612f1c61251e565b5b6000612f2b84828501612ef2565b91505092915050565b612f3d816125f7565b82525050565b7f4e487b7100000000000000000000000000000000000000000000000000000000600052602260045260246000fd5b60006002820490506001821680612f8a57607f821691505b602082108103612f9d57612f9c612f43565b5b50919050565b60008190508160005260206000209050919050565b60008154612fc581612f72565b612fcf8186612963565b94506001821660008114612fea5760018114612ffc5761302f565b60ff198316865260208601935061302f565b61300585612fa3565b60005b8381101561302757815481890152600182019150602081019050613008565b808801955050505b50505092915050565b600060408201905061304d6000830185612f34565b818103602083015261305f8184612fb8565b90509392505050565b61307181612d2c565b811461307c57600080fd5b50565b60008151905061308e81613068565b92915050565b6000602082840312156130aa576130a961251e565b5b60006130b88482850161307f565b91505092915050565b7f4e6f64652049442063616e277420626520656d70747900000000000000000000600082015250565b60006130f7601683612de3565b9150613102826130c1565b602082019050919050565b60006020820190508181036000830152613126816130ea565b9050919050565b600081905092915050565b6000815461314581612f72565b61314f818661312d565b9450600182166000811461316a576001811461317b576131ae565b60ff198316865281860193506131ae565b61318485612fa3565b60005b838110156131a657815481890152600182019150602081019050613187565b838801955050505b50505092915050565b60006131c38284613138565b915081905092915050565b60006131d982612958565b6131e3818561312d565b93506131f3818560208601612974565b80840191505092915050565b600061320b82846131ce565b915081905092915050565b7f41736b2063616e6e6f7420626520302e00000000000000000000000000000000600082015250565b600061324c601083612de3565b915061325782613216565b602082019050919050565b6000602082019050818103600083015261327b8161323f565b9050919050565b6000604082019050818103600083015261329c81856129a7565b90506132ab6020830184612599565b9392505050565b7f526563656976657220616464726573732063616e277420626520656d70747900600082015250565b60006132e8601f83612de3565b91506132f3826132b2565b602082019050919050565b60006020820190508181036000830152613317816132db565b9050919050565b7f546f6b656e000000000000000000000000000000000000000000000000000000600082015250565b6000613354600583612de3565b915061335f8261331e565b602082019050919050565b6000602082019050818103600083015261338381613347565b9050919050565b60006133a56133a061339b84612528565b612872565b6125c3565b9050919050565b6133b58161338a565b82525050565b60006040820190506133d06000830185612d60565b6133dd60208301846133ac565b9392505050565b7f4964656e7469747953746f726167650000000000000000000000000000000000600082015250565b600061341a600f83612de3565b9150613425826133e4565b602082019050919050565b600060208201905081810360008301526134498161340d565b9050919050565b60008160601b9050919050565b600061346882613450565b9050919050565b600061347a8261345d565b9050919050565b61349261348d82612c17565b61346f565b82525050565b60006134a48284613481565b60148201915081905092915050565b6000815190506134c281612540565b92915050565b6000602082840312156134de576134dd61251e565b5b60006134ec848285016134b3565b91505092915050565b7f50726f66696c6520616c72656164792065786973747300000000000000000000600082015250565b600061352b601683612de3565b9150613536826134f5565b602082019050919050565b6000602082019050818103600083015261355a8161351e565b9050919050565b7f4e6f646520494420636f6e6e6563746564207769746820616e6f74686572207060008201527f726f66696c650000000000000000000000000000000000000000000000000000602082015250565b60006135bd602683612de3565b91506135c882613561565b604082019050919050565b600060208201905081810360008301526135ec816135b0565b9050919050565b7f41736b2063616e27742062652030000000000000000000000000000000000000600082015250565b6000613629600e83612de3565b9150613634826135f3565b602082019050919050565b600060208201905081810360008301526136588161361c565b9050919050565b60006040820190506136746000830185612d60565b6136816020830184612d60565b939250505056fea2646970667358221220d1832a1c6632736d8d89acd7d5e8f6af3ded70f7e8438511b914815c21262ed764736f6c634300080e0033",
  "immutableReferences": {},
  "source": "// SPDX-License-Identifier: MIT\n\npragma solidity ^0.8.0;\n\nimport { HashingProxy } from \"../HashingProxy.sol\";\nimport { Hub } from \"../Hub.sol\";\nimport { IdentityStorage } from \"./IdentityStorage.sol\";\nimport { IERC20 } from \"@openzeppelin/contracts/token/ERC20/IERC20.sol\";\n\ncontract ProfileStorage {\n    event AskUpdated(uint96 indexed identityId, bytes nodeId, uint96 ask);\n    event StakeUpdated(uint96 indexed identityId, bytes nodeId, uint96 stake);\n    event RewardUpdated(uint96 indexed identityId, bytes nodeId, uint96 reward);\n\n    Hub public hub;\n\n    struct ProfileDefinition{\n        uint96 ask;\n        uint96 stake;\n        uint96 reward;\n        uint96 stakeWithdrawalAmount;\n        uint96 rewardWithdrawalAmount;\n        uint96 frozenAmount;  // TODO: Slashing mechanism\n        uint256 stakeWithdrawalTimestamp;\n        uint256 rewardWithdrawalTimestamp;\n        uint256 freezeTimestamp;  // TODO: Slashing mechanism\n        bytes nodeId;\n        mapping(uint8 => bytes32) nodeAddresses;\n    }\n\n    // nodeId => isRegistered?\n    mapping(bytes => bool) public nodeIdsList;\n    // identityId => Profile\n    mapping(uint96 => ProfileDefinition) profiles;\n\n    constructor(address hubAddress) {\n        require(hubAddress != address(0));\n        hub = Hub(hubAddress);\n    }\n\n    modifier onlyContracts() {\n        require(hub.isContract(msg.sender),\n        \"Function can only be called by contracts!\");\n        _;\n    }\n\n    function createProfile(\n        address operationalWallet,\n        address adminWallet,\n        bytes memory nodeId,\n        uint96 initialAsk,\n        uint96 initialStake\n    )\n        public\n        onlyContracts\n        returns (uint96)\n    {\n        IdentityStorage identityStorage = IdentityStorage(hub.getContractAddress(\"IdentityStorage\"));\n\n        bytes32 _operational_key = keccak256(abi.encodePacked(operationalWallet));\n\n        require(identityStorage.identityIds(_operational_key) == 0, \"Profile already exists\");\n        require(!nodeIdsList[nodeId], \"Node ID connected with another profile\");\n        require(nodeId.length != 0, \"Node ID can't be empty\");\n        require(initialAsk > 0, \"Ask can't be 0\");\n\n        uint96 identityId = identityStorage.createIdentity(operationalWallet, adminWallet);\n\n        ProfileDefinition storage profile = profiles[identityId];\n        profile.ask = initialAsk;\n        profile.stake = initialStake;\n        profile.nodeId = nodeId;\n        setNodeAddress(identityId, 0);  // TODO: Add setters for all existing hashing functions\n\n        nodeIdsList[nodeId] = true;\n\n        return identityId;\n    }\n\n    /* ----------------GETTERS------------------ */\n    function getProfile(uint96 identityId)\n        public\n        view\n        returns (uint96[6] memory, uint256[3] memory, bytes memory)\n    {\n        ProfileDefinition storage profile = profiles[identityId];\n\n        return (\n            [\n                profile.ask,\n                profile.stake,\n                profile.reward,\n                profile.stakeWithdrawalAmount,\n                profile.rewardWithdrawalAmount,\n                profile.frozenAmount\n            ],\n            [profile.stakeWithdrawalTimestamp, profile.rewardWithdrawalTimestamp, profile.freezeTimestamp],\n            profile.nodeId\n        );\n    }\n\n    function getAsk(uint96 identityId)\n        public\n        view\n        returns (uint96)\n    {\n        return profiles[identityId].ask;\n    }\n\n    function getStake(uint96 identityId) \n        public\n        view\n        returns (uint96)\n    {\n        return profiles[identityId].stake;\n    }\n\n    function getReward(uint96 identityId)\n        public\n        view\n        returns (uint96)\n    {\n        return profiles[identityId].reward;\n    }\n\n    function getStakeWithdrawalAmount(uint96 identityId) \n        public\n        view\n        returns (uint96)\n    {\n        return profiles[identityId].stakeWithdrawalAmount;\n    }\n\n    function getRewardWithdrawalAmount(uint96 identityId)\n        public\n        view\n        returns (uint96)\n    {\n        return profiles[identityId].rewardWithdrawalAmount;\n    }\n\n    function getFrozenAmount(uint96 identityId) \n        public\n        view\n        returns (uint96)\n    {\n        return profiles[identityId].frozenAmount;\n    }\n\n    function getStakeWithdrawalTimestamp(uint96 identityId) \n        public\n        view\n        returns (uint256)\n    {\n        return profiles[identityId].stakeWithdrawalTimestamp;\n    }\n\n    function getRewardWithdrawalTimestamp(uint96 identityId)\n        public\n        view\n        returns (uint256)\n    {\n        return profiles[identityId].rewardWithdrawalTimestamp;\n    }\n\n    function getFreezeTimestamp(uint96 identityId)\n        public\n        view\n        returns (uint256)\n    {\n        return profiles[identityId].freezeTimestamp;\n    }\n\n    function getNodeId(uint96 identityId) \n        public\n        view\n        returns (bytes memory)\n    {\n        return profiles[identityId].nodeId;\n    }\n\n    function getNodeAddress(uint96 identityId, uint8 hashFunctionId)\n        public\n        view\n        returns (bytes32)\n    {\n        return profiles[identityId].nodeAddresses[hashFunctionId];\n    }\n\n    /* ----------------SETTERS------------------ */\n    function setAsk(uint96 identityId, uint96 ask)\n        public\n        onlyContracts\n    {\n        require(ask > 0, \"Ask cannot be 0.\");\n\n        profiles[identityId].ask = ask;\n\n        emit AskUpdated(identityId, getNodeId(identityId), ask);\n    }\n    \n    function setStake(uint96 identityId, uint96 stake)\n        public\n        onlyContracts\n    {\n        profiles[identityId].stake = stake;\n\n        emit StakeUpdated(identityId, getNodeId(identityId), stake);\n    }\n\n    function setReward(uint96 identityId, uint96 reward)\n        public\n        onlyContracts\n    {\n        profiles[identityId].reward = reward;\n\n        emit RewardUpdated(identityId, getNodeId(identityId), reward);\n    }\n\n    function setStakeWithdrawalAmount(uint96 identityId, uint96 stakeWithdrawalAmount) \n        public\n        onlyContracts\n    {\n        profiles[identityId].stakeWithdrawalAmount = stakeWithdrawalAmount;\n    }\n\n    function setRewardWithdrawalAmount(uint96 identityId, uint96 rewardWithdrawalAmount)\n        public\n        onlyContracts\n    {\n        profiles[identityId].rewardWithdrawalAmount = rewardWithdrawalAmount;\n    }\n\n    function setFrozenAmount(uint96 identityId, uint96 frozenAmount) \n        public\n        onlyContracts\n    {\n        profiles[identityId].frozenAmount = frozenAmount;\n    }\n\n    function setStakeWithdrawalTimestamp(uint96 identityId, uint256 stakeWithdrawalTimestamp) \n        public\n        onlyContracts\n    {\n        profiles[identityId].stakeWithdrawalTimestamp = stakeWithdrawalTimestamp;\n    }\n\n    function setRewardWithdrawalTimestamp(uint96 identityId, uint256 rewardWithdrawalTimestamp)\n        public\n        onlyContracts\n    {\n        profiles[identityId].rewardWithdrawalTimestamp = rewardWithdrawalTimestamp;\n    }\n\n    function setFreezeTimestamp(uint96 identityId, uint256 freezeTimestamp)\n        public\n        onlyContracts\n    {\n        profiles[identityId].freezeTimestamp = freezeTimestamp;\n    }\n\n    function setNodeId(uint96 identityId, bytes memory nodeId)\n        public\n        onlyContracts\n    {\n        require(nodeId.length != 0, \"Node ID can't be empty\");\n\n        profiles[identityId].nodeId = nodeId;\n\n        nodeIdsList[profiles[identityId].nodeId] = false;\n        nodeIdsList[nodeId] = true;\n    }\n\n    function setNodeAddress(uint96 identityId, uint8 hashFunctionId)\n        public\n        onlyContracts\n    {\n        HashingProxy hashingProxy = HashingProxy(hub.getContractAddress(\"HashingProxy\"));\n        profiles[identityId].nodeAddresses[hashFunctionId] = hashingProxy.callHashFunction(\n            hashFunctionId,\n            profiles[identityId].nodeId\n        );\n    }\n\n    function transferTokens(address receiver, uint96 amount)\n        public\n        onlyContracts\n    {\n        require(receiver != address(0), \"Receiver address can't be empty\");\n\n        IERC20 tokenContract = IERC20(hub.getContractAddress(\"Token\"));\n        tokenContract.transfer(receiver, amount);\n    }\n}\n",
  "sourcePath": "/Users/waving/Desktop/OriginTrail/dkg-evm-module/contracts/storage/ProfileStorage.sol",
  "compiler": {
    "name": "solc",
    "version": "0.8.14+commit.80d49f37.Emscripten.clang"
  },
  "schemaVersion": "3.4.10",
  "updatedAt": "2022-11-23T15:54:42.646Z",
  "devdoc": {
    "kind": "dev",
    "methods": {},
    "version": 1
  },
  "userdoc": {
    "kind": "user",
    "methods": {},
    "version": 1
  }
}