{
  "contractName": "Profile",
  "abi": [
    {
      "inputs": [
        {
          "internalType": "address",
          "name": "hubAddress",
          "type": "address"
        }
      ],
      "stateMutability": "nonpayable",
      "type": "constructor"
    },
    {
      "anonymous": false,
      "inputs": [
        {
          "indexed": true,
          "internalType": "uint72",
          "name": "identityId",
          "type": "uint72"
        },
        {
          "indexed": false,
          "internalType": "bytes",
          "name": "nodeId",
          "type": "bytes"
        }
      ],
      "name": "ProfileCreated",
      "type": "event"
    },
    {
      "anonymous": false,
      "inputs": [
        {
          "indexed": true,
          "internalType": "uint72",
          "name": "identityId",
          "type": "uint72"
        },
        {
          "indexed": false,
          "internalType": "bytes",
          "name": "nodeId",
          "type": "bytes"
        },
        {
          "indexed": false,
          "internalType": "uint96",
          "name": "rewardWithdrawalAmount",
          "type": "uint96"
        },
        {
          "indexed": false,
          "internalType": "uint256",
          "name": "rewardWithdrawalTimestamp",
          "type": "uint256"
        }
      ],
      "name": "RewardWithdrawalInitiated",
      "type": "event"
    },
    {
      "anonymous": false,
      "inputs": [
        {
          "indexed": true,
          "internalType": "uint72",
          "name": "identityId",
          "type": "uint72"
        },
        {
          "indexed": false,
          "internalType": "bytes",
          "name": "nodeId",
          "type": "bytes"
        },
        {
          "indexed": false,
          "internalType": "uint96",
          "name": "withdrawnRewardAmount",
          "type": "uint96"
        }
      ],
      "name": "RewardWithdrawn",
      "type": "event"
    },
    {
      "anonymous": false,
      "inputs": [
        {
          "indexed": true,
          "internalType": "uint72",
          "name": "identityId",
          "type": "uint72"
        },
        {
          "indexed": true,
          "internalType": "bytes",
          "name": "nodeId",
          "type": "bytes"
        },
        {
          "indexed": false,
          "internalType": "uint96",
          "name": "frozenStakeAmount",
          "type": "uint96"
        }
      ],
      "name": "StakeFrozen",
      "type": "event"
    },
    {
      "anonymous": false,
      "inputs": [
        {
          "indexed": true,
          "internalType": "uint72",
          "name": "identityId",
          "type": "uint72"
        },
        {
          "indexed": false,
          "internalType": "bytes",
          "name": "nodeId",
          "type": "bytes"
        },
        {
          "indexed": false,
          "internalType": "uint96",
          "name": "stakedAmount",
          "type": "uint96"
        },
        {
          "indexed": false,
          "internalType": "uint96",
          "name": "newStake",
          "type": "uint96"
        }
      ],
      "name": "StakeIncreased",
      "type": "event"
    },
    {
      "anonymous": false,
      "inputs": [
        {
          "indexed": true,
          "internalType": "uint72",
          "name": "identityId",
          "type": "uint72"
        },
        {
          "indexed": false,
          "internalType": "bytes",
          "name": "nodeId",
          "type": "bytes"
        },
        {
          "indexed": false,
          "internalType": "uint96",
          "name": "unfrozenStakeAmount",
          "type": "uint96"
        }
      ],
      "name": "StakeUnfrozen",
      "type": "event"
    },
    {
      "anonymous": false,
      "inputs": [
        {
          "indexed": true,
          "internalType": "uint72",
          "name": "identityId",
          "type": "uint72"
        },
        {
          "indexed": false,
          "internalType": "bytes",
          "name": "nodeId",
          "type": "bytes"
        },
        {
          "indexed": false,
          "internalType": "uint96",
          "name": "stakeWithdrawalAmount",
          "type": "uint96"
        },
        {
          "indexed": false,
          "internalType": "uint256",
          "name": "stakeWithdrawalTimestamp",
          "type": "uint256"
        },
        {
          "indexed": false,
          "internalType": "uint96",
          "name": "newStake",
          "type": "uint96"
        }
      ],
      "name": "StakeWithdrawalInitiated",
      "type": "event"
    },
    {
      "anonymous": false,
      "inputs": [
        {
          "indexed": true,
          "internalType": "uint72",
          "name": "identityId",
          "type": "uint72"
        },
        {
          "indexed": false,
          "internalType": "bytes",
          "name": "nodeId",
          "type": "bytes"
        },
        {
          "indexed": false,
          "internalType": "uint96",
          "name": "withdrawnStakeAmount",
          "type": "uint96"
        }
      ],
      "name": "StakeWithdrawn",
      "type": "event"
    },
    {
      "inputs": [],
      "name": "hub",
      "outputs": [
        {
          "internalType": "contract Hub",
          "name": "",
          "type": "address"
        }
      ],
      "stateMutability": "view",
      "type": "function"
    },
    {
      "inputs": [
        {
          "internalType": "address",
          "name": "adminWallet",
          "type": "address"
        },
        {
          "internalType": "bytes",
          "name": "nodeId",
          "type": "bytes"
        },
        {
          "internalType": "uint96",
          "name": "initialAsk",
          "type": "uint96"
        },
        {
          "internalType": "uint96",
          "name": "initialStake",
          "type": "uint96"
        }
      ],
      "name": "createProfile",
      "outputs": [],
      "stateMutability": "nonpayable",
      "type": "function"
    },
    {
      "inputs": [
        {
          "internalType": "uint72",
          "name": "identityId",
          "type": "uint72"
        },
        {
          "internalType": "uint8",
          "name": "hashFunctionId",
          "type": "uint8"
        }
      ],
      "name": "addNewNodeIdHash",
      "outputs": [],
      "stateMutability": "nonpayable",
      "type": "function"
    },
    {
      "inputs": [
        {
          "internalType": "uint72",
          "name": "identityId",
          "type": "uint72"
        },
        {
          "internalType": "uint96",
          "name": "amount",
          "type": "uint96"
        }
      ],
      "name": "increaseStake",
      "outputs": [],
      "stateMutability": "nonpayable",
      "type": "function"
    },
    {
      "inputs": [
        {
          "internalType": "uint72",
          "name": "identityId",
          "type": "uint72"
        },
        {
          "internalType": "uint96",
          "name": "amount",
          "type": "uint96"
        }
      ],
      "name": "startStakeWithdrawal",
      "outputs": [],
      "stateMutability": "nonpayable",
      "type": "function"
    },
    {
      "inputs": [
        {
          "internalType": "uint72",
          "name": "identityId",
          "type": "uint72"
        }
      ],
      "name": "withdrawFreeStake",
      "outputs": [],
      "stateMutability": "nonpayable",
      "type": "function"
    },
    {
      "inputs": [
        {
          "internalType": "uint72",
          "name": "identityId",
          "type": "uint72"
        }
      ],
      "name": "stakeReward",
      "outputs": [],
      "stateMutability": "nonpayable",
      "type": "function"
    },
    {
      "inputs": [
        {
          "internalType": "uint72",
          "name": "identityId",
          "type": "uint72"
        }
      ],
      "name": "startRewardWithdrawal",
      "outputs": [],
      "stateMutability": "nonpayable",
      "type": "function"
    },
    {
      "inputs": [
        {
          "internalType": "uint72",
          "name": "identityId",
          "type": "uint72"
        }
      ],
      "name": "withdrawFreeReward",
      "outputs": [],
      "stateMutability": "nonpayable",
      "type": "function"
    }
  ],
  "bytecode": "0x60806040523480156200001157600080fd5b5060405162004d5438038062004d54833981810160405281019062000037919062000122565b600073ffffffffffffffffffffffffffffffffffffffff168173ffffffffffffffffffffffffffffffffffffffff16036200007157600080fd5b806000806101000a81548173ffffffffffffffffffffffffffffffffffffffff021916908373ffffffffffffffffffffffffffffffffffffffff1602179055505062000154565b600080fd5b600073ffffffffffffffffffffffffffffffffffffffff82169050919050565b6000620000ea82620000bd565b9050919050565b620000fc81620000dd565b81146200010857600080fd5b50565b6000815190506200011c81620000f1565b92915050565b6000602082840312156200013b576200013a620000b8565b5b60006200014b848285016200010b565b91505092915050565b614bf080620001646000396000f3fe608060405234801561001057600080fd5b50600436106100935760003560e01c806341d4b76b1161006657806341d4b76b1461010a5780638047fc381461012657806396485bb014610142578063bf4384bf1461015e578063cd6927911461017a57610093565b8063090b1fab146100985780632c86da5a146100b4578063365a86fc146100d057806337c92132146100ee575b600080fd5b6100b260048036038101906100ad91906136f4565b610196565b005b6100ce60048036038101906100c99190613765565b6106dd565b005b6100d8611050565b6040516100e59190613824565b60405180910390f35b610108600480360381019061010391906136f4565b611074565b005b610124600480360381019061011f91906136f4565b611862565b005b610140600480360381019061013b9190613765565b611f03565b005b61015c600480360381019061015791906136f4565b61286f565b005b61017860048036038101906101739190613878565b612db6565b005b610194600480360381019061018f9190613a3c565b61303b565b005b8060008054906101000a900473ffffffffffffffffffffffffffffffffffffffff1673ffffffffffffffffffffffffffffffffffffffff166304433bbc6040518163ffffffff1660e01b81526004016101ee90613b1c565b602060405180830381865afa15801561020b573d6000803e3d6000fd5b505050506040513d601f19601f8201168201806040525081019061022f9190613b51565b73ffffffffffffffffffffffffffffffffffffffff166335e4fb7a823360405160200161025c9190613bc6565b6040516020818303038152906040528051906020012060016040518463ffffffff1660e01b815260040161029293929190613c4e565b602060405180830381865afa1580156102af573d6000803e3d6000fd5b505050506040513d601f19601f820116820180604052508101906102d39190613cbd565b610312576040517f08c379a000000000000000000000000000000000000000000000000000000000815260040161030990613d5c565b60405180910390fd5b60008060009054906101000a900473ffffffffffffffffffffffffffffffffffffffff1673ffffffffffffffffffffffffffffffffffffffff166304433bbc6040518163ffffffff1660e01b815260040161036c90613dc8565b602060405180830381865afa158015610389573d6000803e3d6000fd5b505050506040513d601f19601f820116820180604052508101906103ad9190613b51565b905060008173ffffffffffffffffffffffffffffffffffffffff166360d6e7a8856040518263ffffffff1660e01b81526004016103ea9190613de8565b602060405180830381865afa158015610407573d6000803e3d6000fd5b505050506040513d601f19601f8201168201806040525081019061042b9190613e18565b90506000816bffffffffffffffffffffffff161161047e576040517f08c379a000000000000000000000000000000000000000000000000000000000815260040161047590613e91565b60405180910390fd5b428273ffffffffffffffffffffffffffffffffffffffff1663ec234539866040518263ffffffff1660e01b81526004016104b89190613de8565b602060405180830381865afa1580156104d5573d6000803e3d6000fd5b505050506040513d601f19601f820116820180604052508101906104f99190613edd565b10610539576040517f08c379a000000000000000000000000000000000000000000000000000000000815260040161053090613f7c565b60405180910390fd5b8173ffffffffffffffffffffffffffffffffffffffff166331909bc88560006040518363ffffffff1660e01b8152600401610575929190613fd7565b600060405180830381600087803b15801561058f57600080fd5b505af11580156105a3573d6000803e3d6000fd5b505050508173ffffffffffffffffffffffffffffffffffffffff1663abe979e133836040518363ffffffff1660e01b81526004016105e292919061401e565b600060405180830381600087803b1580156105fc57600080fd5b505af1158015610610573d6000803e3d6000fd5b505050508368ffffffffffffffffff167fff1a504c7be07f5c815e27769823bf36dfd394edb4a2e788d1cd0b1572c25f078373ffffffffffffffffffffffffffffffffffffffff166341c10b9a876040518263ffffffff1660e01b815260040161067a9190613de8565b600060405180830381865afa158015610697573d6000803e3d6000fd5b505050506040513d6000823e3d601f19601f820116820180604052508101906106c091906140ea565b836040516106cf929190614188565b60405180910390a250505050565b8160008054906101000a900473ffffffffffffffffffffffffffffffffffffffff1673ffffffffffffffffffffffffffffffffffffffff166304433bbc6040518163ffffffff1660e01b815260040161073590613b1c565b602060405180830381865afa158015610752573d6000803e3d6000fd5b505050506040513d601f19601f820116820180604052508101906107769190613b51565b73ffffffffffffffffffffffffffffffffffffffff166335e4fb7a82336040516020016107a39190613bc6565b6040516020818303038152906040528051906020012060016040518463ffffffff1660e01b81526004016107d993929190613c4e565b602060405180830381865afa1580156107f6573d6000803e3d6000fd5b505050506040513d601f19601f8201168201806040525081019061081a9190613cbd565b610859576040517f08c379a000000000000000000000000000000000000000000000000000000000815260040161085090613d5c565b60405180910390fd5b60008060009054906101000a900473ffffffffffffffffffffffffffffffffffffffff1673ffffffffffffffffffffffffffffffffffffffff166304433bbc6040518163ffffffff1660e01b81526004016108b390613dc8565b602060405180830381865afa1580156108d0573d6000803e3d6000fd5b505050506040513d601f19601f820116820180604052508101906108f49190613b51565b90508073ffffffffffffffffffffffffffffffffffffffff1663edf530c0856040518263ffffffff1660e01b815260040161092f9190613de8565b602060405180830381865afa15801561094c573d6000803e3d6000fd5b505050506040513d601f19601f820116820180604052508101906109709190613e18565b6bffffffffffffffffffffffff16836bffffffffffffffffffffffff1611156109ce576040517f08c379a00000000000000000000000000000000000000000000000000000000081526004016109c59061422a565b60405180910390fd5b60008173ffffffffffffffffffffffffffffffffffffffff1663edf530c0866040518263ffffffff1660e01b8152600401610a099190613de8565b602060405180830381865afa158015610a26573d6000803e3d6000fd5b505050506040513d601f19601f82011682018060405250810190610a4a9190613e18565b905060008482610a5a9190614279565b90506000858473ffffffffffffffffffffffffffffffffffffffff1663f0114111896040518263ffffffff1660e01b8152600401610a989190613de8565b602060405180830381865afa158015610ab5573d6000803e3d6000fd5b505050506040513d601f19601f82011682018060405250810190610ad99190613e18565b610ae391906142ad565b905060008060009054906101000a900473ffffffffffffffffffffffffffffffffffffffff1673ffffffffffffffffffffffffffffffffffffffff166304433bbc6040518163ffffffff1660e01b8152600401610b3f9061433b565b602060405180830381865afa158015610b5c573d6000803e3d6000fd5b505050506040513d601f19601f82011682018060405250810190610b809190613b51565b90508473ffffffffffffffffffffffffffffffffffffffff1663f2a9415889856040518363ffffffff1660e01b8152600401610bbd92919061435b565b600060405180830381600087803b158015610bd757600080fd5b505af1158015610beb573d6000803e3d6000fd5b505050508473ffffffffffffffffffffffffffffffffffffffff166352772b4689846040518363ffffffff1660e01b8152600401610c2a92919061435b565b600060405180830381600087803b158015610c4457600080fd5b505af1158015610c58573d6000803e3d6000fd5b5050505060008173ffffffffffffffffffffffffffffffffffffffff1663151db1b96040518163ffffffff1660e01b8152600401602060405180830381865afa158015610ca9573d6000803e3d6000fd5b505050506040513d601f19601f82011682018060405250810190610ccd91906143bf565b62ffffff1642610cdd91906143ec565b90508573ffffffffffffffffffffffffffffffffffffffff166368006d7d8a836040518363ffffffff1660e01b8152600401610d1a929190614451565b600060405180830381600087803b158015610d3457600080fd5b505af1158015610d48573d6000803e3d6000fd5b505050508173ffffffffffffffffffffffffffffffffffffffff1663ec5ffac26040518163ffffffff1660e01b8152600401602060405180830381865afa158015610d97573d6000803e3d6000fd5b505050506040513d601f19601f82011682018060405250810190610dbb9190613e18565b6bffffffffffffffffffffffff16856bffffffffffffffffffffffff1610158015610e6f57508173ffffffffffffffffffffffffffffffffffffffff1663ec5ffac26040518163ffffffff1660e01b8152600401602060405180830381865afa158015610e2c573d6000803e3d6000fd5b505050506040513d601f19601f82011682018060405250810190610e509190613e18565b6bffffffffffffffffffffffff16846bffffffffffffffffffffffff16105b15610f7e5760008060009054906101000a900473ffffffffffffffffffffffffffffffffffffffff1673ffffffffffffffffffffffffffffffffffffffff166304433bbc6040518163ffffffff1660e01b8152600401610ece906144c6565b602060405180830381865afa158015610eeb573d6000803e3d6000fd5b505050506040513d601f19601f82011682018060405250810190610f0f9190613b51565b90508073ffffffffffffffffffffffffffffffffffffffff1663af9c1ec68b6040518263ffffffff1660e01b8152600401610f4a9190613de8565b600060405180830381600087803b158015610f6457600080fd5b505af1158015610f78573d6000803e3d6000fd5b50505050505b8868ffffffffffffffffff167f8c53c17b4c81108a6b754d3f4ac29a701d145e1ef2711c588b900c2c8d4954c28773ffffffffffffffffffffffffffffffffffffffff166341c10b9a8c6040518263ffffffff1660e01b8152600401610fe49190613de8565b600060405180830381865afa158015611001573d6000803e3d6000fd5b505050506040513d6000823e3d601f19601f8201168201806040525081019061102a91906140ea565b85848860405161103d94939291906144e6565b60405180910390a2505050505050505050565b60008054906101000a900473ffffffffffffffffffffffffffffffffffffffff1681565b8060008054906101000a900473ffffffffffffffffffffffffffffffffffffffff1673ffffffffffffffffffffffffffffffffffffffff166304433bbc6040518163ffffffff1660e01b81526004016110cc90613b1c565b602060405180830381865afa1580156110e9573d6000803e3d6000fd5b505050506040513d601f19601f8201168201806040525081019061110d9190613b51565b73ffffffffffffffffffffffffffffffffffffffff166335e4fb7a823360405160200161113a9190613bc6565b6040516020818303038152906040528051906020012060016040518463ffffffff1660e01b815260040161117093929190613c4e565b602060405180830381865afa15801561118d573d6000803e3d6000fd5b505050506040513d601f19601f820116820180604052508101906111b19190613cbd565b6111f0576040517f08c379a00000000000000000000000000000000000000000000000000000000081526004016111e790613d5c565b60405180910390fd5b60008060009054906101000a900473ffffffffffffffffffffffffffffffffffffffff1673ffffffffffffffffffffffffffffffffffffffff166304433bbc6040518163ffffffff1660e01b815260040161124a90613dc8565b602060405180830381865afa158015611267573d6000803e3d6000fd5b505050506040513d601f19601f8201168201806040525081019061128b9190613b51565b905060008173ffffffffffffffffffffffffffffffffffffffff1663c1713b02856040518263ffffffff1660e01b81526004016112c89190613de8565b602060405180830381865afa1580156112e5573d6000803e3d6000fd5b505050506040513d601f19601f820116820180604052508101906113099190613e18565b90506000816bffffffffffffffffffffffff161161135c576040517f08c379a00000000000000000000000000000000000000000000000000000000081526004016113539061457e565b60405180910390fd5b60008273ffffffffffffffffffffffffffffffffffffffff1663edf530c0866040518263ffffffff1660e01b81526004016113979190613de8565b602060405180830381865afa1580156113b4573d6000803e3d6000fd5b505050506040513d601f19601f820116820180604052508101906113d89190613e18565b9050600082826113e891906142ad565b90508373ffffffffffffffffffffffffffffffffffffffff166303e9f0a18760006040518363ffffffff1660e01b8152600401611426929190613fd7565b600060405180830381600087803b15801561144057600080fd5b505af1158015611454573d6000803e3d6000fd5b505050508373ffffffffffffffffffffffffffffffffffffffff1663f2a9415887836040518363ffffffff1660e01b815260040161149392919061435b565b600060405180830381600087803b1580156114ad57600080fd5b505af11580156114c1573d6000803e3d6000fd5b5050505060008060009054906101000a900473ffffffffffffffffffffffffffffffffffffffff1673ffffffffffffffffffffffffffffffffffffffff166304433bbc6040518163ffffffff1660e01b815260040161151f9061433b565b602060405180830381865afa15801561153c573d6000803e3d6000fd5b505050506040513d601f19601f820116820180604052508101906115609190613b51565b90508073ffffffffffffffffffffffffffffffffffffffff1663ec5ffac26040518163ffffffff1660e01b8152600401602060405180830381865afa1580156115ad573d6000803e3d6000fd5b505050506040513d601f19601f820116820180604052508101906115d19190613e18565b6bffffffffffffffffffffffff16836bffffffffffffffffffffffff1610801561168557508073ffffffffffffffffffffffffffffffffffffffff1663ec5ffac26040518163ffffffff1660e01b8152600401602060405180830381865afa158015611641573d6000803e3d6000fd5b505050506040513d601f19601f820116820180604052508101906116659190613e18565b6bffffffffffffffffffffffff16826bffffffffffffffffffffffff1610155b156117945760008060009054906101000a900473ffffffffffffffffffffffffffffffffffffffff1673ffffffffffffffffffffffffffffffffffffffff166304433bbc6040518163ffffffff1660e01b81526004016116e4906144c6565b602060405180830381865afa158015611701573d6000803e3d6000fd5b505050506040513d601f19601f820116820180604052508101906117259190613b51565b90508073ffffffffffffffffffffffffffffffffffffffff1663415942b1896040518263ffffffff1660e01b81526004016117609190613de8565b600060405180830381600087803b15801561177a57600080fd5b505af115801561178e573d6000803e3d6000fd5b50505050505b8668ffffffffffffffffff167f227b727366beb042d7f05f01d6c8a4533f74b59e90d3da6be9017560896534d88673ffffffffffffffffffffffffffffffffffffffff166341c10b9a8a6040518263ffffffff1660e01b81526004016117fa9190613de8565b600060405180830381865afa158015611817573d6000803e3d6000fd5b505050506040513d6000823e3d601f19601f8201168201806040525081019061184091906140ea565b86856040516118519392919061459e565b60405180910390a250505050505050565b8060008054906101000a900473ffffffffffffffffffffffffffffffffffffffff1673ffffffffffffffffffffffffffffffffffffffff166304433bbc6040518163ffffffff1660e01b81526004016118ba90613b1c565b602060405180830381865afa1580156118d7573d6000803e3d6000fd5b505050506040513d601f19601f820116820180604052508101906118fb9190613b51565b73ffffffffffffffffffffffffffffffffffffffff166335e4fb7a82336040516020016119289190613bc6565b6040516020818303038152906040528051906020012060016040518463ffffffff1660e01b815260040161195e93929190613c4e565b602060405180830381865afa15801561197b573d6000803e3d6000fd5b505050506040513d601f19601f8201168201806040525081019061199f9190613cbd565b6119de576040517f08c379a00000000000000000000000000000000000000000000000000000000081526004016119d590613d5c565b60405180910390fd5b60008060009054906101000a900473ffffffffffffffffffffffffffffffffffffffff1673ffffffffffffffffffffffffffffffffffffffff166304433bbc6040518163ffffffff1660e01b8152600401611a3890613dc8565b602060405180830381865afa158015611a55573d6000803e3d6000fd5b505050506040513d601f19601f82011682018060405250810190611a799190613b51565b905060008173ffffffffffffffffffffffffffffffffffffffff1663c1713b02856040518263ffffffff1660e01b8152600401611ab69190613de8565b602060405180830381865afa158015611ad3573d6000803e3d6000fd5b505050506040513d601f19601f82011682018060405250810190611af79190613e18565b90506000816bffffffffffffffffffffffff1611611b4a576040517f08c379a0000000000000000000000000000000000000000000000000000000008152600401611b4190614628565b60405180910390fd5b60008060009054906101000a900473ffffffffffffffffffffffffffffffffffffffff1673ffffffffffffffffffffffffffffffffffffffff166304433bbc6040518163ffffffff1660e01b8152600401611ba49061433b565b602060405180830381865afa158015611bc1573d6000803e3d6000fd5b505050506040513d601f19601f82011682018060405250810190611be59190613b51565b90508273ffffffffffffffffffffffffffffffffffffffff166303e9f0a18660006040518363ffffffff1660e01b8152600401611c23929190613fd7565b600060405180830381600087803b158015611c3d57600080fd5b505af1158015611c51573d6000803e3d6000fd5b505050508273ffffffffffffffffffffffffffffffffffffffff166331909bc886848673ffffffffffffffffffffffffffffffffffffffff166360d6e7a88a6040518263ffffffff1660e01b8152600401611cac9190613de8565b602060405180830381865afa158015611cc9573d6000803e3d6000fd5b505050506040513d601f19601f82011682018060405250810190611ced9190613e18565b611cf791906142ad565b6040518363ffffffff1660e01b8152600401611d1492919061435b565b600060405180830381600087803b158015611d2e57600080fd5b505af1158015611d42573d6000803e3d6000fd5b5050505060008173ffffffffffffffffffffffffffffffffffffffff1663f1b776f56040518163ffffffff1660e01b8152600401602060405180830381865afa158015611d93573d6000803e3d6000fd5b505050506040513d601f19601f82011682018060405250810190611db791906143bf565b62ffffff1642611dc791906143ec565b90508373ffffffffffffffffffffffffffffffffffffffff1663d43e263a87836040518363ffffffff1660e01b8152600401611e04929190614451565b600060405180830381600087803b158015611e1e57600080fd5b505af1158015611e32573d6000803e3d6000fd5b505050508568ffffffffffffffffff167ffc2293a9074376130c117d7ce1e9947192566520023e6721a8b4e2042b8cdd2f8573ffffffffffffffffffffffffffffffffffffffff166341c10b9a896040518263ffffffff1660e01b8152600401611e9c9190613de8565b600060405180830381865afa158015611eb9573d6000803e3d6000fd5b505050506040513d6000823e3d601f19601f82011682018060405250810190611ee291906140ea565b8584604051611ef393929190614648565b60405180910390a2505050505050565b8160008054906101000a900473ffffffffffffffffffffffffffffffffffffffff1673ffffffffffffffffffffffffffffffffffffffff166304433bbc6040518163ffffffff1660e01b8152600401611f5b90613b1c565b602060405180830381865afa158015611f78573d6000803e3d6000fd5b505050506040513d601f19601f82011682018060405250810190611f9c9190613b51565b73ffffffffffffffffffffffffffffffffffffffff166335e4fb7a8233604051602001611fc99190613bc6565b6040516020818303038152906040528051906020012060016040518463ffffffff1660e01b8152600401611fff93929190613c4e565b602060405180830381865afa15801561201c573d6000803e3d6000fd5b505050506040513d601f19601f820116820180604052508101906120409190613cbd565b61207f576040517f08c379a000000000000000000000000000000000000000000000000000000000815260040161207690613d5c565b60405180910390fd5b60008060009054906101000a900473ffffffffffffffffffffffffffffffffffffffff1673ffffffffffffffffffffffffffffffffffffffff166304433bbc6040518163ffffffff1660e01b81526004016120d9906146d2565b602060405180830381865afa1580156120f6573d6000803e3d6000fd5b505050506040513d601f19601f8201168201806040525081019061211a9190613b51565b905060008060009054906101000a900473ffffffffffffffffffffffffffffffffffffffff1673ffffffffffffffffffffffffffffffffffffffff166304433bbc6040518163ffffffff1660e01b815260040161217690613dc8565b602060405180830381865afa158015612193573d6000803e3d6000fd5b505050506040513d601f19601f820116820180604052508101906121b79190613b51565b9050836bffffffffffffffffffffffff168273ffffffffffffffffffffffffffffffffffffffff1663dd62ed3e33306040518363ffffffff1660e01b81526004016122039291906146f2565b602060405180830381865afa158015612220573d6000803e3d6000fd5b505050506040513d601f19601f820116820180604052508101906122449190613edd565b1015612285576040517f08c379a000000000000000000000000000000000000000000000000000000000815260040161227c9061478d565b60405180910390fd5b836bffffffffffffffffffffffff168273ffffffffffffffffffffffffffffffffffffffff166370a08231336040518263ffffffff1660e01b81526004016122cd91906147ad565b602060405180830381865afa1580156122ea573d6000803e3d6000fd5b505050506040513d601f19601f8201168201806040525081019061230e9190613edd565b101561234f576040517f08c379a000000000000000000000000000000000000000000000000000000000815260040161234690614814565b60405180910390fd5b600081905060008173ffffffffffffffffffffffffffffffffffffffff1663edf530c0886040518263ffffffff1660e01b815260040161238f9190613de8565b602060405180830381865afa1580156123ac573d6000803e3d6000fd5b505050506040513d601f19601f820116820180604052508101906123d09190613e18565b9050600086826123e091906142ad565b90508273ffffffffffffffffffffffffffffffffffffffff1663f2a9415889836040518363ffffffff1660e01b815260040161241d92919061435b565b600060405180830381600087803b15801561243757600080fd5b505af115801561244b573d6000803e3d6000fd5b505050508473ffffffffffffffffffffffffffffffffffffffff166323b872dd33868a6040518463ffffffff1660e01b815260040161248c93929190614865565b6020604051808303816000875af11580156124ab573d6000803e3d6000fd5b505050506040513d601f19601f820116820180604052508101906124cf9190613cbd565b5060008060009054906101000a900473ffffffffffffffffffffffffffffffffffffffff1673ffffffffffffffffffffffffffffffffffffffff166304433bbc6040518163ffffffff1660e01b815260040161252a9061433b565b602060405180830381865afa158015612547573d6000803e3d6000fd5b505050506040513d601f19601f8201168201806040525081019061256b9190613b51565b90508073ffffffffffffffffffffffffffffffffffffffff1663ec5ffac26040518163ffffffff1660e01b8152600401602060405180830381865afa1580156125b8573d6000803e3d6000fd5b505050506040513d601f19601f820116820180604052508101906125dc9190613e18565b6bffffffffffffffffffffffff16836bffffffffffffffffffffffff1610801561269057508073ffffffffffffffffffffffffffffffffffffffff1663ec5ffac26040518163ffffffff1660e01b8152600401602060405180830381865afa15801561264c573d6000803e3d6000fd5b505050506040513d601f19601f820116820180604052508101906126709190613e18565b6bffffffffffffffffffffffff16826bffffffffffffffffffffffff1610155b1561279f5760008060009054906101000a900473ffffffffffffffffffffffffffffffffffffffff1673ffffffffffffffffffffffffffffffffffffffff166304433bbc6040518163ffffffff1660e01b81526004016126ef906144c6565b602060405180830381865afa15801561270c573d6000803e3d6000fd5b505050506040513d601f19601f820116820180604052508101906127309190613b51565b90508073ffffffffffffffffffffffffffffffffffffffff1663415942b18b6040518263ffffffff1660e01b815260040161276b9190613de8565b600060405180830381600087803b15801561278557600080fd5b505af1158015612799573d6000803e3d6000fd5b50505050505b8868ffffffffffffffffff167f227b727366beb042d7f05f01d6c8a4533f74b59e90d3da6be9017560896534d88573ffffffffffffffffffffffffffffffffffffffff166341c10b9a8c6040518263ffffffff1660e01b81526004016128059190613de8565b600060405180830381865afa158015612822573d6000803e3d6000fd5b505050506040513d6000823e3d601f19601f8201168201806040525081019061284b91906140ea565b8a8560405161285c9392919061459e565b60405180910390a2505050505050505050565b8060008054906101000a900473ffffffffffffffffffffffffffffffffffffffff1673ffffffffffffffffffffffffffffffffffffffff166304433bbc6040518163ffffffff1660e01b81526004016128c790613b1c565b602060405180830381865afa1580156128e4573d6000803e3d6000fd5b505050506040513d601f19601f820116820180604052508101906129089190613b51565b73ffffffffffffffffffffffffffffffffffffffff166335e4fb7a82336040516020016129359190613bc6565b6040516020818303038152906040528051906020012060016040518463ffffffff1660e01b815260040161296b93929190613c4e565b602060405180830381865afa158015612988573d6000803e3d6000fd5b505050506040513d601f19601f820116820180604052508101906129ac9190613cbd565b6129eb576040517f08c379a00000000000000000000000000000000000000000000000000000000081526004016129e290613d5c565b60405180910390fd5b60008060009054906101000a900473ffffffffffffffffffffffffffffffffffffffff1673ffffffffffffffffffffffffffffffffffffffff166304433bbc6040518163ffffffff1660e01b8152600401612a4590613dc8565b602060405180830381865afa158015612a62573d6000803e3d6000fd5b505050506040513d601f19601f82011682018060405250810190612a869190613b51565b905060008173ffffffffffffffffffffffffffffffffffffffff1663f0114111856040518263ffffffff1660e01b8152600401612ac39190613de8565b602060405180830381865afa158015612ae0573d6000803e3d6000fd5b505050506040513d601f19601f82011682018060405250810190612b049190613e18565b90506000816bffffffffffffffffffffffff1611612b57576040517f08c379a0000000000000000000000000000000000000000000000000000000008152600401612b4e90613e91565b60405180910390fd5b428273ffffffffffffffffffffffffffffffffffffffff1663b310c9a5866040518263ffffffff1660e01b8152600401612b919190613de8565b602060405180830381865afa158015612bae573d6000803e3d6000fd5b505050506040513d601f19601f82011682018060405250810190612bd29190613edd565b10612c12576040517f08c379a0000000000000000000000000000000000000000000000000000000008152600401612c0990613f7c565b60405180910390fd5b8173ffffffffffffffffffffffffffffffffffffffff1663abe979e133836040518363ffffffff1660e01b8152600401612c4d92919061401e565b600060405180830381600087803b158015612c6757600080fd5b505af1158015612c7b573d6000803e3d6000fd5b505050508173ffffffffffffffffffffffffffffffffffffffff166352772b468560006040518363ffffffff1660e01b8152600401612cbb929190613fd7565b600060405180830381600087803b158015612cd557600080fd5b505af1158015612ce9573d6000803e3d6000fd5b505050508368ffffffffffffffffff167fe01d793935660fa72f3c5069e0b513d0c182451b1ca6e98884a1c983aaf409228373ffffffffffffffffffffffffffffffffffffffff166341c10b9a876040518263ffffffff1660e01b8152600401612d539190613de8565b600060405180830381865afa158015612d70573d6000803e3d6000fd5b505050506040513d6000823e3d601f19601f82011682018060405250810190612d9991906140ea565b83604051612da8929190614188565b60405180910390a250505050565b8160008054906101000a900473ffffffffffffffffffffffffffffffffffffffff1673ffffffffffffffffffffffffffffffffffffffff166304433bbc6040518163ffffffff1660e01b8152600401612e0e90613b1c565b602060405180830381865afa158015612e2b573d6000803e3d6000fd5b505050506040513d601f19601f82011682018060405250810190612e4f9190613b51565b73ffffffffffffffffffffffffffffffffffffffff166335e4fb7a8233604051602001612e7c9190613bc6565b6040516020818303038152906040528051906020012060026040518463ffffffff1660e01b8152600401612eb2939291906148d7565b602060405180830381865afa158015612ecf573d6000803e3d6000fd5b505050506040513d601f19601f82011682018060405250810190612ef39190613cbd565b612f32576040517f08c379a0000000000000000000000000000000000000000000000000000000008152600401612f29906149a6565b60405180910390fd5b60008054906101000a900473ffffffffffffffffffffffffffffffffffffffff1673ffffffffffffffffffffffffffffffffffffffff166304433bbc6040518163ffffffff1660e01b8152600401612f8990613dc8565b602060405180830381865afa158015612fa6573d6000803e3d6000fd5b505050506040513d601f19601f82011682018060405250810190612fca9190613b51565b73ffffffffffffffffffffffffffffffffffffffff166368dae4fd84846040518363ffffffff1660e01b81526004016130049291906149d5565b600060405180830381600087803b15801561301e57600080fd5b505af1158015613032573d6000803e3d6000fd5b50505050505050565b60008060009054906101000a900473ffffffffffffffffffffffffffffffffffffffff1673ffffffffffffffffffffffffffffffffffffffff166304433bbc6040518163ffffffff1660e01b8152600401613095906146d2565b602060405180830381865afa1580156130b2573d6000803e3d6000fd5b505050506040513d601f19601f820116820180604052508101906130d69190613b51565b905060008060009054906101000a900473ffffffffffffffffffffffffffffffffffffffff1673ffffffffffffffffffffffffffffffffffffffff166304433bbc6040518163ffffffff1660e01b815260040161313290613dc8565b602060405180830381865afa15801561314f573d6000803e3d6000fd5b505050506040513d601f19601f820116820180604052508101906131739190613b51565b9050826bffffffffffffffffffffffff168273ffffffffffffffffffffffffffffffffffffffff1663dd62ed3e33306040518363ffffffff1660e01b81526004016131bf9291906146f2565b602060405180830381865afa1580156131dc573d6000803e3d6000fd5b505050506040513d601f19601f820116820180604052508101906132009190613edd565b1015613241576040517f08c379a000000000000000000000000000000000000000000000000000000000815260040161323890614a70565b60405180910390fd5b826bffffffffffffffffffffffff168273ffffffffffffffffffffffffffffffffffffffff166370a08231336040518263ffffffff1660e01b815260040161328991906147ad565b602060405180830381865afa1580156132a6573d6000803e3d6000fd5b505050506040513d601f19601f820116820180604052508101906132ca9190613edd565b101561330b576040517f08c379a000000000000000000000000000000000000000000000000000000000815260040161330290614adc565b60405180910390fd5b8173ffffffffffffffffffffffffffffffffffffffff166323b872dd3383866040518463ffffffff1660e01b815260040161334893929190614865565b6020604051808303816000875af1158015613367573d6000803e3d6000fd5b505050506040513d601f19601f8201168201806040525081019061338b9190613cbd565b50600081905060008173ffffffffffffffffffffffffffffffffffffffff1663d9e2bcbc338a8a8a8a6040518663ffffffff1660e01b81526004016133d4959493929190614afc565b6020604051808303816000875af11580156133f3573d6000803e3d6000fd5b505050506040513d601f19601f820116820180604052508101906134179190614b6b565b905060008060009054906101000a900473ffffffffffffffffffffffffffffffffffffffff1673ffffffffffffffffffffffffffffffffffffffff166304433bbc6040518163ffffffff1660e01b81526004016134739061433b565b602060405180830381865afa158015613490573d6000803e3d6000fd5b505050506040513d601f19601f820116820180604052508101906134b49190613b51565b90508073ffffffffffffffffffffffffffffffffffffffff1663ec5ffac26040518163ffffffff1660e01b8152600401602060405180830381865afa158015613501573d6000803e3d6000fd5b505050506040513d601f19601f820116820180604052508101906135259190613e18565b6bffffffffffffffffffffffff16866bffffffffffffffffffffffff16106136515760008060009054906101000a900473ffffffffffffffffffffffffffffffffffffffff1673ffffffffffffffffffffffffffffffffffffffff166304433bbc6040518163ffffffff1660e01b81526004016135a1906144c6565b602060405180830381865afa1580156135be573d6000803e3d6000fd5b505050506040513d601f19601f820116820180604052508101906135e29190613b51565b90508073ffffffffffffffffffffffffffffffffffffffff1663415942b1846040518263ffffffff1660e01b815260040161361d9190613de8565b600060405180830381600087803b15801561363757600080fd5b505af115801561364b573d6000803e3d6000fd5b50505050505b8168ffffffffffffffffff167f1e1141aabf8a6876b928816de88db5e6ba4ba57cdb2f84229da1cc8e020d3e1c8960405161368c9190614b98565b60405180910390a2505050505050505050565b6000604051905090565b600080fd5b600080fd5b600068ffffffffffffffffff82169050919050565b6136d1816136b3565b81146136dc57600080fd5b50565b6000813590506136ee816136c8565b92915050565b60006020828403121561370a576137096136a9565b5b6000613718848285016136df565b91505092915050565b60006bffffffffffffffffffffffff82169050919050565b61374281613721565b811461374d57600080fd5b50565b60008135905061375f81613739565b92915050565b6000806040838503121561377c5761377b6136a9565b5b600061378a858286016136df565b925050602061379b85828601613750565b9150509250929050565b600073ffffffffffffffffffffffffffffffffffffffff82169050919050565b6000819050919050565b60006137ea6137e56137e0846137a5565b6137c5565b6137a5565b9050919050565b60006137fc826137cf565b9050919050565b600061380e826137f1565b9050919050565b61381e81613803565b82525050565b60006020820190506138396000830184613815565b92915050565b600060ff82169050919050565b6138558161383f565b811461386057600080fd5b50565b6000813590506138728161384c565b92915050565b6000806040838503121561388f5761388e6136a9565b5b600061389d858286016136df565b92505060206138ae85828601613863565b9150509250929050565b60006138c3826137a5565b9050919050565b6138d3816138b8565b81146138de57600080fd5b50565b6000813590506138f0816138ca565b92915050565b600080fd5b600080fd5b6000601f19601f8301169050919050565b7f4e487b7100000000000000000000000000000000000000000000000000000000600052604160045260246000fd5b61394982613900565b810181811067ffffffffffffffff8211171561396857613967613911565b5b80604052505050565b600061397b61369f565b90506139878282613940565b919050565b600067ffffffffffffffff8211156139a7576139a6613911565b5b6139b082613900565b9050602081019050919050565b82818337600083830152505050565b60006139df6139da8461398c565b613971565b9050828152602081018484840111156139fb576139fa6138fb565b5b613a068482856139bd565b509392505050565b600082601f830112613a2357613a226138f6565b5b8135613a338482602086016139cc565b91505092915050565b60008060008060808587031215613a5657613a556136a9565b5b6000613a64878288016138e1565b945050602085013567ffffffffffffffff811115613a8557613a846136ae565b5b613a9187828801613a0e565b9350506040613aa287828801613750565b9250506060613ab387828801613750565b91505092959194509250565b600082825260208201905092915050565b7f4964656e7469747953746f726167650000000000000000000000000000000000600082015250565b6000613b06600f83613abf565b9150613b1182613ad0565b602082019050919050565b60006020820190508181036000830152613b3581613af9565b9050919050565b600081519050613b4b816138ca565b92915050565b600060208284031215613b6757613b666136a9565b5b6000613b7584828501613b3c565b91505092915050565b60008160601b9050919050565b6000613b9682613b7e565b9050919050565b6000613ba882613b8b565b9050919050565b613bc0613bbb826138b8565b613b9d565b82525050565b6000613bd28284613baf565b60148201915081905092915050565b613bea816136b3565b82525050565b6000819050919050565b613c0381613bf0565b82525050565b6000819050919050565b6000819050919050565b6000613c38613c33613c2e84613c09565b6137c5565b613c13565b9050919050565b613c4881613c1d565b82525050565b6000606082019050613c636000830186613be1565b613c706020830185613bfa565b613c7d6040830184613c3f565b949350505050565b60008115159050919050565b613c9a81613c85565b8114613ca557600080fd5b50565b600081519050613cb781613c91565b92915050565b600060208284031215613cd357613cd26136a9565b5b6000613ce184828501613ca8565b91505092915050565b7f46756e6374696f6e2063616e2062652063616c6c6564206f6e6c79206279206960008201527f64656e746974792061646d696e00000000000000000000000000000000000000602082015250565b6000613d46602d83613abf565b9150613d5182613cea565b604082019050919050565b60006020820190508181036000830152613d7581613d39565b9050919050565b7f50726f66696c6553746f72616765000000000000000000000000000000000000600082015250565b6000613db2600e83613abf565b9150613dbd82613d7c565b602082019050919050565b60006020820190508181036000830152613de181613da5565b9050919050565b6000602082019050613dfd6000830184613be1565b92915050565b600081519050613e1281613739565b92915050565b600060208284031215613e2e57613e2d6136a9565b5b6000613e3c84828501613e03565b91505092915050565b7f5769746864726177616c206861736e2774206265656e20696e69746961746564600082015250565b6000613e7b602083613abf565b9150613e8682613e45565b602082019050919050565b60006020820190508181036000830152613eaa81613e6e565b9050919050565b613eba81613c13565b8114613ec557600080fd5b50565b600081519050613ed781613eb1565b92915050565b600060208284031215613ef357613ef26136a9565b5b6000613f0184828501613ec8565b91505092915050565b7f5769746864726177616c20706572696f64206861736e277420656e646564207960008201527f6574000000000000000000000000000000000000000000000000000000000000602082015250565b6000613f66602283613abf565b9150613f7182613f0a565b604082019050919050565b60006020820190508181036000830152613f9581613f59565b9050919050565b6000819050919050565b6000613fc1613fbc613fb784613f9c565b6137c5565b613721565b9050919050565b613fd181613fa6565b82525050565b6000604082019050613fec6000830185613be1565b613ff96020830184613fc8565b9392505050565b614009816138b8565b82525050565b61401881613721565b82525050565b60006040820190506140336000830185614000565b614040602083018461400f565b9392505050565b60005b8381101561406557808201518184015260208101905061404a565b83811115614074576000848401525b50505050565b600061408d6140888461398c565b613971565b9050828152602081018484840111156140a9576140a86138fb565b5b6140b4848285614047565b509392505050565b600082601f8301126140d1576140d06138f6565b5b81516140e184826020860161407a565b91505092915050565b600060208284031215614100576140ff6136a9565b5b600082015167ffffffffffffffff81111561411e5761411d6136ae565b5b61412a848285016140bc565b91505092915050565b600081519050919050565b600082825260208201905092915050565b600061415a82614133565b614164818561413e565b9350614174818560208601614047565b61417d81613900565b840191505092915050565b600060408201905081810360008301526141a2818561414f565b90506141b1602083018461400f565b9392505050565b7f416d6f756e742063616e277420626520626967676572207468616e206176616960008201527f6c61626c65207374616b65000000000000000000000000000000000000000000602082015250565b6000614214602b83613abf565b915061421f826141b8565b604082019050919050565b6000602082019050818103600083015261424381614207565b9050919050565b7f4e487b7100000000000000000000000000000000000000000000000000000000600052601160045260246000fd5b600061428482613721565b915061428f83613721565b9250828210156142a2576142a161424a565b5b828203905092915050565b60006142b882613721565b91506142c383613721565b9250826bffffffffffffffffffffffff038211156142e4576142e361424a565b5b828201905092915050565b7f506172616d657465727353746f72616765000000000000000000000000000000600082015250565b6000614325601183613abf565b9150614330826142ef565b602082019050919050565b6000602082019050818103600083015261435481614318565b9050919050565b60006040820190506143706000830185613be1565b61437d602083018461400f565b9392505050565b600062ffffff82169050919050565b61439c81614384565b81146143a757600080fd5b50565b6000815190506143b981614393565b92915050565b6000602082840312156143d5576143d46136a9565b5b60006143e3848285016143aa565b91505092915050565b60006143f782613c13565b915061440283613c13565b9250827fffffffffffffffffffffffffffffffffffffffffffffffffffffffffffffffff038211156144375761443661424a565b5b828201905092915050565b61444b81613c13565b82525050565b60006040820190506144666000830185613be1565b6144736020830184614442565b9392505050565b7f5368617264696e675461626c6500000000000000000000000000000000000000600082015250565b60006144b0600d83613abf565b91506144bb8261447a565b602082019050919050565b600060208201905081810360008301526144df816144a3565b9050919050565b60006080820190508181036000830152614500818761414f565b905061450f602083018661400f565b61451c6040830185614442565b614529606083018461400f565b95945050505050565b7f596f752068617665206e6f207265776172640000000000000000000000000000600082015250565b6000614568601283613abf565b915061457382614532565b602082019050919050565b600060208201905081810360008301526145978161455b565b9050919050565b600060608201905081810360008301526145b8818661414f565b90506145c7602083018561400f565b6145d4604083018461400f565b949350505050565b7f4e6f2072657761726420746f2077697468647261770000000000000000000000600082015250565b6000614612601583613abf565b915061461d826145dc565b602082019050919050565b6000602082019050818103600083015261464181614605565b9050919050565b60006060820190508181036000830152614662818661414f565b9050614671602083018561400f565b61467e6040830184614442565b949350505050565b7f546f6b656e000000000000000000000000000000000000000000000000000000600082015250565b60006146bc600583613abf565b91506146c782614686565b602082019050919050565b600060208201905081810360008301526146eb816146af565b9050919050565b60006040820190506147076000830185614000565b6147146020830184614000565b9392505050565b7f416c6c6f77616e6365206d757374206265203e3d2063686f73656e20616d6f7560008201527f6e74000000000000000000000000000000000000000000000000000000000000602082015250565b6000614777602283613abf565b91506147828261471b565b604082019050919050565b600060208201905081810360008301526147a68161476a565b9050919050565b60006020820190506147c26000830184614000565b92915050565b7f42616c616e6365206d757374206265203e3d2063686f73656e20616d6f756e74600082015250565b60006147fe602083613abf565b9150614809826147c8565b602082019050919050565b6000602082019050818103600083015261482d816147f1565b9050919050565b600061484f61484a61484584613721565b6137c5565b613c13565b9050919050565b61485f81614834565b82525050565b600060608201905061487a6000830186614000565b6148876020830185614000565b6148946040830184614856565b949350505050565b6000819050919050565b60006148c16148bc6148b78461489c565b6137c5565b613c13565b9050919050565b6148d1816148a6565b82525050565b60006060820190506148ec6000830186613be1565b6148f96020830185613bfa565b61490660408301846148c8565b949350505050565b7f46756e6374696f6e2063616e2062652063616c6c6564206f6e6c79207573696e60008201527f67206f7065726174696f6e616c206b6579206f6620746865206964656e74697460208201527f7900000000000000000000000000000000000000000000000000000000000000604082015250565b6000614990604183613abf565b915061499b8261490e565b606082019050919050565b600060208201905081810360008301526149bf81614983565b9050919050565b6149cf8161383f565b82525050565b60006040820190506149ea6000830185613be1565b6149f760208301846149c6565b9392505050565b7f416c6c6f77616e6365206d757374206265203e3d20696e697469616c2073746160008201527f6b65000000000000000000000000000000000000000000000000000000000000602082015250565b6000614a5a602283613abf565b9150614a65826149fe565b604082019050919050565b60006020820190508181036000830152614a8981614a4d565b9050919050565b7f42616c616e6365206d757374206265203e3d20696e697469616c207374616b65600082015250565b6000614ac6602083613abf565b9150614ad182614a90565b602082019050919050565b60006020820190508181036000830152614af581614ab9565b9050919050565b600060a082019050614b116000830188614000565b614b1e6020830187614000565b8181036040830152614b30818661414f565b9050614b3f606083018561400f565b614b4c608083018461400f565b9695505050505050565b600081519050614b65816136c8565b92915050565b600060208284031215614b8157614b806136a9565b5b6000614b8f84828501614b56565b91505092915050565b60006020820190508181036000830152614bb2818461414f565b90509291505056fea2646970667358221220c7e68e603b0aa4e5682fce72b8c571b077f1e6a7fbe1724b9221695335242f5564736f6c634300080e0033",
  "immutableReferences": {},
  "source": "// SPDX-License-Identifier: MIT\n\npragma solidity ^0.8.0;\n\nimport { Hub } from \"./Hub.sol\";\nimport { IdentityStorage } from \"./storage/IdentityStorage.sol\";\nimport { IERC20 } from \"@openzeppelin/contracts/token/ERC20/IERC20.sol\";\nimport { ParametersStorage } from \"./storage/ParametersStorage.sol\";\nimport { ProfileStorage } from \"./storage/ProfileStorage.sol\";\nimport { ShardingTable } from \"./ShardingTable.sol\";\n\ncontract Profile {\n    event ProfileCreated(\n        uint72 indexed identityId,\n        bytes nodeId\n    );\n    event StakeIncreased(\n        uint72 indexed identityId,\n        bytes nodeId,\n        uint96 stakedAmount,\n        uint96 newStake\n    );\n    event StakeWithdrawalInitiated(\n        uint72 indexed identityId,\n        bytes nodeId,\n        uint96 stakeWithdrawalAmount,\n        uint256 stakeWithdrawalTimestamp,\n        uint96 newStake\n    );\n    event StakeWithdrawn(\n        uint72 indexed identityId,\n        bytes nodeId,\n        uint96 withdrawnStakeAmount\n    );\n    event RewardWithdrawalInitiated(\n        uint72 indexed identityId,\n        bytes nodeId,\n        uint96 rewardWithdrawalAmount,\n        uint256 rewardWithdrawalTimestamp\n    );\n    event RewardWithdrawn(\n        uint72 indexed identityId,\n        bytes nodeId,\n        uint96 withdrawnRewardAmount\n    );\n    event StakeFrozen(\n        uint72 indexed identityId,\n        bytes indexed nodeId,\n        uint96 frozenStakeAmount\n    );\n    event StakeUnfrozen(\n        uint72 indexed identityId,\n        bytes nodeId,\n        uint96 unfrozenStakeAmount\n    );\n\n    Hub public hub;\n\n    constructor(address hubAddress) {\n        require(hubAddress != address(0));\n        hub = Hub(hubAddress);\n    }\n\n    modifier onlyWithAdminKey(uint72 identityId) {\n        require(\n            IdentityStorage(hub.getContractAddress(\"IdentityStorage\")).keyHasPurpose(\n                identityId,\n                keccak256(abi.encodePacked(msg.sender)),\n                1\n            ),\n            \"Function can be called only by identity admin\"\n        );\n        _;\n\t}\n\n    modifier onlyWithPublicKey(uint72 identityId) {\n        require(\n            IdentityStorage(hub.getContractAddress(\"IdentityStorage\")).keyHasPurpose(\n                identityId,\n                keccak256(abi.encodePacked(msg.sender)),\n                2\n            ),\n            \"Function can be called only using operational key of the identity\"\n        );\n        _;\n    }\n\n    function createProfile(address adminWallet, bytes memory nodeId, uint96 initialAsk, uint96 initialStake)\n        public\n    {\n        IERC20 tokenContract = IERC20(hub.getContractAddress(\"Token\"));\n        address profileStorageAddress = hub.getContractAddress(\"ProfileStorage\");\n\n        require(\n            tokenContract.allowance(msg.sender, address(this)) >= initialStake,\n            \"Allowance must be >= initial stake\"\n        );\n        require(tokenContract.balanceOf(msg.sender) >= initialStake, \"Balance must be >= initial stake\");\n\n        tokenContract.transferFrom(msg.sender, profileStorageAddress, initialStake);\n\n        ProfileStorage profileStorage = ProfileStorage(profileStorageAddress);\n\n        uint72 identityId = profileStorage.createProfile(\n            msg.sender,\n            adminWallet,\n            nodeId,\n            initialAsk,\n            initialStake\n        );\n       \n        ParametersStorage parametersStorage = ParametersStorage(hub.getContractAddress(\"ParametersStorage\"));\n        if (initialStake >= parametersStorage.minimumStake()) {\n            ShardingTable shardingTable = ShardingTable(hub.getContractAddress(\"ShardingTable\"));\n            shardingTable.pushBack(identityId);\n        }\n\n        emit ProfileCreated(identityId, nodeId);\n    }\n\n    function addNewNodeIdHash(uint72 identityId, uint8 hashFunctionId) public onlyWithPublicKey(identityId) {\n        ProfileStorage(hub.getContractAddress(\"ProfileStorage\")).setNodeAddress(identityId, hashFunctionId);\n    }\n\n    function increaseStake(uint72 identityId, uint96 amount)\n        public\n        onlyWithAdminKey(identityId)\n    {\n        IERC20 tokenContract = IERC20(hub.getContractAddress(\"Token\"));\n        address profileStorageAddress = hub.getContractAddress(\"ProfileStorage\");\n\n        require(tokenContract.allowance(msg.sender, address(this)) >= amount, \"Allowance must be >= chosen amount\");\n        require(tokenContract.balanceOf(msg.sender) >= amount, \"Balance must be >= chosen amount\");\n\n        ProfileStorage profileStorage = ProfileStorage(profileStorageAddress);\n\n        uint96 oldStake = profileStorage.getStake(identityId);\n        uint96 newStake = oldStake + amount;\n        profileStorage.setStake(identityId, newStake);\n\n        tokenContract.transferFrom(msg.sender, profileStorageAddress, amount);\n\n        ParametersStorage parametersStorage = ParametersStorage(hub.getContractAddress(\"ParametersStorage\"));\n\n        if (oldStake < parametersStorage.minimumStake() && newStake >= parametersStorage.minimumStake()) {\n            ShardingTable shardingTable = ShardingTable(hub.getContractAddress(\"ShardingTable\"));\n            shardingTable.pushBack(identityId);\n        }\n\n        emit StakeIncreased(\n            identityId,\n            profileStorage.getNodeId(identityId),\n            amount,\n            newStake\n        );\n    }\n\n    function startStakeWithdrawal(uint72 identityId, uint96 amount)\n        public\n        onlyWithAdminKey(identityId)\n    {\n        ProfileStorage profileStorage = ProfileStorage(hub.getContractAddress(\"ProfileStorage\"));\n\n        require(amount <= profileStorage.getStake(identityId), \"Amount can't be bigger than available stake\");\n\n        uint96 oldStake = profileStorage.getStake(identityId);\n        uint96 newStake = oldStake - amount;\n        uint96 newStakeWithdrawalAmount = profileStorage.getStakeWithdrawalAmount(identityId) + amount;\n\n        ParametersStorage parametersStorage = ParametersStorage(hub.getContractAddress(\"ParametersStorage\"));\n\n        profileStorage.setStake(identityId, newStake);\n        profileStorage.setStakeWithdrawalAmount(identityId, newStakeWithdrawalAmount);\n        uint256 stakeWithdrawalTimestamp = block.timestamp + parametersStorage.stakeWithdrawalDelay();\n        profileStorage.setStakeWithdrawalTimestamp(identityId, stakeWithdrawalTimestamp);\n\n        if (oldStake >= parametersStorage.minimumStake() && newStake < parametersStorage.minimumStake()) {\n            ShardingTable shardingTable = ShardingTable(hub.getContractAddress(\"ShardingTable\"));\n            shardingTable.removeNode(identityId);\n        }\n\n        emit StakeWithdrawalInitiated(\n            identityId,\n            profileStorage.getNodeId(identityId),\n            newStakeWithdrawalAmount,\n            stakeWithdrawalTimestamp,\n            newStake\n        );\n    }\n\n    function withdrawFreeStake(uint72 identityId)\n        public\n        onlyWithAdminKey(identityId)\n    {\n        ProfileStorage profileStorage = ProfileStorage(hub.getContractAddress(\"ProfileStorage\"));\n\n        uint96 stakeWithdrawalAmount = profileStorage.getStakeWithdrawalAmount(identityId);\n\n        require(stakeWithdrawalAmount > 0, \"Withdrawal hasn't been initiated\");\n        require(\n            profileStorage.getStakeWithdrawalTimestamp(identityId) < block.timestamp,\n            \"Withdrawal period hasn't ended yet\"\n        );\n\n        profileStorage.transferTokens(msg.sender, stakeWithdrawalAmount);\n\n        profileStorage.setStakeWithdrawalAmount(identityId, 0);\n\n        emit StakeWithdrawn(\n            identityId,\n            profileStorage.getNodeId(identityId),\n            stakeWithdrawalAmount\n        );\n    }\n\n    function stakeReward(uint72 identityId)\n        public\n        onlyWithAdminKey(identityId)\n    {\n        ProfileStorage profileStorage = ProfileStorage(hub.getContractAddress(\"ProfileStorage\"));\n\n        uint96 rewardAmount = profileStorage.getReward(identityId);\n        require(rewardAmount > 0, \"You have no reward\");\n\n        uint96 oldStake = profileStorage.getStake(identityId);\n        uint96 newStake = oldStake + rewardAmount;\n\n        profileStorage.setReward(identityId, 0);\n        profileStorage.setStake(identityId, newStake);\n\n        ParametersStorage parametersStorage = ParametersStorage(hub.getContractAddress(\"ParametersStorage\"));\n\n        if (oldStake < parametersStorage.minimumStake() && newStake >= parametersStorage.minimumStake()) {\n            ShardingTable shardingTable = ShardingTable(hub.getContractAddress(\"ShardingTable\"));\n            shardingTable.pushBack(identityId);\n        }\n\n        emit StakeIncreased(\n            identityId,\n            profileStorage.getNodeId(identityId),\n            rewardAmount,\n            newStake\n        );\n    }\n\n    function startRewardWithdrawal(uint72 identityId)\n        public\n        onlyWithAdminKey(identityId)\n    {\n        ProfileStorage profileStorage = ProfileStorage(hub.getContractAddress(\"ProfileStorage\"));\n\n        uint96 reward = profileStorage.getReward(identityId);\n\n        require(reward > 0, \"No reward to withdraw\");\n\n        ParametersStorage parametersStorage = ParametersStorage(hub.getContractAddress(\"ParametersStorage\"));\n\n        profileStorage.setReward(identityId, 0);\n        profileStorage.setRewardWithdrawalAmount(\n            identityId,\n            profileStorage.getRewardWithdrawalAmount(identityId) + reward\n        );\n        uint256 rewardWithdrawalTimestamp = block.timestamp + parametersStorage.rewardWithdrawalDelay();\n        profileStorage.setRewardWithdrawalTimestamp(identityId, rewardWithdrawalTimestamp);\n\n        emit RewardWithdrawalInitiated(\n            identityId,\n            profileStorage.getNodeId(identityId),\n            reward,\n            rewardWithdrawalTimestamp\n        );\n    }\n\n    function withdrawFreeReward(uint72 identityId)\n        public\n        onlyWithAdminKey(identityId)\n    {\n        ProfileStorage profileStorage = ProfileStorage(hub.getContractAddress(\"ProfileStorage\"));\n\n        uint96 rewardWithdrawalAmount = profileStorage.getRewardWithdrawalAmount(identityId);\n\n        require(rewardWithdrawalAmount > 0, \"Withdrawal hasn't been initiated\");\n        require(\n            profileStorage.getRewardWithdrawalTimestamp(identityId) < block.timestamp,\n            \"Withdrawal period hasn't ended yet\"\n        );\n\n        profileStorage.setRewardWithdrawalAmount(identityId, 0);\n        profileStorage.transferTokens(msg.sender, rewardWithdrawalAmount);\n\n        emit RewardWithdrawn(\n            identityId,\n            profileStorage.getNodeId(identityId),\n            rewardWithdrawalAmount\n        );\n    }\n\n    // function freezeStake(uint8 percentage)\n    //     public\n    // {\n    //     emit StakeFrozen(identityId, frozenStakeAmount);\n    // }\n\n    // function unfreezeStake()\n    //     public\n    // {\n    //     emit StakeUnfrozen(identityId, unfrozenStakeAmount);\n    // }\n}\n",
  "sourcePath": "/Users/max/IdeaProjects/dkg-evm-module/contracts/Profile.sol",
  "compiler": {
    "name": "solc",
    "version": "0.8.14+commit.80d49f37.Emscripten.clang"
  },
  "schemaVersion": "3.4.10",
  "updatedAt": "2022-11-24T16:20:27.423Z",
  "devdoc": {
    "kind": "dev",
    "methods": {},
    "version": 1
  },
  "userdoc": {
    "kind": "user",
    "methods": {},
    "version": 1
  }
}