{
  "contractName": "ProfileStorage",
  "abi": [
    {
      "inputs": [
        {
          "internalType": "address",
          "name": "hubAddress",
          "type": "address"
        }
      ],
      "stateMutability": "nonpayable",
      "type": "constructor"
    },
    {
      "anonymous": false,
      "inputs": [
        {
          "indexed": false,
          "internalType": "bytes32",
          "name": "nodeId",
          "type": "bytes32"
        },
        {
          "indexed": false,
          "internalType": "uint256",
          "name": "stake",
          "type": "uint256"
        }
      ],
      "name": "StakeUpdated",
      "type": "event"
    },
    {
      "inputs": [],
      "name": "activeNodes",
      "outputs": [
        {
          "internalType": "uint256",
          "name": "",
          "type": "uint256"
        }
      ],
      "stateMutability": "view",
      "type": "function"
    },
    {
      "inputs": [],
      "name": "hub",
      "outputs": [
        {
          "internalType": "contract Hub",
          "name": "",
          "type": "address"
        }
      ],
      "stateMutability": "view",
      "type": "function"
    },
    {
      "inputs": [
        {
          "internalType": "address",
          "name": "",
          "type": "address"
        }
      ],
      "name": "profile",
      "outputs": [
        {
          "internalType": "uint256",
          "name": "stake",
          "type": "uint256"
        },
        {
          "internalType": "uint256",
          "name": "stakeReserved",
          "type": "uint256"
        },
        {
          "internalType": "uint256",
          "name": "reputation",
          "type": "uint256"
        },
        {
          "internalType": "bool",
          "name": "withdrawalPending",
          "type": "bool"
        },
        {
          "internalType": "uint256",
          "name": "withdrawalTimestamp",
          "type": "uint256"
        },
        {
          "internalType": "uint256",
          "name": "withdrawalAmount",
          "type": "uint256"
        },
        {
          "internalType": "bytes32",
          "name": "nodeId",
          "type": "bytes32"
        }
      ],
      "stateMutability": "view",
      "type": "function"
    },
    {
      "inputs": [
        {
          "internalType": "address",
          "name": "newHubAddress",
          "type": "address"
        }
      ],
      "name": "setHubAddress",
      "outputs": [],
      "stateMutability": "nonpayable",
      "type": "function"
    },
    {
      "inputs": [
        {
          "internalType": "uint256",
          "name": "newActiveNodes",
          "type": "uint256"
        }
      ],
      "name": "setActiveNodes",
      "outputs": [],
      "stateMutability": "nonpayable",
      "type": "function"
    },
    {
      "inputs": [
        {
          "internalType": "address",
          "name": "identity",
          "type": "address"
        }
      ],
      "name": "getStake",
      "outputs": [
        {
          "internalType": "uint256",
          "name": "",
          "type": "uint256"
        }
      ],
      "stateMutability": "view",
      "type": "function"
    },
    {
      "inputs": [
        {
          "internalType": "address",
          "name": "identity",
          "type": "address"
        }
      ],
      "name": "getStakeReserved",
      "outputs": [
        {
          "internalType": "uint256",
          "name": "",
          "type": "uint256"
        }
      ],
      "stateMutability": "view",
      "type": "function"
    },
    {
      "inputs": [
        {
          "internalType": "address",
          "name": "identity",
          "type": "address"
        }
      ],
      "name": "getReputation",
      "outputs": [
        {
          "internalType": "uint256",
          "name": "",
          "type": "uint256"
        }
      ],
      "stateMutability": "view",
      "type": "function"
    },
    {
      "inputs": [
        {
          "internalType": "address",
          "name": "identity",
          "type": "address"
        }
      ],
      "name": "getWithdrawalPending",
      "outputs": [
        {
          "internalType": "bool",
          "name": "",
          "type": "bool"
        }
      ],
      "stateMutability": "view",
      "type": "function"
    },
    {
      "inputs": [
        {
          "internalType": "address",
          "name": "identity",
          "type": "address"
        }
      ],
      "name": "getWithdrawalTimestamp",
      "outputs": [
        {
          "internalType": "uint256",
          "name": "",
          "type": "uint256"
        }
      ],
      "stateMutability": "view",
      "type": "function"
    },
    {
      "inputs": [
        {
          "internalType": "address",
          "name": "identity",
          "type": "address"
        }
      ],
      "name": "getWithdrawalAmount",
      "outputs": [
        {
          "internalType": "uint256",
          "name": "",
          "type": "uint256"
        }
      ],
      "stateMutability": "view",
      "type": "function"
    },
    {
      "inputs": [
        {
          "internalType": "address",
          "name": "identity",
          "type": "address"
        }
      ],
      "name": "getNodeId",
      "outputs": [
        {
          "internalType": "bytes32",
          "name": "",
          "type": "bytes32"
        }
      ],
      "stateMutability": "view",
      "type": "function"
    },
    {
      "inputs": [
        {
          "internalType": "address",
          "name": "identity",
          "type": "address"
        },
        {
          "internalType": "uint256",
          "name": "stake",
          "type": "uint256"
        }
      ],
      "name": "setStake",
      "outputs": [],
      "stateMutability": "nonpayable",
      "type": "function"
    },
    {
      "inputs": [
        {
          "internalType": "address",
          "name": "identity",
          "type": "address"
        },
        {
          "internalType": "uint256",
          "name": "stakeReserved",
          "type": "uint256"
        }
      ],
      "name": "setStakeReserved",
      "outputs": [],
      "stateMutability": "nonpayable",
      "type": "function"
    },
    {
      "inputs": [
        {
          "internalType": "address",
          "name": "identity",
          "type": "address"
        },
        {
          "internalType": "uint256",
          "name": "reputation",
          "type": "uint256"
        }
      ],
      "name": "setReputation",
      "outputs": [],
      "stateMutability": "nonpayable",
      "type": "function"
    },
    {
      "inputs": [
        {
          "internalType": "address",
          "name": "identity",
          "type": "address"
        },
        {
          "internalType": "bool",
          "name": "withdrawalPending",
          "type": "bool"
        }
      ],
      "name": "setWithdrawalPending",
      "outputs": [],
      "stateMutability": "nonpayable",
      "type": "function"
    },
    {
      "inputs": [
        {
          "internalType": "address",
          "name": "identity",
          "type": "address"
        },
        {
          "internalType": "uint256",
          "name": "withdrawalTimestamp",
          "type": "uint256"
        }
      ],
      "name": "setWithdrawalTimestamp",
      "outputs": [],
      "stateMutability": "nonpayable",
      "type": "function"
    },
    {
      "inputs": [
        {
          "internalType": "address",
          "name": "identity",
          "type": "address"
        },
        {
          "internalType": "uint256",
          "name": "withdrawalAmount",
          "type": "uint256"
        }
      ],
      "name": "setWithdrawalAmount",
      "outputs": [],
      "stateMutability": "nonpayable",
      "type": "function"
    },
    {
      "inputs": [
        {
          "internalType": "address",
          "name": "identity",
          "type": "address"
        },
        {
          "internalType": "bytes32",
          "name": "nodeId",
          "type": "bytes32"
        }
      ],
      "name": "setNodeId",
      "outputs": [],
      "stateMutability": "nonpayable",
      "type": "function"
    },
    {
      "inputs": [
        {
          "internalType": "address",
          "name": "payer",
          "type": "address"
        },
        {
          "internalType": "address",
          "name": "identity1",
          "type": "address"
        },
        {
          "internalType": "address",
          "name": "identity2",
          "type": "address"
        },
        {
          "internalType": "address",
          "name": "identity3",
          "type": "address"
        },
        {
          "internalType": "uint256",
          "name": "amount",
          "type": "uint256"
        }
      ],
      "name": "increaseStakesReserved",
      "outputs": [],
      "stateMutability": "nonpayable",
      "type": "function"
    },
    {
      "inputs": [
        {
          "internalType": "address",
          "name": "wallet",
          "type": "address"
        },
        {
          "internalType": "uint256",
          "name": "amount",
          "type": "uint256"
        }
      ],
      "name": "transferTokens",
      "outputs": [],
      "stateMutability": "nonpayable",
      "type": "function"
    }
  ],
  "bytecode": "0x60806040523480156200001157600080fd5b5060405162001f5538038062001f558339818101604052810190620000379190620000ef565b806000806101000a81548173ffffffffffffffffffffffffffffffffffffffff021916908373ffffffffffffffffffffffffffffffffffffffff160217905550600180819055505062000121565b600080fd5b600073ffffffffffffffffffffffffffffffffffffffff82169050919050565b6000620000b7826200008a565b9050919050565b620000c981620000aa565b8114620000d557600080fd5b50565b600081519050620000e981620000be565b92915050565b60006020828403121562000108576200010762000085565b5b60006200011884828501620000d8565b91505092915050565b611e2480620001316000396000f3fe608060405234801561001057600080fd5b50600436106101375760003560e01c806382aa2928116100b8578063a6748ef51161007c578063a6748ef514610376578063b120c16a14610392578063b56e4129146103ae578063bd3cd525146103de578063bec3fa17146103fa578063c7eb45221461041657610137565b806382aa2928146102a85780639344ea6e146102c45780639385067f146102f45780639c89a0e2146103105780639dd9d0fd1461034057610137565b806356582bf9116100ff57806356582bf9146101e05780635ffe02821461021057806367b6d271146102405780637a7664601461025c5780637fdc36761461028c57610137565b806307f196511461013c5780632ba975951461015a578063365a86fc1461018a57806348fd564b146101a857806350c3ff57146101c4575b600080fd5b610144610432565b60405161015191906116d4565b60405180910390f35b610174600480360381019061016f9190611752565b610438565b604051610181919061179a565b60405180910390f35b610192610491565b60405161019f9190611814565b60405180910390f35b6101c260048036038101906101bd919061185b565b6104b5565b005b6101de60048036038101906101d99190611888565b610598565b005b6101fa60048036038101906101f59190611752565b6106bc565b60405161020791906116d4565b60405180910390f35b61022a60048036038101906102259190611752565b610708565b60405161023791906116d4565b60405180910390f35b61025a60048036038101906102559190611888565b610754565b005b61027660048036038101906102719190611752565b610878565b60405161028391906116d4565b60405180910390f35b6102a660048036038101906102a191906118fe565b6108c4565b005b6102c260048036038101906102bd9190611888565b6109e8565b005b6102de60048036038101906102d99190611752565b610b0c565b6040516102eb91906116d4565b60405180910390f35b61030e6004803603810190610309919061196a565b610b58565b005b61032a60048036038101906103259190611752565b610c8f565b60405161033791906116d4565b60405180910390f35b61035a60048036038101906103559190611752565b610cdb565b60405161036d97969594939291906119b9565b60405180910390f35b610390600480360381019061038b9190611a28565b610d2a565b005b6103ac60048036038101906103a79190611888565b611026565b005b6103c860048036038101906103c39190611752565b61114a565b6040516103d59190611aa3565b60405180910390f35b6103f860048036038101906103f39190611888565b611196565b005b610414600480360381019061040f9190611888565b61136c565b005b610430600480360381019061042b9190611752565b611566565b005b60015481565b6000600260008373ffffffffffffffffffffffffffffffffffffffff1673ffffffffffffffffffffffffffffffffffffffff16815260200190815260200160002060030160009054906101000a900460ff169050919050565b60008054906101000a900473ffffffffffffffffffffffffffffffffffffffff1681565b60008054906101000a900473ffffffffffffffffffffffffffffffffffffffff1673ffffffffffffffffffffffffffffffffffffffff166316279055336040518263ffffffff1660e01b815260040161050e9190611acd565b602060405180830381865afa15801561052b573d6000803e3d6000fd5b505050506040513d601f19601f8201168201806040525081019061054f9190611afd565b61058e576040517f08c379a000000000000000000000000000000000000000000000000000000000815260040161058590611bad565b60405180910390fd5b8060018190555050565b60008054906101000a900473ffffffffffffffffffffffffffffffffffffffff1673ffffffffffffffffffffffffffffffffffffffff166316279055336040518263ffffffff1660e01b81526004016105f19190611acd565b602060405180830381865afa15801561060e573d6000803e3d6000fd5b505050506040513d601f19601f820116820180604052508101906106329190611afd565b610671576040517f08c379a000000000000000000000000000000000000000000000000000000000815260040161066890611bad565b60405180910390fd5b80600260008473ffffffffffffffffffffffffffffffffffffffff1673ffffffffffffffffffffffffffffffffffffffff168152602001908152602001600020600101819055505050565b6000600260008373ffffffffffffffffffffffffffffffffffffffff1673ffffffffffffffffffffffffffffffffffffffff168152602001908152602001600020600501549050919050565b6000600260008373ffffffffffffffffffffffffffffffffffffffff1673ffffffffffffffffffffffffffffffffffffffff168152602001908152602001600020600101549050919050565b60008054906101000a900473ffffffffffffffffffffffffffffffffffffffff1673ffffffffffffffffffffffffffffffffffffffff166316279055336040518263ffffffff1660e01b81526004016107ad9190611acd565b602060405180830381865afa1580156107ca573d6000803e3d6000fd5b505050506040513d601f19601f820116820180604052508101906107ee9190611afd565b61082d576040517f08c379a000000000000000000000000000000000000000000000000000000000815260040161082490611bad565b60405180910390fd5b80600260008473ffffffffffffffffffffffffffffffffffffffff1673ffffffffffffffffffffffffffffffffffffffff168152602001908152602001600020600401819055505050565b6000600260008373ffffffffffffffffffffffffffffffffffffffff1673ffffffffffffffffffffffffffffffffffffffff168152602001908152602001600020600001549050919050565b60008054906101000a900473ffffffffffffffffffffffffffffffffffffffff1673ffffffffffffffffffffffffffffffffffffffff166316279055336040518263ffffffff1660e01b815260040161091d9190611acd565b602060405180830381865afa15801561093a573d6000803e3d6000fd5b505050506040513d601f19601f8201168201806040525081019061095e9190611afd565b61099d576040517f08c379a000000000000000000000000000000000000000000000000000000000815260040161099490611bad565b60405180910390fd5b80600260008473ffffffffffffffffffffffffffffffffffffffff1673ffffffffffffffffffffffffffffffffffffffff168152602001908152602001600020600601819055505050565b60008054906101000a900473ffffffffffffffffffffffffffffffffffffffff1673ffffffffffffffffffffffffffffffffffffffff166316279055336040518263ffffffff1660e01b8152600401610a419190611acd565b602060405180830381865afa158015610a5e573d6000803e3d6000fd5b505050506040513d601f19601f82011682018060405250810190610a829190611afd565b610ac1576040517f08c379a0000000000000000000000000000000000000000000000000000000008152600401610ab890611bad565b60405180910390fd5b80600260008473ffffffffffffffffffffffffffffffffffffffff1673ffffffffffffffffffffffffffffffffffffffff168152602001908152602001600020600501819055505050565b6000600260008373ffffffffffffffffffffffffffffffffffffffff1673ffffffffffffffffffffffffffffffffffffffff168152602001908152602001600020600401549050919050565b60008054906101000a900473ffffffffffffffffffffffffffffffffffffffff1673ffffffffffffffffffffffffffffffffffffffff166316279055336040518263ffffffff1660e01b8152600401610bb19190611acd565b602060405180830381865afa158015610bce573d6000803e3d6000fd5b505050506040513d601f19601f82011682018060405250810190610bf29190611afd565b610c31576040517f08c379a0000000000000000000000000000000000000000000000000000000008152600401610c2890611bad565b60405180910390fd5b80600260008473ffffffffffffffffffffffffffffffffffffffff1673ffffffffffffffffffffffffffffffffffffffff16815260200190815260200160002060030160006101000a81548160ff0219169083151502179055505050565b6000600260008373ffffffffffffffffffffffffffffffffffffffff1673ffffffffffffffffffffffffffffffffffffffff168152602001908152602001600020600201549050919050565b60026020528060005260406000206000915090508060000154908060010154908060020154908060030160009054906101000a900460ff16908060040154908060050154908060060154905087565b60008054906101000a900473ffffffffffffffffffffffffffffffffffffffff1673ffffffffffffffffffffffffffffffffffffffff166316279055336040518263ffffffff1660e01b8152600401610d839190611acd565b602060405180830381865afa158015610da0573d6000803e3d6000fd5b505050506040513d601f19601f82011682018060405250810190610dc49190611afd565b610e03576040517f08c379a0000000000000000000000000000000000000000000000000000000008152600401610dfa90611bad565b60405180910390fd5b600073ffffffffffffffffffffffffffffffffffffffff168473ffffffffffffffffffffffffffffffffffffffff1614158015610e6d5750600073ffffffffffffffffffffffffffffffffffffffff168373ffffffffffffffffffffffffffffffffffffffff1614155b8015610ea65750600073ffffffffffffffffffffffffffffffffffffffff168273ffffffffffffffffffffffffffffffffffffffff1614155b610eaf57600080fd5b600381610ebc9190611bfc565b600260008773ffffffffffffffffffffffffffffffffffffffff1673ffffffffffffffffffffffffffffffffffffffff1681526020019081526020016000206001016000828254610f0d9190611c56565b9250508190555080600260008673ffffffffffffffffffffffffffffffffffffffff1673ffffffffffffffffffffffffffffffffffffffff1681526020019081526020016000206001016000828254610f669190611c56565b9250508190555080600260008573ffffffffffffffffffffffffffffffffffffffff1673ffffffffffffffffffffffffffffffffffffffff1681526020019081526020016000206001016000828254610fbf9190611c56565b9250508190555080600260008473ffffffffffffffffffffffffffffffffffffffff1673ffffffffffffffffffffffffffffffffffffffff16815260200190815260200160002060010160008282546110189190611c56565b925050819055505050505050565b60008054906101000a900473ffffffffffffffffffffffffffffffffffffffff1673ffffffffffffffffffffffffffffffffffffffff166316279055336040518263ffffffff1660e01b815260040161107f9190611acd565b602060405180830381865afa15801561109c573d6000803e3d6000fd5b505050506040513d601f19601f820116820180604052508101906110c09190611afd565b6110ff576040517f08c379a00000000000000000000000000000000000000000000000000000000081526004016110f690611bad565b60405180910390fd5b80600260008473ffffffffffffffffffffffffffffffffffffffff1673ffffffffffffffffffffffffffffffffffffffff168152602001908152602001600020600201819055505050565b6000600260008373ffffffffffffffffffffffffffffffffffffffff1673ffffffffffffffffffffffffffffffffffffffff168152602001908152602001600020600601549050919050565b60008054906101000a900473ffffffffffffffffffffffffffffffffffffffff1673ffffffffffffffffffffffffffffffffffffffff166316279055336040518263ffffffff1660e01b81526004016111ef9190611acd565b602060405180830381865afa15801561120c573d6000803e3d6000fd5b505050506040513d601f19601f820116820180604052508101906112309190611afd565b61126f576040517f08c379a000000000000000000000000000000000000000000000000000000000815260040161126690611bad565b60405180910390fd5b80600260008473ffffffffffffffffffffffffffffffffffffffff1673ffffffffffffffffffffffffffffffffffffffff168152602001908152602001600020600001819055507f2f16f03629d3ae5191078edfd5a1774d247fb2408591f7cf9ff2c3097c5d07d13073ffffffffffffffffffffffffffffffffffffffff1663b56e4129846040518263ffffffff1660e01b81526004016113109190611acd565b602060405180830381865afa15801561132d573d6000803e3d6000fd5b505050506040513d601f19601f820116820180604052508101906113519190611cc1565b82604051611360929190611cee565b60405180910390a15050565b60008054906101000a900473ffffffffffffffffffffffffffffffffffffffff1673ffffffffffffffffffffffffffffffffffffffff166316279055336040518263ffffffff1660e01b81526004016113c59190611acd565b602060405180830381865afa1580156113e2573d6000803e3d6000fd5b505050506040513d601f19601f820116820180604052508101906114069190611afd565b611445576040517f08c379a000000000000000000000000000000000000000000000000000000000815260040161143c90611bad565b60405180910390fd5b60008060009054906101000a900473ffffffffffffffffffffffffffffffffffffffff1673ffffffffffffffffffffffffffffffffffffffff166304433bbc6040518163ffffffff1660e01b815260040161149f90611d63565b602060405180830381865afa1580156114bc573d6000803e3d6000fd5b505050506040513d601f19601f820116820180604052508101906114e09190611d98565b90508073ffffffffffffffffffffffffffffffffffffffff1663a9059cbb84846040518363ffffffff1660e01b815260040161151d929190611dc5565b6020604051808303816000875af115801561153c573d6000803e3d6000fd5b505050506040513d601f19601f820116820180604052508101906115609190611afd565b50505050565b60008054906101000a900473ffffffffffffffffffffffffffffffffffffffff1673ffffffffffffffffffffffffffffffffffffffff166316279055336040518263ffffffff1660e01b81526004016115bf9190611acd565b602060405180830381865afa1580156115dc573d6000803e3d6000fd5b505050506040513d601f19601f820116820180604052508101906116009190611afd565b61163f576040517f08c379a000000000000000000000000000000000000000000000000000000000815260040161163690611bad565b60405180910390fd5b600073ffffffffffffffffffffffffffffffffffffffff168173ffffffffffffffffffffffffffffffffffffffff160361167857600080fd5b806000806101000a81548173ffffffffffffffffffffffffffffffffffffffff021916908373ffffffffffffffffffffffffffffffffffffffff16021790555050565b6000819050919050565b6116ce816116bb565b82525050565b60006020820190506116e960008301846116c5565b92915050565b600080fd5b600073ffffffffffffffffffffffffffffffffffffffff82169050919050565b600061171f826116f4565b9050919050565b61172f81611714565b811461173a57600080fd5b50565b60008135905061174c81611726565b92915050565b600060208284031215611768576117676116ef565b5b60006117768482850161173d565b91505092915050565b60008115159050919050565b6117948161177f565b82525050565b60006020820190506117af600083018461178b565b92915050565b6000819050919050565b60006117da6117d56117d0846116f4565b6117b5565b6116f4565b9050919050565b60006117ec826117bf565b9050919050565b60006117fe826117e1565b9050919050565b61180e816117f3565b82525050565b60006020820190506118296000830184611805565b92915050565b611838816116bb565b811461184357600080fd5b50565b6000813590506118558161182f565b92915050565b600060208284031215611871576118706116ef565b5b600061187f84828501611846565b91505092915050565b6000806040838503121561189f5761189e6116ef565b5b60006118ad8582860161173d565b92505060206118be85828601611846565b9150509250929050565b6000819050919050565b6118db816118c8565b81146118e657600080fd5b50565b6000813590506118f8816118d2565b92915050565b60008060408385031215611915576119146116ef565b5b60006119238582860161173d565b9250506020611934858286016118e9565b9150509250929050565b6119478161177f565b811461195257600080fd5b50565b6000813590506119648161193e565b92915050565b60008060408385031215611981576119806116ef565b5b600061198f8582860161173d565b92505060206119a085828601611955565b9150509250929050565b6119b3816118c8565b82525050565b600060e0820190506119ce600083018a6116c5565b6119db60208301896116c5565b6119e860408301886116c5565b6119f5606083018761178b565b611a0260808301866116c5565b611a0f60a08301856116c5565b611a1c60c08301846119aa565b98975050505050505050565b600080600080600060a08688031215611a4457611a436116ef565b5b6000611a528882890161173d565b9550506020611a638882890161173d565b9450506040611a748882890161173d565b9350506060611a858882890161173d565b9250506080611a9688828901611846565b9150509295509295909350565b6000602082019050611ab860008301846119aa565b92915050565b611ac781611714565b82525050565b6000602082019050611ae26000830184611abe565b92915050565b600081519050611af78161193e565b92915050565b600060208284031215611b1357611b126116ef565b5b6000611b2184828501611ae8565b91505092915050565b600082825260208201905092915050565b7f46756e6374696f6e2063616e206f6e6c792062652063616c6c6564206279206360008201527f6f6e747261637473210000000000000000000000000000000000000000000000602082015250565b6000611b97602983611b2a565b9150611ba282611b3b565b604082019050919050565b60006020820190508181036000830152611bc681611b8a565b9050919050565b7f4e487b7100000000000000000000000000000000000000000000000000000000600052601160045260246000fd5b6000611c07826116bb565b9150611c12836116bb565b9250817fffffffffffffffffffffffffffffffffffffffffffffffffffffffffffffffff0483118215151615611c4b57611c4a611bcd565b5b828202905092915050565b6000611c61826116bb565b9150611c6c836116bb565b9250827fffffffffffffffffffffffffffffffffffffffffffffffffffffffffffffffff03821115611ca157611ca0611bcd565b5b828201905092915050565b600081519050611cbb816118d2565b92915050565b600060208284031215611cd757611cd66116ef565b5b6000611ce584828501611cac565b91505092915050565b6000604082019050611d0360008301856119aa565b611d1060208301846116c5565b9392505050565b7f546f6b656e000000000000000000000000000000000000000000000000000000600082015250565b6000611d4d600583611b2a565b9150611d5882611d17565b602082019050919050565b60006020820190508181036000830152611d7c81611d40565b9050919050565b600081519050611d9281611726565b92915050565b600060208284031215611dae57611dad6116ef565b5b6000611dbc84828501611d83565b91505092915050565b6000604082019050611dda6000830185611abe565b611de760208301846116c5565b939250505056fea2646970667358221220115d51c258143efb02902b81143176be8d7a331057bab4ae07c13971998e16de64736f6c634300080e0033",
  "immutableReferences": {},
  "source": "// SPDX-License-Identifier: MIT\n\npragma solidity ^0.8.0;\n\nimport \"@openzeppelin/contracts/token/ERC20/ERC20.sol\";\nimport {Hub} from '../Hub.sol';\n\ncontract ProfileStorage {\n    event StakeUpdated(bytes32 nodeId, uint256 stake);\n\n    Hub public hub;\n    \n    constructor(address hubAddress) {\n        hub = Hub(hubAddress);\n        activeNodes = 1;\n    }\n\n    function setHubAddress(address newHubAddress)\n    public onlyContracts {\n        require(newHubAddress != address(0));\n        hub = Hub(newHubAddress);\n    }\n    \n    modifier onlyContracts(){\n        require(hub.isContract(msg.sender),\n        \"Function can only be called by contracts!\");\n        _;\n    }\n\n    uint256 public activeNodes;\n\n    function setActiveNodes(uint256 newActiveNodes) \n    public onlyContracts {\n        activeNodes = newActiveNodes;\n    }\n\n    struct ProfileDefinition{\n        uint256 stake;\n        uint256 stakeReserved;\n        uint256 reputation;\n        bool withdrawalPending;\n        uint256 withdrawalTimestamp;\n        uint256 withdrawalAmount;\n        bytes32 nodeId;\n    }\n    mapping(address => ProfileDefinition) public profile;\n\n    function getStake(address identity) \n    public view returns(uint256) {\n        return profile[identity].stake;\n    }\n    function getStakeReserved(address identity) \n    public view returns(uint256) {\n        return profile[identity].stakeReserved;\n    }\n    function getReputation(address identity) \n    public view returns(uint256) {\n        return profile[identity].reputation;\n    }\n    function getWithdrawalPending(address identity) \n    public view returns(bool) {\n        return profile[identity].withdrawalPending;\n    }\n    function getWithdrawalTimestamp(address identity) \n    public view returns(uint256) {\n        return profile[identity].withdrawalTimestamp;\n    }\n    function getWithdrawalAmount(address identity) \n    public view returns(uint256) {\n        return profile[identity].withdrawalAmount;\n    }\n    function getNodeId(address identity) \n    public view returns(bytes32) {\n        return profile[identity].nodeId;\n    }\n    \n    function setStake(address identity, uint256 stake) \n    public onlyContracts {\n        profile[identity].stake = stake;\n\n        emit StakeUpdated(this.getNodeId(identity), stake);\n    }\n    function setStakeReserved(address identity, uint256 stakeReserved) \n    public onlyContracts {\n        profile[identity].stakeReserved = stakeReserved;\n    }\n    function setReputation(address identity, uint256 reputation) \n    public onlyContracts {\n        profile[identity].reputation = reputation;\n    }\n    function setWithdrawalPending(address identity, bool withdrawalPending) \n    public onlyContracts {\n        profile[identity].withdrawalPending = withdrawalPending;\n    }\n    function setWithdrawalTimestamp(address identity, uint256 withdrawalTimestamp) \n    public onlyContracts {\n        profile[identity].withdrawalTimestamp = withdrawalTimestamp;\n    }\n    function setWithdrawalAmount(address identity, uint256 withdrawalAmount) \n    public onlyContracts {\n        profile[identity].withdrawalAmount = withdrawalAmount;\n    }\n    function setNodeId(address identity, bytes32 nodeId)\n    public onlyContracts {\n        profile[identity].nodeId = nodeId;\n    }\n\n    function increaseStakesReserved(\n        address payer,\n        address identity1,\n        address identity2,\n        address identity3,\n        uint256 amount)\n    public onlyContracts {\n        require(identity1!=address(0) && identity2!=address(0) && identity3!=address(0));\n        profile[payer].stakeReserved += (amount * 3);\n        profile[identity1].stakeReserved += amount;\n        profile[identity2].stakeReserved += amount;\n        profile[identity3].stakeReserved += amount;\n    }\n\n    function transferTokens(address wallet, uint256 amount)\n    public onlyContracts {\n        ERC20 token = ERC20(hub.getContractAddress(\"Token\"));\n        token.transfer(wallet, amount);\n    }\n}\n",
  "sourcePath": "/Users/waving/Desktop/OriginTrail/dkg-evm-module/contracts/storage/ProfileStorage.sol",
  "compiler": {
    "name": "solc",
    "version": "0.8.14+commit.80d49f37.Emscripten.clang"
  },
  "schemaVersion": "3.4.10",
  "updatedAt": "2022-10-26T15:16:10.971Z",
  "devdoc": {
    "kind": "dev",
    "methods": {},
    "version": 1
  },
  "userdoc": {
    "kind": "user",
    "methods": {},
    "version": 1
  }
}