{
  "contractName": "ProfileStorage",
  "abi": [
    {
      "inputs": [
        {
          "internalType": "address",
          "name": "hubAddress",
          "type": "address"
        }
      ],
      "stateMutability": "nonpayable",
      "type": "constructor"
    },
    {
      "inputs": [],
      "name": "hashingProxy",
      "outputs": [
        {
          "internalType": "contract HashingProxy",
          "name": "",
          "type": "address"
        }
      ],
      "stateMutability": "view",
      "type": "function"
    },
    {
      "inputs": [],
      "name": "hub",
      "outputs": [
        {
          "internalType": "contract Hub",
          "name": "",
          "type": "address"
        }
      ],
      "stateMutability": "view",
      "type": "function"
    },
    {
      "inputs": [
        {
          "internalType": "bytes",
          "name": "",
          "type": "bytes"
        }
      ],
      "name": "nodeIdsList",
      "outputs": [
        {
          "internalType": "bool",
          "name": "",
          "type": "bool"
        }
      ],
      "stateMutability": "view",
      "type": "function"
    },
    {
      "inputs": [],
      "name": "tokenContract",
      "outputs": [
        {
          "internalType": "contract IERC20",
          "name": "",
          "type": "address"
        }
      ],
      "stateMutability": "view",
      "type": "function"
    },
    {
      "inputs": [],
      "name": "name",
      "outputs": [
        {
          "internalType": "string",
          "name": "",
          "type": "string"
        }
      ],
      "stateMutability": "pure",
      "type": "function"
    },
    {
      "inputs": [],
      "name": "version",
      "outputs": [
        {
          "internalType": "string",
          "name": "",
          "type": "string"
        }
      ],
      "stateMutability": "pure",
      "type": "function"
    },
    {
      "inputs": [
        {
          "internalType": "uint72",
          "name": "identityId",
          "type": "uint72"
        },
        {
          "internalType": "bytes",
          "name": "nodeId",
          "type": "bytes"
        },
        {
          "internalType": "address",
          "name": "sharesContractAddress",
          "type": "address"
        }
      ],
      "name": "createProfile",
      "outputs": [],
      "stateMutability": "nonpayable",
      "type": "function"
    },
    {
      "inputs": [
        {
          "internalType": "uint72",
          "name": "identityId",
          "type": "uint72"
        }
      ],
      "name": "getProfile",
      "outputs": [
        {
          "internalType": "bytes",
          "name": "",
          "type": "bytes"
        },
        {
          "internalType": "uint96[2]",
          "name": "",
          "type": "uint96[2]"
        },
        {
          "internalType": "address",
          "name": "",
          "type": "address"
        }
      ],
      "stateMutability": "view",
      "type": "function"
    },
    {
      "inputs": [
        {
          "internalType": "uint72",
          "name": "identityId",
          "type": "uint72"
        }
      ],
      "name": "deleteProfile",
      "outputs": [],
      "stateMutability": "nonpayable",
      "type": "function"
    },
    {
      "inputs": [
        {
          "internalType": "uint72",
          "name": "identityId",
          "type": "uint72"
        }
      ],
      "name": "getNodeId",
      "outputs": [
        {
          "internalType": "bytes",
          "name": "",
          "type": "bytes"
        }
      ],
      "stateMutability": "view",
      "type": "function"
    },
    {
      "inputs": [
        {
          "internalType": "uint72",
          "name": "identityId",
          "type": "uint72"
        },
        {
          "internalType": "bytes",
          "name": "nodeId",
          "type": "bytes"
        }
      ],
      "name": "setNodeId",
      "outputs": [],
      "stateMutability": "nonpayable",
      "type": "function"
    },
    {
      "inputs": [
        {
          "internalType": "uint72",
          "name": "identityId",
          "type": "uint72"
        }
      ],
      "name": "getAsk",
      "outputs": [
        {
          "internalType": "uint96",
          "name": "",
          "type": "uint96"
        }
      ],
      "stateMutability": "view",
      "type": "function"
    },
    {
      "inputs": [
        {
          "internalType": "uint72",
          "name": "identityId",
          "type": "uint72"
        },
        {
          "internalType": "uint96",
          "name": "ask",
          "type": "uint96"
        }
      ],
      "name": "setAsk",
      "outputs": [],
      "stateMutability": "nonpayable",
      "type": "function"
    },
    {
      "inputs": [
        {
          "internalType": "uint72",
          "name": "identityId",
          "type": "uint72"
        }
      ],
      "name": "getAccumulatedOperatorFee",
      "outputs": [
        {
          "internalType": "uint96",
          "name": "",
          "type": "uint96"
        }
      ],
      "stateMutability": "view",
      "type": "function"
    },
    {
      "inputs": [
        {
          "internalType": "uint72",
          "name": "identityId",
          "type": "uint72"
        },
        {
          "internalType": "uint96",
          "name": "newOperatorFeeAmount",
          "type": "uint96"
        }
      ],
      "name": "setAccumulatedOperatorFee",
      "outputs": [],
      "stateMutability": "nonpayable",
      "type": "function"
    },
    {
      "inputs": [
        {
          "internalType": "uint72",
          "name": "identityId",
          "type": "uint72"
        }
      ],
      "name": "getAccumulatedOperatorFeeWithdrawalAmount",
      "outputs": [
        {
          "internalType": "uint96",
          "name": "",
          "type": "uint96"
        }
      ],
      "stateMutability": "view",
      "type": "function"
    },
    {
      "inputs": [
        {
          "internalType": "uint72",
          "name": "identityId",
          "type": "uint72"
        },
        {
          "internalType": "uint96",
          "name": "accumulatedOperatorFeeWithdrawalAmount",
          "type": "uint96"
        }
      ],
      "name": "setAccumulatedOperatorFeeWithdrawalAmount",
      "outputs": [],
      "stateMutability": "nonpayable",
      "type": "function"
    },
    {
      "inputs": [
        {
          "internalType": "uint72",
          "name": "identityId",
          "type": "uint72"
        }
      ],
      "name": "getAccumulatedOperatorFeeWithdrawalTimestamp",
      "outputs": [
        {
          "internalType": "uint256",
          "name": "",
          "type": "uint256"
        }
      ],
      "stateMutability": "view",
      "type": "function"
    },
    {
      "inputs": [
        {
          "internalType": "uint72",
          "name": "identityId",
          "type": "uint72"
        },
        {
          "internalType": "uint256",
          "name": "operatorFeeWithdrawalTimestamp",
          "type": "uint256"
        }
      ],
      "name": "setAccumulatedOperatorFeeWithdrawalTimestamp",
      "outputs": [],
      "stateMutability": "nonpayable",
      "type": "function"
    },
    {
      "inputs": [
        {
          "internalType": "uint72",
          "name": "identityId",
          "type": "uint72"
        }
      ],
      "name": "getSharesContractAddress",
      "outputs": [
        {
          "internalType": "address",
          "name": "",
          "type": "address"
        }
      ],
      "stateMutability": "view",
      "type": "function"
    },
    {
      "inputs": [
        {
          "internalType": "uint72",
          "name": "identityId",
          "type": "uint72"
        },
        {
          "internalType": "address",
          "name": "sharesContractAddress",
          "type": "address"
        }
      ],
      "name": "setSharesContractAddress",
      "outputs": [],
      "stateMutability": "nonpayable",
      "type": "function"
    },
    {
      "inputs": [
        {
          "internalType": "uint72",
          "name": "identityId",
          "type": "uint72"
        },
        {
          "internalType": "uint8",
          "name": "hashFunctionId",
          "type": "uint8"
        }
      ],
      "name": "getNodeAddress",
      "outputs": [
        {
          "internalType": "bytes32",
          "name": "",
          "type": "bytes32"
        }
      ],
      "stateMutability": "view",
      "type": "function"
    },
    {
      "inputs": [
        {
          "internalType": "uint72",
          "name": "identityId",
          "type": "uint72"
        },
        {
          "internalType": "uint8",
          "name": "hashFunctionId",
          "type": "uint8"
        }
      ],
      "name": "setNodeAddress",
      "outputs": [],
      "stateMutability": "nonpayable",
      "type": "function"
    },
    {
      "inputs": [
        {
          "internalType": "uint72",
          "name": "identityId",
          "type": "uint72"
        }
      ],
      "name": "profileExists",
      "outputs": [
        {
          "internalType": "bool",
          "name": "",
          "type": "bool"
        }
      ],
      "stateMutability": "view",
      "type": "function"
    },
    {
      "inputs": [
        {
          "internalType": "bytes",
          "name": "nodeId",
          "type": "bytes"
        }
      ],
      "name": "nodeIdRegistered",
      "outputs": [
        {
          "internalType": "bool",
          "name": "",
          "type": "bool"
        }
      ],
      "stateMutability": "view",
      "type": "function"
    },
    {
      "inputs": [
        {
          "internalType": "address",
          "name": "receiver",
          "type": "address"
        },
        {
          "internalType": "uint96",
          "name": "amount",
          "type": "uint96"
        }
      ],
      "name": "transferTokens",
      "outputs": [],
      "stateMutability": "nonpayable",
      "type": "function"
    }
  ],
  "bytecode": "0x60806040523480156200001157600080fd5b50604051620015ac380380620015ac8339810160408190526200003491620001a2565b6001600160a01b0381166200004857600080fd5b600080546001600160a01b0319166001600160a01b038316908117909155604051630110ceef60e21b815260206004820152600c60248201526b48617368696e6750726f787960a01b60448201526304433bbc90606401602060405180830381865afa158015620000bd573d6000803e3d6000fd5b505050506040513d601f19601f82011682018060405250810190620000e39190620001a2565b600180546001600160a01b0319166001600160a01b03928316179055600054604051630110ceef60e21b81526020600482015260056024820152642a37b5b2b760d91b60448201529116906304433bbc90606401602060405180830381865afa15801562000155573d6000803e3d6000fd5b505050506040513d601f19601f820116820180604052508101906200017b9190620001a2565b600280546001600160a01b0319166001600160a01b039290921691909117905550620001d4565b600060208284031215620001b557600080fd5b81516001600160a01b0381168114620001cd57600080fd5b9392505050565b6113c880620001e46000396000f3fe608060405234801561001057600080fd5b506004361061018e5760003560e01c8063947bb615116100de578063c12b4c7611610097578063dc827de911610071578063dc827de914610489578063e49f999b1461049c578063e6c79da5146104be578063eb2145e3146104f357600080fd5b8063c12b4c7614610427578063d0ea3fee14610463578063d184a8691461047657600080fd5b8063947bb6151461034c578063abe979e11461037a578063b014809f1461038d578063b8561a54146103a0578063b89bba06146103d6578063c04d7dcf1461041457600080fd5b806339fb67dd1161014b57806355a373d61161012557806355a373d6146102f057806356abe1841461030357806368dae4fd1461031657806378153abf1461032957600080fd5b806339fb67dd1461026f57806341c10b9a146102bc57806354fd4d50146102cf57600080fd5b806306fdde031461019357806311c94ee8146101cf5780631913cd55146101fa57806322bd9e8114610234578063365a86fc146102495780633718ac591461025c575b600080fd5b60408051808201909152600e81526d50726f66696c6553746f7261676560901b60208201525b6040516101c69190610d2d565b60405180910390f35b6001546101e2906001600160a01b031681565b6040516001600160a01b0390911681526020016101c6565b610226610208366004610d5e565b6001600160481b031660009081526004602052604090206003015490565b6040519081526020016101c6565b610247610242366004610dc2565b610506565b005b6000546101e2906001600160a01b031681565b61024761026a366004610d5e565b6105a1565b6102a461027d366004610d5e565b6001600160481b03166000908152600460205260409020600101546001600160601b031690565b6040516001600160601b0390911681526020016101c6565b6101b96102ca366004610d5e565b610653565b6040805180820190915260058152640312e302e360dc1b60208201526101b9565b6002546101e2906001600160a01b031681565b610247610311366004610e15565b6106ff565b610247610324366004610e3f565b610726565b61033c610337366004610e7c565b6107e8565b60405190151581526020016101c6565b61033c61035a366004610ed4565b805160208183018101805160038252928201919093012091525460ff1681565b610247610388366004610fb3565b610817565b61024761039b366004610fe6565b6108a3565b6101e26103ae366004610d5e565b6001600160481b0316600090815260046020819052604090912001546001600160a01b031690565b6102266103e4366004610e3f565b6001600160481b038216600090815260046020908152604080832060ff8516845260050190915290205492915050565b61033c610422366004610d5e565b6108e8565b6102a4610435366004610d5e565b6001600160481b0316600090815260046020526040902060010154600160601b90046001600160601b031690565b610247610471366004611010565b610955565b610247610484366004611010565b6109a8565b61024761049736600461102c565b6109ec565b6104af6104aa366004610d5e565b610a73565b6040516101c693929190611091565b6102a46104cc366004610d5e565b6001600160481b03166000908152600460205260409020600201546001600160601b031690565b610247610501366004611010565b610b71565b61050e610bb5565b6001600160481b038316600090815260046020526040808220905190919060039061053a90849061112c565b908152604051908190036020019020805491151560ff19909216919091179055806105668385836111f0565b5060016003848460405161057b9291906112b1565b908152604051908190036020019020805491151560ff1990921691909117905550505050565b6105a9610bb5565b6001600160481b03811660009081526004602052604080822090516003916105d09161112c565b9081526040805160209281900383019020805460ff1916931515939093179092556001600160481b03831660009081526004909152908120906106138282610c73565b506001810180546001600160c01b03191690556002810180546001600160601b03191690556000600382015560040180546001600160a01b031916905550565b6001600160481b038116600090815260046020526040902080546060919061067a906110f2565b80601f01602080910402602001604051908101604052809291908181526020018280546106a6906110f2565b80156106f35780601f106106c8576101008083540402835291602001916106f3565b820191906000526020600020905b8154815290600101906020018083116106d657829003601f168201915b50505050509050919050565b610707610bb5565b6001600160481b03909116600090815260046020526040902060030155565b61072e610bb5565b6001546001600160481b03831660009081526004602081905260409182902091516345ed59e560e01b81526001600160a01b03909316926345ed59e592610777928692016112c1565b6020604051808303816000875af1158015610796573d6000803e3d6000fd5b505050506040513d601f19601f820116820180604052508101906107ba9190611357565b6001600160481b03909216600090815260046020908152604080832060ff9094168352600590930190522055565b6000600383836040516107fc9291906112b1565b9081526040519081900360200190205460ff16905092915050565b61081f610bb5565b60025460405163a9059cbb60e01b81526001600160a01b0384811660048301526001600160601b03841660248301529091169063a9059cbb906044016020604051808303816000875af115801561087a573d6000803e3d6000fd5b505050506040513d601f19601f8201168201806040525081019061089e9190611370565b505050565b6108ab610bb5565b6001600160481b039190911660009081526004602081905260409091200180546001600160a01b0319166001600160a01b03909216919091179055565b60006108f2610bb5565b60408051602080820183526000918290526001600160481b03851682526004905281902090517fc5d2460186f7233c927e7db2dcc703c0e500b653ca82273b7bfad8045d85a470916109439161112c565b6040518091039020141590505b919050565b61095d610bb5565b6001600160481b03909116600090815260046020526040902060010180546001600160601b03909216600160601b026bffffffffffffffffffffffff60601b19909216919091179055565b6109b0610bb5565b6001600160481b0391909116600090815260046020526040902060010180546001600160601b0319166001600160601b03909216919091179055565b6109f4610bb5565b6001600160481b038416600090815260046020526040902080610a188486836111f0565b506004810180546001600160a01b0319166001600160a01b038416179055604051600190600390610a4c90879087906112b1565b908152604051908190036020019020805491151560ff199092169190911790555050505050565b6060610a7d610cb0565b6001600160481b0383166000908152600460208181526040808420815180830190925260018101546001600160601b038082168452600160601b90910416928201929092529181015481549192839290916001600160a01b0316908390610ae3906110f2565b80601f0160208091040260200160405190810160405280929190818152602001828054610b0f906110f2565b8015610b5c5780601f10610b3157610100808354040283529160200191610b5c565b820191906000526020600020905b815481529060010190602001808311610b3f57829003601f168201915b50505050509250935093509350509193909250565b610b79610bb5565b6001600160481b0391909116600090815260046020526040902060020180546001600160601b0319166001600160601b03909216919091179055565b600054604051631627905560e01b81523360048201526001600160a01b0390911690631627905590602401602060405180830381865afa158015610bfd573d6000803e3d6000fd5b505050506040513d601f19601f82011682018060405250810190610c219190611370565b610c715760405162461bcd60e51b815260206004820181905260248201527f466e2063616e206f6e6c792062652063616c6c65642062792074686520687562604482015260640160405180910390fd5b565b508054610c7f906110f2565b6000825580601f10610c8f575050565b601f016020900490600052602060002090810190610cad9190610cce565b50565b60405180604001604052806002906020820280368337509192915050565b5b80821115610ce35760008155600101610ccf565b5090565b6000815180845260005b81811015610d0d57602081850181015186830182015201610cf1565b506000602082860101526020601f19601f83011685010191505092915050565b602081526000610d406020830184610ce7565b9392505050565b80356001600160481b038116811461095057600080fd5b600060208284031215610d7057600080fd5b610d4082610d47565b60008083601f840112610d8b57600080fd5b50813567ffffffffffffffff811115610da357600080fd5b602083019150836020828501011115610dbb57600080fd5b9250929050565b600080600060408486031215610dd757600080fd5b610de084610d47565b9250602084013567ffffffffffffffff811115610dfc57600080fd5b610e0886828701610d79565b9497909650939450505050565b60008060408385031215610e2857600080fd5b610e3183610d47565b946020939093013593505050565b60008060408385031215610e5257600080fd5b610e5b83610d47565b9150602083013560ff81168114610e7157600080fd5b809150509250929050565b60008060208385031215610e8f57600080fd5b823567ffffffffffffffff811115610ea657600080fd5b610eb285828601610d79565b90969095509350505050565b634e487b7160e01b600052604160045260246000fd5b600060208284031215610ee657600080fd5b813567ffffffffffffffff80821115610efe57600080fd5b818401915084601f830112610f1257600080fd5b813581811115610f2457610f24610ebe565b604051601f8201601f19908116603f01168101908382118183101715610f4c57610f4c610ebe565b81604052828152876020848701011115610f6557600080fd5b826020860160208301376000928101602001929092525095945050505050565b80356001600160a01b038116811461095057600080fd5b80356001600160601b038116811461095057600080fd5b60008060408385031215610fc657600080fd5b610fcf83610f85565b9150610fdd60208401610f9c565b90509250929050565b60008060408385031215610ff957600080fd5b61100283610d47565b9150610fdd60208401610f85565b6000806040838503121561102357600080fd5b610fcf83610d47565b6000806000806060858703121561104257600080fd5b61104b85610d47565b9350602085013567ffffffffffffffff81111561106757600080fd5b61107387828801610d79565b9094509250611086905060408601610f85565b905092959194509250565b6080815260006110a46080830186610ce7565b905060208083018560005b60028110156110d55781516001600160601b0316835291830191908301906001016110af565b505050506001600160a01b03929092166060919091015292915050565b600181811c9082168061110657607f821691505b60208210810361112657634e487b7160e01b600052602260045260246000fd5b50919050565b600080835461113a816110f2565b60018281168015611152576001811461116757611196565b60ff1984168752821515830287019450611196565b8760005260208060002060005b8581101561118d5781548a820152908401908201611174565b50505082870194505b50929695505050505050565b601f82111561089e57600081815260208120601f850160051c810160208610156111c95750805b601f850160051c820191505b818110156111e8578281556001016111d5565b505050505050565b67ffffffffffffffff83111561120857611208610ebe565b61121c8361121683546110f2565b836111a2565b6000601f84116001811461125057600085156112385750838201355b600019600387901b1c1916600186901b1783556112aa565b600083815260209020601f19861690835b828110156112815786850135825560209485019460019092019101611261565b508682101561129e5760001960f88860031b161c19848701351681555b505060018560011b0183555b5050505050565b8183823760009101908152919050565b60ff8316815260006020604081840152600084546112de816110f2565b8060408701526060600180841660008114611300576001811461131a57611348565b60ff1985168984015283151560051b890183019550611348565b896000528660002060005b858110156113405781548b8201860152908301908801611325565b8a0184019650505b50939998505050505050505050565b60006020828403121561136957600080fd5b5051919050565b60006020828403121561138257600080fd5b81518015158114610d4057600080fdfea26469706673582212203b1142170d9a6cc64d23e8476098b06d591e60fe6b73292ff99e824498ada69964736f6c63430008100033",
  "immutableReferences": {},
  "source": "// SPDX-License-Identifier: MIT\n\npragma solidity ^0.8.4;\n\nimport { HashingProxy } from \"../HashingProxy.sol\";\nimport { Hub } from \"../Hub.sol\";\nimport { Named } from \"../interface/Named.sol\";\nimport { Versioned } from \"../interface/Versioned.sol\";\nimport { IERC20 } from \"@openzeppelin/contracts/token/ERC20/IERC20.sol\";\n\ncontract ProfileStorage is Named, Versioned {\n\n    string constant private _NAME = \"ProfileStorage\";\n    string constant private _VERSION = \"1.0.0\";\n\n    Hub public hub;\n    HashingProxy public hashingProxy;\n    IERC20 public tokenContract;\n\n    struct ProfileDefinition{\n        bytes nodeId;\n        uint96 ask;\n        uint96 accumulatedOperatorFee;\n        uint96 accumulatedOperatorFeeWithdrawalAmount;\n        uint256 operatorFeeWithdrawalTimestamp;\n        address sharesContractAddress;\n        mapping(uint8 => bytes32) nodeAddresses;\n    }\n\n    // nodeId => isRegistered?\n    mapping(bytes => bool) public nodeIdsList;\n    // identityId => Profile\n    mapping(uint72 => ProfileDefinition) profiles;\n\n    constructor(address hubAddress) {\n        require(hubAddress != address(0));\n\n        hub = Hub(hubAddress);\n        hashingProxy = HashingProxy(hub.getContractAddress(\"HashingProxy\"));\n        tokenContract = IERC20(hub.getContractAddress(\"Token\"));\n    }\n\n    modifier onlyContracts() {\n        _checkHub();\n        _;\n    }\n\n    function name() external pure virtual override returns (string memory) {\n        return _NAME;\n    }\n\n    function version() external pure virtual override returns (string memory) {\n        return _VERSION;\n    }\n\n    function createProfile(uint72 identityId, bytes calldata nodeId, address sharesContractAddress)\n        external\n        onlyContracts\n    {\n        ProfileDefinition storage profile = profiles[identityId];\n        profile.nodeId = nodeId;\n        profile.sharesContractAddress = sharesContractAddress;\n\n        nodeIdsList[nodeId] = true;\n    }\n\n    function getProfile(uint72 identityId) external view returns (bytes memory, uint96[2] memory, address) {\n        ProfileDefinition storage profile = profiles[identityId];\n        return (profile.nodeId, [profile.ask, profile.accumulatedOperatorFee], profile.sharesContractAddress);\n    }\n\n    function deleteProfile(uint72 identityId) external onlyContracts {\n        nodeIdsList[profiles[identityId].nodeId] = false;\n        delete profiles[identityId];\n    }\n\n    function getNodeId(uint72 identityId) external view returns (bytes memory) {\n        return profiles[identityId].nodeId;\n    }\n\n    function setNodeId(uint72 identityId, bytes calldata nodeId) external onlyContracts {\n        ProfileDefinition storage profile = profiles[identityId];\n\n        nodeIdsList[profile.nodeId] = false;\n        profile.nodeId = nodeId;\n        nodeIdsList[nodeId] = true;\n    }\n\n    function getAsk(uint72 identityId) external view returns (uint96) {\n        return profiles[identityId].ask;\n    }\n\n    function setAsk(uint72 identityId, uint96 ask) external onlyContracts {\n        profiles[identityId].ask = ask;\n    }\n\n    function getAccumulatedOperatorFee(uint72 identityId) external view returns (uint96) {\n        return profiles[identityId].accumulatedOperatorFee;\n    }\n\n    function setAccumulatedOperatorFee(uint72 identityId, uint96 newOperatorFeeAmount) external onlyContracts {\n        profiles[identityId].accumulatedOperatorFee = newOperatorFeeAmount;\n    }\n\n    function getAccumulatedOperatorFeeWithdrawalAmount(uint72 identityId) external view returns (uint96) {\n        return profiles[identityId].accumulatedOperatorFeeWithdrawalAmount;\n    }\n\n    function setAccumulatedOperatorFeeWithdrawalAmount(uint72 identityId, uint96 accumulatedOperatorFeeWithdrawalAmount) external onlyContracts {\n        profiles[identityId].accumulatedOperatorFeeWithdrawalAmount = accumulatedOperatorFeeWithdrawalAmount;\n    }\n\n    function getAccumulatedOperatorFeeWithdrawalTimestamp(uint72 identityId) external view returns (uint256) {\n        return profiles[identityId].operatorFeeWithdrawalTimestamp;\n    }\n\n    function setAccumulatedOperatorFeeWithdrawalTimestamp(uint72 identityId, uint256 operatorFeeWithdrawalTimestamp) external onlyContracts {\n        profiles[identityId].operatorFeeWithdrawalTimestamp = operatorFeeWithdrawalTimestamp;\n    }\n\n    function getSharesContractAddress(uint72 identityId) external view returns (address) {\n        return profiles[identityId].sharesContractAddress;\n    }\n\n    function setSharesContractAddress(uint72 identityId, address sharesContractAddress) external onlyContracts {\n        profiles[identityId].sharesContractAddress = sharesContractAddress;\n    }\n\n    function getNodeAddress(uint72 identityId, uint8 hashFunctionId) external view returns (bytes32) {\n        return profiles[identityId].nodeAddresses[hashFunctionId];\n    }\n\n    function setNodeAddress(uint72 identityId, uint8 hashFunctionId) external onlyContracts {\n        profiles[identityId].nodeAddresses[hashFunctionId] = hashingProxy.callHashFunction(\n            hashFunctionId,\n            profiles[identityId].nodeId\n        );\n    }\n\n    function profileExists(uint72 identityId) external view onlyContracts returns (bool) {\n        return keccak256(profiles[identityId].nodeId) != keccak256(bytes(\"\"));\n    }\n\n    function nodeIdRegistered(bytes calldata nodeId) external view returns (bool) {\n        return nodeIdsList[nodeId];\n    }\n\n    function transferTokens(address receiver, uint96 amount) external onlyContracts {\n        tokenContract.transfer(receiver, amount);\n    }\n\n    function _checkHub() internal view virtual {\n        require(hub.isContract(msg.sender), \"Fn can only be called by the hub\");\n    }\n}\n",
  "sourcePath": "/Users/waving/Desktop/OriginTrail/dkg-evm-module/contracts/storage/ProfileStorage.sol",
  "compiler": {
    "name": "solc",
    "version": "0.8.16+commit.07a7930e.Emscripten.clang"
  },
  "schemaVersion": "3.4.10",
  "updatedAt": "2022-12-05T20:50:40.527Z",
  "devdoc": {
    "kind": "dev",
    "methods": {},
    "version": 1
  },
  "userdoc": {
    "kind": "user",
    "methods": {},
    "version": 1
  }
}