{
  "contractName": "Profile",
  "abi": [
    {
      "inputs": [
        {
          "internalType": "address",
          "name": "hubAddress",
          "type": "address"
        }
      ],
      "stateMutability": "nonpayable",
      "type": "constructor"
    },
    {
      "anonymous": false,
      "inputs": [
        {
          "indexed": true,
          "internalType": "uint96",
          "name": "identityId",
          "type": "uint96"
        },
        {
          "indexed": false,
          "internalType": "bytes",
          "name": "nodeId",
          "type": "bytes"
        }
      ],
      "name": "ProfileCreated",
      "type": "event"
    },
    {
      "anonymous": false,
      "inputs": [
        {
          "indexed": true,
          "internalType": "uint96",
          "name": "identityId",
          "type": "uint96"
        },
        {
          "indexed": false,
          "internalType": "bytes",
          "name": "nodeId",
          "type": "bytes"
        },
        {
          "indexed": false,
          "internalType": "uint96",
          "name": "rewardWithdrawalAmount",
          "type": "uint96"
        },
        {
          "indexed": false,
          "internalType": "uint256",
          "name": "rewardWithdrawalTimestamp",
          "type": "uint256"
        }
      ],
      "name": "RewardWithdrawalInitiated",
      "type": "event"
    },
    {
      "anonymous": false,
      "inputs": [
        {
          "indexed": true,
          "internalType": "uint96",
          "name": "identityId",
          "type": "uint96"
        },
        {
          "indexed": false,
          "internalType": "bytes",
          "name": "nodeId",
          "type": "bytes"
        },
        {
          "indexed": false,
          "internalType": "uint96",
          "name": "withdrawnRewardAmount",
          "type": "uint96"
        }
      ],
      "name": "RewardWithdrawn",
      "type": "event"
    },
    {
      "anonymous": false,
      "inputs": [
        {
          "indexed": true,
          "internalType": "uint96",
          "name": "identityId",
          "type": "uint96"
        },
        {
          "indexed": true,
          "internalType": "bytes",
          "name": "nodeId",
          "type": "bytes"
        },
        {
          "indexed": false,
          "internalType": "uint96",
          "name": "frozenStakeAmount",
          "type": "uint96"
        }
      ],
      "name": "StakeFrozen",
      "type": "event"
    },
    {
      "anonymous": false,
      "inputs": [
        {
          "indexed": true,
          "internalType": "uint96",
          "name": "identityId",
          "type": "uint96"
        },
        {
          "indexed": false,
          "internalType": "bytes",
          "name": "nodeId",
          "type": "bytes"
        },
        {
          "indexed": false,
          "internalType": "uint96",
          "name": "stakedAmount",
          "type": "uint96"
        },
        {
          "indexed": false,
          "internalType": "uint96",
          "name": "newStake",
          "type": "uint96"
        }
      ],
      "name": "StakeIncreased",
      "type": "event"
    },
    {
      "anonymous": false,
      "inputs": [
        {
          "indexed": true,
          "internalType": "uint96",
          "name": "identityId",
          "type": "uint96"
        },
        {
          "indexed": false,
          "internalType": "bytes",
          "name": "nodeId",
          "type": "bytes"
        },
        {
          "indexed": false,
          "internalType": "uint96",
          "name": "unfrozenStakeAmount",
          "type": "uint96"
        }
      ],
      "name": "StakeUnfrozen",
      "type": "event"
    },
    {
      "anonymous": false,
      "inputs": [
        {
          "indexed": true,
          "internalType": "uint96",
          "name": "identityId",
          "type": "uint96"
        },
        {
          "indexed": false,
          "internalType": "bytes",
          "name": "nodeId",
          "type": "bytes"
        },
        {
          "indexed": false,
          "internalType": "uint96",
          "name": "stakeWithdrawalAmount",
          "type": "uint96"
        },
        {
          "indexed": false,
          "internalType": "uint256",
          "name": "stakeWithdrawalTimestamp",
          "type": "uint256"
        },
        {
          "indexed": false,
          "internalType": "uint96",
          "name": "newStake",
          "type": "uint96"
        }
      ],
      "name": "StakeWithdrawalInitiated",
      "type": "event"
    },
    {
      "anonymous": false,
      "inputs": [
        {
          "indexed": true,
          "internalType": "uint96",
          "name": "identityId",
          "type": "uint96"
        },
        {
          "indexed": false,
          "internalType": "bytes",
          "name": "nodeId",
          "type": "bytes"
        },
        {
          "indexed": false,
          "internalType": "uint96",
          "name": "withdrawnStakeAmount",
          "type": "uint96"
        }
      ],
      "name": "StakeWithdrawn",
      "type": "event"
    },
    {
      "inputs": [],
      "name": "hub",
      "outputs": [
        {
          "internalType": "contract Hub",
          "name": "",
          "type": "address"
        }
      ],
      "stateMutability": "view",
      "type": "function"
    },
    {
      "inputs": [
        {
          "internalType": "address",
          "name": "adminWallet",
          "type": "address"
        },
        {
          "internalType": "bytes",
          "name": "nodeId",
          "type": "bytes"
        },
        {
          "internalType": "uint96",
          "name": "initialAsk",
          "type": "uint96"
        },
        {
          "internalType": "uint96",
          "name": "initialStake",
          "type": "uint96"
        }
      ],
      "name": "createProfile",
      "outputs": [],
      "stateMutability": "nonpayable",
      "type": "function"
    },
    {
      "inputs": [
        {
          "internalType": "uint96",
          "name": "identityId",
          "type": "uint96"
        },
        {
          "internalType": "uint8",
          "name": "hashFunctionId",
          "type": "uint8"
        }
      ],
      "name": "addNewNodeIdHash",
      "outputs": [],
      "stateMutability": "nonpayable",
      "type": "function"
    },
    {
      "inputs": [
        {
          "internalType": "uint96",
          "name": "identityId",
          "type": "uint96"
        },
        {
          "internalType": "uint96",
          "name": "amount",
          "type": "uint96"
        }
      ],
      "name": "increaseStake",
      "outputs": [],
      "stateMutability": "nonpayable",
      "type": "function"
    },
    {
      "inputs": [
        {
          "internalType": "uint96",
          "name": "identityId",
          "type": "uint96"
        },
        {
          "internalType": "uint96",
          "name": "amount",
          "type": "uint96"
        }
      ],
      "name": "startStakeWithdrawal",
      "outputs": [],
      "stateMutability": "nonpayable",
      "type": "function"
    },
    {
      "inputs": [
        {
          "internalType": "uint96",
          "name": "identityId",
          "type": "uint96"
        }
      ],
      "name": "withdrawFreeStake",
      "outputs": [],
      "stateMutability": "nonpayable",
      "type": "function"
    },
    {
      "inputs": [
        {
          "internalType": "uint96",
          "name": "identityId",
          "type": "uint96"
        }
      ],
      "name": "stakeReward",
      "outputs": [],
      "stateMutability": "nonpayable",
      "type": "function"
    },
    {
      "inputs": [
        {
          "internalType": "uint96",
          "name": "identityId",
          "type": "uint96"
        }
      ],
      "name": "startRewardWithdrawal",
      "outputs": [],
      "stateMutability": "nonpayable",
      "type": "function"
    },
    {
      "inputs": [
        {
          "internalType": "uint96",
          "name": "identityId",
          "type": "uint96"
        }
      ],
      "name": "withdrawFreeReward",
      "outputs": [],
      "stateMutability": "nonpayable",
      "type": "function"
    }
  ],
  "bytecode": "0x60806040523480156200001157600080fd5b5060405162004cd538038062004cd5833981810160405281019062000037919062000122565b600073ffffffffffffffffffffffffffffffffffffffff168173ffffffffffffffffffffffffffffffffffffffff16036200007157600080fd5b806000806101000a81548173ffffffffffffffffffffffffffffffffffffffff021916908373ffffffffffffffffffffffffffffffffffffffff1602179055505062000154565b600080fd5b600073ffffffffffffffffffffffffffffffffffffffff82169050919050565b6000620000ea82620000bd565b9050919050565b620000fc81620000dd565b81146200010857600080fd5b50565b6000815190506200011c81620000f1565b92915050565b6000602082840312156200013b576200013a620000b8565b5b60006200014b848285016200010b565b91505092915050565b614b7180620001646000396000f3fe608060405234801561001057600080fd5b50600436106100935760003560e01c80634f03cd1a116100665780634f03cd1a1461010a57806373e38df8146101265780639cac9df014610142578063c4008d831461015e578063cd6927911461017a57610093565b8063365a86fc1461009857806336bc2494146100b65780633be651fa146100d25780634acbd388146100ee575b600080fd5b6100a0610196565b6040516100ad9190613731565b60405180910390f35b6100d060048036038101906100cb91906137a4565b6101ba565b005b6100ec60048036038101906100e791906137a4565b610703565b005b610108600480360381019061010391906137a4565b610ef4565b005b610124600480360381019061011f91906137d1565b611597565b005b610140600480360381019061013b919061384a565b611f06565b005b61015c600480360381019061015791906137a4565b61218b565b005b610178600480360381019061017391906137d1565b6126d5565b005b610194600480360381019061018f9190613a0e565b61304b565b005b60008054906101000a900473ffffffffffffffffffffffffffffffffffffffff1681565b8060008054906101000a900473ffffffffffffffffffffffffffffffffffffffff1673ffffffffffffffffffffffffffffffffffffffff166304433bbc6040518163ffffffff1660e01b815260040161021290613aee565b602060405180830381865afa15801561022f573d6000803e3d6000fd5b505050506040513d601f19601f820116820180604052508101906102539190613b23565b73ffffffffffffffffffffffffffffffffffffffff1663d55bbcac82336040516020016102809190613b98565b6040516020818303038152906040528051906020012060016040518463ffffffff1660e01b81526004016102b693929190613c20565b602060405180830381865afa1580156102d3573d6000803e3d6000fd5b505050506040513d601f19601f820116820180604052508101906102f79190613c8f565b610336576040517f08c379a000000000000000000000000000000000000000000000000000000000815260040161032d90613d2e565b60405180910390fd5b60008060009054906101000a900473ffffffffffffffffffffffffffffffffffffffff1673ffffffffffffffffffffffffffffffffffffffff166304433bbc6040518163ffffffff1660e01b815260040161039090613d9a565b602060405180830381865afa1580156103ad573d6000803e3d6000fd5b505050506040513d601f19601f820116820180604052508101906103d19190613b23565b905060008173ffffffffffffffffffffffffffffffffffffffff1662ada70b856040518263ffffffff1660e01b815260040161040d9190613dba565b602060405180830381865afa15801561042a573d6000803e3d6000fd5b505050506040513d601f19601f8201168201806040525081019061044e9190613dea565b90506000816bffffffffffffffffffffffff16116104a1576040517f08c379a000000000000000000000000000000000000000000000000000000000815260040161049890613e63565b60405180910390fd5b428273ffffffffffffffffffffffffffffffffffffffff1663115ab48e866040518263ffffffff1660e01b81526004016104db9190613dba565b602060405180830381865afa1580156104f8573d6000803e3d6000fd5b505050506040513d601f19601f8201168201806040525081019061051c9190613eaf565b1061055c576040517f08c379a000000000000000000000000000000000000000000000000000000000815260040161055390613f4e565b60405180910390fd5b8173ffffffffffffffffffffffffffffffffffffffff1663a793e8218560006040518363ffffffff1660e01b8152600401610598929190613fa9565b600060405180830381600087803b1580156105b257600080fd5b505af11580156105c6573d6000803e3d6000fd5b505050508173ffffffffffffffffffffffffffffffffffffffff1663abe979e133836040518363ffffffff1660e01b8152600401610605929190613fe1565b600060405180830381600087803b15801561061f57600080fd5b505af1158015610633573d6000803e3d6000fd5b50505050836bffffffffffffffffffffffff167f696603902b219a6f4b2f7d48f2193f2211705a9064a633a6c91fcfd9e3ed9a678373ffffffffffffffffffffffffffffffffffffffff16636c5c281c876040518263ffffffff1660e01b81526004016106a09190613dba565b600060405180830381865afa1580156106bd573d6000803e3d6000fd5b505050506040513d6000823e3d601f19601f820116820180604052508101906106e691906140ad565b836040516106f592919061414b565b60405180910390a250505050565b8060008054906101000a900473ffffffffffffffffffffffffffffffffffffffff1673ffffffffffffffffffffffffffffffffffffffff166304433bbc6040518163ffffffff1660e01b815260040161075b90613aee565b602060405180830381865afa158015610778573d6000803e3d6000fd5b505050506040513d601f19601f8201168201806040525081019061079c9190613b23565b73ffffffffffffffffffffffffffffffffffffffff1663d55bbcac82336040516020016107c99190613b98565b6040516020818303038152906040528051906020012060016040518463ffffffff1660e01b81526004016107ff93929190613c20565b602060405180830381865afa15801561081c573d6000803e3d6000fd5b505050506040513d601f19601f820116820180604052508101906108409190613c8f565b61087f576040517f08c379a000000000000000000000000000000000000000000000000000000000815260040161087690613d2e565b60405180910390fd5b60008060009054906101000a900473ffffffffffffffffffffffffffffffffffffffff1673ffffffffffffffffffffffffffffffffffffffff166304433bbc6040518163ffffffff1660e01b81526004016108d990613d9a565b602060405180830381865afa1580156108f6573d6000803e3d6000fd5b505050506040513d601f19601f8201168201806040525081019061091a9190613b23565b905060008173ffffffffffffffffffffffffffffffffffffffff166374cb0edb856040518263ffffffff1660e01b81526004016109579190613dba565b602060405180830381865afa158015610974573d6000803e3d6000fd5b505050506040513d601f19601f820116820180604052508101906109989190613dea565b90506000816bffffffffffffffffffffffff16116109eb576040517f08c379a00000000000000000000000000000000000000000000000000000000081526004016109e2906141c7565b60405180910390fd5b60008273ffffffffffffffffffffffffffffffffffffffff16631860bd8e866040518263ffffffff1660e01b8152600401610a269190613dba565b602060405180830381865afa158015610a43573d6000803e3d6000fd5b505050506040513d601f19601f82011682018060405250810190610a679190613dea565b905060008282610a779190614216565b90508373ffffffffffffffffffffffffffffffffffffffff1663a4f906238760006040518363ffffffff1660e01b8152600401610ab5929190613fa9565b600060405180830381600087803b158015610acf57600080fd5b505af1158015610ae3573d6000803e3d6000fd5b505050508373ffffffffffffffffffffffffffffffffffffffff16636dccf56d87836040518363ffffffff1660e01b8152600401610b22929190614258565b600060405180830381600087803b158015610b3c57600080fd5b505af1158015610b50573d6000803e3d6000fd5b5050505060008060009054906101000a900473ffffffffffffffffffffffffffffffffffffffff1673ffffffffffffffffffffffffffffffffffffffff166304433bbc6040518163ffffffff1660e01b8152600401610bae906142cd565b602060405180830381865afa158015610bcb573d6000803e3d6000fd5b505050506040513d601f19601f82011682018060405250810190610bef9190613b23565b90508073ffffffffffffffffffffffffffffffffffffffff1663ec5ffac26040518163ffffffff1660e01b8152600401602060405180830381865afa158015610c3c573d6000803e3d6000fd5b505050506040513d601f19601f82011682018060405250810190610c609190613dea565b6bffffffffffffffffffffffff16836bffffffffffffffffffffffff16108015610d1457508073ffffffffffffffffffffffffffffffffffffffff1663ec5ffac26040518163ffffffff1660e01b8152600401602060405180830381865afa158015610cd0573d6000803e3d6000fd5b505050506040513d601f19601f82011682018060405250810190610cf49190613dea565b6bffffffffffffffffffffffff16826bffffffffffffffffffffffff1610155b15610e235760008060009054906101000a900473ffffffffffffffffffffffffffffffffffffffff1673ffffffffffffffffffffffffffffffffffffffff166304433bbc6040518163ffffffff1660e01b8152600401610d7390614339565b602060405180830381865afa158015610d90573d6000803e3d6000fd5b505050506040513d601f19601f82011682018060405250810190610db49190613b23565b90508073ffffffffffffffffffffffffffffffffffffffff1663e1131caa896040518263ffffffff1660e01b8152600401610def9190613dba565b600060405180830381600087803b158015610e0957600080fd5b505af1158015610e1d573d6000803e3d6000fd5b50505050505b866bffffffffffffffffffffffff167f37e067ca3832b6f9836fc2062e12d2fd130dbb768d8cc567ad3d4009cff673878673ffffffffffffffffffffffffffffffffffffffff16636c5c281c8a6040518263ffffffff1660e01b8152600401610e8c9190613dba565b600060405180830381865afa158015610ea9573d6000803e3d6000fd5b505050506040513d6000823e3d601f19601f82011682018060405250810190610ed291906140ad565b8685604051610ee393929190614359565b60405180910390a250505050505050565b8060008054906101000a900473ffffffffffffffffffffffffffffffffffffffff1673ffffffffffffffffffffffffffffffffffffffff166304433bbc6040518163ffffffff1660e01b8152600401610f4c90613aee565b602060405180830381865afa158015610f69573d6000803e3d6000fd5b505050506040513d601f19601f82011682018060405250810190610f8d9190613b23565b73ffffffffffffffffffffffffffffffffffffffff1663d55bbcac8233604051602001610fba9190613b98565b6040516020818303038152906040528051906020012060016040518463ffffffff1660e01b8152600401610ff093929190613c20565b602060405180830381865afa15801561100d573d6000803e3d6000fd5b505050506040513d601f19601f820116820180604052508101906110319190613c8f565b611070576040517f08c379a000000000000000000000000000000000000000000000000000000000815260040161106790613d2e565b60405180910390fd5b60008060009054906101000a900473ffffffffffffffffffffffffffffffffffffffff1673ffffffffffffffffffffffffffffffffffffffff166304433bbc6040518163ffffffff1660e01b81526004016110ca90613d9a565b602060405180830381865afa1580156110e7573d6000803e3d6000fd5b505050506040513d601f19601f8201168201806040525081019061110b9190613b23565b905060008173ffffffffffffffffffffffffffffffffffffffff166374cb0edb856040518263ffffffff1660e01b81526004016111489190613dba565b602060405180830381865afa158015611165573d6000803e3d6000fd5b505050506040513d601f19601f820116820180604052508101906111899190613dea565b90506000816bffffffffffffffffffffffff16116111dc576040517f08c379a00000000000000000000000000000000000000000000000000000000081526004016111d3906143e3565b60405180910390fd5b60008060009054906101000a900473ffffffffffffffffffffffffffffffffffffffff1673ffffffffffffffffffffffffffffffffffffffff166304433bbc6040518163ffffffff1660e01b8152600401611236906142cd565b602060405180830381865afa158015611253573d6000803e3d6000fd5b505050506040513d601f19601f820116820180604052508101906112779190613b23565b90508273ffffffffffffffffffffffffffffffffffffffff1663a4f906238660006040518363ffffffff1660e01b81526004016112b5929190613fa9565b600060405180830381600087803b1580156112cf57600080fd5b505af11580156112e3573d6000803e3d6000fd5b505050508273ffffffffffffffffffffffffffffffffffffffff1663a793e82186848673ffffffffffffffffffffffffffffffffffffffff1662ada70b8a6040518263ffffffff1660e01b815260040161133d9190613dba565b602060405180830381865afa15801561135a573d6000803e3d6000fd5b505050506040513d601f19601f8201168201806040525081019061137e9190613dea565b6113889190614216565b6040518363ffffffff1660e01b81526004016113a5929190614258565b600060405180830381600087803b1580156113bf57600080fd5b505af11580156113d3573d6000803e3d6000fd5b5050505060008173ffffffffffffffffffffffffffffffffffffffff1663f1b776f56040518163ffffffff1660e01b8152600401602060405180830381865afa158015611424573d6000803e3d6000fd5b505050506040513d601f19601f82011682018060405250810190611448919061443e565b62ffffff1642611458919061446b565b90508373ffffffffffffffffffffffffffffffffffffffff166394fceaeb87836040518363ffffffff1660e01b81526004016114959291906144d0565b600060405180830381600087803b1580156114af57600080fd5b505af11580156114c3573d6000803e3d6000fd5b50505050856bffffffffffffffffffffffff167f2e482f3d9b1efd3333d331fd23b721c19de5d3de446344037454f078fad6c80a8573ffffffffffffffffffffffffffffffffffffffff16636c5c281c896040518263ffffffff1660e01b81526004016115309190613dba565b600060405180830381865afa15801561154d573d6000803e3d6000fd5b505050506040513d6000823e3d601f19601f8201168201806040525081019061157691906140ad565b8584604051611587939291906144f9565b60405180910390a2505050505050565b8160008054906101000a900473ffffffffffffffffffffffffffffffffffffffff1673ffffffffffffffffffffffffffffffffffffffff166304433bbc6040518163ffffffff1660e01b81526004016115ef90613aee565b602060405180830381865afa15801561160c573d6000803e3d6000fd5b505050506040513d601f19601f820116820180604052508101906116309190613b23565b73ffffffffffffffffffffffffffffffffffffffff1663d55bbcac823360405160200161165d9190613b98565b6040516020818303038152906040528051906020012060016040518463ffffffff1660e01b815260040161169393929190613c20565b602060405180830381865afa1580156116b0573d6000803e3d6000fd5b505050506040513d601f19601f820116820180604052508101906116d49190613c8f565b611713576040517f08c379a000000000000000000000000000000000000000000000000000000000815260040161170a90613d2e565b60405180910390fd5b60008060009054906101000a900473ffffffffffffffffffffffffffffffffffffffff1673ffffffffffffffffffffffffffffffffffffffff166304433bbc6040518163ffffffff1660e01b815260040161176d90614583565b602060405180830381865afa15801561178a573d6000803e3d6000fd5b505050506040513d601f19601f820116820180604052508101906117ae9190613b23565b905060008060009054906101000a900473ffffffffffffffffffffffffffffffffffffffff1673ffffffffffffffffffffffffffffffffffffffff166304433bbc6040518163ffffffff1660e01b815260040161180a90613d9a565b602060405180830381865afa158015611827573d6000803e3d6000fd5b505050506040513d601f19601f8201168201806040525081019061184b9190613b23565b9050836bffffffffffffffffffffffff168273ffffffffffffffffffffffffffffffffffffffff1663dd62ed3e33306040518363ffffffff1660e01b81526004016118979291906145a3565b602060405180830381865afa1580156118b4573d6000803e3d6000fd5b505050506040513d601f19601f820116820180604052508101906118d89190613eaf565b1015611919576040517f08c379a00000000000000000000000000000000000000000000000000000000081526004016119109061463e565b60405180910390fd5b836bffffffffffffffffffffffff168273ffffffffffffffffffffffffffffffffffffffff166370a08231336040518263ffffffff1660e01b8152600401611961919061465e565b602060405180830381865afa15801561197e573d6000803e3d6000fd5b505050506040513d601f19601f820116820180604052508101906119a29190613eaf565b10156119e3576040517f08c379a00000000000000000000000000000000000000000000000000000000081526004016119da906146c5565b60405180910390fd5b600081905060008173ffffffffffffffffffffffffffffffffffffffff16631860bd8e886040518263ffffffff1660e01b8152600401611a239190613dba565b602060405180830381865afa158015611a40573d6000803e3d6000fd5b505050506040513d601f19601f82011682018060405250810190611a649190613dea565b905060008682611a749190614216565b90508273ffffffffffffffffffffffffffffffffffffffff16636dccf56d89836040518363ffffffff1660e01b8152600401611ab1929190614258565b600060405180830381600087803b158015611acb57600080fd5b505af1158015611adf573d6000803e3d6000fd5b505050508473ffffffffffffffffffffffffffffffffffffffff166323b872dd33868a6040518463ffffffff1660e01b8152600401611b2093929190614716565b6020604051808303816000875af1158015611b3f573d6000803e3d6000fd5b505050506040513d601f19601f82011682018060405250810190611b639190613c8f565b5060008060009054906101000a900473ffffffffffffffffffffffffffffffffffffffff1673ffffffffffffffffffffffffffffffffffffffff166304433bbc6040518163ffffffff1660e01b8152600401611bbe906142cd565b602060405180830381865afa158015611bdb573d6000803e3d6000fd5b505050506040513d601f19601f82011682018060405250810190611bff9190613b23565b90508073ffffffffffffffffffffffffffffffffffffffff1663ec5ffac26040518163ffffffff1660e01b8152600401602060405180830381865afa158015611c4c573d6000803e3d6000fd5b505050506040513d601f19601f82011682018060405250810190611c709190613dea565b6bffffffffffffffffffffffff16836bffffffffffffffffffffffff16108015611d2457508073ffffffffffffffffffffffffffffffffffffffff1663ec5ffac26040518163ffffffff1660e01b8152600401602060405180830381865afa158015611ce0573d6000803e3d6000fd5b505050506040513d601f19601f82011682018060405250810190611d049190613dea565b6bffffffffffffffffffffffff16826bffffffffffffffffffffffff1610155b15611e335760008060009054906101000a900473ffffffffffffffffffffffffffffffffffffffff1673ffffffffffffffffffffffffffffffffffffffff166304433bbc6040518163ffffffff1660e01b8152600401611d8390614339565b602060405180830381865afa158015611da0573d6000803e3d6000fd5b505050506040513d601f19601f82011682018060405250810190611dc49190613b23565b90508073ffffffffffffffffffffffffffffffffffffffff1663e1131caa8b6040518263ffffffff1660e01b8152600401611dff9190613dba565b600060405180830381600087803b158015611e1957600080fd5b505af1158015611e2d573d6000803e3d6000fd5b50505050505b886bffffffffffffffffffffffff167f37e067ca3832b6f9836fc2062e12d2fd130dbb768d8cc567ad3d4009cff673878573ffffffffffffffffffffffffffffffffffffffff16636c5c281c8c6040518263ffffffff1660e01b8152600401611e9c9190613dba565b600060405180830381865afa158015611eb9573d6000803e3d6000fd5b505050506040513d6000823e3d601f19601f82011682018060405250810190611ee291906140ad565b8a85604051611ef393929190614359565b60405180910390a2505050505050505050565b8160008054906101000a900473ffffffffffffffffffffffffffffffffffffffff1673ffffffffffffffffffffffffffffffffffffffff166304433bbc6040518163ffffffff1660e01b8152600401611f5e90613aee565b602060405180830381865afa158015611f7b573d6000803e3d6000fd5b505050506040513d601f19601f82011682018060405250810190611f9f9190613b23565b73ffffffffffffffffffffffffffffffffffffffff1663d55bbcac8233604051602001611fcc9190613b98565b6040516020818303038152906040528051906020012060026040518463ffffffff1660e01b815260040161200293929190614788565b602060405180830381865afa15801561201f573d6000803e3d6000fd5b505050506040513d601f19601f820116820180604052508101906120439190613c8f565b612082576040517f08c379a000000000000000000000000000000000000000000000000000000000815260040161207990614857565b60405180910390fd5b60008054906101000a900473ffffffffffffffffffffffffffffffffffffffff1673ffffffffffffffffffffffffffffffffffffffff166304433bbc6040518163ffffffff1660e01b81526004016120d990613d9a565b602060405180830381865afa1580156120f6573d6000803e3d6000fd5b505050506040513d601f19601f8201168201806040525081019061211a9190613b23565b73ffffffffffffffffffffffffffffffffffffffff166316b1f15284846040518363ffffffff1660e01b8152600401612154929190614886565b600060405180830381600087803b15801561216e57600080fd5b505af1158015612182573d6000803e3d6000fd5b50505050505050565b8060008054906101000a900473ffffffffffffffffffffffffffffffffffffffff1673ffffffffffffffffffffffffffffffffffffffff166304433bbc6040518163ffffffff1660e01b81526004016121e390613aee565b602060405180830381865afa158015612200573d6000803e3d6000fd5b505050506040513d601f19601f820116820180604052508101906122249190613b23565b73ffffffffffffffffffffffffffffffffffffffff1663d55bbcac82336040516020016122519190613b98565b6040516020818303038152906040528051906020012060016040518463ffffffff1660e01b815260040161228793929190613c20565b602060405180830381865afa1580156122a4573d6000803e3d6000fd5b505050506040513d601f19601f820116820180604052508101906122c89190613c8f565b612307576040517f08c379a00000000000000000000000000000000000000000000000000000000081526004016122fe90613d2e565b60405180910390fd5b60008060009054906101000a900473ffffffffffffffffffffffffffffffffffffffff1673ffffffffffffffffffffffffffffffffffffffff166304433bbc6040518163ffffffff1660e01b815260040161236190613d9a565b602060405180830381865afa15801561237e573d6000803e3d6000fd5b505050506040513d601f19601f820116820180604052508101906123a29190613b23565b905060008173ffffffffffffffffffffffffffffffffffffffff16636b1374f0856040518263ffffffff1660e01b81526004016123df9190613dba565b602060405180830381865afa1580156123fc573d6000803e3d6000fd5b505050506040513d601f19601f820116820180604052508101906124209190613dea565b90506000816bffffffffffffffffffffffff1611612473576040517f08c379a000000000000000000000000000000000000000000000000000000000815260040161246a90613e63565b60405180910390fd5b428273ffffffffffffffffffffffffffffffffffffffff1663832c7bc1866040518263ffffffff1660e01b81526004016124ad9190613dba565b602060405180830381865afa1580156124ca573d6000803e3d6000fd5b505050506040513d601f19601f820116820180604052508101906124ee9190613eaf565b1061252e576040517f08c379a000000000000000000000000000000000000000000000000000000000815260040161252590613f4e565b60405180910390fd5b8173ffffffffffffffffffffffffffffffffffffffff1663abe979e133836040518363ffffffff1660e01b8152600401612569929190613fe1565b600060405180830381600087803b15801561258357600080fd5b505af1158015612597573d6000803e3d6000fd5b505050508173ffffffffffffffffffffffffffffffffffffffff1663769653e68560006040518363ffffffff1660e01b81526004016125d7929190613fa9565b600060405180830381600087803b1580156125f157600080fd5b505af1158015612605573d6000803e3d6000fd5b50505050836bffffffffffffffffffffffff167f4f7befd4fda5d3f3cbcd74b40135ab0f162a9e0c40f80a745c80d50d97034eea8373ffffffffffffffffffffffffffffffffffffffff16636c5c281c876040518263ffffffff1660e01b81526004016126729190613dba565b600060405180830381865afa15801561268f573d6000803e3d6000fd5b505050506040513d6000823e3d601f19601f820116820180604052508101906126b891906140ad565b836040516126c792919061414b565b60405180910390a250505050565b8160008054906101000a900473ffffffffffffffffffffffffffffffffffffffff1673ffffffffffffffffffffffffffffffffffffffff166304433bbc6040518163ffffffff1660e01b815260040161272d90613aee565b602060405180830381865afa15801561274a573d6000803e3d6000fd5b505050506040513d601f19601f8201168201806040525081019061276e9190613b23565b73ffffffffffffffffffffffffffffffffffffffff1663d55bbcac823360405160200161279b9190613b98565b6040516020818303038152906040528051906020012060016040518463ffffffff1660e01b81526004016127d193929190613c20565b602060405180830381865afa1580156127ee573d6000803e3d6000fd5b505050506040513d601f19601f820116820180604052508101906128129190613c8f565b612851576040517f08c379a000000000000000000000000000000000000000000000000000000000815260040161284890613d2e565b60405180910390fd5b60008060009054906101000a900473ffffffffffffffffffffffffffffffffffffffff1673ffffffffffffffffffffffffffffffffffffffff166304433bbc6040518163ffffffff1660e01b81526004016128ab90613d9a565b602060405180830381865afa1580156128c8573d6000803e3d6000fd5b505050506040513d601f19601f820116820180604052508101906128ec9190613b23565b90508073ffffffffffffffffffffffffffffffffffffffff16631860bd8e856040518263ffffffff1660e01b81526004016129279190613dba565b602060405180830381865afa158015612944573d6000803e3d6000fd5b505050506040513d601f19601f820116820180604052508101906129689190613dea565b6bffffffffffffffffffffffff16836bffffffffffffffffffffffff1611156129c6576040517f08c379a00000000000000000000000000000000000000000000000000000000081526004016129bd90614921565b60405180910390fd5b60008173ffffffffffffffffffffffffffffffffffffffff16631860bd8e866040518263ffffffff1660e01b8152600401612a019190613dba565b602060405180830381865afa158015612a1e573d6000803e3d6000fd5b505050506040513d601f19601f82011682018060405250810190612a429190613dea565b905060008482612a529190614941565b90506000858473ffffffffffffffffffffffffffffffffffffffff16636b1374f0896040518263ffffffff1660e01b8152600401612a909190613dba565b602060405180830381865afa158015612aad573d6000803e3d6000fd5b505050506040513d601f19601f82011682018060405250810190612ad19190613dea565b612adb9190614216565b905060008060009054906101000a900473ffffffffffffffffffffffffffffffffffffffff1673ffffffffffffffffffffffffffffffffffffffff166304433bbc6040518163ffffffff1660e01b8152600401612b37906142cd565b602060405180830381865afa158015612b54573d6000803e3d6000fd5b505050506040513d601f19601f82011682018060405250810190612b789190613b23565b90508473ffffffffffffffffffffffffffffffffffffffff16636dccf56d89856040518363ffffffff1660e01b8152600401612bb5929190614258565b600060405180830381600087803b158015612bcf57600080fd5b505af1158015612be3573d6000803e3d6000fd5b505050508473ffffffffffffffffffffffffffffffffffffffff1663769653e689846040518363ffffffff1660e01b8152600401612c22929190614258565b600060405180830381600087803b158015612c3c57600080fd5b505af1158015612c50573d6000803e3d6000fd5b5050505060008173ffffffffffffffffffffffffffffffffffffffff1663151db1b96040518163ffffffff1660e01b8152600401602060405180830381865afa158015612ca1573d6000803e3d6000fd5b505050506040513d601f19601f82011682018060405250810190612cc5919061443e565b62ffffff1642612cd5919061446b565b90508573ffffffffffffffffffffffffffffffffffffffff16634f3cc7c08a836040518363ffffffff1660e01b8152600401612d129291906144d0565b600060405180830381600087803b158015612d2c57600080fd5b505af1158015612d40573d6000803e3d6000fd5b505050508173ffffffffffffffffffffffffffffffffffffffff1663ec5ffac26040518163ffffffff1660e01b8152600401602060405180830381865afa158015612d8f573d6000803e3d6000fd5b505050506040513d601f19601f82011682018060405250810190612db39190613dea565b6bffffffffffffffffffffffff16856bffffffffffffffffffffffff1610158015612e6757508173ffffffffffffffffffffffffffffffffffffffff1663ec5ffac26040518163ffffffff1660e01b8152600401602060405180830381865afa158015612e24573d6000803e3d6000fd5b505050506040513d601f19601f82011682018060405250810190612e489190613dea565b6bffffffffffffffffffffffff16846bffffffffffffffffffffffff16105b15612f765760008060009054906101000a900473ffffffffffffffffffffffffffffffffffffffff1673ffffffffffffffffffffffffffffffffffffffff166304433bbc6040518163ffffffff1660e01b8152600401612ec690614339565b602060405180830381865afa158015612ee3573d6000803e3d6000fd5b505050506040513d601f19601f82011682018060405250810190612f079190613b23565b90508073ffffffffffffffffffffffffffffffffffffffff1663796f11aa8b6040518263ffffffff1660e01b8152600401612f429190613dba565b600060405180830381600087803b158015612f5c57600080fd5b505af1158015612f70573d6000803e3d6000fd5b50505050505b886bffffffffffffffffffffffff167f1a03cee1837345f730ee178e2bb5e6e4ad80f4b442144e1dd724fa8bbec65e178773ffffffffffffffffffffffffffffffffffffffff16636c5c281c8c6040518263ffffffff1660e01b8152600401612fdf9190613dba565b600060405180830381865afa158015612ffc573d6000803e3d6000fd5b505050506040513d6000823e3d601f19601f8201168201806040525081019061302591906140ad565b8584886040516130389493929190614975565b60405180910390a2505050505050505050565b60008060009054906101000a900473ffffffffffffffffffffffffffffffffffffffff1673ffffffffffffffffffffffffffffffffffffffff166304433bbc6040518163ffffffff1660e01b81526004016130a590614583565b602060405180830381865afa1580156130c2573d6000803e3d6000fd5b505050506040513d601f19601f820116820180604052508101906130e69190613b23565b905060008060009054906101000a900473ffffffffffffffffffffffffffffffffffffffff1673ffffffffffffffffffffffffffffffffffffffff166304433bbc6040518163ffffffff1660e01b815260040161314290613d9a565b602060405180830381865afa15801561315f573d6000803e3d6000fd5b505050506040513d601f19601f820116820180604052508101906131839190613b23565b9050826bffffffffffffffffffffffff168273ffffffffffffffffffffffffffffffffffffffff1663dd62ed3e33306040518363ffffffff1660e01b81526004016131cf9291906145a3565b602060405180830381865afa1580156131ec573d6000803e3d6000fd5b505050506040513d601f19601f820116820180604052508101906132109190613eaf565b1015613251576040517f08c379a000000000000000000000000000000000000000000000000000000000815260040161324890614a33565b60405180910390fd5b826bffffffffffffffffffffffff168273ffffffffffffffffffffffffffffffffffffffff166370a08231336040518263ffffffff1660e01b8152600401613299919061465e565b602060405180830381865afa1580156132b6573d6000803e3d6000fd5b505050506040513d601f19601f820116820180604052508101906132da9190613eaf565b101561331b576040517f08c379a000000000000000000000000000000000000000000000000000000000815260040161331290614a9f565b60405180910390fd5b8173ffffffffffffffffffffffffffffffffffffffff166323b872dd3383866040518463ffffffff1660e01b815260040161335893929190614716565b6020604051808303816000875af1158015613377573d6000803e3d6000fd5b505050506040513d601f19601f8201168201806040525081019061339b9190613c8f565b50600081905060008173ffffffffffffffffffffffffffffffffffffffff1663d9e2bcbc338a8a8a8a6040518663ffffffff1660e01b81526004016133e4959493929190614abf565b6020604051808303816000875af1158015613403573d6000803e3d6000fd5b505050506040513d601f19601f820116820180604052508101906134279190613dea565b905060008060009054906101000a900473ffffffffffffffffffffffffffffffffffffffff1673ffffffffffffffffffffffffffffffffffffffff166304433bbc6040518163ffffffff1660e01b8152600401613483906142cd565b602060405180830381865afa1580156134a0573d6000803e3d6000fd5b505050506040513d601f19601f820116820180604052508101906134c49190613b23565b90508073ffffffffffffffffffffffffffffffffffffffff1663ec5ffac26040518163ffffffff1660e01b8152600401602060405180830381865afa158015613511573d6000803e3d6000fd5b505050506040513d601f19601f820116820180604052508101906135359190613dea565b6bffffffffffffffffffffffff16866bffffffffffffffffffffffff16106136615760008060009054906101000a900473ffffffffffffffffffffffffffffffffffffffff1673ffffffffffffffffffffffffffffffffffffffff166304433bbc6040518163ffffffff1660e01b81526004016135b190614339565b602060405180830381865afa1580156135ce573d6000803e3d6000fd5b505050506040513d601f19601f820116820180604052508101906135f29190613b23565b90508073ffffffffffffffffffffffffffffffffffffffff1663e1131caa846040518263ffffffff1660e01b815260040161362d9190613dba565b600060405180830381600087803b15801561364757600080fd5b505af115801561365b573d6000803e3d6000fd5b50505050505b816bffffffffffffffffffffffff167f190cf66c55277e9271ead73f93cfce93d72f2a89276712a2f6bcf08ef4389b848960405161369f9190614b19565b60405180910390a2505050505050505050565b600073ffffffffffffffffffffffffffffffffffffffff82169050919050565b6000819050919050565b60006136f76136f26136ed846136b2565b6136d2565b6136b2565b9050919050565b6000613709826136dc565b9050919050565b600061371b826136fe565b9050919050565b61372b81613710565b82525050565b60006020820190506137466000830184613722565b92915050565b6000604051905090565b600080fd5b600080fd5b60006bffffffffffffffffffffffff82169050919050565b61378181613760565b811461378c57600080fd5b50565b60008135905061379e81613778565b92915050565b6000602082840312156137ba576137b9613756565b5b60006137c88482850161378f565b91505092915050565b600080604083850312156137e8576137e7613756565b5b60006137f68582860161378f565b92505060206138078582860161378f565b9150509250929050565b600060ff82169050919050565b61382781613811565b811461383257600080fd5b50565b6000813590506138448161381e565b92915050565b6000806040838503121561386157613860613756565b5b600061386f8582860161378f565b925050602061388085828601613835565b9150509250929050565b6000613895826136b2565b9050919050565b6138a58161388a565b81146138b057600080fd5b50565b6000813590506138c28161389c565b92915050565b600080fd5b600080fd5b6000601f19601f8301169050919050565b7f4e487b7100000000000000000000000000000000000000000000000000000000600052604160045260246000fd5b61391b826138d2565b810181811067ffffffffffffffff8211171561393a576139396138e3565b5b80604052505050565b600061394d61374c565b90506139598282613912565b919050565b600067ffffffffffffffff821115613979576139786138e3565b5b613982826138d2565b9050602081019050919050565b82818337600083830152505050565b60006139b16139ac8461395e565b613943565b9050828152602081018484840111156139cd576139cc6138cd565b5b6139d884828561398f565b509392505050565b600082601f8301126139f5576139f46138c8565b5b8135613a0584826020860161399e565b91505092915050565b60008060008060808587031215613a2857613a27613756565b5b6000613a36878288016138b3565b945050602085013567ffffffffffffffff811115613a5757613a5661375b565b5b613a63878288016139e0565b9350506040613a748782880161378f565b9250506060613a858782880161378f565b91505092959194509250565b600082825260208201905092915050565b7f4964656e7469747953746f726167650000000000000000000000000000000000600082015250565b6000613ad8600f83613a91565b9150613ae382613aa2565b602082019050919050565b60006020820190508181036000830152613b0781613acb565b9050919050565b600081519050613b1d8161389c565b92915050565b600060208284031215613b3957613b38613756565b5b6000613b4784828501613b0e565b91505092915050565b60008160601b9050919050565b6000613b6882613b50565b9050919050565b6000613b7a82613b5d565b9050919050565b613b92613b8d8261388a565b613b6f565b82525050565b6000613ba48284613b81565b60148201915081905092915050565b613bbc81613760565b82525050565b6000819050919050565b613bd581613bc2565b82525050565b6000819050919050565b6000819050919050565b6000613c0a613c05613c0084613bdb565b6136d2565b613be5565b9050919050565b613c1a81613bef565b82525050565b6000606082019050613c356000830186613bb3565b613c426020830185613bcc565b613c4f6040830184613c11565b949350505050565b60008115159050919050565b613c6c81613c57565b8114613c7757600080fd5b50565b600081519050613c8981613c63565b92915050565b600060208284031215613ca557613ca4613756565b5b6000613cb384828501613c7a565b91505092915050565b7f46756e6374696f6e2063616e2062652063616c6c6564206f6e6c79206279206960008201527f64656e746974792061646d696e00000000000000000000000000000000000000602082015250565b6000613d18602d83613a91565b9150613d2382613cbc565b604082019050919050565b60006020820190508181036000830152613d4781613d0b565b9050919050565b7f50726f66696c6553746f72616765000000000000000000000000000000000000600082015250565b6000613d84600e83613a91565b9150613d8f82613d4e565b602082019050919050565b60006020820190508181036000830152613db381613d77565b9050919050565b6000602082019050613dcf6000830184613bb3565b92915050565b600081519050613de481613778565b92915050565b600060208284031215613e0057613dff613756565b5b6000613e0e84828501613dd5565b91505092915050565b7f5769746864726177616c206861736e2774206265656e20696e69746961746564600082015250565b6000613e4d602083613a91565b9150613e5882613e17565b602082019050919050565b60006020820190508181036000830152613e7c81613e40565b9050919050565b613e8c81613be5565b8114613e9757600080fd5b50565b600081519050613ea981613e83565b92915050565b600060208284031215613ec557613ec4613756565b5b6000613ed384828501613e9a565b91505092915050565b7f5769746864726177616c20706572696f64206861736e277420656e646564207960008201527f6574000000000000000000000000000000000000000000000000000000000000602082015250565b6000613f38602283613a91565b9150613f4382613edc565b604082019050919050565b60006020820190508181036000830152613f6781613f2b565b9050919050565b6000819050919050565b6000613f93613f8e613f8984613f6e565b6136d2565b613760565b9050919050565b613fa381613f78565b82525050565b6000604082019050613fbe6000830185613bb3565b613fcb6020830184613f9a565b9392505050565b613fdb8161388a565b82525050565b6000604082019050613ff66000830185613fd2565b6140036020830184613bb3565b9392505050565b60005b8381101561402857808201518184015260208101905061400d565b83811115614037576000848401525b50505050565b600061405061404b8461395e565b613943565b90508281526020810184848401111561406c5761406b6138cd565b5b61407784828561400a565b509392505050565b600082601f830112614094576140936138c8565b5b81516140a484826020860161403d565b91505092915050565b6000602082840312156140c3576140c2613756565b5b600082015167ffffffffffffffff8111156140e1576140e061375b565b5b6140ed8482850161407f565b91505092915050565b600081519050919050565b600082825260208201905092915050565b600061411d826140f6565b6141278185614101565b935061413781856020860161400a565b614140816138d2565b840191505092915050565b600060408201905081810360008301526141658185614112565b90506141746020830184613bb3565b9392505050565b7f596f752068617665206e6f207265776172640000000000000000000000000000600082015250565b60006141b1601283613a91565b91506141bc8261417b565b602082019050919050565b600060208201905081810360008301526141e0816141a4565b9050919050565b7f4e487b7100000000000000000000000000000000000000000000000000000000600052601160045260246000fd5b600061422182613760565b915061422c83613760565b9250826bffffffffffffffffffffffff0382111561424d5761424c6141e7565b5b828201905092915050565b600060408201905061426d6000830185613bb3565b61427a6020830184613bb3565b9392505050565b7f506172616d657465727353746f72616765000000000000000000000000000000600082015250565b60006142b7601183613a91565b91506142c282614281565b602082019050919050565b600060208201905081810360008301526142e6816142aa565b9050919050565b7f5368617264696e675461626c6500000000000000000000000000000000000000600082015250565b6000614323600d83613a91565b915061432e826142ed565b602082019050919050565b6000602082019050818103600083015261435281614316565b9050919050565b600060608201905081810360008301526143738186614112565b90506143826020830185613bb3565b61438f6040830184613bb3565b949350505050565b7f4e6f2072657761726420746f2077697468647261770000000000000000000000600082015250565b60006143cd601583613a91565b91506143d882614397565b602082019050919050565b600060208201905081810360008301526143fc816143c0565b9050919050565b600062ffffff82169050919050565b61441b81614403565b811461442657600080fd5b50565b60008151905061443881614412565b92915050565b60006020828403121561445457614453613756565b5b600061446284828501614429565b91505092915050565b600061447682613be5565b915061448183613be5565b9250827fffffffffffffffffffffffffffffffffffffffffffffffffffffffffffffffff038211156144b6576144b56141e7565b5b828201905092915050565b6144ca81613be5565b82525050565b60006040820190506144e56000830185613bb3565b6144f260208301846144c1565b9392505050565b600060608201905081810360008301526145138186614112565b90506145226020830185613bb3565b61452f60408301846144c1565b949350505050565b7f546f6b656e000000000000000000000000000000000000000000000000000000600082015250565b600061456d600583613a91565b915061457882614537565b602082019050919050565b6000602082019050818103600083015261459c81614560565b9050919050565b60006040820190506145b86000830185613fd2565b6145c56020830184613fd2565b9392505050565b7f416c6c6f77616e6365206d757374206265203e3d2063686f73656e20616d6f7560008201527f6e74000000000000000000000000000000000000000000000000000000000000602082015250565b6000614628602283613a91565b9150614633826145cc565b604082019050919050565b600060208201905081810360008301526146578161461b565b9050919050565b60006020820190506146736000830184613fd2565b92915050565b7f42616c616e6365206d757374206265203e3d2063686f73656e20616d6f756e74600082015250565b60006146af602083613a91565b91506146ba82614679565b602082019050919050565b600060208201905081810360008301526146de816146a2565b9050919050565b60006147006146fb6146f684613760565b6136d2565b613be5565b9050919050565b614710816146e5565b82525050565b600060608201905061472b6000830186613fd2565b6147386020830185613fd2565b6147456040830184614707565b949350505050565b6000819050919050565b600061477261476d6147688461474d565b6136d2565b613be5565b9050919050565b61478281614757565b82525050565b600060608201905061479d6000830186613bb3565b6147aa6020830185613bcc565b6147b76040830184614779565b949350505050565b7f46756e6374696f6e2063616e2062652063616c6c6564206f6e6c79207573696e60008201527f67206f7065726174696f6e616c206b6579206f6620746865206964656e74697460208201527f7900000000000000000000000000000000000000000000000000000000000000604082015250565b6000614841604183613a91565b915061484c826147bf565b606082019050919050565b6000602082019050818103600083015261487081614834565b9050919050565b61488081613811565b82525050565b600060408201905061489b6000830185613bb3565b6148a86020830184614877565b9392505050565b7f416d6f756e742063616e277420626520626967676572207468616e206176616960008201527f6c61626c65207374616b65000000000000000000000000000000000000000000602082015250565b600061490b602b83613a91565b9150614916826148af565b604082019050919050565b6000602082019050818103600083015261493a816148fe565b9050919050565b600061494c82613760565b915061495783613760565b92508282101561496a576149696141e7565b5b828203905092915050565b6000608082019050818103600083015261498f8187614112565b905061499e6020830186613bb3565b6149ab60408301856144c1565b6149b86060830184613bb3565b95945050505050565b7f416c6c6f77616e6365206d757374206265203e3d20696e697469616c2073746160008201527f6b65000000000000000000000000000000000000000000000000000000000000602082015250565b6000614a1d602283613a91565b9150614a28826149c1565b604082019050919050565b60006020820190508181036000830152614a4c81614a10565b9050919050565b7f42616c616e6365206d757374206265203e3d20696e697469616c207374616b65600082015250565b6000614a89602083613a91565b9150614a9482614a53565b602082019050919050565b60006020820190508181036000830152614ab881614a7c565b9050919050565b600060a082019050614ad46000830188613fd2565b614ae16020830187613fd2565b8181036040830152614af38186614112565b9050614b026060830185613bb3565b614b0f6080830184613bb3565b9695505050505050565b60006020820190508181036000830152614b338184614112565b90509291505056fea2646970667358221220ece407bc65d22cb3150d61827d7dbb4b78d138ffdc2911cd4ad7ce46214f7e1564736f6c634300080e0033",
  "immutableReferences": {},
  "source": "// SPDX-License-Identifier: MIT\n\npragma solidity ^0.8.0;\n\nimport { Hub } from \"./Hub.sol\";\nimport { IdentityStorage } from \"./storage/IdentityStorage.sol\";\nimport { IERC20 } from \"@openzeppelin/contracts/token/ERC20/IERC20.sol\";\nimport { ParametersStorage } from \"./storage/ParametersStorage.sol\";\nimport { ProfileStorage } from \"./storage/ProfileStorage.sol\";\nimport { ShardingTable } from \"./ShardingTable.sol\";\n\ncontract Profile {\n    event ProfileCreated(\n        uint96 indexed identityId,\n        bytes nodeId\n    );\n    event StakeIncreased(\n        uint96 indexed identityId,\n        bytes nodeId,\n        uint96 stakedAmount,\n        uint96 newStake\n    );\n    event StakeWithdrawalInitiated(\n        uint96 indexed identityId,\n        bytes nodeId,\n        uint96 stakeWithdrawalAmount,\n        uint256 stakeWithdrawalTimestamp,\n        uint96 newStake\n    );\n    event StakeWithdrawn(\n        uint96 indexed identityId,\n        bytes nodeId,\n        uint96 withdrawnStakeAmount\n    );\n    event RewardWithdrawalInitiated(\n        uint96 indexed identityId,\n        bytes nodeId,\n        uint96 rewardWithdrawalAmount,\n        uint256 rewardWithdrawalTimestamp\n    );\n    event RewardWithdrawn(\n        uint96 indexed identityId,\n        bytes nodeId,\n        uint96 withdrawnRewardAmount\n    );\n    event StakeFrozen(\n        uint96 indexed identityId,\n        bytes indexed nodeId,\n        uint96 frozenStakeAmount\n    );\n    event StakeUnfrozen(\n        uint96 indexed identityId,\n        bytes nodeId,\n        uint96 unfrozenStakeAmount\n    );\n\n    Hub public hub;\n\n    constructor(address hubAddress) {\n        require(hubAddress != address(0));\n        hub = Hub(hubAddress);\n    }\n\n    modifier onlyWithAdminKey(uint96 identityId) {\n        require(\n            IdentityStorage(hub.getContractAddress(\"IdentityStorage\")).keyHasPurpose(\n                identityId,\n                keccak256(abi.encodePacked(msg.sender)),\n                1\n            ),\n            \"Function can be called only by identity admin\"\n        );\n        _;\n\t}\n\n    modifier onlyWithPublicKey(uint96 identityId) {\n        require(\n            IdentityStorage(hub.getContractAddress(\"IdentityStorage\")).keyHasPurpose(\n                identityId,\n                keccak256(abi.encodePacked(msg.sender)),\n                2\n            ),\n            \"Function can be called only using operational key of the identity\"\n        );\n        _;\n    }\n\n    function createProfile(address adminWallet, bytes memory nodeId, uint96 initialAsk, uint96 initialStake)\n        public\n    {\n        IERC20 tokenContract = IERC20(hub.getContractAddress(\"Token\"));\n        address profileStorageAddress = hub.getContractAddress(\"ProfileStorage\");\n\n        require(\n            tokenContract.allowance(msg.sender, address(this)) >= initialStake,\n            \"Allowance must be >= initial stake\"\n        );\n        require(tokenContract.balanceOf(msg.sender) >= initialStake, \"Balance must be >= initial stake\");\n\n        tokenContract.transferFrom(msg.sender, profileStorageAddress, initialStake);\n\n        ProfileStorage profileStorage = ProfileStorage(profileStorageAddress);\n\n        uint96 identityId = profileStorage.createProfile(\n            msg.sender,\n            adminWallet,\n            nodeId,\n            initialAsk,\n            initialStake\n        );\n       \n        ParametersStorage parametersStorage = ParametersStorage(hub.getContractAddress(\"ParametersStorage\"));\n        if (initialStake >= parametersStorage.minimumStake()) {\n            ShardingTable shardingTable = ShardingTable(hub.getContractAddress(\"ShardingTable\"));\n            shardingTable.pushBack(identityId);\n        }\n\n        emit ProfileCreated(identityId, nodeId);\n    }\n\n    function addNewNodeIdHash(uint96 identityId, uint8 hashFunctionId) public onlyWithPublicKey(identityId) {\n        ProfileStorage(hub.getContractAddress(\"ProfileStorage\")).setNodeAddress(identityId, hashFunctionId);\n    }\n\n    function increaseStake(uint96 identityId, uint96 amount)\n        public\n        onlyWithAdminKey(identityId)\n    {\n        IERC20 tokenContract = IERC20(hub.getContractAddress(\"Token\"));\n        address profileStorageAddress = hub.getContractAddress(\"ProfileStorage\");\n\n        require(tokenContract.allowance(msg.sender, address(this)) >= amount, \"Allowance must be >= chosen amount\");\n        require(tokenContract.balanceOf(msg.sender) >= amount, \"Balance must be >= chosen amount\");\n\n        ProfileStorage profileStorage = ProfileStorage(profileStorageAddress);\n\n        uint96 oldStake = profileStorage.getStake(identityId);\n        uint96 newStake = oldStake + amount;\n        profileStorage.setStake(identityId, newStake);\n\n        tokenContract.transferFrom(msg.sender, profileStorageAddress, amount);\n\n        ParametersStorage parametersStorage = ParametersStorage(hub.getContractAddress(\"ParametersStorage\"));\n\n        if (oldStake < parametersStorage.minimumStake() && newStake >= parametersStorage.minimumStake()) {\n            ShardingTable shardingTable = ShardingTable(hub.getContractAddress(\"ShardingTable\"));\n            shardingTable.pushBack(identityId);\n        }\n\n        emit StakeIncreased(\n            identityId,\n            profileStorage.getNodeId(identityId),\n            amount,\n            newStake\n        );\n    }\n\n    function startStakeWithdrawal(uint96 identityId, uint96 amount)\n        public\n        onlyWithAdminKey(identityId)\n    {\n        ProfileStorage profileStorage = ProfileStorage(hub.getContractAddress(\"ProfileStorage\"));\n\n        require(amount <= profileStorage.getStake(identityId), \"Amount can't be bigger than available stake\");\n\n        uint96 oldStake = profileStorage.getStake(identityId);\n        uint96 newStake = oldStake - amount;\n        uint96 newStakeWithdrawalAmount = profileStorage.getStakeWithdrawalAmount(identityId) + amount;\n\n        ParametersStorage parametersStorage = ParametersStorage(hub.getContractAddress(\"ParametersStorage\"));\n\n        profileStorage.setStake(identityId, newStake);\n        profileStorage.setStakeWithdrawalAmount(identityId, newStakeWithdrawalAmount);\n        uint256 stakeWithdrawalTimestamp = block.timestamp + parametersStorage.stakeWithdrawalDelay();\n        profileStorage.setStakeWithdrawalTimestamp(identityId, stakeWithdrawalTimestamp);\n\n        if (oldStake >= parametersStorage.minimumStake() && newStake < parametersStorage.minimumStake()) {\n            ShardingTable shardingTable = ShardingTable(hub.getContractAddress(\"ShardingTable\"));\n            shardingTable.removeNode(identityId);\n        }\n\n        emit StakeWithdrawalInitiated(\n            identityId,\n            profileStorage.getNodeId(identityId),\n            newStakeWithdrawalAmount,\n            stakeWithdrawalTimestamp,\n            newStake\n        );\n    }\n\n    function withdrawFreeStake(uint96 identityId)\n        public\n        onlyWithAdminKey(identityId)\n    {\n        ProfileStorage profileStorage = ProfileStorage(hub.getContractAddress(\"ProfileStorage\"));\n\n        uint96 stakeWithdrawalAmount = profileStorage.getStakeWithdrawalAmount(identityId);\n\n        require(stakeWithdrawalAmount > 0, \"Withdrawal hasn't been initiated\");\n        require(\n            profileStorage.getStakeWithdrawalTimestamp(identityId) < block.timestamp,\n            \"Withdrawal period hasn't ended yet\"\n        );\n\n        profileStorage.transferTokens(msg.sender, stakeWithdrawalAmount);\n\n        profileStorage.setStakeWithdrawalAmount(identityId, 0);\n\n        emit StakeWithdrawn(\n            identityId,\n            profileStorage.getNodeId(identityId),\n            stakeWithdrawalAmount\n        );\n    }\n\n    function stakeReward(uint96 identityId)\n        public\n        onlyWithAdminKey(identityId)\n    {\n        ProfileStorage profileStorage = ProfileStorage(hub.getContractAddress(\"ProfileStorage\"));\n\n        uint96 rewardAmount = profileStorage.getReward(identityId);\n        require(rewardAmount > 0, \"You have no reward\");\n\n        uint96 oldStake = profileStorage.getStake(identityId);\n        uint96 newStake = oldStake + rewardAmount;\n\n        profileStorage.setReward(identityId, 0);\n        profileStorage.setStake(identityId, newStake);\n\n        ParametersStorage parametersStorage = ParametersStorage(hub.getContractAddress(\"ParametersStorage\"));\n\n        if (oldStake < parametersStorage.minimumStake() && newStake >= parametersStorage.minimumStake()) {\n            ShardingTable shardingTable = ShardingTable(hub.getContractAddress(\"ShardingTable\"));\n            shardingTable.pushBack(identityId);\n        }\n\n        emit StakeIncreased(\n            identityId,\n            profileStorage.getNodeId(identityId),\n            rewardAmount,\n            newStake\n        );\n    }\n\n    function startRewardWithdrawal(uint96 identityId)\n        public\n        onlyWithAdminKey(identityId)\n    {\n        ProfileStorage profileStorage = ProfileStorage(hub.getContractAddress(\"ProfileStorage\"));\n\n        uint96 reward = profileStorage.getReward(identityId);\n\n        require(reward > 0, \"No reward to withdraw\");\n\n        ParametersStorage parametersStorage = ParametersStorage(hub.getContractAddress(\"ParametersStorage\"));\n\n        profileStorage.setReward(identityId, 0);\n        profileStorage.setRewardWithdrawalAmount(\n            identityId,\n            profileStorage.getRewardWithdrawalAmount(identityId) + reward\n        );\n        uint256 rewardWithdrawalTimestamp = block.timestamp + parametersStorage.rewardWithdrawalDelay();\n        profileStorage.setRewardWithdrawalTimestamp(identityId, rewardWithdrawalTimestamp);\n\n        emit RewardWithdrawalInitiated(\n            identityId,\n            profileStorage.getNodeId(identityId),\n            reward,\n            rewardWithdrawalTimestamp\n        );\n    }\n\n    function withdrawFreeReward(uint96 identityId)\n        public\n        onlyWithAdminKey(identityId)\n    {\n        ProfileStorage profileStorage = ProfileStorage(hub.getContractAddress(\"ProfileStorage\"));\n\n        uint96 rewardWithdrawalAmount = profileStorage.getRewardWithdrawalAmount(identityId);\n\n        require(rewardWithdrawalAmount > 0, \"Withdrawal hasn't been initiated\");\n        require(\n            profileStorage.getRewardWithdrawalTimestamp(identityId) < block.timestamp,\n            \"Withdrawal period hasn't ended yet\"\n        );\n\n        profileStorage.setRewardWithdrawalAmount(identityId, 0);\n        profileStorage.transferTokens(msg.sender, rewardWithdrawalAmount);\n\n        emit RewardWithdrawn(\n            identityId,\n            profileStorage.getNodeId(identityId),\n            rewardWithdrawalAmount\n        );\n    }\n\n    // function freezeStake(uint8 percentage)\n    //     public\n    // {\n    //     emit StakeFrozen(identityId, frozenStakeAmount);\n    // }\n\n    // function unfreezeStake()\n    //     public\n    // {\n    //     emit StakeUnfrozen(identityId, unfrozenStakeAmount);\n    // }\n}\n",
  "sourcePath": "/Users/waving/Desktop/OriginTrail/dkg-evm-module/contracts/Profile.sol",
  "compiler": {
    "name": "solc",
    "version": "0.8.14+commit.80d49f37.Emscripten.clang"
  },
  "schemaVersion": "3.4.10",
  "updatedAt": "2022-11-23T15:54:42.523Z",
  "devdoc": {
    "kind": "dev",
    "methods": {},
    "version": 1
  },
  "userdoc": {
    "kind": "user",
    "methods": {},
    "version": 1
  }
}