{
  "contractName": "Profile",
  "abi": [
    {
      "inputs": [
        {
          "internalType": "address",
          "name": "hubAddress",
          "type": "address"
        }
      ],
      "stateMutability": "nonpayable",
      "type": "constructor"
    },
    {
      "inputs": [],
      "name": "hashingProxy",
      "outputs": [
        {
          "internalType": "contract HashingProxy",
          "name": "",
          "type": "address"
        }
      ],
      "stateMutability": "view",
      "type": "function"
    },
    {
      "inputs": [],
      "name": "hub",
      "outputs": [
        {
          "internalType": "contract Hub",
          "name": "",
          "type": "address"
        }
      ],
      "stateMutability": "view",
      "type": "function"
    },
    {
      "inputs": [],
      "name": "identityContract",
      "outputs": [
        {
          "internalType": "contract Identity",
          "name": "",
          "type": "address"
        }
      ],
      "stateMutability": "view",
      "type": "function"
    },
    {
      "inputs": [],
      "name": "identityStorage",
      "outputs": [
        {
          "internalType": "contract IdentityStorage",
          "name": "",
          "type": "address"
        }
      ],
      "stateMutability": "view",
      "type": "function"
    },
    {
      "inputs": [],
      "name": "profileStorage",
      "outputs": [
        {
          "internalType": "contract ProfileStorage",
          "name": "",
          "type": "address"
        }
      ],
      "stateMutability": "view",
      "type": "function"
    },
    {
      "inputs": [],
      "name": "stakingContract",
      "outputs": [
        {
          "internalType": "contract Staking",
          "name": "",
          "type": "address"
        }
      ],
      "stateMutability": "view",
      "type": "function"
    },
    {
      "inputs": [],
      "name": "stakingStorage",
      "outputs": [
        {
          "internalType": "contract StakingStorage",
          "name": "",
          "type": "address"
        }
      ],
      "stateMutability": "view",
      "type": "function"
    },
    {
      "inputs": [
        {
          "internalType": "address",
          "name": "adminWallet",
          "type": "address"
        },
        {
          "internalType": "bytes",
          "name": "nodeId",
          "type": "bytes"
        },
        {
          "internalType": "uint96",
          "name": "initialAsk",
          "type": "uint96"
        },
        {
          "internalType": "uint96",
          "name": "initialStake",
          "type": "uint96"
        },
        {
          "internalType": "uint8",
          "name": "operatorFee",
          "type": "uint8"
        }
      ],
      "name": "createProfile",
      "outputs": [],
      "stateMutability": "nonpayable",
      "type": "function"
    },
    {
      "inputs": [
        {
          "internalType": "uint72",
          "name": "identityId",
          "type": "uint72"
        }
      ],
      "name": "stakeAccumulatedOperatorFee",
      "outputs": [],
      "stateMutability": "nonpayable",
      "type": "function"
    },
    {
      "inputs": [
        {
          "internalType": "uint72",
          "name": "identityId",
          "type": "uint72"
        }
      ],
      "name": "withdrawAccumulatedOperatorFee",
      "outputs": [],
      "stateMutability": "nonpayable",
      "type": "function"
    }
  ],
  "bytecode": "0x60806040523480156200001157600080fd5b50604051620030863803806200308683398101604081905262000034916200042b565b6001600160a01b0381166200004857600080fd5b600080546001600160a01b0319166001600160a01b038316908117909155604051630110ceef60e21b815260206004820152600c60248201526b48617368696e6750726f787960a01b60448201526304433bbc90606401602060405180830381865afa158015620000bd573d6000803e3d6000fd5b505050506040513d601f19601f82011682018060405250810190620000e391906200042b565b600180546001600160a01b0319166001600160a01b03928316179055600054604051630110ceef60e21b81526020600482015260086024820152674964656e7469747960c01b60448201529116906304433bbc90606401602060405180830381865afa15801562000158573d6000803e3d6000fd5b505050506040513d601f19601f820116820180604052508101906200017e91906200042b565b600280546001600160a01b0319166001600160a01b03928316179055600054604051630110ceef60e21b81526020600482015260076024820152665374616b696e6760c81b60448201529116906304433bbc90606401602060405180830381865afa158015620001f2573d6000803e3d6000fd5b505050506040513d601f19601f820116820180604052508101906200021891906200042b565b600380546001600160a01b0319166001600160a01b03928316179055600054604051630110ceef60e21b815260206004820152600f60248201526e4964656e7469747953746f7261676560881b60448201529116906304433bbc90606401602060405180830381865afa15801562000294573d6000803e3d6000fd5b505050506040513d601f19601f82011682018060405250810190620002ba91906200042b565b600480546001600160a01b039283166001600160a01b0319909116178155600054604051630110ceef60e21b81529216916304433bbc916200031f91016020808252600e908201526d50726f66696c6553746f7261676560901b604082015260600190565b602060405180830381865afa1580156200033d573d6000803e3d6000fd5b505050506040513d601f19601f820116820180604052508101906200036391906200042b565b600580546001600160a01b0319166001600160a01b03928316179055600054604051630110ceef60e21b815260206004820152600e60248201526d5374616b696e6753746f7261676560901b60448201529116906304433bbc90606401602060405180830381865afa158015620003de573d6000803e3d6000fd5b505050506040513d601f19601f820116820180604052508101906200040491906200042b565b600680546001600160a01b0319166001600160a01b0392909216919091179055506200045d565b6000602082840312156200043e57600080fd5b81516001600160a01b03811681146200045657600080fd5b9392505050565b612c19806200046d6000396000f3fe60806040523480156200001157600080fd5b5060043610620000cd5760003560e01c8063a72d85ff116200007f578063ee99205c1162000062578063ee99205c14620001c6578063f11abfd814620001e7578063f42cb038146200020857600080fd5b8063a72d85ff146200018e578063b518a00e14620001a557600080fd5b8063365a86fc11620000b4578063365a86fc146200013557806367031bae146200015657806385404ed1146200017757600080fd5b8063051785f614620000d257806311c94ee814620000eb575b600080fd5b620000e9620000e3366004620011ac565b62000229565b005b6001546200010c9073ffffffffffffffffffffffffffffffffffffffff1681565b60405173ffffffffffffffffffffffffffffffffffffffff909116815260200160405180910390f35b6000546200010c9073ffffffffffffffffffffffffffffffffffffffff1681565b6002546200010c9073ffffffffffffffffffffffffffffffffffffffff1681565b620000e962000188366004620011ac565b62000498565b620000e96200019f36600462001240565b620006bf565b6006546200010c9073ffffffffffffffffffffffffffffffffffffffff1681565b6003546200010c9073ffffffffffffffffffffffffffffffffffffffff1681565b6004546200010c9073ffffffffffffffffffffffffffffffffffffffff1681565b6005546200010c9073ffffffffffffffffffffffffffffffffffffffff1681565b80620002358162000cfe565b6005546040517fc12b4c7600000000000000000000000000000000000000000000000000000000815268ffffffffffffffffff8416600482015273ffffffffffffffffffffffffffffffffffffffff90911690600090829063c12b4c7690602401602060405180830381865afa158015620002b4573d6000803e3d6000fd5b505050506040513d601f19601f82011682018060405250810190620002da919062001305565b9050806bffffffffffffffffffffffff166000036200035a576040517f08c379a000000000000000000000000000000000000000000000000000000000815260206004820152601960248201527f596f752068617665206e6f206f70657261746f7220666565730000000000000060448201526064015b60405180910390fd5b6040517fd0ea3fee00000000000000000000000000000000000000000000000000000000815268ffffffffffffffffff851660048201526000602482015273ffffffffffffffffffffffffffffffffffffffff83169063d0ea3fee90604401600060405180830381600087803b158015620003d457600080fd5b505af1158015620003e9573d6000803e3d6000fd5b50506003546040517fc47408e300000000000000000000000000000000000000000000000000000000815268ffffffffffffffffff881660048201526bffffffffffffffffffffffff8516602482015273ffffffffffffffffffffffffffffffffffffffff909116925063c47408e391506044015b600060405180830381600087803b1580156200047957600080fd5b505af11580156200048e573d6000803e3d6000fd5b5050505050505050565b80620004a48162000cfe565b6005546040517fc12b4c7600000000000000000000000000000000000000000000000000000000815268ffffffffffffffffff8416600482015273ffffffffffffffffffffffffffffffffffffffff90911690600090829063c12b4c7690602401602060405180830381865afa15801562000523573d6000803e3d6000fd5b505050506040513d601f19601f8201168201806040525081019062000549919062001305565b9050806bffffffffffffffffffffffff16600003620005c5576040517f08c379a000000000000000000000000000000000000000000000000000000000815260206004820152601960248201527f596f752068617665206e6f206f70657261746f72206665657300000000000000604482015260640162000351565b6040517fd0ea3fee00000000000000000000000000000000000000000000000000000000815268ffffffffffffffffff851660048201526000602482015273ffffffffffffffffffffffffffffffffffffffff83169063d0ea3fee90604401600060405180830381600087803b1580156200063f57600080fd5b505af115801562000654573d6000803e3d6000fd5b50506040517fabe979e10000000000000000000000000000000000000000000000000000000081523360048201526bffffffffffffffffffffffff8416602482015273ffffffffffffffffffffffffffffffffffffffff8516925063abe979e191506044016200045e565b600480546005546040517f867a4680000000000000000000000000000000000000000000000000000000008152339381019390935273ffffffffffffffffffffffffffffffffffffffff91821692911690829063867a468090602401602060405180830381865afa15801562000739573d6000803e3d6000fd5b505050506040513d601f19601f820116820180604052508101906200075f919062001325565b68ffffffffffffffffff1615620007d3576040517f08c379a000000000000000000000000000000000000000000000000000000000815260206004820152601760248201527f4964656e7469747920616c726561647920657869737473000000000000000000604482015260640162000351565b600086900362000840576040517f08c379a000000000000000000000000000000000000000000000000000000000815260206004820152601660248201527f4e6f64652049442063616e277420626520656d70747900000000000000000000604482015260640162000351565b6040517f78153abf00000000000000000000000000000000000000000000000000000000815273ffffffffffffffffffffffffffffffffffffffff8216906378153abf9062000896908a908a906004016200138e565b602060405180830381865afa158015620008b4573d6000803e3d6000fd5b505050506040513d601f19601f82011682018060405250810190620008da9190620013a4565b1562000943576040517f08c379a000000000000000000000000000000000000000000000000000000000815260206004820152601d60248201527f4e6f646520494420697320616c72656164792072656769737465726564000000604482015260640162000351565b846bffffffffffffffffffffffff16600003620009bd576040517f08c379a000000000000000000000000000000000000000000000000000000000815260206004820152600f60248201527f41736b2063616e6e6f7420626520300000000000000000000000000000000000604482015260640162000351565b6002546040517fd10e73ab00000000000000000000000000000000000000000000000000000000815233600482015273ffffffffffffffffffffffffffffffffffffffff8a81166024830152600092169063d10e73ab906044016020604051808303816000875af115801562000a37573d6000803e3d6000fd5b505050506040513d601f19601f8201168201806040525081019062000a5d919062001325565b9050600062000a778268ffffffffffffffffff1662000e86565b60008054604051929350909173ffffffffffffffffffffffffffffffffffffffff9091169062000aac908490602001620013fb565b6040516020818303038152906040528360405160200162000ace919062001442565b60405160208183030381529060405260405162000aeb9062001186565b62000af993929190620014d5565b604051809103906000f08015801562000b16573d6000803e3d6000fd5b506040517ffdf64e4300000000000000000000000000000000000000000000000000000000815290915073ffffffffffffffffffffffffffffffffffffffff85169063fdf64e439062000b769086908e908e908e90889060040162001524565b600060405180830381600087803b15801562000b9157600080fd5b505af115801562000ba6573d6000803e3d6000fd5b5050505062000bb58362000fdb565b6003546040517fc47408e300000000000000000000000000000000000000000000000000000000815268ffffffffffffffffff851660048201526bffffffffffffffffffffffff8916602482015273ffffffffffffffffffffffffffffffffffffffff90911690819063c47408e390604401600060405180830381600087803b15801562000c4257600080fd5b505af115801562000c57573d6000803e3d6000fd5b50506040517f97c5960700000000000000000000000000000000000000000000000000000000815268ffffffffffffffffff8716600482015260ff8a16602482015273ffffffffffffffffffffffffffffffffffffffff841692506397c596079150604401600060405180830381600087803b15801562000cd757600080fd5b505af115801562000cec573d6000803e3d6000fd5b50505050505050505050505050505050565b6004546040517fffffffffffffffffffffffffffffffffffffffff0000000000000000000000003360601b16602082015273ffffffffffffffffffffffffffffffffffffffff909116906335e4fb7a908390603401604080517fffffffffffffffffffffffffffffffffffffffffffffffffffffffffffffffe08184030181529082905280516020909101207fffffffff0000000000000000000000000000000000000000000000000000000060e085901b16825268ffffffffffffffffff9092166004820152602481019190915260016044820152606401602060405180830381865afa15801562000df5573d6000803e3d6000fd5b505050506040513d601f19601f8201168201806040525081019062000e1b9190620013a4565b62000e83576040517f08c379a000000000000000000000000000000000000000000000000000000000815260206004820152600e60248201527f41646d696e2066756e6374696f6e000000000000000000000000000000000000604482015260640162000351565b50565b60608160000362000eca57505060408051808201909152600181527f3000000000000000000000000000000000000000000000000000000000000000602082015290565b8160005b811562000efa578062000ee181620015b6565b915062000ef29050600a8362001620565b915062000ece565b60008167ffffffffffffffff81111562000f185762000f1862001637565b6040519080825280601f01601f19166020018201604052801562000f43576020820181803683370190505b5090505b841562000fd35762000f5b60018362001666565b915062000f6a600a8662001680565b62000f7790603062001697565b60f81b81838151811062000f8f5762000f8f620016b2565b60200101907effffffffffffffffffffffffffffffffffffffffffffffffffffffffffffff1916908160001a90535062000fcb600a8662001620565b945062000f47565b949350505050565b600554600154604080517fb58abd46000000000000000000000000000000000000000000000000000000008152905173ffffffffffffffffffffffffffffffffffffffff9384169390921691600091839163b58abd469160048082019286929091908290030181865afa15801562001057573d6000803e3d6000fd5b505050506040513d6000823e601f3d9081017fffffffffffffffffffffffffffffffffffffffffffffffffffffffffffffffe01682016040526200109f91908101906200175f565b805190915060005b818160ff1610156200117e578473ffffffffffffffffffffffffffffffffffffffff166368dae4fd87858460ff1681518110620010e857620010e8620016b2565b6020908102919091010151516040517fffffffff0000000000000000000000000000000000000000000000000000000060e085901b16815268ffffffffffffffffff909216600483015260ff166024820152604401600060405180830381600087803b1580156200115857600080fd5b505af11580156200116d573d6000803e3d6000fd5b505060019092019150620010a79050565b505050505050565b611392806200185283390190565b68ffffffffffffffffff8116811462000e8357600080fd5b600060208284031215620011bf57600080fd5b8135620011cc8162001194565b9392505050565b73ffffffffffffffffffffffffffffffffffffffff8116811462000e8357600080fd5b6bffffffffffffffffffffffff8116811462000e8357600080fd5b80356200121e81620011f6565b919050565b60ff8116811462000e8357600080fd5b80356200121e8162001223565b60008060008060008060a087890312156200125a57600080fd5b86356200126781620011d3565b9550602087013567ffffffffffffffff808211156200128557600080fd5b818901915089601f8301126200129a57600080fd5b813581811115620012aa57600080fd5b8a6020828501011115620012bd57600080fd5b6020830197508096505050506040870135620012d981620011f6565b9250620012e96060880162001211565b9150620012f96080880162001233565b90509295509295509295565b6000602082840312156200131857600080fd5b8151620011cc81620011f6565b6000602082840312156200133857600080fd5b8151620011cc8162001194565b8183528181602085013750600060208284010152600060207fffffffffffffffffffffffffffffffffffffffffffffffffffffffffffffffe0601f840116840101905092915050565b60208152600062000fd360208301848662001345565b600060208284031215620013b757600080fd5b81518015158114620011cc57600080fd5b60005b83811015620013e5578181015183820152602001620013cb565b83811115620013f5576000848401525b50505050565b7f536861726520746f6b656e2000000000000000000000000000000000000000008152600082516200143581600c850160208701620013c8565b91909101600c0192915050565b7f444b475354414b455f00000000000000000000000000000000000000000000008152600082516200147c816009850160208701620013c8565b9190910160090192915050565b60008151808452620014a3816020860160208601620013c8565b601f017fffffffffffffffffffffffffffffffffffffffffffffffffffffffffffffffe0169290920160200192915050565b73ffffffffffffffffffffffffffffffffffffffff8416815260606020820152600062001506606083018562001489565b82810360408401526200151a818562001489565b9695505050505050565b68ffffffffffffffffff861681526080602082015260006200154b60808301868862001345565b90506bffffffffffffffffffffffff8416604083015273ffffffffffffffffffffffffffffffffffffffff831660608301529695505050505050565b7f4e487b7100000000000000000000000000000000000000000000000000000000600052601160045260246000fd5b60007fffffffffffffffffffffffffffffffffffffffffffffffffffffffffffffffff8203620015ea57620015ea62001587565b5060010190565b7f4e487b7100000000000000000000000000000000000000000000000000000000600052601260045260246000fd5b600082620016325762001632620015f1565b500490565b7f4e487b7100000000000000000000000000000000000000000000000000000000600052604160045260246000fd5b6000828210156200167b576200167b62001587565b500390565b600082620016925762001692620015f1565b500690565b60008219821115620016ad57620016ad62001587565b500190565b7f4e487b7100000000000000000000000000000000000000000000000000000000600052603260045260246000fd5b6040805190810167ffffffffffffffff8111828210171562001707576200170762001637565b60405290565b604051601f82017fffffffffffffffffffffffffffffffffffffffffffffffffffffffffffffffe016810167ffffffffffffffff8111828210171562001757576200175762001637565b604052919050565b600060208083850312156200177357600080fd5b825167ffffffffffffffff808211156200178c57600080fd5b818501915085601f830112620017a157600080fd5b815181811115620017b657620017b662001637565b620017c6848260051b016200170d565b818152848101925060069190911b830184019087821115620017e757600080fd5b928401925b81841015620018465760408489031215620018075760008081fd5b62001811620016e1565b84516200181e8162001223565b8152848601516200182f81620011d3565b8187015283526040939093019291840191620017ec565b97965050505050505056fe60806040523480156200001157600080fd5b506040516200139238038062001392833981016040819052620000349162000215565b8151829082906200004d906003906020850190620000a2565b50805162000063906004906020840190620000a2565b5050506001600160a01b0383166200007a57600080fd5b5050600580546001600160a01b0319166001600160a01b0392909216919091179055620002db565b828054620000b0906200029f565b90600052602060002090601f016020900481019282620000d457600085556200011f565b82601f10620000ef57805160ff19168380011785556200011f565b828001600101855582156200011f579182015b828111156200011f57825182559160200191906001019062000102565b506200012d92915062000131565b5090565b5b808211156200012d576000815560010162000132565b634e487b7160e01b600052604160045260246000fd5b600082601f8301126200017057600080fd5b81516001600160401b03808211156200018d576200018d62000148565b604051601f8301601f19908116603f01168101908282118183101715620001b857620001b862000148565b81604052838152602092508683858801011115620001d557600080fd5b600091505b83821015620001f95785820183015181830184015290820190620001da565b838211156200020b5760008385830101525b9695505050505050565b6000806000606084860312156200022b57600080fd5b83516001600160a01b03811681146200024357600080fd5b60208501519093506001600160401b03808211156200026157600080fd5b6200026f878388016200015e565b935060408601519150808211156200028657600080fd5b5062000295868287016200015e565b9150509250925092565b600181811c90821680620002b457607f821691505b602082108103620002d557634e487b7160e01b600052602260045260246000fd5b50919050565b6110a780620002eb6000396000f3fe608060405234801561001057600080fd5b50600436106100f55760003560e01c806340c10f191161009757806395d89b411161006657806395d89b4114610238578063a457c2d714610240578063a9059cbb14610253578063dd62ed3e1461026657600080fd5b806340c10f19146101c757806342966c68146101dc57806370a08231146101ef57806379cc67901461022557600080fd5b806323b872dd116100d357806323b872dd1461014d578063313ce56714610160578063365a86fc1461016f57806339509351146101b457600080fd5b806306fdde03146100fa578063095ea7b31461011857806318160ddd1461013b575b600080fd5b6101026102ac565b60405161010f9190610e2e565b60405180910390f35b61012b610126366004610eca565b61033e565b604051901515815260200161010f565b6002545b60405190815260200161010f565b61012b61015b366004610ef4565b610356565b6040516012815260200161010f565b60055461018f9073ffffffffffffffffffffffffffffffffffffffff1681565b60405173ffffffffffffffffffffffffffffffffffffffff909116815260200161010f565b61012b6101c2366004610eca565b61037a565b6101da6101d5366004610eca565b6103c6565b005b6101da6101ea366004610f30565b6103dc565b61013f6101fd366004610f49565b73ffffffffffffffffffffffffffffffffffffffff1660009081526020819052604090205490565b6101da610233366004610eca565b6103e9565b6101026103fe565b61012b61024e366004610eca565b61040d565b61012b610261366004610eca565b6104e3565b61013f610274366004610f6b565b73ffffffffffffffffffffffffffffffffffffffff918216600090815260016020908152604080832093909416825291909152205490565b6060600380546102bb90610f9e565b80601f01602080910402602001604051908101604052809291908181526020018280546102e790610f9e565b80156103345780601f1061030957610100808354040283529160200191610334565b820191906000526020600020905b81548152906001019060200180831161031757829003601f168201915b5050505050905090565b60003361034c8185856104f1565b5060019392505050565b6000336103648582856106a5565b61036f85858561077c565b506001949350505050565b33600081815260016020908152604080832073ffffffffffffffffffffffffffffffffffffffff8716845290915281205490919061034c90829086906103c1908790611020565b6104f1565b6103ce610a2f565b6103d88282610b29565b5050565b6103e63382610c49565b50565b6103f48233836106a5565b6103d88282610c49565b6060600480546102bb90610f9e565b33600081815260016020908152604080832073ffffffffffffffffffffffffffffffffffffffff87168452909152812054909190838110156104d6576040517f08c379a000000000000000000000000000000000000000000000000000000000815260206004820152602560248201527f45524332303a2064656372656173656420616c6c6f77616e63652062656c6f7760448201527f207a65726f00000000000000000000000000000000000000000000000000000060648201526084015b60405180910390fd5b61036f82868684036104f1565b60003361034c81858561077c565b73ffffffffffffffffffffffffffffffffffffffff8316610593576040517f08c379a0000000000000000000000000000000000000000000000000000000008152602060048201526024808201527f45524332303a20617070726f76652066726f6d20746865207a65726f2061646460448201527f726573730000000000000000000000000000000000000000000000000000000060648201526084016104cd565b73ffffffffffffffffffffffffffffffffffffffff8216610636576040517f08c379a000000000000000000000000000000000000000000000000000000000815260206004820152602260248201527f45524332303a20617070726f766520746f20746865207a65726f20616464726560448201527f737300000000000000000000000000000000000000000000000000000000000060648201526084016104cd565b73ffffffffffffffffffffffffffffffffffffffff83811660008181526001602090815260408083209487168084529482529182902085905590518481527f8c5be1e5ebec7d5bd14f71427d1e84f3dd0314c0f7b2291e5b200ac8c7c3b92591015b60405180910390a3505050565b73ffffffffffffffffffffffffffffffffffffffff8381166000908152600160209081526040808320938616835292905220547fffffffffffffffffffffffffffffffffffffffffffffffffffffffffffffffff81146107765781811015610769576040517f08c379a000000000000000000000000000000000000000000000000000000000815260206004820152601d60248201527f45524332303a20696e73756666696369656e7420616c6c6f77616e636500000060448201526064016104cd565b61077684848484036104f1565b50505050565b73ffffffffffffffffffffffffffffffffffffffff831661081f576040517f08c379a000000000000000000000000000000000000000000000000000000000815260206004820152602560248201527f45524332303a207472616e736665722066726f6d20746865207a65726f20616460448201527f647265737300000000000000000000000000000000000000000000000000000060648201526084016104cd565b73ffffffffffffffffffffffffffffffffffffffff82166108c2576040517f08c379a000000000000000000000000000000000000000000000000000000000815260206004820152602360248201527f45524332303a207472616e7366657220746f20746865207a65726f206164647260448201527f657373000000000000000000000000000000000000000000000000000000000060648201526084016104cd565b73ffffffffffffffffffffffffffffffffffffffff831660009081526020819052604090205481811015610978576040517f08c379a000000000000000000000000000000000000000000000000000000000815260206004820152602660248201527f45524332303a207472616e7366657220616d6f756e742065786365656473206260448201527f616c616e6365000000000000000000000000000000000000000000000000000060648201526084016104cd565b73ffffffffffffffffffffffffffffffffffffffff8085166000908152602081905260408082208585039055918516815290812080548492906109bc908490611020565b925050819055508273ffffffffffffffffffffffffffffffffffffffff168473ffffffffffffffffffffffffffffffffffffffff167fddf252ad1be2c89b69c2b068fc378daa952ba7f163c4a11628f55a4df523b3ef84604051610a2291815260200190565b60405180910390a3610776565b6005546040517f1627905500000000000000000000000000000000000000000000000000000000815233600482015273ffffffffffffffffffffffffffffffffffffffff90911690631627905590602401602060405180830381865afa158015610a9d573d6000803e3d6000fd5b505050506040513d601f19601f82011682018060405250810190610ac19190611038565b610b27576040517f08c379a000000000000000000000000000000000000000000000000000000000815260206004820181905260248201527f466e2063616e206f6e6c792062652063616c6c6564206279207468652068756260448201526064016104cd565b565b73ffffffffffffffffffffffffffffffffffffffff8216610ba6576040517f08c379a000000000000000000000000000000000000000000000000000000000815260206004820152601f60248201527f45524332303a206d696e7420746f20746865207a65726f20616464726573730060448201526064016104cd565b8060026000828254610bb89190611020565b909155505073ffffffffffffffffffffffffffffffffffffffff821660009081526020819052604081208054839290610bf2908490611020565b909155505060405181815273ffffffffffffffffffffffffffffffffffffffff8316906000907fddf252ad1be2c89b69c2b068fc378daa952ba7f163c4a11628f55a4df523b3ef9060200160405180910390a35050565b73ffffffffffffffffffffffffffffffffffffffff8216610cec576040517f08c379a000000000000000000000000000000000000000000000000000000000815260206004820152602160248201527f45524332303a206275726e2066726f6d20746865207a65726f2061646472657360448201527f730000000000000000000000000000000000000000000000000000000000000060648201526084016104cd565b73ffffffffffffffffffffffffffffffffffffffff821660009081526020819052604090205481811015610da2576040517f08c379a000000000000000000000000000000000000000000000000000000000815260206004820152602260248201527f45524332303a206275726e20616d6f756e7420657863656564732062616c616e60448201527f636500000000000000000000000000000000000000000000000000000000000060648201526084016104cd565b73ffffffffffffffffffffffffffffffffffffffff83166000908152602081905260408120838303905560028054849290610dde90849061105a565b909155505060405182815260009073ffffffffffffffffffffffffffffffffffffffff8516907fddf252ad1be2c89b69c2b068fc378daa952ba7f163c4a11628f55a4df523b3ef90602001610698565b600060208083528351808285015260005b81811015610e5b57858101830151858201604001528201610e3f565b81811115610e6d576000604083870101525b50601f017fffffffffffffffffffffffffffffffffffffffffffffffffffffffffffffffe016929092016040019392505050565b803573ffffffffffffffffffffffffffffffffffffffff81168114610ec557600080fd5b919050565b60008060408385031215610edd57600080fd5b610ee683610ea1565b946020939093013593505050565b600080600060608486031215610f0957600080fd5b610f1284610ea1565b9250610f2060208501610ea1565b9150604084013590509250925092565b600060208284031215610f4257600080fd5b5035919050565b600060208284031215610f5b57600080fd5b610f6482610ea1565b9392505050565b60008060408385031215610f7e57600080fd5b610f8783610ea1565b9150610f9560208401610ea1565b90509250929050565b600181811c90821680610fb257607f821691505b602082108103610feb577f4e487b7100000000000000000000000000000000000000000000000000000000600052602260045260246000fd5b50919050565b7f4e487b7100000000000000000000000000000000000000000000000000000000600052601160045260246000fd5b6000821982111561103357611033610ff1565b500190565b60006020828403121561104a57600080fd5b81518015158114610f6457600080fd5b60008282101561106c5761106c610ff1565b50039056fea2646970667358221220c0a0b45b1de6ad1a65e1810de4b7bced68eca6032f8c0c7b897875e0262473fd64736f6c634300080e0033a2646970667358221220331efadd565e9cbe75e67ce46e6a4747a12b00ae411077ecf29023df26882ac564736f6c634300080e0033",
  "immutableReferences": {},
  "source": "// SPDX-License-Identifier: MIT\n\npragma solidity ^0.8.0;\n\nimport { HashingProxy } from \"./HashingProxy.sol\";\nimport { Hub } from \"./Hub.sol\";\nimport { Identity } from \"./Identity.sol\";\nimport { Shares } from \"./Shares.sol\";\nimport { Staking } from \"./Staking.sol\";\nimport { IdentityStorage } from \"./storage/IdentityStorage.sol\";\nimport { ProfileStorage } from \"./storage/ProfileStorage.sol\";\nimport { StakingStorage } from \"./storage/StakingStorage.sol\";\nimport { UnorderedIndexableContractDynamicSetLib } from \"./utils/UnorderedIndexableContractDynamicSet.sol\";\nimport { ADMIN_KEY, OPERATIONAL_KEY } from \"./constants/IdentityConstants.sol\";\nimport { Strings } from \"@openzeppelin/contracts/utils/Strings.sol\";\n\ncontract Profile {\n\n    Hub public hub;\n    HashingProxy public hashingProxy;\n    Identity public identityContract;\n    Staking public stakingContract;\n    IdentityStorage public identityStorage;\n    ProfileStorage public profileStorage;\n    StakingStorage public stakingStorage;\n\n    constructor(address hubAddress) {\n        require(hubAddress != address(0));\n\n        hub = Hub(hubAddress);\n        hashingProxy = HashingProxy(hub.getContractAddress(\"HashingProxy\"));\n        identityContract = Identity(hub.getContractAddress(\"Identity\"));\n        stakingContract = Staking(hub.getContractAddress(\"Staking\"));\n        identityStorage = IdentityStorage(hub.getContractAddress(\"IdentityStorage\"));\n        profileStorage = ProfileStorage(hub.getContractAddress(\"ProfileStorage\"));\n        stakingStorage = StakingStorage(hub.getContractAddress(\"StakingStorage\"));\n    }\n\n    modifier onlyAdmin(uint72 identityId) {\n        _checkAdmin(identityId);\n        _;\n    }\n\n    modifier onlyOperational(uint72 identityId) {\n        _checkOperational(identityId);\n        _;\n    }\n\n    function createProfile(\n        address adminWallet,\n        bytes calldata nodeId,\n        uint96 initialAsk,\n        uint96 initialStake,\n        uint8 operatorFee\n    )\n        external\n    {\n        IdentityStorage ids = identityStorage;\n        ProfileStorage ps = profileStorage;\n\n        require(ids.getIdentityId(msg.sender) == 0, \"Identity already exists\");\n        require(nodeId.length != 0, \"Node ID can't be empty\");\n        require(!ps.nodeIdRegistered(nodeId), \"Node ID is already registered\");\n        require(initialAsk != 0, \"Ask cannot be 0\");\n\n        uint72 identityId = identityContract.createIdentity(msg.sender, adminWallet);\n\n        string memory identityIdString = Strings.toString(identityId);\n        Shares sharesContract = new Shares(\n            address(hub),\n            string.concat(\"Share token \", identityIdString),\n            string.concat(\"DKGSTAKE_\", identityIdString)\n        );\n\n        ps.createProfile(identityId, nodeId, initialAsk, address(sharesContract));\n        _setAvailableNodeAddresses(identityId);\n\n        Staking sc = stakingContract;\n        sc.addStake(identityId, initialStake);\n        sc.setOperatorFee(identityId, operatorFee);\n    }\n\n    // function deleteProfile(uint72 identityId) external onlyAdmin(identityId) {\n    //     // TODO: add checks\n    //     profileStorage.deleteProfile(identityId);\n    //     identityContract.deleteIdentity(identityId);\n    // }\n\n    // function changeNodeId(uint72 identityId, bytes calldata nodeId) external onlyOperational(identityId) {\n    //     require(nodeId.length != 0, \"Node ID can't be empty\");\n\n    //     profileStorage.setNodeId(identityId, nodeId);\n    // }\n\n    // function addNewNodeIdHash(uint72 identityId, uint8 hashFunctionId) external onlyOperational(identityId) {\n    //     require(hashingProxy.isHashFunction(hashFunctionId), \"Hash function doesn't exist\");\n\n    //     profileStorage.setNodeAddress(identityId, hashFunctionId);\n    // }\n\n    // TODO: Define where it can be called, change internal modifier\n    function _setAvailableNodeAddresses(uint72 identityId) internal {\n        ProfileStorage ps = profileStorage;\n        HashingProxy hp = hashingProxy;\n\n        UnorderedIndexableContractDynamicSetLib.Contract[] memory hashFunctions = hp.getAllHashFunctions();\n        uint256 hashFunctionsNumber = hashFunctions.length;\n        for (uint8 i; i < hashFunctionsNumber; ) {\n            ps.setNodeAddress(identityId, hashFunctions[i].id);\n            unchecked { i++; }\n        }\n    }\n\n    function stakeAccumulatedOperatorFee(uint72 identityId) external onlyAdmin(identityId) {\n        ProfileStorage ps = profileStorage;\n\n        uint96 accumulatedOperatorFee = ps.getAccumulatedOperatorFee(identityId);\n        require(accumulatedOperatorFee != 0, \"You have no operator fees\");\n\n        ps.setAccumulatedOperatorFee(identityId, 0);\n        stakingContract.addStake(identityId, accumulatedOperatorFee);\n    }\n\n    function withdrawAccumulatedOperatorFee(uint72 identityId) external onlyAdmin(identityId) {\n        ProfileStorage ps = profileStorage;\n\n        uint96 accumulatedOperatorFee = ps.getAccumulatedOperatorFee(identityId);\n        require(accumulatedOperatorFee != 0, \"You have no operator fees\");\n\n        ps.setAccumulatedOperatorFee(identityId, 0);\n        ps.transferTokens(msg.sender, accumulatedOperatorFee);\n    }\n\n    function _checkAdmin(uint72 identityId) internal view virtual {\n        require(\n            identityStorage.keyHasPurpose(identityId, keccak256(abi.encodePacked(msg.sender)), ADMIN_KEY),\n            \"Admin function\"\n        );\n    }\n\n    function _checkOperational(uint72 identityId) internal view virtual {\n        require(\n            identityStorage.keyHasPurpose(identityId, keccak256(abi.encodePacked(msg.sender)), OPERATIONAL_KEY),\n            \"Fn can be called only by oper.\"\n        );\n    }\n\n}\n",
  "sourcePath": "/Users/waving/Desktop/OriginTrail/dkg-evm-module/contracts/Profile.sol",
  "compiler": {
    "name": "solc",
    "version": "0.8.14+commit.80d49f37.Emscripten.clang"
  },
  "schemaVersion": "3.4.10",
  "updatedAt": "2022-12-02T10:25:44.583Z",
  "devdoc": {
    "kind": "dev",
    "methods": {},
    "version": 1
  },
  "userdoc": {
    "kind": "user",
    "methods": {},
    "version": 1
  }
}