{
  "contractName": "ProfileStorage",
  "abi": [
    {
      "inputs": [
        {
          "internalType": "address",
          "name": "hubAddress",
          "type": "address"
        }
      ],
      "stateMutability": "nonpayable",
      "type": "constructor"
    },
    {
      "anonymous": false,
      "inputs": [
        {
          "indexed": true,
          "internalType": "uint72",
          "name": "identityId",
          "type": "uint72"
        },
        {
          "indexed": false,
          "internalType": "bytes",
          "name": "nodeId",
          "type": "bytes"
        },
        {
          "indexed": false,
          "internalType": "uint96",
          "name": "ask",
          "type": "uint96"
        }
      ],
      "name": "AskUpdated",
      "type": "event"
    },
    {
      "anonymous": false,
      "inputs": [
        {
          "indexed": true,
          "internalType": "uint72",
          "name": "identityId",
          "type": "uint72"
        },
        {
          "indexed": false,
          "internalType": "bytes",
          "name": "nodeId",
          "type": "bytes"
        },
        {
          "indexed": false,
          "internalType": "uint96",
          "name": "reward",
          "type": "uint96"
        }
      ],
      "name": "RewardUpdated",
      "type": "event"
    },
    {
      "anonymous": false,
      "inputs": [
        {
          "indexed": true,
          "internalType": "uint72",
          "name": "identityId",
          "type": "uint72"
        },
        {
          "indexed": false,
          "internalType": "bytes",
          "name": "nodeId",
          "type": "bytes"
        },
        {
          "indexed": false,
          "internalType": "uint96",
          "name": "stake",
          "type": "uint96"
        }
      ],
      "name": "StakeUpdated",
      "type": "event"
    },
    {
      "inputs": [],
      "name": "hub",
      "outputs": [
        {
          "internalType": "contract Hub",
          "name": "",
          "type": "address"
        }
      ],
      "stateMutability": "view",
      "type": "function"
    },
    {
      "inputs": [
        {
          "internalType": "bytes",
          "name": "",
          "type": "bytes"
        }
      ],
      "name": "nodeIdsList",
      "outputs": [
        {
          "internalType": "bool",
          "name": "",
          "type": "bool"
        }
      ],
      "stateMutability": "view",
      "type": "function"
    },
    {
      "inputs": [
        {
          "internalType": "address",
          "name": "operationalWallet",
          "type": "address"
        },
        {
          "internalType": "address",
          "name": "adminWallet",
          "type": "address"
        },
        {
          "internalType": "bytes",
          "name": "nodeId",
          "type": "bytes"
        },
        {
          "internalType": "uint96",
          "name": "initialAsk",
          "type": "uint96"
        },
        {
          "internalType": "uint96",
          "name": "initialStake",
          "type": "uint96"
        }
      ],
      "name": "createProfile",
      "outputs": [
        {
          "internalType": "uint72",
          "name": "",
          "type": "uint72"
        }
      ],
      "stateMutability": "nonpayable",
      "type": "function"
    },
    {
      "inputs": [
        {
          "internalType": "uint72",
          "name": "identityId",
          "type": "uint72"
        }
      ],
      "name": "getProfile",
      "outputs": [
        {
          "internalType": "uint96[6]",
          "name": "",
          "type": "uint96[6]"
        },
        {
          "internalType": "uint256[3]",
          "name": "",
          "type": "uint256[3]"
        },
        {
          "internalType": "bytes",
          "name": "",
          "type": "bytes"
        }
      ],
      "stateMutability": "view",
      "type": "function"
    },
    {
      "inputs": [
        {
          "internalType": "uint72",
          "name": "identityId",
          "type": "uint72"
        }
      ],
      "name": "getAsk",
      "outputs": [
        {
          "internalType": "uint96",
          "name": "",
          "type": "uint96"
        }
      ],
      "stateMutability": "view",
      "type": "function"
    },
    {
      "inputs": [
        {
          "internalType": "uint72",
          "name": "identityId",
          "type": "uint72"
        }
      ],
      "name": "getStake",
      "outputs": [
        {
          "internalType": "uint96",
          "name": "",
          "type": "uint96"
        }
      ],
      "stateMutability": "view",
      "type": "function"
    },
    {
      "inputs": [
        {
          "internalType": "uint72",
          "name": "identityId",
          "type": "uint72"
        }
      ],
      "name": "getReward",
      "outputs": [
        {
          "internalType": "uint96",
          "name": "",
          "type": "uint96"
        }
      ],
      "stateMutability": "view",
      "type": "function"
    },
    {
      "inputs": [
        {
          "internalType": "uint72",
          "name": "identityId",
          "type": "uint72"
        }
      ],
      "name": "getStakeWithdrawalAmount",
      "outputs": [
        {
          "internalType": "uint96",
          "name": "",
          "type": "uint96"
        }
      ],
      "stateMutability": "view",
      "type": "function"
    },
    {
      "inputs": [
        {
          "internalType": "uint72",
          "name": "identityId",
          "type": "uint72"
        }
      ],
      "name": "getRewardWithdrawalAmount",
      "outputs": [
        {
          "internalType": "uint96",
          "name": "",
          "type": "uint96"
        }
      ],
      "stateMutability": "view",
      "type": "function"
    },
    {
      "inputs": [
        {
          "internalType": "uint72",
          "name": "identityId",
          "type": "uint72"
        }
      ],
      "name": "getFrozenAmount",
      "outputs": [
        {
          "internalType": "uint96",
          "name": "",
          "type": "uint96"
        }
      ],
      "stateMutability": "view",
      "type": "function"
    },
    {
      "inputs": [
        {
          "internalType": "uint72",
          "name": "identityId",
          "type": "uint72"
        }
      ],
      "name": "getStakeWithdrawalTimestamp",
      "outputs": [
        {
          "internalType": "uint256",
          "name": "",
          "type": "uint256"
        }
      ],
      "stateMutability": "view",
      "type": "function"
    },
    {
      "inputs": [
        {
          "internalType": "uint72",
          "name": "identityId",
          "type": "uint72"
        }
      ],
      "name": "getRewardWithdrawalTimestamp",
      "outputs": [
        {
          "internalType": "uint256",
          "name": "",
          "type": "uint256"
        }
      ],
      "stateMutability": "view",
      "type": "function"
    },
    {
      "inputs": [
        {
          "internalType": "uint72",
          "name": "identityId",
          "type": "uint72"
        }
      ],
      "name": "getFreezeTimestamp",
      "outputs": [
        {
          "internalType": "uint256",
          "name": "",
          "type": "uint256"
        }
      ],
      "stateMutability": "view",
      "type": "function"
    },
    {
      "inputs": [
        {
          "internalType": "uint72",
          "name": "identityId",
          "type": "uint72"
        }
      ],
      "name": "getNodeId",
      "outputs": [
        {
          "internalType": "bytes",
          "name": "",
          "type": "bytes"
        }
      ],
      "stateMutability": "view",
      "type": "function"
    },
    {
      "inputs": [
        {
          "internalType": "uint72",
          "name": "identityId",
          "type": "uint72"
        },
        {
          "internalType": "uint8",
          "name": "hashFunctionId",
          "type": "uint8"
        }
      ],
      "name": "getNodeAddress",
      "outputs": [
        {
          "internalType": "bytes32",
          "name": "",
          "type": "bytes32"
        }
      ],
      "stateMutability": "view",
      "type": "function"
    },
    {
      "inputs": [
        {
          "internalType": "uint72",
          "name": "identityId",
          "type": "uint72"
        },
        {
          "internalType": "uint96",
          "name": "ask",
          "type": "uint96"
        }
      ],
      "name": "setAsk",
      "outputs": [],
      "stateMutability": "nonpayable",
      "type": "function"
    },
    {
      "inputs": [
        {
          "internalType": "uint72",
          "name": "identityId",
          "type": "uint72"
        },
        {
          "internalType": "uint96",
          "name": "stake",
          "type": "uint96"
        }
      ],
      "name": "setStake",
      "outputs": [],
      "stateMutability": "nonpayable",
      "type": "function"
    },
    {
      "inputs": [
        {
          "internalType": "uint72",
          "name": "identityId",
          "type": "uint72"
        },
        {
          "internalType": "uint96",
          "name": "reward",
          "type": "uint96"
        }
      ],
      "name": "setReward",
      "outputs": [],
      "stateMutability": "nonpayable",
      "type": "function"
    },
    {
      "inputs": [
        {
          "internalType": "uint72",
          "name": "identityId",
          "type": "uint72"
        },
        {
          "internalType": "uint96",
          "name": "stakeWithdrawalAmount",
          "type": "uint96"
        }
      ],
      "name": "setStakeWithdrawalAmount",
      "outputs": [],
      "stateMutability": "nonpayable",
      "type": "function"
    },
    {
      "inputs": [
        {
          "internalType": "uint72",
          "name": "identityId",
          "type": "uint72"
        },
        {
          "internalType": "uint96",
          "name": "rewardWithdrawalAmount",
          "type": "uint96"
        }
      ],
      "name": "setRewardWithdrawalAmount",
      "outputs": [],
      "stateMutability": "nonpayable",
      "type": "function"
    },
    {
      "inputs": [
        {
          "internalType": "uint72",
          "name": "identityId",
          "type": "uint72"
        },
        {
          "internalType": "uint96",
          "name": "frozenAmount",
          "type": "uint96"
        }
      ],
      "name": "setFrozenAmount",
      "outputs": [],
      "stateMutability": "nonpayable",
      "type": "function"
    },
    {
      "inputs": [
        {
          "internalType": "uint72",
          "name": "identityId",
          "type": "uint72"
        },
        {
          "internalType": "uint256",
          "name": "stakeWithdrawalTimestamp",
          "type": "uint256"
        }
      ],
      "name": "setStakeWithdrawalTimestamp",
      "outputs": [],
      "stateMutability": "nonpayable",
      "type": "function"
    },
    {
      "inputs": [
        {
          "internalType": "uint72",
          "name": "identityId",
          "type": "uint72"
        },
        {
          "internalType": "uint256",
          "name": "rewardWithdrawalTimestamp",
          "type": "uint256"
        }
      ],
      "name": "setRewardWithdrawalTimestamp",
      "outputs": [],
      "stateMutability": "nonpayable",
      "type": "function"
    },
    {
      "inputs": [
        {
          "internalType": "uint72",
          "name": "identityId",
          "type": "uint72"
        },
        {
          "internalType": "uint256",
          "name": "freezeTimestamp",
          "type": "uint256"
        }
      ],
      "name": "setFreezeTimestamp",
      "outputs": [],
      "stateMutability": "nonpayable",
      "type": "function"
    },
    {
      "inputs": [
        {
          "internalType": "uint72",
          "name": "identityId",
          "type": "uint72"
        },
        {
          "internalType": "bytes",
          "name": "nodeId",
          "type": "bytes"
        }
      ],
      "name": "setNodeId",
      "outputs": [],
      "stateMutability": "nonpayable",
      "type": "function"
    },
    {
      "inputs": [
        {
          "internalType": "uint72",
          "name": "identityId",
          "type": "uint72"
        },
        {
          "internalType": "uint8",
          "name": "hashFunctionId",
          "type": "uint8"
        }
      ],
      "name": "setNodeAddress",
      "outputs": [],
      "stateMutability": "nonpayable",
      "type": "function"
    },
    {
      "inputs": [
        {
          "internalType": "address",
          "name": "receiver",
          "type": "address"
        },
        {
          "internalType": "uint96",
          "name": "amount",
          "type": "uint96"
        }
      ],
      "name": "transferTokens",
      "outputs": [],
      "stateMutability": "nonpayable",
      "type": "function"
    }
  ],
  "bytecode": "0x60806040523480156200001157600080fd5b50604051620037e6380380620037e6833981810160405281019062000037919062000122565b600073ffffffffffffffffffffffffffffffffffffffff168173ffffffffffffffffffffffffffffffffffffffff16036200007157600080fd5b806000806101000a81548173ffffffffffffffffffffffffffffffffffffffff021916908373ffffffffffffffffffffffffffffffffffffffff1602179055505062000154565b600080fd5b600073ffffffffffffffffffffffffffffffffffffffff82169050919050565b6000620000ea82620000bd565b9050919050565b620000fc81620000dd565b81146200010857600080fd5b50565b6000815190506200011c81620000f1565b92915050565b6000602082840312156200013b576200013a620000b8565b5b60006200014b848285016200010b565b91505092915050565b61368280620001646000396000f3fe608060405234801561001057600080fd5b50600436106101a95760003560e01c806368dae4fd116100f9578063d43e263a11610097578063ec23453911610071578063ec23453914610512578063edf530c014610542578063f011411114610572578063f2a94158146105a2576101a9565b8063d43e263a14610494578063d9e2bcbc146104b0578063e49f999b146104e0576101a9565b8063b310c9a5116100d3578063b310c9a5146103e8578063b89bba0614610418578063c1713b0214610448578063d184a86914610478576101a9565b806368dae4fd14610380578063947bb6151461039c578063abe979e1146103cc576101a9565b8063365a86fc1161016657806352772b461161014057806352772b46146102e857806360d6e7a8146103045780636340985d1461033457806368006d7d14610364576101a9565b8063365a86fc1461026a57806339fb67dd1461028857806341c10b9a146102b8576101a9565b806303e9f0a1146101ae57806306b97606146101ca57806322bd9e81146101e657806325ef579e1461020257806331909bc81461021e578063356598651461023a575b600080fd5b6101c860048036038101906101c39190612506565b6105be565b005b6101e460048036038101906101df9190612506565b610743565b005b61020060048036038101906101fb919061268c565b61087b565b005b61021c6004803603810190610217919061271e565b610a75565b005b61023860048036038101906102339190612506565b610b83565b005b610254600480360381019061024f919061275e565b610cbb565b604051610261919061279a565b60405180910390f35b610272610cf1565b60405161027f9190612834565b60405180910390f35b6102a2600480360381019061029d919061275e565b610d15565b6040516102af919061285e565b60405180910390f35b6102d260048036038101906102cd919061275e565b610d63565b6040516102df9190612901565b60405180910390f35b61030260048036038101906102fd9190612506565b610e21565b005b61031e6004803603810190610319919061275e565b610f59565b60405161032b919061285e565b60405180910390f35b61034e6004803603810190610349919061275e565b610fa7565b60405161035b919061285e565b60405180910390f35b61037e6004803603810190610379919061271e565b610ff5565b005b61039a6004803603810190610395919061295c565b611103565b005b6103b660048036038101906103b1919061299c565b61136e565b6040516103c39190612a00565b60405180910390f35b6103e660048036038101906103e19190612a59565b6113a4565b005b61040260048036038101906103fd919061275e565b61160d565b60405161040f919061279a565b60405180910390f35b610432600480360381019061042d919061295c565b611643565b60405161043f9190612ab2565b60405180910390f35b610462600480360381019061045d919061275e565b611691565b60405161046f919061285e565b60405180910390f35b610492600480360381019061048d9190612506565b6116df565b005b6104ae60048036038101906104a9919061271e565b6118b5565b005b6104ca60048036038101906104c59190612acd565b6119c3565b6040516104d79190612b73565b60405180910390f35b6104fa60048036038101906104f5919061275e565b611eae565b60405161050993929190612ce4565b60405180910390f35b61052c6004803603810190610527919061275e565b61212f565b604051610539919061279a565b60405180910390f35b61055c6004803603810190610557919061275e565b612165565b604051610569919061285e565b60405180910390f35b61058c6004803603810190610587919061275e565b6121b3565b604051610599919061285e565b60405180910390f35b6105bc60048036038101906105b79190612506565b612201565b005b60008054906101000a900473ffffffffffffffffffffffffffffffffffffffff1673ffffffffffffffffffffffffffffffffffffffff166316279055336040518263ffffffff1660e01b81526004016106179190612d33565b602060405180830381865afa158015610634573d6000803e3d6000fd5b505050506040513d601f19601f820116820180604052508101906106589190612d7a565b610697576040517f08c379a000000000000000000000000000000000000000000000000000000000815260040161068e90612e2a565b60405180910390fd5b80600260008468ffffffffffffffffff1668ffffffffffffffffff16815260200190815260200160002060010160006101000a8154816bffffffffffffffffffffffff02191690836bffffffffffffffffffffffff1602179055508168ffffffffffffffffff167f8ec168b44423787fad2a738fe576b46638234adc8d5be00f7928747c4bf44fca61072884610d63565b83604051610737929190612e4a565b60405180910390a25050565b60008054906101000a900473ffffffffffffffffffffffffffffffffffffffff1673ffffffffffffffffffffffffffffffffffffffff166316279055336040518263ffffffff1660e01b815260040161079c9190612d33565b602060405180830381865afa1580156107b9573d6000803e3d6000fd5b505050506040513d601f19601f820116820180604052508101906107dd9190612d7a565b61081c576040517f08c379a000000000000000000000000000000000000000000000000000000000815260040161081390612e2a565b60405180910390fd5b80600260008468ffffffffffffffffff1668ffffffffffffffffff168152602001908152602001600020600201600c6101000a8154816bffffffffffffffffffffffff02191690836bffffffffffffffffffffffff1602179055505050565b60008054906101000a900473ffffffffffffffffffffffffffffffffffffffff1673ffffffffffffffffffffffffffffffffffffffff166316279055336040518263ffffffff1660e01b81526004016108d49190612d33565b602060405180830381865afa1580156108f1573d6000803e3d6000fd5b505050506040513d601f19601f820116820180604052508101906109159190612d7a565b610954576040517f08c379a000000000000000000000000000000000000000000000000000000000815260040161094b90612e2a565b60405180910390fd5b6000815103610998576040517f08c379a000000000000000000000000000000000000000000000000000000000815260040161098f90612ec6565b60405180910390fd5b80600260008468ffffffffffffffffff1668ffffffffffffffffff16815260200190815260200160002060060190805190602001906109d8929190612386565b5060006001600260008568ffffffffffffffffff1668ffffffffffffffffff168152602001908152602001600020600601604051610a169190612fe5565b908152602001604051809103902060006101000a81548160ff02191690831515021790555060018082604051610a4c919061302d565b908152602001604051809103902060006101000a81548160ff0219169083151502179055505050565b60008054906101000a900473ffffffffffffffffffffffffffffffffffffffff1673ffffffffffffffffffffffffffffffffffffffff166316279055336040518263ffffffff1660e01b8152600401610ace9190612d33565b602060405180830381865afa158015610aeb573d6000803e3d6000fd5b505050506040513d601f19601f82011682018060405250810190610b0f9190612d7a565b610b4e576040517f08c379a0000000000000000000000000000000000000000000000000000000008152600401610b4590612e2a565b60405180910390fd5b80600260008468ffffffffffffffffff1668ffffffffffffffffff168152602001908152602001600020600501819055505050565b60008054906101000a900473ffffffffffffffffffffffffffffffffffffffff1673ffffffffffffffffffffffffffffffffffffffff166316279055336040518263ffffffff1660e01b8152600401610bdc9190612d33565b602060405180830381865afa158015610bf9573d6000803e3d6000fd5b505050506040513d601f19601f82011682018060405250810190610c1d9190612d7a565b610c5c576040517f08c379a0000000000000000000000000000000000000000000000000000000008152600401610c5390612e2a565b60405180910390fd5b80600260008468ffffffffffffffffff1668ffffffffffffffffff16815260200190815260200160002060020160006101000a8154816bffffffffffffffffffffffff02191690836bffffffffffffffffffffffff1602179055505050565b6000600260008368ffffffffffffffffff1668ffffffffffffffffff168152602001908152602001600020600501549050919050565b60008054906101000a900473ffffffffffffffffffffffffffffffffffffffff1681565b6000600260008368ffffffffffffffffff1668ffffffffffffffffff16815260200190815260200160002060000160009054906101000a90046bffffffffffffffffffffffff169050919050565b6060600260008368ffffffffffffffffff1668ffffffffffffffffff1681526020019081526020016000206006018054610d9c90612f15565b80601f0160208091040260200160405190810160405280929190818152602001828054610dc890612f15565b8015610e155780601f10610dea57610100808354040283529160200191610e15565b820191906000526020600020905b815481529060010190602001808311610df857829003601f168201915b50505050509050919050565b60008054906101000a900473ffffffffffffffffffffffffffffffffffffffff1673ffffffffffffffffffffffffffffffffffffffff166316279055336040518263ffffffff1660e01b8152600401610e7a9190612d33565b602060405180830381865afa158015610e97573d6000803e3d6000fd5b505050506040513d601f19601f82011682018060405250810190610ebb9190612d7a565b610efa576040517f08c379a0000000000000000000000000000000000000000000000000000000008152600401610ef190612e2a565b60405180910390fd5b80600260008468ffffffffffffffffff1668ffffffffffffffffff168152602001908152602001600020600101600c6101000a8154816bffffffffffffffffffffffff02191690836bffffffffffffffffffffffff1602179055505050565b6000600260008368ffffffffffffffffff1668ffffffffffffffffff16815260200190815260200160002060020160009054906101000a90046bffffffffffffffffffffffff169050919050565b6000600260008368ffffffffffffffffff1668ffffffffffffffffff168152602001908152602001600020600201600c9054906101000a90046bffffffffffffffffffffffff169050919050565b60008054906101000a900473ffffffffffffffffffffffffffffffffffffffff1673ffffffffffffffffffffffffffffffffffffffff166316279055336040518263ffffffff1660e01b815260040161104e9190612d33565b602060405180830381865afa15801561106b573d6000803e3d6000fd5b505050506040513d601f19601f8201168201806040525081019061108f9190612d7a565b6110ce576040517f08c379a00000000000000000000000000000000000000000000000000000000081526004016110c590612e2a565b60405180910390fd5b80600260008468ffffffffffffffffff1668ffffffffffffffffff168152602001908152602001600020600301819055505050565b60008054906101000a900473ffffffffffffffffffffffffffffffffffffffff1673ffffffffffffffffffffffffffffffffffffffff166316279055336040518263ffffffff1660e01b815260040161115c9190612d33565b602060405180830381865afa158015611179573d6000803e3d6000fd5b505050506040513d601f19601f8201168201806040525081019061119d9190612d7a565b6111dc576040517f08c379a00000000000000000000000000000000000000000000000000000000081526004016111d390612e2a565b60405180910390fd5b60008060009054906101000a900473ffffffffffffffffffffffffffffffffffffffff1673ffffffffffffffffffffffffffffffffffffffff166304433bbc6040518163ffffffff1660e01b815260040161123690613090565b602060405180830381865afa158015611253573d6000803e3d6000fd5b505050506040513d601f19601f8201168201806040525081019061127791906130c5565b90508073ffffffffffffffffffffffffffffffffffffffff166345ed59e583600260008768ffffffffffffffffff1668ffffffffffffffffff1681526020019081526020016000206006016040518363ffffffff1660e01b81526004016112df929190613181565b6020604051808303816000875af11580156112fe573d6000803e3d6000fd5b505050506040513d601f19601f8201168201806040525081019061132291906131dd565b600260008568ffffffffffffffffff1668ffffffffffffffffff16815260200190815260200160002060070160008460ff1660ff16815260200190815260200160002081905550505050565b6001818051602081018201805184825260208301602085012081835280955050505050506000915054906101000a900460ff1681565b60008054906101000a900473ffffffffffffffffffffffffffffffffffffffff1673ffffffffffffffffffffffffffffffffffffffff166316279055336040518263ffffffff1660e01b81526004016113fd9190612d33565b602060405180830381865afa15801561141a573d6000803e3d6000fd5b505050506040513d601f19601f8201168201806040525081019061143e9190612d7a565b61147d576040517f08c379a000000000000000000000000000000000000000000000000000000000815260040161147490612e2a565b60405180910390fd5b600073ffffffffffffffffffffffffffffffffffffffff168273ffffffffffffffffffffffffffffffffffffffff16036114ec576040517f08c379a00000000000000000000000000000000000000000000000000000000081526004016114e390613256565b60405180910390fd5b60008060009054906101000a900473ffffffffffffffffffffffffffffffffffffffff1673ffffffffffffffffffffffffffffffffffffffff166304433bbc6040518163ffffffff1660e01b8152600401611546906132c2565b602060405180830381865afa158015611563573d6000803e3d6000fd5b505050506040513d601f19601f8201168201806040525081019061158791906130c5565b90508073ffffffffffffffffffffffffffffffffffffffff1663a9059cbb84846040518363ffffffff1660e01b81526004016115c4929190613313565b6020604051808303816000875af11580156115e3573d6000803e3d6000fd5b505050506040513d601f19601f820116820180604052508101906116079190612d7a565b50505050565b6000600260008368ffffffffffffffffff1668ffffffffffffffffff168152602001908152602001600020600301549050919050565b6000600260008468ffffffffffffffffff1668ffffffffffffffffff16815260200190815260200160002060070160008360ff1660ff16815260200190815260200160002054905092915050565b6000600260008368ffffffffffffffffff1668ffffffffffffffffff16815260200190815260200160002060010160009054906101000a90046bffffffffffffffffffffffff169050919050565b60008054906101000a900473ffffffffffffffffffffffffffffffffffffffff1673ffffffffffffffffffffffffffffffffffffffff166316279055336040518263ffffffff1660e01b81526004016117389190612d33565b602060405180830381865afa158015611755573d6000803e3d6000fd5b505050506040513d601f19601f820116820180604052508101906117799190612d7a565b6117b8576040517f08c379a00000000000000000000000000000000000000000000000000000000081526004016117af90612e2a565b60405180910390fd5b6000816bffffffffffffffffffffffff1611611809576040517f08c379a000000000000000000000000000000000000000000000000000000000815260040161180090613388565b60405180910390fd5b80600260008468ffffffffffffffffff1668ffffffffffffffffff16815260200190815260200160002060000160006101000a8154816bffffffffffffffffffffffff02191690836bffffffffffffffffffffffff1602179055508168ffffffffffffffffff167f49030f1a1927583e71883baca5a4776a7878294f0f0e1e1788734a335d0dfe7f61189a84610d63565b836040516118a9929190612e4a565b60405180910390a25050565b60008054906101000a900473ffffffffffffffffffffffffffffffffffffffff1673ffffffffffffffffffffffffffffffffffffffff166316279055336040518263ffffffff1660e01b815260040161190e9190612d33565b602060405180830381865afa15801561192b573d6000803e3d6000fd5b505050506040513d601f19601f8201168201806040525081019061194f9190612d7a565b61198e576040517f08c379a000000000000000000000000000000000000000000000000000000000815260040161198590612e2a565b60405180910390fd5b80600260008468ffffffffffffffffff1668ffffffffffffffffff168152602001908152602001600020600401819055505050565b60008060009054906101000a900473ffffffffffffffffffffffffffffffffffffffff1673ffffffffffffffffffffffffffffffffffffffff166316279055336040518263ffffffff1660e01b8152600401611a1f9190612d33565b602060405180830381865afa158015611a3c573d6000803e3d6000fd5b505050506040513d601f19601f82011682018060405250810190611a609190612d7a565b611a9f576040517f08c379a0000000000000000000000000000000000000000000000000000000008152600401611a9690612e2a565b60405180910390fd5b60008060009054906101000a900473ffffffffffffffffffffffffffffffffffffffff1673ffffffffffffffffffffffffffffffffffffffff166304433bbc6040518163ffffffff1660e01b8152600401611af9906133f4565b602060405180830381865afa158015611b16573d6000803e3d6000fd5b505050506040513d601f19601f82011682018060405250810190611b3a91906130c5565b9050600087604051602001611b4f919061345c565b60405160208183030381529060405280519060200120905060008273ffffffffffffffffffffffffffffffffffffffff16631fc2b3ab836040518263ffffffff1660e01b8152600401611ba29190612ab2565b602060405180830381865afa158015611bbf573d6000803e3d6000fd5b505050506040513d601f19601f82011682018060405250810190611be3919061348c565b68ffffffffffffffffff1614611c2e576040517f08c379a0000000000000000000000000000000000000000000000000000000008152600401611c2590613505565b60405180910390fd5b600186604051611c3e919061302d565b908152602001604051809103902060009054906101000a900460ff1615611c9a576040517f08c379a0000000000000000000000000000000000000000000000000000000008152600401611c9190613597565b60405180910390fd5b6000865103611cde576040517f08c379a0000000000000000000000000000000000000000000000000000000008152600401611cd590612ec6565b60405180910390fd5b6000856bffffffffffffffffffffffff1611611d2f576040517f08c379a0000000000000000000000000000000000000000000000000000000008152600401611d2690613603565b60405180910390fd5b60008273ffffffffffffffffffffffffffffffffffffffff1663d10e73ab8a8a6040518363ffffffff1660e01b8152600401611d6c929190613623565b6020604051808303816000875af1158015611d8b573d6000803e3d6000fd5b505050506040513d601f19601f82011682018060405250810190611daf919061348c565b90506000600260008368ffffffffffffffffff1668ffffffffffffffffff1681526020019081526020016000209050868160000160006101000a8154816bffffffffffffffffffffffff02191690836bffffffffffffffffffffffff1602179055508581600001600c6101000a8154816bffffffffffffffffffffffff02191690836bffffffffffffffffffffffff16021790555087816006019080519060200190611e5c929190612386565b50611e68826000611103565b60018089604051611e79919061302d565b908152602001604051809103902060006101000a81548160ff0219169083151502179055508194505050505095945050505050565b611eb661240c565b611ebe61242e565b60606000600260008668ffffffffffffffffff1668ffffffffffffffffff16815260200190815260200160002090506040518060c001604052808260000160009054906101000a90046bffffffffffffffffffffffff166bffffffffffffffffffffffff166bffffffffffffffffffffffff16815260200182600001600c9054906101000a90046bffffffffffffffffffffffff166bffffffffffffffffffffffff166bffffffffffffffffffffffff1681526020018260010160009054906101000a90046bffffffffffffffffffffffff166bffffffffffffffffffffffff166bffffffffffffffffffffffff16815260200182600101600c9054906101000a90046bffffffffffffffffffffffff166bffffffffffffffffffffffff166bffffffffffffffffffffffff1681526020018260020160009054906101000a90046bffffffffffffffffffffffff166bffffffffffffffffffffffff166bffffffffffffffffffffffff16815260200182600201600c9054906101000a90046bffffffffffffffffffffffff166bffffffffffffffffffffffff166bffffffffffffffffffffffff16815250604051806060016040528083600301548152602001836004015481526020018360050154815250826006018080546120a190612f15565b80601f01602080910402602001604051908101604052809291908181526020018280546120cd90612f15565b801561211a5780601f106120ef5761010080835404028352916020019161211a565b820191906000526020600020905b8154815290600101906020018083116120fd57829003601f168201915b50505050509050935093509350509193909250565b6000600260008368ffffffffffffffffff1668ffffffffffffffffff168152602001908152602001600020600401549050919050565b6000600260008368ffffffffffffffffff1668ffffffffffffffffff168152602001908152602001600020600001600c9054906101000a90046bffffffffffffffffffffffff169050919050565b6000600260008368ffffffffffffffffff1668ffffffffffffffffff168152602001908152602001600020600101600c9054906101000a90046bffffffffffffffffffffffff169050919050565b60008054906101000a900473ffffffffffffffffffffffffffffffffffffffff1673ffffffffffffffffffffffffffffffffffffffff166316279055336040518263ffffffff1660e01b815260040161225a9190612d33565b602060405180830381865afa158015612277573d6000803e3d6000fd5b505050506040513d601f19601f8201168201806040525081019061229b9190612d7a565b6122da576040517f08c379a00000000000000000000000000000000000000000000000000000000081526004016122d190612e2a565b60405180910390fd5b80600260008468ffffffffffffffffff1668ffffffffffffffffff168152602001908152602001600020600001600c6101000a8154816bffffffffffffffffffffffff02191690836bffffffffffffffffffffffff1602179055508168ffffffffffffffffff167f678833f127390cc2c97954da81aa12ebe19cd392eecf6047036f6a576c15b87161236b84610d63565b8360405161237a929190612e4a565b60405180910390a25050565b82805461239290612f15565b90600052602060002090601f0160209004810192826123b457600085556123fb565b82601f106123cd57805160ff19168380011785556123fb565b828001600101855582156123fb579182015b828111156123fa5782518255916020019190600101906123df565b5b5090506124089190612450565b5090565b6040518060c00160405280600690602082028036833780820191505090505090565b6040518060600160405280600390602082028036833780820191505090505090565b5b80821115612469576000816000905550600101612451565b5090565b6000604051905090565b600080fd5b600080fd5b600068ffffffffffffffffff82169050919050565b61249f81612481565b81146124aa57600080fd5b50565b6000813590506124bc81612496565b92915050565b60006bffffffffffffffffffffffff82169050919050565b6124e3816124c2565b81146124ee57600080fd5b50565b600081359050612500816124da565b92915050565b6000806040838503121561251d5761251c612477565b5b600061252b858286016124ad565b925050602061253c858286016124f1565b9150509250929050565b600080fd5b600080fd5b6000601f19601f8301169050919050565b7f4e487b7100000000000000000000000000000000000000000000000000000000600052604160045260246000fd5b61259982612550565b810181811067ffffffffffffffff821117156125b8576125b7612561565b5b80604052505050565b60006125cb61246d565b90506125d78282612590565b919050565b600067ffffffffffffffff8211156125f7576125f6612561565b5b61260082612550565b9050602081019050919050565b82818337600083830152505050565b600061262f61262a846125dc565b6125c1565b90508281526020810184848401111561264b5761264a61254b565b5b61265684828561260d565b509392505050565b600082601f83011261267357612672612546565b5b813561268384826020860161261c565b91505092915050565b600080604083850312156126a3576126a2612477565b5b60006126b1858286016124ad565b925050602083013567ffffffffffffffff8111156126d2576126d161247c565b5b6126de8582860161265e565b9150509250929050565b6000819050919050565b6126fb816126e8565b811461270657600080fd5b50565b600081359050612718816126f2565b92915050565b6000806040838503121561273557612734612477565b5b6000612743858286016124ad565b925050602061275485828601612709565b9150509250929050565b60006020828403121561277457612773612477565b5b6000612782848285016124ad565b91505092915050565b612794816126e8565b82525050565b60006020820190506127af600083018461278b565b92915050565b600073ffffffffffffffffffffffffffffffffffffffff82169050919050565b6000819050919050565b60006127fa6127f56127f0846127b5565b6127d5565b6127b5565b9050919050565b600061280c826127df565b9050919050565b600061281e82612801565b9050919050565b61282e81612813565b82525050565b60006020820190506128496000830184612825565b92915050565b612858816124c2565b82525050565b6000602082019050612873600083018461284f565b92915050565b600081519050919050565b600082825260208201905092915050565b60005b838110156128b3578082015181840152602081019050612898565b838111156128c2576000848401525b50505050565b60006128d382612879565b6128dd8185612884565b93506128ed818560208601612895565b6128f681612550565b840191505092915050565b6000602082019050818103600083015261291b81846128c8565b905092915050565b600060ff82169050919050565b61293981612923565b811461294457600080fd5b50565b60008135905061295681612930565b92915050565b6000806040838503121561297357612972612477565b5b6000612981858286016124ad565b925050602061299285828601612947565b9150509250929050565b6000602082840312156129b2576129b1612477565b5b600082013567ffffffffffffffff8111156129d0576129cf61247c565b5b6129dc8482850161265e565b91505092915050565b60008115159050919050565b6129fa816129e5565b82525050565b6000602082019050612a1560008301846129f1565b92915050565b6000612a26826127b5565b9050919050565b612a3681612a1b565b8114612a4157600080fd5b50565b600081359050612a5381612a2d565b92915050565b60008060408385031215612a7057612a6f612477565b5b6000612a7e85828601612a44565b9250506020612a8f858286016124f1565b9150509250929050565b6000819050919050565b612aac81612a99565b82525050565b6000602082019050612ac76000830184612aa3565b92915050565b600080600080600060a08688031215612ae957612ae8612477565b5b6000612af788828901612a44565b9550506020612b0888828901612a44565b945050604086013567ffffffffffffffff811115612b2957612b2861247c565b5b612b358882890161265e565b9350506060612b46888289016124f1565b9250506080612b57888289016124f1565b9150509295509295909350565b612b6d81612481565b82525050565b6000602082019050612b886000830184612b64565b92915050565b600060069050919050565b600081905092915050565b6000819050919050565b612bb7816124c2565b82525050565b6000612bc98383612bae565b60208301905092915050565b6000602082019050919050565b612beb81612b8e565b612bf58184612b99565b9250612c0082612ba4565b8060005b83811015612c31578151612c188782612bbd565b9650612c2383612bd5565b925050600181019050612c04565b505050505050565b600060039050919050565b600081905092915050565b6000819050919050565b612c62816126e8565b82525050565b6000612c748383612c59565b60208301905092915050565b6000602082019050919050565b612c9681612c39565b612ca08184612c44565b9250612cab82612c4f565b8060005b83811015612cdc578151612cc38782612c68565b9650612cce83612c80565b925050600181019050612caf565b505050505050565b600061014082019050612cfa6000830186612be2565b612d0760c0830185612c8d565b818103610120830152612d1a81846128c8565b9050949350505050565b612d2d81612a1b565b82525050565b6000602082019050612d486000830184612d24565b92915050565b612d57816129e5565b8114612d6257600080fd5b50565b600081519050612d7481612d4e565b92915050565b600060208284031215612d9057612d8f612477565b5b6000612d9e84828501612d65565b91505092915050565b600082825260208201905092915050565b7f46756e6374696f6e2063616e206f6e6c792062652063616c6c6564206279206360008201527f6f6e747261637473210000000000000000000000000000000000000000000000602082015250565b6000612e14602983612da7565b9150612e1f82612db8565b604082019050919050565b60006020820190508181036000830152612e4381612e07565b9050919050565b60006040820190508181036000830152612e6481856128c8565b9050612e73602083018461284f565b9392505050565b7f4e6f64652049442063616e277420626520656d70747900000000000000000000600082015250565b6000612eb0601683612da7565b9150612ebb82612e7a565b602082019050919050565b60006020820190508181036000830152612edf81612ea3565b9050919050565b7f4e487b7100000000000000000000000000000000000000000000000000000000600052602260045260246000fd5b60006002820490506001821680612f2d57607f821691505b602082108103612f4057612f3f612ee6565b5b50919050565b600081905092915050565b60008190508160005260206000209050919050565b60008154612f7381612f15565b612f7d8186612f46565b94506001821660008114612f985760018114612fa957612fdc565b60ff19831686528186019350612fdc565b612fb285612f51565b60005b83811015612fd457815481890152600182019150602081019050612fb5565b838801955050505b50505092915050565b6000612ff18284612f66565b915081905092915050565b600061300782612879565b6130118185612f46565b9350613021818560208601612895565b80840191505092915050565b60006130398284612ffc565b915081905092915050565b7f48617368696e6750726f78790000000000000000000000000000000000000000600082015250565b600061307a600c83612da7565b915061308582613044565b602082019050919050565b600060208201905081810360008301526130a98161306d565b9050919050565b6000815190506130bf81612a2d565b92915050565b6000602082840312156130db576130da612477565b5b60006130e9848285016130b0565b91505092915050565b6130fb81612923565b82525050565b6000815461310e81612f15565b6131188186612884565b94506001821660008114613133576001811461314557613178565b60ff1983168652602086019350613178565b61314e85612f51565b60005b8381101561317057815481890152600182019150602081019050613151565b808801955050505b50505092915050565b600060408201905061319660008301856130f2565b81810360208301526131a88184613101565b90509392505050565b6131ba81612a99565b81146131c557600080fd5b50565b6000815190506131d7816131b1565b92915050565b6000602082840312156131f3576131f2612477565b5b6000613201848285016131c8565b91505092915050565b7f526563656976657220616464726573732063616e277420626520656d70747900600082015250565b6000613240601f83612da7565b915061324b8261320a565b602082019050919050565b6000602082019050818103600083015261326f81613233565b9050919050565b7f546f6b656e000000000000000000000000000000000000000000000000000000600082015250565b60006132ac600583612da7565b91506132b782613276565b602082019050919050565b600060208201905081810360008301526132db8161329f565b9050919050565b60006132fd6132f86132f3846124c2565b6127d5565b6126e8565b9050919050565b61330d816132e2565b82525050565b60006040820190506133286000830185612d24565b6133356020830184613304565b9392505050565b7f41736b2063616e6e6f7420626520302e00000000000000000000000000000000600082015250565b6000613372601083612da7565b915061337d8261333c565b602082019050919050565b600060208201905081810360008301526133a181613365565b9050919050565b7f4964656e7469747953746f726167650000000000000000000000000000000000600082015250565b60006133de600f83612da7565b91506133e9826133a8565b602082019050919050565b6000602082019050818103600083015261340d816133d1565b9050919050565b60008160601b9050919050565b600061342c82613414565b9050919050565b600061343e82613421565b9050919050565b61345661345182612a1b565b613433565b82525050565b60006134688284613445565b60148201915081905092915050565b60008151905061348681612496565b92915050565b6000602082840312156134a2576134a1612477565b5b60006134b084828501613477565b91505092915050565b7f50726f66696c6520616c72656164792065786973747300000000000000000000600082015250565b60006134ef601683612da7565b91506134fa826134b9565b602082019050919050565b6000602082019050818103600083015261351e816134e2565b9050919050565b7f4e6f646520494420636f6e6e6563746564207769746820616e6f74686572207060008201527f726f66696c650000000000000000000000000000000000000000000000000000602082015250565b6000613581602683612da7565b915061358c82613525565b604082019050919050565b600060208201905081810360008301526135b081613574565b9050919050565b7f41736b2063616e27742062652030000000000000000000000000000000000000600082015250565b60006135ed600e83612da7565b91506135f8826135b7565b602082019050919050565b6000602082019050818103600083015261361c816135e0565b9050919050565b60006040820190506136386000830185612d24565b6136456020830184612d24565b939250505056fea2646970667358221220d85867e33f5ab8ee9851cc60605f32d2b31403605936cb2d78f8b59c64009e1564736f6c634300080e0033",
  "immutableReferences": {},
  "source": "// SPDX-License-Identifier: MIT\n\npragma solidity ^0.8.0;\n\nimport { HashingProxy } from \"../HashingProxy.sol\";\nimport { Hub } from \"../Hub.sol\";\nimport { IdentityStorage } from \"./IdentityStorage.sol\";\nimport { IERC20 } from \"@openzeppelin/contracts/token/ERC20/IERC20.sol\";\n\ncontract ProfileStorage {\n    event AskUpdated(uint72 indexed identityId, bytes nodeId, uint96 ask);\n    event StakeUpdated(uint72 indexed identityId, bytes nodeId, uint96 stake);\n    event RewardUpdated(uint72 indexed identityId, bytes nodeId, uint96 reward);\n\n    Hub public hub;\n\n    struct ProfileDefinition{\n        uint96 ask;\n        uint96 stake;\n        uint96 reward;\n        uint96 stakeWithdrawalAmount;\n        uint96 rewardWithdrawalAmount;\n        uint96 frozenAmount;  // TODO: Slashing mechanism\n        uint256 stakeWithdrawalTimestamp;\n        uint256 rewardWithdrawalTimestamp;\n        uint256 freezeTimestamp;  // TODO: Slashing mechanism\n        bytes nodeId;\n        mapping(uint8 => bytes32) nodeAddresses;\n    }\n\n    // nodeId => isRegistered?\n    mapping(bytes => bool) public nodeIdsList;\n    // identityId => Profile\n    mapping(uint72 => ProfileDefinition) profiles;\n\n    constructor(address hubAddress) {\n        require(hubAddress != address(0));\n        hub = Hub(hubAddress);\n    }\n\n    modifier onlyContracts() {\n        require(hub.isContract(msg.sender),\n        \"Function can only be called by contracts!\");\n        _;\n    }\n\n    function createProfile(\n        address operationalWallet,\n        address adminWallet,\n        bytes memory nodeId,\n        uint96 initialAsk,\n        uint96 initialStake\n    )\n        public\n        onlyContracts\n        returns (uint72)\n    {\n        IdentityStorage identityStorage = IdentityStorage(hub.getContractAddress(\"IdentityStorage\"));\n\n        bytes32 _operational_key = keccak256(abi.encodePacked(operationalWallet));\n\n        require(identityStorage.identityIds(_operational_key) == 0, \"Profile already exists\");\n        require(!nodeIdsList[nodeId], \"Node ID connected with another profile\");\n        require(nodeId.length != 0, \"Node ID can't be empty\");\n        require(initialAsk > 0, \"Ask can't be 0\");\n\n        uint72 identityId = identityStorage.createIdentity(operationalWallet, adminWallet);\n\n        ProfileDefinition storage profile = profiles[identityId];\n        profile.ask = initialAsk;\n        profile.stake = initialStake;\n        profile.nodeId = nodeId;\n        setNodeAddress(identityId, 0);  // TODO: Add setters for all existing hashing functions\n\n        nodeIdsList[nodeId] = true;\n\n        return identityId;\n    }\n\n    /* ----------------GETTERS------------------ */\n    function getProfile(uint72 identityId)\n        public\n        view\n        returns (uint96[6] memory, uint256[3] memory, bytes memory)\n    {\n        ProfileDefinition storage profile = profiles[identityId];\n\n        return (\n            [\n                profile.ask,\n                profile.stake,\n                profile.reward,\n                profile.stakeWithdrawalAmount,\n                profile.rewardWithdrawalAmount,\n                profile.frozenAmount\n            ],\n            [profile.stakeWithdrawalTimestamp, profile.rewardWithdrawalTimestamp, profile.freezeTimestamp],\n            profile.nodeId\n        );\n    }\n\n    function getAsk(uint72 identityId)\n        public\n        view\n        returns (uint96)\n    {\n        return profiles[identityId].ask;\n    }\n\n    function getStake(uint72 identityId) \n        public\n        view\n        returns (uint96)\n    {\n        return profiles[identityId].stake;\n    }\n\n    function getReward(uint72 identityId)\n        public\n        view\n        returns (uint96)\n    {\n        return profiles[identityId].reward;\n    }\n\n    function getStakeWithdrawalAmount(uint72 identityId) \n        public\n        view\n        returns (uint96)\n    {\n        return profiles[identityId].stakeWithdrawalAmount;\n    }\n\n    function getRewardWithdrawalAmount(uint72 identityId)\n        public\n        view\n        returns (uint96)\n    {\n        return profiles[identityId].rewardWithdrawalAmount;\n    }\n\n    function getFrozenAmount(uint72 identityId) \n        public\n        view\n        returns (uint96)\n    {\n        return profiles[identityId].frozenAmount;\n    }\n\n    function getStakeWithdrawalTimestamp(uint72 identityId) \n        public\n        view\n        returns (uint256)\n    {\n        return profiles[identityId].stakeWithdrawalTimestamp;\n    }\n\n    function getRewardWithdrawalTimestamp(uint72 identityId)\n        public\n        view\n        returns (uint256)\n    {\n        return profiles[identityId].rewardWithdrawalTimestamp;\n    }\n\n    function getFreezeTimestamp(uint72 identityId)\n        public\n        view\n        returns (uint256)\n    {\n        return profiles[identityId].freezeTimestamp;\n    }\n\n    function getNodeId(uint72 identityId) \n        public\n        view\n        returns (bytes memory)\n    {\n        return profiles[identityId].nodeId;\n    }\n\n    function getNodeAddress(uint72 identityId, uint8 hashFunctionId)\n        public\n        view\n        returns (bytes32)\n    {\n        return profiles[identityId].nodeAddresses[hashFunctionId];\n    }\n\n    /* ----------------SETTERS------------------ */\n    function setAsk(uint72 identityId, uint96 ask)\n        public\n        onlyContracts\n    {\n        require(ask > 0, \"Ask cannot be 0.\");\n\n        profiles[identityId].ask = ask;\n\n        emit AskUpdated(identityId, getNodeId(identityId), ask);\n    }\n    \n    function setStake(uint72 identityId, uint96 stake)\n        public\n        onlyContracts\n    {\n        profiles[identityId].stake = stake;\n\n        emit StakeUpdated(identityId, getNodeId(identityId), stake);\n    }\n\n    function setReward(uint72 identityId, uint96 reward)\n        public\n        onlyContracts\n    {\n        profiles[identityId].reward = reward;\n\n        emit RewardUpdated(identityId, getNodeId(identityId), reward);\n    }\n\n    function setStakeWithdrawalAmount(uint72 identityId, uint96 stakeWithdrawalAmount) \n        public\n        onlyContracts\n    {\n        profiles[identityId].stakeWithdrawalAmount = stakeWithdrawalAmount;\n    }\n\n    function setRewardWithdrawalAmount(uint72 identityId, uint96 rewardWithdrawalAmount)\n        public\n        onlyContracts\n    {\n        profiles[identityId].rewardWithdrawalAmount = rewardWithdrawalAmount;\n    }\n\n    function setFrozenAmount(uint72 identityId, uint96 frozenAmount) \n        public\n        onlyContracts\n    {\n        profiles[identityId].frozenAmount = frozenAmount;\n    }\n\n    function setStakeWithdrawalTimestamp(uint72 identityId, uint256 stakeWithdrawalTimestamp) \n        public\n        onlyContracts\n    {\n        profiles[identityId].stakeWithdrawalTimestamp = stakeWithdrawalTimestamp;\n    }\n\n    function setRewardWithdrawalTimestamp(uint72 identityId, uint256 rewardWithdrawalTimestamp)\n        public\n        onlyContracts\n    {\n        profiles[identityId].rewardWithdrawalTimestamp = rewardWithdrawalTimestamp;\n    }\n\n    function setFreezeTimestamp(uint72 identityId, uint256 freezeTimestamp)\n        public\n        onlyContracts\n    {\n        profiles[identityId].freezeTimestamp = freezeTimestamp;\n    }\n\n    function setNodeId(uint72 identityId, bytes memory nodeId)\n        public\n        onlyContracts\n    {\n        require(nodeId.length != 0, \"Node ID can't be empty\");\n\n        profiles[identityId].nodeId = nodeId;\n\n        nodeIdsList[profiles[identityId].nodeId] = false;\n        nodeIdsList[nodeId] = true;\n    }\n\n    function setNodeAddress(uint72 identityId, uint8 hashFunctionId)\n        public\n        onlyContracts\n    {\n        HashingProxy hashingProxy = HashingProxy(hub.getContractAddress(\"HashingProxy\"));\n        profiles[identityId].nodeAddresses[hashFunctionId] = hashingProxy.callHashFunction(\n            hashFunctionId,\n            profiles[identityId].nodeId\n        );\n    }\n\n    function transferTokens(address receiver, uint96 amount)\n        public\n        onlyContracts\n    {\n        require(receiver != address(0), \"Receiver address can't be empty\");\n\n        IERC20 tokenContract = IERC20(hub.getContractAddress(\"Token\"));\n        tokenContract.transfer(receiver, amount);\n    }\n}\n",
  "sourcePath": "/Users/max/IdeaProjects/dkg-evm-module/contracts/storage/ProfileStorage.sol",
  "compiler": {
    "name": "solc",
    "version": "0.8.14+commit.80d49f37.Emscripten.clang"
  },
  "schemaVersion": "3.4.10",
  "updatedAt": "2022-11-24T16:27:45.289Z",
  "devdoc": {
    "kind": "dev",
    "methods": {},
    "version": 1
  },
  "userdoc": {
    "kind": "user",
    "methods": {},
    "version": 1
  }
}