{
  "contractName": "Profile",
  "abi": [
    {
      "inputs": [
        {
          "internalType": "address",
          "name": "hubAddress",
          "type": "address"
        }
      ],
      "stateMutability": "nonpayable",
      "type": "constructor"
    },
    {
      "anonymous": false,
      "inputs": [
        {
          "indexed": false,
          "internalType": "address",
          "name": "profile",
          "type": "address"
        },
        {
          "indexed": false,
          "internalType": "address",
          "name": "newIdentity",
          "type": "address"
        }
      ],
      "name": "IdentityCreated",
      "type": "event"
    },
    {
      "anonymous": false,
      "inputs": [
        {
          "indexed": false,
          "internalType": "bytes",
          "name": "nodeId",
          "type": "bytes"
        },
        {
          "indexed": false,
          "internalType": "address",
          "name": "oldIdentity",
          "type": "address"
        },
        {
          "indexed": false,
          "internalType": "address",
          "name": "newIdentity",
          "type": "address"
        }
      ],
      "name": "IdentityTransferred",
      "type": "event"
    },
    {
      "anonymous": false,
      "inputs": [
        {
          "indexed": false,
          "internalType": "address",
          "name": "profile",
          "type": "address"
        },
        {
          "indexed": false,
          "internalType": "uint256",
          "name": "initialBalance",
          "type": "uint256"
        }
      ],
      "name": "ProfileCreated",
      "type": "event"
    },
    {
      "anonymous": false,
      "inputs": [
        {
          "indexed": false,
          "internalType": "address",
          "name": "profile",
          "type": "address"
        },
        {
          "indexed": false,
          "internalType": "uint256",
          "name": "amount",
          "type": "uint256"
        }
      ],
      "name": "TokenDeposit",
      "type": "event"
    },
    {
      "anonymous": false,
      "inputs": [
        {
          "indexed": false,
          "internalType": "address",
          "name": "profile",
          "type": "address"
        }
      ],
      "name": "TokenWithdrawalCancelled",
      "type": "event"
    },
    {
      "anonymous": false,
      "inputs": [
        {
          "indexed": false,
          "internalType": "address",
          "name": "profile",
          "type": "address"
        },
        {
          "indexed": false,
          "internalType": "uint256",
          "name": "amountDeposited",
          "type": "uint256"
        },
        {
          "indexed": false,
          "internalType": "uint256",
          "name": "newBalance",
          "type": "uint256"
        }
      ],
      "name": "TokensDeposited",
      "type": "event"
    },
    {
      "anonymous": false,
      "inputs": [
        {
          "indexed": false,
          "internalType": "address",
          "name": "profile",
          "type": "address"
        },
        {
          "indexed": false,
          "internalType": "uint256",
          "name": "amount",
          "type": "uint256"
        }
      ],
      "name": "TokensReleased",
      "type": "event"
    },
    {
      "anonymous": false,
      "inputs": [
        {
          "indexed": false,
          "internalType": "address",
          "name": "profile",
          "type": "address"
        },
        {
          "indexed": false,
          "internalType": "uint256",
          "name": "amountReserved",
          "type": "uint256"
        }
      ],
      "name": "TokensReserved",
      "type": "event"
    },
    {
      "anonymous": false,
      "inputs": [
        {
          "indexed": false,
          "internalType": "address",
          "name": "sender",
          "type": "address"
        },
        {
          "indexed": false,
          "internalType": "address",
          "name": "receiver",
          "type": "address"
        },
        {
          "indexed": false,
          "internalType": "uint256",
          "name": "amount",
          "type": "uint256"
        }
      ],
      "name": "TokensTransferred",
      "type": "event"
    },
    {
      "anonymous": false,
      "inputs": [
        {
          "indexed": false,
          "internalType": "address",
          "name": "profile",
          "type": "address"
        },
        {
          "indexed": false,
          "internalType": "uint256",
          "name": "amountWithdrawn",
          "type": "uint256"
        },
        {
          "indexed": false,
          "internalType": "uint256",
          "name": "newBalance",
          "type": "uint256"
        }
      ],
      "name": "TokensWithdrawn",
      "type": "event"
    },
    {
      "anonymous": false,
      "inputs": [
        {
          "indexed": false,
          "internalType": "address",
          "name": "profile",
          "type": "address"
        },
        {
          "indexed": false,
          "internalType": "uint256",
          "name": "amount",
          "type": "uint256"
        },
        {
          "indexed": false,
          "internalType": "uint256",
          "name": "withdrawalDelayInSeconds",
          "type": "uint256"
        }
      ],
      "name": "WithdrawalInitiated",
      "type": "event"
    },
    {
      "inputs": [],
      "name": "hub",
      "outputs": [
        {
          "internalType": "contract Hub",
          "name": "",
          "type": "address"
        }
      ],
      "stateMutability": "view",
      "type": "function"
    },
    {
      "inputs": [],
      "name": "minimalStake",
      "outputs": [
        {
          "internalType": "uint256",
          "name": "",
          "type": "uint256"
        }
      ],
      "stateMutability": "view",
      "type": "function"
    },
    {
      "inputs": [],
      "name": "withdrawalTime",
      "outputs": [
        {
          "internalType": "uint256",
          "name": "",
          "type": "uint256"
        }
      ],
      "stateMutability": "view",
      "type": "function"
    },
    {
      "inputs": [
        {
          "internalType": "address",
          "name": "managementWallet",
          "type": "address"
        },
        {
          "internalType": "bytes",
          "name": "nodeId",
          "type": "bytes"
        },
        {
          "internalType": "uint256",
          "name": "initialAsk",
          "type": "uint256"
        },
        {
          "internalType": "uint256",
          "name": "initialBalance",
          "type": "uint256"
        },
        {
          "internalType": "address",
          "name": "identity",
          "type": "address"
        }
      ],
      "name": "createProfile",
      "outputs": [],
      "stateMutability": "nonpayable",
      "type": "function"
    },
    {
      "inputs": [
        {
          "internalType": "address",
          "name": "identity",
          "type": "address"
        },
        {
          "internalType": "uint256",
          "name": "amount",
          "type": "uint256"
        }
      ],
      "name": "depositTokens",
      "outputs": [],
      "stateMutability": "nonpayable",
      "type": "function"
    },
    {
      "inputs": [
        {
          "internalType": "address",
          "name": "identity",
          "type": "address"
        },
        {
          "internalType": "uint256",
          "name": "amount",
          "type": "uint256"
        }
      ],
      "name": "startTokenWithdrawal",
      "outputs": [],
      "stateMutability": "nonpayable",
      "type": "function"
    },
    {
      "inputs": [
        {
          "internalType": "address",
          "name": "identity",
          "type": "address"
        }
      ],
      "name": "withdrawTokens",
      "outputs": [],
      "stateMutability": "nonpayable",
      "type": "function"
    },
    {
      "inputs": [
        {
          "internalType": "address",
          "name": "profile",
          "type": "address"
        },
        {
          "internalType": "uint256",
          "name": "amount",
          "type": "uint256"
        }
      ],
      "name": "releaseTokens",
      "outputs": [],
      "stateMutability": "nonpayable",
      "type": "function"
    },
    {
      "inputs": [
        {
          "internalType": "address",
          "name": "sender",
          "type": "address"
        },
        {
          "internalType": "address",
          "name": "receiver",
          "type": "address"
        },
        {
          "internalType": "uint256",
          "name": "amount",
          "type": "uint256"
        }
      ],
      "name": "transferTokens",
      "outputs": [],
      "stateMutability": "nonpayable",
      "type": "function"
    },
    {
      "inputs": [
        {
          "internalType": "uint256",
          "name": "newMinimalStake",
          "type": "uint256"
        }
      ],
      "name": "setMinimalStake",
      "outputs": [],
      "stateMutability": "nonpayable",
      "type": "function"
    },
    {
      "inputs": [
        {
          "internalType": "uint256",
          "name": "newWithdrawalTime",
          "type": "uint256"
        }
      ],
      "name": "setWithdrawalTime",
      "outputs": [],
      "stateMutability": "nonpayable",
      "type": "function"
    }
  ],
  "bytecode": "0x6080604052690a968163f0a57b40000060015561012c6002553480156200002557600080fd5b50604051620040723803806200407283398181016040528101906200004b919062000136565b600073ffffffffffffffffffffffffffffffffffffffff168173ffffffffffffffffffffffffffffffffffffffff16036200008557600080fd5b806000806101000a81548173ffffffffffffffffffffffffffffffffffffffff021916908373ffffffffffffffffffffffffffffffffffffffff1602179055505062000168565b600080fd5b600073ffffffffffffffffffffffffffffffffffffffff82169050919050565b6000620000fe82620000d1565b9050919050565b6200011081620000f1565b81146200011c57600080fd5b50565b600081519050620001308162000105565b92915050565b6000602082840312156200014f576200014e620000cc565b5b60006200015f848285016200011f565b91505092915050565b613efa80620001786000396000f3fe608060405234801561001057600080fd5b50600436106100a95760003560e01c806366168bd71161007157806366168bd71461013e57806384a467681461015a5780639ec41a2d14610176578063a64b6e5f14610194578063b6af3643146101b0578063f40d71f1146101cc576100a9565b806307ab5e84146100ae578063365a86fc146100ca578063389eb9f9146100e85780633d6ec65e1461010657806349df728c14610122575b600080fd5b6100c860048036038101906100c39190612b6f565b6101e8565b005b6100d2610778565b6040516100df9190612c0e565b60405180910390f35b6100f061079c565b6040516100fd9190612c38565b60405180910390f35b610120600480360381019061011b9190612c53565b6107a2565b005b61013c60048036038101906101379190612c80565b6108b2565b005b61015860048036038101906101539190612b6f565b611126565b005b610174600480360381019061016f9190612df3565b6116e8565b005b61017e611f4a565b60405161018b9190612c38565b60405180910390f35b6101ae60048036038101906101a99190612e8a565b611f50565b005b6101ca60048036038101906101c59190612c53565b6125f1565b005b6101e660048036038101906101e19190612b6f565b612701565b005b8173ffffffffffffffffffffffffffffffffffffffff1663d202158d336040516020016102159190612f25565b6040516020818303038152906040528051906020012060016040518363ffffffff1660e01b815260040161024a929190612f94565b602060405180830381865afa158015610267573d6000803e3d6000fd5b505050506040513d601f19601f8201168201806040525081019061028b9190612ff5565b6102ca576040517f08c379a00000000000000000000000000000000000000000000000000000000081526004016102c1906130a5565b60405180910390fd5b60008060009054906101000a900473ffffffffffffffffffffffffffffffffffffffff1673ffffffffffffffffffffffffffffffffffffffff166304433bbc6040518163ffffffff1660e01b815260040161032490613111565b602060405180830381865afa158015610341573d6000803e3d6000fd5b505050506040513d601f19601f820116820180604052508101906103659190613146565b9050600015158173ffffffffffffffffffffffffffffffffffffffff16632ba97595856040518263ffffffff1660e01b81526004016103a49190613182565b602060405180830381865afa1580156103c1573d6000803e3d6000fd5b505050506040513d601f19601f820116820180604052508101906103e59190612ff5565b151514610427576040517f08c379a000000000000000000000000000000000000000000000000000000000815260040161041e9061320f565b60405180910390fd5b60008173ffffffffffffffffffffffffffffffffffffffff16635ffe0282856040518263ffffffff1660e01b81526004016104629190613182565b602060405180830381865afa15801561047f573d6000803e3d6000fd5b505050506040513d601f19601f820116820180604052508101906104a39190613244565b8273ffffffffffffffffffffffffffffffffffffffff16637a766460866040518263ffffffff1660e01b81526004016104dc9190613182565b602060405180830381865afa1580156104f9573d6000803e3d6000fd5b505050506040513d601f19601f8201168201806040525081019061051d9190613244565b61052791906132a0565b90508173ffffffffffffffffffffffffffffffffffffffff16639385067f8560016040518363ffffffff1660e01b81526004016105659291906132e3565b600060405180830381600087803b15801561057f57600080fd5b505af1158015610593573d6000803e3d6000fd5b505050508173ffffffffffffffffffffffffffffffffffffffff166367b6d27185600254426105c2919061330c565b6040518363ffffffff1660e01b81526004016105df929190613362565b600060405180830381600087803b1580156105f957600080fd5b505af115801561060d573d6000803e3d6000fd5b505050508281106106c7578173ffffffffffffffffffffffffffffffffffffffff166382aa292885856040518363ffffffff1660e01b8152600401610653929190613362565b600060405180830381600087803b15801561066d57600080fd5b505af1158015610681573d6000803e3d6000fd5b505050507f31f69201fab7912e3ec9850e3ab705964bf46d9d4276bdcbb6d05e965e5f540184846002546040516106ba9392919061338b565b60405180910390a1610772565b8173ffffffffffffffffffffffffffffffffffffffff166382aa292885836040518363ffffffff1660e01b8152600401610702929190613362565b600060405180830381600087803b15801561071c57600080fd5b505af1158015610730573d6000803e3d6000fd5b505050507f31f69201fab7912e3ec9850e3ab705964bf46d9d4276bdcbb6d05e965e5f540184826002546040516107699392919061338b565b60405180910390a15b50505050565b60008054906101000a900473ffffffffffffffffffffffffffffffffffffffff1681565b60025481565b60008054906101000a900473ffffffffffffffffffffffffffffffffffffffff1673ffffffffffffffffffffffffffffffffffffffff16638da5cb5b6040518163ffffffff1660e01b8152600401602060405180830381865afa15801561080d573d6000803e3d6000fd5b505050506040513d601f19601f820116820180604052508101906108319190613146565b73ffffffffffffffffffffffffffffffffffffffff163373ffffffffffffffffffffffffffffffffffffffff161461089e576040517f08c379a000000000000000000000000000000000000000000000000000000000815260040161089590613434565b60405180910390fd5b80600154146108af57806001819055505b50565b8073ffffffffffffffffffffffffffffffffffffffff1663d202158d336040516020016108df9190612f25565b6040516020818303038152906040528051906020012060016040518363ffffffff1660e01b8152600401610914929190612f94565b602060405180830381865afa158015610931573d6000803e3d6000fd5b505050506040513d601f19601f820116820180604052508101906109559190612ff5565b610994576040517f08c379a000000000000000000000000000000000000000000000000000000000815260040161098b906130a5565b60405180910390fd5b60008060009054906101000a900473ffffffffffffffffffffffffffffffffffffffff1673ffffffffffffffffffffffffffffffffffffffff166304433bbc6040518163ffffffff1660e01b81526004016109ee90613111565b602060405180830381865afa158015610a0b573d6000803e3d6000fd5b505050506040513d601f19601f82011682018060405250810190610a2f9190613146565b905060008060009054906101000a900473ffffffffffffffffffffffffffffffffffffffff1673ffffffffffffffffffffffffffffffffffffffff166304433bbc6040518163ffffffff1660e01b8152600401610a8b906134a0565b602060405180830381865afa158015610aa8573d6000803e3d6000fd5b505050506040513d601f19601f82011682018060405250810190610acc9190613146565b9050600115158273ffffffffffffffffffffffffffffffffffffffff16632ba97595856040518263ffffffff1660e01b8152600401610b0b9190613182565b602060405180830381865afa158015610b28573d6000803e3d6000fd5b505050506040513d601f19601f82011682018060405250810190610b4c9190612ff5565b151514610b8e576040517f08c379a0000000000000000000000000000000000000000000000000000000008152600401610b8590613532565b60405180910390fd5b428273ffffffffffffffffffffffffffffffffffffffff16639344ea6e856040518263ffffffff1660e01b8152600401610bc89190613182565b602060405180830381865afa158015610be5573d6000803e3d6000fd5b505050506040513d601f19601f82011682018060405250810190610c099190613244565b10610c49576040517f08c379a0000000000000000000000000000000000000000000000000000000008152600401610c40906135c4565b60405180910390fd5b8173ffffffffffffffffffffffffffffffffffffffff1663bec3fa17338473ffffffffffffffffffffffffffffffffffffffff166356582bf9876040518263ffffffff1660e01b8152600401610c9f9190613182565b602060405180830381865afa158015610cbc573d6000803e3d6000fd5b505050506040513d601f19601f82011682018060405250810190610ce09190613244565b6040518363ffffffff1660e01b8152600401610cfd929190613362565b600060405180830381600087803b158015610d1757600080fd5b505af1158015610d2b573d6000803e3d6000fd5b505050508173ffffffffffffffffffffffffffffffffffffffff1663bd3cd525848473ffffffffffffffffffffffffffffffffffffffff166356582bf9876040518263ffffffff1660e01b8152600401610d859190613182565b602060405180830381865afa158015610da2573d6000803e3d6000fd5b505050506040513d601f19601f82011682018060405250810190610dc69190613244565b8573ffffffffffffffffffffffffffffffffffffffff16637a766460886040518263ffffffff1660e01b8152600401610dff9190613182565b602060405180830381865afa158015610e1c573d6000803e3d6000fd5b505050506040513d601f19601f82011682018060405250810190610e409190613244565b610e4a91906132a0565b6040518363ffffffff1660e01b8152600401610e67929190613362565b600060405180830381600087803b158015610e8157600080fd5b505af1158015610e95573d6000803e3d6000fd5b505050508173ffffffffffffffffffffffffffffffffffffffff16639385067f8460006040518363ffffffff1660e01b8152600401610ed59291906132e3565b600060405180830381600087803b158015610eef57600080fd5b505af1158015610f03573d6000803e3d6000fd5b5050505060008273ffffffffffffffffffffffffffffffffffffffff16637a766460856040518263ffffffff1660e01b8152600401610f429190613182565b602060405180830381865afa158015610f5f573d6000803e3d6000fd5b505050506040513d601f19601f82011682018060405250810190610f839190613244565b03610ff4578073ffffffffffffffffffffffffffffffffffffffff1663b2b99ec9846040518263ffffffff1660e01b8152600401610fc19190613182565b600060405180830381600087803b158015610fdb57600080fd5b505af1158015610fef573d6000803e3d6000fd5b505050505b7fffe903c0abe6b2dbb2f3474ef43d7a3c1fca49e5a774453423ca8e1952aabffa838373ffffffffffffffffffffffffffffffffffffffff166356582bf9866040518263ffffffff1660e01b815260040161104f9190613182565b602060405180830381865afa15801561106c573d6000803e3d6000fd5b505050506040513d601f19601f820116820180604052508101906110909190613244565b8473ffffffffffffffffffffffffffffffffffffffff16637a766460876040518263ffffffff1660e01b81526004016110c99190613182565b602060405180830381865afa1580156110e6573d6000803e3d6000fd5b505050506040513d601f19601f8201168201806040525081019061110a9190613244565b6040516111199392919061338b565b60405180910390a1505050565b8173ffffffffffffffffffffffffffffffffffffffff1663d202158d336040516020016111539190612f25565b6040516020818303038152906040528051906020012060016040518363ffffffff1660e01b8152600401611188929190612f94565b602060405180830381865afa1580156111a5573d6000803e3d6000fd5b505050506040513d601f19601f820116820180604052508101906111c99190612ff5565b611208576040517f08c379a00000000000000000000000000000000000000000000000000000000081526004016111ff906130a5565b60405180910390fd5b60008060009054906101000a900473ffffffffffffffffffffffffffffffffffffffff1673ffffffffffffffffffffffffffffffffffffffff166304433bbc6040518163ffffffff1660e01b815260040161126290613111565b602060405180830381865afa15801561127f573d6000803e3d6000fd5b505050506040513d601f19601f820116820180604052508101906112a39190613146565b905060008060009054906101000a900473ffffffffffffffffffffffffffffffffffffffff1673ffffffffffffffffffffffffffffffffffffffff166304433bbc6040518163ffffffff1660e01b81526004016112ff90613630565b602060405180830381865afa15801561131c573d6000803e3d6000fd5b505050506040513d601f19601f820116820180604052508101906113409190613146565b9050828173ffffffffffffffffffffffffffffffffffffffff1663dd62ed3e33856040518363ffffffff1660e01b815260040161137e929190613650565b602060405180830381865afa15801561139b573d6000803e3d6000fd5b505050506040513d601f19601f820116820180604052508101906113bf9190613244565b1015611400576040517f08c379a00000000000000000000000000000000000000000000000000000000081526004016113f7906136eb565b60405180910390fd5b828173ffffffffffffffffffffffffffffffffffffffff166370a08231336040518263ffffffff1660e01b815260040161143a9190613182565b602060405180830381865afa158015611457573d6000803e3d6000fd5b505050506040513d601f19601f8201168201806040525081019061147b9190613244565b10156114bc576040517f08c379a00000000000000000000000000000000000000000000000000000000081526004016114b39061377d565b60405180910390fd5b8073ffffffffffffffffffffffffffffffffffffffff166323b872dd3384866040518463ffffffff1660e01b81526004016114f99392919061379d565b6020604051808303816000875af1158015611518573d6000803e3d6000fd5b505050506040513d601f19601f8201168201806040525081019061153c9190612ff5565b508173ffffffffffffffffffffffffffffffffffffffff1663bd3cd52585858573ffffffffffffffffffffffffffffffffffffffff16637a766460896040518263ffffffff1660e01b81526004016115949190613182565b602060405180830381865afa1580156115b1573d6000803e3d6000fd5b505050506040513d601f19601f820116820180604052508101906115d59190613244565b6115df919061330c565b6040518363ffffffff1660e01b81526004016115fc929190613362565b600060405180830381600087803b15801561161657600080fd5b505af115801561162a573d6000803e3d6000fd5b505050507ffdfdcf596161b0e81e3161597d46888dcc88bd83b22dcfb341c76377ca3bbc9e84848473ffffffffffffffffffffffffffffffffffffffff16637a766460886040518263ffffffff1660e01b815260040161168a9190613182565b602060405180830381865afa1580156116a7573d6000803e3d6000fd5b505050506040513d601f19601f820116820180604052508101906116cb9190613244565b6040516116da9392919061338b565b60405180910390a150505050565b600073ffffffffffffffffffffffffffffffffffffffff168573ffffffffffffffffffffffffffffffffffffffff1603611757576040517f08c379a000000000000000000000000000000000000000000000000000000000815260040161174e90613820565b60405180910390fd5b600073ffffffffffffffffffffffffffffffffffffffff168173ffffffffffffffffffffffffffffffffffffffff16036117c6576040517f08c379a00000000000000000000000000000000000000000000000000000000081526004016117bd9061388c565b60405180910390fd5b60008060009054906101000a900473ffffffffffffffffffffffffffffffffffffffff1673ffffffffffffffffffffffffffffffffffffffff166304433bbc6040518163ffffffff1660e01b815260040161182090613630565b602060405180830381865afa15801561183d573d6000803e3d6000fd5b505050506040513d601f19601f820116820180604052508101906118619190613146565b9050828173ffffffffffffffffffffffffffffffffffffffff1663dd62ed3e33306040518363ffffffff1660e01b815260040161189f929190613650565b602060405180830381865afa1580156118bc573d6000803e3d6000fd5b505050506040513d601f19601f820116820180604052508101906118e09190613244565b1015611921576040517f08c379a00000000000000000000000000000000000000000000000000000000081526004016119189061391e565b60405180910390fd5b828173ffffffffffffffffffffffffffffffffffffffff166370a08231336040518263ffffffff1660e01b815260040161195b9190613182565b602060405180830381865afa158015611978573d6000803e3d6000fd5b505050506040513d601f19601f8201168201806040525081019061199c9190613244565b10156119dd576040517f08c379a00000000000000000000000000000000000000000000000000000000081526004016119d4906139b0565b60405180910390fd5b6000855103611a21576040517f08c379a0000000000000000000000000000000000000000000000000000000008152600401611a1890613a42565b60405180910390fd5b60008060009054906101000a900473ffffffffffffffffffffffffffffffffffffffff1673ffffffffffffffffffffffffffffffffffffffff166304433bbc6040518163ffffffff1660e01b8152600401611a7b90613111565b602060405180830381865afa158015611a98573d6000803e3d6000fd5b505050506040513d601f19601f82011682018060405250810190611abc9190613146565b905060008060009054906101000a900473ffffffffffffffffffffffffffffffffffffffff1673ffffffffffffffffffffffffffffffffffffffff166304433bbc6040518163ffffffff1660e01b8152600401611b18906134a0565b602060405180830381865afa158015611b35573d6000803e3d6000fd5b505050506040513d601f19601f82011682018060405250810190611b599190613146565b90508273ffffffffffffffffffffffffffffffffffffffff166323b872dd3360008054906101000a900473ffffffffffffffffffffffffffffffffffffffff1673ffffffffffffffffffffffffffffffffffffffff166304433bbc6040518163ffffffff1660e01b8152600401611bcf90613111565b602060405180830381865afa158015611bec573d6000803e3d6000fd5b505050506040513d601f19601f82011682018060405250810190611c109190613146565b886040518463ffffffff1660e01b8152600401611c2f9392919061379d565b6020604051808303816000875af1158015611c4e573d6000803e3d6000fd5b505050506040513d601f19601f82011682018060405250810190611c729190612ff5565b508373ffffffffffffffffffffffffffffffffffffffff1663d202158d33604051602001611ca09190612f25565b6040516020818303038152906040528051906020012060026040518363ffffffff1660e01b8152600401611cd5929190613a9d565b602060405180830381865afa158015611cf2573d6000803e3d6000fd5b505050506040513d601f19601f82011682018060405250810190611d169190612ff5565b611d55576040517f08c379a0000000000000000000000000000000000000000000000000000000008152600401611d4c90613b38565b60405180910390fd5b8173ffffffffffffffffffffffffffffffffffffffff1663bd3cd52585876040518363ffffffff1660e01b8152600401611d90929190613362565b600060405180830381600087803b158015611daa57600080fd5b505af1158015611dbe573d6000803e3d6000fd5b505050508173ffffffffffffffffffffffffffffffffffffffff1663de1e395d85886040518363ffffffff1660e01b8152600401611dfd929190613362565b600060405180830381600087803b158015611e1757600080fd5b505af1158015611e2b573d6000803e3d6000fd5b505050508173ffffffffffffffffffffffffffffffffffffffff1663adc4bd9885896040518363ffffffff1660e01b8152600401611e6a929190613be0565b600060405180830381600087803b158015611e8457600080fd5b505af1158015611e98573d6000803e3d6000fd5b505050508073ffffffffffffffffffffffffffffffffffffffff1663495a6ada856040518263ffffffff1660e01b8152600401611ed59190613182565b600060405180830381600087803b158015611eef57600080fd5b505af1158015611f03573d6000803e3d6000fd5b505050507fcb939889322fed25104a5d8945bde5162563412a1fd718946cdcacb03088ea088486604051611f38929190613362565b60405180910390a15050505050505050565b60015481565b60008054906101000a900473ffffffffffffffffffffffffffffffffffffffff1673ffffffffffffffffffffffffffffffffffffffff166304433bbc6040518163ffffffff1660e01b8152600401611fa790613c5c565b602060405180830381865afa158015611fc4573d6000803e3d6000fd5b505050506040513d601f19601f82011682018060405250810190611fe89190613146565b73ffffffffffffffffffffffffffffffffffffffff163373ffffffffffffffffffffffffffffffffffffffff1614612055576040517f08c379a000000000000000000000000000000000000000000000000000000000815260040161204c90613cee565b60405180910390fd5b600073ffffffffffffffffffffffffffffffffffffffff168373ffffffffffffffffffffffffffffffffffffffff16141580156120bf5750600073ffffffffffffffffffffffffffffffffffffffff168273ffffffffffffffffffffffffffffffffffffffff1614155b6120c857600080fd5b60008060009054906101000a900473ffffffffffffffffffffffffffffffffffffffff1673ffffffffffffffffffffffffffffffffffffffff166304433bbc6040518163ffffffff1660e01b815260040161212290613111565b602060405180830381865afa15801561213f573d6000803e3d6000fd5b505050506040513d601f19601f820116820180604052508101906121639190613146565b9050818173ffffffffffffffffffffffffffffffffffffffff16637a766460866040518263ffffffff1660e01b815260040161219f9190613182565b602060405180830381865afa1580156121bc573d6000803e3d6000fd5b505050506040513d601f19601f820116820180604052508101906121e09190613244565b1015612221576040517f08c379a000000000000000000000000000000000000000000000000000000000815260040161221890613d80565b60405180910390fd5b818173ffffffffffffffffffffffffffffffffffffffff16635ffe0282866040518263ffffffff1660e01b815260040161225b9190613182565b602060405180830381865afa158015612278573d6000803e3d6000fd5b505050506040513d601f19601f8201168201806040525081019061229c9190613244565b10156122dd576040517f08c379a00000000000000000000000000000000000000000000000000000000081526004016122d490613e12565b60405180910390fd5b8073ffffffffffffffffffffffffffffffffffffffff166350c3ff5785848473ffffffffffffffffffffffffffffffffffffffff16635ffe0282896040518263ffffffff1660e01b81526004016123349190613182565b602060405180830381865afa158015612351573d6000803e3d6000fd5b505050506040513d601f19601f820116820180604052508101906123759190613244565b61237f91906132a0565b6040518363ffffffff1660e01b815260040161239c929190613362565b600060405180830381600087803b1580156123b657600080fd5b505af11580156123ca573d6000803e3d6000fd5b505050508073ffffffffffffffffffffffffffffffffffffffff1663bd3cd52585848473ffffffffffffffffffffffffffffffffffffffff16637a766460896040518263ffffffff1660e01b81526004016124259190613182565b602060405180830381865afa158015612442573d6000803e3d6000fd5b505050506040513d601f19601f820116820180604052508101906124669190613244565b61247091906132a0565b6040518363ffffffff1660e01b815260040161248d929190613362565b600060405180830381600087803b1580156124a757600080fd5b505af11580156124bb573d6000803e3d6000fd5b505050508073ffffffffffffffffffffffffffffffffffffffff1663bd3cd52584848473ffffffffffffffffffffffffffffffffffffffff16637a766460886040518263ffffffff1660e01b81526004016125169190613182565b602060405180830381865afa158015612533573d6000803e3d6000fd5b505050506040513d601f19601f820116820180604052508101906125579190613244565b612561919061330c565b6040518363ffffffff1660e01b815260040161257e929190613362565b600060405180830381600087803b15801561259857600080fd5b505af11580156125ac573d6000803e3d6000fd5b505050507f1b89874203ff7f0bba87c969ada3f32fda22ed38a6706d35199d21280c7811b18484846040516125e39392919061379d565b60405180910390a150505050565b60008054906101000a900473ffffffffffffffffffffffffffffffffffffffff1673ffffffffffffffffffffffffffffffffffffffff16638da5cb5b6040518163ffffffff1660e01b8152600401602060405180830381865afa15801561265c573d6000803e3d6000fd5b505050506040513d601f19601f820116820180604052508101906126809190613146565b73ffffffffffffffffffffffffffffffffffffffff163373ffffffffffffffffffffffffffffffffffffffff16146126ed576040517f08c379a00000000000000000000000000000000000000000000000000000000081526004016126e490613434565b60405180910390fd5b80600254146126fe57806002819055505b50565b60008054906101000a900473ffffffffffffffffffffffffffffffffffffffff1673ffffffffffffffffffffffffffffffffffffffff166304433bbc6040518163ffffffff1660e01b815260040161275890613c5c565b602060405180830381865afa158015612775573d6000803e3d6000fd5b505050506040513d601f19601f820116820180604052508101906127999190613146565b73ffffffffffffffffffffffffffffffffffffffff163373ffffffffffffffffffffffffffffffffffffffff1614612806576040517f08c379a00000000000000000000000000000000000000000000000000000000081526004016127fd90613cee565b60405180910390fd5b600073ffffffffffffffffffffffffffffffffffffffff168273ffffffffffffffffffffffffffffffffffffffff160361283f57600080fd5b60008060009054906101000a900473ffffffffffffffffffffffffffffffffffffffff1673ffffffffffffffffffffffffffffffffffffffff166304433bbc6040518163ffffffff1660e01b815260040161289990613111565b602060405180830381865afa1580156128b6573d6000803e3d6000fd5b505050506040513d601f19601f820116820180604052508101906128da9190613146565b9050818173ffffffffffffffffffffffffffffffffffffffff16635ffe0282856040518263ffffffff1660e01b81526004016129169190613182565b602060405180830381865afa158015612933573d6000803e3d6000fd5b505050506040513d601f19601f820116820180604052508101906129579190613244565b1015612998576040517f08c379a000000000000000000000000000000000000000000000000000000000815260040161298f90613ea4565b60405180910390fd5b8073ffffffffffffffffffffffffffffffffffffffff166350c3ff5784848473ffffffffffffffffffffffffffffffffffffffff16635ffe0282886040518263ffffffff1660e01b81526004016129ef9190613182565b602060405180830381865afa158015612a0c573d6000803e3d6000fd5b505050506040513d601f19601f82011682018060405250810190612a309190613244565b612a3a91906132a0565b6040518363ffffffff1660e01b8152600401612a57929190613362565b600060405180830381600087803b158015612a7157600080fd5b505af1158015612a85573d6000803e3d6000fd5b505050507fc7798891864187665ac6dd119286e44ec13f014527aeeb2b8eb3fd413df931798383604051612aba929190613362565b60405180910390a1505050565b6000604051905090565b600080fd5b600080fd5b600073ffffffffffffffffffffffffffffffffffffffff82169050919050565b6000612b0682612adb565b9050919050565b612b1681612afb565b8114612b2157600080fd5b50565b600081359050612b3381612b0d565b92915050565b6000819050919050565b612b4c81612b39565b8114612b5757600080fd5b50565b600081359050612b6981612b43565b92915050565b60008060408385031215612b8657612b85612ad1565b5b6000612b9485828601612b24565b9250506020612ba585828601612b5a565b9150509250929050565b6000819050919050565b6000612bd4612bcf612bca84612adb565b612baf565b612adb565b9050919050565b6000612be682612bb9565b9050919050565b6000612bf882612bdb565b9050919050565b612c0881612bed565b82525050565b6000602082019050612c236000830184612bff565b92915050565b612c3281612b39565b82525050565b6000602082019050612c4d6000830184612c29565b92915050565b600060208284031215612c6957612c68612ad1565b5b6000612c7784828501612b5a565b91505092915050565b600060208284031215612c9657612c95612ad1565b5b6000612ca484828501612b24565b91505092915050565b600080fd5b600080fd5b6000601f19601f8301169050919050565b7f4e487b7100000000000000000000000000000000000000000000000000000000600052604160045260246000fd5b612d0082612cb7565b810181811067ffffffffffffffff82111715612d1f57612d1e612cc8565b5b80604052505050565b6000612d32612ac7565b9050612d3e8282612cf7565b919050565b600067ffffffffffffffff821115612d5e57612d5d612cc8565b5b612d6782612cb7565b9050602081019050919050565b82818337600083830152505050565b6000612d96612d9184612d43565b612d28565b905082815260208101848484011115612db257612db1612cb2565b5b612dbd848285612d74565b509392505050565b600082601f830112612dda57612dd9612cad565b5b8135612dea848260208601612d83565b91505092915050565b600080600080600060a08688031215612e0f57612e0e612ad1565b5b6000612e1d88828901612b24565b955050602086013567ffffffffffffffff811115612e3e57612e3d612ad6565b5b612e4a88828901612dc5565b9450506040612e5b88828901612b5a565b9350506060612e6c88828901612b5a565b9250506080612e7d88828901612b24565b9150509295509295909350565b600080600060608486031215612ea357612ea2612ad1565b5b6000612eb186828701612b24565b9350506020612ec286828701612b24565b9250506040612ed386828701612b5a565b9150509250925092565b60008160601b9050919050565b6000612ef582612edd565b9050919050565b6000612f0782612eea565b9050919050565b612f1f612f1a82612afb565b612efc565b82525050565b6000612f318284612f0e565b60148201915081905092915050565b6000819050919050565b612f5381612f40565b82525050565b6000819050919050565b6000612f7e612f79612f7484612f59565b612baf565b612b39565b9050919050565b612f8e81612f63565b82525050565b6000604082019050612fa96000830185612f4a565b612fb66020830184612f85565b9392505050565b60008115159050919050565b612fd281612fbd565b8114612fdd57600080fd5b50565b600081519050612fef81612fc9565b92915050565b60006020828403121561300b5761300a612ad1565b5b600061301984828501612fe0565b91505092915050565b600082825260208201905092915050565b7f53656e64657220646f6573206e6f742068617665206d616e6167656d656e742060008201527f7065726d697373696f6e20666f72206964656e74697479210000000000000000602082015250565b600061308f603883613022565b915061309a82613033565b604082019050919050565b600060208201905081810360008301526130be81613082565b9050919050565b7f50726f66696c6553746f72616765000000000000000000000000000000000000600082015250565b60006130fb600e83613022565b9150613106826130c5565b602082019050919050565b6000602082019050818103600083015261312a816130ee565b9050919050565b60008151905061314081612b0d565b92915050565b60006020828403121561315c5761315b612ad1565b5b600061316a84828501613131565b91505092915050565b61317c81612afb565b82525050565b60006020820190506131976000830184613173565b92915050565b7f576974687264726177616c2070726f6365737320616c72656164792070656e6460008201527f696e672100000000000000000000000000000000000000000000000000000000602082015250565b60006131f9602483613022565b91506132048261319d565b604082019050919050565b60006020820190508181036000830152613228816131ec565b9050919050565b60008151905061323e81612b43565b92915050565b60006020828403121561325a57613259612ad1565b5b60006132688482850161322f565b91505092915050565b7f4e487b7100000000000000000000000000000000000000000000000000000000600052601160045260246000fd5b60006132ab82612b39565b91506132b683612b39565b9250828210156132c9576132c8613271565b5b828203905092915050565b6132dd81612fbd565b82525050565b60006040820190506132f86000830185613173565b61330560208301846132d4565b9392505050565b600061331782612b39565b915061332283612b39565b9250827fffffffffffffffffffffffffffffffffffffffffffffffffffffffffffffffff0382111561335757613356613271565b5b828201905092915050565b60006040820190506133776000830185613173565b6133846020830184612c29565b9392505050565b60006060820190506133a06000830186613173565b6133ad6020830185612c29565b6133ba6040830184612c29565b949350505050565b7f46756e6374696f6e2063616e206f6e6c792062652063616c6c6564206279206860008201527f7562206f776e6572210000000000000000000000000000000000000000000000602082015250565b600061341e602983613022565b9150613429826133c2565b604082019050919050565b6000602082019050818103600083015261344d81613411565b9050919050565b7f5368617264696e675461626c6500000000000000000000000000000000000000600082015250565b600061348a600d83613022565b915061349582613454565b602082019050919050565b600060208201905081810360008301526134b98161347d565b9050919050565b7f43616e6e6f7420776974686472617720746f6b656e73206265666f726520737460008201527f617274696e6720746f6b656e207769746864726177616c210000000000000000602082015250565b600061351c603883613022565b9150613527826134c0565b604082019050919050565b6000602082019050818103600083015261354b8161350f565b9050919050565b7f43616e6e6f7420776974686472617720746f6b656e73206265666f726520776960008201527f746864726177616c2074696d657374616d702100000000000000000000000000602082015250565b60006135ae603383613022565b91506135b982613552565b604082019050919050565b600060208201905081810360008301526135dd816135a1565b9050919050565b7f546f6b656e000000000000000000000000000000000000000000000000000000600082015250565b600061361a600583613022565b9150613625826135e4565b602082019050919050565b600060208201905081810360008301526136498161360d565b9050919050565b60006040820190506136656000830185613173565b6136726020830184613173565b9392505050565b7f53656e64657220616c6c6f77616e6365206d75737420626520657175616c207460008201527f6f206f7220686967686572207468616e2063686f73656e20616d6f756e740000602082015250565b60006136d5603e83613022565b91506136e082613679565b604082019050919050565b60006020820190508181036000830152613704816136c8565b9050919050565b7f53656e6465722062616c616e6365206d75737420626520657175616c20746f2060008201527f6f7220686967686572207468616e2063686f73656e20616d6f756e7421000000602082015250565b6000613767603d83613022565b91506137728261370b565b604082019050919050565b600060208201905081810360008301526137968161375a565b9050919050565b60006060820190506137b26000830186613173565b6137bf6020830185613173565b6137cc6040830184612c29565b949350505050565b7f4d616e6167656d656e742077616c6c65742063616e2774206265203000000000600082015250565b600061380a601c83613022565b9150613815826137d4565b602082019050919050565b60006020820190508181036000830152613839816137fd565b9050919050565b7f4964656e746974792063616e2774206265203000000000000000000000000000600082015250565b6000613876601383613022565b915061388182613840565b602082019050919050565b600060208201905081810360008301526138a581613869565b9050919050565b7f53656e64657220616c6c6f77616e6365206d75737420626520657175616c207460008201527f6f206f7220686967686572207468616e20696e697469616c2062616c616e6365602082015250565b6000613908604083613022565b9150613913826138ac565b604082019050919050565b60006020820190508181036000830152613937816138fb565b9050919050565b7f53656e6465722062616c616e6365206d75737420626520657175616c20746f2060008201527f6f7220686967686572207468616e20696e697469616c2062616c616e63652100602082015250565b600061399a603f83613022565b91506139a58261393e565b604082019050919050565b600060208201905081810360008301526139c98161398d565b9050919050565b7f43616e6e6f742063726561746520612070726f66696c6520776974686f75742060008201527f61206e6f64654964207375626d69747465640000000000000000000000000000602082015250565b6000613a2c603283613022565b9150613a37826139d0565b604082019050919050565b60006020820190508181036000830152613a5b81613a1f565b9050919050565b6000819050919050565b6000613a87613a82613a7d84613a62565b612baf565b612b39565b9050919050565b613a9781613a6c565b82525050565b6000604082019050613ab26000830185612f4a565b613abf6020830184613a8e565b9392505050565b7f53656e64657220646f6573206e6f74206861766520616374696f6e207065726d60008201527f697373696f6e20666f72206964656e7469747921000000000000000000000000602082015250565b6000613b22603483613022565b9150613b2d82613ac6565b604082019050919050565b60006020820190508181036000830152613b5181613b15565b9050919050565b600081519050919050565b600082825260208201905092915050565b60005b83811015613b92578082015181840152602081019050613b77565b83811115613ba1576000848401525b50505050565b6000613bb282613b58565b613bbc8185613b63565b9350613bcc818560208601613b74565b613bd581612cb7565b840191505092915050565b6000604082019050613bf56000830185613173565b8181036020830152613c078184613ba7565b90509392505050565b7f486f6c64696e6700000000000000000000000000000000000000000000000000600082015250565b6000613c46600783613022565b9150613c5182613c10565b602082019050919050565b60006020820190508181036000830152613c7581613c39565b9050919050565b7f46756e6374696f6e2063616e206f6e6c792062652063616c6c6564206279204860008201527f6f6c64696e6720636f6e74726163742100000000000000000000000000000000602082015250565b6000613cd8603083613022565b9150613ce382613c7c565b604082019050919050565b60006020820190508181036000830152613d0781613ccb565b9050919050565b7f53656e64657220646f6573206e6f74206861766520656e6f75676820746f6b6560008201527f6e7320746f207472616e73666572210000000000000000000000000000000000602082015250565b6000613d6a602f83613022565b9150613d7582613d0e565b604082019050919050565b60006020820190508181036000830152613d9981613d5d565b9050919050565b7f53656e64657220646f6573206e6f74206861766520656e6f75676820746f6b6560008201527f6e7320726573657276656420746f207472616e73666572210000000000000000602082015250565b6000613dfc603883613022565b9150613e0782613da0565b604082019050919050565b60006020820190508181036000830152613e2b81613def565b9050919050565b7f43616e6e6f742072656c65617365206d6f726520746f6b656e73207468616e2060008201527f7468657265206172652072657365727665640000000000000000000000000000602082015250565b6000613e8e603283613022565b9150613e9982613e32565b604082019050919050565b60006020820190508181036000830152613ebd81613e81565b905091905056fea2646970667358221220d93399a999ef430d4c89095253d47e31ddef7aa9d5c87894f98f85dd9d1a2e0d64736f6c634300080e0033",
  "immutableReferences": {},
  "source": "// SPDX-License-Identifier: MIT\n\npragma solidity ^0.8.0;\n\nimport {ProfileStorage} from './storage/ProfileStorage.sol';\nimport {ShardingTable} from './ShardingTable.sol';\nimport {Ownable, Hub} from './Hub.sol';\nimport {Identity, ERC734} from './Identity.sol';\nimport \"@openzeppelin/contracts/token/ERC20/ERC20.sol\";\n\n\ncontract Profile {\n    Hub public hub;\n\n    uint256 public minimalStake = 5*10**22;\n    uint256 public withdrawalTime = 5 minutes;\n\n    constructor(address hubAddress) {\n        require(hubAddress != address(0));\n        hub = Hub(hubAddress);\n    }\n\n    modifier onlyHolding(){\n        require(msg.sender == hub.getContractAddress(\"Holding\"),\n        \"Function can only be called by Holding contract!\");\n        _;\n    }\n\n    event ProfileCreated(address profile, uint256 initialBalance);\n    event IdentityCreated(address profile, address newIdentity);\n    event IdentityTransferred(bytes nodeId, address oldIdentity, address newIdentity);\n    event TokenDeposit(address profile, uint256 amount);\n\n    event TokensDeposited(address profile, uint256 amountDeposited, uint256 newBalance);\n    event TokensReserved(address profile, uint256 amountReserved);\n\n    event WithdrawalInitiated(address profile, uint256 amount, uint256 withdrawalDelayInSeconds);\n    event TokenWithdrawalCancelled(address profile);\n    event TokensWithdrawn(address profile, uint256 amountWithdrawn, uint256 newBalance);\n\n    event TokensReleased(address profile, uint256 amount);\n    event TokensTransferred(address sender, address receiver, uint256 amount);\n\n    function createProfile(address managementWallet, bytes memory nodeId, uint256 initialAsk, uint256 initialBalance, address identity) public {\n        require(managementWallet != address(0), \"Management wallet can't be 0\");\n        require(identity != address(0), \"Identity can't be 0\");\n        ERC20 tokenContract = ERC20(hub.getContractAddress(\"Token\"));\n        require(tokenContract.allowance(msg.sender, address(this)) >= initialBalance, \"Sender allowance must be equal to or higher than initial balance\");\n        require(tokenContract.balanceOf(msg.sender) >= initialBalance, \"Sender balance must be equal to or higher than initial balance!\");\n        require(nodeId.length != 0, \"Cannot create a profile without a nodeId submitted\");\n\n        ProfileStorage profileStorage = ProfileStorage(hub.getContractAddress(\"ProfileStorage\"));\n        ShardingTable shardingTable = ShardingTable(hub.getContractAddress(\"ShardingTable\"));\n\n        tokenContract.transferFrom(msg.sender, hub.getContractAddress(\"ProfileStorage\"), initialBalance);\n        require(ERC734(identity).keyHasPurpose(keccak256(abi.encodePacked(msg.sender)), 2),  \"Sender does not have action permission for identity!\");\n\n        profileStorage.setStake(identity, initialBalance);\n        profileStorage.setAsk(identity, initialAsk);\n        profileStorage.setNodeId(identity, nodeId);\n\n        shardingTable.pushBack(identity);\n\n        emit ProfileCreated(identity, initialBalance);\n    }\n\n    function depositTokens(address identity, uint256 amount) public {\n        require(ERC734(identity).keyHasPurpose(keccak256(abi.encodePacked(msg.sender)), 1),  \"Sender does not have management permission for identity!\");\n\n        ProfileStorage profileStorage = ProfileStorage(hub.getContractAddress(\"ProfileStorage\"));\n\n        ERC20 tokenContract = ERC20(hub.getContractAddress(\"Token\"));\n        require(tokenContract.allowance(msg.sender, address(profileStorage)) >= amount, \"Sender allowance must be equal to or higher than chosen amount\");\n        require(tokenContract.balanceOf(msg.sender) >= amount, \"Sender balance must be equal to or higher than chosen amount!\");\n\n        tokenContract.transferFrom(msg.sender, address(profileStorage), amount);\n\n        profileStorage.setStake(identity, profileStorage.getStake(identity) + amount);\n\n        emit TokensDeposited(identity, amount, profileStorage.getStake(identity));\n    }\n\n    function startTokenWithdrawal(address identity, uint256 amount) public {\n        require(ERC734(identity).keyHasPurpose(keccak256(abi.encodePacked(msg.sender)), 1),  \"Sender does not have management permission for identity!\");\n\n        ProfileStorage profileStorage = ProfileStorage(hub.getContractAddress(\"ProfileStorage\"));\n\n        require(profileStorage.getWithdrawalPending(identity) == false, \"Withrdrawal process already pending!\");\n\n        uint256 availableBalance = profileStorage.getStake(identity) - (profileStorage.getStakeReserved(identity));\n\n        profileStorage.setWithdrawalPending(identity, true);\n        profileStorage.setWithdrawalTimestamp(identity, block.timestamp + withdrawalTime);\n        if(availableBalance >= amount) {\n            // Reserve chosen token amount\n            profileStorage.setWithdrawalAmount(identity, amount);\n            emit WithdrawalInitiated(identity, amount, withdrawalTime);\n        }\n        else {\n            // Reserve only the available balance\n            profileStorage.setWithdrawalAmount(identity, availableBalance);\n            emit WithdrawalInitiated(identity, availableBalance, withdrawalTime);\n        }\n    }\n\n    function withdrawTokens(address identity) public {\n        // Verify sender\n        require(ERC734(identity).keyHasPurpose(keccak256(abi.encodePacked(msg.sender)), 1),  \"Sender does not have management permission for identity!\");\n\n        ProfileStorage profileStorage = ProfileStorage(hub.getContractAddress(\"ProfileStorage\"));\n        ShardingTable shardingTable = ShardingTable(hub.getContractAddress(\"ShardingTable\"));\n\n        require(profileStorage.getWithdrawalPending(identity) == true, \"Cannot withdraw tokens before starting token withdrawal!\");\n        require(profileStorage.getWithdrawalTimestamp(identity) < block.timestamp, \"Cannot withdraw tokens before withdrawal timestamp!\");\n\n        // Transfer already reserved tokens to user identity\n        profileStorage.transferTokens(msg.sender, profileStorage.getWithdrawalAmount(identity));\n\n        profileStorage.setStake(\n            identity,\n            profileStorage.getStake(identity) - (profileStorage.getWithdrawalAmount(identity))\n        );\n\n        profileStorage.setWithdrawalPending(identity, false);\n\n        if (profileStorage.getStake(identity) == 0) {\n            shardingTable.removeNode(identity);\n        }\n\n        emit TokensWithdrawn(\n            identity,\n            profileStorage.getWithdrawalAmount(identity),\n            profileStorage.getStake(identity)\n        );\n    }\n\n    function releaseTokens(address profile, uint256 amount)\n    public onlyHolding {\n        require(profile!=address(0));\n        ProfileStorage profileStorage = ProfileStorage(hub.getContractAddress(\"ProfileStorage\"));\n\n        require(profileStorage.getStakeReserved(profile) >= amount, \"Cannot release more tokens than there are reserved\");\n\n        profileStorage.setStakeReserved(profile, profileStorage.getStakeReserved(profile) - (amount));\n\n        emit TokensReleased(profile, amount);\n    }\n\n    function transferTokens(address sender, address receiver, uint256 amount)\n    public onlyHolding {\n        require(sender!=address(0) && receiver!=address(0));\n        ProfileStorage profileStorage = ProfileStorage(hub.getContractAddress(\"ProfileStorage\"));\n\n        require(profileStorage.getStake(sender) >= amount, \"Sender does not have enough tokens to transfer!\");\n        require(profileStorage.getStakeReserved(sender) >= amount, \"Sender does not have enough tokens reserved to transfer!\");\n\n        profileStorage.setStakeReserved(sender, profileStorage.getStakeReserved(sender) - (amount));\n        profileStorage.setStake(sender, profileStorage.getStake(sender) - (amount));\n        profileStorage.setStake(receiver, profileStorage.getStake(receiver) + (amount));\n\n        emit TokensTransferred(sender, receiver, amount);\n    }\n\n    function setMinimalStake(uint256 newMinimalStake)\n    public {\n        require (msg.sender == hub.owner(), \"Function can only be called by hub owner!\");\n        if(minimalStake != newMinimalStake) minimalStake = newMinimalStake;\n    }\n\n    function setWithdrawalTime(uint256 newWithdrawalTime)\n    public {\n        require (msg.sender == hub.owner(), \"Function can only be called by hub owner!\");\n        if(withdrawalTime != newWithdrawalTime) withdrawalTime = newWithdrawalTime;\n    }\n}\n",
  "sourcePath": "/Users/max/IdeaProjects/dkg-evm-module/contracts/Profile.sol",
  "compiler": {
    "name": "solc",
    "version": "0.8.14+commit.80d49f37.Emscripten.clang"
  },
  "schemaVersion": "3.4.10",
  "updatedAt": "2022-10-31T10:59:35.199Z",
  "devdoc": {
    "kind": "dev",
    "methods": {},
    "version": 1
  },
  "userdoc": {
    "kind": "user",
    "methods": {},
    "version": 1
  }
}