{
  "contractName": "Profile",
  "abi": [
    {
      "inputs": [
        {
          "internalType": "address",
          "name": "hubAddress",
          "type": "address"
        }
      ],
      "stateMutability": "nonpayable",
      "type": "constructor"
    },
    {
      "anonymous": false,
      "inputs": [
        {
          "indexed": true,
          "internalType": "uint72",
          "name": "identityId",
          "type": "uint72"
        },
        {
          "indexed": false,
          "internalType": "bytes",
          "name": "nodeId",
          "type": "bytes"
        },
        {
          "indexed": false,
          "internalType": "uint96",
          "name": "ask",
          "type": "uint96"
        }
      ],
      "name": "AskUpdated",
      "type": "event"
    },
    {
      "anonymous": false,
      "inputs": [
        {
          "indexed": true,
          "internalType": "uint72",
          "name": "identityId",
          "type": "uint72"
        },
        {
          "indexed": false,
          "internalType": "bytes",
          "name": "nodeId",
          "type": "bytes"
        }
      ],
      "name": "ProfileCreated",
      "type": "event"
    },
    {
      "anonymous": false,
      "inputs": [
        {
          "indexed": true,
          "internalType": "uint72",
          "name": "identityId",
          "type": "uint72"
        }
      ],
      "name": "ProfileDeleted",
      "type": "event"
    },
    {
      "inputs": [],
      "name": "hashingProxy",
      "outputs": [
        {
          "internalType": "contract HashingProxy",
          "name": "",
          "type": "address"
        }
      ],
      "stateMutability": "view",
      "type": "function"
    },
    {
      "inputs": [],
      "name": "hub",
      "outputs": [
        {
          "internalType": "contract Hub",
          "name": "",
          "type": "address"
        }
      ],
      "stateMutability": "view",
      "type": "function"
    },
    {
      "inputs": [],
      "name": "identityContract",
      "outputs": [
        {
          "internalType": "contract Identity",
          "name": "",
          "type": "address"
        }
      ],
      "stateMutability": "view",
      "type": "function"
    },
    {
      "inputs": [],
      "name": "identityStorage",
      "outputs": [
        {
          "internalType": "contract IdentityStorage",
          "name": "",
          "type": "address"
        }
      ],
      "stateMutability": "view",
      "type": "function"
    },
    {
      "inputs": [],
      "name": "parametersStorage",
      "outputs": [
        {
          "internalType": "contract ParametersStorage",
          "name": "",
          "type": "address"
        }
      ],
      "stateMutability": "view",
      "type": "function"
    },
    {
      "inputs": [],
      "name": "profileStorage",
      "outputs": [
        {
          "internalType": "contract ProfileStorage",
          "name": "",
          "type": "address"
        }
      ],
      "stateMutability": "view",
      "type": "function"
    },
    {
      "inputs": [],
      "name": "stakingContract",
      "outputs": [
        {
          "internalType": "contract Staking",
          "name": "",
          "type": "address"
        }
      ],
      "stateMutability": "view",
      "type": "function"
    },
    {
      "inputs": [],
      "name": "whitelistStorage",
      "outputs": [
        {
          "internalType": "contract WhitelistStorage",
          "name": "",
          "type": "address"
        }
      ],
      "stateMutability": "view",
      "type": "function"
    },
    {
      "inputs": [],
      "name": "initialize",
      "outputs": [],
      "stateMutability": "nonpayable",
      "type": "function"
    },
    {
      "inputs": [],
      "name": "name",
      "outputs": [
        {
          "internalType": "string",
          "name": "",
          "type": "string"
        }
      ],
      "stateMutability": "pure",
      "type": "function"
    },
    {
      "inputs": [],
      "name": "version",
      "outputs": [
        {
          "internalType": "string",
          "name": "",
          "type": "string"
        }
      ],
      "stateMutability": "pure",
      "type": "function"
    },
    {
      "inputs": [
        {
          "internalType": "address",
          "name": "adminWallet",
          "type": "address"
        },
        {
          "internalType": "bytes",
          "name": "nodeId",
          "type": "bytes"
        }
      ],
      "name": "createProfile",
      "outputs": [],
      "stateMutability": "nonpayable",
      "type": "function"
    },
    {
      "inputs": [
        {
          "internalType": "uint72",
          "name": "identityId",
          "type": "uint72"
        },
        {
          "internalType": "uint96",
          "name": "ask",
          "type": "uint96"
        }
      ],
      "name": "setAsk",
      "outputs": [],
      "stateMutability": "nonpayable",
      "type": "function"
    },
    {
      "inputs": [
        {
          "internalType": "uint72",
          "name": "identityId",
          "type": "uint72"
        }
      ],
      "name": "stakeAccumulatedOperatorFee",
      "outputs": [],
      "stateMutability": "nonpayable",
      "type": "function"
    },
    {
      "inputs": [
        {
          "internalType": "uint72",
          "name": "identityId",
          "type": "uint72"
        }
      ],
      "name": "startAccumulatedOperatorFeeWithdrawal",
      "outputs": [],
      "stateMutability": "nonpayable",
      "type": "function"
    },
    {
      "inputs": [
        {
          "internalType": "uint72",
          "name": "identityId",
          "type": "uint72"
        }
      ],
      "name": "withdrawAccumulatedOperatorFee",
      "outputs": [],
      "stateMutability": "nonpayable",
      "type": "function"
    }
  ],
  "bytecode": "0x60806040523480156200001157600080fd5b5060405162003a4d38038062003a4d8339810160408190526200003491620005d2565b6001600160a01b0381166200004857600080fd5b600080546001600160a01b0319166001600160a01b0383161790556200006d62000074565b5062000604565b6200007e620004f3565b600054604051630110ceef60e21b815260206004820152600c60248201526b48617368696e6750726f787960a01b60448201526001600160a01b03909116906304433bbc90606401602060405180830381865afa158015620000e4573d6000803e3d6000fd5b505050506040513d601f19601f820116820180604052508101906200010a9190620005d2565b600180546001600160a01b0319166001600160a01b03928316179055600054604051630110ceef60e21b81526020600482015260086024820152674964656e7469747960c01b60448201529116906304433bbc90606401602060405180830381865afa1580156200017f573d6000803e3d6000fd5b505050506040513d601f19601f82011682018060405250810190620001a59190620005d2565b600280546001600160a01b0319166001600160a01b03928316179055600054604051630110ceef60e21b81526020600482015260076024820152665374616b696e6760c81b60448201529116906304433bbc90606401602060405180830381865afa15801562000219573d6000803e3d6000fd5b505050506040513d601f19601f820116820180604052508101906200023f9190620005d2565b600380546001600160a01b0319166001600160a01b03928316179055600054604051630110ceef60e21b815260206004820152600f60248201526e4964656e7469747953746f7261676560881b60448201529116906304433bbc90606401602060405180830381865afa158015620002bb573d6000803e3d6000fd5b505050506040513d601f19601f82011682018060405250810190620002e19190620005d2565b600480546001600160a01b039283166001600160a01b0319909116178155600054604051630110ceef60e21b81529216916304433bbc91620003499101602080825260119082015270506172616d657465727353746f7261676560781b604082015260600190565b602060405180830381865afa15801562000367573d6000803e3d6000fd5b505050506040513d601f19601f820116820180604052508101906200038d9190620005d2565b600580546001600160a01b0319166001600160a01b03928316179055600054604051630110ceef60e21b815260206004820152600e60248201526d50726f66696c6553746f7261676560901b60448201529116906304433bbc90606401602060405180830381865afa15801562000408573d6000803e3d6000fd5b505050506040513d601f19601f820116820180604052508101906200042e9190620005d2565b600680546001600160a01b0319166001600160a01b03928316179055600054604051630110ceef60e21b815260206004820152601060248201526f57686974656c69737453746f7261676560801b60448201529116906304433bbc90606401602060405180830381865afa158015620004ab573d6000803e3d6000fd5b505050506040513d601f19601f82011682018060405250810190620004d19190620005d2565b600780546001600160a01b0319166001600160a01b0392909216919091179055565b60008054906101000a90046001600160a01b03166001600160a01b0316638da5cb5b6040518163ffffffff1660e01b8152600401602060405180830381865afa15801562000545573d6000803e3d6000fd5b505050506040513d601f19601f820116820180604052508101906200056b9190620005d2565b6001600160a01b0316336001600160a01b031614620005d05760405162461bcd60e51b815260206004820181905260248201527f466e2063616e206f6e6c79206265207573656420627920687562206f776e6572604482015260640160405180910390fd5b565b600060208284031215620005e557600080fd5b81516001600160a01b0381168114620005fd57600080fd5b9392505050565b61343980620006146000396000f3fe60806040523480156200001157600080fd5b5060043610620001155760003560e01c80638129fc1c11620000a3578063d184a869116200006e578063d184a8691462000258578063ee99205c146200026f578063f11abfd81462000283578063f42cb038146200029757600080fd5b80638129fc1c146200020c57806385404ed114620002165780639e2469ec146200022d578063a1e344d0146200024157600080fd5b8063365a86fc11620000e4578063365a86fc14620001ae57806354fd4d5014620001c2578063639a86a314620001e457806367031bae14620001f857600080fd5b8063051785f6146200011a57806306fdde03146200013357806311c94ee8146200016a57806328e8aae11462000197575b600080fd5b620001316200012b36600462001d55565b620002ab565b005b60408051808201909152600781526650726f66696c6560c81b60208201525b60405162000161919062001dd0565b60405180910390f35b6001546200017e906001600160a01b031681565b6040516001600160a01b03909116815260200162000161565b62000131620001a836600462001dfb565b62000518565b6000546200017e906001600160a01b031681565b6040805180820190915260058152640312e302e360dc1b602082015262000152565b6005546200017e906001600160a01b031681565b6002546200017e906001600160a01b031681565b62000131620008ed565b620001316200022736600462001d55565b62000d6c565b6007546200017e906001600160a01b031681565b620001316200025236600462001d55565b620010bc565b620001316200026936600462001e9d565b6200145e565b6003546200017e906001600160a01b031681565b6004546200017e906001600160a01b031681565b6006546200017e906001600160a01b031681565b80620002b781620015ec565b60065460405163c04d7dcf60e01b81526001600160481b03841660048201526001600160a01b0390911690819063c04d7dcf90602401602060405180830381865afa1580156200030b573d6000803e3d6000fd5b505050506040513d601f19601f8201168201806040525081019062000331919062001edb565b620003595760405162461bcd60e51b8152600401620003509062001eff565b60405180910390fd5b604051636095a63b60e11b81526001600160481b03841660048201526000906001600160a01b0383169063c12b4c7690602401602060405180830381865afa158015620003aa573d6000803e3d6000fd5b505050506040513d601f19601f82011682018060405250810190620003d0919062001f2e565b9050806001600160601b0316600003620004295760405162461bcd60e51b8152602060048201526019602482015278596f752068617665206e6f206f70657261746f72206665657360381b604482015260640162000350565b6040516368751ff760e11b81526001600160481b0385166004820152600060248201526001600160a01b0383169063d0ea3fee90604401600060405180830381600087803b1580156200047b57600080fd5b505af115801562000490573d6000803e3d6000fd5b50506003546040516309a35b7960e21b81523360048201526001600160481b03881660248201526001600160601b03851660448201526001600160a01b03909116925063268d6de491506064015b600060405180830381600087803b158015620004f957600080fd5b505af11580156200050e573d6000803e3d6000fd5b5050505050505050565b62000522620016ee565b6004805460065460405163010cf48d60e71b815233938101939093526001600160a01b0391821692911690829063867a468090602401602060405180830381865afa15801562000576573d6000803e3d6000fd5b505050506040513d601f19601f820116820180604052508101906200059c919062001f4e565b6001600160481b031615620005f45760405162461bcd60e51b815260206004820152601760248201527f4964656e7469747920616c726561647920657869737473000000000000000000604482015260640162000350565b6000839003620006405760405162461bcd60e51b81526020600482015260166024820152754e6f64652049442063616e277420626520656d70747960501b604482015260640162000350565b6040516378153abf60e01b81526001600160a01b038216906378153abf9062000670908790879060040162001f97565b602060405180830381865afa1580156200068e573d6000803e3d6000fd5b505050506040513d601f19601f82011682018060405250810190620006b4919062001edb565b15620007035760405162461bcd60e51b815260206004820152601d60248201527f4e6f646520494420697320616c72656164792072656769737465726564000000604482015260640162000350565b60025460405163d10e73ab60e01b81523360048201526001600160a01b038781166024830152600092169063d10e73ab906044016020604051808303816000875af115801562000757573d6000803e3d6000fd5b505050506040513d601f19601f820116820180604052508101906200077d919062001f4e565b9050600062000795826001600160481b03166200181f565b6000805460405192935090916001600160a01b0390911690620007bd90849060200162001fad565b60405160208183030381529060405283604051602001620007df919062001fe3565b604051602081830303815290604052604051620007fc9062001d31565b6200080a9392919062002016565b604051809103906000f08015801562000827573d6000803e3d6000fd5b5060405163dc827de960e01b81529091506001600160a01b0385169063dc827de9906200085f9086908b908b9087906004016200205a565b600060405180830381600087803b1580156200087a57600080fd5b505af11580156200088f573d6000803e3d6000fd5b505050506200089e8362001940565b826001600160481b03167f1e1141aabf8a6876b928816de88db5e6ba4ba57cdb2f84229da1cc8e020d3e1c8888604051620008db92919062001f97565b60405180910390a25050505050505050565b620008f762001a80565b600054604051630110ceef60e21b815260206004820152600c60248201526b48617368696e6750726f787960a01b60448201526001600160a01b03909116906304433bbc90606401602060405180830381865afa1580156200095d573d6000803e3d6000fd5b505050506040513d601f19601f8201168201806040525081019062000983919062002098565b600180546001600160a01b0319166001600160a01b03928316179055600054604051630110ceef60e21b81526020600482015260086024820152674964656e7469747960c01b60448201529116906304433bbc90606401602060405180830381865afa158015620009f8573d6000803e3d6000fd5b505050506040513d601f19601f8201168201806040525081019062000a1e919062002098565b600280546001600160a01b0319166001600160a01b03928316179055600054604051630110ceef60e21b81526020600482015260076024820152665374616b696e6760c81b60448201529116906304433bbc90606401602060405180830381865afa15801562000a92573d6000803e3d6000fd5b505050506040513d601f19601f8201168201806040525081019062000ab8919062002098565b600380546001600160a01b0319166001600160a01b03928316179055600054604051630110ceef60e21b815260206004820152600f60248201526e4964656e7469747953746f7261676560881b60448201529116906304433bbc90606401602060405180830381865afa15801562000b34573d6000803e3d6000fd5b505050506040513d601f19601f8201168201806040525081019062000b5a919062002098565b600480546001600160a01b039283166001600160a01b0319909116178155600054604051630110ceef60e21b81529216916304433bbc9162000bc29101602080825260119082015270506172616d657465727353746f7261676560781b604082015260600190565b602060405180830381865afa15801562000be0573d6000803e3d6000fd5b505050506040513d601f19601f8201168201806040525081019062000c06919062002098565b600580546001600160a01b0319166001600160a01b03928316179055600054604051630110ceef60e21b815260206004820152600e60248201526d50726f66696c6553746f7261676560901b60448201529116906304433bbc90606401602060405180830381865afa15801562000c81573d6000803e3d6000fd5b505050506040513d601f19601f8201168201806040525081019062000ca7919062002098565b600680546001600160a01b0319166001600160a01b03928316179055600054604051630110ceef60e21b815260206004820152601060248201526f57686974656c69737453746f7261676560801b60448201529116906304433bbc90606401602060405180830381865afa15801562000d24573d6000803e3d6000fd5b505050506040513d601f19601f8201168201806040525081019062000d4a919062002098565b600780546001600160a01b0319166001600160a01b0392909216919091179055565b8062000d7881620015ec565b60065460405163c04d7dcf60e01b81526001600160481b03841660048201526001600160a01b0390911690819063c04d7dcf90602401602060405180830381865afa15801562000dcc573d6000803e3d6000fd5b505050506040513d601f19601f8201168201806040525081019062000df2919062001edb565b62000e115760405162461bcd60e51b8152600401620003509062001eff565b60405163e6c79da560e01b81526001600160481b03841660048201526000906001600160a01b0383169063e6c79da590602401602060405180830381865afa15801562000e62573d6000803e3d6000fd5b505050506040513d601f19601f8201168201806040525081019062000e88919062001f2e565b9050806001600160601b031660000362000ee55760405162461bcd60e51b815260206004820181905260248201527f5769746864726177616c206861736e2774206265656e20696e69746961746564604482015260640162000350565b604051631913cd5560e01b81526001600160481b038516600482015242906001600160a01b03841690631913cd5590602401602060405180830381865afa15801562000f35573d6000803e3d6000fd5b505050506040513d601f19601f8201168201806040525081019062000f5b9190620020b8565b1062000faa5760405162461bcd60e51b815260206004820152601e60248201527f5769746864726177616c20706572696f64206861736e277420656e6465640000604482015260640162000350565b60405163eb2145e360e01b81526001600160481b0385166004820152600060248201526001600160a01b0383169063eb2145e390604401600060405180830381600087803b15801562000ffc57600080fd5b505af115801562001011573d6000803e3d6000fd5b50506040516315aaf86160e21b81526001600160481b0387166004820152600060248201526001600160a01b03851692506356abe1849150604401600060405180830381600087803b1580156200106757600080fd5b505af11580156200107c573d6000803e3d6000fd5b505060405163abe979e160e01b81523360048201526001600160601b03841660248201526001600160a01b038516925063abe979e19150604401620004de565b80620010c881620015ec565b60065460405163c04d7dcf60e01b81526001600160481b03841660048201526001600160a01b0390911690819063c04d7dcf90602401602060405180830381865afa1580156200111c573d6000803e3d6000fd5b505050506040513d601f19601f8201168201806040525081019062001142919062001edb565b620011615760405162461bcd60e51b8152600401620003509062001eff565b604051636095a63b60e11b81526001600160481b03841660048201526000906001600160a01b0383169063c12b4c7690602401602060405180830381865afa158015620011b2573d6000803e3d6000fd5b505050506040513d601f19601f82011682018060405250810190620011d8919062001f2e565b9050806001600160601b0316600003620012315760405162461bcd60e51b8152602060048201526019602482015278596f752068617665206e6f206f70657261746f72206665657360381b604482015260640162000350565b6040516368751ff760e11b81526001600160481b0385166004820152600060248201526001600160a01b0383169063d0ea3fee90604401600060405180830381600087803b1580156200128357600080fd5b505af115801562001298573d6000803e3d6000fd5b505060405163e6c79da560e01b81526001600160481b03871660048201526001600160a01b038516925063eb2145e3915086908490849063e6c79da590602401602060405180830381865afa158015620012f6573d6000803e3d6000fd5b505050506040513d601f19601f820116820180604052508101906200131c919062001f2e565b620013289190620020e8565b6040516001600160e01b031960e085901b1681526001600160481b0390921660048301526001600160601b03166024820152604401600060405180830381600087803b1580156200137857600080fd5b505af11580156200138d573d6000803e3d6000fd5b50505050816001600160a01b03166356abe18485600560009054906101000a90046001600160a01b03166001600160a01b031663151db1b96040518163ffffffff1660e01b8152600401602060405180830381865afa158015620013f5573d6000803e3d6000fd5b505050506040513d601f19601f820116820180604052508101906200141b919062002112565b6200142c9062ffffff164262002139565b6040516001600160e01b031960e085901b1681526001600160481b0390921660048301526024820152604401620004de565b816200146a8162001b5c565b816001600160601b0316600003620014b75760405162461bcd60e51b815260206004820152600f60248201526e041736b2063616e6e6f74206265203608c1b604482015260640162000350565b60065460405163d184a86960e01b81526001600160481b03851660048201526001600160601b03841660248201526001600160a01b0390911690819063d184a86990604401600060405180830381600087803b1580156200151757600080fd5b505af11580156200152c573d6000803e3d6000fd5b50506040516320e085cd60e11b81526001600160481b0387166004820181905292507f49030f1a1927583e71883baca5a4776a7878294f0f0e1e1788734a335d0dfe7f91506001600160a01b038416906341c10b9a90602401600060405180830381865afa158015620015a3573d6000803e3d6000fd5b505050506040513d6000823e601f3d908101601f19168201604052620015cd9190810190620021cb565b85604051620015de9291906200226a565b60405180910390a250505050565b6004546040516001600160601b03193360601b1660208201526001600160a01b03909116906335e4fb7a90839060340160408051601f198184030181529082905280516020909101206001600160e01b031960e085901b1682526001600160481b039092166004820152602481019190915260016044820152606401602060405180830381865afa15801562001686573d6000803e3d6000fd5b505050506040513d601f19601f82011682018060405250810190620016ac919062001edb565b620016eb5760405162461bcd60e51b815260206004820152600e60248201526d20b236b4b710333ab731ba34b7b760911b604482015260640162000350565b50565b60075460408051635b0c29eb60e01b815290516001600160a01b03909216918291635b0c29eb9160048083019260209291908290030181865afa1580156200173a573d6000803e3d6000fd5b505050506040513d601f19601f8201168201806040525081019062001760919062001edb565b15620016eb57604051636c9b2a3f60e11b81523360048201526001600160a01b0382169063d936547e90602401602060405180830381865afa158015620017ab573d6000803e3d6000fd5b505050506040513d601f19601f82011682018060405250810190620017d1919062001edb565b620016eb5760405162461bcd60e51b815260206004820152601960248201527f416464726573732069736e27742077686974656c697374656400000000000000604482015260640162000350565b606081600003620018475750506040805180820190915260018152600360fc1b602082015290565b8160005b81156200187757806200185e8162002297565b91506200186f9050600a83620022c9565b91506200184b565b60008167ffffffffffffffff81111562001895576200189562002155565b6040519080825280601f01601f191660200182016040528015620018c0576020820181803683370190505b5090505b84156200193857620018d8600183620022e0565b9150620018e7600a86620022f6565b620018f490603062002139565b60f81b8183815181106200190c576200190c6200230d565b60200101906001600160f81b031916908160001a90535062001930600a86620022c9565b9450620018c4565b949350505050565b60065460015460408051635ac55ea360e11b815290516001600160a01b039384169390921691600091839163b58abd469160048082019286929091908290030181865afa15801562001996573d6000803e3d6000fd5b505050506040513d6000823e601f3d908101601f19168201604052620019c0919081019062002323565b805190915060005b818160ff16101562001a7857846001600160a01b03166368dae4fd87858460ff1681518110620019fc57620019fc6200230d565b6020908102919091010151516040516001600160e01b031960e085901b1681526001600160481b03909216600483015260ff166024820152604401600060405180830381600087803b15801562001a5257600080fd5b505af115801562001a67573d6000803e3d6000fd5b505060019092019150620019c89050565b505050505050565b60008054906101000a90046001600160a01b03166001600160a01b0316638da5cb5b6040518163ffffffff1660e01b8152600401602060405180830381865afa15801562001ad2573d6000803e3d6000fd5b505050506040513d601f19601f8201168201806040525081019062001af8919062002098565b6001600160a01b0316336001600160a01b03161462001b5a5760405162461bcd60e51b815260206004820181905260248201527f466e2063616e206f6e6c79206265207573656420627920687562206f776e6572604482015260640162000350565b565b6004546040516001600160601b03193360601b1660208201526001600160a01b03909116906335e4fb7a90839060340160408051601f198184030181529082905280516020909101206001600160e01b031960e085901b1682526001600160481b039092166004820152602481019190915260016044820152606401602060405180830381865afa15801562001bf6573d6000803e3d6000fd5b505050506040513d601f19601f8201168201806040525081019062001c1c919062001edb565b8062001ce357506004546040516001600160601b03193360601b1660208201526001600160a01b03909116906335e4fb7a90839060340160408051601f198184030181529082905280516020909101206001600160e01b031960e085901b1682526001600160481b039092166004820152602481019190915260026044820152606401602060405180830381865afa15801562001cbd573d6000803e3d6000fd5b505050506040513d601f19601f8201168201806040525081019062001ce3919062001edb565b620016eb5760405162461bcd60e51b815260206004820152601f60248201527f466e2063616e2062652075736564206f6e6c79206279206964206f776e657200604482015260640162000350565b610fe8806200241c83390190565b6001600160481b0381168114620016eb57600080fd5b60006020828403121562001d6857600080fd5b813562001d758162001d3f565b9392505050565b60005b8381101562001d9957818101518382015260200162001d7f565b50506000910152565b6000815180845262001dbc81602086016020860162001d7c565b601f01601f19169290920160200192915050565b60208152600062001d75602083018462001da2565b6001600160a01b0381168114620016eb57600080fd5b60008060006040848603121562001e1157600080fd5b833562001e1e8162001de5565b9250602084013567ffffffffffffffff8082111562001e3c57600080fd5b818601915086601f83011262001e5157600080fd5b81358181111562001e6157600080fd5b87602082850101111562001e7457600080fd5b6020830194508093505050509250925092565b6001600160601b0381168114620016eb57600080fd5b6000806040838503121562001eb157600080fd5b823562001ebe8162001d3f565b9150602083013562001ed08162001e87565b809150509250929050565b60006020828403121562001eee57600080fd5b8151801515811462001d7557600080fd5b602080825260159082015274141c9bd99a5b1948191bd95cdb89dd08195e1a5cdd605a1b604082015260600190565b60006020828403121562001f4157600080fd5b815162001d758162001e87565b60006020828403121562001f6157600080fd5b815162001d758162001d3f565b81835281816020850137506000828201602090810191909152601f909101601f19169091010190565b6020815260006200193860208301848662001f6e565b6b029b430b932903a37b5b2b7160a51b81526000825162001fd681600c85016020870162001d7c565b91909101600c0192915050565b68444b475354414b455f60b81b8152600082516200200981600985016020870162001d7c565b9190910160090192915050565b6001600160a01b03841681526060602082018190526000906200203c9083018562001da2565b828103604084015262002050818562001da2565b9695505050505050565b6001600160481b03851681526060602082015260006200207f60608301858762001f6e565b905060018060a01b038316604083015295945050505050565b600060208284031215620020ab57600080fd5b815162001d758162001de5565b600060208284031215620020cb57600080fd5b5051919050565b634e487b7160e01b600052601160045260246000fd5b6001600160601b038181168382160190808211156200210b576200210b620020d2565b5092915050565b6000602082840312156200212557600080fd5b815162ffffff8116811462001d7557600080fd5b808201808211156200214f576200214f620020d2565b92915050565b634e487b7160e01b600052604160045260246000fd5b6040805190810167ffffffffffffffff8111828210171562002191576200219162002155565b60405290565b604051601f8201601f1916810167ffffffffffffffff81118282101715620021c357620021c362002155565b604052919050565b600060208284031215620021de57600080fd5b815167ffffffffffffffff80821115620021f757600080fd5b818401915084601f8301126200220c57600080fd5b81518181111562002221576200222162002155565b62002236601f8201601f191660200162002197565b91508082528560208285010111156200224e57600080fd5b6200226181602084016020860162001d7c565b50949350505050565b6040815260006200227f604083018562001da2565b90506001600160601b03831660208301529392505050565b600060018201620022ac57620022ac620020d2565b5060010190565b634e487b7160e01b600052601260045260246000fd5b600082620022db57620022db620022b3565b500490565b818103818111156200214f576200214f620020d2565b600082620023085762002308620022b3565b500690565b634e487b7160e01b600052603260045260246000fd5b600060208083850312156200233757600080fd5b825167ffffffffffffffff808211156200235057600080fd5b818501915085601f8301126200236557600080fd5b8151818111156200237a576200237a62002155565b6200238a848260051b0162002197565b818152848101925060069190911b830184019087821115620023ab57600080fd5b928401925b81841015620024105760408489031215620023cb5760008081fd5b620023d56200216b565b845160ff81168114620023e85760008081fd5b815284860151620023f98162001de5565b8187015283526040939093019291840191620023b0565b97965050505050505056fe60806040523480156200001157600080fd5b5060405162000fe838038062000fe8833981016040819052620000349162000157565b8181600362000044838262000270565b50600462000053828262000270565b5050506001600160a01b0383166200006a57600080fd5b5050600580546001600160a01b0319166001600160a01b03929092169190911790556200033c565b634e487b7160e01b600052604160045260246000fd5b600082601f830112620000ba57600080fd5b81516001600160401b0380821115620000d757620000d762000092565b604051601f8301601f19908116603f0116810190828211818310171562000102576200010262000092565b816040528381526020925086838588010111156200011f57600080fd5b600091505b8382101562000143578582018301518183018401529082019062000124565b600093810190920192909252949350505050565b6000806000606084860312156200016d57600080fd5b83516001600160a01b03811681146200018557600080fd5b60208501519093506001600160401b0380821115620001a357600080fd5b620001b187838801620000a8565b93506040860151915080821115620001c857600080fd5b50620001d786828701620000a8565b9150509250925092565b600181811c90821680620001f657607f821691505b6020821081036200021757634e487b7160e01b600052602260045260246000fd5b50919050565b601f8211156200026b57600081815260208120601f850160051c81016020861015620002465750805b601f850160051c820191505b81811015620002675782815560010162000252565b5050505b505050565b81516001600160401b038111156200028c576200028c62000092565b620002a4816200029d8454620001e1565b846200021d565b602080601f831160018114620002dc5760008415620002c35750858301515b600019600386901b1c1916600185901b17855562000267565b600085815260208120601f198616915b828110156200030d57888601518255948401946001909101908401620002ec565b50858210156200032c5787850151600019600388901b60f8161c191681555b5050505050600190811b01905550565b610c9c806200034c6000396000f3fe608060405234801561001057600080fd5b50600436106100f55760003560e01c806340c10f191161009757806395d89b411161006657806395d89b4114610211578063a457c2d714610219578063a9059cbb1461022c578063dd62ed3e1461023f57600080fd5b806340c10f19146101ad57806342966c68146101c257806370a08231146101d557806379cc6790146101fe57600080fd5b806323b872dd116100d357806323b872dd1461014d578063313ce56714610160578063365a86fc1461016f578063395093511461019a57600080fd5b806306fdde03146100fa578063095ea7b31461011857806318160ddd1461013b575b600080fd5b610102610252565b60405161010f9190610a90565b60405180910390f35b61012b610126366004610afa565b6102e4565b604051901515815260200161010f565b6002545b60405190815260200161010f565b61012b61015b366004610b24565b6102fe565b6040516012815260200161010f565b600554610182906001600160a01b031681565b6040516001600160a01b03909116815260200161010f565b61012b6101a8366004610afa565b610322565b6101c06101bb366004610afa565b610344565b005b6101c06101d0366004610b60565b61035a565b61013f6101e3366004610b79565b6001600160a01b031660009081526020819052604090205490565b6101c061020c366004610afa565b610367565b61010261037c565b61012b610227366004610afa565b61038b565b61012b61023a366004610afa565b61040b565b61013f61024d366004610b9b565b610419565b60606003805461026190610bce565b80601f016020809104026020016040519081016040528092919081815260200182805461028d90610bce565b80156102da5780601f106102af576101008083540402835291602001916102da565b820191906000526020600020905b8154815290600101906020018083116102bd57829003601f168201915b5050505050905090565b6000336102f2818585610444565b60019150505b92915050565b60003361030c858285610569565b6103178585856105e3565b506001949350505050565b6000336102f28185856103358383610419565b61033f9190610c1e565b610444565b61034c6107b1565b610356828261086b565b5050565b610364338261094a565b50565b610372823383610569565b610356828261094a565b60606004805461026190610bce565b600033816103998286610419565b9050838110156103fe5760405162461bcd60e51b815260206004820152602560248201527f45524332303a2064656372656173656420616c6c6f77616e63652062656c6f77604482015264207a65726f60d81b60648201526084015b60405180910390fd5b6103178286868403610444565b6000336102f28185856105e3565b6001600160a01b03918216600090815260016020908152604080832093909416825291909152205490565b6001600160a01b0383166104a65760405162461bcd60e51b8152602060048201526024808201527f45524332303a20617070726f76652066726f6d20746865207a65726f206164646044820152637265737360e01b60648201526084016103f5565b6001600160a01b0382166105075760405162461bcd60e51b815260206004820152602260248201527f45524332303a20617070726f766520746f20746865207a65726f206164647265604482015261737360f01b60648201526084016103f5565b6001600160a01b0383811660008181526001602090815260408083209487168084529482529182902085905590518481527f8c5be1e5ebec7d5bd14f71427d1e84f3dd0314c0f7b2291e5b200ac8c7c3b92591015b60405180910390a3505050565b60006105758484610419565b905060001981146105dd57818110156105d05760405162461bcd60e51b815260206004820152601d60248201527f45524332303a20696e73756666696369656e7420616c6c6f77616e636500000060448201526064016103f5565b6105dd8484848403610444565b50505050565b6001600160a01b0383166106475760405162461bcd60e51b815260206004820152602560248201527f45524332303a207472616e736665722066726f6d20746865207a65726f206164604482015264647265737360d81b60648201526084016103f5565b6001600160a01b0382166106a95760405162461bcd60e51b815260206004820152602360248201527f45524332303a207472616e7366657220746f20746865207a65726f206164647260448201526265737360e81b60648201526084016103f5565b6001600160a01b038316600090815260208190526040902054818110156107215760405162461bcd60e51b815260206004820152602660248201527f45524332303a207472616e7366657220616d6f756e7420657863656564732062604482015265616c616e636560d01b60648201526084016103f5565b6001600160a01b03808516600090815260208190526040808220858503905591851681529081208054849290610758908490610c1e565b92505081905550826001600160a01b0316846001600160a01b03167fddf252ad1be2c89b69c2b068fc378daa952ba7f163c4a11628f55a4df523b3ef846040516107a491815260200190565b60405180910390a36105dd565b600554604051631627905560e01b81523360048201526001600160a01b0390911690631627905590602401602060405180830381865afa1580156107f9573d6000803e3d6000fd5b505050506040513d601f19601f8201168201806040525081019061081d9190610c31565b6108695760405162461bcd60e51b815260206004820181905260248201527f466e2063616e206f6e6c792062652063616c6c6564206279207468652068756260448201526064016103f5565b565b6001600160a01b0382166108c15760405162461bcd60e51b815260206004820152601f60248201527f45524332303a206d696e7420746f20746865207a65726f20616464726573730060448201526064016103f5565b80600260008282546108d39190610c1e565b90915550506001600160a01b03821660009081526020819052604081208054839290610900908490610c1e565b90915550506040518181526001600160a01b038316906000907fddf252ad1be2c89b69c2b068fc378daa952ba7f163c4a11628f55a4df523b3ef9060200160405180910390a35050565b6001600160a01b0382166109aa5760405162461bcd60e51b815260206004820152602160248201527f45524332303a206275726e2066726f6d20746865207a65726f206164647265736044820152607360f81b60648201526084016103f5565b6001600160a01b03821660009081526020819052604090205481811015610a1e5760405162461bcd60e51b815260206004820152602260248201527f45524332303a206275726e20616d6f756e7420657863656564732062616c616e604482015261636560f01b60648201526084016103f5565b6001600160a01b0383166000908152602081905260408120838303905560028054849290610a4d908490610c53565b90915550506040518281526000906001600160a01b038516907fddf252ad1be2c89b69c2b068fc378daa952ba7f163c4a11628f55a4df523b3ef9060200161055c565b600060208083528351808285015260005b81811015610abd57858101830151858201604001528201610aa1565b506000604082860101526040601f19601f8301168501019250505092915050565b80356001600160a01b0381168114610af557600080fd5b919050565b60008060408385031215610b0d57600080fd5b610b1683610ade565b946020939093013593505050565b600080600060608486031215610b3957600080fd5b610b4284610ade565b9250610b5060208501610ade565b9150604084013590509250925092565b600060208284031215610b7257600080fd5b5035919050565b600060208284031215610b8b57600080fd5b610b9482610ade565b9392505050565b60008060408385031215610bae57600080fd5b610bb783610ade565b9150610bc560208401610ade565b90509250929050565b600181811c90821680610be257607f821691505b602082108103610c0257634e487b7160e01b600052602260045260246000fd5b50919050565b634e487b7160e01b600052601160045260246000fd5b808201808211156102f8576102f8610c08565b600060208284031215610c4357600080fd5b81518015158114610b9457600080fd5b818103818111156102f8576102f8610c0856fea26469706673582212203b6073d547342c96510d13cdfb975a21408a59cc1ad8ba4ed70995150b863a2664736f6c63430008100033a26469706673582212208baa4fdded45c58ce79139c5889346adac423cba95f9a2376cb733ced7e5d50c64736f6c63430008100033",
  "immutableReferences": {},
  "source": "// SPDX-License-Identifier: MIT\n\npragma solidity ^0.8.4;\n\nimport { HashingProxy } from \"./HashingProxy.sol\";\nimport { Hub } from \"./Hub.sol\";\nimport { Identity } from \"./Identity.sol\";\nimport { Shares } from \"./Shares.sol\";\nimport { Staking } from \"./Staking.sol\";\nimport { IdentityStorage } from \"./storage/IdentityStorage.sol\";\nimport { ParametersStorage } from \"./storage/ParametersStorage.sol\";\nimport { ProfileStorage } from \"./storage/ProfileStorage.sol\";\nimport { WhitelistStorage } from \"./storage/WhitelistStorage.sol\";\nimport { Named } from \"./interface/Named.sol\";\nimport { Versioned } from \"./interface/Versioned.sol\";\nimport { UnorderedIndexableContractDynamicSetLib } from \"./utils/UnorderedIndexableContractDynamicSet.sol\";\nimport { ADMIN_KEY, OPERATIONAL_KEY } from \"./constants/IdentityConstants.sol\";\nimport { Strings } from \"@openzeppelin/contracts/utils/Strings.sol\";\n\ncontract Profile is Named, Versioned {\n\n    event ProfileCreated(uint72 indexed identityId, bytes nodeId);\n    event ProfileDeleted(uint72 indexed identityId);\n    event AskUpdated(uint72 indexed identityId, bytes nodeId, uint96 ask);\n\n    string constant private _NAME = \"Profile\";\n    string constant private _VERSION = \"1.0.0\";\n\n    Hub public hub;\n    HashingProxy public hashingProxy;\n    Identity public identityContract;\n    Staking public stakingContract;\n    IdentityStorage public identityStorage;\n    ParametersStorage public parametersStorage;\n    ProfileStorage public profileStorage;\n    WhitelistStorage public whitelistStorage;\n\n    constructor(address hubAddress) {\n        require(hubAddress != address(0));\n\n        hub = Hub(hubAddress);\n        initialize();\n    }\n\n    modifier onlyHubOwner() {\n\t\t_checkHubOwner();\n\t\t_;\n\t}\n\n    modifier onlyIdentityOwner(uint72 identityId) {\n        _checkIdentityOwner(identityId);\n        _;\n    }\n\n    modifier onlyAdmin(uint72 identityId) {\n        _checkAdmin(identityId);\n        _;\n    }\n\n    modifier onlyOperational(uint72 identityId) {\n        _checkOperational(identityId);\n        _;\n    }\n\n    modifier onlyWhitelisted() {\n        _checkWhitelist();\n        _;\n    }\n\n    function initialize() public onlyHubOwner {\n\t\thashingProxy = HashingProxy(hub.getContractAddress(\"HashingProxy\"));\n        identityContract = Identity(hub.getContractAddress(\"Identity\"));\n        stakingContract = Staking(hub.getContractAddress(\"Staking\"));\n        identityStorage = IdentityStorage(hub.getContractAddress(\"IdentityStorage\"));\n        parametersStorage = ParametersStorage(hub.getContractAddress(\"ParametersStorage\"));\n        profileStorage = ProfileStorage(hub.getContractAddress(\"ProfileStorage\"));\n        whitelistStorage = WhitelistStorage(hub.getContractAddress(\"WhitelistStorage\"));\n\t}\n\n    function name() external pure virtual override returns (string memory) {\n        return _NAME;\n    }\n\n    function version() external pure virtual override returns (string memory) {\n        return _VERSION;\n    }\n\n    function createProfile(address adminWallet, bytes calldata nodeId) external onlyWhitelisted {\n        IdentityStorage ids = identityStorage;\n        ProfileStorage ps = profileStorage;\n\n        require(ids.getIdentityId(msg.sender) == 0, \"Identity already exists\");\n        require(nodeId.length != 0, \"Node ID can't be empty\");\n        require(!ps.nodeIdRegistered(nodeId), \"Node ID is already registered\");\n\n        uint72 identityId = identityContract.createIdentity(msg.sender, adminWallet);\n\n        string memory identityIdString = Strings.toString(identityId);\n        Shares sharesContract = new Shares(\n            address(hub),\n            string.concat(\"Share token \", identityIdString),\n            string.concat(\"DKGSTAKE_\", identityIdString)\n        );\n\n        ps.createProfile(identityId, nodeId, address(sharesContract));\n        _setAvailableNodeAddresses(identityId);\n\n        emit ProfileCreated(identityId, nodeId);\n    }\n\n    function setAsk(uint72 identityId, uint96 ask) external onlyIdentityOwner(identityId) {\n        require(ask != 0, \"Ask cannot be 0\");\n        ProfileStorage ps = profileStorage;\n        ps.setAsk(identityId, ask);\n\n        emit AskUpdated(identityId, ps.getNodeId(identityId), ask);\n    }\n\n    // function deleteProfile(uint72 identityId) external onlyAdmin(identityId) {\n    //     // TODO: add checks\n    //     profileStorage.deleteProfile(identityId);\n    //     identityContract.deleteIdentity(identityId);\n    //\n    //     emit ProfileDeleted(identityId);\n    // }\n\n    // function changeNodeId(uint72 identityId, bytes calldata nodeId) external onlyOperational(identityId) {\n    //     require(nodeId.length != 0, \"Node ID can't be empty\");\n\n    //     profileStorage.setNodeId(identityId, nodeId);\n    // }\n\n    // function addNewNodeIdHash(uint72 identityId, uint8 hashFunctionId) external onlyOperational(identityId) {\n    //     require(hashingProxy.isHashFunction(hashFunctionId), \"Hash function doesn't exist\");\n\n    //     profileStorage.setNodeAddress(identityId, hashFunctionId);\n    // }\n\n    // TODO: Define where it can be called, change internal modifier\n    function _setAvailableNodeAddresses(uint72 identityId) internal {\n        ProfileStorage ps = profileStorage;\n        HashingProxy hp = hashingProxy;\n\n        UnorderedIndexableContractDynamicSetLib.Contract[] memory hashFunctions = hp.getAllHashFunctions();\n        uint256 hashFunctionsNumber = hashFunctions.length;\n        for (uint8 i; i < hashFunctionsNumber; ) {\n            ps.setNodeAddress(identityId, hashFunctions[i].id);\n            unchecked { i++; }\n        }\n    }\n\n    function stakeAccumulatedOperatorFee(uint72 identityId) external onlyAdmin(identityId) {\n        ProfileStorage ps = profileStorage;\n\n        require(ps.profileExists(identityId), \"Profile doesn't exist\");\n\n        uint96 accumulatedOperatorFee = ps.getAccumulatedOperatorFee(identityId);\n        require(accumulatedOperatorFee != 0, \"You have no operator fees\");\n\n        ps.setAccumulatedOperatorFee(identityId, 0);\n        stakingContract.addStake(msg.sender, identityId, accumulatedOperatorFee);\n    }\n\n    function startAccumulatedOperatorFeeWithdrawal(uint72 identityId) external onlyAdmin(identityId) {\n        ProfileStorage ps = profileStorage;\n\n        require(ps.profileExists(identityId), \"Profile doesn't exist\");\n\n        uint96 accumulatedOperatorFee = ps.getAccumulatedOperatorFee(identityId);\n\n        require(accumulatedOperatorFee != 0, \"You have no operator fees\");\n\n        ps.setAccumulatedOperatorFee(identityId, 0);\n        ps.setAccumulatedOperatorFeeWithdrawalAmount(\n            identityId,\n            ps.getAccumulatedOperatorFeeWithdrawalAmount(identityId) + accumulatedOperatorFee\n        );\n        ps.setAccumulatedOperatorFeeWithdrawalTimestamp(\n            identityId,\n            block.timestamp + parametersStorage.stakeWithdrawalDelay()\n        );\n    }\n\n    function withdrawAccumulatedOperatorFee(uint72 identityId) external onlyAdmin(identityId) {\n        ProfileStorage ps = profileStorage;\n\n        require(ps.profileExists(identityId), \"Profile doesn't exist\");\n\n        uint96 withdrawalAmount = ps.getAccumulatedOperatorFeeWithdrawalAmount(identityId);\n\n        require(withdrawalAmount != 0, \"Withdrawal hasn't been initiated\");\n        require(\n            ps.getAccumulatedOperatorFeeWithdrawalTimestamp(identityId) < block.timestamp,\n            \"Withdrawal period hasn't ended\"\n        );\n\n        ps.setAccumulatedOperatorFeeWithdrawalAmount(identityId, 0);\n        ps.setAccumulatedOperatorFeeWithdrawalTimestamp(identityId, 0);\n        ps.transferTokens(msg.sender, withdrawalAmount);\n    }\n\n    function _checkHubOwner() internal view virtual {\n\t\trequire(msg.sender == hub.owner(), \"Fn can only be used by hub owner\");\n\t}\n\n    function _checkIdentityOwner(uint72 identityId) internal view virtual {\n        require(\n            identityStorage.keyHasPurpose(identityId, keccak256(abi.encodePacked(msg.sender)), ADMIN_KEY) ||\n            identityStorage.keyHasPurpose(identityId, keccak256(abi.encodePacked(msg.sender)), OPERATIONAL_KEY),\n            \"Fn can be used only by id owner\"\n        );\n    }\n\n    function _checkAdmin(uint72 identityId) internal view virtual {\n        require(\n            identityStorage.keyHasPurpose(identityId, keccak256(abi.encodePacked(msg.sender)), ADMIN_KEY),\n            \"Admin function\"\n        );\n    }\n\n    function _checkOperational(uint72 identityId) internal view virtual {\n        require(\n            identityStorage.keyHasPurpose(identityId, keccak256(abi.encodePacked(msg.sender)), OPERATIONAL_KEY),\n            \"Fn can be called only by oper.\"\n        );\n    }\n\n    function _checkWhitelist() internal view virtual {\n        WhitelistStorage ws = whitelistStorage;\n        if (ws.whitelistingEnabled()) {\n            require(ws.whitelisted(msg.sender), \"Address isn't whitelisted\");\n        }\n    }\n\n}\n",
  "sourcePath": "/Users/waving/Desktop/OriginTrail/dkg-evm-module/contracts/Profile.sol",
  "compiler": {
    "name": "solc",
    "version": "0.8.16+commit.07a7930e.Emscripten.clang"
  },
  "schemaVersion": "3.4.10",
  "updatedAt": "2022-12-08T16:40:13.564Z",
  "devdoc": {
    "kind": "dev",
    "methods": {},
    "version": 1
  },
  "userdoc": {
    "kind": "user",
    "methods": {},
    "version": 1
  }
}