{
  "contractName": "ProfileStorage",
  "abi": [
    {
      "inputs": [
        {
          "internalType": "address",
          "name": "hubAddress",
          "type": "address"
        }
      ],
      "stateMutability": "nonpayable",
      "type": "constructor"
    },
    {
      "inputs": [],
      "name": "hashingProxy",
      "outputs": [
        {
          "internalType": "contract HashingProxy",
          "name": "",
          "type": "address"
        }
      ],
      "stateMutability": "view",
      "type": "function",
      "constant": true
    },
    {
      "inputs": [],
      "name": "hub",
      "outputs": [
        {
          "internalType": "contract Hub",
          "name": "",
          "type": "address"
        }
      ],
      "stateMutability": "view",
      "type": "function",
      "constant": true
    },
    {
      "inputs": [
        {
          "internalType": "bytes",
          "name": "",
          "type": "bytes"
        }
      ],
      "name": "nodeIdsList",
      "outputs": [
        {
          "internalType": "bool",
          "name": "",
          "type": "bool"
        }
      ],
      "stateMutability": "view",
      "type": "function",
      "constant": true
    },
    {
      "inputs": [],
      "name": "tokenContract",
      "outputs": [
        {
          "internalType": "contract IERC20",
          "name": "",
          "type": "address"
        }
      ],
      "stateMutability": "view",
      "type": "function",
      "constant": true
    },
    {
      "inputs": [],
      "name": "initialize",
      "outputs": [],
      "stateMutability": "nonpayable",
      "type": "function"
    },
    {
      "inputs": [],
      "name": "name",
      "outputs": [
        {
          "internalType": "string",
          "name": "",
          "type": "string"
        }
      ],
      "stateMutability": "pure",
      "type": "function",
      "constant": true
    },
    {
      "inputs": [],
      "name": "version",
      "outputs": [
        {
          "internalType": "string",
          "name": "",
          "type": "string"
        }
      ],
      "stateMutability": "pure",
      "type": "function",
      "constant": true
    },
    {
      "inputs": [
        {
          "internalType": "uint72",
          "name": "identityId",
          "type": "uint72"
        },
        {
          "internalType": "bytes",
          "name": "nodeId",
          "type": "bytes"
        },
        {
          "internalType": "address",
          "name": "sharesContractAddress",
          "type": "address"
        }
      ],
      "name": "createProfile",
      "outputs": [],
      "stateMutability": "nonpayable",
      "type": "function"
    },
    {
      "inputs": [
        {
          "internalType": "uint72",
          "name": "identityId",
          "type": "uint72"
        }
      ],
      "name": "getProfile",
      "outputs": [
        {
          "internalType": "bytes",
          "name": "",
          "type": "bytes"
        },
        {
          "internalType": "uint96[2]",
          "name": "",
          "type": "uint96[2]"
        },
        {
          "internalType": "address",
          "name": "",
          "type": "address"
        }
      ],
      "stateMutability": "view",
      "type": "function",
      "constant": true
    },
    {
      "inputs": [
        {
          "internalType": "uint72",
          "name": "identityId",
          "type": "uint72"
        }
      ],
      "name": "deleteProfile",
      "outputs": [],
      "stateMutability": "nonpayable",
      "type": "function"
    },
    {
      "inputs": [
        {
          "internalType": "uint72",
          "name": "identityId",
          "type": "uint72"
        }
      ],
      "name": "getNodeId",
      "outputs": [
        {
          "internalType": "bytes",
          "name": "",
          "type": "bytes"
        }
      ],
      "stateMutability": "view",
      "type": "function",
      "constant": true
    },
    {
      "inputs": [
        {
          "internalType": "uint72",
          "name": "identityId",
          "type": "uint72"
        },
        {
          "internalType": "bytes",
          "name": "nodeId",
          "type": "bytes"
        }
      ],
      "name": "setNodeId",
      "outputs": [],
      "stateMutability": "nonpayable",
      "type": "function"
    },
    {
      "inputs": [
        {
          "internalType": "uint72",
          "name": "identityId",
          "type": "uint72"
        }
      ],
      "name": "getAsk",
      "outputs": [
        {
          "internalType": "uint96",
          "name": "",
          "type": "uint96"
        }
      ],
      "stateMutability": "view",
      "type": "function",
      "constant": true
    },
    {
      "inputs": [
        {
          "internalType": "uint72",
          "name": "identityId",
          "type": "uint72"
        },
        {
          "internalType": "uint96",
          "name": "ask",
          "type": "uint96"
        }
      ],
      "name": "setAsk",
      "outputs": [],
      "stateMutability": "nonpayable",
      "type": "function"
    },
    {
      "inputs": [
        {
          "internalType": "uint72",
          "name": "identityId",
          "type": "uint72"
        }
      ],
      "name": "getAccumulatedOperatorFee",
      "outputs": [
        {
          "internalType": "uint96",
          "name": "",
          "type": "uint96"
        }
      ],
      "stateMutability": "view",
      "type": "function",
      "constant": true
    },
    {
      "inputs": [
        {
          "internalType": "uint72",
          "name": "identityId",
          "type": "uint72"
        },
        {
          "internalType": "uint96",
          "name": "newOperatorFeeAmount",
          "type": "uint96"
        }
      ],
      "name": "setAccumulatedOperatorFee",
      "outputs": [],
      "stateMutability": "nonpayable",
      "type": "function"
    },
    {
      "inputs": [
        {
          "internalType": "uint72",
          "name": "identityId",
          "type": "uint72"
        }
      ],
      "name": "getAccumulatedOperatorFeeWithdrawalAmount",
      "outputs": [
        {
          "internalType": "uint96",
          "name": "",
          "type": "uint96"
        }
      ],
      "stateMutability": "view",
      "type": "function",
      "constant": true
    },
    {
      "inputs": [
        {
          "internalType": "uint72",
          "name": "identityId",
          "type": "uint72"
        },
        {
          "internalType": "uint96",
          "name": "accumulatedOperatorFeeWithdrawalAmount",
          "type": "uint96"
        }
      ],
      "name": "setAccumulatedOperatorFeeWithdrawalAmount",
      "outputs": [],
      "stateMutability": "nonpayable",
      "type": "function"
    },
    {
      "inputs": [
        {
          "internalType": "uint72",
          "name": "identityId",
          "type": "uint72"
        }
      ],
      "name": "getAccumulatedOperatorFeeWithdrawalTimestamp",
      "outputs": [
        {
          "internalType": "uint256",
          "name": "",
          "type": "uint256"
        }
      ],
      "stateMutability": "view",
      "type": "function",
      "constant": true
    },
    {
      "inputs": [
        {
          "internalType": "uint72",
          "name": "identityId",
          "type": "uint72"
        },
        {
          "internalType": "uint256",
          "name": "operatorFeeWithdrawalTimestamp",
          "type": "uint256"
        }
      ],
      "name": "setAccumulatedOperatorFeeWithdrawalTimestamp",
      "outputs": [],
      "stateMutability": "nonpayable",
      "type": "function"
    },
    {
      "inputs": [
        {
          "internalType": "uint72",
          "name": "identityId",
          "type": "uint72"
        }
      ],
      "name": "getSharesContractAddress",
      "outputs": [
        {
          "internalType": "address",
          "name": "",
          "type": "address"
        }
      ],
      "stateMutability": "view",
      "type": "function",
      "constant": true
    },
    {
      "inputs": [
        {
          "internalType": "uint72",
          "name": "identityId",
          "type": "uint72"
        },
        {
          "internalType": "address",
          "name": "sharesContractAddress",
          "type": "address"
        }
      ],
      "name": "setSharesContractAddress",
      "outputs": [],
      "stateMutability": "nonpayable",
      "type": "function"
    },
    {
      "inputs": [
        {
          "internalType": "uint72",
          "name": "identityId",
          "type": "uint72"
        },
        {
          "internalType": "uint8",
          "name": "hashFunctionId",
          "type": "uint8"
        }
      ],
      "name": "getNodeAddress",
      "outputs": [
        {
          "internalType": "bytes32",
          "name": "",
          "type": "bytes32"
        }
      ],
      "stateMutability": "view",
      "type": "function",
      "constant": true
    },
    {
      "inputs": [
        {
          "internalType": "uint72",
          "name": "identityId",
          "type": "uint72"
        },
        {
          "internalType": "uint8",
          "name": "hashFunctionId",
          "type": "uint8"
        }
      ],
      "name": "setNodeAddress",
      "outputs": [],
      "stateMutability": "nonpayable",
      "type": "function"
    },
    {
      "inputs": [
        {
          "internalType": "uint72",
          "name": "identityId",
          "type": "uint72"
        }
      ],
      "name": "profileExists",
      "outputs": [
        {
          "internalType": "bool",
          "name": "",
          "type": "bool"
        }
      ],
      "stateMutability": "view",
      "type": "function",
      "constant": true
    },
    {
      "inputs": [
        {
          "internalType": "bytes",
          "name": "nodeId",
          "type": "bytes"
        }
      ],
      "name": "nodeIdRegistered",
      "outputs": [
        {
          "internalType": "bool",
          "name": "",
          "type": "bool"
        }
      ],
      "stateMutability": "view",
      "type": "function",
      "constant": true
    },
    {
      "inputs": [
        {
          "internalType": "address",
          "name": "receiver",
          "type": "address"
        },
        {
          "internalType": "uint96",
          "name": "amount",
          "type": "uint96"
        }
      ],
      "name": "transferTokens",
      "outputs": [],
      "stateMutability": "nonpayable",
      "type": "function"
    }
  ],
  "bytecode": "0x60806040523480156200001157600080fd5b506040516200190b3803806200190b8339810160408190526200003491620002a3565b6001600160a01b0381166200004857600080fd5b600080546001600160a01b0319166001600160a01b0383161790556200006d62000074565b50620002d5565b6200007e620001c4565b600054604051630110ceef60e21b815260206004820152600c60248201526b48617368696e6750726f787960a01b60448201526001600160a01b03909116906304433bbc90606401602060405180830381865afa158015620000e4573d6000803e3d6000fd5b505050506040513d601f19601f820116820180604052508101906200010a9190620002a3565b600180546001600160a01b0319166001600160a01b03928316179055600054604051630110ceef60e21b81526020600482015260056024820152642a37b5b2b760d91b60448201529116906304433bbc90606401602060405180830381865afa1580156200017c573d6000803e3d6000fd5b505050506040513d601f19601f82011682018060405250810190620001a29190620002a3565b600280546001600160a01b0319166001600160a01b0392909216919091179055565b60008054906101000a90046001600160a01b03166001600160a01b0316638da5cb5b6040518163ffffffff1660e01b8152600401602060405180830381865afa15801562000216573d6000803e3d6000fd5b505050506040513d601f19601f820116820180604052508101906200023c9190620002a3565b6001600160a01b0316336001600160a01b031614620002a15760405162461bcd60e51b815260206004820181905260248201527f466e2063616e206f6e6c79206265207573656420627920687562206f776e6572604482015260640160405180910390fd5b565b600060208284031215620002b657600080fd5b81516001600160a01b0381168114620002ce57600080fd5b9392505050565b61162680620002e56000396000f3fe608060405234801561001057600080fd5b50600436106101a95760003560e01c80638129fc1c116100f9578063c12b4c7611610097578063dc827de911610071578063dc827de9146104ac578063e49f999b146104bf578063e6c79da5146104e1578063eb2145e31461051657600080fd5b8063c12b4c761461044a578063d0ea3fee14610486578063d184a8691461049957600080fd5b8063b014809f116100d3578063b014809f146103b0578063b8561a54146103c3578063b89bba06146103f9578063c04d7dcf1461043757600080fd5b80638129fc1c14610367578063947bb6151461036f578063abe979e11461039d57600080fd5b806339fb67dd1161016657806355a373d61161014057806355a373d61461030b57806356abe1841461031e57806368dae4fd1461033157806378153abf1461034457600080fd5b806339fb67dd1461028a57806341c10b9a146102d757806354fd4d50146102ea57600080fd5b806306fdde03146101ae57806311c94ee8146101ea5780631913cd551461021557806322bd9e811461024f578063365a86fc146102645780633718ac5914610277575b600080fd5b60408051808201909152600e81526d50726f66696c6553746f7261676560901b60208201525b6040516101e19190610f66565b60405180910390f35b6001546101fd906001600160a01b031681565b6040516001600160a01b0390911681526020016101e1565b610241610223366004610f9c565b6001600160481b031660009081526004602052604090206003015490565b6040519081526020016101e1565b61026261025d366004611000565b610529565b005b6000546101fd906001600160a01b031681565b610262610285366004610f9c565b6105c4565b6102bf610298366004610f9c565b6001600160481b03166000908152600460205260409020600101546001600160601b031690565b6040516001600160601b0390911681526020016101e1565b6101d46102e5366004610f9c565b610676565b6040805180820190915260058152640312e302e360dc1b60208201526101d4565b6002546101fd906001600160a01b031681565b61026261032c366004611053565b610722565b61026261033f36600461107d565b610749565b6103576103523660046110ba565b61080b565b60405190151581526020016101e1565b61026261083a565b61035761037d366004611112565b805160208183018101805160038252928201919093012091525460ff1681565b6102626103ab3660046111ef565b610982565b6102626103be366004611224565b610a0e565b6101fd6103d1366004610f9c565b6001600160481b0316600090815260046020819052604090912001546001600160a01b031690565b61024161040736600461107d565b6001600160481b038216600090815260046020908152604080832060ff8516845260050190915290205492915050565b610357610445366004610f9c565b610a53565b6102bf610458366004610f9c565b6001600160481b0316600090815260046020526040902060010154600160601b90046001600160601b031690565b610262610494366004611250565b610ab8565b6102626104a7366004611250565b610b0b565b6102626104ba36600461126c565b610b4f565b6104d26104cd366004610f9c565b610bd6565b6040516101e1939291906112d2565b6102bf6104ef366004610f9c565b6001600160481b03166000908152600460205260409020600201546001600160601b031690565b610262610524366004611250565b610cd4565b610531610d18565b6001600160481b038316600090815260046020526040808220905190919060039061055d90849061136d565b908152604051908190036020019020805491151560ff1990921691909117905580610589838583611431565b5060016003848460405161059e9291906114f2565b908152604051908190036020019020805491151560ff1990921691909117905550505050565b6105cc610d18565b6001600160481b03811660009081526004602052604080822090516003916105f39161136d565b9081526040805160209281900383019020805460ff1916931515939093179092556001600160481b03831660009081526004909152908120906106368282610eac565b506001810180546001600160c01b03191690556002810180546001600160601b03191690556000600382015560040180546001600160a01b031916905550565b6001600160481b038116600090815260046020526040902080546060919061069d90611333565b80601f01602080910402602001604051908101604052809291908181526020018280546106c990611333565b80156107165780601f106106eb57610100808354040283529160200191610716565b820191906000526020600020905b8154815290600101906020018083116106f957829003601f168201915b50505050509050919050565b61072a610d18565b6001600160481b03909116600090815260046020526040902060030155565b610751610d18565b6001546001600160481b03831660009081526004602081905260409182902091516345ed59e560e01b81526001600160a01b03909316926345ed59e59261079a92869201611502565b6020604051808303816000875af11580156107b9573d6000803e3d6000fd5b505050506040513d601f19601f820116820180604052508101906107dd9190611598565b6001600160481b03909216600090815260046020908152604080832060ff9094168352600590930190522055565b60006003838360405161081f9291906114f2565b9081526040519081900360200190205460ff16905092915050565b610842610dd7565b600054604051630110ceef60e21b815260206004820152600c60248201526b48617368696e6750726f787960a01b60448201526001600160a01b03909116906304433bbc90606401602060405180830381865afa1580156108a7573d6000803e3d6000fd5b505050506040513d601f19601f820116820180604052508101906108cb91906115b1565b600180546001600160a01b0319166001600160a01b03928316179055600054604051630110ceef60e21b81526020600482015260056024820152642a37b5b2b760d91b60448201529116906304433bbc90606401602060405180830381865afa15801561093c573d6000803e3d6000fd5b505050506040513d601f19601f8201168201806040525081019061096091906115b1565b600280546001600160a01b0319166001600160a01b0392909216919091179055565b61098a610d18565b60025460405163a9059cbb60e01b81526001600160a01b0384811660048301526001600160601b03841660248301529091169063a9059cbb906044016020604051808303816000875af11580156109e5573d6000803e3d6000fd5b505050506040513d601f19601f82011682018060405250810190610a0991906115ce565b505050565b610a16610d18565b6001600160481b039190911660009081526004602081905260409091200180546001600160a01b0319166001600160a01b03909216919091179055565b60408051602080820183526000918290526001600160481b038416825260049052818120915190917fc5d2460186f7233c927e7db2dcc703c0e500b653ca82273b7bfad8045d85a47091610aa7919061136d565b604051809103902014159050919050565b610ac0610d18565b6001600160481b03909116600090815260046020526040902060010180546001600160601b03909216600160601b026bffffffffffffffffffffffff60601b19909216919091179055565b610b13610d18565b6001600160481b0391909116600090815260046020526040902060010180546001600160601b0319166001600160601b03909216919091179055565b610b57610d18565b6001600160481b038416600090815260046020526040902080610b7b848683611431565b506004810180546001600160a01b0319166001600160a01b038416179055604051600190600390610baf90879087906114f2565b908152604051908190036020019020805491151560ff199092169190911790555050505050565b6060610be0610ee9565b6001600160481b0383166000908152600460208181526040808420815180830190925260018101546001600160601b038082168452600160601b90910416928201929092529181015481549192839290916001600160a01b0316908390610c4690611333565b80601f0160208091040260200160405190810160405280929190818152602001828054610c7290611333565b8015610cbf5780601f10610c9457610100808354040283529160200191610cbf565b820191906000526020600020905b815481529060010190602001808311610ca257829003601f168201915b50505050509250935093509350509193909250565b610cdc610d18565b6001600160481b0391909116600090815260046020526040902060020180546001600160601b0319166001600160601b03909216919091179055565b600054604051631627905560e01b81523360048201526001600160a01b0390911690631627905590602401602060405180830381865afa158015610d60573d6000803e3d6000fd5b505050506040513d601f19601f82011682018060405250810190610d8491906115ce565b610dd55760405162461bcd60e51b815260206004820181905260248201527f466e2063616e206f6e6c792062652063616c6c6564206279207468652068756260448201526064015b60405180910390fd5b565b60008054906101000a90046001600160a01b03166001600160a01b0316638da5cb5b6040518163ffffffff1660e01b8152600401602060405180830381865afa158015610e28573d6000803e3d6000fd5b505050506040513d601f19601f82011682018060405250810190610e4c91906115b1565b6001600160a01b0316336001600160a01b031614610dd55760405162461bcd60e51b815260206004820181905260248201527f466e2063616e206f6e6c79206265207573656420627920687562206f776e65726044820152606401610dcc565b508054610eb890611333565b6000825580601f10610ec8575050565b601f016020900490600052602060002090810190610ee69190610f07565b50565b60405180604001604052806002906020820280368337509192915050565b5b80821115610f1c5760008155600101610f08565b5090565b6000815180845260005b81811015610f4657602081850181015186830182015201610f2a565b506000602082860101526020601f19601f83011685010191505092915050565b602081526000610f796020830184610f20565b9392505050565b80356001600160481b0381168114610f9757600080fd5b919050565b600060208284031215610fae57600080fd5b610f7982610f80565b60008083601f840112610fc957600080fd5b50813567ffffffffffffffff811115610fe157600080fd5b602083019150836020828501011115610ff957600080fd5b9250929050565b60008060006040848603121561101557600080fd5b61101e84610f80565b9250602084013567ffffffffffffffff81111561103a57600080fd5b61104686828701610fb7565b9497909650939450505050565b6000806040838503121561106657600080fd5b61106f83610f80565b946020939093013593505050565b6000806040838503121561109057600080fd5b61109983610f80565b9150602083013560ff811681146110af57600080fd5b809150509250929050565b600080602083850312156110cd57600080fd5b823567ffffffffffffffff8111156110e457600080fd5b6110f085828601610fb7565b90969095509350505050565b634e487b7160e01b600052604160045260246000fd5b60006020828403121561112457600080fd5b813567ffffffffffffffff8082111561113c57600080fd5b818401915084601f83011261115057600080fd5b813581811115611162576111626110fc565b604051601f8201601f19908116603f0116810190838211818310171561118a5761118a6110fc565b816040528281528760208487010111156111a357600080fd5b826020860160208301376000928101602001929092525095945050505050565b6001600160a01b0381168114610ee657600080fd5b80356001600160601b0381168114610f9757600080fd5b6000806040838503121561120257600080fd5b823561120d816111c3565b915061121b602084016111d8565b90509250929050565b6000806040838503121561123757600080fd5b61124083610f80565b915060208301356110af816111c3565b6000806040838503121561126357600080fd5b61120d83610f80565b6000806000806060858703121561128257600080fd5b61128b85610f80565b9350602085013567ffffffffffffffff8111156112a757600080fd5b6112b387828801610fb7565b90945092505060408501356112c7816111c3565b939692955090935050565b6080815260006112e56080830186610f20565b905060208083018560005b60028110156113165781516001600160601b0316835291830191908301906001016112f0565b505050506001600160a01b03929092166060919091015292915050565b600181811c9082168061134757607f821691505b60208210810361136757634e487b7160e01b600052602260045260246000fd5b50919050565b600080835461137b81611333565b6001828116801561139357600181146113a8576113d7565b60ff19841687528215158302870194506113d7565b8760005260208060002060005b858110156113ce5781548a8201529084019082016113b5565b50505082870194505b50929695505050505050565b601f821115610a0957600081815260208120601f850160051c8101602086101561140a5750805b601f850160051c820191505b8181101561142957828155600101611416565b505050505050565b67ffffffffffffffff831115611449576114496110fc565b61145d836114578354611333565b836113e3565b6000601f84116001811461149157600085156114795750838201355b600019600387901b1c1916600186901b1783556114eb565b600083815260209020601f19861690835b828110156114c257868501358255602094850194600190920191016114a2565b50868210156114df5760001960f88860031b161c19848701351681555b505060018560011b0183555b5050505050565b8183823760009101908152919050565b60ff83168152600060206040818401526000845461151f81611333565b8060408701526060600180841660008114611541576001811461155b57611589565b60ff1985168984015283151560051b890183019550611589565b896000528660002060005b858110156115815781548b8201860152908301908801611566565b8a0184019650505b50939998505050505050505050565b6000602082840312156115aa57600080fd5b5051919050565b6000602082840312156115c357600080fd5b8151610f79816111c3565b6000602082840312156115e057600080fd5b81518015158114610f7957600080fdfea2646970667358221220b24453f6112cc88a01c114df67e10363dbb70cb065a65e3956833b75822261da64736f6c63430008100033",
  "immutableReferences": {},
  "source": "// SPDX-License-Identifier: MIT\n\npragma solidity ^0.8.4;\n\nimport { HashingProxy } from \"../HashingProxy.sol\";\nimport { Hub } from \"../Hub.sol\";\nimport { Named } from \"../interface/Named.sol\";\nimport { Versioned } from \"../interface/Versioned.sol\";\nimport { IERC20 } from \"@openzeppelin/contracts/token/ERC20/IERC20.sol\";\n\ncontract ProfileStorage is Named, Versioned {\n\n    string constant private _NAME = \"ProfileStorage\";\n    string constant private _VERSION = \"1.0.0\";\n\n    Hub public hub;\n    HashingProxy public hashingProxy;\n    IERC20 public tokenContract;\n\n    struct ProfileDefinition{\n        bytes nodeId;\n        uint96 ask;\n        uint96 accumulatedOperatorFee;\n        uint96 accumulatedOperatorFeeWithdrawalAmount;\n        uint256 operatorFeeWithdrawalTimestamp;\n        address sharesContractAddress;\n        mapping(uint8 => bytes32) nodeAddresses;\n    }\n\n    // nodeId => isRegistered?\n    mapping(bytes => bool) public nodeIdsList;\n    // identityId => Profile\n    mapping(uint72 => ProfileDefinition) profiles;\n\n    constructor(address hubAddress) {\n        require(hubAddress != address(0));\n\n        hub = Hub(hubAddress);\n        initialize();\n    }\n\n    function initialize() public onlyHubOwner {\n        hashingProxy = HashingProxy(hub.getContractAddress(\"HashingProxy\"));\n        tokenContract = IERC20(hub.getContractAddress(\"Token\"));\n    }\n\n    modifier onlyHubOwner() {\n        _checkHubOwner();\n        _;\n    }\n\n    modifier onlyContracts() {\n        _checkHub();\n        _;\n    }\n\n    function name() external pure virtual override returns (string memory) {\n        return _NAME;\n    }\n\n    function version() external pure virtual override returns (string memory) {\n        return _VERSION;\n    }\n\n    function createProfile(uint72 identityId, bytes calldata nodeId, address sharesContractAddress)\n        external\n        onlyContracts\n    {\n        ProfileDefinition storage profile = profiles[identityId];\n        profile.nodeId = nodeId;\n        profile.sharesContractAddress = sharesContractAddress;\n\n        nodeIdsList[nodeId] = true;\n    }\n\n    function getProfile(uint72 identityId) external view returns (bytes memory, uint96[2] memory, address) {\n        ProfileDefinition storage profile = profiles[identityId];\n        return (profile.nodeId, [profile.ask, profile.accumulatedOperatorFee], profile.sharesContractAddress);\n    }\n\n    function deleteProfile(uint72 identityId) external onlyContracts {\n        nodeIdsList[profiles[identityId].nodeId] = false;\n        delete profiles[identityId];\n    }\n\n    function getNodeId(uint72 identityId) external view returns (bytes memory) {\n        return profiles[identityId].nodeId;\n    }\n\n    function setNodeId(uint72 identityId, bytes calldata nodeId) external onlyContracts {\n        ProfileDefinition storage profile = profiles[identityId];\n\n        nodeIdsList[profile.nodeId] = false;\n        profile.nodeId = nodeId;\n        nodeIdsList[nodeId] = true;\n    }\n\n    function getAsk(uint72 identityId) external view returns (uint96) {\n        return profiles[identityId].ask;\n    }\n\n    function setAsk(uint72 identityId, uint96 ask) external onlyContracts {\n        profiles[identityId].ask = ask;\n    }\n\n    function getAccumulatedOperatorFee(uint72 identityId) external view returns (uint96) {\n        return profiles[identityId].accumulatedOperatorFee;\n    }\n\n    function setAccumulatedOperatorFee(uint72 identityId, uint96 newOperatorFeeAmount) external onlyContracts {\n        profiles[identityId].accumulatedOperatorFee = newOperatorFeeAmount;\n    }\n\n    function getAccumulatedOperatorFeeWithdrawalAmount(uint72 identityId) external view returns (uint96) {\n        return profiles[identityId].accumulatedOperatorFeeWithdrawalAmount;\n    }\n\n    function setAccumulatedOperatorFeeWithdrawalAmount(uint72 identityId, uint96 accumulatedOperatorFeeWithdrawalAmount) external onlyContracts {\n        profiles[identityId].accumulatedOperatorFeeWithdrawalAmount = accumulatedOperatorFeeWithdrawalAmount;\n    }\n\n    function getAccumulatedOperatorFeeWithdrawalTimestamp(uint72 identityId) external view returns (uint256) {\n        return profiles[identityId].operatorFeeWithdrawalTimestamp;\n    }\n\n    function setAccumulatedOperatorFeeWithdrawalTimestamp(uint72 identityId, uint256 operatorFeeWithdrawalTimestamp) external onlyContracts {\n        profiles[identityId].operatorFeeWithdrawalTimestamp = operatorFeeWithdrawalTimestamp;\n    }\n\n    function getSharesContractAddress(uint72 identityId) external view returns (address) {\n        return profiles[identityId].sharesContractAddress;\n    }\n\n    function setSharesContractAddress(uint72 identityId, address sharesContractAddress) external onlyContracts {\n        profiles[identityId].sharesContractAddress = sharesContractAddress;\n    }\n\n    function getNodeAddress(uint72 identityId, uint8 hashFunctionId) external view returns (bytes32) {\n        return profiles[identityId].nodeAddresses[hashFunctionId];\n    }\n\n    function setNodeAddress(uint72 identityId, uint8 hashFunctionId) external onlyContracts {\n        profiles[identityId].nodeAddresses[hashFunctionId] = hashingProxy.callHashFunction(\n            hashFunctionId,\n            profiles[identityId].nodeId\n        );\n    }\n\n    function profileExists(uint72 identityId) external view returns (bool) {\n        return keccak256(profiles[identityId].nodeId) != keccak256(bytes(\"\"));\n    }\n\n    function nodeIdRegistered(bytes calldata nodeId) external view returns (bool) {\n        return nodeIdsList[nodeId];\n    }\n\n    function transferTokens(address receiver, uint96 amount) external onlyContracts {\n        tokenContract.transfer(receiver, amount);\n    }\n\n    function _checkHub() internal view virtual {\n        require(hub.isContract(msg.sender), \"Fn can only be called by the hub\");\n    }\n\n    function _checkHubOwner() internal view virtual {\n        require(msg.sender == hub.owner(), \"Fn can only be used by hub owner\");\n    }\n}\n",
  "sourcePath": "/Users/djordjekovacevic/Desktop/projects/dkg-evm-module/contracts/storage/ProfileStorage.sol",
  "compiler": {
    "name": "solc",
    "version": "0.8.16+commit.07a7930e.Emscripten.clang"
  },
  "schemaVersion": "3.4.10",
  "updatedAt": "2022-12-06T17:21:37.215Z",
  "networkType": "ethereum",
  "devdoc": {
    "kind": "dev",
    "methods": {},
    "version": 1
  },
  "userdoc": {
    "kind": "user",
    "methods": {},
    "version": 1
  }
}