{
  "contractName": "Profile",
  "abi": [
    {
      "inputs": [
        {
          "internalType": "address",
          "name": "hubAddress",
          "type": "address"
        }
      ],
      "stateMutability": "nonpayable",
      "type": "constructor"
    },
    {
      "anonymous": false,
      "inputs": [
        {
          "indexed": false,
          "internalType": "address",
          "name": "profile",
          "type": "address"
        },
        {
          "indexed": false,
          "internalType": "address",
          "name": "newIdentity",
          "type": "address"
        }
      ],
      "name": "IdentityCreated",
      "type": "event"
    },
    {
      "anonymous": false,
      "inputs": [
        {
          "indexed": false,
          "internalType": "bytes20",
          "name": "nodeId",
          "type": "bytes20"
        },
        {
          "indexed": false,
          "internalType": "address",
          "name": "oldIdentity",
          "type": "address"
        },
        {
          "indexed": false,
          "internalType": "address",
          "name": "newIdentity",
          "type": "address"
        }
      ],
      "name": "IdentityTransferred",
      "type": "event"
    },
    {
      "anonymous": false,
      "inputs": [
        {
          "indexed": false,
          "internalType": "address",
          "name": "profile",
          "type": "address"
        },
        {
          "indexed": false,
          "internalType": "uint256",
          "name": "initialBalance",
          "type": "uint256"
        }
      ],
      "name": "ProfileCreated",
      "type": "event"
    },
    {
      "anonymous": false,
      "inputs": [
        {
          "indexed": false,
          "internalType": "address",
          "name": "profile",
          "type": "address"
        },
        {
          "indexed": false,
          "internalType": "uint256",
          "name": "amount",
          "type": "uint256"
        }
      ],
      "name": "TokenDeposit",
      "type": "event"
    },
    {
      "anonymous": false,
      "inputs": [
        {
          "indexed": false,
          "internalType": "address",
          "name": "profile",
          "type": "address"
        }
      ],
      "name": "TokenWithdrawalCancelled",
      "type": "event"
    },
    {
      "anonymous": false,
      "inputs": [
        {
          "indexed": false,
          "internalType": "address",
          "name": "profile",
          "type": "address"
        },
        {
          "indexed": false,
          "internalType": "uint256",
          "name": "amountDeposited",
          "type": "uint256"
        },
        {
          "indexed": false,
          "internalType": "uint256",
          "name": "newBalance",
          "type": "uint256"
        }
      ],
      "name": "TokensDeposited",
      "type": "event"
    },
    {
      "anonymous": false,
      "inputs": [
        {
          "indexed": false,
          "internalType": "address",
          "name": "profile",
          "type": "address"
        },
        {
          "indexed": false,
          "internalType": "uint256",
          "name": "amount",
          "type": "uint256"
        }
      ],
      "name": "TokensReleased",
      "type": "event"
    },
    {
      "anonymous": false,
      "inputs": [
        {
          "indexed": false,
          "internalType": "address",
          "name": "profile",
          "type": "address"
        },
        {
          "indexed": false,
          "internalType": "uint256",
          "name": "amountReserved",
          "type": "uint256"
        }
      ],
      "name": "TokensReserved",
      "type": "event"
    },
    {
      "anonymous": false,
      "inputs": [
        {
          "indexed": false,
          "internalType": "address",
          "name": "sender",
          "type": "address"
        },
        {
          "indexed": false,
          "internalType": "address",
          "name": "receiver",
          "type": "address"
        },
        {
          "indexed": false,
          "internalType": "uint256",
          "name": "amount",
          "type": "uint256"
        }
      ],
      "name": "TokensTransferred",
      "type": "event"
    },
    {
      "anonymous": false,
      "inputs": [
        {
          "indexed": false,
          "internalType": "address",
          "name": "profile",
          "type": "address"
        },
        {
          "indexed": false,
          "internalType": "uint256",
          "name": "amountWithdrawn",
          "type": "uint256"
        },
        {
          "indexed": false,
          "internalType": "uint256",
          "name": "newBalance",
          "type": "uint256"
        }
      ],
      "name": "TokensWithdrawn",
      "type": "event"
    },
    {
      "anonymous": false,
      "inputs": [
        {
          "indexed": false,
          "internalType": "address",
          "name": "profile",
          "type": "address"
        },
        {
          "indexed": false,
          "internalType": "uint256",
          "name": "amount",
          "type": "uint256"
        },
        {
          "indexed": false,
          "internalType": "uint256",
          "name": "withdrawalDelayInSeconds",
          "type": "uint256"
        }
      ],
      "name": "WithdrawalInitiated",
      "type": "event"
    },
    {
      "inputs": [],
      "name": "hub",
      "outputs": [
        {
          "internalType": "contract Hub",
          "name": "",
          "type": "address"
        }
      ],
      "stateMutability": "view",
      "type": "function"
    },
    {
      "inputs": [],
      "name": "minimalStake",
      "outputs": [
        {
          "internalType": "uint256",
          "name": "",
          "type": "uint256"
        }
      ],
      "stateMutability": "view",
      "type": "function"
    },
    {
      "inputs": [],
      "name": "withdrawalTime",
      "outputs": [
        {
          "internalType": "uint256",
          "name": "",
          "type": "uint256"
        }
      ],
      "stateMutability": "view",
      "type": "function"
    },
    {
      "inputs": [
        {
          "internalType": "address",
          "name": "managementWallet",
          "type": "address"
        },
        {
          "internalType": "bytes32",
          "name": "nodeId",
          "type": "bytes32"
        },
        {
          "internalType": "uint256",
          "name": "initialBalance",
          "type": "uint256"
        },
        {
          "internalType": "address",
          "name": "identity",
          "type": "address"
        },
        {
          "internalType": "uint256",
          "name": "initialAsk",
          "type": "uint256"
        }
      ],
      "name": "createProfile",
      "outputs": [],
      "stateMutability": "nonpayable",
      "type": "function"
    },
    {
      "inputs": [
        {
          "internalType": "address",
          "name": "identity",
          "type": "address"
        },
        {
          "internalType": "uint256",
          "name": "amount",
          "type": "uint256"
        }
      ],
      "name": "depositTokens",
      "outputs": [],
      "stateMutability": "nonpayable",
      "type": "function"
    },
    {
      "inputs": [
        {
          "internalType": "address",
          "name": "identity",
          "type": "address"
        },
        {
          "internalType": "uint256",
          "name": "amount",
          "type": "uint256"
        }
      ],
      "name": "startTokenWithdrawal",
      "outputs": [],
      "stateMutability": "nonpayable",
      "type": "function"
    },
    {
      "inputs": [
        {
          "internalType": "address",
          "name": "identity",
          "type": "address"
        }
      ],
      "name": "withdrawTokens",
      "outputs": [],
      "stateMutability": "nonpayable",
      "type": "function"
    },
    {
      "inputs": [
        {
          "internalType": "address",
          "name": "profile",
          "type": "address"
        },
        {
          "internalType": "uint256",
          "name": "amount",
          "type": "uint256"
        }
      ],
      "name": "releaseTokens",
      "outputs": [],
      "stateMutability": "nonpayable",
      "type": "function"
    },
    {
      "inputs": [
        {
          "internalType": "address",
          "name": "sender",
          "type": "address"
        },
        {
          "internalType": "address",
          "name": "receiver",
          "type": "address"
        },
        {
          "internalType": "uint256",
          "name": "amount",
          "type": "uint256"
        }
      ],
      "name": "transferTokens",
      "outputs": [],
      "stateMutability": "nonpayable",
      "type": "function"
    },
    {
      "inputs": [
        {
          "internalType": "uint256",
          "name": "newMinimalStake",
          "type": "uint256"
        }
      ],
      "name": "setMinimalStake",
      "outputs": [],
      "stateMutability": "nonpayable",
      "type": "function"
    },
    {
      "inputs": [
        {
          "internalType": "uint256",
          "name": "newWithdrawalTime",
          "type": "uint256"
        }
      ],
      "name": "setWithdrawalTime",
      "outputs": [],
      "stateMutability": "nonpayable",
      "type": "function"
    }
  ],
  "bytecode": "0x6080604052690a968163f0a57b40000060015561012c6002553480156200002557600080fd5b5060405162003cb838038062003cb883398181016040528101906200004b919062000136565b600073ffffffffffffffffffffffffffffffffffffffff168173ffffffffffffffffffffffffffffffffffffffff16036200008557600080fd5b806000806101000a81548173ffffffffffffffffffffffffffffffffffffffff021916908373ffffffffffffffffffffffffffffffffffffffff1602179055505062000168565b600080fd5b600073ffffffffffffffffffffffffffffffffffffffff82169050919050565b6000620000fe82620000d1565b9050919050565b6200011081620000f1565b81146200011c57600080fd5b50565b600081519050620001308162000105565b92915050565b6000602082840312156200014f576200014e620000cc565b5b60006200015f848285016200011f565b91505092915050565b613b4080620001786000396000f3fe608060405234801561001057600080fd5b50600436106100a95760003560e01c806349df728c1161007157806349df728c1461013e57806366168bd71461015a5780639ec41a2d14610176578063a64b6e5f14610194578063b6af3643146101b0578063f40d71f1146101cc576100a9565b806307ab5e84146100ae5780631acab341146100ca578063365a86fc146100e6578063389eb9f9146101045780633d6ec65e14610122575b600080fd5b6100c860048036038101906100c39190612a52565b6101e8565b005b6100e460048036038101906100df9190612ac8565b610778565b005b6100ee610ecc565b6040516100fb9190612ba2565b60405180910390f35b61010c610ef0565b6040516101199190612bcc565b60405180910390f35b61013c60048036038101906101379190612be7565b610ef6565b005b61015860048036038101906101539190612c14565b611006565b005b610174600480360381019061016f9190612a52565b61187a565b005b61017e611e3c565b60405161018b9190612bcc565b60405180910390f35b6101ae60048036038101906101a99190612c41565b611e42565b005b6101ca60048036038101906101c59190612be7565b6124e3565b005b6101e660048036038101906101e19190612a52565b6125f3565b005b8173ffffffffffffffffffffffffffffffffffffffff1663d202158d336040516020016102159190612cdc565b6040516020818303038152906040528051906020012060016040518363ffffffff1660e01b815260040161024a929190612d41565b602060405180830381865afa158015610267573d6000803e3d6000fd5b505050506040513d601f19601f8201168201806040525081019061028b9190612da2565b6102ca576040517f08c379a00000000000000000000000000000000000000000000000000000000081526004016102c190612e52565b60405180910390fd5b60008060009054906101000a900473ffffffffffffffffffffffffffffffffffffffff1673ffffffffffffffffffffffffffffffffffffffff166304433bbc6040518163ffffffff1660e01b815260040161032490612ebe565b602060405180830381865afa158015610341573d6000803e3d6000fd5b505050506040513d601f19601f820116820180604052508101906103659190612ef3565b9050600015158173ffffffffffffffffffffffffffffffffffffffff16632ba97595856040518263ffffffff1660e01b81526004016103a49190612f2f565b602060405180830381865afa1580156103c1573d6000803e3d6000fd5b505050506040513d601f19601f820116820180604052508101906103e59190612da2565b151514610427576040517f08c379a000000000000000000000000000000000000000000000000000000000815260040161041e90612fbc565b60405180910390fd5b60008173ffffffffffffffffffffffffffffffffffffffff16635ffe0282856040518263ffffffff1660e01b81526004016104629190612f2f565b602060405180830381865afa15801561047f573d6000803e3d6000fd5b505050506040513d601f19601f820116820180604052508101906104a39190612ff1565b8273ffffffffffffffffffffffffffffffffffffffff16637a766460866040518263ffffffff1660e01b81526004016104dc9190612f2f565b602060405180830381865afa1580156104f9573d6000803e3d6000fd5b505050506040513d601f19601f8201168201806040525081019061051d9190612ff1565b610527919061304d565b90508173ffffffffffffffffffffffffffffffffffffffff16639385067f8560016040518363ffffffff1660e01b8152600401610565929190613090565b600060405180830381600087803b15801561057f57600080fd5b505af1158015610593573d6000803e3d6000fd5b505050508173ffffffffffffffffffffffffffffffffffffffff166367b6d27185600254426105c291906130b9565b6040518363ffffffff1660e01b81526004016105df92919061310f565b600060405180830381600087803b1580156105f957600080fd5b505af115801561060d573d6000803e3d6000fd5b505050508281106106c7578173ffffffffffffffffffffffffffffffffffffffff166382aa292885856040518363ffffffff1660e01b815260040161065392919061310f565b600060405180830381600087803b15801561066d57600080fd5b505af1158015610681573d6000803e3d6000fd5b505050507f31f69201fab7912e3ec9850e3ab705964bf46d9d4276bdcbb6d05e965e5f540184846002546040516106ba93929190613138565b60405180910390a1610772565b8173ffffffffffffffffffffffffffffffffffffffff166382aa292885836040518363ffffffff1660e01b815260040161070292919061310f565b600060405180830381600087803b15801561071c57600080fd5b505af1158015610730573d6000803e3d6000fd5b505050507f31f69201fab7912e3ec9850e3ab705964bf46d9d4276bdcbb6d05e965e5f5401848260025460405161076993929190613138565b60405180910390a15b50505050565b600073ffffffffffffffffffffffffffffffffffffffff168573ffffffffffffffffffffffffffffffffffffffff16036107b157600080fd5b60008060009054906101000a900473ffffffffffffffffffffffffffffffffffffffff1673ffffffffffffffffffffffffffffffffffffffff166304433bbc6040518163ffffffff1660e01b815260040161080b906131bb565b602060405180830381865afa158015610828573d6000803e3d6000fd5b505050506040513d601f19601f8201168201806040525081019061084c9190612ef3565b9050838173ffffffffffffffffffffffffffffffffffffffff1663dd62ed3e33306040518363ffffffff1660e01b815260040161088a9291906131db565b602060405180830381865afa1580156108a7573d6000803e3d6000fd5b505050506040513d601f19601f820116820180604052508101906108cb9190612ff1565b101561090c576040517f08c379a000000000000000000000000000000000000000000000000000000000815260040161090390613276565b60405180910390fd5b838173ffffffffffffffffffffffffffffffffffffffff166370a08231336040518263ffffffff1660e01b81526004016109469190612f2f565b602060405180830381865afa158015610963573d6000803e3d6000fd5b505050506040513d601f19601f820116820180604052508101906109879190612ff1565b10156109c8576040517f08c379a00000000000000000000000000000000000000000000000000000000081526004016109bf90613308565b60405180910390fd5b60008560001c03610a0e576040517f08c379a0000000000000000000000000000000000000000000000000000000008152600401610a059061339a565b60405180910390fd5b60008060009054906101000a900473ffffffffffffffffffffffffffffffffffffffff1673ffffffffffffffffffffffffffffffffffffffff166304433bbc6040518163ffffffff1660e01b8152600401610a6890612ebe565b602060405180830381865afa158015610a85573d6000803e3d6000fd5b505050506040513d601f19601f82011682018060405250810190610aa99190612ef3565b905060008060009054906101000a900473ffffffffffffffffffffffffffffffffffffffff1673ffffffffffffffffffffffffffffffffffffffff166304433bbc6040518163ffffffff1660e01b8152600401610b0590613406565b602060405180830381865afa158015610b22573d6000803e3d6000fd5b505050506040513d601f19601f82011682018060405250810190610b469190612ef3565b90508273ffffffffffffffffffffffffffffffffffffffff166323b872dd3360008054906101000a900473ffffffffffffffffffffffffffffffffffffffff1673ffffffffffffffffffffffffffffffffffffffff166304433bbc6040518163ffffffff1660e01b8152600401610bbc90612ebe565b602060405180830381865afa158015610bd9573d6000803e3d6000fd5b505050506040513d601f19601f82011682018060405250810190610bfd9190612ef3565b896040518463ffffffff1660e01b8152600401610c1c93929190613426565b6020604051808303816000875af1158015610c3b573d6000803e3d6000fd5b505050506040513d601f19601f82011682018060405250810190610c5f9190612da2565b508473ffffffffffffffffffffffffffffffffffffffff1663d202158d33604051602001610c8d9190612cdc565b6040516020818303038152906040528051906020012060026040518363ffffffff1660e01b8152600401610cc2929190613498565b602060405180830381865afa158015610cdf573d6000803e3d6000fd5b505050506040513d601f19601f82011682018060405250810190610d039190612da2565b610d42576040517f08c379a0000000000000000000000000000000000000000000000000000000008152600401610d3990613533565b60405180910390fd5b8173ffffffffffffffffffffffffffffffffffffffff1663bd3cd52586886040518363ffffffff1660e01b8152600401610d7d92919061310f565b600060405180830381600087803b158015610d9757600080fd5b505af1158015610dab573d6000803e3d6000fd5b505050508173ffffffffffffffffffffffffffffffffffffffff16637fdc367686896040518363ffffffff1660e01b8152600401610dea929190613553565b600060405180830381600087803b158015610e0457600080fd5b505af1158015610e18573d6000803e3d6000fd5b505050508073ffffffffffffffffffffffffffffffffffffffff16631292e23386866040518363ffffffff1660e01b8152600401610e5792919061310f565b600060405180830381600087803b158015610e7157600080fd5b505af1158015610e85573d6000803e3d6000fd5b505050507fcb939889322fed25104a5d8945bde5162563412a1fd718946cdcacb03088ea088587604051610eba92919061310f565b60405180910390a15050505050505050565b60008054906101000a900473ffffffffffffffffffffffffffffffffffffffff1681565b60025481565b60008054906101000a900473ffffffffffffffffffffffffffffffffffffffff1673ffffffffffffffffffffffffffffffffffffffff16638da5cb5b6040518163ffffffff1660e01b8152600401602060405180830381865afa158015610f61573d6000803e3d6000fd5b505050506040513d601f19601f82011682018060405250810190610f859190612ef3565b73ffffffffffffffffffffffffffffffffffffffff163373ffffffffffffffffffffffffffffffffffffffff1614610ff2576040517f08c379a0000000000000000000000000000000000000000000000000000000008152600401610fe9906135ee565b60405180910390fd5b806001541461100357806001819055505b50565b8073ffffffffffffffffffffffffffffffffffffffff1663d202158d336040516020016110339190612cdc565b6040516020818303038152906040528051906020012060016040518363ffffffff1660e01b8152600401611068929190612d41565b602060405180830381865afa158015611085573d6000803e3d6000fd5b505050506040513d601f19601f820116820180604052508101906110a99190612da2565b6110e8576040517f08c379a00000000000000000000000000000000000000000000000000000000081526004016110df90612e52565b60405180910390fd5b60008060009054906101000a900473ffffffffffffffffffffffffffffffffffffffff1673ffffffffffffffffffffffffffffffffffffffff166304433bbc6040518163ffffffff1660e01b815260040161114290612ebe565b602060405180830381865afa15801561115f573d6000803e3d6000fd5b505050506040513d601f19601f820116820180604052508101906111839190612ef3565b905060008060009054906101000a900473ffffffffffffffffffffffffffffffffffffffff1673ffffffffffffffffffffffffffffffffffffffff166304433bbc6040518163ffffffff1660e01b81526004016111df90613406565b602060405180830381865afa1580156111fc573d6000803e3d6000fd5b505050506040513d601f19601f820116820180604052508101906112209190612ef3565b9050600115158273ffffffffffffffffffffffffffffffffffffffff16632ba97595856040518263ffffffff1660e01b815260040161125f9190612f2f565b602060405180830381865afa15801561127c573d6000803e3d6000fd5b505050506040513d601f19601f820116820180604052508101906112a09190612da2565b1515146112e2576040517f08c379a00000000000000000000000000000000000000000000000000000000081526004016112d990613680565b60405180910390fd5b428273ffffffffffffffffffffffffffffffffffffffff16639344ea6e856040518263ffffffff1660e01b815260040161131c9190612f2f565b602060405180830381865afa158015611339573d6000803e3d6000fd5b505050506040513d601f19601f8201168201806040525081019061135d9190612ff1565b1061139d576040517f08c379a000000000000000000000000000000000000000000000000000000000815260040161139490613712565b60405180910390fd5b8173ffffffffffffffffffffffffffffffffffffffff1663bec3fa17338473ffffffffffffffffffffffffffffffffffffffff166356582bf9876040518263ffffffff1660e01b81526004016113f39190612f2f565b602060405180830381865afa158015611410573d6000803e3d6000fd5b505050506040513d601f19601f820116820180604052508101906114349190612ff1565b6040518363ffffffff1660e01b815260040161145192919061310f565b600060405180830381600087803b15801561146b57600080fd5b505af115801561147f573d6000803e3d6000fd5b505050508173ffffffffffffffffffffffffffffffffffffffff1663bd3cd525848473ffffffffffffffffffffffffffffffffffffffff166356582bf9876040518263ffffffff1660e01b81526004016114d99190612f2f565b602060405180830381865afa1580156114f6573d6000803e3d6000fd5b505050506040513d601f19601f8201168201806040525081019061151a9190612ff1565b8573ffffffffffffffffffffffffffffffffffffffff16637a766460886040518263ffffffff1660e01b81526004016115539190612f2f565b602060405180830381865afa158015611570573d6000803e3d6000fd5b505050506040513d601f19601f820116820180604052508101906115949190612ff1565b61159e919061304d565b6040518363ffffffff1660e01b81526004016115bb92919061310f565b600060405180830381600087803b1580156115d557600080fd5b505af11580156115e9573d6000803e3d6000fd5b505050508173ffffffffffffffffffffffffffffffffffffffff16639385067f8460006040518363ffffffff1660e01b8152600401611629929190613090565b600060405180830381600087803b15801561164357600080fd5b505af1158015611657573d6000803e3d6000fd5b5050505060008273ffffffffffffffffffffffffffffffffffffffff16637a766460856040518263ffffffff1660e01b81526004016116969190612f2f565b602060405180830381865afa1580156116b3573d6000803e3d6000fd5b505050506040513d601f19601f820116820180604052508101906116d79190612ff1565b03611748578073ffffffffffffffffffffffffffffffffffffffff1663b2b99ec9846040518263ffffffff1660e01b81526004016117159190612f2f565b600060405180830381600087803b15801561172f57600080fd5b505af1158015611743573d6000803e3d6000fd5b505050505b7fffe903c0abe6b2dbb2f3474ef43d7a3c1fca49e5a774453423ca8e1952aabffa838373ffffffffffffffffffffffffffffffffffffffff166356582bf9866040518263ffffffff1660e01b81526004016117a39190612f2f565b602060405180830381865afa1580156117c0573d6000803e3d6000fd5b505050506040513d601f19601f820116820180604052508101906117e49190612ff1565b8473ffffffffffffffffffffffffffffffffffffffff16637a766460876040518263ffffffff1660e01b815260040161181d9190612f2f565b602060405180830381865afa15801561183a573d6000803e3d6000fd5b505050506040513d601f19601f8201168201806040525081019061185e9190612ff1565b60405161186d93929190613138565b60405180910390a1505050565b8173ffffffffffffffffffffffffffffffffffffffff1663d202158d336040516020016118a79190612cdc565b6040516020818303038152906040528051906020012060016040518363ffffffff1660e01b81526004016118dc929190612d41565b602060405180830381865afa1580156118f9573d6000803e3d6000fd5b505050506040513d601f19601f8201168201806040525081019061191d9190612da2565b61195c576040517f08c379a000000000000000000000000000000000000000000000000000000000815260040161195390612e52565b60405180910390fd5b60008060009054906101000a900473ffffffffffffffffffffffffffffffffffffffff1673ffffffffffffffffffffffffffffffffffffffff166304433bbc6040518163ffffffff1660e01b81526004016119b690612ebe565b602060405180830381865afa1580156119d3573d6000803e3d6000fd5b505050506040513d601f19601f820116820180604052508101906119f79190612ef3565b905060008060009054906101000a900473ffffffffffffffffffffffffffffffffffffffff1673ffffffffffffffffffffffffffffffffffffffff166304433bbc6040518163ffffffff1660e01b8152600401611a53906131bb565b602060405180830381865afa158015611a70573d6000803e3d6000fd5b505050506040513d601f19601f82011682018060405250810190611a949190612ef3565b9050828173ffffffffffffffffffffffffffffffffffffffff1663dd62ed3e33856040518363ffffffff1660e01b8152600401611ad29291906131db565b602060405180830381865afa158015611aef573d6000803e3d6000fd5b505050506040513d601f19601f82011682018060405250810190611b139190612ff1565b1015611b54576040517f08c379a0000000000000000000000000000000000000000000000000000000008152600401611b4b906137a4565b60405180910390fd5b828173ffffffffffffffffffffffffffffffffffffffff166370a08231336040518263ffffffff1660e01b8152600401611b8e9190612f2f565b602060405180830381865afa158015611bab573d6000803e3d6000fd5b505050506040513d601f19601f82011682018060405250810190611bcf9190612ff1565b1015611c10576040517f08c379a0000000000000000000000000000000000000000000000000000000008152600401611c0790613836565b60405180910390fd5b8073ffffffffffffffffffffffffffffffffffffffff166323b872dd3384866040518463ffffffff1660e01b8152600401611c4d93929190613426565b6020604051808303816000875af1158015611c6c573d6000803e3d6000fd5b505050506040513d601f19601f82011682018060405250810190611c909190612da2565b508173ffffffffffffffffffffffffffffffffffffffff1663bd3cd52585858573ffffffffffffffffffffffffffffffffffffffff16637a766460896040518263ffffffff1660e01b8152600401611ce89190612f2f565b602060405180830381865afa158015611d05573d6000803e3d6000fd5b505050506040513d601f19601f82011682018060405250810190611d299190612ff1565b611d3391906130b9565b6040518363ffffffff1660e01b8152600401611d5092919061310f565b600060405180830381600087803b158015611d6a57600080fd5b505af1158015611d7e573d6000803e3d6000fd5b505050507ffdfdcf596161b0e81e3161597d46888dcc88bd83b22dcfb341c76377ca3bbc9e84848473ffffffffffffffffffffffffffffffffffffffff16637a766460886040518263ffffffff1660e01b8152600401611dde9190612f2f565b602060405180830381865afa158015611dfb573d6000803e3d6000fd5b505050506040513d601f19601f82011682018060405250810190611e1f9190612ff1565b604051611e2e93929190613138565b60405180910390a150505050565b60015481565b60008054906101000a900473ffffffffffffffffffffffffffffffffffffffff1673ffffffffffffffffffffffffffffffffffffffff166304433bbc6040518163ffffffff1660e01b8152600401611e99906138a2565b602060405180830381865afa158015611eb6573d6000803e3d6000fd5b505050506040513d601f19601f82011682018060405250810190611eda9190612ef3565b73ffffffffffffffffffffffffffffffffffffffff163373ffffffffffffffffffffffffffffffffffffffff1614611f47576040517f08c379a0000000000000000000000000000000000000000000000000000000008152600401611f3e90613934565b60405180910390fd5b600073ffffffffffffffffffffffffffffffffffffffff168373ffffffffffffffffffffffffffffffffffffffff1614158015611fb15750600073ffffffffffffffffffffffffffffffffffffffff168273ffffffffffffffffffffffffffffffffffffffff1614155b611fba57600080fd5b60008060009054906101000a900473ffffffffffffffffffffffffffffffffffffffff1673ffffffffffffffffffffffffffffffffffffffff166304433bbc6040518163ffffffff1660e01b815260040161201490612ebe565b602060405180830381865afa158015612031573d6000803e3d6000fd5b505050506040513d601f19601f820116820180604052508101906120559190612ef3565b9050818173ffffffffffffffffffffffffffffffffffffffff16637a766460866040518263ffffffff1660e01b81526004016120919190612f2f565b602060405180830381865afa1580156120ae573d6000803e3d6000fd5b505050506040513d601f19601f820116820180604052508101906120d29190612ff1565b1015612113576040517f08c379a000000000000000000000000000000000000000000000000000000000815260040161210a906139c6565b60405180910390fd5b818173ffffffffffffffffffffffffffffffffffffffff16635ffe0282866040518263ffffffff1660e01b815260040161214d9190612f2f565b602060405180830381865afa15801561216a573d6000803e3d6000fd5b505050506040513d601f19601f8201168201806040525081019061218e9190612ff1565b10156121cf576040517f08c379a00000000000000000000000000000000000000000000000000000000081526004016121c690613a58565b60405180910390fd5b8073ffffffffffffffffffffffffffffffffffffffff166350c3ff5785848473ffffffffffffffffffffffffffffffffffffffff16635ffe0282896040518263ffffffff1660e01b81526004016122269190612f2f565b602060405180830381865afa158015612243573d6000803e3d6000fd5b505050506040513d601f19601f820116820180604052508101906122679190612ff1565b612271919061304d565b6040518363ffffffff1660e01b815260040161228e92919061310f565b600060405180830381600087803b1580156122a857600080fd5b505af11580156122bc573d6000803e3d6000fd5b505050508073ffffffffffffffffffffffffffffffffffffffff1663bd3cd52585848473ffffffffffffffffffffffffffffffffffffffff16637a766460896040518263ffffffff1660e01b81526004016123179190612f2f565b602060405180830381865afa158015612334573d6000803e3d6000fd5b505050506040513d601f19601f820116820180604052508101906123589190612ff1565b612362919061304d565b6040518363ffffffff1660e01b815260040161237f92919061310f565b600060405180830381600087803b15801561239957600080fd5b505af11580156123ad573d6000803e3d6000fd5b505050508073ffffffffffffffffffffffffffffffffffffffff1663bd3cd52584848473ffffffffffffffffffffffffffffffffffffffff16637a766460886040518263ffffffff1660e01b81526004016124089190612f2f565b602060405180830381865afa158015612425573d6000803e3d6000fd5b505050506040513d601f19601f820116820180604052508101906124499190612ff1565b61245391906130b9565b6040518363ffffffff1660e01b815260040161247092919061310f565b600060405180830381600087803b15801561248a57600080fd5b505af115801561249e573d6000803e3d6000fd5b505050507f1b89874203ff7f0bba87c969ada3f32fda22ed38a6706d35199d21280c7811b18484846040516124d593929190613426565b60405180910390a150505050565b60008054906101000a900473ffffffffffffffffffffffffffffffffffffffff1673ffffffffffffffffffffffffffffffffffffffff16638da5cb5b6040518163ffffffff1660e01b8152600401602060405180830381865afa15801561254e573d6000803e3d6000fd5b505050506040513d601f19601f820116820180604052508101906125729190612ef3565b73ffffffffffffffffffffffffffffffffffffffff163373ffffffffffffffffffffffffffffffffffffffff16146125df576040517f08c379a00000000000000000000000000000000000000000000000000000000081526004016125d6906135ee565b60405180910390fd5b80600254146125f057806002819055505b50565b60008054906101000a900473ffffffffffffffffffffffffffffffffffffffff1673ffffffffffffffffffffffffffffffffffffffff166304433bbc6040518163ffffffff1660e01b815260040161264a906138a2565b602060405180830381865afa158015612667573d6000803e3d6000fd5b505050506040513d601f19601f8201168201806040525081019061268b9190612ef3565b73ffffffffffffffffffffffffffffffffffffffff163373ffffffffffffffffffffffffffffffffffffffff16146126f8576040517f08c379a00000000000000000000000000000000000000000000000000000000081526004016126ef90613934565b60405180910390fd5b600073ffffffffffffffffffffffffffffffffffffffff168273ffffffffffffffffffffffffffffffffffffffff160361273157600080fd5b60008060009054906101000a900473ffffffffffffffffffffffffffffffffffffffff1673ffffffffffffffffffffffffffffffffffffffff166304433bbc6040518163ffffffff1660e01b815260040161278b90612ebe565b602060405180830381865afa1580156127a8573d6000803e3d6000fd5b505050506040513d601f19601f820116820180604052508101906127cc9190612ef3565b9050818173ffffffffffffffffffffffffffffffffffffffff16635ffe0282856040518263ffffffff1660e01b81526004016128089190612f2f565b602060405180830381865afa158015612825573d6000803e3d6000fd5b505050506040513d601f19601f820116820180604052508101906128499190612ff1565b101561288a576040517f08c379a000000000000000000000000000000000000000000000000000000000815260040161288190613aea565b60405180910390fd5b8073ffffffffffffffffffffffffffffffffffffffff166350c3ff5784848473ffffffffffffffffffffffffffffffffffffffff16635ffe0282886040518263ffffffff1660e01b81526004016128e19190612f2f565b602060405180830381865afa1580156128fe573d6000803e3d6000fd5b505050506040513d601f19601f820116820180604052508101906129229190612ff1565b61292c919061304d565b6040518363ffffffff1660e01b815260040161294992919061310f565b600060405180830381600087803b15801561296357600080fd5b505af1158015612977573d6000803e3d6000fd5b505050507fc7798891864187665ac6dd119286e44ec13f014527aeeb2b8eb3fd413df9317983836040516129ac92919061310f565b60405180910390a1505050565b600080fd5b600073ffffffffffffffffffffffffffffffffffffffff82169050919050565b60006129e9826129be565b9050919050565b6129f9816129de565b8114612a0457600080fd5b50565b600081359050612a16816129f0565b92915050565b6000819050919050565b612a2f81612a1c565b8114612a3a57600080fd5b50565b600081359050612a4c81612a26565b92915050565b60008060408385031215612a6957612a686129b9565b5b6000612a7785828601612a07565b9250506020612a8885828601612a3d565b9150509250929050565b6000819050919050565b612aa581612a92565b8114612ab057600080fd5b50565b600081359050612ac281612a9c565b92915050565b600080600080600060a08688031215612ae457612ae36129b9565b5b6000612af288828901612a07565b9550506020612b0388828901612ab3565b9450506040612b1488828901612a3d565b9350506060612b2588828901612a07565b9250506080612b3688828901612a3d565b9150509295509295909350565b6000819050919050565b6000612b68612b63612b5e846129be565b612b43565b6129be565b9050919050565b6000612b7a82612b4d565b9050919050565b6000612b8c82612b6f565b9050919050565b612b9c81612b81565b82525050565b6000602082019050612bb76000830184612b93565b92915050565b612bc681612a1c565b82525050565b6000602082019050612be16000830184612bbd565b92915050565b600060208284031215612bfd57612bfc6129b9565b5b6000612c0b84828501612a3d565b91505092915050565b600060208284031215612c2a57612c296129b9565b5b6000612c3884828501612a07565b91505092915050565b600080600060608486031215612c5a57612c596129b9565b5b6000612c6886828701612a07565b9350506020612c7986828701612a07565b9250506040612c8a86828701612a3d565b9150509250925092565b60008160601b9050919050565b6000612cac82612c94565b9050919050565b6000612cbe82612ca1565b9050919050565b612cd6612cd1826129de565b612cb3565b82525050565b6000612ce88284612cc5565b60148201915081905092915050565b612d0081612a92565b82525050565b6000819050919050565b6000612d2b612d26612d2184612d06565b612b43565b612a1c565b9050919050565b612d3b81612d10565b82525050565b6000604082019050612d566000830185612cf7565b612d636020830184612d32565b9392505050565b60008115159050919050565b612d7f81612d6a565b8114612d8a57600080fd5b50565b600081519050612d9c81612d76565b92915050565b600060208284031215612db857612db76129b9565b5b6000612dc684828501612d8d565b91505092915050565b600082825260208201905092915050565b7f53656e64657220646f6573206e6f742068617665206d616e6167656d656e742060008201527f7065726d697373696f6e20666f72206964656e74697479210000000000000000602082015250565b6000612e3c603883612dcf565b9150612e4782612de0565b604082019050919050565b60006020820190508181036000830152612e6b81612e2f565b9050919050565b7f50726f66696c6553746f72616765000000000000000000000000000000000000600082015250565b6000612ea8600e83612dcf565b9150612eb382612e72565b602082019050919050565b60006020820190508181036000830152612ed781612e9b565b9050919050565b600081519050612eed816129f0565b92915050565b600060208284031215612f0957612f086129b9565b5b6000612f1784828501612ede565b91505092915050565b612f29816129de565b82525050565b6000602082019050612f446000830184612f20565b92915050565b7f576974687264726177616c2070726f6365737320616c72656164792070656e6460008201527f696e672100000000000000000000000000000000000000000000000000000000602082015250565b6000612fa6602483612dcf565b9150612fb182612f4a565b604082019050919050565b60006020820190508181036000830152612fd581612f99565b9050919050565b600081519050612feb81612a26565b92915050565b600060208284031215613007576130066129b9565b5b600061301584828501612fdc565b91505092915050565b7f4e487b7100000000000000000000000000000000000000000000000000000000600052601160045260246000fd5b600061305882612a1c565b915061306383612a1c565b9250828210156130765761307561301e565b5b828203905092915050565b61308a81612d6a565b82525050565b60006040820190506130a56000830185612f20565b6130b26020830184613081565b9392505050565b60006130c482612a1c565b91506130cf83612a1c565b9250827fffffffffffffffffffffffffffffffffffffffffffffffffffffffffffffffff038211156131045761310361301e565b5b828201905092915050565b60006040820190506131246000830185612f20565b6131316020830184612bbd565b9392505050565b600060608201905061314d6000830186612f20565b61315a6020830185612bbd565b6131676040830184612bbd565b949350505050565b7f546f6b656e000000000000000000000000000000000000000000000000000000600082015250565b60006131a5600583612dcf565b91506131b08261316f565b602082019050919050565b600060208201905081810360008301526131d481613198565b9050919050565b60006040820190506131f06000830185612f20565b6131fd6020830184612f20565b9392505050565b7f53656e64657220616c6c6f77616e6365206d75737420626520657175616c207460008201527f6f206f7220686967686572207468616e20696e697469616c2062616c616e6365602082015250565b6000613260604083612dcf565b915061326b82613204565b604082019050919050565b6000602082019050818103600083015261328f81613253565b9050919050565b7f53656e6465722062616c616e6365206d75737420626520657175616c20746f2060008201527f6f7220686967686572207468616e20696e697469616c2062616c616e63652100602082015250565b60006132f2603f83612dcf565b91506132fd82613296565b604082019050919050565b60006020820190508181036000830152613321816132e5565b9050919050565b7f43616e6e6f742063726561746520612070726f66696c6520776974686f75742060008201527f61206e6f64654964207375626d69747465640000000000000000000000000000602082015250565b6000613384603283612dcf565b915061338f82613328565b604082019050919050565b600060208201905081810360008301526133b381613377565b9050919050565b7f5368617264696e675461626c6500000000000000000000000000000000000000600082015250565b60006133f0600d83612dcf565b91506133fb826133ba565b602082019050919050565b6000602082019050818103600083015261341f816133e3565b9050919050565b600060608201905061343b6000830186612f20565b6134486020830185612f20565b6134556040830184612bbd565b949350505050565b6000819050919050565b600061348261347d6134788461345d565b612b43565b612a1c565b9050919050565b61349281613467565b82525050565b60006040820190506134ad6000830185612cf7565b6134ba6020830184613489565b9392505050565b7f53656e64657220646f6573206e6f74206861766520616374696f6e207065726d60008201527f697373696f6e20666f72206964656e7469747921000000000000000000000000602082015250565b600061351d603483612dcf565b9150613528826134c1565b604082019050919050565b6000602082019050818103600083015261354c81613510565b9050919050565b60006040820190506135686000830185612f20565b6135756020830184612cf7565b9392505050565b7f46756e6374696f6e2063616e206f6e6c792062652063616c6c6564206279206860008201527f7562206f776e6572210000000000000000000000000000000000000000000000602082015250565b60006135d8602983612dcf565b91506135e38261357c565b604082019050919050565b60006020820190508181036000830152613607816135cb565b9050919050565b7f43616e6e6f7420776974686472617720746f6b656e73206265666f726520737460008201527f617274696e6720746f6b656e207769746864726177616c210000000000000000602082015250565b600061366a603883612dcf565b91506136758261360e565b604082019050919050565b600060208201905081810360008301526136998161365d565b9050919050565b7f43616e6e6f7420776974686472617720746f6b656e73206265666f726520776960008201527f746864726177616c2074696d657374616d702100000000000000000000000000602082015250565b60006136fc603383612dcf565b9150613707826136a0565b604082019050919050565b6000602082019050818103600083015261372b816136ef565b9050919050565b7f53656e64657220616c6c6f77616e6365206d75737420626520657175616c207460008201527f6f206f7220686967686572207468616e2063686f73656e20616d6f756e740000602082015250565b600061378e603e83612dcf565b915061379982613732565b604082019050919050565b600060208201905081810360008301526137bd81613781565b9050919050565b7f53656e6465722062616c616e6365206d75737420626520657175616c20746f2060008201527f6f7220686967686572207468616e2063686f73656e20616d6f756e7421000000602082015250565b6000613820603d83612dcf565b915061382b826137c4565b604082019050919050565b6000602082019050818103600083015261384f81613813565b9050919050565b7f486f6c64696e6700000000000000000000000000000000000000000000000000600082015250565b600061388c600783612dcf565b915061389782613856565b602082019050919050565b600060208201905081810360008301526138bb8161387f565b9050919050565b7f46756e6374696f6e2063616e206f6e6c792062652063616c6c6564206279204860008201527f6f6c64696e6720636f6e74726163742100000000000000000000000000000000602082015250565b600061391e603083612dcf565b9150613929826138c2565b604082019050919050565b6000602082019050818103600083015261394d81613911565b9050919050565b7f53656e64657220646f6573206e6f74206861766520656e6f75676820746f6b6560008201527f6e7320746f207472616e73666572210000000000000000000000000000000000602082015250565b60006139b0602f83612dcf565b91506139bb82613954565b604082019050919050565b600060208201905081810360008301526139df816139a3565b9050919050565b7f53656e64657220646f6573206e6f74206861766520656e6f75676820746f6b6560008201527f6e7320726573657276656420746f207472616e73666572210000000000000000602082015250565b6000613a42603883612dcf565b9150613a4d826139e6565b604082019050919050565b60006020820190508181036000830152613a7181613a35565b9050919050565b7f43616e6e6f742072656c65617365206d6f726520746f6b656e73207468616e2060008201527f7468657265206172652072657365727665640000000000000000000000000000602082015250565b6000613ad4603283612dcf565b9150613adf82613a78565b604082019050919050565b60006020820190508181036000830152613b0381613ac7565b905091905056fea264697066735822122026b54449c9cc96a4e9636283ea39732454e8683fef27d5afbec88dfbacd14ab664736f6c634300080e0033",
  "immutableReferences": {},
  "source": "// SPDX-License-Identifier: MIT\n\npragma solidity ^0.8.0;\n\nimport {ProfileStorage} from './storage/ProfileStorage.sol';\nimport {ShardingTable} from './ShardingTable.sol';\nimport {Ownable, Hub} from './Hub.sol';\nimport {Identity, ERC734} from './Identity.sol';\nimport \"@openzeppelin/contracts/token/ERC20/ERC20.sol\";\n\n\ncontract Profile {\n    Hub public hub;\n\n    uint256 public minimalStake = 5*10**22;\n    uint256 public withdrawalTime = 5 minutes;\n\n    constructor(address hubAddress) {\n        require(hubAddress != address(0));\n        hub = Hub(hubAddress);\n    }\n\n    modifier onlyHolding(){\n        require(msg.sender == hub.getContractAddress(\"Holding\"),\n        \"Function can only be called by Holding contract!\");\n        _;\n    }\n\n    event ProfileCreated(address profile, uint256 initialBalance);\n    event IdentityCreated(address profile, address newIdentity);\n    event IdentityTransferred(bytes20 nodeId, address oldIdentity, address newIdentity);\n    event TokenDeposit(address profile, uint256 amount);\n\n    event TokensDeposited(address profile, uint256 amountDeposited, uint256 newBalance);\n    event TokensReserved(address profile, uint256 amountReserved);\n\n    event WithdrawalInitiated(address profile, uint256 amount, uint256 withdrawalDelayInSeconds);\n    event TokenWithdrawalCancelled(address profile);\n    event TokensWithdrawn(address profile, uint256 amountWithdrawn, uint256 newBalance);\n\n    event TokensReleased(address profile, uint256 amount);\n    event TokensTransferred(address sender, address receiver, uint256 amount);\n\n    function createProfile(address managementWallet, bytes32 nodeId, uint256 initialBalance, address identity, uint256 initialAsk) public {\n        require(managementWallet != address(0));\n        ERC20 tokenContract = ERC20(hub.getContractAddress(\"Token\"));\n        require(tokenContract.allowance(msg.sender, address(this)) >= initialBalance, \"Sender allowance must be equal to or higher than initial balance\");\n        require(tokenContract.balanceOf(msg.sender) >= initialBalance, \"Sender balance must be equal to or higher than initial balance!\");\n        require(uint256(nodeId) != 0, \"Cannot create a profile without a nodeId submitted\");\n\n        ProfileStorage profileStorage = ProfileStorage(hub.getContractAddress(\"ProfileStorage\"));\n        ShardingTable shardingTable = ShardingTable(hub.getContractAddress(\"ShardingTable\"));\n\n        tokenContract.transferFrom(msg.sender, hub.getContractAddress(\"ProfileStorage\"), initialBalance);\n        require(ERC734(identity).keyHasPurpose(keccak256(abi.encodePacked(msg.sender)), 2),  \"Sender does not have action permission for identity!\");\n\n        profileStorage.setStake(identity, initialBalance);\n        profileStorage.setNodeId(identity, nodeId);\n\n        shardingTable.pushBack(identity, initialAsk);\n\n        emit ProfileCreated(identity, initialBalance);\n    }\n\n    function depositTokens(address identity, uint256 amount) public {\n        require(ERC734(identity).keyHasPurpose(keccak256(abi.encodePacked(msg.sender)), 1),  \"Sender does not have management permission for identity!\");\n\n        ProfileStorage profileStorage = ProfileStorage(hub.getContractAddress(\"ProfileStorage\"));\n\n        ERC20 tokenContract = ERC20(hub.getContractAddress(\"Token\"));\n        require(tokenContract.allowance(msg.sender, address(profileStorage)) >= amount, \"Sender allowance must be equal to or higher than chosen amount\");\n        require(tokenContract.balanceOf(msg.sender) >= amount, \"Sender balance must be equal to or higher than chosen amount!\");\n\n        tokenContract.transferFrom(msg.sender, address(profileStorage), amount);\n\n        profileStorage.setStake(identity, profileStorage.getStake(identity) + amount);\n\n        emit TokensDeposited(identity, amount, profileStorage.getStake(identity));\n    }\n\n    function startTokenWithdrawal(address identity, uint256 amount) public {\n        require(ERC734(identity).keyHasPurpose(keccak256(abi.encodePacked(msg.sender)), 1),  \"Sender does not have management permission for identity!\");\n\n        ProfileStorage profileStorage = ProfileStorage(hub.getContractAddress(\"ProfileStorage\"));\n\n        require(profileStorage.getWithdrawalPending(identity) == false, \"Withrdrawal process already pending!\");\n\n        uint256 availableBalance = profileStorage.getStake(identity) - (profileStorage.getStakeReserved(identity));\n\n        profileStorage.setWithdrawalPending(identity, true);\n        profileStorage.setWithdrawalTimestamp(identity, block.timestamp + withdrawalTime);\n        if(availableBalance >= amount) {\n            // Reserve chosen token amount\n            profileStorage.setWithdrawalAmount(identity, amount);\n            emit WithdrawalInitiated(identity, amount, withdrawalTime);\n        }\n        else {\n            // Reserve only the available balance\n            profileStorage.setWithdrawalAmount(identity, availableBalance);\n            emit WithdrawalInitiated(identity, availableBalance, withdrawalTime);\n        }\n    }\n\n    function withdrawTokens(address identity) public {\n        // Verify sender\n        require(ERC734(identity).keyHasPurpose(keccak256(abi.encodePacked(msg.sender)), 1),  \"Sender does not have management permission for identity!\");\n\n        ProfileStorage profileStorage = ProfileStorage(hub.getContractAddress(\"ProfileStorage\"));\n        ShardingTable shardingTable = ShardingTable(hub.getContractAddress(\"ShardingTable\"));\n\n        require(profileStorage.getWithdrawalPending(identity) == true, \"Cannot withdraw tokens before starting token withdrawal!\");\n        require(profileStorage.getWithdrawalTimestamp(identity) < block.timestamp, \"Cannot withdraw tokens before withdrawal timestamp!\");\n\n        // Transfer already reserved tokens to user identity\n        profileStorage.transferTokens(msg.sender, profileStorage.getWithdrawalAmount(identity));\n\n        profileStorage.setStake(\n            identity,\n            profileStorage.getStake(identity) - (profileStorage.getWithdrawalAmount(identity))\n        );\n\n        profileStorage.setWithdrawalPending(identity, false);\n\n        if (profileStorage.getStake(identity) == 0) {\n            shardingTable.removeNode(identity);\n        }\n\n        emit TokensWithdrawn(\n            identity,\n            profileStorage.getWithdrawalAmount(identity),\n            profileStorage.getStake(identity)\n        );\n    }\n\n    function releaseTokens(address profile, uint256 amount)\n    public onlyHolding {\n        require(profile!=address(0));\n        ProfileStorage profileStorage = ProfileStorage(hub.getContractAddress(\"ProfileStorage\"));\n\n        require(profileStorage.getStakeReserved(profile) >= amount, \"Cannot release more tokens than there are reserved\");\n\n        profileStorage.setStakeReserved(profile, profileStorage.getStakeReserved(profile) - (amount));\n\n        emit TokensReleased(profile, amount);\n    }\n\n    function transferTokens(address sender, address receiver, uint256 amount)\n    public onlyHolding {\n        require(sender!=address(0) && receiver!=address(0));\n        ProfileStorage profileStorage = ProfileStorage(hub.getContractAddress(\"ProfileStorage\"));\n\n        require(profileStorage.getStake(sender) >= amount, \"Sender does not have enough tokens to transfer!\");\n        require(profileStorage.getStakeReserved(sender) >= amount, \"Sender does not have enough tokens reserved to transfer!\");\n\n        profileStorage.setStakeReserved(sender, profileStorage.getStakeReserved(sender) - (amount));\n        profileStorage.setStake(sender, profileStorage.getStake(sender) - (amount));\n        profileStorage.setStake(receiver, profileStorage.getStake(receiver) + (amount));\n\n        emit TokensTransferred(sender, receiver, amount);\n    }\n\n    function setMinimalStake(uint256 newMinimalStake)\n    public {\n        require (msg.sender == hub.owner(), \"Function can only be called by hub owner!\");\n        if(minimalStake != newMinimalStake) minimalStake = newMinimalStake;\n    }\n\n    function setWithdrawalTime(uint256 newWithdrawalTime)\n    public {\n        require (msg.sender == hub.owner(), \"Function can only be called by hub owner!\");\n        if(withdrawalTime != newWithdrawalTime) withdrawalTime = newWithdrawalTime;\n    }\n}\n",
  "sourcePath": "/Users/waving/Desktop/OriginTrail/dkg-evm-module/contracts/Profile.sol",
  "compiler": {
    "name": "solc",
    "version": "0.8.14+commit.80d49f37.Emscripten.clang"
  },
  "schemaVersion": "3.4.10",
  "updatedAt": "2022-10-26T15:16:10.921Z",
  "devdoc": {
    "kind": "dev",
    "methods": {},
    "version": 1
  },
  "userdoc": {
    "kind": "user",
    "methods": {},
    "version": 1
  }
}