{
  "contractName": "ProfileStorage",
  "abi": [
    {
      "inputs": [
        {
          "internalType": "address",
          "name": "hubAddress",
          "type": "address"
        }
      ],
      "stateMutability": "nonpayable",
      "type": "constructor"
    },
    {
      "inputs": [],
      "name": "hashingProxy",
      "outputs": [
        {
          "internalType": "contract HashingProxy",
          "name": "",
          "type": "address"
        }
      ],
      "stateMutability": "view",
      "type": "function"
    },
    {
      "inputs": [],
      "name": "hub",
      "outputs": [
        {
          "internalType": "contract Hub",
          "name": "",
          "type": "address"
        }
      ],
      "stateMutability": "view",
      "type": "function"
    },
    {
      "inputs": [
        {
          "internalType": "bytes",
          "name": "",
          "type": "bytes"
        }
      ],
      "name": "nodeIdsList",
      "outputs": [
        {
          "internalType": "bool",
          "name": "",
          "type": "bool"
        }
      ],
      "stateMutability": "view",
      "type": "function"
    },
    {
      "inputs": [
        {
          "internalType": "string",
          "name": "",
          "type": "string"
        }
      ],
      "name": "sharesNames",
      "outputs": [
        {
          "internalType": "bool",
          "name": "",
          "type": "bool"
        }
      ],
      "stateMutability": "view",
      "type": "function"
    },
    {
      "inputs": [
        {
          "internalType": "string",
          "name": "",
          "type": "string"
        }
      ],
      "name": "sharesSymbols",
      "outputs": [
        {
          "internalType": "bool",
          "name": "",
          "type": "bool"
        }
      ],
      "stateMutability": "view",
      "type": "function"
    },
    {
      "inputs": [],
      "name": "tokenContract",
      "outputs": [
        {
          "internalType": "contract IERC20",
          "name": "",
          "type": "address"
        }
      ],
      "stateMutability": "view",
      "type": "function"
    },
    {
      "inputs": [],
      "name": "initialize",
      "outputs": [],
      "stateMutability": "nonpayable",
      "type": "function"
    },
    {
      "inputs": [],
      "name": "name",
      "outputs": [
        {
          "internalType": "string",
          "name": "",
          "type": "string"
        }
      ],
      "stateMutability": "pure",
      "type": "function"
    },
    {
      "inputs": [],
      "name": "version",
      "outputs": [
        {
          "internalType": "string",
          "name": "",
          "type": "string"
        }
      ],
      "stateMutability": "pure",
      "type": "function"
    },
    {
      "inputs": [
        {
          "internalType": "uint72",
          "name": "identityId",
          "type": "uint72"
        },
        {
          "internalType": "bytes",
          "name": "nodeId",
          "type": "bytes"
        },
        {
          "internalType": "address",
          "name": "sharesContractAddress",
          "type": "address"
        }
      ],
      "name": "createProfile",
      "outputs": [],
      "stateMutability": "nonpayable",
      "type": "function"
    },
    {
      "inputs": [
        {
          "internalType": "uint72",
          "name": "identityId",
          "type": "uint72"
        }
      ],
      "name": "getProfile",
      "outputs": [
        {
          "internalType": "bytes",
          "name": "",
          "type": "bytes"
        },
        {
          "internalType": "uint96[2]",
          "name": "",
          "type": "uint96[2]"
        },
        {
          "internalType": "address",
          "name": "",
          "type": "address"
        }
      ],
      "stateMutability": "view",
      "type": "function"
    },
    {
      "inputs": [
        {
          "internalType": "uint72",
          "name": "identityId",
          "type": "uint72"
        }
      ],
      "name": "deleteProfile",
      "outputs": [],
      "stateMutability": "nonpayable",
      "type": "function"
    },
    {
      "inputs": [
        {
          "internalType": "uint72",
          "name": "identityId",
          "type": "uint72"
        }
      ],
      "name": "getNodeId",
      "outputs": [
        {
          "internalType": "bytes",
          "name": "",
          "type": "bytes"
        }
      ],
      "stateMutability": "view",
      "type": "function"
    },
    {
      "inputs": [
        {
          "internalType": "uint72",
          "name": "identityId",
          "type": "uint72"
        },
        {
          "internalType": "bytes",
          "name": "nodeId",
          "type": "bytes"
        }
      ],
      "name": "setNodeId",
      "outputs": [],
      "stateMutability": "nonpayable",
      "type": "function"
    },
    {
      "inputs": [
        {
          "internalType": "uint72",
          "name": "identityId",
          "type": "uint72"
        }
      ],
      "name": "getAsk",
      "outputs": [
        {
          "internalType": "uint96",
          "name": "",
          "type": "uint96"
        }
      ],
      "stateMutability": "view",
      "type": "function"
    },
    {
      "inputs": [
        {
          "internalType": "uint72",
          "name": "identityId",
          "type": "uint72"
        },
        {
          "internalType": "uint96",
          "name": "ask",
          "type": "uint96"
        }
      ],
      "name": "setAsk",
      "outputs": [],
      "stateMutability": "nonpayable",
      "type": "function"
    },
    {
      "inputs": [
        {
          "internalType": "uint72",
          "name": "identityId",
          "type": "uint72"
        }
      ],
      "name": "getAccumulatedOperatorFee",
      "outputs": [
        {
          "internalType": "uint96",
          "name": "",
          "type": "uint96"
        }
      ],
      "stateMutability": "view",
      "type": "function"
    },
    {
      "inputs": [
        {
          "internalType": "uint72",
          "name": "identityId",
          "type": "uint72"
        },
        {
          "internalType": "uint96",
          "name": "newOperatorFeeAmount",
          "type": "uint96"
        }
      ],
      "name": "setAccumulatedOperatorFee",
      "outputs": [],
      "stateMutability": "nonpayable",
      "type": "function"
    },
    {
      "inputs": [
        {
          "internalType": "uint72",
          "name": "identityId",
          "type": "uint72"
        }
      ],
      "name": "getAccumulatedOperatorFeeWithdrawalAmount",
      "outputs": [
        {
          "internalType": "uint96",
          "name": "",
          "type": "uint96"
        }
      ],
      "stateMutability": "view",
      "type": "function"
    },
    {
      "inputs": [
        {
          "internalType": "uint72",
          "name": "identityId",
          "type": "uint72"
        },
        {
          "internalType": "uint96",
          "name": "accumulatedOperatorFeeWithdrawalAmount",
          "type": "uint96"
        }
      ],
      "name": "setAccumulatedOperatorFeeWithdrawalAmount",
      "outputs": [],
      "stateMutability": "nonpayable",
      "type": "function"
    },
    {
      "inputs": [
        {
          "internalType": "uint72",
          "name": "identityId",
          "type": "uint72"
        }
      ],
      "name": "getAccumulatedOperatorFeeWithdrawalTimestamp",
      "outputs": [
        {
          "internalType": "uint256",
          "name": "",
          "type": "uint256"
        }
      ],
      "stateMutability": "view",
      "type": "function"
    },
    {
      "inputs": [
        {
          "internalType": "uint72",
          "name": "identityId",
          "type": "uint72"
        },
        {
          "internalType": "uint256",
          "name": "operatorFeeWithdrawalTimestamp",
          "type": "uint256"
        }
      ],
      "name": "setAccumulatedOperatorFeeWithdrawalTimestamp",
      "outputs": [],
      "stateMutability": "nonpayable",
      "type": "function"
    },
    {
      "inputs": [
        {
          "internalType": "uint72",
          "name": "identityId",
          "type": "uint72"
        }
      ],
      "name": "getSharesContractAddress",
      "outputs": [
        {
          "internalType": "address",
          "name": "",
          "type": "address"
        }
      ],
      "stateMutability": "view",
      "type": "function"
    },
    {
      "inputs": [
        {
          "internalType": "uint72",
          "name": "identityId",
          "type": "uint72"
        },
        {
          "internalType": "address",
          "name": "sharesContractAddress",
          "type": "address"
        }
      ],
      "name": "setSharesContractAddress",
      "outputs": [],
      "stateMutability": "nonpayable",
      "type": "function"
    },
    {
      "inputs": [
        {
          "internalType": "uint72",
          "name": "identityId",
          "type": "uint72"
        },
        {
          "internalType": "uint8",
          "name": "hashFunctionId",
          "type": "uint8"
        }
      ],
      "name": "getNodeAddress",
      "outputs": [
        {
          "internalType": "bytes32",
          "name": "",
          "type": "bytes32"
        }
      ],
      "stateMutability": "view",
      "type": "function"
    },
    {
      "inputs": [
        {
          "internalType": "uint72",
          "name": "identityId",
          "type": "uint72"
        },
        {
          "internalType": "uint8",
          "name": "hashFunctionId",
          "type": "uint8"
        }
      ],
      "name": "setNodeAddress",
      "outputs": [],
      "stateMutability": "nonpayable",
      "type": "function"
    },
    {
      "inputs": [
        {
          "internalType": "uint72",
          "name": "identityId",
          "type": "uint72"
        }
      ],
      "name": "profileExists",
      "outputs": [
        {
          "internalType": "bool",
          "name": "",
          "type": "bool"
        }
      ],
      "stateMutability": "view",
      "type": "function"
    },
    {
      "inputs": [
        {
          "internalType": "address",
          "name": "receiver",
          "type": "address"
        },
        {
          "internalType": "uint96",
          "name": "amount",
          "type": "uint96"
        }
      ],
      "name": "transferTokens",
      "outputs": [],
      "stateMutability": "nonpayable",
      "type": "function"
    }
  ],
  "bytecode": "0x60806040523480156200001157600080fd5b5060405162001b0e38038062001b0e8339810160408190526200003491620002a3565b6001600160a01b0381166200004857600080fd5b600080546001600160a01b0319166001600160a01b0383161790556200006d62000074565b50620002d5565b6200007e620001c4565b600054604051630110ceef60e21b815260206004820152600c60248201526b48617368696e6750726f787960a01b60448201526001600160a01b03909116906304433bbc90606401602060405180830381865afa158015620000e4573d6000803e3d6000fd5b505050506040513d601f19601f820116820180604052508101906200010a9190620002a3565b600180546001600160a01b0319166001600160a01b03928316179055600054604051630110ceef60e21b81526020600482015260056024820152642a37b5b2b760d91b60448201529116906304433bbc90606401602060405180830381865afa1580156200017c573d6000803e3d6000fd5b505050506040513d601f19601f82011682018060405250810190620001a29190620002a3565b600280546001600160a01b0319166001600160a01b0392909216919091179055565b60008054906101000a90046001600160a01b03166001600160a01b0316638da5cb5b6040518163ffffffff1660e01b8152600401602060405180830381865afa15801562000216573d6000803e3d6000fd5b505050506040513d601f19601f820116820180604052508101906200023c9190620002a3565b6001600160a01b0316336001600160a01b031614620002a15760405162461bcd60e51b815260206004820181905260248201527f466e2063616e206f6e6c79206265207573656420627920687562206f776e6572604482015260640160405180910390fd5b565b600060208284031215620002b657600080fd5b81516001600160a01b0381168114620002ce57600080fd5b9392505050565b61182980620002e56000396000f3fe608060405234801561001057600080fd5b50600436106101c45760003560e01c8063abe979e1116100f9578063d0ea3fee11610097578063e410c0d611610071578063e410c0d6146104f5578063e49f999b14610523578063e6c79da514610545578063eb2145e31461057a57600080fd5b8063d0ea3fee146104bc578063d184a869146104cf578063dc827de9146104e257600080fd5b8063b89bba06116100d3578063b89bba0614610401578063c04d7dcf1461043f578063c12b4c7614610452578063cbb12bed1461048e57600080fd5b8063abe979e1146103a5578063b014809f146103b8578063b8561a54146103cb57600080fd5b806341c10b9a1161016657806356abe1841161014057806356abe1841461033957806368dae4fd1461034c5780638129fc1c1461035f578063947bb6151461036757600080fd5b806341c10b9a146102f257806354fd4d501461030557806355a373d61461032657600080fd5b806322bd9e81116101a257806322bd9e811461026a578063365a86fc1461027f5780633718ac591461029257806339fb67dd146102a557600080fd5b806306fdde03146101c957806311c94ee8146102055780631913cd5514610230575b600080fd5b60408051808201909152600e81526d50726f66696c6553746f7261676560901b60208201525b6040516101fc91906110e1565b60405180910390f35b600154610218906001600160a01b031681565b6040516001600160a01b0390911681526020016101fc565b61025c61023e366004611117565b6001600160481b031660009081526004602052604090206003015490565b6040519081526020016101fc565b61027d61027836600461117b565b61058d565b005b600054610218906001600160a01b031681565b61027d6102a0366004611117565b610628565b6102da6102b3366004611117565b6001600160481b03166000908152600460205260409020600101546001600160601b031690565b6040516001600160601b0390911681526020016101fc565b6101ef610300366004611117565b6106da565b6040805180820190915260058152640312e302e360dc1b60208201526101ef565b600254610218906001600160a01b031681565b61027d6103473660046111ce565b610786565b61027d61035a3660046111f8565b6107ad565b61027d61086d565b6103956103753660046112e2565b805160208183018101805160038252928201919093012091525460ff1681565b60405190151581526020016101fc565b61027d6103b336600461135f565b6109b5565b61027d6103c6366004611394565b610a41565b6102186103d9366004611117565b6001600160481b0316600090815260046020819052604090912001546001600160a01b031690565b61025c61040f3660046111f8565b6001600160481b038216600090815260046020908152604080832060ff8516845260050190915290205492915050565b61039561044d366004611117565b610a86565b6102da610460366004611117565b6001600160481b0316600090815260046020526040902060010154600160601b90046001600160601b031690565b61039561049c3660046112e2565b805160208183018101805160058252928201919093012091525460ff1681565b61027d6104ca3660046113c0565b610aeb565b61027d6104dd3660046113c0565b610b3e565b61027d6104f03660046113dc565b610b82565b6103956105033660046112e2565b805160208183018101805160068252928201919093012091525460ff1681565b610536610531366004611117565b610d47565b6040516101fc93929190611442565b6102da610553366004611117565b6001600160481b03166000908152600460205260409020600201546001600160601b031690565b61027d6105883660046113c0565b610e45565b610595610e89565b6001600160481b03831660009081526004602052604080822090519091906003906105c19084906114dd565b908152604051908190036020019020805491151560ff19909216919091179055806105ed8385836115a1565b50600160038484604051610602929190611662565b908152604051908190036020019020805491151560ff1990921691909117905550505050565b610630610e89565b6001600160481b0381166000908152600460205260408082209051600391610657916114dd565b9081526040805160209281900383019020805460ff1916931515939093179092556001600160481b038316600090815260049091529081209061069a828261101d565b506001810180546001600160c01b03191690556002810180546001600160601b03191690556000600382015560040180546001600160a01b031916905550565b6001600160481b0381166000908152600460205260409020805460609190610701906114a3565b80601f016020809104026020016040519081016040528092919081815260200182805461072d906114a3565b801561077a5780601f1061074f5761010080835404028352916020019161077a565b820191906000526020600020905b81548152906001019060200180831161075d57829003601f168201915b50505050509050919050565b61078e610e89565b6001600160481b03909116600090815260046020526040902060030155565b6107b5610e89565b6001546001600160481b03831660009081526004602081905260409182902091516345ed59e560e01b81526001600160a01b03909316926345ed59e5926107fe92869201611672565b602060405180830381865afa15801561081b573d6000803e3d6000fd5b505050506040513d601f19601f8201168201806040525081019061083f9190611708565b6001600160481b03909216600090815260046020908152604080832060ff9094168352600590930190522055565b610875610f48565b600054604051630110ceef60e21b815260206004820152600c60248201526b48617368696e6750726f787960a01b60448201526001600160a01b03909116906304433bbc90606401602060405180830381865afa1580156108da573d6000803e3d6000fd5b505050506040513d601f19601f820116820180604052508101906108fe9190611721565b600180546001600160a01b0319166001600160a01b03928316179055600054604051630110ceef60e21b81526020600482015260056024820152642a37b5b2b760d91b60448201529116906304433bbc90606401602060405180830381865afa15801561096f573d6000803e3d6000fd5b505050506040513d601f19601f820116820180604052508101906109939190611721565b600280546001600160a01b0319166001600160a01b0392909216919091179055565b6109bd610e89565b60025460405163a9059cbb60e01b81526001600160a01b0384811660048301526001600160601b03841660248301529091169063a9059cbb906044016020604051808303816000875af1158015610a18573d6000803e3d6000fd5b505050506040513d601f19601f82011682018060405250810190610a3c919061173e565b505050565b610a49610e89565b6001600160481b039190911660009081526004602081905260409091200180546001600160a01b0319166001600160a01b03909216919091179055565b60408051602080820183526000918290526001600160481b038416825260049052818120915190917fc5d2460186f7233c927e7db2dcc703c0e500b653ca82273b7bfad8045d85a47091610ada91906114dd565b604051809103902014159050919050565b610af3610e89565b6001600160481b03909116600090815260046020526040902060010180546001600160601b03909216600160601b026bffffffffffffffffffffffff60601b19909216919091179055565b610b46610e89565b6001600160481b0391909116600090815260046020526040902060010180546001600160601b0319166001600160601b03909216919091179055565b610b8a610e89565b6001600160481b038416600090815260046020526040902080610bae8486836115a1565b506004810180546001600160a01b0319166001600160a01b038416179055604051600190600390610be29087908790611662565b908152602001604051809103902060006101000a81548160ff021916908315150217905550600082905060016005826001600160a01b03166306fdde036040518163ffffffff1660e01b8152600401600060405180830381865afa158015610c4e573d6000803e3d6000fd5b505050506040513d6000823e601f3d908101601f19168201604052610c769190810190611760565b604051610c8391906117d7565b908152602001604051809103902060006101000a81548160ff02191690831515021790555060016006826001600160a01b03166395d89b416040518163ffffffff1660e01b8152600401600060405180830381865afa158015610cea573d6000803e3d6000fd5b505050506040513d6000823e601f3d908101601f19168201604052610d129190810190611760565b604051610d1f91906117d7565b908152604051908190036020019020805491151560ff19909216919091179055505050505050565b6060610d5161105a565b6001600160481b0383166000908152600460208181526040808420815180830190925260018101546001600160601b038082168452600160601b90910416928201929092529181015481549192839290916001600160a01b0316908390610db7906114a3565b80601f0160208091040260200160405190810160405280929190818152602001828054610de3906114a3565b8015610e305780601f10610e0557610100808354040283529160200191610e30565b820191906000526020600020905b815481529060010190602001808311610e1357829003601f168201915b50505050509250935093509350509193909250565b610e4d610e89565b6001600160481b0391909116600090815260046020526040902060020180546001600160601b0319166001600160601b03909216919091179055565b600054604051631627905560e01b81523360048201526001600160a01b0390911690631627905590602401602060405180830381865afa158015610ed1573d6000803e3d6000fd5b505050506040513d601f19601f82011682018060405250810190610ef5919061173e565b610f465760405162461bcd60e51b815260206004820181905260248201527f466e2063616e206f6e6c792062652063616c6c6564206279207468652068756260448201526064015b60405180910390fd5b565b60008054906101000a90046001600160a01b03166001600160a01b0316638da5cb5b6040518163ffffffff1660e01b8152600401602060405180830381865afa158015610f99573d6000803e3d6000fd5b505050506040513d601f19601f82011682018060405250810190610fbd9190611721565b6001600160a01b0316336001600160a01b031614610f465760405162461bcd60e51b815260206004820181905260248201527f466e2063616e206f6e6c79206265207573656420627920687562206f776e65726044820152606401610f3d565b508054611029906114a3565b6000825580601f10611039575050565b601f0160209004906000526020600020908101906110579190611078565b50565b60405180604001604052806002906020820280368337509192915050565b5b8082111561108d5760008155600101611079565b5090565b60005b838110156110ac578181015183820152602001611094565b50506000910152565b600081518084526110cd816020860160208601611091565b601f01601f19169290920160200192915050565b6020815260006110f460208301846110b5565b9392505050565b80356001600160481b038116811461111257600080fd5b919050565b60006020828403121561112957600080fd5b6110f4826110fb565b60008083601f84011261114457600080fd5b50813567ffffffffffffffff81111561115c57600080fd5b60208301915083602082850101111561117457600080fd5b9250929050565b60008060006040848603121561119057600080fd5b611199846110fb565b9250602084013567ffffffffffffffff8111156111b557600080fd5b6111c186828701611132565b9497909650939450505050565b600080604083850312156111e157600080fd5b6111ea836110fb565b946020939093013593505050565b6000806040838503121561120b57600080fd5b611214836110fb565b9150602083013560ff8116811461122a57600080fd5b809150509250929050565b634e487b7160e01b600052604160045260246000fd5b604051601f8201601f1916810167ffffffffffffffff8111828210171561127457611274611235565b604052919050565b600067ffffffffffffffff82111561129657611296611235565b50601f01601f191660200190565b60006112b76112b28461127c565b61124b565b90508281528383830111156112cb57600080fd5b828260208301376000602084830101529392505050565b6000602082840312156112f457600080fd5b813567ffffffffffffffff81111561130b57600080fd5b8201601f8101841361131c57600080fd5b61132b848235602084016112a4565b949350505050565b6001600160a01b038116811461105757600080fd5b80356001600160601b038116811461111257600080fd5b6000806040838503121561137257600080fd5b823561137d81611333565b915061138b60208401611348565b90509250929050565b600080604083850312156113a757600080fd5b6113b0836110fb565b9150602083013561122a81611333565b600080604083850312156113d357600080fd5b61137d836110fb565b600080600080606085870312156113f257600080fd5b6113fb856110fb565b9350602085013567ffffffffffffffff81111561141757600080fd5b61142387828801611132565b909450925050604085013561143781611333565b939692955090935050565b60808152600061145560808301866110b5565b905060208083018560005b60028110156114865781516001600160601b031683529183019190830190600101611460565b505050506001600160a01b03929092166060919091015292915050565b600181811c908216806114b757607f821691505b6020821081036114d757634e487b7160e01b600052602260045260246000fd5b50919050565b60008083546114eb816114a3565b60018281168015611503576001811461151857611547565b60ff1984168752821515830287019450611547565b8760005260208060002060005b8581101561153e5781548a820152908401908201611525565b50505082870194505b50929695505050505050565b601f821115610a3c57600081815260208120601f850160051c8101602086101561157a5750805b601f850160051c820191505b8181101561159957828155600101611586565b505050505050565b67ffffffffffffffff8311156115b9576115b9611235565b6115cd836115c783546114a3565b83611553565b6000601f84116001811461160157600085156115e95750838201355b600019600387901b1c1916600186901b17835561165b565b600083815260209020601f19861690835b828110156116325786850135825560209485019460019092019101611612565b508682101561164f5760001960f88860031b161c19848701351681555b505060018560011b0183555b5050505050565b8183823760009101908152919050565b60ff83168152600060206040818401526000845461168f816114a3565b80604087015260606001808416600081146116b157600181146116cb576116f9565b60ff1985168984015283151560051b8901830195506116f9565b896000528660002060005b858110156116f15781548b82018601529083019088016116d6565b8a0184019650505b50939998505050505050505050565b60006020828403121561171a57600080fd5b5051919050565b60006020828403121561173357600080fd5b81516110f481611333565b60006020828403121561175057600080fd5b815180151581146110f457600080fd5b60006020828403121561177257600080fd5b815167ffffffffffffffff81111561178957600080fd5b8201601f8101841361179a57600080fd5b80516117a86112b28261127c565b8181528560208385010111156117bd57600080fd5b6117ce826020830160208601611091565b95945050505050565b600082516117e9818460208701611091565b919091019291505056fea2646970667358221220b2048f9fbd00f3ae157ae10c1800cfc07f5d3a45a2279df6e4b78cfe683fdf2164736f6c63430008100033",
  "immutableReferences": {},
  "source": "// SPDX-License-Identifier: MIT\n\npragma solidity ^0.8.4;\n\nimport { HashingProxy } from \"../HashingProxy.sol\";\nimport { Hub } from \"../Hub.sol\";\nimport { Shares } from \"../Shares.sol\";\nimport { Named } from \"../interface/Named.sol\";\nimport { Versioned } from \"../interface/Versioned.sol\";\nimport { IERC20 } from \"@openzeppelin/contracts/token/ERC20/IERC20.sol\";\n\ncontract ProfileStorage is Named, Versioned {\n\n    string constant private _NAME = \"ProfileStorage\";\n    string constant private _VERSION = \"1.0.0\";\n\n    Hub public hub;\n    HashingProxy public hashingProxy;\n    IERC20 public tokenContract;\n\n    struct ProfileDefinition{\n        bytes nodeId;\n        uint96 ask;\n        uint96 accumulatedOperatorFee;\n        uint96 accumulatedOperatorFeeWithdrawalAmount;\n        uint256 operatorFeeWithdrawalTimestamp;\n        address sharesContractAddress;\n        mapping(uint8 => bytes32) nodeAddresses;\n    }\n\n    // nodeId => isRegistered?\n    mapping(bytes => bool) public nodeIdsList;\n    // identityId => Profile\n    mapping(uint72 => ProfileDefinition) profiles;\n\n    // shares token name => isTaken?\n    mapping(string => bool) public sharesNames;\n    // shares token ID => isTaken?\n    mapping(string => bool) public sharesSymbols;\n\n    constructor(address hubAddress) {\n        require(hubAddress != address(0));\n\n        hub = Hub(hubAddress);\n        initialize();\n    }\n\n    modifier onlyHubOwner() {\n        _checkHubOwner();\n        _;\n    }\n\n    modifier onlyContracts() {\n        _checkHub();\n        _;\n    }\n\n    function initialize() public onlyHubOwner {\n        hashingProxy = HashingProxy(hub.getContractAddress(\"HashingProxy\"));\n        tokenContract = IERC20(hub.getContractAddress(\"Token\"));\n    }\n\n    function name() external pure virtual override returns (string memory) {\n        return _NAME;\n    }\n\n    function version() external pure virtual override returns (string memory) {\n        return _VERSION;\n    }\n\n    function createProfile(uint72 identityId, bytes calldata nodeId, address sharesContractAddress)\n        external\n        onlyContracts\n    {\n        ProfileDefinition storage profile = profiles[identityId];\n        profile.nodeId = nodeId;\n        profile.sharesContractAddress = sharesContractAddress;\n\n        nodeIdsList[nodeId] = true;\n\n        Shares sharesContract = Shares(sharesContractAddress);\n        sharesNames[sharesContract.name()] = true;\n        sharesSymbols[sharesContract.symbol()] = true;\n    }\n\n    function getProfile(uint72 identityId) external view returns (bytes memory, uint96[2] memory, address) {\n        ProfileDefinition storage profile = profiles[identityId];\n        return (profile.nodeId, [profile.ask, profile.accumulatedOperatorFee], profile.sharesContractAddress);\n    }\n\n    function deleteProfile(uint72 identityId) external onlyContracts {\n        nodeIdsList[profiles[identityId].nodeId] = false;\n        delete profiles[identityId];\n    }\n\n    function getNodeId(uint72 identityId) external view returns (bytes memory) {\n        return profiles[identityId].nodeId;\n    }\n\n    function setNodeId(uint72 identityId, bytes calldata nodeId) external onlyContracts {\n        ProfileDefinition storage profile = profiles[identityId];\n\n        nodeIdsList[profile.nodeId] = false;\n        profile.nodeId = nodeId;\n        nodeIdsList[nodeId] = true;\n    }\n\n    function getAsk(uint72 identityId) external view returns (uint96) {\n        return profiles[identityId].ask;\n    }\n\n    function setAsk(uint72 identityId, uint96 ask) external onlyContracts {\n        profiles[identityId].ask = ask;\n    }\n\n    function getAccumulatedOperatorFee(uint72 identityId) external view returns (uint96) {\n        return profiles[identityId].accumulatedOperatorFee;\n    }\n\n    function setAccumulatedOperatorFee(uint72 identityId, uint96 newOperatorFeeAmount) external onlyContracts {\n        profiles[identityId].accumulatedOperatorFee = newOperatorFeeAmount;\n    }\n\n    function getAccumulatedOperatorFeeWithdrawalAmount(uint72 identityId) external view returns (uint96) {\n        return profiles[identityId].accumulatedOperatorFeeWithdrawalAmount;\n    }\n\n    function setAccumulatedOperatorFeeWithdrawalAmount(uint72 identityId, uint96 accumulatedOperatorFeeWithdrawalAmount) external onlyContracts {\n        profiles[identityId].accumulatedOperatorFeeWithdrawalAmount = accumulatedOperatorFeeWithdrawalAmount;\n    }\n\n    function getAccumulatedOperatorFeeWithdrawalTimestamp(uint72 identityId) external view returns (uint256) {\n        return profiles[identityId].operatorFeeWithdrawalTimestamp;\n    }\n\n    function setAccumulatedOperatorFeeWithdrawalTimestamp(uint72 identityId, uint256 operatorFeeWithdrawalTimestamp) external onlyContracts {\n        profiles[identityId].operatorFeeWithdrawalTimestamp = operatorFeeWithdrawalTimestamp;\n    }\n\n    function getSharesContractAddress(uint72 identityId) external view returns (address) {\n        return profiles[identityId].sharesContractAddress;\n    }\n\n    function setSharesContractAddress(uint72 identityId, address sharesContractAddress) external onlyContracts {\n        profiles[identityId].sharesContractAddress = sharesContractAddress;\n    }\n\n    function getNodeAddress(uint72 identityId, uint8 hashFunctionId) external view returns (bytes32) {\n        return profiles[identityId].nodeAddresses[hashFunctionId];\n    }\n\n    function setNodeAddress(uint72 identityId, uint8 hashFunctionId) external onlyContracts {\n        profiles[identityId].nodeAddresses[hashFunctionId] = hashingProxy.callHashFunction(\n            hashFunctionId,\n            profiles[identityId].nodeId\n        );\n    }\n\n    function profileExists(uint72 identityId) external view returns (bool) {\n        return keccak256(profiles[identityId].nodeId) != keccak256(bytes(\"\"));\n    }\n\n    function transferTokens(address receiver, uint96 amount) external onlyContracts {\n        tokenContract.transfer(receiver, amount);\n    }\n\n    function _checkHubOwner() internal view virtual {\n        require(msg.sender == hub.owner(), \"Fn can only be used by hub owner\");\n    }\n\n    function _checkHub() internal view virtual {\n        require(hub.isContract(msg.sender), \"Fn can only be called by the hub\");\n    }\n}\n",
  "sourcePath": "/Users/waving/Desktop/OriginTrail/dkg-evm-module/contracts/storage/ProfileStorage.sol",
  "compiler": {
    "name": "solc",
    "version": "0.8.16+commit.07a7930e.Emscripten.clang"
  },
  "schemaVersion": "3.4.10",
  "updatedAt": "2022-12-08T17:46:22.013Z",
  "devdoc": {
    "kind": "dev",
    "methods": {},
    "version": 1
  },
  "userdoc": {
    "kind": "user",
    "methods": {},
    "version": 1
  }
}