{
  "contractName": "Profile",
  "abi": [
    {
      "inputs": [
        {
          "internalType": "address",
          "name": "hubAddress",
          "type": "address"
        }
      ],
      "stateMutability": "nonpayable",
      "type": "constructor"
    },
    {
      "anonymous": false,
      "inputs": [
        {
          "indexed": true,
          "internalType": "uint96",
          "name": "identityId",
          "type": "uint96"
        },
        {
          "indexed": false,
          "internalType": "bytes",
          "name": "nodeId",
          "type": "bytes"
        }
      ],
      "name": "ProfileCreated",
      "type": "event"
    },
    {
      "anonymous": false,
      "inputs": [
        {
          "indexed": true,
          "internalType": "uint96",
          "name": "identityId",
          "type": "uint96"
        },
        {
          "indexed": false,
          "internalType": "bytes",
          "name": "nodeId",
          "type": "bytes"
        },
        {
          "indexed": false,
          "internalType": "uint96",
          "name": "rewardWithdrawalAmount",
          "type": "uint96"
        },
        {
          "indexed": false,
          "internalType": "uint256",
          "name": "rewardWithdrawalTimestamp",
          "type": "uint256"
        }
      ],
      "name": "RewardWithdrawalInitiated",
      "type": "event"
    },
    {
      "anonymous": false,
      "inputs": [
        {
          "indexed": true,
          "internalType": "uint96",
          "name": "identityId",
          "type": "uint96"
        },
        {
          "indexed": false,
          "internalType": "bytes",
          "name": "nodeId",
          "type": "bytes"
        },
        {
          "indexed": false,
          "internalType": "uint96",
          "name": "withdrawnRewardAmount",
          "type": "uint96"
        }
      ],
      "name": "RewardWithdrawn",
      "type": "event"
    },
    {
      "anonymous": false,
      "inputs": [
        {
          "indexed": true,
          "internalType": "uint96",
          "name": "identityId",
          "type": "uint96"
        },
        {
          "indexed": true,
          "internalType": "bytes",
          "name": "nodeId",
          "type": "bytes"
        },
        {
          "indexed": false,
          "internalType": "uint96",
          "name": "frozenStakeAmount",
          "type": "uint96"
        }
      ],
      "name": "StakeFrozen",
      "type": "event"
    },
    {
      "anonymous": false,
      "inputs": [
        {
          "indexed": true,
          "internalType": "uint96",
          "name": "identityId",
          "type": "uint96"
        },
        {
          "indexed": false,
          "internalType": "bytes",
          "name": "nodeId",
          "type": "bytes"
        },
        {
          "indexed": false,
          "internalType": "uint96",
          "name": "stakedAmount",
          "type": "uint96"
        },
        {
          "indexed": false,
          "internalType": "uint96",
          "name": "newStake",
          "type": "uint96"
        }
      ],
      "name": "StakeIncreased",
      "type": "event"
    },
    {
      "anonymous": false,
      "inputs": [
        {
          "indexed": true,
          "internalType": "uint96",
          "name": "identityId",
          "type": "uint96"
        },
        {
          "indexed": false,
          "internalType": "bytes",
          "name": "nodeId",
          "type": "bytes"
        },
        {
          "indexed": false,
          "internalType": "uint96",
          "name": "unfrozenStakeAmount",
          "type": "uint96"
        }
      ],
      "name": "StakeUnfrozen",
      "type": "event"
    },
    {
      "anonymous": false,
      "inputs": [
        {
          "indexed": true,
          "internalType": "uint96",
          "name": "identityId",
          "type": "uint96"
        },
        {
          "indexed": false,
          "internalType": "bytes",
          "name": "nodeId",
          "type": "bytes"
        },
        {
          "indexed": false,
          "internalType": "uint96",
          "name": "stakeWithdrawalAmount",
          "type": "uint96"
        },
        {
          "indexed": false,
          "internalType": "uint256",
          "name": "stakeWithdrawalTimestamp",
          "type": "uint256"
        },
        {
          "indexed": false,
          "internalType": "uint96",
          "name": "newStake",
          "type": "uint96"
        }
      ],
      "name": "StakeWithdrawalInitiated",
      "type": "event"
    },
    {
      "anonymous": false,
      "inputs": [
        {
          "indexed": true,
          "internalType": "uint96",
          "name": "identityId",
          "type": "uint96"
        },
        {
          "indexed": false,
          "internalType": "bytes",
          "name": "nodeId",
          "type": "bytes"
        },
        {
          "indexed": false,
          "internalType": "uint96",
          "name": "withdrawnStakeAmount",
          "type": "uint96"
        }
      ],
      "name": "StakeWithdrawn",
      "type": "event"
    },
    {
      "inputs": [],
      "name": "hub",
      "outputs": [
        {
          "internalType": "contract Hub",
          "name": "",
          "type": "address"
        }
      ],
      "stateMutability": "view",
      "type": "function"
    },
    {
      "inputs": [
        {
          "internalType": "address",
          "name": "adminWallet",
          "type": "address"
        },
        {
          "internalType": "bytes",
          "name": "nodeId",
          "type": "bytes"
        },
        {
          "internalType": "uint96",
          "name": "initialAsk",
          "type": "uint96"
        },
        {
          "internalType": "uint96",
          "name": "initialStake",
          "type": "uint96"
        }
      ],
      "name": "createProfile",
      "outputs": [],
      "stateMutability": "nonpayable",
      "type": "function"
    },
    {
      "inputs": [
        {
          "internalType": "uint96",
          "name": "identityId",
          "type": "uint96"
        },
        {
          "internalType": "uint96",
          "name": "amount",
          "type": "uint96"
        }
      ],
      "name": "increaseStake",
      "outputs": [],
      "stateMutability": "nonpayable",
      "type": "function"
    },
    {
      "inputs": [
        {
          "internalType": "uint96",
          "name": "identityId",
          "type": "uint96"
        },
        {
          "internalType": "uint96",
          "name": "amount",
          "type": "uint96"
        }
      ],
      "name": "startStakeWithdrawal",
      "outputs": [],
      "stateMutability": "nonpayable",
      "type": "function"
    },
    {
      "inputs": [
        {
          "internalType": "uint96",
          "name": "identityId",
          "type": "uint96"
        }
      ],
      "name": "withdrawFreeStake",
      "outputs": [],
      "stateMutability": "nonpayable",
      "type": "function"
    },
    {
      "inputs": [
        {
          "internalType": "uint96",
          "name": "identityId",
          "type": "uint96"
        }
      ],
      "name": "stakeReward",
      "outputs": [],
      "stateMutability": "nonpayable",
      "type": "function"
    },
    {
      "inputs": [
        {
          "internalType": "uint96",
          "name": "identityId",
          "type": "uint96"
        }
      ],
      "name": "startRewardWithdrawal",
      "outputs": [],
      "stateMutability": "nonpayable",
      "type": "function"
    },
    {
      "inputs": [
        {
          "internalType": "uint96",
          "name": "identityId",
          "type": "uint96"
        }
      ],
      "name": "withdrawFreeReward",
      "outputs": [],
      "stateMutability": "nonpayable",
      "type": "function"
    }
  ],
  "bytecode": "0x60806040523480156200001157600080fd5b506040516200487838038062004878833981810160405281019062000037919062000122565b600073ffffffffffffffffffffffffffffffffffffffff168173ffffffffffffffffffffffffffffffffffffffff16036200007157600080fd5b806000806101000a81548173ffffffffffffffffffffffffffffffffffffffff021916908373ffffffffffffffffffffffffffffffffffffffff1602179055505062000154565b600080fd5b600073ffffffffffffffffffffffffffffffffffffffff82169050919050565b6000620000ea82620000bd565b9050919050565b620000fc81620000dd565b81146200010857600080fd5b50565b6000815190506200011c81620000f1565b92915050565b6000602082840312156200013b576200013a620000b8565b5b60006200014b848285016200010b565b91505092915050565b61471480620001646000396000f3fe608060405234801561001057600080fd5b50600436106100885760003560e01c80634f03cd1a1161005b5780634f03cd1a146100ff5780639cac9df01461011b578063c4008d8314610137578063cd6927911461015357610088565b8063365a86fc1461008d57806336bc2494146100ab5780633be651fa146100c75780634acbd388146100e3575b600080fd5b61009561016f565b6040516100a291906134af565b60405180910390f35b6100c560048036038101906100c09190613522565b610193565b005b6100e160048036038101906100dc9190613522565b6106e3565b005b6100fd60048036038101906100f89190613522565b610edb565b005b6101196004803603810190610114919061354f565b611585565b005b61013560048036038101906101309190613522565b611efb565b005b610151600480360381019061014c919061354f565b61244c565b005b61016d60048036038101906101689190613713565b612dc9565b005b60008054906101000a900473ffffffffffffffffffffffffffffffffffffffff1681565b8060008060009054906101000a900473ffffffffffffffffffffffffffffffffffffffff1673ffffffffffffffffffffffffffffffffffffffff166304433bbc6040518163ffffffff1660e01b81526004016101ee906137f3565b602060405180830381865afa15801561020b573d6000803e3d6000fd5b505050506040513d601f19601f8201168201806040525081019061022f9190613828565b90508073ffffffffffffffffffffffffffffffffffffffff1663d55bbcac833360405160200161025f919061389d565b6040516020818303038152906040528051906020012060016040518463ffffffff1660e01b815260040161029593929190613925565b602060405180830381865afa1580156102b2573d6000803e3d6000fd5b505050506040513d601f19601f820116820180604052508101906102d69190613994565b610315576040517f08c379a000000000000000000000000000000000000000000000000000000000815260040161030c90613a33565b60405180910390fd5b60008060009054906101000a900473ffffffffffffffffffffffffffffffffffffffff1673ffffffffffffffffffffffffffffffffffffffff166304433bbc6040518163ffffffff1660e01b815260040161036f90613a9f565b602060405180830381865afa15801561038c573d6000803e3d6000fd5b505050506040513d601f19601f820116820180604052508101906103b09190613828565b905060008173ffffffffffffffffffffffffffffffffffffffff1662ada70b866040518263ffffffff1660e01b81526004016103ec9190613abf565b602060405180830381865afa158015610409573d6000803e3d6000fd5b505050506040513d601f19601f8201168201806040525081019061042d9190613aef565b90506000816bffffffffffffffffffffffff1611610480576040517f08c379a000000000000000000000000000000000000000000000000000000000815260040161047790613b68565b60405180910390fd5b428273ffffffffffffffffffffffffffffffffffffffff1663115ab48e876040518263ffffffff1660e01b81526004016104ba9190613abf565b602060405180830381865afa1580156104d7573d6000803e3d6000fd5b505050506040513d601f19601f820116820180604052508101906104fb9190613bb4565b1061053b576040517f08c379a000000000000000000000000000000000000000000000000000000000815260040161053290613c53565b60405180910390fd5b8173ffffffffffffffffffffffffffffffffffffffff1663a793e8218660006040518363ffffffff1660e01b8152600401610577929190613cae565b600060405180830381600087803b15801561059157600080fd5b505af11580156105a5573d6000803e3d6000fd5b505050508173ffffffffffffffffffffffffffffffffffffffff1663abe979e133836040518363ffffffff1660e01b81526004016105e4929190613ce6565b600060405180830381600087803b1580156105fe57600080fd5b505af1158015610612573d6000803e3d6000fd5b50505050846bffffffffffffffffffffffff167f696603902b219a6f4b2f7d48f2193f2211705a9064a633a6c91fcfd9e3ed9a678373ffffffffffffffffffffffffffffffffffffffff16636c5c281c886040518263ffffffff1660e01b815260040161067f9190613abf565b600060405180830381865afa15801561069c573d6000803e3d6000fd5b505050506040513d6000823e3d601f19601f820116820180604052508101906106c59190613db2565b836040516106d4929190613e50565b60405180910390a25050505050565b8060008060009054906101000a900473ffffffffffffffffffffffffffffffffffffffff1673ffffffffffffffffffffffffffffffffffffffff166304433bbc6040518163ffffffff1660e01b815260040161073e906137f3565b602060405180830381865afa15801561075b573d6000803e3d6000fd5b505050506040513d601f19601f8201168201806040525081019061077f9190613828565b90508073ffffffffffffffffffffffffffffffffffffffff1663d55bbcac83336040516020016107af919061389d565b6040516020818303038152906040528051906020012060016040518463ffffffff1660e01b81526004016107e593929190613925565b602060405180830381865afa158015610802573d6000803e3d6000fd5b505050506040513d601f19601f820116820180604052508101906108269190613994565b610865576040517f08c379a000000000000000000000000000000000000000000000000000000000815260040161085c90613a33565b60405180910390fd5b60008060009054906101000a900473ffffffffffffffffffffffffffffffffffffffff1673ffffffffffffffffffffffffffffffffffffffff166304433bbc6040518163ffffffff1660e01b81526004016108bf90613a9f565b602060405180830381865afa1580156108dc573d6000803e3d6000fd5b505050506040513d601f19601f820116820180604052508101906109009190613828565b905060008173ffffffffffffffffffffffffffffffffffffffff166374cb0edb866040518263ffffffff1660e01b815260040161093d9190613abf565b602060405180830381865afa15801561095a573d6000803e3d6000fd5b505050506040513d601f19601f8201168201806040525081019061097e9190613aef565b90506000816bffffffffffffffffffffffff16116109d1576040517f08c379a00000000000000000000000000000000000000000000000000000000081526004016109c890613ecc565b60405180910390fd5b60008273ffffffffffffffffffffffffffffffffffffffff16631860bd8e876040518263ffffffff1660e01b8152600401610a0c9190613abf565b602060405180830381865afa158015610a29573d6000803e3d6000fd5b505050506040513d601f19601f82011682018060405250810190610a4d9190613aef565b905060008282610a5d9190613f1b565b90508373ffffffffffffffffffffffffffffffffffffffff1663a4f906238860006040518363ffffffff1660e01b8152600401610a9b929190613cae565b600060405180830381600087803b158015610ab557600080fd5b505af1158015610ac9573d6000803e3d6000fd5b505050508373ffffffffffffffffffffffffffffffffffffffff16636dccf56d88836040518363ffffffff1660e01b8152600401610b08929190613f5d565b600060405180830381600087803b158015610b2257600080fd5b505af1158015610b36573d6000803e3d6000fd5b5050505060008060009054906101000a900473ffffffffffffffffffffffffffffffffffffffff1673ffffffffffffffffffffffffffffffffffffffff166304433bbc6040518163ffffffff1660e01b8152600401610b9490613fd2565b602060405180830381865afa158015610bb1573d6000803e3d6000fd5b505050506040513d601f19601f82011682018060405250810190610bd59190613828565b90508073ffffffffffffffffffffffffffffffffffffffff16639ec41a2d6040518163ffffffff1660e01b8152600401602060405180830381865afa158015610c22573d6000803e3d6000fd5b505050506040513d601f19601f82011682018060405250810190610c469190613aef565b6bffffffffffffffffffffffff16836bffffffffffffffffffffffff16108015610cfa57508073ffffffffffffffffffffffffffffffffffffffff16639ec41a2d6040518163ffffffff1660e01b8152600401602060405180830381865afa158015610cb6573d6000803e3d6000fd5b505050506040513d601f19601f82011682018060405250810190610cda9190613aef565b6bffffffffffffffffffffffff16826bffffffffffffffffffffffff1610155b15610e095760008060009054906101000a900473ffffffffffffffffffffffffffffffffffffffff1673ffffffffffffffffffffffffffffffffffffffff166304433bbc6040518163ffffffff1660e01b8152600401610d599061403e565b602060405180830381865afa158015610d76573d6000803e3d6000fd5b505050506040513d601f19601f82011682018060405250810190610d9a9190613828565b90508073ffffffffffffffffffffffffffffffffffffffff1663e1131caa8a6040518263ffffffff1660e01b8152600401610dd59190613abf565b600060405180830381600087803b158015610def57600080fd5b505af1158015610e03573d6000803e3d6000fd5b50505050505b876bffffffffffffffffffffffff167f37e067ca3832b6f9836fc2062e12d2fd130dbb768d8cc567ad3d4009cff673878673ffffffffffffffffffffffffffffffffffffffff16636c5c281c8b6040518263ffffffff1660e01b8152600401610e729190613abf565b600060405180830381865afa158015610e8f573d6000803e3d6000fd5b505050506040513d6000823e3d601f19601f82011682018060405250810190610eb89190613db2565b8685604051610ec99392919061405e565b60405180910390a25050505050505050565b8060008060009054906101000a900473ffffffffffffffffffffffffffffffffffffffff1673ffffffffffffffffffffffffffffffffffffffff166304433bbc6040518163ffffffff1660e01b8152600401610f36906137f3565b602060405180830381865afa158015610f53573d6000803e3d6000fd5b505050506040513d601f19601f82011682018060405250810190610f779190613828565b90508073ffffffffffffffffffffffffffffffffffffffff1663d55bbcac8333604051602001610fa7919061389d565b6040516020818303038152906040528051906020012060016040518463ffffffff1660e01b8152600401610fdd93929190613925565b602060405180830381865afa158015610ffa573d6000803e3d6000fd5b505050506040513d601f19601f8201168201806040525081019061101e9190613994565b61105d576040517f08c379a000000000000000000000000000000000000000000000000000000000815260040161105490613a33565b60405180910390fd5b60008060009054906101000a900473ffffffffffffffffffffffffffffffffffffffff1673ffffffffffffffffffffffffffffffffffffffff166304433bbc6040518163ffffffff1660e01b81526004016110b790613a9f565b602060405180830381865afa1580156110d4573d6000803e3d6000fd5b505050506040513d601f19601f820116820180604052508101906110f89190613828565b905060008173ffffffffffffffffffffffffffffffffffffffff166374cb0edb866040518263ffffffff1660e01b81526004016111359190613abf565b602060405180830381865afa158015611152573d6000803e3d6000fd5b505050506040513d601f19601f820116820180604052508101906111769190613aef565b90506000816bffffffffffffffffffffffff16116111c9576040517f08c379a00000000000000000000000000000000000000000000000000000000081526004016111c0906140e8565b60405180910390fd5b60008060009054906101000a900473ffffffffffffffffffffffffffffffffffffffff1673ffffffffffffffffffffffffffffffffffffffff166304433bbc6040518163ffffffff1660e01b815260040161122390613fd2565b602060405180830381865afa158015611240573d6000803e3d6000fd5b505050506040513d601f19601f820116820180604052508101906112649190613828565b90508273ffffffffffffffffffffffffffffffffffffffff1663a4f906238760006040518363ffffffff1660e01b81526004016112a2929190613cae565b600060405180830381600087803b1580156112bc57600080fd5b505af11580156112d0573d6000803e3d6000fd5b505050508273ffffffffffffffffffffffffffffffffffffffff1663a793e82187848673ffffffffffffffffffffffffffffffffffffffff1662ada70b8b6040518263ffffffff1660e01b815260040161132a9190613abf565b602060405180830381865afa158015611347573d6000803e3d6000fd5b505050506040513d601f19601f8201168201806040525081019061136b9190613aef565b6113759190613f1b565b6040518363ffffffff1660e01b8152600401611392929190613f5d565b600060405180830381600087803b1580156113ac57600080fd5b505af11580156113c0573d6000803e3d6000fd5b5050505060008173ffffffffffffffffffffffffffffffffffffffff1663f1b776f56040518163ffffffff1660e01b8152600401602060405180830381865afa158015611411573d6000803e3d6000fd5b505050506040513d601f19601f820116820180604052508101906114359190614143565b62ffffff16426114459190614170565b90508373ffffffffffffffffffffffffffffffffffffffff166394fceaeb88836040518363ffffffff1660e01b81526004016114829291906141d5565b600060405180830381600087803b15801561149c57600080fd5b505af11580156114b0573d6000803e3d6000fd5b50505050866bffffffffffffffffffffffff167f2e482f3d9b1efd3333d331fd23b721c19de5d3de446344037454f078fad6c80a8573ffffffffffffffffffffffffffffffffffffffff16636c5c281c8a6040518263ffffffff1660e01b815260040161151d9190613abf565b600060405180830381865afa15801561153a573d6000803e3d6000fd5b505050506040513d6000823e3d601f19601f820116820180604052508101906115639190613db2565b8584604051611574939291906141fe565b60405180910390a250505050505050565b8160008060009054906101000a900473ffffffffffffffffffffffffffffffffffffffff1673ffffffffffffffffffffffffffffffffffffffff166304433bbc6040518163ffffffff1660e01b81526004016115e0906137f3565b602060405180830381865afa1580156115fd573d6000803e3d6000fd5b505050506040513d601f19601f820116820180604052508101906116219190613828565b90508073ffffffffffffffffffffffffffffffffffffffff1663d55bbcac8333604051602001611651919061389d565b6040516020818303038152906040528051906020012060016040518463ffffffff1660e01b815260040161168793929190613925565b602060405180830381865afa1580156116a4573d6000803e3d6000fd5b505050506040513d601f19601f820116820180604052508101906116c89190613994565b611707576040517f08c379a00000000000000000000000000000000000000000000000000000000081526004016116fe90613a33565b60405180910390fd5b60008060009054906101000a900473ffffffffffffffffffffffffffffffffffffffff1673ffffffffffffffffffffffffffffffffffffffff166304433bbc6040518163ffffffff1660e01b815260040161176190614288565b602060405180830381865afa15801561177e573d6000803e3d6000fd5b505050506040513d601f19601f820116820180604052508101906117a29190613828565b905060008060009054906101000a900473ffffffffffffffffffffffffffffffffffffffff1673ffffffffffffffffffffffffffffffffffffffff166304433bbc6040518163ffffffff1660e01b81526004016117fe90613a9f565b602060405180830381865afa15801561181b573d6000803e3d6000fd5b505050506040513d601f19601f8201168201806040525081019061183f9190613828565b9050846bffffffffffffffffffffffff168273ffffffffffffffffffffffffffffffffffffffff1663dd62ed3e33306040518363ffffffff1660e01b815260040161188b9291906142a8565b602060405180830381865afa1580156118a8573d6000803e3d6000fd5b505050506040513d601f19601f820116820180604052508101906118cc9190613bb4565b101561190d576040517f08c379a000000000000000000000000000000000000000000000000000000000815260040161190490614343565b60405180910390fd5b846bffffffffffffffffffffffff168273ffffffffffffffffffffffffffffffffffffffff166370a08231336040518263ffffffff1660e01b81526004016119559190614363565b602060405180830381865afa158015611972573d6000803e3d6000fd5b505050506040513d601f19601f820116820180604052508101906119969190613bb4565b10156119d7576040517f08c379a00000000000000000000000000000000000000000000000000000000081526004016119ce906143ca565b60405180910390fd5b600081905060008173ffffffffffffffffffffffffffffffffffffffff16631860bd8e896040518263ffffffff1660e01b8152600401611a179190613abf565b602060405180830381865afa158015611a34573d6000803e3d6000fd5b505050506040513d601f19601f82011682018060405250810190611a589190613aef565b905060008782611a689190613f1b565b90508273ffffffffffffffffffffffffffffffffffffffff16636dccf56d8a836040518363ffffffff1660e01b8152600401611aa5929190613f5d565b600060405180830381600087803b158015611abf57600080fd5b505af1158015611ad3573d6000803e3d6000fd5b505050508473ffffffffffffffffffffffffffffffffffffffff166323b872dd33868b6040518463ffffffff1660e01b8152600401611b149392919061441b565b6020604051808303816000875af1158015611b33573d6000803e3d6000fd5b505050506040513d601f19601f82011682018060405250810190611b579190613994565b5060008060009054906101000a900473ffffffffffffffffffffffffffffffffffffffff1673ffffffffffffffffffffffffffffffffffffffff166304433bbc6040518163ffffffff1660e01b8152600401611bb290613fd2565b602060405180830381865afa158015611bcf573d6000803e3d6000fd5b505050506040513d601f19601f82011682018060405250810190611bf39190613828565b90508073ffffffffffffffffffffffffffffffffffffffff16639ec41a2d6040518163ffffffff1660e01b8152600401602060405180830381865afa158015611c40573d6000803e3d6000fd5b505050506040513d601f19601f82011682018060405250810190611c649190613aef565b6bffffffffffffffffffffffff16836bffffffffffffffffffffffff16108015611d1857508073ffffffffffffffffffffffffffffffffffffffff16639ec41a2d6040518163ffffffff1660e01b8152600401602060405180830381865afa158015611cd4573d6000803e3d6000fd5b505050506040513d601f19601f82011682018060405250810190611cf89190613aef565b6bffffffffffffffffffffffff16826bffffffffffffffffffffffff1610155b15611e275760008060009054906101000a900473ffffffffffffffffffffffffffffffffffffffff1673ffffffffffffffffffffffffffffffffffffffff166304433bbc6040518163ffffffff1660e01b8152600401611d779061403e565b602060405180830381865afa158015611d94573d6000803e3d6000fd5b505050506040513d601f19601f82011682018060405250810190611db89190613828565b90508073ffffffffffffffffffffffffffffffffffffffff1663e1131caa8c6040518263ffffffff1660e01b8152600401611df39190613abf565b600060405180830381600087803b158015611e0d57600080fd5b505af1158015611e21573d6000803e3d6000fd5b50505050505b896bffffffffffffffffffffffff167f37e067ca3832b6f9836fc2062e12d2fd130dbb768d8cc567ad3d4009cff673878573ffffffffffffffffffffffffffffffffffffffff16636c5c281c8d6040518263ffffffff1660e01b8152600401611e909190613abf565b600060405180830381865afa158015611ead573d6000803e3d6000fd5b505050506040513d6000823e3d601f19601f82011682018060405250810190611ed69190613db2565b8b85604051611ee79392919061405e565b60405180910390a250505050505050505050565b8060008060009054906101000a900473ffffffffffffffffffffffffffffffffffffffff1673ffffffffffffffffffffffffffffffffffffffff166304433bbc6040518163ffffffff1660e01b8152600401611f56906137f3565b602060405180830381865afa158015611f73573d6000803e3d6000fd5b505050506040513d601f19601f82011682018060405250810190611f979190613828565b90508073ffffffffffffffffffffffffffffffffffffffff1663d55bbcac8333604051602001611fc7919061389d565b6040516020818303038152906040528051906020012060016040518463ffffffff1660e01b8152600401611ffd93929190613925565b602060405180830381865afa15801561201a573d6000803e3d6000fd5b505050506040513d601f19601f8201168201806040525081019061203e9190613994565b61207d576040517f08c379a000000000000000000000000000000000000000000000000000000000815260040161207490613a33565b60405180910390fd5b60008060009054906101000a900473ffffffffffffffffffffffffffffffffffffffff1673ffffffffffffffffffffffffffffffffffffffff166304433bbc6040518163ffffffff1660e01b81526004016120d790613a9f565b602060405180830381865afa1580156120f4573d6000803e3d6000fd5b505050506040513d601f19601f820116820180604052508101906121189190613828565b905060008173ffffffffffffffffffffffffffffffffffffffff16636b1374f0866040518263ffffffff1660e01b81526004016121559190613abf565b602060405180830381865afa158015612172573d6000803e3d6000fd5b505050506040513d601f19601f820116820180604052508101906121969190613aef565b90506000816bffffffffffffffffffffffff16116121e9576040517f08c379a00000000000000000000000000000000000000000000000000000000081526004016121e090613b68565b60405180910390fd5b428273ffffffffffffffffffffffffffffffffffffffff1663832c7bc1876040518263ffffffff1660e01b81526004016122239190613abf565b602060405180830381865afa158015612240573d6000803e3d6000fd5b505050506040513d601f19601f820116820180604052508101906122649190613bb4565b106122a4576040517f08c379a000000000000000000000000000000000000000000000000000000000815260040161229b90613c53565b60405180910390fd5b8173ffffffffffffffffffffffffffffffffffffffff1663abe979e133836040518363ffffffff1660e01b81526004016122df929190613ce6565b600060405180830381600087803b1580156122f957600080fd5b505af115801561230d573d6000803e3d6000fd5b505050508173ffffffffffffffffffffffffffffffffffffffff1663769653e68660006040518363ffffffff1660e01b815260040161234d929190613cae565b600060405180830381600087803b15801561236757600080fd5b505af115801561237b573d6000803e3d6000fd5b50505050846bffffffffffffffffffffffff167f4f7befd4fda5d3f3cbcd74b40135ab0f162a9e0c40f80a745c80d50d97034eea8373ffffffffffffffffffffffffffffffffffffffff16636c5c281c886040518263ffffffff1660e01b81526004016123e89190613abf565b600060405180830381865afa158015612405573d6000803e3d6000fd5b505050506040513d6000823e3d601f19601f8201168201806040525081019061242e9190613db2565b8360405161243d929190613e50565b60405180910390a25050505050565b8160008060009054906101000a900473ffffffffffffffffffffffffffffffffffffffff1673ffffffffffffffffffffffffffffffffffffffff166304433bbc6040518163ffffffff1660e01b81526004016124a7906137f3565b602060405180830381865afa1580156124c4573d6000803e3d6000fd5b505050506040513d601f19601f820116820180604052508101906124e89190613828565b90508073ffffffffffffffffffffffffffffffffffffffff1663d55bbcac8333604051602001612518919061389d565b6040516020818303038152906040528051906020012060016040518463ffffffff1660e01b815260040161254e93929190613925565b602060405180830381865afa15801561256b573d6000803e3d6000fd5b505050506040513d601f19601f8201168201806040525081019061258f9190613994565b6125ce576040517f08c379a00000000000000000000000000000000000000000000000000000000081526004016125c590613a33565b60405180910390fd5b60008060009054906101000a900473ffffffffffffffffffffffffffffffffffffffff1673ffffffffffffffffffffffffffffffffffffffff166304433bbc6040518163ffffffff1660e01b815260040161262890613a9f565b602060405180830381865afa158015612645573d6000803e3d6000fd5b505050506040513d601f19601f820116820180604052508101906126699190613828565b90508073ffffffffffffffffffffffffffffffffffffffff16631860bd8e866040518263ffffffff1660e01b81526004016126a49190613abf565b602060405180830381865afa1580156126c1573d6000803e3d6000fd5b505050506040513d601f19601f820116820180604052508101906126e59190613aef565b6bffffffffffffffffffffffff16846bffffffffffffffffffffffff161115612743576040517f08c379a000000000000000000000000000000000000000000000000000000000815260040161273a906144c4565b60405180910390fd5b60008173ffffffffffffffffffffffffffffffffffffffff16631860bd8e876040518263ffffffff1660e01b815260040161277e9190613abf565b602060405180830381865afa15801561279b573d6000803e3d6000fd5b505050506040513d601f19601f820116820180604052508101906127bf9190613aef565b9050600085826127cf91906144e4565b90506000868473ffffffffffffffffffffffffffffffffffffffff16636b1374f08a6040518263ffffffff1660e01b815260040161280d9190613abf565b602060405180830381865afa15801561282a573d6000803e3d6000fd5b505050506040513d601f19601f8201168201806040525081019061284e9190613aef565b6128589190613f1b565b905060008060009054906101000a900473ffffffffffffffffffffffffffffffffffffffff1673ffffffffffffffffffffffffffffffffffffffff166304433bbc6040518163ffffffff1660e01b81526004016128b490613fd2565b602060405180830381865afa1580156128d1573d6000803e3d6000fd5b505050506040513d601f19601f820116820180604052508101906128f59190613828565b90508473ffffffffffffffffffffffffffffffffffffffff16636dccf56d8a856040518363ffffffff1660e01b8152600401612932929190613f5d565b600060405180830381600087803b15801561294c57600080fd5b505af1158015612960573d6000803e3d6000fd5b505050508473ffffffffffffffffffffffffffffffffffffffff1663769653e68a846040518363ffffffff1660e01b815260040161299f929190613f5d565b600060405180830381600087803b1580156129b957600080fd5b505af11580156129cd573d6000803e3d6000fd5b5050505060008173ffffffffffffffffffffffffffffffffffffffff1663151db1b96040518163ffffffff1660e01b8152600401602060405180830381865afa158015612a1e573d6000803e3d6000fd5b505050506040513d601f19601f82011682018060405250810190612a429190614143565b62ffffff1642612a529190614170565b90508573ffffffffffffffffffffffffffffffffffffffff16634f3cc7c08b836040518363ffffffff1660e01b8152600401612a8f9291906141d5565b600060405180830381600087803b158015612aa957600080fd5b505af1158015612abd573d6000803e3d6000fd5b505050508173ffffffffffffffffffffffffffffffffffffffff16639ec41a2d6040518163ffffffff1660e01b8152600401602060405180830381865afa158015612b0c573d6000803e3d6000fd5b505050506040513d601f19601f82011682018060405250810190612b309190613aef565b6bffffffffffffffffffffffff16856bffffffffffffffffffffffff1610158015612be457508173ffffffffffffffffffffffffffffffffffffffff16639ec41a2d6040518163ffffffff1660e01b8152600401602060405180830381865afa158015612ba1573d6000803e3d6000fd5b505050506040513d601f19601f82011682018060405250810190612bc59190613aef565b6bffffffffffffffffffffffff16846bffffffffffffffffffffffff16105b15612cf35760008060009054906101000a900473ffffffffffffffffffffffffffffffffffffffff1673ffffffffffffffffffffffffffffffffffffffff166304433bbc6040518163ffffffff1660e01b8152600401612c439061403e565b602060405180830381865afa158015612c60573d6000803e3d6000fd5b505050506040513d601f19601f82011682018060405250810190612c849190613828565b90508073ffffffffffffffffffffffffffffffffffffffff1663796f11aa8c6040518263ffffffff1660e01b8152600401612cbf9190613abf565b600060405180830381600087803b158015612cd957600080fd5b505af1158015612ced573d6000803e3d6000fd5b50505050505b896bffffffffffffffffffffffff167f1a03cee1837345f730ee178e2bb5e6e4ad80f4b442144e1dd724fa8bbec65e178773ffffffffffffffffffffffffffffffffffffffff16636c5c281c8d6040518263ffffffff1660e01b8152600401612d5c9190613abf565b600060405180830381865afa158015612d79573d6000803e3d6000fd5b505050506040513d6000823e3d601f19601f82011682018060405250810190612da29190613db2565b858488604051612db59493929190614518565b60405180910390a250505050505050505050565b60008060009054906101000a900473ffffffffffffffffffffffffffffffffffffffff1673ffffffffffffffffffffffffffffffffffffffff166304433bbc6040518163ffffffff1660e01b8152600401612e2390614288565b602060405180830381865afa158015612e40573d6000803e3d6000fd5b505050506040513d601f19601f82011682018060405250810190612e649190613828565b905060008060009054906101000a900473ffffffffffffffffffffffffffffffffffffffff1673ffffffffffffffffffffffffffffffffffffffff166304433bbc6040518163ffffffff1660e01b8152600401612ec090613a9f565b602060405180830381865afa158015612edd573d6000803e3d6000fd5b505050506040513d601f19601f82011682018060405250810190612f019190613828565b9050826bffffffffffffffffffffffff168273ffffffffffffffffffffffffffffffffffffffff1663dd62ed3e33306040518363ffffffff1660e01b8152600401612f4d9291906142a8565b602060405180830381865afa158015612f6a573d6000803e3d6000fd5b505050506040513d601f19601f82011682018060405250810190612f8e9190613bb4565b1015612fcf576040517f08c379a0000000000000000000000000000000000000000000000000000000008152600401612fc6906145d6565b60405180910390fd5b826bffffffffffffffffffffffff168273ffffffffffffffffffffffffffffffffffffffff166370a08231336040518263ffffffff1660e01b81526004016130179190614363565b602060405180830381865afa158015613034573d6000803e3d6000fd5b505050506040513d601f19601f820116820180604052508101906130589190613bb4565b1015613099576040517f08c379a000000000000000000000000000000000000000000000000000000000815260040161309090614642565b60405180910390fd5b8173ffffffffffffffffffffffffffffffffffffffff166323b872dd3383866040518463ffffffff1660e01b81526004016130d69392919061441b565b6020604051808303816000875af11580156130f5573d6000803e3d6000fd5b505050506040513d601f19601f820116820180604052508101906131199190613994565b50600081905060008173ffffffffffffffffffffffffffffffffffffffff1663d9e2bcbc338a8a8a8a6040518663ffffffff1660e01b8152600401613162959493929190614662565b6020604051808303816000875af1158015613181573d6000803e3d6000fd5b505050506040513d601f19601f820116820180604052508101906131a59190613aef565b905060008060009054906101000a900473ffffffffffffffffffffffffffffffffffffffff1673ffffffffffffffffffffffffffffffffffffffff166304433bbc6040518163ffffffff1660e01b815260040161320190613fd2565b602060405180830381865afa15801561321e573d6000803e3d6000fd5b505050506040513d601f19601f820116820180604052508101906132429190613828565b90508073ffffffffffffffffffffffffffffffffffffffff16639ec41a2d6040518163ffffffff1660e01b8152600401602060405180830381865afa15801561328f573d6000803e3d6000fd5b505050506040513d601f19601f820116820180604052508101906132b39190613aef565b6bffffffffffffffffffffffff16866bffffffffffffffffffffffff16106133df5760008060009054906101000a900473ffffffffffffffffffffffffffffffffffffffff1673ffffffffffffffffffffffffffffffffffffffff166304433bbc6040518163ffffffff1660e01b815260040161332f9061403e565b602060405180830381865afa15801561334c573d6000803e3d6000fd5b505050506040513d601f19601f820116820180604052508101906133709190613828565b90508073ffffffffffffffffffffffffffffffffffffffff1663e1131caa846040518263ffffffff1660e01b81526004016133ab9190613abf565b600060405180830381600087803b1580156133c557600080fd5b505af11580156133d9573d6000803e3d6000fd5b50505050505b816bffffffffffffffffffffffff167f190cf66c55277e9271ead73f93cfce93d72f2a89276712a2f6bcf08ef4389b848960405161341d91906146bc565b60405180910390a2505050505050505050565b600073ffffffffffffffffffffffffffffffffffffffff82169050919050565b6000819050919050565b600061347561347061346b84613430565b613450565b613430565b9050919050565b60006134878261345a565b9050919050565b60006134998261347c565b9050919050565b6134a98161348e565b82525050565b60006020820190506134c460008301846134a0565b92915050565b6000604051905090565b600080fd5b600080fd5b60006bffffffffffffffffffffffff82169050919050565b6134ff816134de565b811461350a57600080fd5b50565b60008135905061351c816134f6565b92915050565b600060208284031215613538576135376134d4565b5b60006135468482850161350d565b91505092915050565b60008060408385031215613566576135656134d4565b5b60006135748582860161350d565b92505060206135858582860161350d565b9150509250929050565b600061359a82613430565b9050919050565b6135aa8161358f565b81146135b557600080fd5b50565b6000813590506135c7816135a1565b92915050565b600080fd5b600080fd5b6000601f19601f8301169050919050565b7f4e487b7100000000000000000000000000000000000000000000000000000000600052604160045260246000fd5b613620826135d7565b810181811067ffffffffffffffff8211171561363f5761363e6135e8565b5b80604052505050565b60006136526134ca565b905061365e8282613617565b919050565b600067ffffffffffffffff82111561367e5761367d6135e8565b5b613687826135d7565b9050602081019050919050565b82818337600083830152505050565b60006136b66136b184613663565b613648565b9050828152602081018484840111156136d2576136d16135d2565b5b6136dd848285613694565b509392505050565b600082601f8301126136fa576136f96135cd565b5b813561370a8482602086016136a3565b91505092915050565b6000806000806080858703121561372d5761372c6134d4565b5b600061373b878288016135b8565b945050602085013567ffffffffffffffff81111561375c5761375b6134d9565b5b613768878288016136e5565b93505060406137798782880161350d565b925050606061378a8782880161350d565b91505092959194509250565b600082825260208201905092915050565b7f4964656e7469747953746f726167650000000000000000000000000000000000600082015250565b60006137dd600f83613796565b91506137e8826137a7565b602082019050919050565b6000602082019050818103600083015261380c816137d0565b9050919050565b600081519050613822816135a1565b92915050565b60006020828403121561383e5761383d6134d4565b5b600061384c84828501613813565b91505092915050565b60008160601b9050919050565b600061386d82613855565b9050919050565b600061387f82613862565b9050919050565b6138976138928261358f565b613874565b82525050565b60006138a98284613886565b60148201915081905092915050565b6138c1816134de565b82525050565b6000819050919050565b6138da816138c7565b82525050565b6000819050919050565b6000819050919050565b600061390f61390a613905846138e0565b613450565b6138ea565b9050919050565b61391f816138f4565b82525050565b600060608201905061393a60008301866138b8565b61394760208301856138d1565b6139546040830184613916565b949350505050565b60008115159050919050565b6139718161395c565b811461397c57600080fd5b50565b60008151905061398e81613968565b92915050565b6000602082840312156139aa576139a96134d4565b5b60006139b88482850161397f565b91505092915050565b7f46756e6374696f6e2063616e2062652063616c6c6564206f6e6c79206279206960008201527f64656e746974792061646d696e00000000000000000000000000000000000000602082015250565b6000613a1d602d83613796565b9150613a28826139c1565b604082019050919050565b60006020820190508181036000830152613a4c81613a10565b9050919050565b7f50726f66696c6553746f72616765000000000000000000000000000000000000600082015250565b6000613a89600e83613796565b9150613a9482613a53565b602082019050919050565b60006020820190508181036000830152613ab881613a7c565b9050919050565b6000602082019050613ad460008301846138b8565b92915050565b600081519050613ae9816134f6565b92915050565b600060208284031215613b0557613b046134d4565b5b6000613b1384828501613ada565b91505092915050565b7f5769746864726177616c206861736e2774206265656e20696e69746961746564600082015250565b6000613b52602083613796565b9150613b5d82613b1c565b602082019050919050565b60006020820190508181036000830152613b8181613b45565b9050919050565b613b91816138ea565b8114613b9c57600080fd5b50565b600081519050613bae81613b88565b92915050565b600060208284031215613bca57613bc96134d4565b5b6000613bd884828501613b9f565b91505092915050565b7f5769746864726177616c20706572696f64206861736e277420656e646564207960008201527f6574000000000000000000000000000000000000000000000000000000000000602082015250565b6000613c3d602283613796565b9150613c4882613be1565b604082019050919050565b60006020820190508181036000830152613c6c81613c30565b9050919050565b6000819050919050565b6000613c98613c93613c8e84613c73565b613450565b6134de565b9050919050565b613ca881613c7d565b82525050565b6000604082019050613cc360008301856138b8565b613cd06020830184613c9f565b9392505050565b613ce08161358f565b82525050565b6000604082019050613cfb6000830185613cd7565b613d0860208301846138b8565b9392505050565b60005b83811015613d2d578082015181840152602081019050613d12565b83811115613d3c576000848401525b50505050565b6000613d55613d5084613663565b613648565b905082815260208101848484011115613d7157613d706135d2565b5b613d7c848285613d0f565b509392505050565b600082601f830112613d9957613d986135cd565b5b8151613da9848260208601613d42565b91505092915050565b600060208284031215613dc857613dc76134d4565b5b600082015167ffffffffffffffff811115613de657613de56134d9565b5b613df284828501613d84565b91505092915050565b600081519050919050565b600082825260208201905092915050565b6000613e2282613dfb565b613e2c8185613e06565b9350613e3c818560208601613d0f565b613e45816135d7565b840191505092915050565b60006040820190508181036000830152613e6a8185613e17565b9050613e7960208301846138b8565b9392505050565b7f596f752068617665206e6f207265776172640000000000000000000000000000600082015250565b6000613eb6601283613796565b9150613ec182613e80565b602082019050919050565b60006020820190508181036000830152613ee581613ea9565b9050919050565b7f4e487b7100000000000000000000000000000000000000000000000000000000600052601160045260246000fd5b6000613f26826134de565b9150613f31836134de565b9250826bffffffffffffffffffffffff03821115613f5257613f51613eec565b5b828201905092915050565b6000604082019050613f7260008301856138b8565b613f7f60208301846138b8565b9392505050565b7f506172616d657465727353746f72616765000000000000000000000000000000600082015250565b6000613fbc601183613796565b9150613fc782613f86565b602082019050919050565b60006020820190508181036000830152613feb81613faf565b9050919050565b7f5368617264696e675461626c6500000000000000000000000000000000000000600082015250565b6000614028600d83613796565b915061403382613ff2565b602082019050919050565b600060208201905081810360008301526140578161401b565b9050919050565b600060608201905081810360008301526140788186613e17565b905061408760208301856138b8565b61409460408301846138b8565b949350505050565b7f4e6f2072657761726420746f2077697468647261770000000000000000000000600082015250565b60006140d2601583613796565b91506140dd8261409c565b602082019050919050565b60006020820190508181036000830152614101816140c5565b9050919050565b600062ffffff82169050919050565b61412081614108565b811461412b57600080fd5b50565b60008151905061413d81614117565b92915050565b600060208284031215614159576141586134d4565b5b60006141678482850161412e565b91505092915050565b600061417b826138ea565b9150614186836138ea565b9250827fffffffffffffffffffffffffffffffffffffffffffffffffffffffffffffffff038211156141bb576141ba613eec565b5b828201905092915050565b6141cf816138ea565b82525050565b60006040820190506141ea60008301856138b8565b6141f760208301846141c6565b9392505050565b600060608201905081810360008301526142188186613e17565b905061422760208301856138b8565b61423460408301846141c6565b949350505050565b7f546f6b656e000000000000000000000000000000000000000000000000000000600082015250565b6000614272600583613796565b915061427d8261423c565b602082019050919050565b600060208201905081810360008301526142a181614265565b9050919050565b60006040820190506142bd6000830185613cd7565b6142ca6020830184613cd7565b9392505050565b7f416c6c6f77616e6365206d757374206265203e3d2063686f73656e20616d6f7560008201527f6e74000000000000000000000000000000000000000000000000000000000000602082015250565b600061432d602283613796565b9150614338826142d1565b604082019050919050565b6000602082019050818103600083015261435c81614320565b9050919050565b60006020820190506143786000830184613cd7565b92915050565b7f42616c616e6365206d757374206265203e3d2063686f73656e20616d6f756e74600082015250565b60006143b4602083613796565b91506143bf8261437e565b602082019050919050565b600060208201905081810360008301526143e3816143a7565b9050919050565b60006144056144006143fb846134de565b613450565b6138ea565b9050919050565b614415816143ea565b82525050565b60006060820190506144306000830186613cd7565b61443d6020830185613cd7565b61444a604083018461440c565b949350505050565b7f416d6f756e742063616e277420626520626967676572207468616e206176616960008201527f6c61626c65207374616b65000000000000000000000000000000000000000000602082015250565b60006144ae602b83613796565b91506144b982614452565b604082019050919050565b600060208201905081810360008301526144dd816144a1565b9050919050565b60006144ef826134de565b91506144fa836134de565b92508282101561450d5761450c613eec565b5b828203905092915050565b600060808201905081810360008301526145328187613e17565b905061454160208301866138b8565b61454e60408301856141c6565b61455b60608301846138b8565b95945050505050565b7f416c6c6f77616e6365206d757374206265203e3d20696e697469616c2073746160008201527f6b65000000000000000000000000000000000000000000000000000000000000602082015250565b60006145c0602283613796565b91506145cb82614564565b604082019050919050565b600060208201905081810360008301526145ef816145b3565b9050919050565b7f42616c616e6365206d757374206265203e3d20696e697469616c207374616b65600082015250565b600061462c602083613796565b9150614637826145f6565b602082019050919050565b6000602082019050818103600083015261465b8161461f565b9050919050565b600060a0820190506146776000830188613cd7565b6146846020830187613cd7565b81810360408301526146968186613e17565b90506146a560608301856138b8565b6146b260808301846138b8565b9695505050505050565b600060208201905081810360008301526146d68184613e17565b90509291505056fea2646970667358221220b63ad6061c1d69c22e3090090ac0457380f5c14a3d8789f9b9f0fe5a608456ea64736f6c634300080e0033",
  "immutableReferences": {},
  "source": "// SPDX-License-Identifier: MIT\n\npragma solidity ^0.8.0;\n\nimport { Hub } from \"./Hub.sol\";\nimport { IdentityStorage } from \"./storage/IdentityStorage.sol\";\nimport { IERC20 } from \"@openzeppelin/contracts/token/ERC20/IERC20.sol\";\nimport { ParametersStorage } from \"./storage/ParametersStorage.sol\";\nimport { ProfileStorage } from \"./storage/ProfileStorage.sol\";\nimport { ShardingTable } from \"./ShardingTable.sol\";\n\ncontract Profile {\n    event ProfileCreated(\n        uint96 indexed identityId,\n        bytes nodeId\n    );\n    event StakeIncreased(\n        uint96 indexed identityId,\n        bytes nodeId,\n        uint96 stakedAmount,\n        uint96 newStake\n    );\n    event StakeWithdrawalInitiated(\n        uint96 indexed identityId,\n        bytes nodeId,\n        uint96 stakeWithdrawalAmount,\n        uint256 stakeWithdrawalTimestamp,\n        uint96 newStake\n    );\n    event StakeWithdrawn(\n        uint96 indexed identityId,\n        bytes nodeId,\n        uint96 withdrawnStakeAmount\n    );\n    event RewardWithdrawalInitiated(\n        uint96 indexed identityId,\n        bytes nodeId,\n        uint96 rewardWithdrawalAmount,\n        uint256 rewardWithdrawalTimestamp\n    );\n    event RewardWithdrawn(\n        uint96 indexed identityId,\n        bytes nodeId,\n        uint96 withdrawnRewardAmount\n    );\n    event StakeFrozen(\n        uint96 indexed identityId,\n        bytes indexed nodeId,\n        uint96 frozenStakeAmount\n    );\n    event StakeUnfrozen(\n        uint96 indexed identityId,\n        bytes nodeId,\n        uint96 unfrozenStakeAmount\n    );\n\n    Hub public hub;\n\n    constructor(address hubAddress) {\n        require(hubAddress != address(0));\n        hub = Hub(hubAddress);\n    }\n\n    modifier onlyWithAdminKey(uint96 identityId) {\n        IdentityStorage identityStorage = IdentityStorage(hub.getContractAddress(\"IdentityStorage\"));\n\n        require(\n            identityStorage.keyHasPurpose(identityId, keccak256(abi.encodePacked(msg.sender)), 1),\n            \"Function can be called only by identity admin\"\n        );\n        _;\n\t}\n\n    function createProfile(address adminWallet, bytes memory nodeId, uint96 initialAsk, uint96 initialStake)\n        public\n    {\n        IERC20 tokenContract = IERC20(hub.getContractAddress(\"Token\"));\n        address profileStorageAddress = hub.getContractAddress(\"ProfileStorage\");\n\n        require(\n            tokenContract.allowance(msg.sender, address(this)) >= initialStake,\n            \"Allowance must be >= initial stake\"\n        );\n        require(tokenContract.balanceOf(msg.sender) >= initialStake, \"Balance must be >= initial stake\");\n\n        tokenContract.transferFrom(msg.sender, profileStorageAddress, initialStake);\n\n        ProfileStorage profileStorage = ProfileStorage(profileStorageAddress);\n\n        uint96 identityId = profileStorage.createProfile(\n            msg.sender,\n            adminWallet,\n            nodeId,\n            initialAsk,\n            initialStake\n        );\n       \n        ParametersStorage parametersStorage = ParametersStorage(hub.getContractAddress(\"ParametersStorage\"));\n        if (initialStake >= parametersStorage.minimalStake()) {\n            ShardingTable shardingTable = ShardingTable(hub.getContractAddress(\"ShardingTable\"));\n            shardingTable.pushBack(identityId);\n        }\n\n        emit ProfileCreated(identityId, nodeId);\n    }\n\n    function increaseStake(uint96 identityId, uint96 amount)\n        public\n        onlyWithAdminKey(identityId)\n    {\n        IERC20 tokenContract = IERC20(hub.getContractAddress(\"Token\"));\n        address profileStorageAddress = hub.getContractAddress(\"ProfileStorage\");\n\n        require(tokenContract.allowance(msg.sender, address(this)) >= amount, \"Allowance must be >= chosen amount\");\n        require(tokenContract.balanceOf(msg.sender) >= amount, \"Balance must be >= chosen amount\");\n\n        ProfileStorage profileStorage = ProfileStorage(profileStorageAddress);\n\n        uint96 oldStake = profileStorage.getStake(identityId);\n        uint96 newStake = oldStake + amount;\n        profileStorage.setStake(identityId, newStake);\n\n        tokenContract.transferFrom(msg.sender, profileStorageAddress, amount);\n\n        ParametersStorage parametersStorage = ParametersStorage(hub.getContractAddress(\"ParametersStorage\"));\n\n        if (oldStake < parametersStorage.minimalStake() && newStake >= parametersStorage.minimalStake()) {\n            ShardingTable shardingTable = ShardingTable(hub.getContractAddress(\"ShardingTable\"));\n            shardingTable.pushBack(identityId);\n        }\n\n        emit StakeIncreased(\n            identityId,\n            profileStorage.getNodeId(identityId),\n            amount,\n            newStake\n        );\n    }\n\n    function startStakeWithdrawal(uint96 identityId, uint96 amount)\n        public\n        onlyWithAdminKey(identityId)\n    {\n        ProfileStorage profileStorage = ProfileStorage(hub.getContractAddress(\"ProfileStorage\"));\n\n        require(amount <= profileStorage.getStake(identityId), \"Amount can't be bigger than available stake\");\n\n        uint96 oldStake = profileStorage.getStake(identityId);\n        uint96 newStake = oldStake - amount;\n        uint96 newStakeWithdrawalAmount = profileStorage.getStakeWithdrawalAmount(identityId) + amount;\n\n        ParametersStorage parametersStorage = ParametersStorage(hub.getContractAddress(\"ParametersStorage\"));\n\n        profileStorage.setStake(identityId, newStake);\n        profileStorage.setStakeWithdrawalAmount(identityId, newStakeWithdrawalAmount);\n        uint256 stakeWithdrawalTimestamp = block.timestamp + parametersStorage.stakeWithdrawalDelay();\n        profileStorage.setStakeWithdrawalTimestamp(identityId, stakeWithdrawalTimestamp);\n\n        if (oldStake >= parametersStorage.minimalStake() && newStake < parametersStorage.minimalStake()) {\n            ShardingTable shardingTable = ShardingTable(hub.getContractAddress(\"ShardingTable\"));\n            shardingTable.removeNode(identityId);\n        }\n\n        emit StakeWithdrawalInitiated(\n            identityId,\n            profileStorage.getNodeId(identityId),\n            newStakeWithdrawalAmount,\n            stakeWithdrawalTimestamp,\n            newStake\n        );\n    }\n\n    function withdrawFreeStake(uint96 identityId)\n        public\n        onlyWithAdminKey(identityId)\n    {\n        ProfileStorage profileStorage = ProfileStorage(hub.getContractAddress(\"ProfileStorage\"));\n\n        uint96 stakeWithdrawalAmount = profileStorage.getStakeWithdrawalAmount(identityId);\n\n        require(stakeWithdrawalAmount > 0, \"Withdrawal hasn't been initiated\");\n        require(\n            profileStorage.getStakeWithdrawalTimestamp(identityId) < block.timestamp,\n            \"Withdrawal period hasn't ended yet\"\n        );\n\n        profileStorage.transferTokens(msg.sender, stakeWithdrawalAmount);\n\n        profileStorage.setStakeWithdrawalAmount(identityId, 0);\n\n        emit StakeWithdrawn(\n            identityId,\n            profileStorage.getNodeId(identityId),\n            stakeWithdrawalAmount\n        );\n    }\n\n    function stakeReward(uint96 identityId)\n        public\n        onlyWithAdminKey(identityId)\n    {\n        ProfileStorage profileStorage = ProfileStorage(hub.getContractAddress(\"ProfileStorage\"));\n\n        uint96 rewardAmount = profileStorage.getReward(identityId);\n        require(rewardAmount > 0, \"You have no reward\");\n\n        uint96 oldStake = profileStorage.getStake(identityId);\n        uint96 newStake = oldStake + rewardAmount;\n\n        profileStorage.setReward(identityId, 0);\n        profileStorage.setStake(identityId, newStake);\n\n        ParametersStorage parametersStorage = ParametersStorage(hub.getContractAddress(\"ParametersStorage\"));\n\n        if (oldStake < parametersStorage.minimalStake() && newStake >= parametersStorage.minimalStake()) {\n            ShardingTable shardingTable = ShardingTable(hub.getContractAddress(\"ShardingTable\"));\n            shardingTable.pushBack(identityId);\n        }\n\n        emit StakeIncreased(\n            identityId,\n            profileStorage.getNodeId(identityId),\n            rewardAmount,\n            newStake\n        );\n    }\n\n    function startRewardWithdrawal(uint96 identityId)\n        public\n        onlyWithAdminKey(identityId)\n    {\n        ProfileStorage profileStorage = ProfileStorage(hub.getContractAddress(\"ProfileStorage\"));\n\n        uint96 reward = profileStorage.getReward(identityId);\n\n        require(reward > 0, \"No reward to withdraw\");\n\n        ParametersStorage parametersStorage = ParametersStorage(hub.getContractAddress(\"ParametersStorage\"));\n\n        profileStorage.setReward(identityId, 0);\n        profileStorage.setRewardWithdrawalAmount(\n            identityId,\n            profileStorage.getRewardWithdrawalAmount(identityId) + reward\n        );\n        uint256 rewardWithdrawalTimestamp = block.timestamp + parametersStorage.rewardWithdrawalDelay();\n        profileStorage.setRewardWithdrawalTimestamp(identityId, rewardWithdrawalTimestamp);\n\n        emit RewardWithdrawalInitiated(\n            identityId,\n            profileStorage.getNodeId(identityId),\n            reward,\n            rewardWithdrawalTimestamp\n        );\n    }\n\n    function withdrawFreeReward(uint96 identityId)\n        public\n        onlyWithAdminKey(identityId)\n    {\n        ProfileStorage profileStorage = ProfileStorage(hub.getContractAddress(\"ProfileStorage\"));\n\n        uint96 rewardWithdrawalAmount = profileStorage.getRewardWithdrawalAmount(identityId);\n\n        require(rewardWithdrawalAmount > 0, \"Withdrawal hasn't been initiated\");\n        require(\n            profileStorage.getRewardWithdrawalTimestamp(identityId) < block.timestamp,\n            \"Withdrawal period hasn't ended yet\"\n        );\n\n        profileStorage.setRewardWithdrawalAmount(identityId, 0);\n        profileStorage.transferTokens(msg.sender, rewardWithdrawalAmount);\n\n        emit RewardWithdrawn(\n            identityId,\n            profileStorage.getNodeId(identityId),\n            rewardWithdrawalAmount\n        );\n    }\n\n    // function freezeStake(uint8 percentage)\n    //     public\n    // {\n    //     emit StakeFrozen(identityId, frozenStakeAmount);\n    // }\n\n    // function unfreezeStake()\n    //     public\n    // {\n    //     emit StakeUnfrozen(identityId, unfrozenStakeAmount);\n    // }\n}\n",
  "sourcePath": "/Users/waving/Desktop/OriginTrail/dkg-evm-module/contracts/Profile.sol",
  "compiler": {
    "name": "solc",
    "version": "0.8.14+commit.80d49f37.Emscripten.clang"
  },
  "schemaVersion": "3.4.10",
  "updatedAt": "2022-11-17T12:48:33.169Z",
  "devdoc": {
    "kind": "dev",
    "methods": {},
    "version": 1
  },
  "userdoc": {
    "kind": "user",
    "methods": {},
    "version": 1
  }
}