{
  "contractName": "ProfileStorage",
  "abi": [
    {
      "inputs": [
        {
          "internalType": "address",
          "name": "hubAddress",
          "type": "address"
        }
      ],
      "stateMutability": "nonpayable",
      "type": "constructor"
    },
    {
      "anonymous": false,
      "inputs": [
        {
          "indexed": true,
          "internalType": "address",
          "name": "custodian",
          "type": "address"
        },
        {
          "indexed": false,
          "internalType": "uint256",
          "name": "amount",
          "type": "uint256"
        }
      ],
      "name": "MisplacedOTPWithdrawn",
      "type": "event"
    },
    {
      "anonymous": false,
      "inputs": [
        {
          "indexed": true,
          "internalType": "address",
          "name": "custodian",
          "type": "address"
        },
        {
          "indexed": false,
          "internalType": "address",
          "name": "tokenContract",
          "type": "address"
        },
        {
          "indexed": false,
          "internalType": "uint256",
          "name": "amount",
          "type": "uint256"
        }
      ],
      "name": "MisplacedTokensWithdrawn",
      "type": "event"
    },
    {
      "anonymous": false,
      "inputs": [
        {
          "indexed": true,
          "internalType": "address",
          "name": "custodian",
          "type": "address"
        },
        {
          "indexed": false,
          "internalType": "uint256",
          "name": "amount",
          "type": "uint256"
        }
      ],
      "name": "TokenTransferred",
      "type": "event"
    },
    {
      "inputs": [],
      "name": "hub",
      "outputs": [
        {
          "internalType": "contract Hub",
          "name": "",
          "type": "address"
        }
      ],
      "stateMutability": "view",
      "type": "function"
    },
    {
      "inputs": [],
      "name": "initialize",
      "outputs": [],
      "stateMutability": "nonpayable",
      "type": "function"
    },
    {
      "inputs": [
        {
          "internalType": "bytes",
          "name": "",
          "type": "bytes"
        }
      ],
      "name": "nodeIdsList",
      "outputs": [
        {
          "internalType": "bool",
          "name": "",
          "type": "bool"
        }
      ],
      "stateMutability": "view",
      "type": "function"
    },
    {
      "inputs": [
        {
          "internalType": "string",
          "name": "",
          "type": "string"
        }
      ],
      "name": "sharesNames",
      "outputs": [
        {
          "internalType": "bool",
          "name": "",
          "type": "bool"
        }
      ],
      "stateMutability": "view",
      "type": "function"
    },
    {
      "inputs": [
        {
          "internalType": "string",
          "name": "",
          "type": "string"
        }
      ],
      "name": "sharesSymbols",
      "outputs": [
        {
          "internalType": "bool",
          "name": "",
          "type": "bool"
        }
      ],
      "stateMutability": "view",
      "type": "function"
    },
    {
      "inputs": [],
      "name": "tokenContract",
      "outputs": [
        {
          "internalType": "contract IERC20",
          "name": "",
          "type": "address"
        }
      ],
      "stateMutability": "view",
      "type": "function"
    },
    {
      "inputs": [],
      "name": "withdrawMisplacedOTP",
      "outputs": [],
      "stateMutability": "nonpayable",
      "type": "function"
    },
    {
      "inputs": [
        {
          "internalType": "address",
          "name": "tokenContractAddress",
          "type": "address"
        }
      ],
      "name": "withdrawMisplacedTokens",
      "outputs": [],
      "stateMutability": "nonpayable",
      "type": "function"
    },
    {
      "inputs": [],
      "name": "name",
      "outputs": [
        {
          "internalType": "string",
          "name": "",
          "type": "string"
        }
      ],
      "stateMutability": "pure",
      "type": "function"
    },
    {
      "inputs": [],
      "name": "version",
      "outputs": [
        {
          "internalType": "string",
          "name": "",
          "type": "string"
        }
      ],
      "stateMutability": "pure",
      "type": "function"
    },
    {
      "inputs": [
        {
          "internalType": "uint72",
          "name": "identityId",
          "type": "uint72"
        },
        {
          "internalType": "bytes",
          "name": "nodeId",
          "type": "bytes"
        },
        {
          "internalType": "address",
          "name": "sharesContractAddress",
          "type": "address"
        }
      ],
      "name": "createProfile",
      "outputs": [],
      "stateMutability": "nonpayable",
      "type": "function"
    },
    {
      "inputs": [
        {
          "internalType": "uint72",
          "name": "identityId",
          "type": "uint72"
        }
      ],
      "name": "getProfile",
      "outputs": [
        {
          "internalType": "bytes",
          "name": "",
          "type": "bytes"
        },
        {
          "internalType": "uint96[2]",
          "name": "",
          "type": "uint96[2]"
        },
        {
          "internalType": "address",
          "name": "",
          "type": "address"
        }
      ],
      "stateMutability": "view",
      "type": "function"
    },
    {
      "inputs": [
        {
          "internalType": "uint72",
          "name": "identityId",
          "type": "uint72"
        }
      ],
      "name": "deleteProfile",
      "outputs": [],
      "stateMutability": "nonpayable",
      "type": "function"
    },
    {
      "inputs": [
        {
          "internalType": "uint72",
          "name": "identityId",
          "type": "uint72"
        }
      ],
      "name": "getNodeId",
      "outputs": [
        {
          "internalType": "bytes",
          "name": "",
          "type": "bytes"
        }
      ],
      "stateMutability": "view",
      "type": "function"
    },
    {
      "inputs": [
        {
          "internalType": "uint72",
          "name": "identityId",
          "type": "uint72"
        },
        {
          "internalType": "bytes",
          "name": "nodeId",
          "type": "bytes"
        }
      ],
      "name": "setNodeId",
      "outputs": [],
      "stateMutability": "nonpayable",
      "type": "function"
    },
    {
      "inputs": [
        {
          "internalType": "uint72",
          "name": "identityId",
          "type": "uint72"
        }
      ],
      "name": "getAsk",
      "outputs": [
        {
          "internalType": "uint96",
          "name": "",
          "type": "uint96"
        }
      ],
      "stateMutability": "view",
      "type": "function"
    },
    {
      "inputs": [
        {
          "internalType": "uint72",
          "name": "identityId",
          "type": "uint72"
        },
        {
          "internalType": "uint96",
          "name": "ask",
          "type": "uint96"
        }
      ],
      "name": "setAsk",
      "outputs": [],
      "stateMutability": "nonpayable",
      "type": "function"
    },
    {
      "inputs": [
        {
          "internalType": "uint72",
          "name": "identityId",
          "type": "uint72"
        }
      ],
      "name": "getAccumulatedOperatorFee",
      "outputs": [
        {
          "internalType": "uint96",
          "name": "",
          "type": "uint96"
        }
      ],
      "stateMutability": "view",
      "type": "function"
    },
    {
      "inputs": [
        {
          "internalType": "uint72",
          "name": "identityId",
          "type": "uint72"
        },
        {
          "internalType": "uint96",
          "name": "newOperatorFeeAmount",
          "type": "uint96"
        }
      ],
      "name": "setAccumulatedOperatorFee",
      "outputs": [],
      "stateMutability": "nonpayable",
      "type": "function"
    },
    {
      "inputs": [
        {
          "internalType": "uint72",
          "name": "identityId",
          "type": "uint72"
        }
      ],
      "name": "getAccumulatedOperatorFeeWithdrawalAmount",
      "outputs": [
        {
          "internalType": "uint96",
          "name": "",
          "type": "uint96"
        }
      ],
      "stateMutability": "view",
      "type": "function"
    },
    {
      "inputs": [
        {
          "internalType": "uint72",
          "name": "identityId",
          "type": "uint72"
        },
        {
          "internalType": "uint96",
          "name": "accumulatedOperatorFeeWithdrawalAmount",
          "type": "uint96"
        }
      ],
      "name": "setAccumulatedOperatorFeeWithdrawalAmount",
      "outputs": [],
      "stateMutability": "nonpayable",
      "type": "function"
    },
    {
      "inputs": [
        {
          "internalType": "uint72",
          "name": "identityId",
          "type": "uint72"
        }
      ],
      "name": "getAccumulatedOperatorFeeWithdrawalTimestamp",
      "outputs": [
        {
          "internalType": "uint256",
          "name": "",
          "type": "uint256"
        }
      ],
      "stateMutability": "view",
      "type": "function"
    },
    {
      "inputs": [
        {
          "internalType": "uint72",
          "name": "identityId",
          "type": "uint72"
        },
        {
          "internalType": "uint256",
          "name": "operatorFeeWithdrawalTimestamp",
          "type": "uint256"
        }
      ],
      "name": "setAccumulatedOperatorFeeWithdrawalTimestamp",
      "outputs": [],
      "stateMutability": "nonpayable",
      "type": "function"
    },
    {
      "inputs": [
        {
          "internalType": "uint72",
          "name": "identityId",
          "type": "uint72"
        }
      ],
      "name": "getSharesContractAddress",
      "outputs": [
        {
          "internalType": "address",
          "name": "",
          "type": "address"
        }
      ],
      "stateMutability": "view",
      "type": "function"
    },
    {
      "inputs": [
        {
          "internalType": "uint72",
          "name": "identityId",
          "type": "uint72"
        },
        {
          "internalType": "address",
          "name": "sharesContractAddress",
          "type": "address"
        }
      ],
      "name": "setSharesContractAddress",
      "outputs": [],
      "stateMutability": "nonpayable",
      "type": "function"
    },
    {
      "inputs": [
        {
          "internalType": "uint72",
          "name": "identityId",
          "type": "uint72"
        },
        {
          "internalType": "uint8",
          "name": "hashFunctionId",
          "type": "uint8"
        }
      ],
      "name": "getNodeAddress",
      "outputs": [
        {
          "internalType": "bytes32",
          "name": "",
          "type": "bytes32"
        }
      ],
      "stateMutability": "view",
      "type": "function"
    },
    {
      "inputs": [
        {
          "internalType": "uint72",
          "name": "identityId",
          "type": "uint72"
        },
        {
          "internalType": "uint8",
          "name": "hashFunctionId",
          "type": "uint8"
        },
        {
          "internalType": "bytes32",
          "name": "nodeAddress",
          "type": "bytes32"
        }
      ],
      "name": "setNodeAddress",
      "outputs": [],
      "stateMutability": "nonpayable",
      "type": "function"
    },
    {
      "inputs": [
        {
          "internalType": "uint72",
          "name": "identityId",
          "type": "uint72"
        }
      ],
      "name": "profileExists",
      "outputs": [
        {
          "internalType": "bool",
          "name": "",
          "type": "bool"
        }
      ],
      "stateMutability": "view",
      "type": "function"
    },
    {
      "inputs": [
        {
          "internalType": "address payable",
          "name": "custodian",
          "type": "address"
        }
      ],
      "name": "transferTokens",
      "outputs": [],
      "stateMutability": "nonpayable",
      "type": "function"
    },
    {
      "inputs": [
        {
          "internalType": "address",
          "name": "receiver",
          "type": "address"
        },
        {
          "internalType": "uint96",
          "name": "amount",
          "type": "uint96"
        }
      ],
      "name": "transferTokens",
      "outputs": [],
      "stateMutability": "nonpayable",
      "type": "function"
    }
  ],
  "bytecode": "0x608060409080825234620001985762001cfb80380380916200002282856200019d565b83396001600160a01b039182916200003e9190810190620001d7565b169081156200019857600080546001600160a01b0319908116841782558451638da5cb5b60e01b815290936020918281600481855afa9081156200018e5790859185916200016c575b501633036200012a579080606492875193848092630110ceef60e21b825284600483015260056024830152642a37b5b2b760d91b60448301525afa9283156200011f5792620000eb575b50501690600154161760015551611b029081620001f98239f35b6200010f9250803d1062000117575b6200010681836200019d565b810190620001d7565b3880620000d1565b503d620000fa565b8651903d90823e3d90fd5b60648287519062461bcd60e51b825280600483015260248201527f466e2063616e206f6e6c79206265207573656420627920687562206f776e65726044820152fd5b620001879150843d861162000117576200010681836200019d565b3862000087565b87513d86823e3d90fd5b600080fd5b601f909101601f19168101906001600160401b03821190821017620001c157604052565b634e487b7160e01b600052604160045260246000fd5b908160209103126200019857516001600160a01b038116810362000198579056fe608060408181526004918236101561001657600080fd5b600092833560e01c91826306fdde0314611549575081630c89a0df1461115b5781631913cd551461112257816322bd9e8114610f9e578163365a86fc14610f76578382633718ac5914610ebd5750816339fb67dd14610e8c57816341c10b9a14610e4057816354fd4d5014610df757816355a373d614610dce57816356abe18414610d8f5781636ce1510e14610ccf5781638129fc1c14610c08578163947bb61514610ba75781639d7937b2146109b0578163abe979e114610902578163b014809f1461089c578163b8561a5414610857578163b89bba061461080a578163c04d7dcf1461078b578163c12b4c7614610745578163cbb12bed14610701578163d0ea3fee1461068c578163d184a8691461062f578163dc827de914610396578163e410c0d614610356578163e49f999b1461026657508063e6c79da514610224578063eb2145e3146101c85763efe0aa2d1461017157600080fd5b346101c45760603660031901126101c45761018a6115df565b6001600160481b0361019a6116fb565b916101a3611a27565b168352600360205260ff600583852001911683526020526044358183205551f35b5080fd5b50346101c457806003193601126101c4576101e16115df565b6001600160481b036101f16116e5565b916101fa611a27565b16835260036020526001600160601b0360028385200191166001600160601b031982541617905551f35b50346101c45760203660031901126101c4576001600160601b036002826020946001600160481b036102546115df565b16815260038652200154169051908152f35b905034610352576020908160031936011261034e576001600160481b0361028b6115df565b84805161029781611628565b369037168452600382528284209083519284840184811067ffffffffffffffff82111761033b57859694965260019561030b6102fa88860154946001600160601b038681809816865260601c168585015260018060a01b039087015416956118ee565b9651966080885260808801906115ba565b94908683015b60028310610326578780888860608301520390f35b81518516815291880191908301908301610311565b634e487b7160e01b875260418352602487fd5b8380fd5b8280fd5b5050346101c45760209060ff6103818361036f3661170b565b81855193828580945193849201611597565b81016005815203019020541690519015158152f35b905034610352576060366003190112610352576103b16115df565b9067ffffffffffffffff9060243582811161062b576103d390369083016115fa565b906044359460018060a01b038616809603610627576001600160481b03906103f9611a27565b1687526020936003855286882090831161061457879291848261041d88945461183e565b601f81116105db575b5085601f86116001146105775786908661056c575b508560011b906000198760031b1c19161781555b0180546001600160a01b03191688179055875192839181908337810160028152030190209360ff199460018682541617905585516306fdde0360e01b815282818581855afa908115610562576104bb9186918591610548575b5081895193828580945193849201611597565b81018681520301902080548616600117905585516395d89b4160e01b815292839182905afa91821561053e5760019261050892879161051c575b5081865193828580945193849201611597565b810160058152030190209182541617905551f35b61053891503d8089833e610530818361165a565b81019061188f565b386104f5565b84513d87823e3d90fd5b61055c91503d8087833e610530818361165a565b386104a8565b87513d85823e3d90fd5b90508301353861043b565b81875284872090601f198716885b8181106105bd575087116105a3575b5050600185811b01815561044f565b840135600019600388901b60f8161c191690553880610594565b8287013584558e99508b978b96506001909401939283019201610585565b61060490828852858820601f880160051c81019187891061060a575b601f0160051c0190611878565b38610426565b90915081906105f7565b634e487b7160e01b885260418452602488fd5b8780fd5b8580fd5b5050346101c457806003193601126101c4576106496115df565b6001600160481b036106596116e5565b91610662611a27565b16835260036020526001600160601b0360018385200191166001600160601b031982541617905551f35b5050346101c457806003193601126101c4576106a66115df565b6001600160481b036106b66116e5565b916106bf611a27565b168352600360205281832060010180546bffffffffffffffffffffffff60601b191660609290921b6bffffffffffffffffffffffff60601b1691909117905551f35b828434610742575060ff61072e6020809461071b3661170b565b9082865194838680955193849201611597565b820190815203019020541690519015158152f35b80fd5b5050346101c45760203660031901126101c4576001600160601b036001826020946001600160481b036107766115df565b1681526003865220015460601c169051908152f35b828434610742576020366003190112610742576001600160481b036107ae6115df565b16815260036020526107c18282206118ee565b60208151910120908251602081019080821067ffffffffffffffff8311176107f757602095508290828652522014159051908152f35b634e487b7160e01b835260418652602483fd5b5050346101c457806003193601126101c457806020926108286115df565b6001600160481b036108386116fb565b911682526003855260ff60058484200191168252845220549051908152f35b90503461035257602036600319011261035257916020926001600160481b0361087e6115df565b1682526003845290829020015490516001600160a01b039091168152f35b9050346103525781600319360112610352576108b66115df565b6024356001600160a01b0381169291908390036108fe576001600160481b03906108de611a27565b16845260036020528284200180546001600160a01b031916909117905551f35b8480fd5b905034610352578160031936011261035257602061091e6116cf565b60446109286116e5565b91610931611a27565b600154865163a9059cbb60e01b81526001600160a01b03928316968101969096526001600160601b039093166024860152849283918891165af180156109a457610979575051f35b6109999060203d811161099d575b610991818361165a565b81019061175e565b5051f35b503d610987565b505051903d90823e3d90fd5b9050346103525760208060031936011261034e576109cc6116cf565b916109d5611776565b6001546001600160a01b038481169391168314610b4d5784516370a0823160e01b81523083820152928184602481845afa938415610b10578794610b1a575b5083610a5e575b505083516001600160a01b0393909316835250602082015233907f5fe8cbe5f97c59a4b590a924c3fc62aac6b6a653ec22e39f5fc6d3732f18c25490604090a251f35b855163a9059cbb60e01b815233848201908152602081018690529091839183919082908b90829060400103925af1908115610b10578791610af3575b5015610aa65780610a1b565b845162461bcd60e51b815291820152602260248201527f546f6b656e207472616e73616374696f6e20657865637574696f6e206661696c604482015261195960f21b606482015260849150fd5b610b0a9150823d841161099d57610991818361165a565b38610a9a565b86513d89823e3d90fd5b9093508181813d8311610b46575b610b32818361165a565b81010312610b4257519238610a14565b8680fd5b503d610b28565b845162461bcd60e51b815291820152602f60248201527f43616e6e6f742075736520746869732066756e6374696f6e207769746820746860448201526e194815149050c818dbdb9d1c9858dd608a1b606482015260849150fd5b8284346107425760203660031901126107425782359067ffffffffffffffff821161074257366023830112156107425750610bf3602061036f819584602460ff96369301359101611698565b81016002815203019020541690519015158152f35b905034610352578260031936011261035257610c22611776565b82548251630110ceef60e21b8152602092810183905260056024820152642a37b5b2b760d91b60448201526001600160a01b039290918290606490829086165afa908115610cc2578491610c89575b50166001600160601b0360a01b600154161760015551f35b90506020813d8211610cba575b81610ca36020938361165a565b8101031261034e57610cb49061174a565b38610c71565b3d9150610c96565b50505051903d90823e3d90fd5b905034610352578260031936011261035257610ce9611776565b479081610d20575b5081519081527fd32ec2b96f6389848e3f68f670160bf5a50b5024b6f62a61108f20025179a29160203392a251f35b838080855185335af13d15610d8a573d610d398161167c565b90610d468651928361165a565b81528560203d92013e5b610cf157606490602084519162461bcd60e51b8352820152601060248201526f2a3930b739b332b9103330b4b632b21760811b6044820152fd5b610d50565b5050346101c457806003193601126101c4576001600160481b03610db16115df565b610db9611a27565b16825260036020526024356003828420015551f35b5050346101c457816003193601126101c45760015490516001600160a01b039091168152602090f35b5050346101c457816003193601126101c4578051610e3c91610e1882611628565b60058252640312e302e360dc1b6020830152519182916020835260208301906115ba565b0390f35b5050346101c45760203660031901126101c457610e7981610e3c936001600160481b03610e6b6115df565b1681526003602052206118ee565b90519182916020835260208301906115ba565b5050346101c45760203660031901126101c4576001600160601b036001826020946001600160481b036102546115df565b9150346101c45760203660031901126101c4576001600160481b03610ee06115df565b610ee8611a27565b168083526003602052610efc848420611994565b60ff19815416905582526003602052828220610f18815461183e565b80610f36575b50826001820155826002820155826003820155015551f35b601f8111600114610f4c57508281555b38610f1e565b81845260208420610f6891601f0160051c810190600101611878565b826020812081835555610f46565b5050346101c457816003193601126101c457905490516001600160a01b039091168152602090f35b8383346101c457806003193601126101c457610fb86115df565b67ffffffffffffffff906024358281116108fe5790610fe26001600160481b0392369088016115fa565b929091610fed611a27565b168552602090600382528486209661100488611994565b9460ff1995868154169055841161110f5750611020875461183e565b601f81116110e1575b508596601f841160011461107f57838798600196979891611074575b50600019600386901b1c191684861b1790555b8286519384928337810160028152030190209182541617905551f35b905082013589611045565b808752828720601f19851698885b8a81106110ca57508560019798999a106110b0575b50508484811b019055611058565b830135600019600387901b60f8161c1916905588806110a2565b90918560018192858801358155019301910161108d565b61110990888852838820601f860160051c81019185871061060a57601f0160051c0190611878565b87611029565b634e487b7160e01b875260419052602486fd5b5050346101c45760203660031901126101c4576003816020936001600160481b0361114b6115df565b1681528285522001549051908152f35b9050346103525760208060031936011261034e5781356001600160a01b038181169391848103610b425761118d611776565b84156114fb573b1561149357845163a0e67e2b60e01b8152869081818581895afa8891816113da575b50611361575b50156112f95760015416908585516370a0823160e01b815230838201528481602481875afa9384156112ef57859183956112be575b50604488518094819363a9059cbb60e01b83528a888401528860248401525af1908115610b105787916112a1575b50156112525750907fefed6b8d78a916dbd402a323824ae4454c9214b8f3d05fa85b3bb7f30dc25c06918451908152a251f35b845162461bcd60e51b8152908101839052602360248201527f546f6b656e207472616e73616374696f6e20657865637574696f6e206661696c60448201526265642160e81b6064820152608490fd5b6112b89150843d861161099d57610991818361165a565b3861121f565b8281939296503d83116112e8575b6112d6818361165a565b810103126101c45784905193386111f1565b503d6112cc565b87513d84823e3d90fd5b5060849184519162461bcd60e51b8352820152603f60248201527f43616e6e6f74207472616e7366657220746f6b656e7320746f20637573746f6460448201527f69616e20776974686f7574206765744f776e6572732066756e6374696f6e21006064820152fd5b51600191501561137157386111bc565b855162461bcd60e51b8152808401859052603b60248201527f43616e6e6f74207472616e7366657220746f6b656e7320746f20637573746f6460448201527f69616e20776974686f7574206f776e65727320646566696e65642100000000006064820152608490fd5b9091503d808a833e6113ec818361165a565b8101868282031261148f57815167ffffffffffffffff92838211611474570181601f8201121561148b578051928311611478578260051b908a51936114338a84018661165a565b845288808501928201019283116114745788809101915b83831061145c575050505090386111b6565b81906114678461174a565b815201910190889061144a565b8b80fd5b634e487b7160e01b8b526041875260248bfd5b8a80fd5b8980fd5b5060849184519162461bcd60e51b8352820152603b60248201527f43616e6e6f74207472616e7366657220746f6b656e7320746f20637573746f6460448201527f69616e2074686174206973206e6f74206120636f6e74726163742100000000006064820152fd5b855162461bcd60e51b8152808401859052602260248201527f437573746f6469616e2063616e6e6f742062652061207a65726f206164647265604482015261737360f01b6064820152608490fd5b84908434610352578260031936011261035257610e3c925061156a82611628565b600e82526d50726f66696c6553746f7261676560901b6020830152519182916020835260208301906115ba565b60005b8381106115aa5750506000910152565b818101518382015260200161159a565b906020916115d381518092818552858086019101611597565b601f01601f1916010190565b600435906001600160481b03821682036115f557565b600080fd5b9181601f840112156115f55782359167ffffffffffffffff83116115f557602083818601950101116115f557565b6040810190811067ffffffffffffffff82111761164457604052565b634e487b7160e01b600052604160045260246000fd5b90601f8019910116810190811067ffffffffffffffff82111761164457604052565b67ffffffffffffffff811161164457601f01601f191660200190565b9291926116a48261167c565b916116b2604051938461165a565b8294818452818301116115f5578281602093846000960137010152565b600435906001600160a01b03821682036115f557565b602435906001600160601b03821682036115f557565b6024359060ff821682036115f557565b60206003198201126115f5576004359067ffffffffffffffff82116115f557806023830112156115f55781602461174793600401359101611698565b90565b51906001600160a01b03821682036115f557565b908160209103126115f5575180151581036115f55790565b600054604051638da5cb5b60e01b81526020916001600160a01b03919083908290600490829086165afa908115611832576000916117fd575b501633036117ba5750565b6064906040519062461bcd60e51b825280600483015260248201527f466e2063616e206f6e6c79206265207573656420627920687562206f776e65726044820152fd5b908382813d831161182b575b611813818361165a565b8101031261074257506118259061174a565b386117af565b503d611809565b6040513d6000823e3d90fd5b90600182811c9216801561186e575b602083101461185857565b634e487b7160e01b600052602260045260246000fd5b91607f169161184d565b818110611883575050565b60008155600101611878565b6020818303126115f55780519067ffffffffffffffff82116115f5570181601f820112156115f55780516118c28161167c565b926118d0604051948561165a565b818452602082840101116115f5576117479160208085019101611597565b90604051918260008254926119028461183e565b908184526001948581169081600014611971575060011461192e575b505061192c9250038361165a565b565b9093915060005260209081600020936000915b81831061195957505061192c9350820101388061191e565b85548884018501529485019487945091830191611941565b91505061192c94506020925060ff191682840152151560051b820101388061191e565b6040519081600082546119a68161183e565b93600191808316908115611a0b57506001146119ce575b505060209250600281520301902090565b90915060005260209081600020906000915b8583106119f75750505050602091810138806119bd565b8054878401528694509183019181016119e0565b92505050602093915060ff1916825280151502810138806119bd565b600054604051631627905560e01b815233600482015290602090829060249082906001600160a01b03165afa90811561183257600091611aae575b5015611a6a57565b606460405162461bcd60e51b815260206004820152602060248201527f466e2063616e206f6e6c792062652063616c6c656420627920746865206875626044820152fd5b611ac6915060203d811161099d57610991818361165a565b38611a6256fea264697066735822122089810aae879533f1e11b920717051b7dc261149092728f76afcb6cdc898419ec64736f6c63430008100033",
  "immutableReferences": {},
  "source": "// SPDX-License-Identifier: MIT\n\npragma solidity ^0.8.4;\n\nimport { Guardian } from \"../Guardian.sol\";\nimport { Shares } from \"../Shares.sol\";\nimport { Named } from \"../interface/Named.sol\";\nimport { Versioned } from \"../interface/Versioned.sol\";\n\ncontract ProfileStorage is Named, Versioned, Guardian {\n\n    string constant private _NAME = \"ProfileStorage\";\n    string constant private _VERSION = \"1.0.0\";\n\n    struct ProfileDefinition{\n        bytes nodeId;\n        uint96 ask;\n        uint96 accumulatedOperatorFee;\n        uint96 accumulatedOperatorFeeWithdrawalAmount;\n        uint256 operatorFeeWithdrawalTimestamp;\n        address sharesContractAddress;\n        mapping(uint8 => bytes32) nodeAddresses;\n    }\n\n    // nodeId => isRegistered?\n    mapping(bytes => bool) public nodeIdsList;\n    // identityId => Profile\n    mapping(uint72 => ProfileDefinition) profiles;\n\n    // shares token name => isTaken?\n    mapping(string => bool) public sharesNames;\n    // shares token ID => isTaken?\n    mapping(string => bool) public sharesSymbols;\n\n    constructor(address hubAddress) Guardian(hubAddress) {}\n\n    modifier onlyContracts() {\n        _checkHub();\n        _;\n    }\n\n    function name() external pure virtual override returns (string memory) {\n        return _NAME;\n    }\n\n    function version() external pure virtual override returns (string memory) {\n        return _VERSION;\n    }\n\n    function createProfile(uint72 identityId, bytes calldata nodeId, address sharesContractAddress)\n        external\n        onlyContracts\n    {\n        ProfileDefinition storage profile = profiles[identityId];\n        profile.nodeId = nodeId;\n        profile.sharesContractAddress = sharesContractAddress;\n\n        nodeIdsList[nodeId] = true;\n\n        Shares sharesContract = Shares(sharesContractAddress);\n        sharesNames[sharesContract.name()] = true;\n        sharesSymbols[sharesContract.symbol()] = true;\n    }\n\n    function getProfile(uint72 identityId) external view returns (bytes memory, uint96[2] memory, address) {\n        ProfileDefinition storage profile = profiles[identityId];\n        return (profile.nodeId, [profile.ask, profile.accumulatedOperatorFee], profile.sharesContractAddress);\n    }\n\n    function deleteProfile(uint72 identityId) external onlyContracts {\n        nodeIdsList[profiles[identityId].nodeId] = false;\n        delete profiles[identityId];\n    }\n\n    function getNodeId(uint72 identityId) external view returns (bytes memory) {\n        return profiles[identityId].nodeId;\n    }\n\n    function setNodeId(uint72 identityId, bytes calldata nodeId) external onlyContracts {\n        ProfileDefinition storage profile = profiles[identityId];\n\n        nodeIdsList[profile.nodeId] = false;\n        profile.nodeId = nodeId;\n        nodeIdsList[nodeId] = true;\n    }\n\n    function getAsk(uint72 identityId) external view returns (uint96) {\n        return profiles[identityId].ask;\n    }\n\n    function setAsk(uint72 identityId, uint96 ask) external onlyContracts {\n        profiles[identityId].ask = ask;\n    }\n\n    function getAccumulatedOperatorFee(uint72 identityId) external view returns (uint96) {\n        return profiles[identityId].accumulatedOperatorFee;\n    }\n\n    function setAccumulatedOperatorFee(uint72 identityId, uint96 newOperatorFeeAmount) external onlyContracts {\n        profiles[identityId].accumulatedOperatorFee = newOperatorFeeAmount;\n    }\n\n    function getAccumulatedOperatorFeeWithdrawalAmount(uint72 identityId) external view returns (uint96) {\n        return profiles[identityId].accumulatedOperatorFeeWithdrawalAmount;\n    }\n\n    function setAccumulatedOperatorFeeWithdrawalAmount(uint72 identityId, uint96 accumulatedOperatorFeeWithdrawalAmount) external onlyContracts {\n        profiles[identityId].accumulatedOperatorFeeWithdrawalAmount = accumulatedOperatorFeeWithdrawalAmount;\n    }\n\n    function getAccumulatedOperatorFeeWithdrawalTimestamp(uint72 identityId) external view returns (uint256) {\n        return profiles[identityId].operatorFeeWithdrawalTimestamp;\n    }\n\n    function setAccumulatedOperatorFeeWithdrawalTimestamp(uint72 identityId, uint256 operatorFeeWithdrawalTimestamp) external onlyContracts {\n        profiles[identityId].operatorFeeWithdrawalTimestamp = operatorFeeWithdrawalTimestamp;\n    }\n\n    function getSharesContractAddress(uint72 identityId) external view returns (address) {\n        return profiles[identityId].sharesContractAddress;\n    }\n\n    function setSharesContractAddress(uint72 identityId, address sharesContractAddress) external onlyContracts {\n        profiles[identityId].sharesContractAddress = sharesContractAddress;\n    }\n\n    function getNodeAddress(uint72 identityId, uint8 hashFunctionId) external view returns (bytes32) {\n        return profiles[identityId].nodeAddresses[hashFunctionId];\n    }\n\n    function setNodeAddress(uint72 identityId, uint8 hashFunctionId, bytes32 nodeAddress) external onlyContracts {\n        profiles[identityId].nodeAddresses[hashFunctionId] = nodeAddress;\n    }\n\n    function profileExists(uint72 identityId) external view returns (bool) {\n        return keccak256(profiles[identityId].nodeId) != keccak256(bytes(\"\"));\n    }\n\n    function transferTokens(address receiver, uint96 amount) external onlyContracts {\n        tokenContract.transfer(receiver, amount);\n    }\n\n    function _checkHub() internal view virtual {\n        require(hub.isContract(msg.sender), \"Fn can only be called by the hub\");\n    }\n}\n",
  "sourcePath": "/Users/waving/Desktop/OriginTrail/dkg-evm-module/contracts/storage/ProfileStorage.sol",
  "compiler": {
    "name": "solc",
    "version": "0.8.16+commit.07a7930e.Emscripten.clang"
  },
  "schemaVersion": "3.4.10",
  "updatedAt": "2022-12-12T09:47:52.159Z",
  "devdoc": {
    "kind": "dev",
    "methods": {},
    "version": 1
  },
  "userdoc": {
    "kind": "user",
    "methods": {},
    "version": 1
  }
}