{
  "contractName": "ProfileStorage",
  "abi": [
    {
      "inputs": [
        {
          "internalType": "address",
          "name": "hubAddress",
          "type": "address"
        }
      ],
      "stateMutability": "nonpayable",
      "type": "constructor"
    },
    {
      "anonymous": false,
      "inputs": [
        {
          "indexed": true,
          "internalType": "uint96",
          "name": "identityId",
          "type": "uint96"
        },
        {
          "indexed": true,
          "internalType": "bytes",
          "name": "nodeId",
          "type": "bytes"
        },
        {
          "indexed": false,
          "internalType": "uint96",
          "name": "ask",
          "type": "uint96"
        }
      ],
      "name": "AskUpdated",
      "type": "event"
    },
    {
      "anonymous": false,
      "inputs": [
        {
          "indexed": true,
          "internalType": "uint96",
          "name": "identityId",
          "type": "uint96"
        },
        {
          "indexed": true,
          "internalType": "bytes",
          "name": "nodeId",
          "type": "bytes"
        },
        {
          "indexed": false,
          "internalType": "uint96",
          "name": "reward",
          "type": "uint96"
        }
      ],
      "name": "RewardUpdated",
      "type": "event"
    },
    {
      "anonymous": false,
      "inputs": [
        {
          "indexed": true,
          "internalType": "uint96",
          "name": "identityId",
          "type": "uint96"
        },
        {
          "indexed": true,
          "internalType": "bytes",
          "name": "nodeId",
          "type": "bytes"
        },
        {
          "indexed": false,
          "internalType": "uint96",
          "name": "stake",
          "type": "uint96"
        }
      ],
      "name": "StakeUpdated",
      "type": "event"
    },
    {
      "inputs": [],
      "name": "hub",
      "outputs": [
        {
          "internalType": "contract Hub",
          "name": "",
          "type": "address"
        }
      ],
      "stateMutability": "view",
      "type": "function"
    },
    {
      "inputs": [
        {
          "internalType": "bytes",
          "name": "",
          "type": "bytes"
        }
      ],
      "name": "nodeIdsList",
      "outputs": [
        {
          "internalType": "bool",
          "name": "",
          "type": "bool"
        }
      ],
      "stateMutability": "view",
      "type": "function"
    },
    {
      "inputs": [
        {
          "internalType": "uint96",
          "name": "",
          "type": "uint96"
        }
      ],
      "name": "profiles",
      "outputs": [
        {
          "internalType": "uint96",
          "name": "ask",
          "type": "uint96"
        },
        {
          "internalType": "uint96",
          "name": "stake",
          "type": "uint96"
        },
        {
          "internalType": "uint96",
          "name": "reward",
          "type": "uint96"
        },
        {
          "internalType": "uint96",
          "name": "stakeWithdrawalAmount",
          "type": "uint96"
        },
        {
          "internalType": "uint96",
          "name": "rewardWithdrawalAmount",
          "type": "uint96"
        },
        {
          "internalType": "uint96",
          "name": "frozenAmount",
          "type": "uint96"
        },
        {
          "internalType": "uint256",
          "name": "stakeWithdrawalTimestamp",
          "type": "uint256"
        },
        {
          "internalType": "uint256",
          "name": "rewardWithdrawalTimestamp",
          "type": "uint256"
        },
        {
          "internalType": "uint256",
          "name": "freezeTimestamp",
          "type": "uint256"
        },
        {
          "internalType": "bytes",
          "name": "nodeId",
          "type": "bytes"
        }
      ],
      "stateMutability": "view",
      "type": "function"
    },
    {
      "inputs": [
        {
          "internalType": "address",
          "name": "operationalWallet",
          "type": "address"
        },
        {
          "internalType": "address",
          "name": "adminWallet",
          "type": "address"
        },
        {
          "internalType": "bytes",
          "name": "nodeId",
          "type": "bytes"
        },
        {
          "internalType": "uint96",
          "name": "initialAsk",
          "type": "uint96"
        },
        {
          "internalType": "uint96",
          "name": "initialStake",
          "type": "uint96"
        }
      ],
      "name": "createProfile",
      "outputs": [
        {
          "internalType": "uint96",
          "name": "",
          "type": "uint96"
        }
      ],
      "stateMutability": "nonpayable",
      "type": "function"
    },
    {
      "inputs": [
        {
          "internalType": "uint96",
          "name": "identityId",
          "type": "uint96"
        }
      ],
      "name": "getAsk",
      "outputs": [
        {
          "internalType": "uint96",
          "name": "",
          "type": "uint96"
        }
      ],
      "stateMutability": "view",
      "type": "function"
    },
    {
      "inputs": [
        {
          "internalType": "uint96",
          "name": "identityId",
          "type": "uint96"
        }
      ],
      "name": "getStake",
      "outputs": [
        {
          "internalType": "uint96",
          "name": "",
          "type": "uint96"
        }
      ],
      "stateMutability": "view",
      "type": "function"
    },
    {
      "inputs": [
        {
          "internalType": "uint96",
          "name": "identityId",
          "type": "uint96"
        }
      ],
      "name": "getReward",
      "outputs": [
        {
          "internalType": "uint96",
          "name": "",
          "type": "uint96"
        }
      ],
      "stateMutability": "view",
      "type": "function"
    },
    {
      "inputs": [
        {
          "internalType": "uint96",
          "name": "identityId",
          "type": "uint96"
        }
      ],
      "name": "getStakeWithdrawalAmount",
      "outputs": [
        {
          "internalType": "uint96",
          "name": "",
          "type": "uint96"
        }
      ],
      "stateMutability": "view",
      "type": "function"
    },
    {
      "inputs": [
        {
          "internalType": "uint96",
          "name": "identityId",
          "type": "uint96"
        }
      ],
      "name": "getRewardWithdrawalAmount",
      "outputs": [
        {
          "internalType": "uint96",
          "name": "",
          "type": "uint96"
        }
      ],
      "stateMutability": "view",
      "type": "function"
    },
    {
      "inputs": [
        {
          "internalType": "uint96",
          "name": "identityId",
          "type": "uint96"
        }
      ],
      "name": "getFrozenAmount",
      "outputs": [
        {
          "internalType": "uint96",
          "name": "",
          "type": "uint96"
        }
      ],
      "stateMutability": "view",
      "type": "function"
    },
    {
      "inputs": [
        {
          "internalType": "uint96",
          "name": "identityId",
          "type": "uint96"
        }
      ],
      "name": "getStakeWithdrawalTimestamp",
      "outputs": [
        {
          "internalType": "uint256",
          "name": "",
          "type": "uint256"
        }
      ],
      "stateMutability": "view",
      "type": "function"
    },
    {
      "inputs": [
        {
          "internalType": "uint96",
          "name": "identityId",
          "type": "uint96"
        }
      ],
      "name": "getRewardWithdrawalTimestamp",
      "outputs": [
        {
          "internalType": "uint256",
          "name": "",
          "type": "uint256"
        }
      ],
      "stateMutability": "view",
      "type": "function"
    },
    {
      "inputs": [
        {
          "internalType": "uint96",
          "name": "identityId",
          "type": "uint96"
        }
      ],
      "name": "getFreezeTimestamp",
      "outputs": [
        {
          "internalType": "uint256",
          "name": "",
          "type": "uint256"
        }
      ],
      "stateMutability": "view",
      "type": "function"
    },
    {
      "inputs": [
        {
          "internalType": "uint96",
          "name": "identityId",
          "type": "uint96"
        }
      ],
      "name": "getNodeId",
      "outputs": [
        {
          "internalType": "bytes",
          "name": "",
          "type": "bytes"
        }
      ],
      "stateMutability": "view",
      "type": "function"
    },
    {
      "inputs": [
        {
          "internalType": "uint96",
          "name": "identityId",
          "type": "uint96"
        },
        {
          "internalType": "uint8",
          "name": "hashingFunctionId",
          "type": "uint8"
        }
      ],
      "name": "getNodeAddress",
      "outputs": [
        {
          "internalType": "bytes32",
          "name": "",
          "type": "bytes32"
        }
      ],
      "stateMutability": "view",
      "type": "function"
    },
    {
      "inputs": [
        {
          "internalType": "uint96",
          "name": "identityId",
          "type": "uint96"
        },
        {
          "internalType": "uint96",
          "name": "ask",
          "type": "uint96"
        }
      ],
      "name": "setAsk",
      "outputs": [],
      "stateMutability": "nonpayable",
      "type": "function"
    },
    {
      "inputs": [
        {
          "internalType": "uint96",
          "name": "identityId",
          "type": "uint96"
        },
        {
          "internalType": "uint96",
          "name": "stake",
          "type": "uint96"
        }
      ],
      "name": "setStake",
      "outputs": [],
      "stateMutability": "nonpayable",
      "type": "function"
    },
    {
      "inputs": [
        {
          "internalType": "uint96",
          "name": "identityId",
          "type": "uint96"
        },
        {
          "internalType": "uint96",
          "name": "reward",
          "type": "uint96"
        }
      ],
      "name": "setReward",
      "outputs": [],
      "stateMutability": "nonpayable",
      "type": "function"
    },
    {
      "inputs": [
        {
          "internalType": "uint96",
          "name": "identityId",
          "type": "uint96"
        },
        {
          "internalType": "uint96",
          "name": "stakeWithdrawalAmount",
          "type": "uint96"
        }
      ],
      "name": "setStakeWithdrawalAmount",
      "outputs": [],
      "stateMutability": "nonpayable",
      "type": "function"
    },
    {
      "inputs": [
        {
          "internalType": "uint96",
          "name": "identityId",
          "type": "uint96"
        },
        {
          "internalType": "uint96",
          "name": "rewardWithdrawalAmount",
          "type": "uint96"
        }
      ],
      "name": "setRewardWithdrawalAmount",
      "outputs": [],
      "stateMutability": "nonpayable",
      "type": "function"
    },
    {
      "inputs": [
        {
          "internalType": "uint96",
          "name": "identityId",
          "type": "uint96"
        },
        {
          "internalType": "uint96",
          "name": "frozenAmount",
          "type": "uint96"
        }
      ],
      "name": "setFrozenAmount",
      "outputs": [],
      "stateMutability": "nonpayable",
      "type": "function"
    },
    {
      "inputs": [
        {
          "internalType": "uint96",
          "name": "identityId",
          "type": "uint96"
        },
        {
          "internalType": "uint256",
          "name": "stakeWithdrawalTimestamp",
          "type": "uint256"
        }
      ],
      "name": "setStakeWithdrawalTimestamp",
      "outputs": [],
      "stateMutability": "nonpayable",
      "type": "function"
    },
    {
      "inputs": [
        {
          "internalType": "uint96",
          "name": "identityId",
          "type": "uint96"
        },
        {
          "internalType": "uint256",
          "name": "rewardWithdrawalTimestamp",
          "type": "uint256"
        }
      ],
      "name": "setRewardWithdrawalTimestamp",
      "outputs": [],
      "stateMutability": "nonpayable",
      "type": "function"
    },
    {
      "inputs": [
        {
          "internalType": "uint96",
          "name": "identityId",
          "type": "uint96"
        },
        {
          "internalType": "uint256",
          "name": "freezeTimestamp",
          "type": "uint256"
        }
      ],
      "name": "setFreezeTimestamp",
      "outputs": [],
      "stateMutability": "nonpayable",
      "type": "function"
    },
    {
      "inputs": [
        {
          "internalType": "uint96",
          "name": "identityId",
          "type": "uint96"
        },
        {
          "internalType": "bytes",
          "name": "nodeId",
          "type": "bytes"
        }
      ],
      "name": "setNodeId",
      "outputs": [],
      "stateMutability": "nonpayable",
      "type": "function"
    },
    {
      "inputs": [
        {
          "internalType": "uint96",
          "name": "identityId",
          "type": "uint96"
        },
        {
          "internalType": "uint8",
          "name": "hashingFunctionId",
          "type": "uint8"
        }
      ],
      "name": "setNodeAddress",
      "outputs": [],
      "stateMutability": "nonpayable",
      "type": "function"
    },
    {
      "inputs": [
        {
          "internalType": "address",
          "name": "receiver",
          "type": "address"
        },
        {
          "internalType": "uint96",
          "name": "amount",
          "type": "uint96"
        }
      ],
      "name": "transferTokens",
      "outputs": [],
      "stateMutability": "nonpayable",
      "type": "function"
    }
  ],
  "bytecode": "0x60806040523480156200001157600080fd5b50604051620037f3380380620037f3833981810160405281019062000037919062000122565b600073ffffffffffffffffffffffffffffffffffffffff168173ffffffffffffffffffffffffffffffffffffffff16036200007157600080fd5b806000806101000a81548173ffffffffffffffffffffffffffffffffffffffff021916908373ffffffffffffffffffffffffffffffffffffffff1602179055505062000154565b600080fd5b600073ffffffffffffffffffffffffffffffffffffffff82169050919050565b6000620000ea82620000bd565b9050919050565b620000fc81620000dd565b81146200010857600080fd5b50565b6000815190506200011c81620000f1565b92915050565b6000602082840312156200013b576200013a620000b8565b5b60006200014b848285016200010b565b91505092915050565b61368f80620001646000396000f3fe608060405234801561001057600080fd5b50600436106101a85760003560e01c806374cb0edb116100f9578063a793e82111610097578063d9e2bcbc11610071578063d9e2bcbc1461050f578063e00107741461053f578063e2bd16bd14610578578063f93aad56146105a8576101a8565b8063a793e821146104a7578063abe979e1146104c3578063b0885117146104df576101a8565b8063947bb615116100d3578063947bb6151461040f57806394fceaeb1461043f578063a4f906231461045b578063a707c06914610477576101a8565b806374cb0edb14610393578063769653e6146103c3578063832c7bc1146103df576101a8565b8063365a86fc1161016657806350f0f4081161014057806350f0f408146102e75780636b1374f0146103175780636c5c281c146103475780636dccf56d14610377576101a8565b8063365a86fc1461029157806349d99785146102af5780634f3cc7c0146102cb576101a8565b8062ada70b146101ad578063115ab48e146101dd57806316b1f1521461020d5780631860bd8e14610229578063283bee65146102595780632ccec74714610275575b600080fd5b6101c760048036038101906101c291906125a7565b6105c4565b6040516101d491906125e3565b60405180910390f35b6101f760048036038101906101f291906125a7565b610618565b6040516102049190612617565b60405180910390f35b6102276004803603810190610222919061266b565b610654565b005b610243600480360381019061023e91906125a7565b6108cb565b60405161025091906125e3565b60405180910390f35b610273600480360381019061026e91906127f1565b61091f565b005b61028f600480360381019061028a919061284d565b610b25565b005b610299610c63565b6040516102a6919061290c565b60405180910390f35b6102c960048036038101906102c4919061284d565b610c87565b005b6102e560048036038101906102e09190612953565b610ef0565b005b61030160048036038101906102fc91906125a7565b611004565b60405161030e91906125e3565b60405180910390f35b610331600480360381019061032c91906125a7565b611058565b60405161033e91906125e3565b60405180910390f35b610361600480360381019061035c91906125a7565b6110ac565b60405161036e9190612a1b565b60405180910390f35b610391600480360381019061038c919061284d565b611170565b005b6103ad60048036038101906103a891906125a7565b611388565b6040516103ba91906125e3565b60405180910390f35b6103dd60048036038101906103d8919061284d565b6113dc565b005b6103f960048036038101906103f491906125a7565b61151a565b6040516104069190612617565b60405180910390f35b61042960048036038101906104249190612a3d565b611556565b6040516104369190612aa1565b60405180910390f35b61045960048036038101906104549190612953565b61158c565b005b6104756004803603810190610470919061284d565b6116a0565b005b610491600480360381019061048c91906125a7565b6118b8565b60405161049e9190612617565b60405180910390f35b6104c160048036038101906104bc919061284d565b6118f4565b005b6104dd60048036038101906104d89190612afa565b611a32565b005b6104f960048036038101906104f491906125a7565b611c9b565b60405161050691906125e3565b60405180910390f35b61052960048036038101906105249190612b3a565b611cef565b60405161053691906125e3565b60405180910390f35b610559600480360381019061055491906125a7565b6121d8565b60405161056f9a99989796959493929190612bd1565b60405180910390f35b610592600480360381019061058d919061266b565b612344565b60405161059f9190612c8d565b60405180910390f35b6105c260048036038101906105bd9190612953565b612398565b005b600060026000836bffffffffffffffffffffffff166bffffffffffffffffffffffff16815260200190815260200160002060020160009054906101000a90046bffffffffffffffffffffffff169050919050565b600060026000836bffffffffffffffffffffffff166bffffffffffffffffffffffff168152602001908152602001600020600401549050919050565b60008054906101000a900473ffffffffffffffffffffffffffffffffffffffff1673ffffffffffffffffffffffffffffffffffffffff166316279055336040518263ffffffff1660e01b81526004016106ad9190612cb7565b602060405180830381865afa1580156106ca573d6000803e3d6000fd5b505050506040513d601f19601f820116820180604052508101906106ee9190612cfe565b61072d576040517f08c379a000000000000000000000000000000000000000000000000000000000815260040161072490612dae565b60405180910390fd5b60008060009054906101000a900473ffffffffffffffffffffffffffffffffffffffff1673ffffffffffffffffffffffffffffffffffffffff166304433bbc6040518163ffffffff1660e01b815260040161078790612e1a565b602060405180830381865afa1580156107a4573d6000803e3d6000fd5b505050506040513d601f19601f820116820180604052508101906107c89190612e4f565b90508073ffffffffffffffffffffffffffffffffffffffff1663a2113a668360026000876bffffffffffffffffffffffff166bffffffffffffffffffffffff1681526020019081526020016000206006016040518363ffffffff1660e01b8152600401610836929190612f80565b6020604051808303816000875af1158015610855573d6000803e3d6000fd5b505050506040513d601f19601f820116820180604052508101906108799190612fdc565b60026000856bffffffffffffffffffffffff166bffffffffffffffffffffffff16815260200190815260200160002060070160008460ff1660ff16815260200190815260200160002081905550505050565b600060026000836bffffffffffffffffffffffff166bffffffffffffffffffffffff168152602001908152602001600020600001600c9054906101000a90046bffffffffffffffffffffffff169050919050565b60008054906101000a900473ffffffffffffffffffffffffffffffffffffffff1673ffffffffffffffffffffffffffffffffffffffff166316279055336040518263ffffffff1660e01b81526004016109789190612cb7565b602060405180830381865afa158015610995573d6000803e3d6000fd5b505050506040513d601f19601f820116820180604052508101906109b99190612cfe565b6109f8576040517f08c379a00000000000000000000000000000000000000000000000000000000081526004016109ef90612dae565b60405180910390fd5b6000815103610a3c576040517f08c379a0000000000000000000000000000000000000000000000000000000008152600401610a3390613055565b60405180910390fd5b8060026000846bffffffffffffffffffffffff166bffffffffffffffffffffffff1681526020019081526020016000206006019080519060200190610a829291906124ac565b506000600160026000856bffffffffffffffffffffffff166bffffffffffffffffffffffff168152602001908152602001600020600601604051610ac691906130ff565b908152602001604051809103902060006101000a81548160ff02191690831515021790555060018082604051610afc9190613147565b908152602001604051809103902060006101000a81548160ff0219169083151502179055505050565b60008054906101000a900473ffffffffffffffffffffffffffffffffffffffff1673ffffffffffffffffffffffffffffffffffffffff166316279055336040518263ffffffff1660e01b8152600401610b7e9190612cb7565b602060405180830381865afa158015610b9b573d6000803e3d6000fd5b505050506040513d601f19601f82011682018060405250810190610bbf9190612cfe565b610bfe576040517f08c379a0000000000000000000000000000000000000000000000000000000008152600401610bf590612dae565b60405180910390fd5b8060026000846bffffffffffffffffffffffff166bffffffffffffffffffffffff168152602001908152602001600020600201600c6101000a8154816bffffffffffffffffffffffff02191690836bffffffffffffffffffffffff1602179055505050565b60008054906101000a900473ffffffffffffffffffffffffffffffffffffffff1681565b60008054906101000a900473ffffffffffffffffffffffffffffffffffffffff1673ffffffffffffffffffffffffffffffffffffffff166316279055336040518263ffffffff1660e01b8152600401610ce09190612cb7565b602060405180830381865afa158015610cfd573d6000803e3d6000fd5b505050506040513d601f19601f82011682018060405250810190610d219190612cfe565b610d60576040517f08c379a0000000000000000000000000000000000000000000000000000000008152600401610d5790612dae565b60405180910390fd5b6000816bffffffffffffffffffffffff1611610db1576040517f08c379a0000000000000000000000000000000000000000000000000000000008152600401610da8906131aa565b60405180910390fd5b8060026000846bffffffffffffffffffffffff166bffffffffffffffffffffffff16815260200190815260200160002060000160006101000a8154816bffffffffffffffffffffffff02191690836bffffffffffffffffffffffff1602179055503073ffffffffffffffffffffffffffffffffffffffff16636c5c281c836040518263ffffffff1660e01b8152600401610e4b91906125e3565b600060405180830381865afa158015610e68573d6000803e3d6000fd5b505050506040513d6000823e3d601f19601f82011682018060405250810190610e91919061323a565b604051610e9e9190613147565b6040518091039020826bffffffffffffffffffffffff167f9bf13a73b26042469d0163547ba939edab9e3238984e553a4b312d07118bb08183604051610ee491906125e3565b60405180910390a35050565b60008054906101000a900473ffffffffffffffffffffffffffffffffffffffff1673ffffffffffffffffffffffffffffffffffffffff166316279055336040518263ffffffff1660e01b8152600401610f499190612cb7565b602060405180830381865afa158015610f66573d6000803e3d6000fd5b505050506040513d601f19601f82011682018060405250810190610f8a9190612cfe565b610fc9576040517f08c379a0000000000000000000000000000000000000000000000000000000008152600401610fc090612dae565b60405180910390fd5b8060026000846bffffffffffffffffffffffff166bffffffffffffffffffffffff168152602001908152602001600020600301819055505050565b600060026000836bffffffffffffffffffffffff166bffffffffffffffffffffffff16815260200190815260200160002060000160009054906101000a90046bffffffffffffffffffffffff169050919050565b600060026000836bffffffffffffffffffffffff166bffffffffffffffffffffffff168152602001908152602001600020600101600c9054906101000a90046bffffffffffffffffffffffff169050919050565b606060026000836bffffffffffffffffffffffff166bffffffffffffffffffffffff16815260200190815260200160002060060180546110eb90612eba565b80601f016020809104026020016040519081016040528092919081815260200182805461111790612eba565b80156111645780601f1061113957610100808354040283529160200191611164565b820191906000526020600020905b81548152906001019060200180831161114757829003601f168201915b50505050509050919050565b60008054906101000a900473ffffffffffffffffffffffffffffffffffffffff1673ffffffffffffffffffffffffffffffffffffffff166316279055336040518263ffffffff1660e01b81526004016111c99190612cb7565b602060405180830381865afa1580156111e6573d6000803e3d6000fd5b505050506040513d601f19601f8201168201806040525081019061120a9190612cfe565b611249576040517f08c379a000000000000000000000000000000000000000000000000000000000815260040161124090612dae565b60405180910390fd5b8060026000846bffffffffffffffffffffffff166bffffffffffffffffffffffff168152602001908152602001600020600001600c6101000a8154816bffffffffffffffffffffffff02191690836bffffffffffffffffffffffff1602179055503073ffffffffffffffffffffffffffffffffffffffff16636c5c281c836040518263ffffffff1660e01b81526004016112e391906125e3565b600060405180830381865afa158015611300573d6000803e3d6000fd5b505050506040513d6000823e3d601f19601f82011682018060405250810190611329919061323a565b6040516113369190613147565b6040518091039020826bffffffffffffffffffffffff167fa77a36466625d36755152ef1d8c0ab7feb095e9c5591540c91421799a4185e7f8360405161137c91906125e3565b60405180910390a35050565b600060026000836bffffffffffffffffffffffff166bffffffffffffffffffffffff16815260200190815260200160002060010160009054906101000a90046bffffffffffffffffffffffff169050919050565b60008054906101000a900473ffffffffffffffffffffffffffffffffffffffff1673ffffffffffffffffffffffffffffffffffffffff166316279055336040518263ffffffff1660e01b81526004016114359190612cb7565b602060405180830381865afa158015611452573d6000803e3d6000fd5b505050506040513d601f19601f820116820180604052508101906114769190612cfe565b6114b5576040517f08c379a00000000000000000000000000000000000000000000000000000000081526004016114ac90612dae565b60405180910390fd5b8060026000846bffffffffffffffffffffffff166bffffffffffffffffffffffff168152602001908152602001600020600101600c6101000a8154816bffffffffffffffffffffffff02191690836bffffffffffffffffffffffff1602179055505050565b600060026000836bffffffffffffffffffffffff166bffffffffffffffffffffffff168152602001908152602001600020600301549050919050565b6001818051602081018201805184825260208301602085012081835280955050505050506000915054906101000a900460ff1681565b60008054906101000a900473ffffffffffffffffffffffffffffffffffffffff1673ffffffffffffffffffffffffffffffffffffffff166316279055336040518263ffffffff1660e01b81526004016115e59190612cb7565b602060405180830381865afa158015611602573d6000803e3d6000fd5b505050506040513d601f19601f820116820180604052508101906116269190612cfe565b611665576040517f08c379a000000000000000000000000000000000000000000000000000000000815260040161165c90612dae565b60405180910390fd5b8060026000846bffffffffffffffffffffffff166bffffffffffffffffffffffff168152602001908152602001600020600401819055505050565b60008054906101000a900473ffffffffffffffffffffffffffffffffffffffff1673ffffffffffffffffffffffffffffffffffffffff166316279055336040518263ffffffff1660e01b81526004016116f99190612cb7565b602060405180830381865afa158015611716573d6000803e3d6000fd5b505050506040513d601f19601f8201168201806040525081019061173a9190612cfe565b611779576040517f08c379a000000000000000000000000000000000000000000000000000000000815260040161177090612dae565b60405180910390fd5b8060026000846bffffffffffffffffffffffff166bffffffffffffffffffffffff16815260200190815260200160002060010160006101000a8154816bffffffffffffffffffffffff02191690836bffffffffffffffffffffffff1602179055503073ffffffffffffffffffffffffffffffffffffffff16636c5c281c836040518263ffffffff1660e01b815260040161181391906125e3565b600060405180830381865afa158015611830573d6000803e3d6000fd5b505050506040513d6000823e3d601f19601f82011682018060405250810190611859919061323a565b6040516118669190613147565b6040518091039020826bffffffffffffffffffffffff167fdf6c9caf0223338d1b1d8e941d6b125e547ec14bf3b9789e3a7096b6f17c8163836040516118ac91906125e3565b60405180910390a35050565b600060026000836bffffffffffffffffffffffff166bffffffffffffffffffffffff168152602001908152602001600020600501549050919050565b60008054906101000a900473ffffffffffffffffffffffffffffffffffffffff1673ffffffffffffffffffffffffffffffffffffffff166316279055336040518263ffffffff1660e01b815260040161194d9190612cb7565b602060405180830381865afa15801561196a573d6000803e3d6000fd5b505050506040513d601f19601f8201168201806040525081019061198e9190612cfe565b6119cd576040517f08c379a00000000000000000000000000000000000000000000000000000000081526004016119c490612dae565b60405180910390fd5b8060026000846bffffffffffffffffffffffff166bffffffffffffffffffffffff16815260200190815260200160002060020160006101000a8154816bffffffffffffffffffffffff02191690836bffffffffffffffffffffffff1602179055505050565b60008054906101000a900473ffffffffffffffffffffffffffffffffffffffff1673ffffffffffffffffffffffffffffffffffffffff166316279055336040518263ffffffff1660e01b8152600401611a8b9190612cb7565b602060405180830381865afa158015611aa8573d6000803e3d6000fd5b505050506040513d601f19601f82011682018060405250810190611acc9190612cfe565b611b0b576040517f08c379a0000000000000000000000000000000000000000000000000000000008152600401611b0290612dae565b60405180910390fd5b600073ffffffffffffffffffffffffffffffffffffffff168273ffffffffffffffffffffffffffffffffffffffff1603611b7a576040517f08c379a0000000000000000000000000000000000000000000000000000000008152600401611b71906132cf565b60405180910390fd5b60008060009054906101000a900473ffffffffffffffffffffffffffffffffffffffff1673ffffffffffffffffffffffffffffffffffffffff166304433bbc6040518163ffffffff1660e01b8152600401611bd49061333b565b602060405180830381865afa158015611bf1573d6000803e3d6000fd5b505050506040513d601f19601f82011682018060405250810190611c159190612e4f565b90508073ffffffffffffffffffffffffffffffffffffffff1663a9059cbb84846040518363ffffffff1660e01b8152600401611c5292919061338c565b6020604051808303816000875af1158015611c71573d6000803e3d6000fd5b505050506040513d601f19601f82011682018060405250810190611c959190612cfe565b50505050565b600060026000836bffffffffffffffffffffffff166bffffffffffffffffffffffff168152602001908152602001600020600201600c9054906101000a90046bffffffffffffffffffffffff169050919050565b60008060009054906101000a900473ffffffffffffffffffffffffffffffffffffffff1673ffffffffffffffffffffffffffffffffffffffff166316279055336040518263ffffffff1660e01b8152600401611d4b9190612cb7565b602060405180830381865afa158015611d68573d6000803e3d6000fd5b505050506040513d601f19601f82011682018060405250810190611d8c9190612cfe565b611dcb576040517f08c379a0000000000000000000000000000000000000000000000000000000008152600401611dc290612dae565b60405180910390fd5b60008060009054906101000a900473ffffffffffffffffffffffffffffffffffffffff1673ffffffffffffffffffffffffffffffffffffffff166304433bbc6040518163ffffffff1660e01b8152600401611e2590613401565b602060405180830381865afa158015611e42573d6000803e3d6000fd5b505050506040513d601f19601f82011682018060405250810190611e669190612e4f565b9050600087604051602001611e7b9190613469565b60405160208183030381529060405280519060200120905060008273ffffffffffffffffffffffffffffffffffffffff16631fc2b3ab836040518263ffffffff1660e01b8152600401611ece9190612c8d565b602060405180830381865afa158015611eeb573d6000803e3d6000fd5b505050506040513d601f19601f82011682018060405250810190611f0f9190613499565b6bffffffffffffffffffffffff1614611f5d576040517f08c379a0000000000000000000000000000000000000000000000000000000008152600401611f5490613512565b60405180910390fd5b600186604051611f6d9190613147565b908152602001604051809103902060009054906101000a900460ff1615611fc9576040517f08c379a0000000000000000000000000000000000000000000000000000000008152600401611fc0906135a4565b60405180910390fd5b600086510361200d576040517f08c379a000000000000000000000000000000000000000000000000000000000815260040161200490613055565b60405180910390fd5b6000856bffffffffffffffffffffffff161161205e576040517f08c379a000000000000000000000000000000000000000000000000000000000815260040161205590613610565b60405180910390fd5b60008273ffffffffffffffffffffffffffffffffffffffff1663d10e73ab8a8a6040518363ffffffff1660e01b815260040161209b929190613630565b6020604051808303816000875af11580156120ba573d6000803e3d6000fd5b505050506040513d601f19601f820116820180604052508101906120de9190613499565b9050600060026000836bffffffffffffffffffffffff166bffffffffffffffffffffffff1681526020019081526020016000209050868160000160006101000a8154816bffffffffffffffffffffffff02191690836bffffffffffffffffffffffff1602179055508581600001600c6101000a8154816bffffffffffffffffffffffff02191690836bffffffffffffffffffffffff160217905550878160060190805190602001906121919291906124ac565b50600180896040516121a39190613147565b908152602001604051809103902060006101000a81548160ff0219169083151502179055508194505050505095945050505050565b60026020528060005260406000206000915090508060000160009054906101000a90046bffffffffffffffffffffffff169080600001600c9054906101000a90046bffffffffffffffffffffffff16908060010160009054906101000a90046bffffffffffffffffffffffff169080600101600c9054906101000a90046bffffffffffffffffffffffff16908060020160009054906101000a90046bffffffffffffffffffffffff169080600201600c9054906101000a90046bffffffffffffffffffffffff16908060030154908060040154908060050154908060060180546122c190612eba565b80601f01602080910402602001604051908101604052809291908181526020018280546122ed90612eba565b801561233a5780601f1061230f5761010080835404028352916020019161233a565b820191906000526020600020905b81548152906001019060200180831161231d57829003601f168201915b505050505090508a565b600060026000846bffffffffffffffffffffffff166bffffffffffffffffffffffff16815260200190815260200160002060070160008360ff1660ff16815260200190815260200160002054905092915050565b60008054906101000a900473ffffffffffffffffffffffffffffffffffffffff1673ffffffffffffffffffffffffffffffffffffffff166316279055336040518263ffffffff1660e01b81526004016123f19190612cb7565b602060405180830381865afa15801561240e573d6000803e3d6000fd5b505050506040513d601f19601f820116820180604052508101906124329190612cfe565b612471576040517f08c379a000000000000000000000000000000000000000000000000000000000815260040161246890612dae565b60405180910390fd5b8060026000846bffffffffffffffffffffffff166bffffffffffffffffffffffff168152602001908152602001600020600501819055505050565b8280546124b890612eba565b90600052602060002090601f0160209004810192826124da5760008555612521565b82601f106124f357805160ff1916838001178555612521565b82800160010185558215612521579182015b82811115612520578251825591602001919060010190612505565b5b50905061252e9190612532565b5090565b5b8082111561254b576000816000905550600101612533565b5090565b6000604051905090565b600080fd5b600080fd5b60006bffffffffffffffffffffffff82169050919050565b61258481612563565b811461258f57600080fd5b50565b6000813590506125a18161257b565b92915050565b6000602082840312156125bd576125bc612559565b5b60006125cb84828501612592565b91505092915050565b6125dd81612563565b82525050565b60006020820190506125f860008301846125d4565b92915050565b6000819050919050565b612611816125fe565b82525050565b600060208201905061262c6000830184612608565b92915050565b600060ff82169050919050565b61264881612632565b811461265357600080fd5b50565b6000813590506126658161263f565b92915050565b6000806040838503121561268257612681612559565b5b600061269085828601612592565b92505060206126a185828601612656565b9150509250929050565b600080fd5b600080fd5b6000601f19601f8301169050919050565b7f4e487b7100000000000000000000000000000000000000000000000000000000600052604160045260246000fd5b6126fe826126b5565b810181811067ffffffffffffffff8211171561271d5761271c6126c6565b5b80604052505050565b600061273061254f565b905061273c82826126f5565b919050565b600067ffffffffffffffff82111561275c5761275b6126c6565b5b612765826126b5565b9050602081019050919050565b82818337600083830152505050565b600061279461278f84612741565b612726565b9050828152602081018484840111156127b0576127af6126b0565b5b6127bb848285612772565b509392505050565b600082601f8301126127d8576127d76126ab565b5b81356127e8848260208601612781565b91505092915050565b6000806040838503121561280857612807612559565b5b600061281685828601612592565b925050602083013567ffffffffffffffff8111156128375761283661255e565b5b612843858286016127c3565b9150509250929050565b6000806040838503121561286457612863612559565b5b600061287285828601612592565b925050602061288385828601612592565b9150509250929050565b600073ffffffffffffffffffffffffffffffffffffffff82169050919050565b6000819050919050565b60006128d26128cd6128c88461288d565b6128ad565b61288d565b9050919050565b60006128e4826128b7565b9050919050565b60006128f6826128d9565b9050919050565b612906816128eb565b82525050565b600060208201905061292160008301846128fd565b92915050565b612930816125fe565b811461293b57600080fd5b50565b60008135905061294d81612927565b92915050565b6000806040838503121561296a57612969612559565b5b600061297885828601612592565b92505060206129898582860161293e565b9150509250929050565b600081519050919050565b600082825260208201905092915050565b60005b838110156129cd5780820151818401526020810190506129b2565b838111156129dc576000848401525b50505050565b60006129ed82612993565b6129f7818561299e565b9350612a078185602086016129af565b612a10816126b5565b840191505092915050565b60006020820190508181036000830152612a3581846129e2565b905092915050565b600060208284031215612a5357612a52612559565b5b600082013567ffffffffffffffff811115612a7157612a7061255e565b5b612a7d848285016127c3565b91505092915050565b60008115159050919050565b612a9b81612a86565b82525050565b6000602082019050612ab66000830184612a92565b92915050565b6000612ac78261288d565b9050919050565b612ad781612abc565b8114612ae257600080fd5b50565b600081359050612af481612ace565b92915050565b60008060408385031215612b1157612b10612559565b5b6000612b1f85828601612ae5565b9250506020612b3085828601612592565b9150509250929050565b600080600080600060a08688031215612b5657612b55612559565b5b6000612b6488828901612ae5565b9550506020612b7588828901612ae5565b945050604086013567ffffffffffffffff811115612b9657612b9561255e565b5b612ba2888289016127c3565b9350506060612bb388828901612592565b9250506080612bc488828901612592565b9150509295509295909350565b600061014082019050612be7600083018d6125d4565b612bf4602083018c6125d4565b612c01604083018b6125d4565b612c0e606083018a6125d4565b612c1b60808301896125d4565b612c2860a08301886125d4565b612c3560c0830187612608565b612c4260e0830186612608565b612c50610100830185612608565b818103610120830152612c6381846129e2565b90509b9a5050505050505050505050565b6000819050919050565b612c8781612c74565b82525050565b6000602082019050612ca26000830184612c7e565b92915050565b612cb181612abc565b82525050565b6000602082019050612ccc6000830184612ca8565b92915050565b612cdb81612a86565b8114612ce657600080fd5b50565b600081519050612cf881612cd2565b92915050565b600060208284031215612d1457612d13612559565b5b6000612d2284828501612ce9565b91505092915050565b600082825260208201905092915050565b7f46756e6374696f6e2063616e206f6e6c792062652063616c6c6564206279206360008201527f6f6e747261637473210000000000000000000000000000000000000000000000602082015250565b6000612d98602983612d2b565b9150612da382612d3c565b604082019050919050565b60006020820190508181036000830152612dc781612d8b565b9050919050565b7f48617368696e6750726f78790000000000000000000000000000000000000000600082015250565b6000612e04600c83612d2b565b9150612e0f82612dce565b602082019050919050565b60006020820190508181036000830152612e3381612df7565b9050919050565b600081519050612e4981612ace565b92915050565b600060208284031215612e6557612e64612559565b5b6000612e7384828501612e3a565b91505092915050565b612e8581612632565b82525050565b7f4e487b7100000000000000000000000000000000000000000000000000000000600052602260045260246000fd5b60006002820490506001821680612ed257607f821691505b602082108103612ee557612ee4612e8b565b5b50919050565b60008190508160005260206000209050919050565b60008154612f0d81612eba565b612f17818661299e565b94506001821660008114612f325760018114612f4457612f77565b60ff1983168652602086019350612f77565b612f4d85612eeb565b60005b83811015612f6f57815481890152600182019150602081019050612f50565b808801955050505b50505092915050565b6000604082019050612f956000830185612e7c565b8181036020830152612fa78184612f00565b90509392505050565b612fb981612c74565b8114612fc457600080fd5b50565b600081519050612fd681612fb0565b92915050565b600060208284031215612ff257612ff1612559565b5b600061300084828501612fc7565b91505092915050565b7f4e6f64652049442063616e277420626520656d70747900000000000000000000600082015250565b600061303f601683612d2b565b915061304a82613009565b602082019050919050565b6000602082019050818103600083015261306e81613032565b9050919050565b600081905092915050565b6000815461308d81612eba565b6130978186613075565b945060018216600081146130b257600181146130c3576130f6565b60ff198316865281860193506130f6565b6130cc85612eeb565b60005b838110156130ee578154818901526001820191506020810190506130cf565b838801955050505b50505092915050565b600061310b8284613080565b915081905092915050565b600061312182612993565b61312b8185613075565b935061313b8185602086016129af565b80840191505092915050565b60006131538284613116565b915081905092915050565b7f41736b2063616e6e6f7420626520302e00000000000000000000000000000000600082015250565b6000613194601083612d2b565b915061319f8261315e565b602082019050919050565b600060208201905081810360008301526131c381613187565b9050919050565b60006131dd6131d884612741565b612726565b9050828152602081018484840111156131f9576131f86126b0565b5b6132048482856129af565b509392505050565b600082601f830112613221576132206126ab565b5b81516132318482602086016131ca565b91505092915050565b6000602082840312156132505761324f612559565b5b600082015167ffffffffffffffff81111561326e5761326d61255e565b5b61327a8482850161320c565b91505092915050565b7f526563656976657220616464726573732063616e277420626520656d70747900600082015250565b60006132b9601f83612d2b565b91506132c482613283565b602082019050919050565b600060208201905081810360008301526132e8816132ac565b9050919050565b7f546f6b656e000000000000000000000000000000000000000000000000000000600082015250565b6000613325600583612d2b565b9150613330826132ef565b602082019050919050565b6000602082019050818103600083015261335481613318565b9050919050565b600061337661337161336c84612563565b6128ad565b6125fe565b9050919050565b6133868161335b565b82525050565b60006040820190506133a16000830185612ca8565b6133ae602083018461337d565b9392505050565b7f4964656e7469747953746f726167650000000000000000000000000000000000600082015250565b60006133eb600f83612d2b565b91506133f6826133b5565b602082019050919050565b6000602082019050818103600083015261341a816133de565b9050919050565b60008160601b9050919050565b600061343982613421565b9050919050565b600061344b8261342e565b9050919050565b61346361345e82612abc565b613440565b82525050565b60006134758284613452565b60148201915081905092915050565b6000815190506134938161257b565b92915050565b6000602082840312156134af576134ae612559565b5b60006134bd84828501613484565b91505092915050565b7f50726f66696c6520616c72656164792065786973747300000000000000000000600082015250565b60006134fc601683612d2b565b9150613507826134c6565b602082019050919050565b6000602082019050818103600083015261352b816134ef565b9050919050565b7f4e6f646520494420636f6e6e6563746564207769746820616e6f74686572207060008201527f726f66696c650000000000000000000000000000000000000000000000000000602082015250565b600061358e602683612d2b565b915061359982613532565b604082019050919050565b600060208201905081810360008301526135bd81613581565b9050919050565b7f41736b2063616e27742062652030000000000000000000000000000000000000600082015250565b60006135fa600e83612d2b565b9150613605826135c4565b602082019050919050565b60006020820190508181036000830152613629816135ed565b9050919050565b60006040820190506136456000830185612ca8565b6136526020830184612ca8565b939250505056fea26469706673582212204d0cc51298fc305bbb4f02b036ca625ab1cb612c029f38c0a6a3b4598b8ffa9864736f6c634300080e0033",
  "immutableReferences": {},
  "source": "// SPDX-License-Identifier: MIT\n\npragma solidity ^0.8.0;\n\nimport { HashingProxy } from \"../HashingProxy.sol\";\nimport { Hub } from \"../Hub.sol\";\nimport { IdentityStorage } from \"./IdentityStorage.sol\";\nimport { IERC20 } from \"@openzeppelin/contracts/token/ERC20/IERC20.sol\";\n\ncontract ProfileStorage {\n    event AskUpdated(uint96 indexed identityId, bytes indexed nodeId, uint96 ask);\n    event StakeUpdated(uint96 indexed identityId, bytes indexed nodeId, uint96 stake);\n    event RewardUpdated(uint96 indexed identityId, bytes indexed nodeId, uint96 reward);\n\n    Hub public hub;\n\n    struct ProfileDefinition{\n        uint96 ask;\n        uint96 stake;\n        uint96 reward;\n        uint96 stakeWithdrawalAmount;\n        uint96 rewardWithdrawalAmount;\n        uint96 frozenAmount;  // TODO: Slashing mechanism\n        uint256 stakeWithdrawalTimestamp;\n        uint256 rewardWithdrawalTimestamp;\n        uint256 freezeTimestamp;  // TODO: Slashing mechanism\n        bytes nodeId;\n        mapping(uint8 => bytes32) nodeAddresses;\n    }\n\n    // nodeId => isRegistered?\n    mapping(bytes => bool) public nodeIdsList;\n    // identityId => Profile\n    mapping(uint96 => ProfileDefinition) public profiles;\n\n    constructor(address hubAddress) {\n        require(hubAddress != address(0));\n        hub = Hub(hubAddress);\n    }\n\n    modifier onlyContracts() {\n        require(hub.isContract(msg.sender),\n        \"Function can only be called by contracts!\");\n        _;\n    }\n\n    function createProfile(\n        address operationalWallet,\n        address adminWallet,\n        bytes memory nodeId,\n        uint96 initialAsk,\n        uint96 initialStake\n    )\n        public\n        onlyContracts\n        returns (uint96)\n    {\n        IdentityStorage identityStorage = IdentityStorage(hub.getContractAddress(\"IdentityStorage\"));\n\n        bytes32 _operational_key = keccak256(abi.encodePacked(operationalWallet));\n\n        require(identityStorage.identityIds(_operational_key) == 0, \"Profile already exists\");\n        require(!nodeIdsList[nodeId], \"Node ID connected with another profile\");\n        require(nodeId.length != 0, \"Node ID can't be empty\");\n        require(initialAsk > 0, \"Ask can't be 0\");\n\n        uint96 identityId = identityStorage.createIdentity(operationalWallet, adminWallet);\n\n        ProfileDefinition storage profile = profiles[identityId];\n        profile.ask = initialAsk;\n        profile.stake = initialStake;\n        profile.nodeId = nodeId;\n\n        nodeIdsList[nodeId] = true;\n\n        return identityId;\n    }\n\n    /* ----------------GETTERS------------------ */\n    function getAsk(uint96 identityId)\n        public\n        view\n        returns (uint96)\n    {\n        return profiles[identityId].ask;\n    }\n\n    function getStake(uint96 identityId) \n        public\n        view\n        returns (uint96)\n    {\n        return profiles[identityId].stake;\n    }\n\n    function getReward(uint96 identityId)\n        public\n        view\n        returns (uint96)\n    {\n        return profiles[identityId].reward;\n    }\n\n    function getStakeWithdrawalAmount(uint96 identityId) \n        public\n        view\n        returns (uint96)\n    {\n        return profiles[identityId].stakeWithdrawalAmount;\n    }\n\n    function getRewardWithdrawalAmount(uint96 identityId)\n        public\n        view\n        returns (uint96)\n    {\n        return profiles[identityId].rewardWithdrawalAmount;\n    }\n\n    function getFrozenAmount(uint96 identityId) \n        public\n        view\n        returns (uint96)\n    {\n        return profiles[identityId].frozenAmount;\n    }\n\n    function getStakeWithdrawalTimestamp(uint96 identityId) \n        public\n        view\n        returns (uint256)\n    {\n        return profiles[identityId].stakeWithdrawalTimestamp;\n    }\n\n    function getRewardWithdrawalTimestamp(uint96 identityId)\n        public\n        view\n        returns (uint256)\n    {\n        return profiles[identityId].rewardWithdrawalTimestamp;\n    }\n\n    function getFreezeTimestamp(uint96 identityId)\n        public\n        view\n        returns (uint256)\n    {\n        return profiles[identityId].freezeTimestamp;\n    }\n\n    function getNodeId(uint96 identityId) \n        public\n        view\n        returns (bytes memory)\n    {\n        return profiles[identityId].nodeId;\n    }\n\n    function getNodeAddress(uint96 identityId, uint8 hashingFunctionId)\n        public\n        view\n        returns (bytes32)\n    {\n        return profiles[identityId].nodeAddresses[hashingFunctionId];\n    }\n\n    /* ----------------SETTERS------------------ */\n    function setAsk(uint96 identityId, uint96 ask)\n        public\n        onlyContracts\n    {\n        require(ask > 0, \"Ask cannot be 0.\");\n\n        profiles[identityId].ask = ask;\n\n        emit AskUpdated(identityId, this.getNodeId(identityId), ask);\n    }\n    \n    function setStake(uint96 identityId, uint96 stake)\n        public\n        onlyContracts\n    {\n        profiles[identityId].stake = stake;\n\n        emit StakeUpdated(identityId, this.getNodeId(identityId), stake);\n    }\n\n    function setReward(uint96 identityId, uint96 reward)\n        public\n        onlyContracts\n    {\n        profiles[identityId].reward = reward;\n\n        emit RewardUpdated(identityId, this.getNodeId(identityId), reward);\n    }\n\n    function setStakeWithdrawalAmount(uint96 identityId, uint96 stakeWithdrawalAmount) \n        public\n        onlyContracts\n    {\n        profiles[identityId].stakeWithdrawalAmount = stakeWithdrawalAmount;\n    }\n\n    function setRewardWithdrawalAmount(uint96 identityId, uint96 rewardWithdrawalAmount)\n        public\n        onlyContracts\n    {\n        profiles[identityId].rewardWithdrawalAmount = rewardWithdrawalAmount;\n    }\n\n    function setFrozenAmount(uint96 identityId, uint96 frozenAmount) \n        public\n        onlyContracts\n    {\n        profiles[identityId].frozenAmount = frozenAmount;\n    }\n\n    function setStakeWithdrawalTimestamp(uint96 identityId, uint256 stakeWithdrawalTimestamp) \n        public\n        onlyContracts\n    {\n        profiles[identityId].stakeWithdrawalTimestamp = stakeWithdrawalTimestamp;\n    }\n\n    function setRewardWithdrawalTimestamp(uint96 identityId, uint256 rewardWithdrawalTimestamp)\n        public\n        onlyContracts\n    {\n        profiles[identityId].rewardWithdrawalTimestamp = rewardWithdrawalTimestamp;\n    }\n\n    function setFreezeTimestamp(uint96 identityId, uint256 freezeTimestamp)\n        public\n        onlyContracts\n    {\n        profiles[identityId].freezeTimestamp = freezeTimestamp;\n    }\n\n    function setNodeId(uint96 identityId, bytes memory nodeId)\n        public\n        onlyContracts\n    {\n        require(nodeId.length != 0, \"Node ID can't be empty\");\n\n        profiles[identityId].nodeId = nodeId;\n\n        nodeIdsList[profiles[identityId].nodeId] = false;\n        nodeIdsList[nodeId] = true;\n    }\n\n    function setNodeAddress(uint96 identityId, uint8 hashingFunctionId)\n        public\n        onlyContracts\n    {\n        HashingProxy hashingProxy = HashingProxy(hub.getContractAddress(\"HashingProxy\"));\n        profiles[identityId].nodeAddresses[hashingFunctionId] = hashingProxy.callHashingFunction(\n            hashingFunctionId,\n            profiles[identityId].nodeId\n        );\n    }\n\n    function transferTokens(address receiver, uint96 amount)\n        public\n        onlyContracts\n    {\n        require(receiver != address(0), \"Receiver address can't be empty\");\n\n        IERC20 tokenContract = IERC20(hub.getContractAddress(\"Token\"));\n        tokenContract.transfer(receiver, amount);\n    }\n}\n",
  "sourcePath": "/Users/waving/Desktop/OriginTrail/dkg-evm-module/contracts/storage/ProfileStorage.sol",
  "compiler": {
    "name": "solc",
    "version": "0.8.14+commit.80d49f37.Emscripten.clang"
  },
  "schemaVersion": "3.4.10",
  "updatedAt": "2022-11-16T11:11:18.813Z",
  "devdoc": {
    "kind": "dev",
    "methods": {},
    "version": 1
  },
  "userdoc": {
    "kind": "user",
    "methods": {},
    "version": 1
  }
}