{
  "contractName": "Profile",
  "abi": [
    {
      "inputs": [
        {
          "internalType": "address",
          "name": "hubAddress",
          "type": "address"
        }
      ],
      "stateMutability": "nonpayable",
      "type": "constructor"
    },
    {
      "anonymous": false,
      "inputs": [
        {
          "indexed": false,
          "internalType": "address",
          "name": "profile",
          "type": "address"
        },
        {
          "indexed": false,
          "internalType": "address",
          "name": "newIdentity",
          "type": "address"
        }
      ],
      "name": "IdentityCreated",
      "type": "event"
    },
    {
      "anonymous": false,
      "inputs": [
        {
          "indexed": false,
          "internalType": "bytes",
          "name": "nodeId",
          "type": "bytes"
        },
        {
          "indexed": false,
          "internalType": "address",
          "name": "oldIdentity",
          "type": "address"
        },
        {
          "indexed": false,
          "internalType": "address",
          "name": "newIdentity",
          "type": "address"
        }
      ],
      "name": "IdentityTransferred",
      "type": "event"
    },
    {
      "anonymous": false,
      "inputs": [
        {
          "indexed": false,
          "internalType": "address",
          "name": "profile",
          "type": "address"
        },
        {
          "indexed": false,
          "internalType": "uint256",
          "name": "initialBalance",
          "type": "uint256"
        }
      ],
      "name": "ProfileCreated",
      "type": "event"
    },
    {
      "anonymous": false,
      "inputs": [
        {
          "indexed": false,
          "internalType": "address",
          "name": "profile",
          "type": "address"
        },
        {
          "indexed": false,
          "internalType": "uint256",
          "name": "amount",
          "type": "uint256"
        }
      ],
      "name": "TokenDeposit",
      "type": "event"
    },
    {
      "anonymous": false,
      "inputs": [
        {
          "indexed": false,
          "internalType": "address",
          "name": "profile",
          "type": "address"
        }
      ],
      "name": "TokenWithdrawalCancelled",
      "type": "event"
    },
    {
      "anonymous": false,
      "inputs": [
        {
          "indexed": false,
          "internalType": "address",
          "name": "profile",
          "type": "address"
        },
        {
          "indexed": false,
          "internalType": "uint256",
          "name": "amountDeposited",
          "type": "uint256"
        },
        {
          "indexed": false,
          "internalType": "uint256",
          "name": "newBalance",
          "type": "uint256"
        }
      ],
      "name": "TokensDeposited",
      "type": "event"
    },
    {
      "anonymous": false,
      "inputs": [
        {
          "indexed": false,
          "internalType": "address",
          "name": "profile",
          "type": "address"
        },
        {
          "indexed": false,
          "internalType": "uint256",
          "name": "amount",
          "type": "uint256"
        }
      ],
      "name": "TokensReleased",
      "type": "event"
    },
    {
      "anonymous": false,
      "inputs": [
        {
          "indexed": false,
          "internalType": "address",
          "name": "profile",
          "type": "address"
        },
        {
          "indexed": false,
          "internalType": "uint256",
          "name": "amountReserved",
          "type": "uint256"
        }
      ],
      "name": "TokensReserved",
      "type": "event"
    },
    {
      "anonymous": false,
      "inputs": [
        {
          "indexed": false,
          "internalType": "address",
          "name": "sender",
          "type": "address"
        },
        {
          "indexed": false,
          "internalType": "address",
          "name": "receiver",
          "type": "address"
        },
        {
          "indexed": false,
          "internalType": "uint256",
          "name": "amount",
          "type": "uint256"
        }
      ],
      "name": "TokensTransferred",
      "type": "event"
    },
    {
      "anonymous": false,
      "inputs": [
        {
          "indexed": false,
          "internalType": "address",
          "name": "profile",
          "type": "address"
        },
        {
          "indexed": false,
          "internalType": "uint256",
          "name": "amountWithdrawn",
          "type": "uint256"
        },
        {
          "indexed": false,
          "internalType": "uint256",
          "name": "newBalance",
          "type": "uint256"
        }
      ],
      "name": "TokensWithdrawn",
      "type": "event"
    },
    {
      "anonymous": false,
      "inputs": [
        {
          "indexed": false,
          "internalType": "address",
          "name": "profile",
          "type": "address"
        },
        {
          "indexed": false,
          "internalType": "uint256",
          "name": "amount",
          "type": "uint256"
        },
        {
          "indexed": false,
          "internalType": "uint256",
          "name": "withdrawalDelayInSeconds",
          "type": "uint256"
        }
      ],
      "name": "WithdrawalInitiated",
      "type": "event"
    },
    {
      "inputs": [],
      "name": "hub",
      "outputs": [
        {
          "internalType": "contract Hub",
          "name": "",
          "type": "address"
        }
      ],
      "stateMutability": "view",
      "type": "function"
    },
    {
      "inputs": [],
      "name": "minimalStake",
      "outputs": [
        {
          "internalType": "uint256",
          "name": "",
          "type": "uint256"
        }
      ],
      "stateMutability": "view",
      "type": "function"
    },
    {
      "inputs": [],
      "name": "withdrawalTime",
      "outputs": [
        {
          "internalType": "uint256",
          "name": "",
          "type": "uint256"
        }
      ],
      "stateMutability": "view",
      "type": "function"
    },
    {
      "inputs": [
        {
          "internalType": "address",
          "name": "managementWallet",
          "type": "address"
        },
        {
          "internalType": "bytes",
          "name": "nodeId",
          "type": "bytes"
        },
        {
          "internalType": "uint256",
          "name": "initialAsk",
          "type": "uint256"
        },
        {
          "internalType": "uint256",
          "name": "initialBalance",
          "type": "uint256"
        },
        {
          "internalType": "address",
          "name": "identity",
          "type": "address"
        }
      ],
      "name": "createProfile",
      "outputs": [],
      "stateMutability": "nonpayable",
      "type": "function"
    },
    {
      "inputs": [
        {
          "internalType": "address",
          "name": "identity",
          "type": "address"
        },
        {
          "internalType": "uint256",
          "name": "amount",
          "type": "uint256"
        }
      ],
      "name": "depositTokens",
      "outputs": [],
      "stateMutability": "nonpayable",
      "type": "function"
    },
    {
      "inputs": [
        {
          "internalType": "address",
          "name": "identity",
          "type": "address"
        },
        {
          "internalType": "uint256",
          "name": "amount",
          "type": "uint256"
        }
      ],
      "name": "startTokenWithdrawal",
      "outputs": [],
      "stateMutability": "nonpayable",
      "type": "function"
    },
    {
      "inputs": [
        {
          "internalType": "address",
          "name": "identity",
          "type": "address"
        }
      ],
      "name": "withdrawTokens",
      "outputs": [],
      "stateMutability": "nonpayable",
      "type": "function"
    },
    {
      "inputs": [
        {
          "internalType": "address",
          "name": "profile",
          "type": "address"
        },
        {
          "internalType": "uint256",
          "name": "amount",
          "type": "uint256"
        }
      ],
      "name": "releaseTokens",
      "outputs": [],
      "stateMutability": "nonpayable",
      "type": "function"
    },
    {
      "inputs": [
        {
          "internalType": "address",
          "name": "sender",
          "type": "address"
        },
        {
          "internalType": "address",
          "name": "receiver",
          "type": "address"
        },
        {
          "internalType": "uint256",
          "name": "amount",
          "type": "uint256"
        }
      ],
      "name": "transferTokens",
      "outputs": [],
      "stateMutability": "nonpayable",
      "type": "function"
    },
    {
      "inputs": [
        {
          "internalType": "uint256",
          "name": "newMinimalStake",
          "type": "uint256"
        }
      ],
      "name": "setMinimalStake",
      "outputs": [],
      "stateMutability": "nonpayable",
      "type": "function"
    },
    {
      "inputs": [
        {
          "internalType": "uint256",
          "name": "newWithdrawalTime",
          "type": "uint256"
        }
      ],
      "name": "setWithdrawalTime",
      "outputs": [],
      "stateMutability": "nonpayable",
      "type": "function"
    }
  ],
  "bytecode": "0x6080604052690a968163f0a57b40000060015561012c6002553480156200002557600080fd5b5060405162003ef538038062003ef583398181016040528101906200004b919062000136565b600073ffffffffffffffffffffffffffffffffffffffff168173ffffffffffffffffffffffffffffffffffffffff16036200008557600080fd5b806000806101000a81548173ffffffffffffffffffffffffffffffffffffffff021916908373ffffffffffffffffffffffffffffffffffffffff1602179055505062000168565b600080fd5b600073ffffffffffffffffffffffffffffffffffffffff82169050919050565b6000620000fe82620000d1565b9050919050565b6200011081620000f1565b81146200011c57600080fd5b50565b600081519050620001308162000105565b92915050565b6000602082840312156200014f576200014e620000cc565b5b60006200015f848285016200011f565b91505092915050565b613d7d80620001786000396000f3fe608060405234801561001057600080fd5b50600436106100a95760003560e01c806366168bd71161007157806366168bd71461013e57806384a467681461015a5780639ec41a2d14610176578063a64b6e5f14610194578063b6af3643146101b0578063f40d71f1146101cc576100a9565b806307ab5e84146100ae578063365a86fc146100ca578063389eb9f9146100e85780633d6ec65e1461010657806349df728c14610122575b600080fd5b6100c860048036038101906100c39190612aca565b6101e8565b005b6100d2610778565b6040516100df9190612b69565b60405180910390f35b6100f061079c565b6040516100fd9190612b93565b60405180910390f35b610120600480360381019061011b9190612bae565b6107a2565b005b61013c60048036038101906101379190612bdb565b6108b2565b005b61015860048036038101906101539190612aca565b611126565b005b610174600480360381019061016f9190612d4e565b6116e8565b005b61017e611ea5565b60405161018b9190612b93565b60405180910390f35b6101ae60048036038101906101a99190612de5565b611eab565b005b6101ca60048036038101906101c59190612bae565b61254c565b005b6101e660048036038101906101e19190612aca565b61265c565b005b8173ffffffffffffffffffffffffffffffffffffffff1663d202158d336040516020016102159190612e80565b6040516020818303038152906040528051906020012060016040518363ffffffff1660e01b815260040161024a929190612eef565b602060405180830381865afa158015610267573d6000803e3d6000fd5b505050506040513d601f19601f8201168201806040525081019061028b9190612f50565b6102ca576040517f08c379a00000000000000000000000000000000000000000000000000000000081526004016102c190613000565b60405180910390fd5b60008060009054906101000a900473ffffffffffffffffffffffffffffffffffffffff1673ffffffffffffffffffffffffffffffffffffffff166304433bbc6040518163ffffffff1660e01b81526004016103249061306c565b602060405180830381865afa158015610341573d6000803e3d6000fd5b505050506040513d601f19601f8201168201806040525081019061036591906130a1565b9050600015158173ffffffffffffffffffffffffffffffffffffffff16632ba97595856040518263ffffffff1660e01b81526004016103a491906130dd565b602060405180830381865afa1580156103c1573d6000803e3d6000fd5b505050506040513d601f19601f820116820180604052508101906103e59190612f50565b151514610427576040517f08c379a000000000000000000000000000000000000000000000000000000000815260040161041e9061316a565b60405180910390fd5b60008173ffffffffffffffffffffffffffffffffffffffff16635ffe0282856040518263ffffffff1660e01b815260040161046291906130dd565b602060405180830381865afa15801561047f573d6000803e3d6000fd5b505050506040513d601f19601f820116820180604052508101906104a3919061319f565b8273ffffffffffffffffffffffffffffffffffffffff16637a766460866040518263ffffffff1660e01b81526004016104dc91906130dd565b602060405180830381865afa1580156104f9573d6000803e3d6000fd5b505050506040513d601f19601f8201168201806040525081019061051d919061319f565b61052791906131fb565b90508173ffffffffffffffffffffffffffffffffffffffff16639385067f8560016040518363ffffffff1660e01b815260040161056592919061323e565b600060405180830381600087803b15801561057f57600080fd5b505af1158015610593573d6000803e3d6000fd5b505050508173ffffffffffffffffffffffffffffffffffffffff166367b6d27185600254426105c29190613267565b6040518363ffffffff1660e01b81526004016105df9291906132bd565b600060405180830381600087803b1580156105f957600080fd5b505af115801561060d573d6000803e3d6000fd5b505050508281106106c7578173ffffffffffffffffffffffffffffffffffffffff166382aa292885856040518363ffffffff1660e01b81526004016106539291906132bd565b600060405180830381600087803b15801561066d57600080fd5b505af1158015610681573d6000803e3d6000fd5b505050507f31f69201fab7912e3ec9850e3ab705964bf46d9d4276bdcbb6d05e965e5f540184846002546040516106ba939291906132e6565b60405180910390a1610772565b8173ffffffffffffffffffffffffffffffffffffffff166382aa292885836040518363ffffffff1660e01b81526004016107029291906132bd565b600060405180830381600087803b15801561071c57600080fd5b505af1158015610730573d6000803e3d6000fd5b505050507f31f69201fab7912e3ec9850e3ab705964bf46d9d4276bdcbb6d05e965e5f54018482600254604051610769939291906132e6565b60405180910390a15b50505050565b60008054906101000a900473ffffffffffffffffffffffffffffffffffffffff1681565b60025481565b60008054906101000a900473ffffffffffffffffffffffffffffffffffffffff1673ffffffffffffffffffffffffffffffffffffffff16638da5cb5b6040518163ffffffff1660e01b8152600401602060405180830381865afa15801561080d573d6000803e3d6000fd5b505050506040513d601f19601f8201168201806040525081019061083191906130a1565b73ffffffffffffffffffffffffffffffffffffffff163373ffffffffffffffffffffffffffffffffffffffff161461089e576040517f08c379a00000000000000000000000000000000000000000000000000000000081526004016108959061338f565b60405180910390fd5b80600154146108af57806001819055505b50565b8073ffffffffffffffffffffffffffffffffffffffff1663d202158d336040516020016108df9190612e80565b6040516020818303038152906040528051906020012060016040518363ffffffff1660e01b8152600401610914929190612eef565b602060405180830381865afa158015610931573d6000803e3d6000fd5b505050506040513d601f19601f820116820180604052508101906109559190612f50565b610994576040517f08c379a000000000000000000000000000000000000000000000000000000000815260040161098b90613000565b60405180910390fd5b60008060009054906101000a900473ffffffffffffffffffffffffffffffffffffffff1673ffffffffffffffffffffffffffffffffffffffff166304433bbc6040518163ffffffff1660e01b81526004016109ee9061306c565b602060405180830381865afa158015610a0b573d6000803e3d6000fd5b505050506040513d601f19601f82011682018060405250810190610a2f91906130a1565b905060008060009054906101000a900473ffffffffffffffffffffffffffffffffffffffff1673ffffffffffffffffffffffffffffffffffffffff166304433bbc6040518163ffffffff1660e01b8152600401610a8b906133fb565b602060405180830381865afa158015610aa8573d6000803e3d6000fd5b505050506040513d601f19601f82011682018060405250810190610acc91906130a1565b9050600115158273ffffffffffffffffffffffffffffffffffffffff16632ba97595856040518263ffffffff1660e01b8152600401610b0b91906130dd565b602060405180830381865afa158015610b28573d6000803e3d6000fd5b505050506040513d601f19601f82011682018060405250810190610b4c9190612f50565b151514610b8e576040517f08c379a0000000000000000000000000000000000000000000000000000000008152600401610b859061348d565b60405180910390fd5b428273ffffffffffffffffffffffffffffffffffffffff16639344ea6e856040518263ffffffff1660e01b8152600401610bc891906130dd565b602060405180830381865afa158015610be5573d6000803e3d6000fd5b505050506040513d601f19601f82011682018060405250810190610c09919061319f565b10610c49576040517f08c379a0000000000000000000000000000000000000000000000000000000008152600401610c409061351f565b60405180910390fd5b8173ffffffffffffffffffffffffffffffffffffffff1663bec3fa17338473ffffffffffffffffffffffffffffffffffffffff166356582bf9876040518263ffffffff1660e01b8152600401610c9f91906130dd565b602060405180830381865afa158015610cbc573d6000803e3d6000fd5b505050506040513d601f19601f82011682018060405250810190610ce0919061319f565b6040518363ffffffff1660e01b8152600401610cfd9291906132bd565b600060405180830381600087803b158015610d1757600080fd5b505af1158015610d2b573d6000803e3d6000fd5b505050508173ffffffffffffffffffffffffffffffffffffffff1663bd3cd525848473ffffffffffffffffffffffffffffffffffffffff166356582bf9876040518263ffffffff1660e01b8152600401610d8591906130dd565b602060405180830381865afa158015610da2573d6000803e3d6000fd5b505050506040513d601f19601f82011682018060405250810190610dc6919061319f565b8573ffffffffffffffffffffffffffffffffffffffff16637a766460886040518263ffffffff1660e01b8152600401610dff91906130dd565b602060405180830381865afa158015610e1c573d6000803e3d6000fd5b505050506040513d601f19601f82011682018060405250810190610e40919061319f565b610e4a91906131fb565b6040518363ffffffff1660e01b8152600401610e679291906132bd565b600060405180830381600087803b158015610e8157600080fd5b505af1158015610e95573d6000803e3d6000fd5b505050508173ffffffffffffffffffffffffffffffffffffffff16639385067f8460006040518363ffffffff1660e01b8152600401610ed592919061323e565b600060405180830381600087803b158015610eef57600080fd5b505af1158015610f03573d6000803e3d6000fd5b5050505060008273ffffffffffffffffffffffffffffffffffffffff16637a766460856040518263ffffffff1660e01b8152600401610f4291906130dd565b602060405180830381865afa158015610f5f573d6000803e3d6000fd5b505050506040513d601f19601f82011682018060405250810190610f83919061319f565b03610ff4578073ffffffffffffffffffffffffffffffffffffffff1663b2b99ec9846040518263ffffffff1660e01b8152600401610fc191906130dd565b600060405180830381600087803b158015610fdb57600080fd5b505af1158015610fef573d6000803e3d6000fd5b505050505b7fffe903c0abe6b2dbb2f3474ef43d7a3c1fca49e5a774453423ca8e1952aabffa838373ffffffffffffffffffffffffffffffffffffffff166356582bf9866040518263ffffffff1660e01b815260040161104f91906130dd565b602060405180830381865afa15801561106c573d6000803e3d6000fd5b505050506040513d601f19601f82011682018060405250810190611090919061319f565b8473ffffffffffffffffffffffffffffffffffffffff16637a766460876040518263ffffffff1660e01b81526004016110c991906130dd565b602060405180830381865afa1580156110e6573d6000803e3d6000fd5b505050506040513d601f19601f8201168201806040525081019061110a919061319f565b604051611119939291906132e6565b60405180910390a1505050565b8173ffffffffffffffffffffffffffffffffffffffff1663d202158d336040516020016111539190612e80565b6040516020818303038152906040528051906020012060016040518363ffffffff1660e01b8152600401611188929190612eef565b602060405180830381865afa1580156111a5573d6000803e3d6000fd5b505050506040513d601f19601f820116820180604052508101906111c99190612f50565b611208576040517f08c379a00000000000000000000000000000000000000000000000000000000081526004016111ff90613000565b60405180910390fd5b60008060009054906101000a900473ffffffffffffffffffffffffffffffffffffffff1673ffffffffffffffffffffffffffffffffffffffff166304433bbc6040518163ffffffff1660e01b81526004016112629061306c565b602060405180830381865afa15801561127f573d6000803e3d6000fd5b505050506040513d601f19601f820116820180604052508101906112a391906130a1565b905060008060009054906101000a900473ffffffffffffffffffffffffffffffffffffffff1673ffffffffffffffffffffffffffffffffffffffff166304433bbc6040518163ffffffff1660e01b81526004016112ff9061358b565b602060405180830381865afa15801561131c573d6000803e3d6000fd5b505050506040513d601f19601f8201168201806040525081019061134091906130a1565b9050828173ffffffffffffffffffffffffffffffffffffffff1663dd62ed3e33856040518363ffffffff1660e01b815260040161137e9291906135ab565b602060405180830381865afa15801561139b573d6000803e3d6000fd5b505050506040513d601f19601f820116820180604052508101906113bf919061319f565b1015611400576040517f08c379a00000000000000000000000000000000000000000000000000000000081526004016113f790613646565b60405180910390fd5b828173ffffffffffffffffffffffffffffffffffffffff166370a08231336040518263ffffffff1660e01b815260040161143a91906130dd565b602060405180830381865afa158015611457573d6000803e3d6000fd5b505050506040513d601f19601f8201168201806040525081019061147b919061319f565b10156114bc576040517f08c379a00000000000000000000000000000000000000000000000000000000081526004016114b3906136d8565b60405180910390fd5b8073ffffffffffffffffffffffffffffffffffffffff166323b872dd3384866040518463ffffffff1660e01b81526004016114f9939291906136f8565b6020604051808303816000875af1158015611518573d6000803e3d6000fd5b505050506040513d601f19601f8201168201806040525081019061153c9190612f50565b508173ffffffffffffffffffffffffffffffffffffffff1663bd3cd52585858573ffffffffffffffffffffffffffffffffffffffff16637a766460896040518263ffffffff1660e01b815260040161159491906130dd565b602060405180830381865afa1580156115b1573d6000803e3d6000fd5b505050506040513d601f19601f820116820180604052508101906115d5919061319f565b6115df9190613267565b6040518363ffffffff1660e01b81526004016115fc9291906132bd565b600060405180830381600087803b15801561161657600080fd5b505af115801561162a573d6000803e3d6000fd5b505050507ffdfdcf596161b0e81e3161597d46888dcc88bd83b22dcfb341c76377ca3bbc9e84848473ffffffffffffffffffffffffffffffffffffffff16637a766460886040518263ffffffff1660e01b815260040161168a91906130dd565b602060405180830381865afa1580156116a7573d6000803e3d6000fd5b505050506040513d601f19601f820116820180604052508101906116cb919061319f565b6040516116da939291906132e6565b60405180910390a150505050565b600073ffffffffffffffffffffffffffffffffffffffff168573ffffffffffffffffffffffffffffffffffffffff160361172157600080fd5b60008060009054906101000a900473ffffffffffffffffffffffffffffffffffffffff1673ffffffffffffffffffffffffffffffffffffffff166304433bbc6040518163ffffffff1660e01b815260040161177b9061358b565b602060405180830381865afa158015611798573d6000803e3d6000fd5b505050506040513d601f19601f820116820180604052508101906117bc91906130a1565b9050828173ffffffffffffffffffffffffffffffffffffffff1663dd62ed3e33306040518363ffffffff1660e01b81526004016117fa9291906135ab565b602060405180830381865afa158015611817573d6000803e3d6000fd5b505050506040513d601f19601f8201168201806040525081019061183b919061319f565b101561187c576040517f08c379a0000000000000000000000000000000000000000000000000000000008152600401611873906137a1565b60405180910390fd5b828173ffffffffffffffffffffffffffffffffffffffff166370a08231336040518263ffffffff1660e01b81526004016118b691906130dd565b602060405180830381865afa1580156118d3573d6000803e3d6000fd5b505050506040513d601f19601f820116820180604052508101906118f7919061319f565b1015611938576040517f08c379a000000000000000000000000000000000000000000000000000000000815260040161192f90613833565b60405180910390fd5b600085510361197c576040517f08c379a0000000000000000000000000000000000000000000000000000000008152600401611973906138c5565b60405180910390fd5b60008060009054906101000a900473ffffffffffffffffffffffffffffffffffffffff1673ffffffffffffffffffffffffffffffffffffffff166304433bbc6040518163ffffffff1660e01b81526004016119d69061306c565b602060405180830381865afa1580156119f3573d6000803e3d6000fd5b505050506040513d601f19601f82011682018060405250810190611a1791906130a1565b905060008060009054906101000a900473ffffffffffffffffffffffffffffffffffffffff1673ffffffffffffffffffffffffffffffffffffffff166304433bbc6040518163ffffffff1660e01b8152600401611a73906133fb565b602060405180830381865afa158015611a90573d6000803e3d6000fd5b505050506040513d601f19601f82011682018060405250810190611ab491906130a1565b90508273ffffffffffffffffffffffffffffffffffffffff166323b872dd3360008054906101000a900473ffffffffffffffffffffffffffffffffffffffff1673ffffffffffffffffffffffffffffffffffffffff166304433bbc6040518163ffffffff1660e01b8152600401611b2a9061306c565b602060405180830381865afa158015611b47573d6000803e3d6000fd5b505050506040513d601f19601f82011682018060405250810190611b6b91906130a1565b886040518463ffffffff1660e01b8152600401611b8a939291906136f8565b6020604051808303816000875af1158015611ba9573d6000803e3d6000fd5b505050506040513d601f19601f82011682018060405250810190611bcd9190612f50565b508373ffffffffffffffffffffffffffffffffffffffff1663d202158d33604051602001611bfb9190612e80565b6040516020818303038152906040528051906020012060026040518363ffffffff1660e01b8152600401611c30929190613920565b602060405180830381865afa158015611c4d573d6000803e3d6000fd5b505050506040513d601f19601f82011682018060405250810190611c719190612f50565b611cb0576040517f08c379a0000000000000000000000000000000000000000000000000000000008152600401611ca7906139bb565b60405180910390fd5b8173ffffffffffffffffffffffffffffffffffffffff1663bd3cd52585876040518363ffffffff1660e01b8152600401611ceb9291906132bd565b600060405180830381600087803b158015611d0557600080fd5b505af1158015611d19573d6000803e3d6000fd5b505050508173ffffffffffffffffffffffffffffffffffffffff1663de1e395d85886040518363ffffffff1660e01b8152600401611d589291906132bd565b600060405180830381600087803b158015611d7257600080fd5b505af1158015611d86573d6000803e3d6000fd5b505050508173ffffffffffffffffffffffffffffffffffffffff1663adc4bd9885896040518363ffffffff1660e01b8152600401611dc5929190613a63565b600060405180830381600087803b158015611ddf57600080fd5b505af1158015611df3573d6000803e3d6000fd5b505050508073ffffffffffffffffffffffffffffffffffffffff1663495a6ada856040518263ffffffff1660e01b8152600401611e3091906130dd565b600060405180830381600087803b158015611e4a57600080fd5b505af1158015611e5e573d6000803e3d6000fd5b505050507fcb939889322fed25104a5d8945bde5162563412a1fd718946cdcacb03088ea088486604051611e939291906132bd565b60405180910390a15050505050505050565b60015481565b60008054906101000a900473ffffffffffffffffffffffffffffffffffffffff1673ffffffffffffffffffffffffffffffffffffffff166304433bbc6040518163ffffffff1660e01b8152600401611f0290613adf565b602060405180830381865afa158015611f1f573d6000803e3d6000fd5b505050506040513d601f19601f82011682018060405250810190611f4391906130a1565b73ffffffffffffffffffffffffffffffffffffffff163373ffffffffffffffffffffffffffffffffffffffff1614611fb0576040517f08c379a0000000000000000000000000000000000000000000000000000000008152600401611fa790613b71565b60405180910390fd5b600073ffffffffffffffffffffffffffffffffffffffff168373ffffffffffffffffffffffffffffffffffffffff161415801561201a5750600073ffffffffffffffffffffffffffffffffffffffff168273ffffffffffffffffffffffffffffffffffffffff1614155b61202357600080fd5b60008060009054906101000a900473ffffffffffffffffffffffffffffffffffffffff1673ffffffffffffffffffffffffffffffffffffffff166304433bbc6040518163ffffffff1660e01b815260040161207d9061306c565b602060405180830381865afa15801561209a573d6000803e3d6000fd5b505050506040513d601f19601f820116820180604052508101906120be91906130a1565b9050818173ffffffffffffffffffffffffffffffffffffffff16637a766460866040518263ffffffff1660e01b81526004016120fa91906130dd565b602060405180830381865afa158015612117573d6000803e3d6000fd5b505050506040513d601f19601f8201168201806040525081019061213b919061319f565b101561217c576040517f08c379a000000000000000000000000000000000000000000000000000000000815260040161217390613c03565b60405180910390fd5b818173ffffffffffffffffffffffffffffffffffffffff16635ffe0282866040518263ffffffff1660e01b81526004016121b691906130dd565b602060405180830381865afa1580156121d3573d6000803e3d6000fd5b505050506040513d601f19601f820116820180604052508101906121f7919061319f565b1015612238576040517f08c379a000000000000000000000000000000000000000000000000000000000815260040161222f90613c95565b60405180910390fd5b8073ffffffffffffffffffffffffffffffffffffffff166350c3ff5785848473ffffffffffffffffffffffffffffffffffffffff16635ffe0282896040518263ffffffff1660e01b815260040161228f91906130dd565b602060405180830381865afa1580156122ac573d6000803e3d6000fd5b505050506040513d601f19601f820116820180604052508101906122d0919061319f565b6122da91906131fb565b6040518363ffffffff1660e01b81526004016122f79291906132bd565b600060405180830381600087803b15801561231157600080fd5b505af1158015612325573d6000803e3d6000fd5b505050508073ffffffffffffffffffffffffffffffffffffffff1663bd3cd52585848473ffffffffffffffffffffffffffffffffffffffff16637a766460896040518263ffffffff1660e01b815260040161238091906130dd565b602060405180830381865afa15801561239d573d6000803e3d6000fd5b505050506040513d601f19601f820116820180604052508101906123c1919061319f565b6123cb91906131fb565b6040518363ffffffff1660e01b81526004016123e89291906132bd565b600060405180830381600087803b15801561240257600080fd5b505af1158015612416573d6000803e3d6000fd5b505050508073ffffffffffffffffffffffffffffffffffffffff1663bd3cd52584848473ffffffffffffffffffffffffffffffffffffffff16637a766460886040518263ffffffff1660e01b815260040161247191906130dd565b602060405180830381865afa15801561248e573d6000803e3d6000fd5b505050506040513d601f19601f820116820180604052508101906124b2919061319f565b6124bc9190613267565b6040518363ffffffff1660e01b81526004016124d99291906132bd565b600060405180830381600087803b1580156124f357600080fd5b505af1158015612507573d6000803e3d6000fd5b505050507f1b89874203ff7f0bba87c969ada3f32fda22ed38a6706d35199d21280c7811b184848460405161253e939291906136f8565b60405180910390a150505050565b60008054906101000a900473ffffffffffffffffffffffffffffffffffffffff1673ffffffffffffffffffffffffffffffffffffffff16638da5cb5b6040518163ffffffff1660e01b8152600401602060405180830381865afa1580156125b7573d6000803e3d6000fd5b505050506040513d601f19601f820116820180604052508101906125db91906130a1565b73ffffffffffffffffffffffffffffffffffffffff163373ffffffffffffffffffffffffffffffffffffffff1614612648576040517f08c379a000000000000000000000000000000000000000000000000000000000815260040161263f9061338f565b60405180910390fd5b806002541461265957806002819055505b50565b60008054906101000a900473ffffffffffffffffffffffffffffffffffffffff1673ffffffffffffffffffffffffffffffffffffffff166304433bbc6040518163ffffffff1660e01b81526004016126b390613adf565b602060405180830381865afa1580156126d0573d6000803e3d6000fd5b505050506040513d601f19601f820116820180604052508101906126f491906130a1565b73ffffffffffffffffffffffffffffffffffffffff163373ffffffffffffffffffffffffffffffffffffffff1614612761576040517f08c379a000000000000000000000000000000000000000000000000000000000815260040161275890613b71565b60405180910390fd5b600073ffffffffffffffffffffffffffffffffffffffff168273ffffffffffffffffffffffffffffffffffffffff160361279a57600080fd5b60008060009054906101000a900473ffffffffffffffffffffffffffffffffffffffff1673ffffffffffffffffffffffffffffffffffffffff166304433bbc6040518163ffffffff1660e01b81526004016127f49061306c565b602060405180830381865afa158015612811573d6000803e3d6000fd5b505050506040513d601f19601f8201168201806040525081019061283591906130a1565b9050818173ffffffffffffffffffffffffffffffffffffffff16635ffe0282856040518263ffffffff1660e01b815260040161287191906130dd565b602060405180830381865afa15801561288e573d6000803e3d6000fd5b505050506040513d601f19601f820116820180604052508101906128b2919061319f565b10156128f3576040517f08c379a00000000000000000000000000000000000000000000000000000000081526004016128ea90613d27565b60405180910390fd5b8073ffffffffffffffffffffffffffffffffffffffff166350c3ff5784848473ffffffffffffffffffffffffffffffffffffffff16635ffe0282886040518263ffffffff1660e01b815260040161294a91906130dd565b602060405180830381865afa158015612967573d6000803e3d6000fd5b505050506040513d601f19601f8201168201806040525081019061298b919061319f565b61299591906131fb565b6040518363ffffffff1660e01b81526004016129b29291906132bd565b600060405180830381600087803b1580156129cc57600080fd5b505af11580156129e0573d6000803e3d6000fd5b505050507fc7798891864187665ac6dd119286e44ec13f014527aeeb2b8eb3fd413df931798383604051612a159291906132bd565b60405180910390a1505050565b6000604051905090565b600080fd5b600080fd5b600073ffffffffffffffffffffffffffffffffffffffff82169050919050565b6000612a6182612a36565b9050919050565b612a7181612a56565b8114612a7c57600080fd5b50565b600081359050612a8e81612a68565b92915050565b6000819050919050565b612aa781612a94565b8114612ab257600080fd5b50565b600081359050612ac481612a9e565b92915050565b60008060408385031215612ae157612ae0612a2c565b5b6000612aef85828601612a7f565b9250506020612b0085828601612ab5565b9150509250929050565b6000819050919050565b6000612b2f612b2a612b2584612a36565b612b0a565b612a36565b9050919050565b6000612b4182612b14565b9050919050565b6000612b5382612b36565b9050919050565b612b6381612b48565b82525050565b6000602082019050612b7e6000830184612b5a565b92915050565b612b8d81612a94565b82525050565b6000602082019050612ba86000830184612b84565b92915050565b600060208284031215612bc457612bc3612a2c565b5b6000612bd284828501612ab5565b91505092915050565b600060208284031215612bf157612bf0612a2c565b5b6000612bff84828501612a7f565b91505092915050565b600080fd5b600080fd5b6000601f19601f8301169050919050565b7f4e487b7100000000000000000000000000000000000000000000000000000000600052604160045260246000fd5b612c5b82612c12565b810181811067ffffffffffffffff82111715612c7a57612c79612c23565b5b80604052505050565b6000612c8d612a22565b9050612c998282612c52565b919050565b600067ffffffffffffffff821115612cb957612cb8612c23565b5b612cc282612c12565b9050602081019050919050565b82818337600083830152505050565b6000612cf1612cec84612c9e565b612c83565b905082815260208101848484011115612d0d57612d0c612c0d565b5b612d18848285612ccf565b509392505050565b600082601f830112612d3557612d34612c08565b5b8135612d45848260208601612cde565b91505092915050565b600080600080600060a08688031215612d6a57612d69612a2c565b5b6000612d7888828901612a7f565b955050602086013567ffffffffffffffff811115612d9957612d98612a31565b5b612da588828901612d20565b9450506040612db688828901612ab5565b9350506060612dc788828901612ab5565b9250506080612dd888828901612a7f565b9150509295509295909350565b600080600060608486031215612dfe57612dfd612a2c565b5b6000612e0c86828701612a7f565b9350506020612e1d86828701612a7f565b9250506040612e2e86828701612ab5565b9150509250925092565b60008160601b9050919050565b6000612e5082612e38565b9050919050565b6000612e6282612e45565b9050919050565b612e7a612e7582612a56565b612e57565b82525050565b6000612e8c8284612e69565b60148201915081905092915050565b6000819050919050565b612eae81612e9b565b82525050565b6000819050919050565b6000612ed9612ed4612ecf84612eb4565b612b0a565b612a94565b9050919050565b612ee981612ebe565b82525050565b6000604082019050612f046000830185612ea5565b612f116020830184612ee0565b9392505050565b60008115159050919050565b612f2d81612f18565b8114612f3857600080fd5b50565b600081519050612f4a81612f24565b92915050565b600060208284031215612f6657612f65612a2c565b5b6000612f7484828501612f3b565b91505092915050565b600082825260208201905092915050565b7f53656e64657220646f6573206e6f742068617665206d616e6167656d656e742060008201527f7065726d697373696f6e20666f72206964656e74697479210000000000000000602082015250565b6000612fea603883612f7d565b9150612ff582612f8e565b604082019050919050565b6000602082019050818103600083015261301981612fdd565b9050919050565b7f50726f66696c6553746f72616765000000000000000000000000000000000000600082015250565b6000613056600e83612f7d565b915061306182613020565b602082019050919050565b6000602082019050818103600083015261308581613049565b9050919050565b60008151905061309b81612a68565b92915050565b6000602082840312156130b7576130b6612a2c565b5b60006130c58482850161308c565b91505092915050565b6130d781612a56565b82525050565b60006020820190506130f260008301846130ce565b92915050565b7f576974687264726177616c2070726f6365737320616c72656164792070656e6460008201527f696e672100000000000000000000000000000000000000000000000000000000602082015250565b6000613154602483612f7d565b915061315f826130f8565b604082019050919050565b6000602082019050818103600083015261318381613147565b9050919050565b60008151905061319981612a9e565b92915050565b6000602082840312156131b5576131b4612a2c565b5b60006131c38482850161318a565b91505092915050565b7f4e487b7100000000000000000000000000000000000000000000000000000000600052601160045260246000fd5b600061320682612a94565b915061321183612a94565b925082821015613224576132236131cc565b5b828203905092915050565b61323881612f18565b82525050565b600060408201905061325360008301856130ce565b613260602083018461322f565b9392505050565b600061327282612a94565b915061327d83612a94565b9250827fffffffffffffffffffffffffffffffffffffffffffffffffffffffffffffffff038211156132b2576132b16131cc565b5b828201905092915050565b60006040820190506132d260008301856130ce565b6132df6020830184612b84565b9392505050565b60006060820190506132fb60008301866130ce565b6133086020830185612b84565b6133156040830184612b84565b949350505050565b7f46756e6374696f6e2063616e206f6e6c792062652063616c6c6564206279206860008201527f7562206f776e6572210000000000000000000000000000000000000000000000602082015250565b6000613379602983612f7d565b91506133848261331d565b604082019050919050565b600060208201905081810360008301526133a88161336c565b9050919050565b7f5368617264696e675461626c6500000000000000000000000000000000000000600082015250565b60006133e5600d83612f7d565b91506133f0826133af565b602082019050919050565b60006020820190508181036000830152613414816133d8565b9050919050565b7f43616e6e6f7420776974686472617720746f6b656e73206265666f726520737460008201527f617274696e6720746f6b656e207769746864726177616c210000000000000000602082015250565b6000613477603883612f7d565b91506134828261341b565b604082019050919050565b600060208201905081810360008301526134a68161346a565b9050919050565b7f43616e6e6f7420776974686472617720746f6b656e73206265666f726520776960008201527f746864726177616c2074696d657374616d702100000000000000000000000000602082015250565b6000613509603383612f7d565b9150613514826134ad565b604082019050919050565b60006020820190508181036000830152613538816134fc565b9050919050565b7f546f6b656e000000000000000000000000000000000000000000000000000000600082015250565b6000613575600583612f7d565b91506135808261353f565b602082019050919050565b600060208201905081810360008301526135a481613568565b9050919050565b60006040820190506135c060008301856130ce565b6135cd60208301846130ce565b9392505050565b7f53656e64657220616c6c6f77616e6365206d75737420626520657175616c207460008201527f6f206f7220686967686572207468616e2063686f73656e20616d6f756e740000602082015250565b6000613630603e83612f7d565b915061363b826135d4565b604082019050919050565b6000602082019050818103600083015261365f81613623565b9050919050565b7f53656e6465722062616c616e6365206d75737420626520657175616c20746f2060008201527f6f7220686967686572207468616e2063686f73656e20616d6f756e7421000000602082015250565b60006136c2603d83612f7d565b91506136cd82613666565b604082019050919050565b600060208201905081810360008301526136f1816136b5565b9050919050565b600060608201905061370d60008301866130ce565b61371a60208301856130ce565b6137276040830184612b84565b949350505050565b7f53656e64657220616c6c6f77616e6365206d75737420626520657175616c207460008201527f6f206f7220686967686572207468616e20696e697469616c2062616c616e6365602082015250565b600061378b604083612f7d565b91506137968261372f565b604082019050919050565b600060208201905081810360008301526137ba8161377e565b9050919050565b7f53656e6465722062616c616e6365206d75737420626520657175616c20746f2060008201527f6f7220686967686572207468616e20696e697469616c2062616c616e63652100602082015250565b600061381d603f83612f7d565b9150613828826137c1565b604082019050919050565b6000602082019050818103600083015261384c81613810565b9050919050565b7f43616e6e6f742063726561746520612070726f66696c6520776974686f75742060008201527f61206e6f64654964207375626d69747465640000000000000000000000000000602082015250565b60006138af603283612f7d565b91506138ba82613853565b604082019050919050565b600060208201905081810360008301526138de816138a2565b9050919050565b6000819050919050565b600061390a613905613900846138e5565b612b0a565b612a94565b9050919050565b61391a816138ef565b82525050565b60006040820190506139356000830185612ea5565b6139426020830184613911565b9392505050565b7f53656e64657220646f6573206e6f74206861766520616374696f6e207065726d60008201527f697373696f6e20666f72206964656e7469747921000000000000000000000000602082015250565b60006139a5603483612f7d565b91506139b082613949565b604082019050919050565b600060208201905081810360008301526139d481613998565b9050919050565b600081519050919050565b600082825260208201905092915050565b60005b83811015613a155780820151818401526020810190506139fa565b83811115613a24576000848401525b50505050565b6000613a35826139db565b613a3f81856139e6565b9350613a4f8185602086016139f7565b613a5881612c12565b840191505092915050565b6000604082019050613a7860008301856130ce565b8181036020830152613a8a8184613a2a565b90509392505050565b7f486f6c64696e6700000000000000000000000000000000000000000000000000600082015250565b6000613ac9600783612f7d565b9150613ad482613a93565b602082019050919050565b60006020820190508181036000830152613af881613abc565b9050919050565b7f46756e6374696f6e2063616e206f6e6c792062652063616c6c6564206279204860008201527f6f6c64696e6720636f6e74726163742100000000000000000000000000000000602082015250565b6000613b5b603083612f7d565b9150613b6682613aff565b604082019050919050565b60006020820190508181036000830152613b8a81613b4e565b9050919050565b7f53656e64657220646f6573206e6f74206861766520656e6f75676820746f6b6560008201527f6e7320746f207472616e73666572210000000000000000000000000000000000602082015250565b6000613bed602f83612f7d565b9150613bf882613b91565b604082019050919050565b60006020820190508181036000830152613c1c81613be0565b9050919050565b7f53656e64657220646f6573206e6f74206861766520656e6f75676820746f6b6560008201527f6e7320726573657276656420746f207472616e73666572210000000000000000602082015250565b6000613c7f603883612f7d565b9150613c8a82613c23565b604082019050919050565b60006020820190508181036000830152613cae81613c72565b9050919050565b7f43616e6e6f742072656c65617365206d6f726520746f6b656e73207468616e2060008201527f7468657265206172652072657365727665640000000000000000000000000000602082015250565b6000613d11603283612f7d565b9150613d1c82613cb5565b604082019050919050565b60006020820190508181036000830152613d4081613d04565b905091905056fea2646970667358221220a4e1123e032b32d54144a9f322ec9db36fb1693bd2f424440952ad57bdac63a764736f6c634300080e0033",
  "immutableReferences": {},
  "source": "// SPDX-License-Identifier: MIT\n\npragma solidity ^0.8.0;\n\nimport {ProfileStorage} from './storage/ProfileStorage.sol';\nimport {ShardingTable} from './ShardingTable.sol';\nimport {Ownable, Hub} from './Hub.sol';\nimport {Identity, ERC734} from './Identity.sol';\nimport \"@openzeppelin/contracts/token/ERC20/ERC20.sol\";\n\n\ncontract Profile {\n    Hub public hub;\n\n    uint256 public minimalStake = 5*10**22;\n    uint256 public withdrawalTime = 5 minutes;\n\n    constructor(address hubAddress) {\n        require(hubAddress != address(0));\n        hub = Hub(hubAddress);\n    }\n\n    modifier onlyHolding(){\n        require(msg.sender == hub.getContractAddress(\"Holding\"),\n        \"Function can only be called by Holding contract!\");\n        _;\n    }\n\n    event ProfileCreated(address profile, uint256 initialBalance);\n    event IdentityCreated(address profile, address newIdentity);\n    event IdentityTransferred(bytes nodeId, address oldIdentity, address newIdentity);\n    event TokenDeposit(address profile, uint256 amount);\n\n    event TokensDeposited(address profile, uint256 amountDeposited, uint256 newBalance);\n    event TokensReserved(address profile, uint256 amountReserved);\n\n    event WithdrawalInitiated(address profile, uint256 amount, uint256 withdrawalDelayInSeconds);\n    event TokenWithdrawalCancelled(address profile);\n    event TokensWithdrawn(address profile, uint256 amountWithdrawn, uint256 newBalance);\n\n    event TokensReleased(address profile, uint256 amount);\n    event TokensTransferred(address sender, address receiver, uint256 amount);\n\n    function createProfile(address managementWallet, bytes memory nodeId, uint256 initialAsk, uint256 initialBalance, address identity) public {\n        require(managementWallet != address(0));\n        ERC20 tokenContract = ERC20(hub.getContractAddress(\"Token\"));\n        require(tokenContract.allowance(msg.sender, address(this)) >= initialBalance, \"Sender allowance must be equal to or higher than initial balance\");\n        require(tokenContract.balanceOf(msg.sender) >= initialBalance, \"Sender balance must be equal to or higher than initial balance!\");\n        require(nodeId.length != 0, \"Cannot create a profile without a nodeId submitted\");\n\n        ProfileStorage profileStorage = ProfileStorage(hub.getContractAddress(\"ProfileStorage\"));\n        ShardingTable shardingTable = ShardingTable(hub.getContractAddress(\"ShardingTable\"));\n\n        tokenContract.transferFrom(msg.sender, hub.getContractAddress(\"ProfileStorage\"), initialBalance);\n        require(ERC734(identity).keyHasPurpose(keccak256(abi.encodePacked(msg.sender)), 2),  \"Sender does not have action permission for identity!\");\n\n        profileStorage.setStake(identity, initialBalance);\n        profileStorage.setAsk(identity, initialAsk);\n        profileStorage.setNodeId(identity, nodeId);\n\n        shardingTable.pushBack(identity);\n\n        emit ProfileCreated(identity, initialBalance);\n    }\n\n    function depositTokens(address identity, uint256 amount) public {\n        require(ERC734(identity).keyHasPurpose(keccak256(abi.encodePacked(msg.sender)), 1),  \"Sender does not have management permission for identity!\");\n\n        ProfileStorage profileStorage = ProfileStorage(hub.getContractAddress(\"ProfileStorage\"));\n\n        ERC20 tokenContract = ERC20(hub.getContractAddress(\"Token\"));\n        require(tokenContract.allowance(msg.sender, address(profileStorage)) >= amount, \"Sender allowance must be equal to or higher than chosen amount\");\n        require(tokenContract.balanceOf(msg.sender) >= amount, \"Sender balance must be equal to or higher than chosen amount!\");\n\n        tokenContract.transferFrom(msg.sender, address(profileStorage), amount);\n\n        profileStorage.setStake(identity, profileStorage.getStake(identity) + amount);\n\n        emit TokensDeposited(identity, amount, profileStorage.getStake(identity));\n    }\n\n    function startTokenWithdrawal(address identity, uint256 amount) public {\n        require(ERC734(identity).keyHasPurpose(keccak256(abi.encodePacked(msg.sender)), 1),  \"Sender does not have management permission for identity!\");\n\n        ProfileStorage profileStorage = ProfileStorage(hub.getContractAddress(\"ProfileStorage\"));\n\n        require(profileStorage.getWithdrawalPending(identity) == false, \"Withrdrawal process already pending!\");\n\n        uint256 availableBalance = profileStorage.getStake(identity) - (profileStorage.getStakeReserved(identity));\n\n        profileStorage.setWithdrawalPending(identity, true);\n        profileStorage.setWithdrawalTimestamp(identity, block.timestamp + withdrawalTime);\n        if(availableBalance >= amount) {\n            // Reserve chosen token amount\n            profileStorage.setWithdrawalAmount(identity, amount);\n            emit WithdrawalInitiated(identity, amount, withdrawalTime);\n        }\n        else {\n            // Reserve only the available balance\n            profileStorage.setWithdrawalAmount(identity, availableBalance);\n            emit WithdrawalInitiated(identity, availableBalance, withdrawalTime);\n        }\n    }\n\n    function withdrawTokens(address identity) public {\n        // Verify sender\n        require(ERC734(identity).keyHasPurpose(keccak256(abi.encodePacked(msg.sender)), 1),  \"Sender does not have management permission for identity!\");\n\n        ProfileStorage profileStorage = ProfileStorage(hub.getContractAddress(\"ProfileStorage\"));\n        ShardingTable shardingTable = ShardingTable(hub.getContractAddress(\"ShardingTable\"));\n\n        require(profileStorage.getWithdrawalPending(identity) == true, \"Cannot withdraw tokens before starting token withdrawal!\");\n        require(profileStorage.getWithdrawalTimestamp(identity) < block.timestamp, \"Cannot withdraw tokens before withdrawal timestamp!\");\n\n        // Transfer already reserved tokens to user identity\n        profileStorage.transferTokens(msg.sender, profileStorage.getWithdrawalAmount(identity));\n\n        profileStorage.setStake(\n            identity,\n            profileStorage.getStake(identity) - (profileStorage.getWithdrawalAmount(identity))\n        );\n\n        profileStorage.setWithdrawalPending(identity, false);\n\n        if (profileStorage.getStake(identity) == 0) {\n            shardingTable.removeNode(identity);\n        }\n\n        emit TokensWithdrawn(\n            identity,\n            profileStorage.getWithdrawalAmount(identity),\n            profileStorage.getStake(identity)\n        );\n    }\n\n    function releaseTokens(address profile, uint256 amount)\n    public onlyHolding {\n        require(profile!=address(0));\n        ProfileStorage profileStorage = ProfileStorage(hub.getContractAddress(\"ProfileStorage\"));\n\n        require(profileStorage.getStakeReserved(profile) >= amount, \"Cannot release more tokens than there are reserved\");\n\n        profileStorage.setStakeReserved(profile, profileStorage.getStakeReserved(profile) - (amount));\n\n        emit TokensReleased(profile, amount);\n    }\n\n    function transferTokens(address sender, address receiver, uint256 amount)\n    public onlyHolding {\n        require(sender!=address(0) && receiver!=address(0));\n        ProfileStorage profileStorage = ProfileStorage(hub.getContractAddress(\"ProfileStorage\"));\n\n        require(profileStorage.getStake(sender) >= amount, \"Sender does not have enough tokens to transfer!\");\n        require(profileStorage.getStakeReserved(sender) >= amount, \"Sender does not have enough tokens reserved to transfer!\");\n\n        profileStorage.setStakeReserved(sender, profileStorage.getStakeReserved(sender) - (amount));\n        profileStorage.setStake(sender, profileStorage.getStake(sender) - (amount));\n        profileStorage.setStake(receiver, profileStorage.getStake(receiver) + (amount));\n\n        emit TokensTransferred(sender, receiver, amount);\n    }\n\n    function setMinimalStake(uint256 newMinimalStake)\n    public {\n        require (msg.sender == hub.owner(), \"Function can only be called by hub owner!\");\n        if(minimalStake != newMinimalStake) minimalStake = newMinimalStake;\n    }\n\n    function setWithdrawalTime(uint256 newWithdrawalTime)\n    public {\n        require (msg.sender == hub.owner(), \"Function can only be called by hub owner!\");\n        if(withdrawalTime != newWithdrawalTime) withdrawalTime = newWithdrawalTime;\n    }\n}\n",
  "sourcePath": "/Users/waving/Desktop/OriginTrail/dkg-evm-module/contracts/Profile.sol",
  "compiler": {
    "name": "solc",
    "version": "0.8.14+commit.80d49f37.Emscripten.clang"
  },
  "schemaVersion": "3.4.10",
  "updatedAt": "2022-10-27T09:28:26.732Z",
  "devdoc": {
    "kind": "dev",
    "methods": {},
    "version": 1
  },
  "userdoc": {
    "kind": "user",
    "methods": {},
    "version": 1
  }
}