{
  "contractName": "Profile",
  "abi": [
    {
      "inputs": [
        {
          "internalType": "address",
          "name": "hubAddress",
          "type": "address"
        }
      ],
      "stateMutability": "nonpayable",
      "type": "constructor"
    },
    {
      "anonymous": false,
      "inputs": [
        {
          "indexed": true,
          "internalType": "uint72",
          "name": "identityId",
          "type": "uint72"
        },
        {
          "indexed": false,
          "internalType": "bytes",
          "name": "nodeId",
          "type": "bytes"
        },
        {
          "indexed": false,
          "internalType": "uint96",
          "name": "ask",
          "type": "uint96"
        }
      ],
      "name": "AskUpdated",
      "type": "event"
    },
    {
      "anonymous": false,
      "inputs": [
        {
          "indexed": true,
          "internalType": "uint72",
          "name": "identityId",
          "type": "uint72"
        },
        {
          "indexed": false,
          "internalType": "bytes",
          "name": "nodeId",
          "type": "bytes"
        }
      ],
      "name": "ProfileCreated",
      "type": "event"
    },
    {
      "anonymous": false,
      "inputs": [
        {
          "indexed": true,
          "internalType": "uint72",
          "name": "identityId",
          "type": "uint72"
        }
      ],
      "name": "ProfileDeleted",
      "type": "event"
    },
    {
      "inputs": [],
      "name": "hashingProxy",
      "outputs": [
        {
          "internalType": "contract HashingProxy",
          "name": "",
          "type": "address"
        }
      ],
      "stateMutability": "view",
      "type": "function"
    },
    {
      "inputs": [],
      "name": "hub",
      "outputs": [
        {
          "internalType": "contract Hub",
          "name": "",
          "type": "address"
        }
      ],
      "stateMutability": "view",
      "type": "function"
    },
    {
      "inputs": [],
      "name": "identityContract",
      "outputs": [
        {
          "internalType": "contract Identity",
          "name": "",
          "type": "address"
        }
      ],
      "stateMutability": "view",
      "type": "function"
    },
    {
      "inputs": [],
      "name": "identityStorage",
      "outputs": [
        {
          "internalType": "contract IdentityStorage",
          "name": "",
          "type": "address"
        }
      ],
      "stateMutability": "view",
      "type": "function"
    },
    {
      "inputs": [],
      "name": "parametersStorage",
      "outputs": [
        {
          "internalType": "contract ParametersStorage",
          "name": "",
          "type": "address"
        }
      ],
      "stateMutability": "view",
      "type": "function"
    },
    {
      "inputs": [],
      "name": "profileStorage",
      "outputs": [
        {
          "internalType": "contract ProfileStorage",
          "name": "",
          "type": "address"
        }
      ],
      "stateMutability": "view",
      "type": "function"
    },
    {
      "inputs": [],
      "name": "stakingContract",
      "outputs": [
        {
          "internalType": "contract Staking",
          "name": "",
          "type": "address"
        }
      ],
      "stateMutability": "view",
      "type": "function"
    },
    {
      "inputs": [],
      "name": "whitelistStorage",
      "outputs": [
        {
          "internalType": "contract WhitelistStorage",
          "name": "",
          "type": "address"
        }
      ],
      "stateMutability": "view",
      "type": "function"
    },
    {
      "inputs": [],
      "name": "initialize",
      "outputs": [],
      "stateMutability": "nonpayable",
      "type": "function"
    },
    {
      "inputs": [],
      "name": "name",
      "outputs": [
        {
          "internalType": "string",
          "name": "",
          "type": "string"
        }
      ],
      "stateMutability": "pure",
      "type": "function"
    },
    {
      "inputs": [],
      "name": "version",
      "outputs": [
        {
          "internalType": "string",
          "name": "",
          "type": "string"
        }
      ],
      "stateMutability": "pure",
      "type": "function"
    },
    {
      "inputs": [
        {
          "internalType": "address",
          "name": "adminWallet",
          "type": "address"
        },
        {
          "internalType": "bytes",
          "name": "nodeId",
          "type": "bytes"
        },
        {
          "internalType": "string",
          "name": "sharesTokenName",
          "type": "string"
        },
        {
          "internalType": "string",
          "name": "sharesTokenSymbol",
          "type": "string"
        }
      ],
      "name": "createProfile",
      "outputs": [],
      "stateMutability": "nonpayable",
      "type": "function"
    },
    {
      "inputs": [
        {
          "internalType": "uint72",
          "name": "identityId",
          "type": "uint72"
        },
        {
          "internalType": "uint96",
          "name": "ask",
          "type": "uint96"
        }
      ],
      "name": "setAsk",
      "outputs": [],
      "stateMutability": "nonpayable",
      "type": "function"
    },
    {
      "inputs": [
        {
          "internalType": "uint72",
          "name": "identityId",
          "type": "uint72"
        }
      ],
      "name": "stakeAccumulatedOperatorFee",
      "outputs": [],
      "stateMutability": "nonpayable",
      "type": "function"
    },
    {
      "inputs": [
        {
          "internalType": "uint72",
          "name": "identityId",
          "type": "uint72"
        }
      ],
      "name": "startAccumulatedOperatorFeeWithdrawal",
      "outputs": [],
      "stateMutability": "nonpayable",
      "type": "function"
    },
    {
      "inputs": [
        {
          "internalType": "uint72",
          "name": "identityId",
          "type": "uint72"
        }
      ],
      "name": "withdrawAccumulatedOperatorFee",
      "outputs": [],
      "stateMutability": "nonpayable",
      "type": "function"
    }
  ],
  "bytecode": "0x6080604090808252346200047e5762003684803803809162000022828562000483565b83396001600160a01b039182916200003e9190810190620004bd565b169081156200043a57600080546001600160a01b0319908116841782558451638da5cb5b60e01b815290936020916004919083818481855afa908115620004305790869186916200040e575b50163303620003cd57865190630110ceef60e21b9081835284848401526024600c818501526044906b48617368696e6750726f787960a01b8286015260649487818781875afa9081156200031957908a918a91620003ab575b50168a60015416176001558a518481528787820152600882820152674964656e7469747960c01b8382015287818781875afa9081156200031957908a918a9162000389575b50168a60025416176002558a518481528787820152600782820152665374616b696e6760c81b8382015287818781875afa9081156200031957908a918a9162000367575b50168a60035416176003558a518481528787820152600f828201526e4964656e7469747953746f7261676560881b8382015287818781875afa9081156200031957908a918a9162000345575b50168a8754161786558a51848152878782015260118282015270506172616d657465727353746f7261676560781b8382015287818781875afa9081156200031957908a918a9162000323575b50168a60055416176005558a518481528787820152600e828201526d50726f66696c6553746f7261676560901b8382015287818781875afa908115620003195792601089989694938e8e8e6f57686974656c69737453746f7261676560801b968f988e9d9b9991620002f7575b5016906006541617600655519a8b98899788528701528501528301525afa928315620002ec5792620002b8575b505016906007541617600755516131a59081620004df8239f35b620002dc9250803d10620002e4575b620002d3818362000483565b810190620004bd565b38806200029e565b503d620002c7565b8651903d90823e3d90fd5b6200031291508d803d10620002e457620002d3818362000483565b3862000271565b8c513d8b823e3d90fd5b6200033e9150893d8b11620002e457620002d3818362000483565b3862000204565b620003609150893d8b11620002e457620002d3818362000483565b38620001b8565b620003829150893d8b11620002e457620002d3818362000483565b386200016c565b620003a49150893d8b11620002e457620002d3818362000483565b3862000128565b620003c69150893d8b11620002e457620002d3818362000483565b38620000e3565b508160649287519262461bcd60e51b845283015260248201527f466e2063616e206f6e6c79206265207573656420627920687562206f776e65726044820152fd5b620004299150853d8711620002e457620002d3818362000483565b386200008a565b88513d87823e3d90fd5b825162461bcd60e51b815260206004820152601960248201527f48756220416464726573732063616e6e6f7420626520307830000000000000006044820152606490fd5b600080fd5b601f909101601f19168101906001600160401b03821190821017620004a757604052565b634e487b7160e01b600052604160045260246000fd5b908160209103126200047e57516001600160a01b03811681036200047e579056fe608060405260043610156200001357600080fd5b6000803560e01c8063051785f61462001bf257806306fdde031462001ba457806311c94ee81462001b79578063365a86fc1462001b5057806354fd4d501462001b00578063639a86a31462001ad557806367031bae1462001aaa5780638129fc1c14620015cb57806385404ed114620012fe5780639e2469ec14620012d3578063a1e344d01462000f89578063d184a8691462000c80578063dbab8cd61462000161578063ee99205c1462000136578063f11abfd8146200010b5763f42cb03814620000de57600080fd5b3462000108578060031936011262000108576006546040516001600160a01b039091168152602090f35b80fd5b503462000108578060031936011262000108576004546040516001600160a01b039091168152602090f35b503462000108578060031936011262000108576003546040516001600160a01b039091168152602090f35b5034620001085760803660031901126200010857600435906001600160a01b038216820362000108576024356001600160401b03811162000c7c57620001ac90369060040162001ddd565b90926044356001600160401b03811162000c7857620001d090369060040162001ddd565b6064356001600160401b03811162000c7457620001f290369060040162001ddd565b600754604051635b0c29eb60e01b81526001600160a01b0390911690602081600481855afa9081156200099d57899162000c50575b5062000bab575b506004805460065460405163010cf48d60e71b815233938101939093526001600160a01b0390811696929160209183916024918391165afa9081156200099d57906001600160481b03918a9162000b87575b501662000b4257861562000b045760405163947bb61560e01b81526020600482018190528180620002b6602482018c8f62001ecb565b0381895afa9081156200099d57899162000ae0575b5062000a9b57604051602081019085838337620002f86020828881018d8382015203808452018262001e59565b5190206040518981526200030c8162001e3d565b602081519101201462000a5657604051602081019083858337620003406020828681018d8382015203808452018262001e59565b519020604051898152620003548162001e3d565b602081519101201462000a115760405163cbb12bed60e01b815260206004820181905281806200038960248201898762001ecb565b0381895afa9081156200099d578991620009ed575b50620009a857604051637208606b60e11b81526020600482018190528180620003cc60248201878962001ecb565b0381895afa9081156200099d57899162000967575b50620009225760025460405163d10e73ab60e01b81523360048201526001600160a01b03978816602482015296602091889160449183918d91165af195861562000917578896620008df575b50875460405194906001600160a01b03166001600160401b0361107f8701908111908711176200085d578594926200049e9492620004879261107f620020f1893961107f8801908152606060208201819052019162001ecb565b9161107f85018303604061107f8701015262001ecb565b039085f0908115620008d057803b15620008db5760405163dc827de960e01b81526001600160481b0384166004820152606060248201529185918391829084908290620004f0606483018b8e62001ecb565b6001600160a01b03909116604483015203925af18015620008d057908491620008b4575b50506006546001546040516320e085cd60e11b81526001600160481b03841660048201526001600160a01b039182169492909116918582602481865afa918215620008a957869262000880575b50604051635ac55ea360e11b8152908682600481895afa9182156200087557879262000722575b50815190875b60ff811683811015620006d15784511115620006bd5760ff6020611fe08360051b168601015151166040516345ed59e560e01b81528160048201526040602482015260208180620005e3604482018b62001db6565b03818d5afa908115620006b2578b916200067a575b50873b1562000676576040519163efe0aa2d60e01b83526001600160481b038a166004840152602483015260448201528981606481838b5af180156200066b57908a916200064f575b505060010160ff166200058e565b6200065a9062001e0d565b6200066757883862000641565b8880fd5b6040513d8c823e3d90fd5b8a80fd5b90506020813d602011620006a9575b81620006986020938362001e59565b8101031262000676575138620005f8565b3d915062000689565b6040513d8d823e3d90fd5b634e487b7160e01b89526032600452602489fd5b5088827f1e1141aabf8a6876b928816de88db5e6ba4ba57cdb2f84229da1cc8e020d3e1c6001600160481b038a6200071a8f604051938493602085521695602084019162001ecb565b0390a2604051f35b9091503d8088833e62000736818362001e59565b602082828101031262000871578151906001600160401b0382116200066757808301601f838501011215620006675781830151906001600160401b0382116200085d57604051936200078f60208460051b018662001e59565b828552602085019382820160208560061b8385010101116200085957602081830101945b60208560061b83850101018610620007d357505050505050903862000588565b604086858501031262000855576040518060408101106001600160401b036040830111176200083f5760408101604052865160ff811681036200083b57602093928285926040945262000828838b0162001e7b565b83820152815201960195909150620007b3565b8e80fd5b634e487b7160e01b600052604160045260246000fd5b8c80fd5b8b80fd5b634e487b7160e01b8a52604160045260248afd5b8780fd5b6040513d89823e3d90fd5b620008a19192503d8088833e62000898818362001e59565b81019062001eec565b903862000561565b6040513d88823e3d90fd5b620008bf9062001e0d565b620008cc57823862000514565b8280fd5b6040513d86823e3d90fd5b8480fd5b6200090791965060203d6020116200090f575b620008fe818362001e59565b81019062001e90565b94386200042d565b503d620008f2565b6040513d8a823e3d90fd5b60405162461bcd60e51b815260206004820152601d60248201527f546f6b656e2073796d626f6c20697320616c72656164792074616b656e0000006044820152606490fd5b6200098e915060203d60201162000995575b62000985818362001e59565b81019062001eb1565b38620003e1565b503d62000979565b6040513d8b823e3d90fd5b60405162461bcd60e51b815260206004820152601b60248201527f546f6b656e206e616d6520697320616c72656164792074616b656e00000000006044820152606490fd5b62000a0a915060203d602011620009955762000985818362001e59565b386200039e565b60405162461bcd60e51b815260206004820152601c60248201527f546f6b656e2073796d626f6c2063616e6e6f7420626520656d707479000000006044820152606490fd5b60405162461bcd60e51b815260206004820152601a60248201527f546f6b656e206e616d652063616e6e6f7420626520656d7074790000000000006044820152606490fd5b60405162461bcd60e51b815260206004820152601d60248201527f4e6f646520494420697320616c726561647920726567697374657265640000006044820152606490fd5b62000afd915060203d602011620009955762000985818362001e59565b38620002cb565b60405162461bcd60e51b81526020600482015260166024820152754e6f64652049442063616e277420626520656d70747960501b6044820152606490fd5b60405162461bcd60e51b815260206004820152601760248201527f4964656e7469747920616c7265616479206578697374730000000000000000006044820152606490fd5b62000ba4915060203d6020116200090f57620008fe818362001e59565b3862000280565b602060249160405192838092636c9b2a3f60e11b82523360048301525afa9081156200091757889162000c2c575b501562000be757386200022e565b60405162461bcd60e51b815260206004820152601960248201527f416464726573732069736e27742077686974656c6973746564000000000000006044820152606490fd5b62000c49915060203d602011620009955762000985818362001e59565b3862000bd9565b62000c6d915060203d602011620009955762000985818362001e59565b3862000227565b8580fd5b8380fd5b5080fd5b503462000108576040366003190112620001085762000c9e62001d75565b6024908135916001600160601b03831691828403620008db5760018060a01b0390816004541694604051926020938481013360601b918282526014815262000ce68162001e21565b51902097604051631af27dbd60e11b8082526001600160481b0387169a8b600484015289830152600160448301528782606481865afa93841562000f7e5788928d9562000f5a575b50841562000edd575b505050501562000e9957851562000e6357908792916006541691823b1562000c785760405163d184a86960e01b81526001600160481b039190911660048201526001600160601b03919091166024820152828160448183865af190811562000e5857839162000e40575b5050604051938480926320e085cd60e11b82528860048301525afa90811562000e35577f49030f1a1927583e71883baca5a4776a7878294f0f0e1e1788734a335d0dfe7f9362000e0993879362000e15575b5060405193849360408552604085019062001db6565b918301520390a2604051f35b62000e2d9193503d8089833e62000898818362001e59565b913862000df3565b6040513d87823e3d90fd5b62000e4b9062001e0d565b62000c7c57813862000da1565b6040513d85823e3d90fd5b60405162461bcd60e51b815260048101859052600f818701526e041736b2063616e6e6f74206265203608c1b6044820152606490fd5b60405162461bcd60e51b815260048101859052601f818701527f466e2063616e2062652075736564206f6e6c79206279206964206f776e6572006044820152606490fd5b606491929394506040518481019182526014815262000efc8162001e21565b51902091604051948593849283528d60048401528b830152600260448301525afa9081156200099d57899162000f38575b503885818062000d37565b62000f539150853d8711620009955762000985818362001e59565b3862000f2d565b62000f76919550833d8511620009955762000985818362001e59565b933862000d2e565b6040513d8e823e3d90fd5b5034620001085760209081600319360112620001085762000fa962001d75565b9162000fb58362002013565b60065460405163c04d7dcf60e01b81526001600160481b038516600482018190526024956001600160a01b03938416949193919283818981895afa9081156200087557906200100d918891620012b1575b5062001f60565b604051636095a63b60e11b8152600481018590529083828981895afa918215620008755787926200128d575b506001600160601b038092166200105281151562001fc6565b863b1562000871576040516368751ff760e11b8152866004820152888a8201528881604481838c5af180156200099d5790899162001275575b505060405163e6c79da560e01b81526004810187905285818b818b5afa9081156200099d579084918a9162001241575b5016019182116200122e57853b156200122a5760405163eb2145e360e01b81526001600160481b039190911660048201526001600160601b03919091166024820152858160448183895af18015620008a95790869162001212575b50509080600492600554166040519384809263151db1b960e01b82525afa90811562000e35578591620011ce575b5062ffffff915016420191824211620011ba57938484953b15620008db5784928360449260405196879586946315aaf86160e21b865260048601528401525af18015620011af5762001197575b50604051f35b620011a29062001e0d565b6200010857803862001191565b6040513d84823e3d90fd5b5050634e487b7160e01b8252506011600452fd5b905081813d83116200120a575b620011e7818362001e59565b8101031262000c78575162ffffff8116810362000c785762ffffff903862001144565b503d620011db565b6200121d9062001e0d565b620008db57843862001116565b8680fd5b634e487b7160e01b875260116004528787fd5b620012669150873d89116200126d575b6200125d818362001e59565b81019062001fa5565b38620010bb565b503d62001251565b620012809062001e0d565b620008715787386200108b565b620012a9919250843d86116200126d576200125d818362001e59565b903862001039565b620012cc9150853d8711620009955762000985818362001e59565b3862001006565b503462000108578060031936011262000108576007546040516001600160a01b039091168152602090f35b503462000108576020908160031936011262000108576200131e62001d75565b620013298162002013565b60018060a01b0360065416906001600160481b036040519163c04d7dcf60e01b8352169384600483015260249181818481875afa90811562000e35579062001379918691620015b0575062001f60565b60405163e6c79da560e01b81526004810186905281818481875afa90811562000e3557906001600160601b039186916200158e575b50169081156200154c57604051631913cd5560e01b81526004810187905281818581885afa908115620008a957869162001519575b50421115620014d657508394833b15620008db5760405163eb2145e360e01b81528160048201528584820152858160448183895af1908115620008a9578691620014be575b5050833b15620008db57604051906315aaf86160e21b825260048201528483820152848160448183885af190811562000e35578591620014a6575b5050823b15620014a15760448492836040519586948593632ea7919360e21b85523360048601528401525af18015620011af57620011975750604051f35b505050fd5b620014b19062001e0d565b620014a157833862001463565b620014c99062001e0d565b620008db57843862001428565b606490601e846040519262461bcd60e51b845260048401528201527f5769746864726177616c20706572696f64206861736e277420656e64656400006044820152fd5b90508181813d831162001544575b62001533818362001e59565b8101031262000c74575138620013e3565b503d62001527565b826064916040519162461bcd60e51b83528160048401528201527f5769746864726177616c206861736e2774206265656e20696e697469617465646044820152fd5b620015a99150833d85116200126d576200125d818362001e59565b38620013ae565b620012cc9150833d8511620009955762000985818362001e59565b503462000108578060031936011262000108578054604051638da5cb5b60e01b81526001600160a01b0391821691906020908181600481875afa801562000e35578391869162001a6a575b5016330362001a275760405192630110ceef60e21b908185528260048601526024600c818701526044926b48617368696e6750726f787960a01b8488015260649085888381875afa9788156200099d578998620019e8575b50866001600160601b0360a01b9816886001541617600155604051818152866004820152600884820152674964656e7469747960c01b8682015286818481885afa80156200066b5788918b91620019a8575b5016886002541617600255604051818152866004820152600784820152665374616b696e6760c81b8682015286818481885afa80156200066b5788918b9162001968575b5016886003541617600355604051818152866004820152600f848201526e4964656e7469747953746f7261676560881b8682015286818481885afa80156200066b5788918b9162001928575b501688600454161760045560405181815286600482015260118482015270506172616d657465727353746f7261676560781b8682015286818481885afa80156200066b5788918b91620018e8575b501688600554161760055560405193818552866004860152600e848601526d50726f66696c6553746f7261676560901b8686015286858481845afa9485156200066b57879589918c9162001888575b50966f57686974656c69737453746f7261676560801b91601098168b6006541617600655604051978896879586528860048701528501528301525afa91821562000e355785926200184a575b505016906007541617600755604051f35b90809250813d831162001880575b62001864818362001e59565b8101031262000c7857620018789062001e7b565b388062001839565b503d62001858565b97968092508891503d8311620018e0575b620018a5818362001e59565b81010312620018dc576f57686974656c69737453746f7261676560801b879589620018d260109962001e7b565b91985091620017ed565b8980fd5b503d62001899565b809250888092503d831162001920575b62001904818362001e59565b81010312620018dc5762001919889162001e7b565b386200179e565b503d620018f8565b809250888092503d831162001960575b62001944818362001e59565b81010312620018dc5762001959889162001e7b565b3862001750565b503d62001938565b809250888092503d8311620019a0575b62001984818362001e59565b81010312620018dc5762001999889162001e7b565b3862001704565b503d62001978565b809250888092503d8311620019e0575b620019c4818362001e59565b81010312620018dc57620019d9889162001e7b565b38620016c0565b503d620019b8565b9097508581813d831162001a1f575b62001a03818362001e59565b81010312620006675762001a179062001e7b565b96386200166e565b503d620019f7565b6064906040519062461bcd60e51b825280600483015260248201527f466e2063616e206f6e6c79206265207573656420627920687562206f776e65726044820152fd5b809250838092503d831162001aa2575b62001a86818362001e59565b81010312620008db5762001a9b839162001e7b565b3862001616565b503d62001a7a565b503462000108578060031936011262000108576002546040516001600160a01b039091168152602090f35b503462000108578060031936011262000108576005546040516001600160a01b039091168152602090f35b5034620001085780600319360112620001085762001b4c60405162001b258162001e21565b60058152640312e302e360dc1b602082015260405191829160208352602083019062001db6565b0390f35b50346200010857806003193601126200010857546040516001600160a01b039091168152602090f35b503462000108578060031936011262000108576001546040516001600160a01b039091168152602090f35b5034620001085780600319360112620001085762001b4c60405162001bc98162001e21565b600781526650726f66696c6560c81b602082015260405191829160208352602083019062001db6565b503462000108578060208060031936011262001d725762001c1262001d75565b62001c1d8162002013565b60065460405163c04d7dcf60e01b81526001600160481b0392909216600483018190526001600160a01b039182169390928181602481885afa8015620008a95762001c70918791620015b0575062001f60565b604051636095a63b60e11b8152600481018490528181602481885afa908115620008a9576001600160601b0392879262001d50575b5050169262001cb684151562001fc6565b803b15620008db5784906044604051809881936368751ff760e11b83528760048401528160248401525af18015620008d05762001d39575b8394506003541691823b15620014a157606484928360405195869485936309a35b7960e21b8552336004860152602485015260448401525af18015620011af57620011975750604051f35b92909362001d479062001e0d565b91839062001cee565b62001d6a9250803d106200126d576200125d818362001e59565b388062001ca5565b50fd5b600435906001600160481b038216820362001d8c57565b600080fd5b60005b83811062001da55750506000910152565b818101518382015260200162001d94565b9060209162001dd18151809281855285808601910162001d91565b601f01601f1916010190565b9181601f8401121562001d8c578235916001600160401b03831162001d8c576020838186019501011162001d8c57565b6001600160401b0381116200083f57604052565b604081019081106001600160401b038211176200083f57604052565b602081019081106001600160401b038211176200083f57604052565b90601f801991011681019081106001600160401b038211176200083f57604052565b51906001600160a01b038216820362001d8c57565b9081602091031262001d8c57516001600160481b038116810362001d8c5790565b9081602091031262001d8c5751801515810362001d8c5790565b908060209392818452848401376000828201840152601f01601f1916010190565b60208183031262001d8c5780516001600160401b039182821162001d8c57019082601f8301121562001d8c5781519081116200083f576040519262001f3c601f8301601f19166020018562001e59565b8184526020828401011162001d8c5762001f5d916020808501910162001d91565b90565b1562001f6857565b60405162461bcd60e51b8152602060048201526015602482015274141c9bd99a5b1948191bd95cdb89dd08195e1a5cdd605a1b6044820152606490fd5b9081602091031262001d8c57516001600160601b038116810362001d8c5790565b1562001fce57565b60405162461bcd60e51b815260206004820152601960248201527f596f752068617665206e6f206f70657261746f722066656573000000000000006044820152606490fd5b60206001600160481b03606460018060a01b036004541693604051848101903360601b825260148152620020478162001e21565b519020946040519586948593631af27dbd60e11b85521660048401526024830152600160448301525afa908115620020e457600091620020c1575b50156200208b57565b60405162461bcd60e51b815260206004820152600e60248201526d20b236b4b710333ab731ba34b7b760911b6044820152606490fd5b620020dd915060203d8111620009955762000985818362001e59565b3862002082565b6040513d6000823e3d90fdfe60806040523462000392576200107f803803806200001d8162000397565b928339810190606081830312620003925780516001600160a01b038116929083900362000392576020828101516001600160401b0393919291908481116200039257826200006d918301620003bd565b9160408201518581116200039257620000879201620003bd565b92815181811162000292576003908154906001948583811c9316801562000387575b8784101462000371578190601f938481116200031b575b508790848311600114620002b457600092620002a8575b505060001982851b1c191690851b1782555b8551928311620002925760049586548581811c9116801562000287575b87821014620002725782811162000227575b5085918411600114620001bc57938394918492600095620001b0575b50501b92600019911b1c19161782555b82156200016d57600580546001600160a01b03191684179055604051610c4f9081620004308239f35b60405162461bcd60e51b815291820152601960248201527f48756220416464726573732063616e6e6f742062652030783000000000000000604482015260649150fd5b01519350388062000134565b9190601f198416928760005284876000209460005b89898383106200020f5750505010620001f4575b50505050811b01825562000144565b01519060f884600019921b161c1916905538808080620001e5565b868601518955909701969485019488935001620001d1565b87600052866000208380870160051c82019289881062000268575b0160051c019086905b8281106200025b57505062000118565b600081550186906200024b565b9250819262000242565b602288634e487b7160e01b6000525260246000fd5b90607f169062000106565b634e487b7160e01b600052604160045260246000fd5b015190503880620000d7565b90879350601f1983169186600052896000209260005b8b828210620003045750508411620002eb575b505050811b018255620000e9565b015160001983871b60f8161c19169055388080620002dd565b8385015186558b97909501949384019301620002ca565b90915084600052876000208480850160051c8201928a861062000367575b918991869594930160051c01915b82811062000357575050620000c0565b6000815585945089910162000347565b9250819262000339565b634e487b7160e01b600052602260045260246000fd5b92607f1692620000a9565b600080fd5b6040519190601f01601f191682016001600160401b038111838210176200029257604052565b919080601f84011215620003925782516001600160401b0381116200029257602090620003f3601f8201601f1916830162000397565b92818452828287010111620003925760005b8181106200041b57508260009394955001015290565b85810183015184820184015282016200040556fe608060408181526004918236101561001657600080fd5b600092833560e01c91826306fdde031461061b57508163095ea7b3146105f157816318160ddd146105d257816323b872dd14610595578163313ce56714610579578163365a86fc14610550578163395093511461050057816340c10f191461037d57816342966c681461035b57816370a082311461032457816379cc6790146102f057816395d89b41146101ed578163a457c2d71461014557508063a9059cbb146101155763dd62ed3e146100ca57600080fd5b34610111578060031936011261011157806020926100e6610759565b6100ee610774565b6001600160a01b0391821683526001865283832091168252845220549051908152f35b5080fd5b503461011157806003193601126101115760209061013e610134610759565b60243590336107e5565b5160018152f35b905082346101ea57826003193601126101ea57610160610759565b918360243592338152600160205281812060018060a01b03861682526020522054908282106101995760208561013e858503873361095a565b608490602086519162461bcd60e51b8352820152602560248201527f45524332303a2064656372656173656420616c6c6f77616e63652062656c6f77604482015264207a65726f60d81b6064820152fd5b80fd5b838334610111578160031936011261011157805191809380549160019083821c928285169485156102e6575b60209586861081146102d3578589529081156102af5750600114610257575b6102538787610249828c038361078a565b5191829182610710565b0390f35b81529295507f8a35acfbc15ff81a39ae7d344fd709f28e8600b4aa8c65c6b64bfe7fe36bd19b5b82841061029c57505050826102539461024992820101948680610238565b805486850188015292860192810161027e565b60ff19168887015250505050151560051b8301019250610249826102538680610238565b634e487b7160e01b845260228352602484fd5b93607f1693610219565b50503461011157806003193601126101115761032161030d610759565b6024359061031c823383610a5c565b610af4565b51f35b5050346101115760203660031901126101115760209181906001600160a01b0361034c610759565b16815280845220549051908152f35b90503461037957602036600319011261037957610321903533610af4565b8280fd5b905034610379578160031936011261037957610397610759565b6005548351631627905560e01b8152338482015260209260248035936001600160a01b0393918691839190829087165afa9081156104f65788916104bc575b501561047a571692831561043757508491816104157fddf252ad1be2c89b69c2b068fc378daa952ba7f163c4a11628f55a4df523b3ef936002546107c2565b60025584845283825285842061042c8282546107c2565b90558551908152a351f35b845162461bcd60e51b8152908101839052601f60248201527f45524332303a206d696e7420746f20746865207a65726f2061646472657373006044820152606490fd5b50505080606493519262461bcd60e51b845283015260248201527f466e2063616e206f6e6c792062652063616c6c656420627920746865206875626044820152fd5b90508481813d83116104ef575b6104d3818361078a565b810103126104eb575180151581036104eb57386103d6565b8780fd5b503d6104c9565b87513d8a823e3d90fd5b50503461011157806003193601126101115761013e602092610549610523610759565b338352600186528483206001600160a01b038216845286529184902054602435906107c2565b903361095a565b50503461011157816003193601126101115760055490516001600160a01b039091168152602090f35b5050346101115781600319360112610111576020905160128152f35b5050346101115760603660031901126101115760209061013e6105b6610759565b6105be610774565b604435916105cd833383610a5c565b6107e5565b5050346101115781600319360112610111576020906002549051908152f35b50503461011157806003193601126101115760209061013e610611610759565b602435903361095a565b9291503461070c578360031936011261070c57600354600181811c9186908281168015610702575b60209586861082146106ef57508488529081156106cd5750600114610674575b6102538686610249828b038361078a565b929550600383527fc2575a0e9e593c00f959f8c92f12db2869c3395a3b0502d05e2516446f71f85b5b8284106106ba575050508261025394610249928201019438610663565b805486850188015292860192810161069d565b60ff191687860152505050151560051b83010192506102498261025338610663565b634e487b7160e01b845260229052602483fd5b93607f1693610643565b8380fd5b6020808252825181830181905290939260005b82811061074557505060409293506000838284010152601f8019910116010190565b818101860151848201604001528501610723565b600435906001600160a01b038216820361076f57565b600080fd5b602435906001600160a01b038216820361076f57565b90601f8019910116810190811067ffffffffffffffff8211176107ac57604052565b634e487b7160e01b600052604160045260246000fd5b919082018092116107cf57565b634e487b7160e01b600052601160045260246000fd5b6001600160a01b0390811691821561090757169182156108b65760008281528060205260408120549180831061086257604082827fddf252ad1be2c89b69c2b068fc378daa952ba7f163c4a11628f55a4df523b3ef9587602096528286520382822055868152206108578282546107c2565b9055604051908152a3565b60405162461bcd60e51b815260206004820152602660248201527f45524332303a207472616e7366657220616d6f756e7420657863656564732062604482015265616c616e636560d01b6064820152608490fd5b60405162461bcd60e51b815260206004820152602360248201527f45524332303a207472616e7366657220746f20746865207a65726f206164647260448201526265737360e81b6064820152608490fd5b60405162461bcd60e51b815260206004820152602560248201527f45524332303a207472616e736665722066726f6d20746865207a65726f206164604482015264647265737360d81b6064820152608490fd5b6001600160a01b03908116918215610a0b57169182156109bb5760207f8c5be1e5ebec7d5bd14f71427d1e84f3dd0314c0f7b2291e5b200ac8c7c3b925918360005260018252604060002085600052825280604060002055604051908152a3565b60405162461bcd60e51b815260206004820152602260248201527f45524332303a20617070726f766520746f20746865207a65726f206164647265604482015261737360f01b6064820152608490fd5b60405162461bcd60e51b8152602060048201526024808201527f45524332303a20617070726f76652066726f6d20746865207a65726f206164646044820152637265737360e01b6064820152608490fd5b9060018060a01b0380831660005260016020526040600020908216600052602052604060002054926000198403610a94575b50505050565b808410610aaf57610aa693039161095a565b38808080610a8e565b60405162461bcd60e51b815260206004820152601d60248201527f45524332303a20696e73756666696369656e7420616c6c6f77616e63650000006044820152606490fd5b6001600160a01b03168015610bca57600091818352826020526040832054818110610b7a57819083855284602052036040842055600254818103908111610b66577fddf252ad1be2c89b69c2b068fc378daa952ba7f163c4a11628f55a4df523b3ef91602091600255604051908152a3565b634e487b7160e01b84526011600452602484fd5b60405162461bcd60e51b815260206004820152602260248201527f45524332303a206275726e20616d6f756e7420657863656564732062616c616e604482015261636560f01b6064820152608490fd5b60405162461bcd60e51b815260206004820152602160248201527f45524332303a206275726e2066726f6d20746865207a65726f206164647265736044820152607360f81b6064820152608490fdfea2646970667358221220230dabdec4252d2bded9546bcf1f2ea1788944f168105ef0cdcb8959d97c600264736f6c63430008100033a2646970667358221220a317c6302f22f1cbef9975632a0221908da72f56a8b3447dc16afa453bd51f3664736f6c63430008100033",
  "immutableReferences": {},
  "source": "// SPDX-License-Identifier: MIT\n\npragma solidity ^0.8.4;\n\nimport {HashingProxy} from \"./HashingProxy.sol\";\nimport {Hub} from \"./Hub.sol\";\nimport {Identity} from \"./Identity.sol\";\nimport {Shares} from \"./Shares.sol\";\nimport {Staking} from \"./Staking.sol\";\nimport {IdentityStorage} from \"./storage/IdentityStorage.sol\";\nimport {ParametersStorage} from \"./storage/ParametersStorage.sol\";\nimport {ProfileStorage} from \"./storage/ProfileStorage.sol\";\nimport {WhitelistStorage} from \"./storage/WhitelistStorage.sol\";\nimport {Named} from \"./interface/Named.sol\";\nimport {Versioned} from \"./interface/Versioned.sol\";\nimport {UnorderedIndexableContractDynamicSetLib} from \"./utils/UnorderedIndexableContractDynamicSet.sol\";\nimport {ADMIN_KEY, OPERATIONAL_KEY} from \"./constants/IdentityConstants.sol\";\n\ncontract Profile is Named, Versioned {\n    event ProfileCreated(uint72 indexed identityId, bytes nodeId);\n    event ProfileDeleted(uint72 indexed identityId);\n    event AskUpdated(uint72 indexed identityId, bytes nodeId, uint96 ask);\n\n    string private constant _NAME = \"Profile\";\n    string private constant _VERSION = \"1.0.0\";\n\n    Hub public hub;\n    HashingProxy public hashingProxy;\n    Identity public identityContract;\n    Staking public stakingContract;\n    IdentityStorage public identityStorage;\n    ParametersStorage public parametersStorage;\n    ProfileStorage public profileStorage;\n    WhitelistStorage public whitelistStorage;\n\n    constructor(address hubAddress) {\n        require(hubAddress != address(0), \"Hub Address cannot be 0x0\");\n\n        hub = Hub(hubAddress);\n        initialize();\n    }\n\n    modifier onlyHubOwner() {\n        _checkHubOwner();\n        _;\n    }\n\n    modifier onlyIdentityOwner(uint72 identityId) {\n        _checkIdentityOwner(identityId);\n        _;\n    }\n\n    modifier onlyAdmin(uint72 identityId) {\n        _checkAdmin(identityId);\n        _;\n    }\n\n    modifier onlyOperational(uint72 identityId) {\n        _checkOperational(identityId);\n        _;\n    }\n\n    modifier onlyWhitelisted() {\n        _checkWhitelist();\n        _;\n    }\n\n    function initialize() public onlyHubOwner {\n        hashingProxy = HashingProxy(hub.getContractAddress(\"HashingProxy\"));\n        identityContract = Identity(hub.getContractAddress(\"Identity\"));\n        stakingContract = Staking(hub.getContractAddress(\"Staking\"));\n        identityStorage = IdentityStorage(hub.getContractAddress(\"IdentityStorage\"));\n        parametersStorage = ParametersStorage(hub.getContractAddress(\"ParametersStorage\"));\n        profileStorage = ProfileStorage(hub.getContractAddress(\"ProfileStorage\"));\n        whitelistStorage = WhitelistStorage(hub.getContractAddress(\"WhitelistStorage\"));\n    }\n\n    function name() external pure virtual override returns (string memory) {\n        return _NAME;\n    }\n\n    function version() external pure virtual override returns (string memory) {\n        return _VERSION;\n    }\n\n    function createProfile(\n        address adminWallet,\n        bytes calldata nodeId,\n        string calldata sharesTokenName,\n        string calldata sharesTokenSymbol\n    ) external onlyWhitelisted {\n        IdentityStorage ids = identityStorage;\n        ProfileStorage ps = profileStorage;\n\n        require(ids.getIdentityId(msg.sender) == 0, \"Identity already exists\");\n        require(nodeId.length != 0, \"Node ID can't be empty\");\n        require(!ps.nodeIdsList(nodeId), \"Node ID is already registered\");\n        require(\n            keccak256(abi.encodePacked(sharesTokenName)) != keccak256(abi.encodePacked(\"\")),\n            \"Token name cannot be empty\"\n        );\n        require(\n            keccak256(abi.encodePacked(sharesTokenSymbol)) != keccak256(abi.encodePacked(\"\")),\n            \"Token symbol cannot be empty\"\n        );\n        require(!ps.sharesNames(sharesTokenName), \"Token name is already taken\");\n        require(!ps.sharesSymbols(sharesTokenSymbol), \"Token symbol is already taken\");\n\n        uint72 identityId = identityContract.createIdentity(msg.sender, adminWallet);\n\n        Shares sharesContract = new Shares(address(hub), sharesTokenName, sharesTokenSymbol);\n\n        ps.createProfile(identityId, nodeId, address(sharesContract));\n        _setAvailableNodeAddresses(identityId);\n\n        emit ProfileCreated(identityId, nodeId);\n    }\n\n    function setAsk(uint72 identityId, uint96 ask) external onlyIdentityOwner(identityId) {\n        require(ask != 0, \"Ask cannot be 0\");\n        ProfileStorage ps = profileStorage;\n        ps.setAsk(identityId, ask);\n\n        emit AskUpdated(identityId, ps.getNodeId(identityId), ask);\n    }\n\n    // function deleteProfile(uint72 identityId) external onlyAdmin(identityId) {\n    //     // TODO: add checks\n    //     profileStorage.deleteProfile(identityId);\n    //     identityContract.deleteIdentity(identityId);\n    //\n    //     emit ProfileDeleted(identityId);\n    // }\n\n    // function changeNodeId(uint72 identityId, bytes calldata nodeId) external onlyOperational(identityId) {\n    //     require(nodeId.length != 0, \"Node ID can't be empty\");\n\n    //     profileStorage.setNodeId(identityId, nodeId);\n    // }\n\n    // function addNewNodeIdHash(uint72 identityId, uint8 hashFunctionId) external onlyOperational(identityId) {\n    //     HashingProxy hp = hashingProxy;\n    //     require(hp.isHashFunction(hashFunctionId), \"Hash function doesn't exist\");\n\n    //     profileStorage.setNodeAddress(\n    //         identityId,\n    //         hashFunctionId,\n    //         hp.callHashFunction(hashFunctionId, profileStorage.getNodeId(identityId))\n    //     );\n    // }\n\n    // TODO: Define where it can be called, change internal modifier\n    function _setAvailableNodeAddresses(uint72 identityId) internal virtual {\n        ProfileStorage ps = profileStorage;\n        HashingProxy hp = hashingProxy;\n\n        bytes memory nodeId = ps.getNodeId(identityId);\n        bytes32 nodeAddress;\n\n        UnorderedIndexableContractDynamicSetLib.Contract[] memory hashFunctions = hp.getAllHashFunctions();\n        uint256 hashFunctionsNumber = hashFunctions.length;\n        uint8 hashFunctionId;\n        for (uint8 i; i < hashFunctionsNumber; ) {\n            hashFunctionId = hashFunctions[i].id;\n            nodeAddress = hp.callHashFunction(hashFunctionId, nodeId);\n            ps.setNodeAddress(identityId, hashFunctionId, nodeAddress);\n            unchecked {\n                i++;\n            }\n        }\n    }\n\n    function stakeAccumulatedOperatorFee(uint72 identityId) external onlyAdmin(identityId) {\n        ProfileStorage ps = profileStorage;\n\n        require(ps.profileExists(identityId), \"Profile doesn't exist\");\n\n        uint96 accumulatedOperatorFee = ps.getAccumulatedOperatorFee(identityId);\n        require(accumulatedOperatorFee != 0, \"You have no operator fees\");\n\n        ps.setAccumulatedOperatorFee(identityId, 0);\n        stakingContract.addStake(msg.sender, identityId, accumulatedOperatorFee);\n    }\n\n    function startAccumulatedOperatorFeeWithdrawal(uint72 identityId) external onlyAdmin(identityId) {\n        ProfileStorage ps = profileStorage;\n\n        require(ps.profileExists(identityId), \"Profile doesn't exist\");\n\n        uint96 accumulatedOperatorFee = ps.getAccumulatedOperatorFee(identityId);\n\n        require(accumulatedOperatorFee != 0, \"You have no operator fees\");\n\n        ps.setAccumulatedOperatorFee(identityId, 0);\n        ps.setAccumulatedOperatorFeeWithdrawalAmount(\n            identityId,\n            ps.getAccumulatedOperatorFeeWithdrawalAmount(identityId) + accumulatedOperatorFee\n        );\n        ps.setAccumulatedOperatorFeeWithdrawalTimestamp(\n            identityId,\n            block.timestamp + parametersStorage.stakeWithdrawalDelay()\n        );\n    }\n\n    function withdrawAccumulatedOperatorFee(uint72 identityId) external onlyAdmin(identityId) {\n        ProfileStorage ps = profileStorage;\n\n        require(ps.profileExists(identityId), \"Profile doesn't exist\");\n\n        uint96 withdrawalAmount = ps.getAccumulatedOperatorFeeWithdrawalAmount(identityId);\n\n        require(withdrawalAmount != 0, \"Withdrawal hasn't been initiated\");\n        require(\n            ps.getAccumulatedOperatorFeeWithdrawalTimestamp(identityId) < block.timestamp,\n            \"Withdrawal period hasn't ended\"\n        );\n\n        ps.setAccumulatedOperatorFeeWithdrawalAmount(identityId, 0);\n        ps.setAccumulatedOperatorFeeWithdrawalTimestamp(identityId, 0);\n        ps.transferAccumulatedOperatorFee(msg.sender, withdrawalAmount);\n    }\n\n    function _checkHubOwner() internal view virtual {\n        require(msg.sender == hub.owner(), \"Fn can only be used by hub owner\");\n    }\n\n    function _checkIdentityOwner(uint72 identityId) internal view virtual {\n        require(\n            identityStorage.keyHasPurpose(identityId, keccak256(abi.encodePacked(msg.sender)), ADMIN_KEY) ||\n                identityStorage.keyHasPurpose(identityId, keccak256(abi.encodePacked(msg.sender)), OPERATIONAL_KEY),\n            \"Fn can be used only by id owner\"\n        );\n    }\n\n    function _checkAdmin(uint72 identityId) internal view virtual {\n        require(\n            identityStorage.keyHasPurpose(identityId, keccak256(abi.encodePacked(msg.sender)), ADMIN_KEY),\n            \"Admin function\"\n        );\n    }\n\n    function _checkOperational(uint72 identityId) internal view virtual {\n        require(\n            identityStorage.keyHasPurpose(identityId, keccak256(abi.encodePacked(msg.sender)), OPERATIONAL_KEY),\n            \"Fn can be called only by oper.\"\n        );\n    }\n\n    function _checkWhitelist() internal view virtual {\n        WhitelistStorage ws = whitelistStorage;\n        if (ws.whitelistingEnabled()) {\n            require(ws.whitelisted(msg.sender), \"Address isn't whitelisted\");\n        }\n    }\n}\n",
  "sourcePath": "/Users/waving/Desktop/OriginTrail/dkg-evm-module/contracts/Profile.sol",
  "compiler": {
    "name": "solc",
    "version": "0.8.16+commit.07a7930e.Emscripten.clang"
  },
  "schemaVersion": "3.4.10",
  "updatedAt": "2022-12-14T11:36:06.395Z",
  "devdoc": {
    "kind": "dev",
    "methods": {},
    "version": 1
  },
  "userdoc": {
    "kind": "user",
    "methods": {},
    "version": 1
  }
}