{
  "contractName": "ProfileStorage",
  "abi": [
    {
      "inputs": [
        {
          "internalType": "address",
          "name": "hubAddress",
          "type": "address"
        }
      ],
      "stateMutability": "nonpayable",
      "type": "constructor"
    },
    {
      "inputs": [],
      "name": "activeNodes",
      "outputs": [
        {
          "internalType": "uint256",
          "name": "",
          "type": "uint256"
        }
      ],
      "stateMutability": "view",
      "type": "function"
    },
    {
      "inputs": [],
      "name": "hub",
      "outputs": [
        {
          "internalType": "contract Hub",
          "name": "",
          "type": "address"
        }
      ],
      "stateMutability": "view",
      "type": "function"
    },
    {
      "inputs": [
        {
          "internalType": "address",
          "name": "",
          "type": "address"
        }
      ],
      "name": "profile",
      "outputs": [
        {
          "internalType": "uint256",
          "name": "stake",
          "type": "uint256"
        },
        {
          "internalType": "uint256",
          "name": "stakeReserved",
          "type": "uint256"
        },
        {
          "internalType": "uint256",
          "name": "reputation",
          "type": "uint256"
        },
        {
          "internalType": "bool",
          "name": "withdrawalPending",
          "type": "bool"
        },
        {
          "internalType": "uint256",
          "name": "withdrawalTimestamp",
          "type": "uint256"
        },
        {
          "internalType": "uint256",
          "name": "withdrawalAmount",
          "type": "uint256"
        },
        {
          "internalType": "bytes32",
          "name": "nodeId",
          "type": "bytes32"
        }
      ],
      "stateMutability": "view",
      "type": "function"
    },
    {
      "inputs": [
        {
          "internalType": "address",
          "name": "newHubAddress",
          "type": "address"
        }
      ],
      "name": "setHubAddress",
      "outputs": [],
      "stateMutability": "nonpayable",
      "type": "function"
    },
    {
      "inputs": [
        {
          "internalType": "uint256",
          "name": "newActiveNodes",
          "type": "uint256"
        }
      ],
      "name": "setActiveNodes",
      "outputs": [],
      "stateMutability": "nonpayable",
      "type": "function"
    },
    {
      "inputs": [
        {
          "internalType": "address",
          "name": "identity",
          "type": "address"
        }
      ],
      "name": "getStake",
      "outputs": [
        {
          "internalType": "uint256",
          "name": "",
          "type": "uint256"
        }
      ],
      "stateMutability": "view",
      "type": "function"
    },
    {
      "inputs": [
        {
          "internalType": "address",
          "name": "identity",
          "type": "address"
        }
      ],
      "name": "getStakeReserved",
      "outputs": [
        {
          "internalType": "uint256",
          "name": "",
          "type": "uint256"
        }
      ],
      "stateMutability": "view",
      "type": "function"
    },
    {
      "inputs": [
        {
          "internalType": "address",
          "name": "identity",
          "type": "address"
        }
      ],
      "name": "getReputation",
      "outputs": [
        {
          "internalType": "uint256",
          "name": "",
          "type": "uint256"
        }
      ],
      "stateMutability": "view",
      "type": "function"
    },
    {
      "inputs": [
        {
          "internalType": "address",
          "name": "identity",
          "type": "address"
        }
      ],
      "name": "getWithdrawalPending",
      "outputs": [
        {
          "internalType": "bool",
          "name": "",
          "type": "bool"
        }
      ],
      "stateMutability": "view",
      "type": "function"
    },
    {
      "inputs": [
        {
          "internalType": "address",
          "name": "identity",
          "type": "address"
        }
      ],
      "name": "getWithdrawalTimestamp",
      "outputs": [
        {
          "internalType": "uint256",
          "name": "",
          "type": "uint256"
        }
      ],
      "stateMutability": "view",
      "type": "function"
    },
    {
      "inputs": [
        {
          "internalType": "address",
          "name": "identity",
          "type": "address"
        }
      ],
      "name": "getWithdrawalAmount",
      "outputs": [
        {
          "internalType": "uint256",
          "name": "",
          "type": "uint256"
        }
      ],
      "stateMutability": "view",
      "type": "function"
    },
    {
      "inputs": [
        {
          "internalType": "address",
          "name": "identity",
          "type": "address"
        }
      ],
      "name": "getNodeId",
      "outputs": [
        {
          "internalType": "bytes32",
          "name": "",
          "type": "bytes32"
        }
      ],
      "stateMutability": "view",
      "type": "function"
    },
    {
      "inputs": [
        {
          "internalType": "address",
          "name": "identity",
          "type": "address"
        },
        {
          "internalType": "uint256",
          "name": "stake",
          "type": "uint256"
        }
      ],
      "name": "setStake",
      "outputs": [],
      "stateMutability": "nonpayable",
      "type": "function"
    },
    {
      "inputs": [
        {
          "internalType": "address",
          "name": "identity",
          "type": "address"
        },
        {
          "internalType": "uint256",
          "name": "stakeReserved",
          "type": "uint256"
        }
      ],
      "name": "setStakeReserved",
      "outputs": [],
      "stateMutability": "nonpayable",
      "type": "function"
    },
    {
      "inputs": [
        {
          "internalType": "address",
          "name": "identity",
          "type": "address"
        },
        {
          "internalType": "uint256",
          "name": "reputation",
          "type": "uint256"
        }
      ],
      "name": "setReputation",
      "outputs": [],
      "stateMutability": "nonpayable",
      "type": "function"
    },
    {
      "inputs": [
        {
          "internalType": "address",
          "name": "identity",
          "type": "address"
        },
        {
          "internalType": "bool",
          "name": "withdrawalPending",
          "type": "bool"
        }
      ],
      "name": "setWithdrawalPending",
      "outputs": [],
      "stateMutability": "nonpayable",
      "type": "function"
    },
    {
      "inputs": [
        {
          "internalType": "address",
          "name": "identity",
          "type": "address"
        },
        {
          "internalType": "uint256",
          "name": "withdrawalTimestamp",
          "type": "uint256"
        }
      ],
      "name": "setWithdrawalTimestamp",
      "outputs": [],
      "stateMutability": "nonpayable",
      "type": "function"
    },
    {
      "inputs": [
        {
          "internalType": "address",
          "name": "identity",
          "type": "address"
        },
        {
          "internalType": "uint256",
          "name": "withdrawalAmount",
          "type": "uint256"
        }
      ],
      "name": "setWithdrawalAmount",
      "outputs": [],
      "stateMutability": "nonpayable",
      "type": "function"
    },
    {
      "inputs": [
        {
          "internalType": "address",
          "name": "identity",
          "type": "address"
        },
        {
          "internalType": "bytes32",
          "name": "nodeId",
          "type": "bytes32"
        }
      ],
      "name": "setNodeId",
      "outputs": [],
      "stateMutability": "nonpayable",
      "type": "function"
    },
    {
      "inputs": [
        {
          "internalType": "address",
          "name": "payer",
          "type": "address"
        },
        {
          "internalType": "address",
          "name": "identity1",
          "type": "address"
        },
        {
          "internalType": "address",
          "name": "identity2",
          "type": "address"
        },
        {
          "internalType": "address",
          "name": "identity3",
          "type": "address"
        },
        {
          "internalType": "uint256",
          "name": "amount",
          "type": "uint256"
        }
      ],
      "name": "increaseStakesReserved",
      "outputs": [],
      "stateMutability": "nonpayable",
      "type": "function"
    },
    {
      "inputs": [
        {
          "internalType": "address",
          "name": "wallet",
          "type": "address"
        },
        {
          "internalType": "uint256",
          "name": "amount",
          "type": "uint256"
        }
      ],
      "name": "transferTokens",
      "outputs": [],
      "stateMutability": "nonpayable",
      "type": "function"
    }
  ],
  "bytecode": "0x60806040523480156200001157600080fd5b5060405162001e3838038062001e388339818101604052810190620000379190620000ef565b806000806101000a81548173ffffffffffffffffffffffffffffffffffffffff021916908373ffffffffffffffffffffffffffffffffffffffff160217905550600180819055505062000121565b600080fd5b600073ffffffffffffffffffffffffffffffffffffffff82169050919050565b6000620000b7826200008a565b9050919050565b620000c981620000aa565b8114620000d557600080fd5b50565b600081519050620000e981620000be565b92915050565b60006020828403121562000108576200010762000085565b5b60006200011884828501620000d8565b91505092915050565b611d0780620001316000396000f3fe608060405234801561001057600080fd5b50600436106101375760003560e01c806382aa2928116100b8578063a6748ef51161007c578063a6748ef514610376578063b120c16a14610392578063b56e4129146103ae578063bd3cd525146103de578063bec3fa17146103fa578063c7eb45221461041657610137565b806382aa2928146102a85780639344ea6e146102c45780639385067f146102f45780639c89a0e2146103105780639dd9d0fd1461034057610137565b806356582bf9116100ff57806356582bf9146101e05780635ffe02821461021057806367b6d271146102405780637a7664601461025c5780637fdc36761461028c57610137565b806307f196511461013c5780632ba975951461015a578063365a86fc1461018a57806348fd564b146101a857806350c3ff57146101c4575b600080fd5b610144610432565b6040516101519190611622565b60405180910390f35b610174600480360381019061016f91906116a0565b610438565b60405161018191906116e8565b60405180910390f35b610192610491565b60405161019f9190611762565b60405180910390f35b6101c260048036038101906101bd91906117a9565b6104b5565b005b6101de60048036038101906101d991906117d6565b610598565b005b6101fa60048036038101906101f591906116a0565b6106bc565b6040516102079190611622565b60405180910390f35b61022a600480360381019061022591906116a0565b610708565b6040516102379190611622565b60405180910390f35b61025a600480360381019061025591906117d6565b610754565b005b610276600480360381019061027191906116a0565b610878565b6040516102839190611622565b60405180910390f35b6102a660048036038101906102a1919061184c565b6108c4565b005b6102c260048036038101906102bd91906117d6565b6109e8565b005b6102de60048036038101906102d991906116a0565b610b0c565b6040516102eb9190611622565b60405180910390f35b61030e600480360381019061030991906118b8565b610b58565b005b61032a600480360381019061032591906116a0565b610c8f565b6040516103379190611622565b60405180910390f35b61035a600480360381019061035591906116a0565b610cdb565b60405161036d9796959493929190611907565b60405180910390f35b610390600480360381019061038b9190611976565b610d2a565b005b6103ac60048036038101906103a791906117d6565b611026565b005b6103c860048036038101906103c391906116a0565b61114a565b6040516103d591906119f1565b60405180910390f35b6103f860048036038101906103f391906117d6565b611196565b005b610414600480360381019061040f91906117d6565b6112ba565b005b610430600480360381019061042b91906116a0565b6114b4565b005b60015481565b6000600260008373ffffffffffffffffffffffffffffffffffffffff1673ffffffffffffffffffffffffffffffffffffffff16815260200190815260200160002060030160009054906101000a900460ff169050919050565b60008054906101000a900473ffffffffffffffffffffffffffffffffffffffff1681565b60008054906101000a900473ffffffffffffffffffffffffffffffffffffffff1673ffffffffffffffffffffffffffffffffffffffff166316279055336040518263ffffffff1660e01b815260040161050e9190611a1b565b602060405180830381865afa15801561052b573d6000803e3d6000fd5b505050506040513d601f19601f8201168201806040525081019061054f9190611a4b565b61058e576040517f08c379a000000000000000000000000000000000000000000000000000000000815260040161058590611afb565b60405180910390fd5b8060018190555050565b60008054906101000a900473ffffffffffffffffffffffffffffffffffffffff1673ffffffffffffffffffffffffffffffffffffffff166316279055336040518263ffffffff1660e01b81526004016105f19190611a1b565b602060405180830381865afa15801561060e573d6000803e3d6000fd5b505050506040513d601f19601f820116820180604052508101906106329190611a4b565b610671576040517f08c379a000000000000000000000000000000000000000000000000000000000815260040161066890611afb565b60405180910390fd5b80600260008473ffffffffffffffffffffffffffffffffffffffff1673ffffffffffffffffffffffffffffffffffffffff168152602001908152602001600020600101819055505050565b6000600260008373ffffffffffffffffffffffffffffffffffffffff1673ffffffffffffffffffffffffffffffffffffffff168152602001908152602001600020600501549050919050565b6000600260008373ffffffffffffffffffffffffffffffffffffffff1673ffffffffffffffffffffffffffffffffffffffff168152602001908152602001600020600101549050919050565b60008054906101000a900473ffffffffffffffffffffffffffffffffffffffff1673ffffffffffffffffffffffffffffffffffffffff166316279055336040518263ffffffff1660e01b81526004016107ad9190611a1b565b602060405180830381865afa1580156107ca573d6000803e3d6000fd5b505050506040513d601f19601f820116820180604052508101906107ee9190611a4b565b61082d576040517f08c379a000000000000000000000000000000000000000000000000000000000815260040161082490611afb565b60405180910390fd5b80600260008473ffffffffffffffffffffffffffffffffffffffff1673ffffffffffffffffffffffffffffffffffffffff168152602001908152602001600020600401819055505050565b6000600260008373ffffffffffffffffffffffffffffffffffffffff1673ffffffffffffffffffffffffffffffffffffffff168152602001908152602001600020600001549050919050565b60008054906101000a900473ffffffffffffffffffffffffffffffffffffffff1673ffffffffffffffffffffffffffffffffffffffff166316279055336040518263ffffffff1660e01b815260040161091d9190611a1b565b602060405180830381865afa15801561093a573d6000803e3d6000fd5b505050506040513d601f19601f8201168201806040525081019061095e9190611a4b565b61099d576040517f08c379a000000000000000000000000000000000000000000000000000000000815260040161099490611afb565b60405180910390fd5b80600260008473ffffffffffffffffffffffffffffffffffffffff1673ffffffffffffffffffffffffffffffffffffffff168152602001908152602001600020600601819055505050565b60008054906101000a900473ffffffffffffffffffffffffffffffffffffffff1673ffffffffffffffffffffffffffffffffffffffff166316279055336040518263ffffffff1660e01b8152600401610a419190611a1b565b602060405180830381865afa158015610a5e573d6000803e3d6000fd5b505050506040513d601f19601f82011682018060405250810190610a829190611a4b565b610ac1576040517f08c379a0000000000000000000000000000000000000000000000000000000008152600401610ab890611afb565b60405180910390fd5b80600260008473ffffffffffffffffffffffffffffffffffffffff1673ffffffffffffffffffffffffffffffffffffffff168152602001908152602001600020600501819055505050565b6000600260008373ffffffffffffffffffffffffffffffffffffffff1673ffffffffffffffffffffffffffffffffffffffff168152602001908152602001600020600401549050919050565b60008054906101000a900473ffffffffffffffffffffffffffffffffffffffff1673ffffffffffffffffffffffffffffffffffffffff166316279055336040518263ffffffff1660e01b8152600401610bb19190611a1b565b602060405180830381865afa158015610bce573d6000803e3d6000fd5b505050506040513d601f19601f82011682018060405250810190610bf29190611a4b565b610c31576040517f08c379a0000000000000000000000000000000000000000000000000000000008152600401610c2890611afb565b60405180910390fd5b80600260008473ffffffffffffffffffffffffffffffffffffffff1673ffffffffffffffffffffffffffffffffffffffff16815260200190815260200160002060030160006101000a81548160ff0219169083151502179055505050565b6000600260008373ffffffffffffffffffffffffffffffffffffffff1673ffffffffffffffffffffffffffffffffffffffff168152602001908152602001600020600201549050919050565b60026020528060005260406000206000915090508060000154908060010154908060020154908060030160009054906101000a900460ff16908060040154908060050154908060060154905087565b60008054906101000a900473ffffffffffffffffffffffffffffffffffffffff1673ffffffffffffffffffffffffffffffffffffffff166316279055336040518263ffffffff1660e01b8152600401610d839190611a1b565b602060405180830381865afa158015610da0573d6000803e3d6000fd5b505050506040513d601f19601f82011682018060405250810190610dc49190611a4b565b610e03576040517f08c379a0000000000000000000000000000000000000000000000000000000008152600401610dfa90611afb565b60405180910390fd5b600073ffffffffffffffffffffffffffffffffffffffff168473ffffffffffffffffffffffffffffffffffffffff1614158015610e6d5750600073ffffffffffffffffffffffffffffffffffffffff168373ffffffffffffffffffffffffffffffffffffffff1614155b8015610ea65750600073ffffffffffffffffffffffffffffffffffffffff168273ffffffffffffffffffffffffffffffffffffffff1614155b610eaf57600080fd5b600381610ebc9190611b4a565b600260008773ffffffffffffffffffffffffffffffffffffffff1673ffffffffffffffffffffffffffffffffffffffff1681526020019081526020016000206001016000828254610f0d9190611ba4565b9250508190555080600260008673ffffffffffffffffffffffffffffffffffffffff1673ffffffffffffffffffffffffffffffffffffffff1681526020019081526020016000206001016000828254610f669190611ba4565b9250508190555080600260008573ffffffffffffffffffffffffffffffffffffffff1673ffffffffffffffffffffffffffffffffffffffff1681526020019081526020016000206001016000828254610fbf9190611ba4565b9250508190555080600260008473ffffffffffffffffffffffffffffffffffffffff1673ffffffffffffffffffffffffffffffffffffffff16815260200190815260200160002060010160008282546110189190611ba4565b925050819055505050505050565b60008054906101000a900473ffffffffffffffffffffffffffffffffffffffff1673ffffffffffffffffffffffffffffffffffffffff166316279055336040518263ffffffff1660e01b815260040161107f9190611a1b565b602060405180830381865afa15801561109c573d6000803e3d6000fd5b505050506040513d601f19601f820116820180604052508101906110c09190611a4b565b6110ff576040517f08c379a00000000000000000000000000000000000000000000000000000000081526004016110f690611afb565b60405180910390fd5b80600260008473ffffffffffffffffffffffffffffffffffffffff1673ffffffffffffffffffffffffffffffffffffffff168152602001908152602001600020600201819055505050565b6000600260008373ffffffffffffffffffffffffffffffffffffffff1673ffffffffffffffffffffffffffffffffffffffff168152602001908152602001600020600601549050919050565b60008054906101000a900473ffffffffffffffffffffffffffffffffffffffff1673ffffffffffffffffffffffffffffffffffffffff166316279055336040518263ffffffff1660e01b81526004016111ef9190611a1b565b602060405180830381865afa15801561120c573d6000803e3d6000fd5b505050506040513d601f19601f820116820180604052508101906112309190611a4b565b61126f576040517f08c379a000000000000000000000000000000000000000000000000000000000815260040161126690611afb565b60405180910390fd5b80600260008473ffffffffffffffffffffffffffffffffffffffff1673ffffffffffffffffffffffffffffffffffffffff168152602001908152602001600020600001819055505050565b60008054906101000a900473ffffffffffffffffffffffffffffffffffffffff1673ffffffffffffffffffffffffffffffffffffffff166316279055336040518263ffffffff1660e01b81526004016113139190611a1b565b602060405180830381865afa158015611330573d6000803e3d6000fd5b505050506040513d601f19601f820116820180604052508101906113549190611a4b565b611393576040517f08c379a000000000000000000000000000000000000000000000000000000000815260040161138a90611afb565b60405180910390fd5b60008060009054906101000a900473ffffffffffffffffffffffffffffffffffffffff1673ffffffffffffffffffffffffffffffffffffffff166304433bbc6040518163ffffffff1660e01b81526004016113ed90611c46565b602060405180830381865afa15801561140a573d6000803e3d6000fd5b505050506040513d601f19601f8201168201806040525081019061142e9190611c7b565b90508073ffffffffffffffffffffffffffffffffffffffff1663a9059cbb84846040518363ffffffff1660e01b815260040161146b929190611ca8565b6020604051808303816000875af115801561148a573d6000803e3d6000fd5b505050506040513d601f19601f820116820180604052508101906114ae9190611a4b565b50505050565b60008054906101000a900473ffffffffffffffffffffffffffffffffffffffff1673ffffffffffffffffffffffffffffffffffffffff166316279055336040518263ffffffff1660e01b815260040161150d9190611a1b565b602060405180830381865afa15801561152a573d6000803e3d6000fd5b505050506040513d601f19601f8201168201806040525081019061154e9190611a4b565b61158d576040517f08c379a000000000000000000000000000000000000000000000000000000000815260040161158490611afb565b60405180910390fd5b600073ffffffffffffffffffffffffffffffffffffffff168173ffffffffffffffffffffffffffffffffffffffff16036115c657600080fd5b806000806101000a81548173ffffffffffffffffffffffffffffffffffffffff021916908373ffffffffffffffffffffffffffffffffffffffff16021790555050565b6000819050919050565b61161c81611609565b82525050565b60006020820190506116376000830184611613565b92915050565b600080fd5b600073ffffffffffffffffffffffffffffffffffffffff82169050919050565b600061166d82611642565b9050919050565b61167d81611662565b811461168857600080fd5b50565b60008135905061169a81611674565b92915050565b6000602082840312156116b6576116b561163d565b5b60006116c48482850161168b565b91505092915050565b60008115159050919050565b6116e2816116cd565b82525050565b60006020820190506116fd60008301846116d9565b92915050565b6000819050919050565b600061172861172361171e84611642565b611703565b611642565b9050919050565b600061173a8261170d565b9050919050565b600061174c8261172f565b9050919050565b61175c81611741565b82525050565b60006020820190506117776000830184611753565b92915050565b61178681611609565b811461179157600080fd5b50565b6000813590506117a38161177d565b92915050565b6000602082840312156117bf576117be61163d565b5b60006117cd84828501611794565b91505092915050565b600080604083850312156117ed576117ec61163d565b5b60006117fb8582860161168b565b925050602061180c85828601611794565b9150509250929050565b6000819050919050565b61182981611816565b811461183457600080fd5b50565b60008135905061184681611820565b92915050565b600080604083850312156118635761186261163d565b5b60006118718582860161168b565b925050602061188285828601611837565b9150509250929050565b611895816116cd565b81146118a057600080fd5b50565b6000813590506118b28161188c565b92915050565b600080604083850312156118cf576118ce61163d565b5b60006118dd8582860161168b565b92505060206118ee858286016118a3565b9150509250929050565b61190181611816565b82525050565b600060e08201905061191c600083018a611613565b6119296020830189611613565b6119366040830188611613565b61194360608301876116d9565b6119506080830186611613565b61195d60a0830185611613565b61196a60c08301846118f8565b98975050505050505050565b600080600080600060a086880312156119925761199161163d565b5b60006119a08882890161168b565b95505060206119b18882890161168b565b94505060406119c28882890161168b565b93505060606119d38882890161168b565b92505060806119e488828901611794565b9150509295509295909350565b6000602082019050611a0660008301846118f8565b92915050565b611a1581611662565b82525050565b6000602082019050611a306000830184611a0c565b92915050565b600081519050611a458161188c565b92915050565b600060208284031215611a6157611a6061163d565b5b6000611a6f84828501611a36565b91505092915050565b600082825260208201905092915050565b7f46756e6374696f6e2063616e206f6e6c792062652063616c6c6564206279206360008201527f6f6e747261637473210000000000000000000000000000000000000000000000602082015250565b6000611ae5602983611a78565b9150611af082611a89565b604082019050919050565b60006020820190508181036000830152611b1481611ad8565b9050919050565b7f4e487b7100000000000000000000000000000000000000000000000000000000600052601160045260246000fd5b6000611b5582611609565b9150611b6083611609565b9250817fffffffffffffffffffffffffffffffffffffffffffffffffffffffffffffffff0483118215151615611b9957611b98611b1b565b5b828202905092915050565b6000611baf82611609565b9150611bba83611609565b9250827fffffffffffffffffffffffffffffffffffffffffffffffffffffffffffffffff03821115611bef57611bee611b1b565b5b828201905092915050565b7f546f6b656e000000000000000000000000000000000000000000000000000000600082015250565b6000611c30600583611a78565b9150611c3b82611bfa565b602082019050919050565b60006020820190508181036000830152611c5f81611c23565b9050919050565b600081519050611c7581611674565b92915050565b600060208284031215611c9157611c9061163d565b5b6000611c9f84828501611c66565b91505092915050565b6000604082019050611cbd6000830185611a0c565b611cca6020830184611613565b939250505056fea2646970667358221220aa7781ed9f72796959f100f9d453d50f934670c521466195aa9b3564c712590a64736f6c634300080e0033",
  "immutableReferences": {},
  "source": "// SPDX-License-Identifier: MIT\n\npragma solidity ^0.8.0;\n\nimport \"@openzeppelin/contracts/token/ERC20/ERC20.sol\";\nimport {Hub} from '../Hub.sol';\n\ncontract ProfileStorage {\n    Hub public hub;\n    \n    constructor(address hubAddress) {\n        hub = Hub(hubAddress);\n        activeNodes = 1;\n    }\n\n    function setHubAddress(address newHubAddress)\n    public onlyContracts {\n        require(newHubAddress != address(0));\n        hub = Hub(newHubAddress);\n    }\n    \n    modifier onlyContracts(){\n        require(hub.isContract(msg.sender),\n        \"Function can only be called by contracts!\");\n        _;\n    }\n\n    uint256 public activeNodes;\n\n    function setActiveNodes(uint256 newActiveNodes) \n    public onlyContracts {\n        activeNodes = newActiveNodes;\n    }\n\n    struct ProfileDefinition{\n        uint256 stake;\n        uint256 stakeReserved;\n        uint256 reputation;\n        bool withdrawalPending;\n        uint256 withdrawalTimestamp;\n        uint256 withdrawalAmount;\n        bytes32 nodeId;\n    }\n    mapping(address => ProfileDefinition) public profile;\n\n    function getStake(address identity) \n    public view returns(uint256) {\n        return profile[identity].stake;\n    }\n    function getStakeReserved(address identity) \n    public view returns(uint256) {\n        return profile[identity].stakeReserved;\n    }\n    function getReputation(address identity) \n    public view returns(uint256) {\n        return profile[identity].reputation;\n    }\n    function getWithdrawalPending(address identity) \n    public view returns(bool) {\n        return profile[identity].withdrawalPending;\n    }\n    function getWithdrawalTimestamp(address identity) \n    public view returns(uint256) {\n        return profile[identity].withdrawalTimestamp;\n    }\n    function getWithdrawalAmount(address identity) \n    public view returns(uint256) {\n        return profile[identity].withdrawalAmount;\n    }\n    function getNodeId(address identity) \n    public view returns(bytes32) {\n        return profile[identity].nodeId;\n    }\n    \n    function setStake(address identity, uint256 stake) \n    public onlyContracts {\n        profile[identity].stake = stake;\n    }\n    function setStakeReserved(address identity, uint256 stakeReserved) \n    public onlyContracts {\n        profile[identity].stakeReserved = stakeReserved;\n    }\n    function setReputation(address identity, uint256 reputation) \n    public onlyContracts {\n        profile[identity].reputation = reputation;\n    }\n    function setWithdrawalPending(address identity, bool withdrawalPending) \n    public onlyContracts {\n        profile[identity].withdrawalPending = withdrawalPending;\n    }\n    function setWithdrawalTimestamp(address identity, uint256 withdrawalTimestamp) \n    public onlyContracts {\n        profile[identity].withdrawalTimestamp = withdrawalTimestamp;\n    }\n    function setWithdrawalAmount(address identity, uint256 withdrawalAmount) \n    public onlyContracts {\n        profile[identity].withdrawalAmount = withdrawalAmount;\n    }\n    function setNodeId(address identity, bytes32 nodeId)\n    public onlyContracts {\n        profile[identity].nodeId = nodeId;\n    }\n\n    function increaseStakesReserved(\n        address payer,\n        address identity1,\n        address identity2,\n        address identity3,\n        uint256 amount)\n    public onlyContracts {\n        require(identity1!=address(0) && identity2!=address(0) && identity3!=address(0));\n        profile[payer].stakeReserved += (amount * 3);\n        profile[identity1].stakeReserved += amount;\n        profile[identity2].stakeReserved += amount;\n        profile[identity3].stakeReserved += amount;\n    }\n\n    function transferTokens(address wallet, uint256 amount)\n    public onlyContracts {\n        ERC20 token = ERC20(hub.getContractAddress(\"Token\"));\n        token.transfer(wallet, amount);\n    }\n}\n",
  "sourcePath": "/Users/miloskotlar/dkg-evm-module/contracts/storage/ProfileStorage.sol",
  "compiler": {
    "name": "solc",
    "version": "0.8.14+commit.80d49f37.Emscripten.clang"
  },
  "schemaVersion": "3.4.3",
  "updatedAt": "2022-08-11T11:46:27.842Z",
  "devdoc": {
    "kind": "dev",
    "methods": {},
    "version": 1
  },
  "userdoc": {
    "kind": "user",
    "methods": {},
    "version": 1
  }
}