{
  "contractName": "ProfileStorage",
  "abi": [
    {
      "inputs": [
        {
          "internalType": "address",
          "name": "hubAddress",
          "type": "address"
        }
      ],
      "stateMutability": "nonpayable",
      "type": "constructor"
    },
    {
      "anonymous": false,
      "inputs": [
        {
          "indexed": true,
          "internalType": "uint96",
          "name": "identityId",
          "type": "uint96"
        },
        {
          "indexed": false,
          "internalType": "bytes",
          "name": "nodeId",
          "type": "bytes"
        },
        {
          "indexed": false,
          "internalType": "uint96",
          "name": "ask",
          "type": "uint96"
        }
      ],
      "name": "AskUpdated",
      "type": "event"
    },
    {
      "anonymous": false,
      "inputs": [
        {
          "indexed": true,
          "internalType": "uint96",
          "name": "identityId",
          "type": "uint96"
        },
        {
          "indexed": false,
          "internalType": "bytes",
          "name": "nodeId",
          "type": "bytes"
        },
        {
          "indexed": false,
          "internalType": "uint96",
          "name": "reward",
          "type": "uint96"
        }
      ],
      "name": "RewardUpdated",
      "type": "event"
    },
    {
      "anonymous": false,
      "inputs": [
        {
          "indexed": true,
          "internalType": "uint96",
          "name": "identityId",
          "type": "uint96"
        },
        {
          "indexed": false,
          "internalType": "bytes",
          "name": "nodeId",
          "type": "bytes"
        },
        {
          "indexed": false,
          "internalType": "uint96",
          "name": "stake",
          "type": "uint96"
        }
      ],
      "name": "StakeUpdated",
      "type": "event"
    },
    {
      "inputs": [],
      "name": "hub",
      "outputs": [
        {
          "internalType": "contract Hub",
          "name": "",
          "type": "address"
        }
      ],
      "stateMutability": "view",
      "type": "function"
    },
    {
      "inputs": [
        {
          "internalType": "bytes",
          "name": "",
          "type": "bytes"
        }
      ],
      "name": "nodeIdsList",
      "outputs": [
        {
          "internalType": "bool",
          "name": "",
          "type": "bool"
        }
      ],
      "stateMutability": "view",
      "type": "function"
    },
    {
      "inputs": [
        {
          "internalType": "uint96",
          "name": "",
          "type": "uint96"
        }
      ],
      "name": "profiles",
      "outputs": [
        {
          "internalType": "uint96",
          "name": "ask",
          "type": "uint96"
        },
        {
          "internalType": "uint96",
          "name": "stake",
          "type": "uint96"
        },
        {
          "internalType": "uint96",
          "name": "reward",
          "type": "uint96"
        },
        {
          "internalType": "uint96",
          "name": "stakeWithdrawalAmount",
          "type": "uint96"
        },
        {
          "internalType": "uint96",
          "name": "rewardWithdrawalAmount",
          "type": "uint96"
        },
        {
          "internalType": "uint96",
          "name": "frozenAmount",
          "type": "uint96"
        },
        {
          "internalType": "uint256",
          "name": "stakeWithdrawalTimestamp",
          "type": "uint256"
        },
        {
          "internalType": "uint256",
          "name": "rewardWithdrawalTimestamp",
          "type": "uint256"
        },
        {
          "internalType": "uint256",
          "name": "freezeTimestamp",
          "type": "uint256"
        },
        {
          "internalType": "bytes",
          "name": "nodeId",
          "type": "bytes"
        }
      ],
      "stateMutability": "view",
      "type": "function"
    },
    {
      "inputs": [
        {
          "internalType": "address",
          "name": "operationalWallet",
          "type": "address"
        },
        {
          "internalType": "address",
          "name": "adminWallet",
          "type": "address"
        },
        {
          "internalType": "bytes",
          "name": "nodeId",
          "type": "bytes"
        },
        {
          "internalType": "uint96",
          "name": "initialAsk",
          "type": "uint96"
        },
        {
          "internalType": "uint96",
          "name": "initialStake",
          "type": "uint96"
        }
      ],
      "name": "createProfile",
      "outputs": [
        {
          "internalType": "uint96",
          "name": "",
          "type": "uint96"
        }
      ],
      "stateMutability": "nonpayable",
      "type": "function"
    },
    {
      "inputs": [
        {
          "internalType": "uint96",
          "name": "identityId",
          "type": "uint96"
        }
      ],
      "name": "getAsk",
      "outputs": [
        {
          "internalType": "uint96",
          "name": "",
          "type": "uint96"
        }
      ],
      "stateMutability": "view",
      "type": "function"
    },
    {
      "inputs": [
        {
          "internalType": "uint96",
          "name": "identityId",
          "type": "uint96"
        }
      ],
      "name": "getStake",
      "outputs": [
        {
          "internalType": "uint96",
          "name": "",
          "type": "uint96"
        }
      ],
      "stateMutability": "view",
      "type": "function"
    },
    {
      "inputs": [
        {
          "internalType": "uint96",
          "name": "identityId",
          "type": "uint96"
        }
      ],
      "name": "getReward",
      "outputs": [
        {
          "internalType": "uint96",
          "name": "",
          "type": "uint96"
        }
      ],
      "stateMutability": "view",
      "type": "function"
    },
    {
      "inputs": [
        {
          "internalType": "uint96",
          "name": "identityId",
          "type": "uint96"
        }
      ],
      "name": "getStakeWithdrawalAmount",
      "outputs": [
        {
          "internalType": "uint96",
          "name": "",
          "type": "uint96"
        }
      ],
      "stateMutability": "view",
      "type": "function"
    },
    {
      "inputs": [
        {
          "internalType": "uint96",
          "name": "identityId",
          "type": "uint96"
        }
      ],
      "name": "getRewardWithdrawalAmount",
      "outputs": [
        {
          "internalType": "uint96",
          "name": "",
          "type": "uint96"
        }
      ],
      "stateMutability": "view",
      "type": "function"
    },
    {
      "inputs": [
        {
          "internalType": "uint96",
          "name": "identityId",
          "type": "uint96"
        }
      ],
      "name": "getFrozenAmount",
      "outputs": [
        {
          "internalType": "uint96",
          "name": "",
          "type": "uint96"
        }
      ],
      "stateMutability": "view",
      "type": "function"
    },
    {
      "inputs": [
        {
          "internalType": "uint96",
          "name": "identityId",
          "type": "uint96"
        }
      ],
      "name": "getStakeWithdrawalTimestamp",
      "outputs": [
        {
          "internalType": "uint256",
          "name": "",
          "type": "uint256"
        }
      ],
      "stateMutability": "view",
      "type": "function"
    },
    {
      "inputs": [
        {
          "internalType": "uint96",
          "name": "identityId",
          "type": "uint96"
        }
      ],
      "name": "getRewardWithdrawalTimestamp",
      "outputs": [
        {
          "internalType": "uint256",
          "name": "",
          "type": "uint256"
        }
      ],
      "stateMutability": "view",
      "type": "function"
    },
    {
      "inputs": [
        {
          "internalType": "uint96",
          "name": "identityId",
          "type": "uint96"
        }
      ],
      "name": "getFreezeTimestamp",
      "outputs": [
        {
          "internalType": "uint256",
          "name": "",
          "type": "uint256"
        }
      ],
      "stateMutability": "view",
      "type": "function"
    },
    {
      "inputs": [
        {
          "internalType": "uint96",
          "name": "identityId",
          "type": "uint96"
        }
      ],
      "name": "getNodeId",
      "outputs": [
        {
          "internalType": "bytes",
          "name": "",
          "type": "bytes"
        }
      ],
      "stateMutability": "view",
      "type": "function"
    },
    {
      "inputs": [
        {
          "internalType": "uint96",
          "name": "identityId",
          "type": "uint96"
        },
        {
          "internalType": "uint8",
          "name": "hashingFunctionId",
          "type": "uint8"
        }
      ],
      "name": "getNodeAddress",
      "outputs": [
        {
          "internalType": "bytes32",
          "name": "",
          "type": "bytes32"
        }
      ],
      "stateMutability": "view",
      "type": "function"
    },
    {
      "inputs": [
        {
          "internalType": "uint96",
          "name": "identityId",
          "type": "uint96"
        },
        {
          "internalType": "uint96",
          "name": "ask",
          "type": "uint96"
        }
      ],
      "name": "setAsk",
      "outputs": [],
      "stateMutability": "nonpayable",
      "type": "function"
    },
    {
      "inputs": [
        {
          "internalType": "uint96",
          "name": "identityId",
          "type": "uint96"
        },
        {
          "internalType": "uint96",
          "name": "stake",
          "type": "uint96"
        }
      ],
      "name": "setStake",
      "outputs": [],
      "stateMutability": "nonpayable",
      "type": "function"
    },
    {
      "inputs": [
        {
          "internalType": "uint96",
          "name": "identityId",
          "type": "uint96"
        },
        {
          "internalType": "uint96",
          "name": "reward",
          "type": "uint96"
        }
      ],
      "name": "setReward",
      "outputs": [],
      "stateMutability": "nonpayable",
      "type": "function"
    },
    {
      "inputs": [
        {
          "internalType": "uint96",
          "name": "identityId",
          "type": "uint96"
        },
        {
          "internalType": "uint96",
          "name": "stakeWithdrawalAmount",
          "type": "uint96"
        }
      ],
      "name": "setStakeWithdrawalAmount",
      "outputs": [],
      "stateMutability": "nonpayable",
      "type": "function"
    },
    {
      "inputs": [
        {
          "internalType": "uint96",
          "name": "identityId",
          "type": "uint96"
        },
        {
          "internalType": "uint96",
          "name": "rewardWithdrawalAmount",
          "type": "uint96"
        }
      ],
      "name": "setRewardWithdrawalAmount",
      "outputs": [],
      "stateMutability": "nonpayable",
      "type": "function"
    },
    {
      "inputs": [
        {
          "internalType": "uint96",
          "name": "identityId",
          "type": "uint96"
        },
        {
          "internalType": "uint96",
          "name": "frozenAmount",
          "type": "uint96"
        }
      ],
      "name": "setFrozenAmount",
      "outputs": [],
      "stateMutability": "nonpayable",
      "type": "function"
    },
    {
      "inputs": [
        {
          "internalType": "uint96",
          "name": "identityId",
          "type": "uint96"
        },
        {
          "internalType": "uint256",
          "name": "stakeWithdrawalTimestamp",
          "type": "uint256"
        }
      ],
      "name": "setStakeWithdrawalTimestamp",
      "outputs": [],
      "stateMutability": "nonpayable",
      "type": "function"
    },
    {
      "inputs": [
        {
          "internalType": "uint96",
          "name": "identityId",
          "type": "uint96"
        },
        {
          "internalType": "uint256",
          "name": "rewardWithdrawalTimestamp",
          "type": "uint256"
        }
      ],
      "name": "setRewardWithdrawalTimestamp",
      "outputs": [],
      "stateMutability": "nonpayable",
      "type": "function"
    },
    {
      "inputs": [
        {
          "internalType": "uint96",
          "name": "identityId",
          "type": "uint96"
        },
        {
          "internalType": "uint256",
          "name": "freezeTimestamp",
          "type": "uint256"
        }
      ],
      "name": "setFreezeTimestamp",
      "outputs": [],
      "stateMutability": "nonpayable",
      "type": "function"
    },
    {
      "inputs": [
        {
          "internalType": "uint96",
          "name": "identityId",
          "type": "uint96"
        },
        {
          "internalType": "bytes",
          "name": "nodeId",
          "type": "bytes"
        }
      ],
      "name": "setNodeId",
      "outputs": [],
      "stateMutability": "nonpayable",
      "type": "function"
    },
    {
      "inputs": [
        {
          "internalType": "uint96",
          "name": "identityId",
          "type": "uint96"
        },
        {
          "internalType": "uint8",
          "name": "hashingFunctionId",
          "type": "uint8"
        }
      ],
      "name": "setNodeAddress",
      "outputs": [],
      "stateMutability": "nonpayable",
      "type": "function"
    },
    {
      "inputs": [
        {
          "internalType": "address",
          "name": "receiver",
          "type": "address"
        },
        {
          "internalType": "uint96",
          "name": "amount",
          "type": "uint96"
        }
      ],
      "name": "transferTokens",
      "outputs": [],
      "stateMutability": "nonpayable",
      "type": "function"
    }
  ],
  "bytecode": "0x60806040523480156200001157600080fd5b50604051620037f2380380620037f2833981810160405281019062000037919062000122565b600073ffffffffffffffffffffffffffffffffffffffff168173ffffffffffffffffffffffffffffffffffffffff16036200007157600080fd5b806000806101000a81548173ffffffffffffffffffffffffffffffffffffffff021916908373ffffffffffffffffffffffffffffffffffffffff1602179055505062000154565b600080fd5b600073ffffffffffffffffffffffffffffffffffffffff82169050919050565b6000620000ea82620000bd565b9050919050565b620000fc81620000dd565b81146200010857600080fd5b50565b6000815190506200011c81620000f1565b92915050565b6000602082840312156200013b576200013a620000b8565b5b60006200014b848285016200010b565b91505092915050565b61368e80620001646000396000f3fe608060405234801561001057600080fd5b50600436106101a85760003560e01c806374cb0edb116100f9578063a793e82111610097578063d9e2bcbc11610071578063d9e2bcbc1461050f578063e00107741461053f578063e2bd16bd14610578578063f93aad56146105a8576101a8565b8063a793e821146104a7578063abe979e1146104c3578063b0885117146104df576101a8565b8063947bb615116100d3578063947bb6151461040f57806394fceaeb1461043f578063a4f906231461045b578063a707c06914610477576101a8565b806374cb0edb14610393578063769653e6146103c3578063832c7bc1146103df576101a8565b8063365a86fc1161016657806350f0f4081161014057806350f0f408146102e75780636b1374f0146103175780636c5c281c146103475780636dccf56d14610377576101a8565b8063365a86fc1461029157806349d99785146102af5780634f3cc7c0146102cb576101a8565b8062ada70b146101ad578063115ab48e146101dd57806316b1f1521461020d5780631860bd8e14610229578063283bee65146102595780632ccec74714610275575b600080fd5b6101c760048036038101906101c29190612576565b6105c4565b6040516101d491906125b2565b60405180910390f35b6101f760048036038101906101f29190612576565b610618565b60405161020491906125e6565b60405180910390f35b6102276004803603810190610222919061263a565b610654565b005b610243600480360381019061023e9190612576565b6108cb565b60405161025091906125b2565b60405180910390f35b610273600480360381019061026e91906127c0565b61091f565b005b61028f600480360381019061028a919061281c565b610b25565b005b610299610c63565b6040516102a691906128db565b60405180910390f35b6102c960048036038101906102c4919061281c565b610c87565b005b6102e560048036038101906102e09190612922565b610edc565b005b61030160048036038101906102fc9190612576565b610ff0565b60405161030e91906125b2565b60405180910390f35b610331600480360381019061032c9190612576565b611044565b60405161033e91906125b2565b60405180910390f35b610361600480360381019061035c9190612576565b611098565b60405161036e91906129ea565b60405180910390f35b610391600480360381019061038c919061281c565b61115c565b005b6103ad60048036038101906103a89190612576565b611360565b6040516103ba91906125b2565b60405180910390f35b6103dd60048036038101906103d8919061281c565b6113b4565b005b6103f960048036038101906103f49190612576565b6114f2565b60405161040691906125e6565b60405180910390f35b61042960048036038101906104249190612a0c565b61152e565b6040516104369190612a70565b60405180910390f35b61045960048036038101906104549190612922565b611564565b005b6104756004803603810190610470919061281c565b611678565b005b610491600480360381019061048c9190612576565b61187c565b60405161049e91906125e6565b60405180910390f35b6104c160048036038101906104bc919061281c565b6118b8565b005b6104dd60048036038101906104d89190612ac9565b6119f6565b005b6104f960048036038101906104f49190612576565b611c5f565b60405161050691906125b2565b60405180910390f35b61052960048036038101906105249190612b09565b611cb3565b60405161053691906125b2565b60405180910390f35b61055960048036038101906105549190612576565b6121a7565b60405161056f9a99989796959493929190612ba0565b60405180910390f35b610592600480360381019061058d919061263a565b612313565b60405161059f9190612c5c565b60405180910390f35b6105c260048036038101906105bd9190612922565b612367565b005b600060026000836bffffffffffffffffffffffff166bffffffffffffffffffffffff16815260200190815260200160002060020160009054906101000a90046bffffffffffffffffffffffff169050919050565b600060026000836bffffffffffffffffffffffff166bffffffffffffffffffffffff168152602001908152602001600020600401549050919050565b60008054906101000a900473ffffffffffffffffffffffffffffffffffffffff1673ffffffffffffffffffffffffffffffffffffffff166316279055336040518263ffffffff1660e01b81526004016106ad9190612c86565b602060405180830381865afa1580156106ca573d6000803e3d6000fd5b505050506040513d601f19601f820116820180604052508101906106ee9190612ccd565b61072d576040517f08c379a000000000000000000000000000000000000000000000000000000000815260040161072490612d7d565b60405180910390fd5b60008060009054906101000a900473ffffffffffffffffffffffffffffffffffffffff1673ffffffffffffffffffffffffffffffffffffffff166304433bbc6040518163ffffffff1660e01b815260040161078790612de9565b602060405180830381865afa1580156107a4573d6000803e3d6000fd5b505050506040513d601f19601f820116820180604052508101906107c89190612e1e565b90508073ffffffffffffffffffffffffffffffffffffffff1663a2113a668360026000876bffffffffffffffffffffffff166bffffffffffffffffffffffff1681526020019081526020016000206006016040518363ffffffff1660e01b8152600401610836929190612f4f565b6020604051808303816000875af1158015610855573d6000803e3d6000fd5b505050506040513d601f19601f820116820180604052508101906108799190612fab565b60026000856bffffffffffffffffffffffff166bffffffffffffffffffffffff16815260200190815260200160002060070160008460ff1660ff16815260200190815260200160002081905550505050565b600060026000836bffffffffffffffffffffffff166bffffffffffffffffffffffff168152602001908152602001600020600001600c9054906101000a90046bffffffffffffffffffffffff169050919050565b60008054906101000a900473ffffffffffffffffffffffffffffffffffffffff1673ffffffffffffffffffffffffffffffffffffffff166316279055336040518263ffffffff1660e01b81526004016109789190612c86565b602060405180830381865afa158015610995573d6000803e3d6000fd5b505050506040513d601f19601f820116820180604052508101906109b99190612ccd565b6109f8576040517f08c379a00000000000000000000000000000000000000000000000000000000081526004016109ef90612d7d565b60405180910390fd5b6000815103610a3c576040517f08c379a0000000000000000000000000000000000000000000000000000000008152600401610a3390613024565b60405180910390fd5b8060026000846bffffffffffffffffffffffff166bffffffffffffffffffffffff1681526020019081526020016000206006019080519060200190610a8292919061247b565b506000600160026000856bffffffffffffffffffffffff166bffffffffffffffffffffffff168152602001908152602001600020600601604051610ac691906130ce565b908152602001604051809103902060006101000a81548160ff02191690831515021790555060018082604051610afc9190613116565b908152602001604051809103902060006101000a81548160ff0219169083151502179055505050565b60008054906101000a900473ffffffffffffffffffffffffffffffffffffffff1673ffffffffffffffffffffffffffffffffffffffff166316279055336040518263ffffffff1660e01b8152600401610b7e9190612c86565b602060405180830381865afa158015610b9b573d6000803e3d6000fd5b505050506040513d601f19601f82011682018060405250810190610bbf9190612ccd565b610bfe576040517f08c379a0000000000000000000000000000000000000000000000000000000008152600401610bf590612d7d565b60405180910390fd5b8060026000846bffffffffffffffffffffffff166bffffffffffffffffffffffff168152602001908152602001600020600201600c6101000a8154816bffffffffffffffffffffffff02191690836bffffffffffffffffffffffff1602179055505050565b60008054906101000a900473ffffffffffffffffffffffffffffffffffffffff1681565b60008054906101000a900473ffffffffffffffffffffffffffffffffffffffff1673ffffffffffffffffffffffffffffffffffffffff166316279055336040518263ffffffff1660e01b8152600401610ce09190612c86565b602060405180830381865afa158015610cfd573d6000803e3d6000fd5b505050506040513d601f19601f82011682018060405250810190610d219190612ccd565b610d60576040517f08c379a0000000000000000000000000000000000000000000000000000000008152600401610d5790612d7d565b60405180910390fd5b6000816bffffffffffffffffffffffff1611610db1576040517f08c379a0000000000000000000000000000000000000000000000000000000008152600401610da890613179565b60405180910390fd5b8060026000846bffffffffffffffffffffffff166bffffffffffffffffffffffff16815260200190815260200160002060000160006101000a8154816bffffffffffffffffffffffff02191690836bffffffffffffffffffffffff160217905550816bffffffffffffffffffffffff167f9bf13a73b26042469d0163547ba939edab9e3238984e553a4b312d07118bb0813073ffffffffffffffffffffffffffffffffffffffff16636c5c281c856040518263ffffffff1660e01b8152600401610e7b91906125b2565b600060405180830381865afa158015610e98573d6000803e3d6000fd5b505050506040513d6000823e3d601f19601f82011682018060405250810190610ec19190613209565b83604051610ed0929190613252565b60405180910390a25050565b60008054906101000a900473ffffffffffffffffffffffffffffffffffffffff1673ffffffffffffffffffffffffffffffffffffffff166316279055336040518263ffffffff1660e01b8152600401610f359190612c86565b602060405180830381865afa158015610f52573d6000803e3d6000fd5b505050506040513d601f19601f82011682018060405250810190610f769190612ccd565b610fb5576040517f08c379a0000000000000000000000000000000000000000000000000000000008152600401610fac90612d7d565b60405180910390fd5b8060026000846bffffffffffffffffffffffff166bffffffffffffffffffffffff168152602001908152602001600020600301819055505050565b600060026000836bffffffffffffffffffffffff166bffffffffffffffffffffffff16815260200190815260200160002060000160009054906101000a90046bffffffffffffffffffffffff169050919050565b600060026000836bffffffffffffffffffffffff166bffffffffffffffffffffffff168152602001908152602001600020600101600c9054906101000a90046bffffffffffffffffffffffff169050919050565b606060026000836bffffffffffffffffffffffff166bffffffffffffffffffffffff16815260200190815260200160002060060180546110d790612e89565b80601f016020809104026020016040519081016040528092919081815260200182805461110390612e89565b80156111505780601f1061112557610100808354040283529160200191611150565b820191906000526020600020905b81548152906001019060200180831161113357829003601f168201915b50505050509050919050565b60008054906101000a900473ffffffffffffffffffffffffffffffffffffffff1673ffffffffffffffffffffffffffffffffffffffff166316279055336040518263ffffffff1660e01b81526004016111b59190612c86565b602060405180830381865afa1580156111d2573d6000803e3d6000fd5b505050506040513d601f19601f820116820180604052508101906111f69190612ccd565b611235576040517f08c379a000000000000000000000000000000000000000000000000000000000815260040161122c90612d7d565b60405180910390fd5b8060026000846bffffffffffffffffffffffff166bffffffffffffffffffffffff168152602001908152602001600020600001600c6101000a8154816bffffffffffffffffffffffff02191690836bffffffffffffffffffffffff160217905550816bffffffffffffffffffffffff167fa77a36466625d36755152ef1d8c0ab7feb095e9c5591540c91421799a4185e7f3073ffffffffffffffffffffffffffffffffffffffff16636c5c281c856040518263ffffffff1660e01b81526004016112ff91906125b2565b600060405180830381865afa15801561131c573d6000803e3d6000fd5b505050506040513d6000823e3d601f19601f820116820180604052508101906113459190613209565b83604051611354929190613252565b60405180910390a25050565b600060026000836bffffffffffffffffffffffff166bffffffffffffffffffffffff16815260200190815260200160002060010160009054906101000a90046bffffffffffffffffffffffff169050919050565b60008054906101000a900473ffffffffffffffffffffffffffffffffffffffff1673ffffffffffffffffffffffffffffffffffffffff166316279055336040518263ffffffff1660e01b815260040161140d9190612c86565b602060405180830381865afa15801561142a573d6000803e3d6000fd5b505050506040513d601f19601f8201168201806040525081019061144e9190612ccd565b61148d576040517f08c379a000000000000000000000000000000000000000000000000000000000815260040161148490612d7d565b60405180910390fd5b8060026000846bffffffffffffffffffffffff166bffffffffffffffffffffffff168152602001908152602001600020600101600c6101000a8154816bffffffffffffffffffffffff02191690836bffffffffffffffffffffffff1602179055505050565b600060026000836bffffffffffffffffffffffff166bffffffffffffffffffffffff168152602001908152602001600020600301549050919050565b6001818051602081018201805184825260208301602085012081835280955050505050506000915054906101000a900460ff1681565b60008054906101000a900473ffffffffffffffffffffffffffffffffffffffff1673ffffffffffffffffffffffffffffffffffffffff166316279055336040518263ffffffff1660e01b81526004016115bd9190612c86565b602060405180830381865afa1580156115da573d6000803e3d6000fd5b505050506040513d601f19601f820116820180604052508101906115fe9190612ccd565b61163d576040517f08c379a000000000000000000000000000000000000000000000000000000000815260040161163490612d7d565b60405180910390fd5b8060026000846bffffffffffffffffffffffff166bffffffffffffffffffffffff168152602001908152602001600020600401819055505050565b60008054906101000a900473ffffffffffffffffffffffffffffffffffffffff1673ffffffffffffffffffffffffffffffffffffffff166316279055336040518263ffffffff1660e01b81526004016116d19190612c86565b602060405180830381865afa1580156116ee573d6000803e3d6000fd5b505050506040513d601f19601f820116820180604052508101906117129190612ccd565b611751576040517f08c379a000000000000000000000000000000000000000000000000000000000815260040161174890612d7d565b60405180910390fd5b8060026000846bffffffffffffffffffffffff166bffffffffffffffffffffffff16815260200190815260200160002060010160006101000a8154816bffffffffffffffffffffffff02191690836bffffffffffffffffffffffff160217905550816bffffffffffffffffffffffff167fdf6c9caf0223338d1b1d8e941d6b125e547ec14bf3b9789e3a7096b6f17c81633073ffffffffffffffffffffffffffffffffffffffff16636c5c281c856040518263ffffffff1660e01b815260040161181b91906125b2565b600060405180830381865afa158015611838573d6000803e3d6000fd5b505050506040513d6000823e3d601f19601f820116820180604052508101906118619190613209565b83604051611870929190613252565b60405180910390a25050565b600060026000836bffffffffffffffffffffffff166bffffffffffffffffffffffff168152602001908152602001600020600501549050919050565b60008054906101000a900473ffffffffffffffffffffffffffffffffffffffff1673ffffffffffffffffffffffffffffffffffffffff166316279055336040518263ffffffff1660e01b81526004016119119190612c86565b602060405180830381865afa15801561192e573d6000803e3d6000fd5b505050506040513d601f19601f820116820180604052508101906119529190612ccd565b611991576040517f08c379a000000000000000000000000000000000000000000000000000000000815260040161198890612d7d565b60405180910390fd5b8060026000846bffffffffffffffffffffffff166bffffffffffffffffffffffff16815260200190815260200160002060020160006101000a8154816bffffffffffffffffffffffff02191690836bffffffffffffffffffffffff1602179055505050565b60008054906101000a900473ffffffffffffffffffffffffffffffffffffffff1673ffffffffffffffffffffffffffffffffffffffff166316279055336040518263ffffffff1660e01b8152600401611a4f9190612c86565b602060405180830381865afa158015611a6c573d6000803e3d6000fd5b505050506040513d601f19601f82011682018060405250810190611a909190612ccd565b611acf576040517f08c379a0000000000000000000000000000000000000000000000000000000008152600401611ac690612d7d565b60405180910390fd5b600073ffffffffffffffffffffffffffffffffffffffff168273ffffffffffffffffffffffffffffffffffffffff1603611b3e576040517f08c379a0000000000000000000000000000000000000000000000000000000008152600401611b35906132ce565b60405180910390fd5b60008060009054906101000a900473ffffffffffffffffffffffffffffffffffffffff1673ffffffffffffffffffffffffffffffffffffffff166304433bbc6040518163ffffffff1660e01b8152600401611b989061333a565b602060405180830381865afa158015611bb5573d6000803e3d6000fd5b505050506040513d601f19601f82011682018060405250810190611bd99190612e1e565b90508073ffffffffffffffffffffffffffffffffffffffff1663a9059cbb84846040518363ffffffff1660e01b8152600401611c1692919061338b565b6020604051808303816000875af1158015611c35573d6000803e3d6000fd5b505050506040513d601f19601f82011682018060405250810190611c599190612ccd565b50505050565b600060026000836bffffffffffffffffffffffff166bffffffffffffffffffffffff168152602001908152602001600020600201600c9054906101000a90046bffffffffffffffffffffffff169050919050565b60008060009054906101000a900473ffffffffffffffffffffffffffffffffffffffff1673ffffffffffffffffffffffffffffffffffffffff166316279055336040518263ffffffff1660e01b8152600401611d0f9190612c86565b602060405180830381865afa158015611d2c573d6000803e3d6000fd5b505050506040513d601f19601f82011682018060405250810190611d509190612ccd565b611d8f576040517f08c379a0000000000000000000000000000000000000000000000000000000008152600401611d8690612d7d565b60405180910390fd5b60008060009054906101000a900473ffffffffffffffffffffffffffffffffffffffff1673ffffffffffffffffffffffffffffffffffffffff166304433bbc6040518163ffffffff1660e01b8152600401611de990613400565b602060405180830381865afa158015611e06573d6000803e3d6000fd5b505050506040513d601f19601f82011682018060405250810190611e2a9190612e1e565b9050600087604051602001611e3f9190613468565b60405160208183030381529060405280519060200120905060008273ffffffffffffffffffffffffffffffffffffffff16631fc2b3ab836040518263ffffffff1660e01b8152600401611e929190612c5c565b602060405180830381865afa158015611eaf573d6000803e3d6000fd5b505050506040513d601f19601f82011682018060405250810190611ed39190613498565b6bffffffffffffffffffffffff1614611f21576040517f08c379a0000000000000000000000000000000000000000000000000000000008152600401611f1890613511565b60405180910390fd5b600186604051611f319190613116565b908152602001604051809103902060009054906101000a900460ff1615611f8d576040517f08c379a0000000000000000000000000000000000000000000000000000000008152600401611f84906135a3565b60405180910390fd5b6000865103611fd1576040517f08c379a0000000000000000000000000000000000000000000000000000000008152600401611fc890613024565b60405180910390fd5b6000856bffffffffffffffffffffffff1611612022576040517f08c379a00000000000000000000000000000000000000000000000000000000081526004016120199061360f565b60405180910390fd5b60008273ffffffffffffffffffffffffffffffffffffffff1663d10e73ab8a8a6040518363ffffffff1660e01b815260040161205f92919061362f565b6020604051808303816000875af115801561207e573d6000803e3d6000fd5b505050506040513d601f19601f820116820180604052508101906120a29190613498565b9050600060026000836bffffffffffffffffffffffff166bffffffffffffffffffffffff1681526020019081526020016000209050868160000160006101000a8154816bffffffffffffffffffffffff02191690836bffffffffffffffffffffffff1602179055508581600001600c6101000a8154816bffffffffffffffffffffffff02191690836bffffffffffffffffffffffff1602179055508781600601908051906020019061215592919061247b565b50612161826000610654565b600180896040516121729190613116565b908152602001604051809103902060006101000a81548160ff0219169083151502179055508194505050505095945050505050565b60026020528060005260406000206000915090508060000160009054906101000a90046bffffffffffffffffffffffff169080600001600c9054906101000a90046bffffffffffffffffffffffff16908060010160009054906101000a90046bffffffffffffffffffffffff169080600101600c9054906101000a90046bffffffffffffffffffffffff16908060020160009054906101000a90046bffffffffffffffffffffffff169080600201600c9054906101000a90046bffffffffffffffffffffffff169080600301549080600401549080600501549080600601805461229090612e89565b80601f01602080910402602001604051908101604052809291908181526020018280546122bc90612e89565b80156123095780601f106122de57610100808354040283529160200191612309565b820191906000526020600020905b8154815290600101906020018083116122ec57829003601f168201915b505050505090508a565b600060026000846bffffffffffffffffffffffff166bffffffffffffffffffffffff16815260200190815260200160002060070160008360ff1660ff16815260200190815260200160002054905092915050565b60008054906101000a900473ffffffffffffffffffffffffffffffffffffffff1673ffffffffffffffffffffffffffffffffffffffff166316279055336040518263ffffffff1660e01b81526004016123c09190612c86565b602060405180830381865afa1580156123dd573d6000803e3d6000fd5b505050506040513d601f19601f820116820180604052508101906124019190612ccd565b612440576040517f08c379a000000000000000000000000000000000000000000000000000000000815260040161243790612d7d565b60405180910390fd5b8060026000846bffffffffffffffffffffffff166bffffffffffffffffffffffff168152602001908152602001600020600501819055505050565b82805461248790612e89565b90600052602060002090601f0160209004810192826124a957600085556124f0565b82601f106124c257805160ff19168380011785556124f0565b828001600101855582156124f0579182015b828111156124ef5782518255916020019190600101906124d4565b5b5090506124fd9190612501565b5090565b5b8082111561251a576000816000905550600101612502565b5090565b6000604051905090565b600080fd5b600080fd5b60006bffffffffffffffffffffffff82169050919050565b61255381612532565b811461255e57600080fd5b50565b6000813590506125708161254a565b92915050565b60006020828403121561258c5761258b612528565b5b600061259a84828501612561565b91505092915050565b6125ac81612532565b82525050565b60006020820190506125c760008301846125a3565b92915050565b6000819050919050565b6125e0816125cd565b82525050565b60006020820190506125fb60008301846125d7565b92915050565b600060ff82169050919050565b61261781612601565b811461262257600080fd5b50565b6000813590506126348161260e565b92915050565b6000806040838503121561265157612650612528565b5b600061265f85828601612561565b925050602061267085828601612625565b9150509250929050565b600080fd5b600080fd5b6000601f19601f8301169050919050565b7f4e487b7100000000000000000000000000000000000000000000000000000000600052604160045260246000fd5b6126cd82612684565b810181811067ffffffffffffffff821117156126ec576126eb612695565b5b80604052505050565b60006126ff61251e565b905061270b82826126c4565b919050565b600067ffffffffffffffff82111561272b5761272a612695565b5b61273482612684565b9050602081019050919050565b82818337600083830152505050565b600061276361275e84612710565b6126f5565b90508281526020810184848401111561277f5761277e61267f565b5b61278a848285612741565b509392505050565b600082601f8301126127a7576127a661267a565b5b81356127b7848260208601612750565b91505092915050565b600080604083850312156127d7576127d6612528565b5b60006127e585828601612561565b925050602083013567ffffffffffffffff8111156128065761280561252d565b5b61281285828601612792565b9150509250929050565b6000806040838503121561283357612832612528565b5b600061284185828601612561565b925050602061285285828601612561565b9150509250929050565b600073ffffffffffffffffffffffffffffffffffffffff82169050919050565b6000819050919050565b60006128a161289c6128978461285c565b61287c565b61285c565b9050919050565b60006128b382612886565b9050919050565b60006128c5826128a8565b9050919050565b6128d5816128ba565b82525050565b60006020820190506128f060008301846128cc565b92915050565b6128ff816125cd565b811461290a57600080fd5b50565b60008135905061291c816128f6565b92915050565b6000806040838503121561293957612938612528565b5b600061294785828601612561565b92505060206129588582860161290d565b9150509250929050565b600081519050919050565b600082825260208201905092915050565b60005b8381101561299c578082015181840152602081019050612981565b838111156129ab576000848401525b50505050565b60006129bc82612962565b6129c6818561296d565b93506129d681856020860161297e565b6129df81612684565b840191505092915050565b60006020820190508181036000830152612a0481846129b1565b905092915050565b600060208284031215612a2257612a21612528565b5b600082013567ffffffffffffffff811115612a4057612a3f61252d565b5b612a4c84828501612792565b91505092915050565b60008115159050919050565b612a6a81612a55565b82525050565b6000602082019050612a856000830184612a61565b92915050565b6000612a968261285c565b9050919050565b612aa681612a8b565b8114612ab157600080fd5b50565b600081359050612ac381612a9d565b92915050565b60008060408385031215612ae057612adf612528565b5b6000612aee85828601612ab4565b9250506020612aff85828601612561565b9150509250929050565b600080600080600060a08688031215612b2557612b24612528565b5b6000612b3388828901612ab4565b9550506020612b4488828901612ab4565b945050604086013567ffffffffffffffff811115612b6557612b6461252d565b5b612b7188828901612792565b9350506060612b8288828901612561565b9250506080612b9388828901612561565b9150509295509295909350565b600061014082019050612bb6600083018d6125a3565b612bc3602083018c6125a3565b612bd0604083018b6125a3565b612bdd606083018a6125a3565b612bea60808301896125a3565b612bf760a08301886125a3565b612c0460c08301876125d7565b612c1160e08301866125d7565b612c1f6101008301856125d7565b818103610120830152612c3281846129b1565b90509b9a5050505050505050505050565b6000819050919050565b612c5681612c43565b82525050565b6000602082019050612c716000830184612c4d565b92915050565b612c8081612a8b565b82525050565b6000602082019050612c9b6000830184612c77565b92915050565b612caa81612a55565b8114612cb557600080fd5b50565b600081519050612cc781612ca1565b92915050565b600060208284031215612ce357612ce2612528565b5b6000612cf184828501612cb8565b91505092915050565b600082825260208201905092915050565b7f46756e6374696f6e2063616e206f6e6c792062652063616c6c6564206279206360008201527f6f6e747261637473210000000000000000000000000000000000000000000000602082015250565b6000612d67602983612cfa565b9150612d7282612d0b565b604082019050919050565b60006020820190508181036000830152612d9681612d5a565b9050919050565b7f48617368696e6750726f78790000000000000000000000000000000000000000600082015250565b6000612dd3600c83612cfa565b9150612dde82612d9d565b602082019050919050565b60006020820190508181036000830152612e0281612dc6565b9050919050565b600081519050612e1881612a9d565b92915050565b600060208284031215612e3457612e33612528565b5b6000612e4284828501612e09565b91505092915050565b612e5481612601565b82525050565b7f4e487b7100000000000000000000000000000000000000000000000000000000600052602260045260246000fd5b60006002820490506001821680612ea157607f821691505b602082108103612eb457612eb3612e5a565b5b50919050565b60008190508160005260206000209050919050565b60008154612edc81612e89565b612ee6818661296d565b94506001821660008114612f015760018114612f1357612f46565b60ff1983168652602086019350612f46565b612f1c85612eba565b60005b83811015612f3e57815481890152600182019150602081019050612f1f565b808801955050505b50505092915050565b6000604082019050612f646000830185612e4b565b8181036020830152612f768184612ecf565b90509392505050565b612f8881612c43565b8114612f9357600080fd5b50565b600081519050612fa581612f7f565b92915050565b600060208284031215612fc157612fc0612528565b5b6000612fcf84828501612f96565b91505092915050565b7f4e6f64652049442063616e277420626520656d70747900000000000000000000600082015250565b600061300e601683612cfa565b915061301982612fd8565b602082019050919050565b6000602082019050818103600083015261303d81613001565b9050919050565b600081905092915050565b6000815461305c81612e89565b6130668186613044565b945060018216600081146130815760018114613092576130c5565b60ff198316865281860193506130c5565b61309b85612eba565b60005b838110156130bd5781548189015260018201915060208101905061309e565b838801955050505b50505092915050565b60006130da828461304f565b915081905092915050565b60006130f082612962565b6130fa8185613044565b935061310a81856020860161297e565b80840191505092915050565b600061312282846130e5565b915081905092915050565b7f41736b2063616e6e6f7420626520302e00000000000000000000000000000000600082015250565b6000613163601083612cfa565b915061316e8261312d565b602082019050919050565b6000602082019050818103600083015261319281613156565b9050919050565b60006131ac6131a784612710565b6126f5565b9050828152602081018484840111156131c8576131c761267f565b5b6131d384828561297e565b509392505050565b600082601f8301126131f0576131ef61267a565b5b8151613200848260208601613199565b91505092915050565b60006020828403121561321f5761321e612528565b5b600082015167ffffffffffffffff81111561323d5761323c61252d565b5b613249848285016131db565b91505092915050565b6000604082019050818103600083015261326c81856129b1565b905061327b60208301846125a3565b9392505050565b7f526563656976657220616464726573732063616e277420626520656d70747900600082015250565b60006132b8601f83612cfa565b91506132c382613282565b602082019050919050565b600060208201905081810360008301526132e7816132ab565b9050919050565b7f546f6b656e000000000000000000000000000000000000000000000000000000600082015250565b6000613324600583612cfa565b915061332f826132ee565b602082019050919050565b6000602082019050818103600083015261335381613317565b9050919050565b600061337561337061336b84612532565b61287c565b6125cd565b9050919050565b6133858161335a565b82525050565b60006040820190506133a06000830185612c77565b6133ad602083018461337c565b9392505050565b7f4964656e7469747953746f726167650000000000000000000000000000000000600082015250565b60006133ea600f83612cfa565b91506133f5826133b4565b602082019050919050565b60006020820190508181036000830152613419816133dd565b9050919050565b60008160601b9050919050565b600061343882613420565b9050919050565b600061344a8261342d565b9050919050565b61346261345d82612a8b565b61343f565b82525050565b60006134748284613451565b60148201915081905092915050565b6000815190506134928161254a565b92915050565b6000602082840312156134ae576134ad612528565b5b60006134bc84828501613483565b91505092915050565b7f50726f66696c6520616c72656164792065786973747300000000000000000000600082015250565b60006134fb601683612cfa565b9150613506826134c5565b602082019050919050565b6000602082019050818103600083015261352a816134ee565b9050919050565b7f4e6f646520494420636f6e6e6563746564207769746820616e6f74686572207060008201527f726f66696c650000000000000000000000000000000000000000000000000000602082015250565b600061358d602683612cfa565b915061359882613531565b604082019050919050565b600060208201905081810360008301526135bc81613580565b9050919050565b7f41736b2063616e27742062652030000000000000000000000000000000000000600082015250565b60006135f9600e83612cfa565b9150613604826135c3565b602082019050919050565b60006020820190508181036000830152613628816135ec565b9050919050565b60006040820190506136446000830185612c77565b6136516020830184612c77565b939250505056fea26469706673582212200ee4237592b0d22492b10248538abdd0240523786bf7ee2eee8d463e4b81565f64736f6c634300080e0033",
  "immutableReferences": {},
  "source": "// SPDX-License-Identifier: MIT\n\npragma solidity ^0.8.0;\n\nimport { HashingProxy } from \"../HashingProxy.sol\";\nimport { Hub } from \"../Hub.sol\";\nimport { IdentityStorage } from \"./IdentityStorage.sol\";\nimport { IERC20 } from \"@openzeppelin/contracts/token/ERC20/IERC20.sol\";\n\ncontract ProfileStorage {\n    event AskUpdated(uint96 indexed identityId, bytes nodeId, uint96 ask);\n    event StakeUpdated(uint96 indexed identityId, bytes nodeId, uint96 stake);\n    event RewardUpdated(uint96 indexed identityId, bytes nodeId, uint96 reward);\n\n    Hub public hub;\n\n    struct ProfileDefinition{\n        uint96 ask;\n        uint96 stake;\n        uint96 reward;\n        uint96 stakeWithdrawalAmount;\n        uint96 rewardWithdrawalAmount;\n        uint96 frozenAmount;  // TODO: Slashing mechanism\n        uint256 stakeWithdrawalTimestamp;\n        uint256 rewardWithdrawalTimestamp;\n        uint256 freezeTimestamp;  // TODO: Slashing mechanism\n        bytes nodeId;\n        mapping(uint8 => bytes32) nodeAddresses;\n    }\n\n    // nodeId => isRegistered?\n    mapping(bytes => bool) public nodeIdsList;\n    // identityId => Profile\n    mapping(uint96 => ProfileDefinition) public profiles;\n\n    constructor(address hubAddress) {\n        require(hubAddress != address(0));\n        hub = Hub(hubAddress);\n    }\n\n    modifier onlyContracts() {\n        require(hub.isContract(msg.sender),\n        \"Function can only be called by contracts!\");\n        _;\n    }\n\n    function createProfile(\n        address operationalWallet,\n        address adminWallet,\n        bytes memory nodeId,\n        uint96 initialAsk,\n        uint96 initialStake\n    )\n        public\n        onlyContracts\n        returns (uint96)\n    {\n        IdentityStorage identityStorage = IdentityStorage(hub.getContractAddress(\"IdentityStorage\"));\n\n        bytes32 _operational_key = keccak256(abi.encodePacked(operationalWallet));\n\n        require(identityStorage.identityIds(_operational_key) == 0, \"Profile already exists\");\n        require(!nodeIdsList[nodeId], \"Node ID connected with another profile\");\n        require(nodeId.length != 0, \"Node ID can't be empty\");\n        require(initialAsk > 0, \"Ask can't be 0\");\n\n        uint96 identityId = identityStorage.createIdentity(operationalWallet, adminWallet);\n\n        ProfileDefinition storage profile = profiles[identityId];\n        profile.ask = initialAsk;\n        profile.stake = initialStake;\n        profile.nodeId = nodeId;\n        setNodeAddress(identityId, 0);  // TODO: Add setters for all existing hashing functions\n\n        nodeIdsList[nodeId] = true;\n\n        return identityId;\n    }\n\n    /* ----------------GETTERS------------------ */\n    function getAsk(uint96 identityId)\n        public\n        view\n        returns (uint96)\n    {\n        return profiles[identityId].ask;\n    }\n\n    function getStake(uint96 identityId) \n        public\n        view\n        returns (uint96)\n    {\n        return profiles[identityId].stake;\n    }\n\n    function getReward(uint96 identityId)\n        public\n        view\n        returns (uint96)\n    {\n        return profiles[identityId].reward;\n    }\n\n    function getStakeWithdrawalAmount(uint96 identityId) \n        public\n        view\n        returns (uint96)\n    {\n        return profiles[identityId].stakeWithdrawalAmount;\n    }\n\n    function getRewardWithdrawalAmount(uint96 identityId)\n        public\n        view\n        returns (uint96)\n    {\n        return profiles[identityId].rewardWithdrawalAmount;\n    }\n\n    function getFrozenAmount(uint96 identityId) \n        public\n        view\n        returns (uint96)\n    {\n        return profiles[identityId].frozenAmount;\n    }\n\n    function getStakeWithdrawalTimestamp(uint96 identityId) \n        public\n        view\n        returns (uint256)\n    {\n        return profiles[identityId].stakeWithdrawalTimestamp;\n    }\n\n    function getRewardWithdrawalTimestamp(uint96 identityId)\n        public\n        view\n        returns (uint256)\n    {\n        return profiles[identityId].rewardWithdrawalTimestamp;\n    }\n\n    function getFreezeTimestamp(uint96 identityId)\n        public\n        view\n        returns (uint256)\n    {\n        return profiles[identityId].freezeTimestamp;\n    }\n\n    function getNodeId(uint96 identityId) \n        public\n        view\n        returns (bytes memory)\n    {\n        return profiles[identityId].nodeId;\n    }\n\n    function getNodeAddress(uint96 identityId, uint8 hashingFunctionId)\n        public\n        view\n        returns (bytes32)\n    {\n        return profiles[identityId].nodeAddresses[hashingFunctionId];\n    }\n\n    /* ----------------SETTERS------------------ */\n    function setAsk(uint96 identityId, uint96 ask)\n        public\n        onlyContracts\n    {\n        require(ask > 0, \"Ask cannot be 0.\");\n\n        profiles[identityId].ask = ask;\n\n        emit AskUpdated(identityId, this.getNodeId(identityId), ask);\n    }\n    \n    function setStake(uint96 identityId, uint96 stake)\n        public\n        onlyContracts\n    {\n        profiles[identityId].stake = stake;\n\n        emit StakeUpdated(identityId, this.getNodeId(identityId), stake);\n    }\n\n    function setReward(uint96 identityId, uint96 reward)\n        public\n        onlyContracts\n    {\n        profiles[identityId].reward = reward;\n\n        emit RewardUpdated(identityId, this.getNodeId(identityId), reward);\n    }\n\n    function setStakeWithdrawalAmount(uint96 identityId, uint96 stakeWithdrawalAmount) \n        public\n        onlyContracts\n    {\n        profiles[identityId].stakeWithdrawalAmount = stakeWithdrawalAmount;\n    }\n\n    function setRewardWithdrawalAmount(uint96 identityId, uint96 rewardWithdrawalAmount)\n        public\n        onlyContracts\n    {\n        profiles[identityId].rewardWithdrawalAmount = rewardWithdrawalAmount;\n    }\n\n    function setFrozenAmount(uint96 identityId, uint96 frozenAmount) \n        public\n        onlyContracts\n    {\n        profiles[identityId].frozenAmount = frozenAmount;\n    }\n\n    function setStakeWithdrawalTimestamp(uint96 identityId, uint256 stakeWithdrawalTimestamp) \n        public\n        onlyContracts\n    {\n        profiles[identityId].stakeWithdrawalTimestamp = stakeWithdrawalTimestamp;\n    }\n\n    function setRewardWithdrawalTimestamp(uint96 identityId, uint256 rewardWithdrawalTimestamp)\n        public\n        onlyContracts\n    {\n        profiles[identityId].rewardWithdrawalTimestamp = rewardWithdrawalTimestamp;\n    }\n\n    function setFreezeTimestamp(uint96 identityId, uint256 freezeTimestamp)\n        public\n        onlyContracts\n    {\n        profiles[identityId].freezeTimestamp = freezeTimestamp;\n    }\n\n    function setNodeId(uint96 identityId, bytes memory nodeId)\n        public\n        onlyContracts\n    {\n        require(nodeId.length != 0, \"Node ID can't be empty\");\n\n        profiles[identityId].nodeId = nodeId;\n\n        nodeIdsList[profiles[identityId].nodeId] = false;\n        nodeIdsList[nodeId] = true;\n    }\n\n    function setNodeAddress(uint96 identityId, uint8 hashingFunctionId)\n        public\n        onlyContracts\n    {\n        HashingProxy hashingProxy = HashingProxy(hub.getContractAddress(\"HashingProxy\"));\n        profiles[identityId].nodeAddresses[hashingFunctionId] = hashingProxy.callHashingFunction(\n            hashingFunctionId,\n            profiles[identityId].nodeId\n        );\n    }\n\n    function transferTokens(address receiver, uint96 amount)\n        public\n        onlyContracts\n    {\n        require(receiver != address(0), \"Receiver address can't be empty\");\n\n        IERC20 tokenContract = IERC20(hub.getContractAddress(\"Token\"));\n        tokenContract.transfer(receiver, amount);\n    }\n}\n",
  "sourcePath": "/Users/waving/Desktop/OriginTrail/dkg-evm-module/contracts/storage/ProfileStorage.sol",
  "compiler": {
    "name": "solc",
    "version": "0.8.14+commit.80d49f37.Emscripten.clang"
  },
  "schemaVersion": "3.4.10",
  "updatedAt": "2022-11-17T15:32:17.078Z",
  "devdoc": {
    "kind": "dev",
    "methods": {},
    "version": 1
  },
  "userdoc": {
    "kind": "user",
    "methods": {},
    "version": 1
  }
}