{
  "contractName": "ProfileStorage",
  "abi": [
    {
      "inputs": [
        {
          "internalType": "address",
          "name": "hubAddress",
          "type": "address"
        }
      ],
      "stateMutability": "nonpayable",
      "type": "constructor"
    },
    {
      "anonymous": false,
      "inputs": [
        {
          "indexed": false,
          "internalType": "bytes",
          "name": "nodeId",
          "type": "bytes"
        },
        {
          "indexed": false,
          "internalType": "uint256",
          "name": "ask",
          "type": "uint256"
        }
      ],
      "name": "AskUpdated",
      "type": "event"
    },
    {
      "anonymous": false,
      "inputs": [
        {
          "indexed": false,
          "internalType": "bytes",
          "name": "nodeId",
          "type": "bytes"
        },
        {
          "indexed": false,
          "internalType": "uint256",
          "name": "stake",
          "type": "uint256"
        }
      ],
      "name": "StakeUpdated",
      "type": "event"
    },
    {
      "inputs": [],
      "name": "activeNodes",
      "outputs": [
        {
          "internalType": "uint256",
          "name": "",
          "type": "uint256"
        }
      ],
      "stateMutability": "view",
      "type": "function",
      "constant": true
    },
    {
      "inputs": [],
      "name": "hub",
      "outputs": [
        {
          "internalType": "contract Hub",
          "name": "",
          "type": "address"
        }
      ],
      "stateMutability": "view",
      "type": "function",
      "constant": true
    },
    {
      "inputs": [
        {
          "internalType": "address",
          "name": "",
          "type": "address"
        }
      ],
      "name": "profile",
      "outputs": [
        {
          "internalType": "uint256",
          "name": "ask",
          "type": "uint256"
        },
        {
          "internalType": "uint256",
          "name": "stake",
          "type": "uint256"
        },
        {
          "internalType": "uint256",
          "name": "stakeReserved",
          "type": "uint256"
        },
        {
          "internalType": "uint256",
          "name": "reputation",
          "type": "uint256"
        },
        {
          "internalType": "bool",
          "name": "withdrawalPending",
          "type": "bool"
        },
        {
          "internalType": "uint256",
          "name": "withdrawalTimestamp",
          "type": "uint256"
        },
        {
          "internalType": "uint256",
          "name": "withdrawalAmount",
          "type": "uint256"
        },
        {
          "internalType": "bytes",
          "name": "nodeId",
          "type": "bytes"
        }
      ],
      "stateMutability": "view",
      "type": "function",
      "constant": true
    },
    {
      "inputs": [
        {
          "internalType": "address",
          "name": "newHubAddress",
          "type": "address"
        }
      ],
      "name": "setHubAddress",
      "outputs": [],
      "stateMutability": "nonpayable",
      "type": "function"
    },
    {
      "inputs": [
        {
          "internalType": "uint256",
          "name": "newActiveNodes",
          "type": "uint256"
        }
      ],
      "name": "setActiveNodes",
      "outputs": [],
      "stateMutability": "nonpayable",
      "type": "function"
    },
    {
      "inputs": [
        {
          "internalType": "address",
          "name": "identity",
          "type": "address"
        }
      ],
      "name": "getAsk",
      "outputs": [
        {
          "internalType": "uint256",
          "name": "",
          "type": "uint256"
        }
      ],
      "stateMutability": "view",
      "type": "function",
      "constant": true
    },
    {
      "inputs": [
        {
          "internalType": "address",
          "name": "identity",
          "type": "address"
        }
      ],
      "name": "getStake",
      "outputs": [
        {
          "internalType": "uint256",
          "name": "",
          "type": "uint256"
        }
      ],
      "stateMutability": "view",
      "type": "function",
      "constant": true
    },
    {
      "inputs": [
        {
          "internalType": "address",
          "name": "identity",
          "type": "address"
        }
      ],
      "name": "getStakeReserved",
      "outputs": [
        {
          "internalType": "uint256",
          "name": "",
          "type": "uint256"
        }
      ],
      "stateMutability": "view",
      "type": "function",
      "constant": true
    },
    {
      "inputs": [
        {
          "internalType": "address",
          "name": "identity",
          "type": "address"
        }
      ],
      "name": "getReputation",
      "outputs": [
        {
          "internalType": "uint256",
          "name": "",
          "type": "uint256"
        }
      ],
      "stateMutability": "view",
      "type": "function",
      "constant": true
    },
    {
      "inputs": [
        {
          "internalType": "address",
          "name": "identity",
          "type": "address"
        }
      ],
      "name": "getWithdrawalPending",
      "outputs": [
        {
          "internalType": "bool",
          "name": "",
          "type": "bool"
        }
      ],
      "stateMutability": "view",
      "type": "function",
      "constant": true
    },
    {
      "inputs": [
        {
          "internalType": "address",
          "name": "identity",
          "type": "address"
        }
      ],
      "name": "getWithdrawalTimestamp",
      "outputs": [
        {
          "internalType": "uint256",
          "name": "",
          "type": "uint256"
        }
      ],
      "stateMutability": "view",
      "type": "function",
      "constant": true
    },
    {
      "inputs": [
        {
          "internalType": "address",
          "name": "identity",
          "type": "address"
        }
      ],
      "name": "getWithdrawalAmount",
      "outputs": [
        {
          "internalType": "uint256",
          "name": "",
          "type": "uint256"
        }
      ],
      "stateMutability": "view",
      "type": "function",
      "constant": true
    },
    {
      "inputs": [
        {
          "internalType": "address",
          "name": "identity",
          "type": "address"
        }
      ],
      "name": "getNodeId",
      "outputs": [
        {
          "internalType": "bytes",
          "name": "",
          "type": "bytes"
        }
      ],
      "stateMutability": "view",
      "type": "function",
      "constant": true
    },
    {
      "inputs": [
        {
          "internalType": "address",
          "name": "identity",
          "type": "address"
        },
        {
          "internalType": "uint256",
          "name": "ask",
          "type": "uint256"
        }
      ],
      "name": "setAsk",
      "outputs": [],
      "stateMutability": "nonpayable",
      "type": "function"
    },
    {
      "inputs": [
        {
          "internalType": "address",
          "name": "identity",
          "type": "address"
        },
        {
          "internalType": "uint256",
          "name": "stake",
          "type": "uint256"
        }
      ],
      "name": "setStake",
      "outputs": [],
      "stateMutability": "nonpayable",
      "type": "function"
    },
    {
      "inputs": [
        {
          "internalType": "address",
          "name": "identity",
          "type": "address"
        },
        {
          "internalType": "uint256",
          "name": "stakeReserved",
          "type": "uint256"
        }
      ],
      "name": "setStakeReserved",
      "outputs": [],
      "stateMutability": "nonpayable",
      "type": "function"
    },
    {
      "inputs": [
        {
          "internalType": "address",
          "name": "identity",
          "type": "address"
        },
        {
          "internalType": "uint256",
          "name": "reputation",
          "type": "uint256"
        }
      ],
      "name": "setReputation",
      "outputs": [],
      "stateMutability": "nonpayable",
      "type": "function"
    },
    {
      "inputs": [
        {
          "internalType": "address",
          "name": "identity",
          "type": "address"
        },
        {
          "internalType": "bool",
          "name": "withdrawalPending",
          "type": "bool"
        }
      ],
      "name": "setWithdrawalPending",
      "outputs": [],
      "stateMutability": "nonpayable",
      "type": "function"
    },
    {
      "inputs": [
        {
          "internalType": "address",
          "name": "identity",
          "type": "address"
        },
        {
          "internalType": "uint256",
          "name": "withdrawalTimestamp",
          "type": "uint256"
        }
      ],
      "name": "setWithdrawalTimestamp",
      "outputs": [],
      "stateMutability": "nonpayable",
      "type": "function"
    },
    {
      "inputs": [
        {
          "internalType": "address",
          "name": "identity",
          "type": "address"
        },
        {
          "internalType": "uint256",
          "name": "withdrawalAmount",
          "type": "uint256"
        }
      ],
      "name": "setWithdrawalAmount",
      "outputs": [],
      "stateMutability": "nonpayable",
      "type": "function"
    },
    {
      "inputs": [
        {
          "internalType": "address",
          "name": "identity",
          "type": "address"
        },
        {
          "internalType": "bytes",
          "name": "nodeId",
          "type": "bytes"
        }
      ],
      "name": "setNodeId",
      "outputs": [],
      "stateMutability": "nonpayable",
      "type": "function"
    },
    {
      "inputs": [
        {
          "internalType": "address",
          "name": "payer",
          "type": "address"
        },
        {
          "internalType": "address",
          "name": "identity1",
          "type": "address"
        },
        {
          "internalType": "address",
          "name": "identity2",
          "type": "address"
        },
        {
          "internalType": "address",
          "name": "identity3",
          "type": "address"
        },
        {
          "internalType": "uint256",
          "name": "amount",
          "type": "uint256"
        }
      ],
      "name": "increaseStakesReserved",
      "outputs": [],
      "stateMutability": "nonpayable",
      "type": "function"
    },
    {
      "inputs": [
        {
          "internalType": "address",
          "name": "wallet",
          "type": "address"
        },
        {
          "internalType": "uint256",
          "name": "amount",
          "type": "uint256"
        }
      ],
      "name": "transferTokens",
      "outputs": [],
      "stateMutability": "nonpayable",
      "type": "function"
    }
  ],
  "bytecode": "0x60806040523480156200001157600080fd5b506040516200265c3803806200265c8339818101604052810190620000379190620000ef565b806000806101000a81548173ffffffffffffffffffffffffffffffffffffffff021916908373ffffffffffffffffffffffffffffffffffffffff160217905550600180819055505062000121565b600080fd5b600073ffffffffffffffffffffffffffffffffffffffff82169050919050565b6000620000b7826200008a565b9050919050565b620000c981620000aa565b8114620000d557600080fd5b50565b600081519050620000e981620000be565b92915050565b60006020828403121562000108576200010762000085565b5b60006200011884828501620000d8565b91505092915050565b61252b80620001316000396000f3fe608060405234801561001057600080fd5b506004361061014d5760003560e01c80639385067f116100c3578063b56e41291161007c578063b56e4129146103c5578063bd3cd525146103f5578063bec3fa1714610411578063c7eb45221461042d578063de129f4e14610449578063de1e395d146104795761014d565b80639385067f146102ee5780639c89a0e21461030a5780639dd9d0fd1461033a578063a6748ef514610371578063adc4bd981461038d578063b120c16a146103a95761014d565b806356582bf91161011557806356582bf9146101f65780635ffe02821461022657806367b6d271146102565780637a7664601461027257806382aa2928146102a25780639344ea6e146102be5761014d565b806307f19651146101525780632ba9759514610170578063365a86fc146101a057806348fd564b146101be57806350c3ff57146101da575b600080fd5b61015a610495565b6040516101679190611b2c565b60405180910390f35b61018a60048036038101906101859190611bb9565b61049b565b6040516101979190611c01565b60405180910390f35b6101a86104f4565b6040516101b59190611c7b565b60405180910390f35b6101d860048036038101906101d39190611cc2565b610518565b005b6101f460048036038101906101ef9190611cef565b6105fb565b005b610210600480360381019061020b9190611bb9565b61071f565b60405161021d9190611b2c565b60405180910390f35b610240600480360381019061023b9190611bb9565b61076b565b60405161024d9190611b2c565b60405180910390f35b610270600480360381019061026b9190611cef565b6107b7565b005b61028c60048036038101906102879190611bb9565b6108db565b6040516102999190611b2c565b60405180910390f35b6102bc60048036038101906102b79190611cef565b610927565b005b6102d860048036038101906102d39190611bb9565b610a4b565b6040516102e59190611b2c565b60405180910390f35b61030860048036038101906103039190611d5b565b610a97565b005b610324600480360381019061031f9190611bb9565b610bce565b6040516103319190611b2c565b60405180910390f35b610354600480360381019061034f9190611bb9565b610c1a565b604051610368989796959493929190611e34565b60405180910390f35b61038b60048036038101906103869190611eb9565b610cf7565b005b6103a760048036038101906103a29190612069565b610ff3565b005b6103c360048036038101906103be9190611cef565b611127565b005b6103df60048036038101906103da9190611bb9565b61124b565b6040516103ec91906120c5565b60405180910390f35b61040f600480360381019061040a9190611cef565b61131f565b005b61042b60048036038101906104269190611cef565b6114fa565b005b61044760048036038101906104429190611bb9565b6116f4565b005b610463600480360381019061045e9190611bb9565b611849565b6040516104709190611b2c565b60405180910390f35b610493600480360381019061048e9190611cef565b611895565b005b60015481565b6000600260008373ffffffffffffffffffffffffffffffffffffffff1673ffffffffffffffffffffffffffffffffffffffff16815260200190815260200160002060040160009054906101000a900460ff169050919050565b60008054906101000a900473ffffffffffffffffffffffffffffffffffffffff1681565b60008054906101000a900473ffffffffffffffffffffffffffffffffffffffff1673ffffffffffffffffffffffffffffffffffffffff166316279055336040518263ffffffff1660e01b815260040161057191906120f6565b602060405180830381865afa15801561058e573d6000803e3d6000fd5b505050506040513d601f19601f820116820180604052508101906105b29190612126565b6105f1576040517f08c379a00000000000000000000000000000000000000000000000000000000081526004016105e8906121d6565b60405180910390fd5b8060018190555050565b60008054906101000a900473ffffffffffffffffffffffffffffffffffffffff1673ffffffffffffffffffffffffffffffffffffffff166316279055336040518263ffffffff1660e01b815260040161065491906120f6565b602060405180830381865afa158015610671573d6000803e3d6000fd5b505050506040513d601f19601f820116820180604052508101906106959190612126565b6106d4576040517f08c379a00000000000000000000000000000000000000000000000000000000081526004016106cb906121d6565b60405180910390fd5b80600260008473ffffffffffffffffffffffffffffffffffffffff1673ffffffffffffffffffffffffffffffffffffffff168152602001908152602001600020600201819055505050565b6000600260008373ffffffffffffffffffffffffffffffffffffffff1673ffffffffffffffffffffffffffffffffffffffff168152602001908152602001600020600601549050919050565b6000600260008373ffffffffffffffffffffffffffffffffffffffff1673ffffffffffffffffffffffffffffffffffffffff168152602001908152602001600020600201549050919050565b60008054906101000a900473ffffffffffffffffffffffffffffffffffffffff1673ffffffffffffffffffffffffffffffffffffffff166316279055336040518263ffffffff1660e01b815260040161081091906120f6565b602060405180830381865afa15801561082d573d6000803e3d6000fd5b505050506040513d601f19601f820116820180604052508101906108519190612126565b610890576040517f08c379a0000000000000000000000000000000000000000000000000000000008152600401610887906121d6565b60405180910390fd5b80600260008473ffffffffffffffffffffffffffffffffffffffff1673ffffffffffffffffffffffffffffffffffffffff168152602001908152602001600020600501819055505050565b6000600260008373ffffffffffffffffffffffffffffffffffffffff1673ffffffffffffffffffffffffffffffffffffffff168152602001908152602001600020600101549050919050565b60008054906101000a900473ffffffffffffffffffffffffffffffffffffffff1673ffffffffffffffffffffffffffffffffffffffff166316279055336040518263ffffffff1660e01b815260040161098091906120f6565b602060405180830381865afa15801561099d573d6000803e3d6000fd5b505050506040513d601f19601f820116820180604052508101906109c19190612126565b610a00576040517f08c379a00000000000000000000000000000000000000000000000000000000081526004016109f7906121d6565b60405180910390fd5b80600260008473ffffffffffffffffffffffffffffffffffffffff1673ffffffffffffffffffffffffffffffffffffffff168152602001908152602001600020600601819055505050565b6000600260008373ffffffffffffffffffffffffffffffffffffffff1673ffffffffffffffffffffffffffffffffffffffff168152602001908152602001600020600501549050919050565b60008054906101000a900473ffffffffffffffffffffffffffffffffffffffff1673ffffffffffffffffffffffffffffffffffffffff166316279055336040518263ffffffff1660e01b8152600401610af091906120f6565b602060405180830381865afa158015610b0d573d6000803e3d6000fd5b505050506040513d601f19601f82011682018060405250810190610b319190612126565b610b70576040517f08c379a0000000000000000000000000000000000000000000000000000000008152600401610b67906121d6565b60405180910390fd5b80600260008473ffffffffffffffffffffffffffffffffffffffff1673ffffffffffffffffffffffffffffffffffffffff16815260200190815260200160002060040160006101000a81548160ff0219169083151502179055505050565b6000600260008373ffffffffffffffffffffffffffffffffffffffff1673ffffffffffffffffffffffffffffffffffffffff168152602001908152602001600020600301549050919050565b60026020528060005260406000206000915090508060000154908060010154908060020154908060030154908060040160009054906101000a900460ff1690806005015490806006015490806007018054610c7490612225565b80601f0160208091040260200160405190810160405280929190818152602001828054610ca090612225565b8015610ced5780601f10610cc257610100808354040283529160200191610ced565b820191906000526020600020905b815481529060010190602001808311610cd057829003601f168201915b5050505050905088565b60008054906101000a900473ffffffffffffffffffffffffffffffffffffffff1673ffffffffffffffffffffffffffffffffffffffff166316279055336040518263ffffffff1660e01b8152600401610d5091906120f6565b602060405180830381865afa158015610d6d573d6000803e3d6000fd5b505050506040513d601f19601f82011682018060405250810190610d919190612126565b610dd0576040517f08c379a0000000000000000000000000000000000000000000000000000000008152600401610dc7906121d6565b60405180910390fd5b600073ffffffffffffffffffffffffffffffffffffffff168473ffffffffffffffffffffffffffffffffffffffff1614158015610e3a5750600073ffffffffffffffffffffffffffffffffffffffff168373ffffffffffffffffffffffffffffffffffffffff1614155b8015610e735750600073ffffffffffffffffffffffffffffffffffffffff168273ffffffffffffffffffffffffffffffffffffffff1614155b610e7c57600080fd5b600381610e899190612285565b600260008773ffffffffffffffffffffffffffffffffffffffff1673ffffffffffffffffffffffffffffffffffffffff1681526020019081526020016000206002016000828254610eda91906122df565b9250508190555080600260008673ffffffffffffffffffffffffffffffffffffffff1673ffffffffffffffffffffffffffffffffffffffff1681526020019081526020016000206002016000828254610f3391906122df565b9250508190555080600260008573ffffffffffffffffffffffffffffffffffffffff1673ffffffffffffffffffffffffffffffffffffffff1681526020019081526020016000206002016000828254610f8c91906122df565b9250508190555080600260008473ffffffffffffffffffffffffffffffffffffffff1673ffffffffffffffffffffffffffffffffffffffff1681526020019081526020016000206002016000828254610fe591906122df565b925050819055505050505050565b60008054906101000a900473ffffffffffffffffffffffffffffffffffffffff1673ffffffffffffffffffffffffffffffffffffffff166316279055336040518263ffffffff1660e01b815260040161104c91906120f6565b602060405180830381865afa158015611069573d6000803e3d6000fd5b505050506040513d601f19601f8201168201806040525081019061108d9190612126565b6110cc576040517f08c379a00000000000000000000000000000000000000000000000000000000081526004016110c3906121d6565b60405180910390fd5b80600260008473ffffffffffffffffffffffffffffffffffffffff1673ffffffffffffffffffffffffffffffffffffffff1681526020019081526020016000206007019080519060200190611122929190611a70565b505050565b60008054906101000a900473ffffffffffffffffffffffffffffffffffffffff1673ffffffffffffffffffffffffffffffffffffffff166316279055336040518263ffffffff1660e01b815260040161118091906120f6565b602060405180830381865afa15801561119d573d6000803e3d6000fd5b505050506040513d601f19601f820116820180604052508101906111c19190612126565b611200576040517f08c379a00000000000000000000000000000000000000000000000000000000081526004016111f7906121d6565b60405180910390fd5b80600260008473ffffffffffffffffffffffffffffffffffffffff1673ffffffffffffffffffffffffffffffffffffffff168152602001908152602001600020600301819055505050565b6060600260008373ffffffffffffffffffffffffffffffffffffffff1673ffffffffffffffffffffffffffffffffffffffff168152602001908152602001600020600701805461129a90612225565b80601f01602080910402602001604051908101604052809291908181526020018280546112c690612225565b80156113135780601f106112e857610100808354040283529160200191611313565b820191906000526020600020905b8154815290600101906020018083116112f657829003601f168201915b50505050509050919050565b60008054906101000a900473ffffffffffffffffffffffffffffffffffffffff1673ffffffffffffffffffffffffffffffffffffffff166316279055336040518263ffffffff1660e01b815260040161137891906120f6565b602060405180830381865afa158015611395573d6000803e3d6000fd5b505050506040513d601f19601f820116820180604052508101906113b99190612126565b6113f8576040517f08c379a00000000000000000000000000000000000000000000000000000000081526004016113ef906121d6565b60405180910390fd5b80600260008473ffffffffffffffffffffffffffffffffffffffff1673ffffffffffffffffffffffffffffffffffffffff168152602001908152602001600020600101819055507f2191ebefd0545fe043ea22880d1a7efe6c923d9bdb95d303f81027b0dda7b38d3073ffffffffffffffffffffffffffffffffffffffff1663b56e4129846040518263ffffffff1660e01b815260040161149991906120f6565b600060405180830381865afa1580156114b6573d6000803e3d6000fd5b505050506040513d6000823e3d601f19601f820116820180604052508101906114df91906123a5565b826040516114ee9291906123ee565b60405180910390a15050565b60008054906101000a900473ffffffffffffffffffffffffffffffffffffffff1673ffffffffffffffffffffffffffffffffffffffff166316279055336040518263ffffffff1660e01b815260040161155391906120f6565b602060405180830381865afa158015611570573d6000803e3d6000fd5b505050506040513d601f19601f820116820180604052508101906115949190612126565b6115d3576040517f08c379a00000000000000000000000000000000000000000000000000000000081526004016115ca906121d6565b60405180910390fd5b60008060009054906101000a900473ffffffffffffffffffffffffffffffffffffffff1673ffffffffffffffffffffffffffffffffffffffff166304433bbc6040518163ffffffff1660e01b815260040161162d9061246a565b602060405180830381865afa15801561164a573d6000803e3d6000fd5b505050506040513d601f19601f8201168201806040525081019061166e919061249f565b90508073ffffffffffffffffffffffffffffffffffffffff1663a9059cbb84846040518363ffffffff1660e01b81526004016116ab9291906124cc565b6020604051808303816000875af11580156116ca573d6000803e3d6000fd5b505050506040513d601f19601f820116820180604052508101906116ee9190612126565b50505050565b60008054906101000a900473ffffffffffffffffffffffffffffffffffffffff1673ffffffffffffffffffffffffffffffffffffffff166316279055336040518263ffffffff1660e01b815260040161174d91906120f6565b602060405180830381865afa15801561176a573d6000803e3d6000fd5b505050506040513d601f19601f8201168201806040525081019061178e9190612126565b6117cd576040517f08c379a00000000000000000000000000000000000000000000000000000000081526004016117c4906121d6565b60405180910390fd5b600073ffffffffffffffffffffffffffffffffffffffff168173ffffffffffffffffffffffffffffffffffffffff160361180657600080fd5b806000806101000a81548173ffffffffffffffffffffffffffffffffffffffff021916908373ffffffffffffffffffffffffffffffffffffffff16021790555050565b6000600260008373ffffffffffffffffffffffffffffffffffffffff1673ffffffffffffffffffffffffffffffffffffffff168152602001908152602001600020600001549050919050565b60008054906101000a900473ffffffffffffffffffffffffffffffffffffffff1673ffffffffffffffffffffffffffffffffffffffff166316279055336040518263ffffffff1660e01b81526004016118ee91906120f6565b602060405180830381865afa15801561190b573d6000803e3d6000fd5b505050506040513d601f19601f8201168201806040525081019061192f9190612126565b61196e576040517f08c379a0000000000000000000000000000000000000000000000000000000008152600401611965906121d6565b60405180910390fd5b80600260008473ffffffffffffffffffffffffffffffffffffffff1673ffffffffffffffffffffffffffffffffffffffff168152602001908152602001600020600001819055507fef26cc9011e67bbb9f514423a3f3ebefdbb7d4c76065c85d8f6d8f5e79a765513073ffffffffffffffffffffffffffffffffffffffff1663b56e4129846040518263ffffffff1660e01b8152600401611a0f91906120f6565b600060405180830381865afa158015611a2c573d6000803e3d6000fd5b505050506040513d6000823e3d601f19601f82011682018060405250810190611a5591906123a5565b82604051611a649291906123ee565b60405180910390a15050565b828054611a7c90612225565b90600052602060002090601f016020900481019282611a9e5760008555611ae5565b82601f10611ab757805160ff1916838001178555611ae5565b82800160010185558215611ae5579182015b82811115611ae4578251825591602001919060010190611ac9565b5b509050611af29190611af6565b5090565b5b80821115611b0f576000816000905550600101611af7565b5090565b6000819050919050565b611b2681611b13565b82525050565b6000602082019050611b416000830184611b1d565b92915050565b6000604051905090565b600080fd5b600080fd5b600073ffffffffffffffffffffffffffffffffffffffff82169050919050565b6000611b8682611b5b565b9050919050565b611b9681611b7b565b8114611ba157600080fd5b50565b600081359050611bb381611b8d565b92915050565b600060208284031215611bcf57611bce611b51565b5b6000611bdd84828501611ba4565b91505092915050565b60008115159050919050565b611bfb81611be6565b82525050565b6000602082019050611c166000830184611bf2565b92915050565b6000819050919050565b6000611c41611c3c611c3784611b5b565b611c1c565b611b5b565b9050919050565b6000611c5382611c26565b9050919050565b6000611c6582611c48565b9050919050565b611c7581611c5a565b82525050565b6000602082019050611c906000830184611c6c565b92915050565b611c9f81611b13565b8114611caa57600080fd5b50565b600081359050611cbc81611c96565b92915050565b600060208284031215611cd857611cd7611b51565b5b6000611ce684828501611cad565b91505092915050565b60008060408385031215611d0657611d05611b51565b5b6000611d1485828601611ba4565b9250506020611d2585828601611cad565b9150509250929050565b611d3881611be6565b8114611d4357600080fd5b50565b600081359050611d5581611d2f565b92915050565b60008060408385031215611d7257611d71611b51565b5b6000611d8085828601611ba4565b9250506020611d9185828601611d46565b9150509250929050565b600081519050919050565b600082825260208201905092915050565b60005b83811015611dd5578082015181840152602081019050611dba565b83811115611de4576000848401525b50505050565b6000601f19601f8301169050919050565b6000611e0682611d9b565b611e108185611da6565b9350611e20818560208601611db7565b611e2981611dea565b840191505092915050565b600061010082019050611e4a600083018b611b1d565b611e57602083018a611b1d565b611e646040830189611b1d565b611e716060830188611b1d565b611e7e6080830187611bf2565b611e8b60a0830186611b1d565b611e9860c0830185611b1d565b81810360e0830152611eaa8184611dfb565b90509998505050505050505050565b600080600080600060a08688031215611ed557611ed4611b51565b5b6000611ee388828901611ba4565b9550506020611ef488828901611ba4565b9450506040611f0588828901611ba4565b9350506060611f1688828901611ba4565b9250506080611f2788828901611cad565b9150509295509295909350565b600080fd5b600080fd5b7f4e487b7100000000000000000000000000000000000000000000000000000000600052604160045260246000fd5b611f7682611dea565b810181811067ffffffffffffffff82111715611f9557611f94611f3e565b5b80604052505050565b6000611fa8611b47565b9050611fb48282611f6d565b919050565b600067ffffffffffffffff821115611fd457611fd3611f3e565b5b611fdd82611dea565b9050602081019050919050565b82818337600083830152505050565b600061200c61200784611fb9565b611f9e565b90508281526020810184848401111561202857612027611f39565b5b612033848285611fea565b509392505050565b600082601f8301126120505761204f611f34565b5b8135612060848260208601611ff9565b91505092915050565b600080604083850312156120805761207f611b51565b5b600061208e85828601611ba4565b925050602083013567ffffffffffffffff8111156120af576120ae611b56565b5b6120bb8582860161203b565b9150509250929050565b600060208201905081810360008301526120df8184611dfb565b905092915050565b6120f081611b7b565b82525050565b600060208201905061210b60008301846120e7565b92915050565b60008151905061212081611d2f565b92915050565b60006020828403121561213c5761213b611b51565b5b600061214a84828501612111565b91505092915050565b600082825260208201905092915050565b7f46756e6374696f6e2063616e206f6e6c792062652063616c6c6564206279206360008201527f6f6e747261637473210000000000000000000000000000000000000000000000602082015250565b60006121c0602983612153565b91506121cb82612164565b604082019050919050565b600060208201905081810360008301526121ef816121b3565b9050919050565b7f4e487b7100000000000000000000000000000000000000000000000000000000600052602260045260246000fd5b6000600282049050600182168061223d57607f821691505b6020821081036122505761224f6121f6565b5b50919050565b7f4e487b7100000000000000000000000000000000000000000000000000000000600052601160045260246000fd5b600061229082611b13565b915061229b83611b13565b9250817fffffffffffffffffffffffffffffffffffffffffffffffffffffffffffffffff04831182151516156122d4576122d3612256565b5b828202905092915050565b60006122ea82611b13565b91506122f583611b13565b9250827fffffffffffffffffffffffffffffffffffffffffffffffffffffffffffffffff0382111561232a57612329612256565b5b828201905092915050565b600061234861234384611fb9565b611f9e565b90508281526020810184848401111561236457612363611f39565b5b61236f848285611db7565b509392505050565b600082601f83011261238c5761238b611f34565b5b815161239c848260208601612335565b91505092915050565b6000602082840312156123bb576123ba611b51565b5b600082015167ffffffffffffffff8111156123d9576123d8611b56565b5b6123e584828501612377565b91505092915050565b600060408201905081810360008301526124088185611dfb565b90506124176020830184611b1d565b9392505050565b7f546f6b656e000000000000000000000000000000000000000000000000000000600082015250565b6000612454600583612153565b915061245f8261241e565b602082019050919050565b6000602082019050818103600083015261248381612447565b9050919050565b60008151905061249981611b8d565b92915050565b6000602082840312156124b5576124b4611b51565b5b60006124c38482850161248a565b91505092915050565b60006040820190506124e160008301856120e7565b6124ee6020830184611b1d565b939250505056fea264697066735822122001ee8e1db62d441c8605ffa12a6f5ad057fa299c9af6b67669ebf789a723bf9864736f6c634300080e0033",
  "immutableReferences": {},
  "source": "// SPDX-License-Identifier: MIT\n\npragma solidity ^0.8.0;\n\nimport \"@openzeppelin/contracts/token/ERC20/ERC20.sol\";\nimport {Hub} from '../Hub.sol';\n\ncontract ProfileStorage {\n    event AskUpdated(bytes nodeId, uint256 ask);\n    event StakeUpdated(bytes nodeId, uint256 stake);\n\n    Hub public hub;\n    \n    constructor(address hubAddress) {\n        hub = Hub(hubAddress);\n        activeNodes = 1;\n    }\n\n    function setHubAddress(address newHubAddress)\n    public onlyContracts {\n        require(newHubAddress != address(0));\n        hub = Hub(newHubAddress);\n    }\n    \n    modifier onlyContracts(){\n        require(hub.isContract(msg.sender),\n        \"Function can only be called by contracts!\");\n        _;\n    }\n\n    uint256 public activeNodes;\n\n    function setActiveNodes(uint256 newActiveNodes) \n    public onlyContracts {\n        activeNodes = newActiveNodes;\n    }\n\n    struct ProfileDefinition{\n        uint256 ask;\n        uint256 stake;\n        uint256 stakeReserved;\n        uint256 reputation;\n        bool withdrawalPending;\n        uint256 withdrawalTimestamp;\n        uint256 withdrawalAmount;\n        bytes nodeId;\n    }\n    mapping(address => ProfileDefinition) public profile;\n\n    function getAsk(address identity)\n    public view returns(uint256) {\n        return profile[identity].ask;\n    }\n\n    function getStake(address identity) \n    public view returns(uint256) {\n        return profile[identity].stake;\n    }\n    function getStakeReserved(address identity) \n    public view returns(uint256) {\n        return profile[identity].stakeReserved;\n    }\n    function getReputation(address identity) \n    public view returns(uint256) {\n        return profile[identity].reputation;\n    }\n    function getWithdrawalPending(address identity) \n    public view returns(bool) {\n        return profile[identity].withdrawalPending;\n    }\n    function getWithdrawalTimestamp(address identity) \n    public view returns(uint256) {\n        return profile[identity].withdrawalTimestamp;\n    }\n    function getWithdrawalAmount(address identity) \n    public view returns(uint256) {\n        return profile[identity].withdrawalAmount;\n    }\n    function getNodeId(address identity) \n    public view returns(bytes memory) {\n        return profile[identity].nodeId;\n    }\n\n    function setAsk(address identity, uint256 ask)\n    public onlyContracts {\n        profile[identity].ask = ask;\n\n        emit AskUpdated(this.getNodeId(identity), ask);\n    }\n    \n    function setStake(address identity, uint256 stake) \n    public onlyContracts {\n        profile[identity].stake = stake;\n\n        emit StakeUpdated(this.getNodeId(identity), stake);\n    }\n    function setStakeReserved(address identity, uint256 stakeReserved) \n    public onlyContracts {\n        profile[identity].stakeReserved = stakeReserved;\n    }\n    function setReputation(address identity, uint256 reputation) \n    public onlyContracts {\n        profile[identity].reputation = reputation;\n    }\n    function setWithdrawalPending(address identity, bool withdrawalPending) \n    public onlyContracts {\n        profile[identity].withdrawalPending = withdrawalPending;\n    }\n    function setWithdrawalTimestamp(address identity, uint256 withdrawalTimestamp) \n    public onlyContracts {\n        profile[identity].withdrawalTimestamp = withdrawalTimestamp;\n    }\n    function setWithdrawalAmount(address identity, uint256 withdrawalAmount) \n    public onlyContracts {\n        profile[identity].withdrawalAmount = withdrawalAmount;\n    }\n    function setNodeId(address identity, bytes memory nodeId)\n    public onlyContracts {\n        profile[identity].nodeId = nodeId;\n    }\n\n    function increaseStakesReserved(\n        address payer,\n        address identity1,\n        address identity2,\n        address identity3,\n        uint256 amount)\n    public onlyContracts {\n        require(identity1!=address(0) && identity2!=address(0) && identity3!=address(0));\n        profile[payer].stakeReserved += (amount * 3);\n        profile[identity1].stakeReserved += amount;\n        profile[identity2].stakeReserved += amount;\n        profile[identity3].stakeReserved += amount;\n    }\n\n    function transferTokens(address wallet, uint256 amount)\n    public onlyContracts {\n        ERC20 token = ERC20(hub.getContractAddress(\"Token\"));\n        token.transfer(wallet, amount);\n    }\n}\n",
  "sourcePath": "/Users/max/IdeaProjects/dkg-evm-module/contracts/storage/ProfileStorage.sol",
  "compiler": {
    "name": "solc",
    "version": "0.8.14+commit.80d49f37.Emscripten.clang"
  },
  "schemaVersion": "3.4.10",
  "updatedAt": "2022-10-28T13:06:36.737Z",
  "networkType": "ethereum",
  "devdoc": {
    "kind": "dev",
    "methods": {},
    "version": 1
  },
  "userdoc": {
    "kind": "user",
    "methods": {},
    "version": 1
  }
}