{
  "contractName": "ProfileStorage",
  "abi": [
    {
      "inputs": [
        {
          "internalType": "address",
          "name": "hubAddress",
          "type": "address"
        }
      ],
      "stateMutability": "nonpayable",
      "type": "constructor"
    },
    {
      "anonymous": false,
      "inputs": [
        {
          "indexed": true,
          "internalType": "address",
          "name": "custodian",
          "type": "address"
        },
        {
          "indexed": false,
          "internalType": "uint256",
          "name": "amount",
          "type": "uint256"
        }
      ],
      "name": "MisplacedOTPWithdrawn",
      "type": "event"
    },
    {
      "anonymous": false,
      "inputs": [
        {
          "indexed": true,
          "internalType": "address",
          "name": "custodian",
          "type": "address"
        },
        {
          "indexed": false,
          "internalType": "address",
          "name": "tokenContract",
          "type": "address"
        },
        {
          "indexed": false,
          "internalType": "uint256",
          "name": "amount",
          "type": "uint256"
        }
      ],
      "name": "MisplacedTokensWithdrawn",
      "type": "event"
    },
    {
      "anonymous": false,
      "inputs": [
        {
          "indexed": true,
          "internalType": "address",
          "name": "custodian",
          "type": "address"
        },
        {
          "indexed": false,
          "internalType": "uint256",
          "name": "amount",
          "type": "uint256"
        }
      ],
      "name": "TokenTransferred",
      "type": "event"
    },
    {
      "inputs": [],
      "name": "hub",
      "outputs": [
        {
          "internalType": "contract Hub",
          "name": "",
          "type": "address"
        }
      ],
      "stateMutability": "view",
      "type": "function"
    },
    {
      "inputs": [],
      "name": "initialize",
      "outputs": [],
      "stateMutability": "nonpayable",
      "type": "function"
    },
    {
      "inputs": [
        {
          "internalType": "bytes",
          "name": "",
          "type": "bytes"
        }
      ],
      "name": "nodeIdsList",
      "outputs": [
        {
          "internalType": "bool",
          "name": "",
          "type": "bool"
        }
      ],
      "stateMutability": "view",
      "type": "function"
    },
    {
      "inputs": [
        {
          "internalType": "string",
          "name": "",
          "type": "string"
        }
      ],
      "name": "sharesNames",
      "outputs": [
        {
          "internalType": "bool",
          "name": "",
          "type": "bool"
        }
      ],
      "stateMutability": "view",
      "type": "function"
    },
    {
      "inputs": [
        {
          "internalType": "string",
          "name": "",
          "type": "string"
        }
      ],
      "name": "sharesSymbols",
      "outputs": [
        {
          "internalType": "bool",
          "name": "",
          "type": "bool"
        }
      ],
      "stateMutability": "view",
      "type": "function"
    },
    {
      "inputs": [],
      "name": "tokenContract",
      "outputs": [
        {
          "internalType": "contract IERC20",
          "name": "",
          "type": "address"
        }
      ],
      "stateMutability": "view",
      "type": "function"
    },
    {
      "inputs": [],
      "name": "withdrawMisplacedOTP",
      "outputs": [],
      "stateMutability": "nonpayable",
      "type": "function"
    },
    {
      "inputs": [
        {
          "internalType": "address",
          "name": "tokenContractAddress",
          "type": "address"
        }
      ],
      "name": "withdrawMisplacedTokens",
      "outputs": [],
      "stateMutability": "nonpayable",
      "type": "function"
    },
    {
      "inputs": [],
      "name": "name",
      "outputs": [
        {
          "internalType": "string",
          "name": "",
          "type": "string"
        }
      ],
      "stateMutability": "pure",
      "type": "function"
    },
    {
      "inputs": [],
      "name": "version",
      "outputs": [
        {
          "internalType": "string",
          "name": "",
          "type": "string"
        }
      ],
      "stateMutability": "pure",
      "type": "function"
    },
    {
      "inputs": [
        {
          "internalType": "uint72",
          "name": "identityId",
          "type": "uint72"
        },
        {
          "internalType": "bytes",
          "name": "nodeId",
          "type": "bytes"
        },
        {
          "internalType": "address",
          "name": "sharesContractAddress",
          "type": "address"
        }
      ],
      "name": "createProfile",
      "outputs": [],
      "stateMutability": "nonpayable",
      "type": "function"
    },
    {
      "inputs": [
        {
          "internalType": "uint72",
          "name": "identityId",
          "type": "uint72"
        }
      ],
      "name": "getProfile",
      "outputs": [
        {
          "internalType": "bytes",
          "name": "",
          "type": "bytes"
        },
        {
          "internalType": "uint96[2]",
          "name": "",
          "type": "uint96[2]"
        },
        {
          "internalType": "address",
          "name": "",
          "type": "address"
        }
      ],
      "stateMutability": "view",
      "type": "function"
    },
    {
      "inputs": [
        {
          "internalType": "uint72",
          "name": "identityId",
          "type": "uint72"
        }
      ],
      "name": "deleteProfile",
      "outputs": [],
      "stateMutability": "nonpayable",
      "type": "function"
    },
    {
      "inputs": [
        {
          "internalType": "uint72",
          "name": "identityId",
          "type": "uint72"
        }
      ],
      "name": "getNodeId",
      "outputs": [
        {
          "internalType": "bytes",
          "name": "",
          "type": "bytes"
        }
      ],
      "stateMutability": "view",
      "type": "function"
    },
    {
      "inputs": [
        {
          "internalType": "uint72",
          "name": "identityId",
          "type": "uint72"
        },
        {
          "internalType": "bytes",
          "name": "nodeId",
          "type": "bytes"
        }
      ],
      "name": "setNodeId",
      "outputs": [],
      "stateMutability": "nonpayable",
      "type": "function"
    },
    {
      "inputs": [
        {
          "internalType": "uint72",
          "name": "identityId",
          "type": "uint72"
        }
      ],
      "name": "getAsk",
      "outputs": [
        {
          "internalType": "uint96",
          "name": "",
          "type": "uint96"
        }
      ],
      "stateMutability": "view",
      "type": "function"
    },
    {
      "inputs": [
        {
          "internalType": "uint72",
          "name": "identityId",
          "type": "uint72"
        },
        {
          "internalType": "uint96",
          "name": "ask",
          "type": "uint96"
        }
      ],
      "name": "setAsk",
      "outputs": [],
      "stateMutability": "nonpayable",
      "type": "function"
    },
    {
      "inputs": [
        {
          "internalType": "uint72",
          "name": "identityId",
          "type": "uint72"
        }
      ],
      "name": "getAccumulatedOperatorFee",
      "outputs": [
        {
          "internalType": "uint96",
          "name": "",
          "type": "uint96"
        }
      ],
      "stateMutability": "view",
      "type": "function"
    },
    {
      "inputs": [
        {
          "internalType": "uint72",
          "name": "identityId",
          "type": "uint72"
        },
        {
          "internalType": "uint96",
          "name": "newOperatorFeeAmount",
          "type": "uint96"
        }
      ],
      "name": "setAccumulatedOperatorFee",
      "outputs": [],
      "stateMutability": "nonpayable",
      "type": "function"
    },
    {
      "inputs": [
        {
          "internalType": "uint72",
          "name": "identityId",
          "type": "uint72"
        }
      ],
      "name": "getAccumulatedOperatorFeeWithdrawalAmount",
      "outputs": [
        {
          "internalType": "uint96",
          "name": "",
          "type": "uint96"
        }
      ],
      "stateMutability": "view",
      "type": "function"
    },
    {
      "inputs": [
        {
          "internalType": "uint72",
          "name": "identityId",
          "type": "uint72"
        },
        {
          "internalType": "uint96",
          "name": "accumulatedOperatorFeeWithdrawalAmount",
          "type": "uint96"
        }
      ],
      "name": "setAccumulatedOperatorFeeWithdrawalAmount",
      "outputs": [],
      "stateMutability": "nonpayable",
      "type": "function"
    },
    {
      "inputs": [
        {
          "internalType": "uint72",
          "name": "identityId",
          "type": "uint72"
        }
      ],
      "name": "getAccumulatedOperatorFeeWithdrawalTimestamp",
      "outputs": [
        {
          "internalType": "uint256",
          "name": "",
          "type": "uint256"
        }
      ],
      "stateMutability": "view",
      "type": "function"
    },
    {
      "inputs": [
        {
          "internalType": "uint72",
          "name": "identityId",
          "type": "uint72"
        },
        {
          "internalType": "uint256",
          "name": "operatorFeeWithdrawalTimestamp",
          "type": "uint256"
        }
      ],
      "name": "setAccumulatedOperatorFeeWithdrawalTimestamp",
      "outputs": [],
      "stateMutability": "nonpayable",
      "type": "function"
    },
    {
      "inputs": [
        {
          "internalType": "uint72",
          "name": "identityId",
          "type": "uint72"
        }
      ],
      "name": "getSharesContractAddress",
      "outputs": [
        {
          "internalType": "address",
          "name": "",
          "type": "address"
        }
      ],
      "stateMutability": "view",
      "type": "function"
    },
    {
      "inputs": [
        {
          "internalType": "uint72",
          "name": "identityId",
          "type": "uint72"
        },
        {
          "internalType": "address",
          "name": "sharesContractAddress",
          "type": "address"
        }
      ],
      "name": "setSharesContractAddress",
      "outputs": [],
      "stateMutability": "nonpayable",
      "type": "function"
    },
    {
      "inputs": [
        {
          "internalType": "uint72",
          "name": "identityId",
          "type": "uint72"
        },
        {
          "internalType": "uint8",
          "name": "hashFunctionId",
          "type": "uint8"
        }
      ],
      "name": "getNodeAddress",
      "outputs": [
        {
          "internalType": "bytes32",
          "name": "",
          "type": "bytes32"
        }
      ],
      "stateMutability": "view",
      "type": "function"
    },
    {
      "inputs": [
        {
          "internalType": "uint72",
          "name": "identityId",
          "type": "uint72"
        },
        {
          "internalType": "uint8",
          "name": "hashFunctionId",
          "type": "uint8"
        },
        {
          "internalType": "bytes32",
          "name": "nodeAddress",
          "type": "bytes32"
        }
      ],
      "name": "setNodeAddress",
      "outputs": [],
      "stateMutability": "nonpayable",
      "type": "function"
    },
    {
      "inputs": [
        {
          "internalType": "uint72",
          "name": "identityId",
          "type": "uint72"
        }
      ],
      "name": "profileExists",
      "outputs": [
        {
          "internalType": "bool",
          "name": "",
          "type": "bool"
        }
      ],
      "stateMutability": "view",
      "type": "function"
    },
    {
      "inputs": [
        {
          "internalType": "address payable",
          "name": "custodian",
          "type": "address"
        }
      ],
      "name": "transferTokens",
      "outputs": [],
      "stateMutability": "nonpayable",
      "type": "function"
    },
    {
      "inputs": [
        {
          "internalType": "address",
          "name": "receiver",
          "type": "address"
        },
        {
          "internalType": "uint96",
          "name": "amount",
          "type": "uint96"
        }
      ],
      "name": "transferTokens",
      "outputs": [],
      "stateMutability": "nonpayable",
      "type": "function"
    }
  ],
  "bytecode": "0x60806040523480156200001157600080fd5b50604051620020a1380380620020a1833981016040819052620000349162000206565b806001600160a01b0381166200004957600080fd5b600080546001600160a01b0319166001600160a01b0383161790556200006e62000076565b505062000238565b6200008062000127565b600054604051630110ceef60e21b81526020600482015260056024820152642a37b5b2b760d91b60448201526001600160a01b03909116906304433bbc90606401602060405180830381865afa158015620000df573d6000803e3d6000fd5b505050506040513d601f19601f8201168201806040525081019062000105919062000206565b600180546001600160a01b0319166001600160a01b0392909216919091179055565b60008054906101000a90046001600160a01b03166001600160a01b0316638da5cb5b6040518163ffffffff1660e01b8152600401602060405180830381865afa15801562000179573d6000803e3d6000fd5b505050506040513d601f19601f820116820180604052508101906200019f919062000206565b6001600160a01b0316336001600160a01b031614620002045760405162461bcd60e51b815260206004820181905260248201527f466e2063616e206f6e6c79206265207573656420627920687562206f776e6572604482015260640160405180910390fd5b565b6000602082840312156200021957600080fd5b81516001600160a01b03811681146200023157600080fd5b9392505050565b611e5980620002486000396000f3fe608060405234801561001057600080fd5b50600436106101da5760003560e01c8063abe979e111610104578063d0ea3fee116100a2578063e49f999b11610071578063e49f999b14610541578063e6c79da514610563578063eb2145e314610598578063efe0aa2d146105ab57600080fd5b8063d0ea3fee146104da578063d184a869146104ed578063dc827de914610500578063e410c0d61461051357600080fd5b8063b89bba06116100de578063b89bba061461041f578063c04d7dcf1461045d578063c12b4c7614610470578063cbb12bed146104ac57600080fd5b8063abe979e1146103c4578063b014809f146103d7578063b8561a54146103ea57600080fd5b806341c10b9a1161017c5780636ce1510e1161014b5780636ce1510e146103635780638129fc1c1461036b578063947bb615146103735780639d7937b2146103b157600080fd5b806341c10b9a1461030957806354fd4d501461031c57806355a373d61461033d57806356abe1841461035057600080fd5b806322bd9e81116101b857806322bd9e811461026b578063365a86fc1461027e5780633718ac59146102a957806339fb67dd146102bc57600080fd5b806306fdde03146101df5780630c89a0df1461021b5780631913cd5514610230575b600080fd5b60408051808201909152600e81526d50726f66696c6553746f7261676560901b60208201525b6040516102129190611693565b60405180910390f35b61022e6102293660046116c2565b6105be565b005b61025d61023e3660046116fb565b6001600160481b03166000908152600360208190526040909120015490565b604051908152602001610212565b61022e61027936600461175f565b61098c565b600054610291906001600160a01b031681565b6040516001600160a01b039091168152602001610212565b61022e6102b73660046116fb565b610a27565b6102f16102ca3660046116fb565b6001600160481b03166000908152600360205260409020600101546001600160601b031690565b6040516001600160601b039091168152602001610212565b6102056103173660046116fb565b610ad9565b6040805180820190915260058152640312e302e360dc1b6020820152610205565b600154610291906001600160a01b031681565b61022e61035e3660046117b2565b610b85565b61022e610bad565b61022e610c81565b6103a1610381366004611889565b805160208183018101805160028252928201919093012091525460ff1681565b6040519015158152602001610212565b61022e6103bf3660046116c2565b610d2d565b61022e6103d23660046118f1565b610f39565b61022e6103e5366004611926565b610fc5565b6102916103f83660046116fb565b6001600160481b03166000908152600360205260409020600401546001600160a01b031690565b61025d61042d36600461196e565b6001600160481b038216600090815260036020908152604080832060ff8516845260050190915290205492915050565b6103a161046b3660046116fb565b611009565b6102f161047e3660046116fb565b6001600160481b0316600090815260036020526040902060010154600160601b90046001600160601b031690565b6103a16104ba366004611889565b805160208183018101805160048252928201919093012091525460ff1681565b61022e6104e8366004611998565b61106e565b61022e6104fb366004611998565b6110c1565b61022e61050e3660046119b4565b611105565b6103a1610521366004611889565b805160208183018101805160058252928201919093012091525460ff1681565b61055461054f3660046116fb565b6112ca565b60405161021293929190611a1a565b6102f16105713660046116fb565b6001600160481b03166000908152600360205260409020600201546001600160601b031690565b61022e6105a6366004611998565b6113c6565b61022e6105b9366004611a7b565b61140a565b6105c6611440565b6001600160a01b03811661062c5760405162461bcd60e51b815260206004820152602260248201527f437573746f6469616e2063616e6e6f742062652061207a65726f206164647265604482015261737360f01b60648201526084015b60405180910390fd5b803b806106a15760405162461bcd60e51b815260206004820152603b60248201527f43616e6e6f74207472616e7366657220746f6b656e7320746f20637573746f6460448201527f69616e2074686174206973206e6f74206120636f6e74726163742100000000006064820152608401610623565b60008290506000816001600160a01b031663a0e67e2b6040518163ffffffff1660e01b8152600401600060405180830381865afa92505050801561070757506040513d6000823e601f3d908101601f191682016040526107049190810190611ab7565b60015b15610789576001915060008151116107875760405162461bcd60e51b815260206004820152603b60248201527f43616e6e6f74207472616e7366657220746f6b656e7320746f20637573746f6460448201527f69616e20776974686f7574206f776e65727320646566696e65642100000000006064820152608401610623565b505b806107fc5760405162461bcd60e51b815260206004820152603f60248201527f43616e6e6f74207472616e7366657220746f6b656e7320746f20637573746f6460448201527f69616e20776974686f7574206765744f776e6572732066756e6374696f6e21006064820152608401610623565b6001546040516370a0823160e01b81523060048201526000916001600160a01b0316906370a0823190602401602060405180830381865afa158015610845573d6000803e3d6000fd5b505050506040513d601f19601f820116820180604052508101906108699190611b69565b60015460405163a9059cbb60e01b81526001600160a01b038881166004830152602482018490529293506000929091169063a9059cbb906044016020604051808303816000875af11580156108c2573d6000803e3d6000fd5b505050506040513d601f19601f820116820180604052508101906108e69190611b82565b9050806109415760405162461bcd60e51b815260206004820152602360248201527f546f6b656e207472616e73616374696f6e20657865637574696f6e206661696c60448201526265642160e81b6064820152608401610623565b856001600160a01b03167fefed6b8d78a916dbd402a323824ae4454c9214b8f3d05fa85b3bb7f30dc25c068360405161097c91815260200190565b60405180910390a2505050505050565b610994611517565b6001600160481b03831660009081526003602052604080822090519091906002906109c0908490611bde565b908152604051908190036020019020805491151560ff19909216919091179055806109ec838583611ca2565b50600160028484604051610a01929190611d63565b908152604051908190036020019020805491151560ff1990921691909117905550505050565b610a2f611517565b6001600160481b0381166000908152600360205260408082209051600291610a5691611bde565b9081526040805160209281900383019020805460ff1916931515939093179092556001600160481b0383166000908152600390915290812090610a9982826115cf565b506001810180546001600160c01b03191690556002810180546001600160601b03191690556000600382015560040180546001600160a01b031916905550565b6001600160481b0381166000908152600360205260409020805460609190610b0090611ba4565b80601f0160208091040260200160405190810160405280929190818152602001828054610b2c90611ba4565b8015610b795780601f10610b4e57610100808354040283529160200191610b79565b820191906000526020600020905b815481529060010190602001808311610b5c57829003601f168201915b50505050509050919050565b610b8d611517565b6001600160481b0390911660009081526003602081905260409091200155565b610bb5611440565b478015610c4957604051600090339083908381818185875af1925050503d8060008114610bfe576040519150601f19603f3d011682016040523d82523d6000602084013e610c03565b606091505b5050905080610c475760405162461bcd60e51b815260206004820152601060248201526f2a3930b739b332b9103330b4b632b21760811b6044820152606401610623565b505b60405181815233907fd32ec2b96f6389848e3f68f670160bf5a50b5024b6f62a61108f20025179a2919060200160405180910390a250565b610c89611440565b600054604051630110ceef60e21b81526020600482015260056024820152642a37b5b2b760d91b60448201526001600160a01b03909116906304433bbc90606401602060405180830381865afa158015610ce7573d6000803e3d6000fd5b505050506040513d601f19601f82011682018060405250810190610d0b9190611d73565b600180546001600160a01b0319166001600160a01b0392909216919091179055565b610d35611440565b6001546001600160a01b0390811690821603610dab5760405162461bcd60e51b815260206004820152602f60248201527f43616e6e6f742075736520746869732066756e6374696f6e207769746820746860448201526e194815149050c818dbdb9d1c9858dd608a1b6064820152608401610623565b6040516370a0823160e01b815230600482015281906000906001600160a01b038316906370a0823190602401602060405180830381865afa158015610df4573d6000803e3d6000fd5b505050506040513d601f19601f82011682018060405250810190610e189190611b69565b90508015610ef05760405163a9059cbb60e01b8152336004820152602481018290526000906001600160a01b0384169063a9059cbb906044016020604051808303816000875af1158015610e70573d6000803e3d6000fd5b505050506040513d601f19601f82011682018060405250810190610e949190611b82565b905080610eee5760405162461bcd60e51b815260206004820152602260248201527f546f6b656e207472616e73616374696f6e20657865637574696f6e206661696c604482015261195960f21b6064820152608401610623565b505b604080516001600160a01b03851681526020810183905233917f5fe8cbe5f97c59a4b590a924c3fc62aac6b6a653ec22e39f5fc6d3732f18c254910160405180910390a2505050565b610f41611517565b60015460405163a9059cbb60e01b81526001600160a01b0384811660048301526001600160601b03841660248301529091169063a9059cbb906044016020604051808303816000875af1158015610f9c573d6000803e3d6000fd5b505050506040513d601f19601f82011682018060405250810190610fc09190611b82565b505050565b610fcd611517565b6001600160481b0391909116600090815260036020526040902060040180546001600160a01b0319166001600160a01b03909216919091179055565b60408051602080820183526000918290526001600160481b038416825260039052818120915190917fc5d2460186f7233c927e7db2dcc703c0e500b653ca82273b7bfad8045d85a4709161105d9190611bde565b604051809103902014159050919050565b611076611517565b6001600160481b03909116600090815260036020526040902060010180546001600160601b03909216600160601b026bffffffffffffffffffffffff60601b19909216919091179055565b6110c9611517565b6001600160481b0391909116600090815260036020526040902060010180546001600160601b0319166001600160601b03909216919091179055565b61110d611517565b6001600160481b038416600090815260036020526040902080611131848683611ca2565b506004810180546001600160a01b0319166001600160a01b0384161790556040516001906002906111659087908790611d63565b908152602001604051809103902060006101000a81548160ff021916908315150217905550600082905060016004826001600160a01b03166306fdde036040518163ffffffff1660e01b8152600401600060405180830381865afa1580156111d1573d6000803e3d6000fd5b505050506040513d6000823e601f3d908101601f191682016040526111f99190810190611d90565b6040516112069190611e07565b908152602001604051809103902060006101000a81548160ff02191690831515021790555060016005826001600160a01b03166395d89b416040518163ffffffff1660e01b8152600401600060405180830381865afa15801561126d573d6000803e3d6000fd5b505050506040513d6000823e601f3d908101601f191682016040526112959190810190611d90565b6040516112a29190611e07565b908152604051908190036020019020805491151560ff19909216919091179055505050505050565b60606112d461160c565b6001600160481b0383166000908152600360209081526040808320815180830190925260018101546001600160601b038082168452600160601b9091041692820192909252600482015482548392916001600160a01b031690839061133890611ba4565b80601f016020809104026020016040519081016040528092919081815260200182805461136490611ba4565b80156113b15780601f10611386576101008083540402835291602001916113b1565b820191906000526020600020905b81548152906001019060200180831161139457829003601f168201915b50505050509250935093509350509193909250565b6113ce611517565b6001600160481b0391909116600090815260036020526040902060020180546001600160601b0319166001600160601b03909216919091179055565b611412611517565b6001600160481b03909216600090815260036020908152604080832060ff9094168352600590930190522055565b60008054906101000a90046001600160a01b03166001600160a01b0316638da5cb5b6040518163ffffffff1660e01b8152600401602060405180830381865afa158015611491573d6000803e3d6000fd5b505050506040513d601f19601f820116820180604052508101906114b59190611d73565b6001600160a01b0316336001600160a01b0316146115155760405162461bcd60e51b815260206004820181905260248201527f466e2063616e206f6e6c79206265207573656420627920687562206f776e65726044820152606401610623565b565b600054604051631627905560e01b81523360048201526001600160a01b0390911690631627905590602401602060405180830381865afa15801561155f573d6000803e3d6000fd5b505050506040513d601f19601f820116820180604052508101906115839190611b82565b6115155760405162461bcd60e51b815260206004820181905260248201527f466e2063616e206f6e6c792062652063616c6c656420627920746865206875626044820152606401610623565b5080546115db90611ba4565b6000825580601f106115eb575050565b601f016020900490600052602060002090810190611609919061162a565b50565b60405180604001604052806002906020820280368337509192915050565b5b8082111561163f576000815560010161162b565b5090565b60005b8381101561165e578181015183820152602001611646565b50506000910152565b6000815180845261167f816020860160208601611643565b601f01601f19169290920160200192915050565b6020815260006116a66020830184611667565b9392505050565b6001600160a01b038116811461160957600080fd5b6000602082840312156116d457600080fd5b81356116a6816116ad565b80356001600160481b03811681146116f657600080fd5b919050565b60006020828403121561170d57600080fd5b6116a6826116df565b60008083601f84011261172857600080fd5b50813567ffffffffffffffff81111561174057600080fd5b60208301915083602082850101111561175857600080fd5b9250929050565b60008060006040848603121561177457600080fd5b61177d846116df565b9250602084013567ffffffffffffffff81111561179957600080fd5b6117a586828701611716565b9497909650939450505050565b600080604083850312156117c557600080fd5b6117ce836116df565b946020939093013593505050565b634e487b7160e01b600052604160045260246000fd5b604051601f8201601f1916810167ffffffffffffffff8111828210171561181b5761181b6117dc565b604052919050565b600067ffffffffffffffff82111561183d5761183d6117dc565b50601f01601f191660200190565b600061185e61185984611823565b6117f2565b905082815283838301111561187257600080fd5b828260208301376000602084830101529392505050565b60006020828403121561189b57600080fd5b813567ffffffffffffffff8111156118b257600080fd5b8201601f810184136118c357600080fd5b6118d28482356020840161184b565b949350505050565b80356001600160601b03811681146116f657600080fd5b6000806040838503121561190457600080fd5b823561190f816116ad565b915061191d602084016118da565b90509250929050565b6000806040838503121561193957600080fd5b611942836116df565b91506020830135611952816116ad565b809150509250929050565b803560ff811681146116f657600080fd5b6000806040838503121561198157600080fd5b61198a836116df565b915061191d6020840161195d565b600080604083850312156119ab57600080fd5b61190f836116df565b600080600080606085870312156119ca57600080fd5b6119d3856116df565b9350602085013567ffffffffffffffff8111156119ef57600080fd5b6119fb87828801611716565b9094509250506040850135611a0f816116ad565b939692955090935050565b608081526000611a2d6080830186611667565b905060208083018560005b6002811015611a5e5781516001600160601b031683529183019190830190600101611a38565b505050506001600160a01b03929092166060919091015292915050565b600080600060608486031215611a9057600080fd5b611a99846116df565b9250611aa76020850161195d565b9150604084013590509250925092565b60006020808385031215611aca57600080fd5b825167ffffffffffffffff80821115611ae257600080fd5b818501915085601f830112611af657600080fd5b815181811115611b0857611b086117dc565b8060051b9150611b198483016117f2565b8181529183018401918481019088841115611b3357600080fd5b938501935b83851015611b5d5784519250611b4d836116ad565b8282529385019390850190611b38565b98975050505050505050565b600060208284031215611b7b57600080fd5b5051919050565b600060208284031215611b9457600080fd5b815180151581146116a657600080fd5b600181811c90821680611bb857607f821691505b602082108103611bd857634e487b7160e01b600052602260045260246000fd5b50919050565b6000808354611bec81611ba4565b60018281168015611c045760018114611c1957611c48565b60ff1984168752821515830287019450611c48565b8760005260208060002060005b85811015611c3f5781548a820152908401908201611c26565b50505082870194505b50929695505050505050565b601f821115610fc057600081815260208120601f850160051c81016020861015611c7b5750805b601f850160051c820191505b81811015611c9a57828155600101611c87565b505050505050565b67ffffffffffffffff831115611cba57611cba6117dc565b611cce83611cc88354611ba4565b83611c54565b6000601f841160018114611d025760008515611cea5750838201355b600019600387901b1c1916600186901b178355611d5c565b600083815260209020601f19861690835b82811015611d335786850135825560209485019460019092019101611d13565b5086821015611d505760001960f88860031b161c19848701351681555b505060018560011b0183555b5050505050565b8183823760009101908152919050565b600060208284031215611d8557600080fd5b81516116a6816116ad565b600060208284031215611da257600080fd5b815167ffffffffffffffff811115611db957600080fd5b8201601f81018413611dca57600080fd5b8051611dd861185982611823565b818152856020838501011115611ded57600080fd5b611dfe826020830160208601611643565b95945050505050565b60008251611e19818460208701611643565b919091019291505056fea26469706673582212206481631252fec47b47ac2a69a75165cc54dd933be3b22c427e6abeb0c976140564736f6c63430008100033",
  "immutableReferences": {},
  "source": "// SPDX-License-Identifier: MIT\n\npragma solidity ^0.8.4;\n\nimport { Guardian } from \"../Guardian.sol\";\nimport { Shares } from \"../Shares.sol\";\nimport { Named } from \"../interface/Named.sol\";\nimport { Versioned } from \"../interface/Versioned.sol\";\n\ncontract ProfileStorage is Named, Versioned, Guardian {\n\n    string constant private _NAME = \"ProfileStorage\";\n    string constant private _VERSION = \"1.0.0\";\n\n    struct ProfileDefinition{\n        bytes nodeId;\n        uint96 ask;\n        uint96 accumulatedOperatorFee;\n        uint96 accumulatedOperatorFeeWithdrawalAmount;\n        uint256 operatorFeeWithdrawalTimestamp;\n        address sharesContractAddress;\n        mapping(uint8 => bytes32) nodeAddresses;\n    }\n\n    // nodeId => isRegistered?\n    mapping(bytes => bool) public nodeIdsList;\n    // identityId => Profile\n    mapping(uint72 => ProfileDefinition) profiles;\n\n    // shares token name => isTaken?\n    mapping(string => bool) public sharesNames;\n    // shares token ID => isTaken?\n    mapping(string => bool) public sharesSymbols;\n\n    constructor(address hubAddress) Guardian(hubAddress) {}\n\n    modifier onlyContracts() {\n        _checkHub();\n        _;\n    }\n\n    function name() external pure virtual override returns (string memory) {\n        return _NAME;\n    }\n\n    function version() external pure virtual override returns (string memory) {\n        return _VERSION;\n    }\n\n    function createProfile(uint72 identityId, bytes calldata nodeId, address sharesContractAddress)\n        external\n        onlyContracts\n    {\n        ProfileDefinition storage profile = profiles[identityId];\n        profile.nodeId = nodeId;\n        profile.sharesContractAddress = sharesContractAddress;\n\n        nodeIdsList[nodeId] = true;\n\n        Shares sharesContract = Shares(sharesContractAddress);\n        sharesNames[sharesContract.name()] = true;\n        sharesSymbols[sharesContract.symbol()] = true;\n    }\n\n    function getProfile(uint72 identityId) external view returns (bytes memory, uint96[2] memory, address) {\n        ProfileDefinition storage profile = profiles[identityId];\n        return (profile.nodeId, [profile.ask, profile.accumulatedOperatorFee], profile.sharesContractAddress);\n    }\n\n    function deleteProfile(uint72 identityId) external onlyContracts {\n        nodeIdsList[profiles[identityId].nodeId] = false;\n        delete profiles[identityId];\n    }\n\n    function getNodeId(uint72 identityId) external view returns (bytes memory) {\n        return profiles[identityId].nodeId;\n    }\n\n    function setNodeId(uint72 identityId, bytes calldata nodeId) external onlyContracts {\n        ProfileDefinition storage profile = profiles[identityId];\n\n        nodeIdsList[profile.nodeId] = false;\n        profile.nodeId = nodeId;\n        nodeIdsList[nodeId] = true;\n    }\n\n    function getAsk(uint72 identityId) external view returns (uint96) {\n        return profiles[identityId].ask;\n    }\n\n    function setAsk(uint72 identityId, uint96 ask) external onlyContracts {\n        profiles[identityId].ask = ask;\n    }\n\n    function getAccumulatedOperatorFee(uint72 identityId) external view returns (uint96) {\n        return profiles[identityId].accumulatedOperatorFee;\n    }\n\n    function setAccumulatedOperatorFee(uint72 identityId, uint96 newOperatorFeeAmount) external onlyContracts {\n        profiles[identityId].accumulatedOperatorFee = newOperatorFeeAmount;\n    }\n\n    function getAccumulatedOperatorFeeWithdrawalAmount(uint72 identityId) external view returns (uint96) {\n        return profiles[identityId].accumulatedOperatorFeeWithdrawalAmount;\n    }\n\n    function setAccumulatedOperatorFeeWithdrawalAmount(uint72 identityId, uint96 accumulatedOperatorFeeWithdrawalAmount) external onlyContracts {\n        profiles[identityId].accumulatedOperatorFeeWithdrawalAmount = accumulatedOperatorFeeWithdrawalAmount;\n    }\n\n    function getAccumulatedOperatorFeeWithdrawalTimestamp(uint72 identityId) external view returns (uint256) {\n        return profiles[identityId].operatorFeeWithdrawalTimestamp;\n    }\n\n    function setAccumulatedOperatorFeeWithdrawalTimestamp(uint72 identityId, uint256 operatorFeeWithdrawalTimestamp) external onlyContracts {\n        profiles[identityId].operatorFeeWithdrawalTimestamp = operatorFeeWithdrawalTimestamp;\n    }\n\n    function getSharesContractAddress(uint72 identityId) external view returns (address) {\n        return profiles[identityId].sharesContractAddress;\n    }\n\n    function setSharesContractAddress(uint72 identityId, address sharesContractAddress) external onlyContracts {\n        profiles[identityId].sharesContractAddress = sharesContractAddress;\n    }\n\n    function getNodeAddress(uint72 identityId, uint8 hashFunctionId) external view returns (bytes32) {\n        return profiles[identityId].nodeAddresses[hashFunctionId];\n    }\n\n    function setNodeAddress(uint72 identityId, uint8 hashFunctionId, bytes32 nodeAddress) external onlyContracts {\n        profiles[identityId].nodeAddresses[hashFunctionId] = nodeAddress;\n    }\n\n    function profileExists(uint72 identityId) external view returns (bool) {\n        return keccak256(profiles[identityId].nodeId) != keccak256(bytes(\"\"));\n    }\n\n    function transferTokens(address receiver, uint96 amount) external onlyContracts {\n        tokenContract.transfer(receiver, amount);\n    }\n\n    function _checkHub() internal view virtual {\n        require(hub.isContract(msg.sender), \"Fn can only be called by the hub\");\n    }\n}\n",
  "sourcePath": "/Users/waving/Desktop/OriginTrail/dkg-evm-module/contracts/storage/ProfileStorage.sol",
  "compiler": {
    "name": "solc",
    "version": "0.8.16+commit.07a7930e.Emscripten.clang"
  },
  "schemaVersion": "3.4.10",
  "updatedAt": "2022-12-09T11:22:31.892Z",
  "devdoc": {
    "kind": "dev",
    "methods": {},
    "version": 1
  },
  "userdoc": {
    "kind": "user",
    "methods": {},
    "version": 1
  }
}