{
  "contractName": "Profile",
  "abi": [
    {
      "inputs": [
        {
          "internalType": "address",
          "name": "hubAddress",
          "type": "address"
        }
      ],
      "stateMutability": "nonpayable",
      "type": "constructor"
    },
    {
      "anonymous": false,
      "inputs": [
        {
          "indexed": true,
          "internalType": "uint96",
          "name": "identityId",
          "type": "uint96"
        },
        {
          "indexed": true,
          "internalType": "bytes",
          "name": "nodeId",
          "type": "bytes"
        }
      ],
      "name": "ProfileCreated",
      "type": "event"
    },
    {
      "anonymous": false,
      "inputs": [
        {
          "indexed": true,
          "internalType": "uint96",
          "name": "identityId",
          "type": "uint96"
        },
        {
          "indexed": true,
          "internalType": "bytes",
          "name": "nodeId",
          "type": "bytes"
        },
        {
          "indexed": false,
          "internalType": "uint96",
          "name": "rewardWithdrawalAmount",
          "type": "uint96"
        },
        {
          "indexed": false,
          "internalType": "uint256",
          "name": "rewardWithdrawalTimestamp",
          "type": "uint256"
        }
      ],
      "name": "RewardWithdrawalInitiated",
      "type": "event"
    },
    {
      "anonymous": false,
      "inputs": [
        {
          "indexed": true,
          "internalType": "uint96",
          "name": "identityId",
          "type": "uint96"
        },
        {
          "indexed": true,
          "internalType": "bytes",
          "name": "nodeId",
          "type": "bytes"
        },
        {
          "indexed": false,
          "internalType": "uint96",
          "name": "withdrawnRewardAmount",
          "type": "uint96"
        }
      ],
      "name": "RewardWithdrawn",
      "type": "event"
    },
    {
      "anonymous": false,
      "inputs": [
        {
          "indexed": true,
          "internalType": "uint96",
          "name": "identityId",
          "type": "uint96"
        },
        {
          "indexed": true,
          "internalType": "bytes",
          "name": "nodeId",
          "type": "bytes"
        },
        {
          "indexed": false,
          "internalType": "uint96",
          "name": "frozenStakeAmount",
          "type": "uint96"
        }
      ],
      "name": "StakeFrozen",
      "type": "event"
    },
    {
      "anonymous": false,
      "inputs": [
        {
          "indexed": true,
          "internalType": "uint96",
          "name": "identityId",
          "type": "uint96"
        },
        {
          "indexed": true,
          "internalType": "bytes",
          "name": "nodeId",
          "type": "bytes"
        },
        {
          "indexed": false,
          "internalType": "uint96",
          "name": "stakedAmount",
          "type": "uint96"
        },
        {
          "indexed": false,
          "internalType": "uint96",
          "name": "newStake",
          "type": "uint96"
        }
      ],
      "name": "StakeIncreased",
      "type": "event"
    },
    {
      "anonymous": false,
      "inputs": [
        {
          "indexed": true,
          "internalType": "uint96",
          "name": "identityId",
          "type": "uint96"
        },
        {
          "indexed": true,
          "internalType": "bytes",
          "name": "nodeId",
          "type": "bytes"
        },
        {
          "indexed": false,
          "internalType": "uint96",
          "name": "unfrozenStakeAmount",
          "type": "uint96"
        }
      ],
      "name": "StakeUnfrozen",
      "type": "event"
    },
    {
      "anonymous": false,
      "inputs": [
        {
          "indexed": true,
          "internalType": "uint96",
          "name": "identityId",
          "type": "uint96"
        },
        {
          "indexed": true,
          "internalType": "bytes",
          "name": "nodeId",
          "type": "bytes"
        },
        {
          "indexed": false,
          "internalType": "uint96",
          "name": "stakeWithdrawalAmount",
          "type": "uint96"
        },
        {
          "indexed": false,
          "internalType": "uint256",
          "name": "stakeWithdrawalTimestamp",
          "type": "uint256"
        },
        {
          "indexed": false,
          "internalType": "uint96",
          "name": "newStake",
          "type": "uint96"
        }
      ],
      "name": "StakeWithdrawalInitiated",
      "type": "event"
    },
    {
      "anonymous": false,
      "inputs": [
        {
          "indexed": true,
          "internalType": "uint96",
          "name": "identityId",
          "type": "uint96"
        },
        {
          "indexed": true,
          "internalType": "bytes",
          "name": "nodeId",
          "type": "bytes"
        },
        {
          "indexed": false,
          "internalType": "uint96",
          "name": "withdrawnStakeAmount",
          "type": "uint96"
        }
      ],
      "name": "StakeWithdrawn",
      "type": "event"
    },
    {
      "inputs": [],
      "name": "hub",
      "outputs": [
        {
          "internalType": "contract Hub",
          "name": "",
          "type": "address"
        }
      ],
      "stateMutability": "view",
      "type": "function"
    },
    {
      "inputs": [
        {
          "internalType": "address",
          "name": "adminWallet",
          "type": "address"
        },
        {
          "internalType": "bytes",
          "name": "nodeId",
          "type": "bytes"
        },
        {
          "internalType": "uint96",
          "name": "initialAsk",
          "type": "uint96"
        },
        {
          "internalType": "uint96",
          "name": "initialStake",
          "type": "uint96"
        }
      ],
      "name": "createProfile",
      "outputs": [],
      "stateMutability": "nonpayable",
      "type": "function"
    },
    {
      "inputs": [
        {
          "internalType": "uint96",
          "name": "identityId",
          "type": "uint96"
        },
        {
          "internalType": "uint96",
          "name": "amount",
          "type": "uint96"
        }
      ],
      "name": "increaseStake",
      "outputs": [],
      "stateMutability": "nonpayable",
      "type": "function"
    },
    {
      "inputs": [
        {
          "internalType": "uint96",
          "name": "identityId",
          "type": "uint96"
        },
        {
          "internalType": "uint96",
          "name": "amount",
          "type": "uint96"
        }
      ],
      "name": "startStakeWithdrawal",
      "outputs": [],
      "stateMutability": "nonpayable",
      "type": "function"
    },
    {
      "inputs": [
        {
          "internalType": "uint96",
          "name": "identityId",
          "type": "uint96"
        }
      ],
      "name": "withdrawFreeStake",
      "outputs": [],
      "stateMutability": "nonpayable",
      "type": "function"
    },
    {
      "inputs": [
        {
          "internalType": "uint96",
          "name": "identityId",
          "type": "uint96"
        }
      ],
      "name": "stakeReward",
      "outputs": [],
      "stateMutability": "nonpayable",
      "type": "function"
    },
    {
      "inputs": [
        {
          "internalType": "uint96",
          "name": "identityId",
          "type": "uint96"
        }
      ],
      "name": "startRewardWithdrawal",
      "outputs": [],
      "stateMutability": "nonpayable",
      "type": "function"
    },
    {
      "inputs": [
        {
          "internalType": "uint96",
          "name": "identityId",
          "type": "uint96"
        }
      ],
      "name": "withdrawFreeReward",
      "outputs": [],
      "stateMutability": "nonpayable",
      "type": "function"
    }
  ],
  "bytecode": "0x60806040523480156200001157600080fd5b506040516200486b3803806200486b833981810160405281019062000037919062000122565b600073ffffffffffffffffffffffffffffffffffffffff168173ffffffffffffffffffffffffffffffffffffffff16036200007157600080fd5b806000806101000a81548173ffffffffffffffffffffffffffffffffffffffff021916908373ffffffffffffffffffffffffffffffffffffffff1602179055505062000154565b600080fd5b600073ffffffffffffffffffffffffffffffffffffffff82169050919050565b6000620000ea82620000bd565b9050919050565b620000fc81620000dd565b81146200010857600080fd5b50565b6000815190506200011c81620000f1565b92915050565b6000602082840312156200013b576200013a620000b8565b5b60006200014b848285016200010b565b91505092915050565b61470780620001646000396000f3fe608060405234801561001057600080fd5b50600436106100885760003560e01c80634f03cd1a1161005b5780634f03cd1a146100ff5780639cac9df01461011b578063c4008d8314610137578063cd6927911461015357610088565b8063365a86fc1461008d57806336bc2494146100ab5780633be651fa146100c75780634acbd388146100e3575b600080fd5b61009561016f565b6040516100a29190613532565b60405180910390f35b6100c560048036038101906100c091906135a5565b610193565b005b6100e160048036038101906100dc91906135a5565b6106f7565b005b6100fd60048036038101906100f891906135a5565b610f03565b005b610119600480360381019061011491906135d2565b6115c1565b005b610135600480360381019061013091906135a5565b611f4b565b005b610151600480360381019061014c91906135d2565b6124b0565b005b61016d60048036038101906101689190613796565b612e41565b005b60008054906101000a900473ffffffffffffffffffffffffffffffffffffffff1681565b8060008060009054906101000a900473ffffffffffffffffffffffffffffffffffffffff1673ffffffffffffffffffffffffffffffffffffffff166304433bbc6040518163ffffffff1660e01b81526004016101ee90613876565b602060405180830381865afa15801561020b573d6000803e3d6000fd5b505050506040513d601f19601f8201168201806040525081019061022f91906138ab565b90508073ffffffffffffffffffffffffffffffffffffffff1663d55bbcac833360405160200161025f9190613920565b6040516020818303038152906040528051906020012060016040518463ffffffff1660e01b8152600401610295939291906139a8565b602060405180830381865afa1580156102b2573d6000803e3d6000fd5b505050506040513d601f19601f820116820180604052508101906102d69190613a17565b610315576040517f08c379a000000000000000000000000000000000000000000000000000000000815260040161030c90613ab6565b60405180910390fd5b60008060009054906101000a900473ffffffffffffffffffffffffffffffffffffffff1673ffffffffffffffffffffffffffffffffffffffff166304433bbc6040518163ffffffff1660e01b815260040161036f90613b22565b602060405180830381865afa15801561038c573d6000803e3d6000fd5b505050506040513d601f19601f820116820180604052508101906103b091906138ab565b905060008173ffffffffffffffffffffffffffffffffffffffff1662ada70b866040518263ffffffff1660e01b81526004016103ec9190613b42565b602060405180830381865afa158015610409573d6000803e3d6000fd5b505050506040513d601f19601f8201168201806040525081019061042d9190613b72565b90506000816bffffffffffffffffffffffff1611610480576040517f08c379a000000000000000000000000000000000000000000000000000000000815260040161047790613beb565b60405180910390fd5b428273ffffffffffffffffffffffffffffffffffffffff1663115ab48e876040518263ffffffff1660e01b81526004016104ba9190613b42565b602060405180830381865afa1580156104d7573d6000803e3d6000fd5b505050506040513d601f19601f820116820180604052508101906104fb9190613c37565b1061053b576040517f08c379a000000000000000000000000000000000000000000000000000000000815260040161053290613cd6565b60405180910390fd5b8173ffffffffffffffffffffffffffffffffffffffff1663a793e8218660006040518363ffffffff1660e01b8152600401610577929190613d31565b600060405180830381600087803b15801561059157600080fd5b505af11580156105a5573d6000803e3d6000fd5b505050508173ffffffffffffffffffffffffffffffffffffffff1663abe979e133836040518363ffffffff1660e01b81526004016105e4929190613d69565b600060405180830381600087803b1580156105fe57600080fd5b505af1158015610612573d6000803e3d6000fd5b505050508173ffffffffffffffffffffffffffffffffffffffff16636c5c281c866040518263ffffffff1660e01b815260040161064f9190613b42565b600060405180830381865afa15801561066c573d6000803e3d6000fd5b505050506040513d6000823e3d601f19601f820116820180604052508101906106959190613e35565b6040516106a29190613ec5565b6040518091039020856bffffffffffffffffffffffff167f696603902b219a6f4b2f7d48f2193f2211705a9064a633a6c91fcfd9e3ed9a67836040516106e89190613b42565b60405180910390a35050505050565b8060008060009054906101000a900473ffffffffffffffffffffffffffffffffffffffff1673ffffffffffffffffffffffffffffffffffffffff166304433bbc6040518163ffffffff1660e01b815260040161075290613876565b602060405180830381865afa15801561076f573d6000803e3d6000fd5b505050506040513d601f19601f8201168201806040525081019061079391906138ab565b90508073ffffffffffffffffffffffffffffffffffffffff1663d55bbcac83336040516020016107c39190613920565b6040516020818303038152906040528051906020012060016040518463ffffffff1660e01b81526004016107f9939291906139a8565b602060405180830381865afa158015610816573d6000803e3d6000fd5b505050506040513d601f19601f8201168201806040525081019061083a9190613a17565b610879576040517f08c379a000000000000000000000000000000000000000000000000000000000815260040161087090613ab6565b60405180910390fd5b60008060009054906101000a900473ffffffffffffffffffffffffffffffffffffffff1673ffffffffffffffffffffffffffffffffffffffff166304433bbc6040518163ffffffff1660e01b81526004016108d390613b22565b602060405180830381865afa1580156108f0573d6000803e3d6000fd5b505050506040513d601f19601f8201168201806040525081019061091491906138ab565b905060008173ffffffffffffffffffffffffffffffffffffffff166374cb0edb866040518263ffffffff1660e01b81526004016109519190613b42565b602060405180830381865afa15801561096e573d6000803e3d6000fd5b505050506040513d601f19601f820116820180604052508101906109929190613b72565b90506000816bffffffffffffffffffffffff16116109e5576040517f08c379a00000000000000000000000000000000000000000000000000000000081526004016109dc90613f28565b60405180910390fd5b60008273ffffffffffffffffffffffffffffffffffffffff16631860bd8e876040518263ffffffff1660e01b8152600401610a209190613b42565b602060405180830381865afa158015610a3d573d6000803e3d6000fd5b505050506040513d601f19601f82011682018060405250810190610a619190613b72565b905060008282610a719190613f77565b90508373ffffffffffffffffffffffffffffffffffffffff1663a4f906238860006040518363ffffffff1660e01b8152600401610aaf929190613d31565b600060405180830381600087803b158015610ac957600080fd5b505af1158015610add573d6000803e3d6000fd5b505050508373ffffffffffffffffffffffffffffffffffffffff16636dccf56d88836040518363ffffffff1660e01b8152600401610b1c929190613fb9565b600060405180830381600087803b158015610b3657600080fd5b505af1158015610b4a573d6000803e3d6000fd5b5050505060008060009054906101000a900473ffffffffffffffffffffffffffffffffffffffff1673ffffffffffffffffffffffffffffffffffffffff166304433bbc6040518163ffffffff1660e01b8152600401610ba89061402e565b602060405180830381865afa158015610bc5573d6000803e3d6000fd5b505050506040513d601f19601f82011682018060405250810190610be991906138ab565b90508073ffffffffffffffffffffffffffffffffffffffff16639ec41a2d6040518163ffffffff1660e01b8152600401602060405180830381865afa158015610c36573d6000803e3d6000fd5b505050506040513d601f19601f82011682018060405250810190610c5a9190613b72565b6bffffffffffffffffffffffff16836bffffffffffffffffffffffff16108015610d0e57508073ffffffffffffffffffffffffffffffffffffffff16639ec41a2d6040518163ffffffff1660e01b8152600401602060405180830381865afa158015610cca573d6000803e3d6000fd5b505050506040513d601f19601f82011682018060405250810190610cee9190613b72565b6bffffffffffffffffffffffff16826bffffffffffffffffffffffff1610155b15610e1d5760008060009054906101000a900473ffffffffffffffffffffffffffffffffffffffff1673ffffffffffffffffffffffffffffffffffffffff166304433bbc6040518163ffffffff1660e01b8152600401610d6d9061409a565b602060405180830381865afa158015610d8a573d6000803e3d6000fd5b505050506040513d601f19601f82011682018060405250810190610dae91906138ab565b90508073ffffffffffffffffffffffffffffffffffffffff1663e1131caa8a6040518263ffffffff1660e01b8152600401610de99190613b42565b600060405180830381600087803b158015610e0357600080fd5b505af1158015610e17573d6000803e3d6000fd5b50505050505b8473ffffffffffffffffffffffffffffffffffffffff16636c5c281c896040518263ffffffff1660e01b8152600401610e569190613b42565b600060405180830381865afa158015610e73573d6000803e3d6000fd5b505050506040513d6000823e3d601f19601f82011682018060405250810190610e9c9190613e35565b604051610ea99190613ec5565b6040518091039020886bffffffffffffffffffffffff167f37e067ca3832b6f9836fc2062e12d2fd130dbb768d8cc567ad3d4009cff673878685604051610ef1929190613fb9565b60405180910390a35050505050505050565b8060008060009054906101000a900473ffffffffffffffffffffffffffffffffffffffff1673ffffffffffffffffffffffffffffffffffffffff166304433bbc6040518163ffffffff1660e01b8152600401610f5e90613876565b602060405180830381865afa158015610f7b573d6000803e3d6000fd5b505050506040513d601f19601f82011682018060405250810190610f9f91906138ab565b90508073ffffffffffffffffffffffffffffffffffffffff1663d55bbcac8333604051602001610fcf9190613920565b6040516020818303038152906040528051906020012060016040518463ffffffff1660e01b8152600401611005939291906139a8565b602060405180830381865afa158015611022573d6000803e3d6000fd5b505050506040513d601f19601f820116820180604052508101906110469190613a17565b611085576040517f08c379a000000000000000000000000000000000000000000000000000000000815260040161107c90613ab6565b60405180910390fd5b60008060009054906101000a900473ffffffffffffffffffffffffffffffffffffffff1673ffffffffffffffffffffffffffffffffffffffff166304433bbc6040518163ffffffff1660e01b81526004016110df90613b22565b602060405180830381865afa1580156110fc573d6000803e3d6000fd5b505050506040513d601f19601f8201168201806040525081019061112091906138ab565b905060008173ffffffffffffffffffffffffffffffffffffffff166374cb0edb866040518263ffffffff1660e01b815260040161115d9190613b42565b602060405180830381865afa15801561117a573d6000803e3d6000fd5b505050506040513d601f19601f8201168201806040525081019061119e9190613b72565b90506000816bffffffffffffffffffffffff16116111f1576040517f08c379a00000000000000000000000000000000000000000000000000000000081526004016111e890614106565b60405180910390fd5b60008060009054906101000a900473ffffffffffffffffffffffffffffffffffffffff1673ffffffffffffffffffffffffffffffffffffffff166304433bbc6040518163ffffffff1660e01b815260040161124b9061402e565b602060405180830381865afa158015611268573d6000803e3d6000fd5b505050506040513d601f19601f8201168201806040525081019061128c91906138ab565b90508273ffffffffffffffffffffffffffffffffffffffff1663a4f906238760006040518363ffffffff1660e01b81526004016112ca929190613d31565b600060405180830381600087803b1580156112e457600080fd5b505af11580156112f8573d6000803e3d6000fd5b505050508273ffffffffffffffffffffffffffffffffffffffff1663a793e82187848673ffffffffffffffffffffffffffffffffffffffff1662ada70b8b6040518263ffffffff1660e01b81526004016113529190613b42565b602060405180830381865afa15801561136f573d6000803e3d6000fd5b505050506040513d601f19601f820116820180604052508101906113939190613b72565b61139d9190613f77565b6040518363ffffffff1660e01b81526004016113ba929190613fb9565b600060405180830381600087803b1580156113d457600080fd5b505af11580156113e8573d6000803e3d6000fd5b5050505060008173ffffffffffffffffffffffffffffffffffffffff1663f1b776f56040518163ffffffff1660e01b8152600401602060405180830381865afa158015611439573d6000803e3d6000fd5b505050506040513d601f19601f8201168201806040525081019061145d9190614161565b62ffffff164261146d919061418e565b90508373ffffffffffffffffffffffffffffffffffffffff166394fceaeb88836040518363ffffffff1660e01b81526004016114aa9291906141f3565b600060405180830381600087803b1580156114c457600080fd5b505af11580156114d8573d6000803e3d6000fd5b505050508373ffffffffffffffffffffffffffffffffffffffff16636c5c281c886040518263ffffffff1660e01b81526004016115159190613b42565b600060405180830381865afa158015611532573d6000803e3d6000fd5b505050506040513d6000823e3d601f19601f8201168201806040525081019061155b9190613e35565b6040516115689190613ec5565b6040518091039020876bffffffffffffffffffffffff167f2e482f3d9b1efd3333d331fd23b721c19de5d3de446344037454f078fad6c80a85846040516115b09291906141f3565b60405180910390a350505050505050565b8160008060009054906101000a900473ffffffffffffffffffffffffffffffffffffffff1673ffffffffffffffffffffffffffffffffffffffff166304433bbc6040518163ffffffff1660e01b815260040161161c90613876565b602060405180830381865afa158015611639573d6000803e3d6000fd5b505050506040513d601f19601f8201168201806040525081019061165d91906138ab565b90508073ffffffffffffffffffffffffffffffffffffffff1663d55bbcac833360405160200161168d9190613920565b6040516020818303038152906040528051906020012060016040518463ffffffff1660e01b81526004016116c3939291906139a8565b602060405180830381865afa1580156116e0573d6000803e3d6000fd5b505050506040513d601f19601f820116820180604052508101906117049190613a17565b611743576040517f08c379a000000000000000000000000000000000000000000000000000000000815260040161173a90613ab6565b60405180910390fd5b60008060009054906101000a900473ffffffffffffffffffffffffffffffffffffffff1673ffffffffffffffffffffffffffffffffffffffff166304433bbc6040518163ffffffff1660e01b815260040161179d90614268565b602060405180830381865afa1580156117ba573d6000803e3d6000fd5b505050506040513d601f19601f820116820180604052508101906117de91906138ab565b905060008060009054906101000a900473ffffffffffffffffffffffffffffffffffffffff1673ffffffffffffffffffffffffffffffffffffffff166304433bbc6040518163ffffffff1660e01b815260040161183a90613b22565b602060405180830381865afa158015611857573d6000803e3d6000fd5b505050506040513d601f19601f8201168201806040525081019061187b91906138ab565b9050846bffffffffffffffffffffffff168273ffffffffffffffffffffffffffffffffffffffff1663dd62ed3e33306040518363ffffffff1660e01b81526004016118c7929190614288565b602060405180830381865afa1580156118e4573d6000803e3d6000fd5b505050506040513d601f19601f820116820180604052508101906119089190613c37565b1015611949576040517f08c379a000000000000000000000000000000000000000000000000000000000815260040161194090614323565b60405180910390fd5b846bffffffffffffffffffffffff168273ffffffffffffffffffffffffffffffffffffffff166370a08231336040518263ffffffff1660e01b81526004016119919190614343565b602060405180830381865afa1580156119ae573d6000803e3d6000fd5b505050506040513d601f19601f820116820180604052508101906119d29190613c37565b1015611a13576040517f08c379a0000000000000000000000000000000000000000000000000000000008152600401611a0a906143aa565b60405180910390fd5b600081905060008173ffffffffffffffffffffffffffffffffffffffff16631860bd8e896040518263ffffffff1660e01b8152600401611a539190613b42565b602060405180830381865afa158015611a70573d6000803e3d6000fd5b505050506040513d601f19601f82011682018060405250810190611a949190613b72565b905060008782611aa49190613f77565b90508273ffffffffffffffffffffffffffffffffffffffff16636dccf56d8a836040518363ffffffff1660e01b8152600401611ae1929190613fb9565b600060405180830381600087803b158015611afb57600080fd5b505af1158015611b0f573d6000803e3d6000fd5b505050508473ffffffffffffffffffffffffffffffffffffffff166323b872dd33868b6040518463ffffffff1660e01b8152600401611b50939291906143fb565b6020604051808303816000875af1158015611b6f573d6000803e3d6000fd5b505050506040513d601f19601f82011682018060405250810190611b939190613a17565b5060008060009054906101000a900473ffffffffffffffffffffffffffffffffffffffff1673ffffffffffffffffffffffffffffffffffffffff166304433bbc6040518163ffffffff1660e01b8152600401611bee9061402e565b602060405180830381865afa158015611c0b573d6000803e3d6000fd5b505050506040513d601f19601f82011682018060405250810190611c2f91906138ab565b90508073ffffffffffffffffffffffffffffffffffffffff16639ec41a2d6040518163ffffffff1660e01b8152600401602060405180830381865afa158015611c7c573d6000803e3d6000fd5b505050506040513d601f19601f82011682018060405250810190611ca09190613b72565b6bffffffffffffffffffffffff16836bffffffffffffffffffffffff16108015611d5457508073ffffffffffffffffffffffffffffffffffffffff16639ec41a2d6040518163ffffffff1660e01b8152600401602060405180830381865afa158015611d10573d6000803e3d6000fd5b505050506040513d601f19601f82011682018060405250810190611d349190613b72565b6bffffffffffffffffffffffff16826bffffffffffffffffffffffff1610155b15611e635760008060009054906101000a900473ffffffffffffffffffffffffffffffffffffffff1673ffffffffffffffffffffffffffffffffffffffff166304433bbc6040518163ffffffff1660e01b8152600401611db39061409a565b602060405180830381865afa158015611dd0573d6000803e3d6000fd5b505050506040513d601f19601f82011682018060405250810190611df491906138ab565b90508073ffffffffffffffffffffffffffffffffffffffff1663e1131caa8c6040518263ffffffff1660e01b8152600401611e2f9190613b42565b600060405180830381600087803b158015611e4957600080fd5b505af1158015611e5d573d6000803e3d6000fd5b50505050505b8373ffffffffffffffffffffffffffffffffffffffff16636c5c281c8b6040518263ffffffff1660e01b8152600401611e9c9190613b42565b600060405180830381865afa158015611eb9573d6000803e3d6000fd5b505050506040513d6000823e3d601f19601f82011682018060405250810190611ee29190613e35565b604051611eef9190613ec5565b60405180910390208a6bffffffffffffffffffffffff167f37e067ca3832b6f9836fc2062e12d2fd130dbb768d8cc567ad3d4009cff673878b85604051611f37929190613fb9565b60405180910390a350505050505050505050565b8060008060009054906101000a900473ffffffffffffffffffffffffffffffffffffffff1673ffffffffffffffffffffffffffffffffffffffff166304433bbc6040518163ffffffff1660e01b8152600401611fa690613876565b602060405180830381865afa158015611fc3573d6000803e3d6000fd5b505050506040513d601f19601f82011682018060405250810190611fe791906138ab565b90508073ffffffffffffffffffffffffffffffffffffffff1663d55bbcac83336040516020016120179190613920565b6040516020818303038152906040528051906020012060016040518463ffffffff1660e01b815260040161204d939291906139a8565b602060405180830381865afa15801561206a573d6000803e3d6000fd5b505050506040513d601f19601f8201168201806040525081019061208e9190613a17565b6120cd576040517f08c379a00000000000000000000000000000000000000000000000000000000081526004016120c490613ab6565b60405180910390fd5b60008060009054906101000a900473ffffffffffffffffffffffffffffffffffffffff1673ffffffffffffffffffffffffffffffffffffffff166304433bbc6040518163ffffffff1660e01b815260040161212790613b22565b602060405180830381865afa158015612144573d6000803e3d6000fd5b505050506040513d601f19601f8201168201806040525081019061216891906138ab565b905060008173ffffffffffffffffffffffffffffffffffffffff16636b1374f0866040518263ffffffff1660e01b81526004016121a59190613b42565b602060405180830381865afa1580156121c2573d6000803e3d6000fd5b505050506040513d601f19601f820116820180604052508101906121e69190613b72565b90506000816bffffffffffffffffffffffff1611612239576040517f08c379a000000000000000000000000000000000000000000000000000000000815260040161223090613beb565b60405180910390fd5b428273ffffffffffffffffffffffffffffffffffffffff1663832c7bc1876040518263ffffffff1660e01b81526004016122739190613b42565b602060405180830381865afa158015612290573d6000803e3d6000fd5b505050506040513d601f19601f820116820180604052508101906122b49190613c37565b106122f4576040517f08c379a00000000000000000000000000000000000000000000000000000000081526004016122eb90613cd6565b60405180910390fd5b8173ffffffffffffffffffffffffffffffffffffffff1663abe979e133836040518363ffffffff1660e01b815260040161232f929190613d69565b600060405180830381600087803b15801561234957600080fd5b505af115801561235d573d6000803e3d6000fd5b505050508173ffffffffffffffffffffffffffffffffffffffff1663769653e68660006040518363ffffffff1660e01b815260040161239d929190613d31565b600060405180830381600087803b1580156123b757600080fd5b505af11580156123cb573d6000803e3d6000fd5b505050508173ffffffffffffffffffffffffffffffffffffffff16636c5c281c866040518263ffffffff1660e01b81526004016124089190613b42565b600060405180830381865afa158015612425573d6000803e3d6000fd5b505050506040513d6000823e3d601f19601f8201168201806040525081019061244e9190613e35565b60405161245b9190613ec5565b6040518091039020856bffffffffffffffffffffffff167f4f7befd4fda5d3f3cbcd74b40135ab0f162a9e0c40f80a745c80d50d97034eea836040516124a19190613b42565b60405180910390a35050505050565b8160008060009054906101000a900473ffffffffffffffffffffffffffffffffffffffff1673ffffffffffffffffffffffffffffffffffffffff166304433bbc6040518163ffffffff1660e01b815260040161250b90613876565b602060405180830381865afa158015612528573d6000803e3d6000fd5b505050506040513d601f19601f8201168201806040525081019061254c91906138ab565b90508073ffffffffffffffffffffffffffffffffffffffff1663d55bbcac833360405160200161257c9190613920565b6040516020818303038152906040528051906020012060016040518463ffffffff1660e01b81526004016125b2939291906139a8565b602060405180830381865afa1580156125cf573d6000803e3d6000fd5b505050506040513d601f19601f820116820180604052508101906125f39190613a17565b612632576040517f08c379a000000000000000000000000000000000000000000000000000000000815260040161262990613ab6565b60405180910390fd5b60008060009054906101000a900473ffffffffffffffffffffffffffffffffffffffff1673ffffffffffffffffffffffffffffffffffffffff166304433bbc6040518163ffffffff1660e01b815260040161268c90613b22565b602060405180830381865afa1580156126a9573d6000803e3d6000fd5b505050506040513d601f19601f820116820180604052508101906126cd91906138ab565b90508073ffffffffffffffffffffffffffffffffffffffff16631860bd8e866040518263ffffffff1660e01b81526004016127089190613b42565b602060405180830381865afa158015612725573d6000803e3d6000fd5b505050506040513d601f19601f820116820180604052508101906127499190613b72565b6bffffffffffffffffffffffff16846bffffffffffffffffffffffff1611156127a7576040517f08c379a000000000000000000000000000000000000000000000000000000000815260040161279e906144a4565b60405180910390fd5b60008173ffffffffffffffffffffffffffffffffffffffff16631860bd8e876040518263ffffffff1660e01b81526004016127e29190613b42565b602060405180830381865afa1580156127ff573d6000803e3d6000fd5b505050506040513d601f19601f820116820180604052508101906128239190613b72565b90506000858261283391906144c4565b90506000868473ffffffffffffffffffffffffffffffffffffffff16636b1374f08a6040518263ffffffff1660e01b81526004016128719190613b42565b602060405180830381865afa15801561288e573d6000803e3d6000fd5b505050506040513d601f19601f820116820180604052508101906128b29190613b72565b6128bc9190613f77565b905060008060009054906101000a900473ffffffffffffffffffffffffffffffffffffffff1673ffffffffffffffffffffffffffffffffffffffff166304433bbc6040518163ffffffff1660e01b81526004016129189061402e565b602060405180830381865afa158015612935573d6000803e3d6000fd5b505050506040513d601f19601f8201168201806040525081019061295991906138ab565b90508473ffffffffffffffffffffffffffffffffffffffff16636dccf56d8a856040518363ffffffff1660e01b8152600401612996929190613fb9565b600060405180830381600087803b1580156129b057600080fd5b505af11580156129c4573d6000803e3d6000fd5b505050508473ffffffffffffffffffffffffffffffffffffffff1663769653e68a846040518363ffffffff1660e01b8152600401612a03929190613fb9565b600060405180830381600087803b158015612a1d57600080fd5b505af1158015612a31573d6000803e3d6000fd5b5050505060008173ffffffffffffffffffffffffffffffffffffffff1663151db1b96040518163ffffffff1660e01b8152600401602060405180830381865afa158015612a82573d6000803e3d6000fd5b505050506040513d601f19601f82011682018060405250810190612aa69190614161565b62ffffff1642612ab6919061418e565b90508573ffffffffffffffffffffffffffffffffffffffff16634f3cc7c08b836040518363ffffffff1660e01b8152600401612af39291906141f3565b600060405180830381600087803b158015612b0d57600080fd5b505af1158015612b21573d6000803e3d6000fd5b505050508173ffffffffffffffffffffffffffffffffffffffff16639ec41a2d6040518163ffffffff1660e01b8152600401602060405180830381865afa158015612b70573d6000803e3d6000fd5b505050506040513d601f19601f82011682018060405250810190612b949190613b72565b6bffffffffffffffffffffffff16856bffffffffffffffffffffffff1610158015612c4857508173ffffffffffffffffffffffffffffffffffffffff16639ec41a2d6040518163ffffffff1660e01b8152600401602060405180830381865afa158015612c05573d6000803e3d6000fd5b505050506040513d601f19601f82011682018060405250810190612c299190613b72565b6bffffffffffffffffffffffff16846bffffffffffffffffffffffff16105b15612d575760008060009054906101000a900473ffffffffffffffffffffffffffffffffffffffff1673ffffffffffffffffffffffffffffffffffffffff166304433bbc6040518163ffffffff1660e01b8152600401612ca79061409a565b602060405180830381865afa158015612cc4573d6000803e3d6000fd5b505050506040513d601f19601f82011682018060405250810190612ce891906138ab565b90508073ffffffffffffffffffffffffffffffffffffffff1663796f11aa8c6040518263ffffffff1660e01b8152600401612d239190613b42565b600060405180830381600087803b158015612d3d57600080fd5b505af1158015612d51573d6000803e3d6000fd5b50505050505b8573ffffffffffffffffffffffffffffffffffffffff16636c5c281c8b6040518263ffffffff1660e01b8152600401612d909190613b42565b600060405180830381865afa158015612dad573d6000803e3d6000fd5b505050506040513d6000823e3d601f19601f82011682018060405250810190612dd69190613e35565b604051612de39190613ec5565b60405180910390208a6bffffffffffffffffffffffff167f1a03cee1837345f730ee178e2bb5e6e4ad80f4b442144e1dd724fa8bbec65e17858488604051612e2d939291906144f8565b60405180910390a350505050505050505050565b60008060009054906101000a900473ffffffffffffffffffffffffffffffffffffffff1673ffffffffffffffffffffffffffffffffffffffff166304433bbc6040518163ffffffff1660e01b8152600401612e9b90614268565b602060405180830381865afa158015612eb8573d6000803e3d6000fd5b505050506040513d601f19601f82011682018060405250810190612edc91906138ab565b905060008060009054906101000a900473ffffffffffffffffffffffffffffffffffffffff1673ffffffffffffffffffffffffffffffffffffffff166304433bbc6040518163ffffffff1660e01b8152600401612f3890613b22565b602060405180830381865afa158015612f55573d6000803e3d6000fd5b505050506040513d601f19601f82011682018060405250810190612f7991906138ab565b9050826bffffffffffffffffffffffff168273ffffffffffffffffffffffffffffffffffffffff1663dd62ed3e33306040518363ffffffff1660e01b8152600401612fc5929190614288565b602060405180830381865afa158015612fe2573d6000803e3d6000fd5b505050506040513d601f19601f820116820180604052508101906130069190613c37565b1015613047576040517f08c379a000000000000000000000000000000000000000000000000000000000815260040161303e906145a1565b60405180910390fd5b826bffffffffffffffffffffffff168273ffffffffffffffffffffffffffffffffffffffff166370a08231336040518263ffffffff1660e01b815260040161308f9190614343565b602060405180830381865afa1580156130ac573d6000803e3d6000fd5b505050506040513d601f19601f820116820180604052508101906130d09190613c37565b1015613111576040517f08c379a00000000000000000000000000000000000000000000000000000000081526004016131089061460d565b60405180910390fd5b8173ffffffffffffffffffffffffffffffffffffffff166323b872dd3383866040518463ffffffff1660e01b815260040161314e939291906143fb565b6020604051808303816000875af115801561316d573d6000803e3d6000fd5b505050506040513d601f19601f820116820180604052508101906131919190613a17565b50600081905060008173ffffffffffffffffffffffffffffffffffffffff1663d9e2bcbc338a8a8a8a6040518663ffffffff1660e01b81526004016131da959493929190614677565b6020604051808303816000875af11580156131f9573d6000803e3d6000fd5b505050506040513d601f19601f8201168201806040525081019061321d9190613b72565b905060008060009054906101000a900473ffffffffffffffffffffffffffffffffffffffff1673ffffffffffffffffffffffffffffffffffffffff166304433bbc6040518163ffffffff1660e01b81526004016132799061402e565b602060405180830381865afa158015613296573d6000803e3d6000fd5b505050506040513d601f19601f820116820180604052508101906132ba91906138ab565b90508073ffffffffffffffffffffffffffffffffffffffff16639ec41a2d6040518163ffffffff1660e01b8152600401602060405180830381865afa158015613307573d6000803e3d6000fd5b505050506040513d601f19601f8201168201806040525081019061332b9190613b72565b6bffffffffffffffffffffffff16866bffffffffffffffffffffffff16106134575760008060009054906101000a900473ffffffffffffffffffffffffffffffffffffffff1673ffffffffffffffffffffffffffffffffffffffff166304433bbc6040518163ffffffff1660e01b81526004016133a79061409a565b602060405180830381865afa1580156133c4573d6000803e3d6000fd5b505050506040513d601f19601f820116820180604052508101906133e891906138ab565b90508073ffffffffffffffffffffffffffffffffffffffff1663e1131caa846040518263ffffffff1660e01b81526004016134239190613b42565b600060405180830381600087803b15801561343d57600080fd5b505af1158015613451573d6000803e3d6000fd5b50505050505b876040516134659190613ec5565b6040518091039020826bffffffffffffffffffffffff167f190cf66c55277e9271ead73f93cfce93d72f2a89276712a2f6bcf08ef4389b8460405160405180910390a3505050505050505050565b600073ffffffffffffffffffffffffffffffffffffffff82169050919050565b6000819050919050565b60006134f86134f36134ee846134b3565b6134d3565b6134b3565b9050919050565b600061350a826134dd565b9050919050565b600061351c826134ff565b9050919050565b61352c81613511565b82525050565b60006020820190506135476000830184613523565b92915050565b6000604051905090565b600080fd5b600080fd5b60006bffffffffffffffffffffffff82169050919050565b61358281613561565b811461358d57600080fd5b50565b60008135905061359f81613579565b92915050565b6000602082840312156135bb576135ba613557565b5b60006135c984828501613590565b91505092915050565b600080604083850312156135e9576135e8613557565b5b60006135f785828601613590565b925050602061360885828601613590565b9150509250929050565b600061361d826134b3565b9050919050565b61362d81613612565b811461363857600080fd5b50565b60008135905061364a81613624565b92915050565b600080fd5b600080fd5b6000601f19601f8301169050919050565b7f4e487b7100000000000000000000000000000000000000000000000000000000600052604160045260246000fd5b6136a38261365a565b810181811067ffffffffffffffff821117156136c2576136c161366b565b5b80604052505050565b60006136d561354d565b90506136e1828261369a565b919050565b600067ffffffffffffffff8211156137015761370061366b565b5b61370a8261365a565b9050602081019050919050565b82818337600083830152505050565b6000613739613734846136e6565b6136cb565b90508281526020810184848401111561375557613754613655565b5b613760848285613717565b509392505050565b600082601f83011261377d5761377c613650565b5b813561378d848260208601613726565b91505092915050565b600080600080608085870312156137b0576137af613557565b5b60006137be8782880161363b565b945050602085013567ffffffffffffffff8111156137df576137de61355c565b5b6137eb87828801613768565b93505060406137fc87828801613590565b925050606061380d87828801613590565b91505092959194509250565b600082825260208201905092915050565b7f4964656e7469747953746f726167650000000000000000000000000000000000600082015250565b6000613860600f83613819565b915061386b8261382a565b602082019050919050565b6000602082019050818103600083015261388f81613853565b9050919050565b6000815190506138a581613624565b92915050565b6000602082840312156138c1576138c0613557565b5b60006138cf84828501613896565b91505092915050565b60008160601b9050919050565b60006138f0826138d8565b9050919050565b6000613902826138e5565b9050919050565b61391a61391582613612565b6138f7565b82525050565b600061392c8284613909565b60148201915081905092915050565b61394481613561565b82525050565b6000819050919050565b61395d8161394a565b82525050565b6000819050919050565b6000819050919050565b600061399261398d61398884613963565b6134d3565b61396d565b9050919050565b6139a281613977565b82525050565b60006060820190506139bd600083018661393b565b6139ca6020830185613954565b6139d76040830184613999565b949350505050565b60008115159050919050565b6139f4816139df565b81146139ff57600080fd5b50565b600081519050613a11816139eb565b92915050565b600060208284031215613a2d57613a2c613557565b5b6000613a3b84828501613a02565b91505092915050565b7f46756e6374696f6e2063616e2062652063616c6c6564206f6e6c79206279206960008201527f64656e746974792061646d696e00000000000000000000000000000000000000602082015250565b6000613aa0602d83613819565b9150613aab82613a44565b604082019050919050565b60006020820190508181036000830152613acf81613a93565b9050919050565b7f50726f66696c6553746f72616765000000000000000000000000000000000000600082015250565b6000613b0c600e83613819565b9150613b1782613ad6565b602082019050919050565b60006020820190508181036000830152613b3b81613aff565b9050919050565b6000602082019050613b57600083018461393b565b92915050565b600081519050613b6c81613579565b92915050565b600060208284031215613b8857613b87613557565b5b6000613b9684828501613b5d565b91505092915050565b7f5769746864726177616c206861736e2774206265656e20696e69746961746564600082015250565b6000613bd5602083613819565b9150613be082613b9f565b602082019050919050565b60006020820190508181036000830152613c0481613bc8565b9050919050565b613c148161396d565b8114613c1f57600080fd5b50565b600081519050613c3181613c0b565b92915050565b600060208284031215613c4d57613c4c613557565b5b6000613c5b84828501613c22565b91505092915050565b7f5769746864726177616c20706572696f64206861736e277420656e646564207960008201527f6574000000000000000000000000000000000000000000000000000000000000602082015250565b6000613cc0602283613819565b9150613ccb82613c64565b604082019050919050565b60006020820190508181036000830152613cef81613cb3565b9050919050565b6000819050919050565b6000613d1b613d16613d1184613cf6565b6134d3565b613561565b9050919050565b613d2b81613d00565b82525050565b6000604082019050613d46600083018561393b565b613d536020830184613d22565b9392505050565b613d6381613612565b82525050565b6000604082019050613d7e6000830185613d5a565b613d8b602083018461393b565b9392505050565b60005b83811015613db0578082015181840152602081019050613d95565b83811115613dbf576000848401525b50505050565b6000613dd8613dd3846136e6565b6136cb565b905082815260208101848484011115613df457613df3613655565b5b613dff848285613d92565b509392505050565b600082601f830112613e1c57613e1b613650565b5b8151613e2c848260208601613dc5565b91505092915050565b600060208284031215613e4b57613e4a613557565b5b600082015167ffffffffffffffff811115613e6957613e6861355c565b5b613e7584828501613e07565b91505092915050565b600081519050919050565b600081905092915050565b6000613e9f82613e7e565b613ea98185613e89565b9350613eb9818560208601613d92565b80840191505092915050565b6000613ed18284613e94565b915081905092915050565b7f596f752068617665206e6f207265776172640000000000000000000000000000600082015250565b6000613f12601283613819565b9150613f1d82613edc565b602082019050919050565b60006020820190508181036000830152613f4181613f05565b9050919050565b7f4e487b7100000000000000000000000000000000000000000000000000000000600052601160045260246000fd5b6000613f8282613561565b9150613f8d83613561565b9250826bffffffffffffffffffffffff03821115613fae57613fad613f48565b5b828201905092915050565b6000604082019050613fce600083018561393b565b613fdb602083018461393b565b9392505050565b7f506172616d657465727353746f72616765000000000000000000000000000000600082015250565b6000614018601183613819565b915061402382613fe2565b602082019050919050565b600060208201905081810360008301526140478161400b565b9050919050565b7f5368617264696e675461626c6500000000000000000000000000000000000000600082015250565b6000614084600d83613819565b915061408f8261404e565b602082019050919050565b600060208201905081810360008301526140b381614077565b9050919050565b7f4e6f2072657761726420746f2077697468647261770000000000000000000000600082015250565b60006140f0601583613819565b91506140fb826140ba565b602082019050919050565b6000602082019050818103600083015261411f816140e3565b9050919050565b600062ffffff82169050919050565b61413e81614126565b811461414957600080fd5b50565b60008151905061415b81614135565b92915050565b60006020828403121561417757614176613557565b5b60006141858482850161414c565b91505092915050565b60006141998261396d565b91506141a48361396d565b9250827fffffffffffffffffffffffffffffffffffffffffffffffffffffffffffffffff038211156141d9576141d8613f48565b5b828201905092915050565b6141ed8161396d565b82525050565b6000604082019050614208600083018561393b565b61421560208301846141e4565b9392505050565b7f546f6b656e000000000000000000000000000000000000000000000000000000600082015250565b6000614252600583613819565b915061425d8261421c565b602082019050919050565b6000602082019050818103600083015261428181614245565b9050919050565b600060408201905061429d6000830185613d5a565b6142aa6020830184613d5a565b9392505050565b7f416c6c6f77616e6365206d757374206265203e3d2063686f73656e20616d6f7560008201527f6e74000000000000000000000000000000000000000000000000000000000000602082015250565b600061430d602283613819565b9150614318826142b1565b604082019050919050565b6000602082019050818103600083015261433c81614300565b9050919050565b60006020820190506143586000830184613d5a565b92915050565b7f42616c616e6365206d757374206265203e3d2063686f73656e20616d6f756e74600082015250565b6000614394602083613819565b915061439f8261435e565b602082019050919050565b600060208201905081810360008301526143c381614387565b9050919050565b60006143e56143e06143db84613561565b6134d3565b61396d565b9050919050565b6143f5816143ca565b82525050565b60006060820190506144106000830186613d5a565b61441d6020830185613d5a565b61442a60408301846143ec565b949350505050565b7f416d6f756e742063616e277420626520626967676572207468616e206176616960008201527f6c61626c65207374616b65000000000000000000000000000000000000000000602082015250565b600061448e602b83613819565b915061449982614432565b604082019050919050565b600060208201905081810360008301526144bd81614481565b9050919050565b60006144cf82613561565b91506144da83613561565b9250828210156144ed576144ec613f48565b5b828203905092915050565b600060608201905061450d600083018661393b565b61451a60208301856141e4565b614527604083018461393b565b949350505050565b7f416c6c6f77616e6365206d757374206265203e3d20696e697469616c2073746160008201527f6b65000000000000000000000000000000000000000000000000000000000000602082015250565b600061458b602283613819565b91506145968261452f565b604082019050919050565b600060208201905081810360008301526145ba8161457e565b9050919050565b7f42616c616e6365206d757374206265203e3d20696e697469616c207374616b65600082015250565b60006145f7602083613819565b9150614602826145c1565b602082019050919050565b60006020820190508181036000830152614626816145ea565b9050919050565b600082825260208201905092915050565b600061464982613e7e565b614653818561462d565b9350614663818560208601613d92565b61466c8161365a565b840191505092915050565b600060a08201905061468c6000830188613d5a565b6146996020830187613d5a565b81810360408301526146ab818661463e565b90506146ba606083018561393b565b6146c7608083018461393b565b969550505050505056fea2646970667358221220c77173a4109f70567f0ee0564e634361387247182697f7a01888e41d5ce0454164736f6c634300080e0033",
  "immutableReferences": {},
  "source": "// SPDX-License-Identifier: MIT\n\npragma solidity ^0.8.0;\n\nimport { Hub } from \"./Hub.sol\";\nimport { IdentityStorage } from \"./storage/IdentityStorage.sol\";\nimport { IERC20 } from \"@openzeppelin/contracts/token/ERC20/IERC20.sol\";\nimport { ParametersStorage } from \"./storage/ParametersStorage.sol\";\nimport { ProfileStorage } from \"./storage/ProfileStorage.sol\";\nimport { ShardingTable } from \"./ShardingTable.sol\";\n\ncontract Profile {\n    event ProfileCreated(\n        uint96 indexed identityId,\n        bytes indexed nodeId\n    );\n    event StakeIncreased(\n        uint96 indexed identityId,\n        bytes indexed nodeId,\n        uint96 stakedAmount,\n        uint96 newStake\n    );\n    event StakeWithdrawalInitiated(\n        uint96 indexed identityId,\n        bytes indexed nodeId,\n        uint96 stakeWithdrawalAmount,\n        uint256 stakeWithdrawalTimestamp,\n        uint96 newStake\n    );\n    event StakeWithdrawn(\n        uint96 indexed identityId,\n        bytes indexed nodeId,\n        uint96 withdrawnStakeAmount\n    );\n    event RewardWithdrawalInitiated(\n        uint96 indexed identityId,\n        bytes indexed nodeId,\n        uint96 rewardWithdrawalAmount,\n        uint256 rewardWithdrawalTimestamp\n    );\n    event RewardWithdrawn(\n        uint96 indexed identityId,\n        bytes indexed nodeId,\n        uint96 withdrawnRewardAmount\n    );\n    event StakeFrozen(\n        uint96 indexed identityId,\n        bytes indexed nodeId,\n        uint96 frozenStakeAmount\n    );\n    event StakeUnfrozen(\n        uint96 indexed identityId,\n        bytes indexed nodeId,\n        uint96 unfrozenStakeAmount\n    );\n\n    Hub public hub;\n\n    constructor(address hubAddress) {\n        require(hubAddress != address(0));\n        hub = Hub(hubAddress);\n    }\n\n    modifier onlyWithAdminKey(uint96 identityId) {\n        IdentityStorage identityStorage = IdentityStorage(hub.getContractAddress(\"IdentityStorage\"));\n\n        require(\n            identityStorage.keyHasPurpose(identityId, keccak256(abi.encodePacked(msg.sender)), 1),\n            \"Function can be called only by identity admin\"\n        );\n        _;\n\t}\n\n    function createProfile(address adminWallet, bytes memory nodeId, uint96 initialAsk, uint96 initialStake)\n        public\n    {\n        IERC20 tokenContract = IERC20(hub.getContractAddress(\"Token\"));\n        address profileStorageAddress = hub.getContractAddress(\"ProfileStorage\");\n\n        require(\n            tokenContract.allowance(msg.sender, address(this)) >= initialStake,\n            \"Allowance must be >= initial stake\"\n        );\n        require(tokenContract.balanceOf(msg.sender) >= initialStake, \"Balance must be >= initial stake\");\n\n        tokenContract.transferFrom(msg.sender, profileStorageAddress, initialStake);\n\n        ProfileStorage profileStorage = ProfileStorage(profileStorageAddress);\n\n        uint96 identityId = profileStorage.createProfile(\n            msg.sender,\n            adminWallet,\n            nodeId,\n            initialAsk,\n            initialStake\n        );\n       \n        ParametersStorage parametersStorage = ParametersStorage(hub.getContractAddress(\"ParametersStorage\"));\n        if (initialStake >= parametersStorage.minimalStake()) {\n            ShardingTable shardingTable = ShardingTable(hub.getContractAddress(\"ShardingTable\"));\n            shardingTable.pushBack(identityId);\n        }\n\n        emit ProfileCreated(identityId, nodeId);\n    }\n\n    function increaseStake(uint96 identityId, uint96 amount)\n        public\n        onlyWithAdminKey(identityId)\n    {\n        IERC20 tokenContract = IERC20(hub.getContractAddress(\"Token\"));\n        address profileStorageAddress = hub.getContractAddress(\"ProfileStorage\");\n\n        require(tokenContract.allowance(msg.sender, address(this)) >= amount, \"Allowance must be >= chosen amount\");\n        require(tokenContract.balanceOf(msg.sender) >= amount, \"Balance must be >= chosen amount\");\n\n        ProfileStorage profileStorage = ProfileStorage(profileStorageAddress);\n\n        uint96 oldStake = profileStorage.getStake(identityId);\n        uint96 newStake = oldStake + amount;\n        profileStorage.setStake(identityId, newStake);\n\n        tokenContract.transferFrom(msg.sender, profileStorageAddress, amount);\n\n        ParametersStorage parametersStorage = ParametersStorage(hub.getContractAddress(\"ParametersStorage\"));\n\n        if (oldStake < parametersStorage.minimalStake() && newStake >= parametersStorage.minimalStake()) {\n            ShardingTable shardingTable = ShardingTable(hub.getContractAddress(\"ShardingTable\"));\n            shardingTable.pushBack(identityId);\n        }\n\n        emit StakeIncreased(\n            identityId,\n            profileStorage.getNodeId(identityId),\n            amount,\n            newStake\n        );\n    }\n\n    function startStakeWithdrawal(uint96 identityId, uint96 amount)\n        public\n        onlyWithAdminKey(identityId)\n    {\n        ProfileStorage profileStorage = ProfileStorage(hub.getContractAddress(\"ProfileStorage\"));\n\n        require(amount <= profileStorage.getStake(identityId), \"Amount can't be bigger than available stake\");\n\n        uint96 oldStake = profileStorage.getStake(identityId);\n        uint96 newStake = oldStake - amount;\n        uint96 newStakeWithdrawalAmount = profileStorage.getStakeWithdrawalAmount(identityId) + amount;\n\n        ParametersStorage parametersStorage = ParametersStorage(hub.getContractAddress(\"ParametersStorage\"));\n\n        profileStorage.setStake(identityId, newStake);\n        profileStorage.setStakeWithdrawalAmount(identityId, newStakeWithdrawalAmount);\n        uint256 stakeWithdrawalTimestamp = block.timestamp + parametersStorage.stakeWithdrawalDelay();\n        profileStorage.setStakeWithdrawalTimestamp(identityId, stakeWithdrawalTimestamp);\n\n        if (oldStake >= parametersStorage.minimalStake() && newStake < parametersStorage.minimalStake()) {\n            ShardingTable shardingTable = ShardingTable(hub.getContractAddress(\"ShardingTable\"));\n            shardingTable.removeNode(identityId);\n        }\n\n        emit StakeWithdrawalInitiated(\n            identityId,\n            profileStorage.getNodeId(identityId),\n            newStakeWithdrawalAmount,\n            stakeWithdrawalTimestamp,\n            newStake\n        );\n    }\n\n    function withdrawFreeStake(uint96 identityId)\n        public\n        onlyWithAdminKey(identityId)\n    {\n        ProfileStorage profileStorage = ProfileStorage(hub.getContractAddress(\"ProfileStorage\"));\n\n        uint96 stakeWithdrawalAmount = profileStorage.getStakeWithdrawalAmount(identityId);\n\n        require(stakeWithdrawalAmount > 0, \"Withdrawal hasn't been initiated\");\n        require(\n            profileStorage.getStakeWithdrawalTimestamp(identityId) < block.timestamp,\n            \"Withdrawal period hasn't ended yet\"\n        );\n\n        profileStorage.transferTokens(msg.sender, stakeWithdrawalAmount);\n\n        profileStorage.setStakeWithdrawalAmount(identityId, 0);\n\n        emit StakeWithdrawn(\n            identityId,\n            profileStorage.getNodeId(identityId),\n            stakeWithdrawalAmount\n        );\n    }\n\n    function stakeReward(uint96 identityId)\n        public\n        onlyWithAdminKey(identityId)\n    {\n        ProfileStorage profileStorage = ProfileStorage(hub.getContractAddress(\"ProfileStorage\"));\n\n        uint96 rewardAmount = profileStorage.getReward(identityId);\n        require(rewardAmount > 0, \"You have no reward\");\n\n        uint96 oldStake = profileStorage.getStake(identityId);\n        uint96 newStake = oldStake + rewardAmount;\n\n        profileStorage.setReward(identityId, 0);\n        profileStorage.setStake(identityId, newStake);\n\n        ParametersStorage parametersStorage = ParametersStorage(hub.getContractAddress(\"ParametersStorage\"));\n\n        if (oldStake < parametersStorage.minimalStake() && newStake >= parametersStorage.minimalStake()) {\n            ShardingTable shardingTable = ShardingTable(hub.getContractAddress(\"ShardingTable\"));\n            shardingTable.pushBack(identityId);\n        }\n\n        emit StakeIncreased(\n            identityId,\n            profileStorage.getNodeId(identityId),\n            rewardAmount,\n            newStake\n        );\n    }\n\n    function startRewardWithdrawal(uint96 identityId)\n        public\n        onlyWithAdminKey(identityId)\n    {\n        ProfileStorage profileStorage = ProfileStorage(hub.getContractAddress(\"ProfileStorage\"));\n\n        uint96 reward = profileStorage.getReward(identityId);\n\n        require(reward > 0, \"No reward to withdraw\");\n\n        ParametersStorage parametersStorage = ParametersStorage(hub.getContractAddress(\"ParametersStorage\"));\n\n        profileStorage.setReward(identityId, 0);\n        profileStorage.setRewardWithdrawalAmount(\n            identityId,\n            profileStorage.getRewardWithdrawalAmount(identityId) + reward\n        );\n        uint256 rewardWithdrawalTimestamp = block.timestamp + parametersStorage.rewardWithdrawalDelay();\n        profileStorage.setRewardWithdrawalTimestamp(identityId, rewardWithdrawalTimestamp);\n\n        emit RewardWithdrawalInitiated(\n            identityId,\n            profileStorage.getNodeId(identityId),\n            reward,\n            rewardWithdrawalTimestamp\n        );\n    }\n\n    function withdrawFreeReward(uint96 identityId)\n        public\n        onlyWithAdminKey(identityId)\n    {\n        ProfileStorage profileStorage = ProfileStorage(hub.getContractAddress(\"ProfileStorage\"));\n\n        uint96 rewardWithdrawalAmount = profileStorage.getRewardWithdrawalAmount(identityId);\n\n        require(rewardWithdrawalAmount > 0, \"Withdrawal hasn't been initiated\");\n        require(\n            profileStorage.getRewardWithdrawalTimestamp(identityId) < block.timestamp,\n            \"Withdrawal period hasn't ended yet\"\n        );\n\n        profileStorage.setRewardWithdrawalAmount(identityId, 0);\n        profileStorage.transferTokens(msg.sender, rewardWithdrawalAmount);\n\n        emit RewardWithdrawn(\n            identityId,\n            profileStorage.getNodeId(identityId),\n            rewardWithdrawalAmount\n        );\n    }\n\n    // function freezeStake(uint8 percentage)\n    //     public\n    // {\n    //     emit StakeFrozen(identityId, frozenStakeAmount);\n    // }\n\n    // function unfreezeStake()\n    //     public\n    // {\n    //     emit StakeUnfrozen(identityId, unfrozenStakeAmount);\n    // }\n}\n",
  "sourcePath": "/Users/waving/Desktop/OriginTrail/dkg-evm-module/contracts/Profile.sol",
  "compiler": {
    "name": "solc",
    "version": "0.8.14+commit.80d49f37.Emscripten.clang"
  },
  "schemaVersion": "3.4.10",
  "updatedAt": "2022-11-16T11:11:18.753Z",
  "devdoc": {
    "kind": "dev",
    "methods": {},
    "version": 1
  },
  "userdoc": {
    "kind": "user",
    "methods": {},
    "version": 1
  }
}