{
  "contractName": "ProfileStorage",
  "abi": [
    {
      "inputs": [
        {
          "internalType": "address",
          "name": "hubAddress",
          "type": "address"
        }
      ],
      "stateMutability": "nonpayable",
      "type": "constructor"
    },
    {
      "inputs": [],
      "name": "hashingProxy",
      "outputs": [
        {
          "internalType": "contract HashingProxy",
          "name": "",
          "type": "address"
        }
      ],
      "stateMutability": "view",
      "type": "function"
    },
    {
      "inputs": [],
      "name": "hub",
      "outputs": [
        {
          "internalType": "contract Hub",
          "name": "",
          "type": "address"
        }
      ],
      "stateMutability": "view",
      "type": "function"
    },
    {
      "inputs": [
        {
          "internalType": "bytes",
          "name": "",
          "type": "bytes"
        }
      ],
      "name": "nodeIdsList",
      "outputs": [
        {
          "internalType": "bool",
          "name": "",
          "type": "bool"
        }
      ],
      "stateMutability": "view",
      "type": "function"
    },
    {
      "inputs": [],
      "name": "tokenContract",
      "outputs": [
        {
          "internalType": "contract IERC20",
          "name": "",
          "type": "address"
        }
      ],
      "stateMutability": "view",
      "type": "function"
    },
    {
      "inputs": [],
      "name": "initialize",
      "outputs": [],
      "stateMutability": "nonpayable",
      "type": "function"
    },
    {
      "inputs": [],
      "name": "name",
      "outputs": [
        {
          "internalType": "string",
          "name": "",
          "type": "string"
        }
      ],
      "stateMutability": "pure",
      "type": "function"
    },
    {
      "inputs": [],
      "name": "version",
      "outputs": [
        {
          "internalType": "string",
          "name": "",
          "type": "string"
        }
      ],
      "stateMutability": "pure",
      "type": "function"
    },
    {
      "inputs": [
        {
          "internalType": "uint72",
          "name": "identityId",
          "type": "uint72"
        },
        {
          "internalType": "bytes",
          "name": "nodeId",
          "type": "bytes"
        },
        {
          "internalType": "address",
          "name": "sharesContractAddress",
          "type": "address"
        }
      ],
      "name": "createProfile",
      "outputs": [],
      "stateMutability": "nonpayable",
      "type": "function"
    },
    {
      "inputs": [
        {
          "internalType": "uint72",
          "name": "identityId",
          "type": "uint72"
        }
      ],
      "name": "getProfile",
      "outputs": [
        {
          "internalType": "bytes",
          "name": "",
          "type": "bytes"
        },
        {
          "internalType": "uint96[2]",
          "name": "",
          "type": "uint96[2]"
        },
        {
          "internalType": "address",
          "name": "",
          "type": "address"
        }
      ],
      "stateMutability": "view",
      "type": "function"
    },
    {
      "inputs": [
        {
          "internalType": "uint72",
          "name": "identityId",
          "type": "uint72"
        }
      ],
      "name": "deleteProfile",
      "outputs": [],
      "stateMutability": "nonpayable",
      "type": "function"
    },
    {
      "inputs": [
        {
          "internalType": "uint72",
          "name": "identityId",
          "type": "uint72"
        }
      ],
      "name": "getNodeId",
      "outputs": [
        {
          "internalType": "bytes",
          "name": "",
          "type": "bytes"
        }
      ],
      "stateMutability": "view",
      "type": "function"
    },
    {
      "inputs": [
        {
          "internalType": "uint72",
          "name": "identityId",
          "type": "uint72"
        },
        {
          "internalType": "bytes",
          "name": "nodeId",
          "type": "bytes"
        }
      ],
      "name": "setNodeId",
      "outputs": [],
      "stateMutability": "nonpayable",
      "type": "function"
    },
    {
      "inputs": [
        {
          "internalType": "uint72",
          "name": "identityId",
          "type": "uint72"
        }
      ],
      "name": "getAsk",
      "outputs": [
        {
          "internalType": "uint96",
          "name": "",
          "type": "uint96"
        }
      ],
      "stateMutability": "view",
      "type": "function"
    },
    {
      "inputs": [
        {
          "internalType": "uint72",
          "name": "identityId",
          "type": "uint72"
        },
        {
          "internalType": "uint96",
          "name": "ask",
          "type": "uint96"
        }
      ],
      "name": "setAsk",
      "outputs": [],
      "stateMutability": "nonpayable",
      "type": "function"
    },
    {
      "inputs": [
        {
          "internalType": "uint72",
          "name": "identityId",
          "type": "uint72"
        }
      ],
      "name": "getAccumulatedOperatorFee",
      "outputs": [
        {
          "internalType": "uint96",
          "name": "",
          "type": "uint96"
        }
      ],
      "stateMutability": "view",
      "type": "function"
    },
    {
      "inputs": [
        {
          "internalType": "uint72",
          "name": "identityId",
          "type": "uint72"
        },
        {
          "internalType": "uint96",
          "name": "newOperatorFeeAmount",
          "type": "uint96"
        }
      ],
      "name": "setAccumulatedOperatorFee",
      "outputs": [],
      "stateMutability": "nonpayable",
      "type": "function"
    },
    {
      "inputs": [
        {
          "internalType": "uint72",
          "name": "identityId",
          "type": "uint72"
        }
      ],
      "name": "getAccumulatedOperatorFeeWithdrawalAmount",
      "outputs": [
        {
          "internalType": "uint96",
          "name": "",
          "type": "uint96"
        }
      ],
      "stateMutability": "view",
      "type": "function"
    },
    {
      "inputs": [
        {
          "internalType": "uint72",
          "name": "identityId",
          "type": "uint72"
        },
        {
          "internalType": "uint96",
          "name": "accumulatedOperatorFeeWithdrawalAmount",
          "type": "uint96"
        }
      ],
      "name": "setAccumulatedOperatorFeeWithdrawalAmount",
      "outputs": [],
      "stateMutability": "nonpayable",
      "type": "function"
    },
    {
      "inputs": [
        {
          "internalType": "uint72",
          "name": "identityId",
          "type": "uint72"
        }
      ],
      "name": "getAccumulatedOperatorFeeWithdrawalTimestamp",
      "outputs": [
        {
          "internalType": "uint256",
          "name": "",
          "type": "uint256"
        }
      ],
      "stateMutability": "view",
      "type": "function"
    },
    {
      "inputs": [
        {
          "internalType": "uint72",
          "name": "identityId",
          "type": "uint72"
        },
        {
          "internalType": "uint256",
          "name": "operatorFeeWithdrawalTimestamp",
          "type": "uint256"
        }
      ],
      "name": "setAccumulatedOperatorFeeWithdrawalTimestamp",
      "outputs": [],
      "stateMutability": "nonpayable",
      "type": "function"
    },
    {
      "inputs": [
        {
          "internalType": "uint72",
          "name": "identityId",
          "type": "uint72"
        }
      ],
      "name": "getSharesContractAddress",
      "outputs": [
        {
          "internalType": "address",
          "name": "",
          "type": "address"
        }
      ],
      "stateMutability": "view",
      "type": "function"
    },
    {
      "inputs": [
        {
          "internalType": "uint72",
          "name": "identityId",
          "type": "uint72"
        },
        {
          "internalType": "address",
          "name": "sharesContractAddress",
          "type": "address"
        }
      ],
      "name": "setSharesContractAddress",
      "outputs": [],
      "stateMutability": "nonpayable",
      "type": "function"
    },
    {
      "inputs": [
        {
          "internalType": "uint72",
          "name": "identityId",
          "type": "uint72"
        },
        {
          "internalType": "uint8",
          "name": "hashFunctionId",
          "type": "uint8"
        }
      ],
      "name": "getNodeAddress",
      "outputs": [
        {
          "internalType": "bytes32",
          "name": "",
          "type": "bytes32"
        }
      ],
      "stateMutability": "view",
      "type": "function"
    },
    {
      "inputs": [
        {
          "internalType": "uint72",
          "name": "identityId",
          "type": "uint72"
        },
        {
          "internalType": "uint8",
          "name": "hashFunctionId",
          "type": "uint8"
        }
      ],
      "name": "setNodeAddress",
      "outputs": [],
      "stateMutability": "nonpayable",
      "type": "function"
    },
    {
      "inputs": [
        {
          "internalType": "uint72",
          "name": "identityId",
          "type": "uint72"
        }
      ],
      "name": "profileExists",
      "outputs": [
        {
          "internalType": "bool",
          "name": "",
          "type": "bool"
        }
      ],
      "stateMutability": "view",
      "type": "function"
    },
    {
      "inputs": [
        {
          "internalType": "bytes",
          "name": "nodeId",
          "type": "bytes"
        }
      ],
      "name": "nodeIdRegistered",
      "outputs": [
        {
          "internalType": "bool",
          "name": "",
          "type": "bool"
        }
      ],
      "stateMutability": "view",
      "type": "function"
    },
    {
      "inputs": [
        {
          "internalType": "address",
          "name": "receiver",
          "type": "address"
        },
        {
          "internalType": "uint96",
          "name": "amount",
          "type": "uint96"
        }
      ],
      "name": "transferTokens",
      "outputs": [],
      "stateMutability": "nonpayable",
      "type": "function"
    }
  ],
  "bytecode": "0x60806040523480156200001157600080fd5b5060405162001909380380620019098339810160408190526200003491620002a3565b6001600160a01b0381166200004857600080fd5b600080546001600160a01b0319166001600160a01b0383161790556200006d62000074565b50620002d5565b6200007e620001c4565b600054604051630110ceef60e21b815260206004820152600c60248201526b48617368696e6750726f787960a01b60448201526001600160a01b03909116906304433bbc90606401602060405180830381865afa158015620000e4573d6000803e3d6000fd5b505050506040513d601f19601f820116820180604052508101906200010a9190620002a3565b600180546001600160a01b0319166001600160a01b03928316179055600054604051630110ceef60e21b81526020600482015260056024820152642a37b5b2b760d91b60448201529116906304433bbc90606401602060405180830381865afa1580156200017c573d6000803e3d6000fd5b505050506040513d601f19601f82011682018060405250810190620001a29190620002a3565b600280546001600160a01b0319166001600160a01b0392909216919091179055565b60008054906101000a90046001600160a01b03166001600160a01b0316638da5cb5b6040518163ffffffff1660e01b8152600401602060405180830381865afa15801562000216573d6000803e3d6000fd5b505050506040513d601f19601f820116820180604052508101906200023c9190620002a3565b6001600160a01b0316336001600160a01b031614620002a15760405162461bcd60e51b815260206004820181905260248201527f466e2063616e206f6e6c79206265207573656420627920687562206f776e6572604482015260640160405180910390fd5b565b600060208284031215620002b657600080fd5b81516001600160a01b0381168114620002ce57600080fd5b9392505050565b61162480620002e56000396000f3fe608060405234801561001057600080fd5b50600436106101a95760003560e01c80638129fc1c116100f9578063c12b4c7611610097578063dc827de911610071578063dc827de9146104ac578063e49f999b146104bf578063e6c79da5146104e1578063eb2145e31461051657600080fd5b8063c12b4c761461044a578063d0ea3fee14610486578063d184a8691461049957600080fd5b8063b014809f116100d3578063b014809f146103b0578063b8561a54146103c3578063b89bba06146103f9578063c04d7dcf1461043757600080fd5b80638129fc1c14610367578063947bb6151461036f578063abe979e11461039d57600080fd5b806339fb67dd1161016657806355a373d61161014057806355a373d61461030b57806356abe1841461031e57806368dae4fd1461033157806378153abf1461034457600080fd5b806339fb67dd1461028a57806341c10b9a146102d757806354fd4d50146102ea57600080fd5b806306fdde03146101ae57806311c94ee8146101ea5780631913cd551461021557806322bd9e811461024f578063365a86fc146102645780633718ac5914610277575b600080fd5b60408051808201909152600e81526d50726f66696c6553746f7261676560901b60208201525b6040516101e19190610f64565b60405180910390f35b6001546101fd906001600160a01b031681565b6040516001600160a01b0390911681526020016101e1565b610241610223366004610f9a565b6001600160481b031660009081526004602052604090206003015490565b6040519081526020016101e1565b61026261025d366004610ffe565b610529565b005b6000546101fd906001600160a01b031681565b610262610285366004610f9a565b6105c4565b6102bf610298366004610f9a565b6001600160481b03166000908152600460205260409020600101546001600160601b031690565b6040516001600160601b0390911681526020016101e1565b6101d46102e5366004610f9a565b610676565b6040805180820190915260058152640312e302e360dc1b60208201526101d4565b6002546101fd906001600160a01b031681565b61026261032c366004611051565b610722565b61026261033f36600461107b565b610749565b6103576103523660046110b8565b610809565b60405190151581526020016101e1565b610262610838565b61035761037d366004611110565b805160208183018101805160038252928201919093012091525460ff1681565b6102626103ab3660046111ed565b610980565b6102626103be366004611222565b610a0c565b6101fd6103d1366004610f9a565b6001600160481b0316600090815260046020819052604090912001546001600160a01b031690565b61024161040736600461107b565b6001600160481b038216600090815260046020908152604080832060ff8516845260050190915290205492915050565b610357610445366004610f9a565b610a51565b6102bf610458366004610f9a565b6001600160481b0316600090815260046020526040902060010154600160601b90046001600160601b031690565b61026261049436600461124e565b610ab6565b6102626104a736600461124e565b610b09565b6102626104ba36600461126a565b610b4d565b6104d26104cd366004610f9a565b610bd4565b6040516101e1939291906112d0565b6102bf6104ef366004610f9a565b6001600160481b03166000908152600460205260409020600201546001600160601b031690565b61026261052436600461124e565b610cd2565b610531610d16565b6001600160481b038316600090815260046020526040808220905190919060039061055d90849061136b565b908152604051908190036020019020805491151560ff199092169190911790558061058983858361142f565b5060016003848460405161059e9291906114f0565b908152604051908190036020019020805491151560ff1990921691909117905550505050565b6105cc610d16565b6001600160481b03811660009081526004602052604080822090516003916105f39161136b565b9081526040805160209281900383019020805460ff1916931515939093179092556001600160481b03831660009081526004909152908120906106368282610eaa565b506001810180546001600160c01b03191690556002810180546001600160601b03191690556000600382015560040180546001600160a01b031916905550565b6001600160481b038116600090815260046020526040902080546060919061069d90611331565b80601f01602080910402602001604051908101604052809291908181526020018280546106c990611331565b80156107165780601f106106eb57610100808354040283529160200191610716565b820191906000526020600020905b8154815290600101906020018083116106f957829003601f168201915b50505050509050919050565b61072a610d16565b6001600160481b03909116600090815260046020526040902060030155565b610751610d16565b6001546001600160481b03831660009081526004602081905260409182902091516345ed59e560e01b81526001600160a01b03909316926345ed59e59261079a92869201611500565b602060405180830381865afa1580156107b7573d6000803e3d6000fd5b505050506040513d601f19601f820116820180604052508101906107db9190611596565b6001600160481b03909216600090815260046020908152604080832060ff9094168352600590930190522055565b60006003838360405161081d9291906114f0565b9081526040519081900360200190205460ff16905092915050565b610840610dd5565b600054604051630110ceef60e21b815260206004820152600c60248201526b48617368696e6750726f787960a01b60448201526001600160a01b03909116906304433bbc90606401602060405180830381865afa1580156108a5573d6000803e3d6000fd5b505050506040513d601f19601f820116820180604052508101906108c991906115af565b600180546001600160a01b0319166001600160a01b03928316179055600054604051630110ceef60e21b81526020600482015260056024820152642a37b5b2b760d91b60448201529116906304433bbc90606401602060405180830381865afa15801561093a573d6000803e3d6000fd5b505050506040513d601f19601f8201168201806040525081019061095e91906115af565b600280546001600160a01b0319166001600160a01b0392909216919091179055565b610988610d16565b60025460405163a9059cbb60e01b81526001600160a01b0384811660048301526001600160601b03841660248301529091169063a9059cbb906044016020604051808303816000875af11580156109e3573d6000803e3d6000fd5b505050506040513d601f19601f82011682018060405250810190610a0791906115cc565b505050565b610a14610d16565b6001600160481b039190911660009081526004602081905260409091200180546001600160a01b0319166001600160a01b03909216919091179055565b60408051602080820183526000918290526001600160481b038416825260049052818120915190917fc5d2460186f7233c927e7db2dcc703c0e500b653ca82273b7bfad8045d85a47091610aa5919061136b565b604051809103902014159050919050565b610abe610d16565b6001600160481b03909116600090815260046020526040902060010180546001600160601b03909216600160601b026bffffffffffffffffffffffff60601b19909216919091179055565b610b11610d16565b6001600160481b0391909116600090815260046020526040902060010180546001600160601b0319166001600160601b03909216919091179055565b610b55610d16565b6001600160481b038416600090815260046020526040902080610b7984868361142f565b506004810180546001600160a01b0319166001600160a01b038416179055604051600190600390610bad90879087906114f0565b908152604051908190036020019020805491151560ff199092169190911790555050505050565b6060610bde610ee7565b6001600160481b0383166000908152600460208181526040808420815180830190925260018101546001600160601b038082168452600160601b90910416928201929092529181015481549192839290916001600160a01b0316908390610c4490611331565b80601f0160208091040260200160405190810160405280929190818152602001828054610c7090611331565b8015610cbd5780601f10610c9257610100808354040283529160200191610cbd565b820191906000526020600020905b815481529060010190602001808311610ca057829003601f168201915b50505050509250935093509350509193909250565b610cda610d16565b6001600160481b0391909116600090815260046020526040902060020180546001600160601b0319166001600160601b03909216919091179055565b600054604051631627905560e01b81523360048201526001600160a01b0390911690631627905590602401602060405180830381865afa158015610d5e573d6000803e3d6000fd5b505050506040513d601f19601f82011682018060405250810190610d8291906115cc565b610dd35760405162461bcd60e51b815260206004820181905260248201527f466e2063616e206f6e6c792062652063616c6c6564206279207468652068756260448201526064015b60405180910390fd5b565b60008054906101000a90046001600160a01b03166001600160a01b0316638da5cb5b6040518163ffffffff1660e01b8152600401602060405180830381865afa158015610e26573d6000803e3d6000fd5b505050506040513d601f19601f82011682018060405250810190610e4a91906115af565b6001600160a01b0316336001600160a01b031614610dd35760405162461bcd60e51b815260206004820181905260248201527f466e2063616e206f6e6c79206265207573656420627920687562206f776e65726044820152606401610dca565b508054610eb690611331565b6000825580601f10610ec6575050565b601f016020900490600052602060002090810190610ee49190610f05565b50565b60405180604001604052806002906020820280368337509192915050565b5b80821115610f1a5760008155600101610f06565b5090565b6000815180845260005b81811015610f4457602081850181015186830182015201610f28565b506000602082860101526020601f19601f83011685010191505092915050565b602081526000610f776020830184610f1e565b9392505050565b80356001600160481b0381168114610f9557600080fd5b919050565b600060208284031215610fac57600080fd5b610f7782610f7e565b60008083601f840112610fc757600080fd5b50813567ffffffffffffffff811115610fdf57600080fd5b602083019150836020828501011115610ff757600080fd5b9250929050565b60008060006040848603121561101357600080fd5b61101c84610f7e565b9250602084013567ffffffffffffffff81111561103857600080fd5b61104486828701610fb5565b9497909650939450505050565b6000806040838503121561106457600080fd5b61106d83610f7e565b946020939093013593505050565b6000806040838503121561108e57600080fd5b61109783610f7e565b9150602083013560ff811681146110ad57600080fd5b809150509250929050565b600080602083850312156110cb57600080fd5b823567ffffffffffffffff8111156110e257600080fd5b6110ee85828601610fb5565b90969095509350505050565b634e487b7160e01b600052604160045260246000fd5b60006020828403121561112257600080fd5b813567ffffffffffffffff8082111561113a57600080fd5b818401915084601f83011261114e57600080fd5b813581811115611160576111606110fa565b604051601f8201601f19908116603f01168101908382118183101715611188576111886110fa565b816040528281528760208487010111156111a157600080fd5b826020860160208301376000928101602001929092525095945050505050565b6001600160a01b0381168114610ee457600080fd5b80356001600160601b0381168114610f9557600080fd5b6000806040838503121561120057600080fd5b823561120b816111c1565b9150611219602084016111d6565b90509250929050565b6000806040838503121561123557600080fd5b61123e83610f7e565b915060208301356110ad816111c1565b6000806040838503121561126157600080fd5b61120b83610f7e565b6000806000806060858703121561128057600080fd5b61128985610f7e565b9350602085013567ffffffffffffffff8111156112a557600080fd5b6112b187828801610fb5565b90945092505060408501356112c5816111c1565b939692955090935050565b6080815260006112e36080830186610f1e565b905060208083018560005b60028110156113145781516001600160601b0316835291830191908301906001016112ee565b505050506001600160a01b03929092166060919091015292915050565b600181811c9082168061134557607f821691505b60208210810361136557634e487b7160e01b600052602260045260246000fd5b50919050565b600080835461137981611331565b6001828116801561139157600181146113a6576113d5565b60ff19841687528215158302870194506113d5565b8760005260208060002060005b858110156113cc5781548a8201529084019082016113b3565b50505082870194505b50929695505050505050565b601f821115610a0757600081815260208120601f850160051c810160208610156114085750805b601f850160051c820191505b8181101561142757828155600101611414565b505050505050565b67ffffffffffffffff831115611447576114476110fa565b61145b836114558354611331565b836113e1565b6000601f84116001811461148f57600085156114775750838201355b600019600387901b1c1916600186901b1783556114e9565b600083815260209020601f19861690835b828110156114c057868501358255602094850194600190920191016114a0565b50868210156114dd5760001960f88860031b161c19848701351681555b505060018560011b0183555b5050505050565b8183823760009101908152919050565b60ff83168152600060206040818401526000845461151d81611331565b806040870152606060018084166000811461153f576001811461155957611587565b60ff1985168984015283151560051b890183019550611587565b896000528660002060005b8581101561157f5781548b8201860152908301908801611564565b8a0184019650505b50939998505050505050505050565b6000602082840312156115a857600080fd5b5051919050565b6000602082840312156115c157600080fd5b8151610f77816111c1565b6000602082840312156115de57600080fd5b81518015158114610f7757600080fdfea264697066735822122077d12ded0547475fbc7bcc1b3977115b84c10bc08a38f072bee930e335cc87c664736f6c63430008100033",
  "immutableReferences": {},
  "source": "// SPDX-License-Identifier: MIT\n\npragma solidity ^0.8.4;\n\nimport { HashingProxy } from \"../HashingProxy.sol\";\nimport { Hub } from \"../Hub.sol\";\nimport { Named } from \"../interface/Named.sol\";\nimport { Versioned } from \"../interface/Versioned.sol\";\nimport { IERC20 } from \"@openzeppelin/contracts/token/ERC20/IERC20.sol\";\n\ncontract ProfileStorage is Named, Versioned {\n\n    string constant private _NAME = \"ProfileStorage\";\n    string constant private _VERSION = \"1.0.0\";\n\n    Hub public hub;\n    HashingProxy public hashingProxy;\n    IERC20 public tokenContract;\n\n    struct ProfileDefinition{\n        bytes nodeId;\n        uint96 ask;\n        uint96 accumulatedOperatorFee;\n        uint96 accumulatedOperatorFeeWithdrawalAmount;\n        uint256 operatorFeeWithdrawalTimestamp;\n        address sharesContractAddress;\n        mapping(uint8 => bytes32) nodeAddresses;\n    }\n\n    // nodeId => isRegistered?\n    mapping(bytes => bool) public nodeIdsList;\n    // identityId => Profile\n    mapping(uint72 => ProfileDefinition) profiles;\n\n    constructor(address hubAddress) {\n        require(hubAddress != address(0));\n\n        hub = Hub(hubAddress);\n        initialize();\n    }\n\n    modifier onlyHubOwner() {\n        _checkHubOwner();\n        _;\n    }\n\n    modifier onlyContracts() {\n        _checkHub();\n        _;\n    }\n\n    function initialize() public onlyHubOwner {\n        hashingProxy = HashingProxy(hub.getContractAddress(\"HashingProxy\"));\n        tokenContract = IERC20(hub.getContractAddress(\"Token\"));\n    }\n\n    function name() external pure virtual override returns (string memory) {\n        return _NAME;\n    }\n\n    function version() external pure virtual override returns (string memory) {\n        return _VERSION;\n    }\n\n    function createProfile(uint72 identityId, bytes calldata nodeId, address sharesContractAddress)\n        external\n        onlyContracts\n    {\n        ProfileDefinition storage profile = profiles[identityId];\n        profile.nodeId = nodeId;\n        profile.sharesContractAddress = sharesContractAddress;\n\n        nodeIdsList[nodeId] = true;\n    }\n\n    function getProfile(uint72 identityId) external view returns (bytes memory, uint96[2] memory, address) {\n        ProfileDefinition storage profile = profiles[identityId];\n        return (profile.nodeId, [profile.ask, profile.accumulatedOperatorFee], profile.sharesContractAddress);\n    }\n\n    function deleteProfile(uint72 identityId) external onlyContracts {\n        nodeIdsList[profiles[identityId].nodeId] = false;\n        delete profiles[identityId];\n    }\n\n    function getNodeId(uint72 identityId) external view returns (bytes memory) {\n        return profiles[identityId].nodeId;\n    }\n\n    function setNodeId(uint72 identityId, bytes calldata nodeId) external onlyContracts {\n        ProfileDefinition storage profile = profiles[identityId];\n\n        nodeIdsList[profile.nodeId] = false;\n        profile.nodeId = nodeId;\n        nodeIdsList[nodeId] = true;\n    }\n\n    function getAsk(uint72 identityId) external view returns (uint96) {\n        return profiles[identityId].ask;\n    }\n\n    function setAsk(uint72 identityId, uint96 ask) external onlyContracts {\n        profiles[identityId].ask = ask;\n    }\n\n    function getAccumulatedOperatorFee(uint72 identityId) external view returns (uint96) {\n        return profiles[identityId].accumulatedOperatorFee;\n    }\n\n    function setAccumulatedOperatorFee(uint72 identityId, uint96 newOperatorFeeAmount) external onlyContracts {\n        profiles[identityId].accumulatedOperatorFee = newOperatorFeeAmount;\n    }\n\n    function getAccumulatedOperatorFeeWithdrawalAmount(uint72 identityId) external view returns (uint96) {\n        return profiles[identityId].accumulatedOperatorFeeWithdrawalAmount;\n    }\n\n    function setAccumulatedOperatorFeeWithdrawalAmount(uint72 identityId, uint96 accumulatedOperatorFeeWithdrawalAmount) external onlyContracts {\n        profiles[identityId].accumulatedOperatorFeeWithdrawalAmount = accumulatedOperatorFeeWithdrawalAmount;\n    }\n\n    function getAccumulatedOperatorFeeWithdrawalTimestamp(uint72 identityId) external view returns (uint256) {\n        return profiles[identityId].operatorFeeWithdrawalTimestamp;\n    }\n\n    function setAccumulatedOperatorFeeWithdrawalTimestamp(uint72 identityId, uint256 operatorFeeWithdrawalTimestamp) external onlyContracts {\n        profiles[identityId].operatorFeeWithdrawalTimestamp = operatorFeeWithdrawalTimestamp;\n    }\n\n    function getSharesContractAddress(uint72 identityId) external view returns (address) {\n        return profiles[identityId].sharesContractAddress;\n    }\n\n    function setSharesContractAddress(uint72 identityId, address sharesContractAddress) external onlyContracts {\n        profiles[identityId].sharesContractAddress = sharesContractAddress;\n    }\n\n    function getNodeAddress(uint72 identityId, uint8 hashFunctionId) external view returns (bytes32) {\n        return profiles[identityId].nodeAddresses[hashFunctionId];\n    }\n\n    function setNodeAddress(uint72 identityId, uint8 hashFunctionId) external onlyContracts {\n        profiles[identityId].nodeAddresses[hashFunctionId] = hashingProxy.callHashFunction(\n            hashFunctionId,\n            profiles[identityId].nodeId\n        );\n    }\n\n    function profileExists(uint72 identityId) external view returns (bool) {\n        return keccak256(profiles[identityId].nodeId) != keccak256(bytes(\"\"));\n    }\n\n    function nodeIdRegistered(bytes calldata nodeId) external view returns (bool) {\n        return nodeIdsList[nodeId];\n    }\n\n    function transferTokens(address receiver, uint96 amount) external onlyContracts {\n        tokenContract.transfer(receiver, amount);\n    }\n\n    function _checkHubOwner() internal view virtual {\n        require(msg.sender == hub.owner(), \"Fn can only be used by hub owner\");\n    }\n\n    function _checkHub() internal view virtual {\n        require(hub.isContract(msg.sender), \"Fn can only be called by the hub\");\n    }\n}\n",
  "sourcePath": "/Users/waving/Desktop/OriginTrail/dkg-evm-module/contracts/storage/ProfileStorage.sol",
  "compiler": {
    "name": "solc",
    "version": "0.8.16+commit.07a7930e.Emscripten.clang"
  },
  "schemaVersion": "3.4.10",
  "updatedAt": "2022-12-08T16:40:13.612Z",
  "devdoc": {
    "kind": "dev",
    "methods": {},
    "version": 1
  },
  "userdoc": {
    "kind": "user",
    "methods": {},
    "version": 1
  }
}