{
  "contractName": "Profile",
  "abi": [
    {
      "inputs": [
        {
          "internalType": "address",
          "name": "hubAddress",
          "type": "address"
        }
      ],
      "stateMutability": "nonpayable",
      "type": "constructor"
    },
    {
      "anonymous": false,
      "inputs": [
        {
          "indexed": true,
          "internalType": "uint72",
          "name": "identityId",
          "type": "uint72"
        },
        {
          "indexed": false,
          "internalType": "bytes",
          "name": "nodeId",
          "type": "bytes"
        },
        {
          "indexed": false,
          "internalType": "uint96",
          "name": "ask",
          "type": "uint96"
        }
      ],
      "name": "AskUpdated",
      "type": "event"
    },
    {
      "anonymous": false,
      "inputs": [
        {
          "indexed": true,
          "internalType": "uint72",
          "name": "identityId",
          "type": "uint72"
        },
        {
          "indexed": false,
          "internalType": "bytes",
          "name": "nodeId",
          "type": "bytes"
        }
      ],
      "name": "ProfileCreated",
      "type": "event"
    },
    {
      "anonymous": false,
      "inputs": [
        {
          "indexed": true,
          "internalType": "uint72",
          "name": "identityId",
          "type": "uint72"
        }
      ],
      "name": "ProfileDeleted",
      "type": "event"
    },
    {
      "inputs": [],
      "name": "hashingProxy",
      "outputs": [
        {
          "internalType": "contract HashingProxy",
          "name": "",
          "type": "address"
        }
      ],
      "stateMutability": "view",
      "type": "function"
    },
    {
      "inputs": [],
      "name": "hub",
      "outputs": [
        {
          "internalType": "contract Hub",
          "name": "",
          "type": "address"
        }
      ],
      "stateMutability": "view",
      "type": "function"
    },
    {
      "inputs": [],
      "name": "identityContract",
      "outputs": [
        {
          "internalType": "contract Identity",
          "name": "",
          "type": "address"
        }
      ],
      "stateMutability": "view",
      "type": "function"
    },
    {
      "inputs": [],
      "name": "identityStorage",
      "outputs": [
        {
          "internalType": "contract IdentityStorage",
          "name": "",
          "type": "address"
        }
      ],
      "stateMutability": "view",
      "type": "function"
    },
    {
      "inputs": [],
      "name": "parametersStorage",
      "outputs": [
        {
          "internalType": "contract ParametersStorage",
          "name": "",
          "type": "address"
        }
      ],
      "stateMutability": "view",
      "type": "function"
    },
    {
      "inputs": [],
      "name": "profileStorage",
      "outputs": [
        {
          "internalType": "contract ProfileStorage",
          "name": "",
          "type": "address"
        }
      ],
      "stateMutability": "view",
      "type": "function"
    },
    {
      "inputs": [],
      "name": "stakingContract",
      "outputs": [
        {
          "internalType": "contract Staking",
          "name": "",
          "type": "address"
        }
      ],
      "stateMutability": "view",
      "type": "function"
    },
    {
      "inputs": [],
      "name": "whitelistStorage",
      "outputs": [
        {
          "internalType": "contract WhitelistStorage",
          "name": "",
          "type": "address"
        }
      ],
      "stateMutability": "view",
      "type": "function"
    },
    {
      "inputs": [],
      "name": "initialize",
      "outputs": [],
      "stateMutability": "nonpayable",
      "type": "function"
    },
    {
      "inputs": [],
      "name": "name",
      "outputs": [
        {
          "internalType": "string",
          "name": "",
          "type": "string"
        }
      ],
      "stateMutability": "pure",
      "type": "function"
    },
    {
      "inputs": [],
      "name": "version",
      "outputs": [
        {
          "internalType": "string",
          "name": "",
          "type": "string"
        }
      ],
      "stateMutability": "pure",
      "type": "function"
    },
    {
      "inputs": [
        {
          "internalType": "address",
          "name": "adminWallet",
          "type": "address"
        },
        {
          "internalType": "bytes",
          "name": "nodeId",
          "type": "bytes"
        }
      ],
      "name": "createProfile",
      "outputs": [],
      "stateMutability": "nonpayable",
      "type": "function"
    },
    {
      "inputs": [
        {
          "internalType": "uint72",
          "name": "identityId",
          "type": "uint72"
        },
        {
          "internalType": "uint96",
          "name": "ask",
          "type": "uint96"
        }
      ],
      "name": "setAsk",
      "outputs": [],
      "stateMutability": "nonpayable",
      "type": "function"
    },
    {
      "inputs": [
        {
          "internalType": "uint72",
          "name": "identityId",
          "type": "uint72"
        }
      ],
      "name": "stakeAccumulatedOperatorFee",
      "outputs": [],
      "stateMutability": "nonpayable",
      "type": "function"
    },
    {
      "inputs": [
        {
          "internalType": "uint72",
          "name": "identityId",
          "type": "uint72"
        }
      ],
      "name": "startAccumulatedOperatorFeeWithdrawal",
      "outputs": [],
      "stateMutability": "nonpayable",
      "type": "function"
    },
    {
      "inputs": [
        {
          "internalType": "uint72",
          "name": "identityId",
          "type": "uint72"
        }
      ],
      "name": "withdrawAccumulatedOperatorFee",
      "outputs": [],
      "stateMutability": "nonpayable",
      "type": "function"
    }
  ],
  "bytecode": "0x60806040523480156200001157600080fd5b50604051620037183803806200371883398101604081905262000034916200052e565b6001600160a01b0381166200004857600080fd5b600080546001600160a01b0319166001600160a01b0383161790556200006d62000074565b5062000560565b6200007e6200044f565b600054604051630110ceef60e21b815260206004820152600c60248201526b48617368696e6750726f787960a01b60448201526001600160a01b03909116906304433bbc90606401602060405180830381865afa158015620000e4573d6000803e3d6000fd5b505050506040513d601f19601f820116820180604052508101906200010a91906200052e565b600180546001600160a01b0319166001600160a01b03928316179055600054604051630110ceef60e21b81526020600482015260086024820152674964656e7469747960c01b60448201529116906304433bbc90606401602060405180830381865afa1580156200017f573d6000803e3d6000fd5b505050506040513d601f19601f82011682018060405250810190620001a591906200052e565b600280546001600160a01b0319166001600160a01b03928316179055600054604051630110ceef60e21b81526020600482015260076024820152665374616b696e6760c81b60448201529116906304433bbc90606401602060405180830381865afa15801562000219573d6000803e3d6000fd5b505050506040513d601f19601f820116820180604052508101906200023f91906200052e565b600380546001600160a01b0319166001600160a01b03928316179055600054604051630110ceef60e21b815260206004820152600f60248201526e4964656e7469747953746f7261676560881b60448201529116906304433bbc90606401602060405180830381865afa158015620002bb573d6000803e3d6000fd5b505050506040513d601f19601f82011682018060405250810190620002e191906200052e565b600480546001600160a01b039283166001600160a01b0319909116178155600054604051630110ceef60e21b81529216916304433bbc916200034691016020808252600e908201526d50726f66696c6553746f7261676560901b604082015260600190565b602060405180830381865afa15801562000364573d6000803e3d6000fd5b505050506040513d601f19601f820116820180604052508101906200038a91906200052e565b600680546001600160a01b0319166001600160a01b03928316179055600054604051630110ceef60e21b815260206004820152601060248201526f57686974656c69737453746f7261676560801b60448201529116906304433bbc90606401602060405180830381865afa15801562000407573d6000803e3d6000fd5b505050506040513d601f19601f820116820180604052508101906200042d91906200052e565b600780546001600160a01b0319166001600160a01b0392909216919091179055565b60008054906101000a90046001600160a01b03166001600160a01b0316638da5cb5b6040518163ffffffff1660e01b8152600401602060405180830381865afa158015620004a1573d6000803e3d6000fd5b505050506040513d601f19601f82011682018060405250810190620004c791906200052e565b6001600160a01b0316336001600160a01b0316146200052c5760405162461bcd60e51b815260206004820181905260248201527f466e2063616e206f6e6c79206265207573656420627920687562206f776e6572604482015260640160405180910390fd5b565b6000602082840312156200054157600080fd5b81516001600160a01b03811681146200055957600080fd5b9392505050565b6131a880620005706000396000f3fe60806040523480156200001157600080fd5b5060043610620001155760003560e01c80638129fc1c11620000a3578063d184a869116200006e578063d184a8691462000258578063ee99205c146200026f578063f11abfd81462000283578063f42cb038146200029757600080fd5b80638129fc1c146200020c57806385404ed114620002165780639e2469ec146200022d578063a1e344d0146200024157600080fd5b8063365a86fc11620000e4578063365a86fc14620001ae57806354fd4d5014620001c2578063639a86a314620001e457806367031bae14620001f857600080fd5b8063051785f6146200011a57806306fdde03146200013357806311c94ee8146200016a57806328e8aae11462000197575b600080fd5b620001316200012b36600462001af3565b620002ab565b005b60408051808201909152600781526650726f66696c6560c81b60208201525b60405162000161919062001b6e565b60405180910390f35b6001546200017e906001600160a01b031681565b6040516001600160a01b03909116815260200162000161565b62000131620001a836600462001b99565b62000480565b6000546200017e906001600160a01b031681565b6040805180820190915260058152640312e302e360dc1b602082015262000152565b6005546200017e906001600160a01b031681565b6002546200017e906001600160a01b031681565b6200013162000855565b620001316200022736600462001af3565b62000c30565b6007546200017e906001600160a01b031681565b620001316200025236600462001af3565b62000eed565b620001316200026936600462001c3b565b620011fc565b6003546200017e906001600160a01b031681565b6004546200017e906001600160a01b031681565b6006546200017e906001600160a01b031681565b80620002b7816200138a565b600654604051636095a63b60e11b81526001600160481b03841660048201526001600160a01b0390911690600090829063c12b4c7690602401602060405180830381865afa1580156200030e573d6000803e3d6000fd5b505050506040513d601f19601f8201168201806040525081019062000334919062001c79565b9050806001600160601b0316600003620003915760405162461bcd60e51b8152602060048201526019602482015278596f752068617665206e6f206f70657261746f72206665657360381b60448201526064015b60405180910390fd5b6040516368751ff760e11b81526001600160481b0385166004820152600060248201526001600160a01b0383169063d0ea3fee90604401600060405180830381600087803b158015620003e357600080fd5b505af1158015620003f8573d6000803e3d6000fd5b50506003546040516309a35b7960e21b81523360048201526001600160481b03881660248201526001600160601b03851660448201526001600160a01b03909116925063268d6de491506064015b600060405180830381600087803b1580156200046157600080fd5b505af115801562000476573d6000803e3d6000fd5b5050505050505050565b6200048a6200148c565b6004805460065460405163010cf48d60e71b815233938101939093526001600160a01b0391821692911690829063867a468090602401602060405180830381865afa158015620004de573d6000803e3d6000fd5b505050506040513d601f19601f8201168201806040525081019062000504919062001c99565b6001600160481b0316156200055c5760405162461bcd60e51b815260206004820152601760248201527f4964656e7469747920616c726561647920657869737473000000000000000000604482015260640162000388565b6000839003620005a85760405162461bcd60e51b81526020600482015260166024820152754e6f64652049442063616e277420626520656d70747960501b604482015260640162000388565b6040516378153abf60e01b81526001600160a01b038216906378153abf90620005d8908790879060040162001ce2565b602060405180830381865afa158015620005f6573d6000803e3d6000fd5b505050506040513d601f19601f820116820180604052508101906200061c919062001cf8565b156200066b5760405162461bcd60e51b815260206004820152601d60248201527f4e6f646520494420697320616c72656164792072656769737465726564000000604482015260640162000388565b60025460405163d10e73ab60e01b81523360048201526001600160a01b038781166024830152600092169063d10e73ab906044016020604051808303816000875af1158015620006bf573d6000803e3d6000fd5b505050506040513d601f19601f82011682018060405250810190620006e5919062001c99565b90506000620006fd826001600160481b0316620015bd565b6000805460405192935090916001600160a01b03909116906200072590849060200162001d1c565b6040516020818303038152906040528360405160200162000747919062001d52565b604051602081830303815290604052604051620007649062001acf565b620007729392919062001d85565b604051809103906000f0801580156200078f573d6000803e3d6000fd5b5060405163dc827de960e01b81529091506001600160a01b0385169063dc827de990620007c79086908b908b90879060040162001dc9565b600060405180830381600087803b158015620007e257600080fd5b505af1158015620007f7573d6000803e3d6000fd5b505050506200080683620016de565b826001600160481b03167f1e1141aabf8a6876b928816de88db5e6ba4ba57cdb2f84229da1cc8e020d3e1c88886040516200084392919062001ce2565b60405180910390a25050505050505050565b6200085f6200181e565b600054604051630110ceef60e21b815260206004820152600c60248201526b48617368696e6750726f787960a01b60448201526001600160a01b03909116906304433bbc90606401602060405180830381865afa158015620008c5573d6000803e3d6000fd5b505050506040513d601f19601f82011682018060405250810190620008eb919062001e07565b600180546001600160a01b0319166001600160a01b03928316179055600054604051630110ceef60e21b81526020600482015260086024820152674964656e7469747960c01b60448201529116906304433bbc90606401602060405180830381865afa15801562000960573d6000803e3d6000fd5b505050506040513d601f19601f8201168201806040525081019062000986919062001e07565b600280546001600160a01b0319166001600160a01b03928316179055600054604051630110ceef60e21b81526020600482015260076024820152665374616b696e6760c81b60448201529116906304433bbc90606401602060405180830381865afa158015620009fa573d6000803e3d6000fd5b505050506040513d601f19601f8201168201806040525081019062000a20919062001e07565b600380546001600160a01b0319166001600160a01b03928316179055600054604051630110ceef60e21b815260206004820152600f60248201526e4964656e7469747953746f7261676560881b60448201529116906304433bbc90606401602060405180830381865afa15801562000a9c573d6000803e3d6000fd5b505050506040513d601f19601f8201168201806040525081019062000ac2919062001e07565b600480546001600160a01b039283166001600160a01b0319909116178155600054604051630110ceef60e21b81529216916304433bbc9162000b2791016020808252600e908201526d50726f66696c6553746f7261676560901b604082015260600190565b602060405180830381865afa15801562000b45573d6000803e3d6000fd5b505050506040513d601f19601f8201168201806040525081019062000b6b919062001e07565b600680546001600160a01b0319166001600160a01b03928316179055600054604051630110ceef60e21b815260206004820152601060248201526f57686974656c69737453746f7261676560801b60448201529116906304433bbc90606401602060405180830381865afa15801562000be8573d6000803e3d6000fd5b505050506040513d601f19601f8201168201806040525081019062000c0e919062001e07565b600780546001600160a01b0319166001600160a01b0392909216919091179055565b8062000c3c816200138a565b60065460405163e6c79da560e01b81526001600160481b03841660048201526001600160a01b0390911690600090829063e6c79da590602401602060405180830381865afa15801562000c93573d6000803e3d6000fd5b505050506040513d601f19601f8201168201806040525081019062000cb9919062001c79565b9050806001600160601b031660000362000d165760405162461bcd60e51b815260206004820181905260248201527f5769746864726177616c206861736e2774206265656e20726571756573746564604482015260640162000388565b604051631913cd5560e01b81526001600160481b038516600482015242906001600160a01b03841690631913cd5590602401602060405180830381865afa15801562000d66573d6000803e3d6000fd5b505050506040513d601f19601f8201168201806040525081019062000d8c919062001e27565b1062000ddb5760405162461bcd60e51b815260206004820152601e60248201527f5769746864726177616c20706572696f64206861736e277420656e6465640000604482015260640162000388565b60405163eb2145e360e01b81526001600160481b0385166004820152600060248201526001600160a01b0383169063eb2145e390604401600060405180830381600087803b15801562000e2d57600080fd5b505af115801562000e42573d6000803e3d6000fd5b50506040516315aaf86160e21b81526001600160481b0387166004820152600060248201526001600160a01b03851692506356abe1849150604401600060405180830381600087803b15801562000e9857600080fd5b505af115801562000ead573d6000803e3d6000fd5b505060405163abe979e160e01b81523360048201526001600160601b03841660248201526001600160a01b038516925063abe979e1915060440162000446565b8062000ef9816200138a565b600654604051636095a63b60e11b81526001600160481b03841660048201526001600160a01b0390911690600090829063c12b4c7690602401602060405180830381865afa15801562000f50573d6000803e3d6000fd5b505050506040513d601f19601f8201168201806040525081019062000f76919062001c79565b9050806001600160601b031660000362000fcf5760405162461bcd60e51b8152602060048201526019602482015278596f752068617665206e6f206f70657261746f72206665657360381b604482015260640162000388565b6040516368751ff760e11b81526001600160481b0385166004820152600060248201526001600160a01b0383169063d0ea3fee90604401600060405180830381600087803b1580156200102157600080fd5b505af115801562001036573d6000803e3d6000fd5b505060405163e6c79da560e01b81526001600160481b03871660048201526001600160a01b038516925063eb2145e3915086908490849063e6c79da590602401602060405180830381865afa15801562001094573d6000803e3d6000fd5b505050506040513d601f19601f82011682018060405250810190620010ba919062001c79565b620010c6919062001e57565b6040516001600160e01b031960e085901b1681526001600160481b0390921660048301526001600160601b03166024820152604401600060405180830381600087803b1580156200111657600080fd5b505af11580156200112b573d6000803e3d6000fd5b50505050816001600160a01b03166356abe18485600560009054906101000a90046001600160a01b03166001600160a01b031663151db1b96040518163ffffffff1660e01b8152600401602060405180830381865afa15801562001193573d6000803e3d6000fd5b505050506040513d601f19601f82011682018060405250810190620011b9919062001e81565b620011ca9062ffffff164262001ea8565b6040516001600160e01b031960e085901b1681526001600160481b039092166004830152602482015260440162000446565b816200120881620018fa565b816001600160601b0316600003620012555760405162461bcd60e51b815260206004820152600f60248201526e041736b2063616e6e6f74206265203608c1b604482015260640162000388565b60065460405163d184a86960e01b81526001600160481b03851660048201526001600160601b03841660248201526001600160a01b0390911690819063d184a86990604401600060405180830381600087803b158015620012b557600080fd5b505af1158015620012ca573d6000803e3d6000fd5b50506040516320e085cd60e11b81526001600160481b0387166004820181905292507f49030f1a1927583e71883baca5a4776a7878294f0f0e1e1788734a335d0dfe7f91506001600160a01b038416906341c10b9a90602401600060405180830381865afa15801562001341573d6000803e3d6000fd5b505050506040513d6000823e601f3d908101601f191682016040526200136b919081019062001f3a565b856040516200137c92919062001fd9565b60405180910390a250505050565b6004546040516001600160601b03193360601b1660208201526001600160a01b03909116906335e4fb7a90839060340160408051601f198184030181529082905280516020909101206001600160e01b031960e085901b1682526001600160481b039092166004820152602481019190915260016044820152606401602060405180830381865afa15801562001424573d6000803e3d6000fd5b505050506040513d601f19601f820116820180604052508101906200144a919062001cf8565b620014895760405162461bcd60e51b815260206004820152600e60248201526d20b236b4b710333ab731ba34b7b760911b604482015260640162000388565b50565b60075460408051635b0c29eb60e01b815290516001600160a01b03909216918291635b0c29eb9160048083019260209291908290030181865afa158015620014d8573d6000803e3d6000fd5b505050506040513d601f19601f82011682018060405250810190620014fe919062001cf8565b156200148957604051636c9b2a3f60e11b81523360048201526001600160a01b0382169063d936547e90602401602060405180830381865afa15801562001549573d6000803e3d6000fd5b505050506040513d601f19601f820116820180604052508101906200156f919062001cf8565b620014895760405162461bcd60e51b815260206004820152601960248201527f416464726573732069736e27742077686974656c697374656400000000000000604482015260640162000388565b606081600003620015e55750506040805180820190915260018152600360fc1b602082015290565b8160005b8115620016155780620015fc8162002006565b91506200160d9050600a8362002038565b9150620015e9565b60008167ffffffffffffffff81111562001633576200163362001ec4565b6040519080825280601f01601f1916602001820160405280156200165e576020820181803683370190505b5090505b8415620016d657620016766001836200204f565b915062001685600a8662002065565b6200169290603062001ea8565b60f81b818381518110620016aa57620016aa6200207c565b60200101906001600160f81b031916908160001a905350620016ce600a8662002038565b945062001662565b949350505050565b60065460015460408051635ac55ea360e11b815290516001600160a01b039384169390921691600091839163b58abd469160048082019286929091908290030181865afa15801562001734573d6000803e3d6000fd5b505050506040513d6000823e601f3d908101601f191682016040526200175e919081019062002092565b805190915060005b818160ff1610156200181657846001600160a01b03166368dae4fd87858460ff16815181106200179a576200179a6200207c565b6020908102919091010151516040516001600160e01b031960e085901b1681526001600160481b03909216600483015260ff166024820152604401600060405180830381600087803b158015620017f057600080fd5b505af115801562001805573d6000803e3d6000fd5b505060019092019150620017669050565b505050505050565b60008054906101000a90046001600160a01b03166001600160a01b0316638da5cb5b6040518163ffffffff1660e01b8152600401602060405180830381865afa15801562001870573d6000803e3d6000fd5b505050506040513d601f19601f8201168201806040525081019062001896919062001e07565b6001600160a01b0316336001600160a01b031614620018f85760405162461bcd60e51b815260206004820181905260248201527f466e2063616e206f6e6c79206265207573656420627920687562206f776e6572604482015260640162000388565b565b6004546040516001600160601b03193360601b1660208201526001600160a01b03909116906335e4fb7a90839060340160408051601f198184030181529082905280516020909101206001600160e01b031960e085901b1682526001600160481b039092166004820152602481019190915260016044820152606401602060405180830381865afa15801562001994573d6000803e3d6000fd5b505050506040513d601f19601f82011682018060405250810190620019ba919062001cf8565b8062001a8157506004546040516001600160601b03193360601b1660208201526001600160a01b03909116906335e4fb7a90839060340160408051601f198184030181529082905280516020909101206001600160e01b031960e085901b1682526001600160481b039092166004820152602481019190915260026044820152606401602060405180830381865afa15801562001a5b573d6000803e3d6000fd5b505050506040513d601f19601f8201168201806040525081019062001a81919062001cf8565b620014895760405162461bcd60e51b815260206004820152601f60248201527f466e2063616e2062652075736564206f6e6c79206279206964206f776e657200604482015260640162000388565b610fe8806200218b83390190565b6001600160481b03811681146200148957600080fd5b60006020828403121562001b0657600080fd5b813562001b138162001add565b9392505050565b60005b8381101562001b3757818101518382015260200162001b1d565b50506000910152565b6000815180845262001b5a81602086016020860162001b1a565b601f01601f19169290920160200192915050565b60208152600062001b13602083018462001b40565b6001600160a01b03811681146200148957600080fd5b60008060006040848603121562001baf57600080fd5b833562001bbc8162001b83565b9250602084013567ffffffffffffffff8082111562001bda57600080fd5b818601915086601f83011262001bef57600080fd5b81358181111562001bff57600080fd5b87602082850101111562001c1257600080fd5b6020830194508093505050509250925092565b6001600160601b03811681146200148957600080fd5b6000806040838503121562001c4f57600080fd5b823562001c5c8162001add565b9150602083013562001c6e8162001c25565b809150509250929050565b60006020828403121562001c8c57600080fd5b815162001b138162001c25565b60006020828403121562001cac57600080fd5b815162001b138162001add565b81835281816020850137506000828201602090810191909152601f909101601f19169091010190565b602081526000620016d660208301848662001cb9565b60006020828403121562001d0b57600080fd5b8151801515811462001b1357600080fd5b6b029b430b932903a37b5b2b7160a51b81526000825162001d4581600c85016020870162001b1a565b91909101600c0192915050565b68444b475354414b455f60b81b81526000825162001d7881600985016020870162001b1a565b9190910160090192915050565b6001600160a01b038416815260606020820181905260009062001dab9083018562001b40565b828103604084015262001dbf818562001b40565b9695505050505050565b6001600160481b038516815260606020820152600062001dee60608301858762001cb9565b905060018060a01b038316604083015295945050505050565b60006020828403121562001e1a57600080fd5b815162001b138162001b83565b60006020828403121562001e3a57600080fd5b5051919050565b634e487b7160e01b600052601160045260246000fd5b6001600160601b0381811683821601908082111562001e7a5762001e7a62001e41565b5092915050565b60006020828403121562001e9457600080fd5b815162ffffff8116811462001b1357600080fd5b8082018082111562001ebe5762001ebe62001e41565b92915050565b634e487b7160e01b600052604160045260246000fd5b6040805190810167ffffffffffffffff8111828210171562001f005762001f0062001ec4565b60405290565b604051601f8201601f1916810167ffffffffffffffff8111828210171562001f325762001f3262001ec4565b604052919050565b60006020828403121562001f4d57600080fd5b815167ffffffffffffffff8082111562001f6657600080fd5b818401915084601f83011262001f7b57600080fd5b81518181111562001f905762001f9062001ec4565b62001fa5601f8201601f191660200162001f06565b915080825285602082850101111562001fbd57600080fd5b62001fd081602084016020860162001b1a565b50949350505050565b60408152600062001fee604083018562001b40565b90506001600160601b03831660208301529392505050565b6000600182016200201b576200201b62001e41565b5060010190565b634e487b7160e01b600052601260045260246000fd5b6000826200204a576200204a62002022565b500490565b8181038181111562001ebe5762001ebe62001e41565b60008262002077576200207762002022565b500690565b634e487b7160e01b600052603260045260246000fd5b60006020808385031215620020a657600080fd5b825167ffffffffffffffff80821115620020bf57600080fd5b818501915085601f830112620020d457600080fd5b815181811115620020e957620020e962001ec4565b620020f9848260051b0162001f06565b818152848101925060069190911b8301840190878211156200211a57600080fd5b928401925b818410156200217f57604084890312156200213a5760008081fd5b6200214462001eda565b845160ff81168114620021575760008081fd5b815284860151620021688162001b83565b81870152835260409390930192918401916200211f565b97965050505050505056fe60806040523480156200001157600080fd5b5060405162000fe838038062000fe8833981016040819052620000349162000157565b8181600362000044838262000270565b50600462000053828262000270565b5050506001600160a01b0383166200006a57600080fd5b5050600580546001600160a01b0319166001600160a01b03929092169190911790556200033c565b634e487b7160e01b600052604160045260246000fd5b600082601f830112620000ba57600080fd5b81516001600160401b0380821115620000d757620000d762000092565b604051601f8301601f19908116603f0116810190828211818310171562000102576200010262000092565b816040528381526020925086838588010111156200011f57600080fd5b600091505b8382101562000143578582018301518183018401529082019062000124565b600093810190920192909252949350505050565b6000806000606084860312156200016d57600080fd5b83516001600160a01b03811681146200018557600080fd5b60208501519093506001600160401b0380821115620001a357600080fd5b620001b187838801620000a8565b93506040860151915080821115620001c857600080fd5b50620001d786828701620000a8565b9150509250925092565b600181811c90821680620001f657607f821691505b6020821081036200021757634e487b7160e01b600052602260045260246000fd5b50919050565b601f8211156200026b57600081815260208120601f850160051c81016020861015620002465750805b601f850160051c820191505b81811015620002675782815560010162000252565b5050505b505050565b81516001600160401b038111156200028c576200028c62000092565b620002a4816200029d8454620001e1565b846200021d565b602080601f831160018114620002dc5760008415620002c35750858301515b600019600386901b1c1916600185901b17855562000267565b600085815260208120601f198616915b828110156200030d57888601518255948401946001909101908401620002ec565b50858210156200032c5787850151600019600388901b60f8161c191681555b5050505050600190811b01905550565b610c9c806200034c6000396000f3fe608060405234801561001057600080fd5b50600436106100f55760003560e01c806340c10f191161009757806395d89b411161006657806395d89b4114610211578063a457c2d714610219578063a9059cbb1461022c578063dd62ed3e1461023f57600080fd5b806340c10f19146101ad57806342966c68146101c257806370a08231146101d557806379cc6790146101fe57600080fd5b806323b872dd116100d357806323b872dd1461014d578063313ce56714610160578063365a86fc1461016f578063395093511461019a57600080fd5b806306fdde03146100fa578063095ea7b31461011857806318160ddd1461013b575b600080fd5b610102610252565b60405161010f9190610a90565b60405180910390f35b61012b610126366004610afa565b6102e4565b604051901515815260200161010f565b6002545b60405190815260200161010f565b61012b61015b366004610b24565b6102fe565b6040516012815260200161010f565b600554610182906001600160a01b031681565b6040516001600160a01b03909116815260200161010f565b61012b6101a8366004610afa565b610322565b6101c06101bb366004610afa565b610344565b005b6101c06101d0366004610b60565b61035a565b61013f6101e3366004610b79565b6001600160a01b031660009081526020819052604090205490565b6101c061020c366004610afa565b610367565b61010261037c565b61012b610227366004610afa565b61038b565b61012b61023a366004610afa565b61040b565b61013f61024d366004610b9b565b610419565b60606003805461026190610bce565b80601f016020809104026020016040519081016040528092919081815260200182805461028d90610bce565b80156102da5780601f106102af576101008083540402835291602001916102da565b820191906000526020600020905b8154815290600101906020018083116102bd57829003601f168201915b5050505050905090565b6000336102f2818585610444565b60019150505b92915050565b60003361030c858285610569565b6103178585856105e3565b506001949350505050565b6000336102f28185856103358383610419565b61033f9190610c1e565b610444565b61034c6107b1565b610356828261086b565b5050565b610364338261094a565b50565b610372823383610569565b610356828261094a565b60606004805461026190610bce565b600033816103998286610419565b9050838110156103fe5760405162461bcd60e51b815260206004820152602560248201527f45524332303a2064656372656173656420616c6c6f77616e63652062656c6f77604482015264207a65726f60d81b60648201526084015b60405180910390fd5b6103178286868403610444565b6000336102f28185856105e3565b6001600160a01b03918216600090815260016020908152604080832093909416825291909152205490565b6001600160a01b0383166104a65760405162461bcd60e51b8152602060048201526024808201527f45524332303a20617070726f76652066726f6d20746865207a65726f206164646044820152637265737360e01b60648201526084016103f5565b6001600160a01b0382166105075760405162461bcd60e51b815260206004820152602260248201527f45524332303a20617070726f766520746f20746865207a65726f206164647265604482015261737360f01b60648201526084016103f5565b6001600160a01b0383811660008181526001602090815260408083209487168084529482529182902085905590518481527f8c5be1e5ebec7d5bd14f71427d1e84f3dd0314c0f7b2291e5b200ac8c7c3b92591015b60405180910390a3505050565b60006105758484610419565b905060001981146105dd57818110156105d05760405162461bcd60e51b815260206004820152601d60248201527f45524332303a20696e73756666696369656e7420616c6c6f77616e636500000060448201526064016103f5565b6105dd8484848403610444565b50505050565b6001600160a01b0383166106475760405162461bcd60e51b815260206004820152602560248201527f45524332303a207472616e736665722066726f6d20746865207a65726f206164604482015264647265737360d81b60648201526084016103f5565b6001600160a01b0382166106a95760405162461bcd60e51b815260206004820152602360248201527f45524332303a207472616e7366657220746f20746865207a65726f206164647260448201526265737360e81b60648201526084016103f5565b6001600160a01b038316600090815260208190526040902054818110156107215760405162461bcd60e51b815260206004820152602660248201527f45524332303a207472616e7366657220616d6f756e7420657863656564732062604482015265616c616e636560d01b60648201526084016103f5565b6001600160a01b03808516600090815260208190526040808220858503905591851681529081208054849290610758908490610c1e565b92505081905550826001600160a01b0316846001600160a01b03167fddf252ad1be2c89b69c2b068fc378daa952ba7f163c4a11628f55a4df523b3ef846040516107a491815260200190565b60405180910390a36105dd565b600554604051631627905560e01b81523360048201526001600160a01b0390911690631627905590602401602060405180830381865afa1580156107f9573d6000803e3d6000fd5b505050506040513d601f19601f8201168201806040525081019061081d9190610c31565b6108695760405162461bcd60e51b815260206004820181905260248201527f466e2063616e206f6e6c792062652063616c6c6564206279207468652068756260448201526064016103f5565b565b6001600160a01b0382166108c15760405162461bcd60e51b815260206004820152601f60248201527f45524332303a206d696e7420746f20746865207a65726f20616464726573730060448201526064016103f5565b80600260008282546108d39190610c1e565b90915550506001600160a01b03821660009081526020819052604081208054839290610900908490610c1e565b90915550506040518181526001600160a01b038316906000907fddf252ad1be2c89b69c2b068fc378daa952ba7f163c4a11628f55a4df523b3ef9060200160405180910390a35050565b6001600160a01b0382166109aa5760405162461bcd60e51b815260206004820152602160248201527f45524332303a206275726e2066726f6d20746865207a65726f206164647265736044820152607360f81b60648201526084016103f5565b6001600160a01b03821660009081526020819052604090205481811015610a1e5760405162461bcd60e51b815260206004820152602260248201527f45524332303a206275726e20616d6f756e7420657863656564732062616c616e604482015261636560f01b60648201526084016103f5565b6001600160a01b0383166000908152602081905260408120838303905560028054849290610a4d908490610c53565b90915550506040518281526000906001600160a01b038516907fddf252ad1be2c89b69c2b068fc378daa952ba7f163c4a11628f55a4df523b3ef9060200161055c565b600060208083528351808285015260005b81811015610abd57858101830151858201604001528201610aa1565b506000604082860101526040601f19601f8301168501019250505092915050565b80356001600160a01b0381168114610af557600080fd5b919050565b60008060408385031215610b0d57600080fd5b610b1683610ade565b946020939093013593505050565b600080600060608486031215610b3957600080fd5b610b4284610ade565b9250610b5060208501610ade565b9150604084013590509250925092565b600060208284031215610b7257600080fd5b5035919050565b600060208284031215610b8b57600080fd5b610b9482610ade565b9392505050565b60008060408385031215610bae57600080fd5b610bb783610ade565b9150610bc560208401610ade565b90509250929050565b600181811c90821680610be257607f821691505b602082108103610c0257634e487b7160e01b600052602260045260246000fd5b50919050565b634e487b7160e01b600052601160045260246000fd5b808201808211156102f8576102f8610c08565b600060208284031215610c4357600080fd5b81518015158114610b9457600080fd5b818103818111156102f8576102f8610c0856fea2646970667358221220130d5cdcc99f5ffa44e8150c9f429eb8cbc290c06bd8c1e1d19439930a32ebfb64736f6c63430008100033a2646970667358221220c31a3f0271f0c2ad26037ff12671b0d85a9f1e4b4c9235c10bddd0121a81bb2e64736f6c63430008100033",
  "immutableReferences": {},
  "source": "// SPDX-License-Identifier: MIT\n\npragma solidity ^0.8.4;\n\nimport { HashingProxy } from \"./HashingProxy.sol\";\nimport { Hub } from \"./Hub.sol\";\nimport { Identity } from \"./Identity.sol\";\nimport { Shares } from \"./Shares.sol\";\nimport { Staking } from \"./Staking.sol\";\nimport { IdentityStorage } from \"./storage/IdentityStorage.sol\";\nimport { ParametersStorage } from \"./storage/ParametersStorage.sol\";\nimport { ProfileStorage } from \"./storage/ProfileStorage.sol\";\nimport { WhitelistStorage } from \"./storage/WhitelistStorage.sol\";\nimport { Named } from \"./interface/Named.sol\";\nimport { Versioned } from \"./interface/Versioned.sol\";\nimport { UnorderedIndexableContractDynamicSetLib } from \"./utils/UnorderedIndexableContractDynamicSet.sol\";\nimport { ADMIN_KEY, OPERATIONAL_KEY } from \"./constants/IdentityConstants.sol\";\nimport { Strings } from \"@openzeppelin/contracts/utils/Strings.sol\";\n\ncontract Profile is Named, Versioned {\n\n    event ProfileCreated(uint72 indexed identityId, bytes nodeId);\n    event ProfileDeleted(uint72 indexed identityId);\n    event AskUpdated(uint72 indexed identityId, bytes nodeId, uint96 ask);\n\n    string constant private _NAME = \"Profile\";\n    string constant private _VERSION = \"1.0.0\";\n\n    Hub public hub;\n    HashingProxy public hashingProxy;\n    Identity public identityContract;\n    Staking public stakingContract;\n    IdentityStorage public identityStorage;\n    ParametersStorage public parametersStorage;\n    ProfileStorage public profileStorage;\n    WhitelistStorage public whitelistStorage;\n\n    constructor(address hubAddress) {\n        require(hubAddress != address(0));\n\n        hub = Hub(hubAddress);\n        initialize();\n    }\n\n    modifier onlyHubOwner() {\n\t\t_checkHubOwner();\n\t\t_;\n\t}\n\n    modifier onlyIdentityOwner(uint72 identityId) {\n        _checkIdentityOwner(identityId);\n        _;\n    }\n\n    modifier onlyAdmin(uint72 identityId) {\n        _checkAdmin(identityId);\n        _;\n    }\n\n    modifier onlyOperational(uint72 identityId) {\n        _checkOperational(identityId);\n        _;\n    }\n\n    modifier onlyWhitelisted() {\n        _checkWhitelist();\n        _;\n    }\n\n    function initialize() public onlyHubOwner {\n\t\thashingProxy = HashingProxy(hub.getContractAddress(\"HashingProxy\"));\n        identityContract = Identity(hub.getContractAddress(\"Identity\"));\n        stakingContract = Staking(hub.getContractAddress(\"Staking\"));\n        identityStorage = IdentityStorage(hub.getContractAddress(\"IdentityStorage\"));\n        profileStorage = ProfileStorage(hub.getContractAddress(\"ProfileStorage\"));\n        whitelistStorage = WhitelistStorage(hub.getContractAddress(\"WhitelistStorage\"));\n\t}\n\n    function name() external pure virtual override returns (string memory) {\n        return _NAME;\n    }\n\n    function version() external pure virtual override returns (string memory) {\n        return _VERSION;\n    }\n\n    function createProfile(address adminWallet, bytes calldata nodeId) external onlyWhitelisted {\n        IdentityStorage ids = identityStorage;\n        ProfileStorage ps = profileStorage;\n\n        require(ids.getIdentityId(msg.sender) == 0, \"Identity already exists\");\n        require(nodeId.length != 0, \"Node ID can't be empty\");\n        require(!ps.nodeIdRegistered(nodeId), \"Node ID is already registered\");\n\n        uint72 identityId = identityContract.createIdentity(msg.sender, adminWallet);\n\n        string memory identityIdString = Strings.toString(identityId);\n        Shares sharesContract = new Shares(\n            address(hub),\n            string.concat(\"Share token \", identityIdString),\n            string.concat(\"DKGSTAKE_\", identityIdString)\n        );\n\n        ps.createProfile(identityId, nodeId, address(sharesContract));\n        _setAvailableNodeAddresses(identityId);\n\n        emit ProfileCreated(identityId, nodeId);\n    }\n\n    function setAsk(uint72 identityId, uint96 ask) external onlyIdentityOwner(identityId) {\n        require(ask != 0, \"Ask cannot be 0\");\n        ProfileStorage ps = profileStorage;\n        ps.setAsk(identityId, ask);\n\n        emit AskUpdated(identityId, ps.getNodeId(identityId), ask);\n    }\n\n    // function deleteProfile(uint72 identityId) external onlyAdmin(identityId) {\n    //     // TODO: add checks\n    //     profileStorage.deleteProfile(identityId);\n    //     identityContract.deleteIdentity(identityId);\n    //\n    //     emit ProfileDeleted(identityId);\n    // }\n\n    // function changeNodeId(uint72 identityId, bytes calldata nodeId) external onlyOperational(identityId) {\n    //     require(nodeId.length != 0, \"Node ID can't be empty\");\n\n    //     profileStorage.setNodeId(identityId, nodeId);\n    // }\n\n    // function addNewNodeIdHash(uint72 identityId, uint8 hashFunctionId) external onlyOperational(identityId) {\n    //     require(hashingProxy.isHashFunction(hashFunctionId), \"Hash function doesn't exist\");\n\n    //     profileStorage.setNodeAddress(identityId, hashFunctionId);\n    // }\n\n    // TODO: Define where it can be called, change internal modifier\n    function _setAvailableNodeAddresses(uint72 identityId) internal {\n        ProfileStorage ps = profileStorage;\n        HashingProxy hp = hashingProxy;\n\n        UnorderedIndexableContractDynamicSetLib.Contract[] memory hashFunctions = hp.getAllHashFunctions();\n        uint256 hashFunctionsNumber = hashFunctions.length;\n        for (uint8 i; i < hashFunctionsNumber; ) {\n            ps.setNodeAddress(identityId, hashFunctions[i].id);\n            unchecked { i++; }\n        }\n    }\n\n    function stakeAccumulatedOperatorFee(uint72 identityId) external onlyAdmin(identityId) {\n        ProfileStorage ps = profileStorage;\n\n        uint96 accumulatedOperatorFee = ps.getAccumulatedOperatorFee(identityId);\n        require(accumulatedOperatorFee != 0, \"You have no operator fees\");\n\n        ps.setAccumulatedOperatorFee(identityId, 0);\n        stakingContract.addStake(msg.sender, identityId, accumulatedOperatorFee);\n    }\n\n    function startAccumulatedOperatorFeeWithdrawal(uint72 identityId) external onlyAdmin(identityId) {\n        ProfileStorage ps = profileStorage;\n\n        uint96 accumulatedOperatorFee = ps.getAccumulatedOperatorFee(identityId);\n\n        require(accumulatedOperatorFee != 0, \"You have no operator fees\");\n\n        ps.setAccumulatedOperatorFee(identityId, 0);\n        ps.setAccumulatedOperatorFeeWithdrawalAmount(\n            identityId,\n            ps.getAccumulatedOperatorFeeWithdrawalAmount(identityId) + accumulatedOperatorFee\n        );\n        ps.setAccumulatedOperatorFeeWithdrawalTimestamp(\n            identityId,\n            block.timestamp + parametersStorage.stakeWithdrawalDelay()\n        );\n    }\n\n    function withdrawAccumulatedOperatorFee(uint72 identityId) external onlyAdmin(identityId) {\n        ProfileStorage ps = profileStorage;\n\n        uint96 withdrawalAmount = ps.getAccumulatedOperatorFeeWithdrawalAmount(identityId);\n\n        require(withdrawalAmount != 0, \"Withdrawal hasn't been requested\");\n        require(\n            ps.getAccumulatedOperatorFeeWithdrawalTimestamp(identityId) < block.timestamp,\n            \"Withdrawal period hasn't ended\"\n        );\n\n        ps.setAccumulatedOperatorFeeWithdrawalAmount(identityId, 0);\n        ps.setAccumulatedOperatorFeeWithdrawalTimestamp(identityId, 0);\n        ps.transferTokens(msg.sender, withdrawalAmount);\n    }\n\n    function _checkHubOwner() internal view virtual {\n\t\trequire(msg.sender == hub.owner(), \"Fn can only be used by hub owner\");\n\t}\n\n    function _checkIdentityOwner(uint72 identityId) internal view virtual {\n        require(\n            identityStorage.keyHasPurpose(identityId, keccak256(abi.encodePacked(msg.sender)), ADMIN_KEY) ||\n            identityStorage.keyHasPurpose(identityId, keccak256(abi.encodePacked(msg.sender)), OPERATIONAL_KEY),\n            \"Fn can be used only by id owner\"\n        );\n    }\n\n    function _checkAdmin(uint72 identityId) internal view virtual {\n        require(\n            identityStorage.keyHasPurpose(identityId, keccak256(abi.encodePacked(msg.sender)), ADMIN_KEY),\n            \"Admin function\"\n        );\n    }\n\n    function _checkOperational(uint72 identityId) internal view virtual {\n        require(\n            identityStorage.keyHasPurpose(identityId, keccak256(abi.encodePacked(msg.sender)), OPERATIONAL_KEY),\n            \"Fn can be called only by oper.\"\n        );\n    }\n\n    function _checkWhitelist() internal view virtual {\n        WhitelistStorage ws = whitelistStorage;\n        if (ws.whitelistingEnabled()) {\n            require(ws.whitelisted(msg.sender), \"Address isn't whitelisted\");\n        }\n    }\n\n}\n",
  "sourcePath": "/Users/waving/Desktop/OriginTrail/dkg-evm-module/contracts/Profile.sol",
  "compiler": {
    "name": "solc",
    "version": "0.8.16+commit.07a7930e.Emscripten.clang"
  },
  "schemaVersion": "3.4.10",
  "updatedAt": "2022-12-05T17:33:42.940Z",
  "devdoc": {
    "kind": "dev",
    "methods": {},
    "version": 1
  },
  "userdoc": {
    "kind": "user",
    "methods": {},
    "version": 1
  }
}