{
  "contractName": "Profile",
  "abi": [
    {
      "inputs": [
        {
          "internalType": "address",
          "name": "hubAddress",
          "type": "address"
        }
      ],
      "stateMutability": "nonpayable",
      "type": "constructor"
    },
    {
      "anonymous": false,
      "inputs": [
        {
          "indexed": false,
          "internalType": "address",
          "name": "profile",
          "type": "address"
        },
        {
          "indexed": false,
          "internalType": "address",
          "name": "newIdentity",
          "type": "address"
        }
      ],
      "name": "IdentityCreated",
      "type": "event"
    },
    {
      "anonymous": false,
      "inputs": [
        {
          "indexed": false,
          "internalType": "bytes",
          "name": "nodeId",
          "type": "bytes"
        },
        {
          "indexed": false,
          "internalType": "address",
          "name": "oldIdentity",
          "type": "address"
        },
        {
          "indexed": false,
          "internalType": "address",
          "name": "newIdentity",
          "type": "address"
        }
      ],
      "name": "IdentityTransferred",
      "type": "event"
    },
    {
      "anonymous": false,
      "inputs": [
        {
          "indexed": false,
          "internalType": "address",
          "name": "profile",
          "type": "address"
        },
        {
          "indexed": false,
          "internalType": "uint256",
          "name": "initialBalance",
          "type": "uint256"
        }
      ],
      "name": "ProfileCreated",
      "type": "event"
    },
    {
      "anonymous": false,
      "inputs": [
        {
          "indexed": false,
          "internalType": "address",
          "name": "profile",
          "type": "address"
        },
        {
          "indexed": false,
          "internalType": "uint256",
          "name": "amount",
          "type": "uint256"
        }
      ],
      "name": "TokenDeposit",
      "type": "event"
    },
    {
      "anonymous": false,
      "inputs": [
        {
          "indexed": false,
          "internalType": "address",
          "name": "profile",
          "type": "address"
        }
      ],
      "name": "TokenWithdrawalCancelled",
      "type": "event"
    },
    {
      "anonymous": false,
      "inputs": [
        {
          "indexed": false,
          "internalType": "address",
          "name": "profile",
          "type": "address"
        },
        {
          "indexed": false,
          "internalType": "uint256",
          "name": "amountDeposited",
          "type": "uint256"
        },
        {
          "indexed": false,
          "internalType": "uint256",
          "name": "newBalance",
          "type": "uint256"
        }
      ],
      "name": "TokensDeposited",
      "type": "event"
    },
    {
      "anonymous": false,
      "inputs": [
        {
          "indexed": false,
          "internalType": "address",
          "name": "profile",
          "type": "address"
        },
        {
          "indexed": false,
          "internalType": "uint256",
          "name": "amount",
          "type": "uint256"
        }
      ],
      "name": "TokensReleased",
      "type": "event"
    },
    {
      "anonymous": false,
      "inputs": [
        {
          "indexed": false,
          "internalType": "address",
          "name": "profile",
          "type": "address"
        },
        {
          "indexed": false,
          "internalType": "uint256",
          "name": "amountReserved",
          "type": "uint256"
        }
      ],
      "name": "TokensReserved",
      "type": "event"
    },
    {
      "anonymous": false,
      "inputs": [
        {
          "indexed": false,
          "internalType": "address",
          "name": "sender",
          "type": "address"
        },
        {
          "indexed": false,
          "internalType": "address",
          "name": "receiver",
          "type": "address"
        },
        {
          "indexed": false,
          "internalType": "uint256",
          "name": "amount",
          "type": "uint256"
        }
      ],
      "name": "TokensTransferred",
      "type": "event"
    },
    {
      "anonymous": false,
      "inputs": [
        {
          "indexed": false,
          "internalType": "address",
          "name": "profile",
          "type": "address"
        },
        {
          "indexed": false,
          "internalType": "uint256",
          "name": "amountWithdrawn",
          "type": "uint256"
        },
        {
          "indexed": false,
          "internalType": "uint256",
          "name": "newBalance",
          "type": "uint256"
        }
      ],
      "name": "TokensWithdrawn",
      "type": "event"
    },
    {
      "anonymous": false,
      "inputs": [
        {
          "indexed": false,
          "internalType": "address",
          "name": "profile",
          "type": "address"
        },
        {
          "indexed": false,
          "internalType": "uint256",
          "name": "amount",
          "type": "uint256"
        },
        {
          "indexed": false,
          "internalType": "uint256",
          "name": "withdrawalDelayInSeconds",
          "type": "uint256"
        }
      ],
      "name": "WithdrawalInitiated",
      "type": "event"
    },
    {
      "inputs": [],
      "name": "hub",
      "outputs": [
        {
          "internalType": "contract Hub",
          "name": "",
          "type": "address"
        }
      ],
      "stateMutability": "view",
      "type": "function"
    },
    {
      "inputs": [],
      "name": "minimalStake",
      "outputs": [
        {
          "internalType": "uint256",
          "name": "",
          "type": "uint256"
        }
      ],
      "stateMutability": "view",
      "type": "function"
    },
    {
      "inputs": [],
      "name": "withdrawalTime",
      "outputs": [
        {
          "internalType": "uint256",
          "name": "",
          "type": "uint256"
        }
      ],
      "stateMutability": "view",
      "type": "function"
    },
    {
      "inputs": [
        {
          "internalType": "address",
          "name": "managementWallet",
          "type": "address"
        },
        {
          "internalType": "bytes",
          "name": "nodeId",
          "type": "bytes"
        },
        {
          "internalType": "uint256",
          "name": "initialAsk",
          "type": "uint256"
        },
        {
          "internalType": "uint256",
          "name": "initialBalance",
          "type": "uint256"
        },
        {
          "internalType": "address",
          "name": "identity",
          "type": "address"
        }
      ],
      "name": "createProfile",
      "outputs": [],
      "stateMutability": "nonpayable",
      "type": "function"
    },
    {
      "inputs": [
        {
          "internalType": "address",
          "name": "identity",
          "type": "address"
        },
        {
          "internalType": "uint256",
          "name": "amount",
          "type": "uint256"
        }
      ],
      "name": "depositTokens",
      "outputs": [],
      "stateMutability": "nonpayable",
      "type": "function"
    },
    {
      "inputs": [
        {
          "internalType": "address",
          "name": "identity",
          "type": "address"
        },
        {
          "internalType": "uint256",
          "name": "amount",
          "type": "uint256"
        }
      ],
      "name": "startTokenWithdrawal",
      "outputs": [],
      "stateMutability": "nonpayable",
      "type": "function"
    },
    {
      "inputs": [
        {
          "internalType": "address",
          "name": "identity",
          "type": "address"
        }
      ],
      "name": "withdrawTokens",
      "outputs": [],
      "stateMutability": "nonpayable",
      "type": "function"
    },
    {
      "inputs": [
        {
          "internalType": "address",
          "name": "profile",
          "type": "address"
        },
        {
          "internalType": "uint256",
          "name": "amount",
          "type": "uint256"
        }
      ],
      "name": "releaseTokens",
      "outputs": [],
      "stateMutability": "nonpayable",
      "type": "function"
    },
    {
      "inputs": [
        {
          "internalType": "address",
          "name": "sender",
          "type": "address"
        },
        {
          "internalType": "address",
          "name": "receiver",
          "type": "address"
        },
        {
          "internalType": "uint256",
          "name": "amount",
          "type": "uint256"
        }
      ],
      "name": "transferTokens",
      "outputs": [],
      "stateMutability": "nonpayable",
      "type": "function"
    },
    {
      "inputs": [
        {
          "internalType": "uint256",
          "name": "newWithdrawalTime",
          "type": "uint256"
        }
      ],
      "name": "setWithdrawalTime",
      "outputs": [],
      "stateMutability": "nonpayable",
      "type": "function"
    }
  ],
  "bytecode": "0x6080604052690a968163f0a57b40000060015561012c6002553480156200002557600080fd5b50604051620040163803806200401683398181016040528101906200004b919062000136565b600073ffffffffffffffffffffffffffffffffffffffff168173ffffffffffffffffffffffffffffffffffffffff16036200008557600080fd5b806000806101000a81548173ffffffffffffffffffffffffffffffffffffffff021916908373ffffffffffffffffffffffffffffffffffffffff1602179055505062000168565b600080fd5b600073ffffffffffffffffffffffffffffffffffffffff82169050919050565b6000620000fe82620000d1565b9050919050565b6200011081620000f1565b81146200011c57600080fd5b50565b600081519050620001308162000105565b92915050565b6000602082840312156200014f576200014e620000cc565b5b60006200015f848285016200011f565b91505092915050565b613e9e80620001786000396000f3fe608060405234801561001057600080fd5b506004361061009e5760003560e01c806384a467681161006657806384a46768146101335780639ec41a2d1461014f578063a64b6e5f1461016d578063b6af364314610189578063f40d71f1146101a55761009e565b806307ab5e84146100a3578063365a86fc146100bf578063389eb9f9146100dd57806349df728c146100fb57806366168bd714610117575b600080fd5b6100bd60048036038101906100b89190612b13565b6101c1565b005b6100c7610751565b6040516100d49190612bb2565b60405180910390f35b6100e5610775565b6040516100f29190612bdc565b60405180910390f35b61011560048036038101906101109190612bf7565b61077b565b005b610131600480360381019061012c9190612b13565b610f92565b005b61014d60048036038101906101489190612d6a565b611682565b005b610157611eee565b6040516101649190612bdc565b60405180910390f35b61018760048036038101906101829190612e01565b611ef4565b005b6101a3600480360381019061019e9190612e54565b612595565b005b6101bf60048036038101906101ba9190612b13565b6126a5565b005b8173ffffffffffffffffffffffffffffffffffffffff1663d202158d336040516020016101ee9190612ec9565b6040516020818303038152906040528051906020012060016040518363ffffffff1660e01b8152600401610223929190612f38565b602060405180830381865afa158015610240573d6000803e3d6000fd5b505050506040513d601f19601f820116820180604052508101906102649190612f99565b6102a3576040517f08c379a000000000000000000000000000000000000000000000000000000000815260040161029a90613049565b60405180910390fd5b60008060009054906101000a900473ffffffffffffffffffffffffffffffffffffffff1673ffffffffffffffffffffffffffffffffffffffff166304433bbc6040518163ffffffff1660e01b81526004016102fd906130b5565b602060405180830381865afa15801561031a573d6000803e3d6000fd5b505050506040513d601f19601f8201168201806040525081019061033e91906130ea565b9050600015158173ffffffffffffffffffffffffffffffffffffffff16632ba97595856040518263ffffffff1660e01b815260040161037d9190613126565b602060405180830381865afa15801561039a573d6000803e3d6000fd5b505050506040513d601f19601f820116820180604052508101906103be9190612f99565b151514610400576040517f08c379a00000000000000000000000000000000000000000000000000000000081526004016103f7906131b3565b60405180910390fd5b60008173ffffffffffffffffffffffffffffffffffffffff16635ffe0282856040518263ffffffff1660e01b815260040161043b9190613126565b602060405180830381865afa158015610458573d6000803e3d6000fd5b505050506040513d601f19601f8201168201806040525081019061047c91906131e8565b8273ffffffffffffffffffffffffffffffffffffffff16637a766460866040518263ffffffff1660e01b81526004016104b59190613126565b602060405180830381865afa1580156104d2573d6000803e3d6000fd5b505050506040513d601f19601f820116820180604052508101906104f691906131e8565b6105009190613244565b90508173ffffffffffffffffffffffffffffffffffffffff16639385067f8560016040518363ffffffff1660e01b815260040161053e929190613287565b600060405180830381600087803b15801561055857600080fd5b505af115801561056c573d6000803e3d6000fd5b505050508173ffffffffffffffffffffffffffffffffffffffff166367b6d271856002544261059b91906132b0565b6040518363ffffffff1660e01b81526004016105b8929190613306565b600060405180830381600087803b1580156105d257600080fd5b505af11580156105e6573d6000803e3d6000fd5b505050508281106106a0578173ffffffffffffffffffffffffffffffffffffffff166382aa292885856040518363ffffffff1660e01b815260040161062c929190613306565b600060405180830381600087803b15801561064657600080fd5b505af115801561065a573d6000803e3d6000fd5b505050507f31f69201fab7912e3ec9850e3ab705964bf46d9d4276bdcbb6d05e965e5f540184846002546040516106939392919061332f565b60405180910390a161074b565b8173ffffffffffffffffffffffffffffffffffffffff166382aa292885836040518363ffffffff1660e01b81526004016106db929190613306565b600060405180830381600087803b1580156106f557600080fd5b505af1158015610709573d6000803e3d6000fd5b505050507f31f69201fab7912e3ec9850e3ab705964bf46d9d4276bdcbb6d05e965e5f540184826002546040516107429392919061332f565b60405180910390a15b50505050565b60008054906101000a900473ffffffffffffffffffffffffffffffffffffffff1681565b60025481565b8073ffffffffffffffffffffffffffffffffffffffff1663d202158d336040516020016107a89190612ec9565b6040516020818303038152906040528051906020012060016040518363ffffffff1660e01b81526004016107dd929190612f38565b602060405180830381865afa1580156107fa573d6000803e3d6000fd5b505050506040513d601f19601f8201168201806040525081019061081e9190612f99565b61085d576040517f08c379a000000000000000000000000000000000000000000000000000000000815260040161085490613049565b60405180910390fd5b60008060009054906101000a900473ffffffffffffffffffffffffffffffffffffffff1673ffffffffffffffffffffffffffffffffffffffff166304433bbc6040518163ffffffff1660e01b81526004016108b7906130b5565b602060405180830381865afa1580156108d4573d6000803e3d6000fd5b505050506040513d601f19601f820116820180604052508101906108f891906130ea565b9050600115158173ffffffffffffffffffffffffffffffffffffffff16632ba97595846040518263ffffffff1660e01b81526004016109379190613126565b602060405180830381865afa158015610954573d6000803e3d6000fd5b505050506040513d601f19601f820116820180604052508101906109789190612f99565b1515146109ba576040517f08c379a00000000000000000000000000000000000000000000000000000000081526004016109b1906133d8565b60405180910390fd5b428173ffffffffffffffffffffffffffffffffffffffff16639344ea6e846040518263ffffffff1660e01b81526004016109f49190613126565b602060405180830381865afa158015610a11573d6000803e3d6000fd5b505050506040513d601f19601f82011682018060405250810190610a3591906131e8565b10610a75576040517f08c379a0000000000000000000000000000000000000000000000000000000008152600401610a6c9061346a565b60405180910390fd5b8073ffffffffffffffffffffffffffffffffffffffff1663bec3fa17338373ffffffffffffffffffffffffffffffffffffffff166356582bf9866040518263ffffffff1660e01b8152600401610acb9190613126565b602060405180830381865afa158015610ae8573d6000803e3d6000fd5b505050506040513d601f19601f82011682018060405250810190610b0c91906131e8565b6040518363ffffffff1660e01b8152600401610b29929190613306565b600060405180830381600087803b158015610b4357600080fd5b505af1158015610b57573d6000803e3d6000fd5b5050505060008173ffffffffffffffffffffffffffffffffffffffff16637a766460846040518263ffffffff1660e01b8152600401610b969190613126565b602060405180830381865afa158015610bb3573d6000803e3d6000fd5b505050506040513d601f19601f82011682018060405250810190610bd791906131e8565b905060008273ffffffffffffffffffffffffffffffffffffffff166356582bf9856040518263ffffffff1660e01b8152600401610c149190613126565b602060405180830381865afa158015610c31573d6000803e3d6000fd5b505050506040513d601f19601f82011682018060405250810190610c5591906131e8565b82610c609190613244565b90508273ffffffffffffffffffffffffffffffffffffffff1663bd3cd52585836040518363ffffffff1660e01b8152600401610c9d929190613306565b600060405180830381600087803b158015610cb757600080fd5b505af1158015610ccb573d6000803e3d6000fd5b505050508273ffffffffffffffffffffffffffffffffffffffff16639385067f8560006040518363ffffffff1660e01b8152600401610d0b929190613287565b600060405180830381600087803b158015610d2557600080fd5b505af1158015610d39573d6000803e3d6000fd5b505050506001548210158015610d50575060015481105b15610e5f5760008060009054906101000a900473ffffffffffffffffffffffffffffffffffffffff1673ffffffffffffffffffffffffffffffffffffffff166304433bbc6040518163ffffffff1660e01b8152600401610daf906134d6565b602060405180830381865afa158015610dcc573d6000803e3d6000fd5b505050506040513d601f19601f82011682018060405250810190610df091906130ea565b90508073ffffffffffffffffffffffffffffffffffffffff1663b2b99ec9866040518263ffffffff1660e01b8152600401610e2b9190613126565b600060405180830381600087803b158015610e4557600080fd5b505af1158015610e59573d6000803e3d6000fd5b50505050505b7fffe903c0abe6b2dbb2f3474ef43d7a3c1fca49e5a774453423ca8e1952aabffa848473ffffffffffffffffffffffffffffffffffffffff166356582bf9876040518263ffffffff1660e01b8152600401610eba9190613126565b602060405180830381865afa158015610ed7573d6000803e3d6000fd5b505050506040513d601f19601f82011682018060405250810190610efb91906131e8565b8573ffffffffffffffffffffffffffffffffffffffff16637a766460886040518263ffffffff1660e01b8152600401610f349190613126565b602060405180830381865afa158015610f51573d6000803e3d6000fd5b505050506040513d601f19601f82011682018060405250810190610f7591906131e8565b604051610f849392919061332f565b60405180910390a150505050565b8173ffffffffffffffffffffffffffffffffffffffff1663d202158d33604051602001610fbf9190612ec9565b6040516020818303038152906040528051906020012060016040518363ffffffff1660e01b8152600401610ff4929190612f38565b602060405180830381865afa158015611011573d6000803e3d6000fd5b505050506040513d601f19601f820116820180604052508101906110359190612f99565b611074576040517f08c379a000000000000000000000000000000000000000000000000000000000815260040161106b90613049565b60405180910390fd5b60008060009054906101000a900473ffffffffffffffffffffffffffffffffffffffff1673ffffffffffffffffffffffffffffffffffffffff166304433bbc6040518163ffffffff1660e01b81526004016110ce906130b5565b602060405180830381865afa1580156110eb573d6000803e3d6000fd5b505050506040513d601f19601f8201168201806040525081019061110f91906130ea565b905060008060009054906101000a900473ffffffffffffffffffffffffffffffffffffffff1673ffffffffffffffffffffffffffffffffffffffff166304433bbc6040518163ffffffff1660e01b815260040161116b90613542565b602060405180830381865afa158015611188573d6000803e3d6000fd5b505050506040513d601f19601f820116820180604052508101906111ac91906130ea565b9050828173ffffffffffffffffffffffffffffffffffffffff1663dd62ed3e33856040518363ffffffff1660e01b81526004016111ea929190613562565b602060405180830381865afa158015611207573d6000803e3d6000fd5b505050506040513d601f19601f8201168201806040525081019061122b91906131e8565b101561126c576040517f08c379a0000000000000000000000000000000000000000000000000000000008152600401611263906135fd565b60405180910390fd5b828173ffffffffffffffffffffffffffffffffffffffff166370a08231336040518263ffffffff1660e01b81526004016112a69190613126565b602060405180830381865afa1580156112c3573d6000803e3d6000fd5b505050506040513d601f19601f820116820180604052508101906112e791906131e8565b1015611328576040517f08c379a000000000000000000000000000000000000000000000000000000000815260040161131f9061368f565b60405180910390fd5b8073ffffffffffffffffffffffffffffffffffffffff166323b872dd3384866040518463ffffffff1660e01b8152600401611365939291906136af565b6020604051808303816000875af1158015611384573d6000803e3d6000fd5b505050506040513d601f19601f820116820180604052508101906113a89190612f99565b5060008273ffffffffffffffffffffffffffffffffffffffff16637a766460866040518263ffffffff1660e01b81526004016113e49190613126565b602060405180830381865afa158015611401573d6000803e3d6000fd5b505050506040513d601f19601f8201168201806040525081019061142591906131e8565b90506000848261143591906132b0565b90508373ffffffffffffffffffffffffffffffffffffffff1663bd3cd52587836040518363ffffffff1660e01b8152600401611472929190613306565b600060405180830381600087803b15801561148c57600080fd5b505af11580156114a0573d6000803e3d6000fd5b50505050600154821080156114b757506001548110155b156115c65760008060009054906101000a900473ffffffffffffffffffffffffffffffffffffffff1673ffffffffffffffffffffffffffffffffffffffff166304433bbc6040518163ffffffff1660e01b8152600401611516906134d6565b602060405180830381865afa158015611533573d6000803e3d6000fd5b505050506040513d601f19601f8201168201806040525081019061155791906130ea565b90508073ffffffffffffffffffffffffffffffffffffffff1663495a6ada886040518263ffffffff1660e01b81526004016115929190613126565b600060405180830381600087803b1580156115ac57600080fd5b505af11580156115c0573d6000803e3d6000fd5b50505050505b7ffdfdcf596161b0e81e3161597d46888dcc88bd83b22dcfb341c76377ca3bbc9e86868673ffffffffffffffffffffffffffffffffffffffff16637a7664608a6040518263ffffffff1660e01b81526004016116229190613126565b602060405180830381865afa15801561163f573d6000803e3d6000fd5b505050506040513d601f19601f8201168201806040525081019061166391906131e8565b6040516116729392919061332f565b60405180910390a1505050505050565b600073ffffffffffffffffffffffffffffffffffffffff168573ffffffffffffffffffffffffffffffffffffffff16036116f1576040517f08c379a00000000000000000000000000000000000000000000000000000000081526004016116e890613732565b60405180910390fd5b600073ffffffffffffffffffffffffffffffffffffffff168173ffffffffffffffffffffffffffffffffffffffff1603611760576040517f08c379a00000000000000000000000000000000000000000000000000000000081526004016117579061379e565b60405180910390fd5b60008060009054906101000a900473ffffffffffffffffffffffffffffffffffffffff1673ffffffffffffffffffffffffffffffffffffffff166304433bbc6040518163ffffffff1660e01b81526004016117ba90613542565b602060405180830381865afa1580156117d7573d6000803e3d6000fd5b505050506040513d601f19601f820116820180604052508101906117fb91906130ea565b9050828173ffffffffffffffffffffffffffffffffffffffff1663dd62ed3e33306040518363ffffffff1660e01b8152600401611839929190613562565b602060405180830381865afa158015611856573d6000803e3d6000fd5b505050506040513d601f19601f8201168201806040525081019061187a91906131e8565b10156118bb576040517f08c379a00000000000000000000000000000000000000000000000000000000081526004016118b290613830565b60405180910390fd5b828173ffffffffffffffffffffffffffffffffffffffff166370a08231336040518263ffffffff1660e01b81526004016118f59190613126565b602060405180830381865afa158015611912573d6000803e3d6000fd5b505050506040513d601f19601f8201168201806040525081019061193691906131e8565b1015611977576040517f08c379a000000000000000000000000000000000000000000000000000000000815260040161196e906138c2565b60405180910390fd5b60008551036119bb576040517f08c379a00000000000000000000000000000000000000000000000000000000081526004016119b290613954565b60405180910390fd5b60008060009054906101000a900473ffffffffffffffffffffffffffffffffffffffff1673ffffffffffffffffffffffffffffffffffffffff166304433bbc6040518163ffffffff1660e01b8152600401611a15906130b5565b602060405180830381865afa158015611a32573d6000803e3d6000fd5b505050506040513d601f19601f82011682018060405250810190611a5691906130ea565b905060008060009054906101000a900473ffffffffffffffffffffffffffffffffffffffff1673ffffffffffffffffffffffffffffffffffffffff166304433bbc6040518163ffffffff1660e01b8152600401611ab2906134d6565b602060405180830381865afa158015611acf573d6000803e3d6000fd5b505050506040513d601f19601f82011682018060405250810190611af391906130ea565b90508273ffffffffffffffffffffffffffffffffffffffff166323b872dd3360008054906101000a900473ffffffffffffffffffffffffffffffffffffffff1673ffffffffffffffffffffffffffffffffffffffff166304433bbc6040518163ffffffff1660e01b8152600401611b69906130b5565b602060405180830381865afa158015611b86573d6000803e3d6000fd5b505050506040513d601f19601f82011682018060405250810190611baa91906130ea565b886040518463ffffffff1660e01b8152600401611bc9939291906136af565b6020604051808303816000875af1158015611be8573d6000803e3d6000fd5b505050506040513d601f19601f82011682018060405250810190611c0c9190612f99565b508373ffffffffffffffffffffffffffffffffffffffff1663d202158d33604051602001611c3a9190612ec9565b6040516020818303038152906040528051906020012060026040518363ffffffff1660e01b8152600401611c6f9291906139af565b602060405180830381865afa158015611c8c573d6000803e3d6000fd5b505050506040513d601f19601f82011682018060405250810190611cb09190612f99565b611cef576040517f08c379a0000000000000000000000000000000000000000000000000000000008152600401611ce690613a4a565b60405180910390fd5b8173ffffffffffffffffffffffffffffffffffffffff1663bd3cd52585876040518363ffffffff1660e01b8152600401611d2a929190613306565b600060405180830381600087803b158015611d4457600080fd5b505af1158015611d58573d6000803e3d6000fd5b505050508173ffffffffffffffffffffffffffffffffffffffff1663de1e395d85886040518363ffffffff1660e01b8152600401611d97929190613306565b600060405180830381600087803b158015611db157600080fd5b505af1158015611dc5573d6000803e3d6000fd5b505050508173ffffffffffffffffffffffffffffffffffffffff1663adc4bd9885896040518363ffffffff1660e01b8152600401611e04929190613af2565b600060405180830381600087803b158015611e1e57600080fd5b505af1158015611e32573d6000803e3d6000fd5b505050506001548510611eab578073ffffffffffffffffffffffffffffffffffffffff1663495a6ada856040518263ffffffff1660e01b8152600401611e789190613126565b600060405180830381600087803b158015611e9257600080fd5b505af1158015611ea6573d6000803e3d6000fd5b505050505b7fcb939889322fed25104a5d8945bde5162563412a1fd718946cdcacb03088ea088486604051611edc929190613306565b60405180910390a15050505050505050565b60015481565b60008054906101000a900473ffffffffffffffffffffffffffffffffffffffff1673ffffffffffffffffffffffffffffffffffffffff166304433bbc6040518163ffffffff1660e01b8152600401611f4b90613b6e565b602060405180830381865afa158015611f68573d6000803e3d6000fd5b505050506040513d601f19601f82011682018060405250810190611f8c91906130ea565b73ffffffffffffffffffffffffffffffffffffffff163373ffffffffffffffffffffffffffffffffffffffff1614611ff9576040517f08c379a0000000000000000000000000000000000000000000000000000000008152600401611ff090613c00565b60405180910390fd5b600073ffffffffffffffffffffffffffffffffffffffff168373ffffffffffffffffffffffffffffffffffffffff16141580156120635750600073ffffffffffffffffffffffffffffffffffffffff168273ffffffffffffffffffffffffffffffffffffffff1614155b61206c57600080fd5b60008060009054906101000a900473ffffffffffffffffffffffffffffffffffffffff1673ffffffffffffffffffffffffffffffffffffffff166304433bbc6040518163ffffffff1660e01b81526004016120c6906130b5565b602060405180830381865afa1580156120e3573d6000803e3d6000fd5b505050506040513d601f19601f8201168201806040525081019061210791906130ea565b9050818173ffffffffffffffffffffffffffffffffffffffff16637a766460866040518263ffffffff1660e01b81526004016121439190613126565b602060405180830381865afa158015612160573d6000803e3d6000fd5b505050506040513d601f19601f8201168201806040525081019061218491906131e8565b10156121c5576040517f08c379a00000000000000000000000000000000000000000000000000000000081526004016121bc90613c92565b60405180910390fd5b818173ffffffffffffffffffffffffffffffffffffffff16635ffe0282866040518263ffffffff1660e01b81526004016121ff9190613126565b602060405180830381865afa15801561221c573d6000803e3d6000fd5b505050506040513d601f19601f8201168201806040525081019061224091906131e8565b1015612281576040517f08c379a000000000000000000000000000000000000000000000000000000000815260040161227890613d24565b60405180910390fd5b8073ffffffffffffffffffffffffffffffffffffffff166350c3ff5785848473ffffffffffffffffffffffffffffffffffffffff16635ffe0282896040518263ffffffff1660e01b81526004016122d89190613126565b602060405180830381865afa1580156122f5573d6000803e3d6000fd5b505050506040513d601f19601f8201168201806040525081019061231991906131e8565b6123239190613244565b6040518363ffffffff1660e01b8152600401612340929190613306565b600060405180830381600087803b15801561235a57600080fd5b505af115801561236e573d6000803e3d6000fd5b505050508073ffffffffffffffffffffffffffffffffffffffff1663bd3cd52585848473ffffffffffffffffffffffffffffffffffffffff16637a766460896040518263ffffffff1660e01b81526004016123c99190613126565b602060405180830381865afa1580156123e6573d6000803e3d6000fd5b505050506040513d601f19601f8201168201806040525081019061240a91906131e8565b6124149190613244565b6040518363ffffffff1660e01b8152600401612431929190613306565b600060405180830381600087803b15801561244b57600080fd5b505af115801561245f573d6000803e3d6000fd5b505050508073ffffffffffffffffffffffffffffffffffffffff1663bd3cd52584848473ffffffffffffffffffffffffffffffffffffffff16637a766460886040518263ffffffff1660e01b81526004016124ba9190613126565b602060405180830381865afa1580156124d7573d6000803e3d6000fd5b505050506040513d601f19601f820116820180604052508101906124fb91906131e8565b61250591906132b0565b6040518363ffffffff1660e01b8152600401612522929190613306565b600060405180830381600087803b15801561253c57600080fd5b505af1158015612550573d6000803e3d6000fd5b505050507f1b89874203ff7f0bba87c969ada3f32fda22ed38a6706d35199d21280c7811b1848484604051612587939291906136af565b60405180910390a150505050565b60008054906101000a900473ffffffffffffffffffffffffffffffffffffffff1673ffffffffffffffffffffffffffffffffffffffff16638da5cb5b6040518163ffffffff1660e01b8152600401602060405180830381865afa158015612600573d6000803e3d6000fd5b505050506040513d601f19601f8201168201806040525081019061262491906130ea565b73ffffffffffffffffffffffffffffffffffffffff163373ffffffffffffffffffffffffffffffffffffffff1614612691576040517f08c379a000000000000000000000000000000000000000000000000000000000815260040161268890613db6565b60405180910390fd5b80600254146126a257806002819055505b50565b60008054906101000a900473ffffffffffffffffffffffffffffffffffffffff1673ffffffffffffffffffffffffffffffffffffffff166304433bbc6040518163ffffffff1660e01b81526004016126fc90613b6e565b602060405180830381865afa158015612719573d6000803e3d6000fd5b505050506040513d601f19601f8201168201806040525081019061273d91906130ea565b73ffffffffffffffffffffffffffffffffffffffff163373ffffffffffffffffffffffffffffffffffffffff16146127aa576040517f08c379a00000000000000000000000000000000000000000000000000000000081526004016127a190613c00565b60405180910390fd5b600073ffffffffffffffffffffffffffffffffffffffff168273ffffffffffffffffffffffffffffffffffffffff16036127e357600080fd5b60008060009054906101000a900473ffffffffffffffffffffffffffffffffffffffff1673ffffffffffffffffffffffffffffffffffffffff166304433bbc6040518163ffffffff1660e01b815260040161283d906130b5565b602060405180830381865afa15801561285a573d6000803e3d6000fd5b505050506040513d601f19601f8201168201806040525081019061287e91906130ea565b9050818173ffffffffffffffffffffffffffffffffffffffff16635ffe0282856040518263ffffffff1660e01b81526004016128ba9190613126565b602060405180830381865afa1580156128d7573d6000803e3d6000fd5b505050506040513d601f19601f820116820180604052508101906128fb91906131e8565b101561293c576040517f08c379a000000000000000000000000000000000000000000000000000000000815260040161293390613e48565b60405180910390fd5b8073ffffffffffffffffffffffffffffffffffffffff166350c3ff5784848473ffffffffffffffffffffffffffffffffffffffff16635ffe0282886040518263ffffffff1660e01b81526004016129939190613126565b602060405180830381865afa1580156129b0573d6000803e3d6000fd5b505050506040513d601f19601f820116820180604052508101906129d491906131e8565b6129de9190613244565b6040518363ffffffff1660e01b81526004016129fb929190613306565b600060405180830381600087803b158015612a1557600080fd5b505af1158015612a29573d6000803e3d6000fd5b505050507fc7798891864187665ac6dd119286e44ec13f014527aeeb2b8eb3fd413df931798383604051612a5e929190613306565b60405180910390a1505050565b6000604051905090565b600080fd5b600080fd5b600073ffffffffffffffffffffffffffffffffffffffff82169050919050565b6000612aaa82612a7f565b9050919050565b612aba81612a9f565b8114612ac557600080fd5b50565b600081359050612ad781612ab1565b92915050565b6000819050919050565b612af081612add565b8114612afb57600080fd5b50565b600081359050612b0d81612ae7565b92915050565b60008060408385031215612b2a57612b29612a75565b5b6000612b3885828601612ac8565b9250506020612b4985828601612afe565b9150509250929050565b6000819050919050565b6000612b78612b73612b6e84612a7f565b612b53565b612a7f565b9050919050565b6000612b8a82612b5d565b9050919050565b6000612b9c82612b7f565b9050919050565b612bac81612b91565b82525050565b6000602082019050612bc76000830184612ba3565b92915050565b612bd681612add565b82525050565b6000602082019050612bf16000830184612bcd565b92915050565b600060208284031215612c0d57612c0c612a75565b5b6000612c1b84828501612ac8565b91505092915050565b600080fd5b600080fd5b6000601f19601f8301169050919050565b7f4e487b7100000000000000000000000000000000000000000000000000000000600052604160045260246000fd5b612c7782612c2e565b810181811067ffffffffffffffff82111715612c9657612c95612c3f565b5b80604052505050565b6000612ca9612a6b565b9050612cb58282612c6e565b919050565b600067ffffffffffffffff821115612cd557612cd4612c3f565b5b612cde82612c2e565b9050602081019050919050565b82818337600083830152505050565b6000612d0d612d0884612cba565b612c9f565b905082815260208101848484011115612d2957612d28612c29565b5b612d34848285612ceb565b509392505050565b600082601f830112612d5157612d50612c24565b5b8135612d61848260208601612cfa565b91505092915050565b600080600080600060a08688031215612d8657612d85612a75565b5b6000612d9488828901612ac8565b955050602086013567ffffffffffffffff811115612db557612db4612a7a565b5b612dc188828901612d3c565b9450506040612dd288828901612afe565b9350506060612de388828901612afe565b9250506080612df488828901612ac8565b9150509295509295909350565b600080600060608486031215612e1a57612e19612a75565b5b6000612e2886828701612ac8565b9350506020612e3986828701612ac8565b9250506040612e4a86828701612afe565b9150509250925092565b600060208284031215612e6a57612e69612a75565b5b6000612e7884828501612afe565b91505092915050565b60008160601b9050919050565b6000612e9982612e81565b9050919050565b6000612eab82612e8e565b9050919050565b612ec3612ebe82612a9f565b612ea0565b82525050565b6000612ed58284612eb2565b60148201915081905092915050565b6000819050919050565b612ef781612ee4565b82525050565b6000819050919050565b6000612f22612f1d612f1884612efd565b612b53565b612add565b9050919050565b612f3281612f07565b82525050565b6000604082019050612f4d6000830185612eee565b612f5a6020830184612f29565b9392505050565b60008115159050919050565b612f7681612f61565b8114612f8157600080fd5b50565b600081519050612f9381612f6d565b92915050565b600060208284031215612faf57612fae612a75565b5b6000612fbd84828501612f84565b91505092915050565b600082825260208201905092915050565b7f53656e64657220646f6573206e6f742068617665206d616e6167656d656e742060008201527f7065726d697373696f6e20666f72206964656e74697479210000000000000000602082015250565b6000613033603883612fc6565b915061303e82612fd7565b604082019050919050565b6000602082019050818103600083015261306281613026565b9050919050565b7f50726f66696c6553746f72616765000000000000000000000000000000000000600082015250565b600061309f600e83612fc6565b91506130aa82613069565b602082019050919050565b600060208201905081810360008301526130ce81613092565b9050919050565b6000815190506130e481612ab1565b92915050565b600060208284031215613100576130ff612a75565b5b600061310e848285016130d5565b91505092915050565b61312081612a9f565b82525050565b600060208201905061313b6000830184613117565b92915050565b7f576974687264726177616c2070726f6365737320616c72656164792070656e6460008201527f696e672100000000000000000000000000000000000000000000000000000000602082015250565b600061319d602483612fc6565b91506131a882613141565b604082019050919050565b600060208201905081810360008301526131cc81613190565b9050919050565b6000815190506131e281612ae7565b92915050565b6000602082840312156131fe576131fd612a75565b5b600061320c848285016131d3565b91505092915050565b7f4e487b7100000000000000000000000000000000000000000000000000000000600052601160045260246000fd5b600061324f82612add565b915061325a83612add565b92508282101561326d5761326c613215565b5b828203905092915050565b61328181612f61565b82525050565b600060408201905061329c6000830185613117565b6132a96020830184613278565b9392505050565b60006132bb82612add565b91506132c683612add565b9250827fffffffffffffffffffffffffffffffffffffffffffffffffffffffffffffffff038211156132fb576132fa613215565b5b828201905092915050565b600060408201905061331b6000830185613117565b6133286020830184612bcd565b9392505050565b60006060820190506133446000830186613117565b6133516020830185612bcd565b61335e6040830184612bcd565b949350505050565b7f43616e6e6f7420776974686472617720746f6b656e73206265666f726520737460008201527f617274696e6720746f6b656e207769746864726177616c210000000000000000602082015250565b60006133c2603883612fc6565b91506133cd82613366565b604082019050919050565b600060208201905081810360008301526133f1816133b5565b9050919050565b7f43616e6e6f7420776974686472617720746f6b656e73206265666f726520776960008201527f746864726177616c2074696d657374616d702100000000000000000000000000602082015250565b6000613454603383612fc6565b915061345f826133f8565b604082019050919050565b6000602082019050818103600083015261348381613447565b9050919050565b7f5368617264696e675461626c6500000000000000000000000000000000000000600082015250565b60006134c0600d83612fc6565b91506134cb8261348a565b602082019050919050565b600060208201905081810360008301526134ef816134b3565b9050919050565b7f546f6b656e000000000000000000000000000000000000000000000000000000600082015250565b600061352c600583612fc6565b9150613537826134f6565b602082019050919050565b6000602082019050818103600083015261355b8161351f565b9050919050565b60006040820190506135776000830185613117565b6135846020830184613117565b9392505050565b7f53656e64657220616c6c6f77616e6365206d75737420626520657175616c207460008201527f6f206f7220686967686572207468616e2063686f73656e20616d6f756e740000602082015250565b60006135e7603e83612fc6565b91506135f28261358b565b604082019050919050565b60006020820190508181036000830152613616816135da565b9050919050565b7f53656e6465722062616c616e6365206d75737420626520657175616c20746f2060008201527f6f7220686967686572207468616e2063686f73656e20616d6f756e7421000000602082015250565b6000613679603d83612fc6565b91506136848261361d565b604082019050919050565b600060208201905081810360008301526136a88161366c565b9050919050565b60006060820190506136c46000830186613117565b6136d16020830185613117565b6136de6040830184612bcd565b949350505050565b7f4d616e6167656d656e742077616c6c65742063616e2774206265203000000000600082015250565b600061371c601c83612fc6565b9150613727826136e6565b602082019050919050565b6000602082019050818103600083015261374b8161370f565b9050919050565b7f4964656e746974792063616e2774206265203000000000000000000000000000600082015250565b6000613788601383612fc6565b915061379382613752565b602082019050919050565b600060208201905081810360008301526137b78161377b565b9050919050565b7f53656e64657220616c6c6f77616e6365206d75737420626520657175616c207460008201527f6f206f7220686967686572207468616e20696e697469616c2062616c616e6365602082015250565b600061381a604083612fc6565b9150613825826137be565b604082019050919050565b600060208201905081810360008301526138498161380d565b9050919050565b7f53656e6465722062616c616e6365206d75737420626520657175616c20746f2060008201527f6f7220686967686572207468616e20696e697469616c2062616c616e63652100602082015250565b60006138ac603f83612fc6565b91506138b782613850565b604082019050919050565b600060208201905081810360008301526138db8161389f565b9050919050565b7f43616e6e6f742063726561746520612070726f66696c6520776974686f75742060008201527f61206e6f64654964207375626d69747465640000000000000000000000000000602082015250565b600061393e603283612fc6565b9150613949826138e2565b604082019050919050565b6000602082019050818103600083015261396d81613931565b9050919050565b6000819050919050565b600061399961399461398f84613974565b612b53565b612add565b9050919050565b6139a98161397e565b82525050565b60006040820190506139c46000830185612eee565b6139d160208301846139a0565b9392505050565b7f53656e64657220646f6573206e6f74206861766520616374696f6e207065726d60008201527f697373696f6e20666f72206964656e7469747921000000000000000000000000602082015250565b6000613a34603483612fc6565b9150613a3f826139d8565b604082019050919050565b60006020820190508181036000830152613a6381613a27565b9050919050565b600081519050919050565b600082825260208201905092915050565b60005b83811015613aa4578082015181840152602081019050613a89565b83811115613ab3576000848401525b50505050565b6000613ac482613a6a565b613ace8185613a75565b9350613ade818560208601613a86565b613ae781612c2e565b840191505092915050565b6000604082019050613b076000830185613117565b8181036020830152613b198184613ab9565b90509392505050565b7f486f6c64696e6700000000000000000000000000000000000000000000000000600082015250565b6000613b58600783612fc6565b9150613b6382613b22565b602082019050919050565b60006020820190508181036000830152613b8781613b4b565b9050919050565b7f46756e6374696f6e2063616e206f6e6c792062652063616c6c6564206279204860008201527f6f6c64696e6720636f6e74726163742100000000000000000000000000000000602082015250565b6000613bea603083612fc6565b9150613bf582613b8e565b604082019050919050565b60006020820190508181036000830152613c1981613bdd565b9050919050565b7f53656e64657220646f6573206e6f74206861766520656e6f75676820746f6b6560008201527f6e7320746f207472616e73666572210000000000000000000000000000000000602082015250565b6000613c7c602f83612fc6565b9150613c8782613c20565b604082019050919050565b60006020820190508181036000830152613cab81613c6f565b9050919050565b7f53656e64657220646f6573206e6f74206861766520656e6f75676820746f6b6560008201527f6e7320726573657276656420746f207472616e73666572210000000000000000602082015250565b6000613d0e603883612fc6565b9150613d1982613cb2565b604082019050919050565b60006020820190508181036000830152613d3d81613d01565b9050919050565b7f46756e6374696f6e2063616e206f6e6c792062652063616c6c6564206279206860008201527f7562206f776e6572210000000000000000000000000000000000000000000000602082015250565b6000613da0602983612fc6565b9150613dab82613d44565b604082019050919050565b60006020820190508181036000830152613dcf81613d93565b9050919050565b7f43616e6e6f742072656c65617365206d6f726520746f6b656e73207468616e2060008201527f7468657265206172652072657365727665640000000000000000000000000000602082015250565b6000613e32603283612fc6565b9150613e3d82613dd6565b604082019050919050565b60006020820190508181036000830152613e6181613e25565b905091905056fea2646970667358221220014e6d1bf80477e6de5e4ed645c95cfaa797476cfcbfd18a62e02adcb237316b64736f6c634300080e0033",
  "immutableReferences": {},
  "source": "// SPDX-License-Identifier: MIT\n\npragma solidity ^0.8.0;\n\nimport {ProfileStorage} from './storage/ProfileStorage.sol';\nimport {ShardingTable} from './ShardingTable.sol';\nimport {Ownable, Hub} from './Hub.sol';\nimport {Identity, ERC734} from './Identity.sol';\nimport \"@openzeppelin/contracts/token/ERC20/ERC20.sol\";\n\n\ncontract Profile {\n    Hub public hub;\n\n    uint256 public minimalStake = 5*10**22;\n    uint256 public withdrawalTime = 5 minutes;\n\n    constructor(address hubAddress) {\n        require(hubAddress != address(0));\n        hub = Hub(hubAddress);\n    }\n\n    modifier onlyHolding() {\n        require(\n            msg.sender == hub.getContractAddress(\"Holding\"),\n            \"Function can only be called by Holding contract!\"\n        );\n        _;\n    }\n\n    modifier onlyHubOwner() {\n        require (\n            msg.sender == hub.owner(),\n            \"Function can only be called by hub owner!\"\n        );\n        _;\n    }\n\n    event ProfileCreated(address profile, uint256 initialBalance);\n    event IdentityCreated(address profile, address newIdentity);\n    event IdentityTransferred(bytes nodeId, address oldIdentity, address newIdentity);\n    event TokenDeposit(address profile, uint256 amount);\n\n    event TokensDeposited(address profile, uint256 amountDeposited, uint256 newBalance);\n    event TokensReserved(address profile, uint256 amountReserved);\n\n    event WithdrawalInitiated(address profile, uint256 amount, uint256 withdrawalDelayInSeconds);\n    event TokenWithdrawalCancelled(address profile);\n    event TokensWithdrawn(address profile, uint256 amountWithdrawn, uint256 newBalance);\n\n    event TokensReleased(address profile, uint256 amount);\n    event TokensTransferred(address sender, address receiver, uint256 amount);\n\n    function createProfile(address managementWallet, bytes memory nodeId, uint256 initialAsk, uint256 initialBalance, address identity) public {\n        require(managementWallet != address(0), \"Management wallet can't be 0\");\n        require(identity != address(0), \"Identity can't be 0\");\n        ERC20 tokenContract = ERC20(hub.getContractAddress(\"Token\"));\n        require(tokenContract.allowance(msg.sender, address(this)) >= initialBalance, \"Sender allowance must be equal to or higher than initial balance\");\n        require(tokenContract.balanceOf(msg.sender) >= initialBalance, \"Sender balance must be equal to or higher than initial balance!\");\n        require(nodeId.length != 0, \"Cannot create a profile without a nodeId submitted\");\n\n        ProfileStorage profileStorage = ProfileStorage(hub.getContractAddress(\"ProfileStorage\"));\n        ShardingTable shardingTable = ShardingTable(hub.getContractAddress(\"ShardingTable\"));\n\n        tokenContract.transferFrom(msg.sender, hub.getContractAddress(\"ProfileStorage\"), initialBalance);\n        require(ERC734(identity).keyHasPurpose(keccak256(abi.encodePacked(msg.sender)), 2),  \"Sender does not have action permission for identity!\");\n\n        profileStorage.setStake(identity, initialBalance);\n        profileStorage.setAsk(identity, initialAsk);\n        profileStorage.setNodeId(identity, nodeId);\n\n        if (initialBalance >= minimalStake) {\n            shardingTable.pushBack(identity);\n        }\n\n        emit ProfileCreated(identity, initialBalance);\n    }\n\n    function depositTokens(address identity, uint256 amount) public {\n        require(ERC734(identity).keyHasPurpose(keccak256(abi.encodePacked(msg.sender)), 1),  \"Sender does not have management permission for identity!\");\n\n        ProfileStorage profileStorage = ProfileStorage(hub.getContractAddress(\"ProfileStorage\"));\n\n        ERC20 tokenContract = ERC20(hub.getContractAddress(\"Token\"));\n        require(tokenContract.allowance(msg.sender, address(profileStorage)) >= amount, \"Sender allowance must be equal to or higher than chosen amount\");\n        require(tokenContract.balanceOf(msg.sender) >= amount, \"Sender balance must be equal to or higher than chosen amount!\");\n\n        tokenContract.transferFrom(msg.sender, address(profileStorage), amount);\n\n        uint256 oldStake = profileStorage.getStake(identity);\n        uint256 newStake = oldStake + amount;\n        profileStorage.setStake(identity, newStake);\n\n        if (oldStake < minimalStake && newStake >= minimalStake) {\n            ShardingTable shardingTable = ShardingTable(hub.getContractAddress(\"ShardingTable\"));\n            shardingTable.pushBack(identity);\n        }\n\n        emit TokensDeposited(identity, amount, profileStorage.getStake(identity));\n    }\n\n    function startTokenWithdrawal(address identity, uint256 amount) public {\n        require(ERC734(identity).keyHasPurpose(keccak256(abi.encodePacked(msg.sender)), 1),  \"Sender does not have management permission for identity!\");\n\n        ProfileStorage profileStorage = ProfileStorage(hub.getContractAddress(\"ProfileStorage\"));\n\n        require(profileStorage.getWithdrawalPending(identity) == false, \"Withrdrawal process already pending!\");\n\n        uint256 availableBalance = profileStorage.getStake(identity) - (profileStorage.getStakeReserved(identity));\n\n        profileStorage.setWithdrawalPending(identity, true);\n        profileStorage.setWithdrawalTimestamp(identity, block.timestamp + withdrawalTime);\n        if(availableBalance >= amount) {\n            // Reserve chosen token amount\n            profileStorage.setWithdrawalAmount(identity, amount);\n            emit WithdrawalInitiated(identity, amount, withdrawalTime);\n        }\n        else {\n            // Reserve only the available balance\n            profileStorage.setWithdrawalAmount(identity, availableBalance);\n            emit WithdrawalInitiated(identity, availableBalance, withdrawalTime);\n        }\n    }\n\n    function withdrawTokens(address identity) public {\n        // Verify sender\n        require(ERC734(identity).keyHasPurpose(keccak256(abi.encodePacked(msg.sender)), 1),  \"Sender does not have management permission for identity!\");\n\n        ProfileStorage profileStorage = ProfileStorage(hub.getContractAddress(\"ProfileStorage\"));\n\n        require(profileStorage.getWithdrawalPending(identity) == true, \"Cannot withdraw tokens before starting token withdrawal!\");\n        require(profileStorage.getWithdrawalTimestamp(identity) < block.timestamp, \"Cannot withdraw tokens before withdrawal timestamp!\");\n\n        // Transfer already reserved tokens to user identity\n        profileStorage.transferTokens(msg.sender, profileStorage.getWithdrawalAmount(identity));\n\n        uint256 oldStake = profileStorage.getStake(identity);\n        uint256 newStake = oldStake - profileStorage.getWithdrawalAmount(identity);\n\n        profileStorage.setStake(identity, newStake);\n        profileStorage.setWithdrawalPending(identity, false);\n\n        if (oldStake >= minimalStake && newStake < minimalStake) {\n            ShardingTable shardingTable = ShardingTable(hub.getContractAddress(\"ShardingTable\"));\n            shardingTable.removeNode(identity);\n        }\n\n        emit TokensWithdrawn(\n            identity,\n            profileStorage.getWithdrawalAmount(identity),\n            profileStorage.getStake(identity)\n        );\n    }\n\n    function releaseTokens(address profile, uint256 amount)\n    public onlyHolding {\n        require(profile!=address(0));\n        ProfileStorage profileStorage = ProfileStorage(hub.getContractAddress(\"ProfileStorage\"));\n\n        require(profileStorage.getStakeReserved(profile) >= amount, \"Cannot release more tokens than there are reserved\");\n\n        profileStorage.setStakeReserved(profile, profileStorage.getStakeReserved(profile) - (amount));\n\n        emit TokensReleased(profile, amount);\n    }\n\n    function transferTokens(address sender, address receiver, uint256 amount)\n    public onlyHolding {\n        require(sender!=address(0) && receiver!=address(0));\n        ProfileStorage profileStorage = ProfileStorage(hub.getContractAddress(\"ProfileStorage\"));\n\n        require(profileStorage.getStake(sender) >= amount, \"Sender does not have enough tokens to transfer!\");\n        require(profileStorage.getStakeReserved(sender) >= amount, \"Sender does not have enough tokens reserved to transfer!\");\n\n        profileStorage.setStakeReserved(sender, profileStorage.getStakeReserved(sender) - (amount));\n        profileStorage.setStake(sender, profileStorage.getStake(sender) - (amount));\n        profileStorage.setStake(receiver, profileStorage.getStake(receiver) + (amount));\n\n        emit TokensTransferred(sender, receiver, amount);\n    }\n\n    function setWithdrawalTime(uint256 newWithdrawalTime)\n        public\n        onlyHubOwner\n    {\n        if(withdrawalTime != newWithdrawalTime) withdrawalTime = newWithdrawalTime;\n    }\n}\n",
  "sourcePath": "/Users/waving/Desktop/OriginTrail/dkg-evm-module/contracts/Profile.sol",
  "compiler": {
    "name": "solc",
    "version": "0.8.14+commit.80d49f37.Emscripten.clang"
  },
  "schemaVersion": "3.4.10",
  "updatedAt": "2022-11-02T12:03:50.073Z",
  "devdoc": {
    "kind": "dev",
    "methods": {},
    "version": 1
  },
  "userdoc": {
    "kind": "user",
    "methods": {},
    "version": 1
  }
}