{
  "contractName": "ScoringProxy",
  "abi": [
    {
      "anonymous": false,
      "inputs": [
        {
          "indexed": true,
          "internalType": "uint8",
          "name": "scoreFunctionId",
          "type": "uint8"
        },
        {
          "indexed": false,
          "internalType": "address",
          "name": "newContractAddress",
          "type": "address"
        }
      ],
      "name": "NewScoringFunctionContract",
      "type": "event"
    },
    {
      "anonymous": false,
      "inputs": [
        {
          "indexed": true,
          "internalType": "address",
          "name": "previousOwner",
          "type": "address"
        },
        {
          "indexed": true,
          "internalType": "address",
          "name": "newOwner",
          "type": "address"
        }
      ],
      "name": "OwnershipTransferred",
      "type": "event"
    },
    {
      "anonymous": false,
      "inputs": [
        {
          "indexed": true,
          "internalType": "uint8",
          "name": "scoreFunctionId",
          "type": "uint8"
        },
        {
          "indexed": false,
          "internalType": "address",
          "name": "newContractAddress",
          "type": "address"
        }
      ],
      "name": "ScoringFunctionContractUpdated",
      "type": "event"
    },
    {
      "inputs": [],
      "name": "owner",
      "outputs": [
        {
          "internalType": "address",
          "name": "",
          "type": "address"
        }
      ],
      "stateMutability": "view",
      "type": "function"
    },
    {
      "inputs": [],
      "name": "renounceOwnership",
      "outputs": [],
      "stateMutability": "nonpayable",
      "type": "function"
    },
    {
      "inputs": [
        {
          "internalType": "address",
          "name": "newOwner",
          "type": "address"
        }
      ],
      "name": "transferOwnership",
      "outputs": [],
      "stateMutability": "nonpayable",
      "type": "function"
    },
    {
      "inputs": [],
      "name": "name",
      "outputs": [
        {
          "internalType": "string",
          "name": "",
          "type": "string"
        }
      ],
      "stateMutability": "pure",
      "type": "function"
    },
    {
      "inputs": [],
      "name": "version",
      "outputs": [
        {
          "internalType": "string",
          "name": "",
          "type": "string"
        }
      ],
      "stateMutability": "pure",
      "type": "function"
    },
    {
      "inputs": [
        {
          "internalType": "uint8",
          "name": "scoreFunctionId",
          "type": "uint8"
        },
        {
          "internalType": "address",
          "name": "scoringContractAddress",
          "type": "address"
        }
      ],
      "name": "setContractAddress",
      "outputs": [],
      "stateMutability": "nonpayable",
      "type": "function"
    },
    {
      "inputs": [
        {
          "internalType": "uint8",
          "name": "scoreFunctionId",
          "type": "uint8"
        }
      ],
      "name": "removeContract",
      "outputs": [],
      "stateMutability": "nonpayable",
      "type": "function"
    },
    {
      "inputs": [
        {
          "internalType": "uint8",
          "name": "scoreFunctionId",
          "type": "uint8"
        },
        {
          "internalType": "uint8",
          "name": "hashFunctionId",
          "type": "uint8"
        },
        {
          "internalType": "bytes",
          "name": "nodeId",
          "type": "bytes"
        },
        {
          "internalType": "bytes",
          "name": "keyword",
          "type": "bytes"
        },
        {
          "internalType": "uint96",
          "name": "stake",
          "type": "uint96"
        }
      ],
      "name": "callScoreFunction",
      "outputs": [
        {
          "internalType": "uint40",
          "name": "",
          "type": "uint40"
        }
      ],
      "stateMutability": "nonpayable",
      "type": "function"
    },
    {
      "inputs": [
        {
          "internalType": "uint8",
          "name": "scoreFunctionId",
          "type": "uint8"
        }
      ],
      "name": "getScoreFunctionName",
      "outputs": [
        {
          "internalType": "string",
          "name": "",
          "type": "string"
        }
      ],
      "stateMutability": "view",
      "type": "function"
    },
    {
      "inputs": [
        {
          "internalType": "uint8",
          "name": "scoreFunctionId",
          "type": "uint8"
        }
      ],
      "name": "getScoreFunctionContractAddress",
      "outputs": [
        {
          "internalType": "address",
          "name": "",
          "type": "address"
        }
      ],
      "stateMutability": "view",
      "type": "function"
    },
    {
      "inputs": [],
      "name": "getAllScoreFunctions",
      "outputs": [
        {
          "components": [
            {
              "internalType": "uint8",
              "name": "id",
              "type": "uint8"
            },
            {
              "internalType": "address",
              "name": "addr",
              "type": "address"
            }
          ],
          "internalType": "struct UnorderedIndexableContractDynamicSetLib.Contract[]",
          "name": "",
          "type": "tuple[]"
        }
      ],
      "stateMutability": "view",
      "type": "function"
    },
    {
      "inputs": [
        {
          "internalType": "uint8",
          "name": "scoreFunctionId",
          "type": "uint8"
        }
      ],
      "name": "isScoreFunction",
      "outputs": [
        {
          "internalType": "bool",
          "name": "",
          "type": "bool"
        }
      ],
      "stateMutability": "view",
      "type": "function"
    }
  ],
  "bytecode": "0x608060405234801561001057600080fd5b5061001a3361001f565b61006f565b600080546001600160a01b038381166001600160a01b0319831681178455604051919092169283917f8be0079c531659141344cd1fd0a4f28419497f9722a3daafe3b4186f6b6457e09190a35050565b6110178061007e6000396000f3fe608060405234801561001057600080fd5b50600436106100b45760003560e01c80638b6602d8116100715780638b6602d8146101855780638da5cb5b14610198578063c413e5be146101a9578063e12e56a7146101bc578063eaf57a4e146101df578063f2fde38b146101f457600080fd5b806306fdde03146100b95780630b47a008146100f357806354fd4d501461011c578063588372aa1461013d578063715018a614610150578063893d3fc01461015a575b600080fd5b60408051808201909152600c81526b53636f72696e6750726f787960a01b60208201525b6040516100ea9190610b36565b60405180910390f35b610106610101366004610bc1565b610207565b60405164ffffffffff90911681526020016100ea565b6040805180820190915260058152640312e302e360dc1b60208201526100dd565b6100dd61014b366004610c7b565b610324565b6101586103a0565b005b61016d610168366004610c7b565b6103b4565b6040516001600160a01b0390911681526020016100ea565b610158610193366004610c7b565b6103cb565b6000546001600160a01b031661016d565b6101586101b7366004610cbb565b6103e1565b6101cf6101ca366004610c7b565b610497565b60405190151581526020016100ea565b6101e76104a4565b6040516100ea9190610cf0565b610158610202366004610d4b565b6104b5565b60008061021560018a610530565b6020015190506000816001600160a01b031663274e19628a8a8a8a8a6040518663ffffffff1660e01b8152600401610251959493929190610d8f565b6020604051808303816000875af1158015610270573d6000803e3d6000fd5b505050506040513d601f19601f820116820180604052508101906102949190610dcb565b60405163a0db80ad60e01b8152600481018290526bffffffffffffffffffffffff861660248201529091506001600160a01b0383169063a0db80ad906044016020604051808303816000875af11580156102f2573d6000803e3d6000fd5b505050506040513d601f19601f820116820180604052508101906103169190610de4565b9a9950505050505050505050565b6060610331600183610530565b602001516001600160a01b03166306fdde036040518163ffffffff1660e01b8152600401600060405180830381865afa158015610372573d6000803e3d6000fd5b505050506040513d6000823e601f3d908101601f1916820160405261039a9190810190610e21565b92915050565b6103a86105cf565b6103b26000610629565b565b60006103c1600183610530565b6020015192915050565b6103d36105cf565b6103de600182610679565b50565b6103e96105cf565b6103f4600183610821565b1561044a576040516001600160a01b038216815260ff8316907fe2dcdbd6453b0466368d1ccccaa259e2e0b98656fbd2067d8d42578850e7e63f9060200160405180910390a26104466001838361087e565b5050565b6040516001600160a01b038216815260ff8316907fc6cd47d9d457746d0ded074885432d127a1bb30a241fa26040bf0a4f43852b439060200160405180910390a26104466001838361092a565b600061039a600183610821565b60606104b06001610a9a565b905090565b6104bd6105cf565b6001600160a01b0381166105275760405162461bcd60e51b815260206004820152602660248201527f4f776e61626c653a206e6577206f776e657220697320746865207a65726f206160448201526564647265737360d01b60648201526084015b60405180910390fd5b6103de81610629565b604080518082019091526000808252602082015261054e8383610821565b61056a5760405162461bcd60e51b815260040161051e90610ece565b60ff8216600090815260208490526040902054600184018054909190811061059457610594610f2b565b60009182526020918290206040805180820190915291015460ff8116825261010090046001600160a01b031691810191909152905092915050565b6000546001600160a01b031633146103b25760405162461bcd60e51b815260206004820181905260248201527f4f776e61626c653a2063616c6c6572206973206e6f7420746865206f776e6572604482015260640161051e565b600080546001600160a01b038381166001600160a01b0319831681178455604051919092169283917f8be0079c531659141344cd1fd0a4f28419497f9722a3daafe3b4186f6b6457e09190a35050565b6106838282610821565b61069f5760405162461bcd60e51b815260040161051e90610ece565b60ff8116600090815260208390526040812054906001808501906106c4866001015490565b6106ce9190610f41565b815481106106de576106de610f2b565b60009182526020808320604080518082018252919093015460ff811682526001600160a01b0361010090910416818301819052835163af640d0f60e01b815293519195509263af640d0f9260048083019391928290030181865afa15801561074a573d6000803e3d6000fd5b505050506040513d601f19601f8201168201806040525081019061076e9190610f62565b60ff8116600090815260208790526040902084905560018601805491925083918590811061079e5761079e610f2b565b60009182526020808320845192018054948201516001600160a01b0316610100026001600160a81b031990951660ff938416179490941790935586168152908690526040812055600185018054806107f8576107f8610f7f565b600082815260209020810160001990810180546001600160a81b03191690550190555050505050565b600061082e836001015490565b60000361083d5750600061039a565b60ff8216600081815260208590526040902054600185018054909190811061086757610867610f2b565b60009182526020909120015460ff16149392505050565b6001600160a01b0381166108a45760405162461bcd60e51b815260040161051e90610f95565b6108ae8383610821565b6108ca5760405162461bcd60e51b815260040161051e90610ece565b60ff821660009081526020849052604090205460018401805483929081106108f4576108f4610f2b565b9060005260206000200160000160016101000a8154816001600160a01b0302191690836001600160a01b03160217905550505050565b8160ff166000036109895760405162461bcd60e51b8152602060048201526024808201527f28496e64657861626c65436f6e7472616374536574292049442063616e6f74206044820152630626520360e41b606482015260840161051e565b6001600160a01b0381166109af5760405162461bcd60e51b815260040161051e90610f95565b6109b98383610821565b15610a2c5760405162461bcd60e51b815260206004820152603c60248201527f28496e64657861626c65436f6e74726163745365742920436f6e74726163742060448201527f7769746820676976656e20494420616c72656164792065786973747300000000606482015260840161051e565b6001838101805460ff94851660008181526020978852604080822084905580518082019091529182526001600160a01b039586168289019081529483018455928352959091209451940180549151909216610100026001600160a81b03199091169390921692909217179055565b606081600101805480602002602001604051908101604052809291908181526020016000905b82821015610b07576000848152602090819020604080518082019091529084015460ff8116825261010090046001600160a01b031681830152825260019092019101610ac0565b505050509050919050565b60005b83811015610b2d578181015183820152602001610b15565b50506000910152565b6020815260008251806020840152610b55816040850160208701610b12565b601f01601f19169190910160400192915050565b60ff811681146103de57600080fd5b60008083601f840112610b8a57600080fd5b50813567ffffffffffffffff811115610ba257600080fd5b602083019150836020828501011115610bba57600080fd5b9250929050565b600080600080600080600060a0888a031215610bdc57600080fd5b8735610be781610b69565b96506020880135610bf781610b69565b9550604088013567ffffffffffffffff80821115610c1457600080fd5b610c208b838c01610b78565b909750955060608a0135915080821115610c3957600080fd5b50610c468a828b01610b78565b90945092505060808801356bffffffffffffffffffffffff81168114610c6b57600080fd5b8091505092959891949750929550565b600060208284031215610c8d57600080fd5b8135610c9881610b69565b9392505050565b80356001600160a01b0381168114610cb657600080fd5b919050565b60008060408385031215610cce57600080fd5b8235610cd981610b69565b9150610ce760208401610c9f565b90509250929050565b602080825282518282018190526000919060409081850190868401855b82811015610d3e578151805160ff1685528601516001600160a01b0316868501529284019290850190600101610d0d565b5091979650505050505050565b600060208284031215610d5d57600080fd5b610c9882610c9f565b81835281816020850137506000828201602090810191909152601f909101601f19169091010190565b60ff86168152606060208201526000610dac606083018688610d66565b8281036040840152610dbf818587610d66565b98975050505050505050565b600060208284031215610ddd57600080fd5b5051919050565b600060208284031215610df657600080fd5b815164ffffffffff81168114610c9857600080fd5b634e487b7160e01b600052604160045260246000fd5b600060208284031215610e3357600080fd5b815167ffffffffffffffff80821115610e4b57600080fd5b818401915084601f830112610e5f57600080fd5b815181811115610e7157610e71610e0b565b604051601f8201601f19908116603f01168101908382118183101715610e9957610e99610e0b565b81604052828152876020848701011115610eb257600080fd5b610ec3836020830160208801610b12565b979650505050505050565b6020808252603c908201527f28496e64657861626c65436f6e74726163745365742920436f6e74726163742060408201527f7769746820676976656e20494420646f65736e27742065786973747300000000606082015260800190565b634e487b7160e01b600052603260045260246000fd5b8181038181111561039a57634e487b7160e01b600052601160045260246000fd5b600060208284031215610f7457600080fd5b8151610c9881610b69565b634e487b7160e01b600052603160045260246000fd5b6020808252602c908201527f28496e64657861626c65436f6e7472616374536574292041646472657373206360408201526b0616e6e6f74206265203078360a41b60608201526080019056fea264697066735822122046ee4d66103ea3d4126b2fad1bceea4bcceb926604e680e37ae8f7a8cd86d68364736f6c63430008100033",
  "immutableReferences": {},
  "source": "// SPDX-License-Identifier: MIT\n\npragma solidity ^0.8.4;\n\nimport { IScoreFunction } from \"./interface/IScoreFunction.sol\";\nimport { Named } from \"./interface/Named.sol\";\nimport { Versioned } from \"./interface/Versioned.sol\";\nimport { UnorderedIndexableContractDynamicSetLib } from \"./utils/UnorderedIndexableContractDynamicSet.sol\";\nimport { Ownable } from \"@openzeppelin/contracts/access/Ownable.sol\";\n\ncontract ScoringProxy is Named, Versioned, Ownable {\n\n    using UnorderedIndexableContractDynamicSetLib for UnorderedIndexableContractDynamicSetLib.Set;\n\n    event NewScoringFunctionContract(uint8 indexed scoreFunctionId, address newContractAddress);\n    event ScoringFunctionContractUpdated(uint8 indexed scoreFunctionId, address newContractAddress);\n\n    string constant private _NAME = \"ScoringProxy\";\n    string constant private _VERSION = \"1.0.0\";\n\n    UnorderedIndexableContractDynamicSetLib.Set scoreFunctionSet;\n\n    function name() external pure virtual override returns (string memory) {\n        return _NAME;\n    }\n\n    function version() external pure virtual override returns (string memory) {\n        return _VERSION;\n    }\n\n    function setContractAddress(uint8 scoreFunctionId, address scoringContractAddress) external onlyOwner {\n        if (scoreFunctionSet.exists(scoreFunctionId)) {\n            emit ScoringFunctionContractUpdated(scoreFunctionId, scoringContractAddress);\n            scoreFunctionSet.update(scoreFunctionId, scoringContractAddress);\n        } else {\n            emit NewScoringFunctionContract(scoreFunctionId, scoringContractAddress);\n            scoreFunctionSet.append(scoreFunctionId, scoringContractAddress);\n        }\n    }\n\n    function removeContract(uint8 scoreFunctionId) external onlyOwner {\n        scoreFunctionSet.remove(scoreFunctionId);\n    }\n    \n    function callScoreFunction(\n        uint8 scoreFunctionId,\n        uint8 hashFunctionId,\n        bytes calldata nodeId,\n        bytes calldata keyword,\n        uint96 stake\n    )\n        external\n        returns (uint40)\n    {\n        IScoreFunction scoringFunction = IScoreFunction(scoreFunctionSet.get(scoreFunctionId).addr);\n        uint256 distance = scoringFunction.calculateDistance(hashFunctionId, nodeId, keyword);\n        return scoringFunction.calculateScore(distance, stake);\n    }\n\n    function getScoreFunctionName(uint8 scoreFunctionId) external view returns (string memory) {\n        return Named(scoreFunctionSet.get(scoreFunctionId).addr).name();\n    }\n\n    function getScoreFunctionContractAddress(uint8 scoreFunctionId) external view returns (address) {\n        return scoreFunctionSet.get(scoreFunctionId).addr;\n    }\n\n    function getAllScoreFunctions() external view returns (UnorderedIndexableContractDynamicSetLib.Contract[] memory) {\n        return scoreFunctionSet.getAll();\n    }\n\n    function isScoreFunction(uint8 scoreFunctionId) external view returns (bool) {\n        return scoreFunctionSet.exists(scoreFunctionId);\n    }\n\n}\n",
  "sourcePath": "/Users/waving/Desktop/OriginTrail/dkg-evm-module/contracts/ScoringProxy.sol",
  "compiler": {
    "name": "solc",
    "version": "0.8.16+commit.07a7930e.Emscripten.clang"
  },
  "schemaVersion": "3.4.10",
  "updatedAt": "2022-12-05T17:33:42.953Z",
  "devdoc": {
    "kind": "dev",
    "methods": {
      "owner()": {
        "details": "Returns the address of the current owner."
      },
      "renounceOwnership()": {
        "details": "Leaves the contract without owner. It will not be possible to call `onlyOwner` functions anymore. Can only be called by the current owner. NOTE: Renouncing ownership will leave the contract without an owner, thereby removing any functionality that is only available to the owner."
      },
      "transferOwnership(address)": {
        "details": "Transfers ownership of the contract to a new account (`newOwner`). Can only be called by the current owner."
      }
    },
    "version": 1
  },
  "userdoc": {
    "kind": "user",
    "methods": {},
    "version": 1
  }
}