{
  "contractName": "ScoringProxy",
  "abi": [
    {
      "anonymous": false,
      "inputs": [
        {
          "indexed": true,
          "internalType": "uint8",
          "name": "scoreFunctionId",
          "type": "uint8"
        },
        {
          "indexed": false,
          "internalType": "address",
          "name": "newContractAddress",
          "type": "address"
        }
      ],
      "name": "NewScoringFunctionContract",
      "type": "event"
    },
    {
      "anonymous": false,
      "inputs": [
        {
          "indexed": true,
          "internalType": "address",
          "name": "previousOwner",
          "type": "address"
        },
        {
          "indexed": true,
          "internalType": "address",
          "name": "newOwner",
          "type": "address"
        }
      ],
      "name": "OwnershipTransferred",
      "type": "event"
    },
    {
      "anonymous": false,
      "inputs": [
        {
          "indexed": true,
          "internalType": "uint8",
          "name": "scoreFunctionId",
          "type": "uint8"
        },
        {
          "indexed": false,
          "internalType": "address",
          "name": "newContractAddress",
          "type": "address"
        }
      ],
      "name": "ScoringFunctionContractUpdated",
      "type": "event"
    },
    {
      "inputs": [],
      "name": "owner",
      "outputs": [
        {
          "internalType": "address",
          "name": "",
          "type": "address"
        }
      ],
      "stateMutability": "view",
      "type": "function"
    },
    {
      "inputs": [],
      "name": "renounceOwnership",
      "outputs": [],
      "stateMutability": "nonpayable",
      "type": "function"
    },
    {
      "inputs": [
        {
          "internalType": "address",
          "name": "newOwner",
          "type": "address"
        }
      ],
      "name": "transferOwnership",
      "outputs": [],
      "stateMutability": "nonpayable",
      "type": "function"
    },
    {
      "inputs": [
        {
          "internalType": "uint8",
          "name": "scoreFunctionId",
          "type": "uint8"
        },
        {
          "internalType": "address",
          "name": "scoringContractAddress",
          "type": "address"
        }
      ],
      "name": "setContractAddress",
      "outputs": [],
      "stateMutability": "nonpayable",
      "type": "function"
    },
    {
      "inputs": [
        {
          "internalType": "uint8",
          "name": "scoreFunctionId",
          "type": "uint8"
        }
      ],
      "name": "removeContract",
      "outputs": [],
      "stateMutability": "nonpayable",
      "type": "function"
    },
    {
      "inputs": [
        {
          "internalType": "uint8",
          "name": "scoreFunctionId",
          "type": "uint8"
        },
        {
          "internalType": "uint8",
          "name": "hashFunctionId",
          "type": "uint8"
        },
        {
          "internalType": "bytes",
          "name": "nodeId",
          "type": "bytes"
        },
        {
          "internalType": "bytes",
          "name": "keyword",
          "type": "bytes"
        },
        {
          "internalType": "uint96",
          "name": "stake",
          "type": "uint96"
        }
      ],
      "name": "callScoreFunction",
      "outputs": [
        {
          "internalType": "uint40",
          "name": "",
          "type": "uint40"
        }
      ],
      "stateMutability": "nonpayable",
      "type": "function"
    },
    {
      "inputs": [
        {
          "internalType": "uint8",
          "name": "scoreFunctionId",
          "type": "uint8"
        }
      ],
      "name": "getScoreFunctionName",
      "outputs": [
        {
          "internalType": "string",
          "name": "",
          "type": "string"
        }
      ],
      "stateMutability": "view",
      "type": "function"
    },
    {
      "inputs": [
        {
          "internalType": "uint8",
          "name": "scoreFunctionId",
          "type": "uint8"
        }
      ],
      "name": "getScoreFunctionContractAddress",
      "outputs": [
        {
          "internalType": "address",
          "name": "",
          "type": "address"
        }
      ],
      "stateMutability": "view",
      "type": "function"
    },
    {
      "inputs": [],
      "name": "getAllScoreFunctions",
      "outputs": [
        {
          "components": [
            {
              "internalType": "uint8",
              "name": "id",
              "type": "uint8"
            },
            {
              "internalType": "address",
              "name": "addr",
              "type": "address"
            }
          ],
          "internalType": "struct UnorderedIndexableContractDynamicSetLib.Contract[]",
          "name": "",
          "type": "tuple[]"
        }
      ],
      "stateMutability": "view",
      "type": "function"
    },
    {
      "inputs": [
        {
          "internalType": "uint8",
          "name": "scoreFunctionId",
          "type": "uint8"
        }
      ],
      "name": "isScoreFunction",
      "outputs": [
        {
          "internalType": "bool",
          "name": "",
          "type": "bool"
        }
      ],
      "stateMutability": "view",
      "type": "function"
    }
  ],
  "bytecode": "0x608060405234801561001057600080fd5b5061001a3361001f565b61006f565b600080546001600160a01b038381166001600160a01b0319831681178455604051919092169283917f8be0079c531659141344cd1fd0a4f28419497f9722a3daafe3b4186f6b6457e09190a35050565b6114a68061007e6000396000f3fe608060405234801561001057600080fd5b50600436106100be5760003560e01c80638da5cb5b11610076578063e12e56a71161005b578063e12e56a714610197578063eaf57a4e146101ba578063f2fde38b146101cf57600080fd5b80638da5cb5b14610166578063c413e5be1461018457600080fd5b8063715018a6116100a7578063715018a614610111578063893d3fc01461011b5780638b6602d81461015357600080fd5b80630b47a008146100c3578063588372aa146100f1575b600080fd5b6100d66100d1366004610fb8565b6101e2565b60405164ffffffffff90911681526020015b60405180910390f35b6101046100ff366004611072565b610332565b6040516100e891906110c6565b6101196103d9565b005b61012e610129366004611072565b6103ed565b60405173ffffffffffffffffffffffffffffffffffffffff90911681526020016100e8565b610119610161366004611072565b610404565b60005473ffffffffffffffffffffffffffffffffffffffff1661012e565b610119610192366004611140565b61041a565b6101aa6101a5366004611072565b6104ea565b60405190151581526020016100e8565b6101c26104f7565b6040516100e89190611175565b6101196101dd3660046111dd565b610508565b6000806101f060018a6105c1565b60200151905060008173ffffffffffffffffffffffffffffffffffffffff1663274e19628a8a8a8a8a6040518663ffffffff1660e01b8152600401610239959493929190611241565b6020604051808303816000875af1158015610258573d6000803e3d6000fd5b505050506040513d601f19601f8201168201806040525081019061027c919061127d565b6040517fa0db80ad000000000000000000000000000000000000000000000000000000008152600481018290526bffffffffffffffffffffffff8616602482015290915073ffffffffffffffffffffffffffffffffffffffff83169063a0db80ad906044016020604051808303816000875af1158015610300573d6000803e3d6000fd5b505050506040513d601f19601f820116820180604052508101906103249190611296565b9a9950505050505050505050565b606061033f6001836105c1565b6020015173ffffffffffffffffffffffffffffffffffffffff166306fdde036040518163ffffffff1660e01b8152600401600060405180830381865afa15801561038d573d6000803e3d6000fd5b505050506040513d6000823e601f3d9081017fffffffffffffffffffffffffffffffffffffffffffffffffffffffffffffffe01682016040526103d391908101906112ec565b92915050565b6103e16106dd565b6103eb600061075e565b565b60006103fa6001836105c1565b6020015192915050565b61040c6106dd565b6104176001826107d3565b50565b6104226106dd565b61042d600183610a6c565b156104905760405173ffffffffffffffffffffffffffffffffffffffff8216815260ff8316907fe2dcdbd6453b0466368d1ccccaa259e2e0b98656fbd2067d8d42578850e7e63f9060200160405180910390a261048c60018383610ac9565b5050565b60405173ffffffffffffffffffffffffffffffffffffffff8216815260ff8316907fc6cd47d9d457746d0ded074885432d127a1bb30a241fa26040bf0a4f43852b439060200160405180910390a261048c60018383610c7c565b60006103d3600183610a6c565b60606105036001610edb565b905090565b6105106106dd565b73ffffffffffffffffffffffffffffffffffffffff81166105b8576040517f08c379a000000000000000000000000000000000000000000000000000000000815260206004820152602660248201527f4f776e61626c653a206e6577206f776e657220697320746865207a65726f206160448201527f646472657373000000000000000000000000000000000000000000000000000060648201526084015b60405180910390fd5b6104178161075e565b60408051808201909152600080825260208201526105df8383610a6c565b61066b576040517f08c379a000000000000000000000000000000000000000000000000000000000815260206004820152603c60248201527f28496e64657861626c65436f6e74726163745365742920436f6e74726163742060448201527f7769746820676976656e20494420646f65736e2774206578697374730000000060648201526084016105af565b60ff82166000908152602084905260409020546001840180549091908110610695576106956113b7565b60009182526020918290206040805180820190915291015460ff81168252610100900473ffffffffffffffffffffffffffffffffffffffff1691810191909152905092915050565b60005473ffffffffffffffffffffffffffffffffffffffff1633146103eb576040517f08c379a000000000000000000000000000000000000000000000000000000000815260206004820181905260248201527f4f776e61626c653a2063616c6c6572206973206e6f7420746865206f776e657260448201526064016105af565b6000805473ffffffffffffffffffffffffffffffffffffffff8381167fffffffffffffffffffffffff0000000000000000000000000000000000000000831681178455604051919092169283917f8be0079c531659141344cd1fd0a4f28419497f9722a3daafe3b4186f6b6457e09190a35050565b6107dd8282610a6c565b610869576040517f08c379a000000000000000000000000000000000000000000000000000000000815260206004820152603c60248201527f28496e64657861626c65436f6e74726163745365742920436f6e74726163742060448201527f7769746820676976656e20494420646f65736e2774206578697374730000000060648201526084016105af565b60ff81166000908152602083905260408120549060018085019061088e866001015490565b61089891906113e6565b815481106108a8576108a86113b7565b60009182526020808320604080518082018252919093015460ff8116825273ffffffffffffffffffffffffffffffffffffffff6101009091041681830181905283517faf640d0f00000000000000000000000000000000000000000000000000000000815293519195509263af640d0f9260048083019391928290030181865afa15801561093a573d6000803e3d6000fd5b505050506040513d601f19601f8201168201806040525081019061095e9190611424565b60ff8116600090815260208790526040902084905560018601805491925083918590811061098e5761098e6113b7565b600091825260208083208451920180549482015173ffffffffffffffffffffffffffffffffffffffff16610100027fffffffffffffffffffffff00000000000000000000000000000000000000000090951660ff93841617949094179093558616815290869052604081205560018501805480610a0d57610a0d611441565b60008281526020902081017fffffffffffffffffffffffffffffffffffffffffffffffffffffffffffffffff90810180547fffffffffffffffffffffff0000000000000000000000000000000000000000001690550190555050505050565b6000610a79836001015490565b600003610a88575060006103d3565b60ff82166000818152602085905260409020546001850180549091908110610ab257610ab26113b7565b60009182526020909120015460ff16149392505050565b73ffffffffffffffffffffffffffffffffffffffff8116610b6c576040517f08c379a000000000000000000000000000000000000000000000000000000000815260206004820152602c60248201527f28496e64657861626c65436f6e7472616374536574292041646472657373206360448201527f616e6e6f7420626520307830000000000000000000000000000000000000000060648201526084016105af565b610b768383610a6c565b610c02576040517f08c379a000000000000000000000000000000000000000000000000000000000815260206004820152603c60248201527f28496e64657861626c65436f6e74726163745365742920436f6e74726163742060448201527f7769746820676976656e20494420646f65736e2774206578697374730000000060648201526084016105af565b60ff82166000908152602084905260409020546001840180548392908110610c2c57610c2c6113b7565b9060005260206000200160000160016101000a81548173ffffffffffffffffffffffffffffffffffffffff021916908373ffffffffffffffffffffffffffffffffffffffff160217905550505050565b8160ff16600003610d0e576040517f08c379a0000000000000000000000000000000000000000000000000000000008152602060048201526024808201527f28496e64657861626c65436f6e7472616374536574292049442063616e6f742060448201527f626520300000000000000000000000000000000000000000000000000000000060648201526084016105af565b73ffffffffffffffffffffffffffffffffffffffff8116610db1576040517f08c379a000000000000000000000000000000000000000000000000000000000815260206004820152602c60248201527f28496e64657861626c65436f6e7472616374536574292041646472657373206360448201527f616e6e6f7420626520307830000000000000000000000000000000000000000060648201526084016105af565b610dbb8383610a6c565b15610e48576040517f08c379a000000000000000000000000000000000000000000000000000000000815260206004820152603c60248201527f28496e64657861626c65436f6e74726163745365742920436f6e74726163742060448201527f7769746820676976656e20494420616c7265616479206578697374730000000060648201526084016105af565b6001838101805460ff948516600081815260209788526040808220849055805180820190915291825273ffffffffffffffffffffffffffffffffffffffff9586168289019081529483018455928352959091209451940180549151909216610100027fffffffffffffffffffffff0000000000000000000000000000000000000000009091169390921692909217179055565b606081600101805480602002602001604051908101604052809291908181526020016000905b82821015610f55576000848152602090819020604080518082019091529084015460ff81168252610100900473ffffffffffffffffffffffffffffffffffffffff1681830152825260019092019101610f01565b505050509050919050565b60ff8116811461041757600080fd5b60008083601f840112610f8157600080fd5b50813567ffffffffffffffff811115610f9957600080fd5b602083019150836020828501011115610fb157600080fd5b9250929050565b600080600080600080600060a0888a031215610fd357600080fd5b8735610fde81610f60565b96506020880135610fee81610f60565b9550604088013567ffffffffffffffff8082111561100b57600080fd5b6110178b838c01610f6f565b909750955060608a013591508082111561103057600080fd5b5061103d8a828b01610f6f565b90945092505060808801356bffffffffffffffffffffffff8116811461106257600080fd5b8091505092959891949750929550565b60006020828403121561108457600080fd5b813561108f81610f60565b9392505050565b60005b838110156110b1578181015183820152602001611099565b838111156110c0576000848401525b50505050565b60208152600082518060208401526110e5816040850160208701611096565b601f017fffffffffffffffffffffffffffffffffffffffffffffffffffffffffffffffe0169190910160400192915050565b803573ffffffffffffffffffffffffffffffffffffffff8116811461113b57600080fd5b919050565b6000806040838503121561115357600080fd5b823561115e81610f60565b915061116c60208401611117565b90509250929050565b602080825282518282018190526000919060409081850190868401855b828110156111d0578151805160ff16855286015173ffffffffffffffffffffffffffffffffffffffff16868501529284019290850190600101611192565b5091979650505050505050565b6000602082840312156111ef57600080fd5b61108f82611117565b8183528181602085013750600060208284010152600060207fffffffffffffffffffffffffffffffffffffffffffffffffffffffffffffffe0601f840116840101905092915050565b60ff8616815260606020820152600061125e6060830186886111f8565b82810360408401526112718185876111f8565b98975050505050505050565b60006020828403121561128f57600080fd5b5051919050565b6000602082840312156112a857600080fd5b815164ffffffffff8116811461108f57600080fd5b7f4e487b7100000000000000000000000000000000000000000000000000000000600052604160045260246000fd5b6000602082840312156112fe57600080fd5b815167ffffffffffffffff8082111561131657600080fd5b818401915084601f83011261132a57600080fd5b81518181111561133c5761133c6112bd565b604051601f82017fffffffffffffffffffffffffffffffffffffffffffffffffffffffffffffffe0908116603f01168101908382118183101715611382576113826112bd565b8160405282815287602084870101111561139b57600080fd5b6113ac836020830160208801611096565b979650505050505050565b7f4e487b7100000000000000000000000000000000000000000000000000000000600052603260045260246000fd5b60008282101561141f577f4e487b7100000000000000000000000000000000000000000000000000000000600052601160045260246000fd5b500390565b60006020828403121561143657600080fd5b815161108f81610f60565b7f4e487b7100000000000000000000000000000000000000000000000000000000600052603160045260246000fdfea26469706673582212202e222d8c7f6d0733a66cade5b2d725650e71c7d38f90bd71db8d228c1d41800064736f6c634300080e0033",
  "immutableReferences": {},
  "source": "// SPDX-License-Identifier: MIT\n\npragma solidity ^0.8.0;\n\nimport { IScoreFunction } from \"./interface/IScoreFunction.sol\";\nimport { Named } from \"./interface/Named.sol\";\nimport { UnorderedIndexableContractDynamicSetLib } from \"./utils/UnorderedIndexableContractDynamicSet.sol\";\nimport { Ownable } from \"@openzeppelin/contracts/access/Ownable.sol\";\n\ncontract ScoringProxy is Ownable {\n\n    using UnorderedIndexableContractDynamicSetLib for UnorderedIndexableContractDynamicSetLib.Set;\n\n    event NewScoringFunctionContract(uint8 indexed scoreFunctionId, address newContractAddress);\n    event ScoringFunctionContractUpdated(uint8 indexed scoreFunctionId, address newContractAddress);\n\n    UnorderedIndexableContractDynamicSetLib.Set scoreFunctionSet;\n\n    function setContractAddress(uint8 scoreFunctionId, address scoringContractAddress) external onlyOwner {\n        if (scoreFunctionSet.exists(scoreFunctionId)) {\n            emit ScoringFunctionContractUpdated(scoreFunctionId, scoringContractAddress);\n            scoreFunctionSet.update(scoreFunctionId, scoringContractAddress);\n        } else {\n            emit NewScoringFunctionContract(scoreFunctionId, scoringContractAddress);\n            scoreFunctionSet.append(scoreFunctionId, scoringContractAddress);\n        }\n    }\n\n    function removeContract(uint8 scoreFunctionId) external onlyOwner {\n        scoreFunctionSet.remove(scoreFunctionId);\n    }\n    \n    function callScoreFunction(\n        uint8 scoreFunctionId,\n        uint8 hashFunctionId,\n        bytes calldata nodeId,\n        bytes calldata keyword,\n        uint96 stake\n    )\n        external\n        returns (uint40)\n    {\n        IScoreFunction scoringFunction = IScoreFunction(scoreFunctionSet.get(scoreFunctionId).addr);\n        uint256 distance = scoringFunction.calculateDistance(hashFunctionId, nodeId, keyword);\n        return scoringFunction.calculateScore(distance, stake);\n    }\n\n    function getScoreFunctionName(uint8 scoreFunctionId) external view returns (string memory) {\n        return Named(scoreFunctionSet.get(scoreFunctionId).addr).name();\n    }\n\n    function getScoreFunctionContractAddress(uint8 scoreFunctionId) external view returns (address) {\n        return scoreFunctionSet.get(scoreFunctionId).addr;\n    }\n\n    function getAllScoreFunctions() external view returns (UnorderedIndexableContractDynamicSetLib.Contract[] memory) {\n        return scoreFunctionSet.getAll();\n    }\n\n    function isScoreFunction(uint8 scoreFunctionId) external view returns (bool) {\n        return scoreFunctionSet.exists(scoreFunctionId);\n    }\n\n}\n",
  "sourcePath": "/Users/waving/Desktop/OriginTrail/dkg-evm-module/contracts/ScoringProxy.sol",
  "compiler": {
    "name": "solc",
    "version": "0.8.14+commit.80d49f37.Emscripten.clang"
  },
  "schemaVersion": "3.4.10",
  "updatedAt": "2022-12-02T11:59:36.430Z",
  "devdoc": {
    "kind": "dev",
    "methods": {
      "owner()": {
        "details": "Returns the address of the current owner."
      },
      "renounceOwnership()": {
        "details": "Leaves the contract without owner. It will not be possible to call `onlyOwner` functions anymore. Can only be called by the current owner. NOTE: Renouncing ownership will leave the contract without an owner, thereby removing any functionality that is only available to the owner."
      },
      "transferOwnership(address)": {
        "details": "Transfers ownership of the contract to a new account (`newOwner`). Can only be called by the current owner."
      }
    },
    "version": 1
  },
  "userdoc": {
    "kind": "user",
    "methods": {},
    "version": 1
  }
}