{
  "contractName": "ScoringProxy",
  "abi": [
    {
      "inputs": [
        {
          "internalType": "address",
          "name": "hubAddress",
          "type": "address"
        }
      ],
      "stateMutability": "nonpayable",
      "type": "constructor"
    },
    {
      "anonymous": false,
      "inputs": [
        {
          "indexed": true,
          "internalType": "uint8",
          "name": "scoreFunctionId",
          "type": "uint8"
        },
        {
          "indexed": false,
          "internalType": "address",
          "name": "newContractAddress",
          "type": "address"
        }
      ],
      "name": "NewScoringFunctionContract",
      "type": "event"
    },
    {
      "anonymous": false,
      "inputs": [
        {
          "indexed": true,
          "internalType": "uint8",
          "name": "scoreFunctionId",
          "type": "uint8"
        },
        {
          "indexed": false,
          "internalType": "address",
          "name": "newContractAddress",
          "type": "address"
        }
      ],
      "name": "ScoringFunctionContractUpdated",
      "type": "event"
    },
    {
      "inputs": [],
      "name": "hub",
      "outputs": [
        {
          "internalType": "contract Hub",
          "name": "",
          "type": "address"
        }
      ],
      "stateMutability": "view",
      "type": "function"
    },
    {
      "inputs": [],
      "name": "name",
      "outputs": [
        {
          "internalType": "string",
          "name": "",
          "type": "string"
        }
      ],
      "stateMutability": "pure",
      "type": "function"
    },
    {
      "inputs": [],
      "name": "version",
      "outputs": [
        {
          "internalType": "string",
          "name": "",
          "type": "string"
        }
      ],
      "stateMutability": "pure",
      "type": "function"
    },
    {
      "inputs": [
        {
          "internalType": "uint8",
          "name": "scoreFunctionId",
          "type": "uint8"
        },
        {
          "internalType": "address",
          "name": "scoringContractAddress",
          "type": "address"
        }
      ],
      "name": "setContractAddress",
      "outputs": [],
      "stateMutability": "nonpayable",
      "type": "function"
    },
    {
      "inputs": [
        {
          "internalType": "uint8",
          "name": "scoreFunctionId",
          "type": "uint8"
        }
      ],
      "name": "removeContract",
      "outputs": [],
      "stateMutability": "nonpayable",
      "type": "function"
    },
    {
      "inputs": [
        {
          "internalType": "uint8",
          "name": "scoreFunctionId",
          "type": "uint8"
        },
        {
          "internalType": "uint8",
          "name": "hashFunctionId",
          "type": "uint8"
        },
        {
          "internalType": "bytes",
          "name": "nodeId",
          "type": "bytes"
        },
        {
          "internalType": "bytes",
          "name": "keyword",
          "type": "bytes"
        },
        {
          "internalType": "uint96",
          "name": "stake",
          "type": "uint96"
        }
      ],
      "name": "callScoreFunction",
      "outputs": [
        {
          "internalType": "uint40",
          "name": "",
          "type": "uint40"
        }
      ],
      "stateMutability": "view",
      "type": "function"
    },
    {
      "inputs": [
        {
          "internalType": "uint8",
          "name": "scoreFunctionId",
          "type": "uint8"
        }
      ],
      "name": "getScoreFunctionName",
      "outputs": [
        {
          "internalType": "string",
          "name": "",
          "type": "string"
        }
      ],
      "stateMutability": "view",
      "type": "function"
    },
    {
      "inputs": [
        {
          "internalType": "uint8",
          "name": "scoreFunctionId",
          "type": "uint8"
        }
      ],
      "name": "getScoreFunctionContractAddress",
      "outputs": [
        {
          "internalType": "address",
          "name": "",
          "type": "address"
        }
      ],
      "stateMutability": "view",
      "type": "function"
    },
    {
      "inputs": [],
      "name": "getAllScoreFunctions",
      "outputs": [
        {
          "components": [
            {
              "internalType": "uint8",
              "name": "id",
              "type": "uint8"
            },
            {
              "internalType": "address",
              "name": "addr",
              "type": "address"
            }
          ],
          "internalType": "struct UnorderedIndexableContractDynamicSetLib.Contract[]",
          "name": "",
          "type": "tuple[]"
        }
      ],
      "stateMutability": "view",
      "type": "function"
    },
    {
      "inputs": [
        {
          "internalType": "uint8",
          "name": "scoreFunctionId",
          "type": "uint8"
        }
      ],
      "name": "isScoreFunction",
      "outputs": [
        {
          "internalType": "bool",
          "name": "",
          "type": "bool"
        }
      ],
      "stateMutability": "view",
      "type": "function"
    }
  ],
  "bytecode": "0x608060405234801561001057600080fd5b5060405161102f38038061102f83398101604081905261002f91610067565b6001600160a01b03811661004257600080fd5b600080546001600160a01b0319166001600160a01b0392909216919091179055610097565b60006020828403121561007957600080fd5b81516001600160a01b038116811461009057600080fd5b9392505050565b610f89806100a66000396000f3fe608060405234801561001057600080fd5b506004361061009e5760003560e01c8063893d3fc011610066578063893d3fc0146101655780638b6602d814610178578063c413e5be1461018d578063e12e56a7146101a0578063eaf57a4e146101c357600080fd5b806306fdde03146100a35780630b47a008146100dd578063365a86fc1461010657806354fd4d5014610131578063588372aa14610152575b600080fd5b60408051808201909152600c81526b53636f72696e6750726f787960a01b60208201525b6040516100d49190610aaa565b60405180910390f35b6100f06100eb366004610b35565b6101d8565b60405164ffffffffff90911681526020016100d4565b600054610119906001600160a01b031681565b6040516001600160a01b0390911681526020016100d4565b6040805180820190915260058152640312e302e360dc1b60208201526100c7565b6100c7610160366004610bef565b6102f1565b610119610173366004610bef565b61036d565b61018b610186366004610bef565b610384565b005b61018b61019b366004610c28565b61039a565b6101b36101ae366004610bef565b610450565b60405190151581526020016100d4565b6101cb61045d565b6040516100d49190610c61565b6000806101e660018a61046e565b6020015190506000816001600160a01b031663274e19628a8a8a8a8a6040518663ffffffff1660e01b8152600401610222959493929190610ce5565b602060405180830381865afa15801561023f573d6000803e3d6000fd5b505050506040513d601f19601f820116820180604052508101906102639190610d21565b60405163a0db80ad60e01b8152600481018290526bffffffffffffffffffffffff861660248201529091506001600160a01b0383169063a0db80ad90604401602060405180830381865afa1580156102bf573d6000803e3d6000fd5b505050506040513d601f19601f820116820180604052508101906102e39190610d3a565b9a9950505050505050505050565b60606102fe60018361046e565b602001516001600160a01b03166306fdde036040518163ffffffff1660e01b8152600401600060405180830381865afa15801561033f573d6000803e3d6000fd5b505050506040513d6000823e601f3d908101601f191682016040526103679190810190610d77565b92915050565b600061037a60018361046e565b6020015192915050565b61038c610516565b6103976001826105ed565b50565b6103a2610516565b6103ad600183610795565b15610403576040516001600160a01b038216815260ff8316907fe2dcdbd6453b0466368d1ccccaa259e2e0b98656fbd2067d8d42578850e7e63f9060200160405180910390a26103ff600183836107f2565b5050565b6040516001600160a01b038216815260ff8316907fc6cd47d9d457746d0ded074885432d127a1bb30a241fa26040bf0a4f43852b439060200160405180910390a26103ff6001838361089e565b6000610367600183610795565b60606104696001610a0e565b905090565b604080518082019091526000808252602082015261048c8383610795565b6104b15760405162461bcd60e51b81526004016104a890610e24565b60405180910390fd5b60ff821660009081526020849052604090205460018401805490919081106104db576104db610e81565b60009182526020918290206040805180820190915291015460ff8116825261010090046001600160a01b031691810191909152905092915050565b60008054906101000a90046001600160a01b03166001600160a01b0316638da5cb5b6040518163ffffffff1660e01b8152600401602060405180830381865afa158015610567573d6000803e3d6000fd5b505050506040513d601f19601f8201168201806040525081019061058b9190610e97565b6001600160a01b0316336001600160a01b0316146105eb5760405162461bcd60e51b815260206004820181905260248201527f466e2063616e206f6e6c79206265207573656420627920687562206f776e657260448201526064016104a8565b565b6105f78282610795565b6106135760405162461bcd60e51b81526004016104a890610e24565b60ff811660009081526020839052604081205490600180850190610638866001015490565b6106429190610eb4565b8154811061065257610652610e81565b60009182526020808320604080518082018252919093015460ff811682526001600160a01b0361010090910416818301819052835163af640d0f60e01b815293519195509263af640d0f9260048083019391928290030181865afa1580156106be573d6000803e3d6000fd5b505050506040513d601f19601f820116820180604052508101906106e29190610ed5565b60ff8116600090815260208790526040902084905560018601805491925083918590811061071257610712610e81565b60009182526020808320845192018054948201516001600160a01b0316610100026001600160a81b031990951660ff9384161794909417909355861681529086905260408120556001850180548061076c5761076c610ef2565b600082815260209020810160001990810180546001600160a81b03191690550190555050505050565b60006107a2836001015490565b6000036107b157506000610367565b60ff821660008181526020859052604090205460018501805490919081106107db576107db610e81565b60009182526020909120015460ff16149392505050565b6001600160a01b0381166108185760405162461bcd60e51b81526004016104a890610f08565b6108228383610795565b61083e5760405162461bcd60e51b81526004016104a890610e24565b60ff8216600090815260208490526040902054600184018054839290811061086857610868610e81565b9060005260206000200160000160016101000a8154816001600160a01b0302191690836001600160a01b03160217905550505050565b8160ff166000036108fd5760405162461bcd60e51b815260206004820152602360248201527f496e64657861626c65436f6e74726163745365743a2049442063616e6f74206260448201526206520360ec1b60648201526084016104a8565b6001600160a01b0381166109235760405162461bcd60e51b81526004016104a890610f08565b61092d8383610795565b156109a05760405162461bcd60e51b815260206004820152603b60248201527f496e64657861626c65436f6e74726163745365743a20436f6e7472616374207760448201527f69746820676976656e20494420616c726561647920657869737473000000000060648201526084016104a8565b6001838101805460ff94851660008181526020978852604080822084905580518082019091529182526001600160a01b039586168289019081529483018455928352959091209451940180549151909216610100026001600160a81b03199091169390921692909217179055565b606081600101805480602002602001604051908101604052809291908181526020016000905b82821015610a7b576000848152602090819020604080518082019091529084015460ff8116825261010090046001600160a01b031681830152825260019092019101610a34565b505050509050919050565b60005b83811015610aa1578181015183820152602001610a89565b50506000910152565b6020815260008251806020840152610ac9816040850160208701610a86565b601f01601f19169190910160400192915050565b60ff8116811461039757600080fd5b60008083601f840112610afe57600080fd5b50813567ffffffffffffffff811115610b1657600080fd5b602083019150836020828501011115610b2e57600080fd5b9250929050565b600080600080600080600060a0888a031215610b5057600080fd5b8735610b5b81610add565b96506020880135610b6b81610add565b9550604088013567ffffffffffffffff80821115610b8857600080fd5b610b948b838c01610aec565b909750955060608a0135915080821115610bad57600080fd5b50610bba8a828b01610aec565b90945092505060808801356bffffffffffffffffffffffff81168114610bdf57600080fd5b8091505092959891949750929550565b600060208284031215610c0157600080fd5b8135610c0c81610add565b9392505050565b6001600160a01b038116811461039757600080fd5b60008060408385031215610c3b57600080fd5b8235610c4681610add565b91506020830135610c5681610c13565b809150509250929050565b602080825282518282018190526000919060409081850190868401855b82811015610caf578151805160ff1685528601516001600160a01b0316868501529284019290850190600101610c7e565b5091979650505050505050565b81835281816020850137506000828201602090810191909152601f909101601f19169091010190565b60ff86168152606060208201526000610d02606083018688610cbc565b8281036040840152610d15818587610cbc565b98975050505050505050565b600060208284031215610d3357600080fd5b5051919050565b600060208284031215610d4c57600080fd5b815164ffffffffff81168114610c0c57600080fd5b634e487b7160e01b600052604160045260246000fd5b600060208284031215610d8957600080fd5b815167ffffffffffffffff80821115610da157600080fd5b818401915084601f830112610db557600080fd5b815181811115610dc757610dc7610d61565b604051601f8201601f19908116603f01168101908382118183101715610def57610def610d61565b81604052828152876020848701011115610e0857600080fd5b610e19836020830160208801610a86565b979650505050505050565b6020808252603b908201527f496e64657861626c65436f6e74726163745365743a20436f6e7472616374207760408201527f69746820676976656e20494420646f65736e2774206578697374730000000000606082015260800190565b634e487b7160e01b600052603260045260246000fd5b600060208284031215610ea957600080fd5b8151610c0c81610c13565b8181038181111561036757634e487b7160e01b600052601160045260246000fd5b600060208284031215610ee757600080fd5b8151610c0c81610add565b634e487b7160e01b600052603160045260246000fd5b6020808252602b908201527f496e64657861626c65436f6e74726163745365743a204164647265737320636160408201526a06e6e6f74206265203078360ac1b60608201526080019056fea2646970667358221220801d9f0b120c0cc3bf41ec21066676919f2735067dffc1a7cedeb37bf8e257ec64736f6c63430008100033",
  "immutableReferences": {},
  "source": "// SPDX-License-Identifier: MIT\n\npragma solidity ^0.8.4;\n\nimport { Hub } from \"./Hub.sol\";\nimport { IScoreFunction } from \"./interface/IScoreFunction.sol\";\nimport { Named } from \"./interface/Named.sol\";\nimport { Versioned } from \"./interface/Versioned.sol\";\nimport { UnorderedIndexableContractDynamicSetLib } from \"./utils/UnorderedIndexableContractDynamicSet.sol\";\n\ncontract ScoringProxy is Named, Versioned {\n\n    using UnorderedIndexableContractDynamicSetLib for UnorderedIndexableContractDynamicSetLib.Set;\n\n    event NewScoringFunctionContract(uint8 indexed scoreFunctionId, address newContractAddress);\n    event ScoringFunctionContractUpdated(uint8 indexed scoreFunctionId, address newContractAddress);\n\n    string constant private _NAME = \"ScoringProxy\";\n    string constant private _VERSION = \"1.0.0\";\n\n    Hub public hub;\n\n    UnorderedIndexableContractDynamicSetLib.Set scoreFunctionSet;\n\n    constructor(address hubAddress) {\n        require(hubAddress != address(0));\n\n        hub = Hub(hubAddress);\n    }\n\n    modifier onlyHubOwner() {\n        _checkHubOwner();\n        _;\n    }\n\n    function name() external pure virtual override returns (string memory) {\n        return _NAME;\n    }\n\n    function version() external pure virtual override returns (string memory) {\n        return _VERSION;\n    }\n\n    function setContractAddress(uint8 scoreFunctionId, address scoringContractAddress) external onlyHubOwner {\n        if (scoreFunctionSet.exists(scoreFunctionId)) {\n            emit ScoringFunctionContractUpdated(scoreFunctionId, scoringContractAddress);\n            scoreFunctionSet.update(scoreFunctionId, scoringContractAddress);\n        } else {\n            emit NewScoringFunctionContract(scoreFunctionId, scoringContractAddress);\n            scoreFunctionSet.append(scoreFunctionId, scoringContractAddress);\n        }\n    }\n\n    function removeContract(uint8 scoreFunctionId) external onlyHubOwner {\n        scoreFunctionSet.remove(scoreFunctionId);\n    }\n    \n    function callScoreFunction(\n        uint8 scoreFunctionId,\n        uint8 hashFunctionId,\n        bytes calldata nodeId,\n        bytes calldata keyword,\n        uint96 stake\n    )\n        external\n        view\n        returns (uint40)\n    {\n        IScoreFunction scoringFunction = IScoreFunction(scoreFunctionSet.get(scoreFunctionId).addr);\n        uint256 distance = scoringFunction.calculateDistance(hashFunctionId, nodeId, keyword);\n        return scoringFunction.calculateScore(distance, stake);\n    }\n\n    function getScoreFunctionName(uint8 scoreFunctionId) external view returns (string memory) {\n        return Named(scoreFunctionSet.get(scoreFunctionId).addr).name();\n    }\n\n    function getScoreFunctionContractAddress(uint8 scoreFunctionId) external view returns (address) {\n        return scoreFunctionSet.get(scoreFunctionId).addr;\n    }\n\n    function getAllScoreFunctions() external view returns (UnorderedIndexableContractDynamicSetLib.Contract[] memory) {\n        return scoreFunctionSet.getAll();\n    }\n\n    function isScoreFunction(uint8 scoreFunctionId) external view returns (bool) {\n        return scoreFunctionSet.exists(scoreFunctionId);\n    }\n\n    function _checkHubOwner() internal view virtual {\n        require(msg.sender == hub.owner(), \"Fn can only be used by hub owner\");\n    }\n\n}\n",
  "sourcePath": "/Users/waving/Desktop/OriginTrail/dkg-evm-module/contracts/ScoringProxy.sol",
  "compiler": {
    "name": "solc",
    "version": "0.8.16+commit.07a7930e.Emscripten.clang"
  },
  "schemaVersion": "3.4.10",
  "updatedAt": "2022-12-08T16:40:13.571Z",
  "devdoc": {
    "kind": "dev",
    "methods": {},
    "version": 1
  },
  "userdoc": {
    "kind": "user",
    "methods": {},
    "version": 1
  }
}