{
  "contractName": "ScoringProxy",
  "abi": [
    {
      "anonymous": false,
      "inputs": [
        {
          "indexed": true,
          "internalType": "uint8",
          "name": "scoreFunctionId",
          "type": "uint8"
        },
        {
          "indexed": false,
          "internalType": "address",
          "name": "newContractAddress",
          "type": "address"
        }
      ],
      "name": "NewScoringFunctionContract",
      "type": "event"
    },
    {
      "anonymous": false,
      "inputs": [
        {
          "indexed": true,
          "internalType": "address",
          "name": "previousOwner",
          "type": "address"
        },
        {
          "indexed": true,
          "internalType": "address",
          "name": "newOwner",
          "type": "address"
        }
      ],
      "name": "OwnershipTransferred",
      "type": "event"
    },
    {
      "anonymous": false,
      "inputs": [
        {
          "indexed": true,
          "internalType": "uint8",
          "name": "scoreFunctionId",
          "type": "uint8"
        },
        {
          "indexed": false,
          "internalType": "address",
          "name": "newContractAddress",
          "type": "address"
        }
      ],
      "name": "ScoringFunctionContractUpdated",
      "type": "event"
    },
    {
      "inputs": [
        {
          "internalType": "uint8",
          "name": "",
          "type": "uint8"
        }
      ],
      "name": "functions",
      "outputs": [
        {
          "internalType": "address",
          "name": "",
          "type": "address"
        }
      ],
      "stateMutability": "view",
      "type": "function"
    },
    {
      "inputs": [],
      "name": "owner",
      "outputs": [
        {
          "internalType": "address",
          "name": "",
          "type": "address"
        }
      ],
      "stateMutability": "view",
      "type": "function"
    },
    {
      "inputs": [],
      "name": "renounceOwnership",
      "outputs": [],
      "stateMutability": "nonpayable",
      "type": "function"
    },
    {
      "inputs": [
        {
          "internalType": "address",
          "name": "newOwner",
          "type": "address"
        }
      ],
      "name": "transferOwnership",
      "outputs": [],
      "stateMutability": "nonpayable",
      "type": "function"
    },
    {
      "inputs": [
        {
          "internalType": "uint8",
          "name": "scoreFunctionId",
          "type": "uint8"
        },
        {
          "internalType": "uint8",
          "name": "hashFunctionId",
          "type": "uint8"
        },
        {
          "internalType": "bytes",
          "name": "nodeId",
          "type": "bytes"
        },
        {
          "internalType": "bytes",
          "name": "keyword",
          "type": "bytes"
        },
        {
          "internalType": "uint96",
          "name": "stake",
          "type": "uint96"
        }
      ],
      "name": "callScoreFunction",
      "outputs": [
        {
          "internalType": "uint32",
          "name": "",
          "type": "uint32"
        }
      ],
      "stateMutability": "nonpayable",
      "type": "function"
    },
    {
      "inputs": [
        {
          "internalType": "uint8",
          "name": "scoreFunctionId",
          "type": "uint8"
        },
        {
          "internalType": "address",
          "name": "scoringContractAddress",
          "type": "address"
        }
      ],
      "name": "setContractAddress",
      "outputs": [],
      "stateMutability": "nonpayable",
      "type": "function"
    }
  ],
  "bytecode": "0x608060405234801561001057600080fd5b5061002d61002261003260201b60201c565b61003a60201b60201c565b6100fe565b600033905090565b60008060009054906101000a900473ffffffffffffffffffffffffffffffffffffffff169050816000806101000a81548173ffffffffffffffffffffffffffffffffffffffff021916908373ffffffffffffffffffffffffffffffffffffffff1602179055508173ffffffffffffffffffffffffffffffffffffffff168173ffffffffffffffffffffffffffffffffffffffff167f8be0079c531659141344cd1fd0a4f28419497f9722a3daafe3b4186f6b6457e060405160405180910390a35050565b610ef88061010d6000396000f3fe608060405234801561001057600080fd5b50600436106100625760003560e01c80630b47a00814610067578063715018a6146100975780638da5cb5b146100a1578063a182eb02146100bf578063c413e5be146100ef578063f2fde38b1461010b575b600080fd5b610081600480360381019061007c91906108ed565b610127565b60405161008e91906109bf565b60405180910390f35b61009f61031d565b005b6100a9610331565b6040516100b69190610a1b565b60405180910390f35b6100d960048036038101906100d49190610a36565b61035a565b6040516100e69190610a1b565b60405180910390f35b61010960048036038101906101049190610a8f565b61038d565b005b61012560048036038101906101209190610acf565b610549565b005b60008073ffffffffffffffffffffffffffffffffffffffff16600160008860ff1660ff16815260200190815260200160002060009054906101000a900473ffffffffffffffffffffffffffffffffffffffff1673ffffffffffffffffffffffffffffffffffffffff16036101d0576040517f08c379a00000000000000000000000000000000000000000000000000000000081526004016101c790610b59565b60405180910390fd5b6000600160008860ff1660ff16815260200190815260200160002060009054906101000a900473ffffffffffffffffffffffffffffffffffffffff16905060008173ffffffffffffffffffffffffffffffffffffffff1663274e19628888886040518463ffffffff1660e01b815260040161024d93929190610c10565b6020604051808303816000875af115801561026c573d6000803e3d6000fd5b505050506040513d601f19601f820116820180604052508101906102909190610c8b565b90508173ffffffffffffffffffffffffffffffffffffffff1663a0db80ad82866040518363ffffffff1660e01b81526004016102cd929190610cd6565b6020604051808303816000875af11580156102ec573d6000803e3d6000fd5b505050506040513d601f19601f820116820180604052508101906103109190610d2b565b9250505095945050505050565b6103256105cc565b61032f600061064a565b565b60008060009054906101000a900473ffffffffffffffffffffffffffffffffffffffff16905090565b60016020528060005260406000206000915054906101000a900473ffffffffffffffffffffffffffffffffffffffff1681565b6103956105cc565b600073ffffffffffffffffffffffffffffffffffffffff168173ffffffffffffffffffffffffffffffffffffffff1603610404576040517f08c379a00000000000000000000000000000000000000000000000000000000081526004016103fb90610da4565b60405180910390fd5b600073ffffffffffffffffffffffffffffffffffffffff16600160008460ff1660ff16815260200190815260200160002060009054906101000a900473ffffffffffffffffffffffffffffffffffffffff1673ffffffffffffffffffffffffffffffffffffffff16146104b1578160ff167fe2dcdbd6453b0466368d1ccccaa259e2e0b98656fbd2067d8d42578850e7e63f826040516104a49190610a1b565b60405180910390a26104ed565b8160ff167fc6cd47d9d457746d0ded074885432d127a1bb30a241fa26040bf0a4f43852b43826040516104e49190610a1b565b60405180910390a25b80600160008460ff1660ff16815260200190815260200160002060006101000a81548173ffffffffffffffffffffffffffffffffffffffff021916908373ffffffffffffffffffffffffffffffffffffffff1602179055505050565b6105516105cc565b600073ffffffffffffffffffffffffffffffffffffffff168173ffffffffffffffffffffffffffffffffffffffff16036105c0576040517f08c379a00000000000000000000000000000000000000000000000000000000081526004016105b790610e36565b60405180910390fd5b6105c98161064a565b50565b6105d461070e565b73ffffffffffffffffffffffffffffffffffffffff166105f2610331565b73ffffffffffffffffffffffffffffffffffffffff1614610648576040517f08c379a000000000000000000000000000000000000000000000000000000000815260040161063f90610ea2565b60405180910390fd5b565b60008060009054906101000a900473ffffffffffffffffffffffffffffffffffffffff169050816000806101000a81548173ffffffffffffffffffffffffffffffffffffffff021916908373ffffffffffffffffffffffffffffffffffffffff1602179055508173ffffffffffffffffffffffffffffffffffffffff168173ffffffffffffffffffffffffffffffffffffffff167f8be0079c531659141344cd1fd0a4f28419497f9722a3daafe3b4186f6b6457e060405160405180910390a35050565b600033905090565b6000604051905090565b600080fd5b600080fd5b600060ff82169050919050565b6107408161072a565b811461074b57600080fd5b50565b60008135905061075d81610737565b92915050565b600080fd5b600080fd5b6000601f19601f8301169050919050565b7f4e487b7100000000000000000000000000000000000000000000000000000000600052604160045260246000fd5b6107b68261076d565b810181811067ffffffffffffffff821117156107d5576107d461077e565b5b80604052505050565b60006107e8610716565b90506107f482826107ad565b919050565b600067ffffffffffffffff8211156108145761081361077e565b5b61081d8261076d565b9050602081019050919050565b82818337600083830152505050565b600061084c610847846107f9565b6107de565b90508281526020810184848401111561086857610867610768565b5b61087384828561082a565b509392505050565b600082601f8301126108905761088f610763565b5b81356108a0848260208601610839565b91505092915050565b60006bffffffffffffffffffffffff82169050919050565b6108ca816108a9565b81146108d557600080fd5b50565b6000813590506108e7816108c1565b92915050565b600080600080600060a0868803121561090957610908610720565b5b60006109178882890161074e565b95505060206109288882890161074e565b945050604086013567ffffffffffffffff81111561094957610948610725565b5b6109558882890161087b565b935050606086013567ffffffffffffffff81111561097657610975610725565b5b6109828882890161087b565b9250506080610993888289016108d8565b9150509295509295909350565b600063ffffffff82169050919050565b6109b9816109a0565b82525050565b60006020820190506109d460008301846109b0565b92915050565b600073ffffffffffffffffffffffffffffffffffffffff82169050919050565b6000610a05826109da565b9050919050565b610a15816109fa565b82525050565b6000602082019050610a306000830184610a0c565b92915050565b600060208284031215610a4c57610a4b610720565b5b6000610a5a8482850161074e565b91505092915050565b610a6c816109fa565b8114610a7757600080fd5b50565b600081359050610a8981610a63565b92915050565b60008060408385031215610aa657610aa5610720565b5b6000610ab48582860161074e565b9250506020610ac585828601610a7a565b9150509250929050565b600060208284031215610ae557610ae4610720565b5b6000610af384828501610a7a565b91505092915050565b600082825260208201905092915050565b7f53636f72696e672066756e6374696f6e20646f65736e27742065786973742100600082015250565b6000610b43601f83610afc565b9150610b4e82610b0d565b602082019050919050565b60006020820190508181036000830152610b7281610b36565b9050919050565b610b828161072a565b82525050565b600081519050919050565b600082825260208201905092915050565b60005b83811015610bc2578082015181840152602081019050610ba7565b83811115610bd1576000848401525b50505050565b6000610be282610b88565b610bec8185610b93565b9350610bfc818560208601610ba4565b610c058161076d565b840191505092915050565b6000606082019050610c256000830186610b79565b8181036020830152610c378185610bd7565b90508181036040830152610c4b8184610bd7565b9050949350505050565b6000819050919050565b610c6881610c55565b8114610c7357600080fd5b50565b600081519050610c8581610c5f565b92915050565b600060208284031215610ca157610ca0610720565b5b6000610caf84828501610c76565b91505092915050565b610cc181610c55565b82525050565b610cd0816108a9565b82525050565b6000604082019050610ceb6000830185610cb8565b610cf86020830184610cc7565b9392505050565b610d08816109a0565b8114610d1357600080fd5b50565b600081519050610d2581610cff565b92915050565b600060208284031215610d4157610d40610720565b5b6000610d4f84828501610d16565b91505092915050565b7f436f6e747261637420616464726573732063616e6e6f7420626520656d707479600082015250565b6000610d8e602083610afc565b9150610d9982610d58565b602082019050919050565b60006020820190508181036000830152610dbd81610d81565b9050919050565b7f4f776e61626c653a206e6577206f776e657220697320746865207a65726f206160008201527f6464726573730000000000000000000000000000000000000000000000000000602082015250565b6000610e20602683610afc565b9150610e2b82610dc4565b604082019050919050565b60006020820190508181036000830152610e4f81610e13565b9050919050565b7f4f776e61626c653a2063616c6c6572206973206e6f7420746865206f776e6572600082015250565b6000610e8c602083610afc565b9150610e9782610e56565b602082019050919050565b60006020820190508181036000830152610ebb81610e7f565b905091905056fea2646970667358221220c6f9903232060c591bc34f2f69a63ff7a23172842d6aad529c2591b730caaa3164736f6c634300080e0033",
  "immutableReferences": {},
  "source": "// SPDX-License-Identifier: MIT\n\npragma solidity ^0.8.0;\n\nimport { IScoreFunction } from \"./interface/IScoreFunction.sol\";\nimport { Ownable } from \"@openzeppelin/contracts/access/Ownable.sol\";\n\ncontract ScoringProxy is Ownable {\n    event NewScoringFunctionContract(uint8 indexed scoreFunctionId, address newContractAddress);\n    event ScoringFunctionContractUpdated(uint8 indexed scoreFunctionId, address newContractAddress);\n\n    // scoreFunctionId => Contract address\n    mapping(uint8 => address) public functions;\n\n    function callScoreFunction(\n        uint8 scoreFunctionId,\n        uint8 hashFunctionId,\n        bytes memory nodeId,\n        bytes memory keyword,\n        uint96 stake\n    )\n        public\n        returns (uint32)\n    {\n        require(functions[scoreFunctionId] != address(0), \"Scoring function doesn't exist!\");\n\n        IScoreFunction scoringFunction = IScoreFunction(functions[scoreFunctionId]);\n        uint256 distance = scoringFunction.calculateDistance(hashFunctionId, nodeId, keyword);\n\n        return scoringFunction.calculateScore(distance, stake);\n    }\n\n    function setContractAddress(uint8 scoreFunctionId, address scoringContractAddress)\n        public\n        onlyOwner\n    {\n        require(scoringContractAddress != address(0), \"Contract address cannot be empty\");\n\n        if (functions[scoreFunctionId] != address(0)) {\n            emit ScoringFunctionContractUpdated(\n                scoreFunctionId,\n                scoringContractAddress\n            );\n        } else {\n            emit NewScoringFunctionContract(scoreFunctionId, scoringContractAddress);\n        }\n\n        functions[scoreFunctionId] = scoringContractAddress;\n    }\n\n}\n",
  "sourcePath": "/Users/waving/Desktop/OriginTrail/dkg-evm-module/contracts/ScoringProxy.sol",
  "compiler": {
    "name": "solc",
    "version": "0.8.14+commit.80d49f37.Emscripten.clang"
  },
  "schemaVersion": "3.4.10",
  "updatedAt": "2022-11-22T02:14:31.255Z",
  "devdoc": {
    "kind": "dev",
    "methods": {
      "owner()": {
        "details": "Returns the address of the current owner."
      },
      "renounceOwnership()": {
        "details": "Leaves the contract without owner. It will not be possible to call `onlyOwner` functions anymore. Can only be called by the current owner. NOTE: Renouncing ownership will leave the contract without an owner, thereby removing any functionality that is only available to the owner."
      },
      "transferOwnership(address)": {
        "details": "Transfers ownership of the contract to a new account (`newOwner`). Can only be called by the current owner."
      }
    },
    "version": 1
  },
  "userdoc": {
    "kind": "user",
    "methods": {},
    "version": 1
  }
}