{
  "contractName": "ServiceAgreementV1",
  "abi": [
    {
      "inputs": [
        {
          "internalType": "address",
          "name": "hubAddress",
          "type": "address"
        }
      ],
      "stateMutability": "nonpayable",
      "type": "constructor"
    },
    {
      "anonymous": false,
      "inputs": [
        {
          "indexed": true,
          "internalType": "address",
          "name": "assetContract",
          "type": "address"
        },
        {
          "indexed": true,
          "internalType": "uint256",
          "name": "tokenId",
          "type": "uint256"
        },
        {
          "indexed": false,
          "internalType": "bytes",
          "name": "keyword",
          "type": "bytes"
        },
        {
          "indexed": false,
          "internalType": "uint8",
          "name": "hashFunctionId",
          "type": "uint8"
        },
        {
          "indexed": true,
          "internalType": "uint72",
          "name": "identityId",
          "type": "uint72"
        },
        {
          "indexed": false,
          "internalType": "uint40",
          "name": "score",
          "type": "uint40"
        }
      ],
      "name": "CommitSubmitted",
      "type": "event"
    },
    {
      "anonymous": false,
      "inputs": [
        {
          "indexed": false,
          "internalType": "bool",
          "name": "value",
          "type": "bool"
        },
        {
          "indexed": false,
          "internalType": "string",
          "name": "message",
          "type": "string"
        }
      ],
      "name": "Logger",
      "type": "event"
    },
    {
      "anonymous": false,
      "inputs": [
        {
          "indexed": true,
          "internalType": "address",
          "name": "assetContract",
          "type": "address"
        },
        {
          "indexed": true,
          "internalType": "uint256",
          "name": "tokenId",
          "type": "uint256"
        },
        {
          "indexed": false,
          "internalType": "bytes",
          "name": "keyword",
          "type": "bytes"
        },
        {
          "indexed": false,
          "internalType": "uint8",
          "name": "hashFunctionId",
          "type": "uint8"
        },
        {
          "indexed": true,
          "internalType": "uint72",
          "name": "identityId",
          "type": "uint72"
        }
      ],
      "name": "ProofSubmitted",
      "type": "event"
    },
    {
      "anonymous": false,
      "inputs": [
        {
          "indexed": true,
          "internalType": "address",
          "name": "assetContract",
          "type": "address"
        },
        {
          "indexed": true,
          "internalType": "uint256",
          "name": "tokenId",
          "type": "uint256"
        },
        {
          "indexed": false,
          "internalType": "bytes",
          "name": "keyword",
          "type": "bytes"
        },
        {
          "indexed": false,
          "internalType": "uint8",
          "name": "hashFunctionId",
          "type": "uint8"
        },
        {
          "indexed": false,
          "internalType": "uint256",
          "name": "startTime",
          "type": "uint256"
        },
        {
          "indexed": false,
          "internalType": "uint16",
          "name": "epochsNumber",
          "type": "uint16"
        },
        {
          "indexed": false,
          "internalType": "uint128",
          "name": "epochLength",
          "type": "uint128"
        },
        {
          "indexed": false,
          "internalType": "uint96",
          "name": "tokenAmount",
          "type": "uint96"
        }
      ],
      "name": "ServiceAgreementV1Created",
      "type": "event"
    },
    {
      "anonymous": false,
      "inputs": [
        {
          "indexed": true,
          "internalType": "address",
          "name": "assetContract",
          "type": "address"
        },
        {
          "indexed": true,
          "internalType": "uint256",
          "name": "tokenId",
          "type": "uint256"
        },
        {
          "indexed": false,
          "internalType": "bytes",
          "name": "keyword",
          "type": "bytes"
        },
        {
          "indexed": false,
          "internalType": "uint8",
          "name": "hashFunctionId",
          "type": "uint8"
        },
        {
          "indexed": false,
          "internalType": "uint16",
          "name": "epochsNumber",
          "type": "uint16"
        },
        {
          "indexed": false,
          "internalType": "uint96",
          "name": "tokenAmount",
          "type": "uint96"
        }
      ],
      "name": "ServiceAgreementV1Updated",
      "type": "event"
    },
    {
      "inputs": [
        {
          "internalType": "uint256",
          "name": "",
          "type": "uint256"
        }
      ],
      "name": "_reqs",
      "outputs": [
        {
          "internalType": "bool",
          "name": "",
          "type": "bool"
        }
      ],
      "stateMutability": "view",
      "type": "function"
    },
    {
      "inputs": [],
      "name": "assertionStorage",
      "outputs": [
        {
          "internalType": "contract AssertionStorage",
          "name": "",
          "type": "address"
        }
      ],
      "stateMutability": "view",
      "type": "function"
    },
    {
      "inputs": [],
      "name": "hashingProxy",
      "outputs": [
        {
          "internalType": "contract HashingProxy",
          "name": "",
          "type": "address"
        }
      ],
      "stateMutability": "view",
      "type": "function"
    },
    {
      "inputs": [],
      "name": "hub",
      "outputs": [
        {
          "internalType": "contract Hub",
          "name": "",
          "type": "address"
        }
      ],
      "stateMutability": "view",
      "type": "function"
    },
    {
      "inputs": [],
      "name": "identityStorage",
      "outputs": [
        {
          "internalType": "contract IdentityStorage",
          "name": "",
          "type": "address"
        }
      ],
      "stateMutability": "view",
      "type": "function"
    },
    {
      "inputs": [],
      "name": "parametersStorage",
      "outputs": [
        {
          "internalType": "contract ParametersStorage",
          "name": "",
          "type": "address"
        }
      ],
      "stateMutability": "view",
      "type": "function"
    },
    {
      "inputs": [],
      "name": "profileStorage",
      "outputs": [
        {
          "internalType": "contract ProfileStorage",
          "name": "",
          "type": "address"
        }
      ],
      "stateMutability": "view",
      "type": "function"
    },
    {
      "inputs": [],
      "name": "scoringProxy",
      "outputs": [
        {
          "internalType": "contract ScoringProxy",
          "name": "",
          "type": "address"
        }
      ],
      "stateMutability": "view",
      "type": "function"
    },
    {
      "inputs": [],
      "name": "serviceAgreementStorageV1",
      "outputs": [
        {
          "internalType": "contract ServiceAgreementStorageV1",
          "name": "",
          "type": "address"
        }
      ],
      "stateMutability": "view",
      "type": "function"
    },
    {
      "inputs": [],
      "name": "shardingTableStorage",
      "outputs": [
        {
          "internalType": "contract ShardingTableStorage",
          "name": "",
          "type": "address"
        }
      ],
      "stateMutability": "view",
      "type": "function"
    },
    {
      "inputs": [],
      "name": "stakingContract",
      "outputs": [
        {
          "internalType": "contract Staking",
          "name": "",
          "type": "address"
        }
      ],
      "stateMutability": "view",
      "type": "function"
    },
    {
      "inputs": [],
      "name": "stakingStorage",
      "outputs": [
        {
          "internalType": "contract StakingStorage",
          "name": "",
          "type": "address"
        }
      ],
      "stateMutability": "view",
      "type": "function"
    },
    {
      "inputs": [],
      "name": "tokenContract",
      "outputs": [
        {
          "internalType": "contract IERC20",
          "name": "",
          "type": "address"
        }
      ],
      "stateMutability": "view",
      "type": "function"
    },
    {
      "inputs": [],
      "name": "initialize",
      "outputs": [],
      "stateMutability": "nonpayable",
      "type": "function"
    },
    {
      "inputs": [],
      "name": "name",
      "outputs": [
        {
          "internalType": "string",
          "name": "",
          "type": "string"
        }
      ],
      "stateMutability": "pure",
      "type": "function"
    },
    {
      "inputs": [],
      "name": "version",
      "outputs": [
        {
          "internalType": "string",
          "name": "",
          "type": "string"
        }
      ],
      "stateMutability": "pure",
      "type": "function"
    },
    {
      "inputs": [
        {
          "components": [
            {
              "internalType": "address",
              "name": "assetCreator",
              "type": "address"
            },
            {
              "internalType": "address",
              "name": "assetContract",
              "type": "address"
            },
            {
              "internalType": "uint256",
              "name": "tokenId",
              "type": "uint256"
            },
            {
              "internalType": "bytes",
              "name": "keyword",
              "type": "bytes"
            },
            {
              "internalType": "uint8",
              "name": "hashFunctionId",
              "type": "uint8"
            },
            {
              "internalType": "uint16",
              "name": "epochsNumber",
              "type": "uint16"
            },
            {
              "internalType": "uint96",
              "name": "tokenAmount",
              "type": "uint96"
            },
            {
              "internalType": "uint8",
              "name": "scoreFunctionId",
              "type": "uint8"
            }
          ],
          "internalType": "struct ServiceAgreementStructsV1.ServiceAgreementInputArgs",
          "name": "args",
          "type": "tuple"
        }
      ],
      "name": "createServiceAgreement",
      "outputs": [],
      "stateMutability": "nonpayable",
      "type": "function"
    },
    {
      "inputs": [
        {
          "components": [
            {
              "internalType": "address",
              "name": "assetCreator",
              "type": "address"
            },
            {
              "internalType": "address",
              "name": "assetContract",
              "type": "address"
            },
            {
              "internalType": "uint256",
              "name": "tokenId",
              "type": "uint256"
            },
            {
              "internalType": "bytes",
              "name": "keyword",
              "type": "bytes"
            },
            {
              "internalType": "uint8",
              "name": "hashFunctionId",
              "type": "uint8"
            },
            {
              "internalType": "uint16",
              "name": "epochsNumber",
              "type": "uint16"
            },
            {
              "internalType": "uint96",
              "name": "tokenAmount",
              "type": "uint96"
            },
            {
              "internalType": "uint8",
              "name": "scoreFunctionId",
              "type": "uint8"
            }
          ],
          "internalType": "struct ServiceAgreementStructsV1.ServiceAgreementInputArgs",
          "name": "args",
          "type": "tuple"
        }
      ],
      "name": "updateServiceAgreement",
      "outputs": [],
      "stateMutability": "nonpayable",
      "type": "function"
    },
    {
      "inputs": [
        {
          "internalType": "bytes32",
          "name": "agreementId",
          "type": "bytes32"
        },
        {
          "internalType": "uint16",
          "name": "epoch",
          "type": "uint16"
        }
      ],
      "name": "isCommitWindowOpen",
      "outputs": [
        {
          "internalType": "bool",
          "name": "",
          "type": "bool"
        }
      ],
      "stateMutability": "view",
      "type": "function"
    },
    {
      "inputs": [
        {
          "internalType": "bytes32",
          "name": "agreementId",
          "type": "bytes32"
        },
        {
          "internalType": "uint16",
          "name": "epoch",
          "type": "uint16"
        }
      ],
      "name": "getTopCommitSubmissions",
      "outputs": [
        {
          "components": [
            {
              "internalType": "uint72",
              "name": "identityId",
              "type": "uint72"
            },
            {
              "internalType": "uint72",
              "name": "prevIdentityId",
              "type": "uint72"
            },
            {
              "internalType": "uint72",
              "name": "nextIdentityId",
              "type": "uint72"
            },
            {
              "internalType": "uint40",
              "name": "score",
              "type": "uint40"
            }
          ],
          "internalType": "struct ServiceAgreementStructsV1.CommitSubmission[]",
          "name": "",
          "type": "tuple[]"
        }
      ],
      "stateMutability": "view",
      "type": "function"
    },
    {
      "inputs": [
        {
          "components": [
            {
              "internalType": "address",
              "name": "assetContract",
              "type": "address"
            },
            {
              "internalType": "uint256",
              "name": "tokenId",
              "type": "uint256"
            },
            {
              "internalType": "bytes",
              "name": "keyword",
              "type": "bytes"
            },
            {
              "internalType": "uint8",
              "name": "hashFunctionId",
              "type": "uint8"
            },
            {
              "internalType": "uint16",
              "name": "epoch",
              "type": "uint16"
            }
          ],
          "internalType": "struct ServiceAgreementStructsV1.CommitInputArgs",
          "name": "args",
          "type": "tuple"
        }
      ],
      "name": "submitCommit",
      "outputs": [],
      "stateMutability": "nonpayable",
      "type": "function"
    },
    {
      "inputs": [
        {
          "internalType": "bytes32",
          "name": "agreementId",
          "type": "bytes32"
        },
        {
          "internalType": "uint16",
          "name": "epoch",
          "type": "uint16"
        }
      ],
      "name": "isProofWindowOpen",
      "outputs": [
        {
          "internalType": "bool",
          "name": "",
          "type": "bool"
        }
      ],
      "stateMutability": "view",
      "type": "function"
    },
    {
      "inputs": [
        {
          "internalType": "address",
          "name": "sender",
          "type": "address"
        },
        {
          "internalType": "address",
          "name": "assetContract",
          "type": "address"
        },
        {
          "internalType": "uint256",
          "name": "tokenId",
          "type": "uint256"
        },
        {
          "internalType": "uint16",
          "name": "epoch",
          "type": "uint16"
        }
      ],
      "name": "getChallenge",
      "outputs": [
        {
          "internalType": "bytes32",
          "name": "",
          "type": "bytes32"
        },
        {
          "internalType": "uint256",
          "name": "",
          "type": "uint256"
        }
      ],
      "stateMutability": "view",
      "type": "function"
    },
    {
      "inputs": [
        {
          "components": [
            {
              "internalType": "address",
              "name": "assetContract",
              "type": "address"
            },
            {
              "internalType": "uint256",
              "name": "tokenId",
              "type": "uint256"
            },
            {
              "internalType": "bytes",
              "name": "keyword",
              "type": "bytes"
            },
            {
              "internalType": "uint8",
              "name": "hashFunctionId",
              "type": "uint8"
            },
            {
              "internalType": "uint16",
              "name": "epoch",
              "type": "uint16"
            },
            {
              "internalType": "bytes32[]",
              "name": "proof",
              "type": "bytes32[]"
            },
            {
              "internalType": "bytes32",
              "name": "chunkHash",
              "type": "bytes32"
            }
          ],
          "internalType": "struct ServiceAgreementStructsV1.ProofInputArgs",
          "name": "args",
          "type": "tuple"
        }
      ],
      "name": "sendProof",
      "outputs": [],
      "stateMutability": "nonpayable",
      "type": "function"
    },
    {
      "inputs": [
        {
          "internalType": "uint8",
          "name": "idx",
          "type": "uint8"
        },
        {
          "internalType": "bool",
          "name": "req",
          "type": "bool"
        }
      ],
      "name": "setReq",
      "outputs": [],
      "stateMutability": "nonpayable",
      "type": "function"
    }
  ],
  "bytecode": "0x6101006040526001608081815260a082905260c082905260e0919091526200002c9060009060046200089a565b503480156200003a57600080fd5b5060405162005a6638038062005a668339810160408190526200005d916200094a565b6001600160a01b0381166200007157600080fd5b600180546001600160a01b0319166001600160a01b038316179055620000966200009d565b506200097c565b620000a7620007b9565b600154604051630110ceef60e21b815260206004820152600c60248201526b48617368696e6750726f787960a01b60448201526001600160a01b03909116906304433bbc90606401602060405180830381865afa1580156200010d573d6000803e3d6000fd5b505050506040513d601f19601f820116820180604052508101906200013391906200094a565b600280546001600160a01b0319166001600160a01b03928316179055600154604051630110ceef60e21b815260206004820152600c60248201526b53636f72696e6750726f787960a01b60448201529116906304433bbc90606401602060405180830381865afa158015620001ac573d6000803e3d6000fd5b505050506040513d601f19601f82011682018060405250810190620001d291906200094a565b600380546001600160a01b0319166001600160a01b03928316179055600154604051630110ceef60e21b81526020600482015260076024820152665374616b696e6760c81b60448201529116906304433bbc90606401602060405180830381865afa15801562000246573d6000803e3d6000fd5b505050506040513d601f19601f820116820180604052508101906200026c91906200094a565b600480546001600160a01b039283166001600160a01b0319909116178155600154604051630110ceef60e21b81529216916304433bbc91620002d3910160208082526010908201526f417373657274696f6e53746f7261676560801b604082015260600190565b602060405180830381865afa158015620002f1573d6000803e3d6000fd5b505050506040513d601f19601f820116820180604052508101906200031791906200094a565b600580546001600160a01b0319166001600160a01b03928316179055600154604051630110ceef60e21b815260206004820152600f60248201526e4964656e7469747953746f7261676560881b60448201529116906304433bbc90606401602060405180830381865afa15801562000393573d6000803e3d6000fd5b505050506040513d601f19601f82011682018060405250810190620003b991906200094a565b600680546001600160a01b0319166001600160a01b03928316179055600154604051630110ceef60e21b8152602060048201526011602482015270506172616d657465727353746f7261676560781b60448201529116906304433bbc90606401602060405180830381865afa15801562000437573d6000803e3d6000fd5b505050506040513d601f19601f820116820180604052508101906200045d91906200094a565b600780546001600160a01b0319166001600160a01b03928316179055600154604051630110ceef60e21b815260206004820152600e60248201526d50726f66696c6553746f7261676560901b60448201529116906304433bbc90606401602060405180830381865afa158015620004d8573d6000803e3d6000fd5b505050506040513d601f19601f82011682018060405250810190620004fe91906200094a565b600880546001600160a01b0319166001600160a01b03928316179055600154604051630110ceef60e21b815260206004820152601960248201527f5365727669636541677265656d656e7453746f7261676556310000000000000060448201529116906304433bbc90606401602060405180830381865afa15801562000588573d6000803e3d6000fd5b505050506040513d601f19601f82011682018060405250810190620005ae91906200094a565b600980546001600160a01b0319166001600160a01b03928316179055600154604051630110ceef60e21b815260206004820152601460248201527f5368617264696e675461626c6553746f7261676500000000000000000000000060448201529116906304433bbc90606401602060405180830381865afa15801562000638573d6000803e3d6000fd5b505050506040513d601f19601f820116820180604052508101906200065e91906200094a565b600a80546001600160a01b0319166001600160a01b03928316179055600154604051630110ceef60e21b815260206004820152600e60248201526d5374616b696e6753746f7261676560901b60448201529116906304433bbc90606401602060405180830381865afa158015620006d9573d6000803e3d6000fd5b505050506040513d601f19601f82011682018060405250810190620006ff91906200094a565b600b80546001600160a01b0319166001600160a01b03928316179055600154604051630110ceef60e21b81526020600482015260056024820152642a37b5b2b760d91b60448201529116906304433bbc90606401602060405180830381865afa15801562000771573d6000803e3d6000fd5b505050506040513d601f19601f820116820180604052508101906200079791906200094a565b600c80546001600160a01b0319166001600160a01b0392909216919091179055565b600160009054906101000a90046001600160a01b03166001600160a01b0316638da5cb5b6040518163ffffffff1660e01b8152600401602060405180830381865afa1580156200080d573d6000803e3d6000fd5b505050506040513d601f19601f820116820180604052508101906200083391906200094a565b6001600160a01b0316336001600160a01b031614620008985760405162461bcd60e51b815260206004820181905260248201527f466e2063616e206f6e6c79206265207573656420627920687562206f776e6572604482015260640160405180910390fd5b565b600183019183908215620009215791602002820160005b83821115620008f057835183826101000a81548160ff0219169083151502179055509260200192600101602081600001049283019260010302620008b1565b80156200091f5782816101000a81549060ff0219169055600101602081600001049283019260010302620008f0565b505b506200092f92915062000933565b5090565b5b808211156200092f576000815560010162000934565b6000602082840312156200095d57600080fd5b81516001600160a01b03811681146200097557600080fd5b9392505050565b6150da806200098c6000396000f3fe608060405234801561001057600080fd5b50600436106101735760003560e01c80637522c2b1116100de578063b518a00e11610097578063e1572ce611610071578063e1572ce61461037f578063ee99205c14610392578063f11abfd8146103a5578063f42cb038146103b857600080fd5b8063b518a00e14610346578063becdd59714610359578063d210b7cf1461036c57600080fd5b80637522c2b1146102d25780637662966a146102e55780637db4ffd8146102f85780638129fc1c14610318578063823e2bc714610320578063aa6a00fd1461033357600080fd5b8063271af8a811610130578063271af8a814610252578063365a86fc1461026557806350d0c1441461027857806354fd4d501461028b57806355a373d6146102ac578063639a86a3146102bf57600080fd5b806305d6388b1461017857806306fdde03146101a05780630b716d5d146101d75780630f002016146101ec57806311c94ee814610214578063169df8d81461023f575b600080fd5b61018b610186366004614632565b6103cb565b60405190151581526020015b60405180910390f35b6040805180820190915260128152715365727669636541677265656d656e74563160701b60208201525b604051610197919061469b565b6101ea6101e53660046146ce565b6103f5565b005b6101ff6101fa36600461472c565b610437565b60408051928352602083019190915201610197565b600254610227906001600160a01b031681565b6040516001600160a01b039091168152602001610197565b6101ea61024d36600461477f565b61064c565b6101ea6102603660046147ba565b610aa5565b600154610227906001600160a01b031681565b600954610227906001600160a01b031681565b6040805180820190915260058152640312e302e360dc1b60208201526101ca565b600c54610227906001600160a01b031681565b600754610227906001600160a01b031681565b6101ea6102e03660046147f6565b6112b2565b600354610227906001600160a01b031681565b61030b610306366004614831565b611f99565b6040516101979190614856565b6101ea61240b565b600a54610227906001600160a01b031681565b61018b610341366004614831565b612afa565b600b54610227906001600160a01b031681565b61018b610367366004614831565b612e68565b600554610227906001600160a01b031681565b6101ea61038d3660046147ba565b613193565b600454610227906001600160a01b031681565b600654610227906001600160a01b031681565b600854610227906001600160a01b031681565b600081600481106103db57600080fd5b60209182820401919006915054906101000a900460ff1681565b6103fd613b27565b8060008360ff1660048110610414576104146148cf565b602091828204019190066101000a81548160ff0219169083151502179055505050565b60065460405163010cf48d60e71b81526001600160a01b038681166004830152600092839283929091169063867a468090602401602060405180830381865afa158015610488573d6000803e3d6000fd5b505050506040513d601f19601f820116820180604052508101906104ac9190614901565b60405163cede992f60e01b81526004810187905290915086906000906001600160a01b0383169063cede992f90602401602060405180830381865afa1580156104f9573d6000803e3d6000fd5b505050506040513d601f19601f8201168201806040525081019061051d919061491c565b600554604051632111070960e01b8152600481018390529192506000916001600160a01b0390911690632111070990602401602060405180830381865afa15801561056c573d6000803e3d6000fd5b505050506040513d601f19601f82011682018060405250810190610590919061494a565b6001600160601b031690508181600289876040516020016105d792919060f09290921b6001600160f01b031916825260b81b6001600160b81b0319166002820152600b0190565b60408051601f19818403018152908290526105f191614967565b602060405180830381855afa15801561060e573d6000803e3d6000fd5b5050506040513d601f19601f82011682018060405250810190610631919061491c565b61063b9190614999565b955095505050505094509492505050565b600061068561065e60208401846149ad565b602084013561067060408601866149ca565b6106806080880160608901614a18565b613c00565b905061069b8161036760a0850160808601614a35565b6106ec5760405162461bcd60e51b815260206004820152601760248201527f436f6d6d69742077696e646f7720697320636c6f73656400000000000000000060448201526064015b60405180910390fd5b60065460405163010cf48d60e71b81523360048201526000916001600160a01b03169063867a468090602401602060405180830381865afa158015610735573d6000803e3d6000fd5b505050506040513d601f19601f820116820180604052508101906107599190614901565b600a5460405163175a11e760e21b81526001600160481b03831660048201529192506001600160a01b031690635d68479c90602401602060405180830381865afa1580156107ab573d6000803e3d6000fd5b505050506040513d601f19601f820116820180604052508101906107cf9190614a52565b61081b5760405162461bcd60e51b815260206004820181905260248201527f4e6f64652069736e277420696e20746865205368617264696e67205461626c6560448201526064016106e3565b60035460095460405163ce60dc6160e01b8152600481018590526000926001600160a01b0390811692630b47a0089291169063ce60dc6190602401602060405180830381865afa158015610873573d6000803e3d6000fd5b505050506040513d601f19601f820116820180604052508101906108979190614a6f565b6108a76080880160608901614a18565b6008546040516320e085cd60e11b81526001600160481b03881660048201526001600160a01b03909116906341c10b9a90602401600060405180830381865afa1580156108f8573d6000803e3d6000fd5b505050506040513d6000823e601f3d908101601f191682016040526109209190810190614aa2565b61092d60408a018a6149ca565b600b54604051639d2b48ad60e01b81526001600160481b038b1660048201526001600160a01b0390911690639d2b48ad90602401602060405180830381865afa15801561097e573d6000803e3d6000fd5b505050506040513d601f19601f820116820180604052508101906109a2919061494a565b6040518763ffffffff1660e01b81526004016109c396959493929190614b78565b602060405180830381865afa1580156109e0573d6000803e3d6000fd5b505050506040513d601f19601f82011682018060405250810190610a049190614be2565b9050610a2483610a1a60a0870160808801614a35565b8460008086613ca6565b6001600160481b03821660208501803590610a3f90876149ad565b6001600160a01b03167f06d678193262cc8cf0c98a32a42cc9c6ccb379cf09a5766360b3a6b6d59723d3610a7660408901896149ca565b610a8660808b0160608c01614a18565b87604051610a979493929190614bfd565b60405180910390a450505050565b610aad61434b565b6000610ae4610ac260408401602085016149ad565b6040840135610ad460608601866149ca565b61068060a0880160808901614a18565b6009549091506001600160a01b03166000610b0260208501856149ad565b6001600160a01b031603610b585760405162461bcd60e51b815260206004820152601b60248201527f41737365742063726561746f722063616e6e6f7420626520307830000000000060448201526064016106e3565b6040516310dc199160e31b8152600481018390526001600160a01b038216906386e0cc8890602401602060405180830381865afa158015610b9d573d6000803e3d6000fd5b505050506040513d601f19601f82011682018060405250810190610bc19190614a52565b610bdd5760405162461bcd60e51b81526004016106e390614c32565b610bed60c0840160a08501614a35565b61ffff16600003610c3c5760405162461bcd60e51b8152602060048201526019602482015278045706f636873206e756d6265722063616e6e6f74206265203603c1b60448201526064016106e3565b610c4c60e0840160c08501614c69565b6001600160601b0316600003610c9f5760405162461bcd60e51b81526020600482015260186024820152770546f6b656e20616d6f756e742063616e6e6f7420626520360441b60448201526064016106e3565b6003546001600160a01b031663e12e56a7610cc1610100860160e08701614a18565b6040516001600160e01b031960e084901b16815260ff9091166004820152602401602060405180830381865afa158015610cff573d6000803e3d6000fd5b505050506040513d601f19601f82011682018060405250810190610d239190614a52565b610d6f5760405162461bcd60e51b815260206004820152601c60248201527f53636f72652066756e6374696f6e20646f65736e27742065786973740000000060448201526064016106e3565b604051634089a17d60e01b8152600481018390526000906001600160a01b03831690634089a17d90602401602060405180830381865afa158015610db7573d6000803e3d6000fd5b505050506040513d601f19601f82011682018060405250810190610ddb919061494a565b90506001600160a01b038216630f3a549d84610dfd60c0880160a08901614a35565b6040516001600160e01b031960e085901b168152600481019290925261ffff166024820152604401600060405180830381600087803b158015610e3f57600080fd5b505af1158015610e53573d6000803e3d6000fd5b5050506001600160a01b038316905063e54b26ff84610e7860e0880160c08901614c69565b6040516001600160e01b031960e085901b16815260048101929092526001600160601b03166024820152604401600060405180830381600087803b158015610ebf57600080fd5b505af1158015610ed3573d6000803e3d6000fd5b5050506001600160a01b0383169050636441a27684610ef9610100880160e08901614a18565b6040516001600160e01b031960e085901b168152600481019290925260ff166024820152604401600060405180830381600087803b158015610f3a57600080fd5b505af1158015610f4e573d6000803e3d6000fd5b5050600c546001600160a01b03169150829050610f7160e0870160c08801614c69565b610f7b9190614c9c565b6001600160601b03166001600160a01b03821663dd62ed3e610fa060208901896149ad565b6040516001600160e01b031960e084901b1681526001600160a01b039091166004820152306024820152604401602060405180830381865afa158015610fea573d6000803e3d6000fd5b505050506040513d601f19601f8201168201806040525081019061100e919061491c565b10156110675760405162461bcd60e51b815260206004820152602260248201527f53656e64657220616c6c6f77616e6365206d757374206265203e3d20616d6f756044820152611b9d60f21b60648201526084016106e3565b8161107860e0870160c08801614c69565b6110829190614c9c565b6001600160601b03166001600160a01b0382166370a082316110a760208901896149ad565b6040516001600160e01b031960e084901b1681526001600160a01b039091166004820152602401602060405180830381865afa1580156110eb573d6000803e3d6000fd5b505050506040513d601f19601f8201168201806040525081019061110f919061491c565b101561115d5760405162461bcd60e51b815260206004820181905260248201527f53656e6465722062616c616e6365206d757374206265203e3d20616d6f756e7460448201526064016106e3565b6001600160a01b0381166323b872dd61117960208801886149ad565b858561118b60e08b0160c08c01614c69565b6111959190614c9c565b6040516001600160e01b031960e086901b1681526001600160a01b0393841660048201529290911660248301526001600160601b031660448201526064016020604051808303816000875af11580156111f2573d6000803e3d6000fd5b505050506040513d601f19601f820116820180604052508101906112169190614a52565b506040850180359061122b90602088016149ad565b6001600160a01b03167f18f7112b7bab68afa5bae58afb27a44357ea01c2850f33e5b17e264de835ef3061126260608901896149ca565b61127260a08b0160808c01614a18565b61128260c08c0160a08d01614a35565b61129260e08d0160c08e01614c69565b6040516112a3959493929190614cc3565b60405180910390a35050505050565b60006112c461065e60208401846149ad565b60005490915060ff16806112e757506112e78161034160a0850160808601614a35565b61132c5760405162461bcd60e51b8152602060048201526016602482015275141c9bdbd9881dda5b991bddc81a5cc818db1bdcd95960521b60448201526064016106e3565b60008051602061508583398151915261134f8261034160a0860160808701614a35565b60408051911515825260208201819052600490820152637265713160e01b606082015260800160405180910390a160065460405163010cf48d60e71b81523360048201526001600160a01b0390911690600090829063867a468090602401602060405180830381865afa1580156113ca573d6000803e3d6000fd5b505050506040513d601f19601f820116820180604052508101906113ee9190614901565b6009546000549192506001600160a01b031690610100900460ff16806114c157506001600160a01b038116635c6c1fef8561142f60a0890160808a01614a35565b8560405160200161144293929190614d04565b604051602081830303815290604052805190602001206040518263ffffffff1660e01b815260040161147691815260200190565b602060405180830381865afa158015611493573d6000803e3d6000fd5b505050506040513d601f19601f820116820180604052508101906114b79190614be2565b64ffffffffff1615155b61150d5760405162461bcd60e51b815260206004820152601c60248201527f596f75277665206265656e20616c72656164792072657761726465640000000060448201526064016106e3565b6000805160206150858339815191526001600160a01b038216635c6c1fef8661153c60a08a0160808b01614a35565b8660405160200161154f93929190614d04565b604051602081830303815290604052805190602001206040518263ffffffff1660e01b815260040161158391815260200190565b602060405180830381865afa1580156115a0573d6000803e3d6000fd5b505050506040513d601f19601f820116820180604052508101906115c49190614be2565b6040805164ffffffffff9092161515825260208201819052600490820152633932b89960e11b606082015260800160405180910390a160006001600160a01b03821663572943f78661161c60a08a0160808b01614a35565b6040516001600160e01b031960e085901b168152600481019290925261ffff166024820152604401602060405180830381865afa158015611661573d6000803e3d6000fd5b505050506040513d601f19601f82011682018060405250810190611685919061491c565b90506000600760009054906101000a90046001600160a01b03166001600160a01b0316638d73d86a6040518163ffffffff1660e01b8152600401602060405180830381865afa1580156116dc573d6000803e3d6000fd5b505050506040513d601f19601f820116820180604052508101906117009190614d34565b905060005b604051620153f560ea1b8152600481018490526001600160a01b0385169063054fd40090602401602060405180830381865afa158015611749573d6000803e3d6000fd5b505050506040513d601f19601f8201168201806040525081019061176d9190614901565b6001600160481b0316856001600160481b03161415801561179657508163ffffffff168160ff16105b1561184957866117ac60a08a0160808b01614a35565b604051635b3db70f60e11b8152600481018690526001600160a01b0387169063b67b6e1e90602401602060405180830381865afa1580156117f1573d6000803e3d6000fd5b505050506040513d601f19601f820116820180604052508101906118159190614901565b60405160200161182793929190614d04565b60408051601f1981840301815291905280516020909101209250600101611705565b60005462010000900460ff168061186857508163ffffffff168160ff16105b6118da5760405162461bcd60e51b815260206004820152603a60248201527f596f7572206e6f6465206861736e2774206265656e206177617264656420666f60448201527f72207468697320617373657420696e20746869732065706f636800000000000060648201526084016106e3565b6000805160206150858339815191528263ffffffff168260ff16106040516119229115158152604060208201819052600490820152637265713360e01b606082015260800190565b60405180910390a16000806119563361193e60208d018d6149ad565b8c602001358d60800160208101906101fa9190614a35565b60005491935091506301000000900460ff16806119ec57506119ec61197e60a08c018c614d5a565b80806020026020016040519081016040528093929190818152602001838360200280828437600092019190915250506040518692506119d1915060c08f0135908690602001918252602082015260400190565b60405160208183030381529060405280519060200120614403565b611a385760405162461bcd60e51b815260206004820152601760248201527f526f6f74206861736820646f65736e2774206d6174636800000000000000000060448201526064016106e3565b600080516020615085833981519152611ab8611a5760a08d018d614d5a565b80806020026020016040519081016040528093929190818152602001838360200280828437600081840152601f19601f82011690508083019250505050505050848d60c00135856040516020016119d1929190918252602082015260400190565b60408051911515825260208201819052600490820152631c995c4d60e21b606082015260800160405180910390a16001600160481b03871660208b01803590611b01908d6149ad565b6001600160a01b03167f366aaa9c8abe80c090bc64cea91ec9dd40e38cc712d3381824709c5a1562f2c4611b3860408f018f6149ca565b8f6060016020810190611b4b9190614a18565b604051611b5a93929190614da4565b60405180910390a46000866001600160a01b031663ac9d7cf48b8d6080016020810190611b879190614a35565b6040516001600160e01b031960e085901b168152600481019290925261ffff166024820152604401602060405180830381865afa158015611bcc573d6000803e3d6000fd5b505050506040513d601f19601f82011682018060405250810190611bf09190614d34565b611bfa9086614dcb565b63ffffffff16611c1060a08d0160808e01614a35565b60405163d1a640c760e01b8152600481018d90526001600160a01b038a169063d1a640c790602401602060405180830381865afa158015611c55573d6000803e3d6000fd5b505050506040513d601f19601f82011682018060405250810190611c799190614de8565b611c839190614e05565b611c8e906001614e20565b61ffff16886001600160a01b0316634089a17d8d6040518263ffffffff1660e01b8152600401611cc091815260200190565b602060405180830381865afa158015611cdd573d6000803e3d6000fd5b505050506040513d601f19601f82011682018060405250810190611d01919061494a565b611d0b9190614e3b565b611d159190614e3b565b6004805460405163a7b5dd5960e01b81526001600160481b038c16928101929092526001600160601b03831660248301529192506001600160a01b039091169063a7b5dd5990604401600060405180830381600087803b158015611d7857600080fd5b505af1158015611d8c573d6000803e3d6000fd5b5050604051634089a17d60e01b8152600481018d90526001600160a01b038a16925063e54b26ff91508c9084908490634089a17d90602401602060405180830381865afa158015611de1573d6000803e3d6000fd5b505050506040513d601f19601f82011682018060405250810190611e05919061494a565b611e0f9190614c9c565b6040516001600160e01b031960e085901b16815260048101929092526001600160601b03166024820152604401600060405180830381600087803b158015611e5657600080fd5b505af1158015611e6a573d6000803e3d6000fd5b50505050866001600160a01b031663beca40f38b8d6080016020810190611e919190614a35565b6040516001600160e01b031960e085901b168152600481019290925261ffff166024820152604401600060405180830381600087803b158015611ed357600080fd5b505af1158015611ee7573d6000803e3d6000fd5b50505050866001600160a01b0316633d6317168b8d6080016020810190611f0e9190614a35565b8b604051602001611f2193929190614d04565b60408051601f198184030181529082905280516020909101206001600160e01b031960e084901b168252600482015260006024820152604401600060405180830381600087803b158015611f7457600080fd5b505af1158015611f88573d6000803e3d6000fd5b505050505050505050505050505050565b6009546040516310dc199160e31b8152600481018490526060916001600160a01b03169081906386e0cc8890602401602060405180830381865afa158015611fe5573d6000803e3d6000fd5b505050506040513d601f19601f820116820180604052508101906120099190614a52565b6120255760405162461bcd60e51b81526004016106e390614c32565b60405163d1a640c760e01b8152600481018590526001600160a01b0382169063d1a640c790602401602060405180830381865afa15801561206a573d6000803e3d6000fd5b505050506040513d601f19601f8201168201806040525081019061208e9190614de8565b61ffff168361ffff16106120e05760405162461bcd60e51b815260206004820152601960248201527814d95c9d9a58d9481059dc99595b595b9d08195e1c1a5c9959603a1b60448201526064016106e3565b600754604080516346b9ec3560e11b815290516000926001600160a01b031691638d73d86a9160048083019260209291908290030181865afa15801561212a573d6000803e3d6000fd5b505050506040513d601f19601f8201168201806040525081019061214e9190614d34565b905060008163ffffffff1667ffffffffffffffff81111561217157612171614a8c565b6040519080825280602002602001820160405280156121c357816020015b60408051608081018252600080825260208083018290529282018190526060820152825260001990920191018161218f5790505b5060405163572943f760e01b81526004810188905261ffff871660248201529091506000906001600160a01b0385169063572943f790604401602060405180830381865afa158015612219573d6000803e3d6000fd5b505050506040513d601f19601f8201168201806040525081019061223d919061491c565b60405163223dea6d60e21b8152600481018290529091506001600160a01b038516906388f7a9b490602401608060405180830381865afa158015612285573d6000803e3d6000fd5b505050506040513d601f19601f820116820180604052508101906122a99190614e61565b826000815181106122bc576122bc6148cf565b6020026020010181905250600080836000815181106122dd576122dd6148cf565b60200260200101516040015190506000600190505b8563ffffffff168160ff1610801561231257506001600160481b03821615155b156123fb5789898360405160200161232c93929190614d04565b60408051808303601f1901815290829052805160209091012063223dea6d60e21b82526004820181905293506001600160a01b038816906388f7a9b490602401608060405180830381865afa158015612389573d6000803e3d6000fd5b505050506040513d601f19601f820116820180604052508101906123ad9190614e61565b858260ff16815181106123c2576123c26148cf565b6020026020010181905250848160ff16815181106123e2576123e26148cf565b60209081029190910101516040015191506001016122f2565b5092955050505050505b92915050565b612413613b27565b600154604051630110ceef60e21b815260206004820152600c60248201526b48617368696e6750726f787960a01b60448201526001600160a01b03909116906304433bbc90606401602060405180830381865afa158015612478573d6000803e3d6000fd5b505050506040513d601f19601f8201168201806040525081019061249c9190614ede565b600280546001600160a01b0319166001600160a01b03928316179055600154604051630110ceef60e21b815260206004820152600c60248201526b53636f72696e6750726f787960a01b60448201529116906304433bbc90606401602060405180830381865afa158015612514573d6000803e3d6000fd5b505050506040513d601f19601f820116820180604052508101906125389190614ede565b600380546001600160a01b0319166001600160a01b03928316179055600154604051630110ceef60e21b81526020600482015260076024820152665374616b696e6760c81b60448201529116906304433bbc90606401602060405180830381865afa1580156125ab573d6000803e3d6000fd5b505050506040513d601f19601f820116820180604052508101906125cf9190614ede565b600480546001600160a01b039283166001600160a01b0319909116178155600154604051630110ceef60e21b81529216916304433bbc91612635910160208082526010908201526f417373657274696f6e53746f7261676560801b604082015260600190565b602060405180830381865afa158015612652573d6000803e3d6000fd5b505050506040513d601f19601f820116820180604052508101906126769190614ede565b600580546001600160a01b0319166001600160a01b03928316179055600154604051630110ceef60e21b815260206004820152600f60248201526e4964656e7469747953746f7261676560881b60448201529116906304433bbc90606401602060405180830381865afa1580156126f1573d6000803e3d6000fd5b505050506040513d601f19601f820116820180604052508101906127159190614ede565b600680546001600160a01b0319166001600160a01b03928316179055600154604051630110ceef60e21b8152602060048201526011602482015270506172616d657465727353746f7261676560781b60448201529116906304433bbc90606401602060405180830381865afa158015612792573d6000803e3d6000fd5b505050506040513d601f19601f820116820180604052508101906127b69190614ede565b600780546001600160a01b0319166001600160a01b03928316179055600154604051630110ceef60e21b815260206004820152600e60248201526d50726f66696c6553746f7261676560901b60448201529116906304433bbc90606401602060405180830381865afa158015612830573d6000803e3d6000fd5b505050506040513d601f19601f820116820180604052508101906128549190614ede565b600880546001600160a01b0319166001600160a01b03928316179055600154604051630110ceef60e21b815260206004820152601960248201527f5365727669636541677265656d656e7453746f7261676556310000000000000060448201529116906304433bbc90606401602060405180830381865afa1580156128dd573d6000803e3d6000fd5b505050506040513d601f19601f820116820180604052508101906129019190614ede565b600980546001600160a01b0319166001600160a01b03928316179055600154604051630110ceef60e21b81526020600482015260146024820152735368617264696e675461626c6553746f7261676560601b60448201529116906304433bbc90606401602060405180830381865afa158015612981573d6000803e3d6000fd5b505050506040513d601f19601f820116820180604052508101906129a59190614ede565b600a80546001600160a01b0319166001600160a01b03928316179055600154604051630110ceef60e21b815260206004820152600e60248201526d5374616b696e6753746f7261676560901b60448201529116906304433bbc90606401602060405180830381865afa158015612a1f573d6000803e3d6000fd5b505050506040513d601f19601f82011682018060405250810190612a439190614ede565b600b80546001600160a01b0319166001600160a01b03928316179055600154604051630110ceef60e21b81526020600482015260056024820152642a37b5b2b760d91b60448201529116906304433bbc90606401602060405180830381865afa158015612ab4573d6000803e3d6000fd5b505050506040513d601f19601f82011682018060405250810190612ad89190614ede565b600c80546001600160a01b0319166001600160a01b0392909216919091179055565b600954604051630271c2cf60e61b8152600481018490526000916001600160a01b03169082908290639c70b3c090602401602060405180830381865afa158015612b48573d6000803e3d6000fd5b505050506040513d601f19601f82011682018060405250810190612b6c919061491c565b905080600003612b8e5760405162461bcd60e51b81526004016106e390614c32565b60405163d1a640c760e01b8152600481018690526001600160a01b0383169063d1a640c790602401602060405180830381865afa158015612bd3573d6000803e3d6000fd5b505050506040513d601f19601f82011682018060405250810190612bf79190614de8565b61ffff168461ffff1610612c495760405162461bcd60e51b815260206004820152601960248201527814d95c9d9a58d9481059dc99595b595b9d08195e1c1a5c9959603a1b60448201526064016106e3565b60405163484a47e760e01b81526004810186905242906000906001600160a01b0385169063484a47e790602401602060405180830381865afa158015612c93573d6000803e3d6000fd5b505050506040513d601f19601f82011682018060405250810190612cb79190614efb565b6040516399149f7760e01b8152600481018990529091506000906001600160a01b038616906399149f7790602401602060405180830381865afa158015612d02573d6000803e3d6000fd5b505050506040513d601f19601f82011682018060405250810190612d269190614a6f565b905060006064612d3960ff841685614f24565b612d439190614f53565b6001600160801b0316905060006064600760009054906101000a90046001600160a01b03166001600160a01b0316639d3ceb0c6040518163ffffffff1660e01b8152600401602060405180830381865afa158015612da5573d6000803e3d6000fd5b505050506040513d601f19601f82011682018060405250810190612dc99190614a6f565b612dd69060ff1686614f24565b612de09190614f53565b6001600160801b0316905081612dfa61ffff8b1686614f24565b612e0d906001600160801b031688614f6d565b612e179190614f6d565b85118015612e5a57508082612e3061ffff8c1687614f24565b612e43906001600160801b031689614f6d565b612e4d9190614f6d565b612e579190614f6d565b85105b9a9950505050505050505050565b600954604051630271c2cf60e61b8152600481018490526000916001600160a01b03169082908290639c70b3c090602401602060405180830381865afa158015612eb6573d6000803e3d6000fd5b505050506040513d601f19601f82011682018060405250810190612eda919061491c565b905080600003612efc5760405162461bcd60e51b81526004016106e390614c32565b60405163d1a640c760e01b8152600481018690526001600160a01b0383169063d1a640c790602401602060405180830381865afa158015612f41573d6000803e3d6000fd5b505050506040513d601f19601f82011682018060405250810190612f659190614de8565b61ffff168461ffff1610612fc65760405162461bcd60e51b815260206004820152602260248201527f536572766963652041677265656d656e7420686173206265656e206578706972604482015261195960f21b60648201526084016106e3565b60075460405163484a47e760e01b8152600481018790526001600160a01b0391821691429160009186169063484a47e790602401602060405180830381865afa158015613017573d6000803e3d6000fd5b505050506040513d601f19601f8201168201806040525081019061303b9190614efb565b90508661ffff166000036130c757826001600160a01b031663e8d487ff6040518163ffffffff1660e01b8152600401602060405180830381865afa158015613087573d6000803e3d6000fd5b505050506040513d601f19601f820116820180604052508101906130ab9190614de8565b6130b99061ffff1685614f6d565b821095505050505050612405565b6130d561ffff881682614f24565b6130e8906001600160801b031685614f6d565b821180156131875750826001600160a01b031663e8d487ff6040518163ffffffff1660e01b8152600401602060405180830381865afa15801561312f573d6000803e3d6000fd5b505050506040513d601f19601f820116820180604052508101906131539190614de8565b61ffff168761ffff16826131679190614f24565b61317a906001600160801b031686614f6d565b6131849190614f6d565b82105b98975050505050505050565b61319b61434b565b60006131aa60208301836149ad565b6001600160a01b0316036132005760405162461bcd60e51b815260206004820152601b60248201527f41737365742063726561746f722063616e6e6f7420626520307830000000000060448201526064016106e3565b6001546001600160a01b03166334f702db61322160408401602085016149ad565b6040516001600160e01b031960e084901b1681526001600160a01b039091166004820152602401602060405180830381865afa158015613265573d6000803e3d6000fd5b505050506040513d601f19601f820116820180604052508101906132899190614a52565b6132d55760405162461bcd60e51b815260206004820152601c60248201527f41737365742053746f72616765206e6f7420696e20746865206875620000000060448201526064016106e3565b7fc5d2460186f7233c927e7db2dcc703c0e500b653ca82273b7bfad8045d85a47061330360608301836149ca565b604051613311929190614f80565b60405180910390200361335f5760405162461bcd60e51b81526020600482015260166024820152754b6579776f72642063616e277420626520656d70747960501b60448201526064016106e3565b61336f60c0820160a08301614a35565b61ffff166000036133be5760405162461bcd60e51b8152602060048201526019602482015278045706f636873206e756d6265722063616e6e6f74206265203603c1b60448201526064016106e3565b6133ce60e0820160c08301614c69565b6001600160601b03166000036134215760405162461bcd60e51b81526020600482015260186024820152770546f6b656e20616d6f756e742063616e6e6f7420626520360441b60448201526064016106e3565b6003546001600160a01b031663e12e56a7613443610100840160e08501614a18565b6040516001600160e01b031960e084901b16815260ff9091166004820152602401602060405180830381865afa158015613481573d6000803e3d6000fd5b505050506040513d601f19601f820116820180604052508101906134a59190614a52565b6134f15760405162461bcd60e51b815260206004820152601c60248201527f53636f72652066756e6374696f6e20646f65736e27742065786973740000000060448201526064016106e3565b6000613506610ac260408401602085016149ad565b6009546007549192506001600160a01b03908116911681634c72fefc8461353360c0880160a08901614a35565b846001600160a01b03166357d775f86040518163ffffffff1660e01b8152600401602060405180830381865afa158015613571573d6000803e3d6000fd5b505050506040513d601f19601f820116820180604052508101906135959190614efb565b6135a560e08a0160c08b01614c69565b6135b66101008b0160e08c01614a18565b6136a46135c660208d018d6149ad565b896001600160a01b0316638e6262426040518163ffffffff1660e01b8152600401602060405180830381865afa158015613604573d6000803e3d6000fd5b505050506040513d601f19601f820116820180604052508101906136289190614a6f565b8a6001600160a01b031663ff2117436040518163ffffffff1660e01b8152600401602060405180830381865afa158015613666573d6000803e3d6000fd5b505050506040513d601f19601f8201168201806040525081019061368a9190614a6f565b6136949190614f90565b61369f906001614fa9565b614419565b886001600160a01b0316638e6262426040518163ffffffff1660e01b8152600401602060405180830381865afa1580156136e2573d6000803e3d6000fd5b505050506040513d601f19601f820116820180604052508101906137069190614a6f565b6137109190614fa9565b6040516001600160e01b031960e089901b168152600481019690965261ffff90941660248601526001600160801b0390921660448501526001600160601b0316606484015260ff90811660848401521660a482015260c401600060405180830381600087803b15801561378257600080fd5b505af1158015613796573d6000803e3d6000fd5b5050600c546001600160a01b031691506137b8905060e0860160c08701614c69565b6001600160601b03166001600160a01b03821663dd62ed3e6137dd60208901896149ad565b6040516001600160e01b031960e084901b1681526001600160a01b039091166004820152306024820152604401602060405180830381865afa158015613827573d6000803e3d6000fd5b505050506040513d601f19601f8201168201806040525081019061384b919061491c565b10156138995760405162461bcd60e51b815260206004820152601f60248201527f53656e64657220616c6c6f77616e6365206d757374203e3d20616d6f756e740060448201526064016106e3565b6138a960e0860160c08701614c69565b6001600160601b03166001600160a01b0382166370a082316138ce60208901896149ad565b6040516001600160e01b031960e084901b1681526001600160a01b039091166004820152602401602060405180830381865afa158015613912573d6000803e3d6000fd5b505050506040513d601f19601f82011682018060405250810190613936919061491c565b10156139845760405162461bcd60e51b815260206004820181905260248201527f53656e6465722062616c616e6365206d757374206265203e3d20616d6f756e7460448201526064016106e3565b6001600160a01b0381166323b872dd6139a060208801886149ad565b856139b160e08a0160c08b01614c69565b6040516001600160e01b031960e086901b1681526001600160a01b0393841660048201529290911660248301526001600160601b031660448201526064016020604051808303816000875af1158015613a0e573d6000803e3d6000fd5b505050506040513d601f19601f82011682018060405250810190613a329190614a52565b5060408501803590613a4790602088016149ad565b6001600160a01b03167f4b81188c3c973dd634ec0dae5b7e72f92bb03834c830739d63935923950d6f64613a7e60608901896149ca565b613a8e60a08b0160808c01614a18565b42613a9f60c08d0160a08e01614a35565b896001600160a01b03166357d775f86040518163ffffffff1660e01b8152600401602060405180830381865afa158015613add573d6000803e3d6000fd5b505050506040513d601f19601f82011682018060405250810190613b019190614efb565b8d60c0016020810190613b149190614c69565b6040516112a39796959493929190614fc2565b600160009054906101000a90046001600160a01b03166001600160a01b0316638da5cb5b6040518163ffffffff1660e01b8152600401602060405180830381865afa158015613b7a573d6000803e3d6000fd5b505050506040513d601f19601f82011682018060405250810190613b9e9190614ede565b6001600160a01b0316336001600160a01b031614613bfe5760405162461bcd60e51b815260206004820181905260248201527f466e2063616e206f6e6c79206265207573656420627920687562206f776e657260448201526064016106e3565b565b6002546040516000916001600160a01b0316906345ed59e5908490613c2f908a908a908a908a90602001615019565b6040516020818303038152906040526040518363ffffffff1660e01b8152600401613c5b929190615047565b602060405180830381865afa158015613c78573d6000803e3d6000fd5b505050506040513d601f19601f82011682018060405250810190613c9c919061491c565b9695505050505050565b6009546040516001600160a01b0390911690600090613ccd90899089908990602001614d04565b60408051808303601f1901815290829052805160209091012063c45d174960e01b82526004820181905291506001600160a01b0383169063c45d174990602401602060405180830381865afa158015613d2a573d6000803e3d6000fd5b505050506040513d601f19601f82011682018060405250810190613d4e9190614a52565b15613d9b5760405162461bcd60e51b815260206004820152601960248201527f4e6f64652068617320616c726561647920636f6d6d697465640000000000000060448201526064016106e3565b60405163572943f760e01b81526004810189905261ffff881660248201526000906001600160a01b0384169063572943f790604401602060405180830381865afa158015613ded573d6000803e3d6000fd5b505050506040513d601f19601f82011682018060405250810190613e11919061491c565b600754604051635b3db70f60e11b8152600481018390529192506001600160a01b039081169160009186169063b67b6e1e90602401602060405180830381865afa158015613e63573d6000803e3d6000fd5b505050506040513d601f19601f82011682018060405250810190613e879190614901565b90506000826001600160a01b0316638d73d86a6040518163ffffffff1660e01b8152600401602060405180830381865afa158015613ec9573d6000803e3d6000fd5b505050506040513d601f19601f82011682018060405250810190613eed9190614d34565b905060005b604051635c6c1fef60e01b8152600481018690526001600160a01b03881690635c6c1fef90602401602060405180830381865afa158015613f37573d6000803e3d6000fd5b505050506040513d601f19601f82011682018060405250810190613f5b9190614be2565b64ffffffffff168864ffffffffff16108015613f7f57506001600160481b03831615155b8015613f9357508163ffffffff168160ff16105b15614038578c8c84604051602001613fad93929190614d04565b60408051808303601f19018152908290528051602090910120635b3db70f60e11b82526004820181905295506001600160a01b0388169063b67b6e1e90602401602060405180830381865afa15801561400a573d6000803e3d6000fd5b505050506040513d601f19601f8201168201806040525081019061402e9190614901565b9250600101613ef2565b8163ffffffff168160ff16106140905760405162461bcd60e51b815260206004820152601860248201527f4e6f64652072616e6b2073686f756c64206265203c205230000000000000000060448201526064016106e3565b60405163cf57ca2f60e01b8152600481018790526001600160481b03808d166024830152808c1660448301528a16606482015264ffffffffff891660848201526001600160a01b0388169063cf57ca2f9060a401600060405180830381600087803b1580156140fe57600080fd5b505af1158015614112573d6000803e3d6000fd5b505060405163223dea6d60e21b815260048101889052600092506001600160a01b038a1691506388f7a9b490602401608060405180830381865afa15801561415e573d6000803e3d6000fd5b505050506040513d601f19601f820116820180604052508101906141829190614e61565b905060ff821615801561419d575080516001600160481b0316155b156142125760405163447b6fab60e11b8152600481018f905261ffff8e166024820152604481018890526001600160a01b038916906388f6df5690606401600060405180830381600087803b1580156141f557600080fd5b505af1158015614209573d6000803e3d6000fd5b5050505061433b565b60ff82161580156142355750806060015164ffffffffff168964ffffffffff1611155b1561424f5761424a8e8e83600001518f614479565b61433b565b60ff82161580156142715750806060015164ffffffffff168964ffffffffff16115b156142f15760405163447b6fab60e11b8152600481018f905261ffff8e166024820152604481018890526001600160a01b038916906388f6df5690606401600060405180830381600087803b1580156142c957600080fd5b505af11580156142dd573d6000803e3d6000fd5b5050505061424a8e8e8e8460000151614479565b806060015164ffffffffff168964ffffffffff16111561432b5761431b8e8e83602001518f614479565b61424a8e8e8e8460000151614479565b61433b8e8e83600001518f614479565b5050505050505050505050505050565b600154604051631627905560e01b81523360048201526001600160a01b0390911690631627905590602401602060405180830381865afa158015614393573d6000803e3d6000fd5b505050506040513d601f19601f820116820180604052508101906143b79190614a52565b613bfe5760405162461bcd60e51b815260206004820181905260248201527f466e2063616e206f6e6c792062652063616c6c6564206279207468652068756260448201526064016106e3565b60008261441085846145b6565b14949350505050565b604080514260208201526bffffffffffffffffffffffff19606085901b169181019190915243605482015260009060ff8316906074016040516020818303038152906040528051906020012060001c6144729190614999565b9392505050565b6009546040516001600160a01b03909116908190638a0f01b5906144a590889088908890602001614d04565b60408051601f198184030181529082905280516020909101206001600160e01b031960e084901b16825260048201526001600160481b0385166024820152604401600060405180830381600087803b15801561450057600080fd5b505af1158015614514573d6000803e3d6000fd5b50505050806001600160a01b031663e184b9e886868560405160200161453c93929190614d04565b60408051601f198184030181529082905280516020909101206001600160e01b031960e084901b16825260048201526001600160481b0386166024820152604401600060405180830381600087803b15801561459757600080fd5b505af11580156145ab573d6000803e3d6000fd5b505050505050505050565b600081815b84518110156145fb576145e7828683815181106145da576145da6148cf565b6020026020010151614603565b9150806145f38161506b565b9150506145bb565b509392505050565b600081831061461f576000828152602084905260409020614472565b6000838152602083905260409020614472565b60006020828403121561464457600080fd5b5035919050565b60005b8381101561466657818101518382015260200161464e565b50506000910152565b6000815180845261468781602086016020860161464b565b601f01601f19169290920160200192915050565b602081526000614472602083018461466f565b60ff811681146146bd57600080fd5b50565b80151581146146bd57600080fd5b600080604083850312156146e157600080fd5b82356146ec816146ae565b915060208301356146fc816146c0565b809150509250929050565b6001600160a01b03811681146146bd57600080fd5b61ffff811681146146bd57600080fd5b6000806000806080858703121561474257600080fd5b843561474d81614707565b9350602085013561475d81614707565b92506040850135915060608501356147748161471c565b939692955090935050565b60006020828403121561479157600080fd5b813567ffffffffffffffff8111156147a857600080fd5b820160a0818503121561447257600080fd5b6000602082840312156147cc57600080fd5b813567ffffffffffffffff8111156147e357600080fd5b8201610100818503121561447257600080fd5b60006020828403121561480857600080fd5b813567ffffffffffffffff81111561481f57600080fd5b820160e0818503121561447257600080fd5b6000806040838503121561484457600080fd5b8235915060208301356146fc8161471c565b602080825282518282018190526000919060409081850190868401855b828110156148c257815180516001600160481b0390811686528782015181168887015286820151168686015260609081015164ffffffffff169085015260809093019290850190600101614873565b5091979650505050505050565b634e487b7160e01b600052603260045260246000fd5b80516001600160481b03811681146148fc57600080fd5b919050565b60006020828403121561491357600080fd5b614472826148e5565b60006020828403121561492e57600080fd5b5051919050565b6001600160601b03811681146146bd57600080fd5b60006020828403121561495c57600080fd5b815161447281614935565b6000825161497981846020870161464b565b9190910192915050565b634e487b7160e01b600052601260045260246000fd5b6000826149a8576149a8614983565b500690565b6000602082840312156149bf57600080fd5b813561447281614707565b6000808335601e198436030181126149e157600080fd5b83018035915067ffffffffffffffff8211156149fc57600080fd5b602001915036819003821315614a1157600080fd5b9250929050565b600060208284031215614a2a57600080fd5b8135614472816146ae565b600060208284031215614a4757600080fd5b81356144728161471c565b600060208284031215614a6457600080fd5b8151614472816146c0565b600060208284031215614a8157600080fd5b8151614472816146ae565b634e487b7160e01b600052604160045260246000fd5b600060208284031215614ab457600080fd5b815167ffffffffffffffff80821115614acc57600080fd5b818401915084601f830112614ae057600080fd5b815181811115614af257614af2614a8c565b604051601f8201601f19908116603f01168101908382118183101715614b1a57614b1a614a8c565b81604052828152876020848701011115614b3357600080fd5b614b4483602083016020880161464b565b979650505050505050565b81835281816020850137506000828201602090810191909152601f909101601f19169091010190565b60ff8716815260ff8616602082015260a060408201526000614b9d60a083018761466f565b8281036060840152614bb0818688614b4f565b9150506001600160601b0383166080830152979650505050505050565b805164ffffffffff811681146148fc57600080fd5b600060208284031215614bf457600080fd5b61447282614bcd565b606081526000614c11606083018688614b4f565b905060ff8416602083015264ffffffffff8316604083015295945050505050565b6020808252601f908201527f536572766963652041677265656d656e7420646f65736e277420657869737400604082015260600190565b600060208284031215614c7b57600080fd5b813561447281614935565b634e487b7160e01b600052601160045260246000fd5b6001600160601b03828116828216039080821115614cbc57614cbc614c86565b5092915050565b608081526000614cd7608083018789614b4f565b60ff9590951660208301525061ffff9290921660408301526001600160601b031660609091015292915050565b92835260f09190911b6001600160f01b031916602083015260b81b6001600160b81b0319166022820152602b0190565b600060208284031215614d4657600080fd5b815163ffffffff8116811461447257600080fd5b6000808335601e19843603018112614d7157600080fd5b83018035915067ffffffffffffffff821115614d8c57600080fd5b6020019150600581901b3603821315614a1157600080fd5b604081526000614db8604083018587614b4f565b905060ff83166020830152949350505050565b63ffffffff828116828216039080821115614cbc57614cbc614c86565b600060208284031215614dfa57600080fd5b81516144728161471c565b61ffff828116828216039080821115614cbc57614cbc614c86565b61ffff818116838216019080821115614cbc57614cbc614c86565b60006001600160601b0380841680614e5557614e55614983565b92169190910492915050565b600060808284031215614e7357600080fd5b6040516080810181811067ffffffffffffffff82111715614e9657614e96614a8c565b604052614ea2836148e5565b8152614eb0602084016148e5565b6020820152614ec1604084016148e5565b6040820152614ed260608401614bcd565b60608201529392505050565b600060208284031215614ef057600080fd5b815161447281614707565b600060208284031215614f0d57600080fd5b81516001600160801b038116811461447257600080fd5b60006001600160801b0380831681851681830481118215151615614f4a57614f4a614c86565b02949350505050565b60006001600160801b0380841680614e5557614e55614983565b8082018082111561240557612405614c86565b8183823760009101908152919050565b60ff828116828216039081111561240557612405614c86565b60ff818116838216019081111561240557612405614c86565b60c081526000614fd660c08301898b614b4f565b60ff97909716602083015250604081019490945261ffff9290921660608401526001600160801b031660808301526001600160601b031660a09091015292915050565b6001600160601b03198560601b16815283601482015281836034830137600091016034019081529392505050565b60ff83168152604060208201526000615063604083018461466f565b949350505050565b60006001820161507d5761507d614c86565b506001019056fe016e1e1566f4e4051f44e151b6ee2104d817d8b587cea6447703c0e6547acbc6a2646970667358221220b47c457faf1d3081986d3f7578001fa4487fe841adc8801ecc2e8e57c44fe45764736f6c63430008100033",
  "immutableReferences": {},
  "source": "// SPDX-License-Identifier: MIT\n\npragma solidity ^0.8.4;\n\nimport { HashingProxy } from \"./HashingProxy.sol\";\nimport { Hub } from \"./Hub.sol\";\nimport { ScoringProxy } from \"./ScoringProxy.sol\";\nimport { Staking } from \"./Staking.sol\";\nimport { AbstractAsset } from \"./assets/AbstractAsset.sol\";\nimport { AssertionStorage } from \"./storage/AssertionStorage.sol\";\nimport { IdentityStorage } from \"./storage/IdentityStorage.sol\";\nimport { ParametersStorage } from \"./storage/ParametersStorage.sol\";\nimport { ProfileStorage } from \"./storage/ProfileStorage.sol\";\nimport { ServiceAgreementStorageV1 } from \"./storage/ServiceAgreementStorageV1.sol\";\nimport { ShardingTableStorage } from \"./storage/ShardingTableStorage.sol\";\nimport { StakingStorage } from \"./storage/StakingStorage.sol\";\nimport { Named } from \"./interface/Named.sol\";\nimport { Versioned } from \"./interface/Versioned.sol\";\nimport { ServiceAgreementStructsV1 } from \"./structs/ServiceAgreementStructsV1.sol\";\nimport { IERC20 } from \"@openzeppelin/contracts/token/ERC20/IERC20.sol\";\nimport { MerkleProof } from \"@openzeppelin/contracts/utils/cryptography/MerkleProof.sol\";\n\ncontract ServiceAgreementV1 is Named, Versioned {\n\n    event ServiceAgreementV1Created(\n        address indexed assetContract,\n        uint256 indexed tokenId,\n        bytes keyword,\n        uint8 hashFunctionId,\n        uint256 startTime,\n        uint16 epochsNumber,\n        uint128 epochLength,\n        uint96 tokenAmount\n    );\n    event ServiceAgreementV1Updated(\n        address indexed assetContract,\n        uint256 indexed tokenId,\n        bytes keyword,\n        uint8 hashFunctionId,\n        uint16 epochsNumber,\n        uint96 tokenAmount\n    );\n    event CommitSubmitted(\n        address indexed assetContract,\n        uint256 indexed tokenId,\n        bytes keyword,\n        uint8 hashFunctionId,\n        uint72 indexed identityId,\n        uint40 score\n    );\n    event ProofSubmitted(\n        address indexed assetContract,\n        uint256 indexed tokenId,\n        bytes keyword,\n        uint8 hashFunctionId,\n        uint72 indexed identityId\n    );\n    event Logger(bool value, string message);\n\n    string constant private _NAME = \"ServiceAgreementV1\";\n    string constant private _VERSION = \"1.0.0\";\n\n    bool[4] public _reqs = [true, true, true, true];\n\n    Hub public hub;\n    HashingProxy public hashingProxy;\n    ScoringProxy public scoringProxy;\n    Staking public stakingContract;\n    AssertionStorage public assertionStorage;\n    IdentityStorage public identityStorage;\n    ParametersStorage public parametersStorage;\n    ProfileStorage public profileStorage;\n    ServiceAgreementStorageV1 public serviceAgreementStorageV1;\n    ShardingTableStorage public shardingTableStorage;\n    StakingStorage public stakingStorage;\n    IERC20 public tokenContract;\n\n    constructor (address hubAddress) {\n        require(hubAddress != address(0));\n\n        hub = Hub(hubAddress);\n        initialize();\n    }\n\n    modifier onlyHubOwner() {\n\t\t_checkHubOwner();\n\t\t_;\n\t}\n\n    modifier onlyContracts() {\n        _checkHub();\n        _;\n    }\n\n    function initialize() public onlyHubOwner {\n\t\thashingProxy = HashingProxy(hub.getContractAddress(\"HashingProxy\"));\n        scoringProxy = ScoringProxy(hub.getContractAddress(\"ScoringProxy\"));\n        stakingContract = Staking(hub.getContractAddress(\"Staking\"));\n        assertionStorage = AssertionStorage(hub.getContractAddress(\"AssertionStorage\"));\n        identityStorage = IdentityStorage(hub.getContractAddress(\"IdentityStorage\"));\n        parametersStorage = ParametersStorage(hub.getContractAddress(\"ParametersStorage\"));\n        profileStorage = ProfileStorage(hub.getContractAddress(\"ProfileStorage\"));\n        serviceAgreementStorageV1 = ServiceAgreementStorageV1(hub.getContractAddress(\"ServiceAgreementStorageV1\"));\n        shardingTableStorage = ShardingTableStorage(hub.getContractAddress(\"ShardingTableStorage\"));\n        stakingStorage = StakingStorage(hub.getContractAddress(\"StakingStorage\"));\n        tokenContract = IERC20(hub.getContractAddress(\"Token\"));\n\t}\n\n    function name() external pure virtual override returns (string memory) {\n        return _NAME;\n    }\n\n    function version() external pure virtual override returns (string memory) {\n        return _VERSION;\n    }\n\n    function createServiceAgreement(ServiceAgreementStructsV1.ServiceAgreementInputArgs calldata args)\n        external\n        onlyContracts\n    {\n        require(args.assetCreator != address(0), \"Asset creator cannot be 0x0\");\n        require(hub.isAssetStorage(args.assetContract), \"Asset Storage not in the hub\");\n        require(keccak256(args.keyword) != keccak256(\"\"), \"Keyword can't be empty\");\n        require(args.epochsNumber != 0, \"Epochs number cannot be 0\");\n        require(args.tokenAmount != 0, \"Token amount cannot be 0\");\n        require(scoringProxy.isScoreFunction(args.scoreFunctionId), \"Score function doesn't exist\");\n\n        bytes32 agreementId = _generateAgreementId(args.assetContract, args.tokenId, args.keyword, args.hashFunctionId);\n\n        ServiceAgreementStorageV1 sasV1 = serviceAgreementStorageV1;\n        ParametersStorage params = parametersStorage;\n\n        sasV1.createServiceAgreementObject(\n            agreementId,\n            args.epochsNumber,\n            params.epochLength(),\n            args.tokenAmount,\n            args.scoreFunctionId,\n            params.minProofWindowOffsetPerc() + _generatePseudorandomUint8(\n                args.assetCreator,\n                params.maxProofWindowOffsetPerc() - params.minProofWindowOffsetPerc() + 1\n            )\n        );\n\n        IERC20 tknc = tokenContract;\n        require(\n            tknc.allowance(args.assetCreator, address(this)) >= args.tokenAmount,\n            \"Sender allowance must >= amount\"\n        );\n        require(tknc.balanceOf(args.assetCreator) >= args.tokenAmount, \"Sender balance must be >= amount\");\n\n        tknc.transferFrom(args.assetCreator, address(sasV1), args.tokenAmount);\n\n        emit ServiceAgreementV1Created(\n            args.assetContract,\n            args.tokenId,\n            args.keyword,\n            args.hashFunctionId,\n            block.timestamp,\n            args.epochsNumber,\n            params.epochLength(),\n            args.tokenAmount\n        );\n    }\n\n    // TODO: Split into smaller functions [update only epochsNumber / tokenAmount / scoreFunctionId etc.]\n    function updateServiceAgreement(ServiceAgreementStructsV1.ServiceAgreementInputArgs calldata args)\n        external\n        onlyContracts\n    {\n        bytes32 agreementId = _generateAgreementId(args.assetContract, args.tokenId, args.keyword, args.hashFunctionId);\n\n        ServiceAgreementStorageV1 sasV1 = serviceAgreementStorageV1;\n\n        require(args.assetCreator != address(0), \"Asset creator cannot be 0x0\");\n        require(sasV1.serviceAgreementExists(agreementId), \"Service Agreement doesn't exist\");\n        require(args.epochsNumber != 0, \"Epochs number cannot be 0\");\n        require(args.tokenAmount != 0, \"Token amount cannot be 0\");\n        require(scoringProxy.isScoreFunction(args.scoreFunctionId), \"Score function doesn't exist\");\n\n        uint96 actualRewardAmount = sasV1.getAgreementTokenAmount(agreementId);\n\n        sasV1.setAgreementEpochsNumber(agreementId, args.epochsNumber);\n        sasV1.setAgreementTokenAmount(agreementId, args.tokenAmount);\n        sasV1.setAgreementScoreFunctionId(agreementId, args.scoreFunctionId);\n\n        IERC20 tknc = tokenContract;\n\n        require(\n            tknc.allowance(args.assetCreator, address(this)) >= (args.tokenAmount - actualRewardAmount),\n            \"Sender allowance must be >= amount\"\n        );\n        require(\n            tknc.balanceOf(args.assetCreator) >= (args.tokenAmount - actualRewardAmount),\n            \"Sender balance must be >= amount\"\n        );\n\n        tknc.transferFrom(args.assetCreator, address(sasV1), args.tokenAmount - actualRewardAmount);\n\n        emit ServiceAgreementV1Updated(\n            args.assetContract,\n            args.tokenId,\n            args.keyword,\n            args.hashFunctionId,\n            args.epochsNumber,\n            args.tokenAmount\n        );\n    }\n\n    function isCommitWindowOpen(bytes32 agreementId, uint16 epoch) public view returns (bool) {\n        ServiceAgreementStorageV1 sasV1 = serviceAgreementStorageV1;\n        uint256 startTime = sasV1.getAgreementStartTime(agreementId);\n\n        require(startTime != 0, \"Service Agreement doesn't exist\");\n        require(epoch < sasV1.getAgreementEpochsNumber(agreementId), \"Service Agreement has been expired\");\n\n        ParametersStorage params = parametersStorage;\n        uint256 timeNow = block.timestamp;\n        uint128 epochLength = sasV1.getAgreementEpochLength(agreementId);\n\n        if (epoch == 0) {\n            return timeNow < (startTime + params.commitWindowDuration());\n        }\n\n        return (\n            timeNow > (startTime + epochLength * epoch) &&\n            timeNow < (startTime + epochLength * epoch + params.commitWindowDuration())\n        );\n    }\n\n    function getTopCommitSubmissions(bytes32 agreementId, uint16 epoch)\n        external\n        view\n        returns (ServiceAgreementStructsV1.CommitSubmission[] memory)\n    {\n        ServiceAgreementStorageV1 sasV1 = serviceAgreementStorageV1;\n\n        require(sasV1.serviceAgreementExists(agreementId), \"Service Agreement doesn't exist\");\n        require(epoch < sasV1.getAgreementEpochsNumber(agreementId), \"Service Agreement expired\");\n\n        uint32 r0 = parametersStorage.R0();\n\n        ServiceAgreementStructsV1.CommitSubmission[] memory epochCommits =\n            new ServiceAgreementStructsV1.CommitSubmission[](r0);\n\n        bytes32 epochSubmissionsHead = sasV1.getAgreementEpochSubmissionHead(agreementId, epoch);\n\n        epochCommits[0] = sasV1.getCommitSubmission(epochSubmissionsHead);\n\n        bytes32 commitId;\n        uint72 nextIdentityId = epochCommits[0].nextIdentityId;\n        uint8 submissionsIdx = 1;\n        while((submissionsIdx < r0) && (nextIdentityId != 0)) {\n            commitId = keccak256(abi.encodePacked(agreementId, epoch, nextIdentityId));\n            epochCommits[submissionsIdx] = sasV1.getCommitSubmission(commitId);\n\n            nextIdentityId = epochCommits[submissionsIdx].nextIdentityId;\n\n            unchecked { submissionsIdx++; }\n        }\n\n        return epochCommits;\n    }\n\n    function submitCommit(ServiceAgreementStructsV1.CommitInputArgs calldata args) external {\n        bytes32 agreementId = _generateAgreementId(args.assetContract, args.tokenId, args.keyword, args.hashFunctionId);\n\n        require(isCommitWindowOpen(agreementId, args.epoch), \"Commit window is closed\");\n\n        uint72 identityId = identityStorage.getIdentityId(msg.sender);\n\n        require(shardingTableStorage.nodeExists(identityId), \"Node isn't in the Sharding Table\");\n\n        uint40 score = scoringProxy.callScoreFunction(\n            serviceAgreementStorageV1.getAgreementScoreFunctionId(agreementId),\n            args.hashFunctionId,\n            profileStorage.getNodeId(identityId),\n            args.keyword,\n            stakingStorage.totalStakes(identityId)\n        );\n\n        _insertCommit(\n            agreementId,\n            args.epoch,\n            identityId,\n            0,\n            0,\n            score\n        );\n\n        emit CommitSubmitted(\n            args.assetContract,\n            args.tokenId,\n            args.keyword,\n            args.hashFunctionId,\n            identityId,\n            score\n        );\n    }\n\n    function isProofWindowOpen(bytes32 agreementId, uint16 epoch) public view returns (bool) {\n        ServiceAgreementStorageV1 sasV1 = serviceAgreementStorageV1;\n        uint256 startTime = sasV1.getAgreementStartTime(agreementId);\n\n        require(startTime != 0, \"Service Agreement doesn't exist\");\n        require(epoch < sasV1.getAgreementEpochsNumber(agreementId), \"Service Agreement expired\");\n\n        uint256 timeNow = block.timestamp;\n        uint128 epochLength = sasV1.getAgreementEpochLength(agreementId);\n        uint8 proofWindowOffsetPerc = sasV1.getAgreementProofWindowOffsetPerc(agreementId);\n\n        uint256 proofWindowOffset = epochLength * proofWindowOffsetPerc / 100;\n        uint256 proofWindowDuration = epochLength * parametersStorage.proofWindowDurationPerc() / 100;\n\n        return (\n            timeNow > (startTime + epochLength * epoch + proofWindowOffset) &&\n            timeNow < (startTime + epochLength * epoch + proofWindowOffset + proofWindowDuration)\n        );\n    }\n\n    function getChallenge(address sender, address assetContract, uint256 tokenId, uint16 epoch)\n        public\n        view\n        returns (bytes32, uint256)\n    {\n        uint72 identityId = identityStorage.getIdentityId(sender);\n\n        AbstractAsset generalAssetInterface = AbstractAsset(assetContract);\n        bytes32 assertionId = generalAssetInterface.getLatestAssertionId(tokenId);\n\n        uint256 assertionChunksNumber = assertionStorage.getAssertionChunksNumber(assertionId);\n\n        // blockchash() function only works for last 256 blocks (25.6 min window in case of 6s block time)\n        // TODO: figure out how to achieve randomness\n        return (\n            assertionId,\n            uint256(\n                sha256(abi.encodePacked(epoch, identityId))\n            ) % assertionChunksNumber\n        );\n    }\n\n    function sendProof(ServiceAgreementStructsV1.ProofInputArgs calldata args) external {\n        bytes32 agreementId = _generateAgreementId(args.assetContract, args.tokenId, args.keyword, args.hashFunctionId);\n\n        require(_reqs[0] || isProofWindowOpen(agreementId, args.epoch), \"Proof window is closed\");\n        emit Logger(isProofWindowOpen(agreementId, args.epoch), \"req1\" );\n\n\n        IdentityStorage ids = identityStorage;\n\n        uint72 identityId = ids.getIdentityId(msg.sender);\n\n        ServiceAgreementStorageV1 sasV1 = serviceAgreementStorageV1;\n\n        require(_reqs[1] ||\n            sasV1.getCommitSubmissionScore(keccak256(abi.encodePacked(agreementId, args.epoch, identityId))) != 0,\n            \"You've been already rewarded\"\n        );\n        emit Logger(\n            sasV1.getCommitSubmissionScore(keccak256(abi.encodePacked(agreementId, args.epoch, identityId))) != 0,\n            \"req2\"\n        );\n\n        bytes32 nextCommitId = sasV1.getAgreementEpochSubmissionHead(agreementId, args.epoch);\n        uint32 r0 = parametersStorage.R0();\n        uint8 i;\n        while ((identityId != sasV1.getCommitSubmissionIdentityId(nextCommitId)) && (i < r0)) {\n            nextCommitId = keccak256(\n                abi.encodePacked(agreementId, args.epoch, sasV1.getCommitSubmissionNextIdentityId(nextCommitId))\n            );\n            unchecked { i++; }\n        }\n\n        require(_reqs[2] || i < r0, \"Your node hasn't been awarded for this asset in this epoch\");\n        emit Logger(i < r0, \"req3\" );\n\n        bytes32 merkleRoot;\n        uint256 challenge;\n        (merkleRoot, challenge) = getChallenge(msg.sender, args.assetContract, args.tokenId, args.epoch);\n\n        require(_reqs[3] ||\n            MerkleProof.verify(args.proof, merkleRoot, keccak256(abi.encodePacked(args.chunkHash, challenge))),\n            \"Root hash doesn't match\"\n        );\n        emit Logger(\n            MerkleProof.verify(args.proof, merkleRoot, keccak256(abi.encodePacked(args.chunkHash, challenge))),\n            \"req4\"\n        );\n\n        emit ProofSubmitted(\n            args.assetContract,\n            args.tokenId,\n            args.keyword,\n            args.hashFunctionId,\n            identityId\n        );\n\n        uint96 reward = (\n            sasV1.getAgreementTokenAmount(agreementId) /\n            (sasV1.getAgreementEpochsNumber(agreementId) - args.epoch + 1) /\n            (r0 - sasV1.getAgreementRewardedNodesNumber(agreementId, args.epoch))\n        );\n\n        stakingContract.addReward(identityId, reward);\n        sasV1.setAgreementTokenAmount(agreementId, sasV1.getAgreementTokenAmount(agreementId) - reward);\n        sasV1.incrementAgreementRewardedNodesNumber(agreementId, args.epoch);\n\n        // To make sure that node already received reward\n        sasV1.setCommitSubmissionScore(keccak256(abi.encodePacked(agreementId, args.epoch, identityId)), 0);\n    }\n\n    function setReq(uint8 idx, bool req) external onlyHubOwner {\n        _reqs[idx] = req;\n    }\n\n    function _insertCommit(\n        bytes32 agreementId,\n        uint16 epoch,\n        uint72 identityId,\n        uint72 prevIdentityId,\n        uint72 nextIdentityId,\n        uint40 score\n    )\n        private\n    {\n        ServiceAgreementStorageV1 sasV1 = serviceAgreementStorageV1;\n\n        bytes32 commitId = keccak256(abi.encodePacked(agreementId, epoch, identityId));\n\n        require(!sasV1.commitSubmissionExists(commitId), \"Node has already commited\");\n\n        bytes32 refCommitId = sasV1.getAgreementEpochSubmissionHead(agreementId, epoch);\n\n        ParametersStorage params = parametersStorage;\n\n        uint72 refCommitNextIdentityId = sasV1.getCommitSubmissionNextIdentityId(refCommitId);\n        uint32 r0 = params.R0();\n        uint8 i;\n        while (\n            (score <  sasV1.getCommitSubmissionScore(refCommitId)) &&\n            (refCommitNextIdentityId != 0) &&\n            (i < r0)\n        ) {\n            refCommitId = keccak256(\n                abi.encodePacked(agreementId, epoch, refCommitNextIdentityId)\n            );\n\n            refCommitNextIdentityId = sasV1.getCommitSubmissionNextIdentityId(refCommitId);\n            unchecked { i++; }\n        }\n\n        require(i < r0, \"Node rank should be < R0\");\n\n        sasV1.createCommitSubmissionObject(commitId, identityId, prevIdentityId, nextIdentityId, score);\n\n        ServiceAgreementStructsV1.CommitSubmission memory refCommit = sasV1.getCommitSubmission(refCommitId);\n\n        if ((i == 0) && (refCommit.identityId == 0)) {\n            //  No head -> Setting new head\n            sasV1.setAgreementEpochSubmissionHead(agreementId, epoch, commitId);\n        } else if ((i == 0) && (score <= refCommit.score)) {\n            // There is a head with higher or equal score, add new commit on the right\n            _link_commits(agreementId, epoch, refCommit.identityId, identityId);\n        } else if ((i == 0) && (score > refCommit.score)) {\n            // There is a head with lower score, replace the head\n            sasV1.setAgreementEpochSubmissionHead(agreementId, epoch, commitId);\n            _link_commits(agreementId, epoch, identityId, refCommit.identityId);\n        }  else if (score > refCommit.score) {\n            // [H] - head\n            // [RC] - reference commit\n            // [RC-] - commit before reference commit\n            // [RC+] - commit after reference commit\n            // [NC] - new commit\n            // [] <-> [H] <-> [X] ... [RC-] <-> [RC] <-> [RC+] ... [C] <-> []\n            // [] <-> [H] <-> [X] ... [RC-] <-(NL)-> [NC] <-(NL)-> [RC] <-> [RC+] ... [C] <-> []\n            _link_commits(agreementId, epoch, refCommit.prevIdentityId, identityId);\n            _link_commits(agreementId, epoch, identityId, refCommit.identityId);\n        } else {\n            // [] <-> [H] <-> [RC] <-> []\n            // [] <-> [H] <-> [RC] <-(NL)-> [NC] <-> []\n            _link_commits(agreementId, epoch, refCommit.identityId, identityId);\n        }\n    }\n\n    function _link_commits(bytes32 agreementId, uint16 epoch, uint72 leftIdentityId, uint72 rightIdentityId) private {\n        ServiceAgreementStorageV1 sasV1 = serviceAgreementStorageV1;\n\n        sasV1.setCommitSubmissionNextIdentityId(\n            keccak256(abi.encodePacked(agreementId, epoch, leftIdentityId)),  // leftCommitId\n            rightIdentityId\n        );\n\n        sasV1.setCommitSubmissionPrevIdentityId(\n            keccak256(abi.encodePacked(agreementId, epoch, rightIdentityId)),  // rightCommitId\n            leftIdentityId\n        );\n    }\n\n    function _generateAgreementId(address assetContract, uint256 tokenId, bytes calldata keyword, uint8 hashFunctionId)\n        private\n        view\n        returns (bytes32)\n    {\n        return hashingProxy.callHashFunction(hashFunctionId, abi.encodePacked(assetContract, tokenId, keyword));\n    }\n\n    function _generatePseudorandomUint8(address sender, uint8 limit) private view returns (uint8) {\n        return uint8(uint256(keccak256(abi.encodePacked(block.timestamp, sender, block.number))) % limit);\n    }\n\n    function _checkHubOwner() internal view virtual {\n\t\trequire(msg.sender == hub.owner(), \"Fn can only be used by hub owner\");\n\t}\n\n    function _checkHub() internal view virtual {\n        require (hub.isContract(msg.sender), \"Fn can only be called by the hub\");\n    }\n\n}\n",
  "sourcePath": "/Users/waving/Desktop/OriginTrail/dkg-evm-module/contracts/ServiceAgreementV1.sol",
  "compiler": {
    "name": "solc",
    "version": "0.8.16+commit.07a7930e.Emscripten.clang"
  },
  "schemaVersion": "3.4.10",
  "updatedAt": "2022-12-08T17:46:21.929Z",
  "devdoc": {
    "kind": "dev",
    "methods": {},
    "version": 1
  },
  "userdoc": {
    "kind": "user",
    "methods": {},
    "version": 1
  }
}