{
  "contractName": "ServiceAgreementStorageV1",
  "abi": [
    {
      "inputs": [
        {
          "internalType": "address",
          "name": "hubAddress",
          "type": "address"
        }
      ],
      "stateMutability": "nonpayable",
      "type": "constructor"
    },
    {
      "inputs": [],
      "name": "hub",
      "outputs": [
        {
          "internalType": "contract Hub",
          "name": "",
          "type": "address"
        }
      ],
      "stateMutability": "view",
      "type": "function"
    },
    {
      "inputs": [],
      "name": "tokenContract",
      "outputs": [
        {
          "internalType": "contract IERC20",
          "name": "",
          "type": "address"
        }
      ],
      "stateMutability": "view",
      "type": "function"
    },
    {
      "inputs": [],
      "name": "name",
      "outputs": [
        {
          "internalType": "string",
          "name": "",
          "type": "string"
        }
      ],
      "stateMutability": "pure",
      "type": "function"
    },
    {
      "inputs": [],
      "name": "version",
      "outputs": [
        {
          "internalType": "string",
          "name": "",
          "type": "string"
        }
      ],
      "stateMutability": "pure",
      "type": "function"
    },
    {
      "inputs": [
        {
          "internalType": "bytes32",
          "name": "agreementId",
          "type": "bytes32"
        },
        {
          "internalType": "uint16",
          "name": "epochsNumber",
          "type": "uint16"
        },
        {
          "internalType": "uint128",
          "name": "epochLength",
          "type": "uint128"
        },
        {
          "internalType": "uint96",
          "name": "tokenAmount",
          "type": "uint96"
        },
        {
          "internalType": "uint8",
          "name": "scoreFunctionId",
          "type": "uint8"
        },
        {
          "internalType": "uint8",
          "name": "proofWindowOffsetPerc",
          "type": "uint8"
        }
      ],
      "name": "createServiceAgreementObject",
      "outputs": [],
      "stateMutability": "nonpayable",
      "type": "function"
    },
    {
      "inputs": [
        {
          "internalType": "bytes32",
          "name": "agreementId",
          "type": "bytes32"
        }
      ],
      "name": "getAgreementData",
      "outputs": [
        {
          "internalType": "uint256",
          "name": "",
          "type": "uint256"
        },
        {
          "internalType": "uint16",
          "name": "",
          "type": "uint16"
        },
        {
          "internalType": "uint128",
          "name": "",
          "type": "uint128"
        },
        {
          "internalType": "uint96",
          "name": "",
          "type": "uint96"
        },
        {
          "internalType": "uint8[2]",
          "name": "",
          "type": "uint8[2]"
        }
      ],
      "stateMutability": "view",
      "type": "function"
    },
    {
      "inputs": [
        {
          "internalType": "bytes32",
          "name": "agreementId",
          "type": "bytes32"
        }
      ],
      "name": "getAgreementStartTime",
      "outputs": [
        {
          "internalType": "uint256",
          "name": "",
          "type": "uint256"
        }
      ],
      "stateMutability": "view",
      "type": "function"
    },
    {
      "inputs": [
        {
          "internalType": "bytes32",
          "name": "agreementId",
          "type": "bytes32"
        },
        {
          "internalType": "uint256",
          "name": "startTime",
          "type": "uint256"
        }
      ],
      "name": "setAgreementStartTime",
      "outputs": [],
      "stateMutability": "nonpayable",
      "type": "function"
    },
    {
      "inputs": [
        {
          "internalType": "bytes32",
          "name": "agreementId",
          "type": "bytes32"
        }
      ],
      "name": "getAgreementEpochsNumber",
      "outputs": [
        {
          "internalType": "uint16",
          "name": "",
          "type": "uint16"
        }
      ],
      "stateMutability": "view",
      "type": "function"
    },
    {
      "inputs": [
        {
          "internalType": "bytes32",
          "name": "agreementId",
          "type": "bytes32"
        },
        {
          "internalType": "uint16",
          "name": "epochsNumber",
          "type": "uint16"
        }
      ],
      "name": "setAgreementEpochsNumber",
      "outputs": [],
      "stateMutability": "nonpayable",
      "type": "function"
    },
    {
      "inputs": [
        {
          "internalType": "bytes32",
          "name": "agreementId",
          "type": "bytes32"
        }
      ],
      "name": "getAgreementEpochLength",
      "outputs": [
        {
          "internalType": "uint128",
          "name": "",
          "type": "uint128"
        }
      ],
      "stateMutability": "view",
      "type": "function"
    },
    {
      "inputs": [
        {
          "internalType": "bytes32",
          "name": "agreementId",
          "type": "bytes32"
        },
        {
          "internalType": "uint128",
          "name": "epochLength",
          "type": "uint128"
        }
      ],
      "name": "setAgreementEpochLength",
      "outputs": [],
      "stateMutability": "nonpayable",
      "type": "function"
    },
    {
      "inputs": [
        {
          "internalType": "bytes32",
          "name": "agreementId",
          "type": "bytes32"
        }
      ],
      "name": "getAgreementTokenAmount",
      "outputs": [
        {
          "internalType": "uint96",
          "name": "",
          "type": "uint96"
        }
      ],
      "stateMutability": "view",
      "type": "function"
    },
    {
      "inputs": [
        {
          "internalType": "bytes32",
          "name": "agreementId",
          "type": "bytes32"
        },
        {
          "internalType": "uint96",
          "name": "tokenAmount",
          "type": "uint96"
        }
      ],
      "name": "setAgreementTokenAmount",
      "outputs": [],
      "stateMutability": "nonpayable",
      "type": "function"
    },
    {
      "inputs": [
        {
          "internalType": "bytes32",
          "name": "agreementId",
          "type": "bytes32"
        }
      ],
      "name": "getAgreementScoreFunctionId",
      "outputs": [
        {
          "internalType": "uint8",
          "name": "",
          "type": "uint8"
        }
      ],
      "stateMutability": "view",
      "type": "function"
    },
    {
      "inputs": [
        {
          "internalType": "bytes32",
          "name": "agreementId",
          "type": "bytes32"
        },
        {
          "internalType": "uint8",
          "name": "newScoreFunctionId",
          "type": "uint8"
        }
      ],
      "name": "setAgreementScoreFunctionId",
      "outputs": [],
      "stateMutability": "nonpayable",
      "type": "function"
    },
    {
      "inputs": [
        {
          "internalType": "bytes32",
          "name": "agreementId",
          "type": "bytes32"
        }
      ],
      "name": "getAgreementProofWindowOffsetPerc",
      "outputs": [
        {
          "internalType": "uint8",
          "name": "",
          "type": "uint8"
        }
      ],
      "stateMutability": "view",
      "type": "function"
    },
    {
      "inputs": [
        {
          "internalType": "bytes32",
          "name": "agreementId",
          "type": "bytes32"
        },
        {
          "internalType": "uint8",
          "name": "proofWindowOffsetPerc",
          "type": "uint8"
        }
      ],
      "name": "setAgreementProofWindowOffsetPerc",
      "outputs": [],
      "stateMutability": "nonpayable",
      "type": "function"
    },
    {
      "inputs": [
        {
          "internalType": "bytes32",
          "name": "agreementId",
          "type": "bytes32"
        },
        {
          "internalType": "uint16",
          "name": "epoch",
          "type": "uint16"
        }
      ],
      "name": "getAgreementEpochSubmissionHead",
      "outputs": [
        {
          "internalType": "bytes32",
          "name": "",
          "type": "bytes32"
        }
      ],
      "stateMutability": "view",
      "type": "function"
    },
    {
      "inputs": [
        {
          "internalType": "bytes32",
          "name": "agreementId",
          "type": "bytes32"
        },
        {
          "internalType": "uint16",
          "name": "epoch",
          "type": "uint16"
        },
        {
          "internalType": "bytes32",
          "name": "headCommitId",
          "type": "bytes32"
        }
      ],
      "name": "setAgreementEpochSubmissionHead",
      "outputs": [],
      "stateMutability": "nonpayable",
      "type": "function"
    },
    {
      "inputs": [
        {
          "internalType": "bytes32",
          "name": "agreementId",
          "type": "bytes32"
        },
        {
          "internalType": "uint16",
          "name": "epoch",
          "type": "uint16"
        }
      ],
      "name": "incrementAgreementRewardedNodesNumber",
      "outputs": [],
      "stateMutability": "nonpayable",
      "type": "function"
    },
    {
      "inputs": [
        {
          "internalType": "bytes32",
          "name": "agreementId",
          "type": "bytes32"
        },
        {
          "internalType": "uint16",
          "name": "epoch",
          "type": "uint16"
        }
      ],
      "name": "decrementAgreementRewardedNodesNumber",
      "outputs": [],
      "stateMutability": "nonpayable",
      "type": "function"
    },
    {
      "inputs": [
        {
          "internalType": "bytes32",
          "name": "agreementId",
          "type": "bytes32"
        },
        {
          "internalType": "uint16",
          "name": "epoch",
          "type": "uint16"
        }
      ],
      "name": "getAgreementRewardedNodesNumber",
      "outputs": [
        {
          "internalType": "uint32",
          "name": "",
          "type": "uint32"
        }
      ],
      "stateMutability": "view",
      "type": "function"
    },
    {
      "inputs": [
        {
          "internalType": "bytes32",
          "name": "agreementId",
          "type": "bytes32"
        },
        {
          "internalType": "uint16",
          "name": "epoch",
          "type": "uint16"
        },
        {
          "internalType": "uint32",
          "name": "rewardedNodesNumber",
          "type": "uint32"
        }
      ],
      "name": "setAgreementRewardedNodesNumber",
      "outputs": [],
      "stateMutability": "nonpayable",
      "type": "function"
    },
    {
      "inputs": [
        {
          "internalType": "bytes32",
          "name": "agreementId",
          "type": "bytes32"
        }
      ],
      "name": "serviceAgreementExists",
      "outputs": [
        {
          "internalType": "bool",
          "name": "",
          "type": "bool"
        }
      ],
      "stateMutability": "view",
      "type": "function"
    },
    {
      "inputs": [
        {
          "internalType": "bytes32",
          "name": "commitId",
          "type": "bytes32"
        },
        {
          "internalType": "uint72",
          "name": "identityId",
          "type": "uint72"
        },
        {
          "internalType": "uint72",
          "name": "prevIdentityId",
          "type": "uint72"
        },
        {
          "internalType": "uint72",
          "name": "nextIdentityId",
          "type": "uint72"
        },
        {
          "internalType": "uint40",
          "name": "score",
          "type": "uint40"
        }
      ],
      "name": "createCommitSubmissionObject",
      "outputs": [],
      "stateMutability": "nonpayable",
      "type": "function"
    },
    {
      "inputs": [
        {
          "internalType": "bytes32",
          "name": "commitId",
          "type": "bytes32"
        }
      ],
      "name": "getCommitSubmission",
      "outputs": [
        {
          "components": [
            {
              "internalType": "uint72",
              "name": "identityId",
              "type": "uint72"
            },
            {
              "internalType": "uint72",
              "name": "prevIdentityId",
              "type": "uint72"
            },
            {
              "internalType": "uint72",
              "name": "nextIdentityId",
              "type": "uint72"
            },
            {
              "internalType": "uint40",
              "name": "score",
              "type": "uint40"
            }
          ],
          "internalType": "struct ServiceAgreementStructsV1.CommitSubmission",
          "name": "",
          "type": "tuple"
        }
      ],
      "stateMutability": "view",
      "type": "function"
    },
    {
      "inputs": [
        {
          "internalType": "bytes32",
          "name": "commitId",
          "type": "bytes32"
        }
      ],
      "name": "getCommitSubmissionsIdentityId",
      "outputs": [
        {
          "internalType": "uint72",
          "name": "",
          "type": "uint72"
        }
      ],
      "stateMutability": "view",
      "type": "function"
    },
    {
      "inputs": [
        {
          "internalType": "bytes32",
          "name": "commitId",
          "type": "bytes32"
        },
        {
          "internalType": "uint72",
          "name": "identityId",
          "type": "uint72"
        }
      ],
      "name": "setCommitSubmissionIdentityId",
      "outputs": [],
      "stateMutability": "nonpayable",
      "type": "function"
    },
    {
      "inputs": [
        {
          "internalType": "bytes32",
          "name": "commitId",
          "type": "bytes32"
        }
      ],
      "name": "getCommitSubmissionPrevIdentityId",
      "outputs": [
        {
          "internalType": "uint72",
          "name": "",
          "type": "uint72"
        }
      ],
      "stateMutability": "view",
      "type": "function"
    },
    {
      "inputs": [
        {
          "internalType": "bytes32",
          "name": "commitId",
          "type": "bytes32"
        },
        {
          "internalType": "uint72",
          "name": "prevIdentityId",
          "type": "uint72"
        }
      ],
      "name": "setCommitSubmissionPrevIdentityId",
      "outputs": [],
      "stateMutability": "nonpayable",
      "type": "function"
    },
    {
      "inputs": [
        {
          "internalType": "bytes32",
          "name": "commitId",
          "type": "bytes32"
        }
      ],
      "name": "getCommitSubmissionNextIdentityId",
      "outputs": [
        {
          "internalType": "uint72",
          "name": "",
          "type": "uint72"
        }
      ],
      "stateMutability": "view",
      "type": "function"
    },
    {
      "inputs": [
        {
          "internalType": "bytes32",
          "name": "commitId",
          "type": "bytes32"
        },
        {
          "internalType": "uint72",
          "name": "nextIdentityId",
          "type": "uint72"
        }
      ],
      "name": "setCommitSubmissionNextIdentityId",
      "outputs": [],
      "stateMutability": "nonpayable",
      "type": "function"
    },
    {
      "inputs": [
        {
          "internalType": "bytes32",
          "name": "commitId",
          "type": "bytes32"
        }
      ],
      "name": "getCommitSubmissionScore",
      "outputs": [
        {
          "internalType": "uint40",
          "name": "",
          "type": "uint40"
        }
      ],
      "stateMutability": "view",
      "type": "function"
    },
    {
      "inputs": [
        {
          "internalType": "bytes32",
          "name": "commitId",
          "type": "bytes32"
        },
        {
          "internalType": "uint40",
          "name": "score",
          "type": "uint40"
        }
      ],
      "name": "setCommitSubmissionScore",
      "outputs": [],
      "stateMutability": "nonpayable",
      "type": "function"
    },
    {
      "inputs": [
        {
          "internalType": "bytes32",
          "name": "commitId",
          "type": "bytes32"
        }
      ],
      "name": "commitSubmissionExists",
      "outputs": [
        {
          "internalType": "bool",
          "name": "",
          "type": "bool"
        }
      ],
      "stateMutability": "view",
      "type": "function"
    },
    {
      "inputs": [
        {
          "internalType": "address",
          "name": "receiver",
          "type": "address"
        },
        {
          "internalType": "uint96",
          "name": "rewardAmount",
          "type": "uint96"
        }
      ],
      "name": "transferReward",
      "outputs": [],
      "stateMutability": "nonpayable",
      "type": "function"
    }
  ],
  "bytecode": "0x608060405234801561001057600080fd5b506040516115b13803806115b183398101604081905261002f916100f9565b6001600160a01b03811661004257600080fd5b600080546001600160a01b0319166001600160a01b038316908117909155604051630110ceef60e21b81526020600482015260056024820152642a37b5b2b760d91b60448201526304433bbc90606401602060405180830381865afa1580156100af573d6000803e3d6000fd5b505050506040513d601f19601f820116820180604052508101906100d391906100f9565b600180546001600160a01b0319166001600160a01b039290921691909117905550610129565b60006020828403121561010b57600080fd5b81516001600160a01b038116811461012257600080fd5b9392505050565b611479806101386000396000f3fe608060405234801561001057600080fd5b50600436106102275760003560e01c806388f6df5611610130578063b67b6e1e116100b8578063cf57ca2f1161007c578063cf57ca2f146107c2578063d1a640c7146107d5578063d2692b311461080f578063e184b9e814610822578063e54b26ff1461083557600080fd5b8063b67b6e1e14610714578063beca40f314610744578063c45d174914610757578063cb327c7d14610782578063ce60dc611461079557600080fd5b80639c70b3c0116100ff5780639c70b3c01461066c578063a63148961461068c578063ac64112e1461069f578063ac9d7cf4146106b2578063b2ffa9971461070157600080fd5b806388f6df561461052d57806388f7a9b4146105405780638a0f01b51461061a57806399149f771461062d57600080fd5b8063484a47e7116101b3578063572943f711610182578063572943f71461043d5780635c6c1fef146104805780636441a276146104c45780636ff015ae146104d757806386e0cc88146104fb57600080fd5b8063484a47e7146103ac5780634c72fefc146103f657806354fd4d501461040957806355a373d61461042a57600080fd5b8063365a86fc116101fa578063365a86fc146102e05780633c96f02b1461030b5780633d6317161461033b5780634089a17d1461034e5780634750b9f41461039957600080fd5b8063038fed731461022c57806306fdde031461024157806308feb20b1461028c5780630f3a549d146102cd575b600080fd5b61023f61023a366004610fc7565b610848565b005b60408051808201909152601981527f5365727669636541677265656d656e7453746f7261676556310000000000000060208201525b6040516102839190610fe9565b60405180910390f35b6102b561029a366004611037565b6000908152600260205260409020546001600160481b031690565b6040516001600160481b039091168152602001610283565b61023f6102db366004611067565b610862565b6000546102f3906001600160a01b031681565b6040516001600160a01b039091168152602001610283565b6102b5610319366004611037565b600090815260026020526040902054600160481b90046001600160481b031690565b61023f6103493660046110a8565b610891565b61038161035c366004611037565b600090815260036020526040902060010154600160901b90046001600160601b031690565b6040516001600160601b039091168152602001610283565b61023f6103a73660046110e2565b6108cc565b6103de6103ba366004611037565b6000908152600360205260409020600101546201000090046001600160801b031690565b6040516001600160801b039091168152602001610283565b61023f610404366004611144565b610904565b6040805180820190915260058152640312e302e360dc1b6020820152610276565b6001546102f3906001600160a01b031681565b61047261044b366004611067565b600082815260036020908152604080832061ffff8516845260020190915290205492915050565b604051908152602001610283565b6104ae61048e366004611037565b600090815260026020526040902054600160d81b900464ffffffffff1690565b60405164ffffffffff9091168152602001610283565b61023f6104d23660046111b1565b6109a6565b6104ea6104e5366004611037565b6109de565b6040516102839594939291906111d4565b61051d610509366004611037565b600090815260036020526040902054151590565b6040519015158152602001610283565b61023f61053b36600461123e565b610a60565b6105d361054e366004611037565b60408051608081018252600080825260208201819052918101829052606081019190915250600090815260026020908152604091829020825160808101845290546001600160481b038082168352600160481b8204811693830193909352600160901b810490921692810192909252600160d81b900464ffffffffff16606082015290565b6040805182516001600160481b03908116825260208085015182169083015283830151169181019190915260609182015164ffffffffff1691810191909152608001610283565b61023f6106283660046110e2565b610a8d565b61065a61063b366004611037565b600090815260036020526040902060010154600160f81b900460ff1690565b60405160ff9091168152602001610283565b61047261067a366004611037565b60009081526003602052604090205490565b61023f61069a366004611273565b610ad0565b61023f6106ad3660046111b1565b610b1b565b6106ec6106c0366004611067565b600082815260036020818152604080842061ffff86168552909201905290205463ffffffff1692915050565b60405163ffffffff9091168152602001610283565b61023f61070f366004611067565b610b55565b6102b5610722366004611037565b600090815260026020526040902054600160901b90046001600160481b031690565b61023f610752366004611067565b610bb1565b61051d610765366004611037565b6000908152600260205260409020546001600160481b0316151590565b61023f610790366004611296565b610bea565b61065a6107a3366004611037565b600090815260036020526040902060010154600160f01b900460ff1690565b61023f6107d03660046112df565b610c2d565b6107fc6107e3366004611037565b60009081526003602052604090206001015461ffff1690565b60405161ffff9091168152602001610283565b61023f61081d366004611355565b610ce8565b61023f6108303660046110e2565b610d74565b61023f610843366004611381565b610dbd565b610850610e06565b60009182526003602052604090912055565b61086a610e06565b600091825260036020526040909120600101805461ffff191661ffff909216919091179055565b610899610e06565b600091825260026020526040909120805464ffffffffff909216600160d81b026001600160d81b03909216919091179055565b6108d4610e06565b600091825260026020526040909120805468ffffffffffffffffff19166001600160481b03909216919091179055565b61090c610e06565b600095865260036020526040909520428155600101805460ff968716600160f81b026001600160f81b0397909316600160f01b0260ff60f01b196001600160601b03909516600160901b02949094166cffffffffffffffffffffffffff60901b196001600160801b0390961662010000026001600160901b031990921661ffff909716969096171793909316939093171792909216179055565b6109ae610e06565b600091825260036020526040909120600101805460ff909216600160f01b0260ff60f01b19909216919091179055565b6000806000806109ec610fa9565b505050600083815260036020818152604080842080546001909101548251808401909352600160f01b810460ff908116845298909552928252600160f81b8404909616908601529461ffff8216946201000083046001600160801b03169450600160901b9092046001600160601b03169250565b610a68610e06565b600092835260036020908152604080852061ffff909416855260029093019052912055565b610a95610e06565b60009182526002602052604090912080546001600160481b03909216600160901b0268ffffffffffffffffff60901b19909216919091179055565b610ad8610e06565b60009182526003602052604090912060010180546001600160801b03909216620100000271ffffffffffffffffffffffffffffffff000019909216919091179055565b610b23610e06565b600091825260036020526040909120600101805460ff909216600160f81b026001600160f81b03909216919091179055565b610b5d610e06565b600082815260036020818152604080842061ffff8616855290920190528120805463ffffffff1691610b8e836113ba565b91906101000a81548163ffffffff021916908363ffffffff160217905550505050565b610bb9610e06565b600082815260036020818152604080842061ffff8616855290920190528120805463ffffffff1691610b8e836113da565b610bf2610e06565b600092835260036020818152604080862061ffff9590951686529390910190529120805463ffffffff191663ffffffff909216919091179055565b610c35610e06565b604080516080810182526001600160481b039586168152938516602080860191825293861685830190815264ffffffffff938416606087019081526000988952600290955291909620935184549651915193519086166001600160901b031990971696909617600160481b918616919091021771ffffffffffffffffffffffffffffffffffff16600160901b92909416919091026001600160d81b031692909217600160d81b9390921692909202179055565b610cf0610ec5565b60015460405163a9059cbb60e01b81526001600160a01b0384811660048301526001600160601b03841660248301529091169063a9059cbb906044016020604051808303816000875af1158015610d4b573d6000803e3d6000fd5b505050506040513d601f19601f82011682018060405250810190610d6f91906113fd565b505050565b610d7c610e06565b60009182526002602052604090912080546001600160481b03909216600160481b0271ffffffffffffffffff00000000000000000019909216919091179055565b610dc5610e06565b60009182526003602052604090912060010180546001600160601b03909216600160901b026bffffffffffffffffffffffff60901b19909216919091179055565b600054604051631627905560e01b81523360048201526001600160a01b0390911690631627905590602401602060405180830381865afa158015610e4e573d6000803e3d6000fd5b505050506040513d601f19601f82011682018060405250810190610e7291906113fd565b610ec35760405162461bcd60e51b815260206004820181905260248201527f466e2063616e206f6e6c792062652063616c6c6564206279207468652068756260448201526064015b60405180910390fd5b565b600054604051630110ceef60e21b81526020600482015260076024820152665374616b696e6760c81b60448201526001600160a01b03909116906304433bbc90606401602060405180830381865afa158015610f25573d6000803e3d6000fd5b505050506040513d601f19601f82011682018060405250810190610f499190611426565b6001600160a01b0316336001600160a01b031614610ec35760405162461bcd60e51b815260206004820181905260248201527f466e2063616e206f6e6c792062652063616c6c6564206279207374616b696e676044820152606401610eba565b60405180604001604052806002906020820280368337509192915050565b60008060408385031215610fda57600080fd5b50508035926020909101359150565b600060208083528351808285015260005b8181101561101657858101830151858201604001528201610ffa565b506000604082860101526040601f19601f8301168501019250505092915050565b60006020828403121561104957600080fd5b5035919050565b803561ffff8116811461106257600080fd5b919050565b6000806040838503121561107a57600080fd5b8235915061108a60208401611050565b90509250929050565b803564ffffffffff8116811461106257600080fd5b600080604083850312156110bb57600080fd5b8235915061108a60208401611093565b80356001600160481b038116811461106257600080fd5b600080604083850312156110f557600080fd5b8235915061108a602084016110cb565b80356001600160801b038116811461106257600080fd5b80356001600160601b038116811461106257600080fd5b803560ff8116811461106257600080fd5b60008060008060008060c0878903121561115d57600080fd5b8635955061116d60208801611050565b945061117b60408801611105565b93506111896060880161111c565b925061119760808801611133565b91506111a560a08801611133565b90509295509295509295565b600080604083850312156111c457600080fd5b8235915061108a60208401611133565b600060c082019050868252602061ffff8716818401526001600160801b03861660408401526001600160601b0385166060840152608083018460005b600281101561123057815160ff1683529183019190830190600101611210565b505050509695505050505050565b60008060006060848603121561125357600080fd5b8335925061126360208501611050565b9150604084013590509250925092565b6000806040838503121561128657600080fd5b8235915061108a60208401611105565b6000806000606084860312156112ab57600080fd5b833592506112bb60208501611050565b9150604084013563ffffffff811681146112d457600080fd5b809150509250925092565b600080600080600060a086880312156112f757600080fd5b85359450611307602087016110cb565b9350611315604087016110cb565b9250611323606087016110cb565b915061133160808701611093565b90509295509295909350565b6001600160a01b038116811461135257600080fd5b50565b6000806040838503121561136857600080fd5b82356113738161133d565b915061108a6020840161111c565b6000806040838503121561139457600080fd5b8235915061108a6020840161111c565b634e487b7160e01b600052601160045260246000fd5b600063ffffffff8216806113d0576113d06113a4565b6000190192915050565b600063ffffffff8083168181036113f3576113f36113a4565b6001019392505050565b60006020828403121561140f57600080fd5b8151801515811461141f57600080fd5b9392505050565b60006020828403121561143857600080fd5b815161141f8161133d56fea2646970667358221220eec49912c4c14006aadb4ffcad177fbe40d8f5d91354e0f769115663cc2b9fd564736f6c63430008100033",
  "immutableReferences": {},
  "source": "// SPDX-License-Identifier: MIT\n\npragma solidity ^0.8.4;\n\nimport { Hub } from \"../Hub.sol\";\nimport { Named } from \"../interface/Named.sol\";\nimport { Versioned } from \"../interface/Versioned.sol\";\nimport { ServiceAgreementStructsV1 } from \"../structs/ServiceAgreementStructsV1.sol\";\nimport { IERC20 } from \"@openzeppelin/contracts/token/ERC20/IERC20.sol\";\n\ncontract ServiceAgreementStorageV1 is Named, Versioned {\n\n    string constant private _NAME = \"ServiceAgreementStorageV1\";\n    string constant private _VERSION = \"1.0.0\";\n\n    Hub public hub;\n    IERC20 public tokenContract;\n\n    // CommitId [keccak256(agreementId + epoch + identityId)] => CommitSubmission\n    mapping(bytes32 => ServiceAgreementStructsV1.CommitSubmission) commitSubmissions;\n\n    // AgreementId [hash(asset type contract + tokenId + key)] => ServiceAgreement\n    mapping(bytes32 => ServiceAgreementStructsV1.ServiceAgreement) serviceAgreements;\n\n    constructor (address hubAddress) {\n        require(hubAddress != address(0));\n\n        hub = Hub(hubAddress);\n        tokenContract = IERC20(hub.getContractAddress(\"Token\"));\n    }\n\n    modifier onlyContracts() {\n        _checkHub();\n        _;\n    }\n\n    modifier onlyStakingContract() {\n        _checkStakingContract();\n        _;\n    }\n\n    function name() external pure virtual override returns (string memory) {\n        return _NAME;\n    }\n\n    function version() external pure virtual override returns (string memory) {\n        return _VERSION;\n    }\n\n    function createServiceAgreementObject(\n        bytes32 agreementId,\n        uint16 epochsNumber,\n        uint128 epochLength,\n        uint96 tokenAmount,\n        uint8 scoreFunctionId,\n        uint8 proofWindowOffsetPerc\n    )\n        external\n        onlyContracts\n    {\n        ServiceAgreementStructsV1.ServiceAgreement storage agreement = serviceAgreements[agreementId];\n        agreement.startTime = block.timestamp;\n        agreement.epochsNumber = epochsNumber;\n        agreement.epochLength = epochLength;\n        agreement.tokenAmount = tokenAmount;\n        agreement.scoreFunctionId = scoreFunctionId;\n        agreement.proofWindowOffsetPerc = proofWindowOffsetPerc;\n    }\n\n    function getAgreementData(bytes32 agreementId)\n        external\n        view\n        returns (uint256, uint16, uint128, uint96, uint8[2] memory)\n    {\n        return (\n            serviceAgreements[agreementId].startTime,\n            serviceAgreements[agreementId].epochsNumber,\n            serviceAgreements[agreementId].epochLength,\n            serviceAgreements[agreementId].tokenAmount,\n            [\n                serviceAgreements[agreementId].scoreFunctionId,\n                serviceAgreements[agreementId].proofWindowOffsetPerc\n            ]\n        );\n    }\n\n    function getAgreementStartTime(bytes32 agreementId) external view returns (uint256) {\n        return serviceAgreements[agreementId].startTime;\n    }\n\n    function setAgreementStartTime(bytes32 agreementId, uint256 startTime) external onlyContracts {\n        serviceAgreements[agreementId].startTime = startTime;\n    }\n\n    function getAgreementEpochsNumber(bytes32 agreementId) external view returns (uint16) {\n        return serviceAgreements[agreementId].epochsNumber;\n    }\n\n    function setAgreementEpochsNumber(bytes32 agreementId, uint16 epochsNumber) external onlyContracts {\n        serviceAgreements[agreementId].epochsNumber = epochsNumber;\n    }\n\n    function getAgreementEpochLength(bytes32 agreementId) external view returns (uint128) {\n        return serviceAgreements[agreementId].epochLength;\n    }\n\n    function setAgreementEpochLength(bytes32 agreementId, uint128 epochLength) external onlyContracts {\n        serviceAgreements[agreementId].epochLength = epochLength;\n    }\n\n    function getAgreementTokenAmount(bytes32 agreementId) external view returns (uint96) {\n        return serviceAgreements[agreementId].tokenAmount;\n    }\n\n    function setAgreementTokenAmount(bytes32 agreementId, uint96 tokenAmount) external onlyContracts {\n        serviceAgreements[agreementId].tokenAmount = tokenAmount;\n    }\n\n    function getAgreementScoreFunctionId(bytes32 agreementId) external view returns (uint8) {\n        return serviceAgreements[agreementId].scoreFunctionId;\n    }\n\n    function setAgreementScoreFunctionId(bytes32 agreementId, uint8 newScoreFunctionId) external onlyContracts {\n        serviceAgreements[agreementId].scoreFunctionId = newScoreFunctionId;\n    }\n\n    function getAgreementProofWindowOffsetPerc(bytes32 agreementId) external view returns (uint8) {\n        return serviceAgreements[agreementId].proofWindowOffsetPerc;\n    }\n\n    function setAgreementProofWindowOffsetPerc(bytes32 agreementId, uint8 proofWindowOffsetPerc)\n        external\n        onlyContracts\n    {\n        serviceAgreements[agreementId].proofWindowOffsetPerc = proofWindowOffsetPerc;\n    }\n\n    function getAgreementEpochSubmissionHead(bytes32 agreementId, uint16 epoch) external view returns (bytes32) {\n        return serviceAgreements[agreementId].epochSubmissionHeads[epoch];\n    }\n\n    function setAgreementEpochSubmissionHead(bytes32 agreementId, uint16 epoch, bytes32 headCommitId)\n        external\n        onlyContracts\n    {\n        serviceAgreements[agreementId].epochSubmissionHeads[epoch] = headCommitId;\n    }\n\n    function incrementAgreementRewardedNodesNumber(bytes32 agreementId, uint16 epoch) external onlyContracts {\n        serviceAgreements[agreementId].rewardedNodesNumber[epoch]++;\n    }\n\n    function decrementAgreementRewardedNodesNumber(bytes32 agreementId, uint16 epoch) external onlyContracts {\n        serviceAgreements[agreementId].rewardedNodesNumber[epoch]--;\n    }\n\n    function getAgreementRewardedNodesNumber(bytes32 agreementId, uint16 epoch) external view returns (uint32) {\n        return serviceAgreements[agreementId].rewardedNodesNumber[epoch];\n    }\n\n    function setAgreementRewardedNodesNumber(bytes32 agreementId, uint16 epoch, uint32 rewardedNodesNumber)\n        external\n        onlyContracts\n    {\n        serviceAgreements[agreementId].rewardedNodesNumber[epoch] = rewardedNodesNumber;\n    }\n\n    function serviceAgreementExists(bytes32 agreementId) external view returns (bool) {\n        return serviceAgreements[agreementId].startTime != 0;\n    }\n\n    function createCommitSubmissionObject(\n        bytes32 commitId,\n        uint72 identityId,\n        uint72 prevIdentityId,\n        uint72 nextIdentityId,\n        uint40 score\n    )\n        external\n        onlyContracts\n    {\n        commitSubmissions[commitId] = ServiceAgreementStructsV1.CommitSubmission({\n            identityId: identityId,\n            prevIdentityId: prevIdentityId,\n            nextIdentityId: nextIdentityId,\n            score: score\n        });\n    }\n\n    function getCommitSubmission(bytes32 commitId)\n        external\n        view\n        returns (ServiceAgreementStructsV1.CommitSubmission memory)\n    {\n        return commitSubmissions[commitId];\n    }\n\n    function getCommitSubmissionsIdentityId(bytes32 commitId) external view returns (uint72) {\n        return commitSubmissions[commitId].identityId;\n    }\n\n    function setCommitSubmissionIdentityId(bytes32 commitId, uint72 identityId) external onlyContracts {\n        commitSubmissions[commitId].identityId = identityId;\n    }\n\n    function getCommitSubmissionPrevIdentityId(bytes32 commitId) external view returns (uint72) {\n        return commitSubmissions[commitId].prevIdentityId;\n    }\n\n    function setCommitSubmissionPrevIdentityId(bytes32 commitId, uint72 prevIdentityId) external onlyContracts {\n        commitSubmissions[commitId].prevIdentityId = prevIdentityId;\n    }\n\n    function getCommitSubmissionNextIdentityId(bytes32 commitId) external view returns (uint72) {\n        return commitSubmissions[commitId].nextIdentityId;\n    }\n\n    function setCommitSubmissionNextIdentityId(bytes32 commitId, uint72 nextIdentityId) external onlyContracts {\n        commitSubmissions[commitId].nextIdentityId = nextIdentityId;\n    }\n\n    function getCommitSubmissionScore(bytes32 commitId) external view returns (uint40) {\n        return commitSubmissions[commitId].score;\n    }\n\n    function setCommitSubmissionScore(bytes32 commitId, uint40 score) external onlyContracts {\n        commitSubmissions[commitId].score = score;\n    }\n\n    function commitSubmissionExists(bytes32 commitId) external view returns (bool) {\n        return commitSubmissions[commitId].identityId != 0;\n    }\n\n    function transferReward(address receiver, uint96 rewardAmount) external onlyStakingContract {\n        tokenContract.transfer(receiver, rewardAmount);\n    }\n\n    function _checkHub() internal view virtual {\n        require(hub.isContract(msg.sender), \"Fn can only be called by the hub\");\n    }\n\n    function _checkStakingContract() internal view virtual {\n        require(msg.sender == hub.getContractAddress(\"Staking\"), \"Fn can only be called by staking\");\n    }\n\n}\n",
  "sourcePath": "/Users/waving/Desktop/OriginTrail/dkg-evm-module/contracts/storage/ServiceAgreementStorageV1.sol",
  "compiler": {
    "name": "solc",
    "version": "0.8.16+commit.07a7930e.Emscripten.clang"
  },
  "schemaVersion": "3.4.10",
  "updatedAt": "2022-12-06T11:50:01.292Z",
  "devdoc": {
    "kind": "dev",
    "methods": {},
    "version": 1
  },
  "userdoc": {
    "kind": "user",
    "methods": {},
    "version": 1
  }
}