{
  "contractName": "ServiceAgreementV1",
  "abi": [
    {
      "inputs": [
        {
          "internalType": "address",
          "name": "hubAddress",
          "type": "address"
        }
      ],
      "stateMutability": "nonpayable",
      "type": "constructor"
    },
    {
      "inputs": [
        {
          "internalType": "address",
          "name": "contractAddress",
          "type": "address"
        }
      ],
      "name": "AssetStorgeNotInTheHub",
      "type": "error"
    },
    {
      "inputs": [
        {
          "internalType": "bytes32",
          "name": "agreementId",
          "type": "bytes32"
        },
        {
          "internalType": "uint16",
          "name": "epoch",
          "type": "uint16"
        },
        {
          "internalType": "uint256",
          "name": "commitWindowOpen",
          "type": "uint256"
        },
        {
          "internalType": "uint256",
          "name": "commitWindowClose",
          "type": "uint256"
        },
        {
          "internalType": "uint256",
          "name": "timeNow",
          "type": "uint256"
        }
      ],
      "name": "CommitWindowClosed",
      "type": "error"
    },
    {
      "inputs": [],
      "name": "EmptyAssetCreatorAddress",
      "type": "error"
    },
    {
      "inputs": [],
      "name": "EmptyKeyword",
      "type": "error"
    },
    {
      "inputs": [
        {
          "internalType": "bytes32",
          "name": "agreementId",
          "type": "bytes32"
        },
        {
          "internalType": "uint16",
          "name": "epoch",
          "type": "uint16"
        },
        {
          "internalType": "uint72",
          "name": "identityId",
          "type": "uint72"
        },
        {
          "internalType": "bytes",
          "name": "nodeId",
          "type": "bytes"
        }
      ],
      "name": "NodeAlreadyRewarded",
      "type": "error"
    },
    {
      "inputs": [
        {
          "internalType": "bytes32",
          "name": "agreementId",
          "type": "bytes32"
        },
        {
          "internalType": "uint16",
          "name": "epoch",
          "type": "uint16"
        },
        {
          "internalType": "uint72",
          "name": "identityId",
          "type": "uint72"
        },
        {
          "internalType": "bytes",
          "name": "nodeId",
          "type": "bytes"
        }
      ],
      "name": "NodeAlreadySubmittedCommit",
      "type": "error"
    },
    {
      "inputs": [
        {
          "internalType": "bytes32",
          "name": "agreementId",
          "type": "bytes32"
        },
        {
          "internalType": "uint16",
          "name": "epoch",
          "type": "uint16"
        },
        {
          "internalType": "uint72",
          "name": "identityId",
          "type": "uint72"
        },
        {
          "internalType": "bytes",
          "name": "nodeId",
          "type": "bytes"
        },
        {
          "internalType": "uint8",
          "name": "rank",
          "type": "uint8"
        }
      ],
      "name": "NodeNotAwarded",
      "type": "error"
    },
    {
      "inputs": [
        {
          "internalType": "uint72",
          "name": "identityId",
          "type": "uint72"
        },
        {
          "internalType": "bytes",
          "name": "nodeId",
          "type": "bytes"
        },
        {
          "internalType": "uint96",
          "name": "ask",
          "type": "uint96"
        },
        {
          "internalType": "uint96",
          "name": "stake",
          "type": "uint96"
        }
      ],
      "name": "NodeNotInShardingTable",
      "type": "error"
    },
    {
      "inputs": [
        {
          "internalType": "address",
          "name": "caller",
          "type": "address"
        }
      ],
      "name": "OnlyHubContractsFunction",
      "type": "error"
    },
    {
      "inputs": [
        {
          "internalType": "address",
          "name": "caller",
          "type": "address"
        }
      ],
      "name": "OnlyHubOwnerFunction",
      "type": "error"
    },
    {
      "inputs": [
        {
          "internalType": "bytes32",
          "name": "agreementId",
          "type": "bytes32"
        },
        {
          "internalType": "uint16",
          "name": "epoch",
          "type": "uint16"
        },
        {
          "internalType": "uint256",
          "name": "proofWindowOpen",
          "type": "uint256"
        },
        {
          "internalType": "uint256",
          "name": "proofWindowClose",
          "type": "uint256"
        },
        {
          "internalType": "uint256",
          "name": "timeNow",
          "type": "uint256"
        }
      ],
      "name": "ProofWindowClosed",
      "type": "error"
    },
    {
      "inputs": [
        {
          "internalType": "uint8",
          "name": "scoreFunctionId",
          "type": "uint8"
        }
      ],
      "name": "ScoreFunctionDoesntExist",
      "type": "error"
    },
    {
      "inputs": [
        {
          "internalType": "bytes32",
          "name": "agreementId",
          "type": "bytes32"
        }
      ],
      "name": "ServiceAgreementDoesntExist",
      "type": "error"
    },
    {
      "inputs": [
        {
          "internalType": "bytes32",
          "name": "agreementId",
          "type": "bytes32"
        },
        {
          "internalType": "uint256",
          "name": "startTime",
          "type": "uint256"
        },
        {
          "internalType": "uint16",
          "name": "epochsNumber",
          "type": "uint16"
        },
        {
          "internalType": "uint128",
          "name": "epochLength",
          "type": "uint128"
        }
      ],
      "name": "ServiceAgreementHasBeenExpired",
      "type": "error"
    },
    {
      "inputs": [
        {
          "internalType": "uint256",
          "name": "amount",
          "type": "uint256"
        }
      ],
      "name": "TooLowAllowance",
      "type": "error"
    },
    {
      "inputs": [
        {
          "internalType": "uint256",
          "name": "amount",
          "type": "uint256"
        }
      ],
      "name": "TooLowBalance",
      "type": "error"
    },
    {
      "inputs": [
        {
          "internalType": "bytes32",
          "name": "agreementId",
          "type": "bytes32"
        },
        {
          "internalType": "uint16",
          "name": "epoch",
          "type": "uint16"
        },
        {
          "internalType": "uint72",
          "name": "identityId",
          "type": "uint72"
        },
        {
          "internalType": "bytes",
          "name": "nodeId",
          "type": "bytes"
        },
        {
          "internalType": "bytes32[]",
          "name": "merkleProof",
          "type": "bytes32[]"
        },
        {
          "internalType": "bytes32",
          "name": "merkleRoot",
          "type": "bytes32"
        },
        {
          "internalType": "bytes32",
          "name": "chunkHash",
          "type": "bytes32"
        },
        {
          "internalType": "uint256",
          "name": "challenge",
          "type": "uint256"
        }
      ],
      "name": "WrongMerkleProof",
      "type": "error"
    },
    {
      "inputs": [],
      "name": "ZeroEpochsNumber",
      "type": "error"
    },
    {
      "inputs": [],
      "name": "ZeroTokenAmount",
      "type": "error"
    },
    {
      "anonymous": false,
      "inputs": [
        {
          "indexed": true,
          "internalType": "address",
          "name": "assetContract",
          "type": "address"
        },
        {
          "indexed": true,
          "internalType": "uint256",
          "name": "tokenId",
          "type": "uint256"
        },
        {
          "indexed": false,
          "internalType": "bytes",
          "name": "keyword",
          "type": "bytes"
        },
        {
          "indexed": false,
          "internalType": "uint8",
          "name": "hashFunctionId",
          "type": "uint8"
        },
        {
          "indexed": true,
          "internalType": "uint72",
          "name": "identityId",
          "type": "uint72"
        },
        {
          "indexed": false,
          "internalType": "uint40",
          "name": "score",
          "type": "uint40"
        }
      ],
      "name": "CommitSubmitted",
      "type": "event"
    },
    {
      "anonymous": false,
      "inputs": [
        {
          "indexed": true,
          "internalType": "address",
          "name": "assetContract",
          "type": "address"
        },
        {
          "indexed": true,
          "internalType": "uint256",
          "name": "tokenId",
          "type": "uint256"
        },
        {
          "indexed": false,
          "internalType": "bytes",
          "name": "keyword",
          "type": "bytes"
        },
        {
          "indexed": false,
          "internalType": "uint8",
          "name": "hashFunctionId",
          "type": "uint8"
        },
        {
          "indexed": true,
          "internalType": "uint72",
          "name": "identityId",
          "type": "uint72"
        }
      ],
      "name": "ProofSubmitted",
      "type": "event"
    },
    {
      "anonymous": false,
      "inputs": [
        {
          "indexed": true,
          "internalType": "address",
          "name": "assetContract",
          "type": "address"
        },
        {
          "indexed": true,
          "internalType": "uint256",
          "name": "tokenId",
          "type": "uint256"
        },
        {
          "indexed": false,
          "internalType": "bytes",
          "name": "keyword",
          "type": "bytes"
        },
        {
          "indexed": false,
          "internalType": "uint8",
          "name": "hashFunctionId",
          "type": "uint8"
        },
        {
          "indexed": false,
          "internalType": "uint256",
          "name": "startTime",
          "type": "uint256"
        },
        {
          "indexed": false,
          "internalType": "uint16",
          "name": "epochsNumber",
          "type": "uint16"
        },
        {
          "indexed": false,
          "internalType": "uint128",
          "name": "epochLength",
          "type": "uint128"
        },
        {
          "indexed": false,
          "internalType": "uint96",
          "name": "tokenAmount",
          "type": "uint96"
        }
      ],
      "name": "ServiceAgreementV1Created",
      "type": "event"
    },
    {
      "anonymous": false,
      "inputs": [
        {
          "indexed": true,
          "internalType": "address",
          "name": "assetContract",
          "type": "address"
        },
        {
          "indexed": true,
          "internalType": "uint256",
          "name": "tokenId",
          "type": "uint256"
        },
        {
          "indexed": false,
          "internalType": "bytes",
          "name": "keyword",
          "type": "bytes"
        },
        {
          "indexed": false,
          "internalType": "uint8",
          "name": "hashFunctionId",
          "type": "uint8"
        },
        {
          "indexed": false,
          "internalType": "uint16",
          "name": "epochsNumber",
          "type": "uint16"
        },
        {
          "indexed": false,
          "internalType": "uint96",
          "name": "tokenAmount",
          "type": "uint96"
        }
      ],
      "name": "ServiceAgreementV1Updated",
      "type": "event"
    },
    {
      "inputs": [],
      "name": "assertionStorage",
      "outputs": [
        {
          "internalType": "contract AssertionStorage",
          "name": "",
          "type": "address"
        }
      ],
      "stateMutability": "view",
      "type": "function"
    },
    {
      "inputs": [],
      "name": "hashingProxy",
      "outputs": [
        {
          "internalType": "contract HashingProxy",
          "name": "",
          "type": "address"
        }
      ],
      "stateMutability": "view",
      "type": "function"
    },
    {
      "inputs": [],
      "name": "hub",
      "outputs": [
        {
          "internalType": "contract Hub",
          "name": "",
          "type": "address"
        }
      ],
      "stateMutability": "view",
      "type": "function"
    },
    {
      "inputs": [],
      "name": "identityStorage",
      "outputs": [
        {
          "internalType": "contract IdentityStorage",
          "name": "",
          "type": "address"
        }
      ],
      "stateMutability": "view",
      "type": "function"
    },
    {
      "inputs": [],
      "name": "parametersStorage",
      "outputs": [
        {
          "internalType": "contract ParametersStorage",
          "name": "",
          "type": "address"
        }
      ],
      "stateMutability": "view",
      "type": "function"
    },
    {
      "inputs": [],
      "name": "profileStorage",
      "outputs": [
        {
          "internalType": "contract ProfileStorage",
          "name": "",
          "type": "address"
        }
      ],
      "stateMutability": "view",
      "type": "function"
    },
    {
      "inputs": [],
      "name": "scoringProxy",
      "outputs": [
        {
          "internalType": "contract ScoringProxy",
          "name": "",
          "type": "address"
        }
      ],
      "stateMutability": "view",
      "type": "function"
    },
    {
      "inputs": [],
      "name": "serviceAgreementStorageV1",
      "outputs": [
        {
          "internalType": "contract ServiceAgreementStorageV1",
          "name": "",
          "type": "address"
        }
      ],
      "stateMutability": "view",
      "type": "function"
    },
    {
      "inputs": [],
      "name": "shardingTableStorage",
      "outputs": [
        {
          "internalType": "contract ShardingTableStorage",
          "name": "",
          "type": "address"
        }
      ],
      "stateMutability": "view",
      "type": "function"
    },
    {
      "inputs": [],
      "name": "stakingContract",
      "outputs": [
        {
          "internalType": "contract Staking",
          "name": "",
          "type": "address"
        }
      ],
      "stateMutability": "view",
      "type": "function"
    },
    {
      "inputs": [],
      "name": "stakingStorage",
      "outputs": [
        {
          "internalType": "contract StakingStorage",
          "name": "",
          "type": "address"
        }
      ],
      "stateMutability": "view",
      "type": "function"
    },
    {
      "inputs": [],
      "name": "tokenContract",
      "outputs": [
        {
          "internalType": "contract IERC20",
          "name": "",
          "type": "address"
        }
      ],
      "stateMutability": "view",
      "type": "function"
    },
    {
      "inputs": [],
      "name": "initialize",
      "outputs": [],
      "stateMutability": "nonpayable",
      "type": "function"
    },
    {
      "inputs": [],
      "name": "name",
      "outputs": [
        {
          "internalType": "string",
          "name": "",
          "type": "string"
        }
      ],
      "stateMutability": "pure",
      "type": "function"
    },
    {
      "inputs": [],
      "name": "version",
      "outputs": [
        {
          "internalType": "string",
          "name": "",
          "type": "string"
        }
      ],
      "stateMutability": "pure",
      "type": "function"
    },
    {
      "inputs": [
        {
          "components": [
            {
              "internalType": "address",
              "name": "assetCreator",
              "type": "address"
            },
            {
              "internalType": "address",
              "name": "assetContract",
              "type": "address"
            },
            {
              "internalType": "uint256",
              "name": "tokenId",
              "type": "uint256"
            },
            {
              "internalType": "bytes",
              "name": "keyword",
              "type": "bytes"
            },
            {
              "internalType": "uint8",
              "name": "hashFunctionId",
              "type": "uint8"
            },
            {
              "internalType": "uint16",
              "name": "epochsNumber",
              "type": "uint16"
            },
            {
              "internalType": "uint96",
              "name": "tokenAmount",
              "type": "uint96"
            },
            {
              "internalType": "uint8",
              "name": "scoreFunctionId",
              "type": "uint8"
            }
          ],
          "internalType": "struct ServiceAgreementStructsV1.ServiceAgreementInputArgs",
          "name": "args",
          "type": "tuple"
        }
      ],
      "name": "createServiceAgreement",
      "outputs": [],
      "stateMutability": "nonpayable",
      "type": "function"
    },
    {
      "inputs": [
        {
          "components": [
            {
              "internalType": "address",
              "name": "assetCreator",
              "type": "address"
            },
            {
              "internalType": "address",
              "name": "assetContract",
              "type": "address"
            },
            {
              "internalType": "uint256",
              "name": "tokenId",
              "type": "uint256"
            },
            {
              "internalType": "bytes",
              "name": "keyword",
              "type": "bytes"
            },
            {
              "internalType": "uint8",
              "name": "hashFunctionId",
              "type": "uint8"
            },
            {
              "internalType": "uint16",
              "name": "epochsNumber",
              "type": "uint16"
            },
            {
              "internalType": "uint96",
              "name": "tokenAmount",
              "type": "uint96"
            },
            {
              "internalType": "uint8",
              "name": "scoreFunctionId",
              "type": "uint8"
            }
          ],
          "internalType": "struct ServiceAgreementStructsV1.ServiceAgreementInputArgs",
          "name": "args",
          "type": "tuple"
        }
      ],
      "name": "updateServiceAgreement",
      "outputs": [],
      "stateMutability": "nonpayable",
      "type": "function"
    },
    {
      "inputs": [
        {
          "internalType": "bytes32",
          "name": "agreementId",
          "type": "bytes32"
        },
        {
          "internalType": "uint16",
          "name": "epoch",
          "type": "uint16"
        }
      ],
      "name": "isCommitWindowOpen",
      "outputs": [
        {
          "internalType": "bool",
          "name": "",
          "type": "bool"
        }
      ],
      "stateMutability": "view",
      "type": "function"
    },
    {
      "inputs": [
        {
          "internalType": "bytes32",
          "name": "agreementId",
          "type": "bytes32"
        },
        {
          "internalType": "uint16",
          "name": "epoch",
          "type": "uint16"
        }
      ],
      "name": "getTopCommitSubmissions",
      "outputs": [
        {
          "components": [
            {
              "internalType": "uint72",
              "name": "identityId",
              "type": "uint72"
            },
            {
              "internalType": "uint72",
              "name": "prevIdentityId",
              "type": "uint72"
            },
            {
              "internalType": "uint72",
              "name": "nextIdentityId",
              "type": "uint72"
            },
            {
              "internalType": "uint40",
              "name": "score",
              "type": "uint40"
            }
          ],
          "internalType": "struct ServiceAgreementStructsV1.CommitSubmission[]",
          "name": "",
          "type": "tuple[]"
        }
      ],
      "stateMutability": "view",
      "type": "function"
    },
    {
      "inputs": [
        {
          "components": [
            {
              "internalType": "address",
              "name": "assetContract",
              "type": "address"
            },
            {
              "internalType": "uint256",
              "name": "tokenId",
              "type": "uint256"
            },
            {
              "internalType": "bytes",
              "name": "keyword",
              "type": "bytes"
            },
            {
              "internalType": "uint8",
              "name": "hashFunctionId",
              "type": "uint8"
            },
            {
              "internalType": "uint16",
              "name": "epoch",
              "type": "uint16"
            }
          ],
          "internalType": "struct ServiceAgreementStructsV1.CommitInputArgs",
          "name": "args",
          "type": "tuple"
        }
      ],
      "name": "submitCommit",
      "outputs": [],
      "stateMutability": "nonpayable",
      "type": "function"
    },
    {
      "inputs": [
        {
          "internalType": "bytes32",
          "name": "agreementId",
          "type": "bytes32"
        },
        {
          "internalType": "uint16",
          "name": "epoch",
          "type": "uint16"
        }
      ],
      "name": "isProofWindowOpen",
      "outputs": [
        {
          "internalType": "bool",
          "name": "",
          "type": "bool"
        }
      ],
      "stateMutability": "view",
      "type": "function"
    },
    {
      "inputs": [
        {
          "internalType": "address",
          "name": "sender",
          "type": "address"
        },
        {
          "internalType": "address",
          "name": "assetContract",
          "type": "address"
        },
        {
          "internalType": "uint256",
          "name": "tokenId",
          "type": "uint256"
        },
        {
          "internalType": "uint16",
          "name": "epoch",
          "type": "uint16"
        }
      ],
      "name": "getChallenge",
      "outputs": [
        {
          "internalType": "bytes32",
          "name": "",
          "type": "bytes32"
        },
        {
          "internalType": "uint256",
          "name": "",
          "type": "uint256"
        }
      ],
      "stateMutability": "view",
      "type": "function"
    },
    {
      "inputs": [
        {
          "components": [
            {
              "internalType": "address",
              "name": "assetContract",
              "type": "address"
            },
            {
              "internalType": "uint256",
              "name": "tokenId",
              "type": "uint256"
            },
            {
              "internalType": "bytes",
              "name": "keyword",
              "type": "bytes"
            },
            {
              "internalType": "uint8",
              "name": "hashFunctionId",
              "type": "uint8"
            },
            {
              "internalType": "uint16",
              "name": "epoch",
              "type": "uint16"
            },
            {
              "internalType": "bytes32[]",
              "name": "proof",
              "type": "bytes32[]"
            },
            {
              "internalType": "bytes32",
              "name": "chunkHash",
              "type": "bytes32"
            }
          ],
          "internalType": "struct ServiceAgreementStructsV1.ProofInputArgs",
          "name": "args",
          "type": "tuple"
        }
      ],
      "name": "sendProof",
      "outputs": [],
      "stateMutability": "nonpayable",
      "type": "function"
    }
  ],
  "bytecode": "0x608060409080825234620005dc5762004ef28038038091620000228285620005e1565b83396001600160a01b039182916200003e91908101906200061b565b16908115620005dc57600080546001600160a01b0319908116841782558451638da5cb5b60e01b815290936020916004919083818481855afa908115620005d2579086918691620005b0575b501633036200059a57865190630110ceef60e21b9081835284848401526024600c818501526044906b48617368696e6750726f787960a01b8286015260649487818781875afa9081156200045e57908a918a9162000578575b50168a60015416176001558a518481528787820152600c828201526b53636f72696e6750726f787960a01b8382015287818781875afa9081156200045e57908a918a9162000556575b50168a60025416176002558a518481528787820152600782820152665374616b696e6760c81b8382015287818781875afa9081156200045e57908a918a9162000534575b50168a60035416176003558a5184815287878201526010828201526f417373657274696f6e53746f7261676560801b8382015287818781875afa9081156200045e57908a918a9162000512575b50168a8754161786558a518481528787820152600f828201526e4964656e7469747953746f7261676560881b8382015287818781875afa9081156200045e57908a918a91620004f0575b50168a60055416176005558a51848152878782015260118282015270506172616d657465727353746f7261676560781b8382015287818781875afa9081156200045e57908a918a91620004ce575b50168a60065416176006558a518481528787820152600e828201526d50726f66696c6553746f7261676560901b8382015287818781875afa9081156200045e57908a918a91620004ac575b50168a60075416176007558a5184815287878201526019828201527f5365727669636541677265656d656e7453746f726167655631000000000000008382015287818781875afa9081156200045e57908a918a916200048a575b50168a60085416176008558a5184815287878201526014828201527f5368617264696e675461626c6553746f726167650000000000000000000000008382015287818781875afa9081156200045e57908a918a9162000468575b50168a60095416176009558a518481528787820152600e828201526d5374616b696e6753746f7261676560901b8382015287818781875afa9081156200045e5792600589989694938e8e8e642a37b5b2b760d91b968f988e9d9b99916200043c575b501690600a541617600a55519a8b98899788528701528501528301525afa928315620004315792620003fd575b50501690600b541617600b55516148b590816200063d8239f35b620004219250803d1062000429575b620004188183620005e1565b8101906200061b565b3880620003e3565b503d6200040c565b8651903d90823e3d90fd5b6200045791508d803d106200042957620004188183620005e1565b38620003b6565b8c513d8b823e3d90fd5b620004839150893d8b116200042957620004188183620005e1565b3862000354565b620004a59150893d8b116200042957620004188183620005e1565b38620002fa565b620004c79150893d8b116200042957620004188183620005e1565b38620002a0565b620004e99150893d8b116200042957620004188183620005e1565b3862000255565b6200050b9150893d8b116200042957620004188183620005e1565b3862000207565b6200052d9150893d8b116200042957620004188183620005e1565b38620001bd565b6200054f9150893d8b116200042957620004188183620005e1565b3862000170565b620005719150893d8b116200042957620004188183620005e1565b386200012c565b620005939150893d8b116200042957620004188183620005e1565b38620000e3565b8651632980dd4b60e21b81523381840152602490fd5b620005cb9150853d87116200042957620004188183620005e1565b386200008a565b88513d87823e3d90fd5b600080fd5b601f909101601f19168101906001600160401b038211908210176200060557604052565b634e487b7160e01b600052604160045260246000fd5b90816020910312620005dc57516001600160a01b0381168103620005dc579056fe608080604052600436101561001357600080fd5b600090813560e01c90816306fdde03146138b5575080630f0020161461385857806311c94ee81461382f578063169df8d814612aaf578063271af8a8146124fb578063365a86fc146124d457806350d0c144146124ab57806354fd4d501461246157806355a373d614612438578063639a86a31461240f5780637522c2b1146116a25780637662966a146116795780637db4ffd8146111285780638129fc1c14610bf9578063823e2bc714610bd0578063aa6a00fd14610ba9578063b518a00e14610b80578063becdd59714610b4f578063d210b7cf14610b26578063e1572ce61461019b578063ee99205c14610172578063f11abfd8146101495763f42cb0381461011e57600080fd5b346101465780600319360112610146576007546040516001600160a01b039091168152602090f35b80fd5b50346101465780600319360112610146576005546040516001600160a01b039091168152602090f35b50346101465780600319360112610146576003546040516001600160a01b039091168152602090f35b5034610146576101aa36613960565b6101b2614806565b6001600160a01b036101c382613a36565b1615610b145781546001600160a01b031660206101e1838201613a36565b6040516334f702db60e01b81526001600160a01b03909116600482015291829060249082905afa908115610a83578391610af5575b5015610ac8576102296060820182613a62565b9061023382613a1b565b61024060405191826139db565b8281528460208201923685820111610ac457847fc5d2460186f7233c927e7db2dcc703c0e500b653ca82273b7bfad8045d85a4709560209286378301015251902014610ab25761ffff61029560a08301613a94565b1615610aa0576001600160601b036102af60c08301613aa3565b1615610a8e576002546001600160a01b0316602060ff60246102d360e08601613ab7565b604051948593849263e12e56a760e01b84521660048301525afa908115610a83578391610a64575b5015610a3e5761033661031060208301613a36565b61031d6060840184613a62565b9061032a60808601613ab7565b92604086013590614735565b6008546006546001600160a01b03908116939291169061035860a08401613a94565b604051630afaeebf60e31b81529190602083600481895afa928315610a33578793610a12575b5061038b60c08601613aa3565b9061039860e08701613ab7565b90604051634731312160e11b8082526020826004818d5afa918215610a07578b926109e6575b506103c889613a36565b9060048c60208d6040519384809263ff21174360e01b82525afa9283156109b7578d9282946109c4575b5060209060046040518095819382525afa80156109b75760ff92839291610988575b501691160360ff81116109745760ff6001818316011161095e5761047960ff929183600181809560405160208101914283526001600160601b03199060601b1660408201524360548201526054815261046c816139a5565b5190209316011690614370565b169116019160ff831161095e578995873b1561095a5760ff946001600160801b036001600160601b039261ffff88966040519a63131cbfbf60e21b8c5260048c01521660248a01521660448801521660648601521660848401521660a4820152818160c48183875af1801561094f57610937575b5050600b546001600160a01b0316610538602061050985613a36565b604051636eb1769f60e11b81526001600160a01b03909116600482015230602482015291829081906044820190565b0381855afa90811561085c578691610905575b506001600160601b0361056060c08601613aa3565b16116108675761056f83613a36565b6040516370a0823160e01b81526001600160a01b039091166004820152602081602481855afa90811561085c57869161082a575b506001600160601b036105b860c08601613aa3565b161161078e57610620916020916105ce85613a36565b91876105dc60c08801613aa3565b6040516323b872dd60e01b81526001600160a01b0395861660048201529290941660248301526001600160601b039093166044820152938492839182906064820190565b03925af1801561078357610754575b5061063c60208201613a36565b9161064a6060830183613a62565b600461065860808601613ab7565b94602061066760a08301613a94565b9560405193848092630afaeebf60e31b82525afa8015610749577f4b81188c3c973dd634ec0dae5b7e72f92bb03834c830739d63935923950d6f64956001600160801b036001600160601b03926040958c9161071a575b5061ffff6106ce60c08701613aa3565b9360ff6106e789519b8c9b60c08d5260c08d0191613afd565b9c1660208a015242888a01521660608801521660808601521660a08401520135946001600160a01b0316930390a3604051f35b61073c915060203d602011610742575b61073481836139db565b810190613ac5565b386106be565b503d61072a565b6040513d8a823e3d90fd5b6107759060203d60201161077c575b61076d81836139db565b810190613a4a565b503861062f565b503d610763565b6040513d86823e3d90fd5b84602061079a85613a36565b6040516370a0823160e01b81526001600160a01b03909116600482015292839060249082905afa90811561081e57906107e6575b602490604051906317bf085b60e11b82526004820152fd5b506020813d602011610816575b81610800602093836139db565b8101031261081157602490516107ce565b600080fd5b3d91506107f3565b604051903d90823e3d90fd5b90506020813d602011610854575b81610845602093836139db565b810103126108115751386105a3565b3d9150610838565b6040513d88823e3d90fd5b8460206108a99261087786613a36565b604051636eb1769f60e11b81526001600160a01b03909116600482015230602482015293849190829081906044820190565b03915afa90811561081e57906108d2575b60249060405190630aff60cd60e01b82526004820152fd5b506020813d6020116108fd575b816108ec602093836139db565b8101031261081157602490516108ba565b3d91506108df565b90506020813d60201161092f575b81610920602093836139db565b8101031261081157513861054b565b3d9150610913565b61094090613992565b61094b5783386104ed565b8380fd5b6040513d84823e3d90fd5b8680fd5b634e487b7160e01b600052601160045260246000fd5b634e487b7160e01b8c52601160045260248cfd5b6109aa915060203d6020116109b0575b6109a281836139db565b810190613ae4565b38610414565b503d610998565b50604051903d90823e3d90fd5b60209194506109df90823d84116109b0576109a281836139db565b93906103f2565b610a0091925060203d6020116109b0576109a281836139db565b90386103be565b6040513d8d823e3d90fd5b610a2c91935060203d6020116107425761073481836139db565b913861037e565b6040513d89823e3d90fd5b610a4c60e060249201613ab7565b60ff60405191633345e8a560e11b8352166004820152fd5b610a7d915060203d60201161077c5761076d81836139db565b386102fb565b6040513d85823e3d90fd5b6040516382c4a8c960e01b8152600490fd5b60405163223e71ab60e21b8152600490fd5b6040516330e90cc960e21b8152600490fd5b5080fd5b610ad6602060249201613a36565b604051630d6e49f360e11b81526001600160a01b039091166004820152fd5b610b0e915060203d60201161077c5761076d81836139db565b38610216565b604051630c2a482760e11b8152600490fd5b50346101465780600319360112610146576004546040516001600160a01b039091168152602090f35b5034610146576040366003190112610146576020610b76610b6e61394f565b600435613bc9565b6040519015158152f35b5034610146578060031936011261014657600a546040516001600160a01b039091168152602090f35b5034610146576040366003190112610146576020610b76610bc861394f565b600435613ff9565b50346101465780600319360112610146576009546040516001600160a01b039091168152602090f35b50346101465780600319360112610146578054604051638da5cb5b60e01b81526001600160a01b0391821691906020908181600481875afa8015610fc4578391869161110b575b501633036110f3578360405193630110ceef60e21b90818652836004870152602490600c828801526044926b48617368696e6750726f787960a01b8489015260649186898481845afa98891561085c5786996110d4575b50876001600160601b0360a01b9916896001541617600155604051828152876004820152600c858201526b53636f72696e6750726f787960a01b8682015287818581855afa8015610a3357899188916110b7575b5016896002541617600255604051828152876004820152600785820152665374616b696e6760c81b8682015287818581855afa8015610a33578991889161109a575b50168960035416176003556040518281528760048201526010858201526f417373657274696f6e53746f7261676560801b8682015287818581855afa8015610a33578991889161107d575b5016896004541617600455604051828152876004820152600f858201526e4964656e7469747953746f7261676560881b8682015287818581855afa8015610a335789918891611060575b501689600554161760055560405182815287600482015260118582015270506172616d657465727353746f7261676560781b8682015287818581855afa8015610a335789918891611043575b5016896006541617600655604051828152876004820152600e858201526d50726f66696c6553746f7261676560901b8682015287818581855afa8015610a335789918891611026575b50168960075416176007556040518281528760048201526019858201527f5365727669636541677265656d656e7453746f726167655631000000000000008682015287818581855afa8015610a335789918891611009575b5016896008541617600855604051828152876004820152601485820152735368617264696e675461626c6553746f7261676560601b8682015287818581855afa8015610a335789918891610fec575b5016896009541617600955604051828152876004820152600e858201526d5374616b696e6753746f7261676560901b8682015287818581855afa958615610a3357898997642a37b5b2b760d91b9360059a91610fcf575b50168b600a541617600a55604051978896879586528860048701528501528301525afa918215610fc4578592610f97575b50501690600b541617600b55604051f35b610fb69250803d10610fbd575b610fae81836139db565b8101906139fc565b3880610f86565b503d610fa4565b6040513d87823e3d90fd5b610fe69150893d8b11610fbd57610fae81836139db565b38610f55565b6110039150893d8b11610fbd57610fae81836139db565b38610efe565b6110209150893d8b11610fbd57610fae81836139db565b38610eaf565b61103d9150893d8b11610fbd57610fae81836139db565b38610e57565b61105a9150893d8b11610fbd57610fae81836139db565b38610e0e565b6110779150893d8b11610fbd57610fae81836139db565b38610dc2565b6110949150893d8b11610fbd57610fae81836139db565b38610d78565b6110b19150893d8b11610fbd57610fae81836139db565b38610d2d565b6110ce9150893d8b11610fbd57610fae81836139db565b38610ceb565b6110ec919950873d8911610fbd57610fae81836139db565b9738610c97565b604051632980dd4b60e21b8152336004820152602490fd5b6111229150833d8511610fbd57610fae81836139db565b38610c40565b50346101465760403660031901126101465761114261394f565b6008546040516310dc199160e31b815260048035908201526001600160a01b03918216929190602081602481875afa908115610fc457859161165a575b50156116415760405163d1a640c760e01b808252600480359083015290602081602481885afa90811561085c578691611622575b5061ffff80911690841610156114f3575091602060049360065416604051948580926346b9ec3560e11b82525afa9283156107835784936114c2575b506111ff63ffffffff8416613e99565b9161120d60405193846139db565b63ffffffff8416808452601f199061122490613e99565b01855b81811061149357505060405163572943f760e01b8152600480359082015261ffff82166024820152602081604481865afa90811561085c578691611461575b506040519063223dea6d60e21b82526004820152608081602481865afa90811561085c578691611442575b5061129b84613f2e565b526112a583613f2e565b506001600160481b0360406112b985613f2e565b510151166001905b63ffffffff861660ff83161080611430575b156113a6576040516112ff816112f160208201948760043587613f65565b03601f1981018352826139db565b5190206040519063223dea6d60e21b82526004820152608081602481875afa908115610a33578791611377575b5061133a60ff831686613f51565b5261134860ff821685613f51565b5063ffffffff60ff60016001600160481b0360406113688487168a613f51565b510151169301169190506112c1565b611399915060803d60801161139f575b61139181836139db565b810190613ed6565b3861132c565b503d611387565b8487604051918291602083016020845282518091526020604085019301915b8181106113d3575050500390f35b919350916020608060019286516001600160481b0381511682526001600160481b038482015116848301526001600160481b03604082015116604083015264ffffffffff60608092015116908201520194019101918493926113c5565b506001600160481b03811615156112d3565b61145b915060803d60801161139f5761139181836139db565b38611291565b90506020813d60201161148b575b8161147c602093836139db565b81010312610811575138611266565b3d915061146f565b6020906040516114a2816139a5565b888152888382015288604082015288606082015282828801015201611227565b6114e591935060203d6020116114ec575b6114dd81836139db565b810190613e7d565b91386111ef565b503d6114d3565b604051630271c2cf60e61b815260048035908201529250602083602481875afa928315610fc45785936115ed575b50602090602460405180968193825260043560048301525afa9283156107835784936115b8575b5060206004916006541660405192838092630afaeebf60e31b82525afa9081156107835761159592939491611599575b50604051631b18d90960e31b815293849360048035908601613b70565b0390fd5b6115b2915060203d6020116107425761073481836139db565b38611578565b60049193506115de602091823d84116115e6575b6115d681836139db565b810190613b56565b939150611548565b503d6115cc565b9092506020813d60201161161a575b81611609602093836139db565b810103126108115751916020611521565b3d91506115fc565b61163b915060203d6020116115e6576115d681836139db565b386111b3565b6024604051635013c2b960e01b81526004356004820152fd5b611673915060203d60201161077c5761076d81836139db565b3861117f565b50346101465780600319360112610146576002546040516001600160a01b039091168152602090f35b5034610146576020366003190112610146576001600160401b03600435116101465760e060043536036003190112610146576117166116e5600435600401613a36565b6116f9604460043501600435600401613a62565b90611708606460043501613ab7565b926024600435013590614735565b6008546001600160a01b0316611739611733600435608401613a94565b83613ff9565b1561227d5760055460405163010cf48d60e71b81523360048201529190602090839060249082906001600160a01b03165afa918215610783578492612241575b508161179f61178c608460043501613a94565b6112f16040519384928860208501613f65565b6020815191012060405190635c6c1fef60e01b82526004820152602081602481855afa8015610fc4578590612203575b64ffffffffff91501615612170579061181e939160206117f3608460043501613a94565b60405163572943f760e01b81526004810187905261ffff909116602482015295869081906044820190565b0381845afa8015610a8357839061213d575b6006546040516346b9ec3560e11b81529650909290602090879060049082906001600160a01b03165afa95861561078357849661211c575b5083925b604051620153f560ea1b815260048101829052602081602481875afa90811561085c5786916120e2575b506001600160481b0383811691161415806120d0575b15611962576118bf608460043501613a94565b9060405190635b3db70f60e11b82526004820152602081602481875afa90811561085c578691611915575b5060ff916112f161190960019360405192839160208301958d87613f65565b5190209401169261186c565b90506020813d60201161195a575b81611930602093836139db565b810103126119565760ff916112f161190961194c600194613eb0565b93505050916118ea565b8580fd5b3d9150611923565b509091859063ffffffff821660ff8216101561203b57506119a761198a600435600401613a36565b611998608460043501613a94565b90602460043501359033614390565b9390956119be60a4600435016004356004016145b9565b60409591955160c460043501356020820152876040820152604081528060608101106001600160401b0360608301111761202557606081016040526020815191012090611a0a81613e99565b96611a1860405198896139db565b8188526020880190368360051b8201116120215780915b8360051b8201831061201157505050509587965b8651881015611aa057611a568888613f51565b519081811015611a91578952602052604088205b966000198114611a7d5760010196611a43565b634e487b7160e01b89526011600452602489fd5b90895260205260408820611a6a565b8895965089809103611ee6575050611abc600435600401613a36565b611ad0604460043501600435600401613a62565b919060ff611af8611ae5606460043501613ab7565b9260405195604087526040870191613afd565b911660208401526001600160481b0384169260043560240135926001600160a01b0316917f366aaa9c8abe80c090bc64cea91ec9dd40e38cc712d3381824709c5a1562f2c4919081900390a4604051634089a17d60e01b815260048101839052602081602481875afa908115610fc4578591611ec7575b5060405163d1a640c760e01b815260048101849052602081602481885afa90811561085c578691611ea8575b5061ffff908180611bb0608460043501613a94565b16911603818111611e94578116600101818111611e9457611bd3929116906145ee565b94611c126020611be7608460043501613a94565b604051632b275f3d60e21b81526004810187905261ffff909116602482015291829081906044820190565b0381885afa90811561085c5763ffffffff9182918891611e75575b501691160363ffffffff8111611e6157849563ffffffff611c4f9216906145ee565b6003546001600160a01b0316803b156119565785809160446040518094819363a7b5dd5960e01b83526001600160481b03891660048401526001600160601b03881660248401525af190811561085c578691611e4d575b5050604051634089a17d60e01b81526004810184905290602082602481885afa801561085c57611cdd928791611e1e575b50613b3d565b833b15611e065760405163e54b26ff60e01b8152600481018490526001600160601b03919091166024820152848160448183885af1908115610fc4578591611e0a575b5050611d30608460043501613a94565b833b15611e065760405163beca40f360e01b81526004810184905261ffff919091166024820152848160448183885af1908115610fc4578591611ded575b5050611d95611d81608460043501613a94565b6112f1604051938492602084019687613f65565b519020813b15611de9578291604483926040519485938492631eb18b8b60e11b845260048401528160248401525af1801561094f57611dd5575b50604051f35b611dde90613992565b610146578082611dcf565b5050fd5b611df690613992565b611e01578386611d6e565b505050fd5b8480fd5b611e1390613992565b611e01578386611d20565b611e40915060203d602011611e46575b611e3881836139db565b810190613b1e565b88611cd7565b503d611e2e565b611e5690613992565b611e06578487611ca6565b634e487b7160e01b85526011600452602485fd5b611e8e915060203d6020116114ec576114dd81836139db565b89611c2d565b634e487b7160e01b87526011600452602487fd5b611ec1915060203d6020116115e6576115d681836139db565b87611b9b565b611ee0915060203d602011611e4657611e3881836139db565b86611b6f565b9085916024611ef9608460043501613a94565b6007546040516320e085cd60e11b81526001600160481b038816600482015291969192869184919082906001600160a01b03165afa918215610fc45791611f989161ffff938792611fe4575b506001600160481b0390611f6360a4600435016004356004016145b9565b9590996040519b635926ff1b60e11b8d5260048d01521660248b0152166044890152610100606489015261010488019061392a565b868103600319016084880152818152936001600160fb1b0382116101465750918593916020959360051b80948785013760a485015260c4600435013560c485015260e484015201030190fd5b6001600160481b0391925061200a903d808a833e61200281836139db565b810190613f98565b9190611f45565b8235815260209283019201611a2f565b8a80fd5b634e487b7160e01b600052604160045260246000fd5b82868692602461204f608460043501613a94565b6007546040516320e085cd60e11b81526001600160481b038716600482015291959192879184919082906001600160a01b03165afa91821561085c5786611595959697936120b3575b50506040516311168fa360e01b81529586956004870161457a565b6120c89293503d8091833e61200281836139db565b908680612098565b5063ffffffff871660ff8516106118ac565b90506020813d602011612114575b816120fd602093836139db565b810103126119565761210e90613eb0565b38611896565b3d91506120f0565b61213691965060203d6020116114ec576114dd81836139db565b9438611868565b506020853d602011612168575b81612157602093836139db565b810103126108115760049451611830565b3d915061214a565b50906024612182608460043501613a94565b6007546040516320e085cd60e11b81526001600160481b038616600482015291949192869184919082906001600160a01b03165afa918215610fc45785611595949596936121e6575b50506040516305e3db5760e31b81529485946004860161454a565b6121fb9293503d8091833e61200281836139db565b9038806121cb565b506020813d602011612239575b8161221d602093836139db565b81010312611e065761223464ffffffffff91613ec4565b6117cf565b3d9150612210565b9091506020813d602011612275575b8161225d602093836139db565b8101031261094b5761226e90613eb0565b9038611779565b3d9150612250565b9190604051630271c2cf60e61b8152816004820152602081602481875afa908115610a835783916123dd575b50602460206122bc608460043501613a94565b956040519283809263484a47e760e01b82528760048301525afa9081156107835761230161230893926001600160801b039287916123be575b5061ffff809816613ba8565b1690613b9b565b92612317608460043501613a94565b60065460405163e8d487ff60e01b815291949190602090829060049082906001600160a01b03165afa91821561081e5791611595949391612360939161239f575b501685613b9b565b60405163d28d7f1f60e01b8152600481019290925261ffff909316602482015260448101939093526064830191909152426084830152819060a4820190565b6123b8915060203d6020116115e6576115d681836139db565b38612358565b6123d7915060203d6020116107425761073481836139db565b386122f5565b90506020813d602011612407575b816123f8602093836139db565b810103126108115751386122a9565b3d91506123eb565b50346101465780600319360112610146576006546040516001600160a01b039091168152602090f35b5034610146578060031936011261014657600b546040516001600160a01b039091168152602090f35b50346101465780600319360112610146576124a7604051612481816139c0565b60058152640312e302e360dc1b602082015260405191829160208352602083019061392a565b0390f35b50346101465780600319360112610146576008546040516001600160a01b039091168152602090f35b5034610146578060031936011261014657546040516001600160a01b039091168152602090f35b50346101465761250a36613960565b90612513614806565b61254861252260208401613a36565b61252f6060850185613a62565b9061253c60808701613ab7565b92604087013590614735565b6008546001600160a01b0390811693919061256283613a36565b1615610b14576040516310dc199160e31b815260048101829052602081602481885afa908115610783578491612a90575b5015612a785761ffff6125a860a08401613a94565b1615610aa0576001600160601b036125c260c08401613aa3565b1615610a8e576002546001600160a01b0316602060ff60246125e660e08701613ab7565b604051948593849263e12e56a760e01b84521660048301525afa908115610783578491612a59575b5015612a4b57604051634089a17d60e01b81526004810182905290602082602481885afa918215610783578492612a2a575b5061264d60a08401613a94565b853b15611e0657604051630f3a549d60e01b81526004810183905261ffff9190911660248201528481604481838a5af18015610fc457908591612a16575b505061269960c08401613aa3565b853b15611e065760405163e54b26ff60e01b8152600481018390526001600160601b039190911660248201528481604481838a5af18015610fc457908591612a02575b50506126ea60e08401613ab7565b853b15611e0657604051633220d13b60e11b8152600481019290925260ff166024820152838160448183895af18015610783579084916129ea575b5050600b546001600160a01b03169361273d83613a36565b604051636eb1769f60e11b8082526001600160a01b039290921660048201523060248201526020816044818a5afa90811561085c5786916129b8575b506001600160601b036127978561279260c08901613aa3565b613b3d565b161161297d57506127a783613a36565b6040516370a0823160e01b8082526001600160a01b0390921660048201526020816024818a5afa90811561085c57869161294b575b506001600160601b036127f58561279260c08901613aa3565b16116128fa575061281e9185602092866105dc61281188613a36565b9461279260c08a01613aa3565b03925af18015610a83576128db575b5061283a60208201613a36565b907f18f7112b7bab68afa5bae58afb27a44357ea01c2850f33e5b17e264de835ef306128696060830183613a62565b604061287760808601613ab7565b946001600160601b0361288c60a08301613a94565b61ffff61289b60c08501613aa3565b9160ff6128b48751998a9960808b5260808b0191613afd565b9a16602088015216848601521660608401520135946001600160a01b0316930390a3604051f35b6128f39060203d60201161077c5761076d81836139db565b508261282d565b915050602461290a602093613a36565b6040519283526001600160a01b03166004830152909384919082905afa90811561081e57906107e657602490604051906317bf085b60e11b82526004820152fd5b90506020813d602011612975575b81612966602093836139db565b810103126108115751386127dc565b3d9150612959565b8460206108a9928861298e88613a36565b6040519283526001600160a01b031660048301523060248301529093849190829081906044820190565b90506020813d6020116129e2575b816129d3602093836139db565b81010312610811575138612779565b3d91506129c6565b6129f390613992565b6129fe578238612725565b8280fd5b612a0b90613992565b61094b5783386126dc565b612a1f90613992565b61094b57833861268b565b612a4491925060203d602011611e4657611e3881836139db565b9038612640565b6024610a4c60e08401613ab7565b612a72915060203d60201161077c5761076d81836139db565b3861260e565b60249060405190635013c2b960e01b82526004820152fd5b612aa9915060203d60201161077c5761076d81836139db565b38612593565b503461014657602036600319011261014657600435906001600160401b0382116101465760a0600319833603011261014657612b19612af083600401613a36565b612b006044850185600401613a62565b90612b0d60648701613ab7565b92602487013590614735565b612b2e612b2860848501613a94565b82613bc9565b156136c85760055460405163010cf48d60e71b81523360048201529190602090839060249082906001600160a01b03165afa918215610a8357839261368c575b5060095460405163175a11e760e21b81526001600160481b038416600482015290602090829060249082906001600160a01b03165afa90811561078357849161366d575b50156134fd5760025460085460405163ce60dc6160e01b815260048101849052956001600160a01b03918216949190921691602087602481885afa96871561085c5786976134dc575b50612c0860648201613ab7565b6007546040516320e085cd60e11b81526001600160481b0385166004820152986001600160a01b03909116949190888a602481895afa998a156133c257899a6134c0575b506024612c5f6044860186600401613a62565b600a54604051639d2b48ad60e01b81526001600160481b038a1660048201529360209185919082906001600160a01b03165afa928315612ef8578c9361349f575b506040519c8d958695630168f40160e31b875260ff16600487015260ff1660248601526044850160a0905260a48501612cd89161392a565b90600319858303016064860152612cee92613afd565b906001600160601b0316608483015203815a93602094fa96871561085c578697613463575b50612d2060848201613a94565b91604051612d37816112f184878a60208501613f65565b602081519101209760405163c45d174960e01b81528960048201526020816024818b5afa9081156133c2578991613444575b506133cd5760405163572943f760e01b81526004810187905261ffff851660248201529860208a6044818b5afa998a156133c257899a61338e575b50600654604051635b3db70f60e11b8152600481018c90529a6001600160a01b039091169660208c6024818d5afa9b8c15610a07578b9c61334f575b50602060049c986040519d8e80926346b9ec3560e11b82525afa9b8c15610a07578b9c61332e575b5090968a975b604051635c6c1fef60e01b8152600481018290526020816024818f5afa908115613323578d916132e5575b5064ffffffffff80911690861610806132d3575b806132c1575b15612f0357506112f1612e738a926040519283918b602084019687613f65565b519020604051635b3db70f60e11b8152600481018290529091906020816024818e5afa908115612ef8578c91612eb5575b50600160ff91990116979091612e0e565b90506020813d602011612ef0575b81612ed0602093836139db565b81010312612eec576001612ee560ff92613eb0565b9150612ea4565b8b80fd5b3d9150612ec3565b6040513d8e823e3d90fd5b929498959993979b63ffffffff91501660ff8c1610156132685750813b15613264576040519963cf57ca2f60e01b8b528360048c01526001600160481b03881660248c01528960448c01528960648c015264ffffffffff871660848c0152898b60a48183875af180156132595761323f575b899a5060409996979899519163223dea6d60e21b83526004830152608082602481865afa908115610a33578992889261321c575b5060ff1615808061320a575b156130b557505050803b15611e065760405163447b6fab60e11b8152600481019390935261ffff93909316602483015260448201529082908290606490829084905af1801561094f576130a1575b50505b7f06d678193262cc8cf0c98a32a42cc9c6ccb379cf09a5766360b3a6b6d59723d361303384600401613a36565b926001600160481b03602461304e6044880188600401613a62565b92909364ffffffffff61306360648b01613ab7565b9760ff61307d60405198899860608a5260608a0191613afd565b9916602087015216604085015216960135946001600160a01b0316930390a4604051f35b6130aa90613992565b61094b578338613003565b808098949295939798906131ee575b156130e75750505050926001600160481b036130e294511691614606565b613006565b80969192939596906131d3575b156131755750803b1561094b5760405163447b6fab60e11b81526004810186905261ffff87166024820152604481019290925290929081908490606490829084905af19283156109b757879361315c575b5050926001600160481b036130e294511692614606565b61316891929350613992565b61095a5784908738613145565b935050509264ffffffffff60608501511664ffffffffff8616116000146131bc576001600160481b03846131b4848360206130e2990151168588614606565b511692614606565b6001600160481b036130e294939293511691614606565b5064ffffffffff60608501511664ffffffffff8916116130f4565b5064ffffffffff60608601511664ffffffffff8a1611156130c4565b506001600160481b0382511615612fb5565b60ff9192506132389060803d811161139f5761139181836139db565b9190612fa9565b95969798909961324e90613992565b979695948990612f75565b6040513d8c823e3d90fd5b8880fd5b85858c60248b8e8096604051938480926320e085cd60e11b82526001600160481b03861660048301525afa91821561085c5786611595959697936120b35750506040516311168fa360e01b81529586956004870161457a565b5063ffffffff8d1660ff8a1610612e53565b506001600160481b0382161515612e4d565b90506020813d60201161331b575b81613300602093836139db565b810103126133175761331190613ec4565b38612e39565b8c80fd5b3d91506132f3565b6040513d8f823e3d90fd5b613348919c5060203d6020116114ec576114dd81836139db565b9a38612e08565b9b5060208c3d602011613386575b8161336a602093836139db565b8101031261202157602061337f60049d613eb0565b9c50612de0565b3d915061335d565b9099506020813d6020116133ba575b816133aa602093836139db565b8101031261326457519838612da4565b3d915061339d565b6040513d8b823e3d90fd5b509194505084602492604051938480926320e085cd60e11b82526001600160481b03861660048301525afa918215610fc4578561159594959693613427575b5050604051631f5a1aa960e11b81529485946004860161454a565b61343c9293503d8091833e61200281836139db565b90858061340c565b61345d915060203d60201161077c5761076d81836139db565b38612d69565b9096506020813d602011613497575b8161347f602093836139db565b810103126119565761349090613ec4565b9538612d13565b3d9150613472565b6134b991935060203d602011611e4657611e3881836139db565b9138612ca0565b6134d5919a503d808b833e61200281836139db565b9838612c4c565b6134f691975060203d6020116109b0576109a281836139db565b9538612bfb565b506007546040516320e085cd60e11b81526001600160481b0383166004820152906001600160a01b03168382602481845afa90811561078357602492859261364e575b50602090604051938480926339fb67dd60e01b82526001600160481b03881660048301525afa90811561078357602492859261362d575b50600a54604051639d2b48ad60e01b81526001600160481b03861660048201529360209185919082906001600160a01b03165afa928315610fc4576001600160481b039593613608575b506135ed90604051958695636e2310c160e01b875216600486015260806024860152608485019061392a565b916001600160601b0380921660448501521660648301520390fd5b6135ed9193506136269060203d602011611e4657611e3881836139db565b92906135c1565b61364791925060203d602011611e4657611e3881836139db565b9085613577565b6020919250613666903d8088833e61200281836139db565b9190613540565b613686915060203d60201161077c5761076d81836139db565b38612bb2565b9091506020813d6020116136c0575b816136a8602093836139db565b810103126129fe576136b990613eb0565b9038612b6e565b3d915061369b565b600854604051630271c2cf60e61b8152600481018390526001600160a01b03939184169190602081602481865afa90811561094f5782916137fd575b506024602061371560848901613a94565b946040519283809263484a47e760e01b82528960048301525afa908115610a835760846137636004946001600160801b0361230160209661376a968a916137e0575b5061ffff809b16613ba8565b9801613a94565b95600654166040519283809263e8d487ff60e01b82525afa91821561081e57916115959493916137a1939161239f57501685613b9b565b604051632689ca7960e21b8152600481019290925261ffff909316602482015260448101939093526064830191909152426084830152819060a4820190565b6137f79150883d8a116107425761073481836139db565b38613757565b90506020813d602011613827575b81613818602093836139db565b81010312610ac4575138613704565b3d915061380b565b50346101465780600319360112610146576001546040516001600160a01b039091168152602090f35b5034610146576080366003190112610146576004356001600160a01b0380821682036129fe5760243590811681036129fe576064359261ffff841684036101465760406138a9856044358587614390565b82519182526020820152f35b905034610ac45781600319360112610ac457806138d46124a7926139c0565b60128152715365727669636541677265656d656e74563160701b602082015260405191829160208352602083019061392a565b60005b83811061391a5750506000910152565b818101518382015260200161390a565b9060209161394381518092818552858086019101613907565b601f01601f1916010190565b6024359061ffff8216820361081157565b6003199060208183011261081157600435916001600160401b0383116108115782610100920301126108115760040190565b6001600160401b03811161202557604052565b608081019081106001600160401b0382111761202557604052565b604081019081106001600160401b0382111761202557604052565b90601f801991011681019081106001600160401b0382111761202557604052565b9081602091031261081157516001600160a01b03811681036108115790565b6001600160401b03811161202557601f01601f191660200190565b356001600160a01b03811681036108115790565b90816020910312610811575180151581036108115790565b903590601e198136030182121561081157018035906001600160401b0382116108115760200191813603831361081157565b3561ffff811681036108115790565b356001600160601b03811681036108115790565b3560ff811681036108115790565b9081602091031261081157516001600160801b03811681036108115790565b90816020910312610811575160ff811681036108115790565b908060209392818452848401376000828201840152601f01601f1916010190565b9081602091031261081157516001600160601b03811681036108115790565b6001600160601b03918216908216039190821161095e57565b90816020910312610811575161ffff811681036108115790565b929361ffff6001600160801b0392969560609460808701988752602087015216604085015216910152565b9190820180921161095e57565b6001600160801b03918280921691829116920482118115151661095e570290565b60085460408051630271c2cf60e61b815260048082018590526001600160a01b03938416969592939192916020919082856024818c5afa948515613d2f57600095613e4e575b50600654169385519663484a47e760e01b8852808389015283886024818d5afa978815613e4357600098613e24575b508115613e0e5786519963d1a640c760e01b808c5282858d0152858c602481855afa9b8c15613e035760009c613de4575b5061ffff808098169c168c1015613d76575050508815613d3a576001600160801b03613ca681613c9f8c8b613ba8565b1683613b9b565b42119788613cbc575b5096985050505050505050565b84969850613cd09395979a61230191613ba8565b9487519283809263e8d487ff60e01b82525afa918215613d2f57613d01959650600092613d12575b50501690613b9b565b421081903880808080808080613caf565b613d289250803d106115e6576115d681836139db565b3880613cf8565b86513d6000823e3d90fd5b955091939650809287519283809263e8d487ff60e01b82525afa918215613d2f57613d71959650600092613d125750501690613b9b565b421090565b9288868b949695602483518096819382528a8a8301525afa928315613dd957611595959697600094613dba575b505051631b18d90960e31b81529586958601613b70565b613dd1929450803d106115e6576115d681836139db565b918780613da3565b50513d6000823e3d90fd5b613dfc919c50863d88116115e6576115d681836139db565b9a38613c6f565b89513d6000823e3d90fd5b82602491885191635013c2b960e01b8352820152fd5b613e3c919850843d86116107425761073481836139db565b9638613c3e565b87513d6000823e3d90fd5b90948382813d8311613e76575b613e6581836139db565b810103126101465750519338613c0f565b503d613e5b565b90816020910312610811575163ffffffff811681036108115790565b6001600160401b0381116120255760051b60200190565b51906001600160481b038216820361081157565b519064ffffffffff8216820361081157565b9081608091031261081157613f26606060405192613ef3846139a5565b613efc81613eb0565b8452613f0a60208201613eb0565b6020850152613f1b60408201613eb0565b604085015201613ec4565b606082015290565b805115613f3b5760200190565b634e487b7160e01b600052603260045260246000fd5b8051821015613f3b5760209160051b010190565b90815260f09190911b6001600160f01b031916602082015260b89190911b6001600160b81b0319166022820152602b0190565b602081830312610811578051906001600160401b038211610811570181601f82011215610811578051613fca81613a1b565b92613fd860405194856139db565b8184526020828401011161081157613ff69160208085019101613907565b90565b9060018060a01b0380600854166040805191630271c2cf60e61b95868452600491818386015260209160249883878b81865afa968715613d2f57600097614341575b50861561432b57855163d1a640c760e01b8082528682018490529099858b8d81885afa9a8b156143205760009b614301575b5061ffff8091169a168a10156141fd575050845163484a47e760e01b815284810182905298838a8281865afa998a15613d2f5760009a6141da575b509083918651809481936399149f7760e01b8352888301525afa9081156141cf579160ff606482936140f39796956000916141b2575b506001600160801b039788938492168d613ba8565b160416966006541684519384809263274f3ac360e21b82525afa9283156141a8575061413260ff8594606494869460009261418b575b50501689613ba8565b160416936141548461414f84614148858b613ba8565b1686613b9b565b613b9b565b42119586614166575b50505050505090565b61417e96509161230161414f95949261414f94613ba8565b421038808080808061415d565b6141a19250803d106109b0576109a281836139db565b3880614129565b513d6000823e3d90fd5b6141c99150843d86116109b0576109a281836139db565b386140de565b84513d6000823e3d90fd5b8492919a506141f590833d85116107425761073481836139db565b9990916140a8565b8a939497508698929651918252868683015287828581885afa938415613e035788926000956142cd575b50895180968193825289898301525afa928315613e4357958097918596976000956142ae575b5060065416825195868092630afaeebf60e31b82525afa938415613dd95761159595969760009561428f57505051631b18d90960e31b81529586958601613b70565b6142a6929550803d106107425761073481836139db565b928780613da3565b6142c6919550823d84116115e6576115d681836139db565b938961424d565b919282819692963d83116142fa575b6142e681836139db565b81010312610146575090879151938a614227565b503d6142dc565b614319919b50863d88116115e6576115d681836139db565b993861406d565b88513d6000823e3d90fd5b8551635013c2b960e01b81528086018390528a90fd5b90968482813d8311614369575b61435881836139db565b81010312610146575051953861403b565b503d61434e565b811561437a570690565b634e487b7160e01b600052601260045260246000fd5b9391909360018060a01b03938491826005541693604094855194859363010cf48d60e71b855216600484015282602460209687935afa91821561453f57600092614500575b508697602485928751998a93849263cede992f60e01b84526004840152165afa9586156141cf576000966144cf575b5082602495969760045416855196878092632111070960e01b82528b60048301525afa9485156141cf576000956144a7575b50600091614484918551908582019261ffff60f01b9060f01b1683526001600160481b0360b81b9060b81b166022820152600b8152614474816139c0565b8551928392839251928391613907565b8101039060025afa156141a857506001600160601b03613ff69116600051614370565b614484919550916144c6600093853d8711611e4657611e3881836139db565b95915091614436565b96958388813d83116144f9575b6144e681836139db565b8101031261014657509551949582614404565b503d6144dc565b90918482813d8311614538575b61451781836139db565b8101031261014657508697602461452e8693613eb0565b93925050976143d5565b503d61450d565b85513d6000823e3d90fd5b90613ff6949361ffff6080946001600160481b03938552166020840152166040820152816060820152019061392a565b936001600160481b0360809461ffff60ff956145b2959a999a895216602088015216604086015260a0606086015260a085019061392a565b9416910152565b903590601e198136030182121561081157018035906001600160401b03821161081157602001918160051b3603831361081157565b906001600160601b0380911691821561437a57160490565b600854604080516000969195946001600160a01b039093169392602082018261463188848885613f65565b0392614645601f19948581018352826139db565b519020853b15613264578751638a0f01b560e01b815260048101919091526001600160481b03841660248201528881604481838a5af1801561472b57614714575b50906146ab9161469f8851948592602084019788613f65565b039081018352826139db565b519020813b15611e06578351631c30973d60e31b815260048101919091526001600160481b0392909216602483015290919083908390604490829084905af190811561470b57506146fa575050565b6147048291613992565b6101465750565b513d84823e3d90fd5b976147236146ab939299613992565b979091614686565b88513d8b823e3d90fd5b6147b69461478b605460ff936020979695968060018060a01b036001541697604051998a946001600160601b03199060601b168c86015260348501528484013781016000838201520360348101875201856139db565b604051958694859384936345ed59e560e01b855216600484015260406024840152604483019061392a565b03915afa9081156147fa576000916147cc575090565b906020823d82116147f2575b816147e5602093836139db565b8101031261014657505190565b3d91506147d8565b6040513d6000823e3d90fd5b600054604051631627905560e01b815233600482015290602090829060249082906001600160a01b03165afa9081156147fa57600091614861575b501561484957565b6040516322d7fbbf60e11b8152336004820152602490fd5b614879915060203d811161077c5761076d81836139db565b3861484156fea2646970667358221220742c17de8ca87d488e6174739dd73702cc4bf67039c27dc1ff73d9039658149664736f6c63430008100033",
  "immutableReferences": {},
  "source": "// SPDX-License-Identifier: MIT\n\npragma solidity ^0.8.4;\n\nimport { HashingProxy } from \"./HashingProxy.sol\";\nimport { Hub } from \"./Hub.sol\";\nimport { ScoringProxy } from \"./ScoringProxy.sol\";\nimport { Staking } from \"./Staking.sol\";\nimport { AbstractAsset } from \"./assets/AbstractAsset.sol\";\nimport { AssertionStorage } from \"./storage/AssertionStorage.sol\";\nimport { IdentityStorage } from \"./storage/IdentityStorage.sol\";\nimport { ParametersStorage } from \"./storage/ParametersStorage.sol\";\nimport { ProfileStorage } from \"./storage/ProfileStorage.sol\";\nimport { ServiceAgreementStorageV1 } from \"./storage/ServiceAgreementStorageV1.sol\";\nimport { ShardingTableStorage } from \"./storage/ShardingTableStorage.sol\";\nimport { StakingStorage } from \"./storage/StakingStorage.sol\";\nimport { Named } from \"./interface/Named.sol\";\nimport { Versioned } from \"./interface/Versioned.sol\";\nimport { ServiceAgreementStructsV1 } from \"./structs/ServiceAgreementStructsV1.sol\";\nimport { GeneralErrors } from \"./errors/GeneralErrors.sol\";\nimport { ServiceAgreementErrorsV1 } from \"./errors/ServiceAgreementErrorsV1.sol\";\nimport { IERC20 } from \"@openzeppelin/contracts/token/ERC20/IERC20.sol\";\nimport { MerkleProof } from \"@openzeppelin/contracts/utils/cryptography/MerkleProof.sol\";\n\ncontract ServiceAgreementV1 is Named, Versioned {\n\n    event ServiceAgreementV1Created(\n        address indexed assetContract,\n        uint256 indexed tokenId,\n        bytes keyword,\n        uint8 hashFunctionId,\n        uint256 startTime,\n        uint16 epochsNumber,\n        uint128 epochLength,\n        uint96 tokenAmount\n    );\n    event ServiceAgreementV1Updated(\n        address indexed assetContract,\n        uint256 indexed tokenId,\n        bytes keyword,\n        uint8 hashFunctionId,\n        uint16 epochsNumber,\n        uint96 tokenAmount\n    );\n    event CommitSubmitted(\n        address indexed assetContract,\n        uint256 indexed tokenId,\n        bytes keyword,\n        uint8 hashFunctionId,\n        uint72 indexed identityId,\n        uint40 score\n    );\n    event ProofSubmitted(\n        address indexed assetContract,\n        uint256 indexed tokenId,\n        bytes keyword,\n        uint8 hashFunctionId,\n        uint72 indexed identityId\n    );\n\n    string constant private _NAME = \"ServiceAgreementV1\";\n    string constant private _VERSION = \"1.0.0\";\n\n    Hub public hub;\n    HashingProxy public hashingProxy;\n    ScoringProxy public scoringProxy;\n    Staking public stakingContract;\n    AssertionStorage public assertionStorage;\n    IdentityStorage public identityStorage;\n    ParametersStorage public parametersStorage;\n    ProfileStorage public profileStorage;\n    ServiceAgreementStorageV1 public serviceAgreementStorageV1;\n    ShardingTableStorage public shardingTableStorage;\n    StakingStorage public stakingStorage;\n    IERC20 public tokenContract;\n\n    constructor (address hubAddress) {\n        require(hubAddress != address(0));\n\n        hub = Hub(hubAddress);\n        initialize();\n    }\n\n    modifier onlyHubOwner() {\n\t\t_checkHubOwner();\n\t\t_;\n\t}\n\n    modifier onlyContracts() {\n        _checkHub();\n        _;\n    }\n\n    function initialize() public onlyHubOwner {\n\t\thashingProxy = HashingProxy(hub.getContractAddress(\"HashingProxy\"));\n        scoringProxy = ScoringProxy(hub.getContractAddress(\"ScoringProxy\"));\n        stakingContract = Staking(hub.getContractAddress(\"Staking\"));\n        assertionStorage = AssertionStorage(hub.getContractAddress(\"AssertionStorage\"));\n        identityStorage = IdentityStorage(hub.getContractAddress(\"IdentityStorage\"));\n        parametersStorage = ParametersStorage(hub.getContractAddress(\"ParametersStorage\"));\n        profileStorage = ProfileStorage(hub.getContractAddress(\"ProfileStorage\"));\n        serviceAgreementStorageV1 = ServiceAgreementStorageV1(hub.getContractAddress(\"ServiceAgreementStorageV1\"));\n        shardingTableStorage = ShardingTableStorage(hub.getContractAddress(\"ShardingTableStorage\"));\n        stakingStorage = StakingStorage(hub.getContractAddress(\"StakingStorage\"));\n        tokenContract = IERC20(hub.getContractAddress(\"Token\"));\n\t}\n\n    function name() external pure virtual override returns (string memory) {\n        return _NAME;\n    }\n\n    function version() external pure virtual override returns (string memory) {\n        return _VERSION;\n    }\n\n    function createServiceAgreement(ServiceAgreementStructsV1.ServiceAgreementInputArgs calldata args)\n        external\n        onlyContracts\n    {\n        if (args.assetCreator == address(0x0))\n            revert ServiceAgreementErrorsV1.EmptyAssetCreatorAddress();\n        if (!hub.isAssetStorage(args.assetContract))\n            revert ServiceAgreementErrorsV1.AssetStorgeNotInTheHub(args.assetContract);\n        if (keccak256(args.keyword) == keccak256(\"\"))\n            revert ServiceAgreementErrorsV1.EmptyKeyword();\n        if (args.epochsNumber == 0)\n            revert ServiceAgreementErrorsV1.ZeroEpochsNumber();\n        if (args.tokenAmount == 0)\n            revert ServiceAgreementErrorsV1.ZeroTokenAmount();\n        if (!scoringProxy.isScoreFunction(args.scoreFunctionId))\n            revert ServiceAgreementErrorsV1.ScoreFunctionDoesntExist(args.scoreFunctionId);\n\n        bytes32 agreementId = _generateAgreementId(args.assetContract, args.tokenId, args.keyword, args.hashFunctionId);\n\n        ServiceAgreementStorageV1 sasV1 = serviceAgreementStorageV1;\n        ParametersStorage params = parametersStorage;\n\n        sasV1.createServiceAgreementObject(\n            agreementId,\n            args.epochsNumber,\n            params.epochLength(),\n            args.tokenAmount,\n            args.scoreFunctionId,\n            params.minProofWindowOffsetPerc() + _generatePseudorandomUint8(\n                args.assetCreator,\n                params.maxProofWindowOffsetPerc() - params.minProofWindowOffsetPerc() + 1\n            )\n        );\n\n        IERC20 tknc = tokenContract;\n        if (tknc.allowance(args.assetCreator, address(this)) < args.tokenAmount)\n            revert ServiceAgreementErrorsV1.TooLowAllowance(tknc.allowance(args.assetCreator, address(this)));\n        if (tknc.balanceOf(args.assetCreator) < args.tokenAmount)\n            revert ServiceAgreementErrorsV1.TooLowBalance(tknc.balanceOf(args.assetCreator));\n\n        tknc.transferFrom(args.assetCreator, address(sasV1), args.tokenAmount);\n\n        emit ServiceAgreementV1Created(\n            args.assetContract,\n            args.tokenId,\n            args.keyword,\n            args.hashFunctionId,\n            block.timestamp,\n            args.epochsNumber,\n            params.epochLength(),\n            args.tokenAmount\n        );\n    }\n\n    // TODO: Split into smaller functions [update only epochsNumber / tokenAmount / scoreFunctionId etc.]\n    function updateServiceAgreement(ServiceAgreementStructsV1.ServiceAgreementInputArgs calldata args)\n        external\n        onlyContracts\n    {\n        bytes32 agreementId = _generateAgreementId(args.assetContract, args.tokenId, args.keyword, args.hashFunctionId);\n\n        ServiceAgreementStorageV1 sasV1 = serviceAgreementStorageV1;\n\n        if (args.assetCreator == address(0x0))\n            revert ServiceAgreementErrorsV1.EmptyAssetCreatorAddress();\n        if (!sasV1.serviceAgreementExists(agreementId))\n            revert ServiceAgreementErrorsV1.ServiceAgreementDoesntExist(agreementId);\n        if (args.epochsNumber == 0)\n            revert ServiceAgreementErrorsV1.ZeroEpochsNumber();\n        if (args.tokenAmount == 0)\n            revert ServiceAgreementErrorsV1.ZeroTokenAmount();\n        if (!scoringProxy.isScoreFunction(args.scoreFunctionId))\n            revert ServiceAgreementErrorsV1.ScoreFunctionDoesntExist(args.scoreFunctionId);\n\n        uint96 actualRewardAmount = sasV1.getAgreementTokenAmount(agreementId);\n\n        sasV1.setAgreementEpochsNumber(agreementId, args.epochsNumber);\n        sasV1.setAgreementTokenAmount(agreementId, args.tokenAmount);\n        sasV1.setAgreementScoreFunctionId(agreementId, args.scoreFunctionId);\n\n        IERC20 tknc = tokenContract;\n\n        if (tknc.allowance(args.assetCreator, address(this)) < (args.tokenAmount - actualRewardAmount))\n            revert ServiceAgreementErrorsV1.TooLowAllowance(tknc.allowance(args.assetCreator, address(this)));\n        if (tknc.balanceOf(args.assetCreator) < (args.tokenAmount - actualRewardAmount))\n            revert ServiceAgreementErrorsV1.TooLowBalance(tknc.balanceOf(args.assetCreator));\n\n        tknc.transferFrom(args.assetCreator, address(sasV1), args.tokenAmount - actualRewardAmount);\n\n        emit ServiceAgreementV1Updated(\n            args.assetContract,\n            args.tokenId,\n            args.keyword,\n            args.hashFunctionId,\n            args.epochsNumber,\n            args.tokenAmount\n        );\n    }\n\n    function isCommitWindowOpen(bytes32 agreementId, uint16 epoch) public view returns (bool) {\n        ServiceAgreementStorageV1 sasV1 = serviceAgreementStorageV1;\n        uint256 startTime = sasV1.getAgreementStartTime(agreementId);\n\n        ParametersStorage params = parametersStorage;\n        uint128 epochLength = sasV1.getAgreementEpochLength(agreementId);\n\n        if (startTime == 0)\n            revert ServiceAgreementErrorsV1.ServiceAgreementDoesntExist(agreementId);\n        if (epoch >= sasV1.getAgreementEpochsNumber(agreementId))\n            revert ServiceAgreementErrorsV1.ServiceAgreementHasBeenExpired(\n                agreementId,\n                startTime,\n                sasV1.getAgreementEpochsNumber(agreementId),\n                epochLength\n            );\n\n        uint256 timeNow = block.timestamp;\n\n        if (epoch == 0) {\n            return timeNow < (startTime + params.commitWindowDuration());\n        }\n\n        return (\n            timeNow > (startTime + epochLength * epoch) &&\n            timeNow < (startTime + epochLength * epoch + params.commitWindowDuration())\n        );\n    }\n\n    function getTopCommitSubmissions(bytes32 agreementId, uint16 epoch)\n        external\n        view\n        returns (ServiceAgreementStructsV1.CommitSubmission[] memory)\n    {\n        ServiceAgreementStorageV1 sasV1 = serviceAgreementStorageV1;\n\n        if (!sasV1.serviceAgreementExists(agreementId))\n            revert ServiceAgreementErrorsV1.ServiceAgreementDoesntExist(agreementId);\n        if (epoch >= sasV1.getAgreementEpochsNumber(agreementId))\n            revert ServiceAgreementErrorsV1.ServiceAgreementHasBeenExpired(\n                agreementId,\n                sasV1.getAgreementStartTime(agreementId),\n                sasV1.getAgreementEpochsNumber(agreementId),\n                parametersStorage.epochLength()\n            );\n\n        uint32 r0 = parametersStorage.R0();\n\n        ServiceAgreementStructsV1.CommitSubmission[] memory epochCommits =\n            new ServiceAgreementStructsV1.CommitSubmission[](r0);\n\n        bytes32 epochSubmissionsHead = sasV1.getAgreementEpochSubmissionHead(agreementId, epoch);\n\n        epochCommits[0] = sasV1.getCommitSubmission(epochSubmissionsHead);\n\n        bytes32 commitId;\n        uint72 nextIdentityId = epochCommits[0].nextIdentityId;\n        uint8 submissionsIdx = 1;\n        while((submissionsIdx < r0) && (nextIdentityId != 0)) {\n            commitId = keccak256(abi.encodePacked(agreementId, epoch, nextIdentityId));\n            epochCommits[submissionsIdx] = sasV1.getCommitSubmission(commitId);\n\n            nextIdentityId = epochCommits[submissionsIdx].nextIdentityId;\n\n            unchecked { submissionsIdx++; }\n        }\n\n        return epochCommits;\n    }\n\n    function submitCommit(ServiceAgreementStructsV1.CommitInputArgs calldata args) external {\n        bytes32 agreementId = _generateAgreementId(args.assetContract, args.tokenId, args.keyword, args.hashFunctionId);\n\n        if (!isCommitWindowOpen(agreementId, args.epoch)) {\n            ServiceAgreementStorageV1 sasV1 = serviceAgreementStorageV1;\n            uint256 actualCommitWindowStart = (\n                sasV1.getAgreementStartTime(agreementId) +\n                args.epoch * sasV1.getAgreementEpochLength(agreementId)\n            );\n\n            revert ServiceAgreementErrorsV1.CommitWindowClosed(\n                agreementId,\n                args.epoch,\n                actualCommitWindowStart,\n                actualCommitWindowStart + parametersStorage.commitWindowDuration(),\n                block.timestamp\n            );\n        }\n\n        uint72 identityId = identityStorage.getIdentityId(msg.sender);\n\n        if (!shardingTableStorage.nodeExists(identityId)) {\n            ProfileStorage ps = profileStorage;\n\n            revert ServiceAgreementErrorsV1.NodeNotInShardingTable(\n                identityId,\n                ps.getNodeId(identityId),\n                ps.getAsk(identityId),\n                stakingStorage.totalStakes(identityId)\n            );\n        }\n\n        uint40 score = scoringProxy.callScoreFunction(\n            serviceAgreementStorageV1.getAgreementScoreFunctionId(agreementId),\n            args.hashFunctionId,\n            profileStorage.getNodeId(identityId),\n            args.keyword,\n            stakingStorage.totalStakes(identityId)\n        );\n\n        _insertCommit(\n            agreementId,\n            args.epoch,\n            identityId,\n            0,\n            0,\n            score\n        );\n\n        emit CommitSubmitted(\n            args.assetContract,\n            args.tokenId,\n            args.keyword,\n            args.hashFunctionId,\n            identityId,\n            score\n        );\n    }\n\n    function isProofWindowOpen(bytes32 agreementId, uint16 epoch) public view returns (bool) {\n        ServiceAgreementStorageV1 sasV1 = serviceAgreementStorageV1;\n        uint256 startTime = sasV1.getAgreementStartTime(agreementId);\n\n        if (startTime == 0)\n            revert ServiceAgreementErrorsV1.ServiceAgreementDoesntExist(agreementId);\n        if (epoch >= sasV1.getAgreementEpochsNumber(agreementId))\n            revert ServiceAgreementErrorsV1.ServiceAgreementHasBeenExpired(\n                agreementId,\n                sasV1.getAgreementStartTime(agreementId),\n                sasV1.getAgreementEpochsNumber(agreementId),\n                parametersStorage.epochLength()\n            );\n\n        uint256 timeNow = block.timestamp;\n        uint128 epochLength = sasV1.getAgreementEpochLength(agreementId);\n        uint8 proofWindowOffsetPerc = sasV1.getAgreementProofWindowOffsetPerc(agreementId);\n\n        uint256 proofWindowOffset = epochLength * proofWindowOffsetPerc / 100;\n        uint256 proofWindowDuration = epochLength * parametersStorage.proofWindowDurationPerc() / 100;\n\n        return (\n            timeNow > (startTime + epochLength * epoch + proofWindowOffset) &&\n            timeNow < (startTime + epochLength * epoch + proofWindowOffset + proofWindowDuration)\n        );\n    }\n\n    function getChallenge(address sender, address assetContract, uint256 tokenId, uint16 epoch)\n        public\n        view\n        returns (bytes32, uint256)\n    {\n        uint72 identityId = identityStorage.getIdentityId(sender);\n\n        AbstractAsset generalAssetInterface = AbstractAsset(assetContract);\n        bytes32 assertionId = generalAssetInterface.getLatestAssertionId(tokenId);\n\n        uint256 assertionChunksNumber = assertionStorage.getAssertionChunksNumber(assertionId);\n\n        // blockchash() function only works for last 256 blocks (25.6 min window in case of 6s block time)\n        // TODO: figure out how to achieve randomness\n        return (\n            assertionId,\n            uint256(\n                sha256(abi.encodePacked(epoch, identityId))\n            ) % assertionChunksNumber\n        );\n    }\n\n    function sendProof(ServiceAgreementStructsV1.ProofInputArgs calldata args) external {\n        bytes32 agreementId = _generateAgreementId(args.assetContract, args.tokenId, args.keyword, args.hashFunctionId);\n\n        ServiceAgreementStorageV1 sasV1 = serviceAgreementStorageV1;\n\n        if (!isProofWindowOpen(agreementId, args.epoch)) {\n            uint256 actualCommitWindowStart = (\n                sasV1.getAgreementStartTime(agreementId) +\n                args.epoch * sasV1.getAgreementEpochLength(agreementId)\n            );\n\n            revert ServiceAgreementErrorsV1.ProofWindowClosed(\n                agreementId,\n                args.epoch,\n                actualCommitWindowStart,\n                actualCommitWindowStart + parametersStorage.commitWindowDuration(),\n                block.timestamp\n            );\n        }\n\n\n        IdentityStorage ids = identityStorage;\n\n        uint72 identityId = ids.getIdentityId(msg.sender);\n\n        if (sasV1.getCommitSubmissionScore(keccak256(abi.encodePacked(agreementId, args.epoch, identityId))) == 0)\n            revert ServiceAgreementErrorsV1.NodeAlreadyRewarded(\n                agreementId,\n                args.epoch,\n                identityId,\n                profileStorage.getNodeId(identityId)\n            );\n\n        bytes32 nextCommitId = sasV1.getAgreementEpochSubmissionHead(agreementId, args.epoch);\n        uint32 r0 = parametersStorage.R0();\n        uint8 i;\n        while ((identityId != sasV1.getCommitSubmissionIdentityId(nextCommitId)) && (i < r0)) {\n            nextCommitId = keccak256(\n                abi.encodePacked(agreementId, args.epoch, sasV1.getCommitSubmissionNextIdentityId(nextCommitId))\n            );\n            unchecked { i++; }\n        }\n\n        if (i >= r0)\n            revert ServiceAgreementErrorsV1.NodeNotAwarded(\n                agreementId,\n                args.epoch,\n                identityId,\n                profileStorage.getNodeId(identityId),\n                i\n            );\n\n        bytes32 merkleRoot;\n        uint256 challenge;\n        (merkleRoot, challenge) = getChallenge(msg.sender, args.assetContract, args.tokenId, args.epoch);\n\n        if (!MerkleProof.verify(args.proof, merkleRoot, keccak256(abi.encodePacked(args.chunkHash, challenge))))\n            revert ServiceAgreementErrorsV1.WrongMerkleProof(\n                agreementId,\n                args.epoch,\n                identityId,\n                profileStorage.getNodeId(identityId),\n                args.proof,\n                merkleRoot,\n                args.chunkHash,\n                challenge\n            );\n\n        emit ProofSubmitted(\n            args.assetContract,\n            args.tokenId,\n            args.keyword,\n            args.hashFunctionId,\n            identityId\n        );\n\n        uint96 reward = (\n            sasV1.getAgreementTokenAmount(agreementId) /\n            (sasV1.getAgreementEpochsNumber(agreementId) - args.epoch + 1) /\n            (r0 - sasV1.getAgreementRewardedNodesNumber(agreementId, args.epoch))\n        );\n\n        stakingContract.addReward(identityId, reward);\n        sasV1.setAgreementTokenAmount(agreementId, sasV1.getAgreementTokenAmount(agreementId) - reward);\n        sasV1.incrementAgreementRewardedNodesNumber(agreementId, args.epoch);\n\n        // To make sure that node already received reward\n        sasV1.setCommitSubmissionScore(keccak256(abi.encodePacked(agreementId, args.epoch, identityId)), 0);\n    }\n\n    function _insertCommit(\n        bytes32 agreementId,\n        uint16 epoch,\n        uint72 identityId,\n        uint72 prevIdentityId,\n        uint72 nextIdentityId,\n        uint40 score\n    )\n        private\n    {\n        ServiceAgreementStorageV1 sasV1 = serviceAgreementStorageV1;\n\n        bytes32 commitId = keccak256(abi.encodePacked(agreementId, epoch, identityId));\n\n        if (sasV1.commitSubmissionExists(commitId))\n            revert ServiceAgreementErrorsV1.NodeAlreadySubmittedCommit(\n                agreementId,\n                epoch,\n                identityId,\n                profileStorage.getNodeId(identityId)\n            );\n\n        bytes32 refCommitId = sasV1.getAgreementEpochSubmissionHead(agreementId, epoch);\n\n        ParametersStorage params = parametersStorage;\n\n        uint72 refCommitNextIdentityId = sasV1.getCommitSubmissionNextIdentityId(refCommitId);\n        uint32 r0 = params.R0();\n        uint8 i;\n        while (\n            (score <  sasV1.getCommitSubmissionScore(refCommitId)) &&\n            (refCommitNextIdentityId != 0) &&\n            (i < r0)\n        ) {\n            refCommitId = keccak256(\n                abi.encodePacked(agreementId, epoch, refCommitNextIdentityId)\n            );\n\n            refCommitNextIdentityId = sasV1.getCommitSubmissionNextIdentityId(refCommitId);\n            unchecked { i++; }\n        }\n\n        if (i >= r0)\n            revert ServiceAgreementErrorsV1.NodeNotAwarded(\n                agreementId,\n                epoch,\n                identityId,\n                profileStorage.getNodeId(identityId),\n                i\n            );\n\n        sasV1.createCommitSubmissionObject(commitId, identityId, prevIdentityId, nextIdentityId, score);\n\n        ServiceAgreementStructsV1.CommitSubmission memory refCommit = sasV1.getCommitSubmission(refCommitId);\n\n        if ((i == 0) && (refCommit.identityId == 0)) {\n            //  No head -> Setting new head\n            sasV1.setAgreementEpochSubmissionHead(agreementId, epoch, commitId);\n        } else if ((i == 0) && (score <= refCommit.score)) {\n            // There is a head with higher or equal score, add new commit on the right\n            _link_commits(agreementId, epoch, refCommit.identityId, identityId);\n        } else if ((i == 0) && (score > refCommit.score)) {\n            // There is a head with lower score, replace the head\n            sasV1.setAgreementEpochSubmissionHead(agreementId, epoch, commitId);\n            _link_commits(agreementId, epoch, identityId, refCommit.identityId);\n        }  else if (score > refCommit.score) {\n            // [H] - head\n            // [RC] - reference commit\n            // [RC-] - commit before reference commit\n            // [RC+] - commit after reference commit\n            // [NC] - new commit\n            // [] <-> [H] <-> [X] ... [RC-] <-> [RC] <-> [RC+] ... [C] <-> []\n            // [] <-> [H] <-> [X] ... [RC-] <-(NL)-> [NC] <-(NL)-> [RC] <-> [RC+] ... [C] <-> []\n            _link_commits(agreementId, epoch, refCommit.prevIdentityId, identityId);\n            _link_commits(agreementId, epoch, identityId, refCommit.identityId);\n        } else {\n            // [] <-> [H] <-> [RC] <-> []\n            // [] <-> [H] <-> [RC] <-(NL)-> [NC] <-> []\n            _link_commits(agreementId, epoch, refCommit.identityId, identityId);\n        }\n    }\n\n    function _link_commits(bytes32 agreementId, uint16 epoch, uint72 leftIdentityId, uint72 rightIdentityId) private {\n        ServiceAgreementStorageV1 sasV1 = serviceAgreementStorageV1;\n\n        sasV1.setCommitSubmissionNextIdentityId(\n            keccak256(abi.encodePacked(agreementId, epoch, leftIdentityId)),  // leftCommitId\n            rightIdentityId\n        );\n\n        sasV1.setCommitSubmissionPrevIdentityId(\n            keccak256(abi.encodePacked(agreementId, epoch, rightIdentityId)),  // rightCommitId\n            leftIdentityId\n        );\n    }\n\n    function _generateAgreementId(address assetContract, uint256 tokenId, bytes calldata keyword, uint8 hashFunctionId)\n        private\n        view\n        returns (bytes32)\n    {\n        return hashingProxy.callHashFunction(hashFunctionId, abi.encodePacked(assetContract, tokenId, keyword));\n    }\n\n    function _generatePseudorandomUint8(address sender, uint8 limit) private view returns (uint8) {\n        return uint8(uint256(keccak256(abi.encodePacked(block.timestamp, sender, block.number))) % limit);\n    }\n\n    function _checkHubOwner() internal view virtual {\n        if (msg.sender != hub.owner())\n            revert GeneralErrors.OnlyHubOwnerFunction(msg.sender);\n\t}\n\n    function _checkHub() internal view virtual {\n        if (!hub.isContract(msg.sender))\n            revert GeneralErrors.OnlyHubContractsFunction(msg.sender);\n    }\n\n}\n",
  "sourcePath": "/Users/waving/Desktop/OriginTrail/dkg-evm-module/contracts/ServiceAgreementV1.sol",
  "compiler": {
    "name": "solc",
    "version": "0.8.16+commit.07a7930e.Emscripten.clang"
  },
  "schemaVersion": "3.4.10",
  "updatedAt": "2022-12-12T09:47:52.095Z",
  "devdoc": {
    "kind": "dev",
    "methods": {},
    "version": 1
  },
  "userdoc": {
    "kind": "user",
    "methods": {},
    "version": 1
  }
}