{
  "contractName": "ServiceAgreementStorageV1",
  "abi": [
    {
      "inputs": [
        {
          "internalType": "address",
          "name": "hubAddress",
          "type": "address"
        }
      ],
      "stateMutability": "nonpayable",
      "type": "constructor"
    },
    {
      "anonymous": false,
      "inputs": [
        {
          "indexed": true,
          "internalType": "address",
          "name": "custodian",
          "type": "address"
        },
        {
          "indexed": false,
          "internalType": "uint256",
          "name": "amount",
          "type": "uint256"
        }
      ],
      "name": "MisplacedOTPWithdrawn",
      "type": "event"
    },
    {
      "anonymous": false,
      "inputs": [
        {
          "indexed": true,
          "internalType": "address",
          "name": "custodian",
          "type": "address"
        },
        {
          "indexed": false,
          "internalType": "address",
          "name": "tokenContract",
          "type": "address"
        },
        {
          "indexed": false,
          "internalType": "uint256",
          "name": "amount",
          "type": "uint256"
        }
      ],
      "name": "MisplacedTokensWithdrawn",
      "type": "event"
    },
    {
      "anonymous": false,
      "inputs": [
        {
          "indexed": true,
          "internalType": "address",
          "name": "custodian",
          "type": "address"
        },
        {
          "indexed": false,
          "internalType": "uint256",
          "name": "amount",
          "type": "uint256"
        }
      ],
      "name": "TokenTransferred",
      "type": "event"
    },
    {
      "inputs": [],
      "name": "hub",
      "outputs": [
        {
          "internalType": "contract Hub",
          "name": "",
          "type": "address"
        }
      ],
      "stateMutability": "view",
      "type": "function"
    },
    {
      "inputs": [],
      "name": "initialize",
      "outputs": [],
      "stateMutability": "nonpayable",
      "type": "function"
    },
    {
      "inputs": [],
      "name": "tokenContract",
      "outputs": [
        {
          "internalType": "contract IERC20",
          "name": "",
          "type": "address"
        }
      ],
      "stateMutability": "view",
      "type": "function"
    },
    {
      "inputs": [
        {
          "internalType": "address payable",
          "name": "custodian",
          "type": "address"
        }
      ],
      "name": "transferTokens",
      "outputs": [],
      "stateMutability": "nonpayable",
      "type": "function"
    },
    {
      "inputs": [],
      "name": "withdrawMisplacedOTP",
      "outputs": [],
      "stateMutability": "nonpayable",
      "type": "function"
    },
    {
      "inputs": [
        {
          "internalType": "address",
          "name": "tokenContractAddress",
          "type": "address"
        }
      ],
      "name": "withdrawMisplacedTokens",
      "outputs": [],
      "stateMutability": "nonpayable",
      "type": "function"
    },
    {
      "inputs": [],
      "name": "name",
      "outputs": [
        {
          "internalType": "string",
          "name": "",
          "type": "string"
        }
      ],
      "stateMutability": "pure",
      "type": "function"
    },
    {
      "inputs": [],
      "name": "version",
      "outputs": [
        {
          "internalType": "string",
          "name": "",
          "type": "string"
        }
      ],
      "stateMutability": "pure",
      "type": "function"
    },
    {
      "inputs": [
        {
          "internalType": "bytes32",
          "name": "agreementId",
          "type": "bytes32"
        },
        {
          "internalType": "uint16",
          "name": "epochsNumber",
          "type": "uint16"
        },
        {
          "internalType": "uint128",
          "name": "epochLength",
          "type": "uint128"
        },
        {
          "internalType": "uint96",
          "name": "tokenAmount",
          "type": "uint96"
        },
        {
          "internalType": "uint8",
          "name": "scoreFunctionId",
          "type": "uint8"
        },
        {
          "internalType": "uint8",
          "name": "proofWindowOffsetPerc",
          "type": "uint8"
        }
      ],
      "name": "createServiceAgreementObject",
      "outputs": [],
      "stateMutability": "nonpayable",
      "type": "function"
    },
    {
      "inputs": [
        {
          "internalType": "bytes32",
          "name": "agreementId",
          "type": "bytes32"
        }
      ],
      "name": "getAgreementData",
      "outputs": [
        {
          "internalType": "uint256",
          "name": "",
          "type": "uint256"
        },
        {
          "internalType": "uint16",
          "name": "",
          "type": "uint16"
        },
        {
          "internalType": "uint128",
          "name": "",
          "type": "uint128"
        },
        {
          "internalType": "uint96",
          "name": "",
          "type": "uint96"
        },
        {
          "internalType": "uint8[2]",
          "name": "",
          "type": "uint8[2]"
        }
      ],
      "stateMutability": "view",
      "type": "function"
    },
    {
      "inputs": [
        {
          "internalType": "bytes32",
          "name": "agreementId",
          "type": "bytes32"
        }
      ],
      "name": "getAgreementStartTime",
      "outputs": [
        {
          "internalType": "uint256",
          "name": "",
          "type": "uint256"
        }
      ],
      "stateMutability": "view",
      "type": "function"
    },
    {
      "inputs": [
        {
          "internalType": "bytes32",
          "name": "agreementId",
          "type": "bytes32"
        },
        {
          "internalType": "uint256",
          "name": "startTime",
          "type": "uint256"
        }
      ],
      "name": "setAgreementStartTime",
      "outputs": [],
      "stateMutability": "nonpayable",
      "type": "function"
    },
    {
      "inputs": [
        {
          "internalType": "bytes32",
          "name": "agreementId",
          "type": "bytes32"
        }
      ],
      "name": "getAgreementEpochsNumber",
      "outputs": [
        {
          "internalType": "uint16",
          "name": "",
          "type": "uint16"
        }
      ],
      "stateMutability": "view",
      "type": "function"
    },
    {
      "inputs": [
        {
          "internalType": "bytes32",
          "name": "agreementId",
          "type": "bytes32"
        },
        {
          "internalType": "uint16",
          "name": "epochsNumber",
          "type": "uint16"
        }
      ],
      "name": "setAgreementEpochsNumber",
      "outputs": [],
      "stateMutability": "nonpayable",
      "type": "function"
    },
    {
      "inputs": [
        {
          "internalType": "bytes32",
          "name": "agreementId",
          "type": "bytes32"
        }
      ],
      "name": "getAgreementEpochLength",
      "outputs": [
        {
          "internalType": "uint128",
          "name": "",
          "type": "uint128"
        }
      ],
      "stateMutability": "view",
      "type": "function"
    },
    {
      "inputs": [
        {
          "internalType": "bytes32",
          "name": "agreementId",
          "type": "bytes32"
        },
        {
          "internalType": "uint128",
          "name": "epochLength",
          "type": "uint128"
        }
      ],
      "name": "setAgreementEpochLength",
      "outputs": [],
      "stateMutability": "nonpayable",
      "type": "function"
    },
    {
      "inputs": [
        {
          "internalType": "bytes32",
          "name": "agreementId",
          "type": "bytes32"
        }
      ],
      "name": "getAgreementTokenAmount",
      "outputs": [
        {
          "internalType": "uint96",
          "name": "",
          "type": "uint96"
        }
      ],
      "stateMutability": "view",
      "type": "function"
    },
    {
      "inputs": [
        {
          "internalType": "bytes32",
          "name": "agreementId",
          "type": "bytes32"
        },
        {
          "internalType": "uint96",
          "name": "tokenAmount",
          "type": "uint96"
        }
      ],
      "name": "setAgreementTokenAmount",
      "outputs": [],
      "stateMutability": "nonpayable",
      "type": "function"
    },
    {
      "inputs": [
        {
          "internalType": "bytes32",
          "name": "agreementId",
          "type": "bytes32"
        }
      ],
      "name": "getAgreementScoreFunctionId",
      "outputs": [
        {
          "internalType": "uint8",
          "name": "",
          "type": "uint8"
        }
      ],
      "stateMutability": "view",
      "type": "function"
    },
    {
      "inputs": [
        {
          "internalType": "bytes32",
          "name": "agreementId",
          "type": "bytes32"
        },
        {
          "internalType": "uint8",
          "name": "newScoreFunctionId",
          "type": "uint8"
        }
      ],
      "name": "setAgreementScoreFunctionId",
      "outputs": [],
      "stateMutability": "nonpayable",
      "type": "function"
    },
    {
      "inputs": [
        {
          "internalType": "bytes32",
          "name": "agreementId",
          "type": "bytes32"
        }
      ],
      "name": "getAgreementProofWindowOffsetPerc",
      "outputs": [
        {
          "internalType": "uint8",
          "name": "",
          "type": "uint8"
        }
      ],
      "stateMutability": "view",
      "type": "function"
    },
    {
      "inputs": [
        {
          "internalType": "bytes32",
          "name": "agreementId",
          "type": "bytes32"
        },
        {
          "internalType": "uint8",
          "name": "proofWindowOffsetPerc",
          "type": "uint8"
        }
      ],
      "name": "setAgreementProofWindowOffsetPerc",
      "outputs": [],
      "stateMutability": "nonpayable",
      "type": "function"
    },
    {
      "inputs": [
        {
          "internalType": "bytes32",
          "name": "agreementId",
          "type": "bytes32"
        },
        {
          "internalType": "uint16",
          "name": "epoch",
          "type": "uint16"
        }
      ],
      "name": "getAgreementEpochSubmissionHead",
      "outputs": [
        {
          "internalType": "bytes32",
          "name": "",
          "type": "bytes32"
        }
      ],
      "stateMutability": "view",
      "type": "function"
    },
    {
      "inputs": [
        {
          "internalType": "bytes32",
          "name": "agreementId",
          "type": "bytes32"
        },
        {
          "internalType": "uint16",
          "name": "epoch",
          "type": "uint16"
        },
        {
          "internalType": "bytes32",
          "name": "headCommitId",
          "type": "bytes32"
        }
      ],
      "name": "setAgreementEpochSubmissionHead",
      "outputs": [],
      "stateMutability": "nonpayable",
      "type": "function"
    },
    {
      "inputs": [
        {
          "internalType": "bytes32",
          "name": "agreementId",
          "type": "bytes32"
        },
        {
          "internalType": "uint16",
          "name": "epoch",
          "type": "uint16"
        }
      ],
      "name": "incrementAgreementRewardedNodesNumber",
      "outputs": [],
      "stateMutability": "nonpayable",
      "type": "function"
    },
    {
      "inputs": [
        {
          "internalType": "bytes32",
          "name": "agreementId",
          "type": "bytes32"
        },
        {
          "internalType": "uint16",
          "name": "epoch",
          "type": "uint16"
        }
      ],
      "name": "decrementAgreementRewardedNodesNumber",
      "outputs": [],
      "stateMutability": "nonpayable",
      "type": "function"
    },
    {
      "inputs": [
        {
          "internalType": "bytes32",
          "name": "agreementId",
          "type": "bytes32"
        },
        {
          "internalType": "uint16",
          "name": "epoch",
          "type": "uint16"
        }
      ],
      "name": "getAgreementRewardedNodesNumber",
      "outputs": [
        {
          "internalType": "uint32",
          "name": "",
          "type": "uint32"
        }
      ],
      "stateMutability": "view",
      "type": "function"
    },
    {
      "inputs": [
        {
          "internalType": "bytes32",
          "name": "agreementId",
          "type": "bytes32"
        },
        {
          "internalType": "uint16",
          "name": "epoch",
          "type": "uint16"
        },
        {
          "internalType": "uint32",
          "name": "rewardedNodesNumber",
          "type": "uint32"
        }
      ],
      "name": "setAgreementRewardedNodesNumber",
      "outputs": [],
      "stateMutability": "nonpayable",
      "type": "function"
    },
    {
      "inputs": [
        {
          "internalType": "bytes32",
          "name": "agreementId",
          "type": "bytes32"
        }
      ],
      "name": "serviceAgreementExists",
      "outputs": [
        {
          "internalType": "bool",
          "name": "",
          "type": "bool"
        }
      ],
      "stateMutability": "view",
      "type": "function"
    },
    {
      "inputs": [
        {
          "internalType": "bytes32",
          "name": "commitId",
          "type": "bytes32"
        },
        {
          "internalType": "uint72",
          "name": "identityId",
          "type": "uint72"
        },
        {
          "internalType": "uint72",
          "name": "prevIdentityId",
          "type": "uint72"
        },
        {
          "internalType": "uint72",
          "name": "nextIdentityId",
          "type": "uint72"
        },
        {
          "internalType": "uint40",
          "name": "score",
          "type": "uint40"
        }
      ],
      "name": "createCommitSubmissionObject",
      "outputs": [],
      "stateMutability": "nonpayable",
      "type": "function"
    },
    {
      "inputs": [
        {
          "internalType": "bytes32",
          "name": "commitId",
          "type": "bytes32"
        }
      ],
      "name": "getCommitSubmission",
      "outputs": [
        {
          "components": [
            {
              "internalType": "uint72",
              "name": "identityId",
              "type": "uint72"
            },
            {
              "internalType": "uint72",
              "name": "prevIdentityId",
              "type": "uint72"
            },
            {
              "internalType": "uint72",
              "name": "nextIdentityId",
              "type": "uint72"
            },
            {
              "internalType": "uint40",
              "name": "score",
              "type": "uint40"
            }
          ],
          "internalType": "struct ServiceAgreementStructsV1.CommitSubmission",
          "name": "",
          "type": "tuple"
        }
      ],
      "stateMutability": "view",
      "type": "function"
    },
    {
      "inputs": [
        {
          "internalType": "bytes32",
          "name": "commitId",
          "type": "bytes32"
        }
      ],
      "name": "getCommitSubmissionIdentityId",
      "outputs": [
        {
          "internalType": "uint72",
          "name": "",
          "type": "uint72"
        }
      ],
      "stateMutability": "view",
      "type": "function"
    },
    {
      "inputs": [
        {
          "internalType": "bytes32",
          "name": "commitId",
          "type": "bytes32"
        },
        {
          "internalType": "uint72",
          "name": "identityId",
          "type": "uint72"
        }
      ],
      "name": "setCommitSubmissionIdentityId",
      "outputs": [],
      "stateMutability": "nonpayable",
      "type": "function"
    },
    {
      "inputs": [
        {
          "internalType": "bytes32",
          "name": "commitId",
          "type": "bytes32"
        }
      ],
      "name": "getCommitSubmissionPrevIdentityId",
      "outputs": [
        {
          "internalType": "uint72",
          "name": "",
          "type": "uint72"
        }
      ],
      "stateMutability": "view",
      "type": "function"
    },
    {
      "inputs": [
        {
          "internalType": "bytes32",
          "name": "commitId",
          "type": "bytes32"
        },
        {
          "internalType": "uint72",
          "name": "prevIdentityId",
          "type": "uint72"
        }
      ],
      "name": "setCommitSubmissionPrevIdentityId",
      "outputs": [],
      "stateMutability": "nonpayable",
      "type": "function"
    },
    {
      "inputs": [
        {
          "internalType": "bytes32",
          "name": "commitId",
          "type": "bytes32"
        }
      ],
      "name": "getCommitSubmissionNextIdentityId",
      "outputs": [
        {
          "internalType": "uint72",
          "name": "",
          "type": "uint72"
        }
      ],
      "stateMutability": "view",
      "type": "function"
    },
    {
      "inputs": [
        {
          "internalType": "bytes32",
          "name": "commitId",
          "type": "bytes32"
        },
        {
          "internalType": "uint72",
          "name": "nextIdentityId",
          "type": "uint72"
        }
      ],
      "name": "setCommitSubmissionNextIdentityId",
      "outputs": [],
      "stateMutability": "nonpayable",
      "type": "function"
    },
    {
      "inputs": [
        {
          "internalType": "bytes32",
          "name": "commitId",
          "type": "bytes32"
        }
      ],
      "name": "getCommitSubmissionScore",
      "outputs": [
        {
          "internalType": "uint40",
          "name": "",
          "type": "uint40"
        }
      ],
      "stateMutability": "view",
      "type": "function"
    },
    {
      "inputs": [
        {
          "internalType": "bytes32",
          "name": "commitId",
          "type": "bytes32"
        },
        {
          "internalType": "uint40",
          "name": "score",
          "type": "uint40"
        }
      ],
      "name": "setCommitSubmissionScore",
      "outputs": [],
      "stateMutability": "nonpayable",
      "type": "function"
    },
    {
      "inputs": [
        {
          "internalType": "bytes32",
          "name": "commitId",
          "type": "bytes32"
        }
      ],
      "name": "commitSubmissionExists",
      "outputs": [
        {
          "internalType": "bool",
          "name": "",
          "type": "bool"
        }
      ],
      "stateMutability": "view",
      "type": "function"
    },
    {
      "inputs": [
        {
          "internalType": "address",
          "name": "receiver",
          "type": "address"
        },
        {
          "internalType": "uint96",
          "name": "rewardAmount",
          "type": "uint96"
        }
      ],
      "name": "transferReward",
      "outputs": [],
      "stateMutability": "nonpayable",
      "type": "function"
    }
  ],
  "bytecode": "0x60806040523480156200001157600080fd5b5060405162001f8138038062001f81833981016040819052620000349162000206565b806001600160a01b0381166200004957600080fd5b600080546001600160a01b0319166001600160a01b0383161790556200006e62000076565b505062000238565b6200008062000127565b600054604051630110ceef60e21b81526020600482015260056024820152642a37b5b2b760d91b60448201526001600160a01b03909116906304433bbc90606401602060405180830381865afa158015620000df573d6000803e3d6000fd5b505050506040513d601f19601f8201168201806040525081019062000105919062000206565b600180546001600160a01b0319166001600160a01b0392909216919091179055565b60008054906101000a90046001600160a01b03166001600160a01b0316638da5cb5b6040518163ffffffff1660e01b8152600401602060405180830381865afa15801562000179573d6000803e3d6000fd5b505050506040513d601f19601f820116820180604052508101906200019f919062000206565b6001600160a01b0316336001600160a01b031614620002045760405162461bcd60e51b815260206004820181905260248201527f466e2063616e206f6e6c79206265207573656420627920687562206f776e6572604482015260640160405180910390fd5b565b6000602082840312156200021957600080fd5b81516001600160a01b03811681146200023157600080fd5b9392505050565b611d3980620002486000396000f3fe608060405234801561001057600080fd5b50600436106102535760003560e01c806386e0cc8811610146578063b2ffa997116100c3578063ce60dc6111610087578063ce60dc61146107f3578063cf57ca2f14610820578063d1a640c714610833578063d2692b311461086d578063e184b9e814610880578063e54b26ff1461089357600080fd5b8063b2ffa9971461075f578063b67b6e1e14610772578063beca40f3146107a2578063c45d1749146107b5578063cb327c7d146107e057600080fd5b80639c70b3c01161010a5780639c70b3c0146106b75780639d7937b2146106d7578063a6314896146106ea578063ac64112e146106fd578063ac9d7cf41461071057600080fd5b806386e0cc881461054657806388f6df561461057857806388f7a9b41461058b5780638a0f01b51461066557806399149f771461067857600080fd5b8063484a47e7116101d45780635c6c1fef116101985780635c6c1fef146104bb5780636441a276146104ff5780636ce1510e146105125780636ff015ae1461051a5780638129fc1c1461053e57600080fd5b8063484a47e7146103e75780634c72fefc1461043157806354fd4d501461044457806355a373d614610465578063572943f71461047857600080fd5b8063365a86fc1161021b578063365a86fc1461031b5780633c96f02b146103465780633d631716146103765780634089a17d146103895780634750b9f4146103d457600080fd5b8063038fed7314610258578063054fd4001461026d57806306fdde03146102b35780630c89a0df146102f55780630f3a549d14610308575b600080fd5b61026b61026636600461176b565b6108a6565b005b61029661027b36600461178d565b6000908152600260205260409020546001600160481b031690565b6040516001600160481b0390911681526020015b60405180910390f35b60408051808201909152601981527f5365727669636541677265656d656e7453746f7261676556310000000000000060208201525b6040516102aa91906117a6565b61026b61030336600461180c565b6108c0565b61026b610316366004611847565b610c8e565b60005461032e906001600160a01b031681565b6040516001600160a01b0390911681526020016102aa565b61029661035436600461178d565b600090815260026020526040902054600160481b90046001600160481b031690565b61026b610384366004611888565b610cbd565b6103bc61039736600461178d565b600090815260036020526040902060010154600160901b90046001600160601b031690565b6040516001600160601b0390911681526020016102aa565b61026b6103e23660046118c2565b610cf8565b6104196103f536600461178d565b6000908152600360205260409020600101546201000090046001600160801b031690565b6040516001600160801b0390911681526020016102aa565b61026b61043f366004611924565b610d30565b6040805180820190915260058152640312e302e360dc1b60208201526102e8565b60015461032e906001600160a01b031681565b6104ad610486366004611847565b600082815260036020908152604080832061ffff8516845260020190915290205492915050565b6040519081526020016102aa565b6104e96104c936600461178d565b600090815260026020526040902054600160d81b900464ffffffffff1690565b60405164ffffffffff90911681526020016102aa565b61026b61050d366004611991565b610dd2565b61026b610e0a565b61052d61052836600461178d565b610ede565b6040516102aa9594939291906119b4565b61026b610f60565b61056861055436600461178d565b600090815260036020526040902054151590565b60405190151581526020016102aa565b61026b610586366004611a1e565b61100c565b61061e61059936600461178d565b60408051608081018252600080825260208201819052918101829052606081019190915250600090815260026020908152604091829020825160808101845290546001600160481b038082168352600160481b8204811693830193909352600160901b810490921692810192909252600160d81b900464ffffffffff16606082015290565b6040805182516001600160481b03908116825260208085015182169083015283830151169181019190915260609182015164ffffffffff16918101919091526080016102aa565b61026b6106733660046118c2565b611039565b6106a561068636600461178d565b600090815260036020526040902060010154600160f81b900460ff1690565b60405160ff90911681526020016102aa565b6104ad6106c536600461178d565b60009081526003602052604090205490565b61026b6106e536600461180c565b61107c565b61026b6106f8366004611a53565b611288565b61026b61070b366004611991565b6112d3565b61074a61071e366004611847565b600082815260036020818152604080842061ffff86168552909201905290205463ffffffff1692915050565b60405163ffffffff90911681526020016102aa565b61026b61076d366004611847565b61130d565b61029661078036600461178d565b600090815260026020526040902054600160901b90046001600160481b031690565b61026b6107b0366004611847565b611369565b6105686107c336600461178d565b6000908152600260205260409020546001600160481b0316151590565b61026b6107ee366004611a76565b6113a2565b6106a561080136600461178d565b600090815260036020526040902060010154600160f01b900460ff1690565b61026b61082e366004611abf565b6113e5565b61085a61084136600461178d565b60009081526003602052604090206001015461ffff1690565b60405161ffff90911681526020016102aa565b61026b61087b366004611b1d565b6114a0565b61026b61088e3660046118c2565b61152c565b61026b6108a1366004611b49565b611575565b6108ae6115be565b60009182526003602052604090912055565b6108c8611678565b6001600160a01b03811661092e5760405162461bcd60e51b815260206004820152602260248201527f437573746f6469616e2063616e6e6f742062652061207a65726f206164647265604482015261737360f01b60648201526084015b60405180910390fd5b803b806109a35760405162461bcd60e51b815260206004820152603b60248201527f43616e6e6f74207472616e7366657220746f6b656e7320746f20637573746f6460448201527f69616e2074686174206973206e6f74206120636f6e74726163742100000000006064820152608401610925565b60008290506000816001600160a01b031663a0e67e2b6040518163ffffffff1660e01b8152600401600060405180830381865afa925050508015610a0957506040513d6000823e601f3d908101601f19168201604052610a069190810190611b8d565b60015b15610a8b57600191506000815111610a895760405162461bcd60e51b815260206004820152603b60248201527f43616e6e6f74207472616e7366657220746f6b656e7320746f20637573746f6460448201527f69616e20776974686f7574206f776e65727320646566696e65642100000000006064820152608401610925565b505b80610afe5760405162461bcd60e51b815260206004820152603f60248201527f43616e6e6f74207472616e7366657220746f6b656e7320746f20637573746f6460448201527f69616e20776974686f7574206765744f776e6572732066756e6374696f6e21006064820152608401610925565b6001546040516370a0823160e01b81523060048201526000916001600160a01b0316906370a0823190602401602060405180830381865afa158015610b47573d6000803e3d6000fd5b505050506040513d601f19601f82011682018060405250810190610b6b9190611c52565b60015460405163a9059cbb60e01b81526001600160a01b038881166004830152602482018490529293506000929091169063a9059cbb906044016020604051808303816000875af1158015610bc4573d6000803e3d6000fd5b505050506040513d601f19601f82011682018060405250810190610be89190611c6b565b905080610c435760405162461bcd60e51b815260206004820152602360248201527f546f6b656e207472616e73616374696f6e20657865637574696f6e206661696c60448201526265642160e81b6064820152608401610925565b856001600160a01b03167fefed6b8d78a916dbd402a323824ae4454c9214b8f3d05fa85b3bb7f30dc25c0683604051610c7e91815260200190565b60405180910390a2505050505050565b610c966115be565b600091825260036020526040909120600101805461ffff191661ffff909216919091179055565b610cc56115be565b600091825260026020526040909120805464ffffffffff909216600160d81b026001600160d81b03909216919091179055565b610d006115be565b600091825260026020526040909120805468ffffffffffffffffff19166001600160481b03909216919091179055565b610d386115be565b600095865260036020526040909520428155600101805460ff968716600160f81b026001600160f81b0397909316600160f01b0260ff60f01b196001600160601b03909516600160901b02949094166cffffffffffffffffffffffffff60901b196001600160801b0390961662010000026001600160901b031990921661ffff909716969096171793909316939093171792909216179055565b610dda6115be565b600091825260036020526040909120600101805460ff909216600160f01b0260ff60f01b19909216919091179055565b610e12611678565b478015610ea657604051600090339083908381818185875af1925050503d8060008114610e5b576040519150601f19603f3d011682016040523d82523d6000602084013e610e60565b606091505b5050905080610ea45760405162461bcd60e51b815260206004820152601060248201526f2a3930b739b332b9103330b4b632b21760811b6044820152606401610925565b505b60405181815233907fd32ec2b96f6389848e3f68f670160bf5a50b5024b6f62a61108f20025179a2919060200160405180910390a250565b600080600080610eec61174d565b505050600083815260036020818152604080842080546001909101548251808401909352600160f01b810460ff908116845298909552928252600160f81b8404909616908601529461ffff8216946201000083046001600160801b03169450600160901b9092046001600160601b03169250565b610f68611678565b600054604051630110ceef60e21b81526020600482015260056024820152642a37b5b2b760d91b60448201526001600160a01b03909116906304433bbc90606401602060405180830381865afa158015610fc6573d6000803e3d6000fd5b505050506040513d601f19601f82011682018060405250810190610fea9190611c8d565b600180546001600160a01b0319166001600160a01b0392909216919091179055565b6110146115be565b600092835260036020908152604080852061ffff909416855260029093019052912055565b6110416115be565b60009182526002602052604090912080546001600160481b03909216600160901b0268ffffffffffffffffff60901b19909216919091179055565b611084611678565b6001546001600160a01b03908116908216036110fa5760405162461bcd60e51b815260206004820152602f60248201527f43616e6e6f742075736520746869732066756e6374696f6e207769746820746860448201526e194815149050c818dbdb9d1c9858dd608a1b6064820152608401610925565b6040516370a0823160e01b815230600482015281906000906001600160a01b038316906370a0823190602401602060405180830381865afa158015611143573d6000803e3d6000fd5b505050506040513d601f19601f820116820180604052508101906111679190611c52565b9050801561123f5760405163a9059cbb60e01b8152336004820152602481018290526000906001600160a01b0384169063a9059cbb906044016020604051808303816000875af11580156111bf573d6000803e3d6000fd5b505050506040513d601f19601f820116820180604052508101906111e39190611c6b565b90508061123d5760405162461bcd60e51b815260206004820152602260248201527f546f6b656e207472616e73616374696f6e20657865637574696f6e206661696c604482015261195960f21b6064820152608401610925565b505b604080516001600160a01b03851681526020810183905233917f5fe8cbe5f97c59a4b590a924c3fc62aac6b6a653ec22e39f5fc6d3732f18c254910160405180910390a2505050565b6112906115be565b60009182526003602052604090912060010180546001600160801b03909216620100000271ffffffffffffffffffffffffffffffff000019909216919091179055565b6112db6115be565b600091825260036020526040909120600101805460ff909216600160f81b026001600160f81b03909216919091179055565b6113156115be565b600082815260036020818152604080842061ffff8616855290920190528120805463ffffffff169161134683611cc0565b91906101000a81548163ffffffff021916908363ffffffff160217905550505050565b6113716115be565b600082815260036020818152604080842061ffff8616855290920190528120805463ffffffff169161134683611ce0565b6113aa6115be565b600092835260036020818152604080862061ffff9590951686529390910190529120805463ffffffff191663ffffffff909216919091179055565b6113ed6115be565b604080516080810182526001600160481b039586168152938516602080860191825293861685830190815264ffffffffff938416606087019081526000988952600290955291909620935184549651915193519086166001600160901b031990971696909617600160481b918616919091021771ffffffffffffffffffffffffffffffffffff16600160901b92909416919091026001600160d81b031692909217600160d81b9390921692909202179055565b6114a86115be565b60015460405163a9059cbb60e01b81526001600160a01b0384811660048301526001600160601b03841660248301529091169063a9059cbb906044016020604051808303816000875af1158015611503573d6000803e3d6000fd5b505050506040513d601f19601f820116820180604052508101906115279190611c6b565b505050565b6115346115be565b60009182526002602052604090912080546001600160481b03909216600160481b0271ffffffffffffffffff00000000000000000019909216919091179055565b61157d6115be565b60009182526003602052604090912060010180546001600160601b03909216600160901b026bffffffffffffffffffffffff60901b19909216919091179055565b600054604051631627905560e01b81523360048201526001600160a01b0390911690631627905590602401602060405180830381865afa158015611606573d6000803e3d6000fd5b505050506040513d601f19601f8201168201806040525081019061162a9190611c6b565b6116765760405162461bcd60e51b815260206004820181905260248201527f466e2063616e206f6e6c792062652063616c6c656420627920746865206875626044820152606401610925565b565b60008054906101000a90046001600160a01b03166001600160a01b0316638da5cb5b6040518163ffffffff1660e01b8152600401602060405180830381865afa1580156116c9573d6000803e3d6000fd5b505050506040513d601f19601f820116820180604052508101906116ed9190611c8d565b6001600160a01b0316336001600160a01b0316146116765760405162461bcd60e51b815260206004820181905260248201527f466e2063616e206f6e6c79206265207573656420627920687562206f776e65726044820152606401610925565b60405180604001604052806002906020820280368337509192915050565b6000806040838503121561177e57600080fd5b50508035926020909101359150565b60006020828403121561179f57600080fd5b5035919050565b600060208083528351808285015260005b818110156117d3578581018301518582016040015282016117b7565b506000604082860101526040601f19601f8301168501019250505092915050565b6001600160a01b038116811461180957600080fd5b50565b60006020828403121561181e57600080fd5b8135611829816117f4565b9392505050565b803561ffff8116811461184257600080fd5b919050565b6000806040838503121561185a57600080fd5b8235915061186a60208401611830565b90509250929050565b803564ffffffffff8116811461184257600080fd5b6000806040838503121561189b57600080fd5b8235915061186a60208401611873565b80356001600160481b038116811461184257600080fd5b600080604083850312156118d557600080fd5b8235915061186a602084016118ab565b80356001600160801b038116811461184257600080fd5b80356001600160601b038116811461184257600080fd5b803560ff8116811461184257600080fd5b60008060008060008060c0878903121561193d57600080fd5b8635955061194d60208801611830565b945061195b604088016118e5565b9350611969606088016118fc565b925061197760808801611913565b915061198560a08801611913565b90509295509295509295565b600080604083850312156119a457600080fd5b8235915061186a60208401611913565b600060c082019050868252602061ffff8716818401526001600160801b03861660408401526001600160601b0385166060840152608083018460005b6002811015611a1057815160ff16835291830191908301906001016119f0565b505050509695505050505050565b600080600060608486031215611a3357600080fd5b83359250611a4360208501611830565b9150604084013590509250925092565b60008060408385031215611a6657600080fd5b8235915061186a602084016118e5565b600080600060608486031215611a8b57600080fd5b83359250611a9b60208501611830565b9150604084013563ffffffff81168114611ab457600080fd5b809150509250925092565b600080600080600060a08688031215611ad757600080fd5b85359450611ae7602087016118ab565b9350611af5604087016118ab565b9250611b03606087016118ab565b9150611b1160808701611873565b90509295509295909350565b60008060408385031215611b3057600080fd5b8235611b3b816117f4565b915061186a602084016118fc565b60008060408385031215611b5c57600080fd5b8235915061186a602084016118fc565b634e487b7160e01b600052604160045260246000fd5b8051611842816117f4565b60006020808385031215611ba057600080fd5b825167ffffffffffffffff80821115611bb857600080fd5b818501915085601f830112611bcc57600080fd5b815181811115611bde57611bde611b6c565b8060051b604051601f19603f83011681018181108582111715611c0357611c03611b6c565b604052918252848201925083810185019188831115611c2157600080fd5b938501935b82851015611c4657611c3785611b82565b84529385019392850192611c26565b98975050505050505050565b600060208284031215611c6457600080fd5b5051919050565b600060208284031215611c7d57600080fd5b8151801515811461182957600080fd5b600060208284031215611c9f57600080fd5b8151611829816117f4565b634e487b7160e01b600052601160045260246000fd5b600063ffffffff821680611cd657611cd6611caa565b6000190192915050565b600063ffffffff808316818103611cf957611cf9611caa565b600101939250505056fea26469706673582212201651fa17a89c7c36b8b52d9fefb619e833697a0cb182b28098d438313b4c5edc64736f6c63430008100033",
  "immutableReferences": {},
  "source": "// SPDX-License-Identifier: MIT\n\npragma solidity ^0.8.4;\n\nimport { Guardian } from \"../Guardian.sol\";\nimport { Named } from \"../interface/Named.sol\";\nimport { Versioned } from \"../interface/Versioned.sol\";\nimport { ServiceAgreementStructsV1 } from \"../structs/ServiceAgreementStructsV1.sol\";\n\ncontract ServiceAgreementStorageV1 is Named, Versioned, Guardian {\n\n    string constant private _NAME = \"ServiceAgreementStorageV1\";\n    string constant private _VERSION = \"1.0.0\";\n\n    // CommitId [keccak256(agreementId + epoch + identityId)] => CommitSubmission\n    mapping(bytes32 => ServiceAgreementStructsV1.CommitSubmission) commitSubmissions;\n\n    // AgreementId [hash(asset type contract + tokenId + key)] => ServiceAgreement\n    mapping(bytes32 => ServiceAgreementStructsV1.ServiceAgreement) serviceAgreements;\n\n    constructor (address hubAddress) Guardian(hubAddress) {}\n\n    modifier onlyContracts() {\n        _checkHub();\n        _;\n    }\n\n    function name() external pure virtual override returns (string memory) {\n        return _NAME;\n    }\n\n    function version() external pure virtual override returns (string memory) {\n        return _VERSION;\n    }\n\n    function createServiceAgreementObject(\n        bytes32 agreementId,\n        uint16 epochsNumber,\n        uint128 epochLength,\n        uint96 tokenAmount,\n        uint8 scoreFunctionId,\n        uint8 proofWindowOffsetPerc\n    )\n        external\n        onlyContracts\n    {\n        ServiceAgreementStructsV1.ServiceAgreement storage agreement = serviceAgreements[agreementId];\n        agreement.startTime = block.timestamp;\n        agreement.epochsNumber = epochsNumber;\n        agreement.epochLength = epochLength;\n        agreement.tokenAmount = tokenAmount;\n        agreement.scoreFunctionId = scoreFunctionId;\n        agreement.proofWindowOffsetPerc = proofWindowOffsetPerc;\n    }\n\n    function getAgreementData(bytes32 agreementId)\n        external\n        view\n        returns (uint256, uint16, uint128, uint96, uint8[2] memory)\n    {\n        return (\n            serviceAgreements[agreementId].startTime,\n            serviceAgreements[agreementId].epochsNumber,\n            serviceAgreements[agreementId].epochLength,\n            serviceAgreements[agreementId].tokenAmount,\n            [\n                serviceAgreements[agreementId].scoreFunctionId,\n                serviceAgreements[agreementId].proofWindowOffsetPerc\n            ]\n        );\n    }\n\n    function getAgreementStartTime(bytes32 agreementId) external view returns (uint256) {\n        return serviceAgreements[agreementId].startTime;\n    }\n\n    function setAgreementStartTime(bytes32 agreementId, uint256 startTime) external onlyContracts {\n        serviceAgreements[agreementId].startTime = startTime;\n    }\n\n    function getAgreementEpochsNumber(bytes32 agreementId) external view returns (uint16) {\n        return serviceAgreements[agreementId].epochsNumber;\n    }\n\n    function setAgreementEpochsNumber(bytes32 agreementId, uint16 epochsNumber) external onlyContracts {\n        serviceAgreements[agreementId].epochsNumber = epochsNumber;\n    }\n\n    function getAgreementEpochLength(bytes32 agreementId) external view returns (uint128) {\n        return serviceAgreements[agreementId].epochLength;\n    }\n\n    function setAgreementEpochLength(bytes32 agreementId, uint128 epochLength) external onlyContracts {\n        serviceAgreements[agreementId].epochLength = epochLength;\n    }\n\n    function getAgreementTokenAmount(bytes32 agreementId) external view returns (uint96) {\n        return serviceAgreements[agreementId].tokenAmount;\n    }\n\n    function setAgreementTokenAmount(bytes32 agreementId, uint96 tokenAmount) external onlyContracts {\n        serviceAgreements[agreementId].tokenAmount = tokenAmount;\n    }\n\n    function getAgreementScoreFunctionId(bytes32 agreementId) external view returns (uint8) {\n        return serviceAgreements[agreementId].scoreFunctionId;\n    }\n\n    function setAgreementScoreFunctionId(bytes32 agreementId, uint8 newScoreFunctionId) external onlyContracts {\n        serviceAgreements[agreementId].scoreFunctionId = newScoreFunctionId;\n    }\n\n    function getAgreementProofWindowOffsetPerc(bytes32 agreementId) external view returns (uint8) {\n        return serviceAgreements[agreementId].proofWindowOffsetPerc;\n    }\n\n    function setAgreementProofWindowOffsetPerc(bytes32 agreementId, uint8 proofWindowOffsetPerc)\n        external\n        onlyContracts\n    {\n        serviceAgreements[agreementId].proofWindowOffsetPerc = proofWindowOffsetPerc;\n    }\n\n    function getAgreementEpochSubmissionHead(bytes32 agreementId, uint16 epoch) external view returns (bytes32) {\n        return serviceAgreements[agreementId].epochSubmissionHeads[epoch];\n    }\n\n    function setAgreementEpochSubmissionHead(bytes32 agreementId, uint16 epoch, bytes32 headCommitId)\n        external\n        onlyContracts\n    {\n        serviceAgreements[agreementId].epochSubmissionHeads[epoch] = headCommitId;\n    }\n\n    function incrementAgreementRewardedNodesNumber(bytes32 agreementId, uint16 epoch) external onlyContracts {\n        serviceAgreements[agreementId].rewardedNodesNumber[epoch]++;\n    }\n\n    function decrementAgreementRewardedNodesNumber(bytes32 agreementId, uint16 epoch) external onlyContracts {\n        serviceAgreements[agreementId].rewardedNodesNumber[epoch]--;\n    }\n\n    function getAgreementRewardedNodesNumber(bytes32 agreementId, uint16 epoch) external view returns (uint32) {\n        return serviceAgreements[agreementId].rewardedNodesNumber[epoch];\n    }\n\n    function setAgreementRewardedNodesNumber(bytes32 agreementId, uint16 epoch, uint32 rewardedNodesNumber)\n        external\n        onlyContracts\n    {\n        serviceAgreements[agreementId].rewardedNodesNumber[epoch] = rewardedNodesNumber;\n    }\n\n    function serviceAgreementExists(bytes32 agreementId) external view returns (bool) {\n        return serviceAgreements[agreementId].startTime != 0;\n    }\n\n    function createCommitSubmissionObject(\n        bytes32 commitId,\n        uint72 identityId,\n        uint72 prevIdentityId,\n        uint72 nextIdentityId,\n        uint40 score\n    )\n        external\n        onlyContracts\n    {\n        commitSubmissions[commitId] = ServiceAgreementStructsV1.CommitSubmission({\n            identityId: identityId,\n            prevIdentityId: prevIdentityId,\n            nextIdentityId: nextIdentityId,\n            score: score\n        });\n    }\n\n    function getCommitSubmission(bytes32 commitId)\n        external\n        view\n        returns (ServiceAgreementStructsV1.CommitSubmission memory)\n    {\n        return commitSubmissions[commitId];\n    }\n\n    function getCommitSubmissionIdentityId(bytes32 commitId) external view returns (uint72) {\n        return commitSubmissions[commitId].identityId;\n    }\n\n    function setCommitSubmissionIdentityId(bytes32 commitId, uint72 identityId) external onlyContracts {\n        commitSubmissions[commitId].identityId = identityId;\n    }\n\n    function getCommitSubmissionPrevIdentityId(bytes32 commitId) external view returns (uint72) {\n        return commitSubmissions[commitId].prevIdentityId;\n    }\n\n    function setCommitSubmissionPrevIdentityId(bytes32 commitId, uint72 prevIdentityId) external onlyContracts {\n        commitSubmissions[commitId].prevIdentityId = prevIdentityId;\n    }\n\n    function getCommitSubmissionNextIdentityId(bytes32 commitId) external view returns (uint72) {\n        return commitSubmissions[commitId].nextIdentityId;\n    }\n\n    function setCommitSubmissionNextIdentityId(bytes32 commitId, uint72 nextIdentityId) external onlyContracts {\n        commitSubmissions[commitId].nextIdentityId = nextIdentityId;\n    }\n\n    function getCommitSubmissionScore(bytes32 commitId) external view returns (uint40) {\n        return commitSubmissions[commitId].score;\n    }\n\n    function setCommitSubmissionScore(bytes32 commitId, uint40 score) external onlyContracts {\n        commitSubmissions[commitId].score = score;\n    }\n\n    function commitSubmissionExists(bytes32 commitId) external view returns (bool) {\n        return commitSubmissions[commitId].identityId != 0;\n    }\n\n    function transferReward(address receiver, uint96 rewardAmount) external onlyContracts {\n        tokenContract.transfer(receiver, rewardAmount);\n    }\n\n    function _checkHub() internal view virtual {\n        require(hub.isContract(msg.sender), \"Fn can only be called by the hub\");\n    }\n\n}\n",
  "sourcePath": "/Users/waving/Desktop/OriginTrail/dkg-evm-module/contracts/storage/ServiceAgreementStorageV1.sol",
  "compiler": {
    "name": "solc",
    "version": "0.8.16+commit.07a7930e.Emscripten.clang"
  },
  "schemaVersion": "3.4.10",
  "updatedAt": "2022-12-09T11:22:31.906Z",
  "devdoc": {
    "kind": "dev",
    "methods": {},
    "version": 1
  },
  "userdoc": {
    "kind": "user",
    "methods": {},
    "version": 1
  }
}