{
  "contractName": "ServiceAgreementStorage",
  "abi": [
    {
      "inputs": [
        {
          "internalType": "address",
          "name": "hubAddress",
          "type": "address"
        }
      ],
      "stateMutability": "nonpayable",
      "type": "constructor"
    },
    {
      "anonymous": false,
      "inputs": [
        {
          "indexed": true,
          "internalType": "address",
          "name": "assetContract",
          "type": "address"
        },
        {
          "indexed": true,
          "internalType": "uint256",
          "name": "tokenId",
          "type": "uint256"
        },
        {
          "indexed": false,
          "internalType": "bytes",
          "name": "keyword",
          "type": "bytes"
        },
        {
          "indexed": false,
          "internalType": "uint8",
          "name": "hashFunctionId",
          "type": "uint8"
        },
        {
          "indexed": true,
          "internalType": "uint96",
          "name": "identityId",
          "type": "uint96"
        },
        {
          "indexed": false,
          "internalType": "bytes",
          "name": "nodeId",
          "type": "bytes"
        },
        {
          "indexed": false,
          "internalType": "uint32",
          "name": "score",
          "type": "uint32"
        }
      ],
      "name": "CommitSubmitted",
      "type": "event"
    },
    {
      "anonymous": false,
      "inputs": [
        {
          "indexed": true,
          "internalType": "address",
          "name": "assetContract",
          "type": "address"
        },
        {
          "indexed": true,
          "internalType": "uint256",
          "name": "tokenId",
          "type": "uint256"
        },
        {
          "indexed": false,
          "internalType": "bytes",
          "name": "keyword",
          "type": "bytes"
        },
        {
          "indexed": false,
          "internalType": "uint8",
          "name": "hashFunctionId",
          "type": "uint8"
        },
        {
          "indexed": true,
          "internalType": "uint96",
          "name": "identityId",
          "type": "uint96"
        },
        {
          "indexed": false,
          "internalType": "bytes",
          "name": "nodeId",
          "type": "bytes"
        }
      ],
      "name": "ProofSubmitted",
      "type": "event"
    },
    {
      "anonymous": false,
      "inputs": [
        {
          "indexed": true,
          "internalType": "address",
          "name": "assetContract",
          "type": "address"
        },
        {
          "indexed": true,
          "internalType": "uint256",
          "name": "tokenId",
          "type": "uint256"
        },
        {
          "indexed": false,
          "internalType": "bytes",
          "name": "keyword",
          "type": "bytes"
        },
        {
          "indexed": false,
          "internalType": "uint8",
          "name": "hashFunctionId",
          "type": "uint8"
        },
        {
          "indexed": false,
          "internalType": "uint256",
          "name": "startTime",
          "type": "uint256"
        },
        {
          "indexed": false,
          "internalType": "uint16",
          "name": "epochsNumber",
          "type": "uint16"
        },
        {
          "indexed": false,
          "internalType": "uint128",
          "name": "epochLength",
          "type": "uint128"
        },
        {
          "indexed": false,
          "internalType": "uint96",
          "name": "tokenAmount",
          "type": "uint96"
        }
      ],
      "name": "ServiceAgreementCreated",
      "type": "event"
    },
    {
      "anonymous": false,
      "inputs": [
        {
          "indexed": true,
          "internalType": "address",
          "name": "assetContract",
          "type": "address"
        },
        {
          "indexed": true,
          "internalType": "uint256",
          "name": "tokenId",
          "type": "uint256"
        },
        {
          "indexed": false,
          "internalType": "bytes",
          "name": "keyword",
          "type": "bytes"
        },
        {
          "indexed": false,
          "internalType": "uint8",
          "name": "hashFunctionId",
          "type": "uint8"
        },
        {
          "indexed": false,
          "internalType": "uint16",
          "name": "epochsNumber",
          "type": "uint16"
        },
        {
          "indexed": false,
          "internalType": "uint96",
          "name": "tokenAmount",
          "type": "uint96"
        }
      ],
      "name": "ServiceAgreementUpdated",
      "type": "event"
    },
    {
      "inputs": [],
      "name": "hub",
      "outputs": [
        {
          "internalType": "contract Hub",
          "name": "",
          "type": "address"
        }
      ],
      "stateMutability": "view",
      "type": "function"
    },
    {
      "inputs": [
        {
          "internalType": "bytes32",
          "name": "agreementId",
          "type": "bytes32"
        }
      ],
      "name": "getAgreementData",
      "outputs": [
        {
          "internalType": "uint256",
          "name": "",
          "type": "uint256"
        },
        {
          "internalType": "uint16",
          "name": "",
          "type": "uint16"
        },
        {
          "internalType": "uint128",
          "name": "",
          "type": "uint128"
        },
        {
          "internalType": "uint96",
          "name": "",
          "type": "uint96"
        },
        {
          "internalType": "uint8",
          "name": "",
          "type": "uint8"
        },
        {
          "internalType": "uint8",
          "name": "",
          "type": "uint8"
        }
      ],
      "stateMutability": "view",
      "type": "function"
    },
    {
      "inputs": [
        {
          "internalType": "bytes32",
          "name": "agreementId",
          "type": "bytes32"
        }
      ],
      "name": "getAgreementStartTime",
      "outputs": [
        {
          "internalType": "uint256",
          "name": "",
          "type": "uint256"
        }
      ],
      "stateMutability": "view",
      "type": "function"
    },
    {
      "inputs": [
        {
          "internalType": "bytes32",
          "name": "agreementId",
          "type": "bytes32"
        }
      ],
      "name": "getAgreementEpochsNumber",
      "outputs": [
        {
          "internalType": "uint16",
          "name": "",
          "type": "uint16"
        }
      ],
      "stateMutability": "view",
      "type": "function"
    },
    {
      "inputs": [
        {
          "internalType": "bytes32",
          "name": "agreementId",
          "type": "bytes32"
        }
      ],
      "name": "getAgreementEpochLength",
      "outputs": [
        {
          "internalType": "uint128",
          "name": "",
          "type": "uint128"
        }
      ],
      "stateMutability": "view",
      "type": "function"
    },
    {
      "inputs": [
        {
          "internalType": "bytes32",
          "name": "agreementId",
          "type": "bytes32"
        }
      ],
      "name": "getAgreementTokenAmount",
      "outputs": [
        {
          "internalType": "uint96",
          "name": "",
          "type": "uint96"
        }
      ],
      "stateMutability": "view",
      "type": "function"
    },
    {
      "inputs": [
        {
          "internalType": "bytes32",
          "name": "agreementId",
          "type": "bytes32"
        }
      ],
      "name": "getAgreementScoreFunctionId",
      "outputs": [
        {
          "internalType": "uint8",
          "name": "",
          "type": "uint8"
        }
      ],
      "stateMutability": "view",
      "type": "function"
    },
    {
      "inputs": [
        {
          "internalType": "bytes32",
          "name": "agreementId",
          "type": "bytes32"
        }
      ],
      "name": "getAgreementProofWindowOffsetPerc",
      "outputs": [
        {
          "internalType": "uint8",
          "name": "",
          "type": "uint8"
        }
      ],
      "stateMutability": "view",
      "type": "function"
    },
    {
      "inputs": [
        {
          "internalType": "address",
          "name": "operationalWallet",
          "type": "address"
        },
        {
          "internalType": "address",
          "name": "assetContract",
          "type": "address"
        },
        {
          "internalType": "uint256",
          "name": "tokenId",
          "type": "uint256"
        },
        {
          "internalType": "bytes",
          "name": "keyword",
          "type": "bytes"
        },
        {
          "internalType": "uint8",
          "name": "hashFunctionId",
          "type": "uint8"
        },
        {
          "internalType": "uint16",
          "name": "epochsNumber",
          "type": "uint16"
        },
        {
          "internalType": "uint96",
          "name": "tokenAmount",
          "type": "uint96"
        },
        {
          "internalType": "uint8",
          "name": "scoreFunctionId",
          "type": "uint8"
        }
      ],
      "name": "createServiceAgreement",
      "outputs": [],
      "stateMutability": "nonpayable",
      "type": "function"
    },
    {
      "inputs": [
        {
          "internalType": "address",
          "name": "operationalWallet",
          "type": "address"
        },
        {
          "internalType": "address",
          "name": "assetContract",
          "type": "address"
        },
        {
          "internalType": "uint256",
          "name": "tokenId",
          "type": "uint256"
        },
        {
          "internalType": "bytes",
          "name": "keyword",
          "type": "bytes"
        },
        {
          "internalType": "uint8",
          "name": "hashFunctionId",
          "type": "uint8"
        },
        {
          "internalType": "uint16",
          "name": "epochsNumber",
          "type": "uint16"
        },
        {
          "internalType": "uint96",
          "name": "tokenAmount",
          "type": "uint96"
        }
      ],
      "name": "updateServiceAgreement",
      "outputs": [],
      "stateMutability": "nonpayable",
      "type": "function"
    },
    {
      "inputs": [
        {
          "internalType": "bytes32",
          "name": "agreementId",
          "type": "bytes32"
        },
        {
          "internalType": "uint16",
          "name": "epoch",
          "type": "uint16"
        }
      ],
      "name": "isCommitWindowOpen",
      "outputs": [
        {
          "internalType": "bool",
          "name": "",
          "type": "bool"
        }
      ],
      "stateMutability": "view",
      "type": "function"
    },
    {
      "inputs": [
        {
          "internalType": "bytes32",
          "name": "agreementId",
          "type": "bytes32"
        },
        {
          "internalType": "uint16",
          "name": "epoch",
          "type": "uint16"
        }
      ],
      "name": "getCommitSubmissions",
      "outputs": [
        {
          "components": [
            {
              "internalType": "uint96",
              "name": "identityId",
              "type": "uint96"
            },
            {
              "internalType": "uint96",
              "name": "nextIdentityId",
              "type": "uint96"
            },
            {
              "internalType": "uint32",
              "name": "score",
              "type": "uint32"
            }
          ],
          "internalType": "struct ServiceAgreementStorage.CommitSubmission[]",
          "name": "",
          "type": "tuple[]"
        }
      ],
      "stateMutability": "view",
      "type": "function"
    },
    {
      "inputs": [
        {
          "internalType": "address",
          "name": "assetContract",
          "type": "address"
        },
        {
          "internalType": "uint256",
          "name": "tokenId",
          "type": "uint256"
        },
        {
          "internalType": "bytes",
          "name": "keyword",
          "type": "bytes"
        },
        {
          "internalType": "uint8",
          "name": "hashFunctionId",
          "type": "uint8"
        },
        {
          "internalType": "uint16",
          "name": "epoch",
          "type": "uint16"
        },
        {
          "internalType": "uint96",
          "name": "prevIdentityId",
          "type": "uint96"
        }
      ],
      "name": "submitCommit",
      "outputs": [],
      "stateMutability": "nonpayable",
      "type": "function"
    },
    {
      "inputs": [
        {
          "internalType": "bytes32",
          "name": "agreementId",
          "type": "bytes32"
        },
        {
          "internalType": "uint16",
          "name": "epoch",
          "type": "uint16"
        }
      ],
      "name": "isProofWindowOpen",
      "outputs": [
        {
          "internalType": "bool",
          "name": "",
          "type": "bool"
        }
      ],
      "stateMutability": "view",
      "type": "function"
    },
    {
      "inputs": [
        {
          "internalType": "address",
          "name": "assetContract",
          "type": "address"
        },
        {
          "internalType": "uint256",
          "name": "tokenId",
          "type": "uint256"
        },
        {
          "internalType": "uint16",
          "name": "epoch",
          "type": "uint16"
        }
      ],
      "name": "getChallenge",
      "outputs": [
        {
          "internalType": "bytes32",
          "name": "",
          "type": "bytes32"
        },
        {
          "internalType": "uint256",
          "name": "",
          "type": "uint256"
        }
      ],
      "stateMutability": "view",
      "type": "function"
    },
    {
      "inputs": [
        {
          "internalType": "address",
          "name": "assetContract",
          "type": "address"
        },
        {
          "internalType": "uint256",
          "name": "tokenId",
          "type": "uint256"
        },
        {
          "internalType": "bytes",
          "name": "keyword",
          "type": "bytes"
        },
        {
          "internalType": "uint8",
          "name": "hashFunctionId",
          "type": "uint8"
        },
        {
          "internalType": "uint16",
          "name": "epoch",
          "type": "uint16"
        },
        {
          "internalType": "bytes32[]",
          "name": "proof",
          "type": "bytes32[]"
        },
        {
          "internalType": "bytes32",
          "name": "chunkHash",
          "type": "bytes32"
        }
      ],
      "name": "sendProof",
      "outputs": [],
      "stateMutability": "nonpayable",
      "type": "function"
    },
    {
      "inputs": [
        {
          "internalType": "bytes32",
          "name": "agreementId",
          "type": "bytes32"
        },
        {
          "internalType": "uint8",
          "name": "newScoreFunctionId",
          "type": "uint8"
        }
      ],
      "name": "setScoringFunction",
      "outputs": [],
      "stateMutability": "nonpayable",
      "type": "function"
    }
  ],
  "bytecode": "0x60806040523480156200001157600080fd5b5060405162005d8338038062005d83833981810160405281019062000037919062000122565b600073ffffffffffffffffffffffffffffffffffffffff168173ffffffffffffffffffffffffffffffffffffffff16036200007157600080fd5b806000806101000a81548173ffffffffffffffffffffffffffffffffffffffff021916908373ffffffffffffffffffffffffffffffffffffffff1602179055505062000154565b600080fd5b600073ffffffffffffffffffffffffffffffffffffffff82169050919050565b6000620000ea82620000bd565b9050919050565b620000fc81620000dd565b81146200010857600080fd5b50565b6000815190506200011c81620000f1565b92915050565b6000602082840312156200013b576200013a620000b8565b5b60006200014b848285016200010b565b91505092915050565b615c1f80620001646000396000f3fe608060405234801561001057600080fd5b506004361061010b5760003560e01c806399149f77116100a2578063be82c4e211610071578063be82c4e214610308578063becdd59714610324578063ce60dc6114610354578063d1a640c714610384578063fc348cb6146103b45761010b565b806399149f771461025c5780639c70b3c01461028c578063aa6a00fd146102bc578063b1f38350146102ec5761010b565b80634fb96d50116100de5780634fb96d50146101bf57806361f14ece146101ef5780636ff015ae1461020b57806385e57f57146102405761010b565b806332c2fbf114610110578063365a86fc146101415780634089a17d1461015f578063484a47e71461018f575b600080fd5b61012a60048036038101906101259190613ad4565b6103d0565b604051610138929190613b4f565b60405180910390f35b61014961072c565b6040516101569190613bd7565b60405180910390f35b61017960048036038101906101749190613c1e565b610750565b6040516101869190613c72565b60405180910390f35b6101a960048036038101906101a49190613c1e565b610788565b6040516101b69190613cb8565b60405180910390f35b6101d960048036038101906101d49190613cd3565b6107c4565b6040516101e69190613e32565b60405180910390f35b61020960048036038101906102049190613fff565b610bd1565b005b61022560048036038101906102209190613c1e565b6110eb565b604051610237969594939291906140db565b60405180910390f35b61025a6004803603810190610255919061413c565b6111ef565b005b61027660048036038101906102719190613c1e565b611778565b60405161028391906141e5565b60405180910390f35b6102a660048036038101906102a19190613c1e565b6117a5565b6040516102b39190614200565b60405180910390f35b6102d660048036038101906102d19190613cd3565b6117c5565b6040516102e39190614236565b60405180910390f35b61030660048036038101906103019190614251565b611abe565b005b610322600480360381019061031d9190614291565b611bca565b005b61033e60048036038101906103399190613cd3565b612073565b60405161034b9190614236565b60405180910390f35b61036e60048036038101906103699190613c1e565b612263565b60405161037b91906141e5565b60405180910390f35b61039e60048036038101906103999190613c1e565b612290565b6040516103ab9190614363565b60405180910390f35b6103ce60048036038101906103c99190614446565b6122be565b005b60008060008060009054906101000a900473ffffffffffffffffffffffffffffffffffffffff1673ffffffffffffffffffffffffffffffffffffffff166304433bbc6040518163ffffffff1660e01b815260040161042d9061457d565b602060405180830381865afa15801561044a573d6000803e3d6000fd5b505050506040513d601f19601f8201168201806040525081019061046e91906145b2565b905060008173ffffffffffffffffffffffffffffffffffffffff1663867a4680336040518263ffffffff1660e01b81526004016104ab91906145ee565b602060405180830381865afa1580156104c8573d6000803e3d6000fd5b505050506040513d601f19601f820116820180604052508101906104ec919061461e565b9050600087905060008173ffffffffffffffffffffffffffffffffffffffff16637c29b293896040518263ffffffff1660e01b815260040161052e9190614200565b602060405180830381865afa15801561054b573d6000803e3d6000fd5b505050506040513d601f19601f8201168201806040525081019061056f9190614660565b905060008060009054906101000a900473ffffffffffffffffffffffffffffffffffffffff1673ffffffffffffffffffffffffffffffffffffffff166304433bbc6040518163ffffffff1660e01b81526004016105cb906146d9565b602060405180830381865afa1580156105e8573d6000803e3d6000fd5b505050506040513d601f19601f8201168201806040525081019061060c91906145b2565b905060008173ffffffffffffffffffffffffffffffffffffffff1663ec82e3a7846040518263ffffffff1660e01b815260040161064991906146f9565b602060405180830381865afa158015610666573d6000803e3d6000fd5b505050506040513d601f19601f8201168201806040525081019061068a919061461e565b6bffffffffffffffffffffffff169050828160028b886040516020016106b1929190614780565b6040516020818303038152906040526040516106cd9190614826565b602060405180830381855afa1580156106ea573d6000803e3d6000fd5b5050506040513d601f19601f8201168201806040525081019061070d9190614660565b60001c61071a919061486c565b97509750505050505050935093915050565b60008054906101000a900473ffffffffffffffffffffffffffffffffffffffff1681565b60006002600083815260200190815260200160002060010160129054906101000a90046bffffffffffffffffffffffff169050919050565b60006002600083815260200190815260200160002060010160029054906101000a90046fffffffffffffffffffffffffffffffff169050919050565b606060008060009054906101000a900473ffffffffffffffffffffffffffffffffffffffff1673ffffffffffffffffffffffffffffffffffffffff166304433bbc6040518163ffffffff1660e01b8152600401610820906148e9565b602060405180830381865afa15801561083d573d6000803e3d6000fd5b505050506040513d601f19601f8201168201806040525081019061086191906145b2565b905060008173ffffffffffffffffffffffffffffffffffffffff1663fee2cb056040518163ffffffff1660e01b8152600401602060405180830381865afa1580156108b0573d6000803e3d6000fd5b505050506040513d601f19601f820116820180604052508101906108d49190614947565b65ffffffffffff1667ffffffffffffffff8111156108f5576108f4613e6f565b5b60405190808252806020026020018201604052801561092e57816020015b61091b6139af565b8152602001906001900390816109135790505b50905060006002600087815260200190815260200160002060020160008661ffff1661ffff1681526020019081526020016000205490506000600160008381526020019081526020016000206040518060600160405290816000820160009054906101000a90046bffffffffffffffffffffffff166bffffffffffffffffffffffff166bffffffffffffffffffffffff16815260200160008201600c9054906101000a90046bffffffffffffffffffffffff166bffffffffffffffffffffffff166bffffffffffffffffffffffff1681526020016000820160189054906101000a900463ffffffff1663ffffffff1663ffffffff1681525050838260ff1681518110610a3d57610a3c614974565b5b6020026020010181905250600060016000848152602001908152602001600020600001600c9054906101000a90046bffffffffffffffffffffffff1690505b6000816bffffffffffffffffffffffff1614610bc3576000888883604051602001610aa9939291906149c4565b6040516020818303038152906040528051906020012090506000600160008381526020019081526020016000206040518060600160405290816000820160009054906101000a90046bffffffffffffffffffffffff166bffffffffffffffffffffffff166bffffffffffffffffffffffff16815260200160008201600c9054906101000a90046bffffffffffffffffffffffff166bffffffffffffffffffffffff166bffffffffffffffffffffffff1681526020016000820160189054906101000a900463ffffffff1663ffffffff1663ffffffff168152505090508380610b9090614a30565b94505080868560ff1681518110610baa57610ba9614974565b5b6020026020010181905250806020015192505050610a7c565b839550505050505092915050565b60008054906101000a900473ffffffffffffffffffffffffffffffffffffffff1673ffffffffffffffffffffffffffffffffffffffff16638d5d2d85336040518263ffffffff1660e01b8152600401610c2a91906145ee565b602060405180830381865afa158015610c47573d6000803e3d6000fd5b505050506040513d601f19601f82011682018060405250810190610c6b9190614a85565b610caa576040517f08c379a0000000000000000000000000000000000000000000000000000000008152600401610ca190614b24565b60405180910390fd5b6000610cb887878787612d59565b905060006002600083815260200190815260200160002060010160129054906101000a90046bffffffffffffffffffffffff169050836002600084815260200190815260200160002060010160006101000a81548161ffff021916908361ffff160217905550826002600084815260200190815260200160002060010160126101000a8154816bffffffffffffffffffffffff02191690836bffffffffffffffffffffffff16021790555060008060009054906101000a900473ffffffffffffffffffffffffffffffffffffffff1673ffffffffffffffffffffffffffffffffffffffff166304433bbc6040518163ffffffff1660e01b8152600401610dbd90614b90565b602060405180830381865afa158015610dda573d6000803e3d6000fd5b505050506040513d601f19601f82011682018060405250810190610dfe91906145b2565b90508382610e0c9190614bb0565b6bffffffffffffffffffffffff168173ffffffffffffffffffffffffffffffffffffffff1663dd62ed3e8c306040518363ffffffff1660e01b8152600401610e55929190614be4565b602060405180830381865afa158015610e72573d6000803e3d6000fd5b505050506040513d601f19601f82011682018060405250810190610e969190614c22565b1015610ed7576040517f08c379a0000000000000000000000000000000000000000000000000000000008152600401610ece90614cc1565b60405180910390fd5b8382610ee39190614bb0565b6bffffffffffffffffffffffff168173ffffffffffffffffffffffffffffffffffffffff166370a082318c6040518263ffffffff1660e01b8152600401610f2a91906145ee565b602060405180830381865afa158015610f47573d6000803e3d6000fd5b505050506040513d601f19601f82011682018060405250810190610f6b9190614c22565b1015610fac576040517f08c379a0000000000000000000000000000000000000000000000000000000008152600401610fa390614d53565b60405180910390fd5b8073ffffffffffffffffffffffffffffffffffffffff166323b872dd8b308786610fd69190614bb0565b6040518463ffffffff1660e01b8152600401610ff493929190614da4565b6020604051808303816000875af1158015611013573d6000803e3d6000fd5b505050506040513d601f19601f820116820180604052508101906110379190614a85565b50878973ffffffffffffffffffffffffffffffffffffffff167f1abad9d03c6b61f6b6714655a41bdc5b88318ce5136915a9c8751a74ad5a30b989896002600089815260200190815260200160002060010160009054906101000a900461ffff16600260008a815260200190815260200160002060010160129054906101000a90046bffffffffffffffffffffffff166040516110d79493929190614e25565b60405180910390a350505050505050505050565b60008060008060008060026000888152602001908152602001600020600001546002600089815260200190815260200160002060010160009054906101000a900461ffff16600260008a815260200190815260200160002060010160029054906101000a90046fffffffffffffffffffffffffffffffff16600260008b815260200190815260200160002060010160129054906101000a90046bffffffffffffffffffffffff16600260008c8152602001908152602001600020600101601e9054906101000a900460ff16600260008d8152602001908152602001600020600101601f9054906101000a900460ff1695509550955095509550955091939550919395565b60006111fd87878787612d59565b90506112098184612073565b611248576040517f08c379a000000000000000000000000000000000000000000000000000000000815260040161123f90614ebd565b60405180910390fd5b60008060009054906101000a900473ffffffffffffffffffffffffffffffffffffffff1673ffffffffffffffffffffffffffffffffffffffff166304433bbc6040518163ffffffff1660e01b81526004016112a29061457d565b602060405180830381865afa1580156112bf573d6000803e3d6000fd5b505050506040513d601f19601f820116820180604052508101906112e391906145b2565b905060008173ffffffffffffffffffffffffffffffffffffffff1663867a4680336040518263ffffffff1660e01b815260040161132091906145ee565b602060405180830381865afa15801561133d573d6000803e3d6000fd5b505050506040513d601f19601f82011682018060405250810190611361919061461e565b905060008060009054906101000a900473ffffffffffffffffffffffffffffffffffffffff1673ffffffffffffffffffffffffffffffffffffffff166304433bbc6040518163ffffffff1660e01b81526004016113bd90614f29565b602060405180830381865afa1580156113da573d6000803e3d6000fd5b505050506040513d601f19601f820116820180604052508101906113fe91906145b2565b905060008060009054906101000a900473ffffffffffffffffffffffffffffffffffffffff1673ffffffffffffffffffffffffffffffffffffffff166304433bbc6040518163ffffffff1660e01b815260040161145a90614f95565b602060405180830381865afa158015611477573d6000803e3d6000fd5b505050506040513d601f19601f8201168201806040525081019061149b91906145b2565b905060008173ffffffffffffffffffffffffffffffffffffffff16630b47a00860026000898152602001908152602001600020600101601e9054906101000a900460ff168b8673ffffffffffffffffffffffffffffffffffffffff16636c5c281c896040518263ffffffff1660e01b81526004016115199190613c72565b600060405180830381865afa158015611536573d6000803e3d6000fd5b505050506040513d6000823e3d601f19601f8201168201806040525081019061155f9190615025565b8e8873ffffffffffffffffffffffffffffffffffffffff16631860bd8e8b6040518263ffffffff1660e01b81526004016115999190613c72565b602060405180830381865afa1580156115b6573d6000803e3d6000fd5b505050506040513d601f19601f820116820180604052508101906115da919061461e565b6040518663ffffffff1660e01b81526004016115fa95949392919061506e565b6020604051808303816000875af1158015611619573d6000803e3d6000fd5b505050506040513d601f19601f8201168201806040525081019061163d91906150fb565b90506116888689896040518060600160405280896bffffffffffffffffffffffff16815260200160006bffffffffffffffffffffffff1681526020018663ffffffff16815250612ea2565b836bffffffffffffffffffffffff168b8d73ffffffffffffffffffffffffffffffffffffffff167f216ae8cf3a7e83235b21d65afff2deeeed219e9cc836bcc0fa976f143610e9658d8d8873ffffffffffffffffffffffffffffffffffffffff16636c5c281c8b6040518263ffffffff1660e01b815260040161170b9190613c72565b600060405180830381865afa158015611728573d6000803e3d6000fd5b505050506040513d6000823e3d601f19601f820116820180604052508101906117519190615025565b876040516117629493929190615137565b60405180910390a4505050505050505050505050565b600060026000838152602001908152602001600020600101601f9054906101000a900460ff169050919050565b600060026000838152602001908152602001600020600001549050919050565b600080429050600060026000868152602001908152602001600020905060008060009054906101000a900473ffffffffffffffffffffffffffffffffffffffff1673ffffffffffffffffffffffffffffffffffffffff166304433bbc6040518163ffffffff1660e01b815260040161183c906148e9565b602060405180830381865afa158015611859573d6000803e3d6000fd5b505050506040513d601f19601f8201168201806040525081019061187d91906145b2565b90506000606483600101601f9054906101000a900460ff1660ff168460010160009054906101000a900461ffff1661ffff168560010160029054906101000a90046fffffffffffffffffffffffffffffffff166118da919061518a565b6118e4919061518a565b6118ee91906151d4565b6fffffffffffffffffffffffffffffffff169050600060648373ffffffffffffffffffffffffffffffffffffffff16639d3ceb0c6040518163ffffffff1660e01b8152600401602060405180830381865afa158015611951573d6000803e3d6000fd5b505050506040513d601f19601f82011682018060405250810190611975919061521a565b60ff168560010160009054906101000a900461ffff1661ffff168660010160029054906101000a90046fffffffffffffffffffffffffffffffff166119ba919061518a565b6119c4919061518a565b6119ce91906151d4565b6fffffffffffffffffffffffffffffffff169050818761ffff168560010160029054906101000a90046fffffffffffffffffffffffffffffffff16611a13919061518a565b6fffffffffffffffffffffffffffffffff168560000154611a349190615247565b611a3e9190615247565b85118015611ab1575080828861ffff168660010160029054906101000a90046fffffffffffffffffffffffffffffffff16611a79919061518a565b6fffffffffffffffffffffffffffffffff168660000154611a9a9190615247565b611aa49190615247565b611aae9190615247565b85105b9550505050505092915050565b60008054906101000a900473ffffffffffffffffffffffffffffffffffffffff1673ffffffffffffffffffffffffffffffffffffffff16638d5d2d85336040518263ffffffff1660e01b8152600401611b1791906145ee565b602060405180830381865afa158015611b34573d6000803e3d6000fd5b505050506040513d601f19601f82011682018060405250810190611b589190614a85565b611b97576040517f08c379a0000000000000000000000000000000000000000000000000000000008152600401611b8e90614b24565b60405180910390fd5b8060026000848152602001908152602001600020600101601e6101000a81548160ff021916908360ff1602179055505050565b60008054906101000a900473ffffffffffffffffffffffffffffffffffffffff1673ffffffffffffffffffffffffffffffffffffffff16638d5d2d85336040518263ffffffff1660e01b8152600401611c2391906145ee565b602060405180830381865afa158015611c40573d6000803e3d6000fd5b505050506040513d601f19601f82011682018060405250810190611c649190614a85565b611ca3576040517f08c379a0000000000000000000000000000000000000000000000000000000008152600401611c9a90614b24565b60405180910390fd5b6000611cb188888888612d59565b9050611cc089828686866134cf565b60008060009054906101000a900473ffffffffffffffffffffffffffffffffffffffff1673ffffffffffffffffffffffffffffffffffffffff166304433bbc6040518163ffffffff1660e01b8152600401611d1a90614b90565b602060405180830381865afa158015611d37573d6000803e3d6000fd5b505050506040513d601f19601f82011682018060405250810190611d5b91906145b2565b9050836bffffffffffffffffffffffff168173ffffffffffffffffffffffffffffffffffffffff1663dd62ed3e8c306040518363ffffffff1660e01b8152600401611da7929190614be4565b602060405180830381865afa158015611dc4573d6000803e3d6000fd5b505050506040513d601f19601f82011682018060405250810190611de89190614c22565b1015611e29576040517f08c379a0000000000000000000000000000000000000000000000000000000008152600401611e2090614cc1565b60405180910390fd5b836bffffffffffffffffffffffff168173ffffffffffffffffffffffffffffffffffffffff166370a082318c6040518263ffffffff1660e01b8152600401611e7191906145ee565b602060405180830381865afa158015611e8e573d6000803e3d6000fd5b505050506040513d601f19601f82011682018060405250810190611eb29190614c22565b1015611ef3576040517f08c379a0000000000000000000000000000000000000000000000000000000008152600401611eea90614d53565b60405180910390fd5b8073ffffffffffffffffffffffffffffffffffffffff166323b872dd8b30876040518463ffffffff1660e01b8152600401611f3093929190614da4565b6020604051808303816000875af1158015611f4f573d6000803e3d6000fd5b505050506040513d601f19601f82011682018060405250810190611f739190614a85565b50878973ffffffffffffffffffffffffffffffffffffffff167f48298191f59170e97201484d4a3de75065cea587a165788d1f19459fabd39a5e898960026000888152602001908152602001600020600001546002600089815260200190815260200160002060010160009054906101000a900461ffff16600260008a815260200190815260200160002060010160029054906101000a90046fffffffffffffffffffffffffffffffff16600260008b815260200190815260200160002060010160129054906101000a90046bffffffffffffffffffffffff1660405161205f9695949392919061529d565b60405180910390a350505050505050505050565b600080429050600060026000868152602001908152602001600020905060008060009054906101000a900473ffffffffffffffffffffffffffffffffffffffff1673ffffffffffffffffffffffffffffffffffffffff166304433bbc6040518163ffffffff1660e01b81526004016120ea906148e9565b602060405180830381865afa158015612107573d6000803e3d6000fd5b505050506040513d601f19601f8201168201806040525081019061212b91906145b2565b90508461ffff168260010160029054906101000a90046fffffffffffffffffffffffffffffffff1661215d919061518a565b6fffffffffffffffffffffffffffffffff16826000015461217e9190615247565b8311801561225857508073ffffffffffffffffffffffffffffffffffffffff1663e8d487ff6040518163ffffffff1660e01b8152600401602060405180830381865afa1580156121d2573d6000803e3d6000fd5b505050506040513d601f19601f820116820180604052508101906121f6919061531a565b61ffff168561ffff168360010160029054906101000a90046fffffffffffffffffffffffffffffffff1661222a919061518a565b6fffffffffffffffffffffffffffffffff16836000015461224b9190615247565b6122559190615247565b83105b935050505092915050565b600060026000838152602001908152602001600020600101601e9054906101000a900460ff169050919050565b60006002600083815260200190815260200160002060010160009054906101000a900461ffff169050919050565b60006122cc88888888612d59565b90506122d881856117c5565b15612318576040517f08c379a000000000000000000000000000000000000000000000000000000000815260040161230f90615393565b60405180910390fd5b60008060009054906101000a900473ffffffffffffffffffffffffffffffffffffffff1673ffffffffffffffffffffffffffffffffffffffff166304433bbc6040518163ffffffff1660e01b81526004016123729061457d565b602060405180830381865afa15801561238f573d6000803e3d6000fd5b505050506040513d601f19601f820116820180604052508101906123b391906145b2565b73ffffffffffffffffffffffffffffffffffffffff1663867a4680336040518263ffffffff1660e01b81526004016123eb91906145ee565b602060405180830381865afa158015612408573d6000803e3d6000fd5b505050506040513d601f19601f8201168201806040525081019061242c919061461e565b9050600060016000848885604051602001612449939291906149c4565b60405160208183030381529060405280519060200120815260200190815260200160002060000160189054906101000a900463ffffffff1663ffffffff16036124c7576040517f08c379a00000000000000000000000000000000000000000000000000000000081526004016124be90615425565b60405180910390fd5b60006002600084815260200190815260200160002060020160008761ffff1661ffff16815260200190815260200160002054905060008060009054906101000a900473ffffffffffffffffffffffffffffffffffffffff1673ffffffffffffffffffffffffffffffffffffffff166304433bbc6040518163ffffffff1660e01b8152600401612555906148e9565b602060405180830381865afa158015612572573d6000803e3d6000fd5b505050506040513d601f19601f8201168201806040525081019061259691906145b2565b905060005b6001600084815260200190815260200160002060000160009054906101000a90046bffffffffffffffffffffffff166bffffffffffffffffffffffff16846bffffffffffffffffffffffff1614158061266e57508173ffffffffffffffffffffffffffffffffffffffff16638d73d86a6040518163ffffffff1660e01b8152600401602060405180830381865afa15801561263a573d6000803e3d6000fd5b505050506040513d601f19601f8201168201806040525081019061265e91906150fb565b63ffffffff168163ffffffff1614155b156126e157848860016000868152602001908152602001600020600001600c9054906101000a90046bffffffffffffffffffffffff166040516020016126b6939291906149c4565b60405160208183030381529060405280519060200120925080806126d990615445565b91505061259b565b8173ffffffffffffffffffffffffffffffffffffffff16638d73d86a6040518163ffffffff1660e01b8152600401602060405180830381865afa15801561272c573d6000803e3d6000fd5b505050506040513d601f19601f8201168201806040525081019061275091906150fb565b63ffffffff168163ffffffff161061279d576040517f08c379a0000000000000000000000000000000000000000000000000000000008152600401612794906154e3565b60405180910390fd5b6000806127ab8e8e8c6103d0565b80925081935050506127e689838a846040516020016127cb929190615524565b6040516020818303038152906040528051906020012061383f565b612825576040517f08c379a000000000000000000000000000000000000000000000000000000000815260040161281c9061559c565b60405180910390fd5b60008060009054906101000a900473ffffffffffffffffffffffffffffffffffffffff1673ffffffffffffffffffffffffffffffffffffffff166304433bbc6040518163ffffffff1660e01b815260040161287f90614f29565b602060405180830381865afa15801561289c573d6000803e3d6000fd5b505050506040513d601f19601f820116820180604052508101906128c091906145b2565b90506000600260008a815260200190815260200160002060030160008d61ffff1661ffff16815260200190815260200160002060009054906101000a900463ffffffff168673ffffffffffffffffffffffffffffffffffffffff16638d73d86a6040518163ffffffff1660e01b8152600401602060405180830381865afa15801561294f573d6000803e3d6000fd5b505050506040513d601f19601f8201168201806040525081019061297391906150fb565b61297d91906155bc565b63ffffffff1660018d600260008d815260200190815260200160002060010160009054906101000a900461ffff166129b591906155f0565b6129bf9190615624565b61ffff16600260008c815260200190815260200160002060010160129054906101000a90046bffffffffffffffffffffffff166129fc919061565c565b612a06919061565c565b905060008054906101000a900473ffffffffffffffffffffffffffffffffffffffff1673ffffffffffffffffffffffffffffffffffffffff166304433bbc6040518163ffffffff1660e01b8152600401612a5f90614b90565b602060405180830381865afa158015612a7c573d6000803e3d6000fd5b505050506040513d601f19601f82011682018060405250810190612aa091906145b2565b73ffffffffffffffffffffffffffffffffffffffff1663a9059cbb83836040518363ffffffff1660e01b8152600401612ada92919061568d565b6020604051808303816000875af1158015612af9573d6000803e3d6000fd5b505050506040513d601f19601f82011682018060405250810190612b1d9190614a85565b508173ffffffffffffffffffffffffffffffffffffffff1663a4f9062389838573ffffffffffffffffffffffffffffffffffffffff166374cb0edb8d6040518263ffffffff1660e01b8152600401612b759190613c72565b602060405180830381865afa158015612b92573d6000803e3d6000fd5b505050506040513d601f19601f82011682018060405250810190612bb6919061461e565b612bc091906156b6565b6040518363ffffffff1660e01b8152600401612bdd9291906156f8565b600060405180830381600087803b158015612bf757600080fd5b505af1158015612c0b573d6000803e3d6000fd5b5050505080600260008b815260200190815260200160002060010160128282829054906101000a90046bffffffffffffffffffffffff16612c4c9190614bb0565b92506101000a8154816bffffffffffffffffffffffff02191690836bffffffffffffffffffffffff1602179055506001600260008b815260200190815260200160002060030160008e61ffff1661ffff16815260200190815260200160002060008282829054906101000a900463ffffffff16612cc99190615721565b92506101000a81548163ffffffff021916908363ffffffff1602179055506000600160008b8f8c604051602001612d02939291906149c4565b60405160208183030381529060405280519060200120815260200190815260200160002060000160186101000a81548163ffffffff021916908363ffffffff16021790555050505050505050505050505050505050565b60008060008054906101000a900473ffffffffffffffffffffffffffffffffffffffff1673ffffffffffffffffffffffffffffffffffffffff166304433bbc6040518163ffffffff1660e01b8152600401612db3906157a7565b602060405180830381865afa158015612dd0573d6000803e3d6000fd5b505050506040513d601f19601f82011682018060405250810190612df491906145b2565b90508073ffffffffffffffffffffffffffffffffffffffff166345ed59e584888888604051602001612e289392919061580f565b6040516020818303038152906040526040518363ffffffff1660e01b8152600401612e54929190615848565b6020604051808303816000875af1158015612e73573d6000803e3d6000fd5b505050506040513d601f19601f82011682018060405250810190612e979190614660565b915050949350505050565b600084848360000151604051602001612ebd939291906149c4565b6040516020818303038152906040528051906020012090506000836bffffffffffffffffffffffff16036131425760006002600087815260200190815260200160002060020160008661ffff1661ffff168152602001908152602001600020549050600080821461304b576000600160008481526020019081526020016000206040518060600160405290816000820160009054906101000a90046bffffffffffffffffffffffff166bffffffffffffffffffffffff166bffffffffffffffffffffffff16815260200160008201600c9054906101000a90046bffffffffffffffffffffffff166bffffffffffffffffffffffff166bffffffffffffffffffffffff1681526020016000820160189054906101000a900463ffffffff1663ffffffff1663ffffffff1681525050905080600001519150806040015163ffffffff16856040015163ffffffff1611613049576040517f08c379a000000000000000000000000000000000000000000000000000000000815260040161304090615910565b60405180910390fd5b505b826002600089815260200190815260200160002060020160008861ffff1661ffff16815260200190815260200160002081905550836001600085815260200190815260200160002060008201518160000160006101000a8154816bffffffffffffffffffffffff02191690836bffffffffffffffffffffffff160217905550602082015181600001600c6101000a8154816bffffffffffffffffffffffff02191690836bffffffffffffffffffffffff16021790555060408201518160000160186101000a81548163ffffffff021916908363ffffffff16021790555090505061313b8787866000015184613856565b50506134c8565b6000858585604051602001613159939291906149c4565b6040516020818303038152906040528051906020012090506000600160008381526020019081526020016000206040518060600160405290816000820160009054906101000a90046bffffffffffffffffffffffff166bffffffffffffffffffffffff166bffffffffffffffffffffffff16815260200160008201600c9054906101000a90046bffffffffffffffffffffffff166bffffffffffffffffffffffff166bffffffffffffffffffffffff1681526020016000820160189054906101000a900463ffffffff1663ffffffff1663ffffffff16815250509050806040015163ffffffff16846040015163ffffffff16111561328c576040517f08c379a0000000000000000000000000000000000000000000000000000000008152600401613283906159c8565b60405180910390fd5b6000816020015190506000816bffffffffffffffffffffffff16146133f85760008888836040516020016132c2939291906149c4565b6040516020818303038152906040528051906020012090506000600160008381526020019081526020016000206040518060600160405290816000820160009054906101000a90046bffffffffffffffffffffffff166bffffffffffffffffffffffff166bffffffffffffffffffffffff16815260200160008201600c9054906101000a90046bffffffffffffffffffffffff166bffffffffffffffffffffffff166bffffffffffffffffffffffff1681526020016000820160189054906101000a900463ffffffff1663ffffffff1663ffffffff16815250509050806040015163ffffffff16876040015163ffffffff1610156133f5576040517f08c379a00000000000000000000000000000000000000000000000000000000081526004016133ec90615a80565b60405180910390fd5b50505b846001600086815260200190815260200160002060008201518160000160006101000a8154816bffffffffffffffffffffffff02191690836bffffffffffffffffffffffff160217905550602082015181600001600c6101000a8154816bffffffffffffffffffffffff02191690836bffffffffffffffffffffffff16021790555060408201518160000160186101000a81548163ffffffff021916908363ffffffff1602179055509050506134b48888888860000151613856565b6134c48888876000015184613856565b5050505b5050505050565b60008060009054906101000a900473ffffffffffffffffffffffffffffffffffffffff1673ffffffffffffffffffffffffffffffffffffffff166304433bbc6040518163ffffffff1660e01b8152600401613529906148e9565b602060405180830381865afa158015613546573d6000803e3d6000fd5b505050506040513d601f19601f8201168201806040525081019061356a91906145b2565b90506000600260008781526020019081526020016000209050428160000181905550848160010160006101000a81548161ffff021916908361ffff1602179055508173ffffffffffffffffffffffffffffffffffffffff166357d775f86040518163ffffffff1660e01b8152600401602060405180830381865afa1580156135f6573d6000803e3d6000fd5b505050506040513d601f19601f8201168201806040525081019061361a9190615acc565b8160010160026101000a8154816fffffffffffffffffffffffffffffffff02191690836fffffffffffffffffffffffffffffffff1602179055506137518760018473ffffffffffffffffffffffffffffffffffffffff16638e6262426040518163ffffffff1660e01b8152600401602060405180830381865afa1580156136a5573d6000803e3d6000fd5b505050506040513d601f19601f820116820180604052508101906136c9919061521a565b8573ffffffffffffffffffffffffffffffffffffffff1663ff2117436040518163ffffffff1660e01b8152600401602060405180830381865afa158015613714573d6000803e3d6000fd5b505050506040513d601f19601f82011682018060405250810190613738919061521a565b6137429190615af9565b61374c9190615b2d565b6138d1565b8273ffffffffffffffffffffffffffffffffffffffff16638e6262426040518163ffffffff1660e01b8152600401602060405180830381865afa15801561379c573d6000803e3d6000fd5b505050506040513d601f19601f820116820180604052508101906137c0919061521a565b6137ca9190615b2d565b81600101601f6101000a81548160ff021916908360ff160217905550838160010160126101000a8154816bffffffffffffffffffffffff02191690836bffffffffffffffffffffffff1602179055508281600101601e6101000a81548160ff021916908360ff16021790555050505050505050565b60008261384c8584613917565b1490509392505050565b600084848460405160200161386d939291906149c4565b6040516020818303038152906040528051906020012090508160016000838152602001908152602001600020600001600c6101000a8154816bffffffffffffffffffffffff02191690836bffffffffffffffffffffffff1602179055505050505050565b60008160ff164284436040516020016138ec93929190615b64565b6040516020818303038152906040528051906020012060001c61390f919061486c565b905092915050565b60008082905060005b84518110156139625761394d828683815181106139405761393f614974565b5b602002602001015161396d565b9150808061395a90615ba1565b915050613920565b508091505092915050565b6000818310613985576139808284613998565b613990565b61398f8383613998565b5b905092915050565b600082600052816020526040600020905092915050565b604051806060016040528060006bffffffffffffffffffffffff16815260200160006bffffffffffffffffffffffff168152602001600063ffffffff1681525090565b6000604051905090565b600080fd5b600080fd5b600073ffffffffffffffffffffffffffffffffffffffff82169050919050565b6000613a3182613a06565b9050919050565b613a4181613a26565b8114613a4c57600080fd5b50565b600081359050613a5e81613a38565b92915050565b6000819050919050565b613a7781613a64565b8114613a8257600080fd5b50565b600081359050613a9481613a6e565b92915050565b600061ffff82169050919050565b613ab181613a9a565b8114613abc57600080fd5b50565b600081359050613ace81613aa8565b92915050565b600080600060608486031215613aed57613aec6139fc565b5b6000613afb86828701613a4f565b9350506020613b0c86828701613a85565b9250506040613b1d86828701613abf565b9150509250925092565b6000819050919050565b613b3a81613b27565b82525050565b613b4981613a64565b82525050565b6000604082019050613b646000830185613b31565b613b716020830184613b40565b9392505050565b6000819050919050565b6000613b9d613b98613b9384613a06565b613b78565b613a06565b9050919050565b6000613baf82613b82565b9050919050565b6000613bc182613ba4565b9050919050565b613bd181613bb6565b82525050565b6000602082019050613bec6000830184613bc8565b92915050565b613bfb81613b27565b8114613c0657600080fd5b50565b600081359050613c1881613bf2565b92915050565b600060208284031215613c3457613c336139fc565b5b6000613c4284828501613c09565b91505092915050565b60006bffffffffffffffffffffffff82169050919050565b613c6c81613c4b565b82525050565b6000602082019050613c876000830184613c63565b92915050565b60006fffffffffffffffffffffffffffffffff82169050919050565b613cb281613c8d565b82525050565b6000602082019050613ccd6000830184613ca9565b92915050565b60008060408385031215613cea57613ce96139fc565b5b6000613cf885828601613c09565b9250506020613d0985828601613abf565b9150509250929050565b600081519050919050565b600082825260208201905092915050565b6000819050602082019050919050565b613d4881613c4b565b82525050565b600063ffffffff82169050919050565b613d6781613d4e565b82525050565b606082016000820151613d836000850182613d3f565b506020820151613d966020850182613d3f565b506040820151613da96040850182613d5e565b50505050565b6000613dbb8383613d6d565b60608301905092915050565b6000602082019050919050565b6000613ddf82613d13565b613de98185613d1e565b9350613df483613d2f565b8060005b83811015613e25578151613e0c8882613daf565b9750613e1783613dc7565b925050600181019050613df8565b5085935050505092915050565b60006020820190508181036000830152613e4c8184613dd4565b905092915050565b600080fd5b600080fd5b6000601f19601f8301169050919050565b7f4e487b7100000000000000000000000000000000000000000000000000000000600052604160045260246000fd5b613ea782613e5e565b810181811067ffffffffffffffff82111715613ec657613ec5613e6f565b5b80604052505050565b6000613ed96139f2565b9050613ee58282613e9e565b919050565b600067ffffffffffffffff821115613f0557613f04613e6f565b5b613f0e82613e5e565b9050602081019050919050565b82818337600083830152505050565b6000613f3d613f3884613eea565b613ecf565b905082815260208101848484011115613f5957613f58613e59565b5b613f64848285613f1b565b509392505050565b600082601f830112613f8157613f80613e54565b5b8135613f91848260208601613f2a565b91505092915050565b600060ff82169050919050565b613fb081613f9a565b8114613fbb57600080fd5b50565b600081359050613fcd81613fa7565b92915050565b613fdc81613c4b565b8114613fe757600080fd5b50565b600081359050613ff981613fd3565b92915050565b600080600080600080600060e0888a03121561401e5761401d6139fc565b5b600061402c8a828b01613a4f565b975050602061403d8a828b01613a4f565b965050604061404e8a828b01613a85565b955050606088013567ffffffffffffffff81111561406f5761406e613a01565b5b61407b8a828b01613f6c565b945050608061408c8a828b01613fbe565b93505060a061409d8a828b01613abf565b92505060c06140ae8a828b01613fea565b91505092959891949750929550565b6140c681613a9a565b82525050565b6140d581613f9a565b82525050565b600060c0820190506140f06000830189613b40565b6140fd60208301886140bd565b61410a6040830187613ca9565b6141176060830186613c63565b61412460808301856140cc565b61413160a08301846140cc565b979650505050505050565b60008060008060008060c08789031215614159576141586139fc565b5b600061416789828a01613a4f565b965050602061417889828a01613a85565b955050604087013567ffffffffffffffff81111561419957614198613a01565b5b6141a589828a01613f6c565b94505060606141b689828a01613fbe565b93505060806141c789828a01613abf565b92505060a06141d889828a01613fea565b9150509295509295509295565b60006020820190506141fa60008301846140cc565b92915050565b60006020820190506142156000830184613b40565b92915050565b60008115159050919050565b6142308161421b565b82525050565b600060208201905061424b6000830184614227565b92915050565b60008060408385031215614268576142676139fc565b5b600061427685828601613c09565b925050602061428785828601613fbe565b9150509250929050565b600080600080600080600080610100898b0312156142b2576142b16139fc565b5b60006142c08b828c01613a4f565b98505060206142d18b828c01613a4f565b97505060406142e28b828c01613a85565b965050606089013567ffffffffffffffff81111561430357614302613a01565b5b61430f8b828c01613f6c565b95505060806143208b828c01613fbe565b94505060a06143318b828c01613abf565b93505060c06143428b828c01613fea565b92505060e06143538b828c01613fbe565b9150509295985092959890939650565b600060208201905061437860008301846140bd565b92915050565b600067ffffffffffffffff82111561439957614398613e6f565b5b602082029050602081019050919050565b600080fd5b60006143c26143bd8461437e565b613ecf565b905080838252602082019050602084028301858111156143e5576143e46143aa565b5b835b8181101561440e57806143fa8882613c09565b8452602084019350506020810190506143e7565b5050509392505050565b600082601f83011261442d5761442c613e54565b5b813561443d8482602086016143af565b91505092915050565b600080600080600080600060e0888a031215614465576144646139fc565b5b60006144738a828b01613a4f565b97505060206144848a828b01613a85565b965050604088013567ffffffffffffffff8111156144a5576144a4613a01565b5b6144b18a828b01613f6c565b95505060606144c28a828b01613fbe565b94505060806144d38a828b01613abf565b93505060a088013567ffffffffffffffff8111156144f4576144f3613a01565b5b6145008a828b01614418565b92505060c06145118a828b01613c09565b91505092959891949750929550565b600082825260208201905092915050565b7f4964656e7469747953746f726167650000000000000000000000000000000000600082015250565b6000614567600f83614520565b915061457282614531565b602082019050919050565b600060208201905081810360008301526145968161455a565b9050919050565b6000815190506145ac81613a38565b92915050565b6000602082840312156145c8576145c76139fc565b5b60006145d68482850161459d565b91505092915050565b6145e881613a26565b82525050565b600060208201905061460360008301846145df565b92915050565b60008151905061461881613fd3565b92915050565b600060208284031215614634576146336139fc565b5b600061464284828501614609565b91505092915050565b60008151905061465a81613bf2565b92915050565b600060208284031215614676576146756139fc565b5b60006146848482850161464b565b91505092915050565b7f417373657274696f6e5265676973747279000000000000000000000000000000600082015250565b60006146c3601183614520565b91506146ce8261468d565b602082019050919050565b600060208201905081810360008301526146f2816146b6565b9050919050565b600060208201905061470e6000830184613b31565b92915050565b60008160f01b9050919050565b600061472c82614714565b9050919050565b61474461473f82613a9a565b614721565b82525050565b60008160a01b9050919050565b60006147628261474a565b9050919050565b61477a61477582613c4b565b614757565b82525050565b600061478c8285614733565b60028201915061479c8284614769565b600c820191508190509392505050565b600081519050919050565b600081905092915050565b60005b838110156147e05780820151818401526020810190506147c5565b838111156147ef576000848401525b50505050565b6000614800826147ac565b61480a81856147b7565b935061481a8185602086016147c2565b80840191505092915050565b600061483282846147f5565b915081905092915050565b7f4e487b7100000000000000000000000000000000000000000000000000000000600052601260045260246000fd5b600061487782613a64565b915061488283613a64565b9250826148925761489161483d565b5b828206905092915050565b7f506172616d657465727353746f72616765000000000000000000000000000000600082015250565b60006148d3601183614520565b91506148de8261489d565b602082019050919050565b60006020820190508181036000830152614902816148c6565b9050919050565b600065ffffffffffff82169050919050565b61492481614909565b811461492f57600080fd5b50565b6000815190506149418161491b565b92915050565b60006020828403121561495d5761495c6139fc565b5b600061496b84828501614932565b91505092915050565b7f4e487b7100000000000000000000000000000000000000000000000000000000600052603260045260246000fd5b6000819050919050565b6149be6149b982613b27565b6149a3565b82525050565b60006149d082866149ad565b6020820191506149e08285614733565b6002820191506149f08284614769565b600c82019150819050949350505050565b7f4e487b7100000000000000000000000000000000000000000000000000000000600052601160045260246000fd5b6000614a3b82613f9a565b915060ff8203614a4e57614a4d614a01565b5b600182019050919050565b614a628161421b565b8114614a6d57600080fd5b50565b600081519050614a7f81614a59565b92915050565b600060208284031215614a9b57614a9a6139fc565b5b6000614aa984828501614a70565b91505092915050565b7f46756e6374696f6e2063616e206f6e6c792062652063616c6c6564206279204160008201527f73736574205479706520436f6e74726163747300000000000000000000000000602082015250565b6000614b0e603383614520565b9150614b1982614ab2565b604082019050919050565b60006020820190508181036000830152614b3d81614b01565b9050919050565b7f546f6b656e000000000000000000000000000000000000000000000000000000600082015250565b6000614b7a600583614520565b9150614b8582614b44565b602082019050919050565b60006020820190508181036000830152614ba981614b6d565b9050919050565b6000614bbb82613c4b565b9150614bc683613c4b565b925082821015614bd957614bd8614a01565b5b828203905092915050565b6000604082019050614bf960008301856145df565b614c0660208301846145df565b9392505050565b600081519050614c1c81613a6e565b92915050565b600060208284031215614c3857614c376139fc565b5b6000614c4684828501614c0d565b91505092915050565b7f53656e64657220616c6c6f77616e6365206d75737420626520657175616c207460008201527f6f206f7220686967686572207468616e2063686f73656e20616d6f756e742100602082015250565b6000614cab603f83614520565b9150614cb682614c4f565b604082019050919050565b60006020820190508181036000830152614cda81614c9e565b9050919050565b7f53656e6465722062616c616e6365206d75737420626520657175616c20746f2060008201527f6f7220686967686572207468616e2063686f73656e20616d6f756e7421000000602082015250565b6000614d3d603d83614520565b9150614d4882614ce1565b604082019050919050565b60006020820190508181036000830152614d6c81614d30565b9050919050565b6000614d8e614d89614d8484613c4b565b613b78565b613a64565b9050919050565b614d9e81614d73565b82525050565b6000606082019050614db960008301866145df565b614dc660208301856145df565b614dd36040830184614d95565b949350505050565b600082825260208201905092915050565b6000614df7826147ac565b614e018185614ddb565b9350614e118185602086016147c2565b614e1a81613e5e565b840191505092915050565b60006080820190508181036000830152614e3f8187614dec565b9050614e4e60208301866140cc565b614e5b60408301856140bd565b614e686060830184613c63565b95945050505050565b7f436f6d6d69742077696e646f7720697320636c6f736564210000000000000000600082015250565b6000614ea7601883614520565b9150614eb282614e71565b602082019050919050565b60006020820190508181036000830152614ed681614e9a565b9050919050565b7f50726f66696c6553746f72616765000000000000000000000000000000000000600082015250565b6000614f13600e83614520565b9150614f1e82614edd565b602082019050919050565b60006020820190508181036000830152614f4281614f06565b9050919050565b7f53636f72696e6750726f78790000000000000000000000000000000000000000600082015250565b6000614f7f600c83614520565b9150614f8a82614f49565b602082019050919050565b60006020820190508181036000830152614fae81614f72565b9050919050565b6000614fc8614fc384613eea565b613ecf565b905082815260208101848484011115614fe457614fe3613e59565b5b614fef8482856147c2565b509392505050565b600082601f83011261500c5761500b613e54565b5b815161501c848260208601614fb5565b91505092915050565b60006020828403121561503b5761503a6139fc565b5b600082015167ffffffffffffffff81111561505957615058613a01565b5b61506584828501614ff7565b91505092915050565b600060a08201905061508360008301886140cc565b61509060208301876140cc565b81810360408301526150a28186614dec565b905081810360608301526150b68185614dec565b90506150c56080830184613c63565b9695505050505050565b6150d881613d4e565b81146150e357600080fd5b50565b6000815190506150f5816150cf565b92915050565b600060208284031215615111576151106139fc565b5b600061511f848285016150e6565b91505092915050565b61513181613d4e565b82525050565b600060808201905081810360008301526151518187614dec565b905061516060208301866140cc565b81810360408301526151728185614dec565b90506151816060830184615128565b95945050505050565b600061519582613c8d565b91506151a083613c8d565b9250816fffffffffffffffffffffffffffffffff04831182151516156151c9576151c8614a01565b5b828202905092915050565b60006151df82613c8d565b91506151ea83613c8d565b9250826151fa576151f961483d565b5b828204905092915050565b60008151905061521481613fa7565b92915050565b6000602082840312156152305761522f6139fc565b5b600061523e84828501615205565b91505092915050565b600061525282613a64565b915061525d83613a64565b9250827fffffffffffffffffffffffffffffffffffffffffffffffffffffffffffffffff0382111561529257615291614a01565b5b828201905092915050565b600060c08201905081810360008301526152b78189614dec565b90506152c660208301886140cc565b6152d36040830187613b40565b6152e060608301866140bd565b6152ed6080830185613ca9565b6152fa60a0830184613c63565b979650505050505050565b60008151905061531481613aa8565b92915050565b6000602082840312156153305761532f6139fc565b5b600061533e84828501615305565b91505092915050565b7f50726f6f662077696e646f77206973206f70656e000000000000000000000000600082015250565b600061537d601483614520565b915061538882615347565b602082019050919050565b600060208201905081810360008301526153ac81615370565b9050919050565b7f596f75277665206265656e20616c726561647920726577617264656420696e2060008201527f746869732065706f636800000000000000000000000000000000000000000000602082015250565b600061540f602a83614520565b915061541a826153b3565b604082019050919050565b6000602082019050818103600083015261543e81615402565b9050919050565b600061545082613d4e565b915063ffffffff820361546657615465614a01565b5b600182019050919050565b7f596f7572206e6f6465206861736e2774206265656e206177617264656420666f60008201527f72207468697320617373657420696e20746869732065706f6368000000000000602082015250565b60006154cd603a83614520565b91506154d882615471565b604082019050919050565b600060208201905081810360008301526154fc816154c0565b9050919050565b6000819050919050565b61551e61551982613a64565b615503565b82525050565b600061553082856149ad565b602082019150615540828461550d565b6020820191508190509392505050565b7f526f6f74206861736820646f65736e2774206d61746368000000000000000000600082015250565b6000615586601783614520565b915061559182615550565b602082019050919050565b600060208201905081810360008301526155b581615579565b9050919050565b60006155c782613d4e565b91506155d283613d4e565b9250828210156155e5576155e4614a01565b5b828203905092915050565b60006155fb82613a9a565b915061560683613a9a565b92508282101561561957615618614a01565b5b828203905092915050565b600061562f82613a9a565b915061563a83613a9a565b92508261ffff0382111561565157615650614a01565b5b828201905092915050565b600061566782613c4b565b915061567283613c4b565b9250826156825761568161483d565b5b828204905092915050565b60006040820190506156a260008301856145df565b6156af6020830184614d95565b9392505050565b60006156c182613c4b565b91506156cc83613c4b565b9250826bffffffffffffffffffffffff038211156156ed576156ec614a01565b5b828201905092915050565b600060408201905061570d6000830185613c63565b61571a6020830184613c63565b9392505050565b600061572c82613d4e565b915061573783613d4e565b92508263ffffffff038211156157505761574f614a01565b5b828201905092915050565b7f48617368696e6750726f78790000000000000000000000000000000000000000600082015250565b6000615791600c83614520565b915061579c8261575b565b602082019050919050565b600060208201905081810360008301526157c081615784565b9050919050565b60008160601b9050919050565b60006157df826157c7565b9050919050565b60006157f1826157d4565b9050919050565b61580961580482613a26565b6157e6565b82525050565b600061581b82866157f8565b60148201915061582b828561550d565b60208201915061583b82846147f5565b9150819050949350505050565b600060408201905061585d60008301856140cc565b818103602083015261586f8184614dec565b90509392505050565b7f53636f7265206f662074686520636f6d6d6974206d757374206265206869676860008201527f65722074686174207468652073636f7265206f6620746865206865616420696e60208201527f206f7264657220746f207265706c616365206974210000000000000000000000604082015250565b60006158fa605583614520565b915061590582615878565b606082019050919050565b60006020820190508181036000830152615929816158ed565b9050919050565b7f53636f7265206f662074686520636f6d6d6974206d757374206265206c65737360008201527f206f7220657175616c20746f20746865206f6e6520796f752077616e7420696e60208201527f7365727420616674657221000000000000000000000000000000000000000000604082015250565b60006159b2604b83614520565b91506159bd82615930565b606082019050919050565b600060208201905081810360008301526159e1816159a5565b9050919050565b7f53636f7265206f662074686520636f6d6d6974206d757374206265206772656160008201527f746572206f7220657175616c20746f20746865206f6e6520796f752077616e7460208201527f20696e73657274206265666f7265210000000000000000000000000000000000604082015250565b6000615a6a604f83614520565b9150615a75826159e8565b606082019050919050565b60006020820190508181036000830152615a9981615a5d565b9050919050565b615aa981613c8d565b8114615ab457600080fd5b50565b600081519050615ac681615aa0565b92915050565b600060208284031215615ae257615ae16139fc565b5b6000615af084828501615ab7565b91505092915050565b6000615b0482613f9a565b9150615b0f83613f9a565b925082821015615b2257615b21614a01565b5b828203905092915050565b6000615b3882613f9a565b9150615b4383613f9a565b92508260ff03821115615b5957615b58614a01565b5b828201905092915050565b6000615b70828661550d565b602082019150615b8082856157f8565b601482019150615b90828461550d565b602082019150819050949350505050565b6000615bac82613a64565b91507fffffffffffffffffffffffffffffffffffffffffffffffffffffffffffffffff8203615bde57615bdd614a01565b5b60018201905091905056fea26469706673582212202695bfd06a3f65b223446ee721a0c48f8585297aafe308de529c35a32dbb371764736f6c634300080e0033",
  "immutableReferences": {},
  "source": "// SPDX-License-Identifier: MIT\n\npragma solidity ^0.8.0;\n\nimport { AbstractAsset } from \"../assets/AbstractAsset.sol\";\nimport { AssertionRegistry } from \"../AssertionRegistry.sol\";\nimport { HashingProxy } from \"../HashingProxy.sol\";\nimport { Hub } from \"../Hub.sol\";\nimport { IdentityStorage } from \"./IdentityStorage.sol\";\nimport { IERC20 } from \"@openzeppelin/contracts/token/ERC20/IERC20.sol\";\nimport { MerkleProof } from \"@openzeppelin/contracts/utils/cryptography/MerkleProof.sol\";\nimport { ParametersStorage } from \"./ParametersStorage.sol\";\nimport { ProfileStorage } from \"./ProfileStorage.sol\";\nimport { ScoringProxy } from \"../ScoringProxy.sol\";\nimport { ShardingTable } from \"../ShardingTable.sol\";\n\ncontract ServiceAgreementStorage {\n    event ServiceAgreementCreated(\n        address indexed assetContract,\n        uint256 indexed tokenId,\n        bytes keyword,\n        uint8 hashFunctionId,\n        uint256 startTime,\n        uint16 epochsNumber,\n        uint128 epochLength,\n        uint96 tokenAmount\n    );\n    event ServiceAgreementUpdated(\n        address indexed assetContract,\n        uint256 indexed tokenId,\n        bytes keyword,\n        uint8 hashFunctionId,\n        uint16 epochsNumber,\n        uint96 tokenAmount\n    );\n    event CommitSubmitted(\n        address indexed assetContract,\n        uint256 indexed tokenId,\n        bytes keyword,\n        uint8 hashFunctionId,\n        uint96 indexed identityId,\n        bytes nodeId,\n        uint32 score\n    );\n    event ProofSubmitted(\n        address indexed assetContract,\n        uint256 indexed tokenId,\n        bytes keyword,\n        uint8 hashFunctionId,\n        uint96 indexed identityId,\n        bytes nodeId\n    );\n\n\n    struct CommitSubmission {\n        uint96 identityId;\n        uint96 nextIdentityId;\n        uint32 score;\n    }\n\n    struct ServiceAgreement {\n        uint256 startTime;\n        uint16 epochsNumber;\n        uint128 epochLength;\n        uint96 tokenAmount;\n        uint8 scoreFunctionId;\n        uint8 proofWindowOffsetPerc;  // Perc == In % of the epoch\n        mapping(uint16 => bytes32) epochSubmissionHeads;  // epoch => headCommitId\n        mapping(uint16 => uint32) rewardedNodes;\n    }\n\n    Hub public hub;\n\n    // CommitId [keccak256(agreementId + epoch + identityId)] => CommitSubmission\n    mapping(bytes32 => CommitSubmission) commitSubmissions;\n\n    // hash(asset type contract + tokenId + key) -> ServiceAgreement\n    mapping(bytes32 => ServiceAgreement) serviceAgreements;\n\n    constructor (address hubAddress) {\n        require(hubAddress != address(0));\n        hub = Hub(hubAddress);\n    }\n\n    modifier onlyAssetContracts() {\n        require (\n            hub.isAssetContract(msg.sender),\n            \"Function can only be called by Asset Type Contracts\"\n        );\n        _;\n    }\n\n    function getAgreementData(bytes32 agreementId)\n        public\n        view\n        returns (uint256, uint16, uint128, uint96, uint8, uint8)\n    {\n        return (\n            serviceAgreements[agreementId].startTime,\n            serviceAgreements[agreementId].epochsNumber,\n            serviceAgreements[agreementId].epochLength,\n            serviceAgreements[agreementId].tokenAmount,\n            serviceAgreements[agreementId].scoreFunctionId,\n            serviceAgreements[agreementId].proofWindowOffsetPerc\n        );\n    }\n\n    function getAgreementStartTime(bytes32 agreementId) public view returns (uint256) {\n        return serviceAgreements[agreementId].startTime;\n    }\n\n    function getAgreementEpochsNumber(bytes32 agreementId) public view returns (uint16) {\n        return serviceAgreements[agreementId].epochsNumber;\n    }\n\n    function getAgreementEpochLength(bytes32 agreementId) public view returns (uint128) {\n        return serviceAgreements[agreementId].epochLength;\n    }\n\n    function getAgreementTokenAmount(bytes32 agreementId) public view returns (uint96) {\n        return serviceAgreements[agreementId].tokenAmount;\n    }\n\n    function getAgreementScoreFunctionId(bytes32 agreementId) public view returns (uint8) {\n        return serviceAgreements[agreementId].scoreFunctionId;\n    }\n\n    function getAgreementProofWindowOffsetPerc(bytes32 agreementId) public view returns (uint8) {\n        return serviceAgreements[agreementId].proofWindowOffsetPerc;\n    }\n\n    function createServiceAgreement(\n        address operationalWallet,\n        address assetContract,\n        uint256 tokenId,\n        bytes memory keyword,\n        uint8 hashFunctionId,\n        uint16 epochsNumber,\n        uint96 tokenAmount,\n        uint8 scoreFunctionId\n    )\n        public\n        onlyAssetContracts\n    {\n        bytes32 agreementId = _generateAgreementId(assetContract, tokenId, keyword, hashFunctionId);\n\n        _createServiceAgreementObject(operationalWallet, agreementId, epochsNumber, tokenAmount, scoreFunctionId);\n\n        IERC20 tokenContract = IERC20(hub.getContractAddress(\"Token\"));\n        require(\n            tokenContract.allowance(operationalWallet, address(this)) >= tokenAmount,\n            \"Sender allowance must be equal to or higher than chosen amount!\"\n        );\n        require(\n            tokenContract.balanceOf(operationalWallet) >= tokenAmount,\n            \"Sender balance must be equal to or higher than chosen amount!\"\n        );\n\n        tokenContract.transferFrom(operationalWallet, address(this), tokenAmount);\n\n        emit ServiceAgreementCreated(\n            assetContract,\n            tokenId,\n            keyword,\n            hashFunctionId,\n            serviceAgreements[agreementId].startTime,\n            serviceAgreements[agreementId].epochsNumber,\n            serviceAgreements[agreementId].epochLength,\n            serviceAgreements[agreementId].tokenAmount\n        );\n    }\n\n    // TODO: Split into smaller functions\n    function updateServiceAgreement(\n        address operationalWallet,\n        address assetContract,\n        uint256 tokenId,\n        bytes memory keyword,\n        uint8 hashFunctionId,\n        uint16 epochsNumber,\n        uint96 tokenAmount\n    )\n        public\n        onlyAssetContracts\n    {\n        bytes32 agreementId = _generateAgreementId(assetContract, tokenId, keyword, hashFunctionId);\n\n        // require(serviceAgreements[agreementId]);\n\n        uint96 actualBalance = serviceAgreements[agreementId].tokenAmount;\n\n        serviceAgreements[agreementId].epochsNumber = epochsNumber;\n        serviceAgreements[agreementId].tokenAmount = tokenAmount;\n\n        IERC20 tokenContract = IERC20(hub.getContractAddress(\"Token\"));\n        require(\n            tokenContract.allowance(operationalWallet, address(this)) >= (actualBalance - tokenAmount),\n            \"Sender allowance must be equal to or higher than chosen amount!\"\n        );\n        require(\n            tokenContract.balanceOf(operationalWallet) >= (actualBalance - tokenAmount),\n            \"Sender balance must be equal to or higher than chosen amount!\"\n        );\n\n        tokenContract.transferFrom(operationalWallet, address(this), actualBalance - tokenAmount);\n\n        emit ServiceAgreementUpdated(\n            assetContract,\n            tokenId,\n            keyword,\n            hashFunctionId,\n            serviceAgreements[agreementId].epochsNumber,\n            serviceAgreements[agreementId].tokenAmount\n        );\n    }\n\n    function isCommitWindowOpen(bytes32 agreementId, uint16 epoch)\n        public\n        view\n        returns (bool)\n    {\n        uint256 timeNow = block.timestamp;\n        ServiceAgreement storage agreement = serviceAgreements[agreementId];\n\n        ParametersStorage parametersStorage = ParametersStorage(hub.getContractAddress(\"ParametersStorage\"));\n\n        return (\n            timeNow > (agreement.startTime + agreement.epochLength * epoch) &&\n            timeNow < (agreement.startTime + agreement.epochLength * epoch + parametersStorage.commitWindowDuration())\n        );\n    }\n\n    function getCommitSubmissions(bytes32 agreementId, uint16 epoch)\n        public\n        view\n        returns (CommitSubmission[] memory)\n    {\n        ParametersStorage parametersStorage = ParametersStorage(hub.getContractAddress(\"ParametersStorage\"));\n        CommitSubmission[] memory epochCommits = new CommitSubmission[](parametersStorage.R2());\n\n        bytes32 epochSubmissionsHead = serviceAgreements[agreementId].epochSubmissionHeads[epoch];\n\n        uint8 submissionsIdx = 0;\n\n        epochCommits[submissionsIdx] = commitSubmissions[epochSubmissionsHead];\n\n        uint96 nextIdentityId = commitSubmissions[epochSubmissionsHead].nextIdentityId;\n        while(nextIdentityId != 0) {\n            bytes32 commitId = keccak256(abi.encodePacked(agreementId, epoch, nextIdentityId));\n\n            CommitSubmission memory commit = commitSubmissions[commitId];\n            submissionsIdx++;\n            epochCommits[submissionsIdx] = commit;\n\n            nextIdentityId = commit.nextIdentityId;\n        }\n\n        return epochCommits;\n    }\n\n    function submitCommit(\n        address assetContract,\n        uint256 tokenId,\n        bytes memory keyword,\n        uint8 hashFunctionId,\n        uint16 epoch,\n        uint96 prevIdentityId\n    )\n        public\n    {\n        bytes32 agreementId = _generateAgreementId(assetContract, tokenId, keyword, hashFunctionId);\n\n        require(isCommitWindowOpen(agreementId, epoch), \"Commit window is closed!\");\n\n        IdentityStorage identityStorage = IdentityStorage(hub.getContractAddress(\"IdentityStorage\"));\n        uint96 identityId = identityStorage.getIdentityId(msg.sender);\n\n        ProfileStorage profileStorage = ProfileStorage(hub.getContractAddress(\"ProfileStorage\"));\n\n        ScoringProxy scoringProxy = ScoringProxy(hub.getContractAddress(\"ScoringProxy\"));\n        uint32 score = scoringProxy.callScoreFunction(\n            serviceAgreements[agreementId].scoreFunctionId,\n            hashFunctionId,\n            profileStorage.getNodeId(identityId),\n            keyword,\n            profileStorage.getStake(identityId)\n        );\n\n        _insertCommitAfter(\n            agreementId,\n            epoch,\n            prevIdentityId,\n            CommitSubmission({\n                identityId: identityId,\n                nextIdentityId: 0,\n                score: score\n            })\n        );\n\n        emit CommitSubmitted(\n            assetContract,\n            tokenId,\n            keyword,\n            hashFunctionId,\n            identityId,\n            profileStorage.getNodeId(identityId),\n            score\n        );\n    }\n\n    function isProofWindowOpen(bytes32 agreementId, uint16 epoch)\n        public\n        view\n        returns (bool)\n    {\n        uint256 timeNow = block.timestamp;\n        ServiceAgreement storage agreement = serviceAgreements[agreementId];\n\n        ParametersStorage parametersStorage = ParametersStorage(hub.getContractAddress(\"ParametersStorage\"));\n\n        uint256 proofWindowOffset = agreement.epochLength * agreement.epochsNumber * agreement.proofWindowOffsetPerc / 100;\n        uint256 proofWindowDuration = (\n            agreement.epochLength * agreement.epochsNumber * parametersStorage.proofWindowDurationPerc() / 100\n        );\n\n        return (\n            timeNow > (agreement.startTime + agreement.epochLength * epoch + proofWindowOffset) &&\n            timeNow < (agreement.startTime + agreement.epochLength * epoch + proofWindowOffset + proofWindowDuration)\n        );\n    }\n\n    function getChallenge(address assetContract, uint256 tokenId, uint16 epoch)\n        public\n        view\n        returns (bytes32, uint256)\n    {\n        IdentityStorage identityStorage = IdentityStorage(hub.getContractAddress(\"IdentityStorage\"));\n        uint96 identityId = identityStorage.getIdentityId(msg.sender);\n\n        AbstractAsset generalAssetInterface = AbstractAsset(assetContract);\n        bytes32 assertionId = generalAssetInterface.getLatestAssertion(tokenId);\n\n        AssertionRegistry assertionRegistry = AssertionRegistry(hub.getContractAddress(\"AssertionRegistry\"));\n        uint256 assertionChunksNumber = assertionRegistry.getChunksNumber(assertionId);\n\n        // blockchash() function only works for last 256 blocks (25.6 min window in case of 6s block time)\n        // TODO: figure out how to achieve randomness\n        return (\n            assertionId,\n            uint256(\n                sha256(abi.encodePacked(epoch, identityId))\n            ) % assertionChunksNumber\n        );\n    }\n\n    function sendProof(\n        address assetContract,\n        uint256 tokenId,\n        bytes memory keyword,\n        uint8 hashFunctionId,\n        uint16 epoch,\n        bytes32[] memory proof,\n        bytes32 chunkHash\n    )\n        public\n    {\n        bytes32 agreementId = _generateAgreementId(assetContract, tokenId, keyword, hashFunctionId);\n        require(!isProofWindowOpen(agreementId, epoch), \"Proof window is open\");\n\n        uint96 identityId = IdentityStorage(hub.getContractAddress(\"IdentityStorage\")).getIdentityId(msg.sender);\n\n        require(\n            commitSubmissions[keccak256(abi.encodePacked(agreementId, epoch, identityId))].score != 0,\n            \"You've been already rewarded in this epoch\"\n        );\n\n        bytes32 nextCommitId = serviceAgreements[agreementId].epochSubmissionHeads[epoch];\n\n        ParametersStorage parametersStorage = ParametersStorage(hub.getContractAddress(\"ParametersStorage\"));\n\n        uint32 i = 0;\n        while ((identityId != commitSubmissions[nextCommitId].identityId) || (i != parametersStorage.R0())) {\n            nextCommitId = keccak256(\n                abi.encodePacked(agreementId, epoch, commitSubmissions[nextCommitId].nextIdentityId)\n            );\n            i++;\n        }\n\n        require(i < parametersStorage.R0(), \"Your node hasn't been awarded for this asset in this epoch\");\n\n        bytes32 merkleRoot;\n        uint256 challenge;\n        (merkleRoot, challenge) = getChallenge(assetContract, tokenId, epoch);\n\n        require(\n            MerkleProof.verify(\n                proof,\n                merkleRoot,\n                keccak256(abi.encodePacked(chunkHash, challenge))\n            ),\n            \"Root hash doesn't match\"\n        );\n\n        ProfileStorage profileStorage = ProfileStorage(hub.getContractAddress(\"ProfileStorage\"));\n\n        // emit ProofSubmitted(\n        //     assetContract,\n        //     tokenId,\n        //     keyword,\n        //     hashFunctionId,\n        //     identityId,\n        //     profileStorage.getNodeId(identityId)\n        // );\n\n        uint96 reward = (\n            serviceAgreements[agreementId].tokenAmount /\n            (serviceAgreements[agreementId].epochsNumber - epoch + 1) /\n            (parametersStorage.R0() - serviceAgreements[agreementId].rewardedNodes[epoch])\n        );\n\n        IERC20(hub.getContractAddress(\"Token\")).transfer(address(profileStorage), reward);\n\n        profileStorage.setReward(identityId, profileStorage.getReward(identityId) + reward);\n\n        serviceAgreements[agreementId].tokenAmount -= reward;\n        serviceAgreements[agreementId].rewardedNodes[epoch] += 1;\n\n        // To make sure that node already received reward\n        commitSubmissions[keccak256(abi.encodePacked(agreementId, epoch, identityId))].score = 0;\n    }\n\n    function setScoringFunction(bytes32 agreementId, uint8 newScoreFunctionId)\n        public\n        onlyAssetContracts\n    {\n        serviceAgreements[agreementId].scoreFunctionId = newScoreFunctionId;\n    }        \n\n    function _createServiceAgreementObject(\n        address operationalWallet,\n        bytes32 agreementId,\n        uint16 epochsNumber,\n        uint96 tokenAmount,\n        uint8 scoreFunctionId\n    )\n        private\n    {\n        ParametersStorage parametersStorage = ParametersStorage(hub.getContractAddress(\"ParametersStorage\"));\n\n        ServiceAgreement storage agreement = serviceAgreements[agreementId];\n        agreement.startTime = block.timestamp;\n        agreement.epochsNumber = epochsNumber;\n        agreement.epochLength = parametersStorage.epochLength();\n        agreement.proofWindowOffsetPerc = parametersStorage.minProofWindowOffsetPerc() + _generatePseudorandomUint8(\n            operationalWallet,\n            parametersStorage.maxProofWindowOffsetPerc() - parametersStorage.minProofWindowOffsetPerc() + 1\n        );\n        agreement.tokenAmount = tokenAmount;\n        agreement.scoreFunctionId = scoreFunctionId;\n    }\n\n    function _insertCommitAfter(bytes32 agreementId, uint16 epoch, uint96 prevIdentityId, CommitSubmission memory commit)\n        private\n    {\n        bytes32 commitId = keccak256(abi.encodePacked(agreementId, epoch, commit.identityId));\n\n        // Replacing head\n        if (prevIdentityId == 0) {\n            bytes32 epochSubmissionsHead = serviceAgreements[agreementId].epochSubmissionHeads[epoch];\n\n            uint96 prevHeadIdentityId = 0;\n            if(epochSubmissionsHead != \"\") {\n                CommitSubmission memory commitHead = commitSubmissions[epochSubmissionsHead];\n                prevHeadIdentityId = commitHead.identityId;\n\n                require(\n                    commit.score > commitHead.score,\n                    \"Score of the commit must be higher that the score of the head in order to replace it!\"\n                );\n            }\n\n            serviceAgreements[agreementId].epochSubmissionHeads[epoch] = commitId;\n            commitSubmissions[commitId] = commit;\n            _link_commits(agreementId, epoch, commit.identityId, prevHeadIdentityId);\n        }\n        else {\n            bytes32 prevCommitId = keccak256(abi.encodePacked(agreementId, epoch, prevIdentityId));\n            CommitSubmission memory prevCommit = commitSubmissions[prevCommitId];\n\n            require(\n                commit.score <= prevCommit.score,\n                \"Score of the commit must be less or equal to the one you want insert after!\"\n            );\n\n            uint96 nextIdentityId = prevCommit.nextIdentityId;\n            if (nextIdentityId != 0) {\n                bytes32 nextCommitId = keccak256(abi.encodePacked(agreementId, epoch, nextIdentityId));\n                CommitSubmission memory nextCommit = commitSubmissions[nextCommitId];\n\n                require(\n                    commit.score >= nextCommit.score,\n                    \"Score of the commit must be greater or equal to the one you want insert before!\"\n                );\n            }\n\n            commitSubmissions[commitId] = commit;\n            _link_commits(agreementId, epoch, prevIdentityId, commit.identityId);\n            _link_commits(agreementId, epoch, commit.identityId, nextIdentityId);\n        }\n    }\n\n    function _link_commits(bytes32 agreementId, uint16 epoch, uint96 leftIdentityId, uint96 rightIdentityId)\n        private\n    {\n        bytes32 leftCommitId = keccak256(abi.encodePacked(agreementId, epoch, leftIdentityId));\n        commitSubmissions[leftCommitId].nextIdentityId = rightIdentityId;\n    }\n\n    function _generateAgreementId(address assetContract, uint256 tokenId, bytes memory keyword, uint8 hashFunctionId)\n        private\n        returns (bytes32)\n    {\n        HashingProxy hashingProxy = HashingProxy(hub.getContractAddress(\"HashingProxy\"));\n        return hashingProxy.callHashFunction(hashFunctionId, abi.encodePacked(assetContract, tokenId, keyword));\n    }\n\n    function _generatePseudorandomUint8(address sender, uint8 limit)\n        private\n        view\n        returns (uint8)\n    {\n        // TODO: Test type conversion\n        return uint8(uint256(keccak256(abi.encodePacked(block.timestamp, sender, block.number))) % limit);\n    }\n}\n",
  "sourcePath": "/Users/waving/Desktop/OriginTrail/dkg-evm-module/contracts/storage/ServiceAgreementStorage.sol",
  "compiler": {
    "name": "solc",
    "version": "0.8.14+commit.80d49f37.Emscripten.clang"
  },
  "schemaVersion": "3.4.10",
  "updatedAt": "2022-11-22T02:14:31.538Z",
  "devdoc": {
    "kind": "dev",
    "methods": {},
    "version": 1
  },
  "userdoc": {
    "kind": "user",
    "methods": {},
    "version": 1
  }
}