{
  "contractName": "ServiceAgreementV1",
  "abi": [
    {
      "inputs": [
        {
          "internalType": "address",
          "name": "hubAddress",
          "type": "address"
        }
      ],
      "stateMutability": "nonpayable",
      "type": "constructor"
    },
    {
      "anonymous": false,
      "inputs": [
        {
          "indexed": true,
          "internalType": "address",
          "name": "assetContract",
          "type": "address"
        },
        {
          "indexed": true,
          "internalType": "uint256",
          "name": "tokenId",
          "type": "uint256"
        },
        {
          "indexed": false,
          "internalType": "bytes",
          "name": "keyword",
          "type": "bytes"
        },
        {
          "indexed": false,
          "internalType": "uint8",
          "name": "hashFunctionId",
          "type": "uint8"
        },
        {
          "indexed": true,
          "internalType": "uint72",
          "name": "identityId",
          "type": "uint72"
        },
        {
          "indexed": false,
          "internalType": "uint40",
          "name": "score",
          "type": "uint40"
        }
      ],
      "name": "CommitSubmitted",
      "type": "event"
    },
    {
      "anonymous": false,
      "inputs": [
        {
          "indexed": true,
          "internalType": "address",
          "name": "assetContract",
          "type": "address"
        },
        {
          "indexed": true,
          "internalType": "uint256",
          "name": "tokenId",
          "type": "uint256"
        },
        {
          "indexed": false,
          "internalType": "bytes",
          "name": "keyword",
          "type": "bytes"
        },
        {
          "indexed": false,
          "internalType": "uint8",
          "name": "hashFunctionId",
          "type": "uint8"
        },
        {
          "indexed": true,
          "internalType": "uint72",
          "name": "identityId",
          "type": "uint72"
        }
      ],
      "name": "ProofSubmitted",
      "type": "event"
    },
    {
      "anonymous": false,
      "inputs": [
        {
          "indexed": true,
          "internalType": "address",
          "name": "assetContract",
          "type": "address"
        },
        {
          "indexed": true,
          "internalType": "uint256",
          "name": "tokenId",
          "type": "uint256"
        },
        {
          "indexed": false,
          "internalType": "bytes",
          "name": "keyword",
          "type": "bytes"
        },
        {
          "indexed": false,
          "internalType": "uint8",
          "name": "hashFunctionId",
          "type": "uint8"
        },
        {
          "indexed": false,
          "internalType": "uint256",
          "name": "startTime",
          "type": "uint256"
        },
        {
          "indexed": false,
          "internalType": "uint16",
          "name": "epochsNumber",
          "type": "uint16"
        },
        {
          "indexed": false,
          "internalType": "uint128",
          "name": "epochLength",
          "type": "uint128"
        },
        {
          "indexed": false,
          "internalType": "uint96",
          "name": "tokenAmount",
          "type": "uint96"
        }
      ],
      "name": "ServiceAgreementCreated",
      "type": "event"
    },
    {
      "anonymous": false,
      "inputs": [
        {
          "indexed": true,
          "internalType": "address",
          "name": "assetContract",
          "type": "address"
        },
        {
          "indexed": true,
          "internalType": "uint256",
          "name": "tokenId",
          "type": "uint256"
        },
        {
          "indexed": false,
          "internalType": "bytes",
          "name": "keyword",
          "type": "bytes"
        },
        {
          "indexed": false,
          "internalType": "uint8",
          "name": "hashFunctionId",
          "type": "uint8"
        },
        {
          "indexed": false,
          "internalType": "uint16",
          "name": "epochsNumber",
          "type": "uint16"
        },
        {
          "indexed": false,
          "internalType": "uint96",
          "name": "tokenAmount",
          "type": "uint96"
        }
      ],
      "name": "ServiceAgreementUpdated",
      "type": "event"
    },
    {
      "inputs": [],
      "name": "assertionStorage",
      "outputs": [
        {
          "internalType": "contract AssertionStorage",
          "name": "",
          "type": "address"
        }
      ],
      "stateMutability": "view",
      "type": "function"
    },
    {
      "inputs": [],
      "name": "hashingProxy",
      "outputs": [
        {
          "internalType": "contract HashingProxy",
          "name": "",
          "type": "address"
        }
      ],
      "stateMutability": "view",
      "type": "function"
    },
    {
      "inputs": [],
      "name": "hub",
      "outputs": [
        {
          "internalType": "contract Hub",
          "name": "",
          "type": "address"
        }
      ],
      "stateMutability": "view",
      "type": "function"
    },
    {
      "inputs": [],
      "name": "identityStorage",
      "outputs": [
        {
          "internalType": "contract IdentityStorage",
          "name": "",
          "type": "address"
        }
      ],
      "stateMutability": "view",
      "type": "function"
    },
    {
      "inputs": [],
      "name": "parametersStorage",
      "outputs": [
        {
          "internalType": "contract ParametersStorage",
          "name": "",
          "type": "address"
        }
      ],
      "stateMutability": "view",
      "type": "function"
    },
    {
      "inputs": [],
      "name": "profileStorage",
      "outputs": [
        {
          "internalType": "contract ProfileStorage",
          "name": "",
          "type": "address"
        }
      ],
      "stateMutability": "view",
      "type": "function"
    },
    {
      "inputs": [],
      "name": "scoringProxy",
      "outputs": [
        {
          "internalType": "contract ScoringProxy",
          "name": "",
          "type": "address"
        }
      ],
      "stateMutability": "view",
      "type": "function"
    },
    {
      "inputs": [],
      "name": "serviceAgreementStorage",
      "outputs": [
        {
          "internalType": "contract ServiceAgreementStorageV1",
          "name": "",
          "type": "address"
        }
      ],
      "stateMutability": "view",
      "type": "function"
    },
    {
      "inputs": [],
      "name": "stakingContract",
      "outputs": [
        {
          "internalType": "contract Staking",
          "name": "",
          "type": "address"
        }
      ],
      "stateMutability": "view",
      "type": "function"
    },
    {
      "inputs": [],
      "name": "stakingStorage",
      "outputs": [
        {
          "internalType": "contract StakingStorage",
          "name": "",
          "type": "address"
        }
      ],
      "stateMutability": "view",
      "type": "function"
    },
    {
      "inputs": [],
      "name": "tokenContract",
      "outputs": [
        {
          "internalType": "contract IERC20",
          "name": "",
          "type": "address"
        }
      ],
      "stateMutability": "view",
      "type": "function"
    },
    {
      "inputs": [
        {
          "components": [
            {
              "internalType": "address",
              "name": "assetCreator",
              "type": "address"
            },
            {
              "internalType": "address",
              "name": "assetContract",
              "type": "address"
            },
            {
              "internalType": "uint256",
              "name": "tokenId",
              "type": "uint256"
            },
            {
              "internalType": "bytes",
              "name": "keyword",
              "type": "bytes"
            },
            {
              "internalType": "uint8",
              "name": "hashFunctionId",
              "type": "uint8"
            },
            {
              "internalType": "uint16",
              "name": "epochsNumber",
              "type": "uint16"
            },
            {
              "internalType": "uint96",
              "name": "tokenAmount",
              "type": "uint96"
            },
            {
              "internalType": "uint8",
              "name": "scoreFunctionId",
              "type": "uint8"
            }
          ],
          "internalType": "struct ServiceAgreementStructsV1.ServiceAgreementInputArgs",
          "name": "args",
          "type": "tuple"
        }
      ],
      "name": "createServiceAgreement",
      "outputs": [],
      "stateMutability": "nonpayable",
      "type": "function"
    },
    {
      "inputs": [
        {
          "components": [
            {
              "internalType": "address",
              "name": "assetCreator",
              "type": "address"
            },
            {
              "internalType": "address",
              "name": "assetContract",
              "type": "address"
            },
            {
              "internalType": "uint256",
              "name": "tokenId",
              "type": "uint256"
            },
            {
              "internalType": "bytes",
              "name": "keyword",
              "type": "bytes"
            },
            {
              "internalType": "uint8",
              "name": "hashFunctionId",
              "type": "uint8"
            },
            {
              "internalType": "uint16",
              "name": "epochsNumber",
              "type": "uint16"
            },
            {
              "internalType": "uint96",
              "name": "tokenAmount",
              "type": "uint96"
            },
            {
              "internalType": "uint8",
              "name": "scoreFunctionId",
              "type": "uint8"
            }
          ],
          "internalType": "struct ServiceAgreementStructsV1.ServiceAgreementInputArgs",
          "name": "args",
          "type": "tuple"
        }
      ],
      "name": "updateServiceAgreement",
      "outputs": [],
      "stateMutability": "nonpayable",
      "type": "function"
    },
    {
      "inputs": [
        {
          "internalType": "bytes32",
          "name": "agreementId",
          "type": "bytes32"
        },
        {
          "internalType": "uint16",
          "name": "epoch",
          "type": "uint16"
        }
      ],
      "name": "isCommitWindowOpen",
      "outputs": [
        {
          "internalType": "bool",
          "name": "",
          "type": "bool"
        }
      ],
      "stateMutability": "view",
      "type": "function"
    },
    {
      "inputs": [
        {
          "internalType": "bytes32",
          "name": "agreementId",
          "type": "bytes32"
        },
        {
          "internalType": "uint16",
          "name": "epoch",
          "type": "uint16"
        }
      ],
      "name": "getTopCommitSubmissions",
      "outputs": [
        {
          "components": [
            {
              "internalType": "uint72",
              "name": "identityId",
              "type": "uint72"
            },
            {
              "internalType": "uint72",
              "name": "prevIdentityId",
              "type": "uint72"
            },
            {
              "internalType": "uint72",
              "name": "nextIdentityId",
              "type": "uint72"
            },
            {
              "internalType": "uint40",
              "name": "score",
              "type": "uint40"
            }
          ],
          "internalType": "struct ServiceAgreementStructsV1.CommitSubmission[]",
          "name": "",
          "type": "tuple[]"
        }
      ],
      "stateMutability": "view",
      "type": "function"
    },
    {
      "inputs": [
        {
          "components": [
            {
              "internalType": "address",
              "name": "assetContract",
              "type": "address"
            },
            {
              "internalType": "uint256",
              "name": "tokenId",
              "type": "uint256"
            },
            {
              "internalType": "bytes",
              "name": "keyword",
              "type": "bytes"
            },
            {
              "internalType": "uint8",
              "name": "hashFunctionId",
              "type": "uint8"
            },
            {
              "internalType": "uint16",
              "name": "epoch",
              "type": "uint16"
            }
          ],
          "internalType": "struct ServiceAgreementStructsV1.CommitInputArgs",
          "name": "args",
          "type": "tuple"
        }
      ],
      "name": "submitCommit",
      "outputs": [],
      "stateMutability": "nonpayable",
      "type": "function"
    },
    {
      "inputs": [
        {
          "internalType": "bytes32",
          "name": "agreementId",
          "type": "bytes32"
        },
        {
          "internalType": "uint16",
          "name": "epoch",
          "type": "uint16"
        }
      ],
      "name": "isProofWindowOpen",
      "outputs": [
        {
          "internalType": "bool",
          "name": "",
          "type": "bool"
        }
      ],
      "stateMutability": "view",
      "type": "function"
    },
    {
      "inputs": [
        {
          "internalType": "address",
          "name": "sender",
          "type": "address"
        },
        {
          "internalType": "address",
          "name": "assetContract",
          "type": "address"
        },
        {
          "internalType": "uint256",
          "name": "tokenId",
          "type": "uint256"
        },
        {
          "internalType": "uint16",
          "name": "epoch",
          "type": "uint16"
        }
      ],
      "name": "getChallenge",
      "outputs": [
        {
          "internalType": "bytes32",
          "name": "",
          "type": "bytes32"
        },
        {
          "internalType": "uint256",
          "name": "",
          "type": "uint256"
        }
      ],
      "stateMutability": "view",
      "type": "function"
    },
    {
      "inputs": [
        {
          "components": [
            {
              "internalType": "address",
              "name": "assetContract",
              "type": "address"
            },
            {
              "internalType": "uint256",
              "name": "tokenId",
              "type": "uint256"
            },
            {
              "internalType": "bytes",
              "name": "keyword",
              "type": "bytes"
            },
            {
              "internalType": "uint8",
              "name": "hashFunctionId",
              "type": "uint8"
            },
            {
              "internalType": "uint16",
              "name": "epoch",
              "type": "uint16"
            },
            {
              "internalType": "bytes32[]",
              "name": "proof",
              "type": "bytes32[]"
            },
            {
              "internalType": "bytes32",
              "name": "chunkHash",
              "type": "bytes32"
            }
          ],
          "internalType": "struct ServiceAgreementStructsV1.ProofInputArgs",
          "name": "args",
          "type": "tuple"
        }
      ],
      "name": "sendProof",
      "outputs": [],
      "stateMutability": "nonpayable",
      "type": "function"
    }
  ],
  "bytecode": "0x60806040523480156200001157600080fd5b5060405162005eb438038062005eb48339810160408190526200003491620006be565b6001600160a01b0381166200004857600080fd5b600080546001600160a01b0319166001600160a01b038316908117909155604051630110ceef60e21b815260206004820152600c60248201526b48617368696e6750726f787960a01b60448201526304433bbc90606401602060405180830381865afa158015620000bd573d6000803e3d6000fd5b505050506040513d601f19601f82011682018060405250810190620000e39190620006be565b600180546001600160a01b0319166001600160a01b03928316179055600054604051630110ceef60e21b815260206004820152600c60248201526b53636f72696e6750726f787960a01b60448201529116906304433bbc90606401602060405180830381865afa1580156200015c573d6000803e3d6000fd5b505050506040513d601f19601f82011682018060405250810190620001829190620006be565b600280546001600160a01b0319166001600160a01b03928316179055600054604051630110ceef60e21b81526020600482015260076024820152665374616b696e6760c81b60448201529116906304433bbc90606401602060405180830381865afa158015620001f6573d6000803e3d6000fd5b505050506040513d601f19601f820116820180604052508101906200021c9190620006be565b600380546001600160a01b0319166001600160a01b03928316179055600054604051630110ceef60e21b815260206004820152601060248201526f417373657274696f6e53746f7261676560801b60448201529116906304433bbc90606401602060405180830381865afa15801562000299573d6000803e3d6000fd5b505050506040513d601f19601f82011682018060405250810190620002bf9190620006be565b600480546001600160a01b039283166001600160a01b0319909116178155600054604051630110ceef60e21b81529216916304433bbc916200032591016020808252600f908201526e4964656e7469747953746f7261676560881b604082015260600190565b602060405180830381865afa15801562000343573d6000803e3d6000fd5b505050506040513d601f19601f82011682018060405250810190620003699190620006be565b600580546001600160a01b0319166001600160a01b03928316179055600054604051630110ceef60e21b8152602060048201526011602482015270506172616d657465727353746f7261676560781b60448201529116906304433bbc90606401602060405180830381865afa158015620003e7573d6000803e3d6000fd5b505050506040513d601f19601f820116820180604052508101906200040d9190620006be565b600680546001600160a01b0319166001600160a01b03928316179055600054604051630110ceef60e21b815260206004820152600e60248201526d50726f66696c6553746f7261676560901b60448201529116906304433bbc90606401602060405180830381865afa15801562000488573d6000803e3d6000fd5b505050506040513d601f19601f82011682018060405250810190620004ae9190620006be565b600780546001600160a01b0319166001600160a01b03928316179055600054604051630110ceef60e21b815260206004820152601760248201527f5365727669636541677265656d656e7453746f7261676500000000000000000060448201529116906304433bbc90606401602060405180830381865afa15801562000538573d6000803e3d6000fd5b505050506040513d601f19601f820116820180604052508101906200055e9190620006be565b600880546001600160a01b0319166001600160a01b03928316179055600054604051630110ceef60e21b815260206004820152600e60248201526d5374616b696e6753746f7261676560901b60448201529116906304433bbc90606401602060405180830381865afa158015620005d9573d6000803e3d6000fd5b505050506040513d601f19601f82011682018060405250810190620005ff9190620006be565b600980546001600160a01b0319166001600160a01b03928316179055600054604051630110ceef60e21b81526020600482015260056024820152642a37b5b2b760d91b60448201529116906304433bbc90606401602060405180830381865afa15801562000671573d6000803e3d6000fd5b505050506040513d601f19601f82011682018060405250810190620006979190620006be565b600a80546001600160a01b0319166001600160a01b039290921691909117905550620006f0565b600060208284031215620006d157600080fd5b81516001600160a01b0381168114620006e957600080fd5b9392505050565b6157b480620007006000396000f3fe608060405234801561001057600080fd5b50600436106101515760003560e01c80637db4ffd8116100cd578063d210b7cf11610081578063ee99205c11610066578063ee99205c1461034c578063f11abfd81461036c578063f42cb0381461038c57600080fd5b8063d210b7cf14610319578063e1572ce61461033957600080fd5b8063b518a00e116100b2578063b518a00e146102c6578063b766db6a146102e6578063becdd5971461030657600080fd5b80637db4ffd814610283578063aa6a00fd146102a357600080fd5b8063365a86fc11610124578063639a86a311610109578063639a86a3146102305780637522c2b1146102505780637662966a1461026357600080fd5b8063365a86fc146101f057806355a373d61461021057600080fd5b80630f0020161461015657806311c94ee814610183578063169df8d8146101c8578063271af8a8146101dd575b600080fd5b610169610164366004614ca5565b6103ac565b604080519283526020830191909152015b60405180910390f35b6001546101a39073ffffffffffffffffffffffffffffffffffffffff1681565b60405173ffffffffffffffffffffffffffffffffffffffff909116815260200161017a565b6101db6101d6366004614cf4565b610684565b005b6101db6101eb366004614d2f565b610b02565b6000546101a39073ffffffffffffffffffffffffffffffffffffffff1681565b600a546101a39073ffffffffffffffffffffffffffffffffffffffff1681565b6006546101a39073ffffffffffffffffffffffffffffffffffffffff1681565b6101db61025e366004614d6b565b6115de565b6002546101a39073ffffffffffffffffffffffffffffffffffffffff1681565b610296610291366004614da6565b6123d7565b60405161017a9190614dd6565b6102b66102b1366004614da6565b612a0a565b604051901515815260200161017a565b6009546101a39073ffffffffffffffffffffffffffffffffffffffff1681565b6008546101a39073ffffffffffffffffffffffffffffffffffffffff1681565b6102b6610314366004614da6565b612f69565b6004546101a39073ffffffffffffffffffffffffffffffffffffffff1681565b6101db610347366004614d2f565b613438565b6003546101a39073ffffffffffffffffffffffffffffffffffffffff1681565b6005546101a39073ffffffffffffffffffffffffffffffffffffffff1681565b6007546101a39073ffffffffffffffffffffffffffffffffffffffff1681565b6005546040517f867a468000000000000000000000000000000000000000000000000000000000815273ffffffffffffffffffffffffffffffffffffffff8681166004830152600092839283929091169063867a468090602401602060405180830381865afa158015610423573d6000803e3d6000fd5b505050506040513d601f19601f820116820180604052508101906104479190614e6a565b6040517fcede992f00000000000000000000000000000000000000000000000000000000815260048101879052909150869060009073ffffffffffffffffffffffffffffffffffffffff83169063cede992f90602401602060405180830381865afa1580156104ba573d6000803e3d6000fd5b505050506040513d601f19601f820116820180604052508101906104de9190614e85565b600480546040517f2111070900000000000000000000000000000000000000000000000000000000815291820183905291925060009173ffffffffffffffffffffffffffffffffffffffff1690632111070990602401602060405180830381865afa158015610551573d6000803e3d6000fd5b505050506040513d601f19601f820116820180604052508101906105759190614eb8565b6bffffffffffffffffffffffff1690508181600289876040516020016105f192919060f09290921b7fffff00000000000000000000000000000000000000000000000000000000000016825260b81b7fffffffffffffffffff0000000000000000000000000000000000000000000000166002820152600b0190565b604080517fffffffffffffffffffffffffffffffffffffffffffffffffffffffffffffffe08184030181529082905261062991614f05565b602060405180830381855afa158015610646573d6000803e3d6000fd5b5050506040513d601f19601f820116820180604052508101906106699190614e85565b6106739190614f50565b955095505050505094509492505050565b60006106bd6106966020840184614f64565b60208401356106a86040860186614f7f565b6106b86080880160608901614ffa565b61404a565b90506106d38161031460a0850160808601615017565b61073e576040517f08c379a000000000000000000000000000000000000000000000000000000000815260206004820152601860248201527f436f6d6d69742077696e646f7720697320636c6f73656421000000000000000060448201526064015b60405180910390fd5b6005546040517f867a468000000000000000000000000000000000000000000000000000000000815233600482015260009173ffffffffffffffffffffffffffffffffffffffff169063867a468090602401602060405180830381865afa1580156107ad573d6000803e3d6000fd5b505050506040513d601f19601f820116820180604052508101906107d19190614e6a565b6002546008546040517fce60dc610000000000000000000000000000000000000000000000000000000081526004810186905292935060009273ffffffffffffffffffffffffffffffffffffffff92831692630b47a00892169063ce60dc6190602401602060405180830381865afa158015610851573d6000803e3d6000fd5b505050506040513d601f19601f820116820180604052508101906108759190615034565b6108856080880160608901614ffa565b6007546040517f41c10b9a00000000000000000000000000000000000000000000000000000000815268ffffffffffffffffff8816600482015273ffffffffffffffffffffffffffffffffffffffff909116906341c10b9a90602401600060405180830381865afa1580156108fe573d6000803e3d6000fd5b505050506040513d6000823e601f3d9081017fffffffffffffffffffffffffffffffffffffffffffffffffffffffffffffffe01682016040526109449190810190615080565b61095160408a018a614f7f565b6009546040517f9d2b48ad00000000000000000000000000000000000000000000000000000000815268ffffffffffffffffff8b16600482015273ffffffffffffffffffffffffffffffffffffffff90911690639d2b48ad90602401602060405180830381865afa1580156109ca573d6000803e3d6000fd5b505050506040513d601f19601f820116820180604052508101906109ee9190614eb8565b6040518763ffffffff1660e01b8152600401610a0f969594939291906151d3565b6020604051808303816000875af1158015610a2e573d6000803e3d6000fd5b505050506040513d601f19601f82011682018060405250810190610a529190615242565b9050610a7283610a6860a0870160808801615017565b84600080866140ff565b68ffffffffffffffffff821660208501803590610a8f9087614f64565b73ffffffffffffffffffffffffffffffffffffffff167f06d678193262cc8cf0c98a32a42cc9c6ccb379cf09a5766360b3a6b6d59723d3610ad36040890189614f7f565b610ae360808b0160608c01614ffa565b87604051610af4949392919061525d565b60405180910390a450505050565b610b0a6147f5565b6000610b41610b1f6040840160208501614f64565b6040840135610b316060860186614f7f565b6106b860a0880160808901614ffa565b60085490915073ffffffffffffffffffffffffffffffffffffffff166000610b6c6020850185614f64565b73ffffffffffffffffffffffffffffffffffffffff1603610be9576040517f08c379a000000000000000000000000000000000000000000000000000000000815260206004820152601b60248201527f41737365742063726561746f722063616e6e6f742062652030783000000000006044820152606401610735565b6040517f86e0cc880000000000000000000000000000000000000000000000000000000081526004810183905273ffffffffffffffffffffffffffffffffffffffff8216906386e0cc8890602401602060405180830381865afa158015610c54573d6000803e3d6000fd5b505050506040513d601f19601f82011682018060405250810190610c789190615292565b610cde576040517f08c379a000000000000000000000000000000000000000000000000000000000815260206004820152601f60248201527f536572766963652041677265656d656e7420646f65736e2774206578697374006044820152606401610735565b610cee60c0840160a08501615017565b61ffff16600003610d5b576040517f08c379a000000000000000000000000000000000000000000000000000000000815260206004820152601960248201527f45706f636873206e756d6265722063616e6e6f742062652030000000000000006044820152606401610735565b610d6b60e0840160c085016152b4565b6bffffffffffffffffffffffff16600003610de2576040517f08c379a000000000000000000000000000000000000000000000000000000000815260206004820152601860248201527f546f6b656e20616d6f756e742063616e6e6f74206265203000000000000000006044820152606401610735565b60025473ffffffffffffffffffffffffffffffffffffffff1663e12e56a7610e11610100860160e08701614ffa565b6040517fffffffff0000000000000000000000000000000000000000000000000000000060e084901b16815260ff9091166004820152602401602060405180830381865afa158015610e67573d6000803e3d6000fd5b505050506040513d601f19601f82011682018060405250810190610e8b9190615292565b610ef1576040517f08c379a000000000000000000000000000000000000000000000000000000000815260206004820152601c60248201527f53636f72652066756e6374696f6e20646f65736e2774206578697374000000006044820152606401610735565b6040517f4089a17d0000000000000000000000000000000000000000000000000000000081526004810183905260009073ffffffffffffffffffffffffffffffffffffffff831690634089a17d90602401602060405180830381865afa158015610f5f573d6000803e3d6000fd5b505050506040513d601f19601f82011682018060405250810190610f839190614eb8565b905073ffffffffffffffffffffffffffffffffffffffff8216630f3a549d84610fb260c0880160a08901615017565b6040517fffffffff0000000000000000000000000000000000000000000000000000000060e085901b168152600481019290925261ffff166024820152604401600060405180830381600087803b15801561100c57600080fd5b505af1158015611020573d6000803e3d6000fd5b50505073ffffffffffffffffffffffffffffffffffffffff8316905063e54b26ff8461105260e0880160c089016152b4565b6040517fffffffff0000000000000000000000000000000000000000000000000000000060e085901b16815260048101929092526bffffffffffffffffffffffff166024820152604401600060405180830381600087803b1580156110b657600080fd5b505af11580156110ca573d6000803e3d6000fd5b50505073ffffffffffffffffffffffffffffffffffffffff83169050636441a276846110fd610100880160e08901614ffa565b6040517fffffffff0000000000000000000000000000000000000000000000000000000060e085901b168152600481019290925260ff166024820152604401600060405180830381600087803b15801561115657600080fd5b505af115801561116a573d6000803e3d6000fd5b5050600a5473ffffffffffffffffffffffffffffffffffffffff16915082905061119a60e0870160c088016152b4565b6111a49190615300565b6bffffffffffffffffffffffff1673ffffffffffffffffffffffffffffffffffffffff821663dd62ed3e6111db6020890189614f64565b6040517fffffffff0000000000000000000000000000000000000000000000000000000060e084901b16815273ffffffffffffffffffffffffffffffffffffffff91821660048201529087166024820152604401602060405180830381865afa15801561124c573d6000803e3d6000fd5b505050506040513d601f19601f820116820180604052508101906112709190614e85565b10156112fe576040517f08c379a000000000000000000000000000000000000000000000000000000000815260206004820152602260248201527f53656e64657220616c6c6f77616e6365206d757374206265203e3d20616d6f7560448201527f6e740000000000000000000000000000000000000000000000000000000000006064820152608401610735565b8161130f60e0870160c088016152b4565b6113199190615300565b6bffffffffffffffffffffffff1673ffffffffffffffffffffffffffffffffffffffff82166370a082316113506020890189614f64565b6040517fffffffff0000000000000000000000000000000000000000000000000000000060e084901b16815273ffffffffffffffffffffffffffffffffffffffff9091166004820152602401602060405180830381865afa1580156113b9573d6000803e3d6000fd5b505050506040513d601f19601f820116820180604052508101906113dd9190614e85565b1015611445576040517f08c379a000000000000000000000000000000000000000000000000000000000815260206004820181905260248201527f53656e6465722062616c616e6365206d757374206265203e3d20616d6f756e746044820152606401610735565b73ffffffffffffffffffffffffffffffffffffffff81166323b872dd61146e6020880188614f64565b858561148060e08b0160c08c016152b4565b61148a9190615300565b6040517fffffffff0000000000000000000000000000000000000000000000000000000060e086901b16815273ffffffffffffffffffffffffffffffffffffffff93841660048201529290911660248301526bffffffffffffffffffffffff1660448201526064016020604051808303816000875af1158015611511573d6000803e3d6000fd5b505050506040513d601f19601f820116820180604052508101906115359190615292565b506040850180359061154a9060208801614f64565b73ffffffffffffffffffffffffffffffffffffffff167f1abad9d03c6b61f6b6714655a41bdc5b88318ce5136915a9c8751a74ad5a30b961158e6060890189614f7f565b61159e60a08b0160808c01614ffa565b6115ae60c08c0160a08d01615017565b6115be60e08d0160c08e016152b4565b6040516115cf95949392919061532d565b60405180910390a35050505050565b60006115f06106966020840184614f64565b9050611606816102b160a0850160808601615017565b1561166d576040517f08c379a000000000000000000000000000000000000000000000000000000000815260206004820152601460248201527f50726f6f662077696e646f77206973206f70656e0000000000000000000000006044820152606401610735565b6005546040517f867a468000000000000000000000000000000000000000000000000000000000815233600482015273ffffffffffffffffffffffffffffffffffffffff90911690600090829063867a468090602401602060405180830381865afa1580156116e0573d6000803e3d6000fd5b505050506040513d601f19601f820116820180604052508101906117049190614e6a565b60085490915073ffffffffffffffffffffffffffffffffffffffff1680635c6c1fef8561173760a0890160808a01615017565b856040516020016117a59392919092835260f09190911b7fffff00000000000000000000000000000000000000000000000000000000000016602083015260b81b7fffffffffffffffffff0000000000000000000000000000000000000000000000166022820152602b0190565b604051602081830303815290604052805190602001206040518263ffffffff1660e01b81526004016117d991815260200190565b602060405180830381865afa1580156117f6573d6000803e3d6000fd5b505050506040513d601f19601f8201168201806040525081019061181a9190615242565b64ffffffffff1660000361188a576040517f08c379a000000000000000000000000000000000000000000000000000000000815260206004820152601c60248201527f596f75277665206265656e20616c7265616479207265776172646564000000006044820152606401610735565b600073ffffffffffffffffffffffffffffffffffffffff821663572943f7866118b960a08a0160808b01615017565b6040517fffffffff0000000000000000000000000000000000000000000000000000000060e085901b168152600481019290925261ffff166024820152604401602060405180830381865afa158015611916573d6000803e3d6000fd5b505050506040513d601f19601f8201168201806040525081019061193a9190614e85565b90506000600660009054906101000a900473ffffffffffffffffffffffffffffffffffffffff1673ffffffffffffffffffffffffffffffffffffffff16638d73d86a6040518163ffffffff1660e01b8152600401602060405180830381865afa1580156119ab573d6000803e3d6000fd5b505050506040513d601f19601f820116820180604052508101906119cf9190615373565b905060005b6040517f08feb20b0000000000000000000000000000000000000000000000000000000081526004810184905273ffffffffffffffffffffffffffffffffffffffff8516906308feb20b90602401602060405180830381865afa158015611a3f573d6000803e3d6000fd5b505050506040513d601f19601f82011682018060405250810190611a639190614e6a565b68ffffffffffffffffff168568ffffffffffffffffff1614158015611a9057508163ffffffff168160ff16105b15611be25786611aa660a08a0160808b01615017565b6040517fb67b6e1e0000000000000000000000000000000000000000000000000000000081526004810186905273ffffffffffffffffffffffffffffffffffffffff87169063b67b6e1e90602401602060405180830381865afa158015611b11573d6000803e3d6000fd5b505050506040513d601f19601f82011682018060405250810190611b359190614e6a565b604051602001611ba29392919092835260f09190911b7fffff00000000000000000000000000000000000000000000000000000000000016602083015260b81b7fffffffffffffffffff0000000000000000000000000000000000000000000000166022820152602b0190565b604080517fffffffffffffffffffffffffffffffffffffffffffffffffffffffffffffffe0818403018152919052805160209091012092506001016119d4565b8163ffffffff168160ff1610611c7a576040517f08c379a000000000000000000000000000000000000000000000000000000000815260206004820152603a60248201527f596f7572206e6f6465206861736e2774206265656e206177617264656420666f60448201527f72207468697320617373657420696e20746869732065706f63680000000000006064820152608401610735565b600080611ca633611c8e60208d018d614f64565b8c602001358d60800160208101906101649190615017565b9092509050611d29611cbb60a08c018c615399565b8080602002602001604051908101604052809392919081815260200183836020028082843760009201919091525050604051869250611d0e915060c08f0135908690602001918252602082015260400190565b604051602081830303815290604052805190602001206148ef565b611d8f576040517f08c379a000000000000000000000000000000000000000000000000000000000815260206004820152601760248201527f526f6f74206861736820646f65736e2774206d617463680000000000000000006044820152606401610735565b68ffffffffffffffffff871660208b01803590611dac908d614f64565b73ffffffffffffffffffffffffffffffffffffffff167f366aaa9c8abe80c090bc64cea91ec9dd40e38cc712d3381824709c5a1562f2c4611df060408f018f614f7f565b8f6060016020810190611e039190614ffa565b604051611e1293929190615401565b60405180910390a460008673ffffffffffffffffffffffffffffffffffffffff1663ac9d7cf48b8d6080016020810190611e4c9190615017565b6040517fffffffff0000000000000000000000000000000000000000000000000000000060e085901b168152600481019290925261ffff166024820152604401602060405180830381865afa158015611ea9573d6000803e3d6000fd5b505050506040513d601f19601f82011682018060405250810190611ecd9190615373565b611ed79086615428565b63ffffffff16611eed60a08d0160808e01615017565b6040517fd1a640c7000000000000000000000000000000000000000000000000000000008152600481018d905273ffffffffffffffffffffffffffffffffffffffff8a169063d1a640c790602401602060405180830381865afa158015611f58573d6000803e3d6000fd5b505050506040513d601f19601f82011682018060405250810190611f7c9190615445565b611f869190615462565b611f9190600161547d565b61ffff168873ffffffffffffffffffffffffffffffffffffffff16634089a17d8d6040518263ffffffff1660e01b8152600401611fd091815260200190565b602060405180830381865afa158015611fed573d6000803e3d6000fd5b505050506040513d601f19601f820116820180604052508101906120119190614eb8565b61201b91906154a3565b61202591906154a3565b6003546040517fa7b5dd5900000000000000000000000000000000000000000000000000000000815268ffffffffffffffffff8b1660048201526bffffffffffffffffffffffff8316602482015291925073ffffffffffffffffffffffffffffffffffffffff169063a7b5dd5990604401600060405180830381600087803b1580156120b057600080fd5b505af11580156120c4573d6000803e3d6000fd5b50506040517f4089a17d000000000000000000000000000000000000000000000000000000008152600481018d905273ffffffffffffffffffffffffffffffffffffffff8a16925063e54b26ff91508c9084908490634089a17d90602401602060405180830381865afa15801561213f573d6000803e3d6000fd5b505050506040513d601f19601f820116820180604052508101906121639190614eb8565b61216d9190615300565b6040517fffffffff0000000000000000000000000000000000000000000000000000000060e085901b16815260048101929092526bffffffffffffffffffffffff166024820152604401600060405180830381600087803b1580156121d157600080fd5b505af11580156121e5573d6000803e3d6000fd5b505050508673ffffffffffffffffffffffffffffffffffffffff1663beca40f38b8d60800160208101906122199190615017565b6040517fffffffff0000000000000000000000000000000000000000000000000000000060e085901b168152600481019290925261ffff166024820152604401600060405180830381600087803b15801561227357600080fd5b505af1158015612287573d6000803e3d6000fd5b505050508673ffffffffffffffffffffffffffffffffffffffff16633d6317168b8d60800160208101906122bb9190615017565b8b6040516020016123299392919092835260f09190911b7fffff00000000000000000000000000000000000000000000000000000000000016602083015260b81b7fffffffffffffffffff0000000000000000000000000000000000000000000000166022820152602b0190565b604080517fffffffffffffffffffffffffffffffffffffffffffffffffffffffffffffffe08184030181529082905280516020909101207fffffffff0000000000000000000000000000000000000000000000000000000060e084901b168252600482015260006024820152604401600060405180830381600087803b1580156123b257600080fd5b505af11580156123c6573d6000803e3d6000fd5b505050505050505050505050505050565b6008546040517f86e0cc880000000000000000000000000000000000000000000000000000000081526004810184905260609173ffffffffffffffffffffffffffffffffffffffff169081906386e0cc8890602401602060405180830381865afa158015612449573d6000803e3d6000fd5b505050506040513d601f19601f8201168201806040525081019061246d9190615292565b6124d3576040517f08c379a000000000000000000000000000000000000000000000000000000000815260206004820152601f60248201527f536572766963652041677265656d656e7420646f65736e2774206578697374006044820152606401610735565b6040517fd1a640c70000000000000000000000000000000000000000000000000000000081526004810185905273ffffffffffffffffffffffffffffffffffffffff82169063d1a640c790602401602060405180830381865afa15801561253e573d6000803e3d6000fd5b505050506040513d601f19601f820116820180604052508101906125629190615445565b61ffff168361ffff16106125d2576040517f08c379a000000000000000000000000000000000000000000000000000000000815260206004820152601960248201527f536572766963652041677265656d656e742065787069726564000000000000006044820152606401610735565b600654604080517f8d73d86a000000000000000000000000000000000000000000000000000000008152905160009273ffffffffffffffffffffffffffffffffffffffff1691638d73d86a9160048083019260209291908290030181865afa158015612642573d6000803e3d6000fd5b505050506040513d601f19601f820116820180604052508101906126669190615373565b63ffffffff1667ffffffffffffffff81111561268457612684615051565b6040519080825280602002602001820160405280156126f457816020015b6040805160808101825260008082526020808301829052928201819052606082015282527fffffffffffffffffffffffffffffffffffffffffffffffffffffffffffffffff9092019101816126a25790505b506040517f572943f70000000000000000000000000000000000000000000000000000000081526004810187905261ffff8616602482015290915060009073ffffffffffffffffffffffffffffffffffffffff84169063572943f790604401602060405180830381865afa158015612770573d6000803e3d6000fd5b505050506040513d601f19601f820116820180604052508101906127949190614e85565b6040517f88f7a9b40000000000000000000000000000000000000000000000000000000081526004810182905290915073ffffffffffffffffffffffffffffffffffffffff8416906388f7a9b490602401608060405180830381865afa158015612802573d6000803e3d6000fd5b505050506040513d601f19601f8201168201806040525081019061282691906154ce565b826000815181106128395761283961554b565b60200260200101819052506000808360008151811061285a5761285a61554b565b60200260200101516040015190506000600190505b68ffffffffffffffffff8216156129fb5760408051602081018b90527fffff00000000000000000000000000000000000000000000000000000000000060f08b901b16918101919091527fffffffffffffffffff000000000000000000000000000000000000000000000060b884901b166042820152604b01604080518083037fffffffffffffffffffffffffffffffffffffffffffffffffffffffffffffffe00181529082905280516020909101207f88f7a9b400000000000000000000000000000000000000000000000000000000825260048201819052935073ffffffffffffffffffffffffffffffffffffffff8716906388f7a9b490602401608060405180830381865afa158015612989573d6000803e3d6000fd5b505050506040513d601f19601f820116820180604052508101906129ad91906154ce565b858260ff16815181106129c2576129c261554b565b6020026020010181905250848160ff16815181106129e2576129e261554b565b602090810291909101015160400151915060010161286f565b50929450505050505b92915050565b6008546040517f9c70b3c00000000000000000000000000000000000000000000000000000000081526004810184905260009173ffffffffffffffffffffffffffffffffffffffff169082908290639c70b3c090602401602060405180830381865afa158015612a7e573d6000803e3d6000fd5b505050506040513d601f19601f82011682018060405250810190612aa29190614e85565b905080600003612b0e576040517f08c379a000000000000000000000000000000000000000000000000000000000815260206004820152601f60248201527f536572766963652041677265656d656e7420646f65736e2774206578697374006044820152606401610735565b6040517fd1a640c70000000000000000000000000000000000000000000000000000000081526004810186905273ffffffffffffffffffffffffffffffffffffffff83169063d1a640c790602401602060405180830381865afa158015612b79573d6000803e3d6000fd5b505050506040513d601f19601f82011682018060405250810190612b9d9190615445565b61ffff168461ffff1610612c0d576040517f08c379a000000000000000000000000000000000000000000000000000000000815260206004820152601960248201527f536572766963652041677265656d656e742065787069726564000000000000006044820152606401610735565b6040517f484a47e700000000000000000000000000000000000000000000000000000000815260048101869052429060009073ffffffffffffffffffffffffffffffffffffffff85169063484a47e790602401602060405180830381865afa158015612c7d573d6000803e3d6000fd5b505050506040513d601f19601f82011682018060405250810190612ca1919061557a565b6040517fd1a640c70000000000000000000000000000000000000000000000000000000081526004810189905290915060009073ffffffffffffffffffffffffffffffffffffffff86169063d1a640c790602401602060405180830381865afa158015612d12573d6000803e3d6000fd5b505050506040513d601f19601f82011682018060405250810190612d369190615445565b6040517f99149f77000000000000000000000000000000000000000000000000000000008152600481018a905290915060009073ffffffffffffffffffffffffffffffffffffffff8716906399149f7790602401602060405180830381865afa158015612da7573d6000803e3d6000fd5b505050506040513d601f19601f82011682018060405250810190612dcb9190615034565b90506000606460ff8316612de361ffff8616876155ac565b612ded91906155ac565b612df791906155e4565b6fffffffffffffffffffffffffffffffff16905060006064600660009054906101000a900473ffffffffffffffffffffffffffffffffffffffff1673ffffffffffffffffffffffffffffffffffffffff16639d3ceb0c6040518163ffffffff1660e01b8152600401602060405180830381865afa158015612e7c573d6000803e3d6000fd5b505050506040513d601f19601f82011682018060405250810190612ea09190615034565b60ff16612eb161ffff8716886155ac565b612ebb91906155ac565b612ec591906155e4565b6fffffffffffffffffffffffffffffffff16905081612ee861ffff8c16876155ac565b612f04906fffffffffffffffffffffffffffffffff1689615607565b612f0e9190615607565b86118015612f5a57508082612f2761ffff8d16886155ac565b612f43906fffffffffffffffffffffffffffffffff168a615607565b612f4d9190615607565b612f579190615607565b86105b9b9a5050505050505050505050565b6008546040517f9c70b3c00000000000000000000000000000000000000000000000000000000081526004810184905260009173ffffffffffffffffffffffffffffffffffffffff169082908290639c70b3c090602401602060405180830381865afa158015612fdd573d6000803e3d6000fd5b505050506040513d601f19601f820116820180604052508101906130019190614e85565b90508060000361306d576040517f08c379a000000000000000000000000000000000000000000000000000000000815260206004820152601f60248201527f536572766963652041677265656d656e7420646f65736e2774206578697374006044820152606401610735565b6040517fd1a640c70000000000000000000000000000000000000000000000000000000081526004810186905273ffffffffffffffffffffffffffffffffffffffff83169063d1a640c790602401602060405180830381865afa1580156130d8573d6000803e3d6000fd5b505050506040513d601f19601f820116820180604052508101906130fc9190615445565b61ffff168461ffff1610613192576040517f08c379a000000000000000000000000000000000000000000000000000000000815260206004820152602260248201527f536572766963652041677265656d656e7420686173206265656e20657870697260448201527f65640000000000000000000000000000000000000000000000000000000000006064820152608401610735565b60065473ffffffffffffffffffffffffffffffffffffffff164261ffff8616600003613242578173ffffffffffffffffffffffffffffffffffffffff1663e8d487ff6040518163ffffffff1660e01b8152600401602060405180830381865afa158015613203573d6000803e3d6000fd5b505050506040513d601f19601f820116820180604052508101906132279190615445565b6132359061ffff1684615607565b8110945050505050612a04565b6040517f484a47e70000000000000000000000000000000000000000000000000000000081526004810188905261ffff87169073ffffffffffffffffffffffffffffffffffffffff86169063484a47e790602401602060405180830381865afa1580156132b3573d6000803e3d6000fd5b505050506040513d601f19601f820116820180604052508101906132d7919061557a565b6132e191906155ac565b6132fd906fffffffffffffffffffffffffffffffff1684615607565b8111801561342d57508173ffffffffffffffffffffffffffffffffffffffff1663e8d487ff6040518163ffffffff1660e01b8152600401602060405180830381865afa158015613351573d6000803e3d6000fd5b505050506040513d601f19601f820116820180604052508101906133759190615445565b61ffff168661ffff168573ffffffffffffffffffffffffffffffffffffffff1663484a47e78a6040518263ffffffff1660e01b81526004016133b991815260200190565b602060405180830381865afa1580156133d6573d6000803e3d6000fd5b505050506040513d601f19601f820116820180604052508101906133fa919061557a565b61340491906155ac565b613420906fffffffffffffffffffffffffffffffff1685615607565b61342a9190615607565b81105b979650505050505050565b6134406147f5565b600061344f6020830183614f64565b73ffffffffffffffffffffffffffffffffffffffff16036134cc576040517f08c379a000000000000000000000000000000000000000000000000000000000815260206004820152601b60248201527f41737365742063726561746f722063616e6e6f742062652030783000000000006044820152606401610735565b60005473ffffffffffffffffffffffffffffffffffffffff16638d5d2d856134fa6040840160208501614f64565b6040517fffffffff0000000000000000000000000000000000000000000000000000000060e084901b16815273ffffffffffffffffffffffffffffffffffffffff9091166004820152602401602060405180830381865afa158015613563573d6000803e3d6000fd5b505050506040513d601f19601f820116820180604052508101906135879190615292565b6135ed576040517f08c379a000000000000000000000000000000000000000000000000000000000815260206004820152601d60248201527f417373657420436f6e7472616374206e6f7420696e20746865206875620000006044820152606401610735565b7fc5d2460186f7233c927e7db2dcc703c0e500b653ca82273b7bfad8045d85a47061361b6060830183614f7f565b60405161362992919061561f565b604051809103902003613698576040517f08c379a000000000000000000000000000000000000000000000000000000000815260206004820152601660248201527f4b6579776f72642063616e277420626520656d707479000000000000000000006044820152606401610735565b6136a860c0820160a08301615017565b61ffff16600003613715576040517f08c379a000000000000000000000000000000000000000000000000000000000815260206004820152601960248201527f45706f636873206e756d6265722063616e6e6f742062652030000000000000006044820152606401610735565b61372560e0820160c083016152b4565b6bffffffffffffffffffffffff1660000361379c576040517f08c379a000000000000000000000000000000000000000000000000000000000815260206004820152601860248201527f546f6b656e20616d6f756e742063616e6e6f74206265203000000000000000006044820152606401610735565b60025473ffffffffffffffffffffffffffffffffffffffff1663e12e56a76137cb610100840160e08501614ffa565b6040517fffffffff0000000000000000000000000000000000000000000000000000000060e084901b16815260ff9091166004820152602401602060405180830381865afa158015613821573d6000803e3d6000fd5b505050506040513d601f19601f820116820180604052508101906138459190615292565b6138ab576040517f08c379a000000000000000000000000000000000000000000000000000000000815260206004820152601c60248201527f53636f72652066756e6374696f6e20646f65736e2774206578697374000000006044820152606401610735565b60006138c0610b1f6040840160208501614f64565b60085460065491925073ffffffffffffffffffffffffffffffffffffffff908116911681634c72fefc846138fa60c0880160a08901615017565b8473ffffffffffffffffffffffffffffffffffffffff166357d775f86040518163ffffffff1660e01b8152600401602060405180830381865afa158015613945573d6000803e3d6000fd5b505050506040513d601f19601f82011682018060405250810190613969919061557a565b61397960e08a0160c08b016152b4565b61398a6101008b0160e08c01614ffa565b613a9261399a60208d018d614f64565b8973ffffffffffffffffffffffffffffffffffffffff16638e6262426040518163ffffffff1660e01b8152600401602060405180830381865afa1580156139e5573d6000803e3d6000fd5b505050506040513d601f19601f82011682018060405250810190613a099190615034565b8a73ffffffffffffffffffffffffffffffffffffffff1663ff2117436040518163ffffffff1660e01b8152600401602060405180830381865afa158015613a54573d6000803e3d6000fd5b505050506040513d601f19601f82011682018060405250810190613a789190615034565b613a82919061562f565b613a8d906001615652565b614905565b8873ffffffffffffffffffffffffffffffffffffffff16638e6262426040518163ffffffff1660e01b8152600401602060405180830381865afa158015613add573d6000803e3d6000fd5b505050506040513d601f19601f82011682018060405250810190613b019190615034565b613b0b9190615652565b6040517fffffffff0000000000000000000000000000000000000000000000000000000060e089901b168152600481019690965261ffff90941660248601526fffffffffffffffffffffffffffffffff90921660448501526bffffffffffffffffffffffff16606484015260ff90811660848401521660a482015260c401600060405180830381600087803b158015613ba357600080fd5b505af1158015613bb7573d6000803e3d6000fd5b5050600a5473ffffffffffffffffffffffffffffffffffffffff169150613be6905060e0860160c087016152b4565b6bffffffffffffffffffffffff1673ffffffffffffffffffffffffffffffffffffffff821663dd62ed3e613c1d6020890189614f64565b6040517fffffffff0000000000000000000000000000000000000000000000000000000060e084901b16815273ffffffffffffffffffffffffffffffffffffffff91821660048201529087166024820152604401602060405180830381865afa158015613c8e573d6000803e3d6000fd5b505050506040513d601f19601f82011682018060405250810190613cb29190614e85565b1015613d1a576040517f08c379a000000000000000000000000000000000000000000000000000000000815260206004820152601f60248201527f53656e64657220616c6c6f77616e6365206d757374203e3d20616d6f756e74006044820152606401610735565b613d2a60e0860160c087016152b4565b6bffffffffffffffffffffffff1673ffffffffffffffffffffffffffffffffffffffff82166370a08231613d616020890189614f64565b6040517fffffffff0000000000000000000000000000000000000000000000000000000060e084901b16815273ffffffffffffffffffffffffffffffffffffffff9091166004820152602401602060405180830381865afa158015613dca573d6000803e3d6000fd5b505050506040513d601f19601f82011682018060405250810190613dee9190614e85565b1015613e56576040517f08c379a000000000000000000000000000000000000000000000000000000000815260206004820181905260248201527f53656e6465722062616c616e6365206d757374206265203e3d20616d6f756e746044820152606401610735565b73ffffffffffffffffffffffffffffffffffffffff81166323b872dd613e7f6020880188614f64565b85613e9060e08a0160c08b016152b4565b6040517fffffffff0000000000000000000000000000000000000000000000000000000060e086901b16815273ffffffffffffffffffffffffffffffffffffffff93841660048201529290911660248301526bffffffffffffffffffffffff1660448201526064016020604051808303816000875af1158015613f17573d6000803e3d6000fd5b505050506040513d601f19601f82011682018060405250810190613f3b9190615292565b5060408501803590613f509060208801614f64565b73ffffffffffffffffffffffffffffffffffffffff167f48298191f59170e97201484d4a3de75065cea587a165788d1f19459fabd39a5e613f946060890189614f7f565b613fa460a08b0160808c01614ffa565b42613fb560c08d0160a08e01615017565b8973ffffffffffffffffffffffffffffffffffffffff166357d775f86040518163ffffffff1660e01b8152600401602060405180830381865afa158015614000573d6000803e3d6000fd5b505050506040513d601f19601f82011682018060405250810190614024919061557a565b8d60c001602081019061403791906152b4565b6040516115cf9796959493929190615677565b60015460405160009173ffffffffffffffffffffffffffffffffffffffff16906345ed59e5908490614086908a908a908a908a906020016156dc565b6040516020818303038152906040526040518363ffffffff1660e01b81526004016140b2929190615722565b6020604051808303816000875af11580156140d1573d6000803e3d6000fd5b505050506040513d601f19601f820116820180604052508101906140f59190614e85565b9695505050505050565b6008546040805160208082018a905260f089901b7fffff000000000000000000000000000000000000000000000000000000000000168284015260b888901b7fffffffffffffffffff00000000000000000000000000000000000000000000001660428301528251602b818403018152604b83018085528151918301919091207f572943f700000000000000000000000000000000000000000000000000000000909152604f83018b905261ffff8a16606f840152925173ffffffffffffffffffffffffffffffffffffffff90941693600092859263572943f792608f808401938290030181865afa1580156141f9573d6000803e3d6000fd5b505050506040513d601f19601f8201168201806040525081019061421d9190614e85565b6006546040517fb67b6e1e0000000000000000000000000000000000000000000000000000000081526004810183905291925073ffffffffffffffffffffffffffffffffffffffff9081169160009186169063b67b6e1e90602401602060405180830381865afa158015614295573d6000803e3d6000fd5b505050506040513d601f19601f820116820180604052508101906142b99190614e6a565b905060008273ffffffffffffffffffffffffffffffffffffffff16638d73d86a6040518163ffffffff1660e01b8152600401602060405180830381865afa158015614308573d6000803e3d6000fd5b505050506040513d601f19601f8201168201806040525081019061432c9190615373565b905060005b6040517f5c6c1fef0000000000000000000000000000000000000000000000000000000081526004810186905273ffffffffffffffffffffffffffffffffffffffff881690635c6c1fef90602401602060405180830381865afa15801561439c573d6000803e3d6000fd5b505050506040513d601f19601f820116820180604052508101906143c09190615242565b64ffffffffff168864ffffffffff161080156143e6575068ffffffffffffffffff831615155b80156143fa57508163ffffffff168160ff16105b156145365760408051602081018f90527fffff00000000000000000000000000000000000000000000000000000000000060f08f901b16918101919091527fffffffffffffffffff000000000000000000000000000000000000000000000060b885901b166042820152604b01604080518083037fffffffffffffffffffffffffffffffffffffffffffffffffffffffffffffffe00181529082905280516020909101207fb67b6e1e00000000000000000000000000000000000000000000000000000000825260048201819052955073ffffffffffffffffffffffffffffffffffffffff88169063b67b6e1e90602401602060405180830381865afa158015614508573d6000803e3d6000fd5b505050506040513d601f19601f8201168201806040525081019061452c9190614e6a565b9250600101614331565b8163ffffffff168160ff16106145a8576040517f08c379a000000000000000000000000000000000000000000000000000000000815260206004820152601860248201527f4e6f64652072616e6b2073686f756c64206265203c20523000000000000000006044820152606401610735565b6040517fcf57ca2f0000000000000000000000000000000000000000000000000000000081526004810187905268ffffffffffffffffff808d166024830152808c1660448301528a16606482015264ffffffffff8916608482015273ffffffffffffffffffffffffffffffffffffffff88169063cf57ca2f9060a401600060405180830381600087803b15801561463e57600080fd5b505af1158015614652573d6000803e3d6000fd5b50506040517f88f7a9b4000000000000000000000000000000000000000000000000000000008152600481018890526000925073ffffffffffffffffffffffffffffffffffffffff8a1691506388f7a9b490602401608060405180830381865afa1580156146c4573d6000803e3d6000fd5b505050506040513d601f19601f820116820180604052508101906146e891906154ce565b90508160ff1660000361479b576040517f88f6df56000000000000000000000000000000000000000000000000000000008152600481018f905261ffff8e1660248201526044810188905273ffffffffffffffffffffffffffffffffffffffff8916906388f6df5690606401600060405180830381600087803b15801561476e57600080fd5b505af1158015614782573d6000803e3d6000fd5b505050506147968e8e8e8460000151614978565b6147e5565b806060015164ffffffffff168964ffffffffff1611156147d5576147c58e8e83602001518f614978565b6147968e8e8e8460000151614978565b6147e58e8e83600001518f614978565b5050505050505050505050505050565b6000546040517f8d5d2d8500000000000000000000000000000000000000000000000000000000815233600482015273ffffffffffffffffffffffffffffffffffffffff90911690638d5d2d8590602401602060405180830381865afa158015614863573d6000803e3d6000fd5b505050506040513d601f19601f820116820180604052508101906148879190615292565b6148ed576040517f08c379a000000000000000000000000000000000000000000000000000000000815260206004820152601f60248201527f466e2063616e206f6e6c792062652063616c6c656420627920617373657473006044820152606401610735565b565b6000826148fc8584614bed565b14949350505050565b604080514260208201527fffffffffffffffffffffffffffffffffffffffff000000000000000000000000606085901b169181019190915243605482015260009060ff8316906074016040516020818303038152906040528051906020012060001c6149719190614f50565b9392505050565b60085460408051602081018790527fffff00000000000000000000000000000000000000000000000000000000000060f087901b16918101919091527fffffffffffffffffff000000000000000000000000000000000000000000000060b885901b16604282015273ffffffffffffffffffffffffffffffffffffffff909116908190638a0f01b590604b01604080517fffffffffffffffffffffffffffffffffffffffffffffffffffffffffffffffe08184030181529082905280516020909101207fffffffff0000000000000000000000000000000000000000000000000000000060e084901b168252600482015268ffffffffffffffffff85166024820152604401600060405180830381600087803b158015614a9757600080fd5b505af1158015614aab573d6000803e3d6000fd5b505050508073ffffffffffffffffffffffffffffffffffffffff1663e184b9e8868685604051602001614b3b9392919092835260f09190911b7fffff00000000000000000000000000000000000000000000000000000000000016602083015260b81b7fffffffffffffffffff0000000000000000000000000000000000000000000000166022820152602b0190565b604080517fffffffffffffffffffffffffffffffffffffffffffffffffffffffffffffffe08184030181529082905280516020909101207fffffffff0000000000000000000000000000000000000000000000000000000060e084901b168252600482015268ffffffffffffffffff86166024820152604401600060405180830381600087803b158015614bce57600080fd5b505af1158015614be2573d6000803e3d6000fd5b505050505050505050565b600081815b8451811015614c3257614c1e82868381518110614c1157614c1161554b565b6020026020010151614c3a565b915080614c2a81615746565b915050614bf2565b509392505050565b6000818310614c56576000828152602084905260409020614971565b6000838152602083905260409020614971565b803573ffffffffffffffffffffffffffffffffffffffff81168114614c8d57600080fd5b919050565b61ffff81168114614ca257600080fd5b50565b60008060008060808587031215614cbb57600080fd5b614cc485614c69565b9350614cd260208601614c69565b9250604085013591506060850135614ce981614c92565b939692955090935050565b600060208284031215614d0657600080fd5b813567ffffffffffffffff811115614d1d57600080fd5b820160a0818503121561497157600080fd5b600060208284031215614d4157600080fd5b813567ffffffffffffffff811115614d5857600080fd5b8201610100818503121561497157600080fd5b600060208284031215614d7d57600080fd5b813567ffffffffffffffff811115614d9457600080fd5b820160e0818503121561497157600080fd5b60008060408385031215614db957600080fd5b823591506020830135614dcb81614c92565b809150509250929050565b602080825282518282018190526000919060409081850190868401855b82811015614e44578151805168ffffffffffffffffff90811686528782015181168887015286820151168686015260609081015164ffffffffff169085015260809093019290850190600101614df3565b5091979650505050505050565b805168ffffffffffffffffff81168114614c8d57600080fd5b600060208284031215614e7c57600080fd5b61497182614e51565b600060208284031215614e9757600080fd5b5051919050565b6bffffffffffffffffffffffff81168114614ca257600080fd5b600060208284031215614eca57600080fd5b815161497181614e9e565b60005b83811015614ef0578181015183820152602001614ed8565b83811115614eff576000848401525b50505050565b60008251614f17818460208701614ed5565b9190910192915050565b7f4e487b7100000000000000000000000000000000000000000000000000000000600052601260045260246000fd5b600082614f5f57614f5f614f21565b500690565b600060208284031215614f7657600080fd5b61497182614c69565b60008083357fffffffffffffffffffffffffffffffffffffffffffffffffffffffffffffffe1843603018112614fb457600080fd5b83018035915067ffffffffffffffff821115614fcf57600080fd5b602001915036819003821315614fe457600080fd5b9250929050565b60ff81168114614ca257600080fd5b60006020828403121561500c57600080fd5b813561497181614feb565b60006020828403121561502957600080fd5b813561497181614c92565b60006020828403121561504657600080fd5b815161497181614feb565b7f4e487b7100000000000000000000000000000000000000000000000000000000600052604160045260246000fd5b60006020828403121561509257600080fd5b815167ffffffffffffffff808211156150aa57600080fd5b818401915084601f8301126150be57600080fd5b8151818111156150d0576150d0615051565b604051601f82017fffffffffffffffffffffffffffffffffffffffffffffffffffffffffffffffe0908116603f0116810190838211818310171561511657615116615051565b8160405282815287602084870101111561512f57600080fd5b61342d836020830160208801614ed5565b60008151808452615158816020860160208601614ed5565b601f017fffffffffffffffffffffffffffffffffffffffffffffffffffffffffffffffe0169290920160200192915050565b8183528181602085013750600060208284010152600060207fffffffffffffffffffffffffffffffffffffffffffffffffffffffffffffffe0601f840116840101905092915050565b60ff8716815260ff8616602082015260a0604082015260006151f860a0830187615140565b828103606084015261520b81868861518a565b9150506bffffffffffffffffffffffff83166080830152979650505050505050565b805164ffffffffff81168114614c8d57600080fd5b60006020828403121561525457600080fd5b6149718261522d565b60608152600061527160608301868861518a565b905060ff8416602083015264ffffffffff8316604083015295945050505050565b6000602082840312156152a457600080fd5b8151801515811461497157600080fd5b6000602082840312156152c657600080fd5b813561497181614e9e565b7f4e487b7100000000000000000000000000000000000000000000000000000000600052601160045260246000fd5b60006bffffffffffffffffffffffff83811690831681811015615325576153256152d1565b039392505050565b60808152600061534160808301878961518a565b60ff9590951660208301525061ffff9290921660408301526bffffffffffffffffffffffff1660609091015292915050565b60006020828403121561538557600080fd5b815163ffffffff8116811461497157600080fd5b60008083357fffffffffffffffffffffffffffffffffffffffffffffffffffffffffffffffe18436030181126153ce57600080fd5b83018035915067ffffffffffffffff8211156153e957600080fd5b6020019150600581901b3603821315614fe457600080fd5b60408152600061541560408301858761518a565b905060ff83166020830152949350505050565b600063ffffffff83811690831681811015615325576153256152d1565b60006020828403121561545757600080fd5b815161497181614c92565b600061ffff83811690831681811015615325576153256152d1565b600061ffff80831681851680830382111561549a5761549a6152d1565b01949350505050565b60006bffffffffffffffffffffffff808416806154c2576154c2614f21565b92169190910492915050565b6000608082840312156154e057600080fd5b6040516080810181811067ffffffffffffffff8211171561550357615503615051565b60405261550f83614e51565b815261551d60208401614e51565b602082015261552e60408401614e51565b604082015261553f6060840161522d565b60608201529392505050565b7f4e487b7100000000000000000000000000000000000000000000000000000000600052603260045260246000fd5b60006020828403121561558c57600080fd5b81516fffffffffffffffffffffffffffffffff8116811461497157600080fd5b60006fffffffffffffffffffffffffffffffff808316818516818304811182151516156155db576155db6152d1565b02949350505050565b60006fffffffffffffffffffffffffffffffff808416806154c2576154c2614f21565b6000821982111561561a5761561a6152d1565b500190565b8183823760009101908152919050565b600060ff821660ff841680821015615649576156496152d1565b90039392505050565b600060ff821660ff84168060ff0382111561566f5761566f6152d1565b019392505050565b60c08152600061568b60c08301898b61518a565b60ff97909716602083015250604081019490945261ffff9290921660608401526fffffffffffffffffffffffffffffffff1660808301526bffffffffffffffffffffffff1660a09091015292915050565b7fffffffffffffffffffffffffffffffffffffffff0000000000000000000000008560601b16815283601482015281836034830137600091016034019081529392505050565b60ff8316815260406020820152600061573e6040830184615140565b949350505050565b60007fffffffffffffffffffffffffffffffffffffffffffffffffffffffffffffffff8203615777576157776152d1565b506001019056fea264697066735822122099c25091c06e1772539e67c6c9d843b6dc236fbbab11d2547323321f24f53d8564736f6c634300080e0033",
  "immutableReferences": {},
  "source": "// SPDX-License-Identifier: MIT\n\npragma solidity ^0.8.0;\n\nimport { HashingProxy } from \"./HashingProxy.sol\";\nimport { Hub } from \"./Hub.sol\";\nimport { ScoringProxy } from \"./ScoringProxy.sol\";\nimport { Staking } from \"./Staking.sol\";\nimport { AbstractAsset } from \"./assets/AbstractAsset.sol\";\nimport { AssertionStorage } from \"./storage/AssertionStorage.sol\";\nimport { IdentityStorage } from \"./storage/IdentityStorage.sol\";\nimport { ParametersStorage } from \"./storage/ParametersStorage.sol\";\nimport { ProfileStorage } from \"./storage/ProfileStorage.sol\";\nimport { ServiceAgreementStorageV1 } from \"./storage/ServiceAgreementStorageV1.sol\";\nimport { StakingStorage } from \"./storage/StakingStorage.sol\";\nimport { ServiceAgreementStructsV1 } from \"./structs/ServiceAgreementStructsV1.sol\";\nimport { IERC20 } from \"@openzeppelin/contracts/token/ERC20/IERC20.sol\";\nimport { MerkleProof } from \"@openzeppelin/contracts/utils/cryptography/MerkleProof.sol\";\n\ncontract ServiceAgreementV1 {\n\n    event ServiceAgreementCreated(\n        address indexed assetContract,\n        uint256 indexed tokenId,\n        bytes keyword,\n        uint8 hashFunctionId,\n        uint256 startTime,\n        uint16 epochsNumber,\n        uint128 epochLength,\n        uint96 tokenAmount\n    );\n    event ServiceAgreementUpdated(\n        address indexed assetContract,\n        uint256 indexed tokenId,\n        bytes keyword,\n        uint8 hashFunctionId,\n        uint16 epochsNumber,\n        uint96 tokenAmount\n    );\n    event CommitSubmitted(\n        address indexed assetContract,\n        uint256 indexed tokenId,\n        bytes keyword,\n        uint8 hashFunctionId,\n        uint72 indexed identityId,\n        uint40 score\n    );\n    event ProofSubmitted(\n        address indexed assetContract,\n        uint256 indexed tokenId,\n        bytes keyword,\n        uint8 hashFunctionId,\n        uint72 indexed identityId\n    );\n\n    Hub public hub;\n    HashingProxy public hashingProxy;\n    ScoringProxy public scoringProxy;\n    Staking public stakingContract;\n    AssertionStorage public assertionStorage;\n    IdentityStorage public identityStorage;\n    ParametersStorage public parametersStorage;\n    ProfileStorage public profileStorage;\n    ServiceAgreementStorageV1 public serviceAgreementStorage;\n    StakingStorage public stakingStorage;\n    IERC20 public tokenContract;\n\n    constructor (address hubAddress) {\n        require(hubAddress != address(0));\n\n        hub = Hub(hubAddress);\n        hashingProxy = HashingProxy(hub.getContractAddress(\"HashingProxy\"));\n        scoringProxy = ScoringProxy(hub.getContractAddress(\"ScoringProxy\"));\n        stakingContract = Staking(hub.getContractAddress(\"Staking\"));\n        assertionStorage = AssertionStorage(hub.getContractAddress(\"AssertionStorage\"));\n        identityStorage = IdentityStorage(hub.getContractAddress(\"IdentityStorage\"));\n        parametersStorage = ParametersStorage(hub.getContractAddress(\"ParametersStorage\"));\n        profileStorage = ProfileStorage(hub.getContractAddress(\"ProfileStorage\"));\n        serviceAgreementStorage = ServiceAgreementStorageV1(hub.getContractAddress(\"ServiceAgreementStorage\"));\n        stakingStorage = StakingStorage(hub.getContractAddress(\"StakingStorage\"));\n        tokenContract = IERC20(hub.getContractAddress(\"Token\"));\n    }\n\n    modifier onlyAssetContracts() {\n        _checkAssetContract();\n        _;\n    }\n\n    function createServiceAgreement(ServiceAgreementStructsV1.ServiceAgreementInputArgs calldata args)\n        external\n        onlyAssetContracts\n    {\n        require(args.assetCreator != address(0), \"Asset creator cannot be 0x0\");\n        require(hub.isAssetContract(args.assetContract), \"Asset Contract not in the hub\");\n        require(keccak256(args.keyword) != keccak256(\"\"), \"Keyword can't be empty\");\n        require(args.epochsNumber != 0, \"Epochs number cannot be 0\");\n        require(args.tokenAmount != 0, \"Token amount cannot be 0\");\n        require(scoringProxy.isScoreFunction(args.scoreFunctionId), \"Score function doesn't exist\");\n\n        bytes32 agreementId = _generateAgreementId(args.assetContract, args.tokenId, args.keyword, args.hashFunctionId);\n\n        ServiceAgreementStorageV1 sas = serviceAgreementStorage;\n        ParametersStorage params = parametersStorage;\n\n        sas.createServiceAgreementObject(\n            agreementId,\n            args.epochsNumber,\n            params.epochLength(),\n            args.tokenAmount,\n            args.scoreFunctionId,\n            params.minProofWindowOffsetPerc() + _generatePseudorandomUint8(\n                args.assetCreator,\n                params.maxProofWindowOffsetPerc() - params.minProofWindowOffsetPerc() + 1\n            )\n        );\n\n        IERC20 tknc = tokenContract;\n        require(\n            tknc.allowance(args.assetCreator, address(sas)) >= args.tokenAmount,\n            \"Sender allowance must >= amount\"\n        );\n        require(tknc.balanceOf(args.assetCreator) >= args.tokenAmount, \"Sender balance must be >= amount\");\n\n        tknc.transferFrom(args.assetCreator, address(sas), args.tokenAmount);\n\n        emit ServiceAgreementCreated(\n            args.assetContract,\n            args.tokenId,\n            args.keyword,\n            args.hashFunctionId,\n            block.timestamp,\n            args.epochsNumber,\n            params.epochLength(),\n            args.tokenAmount\n        );\n    }\n\n    // TODO: Split into smaller functions [update only epochsNumber / tokenAmount / scoreFunctionId etc.]\n    function updateServiceAgreement(ServiceAgreementStructsV1.ServiceAgreementInputArgs calldata args)\n        external\n        onlyAssetContracts\n    {\n        bytes32 agreementId = _generateAgreementId(args.assetContract, args.tokenId, args.keyword, args.hashFunctionId);\n        ServiceAgreementStorageV1 sas = serviceAgreementStorage;\n\n        require(args.assetCreator != address(0), \"Asset creator cannot be 0x0\");\n        require(sas.serviceAgreementExists(agreementId), \"Service Agreement doesn't exist\");\n        require(args.epochsNumber != 0, \"Epochs number cannot be 0\");\n        require(args.tokenAmount != 0, \"Token amount cannot be 0\");\n        require(scoringProxy.isScoreFunction(args.scoreFunctionId), \"Score function doesn't exist\");\n\n        uint96 actualRewardAmount = sas.getAgreementTokenAmount(agreementId);\n\n        sas.setAgreementEpochsNumber(agreementId, args.epochsNumber);\n        sas.setAgreementTokenAmount(agreementId, args.tokenAmount);\n        sas.setAgreementScoreFunctionId(agreementId, args.scoreFunctionId);\n\n        IERC20 tknc = tokenContract;\n\n        require(\n            tknc.allowance(args.assetCreator, address(sas)) >= (args.tokenAmount - actualRewardAmount),\n            \"Sender allowance must be >= amount\"\n        );\n        require(\n            tknc.balanceOf(args.assetCreator) >= (args.tokenAmount - actualRewardAmount),\n            \"Sender balance must be >= amount\"\n        );\n\n        tknc.transferFrom(args.assetCreator, address(sas), args.tokenAmount - actualRewardAmount);\n\n        emit ServiceAgreementUpdated(\n            args.assetContract,\n            args.tokenId,\n            args.keyword,\n            args.hashFunctionId,\n            args.epochsNumber,\n            args.tokenAmount\n        );\n    }\n\n    function isCommitWindowOpen(bytes32 agreementId, uint16 epoch)\n        public\n        view\n        returns (bool)\n    {\n        ServiceAgreementStorageV1 sas = serviceAgreementStorage;\n        uint256 startTime = sas.getAgreementStartTime(agreementId);\n\n        require(startTime != 0, \"Service Agreement doesn't exist\");\n        require(epoch < sas.getAgreementEpochsNumber(agreementId), \"Service Agreement has been expired\");\n\n        ParametersStorage params = parametersStorage;\n        uint256 timeNow = block.timestamp;\n\n        if (epoch == 0) {\n            return timeNow < (startTime + params.commitWindowDuration());\n        }\n\n        return (\n            timeNow > (\n                startTime\n                + sas.getAgreementEpochLength(agreementId) * epoch\n            ) && timeNow < (\n                startTime\n                + sas.getAgreementEpochLength(agreementId) * epoch\n                + params.commitWindowDuration()\n            )\n        );\n    }\n\n    function getTopCommitSubmissions(bytes32 agreementId, uint16 epoch)\n        external\n        view\n        returns (ServiceAgreementStructsV1.CommitSubmission[] memory)\n    {\n        ServiceAgreementStorageV1 sas = serviceAgreementStorage;\n\n        require(sas.serviceAgreementExists(agreementId), \"Service Agreement doesn't exist\");\n        require(epoch < sas.getAgreementEpochsNumber(agreementId), \"Service Agreement expired\");\n\n        ServiceAgreementStructsV1.CommitSubmission[] memory epochCommits =\n            new ServiceAgreementStructsV1.CommitSubmission[](parametersStorage.R0());\n\n        bytes32 epochSubmissionsHead = sas.getAgreementEpochSubmissionHead(agreementId, epoch);\n\n        epochCommits[0] = sas.getCommitSubmission(epochSubmissionsHead);\n\n        bytes32 commitId;\n        uint72 nextIdentityId = epochCommits[0].nextIdentityId;\n        uint8 submissionsIdx = 1;\n        while(nextIdentityId != 0) {\n            commitId = keccak256(abi.encodePacked(agreementId, epoch, nextIdentityId));\n            epochCommits[submissionsIdx] = sas.getCommitSubmission(commitId);\n\n            nextIdentityId = epochCommits[submissionsIdx].nextIdentityId;\n\n            unchecked { submissionsIdx++; }\n        }\n\n        return epochCommits;\n    }\n\n    function submitCommit(ServiceAgreementStructsV1.CommitInputArgs calldata args) external {\n        bytes32 agreementId = _generateAgreementId(args.assetContract, args.tokenId, args.keyword, args.hashFunctionId);\n\n        require(isCommitWindowOpen(agreementId, args.epoch), \"Commit window is closed!\");\n\n        uint72 identityId = identityStorage.getIdentityId(msg.sender);\n\n        uint40 score = scoringProxy.callScoreFunction(\n            serviceAgreementStorage.getAgreementScoreFunctionId(agreementId),\n            args.hashFunctionId,\n            profileStorage.getNodeId(identityId),\n            args.keyword,\n            stakingStorage.totalStakes(identityId)\n        );\n\n        _insertCommit(\n            agreementId,\n            args.epoch,\n            identityId,\n            0,\n            0,\n            score\n        );\n\n        emit CommitSubmitted(\n            args.assetContract,\n            args.tokenId,\n            args.keyword,\n            args.hashFunctionId,\n            identityId,\n            score\n        );\n    }\n\n    function isProofWindowOpen(bytes32 agreementId, uint16 epoch)\n        public\n        view\n        returns (bool)\n    {\n        ServiceAgreementStorageV1 sas = serviceAgreementStorage;\n        uint256 startTime = sas.getAgreementStartTime(agreementId);\n\n        require(startTime != 0, \"Service Agreement doesn't exist\");\n        require(epoch < sas.getAgreementEpochsNumber(agreementId), \"Service Agreement expired\");\n\n        uint256 timeNow = block.timestamp;\n        uint128 epochLength = sas.getAgreementEpochLength(agreementId);\n        uint16 epochsNumber = sas.getAgreementEpochsNumber(agreementId);\n        uint8 proofWindowOffsetPerc = sas.getAgreementProofWindowOffsetPerc(agreementId);\n\n        uint256 proofWindowOffset = epochLength * epochsNumber * proofWindowOffsetPerc / 100;\n        uint256 proofWindowDuration = (\n            epochLength * epochsNumber * parametersStorage.proofWindowDurationPerc() / 100\n        );\n\n        return (\n            timeNow > (startTime + epochLength * epoch + proofWindowOffset) &&\n            timeNow < (startTime + epochLength * epoch + proofWindowOffset + proofWindowDuration)\n        );\n    }\n\n    function getChallenge(address sender, address assetContract, uint256 tokenId, uint16 epoch)\n        public\n        view\n        returns (bytes32, uint256)\n    {\n        uint72 identityId = identityStorage.getIdentityId(sender);\n\n        AbstractAsset generalAssetInterface = AbstractAsset(assetContract);\n        bytes32 assertionId = generalAssetInterface.getLatestAssertionId(tokenId);\n\n        uint256 assertionChunksNumber = assertionStorage.getAssertionChunksNumber(assertionId);\n\n        // blockchash() function only works for last 256 blocks (25.6 min window in case of 6s block time)\n        // TODO: figure out how to achieve randomness\n        return (\n            assertionId,\n            uint256(\n                sha256(abi.encodePacked(epoch, identityId))\n            ) % assertionChunksNumber\n        );\n    }\n\n    function sendProof(ServiceAgreementStructsV1.ProofInputArgs calldata args) external {\n        bytes32 agreementId = _generateAgreementId(args.assetContract, args.tokenId, args.keyword, args.hashFunctionId);\n\n        require(!isProofWindowOpen(agreementId, args.epoch), \"Proof window is open\");\n\n        IdentityStorage ids = identityStorage;\n\n        uint72 identityId = ids.getIdentityId(msg.sender);\n\n        ServiceAgreementStorageV1 sas = serviceAgreementStorage;\n\n        require(\n            sas.getCommitSubmissionScore(keccak256(abi.encodePacked(agreementId, args.epoch, identityId))) != 0,\n            \"You've been already rewarded\"\n        );\n\n        bytes32 nextCommitId = sas.getAgreementEpochSubmissionHead(agreementId, args.epoch);\n        uint32 r0 = parametersStorage.R0();\n        uint8 i;\n        while ((identityId != sas.getCommitSubmissionsIdentityId(nextCommitId)) && i < r0) {\n            nextCommitId = keccak256(\n                abi.encodePacked(agreementId, args.epoch, sas.getCommitSubmissionNextIdentityId(nextCommitId))\n            );\n            unchecked { i++; }\n        }\n\n        require(i < r0, \"Your node hasn't been awarded for this asset in this epoch\");\n\n        bytes32 merkleRoot;\n        uint256 challenge;\n        (merkleRoot, challenge) = getChallenge(msg.sender, args.assetContract, args.tokenId, args.epoch);\n\n        require(\n            MerkleProof.verify(args.proof, merkleRoot, keccak256(abi.encodePacked(args.chunkHash, challenge))),\n            \"Root hash doesn't match\"\n        );\n\n        emit ProofSubmitted(\n            args.assetContract,\n            args.tokenId,\n            args.keyword,\n            args.hashFunctionId,\n            identityId\n        );\n\n        uint96 reward = (\n            sas.getAgreementTokenAmount(agreementId) /\n            (sas.getAgreementEpochsNumber(agreementId) - args.epoch + 1) /\n            (r0 - sas.getAgreementRewardedNodesNumber(agreementId, args.epoch))\n        );\n\n        stakingContract.addReward(identityId, reward);\n        sas.setAgreementTokenAmount(agreementId, sas.getAgreementTokenAmount(agreementId) - reward);\n        sas.incrementAgreementRewardedNodesNumber(agreementId, args.epoch);\n\n        // To make sure that node already received reward\n        sas.setCommitSubmissionScore(keccak256(abi.encodePacked(agreementId, args.epoch, identityId)), 0);\n    }\n\n    function _insertCommit(\n        bytes32 agreementId,\n        uint16 epoch,\n        uint72 identityId,\n        uint72 prevIdentityId,\n        uint72 nextIdentityId,\n        uint40 score\n    )\n        private\n    {\n        ServiceAgreementStorageV1 sas = serviceAgreementStorage;\n\n        bytes32 commitId = keccak256(abi.encodePacked(agreementId, epoch, identityId));\n        bytes32 refCommitId = sas.getAgreementEpochSubmissionHead(agreementId, epoch);\n\n        ParametersStorage params = parametersStorage;\n\n        uint72 refCommitNextIdentityId = sas.getCommitSubmissionNextIdentityId(refCommitId);\n        uint32 r0 = params.R0();\n        uint8 i;\n        while (\n            (score <  sas.getCommitSubmissionScore(refCommitId)) &&\n            (refCommitNextIdentityId != 0) &&\n            (i < r0)\n        ) {\n            refCommitId = keccak256(\n                abi.encodePacked(agreementId, epoch, refCommitNextIdentityId)\n            );\n            refCommitNextIdentityId = sas.getCommitSubmissionNextIdentityId(refCommitId);\n            unchecked { i++; }\n        }\n\n        require(i < r0, \"Node rank should be < R0\");\n\n        sas.createCommitSubmissionObject(commitId, identityId, prevIdentityId, nextIdentityId, score);\n\n        ServiceAgreementStructsV1.CommitSubmission memory refCommit = sas.getCommitSubmission(refCommitId);\n\n        // Replacing head\n        if (i == 0) {\n            sas.setAgreementEpochSubmissionHead(agreementId, epoch, commitId);\n\n            // [] - empty pointer\n            // [OH] - old head\n            // [NH] - new head\n            // [C] - commit\n            // (NL) - new link\n            // [] <-> [NH] <-(NL)-> [OH] <-> [C] ... [C] <-> []\n            _link_commits(agreementId, epoch, identityId, refCommit.identityId);\n        } else if (score > refCommit.score) {\n            // [H] - head\n            // [RC] - reference commit\n            // [RC-] - commit before reference commit\n            // [RC+] - commit after reference commit\n            // [NC] - new commit\n            // [] <-> [H] <-> [X] ... [RC-] <-> [RC] <-> [RC+] ... [C] <-> []\n            // [] <-> [H] <-> [X] ... [RC-] <-(NL)-> [NC] <-(NL)-> [RC] <-> [RC+] ... [C] <-> []\n            _link_commits(agreementId, epoch, refCommit.prevIdentityId, identityId);\n            _link_commits(agreementId, epoch, identityId, refCommit.identityId);\n        } else {\n            // [] <-> [H] <-> [RC] <-> []\n            // [] <-> [H] <-> [RC] <-(NL)-> [NC] <-> []\n            _link_commits(agreementId, epoch, refCommit.identityId, identityId);\n        }\n    }\n\n    function _link_commits(bytes32 agreementId, uint16 epoch, uint72 leftIdentityId, uint72 rightIdentityId) private {\n        ServiceAgreementStorageV1 sas = serviceAgreementStorage;\n\n        sas.setCommitSubmissionNextIdentityId(\n            keccak256(abi.encodePacked(agreementId, epoch, leftIdentityId)),  // leftCommitId\n            rightIdentityId\n        );\n\n        sas.setCommitSubmissionPrevIdentityId(\n            keccak256(abi.encodePacked(agreementId, epoch, rightIdentityId)),  // rightCommitId\n            leftIdentityId\n        );\n    }\n\n    function _generateAgreementId(address assetContract, uint256 tokenId, bytes calldata keyword, uint8 hashFunctionId)\n        private\n        returns (bytes32)\n    {\n        return hashingProxy.callHashFunction(hashFunctionId, abi.encodePacked(assetContract, tokenId, keyword));\n    }\n\n    function _generatePseudorandomUint8(address sender, uint8 limit) private view returns (uint8) {\n        return uint8(uint256(keccak256(abi.encodePacked(block.timestamp, sender, block.number))) % limit);\n    }\n\n    function _checkAssetContract() internal view virtual {\n        require (hub.isAssetContract(msg.sender), \"Fn can only be called by assets\");\n    }\n\n}\n",
  "sourcePath": "/Users/waving/Desktop/OriginTrail/dkg-evm-module/contracts/ServiceAgreementV1.sol",
  "compiler": {
    "name": "solc",
    "version": "0.8.14+commit.80d49f37.Emscripten.clang"
  },
  "schemaVersion": "3.4.10",
  "updatedAt": "2022-12-02T11:59:36.446Z",
  "devdoc": {
    "kind": "dev",
    "methods": {},
    "version": 1
  },
  "userdoc": {
    "kind": "user",
    "methods": {},
    "version": 1
  }
}