{
  "contractName": "ServiceAgreementStorageV1",
  "abi": [
    {
      "inputs": [
        {
          "internalType": "address",
          "name": "hubAddress",
          "type": "address"
        }
      ],
      "stateMutability": "nonpayable",
      "type": "constructor"
    },
    {
      "inputs": [],
      "name": "hub",
      "outputs": [
        {
          "internalType": "contract Hub",
          "name": "",
          "type": "address"
        }
      ],
      "stateMutability": "view",
      "type": "function"
    },
    {
      "inputs": [],
      "name": "tokenContract",
      "outputs": [
        {
          "internalType": "contract IERC20",
          "name": "",
          "type": "address"
        }
      ],
      "stateMutability": "view",
      "type": "function"
    },
    {
      "inputs": [],
      "name": "initialize",
      "outputs": [],
      "stateMutability": "nonpayable",
      "type": "function"
    },
    {
      "inputs": [],
      "name": "name",
      "outputs": [
        {
          "internalType": "string",
          "name": "",
          "type": "string"
        }
      ],
      "stateMutability": "pure",
      "type": "function"
    },
    {
      "inputs": [],
      "name": "version",
      "outputs": [
        {
          "internalType": "string",
          "name": "",
          "type": "string"
        }
      ],
      "stateMutability": "pure",
      "type": "function"
    },
    {
      "inputs": [
        {
          "internalType": "bytes32",
          "name": "agreementId",
          "type": "bytes32"
        },
        {
          "internalType": "uint16",
          "name": "epochsNumber",
          "type": "uint16"
        },
        {
          "internalType": "uint128",
          "name": "epochLength",
          "type": "uint128"
        },
        {
          "internalType": "uint96",
          "name": "tokenAmount",
          "type": "uint96"
        },
        {
          "internalType": "uint8",
          "name": "scoreFunctionId",
          "type": "uint8"
        },
        {
          "internalType": "uint8",
          "name": "proofWindowOffsetPerc",
          "type": "uint8"
        }
      ],
      "name": "createServiceAgreementObject",
      "outputs": [],
      "stateMutability": "nonpayable",
      "type": "function"
    },
    {
      "inputs": [
        {
          "internalType": "bytes32",
          "name": "agreementId",
          "type": "bytes32"
        }
      ],
      "name": "getAgreementData",
      "outputs": [
        {
          "internalType": "uint256",
          "name": "",
          "type": "uint256"
        },
        {
          "internalType": "uint16",
          "name": "",
          "type": "uint16"
        },
        {
          "internalType": "uint128",
          "name": "",
          "type": "uint128"
        },
        {
          "internalType": "uint96",
          "name": "",
          "type": "uint96"
        },
        {
          "internalType": "uint8[2]",
          "name": "",
          "type": "uint8[2]"
        }
      ],
      "stateMutability": "view",
      "type": "function"
    },
    {
      "inputs": [
        {
          "internalType": "bytes32",
          "name": "agreementId",
          "type": "bytes32"
        }
      ],
      "name": "getAgreementStartTime",
      "outputs": [
        {
          "internalType": "uint256",
          "name": "",
          "type": "uint256"
        }
      ],
      "stateMutability": "view",
      "type": "function"
    },
    {
      "inputs": [
        {
          "internalType": "bytes32",
          "name": "agreementId",
          "type": "bytes32"
        },
        {
          "internalType": "uint256",
          "name": "startTime",
          "type": "uint256"
        }
      ],
      "name": "setAgreementStartTime",
      "outputs": [],
      "stateMutability": "nonpayable",
      "type": "function"
    },
    {
      "inputs": [
        {
          "internalType": "bytes32",
          "name": "agreementId",
          "type": "bytes32"
        }
      ],
      "name": "getAgreementEpochsNumber",
      "outputs": [
        {
          "internalType": "uint16",
          "name": "",
          "type": "uint16"
        }
      ],
      "stateMutability": "view",
      "type": "function"
    },
    {
      "inputs": [
        {
          "internalType": "bytes32",
          "name": "agreementId",
          "type": "bytes32"
        },
        {
          "internalType": "uint16",
          "name": "epochsNumber",
          "type": "uint16"
        }
      ],
      "name": "setAgreementEpochsNumber",
      "outputs": [],
      "stateMutability": "nonpayable",
      "type": "function"
    },
    {
      "inputs": [
        {
          "internalType": "bytes32",
          "name": "agreementId",
          "type": "bytes32"
        }
      ],
      "name": "getAgreementEpochLength",
      "outputs": [
        {
          "internalType": "uint128",
          "name": "",
          "type": "uint128"
        }
      ],
      "stateMutability": "view",
      "type": "function"
    },
    {
      "inputs": [
        {
          "internalType": "bytes32",
          "name": "agreementId",
          "type": "bytes32"
        },
        {
          "internalType": "uint128",
          "name": "epochLength",
          "type": "uint128"
        }
      ],
      "name": "setAgreementEpochLength",
      "outputs": [],
      "stateMutability": "nonpayable",
      "type": "function"
    },
    {
      "inputs": [
        {
          "internalType": "bytes32",
          "name": "agreementId",
          "type": "bytes32"
        }
      ],
      "name": "getAgreementTokenAmount",
      "outputs": [
        {
          "internalType": "uint96",
          "name": "",
          "type": "uint96"
        }
      ],
      "stateMutability": "view",
      "type": "function"
    },
    {
      "inputs": [
        {
          "internalType": "bytes32",
          "name": "agreementId",
          "type": "bytes32"
        },
        {
          "internalType": "uint96",
          "name": "tokenAmount",
          "type": "uint96"
        }
      ],
      "name": "setAgreementTokenAmount",
      "outputs": [],
      "stateMutability": "nonpayable",
      "type": "function"
    },
    {
      "inputs": [
        {
          "internalType": "bytes32",
          "name": "agreementId",
          "type": "bytes32"
        }
      ],
      "name": "getAgreementScoreFunctionId",
      "outputs": [
        {
          "internalType": "uint8",
          "name": "",
          "type": "uint8"
        }
      ],
      "stateMutability": "view",
      "type": "function"
    },
    {
      "inputs": [
        {
          "internalType": "bytes32",
          "name": "agreementId",
          "type": "bytes32"
        },
        {
          "internalType": "uint8",
          "name": "newScoreFunctionId",
          "type": "uint8"
        }
      ],
      "name": "setAgreementScoreFunctionId",
      "outputs": [],
      "stateMutability": "nonpayable",
      "type": "function"
    },
    {
      "inputs": [
        {
          "internalType": "bytes32",
          "name": "agreementId",
          "type": "bytes32"
        }
      ],
      "name": "getAgreementProofWindowOffsetPerc",
      "outputs": [
        {
          "internalType": "uint8",
          "name": "",
          "type": "uint8"
        }
      ],
      "stateMutability": "view",
      "type": "function"
    },
    {
      "inputs": [
        {
          "internalType": "bytes32",
          "name": "agreementId",
          "type": "bytes32"
        },
        {
          "internalType": "uint8",
          "name": "proofWindowOffsetPerc",
          "type": "uint8"
        }
      ],
      "name": "setAgreementProofWindowOffsetPerc",
      "outputs": [],
      "stateMutability": "nonpayable",
      "type": "function"
    },
    {
      "inputs": [
        {
          "internalType": "bytes32",
          "name": "agreementId",
          "type": "bytes32"
        },
        {
          "internalType": "uint16",
          "name": "epoch",
          "type": "uint16"
        }
      ],
      "name": "getAgreementEpochSubmissionHead",
      "outputs": [
        {
          "internalType": "bytes32",
          "name": "",
          "type": "bytes32"
        }
      ],
      "stateMutability": "view",
      "type": "function"
    },
    {
      "inputs": [
        {
          "internalType": "bytes32",
          "name": "agreementId",
          "type": "bytes32"
        },
        {
          "internalType": "uint16",
          "name": "epoch",
          "type": "uint16"
        },
        {
          "internalType": "bytes32",
          "name": "headCommitId",
          "type": "bytes32"
        }
      ],
      "name": "setAgreementEpochSubmissionHead",
      "outputs": [],
      "stateMutability": "nonpayable",
      "type": "function"
    },
    {
      "inputs": [
        {
          "internalType": "bytes32",
          "name": "agreementId",
          "type": "bytes32"
        },
        {
          "internalType": "uint16",
          "name": "epoch",
          "type": "uint16"
        }
      ],
      "name": "incrementAgreementRewardedNodesNumber",
      "outputs": [],
      "stateMutability": "nonpayable",
      "type": "function"
    },
    {
      "inputs": [
        {
          "internalType": "bytes32",
          "name": "agreementId",
          "type": "bytes32"
        },
        {
          "internalType": "uint16",
          "name": "epoch",
          "type": "uint16"
        }
      ],
      "name": "decrementAgreementRewardedNodesNumber",
      "outputs": [],
      "stateMutability": "nonpayable",
      "type": "function"
    },
    {
      "inputs": [
        {
          "internalType": "bytes32",
          "name": "agreementId",
          "type": "bytes32"
        },
        {
          "internalType": "uint16",
          "name": "epoch",
          "type": "uint16"
        }
      ],
      "name": "getAgreementRewardedNodesNumber",
      "outputs": [
        {
          "internalType": "uint32",
          "name": "",
          "type": "uint32"
        }
      ],
      "stateMutability": "view",
      "type": "function"
    },
    {
      "inputs": [
        {
          "internalType": "bytes32",
          "name": "agreementId",
          "type": "bytes32"
        },
        {
          "internalType": "uint16",
          "name": "epoch",
          "type": "uint16"
        },
        {
          "internalType": "uint32",
          "name": "rewardedNodesNumber",
          "type": "uint32"
        }
      ],
      "name": "setAgreementRewardedNodesNumber",
      "outputs": [],
      "stateMutability": "nonpayable",
      "type": "function"
    },
    {
      "inputs": [
        {
          "internalType": "bytes32",
          "name": "agreementId",
          "type": "bytes32"
        }
      ],
      "name": "serviceAgreementExists",
      "outputs": [
        {
          "internalType": "bool",
          "name": "",
          "type": "bool"
        }
      ],
      "stateMutability": "view",
      "type": "function"
    },
    {
      "inputs": [
        {
          "internalType": "bytes32",
          "name": "commitId",
          "type": "bytes32"
        },
        {
          "internalType": "uint72",
          "name": "identityId",
          "type": "uint72"
        },
        {
          "internalType": "uint72",
          "name": "prevIdentityId",
          "type": "uint72"
        },
        {
          "internalType": "uint72",
          "name": "nextIdentityId",
          "type": "uint72"
        },
        {
          "internalType": "uint40",
          "name": "score",
          "type": "uint40"
        }
      ],
      "name": "createCommitSubmissionObject",
      "outputs": [],
      "stateMutability": "nonpayable",
      "type": "function"
    },
    {
      "inputs": [
        {
          "internalType": "bytes32",
          "name": "commitId",
          "type": "bytes32"
        }
      ],
      "name": "getCommitSubmission",
      "outputs": [
        {
          "components": [
            {
              "internalType": "uint72",
              "name": "identityId",
              "type": "uint72"
            },
            {
              "internalType": "uint72",
              "name": "prevIdentityId",
              "type": "uint72"
            },
            {
              "internalType": "uint72",
              "name": "nextIdentityId",
              "type": "uint72"
            },
            {
              "internalType": "uint40",
              "name": "score",
              "type": "uint40"
            }
          ],
          "internalType": "struct ServiceAgreementStructsV1.CommitSubmission",
          "name": "",
          "type": "tuple"
        }
      ],
      "stateMutability": "view",
      "type": "function"
    },
    {
      "inputs": [
        {
          "internalType": "bytes32",
          "name": "commitId",
          "type": "bytes32"
        }
      ],
      "name": "getCommitSubmissionIdentityId",
      "outputs": [
        {
          "internalType": "uint72",
          "name": "",
          "type": "uint72"
        }
      ],
      "stateMutability": "view",
      "type": "function"
    },
    {
      "inputs": [
        {
          "internalType": "bytes32",
          "name": "commitId",
          "type": "bytes32"
        },
        {
          "internalType": "uint72",
          "name": "identityId",
          "type": "uint72"
        }
      ],
      "name": "setCommitSubmissionIdentityId",
      "outputs": [],
      "stateMutability": "nonpayable",
      "type": "function"
    },
    {
      "inputs": [
        {
          "internalType": "bytes32",
          "name": "commitId",
          "type": "bytes32"
        }
      ],
      "name": "getCommitSubmissionPrevIdentityId",
      "outputs": [
        {
          "internalType": "uint72",
          "name": "",
          "type": "uint72"
        }
      ],
      "stateMutability": "view",
      "type": "function"
    },
    {
      "inputs": [
        {
          "internalType": "bytes32",
          "name": "commitId",
          "type": "bytes32"
        },
        {
          "internalType": "uint72",
          "name": "prevIdentityId",
          "type": "uint72"
        }
      ],
      "name": "setCommitSubmissionPrevIdentityId",
      "outputs": [],
      "stateMutability": "nonpayable",
      "type": "function"
    },
    {
      "inputs": [
        {
          "internalType": "bytes32",
          "name": "commitId",
          "type": "bytes32"
        }
      ],
      "name": "getCommitSubmissionNextIdentityId",
      "outputs": [
        {
          "internalType": "uint72",
          "name": "",
          "type": "uint72"
        }
      ],
      "stateMutability": "view",
      "type": "function"
    },
    {
      "inputs": [
        {
          "internalType": "bytes32",
          "name": "commitId",
          "type": "bytes32"
        },
        {
          "internalType": "uint72",
          "name": "nextIdentityId",
          "type": "uint72"
        }
      ],
      "name": "setCommitSubmissionNextIdentityId",
      "outputs": [],
      "stateMutability": "nonpayable",
      "type": "function"
    },
    {
      "inputs": [
        {
          "internalType": "bytes32",
          "name": "commitId",
          "type": "bytes32"
        }
      ],
      "name": "getCommitSubmissionScore",
      "outputs": [
        {
          "internalType": "uint40",
          "name": "",
          "type": "uint40"
        }
      ],
      "stateMutability": "view",
      "type": "function"
    },
    {
      "inputs": [
        {
          "internalType": "bytes32",
          "name": "commitId",
          "type": "bytes32"
        },
        {
          "internalType": "uint40",
          "name": "score",
          "type": "uint40"
        }
      ],
      "name": "setCommitSubmissionScore",
      "outputs": [],
      "stateMutability": "nonpayable",
      "type": "function"
    },
    {
      "inputs": [
        {
          "internalType": "bytes32",
          "name": "commitId",
          "type": "bytes32"
        }
      ],
      "name": "commitSubmissionExists",
      "outputs": [
        {
          "internalType": "bool",
          "name": "",
          "type": "bool"
        }
      ],
      "stateMutability": "view",
      "type": "function"
    },
    {
      "inputs": [
        {
          "internalType": "address",
          "name": "receiver",
          "type": "address"
        },
        {
          "internalType": "uint96",
          "name": "rewardAmount",
          "type": "uint96"
        }
      ],
      "name": "transferReward",
      "outputs": [],
      "stateMutability": "nonpayable",
      "type": "function"
    }
  ],
  "bytecode": "0x60806040523480156200001157600080fd5b506040516200176b3803806200176b833981016040819052620000349162000204565b6001600160a01b0381166200004857600080fd5b600080546001600160a01b0319166001600160a01b0383161790556200006d62000074565b5062000236565b6200007e62000125565b600054604051630110ceef60e21b81526020600482015260056024820152642a37b5b2b760d91b60448201526001600160a01b03909116906304433bbc90606401602060405180830381865afa158015620000dd573d6000803e3d6000fd5b505050506040513d601f19601f8201168201806040525081019062000103919062000204565b600180546001600160a01b0319166001600160a01b0392909216919091179055565b60008054906101000a90046001600160a01b03166001600160a01b0316638da5cb5b6040518163ffffffff1660e01b8152600401602060405180830381865afa15801562000177573d6000803e3d6000fd5b505050506040513d601f19601f820116820180604052508101906200019d919062000204565b6001600160a01b0316336001600160a01b031614620002025760405162461bcd60e51b815260206004820181905260248201527f466e2063616e206f6e6c79206265207573656420627920687562206f776e6572604482015260640160405180910390fd5b565b6000602082840312156200021757600080fd5b81516001600160a01b03811681146200022f57600080fd5b9392505050565b61152580620002466000396000f3fe608060405234801561001057600080fd5b50600436106102325760003560e01c806388f6df5611610130578063b67b6e1e116100b8578063cf57ca2f1161007c578063cf57ca2f146107d1578063d1a640c7146107e4578063d2692b311461081e578063e184b9e814610831578063e54b26ff1461084457600080fd5b8063b67b6e1e14610723578063beca40f314610753578063c45d174914610766578063cb327c7d14610791578063ce60dc61146107a457600080fd5b80639c70b3c0116100ff5780639c70b3c01461067b578063a63148961461069b578063ac64112e146106ae578063ac9d7cf4146106c1578063b2ffa9971461071057600080fd5b806388f6df561461053c57806388f7a9b41461054f5780638a0f01b51461062957806399149f771461063c57600080fd5b8063484a47e7116101be5780635c6c1fef116101825780635c6c1fef146104875780636441a276146104cb5780636ff015ae146104de5780638129fc1c1461050257806386e0cc881461050a57600080fd5b8063484a47e7146103b35780634c72fefc146103fd57806354fd4d501461041057806355a373d614610431578063572943f71461044457600080fd5b8063365a86fc11610205578063365a86fc146102e75780633c96f02b146103125780633d631716146103425780634089a17d146103555780634750b9f4146103a057600080fd5b8063038fed7314610237578063054fd4001461024c57806306fdde03146102925780630f3a549d146102d4575b600080fd5b61024a610245366004611073565b610857565b005b61027561025a366004611095565b6000908152600260205260409020546001600160481b031690565b6040516001600160481b0390911681526020015b60405180910390f35b60408051808201909152601981527f5365727669636541677265656d656e7453746f7261676556310000000000000060208201525b60405161028991906110ae565b61024a6102e2366004611113565b610871565b6000546102fa906001600160a01b031681565b6040516001600160a01b039091168152602001610289565b610275610320366004611095565b600090815260026020526040902054600160481b90046001600160481b031690565b61024a610350366004611154565b6108a0565b610388610363366004611095565b600090815260036020526040902060010154600160901b90046001600160601b031690565b6040516001600160601b039091168152602001610289565b61024a6103ae36600461118e565b6108db565b6103e56103c1366004611095565b6000908152600360205260409020600101546201000090046001600160801b031690565b6040516001600160801b039091168152602001610289565b61024a61040b3660046111f0565b610913565b6040805180820190915260058152640312e302e360dc1b60208201526102c7565b6001546102fa906001600160a01b031681565b610479610452366004611113565b600082815260036020908152604080832061ffff8516845260020190915290205492915050565b604051908152602001610289565b6104b5610495366004611095565b600090815260026020526040902054600160d81b900464ffffffffff1690565b60405164ffffffffff9091168152602001610289565b61024a6104d936600461125d565b6109b5565b6104f16104ec366004611095565b6109ed565b604051610289959493929190611280565b61024a610a6f565b61052c610518366004611095565b600090815260036020526040902054151590565b6040519015158152602001610289565b61024a61054a3660046112ea565b610b1b565b6105e261055d366004611095565b60408051608081018252600080825260208201819052918101829052606081019190915250600090815260026020908152604091829020825160808101845290546001600160481b038082168352600160481b8204811693830193909352600160901b810490921692810192909252600160d81b900464ffffffffff16606082015290565b6040805182516001600160481b03908116825260208085015182169083015283830151169181019190915260609182015164ffffffffff1691810191909152608001610289565b61024a61063736600461118e565b610b48565b61066961064a366004611095565b600090815260036020526040902060010154600160f81b900460ff1690565b60405160ff9091168152602001610289565b610479610689366004611095565b60009081526003602052604090205490565b61024a6106a936600461131f565b610b8b565b61024a6106bc36600461125d565b610bd6565b6106fb6106cf366004611113565b600082815260036020818152604080842061ffff86168552909201905290205463ffffffff1692915050565b60405163ffffffff9091168152602001610289565b61024a61071e366004611113565b610c10565b610275610731366004611095565b600090815260026020526040902054600160901b90046001600160481b031690565b61024a610761366004611113565b610c6c565b61052c610774366004611095565b6000908152600260205260409020546001600160481b0316151590565b61024a61079f366004611342565b610ca5565b6106696107b2366004611095565b600090815260036020526040902060010154600160f01b900460ff1690565b61024a6107df36600461138b565b610ce8565b61080b6107f2366004611095565b60009081526003602052604090206001015461ffff1690565b60405161ffff9091168152602001610289565b61024a61082c366004611401565b610da3565b61024a61083f36600461118e565b610e2f565b61024a61085236600461142d565b610e78565b61085f610ec1565b60009182526003602052604090912055565b610879610ec1565b600091825260036020526040909120600101805461ffff191661ffff909216919091179055565b6108a8610ec1565b600091825260026020526040909120805464ffffffffff909216600160d81b026001600160d81b03909216919091179055565b6108e3610ec1565b600091825260026020526040909120805468ffffffffffffffffff19166001600160481b03909216919091179055565b61091b610ec1565b600095865260036020526040909520428155600101805460ff968716600160f81b026001600160f81b0397909316600160f01b0260ff60f01b196001600160601b03909516600160901b02949094166cffffffffffffffffffffffffff60901b196001600160801b0390961662010000026001600160901b031990921661ffff909716969096171793909316939093171792909216179055565b6109bd610ec1565b600091825260036020526040909120600101805460ff909216600160f01b0260ff60f01b19909216919091179055565b6000806000806109fb611055565b505050600083815260036020818152604080842080546001909101548251808401909352600160f01b810460ff908116845298909552928252600160f81b8404909616908601529461ffff8216946201000083046001600160801b03169450600160901b9092046001600160601b03169250565b610a77610f80565b600054604051630110ceef60e21b81526020600482015260056024820152642a37b5b2b760d91b60448201526001600160a01b03909116906304433bbc90606401602060405180830381865afa158015610ad5573d6000803e3d6000fd5b505050506040513d601f19601f82011682018060405250810190610af99190611450565b600180546001600160a01b0319166001600160a01b0392909216919091179055565b610b23610ec1565b600092835260036020908152604080852061ffff909416855260029093019052912055565b610b50610ec1565b60009182526002602052604090912080546001600160481b03909216600160901b0268ffffffffffffffffff60901b19909216919091179055565b610b93610ec1565b60009182526003602052604090912060010180546001600160801b03909216620100000271ffffffffffffffffffffffffffffffff000019909216919091179055565b610bde610ec1565b600091825260036020526040909120600101805460ff909216600160f81b026001600160f81b03909216919091179055565b610c18610ec1565b600082815260036020818152604080842061ffff8616855290920190528120805463ffffffff1691610c498361148a565b91906101000a81548163ffffffff021916908363ffffffff160217905550505050565b610c74610ec1565b600082815260036020818152604080842061ffff8616855290920190528120805463ffffffff1691610c49836114aa565b610cad610ec1565b600092835260036020818152604080862061ffff9590951686529390910190529120805463ffffffff191663ffffffff909216919091179055565b610cf0610ec1565b604080516080810182526001600160481b039586168152938516602080860191825293861685830190815264ffffffffff938416606087019081526000988952600290955291909620935184549651915193519086166001600160901b031990971696909617600160481b918616919091021771ffffffffffffffffffffffffffffffffffff16600160901b92909416919091026001600160d81b031692909217600160d81b9390921692909202179055565b610dab610ec1565b60015460405163a9059cbb60e01b81526001600160a01b0384811660048301526001600160601b03841660248301529091169063a9059cbb906044016020604051808303816000875af1158015610e06573d6000803e3d6000fd5b505050506040513d601f19601f82011682018060405250810190610e2a91906114cd565b505050565b610e37610ec1565b60009182526002602052604090912080546001600160481b03909216600160481b0271ffffffffffffffffff00000000000000000019909216919091179055565b610e80610ec1565b60009182526003602052604090912060010180546001600160601b03909216600160901b026bffffffffffffffffffffffff60901b19909216919091179055565b600054604051631627905560e01b81523360048201526001600160a01b0390911690631627905590602401602060405180830381865afa158015610f09573d6000803e3d6000fd5b505050506040513d601f19601f82011682018060405250810190610f2d91906114cd565b610f7e5760405162461bcd60e51b815260206004820181905260248201527f466e2063616e206f6e6c792062652063616c6c6564206279207468652068756260448201526064015b60405180910390fd5b565b60008054906101000a90046001600160a01b03166001600160a01b0316638da5cb5b6040518163ffffffff1660e01b8152600401602060405180830381865afa158015610fd1573d6000803e3d6000fd5b505050506040513d601f19601f82011682018060405250810190610ff59190611450565b6001600160a01b0316336001600160a01b031614610f7e5760405162461bcd60e51b815260206004820181905260248201527f466e2063616e206f6e6c79206265207573656420627920687562206f776e65726044820152606401610f75565b60405180604001604052806002906020820280368337509192915050565b6000806040838503121561108657600080fd5b50508035926020909101359150565b6000602082840312156110a757600080fd5b5035919050565b600060208083528351808285015260005b818110156110db578581018301518582016040015282016110bf565b506000604082860101526040601f19601f8301168501019250505092915050565b803561ffff8116811461110e57600080fd5b919050565b6000806040838503121561112657600080fd5b82359150611136602084016110fc565b90509250929050565b803564ffffffffff8116811461110e57600080fd5b6000806040838503121561116757600080fd5b823591506111366020840161113f565b80356001600160481b038116811461110e57600080fd5b600080604083850312156111a157600080fd5b8235915061113660208401611177565b80356001600160801b038116811461110e57600080fd5b80356001600160601b038116811461110e57600080fd5b803560ff8116811461110e57600080fd5b60008060008060008060c0878903121561120957600080fd5b86359550611219602088016110fc565b9450611227604088016111b1565b9350611235606088016111c8565b9250611243608088016111df565b915061125160a088016111df565b90509295509295509295565b6000806040838503121561127057600080fd5b82359150611136602084016111df565b600060c082019050868252602061ffff8716818401526001600160801b03861660408401526001600160601b0385166060840152608083018460005b60028110156112dc57815160ff16835291830191908301906001016112bc565b505050509695505050505050565b6000806000606084860312156112ff57600080fd5b8335925061130f602085016110fc565b9150604084013590509250925092565b6000806040838503121561133257600080fd5b82359150611136602084016111b1565b60008060006060848603121561135757600080fd5b83359250611367602085016110fc565b9150604084013563ffffffff8116811461138057600080fd5b809150509250925092565b600080600080600060a086880312156113a357600080fd5b853594506113b360208701611177565b93506113c160408701611177565b92506113cf60608701611177565b91506113dd6080870161113f565b90509295509295909350565b6001600160a01b03811681146113fe57600080fd5b50565b6000806040838503121561141457600080fd5b823561141f816113e9565b9150611136602084016111c8565b6000806040838503121561144057600080fd5b82359150611136602084016111c8565b60006020828403121561146257600080fd5b815161146d816113e9565b9392505050565b634e487b7160e01b600052601160045260246000fd5b600063ffffffff8216806114a0576114a0611474565b6000190192915050565b600063ffffffff8083168181036114c3576114c3611474565b6001019392505050565b6000602082840312156114df57600080fd5b8151801515811461146d57600080fdfea264697066735822122031ab77ad750d1c47a86daeaf3ec846d5c2573ded41a54f8a3c36072c390e6a0864736f6c63430008100033",
  "immutableReferences": {},
  "source": "// SPDX-License-Identifier: MIT\n\npragma solidity ^0.8.4;\n\nimport { Hub } from \"../Hub.sol\";\nimport { Named } from \"../interface/Named.sol\";\nimport { Versioned } from \"../interface/Versioned.sol\";\nimport { ServiceAgreementStructsV1 } from \"../structs/ServiceAgreementStructsV1.sol\";\nimport { IERC20 } from \"@openzeppelin/contracts/token/ERC20/IERC20.sol\";\n\ncontract ServiceAgreementStorageV1 is Named, Versioned {\n\n    string constant private _NAME = \"ServiceAgreementStorageV1\";\n    string constant private _VERSION = \"1.0.0\";\n\n    Hub public hub;\n    IERC20 public tokenContract;\n\n    // CommitId [keccak256(agreementId + epoch + identityId)] => CommitSubmission\n    mapping(bytes32 => ServiceAgreementStructsV1.CommitSubmission) commitSubmissions;\n\n    // AgreementId [hash(asset type contract + tokenId + key)] => ServiceAgreement\n    mapping(bytes32 => ServiceAgreementStructsV1.ServiceAgreement) serviceAgreements;\n\n    constructor (address hubAddress) {\n        require(hubAddress != address(0));\n\n        hub = Hub(hubAddress);\n        initialize();\n    }\n\n    function initialize() public onlyHubOwner {\n        tokenContract = IERC20(hub.getContractAddress(\"Token\"));\n    }\n\n    modifier onlyHubOwner() {\n        _checkHubOwner();\n        _;\n    }\n\n    modifier onlyContracts() {\n        _checkHub();\n        _;\n    }\n\n    function name() external pure virtual override returns (string memory) {\n        return _NAME;\n    }\n\n    function version() external pure virtual override returns (string memory) {\n        return _VERSION;\n    }\n\n    function createServiceAgreementObject(\n        bytes32 agreementId,\n        uint16 epochsNumber,\n        uint128 epochLength,\n        uint96 tokenAmount,\n        uint8 scoreFunctionId,\n        uint8 proofWindowOffsetPerc\n    )\n        external\n        onlyContracts\n    {\n        ServiceAgreementStructsV1.ServiceAgreement storage agreement = serviceAgreements[agreementId];\n        agreement.startTime = block.timestamp;\n        agreement.epochsNumber = epochsNumber;\n        agreement.epochLength = epochLength;\n        agreement.tokenAmount = tokenAmount;\n        agreement.scoreFunctionId = scoreFunctionId;\n        agreement.proofWindowOffsetPerc = proofWindowOffsetPerc;\n    }\n\n    function getAgreementData(bytes32 agreementId)\n        external\n        view\n        returns (uint256, uint16, uint128, uint96, uint8[2] memory)\n    {\n        return (\n            serviceAgreements[agreementId].startTime,\n            serviceAgreements[agreementId].epochsNumber,\n            serviceAgreements[agreementId].epochLength,\n            serviceAgreements[agreementId].tokenAmount,\n            [\n                serviceAgreements[agreementId].scoreFunctionId,\n                serviceAgreements[agreementId].proofWindowOffsetPerc\n            ]\n        );\n    }\n\n    function getAgreementStartTime(bytes32 agreementId) external view returns (uint256) {\n        return serviceAgreements[agreementId].startTime;\n    }\n\n    function setAgreementStartTime(bytes32 agreementId, uint256 startTime) external onlyContracts {\n        serviceAgreements[agreementId].startTime = startTime;\n    }\n\n    function getAgreementEpochsNumber(bytes32 agreementId) external view returns (uint16) {\n        return serviceAgreements[agreementId].epochsNumber;\n    }\n\n    function setAgreementEpochsNumber(bytes32 agreementId, uint16 epochsNumber) external onlyContracts {\n        serviceAgreements[agreementId].epochsNumber = epochsNumber;\n    }\n\n    function getAgreementEpochLength(bytes32 agreementId) external view returns (uint128) {\n        return serviceAgreements[agreementId].epochLength;\n    }\n\n    function setAgreementEpochLength(bytes32 agreementId, uint128 epochLength) external onlyContracts {\n        serviceAgreements[agreementId].epochLength = epochLength;\n    }\n\n    function getAgreementTokenAmount(bytes32 agreementId) external view returns (uint96) {\n        return serviceAgreements[agreementId].tokenAmount;\n    }\n\n    function setAgreementTokenAmount(bytes32 agreementId, uint96 tokenAmount) external onlyContracts {\n        serviceAgreements[agreementId].tokenAmount = tokenAmount;\n    }\n\n    function getAgreementScoreFunctionId(bytes32 agreementId) external view returns (uint8) {\n        return serviceAgreements[agreementId].scoreFunctionId;\n    }\n\n    function setAgreementScoreFunctionId(bytes32 agreementId, uint8 newScoreFunctionId) external onlyContracts {\n        serviceAgreements[agreementId].scoreFunctionId = newScoreFunctionId;\n    }\n\n    function getAgreementProofWindowOffsetPerc(bytes32 agreementId) external view returns (uint8) {\n        return serviceAgreements[agreementId].proofWindowOffsetPerc;\n    }\n\n    function setAgreementProofWindowOffsetPerc(bytes32 agreementId, uint8 proofWindowOffsetPerc)\n        external\n        onlyContracts\n    {\n        serviceAgreements[agreementId].proofWindowOffsetPerc = proofWindowOffsetPerc;\n    }\n\n    function getAgreementEpochSubmissionHead(bytes32 agreementId, uint16 epoch) external view returns (bytes32) {\n        return serviceAgreements[agreementId].epochSubmissionHeads[epoch];\n    }\n\n    function setAgreementEpochSubmissionHead(bytes32 agreementId, uint16 epoch, bytes32 headCommitId)\n        external\n        onlyContracts\n    {\n        serviceAgreements[agreementId].epochSubmissionHeads[epoch] = headCommitId;\n    }\n\n    function incrementAgreementRewardedNodesNumber(bytes32 agreementId, uint16 epoch) external onlyContracts {\n        serviceAgreements[agreementId].rewardedNodesNumber[epoch]++;\n    }\n\n    function decrementAgreementRewardedNodesNumber(bytes32 agreementId, uint16 epoch) external onlyContracts {\n        serviceAgreements[agreementId].rewardedNodesNumber[epoch]--;\n    }\n\n    function getAgreementRewardedNodesNumber(bytes32 agreementId, uint16 epoch) external view returns (uint32) {\n        return serviceAgreements[agreementId].rewardedNodesNumber[epoch];\n    }\n\n    function setAgreementRewardedNodesNumber(bytes32 agreementId, uint16 epoch, uint32 rewardedNodesNumber)\n        external\n        onlyContracts\n    {\n        serviceAgreements[agreementId].rewardedNodesNumber[epoch] = rewardedNodesNumber;\n    }\n\n    function serviceAgreementExists(bytes32 agreementId) external view returns (bool) {\n        return serviceAgreements[agreementId].startTime != 0;\n    }\n\n    function createCommitSubmissionObject(\n        bytes32 commitId,\n        uint72 identityId,\n        uint72 prevIdentityId,\n        uint72 nextIdentityId,\n        uint40 score\n    )\n        external\n        onlyContracts\n    {\n        commitSubmissions[commitId] = ServiceAgreementStructsV1.CommitSubmission({\n            identityId: identityId,\n            prevIdentityId: prevIdentityId,\n            nextIdentityId: nextIdentityId,\n            score: score\n        });\n    }\n\n    function getCommitSubmission(bytes32 commitId)\n        external\n        view\n        returns (ServiceAgreementStructsV1.CommitSubmission memory)\n    {\n        return commitSubmissions[commitId];\n    }\n\n    function getCommitSubmissionIdentityId(bytes32 commitId) external view returns (uint72) {\n        return commitSubmissions[commitId].identityId;\n    }\n\n    function setCommitSubmissionIdentityId(bytes32 commitId, uint72 identityId) external onlyContracts {\n        commitSubmissions[commitId].identityId = identityId;\n    }\n\n    function getCommitSubmissionPrevIdentityId(bytes32 commitId) external view returns (uint72) {\n        return commitSubmissions[commitId].prevIdentityId;\n    }\n\n    function setCommitSubmissionPrevIdentityId(bytes32 commitId, uint72 prevIdentityId) external onlyContracts {\n        commitSubmissions[commitId].prevIdentityId = prevIdentityId;\n    }\n\n    function getCommitSubmissionNextIdentityId(bytes32 commitId) external view returns (uint72) {\n        return commitSubmissions[commitId].nextIdentityId;\n    }\n\n    function setCommitSubmissionNextIdentityId(bytes32 commitId, uint72 nextIdentityId) external onlyContracts {\n        commitSubmissions[commitId].nextIdentityId = nextIdentityId;\n    }\n\n    function getCommitSubmissionScore(bytes32 commitId) external view returns (uint40) {\n        return commitSubmissions[commitId].score;\n    }\n\n    function setCommitSubmissionScore(bytes32 commitId, uint40 score) external onlyContracts {\n        commitSubmissions[commitId].score = score;\n    }\n\n    function commitSubmissionExists(bytes32 commitId) external view returns (bool) {\n        return commitSubmissions[commitId].identityId != 0;\n    }\n\n    function transferReward(address receiver, uint96 rewardAmount) external onlyContracts {\n        tokenContract.transfer(receiver, rewardAmount);\n    }\n\n    function _checkHubOwner() internal view virtual {\n        require(msg.sender == hub.owner(), \"Fn can only be used by hub owner\");\n    }\n\n    function _checkHub() internal view virtual {\n        require(hub.isContract(msg.sender), \"Fn can only be called by the hub\");\n    }\n\n}\n",
  "sourcePath": "/Users/waving/Desktop/OriginTrail/dkg-evm-module/contracts/storage/ServiceAgreementStorageV1.sol",
  "compiler": {
    "name": "solc",
    "version": "0.8.16+commit.07a7930e.Emscripten.clang"
  },
  "schemaVersion": "3.4.10",
  "updatedAt": "2022-12-08T16:40:13.616Z",
  "devdoc": {
    "kind": "dev",
    "methods": {},
    "version": 1
  },
  "userdoc": {
    "kind": "user",
    "methods": {},
    "version": 1
  }
}