{
  "contractName": "ServiceAgreementStorage",
  "abi": [
    {
      "inputs": [
        {
          "internalType": "address",
          "name": "hubAddress",
          "type": "address"
        }
      ],
      "stateMutability": "nonpayable",
      "type": "constructor"
    },
    {
      "anonymous": false,
      "inputs": [
        {
          "indexed": false,
          "internalType": "address",
          "name": "assetContract",
          "type": "address"
        },
        {
          "indexed": false,
          "internalType": "uint256",
          "name": "tokenId",
          "type": "uint256"
        },
        {
          "indexed": true,
          "internalType": "bytes",
          "name": "keyword",
          "type": "bytes"
        },
        {
          "indexed": false,
          "internalType": "uint8",
          "name": "hashingFunctionId",
          "type": "uint8"
        },
        {
          "indexed": true,
          "internalType": "uint96",
          "name": "identityId",
          "type": "uint96"
        },
        {
          "indexed": true,
          "internalType": "bytes",
          "name": "nodeId",
          "type": "bytes"
        },
        {
          "indexed": false,
          "internalType": "uint32",
          "name": "score",
          "type": "uint32"
        }
      ],
      "name": "CommitSubmitted",
      "type": "event"
    },
    {
      "anonymous": false,
      "inputs": [
        {
          "indexed": false,
          "internalType": "address",
          "name": "assetContract",
          "type": "address"
        },
        {
          "indexed": false,
          "internalType": "uint256",
          "name": "tokenId",
          "type": "uint256"
        },
        {
          "indexed": true,
          "internalType": "bytes",
          "name": "keyword",
          "type": "bytes"
        },
        {
          "indexed": false,
          "internalType": "uint8",
          "name": "hashingFunctionId",
          "type": "uint8"
        },
        {
          "indexed": true,
          "internalType": "uint96",
          "name": "identityId",
          "type": "uint96"
        },
        {
          "indexed": true,
          "internalType": "bytes",
          "name": "nodeId",
          "type": "bytes"
        }
      ],
      "name": "ProofSubmitted",
      "type": "event"
    },
    {
      "anonymous": false,
      "inputs": [
        {
          "indexed": true,
          "internalType": "address",
          "name": "assetContract",
          "type": "address"
        },
        {
          "indexed": true,
          "internalType": "uint256",
          "name": "tokenId",
          "type": "uint256"
        },
        {
          "indexed": true,
          "internalType": "bytes",
          "name": "keyword",
          "type": "bytes"
        },
        {
          "indexed": false,
          "internalType": "uint8",
          "name": "hashingFunctionId",
          "type": "uint8"
        },
        {
          "indexed": false,
          "internalType": "uint256",
          "name": "startTime",
          "type": "uint256"
        },
        {
          "indexed": false,
          "internalType": "uint16",
          "name": "epochsNumber",
          "type": "uint16"
        },
        {
          "indexed": false,
          "internalType": "uint128",
          "name": "epochLength",
          "type": "uint128"
        },
        {
          "indexed": false,
          "internalType": "uint96",
          "name": "tokenAmount",
          "type": "uint96"
        }
      ],
      "name": "ServiceAgreementCreated",
      "type": "event"
    },
    {
      "anonymous": false,
      "inputs": [
        {
          "indexed": true,
          "internalType": "address",
          "name": "assetContract",
          "type": "address"
        },
        {
          "indexed": true,
          "internalType": "uint256",
          "name": "tokenId",
          "type": "uint256"
        },
        {
          "indexed": true,
          "internalType": "bytes",
          "name": "keyword",
          "type": "bytes"
        },
        {
          "indexed": false,
          "internalType": "uint8",
          "name": "hashingFunctionId",
          "type": "uint8"
        },
        {
          "indexed": false,
          "internalType": "uint16",
          "name": "epochsNumber",
          "type": "uint16"
        },
        {
          "indexed": false,
          "internalType": "uint96",
          "name": "tokenAmount",
          "type": "uint96"
        }
      ],
      "name": "ServiceAgreementUpdated",
      "type": "event"
    },
    {
      "inputs": [],
      "name": "hub",
      "outputs": [
        {
          "internalType": "contract Hub",
          "name": "",
          "type": "address"
        }
      ],
      "stateMutability": "view",
      "type": "function"
    },
    {
      "inputs": [
        {
          "internalType": "bytes32",
          "name": "agreementId",
          "type": "bytes32"
        }
      ],
      "name": "getAgreementStartTime",
      "outputs": [
        {
          "internalType": "uint256",
          "name": "",
          "type": "uint256"
        }
      ],
      "stateMutability": "view",
      "type": "function"
    },
    {
      "inputs": [
        {
          "internalType": "bytes32",
          "name": "agreementId",
          "type": "bytes32"
        }
      ],
      "name": "getAgreementEpochsNumber",
      "outputs": [
        {
          "internalType": "uint16",
          "name": "",
          "type": "uint16"
        }
      ],
      "stateMutability": "view",
      "type": "function"
    },
    {
      "inputs": [
        {
          "internalType": "bytes32",
          "name": "agreementId",
          "type": "bytes32"
        }
      ],
      "name": "getAgreementEpochLength",
      "outputs": [
        {
          "internalType": "uint128",
          "name": "",
          "type": "uint128"
        }
      ],
      "stateMutability": "view",
      "type": "function"
    },
    {
      "inputs": [
        {
          "internalType": "bytes32",
          "name": "agreementId",
          "type": "bytes32"
        }
      ],
      "name": "getAgreementTokenAmount",
      "outputs": [
        {
          "internalType": "uint96",
          "name": "",
          "type": "uint96"
        }
      ],
      "stateMutability": "view",
      "type": "function"
    },
    {
      "inputs": [
        {
          "internalType": "bytes32",
          "name": "agreementId",
          "type": "bytes32"
        }
      ],
      "name": "getAgreementScoringFunctionId",
      "outputs": [
        {
          "internalType": "uint8",
          "name": "",
          "type": "uint8"
        }
      ],
      "stateMutability": "view",
      "type": "function"
    },
    {
      "inputs": [
        {
          "internalType": "bytes32",
          "name": "agreementId",
          "type": "bytes32"
        }
      ],
      "name": "getAgreementProofWindowOffsetPerc",
      "outputs": [
        {
          "internalType": "uint8",
          "name": "",
          "type": "uint8"
        }
      ],
      "stateMutability": "view",
      "type": "function"
    },
    {
      "inputs": [
        {
          "internalType": "address",
          "name": "operationalWallet",
          "type": "address"
        },
        {
          "internalType": "address",
          "name": "assetContract",
          "type": "address"
        },
        {
          "internalType": "uint256",
          "name": "tokenId",
          "type": "uint256"
        },
        {
          "internalType": "bytes",
          "name": "keyword",
          "type": "bytes"
        },
        {
          "internalType": "uint8",
          "name": "hashingFunctionId",
          "type": "uint8"
        },
        {
          "internalType": "uint16",
          "name": "epochsNumber",
          "type": "uint16"
        },
        {
          "internalType": "uint96",
          "name": "tokenAmount",
          "type": "uint96"
        },
        {
          "internalType": "uint8",
          "name": "scoringFunctionId",
          "type": "uint8"
        }
      ],
      "name": "createServiceAgreement",
      "outputs": [],
      "stateMutability": "nonpayable",
      "type": "function"
    },
    {
      "inputs": [
        {
          "internalType": "address",
          "name": "operationalWallet",
          "type": "address"
        },
        {
          "internalType": "address",
          "name": "assetContract",
          "type": "address"
        },
        {
          "internalType": "uint256",
          "name": "tokenId",
          "type": "uint256"
        },
        {
          "internalType": "bytes",
          "name": "keyword",
          "type": "bytes"
        },
        {
          "internalType": "uint8",
          "name": "hashingFunctionId",
          "type": "uint8"
        },
        {
          "internalType": "uint16",
          "name": "epochsNumber",
          "type": "uint16"
        },
        {
          "internalType": "uint96",
          "name": "tokenAmount",
          "type": "uint96"
        }
      ],
      "name": "updateServiceAgreement",
      "outputs": [],
      "stateMutability": "nonpayable",
      "type": "function"
    },
    {
      "inputs": [
        {
          "internalType": "bytes32",
          "name": "agreementId",
          "type": "bytes32"
        },
        {
          "internalType": "uint16",
          "name": "epoch",
          "type": "uint16"
        }
      ],
      "name": "isCommitWindowOpen",
      "outputs": [
        {
          "internalType": "bool",
          "name": "",
          "type": "bool"
        }
      ],
      "stateMutability": "view",
      "type": "function"
    },
    {
      "inputs": [
        {
          "internalType": "bytes32",
          "name": "agreementId",
          "type": "bytes32"
        },
        {
          "internalType": "uint16",
          "name": "epoch",
          "type": "uint16"
        }
      ],
      "name": "getCommitSubmissions",
      "outputs": [
        {
          "components": [
            {
              "internalType": "uint96",
              "name": "identityId",
              "type": "uint96"
            },
            {
              "internalType": "uint96",
              "name": "nextIdentity",
              "type": "uint96"
            },
            {
              "internalType": "uint32",
              "name": "score",
              "type": "uint32"
            }
          ],
          "internalType": "struct ServiceAgreementStorage.CommitSubmission[]",
          "name": "",
          "type": "tuple[]"
        }
      ],
      "stateMutability": "view",
      "type": "function"
    },
    {
      "inputs": [
        {
          "internalType": "address",
          "name": "assetContract",
          "type": "address"
        },
        {
          "internalType": "uint256",
          "name": "tokenId",
          "type": "uint256"
        },
        {
          "internalType": "bytes",
          "name": "keyword",
          "type": "bytes"
        },
        {
          "internalType": "uint8",
          "name": "hashingFunctionId",
          "type": "uint8"
        },
        {
          "internalType": "uint16",
          "name": "epoch",
          "type": "uint16"
        },
        {
          "internalType": "uint96",
          "name": "prevIdentityId",
          "type": "uint96"
        }
      ],
      "name": "submitCommit",
      "outputs": [
        {
          "internalType": "uint256",
          "name": "",
          "type": "uint256"
        }
      ],
      "stateMutability": "nonpayable",
      "type": "function"
    },
    {
      "inputs": [
        {
          "internalType": "bytes32",
          "name": "agreementId",
          "type": "bytes32"
        },
        {
          "internalType": "uint16",
          "name": "epoch",
          "type": "uint16"
        }
      ],
      "name": "isProofWindowOpen",
      "outputs": [
        {
          "internalType": "bool",
          "name": "",
          "type": "bool"
        }
      ],
      "stateMutability": "view",
      "type": "function"
    },
    {
      "inputs": [
        {
          "internalType": "address",
          "name": "assetContract",
          "type": "address"
        },
        {
          "internalType": "uint256",
          "name": "tokenId",
          "type": "uint256"
        },
        {
          "internalType": "uint16",
          "name": "epoch",
          "type": "uint16"
        }
      ],
      "name": "getChallenge",
      "outputs": [
        {
          "internalType": "bytes32",
          "name": "",
          "type": "bytes32"
        },
        {
          "internalType": "uint256",
          "name": "",
          "type": "uint256"
        }
      ],
      "stateMutability": "view",
      "type": "function"
    },
    {
      "inputs": [
        {
          "internalType": "address",
          "name": "assetContract",
          "type": "address"
        },
        {
          "internalType": "uint256",
          "name": "tokenId",
          "type": "uint256"
        },
        {
          "internalType": "bytes",
          "name": "keyword",
          "type": "bytes"
        },
        {
          "internalType": "uint8",
          "name": "hashingFunctionId",
          "type": "uint8"
        },
        {
          "internalType": "uint16",
          "name": "epoch",
          "type": "uint16"
        },
        {
          "internalType": "bytes32[]",
          "name": "proof",
          "type": "bytes32[]"
        },
        {
          "internalType": "bytes32",
          "name": "chunkHash",
          "type": "bytes32"
        }
      ],
      "name": "sendProof",
      "outputs": [],
      "stateMutability": "nonpayable",
      "type": "function"
    },
    {
      "inputs": [
        {
          "internalType": "bytes32",
          "name": "agreementId",
          "type": "bytes32"
        },
        {
          "internalType": "uint8",
          "name": "newScoringFunctionId",
          "type": "uint8"
        }
      ],
      "name": "setScoringFunction",
      "outputs": [],
      "stateMutability": "nonpayable",
      "type": "function"
    }
  ],
  "bytecode": "0x60806040523480156200001157600080fd5b5060405162005d9738038062005d97833981810160405281019062000037919062000122565b600073ffffffffffffffffffffffffffffffffffffffff168173ffffffffffffffffffffffffffffffffffffffff16036200007157600080fd5b806000806101000a81548173ffffffffffffffffffffffffffffffffffffffff021916908373ffffffffffffffffffffffffffffffffffffffff1602179055505062000154565b600080fd5b600073ffffffffffffffffffffffffffffffffffffffff82169050919050565b6000620000ea82620000bd565b9050919050565b620000fc81620000dd565b81146200010857600080fd5b50565b6000815190506200011c81620000f1565b92915050565b6000602082840312156200013b576200013a620000b8565b5b60006200014b848285016200010b565b91505092915050565b615c3380620001646000396000f3fe608060405234801561001057600080fd5b50600436106101005760003560e01c806399149f7711610097578063be82c4e211610066578063be82c4e21461030c578063becdd59714610328578063d1a640c714610358578063fc348cb61461038857610100565b806399149f77146102605780639c70b3c014610290578063aa6a00fd146102c0578063b1f38350146102f057610100565b80634fb96d50116100d35780634fb96d50146101b45780635995639c146101e457806361f14ece1461021457806385e57f571461023057610100565b806332c2fbf114610105578063365a86fc146101365780634089a17d14610154578063484a47e714610184575b600080fd5b61011f600480360381019061011a9190613b78565b6103a4565b60405161012d929190613bf3565b60405180910390f35b61013e61077c565b60405161014b9190613c7b565b60405180910390f35b61016e60048036038101906101699190613cc2565b6107a0565b60405161017b9190613d16565b60405180910390f35b61019e60048036038101906101999190613cc2565b6107d8565b6040516101ab9190613d5c565b60405180910390f35b6101ce60048036038101906101c99190613d77565b610814565b6040516101db9190613ed6565b60405180910390f35b6101fe60048036038101906101f99190613cc2565b610c21565b60405161020b9190613f14565b60405180910390f35b61022e600480360381019061022991906140cd565b610c4e565b005b61024a6004803603810190610245919061418b565b61117c565b6040516102579190614234565b60405180910390f35b61027a60048036038101906102759190613cc2565b611840565b6040516102879190613f14565b60405180910390f35b6102aa60048036038101906102a59190613cc2565b61186d565b6040516102b79190614234565b60405180910390f35b6102da60048036038101906102d59190613d77565b61188d565b6040516102e7919061426a565b60405180910390f35b61030a60048036038101906103059190614285565b611b86565b005b610326600480360381019061032191906142c5565b611c92565b005b610342600480360381019061033d9190613d77565b61214f565b60405161034f919061426a565b60405180910390f35b610372600480360381019061036d9190613cc2565b61233f565b60405161037f91906143a6565b60405180910390f35b6103a2600480360381019061039d9190614489565b61236d565b005b60008060008060009054906101000a900473ffffffffffffffffffffffffffffffffffffffff1673ffffffffffffffffffffffffffffffffffffffff166304433bbc6040518163ffffffff1660e01b8152600401610401906145c0565b602060405180830381865afa15801561041e573d6000803e3d6000fd5b505050506040513d601f19601f8201168201806040525081019061044291906145f5565b905060008173ffffffffffffffffffffffffffffffffffffffff16637006045c6040518163ffffffff1660e01b8152600401602060405180830381865afa158015610491573d6000803e3d6000fd5b505050506040513d601f19601f820116820180604052508101906104b59190614637565b9050600087905060008173ffffffffffffffffffffffffffffffffffffffff1663469766668960018c73ffffffffffffffffffffffffffffffffffffffff16635a58db148d6040518263ffffffff1660e01b81526004016105169190614234565b602060405180830381865afa158015610533573d6000803e3d6000fd5b505050506040513d601f19601f820116820180604052508101906105579190614679565b61056191906146d5565b6040518363ffffffff1660e01b815260040161057e929190614709565b602060405180830381865afa15801561059b573d6000803e3d6000fd5b505050506040513d601f19601f820116820180604052508101906105bf9190614747565b905060008060009054906101000a900473ffffffffffffffffffffffffffffffffffffffff1673ffffffffffffffffffffffffffffffffffffffff166304433bbc6040518163ffffffff1660e01b815260040161061b906147c0565b602060405180830381865afa158015610638573d6000803e3d6000fd5b505050506040513d601f19601f8201168201806040525081019061065c91906145f5565b905060008173ffffffffffffffffffffffffffffffffffffffff1663ec82e3a7846040518263ffffffff1660e01b815260040161069991906147e0565b602060405180830381865afa1580156106b6573d6000803e3d6000fd5b505050506040513d601f19601f820116820180604052508101906106da9190614637565b6bffffffffffffffffffffffff169050828160028b88604051602001610701929190614867565b60405160208183030381529060405260405161071d919061490d565b602060405180830381855afa15801561073a573d6000803e3d6000fd5b5050506040513d601f19601f8201168201806040525081019061075d9190614747565b60001c61076a9190614953565b97509750505050505050935093915050565b60008054906101000a900473ffffffffffffffffffffffffffffffffffffffff1681565b60006002600083815260200190815260200160002060010160129054906101000a90046bffffffffffffffffffffffff169050919050565b60006002600083815260200190815260200160002060010160029054906101000a90046fffffffffffffffffffffffffffffffff169050919050565b606060008060009054906101000a900473ffffffffffffffffffffffffffffffffffffffff1673ffffffffffffffffffffffffffffffffffffffff166304433bbc6040518163ffffffff1660e01b8152600401610870906149d0565b602060405180830381865afa15801561088d573d6000803e3d6000fd5b505050506040513d601f19601f820116820180604052508101906108b191906145f5565b905060008173ffffffffffffffffffffffffffffffffffffffff1663fee2cb056040518163ffffffff1660e01b8152600401602060405180830381865afa158015610900573d6000803e3d6000fd5b505050506040513d601f19601f820116820180604052508101906109249190614a2e565b65ffffffffffff1667ffffffffffffffff81111561094557610944613f4a565b5b60405190808252806020026020018201604052801561097e57816020015b61096b613a53565b8152602001906001900390816109635790505b50905060006002600087815260200190815260200160002060020160008661ffff1661ffff1681526020019081526020016000205490506000600160008381526020019081526020016000206040518060600160405290816000820160009054906101000a90046bffffffffffffffffffffffff166bffffffffffffffffffffffff166bffffffffffffffffffffffff16815260200160008201600c9054906101000a90046bffffffffffffffffffffffff166bffffffffffffffffffffffff166bffffffffffffffffffffffff1681526020016000820160189054906101000a900463ffffffff1663ffffffff1663ffffffff1681525050838260ff1681518110610a8d57610a8c614a5b565b5b6020026020010181905250600060016000848152602001908152602001600020600001600c9054906101000a90046bffffffffffffffffffffffff1690505b6000816bffffffffffffffffffffffff1614610c13576000888883604051602001610af993929190614aab565b6040516020818303038152906040528051906020012090506000600160008381526020019081526020016000206040518060600160405290816000820160009054906101000a90046bffffffffffffffffffffffff166bffffffffffffffffffffffff166bffffffffffffffffffffffff16815260200160008201600c9054906101000a90046bffffffffffffffffffffffff166bffffffffffffffffffffffff166bffffffffffffffffffffffff1681526020016000820160189054906101000a900463ffffffff1663ffffffff1663ffffffff168152505090508380610be090614ae8565b94505080868560ff1681518110610bfa57610bf9614a5b565b5b6020026020010181905250806020015192505050610acc565b839550505050505092915050565b600060026000838152602001908152602001600020600101601e9054906101000a900460ff169050919050565b60008054906101000a900473ffffffffffffffffffffffffffffffffffffffff1673ffffffffffffffffffffffffffffffffffffffff16638d5d2d85336040518263ffffffff1660e01b8152600401610ca79190614b20565b602060405180830381865afa158015610cc4573d6000803e3d6000fd5b505050506040513d601f19601f82011682018060405250810190610ce89190614b67565b610d27576040517f08c379a0000000000000000000000000000000000000000000000000000000008152600401610d1e90614c06565b60405180910390fd5b6000610d3587878787612dfd565b905060006002600083815260200190815260200160002060010160129054906101000a90046bffffffffffffffffffffffff169050836002600084815260200190815260200160002060010160006101000a81548161ffff021916908361ffff160217905550826002600084815260200190815260200160002060010160126101000a8154816bffffffffffffffffffffffff02191690836bffffffffffffffffffffffff16021790555060008060009054906101000a900473ffffffffffffffffffffffffffffffffffffffff1673ffffffffffffffffffffffffffffffffffffffff166304433bbc6040518163ffffffff1660e01b8152600401610e3a90614c72565b602060405180830381865afa158015610e57573d6000803e3d6000fd5b505050506040513d601f19601f82011682018060405250810190610e7b91906145f5565b90508382610e899190614c92565b6bffffffffffffffffffffffff168173ffffffffffffffffffffffffffffffffffffffff1663dd62ed3e8c306040518363ffffffff1660e01b8152600401610ed2929190614cc6565b602060405180830381865afa158015610eef573d6000803e3d6000fd5b505050506040513d601f19601f82011682018060405250810190610f139190614679565b1015610f54576040517f08c379a0000000000000000000000000000000000000000000000000000000008152600401610f4b90614d61565b60405180910390fd5b8382610f609190614c92565b6bffffffffffffffffffffffff168173ffffffffffffffffffffffffffffffffffffffff166370a082318c6040518263ffffffff1660e01b8152600401610fa79190614b20565b602060405180830381865afa158015610fc4573d6000803e3d6000fd5b505050506040513d601f19601f82011682018060405250810190610fe89190614679565b1015611029576040517f08c379a000000000000000000000000000000000000000000000000000000000815260040161102090614df3565b60405180910390fd5b8073ffffffffffffffffffffffffffffffffffffffff166323b872dd8b3087866110539190614c92565b6040518463ffffffff1660e01b815260040161107193929190614e44565b6020604051808303816000875af1158015611090573d6000803e3d6000fd5b505050506040513d601f19601f820116820180604052508101906110b49190614b67565b50866040516110c3919061490d565b6040518091039020888a73ffffffffffffffffffffffffffffffffffffffff167f1abad9d03c6b61f6b6714655a41bdc5b88318ce5136915a9c8751a74ad5a30b9896002600089815260200190815260200160002060010160009054906101000a900461ffff16600260008a815260200190815260200160002060010160129054906101000a90046bffffffffffffffffffffffff1660405161116893929190614e7b565b60405180910390a450505050505050505050565b60008061118b88888888612dfd565b9050611197818561214f565b6111d6576040517f08c379a00000000000000000000000000000000000000000000000000000000081526004016111cd90614efe565b60405180910390fd5b60008060009054906101000a900473ffffffffffffffffffffffffffffffffffffffff1673ffffffffffffffffffffffffffffffffffffffff166304433bbc6040518163ffffffff1660e01b8152600401611230906145c0565b602060405180830381865afa15801561124d573d6000803e3d6000fd5b505050506040513d601f19601f8201168201806040525081019061127191906145f5565b905060008173ffffffffffffffffffffffffffffffffffffffff16637006045c6040518163ffffffff1660e01b8152600401602060405180830381865afa1580156112c0573d6000803e3d6000fd5b505050506040513d601f19601f820116820180604052508101906112e49190614637565b905060008060009054906101000a900473ffffffffffffffffffffffffffffffffffffffff1673ffffffffffffffffffffffffffffffffffffffff166304433bbc6040518163ffffffff1660e01b815260040161134090614f6a565b602060405180830381865afa15801561135d573d6000803e3d6000fd5b505050506040513d601f19601f8201168201806040525081019061138191906145f5565b905060008060009054906101000a900473ffffffffffffffffffffffffffffffffffffffff1673ffffffffffffffffffffffffffffffffffffffff166304433bbc6040518163ffffffff1660e01b81526004016113dd90614fd6565b602060405180830381865afa1580156113fa573d6000803e3d6000fd5b505050506040513d601f19601f8201168201806040525081019061141e91906145f5565b905060008173ffffffffffffffffffffffffffffffffffffffff16637dde117760026000898152602001908152602001600020600101601e9054906101000a900460ff168c8673ffffffffffffffffffffffffffffffffffffffff16636c5c281c896040518263ffffffff1660e01b815260040161149c9190613d16565b600060405180830381865afa1580156114b9573d6000803e3d6000fd5b505050506040513d6000823e3d601f19601f820116820180604052508101906114e29190615066565b8f8873ffffffffffffffffffffffffffffffffffffffff16631860bd8e8b6040518263ffffffff1660e01b815260040161151c9190613d16565b602060405180830381865afa158015611539573d6000803e3d6000fd5b505050506040513d601f19601f8201168201806040525081019061155d9190614637565b6040518663ffffffff1660e01b815260040161157d9594939291906150f9565b6020604051808303816000875af115801561159c573d6000803e3d6000fd5b505050506040513d601f19601f820116820180604052508101906115c09190615186565b905061160b868a8a6040518060600160405280896bffffffffffffffffffffffff16815260200160006bffffffffffffffffffffffff1681526020018663ffffffff16815250612f46565b60008060009054906101000a900473ffffffffffffffffffffffffffffffffffffffff1673ffffffffffffffffffffffffffffffffffffffff166304433bbc6040518163ffffffff1660e01b8152600401611665906149d0565b602060405180830381865afa158015611682573d6000803e3d6000fd5b505050506040513d601f19601f820116820180604052508101906116a691906145f5565b9050606460026000898152602001908152602001600020600101601f9054906101000a900460ff1660ff168273ffffffffffffffffffffffffffffffffffffffff166357d775f86040518163ffffffff1660e01b8152600401602060405180830381865afa15801561171c573d6000803e3d6000fd5b505050506040513d601f19601f8201168201806040525081019061174091906151df565b61174a919061520c565b6117549190615256565b6fffffffffffffffffffffffffffffffff1660018b6117739190615287565b61ffff168273ffffffffffffffffffffffffffffffffffffffff166357d775f86040518163ffffffff1660e01b8152600401602060405180830381865afa1580156117c2573d6000803e3d6000fd5b505050506040513d601f19601f820116820180604052508101906117e691906151df565b6117f0919061520c565b6fffffffffffffffffffffffffffffffff16600260008a81526020019081526020016000206000015461182391906152bb565b61182d91906152bb565b9750505050505050509695505050505050565b600060026000838152602001908152602001600020600101601f9054906101000a900460ff169050919050565b600060026000838152602001908152602001600020600001549050919050565b600080429050600060026000868152602001908152602001600020905060008060009054906101000a900473ffffffffffffffffffffffffffffffffffffffff1673ffffffffffffffffffffffffffffffffffffffff166304433bbc6040518163ffffffff1660e01b8152600401611904906149d0565b602060405180830381865afa158015611921573d6000803e3d6000fd5b505050506040513d601f19601f8201168201806040525081019061194591906145f5565b90506000606483600101601f9054906101000a900460ff1660ff168460010160009054906101000a900461ffff1661ffff168560010160029054906101000a90046fffffffffffffffffffffffffffffffff166119a2919061520c565b6119ac919061520c565b6119b69190615256565b6fffffffffffffffffffffffffffffffff169050600060648373ffffffffffffffffffffffffffffffffffffffff16639d3ceb0c6040518163ffffffff1660e01b8152600401602060405180830381865afa158015611a19573d6000803e3d6000fd5b505050506040513d601f19601f82011682018060405250810190611a3d9190615326565b60ff168560010160009054906101000a900461ffff1661ffff168660010160029054906101000a90046fffffffffffffffffffffffffffffffff16611a82919061520c565b611a8c919061520c565b611a969190615256565b6fffffffffffffffffffffffffffffffff169050818761ffff168560010160029054906101000a90046fffffffffffffffffffffffffffffffff16611adb919061520c565b6fffffffffffffffffffffffffffffffff168560000154611afc91906152bb565b611b0691906152bb565b85118015611b79575080828861ffff168660010160029054906101000a90046fffffffffffffffffffffffffffffffff16611b41919061520c565b6fffffffffffffffffffffffffffffffff168660000154611b6291906152bb565b611b6c91906152bb565b611b7691906152bb565b85105b9550505050505092915050565b60008054906101000a900473ffffffffffffffffffffffffffffffffffffffff1673ffffffffffffffffffffffffffffffffffffffff16638d5d2d85336040518263ffffffff1660e01b8152600401611bdf9190614b20565b602060405180830381865afa158015611bfc573d6000803e3d6000fd5b505050506040513d601f19601f82011682018060405250810190611c209190614b67565b611c5f576040517f08c379a0000000000000000000000000000000000000000000000000000000008152600401611c5690614c06565b60405180910390fd5b8060026000848152602001908152602001600020600101601e6101000a81548160ff021916908360ff1602179055505050565b60008054906101000a900473ffffffffffffffffffffffffffffffffffffffff1673ffffffffffffffffffffffffffffffffffffffff16638d5d2d85336040518263ffffffff1660e01b8152600401611ceb9190614b20565b602060405180830381865afa158015611d08573d6000803e3d6000fd5b505050506040513d601f19601f82011682018060405250810190611d2c9190614b67565b611d6b576040517f08c379a0000000000000000000000000000000000000000000000000000000008152600401611d6290614c06565b60405180910390fd5b6000611d7988888888612dfd565b9050611d888982868686613573565b60008060009054906101000a900473ffffffffffffffffffffffffffffffffffffffff1673ffffffffffffffffffffffffffffffffffffffff166304433bbc6040518163ffffffff1660e01b8152600401611de290614c72565b602060405180830381865afa158015611dff573d6000803e3d6000fd5b505050506040513d601f19601f82011682018060405250810190611e2391906145f5565b9050836bffffffffffffffffffffffff168173ffffffffffffffffffffffffffffffffffffffff1663dd62ed3e8c306040518363ffffffff1660e01b8152600401611e6f929190614cc6565b602060405180830381865afa158015611e8c573d6000803e3d6000fd5b505050506040513d601f19601f82011682018060405250810190611eb09190614679565b1015611ef1576040517f08c379a0000000000000000000000000000000000000000000000000000000008152600401611ee890614d61565b60405180910390fd5b836bffffffffffffffffffffffff168173ffffffffffffffffffffffffffffffffffffffff166370a082318c6040518263ffffffff1660e01b8152600401611f399190614b20565b602060405180830381865afa158015611f56573d6000803e3d6000fd5b505050506040513d601f19601f82011682018060405250810190611f7a9190614679565b1015611fbb576040517f08c379a0000000000000000000000000000000000000000000000000000000008152600401611fb290614df3565b60405180910390fd5b8073ffffffffffffffffffffffffffffffffffffffff166323b872dd8b30876040518463ffffffff1660e01b8152600401611ff893929190614e44565b6020604051808303816000875af1158015612017573d6000803e3d6000fd5b505050506040513d601f19601f8201168201806040525081019061203b9190614b67565b508660405161204a919061490d565b6040518091039020888a73ffffffffffffffffffffffffffffffffffffffff167f48298191f59170e97201484d4a3de75065cea587a165788d1f19459fabd39a5e8960026000888152602001908152602001600020600001546002600089815260200190815260200160002060010160009054906101000a900461ffff16600260008a815260200190815260200160002060010160029054906101000a90046fffffffffffffffffffffffffffffffff16600260008b815260200190815260200160002060010160129054906101000a90046bffffffffffffffffffffffff1660405161213b959493929190615353565b60405180910390a450505050505050505050565b600080429050600060026000868152602001908152602001600020905060008060009054906101000a900473ffffffffffffffffffffffffffffffffffffffff1673ffffffffffffffffffffffffffffffffffffffff166304433bbc6040518163ffffffff1660e01b81526004016121c6906149d0565b602060405180830381865afa1580156121e3573d6000803e3d6000fd5b505050506040513d601f19601f8201168201806040525081019061220791906145f5565b90508461ffff168260010160029054906101000a90046fffffffffffffffffffffffffffffffff16612239919061520c565b6fffffffffffffffffffffffffffffffff16826000015461225a91906152bb565b8311801561233457508073ffffffffffffffffffffffffffffffffffffffff1663e8d487ff6040518163ffffffff1660e01b8152600401602060405180830381865afa1580156122ae573d6000803e3d6000fd5b505050506040513d601f19601f820116820180604052508101906122d291906153bb565b61ffff168561ffff168360010160029054906101000a90046fffffffffffffffffffffffffffffffff16612306919061520c565b6fffffffffffffffffffffffffffffffff16836000015461232791906152bb565b61233191906152bb565b83105b935050505092915050565b60006002600083815260200190815260200160002060010160009054906101000a900461ffff169050919050565b600061237b88888888612dfd565b9050612387818561188d565b156123c7576040517f08c379a00000000000000000000000000000000000000000000000000000000081526004016123be90615434565b60405180910390fd5b60008060009054906101000a900473ffffffffffffffffffffffffffffffffffffffff1673ffffffffffffffffffffffffffffffffffffffff166304433bbc6040518163ffffffff1660e01b8152600401612421906145c0565b602060405180830381865afa15801561243e573d6000803e3d6000fd5b505050506040513d601f19601f8201168201806040525081019061246291906145f5565b73ffffffffffffffffffffffffffffffffffffffff16637006045c6040518163ffffffff1660e01b8152600401602060405180830381865afa1580156124ac573d6000803e3d6000fd5b505050506040513d601f19601f820116820180604052508101906124d09190614637565b90506000600160008488856040516020016124ed93929190614aab565b60405160208183030381529060405280519060200120815260200190815260200160002060000160189054906101000a900463ffffffff1663ffffffff160361256b576040517f08c379a0000000000000000000000000000000000000000000000000000000008152600401612562906154c6565b60405180910390fd5b60006002600084815260200190815260200160002060020160008761ffff1661ffff16815260200190815260200160002054905060008060009054906101000a900473ffffffffffffffffffffffffffffffffffffffff1673ffffffffffffffffffffffffffffffffffffffff166304433bbc6040518163ffffffff1660e01b81526004016125f9906149d0565b602060405180830381865afa158015612616573d6000803e3d6000fd5b505050506040513d601f19601f8201168201806040525081019061263a91906145f5565b905060005b6001600084815260200190815260200160002060000160009054906101000a90046bffffffffffffffffffffffff166bffffffffffffffffffffffff16846bffffffffffffffffffffffff1614158061271257508173ffffffffffffffffffffffffffffffffffffffff16638d73d86a6040518163ffffffff1660e01b8152600401602060405180830381865afa1580156126de573d6000803e3d6000fd5b505050506040513d601f19601f820116820180604052508101906127029190615186565b63ffffffff168163ffffffff1614155b1561278557848860016000868152602001908152602001600020600001600c9054906101000a90046bffffffffffffffffffffffff1660405160200161275a93929190614aab565b604051602081830303815290604052805190602001209250808061277d906154e6565b91505061263f565b8173ffffffffffffffffffffffffffffffffffffffff16638d73d86a6040518163ffffffff1660e01b8152600401602060405180830381865afa1580156127d0573d6000803e3d6000fd5b505050506040513d601f19601f820116820180604052508101906127f49190615186565b63ffffffff168163ffffffff1610612841576040517f08c379a000000000000000000000000000000000000000000000000000000000815260040161283890615584565b60405180910390fd5b60008061284f8e8e8c6103a4565b809250819350505061288a89838a8460405160200161286f9291906155c5565b604051602081830303815290604052805190602001206138e3565b6128c9576040517f08c379a00000000000000000000000000000000000000000000000000000000081526004016128c09061563d565b60405180910390fd5b60008060009054906101000a900473ffffffffffffffffffffffffffffffffffffffff1673ffffffffffffffffffffffffffffffffffffffff166304433bbc6040518163ffffffff1660e01b815260040161292390614f6a565b602060405180830381865afa158015612940573d6000803e3d6000fd5b505050506040513d601f19601f8201168201806040525081019061296491906145f5565b90506000600260008a815260200190815260200160002060030160008d61ffff1661ffff16815260200190815260200160002060009054906101000a900463ffffffff168673ffffffffffffffffffffffffffffffffffffffff16638d73d86a6040518163ffffffff1660e01b8152600401602060405180830381865afa1580156129f3573d6000803e3d6000fd5b505050506040513d601f19601f82011682018060405250810190612a179190615186565b612a21919061565d565b63ffffffff1660018d600260008d815260200190815260200160002060010160009054906101000a900461ffff16612a599190615287565b612a639190615691565b61ffff16600260008c815260200190815260200160002060010160129054906101000a90046bffffffffffffffffffffffff16612aa091906156c9565b612aaa91906156c9565b905060008054906101000a900473ffffffffffffffffffffffffffffffffffffffff1673ffffffffffffffffffffffffffffffffffffffff166304433bbc6040518163ffffffff1660e01b8152600401612b0390614c72565b602060405180830381865afa158015612b20573d6000803e3d6000fd5b505050506040513d601f19601f82011682018060405250810190612b4491906145f5565b73ffffffffffffffffffffffffffffffffffffffff1663a9059cbb83836040518363ffffffff1660e01b8152600401612b7e9291906156fa565b6020604051808303816000875af1158015612b9d573d6000803e3d6000fd5b505050506040513d601f19601f82011682018060405250810190612bc19190614b67565b508173ffffffffffffffffffffffffffffffffffffffff1663a4f9062389838573ffffffffffffffffffffffffffffffffffffffff166374cb0edb8d6040518263ffffffff1660e01b8152600401612c199190613d16565b602060405180830381865afa158015612c36573d6000803e3d6000fd5b505050506040513d601f19601f82011682018060405250810190612c5a9190614637565b612c649190615723565b6040518363ffffffff1660e01b8152600401612c81929190615765565b600060405180830381600087803b158015612c9b57600080fd5b505af1158015612caf573d6000803e3d6000fd5b5050505080600260008b815260200190815260200160002060010160128282829054906101000a90046bffffffffffffffffffffffff16612cf09190614c92565b92506101000a8154816bffffffffffffffffffffffff02191690836bffffffffffffffffffffffff1602179055506001600260008b815260200190815260200160002060030160008e61ffff1661ffff16815260200190815260200160002060008282829054906101000a900463ffffffff16612d6d919061578e565b92506101000a81548163ffffffff021916908363ffffffff1602179055506000600160008b8f8c604051602001612da693929190614aab565b60405160208183030381529060405280519060200120815260200190815260200160002060000160186101000a81548163ffffffff021916908363ffffffff16021790555050505050505050505050505050505050565b60008060008054906101000a900473ffffffffffffffffffffffffffffffffffffffff1673ffffffffffffffffffffffffffffffffffffffff166304433bbc6040518163ffffffff1660e01b8152600401612e5790615814565b602060405180830381865afa158015612e74573d6000803e3d6000fd5b505050506040513d601f19601f82011682018060405250810190612e9891906145f5565b90508073ffffffffffffffffffffffffffffffffffffffff1663a2113a6684888888604051602001612ecc9392919061587c565b6040516020818303038152906040526040518363ffffffff1660e01b8152600401612ef89291906158b5565b6020604051808303816000875af1158015612f17573d6000803e3d6000fd5b505050506040513d601f19601f82011682018060405250810190612f3b9190614747565b915050949350505050565b600084848360000151604051602001612f6193929190614aab565b6040516020818303038152906040528051906020012090506000836bffffffffffffffffffffffff16036131e65760006002600087815260200190815260200160002060020160008661ffff1661ffff16815260200190815260200160002054905060008082146130ef576000600160008481526020019081526020016000206040518060600160405290816000820160009054906101000a90046bffffffffffffffffffffffff166bffffffffffffffffffffffff166bffffffffffffffffffffffff16815260200160008201600c9054906101000a90046bffffffffffffffffffffffff166bffffffffffffffffffffffff166bffffffffffffffffffffffff1681526020016000820160189054906101000a900463ffffffff1663ffffffff1663ffffffff1681525050905080600001519150806040015163ffffffff16856040015163ffffffff16116130ed576040517f08c379a00000000000000000000000000000000000000000000000000000000081526004016130e49061597d565b60405180910390fd5b505b826002600089815260200190815260200160002060020160008861ffff1661ffff16815260200190815260200160002081905550836001600085815260200190815260200160002060008201518160000160006101000a8154816bffffffffffffffffffffffff02191690836bffffffffffffffffffffffff160217905550602082015181600001600c6101000a8154816bffffffffffffffffffffffff02191690836bffffffffffffffffffffffff16021790555060408201518160000160186101000a81548163ffffffff021916908363ffffffff1602179055509050506131df87878660000151846138fa565b505061356c565b60008585856040516020016131fd93929190614aab565b6040516020818303038152906040528051906020012090506000600160008381526020019081526020016000206040518060600160405290816000820160009054906101000a90046bffffffffffffffffffffffff166bffffffffffffffffffffffff166bffffffffffffffffffffffff16815260200160008201600c9054906101000a90046bffffffffffffffffffffffff166bffffffffffffffffffffffff166bffffffffffffffffffffffff1681526020016000820160189054906101000a900463ffffffff1663ffffffff1663ffffffff16815250509050806040015163ffffffff16846040015163ffffffff161115613330576040517f08c379a000000000000000000000000000000000000000000000000000000000815260040161332790615a35565b60405180910390fd5b6000816020015190506000816bffffffffffffffffffffffff161461349c57600088888360405160200161336693929190614aab565b6040516020818303038152906040528051906020012090506000600160008381526020019081526020016000206040518060600160405290816000820160009054906101000a90046bffffffffffffffffffffffff166bffffffffffffffffffffffff166bffffffffffffffffffffffff16815260200160008201600c9054906101000a90046bffffffffffffffffffffffff166bffffffffffffffffffffffff166bffffffffffffffffffffffff1681526020016000820160189054906101000a900463ffffffff1663ffffffff1663ffffffff16815250509050806040015163ffffffff16876040015163ffffffff161015613499576040517f08c379a000000000000000000000000000000000000000000000000000000000815260040161349090615aed565b60405180910390fd5b50505b846001600086815260200190815260200160002060008201518160000160006101000a8154816bffffffffffffffffffffffff02191690836bffffffffffffffffffffffff160217905550602082015181600001600c6101000a8154816bffffffffffffffffffffffff02191690836bffffffffffffffffffffffff16021790555060408201518160000160186101000a81548163ffffffff021916908363ffffffff16021790555090505061355888888888600001516138fa565b61356888888760000151846138fa565b5050505b5050505050565b60008060009054906101000a900473ffffffffffffffffffffffffffffffffffffffff1673ffffffffffffffffffffffffffffffffffffffff166304433bbc6040518163ffffffff1660e01b81526004016135cd906149d0565b602060405180830381865afa1580156135ea573d6000803e3d6000fd5b505050506040513d601f19601f8201168201806040525081019061360e91906145f5565b90506000600260008781526020019081526020016000209050428160000181905550848160010160006101000a81548161ffff021916908361ffff1602179055508173ffffffffffffffffffffffffffffffffffffffff166357d775f86040518163ffffffff1660e01b8152600401602060405180830381865afa15801561369a573d6000803e3d6000fd5b505050506040513d601f19601f820116820180604052508101906136be91906151df565b8160010160026101000a8154816fffffffffffffffffffffffffffffffff02191690836fffffffffffffffffffffffffffffffff1602179055506137f58760018473ffffffffffffffffffffffffffffffffffffffff16638e6262426040518163ffffffff1660e01b8152600401602060405180830381865afa158015613749573d6000803e3d6000fd5b505050506040513d601f19601f8201168201806040525081019061376d9190615326565b8573ffffffffffffffffffffffffffffffffffffffff1663ff2117436040518163ffffffff1660e01b8152600401602060405180830381865afa1580156137b8573d6000803e3d6000fd5b505050506040513d601f19601f820116820180604052508101906137dc9190615326565b6137e69190615b0d565b6137f09190615b41565b613975565b8273ffffffffffffffffffffffffffffffffffffffff16638e6262426040518163ffffffff1660e01b8152600401602060405180830381865afa158015613840573d6000803e3d6000fd5b505050506040513d601f19601f820116820180604052508101906138649190615326565b61386e9190615b41565b81600101601f6101000a81548160ff021916908360ff160217905550838160010160126101000a8154816bffffffffffffffffffffffff02191690836bffffffffffffffffffffffff1602179055508281600101601e6101000a81548160ff021916908360ff16021790555050505050505050565b6000826138f085846139bb565b1490509392505050565b600084848460405160200161391193929190614aab565b6040516020818303038152906040528051906020012090508160016000838152602001908152602001600020600001600c6101000a8154816bffffffffffffffffffffffff02191690836bffffffffffffffffffffffff1602179055505050505050565b60008160ff1642844360405160200161399093929190615b78565b6040516020818303038152906040528051906020012060001c6139b39190614953565b905092915050565b60008082905060005b8451811015613a06576139f1828683815181106139e4576139e3614a5b565b5b6020026020010151613a11565b915080806139fe90615bb5565b9150506139c4565b508091505092915050565b6000818310613a2957613a248284613a3c565b613a34565b613a338383613a3c565b5b905092915050565b600082600052816020526040600020905092915050565b604051806060016040528060006bffffffffffffffffffffffff16815260200160006bffffffffffffffffffffffff168152602001600063ffffffff1681525090565b6000604051905090565b600080fd5b600080fd5b600073ffffffffffffffffffffffffffffffffffffffff82169050919050565b6000613ad582613aaa565b9050919050565b613ae581613aca565b8114613af057600080fd5b50565b600081359050613b0281613adc565b92915050565b6000819050919050565b613b1b81613b08565b8114613b2657600080fd5b50565b600081359050613b3881613b12565b92915050565b600061ffff82169050919050565b613b5581613b3e565b8114613b6057600080fd5b50565b600081359050613b7281613b4c565b92915050565b600080600060608486031215613b9157613b90613aa0565b5b6000613b9f86828701613af3565b9350506020613bb086828701613b29565b9250506040613bc186828701613b63565b9150509250925092565b6000819050919050565b613bde81613bcb565b82525050565b613bed81613b08565b82525050565b6000604082019050613c086000830185613bd5565b613c156020830184613be4565b9392505050565b6000819050919050565b6000613c41613c3c613c3784613aaa565b613c1c565b613aaa565b9050919050565b6000613c5382613c26565b9050919050565b6000613c6582613c48565b9050919050565b613c7581613c5a565b82525050565b6000602082019050613c906000830184613c6c565b92915050565b613c9f81613bcb565b8114613caa57600080fd5b50565b600081359050613cbc81613c96565b92915050565b600060208284031215613cd857613cd7613aa0565b5b6000613ce684828501613cad565b91505092915050565b60006bffffffffffffffffffffffff82169050919050565b613d1081613cef565b82525050565b6000602082019050613d2b6000830184613d07565b92915050565b60006fffffffffffffffffffffffffffffffff82169050919050565b613d5681613d31565b82525050565b6000602082019050613d716000830184613d4d565b92915050565b60008060408385031215613d8e57613d8d613aa0565b5b6000613d9c85828601613cad565b9250506020613dad85828601613b63565b9150509250929050565b600081519050919050565b600082825260208201905092915050565b6000819050602082019050919050565b613dec81613cef565b82525050565b600063ffffffff82169050919050565b613e0b81613df2565b82525050565b606082016000820151613e276000850182613de3565b506020820151613e3a6020850182613de3565b506040820151613e4d6040850182613e02565b50505050565b6000613e5f8383613e11565b60608301905092915050565b6000602082019050919050565b6000613e8382613db7565b613e8d8185613dc2565b9350613e9883613dd3565b8060005b83811015613ec9578151613eb08882613e53565b9750613ebb83613e6b565b925050600181019050613e9c565b5085935050505092915050565b60006020820190508181036000830152613ef08184613e78565b905092915050565b600060ff82169050919050565b613f0e81613ef8565b82525050565b6000602082019050613f296000830184613f05565b92915050565b600080fd5b600080fd5b6000601f19601f8301169050919050565b7f4e487b7100000000000000000000000000000000000000000000000000000000600052604160045260246000fd5b613f8282613f39565b810181811067ffffffffffffffff82111715613fa157613fa0613f4a565b5b80604052505050565b6000613fb4613a96565b9050613fc08282613f79565b919050565b600067ffffffffffffffff821115613fe057613fdf613f4a565b5b613fe982613f39565b9050602081019050919050565b82818337600083830152505050565b600061401861401384613fc5565b613faa565b90508281526020810184848401111561403457614033613f34565b5b61403f848285613ff6565b509392505050565b600082601f83011261405c5761405b613f2f565b5b813561406c848260208601614005565b91505092915050565b61407e81613ef8565b811461408957600080fd5b50565b60008135905061409b81614075565b92915050565b6140aa81613cef565b81146140b557600080fd5b50565b6000813590506140c7816140a1565b92915050565b600080600080600080600060e0888a0312156140ec576140eb613aa0565b5b60006140fa8a828b01613af3565b975050602061410b8a828b01613af3565b965050604061411c8a828b01613b29565b955050606088013567ffffffffffffffff81111561413d5761413c613aa5565b5b6141498a828b01614047565b945050608061415a8a828b0161408c565b93505060a061416b8a828b01613b63565b92505060c061417c8a828b016140b8565b91505092959891949750929550565b60008060008060008060c087890312156141a8576141a7613aa0565b5b60006141b689828a01613af3565b96505060206141c789828a01613b29565b955050604087013567ffffffffffffffff8111156141e8576141e7613aa5565b5b6141f489828a01614047565b945050606061420589828a0161408c565b935050608061421689828a01613b63565b92505060a061422789828a016140b8565b9150509295509295509295565b60006020820190506142496000830184613be4565b92915050565b60008115159050919050565b6142648161424f565b82525050565b600060208201905061427f600083018461425b565b92915050565b6000806040838503121561429c5761429b613aa0565b5b60006142aa85828601613cad565b92505060206142bb8582860161408c565b9150509250929050565b600080600080600080600080610100898b0312156142e6576142e5613aa0565b5b60006142f48b828c01613af3565b98505060206143058b828c01613af3565b97505060406143168b828c01613b29565b965050606089013567ffffffffffffffff81111561433757614336613aa5565b5b6143438b828c01614047565b95505060806143548b828c0161408c565b94505060a06143658b828c01613b63565b93505060c06143768b828c016140b8565b92505060e06143878b828c0161408c565b9150509295985092959890939650565b6143a081613b3e565b82525050565b60006020820190506143bb6000830184614397565b92915050565b600067ffffffffffffffff8211156143dc576143db613f4a565b5b602082029050602081019050919050565b600080fd5b6000614405614400846143c1565b613faa565b90508083825260208201905060208402830185811115614428576144276143ed565b5b835b81811015614451578061443d8882613cad565b84526020840193505060208101905061442a565b5050509392505050565b600082601f8301126144705761446f613f2f565b5b81356144808482602086016143f2565b91505092915050565b600080600080600080600060e0888a0312156144a8576144a7613aa0565b5b60006144b68a828b01613af3565b97505060206144c78a828b01613b29565b965050604088013567ffffffffffffffff8111156144e8576144e7613aa5565b5b6144f48a828b01614047565b95505060606145058a828b0161408c565b94505060806145168a828b01613b63565b93505060a088013567ffffffffffffffff81111561453757614536613aa5565b5b6145438a828b0161445b565b92505060c06145548a828b01613cad565b91505092959891949750929550565b600082825260208201905092915050565b7f4964656e7469747953746f726167650000000000000000000000000000000000600082015250565b60006145aa600f83614563565b91506145b582614574565b602082019050919050565b600060208201905081810360008301526145d98161459d565b9050919050565b6000815190506145ef81613adc565b92915050565b60006020828403121561460b5761460a613aa0565b5b6000614619848285016145e0565b91505092915050565b600081519050614631816140a1565b92915050565b60006020828403121561464d5761464c613aa0565b5b600061465b84828501614622565b91505092915050565b60008151905061467381613b12565b92915050565b60006020828403121561468f5761468e613aa0565b5b600061469d84828501614664565b91505092915050565b7f4e487b7100000000000000000000000000000000000000000000000000000000600052601160045260246000fd5b60006146e082613b08565b91506146eb83613b08565b9250828210156146fe576146fd6146a6565b5b828203905092915050565b600060408201905061471e6000830185613be4565b61472b6020830184613be4565b9392505050565b60008151905061474181613c96565b92915050565b60006020828403121561475d5761475c613aa0565b5b600061476b84828501614732565b91505092915050565b7f417373657274696f6e5265676973747279000000000000000000000000000000600082015250565b60006147aa601183614563565b91506147b582614774565b602082019050919050565b600060208201905081810360008301526147d98161479d565b9050919050565b60006020820190506147f56000830184613bd5565b92915050565b60008160f01b9050919050565b6000614813826147fb565b9050919050565b61482b61482682613b3e565b614808565b82525050565b60008160a01b9050919050565b600061484982614831565b9050919050565b61486161485c82613cef565b61483e565b82525050565b6000614873828561481a565b6002820191506148838284614850565b600c820191508190509392505050565b600081519050919050565b600081905092915050565b60005b838110156148c75780820151818401526020810190506148ac565b838111156148d6576000848401525b50505050565b60006148e782614893565b6148f1818561489e565b93506149018185602086016148a9565b80840191505092915050565b600061491982846148dc565b915081905092915050565b7f4e487b7100000000000000000000000000000000000000000000000000000000600052601260045260246000fd5b600061495e82613b08565b915061496983613b08565b92508261497957614978614924565b5b828206905092915050565b7f506172616d657465727353746f72616765000000000000000000000000000000600082015250565b60006149ba601183614563565b91506149c582614984565b602082019050919050565b600060208201905081810360008301526149e9816149ad565b9050919050565b600065ffffffffffff82169050919050565b614a0b816149f0565b8114614a1657600080fd5b50565b600081519050614a2881614a02565b92915050565b600060208284031215614a4457614a43613aa0565b5b6000614a5284828501614a19565b91505092915050565b7f4e487b7100000000000000000000000000000000000000000000000000000000600052603260045260246000fd5b6000819050919050565b614aa5614aa082613bcb565b614a8a565b82525050565b6000614ab78286614a94565b602082019150614ac7828561481a565b600282019150614ad78284614850565b600c82019150819050949350505050565b6000614af382613ef8565b915060ff8203614b0657614b056146a6565b5b600182019050919050565b614b1a81613aca565b82525050565b6000602082019050614b356000830184614b11565b92915050565b614b448161424f565b8114614b4f57600080fd5b50565b600081519050614b6181614b3b565b92915050565b600060208284031215614b7d57614b7c613aa0565b5b6000614b8b84828501614b52565b91505092915050565b7f46756e6374696f6e2063616e206f6e6c792062652063616c6c6564206279204160008201527f73736574205479706520436f6e74726163747300000000000000000000000000602082015250565b6000614bf0603383614563565b9150614bfb82614b94565b604082019050919050565b60006020820190508181036000830152614c1f81614be3565b9050919050565b7f546f6b656e000000000000000000000000000000000000000000000000000000600082015250565b6000614c5c600583614563565b9150614c6782614c26565b602082019050919050565b60006020820190508181036000830152614c8b81614c4f565b9050919050565b6000614c9d82613cef565b9150614ca883613cef565b925082821015614cbb57614cba6146a6565b5b828203905092915050565b6000604082019050614cdb6000830185614b11565b614ce86020830184614b11565b9392505050565b7f53656e64657220616c6c6f77616e6365206d75737420626520657175616c207460008201527f6f206f7220686967686572207468616e2063686f73656e20616d6f756e742100602082015250565b6000614d4b603f83614563565b9150614d5682614cef565b604082019050919050565b60006020820190508181036000830152614d7a81614d3e565b9050919050565b7f53656e6465722062616c616e6365206d75737420626520657175616c20746f2060008201527f6f7220686967686572207468616e2063686f73656e20616d6f756e7421000000602082015250565b6000614ddd603d83614563565b9150614de882614d81565b604082019050919050565b60006020820190508181036000830152614e0c81614dd0565b9050919050565b6000614e2e614e29614e2484613cef565b613c1c565b613b08565b9050919050565b614e3e81614e13565b82525050565b6000606082019050614e596000830186614b11565b614e666020830185614b11565b614e736040830184614e35565b949350505050565b6000606082019050614e906000830186613f05565b614e9d6020830185614397565b614eaa6040830184613d07565b949350505050565b7f436f6d6d69742077696e646f7720697320636c6f736564210000000000000000600082015250565b6000614ee8601883614563565b9150614ef382614eb2565b602082019050919050565b60006020820190508181036000830152614f1781614edb565b9050919050565b7f50726f66696c6553746f72616765000000000000000000000000000000000000600082015250565b6000614f54600e83614563565b9150614f5f82614f1e565b602082019050919050565b60006020820190508181036000830152614f8381614f47565b9050919050565b7f53636f72696e6750726f78790000000000000000000000000000000000000000600082015250565b6000614fc0600c83614563565b9150614fcb82614f8a565b602082019050919050565b60006020820190508181036000830152614fef81614fb3565b9050919050565b600061500961500484613fc5565b613faa565b90508281526020810184848401111561502557615024613f34565b5b6150308482856148a9565b509392505050565b600082601f83011261504d5761504c613f2f565b5b815161505d848260208601614ff6565b91505092915050565b60006020828403121561507c5761507b613aa0565b5b600082015167ffffffffffffffff81111561509a57615099613aa5565b5b6150a684828501615038565b91505092915050565b600082825260208201905092915050565b60006150cb82614893565b6150d581856150af565b93506150e58185602086016148a9565b6150ee81613f39565b840191505092915050565b600060a08201905061510e6000830188613f05565b61511b6020830187613f05565b818103604083015261512d81866150c0565b9050818103606083015261514181856150c0565b90506151506080830184613d07565b9695505050505050565b61516381613df2565b811461516e57600080fd5b50565b6000815190506151808161515a565b92915050565b60006020828403121561519c5761519b613aa0565b5b60006151aa84828501615171565b91505092915050565b6151bc81613d31565b81146151c757600080fd5b50565b6000815190506151d9816151b3565b92915050565b6000602082840312156151f5576151f4613aa0565b5b6000615203848285016151ca565b91505092915050565b600061521782613d31565b915061522283613d31565b9250816fffffffffffffffffffffffffffffffff048311821515161561524b5761524a6146a6565b5b828202905092915050565b600061526182613d31565b915061526c83613d31565b92508261527c5761527b614924565b5b828204905092915050565b600061529282613b3e565b915061529d83613b3e565b9250828210156152b0576152af6146a6565b5b828203905092915050565b60006152c682613b08565b91506152d183613b08565b9250827fffffffffffffffffffffffffffffffffffffffffffffffffffffffffffffffff03821115615306576153056146a6565b5b828201905092915050565b60008151905061532081614075565b92915050565b60006020828403121561533c5761533b613aa0565b5b600061534a84828501615311565b91505092915050565b600060a0820190506153686000830188613f05565b6153756020830187613be4565b6153826040830186614397565b61538f6060830185613d4d565b61539c6080830184613d07565b9695505050505050565b6000815190506153b581613b4c565b92915050565b6000602082840312156153d1576153d0613aa0565b5b60006153df848285016153a6565b91505092915050565b7f50726f6f662077696e646f77206973206f70656e000000000000000000000000600082015250565b600061541e601483614563565b9150615429826153e8565b602082019050919050565b6000602082019050818103600083015261544d81615411565b9050919050565b7f596f75277665206265656e20616c726561647920726577617264656420696e2060008201527f746869732065706f636800000000000000000000000000000000000000000000602082015250565b60006154b0602a83614563565b91506154bb82615454565b604082019050919050565b600060208201905081810360008301526154df816154a3565b9050919050565b60006154f182613df2565b915063ffffffff8203615507576155066146a6565b5b600182019050919050565b7f596f7572206e6f6465206861736e2774206265656e206177617264656420666f60008201527f72207468697320617373657420696e20746869732065706f6368000000000000602082015250565b600061556e603a83614563565b915061557982615512565b604082019050919050565b6000602082019050818103600083015261559d81615561565b9050919050565b6000819050919050565b6155bf6155ba82613b08565b6155a4565b82525050565b60006155d18285614a94565b6020820191506155e182846155ae565b6020820191508190509392505050565b7f526f6f74206861736820646f65736e2774206d61746368000000000000000000600082015250565b6000615627601783614563565b9150615632826155f1565b602082019050919050565b600060208201905081810360008301526156568161561a565b9050919050565b600061566882613df2565b915061567383613df2565b925082821015615686576156856146a6565b5b828203905092915050565b600061569c82613b3e565b91506156a783613b3e565b92508261ffff038211156156be576156bd6146a6565b5b828201905092915050565b60006156d482613cef565b91506156df83613cef565b9250826156ef576156ee614924565b5b828204905092915050565b600060408201905061570f6000830185614b11565b61571c6020830184614e35565b9392505050565b600061572e82613cef565b915061573983613cef565b9250826bffffffffffffffffffffffff0382111561575a576157596146a6565b5b828201905092915050565b600060408201905061577a6000830185613d07565b6157876020830184613d07565b9392505050565b600061579982613df2565b91506157a483613df2565b92508263ffffffff038211156157bd576157bc6146a6565b5b828201905092915050565b7f48617368696e6750726f78790000000000000000000000000000000000000000600082015250565b60006157fe600c83614563565b9150615809826157c8565b602082019050919050565b6000602082019050818103600083015261582d816157f1565b9050919050565b60008160601b9050919050565b600061584c82615834565b9050919050565b600061585e82615841565b9050919050565b61587661587182613aca565b615853565b82525050565b60006158888286615865565b60148201915061589882856155ae565b6020820191506158a882846148dc565b9150819050949350505050565b60006040820190506158ca6000830185613f05565b81810360208301526158dc81846150c0565b90509392505050565b7f53636f7265206f662074686520636f6d6d6974206d757374206265206869676860008201527f65722074686174207468652073636f7265206f6620746865206865616420696e60208201527f206f7264657220746f207265706c616365206974210000000000000000000000604082015250565b6000615967605583614563565b9150615972826158e5565b606082019050919050565b600060208201905081810360008301526159968161595a565b9050919050565b7f53636f7265206f662074686520636f6d6d6974206d757374206265206c65737360008201527f206f7220657175616c20746f20746865206f6e6520796f752077616e7420696e60208201527f7365727420616674657221000000000000000000000000000000000000000000604082015250565b6000615a1f604b83614563565b9150615a2a8261599d565b606082019050919050565b60006020820190508181036000830152615a4e81615a12565b9050919050565b7f53636f7265206f662074686520636f6d6d6974206d757374206265206772656160008201527f746572206f7220657175616c20746f20746865206f6e6520796f752077616e7460208201527f20696e73657274206265666f7265210000000000000000000000000000000000604082015250565b6000615ad7604f83614563565b9150615ae282615a55565b606082019050919050565b60006020820190508181036000830152615b0681615aca565b9050919050565b6000615b1882613ef8565b9150615b2383613ef8565b925082821015615b3657615b356146a6565b5b828203905092915050565b6000615b4c82613ef8565b9150615b5783613ef8565b92508260ff03821115615b6d57615b6c6146a6565b5b828201905092915050565b6000615b8482866155ae565b602082019150615b948285615865565b601482019150615ba482846155ae565b602082019150819050949350505050565b6000615bc082613b08565b91507fffffffffffffffffffffffffffffffffffffffffffffffffffffffffffffffff8203615bf257615bf16146a6565b5b60018201905091905056fea2646970667358221220dd1298fb0b3a01f7988b21139af630e4fc464d1f6d28cb22bbb825c22fedde6064736f6c634300080e0033",
  "immutableReferences": {},
  "source": "// SPDX-License-Identifier: MIT\n\npragma solidity ^0.8.0;\n\nimport { AbstractAsset } from \"../assets/AbstractAsset.sol\";\nimport { AssertionRegistry } from \"../AssertionRegistry.sol\";\nimport { HashingProxy } from \"../HashingProxy.sol\";\nimport { Hub } from \"../Hub.sol\";\nimport { IdentityStorage } from \"./IdentityStorage.sol\";\nimport { IERC20 } from \"@openzeppelin/contracts/token/ERC20/IERC20.sol\";\nimport { MerkleProof } from \"@openzeppelin/contracts/utils/cryptography/MerkleProof.sol\";\nimport { ParametersStorage } from \"./ParametersStorage.sol\";\nimport { ProfileStorage } from \"./ProfileStorage.sol\";\nimport { ScoringProxy } from \"../ScoringProxy.sol\";\nimport { ShardingTable } from \"../ShardingTable.sol\";\n\ncontract ServiceAgreementStorage {\n    event ServiceAgreementCreated(\n        address indexed assetContract,\n        uint256 indexed tokenId,\n        bytes indexed keyword,\n        uint8 hashingFunctionId,\n        uint256 startTime,\n        uint16 epochsNumber,\n        uint128 epochLength,\n        uint96 tokenAmount\n    );\n    event ServiceAgreementUpdated(\n        address indexed assetContract,\n        uint256 indexed tokenId,\n        bytes indexed keyword,\n        uint8 hashingFunctionId,\n        uint16 epochsNumber,\n        uint96 tokenAmount\n    );\n    event CommitSubmitted(\n        address assetContract,\n        uint256 tokenId,\n        bytes indexed keyword,\n        uint8 hashingFunctionId,\n        uint96 indexed identityId,\n        bytes indexed nodeId,\n        uint32 score\n    );\n    event ProofSubmitted(\n        address assetContract,\n        uint256 tokenId,\n        bytes indexed keyword,\n        uint8 hashingFunctionId,\n        uint96 indexed identityId,\n        bytes indexed nodeId\n    );\n\n\n    struct CommitSubmission {\n        uint96 identityId;\n        uint96 nextIdentity;\n        uint32 score;\n    }\n\n    struct ServiceAgreement {\n        uint256 startTime;\n        uint16 epochsNumber;\n        uint128 epochLength;\n        uint96 tokenAmount;\n        uint8 scoringFunctionId;\n        uint8 proofWindowOffsetPerc;  // Perc == In % of the epoch\n        mapping(uint16 => bytes32) epochSubmissionHeads;  // epoch => headCommitId\n        mapping(uint16 => uint32) rewardedNodes;\n    }\n\n    Hub public hub;\n\n    // CommitId [keccak256(agreementId + epoch + identityId)] => CommitSubmission\n    mapping(bytes32 => CommitSubmission) commitSubmissions;\n\n    // hash(asset type contract + tokenId + key) -> ServiceAgreement\n    mapping(bytes32 => ServiceAgreement) serviceAgreements;\n\n    constructor (address hubAddress) {\n        require(hubAddress != address(0));\n        hub = Hub(hubAddress);\n    }\n\n    modifier onlyAssetContracts() {\n        require (\n            hub.isAssetContract(msg.sender),\n            \"Function can only be called by Asset Type Contracts\"\n        );\n        _;\n    }\n\n    function getAgreementStartTime(bytes32 agreementId) public view returns (uint256) {\n        return serviceAgreements[agreementId].startTime;\n    }\n\n    function getAgreementEpochsNumber(bytes32 agreementId) public view returns (uint16) {\n        return serviceAgreements[agreementId].epochsNumber;\n    }\n\n    function getAgreementEpochLength(bytes32 agreementId) public view returns (uint128) {\n        return serviceAgreements[agreementId].epochLength;\n    }\n\n    function getAgreementTokenAmount(bytes32 agreementId) public view returns (uint96) {\n        return serviceAgreements[agreementId].tokenAmount;\n    }\n\n    function getAgreementScoringFunctionId(bytes32 agreementId) public view returns (uint8) {\n        return serviceAgreements[agreementId].scoringFunctionId;\n    }\n\n    function getAgreementProofWindowOffsetPerc(bytes32 agreementId) public view returns (uint8) {\n        return serviceAgreements[agreementId].proofWindowOffsetPerc;\n    }\n\n    function createServiceAgreement(\n        address operationalWallet,\n        address assetContract,\n        uint256 tokenId,\n        bytes memory keyword,\n        uint8 hashingFunctionId,\n        uint16 epochsNumber,\n        uint96 tokenAmount,\n        uint8 scoringFunctionId\n    )\n        public\n        onlyAssetContracts\n    {\n        bytes32 agreementId = _generateAgreementId(assetContract, tokenId, keyword, hashingFunctionId);\n\n        _createServiceAgreementObject(operationalWallet, agreementId, epochsNumber, tokenAmount, scoringFunctionId);\n\n        IERC20 tokenContract = IERC20(hub.getContractAddress(\"Token\"));\n        require(\n            tokenContract.allowance(operationalWallet, address(this)) >= tokenAmount,\n            \"Sender allowance must be equal to or higher than chosen amount!\"\n        );\n        require(\n            tokenContract.balanceOf(operationalWallet) >= tokenAmount,\n            \"Sender balance must be equal to or higher than chosen amount!\"\n        );\n\n        tokenContract.transferFrom(operationalWallet, address(this), tokenAmount);\n\n        emit ServiceAgreementCreated(\n            assetContract,\n            tokenId,\n            keyword,\n            hashingFunctionId,\n            serviceAgreements[agreementId].startTime,\n            serviceAgreements[agreementId].epochsNumber,\n            serviceAgreements[agreementId].epochLength,\n            serviceAgreements[agreementId].tokenAmount\n        );\n    }\n\n    // TODO: Split into smaller functions\n    function updateServiceAgreement(\n        address operationalWallet,\n        address assetContract,\n        uint256 tokenId,\n        bytes memory keyword,\n        uint8 hashingFunctionId,\n        uint16 epochsNumber,\n        uint96 tokenAmount\n    )\n        public\n        onlyAssetContracts\n    {\n        bytes32 agreementId = _generateAgreementId(assetContract, tokenId, keyword, hashingFunctionId);\n\n        // require(serviceAgreements[agreementId]);\n\n        uint96 actualBalance = serviceAgreements[agreementId].tokenAmount;\n\n        serviceAgreements[agreementId].epochsNumber = epochsNumber;\n        serviceAgreements[agreementId].tokenAmount = tokenAmount;\n\n        IERC20 tokenContract = IERC20(hub.getContractAddress(\"Token\"));\n        require(\n            tokenContract.allowance(operationalWallet, address(this)) >= (actualBalance - tokenAmount),\n            \"Sender allowance must be equal to or higher than chosen amount!\"\n        );\n        require(\n            tokenContract.balanceOf(operationalWallet) >= (actualBalance - tokenAmount),\n            \"Sender balance must be equal to or higher than chosen amount!\"\n        );\n\n        tokenContract.transferFrom(operationalWallet, address(this), actualBalance - tokenAmount);\n\n        emit ServiceAgreementUpdated(\n            assetContract,\n            tokenId,\n            keyword,\n            hashingFunctionId,\n            serviceAgreements[agreementId].epochsNumber,\n            serviceAgreements[agreementId].tokenAmount\n        );\n    }\n\n    function isCommitWindowOpen(bytes32 agreementId, uint16 epoch)\n        public\n        view\n        returns (bool)\n    {\n        uint256 timeNow = block.timestamp;\n        ServiceAgreement storage agreement = serviceAgreements[agreementId];\n\n        ParametersStorage parametersStorage = ParametersStorage(hub.getContractAddress(\"ParametersStorage\"));\n\n        return (\n            timeNow > (agreement.startTime + agreement.epochLength * epoch) &&\n            timeNow < (agreement.startTime + agreement.epochLength * epoch + parametersStorage.commitWindowDuration())\n        );\n    }\n\n    function getCommitSubmissions(bytes32 agreementId, uint16 epoch)\n        public\n        view\n        returns (CommitSubmission[] memory)\n    {\n        ParametersStorage parametersStorage = ParametersStorage(hub.getContractAddress(\"ParametersStorage\"));\n        CommitSubmission[] memory epochCommits = new CommitSubmission[](parametersStorage.R2());\n\n        bytes32 epochSubmissionsHead = serviceAgreements[agreementId].epochSubmissionHeads[epoch];\n\n        uint8 submissionsIdx = 0;\n\n        epochCommits[submissionsIdx] = commitSubmissions[epochSubmissionsHead];\n\n        uint96 nextIdentityId = commitSubmissions[epochSubmissionsHead].nextIdentity;\n        while(nextIdentityId != 0) {\n            // VERIFY: Is keccak256(agreementId + epoch + identityId) a good key?\n            bytes32 commitId = keccak256(abi.encodePacked(agreementId, epoch, nextIdentityId));\n\n            CommitSubmission memory commit = commitSubmissions[commitId];\n            submissionsIdx++;\n            epochCommits[submissionsIdx] = commit;\n\n            nextIdentityId = commit.nextIdentity;\n        }\n\n        return epochCommits;\n    }\n\n    function submitCommit(\n        address assetContract,\n        uint256 tokenId,\n        bytes memory keyword,\n        uint8 hashingFunctionId,\n        uint16 epoch,\n        uint96 prevIdentityId\n    )\n        public\n        returns (uint256)\n    {\n        bytes32 agreementId = _generateAgreementId(assetContract, tokenId, keyword, hashingFunctionId);\n\n        require(isCommitWindowOpen(agreementId, epoch), \"Commit window is closed!\");\n\n        IdentityStorage identityStorage = IdentityStorage(hub.getContractAddress(\"IdentityStorage\"));\n        uint96 identityId = identityStorage.getIdentityId();\n\n        ProfileStorage profileStorage = ProfileStorage(hub.getContractAddress(\"ProfileStorage\"));\n\n        ScoringProxy scoringProxy = ScoringProxy(hub.getContractAddress(\"ScoringProxy\"));\n        uint32 score = scoringProxy.callScoringFunction(\n            serviceAgreements[agreementId].scoringFunctionId,\n            hashingFunctionId,\n            profileStorage.getNodeId(identityId),\n            keyword,\n            profileStorage.getStake(identityId)\n        );\n\n        _insertCommitAfter(\n            agreementId,\n            epoch,\n            prevIdentityId,\n            CommitSubmission({\n                identityId: identityId,\n                nextIdentity: 0,\n                score: score\n            })\n        );\n\n        // emit CommitSubmitted(\n        //     assetContract,\n        //     tokenId,\n        //     keyword,\n        //     hashingFunctionId,\n        //     identityId,\n        //     profileStorage.getNodeId(identityId),\n        //     score\n        // );\n\n        ParametersStorage parametersStorage = ParametersStorage(hub.getContractAddress(\"ParametersStorage\"));\n\n        // Returns start time of the proof phase\n        return (\n            serviceAgreements[agreementId].startTime +\n            parametersStorage.epochLength() * (epoch - 1) +\n            parametersStorage.epochLength() * serviceAgreements[agreementId].proofWindowOffsetPerc / 100\n        );\n    }\n\n    function isProofWindowOpen(bytes32 agreementId, uint16 epoch)\n        public\n        view\n        returns (bool)\n    {\n        uint256 timeNow = block.timestamp;\n        ServiceAgreement storage agreement = serviceAgreements[agreementId];\n\n        ParametersStorage parametersStorage = ParametersStorage(hub.getContractAddress(\"ParametersStorage\"));\n\n        uint256 proofWindowOffset = agreement.epochLength * agreement.epochsNumber * agreement.proofWindowOffsetPerc / 100;\n        uint256 proofWindowDuration = (\n            agreement.epochLength * agreement.epochsNumber * parametersStorage.proofWindowDurationPerc() / 100\n        );\n\n        return (\n            timeNow > (agreement.startTime + agreement.epochLength * epoch + proofWindowOffset) &&\n            timeNow < (agreement.startTime + agreement.epochLength * epoch + proofWindowOffset + proofWindowDuration)\n        );\n    }\n\n    function getChallenge(address assetContract, uint256 tokenId, uint16 epoch)\n        public\n        view\n        returns (bytes32, uint256)\n    {\n        IdentityStorage identityStorage = IdentityStorage(hub.getContractAddress(\"IdentityStorage\"));\n        uint96 identityId = identityStorage.getIdentityId();\n\n        AbstractAsset generalAssetInterface = AbstractAsset(assetContract);\n        bytes32 assertionId = generalAssetInterface.getAssertionByIndex(\n            tokenId,\n            AbstractAsset(assetContract).getAssertionsLength(tokenId) - 1\n        );\n\n        AssertionRegistry assertionRegistry = AssertionRegistry(hub.getContractAddress(\"AssertionRegistry\"));\n        uint256 assertionChunksNumber = assertionRegistry.getChunksNumber(assertionId);\n\n        // blockchash() function only works for last 256 blocks (25.6 min window in case of 6s block time)\n        // TODO: figure out how to achieve randomness\n        return (\n            assertionId,\n            uint256(\n                sha256(abi.encodePacked(epoch, identityId))\n            ) % assertionChunksNumber\n        );\n    }\n\n    function sendProof(\n        address assetContract,\n        uint256 tokenId,\n        bytes memory keyword,\n        uint8 hashingFunctionId,\n        uint16 epoch,\n        bytes32[] memory proof,\n        bytes32 chunkHash\n    )\n        public\n    {\n        bytes32 agreementId = _generateAgreementId(assetContract, tokenId, keyword, hashingFunctionId);\n        require(!isProofWindowOpen(agreementId, epoch), \"Proof window is open\");\n\n        uint96 identityId = IdentityStorage(hub.getContractAddress(\"IdentityStorage\")).getIdentityId();\n\n        require(\n            commitSubmissions[keccak256(abi.encodePacked(agreementId, epoch, identityId))].score != 0,\n            \"You've been already rewarded in this epoch\"\n        );\n\n        bytes32 nextCommitId = serviceAgreements[agreementId].epochSubmissionHeads[epoch];\n\n        ParametersStorage parametersStorage = ParametersStorage(hub.getContractAddress(\"ParametersStorage\"));\n\n        uint32 i = 0;\n        while ((identityId != commitSubmissions[nextCommitId].identityId) || (i != parametersStorage.R0())) {\n            nextCommitId = keccak256(\n                abi.encodePacked(agreementId, epoch, commitSubmissions[nextCommitId].nextIdentity)\n            );\n            i++;\n        }\n\n        require(i < parametersStorage.R0(), \"Your node hasn't been awarded for this asset in this epoch\");\n\n        bytes32 merkleRoot;\n        uint256 challenge;\n        (merkleRoot, challenge) = getChallenge(assetContract, tokenId, epoch);\n\n        require(\n            MerkleProof.verify(\n                proof,\n                merkleRoot,\n                keccak256(abi.encodePacked(chunkHash, challenge))\n            ),\n            \"Root hash doesn't match\"\n        );\n\n        ProfileStorage profileStorage = ProfileStorage(hub.getContractAddress(\"ProfileStorage\"));\n\n        // emit ProofSubmitted(\n        //     assetContract,\n        //     tokenId,\n        //     keyword,\n        //     hashingFunctionId,\n        //     identityId,\n        //     profileStorage.getNodeId(identityId)\n        // );\n\n        uint96 reward = (\n            serviceAgreements[agreementId].tokenAmount /\n            (serviceAgreements[agreementId].epochsNumber - epoch + 1) /\n            (parametersStorage.R0() - serviceAgreements[agreementId].rewardedNodes[epoch])\n        );\n\n        IERC20(hub.getContractAddress(\"Token\")).transfer(address(profileStorage), reward);\n\n        profileStorage.setReward(identityId, profileStorage.getReward(identityId) + reward);\n\n        serviceAgreements[agreementId].tokenAmount -= reward;\n        serviceAgreements[agreementId].rewardedNodes[epoch] += 1;\n\n        // To make sure that node already received reward\n        commitSubmissions[keccak256(abi.encodePacked(agreementId, epoch, identityId))].score = 0;\n    }\n\n    function setScoringFunction(bytes32 agreementId, uint8 newScoringFunctionId)\n        public\n        onlyAssetContracts\n    {\n        serviceAgreements[agreementId].scoringFunctionId = newScoringFunctionId;\n    }        \n\n    function _createServiceAgreementObject(\n        address operationalWallet,\n        bytes32 agreementId,\n        uint16 epochsNumber,\n        uint96 tokenAmount,\n        uint8 scoringFunctionId\n    )\n        private\n    {\n        ParametersStorage parametersStorage = ParametersStorage(hub.getContractAddress(\"ParametersStorage\"));\n\n        ServiceAgreement storage agreement = serviceAgreements[agreementId];\n        agreement.startTime = block.timestamp;\n        agreement.epochsNumber = epochsNumber;\n        agreement.epochLength = parametersStorage.epochLength();\n        agreement.proofWindowOffsetPerc = parametersStorage.minProofWindowOffsetPerc() + _generatePseudorandomUint8(\n            operationalWallet,\n            parametersStorage.maxProofWindowOffsetPerc() - parametersStorage.minProofWindowOffsetPerc() + 1\n        );\n        agreement.tokenAmount = tokenAmount;\n        agreement.scoringFunctionId = scoringFunctionId;\n    }\n\n    function _insertCommitAfter(bytes32 agreementId, uint16 epoch, uint96 prevIdentityId, CommitSubmission memory commit)\n        private\n    {\n        bytes32 commitId = keccak256(abi.encodePacked(agreementId, epoch, commit.identityId));\n\n        // Replacing head\n        if (prevIdentityId == 0) {\n            bytes32 epochSubmissionsHead = serviceAgreements[agreementId].epochSubmissionHeads[epoch];\n\n            uint96 prevHeadIdentityId = 0;\n            if(epochSubmissionsHead != \"\") {\n                CommitSubmission memory commitHead = commitSubmissions[epochSubmissionsHead];\n                prevHeadIdentityId = commitHead.identityId;\n\n                require(\n                    commit.score > commitHead.score,\n                    \"Score of the commit must be higher that the score of the head in order to replace it!\"\n                );\n            }\n\n            serviceAgreements[agreementId].epochSubmissionHeads[epoch] = commitId;\n            commitSubmissions[commitId] = commit;\n            _link_commits(agreementId, epoch, commit.identityId, prevHeadIdentityId);\n        }\n        else {\n            bytes32 prevCommitId = keccak256(abi.encodePacked(agreementId, epoch, prevIdentityId));\n            CommitSubmission memory prevCommit = commitSubmissions[prevCommitId];\n\n            require(\n                commit.score <= prevCommit.score,\n                \"Score of the commit must be less or equal to the one you want insert after!\"\n            );\n\n            uint96 nextIdentityId = prevCommit.nextIdentity;\n            if (nextIdentityId != 0) {\n                bytes32 nextCommitId = keccak256(abi.encodePacked(agreementId, epoch, nextIdentityId));\n                CommitSubmission memory nextCommit = commitSubmissions[nextCommitId];\n\n                require(\n                    commit.score >= nextCommit.score,\n                    \"Score of the commit must be greater or equal to the one you want insert before!\"\n                );\n            }\n\n            commitSubmissions[commitId] = commit;\n            _link_commits(agreementId, epoch, prevIdentityId, commit.identityId);\n            _link_commits(agreementId, epoch, commit.identityId, nextIdentityId);\n        }\n    }\n\n    function _link_commits(bytes32 agreementId, uint16 epoch, uint96 leftIdentityId, uint96 rightIdentityId)\n        private\n    {\n        bytes32 leftCommitId = keccak256(abi.encodePacked(agreementId, epoch, leftIdentityId));\n        commitSubmissions[leftCommitId].nextIdentity = rightIdentityId;\n    }\n\n    function _generateAgreementId(address assetContract, uint256 tokenId, bytes memory keyword, uint8 hashingFunctionId)\n        private\n        returns (bytes32)\n    {\n        HashingProxy hashingProxy = HashingProxy(hub.getContractAddress(\"HashingProxy\"));\n        return hashingProxy.callHashingFunction(hashingFunctionId, abi.encodePacked(assetContract, tokenId, keyword));\n    }\n\n    function _generatePseudorandomUint8(address sender, uint8 limit)\n        private\n        view\n        returns (uint8)\n    {\n        // TODO: Test type conversion\n        return uint8(uint256(keccak256(abi.encodePacked(block.timestamp, sender, block.number))) % limit);\n    }\n}\n",
  "sourcePath": "/Users/waving/Desktop/OriginTrail/dkg-evm-module/contracts/storage/ServiceAgreementStorage.sol",
  "compiler": {
    "name": "solc",
    "version": "0.8.14+commit.80d49f37.Emscripten.clang"
  },
  "schemaVersion": "3.4.10",
  "updatedAt": "2022-11-17T10:56:59.100Z",
  "devdoc": {
    "kind": "dev",
    "methods": {},
    "version": 1
  },
  "userdoc": {
    "kind": "user",
    "methods": {},
    "version": 1
  }
}