{
  "contractName": "ServiceAgreementStorageV1",
  "abi": [
    {
      "inputs": [
        {
          "internalType": "address",
          "name": "hubAddress",
          "type": "address"
        }
      ],
      "stateMutability": "nonpayable",
      "type": "constructor"
    },
    {
      "inputs": [],
      "name": "hub",
      "outputs": [
        {
          "internalType": "contract Hub",
          "name": "",
          "type": "address"
        }
      ],
      "stateMutability": "view",
      "type": "function",
      "constant": true
    },
    {
      "inputs": [],
      "name": "tokenContract",
      "outputs": [
        {
          "internalType": "contract IERC20",
          "name": "",
          "type": "address"
        }
      ],
      "stateMutability": "view",
      "type": "function",
      "constant": true
    },
    {
      "inputs": [],
      "name": "initialize",
      "outputs": [],
      "stateMutability": "nonpayable",
      "type": "function"
    },
    {
      "inputs": [],
      "name": "name",
      "outputs": [
        {
          "internalType": "string",
          "name": "",
          "type": "string"
        }
      ],
      "stateMutability": "pure",
      "type": "function",
      "constant": true
    },
    {
      "inputs": [],
      "name": "version",
      "outputs": [
        {
          "internalType": "string",
          "name": "",
          "type": "string"
        }
      ],
      "stateMutability": "pure",
      "type": "function",
      "constant": true
    },
    {
      "inputs": [
        {
          "internalType": "bytes32",
          "name": "agreementId",
          "type": "bytes32"
        },
        {
          "internalType": "uint16",
          "name": "epochsNumber",
          "type": "uint16"
        },
        {
          "internalType": "uint128",
          "name": "epochLength",
          "type": "uint128"
        },
        {
          "internalType": "uint96",
          "name": "tokenAmount",
          "type": "uint96"
        },
        {
          "internalType": "uint8",
          "name": "scoreFunctionId",
          "type": "uint8"
        },
        {
          "internalType": "uint8",
          "name": "proofWindowOffsetPerc",
          "type": "uint8"
        }
      ],
      "name": "createServiceAgreementObject",
      "outputs": [],
      "stateMutability": "nonpayable",
      "type": "function"
    },
    {
      "inputs": [
        {
          "internalType": "bytes32",
          "name": "agreementId",
          "type": "bytes32"
        }
      ],
      "name": "getAgreementData",
      "outputs": [
        {
          "internalType": "uint256",
          "name": "",
          "type": "uint256"
        },
        {
          "internalType": "uint16",
          "name": "",
          "type": "uint16"
        },
        {
          "internalType": "uint128",
          "name": "",
          "type": "uint128"
        },
        {
          "internalType": "uint96",
          "name": "",
          "type": "uint96"
        },
        {
          "internalType": "uint8[2]",
          "name": "",
          "type": "uint8[2]"
        }
      ],
      "stateMutability": "view",
      "type": "function",
      "constant": true
    },
    {
      "inputs": [
        {
          "internalType": "bytes32",
          "name": "agreementId",
          "type": "bytes32"
        }
      ],
      "name": "getAgreementStartTime",
      "outputs": [
        {
          "internalType": "uint256",
          "name": "",
          "type": "uint256"
        }
      ],
      "stateMutability": "view",
      "type": "function",
      "constant": true
    },
    {
      "inputs": [
        {
          "internalType": "bytes32",
          "name": "agreementId",
          "type": "bytes32"
        },
        {
          "internalType": "uint256",
          "name": "startTime",
          "type": "uint256"
        }
      ],
      "name": "setAgreementStartTime",
      "outputs": [],
      "stateMutability": "nonpayable",
      "type": "function"
    },
    {
      "inputs": [
        {
          "internalType": "bytes32",
          "name": "agreementId",
          "type": "bytes32"
        }
      ],
      "name": "getAgreementEpochsNumber",
      "outputs": [
        {
          "internalType": "uint16",
          "name": "",
          "type": "uint16"
        }
      ],
      "stateMutability": "view",
      "type": "function",
      "constant": true
    },
    {
      "inputs": [
        {
          "internalType": "bytes32",
          "name": "agreementId",
          "type": "bytes32"
        },
        {
          "internalType": "uint16",
          "name": "epochsNumber",
          "type": "uint16"
        }
      ],
      "name": "setAgreementEpochsNumber",
      "outputs": [],
      "stateMutability": "nonpayable",
      "type": "function"
    },
    {
      "inputs": [
        {
          "internalType": "bytes32",
          "name": "agreementId",
          "type": "bytes32"
        }
      ],
      "name": "getAgreementEpochLength",
      "outputs": [
        {
          "internalType": "uint128",
          "name": "",
          "type": "uint128"
        }
      ],
      "stateMutability": "view",
      "type": "function",
      "constant": true
    },
    {
      "inputs": [
        {
          "internalType": "bytes32",
          "name": "agreementId",
          "type": "bytes32"
        },
        {
          "internalType": "uint128",
          "name": "epochLength",
          "type": "uint128"
        }
      ],
      "name": "setAgreementEpochLength",
      "outputs": [],
      "stateMutability": "nonpayable",
      "type": "function"
    },
    {
      "inputs": [
        {
          "internalType": "bytes32",
          "name": "agreementId",
          "type": "bytes32"
        }
      ],
      "name": "getAgreementTokenAmount",
      "outputs": [
        {
          "internalType": "uint96",
          "name": "",
          "type": "uint96"
        }
      ],
      "stateMutability": "view",
      "type": "function",
      "constant": true
    },
    {
      "inputs": [
        {
          "internalType": "bytes32",
          "name": "agreementId",
          "type": "bytes32"
        },
        {
          "internalType": "uint96",
          "name": "tokenAmount",
          "type": "uint96"
        }
      ],
      "name": "setAgreementTokenAmount",
      "outputs": [],
      "stateMutability": "nonpayable",
      "type": "function"
    },
    {
      "inputs": [
        {
          "internalType": "bytes32",
          "name": "agreementId",
          "type": "bytes32"
        }
      ],
      "name": "getAgreementScoreFunctionId",
      "outputs": [
        {
          "internalType": "uint8",
          "name": "",
          "type": "uint8"
        }
      ],
      "stateMutability": "view",
      "type": "function",
      "constant": true
    },
    {
      "inputs": [
        {
          "internalType": "bytes32",
          "name": "agreementId",
          "type": "bytes32"
        },
        {
          "internalType": "uint8",
          "name": "newScoreFunctionId",
          "type": "uint8"
        }
      ],
      "name": "setAgreementScoreFunctionId",
      "outputs": [],
      "stateMutability": "nonpayable",
      "type": "function"
    },
    {
      "inputs": [
        {
          "internalType": "bytes32",
          "name": "agreementId",
          "type": "bytes32"
        }
      ],
      "name": "getAgreementProofWindowOffsetPerc",
      "outputs": [
        {
          "internalType": "uint8",
          "name": "",
          "type": "uint8"
        }
      ],
      "stateMutability": "view",
      "type": "function",
      "constant": true
    },
    {
      "inputs": [
        {
          "internalType": "bytes32",
          "name": "agreementId",
          "type": "bytes32"
        },
        {
          "internalType": "uint8",
          "name": "proofWindowOffsetPerc",
          "type": "uint8"
        }
      ],
      "name": "setAgreementProofWindowOffsetPerc",
      "outputs": [],
      "stateMutability": "nonpayable",
      "type": "function"
    },
    {
      "inputs": [
        {
          "internalType": "bytes32",
          "name": "agreementId",
          "type": "bytes32"
        },
        {
          "internalType": "uint16",
          "name": "epoch",
          "type": "uint16"
        }
      ],
      "name": "getAgreementEpochSubmissionHead",
      "outputs": [
        {
          "internalType": "bytes32",
          "name": "",
          "type": "bytes32"
        }
      ],
      "stateMutability": "view",
      "type": "function",
      "constant": true
    },
    {
      "inputs": [
        {
          "internalType": "bytes32",
          "name": "agreementId",
          "type": "bytes32"
        },
        {
          "internalType": "uint16",
          "name": "epoch",
          "type": "uint16"
        },
        {
          "internalType": "bytes32",
          "name": "headCommitId",
          "type": "bytes32"
        }
      ],
      "name": "setAgreementEpochSubmissionHead",
      "outputs": [],
      "stateMutability": "nonpayable",
      "type": "function"
    },
    {
      "inputs": [
        {
          "internalType": "bytes32",
          "name": "agreementId",
          "type": "bytes32"
        },
        {
          "internalType": "uint16",
          "name": "epoch",
          "type": "uint16"
        }
      ],
      "name": "incrementAgreementRewardedNodesNumber",
      "outputs": [],
      "stateMutability": "nonpayable",
      "type": "function"
    },
    {
      "inputs": [
        {
          "internalType": "bytes32",
          "name": "agreementId",
          "type": "bytes32"
        },
        {
          "internalType": "uint16",
          "name": "epoch",
          "type": "uint16"
        }
      ],
      "name": "decrementAgreementRewardedNodesNumber",
      "outputs": [],
      "stateMutability": "nonpayable",
      "type": "function"
    },
    {
      "inputs": [
        {
          "internalType": "bytes32",
          "name": "agreementId",
          "type": "bytes32"
        },
        {
          "internalType": "uint16",
          "name": "epoch",
          "type": "uint16"
        }
      ],
      "name": "getAgreementRewardedNodesNumber",
      "outputs": [
        {
          "internalType": "uint32",
          "name": "",
          "type": "uint32"
        }
      ],
      "stateMutability": "view",
      "type": "function",
      "constant": true
    },
    {
      "inputs": [
        {
          "internalType": "bytes32",
          "name": "agreementId",
          "type": "bytes32"
        },
        {
          "internalType": "uint16",
          "name": "epoch",
          "type": "uint16"
        },
        {
          "internalType": "uint32",
          "name": "rewardedNodesNumber",
          "type": "uint32"
        }
      ],
      "name": "setAgreementRewardedNodesNumber",
      "outputs": [],
      "stateMutability": "nonpayable",
      "type": "function"
    },
    {
      "inputs": [
        {
          "internalType": "bytes32",
          "name": "agreementId",
          "type": "bytes32"
        }
      ],
      "name": "serviceAgreementExists",
      "outputs": [
        {
          "internalType": "bool",
          "name": "",
          "type": "bool"
        }
      ],
      "stateMutability": "view",
      "type": "function",
      "constant": true
    },
    {
      "inputs": [
        {
          "internalType": "bytes32",
          "name": "commitId",
          "type": "bytes32"
        },
        {
          "internalType": "uint72",
          "name": "identityId",
          "type": "uint72"
        },
        {
          "internalType": "uint72",
          "name": "prevIdentityId",
          "type": "uint72"
        },
        {
          "internalType": "uint72",
          "name": "nextIdentityId",
          "type": "uint72"
        },
        {
          "internalType": "uint40",
          "name": "score",
          "type": "uint40"
        }
      ],
      "name": "createCommitSubmissionObject",
      "outputs": [],
      "stateMutability": "nonpayable",
      "type": "function"
    },
    {
      "inputs": [
        {
          "internalType": "bytes32",
          "name": "commitId",
          "type": "bytes32"
        }
      ],
      "name": "getCommitSubmission",
      "outputs": [
        {
          "components": [
            {
              "internalType": "uint72",
              "name": "identityId",
              "type": "uint72"
            },
            {
              "internalType": "uint72",
              "name": "prevIdentityId",
              "type": "uint72"
            },
            {
              "internalType": "uint72",
              "name": "nextIdentityId",
              "type": "uint72"
            },
            {
              "internalType": "uint40",
              "name": "score",
              "type": "uint40"
            }
          ],
          "internalType": "struct ServiceAgreementStructsV1.CommitSubmission",
          "name": "",
          "type": "tuple"
        }
      ],
      "stateMutability": "view",
      "type": "function",
      "constant": true
    },
    {
      "inputs": [
        {
          "internalType": "bytes32",
          "name": "commitId",
          "type": "bytes32"
        }
      ],
      "name": "getCommitSubmissionsIdentityId",
      "outputs": [
        {
          "internalType": "uint72",
          "name": "",
          "type": "uint72"
        }
      ],
      "stateMutability": "view",
      "type": "function",
      "constant": true
    },
    {
      "inputs": [
        {
          "internalType": "bytes32",
          "name": "commitId",
          "type": "bytes32"
        },
        {
          "internalType": "uint72",
          "name": "identityId",
          "type": "uint72"
        }
      ],
      "name": "setCommitSubmissionIdentityId",
      "outputs": [],
      "stateMutability": "nonpayable",
      "type": "function"
    },
    {
      "inputs": [
        {
          "internalType": "bytes32",
          "name": "commitId",
          "type": "bytes32"
        }
      ],
      "name": "getCommitSubmissionPrevIdentityId",
      "outputs": [
        {
          "internalType": "uint72",
          "name": "",
          "type": "uint72"
        }
      ],
      "stateMutability": "view",
      "type": "function",
      "constant": true
    },
    {
      "inputs": [
        {
          "internalType": "bytes32",
          "name": "commitId",
          "type": "bytes32"
        },
        {
          "internalType": "uint72",
          "name": "prevIdentityId",
          "type": "uint72"
        }
      ],
      "name": "setCommitSubmissionPrevIdentityId",
      "outputs": [],
      "stateMutability": "nonpayable",
      "type": "function"
    },
    {
      "inputs": [
        {
          "internalType": "bytes32",
          "name": "commitId",
          "type": "bytes32"
        }
      ],
      "name": "getCommitSubmissionNextIdentityId",
      "outputs": [
        {
          "internalType": "uint72",
          "name": "",
          "type": "uint72"
        }
      ],
      "stateMutability": "view",
      "type": "function",
      "constant": true
    },
    {
      "inputs": [
        {
          "internalType": "bytes32",
          "name": "commitId",
          "type": "bytes32"
        },
        {
          "internalType": "uint72",
          "name": "nextIdentityId",
          "type": "uint72"
        }
      ],
      "name": "setCommitSubmissionNextIdentityId",
      "outputs": [],
      "stateMutability": "nonpayable",
      "type": "function"
    },
    {
      "inputs": [
        {
          "internalType": "bytes32",
          "name": "commitId",
          "type": "bytes32"
        }
      ],
      "name": "getCommitSubmissionScore",
      "outputs": [
        {
          "internalType": "uint40",
          "name": "",
          "type": "uint40"
        }
      ],
      "stateMutability": "view",
      "type": "function",
      "constant": true
    },
    {
      "inputs": [
        {
          "internalType": "bytes32",
          "name": "commitId",
          "type": "bytes32"
        },
        {
          "internalType": "uint40",
          "name": "score",
          "type": "uint40"
        }
      ],
      "name": "setCommitSubmissionScore",
      "outputs": [],
      "stateMutability": "nonpayable",
      "type": "function"
    },
    {
      "inputs": [
        {
          "internalType": "bytes32",
          "name": "commitId",
          "type": "bytes32"
        }
      ],
      "name": "commitSubmissionExists",
      "outputs": [
        {
          "internalType": "bool",
          "name": "",
          "type": "bool"
        }
      ],
      "stateMutability": "view",
      "type": "function",
      "constant": true
    },
    {
      "inputs": [
        {
          "internalType": "address",
          "name": "receiver",
          "type": "address"
        },
        {
          "internalType": "uint96",
          "name": "rewardAmount",
          "type": "uint96"
        }
      ],
      "name": "transferReward",
      "outputs": [],
      "stateMutability": "nonpayable",
      "type": "function"
    }
  ],
  "bytecode": "0x60806040523480156200001157600080fd5b506040516200185338038062001853833981016040819052620000349162000204565b6001600160a01b0381166200004857600080fd5b600080546001600160a01b0319166001600160a01b0383161790556200006d62000074565b5062000236565b6200007e62000125565b600054604051630110ceef60e21b81526020600482015260056024820152642a37b5b2b760d91b60448201526001600160a01b03909116906304433bbc90606401602060405180830381865afa158015620000dd573d6000803e3d6000fd5b505050506040513d601f19601f8201168201806040525081019062000103919062000204565b600180546001600160a01b0319166001600160a01b0392909216919091179055565b60008054906101000a90046001600160a01b03166001600160a01b0316638da5cb5b6040518163ffffffff1660e01b8152600401602060405180830381865afa15801562000177573d6000803e3d6000fd5b505050506040513d601f19601f820116820180604052508101906200019d919062000204565b6001600160a01b0316336001600160a01b031614620002025760405162461bcd60e51b815260206004820181905260248201527f466e2063616e206f6e6c79206265207573656420627920687562206f776e6572604482015260640160405180910390fd5b565b6000602082840312156200021757600080fd5b81516001600160a01b03811681146200022f57600080fd5b9392505050565b61160d80620002466000396000f3fe608060405234801561001057600080fd5b50600436106102325760003560e01c806388f6df5611610130578063b67b6e1e116100b8578063cf57ca2f1161007c578063cf57ca2f146107d5578063d1a640c7146107e8578063d2692b3114610822578063e184b9e814610835578063e54b26ff1461084857600080fd5b8063b67b6e1e14610727578063beca40f314610757578063c45d17491461076a578063cb327c7d14610795578063ce60dc61146107a857600080fd5b80639c70b3c0116100ff5780639c70b3c01461067f578063a63148961461069f578063ac64112e146106b2578063ac9d7cf4146106c5578063b2ffa9971461071457600080fd5b806388f6df561461054057806388f7a9b4146105535780638a0f01b51461062d57806399149f771461064057600080fd5b8063484a47e7116101be5780635c6c1fef116101825780635c6c1fef1461048b5780636441a276146104cf5780636ff015ae146104e25780638129fc1c1461050657806386e0cc881461050e57600080fd5b8063484a47e7146103b75780634c72fefc1461040157806354fd4d501461041457806355a373d614610435578063572943f71461044857600080fd5b8063365a86fc11610205578063365a86fc146102eb5780633c96f02b146103165780633d631716146103465780634089a17d146103595780634750b9f4146103a457600080fd5b8063038fed731461023757806306fdde031461024c57806308feb20b146102975780630f3a549d146102d8575b600080fd5b61024a61024536600461115b565b61085b565b005b60408051808201909152601981527f5365727669636541677265656d656e7453746f7261676556310000000000000060208201525b60405161028e919061117d565b60405180910390f35b6102c06102a53660046111cb565b6000908152600260205260409020546001600160481b031690565b6040516001600160481b03909116815260200161028e565b61024a6102e63660046111fb565b610875565b6000546102fe906001600160a01b031681565b6040516001600160a01b03909116815260200161028e565b6102c06103243660046111cb565b600090815260026020526040902054600160481b90046001600160481b031690565b61024a61035436600461123c565b6108a4565b61038c6103673660046111cb565b600090815260036020526040902060010154600160901b90046001600160601b031690565b6040516001600160601b03909116815260200161028e565b61024a6103b2366004611276565b6108df565b6103e96103c53660046111cb565b6000908152600360205260409020600101546201000090046001600160801b031690565b6040516001600160801b03909116815260200161028e565b61024a61040f3660046112d8565b610917565b6040805180820190915260058152640312e302e360dc1b6020820152610281565b6001546102fe906001600160a01b031681565b61047d6104563660046111fb565b600082815260036020908152604080832061ffff8516845260020190915290205492915050565b60405190815260200161028e565b6104b96104993660046111cb565b600090815260026020526040902054600160d81b900464ffffffffff1690565b60405164ffffffffff909116815260200161028e565b61024a6104dd366004611345565b6109b9565b6104f56104f03660046111cb565b6109f1565b60405161028e959493929190611368565b61024a610a73565b61053061051c3660046111cb565b600090815260036020526040902054151590565b604051901515815260200161028e565b61024a61054e3660046113d2565b610b1f565b6105e66105613660046111cb565b60408051608081018252600080825260208201819052918101829052606081019190915250600090815260026020908152604091829020825160808101845290546001600160481b038082168352600160481b8204811693830193909352600160901b810490921692810192909252600160d81b900464ffffffffff16606082015290565b6040805182516001600160481b03908116825260208085015182169083015283830151169181019190915260609182015164ffffffffff169181019190915260800161028e565b61024a61063b366004611276565b610b4c565b61066d61064e3660046111cb565b600090815260036020526040902060010154600160f81b900460ff1690565b60405160ff909116815260200161028e565b61047d61068d3660046111cb565b60009081526003602052604090205490565b61024a6106ad366004611407565b610b8f565b61024a6106c0366004611345565b610bda565b6106ff6106d33660046111fb565b600082815260036020818152604080842061ffff86168552909201905290205463ffffffff1692915050565b60405163ffffffff909116815260200161028e565b61024a6107223660046111fb565b610c14565b6102c06107353660046111cb565b600090815260026020526040902054600160901b90046001600160481b031690565b61024a6107653660046111fb565b610c70565b6105306107783660046111cb565b6000908152600260205260409020546001600160481b0316151590565b61024a6107a336600461142a565b610ca9565b61066d6107b63660046111cb565b600090815260036020526040902060010154600160f01b900460ff1690565b61024a6107e3366004611473565b610cec565b61080f6107f63660046111cb565b60009081526003602052604090206001015461ffff1690565b60405161ffff909116815260200161028e565b61024a6108303660046114e9565b610da7565b61024a610843366004611276565b610e33565b61024a610856366004611515565b610e7c565b610863610ec5565b60009182526003602052604090912055565b61087d610ec5565b600091825260036020526040909120600101805461ffff191661ffff909216919091179055565b6108ac610ec5565b600091825260026020526040909120805464ffffffffff909216600160d81b026001600160d81b03909216919091179055565b6108e7610ec5565b600091825260026020526040909120805468ffffffffffffffffff19166001600160481b03909216919091179055565b61091f610ec5565b600095865260036020526040909520428155600101805460ff968716600160f81b026001600160f81b0397909316600160f01b0260ff60f01b196001600160601b03909516600160901b02949094166cffffffffffffffffffffffffff60901b196001600160801b0390961662010000026001600160901b031990921661ffff909716969096171793909316939093171792909216179055565b6109c1610ec5565b600091825260036020526040909120600101805460ff909216600160f01b0260ff60f01b19909216919091179055565b6000806000806109ff61113d565b505050600083815260036020818152604080842080546001909101548251808401909352600160f01b810460ff908116845298909552928252600160f81b8404909616908601529461ffff8216946201000083046001600160801b03169450600160901b9092046001600160601b03169250565b610a7b610f84565b600054604051630110ceef60e21b81526020600482015260056024820152642a37b5b2b760d91b60448201526001600160a01b03909116906304433bbc90606401602060405180830381865afa158015610ad9573d6000803e3d6000fd5b505050506040513d601f19601f82011682018060405250810190610afd9190611538565b600180546001600160a01b0319166001600160a01b0392909216919091179055565b610b27610ec5565b600092835260036020908152604080852061ffff909416855260029093019052912055565b610b54610ec5565b60009182526002602052604090912080546001600160481b03909216600160901b0268ffffffffffffffffff60901b19909216919091179055565b610b97610ec5565b60009182526003602052604090912060010180546001600160801b03909216620100000271ffffffffffffffffffffffffffffffff000019909216919091179055565b610be2610ec5565b600091825260036020526040909120600101805460ff909216600160f81b026001600160f81b03909216919091179055565b610c1c610ec5565b600082815260036020818152604080842061ffff8616855290920190528120805463ffffffff1691610c4d83611572565b91906101000a81548163ffffffff021916908363ffffffff160217905550505050565b610c78610ec5565b600082815260036020818152604080842061ffff8616855290920190528120805463ffffffff1691610c4d83611592565b610cb1610ec5565b600092835260036020818152604080862061ffff9590951686529390910190529120805463ffffffff191663ffffffff909216919091179055565b610cf4610ec5565b604080516080810182526001600160481b039586168152938516602080860191825293861685830190815264ffffffffff938416606087019081526000988952600290955291909620935184549651915193519086166001600160901b031990971696909617600160481b918616919091021771ffffffffffffffffffffffffffffffffffff16600160901b92909416919091026001600160d81b031692909217600160d81b9390921692909202179055565b610daf611059565b60015460405163a9059cbb60e01b81526001600160a01b0384811660048301526001600160601b03841660248301529091169063a9059cbb906044016020604051808303816000875af1158015610e0a573d6000803e3d6000fd5b505050506040513d601f19601f82011682018060405250810190610e2e91906115b5565b505050565b610e3b610ec5565b60009182526002602052604090912080546001600160481b03909216600160481b0271ffffffffffffffffff00000000000000000019909216919091179055565b610e84610ec5565b60009182526003602052604090912060010180546001600160601b03909216600160901b026bffffffffffffffffffffffff60901b19909216919091179055565b600054604051631627905560e01b81523360048201526001600160a01b0390911690631627905590602401602060405180830381865afa158015610f0d573d6000803e3d6000fd5b505050506040513d601f19601f82011682018060405250810190610f3191906115b5565b610f825760405162461bcd60e51b815260206004820181905260248201527f466e2063616e206f6e6c792062652063616c6c6564206279207468652068756260448201526064015b60405180910390fd5b565b60008054906101000a90046001600160a01b03166001600160a01b0316638da5cb5b6040518163ffffffff1660e01b8152600401602060405180830381865afa158015610fd5573d6000803e3d6000fd5b505050506040513d601f19601f82011682018060405250810190610ff99190611538565b6001600160a01b0316336001600160a01b031614610f825760405162461bcd60e51b815260206004820181905260248201527f466e2063616e206f6e6c79206265207573656420627920687562206f776e65726044820152606401610f79565b600054604051630110ceef60e21b81526020600482015260076024820152665374616b696e6760c81b60448201526001600160a01b03909116906304433bbc90606401602060405180830381865afa1580156110b9573d6000803e3d6000fd5b505050506040513d601f19601f820116820180604052508101906110dd9190611538565b6001600160a01b0316336001600160a01b031614610f825760405162461bcd60e51b815260206004820181905260248201527f466e2063616e206f6e6c792062652063616c6c6564206279207374616b696e676044820152606401610f79565b60405180604001604052806002906020820280368337509192915050565b6000806040838503121561116e57600080fd5b50508035926020909101359150565b600060208083528351808285015260005b818110156111aa5785810183015185820160400152820161118e565b506000604082860101526040601f19601f8301168501019250505092915050565b6000602082840312156111dd57600080fd5b5035919050565b803561ffff811681146111f657600080fd5b919050565b6000806040838503121561120e57600080fd5b8235915061121e602084016111e4565b90509250929050565b803564ffffffffff811681146111f657600080fd5b6000806040838503121561124f57600080fd5b8235915061121e60208401611227565b80356001600160481b03811681146111f657600080fd5b6000806040838503121561128957600080fd5b8235915061121e6020840161125f565b80356001600160801b03811681146111f657600080fd5b80356001600160601b03811681146111f657600080fd5b803560ff811681146111f657600080fd5b60008060008060008060c087890312156112f157600080fd5b86359550611301602088016111e4565b945061130f60408801611299565b935061131d606088016112b0565b925061132b608088016112c7565b915061133960a088016112c7565b90509295509295509295565b6000806040838503121561135857600080fd5b8235915061121e602084016112c7565b600060c082019050868252602061ffff8716818401526001600160801b03861660408401526001600160601b0385166060840152608083018460005b60028110156113c457815160ff16835291830191908301906001016113a4565b505050509695505050505050565b6000806000606084860312156113e757600080fd5b833592506113f7602085016111e4565b9150604084013590509250925092565b6000806040838503121561141a57600080fd5b8235915061121e60208401611299565b60008060006060848603121561143f57600080fd5b8335925061144f602085016111e4565b9150604084013563ffffffff8116811461146857600080fd5b809150509250925092565b600080600080600060a0868803121561148b57600080fd5b8535945061149b6020870161125f565b93506114a96040870161125f565b92506114b76060870161125f565b91506114c560808701611227565b90509295509295909350565b6001600160a01b03811681146114e657600080fd5b50565b600080604083850312156114fc57600080fd5b8235611507816114d1565b915061121e602084016112b0565b6000806040838503121561152857600080fd5b8235915061121e602084016112b0565b60006020828403121561154a57600080fd5b8151611555816114d1565b9392505050565b634e487b7160e01b600052601160045260246000fd5b600063ffffffff8216806115885761158861155c565b6000190192915050565b600063ffffffff8083168181036115ab576115ab61155c565b6001019392505050565b6000602082840312156115c757600080fd5b8151801515811461155557600080fdfea264697066735822122030d1863f501f2738cfcd3b3cc013f8ef5eb9b4e4dac9ced5bbb04b906704e41564736f6c63430008100033",
  "immutableReferences": {},
  "source": "// SPDX-License-Identifier: MIT\n\npragma solidity ^0.8.4;\n\nimport { Hub } from \"../Hub.sol\";\nimport { Named } from \"../interface/Named.sol\";\nimport { Versioned } from \"../interface/Versioned.sol\";\nimport { ServiceAgreementStructsV1 } from \"../structs/ServiceAgreementStructsV1.sol\";\nimport { IERC20 } from \"@openzeppelin/contracts/token/ERC20/IERC20.sol\";\n\ncontract ServiceAgreementStorageV1 is Named, Versioned {\n\n    string constant private _NAME = \"ServiceAgreementStorageV1\";\n    string constant private _VERSION = \"1.0.0\";\n\n    Hub public hub;\n    IERC20 public tokenContract;\n\n    // CommitId [keccak256(agreementId + epoch + identityId)] => CommitSubmission\n    mapping(bytes32 => ServiceAgreementStructsV1.CommitSubmission) commitSubmissions;\n\n    // AgreementId [hash(asset type contract + tokenId + key)] => ServiceAgreement\n    mapping(bytes32 => ServiceAgreementStructsV1.ServiceAgreement) serviceAgreements;\n\n    constructor (address hubAddress) {\n        require(hubAddress != address(0));\n\n        hub = Hub(hubAddress);\n        initialize();\n    }\n\n    function initialize() public onlyHubOwner {\n        tokenContract = IERC20(hub.getContractAddress(\"Token\"));\n    }\n\n    modifier onlyHubOwner() {\n        _checkHubOwner();\n        _;\n    }\n\n    modifier onlyContracts() {\n        _checkHub();\n        _;\n    }\n\n    modifier onlyStakingContract() {\n        _checkStakingContract();\n        _;\n    }\n\n    function name() external pure virtual override returns (string memory) {\n        return _NAME;\n    }\n\n    function version() external pure virtual override returns (string memory) {\n        return _VERSION;\n    }\n\n    function createServiceAgreementObject(\n        bytes32 agreementId,\n        uint16 epochsNumber,\n        uint128 epochLength,\n        uint96 tokenAmount,\n        uint8 scoreFunctionId,\n        uint8 proofWindowOffsetPerc\n    )\n        external\n        onlyContracts\n    {\n        ServiceAgreementStructsV1.ServiceAgreement storage agreement = serviceAgreements[agreementId];\n        agreement.startTime = block.timestamp;\n        agreement.epochsNumber = epochsNumber;\n        agreement.epochLength = epochLength;\n        agreement.tokenAmount = tokenAmount;\n        agreement.scoreFunctionId = scoreFunctionId;\n        agreement.proofWindowOffsetPerc = proofWindowOffsetPerc;\n    }\n\n    function getAgreementData(bytes32 agreementId)\n        external\n        view\n        returns (uint256, uint16, uint128, uint96, uint8[2] memory)\n    {\n        return (\n            serviceAgreements[agreementId].startTime,\n            serviceAgreements[agreementId].epochsNumber,\n            serviceAgreements[agreementId].epochLength,\n            serviceAgreements[agreementId].tokenAmount,\n            [\n                serviceAgreements[agreementId].scoreFunctionId,\n                serviceAgreements[agreementId].proofWindowOffsetPerc\n            ]\n        );\n    }\n\n    function getAgreementStartTime(bytes32 agreementId) external view returns (uint256) {\n        return serviceAgreements[agreementId].startTime;\n    }\n\n    function setAgreementStartTime(bytes32 agreementId, uint256 startTime) external onlyContracts {\n        serviceAgreements[agreementId].startTime = startTime;\n    }\n\n    function getAgreementEpochsNumber(bytes32 agreementId) external view returns (uint16) {\n        return serviceAgreements[agreementId].epochsNumber;\n    }\n\n    function setAgreementEpochsNumber(bytes32 agreementId, uint16 epochsNumber) external onlyContracts {\n        serviceAgreements[agreementId].epochsNumber = epochsNumber;\n    }\n\n    function getAgreementEpochLength(bytes32 agreementId) external view returns (uint128) {\n        return serviceAgreements[agreementId].epochLength;\n    }\n\n    function setAgreementEpochLength(bytes32 agreementId, uint128 epochLength) external onlyContracts {\n        serviceAgreements[agreementId].epochLength = epochLength;\n    }\n\n    function getAgreementTokenAmount(bytes32 agreementId) external view returns (uint96) {\n        return serviceAgreements[agreementId].tokenAmount;\n    }\n\n    function setAgreementTokenAmount(bytes32 agreementId, uint96 tokenAmount) external onlyContracts {\n        serviceAgreements[agreementId].tokenAmount = tokenAmount;\n    }\n\n    function getAgreementScoreFunctionId(bytes32 agreementId) external view returns (uint8) {\n        return serviceAgreements[agreementId].scoreFunctionId;\n    }\n\n    function setAgreementScoreFunctionId(bytes32 agreementId, uint8 newScoreFunctionId) external onlyContracts {\n        serviceAgreements[agreementId].scoreFunctionId = newScoreFunctionId;\n    }\n\n    function getAgreementProofWindowOffsetPerc(bytes32 agreementId) external view returns (uint8) {\n        return serviceAgreements[agreementId].proofWindowOffsetPerc;\n    }\n\n    function setAgreementProofWindowOffsetPerc(bytes32 agreementId, uint8 proofWindowOffsetPerc)\n        external\n        onlyContracts\n    {\n        serviceAgreements[agreementId].proofWindowOffsetPerc = proofWindowOffsetPerc;\n    }\n\n    function getAgreementEpochSubmissionHead(bytes32 agreementId, uint16 epoch) external view returns (bytes32) {\n        return serviceAgreements[agreementId].epochSubmissionHeads[epoch];\n    }\n\n    function setAgreementEpochSubmissionHead(bytes32 agreementId, uint16 epoch, bytes32 headCommitId)\n        external\n        onlyContracts\n    {\n        serviceAgreements[agreementId].epochSubmissionHeads[epoch] = headCommitId;\n    }\n\n    function incrementAgreementRewardedNodesNumber(bytes32 agreementId, uint16 epoch) external onlyContracts {\n        serviceAgreements[agreementId].rewardedNodesNumber[epoch]++;\n    }\n\n    function decrementAgreementRewardedNodesNumber(bytes32 agreementId, uint16 epoch) external onlyContracts {\n        serviceAgreements[agreementId].rewardedNodesNumber[epoch]--;\n    }\n\n    function getAgreementRewardedNodesNumber(bytes32 agreementId, uint16 epoch) external view returns (uint32) {\n        return serviceAgreements[agreementId].rewardedNodesNumber[epoch];\n    }\n\n    function setAgreementRewardedNodesNumber(bytes32 agreementId, uint16 epoch, uint32 rewardedNodesNumber)\n        external\n        onlyContracts\n    {\n        serviceAgreements[agreementId].rewardedNodesNumber[epoch] = rewardedNodesNumber;\n    }\n\n    function serviceAgreementExists(bytes32 agreementId) external view returns (bool) {\n        return serviceAgreements[agreementId].startTime != 0;\n    }\n\n    function createCommitSubmissionObject(\n        bytes32 commitId,\n        uint72 identityId,\n        uint72 prevIdentityId,\n        uint72 nextIdentityId,\n        uint40 score\n    )\n        external\n        onlyContracts\n    {\n        commitSubmissions[commitId] = ServiceAgreementStructsV1.CommitSubmission({\n            identityId: identityId,\n            prevIdentityId: prevIdentityId,\n            nextIdentityId: nextIdentityId,\n            score: score\n        });\n    }\n\n    function getCommitSubmission(bytes32 commitId)\n        external\n        view\n        returns (ServiceAgreementStructsV1.CommitSubmission memory)\n    {\n        return commitSubmissions[commitId];\n    }\n\n    function getCommitSubmissionsIdentityId(bytes32 commitId) external view returns (uint72) {\n        return commitSubmissions[commitId].identityId;\n    }\n\n    function setCommitSubmissionIdentityId(bytes32 commitId, uint72 identityId) external onlyContracts {\n        commitSubmissions[commitId].identityId = identityId;\n    }\n\n    function getCommitSubmissionPrevIdentityId(bytes32 commitId) external view returns (uint72) {\n        return commitSubmissions[commitId].prevIdentityId;\n    }\n\n    function setCommitSubmissionPrevIdentityId(bytes32 commitId, uint72 prevIdentityId) external onlyContracts {\n        commitSubmissions[commitId].prevIdentityId = prevIdentityId;\n    }\n\n    function getCommitSubmissionNextIdentityId(bytes32 commitId) external view returns (uint72) {\n        return commitSubmissions[commitId].nextIdentityId;\n    }\n\n    function setCommitSubmissionNextIdentityId(bytes32 commitId, uint72 nextIdentityId) external onlyContracts {\n        commitSubmissions[commitId].nextIdentityId = nextIdentityId;\n    }\n\n    function getCommitSubmissionScore(bytes32 commitId) external view returns (uint40) {\n        return commitSubmissions[commitId].score;\n    }\n\n    function setCommitSubmissionScore(bytes32 commitId, uint40 score) external onlyContracts {\n        commitSubmissions[commitId].score = score;\n    }\n\n    function commitSubmissionExists(bytes32 commitId) external view returns (bool) {\n        return commitSubmissions[commitId].identityId != 0;\n    }\n\n    function transferReward(address receiver, uint96 rewardAmount) external onlyStakingContract {\n        tokenContract.transfer(receiver, rewardAmount);\n    }\n\n    function _checkHub() internal view virtual {\n        require(hub.isContract(msg.sender), \"Fn can only be called by the hub\");\n    }\n\n    function _checkHubOwner() internal view virtual {\n        require(msg.sender == hub.owner(), \"Fn can only be used by hub owner\");\n    }\n\n    function _checkStakingContract() internal view virtual {\n        require(msg.sender == hub.getContractAddress(\"Staking\"), \"Fn can only be called by staking\");\n    }\n\n}\n",
  "sourcePath": "/Users/djordjekovacevic/Desktop/projects/dkg-evm-module/contracts/storage/ServiceAgreementStorageV1.sol",
  "compiler": {
    "name": "solc",
    "version": "0.8.16+commit.07a7930e.Emscripten.clang"
  },
  "schemaVersion": "3.4.10",
  "updatedAt": "2022-12-06T17:21:37.141Z",
  "networkType": "ethereum",
  "devdoc": {
    "kind": "dev",
    "methods": {},
    "version": 1
  },
  "userdoc": {
    "kind": "user",
    "methods": {},
    "version": 1
  }
}