{
  "contractName": "ServiceAgreementStorage",
  "abi": [
    {
      "inputs": [
        {
          "internalType": "address",
          "name": "hubAddress",
          "type": "address"
        }
      ],
      "stateMutability": "nonpayable",
      "type": "constructor"
    },
    {
      "anonymous": false,
      "inputs": [
        {
          "indexed": false,
          "internalType": "address",
          "name": "assetContract",
          "type": "address"
        },
        {
          "indexed": false,
          "internalType": "uint256",
          "name": "tokenId",
          "type": "uint256"
        },
        {
          "indexed": true,
          "internalType": "bytes",
          "name": "keyword",
          "type": "bytes"
        },
        {
          "indexed": false,
          "internalType": "uint8",
          "name": "hashingFunctionId",
          "type": "uint8"
        },
        {
          "indexed": true,
          "internalType": "uint96",
          "name": "identityId",
          "type": "uint96"
        },
        {
          "indexed": true,
          "internalType": "bytes",
          "name": "nodeId",
          "type": "bytes"
        },
        {
          "indexed": false,
          "internalType": "uint32",
          "name": "score",
          "type": "uint32"
        }
      ],
      "name": "CommitSubmitted",
      "type": "event"
    },
    {
      "anonymous": false,
      "inputs": [
        {
          "indexed": false,
          "internalType": "address",
          "name": "assetContract",
          "type": "address"
        },
        {
          "indexed": false,
          "internalType": "uint256",
          "name": "tokenId",
          "type": "uint256"
        },
        {
          "indexed": true,
          "internalType": "bytes",
          "name": "keyword",
          "type": "bytes"
        },
        {
          "indexed": false,
          "internalType": "uint8",
          "name": "hashingFunctionId",
          "type": "uint8"
        },
        {
          "indexed": true,
          "internalType": "uint96",
          "name": "identityId",
          "type": "uint96"
        },
        {
          "indexed": true,
          "internalType": "bytes",
          "name": "nodeId",
          "type": "bytes"
        }
      ],
      "name": "ProofSubmitted",
      "type": "event"
    },
    {
      "anonymous": false,
      "inputs": [
        {
          "indexed": true,
          "internalType": "address",
          "name": "assetContract",
          "type": "address"
        },
        {
          "indexed": true,
          "internalType": "uint256",
          "name": "tokenId",
          "type": "uint256"
        },
        {
          "indexed": true,
          "internalType": "bytes",
          "name": "keyword",
          "type": "bytes"
        },
        {
          "indexed": false,
          "internalType": "uint8",
          "name": "hashingFunctionId",
          "type": "uint8"
        },
        {
          "indexed": false,
          "internalType": "uint256",
          "name": "startTime",
          "type": "uint256"
        },
        {
          "indexed": false,
          "internalType": "uint16",
          "name": "epochsNumber",
          "type": "uint16"
        },
        {
          "indexed": false,
          "internalType": "uint128",
          "name": "epochLength",
          "type": "uint128"
        },
        {
          "indexed": false,
          "internalType": "uint96",
          "name": "tokenAmount",
          "type": "uint96"
        }
      ],
      "name": "ServiceAgreementCreated",
      "type": "event"
    },
    {
      "anonymous": false,
      "inputs": [
        {
          "indexed": true,
          "internalType": "address",
          "name": "assetContract",
          "type": "address"
        },
        {
          "indexed": true,
          "internalType": "uint256",
          "name": "tokenId",
          "type": "uint256"
        },
        {
          "indexed": true,
          "internalType": "bytes",
          "name": "keyword",
          "type": "bytes"
        },
        {
          "indexed": false,
          "internalType": "uint8",
          "name": "hashingFunctionId",
          "type": "uint8"
        },
        {
          "indexed": false,
          "internalType": "uint16",
          "name": "epochsNumber",
          "type": "uint16"
        },
        {
          "indexed": false,
          "internalType": "uint96",
          "name": "tokenAmount",
          "type": "uint96"
        }
      ],
      "name": "ServiceAgreementUpdated",
      "type": "event"
    },
    {
      "inputs": [],
      "name": "hub",
      "outputs": [
        {
          "internalType": "contract Hub",
          "name": "",
          "type": "address"
        }
      ],
      "stateMutability": "view",
      "type": "function"
    },
    {
      "inputs": [
        {
          "internalType": "bytes32",
          "name": "agreementId",
          "type": "bytes32"
        }
      ],
      "name": "getAgreementStartTime",
      "outputs": [
        {
          "internalType": "uint256",
          "name": "",
          "type": "uint256"
        }
      ],
      "stateMutability": "view",
      "type": "function"
    },
    {
      "inputs": [
        {
          "internalType": "bytes32",
          "name": "agreementId",
          "type": "bytes32"
        }
      ],
      "name": "getAgreementEpochsNumber",
      "outputs": [
        {
          "internalType": "uint16",
          "name": "",
          "type": "uint16"
        }
      ],
      "stateMutability": "view",
      "type": "function"
    },
    {
      "inputs": [
        {
          "internalType": "bytes32",
          "name": "agreementId",
          "type": "bytes32"
        }
      ],
      "name": "getAgreementEpochLength",
      "outputs": [
        {
          "internalType": "uint128",
          "name": "",
          "type": "uint128"
        }
      ],
      "stateMutability": "view",
      "type": "function"
    },
    {
      "inputs": [
        {
          "internalType": "bytes32",
          "name": "agreementId",
          "type": "bytes32"
        }
      ],
      "name": "getAgreementTokenAmount",
      "outputs": [
        {
          "internalType": "uint96",
          "name": "",
          "type": "uint96"
        }
      ],
      "stateMutability": "view",
      "type": "function"
    },
    {
      "inputs": [
        {
          "internalType": "bytes32",
          "name": "agreementId",
          "type": "bytes32"
        }
      ],
      "name": "getAgreementScoringFunctionId",
      "outputs": [
        {
          "internalType": "uint8",
          "name": "",
          "type": "uint8"
        }
      ],
      "stateMutability": "view",
      "type": "function"
    },
    {
      "inputs": [
        {
          "internalType": "bytes32",
          "name": "agreementId",
          "type": "bytes32"
        }
      ],
      "name": "getAgreementProofWindowOffsetPerc",
      "outputs": [
        {
          "internalType": "uint8",
          "name": "",
          "type": "uint8"
        }
      ],
      "stateMutability": "view",
      "type": "function"
    },
    {
      "inputs": [
        {
          "internalType": "address",
          "name": "operationalWallet",
          "type": "address"
        },
        {
          "internalType": "address",
          "name": "assetContract",
          "type": "address"
        },
        {
          "internalType": "uint256",
          "name": "tokenId",
          "type": "uint256"
        },
        {
          "internalType": "bytes",
          "name": "keyword",
          "type": "bytes"
        },
        {
          "internalType": "uint8",
          "name": "hashingFunctionId",
          "type": "uint8"
        },
        {
          "internalType": "uint16",
          "name": "epochsNumber",
          "type": "uint16"
        },
        {
          "internalType": "uint96",
          "name": "tokenAmount",
          "type": "uint96"
        },
        {
          "internalType": "uint8",
          "name": "scoringFunctionId",
          "type": "uint8"
        }
      ],
      "name": "createServiceAgreement",
      "outputs": [],
      "stateMutability": "nonpayable",
      "type": "function"
    },
    {
      "inputs": [
        {
          "internalType": "address",
          "name": "operationalWallet",
          "type": "address"
        },
        {
          "internalType": "address",
          "name": "assetContract",
          "type": "address"
        },
        {
          "internalType": "uint256",
          "name": "tokenId",
          "type": "uint256"
        },
        {
          "internalType": "bytes",
          "name": "keyword",
          "type": "bytes"
        },
        {
          "internalType": "uint8",
          "name": "hashingFunctionId",
          "type": "uint8"
        },
        {
          "internalType": "uint16",
          "name": "epochsNumber",
          "type": "uint16"
        },
        {
          "internalType": "uint96",
          "name": "tokenAmount",
          "type": "uint96"
        }
      ],
      "name": "updateServiceAgreement",
      "outputs": [],
      "stateMutability": "nonpayable",
      "type": "function"
    },
    {
      "inputs": [
        {
          "internalType": "bytes32",
          "name": "agreementId",
          "type": "bytes32"
        },
        {
          "internalType": "uint16",
          "name": "epoch",
          "type": "uint16"
        }
      ],
      "name": "isCommitWindowOpen",
      "outputs": [
        {
          "internalType": "bool",
          "name": "",
          "type": "bool"
        }
      ],
      "stateMutability": "view",
      "type": "function"
    },
    {
      "inputs": [
        {
          "internalType": "bytes32",
          "name": "agreementId",
          "type": "bytes32"
        },
        {
          "internalType": "uint16",
          "name": "epoch",
          "type": "uint16"
        }
      ],
      "name": "getCommitSubmissions",
      "outputs": [
        {
          "components": [
            {
              "internalType": "uint96",
              "name": "identityId",
              "type": "uint96"
            },
            {
              "internalType": "uint96",
              "name": "nextIdentity",
              "type": "uint96"
            },
            {
              "internalType": "uint32",
              "name": "score",
              "type": "uint32"
            }
          ],
          "internalType": "struct ServiceAgreementStorage.CommitSubmission[]",
          "name": "",
          "type": "tuple[]"
        }
      ],
      "stateMutability": "view",
      "type": "function"
    },
    {
      "inputs": [
        {
          "internalType": "address",
          "name": "assetContract",
          "type": "address"
        },
        {
          "internalType": "uint256",
          "name": "tokenId",
          "type": "uint256"
        },
        {
          "internalType": "bytes",
          "name": "keyword",
          "type": "bytes"
        },
        {
          "internalType": "uint8",
          "name": "hashingFunctionId",
          "type": "uint8"
        },
        {
          "internalType": "uint16",
          "name": "epoch",
          "type": "uint16"
        },
        {
          "internalType": "uint96",
          "name": "prevIdentityId",
          "type": "uint96"
        }
      ],
      "name": "submitCommit",
      "outputs": [
        {
          "internalType": "uint256",
          "name": "",
          "type": "uint256"
        }
      ],
      "stateMutability": "nonpayable",
      "type": "function"
    },
    {
      "inputs": [
        {
          "internalType": "bytes32",
          "name": "agreementId",
          "type": "bytes32"
        },
        {
          "internalType": "uint16",
          "name": "epoch",
          "type": "uint16"
        }
      ],
      "name": "isProofWindowOpen",
      "outputs": [
        {
          "internalType": "bool",
          "name": "",
          "type": "bool"
        }
      ],
      "stateMutability": "view",
      "type": "function"
    },
    {
      "inputs": [
        {
          "internalType": "address",
          "name": "assetContract",
          "type": "address"
        },
        {
          "internalType": "uint256",
          "name": "tokenId",
          "type": "uint256"
        },
        {
          "internalType": "uint16",
          "name": "epoch",
          "type": "uint16"
        }
      ],
      "name": "getChallenge",
      "outputs": [
        {
          "internalType": "bytes32",
          "name": "",
          "type": "bytes32"
        },
        {
          "internalType": "uint256",
          "name": "",
          "type": "uint256"
        }
      ],
      "stateMutability": "view",
      "type": "function"
    },
    {
      "inputs": [
        {
          "internalType": "address",
          "name": "assetContract",
          "type": "address"
        },
        {
          "internalType": "uint256",
          "name": "tokenId",
          "type": "uint256"
        },
        {
          "internalType": "bytes",
          "name": "keyword",
          "type": "bytes"
        },
        {
          "internalType": "uint8",
          "name": "hashingFunctionId",
          "type": "uint8"
        },
        {
          "internalType": "uint16",
          "name": "epoch",
          "type": "uint16"
        },
        {
          "internalType": "bytes32[]",
          "name": "proof",
          "type": "bytes32[]"
        },
        {
          "internalType": "bytes32",
          "name": "chunkHash",
          "type": "bytes32"
        }
      ],
      "name": "sendProof",
      "outputs": [],
      "stateMutability": "nonpayable",
      "type": "function"
    },
    {
      "inputs": [
        {
          "internalType": "bytes32",
          "name": "agreementId",
          "type": "bytes32"
        },
        {
          "internalType": "uint8",
          "name": "newScoringFunctionId",
          "type": "uint8"
        }
      ],
      "name": "setScoringFunction",
      "outputs": [],
      "stateMutability": "nonpayable",
      "type": "function"
    }
  ],
  "bytecode": "0x60806040523480156200001157600080fd5b5060405162005d3b38038062005d3b833981810160405281019062000037919062000122565b600073ffffffffffffffffffffffffffffffffffffffff168173ffffffffffffffffffffffffffffffffffffffff16036200007157600080fd5b806000806101000a81548173ffffffffffffffffffffffffffffffffffffffff021916908373ffffffffffffffffffffffffffffffffffffffff1602179055505062000154565b600080fd5b600073ffffffffffffffffffffffffffffffffffffffff82169050919050565b6000620000ea82620000bd565b9050919050565b620000fc81620000dd565b81146200010857600080fd5b50565b6000815190506200011c81620000f1565b92915050565b6000602082840312156200013b576200013a620000b8565b5b60006200014b848285016200010b565b91505092915050565b615bd780620001646000396000f3fe608060405234801561001057600080fd5b50600436106101005760003560e01c806399149f7711610097578063be82c4e211610066578063be82c4e21461030c578063becdd59714610328578063d1a640c714610358578063fc348cb61461038857610100565b806399149f77146102605780639c70b3c014610290578063aa6a00fd146102c0578063b1f38350146102f057610100565b80634fb96d50116100d35780634fb96d50146101b45780635995639c146101e457806361f14ece1461021457806385e57f571461023057610100565b806332c2fbf114610105578063365a86fc146101365780634089a17d14610154578063484a47e714610184575b600080fd5b61011f600480360381019061011a9190613b1c565b6103a4565b60405161012d929190613b97565b60405180910390f35b61013e61077c565b60405161014b9190613c1f565b60405180910390f35b61016e60048036038101906101699190613c66565b6107a0565b60405161017b9190613cba565b60405180910390f35b61019e60048036038101906101999190613c66565b6107d8565b6040516101ab9190613d00565b60405180910390f35b6101ce60048036038101906101c99190613d1b565b610814565b6040516101db9190613e7a565b60405180910390f35b6101fe60048036038101906101f99190613c66565b610c21565b60405161020b9190613eb8565b60405180910390f35b61022e60048036038101906102299190614071565b610c4e565b005b61024a6004803603810190610245919061412f565b61117c565b60405161025791906141d8565b60405180910390f35b61027a60048036038101906102759190613c66565b611840565b6040516102879190613eb8565b60405180910390f35b6102aa60048036038101906102a59190613c66565b61186d565b6040516102b791906141d8565b60405180910390f35b6102da60048036038101906102d59190613d1b565b61188d565b6040516102e7919061420e565b60405180910390f35b61030a60048036038101906103059190614229565b611b86565b005b61032660048036038101906103219190614269565b611c92565b005b610342600480360381019061033d9190613d1b565b612463565b60405161034f919061420e565b60405180910390f35b610372600480360381019061036d9190613c66565b612653565b60405161037f919061434a565b60405180910390f35b6103a2600480360381019061039d919061442d565b612681565b005b60008060008060009054906101000a900473ffffffffffffffffffffffffffffffffffffffff1673ffffffffffffffffffffffffffffffffffffffff166304433bbc6040518163ffffffff1660e01b815260040161040190614564565b602060405180830381865afa15801561041e573d6000803e3d6000fd5b505050506040513d601f19601f820116820180604052508101906104429190614599565b905060008173ffffffffffffffffffffffffffffffffffffffff16637006045c6040518163ffffffff1660e01b8152600401602060405180830381865afa158015610491573d6000803e3d6000fd5b505050506040513d601f19601f820116820180604052508101906104b591906145db565b9050600087905060008173ffffffffffffffffffffffffffffffffffffffff1663469766668960018c73ffffffffffffffffffffffffffffffffffffffff16635a58db148d6040518263ffffffff1660e01b815260040161051691906141d8565b602060405180830381865afa158015610533573d6000803e3d6000fd5b505050506040513d601f19601f82011682018060405250810190610557919061461d565b6105619190614679565b6040518363ffffffff1660e01b815260040161057e9291906146ad565b602060405180830381865afa15801561059b573d6000803e3d6000fd5b505050506040513d601f19601f820116820180604052508101906105bf91906146eb565b905060008060009054906101000a900473ffffffffffffffffffffffffffffffffffffffff1673ffffffffffffffffffffffffffffffffffffffff166304433bbc6040518163ffffffff1660e01b815260040161061b90614764565b602060405180830381865afa158015610638573d6000803e3d6000fd5b505050506040513d601f19601f8201168201806040525081019061065c9190614599565b905060008173ffffffffffffffffffffffffffffffffffffffff1663ec82e3a7846040518263ffffffff1660e01b81526004016106999190614784565b602060405180830381865afa1580156106b6573d6000803e3d6000fd5b505050506040513d601f19601f820116820180604052508101906106da91906145db565b6bffffffffffffffffffffffff169050828160028b8860405160200161070192919061480b565b60405160208183030381529060405260405161071d91906148b1565b602060405180830381855afa15801561073a573d6000803e3d6000fd5b5050506040513d601f19601f8201168201806040525081019061075d91906146eb565b60001c61076a91906148f7565b97509750505050505050935093915050565b60008054906101000a900473ffffffffffffffffffffffffffffffffffffffff1681565b60006002600083815260200190815260200160002060010160129054906101000a90046bffffffffffffffffffffffff169050919050565b60006002600083815260200190815260200160002060010160029054906101000a90046fffffffffffffffffffffffffffffffff169050919050565b606060008060009054906101000a900473ffffffffffffffffffffffffffffffffffffffff1673ffffffffffffffffffffffffffffffffffffffff166304433bbc6040518163ffffffff1660e01b815260040161087090614974565b602060405180830381865afa15801561088d573d6000803e3d6000fd5b505050506040513d601f19601f820116820180604052508101906108b19190614599565b905060008173ffffffffffffffffffffffffffffffffffffffff1663fee2cb056040518163ffffffff1660e01b8152600401602060405180830381865afa158015610900573d6000803e3d6000fd5b505050506040513d601f19601f8201168201806040525081019061092491906149d2565b65ffffffffffff1667ffffffffffffffff81111561094557610944613eee565b5b60405190808252806020026020018201604052801561097e57816020015b61096b6139f7565b8152602001906001900390816109635790505b50905060006002600087815260200190815260200160002060020160008661ffff1661ffff1681526020019081526020016000205490506000600160008381526020019081526020016000206040518060600160405290816000820160009054906101000a90046bffffffffffffffffffffffff166bffffffffffffffffffffffff166bffffffffffffffffffffffff16815260200160008201600c9054906101000a90046bffffffffffffffffffffffff166bffffffffffffffffffffffff166bffffffffffffffffffffffff1681526020016000820160189054906101000a900463ffffffff1663ffffffff1663ffffffff1681525050838260ff1681518110610a8d57610a8c6149ff565b5b6020026020010181905250600060016000848152602001908152602001600020600001600c9054906101000a90046bffffffffffffffffffffffff1690505b6000816bffffffffffffffffffffffff1614610c13576000888883604051602001610af993929190614a4f565b6040516020818303038152906040528051906020012090506000600160008381526020019081526020016000206040518060600160405290816000820160009054906101000a90046bffffffffffffffffffffffff166bffffffffffffffffffffffff166bffffffffffffffffffffffff16815260200160008201600c9054906101000a90046bffffffffffffffffffffffff166bffffffffffffffffffffffff166bffffffffffffffffffffffff1681526020016000820160189054906101000a900463ffffffff1663ffffffff1663ffffffff168152505090508380610be090614a8c565b94505080868560ff1681518110610bfa57610bf96149ff565b5b6020026020010181905250806020015192505050610acc565b839550505050505092915050565b600060026000838152602001908152602001600020600101601e9054906101000a900460ff169050919050565b60008054906101000a900473ffffffffffffffffffffffffffffffffffffffff1673ffffffffffffffffffffffffffffffffffffffff16638d5d2d85336040518263ffffffff1660e01b8152600401610ca79190614ac4565b602060405180830381865afa158015610cc4573d6000803e3d6000fd5b505050506040513d601f19601f82011682018060405250810190610ce89190614b0b565b610d27576040517f08c379a0000000000000000000000000000000000000000000000000000000008152600401610d1e90614baa565b60405180910390fd5b6000610d3587878787613111565b905060006002600083815260200190815260200160002060010160129054906101000a90046bffffffffffffffffffffffff169050836002600084815260200190815260200160002060010160006101000a81548161ffff021916908361ffff160217905550826002600084815260200190815260200160002060010160126101000a8154816bffffffffffffffffffffffff02191690836bffffffffffffffffffffffff16021790555060008060009054906101000a900473ffffffffffffffffffffffffffffffffffffffff1673ffffffffffffffffffffffffffffffffffffffff166304433bbc6040518163ffffffff1660e01b8152600401610e3a90614c16565b602060405180830381865afa158015610e57573d6000803e3d6000fd5b505050506040513d601f19601f82011682018060405250810190610e7b9190614599565b90508382610e899190614c36565b6bffffffffffffffffffffffff168173ffffffffffffffffffffffffffffffffffffffff1663dd62ed3e8c306040518363ffffffff1660e01b8152600401610ed2929190614c6a565b602060405180830381865afa158015610eef573d6000803e3d6000fd5b505050506040513d601f19601f82011682018060405250810190610f13919061461d565b1015610f54576040517f08c379a0000000000000000000000000000000000000000000000000000000008152600401610f4b90614d05565b60405180910390fd5b8382610f609190614c36565b6bffffffffffffffffffffffff168173ffffffffffffffffffffffffffffffffffffffff166370a082318c6040518263ffffffff1660e01b8152600401610fa79190614ac4565b602060405180830381865afa158015610fc4573d6000803e3d6000fd5b505050506040513d601f19601f82011682018060405250810190610fe8919061461d565b1015611029576040517f08c379a000000000000000000000000000000000000000000000000000000000815260040161102090614d97565b60405180910390fd5b8073ffffffffffffffffffffffffffffffffffffffff166323b872dd8b3087866110539190614c36565b6040518463ffffffff1660e01b815260040161107193929190614de8565b6020604051808303816000875af1158015611090573d6000803e3d6000fd5b505050506040513d601f19601f820116820180604052508101906110b49190614b0b565b50866040516110c391906148b1565b6040518091039020888a73ffffffffffffffffffffffffffffffffffffffff167f1abad9d03c6b61f6b6714655a41bdc5b88318ce5136915a9c8751a74ad5a30b9896002600089815260200190815260200160002060010160009054906101000a900461ffff16600260008a815260200190815260200160002060010160129054906101000a90046bffffffffffffffffffffffff1660405161116893929190614e1f565b60405180910390a450505050505050505050565b60008061118b88888888613111565b90506111978185612463565b6111d6576040517f08c379a00000000000000000000000000000000000000000000000000000000081526004016111cd90614ea2565b60405180910390fd5b60008060009054906101000a900473ffffffffffffffffffffffffffffffffffffffff1673ffffffffffffffffffffffffffffffffffffffff166304433bbc6040518163ffffffff1660e01b815260040161123090614564565b602060405180830381865afa15801561124d573d6000803e3d6000fd5b505050506040513d601f19601f820116820180604052508101906112719190614599565b905060008173ffffffffffffffffffffffffffffffffffffffff16637006045c6040518163ffffffff1660e01b8152600401602060405180830381865afa1580156112c0573d6000803e3d6000fd5b505050506040513d601f19601f820116820180604052508101906112e491906145db565b905060008060009054906101000a900473ffffffffffffffffffffffffffffffffffffffff1673ffffffffffffffffffffffffffffffffffffffff166304433bbc6040518163ffffffff1660e01b815260040161134090614f0e565b602060405180830381865afa15801561135d573d6000803e3d6000fd5b505050506040513d601f19601f820116820180604052508101906113819190614599565b905060008060009054906101000a900473ffffffffffffffffffffffffffffffffffffffff1673ffffffffffffffffffffffffffffffffffffffff166304433bbc6040518163ffffffff1660e01b81526004016113dd90614f7a565b602060405180830381865afa1580156113fa573d6000803e3d6000fd5b505050506040513d601f19601f8201168201806040525081019061141e9190614599565b905060008173ffffffffffffffffffffffffffffffffffffffff16637dde117760026000898152602001908152602001600020600101601e9054906101000a900460ff168c8673ffffffffffffffffffffffffffffffffffffffff16636c5c281c896040518263ffffffff1660e01b815260040161149c9190613cba565b600060405180830381865afa1580156114b9573d6000803e3d6000fd5b505050506040513d6000823e3d601f19601f820116820180604052508101906114e2919061500a565b8f8873ffffffffffffffffffffffffffffffffffffffff16631860bd8e8b6040518263ffffffff1660e01b815260040161151c9190613cba565b602060405180830381865afa158015611539573d6000803e3d6000fd5b505050506040513d601f19601f8201168201806040525081019061155d91906145db565b6040518663ffffffff1660e01b815260040161157d95949392919061509d565b6020604051808303816000875af115801561159c573d6000803e3d6000fd5b505050506040513d601f19601f820116820180604052508101906115c0919061512a565b905061160b868a8a6040518060600160405280896bffffffffffffffffffffffff16815260200160006bffffffffffffffffffffffff1681526020018663ffffffff1681525061325a565b60008060009054906101000a900473ffffffffffffffffffffffffffffffffffffffff1673ffffffffffffffffffffffffffffffffffffffff166304433bbc6040518163ffffffff1660e01b815260040161166590614974565b602060405180830381865afa158015611682573d6000803e3d6000fd5b505050506040513d601f19601f820116820180604052508101906116a69190614599565b9050606460026000898152602001908152602001600020600101601f9054906101000a900460ff1660ff168273ffffffffffffffffffffffffffffffffffffffff166357d775f86040518163ffffffff1660e01b8152600401602060405180830381865afa15801561171c573d6000803e3d6000fd5b505050506040513d601f19601f820116820180604052508101906117409190615183565b61174a91906151b0565b61175491906151fa565b6fffffffffffffffffffffffffffffffff1660018b611773919061522b565b61ffff168273ffffffffffffffffffffffffffffffffffffffff166357d775f86040518163ffffffff1660e01b8152600401602060405180830381865afa1580156117c2573d6000803e3d6000fd5b505050506040513d601f19601f820116820180604052508101906117e69190615183565b6117f091906151b0565b6fffffffffffffffffffffffffffffffff16600260008a815260200190815260200160002060000154611823919061525f565b61182d919061525f565b9750505050505050509695505050505050565b600060026000838152602001908152602001600020600101601f9054906101000a900460ff169050919050565b600060026000838152602001908152602001600020600001549050919050565b600080429050600060026000868152602001908152602001600020905060008060009054906101000a900473ffffffffffffffffffffffffffffffffffffffff1673ffffffffffffffffffffffffffffffffffffffff166304433bbc6040518163ffffffff1660e01b815260040161190490614974565b602060405180830381865afa158015611921573d6000803e3d6000fd5b505050506040513d601f19601f820116820180604052508101906119459190614599565b90506000606483600101601f9054906101000a900460ff1660ff168460010160009054906101000a900461ffff1661ffff168560010160029054906101000a90046fffffffffffffffffffffffffffffffff166119a291906151b0565b6119ac91906151b0565b6119b691906151fa565b6fffffffffffffffffffffffffffffffff169050600060648373ffffffffffffffffffffffffffffffffffffffff16639d3ceb0c6040518163ffffffff1660e01b8152600401602060405180830381865afa158015611a19573d6000803e3d6000fd5b505050506040513d601f19601f82011682018060405250810190611a3d91906152ca565b60ff168560010160009054906101000a900461ffff1661ffff168660010160029054906101000a90046fffffffffffffffffffffffffffffffff16611a8291906151b0565b611a8c91906151b0565b611a9691906151fa565b6fffffffffffffffffffffffffffffffff169050818761ffff168560010160029054906101000a90046fffffffffffffffffffffffffffffffff16611adb91906151b0565b6fffffffffffffffffffffffffffffffff168560000154611afc919061525f565b611b06919061525f565b85118015611b79575080828861ffff168660010160029054906101000a90046fffffffffffffffffffffffffffffffff16611b4191906151b0565b6fffffffffffffffffffffffffffffffff168660000154611b62919061525f565b611b6c919061525f565b611b76919061525f565b85105b9550505050505092915050565b60008054906101000a900473ffffffffffffffffffffffffffffffffffffffff1673ffffffffffffffffffffffffffffffffffffffff16638d5d2d85336040518263ffffffff1660e01b8152600401611bdf9190614ac4565b602060405180830381865afa158015611bfc573d6000803e3d6000fd5b505050506040513d601f19601f82011682018060405250810190611c209190614b0b565b611c5f576040517f08c379a0000000000000000000000000000000000000000000000000000000008152600401611c5690614baa565b60405180910390fd5b8060026000848152602001908152602001600020600101601e6101000a81548160ff021916908360ff1602179055505050565b60008054906101000a900473ffffffffffffffffffffffffffffffffffffffff1673ffffffffffffffffffffffffffffffffffffffff16638d5d2d85336040518263ffffffff1660e01b8152600401611ceb9190614ac4565b602060405180830381865afa158015611d08573d6000803e3d6000fd5b505050506040513d601f19601f82011682018060405250810190611d2c9190614b0b565b611d6b576040517f08c379a0000000000000000000000000000000000000000000000000000000008152600401611d6290614baa565b60405180910390fd5b6000611d7988888888613111565b905060008060009054906101000a900473ffffffffffffffffffffffffffffffffffffffff1673ffffffffffffffffffffffffffffffffffffffff166304433bbc6040518163ffffffff1660e01b8152600401611dd590614974565b602060405180830381865afa158015611df2573d6000803e3d6000fd5b505050506040513d601f19601f82011682018060405250810190611e169190614599565b90506000600260008481526020019081526020016000209050428160000181905550858160010160006101000a81548161ffff021916908361ffff1602179055508173ffffffffffffffffffffffffffffffffffffffff166357d775f86040518163ffffffff1660e01b8152600401602060405180830381865afa158015611ea2573d6000803e3d6000fd5b505050506040513d601f19601f82011682018060405250810190611ec69190615183565b8160010160026101000a8154816fffffffffffffffffffffffffffffffff02191690836fffffffffffffffffffffffffffffffff160217905550611ffd8b60018473ffffffffffffffffffffffffffffffffffffffff16638e6262426040518163ffffffff1660e01b8152600401602060405180830381865afa158015611f51573d6000803e3d6000fd5b505050506040513d601f19601f82011682018060405250810190611f7591906152ca565b8573ffffffffffffffffffffffffffffffffffffffff1663ff2117436040518163ffffffff1660e01b8152600401602060405180830381865afa158015611fc0573d6000803e3d6000fd5b505050506040513d601f19601f82011682018060405250810190611fe491906152ca565b611fee91906152f7565b611ff8919061532b565b613887565b8273ffffffffffffffffffffffffffffffffffffffff16638e6262426040518163ffffffff1660e01b8152600401602060405180830381865afa158015612048573d6000803e3d6000fd5b505050506040513d601f19601f8201168201806040525081019061206c91906152ca565b612076919061532b565b81600101601f6101000a81548160ff021916908360ff160217905550848160010160126101000a8154816bffffffffffffffffffffffff02191690836bffffffffffffffffffffffff1602179055508381600101601e6101000a81548160ff021916908360ff16021790555060008060009054906101000a900473ffffffffffffffffffffffffffffffffffffffff1673ffffffffffffffffffffffffffffffffffffffff166304433bbc6040518163ffffffff1660e01b815260040161213c90614c16565b602060405180830381865afa158015612159573d6000803e3d6000fd5b505050506040513d601f19601f8201168201806040525081019061217d9190614599565b9050856bffffffffffffffffffffffff168173ffffffffffffffffffffffffffffffffffffffff1663dd62ed3e8e306040518363ffffffff1660e01b81526004016121c9929190614c6a565b602060405180830381865afa1580156121e6573d6000803e3d6000fd5b505050506040513d601f19601f8201168201806040525081019061220a919061461d565b101561224b576040517f08c379a000000000000000000000000000000000000000000000000000000000815260040161224290614d05565b60405180910390fd5b856bffffffffffffffffffffffff168173ffffffffffffffffffffffffffffffffffffffff166370a082318e6040518263ffffffff1660e01b81526004016122939190614ac4565b602060405180830381865afa1580156122b0573d6000803e3d6000fd5b505050506040513d601f19601f820116820180604052508101906122d4919061461d565b1015612315576040517f08c379a000000000000000000000000000000000000000000000000000000000815260040161230c90614d97565b60405180910390fd5b8073ffffffffffffffffffffffffffffffffffffffff166323b872dd8d30896040518463ffffffff1660e01b815260040161235293929190614de8565b6020604051808303816000875af1158015612371573d6000803e3d6000fd5b505050506040513d601f19601f820116820180604052508101906123959190614b0b565b50886040516123a491906148b1565b60405180910390208a8c73ffffffffffffffffffffffffffffffffffffffff167f48298191f59170e97201484d4a3de75065cea587a165788d1f19459fabd39a5e8b86600001548760010160009054906101000a900461ffff168860010160029054906101000a90046fffffffffffffffffffffffffffffffff168960010160129054906101000a90046bffffffffffffffffffffffff1660405161244d959493929190615362565b60405180910390a4505050505050505050505050565b600080429050600060026000868152602001908152602001600020905060008060009054906101000a900473ffffffffffffffffffffffffffffffffffffffff1673ffffffffffffffffffffffffffffffffffffffff166304433bbc6040518163ffffffff1660e01b81526004016124da90614974565b602060405180830381865afa1580156124f7573d6000803e3d6000fd5b505050506040513d601f19601f8201168201806040525081019061251b9190614599565b90508461ffff168260010160029054906101000a90046fffffffffffffffffffffffffffffffff1661254d91906151b0565b6fffffffffffffffffffffffffffffffff16826000015461256e919061525f565b8311801561264857508073ffffffffffffffffffffffffffffffffffffffff1663e8d487ff6040518163ffffffff1660e01b8152600401602060405180830381865afa1580156125c2573d6000803e3d6000fd5b505050506040513d601f19601f820116820180604052508101906125e691906153ca565b61ffff168561ffff168360010160029054906101000a90046fffffffffffffffffffffffffffffffff1661261a91906151b0565b6fffffffffffffffffffffffffffffffff16836000015461263b919061525f565b612645919061525f565b83105b935050505092915050565b60006002600083815260200190815260200160002060010160009054906101000a900461ffff169050919050565b600061268f88888888613111565b905061269b818561188d565b156126db576040517f08c379a00000000000000000000000000000000000000000000000000000000081526004016126d290615443565b60405180910390fd5b60008060009054906101000a900473ffffffffffffffffffffffffffffffffffffffff1673ffffffffffffffffffffffffffffffffffffffff166304433bbc6040518163ffffffff1660e01b815260040161273590614564565b602060405180830381865afa158015612752573d6000803e3d6000fd5b505050506040513d601f19601f820116820180604052508101906127769190614599565b73ffffffffffffffffffffffffffffffffffffffff16637006045c6040518163ffffffff1660e01b8152600401602060405180830381865afa1580156127c0573d6000803e3d6000fd5b505050506040513d601f19601f820116820180604052508101906127e491906145db565b905060006001600084888560405160200161280193929190614a4f565b60405160208183030381529060405280519060200120815260200190815260200160002060000160189054906101000a900463ffffffff1663ffffffff160361287f576040517f08c379a0000000000000000000000000000000000000000000000000000000008152600401612876906154d5565b60405180910390fd5b60006002600084815260200190815260200160002060020160008761ffff1661ffff16815260200190815260200160002054905060008060009054906101000a900473ffffffffffffffffffffffffffffffffffffffff1673ffffffffffffffffffffffffffffffffffffffff166304433bbc6040518163ffffffff1660e01b815260040161290d90614974565b602060405180830381865afa15801561292a573d6000803e3d6000fd5b505050506040513d601f19601f8201168201806040525081019061294e9190614599565b905060005b6001600084815260200190815260200160002060000160009054906101000a90046bffffffffffffffffffffffff166bffffffffffffffffffffffff16846bffffffffffffffffffffffff16141580612a2657508173ffffffffffffffffffffffffffffffffffffffff16638d73d86a6040518163ffffffff1660e01b8152600401602060405180830381865afa1580156129f2573d6000803e3d6000fd5b505050506040513d601f19601f82011682018060405250810190612a16919061512a565b63ffffffff168163ffffffff1614155b15612a9957848860016000868152602001908152602001600020600001600c9054906101000a90046bffffffffffffffffffffffff16604051602001612a6e93929190614a4f565b6040516020818303038152906040528051906020012092508080612a91906154f5565b915050612953565b8173ffffffffffffffffffffffffffffffffffffffff16638d73d86a6040518163ffffffff1660e01b8152600401602060405180830381865afa158015612ae4573d6000803e3d6000fd5b505050506040513d601f19601f82011682018060405250810190612b08919061512a565b63ffffffff168163ffffffff1610612b55576040517f08c379a0000000000000000000000000000000000000000000000000000000008152600401612b4c90615593565b60405180910390fd5b600080612b638e8e8c6103a4565b8092508193505050612b9e89838a84604051602001612b839291906155d4565b604051602081830303815290604052805190602001206138cd565b612bdd576040517f08c379a0000000000000000000000000000000000000000000000000000000008152600401612bd49061564c565b60405180910390fd5b60008060009054906101000a900473ffffffffffffffffffffffffffffffffffffffff1673ffffffffffffffffffffffffffffffffffffffff166304433bbc6040518163ffffffff1660e01b8152600401612c3790614f0e565b602060405180830381865afa158015612c54573d6000803e3d6000fd5b505050506040513d601f19601f82011682018060405250810190612c789190614599565b90506000600260008a815260200190815260200160002060030160008d61ffff1661ffff16815260200190815260200160002060009054906101000a900463ffffffff168673ffffffffffffffffffffffffffffffffffffffff16638d73d86a6040518163ffffffff1660e01b8152600401602060405180830381865afa158015612d07573d6000803e3d6000fd5b505050506040513d601f19601f82011682018060405250810190612d2b919061512a565b612d35919061566c565b63ffffffff1660018d600260008d815260200190815260200160002060010160009054906101000a900461ffff16612d6d919061522b565b612d7791906156a0565b61ffff16600260008c815260200190815260200160002060010160129054906101000a90046bffffffffffffffffffffffff16612db491906156d8565b612dbe91906156d8565b905060008054906101000a900473ffffffffffffffffffffffffffffffffffffffff1673ffffffffffffffffffffffffffffffffffffffff166304433bbc6040518163ffffffff1660e01b8152600401612e1790614c16565b602060405180830381865afa158015612e34573d6000803e3d6000fd5b505050506040513d601f19601f82011682018060405250810190612e589190614599565b73ffffffffffffffffffffffffffffffffffffffff1663a9059cbb83836040518363ffffffff1660e01b8152600401612e92929190615709565b6020604051808303816000875af1158015612eb1573d6000803e3d6000fd5b505050506040513d601f19601f82011682018060405250810190612ed59190614b0b565b508173ffffffffffffffffffffffffffffffffffffffff1663a4f9062389838573ffffffffffffffffffffffffffffffffffffffff166374cb0edb8d6040518263ffffffff1660e01b8152600401612f2d9190613cba565b602060405180830381865afa158015612f4a573d6000803e3d6000fd5b505050506040513d601f19601f82011682018060405250810190612f6e91906145db565b612f789190615732565b6040518363ffffffff1660e01b8152600401612f95929190615774565b600060405180830381600087803b158015612faf57600080fd5b505af1158015612fc3573d6000803e3d6000fd5b5050505080600260008b815260200190815260200160002060010160128282829054906101000a90046bffffffffffffffffffffffff166130049190614c36565b92506101000a8154816bffffffffffffffffffffffff02191690836bffffffffffffffffffffffff1602179055506001600260008b815260200190815260200160002060030160008e61ffff1661ffff16815260200190815260200160002060008282829054906101000a900463ffffffff16613081919061579d565b92506101000a81548163ffffffff021916908363ffffffff1602179055506000600160008b8f8c6040516020016130ba93929190614a4f565b60405160208183030381529060405280519060200120815260200190815260200160002060000160186101000a81548163ffffffff021916908363ffffffff16021790555050505050505050505050505050505050565b60008060008054906101000a900473ffffffffffffffffffffffffffffffffffffffff1673ffffffffffffffffffffffffffffffffffffffff166304433bbc6040518163ffffffff1660e01b815260040161316b90615823565b602060405180830381865afa158015613188573d6000803e3d6000fd5b505050506040513d601f19601f820116820180604052508101906131ac9190614599565b90508073ffffffffffffffffffffffffffffffffffffffff1663a2113a66848888886040516020016131e09392919061588b565b6040516020818303038152906040526040518363ffffffff1660e01b815260040161320c9291906158c4565b6020604051808303816000875af115801561322b573d6000803e3d6000fd5b505050506040513d601f19601f8201168201806040525081019061324f91906146eb565b915050949350505050565b60008484836000015160405160200161327593929190614a4f565b6040516020818303038152906040528051906020012090506000836bffffffffffffffffffffffff16036134fa5760006002600087815260200190815260200160002060020160008661ffff1661ffff1681526020019081526020016000205490506000808214613403576000600160008481526020019081526020016000206040518060600160405290816000820160009054906101000a90046bffffffffffffffffffffffff166bffffffffffffffffffffffff166bffffffffffffffffffffffff16815260200160008201600c9054906101000a90046bffffffffffffffffffffffff166bffffffffffffffffffffffff166bffffffffffffffffffffffff1681526020016000820160189054906101000a900463ffffffff1663ffffffff1663ffffffff1681525050905080600001519150806040015163ffffffff16856040015163ffffffff1611613401576040517f08c379a00000000000000000000000000000000000000000000000000000000081526004016133f89061598c565b60405180910390fd5b505b826002600089815260200190815260200160002060020160008861ffff1661ffff16815260200190815260200160002081905550836001600085815260200190815260200160002060008201518160000160006101000a8154816bffffffffffffffffffffffff02191690836bffffffffffffffffffffffff160217905550602082015181600001600c6101000a8154816bffffffffffffffffffffffff02191690836bffffffffffffffffffffffff16021790555060408201518160000160186101000a81548163ffffffff021916908363ffffffff1602179055509050506134f387878660000151846138e4565b5050613880565b600085858560405160200161351193929190614a4f565b6040516020818303038152906040528051906020012090506000600160008381526020019081526020016000206040518060600160405290816000820160009054906101000a90046bffffffffffffffffffffffff166bffffffffffffffffffffffff166bffffffffffffffffffffffff16815260200160008201600c9054906101000a90046bffffffffffffffffffffffff166bffffffffffffffffffffffff166bffffffffffffffffffffffff1681526020016000820160189054906101000a900463ffffffff1663ffffffff1663ffffffff16815250509050806040015163ffffffff16846040015163ffffffff161115613644576040517f08c379a000000000000000000000000000000000000000000000000000000000815260040161363b90615a44565b60405180910390fd5b6000816020015190506000816bffffffffffffffffffffffff16146137b057600088888360405160200161367a93929190614a4f565b6040516020818303038152906040528051906020012090506000600160008381526020019081526020016000206040518060600160405290816000820160009054906101000a90046bffffffffffffffffffffffff166bffffffffffffffffffffffff166bffffffffffffffffffffffff16815260200160008201600c9054906101000a90046bffffffffffffffffffffffff166bffffffffffffffffffffffff166bffffffffffffffffffffffff1681526020016000820160189054906101000a900463ffffffff1663ffffffff1663ffffffff16815250509050806040015163ffffffff16876040015163ffffffff1610156137ad576040517f08c379a00000000000000000000000000000000000000000000000000000000081526004016137a490615afc565b60405180910390fd5b50505b846001600086815260200190815260200160002060008201518160000160006101000a8154816bffffffffffffffffffffffff02191690836bffffffffffffffffffffffff160217905550602082015181600001600c6101000a8154816bffffffffffffffffffffffff02191690836bffffffffffffffffffffffff16021790555060408201518160000160186101000a81548163ffffffff021916908363ffffffff16021790555090505061386c88888888600001516138e4565b61387c88888760000151846138e4565b5050505b5050505050565b60008160ff164284436040516020016138a293929190615b1c565b6040516020818303038152906040528051906020012060001c6138c591906148f7565b905092915050565b6000826138da858461395f565b1490509392505050565b60008484846040516020016138fb93929190614a4f565b6040516020818303038152906040528051906020012090508160016000838152602001908152602001600020600001600c6101000a8154816bffffffffffffffffffffffff02191690836bffffffffffffffffffffffff1602179055505050505050565b60008082905060005b84518110156139aa5761399582868381518110613988576139876149ff565b5b60200260200101516139b5565b915080806139a290615b59565b915050613968565b508091505092915050565b60008183106139cd576139c882846139e0565b6139d8565b6139d783836139e0565b5b905092915050565b600082600052816020526040600020905092915050565b604051806060016040528060006bffffffffffffffffffffffff16815260200160006bffffffffffffffffffffffff168152602001600063ffffffff1681525090565b6000604051905090565b600080fd5b600080fd5b600073ffffffffffffffffffffffffffffffffffffffff82169050919050565b6000613a7982613a4e565b9050919050565b613a8981613a6e565b8114613a9457600080fd5b50565b600081359050613aa681613a80565b92915050565b6000819050919050565b613abf81613aac565b8114613aca57600080fd5b50565b600081359050613adc81613ab6565b92915050565b600061ffff82169050919050565b613af981613ae2565b8114613b0457600080fd5b50565b600081359050613b1681613af0565b92915050565b600080600060608486031215613b3557613b34613a44565b5b6000613b4386828701613a97565b9350506020613b5486828701613acd565b9250506040613b6586828701613b07565b9150509250925092565b6000819050919050565b613b8281613b6f565b82525050565b613b9181613aac565b82525050565b6000604082019050613bac6000830185613b79565b613bb96020830184613b88565b9392505050565b6000819050919050565b6000613be5613be0613bdb84613a4e565b613bc0565b613a4e565b9050919050565b6000613bf782613bca565b9050919050565b6000613c0982613bec565b9050919050565b613c1981613bfe565b82525050565b6000602082019050613c346000830184613c10565b92915050565b613c4381613b6f565b8114613c4e57600080fd5b50565b600081359050613c6081613c3a565b92915050565b600060208284031215613c7c57613c7b613a44565b5b6000613c8a84828501613c51565b91505092915050565b60006bffffffffffffffffffffffff82169050919050565b613cb481613c93565b82525050565b6000602082019050613ccf6000830184613cab565b92915050565b60006fffffffffffffffffffffffffffffffff82169050919050565b613cfa81613cd5565b82525050565b6000602082019050613d156000830184613cf1565b92915050565b60008060408385031215613d3257613d31613a44565b5b6000613d4085828601613c51565b9250506020613d5185828601613b07565b9150509250929050565b600081519050919050565b600082825260208201905092915050565b6000819050602082019050919050565b613d9081613c93565b82525050565b600063ffffffff82169050919050565b613daf81613d96565b82525050565b606082016000820151613dcb6000850182613d87565b506020820151613dde6020850182613d87565b506040820151613df16040850182613da6565b50505050565b6000613e038383613db5565b60608301905092915050565b6000602082019050919050565b6000613e2782613d5b565b613e318185613d66565b9350613e3c83613d77565b8060005b83811015613e6d578151613e548882613df7565b9750613e5f83613e0f565b925050600181019050613e40565b5085935050505092915050565b60006020820190508181036000830152613e948184613e1c565b905092915050565b600060ff82169050919050565b613eb281613e9c565b82525050565b6000602082019050613ecd6000830184613ea9565b92915050565b600080fd5b600080fd5b6000601f19601f8301169050919050565b7f4e487b7100000000000000000000000000000000000000000000000000000000600052604160045260246000fd5b613f2682613edd565b810181811067ffffffffffffffff82111715613f4557613f44613eee565b5b80604052505050565b6000613f58613a3a565b9050613f648282613f1d565b919050565b600067ffffffffffffffff821115613f8457613f83613eee565b5b613f8d82613edd565b9050602081019050919050565b82818337600083830152505050565b6000613fbc613fb784613f69565b613f4e565b905082815260208101848484011115613fd857613fd7613ed8565b5b613fe3848285613f9a565b509392505050565b600082601f83011261400057613fff613ed3565b5b8135614010848260208601613fa9565b91505092915050565b61402281613e9c565b811461402d57600080fd5b50565b60008135905061403f81614019565b92915050565b61404e81613c93565b811461405957600080fd5b50565b60008135905061406b81614045565b92915050565b600080600080600080600060e0888a0312156140905761408f613a44565b5b600061409e8a828b01613a97565b97505060206140af8a828b01613a97565b96505060406140c08a828b01613acd565b955050606088013567ffffffffffffffff8111156140e1576140e0613a49565b5b6140ed8a828b01613feb565b94505060806140fe8a828b01614030565b93505060a061410f8a828b01613b07565b92505060c06141208a828b0161405c565b91505092959891949750929550565b60008060008060008060c0878903121561414c5761414b613a44565b5b600061415a89828a01613a97565b965050602061416b89828a01613acd565b955050604087013567ffffffffffffffff81111561418c5761418b613a49565b5b61419889828a01613feb565b94505060606141a989828a01614030565b93505060806141ba89828a01613b07565b92505060a06141cb89828a0161405c565b9150509295509295509295565b60006020820190506141ed6000830184613b88565b92915050565b60008115159050919050565b614208816141f3565b82525050565b600060208201905061422360008301846141ff565b92915050565b600080604083850312156142405761423f613a44565b5b600061424e85828601613c51565b925050602061425f85828601614030565b9150509250929050565b600080600080600080600080610100898b03121561428a57614289613a44565b5b60006142988b828c01613a97565b98505060206142a98b828c01613a97565b97505060406142ba8b828c01613acd565b965050606089013567ffffffffffffffff8111156142db576142da613a49565b5b6142e78b828c01613feb565b95505060806142f88b828c01614030565b94505060a06143098b828c01613b07565b93505060c061431a8b828c0161405c565b92505060e061432b8b828c01614030565b9150509295985092959890939650565b61434481613ae2565b82525050565b600060208201905061435f600083018461433b565b92915050565b600067ffffffffffffffff8211156143805761437f613eee565b5b602082029050602081019050919050565b600080fd5b60006143a96143a484614365565b613f4e565b905080838252602082019050602084028301858111156143cc576143cb614391565b5b835b818110156143f557806143e18882613c51565b8452602084019350506020810190506143ce565b5050509392505050565b600082601f83011261441457614413613ed3565b5b8135614424848260208601614396565b91505092915050565b600080600080600080600060e0888a03121561444c5761444b613a44565b5b600061445a8a828b01613a97565b975050602061446b8a828b01613acd565b965050604088013567ffffffffffffffff81111561448c5761448b613a49565b5b6144988a828b01613feb565b95505060606144a98a828b01614030565b94505060806144ba8a828b01613b07565b93505060a088013567ffffffffffffffff8111156144db576144da613a49565b5b6144e78a828b016143ff565b92505060c06144f88a828b01613c51565b91505092959891949750929550565b600082825260208201905092915050565b7f4964656e7469747953746f726167650000000000000000000000000000000000600082015250565b600061454e600f83614507565b915061455982614518565b602082019050919050565b6000602082019050818103600083015261457d81614541565b9050919050565b60008151905061459381613a80565b92915050565b6000602082840312156145af576145ae613a44565b5b60006145bd84828501614584565b91505092915050565b6000815190506145d581614045565b92915050565b6000602082840312156145f1576145f0613a44565b5b60006145ff848285016145c6565b91505092915050565b60008151905061461781613ab6565b92915050565b60006020828403121561463357614632613a44565b5b600061464184828501614608565b91505092915050565b7f4e487b7100000000000000000000000000000000000000000000000000000000600052601160045260246000fd5b600061468482613aac565b915061468f83613aac565b9250828210156146a2576146a161464a565b5b828203905092915050565b60006040820190506146c26000830185613b88565b6146cf6020830184613b88565b9392505050565b6000815190506146e581613c3a565b92915050565b60006020828403121561470157614700613a44565b5b600061470f848285016146d6565b91505092915050565b7f417373657274696f6e5265676973747279000000000000000000000000000000600082015250565b600061474e601183614507565b915061475982614718565b602082019050919050565b6000602082019050818103600083015261477d81614741565b9050919050565b60006020820190506147996000830184613b79565b92915050565b60008160f01b9050919050565b60006147b78261479f565b9050919050565b6147cf6147ca82613ae2565b6147ac565b82525050565b60008160a01b9050919050565b60006147ed826147d5565b9050919050565b61480561480082613c93565b6147e2565b82525050565b600061481782856147be565b60028201915061482782846147f4565b600c820191508190509392505050565b600081519050919050565b600081905092915050565b60005b8381101561486b578082015181840152602081019050614850565b8381111561487a576000848401525b50505050565b600061488b82614837565b6148958185614842565b93506148a581856020860161484d565b80840191505092915050565b60006148bd8284614880565b915081905092915050565b7f4e487b7100000000000000000000000000000000000000000000000000000000600052601260045260246000fd5b600061490282613aac565b915061490d83613aac565b92508261491d5761491c6148c8565b5b828206905092915050565b7f506172616d657465727353746f72616765000000000000000000000000000000600082015250565b600061495e601183614507565b915061496982614928565b602082019050919050565b6000602082019050818103600083015261498d81614951565b9050919050565b600065ffffffffffff82169050919050565b6149af81614994565b81146149ba57600080fd5b50565b6000815190506149cc816149a6565b92915050565b6000602082840312156149e8576149e7613a44565b5b60006149f6848285016149bd565b91505092915050565b7f4e487b7100000000000000000000000000000000000000000000000000000000600052603260045260246000fd5b6000819050919050565b614a49614a4482613b6f565b614a2e565b82525050565b6000614a5b8286614a38565b602082019150614a6b82856147be565b600282019150614a7b82846147f4565b600c82019150819050949350505050565b6000614a9782613e9c565b915060ff8203614aaa57614aa961464a565b5b600182019050919050565b614abe81613a6e565b82525050565b6000602082019050614ad96000830184614ab5565b92915050565b614ae8816141f3565b8114614af357600080fd5b50565b600081519050614b0581614adf565b92915050565b600060208284031215614b2157614b20613a44565b5b6000614b2f84828501614af6565b91505092915050565b7f46756e6374696f6e2063616e206f6e6c792062652063616c6c6564206279204160008201527f73736574205479706520436f6e74726163747300000000000000000000000000602082015250565b6000614b94603383614507565b9150614b9f82614b38565b604082019050919050565b60006020820190508181036000830152614bc381614b87565b9050919050565b7f546f6b656e000000000000000000000000000000000000000000000000000000600082015250565b6000614c00600583614507565b9150614c0b82614bca565b602082019050919050565b60006020820190508181036000830152614c2f81614bf3565b9050919050565b6000614c4182613c93565b9150614c4c83613c93565b925082821015614c5f57614c5e61464a565b5b828203905092915050565b6000604082019050614c7f6000830185614ab5565b614c8c6020830184614ab5565b9392505050565b7f53656e64657220616c6c6f77616e6365206d75737420626520657175616c207460008201527f6f206f7220686967686572207468616e2063686f73656e20616d6f756e742100602082015250565b6000614cef603f83614507565b9150614cfa82614c93565b604082019050919050565b60006020820190508181036000830152614d1e81614ce2565b9050919050565b7f53656e6465722062616c616e6365206d75737420626520657175616c20746f2060008201527f6f7220686967686572207468616e2063686f73656e20616d6f756e7421000000602082015250565b6000614d81603d83614507565b9150614d8c82614d25565b604082019050919050565b60006020820190508181036000830152614db081614d74565b9050919050565b6000614dd2614dcd614dc884613c93565b613bc0565b613aac565b9050919050565b614de281614db7565b82525050565b6000606082019050614dfd6000830186614ab5565b614e0a6020830185614ab5565b614e176040830184614dd9565b949350505050565b6000606082019050614e346000830186613ea9565b614e41602083018561433b565b614e4e6040830184613cab565b949350505050565b7f436f6d6d69742077696e646f7720697320636c6f736564210000000000000000600082015250565b6000614e8c601883614507565b9150614e9782614e56565b602082019050919050565b60006020820190508181036000830152614ebb81614e7f565b9050919050565b7f50726f66696c6553746f72616765000000000000000000000000000000000000600082015250565b6000614ef8600e83614507565b9150614f0382614ec2565b602082019050919050565b60006020820190508181036000830152614f2781614eeb565b9050919050565b7f53636f72696e6750726f78790000000000000000000000000000000000000000600082015250565b6000614f64600c83614507565b9150614f6f82614f2e565b602082019050919050565b60006020820190508181036000830152614f9381614f57565b9050919050565b6000614fad614fa884613f69565b613f4e565b905082815260208101848484011115614fc957614fc8613ed8565b5b614fd484828561484d565b509392505050565b600082601f830112614ff157614ff0613ed3565b5b8151615001848260208601614f9a565b91505092915050565b6000602082840312156150205761501f613a44565b5b600082015167ffffffffffffffff81111561503e5761503d613a49565b5b61504a84828501614fdc565b91505092915050565b600082825260208201905092915050565b600061506f82614837565b6150798185615053565b935061508981856020860161484d565b61509281613edd565b840191505092915050565b600060a0820190506150b26000830188613ea9565b6150bf6020830187613ea9565b81810360408301526150d18186615064565b905081810360608301526150e58185615064565b90506150f46080830184613cab565b9695505050505050565b61510781613d96565b811461511257600080fd5b50565b600081519050615124816150fe565b92915050565b6000602082840312156151405761513f613a44565b5b600061514e84828501615115565b91505092915050565b61516081613cd5565b811461516b57600080fd5b50565b60008151905061517d81615157565b92915050565b60006020828403121561519957615198613a44565b5b60006151a78482850161516e565b91505092915050565b60006151bb82613cd5565b91506151c683613cd5565b9250816fffffffffffffffffffffffffffffffff04831182151516156151ef576151ee61464a565b5b828202905092915050565b600061520582613cd5565b915061521083613cd5565b9250826152205761521f6148c8565b5b828204905092915050565b600061523682613ae2565b915061524183613ae2565b9250828210156152545761525361464a565b5b828203905092915050565b600061526a82613aac565b915061527583613aac565b9250827fffffffffffffffffffffffffffffffffffffffffffffffffffffffffffffffff038211156152aa576152a961464a565b5b828201905092915050565b6000815190506152c481614019565b92915050565b6000602082840312156152e0576152df613a44565b5b60006152ee848285016152b5565b91505092915050565b600061530282613e9c565b915061530d83613e9c565b9250828210156153205761531f61464a565b5b828203905092915050565b600061533682613e9c565b915061534183613e9c565b92508260ff038211156153575761535661464a565b5b828201905092915050565b600060a0820190506153776000830188613ea9565b6153846020830187613b88565b615391604083018661433b565b61539e6060830185613cf1565b6153ab6080830184613cab565b9695505050505050565b6000815190506153c481613af0565b92915050565b6000602082840312156153e0576153df613a44565b5b60006153ee848285016153b5565b91505092915050565b7f50726f6f662077696e646f77206973206f70656e000000000000000000000000600082015250565b600061542d601483614507565b9150615438826153f7565b602082019050919050565b6000602082019050818103600083015261545c81615420565b9050919050565b7f596f75277665206265656e20616c726561647920726577617264656420696e2060008201527f746869732065706f636800000000000000000000000000000000000000000000602082015250565b60006154bf602a83614507565b91506154ca82615463565b604082019050919050565b600060208201905081810360008301526154ee816154b2565b9050919050565b600061550082613d96565b915063ffffffff82036155165761551561464a565b5b600182019050919050565b7f596f7572206e6f6465206861736e2774206265656e206177617264656420666f60008201527f72207468697320617373657420696e20746869732065706f6368000000000000602082015250565b600061557d603a83614507565b915061558882615521565b604082019050919050565b600060208201905081810360008301526155ac81615570565b9050919050565b6000819050919050565b6155ce6155c982613aac565b6155b3565b82525050565b60006155e08285614a38565b6020820191506155f082846155bd565b6020820191508190509392505050565b7f526f6f74206861736820646f65736e2774206d61746368000000000000000000600082015250565b6000615636601783614507565b915061564182615600565b602082019050919050565b6000602082019050818103600083015261566581615629565b9050919050565b600061567782613d96565b915061568283613d96565b9250828210156156955761569461464a565b5b828203905092915050565b60006156ab82613ae2565b91506156b683613ae2565b92508261ffff038211156156cd576156cc61464a565b5b828201905092915050565b60006156e382613c93565b91506156ee83613c93565b9250826156fe576156fd6148c8565b5b828204905092915050565b600060408201905061571e6000830185614ab5565b61572b6020830184614dd9565b9392505050565b600061573d82613c93565b915061574883613c93565b9250826bffffffffffffffffffffffff038211156157695761576861464a565b5b828201905092915050565b60006040820190506157896000830185613cab565b6157966020830184613cab565b9392505050565b60006157a882613d96565b91506157b383613d96565b92508263ffffffff038211156157cc576157cb61464a565b5b828201905092915050565b7f48617368696e6750726f78790000000000000000000000000000000000000000600082015250565b600061580d600c83614507565b9150615818826157d7565b602082019050919050565b6000602082019050818103600083015261583c81615800565b9050919050565b60008160601b9050919050565b600061585b82615843565b9050919050565b600061586d82615850565b9050919050565b61588561588082613a6e565b615862565b82525050565b60006158978286615874565b6014820191506158a782856155bd565b6020820191506158b78284614880565b9150819050949350505050565b60006040820190506158d96000830185613ea9565b81810360208301526158eb8184615064565b90509392505050565b7f53636f7265206f662074686520636f6d6d6974206d757374206265206869676860008201527f65722074686174207468652073636f7265206f6620746865206865616420696e60208201527f206f7264657220746f207265706c616365206974210000000000000000000000604082015250565b6000615976605583614507565b9150615981826158f4565b606082019050919050565b600060208201905081810360008301526159a581615969565b9050919050565b7f53636f7265206f662074686520636f6d6d6974206d757374206265206c65737360008201527f206f7220657175616c20746f20746865206f6e6520796f752077616e7420696e60208201527f7365727420616674657221000000000000000000000000000000000000000000604082015250565b6000615a2e604b83614507565b9150615a39826159ac565b606082019050919050565b60006020820190508181036000830152615a5d81615a21565b9050919050565b7f53636f7265206f662074686520636f6d6d6974206d757374206265206772656160008201527f746572206f7220657175616c20746f20746865206f6e6520796f752077616e7460208201527f20696e73657274206265666f7265210000000000000000000000000000000000604082015250565b6000615ae6604f83614507565b9150615af182615a64565b606082019050919050565b60006020820190508181036000830152615b1581615ad9565b9050919050565b6000615b2882866155bd565b602082019150615b388285615874565b601482019150615b4882846155bd565b602082019150819050949350505050565b6000615b6482613aac565b91507fffffffffffffffffffffffffffffffffffffffffffffffffffffffffffffffff8203615b9657615b9561464a565b5b60018201905091905056fea2646970667358221220b608d13b99fb9f392bc11f617a44c043d47294b196a5c3376d58c9099c0b0d4c64736f6c634300080e0033",
  "immutableReferences": {},
  "source": "// SPDX-License-Identifier: MIT\n\npragma solidity ^0.8.0;\n\nimport { AbstractAsset } from \"../assets/AbstractAsset.sol\";\nimport { AssertionRegistry } from \"../AssertionRegistry.sol\";\nimport { HashingProxy } from \"../HashingProxy.sol\";\nimport { Hub } from \"../Hub.sol\";\nimport { IdentityStorage } from \"./IdentityStorage.sol\";\nimport { IERC20 } from \"@openzeppelin/contracts/token/ERC20/IERC20.sol\";\nimport { MerkleProof } from \"@openzeppelin/contracts/utils/cryptography/MerkleProof.sol\";\nimport { ParametersStorage } from \"./ParametersStorage.sol\";\nimport { ProfileStorage } from \"./ProfileStorage.sol\";\nimport { ScoringProxy } from \"../ScoringProxy.sol\";\nimport { ShardingTable } from \"../ShardingTable.sol\";\n\ncontract ServiceAgreementStorage {\n    event ServiceAgreementCreated(\n        address indexed assetContract,\n        uint256 indexed tokenId,\n        bytes indexed keyword,\n        uint8 hashingFunctionId,\n        uint256 startTime,\n        uint16 epochsNumber,\n        uint128 epochLength,\n        uint96 tokenAmount\n    );\n    event ServiceAgreementUpdated(\n        address indexed assetContract,\n        uint256 indexed tokenId,\n        bytes indexed keyword,\n        uint8 hashingFunctionId,\n        uint16 epochsNumber,\n        uint96 tokenAmount\n    );\n    event CommitSubmitted(\n        address assetContract,\n        uint256 tokenId,\n        bytes indexed keyword,\n        uint8 hashingFunctionId,\n        uint96 indexed identityId,\n        bytes indexed nodeId,\n        uint32 score\n    );\n    event ProofSubmitted(\n        address assetContract,\n        uint256 tokenId,\n        bytes indexed keyword,\n        uint8 hashingFunctionId,\n        uint96 indexed identityId,\n        bytes indexed nodeId\n    );\n\n\n    struct CommitSubmission {\n        uint96 identityId;\n        uint96 nextIdentity;\n        uint32 score;\n    }\n\n    struct ServiceAgreement {\n        uint256 startTime;\n        uint16 epochsNumber;\n        uint128 epochLength;\n        uint96 tokenAmount;\n        uint8 scoringFunctionId;\n        uint8 proofWindowOffsetPerc;  // Perc == In % of the epoch\n        mapping(uint16 => bytes32) epochSubmissionHeads;  // epoch => headCommitId\n        mapping(uint16 => uint32) rewardedNodes;\n    }\n\n    Hub public hub;\n\n    // CommitId [keccak256(agreementId + epoch + identityId)] => CommitSubmission\n    mapping(bytes32 => CommitSubmission) commitSubmissions;\n\n    // hash(asset type contract + tokenId + key) -> ServiceAgreement\n    mapping(bytes32 => ServiceAgreement) serviceAgreements;\n\n    constructor (address hubAddress) {\n        require(hubAddress != address(0));\n        hub = Hub(hubAddress);\n    }\n\n    modifier onlyAssetContracts() {\n        require (\n            hub.isAssetContract(msg.sender),\n            \"Function can only be called by Asset Type Contracts\"\n        );\n        _;\n    }\n\n    function getAgreementStartTime(bytes32 agreementId) public view returns (uint256) {\n        return serviceAgreements[agreementId].startTime;\n    }\n\n    function getAgreementEpochsNumber(bytes32 agreementId) public view returns (uint16) {\n        return serviceAgreements[agreementId].epochsNumber;\n    }\n\n    function getAgreementEpochLength(bytes32 agreementId) public view returns (uint128) {\n        return serviceAgreements[agreementId].epochLength;\n    }\n\n    function getAgreementTokenAmount(bytes32 agreementId) public view returns (uint96) {\n        return serviceAgreements[agreementId].tokenAmount;\n    }\n\n    function getAgreementScoringFunctionId(bytes32 agreementId) public view returns (uint8) {\n        return serviceAgreements[agreementId].scoringFunctionId;\n    }\n\n    function getAgreementProofWindowOffsetPerc(bytes32 agreementId) public view returns (uint8) {\n        return serviceAgreements[agreementId].proofWindowOffsetPerc;\n    }\n\n    function createServiceAgreement(\n        address operationalWallet,\n        address assetContract,\n        uint256 tokenId,\n        bytes memory keyword,\n        uint8 hashingFunctionId,\n        uint16 epochsNumber,\n        uint96 tokenAmount,\n        uint8 scoringFunctionId\n    )\n        public\n        onlyAssetContracts\n    {\n        bytes32 agreementId = _generateAgreementId(assetContract, tokenId, keyword, hashingFunctionId);\n\n        ParametersStorage parametersStorage = ParametersStorage(hub.getContractAddress(\"ParametersStorage\"));\n\n        ServiceAgreement storage agreement = serviceAgreements[agreementId];\n        agreement.startTime = block.timestamp;\n        agreement.epochsNumber = epochsNumber;\n        agreement.epochLength = parametersStorage.epochLength();\n        agreement.proofWindowOffsetPerc = parametersStorage.minProofWindowOffsetPerc() + _generatePseudorandomUint8(\n            operationalWallet,\n            parametersStorage.maxProofWindowOffsetPerc() - parametersStorage.minProofWindowOffsetPerc() + 1\n        );\n        agreement.tokenAmount = tokenAmount;\n        agreement.scoringFunctionId = scoringFunctionId;\n\n        IERC20 tokenContract = IERC20(hub.getContractAddress(\"Token\"));\n        require(\n            tokenContract.allowance(operationalWallet, address(this)) >= tokenAmount,\n            \"Sender allowance must be equal to or higher than chosen amount!\"\n        );\n        require(\n            tokenContract.balanceOf(operationalWallet) >= tokenAmount,\n            \"Sender balance must be equal to or higher than chosen amount!\"\n        );\n\n        tokenContract.transferFrom(operationalWallet, address(this), tokenAmount);\n\n        emit ServiceAgreementCreated(\n            assetContract,\n            tokenId,\n            keyword,\n            hashingFunctionId,\n            agreement.startTime,\n            agreement.epochsNumber,\n            agreement.epochLength,\n            agreement.tokenAmount\n        );\n    }\n\n    // TODO: Split into smaller functions\n    function updateServiceAgreement(\n        address operationalWallet,\n        address assetContract,\n        uint256 tokenId,\n        bytes memory keyword,\n        uint8 hashingFunctionId,\n        uint16 epochsNumber,\n        uint96 tokenAmount\n    )\n        public\n        onlyAssetContracts\n    {\n        bytes32 agreementId = _generateAgreementId(assetContract, tokenId, keyword, hashingFunctionId);\n\n        // require(serviceAgreements[agreementId]);\n\n        uint96 actualBalance = serviceAgreements[agreementId].tokenAmount;\n\n        serviceAgreements[agreementId].epochsNumber = epochsNumber;\n        serviceAgreements[agreementId].tokenAmount = tokenAmount;\n\n        IERC20 tokenContract = IERC20(hub.getContractAddress(\"Token\"));\n        require(\n            tokenContract.allowance(operationalWallet, address(this)) >= (actualBalance - tokenAmount),\n            \"Sender allowance must be equal to or higher than chosen amount!\"\n        );\n        require(\n            tokenContract.balanceOf(operationalWallet) >= (actualBalance - tokenAmount),\n            \"Sender balance must be equal to or higher than chosen amount!\"\n        );\n\n        tokenContract.transferFrom(operationalWallet, address(this), actualBalance - tokenAmount);\n\n        emit ServiceAgreementUpdated(\n            assetContract,\n            tokenId,\n            keyword,\n            hashingFunctionId,\n            serviceAgreements[agreementId].epochsNumber,\n            serviceAgreements[agreementId].tokenAmount\n        );\n    }\n\n    function isCommitWindowOpen(bytes32 agreementId, uint16 epoch)\n        public\n        view\n        returns (bool)\n    {\n        uint256 timeNow = block.timestamp;\n        ServiceAgreement storage agreement = serviceAgreements[agreementId];\n\n        ParametersStorage parametersStorage = ParametersStorage(hub.getContractAddress(\"ParametersStorage\"));\n\n        return (\n            timeNow > (agreement.startTime + agreement.epochLength * epoch) &&\n            timeNow < (agreement.startTime + agreement.epochLength * epoch + parametersStorage.commitWindowDuration())\n        );\n    }\n\n    function getCommitSubmissions(bytes32 agreementId, uint16 epoch)\n        public\n        view\n        returns (CommitSubmission[] memory)\n    {\n        ParametersStorage parametersStorage = ParametersStorage(hub.getContractAddress(\"ParametersStorage\"));\n        CommitSubmission[] memory epochCommits = new CommitSubmission[](parametersStorage.R2());\n\n        bytes32 epochSubmissionsHead = serviceAgreements[agreementId].epochSubmissionHeads[epoch];\n\n        uint8 submissionsIdx = 0;\n\n        epochCommits[submissionsIdx] = commitSubmissions[epochSubmissionsHead];\n\n        uint96 nextIdentityId = commitSubmissions[epochSubmissionsHead].nextIdentity;\n        while(nextIdentityId != 0) {\n            // VERIFY: Is keccak256(agreementId + epoch + identityId) a good key?\n            bytes32 commitId = keccak256(abi.encodePacked(agreementId, epoch, nextIdentityId));\n\n            CommitSubmission memory commit = commitSubmissions[commitId];\n            submissionsIdx++;\n            epochCommits[submissionsIdx] = commit;\n\n            nextIdentityId = commit.nextIdentity;\n        }\n\n        return epochCommits;\n    }\n\n    function submitCommit(\n        address assetContract,\n        uint256 tokenId,\n        bytes memory keyword,\n        uint8 hashingFunctionId,\n        uint16 epoch,\n        uint96 prevIdentityId\n    )\n        public\n        returns (uint256)\n    {\n        bytes32 agreementId = _generateAgreementId(assetContract, tokenId, keyword, hashingFunctionId);\n\n        require(isCommitWindowOpen(agreementId, epoch), \"Commit window is closed!\");\n\n        IdentityStorage identityStorage = IdentityStorage(hub.getContractAddress(\"IdentityStorage\"));\n        uint96 identityId = identityStorage.getIdentityId();\n\n        ProfileStorage profileStorage = ProfileStorage(hub.getContractAddress(\"ProfileStorage\"));\n\n        ScoringProxy scoringProxy = ScoringProxy(hub.getContractAddress(\"ScoringProxy\"));\n        uint32 score = scoringProxy.callScoringFunction(\n            serviceAgreements[agreementId].scoringFunctionId,\n            hashingFunctionId,\n            profileStorage.getNodeId(identityId),\n            keyword,\n            profileStorage.getStake(identityId)\n        );\n\n        _insertCommitAfter(\n            agreementId,\n            epoch,\n            prevIdentityId,\n            CommitSubmission({\n                identityId: identityId,\n                nextIdentity: 0,\n                score: score\n            })\n        );\n\n        // emit CommitSubmitted(\n        //     assetContract,\n        //     tokenId,\n        //     keyword,\n        //     hashingFunctionId,\n        //     identityId,\n        //     profileStorage.getNodeId(identityId),\n        //     score\n        // );\n\n        ParametersStorage parametersStorage = ParametersStorage(hub.getContractAddress(\"ParametersStorage\"));\n\n        // Returns start time of the proof phase\n        return (\n            serviceAgreements[agreementId].startTime +\n            parametersStorage.epochLength() * (epoch - 1) +\n            parametersStorage.epochLength() * serviceAgreements[agreementId].proofWindowOffsetPerc / 100\n        );\n    }\n\n    function isProofWindowOpen(bytes32 agreementId, uint16 epoch)\n        public\n        view\n        returns (bool)\n    {\n        uint256 timeNow = block.timestamp;\n        ServiceAgreement storage agreement = serviceAgreements[agreementId];\n\n        ParametersStorage parametersStorage = ParametersStorage(hub.getContractAddress(\"ParametersStorage\"));\n\n        uint256 proofWindowOffset = agreement.epochLength * agreement.epochsNumber * agreement.proofWindowOffsetPerc / 100;\n        uint256 proofWindowDuration = (\n            agreement.epochLength * agreement.epochsNumber * parametersStorage.proofWindowDurationPerc() / 100\n        );\n\n        return (\n            timeNow > (agreement.startTime + agreement.epochLength * epoch + proofWindowOffset) &&\n            timeNow < (agreement.startTime + agreement.epochLength * epoch + proofWindowOffset + proofWindowDuration)\n        );\n    }\n\n    function getChallenge(address assetContract, uint256 tokenId, uint16 epoch)\n        public\n        view\n        returns (bytes32, uint256)\n    {\n        IdentityStorage identityStorage = IdentityStorage(hub.getContractAddress(\"IdentityStorage\"));\n        uint96 identityId = identityStorage.getIdentityId();\n\n        AbstractAsset generalAssetInterface = AbstractAsset(assetContract);\n        bytes32 assertionId = generalAssetInterface.getAssertionByIndex(\n            tokenId,\n            AbstractAsset(assetContract).getAssertionsLength(tokenId) - 1\n        );\n\n        AssertionRegistry assertionRegistry = AssertionRegistry(hub.getContractAddress(\"AssertionRegistry\"));\n        uint256 assertionChunksNumber = assertionRegistry.getChunksNumber(assertionId);\n\n        // blockchash() function only works for last 256 blocks (25.6 min window in case of 6s block time)\n        // TODO: figure out how to achieve randomness\n        return (\n            assertionId,\n            uint256(\n                sha256(abi.encodePacked(epoch, identityId))\n            ) % assertionChunksNumber\n        );\n    }\n\n    function sendProof(\n        address assetContract,\n        uint256 tokenId,\n        bytes memory keyword,\n        uint8 hashingFunctionId,\n        uint16 epoch,\n        bytes32[] memory proof,\n        bytes32 chunkHash\n    )\n        public\n    {\n        bytes32 agreementId = _generateAgreementId(assetContract, tokenId, keyword, hashingFunctionId);\n        require(!isProofWindowOpen(agreementId, epoch), \"Proof window is open\");\n\n        uint96 identityId = IdentityStorage(hub.getContractAddress(\"IdentityStorage\")).getIdentityId();\n\n        require(\n            commitSubmissions[keccak256(abi.encodePacked(agreementId, epoch, identityId))].score != 0,\n            \"You've been already rewarded in this epoch\"\n        );\n\n        bytes32 nextCommitId = serviceAgreements[agreementId].epochSubmissionHeads[epoch];\n\n        ParametersStorage parametersStorage = ParametersStorage(hub.getContractAddress(\"ParametersStorage\"));\n\n        uint32 i = 0;\n        while ((identityId != commitSubmissions[nextCommitId].identityId) || (i != parametersStorage.R0())) {\n            nextCommitId = keccak256(\n                abi.encodePacked(agreementId, epoch, commitSubmissions[nextCommitId].nextIdentity)\n            );\n            i++;\n        }\n\n        require(i < parametersStorage.R0(), \"Your node hasn't been awarded for this asset in this epoch\");\n\n        bytes32 merkleRoot;\n        uint256 challenge;\n        (merkleRoot, challenge) = getChallenge(assetContract, tokenId, epoch);\n\n        require(\n            MerkleProof.verify(\n                proof,\n                merkleRoot,\n                keccak256(abi.encodePacked(chunkHash, challenge))\n            ),\n            \"Root hash doesn't match\"\n        );\n\n        ProfileStorage profileStorage = ProfileStorage(hub.getContractAddress(\"ProfileStorage\"));\n\n        // emit ProofSubmitted(\n        //     assetContract,\n        //     tokenId,\n        //     keyword,\n        //     hashingFunctionId,\n        //     identityId,\n        //     profileStorage.getNodeId(identityId)\n        // );\n\n        uint96 reward = (\n            serviceAgreements[agreementId].tokenAmount /\n            (serviceAgreements[agreementId].epochsNumber - epoch + 1) /\n            (parametersStorage.R0() - serviceAgreements[agreementId].rewardedNodes[epoch])\n        );\n\n        IERC20(hub.getContractAddress(\"Token\")).transfer(address(profileStorage), reward);\n\n        profileStorage.setReward(identityId, profileStorage.getReward(identityId) + reward);\n\n        serviceAgreements[agreementId].tokenAmount -= reward;\n        serviceAgreements[agreementId].rewardedNodes[epoch] += 1;\n\n        // To make sure that node already received reward\n        commitSubmissions[keccak256(abi.encodePacked(agreementId, epoch, identityId))].score = 0;\n    }\n\n    function setScoringFunction(bytes32 agreementId, uint8 newScoringFunctionId)\n        public\n        onlyAssetContracts\n    {\n        serviceAgreements[agreementId].scoringFunctionId = newScoringFunctionId;\n    }\n\n    function _insertCommitAfter(bytes32 agreementId, uint16 epoch, uint96 prevIdentityId, CommitSubmission memory commit)\n        private\n    {\n        bytes32 commitId = keccak256(abi.encodePacked(agreementId, epoch, commit.identityId));\n\n        // Replacing head\n        if (prevIdentityId == 0) {\n            bytes32 epochSubmissionsHead = serviceAgreements[agreementId].epochSubmissionHeads[epoch];\n\n            uint96 prevHeadIdentityId = 0;\n            if(epochSubmissionsHead != \"\") {\n                CommitSubmission memory commitHead = commitSubmissions[epochSubmissionsHead];\n                prevHeadIdentityId = commitHead.identityId;\n\n                require(\n                    commit.score > commitHead.score,\n                    \"Score of the commit must be higher that the score of the head in order to replace it!\"\n                );\n            }\n\n            serviceAgreements[agreementId].epochSubmissionHeads[epoch] = commitId;\n            commitSubmissions[commitId] = commit;\n            _link_commits(agreementId, epoch, commit.identityId, prevHeadIdentityId);\n        }\n        else {\n            bytes32 prevCommitId = keccak256(abi.encodePacked(agreementId, epoch, prevIdentityId));\n            CommitSubmission memory prevCommit = commitSubmissions[prevCommitId];\n\n            require(\n                commit.score <= prevCommit.score,\n                \"Score of the commit must be less or equal to the one you want insert after!\"\n            );\n\n            uint96 nextIdentityId = prevCommit.nextIdentity;\n            if (nextIdentityId != 0) {\n                bytes32 nextCommitId = keccak256(abi.encodePacked(agreementId, epoch, nextIdentityId));\n                CommitSubmission memory nextCommit = commitSubmissions[nextCommitId];\n\n                require(\n                    commit.score >= nextCommit.score,\n                    \"Score of the commit must be greater or equal to the one you want insert before!\"\n                );\n            }\n\n            commitSubmissions[commitId] = commit;\n            _link_commits(agreementId, epoch, prevIdentityId, commit.identityId);\n            _link_commits(agreementId, epoch, commit.identityId, nextIdentityId);\n        }\n    }\n\n    function _link_commits(bytes32 agreementId, uint16 epoch, uint96 leftIdentityId, uint96 rightIdentityId)\n        private\n    {\n        bytes32 leftCommitId = keccak256(abi.encodePacked(agreementId, epoch, leftIdentityId));\n        commitSubmissions[leftCommitId].nextIdentity = rightIdentityId;\n    }\n\n    function _generateAgreementId(address assetContract, uint256 tokenId, bytes memory keyword, uint8 hashingFunctionId)\n        private\n        returns (bytes32)\n    {\n        HashingProxy hashingProxy = HashingProxy(hub.getContractAddress(\"HashingProxy\"));\n        return hashingProxy.callHashingFunction(hashingFunctionId, abi.encodePacked(assetContract, tokenId, keyword));\n    }\n\n    function _generatePseudorandomUint8(address sender, uint8 limit)\n        private\n        view\n        returns (uint8)\n    {\n        // TODO: Test type conversion\n        return uint8(uint256(keccak256(abi.encodePacked(block.timestamp, sender, block.number))) % limit);\n    }\n}\n",
  "sourcePath": "/Users/waving/Desktop/OriginTrail/dkg-evm-module/contracts/storage/ServiceAgreementStorage.sol",
  "compiler": {
    "name": "solc",
    "version": "0.8.14+commit.80d49f37.Emscripten.clang"
  },
  "schemaVersion": "3.4.10",
  "updatedAt": "2022-11-17T08:04:06.590Z",
  "devdoc": {
    "kind": "dev",
    "methods": {},
    "version": 1
  },
  "userdoc": {
    "kind": "user",
    "methods": {},
    "version": 1
  }
}