{
  "contractName": "ServiceAgreementStorage",
  "abi": [
    {
      "inputs": [
        {
          "internalType": "address",
          "name": "hubAddress",
          "type": "address"
        }
      ],
      "stateMutability": "nonpayable",
      "type": "constructor"
    },
    {
      "anonymous": false,
      "inputs": [
        {
          "indexed": false,
          "internalType": "address",
          "name": "assetContract",
          "type": "address"
        },
        {
          "indexed": false,
          "internalType": "uint256",
          "name": "tokenId",
          "type": "uint256"
        },
        {
          "indexed": true,
          "internalType": "bytes",
          "name": "keyword",
          "type": "bytes"
        },
        {
          "indexed": false,
          "internalType": "uint8",
          "name": "hashingFunctionId",
          "type": "uint8"
        },
        {
          "indexed": true,
          "internalType": "uint96",
          "name": "identityId",
          "type": "uint96"
        },
        {
          "indexed": true,
          "internalType": "bytes",
          "name": "nodeId",
          "type": "bytes"
        },
        {
          "indexed": false,
          "internalType": "uint32",
          "name": "score",
          "type": "uint32"
        }
      ],
      "name": "CommitSubmitted",
      "type": "event"
    },
    {
      "anonymous": false,
      "inputs": [
        {
          "indexed": false,
          "internalType": "address",
          "name": "assetContract",
          "type": "address"
        },
        {
          "indexed": false,
          "internalType": "uint256",
          "name": "tokenId",
          "type": "uint256"
        },
        {
          "indexed": true,
          "internalType": "bytes",
          "name": "keyword",
          "type": "bytes"
        },
        {
          "indexed": false,
          "internalType": "uint8",
          "name": "hashingFunctionId",
          "type": "uint8"
        },
        {
          "indexed": true,
          "internalType": "uint96",
          "name": "identityId",
          "type": "uint96"
        },
        {
          "indexed": true,
          "internalType": "bytes",
          "name": "nodeId",
          "type": "bytes"
        }
      ],
      "name": "ProofSubmitted",
      "type": "event"
    },
    {
      "anonymous": false,
      "inputs": [
        {
          "indexed": true,
          "internalType": "address",
          "name": "assetContract",
          "type": "address"
        },
        {
          "indexed": true,
          "internalType": "uint256",
          "name": "tokenId",
          "type": "uint256"
        },
        {
          "indexed": true,
          "internalType": "bytes",
          "name": "keyword",
          "type": "bytes"
        },
        {
          "indexed": false,
          "internalType": "uint8",
          "name": "hashingFunctionId",
          "type": "uint8"
        },
        {
          "indexed": false,
          "internalType": "uint256",
          "name": "startTime",
          "type": "uint256"
        },
        {
          "indexed": false,
          "internalType": "uint16",
          "name": "epochsNum",
          "type": "uint16"
        },
        {
          "indexed": false,
          "internalType": "uint128",
          "name": "epochLength",
          "type": "uint128"
        },
        {
          "indexed": false,
          "internalType": "uint96",
          "name": "tokenAmount",
          "type": "uint96"
        }
      ],
      "name": "ServiceAgreementCreated",
      "type": "event"
    },
    {
      "anonymous": false,
      "inputs": [
        {
          "indexed": true,
          "internalType": "address",
          "name": "assetContract",
          "type": "address"
        },
        {
          "indexed": true,
          "internalType": "uint256",
          "name": "tokenId",
          "type": "uint256"
        },
        {
          "indexed": true,
          "internalType": "bytes",
          "name": "keyword",
          "type": "bytes"
        },
        {
          "indexed": false,
          "internalType": "uint8",
          "name": "hashingFunctionId",
          "type": "uint8"
        },
        {
          "indexed": false,
          "internalType": "uint16",
          "name": "epochsNum",
          "type": "uint16"
        },
        {
          "indexed": false,
          "internalType": "uint96",
          "name": "tokenAmount",
          "type": "uint96"
        }
      ],
      "name": "ServiceAgreementUpdated",
      "type": "event"
    },
    {
      "inputs": [],
      "name": "hub",
      "outputs": [
        {
          "internalType": "contract Hub",
          "name": "",
          "type": "address"
        }
      ],
      "stateMutability": "view",
      "type": "function"
    },
    {
      "inputs": [
        {
          "internalType": "bytes32",
          "name": "",
          "type": "bytes32"
        }
      ],
      "name": "serviceAgreements",
      "outputs": [
        {
          "internalType": "uint256",
          "name": "startTime",
          "type": "uint256"
        },
        {
          "internalType": "uint16",
          "name": "epochsNum",
          "type": "uint16"
        },
        {
          "internalType": "uint128",
          "name": "epochLength",
          "type": "uint128"
        },
        {
          "internalType": "uint96",
          "name": "tokenAmount",
          "type": "uint96"
        },
        {
          "internalType": "uint8",
          "name": "scoringFunctionId",
          "type": "uint8"
        },
        {
          "internalType": "uint8",
          "name": "proofWindowOffsetPerc",
          "type": "uint8"
        }
      ],
      "stateMutability": "view",
      "type": "function"
    },
    {
      "inputs": [
        {
          "internalType": "address",
          "name": "operationalWallet",
          "type": "address"
        },
        {
          "internalType": "address",
          "name": "assetContract",
          "type": "address"
        },
        {
          "internalType": "uint256",
          "name": "tokenId",
          "type": "uint256"
        },
        {
          "internalType": "bytes",
          "name": "keyword",
          "type": "bytes"
        },
        {
          "internalType": "uint8",
          "name": "hashingFunctionId",
          "type": "uint8"
        },
        {
          "internalType": "uint16",
          "name": "epochsNum",
          "type": "uint16"
        },
        {
          "internalType": "uint96",
          "name": "tokenAmount",
          "type": "uint96"
        },
        {
          "internalType": "uint8",
          "name": "scoringFunctionId",
          "type": "uint8"
        }
      ],
      "name": "createServiceAgreement",
      "outputs": [],
      "stateMutability": "nonpayable",
      "type": "function"
    },
    {
      "inputs": [
        {
          "internalType": "address",
          "name": "operationalWallet",
          "type": "address"
        },
        {
          "internalType": "address",
          "name": "assetContract",
          "type": "address"
        },
        {
          "internalType": "uint256",
          "name": "tokenId",
          "type": "uint256"
        },
        {
          "internalType": "bytes",
          "name": "keyword",
          "type": "bytes"
        },
        {
          "internalType": "uint8",
          "name": "hashingFunctionId",
          "type": "uint8"
        },
        {
          "internalType": "uint16",
          "name": "epochsNum",
          "type": "uint16"
        },
        {
          "internalType": "uint96",
          "name": "tokenAmount",
          "type": "uint96"
        }
      ],
      "name": "updateServiceAgreement",
      "outputs": [],
      "stateMutability": "nonpayable",
      "type": "function"
    },
    {
      "inputs": [
        {
          "internalType": "bytes32",
          "name": "agreementId",
          "type": "bytes32"
        },
        {
          "internalType": "uint16",
          "name": "epoch",
          "type": "uint16"
        }
      ],
      "name": "isCommitWindowOpen",
      "outputs": [
        {
          "internalType": "bool",
          "name": "",
          "type": "bool"
        }
      ],
      "stateMutability": "view",
      "type": "function"
    },
    {
      "inputs": [
        {
          "internalType": "bytes32",
          "name": "agreementId",
          "type": "bytes32"
        },
        {
          "internalType": "uint16",
          "name": "epoch",
          "type": "uint16"
        }
      ],
      "name": "getCommitSubmissions",
      "outputs": [
        {
          "components": [
            {
              "internalType": "uint96",
              "name": "identityId",
              "type": "uint96"
            },
            {
              "internalType": "uint96",
              "name": "nextIdentity",
              "type": "uint96"
            },
            {
              "internalType": "uint32",
              "name": "score",
              "type": "uint32"
            }
          ],
          "internalType": "struct ServiceAgreementStorage.CommitSubmission[]",
          "name": "",
          "type": "tuple[]"
        }
      ],
      "stateMutability": "view",
      "type": "function"
    },
    {
      "inputs": [
        {
          "internalType": "address",
          "name": "assetContract",
          "type": "address"
        },
        {
          "internalType": "uint256",
          "name": "tokenId",
          "type": "uint256"
        },
        {
          "internalType": "bytes",
          "name": "keyword",
          "type": "bytes"
        },
        {
          "internalType": "uint8",
          "name": "hashingFunctionId",
          "type": "uint8"
        },
        {
          "internalType": "uint16",
          "name": "epoch",
          "type": "uint16"
        },
        {
          "internalType": "uint96",
          "name": "prevIdentityId",
          "type": "uint96"
        }
      ],
      "name": "submitCommit",
      "outputs": [
        {
          "internalType": "uint256",
          "name": "",
          "type": "uint256"
        }
      ],
      "stateMutability": "nonpayable",
      "type": "function"
    },
    {
      "inputs": [
        {
          "internalType": "bytes32",
          "name": "agreementId",
          "type": "bytes32"
        },
        {
          "internalType": "uint16",
          "name": "epoch",
          "type": "uint16"
        }
      ],
      "name": "isProofWindowOpen",
      "outputs": [
        {
          "internalType": "bool",
          "name": "",
          "type": "bool"
        }
      ],
      "stateMutability": "view",
      "type": "function"
    },
    {
      "inputs": [
        {
          "internalType": "address",
          "name": "assetContract",
          "type": "address"
        },
        {
          "internalType": "uint256",
          "name": "tokenId",
          "type": "uint256"
        },
        {
          "internalType": "uint16",
          "name": "epoch",
          "type": "uint16"
        }
      ],
      "name": "getChallenge",
      "outputs": [
        {
          "internalType": "bytes32",
          "name": "",
          "type": "bytes32"
        },
        {
          "internalType": "uint256",
          "name": "",
          "type": "uint256"
        }
      ],
      "stateMutability": "view",
      "type": "function"
    },
    {
      "inputs": [
        {
          "internalType": "address",
          "name": "assetContract",
          "type": "address"
        },
        {
          "internalType": "uint256",
          "name": "tokenId",
          "type": "uint256"
        },
        {
          "internalType": "bytes",
          "name": "keyword",
          "type": "bytes"
        },
        {
          "internalType": "uint8",
          "name": "hashingFunctionId",
          "type": "uint8"
        },
        {
          "internalType": "uint16",
          "name": "epoch",
          "type": "uint16"
        },
        {
          "internalType": "bytes32[]",
          "name": "proof",
          "type": "bytes32[]"
        },
        {
          "internalType": "bytes32",
          "name": "chunkHash",
          "type": "bytes32"
        }
      ],
      "name": "sendProof",
      "outputs": [],
      "stateMutability": "nonpayable",
      "type": "function"
    },
    {
      "inputs": [
        {
          "internalType": "bytes32",
          "name": "agreementId",
          "type": "bytes32"
        },
        {
          "internalType": "uint8",
          "name": "newScoringFunctionId",
          "type": "uint8"
        }
      ],
      "name": "setScoringFunction",
      "outputs": [],
      "stateMutability": "nonpayable",
      "type": "function"
    }
  ],
  "bytecode": "0x60806040523480156200001157600080fd5b5060405162005c3338038062005c33833981810160405281019062000037919062000122565b600073ffffffffffffffffffffffffffffffffffffffff168173ffffffffffffffffffffffffffffffffffffffff16036200007157600080fd5b806000806101000a81548173ffffffffffffffffffffffffffffffffffffffff021916908373ffffffffffffffffffffffffffffffffffffffff1602179055505062000154565b600080fd5b600073ffffffffffffffffffffffffffffffffffffffff82169050919050565b6000620000ea82620000bd565b9050919050565b620000fc81620000dd565b81146200010857600080fd5b50565b6000815190506200011c81620000f1565b92915050565b6000602082840312156200013b576200013a620000b8565b5b60006200014b848285016200010b565b91505092915050565b615acf80620001646000396000f3fe608060405234801561001057600080fd5b50600436106100a95760003560e01c806385e57f571161007157806385e57f571461017e578063aa6a00fd146101ae578063b1f38350146101de578063be82c4e2146101fa578063becdd59714610216578063fc348cb614610246576100a9565b806332c2fbf1146100ae578063365a86fc146100df5780634fb96d50146100fd57806361f14ece1461012d57806375d3507014610149575b600080fd5b6100c860048036038101906100c391906139e9565b610262565b6040516100d6929190613a64565b60405180910390f35b6100e761066b565b6040516100f49190613aec565b60405180910390f35b61011760048036038101906101129190613b33565b61068f565b6040516101249190613caa565b60405180910390f35b61014760048036038101906101429190613e77565b610a9c565b005b610163600480360381019061015e9190613f35565b610fca565b60405161017596959493929190613fba565b60405180910390f35b6101986004803603810190610193919061401b565b611062565b6040516101a591906140c4565b60405180910390f35b6101c860048036038101906101c39190613b33565b611757565b6040516101d591906140fa565b60405180910390f35b6101f860048036038101906101f39190614115565b611a50565b005b610214600480360381019061020f9190614155565b611b5c565b005b610230600480360381019061022b9190613b33565b61232d565b60405161023d91906140fa565b60405180910390f35b610260600480360381019061025b91906142ef565b61251d565b005b60008060008060009054906101000a900473ffffffffffffffffffffffffffffffffffffffff1673ffffffffffffffffffffffffffffffffffffffff166304433bbc6040518163ffffffff1660e01b81526004016102bf90614426565b602060405180830381865afa1580156102dc573d6000803e3d6000fd5b505050506040513d601f19601f82011682018060405250810190610300919061445b565b905060008173ffffffffffffffffffffffffffffffffffffffff16631fc2b3ab3360405160200161033191906144d0565b604051602081830303815290604052805190602001206040518263ffffffff1660e01b815260040161036391906144eb565b602060405180830381865afa158015610380573d6000803e3d6000fd5b505050506040513d601f19601f820116820180604052508101906103a4919061451b565b9050600087905060008173ffffffffffffffffffffffffffffffffffffffff1663469766668960018c73ffffffffffffffffffffffffffffffffffffffff16635a58db148d6040518263ffffffff1660e01b815260040161040591906140c4565b602060405180830381865afa158015610422573d6000803e3d6000fd5b505050506040513d601f19601f82011682018060405250810190610446919061455d565b61045091906145b9565b6040518363ffffffff1660e01b815260040161046d9291906145ed565b602060405180830381865afa15801561048a573d6000803e3d6000fd5b505050506040513d601f19601f820116820180604052508101906104ae919061462b565b905060008060009054906101000a900473ffffffffffffffffffffffffffffffffffffffff1673ffffffffffffffffffffffffffffffffffffffff166304433bbc6040518163ffffffff1660e01b815260040161050a906146a4565b602060405180830381865afa158015610527573d6000803e3d6000fd5b505050506040513d601f19601f8201168201806040525081019061054b919061445b565b905060008173ffffffffffffffffffffffffffffffffffffffff1663ec82e3a7846040518263ffffffff1660e01b815260040161058891906144eb565b602060405180830381865afa1580156105a5573d6000803e3d6000fd5b505050506040513d601f19601f820116820180604052508101906105c9919061451b565b6bffffffffffffffffffffffff169050828160028b886040516020016105f0929190614730565b60405160208183030381529060405260405161060c91906147d6565b602060405180830381855afa158015610629573d6000803e3d6000fd5b5050506040513d601f19601f8201168201806040525081019061064c919061462b565b60001c610659919061481c565b97509750505050505050935093915050565b60008054906101000a900473ffffffffffffffffffffffffffffffffffffffff1681565b606060008060009054906101000a900473ffffffffffffffffffffffffffffffffffffffff1673ffffffffffffffffffffffffffffffffffffffff166304433bbc6040518163ffffffff1660e01b81526004016106eb90614899565b602060405180830381865afa158015610708573d6000803e3d6000fd5b505050506040513d601f19601f8201168201806040525081019061072c919061445b565b905060008173ffffffffffffffffffffffffffffffffffffffff1663fee2cb056040518163ffffffff1660e01b8152600401602060405180830381865afa15801561077b573d6000803e3d6000fd5b505050506040513d601f19601f8201168201806040525081019061079f91906148f7565b65ffffffffffff1667ffffffffffffffff8111156107c0576107bf613ce7565b5b6040519080825280602002602001820160405280156107f957816020015b6107e66138c4565b8152602001906001900390816107de5790505b50905060006002600087815260200190815260200160002060020160008661ffff1661ffff1681526020019081526020016000205490506000600160008381526020019081526020016000206040518060600160405290816000820160009054906101000a90046bffffffffffffffffffffffff166bffffffffffffffffffffffff166bffffffffffffffffffffffff16815260200160008201600c9054906101000a90046bffffffffffffffffffffffff166bffffffffffffffffffffffff166bffffffffffffffffffffffff1681526020016000820160189054906101000a900463ffffffff1663ffffffff1663ffffffff1681525050838260ff168151811061090857610907614924565b5b6020026020010181905250600060016000848152602001908152602001600020600001600c9054906101000a90046bffffffffffffffffffffffff1690505b6000816bffffffffffffffffffffffff1614610a8e57600088888360405160200161097493929190614974565b6040516020818303038152906040528051906020012090506000600160008381526020019081526020016000206040518060600160405290816000820160009054906101000a90046bffffffffffffffffffffffff166bffffffffffffffffffffffff166bffffffffffffffffffffffff16815260200160008201600c9054906101000a90046bffffffffffffffffffffffff166bffffffffffffffffffffffff166bffffffffffffffffffffffff1681526020016000820160189054906101000a900463ffffffff1663ffffffff1663ffffffff168152505090508380610a5b906149b1565b94505080868560ff1681518110610a7557610a74614924565b5b6020026020010181905250806020015192505050610947565b839550505050505092915050565b60008054906101000a900473ffffffffffffffffffffffffffffffffffffffff1673ffffffffffffffffffffffffffffffffffffffff16638d5d2d85336040518263ffffffff1660e01b8152600401610af591906149e9565b602060405180830381865afa158015610b12573d6000803e3d6000fd5b505050506040513d601f19601f82011682018060405250810190610b369190614a30565b610b75576040517f08c379a0000000000000000000000000000000000000000000000000000000008152600401610b6c90614acf565b60405180910390fd5b6000610b8387878787612fde565b905060006002600083815260200190815260200160002060010160129054906101000a90046bffffffffffffffffffffffff169050836002600084815260200190815260200160002060010160006101000a81548161ffff021916908361ffff160217905550826002600084815260200190815260200160002060010160126101000a8154816bffffffffffffffffffffffff02191690836bffffffffffffffffffffffff16021790555060008060009054906101000a900473ffffffffffffffffffffffffffffffffffffffff1673ffffffffffffffffffffffffffffffffffffffff166304433bbc6040518163ffffffff1660e01b8152600401610c8890614b3b565b602060405180830381865afa158015610ca5573d6000803e3d6000fd5b505050506040513d601f19601f82011682018060405250810190610cc9919061445b565b90508382610cd79190614b5b565b6bffffffffffffffffffffffff168173ffffffffffffffffffffffffffffffffffffffff1663dd62ed3e8c306040518363ffffffff1660e01b8152600401610d20929190614b8f565b602060405180830381865afa158015610d3d573d6000803e3d6000fd5b505050506040513d601f19601f82011682018060405250810190610d61919061455d565b1015610da2576040517f08c379a0000000000000000000000000000000000000000000000000000000008152600401610d9990614c2a565b60405180910390fd5b8382610dae9190614b5b565b6bffffffffffffffffffffffff168173ffffffffffffffffffffffffffffffffffffffff166370a082318c6040518263ffffffff1660e01b8152600401610df591906149e9565b602060405180830381865afa158015610e12573d6000803e3d6000fd5b505050506040513d601f19601f82011682018060405250810190610e36919061455d565b1015610e77576040517f08c379a0000000000000000000000000000000000000000000000000000000008152600401610e6e90614cbc565b60405180910390fd5b8073ffffffffffffffffffffffffffffffffffffffff166323b872dd8b308786610ea19190614b5b565b6040518463ffffffff1660e01b8152600401610ebf93929190614d0d565b6020604051808303816000875af1158015610ede573d6000803e3d6000fd5b505050506040513d601f19601f82011682018060405250810190610f029190614a30565b5086604051610f1191906147d6565b6040518091039020888a73ffffffffffffffffffffffffffffffffffffffff167f1abad9d03c6b61f6b6714655a41bdc5b88318ce5136915a9c8751a74ad5a30b9896002600089815260200190815260200160002060010160009054906101000a900461ffff16600260008a815260200190815260200160002060010160129054906101000a90046bffffffffffffffffffffffff16604051610fb693929190614d44565b60405180910390a450505050505050505050565b60026020528060005260406000206000915090508060000154908060010160009054906101000a900461ffff16908060010160029054906101000a90046fffffffffffffffffffffffffffffffff16908060010160129054906101000a90046bffffffffffffffffffffffff169080600101601e9054906101000a900460ff169080600101601f9054906101000a900460ff16905086565b60008061107188888888612fde565b905061107d818561232d565b6110bc576040517f08c379a00000000000000000000000000000000000000000000000000000000081526004016110b390614dc7565b60405180910390fd5b60008060009054906101000a900473ffffffffffffffffffffffffffffffffffffffff1673ffffffffffffffffffffffffffffffffffffffff166304433bbc6040518163ffffffff1660e01b815260040161111690614426565b602060405180830381865afa158015611133573d6000803e3d6000fd5b505050506040513d601f19601f82011682018060405250810190611157919061445b565b905060008173ffffffffffffffffffffffffffffffffffffffff16631fc2b3ab3360405160200161118891906144d0565b604051602081830303815290604052805190602001206040518263ffffffff1660e01b81526004016111ba91906144eb565b602060405180830381865afa1580156111d7573d6000803e3d6000fd5b505050506040513d601f19601f820116820180604052508101906111fb919061451b565b905060008060009054906101000a900473ffffffffffffffffffffffffffffffffffffffff1673ffffffffffffffffffffffffffffffffffffffff166304433bbc6040518163ffffffff1660e01b815260040161125790614e33565b602060405180830381865afa158015611274573d6000803e3d6000fd5b505050506040513d601f19601f82011682018060405250810190611298919061445b565b905060008060009054906101000a900473ffffffffffffffffffffffffffffffffffffffff1673ffffffffffffffffffffffffffffffffffffffff166304433bbc6040518163ffffffff1660e01b81526004016112f490614e9f565b602060405180830381865afa158015611311573d6000803e3d6000fd5b505050506040513d601f19601f82011682018060405250810190611335919061445b565b905060008173ffffffffffffffffffffffffffffffffffffffff16637dde117760026000898152602001908152602001600020600101601e9054906101000a900460ff168c8673ffffffffffffffffffffffffffffffffffffffff16636c5c281c896040518263ffffffff1660e01b81526004016113b39190614ebf565b600060405180830381865afa1580156113d0573d6000803e3d6000fd5b505050506040513d6000823e3d601f19601f820116820180604052508101906113f99190614f4a565b8f8873ffffffffffffffffffffffffffffffffffffffff16631860bd8e8b6040518263ffffffff1660e01b81526004016114339190614ebf565b602060405180830381865afa158015611450573d6000803e3d6000fd5b505050506040513d601f19601f82011682018060405250810190611474919061451b565b6040518663ffffffff1660e01b8152600401611494959493929190614fdd565b6020604051808303816000875af11580156114b3573d6000803e3d6000fd5b505050506040513d601f19601f820116820180604052508101906114d7919061506a565b9050611522868a8a6040518060600160405280896bffffffffffffffffffffffff16815260200160006bffffffffffffffffffffffff1681526020018663ffffffff16815250613127565b60008060009054906101000a900473ffffffffffffffffffffffffffffffffffffffff1673ffffffffffffffffffffffffffffffffffffffff166304433bbc6040518163ffffffff1660e01b815260040161157c90614899565b602060405180830381865afa158015611599573d6000803e3d6000fd5b505050506040513d601f19601f820116820180604052508101906115bd919061445b565b9050606460026000898152602001908152602001600020600101601f9054906101000a900460ff1660ff168273ffffffffffffffffffffffffffffffffffffffff166357d775f86040518163ffffffff1660e01b8152600401602060405180830381865afa158015611633573d6000803e3d6000fd5b505050506040513d601f19601f8201168201806040525081019061165791906150c3565b61166191906150f0565b61166b919061513a565b6fffffffffffffffffffffffffffffffff1660018b61168a919061516b565b61ffff168273ffffffffffffffffffffffffffffffffffffffff166357d775f86040518163ffffffff1660e01b8152600401602060405180830381865afa1580156116d9573d6000803e3d6000fd5b505050506040513d601f19601f820116820180604052508101906116fd91906150c3565b61170791906150f0565b6fffffffffffffffffffffffffffffffff16600260008a81526020019081526020016000206000015461173a919061519f565b611744919061519f565b9750505050505050509695505050505050565b600080429050600060026000868152602001908152602001600020905060008060009054906101000a900473ffffffffffffffffffffffffffffffffffffffff1673ffffffffffffffffffffffffffffffffffffffff166304433bbc6040518163ffffffff1660e01b81526004016117ce90614899565b602060405180830381865afa1580156117eb573d6000803e3d6000fd5b505050506040513d601f19601f8201168201806040525081019061180f919061445b565b90506000606483600101601f9054906101000a900460ff1660ff168460010160009054906101000a900461ffff1661ffff168560010160029054906101000a90046fffffffffffffffffffffffffffffffff1661186c91906150f0565b61187691906150f0565b611880919061513a565b6fffffffffffffffffffffffffffffffff169050600060648373ffffffffffffffffffffffffffffffffffffffff16639d3ceb0c6040518163ffffffff1660e01b8152600401602060405180830381865afa1580156118e3573d6000803e3d6000fd5b505050506040513d601f19601f82011682018060405250810190611907919061520a565b60ff168560010160009054906101000a900461ffff1661ffff168660010160029054906101000a90046fffffffffffffffffffffffffffffffff1661194c91906150f0565b61195691906150f0565b611960919061513a565b6fffffffffffffffffffffffffffffffff169050818761ffff168560010160029054906101000a90046fffffffffffffffffffffffffffffffff166119a591906150f0565b6fffffffffffffffffffffffffffffffff1685600001546119c6919061519f565b6119d0919061519f565b85118015611a43575080828861ffff168660010160029054906101000a90046fffffffffffffffffffffffffffffffff16611a0b91906150f0565b6fffffffffffffffffffffffffffffffff168660000154611a2c919061519f565b611a36919061519f565b611a40919061519f565b85105b9550505050505092915050565b60008054906101000a900473ffffffffffffffffffffffffffffffffffffffff1673ffffffffffffffffffffffffffffffffffffffff16638d5d2d85336040518263ffffffff1660e01b8152600401611aa991906149e9565b602060405180830381865afa158015611ac6573d6000803e3d6000fd5b505050506040513d601f19601f82011682018060405250810190611aea9190614a30565b611b29576040517f08c379a0000000000000000000000000000000000000000000000000000000008152600401611b2090614acf565b60405180910390fd5b8060026000848152602001908152602001600020600101601e6101000a81548160ff021916908360ff1602179055505050565b60008054906101000a900473ffffffffffffffffffffffffffffffffffffffff1673ffffffffffffffffffffffffffffffffffffffff16638d5d2d85336040518263ffffffff1660e01b8152600401611bb591906149e9565b602060405180830381865afa158015611bd2573d6000803e3d6000fd5b505050506040513d601f19601f82011682018060405250810190611bf69190614a30565b611c35576040517f08c379a0000000000000000000000000000000000000000000000000000000008152600401611c2c90614acf565b60405180910390fd5b6000611c4388888888612fde565b905060008060009054906101000a900473ffffffffffffffffffffffffffffffffffffffff1673ffffffffffffffffffffffffffffffffffffffff166304433bbc6040518163ffffffff1660e01b8152600401611c9f90614899565b602060405180830381865afa158015611cbc573d6000803e3d6000fd5b505050506040513d601f19601f82011682018060405250810190611ce0919061445b565b90506000600260008481526020019081526020016000209050428160000181905550858160010160006101000a81548161ffff021916908361ffff1602179055508173ffffffffffffffffffffffffffffffffffffffff166357d775f86040518163ffffffff1660e01b8152600401602060405180830381865afa158015611d6c573d6000803e3d6000fd5b505050506040513d601f19601f82011682018060405250810190611d9091906150c3565b8160010160026101000a8154816fffffffffffffffffffffffffffffffff02191690836fffffffffffffffffffffffffffffffff160217905550611ec78b60018473ffffffffffffffffffffffffffffffffffffffff16638e6262426040518163ffffffff1660e01b8152600401602060405180830381865afa158015611e1b573d6000803e3d6000fd5b505050506040513d601f19601f82011682018060405250810190611e3f919061520a565b8573ffffffffffffffffffffffffffffffffffffffff1663ff2117436040518163ffffffff1660e01b8152600401602060405180830381865afa158015611e8a573d6000803e3d6000fd5b505050506040513d601f19601f82011682018060405250810190611eae919061520a565b611eb89190615237565b611ec2919061526b565b613754565b8273ffffffffffffffffffffffffffffffffffffffff16638e6262426040518163ffffffff1660e01b8152600401602060405180830381865afa158015611f12573d6000803e3d6000fd5b505050506040513d601f19601f82011682018060405250810190611f36919061520a565b611f40919061526b565b81600101601f6101000a81548160ff021916908360ff160217905550848160010160126101000a8154816bffffffffffffffffffffffff02191690836bffffffffffffffffffffffff1602179055508381600101601e6101000a81548160ff021916908360ff16021790555060008060009054906101000a900473ffffffffffffffffffffffffffffffffffffffff1673ffffffffffffffffffffffffffffffffffffffff166304433bbc6040518163ffffffff1660e01b815260040161200690614b3b565b602060405180830381865afa158015612023573d6000803e3d6000fd5b505050506040513d601f19601f82011682018060405250810190612047919061445b565b9050856bffffffffffffffffffffffff168173ffffffffffffffffffffffffffffffffffffffff1663dd62ed3e8e306040518363ffffffff1660e01b8152600401612093929190614b8f565b602060405180830381865afa1580156120b0573d6000803e3d6000fd5b505050506040513d601f19601f820116820180604052508101906120d4919061455d565b1015612115576040517f08c379a000000000000000000000000000000000000000000000000000000000815260040161210c90614c2a565b60405180910390fd5b856bffffffffffffffffffffffff168173ffffffffffffffffffffffffffffffffffffffff166370a082318e6040518263ffffffff1660e01b815260040161215d91906149e9565b602060405180830381865afa15801561217a573d6000803e3d6000fd5b505050506040513d601f19601f8201168201806040525081019061219e919061455d565b10156121df576040517f08c379a00000000000000000000000000000000000000000000000000000000081526004016121d690614cbc565b60405180910390fd5b8073ffffffffffffffffffffffffffffffffffffffff166323b872dd8d30896040518463ffffffff1660e01b815260040161221c93929190614d0d565b6020604051808303816000875af115801561223b573d6000803e3d6000fd5b505050506040513d601f19601f8201168201806040525081019061225f9190614a30565b508860405161226e91906147d6565b60405180910390208a8c73ffffffffffffffffffffffffffffffffffffffff167f48298191f59170e97201484d4a3de75065cea587a165788d1f19459fabd39a5e8b86600001548760010160009054906101000a900461ffff168860010160029054906101000a90046fffffffffffffffffffffffffffffffff168960010160129054906101000a90046bffffffffffffffffffffffff166040516123179594939291906152a2565b60405180910390a4505050505050505050505050565b600080429050600060026000868152602001908152602001600020905060008060009054906101000a900473ffffffffffffffffffffffffffffffffffffffff1673ffffffffffffffffffffffffffffffffffffffff166304433bbc6040518163ffffffff1660e01b81526004016123a490614899565b602060405180830381865afa1580156123c1573d6000803e3d6000fd5b505050506040513d601f19601f820116820180604052508101906123e5919061445b565b90508461ffff168260010160029054906101000a90046fffffffffffffffffffffffffffffffff1661241791906150f0565b6fffffffffffffffffffffffffffffffff168260000154612438919061519f565b8311801561251257508073ffffffffffffffffffffffffffffffffffffffff1663e8d487ff6040518163ffffffff1660e01b8152600401602060405180830381865afa15801561248c573d6000803e3d6000fd5b505050506040513d601f19601f820116820180604052508101906124b0919061530a565b61ffff168561ffff168360010160029054906101000a90046fffffffffffffffffffffffffffffffff166124e491906150f0565b6fffffffffffffffffffffffffffffffff168360000154612505919061519f565b61250f919061519f565b83105b935050505092915050565b600061252b88888888612fde565b90506125378185611757565b15612577576040517f08c379a000000000000000000000000000000000000000000000000000000000815260040161256e90615383565b60405180910390fd5b60008060009054906101000a900473ffffffffffffffffffffffffffffffffffffffff1673ffffffffffffffffffffffffffffffffffffffff166304433bbc6040518163ffffffff1660e01b81526004016125d190614426565b602060405180830381865afa1580156125ee573d6000803e3d6000fd5b505050506040513d601f19601f82011682018060405250810190612612919061445b565b73ffffffffffffffffffffffffffffffffffffffff16631fc2b3ab3360405160200161263e91906144d0565b604051602081830303815290604052805190602001206040518263ffffffff1660e01b815260040161267091906144eb565b602060405180830381865afa15801561268d573d6000803e3d6000fd5b505050506040513d601f19601f820116820180604052508101906126b1919061451b565b90506000600160008488856040516020016126ce93929190614974565b60405160208183030381529060405280519060200120815260200190815260200160002060000160189054906101000a900463ffffffff1663ffffffff160361274c576040517f08c379a000000000000000000000000000000000000000000000000000000000815260040161274390615415565b60405180910390fd5b60006002600084815260200190815260200160002060020160008761ffff1661ffff16815260200190815260200160002054905060008060009054906101000a900473ffffffffffffffffffffffffffffffffffffffff1673ffffffffffffffffffffffffffffffffffffffff166304433bbc6040518163ffffffff1660e01b81526004016127da90614899565b602060405180830381865afa1580156127f7573d6000803e3d6000fd5b505050506040513d601f19601f8201168201806040525081019061281b919061445b565b905060005b6001600084815260200190815260200160002060000160009054906101000a90046bffffffffffffffffffffffff166bffffffffffffffffffffffff16846bffffffffffffffffffffffff161415806128f357508173ffffffffffffffffffffffffffffffffffffffff16638d73d86a6040518163ffffffff1660e01b8152600401602060405180830381865afa1580156128bf573d6000803e3d6000fd5b505050506040513d601f19601f820116820180604052508101906128e3919061506a565b63ffffffff168163ffffffff1614155b1561296657848860016000868152602001908152602001600020600001600c9054906101000a90046bffffffffffffffffffffffff1660405160200161293b93929190614974565b604051602081830303815290604052805190602001209250808061295e90615435565b915050612820565b8173ffffffffffffffffffffffffffffffffffffffff16638d73d86a6040518163ffffffff1660e01b8152600401602060405180830381865afa1580156129b1573d6000803e3d6000fd5b505050506040513d601f19601f820116820180604052508101906129d5919061506a565b63ffffffff168163ffffffff1610612a22576040517f08c379a0000000000000000000000000000000000000000000000000000000008152600401612a19906154d3565b60405180910390fd5b600080612a308e8e8c610262565b8092508193505050612a6b89838a84604051602001612a50929190615514565b6040516020818303038152906040528051906020012061379a565b612aaa576040517f08c379a0000000000000000000000000000000000000000000000000000000008152600401612aa19061558c565b60405180910390fd5b60008060009054906101000a900473ffffffffffffffffffffffffffffffffffffffff1673ffffffffffffffffffffffffffffffffffffffff166304433bbc6040518163ffffffff1660e01b8152600401612b0490614e33565b602060405180830381865afa158015612b21573d6000803e3d6000fd5b505050506040513d601f19601f82011682018060405250810190612b45919061445b565b90506000600260008a815260200190815260200160002060030160008d61ffff1661ffff16815260200190815260200160002060009054906101000a900463ffffffff168673ffffffffffffffffffffffffffffffffffffffff16638d73d86a6040518163ffffffff1660e01b8152600401602060405180830381865afa158015612bd4573d6000803e3d6000fd5b505050506040513d601f19601f82011682018060405250810190612bf8919061506a565b612c0291906155ac565b63ffffffff1660018d600260008d815260200190815260200160002060010160009054906101000a900461ffff16612c3a919061516b565b612c4491906155e0565b61ffff16600260008c815260200190815260200160002060010160129054906101000a90046bffffffffffffffffffffffff16612c819190615618565b612c8b9190615618565b905060008054906101000a900473ffffffffffffffffffffffffffffffffffffffff1673ffffffffffffffffffffffffffffffffffffffff166304433bbc6040518163ffffffff1660e01b8152600401612ce490614b3b565b602060405180830381865afa158015612d01573d6000803e3d6000fd5b505050506040513d601f19601f82011682018060405250810190612d25919061445b565b73ffffffffffffffffffffffffffffffffffffffff1663a9059cbb83836040518363ffffffff1660e01b8152600401612d5f929190615649565b6020604051808303816000875af1158015612d7e573d6000803e3d6000fd5b505050506040513d601f19601f82011682018060405250810190612da29190614a30565b508173ffffffffffffffffffffffffffffffffffffffff1663a4f9062389838573ffffffffffffffffffffffffffffffffffffffff166374cb0edb8d6040518263ffffffff1660e01b8152600401612dfa9190614ebf565b602060405180830381865afa158015612e17573d6000803e3d6000fd5b505050506040513d601f19601f82011682018060405250810190612e3b919061451b565b612e459190615672565b6040518363ffffffff1660e01b8152600401612e629291906156b4565b600060405180830381600087803b158015612e7c57600080fd5b505af1158015612e90573d6000803e3d6000fd5b5050505080600260008b815260200190815260200160002060010160128282829054906101000a90046bffffffffffffffffffffffff16612ed19190614b5b565b92506101000a8154816bffffffffffffffffffffffff02191690836bffffffffffffffffffffffff1602179055506001600260008b815260200190815260200160002060030160008e61ffff1661ffff16815260200190815260200160002060008282829054906101000a900463ffffffff16612f4e91906156dd565b92506101000a81548163ffffffff021916908363ffffffff1602179055506000600160008b8f8c604051602001612f8793929190614974565b60405160208183030381529060405280519060200120815260200190815260200160002060000160186101000a81548163ffffffff021916908363ffffffff16021790555050505050505050505050505050505050565b60008060008054906101000a900473ffffffffffffffffffffffffffffffffffffffff1673ffffffffffffffffffffffffffffffffffffffff166304433bbc6040518163ffffffff1660e01b815260040161303890615763565b602060405180830381865afa158015613055573d6000803e3d6000fd5b505050506040513d601f19601f82011682018060405250810190613079919061445b565b90508073ffffffffffffffffffffffffffffffffffffffff1663a2113a66848888886040516020016130ad93929190615783565b6040516020818303038152906040526040518363ffffffff1660e01b81526004016130d99291906157bc565b6020604051808303816000875af11580156130f8573d6000803e3d6000fd5b505050506040513d601f19601f8201168201806040525081019061311c919061462b565b915050949350505050565b60008484836000015160405160200161314293929190614974565b6040516020818303038152906040528051906020012090506000836bffffffffffffffffffffffff16036133c75760006002600087815260200190815260200160002060020160008661ffff1661ffff16815260200190815260200160002054905060008082146132d0576000600160008481526020019081526020016000206040518060600160405290816000820160009054906101000a90046bffffffffffffffffffffffff166bffffffffffffffffffffffff166bffffffffffffffffffffffff16815260200160008201600c9054906101000a90046bffffffffffffffffffffffff166bffffffffffffffffffffffff166bffffffffffffffffffffffff1681526020016000820160189054906101000a900463ffffffff1663ffffffff1663ffffffff1681525050905080600001519150806040015163ffffffff16856040015163ffffffff16116132ce576040517f08c379a00000000000000000000000000000000000000000000000000000000081526004016132c590615884565b60405180910390fd5b505b826002600089815260200190815260200160002060020160008861ffff1661ffff16815260200190815260200160002081905550836001600085815260200190815260200160002060008201518160000160006101000a8154816bffffffffffffffffffffffff02191690836bffffffffffffffffffffffff160217905550602082015181600001600c6101000a8154816bffffffffffffffffffffffff02191690836bffffffffffffffffffffffff16021790555060408201518160000160186101000a81548163ffffffff021916908363ffffffff1602179055509050506133c087878660000151846137b1565b505061374d565b60008585856040516020016133de93929190614974565b6040516020818303038152906040528051906020012090506000600160008381526020019081526020016000206040518060600160405290816000820160009054906101000a90046bffffffffffffffffffffffff166bffffffffffffffffffffffff166bffffffffffffffffffffffff16815260200160008201600c9054906101000a90046bffffffffffffffffffffffff166bffffffffffffffffffffffff166bffffffffffffffffffffffff1681526020016000820160189054906101000a900463ffffffff1663ffffffff1663ffffffff16815250509050806040015163ffffffff16846040015163ffffffff161115613511576040517f08c379a00000000000000000000000000000000000000000000000000000000081526004016135089061593c565b60405180910390fd5b6000816020015190506000816bffffffffffffffffffffffff161461367d57600088888360405160200161354793929190614974565b6040516020818303038152906040528051906020012090506000600160008381526020019081526020016000206040518060600160405290816000820160009054906101000a90046bffffffffffffffffffffffff166bffffffffffffffffffffffff166bffffffffffffffffffffffff16815260200160008201600c9054906101000a90046bffffffffffffffffffffffff166bffffffffffffffffffffffff166bffffffffffffffffffffffff1681526020016000820160189054906101000a900463ffffffff1663ffffffff1663ffffffff16815250509050806040015163ffffffff16876040015163ffffffff16101561367a576040517f08c379a0000000000000000000000000000000000000000000000000000000008152600401613671906159f4565b60405180910390fd5b50505b846001600086815260200190815260200160002060008201518160000160006101000a8154816bffffffffffffffffffffffff02191690836bffffffffffffffffffffffff160217905550602082015181600001600c6101000a8154816bffffffffffffffffffffffff02191690836bffffffffffffffffffffffff16021790555060408201518160000160186101000a81548163ffffffff021916908363ffffffff16021790555090505061373988888888600001516137b1565b61374988888760000151846137b1565b5050505b5050505050565b60008160ff1642844360405160200161376f93929190615a14565b6040516020818303038152906040528051906020012060001c613792919061481c565b905092915050565b6000826137a7858461382c565b1490509392505050565b60008484846040516020016137c893929190614974565b6040516020818303038152906040528051906020012090508160016000838152602001908152602001600020600001600c6101000a8154816bffffffffffffffffffffffff02191690836bffffffffffffffffffffffff1602179055505050505050565b60008082905060005b8451811015613877576138628286838151811061385557613854614924565b5b6020026020010151613882565b9150808061386f90615a51565b915050613835565b508091505092915050565b600081831061389a5761389582846138ad565b6138a5565b6138a483836138ad565b5b905092915050565b600082600052816020526040600020905092915050565b604051806060016040528060006bffffffffffffffffffffffff16815260200160006bffffffffffffffffffffffff168152602001600063ffffffff1681525090565b6000604051905090565b600080fd5b600080fd5b600073ffffffffffffffffffffffffffffffffffffffff82169050919050565b60006139468261391b565b9050919050565b6139568161393b565b811461396157600080fd5b50565b6000813590506139738161394d565b92915050565b6000819050919050565b61398c81613979565b811461399757600080fd5b50565b6000813590506139a981613983565b92915050565b600061ffff82169050919050565b6139c6816139af565b81146139d157600080fd5b50565b6000813590506139e3816139bd565b92915050565b600080600060608486031215613a0257613a01613911565b5b6000613a1086828701613964565b9350506020613a218682870161399a565b9250506040613a32868287016139d4565b9150509250925092565b6000819050919050565b613a4f81613a3c565b82525050565b613a5e81613979565b82525050565b6000604082019050613a796000830185613a46565b613a866020830184613a55565b9392505050565b6000819050919050565b6000613ab2613aad613aa88461391b565b613a8d565b61391b565b9050919050565b6000613ac482613a97565b9050919050565b6000613ad682613ab9565b9050919050565b613ae681613acb565b82525050565b6000602082019050613b016000830184613add565b92915050565b613b1081613a3c565b8114613b1b57600080fd5b50565b600081359050613b2d81613b07565b92915050565b60008060408385031215613b4a57613b49613911565b5b6000613b5885828601613b1e565b9250506020613b69858286016139d4565b9150509250929050565b600081519050919050565b600082825260208201905092915050565b6000819050602082019050919050565b60006bffffffffffffffffffffffff82169050919050565b613bc081613b9f565b82525050565b600063ffffffff82169050919050565b613bdf81613bc6565b82525050565b606082016000820151613bfb6000850182613bb7565b506020820151613c0e6020850182613bb7565b506040820151613c216040850182613bd6565b50505050565b6000613c338383613be5565b60608301905092915050565b6000602082019050919050565b6000613c5782613b73565b613c618185613b7e565b9350613c6c83613b8f565b8060005b83811015613c9d578151613c848882613c27565b9750613c8f83613c3f565b925050600181019050613c70565b5085935050505092915050565b60006020820190508181036000830152613cc48184613c4c565b905092915050565b600080fd5b600080fd5b6000601f19601f8301169050919050565b7f4e487b7100000000000000000000000000000000000000000000000000000000600052604160045260246000fd5b613d1f82613cd6565b810181811067ffffffffffffffff82111715613d3e57613d3d613ce7565b5b80604052505050565b6000613d51613907565b9050613d5d8282613d16565b919050565b600067ffffffffffffffff821115613d7d57613d7c613ce7565b5b613d8682613cd6565b9050602081019050919050565b82818337600083830152505050565b6000613db5613db084613d62565b613d47565b905082815260208101848484011115613dd157613dd0613cd1565b5b613ddc848285613d93565b509392505050565b600082601f830112613df957613df8613ccc565b5b8135613e09848260208601613da2565b91505092915050565b600060ff82169050919050565b613e2881613e12565b8114613e3357600080fd5b50565b600081359050613e4581613e1f565b92915050565b613e5481613b9f565b8114613e5f57600080fd5b50565b600081359050613e7181613e4b565b92915050565b600080600080600080600060e0888a031215613e9657613e95613911565b5b6000613ea48a828b01613964565b9750506020613eb58a828b01613964565b9650506040613ec68a828b0161399a565b955050606088013567ffffffffffffffff811115613ee757613ee6613916565b5b613ef38a828b01613de4565b9450506080613f048a828b01613e36565b93505060a0613f158a828b016139d4565b92505060c0613f268a828b01613e62565b91505092959891949750929550565b600060208284031215613f4b57613f4a613911565b5b6000613f5984828501613b1e565b91505092915050565b613f6b816139af565b82525050565b60006fffffffffffffffffffffffffffffffff82169050919050565b613f9681613f71565b82525050565b613fa581613b9f565b82525050565b613fb481613e12565b82525050565b600060c082019050613fcf6000830189613a55565b613fdc6020830188613f62565b613fe96040830187613f8d565b613ff66060830186613f9c565b6140036080830185613fab565b61401060a0830184613fab565b979650505050505050565b60008060008060008060c0878903121561403857614037613911565b5b600061404689828a01613964565b965050602061405789828a0161399a565b955050604087013567ffffffffffffffff81111561407857614077613916565b5b61408489828a01613de4565b945050606061409589828a01613e36565b93505060806140a689828a016139d4565b92505060a06140b789828a01613e62565b9150509295509295509295565b60006020820190506140d96000830184613a55565b92915050565b60008115159050919050565b6140f4816140df565b82525050565b600060208201905061410f60008301846140eb565b92915050565b6000806040838503121561412c5761412b613911565b5b600061413a85828601613b1e565b925050602061414b85828601613e36565b9150509250929050565b600080600080600080600080610100898b03121561417657614175613911565b5b60006141848b828c01613964565b98505060206141958b828c01613964565b97505060406141a68b828c0161399a565b965050606089013567ffffffffffffffff8111156141c7576141c6613916565b5b6141d38b828c01613de4565b95505060806141e48b828c01613e36565b94505060a06141f58b828c016139d4565b93505060c06142068b828c01613e62565b92505060e06142178b828c01613e36565b9150509295985092959890939650565b600067ffffffffffffffff82111561424257614241613ce7565b5b602082029050602081019050919050565b600080fd5b600061426b61426684614227565b613d47565b9050808382526020820190506020840283018581111561428e5761428d614253565b5b835b818110156142b757806142a38882613b1e565b845260208401935050602081019050614290565b5050509392505050565b600082601f8301126142d6576142d5613ccc565b5b81356142e6848260208601614258565b91505092915050565b600080600080600080600060e0888a03121561430e5761430d613911565b5b600061431c8a828b01613964565b975050602061432d8a828b0161399a565b965050604088013567ffffffffffffffff81111561434e5761434d613916565b5b61435a8a828b01613de4565b955050606061436b8a828b01613e36565b945050608061437c8a828b016139d4565b93505060a088013567ffffffffffffffff81111561439d5761439c613916565b5b6143a98a828b016142c1565b92505060c06143ba8a828b01613b1e565b91505092959891949750929550565b600082825260208201905092915050565b7f4964656e7469747953746f726167650000000000000000000000000000000000600082015250565b6000614410600f836143c9565b915061441b826143da565b602082019050919050565b6000602082019050818103600083015261443f81614403565b9050919050565b6000815190506144558161394d565b92915050565b60006020828403121561447157614470613911565b5b600061447f84828501614446565b91505092915050565b60008160601b9050919050565b60006144a082614488565b9050919050565b60006144b282614495565b9050919050565b6144ca6144c58261393b565b6144a7565b82525050565b60006144dc82846144b9565b60148201915081905092915050565b60006020820190506145006000830184613a46565b92915050565b60008151905061451581613e4b565b92915050565b60006020828403121561453157614530613911565b5b600061453f84828501614506565b91505092915050565b60008151905061455781613983565b92915050565b60006020828403121561457357614572613911565b5b600061458184828501614548565b91505092915050565b7f4e487b7100000000000000000000000000000000000000000000000000000000600052601160045260246000fd5b60006145c482613979565b91506145cf83613979565b9250828210156145e2576145e161458a565b5b828203905092915050565b60006040820190506146026000830185613a55565b61460f6020830184613a55565b9392505050565b60008151905061462581613b07565b92915050565b60006020828403121561464157614640613911565b5b600061464f84828501614616565b91505092915050565b7f417373657274696f6e5265676973747279000000000000000000000000000000600082015250565b600061468e6011836143c9565b915061469982614658565b602082019050919050565b600060208201905081810360008301526146bd81614681565b9050919050565b60008160f01b9050919050565b60006146dc826146c4565b9050919050565b6146f46146ef826139af565b6146d1565b82525050565b60008160a01b9050919050565b6000614712826146fa565b9050919050565b61472a61472582613b9f565b614707565b82525050565b600061473c82856146e3565b60028201915061474c8284614719565b600c820191508190509392505050565b600081519050919050565b600081905092915050565b60005b83811015614790578082015181840152602081019050614775565b8381111561479f576000848401525b50505050565b60006147b08261475c565b6147ba8185614767565b93506147ca818560208601614772565b80840191505092915050565b60006147e282846147a5565b915081905092915050565b7f4e487b7100000000000000000000000000000000000000000000000000000000600052601260045260246000fd5b600061482782613979565b915061483283613979565b925082614842576148416147ed565b5b828206905092915050565b7f506172616d657465727353746f72616765000000000000000000000000000000600082015250565b60006148836011836143c9565b915061488e8261484d565b602082019050919050565b600060208201905081810360008301526148b281614876565b9050919050565b600065ffffffffffff82169050919050565b6148d4816148b9565b81146148df57600080fd5b50565b6000815190506148f1816148cb565b92915050565b60006020828403121561490d5761490c613911565b5b600061491b848285016148e2565b91505092915050565b7f4e487b7100000000000000000000000000000000000000000000000000000000600052603260045260246000fd5b6000819050919050565b61496e61496982613a3c565b614953565b82525050565b6000614980828661495d565b60208201915061499082856146e3565b6002820191506149a08284614719565b600c82019150819050949350505050565b60006149bc82613e12565b915060ff82036149cf576149ce61458a565b5b600182019050919050565b6149e38161393b565b82525050565b60006020820190506149fe60008301846149da565b92915050565b614a0d816140df565b8114614a1857600080fd5b50565b600081519050614a2a81614a04565b92915050565b600060208284031215614a4657614a45613911565b5b6000614a5484828501614a1b565b91505092915050565b7f46756e6374696f6e2063616e206f6e6c792062652063616c6c6564206279204160008201527f73736574205479706520436f6e74726163747300000000000000000000000000602082015250565b6000614ab96033836143c9565b9150614ac482614a5d565b604082019050919050565b60006020820190508181036000830152614ae881614aac565b9050919050565b7f546f6b656e000000000000000000000000000000000000000000000000000000600082015250565b6000614b256005836143c9565b9150614b3082614aef565b602082019050919050565b60006020820190508181036000830152614b5481614b18565b9050919050565b6000614b6682613b9f565b9150614b7183613b9f565b925082821015614b8457614b8361458a565b5b828203905092915050565b6000604082019050614ba460008301856149da565b614bb160208301846149da565b9392505050565b7f53656e64657220616c6c6f77616e6365206d75737420626520657175616c207460008201527f6f206f7220686967686572207468616e2063686f73656e20616d6f756e742100602082015250565b6000614c14603f836143c9565b9150614c1f82614bb8565b604082019050919050565b60006020820190508181036000830152614c4381614c07565b9050919050565b7f53656e6465722062616c616e6365206d75737420626520657175616c20746f2060008201527f6f7220686967686572207468616e2063686f73656e20616d6f756e7421000000602082015250565b6000614ca6603d836143c9565b9150614cb182614c4a565b604082019050919050565b60006020820190508181036000830152614cd581614c99565b9050919050565b6000614cf7614cf2614ced84613b9f565b613a8d565b613979565b9050919050565b614d0781614cdc565b82525050565b6000606082019050614d2260008301866149da565b614d2f60208301856149da565b614d3c6040830184614cfe565b949350505050565b6000606082019050614d596000830186613fab565b614d666020830185613f62565b614d736040830184613f9c565b949350505050565b7f436f6d6d69742077696e646f7720697320636c6f736564210000000000000000600082015250565b6000614db16018836143c9565b9150614dbc82614d7b565b602082019050919050565b60006020820190508181036000830152614de081614da4565b9050919050565b7f50726f66696c6553746f72616765000000000000000000000000000000000000600082015250565b6000614e1d600e836143c9565b9150614e2882614de7565b602082019050919050565b60006020820190508181036000830152614e4c81614e10565b9050919050565b7f53636f72696e6750726f78790000000000000000000000000000000000000000600082015250565b6000614e89600c836143c9565b9150614e9482614e53565b602082019050919050565b60006020820190508181036000830152614eb881614e7c565b9050919050565b6000602082019050614ed46000830184613f9c565b92915050565b6000614eed614ee884613d62565b613d47565b905082815260208101848484011115614f0957614f08613cd1565b5b614f14848285614772565b509392505050565b600082601f830112614f3157614f30613ccc565b5b8151614f41848260208601614eda565b91505092915050565b600060208284031215614f6057614f5f613911565b5b600082015167ffffffffffffffff811115614f7e57614f7d613916565b5b614f8a84828501614f1c565b91505092915050565b600082825260208201905092915050565b6000614faf8261475c565b614fb98185614f93565b9350614fc9818560208601614772565b614fd281613cd6565b840191505092915050565b600060a082019050614ff26000830188613fab565b614fff6020830187613fab565b81810360408301526150118186614fa4565b905081810360608301526150258185614fa4565b90506150346080830184613f9c565b9695505050505050565b61504781613bc6565b811461505257600080fd5b50565b6000815190506150648161503e565b92915050565b6000602082840312156150805761507f613911565b5b600061508e84828501615055565b91505092915050565b6150a081613f71565b81146150ab57600080fd5b50565b6000815190506150bd81615097565b92915050565b6000602082840312156150d9576150d8613911565b5b60006150e7848285016150ae565b91505092915050565b60006150fb82613f71565b915061510683613f71565b9250816fffffffffffffffffffffffffffffffff048311821515161561512f5761512e61458a565b5b828202905092915050565b600061514582613f71565b915061515083613f71565b9250826151605761515f6147ed565b5b828204905092915050565b6000615176826139af565b9150615181836139af565b9250828210156151945761519361458a565b5b828203905092915050565b60006151aa82613979565b91506151b583613979565b9250827fffffffffffffffffffffffffffffffffffffffffffffffffffffffffffffffff038211156151ea576151e961458a565b5b828201905092915050565b60008151905061520481613e1f565b92915050565b6000602082840312156152205761521f613911565b5b600061522e848285016151f5565b91505092915050565b600061524282613e12565b915061524d83613e12565b9250828210156152605761525f61458a565b5b828203905092915050565b600061527682613e12565b915061528183613e12565b92508260ff038211156152975761529661458a565b5b828201905092915050565b600060a0820190506152b76000830188613fab565b6152c46020830187613a55565b6152d16040830186613f62565b6152de6060830185613f8d565b6152eb6080830184613f9c565b9695505050505050565b600081519050615304816139bd565b92915050565b6000602082840312156153205761531f613911565b5b600061532e848285016152f5565b91505092915050565b7f50726f6f662077696e646f77206973206f70656e000000000000000000000000600082015250565b600061536d6014836143c9565b915061537882615337565b602082019050919050565b6000602082019050818103600083015261539c81615360565b9050919050565b7f596f75277665206265656e20616c726561647920726577617264656420696e2060008201527f746869732065706f636800000000000000000000000000000000000000000000602082015250565b60006153ff602a836143c9565b915061540a826153a3565b604082019050919050565b6000602082019050818103600083015261542e816153f2565b9050919050565b600061544082613bc6565b915063ffffffff82036154565761545561458a565b5b600182019050919050565b7f596f7572206e6f6465206861736e2774206265656e206177617264656420666f60008201527f72207468697320617373657420696e20746869732065706f6368000000000000602082015250565b60006154bd603a836143c9565b91506154c882615461565b604082019050919050565b600060208201905081810360008301526154ec816154b0565b9050919050565b6000819050919050565b61550e61550982613979565b6154f3565b82525050565b6000615520828561495d565b60208201915061553082846154fd565b6020820191508190509392505050565b7f526f6f74206861736820646f65736e2774206d61746368000000000000000000600082015250565b60006155766017836143c9565b915061558182615540565b602082019050919050565b600060208201905081810360008301526155a581615569565b9050919050565b60006155b782613bc6565b91506155c283613bc6565b9250828210156155d5576155d461458a565b5b828203905092915050565b60006155eb826139af565b91506155f6836139af565b92508261ffff0382111561560d5761560c61458a565b5b828201905092915050565b600061562382613b9f565b915061562e83613b9f565b92508261563e5761563d6147ed565b5b828204905092915050565b600060408201905061565e60008301856149da565b61566b6020830184614cfe565b9392505050565b600061567d82613b9f565b915061568883613b9f565b9250826bffffffffffffffffffffffff038211156156a9576156a861458a565b5b828201905092915050565b60006040820190506156c96000830185613f9c565b6156d66020830184613f9c565b9392505050565b60006156e882613bc6565b91506156f383613bc6565b92508263ffffffff0382111561570c5761570b61458a565b5b828201905092915050565b7f48617368696e6750726f78790000000000000000000000000000000000000000600082015250565b600061574d600c836143c9565b915061575882615717565b602082019050919050565b6000602082019050818103600083015261577c81615740565b9050919050565b600061578f82866144b9565b60148201915061579f82856154fd565b6020820191506157af82846147a5565b9150819050949350505050565b60006040820190506157d16000830185613fab565b81810360208301526157e38184614fa4565b90509392505050565b7f53636f7265206f662074686520636f6d6d6974206d757374206265206869676860008201527f65722074686174207468652073636f7265206f6620746865206865616420696e60208201527f206f7264657220746f207265706c616365206974210000000000000000000000604082015250565b600061586e6055836143c9565b9150615879826157ec565b606082019050919050565b6000602082019050818103600083015261589d81615861565b9050919050565b7f53636f7265206f662074686520636f6d6d6974206d757374206265206c65737360008201527f206f7220657175616c20746f20746865206f6e6520796f752077616e7420696e60208201527f7365727420616674657221000000000000000000000000000000000000000000604082015250565b6000615926604b836143c9565b9150615931826158a4565b606082019050919050565b6000602082019050818103600083015261595581615919565b9050919050565b7f53636f7265206f662074686520636f6d6d6974206d757374206265206772656160008201527f746572206f7220657175616c20746f20746865206f6e6520796f752077616e7460208201527f20696e73657274206265666f7265210000000000000000000000000000000000604082015250565b60006159de604f836143c9565b91506159e98261595c565b606082019050919050565b60006020820190508181036000830152615a0d816159d1565b9050919050565b6000615a2082866154fd565b602082019150615a3082856144b9565b601482019150615a4082846154fd565b602082019150819050949350505050565b6000615a5c82613979565b91507fffffffffffffffffffffffffffffffffffffffffffffffffffffffffffffffff8203615a8e57615a8d61458a565b5b60018201905091905056fea2646970667358221220ee88ee17ab24e78ed54578c9b24e9f96448ce6b8fc08a171e449a08e3abe44e564736f6c634300080e0033",
  "immutableReferences": {},
  "source": "// SPDX-License-Identifier: MIT\n\npragma solidity ^0.8.0;\n\nimport { AbstractAsset } from \"../assets/AbstractAsset.sol\";\nimport { AssertionRegistry } from \"../AssertionRegistry.sol\";\nimport { HashingProxy } from \"../HashingProxy.sol\";\nimport { Hub } from \"../Hub.sol\";\nimport { IdentityStorage } from \"./IdentityStorage.sol\";\nimport { IERC20 } from \"@openzeppelin/contracts/token/ERC20/IERC20.sol\";\nimport { MerkleProof } from \"@openzeppelin/contracts/utils/cryptography/MerkleProof.sol\";\nimport { ParametersStorage } from \"./ParametersStorage.sol\";\nimport { ProfileStorage } from \"./ProfileStorage.sol\";\nimport { ScoringProxy } from \"../ScoringProxy.sol\";\nimport { ShardingTable } from \"../ShardingTable.sol\";\n\ncontract ServiceAgreementStorage {\n    event ServiceAgreementCreated(\n        address indexed assetContract,\n        uint256 indexed tokenId,\n        bytes indexed keyword,\n        uint8 hashingFunctionId,\n        uint256 startTime,\n        uint16 epochsNum,\n        uint128 epochLength,\n        uint96 tokenAmount\n    );\n    event ServiceAgreementUpdated(\n        address indexed assetContract,\n        uint256 indexed tokenId,\n        bytes indexed keyword,\n        uint8 hashingFunctionId,\n        uint16 epochsNum,\n        uint96 tokenAmount\n    );\n    event CommitSubmitted(\n        address assetContract,\n        uint256 tokenId,\n        bytes indexed keyword,\n        uint8 hashingFunctionId,\n        uint96 indexed identityId,\n        bytes indexed nodeId,\n        uint32 score\n    );\n    event ProofSubmitted(\n        address assetContract,\n        uint256 tokenId,\n        bytes indexed keyword,\n        uint8 hashingFunctionId,\n        uint96 indexed identityId,\n        bytes indexed nodeId\n    );\n\n\n    struct CommitSubmission {\n        uint96 identityId;\n        uint96 nextIdentity;\n        uint32 score;\n    }\n\n    struct ServiceAgreement {\n        uint256 startTime;\n        uint16 epochsNum;\n        uint128 epochLength;\n        uint96 tokenAmount;\n        uint8 scoringFunctionId;\n        uint8 proofWindowOffsetPerc;  // Perc == In % of the epoch\n        mapping(uint16 => bytes32) epochSubmissionHeads;  // epoch => headCommitId\n        mapping(uint16 => uint32) rewardedNodes;\n    }\n\n    Hub public hub;\n\n    // CommitId [keccak256(agreementId + epoch + identityId)] => CommitSubmission\n    mapping(bytes32 => CommitSubmission) commitSubmissions;\n\n    // hash(asset type contract + tokenId + key) -> ServiceAgreement\n    mapping(bytes32 => ServiceAgreement) public serviceAgreements;\n\n    constructor (address hubAddress) {\n        require(hubAddress != address(0));\n        hub = Hub(hubAddress);\n    }\n\n    modifier onlyAssetContracts() {\n        require (\n            hub.isAssetContract(msg.sender),\n            \"Function can only be called by Asset Type Contracts\"\n        );\n        _;\n    }\n\n    function createServiceAgreement(\n        address operationalWallet,\n        address assetContract,\n        uint256 tokenId,\n        bytes memory keyword,\n        uint8 hashingFunctionId,\n        uint16 epochsNum,\n        uint96 tokenAmount,\n        uint8 scoringFunctionId\n    )\n        public\n        onlyAssetContracts\n    {\n        bytes32 agreementId = _generateAgreementId(assetContract, tokenId, keyword, hashingFunctionId);\n\n        ParametersStorage parametersStorage = ParametersStorage(hub.getContractAddress(\"ParametersStorage\"));\n\n        ServiceAgreement storage agreement = serviceAgreements[agreementId];\n        agreement.startTime = block.timestamp;\n        agreement.epochsNum = epochsNum;\n        agreement.epochLength = parametersStorage.epochLength();\n        agreement.proofWindowOffsetPerc = parametersStorage.minProofWindowOffsetPerc() + _generatePseudorandomUint8(\n            operationalWallet,\n            parametersStorage.maxProofWindowOffsetPerc() - parametersStorage.minProofWindowOffsetPerc() + 1\n        );\n        agreement.tokenAmount = tokenAmount;\n        agreement.scoringFunctionId = scoringFunctionId;\n\n        IERC20 tokenContract = IERC20(hub.getContractAddress(\"Token\"));\n        require(\n            tokenContract.allowance(operationalWallet, address(this)) >= tokenAmount,\n            \"Sender allowance must be equal to or higher than chosen amount!\"\n        );\n        require(\n            tokenContract.balanceOf(operationalWallet) >= tokenAmount,\n            \"Sender balance must be equal to or higher than chosen amount!\"\n        );\n\n        tokenContract.transferFrom(operationalWallet, address(this), tokenAmount);\n\n        emit ServiceAgreementCreated(\n            assetContract,\n            tokenId,\n            keyword,\n            hashingFunctionId,\n            agreement.startTime,\n            agreement.epochsNum,\n            agreement.epochLength,\n            agreement.tokenAmount\n        );\n    }\n\n    // TODO: Split into smaller functions\n    function updateServiceAgreement(\n        address operationalWallet,\n        address assetContract,\n        uint256 tokenId,\n        bytes memory keyword,\n        uint8 hashingFunctionId,\n        uint16 epochsNum,\n        uint96 tokenAmount\n    )\n        public\n        onlyAssetContracts\n    {\n        bytes32 agreementId = _generateAgreementId(assetContract, tokenId, keyword, hashingFunctionId);\n\n        // require(serviceAgreements[agreementId]);\n\n        uint96 actualBalance = serviceAgreements[agreementId].tokenAmount;\n\n        serviceAgreements[agreementId].epochsNum = epochsNum;\n        serviceAgreements[agreementId].tokenAmount = tokenAmount;\n\n        IERC20 tokenContract = IERC20(hub.getContractAddress(\"Token\"));\n        require(\n            tokenContract.allowance(operationalWallet, address(this)) >= (actualBalance - tokenAmount),\n            \"Sender allowance must be equal to or higher than chosen amount!\"\n        );\n        require(\n            tokenContract.balanceOf(operationalWallet) >= (actualBalance - tokenAmount),\n            \"Sender balance must be equal to or higher than chosen amount!\"\n        );\n\n        tokenContract.transferFrom(operationalWallet, address(this), actualBalance - tokenAmount);\n\n        emit ServiceAgreementUpdated(\n            assetContract,\n            tokenId,\n            keyword,\n            hashingFunctionId,\n            serviceAgreements[agreementId].epochsNum,\n            serviceAgreements[agreementId].tokenAmount\n        );\n    }\n\n    function isCommitWindowOpen(bytes32 agreementId, uint16 epoch)\n        public\n        view\n        returns (bool)\n    {\n        uint256 timeNow = block.timestamp;\n        ServiceAgreement storage agreement = serviceAgreements[agreementId];\n\n        ParametersStorage parametersStorage = ParametersStorage(hub.getContractAddress(\"ParametersStorage\"));\n\n        return (\n            timeNow > (agreement.startTime + agreement.epochLength * epoch) &&\n            timeNow < (agreement.startTime + agreement.epochLength * epoch + parametersStorage.commitWindowDuration())\n        );\n    }\n\n    function getCommitSubmissions(bytes32 agreementId, uint16 epoch)\n        public\n        view\n        returns (CommitSubmission[] memory)\n    {\n        ParametersStorage parametersStorage = ParametersStorage(hub.getContractAddress(\"ParametersStorage\"));\n        CommitSubmission[] memory epochCommits = new CommitSubmission[](parametersStorage.R2());\n\n        bytes32 epochSubmissionsHead = serviceAgreements[agreementId].epochSubmissionHeads[epoch];\n\n        uint8 submissionsIdx = 0;\n\n        epochCommits[submissionsIdx] = commitSubmissions[epochSubmissionsHead];\n\n        uint96 nextIdentityId = commitSubmissions[epochSubmissionsHead].nextIdentity;\n        while(nextIdentityId != 0) {\n            // VERIFY: Is keccak256(agreementId + epoch + identityId) a good key?\n            bytes32 commitId = keccak256(abi.encodePacked(agreementId, epoch, nextIdentityId));\n\n            CommitSubmission memory commit = commitSubmissions[commitId];\n            submissionsIdx++;\n            epochCommits[submissionsIdx] = commit;\n\n            nextIdentityId = commit.nextIdentity;\n        }\n\n        return epochCommits;\n    }\n\n    function submitCommit(\n        address assetContract,\n        uint256 tokenId,\n        bytes memory keyword,\n        uint8 hashingFunctionId,\n        uint16 epoch,\n        uint96 prevIdentityId\n    )\n        public\n        returns (uint256)\n    {\n        bytes32 agreementId = _generateAgreementId(assetContract, tokenId, keyword, hashingFunctionId);\n\n        require(isCommitWindowOpen(agreementId, epoch), \"Commit window is closed!\");\n\n        IdentityStorage identityStorage = IdentityStorage(hub.getContractAddress(\"IdentityStorage\"));\n        uint96 identityId = identityStorage.identityIds(keccak256(abi.encodePacked(msg.sender)));\n\n        ProfileStorage profileStorage = ProfileStorage(hub.getContractAddress(\"ProfileStorage\"));\n\n        ScoringProxy scoringProxy = ScoringProxy(hub.getContractAddress(\"ScoringProxy\"));\n        uint32 score = scoringProxy.callScoringFunction(\n            serviceAgreements[agreementId].scoringFunctionId,\n            hashingFunctionId,\n            profileStorage.getNodeId(identityId),\n            keyword,\n            profileStorage.getStake(identityId)\n        );\n\n        _insertCommitAfter(\n            agreementId,\n            epoch,\n            prevIdentityId,\n            CommitSubmission({\n                identityId: identityId,\n                nextIdentity: 0,\n                score: score\n            })\n        );\n\n        // emit CommitSubmitted(\n        //     assetContract,\n        //     tokenId,\n        //     keyword,\n        //     hashingFunctionId,\n        //     identityId,\n        //     profileStorage.getNodeId(identityId),\n        //     score\n        // );\n\n        ParametersStorage parametersStorage = ParametersStorage(hub.getContractAddress(\"ParametersStorage\"));\n\n        // Returns start time of the proof phase\n        return (\n            serviceAgreements[agreementId].startTime +\n            parametersStorage.epochLength() * (epoch - 1) +\n            parametersStorage.epochLength() * serviceAgreements[agreementId].proofWindowOffsetPerc / 100\n        );\n    }\n\n    function isProofWindowOpen(bytes32 agreementId, uint16 epoch)\n        public\n        view\n        returns (bool)\n    {\n        uint256 timeNow = block.timestamp;\n        ServiceAgreement storage agreement = serviceAgreements[agreementId];\n\n        ParametersStorage parametersStorage = ParametersStorage(hub.getContractAddress(\"ParametersStorage\"));\n\n        uint256 proofWindowOffset = agreement.epochLength * agreement.epochsNum * agreement.proofWindowOffsetPerc / 100;\n        uint256 proofWindowDuration = (\n            agreement.epochLength * agreement.epochsNum * parametersStorage.proofWindowDurationPerc() / 100\n        );\n\n        return (\n            timeNow > (agreement.startTime + agreement.epochLength * epoch + proofWindowOffset) &&\n            timeNow < (agreement.startTime + agreement.epochLength * epoch + proofWindowOffset + proofWindowDuration)\n        );\n    }\n\n    function getChallenge(address assetContract, uint256 tokenId, uint16 epoch)\n        public\n        view\n        returns (bytes32, uint256)\n    {\n        IdentityStorage identityStorage = IdentityStorage(hub.getContractAddress(\"IdentityStorage\"));\n        uint96 identityId = identityStorage.identityIds(keccak256(abi.encodePacked(msg.sender)));\n\n        AbstractAsset generalAssetInterface = AbstractAsset(assetContract);\n        bytes32 assertionId = generalAssetInterface.getAssertionByIndex(\n            tokenId,\n            AbstractAsset(assetContract).getAssertionsLength(tokenId) - 1\n        );\n\n        AssertionRegistry assertionRegistry = AssertionRegistry(hub.getContractAddress(\"AssertionRegistry\"));\n        uint256 assertionChunksNumber = assertionRegistry.getChunksNumber(assertionId);\n\n        // blockchash() function only works for last 256 blocks (25.6 min window in case of 6s block time)\n        // TODO: figure out how to achieve randomness\n        return (\n            assertionId,\n            uint256(\n                sha256(abi.encodePacked(epoch, identityId))\n            ) % assertionChunksNumber\n        );\n    }\n\n    function sendProof(\n        address assetContract,\n        uint256 tokenId,\n        bytes memory keyword,\n        uint8 hashingFunctionId,\n        uint16 epoch,\n        bytes32[] memory proof,\n        bytes32 chunkHash\n    )\n        public\n    {\n        bytes32 agreementId = _generateAgreementId(assetContract, tokenId, keyword, hashingFunctionId);\n        require(!isProofWindowOpen(agreementId, epoch), \"Proof window is open\");\n\n        uint96 identityId = IdentityStorage(hub.getContractAddress(\"IdentityStorage\")).identityIds(\n            keccak256(abi.encodePacked(msg.sender))\n        );\n\n        require(\n            commitSubmissions[keccak256(abi.encodePacked(agreementId, epoch, identityId))].score != 0,\n            \"You've been already rewarded in this epoch\"\n        );\n\n        bytes32 nextCommitId = serviceAgreements[agreementId].epochSubmissionHeads[epoch];\n\n        ParametersStorage parametersStorage = ParametersStorage(hub.getContractAddress(\"ParametersStorage\"));\n\n        uint32 i = 0;\n        while ((identityId != commitSubmissions[nextCommitId].identityId) || (i != parametersStorage.R0())) {\n            nextCommitId = keccak256(\n                abi.encodePacked(agreementId, epoch, commitSubmissions[nextCommitId].nextIdentity)\n            );\n            i++;\n        }\n\n        require(i < parametersStorage.R0(), \"Your node hasn't been awarded for this asset in this epoch\");\n\n        bytes32 merkleRoot;\n        uint256 challenge;\n        (merkleRoot, challenge) = getChallenge(assetContract, tokenId, epoch);\n\n        require(\n            MerkleProof.verify(\n                proof,\n                merkleRoot,\n                keccak256(abi.encodePacked(chunkHash, challenge))\n            ),\n            \"Root hash doesn't match\"\n        );\n\n        ProfileStorage profileStorage = ProfileStorage(hub.getContractAddress(\"ProfileStorage\"));\n\n        // emit ProofSubmitted(\n        //     assetContract,\n        //     tokenId,\n        //     keyword,\n        //     hashingFunctionId,\n        //     identityId,\n        //     profileStorage.getNodeId(identityId)\n        // );\n\n        uint96 reward = (\n            serviceAgreements[agreementId].tokenAmount /\n            (serviceAgreements[agreementId].epochsNum - epoch + 1) /\n            (parametersStorage.R0() - serviceAgreements[agreementId].rewardedNodes[epoch])\n        );\n\n        IERC20(hub.getContractAddress(\"Token\")).transfer(address(profileStorage), reward);\n\n        profileStorage.setReward(identityId, profileStorage.getReward(identityId) + reward);\n\n        serviceAgreements[agreementId].tokenAmount -= reward;\n        serviceAgreements[agreementId].rewardedNodes[epoch] += 1;\n\n        // To make sure that node already received reward\n        commitSubmissions[keccak256(abi.encodePacked(agreementId, epoch, identityId))].score = 0;\n    }\n\n    function setScoringFunction(bytes32 agreementId, uint8 newScoringFunctionId)\n        public\n        onlyAssetContracts\n    {\n        serviceAgreements[agreementId].scoringFunctionId = newScoringFunctionId;\n    }\n\n    function _insertCommitAfter(bytes32 agreementId, uint16 epoch, uint96 prevIdentityId, CommitSubmission memory commit)\n        private\n    {\n        bytes32 commitId = keccak256(abi.encodePacked(agreementId, epoch, commit.identityId));\n\n        // Replacing head\n        if (prevIdentityId == 0) {\n            bytes32 epochSubmissionsHead = serviceAgreements[agreementId].epochSubmissionHeads[epoch];\n\n            uint96 prevHeadIdentityId = 0;\n            if(epochSubmissionsHead != \"\") {\n                CommitSubmission memory commitHead = commitSubmissions[epochSubmissionsHead];\n                prevHeadIdentityId = commitHead.identityId;\n\n                require(\n                    commit.score > commitHead.score,\n                    \"Score of the commit must be higher that the score of the head in order to replace it!\"\n                );\n            }\n\n            serviceAgreements[agreementId].epochSubmissionHeads[epoch] = commitId;\n            commitSubmissions[commitId] = commit;\n            _link_commits(agreementId, epoch, commit.identityId, prevHeadIdentityId);\n        }\n        else {\n            bytes32 prevCommitId = keccak256(abi.encodePacked(agreementId, epoch, prevIdentityId));\n            CommitSubmission memory prevCommit = commitSubmissions[prevCommitId];\n\n            require(\n                commit.score <= prevCommit.score,\n                \"Score of the commit must be less or equal to the one you want insert after!\"\n            );\n\n            uint96 nextIdentityId = prevCommit.nextIdentity;\n            if (nextIdentityId != 0) {\n                bytes32 nextCommitId = keccak256(abi.encodePacked(agreementId, epoch, nextIdentityId));\n                CommitSubmission memory nextCommit = commitSubmissions[nextCommitId];\n\n                require(\n                    commit.score >= nextCommit.score,\n                    \"Score of the commit must be greater or equal to the one you want insert before!\"\n                );\n            }\n\n            commitSubmissions[commitId] = commit;\n            _link_commits(agreementId, epoch, prevIdentityId, commit.identityId);\n            _link_commits(agreementId, epoch, commit.identityId, nextIdentityId);\n        }\n    }\n\n    function _link_commits(bytes32 agreementId, uint16 epoch, uint96 leftIdentityId, uint96 rightIdentityId)\n        private\n    {\n        bytes32 leftCommitId = keccak256(abi.encodePacked(agreementId, epoch, leftIdentityId));\n        commitSubmissions[leftCommitId].nextIdentity = rightIdentityId;\n    }\n\n    function _generateAgreementId(address assetContract, uint256 tokenId, bytes memory keyword, uint8 hashingFunctionId)\n        private\n        returns (bytes32)\n    {\n        HashingProxy hashingProxy = HashingProxy(hub.getContractAddress(\"HashingProxy\"));\n        return hashingProxy.callHashingFunction(hashingFunctionId, abi.encodePacked(assetContract, tokenId, keyword));\n    }\n\n    function _generatePseudorandomUint8(address sender, uint8 limit)\n        private\n        view\n        returns (uint8)\n    {\n        // TODO: Test type conversion\n        return uint8(uint256(keccak256(abi.encodePacked(block.timestamp, sender, block.number))) % limit);\n    }\n}\n",
  "sourcePath": "/Users/waving/Desktop/OriginTrail/dkg-evm-module/contracts/storage/ServiceAgreementStorage.sol",
  "compiler": {
    "name": "solc",
    "version": "0.8.14+commit.80d49f37.Emscripten.clang"
  },
  "schemaVersion": "3.4.10",
  "updatedAt": "2022-11-16T11:11:18.820Z",
  "devdoc": {
    "kind": "dev",
    "methods": {},
    "version": 1
  },
  "userdoc": {
    "kind": "user",
    "methods": {},
    "version": 1
  }
}