{
  "contractName": "ServiceAgreementStorage",
  "abi": [
    {
      "inputs": [
        {
          "internalType": "address",
          "name": "hubAddress",
          "type": "address"
        }
      ],
      "stateMutability": "nonpayable",
      "type": "constructor"
    },
    {
      "anonymous": false,
      "inputs": [
        {
          "indexed": true,
          "internalType": "address",
          "name": "assetContract",
          "type": "address"
        },
        {
          "indexed": true,
          "internalType": "uint256",
          "name": "tokenId",
          "type": "uint256"
        },
        {
          "indexed": false,
          "internalType": "bytes",
          "name": "keyword",
          "type": "bytes"
        },
        {
          "indexed": false,
          "internalType": "uint8",
          "name": "hashFunctionId",
          "type": "uint8"
        },
        {
          "indexed": true,
          "internalType": "uint96",
          "name": "identityId",
          "type": "uint96"
        },
        {
          "indexed": false,
          "internalType": "bytes",
          "name": "nodeId",
          "type": "bytes"
        },
        {
          "indexed": false,
          "internalType": "uint32",
          "name": "score",
          "type": "uint32"
        }
      ],
      "name": "CommitSubmitted",
      "type": "event"
    },
    {
      "anonymous": false,
      "inputs": [
        {
          "indexed": true,
          "internalType": "address",
          "name": "assetContract",
          "type": "address"
        },
        {
          "indexed": true,
          "internalType": "uint256",
          "name": "tokenId",
          "type": "uint256"
        },
        {
          "indexed": false,
          "internalType": "bytes",
          "name": "keyword",
          "type": "bytes"
        },
        {
          "indexed": false,
          "internalType": "uint8",
          "name": "hashFunctionId",
          "type": "uint8"
        },
        {
          "indexed": true,
          "internalType": "uint96",
          "name": "identityId",
          "type": "uint96"
        },
        {
          "indexed": false,
          "internalType": "bytes",
          "name": "nodeId",
          "type": "bytes"
        }
      ],
      "name": "ProofSubmitted",
      "type": "event"
    },
    {
      "anonymous": false,
      "inputs": [
        {
          "indexed": true,
          "internalType": "address",
          "name": "assetContract",
          "type": "address"
        },
        {
          "indexed": true,
          "internalType": "uint256",
          "name": "tokenId",
          "type": "uint256"
        },
        {
          "indexed": false,
          "internalType": "bytes",
          "name": "keyword",
          "type": "bytes"
        },
        {
          "indexed": false,
          "internalType": "uint8",
          "name": "hashFunctionId",
          "type": "uint8"
        },
        {
          "indexed": false,
          "internalType": "uint256",
          "name": "startTime",
          "type": "uint256"
        },
        {
          "indexed": false,
          "internalType": "uint16",
          "name": "epochsNumber",
          "type": "uint16"
        },
        {
          "indexed": false,
          "internalType": "uint128",
          "name": "epochLength",
          "type": "uint128"
        },
        {
          "indexed": false,
          "internalType": "uint96",
          "name": "tokenAmount",
          "type": "uint96"
        }
      ],
      "name": "ServiceAgreementCreated",
      "type": "event"
    },
    {
      "anonymous": false,
      "inputs": [
        {
          "indexed": true,
          "internalType": "address",
          "name": "assetContract",
          "type": "address"
        },
        {
          "indexed": true,
          "internalType": "uint256",
          "name": "tokenId",
          "type": "uint256"
        },
        {
          "indexed": false,
          "internalType": "bytes",
          "name": "keyword",
          "type": "bytes"
        },
        {
          "indexed": false,
          "internalType": "uint8",
          "name": "hashFunctionId",
          "type": "uint8"
        },
        {
          "indexed": false,
          "internalType": "uint16",
          "name": "epochsNumber",
          "type": "uint16"
        },
        {
          "indexed": false,
          "internalType": "uint96",
          "name": "tokenAmount",
          "type": "uint96"
        }
      ],
      "name": "ServiceAgreementUpdated",
      "type": "event"
    },
    {
      "inputs": [],
      "name": "hub",
      "outputs": [
        {
          "internalType": "contract Hub",
          "name": "",
          "type": "address"
        }
      ],
      "stateMutability": "view",
      "type": "function"
    },
    {
      "inputs": [
        {
          "internalType": "bytes32",
          "name": "agreementId",
          "type": "bytes32"
        }
      ],
      "name": "getAgreementStartTime",
      "outputs": [
        {
          "internalType": "uint256",
          "name": "",
          "type": "uint256"
        }
      ],
      "stateMutability": "view",
      "type": "function"
    },
    {
      "inputs": [
        {
          "internalType": "bytes32",
          "name": "agreementId",
          "type": "bytes32"
        }
      ],
      "name": "getAgreementEpochsNumber",
      "outputs": [
        {
          "internalType": "uint16",
          "name": "",
          "type": "uint16"
        }
      ],
      "stateMutability": "view",
      "type": "function"
    },
    {
      "inputs": [
        {
          "internalType": "bytes32",
          "name": "agreementId",
          "type": "bytes32"
        }
      ],
      "name": "getAgreementEpochLength",
      "outputs": [
        {
          "internalType": "uint128",
          "name": "",
          "type": "uint128"
        }
      ],
      "stateMutability": "view",
      "type": "function"
    },
    {
      "inputs": [
        {
          "internalType": "bytes32",
          "name": "agreementId",
          "type": "bytes32"
        }
      ],
      "name": "getAgreementTokenAmount",
      "outputs": [
        {
          "internalType": "uint96",
          "name": "",
          "type": "uint96"
        }
      ],
      "stateMutability": "view",
      "type": "function"
    },
    {
      "inputs": [
        {
          "internalType": "bytes32",
          "name": "agreementId",
          "type": "bytes32"
        }
      ],
      "name": "getAgreementScoreFunctionId",
      "outputs": [
        {
          "internalType": "uint8",
          "name": "",
          "type": "uint8"
        }
      ],
      "stateMutability": "view",
      "type": "function"
    },
    {
      "inputs": [
        {
          "internalType": "bytes32",
          "name": "agreementId",
          "type": "bytes32"
        }
      ],
      "name": "getAgreementProofWindowOffsetPerc",
      "outputs": [
        {
          "internalType": "uint8",
          "name": "",
          "type": "uint8"
        }
      ],
      "stateMutability": "view",
      "type": "function"
    },
    {
      "inputs": [
        {
          "internalType": "address",
          "name": "operationalWallet",
          "type": "address"
        },
        {
          "internalType": "address",
          "name": "assetContract",
          "type": "address"
        },
        {
          "internalType": "uint256",
          "name": "tokenId",
          "type": "uint256"
        },
        {
          "internalType": "bytes",
          "name": "keyword",
          "type": "bytes"
        },
        {
          "internalType": "uint8",
          "name": "hashFunctionId",
          "type": "uint8"
        },
        {
          "internalType": "uint16",
          "name": "epochsNumber",
          "type": "uint16"
        },
        {
          "internalType": "uint96",
          "name": "tokenAmount",
          "type": "uint96"
        },
        {
          "internalType": "uint8",
          "name": "scoreFunctionId",
          "type": "uint8"
        }
      ],
      "name": "createServiceAgreement",
      "outputs": [],
      "stateMutability": "nonpayable",
      "type": "function"
    },
    {
      "inputs": [
        {
          "internalType": "address",
          "name": "operationalWallet",
          "type": "address"
        },
        {
          "internalType": "address",
          "name": "assetContract",
          "type": "address"
        },
        {
          "internalType": "uint256",
          "name": "tokenId",
          "type": "uint256"
        },
        {
          "internalType": "bytes",
          "name": "keyword",
          "type": "bytes"
        },
        {
          "internalType": "uint8",
          "name": "hashFunctionId",
          "type": "uint8"
        },
        {
          "internalType": "uint16",
          "name": "epochsNumber",
          "type": "uint16"
        },
        {
          "internalType": "uint96",
          "name": "tokenAmount",
          "type": "uint96"
        }
      ],
      "name": "updateServiceAgreement",
      "outputs": [],
      "stateMutability": "nonpayable",
      "type": "function"
    },
    {
      "inputs": [
        {
          "internalType": "bytes32",
          "name": "agreementId",
          "type": "bytes32"
        },
        {
          "internalType": "uint16",
          "name": "epoch",
          "type": "uint16"
        }
      ],
      "name": "isCommitWindowOpen",
      "outputs": [
        {
          "internalType": "bool",
          "name": "",
          "type": "bool"
        }
      ],
      "stateMutability": "view",
      "type": "function"
    },
    {
      "inputs": [
        {
          "internalType": "bytes32",
          "name": "agreementId",
          "type": "bytes32"
        },
        {
          "internalType": "uint16",
          "name": "epoch",
          "type": "uint16"
        }
      ],
      "name": "getCommitSubmissions",
      "outputs": [
        {
          "components": [
            {
              "internalType": "uint96",
              "name": "identityId",
              "type": "uint96"
            },
            {
              "internalType": "uint96",
              "name": "nextIdentity",
              "type": "uint96"
            },
            {
              "internalType": "uint32",
              "name": "score",
              "type": "uint32"
            }
          ],
          "internalType": "struct ServiceAgreementStorage.CommitSubmission[]",
          "name": "",
          "type": "tuple[]"
        }
      ],
      "stateMutability": "view",
      "type": "function"
    },
    {
      "inputs": [
        {
          "internalType": "address",
          "name": "assetContract",
          "type": "address"
        },
        {
          "internalType": "uint256",
          "name": "tokenId",
          "type": "uint256"
        },
        {
          "internalType": "bytes",
          "name": "keyword",
          "type": "bytes"
        },
        {
          "internalType": "uint8",
          "name": "hashFunctionId",
          "type": "uint8"
        },
        {
          "internalType": "uint16",
          "name": "epoch",
          "type": "uint16"
        },
        {
          "internalType": "uint96",
          "name": "prevIdentityId",
          "type": "uint96"
        }
      ],
      "name": "submitCommit",
      "outputs": [],
      "stateMutability": "nonpayable",
      "type": "function"
    },
    {
      "inputs": [
        {
          "internalType": "bytes32",
          "name": "agreementId",
          "type": "bytes32"
        },
        {
          "internalType": "uint16",
          "name": "epoch",
          "type": "uint16"
        }
      ],
      "name": "isProofWindowOpen",
      "outputs": [
        {
          "internalType": "bool",
          "name": "",
          "type": "bool"
        }
      ],
      "stateMutability": "view",
      "type": "function"
    },
    {
      "inputs": [
        {
          "internalType": "address",
          "name": "assetContract",
          "type": "address"
        },
        {
          "internalType": "uint256",
          "name": "tokenId",
          "type": "uint256"
        },
        {
          "internalType": "uint16",
          "name": "epoch",
          "type": "uint16"
        }
      ],
      "name": "getChallenge",
      "outputs": [
        {
          "internalType": "bytes32",
          "name": "",
          "type": "bytes32"
        },
        {
          "internalType": "uint256",
          "name": "",
          "type": "uint256"
        }
      ],
      "stateMutability": "view",
      "type": "function"
    },
    {
      "inputs": [
        {
          "internalType": "address",
          "name": "assetContract",
          "type": "address"
        },
        {
          "internalType": "uint256",
          "name": "tokenId",
          "type": "uint256"
        },
        {
          "internalType": "bytes",
          "name": "keyword",
          "type": "bytes"
        },
        {
          "internalType": "uint8",
          "name": "hashFunctionId",
          "type": "uint8"
        },
        {
          "internalType": "uint16",
          "name": "epoch",
          "type": "uint16"
        },
        {
          "internalType": "bytes32[]",
          "name": "proof",
          "type": "bytes32[]"
        },
        {
          "internalType": "bytes32",
          "name": "chunkHash",
          "type": "bytes32"
        }
      ],
      "name": "sendProof",
      "outputs": [],
      "stateMutability": "nonpayable",
      "type": "function"
    },
    {
      "inputs": [
        {
          "internalType": "bytes32",
          "name": "agreementId",
          "type": "bytes32"
        },
        {
          "internalType": "uint8",
          "name": "newScoreFunctionId",
          "type": "uint8"
        }
      ],
      "name": "setScoringFunction",
      "outputs": [],
      "stateMutability": "nonpayable",
      "type": "function"
    }
  ],
  "bytecode": "0x60806040523480156200001157600080fd5b5060405162005cc238038062005cc2833981810160405281019062000037919062000122565b600073ffffffffffffffffffffffffffffffffffffffff168173ffffffffffffffffffffffffffffffffffffffff16036200007157600080fd5b806000806101000a81548173ffffffffffffffffffffffffffffffffffffffff021916908373ffffffffffffffffffffffffffffffffffffffff1602179055505062000154565b600080fd5b600073ffffffffffffffffffffffffffffffffffffffff82169050919050565b6000620000ea82620000bd565b9050919050565b620000fc81620000dd565b81146200010857600080fd5b50565b6000815190506200011c81620000f1565b92915050565b6000602082840312156200013b576200013a620000b8565b5b60006200014b848285016200010b565b91505092915050565b615b5e80620001646000396000f3fe608060405234801561001057600080fd5b50600436106101005760003560e01c80639c70b3c011610097578063becdd59711610066578063becdd597146102e4578063ce60dc6114610314578063d1a640c714610344578063fc348cb61461037457610100565b80639c70b3c01461024c578063aa6a00fd1461027c578063b1f38350146102ac578063be82c4e2146102c857610100565b80634fb96d50116100d35780634fb96d50146101b457806361f14ece146101e457806385e57f571461020057806399149f771461021c57610100565b806332c2fbf114610105578063365a86fc146101365780634089a17d14610154578063484a47e714610184575b600080fd5b61011f600480360381019061011a9190613a17565b610390565b60405161012d929190613a92565b60405180910390f35b61013e610773565b60405161014b9190613b1a565b60405180910390f35b61016e60048036038101906101699190613b61565b610797565b60405161017b9190613bb5565b60405180910390f35b61019e60048036038101906101999190613b61565b6107cf565b6040516101ab9190613bfb565b60405180910390f35b6101ce60048036038101906101c99190613c16565b61080b565b6040516101db9190613d75565b60405180910390f35b6101fe60048036038101906101f99190613f42565b610c18565b005b61021a60048036038101906102159190614000565b611132565b005b61023660048036038101906102319190613b61565b6116bb565b60405161024391906140b8565b60405180910390f35b61026660048036038101906102619190613b61565b6116e8565b60405161027391906140d3565b60405180910390f35b61029660048036038101906102919190613c16565b611708565b6040516102a39190614109565b60405180910390f35b6102c660048036038101906102c19190614124565b611a01565b005b6102e260048036038101906102dd9190614164565b611b0d565b005b6102fe60048036038101906102f99190613c16565b611fb6565b60405161030b9190614109565b60405180910390f35b61032e60048036038101906103299190613b61565b6121a6565b60405161033b91906140b8565b60405180910390f35b61035e60048036038101906103599190613b61565b6121d3565b60405161036b9190614245565b60405180910390f35b61038e60048036038101906103899190614328565b612201565b005b60008060008060009054906101000a900473ffffffffffffffffffffffffffffffffffffffff1673ffffffffffffffffffffffffffffffffffffffff166304433bbc6040518163ffffffff1660e01b81526004016103ed9061445f565b602060405180830381865afa15801561040a573d6000803e3d6000fd5b505050506040513d601f19601f8201168201806040525081019061042e9190614494565b905060008173ffffffffffffffffffffffffffffffffffffffff1663867a4680336040518263ffffffff1660e01b815260040161046b91906144d0565b602060405180830381865afa158015610488573d6000803e3d6000fd5b505050506040513d601f19601f820116820180604052508101906104ac9190614500565b9050600087905060008173ffffffffffffffffffffffffffffffffffffffff1663469766668960018c73ffffffffffffffffffffffffffffffffffffffff16635a58db148d6040518263ffffffff1660e01b815260040161050d91906140d3565b602060405180830381865afa15801561052a573d6000803e3d6000fd5b505050506040513d601f19601f8201168201806040525081019061054e9190614542565b610558919061459e565b6040518363ffffffff1660e01b81526004016105759291906145d2565b602060405180830381865afa158015610592573d6000803e3d6000fd5b505050506040513d601f19601f820116820180604052508101906105b69190614610565b905060008060009054906101000a900473ffffffffffffffffffffffffffffffffffffffff1673ffffffffffffffffffffffffffffffffffffffff166304433bbc6040518163ffffffff1660e01b815260040161061290614689565b602060405180830381865afa15801561062f573d6000803e3d6000fd5b505050506040513d601f19601f820116820180604052508101906106539190614494565b905060008173ffffffffffffffffffffffffffffffffffffffff1663ec82e3a7846040518263ffffffff1660e01b815260040161069091906146a9565b602060405180830381865afa1580156106ad573d6000803e3d6000fd5b505050506040513d601f19601f820116820180604052508101906106d19190614500565b6bffffffffffffffffffffffff169050828160028b886040516020016106f8929190614730565b60405160208183030381529060405260405161071491906147d6565b602060405180830381855afa158015610731573d6000803e3d6000fd5b5050506040513d601f19601f820116820180604052508101906107549190614610565b60001c610761919061481c565b97509750505050505050935093915050565b60008054906101000a900473ffffffffffffffffffffffffffffffffffffffff1681565b60006002600083815260200190815260200160002060010160129054906101000a90046bffffffffffffffffffffffff169050919050565b60006002600083815260200190815260200160002060010160029054906101000a90046fffffffffffffffffffffffffffffffff169050919050565b606060008060009054906101000a900473ffffffffffffffffffffffffffffffffffffffff1673ffffffffffffffffffffffffffffffffffffffff166304433bbc6040518163ffffffff1660e01b815260040161086790614899565b602060405180830381865afa158015610884573d6000803e3d6000fd5b505050506040513d601f19601f820116820180604052508101906108a89190614494565b905060008173ffffffffffffffffffffffffffffffffffffffff1663fee2cb056040518163ffffffff1660e01b8152600401602060405180830381865afa1580156108f7573d6000803e3d6000fd5b505050506040513d601f19601f8201168201806040525081019061091b91906148f7565b65ffffffffffff1667ffffffffffffffff81111561093c5761093b613db2565b5b60405190808252806020026020018201604052801561097557816020015b6109626138f2565b81526020019060019003908161095a5790505b50905060006002600087815260200190815260200160002060020160008661ffff1661ffff1681526020019081526020016000205490506000600160008381526020019081526020016000206040518060600160405290816000820160009054906101000a90046bffffffffffffffffffffffff166bffffffffffffffffffffffff166bffffffffffffffffffffffff16815260200160008201600c9054906101000a90046bffffffffffffffffffffffff166bffffffffffffffffffffffff166bffffffffffffffffffffffff1681526020016000820160189054906101000a900463ffffffff1663ffffffff1663ffffffff1681525050838260ff1681518110610a8457610a83614924565b5b6020026020010181905250600060016000848152602001908152602001600020600001600c9054906101000a90046bffffffffffffffffffffffff1690505b6000816bffffffffffffffffffffffff1614610c0a576000888883604051602001610af093929190614974565b6040516020818303038152906040528051906020012090506000600160008381526020019081526020016000206040518060600160405290816000820160009054906101000a90046bffffffffffffffffffffffff166bffffffffffffffffffffffff166bffffffffffffffffffffffff16815260200160008201600c9054906101000a90046bffffffffffffffffffffffff166bffffffffffffffffffffffff166bffffffffffffffffffffffff1681526020016000820160189054906101000a900463ffffffff1663ffffffff1663ffffffff168152505090508380610bd7906149b1565b94505080868560ff1681518110610bf157610bf0614924565b5b6020026020010181905250806020015192505050610ac3565b839550505050505092915050565b60008054906101000a900473ffffffffffffffffffffffffffffffffffffffff1673ffffffffffffffffffffffffffffffffffffffff16638d5d2d85336040518263ffffffff1660e01b8152600401610c7191906144d0565b602060405180830381865afa158015610c8e573d6000803e3d6000fd5b505050506040513d601f19601f82011682018060405250810190610cb29190614a06565b610cf1576040517f08c379a0000000000000000000000000000000000000000000000000000000008152600401610ce890614aa5565b60405180910390fd5b6000610cff87878787612c9c565b905060006002600083815260200190815260200160002060010160129054906101000a90046bffffffffffffffffffffffff169050836002600084815260200190815260200160002060010160006101000a81548161ffff021916908361ffff160217905550826002600084815260200190815260200160002060010160126101000a8154816bffffffffffffffffffffffff02191690836bffffffffffffffffffffffff16021790555060008060009054906101000a900473ffffffffffffffffffffffffffffffffffffffff1673ffffffffffffffffffffffffffffffffffffffff166304433bbc6040518163ffffffff1660e01b8152600401610e0490614b11565b602060405180830381865afa158015610e21573d6000803e3d6000fd5b505050506040513d601f19601f82011682018060405250810190610e459190614494565b90508382610e539190614b31565b6bffffffffffffffffffffffff168173ffffffffffffffffffffffffffffffffffffffff1663dd62ed3e8c306040518363ffffffff1660e01b8152600401610e9c929190614b65565b602060405180830381865afa158015610eb9573d6000803e3d6000fd5b505050506040513d601f19601f82011682018060405250810190610edd9190614542565b1015610f1e576040517f08c379a0000000000000000000000000000000000000000000000000000000008152600401610f1590614c00565b60405180910390fd5b8382610f2a9190614b31565b6bffffffffffffffffffffffff168173ffffffffffffffffffffffffffffffffffffffff166370a082318c6040518263ffffffff1660e01b8152600401610f7191906144d0565b602060405180830381865afa158015610f8e573d6000803e3d6000fd5b505050506040513d601f19601f82011682018060405250810190610fb29190614542565b1015610ff3576040517f08c379a0000000000000000000000000000000000000000000000000000000008152600401610fea90614c92565b60405180910390fd5b8073ffffffffffffffffffffffffffffffffffffffff166323b872dd8b30878661101d9190614b31565b6040518463ffffffff1660e01b815260040161103b93929190614ce3565b6020604051808303816000875af115801561105a573d6000803e3d6000fd5b505050506040513d601f19601f8201168201806040525081019061107e9190614a06565b50878973ffffffffffffffffffffffffffffffffffffffff167f1abad9d03c6b61f6b6714655a41bdc5b88318ce5136915a9c8751a74ad5a30b989896002600089815260200190815260200160002060010160009054906101000a900461ffff16600260008a815260200190815260200160002060010160129054906101000a90046bffffffffffffffffffffffff1660405161111e9493929190614d64565b60405180910390a350505050505050505050565b600061114087878787612c9c565b905061114c8184611fb6565b61118b576040517f08c379a000000000000000000000000000000000000000000000000000000000815260040161118290614dfc565b60405180910390fd5b60008060009054906101000a900473ffffffffffffffffffffffffffffffffffffffff1673ffffffffffffffffffffffffffffffffffffffff166304433bbc6040518163ffffffff1660e01b81526004016111e59061445f565b602060405180830381865afa158015611202573d6000803e3d6000fd5b505050506040513d601f19601f820116820180604052508101906112269190614494565b905060008173ffffffffffffffffffffffffffffffffffffffff1663867a4680336040518263ffffffff1660e01b815260040161126391906144d0565b602060405180830381865afa158015611280573d6000803e3d6000fd5b505050506040513d601f19601f820116820180604052508101906112a49190614500565b905060008060009054906101000a900473ffffffffffffffffffffffffffffffffffffffff1673ffffffffffffffffffffffffffffffffffffffff166304433bbc6040518163ffffffff1660e01b815260040161130090614e68565b602060405180830381865afa15801561131d573d6000803e3d6000fd5b505050506040513d601f19601f820116820180604052508101906113419190614494565b905060008060009054906101000a900473ffffffffffffffffffffffffffffffffffffffff1673ffffffffffffffffffffffffffffffffffffffff166304433bbc6040518163ffffffff1660e01b815260040161139d90614ed4565b602060405180830381865afa1580156113ba573d6000803e3d6000fd5b505050506040513d601f19601f820116820180604052508101906113de9190614494565b905060008173ffffffffffffffffffffffffffffffffffffffff16630b47a00860026000898152602001908152602001600020600101601e9054906101000a900460ff168b8673ffffffffffffffffffffffffffffffffffffffff16636c5c281c896040518263ffffffff1660e01b815260040161145c9190613bb5565b600060405180830381865afa158015611479573d6000803e3d6000fd5b505050506040513d6000823e3d601f19601f820116820180604052508101906114a29190614f64565b8e8873ffffffffffffffffffffffffffffffffffffffff16631860bd8e8b6040518263ffffffff1660e01b81526004016114dc9190613bb5565b602060405180830381865afa1580156114f9573d6000803e3d6000fd5b505050506040513d601f19601f8201168201806040525081019061151d9190614500565b6040518663ffffffff1660e01b815260040161153d959493929190614fad565b6020604051808303816000875af115801561155c573d6000803e3d6000fd5b505050506040513d601f19601f82011682018060405250810190611580919061503a565b90506115cb8689896040518060600160405280896bffffffffffffffffffffffff16815260200160006bffffffffffffffffffffffff1681526020018663ffffffff16815250612de5565b836bffffffffffffffffffffffff168b8d73ffffffffffffffffffffffffffffffffffffffff167f216ae8cf3a7e83235b21d65afff2deeeed219e9cc836bcc0fa976f143610e9658d8d8873ffffffffffffffffffffffffffffffffffffffff16636c5c281c8b6040518263ffffffff1660e01b815260040161164e9190613bb5565b600060405180830381865afa15801561166b573d6000803e3d6000fd5b505050506040513d6000823e3d601f19601f820116820180604052508101906116949190614f64565b876040516116a59493929190615076565b60405180910390a4505050505050505050505050565b600060026000838152602001908152602001600020600101601f9054906101000a900460ff169050919050565b600060026000838152602001908152602001600020600001549050919050565b600080429050600060026000868152602001908152602001600020905060008060009054906101000a900473ffffffffffffffffffffffffffffffffffffffff1673ffffffffffffffffffffffffffffffffffffffff166304433bbc6040518163ffffffff1660e01b815260040161177f90614899565b602060405180830381865afa15801561179c573d6000803e3d6000fd5b505050506040513d601f19601f820116820180604052508101906117c09190614494565b90506000606483600101601f9054906101000a900460ff1660ff168460010160009054906101000a900461ffff1661ffff168560010160029054906101000a90046fffffffffffffffffffffffffffffffff1661181d91906150c9565b61182791906150c9565b6118319190615113565b6fffffffffffffffffffffffffffffffff169050600060648373ffffffffffffffffffffffffffffffffffffffff16639d3ceb0c6040518163ffffffff1660e01b8152600401602060405180830381865afa158015611894573d6000803e3d6000fd5b505050506040513d601f19601f820116820180604052508101906118b89190615159565b60ff168560010160009054906101000a900461ffff1661ffff168660010160029054906101000a90046fffffffffffffffffffffffffffffffff166118fd91906150c9565b61190791906150c9565b6119119190615113565b6fffffffffffffffffffffffffffffffff169050818761ffff168560010160029054906101000a90046fffffffffffffffffffffffffffffffff1661195691906150c9565b6fffffffffffffffffffffffffffffffff1685600001546119779190615186565b6119819190615186565b851180156119f4575080828861ffff168660010160029054906101000a90046fffffffffffffffffffffffffffffffff166119bc91906150c9565b6fffffffffffffffffffffffffffffffff1686600001546119dd9190615186565b6119e79190615186565b6119f19190615186565b85105b9550505050505092915050565b60008054906101000a900473ffffffffffffffffffffffffffffffffffffffff1673ffffffffffffffffffffffffffffffffffffffff16638d5d2d85336040518263ffffffff1660e01b8152600401611a5a91906144d0565b602060405180830381865afa158015611a77573d6000803e3d6000fd5b505050506040513d601f19601f82011682018060405250810190611a9b9190614a06565b611ada576040517f08c379a0000000000000000000000000000000000000000000000000000000008152600401611ad190614aa5565b60405180910390fd5b8060026000848152602001908152602001600020600101601e6101000a81548160ff021916908360ff1602179055505050565b60008054906101000a900473ffffffffffffffffffffffffffffffffffffffff1673ffffffffffffffffffffffffffffffffffffffff16638d5d2d85336040518263ffffffff1660e01b8152600401611b6691906144d0565b602060405180830381865afa158015611b83573d6000803e3d6000fd5b505050506040513d601f19601f82011682018060405250810190611ba79190614a06565b611be6576040517f08c379a0000000000000000000000000000000000000000000000000000000008152600401611bdd90614aa5565b60405180910390fd5b6000611bf488888888612c9c565b9050611c038982868686613412565b60008060009054906101000a900473ffffffffffffffffffffffffffffffffffffffff1673ffffffffffffffffffffffffffffffffffffffff166304433bbc6040518163ffffffff1660e01b8152600401611c5d90614b11565b602060405180830381865afa158015611c7a573d6000803e3d6000fd5b505050506040513d601f19601f82011682018060405250810190611c9e9190614494565b9050836bffffffffffffffffffffffff168173ffffffffffffffffffffffffffffffffffffffff1663dd62ed3e8c306040518363ffffffff1660e01b8152600401611cea929190614b65565b602060405180830381865afa158015611d07573d6000803e3d6000fd5b505050506040513d601f19601f82011682018060405250810190611d2b9190614542565b1015611d6c576040517f08c379a0000000000000000000000000000000000000000000000000000000008152600401611d6390614c00565b60405180910390fd5b836bffffffffffffffffffffffff168173ffffffffffffffffffffffffffffffffffffffff166370a082318c6040518263ffffffff1660e01b8152600401611db491906144d0565b602060405180830381865afa158015611dd1573d6000803e3d6000fd5b505050506040513d601f19601f82011682018060405250810190611df59190614542565b1015611e36576040517f08c379a0000000000000000000000000000000000000000000000000000000008152600401611e2d90614c92565b60405180910390fd5b8073ffffffffffffffffffffffffffffffffffffffff166323b872dd8b30876040518463ffffffff1660e01b8152600401611e7393929190614ce3565b6020604051808303816000875af1158015611e92573d6000803e3d6000fd5b505050506040513d601f19601f82011682018060405250810190611eb69190614a06565b50878973ffffffffffffffffffffffffffffffffffffffff167f48298191f59170e97201484d4a3de75065cea587a165788d1f19459fabd39a5e898960026000888152602001908152602001600020600001546002600089815260200190815260200160002060010160009054906101000a900461ffff16600260008a815260200190815260200160002060010160029054906101000a90046fffffffffffffffffffffffffffffffff16600260008b815260200190815260200160002060010160129054906101000a90046bffffffffffffffffffffffff16604051611fa2969594939291906151dc565b60405180910390a350505050505050505050565b600080429050600060026000868152602001908152602001600020905060008060009054906101000a900473ffffffffffffffffffffffffffffffffffffffff1673ffffffffffffffffffffffffffffffffffffffff166304433bbc6040518163ffffffff1660e01b815260040161202d90614899565b602060405180830381865afa15801561204a573d6000803e3d6000fd5b505050506040513d601f19601f8201168201806040525081019061206e9190614494565b90508461ffff168260010160029054906101000a90046fffffffffffffffffffffffffffffffff166120a091906150c9565b6fffffffffffffffffffffffffffffffff1682600001546120c19190615186565b8311801561219b57508073ffffffffffffffffffffffffffffffffffffffff1663e8d487ff6040518163ffffffff1660e01b8152600401602060405180830381865afa158015612115573d6000803e3d6000fd5b505050506040513d601f19601f820116820180604052508101906121399190615259565b61ffff168561ffff168360010160029054906101000a90046fffffffffffffffffffffffffffffffff1661216d91906150c9565b6fffffffffffffffffffffffffffffffff16836000015461218e9190615186565b6121989190615186565b83105b935050505092915050565b600060026000838152602001908152602001600020600101601e9054906101000a900460ff169050919050565b60006002600083815260200190815260200160002060010160009054906101000a900461ffff169050919050565b600061220f88888888612c9c565b905061221b8185611708565b1561225b576040517f08c379a0000000000000000000000000000000000000000000000000000000008152600401612252906152d2565b60405180910390fd5b60008060009054906101000a900473ffffffffffffffffffffffffffffffffffffffff1673ffffffffffffffffffffffffffffffffffffffff166304433bbc6040518163ffffffff1660e01b81526004016122b59061445f565b602060405180830381865afa1580156122d2573d6000803e3d6000fd5b505050506040513d601f19601f820116820180604052508101906122f69190614494565b73ffffffffffffffffffffffffffffffffffffffff1663867a4680336040518263ffffffff1660e01b815260040161232e91906144d0565b602060405180830381865afa15801561234b573d6000803e3d6000fd5b505050506040513d601f19601f8201168201806040525081019061236f9190614500565b905060006001600084888560405160200161238c93929190614974565b60405160208183030381529060405280519060200120815260200190815260200160002060000160189054906101000a900463ffffffff1663ffffffff160361240a576040517f08c379a000000000000000000000000000000000000000000000000000000000815260040161240190615364565b60405180910390fd5b60006002600084815260200190815260200160002060020160008761ffff1661ffff16815260200190815260200160002054905060008060009054906101000a900473ffffffffffffffffffffffffffffffffffffffff1673ffffffffffffffffffffffffffffffffffffffff166304433bbc6040518163ffffffff1660e01b815260040161249890614899565b602060405180830381865afa1580156124b5573d6000803e3d6000fd5b505050506040513d601f19601f820116820180604052508101906124d99190614494565b905060005b6001600084815260200190815260200160002060000160009054906101000a90046bffffffffffffffffffffffff166bffffffffffffffffffffffff16846bffffffffffffffffffffffff161415806125b157508173ffffffffffffffffffffffffffffffffffffffff16638d73d86a6040518163ffffffff1660e01b8152600401602060405180830381865afa15801561257d573d6000803e3d6000fd5b505050506040513d601f19601f820116820180604052508101906125a1919061503a565b63ffffffff168163ffffffff1614155b1561262457848860016000868152602001908152602001600020600001600c9054906101000a90046bffffffffffffffffffffffff166040516020016125f993929190614974565b604051602081830303815290604052805190602001209250808061261c90615384565b9150506124de565b8173ffffffffffffffffffffffffffffffffffffffff16638d73d86a6040518163ffffffff1660e01b8152600401602060405180830381865afa15801561266f573d6000803e3d6000fd5b505050506040513d601f19601f82011682018060405250810190612693919061503a565b63ffffffff168163ffffffff16106126e0576040517f08c379a00000000000000000000000000000000000000000000000000000000081526004016126d790615422565b60405180910390fd5b6000806126ee8e8e8c610390565b809250819350505061272989838a8460405160200161270e929190615463565b60405160208183030381529060405280519060200120613782565b612768576040517f08c379a000000000000000000000000000000000000000000000000000000000815260040161275f906154db565b60405180910390fd5b60008060009054906101000a900473ffffffffffffffffffffffffffffffffffffffff1673ffffffffffffffffffffffffffffffffffffffff166304433bbc6040518163ffffffff1660e01b81526004016127c290614e68565b602060405180830381865afa1580156127df573d6000803e3d6000fd5b505050506040513d601f19601f820116820180604052508101906128039190614494565b90506000600260008a815260200190815260200160002060030160008d61ffff1661ffff16815260200190815260200160002060009054906101000a900463ffffffff168673ffffffffffffffffffffffffffffffffffffffff16638d73d86a6040518163ffffffff1660e01b8152600401602060405180830381865afa158015612892573d6000803e3d6000fd5b505050506040513d601f19601f820116820180604052508101906128b6919061503a565b6128c091906154fb565b63ffffffff1660018d600260008d815260200190815260200160002060010160009054906101000a900461ffff166128f8919061552f565b6129029190615563565b61ffff16600260008c815260200190815260200160002060010160129054906101000a90046bffffffffffffffffffffffff1661293f919061559b565b612949919061559b565b905060008054906101000a900473ffffffffffffffffffffffffffffffffffffffff1673ffffffffffffffffffffffffffffffffffffffff166304433bbc6040518163ffffffff1660e01b81526004016129a290614b11565b602060405180830381865afa1580156129bf573d6000803e3d6000fd5b505050506040513d601f19601f820116820180604052508101906129e39190614494565b73ffffffffffffffffffffffffffffffffffffffff1663a9059cbb83836040518363ffffffff1660e01b8152600401612a1d9291906155cc565b6020604051808303816000875af1158015612a3c573d6000803e3d6000fd5b505050506040513d601f19601f82011682018060405250810190612a609190614a06565b508173ffffffffffffffffffffffffffffffffffffffff1663a4f9062389838573ffffffffffffffffffffffffffffffffffffffff166374cb0edb8d6040518263ffffffff1660e01b8152600401612ab89190613bb5565b602060405180830381865afa158015612ad5573d6000803e3d6000fd5b505050506040513d601f19601f82011682018060405250810190612af99190614500565b612b0391906155f5565b6040518363ffffffff1660e01b8152600401612b20929190615637565b600060405180830381600087803b158015612b3a57600080fd5b505af1158015612b4e573d6000803e3d6000fd5b5050505080600260008b815260200190815260200160002060010160128282829054906101000a90046bffffffffffffffffffffffff16612b8f9190614b31565b92506101000a8154816bffffffffffffffffffffffff02191690836bffffffffffffffffffffffff1602179055506001600260008b815260200190815260200160002060030160008e61ffff1661ffff16815260200190815260200160002060008282829054906101000a900463ffffffff16612c0c9190615660565b92506101000a81548163ffffffff021916908363ffffffff1602179055506000600160008b8f8c604051602001612c4593929190614974565b60405160208183030381529060405280519060200120815260200190815260200160002060000160186101000a81548163ffffffff021916908363ffffffff16021790555050505050505050505050505050505050565b60008060008054906101000a900473ffffffffffffffffffffffffffffffffffffffff1673ffffffffffffffffffffffffffffffffffffffff166304433bbc6040518163ffffffff1660e01b8152600401612cf6906156e6565b602060405180830381865afa158015612d13573d6000803e3d6000fd5b505050506040513d601f19601f82011682018060405250810190612d379190614494565b90508073ffffffffffffffffffffffffffffffffffffffff166345ed59e584888888604051602001612d6b9392919061574e565b6040516020818303038152906040526040518363ffffffff1660e01b8152600401612d97929190615787565b6020604051808303816000875af1158015612db6573d6000803e3d6000fd5b505050506040513d601f19601f82011682018060405250810190612dda9190614610565b915050949350505050565b600084848360000151604051602001612e0093929190614974565b6040516020818303038152906040528051906020012090506000836bffffffffffffffffffffffff16036130855760006002600087815260200190815260200160002060020160008661ffff1661ffff1681526020019081526020016000205490506000808214612f8e576000600160008481526020019081526020016000206040518060600160405290816000820160009054906101000a90046bffffffffffffffffffffffff166bffffffffffffffffffffffff166bffffffffffffffffffffffff16815260200160008201600c9054906101000a90046bffffffffffffffffffffffff166bffffffffffffffffffffffff166bffffffffffffffffffffffff1681526020016000820160189054906101000a900463ffffffff1663ffffffff1663ffffffff1681525050905080600001519150806040015163ffffffff16856040015163ffffffff1611612f8c576040517f08c379a0000000000000000000000000000000000000000000000000000000008152600401612f839061584f565b60405180910390fd5b505b826002600089815260200190815260200160002060020160008861ffff1661ffff16815260200190815260200160002081905550836001600085815260200190815260200160002060008201518160000160006101000a8154816bffffffffffffffffffffffff02191690836bffffffffffffffffffffffff160217905550602082015181600001600c6101000a8154816bffffffffffffffffffffffff02191690836bffffffffffffffffffffffff16021790555060408201518160000160186101000a81548163ffffffff021916908363ffffffff16021790555090505061307e8787866000015184613799565b505061340b565b600085858560405160200161309c93929190614974565b6040516020818303038152906040528051906020012090506000600160008381526020019081526020016000206040518060600160405290816000820160009054906101000a90046bffffffffffffffffffffffff166bffffffffffffffffffffffff166bffffffffffffffffffffffff16815260200160008201600c9054906101000a90046bffffffffffffffffffffffff166bffffffffffffffffffffffff166bffffffffffffffffffffffff1681526020016000820160189054906101000a900463ffffffff1663ffffffff1663ffffffff16815250509050806040015163ffffffff16846040015163ffffffff1611156131cf576040517f08c379a00000000000000000000000000000000000000000000000000000000081526004016131c690615907565b60405180910390fd5b6000816020015190506000816bffffffffffffffffffffffff161461333b57600088888360405160200161320593929190614974565b6040516020818303038152906040528051906020012090506000600160008381526020019081526020016000206040518060600160405290816000820160009054906101000a90046bffffffffffffffffffffffff166bffffffffffffffffffffffff166bffffffffffffffffffffffff16815260200160008201600c9054906101000a90046bffffffffffffffffffffffff166bffffffffffffffffffffffff166bffffffffffffffffffffffff1681526020016000820160189054906101000a900463ffffffff1663ffffffff1663ffffffff16815250509050806040015163ffffffff16876040015163ffffffff161015613338576040517f08c379a000000000000000000000000000000000000000000000000000000000815260040161332f906159bf565b60405180910390fd5b50505b846001600086815260200190815260200160002060008201518160000160006101000a8154816bffffffffffffffffffffffff02191690836bffffffffffffffffffffffff160217905550602082015181600001600c6101000a8154816bffffffffffffffffffffffff02191690836bffffffffffffffffffffffff16021790555060408201518160000160186101000a81548163ffffffff021916908363ffffffff1602179055509050506133f78888888860000151613799565b6134078888876000015184613799565b5050505b5050505050565b60008060009054906101000a900473ffffffffffffffffffffffffffffffffffffffff1673ffffffffffffffffffffffffffffffffffffffff166304433bbc6040518163ffffffff1660e01b815260040161346c90614899565b602060405180830381865afa158015613489573d6000803e3d6000fd5b505050506040513d601f19601f820116820180604052508101906134ad9190614494565b90506000600260008781526020019081526020016000209050428160000181905550848160010160006101000a81548161ffff021916908361ffff1602179055508173ffffffffffffffffffffffffffffffffffffffff166357d775f86040518163ffffffff1660e01b8152600401602060405180830381865afa158015613539573d6000803e3d6000fd5b505050506040513d601f19601f8201168201806040525081019061355d9190615a0b565b8160010160026101000a8154816fffffffffffffffffffffffffffffffff02191690836fffffffffffffffffffffffffffffffff1602179055506136948760018473ffffffffffffffffffffffffffffffffffffffff16638e6262426040518163ffffffff1660e01b8152600401602060405180830381865afa1580156135e8573d6000803e3d6000fd5b505050506040513d601f19601f8201168201806040525081019061360c9190615159565b8573ffffffffffffffffffffffffffffffffffffffff1663ff2117436040518163ffffffff1660e01b8152600401602060405180830381865afa158015613657573d6000803e3d6000fd5b505050506040513d601f19601f8201168201806040525081019061367b9190615159565b6136859190615a38565b61368f9190615a6c565b613814565b8273ffffffffffffffffffffffffffffffffffffffff16638e6262426040518163ffffffff1660e01b8152600401602060405180830381865afa1580156136df573d6000803e3d6000fd5b505050506040513d601f19601f820116820180604052508101906137039190615159565b61370d9190615a6c565b81600101601f6101000a81548160ff021916908360ff160217905550838160010160126101000a8154816bffffffffffffffffffffffff02191690836bffffffffffffffffffffffff1602179055508281600101601e6101000a81548160ff021916908360ff16021790555050505050505050565b60008261378f858461385a565b1490509392505050565b60008484846040516020016137b093929190614974565b6040516020818303038152906040528051906020012090508160016000838152602001908152602001600020600001600c6101000a8154816bffffffffffffffffffffffff02191690836bffffffffffffffffffffffff1602179055505050505050565b60008160ff1642844360405160200161382f93929190615aa3565b6040516020818303038152906040528051906020012060001c613852919061481c565b905092915050565b60008082905060005b84518110156138a5576138908286838151811061388357613882614924565b5b60200260200101516138b0565b9150808061389d90615ae0565b915050613863565b508091505092915050565b60008183106138c8576138c382846138db565b6138d3565b6138d283836138db565b5b905092915050565b600082600052816020526040600020905092915050565b604051806060016040528060006bffffffffffffffffffffffff16815260200160006bffffffffffffffffffffffff168152602001600063ffffffff1681525090565b6000604051905090565b600080fd5b600080fd5b600073ffffffffffffffffffffffffffffffffffffffff82169050919050565b600061397482613949565b9050919050565b61398481613969565b811461398f57600080fd5b50565b6000813590506139a18161397b565b92915050565b6000819050919050565b6139ba816139a7565b81146139c557600080fd5b50565b6000813590506139d7816139b1565b92915050565b600061ffff82169050919050565b6139f4816139dd565b81146139ff57600080fd5b50565b600081359050613a11816139eb565b92915050565b600080600060608486031215613a3057613a2f61393f565b5b6000613a3e86828701613992565b9350506020613a4f868287016139c8565b9250506040613a6086828701613a02565b9150509250925092565b6000819050919050565b613a7d81613a6a565b82525050565b613a8c816139a7565b82525050565b6000604082019050613aa76000830185613a74565b613ab46020830184613a83565b9392505050565b6000819050919050565b6000613ae0613adb613ad684613949565b613abb565b613949565b9050919050565b6000613af282613ac5565b9050919050565b6000613b0482613ae7565b9050919050565b613b1481613af9565b82525050565b6000602082019050613b2f6000830184613b0b565b92915050565b613b3e81613a6a565b8114613b4957600080fd5b50565b600081359050613b5b81613b35565b92915050565b600060208284031215613b7757613b7661393f565b5b6000613b8584828501613b4c565b91505092915050565b60006bffffffffffffffffffffffff82169050919050565b613baf81613b8e565b82525050565b6000602082019050613bca6000830184613ba6565b92915050565b60006fffffffffffffffffffffffffffffffff82169050919050565b613bf581613bd0565b82525050565b6000602082019050613c106000830184613bec565b92915050565b60008060408385031215613c2d57613c2c61393f565b5b6000613c3b85828601613b4c565b9250506020613c4c85828601613a02565b9150509250929050565b600081519050919050565b600082825260208201905092915050565b6000819050602082019050919050565b613c8b81613b8e565b82525050565b600063ffffffff82169050919050565b613caa81613c91565b82525050565b606082016000820151613cc66000850182613c82565b506020820151613cd96020850182613c82565b506040820151613cec6040850182613ca1565b50505050565b6000613cfe8383613cb0565b60608301905092915050565b6000602082019050919050565b6000613d2282613c56565b613d2c8185613c61565b9350613d3783613c72565b8060005b83811015613d68578151613d4f8882613cf2565b9750613d5a83613d0a565b925050600181019050613d3b565b5085935050505092915050565b60006020820190508181036000830152613d8f8184613d17565b905092915050565b600080fd5b600080fd5b6000601f19601f8301169050919050565b7f4e487b7100000000000000000000000000000000000000000000000000000000600052604160045260246000fd5b613dea82613da1565b810181811067ffffffffffffffff82111715613e0957613e08613db2565b5b80604052505050565b6000613e1c613935565b9050613e288282613de1565b919050565b600067ffffffffffffffff821115613e4857613e47613db2565b5b613e5182613da1565b9050602081019050919050565b82818337600083830152505050565b6000613e80613e7b84613e2d565b613e12565b905082815260208101848484011115613e9c57613e9b613d9c565b5b613ea7848285613e5e565b509392505050565b600082601f830112613ec457613ec3613d97565b5b8135613ed4848260208601613e6d565b91505092915050565b600060ff82169050919050565b613ef381613edd565b8114613efe57600080fd5b50565b600081359050613f1081613eea565b92915050565b613f1f81613b8e565b8114613f2a57600080fd5b50565b600081359050613f3c81613f16565b92915050565b600080600080600080600060e0888a031215613f6157613f6061393f565b5b6000613f6f8a828b01613992565b9750506020613f808a828b01613992565b9650506040613f918a828b016139c8565b955050606088013567ffffffffffffffff811115613fb257613fb1613944565b5b613fbe8a828b01613eaf565b9450506080613fcf8a828b01613f01565b93505060a0613fe08a828b01613a02565b92505060c0613ff18a828b01613f2d565b91505092959891949750929550565b60008060008060008060c0878903121561401d5761401c61393f565b5b600061402b89828a01613992565b965050602061403c89828a016139c8565b955050604087013567ffffffffffffffff81111561405d5761405c613944565b5b61406989828a01613eaf565b945050606061407a89828a01613f01565b935050608061408b89828a01613a02565b92505060a061409c89828a01613f2d565b9150509295509295509295565b6140b281613edd565b82525050565b60006020820190506140cd60008301846140a9565b92915050565b60006020820190506140e86000830184613a83565b92915050565b60008115159050919050565b614103816140ee565b82525050565b600060208201905061411e60008301846140fa565b92915050565b6000806040838503121561413b5761413a61393f565b5b600061414985828601613b4c565b925050602061415a85828601613f01565b9150509250929050565b600080600080600080600080610100898b0312156141855761418461393f565b5b60006141938b828c01613992565b98505060206141a48b828c01613992565b97505060406141b58b828c016139c8565b965050606089013567ffffffffffffffff8111156141d6576141d5613944565b5b6141e28b828c01613eaf565b95505060806141f38b828c01613f01565b94505060a06142048b828c01613a02565b93505060c06142158b828c01613f2d565b92505060e06142268b828c01613f01565b9150509295985092959890939650565b61423f816139dd565b82525050565b600060208201905061425a6000830184614236565b92915050565b600067ffffffffffffffff82111561427b5761427a613db2565b5b602082029050602081019050919050565b600080fd5b60006142a461429f84614260565b613e12565b905080838252602082019050602084028301858111156142c7576142c661428c565b5b835b818110156142f057806142dc8882613b4c565b8452602084019350506020810190506142c9565b5050509392505050565b600082601f83011261430f5761430e613d97565b5b813561431f848260208601614291565b91505092915050565b600080600080600080600060e0888a0312156143475761434661393f565b5b60006143558a828b01613992565b97505060206143668a828b016139c8565b965050604088013567ffffffffffffffff81111561438757614386613944565b5b6143938a828b01613eaf565b95505060606143a48a828b01613f01565b94505060806143b58a828b01613a02565b93505060a088013567ffffffffffffffff8111156143d6576143d5613944565b5b6143e28a828b016142fa565b92505060c06143f38a828b01613b4c565b91505092959891949750929550565b600082825260208201905092915050565b7f4964656e7469747953746f726167650000000000000000000000000000000000600082015250565b6000614449600f83614402565b915061445482614413565b602082019050919050565b600060208201905081810360008301526144788161443c565b9050919050565b60008151905061448e8161397b565b92915050565b6000602082840312156144aa576144a961393f565b5b60006144b88482850161447f565b91505092915050565b6144ca81613969565b82525050565b60006020820190506144e560008301846144c1565b92915050565b6000815190506144fa81613f16565b92915050565b6000602082840312156145165761451561393f565b5b6000614524848285016144eb565b91505092915050565b60008151905061453c816139b1565b92915050565b6000602082840312156145585761455761393f565b5b60006145668482850161452d565b91505092915050565b7f4e487b7100000000000000000000000000000000000000000000000000000000600052601160045260246000fd5b60006145a9826139a7565b91506145b4836139a7565b9250828210156145c7576145c661456f565b5b828203905092915050565b60006040820190506145e76000830185613a83565b6145f46020830184613a83565b9392505050565b60008151905061460a81613b35565b92915050565b6000602082840312156146265761462561393f565b5b6000614634848285016145fb565b91505092915050565b7f417373657274696f6e5265676973747279000000000000000000000000000000600082015250565b6000614673601183614402565b915061467e8261463d565b602082019050919050565b600060208201905081810360008301526146a281614666565b9050919050565b60006020820190506146be6000830184613a74565b92915050565b60008160f01b9050919050565b60006146dc826146c4565b9050919050565b6146f46146ef826139dd565b6146d1565b82525050565b60008160a01b9050919050565b6000614712826146fa565b9050919050565b61472a61472582613b8e565b614707565b82525050565b600061473c82856146e3565b60028201915061474c8284614719565b600c820191508190509392505050565b600081519050919050565b600081905092915050565b60005b83811015614790578082015181840152602081019050614775565b8381111561479f576000848401525b50505050565b60006147b08261475c565b6147ba8185614767565b93506147ca818560208601614772565b80840191505092915050565b60006147e282846147a5565b915081905092915050565b7f4e487b7100000000000000000000000000000000000000000000000000000000600052601260045260246000fd5b6000614827826139a7565b9150614832836139a7565b925082614842576148416147ed565b5b828206905092915050565b7f506172616d657465727353746f72616765000000000000000000000000000000600082015250565b6000614883601183614402565b915061488e8261484d565b602082019050919050565b600060208201905081810360008301526148b281614876565b9050919050565b600065ffffffffffff82169050919050565b6148d4816148b9565b81146148df57600080fd5b50565b6000815190506148f1816148cb565b92915050565b60006020828403121561490d5761490c61393f565b5b600061491b848285016148e2565b91505092915050565b7f4e487b7100000000000000000000000000000000000000000000000000000000600052603260045260246000fd5b6000819050919050565b61496e61496982613a6a565b614953565b82525050565b6000614980828661495d565b60208201915061499082856146e3565b6002820191506149a08284614719565b600c82019150819050949350505050565b60006149bc82613edd565b915060ff82036149cf576149ce61456f565b5b600182019050919050565b6149e3816140ee565b81146149ee57600080fd5b50565b600081519050614a00816149da565b92915050565b600060208284031215614a1c57614a1b61393f565b5b6000614a2a848285016149f1565b91505092915050565b7f46756e6374696f6e2063616e206f6e6c792062652063616c6c6564206279204160008201527f73736574205479706520436f6e74726163747300000000000000000000000000602082015250565b6000614a8f603383614402565b9150614a9a82614a33565b604082019050919050565b60006020820190508181036000830152614abe81614a82565b9050919050565b7f546f6b656e000000000000000000000000000000000000000000000000000000600082015250565b6000614afb600583614402565b9150614b0682614ac5565b602082019050919050565b60006020820190508181036000830152614b2a81614aee565b9050919050565b6000614b3c82613b8e565b9150614b4783613b8e565b925082821015614b5a57614b5961456f565b5b828203905092915050565b6000604082019050614b7a60008301856144c1565b614b8760208301846144c1565b9392505050565b7f53656e64657220616c6c6f77616e6365206d75737420626520657175616c207460008201527f6f206f7220686967686572207468616e2063686f73656e20616d6f756e742100602082015250565b6000614bea603f83614402565b9150614bf582614b8e565b604082019050919050565b60006020820190508181036000830152614c1981614bdd565b9050919050565b7f53656e6465722062616c616e6365206d75737420626520657175616c20746f2060008201527f6f7220686967686572207468616e2063686f73656e20616d6f756e7421000000602082015250565b6000614c7c603d83614402565b9150614c8782614c20565b604082019050919050565b60006020820190508181036000830152614cab81614c6f565b9050919050565b6000614ccd614cc8614cc384613b8e565b613abb565b6139a7565b9050919050565b614cdd81614cb2565b82525050565b6000606082019050614cf860008301866144c1565b614d0560208301856144c1565b614d126040830184614cd4565b949350505050565b600082825260208201905092915050565b6000614d368261475c565b614d408185614d1a565b9350614d50818560208601614772565b614d5981613da1565b840191505092915050565b60006080820190508181036000830152614d7e8187614d2b565b9050614d8d60208301866140a9565b614d9a6040830185614236565b614da76060830184613ba6565b95945050505050565b7f436f6d6d69742077696e646f7720697320636c6f736564210000000000000000600082015250565b6000614de6601883614402565b9150614df182614db0565b602082019050919050565b60006020820190508181036000830152614e1581614dd9565b9050919050565b7f50726f66696c6553746f72616765000000000000000000000000000000000000600082015250565b6000614e52600e83614402565b9150614e5d82614e1c565b602082019050919050565b60006020820190508181036000830152614e8181614e45565b9050919050565b7f53636f72696e6750726f78790000000000000000000000000000000000000000600082015250565b6000614ebe600c83614402565b9150614ec982614e88565b602082019050919050565b60006020820190508181036000830152614eed81614eb1565b9050919050565b6000614f07614f0284613e2d565b613e12565b905082815260208101848484011115614f2357614f22613d9c565b5b614f2e848285614772565b509392505050565b600082601f830112614f4b57614f4a613d97565b5b8151614f5b848260208601614ef4565b91505092915050565b600060208284031215614f7a57614f7961393f565b5b600082015167ffffffffffffffff811115614f9857614f97613944565b5b614fa484828501614f36565b91505092915050565b600060a082019050614fc260008301886140a9565b614fcf60208301876140a9565b8181036040830152614fe18186614d2b565b90508181036060830152614ff58185614d2b565b90506150046080830184613ba6565b9695505050505050565b61501781613c91565b811461502257600080fd5b50565b6000815190506150348161500e565b92915050565b6000602082840312156150505761504f61393f565b5b600061505e84828501615025565b91505092915050565b61507081613c91565b82525050565b600060808201905081810360008301526150908187614d2b565b905061509f60208301866140a9565b81810360408301526150b18185614d2b565b90506150c06060830184615067565b95945050505050565b60006150d482613bd0565b91506150df83613bd0565b9250816fffffffffffffffffffffffffffffffff04831182151516156151085761510761456f565b5b828202905092915050565b600061511e82613bd0565b915061512983613bd0565b925082615139576151386147ed565b5b828204905092915050565b60008151905061515381613eea565b92915050565b60006020828403121561516f5761516e61393f565b5b600061517d84828501615144565b91505092915050565b6000615191826139a7565b915061519c836139a7565b9250827fffffffffffffffffffffffffffffffffffffffffffffffffffffffffffffffff038211156151d1576151d061456f565b5b828201905092915050565b600060c08201905081810360008301526151f68189614d2b565b905061520560208301886140a9565b6152126040830187613a83565b61521f6060830186614236565b61522c6080830185613bec565b61523960a0830184613ba6565b979650505050505050565b600081519050615253816139eb565b92915050565b60006020828403121561526f5761526e61393f565b5b600061527d84828501615244565b91505092915050565b7f50726f6f662077696e646f77206973206f70656e000000000000000000000000600082015250565b60006152bc601483614402565b91506152c782615286565b602082019050919050565b600060208201905081810360008301526152eb816152af565b9050919050565b7f596f75277665206265656e20616c726561647920726577617264656420696e2060008201527f746869732065706f636800000000000000000000000000000000000000000000602082015250565b600061534e602a83614402565b9150615359826152f2565b604082019050919050565b6000602082019050818103600083015261537d81615341565b9050919050565b600061538f82613c91565b915063ffffffff82036153a5576153a461456f565b5b600182019050919050565b7f596f7572206e6f6465206861736e2774206265656e206177617264656420666f60008201527f72207468697320617373657420696e20746869732065706f6368000000000000602082015250565b600061540c603a83614402565b9150615417826153b0565b604082019050919050565b6000602082019050818103600083015261543b816153ff565b9050919050565b6000819050919050565b61545d615458826139a7565b615442565b82525050565b600061546f828561495d565b60208201915061547f828461544c565b6020820191508190509392505050565b7f526f6f74206861736820646f65736e2774206d61746368000000000000000000600082015250565b60006154c5601783614402565b91506154d08261548f565b602082019050919050565b600060208201905081810360008301526154f4816154b8565b9050919050565b600061550682613c91565b915061551183613c91565b9250828210156155245761552361456f565b5b828203905092915050565b600061553a826139dd565b9150615545836139dd565b9250828210156155585761555761456f565b5b828203905092915050565b600061556e826139dd565b9150615579836139dd565b92508261ffff038211156155905761558f61456f565b5b828201905092915050565b60006155a682613b8e565b91506155b183613b8e565b9250826155c1576155c06147ed565b5b828204905092915050565b60006040820190506155e160008301856144c1565b6155ee6020830184614cd4565b9392505050565b600061560082613b8e565b915061560b83613b8e565b9250826bffffffffffffffffffffffff0382111561562c5761562b61456f565b5b828201905092915050565b600060408201905061564c6000830185613ba6565b6156596020830184613ba6565b9392505050565b600061566b82613c91565b915061567683613c91565b92508263ffffffff0382111561568f5761568e61456f565b5b828201905092915050565b7f48617368696e6750726f78790000000000000000000000000000000000000000600082015250565b60006156d0600c83614402565b91506156db8261569a565b602082019050919050565b600060208201905081810360008301526156ff816156c3565b9050919050565b60008160601b9050919050565b600061571e82615706565b9050919050565b600061573082615713565b9050919050565b61574861574382613969565b615725565b82525050565b600061575a8286615737565b60148201915061576a828561544c565b60208201915061577a82846147a5565b9150819050949350505050565b600060408201905061579c60008301856140a9565b81810360208301526157ae8184614d2b565b90509392505050565b7f53636f7265206f662074686520636f6d6d6974206d757374206265206869676860008201527f65722074686174207468652073636f7265206f6620746865206865616420696e60208201527f206f7264657220746f207265706c616365206974210000000000000000000000604082015250565b6000615839605583614402565b9150615844826157b7565b606082019050919050565b600060208201905081810360008301526158688161582c565b9050919050565b7f53636f7265206f662074686520636f6d6d6974206d757374206265206c65737360008201527f206f7220657175616c20746f20746865206f6e6520796f752077616e7420696e60208201527f7365727420616674657221000000000000000000000000000000000000000000604082015250565b60006158f1604b83614402565b91506158fc8261586f565b606082019050919050565b60006020820190508181036000830152615920816158e4565b9050919050565b7f53636f7265206f662074686520636f6d6d6974206d757374206265206772656160008201527f746572206f7220657175616c20746f20746865206f6e6520796f752077616e7460208201527f20696e73657274206265666f7265210000000000000000000000000000000000604082015250565b60006159a9604f83614402565b91506159b482615927565b606082019050919050565b600060208201905081810360008301526159d88161599c565b9050919050565b6159e881613bd0565b81146159f357600080fd5b50565b600081519050615a05816159df565b92915050565b600060208284031215615a2157615a2061393f565b5b6000615a2f848285016159f6565b91505092915050565b6000615a4382613edd565b9150615a4e83613edd565b925082821015615a6157615a6061456f565b5b828203905092915050565b6000615a7782613edd565b9150615a8283613edd565b92508260ff03821115615a9857615a9761456f565b5b828201905092915050565b6000615aaf828661544c565b602082019150615abf8285615737565b601482019150615acf828461544c565b602082019150819050949350505050565b6000615aeb826139a7565b91507fffffffffffffffffffffffffffffffffffffffffffffffffffffffffffffffff8203615b1d57615b1c61456f565b5b60018201905091905056fea2646970667358221220cb20a3516248c8b46e1e78a0cfe0e3fabfc2f331a65ffb4a9a67f760e4ab523564736f6c634300080e0033",
  "immutableReferences": {},
  "source": "// SPDX-License-Identifier: MIT\n\npragma solidity ^0.8.0;\n\nimport { AbstractAsset } from \"../assets/AbstractAsset.sol\";\nimport { AssertionRegistry } from \"../AssertionRegistry.sol\";\nimport { HashingProxy } from \"../HashingProxy.sol\";\nimport { Hub } from \"../Hub.sol\";\nimport { IdentityStorage } from \"./IdentityStorage.sol\";\nimport { IERC20 } from \"@openzeppelin/contracts/token/ERC20/IERC20.sol\";\nimport { MerkleProof } from \"@openzeppelin/contracts/utils/cryptography/MerkleProof.sol\";\nimport { ParametersStorage } from \"./ParametersStorage.sol\";\nimport { ProfileStorage } from \"./ProfileStorage.sol\";\nimport { ScoringProxy } from \"../ScoringProxy.sol\";\nimport { ShardingTable } from \"../ShardingTable.sol\";\n\ncontract ServiceAgreementStorage {\n    event ServiceAgreementCreated(\n        address indexed assetContract,\n        uint256 indexed tokenId,\n        bytes keyword,\n        uint8 hashFunctionId,\n        uint256 startTime,\n        uint16 epochsNumber,\n        uint128 epochLength,\n        uint96 tokenAmount\n    );\n    event ServiceAgreementUpdated(\n        address indexed assetContract,\n        uint256 indexed tokenId,\n        bytes keyword,\n        uint8 hashFunctionId,\n        uint16 epochsNumber,\n        uint96 tokenAmount\n    );\n    event CommitSubmitted(\n        address indexed assetContract,\n        uint256 indexed tokenId,\n        bytes keyword,\n        uint8 hashFunctionId,\n        uint96 indexed identityId,\n        bytes nodeId,\n        uint32 score\n    );\n    event ProofSubmitted(\n        address indexed assetContract,\n        uint256 indexed tokenId,\n        bytes keyword,\n        uint8 hashFunctionId,\n        uint96 indexed identityId,\n        bytes nodeId\n    );\n\n\n    struct CommitSubmission {\n        uint96 identityId;\n        uint96 nextIdentity;\n        uint32 score;\n    }\n\n    struct ServiceAgreement {\n        uint256 startTime;\n        uint16 epochsNumber;\n        uint128 epochLength;\n        uint96 tokenAmount;\n        uint8 scoreFunctionId;\n        uint8 proofWindowOffsetPerc;  // Perc == In % of the epoch\n        mapping(uint16 => bytes32) epochSubmissionHeads;  // epoch => headCommitId\n        mapping(uint16 => uint32) rewardedNodes;\n    }\n\n    Hub public hub;\n\n    // CommitId [keccak256(agreementId + epoch + identityId)] => CommitSubmission\n    mapping(bytes32 => CommitSubmission) commitSubmissions;\n\n    // hash(asset type contract + tokenId + key) -> ServiceAgreement\n    mapping(bytes32 => ServiceAgreement) serviceAgreements;\n\n    constructor (address hubAddress) {\n        require(hubAddress != address(0));\n        hub = Hub(hubAddress);\n    }\n\n    modifier onlyAssetContracts() {\n        require (\n            hub.isAssetContract(msg.sender),\n            \"Function can only be called by Asset Type Contracts\"\n        );\n        _;\n    }\n\n    function getAgreementStartTime(bytes32 agreementId) public view returns (uint256) {\n        return serviceAgreements[agreementId].startTime;\n    }\n\n    function getAgreementEpochsNumber(bytes32 agreementId) public view returns (uint16) {\n        return serviceAgreements[agreementId].epochsNumber;\n    }\n\n    function getAgreementEpochLength(bytes32 agreementId) public view returns (uint128) {\n        return serviceAgreements[agreementId].epochLength;\n    }\n\n    function getAgreementTokenAmount(bytes32 agreementId) public view returns (uint96) {\n        return serviceAgreements[agreementId].tokenAmount;\n    }\n\n    function getAgreementScoreFunctionId(bytes32 agreementId) public view returns (uint8) {\n        return serviceAgreements[agreementId].scoreFunctionId;\n    }\n\n    function getAgreementProofWindowOffsetPerc(bytes32 agreementId) public view returns (uint8) {\n        return serviceAgreements[agreementId].proofWindowOffsetPerc;\n    }\n\n    function createServiceAgreement(\n        address operationalWallet,\n        address assetContract,\n        uint256 tokenId,\n        bytes memory keyword,\n        uint8 hashFunctionId,\n        uint16 epochsNumber,\n        uint96 tokenAmount,\n        uint8 scoreFunctionId\n    )\n        public\n        onlyAssetContracts\n    {\n        bytes32 agreementId = _generateAgreementId(assetContract, tokenId, keyword, hashFunctionId);\n\n        _createServiceAgreementObject(operationalWallet, agreementId, epochsNumber, tokenAmount, scoreFunctionId);\n\n        IERC20 tokenContract = IERC20(hub.getContractAddress(\"Token\"));\n        require(\n            tokenContract.allowance(operationalWallet, address(this)) >= tokenAmount,\n            \"Sender allowance must be equal to or higher than chosen amount!\"\n        );\n        require(\n            tokenContract.balanceOf(operationalWallet) >= tokenAmount,\n            \"Sender balance must be equal to or higher than chosen amount!\"\n        );\n\n        tokenContract.transferFrom(operationalWallet, address(this), tokenAmount);\n\n        emit ServiceAgreementCreated(\n            assetContract,\n            tokenId,\n            keyword,\n            hashFunctionId,\n            serviceAgreements[agreementId].startTime,\n            serviceAgreements[agreementId].epochsNumber,\n            serviceAgreements[agreementId].epochLength,\n            serviceAgreements[agreementId].tokenAmount\n        );\n    }\n\n    // TODO: Split into smaller functions\n    function updateServiceAgreement(\n        address operationalWallet,\n        address assetContract,\n        uint256 tokenId,\n        bytes memory keyword,\n        uint8 hashFunctionId,\n        uint16 epochsNumber,\n        uint96 tokenAmount\n    )\n        public\n        onlyAssetContracts\n    {\n        bytes32 agreementId = _generateAgreementId(assetContract, tokenId, keyword, hashFunctionId);\n\n        // require(serviceAgreements[agreementId]);\n\n        uint96 actualBalance = serviceAgreements[agreementId].tokenAmount;\n\n        serviceAgreements[agreementId].epochsNumber = epochsNumber;\n        serviceAgreements[agreementId].tokenAmount = tokenAmount;\n\n        IERC20 tokenContract = IERC20(hub.getContractAddress(\"Token\"));\n        require(\n            tokenContract.allowance(operationalWallet, address(this)) >= (actualBalance - tokenAmount),\n            \"Sender allowance must be equal to or higher than chosen amount!\"\n        );\n        require(\n            tokenContract.balanceOf(operationalWallet) >= (actualBalance - tokenAmount),\n            \"Sender balance must be equal to or higher than chosen amount!\"\n        );\n\n        tokenContract.transferFrom(operationalWallet, address(this), actualBalance - tokenAmount);\n\n        emit ServiceAgreementUpdated(\n            assetContract,\n            tokenId,\n            keyword,\n            hashFunctionId,\n            serviceAgreements[agreementId].epochsNumber,\n            serviceAgreements[agreementId].tokenAmount\n        );\n    }\n\n    function isCommitWindowOpen(bytes32 agreementId, uint16 epoch)\n        public\n        view\n        returns (bool)\n    {\n        uint256 timeNow = block.timestamp;\n        ServiceAgreement storage agreement = serviceAgreements[agreementId];\n\n        ParametersStorage parametersStorage = ParametersStorage(hub.getContractAddress(\"ParametersStorage\"));\n\n        return (\n            timeNow > (agreement.startTime + agreement.epochLength * epoch) &&\n            timeNow < (agreement.startTime + agreement.epochLength * epoch + parametersStorage.commitWindowDuration())\n        );\n    }\n\n    function getCommitSubmissions(bytes32 agreementId, uint16 epoch)\n        public\n        view\n        returns (CommitSubmission[] memory)\n    {\n        ParametersStorage parametersStorage = ParametersStorage(hub.getContractAddress(\"ParametersStorage\"));\n        CommitSubmission[] memory epochCommits = new CommitSubmission[](parametersStorage.R2());\n\n        bytes32 epochSubmissionsHead = serviceAgreements[agreementId].epochSubmissionHeads[epoch];\n\n        uint8 submissionsIdx = 0;\n\n        epochCommits[submissionsIdx] = commitSubmissions[epochSubmissionsHead];\n\n        uint96 nextIdentityId = commitSubmissions[epochSubmissionsHead].nextIdentity;\n        while(nextIdentityId != 0) {\n            bytes32 commitId = keccak256(abi.encodePacked(agreementId, epoch, nextIdentityId));\n\n            CommitSubmission memory commit = commitSubmissions[commitId];\n            submissionsIdx++;\n            epochCommits[submissionsIdx] = commit;\n\n            nextIdentityId = commit.nextIdentity;\n        }\n\n        return epochCommits;\n    }\n\n    function submitCommit(\n        address assetContract,\n        uint256 tokenId,\n        bytes memory keyword,\n        uint8 hashFunctionId,\n        uint16 epoch,\n        uint96 prevIdentityId\n    )\n        public\n    {\n        bytes32 agreementId = _generateAgreementId(assetContract, tokenId, keyword, hashFunctionId);\n\n        require(isCommitWindowOpen(agreementId, epoch), \"Commit window is closed!\");\n\n        IdentityStorage identityStorage = IdentityStorage(hub.getContractAddress(\"IdentityStorage\"));\n        uint96 identityId = identityStorage.getIdentityId(msg.sender);\n\n        ProfileStorage profileStorage = ProfileStorage(hub.getContractAddress(\"ProfileStorage\"));\n\n        ScoringProxy scoringProxy = ScoringProxy(hub.getContractAddress(\"ScoringProxy\"));\n        uint32 score = scoringProxy.callScoreFunction(\n            serviceAgreements[agreementId].scoreFunctionId,\n            hashFunctionId,\n            profileStorage.getNodeId(identityId),\n            keyword,\n            profileStorage.getStake(identityId)\n        );\n\n        _insertCommitAfter(\n            agreementId,\n            epoch,\n            prevIdentityId,\n            CommitSubmission({\n                identityId: identityId,\n                nextIdentity: 0,\n                score: score\n            })\n        );\n\n        emit CommitSubmitted(\n            assetContract,\n            tokenId,\n            keyword,\n            hashFunctionId,\n            identityId,\n            profileStorage.getNodeId(identityId),\n            score\n        );\n    }\n\n    function isProofWindowOpen(bytes32 agreementId, uint16 epoch)\n        public\n        view\n        returns (bool)\n    {\n        uint256 timeNow = block.timestamp;\n        ServiceAgreement storage agreement = serviceAgreements[agreementId];\n\n        ParametersStorage parametersStorage = ParametersStorage(hub.getContractAddress(\"ParametersStorage\"));\n\n        uint256 proofWindowOffset = agreement.epochLength * agreement.epochsNumber * agreement.proofWindowOffsetPerc / 100;\n        uint256 proofWindowDuration = (\n            agreement.epochLength * agreement.epochsNumber * parametersStorage.proofWindowDurationPerc() / 100\n        );\n\n        return (\n            timeNow > (agreement.startTime + agreement.epochLength * epoch + proofWindowOffset) &&\n            timeNow < (agreement.startTime + agreement.epochLength * epoch + proofWindowOffset + proofWindowDuration)\n        );\n    }\n\n    function getChallenge(address assetContract, uint256 tokenId, uint16 epoch)\n        public\n        view\n        returns (bytes32, uint256)\n    {\n        IdentityStorage identityStorage = IdentityStorage(hub.getContractAddress(\"IdentityStorage\"));\n        uint96 identityId = identityStorage.getIdentityId(msg.sender);\n\n        AbstractAsset generalAssetInterface = AbstractAsset(assetContract);\n        bytes32 assertionId = generalAssetInterface.getAssertionByIndex(\n            tokenId,\n            AbstractAsset(assetContract).getAssertionsLength(tokenId) - 1\n        );\n\n        AssertionRegistry assertionRegistry = AssertionRegistry(hub.getContractAddress(\"AssertionRegistry\"));\n        uint256 assertionChunksNumber = assertionRegistry.getChunksNumber(assertionId);\n\n        // blockchash() function only works for last 256 blocks (25.6 min window in case of 6s block time)\n        // TODO: figure out how to achieve randomness\n        return (\n            assertionId,\n            uint256(\n                sha256(abi.encodePacked(epoch, identityId))\n            ) % assertionChunksNumber\n        );\n    }\n\n    function sendProof(\n        address assetContract,\n        uint256 tokenId,\n        bytes memory keyword,\n        uint8 hashFunctionId,\n        uint16 epoch,\n        bytes32[] memory proof,\n        bytes32 chunkHash\n    )\n        public\n    {\n        bytes32 agreementId = _generateAgreementId(assetContract, tokenId, keyword, hashFunctionId);\n        require(!isProofWindowOpen(agreementId, epoch), \"Proof window is open\");\n\n        uint96 identityId = IdentityStorage(hub.getContractAddress(\"IdentityStorage\")).getIdentityId(msg.sender);\n\n        require(\n            commitSubmissions[keccak256(abi.encodePacked(agreementId, epoch, identityId))].score != 0,\n            \"You've been already rewarded in this epoch\"\n        );\n\n        bytes32 nextCommitId = serviceAgreements[agreementId].epochSubmissionHeads[epoch];\n\n        ParametersStorage parametersStorage = ParametersStorage(hub.getContractAddress(\"ParametersStorage\"));\n\n        uint32 i = 0;\n        while ((identityId != commitSubmissions[nextCommitId].identityId) || (i != parametersStorage.R0())) {\n            nextCommitId = keccak256(\n                abi.encodePacked(agreementId, epoch, commitSubmissions[nextCommitId].nextIdentity)\n            );\n            i++;\n        }\n\n        require(i < parametersStorage.R0(), \"Your node hasn't been awarded for this asset in this epoch\");\n\n        bytes32 merkleRoot;\n        uint256 challenge;\n        (merkleRoot, challenge) = getChallenge(assetContract, tokenId, epoch);\n\n        require(\n            MerkleProof.verify(\n                proof,\n                merkleRoot,\n                keccak256(abi.encodePacked(chunkHash, challenge))\n            ),\n            \"Root hash doesn't match\"\n        );\n\n        ProfileStorage profileStorage = ProfileStorage(hub.getContractAddress(\"ProfileStorage\"));\n\n        // emit ProofSubmitted(\n        //     assetContract,\n        //     tokenId,\n        //     keyword,\n        //     hashFunctionId,\n        //     identityId,\n        //     profileStorage.getNodeId(identityId)\n        // );\n\n        uint96 reward = (\n            serviceAgreements[agreementId].tokenAmount /\n            (serviceAgreements[agreementId].epochsNumber - epoch + 1) /\n            (parametersStorage.R0() - serviceAgreements[agreementId].rewardedNodes[epoch])\n        );\n\n        IERC20(hub.getContractAddress(\"Token\")).transfer(address(profileStorage), reward);\n\n        profileStorage.setReward(identityId, profileStorage.getReward(identityId) + reward);\n\n        serviceAgreements[agreementId].tokenAmount -= reward;\n        serviceAgreements[agreementId].rewardedNodes[epoch] += 1;\n\n        // To make sure that node already received reward\n        commitSubmissions[keccak256(abi.encodePacked(agreementId, epoch, identityId))].score = 0;\n    }\n\n    function setScoringFunction(bytes32 agreementId, uint8 newScoreFunctionId)\n        public\n        onlyAssetContracts\n    {\n        serviceAgreements[agreementId].scoreFunctionId = newScoreFunctionId;\n    }        \n\n    function _createServiceAgreementObject(\n        address operationalWallet,\n        bytes32 agreementId,\n        uint16 epochsNumber,\n        uint96 tokenAmount,\n        uint8 scoreFunctionId\n    )\n        private\n    {\n        ParametersStorage parametersStorage = ParametersStorage(hub.getContractAddress(\"ParametersStorage\"));\n\n        ServiceAgreement storage agreement = serviceAgreements[agreementId];\n        agreement.startTime = block.timestamp;\n        agreement.epochsNumber = epochsNumber;\n        agreement.epochLength = parametersStorage.epochLength();\n        agreement.proofWindowOffsetPerc = parametersStorage.minProofWindowOffsetPerc() + _generatePseudorandomUint8(\n            operationalWallet,\n            parametersStorage.maxProofWindowOffsetPerc() - parametersStorage.minProofWindowOffsetPerc() + 1\n        );\n        agreement.tokenAmount = tokenAmount;\n        agreement.scoreFunctionId = scoreFunctionId;\n    }\n\n    function _insertCommitAfter(bytes32 agreementId, uint16 epoch, uint96 prevIdentityId, CommitSubmission memory commit)\n        private\n    {\n        bytes32 commitId = keccak256(abi.encodePacked(agreementId, epoch, commit.identityId));\n\n        // Replacing head\n        if (prevIdentityId == 0) {\n            bytes32 epochSubmissionsHead = serviceAgreements[agreementId].epochSubmissionHeads[epoch];\n\n            uint96 prevHeadIdentityId = 0;\n            if(epochSubmissionsHead != \"\") {\n                CommitSubmission memory commitHead = commitSubmissions[epochSubmissionsHead];\n                prevHeadIdentityId = commitHead.identityId;\n\n                require(\n                    commit.score > commitHead.score,\n                    \"Score of the commit must be higher that the score of the head in order to replace it!\"\n                );\n            }\n\n            serviceAgreements[agreementId].epochSubmissionHeads[epoch] = commitId;\n            commitSubmissions[commitId] = commit;\n            _link_commits(agreementId, epoch, commit.identityId, prevHeadIdentityId);\n        }\n        else {\n            bytes32 prevCommitId = keccak256(abi.encodePacked(agreementId, epoch, prevIdentityId));\n            CommitSubmission memory prevCommit = commitSubmissions[prevCommitId];\n\n            require(\n                commit.score <= prevCommit.score,\n                \"Score of the commit must be less or equal to the one you want insert after!\"\n            );\n\n            uint96 nextIdentityId = prevCommit.nextIdentity;\n            if (nextIdentityId != 0) {\n                bytes32 nextCommitId = keccak256(abi.encodePacked(agreementId, epoch, nextIdentityId));\n                CommitSubmission memory nextCommit = commitSubmissions[nextCommitId];\n\n                require(\n                    commit.score >= nextCommit.score,\n                    \"Score of the commit must be greater or equal to the one you want insert before!\"\n                );\n            }\n\n            commitSubmissions[commitId] = commit;\n            _link_commits(agreementId, epoch, prevIdentityId, commit.identityId);\n            _link_commits(agreementId, epoch, commit.identityId, nextIdentityId);\n        }\n    }\n\n    function _link_commits(bytes32 agreementId, uint16 epoch, uint96 leftIdentityId, uint96 rightIdentityId)\n        private\n    {\n        bytes32 leftCommitId = keccak256(abi.encodePacked(agreementId, epoch, leftIdentityId));\n        commitSubmissions[leftCommitId].nextIdentity = rightIdentityId;\n    }\n\n    function _generateAgreementId(address assetContract, uint256 tokenId, bytes memory keyword, uint8 hashFunctionId)\n        private\n        returns (bytes32)\n    {\n        HashingProxy hashingProxy = HashingProxy(hub.getContractAddress(\"HashingProxy\"));\n        return hashingProxy.callHashFunction(hashFunctionId, abi.encodePacked(assetContract, tokenId, keyword));\n    }\n\n    function _generatePseudorandomUint8(address sender, uint8 limit)\n        private\n        view\n        returns (uint8)\n    {\n        // TODO: Test type conversion\n        return uint8(uint256(keccak256(abi.encodePacked(block.timestamp, sender, block.number))) % limit);\n    }\n}\n",
  "sourcePath": "/Users/waving/Desktop/OriginTrail/dkg-evm-module/contracts/storage/ServiceAgreementStorage.sol",
  "compiler": {
    "name": "solc",
    "version": "0.8.14+commit.80d49f37.Emscripten.clang"
  },
  "schemaVersion": "3.4.10",
  "updatedAt": "2022-11-21T10:31:02.704Z",
  "devdoc": {
    "kind": "dev",
    "methods": {},
    "version": 1
  },
  "userdoc": {
    "kind": "user",
    "methods": {},
    "version": 1
  }
}