{
  "contractName": "ServiceAgreementStorage",
  "abi": [
    {
      "inputs": [
        {
          "internalType": "address",
          "name": "hubAddress",
          "type": "address"
        }
      ],
      "stateMutability": "nonpayable",
      "type": "constructor"
    },
    {
      "anonymous": false,
      "inputs": [
        {
          "indexed": true,
          "internalType": "address",
          "name": "assetContract",
          "type": "address"
        },
        {
          "indexed": true,
          "internalType": "uint256",
          "name": "tokenId",
          "type": "uint256"
        },
        {
          "indexed": false,
          "internalType": "bytes",
          "name": "keyword",
          "type": "bytes"
        },
        {
          "indexed": false,
          "internalType": "uint8",
          "name": "hashFunctionId",
          "type": "uint8"
        },
        {
          "indexed": true,
          "internalType": "uint72",
          "name": "identityId",
          "type": "uint72"
        },
        {
          "indexed": false,
          "internalType": "bytes",
          "name": "nodeId",
          "type": "bytes"
        },
        {
          "indexed": false,
          "internalType": "uint40",
          "name": "score",
          "type": "uint40"
        }
      ],
      "name": "CommitSubmitted",
      "type": "event"
    },
    {
      "anonymous": false,
      "inputs": [
        {
          "indexed": true,
          "internalType": "address",
          "name": "assetContract",
          "type": "address"
        },
        {
          "indexed": true,
          "internalType": "uint256",
          "name": "tokenId",
          "type": "uint256"
        },
        {
          "indexed": false,
          "internalType": "bytes",
          "name": "keyword",
          "type": "bytes"
        },
        {
          "indexed": false,
          "internalType": "uint8",
          "name": "hashFunctionId",
          "type": "uint8"
        },
        {
          "indexed": true,
          "internalType": "uint72",
          "name": "identityId",
          "type": "uint72"
        },
        {
          "indexed": false,
          "internalType": "bytes",
          "name": "nodeId",
          "type": "bytes"
        }
      ],
      "name": "ProofSubmitted",
      "type": "event"
    },
    {
      "anonymous": false,
      "inputs": [
        {
          "indexed": true,
          "internalType": "address",
          "name": "assetContract",
          "type": "address"
        },
        {
          "indexed": true,
          "internalType": "uint256",
          "name": "tokenId",
          "type": "uint256"
        },
        {
          "indexed": false,
          "internalType": "bytes",
          "name": "keyword",
          "type": "bytes"
        },
        {
          "indexed": false,
          "internalType": "uint8",
          "name": "hashFunctionId",
          "type": "uint8"
        },
        {
          "indexed": false,
          "internalType": "uint256",
          "name": "startTime",
          "type": "uint256"
        },
        {
          "indexed": false,
          "internalType": "uint16",
          "name": "epochsNumber",
          "type": "uint16"
        },
        {
          "indexed": false,
          "internalType": "uint128",
          "name": "epochLength",
          "type": "uint128"
        },
        {
          "indexed": false,
          "internalType": "uint96",
          "name": "tokenAmount",
          "type": "uint96"
        }
      ],
      "name": "ServiceAgreementCreated",
      "type": "event"
    },
    {
      "anonymous": false,
      "inputs": [
        {
          "indexed": true,
          "internalType": "address",
          "name": "assetContract",
          "type": "address"
        },
        {
          "indexed": true,
          "internalType": "uint256",
          "name": "tokenId",
          "type": "uint256"
        },
        {
          "indexed": false,
          "internalType": "bytes",
          "name": "keyword",
          "type": "bytes"
        },
        {
          "indexed": false,
          "internalType": "uint8",
          "name": "hashFunctionId",
          "type": "uint8"
        },
        {
          "indexed": false,
          "internalType": "uint16",
          "name": "epochsNumber",
          "type": "uint16"
        },
        {
          "indexed": false,
          "internalType": "uint96",
          "name": "tokenAmount",
          "type": "uint96"
        }
      ],
      "name": "ServiceAgreementUpdated",
      "type": "event"
    },
    {
      "inputs": [],
      "name": "hub",
      "outputs": [
        {
          "internalType": "contract Hub",
          "name": "",
          "type": "address"
        }
      ],
      "stateMutability": "view",
      "type": "function"
    },
    {
      "inputs": [
        {
          "internalType": "bytes32",
          "name": "agreementId",
          "type": "bytes32"
        }
      ],
      "name": "getAgreementData",
      "outputs": [
        {
          "internalType": "uint256",
          "name": "",
          "type": "uint256"
        },
        {
          "internalType": "uint16",
          "name": "",
          "type": "uint16"
        },
        {
          "internalType": "uint128",
          "name": "",
          "type": "uint128"
        },
        {
          "internalType": "uint96",
          "name": "",
          "type": "uint96"
        },
        {
          "internalType": "uint8",
          "name": "",
          "type": "uint8"
        },
        {
          "internalType": "uint8",
          "name": "",
          "type": "uint8"
        }
      ],
      "stateMutability": "view",
      "type": "function"
    },
    {
      "inputs": [
        {
          "internalType": "bytes32",
          "name": "agreementId",
          "type": "bytes32"
        }
      ],
      "name": "getAgreementStartTime",
      "outputs": [
        {
          "internalType": "uint256",
          "name": "",
          "type": "uint256"
        }
      ],
      "stateMutability": "view",
      "type": "function"
    },
    {
      "inputs": [
        {
          "internalType": "bytes32",
          "name": "agreementId",
          "type": "bytes32"
        }
      ],
      "name": "getAgreementEpochsNumber",
      "outputs": [
        {
          "internalType": "uint16",
          "name": "",
          "type": "uint16"
        }
      ],
      "stateMutability": "view",
      "type": "function"
    },
    {
      "inputs": [
        {
          "internalType": "bytes32",
          "name": "agreementId",
          "type": "bytes32"
        }
      ],
      "name": "getAgreementEpochLength",
      "outputs": [
        {
          "internalType": "uint128",
          "name": "",
          "type": "uint128"
        }
      ],
      "stateMutability": "view",
      "type": "function"
    },
    {
      "inputs": [
        {
          "internalType": "bytes32",
          "name": "agreementId",
          "type": "bytes32"
        }
      ],
      "name": "getAgreementTokenAmount",
      "outputs": [
        {
          "internalType": "uint96",
          "name": "",
          "type": "uint96"
        }
      ],
      "stateMutability": "view",
      "type": "function"
    },
    {
      "inputs": [
        {
          "internalType": "bytes32",
          "name": "agreementId",
          "type": "bytes32"
        }
      ],
      "name": "getAgreementScoreFunctionId",
      "outputs": [
        {
          "internalType": "uint8",
          "name": "",
          "type": "uint8"
        }
      ],
      "stateMutability": "view",
      "type": "function"
    },
    {
      "inputs": [
        {
          "internalType": "bytes32",
          "name": "agreementId",
          "type": "bytes32"
        }
      ],
      "name": "getAgreementProofWindowOffsetPerc",
      "outputs": [
        {
          "internalType": "uint8",
          "name": "",
          "type": "uint8"
        }
      ],
      "stateMutability": "view",
      "type": "function"
    },
    {
      "inputs": [
        {
          "internalType": "address",
          "name": "operationalWallet",
          "type": "address"
        },
        {
          "internalType": "address",
          "name": "assetContract",
          "type": "address"
        },
        {
          "internalType": "uint256",
          "name": "tokenId",
          "type": "uint256"
        },
        {
          "internalType": "bytes",
          "name": "keyword",
          "type": "bytes"
        },
        {
          "internalType": "uint8",
          "name": "hashFunctionId",
          "type": "uint8"
        },
        {
          "internalType": "uint16",
          "name": "epochsNumber",
          "type": "uint16"
        },
        {
          "internalType": "uint96",
          "name": "tokenAmount",
          "type": "uint96"
        },
        {
          "internalType": "uint8",
          "name": "scoreFunctionId",
          "type": "uint8"
        }
      ],
      "name": "createServiceAgreement",
      "outputs": [],
      "stateMutability": "nonpayable",
      "type": "function"
    },
    {
      "inputs": [
        {
          "internalType": "address",
          "name": "operationalWallet",
          "type": "address"
        },
        {
          "internalType": "address",
          "name": "assetContract",
          "type": "address"
        },
        {
          "internalType": "uint256",
          "name": "tokenId",
          "type": "uint256"
        },
        {
          "internalType": "bytes",
          "name": "keyword",
          "type": "bytes"
        },
        {
          "internalType": "uint8",
          "name": "hashFunctionId",
          "type": "uint8"
        },
        {
          "internalType": "uint16",
          "name": "epochsNumber",
          "type": "uint16"
        },
        {
          "internalType": "uint96",
          "name": "tokenAmount",
          "type": "uint96"
        }
      ],
      "name": "updateServiceAgreement",
      "outputs": [],
      "stateMutability": "nonpayable",
      "type": "function"
    },
    {
      "inputs": [
        {
          "internalType": "bytes32",
          "name": "agreementId",
          "type": "bytes32"
        },
        {
          "internalType": "uint16",
          "name": "epoch",
          "type": "uint16"
        }
      ],
      "name": "isCommitWindowOpen",
      "outputs": [
        {
          "internalType": "bool",
          "name": "",
          "type": "bool"
        }
      ],
      "stateMutability": "view",
      "type": "function"
    },
    {
      "inputs": [
        {
          "internalType": "bytes32",
          "name": "agreementId",
          "type": "bytes32"
        },
        {
          "internalType": "uint16",
          "name": "epoch",
          "type": "uint16"
        }
      ],
      "name": "getCommitSubmissions",
      "outputs": [
        {
          "components": [
            {
              "internalType": "uint72",
              "name": "identityId",
              "type": "uint72"
            },
            {
              "internalType": "uint72",
              "name": "prevIdentityId",
              "type": "uint72"
            },
            {
              "internalType": "uint72",
              "name": "nextIdentityId",
              "type": "uint72"
            },
            {
              "internalType": "uint40",
              "name": "score",
              "type": "uint40"
            }
          ],
          "internalType": "struct ServiceAgreementStorage.CommitSubmission[]",
          "name": "",
          "type": "tuple[]"
        }
      ],
      "stateMutability": "view",
      "type": "function"
    },
    {
      "inputs": [
        {
          "internalType": "address",
          "name": "assetContract",
          "type": "address"
        },
        {
          "internalType": "uint256",
          "name": "tokenId",
          "type": "uint256"
        },
        {
          "internalType": "bytes",
          "name": "keyword",
          "type": "bytes"
        },
        {
          "internalType": "uint8",
          "name": "hashFunctionId",
          "type": "uint8"
        },
        {
          "internalType": "uint16",
          "name": "epoch",
          "type": "uint16"
        }
      ],
      "name": "submitCommit",
      "outputs": [],
      "stateMutability": "nonpayable",
      "type": "function"
    },
    {
      "inputs": [
        {
          "internalType": "bytes32",
          "name": "agreementId",
          "type": "bytes32"
        },
        {
          "internalType": "uint16",
          "name": "epoch",
          "type": "uint16"
        }
      ],
      "name": "isProofWindowOpen",
      "outputs": [
        {
          "internalType": "bool",
          "name": "",
          "type": "bool"
        }
      ],
      "stateMutability": "view",
      "type": "function"
    },
    {
      "inputs": [
        {
          "internalType": "address",
          "name": "sender",
          "type": "address"
        },
        {
          "internalType": "address",
          "name": "assetContract",
          "type": "address"
        },
        {
          "internalType": "uint256",
          "name": "tokenId",
          "type": "uint256"
        },
        {
          "internalType": "uint16",
          "name": "epoch",
          "type": "uint16"
        }
      ],
      "name": "getChallenge",
      "outputs": [
        {
          "internalType": "bytes32",
          "name": "",
          "type": "bytes32"
        },
        {
          "internalType": "uint256",
          "name": "",
          "type": "uint256"
        }
      ],
      "stateMutability": "view",
      "type": "function"
    },
    {
      "inputs": [
        {
          "internalType": "address",
          "name": "assetContract",
          "type": "address"
        },
        {
          "internalType": "uint256",
          "name": "tokenId",
          "type": "uint256"
        },
        {
          "internalType": "bytes",
          "name": "keyword",
          "type": "bytes"
        },
        {
          "internalType": "uint8",
          "name": "hashFunctionId",
          "type": "uint8"
        },
        {
          "internalType": "uint16",
          "name": "epoch",
          "type": "uint16"
        },
        {
          "internalType": "bytes32[]",
          "name": "proof",
          "type": "bytes32[]"
        },
        {
          "internalType": "bytes32",
          "name": "chunkHash",
          "type": "bytes32"
        }
      ],
      "name": "sendProof",
      "outputs": [],
      "stateMutability": "nonpayable",
      "type": "function"
    },
    {
      "inputs": [
        {
          "internalType": "bytes32",
          "name": "agreementId",
          "type": "bytes32"
        },
        {
          "internalType": "uint8",
          "name": "newScoreFunctionId",
          "type": "uint8"
        }
      ],
      "name": "setScoringFunction",
      "outputs": [],
      "stateMutability": "nonpayable",
      "type": "function"
    }
  ],
  "bytecode": "0x60806040523480156200001157600080fd5b5060405162005d8938038062005d89833981810160405281019062000037919062000122565b600073ffffffffffffffffffffffffffffffffffffffff168173ffffffffffffffffffffffffffffffffffffffff16036200007157600080fd5b806000806101000a81548173ffffffffffffffffffffffffffffffffffffffff021916908373ffffffffffffffffffffffffffffffffffffffff1602179055505062000154565b600080fd5b600073ffffffffffffffffffffffffffffffffffffffff82169050919050565b6000620000ea82620000bd565b9050919050565b620000fc81620000dd565b81146200010857600080fd5b50565b6000815190506200011c81620000f1565b92915050565b6000602082840312156200013b576200013a620000b8565b5b60006200014b848285016200010b565b91505092915050565b615c2580620001646000396000f3fe608060405234801561001057600080fd5b506004361061010b5760003560e01c806399149f77116100a2578063be82c4e211610071578063be82c4e214610308578063becdd59714610324578063ce60dc6114610354578063d1a640c714610384578063fc348cb6146103b45761010b565b806399149f771461025c5780639c70b3c01461028c578063aa6a00fd146102bc578063b1f38350146102ec5761010b565b80634acaeac8116100de5780634acaeac8146101bf5780634fb96d50146101db57806361f14ece1461020b5780636ff015ae146102275761010b565b80630f00201614610110578063365a86fc146101415780634089a17d1461015f578063484a47e71461018f575b600080fd5b61012a60048036038101906101259190613bab565b6103d0565b604051610138929190613c3a565b60405180910390f35b61014961072d565b6040516101569190613cc2565b60405180910390f35b61017960048036038101906101749190613d09565b610751565b6040516101869190613d5d565b60405180910390f35b6101a960048036038101906101a49190613d09565b610789565b6040516101b69190613da3565b60405180910390f35b6101d960048036038101906101d49190613f3d565b6107c5565b005b6101f560048036038101906101f09190613fd4565b610d56565b604051610202919061415c565b60405180910390f35b610225600480360381019061022091906141aa565b6111a9565b005b610241600480360381019061023c9190613d09565b6116c3565b60405161025396959493929190614286565b60405180910390f35b61027660048036038101906102719190613d09565b6117c7565b60405161028391906142e7565b60405180910390f35b6102a660048036038101906102a19190613d09565b6117f4565b6040516102b39190614302565b60405180910390f35b6102d660048036038101906102d19190613fd4565b611814565b6040516102e39190614338565b60405180910390f35b61030660048036038101906103019190614353565b611b0d565b005b610322600480360381019061031d9190614393565b611c19565b005b61033e60048036038101906103399190613fd4565b6120c2565b60405161034b9190614338565b60405180910390f35b61036e60048036038101906103699190613d09565b61234d565b60405161037b91906142e7565b60405180910390f35b61039e60048036038101906103999190613d09565b61237a565b6040516103ab9190614465565b60405180910390f35b6103ce60048036038101906103c99190614548565b6123a8565b005b60008060008060009054906101000a900473ffffffffffffffffffffffffffffffffffffffff1673ffffffffffffffffffffffffffffffffffffffff166304433bbc6040518163ffffffff1660e01b815260040161042d9061467f565b602060405180830381865afa15801561044a573d6000803e3d6000fd5b505050506040513d601f19601f8201168201806040525081019061046e91906146b4565b905060008173ffffffffffffffffffffffffffffffffffffffff1663867a4680896040518263ffffffff1660e01b81526004016104ab91906146f0565b602060405180830381865afa1580156104c8573d6000803e3d6000fd5b505050506040513d601f19601f820116820180604052508101906104ec9190614737565b9050600087905060008173ffffffffffffffffffffffffffffffffffffffff16637c29b293896040518263ffffffff1660e01b815260040161052e9190614302565b602060405180830381865afa15801561054b573d6000803e3d6000fd5b505050506040513d601f19601f8201168201806040525081019061056f9190614779565b905060008060009054906101000a900473ffffffffffffffffffffffffffffffffffffffff1673ffffffffffffffffffffffffffffffffffffffff166304433bbc6040518163ffffffff1660e01b81526004016105cb906147f2565b602060405180830381865afa1580156105e8573d6000803e3d6000fd5b505050506040513d601f19601f8201168201806040525081019061060c91906146b4565b905060008173ffffffffffffffffffffffffffffffffffffffff1663ec82e3a7846040518263ffffffff1660e01b81526004016106499190614812565b602060405180830381865afa158015610666573d6000803e3d6000fd5b505050506040513d601f19601f8201168201806040525081019061068a9190614842565b6bffffffffffffffffffffffff169050828160028b886040516020016106b19291906148db565b6040516020818303038152906040526040516106cd9190614981565b602060405180830381855afa1580156106ea573d6000803e3d6000fd5b5050506040513d601f19601f8201168201806040525081019061070d9190614779565b60001c61071a91906149c7565b9750975050505050505094509492505050565b60008054906101000a900473ffffffffffffffffffffffffffffffffffffffff1681565b60006002600083815260200190815260200160002060010160129054906101000a90046bffffffffffffffffffffffff169050919050565b60006002600083815260200190815260200160002060010160029054906101000a90046fffffffffffffffffffffffffffffffff169050919050565b60006107d386868686612e36565b90506107df81836120c2565b61081e576040517f08c379a000000000000000000000000000000000000000000000000000000000815260040161081590614a44565b60405180910390fd5b60008060009054906101000a900473ffffffffffffffffffffffffffffffffffffffff1673ffffffffffffffffffffffffffffffffffffffff166304433bbc6040518163ffffffff1660e01b81526004016108789061467f565b602060405180830381865afa158015610895573d6000803e3d6000fd5b505050506040513d601f19601f820116820180604052508101906108b991906146b4565b905060008173ffffffffffffffffffffffffffffffffffffffff1663867a4680336040518263ffffffff1660e01b81526004016108f691906146f0565b602060405180830381865afa158015610913573d6000803e3d6000fd5b505050506040513d601f19601f820116820180604052508101906109379190614737565b905060008060009054906101000a900473ffffffffffffffffffffffffffffffffffffffff1673ffffffffffffffffffffffffffffffffffffffff166304433bbc6040518163ffffffff1660e01b815260040161099390614ab0565b602060405180830381865afa1580156109b0573d6000803e3d6000fd5b505050506040513d601f19601f820116820180604052508101906109d491906146b4565b905060008060009054906101000a900473ffffffffffffffffffffffffffffffffffffffff1673ffffffffffffffffffffffffffffffffffffffff166304433bbc6040518163ffffffff1660e01b8152600401610a3090614b1c565b602060405180830381865afa158015610a4d573d6000803e3d6000fd5b505050506040513d601f19601f82011682018060405250810190610a7191906146b4565b905060008173ffffffffffffffffffffffffffffffffffffffff16630b47a00860026000898152602001908152602001600020600101601e9054906101000a900460ff168a8673ffffffffffffffffffffffffffffffffffffffff166341c10b9a896040518263ffffffff1660e01b8152600401610aef9190614b4b565b600060405180830381865afa158015610b0c573d6000803e3d6000fd5b505050506040513d6000823e3d601f19601f82011682018060405250810190610b359190614bd6565b8d8873ffffffffffffffffffffffffffffffffffffffff1663edf530c08b6040518263ffffffff1660e01b8152600401610b6f9190614b4b565b602060405180830381865afa158015610b8c573d6000803e3d6000fd5b505050506040513d601f19601f82011682018060405250810190610bb09190614842565b6040518663ffffffff1660e01b8152600401610bd0959493929190614c69565b6020604051808303816000875af1158015610bef573d6000803e3d6000fd5b505050506040513d601f19601f82011682018060405250810190610c139190614cf6565b9050610c6a868860405180608001604052808868ffffffffffffffffff168152602001600068ffffffffffffffffff168152602001600068ffffffffffffffffff1681526020018564ffffffffff16815250612f7f565b8368ffffffffffffffffff168a8c73ffffffffffffffffffffffffffffffffffffffff167f9e2e821c1917b86a32470c4b136b11697b17ee7120c6c6147d34bf0190257d248c8c8873ffffffffffffffffffffffffffffffffffffffff166341c10b9a8b6040518263ffffffff1660e01b8152600401610cea9190614b4b565b600060405180830381865afa158015610d07573d6000803e3d6000fd5b505050506040513d6000823e3d601f19601f82011682018060405250810190610d309190614bd6565b87604051610d419493929190614d32565b60405180910390a45050505050505050505050565b606060008060009054906101000a900473ffffffffffffffffffffffffffffffffffffffff1673ffffffffffffffffffffffffffffffffffffffff166304433bbc6040518163ffffffff1660e01b8152600401610db290614dd1565b602060405180830381865afa158015610dcf573d6000803e3d6000fd5b505050506040513d601f19601f82011682018060405250810190610df391906146b4565b905060008173ffffffffffffffffffffffffffffffffffffffff1663fee2cb056040518163ffffffff1660e01b8152600401602060405180830381865afa158015610e42573d6000803e3d6000fd5b505050506040513d601f19601f82011682018060405250810190610e669190614e2f565b65ffffffffffff1667ffffffffffffffff811115610e8757610e86613dd9565b5b604051908082528060200260200182016040528015610ec057816020015b610ead613a79565b815260200190600190039081610ea55790505b50905060006002600087815260200190815260200160002060020160008661ffff1661ffff1681526020019081526020016000205490506000600160008381526020019081526020016000206040518060800160405290816000820160009054906101000a900468ffffffffffffffffff1668ffffffffffffffffff1668ffffffffffffffffff1681526020016000820160099054906101000a900468ffffffffffffffffff1668ffffffffffffffffff1668ffffffffffffffffff1681526020016000820160129054906101000a900468ffffffffffffffffff1668ffffffffffffffffff1668ffffffffffffffffff16815260200160008201601b9054906101000a900464ffffffffff1664ffffffffff1664ffffffffff1681525050838260ff1681518110610ff557610ff4614e5c565b5b602002602001018190525060006001600084815260200190815260200160002060000160129054906101000a900468ffffffffffffffffff1690505b60008168ffffffffffffffffff161461119b57600088888360405160200161105b93929190614eac565b6040516020818303038152906040528051906020012090506000600160008381526020019081526020016000206040518060800160405290816000820160009054906101000a900468ffffffffffffffffff1668ffffffffffffffffff1668ffffffffffffffffff1681526020016000820160099054906101000a900468ffffffffffffffffff1668ffffffffffffffffff1668ffffffffffffffffff1681526020016000820160129054906101000a900468ffffffffffffffffff1668ffffffffffffffffff1668ffffffffffffffffff16815260200160008201601b9054906101000a900464ffffffffff1664ffffffffff1664ffffffffff16815250509050838061116890614f18565b94505080868560ff168151811061118257611181614e5c565b5b6020026020010181905250806040015192505050611031565b839550505050505092915050565b60008054906101000a900473ffffffffffffffffffffffffffffffffffffffff1673ffffffffffffffffffffffffffffffffffffffff16638d5d2d85336040518263ffffffff1660e01b815260040161120291906146f0565b602060405180830381865afa15801561121f573d6000803e3d6000fd5b505050506040513d601f19601f820116820180604052508101906112439190614f6d565b611282576040517f08c379a00000000000000000000000000000000000000000000000000000000081526004016112799061500c565b60405180910390fd5b600061129087878787612e36565b905060006002600083815260200190815260200160002060010160129054906101000a90046bffffffffffffffffffffffff169050836002600084815260200190815260200160002060010160006101000a81548161ffff021916908361ffff160217905550826002600084815260200190815260200160002060010160126101000a8154816bffffffffffffffffffffffff02191690836bffffffffffffffffffffffff16021790555060008060009054906101000a900473ffffffffffffffffffffffffffffffffffffffff1673ffffffffffffffffffffffffffffffffffffffff166304433bbc6040518163ffffffff1660e01b815260040161139590615078565b602060405180830381865afa1580156113b2573d6000803e3d6000fd5b505050506040513d601f19601f820116820180604052508101906113d691906146b4565b905083826113e49190615098565b6bffffffffffffffffffffffff168173ffffffffffffffffffffffffffffffffffffffff1663dd62ed3e8c306040518363ffffffff1660e01b815260040161142d9291906150cc565b602060405180830381865afa15801561144a573d6000803e3d6000fd5b505050506040513d601f19601f8201168201806040525081019061146e919061510a565b10156114af576040517f08c379a00000000000000000000000000000000000000000000000000000000081526004016114a6906151a9565b60405180910390fd5b83826114bb9190615098565b6bffffffffffffffffffffffff168173ffffffffffffffffffffffffffffffffffffffff166370a082318c6040518263ffffffff1660e01b815260040161150291906146f0565b602060405180830381865afa15801561151f573d6000803e3d6000fd5b505050506040513d601f19601f82011682018060405250810190611543919061510a565b1015611584576040517f08c379a000000000000000000000000000000000000000000000000000000000815260040161157b9061523b565b60405180910390fd5b8073ffffffffffffffffffffffffffffffffffffffff166323b872dd8b3087866115ae9190615098565b6040518463ffffffff1660e01b81526004016115cc9392919061528c565b6020604051808303816000875af11580156115eb573d6000803e3d6000fd5b505050506040513d601f19601f8201168201806040525081019061160f9190614f6d565b50878973ffffffffffffffffffffffffffffffffffffffff167f1abad9d03c6b61f6b6714655a41bdc5b88318ce5136915a9c8751a74ad5a30b989896002600089815260200190815260200160002060010160009054906101000a900461ffff16600260008a815260200190815260200160002060010160129054906101000a90046bffffffffffffffffffffffff166040516116af94939291906152c3565b60405180910390a350505050505050505050565b60008060008060008060026000888152602001908152602001600020600001546002600089815260200190815260200160002060010160009054906101000a900461ffff16600260008a815260200190815260200160002060010160029054906101000a90046fffffffffffffffffffffffffffffffff16600260008b815260200190815260200160002060010160129054906101000a90046bffffffffffffffffffffffff16600260008c8152602001908152602001600020600101601e9054906101000a900460ff16600260008d8152602001908152602001600020600101601f9054906101000a900460ff1695509550955095509550955091939550919395565b600060026000838152602001908152602001600020600101601f9054906101000a900460ff169050919050565b600060026000838152602001908152602001600020600001549050919050565b600080429050600060026000868152602001908152602001600020905060008060009054906101000a900473ffffffffffffffffffffffffffffffffffffffff1673ffffffffffffffffffffffffffffffffffffffff166304433bbc6040518163ffffffff1660e01b815260040161188b90614dd1565b602060405180830381865afa1580156118a8573d6000803e3d6000fd5b505050506040513d601f19601f820116820180604052508101906118cc91906146b4565b90506000606483600101601f9054906101000a900460ff1660ff168460010160009054906101000a900461ffff1661ffff168560010160029054906101000a90046fffffffffffffffffffffffffffffffff16611929919061530f565b611933919061530f565b61193d9190615359565b6fffffffffffffffffffffffffffffffff169050600060648373ffffffffffffffffffffffffffffffffffffffff16639d3ceb0c6040518163ffffffff1660e01b8152600401602060405180830381865afa1580156119a0573d6000803e3d6000fd5b505050506040513d601f19601f820116820180604052508101906119c4919061539f565b60ff168560010160009054906101000a900461ffff1661ffff168660010160029054906101000a90046fffffffffffffffffffffffffffffffff16611a09919061530f565b611a13919061530f565b611a1d9190615359565b6fffffffffffffffffffffffffffffffff169050818761ffff168560010160029054906101000a90046fffffffffffffffffffffffffffffffff16611a62919061530f565b6fffffffffffffffffffffffffffffffff168560000154611a8391906153cc565b611a8d91906153cc565b85118015611b00575080828861ffff168660010160029054906101000a90046fffffffffffffffffffffffffffffffff16611ac8919061530f565b6fffffffffffffffffffffffffffffffff168660000154611ae991906153cc565b611af391906153cc565b611afd91906153cc565b85105b9550505050505092915050565b60008054906101000a900473ffffffffffffffffffffffffffffffffffffffff1673ffffffffffffffffffffffffffffffffffffffff16638d5d2d85336040518263ffffffff1660e01b8152600401611b6691906146f0565b602060405180830381865afa158015611b83573d6000803e3d6000fd5b505050506040513d601f19601f82011682018060405250810190611ba79190614f6d565b611be6576040517f08c379a0000000000000000000000000000000000000000000000000000000008152600401611bdd9061500c565b60405180910390fd5b8060026000848152602001908152602001600020600101601e6101000a81548160ff021916908360ff1602179055505050565b60008054906101000a900473ffffffffffffffffffffffffffffffffffffffff1673ffffffffffffffffffffffffffffffffffffffff16638d5d2d85336040518263ffffffff1660e01b8152600401611c7291906146f0565b602060405180830381865afa158015611c8f573d6000803e3d6000fd5b505050506040513d601f19601f82011682018060405250810190611cb39190614f6d565b611cf2576040517f08c379a0000000000000000000000000000000000000000000000000000000008152600401611ce99061500c565b60405180910390fd5b6000611d0088888888612e36565b9050611d0f8982868686613530565b60008060009054906101000a900473ffffffffffffffffffffffffffffffffffffffff1673ffffffffffffffffffffffffffffffffffffffff166304433bbc6040518163ffffffff1660e01b8152600401611d6990615078565b602060405180830381865afa158015611d86573d6000803e3d6000fd5b505050506040513d601f19601f82011682018060405250810190611daa91906146b4565b9050836bffffffffffffffffffffffff168173ffffffffffffffffffffffffffffffffffffffff1663dd62ed3e8c306040518363ffffffff1660e01b8152600401611df69291906150cc565b602060405180830381865afa158015611e13573d6000803e3d6000fd5b505050506040513d601f19601f82011682018060405250810190611e37919061510a565b1015611e78576040517f08c379a0000000000000000000000000000000000000000000000000000000008152600401611e6f906151a9565b60405180910390fd5b836bffffffffffffffffffffffff168173ffffffffffffffffffffffffffffffffffffffff166370a082318c6040518263ffffffff1660e01b8152600401611ec091906146f0565b602060405180830381865afa158015611edd573d6000803e3d6000fd5b505050506040513d601f19601f82011682018060405250810190611f01919061510a565b1015611f42576040517f08c379a0000000000000000000000000000000000000000000000000000000008152600401611f399061523b565b60405180910390fd5b8073ffffffffffffffffffffffffffffffffffffffff166323b872dd8b30876040518463ffffffff1660e01b8152600401611f7f9392919061528c565b6020604051808303816000875af1158015611f9e573d6000803e3d6000fd5b505050506040513d601f19601f82011682018060405250810190611fc29190614f6d565b50878973ffffffffffffffffffffffffffffffffffffffff167f48298191f59170e97201484d4a3de75065cea587a165788d1f19459fabd39a5e898960026000888152602001908152602001600020600001546002600089815260200190815260200160002060010160009054906101000a900461ffff16600260008a815260200190815260200160002060010160029054906101000a90046fffffffffffffffffffffffffffffffff16600260008b815260200190815260200160002060010160129054906101000a90046bffffffffffffffffffffffff166040516120ae96959493929190615422565b60405180910390a350505050505050505050565b600080429050600060026000868152602001908152602001600020905060008060009054906101000a900473ffffffffffffffffffffffffffffffffffffffff1673ffffffffffffffffffffffffffffffffffffffff166304433bbc6040518163ffffffff1660e01b815260040161213990614dd1565b602060405180830381865afa158015612156573d6000803e3d6000fd5b505050506040513d601f19601f8201168201806040525081019061217a91906146b4565b905060008561ffff1603612216578073ffffffffffffffffffffffffffffffffffffffff1663e8d487ff6040518163ffffffff1660e01b8152600401602060405180830381865afa1580156121d3573d6000803e3d6000fd5b505050506040513d601f19601f820116820180604052508101906121f7919061549f565b61ffff16826000015461220a91906153cc565b83109350505050612347565b8461ffff168260010160029054906101000a90046fffffffffffffffffffffffffffffffff16612246919061530f565b6fffffffffffffffffffffffffffffffff16826000015461226791906153cc565b8311801561234157508073ffffffffffffffffffffffffffffffffffffffff1663e8d487ff6040518163ffffffff1660e01b8152600401602060405180830381865afa1580156122bb573d6000803e3d6000fd5b505050506040513d601f19601f820116820180604052508101906122df919061549f565b61ffff168561ffff168360010160029054906101000a90046fffffffffffffffffffffffffffffffff16612313919061530f565b6fffffffffffffffffffffffffffffffff16836000015461233491906153cc565b61233e91906153cc565b83105b93505050505b92915050565b600060026000838152602001908152602001600020600101601e9054906101000a900460ff169050919050565b60006002600083815260200190815260200160002060010160009054906101000a900461ffff169050919050565b60006123b688888888612e36565b90506123c28185611814565b15612402576040517f08c379a00000000000000000000000000000000000000000000000000000000081526004016123f990615518565b60405180910390fd5b60008060009054906101000a900473ffffffffffffffffffffffffffffffffffffffff1673ffffffffffffffffffffffffffffffffffffffff166304433bbc6040518163ffffffff1660e01b815260040161245c9061467f565b602060405180830381865afa158015612479573d6000803e3d6000fd5b505050506040513d601f19601f8201168201806040525081019061249d91906146b4565b73ffffffffffffffffffffffffffffffffffffffff1663867a4680336040518263ffffffff1660e01b81526004016124d591906146f0565b602060405180830381865afa1580156124f2573d6000803e3d6000fd5b505050506040513d601f19601f820116820180604052508101906125169190614737565b905060006001600084888560405160200161253393929190614eac565b604051602081830303815290604052805190602001208152602001908152602001600020600001601b9054906101000a900464ffffffffff1664ffffffffff16036125b3576040517f08c379a00000000000000000000000000000000000000000000000000000000081526004016125aa906155aa565b60405180910390fd5b60006002600084815260200190815260200160002060020160008761ffff1661ffff16815260200190815260200160002054905060008060009054906101000a900473ffffffffffffffffffffffffffffffffffffffff1673ffffffffffffffffffffffffffffffffffffffff166304433bbc6040518163ffffffff1660e01b815260040161264190614dd1565b602060405180830381865afa15801561265e573d6000803e3d6000fd5b505050506040513d601f19601f8201168201806040525081019061268291906146b4565b905060005b6001600084815260200190815260200160002060000160009054906101000a900468ffffffffffffffffff1668ffffffffffffffffff168468ffffffffffffffffff161415801561274e57508173ffffffffffffffffffffffffffffffffffffffff16638d73d86a6040518163ffffffff1660e01b8152600401602060405180830381865afa15801561271e573d6000803e3d6000fd5b505050506040513d601f19601f820116820180604052508101906127429190615606565b63ffffffff168160ff16105b156127be5784886001600086815260200190815260200160002060000160129054906101000a900468ffffffffffffffffff1660405160200161279393929190614eac565b60405160208183030381529060405280519060200120925080806127b690614f18565b915050612687565b8173ffffffffffffffffffffffffffffffffffffffff16638d73d86a6040518163ffffffff1660e01b8152600401602060405180830381865afa158015612809573d6000803e3d6000fd5b505050506040513d601f19601f8201168201806040525081019061282d9190615606565b63ffffffff168160ff1610612877576040517f08c379a000000000000000000000000000000000000000000000000000000000815260040161286e906156a5565b60405180910390fd5b600080612886338f8f8d6103d0565b80925081935050506128c189838a846040516020016128a69291906156e6565b604051602081830303815290604052805190602001206138a0565b612900576040517f08c379a00000000000000000000000000000000000000000000000000000000081526004016128f79061575e565b60405180910390fd5b60008060009054906101000a900473ffffffffffffffffffffffffffffffffffffffff1673ffffffffffffffffffffffffffffffffffffffff166304433bbc6040518163ffffffff1660e01b815260040161295a90614ab0565b602060405180830381865afa158015612977573d6000803e3d6000fd5b505050506040513d601f19601f8201168201806040525081019061299b91906146b4565b90506000600260008a815260200190815260200160002060030160008d61ffff1661ffff16815260200190815260200160002060009054906101000a900463ffffffff168673ffffffffffffffffffffffffffffffffffffffff16638d73d86a6040518163ffffffff1660e01b8152600401602060405180830381865afa158015612a2a573d6000803e3d6000fd5b505050506040513d601f19601f82011682018060405250810190612a4e9190615606565b612a58919061577e565b63ffffffff1660018d600260008d815260200190815260200160002060010160009054906101000a900461ffff16612a9091906157b2565b612a9a91906157e6565b61ffff16600260008c815260200190815260200160002060010160129054906101000a90046bffffffffffffffffffffffff16612ad7919061581e565b612ae1919061581e565b905060008054906101000a900473ffffffffffffffffffffffffffffffffffffffff1673ffffffffffffffffffffffffffffffffffffffff166304433bbc6040518163ffffffff1660e01b8152600401612b3a90615078565b602060405180830381865afa158015612b57573d6000803e3d6000fd5b505050506040513d601f19601f82011682018060405250810190612b7b91906146b4565b73ffffffffffffffffffffffffffffffffffffffff1663a9059cbb83836040518363ffffffff1660e01b8152600401612bb592919061584f565b6020604051808303816000875af1158015612bd4573d6000803e3d6000fd5b505050506040513d601f19601f82011682018060405250810190612bf89190614f6d565b508173ffffffffffffffffffffffffffffffffffffffff166303e9f0a189838573ffffffffffffffffffffffffffffffffffffffff1663c1713b028d6040518263ffffffff1660e01b8152600401612c509190614b4b565b602060405180830381865afa158015612c6d573d6000803e3d6000fd5b505050506040513d601f19601f82011682018060405250810190612c919190614842565b612c9b9190615878565b6040518363ffffffff1660e01b8152600401612cb89291906158ba565b600060405180830381600087803b158015612cd257600080fd5b505af1158015612ce6573d6000803e3d6000fd5b5050505080600260008b815260200190815260200160002060010160128282829054906101000a90046bffffffffffffffffffffffff16612d279190615098565b92506101000a8154816bffffffffffffffffffffffff02191690836bffffffffffffffffffffffff1602179055506001600260008b815260200190815260200160002060030160008e61ffff1661ffff16815260200190815260200160002060008282829054906101000a900463ffffffff16612da491906158e3565b92506101000a81548163ffffffff021916908363ffffffff1602179055506000600160008b8f8c604051602001612ddd93929190614eac565b604051602081830303815290604052805190602001208152602001908152602001600020600001601b6101000a81548164ffffffffff021916908364ffffffffff16021790555050505050505050505050505050505050565b60008060008054906101000a900473ffffffffffffffffffffffffffffffffffffffff1673ffffffffffffffffffffffffffffffffffffffff166304433bbc6040518163ffffffff1660e01b8152600401612e9090615969565b602060405180830381865afa158015612ead573d6000803e3d6000fd5b505050506040513d601f19601f82011682018060405250810190612ed191906146b4565b90508073ffffffffffffffffffffffffffffffffffffffff166345ed59e584888888604051602001612f05939291906159d1565b6040516020818303038152906040526040518363ffffffff1660e01b8152600401612f31929190615a0a565b6020604051808303816000875af1158015612f50573d6000803e3d6000fd5b505050506040513d601f19601f82011682018060405250810190612f749190614779565b915050949350505050565b600083838360000151604051602001612f9a93929190614eac565b60405160208183030381529060405280519060200120905060006002600086815260200190815260200160002060020160008561ffff1661ffff16815260200190815260200160002054905060008060009054906101000a900473ffffffffffffffffffffffffffffffffffffffff1673ffffffffffffffffffffffffffffffffffffffff166304433bbc6040518163ffffffff1660e01b815260040161304090614dd1565b602060405180830381865afa15801561305d573d6000803e3d6000fd5b505050506040513d601f19601f8201168201806040525081019061308191906146b4565b905060005b60016000848152602001908152602001600020600001601b9054906101000a900464ffffffffff1664ffffffffff16856060015164ffffffffff16108015613105575060006001600085815260200190815260200160002060000160129054906101000a900468ffffffffffffffffff1668ffffffffffffffffff1614155b801561318757508173ffffffffffffffffffffffffffffffffffffffff16638d73d86a6040518163ffffffff1660e01b8152600401602060405180830381865afa158015613157573d6000803e3d6000fd5b505050506040513d601f19601f8201168201806040525081019061317b9190615606565b63ffffffff168160ff16105b156131f75786866001600086815260200190815260200160002060000160129054906101000a900468ffffffffffffffffff166040516020016131cc93929190614eac565b60405160208183030381529060405280519060200120925080806131ef90614f18565b915050613086565b8173ffffffffffffffffffffffffffffffffffffffff16638d73d86a6040518163ffffffff1660e01b8152600401602060405180830381865afa158015613242573d6000803e3d6000fd5b505050506040513d601f19601f820116820180604052508101906132669190615606565b63ffffffff168160ff16106132b0576040517f08c379a00000000000000000000000000000000000000000000000000000000081526004016132a790615a86565b60405180910390fd5b846001600086815260200190815260200160002060008201518160000160006101000a81548168ffffffffffffffffff021916908368ffffffffffffffffff16021790555060208201518160000160096101000a81548168ffffffffffffffffff021916908368ffffffffffffffffff16021790555060408201518160000160126101000a81548168ffffffffffffffffff021916908368ffffffffffffffffff160217905550606082015181600001601b6101000a81548164ffffffffff021916908364ffffffffff1602179055509050506000600160008581526020019081526020016000206040518060800160405290816000820160009054906101000a900468ffffffffffffffffff1668ffffffffffffffffff1668ffffffffffffffffff1681526020016000820160099054906101000a900468ffffffffffffffffff1668ffffffffffffffffff1668ffffffffffffffffff1681526020016000820160129054906101000a900468ffffffffffffffffff1668ffffffffffffffffff1668ffffffffffffffffff16815260200160008201601b9054906101000a900464ffffffffff1664ffffffffff1664ffffffffff1681525050905060008260ff16036134c55784600260008a815260200190815260200160002060020160008961ffff1661ffff168152602001908152602001600020819055506134c08888886000015184600001516138b7565b613526565b806060015164ffffffffff16866060015164ffffffffff161115613510576134f78888836020015189600001516138b7565b61350b8888886000015184600001516138b7565b613525565b6135248888836000015189600001516138b7565b5b5b5050505050505050565b60008060009054906101000a900473ffffffffffffffffffffffffffffffffffffffff1673ffffffffffffffffffffffffffffffffffffffff166304433bbc6040518163ffffffff1660e01b815260040161358a90614dd1565b602060405180830381865afa1580156135a7573d6000803e3d6000fd5b505050506040513d601f19601f820116820180604052508101906135cb91906146b4565b90506000600260008781526020019081526020016000209050428160000181905550848160010160006101000a81548161ffff021916908361ffff1602179055508173ffffffffffffffffffffffffffffffffffffffff166357d775f86040518163ffffffff1660e01b8152600401602060405180830381865afa158015613657573d6000803e3d6000fd5b505050506040513d601f19601f8201168201806040525081019061367b9190615ad2565b8160010160026101000a8154816fffffffffffffffffffffffffffffffff02191690836fffffffffffffffffffffffffffffffff1602179055506137b28760018473ffffffffffffffffffffffffffffffffffffffff16638e6262426040518163ffffffff1660e01b8152600401602060405180830381865afa158015613706573d6000803e3d6000fd5b505050506040513d601f19601f8201168201806040525081019061372a919061539f565b8573ffffffffffffffffffffffffffffffffffffffff1663ff2117436040518163ffffffff1660e01b8152600401602060405180830381865afa158015613775573d6000803e3d6000fd5b505050506040513d601f19601f82011682018060405250810190613799919061539f565b6137a39190615aff565b6137ad9190615b33565b61399b565b8273ffffffffffffffffffffffffffffffffffffffff16638e6262426040518163ffffffff1660e01b8152600401602060405180830381865afa1580156137fd573d6000803e3d6000fd5b505050506040513d601f19601f82011682018060405250810190613821919061539f565b61382b9190615b33565b81600101601f6101000a81548160ff021916908360ff160217905550838160010160126101000a8154816bffffffffffffffffffffffff02191690836bffffffffffffffffffffffff1602179055508281600101601e6101000a81548160ff021916908360ff16021790555050505050505050565b6000826138ad85846139e1565b1490509392505050565b60008484846040516020016138ce93929190614eac565b604051602081830303815290604052805190602001209050816001600083815260200190815260200160002060000160126101000a81548168ffffffffffffffffff021916908368ffffffffffffffffff160217905550600085858460405160200161393c93929190614eac565b604051602081830303815290604052805190602001209050836001600083815260200190815260200160002060000160096101000a81548168ffffffffffffffffff021916908368ffffffffffffffffff160217905550505050505050565b60008160ff164284436040516020016139b693929190615b6a565b6040516020818303038152906040528051906020012060001c6139d991906149c7565b905092915050565b60008082905060005b8451811015613a2c57613a1782868381518110613a0a57613a09614e5c565b5b6020026020010151613a37565b91508080613a2490615ba7565b9150506139ea565b508091505092915050565b6000818310613a4f57613a4a8284613a62565b613a5a565b613a598383613a62565b5b905092915050565b600082600052816020526040600020905092915050565b6040518060800160405280600068ffffffffffffffffff168152602001600068ffffffffffffffffff168152602001600068ffffffffffffffffff168152602001600064ffffffffff1681525090565b6000604051905090565b600080fd5b600080fd5b600073ffffffffffffffffffffffffffffffffffffffff82169050919050565b6000613b0882613add565b9050919050565b613b1881613afd565b8114613b2357600080fd5b50565b600081359050613b3581613b0f565b92915050565b6000819050919050565b613b4e81613b3b565b8114613b5957600080fd5b50565b600081359050613b6b81613b45565b92915050565b600061ffff82169050919050565b613b8881613b71565b8114613b9357600080fd5b50565b600081359050613ba581613b7f565b92915050565b60008060008060808587031215613bc557613bc4613ad3565b5b6000613bd387828801613b26565b9450506020613be487828801613b26565b9350506040613bf587828801613b5c565b9250506060613c0687828801613b96565b91505092959194509250565b6000819050919050565b613c2581613c12565b82525050565b613c3481613b3b565b82525050565b6000604082019050613c4f6000830185613c1c565b613c5c6020830184613c2b565b9392505050565b6000819050919050565b6000613c88613c83613c7e84613add565b613c63565b613add565b9050919050565b6000613c9a82613c6d565b9050919050565b6000613cac82613c8f565b9050919050565b613cbc81613ca1565b82525050565b6000602082019050613cd76000830184613cb3565b92915050565b613ce681613c12565b8114613cf157600080fd5b50565b600081359050613d0381613cdd565b92915050565b600060208284031215613d1f57613d1e613ad3565b5b6000613d2d84828501613cf4565b91505092915050565b60006bffffffffffffffffffffffff82169050919050565b613d5781613d36565b82525050565b6000602082019050613d726000830184613d4e565b92915050565b60006fffffffffffffffffffffffffffffffff82169050919050565b613d9d81613d78565b82525050565b6000602082019050613db86000830184613d94565b92915050565b600080fd5b600080fd5b6000601f19601f8301169050919050565b7f4e487b7100000000000000000000000000000000000000000000000000000000600052604160045260246000fd5b613e1182613dc8565b810181811067ffffffffffffffff82111715613e3057613e2f613dd9565b5b80604052505050565b6000613e43613ac9565b9050613e4f8282613e08565b919050565b600067ffffffffffffffff821115613e6f57613e6e613dd9565b5b613e7882613dc8565b9050602081019050919050565b82818337600083830152505050565b6000613ea7613ea284613e54565b613e39565b905082815260208101848484011115613ec357613ec2613dc3565b5b613ece848285613e85565b509392505050565b600082601f830112613eeb57613eea613dbe565b5b8135613efb848260208601613e94565b91505092915050565b600060ff82169050919050565b613f1a81613f04565b8114613f2557600080fd5b50565b600081359050613f3781613f11565b92915050565b600080600080600060a08688031215613f5957613f58613ad3565b5b6000613f6788828901613b26565b9550506020613f7888828901613b5c565b945050604086013567ffffffffffffffff811115613f9957613f98613ad8565b5b613fa588828901613ed6565b9350506060613fb688828901613f28565b9250506080613fc788828901613b96565b9150509295509295909350565b60008060408385031215613feb57613fea613ad3565b5b6000613ff985828601613cf4565b925050602061400a85828601613b96565b9150509250929050565b600081519050919050565b600082825260208201905092915050565b6000819050602082019050919050565b600068ffffffffffffffffff82169050919050565b61405e81614040565b82525050565b600064ffffffffff82169050919050565b61407e81614064565b82525050565b60808201600082015161409a6000850182614055565b5060208201516140ad6020850182614055565b5060408201516140c06040850182614055565b5060608201516140d36060850182614075565b50505050565b60006140e58383614084565b60808301905092915050565b6000602082019050919050565b600061410982614014565b614113818561401f565b935061411e83614030565b8060005b8381101561414f57815161413688826140d9565b9750614141836140f1565b925050600181019050614122565b5085935050505092915050565b6000602082019050818103600083015261417681846140fe565b905092915050565b61418781613d36565b811461419257600080fd5b50565b6000813590506141a48161417e565b92915050565b600080600080600080600060e0888a0312156141c9576141c8613ad3565b5b60006141d78a828b01613b26565b97505060206141e88a828b01613b26565b96505060406141f98a828b01613b5c565b955050606088013567ffffffffffffffff81111561421a57614219613ad8565b5b6142268a828b01613ed6565b94505060806142378a828b01613f28565b93505060a06142488a828b01613b96565b92505060c06142598a828b01614195565b91505092959891949750929550565b61427181613b71565b82525050565b61428081613f04565b82525050565b600060c08201905061429b6000830189613c2b565b6142a86020830188614268565b6142b56040830187613d94565b6142c26060830186613d4e565b6142cf6080830185614277565b6142dc60a0830184614277565b979650505050505050565b60006020820190506142fc6000830184614277565b92915050565b60006020820190506143176000830184613c2b565b92915050565b60008115159050919050565b6143328161431d565b82525050565b600060208201905061434d6000830184614329565b92915050565b6000806040838503121561436a57614369613ad3565b5b600061437885828601613cf4565b925050602061438985828601613f28565b9150509250929050565b600080600080600080600080610100898b0312156143b4576143b3613ad3565b5b60006143c28b828c01613b26565b98505060206143d38b828c01613b26565b97505060406143e48b828c01613b5c565b965050606089013567ffffffffffffffff81111561440557614404613ad8565b5b6144118b828c01613ed6565b95505060806144228b828c01613f28565b94505060a06144338b828c01613b96565b93505060c06144448b828c01614195565b92505060e06144558b828c01613f28565b9150509295985092959890939650565b600060208201905061447a6000830184614268565b92915050565b600067ffffffffffffffff82111561449b5761449a613dd9565b5b602082029050602081019050919050565b600080fd5b60006144c46144bf84614480565b613e39565b905080838252602082019050602084028301858111156144e7576144e66144ac565b5b835b8181101561451057806144fc8882613cf4565b8452602084019350506020810190506144e9565b5050509392505050565b600082601f83011261452f5761452e613dbe565b5b813561453f8482602086016144b1565b91505092915050565b600080600080600080600060e0888a03121561456757614566613ad3565b5b60006145758a828b01613b26565b97505060206145868a828b01613b5c565b965050604088013567ffffffffffffffff8111156145a7576145a6613ad8565b5b6145b38a828b01613ed6565b95505060606145c48a828b01613f28565b94505060806145d58a828b01613b96565b93505060a088013567ffffffffffffffff8111156145f6576145f5613ad8565b5b6146028a828b0161451a565b92505060c06146138a828b01613cf4565b91505092959891949750929550565b600082825260208201905092915050565b7f4964656e7469747953746f726167650000000000000000000000000000000000600082015250565b6000614669600f83614622565b915061467482614633565b602082019050919050565b600060208201905081810360008301526146988161465c565b9050919050565b6000815190506146ae81613b0f565b92915050565b6000602082840312156146ca576146c9613ad3565b5b60006146d88482850161469f565b91505092915050565b6146ea81613afd565b82525050565b600060208201905061470560008301846146e1565b92915050565b61471481614040565b811461471f57600080fd5b50565b6000815190506147318161470b565b92915050565b60006020828403121561474d5761474c613ad3565b5b600061475b84828501614722565b91505092915050565b60008151905061477381613cdd565b92915050565b60006020828403121561478f5761478e613ad3565b5b600061479d84828501614764565b91505092915050565b7f417373657274696f6e5265676973747279000000000000000000000000000000600082015250565b60006147dc601183614622565b91506147e7826147a6565b602082019050919050565b6000602082019050818103600083015261480b816147cf565b9050919050565b60006020820190506148276000830184613c1c565b92915050565b60008151905061483c8161417e565b92915050565b60006020828403121561485857614857613ad3565b5b60006148668482850161482d565b91505092915050565b60008160f01b9050919050565b60006148878261486f565b9050919050565b61489f61489a82613b71565b61487c565b82525050565b60008160b81b9050919050565b60006148bd826148a5565b9050919050565b6148d56148d082614040565b6148b2565b82525050565b60006148e7828561488e565b6002820191506148f782846148c4565b6009820191508190509392505050565b600081519050919050565b600081905092915050565b60005b8381101561493b578082015181840152602081019050614920565b8381111561494a576000848401525b50505050565b600061495b82614907565b6149658185614912565b935061497581856020860161491d565b80840191505092915050565b600061498d8284614950565b915081905092915050565b7f4e487b7100000000000000000000000000000000000000000000000000000000600052601260045260246000fd5b60006149d282613b3b565b91506149dd83613b3b565b9250826149ed576149ec614998565b5b828206905092915050565b7f436f6d6d69742077696e646f7720697320636c6f736564210000000000000000600082015250565b6000614a2e601883614622565b9150614a39826149f8565b602082019050919050565b60006020820190508181036000830152614a5d81614a21565b9050919050565b7f50726f66696c6553746f72616765000000000000000000000000000000000000600082015250565b6000614a9a600e83614622565b9150614aa582614a64565b602082019050919050565b60006020820190508181036000830152614ac981614a8d565b9050919050565b7f53636f72696e6750726f78790000000000000000000000000000000000000000600082015250565b6000614b06600c83614622565b9150614b1182614ad0565b602082019050919050565b60006020820190508181036000830152614b3581614af9565b9050919050565b614b4581614040565b82525050565b6000602082019050614b606000830184614b3c565b92915050565b6000614b79614b7484613e54565b613e39565b905082815260208101848484011115614b9557614b94613dc3565b5b614ba084828561491d565b509392505050565b600082601f830112614bbd57614bbc613dbe565b5b8151614bcd848260208601614b66565b91505092915050565b600060208284031215614bec57614beb613ad3565b5b600082015167ffffffffffffffff811115614c0a57614c09613ad8565b5b614c1684828501614ba8565b91505092915050565b600082825260208201905092915050565b6000614c3b82614907565b614c458185614c1f565b9350614c5581856020860161491d565b614c5e81613dc8565b840191505092915050565b600060a082019050614c7e6000830188614277565b614c8b6020830187614277565b8181036040830152614c9d8186614c30565b90508181036060830152614cb18185614c30565b9050614cc06080830184613d4e565b9695505050505050565b614cd381614064565b8114614cde57600080fd5b50565b600081519050614cf081614cca565b92915050565b600060208284031215614d0c57614d0b613ad3565b5b6000614d1a84828501614ce1565b91505092915050565b614d2c81614064565b82525050565b60006080820190508181036000830152614d4c8187614c30565b9050614d5b6020830186614277565b8181036040830152614d6d8185614c30565b9050614d7c6060830184614d23565b95945050505050565b7f506172616d657465727353746f72616765000000000000000000000000000000600082015250565b6000614dbb601183614622565b9150614dc682614d85565b602082019050919050565b60006020820190508181036000830152614dea81614dae565b9050919050565b600065ffffffffffff82169050919050565b614e0c81614df1565b8114614e1757600080fd5b50565b600081519050614e2981614e03565b92915050565b600060208284031215614e4557614e44613ad3565b5b6000614e5384828501614e1a565b91505092915050565b7f4e487b7100000000000000000000000000000000000000000000000000000000600052603260045260246000fd5b6000819050919050565b614ea6614ea182613c12565b614e8b565b82525050565b6000614eb88286614e95565b602082019150614ec8828561488e565b600282019150614ed882846148c4565b600982019150819050949350505050565b7f4e487b7100000000000000000000000000000000000000000000000000000000600052601160045260246000fd5b6000614f2382613f04565b915060ff8203614f3657614f35614ee9565b5b600182019050919050565b614f4a8161431d565b8114614f5557600080fd5b50565b600081519050614f6781614f41565b92915050565b600060208284031215614f8357614f82613ad3565b5b6000614f9184828501614f58565b91505092915050565b7f46756e6374696f6e2063616e206f6e6c792062652063616c6c6564206279204160008201527f73736574205479706520436f6e74726163747300000000000000000000000000602082015250565b6000614ff6603383614622565b915061500182614f9a565b604082019050919050565b6000602082019050818103600083015261502581614fe9565b9050919050565b7f546f6b656e000000000000000000000000000000000000000000000000000000600082015250565b6000615062600583614622565b915061506d8261502c565b602082019050919050565b6000602082019050818103600083015261509181615055565b9050919050565b60006150a382613d36565b91506150ae83613d36565b9250828210156150c1576150c0614ee9565b5b828203905092915050565b60006040820190506150e160008301856146e1565b6150ee60208301846146e1565b9392505050565b60008151905061510481613b45565b92915050565b6000602082840312156151205761511f613ad3565b5b600061512e848285016150f5565b91505092915050565b7f53656e64657220616c6c6f77616e6365206d75737420626520657175616c207460008201527f6f206f7220686967686572207468616e2063686f73656e20616d6f756e742100602082015250565b6000615193603f83614622565b915061519e82615137565b604082019050919050565b600060208201905081810360008301526151c281615186565b9050919050565b7f53656e6465722062616c616e6365206d75737420626520657175616c20746f2060008201527f6f7220686967686572207468616e2063686f73656e20616d6f756e7421000000602082015250565b6000615225603d83614622565b9150615230826151c9565b604082019050919050565b6000602082019050818103600083015261525481615218565b9050919050565b600061527661527161526c84613d36565b613c63565b613b3b565b9050919050565b6152868161525b565b82525050565b60006060820190506152a160008301866146e1565b6152ae60208301856146e1565b6152bb604083018461527d565b949350505050565b600060808201905081810360008301526152dd8187614c30565b90506152ec6020830186614277565b6152f96040830185614268565b6153066060830184613d4e565b95945050505050565b600061531a82613d78565b915061532583613d78565b9250816fffffffffffffffffffffffffffffffff048311821515161561534e5761534d614ee9565b5b828202905092915050565b600061536482613d78565b915061536f83613d78565b92508261537f5761537e614998565b5b828204905092915050565b60008151905061539981613f11565b92915050565b6000602082840312156153b5576153b4613ad3565b5b60006153c38482850161538a565b91505092915050565b60006153d782613b3b565b91506153e283613b3b565b9250827fffffffffffffffffffffffffffffffffffffffffffffffffffffffffffffffff0382111561541757615416614ee9565b5b828201905092915050565b600060c082019050818103600083015261543c8189614c30565b905061544b6020830188614277565b6154586040830187613c2b565b6154656060830186614268565b6154726080830185613d94565b61547f60a0830184613d4e565b979650505050505050565b60008151905061549981613b7f565b92915050565b6000602082840312156154b5576154b4613ad3565b5b60006154c38482850161548a565b91505092915050565b7f50726f6f662077696e646f77206973206f70656e000000000000000000000000600082015250565b6000615502601483614622565b915061550d826154cc565b602082019050919050565b60006020820190508181036000830152615531816154f5565b9050919050565b7f596f75277665206265656e20616c726561647920726577617264656420696e2060008201527f746869732065706f636800000000000000000000000000000000000000000000602082015250565b6000615594602a83614622565b915061559f82615538565b604082019050919050565b600060208201905081810360008301526155c381615587565b9050919050565b600063ffffffff82169050919050565b6155e3816155ca565b81146155ee57600080fd5b50565b600081519050615600816155da565b92915050565b60006020828403121561561c5761561b613ad3565b5b600061562a848285016155f1565b91505092915050565b7f596f7572206e6f6465206861736e2774206265656e206177617264656420666f60008201527f72207468697320617373657420696e20746869732065706f6368000000000000602082015250565b600061568f603a83614622565b915061569a82615633565b604082019050919050565b600060208201905081810360008301526156be81615682565b9050919050565b6000819050919050565b6156e06156db82613b3b565b6156c5565b82525050565b60006156f28285614e95565b60208201915061570282846156cf565b6020820191508190509392505050565b7f526f6f74206861736820646f65736e2774206d61746368000000000000000000600082015250565b6000615748601783614622565b915061575382615712565b602082019050919050565b600060208201905081810360008301526157778161573b565b9050919050565b6000615789826155ca565b9150615794836155ca565b9250828210156157a7576157a6614ee9565b5b828203905092915050565b60006157bd82613b71565b91506157c883613b71565b9250828210156157db576157da614ee9565b5b828203905092915050565b60006157f182613b71565b91506157fc83613b71565b92508261ffff0382111561581357615812614ee9565b5b828201905092915050565b600061582982613d36565b915061583483613d36565b92508261584457615843614998565b5b828204905092915050565b600060408201905061586460008301856146e1565b615871602083018461527d565b9392505050565b600061588382613d36565b915061588e83613d36565b9250826bffffffffffffffffffffffff038211156158af576158ae614ee9565b5b828201905092915050565b60006040820190506158cf6000830185614b3c565b6158dc6020830184613d4e565b9392505050565b60006158ee826155ca565b91506158f9836155ca565b92508263ffffffff0382111561591257615911614ee9565b5b828201905092915050565b7f48617368696e6750726f78790000000000000000000000000000000000000000600082015250565b6000615953600c83614622565b915061595e8261591d565b602082019050919050565b6000602082019050818103600083015261598281615946565b9050919050565b60008160601b9050919050565b60006159a182615989565b9050919050565b60006159b382615996565b9050919050565b6159cb6159c682613afd565b6159a8565b82525050565b60006159dd82866159ba565b6014820191506159ed82856156cf565b6020820191506159fd8284614950565b9150819050949350505050565b6000604082019050615a1f6000830185614277565b8181036020830152615a318184614c30565b90509392505050565b7f4e6f64652072616e6b2073686f756c64206265203c2052300000000000000000600082015250565b6000615a70601883614622565b9150615a7b82615a3a565b602082019050919050565b60006020820190508181036000830152615a9f81615a63565b9050919050565b615aaf81613d78565b8114615aba57600080fd5b50565b600081519050615acc81615aa6565b92915050565b600060208284031215615ae857615ae7613ad3565b5b6000615af684828501615abd565b91505092915050565b6000615b0a82613f04565b9150615b1583613f04565b925082821015615b2857615b27614ee9565b5b828203905092915050565b6000615b3e82613f04565b9150615b4983613f04565b92508260ff03821115615b5f57615b5e614ee9565b5b828201905092915050565b6000615b7682866156cf565b602082019150615b8682856159ba565b601482019150615b9682846156cf565b602082019150819050949350505050565b6000615bb282613b3b565b91507fffffffffffffffffffffffffffffffffffffffffffffffffffffffffffffffff8203615be457615be3614ee9565b5b60018201905091905056fea2646970667358221220076edef38ed66a61cc21ec2b6fc2807ef21fd2aa9df0c29d90188a5e1e7066a764736f6c634300080e0033",
  "immutableReferences": {},
  "source": "// SPDX-License-Identifier: MIT\n\npragma solidity ^0.8.0;\n\nimport { AbstractAsset } from \"../assets/AbstractAsset.sol\";\nimport { AssertionRegistry } from \"../AssertionRegistry.sol\";\nimport { HashingProxy } from \"../HashingProxy.sol\";\nimport { Hub } from \"../Hub.sol\";\nimport { IdentityStorage } from \"./IdentityStorage.sol\";\nimport { IERC20 } from \"@openzeppelin/contracts/token/ERC20/IERC20.sol\";\nimport { MerkleProof } from \"@openzeppelin/contracts/utils/cryptography/MerkleProof.sol\";\nimport { ParametersStorage } from \"./ParametersStorage.sol\";\nimport { ProfileStorage } from \"./ProfileStorage.sol\";\nimport { ScoringProxy } from \"../ScoringProxy.sol\";\nimport { ShardingTable } from \"../ShardingTable.sol\";\n\ncontract ServiceAgreementStorage {\n    event ServiceAgreementCreated(\n        address indexed assetContract,\n        uint256 indexed tokenId,\n        bytes keyword,\n        uint8 hashFunctionId,\n        uint256 startTime,\n        uint16 epochsNumber,\n        uint128 epochLength,\n        uint96 tokenAmount\n    );\n    event ServiceAgreementUpdated(\n        address indexed assetContract,\n        uint256 indexed tokenId,\n        bytes keyword,\n        uint8 hashFunctionId,\n        uint16 epochsNumber,\n        uint96 tokenAmount\n    );\n    event CommitSubmitted(\n        address indexed assetContract,\n        uint256 indexed tokenId,\n        bytes keyword,\n        uint8 hashFunctionId,\n        uint72 indexed identityId,\n        bytes nodeId,\n        uint40 score\n    );\n    event ProofSubmitted(\n        address indexed assetContract,\n        uint256 indexed tokenId,\n        bytes keyword,\n        uint8 hashFunctionId,\n        uint72 indexed identityId,\n        bytes nodeId\n    );\n\n\n    struct CommitSubmission {\n        uint72 identityId;\n        uint72 prevIdentityId;\n        uint72 nextIdentityId;\n        uint40 score;\n    }\n\n    struct ServiceAgreement {\n        uint256 startTime;\n        uint16 epochsNumber;\n        uint128 epochLength;\n        uint96 tokenAmount;\n        uint8 scoreFunctionId;\n        uint8 proofWindowOffsetPerc;  // Perc == In % of the epoch\n        mapping(uint16 => bytes32) epochSubmissionHeads;  // epoch => headCommitId\n        mapping(uint16 => uint32) rewardedNodes;\n    }\n\n    Hub public hub;\n\n    // CommitId [keccak256(agreementId + epoch + identityId)] => CommitSubmission\n    mapping(bytes32 => CommitSubmission) commitSubmissions;\n\n    // hash(asset type contract + tokenId + key) -> ServiceAgreement\n    mapping(bytes32 => ServiceAgreement) serviceAgreements;\n\n    constructor (address hubAddress) {\n        require(hubAddress != address(0));\n        hub = Hub(hubAddress);\n    }\n\n    modifier onlyAssetContracts() {\n        require (\n            hub.isAssetContract(msg.sender),\n            \"Function can only be called by Asset Type Contracts\"\n        );\n        _;\n    }\n\n    function getAgreementData(bytes32 agreementId)\n        public\n        view\n        returns (uint256, uint16, uint128, uint96, uint8, uint8)\n    {\n        return (\n            serviceAgreements[agreementId].startTime,\n            serviceAgreements[agreementId].epochsNumber,\n            serviceAgreements[agreementId].epochLength,\n            serviceAgreements[agreementId].tokenAmount,\n            serviceAgreements[agreementId].scoreFunctionId,\n            serviceAgreements[agreementId].proofWindowOffsetPerc\n        );\n    }\n\n    function getAgreementStartTime(bytes32 agreementId) public view returns (uint256) {\n        return serviceAgreements[agreementId].startTime;\n    }\n\n    function getAgreementEpochsNumber(bytes32 agreementId) public view returns (uint16) {\n        return serviceAgreements[agreementId].epochsNumber;\n    }\n\n    function getAgreementEpochLength(bytes32 agreementId) public view returns (uint128) {\n        return serviceAgreements[agreementId].epochLength;\n    }\n\n    function getAgreementTokenAmount(bytes32 agreementId) public view returns (uint96) {\n        return serviceAgreements[agreementId].tokenAmount;\n    }\n\n    function getAgreementScoreFunctionId(bytes32 agreementId) public view returns (uint8) {\n        return serviceAgreements[agreementId].scoreFunctionId;\n    }\n\n    function getAgreementProofWindowOffsetPerc(bytes32 agreementId) public view returns (uint8) {\n        return serviceAgreements[agreementId].proofWindowOffsetPerc;\n    }\n\n    function createServiceAgreement(\n        address operationalWallet,\n        address assetContract,\n        uint256 tokenId,\n        bytes memory keyword,\n        uint8 hashFunctionId,\n        uint16 epochsNumber,\n        uint96 tokenAmount,\n        uint8 scoreFunctionId\n    )\n        public\n        onlyAssetContracts\n    {\n        bytes32 agreementId = _generateAgreementId(assetContract, tokenId, keyword, hashFunctionId);\n\n        _createServiceAgreementObject(operationalWallet, agreementId, epochsNumber, tokenAmount, scoreFunctionId);\n\n        IERC20 tokenContract = IERC20(hub.getContractAddress(\"Token\"));\n        require(\n            tokenContract.allowance(operationalWallet, address(this)) >= tokenAmount,\n            \"Sender allowance must be equal to or higher than chosen amount!\"\n        );\n        require(\n            tokenContract.balanceOf(operationalWallet) >= tokenAmount,\n            \"Sender balance must be equal to or higher than chosen amount!\"\n        );\n\n        tokenContract.transferFrom(operationalWallet, address(this), tokenAmount);\n\n        emit ServiceAgreementCreated(\n            assetContract,\n            tokenId,\n            keyword,\n            hashFunctionId,\n            serviceAgreements[agreementId].startTime,\n            serviceAgreements[agreementId].epochsNumber,\n            serviceAgreements[agreementId].epochLength,\n            serviceAgreements[agreementId].tokenAmount\n        );\n    }\n\n    // TODO: Split into smaller functions\n    function updateServiceAgreement(\n        address operationalWallet,\n        address assetContract,\n        uint256 tokenId,\n        bytes memory keyword,\n        uint8 hashFunctionId,\n        uint16 epochsNumber,\n        uint96 tokenAmount\n    )\n        public\n        onlyAssetContracts\n    {\n        bytes32 agreementId = _generateAgreementId(assetContract, tokenId, keyword, hashFunctionId);\n\n        // require(serviceAgreements[agreementId]);\n\n        uint96 actualBalance = serviceAgreements[agreementId].tokenAmount;\n\n        serviceAgreements[agreementId].epochsNumber = epochsNumber;\n        serviceAgreements[agreementId].tokenAmount = tokenAmount;\n\n        IERC20 tokenContract = IERC20(hub.getContractAddress(\"Token\"));\n        require(\n            tokenContract.allowance(operationalWallet, address(this)) >= (actualBalance - tokenAmount),\n            \"Sender allowance must be equal to or higher than chosen amount!\"\n        );\n        require(\n            tokenContract.balanceOf(operationalWallet) >= (actualBalance - tokenAmount),\n            \"Sender balance must be equal to or higher than chosen amount!\"\n        );\n\n        tokenContract.transferFrom(operationalWallet, address(this), actualBalance - tokenAmount);\n\n        emit ServiceAgreementUpdated(\n            assetContract,\n            tokenId,\n            keyword,\n            hashFunctionId,\n            serviceAgreements[agreementId].epochsNumber,\n            serviceAgreements[agreementId].tokenAmount\n        );\n    }\n\n    function isCommitWindowOpen(bytes32 agreementId, uint16 epoch)\n        public\n        view\n        returns (bool)\n    {\n        uint256 timeNow = block.timestamp;\n        ServiceAgreement storage agreement = serviceAgreements[agreementId];\n\n        ParametersStorage parametersStorage = ParametersStorage(hub.getContractAddress(\"ParametersStorage\"));\n\n        if (epoch == 0) {\n            return timeNow < (agreement.startTime + parametersStorage.commitWindowDuration());\n        }\n\n        return (\n            timeNow > (agreement.startTime + agreement.epochLength * epoch) &&\n            timeNow < (agreement.startTime + agreement.epochLength * epoch + parametersStorage.commitWindowDuration())\n        );\n    }\n\n    function getCommitSubmissions(bytes32 agreementId, uint16 epoch)\n        public\n        view\n        returns (CommitSubmission[] memory)\n    {\n        ParametersStorage parametersStorage = ParametersStorage(hub.getContractAddress(\"ParametersStorage\"));\n        CommitSubmission[] memory epochCommits = new CommitSubmission[](parametersStorage.R2());\n\n        bytes32 epochSubmissionsHead = serviceAgreements[agreementId].epochSubmissionHeads[epoch];\n\n        uint8 submissionsIdx = 0;\n\n        epochCommits[submissionsIdx] = commitSubmissions[epochSubmissionsHead];\n\n        uint72 nextIdentityId = commitSubmissions[epochSubmissionsHead].nextIdentityId;\n        while(nextIdentityId != 0) {\n            bytes32 commitId = keccak256(abi.encodePacked(agreementId, epoch, nextIdentityId));\n\n            CommitSubmission memory commit = commitSubmissions[commitId];\n            submissionsIdx++;\n            epochCommits[submissionsIdx] = commit;\n\n            nextIdentityId = commit.nextIdentityId;\n        }\n\n        return epochCommits;\n    }\n\n    function submitCommit(\n        address assetContract,\n        uint256 tokenId,\n        bytes memory keyword,\n        uint8 hashFunctionId,\n        uint16 epoch\n    )\n        public\n    {\n        bytes32 agreementId = _generateAgreementId(assetContract, tokenId, keyword, hashFunctionId);\n\n        require(isCommitWindowOpen(agreementId, epoch), \"Commit window is closed!\");\n\n        IdentityStorage identityStorage = IdentityStorage(hub.getContractAddress(\"IdentityStorage\"));\n        uint72 identityId = identityStorage.getIdentityId(msg.sender);\n\n        ProfileStorage profileStorage = ProfileStorage(hub.getContractAddress(\"ProfileStorage\"));\n\n        ScoringProxy scoringProxy = ScoringProxy(hub.getContractAddress(\"ScoringProxy\"));\n        uint40 score = scoringProxy.callScoreFunction(\n            serviceAgreements[agreementId].scoreFunctionId,\n            hashFunctionId,\n            profileStorage.getNodeId(identityId),\n            keyword,\n            profileStorage.getStake(identityId)\n        );\n\n        _insertCommit(\n            agreementId,\n            epoch,\n            CommitSubmission({\n                identityId: identityId,\n                prevIdentityId: 0,\n                nextIdentityId: 0,\n                score: score\n            })\n        );\n\n        emit CommitSubmitted(\n            assetContract,\n            tokenId,\n            keyword,\n            hashFunctionId,\n            identityId,\n            profileStorage.getNodeId(identityId),\n            score\n        );\n    }\n\n    function isProofWindowOpen(bytes32 agreementId, uint16 epoch)\n        public\n        view\n        returns (bool)\n    {\n        uint256 timeNow = block.timestamp;\n        ServiceAgreement storage agreement = serviceAgreements[agreementId];\n\n        ParametersStorage parametersStorage = ParametersStorage(hub.getContractAddress(\"ParametersStorage\"));\n\n        uint256 proofWindowOffset = agreement.epochLength * agreement.epochsNumber * agreement.proofWindowOffsetPerc / 100;\n        uint256 proofWindowDuration = (\n            agreement.epochLength * agreement.epochsNumber * parametersStorage.proofWindowDurationPerc() / 100\n        );\n\n        return (\n            timeNow > (agreement.startTime + agreement.epochLength * epoch + proofWindowOffset) &&\n            timeNow < (agreement.startTime + agreement.epochLength * epoch + proofWindowOffset + proofWindowDuration)\n        );\n    }\n\n    function getChallenge(address sender, address assetContract, uint256 tokenId, uint16 epoch)\n        public\n        view\n        returns (bytes32, uint256)\n    {\n        IdentityStorage identityStorage = IdentityStorage(hub.getContractAddress(\"IdentityStorage\"));\n        uint72 identityId = identityStorage.getIdentityId(sender);\n\n        AbstractAsset generalAssetInterface = AbstractAsset(assetContract);\n        bytes32 assertionId = generalAssetInterface.getLatestAssertion(tokenId);\n\n        AssertionRegistry assertionRegistry = AssertionRegistry(hub.getContractAddress(\"AssertionRegistry\"));\n        uint256 assertionChunksNumber = assertionRegistry.getChunksNumber(assertionId);\n\n        // blockchash() function only works for last 256 blocks (25.6 min window in case of 6s block time)\n        // TODO: figure out how to achieve randomness\n        return (\n            assertionId,\n            uint256(\n                sha256(abi.encodePacked(epoch, identityId))\n            ) % assertionChunksNumber\n        );\n    }\n\n    function sendProof(\n        address assetContract,\n        uint256 tokenId,\n        bytes memory keyword,\n        uint8 hashFunctionId,\n        uint16 epoch,\n        bytes32[] memory proof,\n        bytes32 chunkHash\n    )\n        public\n    {\n        bytes32 agreementId = _generateAgreementId(assetContract, tokenId, keyword, hashFunctionId);\n        require(!isProofWindowOpen(agreementId, epoch), \"Proof window is open\");\n\n        uint72 identityId = IdentityStorage(hub.getContractAddress(\"IdentityStorage\")).getIdentityId(msg.sender);\n\n        require(\n            commitSubmissions[keccak256(abi.encodePacked(agreementId, epoch, identityId))].score != 0,\n            \"You've been already rewarded in this epoch\"\n        );\n\n        bytes32 nextCommitId = serviceAgreements[agreementId].epochSubmissionHeads[epoch];\n\n        ParametersStorage parametersStorage = ParametersStorage(hub.getContractAddress(\"ParametersStorage\"));\n\n        uint8 i = 0;\n        while ((identityId != commitSubmissions[nextCommitId].identityId) && i < parametersStorage.R0()) {\n            nextCommitId = keccak256(\n                abi.encodePacked(agreementId, epoch, commitSubmissions[nextCommitId].nextIdentityId)\n            );\n            i++;\n        }\n\n        require(i < parametersStorage.R0(), \"Your node hasn't been awarded for this asset in this epoch\");\n\n        bytes32 merkleRoot;\n        uint256 challenge;\n        (merkleRoot, challenge) = getChallenge(msg.sender, assetContract, tokenId, epoch);\n\n        require(\n            MerkleProof.verify(\n                proof,\n                merkleRoot,\n                keccak256(abi.encodePacked(chunkHash, challenge))\n            ),\n            \"Root hash doesn't match\"\n        );\n\n        ProfileStorage profileStorage = ProfileStorage(hub.getContractAddress(\"ProfileStorage\"));\n\n        // emit ProofSubmitted(\n        //     assetContract,\n        //     tokenId,\n        //     keyword,\n        //     hashFunctionId,\n        //     identityId,\n        //     profileStorage.getNodeId(identityId)\n        // );\n\n        uint96 reward = (\n            serviceAgreements[agreementId].tokenAmount /\n            (serviceAgreements[agreementId].epochsNumber - epoch + 1) /\n            (parametersStorage.R0() - serviceAgreements[agreementId].rewardedNodes[epoch])\n        );\n\n        IERC20(hub.getContractAddress(\"Token\")).transfer(address(profileStorage), reward);\n\n        profileStorage.setReward(identityId, profileStorage.getReward(identityId) + reward);\n\n        serviceAgreements[agreementId].tokenAmount -= reward;\n        serviceAgreements[agreementId].rewardedNodes[epoch] += 1;\n\n        // To make sure that node already received reward\n        commitSubmissions[keccak256(abi.encodePacked(agreementId, epoch, identityId))].score = 0;\n    }\n\n    function setScoringFunction(bytes32 agreementId, uint8 newScoreFunctionId)\n        public\n        onlyAssetContracts\n    {\n        serviceAgreements[agreementId].scoreFunctionId = newScoreFunctionId;\n    }        \n\n    function _createServiceAgreementObject(\n        address operationalWallet,\n        bytes32 agreementId,\n        uint16 epochsNumber,\n        uint96 tokenAmount,\n        uint8 scoreFunctionId\n    )\n        private\n    {\n        ParametersStorage parametersStorage = ParametersStorage(hub.getContractAddress(\"ParametersStorage\"));\n\n        ServiceAgreement storage agreement = serviceAgreements[agreementId];\n        agreement.startTime = block.timestamp;\n        agreement.epochsNumber = epochsNumber;\n        agreement.epochLength = parametersStorage.epochLength();\n        agreement.proofWindowOffsetPerc = parametersStorage.minProofWindowOffsetPerc() + _generatePseudorandomUint8(\n            operationalWallet,\n            parametersStorage.maxProofWindowOffsetPerc() - parametersStorage.minProofWindowOffsetPerc() + 1\n        );\n        agreement.tokenAmount = tokenAmount;\n        agreement.scoreFunctionId = scoreFunctionId;\n    }\n\n    function _insertCommit(bytes32 agreementId, uint16 epoch, CommitSubmission memory commit)\n        private\n    {\n        bytes32 commitId = keccak256(abi.encodePacked(agreementId, epoch, commit.identityId));\n        bytes32 refCommitId = serviceAgreements[agreementId].epochSubmissionHeads[epoch];\n\n        ParametersStorage parametersStorage = ParametersStorage(hub.getContractAddress(\"ParametersStorage\"));\n\n        uint8 i = 0;\n        while (\n            (commit.score < commitSubmissions[refCommitId].score) &&\n            (commitSubmissions[refCommitId].nextIdentityId != 0) &&\n            (i < parametersStorage.R0())\n        ) {\n            refCommitId = keccak256(\n                abi.encodePacked(agreementId, epoch, commitSubmissions[refCommitId].nextIdentityId)\n            );\n            i++;\n        }\n\n        require(i < parametersStorage.R0(), \"Node rank should be < R0\");\n\n        commitSubmissions[commitId] = commit;\n        CommitSubmission memory refCommit = commitSubmissions[refCommitId];\n\n        // Replacing head\n        if (i == 0) {\n            serviceAgreements[agreementId].epochSubmissionHeads[epoch] = commitId;\n\n            // [] - empty pointer\n            // [OH] - old head\n            // [NH] - new head\n            // [C] - commit\n            // (NL) - new link\n            // [] <-> [NH] <-(NL)-> [OH] <-> [C] ... [C] <-> []\n            _link_commits(agreementId, epoch, commit.identityId, refCommit.identityId);\n        } else if (commit.score > refCommit.score) {\n            // [H] - head\n            // [RC] - reference commit\n            // [RC-] - commit before reference commit\n            // [RC+] - commit after reference commit\n            // [NC] - new commit\n            // [] <-> [H] <-> [X] ... [RC-] <-> [RC] <-> [RC+] ... [C] <-> []\n            // [] <-> [H] <-> [X] ... [RC-] <-(NL)-> [NC] <-(NL)-> [RC] <-> [RC+] ... [C] <-> []\n            _link_commits(agreementId, epoch, refCommit.prevIdentityId, commit.identityId);\n            _link_commits(agreementId, epoch, commit.identityId, refCommit.identityId);\n        } else {\n            // [] <-> [H] <-> [RC] <-> []\n            // [] <-> [H] <-> [RC] <-(NL)-> [NC] <-> []\n            _link_commits(agreementId, epoch, refCommit.identityId, commit.identityId);\n        }\n    }\n\n    function _link_commits(bytes32 agreementId, uint16 epoch, uint72 leftIdentityId, uint72 rightIdentityId)\n        private\n    {\n        bytes32 leftCommitId = keccak256(abi.encodePacked(agreementId, epoch, leftIdentityId));\n        commitSubmissions[leftCommitId].nextIdentityId = rightIdentityId;\n\n        bytes32 rightCommitId = keccak256(abi.encodePacked(agreementId, epoch, rightIdentityId));\n        commitSubmissions[rightCommitId].prevIdentityId = leftIdentityId;\n    }\n\n    function _generateAgreementId(address assetContract, uint256 tokenId, bytes memory keyword, uint8 hashFunctionId)\n        private\n        returns (bytes32)\n    {\n        HashingProxy hashingProxy = HashingProxy(hub.getContractAddress(\"HashingProxy\"));\n        return hashingProxy.callHashFunction(hashFunctionId, abi.encodePacked(assetContract, tokenId, keyword));\n    }\n\n    function _generatePseudorandomUint8(address sender, uint8 limit)\n        private\n        view\n        returns (uint8)\n    {\n        // TODO: Test type conversion\n        return uint8(uint256(keccak256(abi.encodePacked(block.timestamp, sender, block.number))) % limit);\n    }\n}\n",
  "sourcePath": "/Users/waving/Desktop/OriginTrail/dkg-evm-module/contracts/storage/ServiceAgreementStorage.sol",
  "compiler": {
    "name": "solc",
    "version": "0.8.14+commit.80d49f37.Emscripten.clang"
  },
  "schemaVersion": "3.4.10",
  "updatedAt": "2022-11-25T11:03:34.221Z",
  "devdoc": {
    "kind": "dev",
    "methods": {},
    "version": 1
  },
  "userdoc": {
    "kind": "user",
    "methods": {},
    "version": 1
  }
}