{
  "contractName": "ServiceAgreementV1",
  "abi": [
    {
      "inputs": [
        {
          "internalType": "address",
          "name": "hubAddress",
          "type": "address"
        }
      ],
      "stateMutability": "nonpayable",
      "type": "constructor"
    },
    {
      "anonymous": false,
      "inputs": [
        {
          "indexed": true,
          "internalType": "address",
          "name": "assetContract",
          "type": "address"
        },
        {
          "indexed": true,
          "internalType": "uint256",
          "name": "tokenId",
          "type": "uint256"
        },
        {
          "indexed": false,
          "internalType": "bytes",
          "name": "keyword",
          "type": "bytes"
        },
        {
          "indexed": false,
          "internalType": "uint8",
          "name": "hashFunctionId",
          "type": "uint8"
        },
        {
          "indexed": true,
          "internalType": "uint72",
          "name": "identityId",
          "type": "uint72"
        },
        {
          "indexed": false,
          "internalType": "uint40",
          "name": "score",
          "type": "uint40"
        }
      ],
      "name": "CommitSubmitted",
      "type": "event"
    },
    {
      "anonymous": false,
      "inputs": [
        {
          "indexed": false,
          "internalType": "bool",
          "name": "value",
          "type": "bool"
        },
        {
          "indexed": false,
          "internalType": "string",
          "name": "message",
          "type": "string"
        }
      ],
      "name": "Logger",
      "type": "event"
    },
    {
      "anonymous": false,
      "inputs": [
        {
          "indexed": true,
          "internalType": "address",
          "name": "assetContract",
          "type": "address"
        },
        {
          "indexed": true,
          "internalType": "uint256",
          "name": "tokenId",
          "type": "uint256"
        },
        {
          "indexed": false,
          "internalType": "bytes",
          "name": "keyword",
          "type": "bytes"
        },
        {
          "indexed": false,
          "internalType": "uint8",
          "name": "hashFunctionId",
          "type": "uint8"
        },
        {
          "indexed": true,
          "internalType": "uint72",
          "name": "identityId",
          "type": "uint72"
        }
      ],
      "name": "ProofSubmitted",
      "type": "event"
    },
    {
      "anonymous": false,
      "inputs": [
        {
          "indexed": true,
          "internalType": "address",
          "name": "assetContract",
          "type": "address"
        },
        {
          "indexed": true,
          "internalType": "uint256",
          "name": "tokenId",
          "type": "uint256"
        },
        {
          "indexed": false,
          "internalType": "bytes",
          "name": "keyword",
          "type": "bytes"
        },
        {
          "indexed": false,
          "internalType": "uint8",
          "name": "hashFunctionId",
          "type": "uint8"
        },
        {
          "indexed": false,
          "internalType": "uint256",
          "name": "startTime",
          "type": "uint256"
        },
        {
          "indexed": false,
          "internalType": "uint16",
          "name": "epochsNumber",
          "type": "uint16"
        },
        {
          "indexed": false,
          "internalType": "uint128",
          "name": "epochLength",
          "type": "uint128"
        },
        {
          "indexed": false,
          "internalType": "uint96",
          "name": "tokenAmount",
          "type": "uint96"
        }
      ],
      "name": "ServiceAgreementV1Created",
      "type": "event"
    },
    {
      "anonymous": false,
      "inputs": [
        {
          "indexed": true,
          "internalType": "address",
          "name": "assetContract",
          "type": "address"
        },
        {
          "indexed": true,
          "internalType": "uint256",
          "name": "tokenId",
          "type": "uint256"
        },
        {
          "indexed": false,
          "internalType": "bytes",
          "name": "keyword",
          "type": "bytes"
        },
        {
          "indexed": false,
          "internalType": "uint8",
          "name": "hashFunctionId",
          "type": "uint8"
        },
        {
          "indexed": false,
          "internalType": "uint16",
          "name": "epochsNumber",
          "type": "uint16"
        },
        {
          "indexed": false,
          "internalType": "uint96",
          "name": "tokenAmount",
          "type": "uint96"
        }
      ],
      "name": "ServiceAgreementV1Updated",
      "type": "event"
    },
    {
      "inputs": [
        {
          "internalType": "uint256",
          "name": "",
          "type": "uint256"
        }
      ],
      "name": "_reqs",
      "outputs": [
        {
          "internalType": "bool",
          "name": "",
          "type": "bool"
        }
      ],
      "stateMutability": "view",
      "type": "function"
    },
    {
      "inputs": [],
      "name": "assertionStorage",
      "outputs": [
        {
          "internalType": "contract AssertionStorage",
          "name": "",
          "type": "address"
        }
      ],
      "stateMutability": "view",
      "type": "function"
    },
    {
      "inputs": [],
      "name": "hashingProxy",
      "outputs": [
        {
          "internalType": "contract HashingProxy",
          "name": "",
          "type": "address"
        }
      ],
      "stateMutability": "view",
      "type": "function"
    },
    {
      "inputs": [],
      "name": "hub",
      "outputs": [
        {
          "internalType": "contract Hub",
          "name": "",
          "type": "address"
        }
      ],
      "stateMutability": "view",
      "type": "function"
    },
    {
      "inputs": [],
      "name": "identityStorage",
      "outputs": [
        {
          "internalType": "contract IdentityStorage",
          "name": "",
          "type": "address"
        }
      ],
      "stateMutability": "view",
      "type": "function"
    },
    {
      "inputs": [],
      "name": "parametersStorage",
      "outputs": [
        {
          "internalType": "contract ParametersStorage",
          "name": "",
          "type": "address"
        }
      ],
      "stateMutability": "view",
      "type": "function"
    },
    {
      "inputs": [],
      "name": "profileStorage",
      "outputs": [
        {
          "internalType": "contract ProfileStorage",
          "name": "",
          "type": "address"
        }
      ],
      "stateMutability": "view",
      "type": "function"
    },
    {
      "inputs": [],
      "name": "scoringProxy",
      "outputs": [
        {
          "internalType": "contract ScoringProxy",
          "name": "",
          "type": "address"
        }
      ],
      "stateMutability": "view",
      "type": "function"
    },
    {
      "inputs": [],
      "name": "serviceAgreementStorageV1",
      "outputs": [
        {
          "internalType": "contract ServiceAgreementStorageV1",
          "name": "",
          "type": "address"
        }
      ],
      "stateMutability": "view",
      "type": "function"
    },
    {
      "inputs": [],
      "name": "stakingContract",
      "outputs": [
        {
          "internalType": "contract Staking",
          "name": "",
          "type": "address"
        }
      ],
      "stateMutability": "view",
      "type": "function"
    },
    {
      "inputs": [],
      "name": "stakingStorage",
      "outputs": [
        {
          "internalType": "contract StakingStorage",
          "name": "",
          "type": "address"
        }
      ],
      "stateMutability": "view",
      "type": "function"
    },
    {
      "inputs": [],
      "name": "tokenContract",
      "outputs": [
        {
          "internalType": "contract IERC20",
          "name": "",
          "type": "address"
        }
      ],
      "stateMutability": "view",
      "type": "function"
    },
    {
      "inputs": [],
      "name": "initialize",
      "outputs": [],
      "stateMutability": "nonpayable",
      "type": "function"
    },
    {
      "inputs": [],
      "name": "name",
      "outputs": [
        {
          "internalType": "string",
          "name": "",
          "type": "string"
        }
      ],
      "stateMutability": "pure",
      "type": "function"
    },
    {
      "inputs": [],
      "name": "version",
      "outputs": [
        {
          "internalType": "string",
          "name": "",
          "type": "string"
        }
      ],
      "stateMutability": "pure",
      "type": "function"
    },
    {
      "inputs": [
        {
          "components": [
            {
              "internalType": "address",
              "name": "assetCreator",
              "type": "address"
            },
            {
              "internalType": "address",
              "name": "assetContract",
              "type": "address"
            },
            {
              "internalType": "uint256",
              "name": "tokenId",
              "type": "uint256"
            },
            {
              "internalType": "bytes",
              "name": "keyword",
              "type": "bytes"
            },
            {
              "internalType": "uint8",
              "name": "hashFunctionId",
              "type": "uint8"
            },
            {
              "internalType": "uint16",
              "name": "epochsNumber",
              "type": "uint16"
            },
            {
              "internalType": "uint96",
              "name": "tokenAmount",
              "type": "uint96"
            },
            {
              "internalType": "uint8",
              "name": "scoreFunctionId",
              "type": "uint8"
            }
          ],
          "internalType": "struct ServiceAgreementStructsV1.ServiceAgreementInputArgs",
          "name": "args",
          "type": "tuple"
        }
      ],
      "name": "createServiceAgreement",
      "outputs": [],
      "stateMutability": "nonpayable",
      "type": "function"
    },
    {
      "inputs": [
        {
          "components": [
            {
              "internalType": "address",
              "name": "assetCreator",
              "type": "address"
            },
            {
              "internalType": "address",
              "name": "assetContract",
              "type": "address"
            },
            {
              "internalType": "uint256",
              "name": "tokenId",
              "type": "uint256"
            },
            {
              "internalType": "bytes",
              "name": "keyword",
              "type": "bytes"
            },
            {
              "internalType": "uint8",
              "name": "hashFunctionId",
              "type": "uint8"
            },
            {
              "internalType": "uint16",
              "name": "epochsNumber",
              "type": "uint16"
            },
            {
              "internalType": "uint96",
              "name": "tokenAmount",
              "type": "uint96"
            },
            {
              "internalType": "uint8",
              "name": "scoreFunctionId",
              "type": "uint8"
            }
          ],
          "internalType": "struct ServiceAgreementStructsV1.ServiceAgreementInputArgs",
          "name": "args",
          "type": "tuple"
        }
      ],
      "name": "updateServiceAgreement",
      "outputs": [],
      "stateMutability": "nonpayable",
      "type": "function"
    },
    {
      "inputs": [
        {
          "internalType": "bytes32",
          "name": "agreementId",
          "type": "bytes32"
        },
        {
          "internalType": "uint16",
          "name": "epoch",
          "type": "uint16"
        }
      ],
      "name": "isCommitWindowOpen",
      "outputs": [
        {
          "internalType": "bool",
          "name": "",
          "type": "bool"
        }
      ],
      "stateMutability": "view",
      "type": "function"
    },
    {
      "inputs": [
        {
          "internalType": "bytes32",
          "name": "agreementId",
          "type": "bytes32"
        },
        {
          "internalType": "uint16",
          "name": "epoch",
          "type": "uint16"
        }
      ],
      "name": "getTopCommitSubmissions",
      "outputs": [
        {
          "components": [
            {
              "internalType": "uint72",
              "name": "identityId",
              "type": "uint72"
            },
            {
              "internalType": "uint72",
              "name": "prevIdentityId",
              "type": "uint72"
            },
            {
              "internalType": "uint72",
              "name": "nextIdentityId",
              "type": "uint72"
            },
            {
              "internalType": "uint40",
              "name": "score",
              "type": "uint40"
            }
          ],
          "internalType": "struct ServiceAgreementStructsV1.CommitSubmission[]",
          "name": "",
          "type": "tuple[]"
        }
      ],
      "stateMutability": "view",
      "type": "function"
    },
    {
      "inputs": [
        {
          "components": [
            {
              "internalType": "address",
              "name": "assetContract",
              "type": "address"
            },
            {
              "internalType": "uint256",
              "name": "tokenId",
              "type": "uint256"
            },
            {
              "internalType": "bytes",
              "name": "keyword",
              "type": "bytes"
            },
            {
              "internalType": "uint8",
              "name": "hashFunctionId",
              "type": "uint8"
            },
            {
              "internalType": "uint16",
              "name": "epoch",
              "type": "uint16"
            }
          ],
          "internalType": "struct ServiceAgreementStructsV1.CommitInputArgs",
          "name": "args",
          "type": "tuple"
        }
      ],
      "name": "submitCommit",
      "outputs": [],
      "stateMutability": "nonpayable",
      "type": "function"
    },
    {
      "inputs": [
        {
          "internalType": "bytes32",
          "name": "agreementId",
          "type": "bytes32"
        },
        {
          "internalType": "uint16",
          "name": "epoch",
          "type": "uint16"
        }
      ],
      "name": "isProofWindowOpen",
      "outputs": [
        {
          "internalType": "bool",
          "name": "",
          "type": "bool"
        }
      ],
      "stateMutability": "view",
      "type": "function"
    },
    {
      "inputs": [
        {
          "internalType": "address",
          "name": "sender",
          "type": "address"
        },
        {
          "internalType": "address",
          "name": "assetContract",
          "type": "address"
        },
        {
          "internalType": "uint256",
          "name": "tokenId",
          "type": "uint256"
        },
        {
          "internalType": "uint16",
          "name": "epoch",
          "type": "uint16"
        }
      ],
      "name": "getChallenge",
      "outputs": [
        {
          "internalType": "bytes32",
          "name": "",
          "type": "bytes32"
        },
        {
          "internalType": "uint256",
          "name": "",
          "type": "uint256"
        }
      ],
      "stateMutability": "view",
      "type": "function"
    },
    {
      "inputs": [
        {
          "components": [
            {
              "internalType": "address",
              "name": "assetContract",
              "type": "address"
            },
            {
              "internalType": "uint256",
              "name": "tokenId",
              "type": "uint256"
            },
            {
              "internalType": "bytes",
              "name": "keyword",
              "type": "bytes"
            },
            {
              "internalType": "uint8",
              "name": "hashFunctionId",
              "type": "uint8"
            },
            {
              "internalType": "uint16",
              "name": "epoch",
              "type": "uint16"
            },
            {
              "internalType": "bytes32[]",
              "name": "proof",
              "type": "bytes32[]"
            },
            {
              "internalType": "bytes32",
              "name": "chunkHash",
              "type": "bytes32"
            }
          ],
          "internalType": "struct ServiceAgreementStructsV1.ProofInputArgs",
          "name": "args",
          "type": "tuple"
        }
      ],
      "name": "sendProof",
      "outputs": [],
      "stateMutability": "nonpayable",
      "type": "function"
    },
    {
      "inputs": [
        {
          "internalType": "uint8",
          "name": "idx",
          "type": "uint8"
        },
        {
          "internalType": "bool",
          "name": "req",
          "type": "bool"
        }
      ],
      "name": "setReq",
      "outputs": [],
      "stateMutability": "nonpayable",
      "type": "function"
    }
  ],
  "bytecode": "0x6101006040526001608081815260a082905260c082905260e0919091526200002c906000906004620007ea565b503480156200003a57600080fd5b5060405162005824380380620058248339810160408190526200005d916200089a565b6001600160a01b0381166200007157600080fd5b600180546001600160a01b0319166001600160a01b038316179055620000966200009d565b50620008cc565b620000a762000709565b600154604051630110ceef60e21b815260206004820152600c60248201526b48617368696e6750726f787960a01b60448201526001600160a01b03909116906304433bbc90606401602060405180830381865afa1580156200010d573d6000803e3d6000fd5b505050506040513d601f19601f820116820180604052508101906200013391906200089a565b600280546001600160a01b0319166001600160a01b03928316179055600154604051630110ceef60e21b815260206004820152600c60248201526b53636f72696e6750726f787960a01b60448201529116906304433bbc90606401602060405180830381865afa158015620001ac573d6000803e3d6000fd5b505050506040513d601f19601f82011682018060405250810190620001d291906200089a565b600380546001600160a01b0319166001600160a01b03928316179055600154604051630110ceef60e21b81526020600482015260076024820152665374616b696e6760c81b60448201529116906304433bbc90606401602060405180830381865afa15801562000246573d6000803e3d6000fd5b505050506040513d601f19601f820116820180604052508101906200026c91906200089a565b600480546001600160a01b039283166001600160a01b0319909116178155600154604051630110ceef60e21b81529216916304433bbc91620002d3910160208082526010908201526f417373657274696f6e53746f7261676560801b604082015260600190565b602060405180830381865afa158015620002f1573d6000803e3d6000fd5b505050506040513d601f19601f820116820180604052508101906200031791906200089a565b600580546001600160a01b0319166001600160a01b03928316179055600154604051630110ceef60e21b815260206004820152600f60248201526e4964656e7469747953746f7261676560881b60448201529116906304433bbc90606401602060405180830381865afa15801562000393573d6000803e3d6000fd5b505050506040513d601f19601f82011682018060405250810190620003b991906200089a565b600680546001600160a01b0319166001600160a01b03928316179055600154604051630110ceef60e21b8152602060048201526011602482015270506172616d657465727353746f7261676560781b60448201529116906304433bbc90606401602060405180830381865afa15801562000437573d6000803e3d6000fd5b505050506040513d601f19601f820116820180604052508101906200045d91906200089a565b600780546001600160a01b0319166001600160a01b03928316179055600154604051630110ceef60e21b815260206004820152600e60248201526d50726f66696c6553746f7261676560901b60448201529116906304433bbc90606401602060405180830381865afa158015620004d8573d6000803e3d6000fd5b505050506040513d601f19601f82011682018060405250810190620004fe91906200089a565b600880546001600160a01b0319166001600160a01b03928316179055600154604051630110ceef60e21b815260206004820152601960248201527f5365727669636541677265656d656e7453746f7261676556310000000000000060448201529116906304433bbc90606401602060405180830381865afa15801562000588573d6000803e3d6000fd5b505050506040513d601f19601f82011682018060405250810190620005ae91906200089a565b600980546001600160a01b0319166001600160a01b03928316179055600154604051630110ceef60e21b815260206004820152600e60248201526d5374616b696e6753746f7261676560901b60448201529116906304433bbc90606401602060405180830381865afa15801562000629573d6000803e3d6000fd5b505050506040513d601f19601f820116820180604052508101906200064f91906200089a565b600a80546001600160a01b0319166001600160a01b03928316179055600154604051630110ceef60e21b81526020600482015260056024820152642a37b5b2b760d91b60448201529116906304433bbc90606401602060405180830381865afa158015620006c1573d6000803e3d6000fd5b505050506040513d601f19601f82011682018060405250810190620006e791906200089a565b600b80546001600160a01b0319166001600160a01b0392909216919091179055565b600160009054906101000a90046001600160a01b03166001600160a01b0316638da5cb5b6040518163ffffffff1660e01b8152600401602060405180830381865afa1580156200075d573d6000803e3d6000fd5b505050506040513d601f19601f820116820180604052508101906200078391906200089a565b6001600160a01b0316336001600160a01b031614620007e85760405162461bcd60e51b815260206004820181905260248201527f466e2063616e206f6e6c79206265207573656420627920687562206f776e6572604482015260640160405180910390fd5b565b600183019183908215620008715791602002820160005b838211156200084057835183826101000a81548160ff021916908315150217905550926020019260010160208160000104928301926001030262000801565b80156200086f5782816101000a81549060ff021916905560010160208160000104928301926001030262000840565b505b506200087f92915062000883565b5090565b5b808211156200087f576000815560010162000884565b600060208284031215620008ad57600080fd5b81516001600160a01b0381168114620008c557600080fd5b9392505050565b614f4880620008dc6000396000f3fe608060405234801561001057600080fd5b50600436106101585760003560e01c80637522c2b1116100c3578063becdd5971161007c578063becdd5971461032b578063d210b7cf1461033e578063e1572ce614610351578063ee99205c14610364578063f11abfd814610377578063f42cb0381461038a57600080fd5b80637522c2b1146102b75780637662966a146102ca5780637db4ffd8146102dd5780638129fc1c146102fd578063aa6a00fd14610305578063b518a00e1461031857600080fd5b8063271af8a811610115578063271af8a814610237578063365a86fc1461024a57806350d0c1441461025d57806354fd4d501461027057806355a373d614610291578063639a86a3146102a457600080fd5b806305d6388b1461015d57806306fdde03146101855780630b716d5d146101bc5780630f002016146101d157806311c94ee8146101f9578063169df8d814610224575b600080fd5b61017061016b3660046144a0565b61039d565b60405190151581526020015b60405180910390f35b6040805180820190915260128152715365727669636541677265656d656e74563160701b60208201525b60405161017c9190614509565b6101cf6101ca36600461453c565b6103c7565b005b6101e46101df36600461459a565b610409565b6040805192835260208301919091520161017c565b60025461020c906001600160a01b031681565b6040516001600160a01b03909116815260200161017c565b6101cf6102323660046145ed565b61061e565b6101cf610245366004614628565b6109b7565b60015461020c906001600160a01b031681565b60095461020c906001600160a01b031681565b6040805180820190915260058152640312e302e360dc1b60208201526101af565b600b5461020c906001600160a01b031681565b60075461020c906001600160a01b031681565b6101cf6102c5366004614664565b6111c4565b60035461020c906001600160a01b031681565b6102f06102eb36600461469f565b611eab565b60405161017c91906146c4565b6101cf61231d565b61017061031336600461469f565b612968565b600a5461020c906001600160a01b031681565b61017061033936600461469f565b612cd6565b60055461020c906001600160a01b031681565b6101cf61035f366004614628565b613001565b60045461020c906001600160a01b031681565b60065461020c906001600160a01b031681565b60085461020c906001600160a01b031681565b600081600481106103ad57600080fd5b60209182820401919006915054906101000a900460ff1681565b6103cf613995565b8060008360ff16600481106103e6576103e661473d565b602091828204019190066101000a81548160ff0219169083151502179055505050565b60065460405163010cf48d60e71b81526001600160a01b038681166004830152600092839283929091169063867a468090602401602060405180830381865afa15801561045a573d6000803e3d6000fd5b505050506040513d601f19601f8201168201806040525081019061047e919061476f565b60405163cede992f60e01b81526004810187905290915086906000906001600160a01b0383169063cede992f90602401602060405180830381865afa1580156104cb573d6000803e3d6000fd5b505050506040513d601f19601f820116820180604052508101906104ef919061478a565b600554604051632111070960e01b8152600481018390529192506000916001600160a01b0390911690632111070990602401602060405180830381865afa15801561053e573d6000803e3d6000fd5b505050506040513d601f19601f8201168201806040525081019061056291906147b8565b6001600160601b031690508181600289876040516020016105a992919060f09290921b6001600160f01b031916825260b81b6001600160b81b0319166002820152600b0190565b60408051601f19818403018152908290526105c3916147d5565b602060405180830381855afa1580156105e0573d6000803e3d6000fd5b5050506040513d601f19601f82011682018060405250810190610603919061478a565b61060d9190614807565b955095505050505094509492505050565b6000610657610630602084018461481b565b60208401356106426040860186614838565b6106526080880160608901614886565b613a6e565b905061066d8161033960a08501608086016148a3565b6106be5760405162461bcd60e51b815260206004820152601760248201527f436f6d6d69742077696e646f7720697320636c6f73656400000000000000000060448201526064015b60405180910390fd5b60065460405163010cf48d60e71b81523360048201526000916001600160a01b03169063867a468090602401602060405180830381865afa158015610707573d6000803e3d6000fd5b505050506040513d601f19601f8201168201806040525081019061072b919061476f565b60035460095460405163ce60dc6160e01b8152600481018690529293506000926001600160a01b0392831692630b47a00892169063ce60dc6190602401602060405180830381865afa158015610785573d6000803e3d6000fd5b505050506040513d601f19601f820116820180604052508101906107a991906148c0565b6107b96080880160608901614886565b6008546040516320e085cd60e11b81526001600160481b03881660048201526001600160a01b03909116906341c10b9a90602401600060405180830381865afa15801561080a573d6000803e3d6000fd5b505050506040513d6000823e601f3d908101601f1916820160405261083291908101906148f3565b61083f60408a018a614838565b600a54604051639d2b48ad60e01b81526001600160481b038b1660048201526001600160a01b0390911690639d2b48ad90602401602060405180830381865afa158015610890573d6000803e3d6000fd5b505050506040513d601f19601f820116820180604052508101906108b491906147b8565b6040518763ffffffff1660e01b81526004016108d5969594939291906149c9565b602060405180830381865afa1580156108f2573d6000803e3d6000fd5b505050506040513d601f19601f820116820180604052508101906109169190614a33565b90506109368361092c60a08701608088016148a3565b8460008086613b14565b6001600160481b03821660208501803590610951908761481b565b6001600160a01b03167f06d678193262cc8cf0c98a32a42cc9c6ccb379cf09a5766360b3a6b6d59723d36109886040890189614838565b61099860808b0160608c01614886565b876040516109a99493929190614a4e565b60405180910390a450505050565b6109bf6141b9565b60006109f66109d4604084016020850161481b565b60408401356109e66060860186614838565b61065260a0880160808901614886565b6009549091506001600160a01b03166000610a14602085018561481b565b6001600160a01b031603610a6a5760405162461bcd60e51b815260206004820152601b60248201527f41737365742063726561746f722063616e6e6f7420626520307830000000000060448201526064016106b5565b6040516310dc199160e31b8152600481018390526001600160a01b038216906386e0cc8890602401602060405180830381865afa158015610aaf573d6000803e3d6000fd5b505050506040513d601f19601f82011682018060405250810190610ad39190614a83565b610aef5760405162461bcd60e51b81526004016106b590614aa0565b610aff60c0840160a085016148a3565b61ffff16600003610b4e5760405162461bcd60e51b8152602060048201526019602482015278045706f636873206e756d6265722063616e6e6f74206265203603c1b60448201526064016106b5565b610b5e60e0840160c08501614ad7565b6001600160601b0316600003610bb15760405162461bcd60e51b81526020600482015260186024820152770546f6b656e20616d6f756e742063616e6e6f7420626520360441b60448201526064016106b5565b6003546001600160a01b031663e12e56a7610bd3610100860160e08701614886565b6040516001600160e01b031960e084901b16815260ff9091166004820152602401602060405180830381865afa158015610c11573d6000803e3d6000fd5b505050506040513d601f19601f82011682018060405250810190610c359190614a83565b610c815760405162461bcd60e51b815260206004820152601c60248201527f53636f72652066756e6374696f6e20646f65736e27742065786973740000000060448201526064016106b5565b604051634089a17d60e01b8152600481018390526000906001600160a01b03831690634089a17d90602401602060405180830381865afa158015610cc9573d6000803e3d6000fd5b505050506040513d601f19601f82011682018060405250810190610ced91906147b8565b90506001600160a01b038216630f3a549d84610d0f60c0880160a089016148a3565b6040516001600160e01b031960e085901b168152600481019290925261ffff166024820152604401600060405180830381600087803b158015610d5157600080fd5b505af1158015610d65573d6000803e3d6000fd5b5050506001600160a01b038316905063e54b26ff84610d8a60e0880160c08901614ad7565b6040516001600160e01b031960e085901b16815260048101929092526001600160601b03166024820152604401600060405180830381600087803b158015610dd157600080fd5b505af1158015610de5573d6000803e3d6000fd5b5050506001600160a01b0383169050636441a27684610e0b610100880160e08901614886565b6040516001600160e01b031960e085901b168152600481019290925260ff166024820152604401600060405180830381600087803b158015610e4c57600080fd5b505af1158015610e60573d6000803e3d6000fd5b5050600b546001600160a01b03169150829050610e8360e0870160c08801614ad7565b610e8d9190614b0a565b6001600160601b03166001600160a01b03821663dd62ed3e610eb2602089018961481b565b6040516001600160e01b031960e084901b1681526001600160a01b039091166004820152306024820152604401602060405180830381865afa158015610efc573d6000803e3d6000fd5b505050506040513d601f19601f82011682018060405250810190610f20919061478a565b1015610f795760405162461bcd60e51b815260206004820152602260248201527f53656e64657220616c6c6f77616e6365206d757374206265203e3d20616d6f756044820152611b9d60f21b60648201526084016106b5565b81610f8a60e0870160c08801614ad7565b610f949190614b0a565b6001600160601b03166001600160a01b0382166370a08231610fb9602089018961481b565b6040516001600160e01b031960e084901b1681526001600160a01b039091166004820152602401602060405180830381865afa158015610ffd573d6000803e3d6000fd5b505050506040513d601f19601f82011682018060405250810190611021919061478a565b101561106f5760405162461bcd60e51b815260206004820181905260248201527f53656e6465722062616c616e6365206d757374206265203e3d20616d6f756e7460448201526064016106b5565b6001600160a01b0381166323b872dd61108b602088018861481b565b858561109d60e08b0160c08c01614ad7565b6110a79190614b0a565b6040516001600160e01b031960e086901b1681526001600160a01b0393841660048201529290911660248301526001600160601b031660448201526064016020604051808303816000875af1158015611104573d6000803e3d6000fd5b505050506040513d601f19601f820116820180604052508101906111289190614a83565b506040850180359061113d906020880161481b565b6001600160a01b03167f18f7112b7bab68afa5bae58afb27a44357ea01c2850f33e5b17e264de835ef306111746060890189614838565b61118460a08b0160808c01614886565b61119460c08c0160a08d016148a3565b6111a460e08d0160c08e01614ad7565b6040516111b5959493929190614b31565b60405180910390a35050505050565b60006111d6610630602084018461481b565b60005490915060ff16806111f957506111f98161031360a08501608086016148a3565b61123e5760405162461bcd60e51b8152602060048201526016602482015275141c9bdbd9881dda5b991bddc81a5cc818db1bdcd95960521b60448201526064016106b5565b600080516020614ef38339815191526112618261031360a08601608087016148a3565b60408051911515825260208201819052600490820152637265713160e01b606082015260800160405180910390a160065460405163010cf48d60e71b81523360048201526001600160a01b0390911690600090829063867a468090602401602060405180830381865afa1580156112dc573d6000803e3d6000fd5b505050506040513d601f19601f82011682018060405250810190611300919061476f565b6009546000549192506001600160a01b031690610100900460ff16806113d357506001600160a01b038116635c6c1fef8561134160a0890160808a016148a3565b8560405160200161135493929190614b72565b604051602081830303815290604052805190602001206040518263ffffffff1660e01b815260040161138891815260200190565b602060405180830381865afa1580156113a5573d6000803e3d6000fd5b505050506040513d601f19601f820116820180604052508101906113c99190614a33565b64ffffffffff1615155b61141f5760405162461bcd60e51b815260206004820152601c60248201527f596f75277665206265656e20616c72656164792072657761726465640000000060448201526064016106b5565b600080516020614ef38339815191526001600160a01b038216635c6c1fef8661144e60a08a0160808b016148a3565b8660405160200161146193929190614b72565b604051602081830303815290604052805190602001206040518263ffffffff1660e01b815260040161149591815260200190565b602060405180830381865afa1580156114b2573d6000803e3d6000fd5b505050506040513d601f19601f820116820180604052508101906114d69190614a33565b6040805164ffffffffff9092161515825260208201819052600490820152633932b89960e11b606082015260800160405180910390a160006001600160a01b03821663572943f78661152e60a08a0160808b016148a3565b6040516001600160e01b031960e085901b168152600481019290925261ffff166024820152604401602060405180830381865afa158015611573573d6000803e3d6000fd5b505050506040513d601f19601f82011682018060405250810190611597919061478a565b90506000600760009054906101000a90046001600160a01b03166001600160a01b0316638d73d86a6040518163ffffffff1660e01b8152600401602060405180830381865afa1580156115ee573d6000803e3d6000fd5b505050506040513d601f19601f820116820180604052508101906116129190614ba2565b905060005b604051620153f560ea1b8152600481018490526001600160a01b0385169063054fd40090602401602060405180830381865afa15801561165b573d6000803e3d6000fd5b505050506040513d601f19601f8201168201806040525081019061167f919061476f565b6001600160481b0316856001600160481b0316141580156116a857508163ffffffff168160ff16105b1561175b57866116be60a08a0160808b016148a3565b604051635b3db70f60e11b8152600481018690526001600160a01b0387169063b67b6e1e90602401602060405180830381865afa158015611703573d6000803e3d6000fd5b505050506040513d601f19601f82011682018060405250810190611727919061476f565b60405160200161173993929190614b72565b60408051601f1981840301815291905280516020909101209250600101611617565b60005462010000900460ff168061177a57508163ffffffff168160ff16105b6117ec5760405162461bcd60e51b815260206004820152603a60248201527f596f7572206e6f6465206861736e2774206265656e206177617264656420666f60448201527f72207468697320617373657420696e20746869732065706f636800000000000060648201526084016106b5565b600080516020614ef38339815191528263ffffffff168260ff16106040516118349115158152604060208201819052600490820152637265713360e01b606082015260800190565b60405180910390a16000806118683361185060208d018d61481b565b8c602001358d60800160208101906101df91906148a3565b60005491935091506301000000900460ff16806118fe57506118fe61189060a08c018c614bc8565b80806020026020016040519081016040528093929190818152602001838360200280828437600092019190915250506040518692506118e3915060c08f0135908690602001918252602082015260400190565b60405160208183030381529060405280519060200120614271565b61194a5760405162461bcd60e51b815260206004820152601760248201527f526f6f74206861736820646f65736e2774206d6174636800000000000000000060448201526064016106b5565b600080516020614ef38339815191526119ca61196960a08d018d614bc8565b80806020026020016040519081016040528093929190818152602001838360200280828437600081840152601f19601f82011690508083019250505050505050848d60c00135856040516020016118e3929190918252602082015260400190565b60408051911515825260208201819052600490820152631c995c4d60e21b606082015260800160405180910390a16001600160481b03871660208b01803590611a13908d61481b565b6001600160a01b03167f366aaa9c8abe80c090bc64cea91ec9dd40e38cc712d3381824709c5a1562f2c4611a4a60408f018f614838565b8f6060016020810190611a5d9190614886565b604051611a6c93929190614c12565b60405180910390a46000866001600160a01b031663ac9d7cf48b8d6080016020810190611a9991906148a3565b6040516001600160e01b031960e085901b168152600481019290925261ffff166024820152604401602060405180830381865afa158015611ade573d6000803e3d6000fd5b505050506040513d601f19601f82011682018060405250810190611b029190614ba2565b611b0c9086614c39565b63ffffffff16611b2260a08d0160808e016148a3565b60405163d1a640c760e01b8152600481018d90526001600160a01b038a169063d1a640c790602401602060405180830381865afa158015611b67573d6000803e3d6000fd5b505050506040513d601f19601f82011682018060405250810190611b8b9190614c56565b611b959190614c73565b611ba0906001614c8e565b61ffff16886001600160a01b0316634089a17d8d6040518263ffffffff1660e01b8152600401611bd291815260200190565b602060405180830381865afa158015611bef573d6000803e3d6000fd5b505050506040513d601f19601f82011682018060405250810190611c1391906147b8565b611c1d9190614ca9565b611c279190614ca9565b6004805460405163a7b5dd5960e01b81526001600160481b038c16928101929092526001600160601b03831660248301529192506001600160a01b039091169063a7b5dd5990604401600060405180830381600087803b158015611c8a57600080fd5b505af1158015611c9e573d6000803e3d6000fd5b5050604051634089a17d60e01b8152600481018d90526001600160a01b038a16925063e54b26ff91508c9084908490634089a17d90602401602060405180830381865afa158015611cf3573d6000803e3d6000fd5b505050506040513d601f19601f82011682018060405250810190611d1791906147b8565b611d219190614b0a565b6040516001600160e01b031960e085901b16815260048101929092526001600160601b03166024820152604401600060405180830381600087803b158015611d6857600080fd5b505af1158015611d7c573d6000803e3d6000fd5b50505050866001600160a01b031663beca40f38b8d6080016020810190611da391906148a3565b6040516001600160e01b031960e085901b168152600481019290925261ffff166024820152604401600060405180830381600087803b158015611de557600080fd5b505af1158015611df9573d6000803e3d6000fd5b50505050866001600160a01b0316633d6317168b8d6080016020810190611e2091906148a3565b8b604051602001611e3393929190614b72565b60408051601f198184030181529082905280516020909101206001600160e01b031960e084901b168252600482015260006024820152604401600060405180830381600087803b158015611e8657600080fd5b505af1158015611e9a573d6000803e3d6000fd5b505050505050505050505050505050565b6009546040516310dc199160e31b8152600481018490526060916001600160a01b03169081906386e0cc8890602401602060405180830381865afa158015611ef7573d6000803e3d6000fd5b505050506040513d601f19601f82011682018060405250810190611f1b9190614a83565b611f375760405162461bcd60e51b81526004016106b590614aa0565b60405163d1a640c760e01b8152600481018590526001600160a01b0382169063d1a640c790602401602060405180830381865afa158015611f7c573d6000803e3d6000fd5b505050506040513d601f19601f82011682018060405250810190611fa09190614c56565b61ffff168361ffff1610611ff25760405162461bcd60e51b815260206004820152601960248201527814d95c9d9a58d9481059dc99595b595b9d08195e1c1a5c9959603a1b60448201526064016106b5565b600754604080516346b9ec3560e11b815290516000926001600160a01b031691638d73d86a9160048083019260209291908290030181865afa15801561203c573d6000803e3d6000fd5b505050506040513d601f19601f820116820180604052508101906120609190614ba2565b905060008163ffffffff1667ffffffffffffffff811115612083576120836148dd565b6040519080825280602002602001820160405280156120d557816020015b6040805160808101825260008082526020808301829052928201819052606082015282526000199092019101816120a15790505b5060405163572943f760e01b81526004810188905261ffff871660248201529091506000906001600160a01b0385169063572943f790604401602060405180830381865afa15801561212b573d6000803e3d6000fd5b505050506040513d601f19601f8201168201806040525081019061214f919061478a565b60405163223dea6d60e21b8152600481018290529091506001600160a01b038516906388f7a9b490602401608060405180830381865afa158015612197573d6000803e3d6000fd5b505050506040513d601f19601f820116820180604052508101906121bb9190614ccf565b826000815181106121ce576121ce61473d565b6020026020010181905250600080836000815181106121ef576121ef61473d565b60200260200101516040015190506000600190505b8563ffffffff168160ff1610801561222457506001600160481b03821615155b1561230d5789898360405160200161223e93929190614b72565b60408051808303601f1901815290829052805160209091012063223dea6d60e21b82526004820181905293506001600160a01b038816906388f7a9b490602401608060405180830381865afa15801561229b573d6000803e3d6000fd5b505050506040513d601f19601f820116820180604052508101906122bf9190614ccf565b858260ff16815181106122d4576122d461473d565b6020026020010181905250848160ff16815181106122f4576122f461473d565b6020908102919091010151604001519150600101612204565b5092955050505050505b92915050565b612325613995565b600154604051630110ceef60e21b815260206004820152600c60248201526b48617368696e6750726f787960a01b60448201526001600160a01b03909116906304433bbc90606401602060405180830381865afa15801561238a573d6000803e3d6000fd5b505050506040513d601f19601f820116820180604052508101906123ae9190614d4c565b600280546001600160a01b0319166001600160a01b03928316179055600154604051630110ceef60e21b815260206004820152600c60248201526b53636f72696e6750726f787960a01b60448201529116906304433bbc90606401602060405180830381865afa158015612426573d6000803e3d6000fd5b505050506040513d601f19601f8201168201806040525081019061244a9190614d4c565b600380546001600160a01b0319166001600160a01b03928316179055600154604051630110ceef60e21b81526020600482015260076024820152665374616b696e6760c81b60448201529116906304433bbc90606401602060405180830381865afa1580156124bd573d6000803e3d6000fd5b505050506040513d601f19601f820116820180604052508101906124e19190614d4c565b600480546001600160a01b039283166001600160a01b0319909116178155600154604051630110ceef60e21b81529216916304433bbc91612547910160208082526010908201526f417373657274696f6e53746f7261676560801b604082015260600190565b602060405180830381865afa158015612564573d6000803e3d6000fd5b505050506040513d601f19601f820116820180604052508101906125889190614d4c565b600580546001600160a01b0319166001600160a01b03928316179055600154604051630110ceef60e21b815260206004820152600f60248201526e4964656e7469747953746f7261676560881b60448201529116906304433bbc90606401602060405180830381865afa158015612603573d6000803e3d6000fd5b505050506040513d601f19601f820116820180604052508101906126279190614d4c565b600680546001600160a01b0319166001600160a01b03928316179055600154604051630110ceef60e21b8152602060048201526011602482015270506172616d657465727353746f7261676560781b60448201529116906304433bbc90606401602060405180830381865afa1580156126a4573d6000803e3d6000fd5b505050506040513d601f19601f820116820180604052508101906126c89190614d4c565b600780546001600160a01b0319166001600160a01b03928316179055600154604051630110ceef60e21b815260206004820152600e60248201526d50726f66696c6553746f7261676560901b60448201529116906304433bbc90606401602060405180830381865afa158015612742573d6000803e3d6000fd5b505050506040513d601f19601f820116820180604052508101906127669190614d4c565b600880546001600160a01b0319166001600160a01b03928316179055600154604051630110ceef60e21b815260206004820152601960248201527f5365727669636541677265656d656e7453746f7261676556310000000000000060448201529116906304433bbc90606401602060405180830381865afa1580156127ef573d6000803e3d6000fd5b505050506040513d601f19601f820116820180604052508101906128139190614d4c565b600980546001600160a01b0319166001600160a01b03928316179055600154604051630110ceef60e21b815260206004820152600e60248201526d5374616b696e6753746f7261676560901b60448201529116906304433bbc90606401602060405180830381865afa15801561288d573d6000803e3d6000fd5b505050506040513d601f19601f820116820180604052508101906128b19190614d4c565b600a80546001600160a01b0319166001600160a01b03928316179055600154604051630110ceef60e21b81526020600482015260056024820152642a37b5b2b760d91b60448201529116906304433bbc90606401602060405180830381865afa158015612922573d6000803e3d6000fd5b505050506040513d601f19601f820116820180604052508101906129469190614d4c565b600b80546001600160a01b0319166001600160a01b0392909216919091179055565b600954604051630271c2cf60e61b8152600481018490526000916001600160a01b03169082908290639c70b3c090602401602060405180830381865afa1580156129b6573d6000803e3d6000fd5b505050506040513d601f19601f820116820180604052508101906129da919061478a565b9050806000036129fc5760405162461bcd60e51b81526004016106b590614aa0565b60405163d1a640c760e01b8152600481018690526001600160a01b0383169063d1a640c790602401602060405180830381865afa158015612a41573d6000803e3d6000fd5b505050506040513d601f19601f82011682018060405250810190612a659190614c56565b61ffff168461ffff1610612ab75760405162461bcd60e51b815260206004820152601960248201527814d95c9d9a58d9481059dc99595b595b9d08195e1c1a5c9959603a1b60448201526064016106b5565b60405163484a47e760e01b81526004810186905242906000906001600160a01b0385169063484a47e790602401602060405180830381865afa158015612b01573d6000803e3d6000fd5b505050506040513d601f19601f82011682018060405250810190612b259190614d69565b6040516399149f7760e01b8152600481018990529091506000906001600160a01b038616906399149f7790602401602060405180830381865afa158015612b70573d6000803e3d6000fd5b505050506040513d601f19601f82011682018060405250810190612b9491906148c0565b905060006064612ba760ff841685614d92565b612bb19190614dc1565b6001600160801b0316905060006064600760009054906101000a90046001600160a01b03166001600160a01b0316639d3ceb0c6040518163ffffffff1660e01b8152600401602060405180830381865afa158015612c13573d6000803e3d6000fd5b505050506040513d601f19601f82011682018060405250810190612c3791906148c0565b612c449060ff1686614d92565b612c4e9190614dc1565b6001600160801b0316905081612c6861ffff8b1686614d92565b612c7b906001600160801b031688614ddb565b612c859190614ddb565b85118015612cc857508082612c9e61ffff8c1687614d92565b612cb1906001600160801b031689614ddb565b612cbb9190614ddb565b612cc59190614ddb565b85105b9a9950505050505050505050565b600954604051630271c2cf60e61b8152600481018490526000916001600160a01b03169082908290639c70b3c090602401602060405180830381865afa158015612d24573d6000803e3d6000fd5b505050506040513d601f19601f82011682018060405250810190612d48919061478a565b905080600003612d6a5760405162461bcd60e51b81526004016106b590614aa0565b60405163d1a640c760e01b8152600481018690526001600160a01b0383169063d1a640c790602401602060405180830381865afa158015612daf573d6000803e3d6000fd5b505050506040513d601f19601f82011682018060405250810190612dd39190614c56565b61ffff168461ffff1610612e345760405162461bcd60e51b815260206004820152602260248201527f536572766963652041677265656d656e7420686173206265656e206578706972604482015261195960f21b60648201526084016106b5565b60075460405163484a47e760e01b8152600481018790526001600160a01b0391821691429160009186169063484a47e790602401602060405180830381865afa158015612e85573d6000803e3d6000fd5b505050506040513d601f19601f82011682018060405250810190612ea99190614d69565b90508661ffff16600003612f3557826001600160a01b031663e8d487ff6040518163ffffffff1660e01b8152600401602060405180830381865afa158015612ef5573d6000803e3d6000fd5b505050506040513d601f19601f82011682018060405250810190612f199190614c56565b612f279061ffff1685614ddb565b821095505050505050612317565b612f4361ffff881682614d92565b612f56906001600160801b031685614ddb565b82118015612ff55750826001600160a01b031663e8d487ff6040518163ffffffff1660e01b8152600401602060405180830381865afa158015612f9d573d6000803e3d6000fd5b505050506040513d601f19601f82011682018060405250810190612fc19190614c56565b61ffff168761ffff1682612fd59190614d92565b612fe8906001600160801b031686614ddb565b612ff29190614ddb565b82105b98975050505050505050565b6130096141b9565b6000613018602083018361481b565b6001600160a01b03160361306e5760405162461bcd60e51b815260206004820152601b60248201527f41737365742063726561746f722063616e6e6f7420626520307830000000000060448201526064016106b5565b6001546001600160a01b03166334f702db61308f604084016020850161481b565b6040516001600160e01b031960e084901b1681526001600160a01b039091166004820152602401602060405180830381865afa1580156130d3573d6000803e3d6000fd5b505050506040513d601f19601f820116820180604052508101906130f79190614a83565b6131435760405162461bcd60e51b815260206004820152601c60248201527f41737365742053746f72616765206e6f7420696e20746865206875620000000060448201526064016106b5565b7fc5d2460186f7233c927e7db2dcc703c0e500b653ca82273b7bfad8045d85a4706131716060830183614838565b60405161317f929190614dee565b6040518091039020036131cd5760405162461bcd60e51b81526020600482015260166024820152754b6579776f72642063616e277420626520656d70747960501b60448201526064016106b5565b6131dd60c0820160a083016148a3565b61ffff1660000361322c5760405162461bcd60e51b8152602060048201526019602482015278045706f636873206e756d6265722063616e6e6f74206265203603c1b60448201526064016106b5565b61323c60e0820160c08301614ad7565b6001600160601b031660000361328f5760405162461bcd60e51b81526020600482015260186024820152770546f6b656e20616d6f756e742063616e6e6f7420626520360441b60448201526064016106b5565b6003546001600160a01b031663e12e56a76132b1610100840160e08501614886565b6040516001600160e01b031960e084901b16815260ff9091166004820152602401602060405180830381865afa1580156132ef573d6000803e3d6000fd5b505050506040513d601f19601f820116820180604052508101906133139190614a83565b61335f5760405162461bcd60e51b815260206004820152601c60248201527f53636f72652066756e6374696f6e20646f65736e27742065786973740000000060448201526064016106b5565b60006133746109d4604084016020850161481b565b6009546007549192506001600160a01b03908116911681634c72fefc846133a160c0880160a089016148a3565b846001600160a01b03166357d775f86040518163ffffffff1660e01b8152600401602060405180830381865afa1580156133df573d6000803e3d6000fd5b505050506040513d601f19601f820116820180604052508101906134039190614d69565b61341360e08a0160c08b01614ad7565b6134246101008b0160e08c01614886565b61351261343460208d018d61481b565b896001600160a01b0316638e6262426040518163ffffffff1660e01b8152600401602060405180830381865afa158015613472573d6000803e3d6000fd5b505050506040513d601f19601f8201168201806040525081019061349691906148c0565b8a6001600160a01b031663ff2117436040518163ffffffff1660e01b8152600401602060405180830381865afa1580156134d4573d6000803e3d6000fd5b505050506040513d601f19601f820116820180604052508101906134f891906148c0565b6135029190614dfe565b61350d906001614e17565b614287565b886001600160a01b0316638e6262426040518163ffffffff1660e01b8152600401602060405180830381865afa158015613550573d6000803e3d6000fd5b505050506040513d601f19601f8201168201806040525081019061357491906148c0565b61357e9190614e17565b6040516001600160e01b031960e089901b168152600481019690965261ffff90941660248601526001600160801b0390921660448501526001600160601b0316606484015260ff90811660848401521660a482015260c401600060405180830381600087803b1580156135f057600080fd5b505af1158015613604573d6000803e3d6000fd5b5050600b546001600160a01b03169150613626905060e0860160c08701614ad7565b6001600160601b03166001600160a01b03821663dd62ed3e61364b602089018961481b565b6040516001600160e01b031960e084901b1681526001600160a01b039091166004820152306024820152604401602060405180830381865afa158015613695573d6000803e3d6000fd5b505050506040513d601f19601f820116820180604052508101906136b9919061478a565b10156137075760405162461bcd60e51b815260206004820152601f60248201527f53656e64657220616c6c6f77616e6365206d757374203e3d20616d6f756e740060448201526064016106b5565b61371760e0860160c08701614ad7565b6001600160601b03166001600160a01b0382166370a0823161373c602089018961481b565b6040516001600160e01b031960e084901b1681526001600160a01b039091166004820152602401602060405180830381865afa158015613780573d6000803e3d6000fd5b505050506040513d601f19601f820116820180604052508101906137a4919061478a565b10156137f25760405162461bcd60e51b815260206004820181905260248201527f53656e6465722062616c616e6365206d757374206265203e3d20616d6f756e7460448201526064016106b5565b6001600160a01b0381166323b872dd61380e602088018861481b565b8561381f60e08a0160c08b01614ad7565b6040516001600160e01b031960e086901b1681526001600160a01b0393841660048201529290911660248301526001600160601b031660448201526064016020604051808303816000875af115801561387c573d6000803e3d6000fd5b505050506040513d601f19601f820116820180604052508101906138a09190614a83565b50604085018035906138b5906020880161481b565b6001600160a01b03167f4b81188c3c973dd634ec0dae5b7e72f92bb03834c830739d63935923950d6f646138ec6060890189614838565b6138fc60a08b0160808c01614886565b4261390d60c08d0160a08e016148a3565b896001600160a01b03166357d775f86040518163ffffffff1660e01b8152600401602060405180830381865afa15801561394b573d6000803e3d6000fd5b505050506040513d601f19601f8201168201806040525081019061396f9190614d69565b8d60c00160208101906139829190614ad7565b6040516111b59796959493929190614e30565b600160009054906101000a90046001600160a01b03166001600160a01b0316638da5cb5b6040518163ffffffff1660e01b8152600401602060405180830381865afa1580156139e8573d6000803e3d6000fd5b505050506040513d601f19601f82011682018060405250810190613a0c9190614d4c565b6001600160a01b0316336001600160a01b031614613a6c5760405162461bcd60e51b815260206004820181905260248201527f466e2063616e206f6e6c79206265207573656420627920687562206f776e657260448201526064016106b5565b565b6002546040516000916001600160a01b0316906345ed59e5908490613a9d908a908a908a908a90602001614e87565b6040516020818303038152906040526040518363ffffffff1660e01b8152600401613ac9929190614eb5565b602060405180830381865afa158015613ae6573d6000803e3d6000fd5b505050506040513d601f19601f82011682018060405250810190613b0a919061478a565b9695505050505050565b6009546040516001600160a01b0390911690600090613b3b90899089908990602001614b72565b60408051808303601f1901815290829052805160209091012063c45d174960e01b82526004820181905291506001600160a01b0383169063c45d174990602401602060405180830381865afa158015613b98573d6000803e3d6000fd5b505050506040513d601f19601f82011682018060405250810190613bbc9190614a83565b15613c095760405162461bcd60e51b815260206004820152601960248201527f4e6f64652068617320616c726561647920636f6d6d697465640000000000000060448201526064016106b5565b60405163572943f760e01b81526004810189905261ffff881660248201526000906001600160a01b0384169063572943f790604401602060405180830381865afa158015613c5b573d6000803e3d6000fd5b505050506040513d601f19601f82011682018060405250810190613c7f919061478a565b600754604051635b3db70f60e11b8152600481018390529192506001600160a01b039081169160009186169063b67b6e1e90602401602060405180830381865afa158015613cd1573d6000803e3d6000fd5b505050506040513d601f19601f82011682018060405250810190613cf5919061476f565b90506000826001600160a01b0316638d73d86a6040518163ffffffff1660e01b8152600401602060405180830381865afa158015613d37573d6000803e3d6000fd5b505050506040513d601f19601f82011682018060405250810190613d5b9190614ba2565b905060005b604051635c6c1fef60e01b8152600481018690526001600160a01b03881690635c6c1fef90602401602060405180830381865afa158015613da5573d6000803e3d6000fd5b505050506040513d601f19601f82011682018060405250810190613dc99190614a33565b64ffffffffff168864ffffffffff16108015613ded57506001600160481b03831615155b8015613e0157508163ffffffff168160ff16105b15613ea6578c8c84604051602001613e1b93929190614b72565b60408051808303601f19018152908290528051602090910120635b3db70f60e11b82526004820181905295506001600160a01b0388169063b67b6e1e90602401602060405180830381865afa158015613e78573d6000803e3d6000fd5b505050506040513d601f19601f82011682018060405250810190613e9c919061476f565b9250600101613d60565b8163ffffffff168160ff1610613efe5760405162461bcd60e51b815260206004820152601860248201527f4e6f64652072616e6b2073686f756c64206265203c205230000000000000000060448201526064016106b5565b60405163cf57ca2f60e01b8152600481018790526001600160481b03808d166024830152808c1660448301528a16606482015264ffffffffff891660848201526001600160a01b0388169063cf57ca2f9060a401600060405180830381600087803b158015613f6c57600080fd5b505af1158015613f80573d6000803e3d6000fd5b505060405163223dea6d60e21b815260048101889052600092506001600160a01b038a1691506388f7a9b490602401608060405180830381865afa158015613fcc573d6000803e3d6000fd5b505050506040513d601f19601f82011682018060405250810190613ff09190614ccf565b905060ff821615801561400b575080516001600160481b0316155b156140805760405163447b6fab60e11b8152600481018f905261ffff8e166024820152604481018890526001600160a01b038916906388f6df5690606401600060405180830381600087803b15801561406357600080fd5b505af1158015614077573d6000803e3d6000fd5b505050506141a9565b60ff82161580156140a35750806060015164ffffffffff168964ffffffffff1611155b156140bd576140b88e8e83600001518f6142e7565b6141a9565b60ff82161580156140df5750806060015164ffffffffff168964ffffffffff16115b1561415f5760405163447b6fab60e11b8152600481018f905261ffff8e166024820152604481018890526001600160a01b038916906388f6df5690606401600060405180830381600087803b15801561413757600080fd5b505af115801561414b573d6000803e3d6000fd5b505050506140b88e8e8e84600001516142e7565b806060015164ffffffffff168964ffffffffff161115614199576141898e8e83602001518f6142e7565b6140b88e8e8e84600001516142e7565b6141a98e8e83600001518f6142e7565b5050505050505050505050505050565b600154604051631627905560e01b81523360048201526001600160a01b0390911690631627905590602401602060405180830381865afa158015614201573d6000803e3d6000fd5b505050506040513d601f19601f820116820180604052508101906142259190614a83565b613a6c5760405162461bcd60e51b815260206004820181905260248201527f466e2063616e206f6e6c792062652063616c6c6564206279207468652068756260448201526064016106b5565b60008261427e8584614424565b14949350505050565b604080514260208201526bffffffffffffffffffffffff19606085901b169181019190915243605482015260009060ff8316906074016040516020818303038152906040528051906020012060001c6142e09190614807565b9392505050565b6009546040516001600160a01b03909116908190638a0f01b59061431390889088908890602001614b72565b60408051601f198184030181529082905280516020909101206001600160e01b031960e084901b16825260048201526001600160481b0385166024820152604401600060405180830381600087803b15801561436e57600080fd5b505af1158015614382573d6000803e3d6000fd5b50505050806001600160a01b031663e184b9e88686856040516020016143aa93929190614b72565b60408051601f198184030181529082905280516020909101206001600160e01b031960e084901b16825260048201526001600160481b0386166024820152604401600060405180830381600087803b15801561440557600080fd5b505af1158015614419573d6000803e3d6000fd5b505050505050505050565b600081815b845181101561446957614455828683815181106144485761444861473d565b6020026020010151614471565b91508061446181614ed9565b915050614429565b509392505050565b600081831061448d5760008281526020849052604090206142e0565b60008381526020839052604090206142e0565b6000602082840312156144b257600080fd5b5035919050565b60005b838110156144d45781810151838201526020016144bc565b50506000910152565b600081518084526144f58160208601602086016144b9565b601f01601f19169290920160200192915050565b6020815260006142e060208301846144dd565b60ff8116811461452b57600080fd5b50565b801515811461452b57600080fd5b6000806040838503121561454f57600080fd5b823561455a8161451c565b9150602083013561456a8161452e565b809150509250929050565b6001600160a01b038116811461452b57600080fd5b61ffff8116811461452b57600080fd5b600080600080608085870312156145b057600080fd5b84356145bb81614575565b935060208501356145cb81614575565b92506040850135915060608501356145e28161458a565b939692955090935050565b6000602082840312156145ff57600080fd5b813567ffffffffffffffff81111561461657600080fd5b820160a081850312156142e057600080fd5b60006020828403121561463a57600080fd5b813567ffffffffffffffff81111561465157600080fd5b820161010081850312156142e057600080fd5b60006020828403121561467657600080fd5b813567ffffffffffffffff81111561468d57600080fd5b820160e081850312156142e057600080fd5b600080604083850312156146b257600080fd5b82359150602083013561456a8161458a565b602080825282518282018190526000919060409081850190868401855b8281101561473057815180516001600160481b0390811686528782015181168887015286820151168686015260609081015164ffffffffff1690850152608090930192908501906001016146e1565b5091979650505050505050565b634e487b7160e01b600052603260045260246000fd5b80516001600160481b038116811461476a57600080fd5b919050565b60006020828403121561478157600080fd5b6142e082614753565b60006020828403121561479c57600080fd5b5051919050565b6001600160601b038116811461452b57600080fd5b6000602082840312156147ca57600080fd5b81516142e0816147a3565b600082516147e78184602087016144b9565b9190910192915050565b634e487b7160e01b600052601260045260246000fd5b600082614816576148166147f1565b500690565b60006020828403121561482d57600080fd5b81356142e081614575565b6000808335601e1984360301811261484f57600080fd5b83018035915067ffffffffffffffff82111561486a57600080fd5b60200191503681900382131561487f57600080fd5b9250929050565b60006020828403121561489857600080fd5b81356142e08161451c565b6000602082840312156148b557600080fd5b81356142e08161458a565b6000602082840312156148d257600080fd5b81516142e08161451c565b634e487b7160e01b600052604160045260246000fd5b60006020828403121561490557600080fd5b815167ffffffffffffffff8082111561491d57600080fd5b818401915084601f83011261493157600080fd5b815181811115614943576149436148dd565b604051601f8201601f19908116603f0116810190838211818310171561496b5761496b6148dd565b8160405282815287602084870101111561498457600080fd5b6149958360208301602088016144b9565b979650505050505050565b81835281816020850137506000828201602090810191909152601f909101601f19169091010190565b60ff8716815260ff8616602082015260a0604082015260006149ee60a08301876144dd565b8281036060840152614a018186886149a0565b9150506001600160601b0383166080830152979650505050505050565b805164ffffffffff8116811461476a57600080fd5b600060208284031215614a4557600080fd5b6142e082614a1e565b606081526000614a626060830186886149a0565b905060ff8416602083015264ffffffffff8316604083015295945050505050565b600060208284031215614a9557600080fd5b81516142e08161452e565b6020808252601f908201527f536572766963652041677265656d656e7420646f65736e277420657869737400604082015260600190565b600060208284031215614ae957600080fd5b81356142e0816147a3565b634e487b7160e01b600052601160045260246000fd5b6001600160601b03828116828216039080821115614b2a57614b2a614af4565b5092915050565b608081526000614b456080830187896149a0565b60ff9590951660208301525061ffff9290921660408301526001600160601b031660609091015292915050565b92835260f09190911b6001600160f01b031916602083015260b81b6001600160b81b0319166022820152602b0190565b600060208284031215614bb457600080fd5b815163ffffffff811681146142e057600080fd5b6000808335601e19843603018112614bdf57600080fd5b83018035915067ffffffffffffffff821115614bfa57600080fd5b6020019150600581901b360382131561487f57600080fd5b604081526000614c266040830185876149a0565b905060ff83166020830152949350505050565b63ffffffff828116828216039080821115614b2a57614b2a614af4565b600060208284031215614c6857600080fd5b81516142e08161458a565b61ffff828116828216039080821115614b2a57614b2a614af4565b61ffff818116838216019080821115614b2a57614b2a614af4565b60006001600160601b0380841680614cc357614cc36147f1565b92169190910492915050565b600060808284031215614ce157600080fd5b6040516080810181811067ffffffffffffffff82111715614d0457614d046148dd565b604052614d1083614753565b8152614d1e60208401614753565b6020820152614d2f60408401614753565b6040820152614d4060608401614a1e565b60608201529392505050565b600060208284031215614d5e57600080fd5b81516142e081614575565b600060208284031215614d7b57600080fd5b81516001600160801b03811681146142e057600080fd5b60006001600160801b0380831681851681830481118215151615614db857614db8614af4565b02949350505050565b60006001600160801b0380841680614cc357614cc36147f1565b8082018082111561231757612317614af4565b8183823760009101908152919050565b60ff828116828216039081111561231757612317614af4565b60ff818116838216019081111561231757612317614af4565b60c081526000614e4460c08301898b6149a0565b60ff97909716602083015250604081019490945261ffff9290921660608401526001600160801b031660808301526001600160601b031660a09091015292915050565b6001600160601b03198560601b16815283601482015281836034830137600091016034019081529392505050565b60ff83168152604060208201526000614ed160408301846144dd565b949350505050565b600060018201614eeb57614eeb614af4565b506001019056fe016e1e1566f4e4051f44e151b6ee2104d817d8b587cea6447703c0e6547acbc6a26469706673582212206e490f54896f267982fec9f4e2482a3186ad0b963f48efdf871d1f52d88091c164736f6c63430008100033",
  "immutableReferences": {},
  "source": "// SPDX-License-Identifier: MIT\n\npragma solidity ^0.8.4;\n\nimport { HashingProxy } from \"./HashingProxy.sol\";\nimport { Hub } from \"./Hub.sol\";\nimport { ScoringProxy } from \"./ScoringProxy.sol\";\nimport { Staking } from \"./Staking.sol\";\nimport { AbstractAsset } from \"./assets/AbstractAsset.sol\";\nimport { AssertionStorage } from \"./storage/AssertionStorage.sol\";\nimport { IdentityStorage } from \"./storage/IdentityStorage.sol\";\nimport { ParametersStorage } from \"./storage/ParametersStorage.sol\";\nimport { ProfileStorage } from \"./storage/ProfileStorage.sol\";\nimport { ServiceAgreementStorageV1 } from \"./storage/ServiceAgreementStorageV1.sol\";\nimport { StakingStorage } from \"./storage/StakingStorage.sol\";\nimport { Named } from \"./interface/Named.sol\";\nimport { Versioned } from \"./interface/Versioned.sol\";\nimport { ServiceAgreementStructsV1 } from \"./structs/ServiceAgreementStructsV1.sol\";\nimport { IERC20 } from \"@openzeppelin/contracts/token/ERC20/IERC20.sol\";\nimport { MerkleProof } from \"@openzeppelin/contracts/utils/cryptography/MerkleProof.sol\";\n\ncontract ServiceAgreementV1 is Named, Versioned {\n\n    event ServiceAgreementV1Created(\n        address indexed assetContract,\n        uint256 indexed tokenId,\n        bytes keyword,\n        uint8 hashFunctionId,\n        uint256 startTime,\n        uint16 epochsNumber,\n        uint128 epochLength,\n        uint96 tokenAmount\n    );\n    event ServiceAgreementV1Updated(\n        address indexed assetContract,\n        uint256 indexed tokenId,\n        bytes keyword,\n        uint8 hashFunctionId,\n        uint16 epochsNumber,\n        uint96 tokenAmount\n    );\n    event CommitSubmitted(\n        address indexed assetContract,\n        uint256 indexed tokenId,\n        bytes keyword,\n        uint8 hashFunctionId,\n        uint72 indexed identityId,\n        uint40 score\n    );\n    event ProofSubmitted(\n        address indexed assetContract,\n        uint256 indexed tokenId,\n        bytes keyword,\n        uint8 hashFunctionId,\n        uint72 indexed identityId\n    );\n    event Logger(bool value, string message);\n\n    string constant private _NAME = \"ServiceAgreementV1\";\n    string constant private _VERSION = \"1.0.0\";\n\n    bool[4] public _reqs = [true, true, true, true];\n\n    Hub public hub;\n    HashingProxy public hashingProxy;\n    ScoringProxy public scoringProxy;\n    Staking public stakingContract;\n    AssertionStorage public assertionStorage;\n    IdentityStorage public identityStorage;\n    ParametersStorage public parametersStorage;\n    ProfileStorage public profileStorage;\n    ServiceAgreementStorageV1 public serviceAgreementStorageV1;\n    StakingStorage public stakingStorage;\n    IERC20 public tokenContract;\n\n    constructor (address hubAddress) {\n        require(hubAddress != address(0));\n\n        hub = Hub(hubAddress);\n        initialize();\n    }\n\n    modifier onlyHubOwner() {\n\t\t_checkHubOwner();\n\t\t_;\n\t}\n\n    modifier onlyContracts() {\n        _checkHub();\n        _;\n    }\n\n    function initialize() public onlyHubOwner {\n\t\thashingProxy = HashingProxy(hub.getContractAddress(\"HashingProxy\"));\n        scoringProxy = ScoringProxy(hub.getContractAddress(\"ScoringProxy\"));\n        stakingContract = Staking(hub.getContractAddress(\"Staking\"));\n        assertionStorage = AssertionStorage(hub.getContractAddress(\"AssertionStorage\"));\n        identityStorage = IdentityStorage(hub.getContractAddress(\"IdentityStorage\"));\n        parametersStorage = ParametersStorage(hub.getContractAddress(\"ParametersStorage\"));\n        profileStorage = ProfileStorage(hub.getContractAddress(\"ProfileStorage\"));\n        serviceAgreementStorageV1 = ServiceAgreementStorageV1(hub.getContractAddress(\"ServiceAgreementStorageV1\"));\n        stakingStorage = StakingStorage(hub.getContractAddress(\"StakingStorage\"));\n        tokenContract = IERC20(hub.getContractAddress(\"Token\"));\n\t}\n\n    function name() external pure virtual override returns (string memory) {\n        return _NAME;\n    }\n\n    function version() external pure virtual override returns (string memory) {\n        return _VERSION;\n    }\n\n    function createServiceAgreement(ServiceAgreementStructsV1.ServiceAgreementInputArgs calldata args)\n        external\n        onlyContracts\n    {\n        require(args.assetCreator != address(0), \"Asset creator cannot be 0x0\");\n        require(hub.isAssetStorage(args.assetContract), \"Asset Storage not in the hub\");\n        require(keccak256(args.keyword) != keccak256(\"\"), \"Keyword can't be empty\");\n        require(args.epochsNumber != 0, \"Epochs number cannot be 0\");\n        require(args.tokenAmount != 0, \"Token amount cannot be 0\");\n        require(scoringProxy.isScoreFunction(args.scoreFunctionId), \"Score function doesn't exist\");\n\n        bytes32 agreementId = _generateAgreementId(args.assetContract, args.tokenId, args.keyword, args.hashFunctionId);\n\n        ServiceAgreementStorageV1 sasV1 = serviceAgreementStorageV1;\n        ParametersStorage params = parametersStorage;\n\n        sasV1.createServiceAgreementObject(\n            agreementId,\n            args.epochsNumber,\n            params.epochLength(),\n            args.tokenAmount,\n            args.scoreFunctionId,\n            params.minProofWindowOffsetPerc() + _generatePseudorandomUint8(\n                args.assetCreator,\n                params.maxProofWindowOffsetPerc() - params.minProofWindowOffsetPerc() + 1\n            )\n        );\n\n        IERC20 tknc = tokenContract;\n        require(\n            tknc.allowance(args.assetCreator, address(this)) >= args.tokenAmount,\n            \"Sender allowance must >= amount\"\n        );\n        require(tknc.balanceOf(args.assetCreator) >= args.tokenAmount, \"Sender balance must be >= amount\");\n\n        tknc.transferFrom(args.assetCreator, address(sasV1), args.tokenAmount);\n\n        emit ServiceAgreementV1Created(\n            args.assetContract,\n            args.tokenId,\n            args.keyword,\n            args.hashFunctionId,\n            block.timestamp,\n            args.epochsNumber,\n            params.epochLength(),\n            args.tokenAmount\n        );\n    }\n\n    // TODO: Split into smaller functions [update only epochsNumber / tokenAmount / scoreFunctionId etc.]\n    function updateServiceAgreement(ServiceAgreementStructsV1.ServiceAgreementInputArgs calldata args)\n        external\n        onlyContracts\n    {\n        bytes32 agreementId = _generateAgreementId(args.assetContract, args.tokenId, args.keyword, args.hashFunctionId);\n\n        ServiceAgreementStorageV1 sasV1 = serviceAgreementStorageV1;\n\n        require(args.assetCreator != address(0), \"Asset creator cannot be 0x0\");\n        require(sasV1.serviceAgreementExists(agreementId), \"Service Agreement doesn't exist\");\n        require(args.epochsNumber != 0, \"Epochs number cannot be 0\");\n        require(args.tokenAmount != 0, \"Token amount cannot be 0\");\n        require(scoringProxy.isScoreFunction(args.scoreFunctionId), \"Score function doesn't exist\");\n\n        uint96 actualRewardAmount = sasV1.getAgreementTokenAmount(agreementId);\n\n        sasV1.setAgreementEpochsNumber(agreementId, args.epochsNumber);\n        sasV1.setAgreementTokenAmount(agreementId, args.tokenAmount);\n        sasV1.setAgreementScoreFunctionId(agreementId, args.scoreFunctionId);\n\n        IERC20 tknc = tokenContract;\n\n        require(\n            tknc.allowance(args.assetCreator, address(this)) >= (args.tokenAmount - actualRewardAmount),\n            \"Sender allowance must be >= amount\"\n        );\n        require(\n            tknc.balanceOf(args.assetCreator) >= (args.tokenAmount - actualRewardAmount),\n            \"Sender balance must be >= amount\"\n        );\n\n        tknc.transferFrom(args.assetCreator, address(sasV1), args.tokenAmount - actualRewardAmount);\n\n        emit ServiceAgreementV1Updated(\n            args.assetContract,\n            args.tokenId,\n            args.keyword,\n            args.hashFunctionId,\n            args.epochsNumber,\n            args.tokenAmount\n        );\n    }\n\n    function isCommitWindowOpen(bytes32 agreementId, uint16 epoch) public view returns (bool) {\n        ServiceAgreementStorageV1 sasV1 = serviceAgreementStorageV1;\n        uint256 startTime = sasV1.getAgreementStartTime(agreementId);\n\n        require(startTime != 0, \"Service Agreement doesn't exist\");\n        require(epoch < sasV1.getAgreementEpochsNumber(agreementId), \"Service Agreement has been expired\");\n\n        ParametersStorage params = parametersStorage;\n        uint256 timeNow = block.timestamp;\n        uint128 epochLength = sasV1.getAgreementEpochLength(agreementId);\n\n        if (epoch == 0) {\n            return timeNow < (startTime + params.commitWindowDuration());\n        }\n\n        return (\n            timeNow > (startTime + epochLength * epoch) &&\n            timeNow < (startTime + epochLength * epoch + params.commitWindowDuration())\n        );\n    }\n\n    function getTopCommitSubmissions(bytes32 agreementId, uint16 epoch)\n        external\n        view\n        returns (ServiceAgreementStructsV1.CommitSubmission[] memory)\n    {\n        ServiceAgreementStorageV1 sasV1 = serviceAgreementStorageV1;\n\n        require(sasV1.serviceAgreementExists(agreementId), \"Service Agreement doesn't exist\");\n        require(epoch < sasV1.getAgreementEpochsNumber(agreementId), \"Service Agreement expired\");\n\n        uint32 r0 = parametersStorage.R0();\n\n        ServiceAgreementStructsV1.CommitSubmission[] memory epochCommits =\n            new ServiceAgreementStructsV1.CommitSubmission[](r0);\n\n        bytes32 epochSubmissionsHead = sasV1.getAgreementEpochSubmissionHead(agreementId, epoch);\n\n        epochCommits[0] = sasV1.getCommitSubmission(epochSubmissionsHead);\n\n        bytes32 commitId;\n        uint72 nextIdentityId = epochCommits[0].nextIdentityId;\n        uint8 submissionsIdx = 1;\n        while((submissionsIdx < r0) && (nextIdentityId != 0)) {\n            commitId = keccak256(abi.encodePacked(agreementId, epoch, nextIdentityId));\n            epochCommits[submissionsIdx] = sasV1.getCommitSubmission(commitId);\n\n            nextIdentityId = epochCommits[submissionsIdx].nextIdentityId;\n\n            unchecked { submissionsIdx++; }\n        }\n\n        return epochCommits;\n    }\n\n    function submitCommit(ServiceAgreementStructsV1.CommitInputArgs calldata args) external {\n        bytes32 agreementId = _generateAgreementId(args.assetContract, args.tokenId, args.keyword, args.hashFunctionId);\n\n        require(isCommitWindowOpen(agreementId, args.epoch), \"Commit window is closed\");\n\n        uint72 identityId = identityStorage.getIdentityId(msg.sender);\n\n        uint40 score = scoringProxy.callScoreFunction(\n            serviceAgreementStorageV1.getAgreementScoreFunctionId(agreementId),\n            args.hashFunctionId,\n            profileStorage.getNodeId(identityId),\n            args.keyword,\n            stakingStorage.totalStakes(identityId)\n        );\n\n        _insertCommit(\n            agreementId,\n            args.epoch,\n            identityId,\n            0,\n            0,\n            score\n        );\n\n        emit CommitSubmitted(\n            args.assetContract,\n            args.tokenId,\n            args.keyword,\n            args.hashFunctionId,\n            identityId,\n            score\n        );\n    }\n\n    function isProofWindowOpen(bytes32 agreementId, uint16 epoch) public view returns (bool) {\n        ServiceAgreementStorageV1 sasV1 = serviceAgreementStorageV1;\n        uint256 startTime = sasV1.getAgreementStartTime(agreementId);\n\n        require(startTime != 0, \"Service Agreement doesn't exist\");\n        require(epoch < sasV1.getAgreementEpochsNumber(agreementId), \"Service Agreement expired\");\n\n        uint256 timeNow = block.timestamp;\n        uint128 epochLength = sasV1.getAgreementEpochLength(agreementId);\n        uint8 proofWindowOffsetPerc = sasV1.getAgreementProofWindowOffsetPerc(agreementId);\n\n        uint256 proofWindowOffset = epochLength * proofWindowOffsetPerc / 100;\n        uint256 proofWindowDuration = epochLength * parametersStorage.proofWindowDurationPerc() / 100;\n\n        return (\n            timeNow > (startTime + epochLength * epoch + proofWindowOffset) &&\n            timeNow < (startTime + epochLength * epoch + proofWindowOffset + proofWindowDuration)\n        );\n    }\n\n    function getChallenge(address sender, address assetContract, uint256 tokenId, uint16 epoch)\n        public\n        view\n        returns (bytes32, uint256)\n    {\n        uint72 identityId = identityStorage.getIdentityId(sender);\n\n        AbstractAsset generalAssetInterface = AbstractAsset(assetContract);\n        bytes32 assertionId = generalAssetInterface.getLatestAssertionId(tokenId);\n\n        uint256 assertionChunksNumber = assertionStorage.getAssertionChunksNumber(assertionId);\n\n        // blockchash() function only works for last 256 blocks (25.6 min window in case of 6s block time)\n        // TODO: figure out how to achieve randomness\n        return (\n            assertionId,\n            uint256(\n                sha256(abi.encodePacked(epoch, identityId))\n            ) % assertionChunksNumber\n        );\n    }\n\n    function sendProof(ServiceAgreementStructsV1.ProofInputArgs calldata args) external {\n        bytes32 agreementId = _generateAgreementId(args.assetContract, args.tokenId, args.keyword, args.hashFunctionId);\n\n        require(_reqs[0] || isProofWindowOpen(agreementId, args.epoch), \"Proof window is closed\");\n        emit Logger(isProofWindowOpen(agreementId, args.epoch), \"req1\" );\n\n\n        IdentityStorage ids = identityStorage;\n\n        uint72 identityId = ids.getIdentityId(msg.sender);\n\n        ServiceAgreementStorageV1 sasV1 = serviceAgreementStorageV1;\n\n        require(_reqs[1] ||\n            sasV1.getCommitSubmissionScore(keccak256(abi.encodePacked(agreementId, args.epoch, identityId))) != 0,\n            \"You've been already rewarded\"\n        );\n        emit Logger(\n            sasV1.getCommitSubmissionScore(keccak256(abi.encodePacked(agreementId, args.epoch, identityId))) != 0,\n            \"req2\"\n        );\n\n        bytes32 nextCommitId = sasV1.getAgreementEpochSubmissionHead(agreementId, args.epoch);\n        uint32 r0 = parametersStorage.R0();\n        uint8 i;\n        while ((identityId != sasV1.getCommitSubmissionIdentityId(nextCommitId)) && (i < r0)) {\n            nextCommitId = keccak256(\n                abi.encodePacked(agreementId, args.epoch, sasV1.getCommitSubmissionNextIdentityId(nextCommitId))\n            );\n            unchecked { i++; }\n        }\n\n        require(_reqs[2] || i < r0, \"Your node hasn't been awarded for this asset in this epoch\");\n        emit Logger(i < r0, \"req3\" );\n\n        bytes32 merkleRoot;\n        uint256 challenge;\n        (merkleRoot, challenge) = getChallenge(msg.sender, args.assetContract, args.tokenId, args.epoch);\n\n        require(_reqs[3] ||\n            MerkleProof.verify(args.proof, merkleRoot, keccak256(abi.encodePacked(args.chunkHash, challenge))),\n            \"Root hash doesn't match\"\n        );\n        emit Logger(\n            MerkleProof.verify(args.proof, merkleRoot, keccak256(abi.encodePacked(args.chunkHash, challenge))),\n            \"req4\"\n        );\n\n        emit ProofSubmitted(\n            args.assetContract,\n            args.tokenId,\n            args.keyword,\n            args.hashFunctionId,\n            identityId\n        );\n\n        uint96 reward = (\n            sasV1.getAgreementTokenAmount(agreementId) /\n            (sasV1.getAgreementEpochsNumber(agreementId) - args.epoch + 1) /\n            (r0 - sasV1.getAgreementRewardedNodesNumber(agreementId, args.epoch))\n        );\n\n        stakingContract.addReward(identityId, reward);\n        sasV1.setAgreementTokenAmount(agreementId, sasV1.getAgreementTokenAmount(agreementId) - reward);\n        sasV1.incrementAgreementRewardedNodesNumber(agreementId, args.epoch);\n\n        // To make sure that node already received reward\n        sasV1.setCommitSubmissionScore(keccak256(abi.encodePacked(agreementId, args.epoch, identityId)), 0);\n    }\n\n    function setReq(uint8 idx, bool req) external onlyHubOwner {\n        _reqs[idx] = req;\n    }\n\n    function _insertCommit(\n        bytes32 agreementId,\n        uint16 epoch,\n        uint72 identityId,\n        uint72 prevIdentityId,\n        uint72 nextIdentityId,\n        uint40 score\n    )\n        private\n    {\n        ServiceAgreementStorageV1 sasV1 = serviceAgreementStorageV1;\n\n        bytes32 commitId = keccak256(abi.encodePacked(agreementId, epoch, identityId));\n\n        require(!sasV1.commitSubmissionExists(commitId), \"Node has already commited\");\n\n        bytes32 refCommitId = sasV1.getAgreementEpochSubmissionHead(agreementId, epoch);\n\n        ParametersStorage params = parametersStorage;\n\n        uint72 refCommitNextIdentityId = sasV1.getCommitSubmissionNextIdentityId(refCommitId);\n        uint32 r0 = params.R0();\n        uint8 i;\n        while (\n            (score <  sasV1.getCommitSubmissionScore(refCommitId)) &&\n            (refCommitNextIdentityId != 0) &&\n            (i < r0)\n        ) {\n            refCommitId = keccak256(\n                abi.encodePacked(agreementId, epoch, refCommitNextIdentityId)\n            );\n\n            refCommitNextIdentityId = sasV1.getCommitSubmissionNextIdentityId(refCommitId);\n            unchecked { i++; }\n        }\n\n        require(i < r0, \"Node rank should be < R0\");\n\n        sasV1.createCommitSubmissionObject(commitId, identityId, prevIdentityId, nextIdentityId, score);\n\n        ServiceAgreementStructsV1.CommitSubmission memory refCommit = sasV1.getCommitSubmission(refCommitId);\n\n        if ((i == 0) && (refCommit.identityId == 0)) {\n            //  No head -> Setting new head\n            sasV1.setAgreementEpochSubmissionHead(agreementId, epoch, commitId);\n        } else if ((i == 0) && (score <= refCommit.score)) {\n            // There is a head with higher or equal score, add new commit on the right\n            _link_commits(agreementId, epoch, refCommit.identityId, identityId);\n        } else if ((i == 0) && (score > refCommit.score)) {\n            // There is a head with lower score, replace the head\n            sasV1.setAgreementEpochSubmissionHead(agreementId, epoch, commitId);\n            _link_commits(agreementId, epoch, identityId, refCommit.identityId);\n        }  else if (score > refCommit.score) {\n            // [H] - head\n            // [RC] - reference commit\n            // [RC-] - commit before reference commit\n            // [RC+] - commit after reference commit\n            // [NC] - new commit\n            // [] <-> [H] <-> [X] ... [RC-] <-> [RC] <-> [RC+] ... [C] <-> []\n            // [] <-> [H] <-> [X] ... [RC-] <-(NL)-> [NC] <-(NL)-> [RC] <-> [RC+] ... [C] <-> []\n            _link_commits(agreementId, epoch, refCommit.prevIdentityId, identityId);\n            _link_commits(agreementId, epoch, identityId, refCommit.identityId);\n        } else {\n            // [] <-> [H] <-> [RC] <-> []\n            // [] <-> [H] <-> [RC] <-(NL)-> [NC] <-> []\n            _link_commits(agreementId, epoch, refCommit.identityId, identityId);\n        }\n    }\n\n    function _link_commits(bytes32 agreementId, uint16 epoch, uint72 leftIdentityId, uint72 rightIdentityId) private {\n        ServiceAgreementStorageV1 sasV1 = serviceAgreementStorageV1;\n\n        sasV1.setCommitSubmissionNextIdentityId(\n            keccak256(abi.encodePacked(agreementId, epoch, leftIdentityId)),  // leftCommitId\n            rightIdentityId\n        );\n\n        sasV1.setCommitSubmissionPrevIdentityId(\n            keccak256(abi.encodePacked(agreementId, epoch, rightIdentityId)),  // rightCommitId\n            leftIdentityId\n        );\n    }\n\n    function _generateAgreementId(address assetContract, uint256 tokenId, bytes calldata keyword, uint8 hashFunctionId)\n        private\n        view\n        returns (bytes32)\n    {\n        return hashingProxy.callHashFunction(hashFunctionId, abi.encodePacked(assetContract, tokenId, keyword));\n    }\n\n    function _generatePseudorandomUint8(address sender, uint8 limit) private view returns (uint8) {\n        return uint8(uint256(keccak256(abi.encodePacked(block.timestamp, sender, block.number))) % limit);\n    }\n\n    function _checkHubOwner() internal view virtual {\n\t\trequire(msg.sender == hub.owner(), \"Fn can only be used by hub owner\");\n\t}\n\n    function _checkHub() internal view virtual {\n        require (hub.isContract(msg.sender), \"Fn can only be called by the hub\");\n    }\n\n}\n",
  "sourcePath": "/Users/waving/Desktop/OriginTrail/dkg-evm-module/contracts/ServiceAgreementV1.sol",
  "compiler": {
    "name": "solc",
    "version": "0.8.16+commit.07a7930e.Emscripten.clang"
  },
  "schemaVersion": "3.4.10",
  "updatedAt": "2022-12-08T14:40:18.003Z",
  "devdoc": {
    "kind": "dev",
    "methods": {},
    "version": 1
  },
  "userdoc": {
    "kind": "user",
    "methods": {},
    "version": 1
  }
}