{
  "contractName": "ServiceAgreementV1",
  "abi": [
    {
      "inputs": [
        {
          "internalType": "address",
          "name": "hubAddress",
          "type": "address"
        }
      ],
      "stateMutability": "nonpayable",
      "type": "constructor"
    },
    {
      "anonymous": false,
      "inputs": [
        {
          "indexed": true,
          "internalType": "address",
          "name": "assetContract",
          "type": "address"
        },
        {
          "indexed": true,
          "internalType": "uint256",
          "name": "tokenId",
          "type": "uint256"
        },
        {
          "indexed": false,
          "internalType": "bytes",
          "name": "keyword",
          "type": "bytes"
        },
        {
          "indexed": false,
          "internalType": "uint8",
          "name": "hashFunctionId",
          "type": "uint8"
        },
        {
          "indexed": true,
          "internalType": "uint72",
          "name": "identityId",
          "type": "uint72"
        },
        {
          "indexed": false,
          "internalType": "uint40",
          "name": "score",
          "type": "uint40"
        }
      ],
      "name": "CommitSubmitted",
      "type": "event"
    },
    {
      "anonymous": false,
      "inputs": [
        {
          "indexed": true,
          "internalType": "address",
          "name": "assetContract",
          "type": "address"
        },
        {
          "indexed": true,
          "internalType": "uint256",
          "name": "tokenId",
          "type": "uint256"
        },
        {
          "indexed": false,
          "internalType": "bytes",
          "name": "keyword",
          "type": "bytes"
        },
        {
          "indexed": false,
          "internalType": "uint8",
          "name": "hashFunctionId",
          "type": "uint8"
        },
        {
          "indexed": true,
          "internalType": "uint72",
          "name": "identityId",
          "type": "uint72"
        }
      ],
      "name": "ProofSubmitted",
      "type": "event"
    },
    {
      "anonymous": false,
      "inputs": [
        {
          "indexed": true,
          "internalType": "address",
          "name": "assetContract",
          "type": "address"
        },
        {
          "indexed": true,
          "internalType": "uint256",
          "name": "tokenId",
          "type": "uint256"
        },
        {
          "indexed": false,
          "internalType": "bytes",
          "name": "keyword",
          "type": "bytes"
        },
        {
          "indexed": false,
          "internalType": "uint8",
          "name": "hashFunctionId",
          "type": "uint8"
        },
        {
          "indexed": false,
          "internalType": "uint256",
          "name": "startTime",
          "type": "uint256"
        },
        {
          "indexed": false,
          "internalType": "uint16",
          "name": "epochsNumber",
          "type": "uint16"
        },
        {
          "indexed": false,
          "internalType": "uint128",
          "name": "epochLength",
          "type": "uint128"
        },
        {
          "indexed": false,
          "internalType": "uint96",
          "name": "tokenAmount",
          "type": "uint96"
        }
      ],
      "name": "ServiceAgreementV1Created",
      "type": "event"
    },
    {
      "anonymous": false,
      "inputs": [
        {
          "indexed": true,
          "internalType": "address",
          "name": "assetContract",
          "type": "address"
        },
        {
          "indexed": true,
          "internalType": "uint256",
          "name": "tokenId",
          "type": "uint256"
        },
        {
          "indexed": false,
          "internalType": "bytes",
          "name": "keyword",
          "type": "bytes"
        },
        {
          "indexed": false,
          "internalType": "uint8",
          "name": "hashFunctionId",
          "type": "uint8"
        },
        {
          "indexed": false,
          "internalType": "uint16",
          "name": "epochsNumber",
          "type": "uint16"
        },
        {
          "indexed": false,
          "internalType": "uint96",
          "name": "tokenAmount",
          "type": "uint96"
        }
      ],
      "name": "ServiceAgreementV1Updated",
      "type": "event"
    },
    {
      "inputs": [],
      "name": "assertionStorage",
      "outputs": [
        {
          "internalType": "contract AssertionStorage",
          "name": "",
          "type": "address"
        }
      ],
      "stateMutability": "view",
      "type": "function"
    },
    {
      "inputs": [],
      "name": "hashingProxy",
      "outputs": [
        {
          "internalType": "contract HashingProxy",
          "name": "",
          "type": "address"
        }
      ],
      "stateMutability": "view",
      "type": "function"
    },
    {
      "inputs": [],
      "name": "hub",
      "outputs": [
        {
          "internalType": "contract Hub",
          "name": "",
          "type": "address"
        }
      ],
      "stateMutability": "view",
      "type": "function"
    },
    {
      "inputs": [],
      "name": "identityStorage",
      "outputs": [
        {
          "internalType": "contract IdentityStorage",
          "name": "",
          "type": "address"
        }
      ],
      "stateMutability": "view",
      "type": "function"
    },
    {
      "inputs": [],
      "name": "parametersStorage",
      "outputs": [
        {
          "internalType": "contract ParametersStorage",
          "name": "",
          "type": "address"
        }
      ],
      "stateMutability": "view",
      "type": "function"
    },
    {
      "inputs": [],
      "name": "profileStorage",
      "outputs": [
        {
          "internalType": "contract ProfileStorage",
          "name": "",
          "type": "address"
        }
      ],
      "stateMutability": "view",
      "type": "function"
    },
    {
      "inputs": [],
      "name": "scoringProxy",
      "outputs": [
        {
          "internalType": "contract ScoringProxy",
          "name": "",
          "type": "address"
        }
      ],
      "stateMutability": "view",
      "type": "function"
    },
    {
      "inputs": [],
      "name": "serviceAgreementStorageV1",
      "outputs": [
        {
          "internalType": "contract ServiceAgreementStorageV1",
          "name": "",
          "type": "address"
        }
      ],
      "stateMutability": "view",
      "type": "function"
    },
    {
      "inputs": [],
      "name": "stakingContract",
      "outputs": [
        {
          "internalType": "contract Staking",
          "name": "",
          "type": "address"
        }
      ],
      "stateMutability": "view",
      "type": "function"
    },
    {
      "inputs": [],
      "name": "stakingStorage",
      "outputs": [
        {
          "internalType": "contract StakingStorage",
          "name": "",
          "type": "address"
        }
      ],
      "stateMutability": "view",
      "type": "function"
    },
    {
      "inputs": [],
      "name": "tokenContract",
      "outputs": [
        {
          "internalType": "contract IERC20",
          "name": "",
          "type": "address"
        }
      ],
      "stateMutability": "view",
      "type": "function"
    },
    {
      "inputs": [
        {
          "components": [
            {
              "internalType": "address",
              "name": "assetCreator",
              "type": "address"
            },
            {
              "internalType": "address",
              "name": "assetContract",
              "type": "address"
            },
            {
              "internalType": "uint256",
              "name": "tokenId",
              "type": "uint256"
            },
            {
              "internalType": "bytes",
              "name": "keyword",
              "type": "bytes"
            },
            {
              "internalType": "uint8",
              "name": "hashFunctionId",
              "type": "uint8"
            },
            {
              "internalType": "uint16",
              "name": "epochsNumber",
              "type": "uint16"
            },
            {
              "internalType": "uint96",
              "name": "tokenAmount",
              "type": "uint96"
            },
            {
              "internalType": "uint8",
              "name": "scoreFunctionId",
              "type": "uint8"
            }
          ],
          "internalType": "struct ServiceAgreementStructsV1.ServiceAgreementInputArgs",
          "name": "args",
          "type": "tuple"
        }
      ],
      "name": "createServiceAgreement",
      "outputs": [],
      "stateMutability": "nonpayable",
      "type": "function"
    },
    {
      "inputs": [
        {
          "components": [
            {
              "internalType": "address",
              "name": "assetCreator",
              "type": "address"
            },
            {
              "internalType": "address",
              "name": "assetContract",
              "type": "address"
            },
            {
              "internalType": "uint256",
              "name": "tokenId",
              "type": "uint256"
            },
            {
              "internalType": "bytes",
              "name": "keyword",
              "type": "bytes"
            },
            {
              "internalType": "uint8",
              "name": "hashFunctionId",
              "type": "uint8"
            },
            {
              "internalType": "uint16",
              "name": "epochsNumber",
              "type": "uint16"
            },
            {
              "internalType": "uint96",
              "name": "tokenAmount",
              "type": "uint96"
            },
            {
              "internalType": "uint8",
              "name": "scoreFunctionId",
              "type": "uint8"
            }
          ],
          "internalType": "struct ServiceAgreementStructsV1.ServiceAgreementInputArgs",
          "name": "args",
          "type": "tuple"
        }
      ],
      "name": "updateServiceAgreement",
      "outputs": [],
      "stateMutability": "nonpayable",
      "type": "function"
    },
    {
      "inputs": [
        {
          "internalType": "bytes32",
          "name": "agreementId",
          "type": "bytes32"
        },
        {
          "internalType": "uint16",
          "name": "epoch",
          "type": "uint16"
        }
      ],
      "name": "isCommitWindowOpen",
      "outputs": [
        {
          "internalType": "bool",
          "name": "",
          "type": "bool"
        }
      ],
      "stateMutability": "view",
      "type": "function"
    },
    {
      "inputs": [
        {
          "internalType": "bytes32",
          "name": "agreementId",
          "type": "bytes32"
        },
        {
          "internalType": "uint16",
          "name": "epoch",
          "type": "uint16"
        }
      ],
      "name": "getTopCommitSubmissions",
      "outputs": [
        {
          "components": [
            {
              "internalType": "uint72",
              "name": "identityId",
              "type": "uint72"
            },
            {
              "internalType": "uint72",
              "name": "prevIdentityId",
              "type": "uint72"
            },
            {
              "internalType": "uint72",
              "name": "nextIdentityId",
              "type": "uint72"
            },
            {
              "internalType": "uint40",
              "name": "score",
              "type": "uint40"
            }
          ],
          "internalType": "struct ServiceAgreementStructsV1.CommitSubmission[]",
          "name": "",
          "type": "tuple[]"
        }
      ],
      "stateMutability": "view",
      "type": "function"
    },
    {
      "inputs": [
        {
          "components": [
            {
              "internalType": "address",
              "name": "assetContract",
              "type": "address"
            },
            {
              "internalType": "uint256",
              "name": "tokenId",
              "type": "uint256"
            },
            {
              "internalType": "bytes",
              "name": "keyword",
              "type": "bytes"
            },
            {
              "internalType": "uint8",
              "name": "hashFunctionId",
              "type": "uint8"
            },
            {
              "internalType": "uint16",
              "name": "epoch",
              "type": "uint16"
            }
          ],
          "internalType": "struct ServiceAgreementStructsV1.CommitInputArgs",
          "name": "args",
          "type": "tuple"
        }
      ],
      "name": "submitCommit",
      "outputs": [],
      "stateMutability": "nonpayable",
      "type": "function"
    },
    {
      "inputs": [
        {
          "internalType": "bytes32",
          "name": "agreementId",
          "type": "bytes32"
        },
        {
          "internalType": "uint16",
          "name": "epoch",
          "type": "uint16"
        }
      ],
      "name": "isProofWindowOpen",
      "outputs": [
        {
          "internalType": "bool",
          "name": "",
          "type": "bool"
        }
      ],
      "stateMutability": "view",
      "type": "function"
    },
    {
      "inputs": [
        {
          "internalType": "address",
          "name": "sender",
          "type": "address"
        },
        {
          "internalType": "address",
          "name": "assetContract",
          "type": "address"
        },
        {
          "internalType": "uint256",
          "name": "tokenId",
          "type": "uint256"
        },
        {
          "internalType": "uint16",
          "name": "epoch",
          "type": "uint16"
        }
      ],
      "name": "getChallenge",
      "outputs": [
        {
          "internalType": "bytes32",
          "name": "",
          "type": "bytes32"
        },
        {
          "internalType": "uint256",
          "name": "",
          "type": "uint256"
        }
      ],
      "stateMutability": "view",
      "type": "function"
    },
    {
      "inputs": [
        {
          "components": [
            {
              "internalType": "address",
              "name": "assetContract",
              "type": "address"
            },
            {
              "internalType": "uint256",
              "name": "tokenId",
              "type": "uint256"
            },
            {
              "internalType": "bytes",
              "name": "keyword",
              "type": "bytes"
            },
            {
              "internalType": "uint8",
              "name": "hashFunctionId",
              "type": "uint8"
            },
            {
              "internalType": "uint16",
              "name": "epoch",
              "type": "uint16"
            },
            {
              "internalType": "bytes32[]",
              "name": "proof",
              "type": "bytes32[]"
            },
            {
              "internalType": "bytes32",
              "name": "chunkHash",
              "type": "bytes32"
            }
          ],
          "internalType": "struct ServiceAgreementStructsV1.ProofInputArgs",
          "name": "args",
          "type": "tuple"
        }
      ],
      "name": "sendProof",
      "outputs": [],
      "stateMutability": "nonpayable",
      "type": "function"
    }
  ],
  "bytecode": "0x60806040523480156200001157600080fd5b5060405162005f0d38038062005f0d8339810160408190526200003491620006be565b6001600160a01b0381166200004857600080fd5b600080546001600160a01b0319166001600160a01b038316908117909155604051630110ceef60e21b815260206004820152600c60248201526b48617368696e6750726f787960a01b60448201526304433bbc90606401602060405180830381865afa158015620000bd573d6000803e3d6000fd5b505050506040513d601f19601f82011682018060405250810190620000e39190620006be565b600180546001600160a01b0319166001600160a01b03928316179055600054604051630110ceef60e21b815260206004820152600c60248201526b53636f72696e6750726f787960a01b60448201529116906304433bbc90606401602060405180830381865afa1580156200015c573d6000803e3d6000fd5b505050506040513d601f19601f82011682018060405250810190620001829190620006be565b600280546001600160a01b0319166001600160a01b03928316179055600054604051630110ceef60e21b81526020600482015260076024820152665374616b696e6760c81b60448201529116906304433bbc90606401602060405180830381865afa158015620001f6573d6000803e3d6000fd5b505050506040513d601f19601f820116820180604052508101906200021c9190620006be565b600380546001600160a01b0319166001600160a01b03928316179055600054604051630110ceef60e21b815260206004820152601060248201526f417373657274696f6e53746f7261676560801b60448201529116906304433bbc90606401602060405180830381865afa15801562000299573d6000803e3d6000fd5b505050506040513d601f19601f82011682018060405250810190620002bf9190620006be565b600480546001600160a01b039283166001600160a01b0319909116178155600054604051630110ceef60e21b81529216916304433bbc916200032591016020808252600f908201526e4964656e7469747953746f7261676560881b604082015260600190565b602060405180830381865afa15801562000343573d6000803e3d6000fd5b505050506040513d601f19601f82011682018060405250810190620003699190620006be565b600580546001600160a01b0319166001600160a01b03928316179055600054604051630110ceef60e21b8152602060048201526011602482015270506172616d657465727353746f7261676560781b60448201529116906304433bbc90606401602060405180830381865afa158015620003e7573d6000803e3d6000fd5b505050506040513d601f19601f820116820180604052508101906200040d9190620006be565b600680546001600160a01b0319166001600160a01b03928316179055600054604051630110ceef60e21b815260206004820152600e60248201526d50726f66696c6553746f7261676560901b60448201529116906304433bbc90606401602060405180830381865afa15801562000488573d6000803e3d6000fd5b505050506040513d601f19601f82011682018060405250810190620004ae9190620006be565b600780546001600160a01b0319166001600160a01b03928316179055600054604051630110ceef60e21b815260206004820152601960248201527f5365727669636541677265656d656e7453746f7261676556310000000000000060448201529116906304433bbc90606401602060405180830381865afa15801562000538573d6000803e3d6000fd5b505050506040513d601f19601f820116820180604052508101906200055e9190620006be565b600880546001600160a01b0319166001600160a01b03928316179055600054604051630110ceef60e21b815260206004820152600e60248201526d5374616b696e6753746f7261676560901b60448201529116906304433bbc90606401602060405180830381865afa158015620005d9573d6000803e3d6000fd5b505050506040513d601f19601f82011682018060405250810190620005ff9190620006be565b600980546001600160a01b0319166001600160a01b03928316179055600054604051630110ceef60e21b81526020600482015260056024820152642a37b5b2b760d91b60448201529116906304433bbc90606401602060405180830381865afa15801562000671573d6000803e3d6000fd5b505050506040513d601f19601f82011682018060405250810190620006979190620006be565b600a80546001600160a01b0319166001600160a01b039290921691909117905550620006f0565b600060208284031215620006d157600080fd5b81516001600160a01b0381168114620006e957600080fd5b9392505050565b61580d80620007006000396000f3fe608060405234801561001057600080fd5b50600436106101515760003560e01c80637662966a116100cd578063d210b7cf11610081578063ee99205c11610066578063ee99205c1461034c578063f11abfd81461036c578063f42cb0381461038c57600080fd5b8063d210b7cf14610319578063e1572ce61461033957600080fd5b8063aa6a00fd116100b2578063aa6a00fd146102c3578063b518a00e146102e6578063becdd5971461030657600080fd5b80637662966a146102835780637db4ffd8146102a357600080fd5b8063365a86fc1161012457806355a373d61161010957806355a373d614610230578063639a86a3146102505780637522c2b11461027057600080fd5b8063365a86fc146101f057806350d0c1441461021057600080fd5b80630f0020161461015657806311c94ee814610183578063169df8d8146101c8578063271af8a8146101dd575b600080fd5b610169610164366004614cf3565b6103ac565b604080519283526020830191909152015b60405180910390f35b6001546101a39073ffffffffffffffffffffffffffffffffffffffff1681565b60405173ffffffffffffffffffffffffffffffffffffffff909116815260200161017a565b6101db6101d6366004614d42565b610684565b005b6101db6101eb366004614d7d565b610b02565b6000546101a39073ffffffffffffffffffffffffffffffffffffffff1681565b6008546101a39073ffffffffffffffffffffffffffffffffffffffff1681565b600a546101a39073ffffffffffffffffffffffffffffffffffffffff1681565b6006546101a39073ffffffffffffffffffffffffffffffffffffffff1681565b6101db61027e366004614db9565b6115dc565b6002546101a39073ffffffffffffffffffffffffffffffffffffffff1681565b6102b66102b1366004614df4565b6123d4565b60405161017a9190614e24565b6102d66102d1366004614df4565b612a23565b604051901515815260200161017a565b6009546101a39073ffffffffffffffffffffffffffffffffffffffff1681565b6102d6610314366004614df4565b612ecf565b6004546101a39073ffffffffffffffffffffffffffffffffffffffff1681565b6101db610347366004614d7d565b613317565b6003546101a39073ffffffffffffffffffffffffffffffffffffffff1681565b6005546101a39073ffffffffffffffffffffffffffffffffffffffff1681565b6007546101a39073ffffffffffffffffffffffffffffffffffffffff1681565b6005546040517f867a468000000000000000000000000000000000000000000000000000000000815273ffffffffffffffffffffffffffffffffffffffff8681166004830152600092839283929091169063867a468090602401602060405180830381865afa158015610423573d6000803e3d6000fd5b505050506040513d601f19601f820116820180604052508101906104479190614eb8565b6040517fcede992f00000000000000000000000000000000000000000000000000000000815260048101879052909150869060009073ffffffffffffffffffffffffffffffffffffffff83169063cede992f90602401602060405180830381865afa1580156104ba573d6000803e3d6000fd5b505050506040513d601f19601f820116820180604052508101906104de9190614ed3565b600480546040517f2111070900000000000000000000000000000000000000000000000000000000815291820183905291925060009173ffffffffffffffffffffffffffffffffffffffff1690632111070990602401602060405180830381865afa158015610551573d6000803e3d6000fd5b505050506040513d601f19601f820116820180604052508101906105759190614f06565b6bffffffffffffffffffffffff1690508181600289876040516020016105f192919060f09290921b7fffff00000000000000000000000000000000000000000000000000000000000016825260b81b7fffffffffffffffffff0000000000000000000000000000000000000000000000166002820152600b0190565b604080517fffffffffffffffffffffffffffffffffffffffffffffffffffffffffffffffe08184030181529082905261062991614f53565b602060405180830381855afa158015610646573d6000803e3d6000fd5b5050506040513d601f19601f820116820180604052508101906106699190614ed3565b6106739190614f9e565b955095505050505094509492505050565b60006106bd6106966020840184614fb2565b60208401356106a86040860186614fcd565b6106b86080880160608901615048565b613f27565b90506106d38161031460a0850160808601615065565b61073e576040517f08c379a000000000000000000000000000000000000000000000000000000000815260206004820152601760248201527f436f6d6d69742077696e646f7720697320636c6f73656400000000000000000060448201526064015b60405180910390fd5b6005546040517f867a468000000000000000000000000000000000000000000000000000000000815233600482015260009173ffffffffffffffffffffffffffffffffffffffff169063867a468090602401602060405180830381865afa1580156107ad573d6000803e3d6000fd5b505050506040513d601f19601f820116820180604052508101906107d19190614eb8565b6002546008546040517fce60dc610000000000000000000000000000000000000000000000000000000081526004810186905292935060009273ffffffffffffffffffffffffffffffffffffffff92831692630b47a00892169063ce60dc6190602401602060405180830381865afa158015610851573d6000803e3d6000fd5b505050506040513d601f19601f820116820180604052508101906108759190615082565b6108856080880160608901615048565b6007546040517f41c10b9a00000000000000000000000000000000000000000000000000000000815268ffffffffffffffffff8816600482015273ffffffffffffffffffffffffffffffffffffffff909116906341c10b9a90602401600060405180830381865afa1580156108fe573d6000803e3d6000fd5b505050506040513d6000823e601f3d9081017fffffffffffffffffffffffffffffffffffffffffffffffffffffffffffffffe016820160405261094491908101906150ce565b61095160408a018a614fcd565b6009546040517f9d2b48ad00000000000000000000000000000000000000000000000000000000815268ffffffffffffffffff8b16600482015273ffffffffffffffffffffffffffffffffffffffff90911690639d2b48ad90602401602060405180830381865afa1580156109ca573d6000803e3d6000fd5b505050506040513d601f19601f820116820180604052508101906109ee9190614f06565b6040518763ffffffff1660e01b8152600401610a0f9695949392919061522c565b6020604051808303816000875af1158015610a2e573d6000803e3d6000fd5b505050506040513d601f19601f82011682018060405250810190610a52919061529b565b9050610a7283610a6860a0870160808801615065565b8460008086613fdc565b68ffffffffffffffffff821660208501803590610a8f9087614fb2565b73ffffffffffffffffffffffffffffffffffffffff167f06d678193262cc8cf0c98a32a42cc9c6ccb379cf09a5766360b3a6b6d59723d3610ad36040890189614fcd565b610ae360808b0160608c01615048565b87604051610af494939291906152b6565b60405180910390a450505050565b610b0a614843565b6000610b41610b1f6040840160208501614fb2565b6040840135610b316060860186614fcd565b6106b860a0880160808901615048565b60085490915073ffffffffffffffffffffffffffffffffffffffff166000610b6c6020850185614fb2565b73ffffffffffffffffffffffffffffffffffffffff1603610be9576040517f08c379a000000000000000000000000000000000000000000000000000000000815260206004820152601b60248201527f41737365742063726561746f722063616e6e6f742062652030783000000000006044820152606401610735565b6040517f86e0cc880000000000000000000000000000000000000000000000000000000081526004810183905273ffffffffffffffffffffffffffffffffffffffff8216906386e0cc8890602401602060405180830381865afa158015610c54573d6000803e3d6000fd5b505050506040513d601f19601f82011682018060405250810190610c7891906152eb565b610cde576040517f08c379a000000000000000000000000000000000000000000000000000000000815260206004820152601f60248201527f536572766963652041677265656d656e7420646f65736e2774206578697374006044820152606401610735565b610cee60c0840160a08501615065565b61ffff16600003610d5b576040517f08c379a000000000000000000000000000000000000000000000000000000000815260206004820152601960248201527f45706f636873206e756d6265722063616e6e6f742062652030000000000000006044820152606401610735565b610d6b60e0840160c0850161530d565b6bffffffffffffffffffffffff16600003610de2576040517f08c379a000000000000000000000000000000000000000000000000000000000815260206004820152601860248201527f546f6b656e20616d6f756e742063616e6e6f74206265203000000000000000006044820152606401610735565b60025473ffffffffffffffffffffffffffffffffffffffff1663e12e56a7610e11610100860160e08701615048565b6040517fffffffff0000000000000000000000000000000000000000000000000000000060e084901b16815260ff9091166004820152602401602060405180830381865afa158015610e67573d6000803e3d6000fd5b505050506040513d601f19601f82011682018060405250810190610e8b91906152eb565b610ef1576040517f08c379a000000000000000000000000000000000000000000000000000000000815260206004820152601c60248201527f53636f72652066756e6374696f6e20646f65736e2774206578697374000000006044820152606401610735565b6040517f4089a17d0000000000000000000000000000000000000000000000000000000081526004810183905260009073ffffffffffffffffffffffffffffffffffffffff831690634089a17d90602401602060405180830381865afa158015610f5f573d6000803e3d6000fd5b505050506040513d601f19601f82011682018060405250810190610f839190614f06565b905073ffffffffffffffffffffffffffffffffffffffff8216630f3a549d84610fb260c0880160a08901615065565b6040517fffffffff0000000000000000000000000000000000000000000000000000000060e085901b168152600481019290925261ffff166024820152604401600060405180830381600087803b15801561100c57600080fd5b505af1158015611020573d6000803e3d6000fd5b50505073ffffffffffffffffffffffffffffffffffffffff8316905063e54b26ff8461105260e0880160c0890161530d565b6040517fffffffff0000000000000000000000000000000000000000000000000000000060e085901b16815260048101929092526bffffffffffffffffffffffff166024820152604401600060405180830381600087803b1580156110b657600080fd5b505af11580156110ca573d6000803e3d6000fd5b50505073ffffffffffffffffffffffffffffffffffffffff83169050636441a276846110fd610100880160e08901615048565b6040517fffffffff0000000000000000000000000000000000000000000000000000000060e085901b168152600481019290925260ff166024820152604401600060405180830381600087803b15801561115657600080fd5b505af115801561116a573d6000803e3d6000fd5b5050600a5473ffffffffffffffffffffffffffffffffffffffff16915082905061119a60e0870160c0880161530d565b6111a49190615359565b6bffffffffffffffffffffffff1673ffffffffffffffffffffffffffffffffffffffff821663dd62ed3e6111db6020890189614fb2565b6040517fffffffff0000000000000000000000000000000000000000000000000000000060e084901b16815273ffffffffffffffffffffffffffffffffffffffff9091166004820152306024820152604401602060405180830381865afa15801561124a573d6000803e3d6000fd5b505050506040513d601f19601f8201168201806040525081019061126e9190614ed3565b10156112fc576040517f08c379a000000000000000000000000000000000000000000000000000000000815260206004820152602260248201527f53656e64657220616c6c6f77616e6365206d757374206265203e3d20616d6f7560448201527f6e740000000000000000000000000000000000000000000000000000000000006064820152608401610735565b8161130d60e0870160c0880161530d565b6113179190615359565b6bffffffffffffffffffffffff1673ffffffffffffffffffffffffffffffffffffffff82166370a0823161134e6020890189614fb2565b6040517fffffffff0000000000000000000000000000000000000000000000000000000060e084901b16815273ffffffffffffffffffffffffffffffffffffffff9091166004820152602401602060405180830381865afa1580156113b7573d6000803e3d6000fd5b505050506040513d601f19601f820116820180604052508101906113db9190614ed3565b1015611443576040517f08c379a000000000000000000000000000000000000000000000000000000000815260206004820181905260248201527f53656e6465722062616c616e6365206d757374206265203e3d20616d6f756e746044820152606401610735565b73ffffffffffffffffffffffffffffffffffffffff81166323b872dd61146c6020880188614fb2565b858561147e60e08b0160c08c0161530d565b6114889190615359565b6040517fffffffff0000000000000000000000000000000000000000000000000000000060e086901b16815273ffffffffffffffffffffffffffffffffffffffff93841660048201529290911660248301526bffffffffffffffffffffffff1660448201526064016020604051808303816000875af115801561150f573d6000803e3d6000fd5b505050506040513d601f19601f8201168201806040525081019061153391906152eb565b50604085018035906115489060208801614fb2565b73ffffffffffffffffffffffffffffffffffffffff167f18f7112b7bab68afa5bae58afb27a44357ea01c2850f33e5b17e264de835ef3061158c6060890189614fcd565b61159c60a08b0160808c01615048565b6115ac60c08c0160a08d01615065565b6115bc60e08d0160c08e0161530d565b6040516115cd959493929190615386565b60405180910390a35050505050565b60006115ee6106966020840184614fb2565b9050611604816102d160a0850160808601615065565b61166a576040517f08c379a000000000000000000000000000000000000000000000000000000000815260206004820152601660248201527f50726f6f662077696e646f7720697320636c6f736564000000000000000000006044820152606401610735565b6005546040517f867a468000000000000000000000000000000000000000000000000000000000815233600482015273ffffffffffffffffffffffffffffffffffffffff90911690600090829063867a468090602401602060405180830381865afa1580156116dd573d6000803e3d6000fd5b505050506040513d601f19601f820116820180604052508101906117019190614eb8565b60085490915073ffffffffffffffffffffffffffffffffffffffff1680635c6c1fef8561173460a0890160808a01615065565b856040516020016117a29392919092835260f09190911b7fffff00000000000000000000000000000000000000000000000000000000000016602083015260b81b7fffffffffffffffffff0000000000000000000000000000000000000000000000166022820152602b0190565b604051602081830303815290604052805190602001206040518263ffffffff1660e01b81526004016117d691815260200190565b602060405180830381865afa1580156117f3573d6000803e3d6000fd5b505050506040513d601f19601f82011682018060405250810190611817919061529b565b64ffffffffff16600003611887576040517f08c379a000000000000000000000000000000000000000000000000000000000815260206004820152601c60248201527f596f75277665206265656e20616c7265616479207265776172646564000000006044820152606401610735565b600073ffffffffffffffffffffffffffffffffffffffff821663572943f7866118b660a08a0160808b01615065565b6040517fffffffff0000000000000000000000000000000000000000000000000000000060e085901b168152600481019290925261ffff166024820152604401602060405180830381865afa158015611913573d6000803e3d6000fd5b505050506040513d601f19601f820116820180604052508101906119379190614ed3565b90506000600660009054906101000a900473ffffffffffffffffffffffffffffffffffffffff1673ffffffffffffffffffffffffffffffffffffffff16638d73d86a6040518163ffffffff1660e01b8152600401602060405180830381865afa1580156119a8573d6000803e3d6000fd5b505050506040513d601f19601f820116820180604052508101906119cc91906153cc565b905060005b6040517f08feb20b0000000000000000000000000000000000000000000000000000000081526004810184905273ffffffffffffffffffffffffffffffffffffffff8516906308feb20b90602401602060405180830381865afa158015611a3c573d6000803e3d6000fd5b505050506040513d601f19601f82011682018060405250810190611a609190614eb8565b68ffffffffffffffffff168568ffffffffffffffffff1614158015611a8d57508163ffffffff168160ff16105b15611bdf5786611aa360a08a0160808b01615065565b6040517fb67b6e1e0000000000000000000000000000000000000000000000000000000081526004810186905273ffffffffffffffffffffffffffffffffffffffff87169063b67b6e1e90602401602060405180830381865afa158015611b0e573d6000803e3d6000fd5b505050506040513d601f19601f82011682018060405250810190611b329190614eb8565b604051602001611b9f9392919092835260f09190911b7fffff00000000000000000000000000000000000000000000000000000000000016602083015260b81b7fffffffffffffffffff0000000000000000000000000000000000000000000000166022820152602b0190565b604080517fffffffffffffffffffffffffffffffffffffffffffffffffffffffffffffffe0818403018152919052805160209091012092506001016119d1565b8163ffffffff168160ff1610611c77576040517f08c379a000000000000000000000000000000000000000000000000000000000815260206004820152603a60248201527f596f7572206e6f6465206861736e2774206265656e206177617264656420666f60448201527f72207468697320617373657420696e20746869732065706f63680000000000006064820152608401610735565b600080611ca333611c8b60208d018d614fb2565b8c602001358d60800160208101906101649190615065565b9092509050611d26611cb860a08c018c6153f2565b8080602002602001604051908101604052809392919081815260200183836020028082843760009201919091525050604051869250611d0b915060c08f0135908690602001918252602082015260400190565b6040516020818303038152906040528051906020012061493d565b611d8c576040517f08c379a000000000000000000000000000000000000000000000000000000000815260206004820152601760248201527f526f6f74206861736820646f65736e2774206d617463680000000000000000006044820152606401610735565b68ffffffffffffffffff871660208b01803590611da9908d614fb2565b73ffffffffffffffffffffffffffffffffffffffff167f366aaa9c8abe80c090bc64cea91ec9dd40e38cc712d3381824709c5a1562f2c4611ded60408f018f614fcd565b8f6060016020810190611e009190615048565b604051611e0f9392919061545a565b60405180910390a460008673ffffffffffffffffffffffffffffffffffffffff1663ac9d7cf48b8d6080016020810190611e499190615065565b6040517fffffffff0000000000000000000000000000000000000000000000000000000060e085901b168152600481019290925261ffff166024820152604401602060405180830381865afa158015611ea6573d6000803e3d6000fd5b505050506040513d601f19601f82011682018060405250810190611eca91906153cc565b611ed49086615481565b63ffffffff16611eea60a08d0160808e01615065565b6040517fd1a640c7000000000000000000000000000000000000000000000000000000008152600481018d905273ffffffffffffffffffffffffffffffffffffffff8a169063d1a640c790602401602060405180830381865afa158015611f55573d6000803e3d6000fd5b505050506040513d601f19601f82011682018060405250810190611f79919061549e565b611f8391906154bb565b611f8e9060016154d6565b61ffff168873ffffffffffffffffffffffffffffffffffffffff16634089a17d8d6040518263ffffffff1660e01b8152600401611fcd91815260200190565b602060405180830381865afa158015611fea573d6000803e3d6000fd5b505050506040513d601f19601f8201168201806040525081019061200e9190614f06565b61201891906154fc565b61202291906154fc565b6003546040517fa7b5dd5900000000000000000000000000000000000000000000000000000000815268ffffffffffffffffff8b1660048201526bffffffffffffffffffffffff8316602482015291925073ffffffffffffffffffffffffffffffffffffffff169063a7b5dd5990604401600060405180830381600087803b1580156120ad57600080fd5b505af11580156120c1573d6000803e3d6000fd5b50506040517f4089a17d000000000000000000000000000000000000000000000000000000008152600481018d905273ffffffffffffffffffffffffffffffffffffffff8a16925063e54b26ff91508c9084908490634089a17d90602401602060405180830381865afa15801561213c573d6000803e3d6000fd5b505050506040513d601f19601f820116820180604052508101906121609190614f06565b61216a9190615359565b6040517fffffffff0000000000000000000000000000000000000000000000000000000060e085901b16815260048101929092526bffffffffffffffffffffffff166024820152604401600060405180830381600087803b1580156121ce57600080fd5b505af11580156121e2573d6000803e3d6000fd5b505050508673ffffffffffffffffffffffffffffffffffffffff1663beca40f38b8d60800160208101906122169190615065565b6040517fffffffff0000000000000000000000000000000000000000000000000000000060e085901b168152600481019290925261ffff166024820152604401600060405180830381600087803b15801561227057600080fd5b505af1158015612284573d6000803e3d6000fd5b505050508673ffffffffffffffffffffffffffffffffffffffff16633d6317168b8d60800160208101906122b89190615065565b8b6040516020016123269392919092835260f09190911b7fffff00000000000000000000000000000000000000000000000000000000000016602083015260b81b7fffffffffffffffffff0000000000000000000000000000000000000000000000166022820152602b0190565b604080517fffffffffffffffffffffffffffffffffffffffffffffffffffffffffffffffe08184030181529082905280516020909101207fffffffff0000000000000000000000000000000000000000000000000000000060e084901b168252600482015260006024820152604401600060405180830381600087803b1580156123af57600080fd5b505af11580156123c3573d6000803e3d6000fd5b505050505050505050505050505050565b6008546040517f86e0cc880000000000000000000000000000000000000000000000000000000081526004810184905260609173ffffffffffffffffffffffffffffffffffffffff169081906386e0cc8890602401602060405180830381865afa158015612446573d6000803e3d6000fd5b505050506040513d601f19601f8201168201806040525081019061246a91906152eb565b6124d0576040517f08c379a000000000000000000000000000000000000000000000000000000000815260206004820152601f60248201527f536572766963652041677265656d656e7420646f65736e2774206578697374006044820152606401610735565b6040517fd1a640c70000000000000000000000000000000000000000000000000000000081526004810185905273ffffffffffffffffffffffffffffffffffffffff82169063d1a640c790602401602060405180830381865afa15801561253b573d6000803e3d6000fd5b505050506040513d601f19601f8201168201806040525081019061255f919061549e565b61ffff168361ffff16106125cf576040517f08c379a000000000000000000000000000000000000000000000000000000000815260206004820152601960248201527f536572766963652041677265656d656e742065787069726564000000000000006044820152606401610735565b600654604080517f8d73d86a000000000000000000000000000000000000000000000000000000008152905160009273ffffffffffffffffffffffffffffffffffffffff1691638d73d86a9160048083019260209291908290030181865afa15801561263f573d6000803e3d6000fd5b505050506040513d601f19601f8201168201806040525081019061266391906153cc565b905060008163ffffffff1667ffffffffffffffff8111156126865761268661509f565b6040519080825280602002602001820160405280156126f657816020015b6040805160808101825260008082526020808301829052928201819052606082015282527fffffffffffffffffffffffffffffffffffffffffffffffffffffffffffffffff9092019101816126a45790505b506040517f572943f70000000000000000000000000000000000000000000000000000000081526004810188905261ffff8716602482015290915060009073ffffffffffffffffffffffffffffffffffffffff85169063572943f790604401602060405180830381865afa158015612772573d6000803e3d6000fd5b505050506040513d601f19601f820116820180604052508101906127969190614ed3565b6040517f88f7a9b40000000000000000000000000000000000000000000000000000000081526004810182905290915073ffffffffffffffffffffffffffffffffffffffff8516906388f7a9b490602401608060405180830381865afa158015612804573d6000803e3d6000fd5b505050506040513d601f19601f820116820180604052508101906128289190615527565b8260008151811061283b5761283b6155a4565b60200260200101819052506000808360008151811061285c5761285c6155a4565b60200260200101516040015190506000600190505b8563ffffffff168160ff16108015612893575068ffffffffffffffffff821615155b15612a135760408051602081018c90527fffff00000000000000000000000000000000000000000000000000000000000060f08c901b16918101919091527fffffffffffffffffff000000000000000000000000000000000000000000000060b884901b166042820152604b01604080518083037fffffffffffffffffffffffffffffffffffffffffffffffffffffffffffffffe00181529082905280516020909101207f88f7a9b400000000000000000000000000000000000000000000000000000000825260048201819052935073ffffffffffffffffffffffffffffffffffffffff8816906388f7a9b490602401608060405180830381865afa1580156129a1573d6000803e3d6000fd5b505050506040513d601f19601f820116820180604052508101906129c59190615527565b858260ff16815181106129da576129da6155a4565b6020026020010181905250848160ff16815181106129fa576129fa6155a4565b6020908102919091010151604001519150600101612871565b5092955050505050505b92915050565b6008546040517f9c70b3c00000000000000000000000000000000000000000000000000000000081526004810184905260009173ffffffffffffffffffffffffffffffffffffffff169082908290639c70b3c090602401602060405180830381865afa158015612a97573d6000803e3d6000fd5b505050506040513d601f19601f82011682018060405250810190612abb9190614ed3565b905080600003612b27576040517f08c379a000000000000000000000000000000000000000000000000000000000815260206004820152601f60248201527f536572766963652041677265656d656e7420646f65736e2774206578697374006044820152606401610735565b6040517fd1a640c70000000000000000000000000000000000000000000000000000000081526004810186905273ffffffffffffffffffffffffffffffffffffffff83169063d1a640c790602401602060405180830381865afa158015612b92573d6000803e3d6000fd5b505050506040513d601f19601f82011682018060405250810190612bb6919061549e565b61ffff168461ffff1610612c26576040517f08c379a000000000000000000000000000000000000000000000000000000000815260206004820152601960248201527f536572766963652041677265656d656e742065787069726564000000000000006044820152606401610735565b6040517f484a47e700000000000000000000000000000000000000000000000000000000815260048101869052429060009073ffffffffffffffffffffffffffffffffffffffff85169063484a47e790602401602060405180830381865afa158015612c96573d6000803e3d6000fd5b505050506040513d601f19601f82011682018060405250810190612cba91906155d3565b6040517f99149f770000000000000000000000000000000000000000000000000000000081526004810189905290915060009073ffffffffffffffffffffffffffffffffffffffff8616906399149f7790602401602060405180830381865afa158015612d2b573d6000803e3d6000fd5b505050506040513d601f19601f82011682018060405250810190612d4f9190615082565b905060006064612d6260ff841685615605565b612d6c919061563d565b6fffffffffffffffffffffffffffffffff16905060006064600660009054906101000a900473ffffffffffffffffffffffffffffffffffffffff1673ffffffffffffffffffffffffffffffffffffffff16639d3ceb0c6040518163ffffffff1660e01b8152600401602060405180830381865afa158015612df1573d6000803e3d6000fd5b505050506040513d601f19601f82011682018060405250810190612e159190615082565b612e229060ff1686615605565b612e2c919061563d565b6fffffffffffffffffffffffffffffffff16905081612e4f61ffff8b1686615605565b612e6b906fffffffffffffffffffffffffffffffff1688615660565b612e759190615660565b85118015612ec157508082612e8e61ffff8c1687615605565b612eaa906fffffffffffffffffffffffffffffffff1689615660565b612eb49190615660565b612ebe9190615660565b85105b9a9950505050505050505050565b6008546040517f9c70b3c00000000000000000000000000000000000000000000000000000000081526004810184905260009173ffffffffffffffffffffffffffffffffffffffff169082908290639c70b3c090602401602060405180830381865afa158015612f43573d6000803e3d6000fd5b505050506040513d601f19601f82011682018060405250810190612f679190614ed3565b905080600003612fd3576040517f08c379a000000000000000000000000000000000000000000000000000000000815260206004820152601f60248201527f536572766963652041677265656d656e7420646f65736e2774206578697374006044820152606401610735565b6040517fd1a640c70000000000000000000000000000000000000000000000000000000081526004810186905273ffffffffffffffffffffffffffffffffffffffff83169063d1a640c790602401602060405180830381865afa15801561303e573d6000803e3d6000fd5b505050506040513d601f19601f82011682018060405250810190613062919061549e565b61ffff168461ffff16106130f8576040517f08c379a000000000000000000000000000000000000000000000000000000000815260206004820152602260248201527f536572766963652041677265656d656e7420686173206265656e20657870697260448201527f65640000000000000000000000000000000000000000000000000000000000006064820152608401610735565b6006546040517f484a47e70000000000000000000000000000000000000000000000000000000081526004810187905273ffffffffffffffffffffffffffffffffffffffff91821691429160009186169063484a47e790602401602060405180830381865afa15801561316f573d6000803e3d6000fd5b505050506040513d601f19601f8201168201806040525081019061319391906155d3565b90508661ffff1660000361322c578273ffffffffffffffffffffffffffffffffffffffff1663e8d487ff6040518163ffffffff1660e01b8152600401602060405180830381865afa1580156131ec573d6000803e3d6000fd5b505050506040513d601f19601f82011682018060405250810190613210919061549e565b61321e9061ffff1685615660565b821095505050505050612a1d565b61323a61ffff881682615605565b613256906fffffffffffffffffffffffffffffffff1685615660565b8211801561330b57508273ffffffffffffffffffffffffffffffffffffffff1663e8d487ff6040518163ffffffff1660e01b8152600401602060405180830381865afa1580156132aa573d6000803e3d6000fd5b505050506040513d601f19601f820116820180604052508101906132ce919061549e565b61ffff168761ffff16826132e29190615605565b6132fe906fffffffffffffffffffffffffffffffff1686615660565b6133089190615660565b82105b98975050505050505050565b61331f614843565b600061332e6020830183614fb2565b73ffffffffffffffffffffffffffffffffffffffff16036133ab576040517f08c379a000000000000000000000000000000000000000000000000000000000815260206004820152601b60248201527f41737365742063726561746f722063616e6e6f742062652030783000000000006044820152606401610735565b60005473ffffffffffffffffffffffffffffffffffffffff16638d5d2d856133d96040840160208501614fb2565b6040517fffffffff0000000000000000000000000000000000000000000000000000000060e084901b16815273ffffffffffffffffffffffffffffffffffffffff9091166004820152602401602060405180830381865afa158015613442573d6000803e3d6000fd5b505050506040513d601f19601f8201168201806040525081019061346691906152eb565b6134cc576040517f08c379a000000000000000000000000000000000000000000000000000000000815260206004820152601d60248201527f417373657420436f6e7472616374206e6f7420696e20746865206875620000006044820152606401610735565b7fc5d2460186f7233c927e7db2dcc703c0e500b653ca82273b7bfad8045d85a4706134fa6060830183614fcd565b604051613508929190615678565b604051809103902003613577576040517f08c379a000000000000000000000000000000000000000000000000000000000815260206004820152601660248201527f4b6579776f72642063616e277420626520656d707479000000000000000000006044820152606401610735565b61358760c0820160a08301615065565b61ffff166000036135f4576040517f08c379a000000000000000000000000000000000000000000000000000000000815260206004820152601960248201527f45706f636873206e756d6265722063616e6e6f742062652030000000000000006044820152606401610735565b61360460e0820160c0830161530d565b6bffffffffffffffffffffffff1660000361367b576040517f08c379a000000000000000000000000000000000000000000000000000000000815260206004820152601860248201527f546f6b656e20616d6f756e742063616e6e6f74206265203000000000000000006044820152606401610735565b60025473ffffffffffffffffffffffffffffffffffffffff1663e12e56a76136aa610100840160e08501615048565b6040517fffffffff0000000000000000000000000000000000000000000000000000000060e084901b16815260ff9091166004820152602401602060405180830381865afa158015613700573d6000803e3d6000fd5b505050506040513d601f19601f8201168201806040525081019061372491906152eb565b61378a576040517f08c379a000000000000000000000000000000000000000000000000000000000815260206004820152601c60248201527f53636f72652066756e6374696f6e20646f65736e2774206578697374000000006044820152606401610735565b600061379f610b1f6040840160208501614fb2565b60085460065491925073ffffffffffffffffffffffffffffffffffffffff908116911681634c72fefc846137d960c0880160a08901615065565b8473ffffffffffffffffffffffffffffffffffffffff166357d775f86040518163ffffffff1660e01b8152600401602060405180830381865afa158015613824573d6000803e3d6000fd5b505050506040513d601f19601f8201168201806040525081019061384891906155d3565b61385860e08a0160c08b0161530d565b6138696101008b0160e08c01615048565b61397161387960208d018d614fb2565b8973ffffffffffffffffffffffffffffffffffffffff16638e6262426040518163ffffffff1660e01b8152600401602060405180830381865afa1580156138c4573d6000803e3d6000fd5b505050506040513d601f19601f820116820180604052508101906138e89190615082565b8a73ffffffffffffffffffffffffffffffffffffffff1663ff2117436040518163ffffffff1660e01b8152600401602060405180830381865afa158015613933573d6000803e3d6000fd5b505050506040513d601f19601f820116820180604052508101906139579190615082565b6139619190615688565b61396c9060016156ab565b614953565b8873ffffffffffffffffffffffffffffffffffffffff16638e6262426040518163ffffffff1660e01b8152600401602060405180830381865afa1580156139bc573d6000803e3d6000fd5b505050506040513d601f19601f820116820180604052508101906139e09190615082565b6139ea91906156ab565b6040517fffffffff0000000000000000000000000000000000000000000000000000000060e089901b168152600481019690965261ffff90941660248601526fffffffffffffffffffffffffffffffff90921660448501526bffffffffffffffffffffffff16606484015260ff90811660848401521660a482015260c401600060405180830381600087803b158015613a8257600080fd5b505af1158015613a96573d6000803e3d6000fd5b5050600a5473ffffffffffffffffffffffffffffffffffffffff169150613ac5905060e0860160c0870161530d565b6bffffffffffffffffffffffff1673ffffffffffffffffffffffffffffffffffffffff821663dd62ed3e613afc6020890189614fb2565b6040517fffffffff0000000000000000000000000000000000000000000000000000000060e084901b16815273ffffffffffffffffffffffffffffffffffffffff9091166004820152306024820152604401602060405180830381865afa158015613b6b573d6000803e3d6000fd5b505050506040513d601f19601f82011682018060405250810190613b8f9190614ed3565b1015613bf7576040517f08c379a000000000000000000000000000000000000000000000000000000000815260206004820152601f60248201527f53656e64657220616c6c6f77616e6365206d757374203e3d20616d6f756e74006044820152606401610735565b613c0760e0860160c0870161530d565b6bffffffffffffffffffffffff1673ffffffffffffffffffffffffffffffffffffffff82166370a08231613c3e6020890189614fb2565b6040517fffffffff0000000000000000000000000000000000000000000000000000000060e084901b16815273ffffffffffffffffffffffffffffffffffffffff9091166004820152602401602060405180830381865afa158015613ca7573d6000803e3d6000fd5b505050506040513d601f19601f82011682018060405250810190613ccb9190614ed3565b1015613d33576040517f08c379a000000000000000000000000000000000000000000000000000000000815260206004820181905260248201527f53656e6465722062616c616e6365206d757374206265203e3d20616d6f756e746044820152606401610735565b73ffffffffffffffffffffffffffffffffffffffff81166323b872dd613d5c6020880188614fb2565b85613d6d60e08a0160c08b0161530d565b6040517fffffffff0000000000000000000000000000000000000000000000000000000060e086901b16815273ffffffffffffffffffffffffffffffffffffffff93841660048201529290911660248301526bffffffffffffffffffffffff1660448201526064016020604051808303816000875af1158015613df4573d6000803e3d6000fd5b505050506040513d601f19601f82011682018060405250810190613e1891906152eb565b5060408501803590613e2d9060208801614fb2565b73ffffffffffffffffffffffffffffffffffffffff167f4b81188c3c973dd634ec0dae5b7e72f92bb03834c830739d63935923950d6f64613e716060890189614fcd565b613e8160a08b0160808c01615048565b42613e9260c08d0160a08e01615065565b8973ffffffffffffffffffffffffffffffffffffffff166357d775f86040518163ffffffff1660e01b8152600401602060405180830381865afa158015613edd573d6000803e3d6000fd5b505050506040513d601f19601f82011682018060405250810190613f0191906155d3565b8d60c0016020810190613f14919061530d565b6040516115cd97969594939291906156d0565b60015460405160009173ffffffffffffffffffffffffffffffffffffffff16906345ed59e5908490613f63908a908a908a908a90602001615735565b6040516020818303038152906040526040518363ffffffff1660e01b8152600401613f8f92919061577b565b6020604051808303816000875af1158015613fae573d6000803e3d6000fd5b505050506040513d601f19601f82011682018060405250810190613fd29190614ed3565b9695505050505050565b6008546040805160208082018a905260f089901b7fffff000000000000000000000000000000000000000000000000000000000000168284015260b888901b7fffffffffffffffffff00000000000000000000000000000000000000000000001660428301528251602b818403018152604b83018085528151918301919091207fc45d174900000000000000000000000000000000000000000000000000000000909152604f8301819052925173ffffffffffffffffffffffffffffffffffffffff90941693849263c45d174992606f8083019391928290030181865afa1580156140cb573d6000803e3d6000fd5b505050506040513d601f19601f820116820180604052508101906140ef91906152eb565b15614156576040517f08c379a000000000000000000000000000000000000000000000000000000000815260206004820152601960248201527f4e6f64652068617320616c726561647920636f6d6d69746564000000000000006044820152606401610735565b6040517f572943f70000000000000000000000000000000000000000000000000000000081526004810189905261ffff8816602482015260009073ffffffffffffffffffffffffffffffffffffffff84169063572943f790604401602060405180830381865afa1580156141ce573d6000803e3d6000fd5b505050506040513d601f19601f820116820180604052508101906141f29190614ed3565b6006546040517fb67b6e1e0000000000000000000000000000000000000000000000000000000081526004810183905291925073ffffffffffffffffffffffffffffffffffffffff9081169160009186169063b67b6e1e90602401602060405180830381865afa15801561426a573d6000803e3d6000fd5b505050506040513d601f19601f8201168201806040525081019061428e9190614eb8565b905060008273ffffffffffffffffffffffffffffffffffffffff16638d73d86a6040518163ffffffff1660e01b8152600401602060405180830381865afa1580156142dd573d6000803e3d6000fd5b505050506040513d601f19601f8201168201806040525081019061430191906153cc565b905060005b6040517f5c6c1fef0000000000000000000000000000000000000000000000000000000081526004810186905273ffffffffffffffffffffffffffffffffffffffff881690635c6c1fef90602401602060405180830381865afa158015614371573d6000803e3d6000fd5b505050506040513d601f19601f82011682018060405250810190614395919061529b565b64ffffffffff168864ffffffffff161080156143bb575068ffffffffffffffffff831615155b80156143cf57508163ffffffff168160ff16105b1561450b5760408051602081018f90527fffff00000000000000000000000000000000000000000000000000000000000060f08f901b16918101919091527fffffffffffffffffff000000000000000000000000000000000000000000000060b885901b166042820152604b01604080518083037fffffffffffffffffffffffffffffffffffffffffffffffffffffffffffffffe00181529082905280516020909101207fb67b6e1e00000000000000000000000000000000000000000000000000000000825260048201819052955073ffffffffffffffffffffffffffffffffffffffff88169063b67b6e1e90602401602060405180830381865afa1580156144dd573d6000803e3d6000fd5b505050506040513d601f19601f820116820180604052508101906145019190614eb8565b9250600101614306565b8163ffffffff168160ff161061457d576040517f08c379a000000000000000000000000000000000000000000000000000000000815260206004820152601860248201527f4e6f64652072616e6b2073686f756c64206265203c20523000000000000000006044820152606401610735565b6040517fcf57ca2f0000000000000000000000000000000000000000000000000000000081526004810187905268ffffffffffffffffff808d166024830152808c1660448301528a16606482015264ffffffffff8916608482015273ffffffffffffffffffffffffffffffffffffffff88169063cf57ca2f9060a401600060405180830381600087803b15801561461357600080fd5b505af1158015614627573d6000803e3d6000fd5b50506040517f88f7a9b4000000000000000000000000000000000000000000000000000000008152600481018890526000925073ffffffffffffffffffffffffffffffffffffffff8a1691506388f7a9b490602401608060405180830381865afa158015614699573d6000803e3d6000fd5b505050506040513d601f19601f820116820180604052508101906146bd9190615527565b905060ff82161580156146da5750805168ffffffffffffffffff16155b15614775576040517f88f6df56000000000000000000000000000000000000000000000000000000008152600481018f905261ffff8e1660248201526044810188905273ffffffffffffffffffffffffffffffffffffffff8916906388f6df5690606401600060405180830381600087803b15801561475857600080fd5b505af115801561476c573d6000803e3d6000fd5b50505050614833565b60ff82161580156147985750806060015164ffffffffff168964ffffffffff1611155b156147b2576147ad8e8e83600001518f6149c6565b614833565b60ff82161580156147d45750806060015164ffffffffff168964ffffffffff16115b156147e9576147ad8e8e8e84600001516149c6565b806060015164ffffffffff168964ffffffffff161115614823576148138e8e83602001518f6149c6565b6147ad8e8e8e84600001516149c6565b6148338e8e83600001518f6149c6565b5050505050505050505050505050565b6000546040517f8d5d2d8500000000000000000000000000000000000000000000000000000000815233600482015273ffffffffffffffffffffffffffffffffffffffff90911690638d5d2d8590602401602060405180830381865afa1580156148b1573d6000803e3d6000fd5b505050506040513d601f19601f820116820180604052508101906148d591906152eb565b61493b576040517f08c379a000000000000000000000000000000000000000000000000000000000815260206004820152601f60248201527f466e2063616e206f6e6c792062652063616c6c656420627920617373657473006044820152606401610735565b565b60008261494a8584614c3b565b14949350505050565b604080514260208201527fffffffffffffffffffffffffffffffffffffffff000000000000000000000000606085901b169181019190915243605482015260009060ff8316906074016040516020818303038152906040528051906020012060001c6149bf9190614f9e565b9392505050565b60085460408051602081018790527fffff00000000000000000000000000000000000000000000000000000000000060f087901b16918101919091527fffffffffffffffffff000000000000000000000000000000000000000000000060b885901b16604282015273ffffffffffffffffffffffffffffffffffffffff909116908190638a0f01b590604b01604080517fffffffffffffffffffffffffffffffffffffffffffffffffffffffffffffffe08184030181529082905280516020909101207fffffffff0000000000000000000000000000000000000000000000000000000060e084901b168252600482015268ffffffffffffffffff85166024820152604401600060405180830381600087803b158015614ae557600080fd5b505af1158015614af9573d6000803e3d6000fd5b505050508073ffffffffffffffffffffffffffffffffffffffff1663e184b9e8868685604051602001614b899392919092835260f09190911b7fffff00000000000000000000000000000000000000000000000000000000000016602083015260b81b7fffffffffffffffffff0000000000000000000000000000000000000000000000166022820152602b0190565b604080517fffffffffffffffffffffffffffffffffffffffffffffffffffffffffffffffe08184030181529082905280516020909101207fffffffff0000000000000000000000000000000000000000000000000000000060e084901b168252600482015268ffffffffffffffffff86166024820152604401600060405180830381600087803b158015614c1c57600080fd5b505af1158015614c30573d6000803e3d6000fd5b505050505050505050565b600081815b8451811015614c8057614c6c82868381518110614c5f57614c5f6155a4565b6020026020010151614c88565b915080614c788161579f565b915050614c40565b509392505050565b6000818310614ca45760008281526020849052604090206149bf565b60008381526020839052604090206149bf565b803573ffffffffffffffffffffffffffffffffffffffff81168114614cdb57600080fd5b919050565b61ffff81168114614cf057600080fd5b50565b60008060008060808587031215614d0957600080fd5b614d1285614cb7565b9350614d2060208601614cb7565b9250604085013591506060850135614d3781614ce0565b939692955090935050565b600060208284031215614d5457600080fd5b813567ffffffffffffffff811115614d6b57600080fd5b820160a081850312156149bf57600080fd5b600060208284031215614d8f57600080fd5b813567ffffffffffffffff811115614da657600080fd5b820161010081850312156149bf57600080fd5b600060208284031215614dcb57600080fd5b813567ffffffffffffffff811115614de257600080fd5b820160e081850312156149bf57600080fd5b60008060408385031215614e0757600080fd5b823591506020830135614e1981614ce0565b809150509250929050565b602080825282518282018190526000919060409081850190868401855b82811015614e92578151805168ffffffffffffffffff90811686528782015181168887015286820151168686015260609081015164ffffffffff169085015260809093019290850190600101614e41565b5091979650505050505050565b805168ffffffffffffffffff81168114614cdb57600080fd5b600060208284031215614eca57600080fd5b6149bf82614e9f565b600060208284031215614ee557600080fd5b5051919050565b6bffffffffffffffffffffffff81168114614cf057600080fd5b600060208284031215614f1857600080fd5b81516149bf81614eec565b60005b83811015614f3e578181015183820152602001614f26565b83811115614f4d576000848401525b50505050565b60008251614f65818460208701614f23565b9190910192915050565b7f4e487b7100000000000000000000000000000000000000000000000000000000600052601260045260246000fd5b600082614fad57614fad614f6f565b500690565b600060208284031215614fc457600080fd5b6149bf82614cb7565b60008083357fffffffffffffffffffffffffffffffffffffffffffffffffffffffffffffffe184360301811261500257600080fd5b83018035915067ffffffffffffffff82111561501d57600080fd5b60200191503681900382131561503257600080fd5b9250929050565b60ff81168114614cf057600080fd5b60006020828403121561505a57600080fd5b81356149bf81615039565b60006020828403121561507757600080fd5b81356149bf81614ce0565b60006020828403121561509457600080fd5b81516149bf81615039565b7f4e487b7100000000000000000000000000000000000000000000000000000000600052604160045260246000fd5b6000602082840312156150e057600080fd5b815167ffffffffffffffff808211156150f857600080fd5b818401915084601f83011261510c57600080fd5b81518181111561511e5761511e61509f565b604051601f82017fffffffffffffffffffffffffffffffffffffffffffffffffffffffffffffffe0908116603f011681019083821181831017156151645761516461509f565b8160405282815287602084870101111561517d57600080fd5b61518e836020830160208801614f23565b979650505050505050565b600081518084526151b1816020860160208601614f23565b601f017fffffffffffffffffffffffffffffffffffffffffffffffffffffffffffffffe0169290920160200192915050565b8183528181602085013750600060208284010152600060207fffffffffffffffffffffffffffffffffffffffffffffffffffffffffffffffe0601f840116840101905092915050565b60ff8716815260ff8616602082015260a06040820152600061525160a0830187615199565b82810360608401526152648186886151e3565b9150506bffffffffffffffffffffffff83166080830152979650505050505050565b805164ffffffffff81168114614cdb57600080fd5b6000602082840312156152ad57600080fd5b6149bf82615286565b6060815260006152ca6060830186886151e3565b905060ff8416602083015264ffffffffff8316604083015295945050505050565b6000602082840312156152fd57600080fd5b815180151581146149bf57600080fd5b60006020828403121561531f57600080fd5b81356149bf81614eec565b7f4e487b7100000000000000000000000000000000000000000000000000000000600052601160045260246000fd5b60006bffffffffffffffffffffffff8381169083168181101561537e5761537e61532a565b039392505050565b60808152600061539a6080830187896151e3565b60ff9590951660208301525061ffff9290921660408301526bffffffffffffffffffffffff1660609091015292915050565b6000602082840312156153de57600080fd5b815163ffffffff811681146149bf57600080fd5b60008083357fffffffffffffffffffffffffffffffffffffffffffffffffffffffffffffffe184360301811261542757600080fd5b83018035915067ffffffffffffffff82111561544257600080fd5b6020019150600581901b360382131561503257600080fd5b60408152600061546e6040830185876151e3565b905060ff83166020830152949350505050565b600063ffffffff8381169083168181101561537e5761537e61532a565b6000602082840312156154b057600080fd5b81516149bf81614ce0565b600061ffff8381169083168181101561537e5761537e61532a565b600061ffff8083168185168083038211156154f3576154f361532a565b01949350505050565b60006bffffffffffffffffffffffff8084168061551b5761551b614f6f565b92169190910492915050565b60006080828403121561553957600080fd5b6040516080810181811067ffffffffffffffff8211171561555c5761555c61509f565b60405261556883614e9f565b815261557660208401614e9f565b602082015261558760408401614e9f565b604082015261559860608401615286565b60608201529392505050565b7f4e487b7100000000000000000000000000000000000000000000000000000000600052603260045260246000fd5b6000602082840312156155e557600080fd5b81516fffffffffffffffffffffffffffffffff811681146149bf57600080fd5b60006fffffffffffffffffffffffffffffffff808316818516818304811182151516156156345761563461532a565b02949350505050565b60006fffffffffffffffffffffffffffffffff8084168061551b5761551b614f6f565b600082198211156156735761567361532a565b500190565b8183823760009101908152919050565b600060ff821660ff8416808210156156a2576156a261532a565b90039392505050565b600060ff821660ff84168060ff038211156156c8576156c861532a565b019392505050565b60c0815260006156e460c08301898b6151e3565b60ff97909716602083015250604081019490945261ffff9290921660608401526fffffffffffffffffffffffffffffffff1660808301526bffffffffffffffffffffffff1660a09091015292915050565b7fffffffffffffffffffffffffffffffffffffffff0000000000000000000000008560601b16815283601482015281836034830137600091016034019081529392505050565b60ff831681526040602082015260006157976040830184615199565b949350505050565b60007fffffffffffffffffffffffffffffffffffffffffffffffffffffffffffffffff82036157d0576157d061532a565b506001019056fea26469706673582212204950b82c25b7dd42d79e831e82692d0901493ada2111062d52105c1df1918d2264736f6c634300080e0033",
  "immutableReferences": {},
  "source": "// SPDX-License-Identifier: MIT\n\npragma solidity ^0.8.0;\n\nimport { HashingProxy } from \"./HashingProxy.sol\";\nimport { Hub } from \"./Hub.sol\";\nimport { ScoringProxy } from \"./ScoringProxy.sol\";\nimport { Staking } from \"./Staking.sol\";\nimport { AbstractAsset } from \"./assets/AbstractAsset.sol\";\nimport { AssertionStorage } from \"./storage/AssertionStorage.sol\";\nimport { IdentityStorage } from \"./storage/IdentityStorage.sol\";\nimport { ParametersStorage } from \"./storage/ParametersStorage.sol\";\nimport { ProfileStorage } from \"./storage/ProfileStorage.sol\";\nimport { ServiceAgreementStorageV1 } from \"./storage/ServiceAgreementStorageV1.sol\";\nimport { StakingStorage } from \"./storage/StakingStorage.sol\";\nimport { ServiceAgreementStructsV1 } from \"./structs/ServiceAgreementStructsV1.sol\";\nimport { IERC20 } from \"@openzeppelin/contracts/token/ERC20/IERC20.sol\";\nimport { MerkleProof } from \"@openzeppelin/contracts/utils/cryptography/MerkleProof.sol\";\n\ncontract ServiceAgreementV1 {\n\n    event ServiceAgreementV1Created(\n        address indexed assetContract,\n        uint256 indexed tokenId,\n        bytes keyword,\n        uint8 hashFunctionId,\n        uint256 startTime,\n        uint16 epochsNumber,\n        uint128 epochLength,\n        uint96 tokenAmount\n    );\n    event ServiceAgreementV1Updated(\n        address indexed assetContract,\n        uint256 indexed tokenId,\n        bytes keyword,\n        uint8 hashFunctionId,\n        uint16 epochsNumber,\n        uint96 tokenAmount\n    );\n    event CommitSubmitted(\n        address indexed assetContract,\n        uint256 indexed tokenId,\n        bytes keyword,\n        uint8 hashFunctionId,\n        uint72 indexed identityId,\n        uint40 score\n    );\n    event ProofSubmitted(\n        address indexed assetContract,\n        uint256 indexed tokenId,\n        bytes keyword,\n        uint8 hashFunctionId,\n        uint72 indexed identityId\n    );\n\n    Hub public hub;\n    HashingProxy public hashingProxy;\n    ScoringProxy public scoringProxy;\n    Staking public stakingContract;\n    AssertionStorage public assertionStorage;\n    IdentityStorage public identityStorage;\n    ParametersStorage public parametersStorage;\n    ProfileStorage public profileStorage;\n    ServiceAgreementStorageV1 public serviceAgreementStorageV1;\n    StakingStorage public stakingStorage;\n    IERC20 public tokenContract;\n\n    constructor (address hubAddress) {\n        require(hubAddress != address(0));\n\n        hub = Hub(hubAddress);\n        hashingProxy = HashingProxy(hub.getContractAddress(\"HashingProxy\"));\n        scoringProxy = ScoringProxy(hub.getContractAddress(\"ScoringProxy\"));\n        stakingContract = Staking(hub.getContractAddress(\"Staking\"));\n        assertionStorage = AssertionStorage(hub.getContractAddress(\"AssertionStorage\"));\n        identityStorage = IdentityStorage(hub.getContractAddress(\"IdentityStorage\"));\n        parametersStorage = ParametersStorage(hub.getContractAddress(\"ParametersStorage\"));\n        profileStorage = ProfileStorage(hub.getContractAddress(\"ProfileStorage\"));\n        serviceAgreementStorageV1 = ServiceAgreementStorageV1(hub.getContractAddress(\"ServiceAgreementStorageV1\"));\n        stakingStorage = StakingStorage(hub.getContractAddress(\"StakingStorage\"));\n        tokenContract = IERC20(hub.getContractAddress(\"Token\"));\n    }\n\n    modifier onlyAssetContracts() {\n        _checkAssetContract();\n        _;\n    }\n\n    function createServiceAgreement(ServiceAgreementStructsV1.ServiceAgreementInputArgs calldata args)\n        external\n        onlyAssetContracts\n    {\n        require(args.assetCreator != address(0), \"Asset creator cannot be 0x0\");\n        require(hub.isAssetContract(args.assetContract), \"Asset Contract not in the hub\");\n        require(keccak256(args.keyword) != keccak256(\"\"), \"Keyword can't be empty\");\n        require(args.epochsNumber != 0, \"Epochs number cannot be 0\");\n        require(args.tokenAmount != 0, \"Token amount cannot be 0\");\n        require(scoringProxy.isScoreFunction(args.scoreFunctionId), \"Score function doesn't exist\");\n\n        bytes32 agreementId = _generateAgreementId(args.assetContract, args.tokenId, args.keyword, args.hashFunctionId);\n\n        ServiceAgreementStorageV1 sasV1 = serviceAgreementStorageV1;\n        ParametersStorage params = parametersStorage;\n\n        sasV1.createServiceAgreementObject(\n            agreementId,\n            args.epochsNumber,\n            params.epochLength(),\n            args.tokenAmount,\n            args.scoreFunctionId,\n            params.minProofWindowOffsetPerc() + _generatePseudorandomUint8(\n                args.assetCreator,\n                params.maxProofWindowOffsetPerc() - params.minProofWindowOffsetPerc() + 1\n            )\n        );\n\n        IERC20 tknc = tokenContract;\n        require(\n            tknc.allowance(args.assetCreator, address(this)) >= args.tokenAmount,\n            \"Sender allowance must >= amount\"\n        );\n        require(tknc.balanceOf(args.assetCreator) >= args.tokenAmount, \"Sender balance must be >= amount\");\n\n        tknc.transferFrom(args.assetCreator, address(sasV1), args.tokenAmount);\n\n        emit ServiceAgreementV1Created(\n            args.assetContract,\n            args.tokenId,\n            args.keyword,\n            args.hashFunctionId,\n            block.timestamp,\n            args.epochsNumber,\n            params.epochLength(),\n            args.tokenAmount\n        );\n    }\n\n    // TODO: Split into smaller functions [update only epochsNumber / tokenAmount / scoreFunctionId etc.]\n    function updateServiceAgreement(ServiceAgreementStructsV1.ServiceAgreementInputArgs calldata args)\n        external\n        onlyAssetContracts\n    {\n        bytes32 agreementId = _generateAgreementId(args.assetContract, args.tokenId, args.keyword, args.hashFunctionId);\n\n        ServiceAgreementStorageV1 sasV1 = serviceAgreementStorageV1;\n\n        require(args.assetCreator != address(0), \"Asset creator cannot be 0x0\");\n        require(sasV1.serviceAgreementExists(agreementId), \"Service Agreement doesn't exist\");\n        require(args.epochsNumber != 0, \"Epochs number cannot be 0\");\n        require(args.tokenAmount != 0, \"Token amount cannot be 0\");\n        require(scoringProxy.isScoreFunction(args.scoreFunctionId), \"Score function doesn't exist\");\n\n        uint96 actualRewardAmount = sasV1.getAgreementTokenAmount(agreementId);\n\n        sasV1.setAgreementEpochsNumber(agreementId, args.epochsNumber);\n        sasV1.setAgreementTokenAmount(agreementId, args.tokenAmount);\n        sasV1.setAgreementScoreFunctionId(agreementId, args.scoreFunctionId);\n\n        IERC20 tknc = tokenContract;\n\n        require(\n            tknc.allowance(args.assetCreator, address(this)) >= (args.tokenAmount - actualRewardAmount),\n            \"Sender allowance must be >= amount\"\n        );\n        require(\n            tknc.balanceOf(args.assetCreator) >= (args.tokenAmount - actualRewardAmount),\n            \"Sender balance must be >= amount\"\n        );\n\n        tknc.transferFrom(args.assetCreator, address(sasV1), args.tokenAmount - actualRewardAmount);\n\n        emit ServiceAgreementV1Updated(\n            args.assetContract,\n            args.tokenId,\n            args.keyword,\n            args.hashFunctionId,\n            args.epochsNumber,\n            args.tokenAmount\n        );\n    }\n\n    function isCommitWindowOpen(bytes32 agreementId, uint16 epoch) public view returns (bool) {\n        ServiceAgreementStorageV1 sasV1 = serviceAgreementStorageV1;\n        uint256 startTime = sasV1.getAgreementStartTime(agreementId);\n\n        require(startTime != 0, \"Service Agreement doesn't exist\");\n        require(epoch < sasV1.getAgreementEpochsNumber(agreementId), \"Service Agreement has been expired\");\n\n        ParametersStorage params = parametersStorage;\n        uint256 timeNow = block.timestamp;\n        uint128 epochLength = sasV1.getAgreementEpochLength(agreementId);\n\n        if (epoch == 0) {\n            return timeNow < (startTime + params.commitWindowDuration());\n        }\n\n        return (\n            timeNow > (startTime + epochLength * epoch) &&\n            timeNow < (startTime + epochLength * epoch + params.commitWindowDuration())\n        );\n    }\n\n    function getTopCommitSubmissions(bytes32 agreementId, uint16 epoch)\n        external\n        view\n        returns (ServiceAgreementStructsV1.CommitSubmission[] memory)\n    {\n        ServiceAgreementStorageV1 sasV1 = serviceAgreementStorageV1;\n\n        require(sasV1.serviceAgreementExists(agreementId), \"Service Agreement doesn't exist\");\n        require(epoch < sasV1.getAgreementEpochsNumber(agreementId), \"Service Agreement expired\");\n\n        uint32 r0 = parametersStorage.R0();\n\n        ServiceAgreementStructsV1.CommitSubmission[] memory epochCommits =\n            new ServiceAgreementStructsV1.CommitSubmission[](r0);\n\n        bytes32 epochSubmissionsHead = sasV1.getAgreementEpochSubmissionHead(agreementId, epoch);\n\n        epochCommits[0] = sasV1.getCommitSubmission(epochSubmissionsHead);\n\n        bytes32 commitId;\n        uint72 nextIdentityId = epochCommits[0].nextIdentityId;\n        uint8 submissionsIdx = 1;\n        while((submissionsIdx < r0) && (nextIdentityId != 0)) {\n            commitId = keccak256(abi.encodePacked(agreementId, epoch, nextIdentityId));\n            epochCommits[submissionsIdx] = sasV1.getCommitSubmission(commitId);\n\n            nextIdentityId = epochCommits[submissionsIdx].nextIdentityId;\n\n            unchecked { submissionsIdx++; }\n        }\n\n        return epochCommits;\n    }\n\n    function submitCommit(ServiceAgreementStructsV1.CommitInputArgs calldata args) external {\n        bytes32 agreementId = _generateAgreementId(args.assetContract, args.tokenId, args.keyword, args.hashFunctionId);\n\n        require(isCommitWindowOpen(agreementId, args.epoch), \"Commit window is closed\");\n\n        uint72 identityId = identityStorage.getIdentityId(msg.sender);\n\n        uint40 score = scoringProxy.callScoreFunction(\n            serviceAgreementStorageV1.getAgreementScoreFunctionId(agreementId),\n            args.hashFunctionId,\n            profileStorage.getNodeId(identityId),\n            args.keyword,\n            stakingStorage.totalStakes(identityId)\n        );\n\n        _insertCommit(\n            agreementId,\n            args.epoch,\n            identityId,\n            0,\n            0,\n            score\n        );\n\n        emit CommitSubmitted(\n            args.assetContract,\n            args.tokenId,\n            args.keyword,\n            args.hashFunctionId,\n            identityId,\n            score\n        );\n    }\n\n    function isProofWindowOpen(bytes32 agreementId, uint16 epoch) public view returns (bool) {\n        ServiceAgreementStorageV1 sasV1 = serviceAgreementStorageV1;\n        uint256 startTime = sasV1.getAgreementStartTime(agreementId);\n\n        require(startTime != 0, \"Service Agreement doesn't exist\");\n        require(epoch < sasV1.getAgreementEpochsNumber(agreementId), \"Service Agreement expired\");\n\n        uint256 timeNow = block.timestamp;\n        uint128 epochLength = sasV1.getAgreementEpochLength(agreementId);\n        uint8 proofWindowOffsetPerc = sasV1.getAgreementProofWindowOffsetPerc(agreementId);\n\n        uint256 proofWindowOffset = epochLength * proofWindowOffsetPerc / 100;\n        uint256 proofWindowDuration = epochLength * parametersStorage.proofWindowDurationPerc() / 100;\n\n        return (\n            timeNow > (startTime + epochLength * epoch + proofWindowOffset) &&\n            timeNow < (startTime + epochLength * epoch + proofWindowOffset + proofWindowDuration)\n        );\n    }\n\n    function getChallenge(address sender, address assetContract, uint256 tokenId, uint16 epoch)\n        public\n        view\n        returns (bytes32, uint256)\n    {\n        uint72 identityId = identityStorage.getIdentityId(sender);\n\n        AbstractAsset generalAssetInterface = AbstractAsset(assetContract);\n        bytes32 assertionId = generalAssetInterface.getLatestAssertionId(tokenId);\n\n        uint256 assertionChunksNumber = assertionStorage.getAssertionChunksNumber(assertionId);\n\n        // blockchash() function only works for last 256 blocks (25.6 min window in case of 6s block time)\n        // TODO: figure out how to achieve randomness\n        return (\n            assertionId,\n            uint256(\n                sha256(abi.encodePacked(epoch, identityId))\n            ) % assertionChunksNumber\n        );\n    }\n\n    function sendProof(ServiceAgreementStructsV1.ProofInputArgs calldata args) external {\n        bytes32 agreementId = _generateAgreementId(args.assetContract, args.tokenId, args.keyword, args.hashFunctionId);\n\n        require(isProofWindowOpen(agreementId, args.epoch), \"Proof window is closed\");\n\n        IdentityStorage ids = identityStorage;\n\n        uint72 identityId = ids.getIdentityId(msg.sender);\n\n        ServiceAgreementStorageV1 sasV1 = serviceAgreementStorageV1;\n\n        require(\n            sasV1.getCommitSubmissionScore(keccak256(abi.encodePacked(agreementId, args.epoch, identityId))) != 0,\n            \"You've been already rewarded\"\n        );\n\n        bytes32 nextCommitId = sasV1.getAgreementEpochSubmissionHead(agreementId, args.epoch);\n        uint32 r0 = parametersStorage.R0();\n        uint8 i;\n        while ((identityId != sasV1.getCommitSubmissionsIdentityId(nextCommitId)) && i < r0) {\n            nextCommitId = keccak256(\n                abi.encodePacked(agreementId, args.epoch, sasV1.getCommitSubmissionNextIdentityId(nextCommitId))\n            );\n            unchecked { i++; }\n        }\n\n        require(i < r0, \"Your node hasn't been awarded for this asset in this epoch\");\n\n        bytes32 merkleRoot;\n        uint256 challenge;\n        (merkleRoot, challenge) = getChallenge(msg.sender, args.assetContract, args.tokenId, args.epoch);\n\n        require(\n            MerkleProof.verify(args.proof, merkleRoot, keccak256(abi.encodePacked(args.chunkHash, challenge))),\n            \"Root hash doesn't match\"\n        );\n\n        emit ProofSubmitted(\n            args.assetContract,\n            args.tokenId,\n            args.keyword,\n            args.hashFunctionId,\n            identityId\n        );\n\n        uint96 reward = (\n            sasV1.getAgreementTokenAmount(agreementId) /\n            (sasV1.getAgreementEpochsNumber(agreementId) - args.epoch + 1) /\n            (r0 - sasV1.getAgreementRewardedNodesNumber(agreementId, args.epoch))\n        );\n\n        stakingContract.addReward(identityId, reward);\n        sasV1.setAgreementTokenAmount(agreementId, sasV1.getAgreementTokenAmount(agreementId) - reward);\n        sasV1.incrementAgreementRewardedNodesNumber(agreementId, args.epoch);\n\n        // To make sure that node already received reward\n        sasV1.setCommitSubmissionScore(keccak256(abi.encodePacked(agreementId, args.epoch, identityId)), 0);\n    }\n\n    function _insertCommit(\n        bytes32 agreementId,\n        uint16 epoch,\n        uint72 identityId,\n        uint72 prevIdentityId,\n        uint72 nextIdentityId,\n        uint40 score\n    )\n        private\n    {\n        ServiceAgreementStorageV1 sasV1 = serviceAgreementStorageV1;\n\n        bytes32 commitId = keccak256(abi.encodePacked(agreementId, epoch, identityId));\n\n        require(!sasV1.commitSubmissionExists(commitId), \"Node has already commited\");\n\n        bytes32 refCommitId = sasV1.getAgreementEpochSubmissionHead(agreementId, epoch);\n\n        ParametersStorage params = parametersStorage;\n\n        uint72 refCommitNextIdentityId = sasV1.getCommitSubmissionNextIdentityId(refCommitId);\n        uint32 r0 = params.R0();\n        uint8 i;\n        while (\n            (score <  sasV1.getCommitSubmissionScore(refCommitId)) &&\n            (refCommitNextIdentityId != 0) &&\n            (i < r0)\n        ) {\n            refCommitId = keccak256(\n                abi.encodePacked(agreementId, epoch, refCommitNextIdentityId)\n            );\n\n            refCommitNextIdentityId = sasV1.getCommitSubmissionNextIdentityId(refCommitId);\n            unchecked { i++; }\n        }\n\n        require(i < r0, \"Node rank should be < R0\");\n\n        sasV1.createCommitSubmissionObject(commitId, identityId, prevIdentityId, nextIdentityId, score);\n\n        ServiceAgreementStructsV1.CommitSubmission memory refCommit = sasV1.getCommitSubmission(refCommitId);\n\n        if ((i == 0) && (refCommit.identityId == 0)) {\n            //  No head -> Setting new head\n            sasV1.setAgreementEpochSubmissionHead(agreementId, epoch, commitId);\n        } else if ((i == 0) && (score <= refCommit.score)) {\n            // There is a head with higher or equal score, add new commit on the right\n            _link_commits(agreementId, epoch, refCommit.identityId, identityId);\n        } else if ((i == 0) && (score > refCommit.score)) {\n            // There is a head with lower score, replace the head\n            _link_commits(agreementId, epoch, identityId, refCommit.identityId);\n        }  else if (score > refCommit.score) {\n            // [H] - head\n            // [RC] - reference commit\n            // [RC-] - commit before reference commit\n            // [RC+] - commit after reference commit\n            // [NC] - new commit\n            // [] <-> [H] <-> [X] ... [RC-] <-> [RC] <-> [RC+] ... [C] <-> []\n            // [] <-> [H] <-> [X] ... [RC-] <-(NL)-> [NC] <-(NL)-> [RC] <-> [RC+] ... [C] <-> []\n            _link_commits(agreementId, epoch, refCommit.prevIdentityId, identityId);\n            _link_commits(agreementId, epoch, identityId, refCommit.identityId);\n        } else {\n            // [] <-> [H] <-> [RC] <-> []\n            // [] <-> [H] <-> [RC] <-(NL)-> [NC] <-> []\n            _link_commits(agreementId, epoch, refCommit.identityId, identityId);\n        }\n    }\n\n    function _link_commits(bytes32 agreementId, uint16 epoch, uint72 leftIdentityId, uint72 rightIdentityId) private {\n        ServiceAgreementStorageV1 sasV1 = serviceAgreementStorageV1;\n\n        sasV1.setCommitSubmissionNextIdentityId(\n            keccak256(abi.encodePacked(agreementId, epoch, leftIdentityId)),  // leftCommitId\n            rightIdentityId\n        );\n\n        sasV1.setCommitSubmissionPrevIdentityId(\n            keccak256(abi.encodePacked(agreementId, epoch, rightIdentityId)),  // rightCommitId\n            leftIdentityId\n        );\n    }\n\n    function _generateAgreementId(address assetContract, uint256 tokenId, bytes calldata keyword, uint8 hashFunctionId)\n        private\n        returns (bytes32)\n    {\n        return hashingProxy.callHashFunction(hashFunctionId, abi.encodePacked(assetContract, tokenId, keyword));\n    }\n\n    function _generatePseudorandomUint8(address sender, uint8 limit) private view returns (uint8) {\n        return uint8(uint256(keccak256(abi.encodePacked(block.timestamp, sender, block.number))) % limit);\n    }\n\n    function _checkAssetContract() internal view virtual {\n        require (hub.isAssetContract(msg.sender), \"Fn can only be called by assets\");\n    }\n\n}\n",
  "sourcePath": "/Users/waving/Desktop/OriginTrail/dkg-evm-module/contracts/ServiceAgreementV1.sol",
  "compiler": {
    "name": "solc",
    "version": "0.8.14+commit.80d49f37.Emscripten.clang"
  },
  "schemaVersion": "3.4.10",
  "updatedAt": "2022-12-03T16:02:16.556Z",
  "devdoc": {
    "kind": "dev",
    "methods": {},
    "version": 1
  },
  "userdoc": {
    "kind": "user",
    "methods": {},
    "version": 1
  }
}