{
  "contractName": "ServiceAgreementStorage",
  "abi": [
    {
      "inputs": [
        {
          "internalType": "address",
          "name": "hubAddress",
          "type": "address"
        }
      ],
      "stateMutability": "nonpayable",
      "type": "constructor"
    },
    {
      "anonymous": false,
      "inputs": [
        {
          "indexed": false,
          "internalType": "address",
          "name": "assetContract",
          "type": "address"
        },
        {
          "indexed": false,
          "internalType": "uint256",
          "name": "tokenId",
          "type": "uint256"
        },
        {
          "indexed": true,
          "internalType": "bytes",
          "name": "keyword",
          "type": "bytes"
        },
        {
          "indexed": false,
          "internalType": "uint8",
          "name": "hashingFunctionId",
          "type": "uint8"
        },
        {
          "indexed": true,
          "internalType": "uint96",
          "name": "identityId",
          "type": "uint96"
        },
        {
          "indexed": true,
          "internalType": "bytes",
          "name": "nodeId",
          "type": "bytes"
        },
        {
          "indexed": false,
          "internalType": "uint32",
          "name": "score",
          "type": "uint32"
        }
      ],
      "name": "CommitSubmitted",
      "type": "event"
    },
    {
      "anonymous": false,
      "inputs": [
        {
          "indexed": false,
          "internalType": "address",
          "name": "assetContract",
          "type": "address"
        },
        {
          "indexed": false,
          "internalType": "uint256",
          "name": "tokenId",
          "type": "uint256"
        },
        {
          "indexed": true,
          "internalType": "bytes",
          "name": "keyword",
          "type": "bytes"
        },
        {
          "indexed": false,
          "internalType": "uint8",
          "name": "hashingFunctionId",
          "type": "uint8"
        },
        {
          "indexed": true,
          "internalType": "uint96",
          "name": "identityId",
          "type": "uint96"
        },
        {
          "indexed": true,
          "internalType": "bytes",
          "name": "nodeId",
          "type": "bytes"
        }
      ],
      "name": "ProofSubmitted",
      "type": "event"
    },
    {
      "anonymous": false,
      "inputs": [
        {
          "indexed": true,
          "internalType": "address",
          "name": "assetContract",
          "type": "address"
        },
        {
          "indexed": true,
          "internalType": "uint256",
          "name": "tokenId",
          "type": "uint256"
        },
        {
          "indexed": true,
          "internalType": "bytes",
          "name": "keyword",
          "type": "bytes"
        },
        {
          "indexed": false,
          "internalType": "uint8",
          "name": "hashingFunctionId",
          "type": "uint8"
        },
        {
          "indexed": false,
          "internalType": "uint256",
          "name": "startTime",
          "type": "uint256"
        },
        {
          "indexed": false,
          "internalType": "uint16",
          "name": "epochsNum",
          "type": "uint16"
        },
        {
          "indexed": false,
          "internalType": "uint128",
          "name": "epochLength",
          "type": "uint128"
        },
        {
          "indexed": false,
          "internalType": "uint96",
          "name": "tokenAmount",
          "type": "uint96"
        }
      ],
      "name": "ServiceAgreementCreated",
      "type": "event"
    },
    {
      "anonymous": false,
      "inputs": [
        {
          "indexed": true,
          "internalType": "address",
          "name": "assetContract",
          "type": "address"
        },
        {
          "indexed": true,
          "internalType": "uint256",
          "name": "tokenId",
          "type": "uint256"
        },
        {
          "indexed": true,
          "internalType": "bytes",
          "name": "keyword",
          "type": "bytes"
        },
        {
          "indexed": false,
          "internalType": "uint8",
          "name": "hashingFunctionId",
          "type": "uint8"
        },
        {
          "indexed": false,
          "internalType": "uint16",
          "name": "epochsNum",
          "type": "uint16"
        },
        {
          "indexed": false,
          "internalType": "uint96",
          "name": "tokenAmount",
          "type": "uint96"
        }
      ],
      "name": "ServiceAgreementUpdated",
      "type": "event"
    },
    {
      "inputs": [],
      "name": "hub",
      "outputs": [
        {
          "internalType": "contract Hub",
          "name": "",
          "type": "address"
        }
      ],
      "stateMutability": "view",
      "type": "function"
    },
    {
      "inputs": [
        {
          "internalType": "bytes32",
          "name": "",
          "type": "bytes32"
        }
      ],
      "name": "serviceAgreements",
      "outputs": [
        {
          "internalType": "uint256",
          "name": "startTime",
          "type": "uint256"
        },
        {
          "internalType": "uint16",
          "name": "epochsNum",
          "type": "uint16"
        },
        {
          "internalType": "uint128",
          "name": "epochLength",
          "type": "uint128"
        },
        {
          "internalType": "uint96",
          "name": "tokenAmount",
          "type": "uint96"
        },
        {
          "internalType": "uint8",
          "name": "scoringFunctionId",
          "type": "uint8"
        },
        {
          "internalType": "uint8",
          "name": "proofWindowOffsetPerc",
          "type": "uint8"
        }
      ],
      "stateMutability": "view",
      "type": "function"
    },
    {
      "inputs": [
        {
          "internalType": "address",
          "name": "operationalWallet",
          "type": "address"
        },
        {
          "internalType": "address",
          "name": "assetContract",
          "type": "address"
        },
        {
          "internalType": "uint256",
          "name": "tokenId",
          "type": "uint256"
        },
        {
          "internalType": "bytes",
          "name": "keyword",
          "type": "bytes"
        },
        {
          "internalType": "uint8",
          "name": "hashingFunctionId",
          "type": "uint8"
        },
        {
          "internalType": "uint16",
          "name": "epochsNum",
          "type": "uint16"
        },
        {
          "internalType": "uint96",
          "name": "tokenAmount",
          "type": "uint96"
        },
        {
          "internalType": "uint8",
          "name": "scoringFunctionId",
          "type": "uint8"
        }
      ],
      "name": "createServiceAgreement",
      "outputs": [],
      "stateMutability": "nonpayable",
      "type": "function"
    },
    {
      "inputs": [
        {
          "internalType": "address",
          "name": "operationalWallet",
          "type": "address"
        },
        {
          "internalType": "address",
          "name": "assetContract",
          "type": "address"
        },
        {
          "internalType": "uint256",
          "name": "tokenId",
          "type": "uint256"
        },
        {
          "internalType": "bytes",
          "name": "keyword",
          "type": "bytes"
        },
        {
          "internalType": "uint8",
          "name": "hashingFunctionId",
          "type": "uint8"
        },
        {
          "internalType": "uint16",
          "name": "epochsNum",
          "type": "uint16"
        },
        {
          "internalType": "uint96",
          "name": "tokenAmount",
          "type": "uint96"
        }
      ],
      "name": "updateServiceAgreement",
      "outputs": [],
      "stateMutability": "nonpayable",
      "type": "function"
    },
    {
      "inputs": [
        {
          "internalType": "bytes32",
          "name": "agreementId",
          "type": "bytes32"
        },
        {
          "internalType": "uint16",
          "name": "epoch",
          "type": "uint16"
        }
      ],
      "name": "isCommitWindowOpen",
      "outputs": [
        {
          "internalType": "bool",
          "name": "",
          "type": "bool"
        }
      ],
      "stateMutability": "view",
      "type": "function"
    },
    {
      "inputs": [
        {
          "internalType": "bytes32",
          "name": "agreementId",
          "type": "bytes32"
        },
        {
          "internalType": "uint16",
          "name": "epoch",
          "type": "uint16"
        }
      ],
      "name": "getCommitSubmissions",
      "outputs": [
        {
          "components": [
            {
              "internalType": "uint96",
              "name": "identityId",
              "type": "uint96"
            },
            {
              "internalType": "uint96",
              "name": "nextIdentity",
              "type": "uint96"
            },
            {
              "internalType": "uint32",
              "name": "score",
              "type": "uint32"
            }
          ],
          "internalType": "struct ServiceAgreementStorage.CommitSubmission[]",
          "name": "",
          "type": "tuple[]"
        }
      ],
      "stateMutability": "view",
      "type": "function"
    },
    {
      "inputs": [
        {
          "internalType": "address",
          "name": "assetContract",
          "type": "address"
        },
        {
          "internalType": "uint256",
          "name": "tokenId",
          "type": "uint256"
        },
        {
          "internalType": "bytes",
          "name": "keyword",
          "type": "bytes"
        },
        {
          "internalType": "uint8",
          "name": "hashingFunctionId",
          "type": "uint8"
        },
        {
          "internalType": "uint16",
          "name": "epoch",
          "type": "uint16"
        },
        {
          "internalType": "uint96",
          "name": "prevIdentityId",
          "type": "uint96"
        }
      ],
      "name": "submitCommit",
      "outputs": [
        {
          "internalType": "uint256",
          "name": "",
          "type": "uint256"
        }
      ],
      "stateMutability": "nonpayable",
      "type": "function"
    },
    {
      "inputs": [
        {
          "internalType": "bytes32",
          "name": "agreementId",
          "type": "bytes32"
        },
        {
          "internalType": "uint16",
          "name": "epoch",
          "type": "uint16"
        }
      ],
      "name": "isProofWindowOpen",
      "outputs": [
        {
          "internalType": "bool",
          "name": "",
          "type": "bool"
        }
      ],
      "stateMutability": "view",
      "type": "function"
    },
    {
      "inputs": [
        {
          "internalType": "address",
          "name": "assetContract",
          "type": "address"
        },
        {
          "internalType": "uint256",
          "name": "tokenId",
          "type": "uint256"
        },
        {
          "internalType": "uint16",
          "name": "epoch",
          "type": "uint16"
        }
      ],
      "name": "getChallenge",
      "outputs": [
        {
          "internalType": "bytes32",
          "name": "",
          "type": "bytes32"
        },
        {
          "internalType": "uint256",
          "name": "",
          "type": "uint256"
        }
      ],
      "stateMutability": "view",
      "type": "function"
    },
    {
      "inputs": [
        {
          "internalType": "address",
          "name": "assetContract",
          "type": "address"
        },
        {
          "internalType": "uint256",
          "name": "tokenId",
          "type": "uint256"
        },
        {
          "internalType": "bytes",
          "name": "keyword",
          "type": "bytes"
        },
        {
          "internalType": "uint8",
          "name": "hashingFunctionId",
          "type": "uint8"
        },
        {
          "internalType": "uint16",
          "name": "epoch",
          "type": "uint16"
        },
        {
          "internalType": "bytes32[]",
          "name": "proof",
          "type": "bytes32[]"
        },
        {
          "internalType": "bytes32",
          "name": "chunkHash",
          "type": "bytes32"
        }
      ],
      "name": "sendProof",
      "outputs": [],
      "stateMutability": "nonpayable",
      "type": "function"
    },
    {
      "inputs": [
        {
          "internalType": "bytes32",
          "name": "agreementId",
          "type": "bytes32"
        },
        {
          "internalType": "uint8",
          "name": "newScoringFunctionId",
          "type": "uint8"
        }
      ],
      "name": "setScoringFunction",
      "outputs": [],
      "stateMutability": "nonpayable",
      "type": "function"
    }
  ],
  "bytecode": "0x60806040523480156200001157600080fd5b5060405162005b8538038062005b85833981810160405281019062000037919062000122565b600073ffffffffffffffffffffffffffffffffffffffff168173ffffffffffffffffffffffffffffffffffffffff16036200007157600080fd5b806000806101000a81548173ffffffffffffffffffffffffffffffffffffffff021916908373ffffffffffffffffffffffffffffffffffffffff1602179055505062000154565b600080fd5b600073ffffffffffffffffffffffffffffffffffffffff82169050919050565b6000620000ea82620000bd565b9050919050565b620000fc81620000dd565b81146200010857600080fd5b50565b6000815190506200011c81620000f1565b92915050565b6000602082840312156200013b576200013a620000b8565b5b60006200014b848285016200010b565b91505092915050565b615a2180620001646000396000f3fe608060405234801561001057600080fd5b50600436106100a95760003560e01c806385e57f571161007157806385e57f571461017e578063aa6a00fd146101ae578063b1f38350146101de578063be82c4e2146101fa578063becdd59714610216578063fc348cb614610246576100a9565b806332c2fbf1146100ae578063365a86fc146100df5780634fb96d50146100fd57806361f14ece1461012d57806375d3507014610149575b600080fd5b6100c860048036038101906100c39190613956565b610262565b6040516100d69291906139d1565b60405180910390f35b6100e761063a565b6040516100f49190613a59565b60405180910390f35b61011760048036038101906101129190613aa0565b61065e565b6040516101249190613c17565b60405180910390f35b61014760048036038101906101429190613de4565b610a6b565b005b610163600480360381019061015e9190613ea2565b610f99565b60405161017596959493929190613f27565b60405180910390f35b61019860048036038101906101939190613f88565b611031565b6040516101a59190614031565b60405180910390f35b6101c860048036038101906101c39190613aa0565b6116f5565b6040516101d59190614067565b60405180910390f35b6101f860048036038101906101f39190614082565b6119ee565b005b610214600480360381019061020f91906140c2565b611afa565b005b610230600480360381019061022b9190613aa0565b6122cb565b60405161023d9190614067565b60405180910390f35b610260600480360381019061025b919061425c565b6124bb565b005b60008060008060009054906101000a900473ffffffffffffffffffffffffffffffffffffffff1673ffffffffffffffffffffffffffffffffffffffff166304433bbc6040518163ffffffff1660e01b81526004016102bf90614393565b602060405180830381865afa1580156102dc573d6000803e3d6000fd5b505050506040513d601f19601f8201168201806040525081019061030091906143c8565b905060008173ffffffffffffffffffffffffffffffffffffffff16637006045c6040518163ffffffff1660e01b8152600401602060405180830381865afa15801561034f573d6000803e3d6000fd5b505050506040513d601f19601f82011682018060405250810190610373919061440a565b9050600087905060008173ffffffffffffffffffffffffffffffffffffffff1663469766668960018c73ffffffffffffffffffffffffffffffffffffffff16635a58db148d6040518263ffffffff1660e01b81526004016103d49190614031565b602060405180830381865afa1580156103f1573d6000803e3d6000fd5b505050506040513d601f19601f82011682018060405250810190610415919061444c565b61041f91906144a8565b6040518363ffffffff1660e01b815260040161043c9291906144dc565b602060405180830381865afa158015610459573d6000803e3d6000fd5b505050506040513d601f19601f8201168201806040525081019061047d919061451a565b905060008060009054906101000a900473ffffffffffffffffffffffffffffffffffffffff1673ffffffffffffffffffffffffffffffffffffffff166304433bbc6040518163ffffffff1660e01b81526004016104d990614593565b602060405180830381865afa1580156104f6573d6000803e3d6000fd5b505050506040513d601f19601f8201168201806040525081019061051a91906143c8565b905060008173ffffffffffffffffffffffffffffffffffffffff1663ec82e3a7846040518263ffffffff1660e01b815260040161055791906145b3565b602060405180830381865afa158015610574573d6000803e3d6000fd5b505050506040513d601f19601f82011682018060405250810190610598919061440a565b6bffffffffffffffffffffffff169050828160028b886040516020016105bf92919061463a565b6040516020818303038152906040526040516105db91906146e0565b602060405180830381855afa1580156105f8573d6000803e3d6000fd5b5050506040513d601f19601f8201168201806040525081019061061b919061451a565b60001c6106289190614726565b97509750505050505050935093915050565b60008054906101000a900473ffffffffffffffffffffffffffffffffffffffff1681565b606060008060009054906101000a900473ffffffffffffffffffffffffffffffffffffffff1673ffffffffffffffffffffffffffffffffffffffff166304433bbc6040518163ffffffff1660e01b81526004016106ba906147a3565b602060405180830381865afa1580156106d7573d6000803e3d6000fd5b505050506040513d601f19601f820116820180604052508101906106fb91906143c8565b905060008173ffffffffffffffffffffffffffffffffffffffff1663fee2cb056040518163ffffffff1660e01b8152600401602060405180830381865afa15801561074a573d6000803e3d6000fd5b505050506040513d601f19601f8201168201806040525081019061076e9190614801565b65ffffffffffff1667ffffffffffffffff81111561078f5761078e613c54565b5b6040519080825280602002602001820160405280156107c857816020015b6107b5613831565b8152602001906001900390816107ad5790505b50905060006002600087815260200190815260200160002060020160008661ffff1661ffff1681526020019081526020016000205490506000600160008381526020019081526020016000206040518060600160405290816000820160009054906101000a90046bffffffffffffffffffffffff166bffffffffffffffffffffffff166bffffffffffffffffffffffff16815260200160008201600c9054906101000a90046bffffffffffffffffffffffff166bffffffffffffffffffffffff166bffffffffffffffffffffffff1681526020016000820160189054906101000a900463ffffffff1663ffffffff1663ffffffff1681525050838260ff16815181106108d7576108d661482e565b5b6020026020010181905250600060016000848152602001908152602001600020600001600c9054906101000a90046bffffffffffffffffffffffff1690505b6000816bffffffffffffffffffffffff1614610a5d5760008888836040516020016109439392919061487e565b6040516020818303038152906040528051906020012090506000600160008381526020019081526020016000206040518060600160405290816000820160009054906101000a90046bffffffffffffffffffffffff166bffffffffffffffffffffffff166bffffffffffffffffffffffff16815260200160008201600c9054906101000a90046bffffffffffffffffffffffff166bffffffffffffffffffffffff166bffffffffffffffffffffffff1681526020016000820160189054906101000a900463ffffffff1663ffffffff1663ffffffff168152505090508380610a2a906148bb565b94505080868560ff1681518110610a4457610a4361482e565b5b6020026020010181905250806020015192505050610916565b839550505050505092915050565b60008054906101000a900473ffffffffffffffffffffffffffffffffffffffff1673ffffffffffffffffffffffffffffffffffffffff16638d5d2d85336040518263ffffffff1660e01b8152600401610ac491906148f3565b602060405180830381865afa158015610ae1573d6000803e3d6000fd5b505050506040513d601f19601f82011682018060405250810190610b05919061493a565b610b44576040517f08c379a0000000000000000000000000000000000000000000000000000000008152600401610b3b906149d9565b60405180910390fd5b6000610b5287878787612f4b565b905060006002600083815260200190815260200160002060010160129054906101000a90046bffffffffffffffffffffffff169050836002600084815260200190815260200160002060010160006101000a81548161ffff021916908361ffff160217905550826002600084815260200190815260200160002060010160126101000a8154816bffffffffffffffffffffffff02191690836bffffffffffffffffffffffff16021790555060008060009054906101000a900473ffffffffffffffffffffffffffffffffffffffff1673ffffffffffffffffffffffffffffffffffffffff166304433bbc6040518163ffffffff1660e01b8152600401610c5790614a45565b602060405180830381865afa158015610c74573d6000803e3d6000fd5b505050506040513d601f19601f82011682018060405250810190610c9891906143c8565b90508382610ca69190614a65565b6bffffffffffffffffffffffff168173ffffffffffffffffffffffffffffffffffffffff1663dd62ed3e8c306040518363ffffffff1660e01b8152600401610cef929190614a99565b602060405180830381865afa158015610d0c573d6000803e3d6000fd5b505050506040513d601f19601f82011682018060405250810190610d30919061444c565b1015610d71576040517f08c379a0000000000000000000000000000000000000000000000000000000008152600401610d6890614b34565b60405180910390fd5b8382610d7d9190614a65565b6bffffffffffffffffffffffff168173ffffffffffffffffffffffffffffffffffffffff166370a082318c6040518263ffffffff1660e01b8152600401610dc491906148f3565b602060405180830381865afa158015610de1573d6000803e3d6000fd5b505050506040513d601f19601f82011682018060405250810190610e05919061444c565b1015610e46576040517f08c379a0000000000000000000000000000000000000000000000000000000008152600401610e3d90614bc6565b60405180910390fd5b8073ffffffffffffffffffffffffffffffffffffffff166323b872dd8b308786610e709190614a65565b6040518463ffffffff1660e01b8152600401610e8e93929190614c17565b6020604051808303816000875af1158015610ead573d6000803e3d6000fd5b505050506040513d601f19601f82011682018060405250810190610ed1919061493a565b5086604051610ee091906146e0565b6040518091039020888a73ffffffffffffffffffffffffffffffffffffffff167f1abad9d03c6b61f6b6714655a41bdc5b88318ce5136915a9c8751a74ad5a30b9896002600089815260200190815260200160002060010160009054906101000a900461ffff16600260008a815260200190815260200160002060010160129054906101000a90046bffffffffffffffffffffffff16604051610f8593929190614c4e565b60405180910390a450505050505050505050565b60026020528060005260406000206000915090508060000154908060010160009054906101000a900461ffff16908060010160029054906101000a90046fffffffffffffffffffffffffffffffff16908060010160129054906101000a90046bffffffffffffffffffffffff169080600101601e9054906101000a900460ff169080600101601f9054906101000a900460ff16905086565b60008061104088888888612f4b565b905061104c81856122cb565b61108b576040517f08c379a000000000000000000000000000000000000000000000000000000000815260040161108290614cd1565b60405180910390fd5b60008060009054906101000a900473ffffffffffffffffffffffffffffffffffffffff1673ffffffffffffffffffffffffffffffffffffffff166304433bbc6040518163ffffffff1660e01b81526004016110e590614393565b602060405180830381865afa158015611102573d6000803e3d6000fd5b505050506040513d601f19601f8201168201806040525081019061112691906143c8565b905060008173ffffffffffffffffffffffffffffffffffffffff16637006045c6040518163ffffffff1660e01b8152600401602060405180830381865afa158015611175573d6000803e3d6000fd5b505050506040513d601f19601f82011682018060405250810190611199919061440a565b905060008060009054906101000a900473ffffffffffffffffffffffffffffffffffffffff1673ffffffffffffffffffffffffffffffffffffffff166304433bbc6040518163ffffffff1660e01b81526004016111f590614d3d565b602060405180830381865afa158015611212573d6000803e3d6000fd5b505050506040513d601f19601f8201168201806040525081019061123691906143c8565b905060008060009054906101000a900473ffffffffffffffffffffffffffffffffffffffff1673ffffffffffffffffffffffffffffffffffffffff166304433bbc6040518163ffffffff1660e01b815260040161129290614da9565b602060405180830381865afa1580156112af573d6000803e3d6000fd5b505050506040513d601f19601f820116820180604052508101906112d391906143c8565b905060008173ffffffffffffffffffffffffffffffffffffffff16637dde117760026000898152602001908152602001600020600101601e9054906101000a900460ff168c8673ffffffffffffffffffffffffffffffffffffffff16636c5c281c896040518263ffffffff1660e01b81526004016113519190614dc9565b600060405180830381865afa15801561136e573d6000803e3d6000fd5b505050506040513d6000823e3d601f19601f820116820180604052508101906113979190614e54565b8f8873ffffffffffffffffffffffffffffffffffffffff16631860bd8e8b6040518263ffffffff1660e01b81526004016113d19190614dc9565b602060405180830381865afa1580156113ee573d6000803e3d6000fd5b505050506040513d601f19601f82011682018060405250810190611412919061440a565b6040518663ffffffff1660e01b8152600401611432959493929190614ee7565b6020604051808303816000875af1158015611451573d6000803e3d6000fd5b505050506040513d601f19601f820116820180604052508101906114759190614f74565b90506114c0868a8a6040518060600160405280896bffffffffffffffffffffffff16815260200160006bffffffffffffffffffffffff1681526020018663ffffffff16815250613094565b60008060009054906101000a900473ffffffffffffffffffffffffffffffffffffffff1673ffffffffffffffffffffffffffffffffffffffff166304433bbc6040518163ffffffff1660e01b815260040161151a906147a3565b602060405180830381865afa158015611537573d6000803e3d6000fd5b505050506040513d601f19601f8201168201806040525081019061155b91906143c8565b9050606460026000898152602001908152602001600020600101601f9054906101000a900460ff1660ff168273ffffffffffffffffffffffffffffffffffffffff166357d775f86040518163ffffffff1660e01b8152600401602060405180830381865afa1580156115d1573d6000803e3d6000fd5b505050506040513d601f19601f820116820180604052508101906115f59190614fcd565b6115ff9190614ffa565b6116099190615044565b6fffffffffffffffffffffffffffffffff1660018b6116289190615075565b61ffff168273ffffffffffffffffffffffffffffffffffffffff166357d775f86040518163ffffffff1660e01b8152600401602060405180830381865afa158015611677573d6000803e3d6000fd5b505050506040513d601f19601f8201168201806040525081019061169b9190614fcd565b6116a59190614ffa565b6fffffffffffffffffffffffffffffffff16600260008a8152602001908152602001600020600001546116d891906150a9565b6116e291906150a9565b9750505050505050509695505050505050565b600080429050600060026000868152602001908152602001600020905060008060009054906101000a900473ffffffffffffffffffffffffffffffffffffffff1673ffffffffffffffffffffffffffffffffffffffff166304433bbc6040518163ffffffff1660e01b815260040161176c906147a3565b602060405180830381865afa158015611789573d6000803e3d6000fd5b505050506040513d601f19601f820116820180604052508101906117ad91906143c8565b90506000606483600101601f9054906101000a900460ff1660ff168460010160009054906101000a900461ffff1661ffff168560010160029054906101000a90046fffffffffffffffffffffffffffffffff1661180a9190614ffa565b6118149190614ffa565b61181e9190615044565b6fffffffffffffffffffffffffffffffff169050600060648373ffffffffffffffffffffffffffffffffffffffff16639d3ceb0c6040518163ffffffff1660e01b8152600401602060405180830381865afa158015611881573d6000803e3d6000fd5b505050506040513d601f19601f820116820180604052508101906118a59190615114565b60ff168560010160009054906101000a900461ffff1661ffff168660010160029054906101000a90046fffffffffffffffffffffffffffffffff166118ea9190614ffa565b6118f49190614ffa565b6118fe9190615044565b6fffffffffffffffffffffffffffffffff169050818761ffff168560010160029054906101000a90046fffffffffffffffffffffffffffffffff166119439190614ffa565b6fffffffffffffffffffffffffffffffff16856000015461196491906150a9565b61196e91906150a9565b851180156119e1575080828861ffff168660010160029054906101000a90046fffffffffffffffffffffffffffffffff166119a99190614ffa565b6fffffffffffffffffffffffffffffffff1686600001546119ca91906150a9565b6119d491906150a9565b6119de91906150a9565b85105b9550505050505092915050565b60008054906101000a900473ffffffffffffffffffffffffffffffffffffffff1673ffffffffffffffffffffffffffffffffffffffff16638d5d2d85336040518263ffffffff1660e01b8152600401611a4791906148f3565b602060405180830381865afa158015611a64573d6000803e3d6000fd5b505050506040513d601f19601f82011682018060405250810190611a88919061493a565b611ac7576040517f08c379a0000000000000000000000000000000000000000000000000000000008152600401611abe906149d9565b60405180910390fd5b8060026000848152602001908152602001600020600101601e6101000a81548160ff021916908360ff1602179055505050565b60008054906101000a900473ffffffffffffffffffffffffffffffffffffffff1673ffffffffffffffffffffffffffffffffffffffff16638d5d2d85336040518263ffffffff1660e01b8152600401611b5391906148f3565b602060405180830381865afa158015611b70573d6000803e3d6000fd5b505050506040513d601f19601f82011682018060405250810190611b94919061493a565b611bd3576040517f08c379a0000000000000000000000000000000000000000000000000000000008152600401611bca906149d9565b60405180910390fd5b6000611be188888888612f4b565b905060008060009054906101000a900473ffffffffffffffffffffffffffffffffffffffff1673ffffffffffffffffffffffffffffffffffffffff166304433bbc6040518163ffffffff1660e01b8152600401611c3d906147a3565b602060405180830381865afa158015611c5a573d6000803e3d6000fd5b505050506040513d601f19601f82011682018060405250810190611c7e91906143c8565b90506000600260008481526020019081526020016000209050428160000181905550858160010160006101000a81548161ffff021916908361ffff1602179055508173ffffffffffffffffffffffffffffffffffffffff166357d775f86040518163ffffffff1660e01b8152600401602060405180830381865afa158015611d0a573d6000803e3d6000fd5b505050506040513d601f19601f82011682018060405250810190611d2e9190614fcd565b8160010160026101000a8154816fffffffffffffffffffffffffffffffff02191690836fffffffffffffffffffffffffffffffff160217905550611e658b60018473ffffffffffffffffffffffffffffffffffffffff16638e6262426040518163ffffffff1660e01b8152600401602060405180830381865afa158015611db9573d6000803e3d6000fd5b505050506040513d601f19601f82011682018060405250810190611ddd9190615114565b8573ffffffffffffffffffffffffffffffffffffffff1663ff2117436040518163ffffffff1660e01b8152600401602060405180830381865afa158015611e28573d6000803e3d6000fd5b505050506040513d601f19601f82011682018060405250810190611e4c9190615114565b611e569190615141565b611e609190615175565b6136c1565b8273ffffffffffffffffffffffffffffffffffffffff16638e6262426040518163ffffffff1660e01b8152600401602060405180830381865afa158015611eb0573d6000803e3d6000fd5b505050506040513d601f19601f82011682018060405250810190611ed49190615114565b611ede9190615175565b81600101601f6101000a81548160ff021916908360ff160217905550848160010160126101000a8154816bffffffffffffffffffffffff02191690836bffffffffffffffffffffffff1602179055508381600101601e6101000a81548160ff021916908360ff16021790555060008060009054906101000a900473ffffffffffffffffffffffffffffffffffffffff1673ffffffffffffffffffffffffffffffffffffffff166304433bbc6040518163ffffffff1660e01b8152600401611fa490614a45565b602060405180830381865afa158015611fc1573d6000803e3d6000fd5b505050506040513d601f19601f82011682018060405250810190611fe591906143c8565b9050856bffffffffffffffffffffffff168173ffffffffffffffffffffffffffffffffffffffff1663dd62ed3e8e306040518363ffffffff1660e01b8152600401612031929190614a99565b602060405180830381865afa15801561204e573d6000803e3d6000fd5b505050506040513d601f19601f82011682018060405250810190612072919061444c565b10156120b3576040517f08c379a00000000000000000000000000000000000000000000000000000000081526004016120aa90614b34565b60405180910390fd5b856bffffffffffffffffffffffff168173ffffffffffffffffffffffffffffffffffffffff166370a082318e6040518263ffffffff1660e01b81526004016120fb91906148f3565b602060405180830381865afa158015612118573d6000803e3d6000fd5b505050506040513d601f19601f8201168201806040525081019061213c919061444c565b101561217d576040517f08c379a000000000000000000000000000000000000000000000000000000000815260040161217490614bc6565b60405180910390fd5b8073ffffffffffffffffffffffffffffffffffffffff166323b872dd8d30896040518463ffffffff1660e01b81526004016121ba93929190614c17565b6020604051808303816000875af11580156121d9573d6000803e3d6000fd5b505050506040513d601f19601f820116820180604052508101906121fd919061493a565b508860405161220c91906146e0565b60405180910390208a8c73ffffffffffffffffffffffffffffffffffffffff167f48298191f59170e97201484d4a3de75065cea587a165788d1f19459fabd39a5e8b86600001548760010160009054906101000a900461ffff168860010160029054906101000a90046fffffffffffffffffffffffffffffffff168960010160129054906101000a90046bffffffffffffffffffffffff166040516122b59594939291906151ac565b60405180910390a4505050505050505050505050565b600080429050600060026000868152602001908152602001600020905060008060009054906101000a900473ffffffffffffffffffffffffffffffffffffffff1673ffffffffffffffffffffffffffffffffffffffff166304433bbc6040518163ffffffff1660e01b8152600401612342906147a3565b602060405180830381865afa15801561235f573d6000803e3d6000fd5b505050506040513d601f19601f8201168201806040525081019061238391906143c8565b90508461ffff168260010160029054906101000a90046fffffffffffffffffffffffffffffffff166123b59190614ffa565b6fffffffffffffffffffffffffffffffff1682600001546123d691906150a9565b831180156124b057508073ffffffffffffffffffffffffffffffffffffffff1663e8d487ff6040518163ffffffff1660e01b8152600401602060405180830381865afa15801561242a573d6000803e3d6000fd5b505050506040513d601f19601f8201168201806040525081019061244e9190615214565b61ffff168561ffff168360010160029054906101000a90046fffffffffffffffffffffffffffffffff166124829190614ffa565b6fffffffffffffffffffffffffffffffff1683600001546124a391906150a9565b6124ad91906150a9565b83105b935050505092915050565b60006124c988888888612f4b565b90506124d581856116f5565b15612515576040517f08c379a000000000000000000000000000000000000000000000000000000000815260040161250c9061528d565b60405180910390fd5b60008060009054906101000a900473ffffffffffffffffffffffffffffffffffffffff1673ffffffffffffffffffffffffffffffffffffffff166304433bbc6040518163ffffffff1660e01b815260040161256f90614393565b602060405180830381865afa15801561258c573d6000803e3d6000fd5b505050506040513d601f19601f820116820180604052508101906125b091906143c8565b73ffffffffffffffffffffffffffffffffffffffff16637006045c6040518163ffffffff1660e01b8152600401602060405180830381865afa1580156125fa573d6000803e3d6000fd5b505050506040513d601f19601f8201168201806040525081019061261e919061440a565b905060006001600084888560405160200161263b9392919061487e565b60405160208183030381529060405280519060200120815260200190815260200160002060000160189054906101000a900463ffffffff1663ffffffff16036126b9576040517f08c379a00000000000000000000000000000000000000000000000000000000081526004016126b09061531f565b60405180910390fd5b60006002600084815260200190815260200160002060020160008761ffff1661ffff16815260200190815260200160002054905060008060009054906101000a900473ffffffffffffffffffffffffffffffffffffffff1673ffffffffffffffffffffffffffffffffffffffff166304433bbc6040518163ffffffff1660e01b8152600401612747906147a3565b602060405180830381865afa158015612764573d6000803e3d6000fd5b505050506040513d601f19601f8201168201806040525081019061278891906143c8565b905060005b6001600084815260200190815260200160002060000160009054906101000a90046bffffffffffffffffffffffff166bffffffffffffffffffffffff16846bffffffffffffffffffffffff1614158061286057508173ffffffffffffffffffffffffffffffffffffffff16638d73d86a6040518163ffffffff1660e01b8152600401602060405180830381865afa15801561282c573d6000803e3d6000fd5b505050506040513d601f19601f820116820180604052508101906128509190614f74565b63ffffffff168163ffffffff1614155b156128d357848860016000868152602001908152602001600020600001600c9054906101000a90046bffffffffffffffffffffffff166040516020016128a89392919061487e565b60405160208183030381529060405280519060200120925080806128cb9061533f565b91505061278d565b8173ffffffffffffffffffffffffffffffffffffffff16638d73d86a6040518163ffffffff1660e01b8152600401602060405180830381865afa15801561291e573d6000803e3d6000fd5b505050506040513d601f19601f820116820180604052508101906129429190614f74565b63ffffffff168163ffffffff161061298f576040517f08c379a0000000000000000000000000000000000000000000000000000000008152600401612986906153dd565b60405180910390fd5b60008061299d8e8e8c610262565b80925081935050506129d889838a846040516020016129bd92919061541e565b60405160208183030381529060405280519060200120613707565b612a17576040517f08c379a0000000000000000000000000000000000000000000000000000000008152600401612a0e90615496565b60405180910390fd5b60008060009054906101000a900473ffffffffffffffffffffffffffffffffffffffff1673ffffffffffffffffffffffffffffffffffffffff166304433bbc6040518163ffffffff1660e01b8152600401612a7190614d3d565b602060405180830381865afa158015612a8e573d6000803e3d6000fd5b505050506040513d601f19601f82011682018060405250810190612ab291906143c8565b90506000600260008a815260200190815260200160002060030160008d61ffff1661ffff16815260200190815260200160002060009054906101000a900463ffffffff168673ffffffffffffffffffffffffffffffffffffffff16638d73d86a6040518163ffffffff1660e01b8152600401602060405180830381865afa158015612b41573d6000803e3d6000fd5b505050506040513d601f19601f82011682018060405250810190612b659190614f74565b612b6f91906154b6565b63ffffffff1660018d600260008d815260200190815260200160002060010160009054906101000a900461ffff16612ba79190615075565b612bb191906154ea565b61ffff16600260008c815260200190815260200160002060010160129054906101000a90046bffffffffffffffffffffffff16612bee9190615522565b612bf89190615522565b905060008054906101000a900473ffffffffffffffffffffffffffffffffffffffff1673ffffffffffffffffffffffffffffffffffffffff166304433bbc6040518163ffffffff1660e01b8152600401612c5190614a45565b602060405180830381865afa158015612c6e573d6000803e3d6000fd5b505050506040513d601f19601f82011682018060405250810190612c9291906143c8565b73ffffffffffffffffffffffffffffffffffffffff1663a9059cbb83836040518363ffffffff1660e01b8152600401612ccc929190615553565b6020604051808303816000875af1158015612ceb573d6000803e3d6000fd5b505050506040513d601f19601f82011682018060405250810190612d0f919061493a565b508173ffffffffffffffffffffffffffffffffffffffff1663a4f9062389838573ffffffffffffffffffffffffffffffffffffffff166374cb0edb8d6040518263ffffffff1660e01b8152600401612d679190614dc9565b602060405180830381865afa158015612d84573d6000803e3d6000fd5b505050506040513d601f19601f82011682018060405250810190612da8919061440a565b612db2919061557c565b6040518363ffffffff1660e01b8152600401612dcf9291906155be565b600060405180830381600087803b158015612de957600080fd5b505af1158015612dfd573d6000803e3d6000fd5b5050505080600260008b815260200190815260200160002060010160128282829054906101000a90046bffffffffffffffffffffffff16612e3e9190614a65565b92506101000a8154816bffffffffffffffffffffffff02191690836bffffffffffffffffffffffff1602179055506001600260008b815260200190815260200160002060030160008e61ffff1661ffff16815260200190815260200160002060008282829054906101000a900463ffffffff16612ebb91906155e7565b92506101000a81548163ffffffff021916908363ffffffff1602179055506000600160008b8f8c604051602001612ef49392919061487e565b60405160208183030381529060405280519060200120815260200190815260200160002060000160186101000a81548163ffffffff021916908363ffffffff16021790555050505050505050505050505050505050565b60008060008054906101000a900473ffffffffffffffffffffffffffffffffffffffff1673ffffffffffffffffffffffffffffffffffffffff166304433bbc6040518163ffffffff1660e01b8152600401612fa59061566d565b602060405180830381865afa158015612fc2573d6000803e3d6000fd5b505050506040513d601f19601f82011682018060405250810190612fe691906143c8565b90508073ffffffffffffffffffffffffffffffffffffffff1663a2113a668488888860405160200161301a939291906156d5565b6040516020818303038152906040526040518363ffffffff1660e01b815260040161304692919061570e565b6020604051808303816000875af1158015613065573d6000803e3d6000fd5b505050506040513d601f19601f82011682018060405250810190613089919061451a565b915050949350505050565b6000848483600001516040516020016130af9392919061487e565b6040516020818303038152906040528051906020012090506000836bffffffffffffffffffffffff16036133345760006002600087815260200190815260200160002060020160008661ffff1661ffff168152602001908152602001600020549050600080821461323d576000600160008481526020019081526020016000206040518060600160405290816000820160009054906101000a90046bffffffffffffffffffffffff166bffffffffffffffffffffffff166bffffffffffffffffffffffff16815260200160008201600c9054906101000a90046bffffffffffffffffffffffff166bffffffffffffffffffffffff166bffffffffffffffffffffffff1681526020016000820160189054906101000a900463ffffffff1663ffffffff1663ffffffff1681525050905080600001519150806040015163ffffffff16856040015163ffffffff161161323b576040517f08c379a0000000000000000000000000000000000000000000000000000000008152600401613232906157d6565b60405180910390fd5b505b826002600089815260200190815260200160002060020160008861ffff1661ffff16815260200190815260200160002081905550836001600085815260200190815260200160002060008201518160000160006101000a8154816bffffffffffffffffffffffff02191690836bffffffffffffffffffffffff160217905550602082015181600001600c6101000a8154816bffffffffffffffffffffffff02191690836bffffffffffffffffffffffff16021790555060408201518160000160186101000a81548163ffffffff021916908363ffffffff16021790555090505061332d878786600001518461371e565b50506136ba565b600085858560405160200161334b9392919061487e565b6040516020818303038152906040528051906020012090506000600160008381526020019081526020016000206040518060600160405290816000820160009054906101000a90046bffffffffffffffffffffffff166bffffffffffffffffffffffff166bffffffffffffffffffffffff16815260200160008201600c9054906101000a90046bffffffffffffffffffffffff166bffffffffffffffffffffffff166bffffffffffffffffffffffff1681526020016000820160189054906101000a900463ffffffff1663ffffffff1663ffffffff16815250509050806040015163ffffffff16846040015163ffffffff16111561347e576040517f08c379a00000000000000000000000000000000000000000000000000000000081526004016134759061588e565b60405180910390fd5b6000816020015190506000816bffffffffffffffffffffffff16146135ea5760008888836040516020016134b49392919061487e565b6040516020818303038152906040528051906020012090506000600160008381526020019081526020016000206040518060600160405290816000820160009054906101000a90046bffffffffffffffffffffffff166bffffffffffffffffffffffff166bffffffffffffffffffffffff16815260200160008201600c9054906101000a90046bffffffffffffffffffffffff166bffffffffffffffffffffffff166bffffffffffffffffffffffff1681526020016000820160189054906101000a900463ffffffff1663ffffffff1663ffffffff16815250509050806040015163ffffffff16876040015163ffffffff1610156135e7576040517f08c379a00000000000000000000000000000000000000000000000000000000081526004016135de90615946565b60405180910390fd5b50505b846001600086815260200190815260200160002060008201518160000160006101000a8154816bffffffffffffffffffffffff02191690836bffffffffffffffffffffffff160217905550602082015181600001600c6101000a8154816bffffffffffffffffffffffff02191690836bffffffffffffffffffffffff16021790555060408201518160000160186101000a81548163ffffffff021916908363ffffffff1602179055509050506136a6888888886000015161371e565b6136b6888887600001518461371e565b5050505b5050505050565b60008160ff164284436040516020016136dc93929190615966565b6040516020818303038152906040528051906020012060001c6136ff9190614726565b905092915050565b6000826137148584613799565b1490509392505050565b60008484846040516020016137359392919061487e565b6040516020818303038152906040528051906020012090508160016000838152602001908152602001600020600001600c6101000a8154816bffffffffffffffffffffffff02191690836bffffffffffffffffffffffff1602179055505050505050565b60008082905060005b84518110156137e4576137cf828683815181106137c2576137c161482e565b5b60200260200101516137ef565b915080806137dc906159a3565b9150506137a2565b508091505092915050565b600081831061380757613802828461381a565b613812565b613811838361381a565b5b905092915050565b600082600052816020526040600020905092915050565b604051806060016040528060006bffffffffffffffffffffffff16815260200160006bffffffffffffffffffffffff168152602001600063ffffffff1681525090565b6000604051905090565b600080fd5b600080fd5b600073ffffffffffffffffffffffffffffffffffffffff82169050919050565b60006138b382613888565b9050919050565b6138c3816138a8565b81146138ce57600080fd5b50565b6000813590506138e0816138ba565b92915050565b6000819050919050565b6138f9816138e6565b811461390457600080fd5b50565b600081359050613916816138f0565b92915050565b600061ffff82169050919050565b6139338161391c565b811461393e57600080fd5b50565b6000813590506139508161392a565b92915050565b60008060006060848603121561396f5761396e61387e565b5b600061397d868287016138d1565b935050602061398e86828701613907565b925050604061399f86828701613941565b9150509250925092565b6000819050919050565b6139bc816139a9565b82525050565b6139cb816138e6565b82525050565b60006040820190506139e660008301856139b3565b6139f360208301846139c2565b9392505050565b6000819050919050565b6000613a1f613a1a613a1584613888565b6139fa565b613888565b9050919050565b6000613a3182613a04565b9050919050565b6000613a4382613a26565b9050919050565b613a5381613a38565b82525050565b6000602082019050613a6e6000830184613a4a565b92915050565b613a7d816139a9565b8114613a8857600080fd5b50565b600081359050613a9a81613a74565b92915050565b60008060408385031215613ab757613ab661387e565b5b6000613ac585828601613a8b565b9250506020613ad685828601613941565b9150509250929050565b600081519050919050565b600082825260208201905092915050565b6000819050602082019050919050565b60006bffffffffffffffffffffffff82169050919050565b613b2d81613b0c565b82525050565b600063ffffffff82169050919050565b613b4c81613b33565b82525050565b606082016000820151613b686000850182613b24565b506020820151613b7b6020850182613b24565b506040820151613b8e6040850182613b43565b50505050565b6000613ba08383613b52565b60608301905092915050565b6000602082019050919050565b6000613bc482613ae0565b613bce8185613aeb565b9350613bd983613afc565b8060005b83811015613c0a578151613bf18882613b94565b9750613bfc83613bac565b925050600181019050613bdd565b5085935050505092915050565b60006020820190508181036000830152613c318184613bb9565b905092915050565b600080fd5b600080fd5b6000601f19601f8301169050919050565b7f4e487b7100000000000000000000000000000000000000000000000000000000600052604160045260246000fd5b613c8c82613c43565b810181811067ffffffffffffffff82111715613cab57613caa613c54565b5b80604052505050565b6000613cbe613874565b9050613cca8282613c83565b919050565b600067ffffffffffffffff821115613cea57613ce9613c54565b5b613cf382613c43565b9050602081019050919050565b82818337600083830152505050565b6000613d22613d1d84613ccf565b613cb4565b905082815260208101848484011115613d3e57613d3d613c3e565b5b613d49848285613d00565b509392505050565b600082601f830112613d6657613d65613c39565b5b8135613d76848260208601613d0f565b91505092915050565b600060ff82169050919050565b613d9581613d7f565b8114613da057600080fd5b50565b600081359050613db281613d8c565b92915050565b613dc181613b0c565b8114613dcc57600080fd5b50565b600081359050613dde81613db8565b92915050565b600080600080600080600060e0888a031215613e0357613e0261387e565b5b6000613e118a828b016138d1565b9750506020613e228a828b016138d1565b9650506040613e338a828b01613907565b955050606088013567ffffffffffffffff811115613e5457613e53613883565b5b613e608a828b01613d51565b9450506080613e718a828b01613da3565b93505060a0613e828a828b01613941565b92505060c0613e938a828b01613dcf565b91505092959891949750929550565b600060208284031215613eb857613eb761387e565b5b6000613ec684828501613a8b565b91505092915050565b613ed88161391c565b82525050565b60006fffffffffffffffffffffffffffffffff82169050919050565b613f0381613ede565b82525050565b613f1281613b0c565b82525050565b613f2181613d7f565b82525050565b600060c082019050613f3c60008301896139c2565b613f496020830188613ecf565b613f566040830187613efa565b613f636060830186613f09565b613f706080830185613f18565b613f7d60a0830184613f18565b979650505050505050565b60008060008060008060c08789031215613fa557613fa461387e565b5b6000613fb389828a016138d1565b9650506020613fc489828a01613907565b955050604087013567ffffffffffffffff811115613fe557613fe4613883565b5b613ff189828a01613d51565b945050606061400289828a01613da3565b935050608061401389828a01613941565b92505060a061402489828a01613dcf565b9150509295509295509295565b600060208201905061404660008301846139c2565b92915050565b60008115159050919050565b6140618161404c565b82525050565b600060208201905061407c6000830184614058565b92915050565b600080604083850312156140995761409861387e565b5b60006140a785828601613a8b565b92505060206140b885828601613da3565b9150509250929050565b600080600080600080600080610100898b0312156140e3576140e261387e565b5b60006140f18b828c016138d1565b98505060206141028b828c016138d1565b97505060406141138b828c01613907565b965050606089013567ffffffffffffffff81111561413457614133613883565b5b6141408b828c01613d51565b95505060806141518b828c01613da3565b94505060a06141628b828c01613941565b93505060c06141738b828c01613dcf565b92505060e06141848b828c01613da3565b9150509295985092959890939650565b600067ffffffffffffffff8211156141af576141ae613c54565b5b602082029050602081019050919050565b600080fd5b60006141d86141d384614194565b613cb4565b905080838252602082019050602084028301858111156141fb576141fa6141c0565b5b835b8181101561422457806142108882613a8b565b8452602084019350506020810190506141fd565b5050509392505050565b600082601f83011261424357614242613c39565b5b81356142538482602086016141c5565b91505092915050565b600080600080600080600060e0888a03121561427b5761427a61387e565b5b60006142898a828b016138d1565b975050602061429a8a828b01613907565b965050604088013567ffffffffffffffff8111156142bb576142ba613883565b5b6142c78a828b01613d51565b95505060606142d88a828b01613da3565b94505060806142e98a828b01613941565b93505060a088013567ffffffffffffffff81111561430a57614309613883565b5b6143168a828b0161422e565b92505060c06143278a828b01613a8b565b91505092959891949750929550565b600082825260208201905092915050565b7f4964656e7469747953746f726167650000000000000000000000000000000000600082015250565b600061437d600f83614336565b915061438882614347565b602082019050919050565b600060208201905081810360008301526143ac81614370565b9050919050565b6000815190506143c2816138ba565b92915050565b6000602082840312156143de576143dd61387e565b5b60006143ec848285016143b3565b91505092915050565b60008151905061440481613db8565b92915050565b6000602082840312156144205761441f61387e565b5b600061442e848285016143f5565b91505092915050565b600081519050614446816138f0565b92915050565b6000602082840312156144625761446161387e565b5b600061447084828501614437565b91505092915050565b7f4e487b7100000000000000000000000000000000000000000000000000000000600052601160045260246000fd5b60006144b3826138e6565b91506144be836138e6565b9250828210156144d1576144d0614479565b5b828203905092915050565b60006040820190506144f160008301856139c2565b6144fe60208301846139c2565b9392505050565b60008151905061451481613a74565b92915050565b6000602082840312156145305761452f61387e565b5b600061453e84828501614505565b91505092915050565b7f417373657274696f6e5265676973747279000000000000000000000000000000600082015250565b600061457d601183614336565b915061458882614547565b602082019050919050565b600060208201905081810360008301526145ac81614570565b9050919050565b60006020820190506145c860008301846139b3565b92915050565b60008160f01b9050919050565b60006145e6826145ce565b9050919050565b6145fe6145f98261391c565b6145db565b82525050565b60008160a01b9050919050565b600061461c82614604565b9050919050565b61463461462f82613b0c565b614611565b82525050565b600061464682856145ed565b6002820191506146568284614623565b600c820191508190509392505050565b600081519050919050565b600081905092915050565b60005b8381101561469a57808201518184015260208101905061467f565b838111156146a9576000848401525b50505050565b60006146ba82614666565b6146c48185614671565b93506146d481856020860161467c565b80840191505092915050565b60006146ec82846146af565b915081905092915050565b7f4e487b7100000000000000000000000000000000000000000000000000000000600052601260045260246000fd5b6000614731826138e6565b915061473c836138e6565b92508261474c5761474b6146f7565b5b828206905092915050565b7f506172616d657465727353746f72616765000000000000000000000000000000600082015250565b600061478d601183614336565b915061479882614757565b602082019050919050565b600060208201905081810360008301526147bc81614780565b9050919050565b600065ffffffffffff82169050919050565b6147de816147c3565b81146147e957600080fd5b50565b6000815190506147fb816147d5565b92915050565b6000602082840312156148175761481661387e565b5b6000614825848285016147ec565b91505092915050565b7f4e487b7100000000000000000000000000000000000000000000000000000000600052603260045260246000fd5b6000819050919050565b614878614873826139a9565b61485d565b82525050565b600061488a8286614867565b60208201915061489a82856145ed565b6002820191506148aa8284614623565b600c82019150819050949350505050565b60006148c682613d7f565b915060ff82036148d9576148d8614479565b5b600182019050919050565b6148ed816138a8565b82525050565b600060208201905061490860008301846148e4565b92915050565b6149178161404c565b811461492257600080fd5b50565b6000815190506149348161490e565b92915050565b6000602082840312156149505761494f61387e565b5b600061495e84828501614925565b91505092915050565b7f46756e6374696f6e2063616e206f6e6c792062652063616c6c6564206279204160008201527f73736574205479706520436f6e74726163747300000000000000000000000000602082015250565b60006149c3603383614336565b91506149ce82614967565b604082019050919050565b600060208201905081810360008301526149f2816149b6565b9050919050565b7f546f6b656e000000000000000000000000000000000000000000000000000000600082015250565b6000614a2f600583614336565b9150614a3a826149f9565b602082019050919050565b60006020820190508181036000830152614a5e81614a22565b9050919050565b6000614a7082613b0c565b9150614a7b83613b0c565b925082821015614a8e57614a8d614479565b5b828203905092915050565b6000604082019050614aae60008301856148e4565b614abb60208301846148e4565b9392505050565b7f53656e64657220616c6c6f77616e6365206d75737420626520657175616c207460008201527f6f206f7220686967686572207468616e2063686f73656e20616d6f756e742100602082015250565b6000614b1e603f83614336565b9150614b2982614ac2565b604082019050919050565b60006020820190508181036000830152614b4d81614b11565b9050919050565b7f53656e6465722062616c616e6365206d75737420626520657175616c20746f2060008201527f6f7220686967686572207468616e2063686f73656e20616d6f756e7421000000602082015250565b6000614bb0603d83614336565b9150614bbb82614b54565b604082019050919050565b60006020820190508181036000830152614bdf81614ba3565b9050919050565b6000614c01614bfc614bf784613b0c565b6139fa565b6138e6565b9050919050565b614c1181614be6565b82525050565b6000606082019050614c2c60008301866148e4565b614c3960208301856148e4565b614c466040830184614c08565b949350505050565b6000606082019050614c636000830186613f18565b614c706020830185613ecf565b614c7d6040830184613f09565b949350505050565b7f436f6d6d69742077696e646f7720697320636c6f736564210000000000000000600082015250565b6000614cbb601883614336565b9150614cc682614c85565b602082019050919050565b60006020820190508181036000830152614cea81614cae565b9050919050565b7f50726f66696c6553746f72616765000000000000000000000000000000000000600082015250565b6000614d27600e83614336565b9150614d3282614cf1565b602082019050919050565b60006020820190508181036000830152614d5681614d1a565b9050919050565b7f53636f72696e6750726f78790000000000000000000000000000000000000000600082015250565b6000614d93600c83614336565b9150614d9e82614d5d565b602082019050919050565b60006020820190508181036000830152614dc281614d86565b9050919050565b6000602082019050614dde6000830184613f09565b92915050565b6000614df7614df284613ccf565b613cb4565b905082815260208101848484011115614e1357614e12613c3e565b5b614e1e84828561467c565b509392505050565b600082601f830112614e3b57614e3a613c39565b5b8151614e4b848260208601614de4565b91505092915050565b600060208284031215614e6a57614e6961387e565b5b600082015167ffffffffffffffff811115614e8857614e87613883565b5b614e9484828501614e26565b91505092915050565b600082825260208201905092915050565b6000614eb982614666565b614ec38185614e9d565b9350614ed381856020860161467c565b614edc81613c43565b840191505092915050565b600060a082019050614efc6000830188613f18565b614f096020830187613f18565b8181036040830152614f1b8186614eae565b90508181036060830152614f2f8185614eae565b9050614f3e6080830184613f09565b9695505050505050565b614f5181613b33565b8114614f5c57600080fd5b50565b600081519050614f6e81614f48565b92915050565b600060208284031215614f8a57614f8961387e565b5b6000614f9884828501614f5f565b91505092915050565b614faa81613ede565b8114614fb557600080fd5b50565b600081519050614fc781614fa1565b92915050565b600060208284031215614fe357614fe261387e565b5b6000614ff184828501614fb8565b91505092915050565b600061500582613ede565b915061501083613ede565b9250816fffffffffffffffffffffffffffffffff048311821515161561503957615038614479565b5b828202905092915050565b600061504f82613ede565b915061505a83613ede565b92508261506a576150696146f7565b5b828204905092915050565b60006150808261391c565b915061508b8361391c565b92508282101561509e5761509d614479565b5b828203905092915050565b60006150b4826138e6565b91506150bf836138e6565b9250827fffffffffffffffffffffffffffffffffffffffffffffffffffffffffffffffff038211156150f4576150f3614479565b5b828201905092915050565b60008151905061510e81613d8c565b92915050565b60006020828403121561512a5761512961387e565b5b6000615138848285016150ff565b91505092915050565b600061514c82613d7f565b915061515783613d7f565b92508282101561516a57615169614479565b5b828203905092915050565b600061518082613d7f565b915061518b83613d7f565b92508260ff038211156151a1576151a0614479565b5b828201905092915050565b600060a0820190506151c16000830188613f18565b6151ce60208301876139c2565b6151db6040830186613ecf565b6151e86060830185613efa565b6151f56080830184613f09565b9695505050505050565b60008151905061520e8161392a565b92915050565b60006020828403121561522a5761522961387e565b5b6000615238848285016151ff565b91505092915050565b7f50726f6f662077696e646f77206973206f70656e000000000000000000000000600082015250565b6000615277601483614336565b915061528282615241565b602082019050919050565b600060208201905081810360008301526152a68161526a565b9050919050565b7f596f75277665206265656e20616c726561647920726577617264656420696e2060008201527f746869732065706f636800000000000000000000000000000000000000000000602082015250565b6000615309602a83614336565b9150615314826152ad565b604082019050919050565b60006020820190508181036000830152615338816152fc565b9050919050565b600061534a82613b33565b915063ffffffff82036153605761535f614479565b5b600182019050919050565b7f596f7572206e6f6465206861736e2774206265656e206177617264656420666f60008201527f72207468697320617373657420696e20746869732065706f6368000000000000602082015250565b60006153c7603a83614336565b91506153d28261536b565b604082019050919050565b600060208201905081810360008301526153f6816153ba565b9050919050565b6000819050919050565b615418615413826138e6565b6153fd565b82525050565b600061542a8285614867565b60208201915061543a8284615407565b6020820191508190509392505050565b7f526f6f74206861736820646f65736e2774206d61746368000000000000000000600082015250565b6000615480601783614336565b915061548b8261544a565b602082019050919050565b600060208201905081810360008301526154af81615473565b9050919050565b60006154c182613b33565b91506154cc83613b33565b9250828210156154df576154de614479565b5b828203905092915050565b60006154f58261391c565b91506155008361391c565b92508261ffff0382111561551757615516614479565b5b828201905092915050565b600061552d82613b0c565b915061553883613b0c565b925082615548576155476146f7565b5b828204905092915050565b600060408201905061556860008301856148e4565b6155756020830184614c08565b9392505050565b600061558782613b0c565b915061559283613b0c565b9250826bffffffffffffffffffffffff038211156155b3576155b2614479565b5b828201905092915050565b60006040820190506155d36000830185613f09565b6155e06020830184613f09565b9392505050565b60006155f282613b33565b91506155fd83613b33565b92508263ffffffff0382111561561657615615614479565b5b828201905092915050565b7f48617368696e6750726f78790000000000000000000000000000000000000000600082015250565b6000615657600c83614336565b915061566282615621565b602082019050919050565b600060208201905081810360008301526156868161564a565b9050919050565b60008160601b9050919050565b60006156a58261568d565b9050919050565b60006156b78261569a565b9050919050565b6156cf6156ca826138a8565b6156ac565b82525050565b60006156e182866156be565b6014820191506156f18285615407565b60208201915061570182846146af565b9150819050949350505050565b60006040820190506157236000830185613f18565b81810360208301526157358184614eae565b90509392505050565b7f53636f7265206f662074686520636f6d6d6974206d757374206265206869676860008201527f65722074686174207468652073636f7265206f6620746865206865616420696e60208201527f206f7264657220746f207265706c616365206974210000000000000000000000604082015250565b60006157c0605583614336565b91506157cb8261573e565b606082019050919050565b600060208201905081810360008301526157ef816157b3565b9050919050565b7f53636f7265206f662074686520636f6d6d6974206d757374206265206c65737360008201527f206f7220657175616c20746f20746865206f6e6520796f752077616e7420696e60208201527f7365727420616674657221000000000000000000000000000000000000000000604082015250565b6000615878604b83614336565b9150615883826157f6565b606082019050919050565b600060208201905081810360008301526158a78161586b565b9050919050565b7f53636f7265206f662074686520636f6d6d6974206d757374206265206772656160008201527f746572206f7220657175616c20746f20746865206f6e6520796f752077616e7460208201527f20696e73657274206265666f7265210000000000000000000000000000000000604082015250565b6000615930604f83614336565b915061593b826158ae565b606082019050919050565b6000602082019050818103600083015261595f81615923565b9050919050565b60006159728286615407565b60208201915061598282856156be565b6014820191506159928284615407565b602082019150819050949350505050565b60006159ae826138e6565b91507fffffffffffffffffffffffffffffffffffffffffffffffffffffffffffffffff82036159e0576159df614479565b5b60018201905091905056fea26469706673582212205ba96418e84db65fd8a5b0e5de722494fdf01f4316437d60266c518bcb1c419764736f6c634300080e0033",
  "immutableReferences": {},
  "source": "// SPDX-License-Identifier: MIT\n\npragma solidity ^0.8.0;\n\nimport { AbstractAsset } from \"../assets/AbstractAsset.sol\";\nimport { AssertionRegistry } from \"../AssertionRegistry.sol\";\nimport { HashingProxy } from \"../HashingProxy.sol\";\nimport { Hub } from \"../Hub.sol\";\nimport { IdentityStorage } from \"./IdentityStorage.sol\";\nimport { IERC20 } from \"@openzeppelin/contracts/token/ERC20/IERC20.sol\";\nimport { MerkleProof } from \"@openzeppelin/contracts/utils/cryptography/MerkleProof.sol\";\nimport { ParametersStorage } from \"./ParametersStorage.sol\";\nimport { ProfileStorage } from \"./ProfileStorage.sol\";\nimport { ScoringProxy } from \"../ScoringProxy.sol\";\nimport { ShardingTable } from \"../ShardingTable.sol\";\n\ncontract ServiceAgreementStorage {\n    event ServiceAgreementCreated(\n        address indexed assetContract,\n        uint256 indexed tokenId,\n        bytes indexed keyword,\n        uint8 hashingFunctionId,\n        uint256 startTime,\n        uint16 epochsNum,\n        uint128 epochLength,\n        uint96 tokenAmount\n    );\n    event ServiceAgreementUpdated(\n        address indexed assetContract,\n        uint256 indexed tokenId,\n        bytes indexed keyword,\n        uint8 hashingFunctionId,\n        uint16 epochsNum,\n        uint96 tokenAmount\n    );\n    event CommitSubmitted(\n        address assetContract,\n        uint256 tokenId,\n        bytes indexed keyword,\n        uint8 hashingFunctionId,\n        uint96 indexed identityId,\n        bytes indexed nodeId,\n        uint32 score\n    );\n    event ProofSubmitted(\n        address assetContract,\n        uint256 tokenId,\n        bytes indexed keyword,\n        uint8 hashingFunctionId,\n        uint96 indexed identityId,\n        bytes indexed nodeId\n    );\n\n\n    struct CommitSubmission {\n        uint96 identityId;\n        uint96 nextIdentity;\n        uint32 score;\n    }\n\n    struct ServiceAgreement {\n        uint256 startTime;\n        uint16 epochsNum;\n        uint128 epochLength;\n        uint96 tokenAmount;\n        uint8 scoringFunctionId;\n        uint8 proofWindowOffsetPerc;  // Perc == In % of the epoch\n        mapping(uint16 => bytes32) epochSubmissionHeads;  // epoch => headCommitId\n        mapping(uint16 => uint32) rewardedNodes;\n    }\n\n    Hub public hub;\n\n    // CommitId [keccak256(agreementId + epoch + identityId)] => CommitSubmission\n    mapping(bytes32 => CommitSubmission) commitSubmissions;\n\n    // hash(asset type contract + tokenId + key) -> ServiceAgreement\n    mapping(bytes32 => ServiceAgreement) public serviceAgreements;\n\n    constructor (address hubAddress) {\n        require(hubAddress != address(0));\n        hub = Hub(hubAddress);\n    }\n\n    modifier onlyAssetContracts() {\n        require (\n            hub.isAssetContract(msg.sender),\n            \"Function can only be called by Asset Type Contracts\"\n        );\n        _;\n    }\n\n    function createServiceAgreement(\n        address operationalWallet,\n        address assetContract,\n        uint256 tokenId,\n        bytes memory keyword,\n        uint8 hashingFunctionId,\n        uint16 epochsNum,\n        uint96 tokenAmount,\n        uint8 scoringFunctionId\n    )\n        public\n        onlyAssetContracts\n    {\n        bytes32 agreementId = _generateAgreementId(assetContract, tokenId, keyword, hashingFunctionId);\n\n        ParametersStorage parametersStorage = ParametersStorage(hub.getContractAddress(\"ParametersStorage\"));\n\n        ServiceAgreement storage agreement = serviceAgreements[agreementId];\n        agreement.startTime = block.timestamp;\n        agreement.epochsNum = epochsNum;\n        agreement.epochLength = parametersStorage.epochLength();\n        agreement.proofWindowOffsetPerc = parametersStorage.minProofWindowOffsetPerc() + _generatePseudorandomUint8(\n            operationalWallet,\n            parametersStorage.maxProofWindowOffsetPerc() - parametersStorage.minProofWindowOffsetPerc() + 1\n        );\n        agreement.tokenAmount = tokenAmount;\n        agreement.scoringFunctionId = scoringFunctionId;\n\n        IERC20 tokenContract = IERC20(hub.getContractAddress(\"Token\"));\n        require(\n            tokenContract.allowance(operationalWallet, address(this)) >= tokenAmount,\n            \"Sender allowance must be equal to or higher than chosen amount!\"\n        );\n        require(\n            tokenContract.balanceOf(operationalWallet) >= tokenAmount,\n            \"Sender balance must be equal to or higher than chosen amount!\"\n        );\n\n        tokenContract.transferFrom(operationalWallet, address(this), tokenAmount);\n\n        emit ServiceAgreementCreated(\n            assetContract,\n            tokenId,\n            keyword,\n            hashingFunctionId,\n            agreement.startTime,\n            agreement.epochsNum,\n            agreement.epochLength,\n            agreement.tokenAmount\n        );\n    }\n\n    // TODO: Split into smaller functions\n    function updateServiceAgreement(\n        address operationalWallet,\n        address assetContract,\n        uint256 tokenId,\n        bytes memory keyword,\n        uint8 hashingFunctionId,\n        uint16 epochsNum,\n        uint96 tokenAmount\n    )\n        public\n        onlyAssetContracts\n    {\n        bytes32 agreementId = _generateAgreementId(assetContract, tokenId, keyword, hashingFunctionId);\n\n        // require(serviceAgreements[agreementId]);\n\n        uint96 actualBalance = serviceAgreements[agreementId].tokenAmount;\n\n        serviceAgreements[agreementId].epochsNum = epochsNum;\n        serviceAgreements[agreementId].tokenAmount = tokenAmount;\n\n        IERC20 tokenContract = IERC20(hub.getContractAddress(\"Token\"));\n        require(\n            tokenContract.allowance(operationalWallet, address(this)) >= (actualBalance - tokenAmount),\n            \"Sender allowance must be equal to or higher than chosen amount!\"\n        );\n        require(\n            tokenContract.balanceOf(operationalWallet) >= (actualBalance - tokenAmount),\n            \"Sender balance must be equal to or higher than chosen amount!\"\n        );\n\n        tokenContract.transferFrom(operationalWallet, address(this), actualBalance - tokenAmount);\n\n        emit ServiceAgreementUpdated(\n            assetContract,\n            tokenId,\n            keyword,\n            hashingFunctionId,\n            serviceAgreements[agreementId].epochsNum,\n            serviceAgreements[agreementId].tokenAmount\n        );\n    }\n\n    function isCommitWindowOpen(bytes32 agreementId, uint16 epoch)\n        public\n        view\n        returns (bool)\n    {\n        uint256 timeNow = block.timestamp;\n        ServiceAgreement storage agreement = serviceAgreements[agreementId];\n\n        ParametersStorage parametersStorage = ParametersStorage(hub.getContractAddress(\"ParametersStorage\"));\n\n        return (\n            timeNow > (agreement.startTime + agreement.epochLength * epoch) &&\n            timeNow < (agreement.startTime + agreement.epochLength * epoch + parametersStorage.commitWindowDuration())\n        );\n    }\n\n    function getCommitSubmissions(bytes32 agreementId, uint16 epoch)\n        public\n        view\n        returns (CommitSubmission[] memory)\n    {\n        ParametersStorage parametersStorage = ParametersStorage(hub.getContractAddress(\"ParametersStorage\"));\n        CommitSubmission[] memory epochCommits = new CommitSubmission[](parametersStorage.R2());\n\n        bytes32 epochSubmissionsHead = serviceAgreements[agreementId].epochSubmissionHeads[epoch];\n\n        uint8 submissionsIdx = 0;\n\n        epochCommits[submissionsIdx] = commitSubmissions[epochSubmissionsHead];\n\n        uint96 nextIdentityId = commitSubmissions[epochSubmissionsHead].nextIdentity;\n        while(nextIdentityId != 0) {\n            // VERIFY: Is keccak256(agreementId + epoch + identityId) a good key?\n            bytes32 commitId = keccak256(abi.encodePacked(agreementId, epoch, nextIdentityId));\n\n            CommitSubmission memory commit = commitSubmissions[commitId];\n            submissionsIdx++;\n            epochCommits[submissionsIdx] = commit;\n\n            nextIdentityId = commit.nextIdentity;\n        }\n\n        return epochCommits;\n    }\n\n    function submitCommit(\n        address assetContract,\n        uint256 tokenId,\n        bytes memory keyword,\n        uint8 hashingFunctionId,\n        uint16 epoch,\n        uint96 prevIdentityId\n    )\n        public\n        returns (uint256)\n    {\n        bytes32 agreementId = _generateAgreementId(assetContract, tokenId, keyword, hashingFunctionId);\n\n        require(isCommitWindowOpen(agreementId, epoch), \"Commit window is closed!\");\n\n        IdentityStorage identityStorage = IdentityStorage(hub.getContractAddress(\"IdentityStorage\"));\n        uint96 identityId = identityStorage.getIdentityId();\n\n        ProfileStorage profileStorage = ProfileStorage(hub.getContractAddress(\"ProfileStorage\"));\n\n        ScoringProxy scoringProxy = ScoringProxy(hub.getContractAddress(\"ScoringProxy\"));\n        uint32 score = scoringProxy.callScoringFunction(\n            serviceAgreements[agreementId].scoringFunctionId,\n            hashingFunctionId,\n            profileStorage.getNodeId(identityId),\n            keyword,\n            profileStorage.getStake(identityId)\n        );\n\n        _insertCommitAfter(\n            agreementId,\n            epoch,\n            prevIdentityId,\n            CommitSubmission({\n                identityId: identityId,\n                nextIdentity: 0,\n                score: score\n            })\n        );\n\n        // emit CommitSubmitted(\n        //     assetContract,\n        //     tokenId,\n        //     keyword,\n        //     hashingFunctionId,\n        //     identityId,\n        //     profileStorage.getNodeId(identityId),\n        //     score\n        // );\n\n        ParametersStorage parametersStorage = ParametersStorage(hub.getContractAddress(\"ParametersStorage\"));\n\n        // Returns start time of the proof phase\n        return (\n            serviceAgreements[agreementId].startTime +\n            parametersStorage.epochLength() * (epoch - 1) +\n            parametersStorage.epochLength() * serviceAgreements[agreementId].proofWindowOffsetPerc / 100\n        );\n    }\n\n    function isProofWindowOpen(bytes32 agreementId, uint16 epoch)\n        public\n        view\n        returns (bool)\n    {\n        uint256 timeNow = block.timestamp;\n        ServiceAgreement storage agreement = serviceAgreements[agreementId];\n\n        ParametersStorage parametersStorage = ParametersStorage(hub.getContractAddress(\"ParametersStorage\"));\n\n        uint256 proofWindowOffset = agreement.epochLength * agreement.epochsNum * agreement.proofWindowOffsetPerc / 100;\n        uint256 proofWindowDuration = (\n            agreement.epochLength * agreement.epochsNum * parametersStorage.proofWindowDurationPerc() / 100\n        );\n\n        return (\n            timeNow > (agreement.startTime + agreement.epochLength * epoch + proofWindowOffset) &&\n            timeNow < (agreement.startTime + agreement.epochLength * epoch + proofWindowOffset + proofWindowDuration)\n        );\n    }\n\n    function getChallenge(address assetContract, uint256 tokenId, uint16 epoch)\n        public\n        view\n        returns (bytes32, uint256)\n    {\n        IdentityStorage identityStorage = IdentityStorage(hub.getContractAddress(\"IdentityStorage\"));\n        uint96 identityId = identityStorage.getIdentityId();\n\n        AbstractAsset generalAssetInterface = AbstractAsset(assetContract);\n        bytes32 assertionId = generalAssetInterface.getAssertionByIndex(\n            tokenId,\n            AbstractAsset(assetContract).getAssertionsLength(tokenId) - 1\n        );\n\n        AssertionRegistry assertionRegistry = AssertionRegistry(hub.getContractAddress(\"AssertionRegistry\"));\n        uint256 assertionChunksNumber = assertionRegistry.getChunksNumber(assertionId);\n\n        // blockchash() function only works for last 256 blocks (25.6 min window in case of 6s block time)\n        // TODO: figure out how to achieve randomness\n        return (\n            assertionId,\n            uint256(\n                sha256(abi.encodePacked(epoch, identityId))\n            ) % assertionChunksNumber\n        );\n    }\n\n    function sendProof(\n        address assetContract,\n        uint256 tokenId,\n        bytes memory keyword,\n        uint8 hashingFunctionId,\n        uint16 epoch,\n        bytes32[] memory proof,\n        bytes32 chunkHash\n    )\n        public\n    {\n        bytes32 agreementId = _generateAgreementId(assetContract, tokenId, keyword, hashingFunctionId);\n        require(!isProofWindowOpen(agreementId, epoch), \"Proof window is open\");\n\n        uint96 identityId = IdentityStorage(hub.getContractAddress(\"IdentityStorage\")).getIdentityId();\n\n        require(\n            commitSubmissions[keccak256(abi.encodePacked(agreementId, epoch, identityId))].score != 0,\n            \"You've been already rewarded in this epoch\"\n        );\n\n        bytes32 nextCommitId = serviceAgreements[agreementId].epochSubmissionHeads[epoch];\n\n        ParametersStorage parametersStorage = ParametersStorage(hub.getContractAddress(\"ParametersStorage\"));\n\n        uint32 i = 0;\n        while ((identityId != commitSubmissions[nextCommitId].identityId) || (i != parametersStorage.R0())) {\n            nextCommitId = keccak256(\n                abi.encodePacked(agreementId, epoch, commitSubmissions[nextCommitId].nextIdentity)\n            );\n            i++;\n        }\n\n        require(i < parametersStorage.R0(), \"Your node hasn't been awarded for this asset in this epoch\");\n\n        bytes32 merkleRoot;\n        uint256 challenge;\n        (merkleRoot, challenge) = getChallenge(assetContract, tokenId, epoch);\n\n        require(\n            MerkleProof.verify(\n                proof,\n                merkleRoot,\n                keccak256(abi.encodePacked(chunkHash, challenge))\n            ),\n            \"Root hash doesn't match\"\n        );\n\n        ProfileStorage profileStorage = ProfileStorage(hub.getContractAddress(\"ProfileStorage\"));\n\n        // emit ProofSubmitted(\n        //     assetContract,\n        //     tokenId,\n        //     keyword,\n        //     hashingFunctionId,\n        //     identityId,\n        //     profileStorage.getNodeId(identityId)\n        // );\n\n        uint96 reward = (\n            serviceAgreements[agreementId].tokenAmount /\n            (serviceAgreements[agreementId].epochsNum - epoch + 1) /\n            (parametersStorage.R0() - serviceAgreements[agreementId].rewardedNodes[epoch])\n        );\n\n        IERC20(hub.getContractAddress(\"Token\")).transfer(address(profileStorage), reward);\n\n        profileStorage.setReward(identityId, profileStorage.getReward(identityId) + reward);\n\n        serviceAgreements[agreementId].tokenAmount -= reward;\n        serviceAgreements[agreementId].rewardedNodes[epoch] += 1;\n\n        // To make sure that node already received reward\n        commitSubmissions[keccak256(abi.encodePacked(agreementId, epoch, identityId))].score = 0;\n    }\n\n    function setScoringFunction(bytes32 agreementId, uint8 newScoringFunctionId)\n        public\n        onlyAssetContracts\n    {\n        serviceAgreements[agreementId].scoringFunctionId = newScoringFunctionId;\n    }\n\n    function _insertCommitAfter(bytes32 agreementId, uint16 epoch, uint96 prevIdentityId, CommitSubmission memory commit)\n        private\n    {\n        bytes32 commitId = keccak256(abi.encodePacked(agreementId, epoch, commit.identityId));\n\n        // Replacing head\n        if (prevIdentityId == 0) {\n            bytes32 epochSubmissionsHead = serviceAgreements[agreementId].epochSubmissionHeads[epoch];\n\n            uint96 prevHeadIdentityId = 0;\n            if(epochSubmissionsHead != \"\") {\n                CommitSubmission memory commitHead = commitSubmissions[epochSubmissionsHead];\n                prevHeadIdentityId = commitHead.identityId;\n\n                require(\n                    commit.score > commitHead.score,\n                    \"Score of the commit must be higher that the score of the head in order to replace it!\"\n                );\n            }\n\n            serviceAgreements[agreementId].epochSubmissionHeads[epoch] = commitId;\n            commitSubmissions[commitId] = commit;\n            _link_commits(agreementId, epoch, commit.identityId, prevHeadIdentityId);\n        }\n        else {\n            bytes32 prevCommitId = keccak256(abi.encodePacked(agreementId, epoch, prevIdentityId));\n            CommitSubmission memory prevCommit = commitSubmissions[prevCommitId];\n\n            require(\n                commit.score <= prevCommit.score,\n                \"Score of the commit must be less or equal to the one you want insert after!\"\n            );\n\n            uint96 nextIdentityId = prevCommit.nextIdentity;\n            if (nextIdentityId != 0) {\n                bytes32 nextCommitId = keccak256(abi.encodePacked(agreementId, epoch, nextIdentityId));\n                CommitSubmission memory nextCommit = commitSubmissions[nextCommitId];\n\n                require(\n                    commit.score >= nextCommit.score,\n                    \"Score of the commit must be greater or equal to the one you want insert before!\"\n                );\n            }\n\n            commitSubmissions[commitId] = commit;\n            _link_commits(agreementId, epoch, prevIdentityId, commit.identityId);\n            _link_commits(agreementId, epoch, commit.identityId, nextIdentityId);\n        }\n    }\n\n    function _link_commits(bytes32 agreementId, uint16 epoch, uint96 leftIdentityId, uint96 rightIdentityId)\n        private\n    {\n        bytes32 leftCommitId = keccak256(abi.encodePacked(agreementId, epoch, leftIdentityId));\n        commitSubmissions[leftCommitId].nextIdentity = rightIdentityId;\n    }\n\n    function _generateAgreementId(address assetContract, uint256 tokenId, bytes memory keyword, uint8 hashingFunctionId)\n        private\n        returns (bytes32)\n    {\n        HashingProxy hashingProxy = HashingProxy(hub.getContractAddress(\"HashingProxy\"));\n        return hashingProxy.callHashingFunction(hashingFunctionId, abi.encodePacked(assetContract, tokenId, keyword));\n    }\n\n    function _generatePseudorandomUint8(address sender, uint8 limit)\n        private\n        view\n        returns (uint8)\n    {\n        // TODO: Test type conversion\n        return uint8(uint256(keccak256(abi.encodePacked(block.timestamp, sender, block.number))) % limit);\n    }\n}\n",
  "sourcePath": "/Users/waving/Desktop/OriginTrail/dkg-evm-module/contracts/storage/ServiceAgreementStorage.sol",
  "compiler": {
    "name": "solc",
    "version": "0.8.14+commit.80d49f37.Emscripten.clang"
  },
  "schemaVersion": "3.4.10",
  "updatedAt": "2022-11-16T12:47:53.437Z",
  "devdoc": {
    "kind": "dev",
    "methods": {},
    "version": 1
  },
  "userdoc": {
    "kind": "user",
    "methods": {},
    "version": 1
  }
}