{
  "contractName": "ServiceAgreementStorage",
  "abi": [
    {
      "inputs": [
        {
          "internalType": "address",
          "name": "hubAddress",
          "type": "address"
        }
      ],
      "stateMutability": "nonpayable",
      "type": "constructor"
    },
    {
      "anonymous": false,
      "inputs": [
        {
          "indexed": true,
          "internalType": "address",
          "name": "assetContract",
          "type": "address"
        },
        {
          "indexed": true,
          "internalType": "uint256",
          "name": "tokenId",
          "type": "uint256"
        },
        {
          "indexed": false,
          "internalType": "bytes",
          "name": "keyword",
          "type": "bytes"
        },
        {
          "indexed": false,
          "internalType": "uint8",
          "name": "hashFunctionId",
          "type": "uint8"
        },
        {
          "indexed": true,
          "internalType": "uint72",
          "name": "identityId",
          "type": "uint72"
        },
        {
          "indexed": false,
          "internalType": "bytes",
          "name": "nodeId",
          "type": "bytes"
        },
        {
          "indexed": false,
          "internalType": "uint40",
          "name": "score",
          "type": "uint40"
        }
      ],
      "name": "CommitSubmitted",
      "type": "event"
    },
    {
      "anonymous": false,
      "inputs": [
        {
          "indexed": true,
          "internalType": "address",
          "name": "assetContract",
          "type": "address"
        },
        {
          "indexed": true,
          "internalType": "uint256",
          "name": "tokenId",
          "type": "uint256"
        },
        {
          "indexed": false,
          "internalType": "bytes",
          "name": "keyword",
          "type": "bytes"
        },
        {
          "indexed": false,
          "internalType": "uint8",
          "name": "hashFunctionId",
          "type": "uint8"
        },
        {
          "indexed": true,
          "internalType": "uint72",
          "name": "identityId",
          "type": "uint72"
        },
        {
          "indexed": false,
          "internalType": "bytes",
          "name": "nodeId",
          "type": "bytes"
        }
      ],
      "name": "ProofSubmitted",
      "type": "event"
    },
    {
      "anonymous": false,
      "inputs": [
        {
          "indexed": true,
          "internalType": "address",
          "name": "assetContract",
          "type": "address"
        },
        {
          "indexed": true,
          "internalType": "uint256",
          "name": "tokenId",
          "type": "uint256"
        },
        {
          "indexed": false,
          "internalType": "bytes",
          "name": "keyword",
          "type": "bytes"
        },
        {
          "indexed": false,
          "internalType": "uint8",
          "name": "hashFunctionId",
          "type": "uint8"
        },
        {
          "indexed": false,
          "internalType": "uint256",
          "name": "startTime",
          "type": "uint256"
        },
        {
          "indexed": false,
          "internalType": "uint16",
          "name": "epochsNumber",
          "type": "uint16"
        },
        {
          "indexed": false,
          "internalType": "uint128",
          "name": "epochLength",
          "type": "uint128"
        },
        {
          "indexed": false,
          "internalType": "uint96",
          "name": "tokenAmount",
          "type": "uint96"
        }
      ],
      "name": "ServiceAgreementCreated",
      "type": "event"
    },
    {
      "anonymous": false,
      "inputs": [
        {
          "indexed": true,
          "internalType": "address",
          "name": "assetContract",
          "type": "address"
        },
        {
          "indexed": true,
          "internalType": "uint256",
          "name": "tokenId",
          "type": "uint256"
        },
        {
          "indexed": false,
          "internalType": "bytes",
          "name": "keyword",
          "type": "bytes"
        },
        {
          "indexed": false,
          "internalType": "uint8",
          "name": "hashFunctionId",
          "type": "uint8"
        },
        {
          "indexed": false,
          "internalType": "uint16",
          "name": "epochsNumber",
          "type": "uint16"
        },
        {
          "indexed": false,
          "internalType": "uint96",
          "name": "tokenAmount",
          "type": "uint96"
        }
      ],
      "name": "ServiceAgreementUpdated",
      "type": "event"
    },
    {
      "inputs": [],
      "name": "hub",
      "outputs": [
        {
          "internalType": "contract Hub",
          "name": "",
          "type": "address"
        }
      ],
      "stateMutability": "view",
      "type": "function"
    },
    {
      "inputs": [
        {
          "internalType": "bytes32",
          "name": "agreementId",
          "type": "bytes32"
        }
      ],
      "name": "getAgreementData",
      "outputs": [
        {
          "internalType": "uint256",
          "name": "",
          "type": "uint256"
        },
        {
          "internalType": "uint16",
          "name": "",
          "type": "uint16"
        },
        {
          "internalType": "uint128",
          "name": "",
          "type": "uint128"
        },
        {
          "internalType": "uint96",
          "name": "",
          "type": "uint96"
        },
        {
          "internalType": "uint8",
          "name": "",
          "type": "uint8"
        },
        {
          "internalType": "uint8",
          "name": "",
          "type": "uint8"
        }
      ],
      "stateMutability": "view",
      "type": "function"
    },
    {
      "inputs": [
        {
          "internalType": "bytes32",
          "name": "agreementId",
          "type": "bytes32"
        }
      ],
      "name": "getAgreementStartTime",
      "outputs": [
        {
          "internalType": "uint256",
          "name": "",
          "type": "uint256"
        }
      ],
      "stateMutability": "view",
      "type": "function"
    },
    {
      "inputs": [
        {
          "internalType": "bytes32",
          "name": "agreementId",
          "type": "bytes32"
        }
      ],
      "name": "getAgreementEpochsNumber",
      "outputs": [
        {
          "internalType": "uint16",
          "name": "",
          "type": "uint16"
        }
      ],
      "stateMutability": "view",
      "type": "function"
    },
    {
      "inputs": [
        {
          "internalType": "bytes32",
          "name": "agreementId",
          "type": "bytes32"
        }
      ],
      "name": "getAgreementEpochLength",
      "outputs": [
        {
          "internalType": "uint128",
          "name": "",
          "type": "uint128"
        }
      ],
      "stateMutability": "view",
      "type": "function"
    },
    {
      "inputs": [
        {
          "internalType": "bytes32",
          "name": "agreementId",
          "type": "bytes32"
        }
      ],
      "name": "getAgreementTokenAmount",
      "outputs": [
        {
          "internalType": "uint96",
          "name": "",
          "type": "uint96"
        }
      ],
      "stateMutability": "view",
      "type": "function"
    },
    {
      "inputs": [
        {
          "internalType": "bytes32",
          "name": "agreementId",
          "type": "bytes32"
        }
      ],
      "name": "getAgreementScoreFunctionId",
      "outputs": [
        {
          "internalType": "uint8",
          "name": "",
          "type": "uint8"
        }
      ],
      "stateMutability": "view",
      "type": "function"
    },
    {
      "inputs": [
        {
          "internalType": "bytes32",
          "name": "agreementId",
          "type": "bytes32"
        }
      ],
      "name": "getAgreementProofWindowOffsetPerc",
      "outputs": [
        {
          "internalType": "uint8",
          "name": "",
          "type": "uint8"
        }
      ],
      "stateMutability": "view",
      "type": "function"
    },
    {
      "inputs": [
        {
          "internalType": "address",
          "name": "operationalWallet",
          "type": "address"
        },
        {
          "internalType": "address",
          "name": "assetContract",
          "type": "address"
        },
        {
          "internalType": "uint256",
          "name": "tokenId",
          "type": "uint256"
        },
        {
          "internalType": "bytes",
          "name": "keyword",
          "type": "bytes"
        },
        {
          "internalType": "uint8",
          "name": "hashFunctionId",
          "type": "uint8"
        },
        {
          "internalType": "uint16",
          "name": "epochsNumber",
          "type": "uint16"
        },
        {
          "internalType": "uint96",
          "name": "tokenAmount",
          "type": "uint96"
        },
        {
          "internalType": "uint8",
          "name": "scoreFunctionId",
          "type": "uint8"
        }
      ],
      "name": "createServiceAgreement",
      "outputs": [],
      "stateMutability": "nonpayable",
      "type": "function"
    },
    {
      "inputs": [
        {
          "internalType": "address",
          "name": "operationalWallet",
          "type": "address"
        },
        {
          "internalType": "address",
          "name": "assetContract",
          "type": "address"
        },
        {
          "internalType": "uint256",
          "name": "tokenId",
          "type": "uint256"
        },
        {
          "internalType": "bytes",
          "name": "keyword",
          "type": "bytes"
        },
        {
          "internalType": "uint8",
          "name": "hashFunctionId",
          "type": "uint8"
        },
        {
          "internalType": "uint16",
          "name": "epochsNumber",
          "type": "uint16"
        },
        {
          "internalType": "uint96",
          "name": "tokenAmount",
          "type": "uint96"
        }
      ],
      "name": "updateServiceAgreement",
      "outputs": [],
      "stateMutability": "nonpayable",
      "type": "function"
    },
    {
      "inputs": [
        {
          "internalType": "bytes32",
          "name": "agreementId",
          "type": "bytes32"
        },
        {
          "internalType": "uint16",
          "name": "epoch",
          "type": "uint16"
        }
      ],
      "name": "isCommitWindowOpen",
      "outputs": [
        {
          "internalType": "bool",
          "name": "",
          "type": "bool"
        }
      ],
      "stateMutability": "view",
      "type": "function"
    },
    {
      "inputs": [
        {
          "internalType": "bytes32",
          "name": "agreementId",
          "type": "bytes32"
        },
        {
          "internalType": "uint16",
          "name": "epoch",
          "type": "uint16"
        }
      ],
      "name": "getCommitSubmissions",
      "outputs": [
        {
          "components": [
            {
              "internalType": "uint72",
              "name": "identityId",
              "type": "uint72"
            },
            {
              "internalType": "uint72",
              "name": "prevIdentityId",
              "type": "uint72"
            },
            {
              "internalType": "uint72",
              "name": "nextIdentityId",
              "type": "uint72"
            },
            {
              "internalType": "uint40",
              "name": "score",
              "type": "uint40"
            }
          ],
          "internalType": "struct ServiceAgreementStorage.CommitSubmission[]",
          "name": "",
          "type": "tuple[]"
        }
      ],
      "stateMutability": "view",
      "type": "function"
    },
    {
      "inputs": [
        {
          "internalType": "address",
          "name": "assetContract",
          "type": "address"
        },
        {
          "internalType": "uint256",
          "name": "tokenId",
          "type": "uint256"
        },
        {
          "internalType": "bytes",
          "name": "keyword",
          "type": "bytes"
        },
        {
          "internalType": "uint8",
          "name": "hashFunctionId",
          "type": "uint8"
        },
        {
          "internalType": "uint16",
          "name": "epoch",
          "type": "uint16"
        }
      ],
      "name": "submitCommit",
      "outputs": [],
      "stateMutability": "nonpayable",
      "type": "function"
    },
    {
      "inputs": [
        {
          "internalType": "bytes32",
          "name": "agreementId",
          "type": "bytes32"
        },
        {
          "internalType": "uint16",
          "name": "epoch",
          "type": "uint16"
        }
      ],
      "name": "isProofWindowOpen",
      "outputs": [
        {
          "internalType": "bool",
          "name": "",
          "type": "bool"
        }
      ],
      "stateMutability": "view",
      "type": "function"
    },
    {
      "inputs": [
        {
          "internalType": "address",
          "name": "sender",
          "type": "address"
        },
        {
          "internalType": "address",
          "name": "assetContract",
          "type": "address"
        },
        {
          "internalType": "uint256",
          "name": "tokenId",
          "type": "uint256"
        },
        {
          "internalType": "uint16",
          "name": "epoch",
          "type": "uint16"
        }
      ],
      "name": "getChallenge",
      "outputs": [
        {
          "internalType": "bytes32",
          "name": "",
          "type": "bytes32"
        },
        {
          "internalType": "uint256",
          "name": "",
          "type": "uint256"
        }
      ],
      "stateMutability": "view",
      "type": "function"
    },
    {
      "inputs": [
        {
          "internalType": "address",
          "name": "assetContract",
          "type": "address"
        },
        {
          "internalType": "uint256",
          "name": "tokenId",
          "type": "uint256"
        },
        {
          "internalType": "bytes",
          "name": "keyword",
          "type": "bytes"
        },
        {
          "internalType": "uint8",
          "name": "hashFunctionId",
          "type": "uint8"
        },
        {
          "internalType": "uint16",
          "name": "epoch",
          "type": "uint16"
        },
        {
          "internalType": "bytes32[]",
          "name": "proof",
          "type": "bytes32[]"
        },
        {
          "internalType": "bytes32",
          "name": "chunkHash",
          "type": "bytes32"
        }
      ],
      "name": "sendProof",
      "outputs": [],
      "stateMutability": "nonpayable",
      "type": "function"
    },
    {
      "inputs": [
        {
          "internalType": "bytes32",
          "name": "agreementId",
          "type": "bytes32"
        },
        {
          "internalType": "uint8",
          "name": "newScoreFunctionId",
          "type": "uint8"
        }
      ],
      "name": "setScoringFunction",
      "outputs": [],
      "stateMutability": "nonpayable",
      "type": "function"
    }
  ],
  "bytecode": "0x60806040523480156200001157600080fd5b5060405162005cee38038062005cee833981810160405281019062000037919062000122565b600073ffffffffffffffffffffffffffffffffffffffff168173ffffffffffffffffffffffffffffffffffffffff16036200007157600080fd5b806000806101000a81548173ffffffffffffffffffffffffffffffffffffffff021916908373ffffffffffffffffffffffffffffffffffffffff1602179055505062000154565b600080fd5b600073ffffffffffffffffffffffffffffffffffffffff82169050919050565b6000620000ea82620000bd565b9050919050565b620000fc81620000dd565b81146200010857600080fd5b50565b6000815190506200011c81620000f1565b92915050565b6000602082840312156200013b576200013a620000b8565b5b60006200014b848285016200010b565b91505092915050565b615b8a80620001646000396000f3fe608060405234801561001057600080fd5b506004361061010b5760003560e01c806399149f77116100a2578063be82c4e211610071578063be82c4e214610308578063becdd59714610324578063ce60dc6114610354578063d1a640c714610384578063fc348cb6146103b45761010b565b806399149f771461025c5780639c70b3c01461028c578063aa6a00fd146102bc578063b1f38350146102ec5761010b565b80634acaeac8116100de5780634acaeac8146101bf5780634fb96d50146101db57806361f14ece1461020b5780636ff015ae146102275761010b565b80630f00201614610110578063365a86fc146101415780634089a17d1461015f578063484a47e71461018f575b600080fd5b61012a60048036038101906101259190613b10565b6103d0565b604051610138929190613b9f565b60405180910390f35b61014961072d565b6040516101569190613c27565b60405180910390f35b61017960048036038101906101749190613c6e565b610751565b6040516101869190613cc2565b60405180910390f35b6101a960048036038101906101a49190613c6e565b610789565b6040516101b69190613d08565b60405180910390f35b6101d960048036038101906101d49190613ea2565b6107c5565b005b6101f560048036038101906101f09190613f39565b610d56565b60405161020291906140c1565b60405180910390f35b6102256004803603810190610220919061410f565b6111a9565b005b610241600480360381019061023c9190613c6e565b6116c3565b604051610253969594939291906141eb565b60405180910390f35b61027660048036038101906102719190613c6e565b6117c7565b604051610283919061424c565b60405180910390f35b6102a660048036038101906102a19190613c6e565b6117f4565b6040516102b39190614267565b60405180910390f35b6102d660048036038101906102d19190613f39565b611814565b6040516102e3919061429d565b60405180910390f35b610306600480360381019061030191906142b8565b611b0d565b005b610322600480360381019061031d91906142f8565b611c19565b005b61033e60048036038101906103399190613f39565b6120c2565b60405161034b919061429d565b60405180910390f35b61036e60048036038101906103699190613c6e565b6122b2565b60405161037b919061424c565b60405180910390f35b61039e60048036038101906103999190613c6e565b6122df565b6040516103ab91906143ca565b60405180910390f35b6103ce60048036038101906103c991906144ad565b61230d565b005b60008060008060009054906101000a900473ffffffffffffffffffffffffffffffffffffffff1673ffffffffffffffffffffffffffffffffffffffff166304433bbc6040518163ffffffff1660e01b815260040161042d906145e4565b602060405180830381865afa15801561044a573d6000803e3d6000fd5b505050506040513d601f19601f8201168201806040525081019061046e9190614619565b905060008173ffffffffffffffffffffffffffffffffffffffff1663867a4680896040518263ffffffff1660e01b81526004016104ab9190614655565b602060405180830381865afa1580156104c8573d6000803e3d6000fd5b505050506040513d601f19601f820116820180604052508101906104ec919061469c565b9050600087905060008173ffffffffffffffffffffffffffffffffffffffff16637c29b293896040518263ffffffff1660e01b815260040161052e9190614267565b602060405180830381865afa15801561054b573d6000803e3d6000fd5b505050506040513d601f19601f8201168201806040525081019061056f91906146de565b905060008060009054906101000a900473ffffffffffffffffffffffffffffffffffffffff1673ffffffffffffffffffffffffffffffffffffffff166304433bbc6040518163ffffffff1660e01b81526004016105cb90614757565b602060405180830381865afa1580156105e8573d6000803e3d6000fd5b505050506040513d601f19601f8201168201806040525081019061060c9190614619565b905060008173ffffffffffffffffffffffffffffffffffffffff1663ec82e3a7846040518263ffffffff1660e01b81526004016106499190614777565b602060405180830381865afa158015610666573d6000803e3d6000fd5b505050506040513d601f19601f8201168201806040525081019061068a91906147a7565b6bffffffffffffffffffffffff169050828160028b886040516020016106b1929190614840565b6040516020818303038152906040526040516106cd91906148e6565b602060405180830381855afa1580156106ea573d6000803e3d6000fd5b5050506040513d601f19601f8201168201806040525081019061070d91906146de565b60001c61071a919061492c565b9750975050505050505094509492505050565b60008054906101000a900473ffffffffffffffffffffffffffffffffffffffff1681565b60006002600083815260200190815260200160002060010160129054906101000a90046bffffffffffffffffffffffff169050919050565b60006002600083815260200190815260200160002060010160029054906101000a90046fffffffffffffffffffffffffffffffff169050919050565b60006107d386868686612d9b565b90506107df81836120c2565b61081e576040517f08c379a0000000000000000000000000000000000000000000000000000000008152600401610815906149a9565b60405180910390fd5b60008060009054906101000a900473ffffffffffffffffffffffffffffffffffffffff1673ffffffffffffffffffffffffffffffffffffffff166304433bbc6040518163ffffffff1660e01b8152600401610878906145e4565b602060405180830381865afa158015610895573d6000803e3d6000fd5b505050506040513d601f19601f820116820180604052508101906108b99190614619565b905060008173ffffffffffffffffffffffffffffffffffffffff1663867a4680336040518263ffffffff1660e01b81526004016108f69190614655565b602060405180830381865afa158015610913573d6000803e3d6000fd5b505050506040513d601f19601f82011682018060405250810190610937919061469c565b905060008060009054906101000a900473ffffffffffffffffffffffffffffffffffffffff1673ffffffffffffffffffffffffffffffffffffffff166304433bbc6040518163ffffffff1660e01b815260040161099390614a15565b602060405180830381865afa1580156109b0573d6000803e3d6000fd5b505050506040513d601f19601f820116820180604052508101906109d49190614619565b905060008060009054906101000a900473ffffffffffffffffffffffffffffffffffffffff1673ffffffffffffffffffffffffffffffffffffffff166304433bbc6040518163ffffffff1660e01b8152600401610a3090614a81565b602060405180830381865afa158015610a4d573d6000803e3d6000fd5b505050506040513d601f19601f82011682018060405250810190610a719190614619565b905060008173ffffffffffffffffffffffffffffffffffffffff16630b47a00860026000898152602001908152602001600020600101601e9054906101000a900460ff168a8673ffffffffffffffffffffffffffffffffffffffff166341c10b9a896040518263ffffffff1660e01b8152600401610aef9190614ab0565b600060405180830381865afa158015610b0c573d6000803e3d6000fd5b505050506040513d6000823e3d601f19601f82011682018060405250810190610b359190614b3b565b8d8873ffffffffffffffffffffffffffffffffffffffff1663edf530c08b6040518263ffffffff1660e01b8152600401610b6f9190614ab0565b602060405180830381865afa158015610b8c573d6000803e3d6000fd5b505050506040513d601f19601f82011682018060405250810190610bb091906147a7565b6040518663ffffffff1660e01b8152600401610bd0959493929190614bce565b6020604051808303816000875af1158015610bef573d6000803e3d6000fd5b505050506040513d601f19601f82011682018060405250810190610c139190614c5b565b9050610c6a868860405180608001604052808868ffffffffffffffffff168152602001600068ffffffffffffffffff168152602001600068ffffffffffffffffff1681526020018564ffffffffff16815250612ee4565b8368ffffffffffffffffff168a8c73ffffffffffffffffffffffffffffffffffffffff167f9e2e821c1917b86a32470c4b136b11697b17ee7120c6c6147d34bf0190257d248c8c8873ffffffffffffffffffffffffffffffffffffffff166341c10b9a8b6040518263ffffffff1660e01b8152600401610cea9190614ab0565b600060405180830381865afa158015610d07573d6000803e3d6000fd5b505050506040513d6000823e3d601f19601f82011682018060405250810190610d309190614b3b565b87604051610d419493929190614c97565b60405180910390a45050505050505050505050565b606060008060009054906101000a900473ffffffffffffffffffffffffffffffffffffffff1673ffffffffffffffffffffffffffffffffffffffff166304433bbc6040518163ffffffff1660e01b8152600401610db290614d36565b602060405180830381865afa158015610dcf573d6000803e3d6000fd5b505050506040513d601f19601f82011682018060405250810190610df39190614619565b905060008173ffffffffffffffffffffffffffffffffffffffff1663fee2cb056040518163ffffffff1660e01b8152600401602060405180830381865afa158015610e42573d6000803e3d6000fd5b505050506040513d601f19601f82011682018060405250810190610e669190614d94565b65ffffffffffff1667ffffffffffffffff811115610e8757610e86613d3e565b5b604051908082528060200260200182016040528015610ec057816020015b610ead6139de565b815260200190600190039081610ea55790505b50905060006002600087815260200190815260200160002060020160008661ffff1661ffff1681526020019081526020016000205490506000600160008381526020019081526020016000206040518060800160405290816000820160009054906101000a900468ffffffffffffffffff1668ffffffffffffffffff1668ffffffffffffffffff1681526020016000820160099054906101000a900468ffffffffffffffffff1668ffffffffffffffffff1668ffffffffffffffffff1681526020016000820160129054906101000a900468ffffffffffffffffff1668ffffffffffffffffff1668ffffffffffffffffff16815260200160008201601b9054906101000a900464ffffffffff1664ffffffffff1664ffffffffff1681525050838260ff1681518110610ff557610ff4614dc1565b5b602002602001018190525060006001600084815260200190815260200160002060000160129054906101000a900468ffffffffffffffffff1690505b60008168ffffffffffffffffff161461119b57600088888360405160200161105b93929190614e11565b6040516020818303038152906040528051906020012090506000600160008381526020019081526020016000206040518060800160405290816000820160009054906101000a900468ffffffffffffffffff1668ffffffffffffffffff1668ffffffffffffffffff1681526020016000820160099054906101000a900468ffffffffffffffffff1668ffffffffffffffffff1668ffffffffffffffffff1681526020016000820160129054906101000a900468ffffffffffffffffff1668ffffffffffffffffff1668ffffffffffffffffff16815260200160008201601b9054906101000a900464ffffffffff1664ffffffffff1664ffffffffff16815250509050838061116890614e7d565b94505080868560ff168151811061118257611181614dc1565b5b6020026020010181905250806040015192505050611031565b839550505050505092915050565b60008054906101000a900473ffffffffffffffffffffffffffffffffffffffff1673ffffffffffffffffffffffffffffffffffffffff16638d5d2d85336040518263ffffffff1660e01b81526004016112029190614655565b602060405180830381865afa15801561121f573d6000803e3d6000fd5b505050506040513d601f19601f820116820180604052508101906112439190614ed2565b611282576040517f08c379a000000000000000000000000000000000000000000000000000000000815260040161127990614f71565b60405180910390fd5b600061129087878787612d9b565b905060006002600083815260200190815260200160002060010160129054906101000a90046bffffffffffffffffffffffff169050836002600084815260200190815260200160002060010160006101000a81548161ffff021916908361ffff160217905550826002600084815260200190815260200160002060010160126101000a8154816bffffffffffffffffffffffff02191690836bffffffffffffffffffffffff16021790555060008060009054906101000a900473ffffffffffffffffffffffffffffffffffffffff1673ffffffffffffffffffffffffffffffffffffffff166304433bbc6040518163ffffffff1660e01b815260040161139590614fdd565b602060405180830381865afa1580156113b2573d6000803e3d6000fd5b505050506040513d601f19601f820116820180604052508101906113d69190614619565b905083826113e49190614ffd565b6bffffffffffffffffffffffff168173ffffffffffffffffffffffffffffffffffffffff1663dd62ed3e8c306040518363ffffffff1660e01b815260040161142d929190615031565b602060405180830381865afa15801561144a573d6000803e3d6000fd5b505050506040513d601f19601f8201168201806040525081019061146e919061506f565b10156114af576040517f08c379a00000000000000000000000000000000000000000000000000000000081526004016114a69061510e565b60405180910390fd5b83826114bb9190614ffd565b6bffffffffffffffffffffffff168173ffffffffffffffffffffffffffffffffffffffff166370a082318c6040518263ffffffff1660e01b81526004016115029190614655565b602060405180830381865afa15801561151f573d6000803e3d6000fd5b505050506040513d601f19601f82011682018060405250810190611543919061506f565b1015611584576040517f08c379a000000000000000000000000000000000000000000000000000000000815260040161157b906151a0565b60405180910390fd5b8073ffffffffffffffffffffffffffffffffffffffff166323b872dd8b3087866115ae9190614ffd565b6040518463ffffffff1660e01b81526004016115cc939291906151f1565b6020604051808303816000875af11580156115eb573d6000803e3d6000fd5b505050506040513d601f19601f8201168201806040525081019061160f9190614ed2565b50878973ffffffffffffffffffffffffffffffffffffffff167f1abad9d03c6b61f6b6714655a41bdc5b88318ce5136915a9c8751a74ad5a30b989896002600089815260200190815260200160002060010160009054906101000a900461ffff16600260008a815260200190815260200160002060010160129054906101000a90046bffffffffffffffffffffffff166040516116af9493929190615228565b60405180910390a350505050505050505050565b60008060008060008060026000888152602001908152602001600020600001546002600089815260200190815260200160002060010160009054906101000a900461ffff16600260008a815260200190815260200160002060010160029054906101000a90046fffffffffffffffffffffffffffffffff16600260008b815260200190815260200160002060010160129054906101000a90046bffffffffffffffffffffffff16600260008c8152602001908152602001600020600101601e9054906101000a900460ff16600260008d8152602001908152602001600020600101601f9054906101000a900460ff1695509550955095509550955091939550919395565b600060026000838152602001908152602001600020600101601f9054906101000a900460ff169050919050565b600060026000838152602001908152602001600020600001549050919050565b600080429050600060026000868152602001908152602001600020905060008060009054906101000a900473ffffffffffffffffffffffffffffffffffffffff1673ffffffffffffffffffffffffffffffffffffffff166304433bbc6040518163ffffffff1660e01b815260040161188b90614d36565b602060405180830381865afa1580156118a8573d6000803e3d6000fd5b505050506040513d601f19601f820116820180604052508101906118cc9190614619565b90506000606483600101601f9054906101000a900460ff1660ff168460010160009054906101000a900461ffff1661ffff168560010160029054906101000a90046fffffffffffffffffffffffffffffffff166119299190615274565b6119339190615274565b61193d91906152be565b6fffffffffffffffffffffffffffffffff169050600060648373ffffffffffffffffffffffffffffffffffffffff16639d3ceb0c6040518163ffffffff1660e01b8152600401602060405180830381865afa1580156119a0573d6000803e3d6000fd5b505050506040513d601f19601f820116820180604052508101906119c49190615304565b60ff168560010160009054906101000a900461ffff1661ffff168660010160029054906101000a90046fffffffffffffffffffffffffffffffff16611a099190615274565b611a139190615274565b611a1d91906152be565b6fffffffffffffffffffffffffffffffff169050818761ffff168560010160029054906101000a90046fffffffffffffffffffffffffffffffff16611a629190615274565b6fffffffffffffffffffffffffffffffff168560000154611a839190615331565b611a8d9190615331565b85118015611b00575080828861ffff168660010160029054906101000a90046fffffffffffffffffffffffffffffffff16611ac89190615274565b6fffffffffffffffffffffffffffffffff168660000154611ae99190615331565b611af39190615331565b611afd9190615331565b85105b9550505050505092915050565b60008054906101000a900473ffffffffffffffffffffffffffffffffffffffff1673ffffffffffffffffffffffffffffffffffffffff16638d5d2d85336040518263ffffffff1660e01b8152600401611b669190614655565b602060405180830381865afa158015611b83573d6000803e3d6000fd5b505050506040513d601f19601f82011682018060405250810190611ba79190614ed2565b611be6576040517f08c379a0000000000000000000000000000000000000000000000000000000008152600401611bdd90614f71565b60405180910390fd5b8060026000848152602001908152602001600020600101601e6101000a81548160ff021916908360ff1602179055505050565b60008054906101000a900473ffffffffffffffffffffffffffffffffffffffff1673ffffffffffffffffffffffffffffffffffffffff16638d5d2d85336040518263ffffffff1660e01b8152600401611c729190614655565b602060405180830381865afa158015611c8f573d6000803e3d6000fd5b505050506040513d601f19601f82011682018060405250810190611cb39190614ed2565b611cf2576040517f08c379a0000000000000000000000000000000000000000000000000000000008152600401611ce990614f71565b60405180910390fd5b6000611d0088888888612d9b565b9050611d0f8982868686613495565b60008060009054906101000a900473ffffffffffffffffffffffffffffffffffffffff1673ffffffffffffffffffffffffffffffffffffffff166304433bbc6040518163ffffffff1660e01b8152600401611d6990614fdd565b602060405180830381865afa158015611d86573d6000803e3d6000fd5b505050506040513d601f19601f82011682018060405250810190611daa9190614619565b9050836bffffffffffffffffffffffff168173ffffffffffffffffffffffffffffffffffffffff1663dd62ed3e8c306040518363ffffffff1660e01b8152600401611df6929190615031565b602060405180830381865afa158015611e13573d6000803e3d6000fd5b505050506040513d601f19601f82011682018060405250810190611e37919061506f565b1015611e78576040517f08c379a0000000000000000000000000000000000000000000000000000000008152600401611e6f9061510e565b60405180910390fd5b836bffffffffffffffffffffffff168173ffffffffffffffffffffffffffffffffffffffff166370a082318c6040518263ffffffff1660e01b8152600401611ec09190614655565b602060405180830381865afa158015611edd573d6000803e3d6000fd5b505050506040513d601f19601f82011682018060405250810190611f01919061506f565b1015611f42576040517f08c379a0000000000000000000000000000000000000000000000000000000008152600401611f39906151a0565b60405180910390fd5b8073ffffffffffffffffffffffffffffffffffffffff166323b872dd8b30876040518463ffffffff1660e01b8152600401611f7f939291906151f1565b6020604051808303816000875af1158015611f9e573d6000803e3d6000fd5b505050506040513d601f19601f82011682018060405250810190611fc29190614ed2565b50878973ffffffffffffffffffffffffffffffffffffffff167f48298191f59170e97201484d4a3de75065cea587a165788d1f19459fabd39a5e898960026000888152602001908152602001600020600001546002600089815260200190815260200160002060010160009054906101000a900461ffff16600260008a815260200190815260200160002060010160029054906101000a90046fffffffffffffffffffffffffffffffff16600260008b815260200190815260200160002060010160129054906101000a90046bffffffffffffffffffffffff166040516120ae96959493929190615387565b60405180910390a350505050505050505050565b600080429050600060026000868152602001908152602001600020905060008060009054906101000a900473ffffffffffffffffffffffffffffffffffffffff1673ffffffffffffffffffffffffffffffffffffffff166304433bbc6040518163ffffffff1660e01b815260040161213990614d36565b602060405180830381865afa158015612156573d6000803e3d6000fd5b505050506040513d601f19601f8201168201806040525081019061217a9190614619565b90508461ffff168260010160029054906101000a90046fffffffffffffffffffffffffffffffff166121ac9190615274565b6fffffffffffffffffffffffffffffffff1682600001546121cd9190615331565b831180156122a757508073ffffffffffffffffffffffffffffffffffffffff1663e8d487ff6040518163ffffffff1660e01b8152600401602060405180830381865afa158015612221573d6000803e3d6000fd5b505050506040513d601f19601f820116820180604052508101906122459190615404565b61ffff168561ffff168360010160029054906101000a90046fffffffffffffffffffffffffffffffff166122799190615274565b6fffffffffffffffffffffffffffffffff16836000015461229a9190615331565b6122a49190615331565b83105b935050505092915050565b600060026000838152602001908152602001600020600101601e9054906101000a900460ff169050919050565b60006002600083815260200190815260200160002060010160009054906101000a900461ffff169050919050565b600061231b88888888612d9b565b90506123278185611814565b15612367576040517f08c379a000000000000000000000000000000000000000000000000000000000815260040161235e9061547d565b60405180910390fd5b60008060009054906101000a900473ffffffffffffffffffffffffffffffffffffffff1673ffffffffffffffffffffffffffffffffffffffff166304433bbc6040518163ffffffff1660e01b81526004016123c1906145e4565b602060405180830381865afa1580156123de573d6000803e3d6000fd5b505050506040513d601f19601f820116820180604052508101906124029190614619565b73ffffffffffffffffffffffffffffffffffffffff1663867a4680336040518263ffffffff1660e01b815260040161243a9190614655565b602060405180830381865afa158015612457573d6000803e3d6000fd5b505050506040513d601f19601f8201168201806040525081019061247b919061469c565b905060006001600084888560405160200161249893929190614e11565b604051602081830303815290604052805190602001208152602001908152602001600020600001601b9054906101000a900464ffffffffff1664ffffffffff1603612518576040517f08c379a000000000000000000000000000000000000000000000000000000000815260040161250f9061550f565b60405180910390fd5b60006002600084815260200190815260200160002060020160008761ffff1661ffff16815260200190815260200160002054905060008060009054906101000a900473ffffffffffffffffffffffffffffffffffffffff1673ffffffffffffffffffffffffffffffffffffffff166304433bbc6040518163ffffffff1660e01b81526004016125a690614d36565b602060405180830381865afa1580156125c3573d6000803e3d6000fd5b505050506040513d601f19601f820116820180604052508101906125e79190614619565b905060005b6001600084815260200190815260200160002060000160009054906101000a900468ffffffffffffffffff1668ffffffffffffffffff168468ffffffffffffffffff16141580156126b357508173ffffffffffffffffffffffffffffffffffffffff16638d73d86a6040518163ffffffff1660e01b8152600401602060405180830381865afa158015612683573d6000803e3d6000fd5b505050506040513d601f19601f820116820180604052508101906126a7919061556b565b63ffffffff168160ff16105b156127235784886001600086815260200190815260200160002060000160129054906101000a900468ffffffffffffffffff166040516020016126f893929190614e11565b604051602081830303815290604052805190602001209250808061271b90614e7d565b9150506125ec565b8173ffffffffffffffffffffffffffffffffffffffff16638d73d86a6040518163ffffffff1660e01b8152600401602060405180830381865afa15801561276e573d6000803e3d6000fd5b505050506040513d601f19601f82011682018060405250810190612792919061556b565b63ffffffff168160ff16106127dc576040517f08c379a00000000000000000000000000000000000000000000000000000000081526004016127d39061560a565b60405180910390fd5b6000806127eb338f8f8d6103d0565b809250819350505061282689838a8460405160200161280b92919061564b565b60405160208183030381529060405280519060200120613805565b612865576040517f08c379a000000000000000000000000000000000000000000000000000000000815260040161285c906156c3565b60405180910390fd5b60008060009054906101000a900473ffffffffffffffffffffffffffffffffffffffff1673ffffffffffffffffffffffffffffffffffffffff166304433bbc6040518163ffffffff1660e01b81526004016128bf90614a15565b602060405180830381865afa1580156128dc573d6000803e3d6000fd5b505050506040513d601f19601f820116820180604052508101906129009190614619565b90506000600260008a815260200190815260200160002060030160008d61ffff1661ffff16815260200190815260200160002060009054906101000a900463ffffffff168673ffffffffffffffffffffffffffffffffffffffff16638d73d86a6040518163ffffffff1660e01b8152600401602060405180830381865afa15801561298f573d6000803e3d6000fd5b505050506040513d601f19601f820116820180604052508101906129b3919061556b565b6129bd91906156e3565b63ffffffff1660018d600260008d815260200190815260200160002060010160009054906101000a900461ffff166129f59190615717565b6129ff919061574b565b61ffff16600260008c815260200190815260200160002060010160129054906101000a90046bffffffffffffffffffffffff16612a3c9190615783565b612a469190615783565b905060008054906101000a900473ffffffffffffffffffffffffffffffffffffffff1673ffffffffffffffffffffffffffffffffffffffff166304433bbc6040518163ffffffff1660e01b8152600401612a9f90614fdd565b602060405180830381865afa158015612abc573d6000803e3d6000fd5b505050506040513d601f19601f82011682018060405250810190612ae09190614619565b73ffffffffffffffffffffffffffffffffffffffff1663a9059cbb83836040518363ffffffff1660e01b8152600401612b1a9291906157b4565b6020604051808303816000875af1158015612b39573d6000803e3d6000fd5b505050506040513d601f19601f82011682018060405250810190612b5d9190614ed2565b508173ffffffffffffffffffffffffffffffffffffffff166303e9f0a189838573ffffffffffffffffffffffffffffffffffffffff1663c1713b028d6040518263ffffffff1660e01b8152600401612bb59190614ab0565b602060405180830381865afa158015612bd2573d6000803e3d6000fd5b505050506040513d601f19601f82011682018060405250810190612bf691906147a7565b612c0091906157dd565b6040518363ffffffff1660e01b8152600401612c1d92919061581f565b600060405180830381600087803b158015612c3757600080fd5b505af1158015612c4b573d6000803e3d6000fd5b5050505080600260008b815260200190815260200160002060010160128282829054906101000a90046bffffffffffffffffffffffff16612c8c9190614ffd565b92506101000a8154816bffffffffffffffffffffffff02191690836bffffffffffffffffffffffff1602179055506001600260008b815260200190815260200160002060030160008e61ffff1661ffff16815260200190815260200160002060008282829054906101000a900463ffffffff16612d099190615848565b92506101000a81548163ffffffff021916908363ffffffff1602179055506000600160008b8f8c604051602001612d4293929190614e11565b604051602081830303815290604052805190602001208152602001908152602001600020600001601b6101000a81548164ffffffffff021916908364ffffffffff16021790555050505050505050505050505050505050565b60008060008054906101000a900473ffffffffffffffffffffffffffffffffffffffff1673ffffffffffffffffffffffffffffffffffffffff166304433bbc6040518163ffffffff1660e01b8152600401612df5906158ce565b602060405180830381865afa158015612e12573d6000803e3d6000fd5b505050506040513d601f19601f82011682018060405250810190612e369190614619565b90508073ffffffffffffffffffffffffffffffffffffffff166345ed59e584888888604051602001612e6a93929190615936565b6040516020818303038152906040526040518363ffffffff1660e01b8152600401612e9692919061596f565b6020604051808303816000875af1158015612eb5573d6000803e3d6000fd5b505050506040513d601f19601f82011682018060405250810190612ed991906146de565b915050949350505050565b600083838360000151604051602001612eff93929190614e11565b60405160208183030381529060405280519060200120905060006002600086815260200190815260200160002060020160008561ffff1661ffff16815260200190815260200160002054905060008060009054906101000a900473ffffffffffffffffffffffffffffffffffffffff1673ffffffffffffffffffffffffffffffffffffffff166304433bbc6040518163ffffffff1660e01b8152600401612fa590614d36565b602060405180830381865afa158015612fc2573d6000803e3d6000fd5b505050506040513d601f19601f82011682018060405250810190612fe69190614619565b905060005b60016000848152602001908152602001600020600001601b9054906101000a900464ffffffffff1664ffffffffff16856060015164ffffffffff1610801561306a575060006001600085815260200190815260200160002060000160129054906101000a900468ffffffffffffffffff1668ffffffffffffffffff1614155b80156130ec57508173ffffffffffffffffffffffffffffffffffffffff16638d73d86a6040518163ffffffff1660e01b8152600401602060405180830381865afa1580156130bc573d6000803e3d6000fd5b505050506040513d601f19601f820116820180604052508101906130e0919061556b565b63ffffffff168160ff16105b1561315c5786866001600086815260200190815260200160002060000160129054906101000a900468ffffffffffffffffff1660405160200161313193929190614e11565b604051602081830303815290604052805190602001209250808061315490614e7d565b915050612feb565b8173ffffffffffffffffffffffffffffffffffffffff16638d73d86a6040518163ffffffff1660e01b8152600401602060405180830381865afa1580156131a7573d6000803e3d6000fd5b505050506040513d601f19601f820116820180604052508101906131cb919061556b565b63ffffffff168160ff1610613215576040517f08c379a000000000000000000000000000000000000000000000000000000000815260040161320c906159eb565b60405180910390fd5b846001600086815260200190815260200160002060008201518160000160006101000a81548168ffffffffffffffffff021916908368ffffffffffffffffff16021790555060208201518160000160096101000a81548168ffffffffffffffffff021916908368ffffffffffffffffff16021790555060408201518160000160126101000a81548168ffffffffffffffffff021916908368ffffffffffffffffff160217905550606082015181600001601b6101000a81548164ffffffffff021916908364ffffffffff1602179055509050506000600160008581526020019081526020016000206040518060800160405290816000820160009054906101000a900468ffffffffffffffffff1668ffffffffffffffffff1668ffffffffffffffffff1681526020016000820160099054906101000a900468ffffffffffffffffff1668ffffffffffffffffff1668ffffffffffffffffff1681526020016000820160129054906101000a900468ffffffffffffffffff1668ffffffffffffffffff1668ffffffffffffffffff16815260200160008201601b9054906101000a900464ffffffffff1664ffffffffff1664ffffffffff1681525050905060008260ff160361342a5784600260008a815260200190815260200160002060020160008961ffff1661ffff1681526020019081526020016000208190555061342588888860000151846000015161381c565b61348b565b806060015164ffffffffff16866060015164ffffffffff1611156134755761345c88888360200151896000015161381c565b61347088888860000151846000015161381c565b61348a565b61348988888360000151896000015161381c565b5b5b5050505050505050565b60008060009054906101000a900473ffffffffffffffffffffffffffffffffffffffff1673ffffffffffffffffffffffffffffffffffffffff166304433bbc6040518163ffffffff1660e01b81526004016134ef90614d36565b602060405180830381865afa15801561350c573d6000803e3d6000fd5b505050506040513d601f19601f820116820180604052508101906135309190614619565b90506000600260008781526020019081526020016000209050428160000181905550848160010160006101000a81548161ffff021916908361ffff1602179055508173ffffffffffffffffffffffffffffffffffffffff166357d775f86040518163ffffffff1660e01b8152600401602060405180830381865afa1580156135bc573d6000803e3d6000fd5b505050506040513d601f19601f820116820180604052508101906135e09190615a37565b8160010160026101000a8154816fffffffffffffffffffffffffffffffff02191690836fffffffffffffffffffffffffffffffff1602179055506137178760018473ffffffffffffffffffffffffffffffffffffffff16638e6262426040518163ffffffff1660e01b8152600401602060405180830381865afa15801561366b573d6000803e3d6000fd5b505050506040513d601f19601f8201168201806040525081019061368f9190615304565b8573ffffffffffffffffffffffffffffffffffffffff1663ff2117436040518163ffffffff1660e01b8152600401602060405180830381865afa1580156136da573d6000803e3d6000fd5b505050506040513d601f19601f820116820180604052508101906136fe9190615304565b6137089190615a64565b6137129190615a98565b613900565b8273ffffffffffffffffffffffffffffffffffffffff16638e6262426040518163ffffffff1660e01b8152600401602060405180830381865afa158015613762573d6000803e3d6000fd5b505050506040513d601f19601f820116820180604052508101906137869190615304565b6137909190615a98565b81600101601f6101000a81548160ff021916908360ff160217905550838160010160126101000a8154816bffffffffffffffffffffffff02191690836bffffffffffffffffffffffff1602179055508281600101601e6101000a81548160ff021916908360ff16021790555050505050505050565b6000826138128584613946565b1490509392505050565b600084848460405160200161383393929190614e11565b604051602081830303815290604052805190602001209050816001600083815260200190815260200160002060000160126101000a81548168ffffffffffffffffff021916908368ffffffffffffffffff16021790555060008585846040516020016138a193929190614e11565b604051602081830303815290604052805190602001209050836001600083815260200190815260200160002060000160096101000a81548168ffffffffffffffffff021916908368ffffffffffffffffff160217905550505050505050565b60008160ff1642844360405160200161391b93929190615acf565b6040516020818303038152906040528051906020012060001c61393e919061492c565b905092915050565b60008082905060005b84518110156139915761397c8286838151811061396f5761396e614dc1565b5b602002602001015161399c565b9150808061398990615b0c565b91505061394f565b508091505092915050565b60008183106139b4576139af82846139c7565b6139bf565b6139be83836139c7565b5b905092915050565b600082600052816020526040600020905092915050565b6040518060800160405280600068ffffffffffffffffff168152602001600068ffffffffffffffffff168152602001600068ffffffffffffffffff168152602001600064ffffffffff1681525090565b6000604051905090565b600080fd5b600080fd5b600073ffffffffffffffffffffffffffffffffffffffff82169050919050565b6000613a6d82613a42565b9050919050565b613a7d81613a62565b8114613a8857600080fd5b50565b600081359050613a9a81613a74565b92915050565b6000819050919050565b613ab381613aa0565b8114613abe57600080fd5b50565b600081359050613ad081613aaa565b92915050565b600061ffff82169050919050565b613aed81613ad6565b8114613af857600080fd5b50565b600081359050613b0a81613ae4565b92915050565b60008060008060808587031215613b2a57613b29613a38565b5b6000613b3887828801613a8b565b9450506020613b4987828801613a8b565b9350506040613b5a87828801613ac1565b9250506060613b6b87828801613afb565b91505092959194509250565b6000819050919050565b613b8a81613b77565b82525050565b613b9981613aa0565b82525050565b6000604082019050613bb46000830185613b81565b613bc16020830184613b90565b9392505050565b6000819050919050565b6000613bed613be8613be384613a42565b613bc8565b613a42565b9050919050565b6000613bff82613bd2565b9050919050565b6000613c1182613bf4565b9050919050565b613c2181613c06565b82525050565b6000602082019050613c3c6000830184613c18565b92915050565b613c4b81613b77565b8114613c5657600080fd5b50565b600081359050613c6881613c42565b92915050565b600060208284031215613c8457613c83613a38565b5b6000613c9284828501613c59565b91505092915050565b60006bffffffffffffffffffffffff82169050919050565b613cbc81613c9b565b82525050565b6000602082019050613cd76000830184613cb3565b92915050565b60006fffffffffffffffffffffffffffffffff82169050919050565b613d0281613cdd565b82525050565b6000602082019050613d1d6000830184613cf9565b92915050565b600080fd5b600080fd5b6000601f19601f8301169050919050565b7f4e487b7100000000000000000000000000000000000000000000000000000000600052604160045260246000fd5b613d7682613d2d565b810181811067ffffffffffffffff82111715613d9557613d94613d3e565b5b80604052505050565b6000613da8613a2e565b9050613db48282613d6d565b919050565b600067ffffffffffffffff821115613dd457613dd3613d3e565b5b613ddd82613d2d565b9050602081019050919050565b82818337600083830152505050565b6000613e0c613e0784613db9565b613d9e565b905082815260208101848484011115613e2857613e27613d28565b5b613e33848285613dea565b509392505050565b600082601f830112613e5057613e4f613d23565b5b8135613e60848260208601613df9565b91505092915050565b600060ff82169050919050565b613e7f81613e69565b8114613e8a57600080fd5b50565b600081359050613e9c81613e76565b92915050565b600080600080600060a08688031215613ebe57613ebd613a38565b5b6000613ecc88828901613a8b565b9550506020613edd88828901613ac1565b945050604086013567ffffffffffffffff811115613efe57613efd613a3d565b5b613f0a88828901613e3b565b9350506060613f1b88828901613e8d565b9250506080613f2c88828901613afb565b9150509295509295909350565b60008060408385031215613f5057613f4f613a38565b5b6000613f5e85828601613c59565b9250506020613f6f85828601613afb565b9150509250929050565b600081519050919050565b600082825260208201905092915050565b6000819050602082019050919050565b600068ffffffffffffffffff82169050919050565b613fc381613fa5565b82525050565b600064ffffffffff82169050919050565b613fe381613fc9565b82525050565b608082016000820151613fff6000850182613fba565b5060208201516140126020850182613fba565b5060408201516140256040850182613fba565b5060608201516140386060850182613fda565b50505050565b600061404a8383613fe9565b60808301905092915050565b6000602082019050919050565b600061406e82613f79565b6140788185613f84565b935061408383613f95565b8060005b838110156140b457815161409b888261403e565b97506140a683614056565b925050600181019050614087565b5085935050505092915050565b600060208201905081810360008301526140db8184614063565b905092915050565b6140ec81613c9b565b81146140f757600080fd5b50565b600081359050614109816140e3565b92915050565b600080600080600080600060e0888a03121561412e5761412d613a38565b5b600061413c8a828b01613a8b565b975050602061414d8a828b01613a8b565b965050604061415e8a828b01613ac1565b955050606088013567ffffffffffffffff81111561417f5761417e613a3d565b5b61418b8a828b01613e3b565b945050608061419c8a828b01613e8d565b93505060a06141ad8a828b01613afb565b92505060c06141be8a828b016140fa565b91505092959891949750929550565b6141d681613ad6565b82525050565b6141e581613e69565b82525050565b600060c0820190506142006000830189613b90565b61420d60208301886141cd565b61421a6040830187613cf9565b6142276060830186613cb3565b61423460808301856141dc565b61424160a08301846141dc565b979650505050505050565b600060208201905061426160008301846141dc565b92915050565b600060208201905061427c6000830184613b90565b92915050565b60008115159050919050565b61429781614282565b82525050565b60006020820190506142b2600083018461428e565b92915050565b600080604083850312156142cf576142ce613a38565b5b60006142dd85828601613c59565b92505060206142ee85828601613e8d565b9150509250929050565b600080600080600080600080610100898b03121561431957614318613a38565b5b60006143278b828c01613a8b565b98505060206143388b828c01613a8b565b97505060406143498b828c01613ac1565b965050606089013567ffffffffffffffff81111561436a57614369613a3d565b5b6143768b828c01613e3b565b95505060806143878b828c01613e8d565b94505060a06143988b828c01613afb565b93505060c06143a98b828c016140fa565b92505060e06143ba8b828c01613e8d565b9150509295985092959890939650565b60006020820190506143df60008301846141cd565b92915050565b600067ffffffffffffffff821115614400576143ff613d3e565b5b602082029050602081019050919050565b600080fd5b6000614429614424846143e5565b613d9e565b9050808382526020820190506020840283018581111561444c5761444b614411565b5b835b8181101561447557806144618882613c59565b84526020840193505060208101905061444e565b5050509392505050565b600082601f83011261449457614493613d23565b5b81356144a4848260208601614416565b91505092915050565b600080600080600080600060e0888a0312156144cc576144cb613a38565b5b60006144da8a828b01613a8b565b97505060206144eb8a828b01613ac1565b965050604088013567ffffffffffffffff81111561450c5761450b613a3d565b5b6145188a828b01613e3b565b95505060606145298a828b01613e8d565b945050608061453a8a828b01613afb565b93505060a088013567ffffffffffffffff81111561455b5761455a613a3d565b5b6145678a828b0161447f565b92505060c06145788a828b01613c59565b91505092959891949750929550565b600082825260208201905092915050565b7f4964656e7469747953746f726167650000000000000000000000000000000000600082015250565b60006145ce600f83614587565b91506145d982614598565b602082019050919050565b600060208201905081810360008301526145fd816145c1565b9050919050565b60008151905061461381613a74565b92915050565b60006020828403121561462f5761462e613a38565b5b600061463d84828501614604565b91505092915050565b61464f81613a62565b82525050565b600060208201905061466a6000830184614646565b92915050565b61467981613fa5565b811461468457600080fd5b50565b60008151905061469681614670565b92915050565b6000602082840312156146b2576146b1613a38565b5b60006146c084828501614687565b91505092915050565b6000815190506146d881613c42565b92915050565b6000602082840312156146f4576146f3613a38565b5b6000614702848285016146c9565b91505092915050565b7f417373657274696f6e5265676973747279000000000000000000000000000000600082015250565b6000614741601183614587565b915061474c8261470b565b602082019050919050565b6000602082019050818103600083015261477081614734565b9050919050565b600060208201905061478c6000830184613b81565b92915050565b6000815190506147a1816140e3565b92915050565b6000602082840312156147bd576147bc613a38565b5b60006147cb84828501614792565b91505092915050565b60008160f01b9050919050565b60006147ec826147d4565b9050919050565b6148046147ff82613ad6565b6147e1565b82525050565b60008160b81b9050919050565b60006148228261480a565b9050919050565b61483a61483582613fa5565b614817565b82525050565b600061484c82856147f3565b60028201915061485c8284614829565b6009820191508190509392505050565b600081519050919050565b600081905092915050565b60005b838110156148a0578082015181840152602081019050614885565b838111156148af576000848401525b50505050565b60006148c08261486c565b6148ca8185614877565b93506148da818560208601614882565b80840191505092915050565b60006148f282846148b5565b915081905092915050565b7f4e487b7100000000000000000000000000000000000000000000000000000000600052601260045260246000fd5b600061493782613aa0565b915061494283613aa0565b925082614952576149516148fd565b5b828206905092915050565b7f436f6d6d69742077696e646f7720697320636c6f736564210000000000000000600082015250565b6000614993601883614587565b915061499e8261495d565b602082019050919050565b600060208201905081810360008301526149c281614986565b9050919050565b7f50726f66696c6553746f72616765000000000000000000000000000000000000600082015250565b60006149ff600e83614587565b9150614a0a826149c9565b602082019050919050565b60006020820190508181036000830152614a2e816149f2565b9050919050565b7f53636f72696e6750726f78790000000000000000000000000000000000000000600082015250565b6000614a6b600c83614587565b9150614a7682614a35565b602082019050919050565b60006020820190508181036000830152614a9a81614a5e565b9050919050565b614aaa81613fa5565b82525050565b6000602082019050614ac56000830184614aa1565b92915050565b6000614ade614ad984613db9565b613d9e565b905082815260208101848484011115614afa57614af9613d28565b5b614b05848285614882565b509392505050565b600082601f830112614b2257614b21613d23565b5b8151614b32848260208601614acb565b91505092915050565b600060208284031215614b5157614b50613a38565b5b600082015167ffffffffffffffff811115614b6f57614b6e613a3d565b5b614b7b84828501614b0d565b91505092915050565b600082825260208201905092915050565b6000614ba08261486c565b614baa8185614b84565b9350614bba818560208601614882565b614bc381613d2d565b840191505092915050565b600060a082019050614be360008301886141dc565b614bf060208301876141dc565b8181036040830152614c028186614b95565b90508181036060830152614c168185614b95565b9050614c256080830184613cb3565b9695505050505050565b614c3881613fc9565b8114614c4357600080fd5b50565b600081519050614c5581614c2f565b92915050565b600060208284031215614c7157614c70613a38565b5b6000614c7f84828501614c46565b91505092915050565b614c9181613fc9565b82525050565b60006080820190508181036000830152614cb18187614b95565b9050614cc060208301866141dc565b8181036040830152614cd28185614b95565b9050614ce16060830184614c88565b95945050505050565b7f506172616d657465727353746f72616765000000000000000000000000000000600082015250565b6000614d20601183614587565b9150614d2b82614cea565b602082019050919050565b60006020820190508181036000830152614d4f81614d13565b9050919050565b600065ffffffffffff82169050919050565b614d7181614d56565b8114614d7c57600080fd5b50565b600081519050614d8e81614d68565b92915050565b600060208284031215614daa57614da9613a38565b5b6000614db884828501614d7f565b91505092915050565b7f4e487b7100000000000000000000000000000000000000000000000000000000600052603260045260246000fd5b6000819050919050565b614e0b614e0682613b77565b614df0565b82525050565b6000614e1d8286614dfa565b602082019150614e2d82856147f3565b600282019150614e3d8284614829565b600982019150819050949350505050565b7f4e487b7100000000000000000000000000000000000000000000000000000000600052601160045260246000fd5b6000614e8882613e69565b915060ff8203614e9b57614e9a614e4e565b5b600182019050919050565b614eaf81614282565b8114614eba57600080fd5b50565b600081519050614ecc81614ea6565b92915050565b600060208284031215614ee857614ee7613a38565b5b6000614ef684828501614ebd565b91505092915050565b7f46756e6374696f6e2063616e206f6e6c792062652063616c6c6564206279204160008201527f73736574205479706520436f6e74726163747300000000000000000000000000602082015250565b6000614f5b603383614587565b9150614f6682614eff565b604082019050919050565b60006020820190508181036000830152614f8a81614f4e565b9050919050565b7f546f6b656e000000000000000000000000000000000000000000000000000000600082015250565b6000614fc7600583614587565b9150614fd282614f91565b602082019050919050565b60006020820190508181036000830152614ff681614fba565b9050919050565b600061500882613c9b565b915061501383613c9b565b92508282101561502657615025614e4e565b5b828203905092915050565b60006040820190506150466000830185614646565b6150536020830184614646565b9392505050565b60008151905061506981613aaa565b92915050565b60006020828403121561508557615084613a38565b5b60006150938482850161505a565b91505092915050565b7f53656e64657220616c6c6f77616e6365206d75737420626520657175616c207460008201527f6f206f7220686967686572207468616e2063686f73656e20616d6f756e742100602082015250565b60006150f8603f83614587565b91506151038261509c565b604082019050919050565b60006020820190508181036000830152615127816150eb565b9050919050565b7f53656e6465722062616c616e6365206d75737420626520657175616c20746f2060008201527f6f7220686967686572207468616e2063686f73656e20616d6f756e7421000000602082015250565b600061518a603d83614587565b91506151958261512e565b604082019050919050565b600060208201905081810360008301526151b98161517d565b9050919050565b60006151db6151d66151d184613c9b565b613bc8565b613aa0565b9050919050565b6151eb816151c0565b82525050565b60006060820190506152066000830186614646565b6152136020830185614646565b61522060408301846151e2565b949350505050565b600060808201905081810360008301526152428187614b95565b905061525160208301866141dc565b61525e60408301856141cd565b61526b6060830184613cb3565b95945050505050565b600061527f82613cdd565b915061528a83613cdd565b9250816fffffffffffffffffffffffffffffffff04831182151516156152b3576152b2614e4e565b5b828202905092915050565b60006152c982613cdd565b91506152d483613cdd565b9250826152e4576152e36148fd565b5b828204905092915050565b6000815190506152fe81613e76565b92915050565b60006020828403121561531a57615319613a38565b5b6000615328848285016152ef565b91505092915050565b600061533c82613aa0565b915061534783613aa0565b9250827fffffffffffffffffffffffffffffffffffffffffffffffffffffffffffffffff0382111561537c5761537b614e4e565b5b828201905092915050565b600060c08201905081810360008301526153a18189614b95565b90506153b060208301886141dc565b6153bd6040830187613b90565b6153ca60608301866141cd565b6153d76080830185613cf9565b6153e460a0830184613cb3565b979650505050505050565b6000815190506153fe81613ae4565b92915050565b60006020828403121561541a57615419613a38565b5b6000615428848285016153ef565b91505092915050565b7f50726f6f662077696e646f77206973206f70656e000000000000000000000000600082015250565b6000615467601483614587565b915061547282615431565b602082019050919050565b600060208201905081810360008301526154968161545a565b9050919050565b7f596f75277665206265656e20616c726561647920726577617264656420696e2060008201527f746869732065706f636800000000000000000000000000000000000000000000602082015250565b60006154f9602a83614587565b91506155048261549d565b604082019050919050565b60006020820190508181036000830152615528816154ec565b9050919050565b600063ffffffff82169050919050565b6155488161552f565b811461555357600080fd5b50565b6000815190506155658161553f565b92915050565b60006020828403121561558157615580613a38565b5b600061558f84828501615556565b91505092915050565b7f596f7572206e6f6465206861736e2774206265656e206177617264656420666f60008201527f72207468697320617373657420696e20746869732065706f6368000000000000602082015250565b60006155f4603a83614587565b91506155ff82615598565b604082019050919050565b60006020820190508181036000830152615623816155e7565b9050919050565b6000819050919050565b61564561564082613aa0565b61562a565b82525050565b60006156578285614dfa565b6020820191506156678284615634565b6020820191508190509392505050565b7f526f6f74206861736820646f65736e2774206d61746368000000000000000000600082015250565b60006156ad601783614587565b91506156b882615677565b602082019050919050565b600060208201905081810360008301526156dc816156a0565b9050919050565b60006156ee8261552f565b91506156f98361552f565b92508282101561570c5761570b614e4e565b5b828203905092915050565b600061572282613ad6565b915061572d83613ad6565b9250828210156157405761573f614e4e565b5b828203905092915050565b600061575682613ad6565b915061576183613ad6565b92508261ffff0382111561577857615777614e4e565b5b828201905092915050565b600061578e82613c9b565b915061579983613c9b565b9250826157a9576157a86148fd565b5b828204905092915050565b60006040820190506157c96000830185614646565b6157d660208301846151e2565b9392505050565b60006157e882613c9b565b91506157f383613c9b565b9250826bffffffffffffffffffffffff0382111561581457615813614e4e565b5b828201905092915050565b60006040820190506158346000830185614aa1565b6158416020830184613cb3565b9392505050565b60006158538261552f565b915061585e8361552f565b92508263ffffffff0382111561587757615876614e4e565b5b828201905092915050565b7f48617368696e6750726f78790000000000000000000000000000000000000000600082015250565b60006158b8600c83614587565b91506158c382615882565b602082019050919050565b600060208201905081810360008301526158e7816158ab565b9050919050565b60008160601b9050919050565b6000615906826158ee565b9050919050565b6000615918826158fb565b9050919050565b61593061592b82613a62565b61590d565b82525050565b6000615942828661591f565b6014820191506159528285615634565b60208201915061596282846148b5565b9150819050949350505050565b600060408201905061598460008301856141dc565b81810360208301526159968184614b95565b90509392505050565b7f4e6f64652072616e6b2073686f756c64206265203c2052300000000000000000600082015250565b60006159d5601883614587565b91506159e08261599f565b602082019050919050565b60006020820190508181036000830152615a04816159c8565b9050919050565b615a1481613cdd565b8114615a1f57600080fd5b50565b600081519050615a3181615a0b565b92915050565b600060208284031215615a4d57615a4c613a38565b5b6000615a5b84828501615a22565b91505092915050565b6000615a6f82613e69565b9150615a7a83613e69565b925082821015615a8d57615a8c614e4e565b5b828203905092915050565b6000615aa382613e69565b9150615aae83613e69565b92508260ff03821115615ac457615ac3614e4e565b5b828201905092915050565b6000615adb8286615634565b602082019150615aeb828561591f565b601482019150615afb8284615634565b602082019150819050949350505050565b6000615b1782613aa0565b91507fffffffffffffffffffffffffffffffffffffffffffffffffffffffffffffffff8203615b4957615b48614e4e565b5b60018201905091905056fea2646970667358221220e869e160ab31a4cf90a503be9f825d790e3b2f443e79c0f8fb5e93ad16855add64736f6c634300080e0033",
  "immutableReferences": {},
  "source": "// SPDX-License-Identifier: MIT\n\npragma solidity ^0.8.0;\n\nimport { AbstractAsset } from \"../assets/AbstractAsset.sol\";\nimport { AssertionRegistry } from \"../AssertionRegistry.sol\";\nimport { HashingProxy } from \"../HashingProxy.sol\";\nimport { Hub } from \"../Hub.sol\";\nimport { IdentityStorage } from \"./IdentityStorage.sol\";\nimport { IERC20 } from \"@openzeppelin/contracts/token/ERC20/IERC20.sol\";\nimport { MerkleProof } from \"@openzeppelin/contracts/utils/cryptography/MerkleProof.sol\";\nimport { ParametersStorage } from \"./ParametersStorage.sol\";\nimport { ProfileStorage } from \"./ProfileStorage.sol\";\nimport { ScoringProxy } from \"../ScoringProxy.sol\";\nimport { ShardingTable } from \"../ShardingTable.sol\";\n\ncontract ServiceAgreementStorage {\n    event ServiceAgreementCreated(\n        address indexed assetContract,\n        uint256 indexed tokenId,\n        bytes keyword,\n        uint8 hashFunctionId,\n        uint256 startTime,\n        uint16 epochsNumber,\n        uint128 epochLength,\n        uint96 tokenAmount\n    );\n    event ServiceAgreementUpdated(\n        address indexed assetContract,\n        uint256 indexed tokenId,\n        bytes keyword,\n        uint8 hashFunctionId,\n        uint16 epochsNumber,\n        uint96 tokenAmount\n    );\n    event CommitSubmitted(\n        address indexed assetContract,\n        uint256 indexed tokenId,\n        bytes keyword,\n        uint8 hashFunctionId,\n        uint72 indexed identityId,\n        bytes nodeId,\n        uint40 score\n    );\n    event ProofSubmitted(\n        address indexed assetContract,\n        uint256 indexed tokenId,\n        bytes keyword,\n        uint8 hashFunctionId,\n        uint72 indexed identityId,\n        bytes nodeId\n    );\n\n\n    struct CommitSubmission {\n        uint72 identityId;\n        uint72 prevIdentityId;\n        uint72 nextIdentityId;\n        uint40 score;\n    }\n\n    struct ServiceAgreement {\n        uint256 startTime;\n        uint16 epochsNumber;\n        uint128 epochLength;\n        uint96 tokenAmount;\n        uint8 scoreFunctionId;\n        uint8 proofWindowOffsetPerc;  // Perc == In % of the epoch\n        mapping(uint16 => bytes32) epochSubmissionHeads;  // epoch => headCommitId\n        mapping(uint16 => uint32) rewardedNodes;\n    }\n\n    Hub public hub;\n\n    // CommitId [keccak256(agreementId + epoch + identityId)] => CommitSubmission\n    mapping(bytes32 => CommitSubmission) commitSubmissions;\n\n    // hash(asset type contract + tokenId + key) -> ServiceAgreement\n    mapping(bytes32 => ServiceAgreement) serviceAgreements;\n\n    constructor (address hubAddress) {\n        require(hubAddress != address(0));\n        hub = Hub(hubAddress);\n    }\n\n    modifier onlyAssetContracts() {\n        require (\n            hub.isAssetContract(msg.sender),\n            \"Function can only be called by Asset Type Contracts\"\n        );\n        _;\n    }\n\n    function getAgreementData(bytes32 agreementId)\n        public\n        view\n        returns (uint256, uint16, uint128, uint96, uint8, uint8)\n    {\n        return (\n            serviceAgreements[agreementId].startTime,\n            serviceAgreements[agreementId].epochsNumber,\n            serviceAgreements[agreementId].epochLength,\n            serviceAgreements[agreementId].tokenAmount,\n            serviceAgreements[agreementId].scoreFunctionId,\n            serviceAgreements[agreementId].proofWindowOffsetPerc\n        );\n    }\n\n    function getAgreementStartTime(bytes32 agreementId) public view returns (uint256) {\n        return serviceAgreements[agreementId].startTime;\n    }\n\n    function getAgreementEpochsNumber(bytes32 agreementId) public view returns (uint16) {\n        return serviceAgreements[agreementId].epochsNumber;\n    }\n\n    function getAgreementEpochLength(bytes32 agreementId) public view returns (uint128) {\n        return serviceAgreements[agreementId].epochLength;\n    }\n\n    function getAgreementTokenAmount(bytes32 agreementId) public view returns (uint96) {\n        return serviceAgreements[agreementId].tokenAmount;\n    }\n\n    function getAgreementScoreFunctionId(bytes32 agreementId) public view returns (uint8) {\n        return serviceAgreements[agreementId].scoreFunctionId;\n    }\n\n    function getAgreementProofWindowOffsetPerc(bytes32 agreementId) public view returns (uint8) {\n        return serviceAgreements[agreementId].proofWindowOffsetPerc;\n    }\n\n    function createServiceAgreement(\n        address operationalWallet,\n        address assetContract,\n        uint256 tokenId,\n        bytes memory keyword,\n        uint8 hashFunctionId,\n        uint16 epochsNumber,\n        uint96 tokenAmount,\n        uint8 scoreFunctionId\n    )\n        public\n        onlyAssetContracts\n    {\n        bytes32 agreementId = _generateAgreementId(assetContract, tokenId, keyword, hashFunctionId);\n\n        _createServiceAgreementObject(operationalWallet, agreementId, epochsNumber, tokenAmount, scoreFunctionId);\n\n        IERC20 tokenContract = IERC20(hub.getContractAddress(\"Token\"));\n        require(\n            tokenContract.allowance(operationalWallet, address(this)) >= tokenAmount,\n            \"Sender allowance must be equal to or higher than chosen amount!\"\n        );\n        require(\n            tokenContract.balanceOf(operationalWallet) >= tokenAmount,\n            \"Sender balance must be equal to or higher than chosen amount!\"\n        );\n\n        tokenContract.transferFrom(operationalWallet, address(this), tokenAmount);\n\n        emit ServiceAgreementCreated(\n            assetContract,\n            tokenId,\n            keyword,\n            hashFunctionId,\n            serviceAgreements[agreementId].startTime,\n            serviceAgreements[agreementId].epochsNumber,\n            serviceAgreements[agreementId].epochLength,\n            serviceAgreements[agreementId].tokenAmount\n        );\n    }\n\n    // TODO: Split into smaller functions\n    function updateServiceAgreement(\n        address operationalWallet,\n        address assetContract,\n        uint256 tokenId,\n        bytes memory keyword,\n        uint8 hashFunctionId,\n        uint16 epochsNumber,\n        uint96 tokenAmount\n    )\n        public\n        onlyAssetContracts\n    {\n        bytes32 agreementId = _generateAgreementId(assetContract, tokenId, keyword, hashFunctionId);\n\n        // require(serviceAgreements[agreementId]);\n\n        uint96 actualBalance = serviceAgreements[agreementId].tokenAmount;\n\n        serviceAgreements[agreementId].epochsNumber = epochsNumber;\n        serviceAgreements[agreementId].tokenAmount = tokenAmount;\n\n        IERC20 tokenContract = IERC20(hub.getContractAddress(\"Token\"));\n        require(\n            tokenContract.allowance(operationalWallet, address(this)) >= (actualBalance - tokenAmount),\n            \"Sender allowance must be equal to or higher than chosen amount!\"\n        );\n        require(\n            tokenContract.balanceOf(operationalWallet) >= (actualBalance - tokenAmount),\n            \"Sender balance must be equal to or higher than chosen amount!\"\n        );\n\n        tokenContract.transferFrom(operationalWallet, address(this), actualBalance - tokenAmount);\n\n        emit ServiceAgreementUpdated(\n            assetContract,\n            tokenId,\n            keyword,\n            hashFunctionId,\n            serviceAgreements[agreementId].epochsNumber,\n            serviceAgreements[agreementId].tokenAmount\n        );\n    }\n\n    function isCommitWindowOpen(bytes32 agreementId, uint16 epoch)\n        public\n        view\n        returns (bool)\n    {\n        uint256 timeNow = block.timestamp;\n        ServiceAgreement storage agreement = serviceAgreements[agreementId];\n\n        ParametersStorage parametersStorage = ParametersStorage(hub.getContractAddress(\"ParametersStorage\"));\n\n        return (\n            timeNow > (agreement.startTime + agreement.epochLength * epoch) &&\n            timeNow < (agreement.startTime + agreement.epochLength * epoch + parametersStorage.commitWindowDuration())\n        );\n    }\n\n    function getCommitSubmissions(bytes32 agreementId, uint16 epoch)\n        public\n        view\n        returns (CommitSubmission[] memory)\n    {\n        ParametersStorage parametersStorage = ParametersStorage(hub.getContractAddress(\"ParametersStorage\"));\n        CommitSubmission[] memory epochCommits = new CommitSubmission[](parametersStorage.R2());\n\n        bytes32 epochSubmissionsHead = serviceAgreements[agreementId].epochSubmissionHeads[epoch];\n\n        uint8 submissionsIdx = 0;\n\n        epochCommits[submissionsIdx] = commitSubmissions[epochSubmissionsHead];\n\n        uint72 nextIdentityId = commitSubmissions[epochSubmissionsHead].nextIdentityId;\n        while(nextIdentityId != 0) {\n            bytes32 commitId = keccak256(abi.encodePacked(agreementId, epoch, nextIdentityId));\n\n            CommitSubmission memory commit = commitSubmissions[commitId];\n            submissionsIdx++;\n            epochCommits[submissionsIdx] = commit;\n\n            nextIdentityId = commit.nextIdentityId;\n        }\n\n        return epochCommits;\n    }\n\n    function submitCommit(\n        address assetContract,\n        uint256 tokenId,\n        bytes memory keyword,\n        uint8 hashFunctionId,\n        uint16 epoch\n    )\n        public\n    {\n        bytes32 agreementId = _generateAgreementId(assetContract, tokenId, keyword, hashFunctionId);\n\n        require(isCommitWindowOpen(agreementId, epoch), \"Commit window is closed!\");\n\n        IdentityStorage identityStorage = IdentityStorage(hub.getContractAddress(\"IdentityStorage\"));\n        uint72 identityId = identityStorage.getIdentityId(msg.sender);\n\n        ProfileStorage profileStorage = ProfileStorage(hub.getContractAddress(\"ProfileStorage\"));\n\n        ScoringProxy scoringProxy = ScoringProxy(hub.getContractAddress(\"ScoringProxy\"));\n        uint40 score = scoringProxy.callScoreFunction(\n            serviceAgreements[agreementId].scoreFunctionId,\n            hashFunctionId,\n            profileStorage.getNodeId(identityId),\n            keyword,\n            profileStorage.getStake(identityId)\n        );\n\n        _insertCommit(\n            agreementId,\n            epoch,\n            CommitSubmission({\n                identityId: identityId,\n                prevIdentityId: 0,\n                nextIdentityId: 0,\n                score: score\n            })\n        );\n\n        emit CommitSubmitted(\n            assetContract,\n            tokenId,\n            keyword,\n            hashFunctionId,\n            identityId,\n            profileStorage.getNodeId(identityId),\n            score\n        );\n    }\n\n    function isProofWindowOpen(bytes32 agreementId, uint16 epoch)\n        public\n        view\n        returns (bool)\n    {\n        uint256 timeNow = block.timestamp;\n        ServiceAgreement storage agreement = serviceAgreements[agreementId];\n\n        ParametersStorage parametersStorage = ParametersStorage(hub.getContractAddress(\"ParametersStorage\"));\n\n        uint256 proofWindowOffset = agreement.epochLength * agreement.epochsNumber * agreement.proofWindowOffsetPerc / 100;\n        uint256 proofWindowDuration = (\n            agreement.epochLength * agreement.epochsNumber * parametersStorage.proofWindowDurationPerc() / 100\n        );\n\n        return (\n            timeNow > (agreement.startTime + agreement.epochLength * epoch + proofWindowOffset) &&\n            timeNow < (agreement.startTime + agreement.epochLength * epoch + proofWindowOffset + proofWindowDuration)\n        );\n    }\n\n    function getChallenge(address sender, address assetContract, uint256 tokenId, uint16 epoch)\n        public\n        view\n        returns (bytes32, uint256)\n    {\n        IdentityStorage identityStorage = IdentityStorage(hub.getContractAddress(\"IdentityStorage\"));\n        uint72 identityId = identityStorage.getIdentityId(sender);\n\n        AbstractAsset generalAssetInterface = AbstractAsset(assetContract);\n        bytes32 assertionId = generalAssetInterface.getLatestAssertion(tokenId);\n\n        AssertionRegistry assertionRegistry = AssertionRegistry(hub.getContractAddress(\"AssertionRegistry\"));\n        uint256 assertionChunksNumber = assertionRegistry.getChunksNumber(assertionId);\n\n        // blockchash() function only works for last 256 blocks (25.6 min window in case of 6s block time)\n        // TODO: figure out how to achieve randomness\n        return (\n            assertionId,\n            uint256(\n                sha256(abi.encodePacked(epoch, identityId))\n            ) % assertionChunksNumber\n        );\n    }\n\n    function sendProof(\n        address assetContract,\n        uint256 tokenId,\n        bytes memory keyword,\n        uint8 hashFunctionId,\n        uint16 epoch,\n        bytes32[] memory proof,\n        bytes32 chunkHash\n    )\n        public\n    {\n        bytes32 agreementId = _generateAgreementId(assetContract, tokenId, keyword, hashFunctionId);\n        require(!isProofWindowOpen(agreementId, epoch), \"Proof window is open\");\n\n        uint72 identityId = IdentityStorage(hub.getContractAddress(\"IdentityStorage\")).getIdentityId(msg.sender);\n\n        require(\n            commitSubmissions[keccak256(abi.encodePacked(agreementId, epoch, identityId))].score != 0,\n            \"You've been already rewarded in this epoch\"\n        );\n\n        bytes32 nextCommitId = serviceAgreements[agreementId].epochSubmissionHeads[epoch];\n\n        ParametersStorage parametersStorage = ParametersStorage(hub.getContractAddress(\"ParametersStorage\"));\n\n        uint8 i = 0;\n        while ((identityId != commitSubmissions[nextCommitId].identityId) && i < parametersStorage.R0()) {\n            nextCommitId = keccak256(\n                abi.encodePacked(agreementId, epoch, commitSubmissions[nextCommitId].nextIdentityId)\n            );\n            i++;\n        }\n\n        require(i < parametersStorage.R0(), \"Your node hasn't been awarded for this asset in this epoch\");\n\n        bytes32 merkleRoot;\n        uint256 challenge;\n        (merkleRoot, challenge) = getChallenge(msg.sender, assetContract, tokenId, epoch);\n\n        require(\n            MerkleProof.verify(\n                proof,\n                merkleRoot,\n                keccak256(abi.encodePacked(chunkHash, challenge))\n            ),\n            \"Root hash doesn't match\"\n        );\n\n        ProfileStorage profileStorage = ProfileStorage(hub.getContractAddress(\"ProfileStorage\"));\n\n        // emit ProofSubmitted(\n        //     assetContract,\n        //     tokenId,\n        //     keyword,\n        //     hashFunctionId,\n        //     identityId,\n        //     profileStorage.getNodeId(identityId)\n        // );\n\n        uint96 reward = (\n            serviceAgreements[agreementId].tokenAmount /\n            (serviceAgreements[agreementId].epochsNumber - epoch + 1) /\n            (parametersStorage.R0() - serviceAgreements[agreementId].rewardedNodes[epoch])\n        );\n\n        IERC20(hub.getContractAddress(\"Token\")).transfer(address(profileStorage), reward);\n\n        profileStorage.setReward(identityId, profileStorage.getReward(identityId) + reward);\n\n        serviceAgreements[agreementId].tokenAmount -= reward;\n        serviceAgreements[agreementId].rewardedNodes[epoch] += 1;\n\n        // To make sure that node already received reward\n        commitSubmissions[keccak256(abi.encodePacked(agreementId, epoch, identityId))].score = 0;\n    }\n\n    function setScoringFunction(bytes32 agreementId, uint8 newScoreFunctionId)\n        public\n        onlyAssetContracts\n    {\n        serviceAgreements[agreementId].scoreFunctionId = newScoreFunctionId;\n    }        \n\n    function _createServiceAgreementObject(\n        address operationalWallet,\n        bytes32 agreementId,\n        uint16 epochsNumber,\n        uint96 tokenAmount,\n        uint8 scoreFunctionId\n    )\n        private\n    {\n        ParametersStorage parametersStorage = ParametersStorage(hub.getContractAddress(\"ParametersStorage\"));\n\n        ServiceAgreement storage agreement = serviceAgreements[agreementId];\n        agreement.startTime = block.timestamp;\n        agreement.epochsNumber = epochsNumber;\n        agreement.epochLength = parametersStorage.epochLength();\n        agreement.proofWindowOffsetPerc = parametersStorage.minProofWindowOffsetPerc() + _generatePseudorandomUint8(\n            operationalWallet,\n            parametersStorage.maxProofWindowOffsetPerc() - parametersStorage.minProofWindowOffsetPerc() + 1\n        );\n        agreement.tokenAmount = tokenAmount;\n        agreement.scoreFunctionId = scoreFunctionId;\n    }\n\n    function _insertCommit(bytes32 agreementId, uint16 epoch, CommitSubmission memory commit)\n        private\n    {\n        bytes32 commitId = keccak256(abi.encodePacked(agreementId, epoch, commit.identityId));\n        bytes32 refCommitId = serviceAgreements[agreementId].epochSubmissionHeads[epoch];\n\n        ParametersStorage parametersStorage = ParametersStorage(hub.getContractAddress(\"ParametersStorage\"));\n\n        uint8 i = 0;\n        while (\n            (commit.score < commitSubmissions[refCommitId].score) &&\n            (commitSubmissions[refCommitId].nextIdentityId != 0) &&\n            (i < parametersStorage.R0())\n        ) {\n            refCommitId = keccak256(\n                abi.encodePacked(agreementId, epoch, commitSubmissions[refCommitId].nextIdentityId)\n            );\n            i++;\n        }\n\n        require(i < parametersStorage.R0(), \"Node rank should be < R0\");\n\n        commitSubmissions[commitId] = commit;\n        CommitSubmission memory refCommit = commitSubmissions[refCommitId];\n\n        // Replacing head\n        if (i == 0) {\n            serviceAgreements[agreementId].epochSubmissionHeads[epoch] = commitId;\n\n            // [] - empty pointer\n            // [OH] - old head\n            // [NH] - new head\n            // [C] - commit\n            // (NL) - new link\n            // [] <-> [NH] <-(NL)-> [OH] <-> [C] ... [C] <-> []\n            _link_commits(agreementId, epoch, commit.identityId, refCommit.identityId);\n        } else if (commit.score > refCommit.score) {\n            // [H] - head\n            // [RC] - reference commit\n            // [RC-] - commit before reference commit\n            // [RC+] - commit after reference commit\n            // [NC] - new commit\n            // [] <-> [H] <-> [X] ... [RC-] <-> [RC] <-> [RC+] ... [C] <-> []\n            // [] <-> [H] <-> [X] ... [RC-] <-(NL)-> [NC] <-(NL)-> [RC] <-> [RC+] ... [C] <-> []\n            _link_commits(agreementId, epoch, refCommit.prevIdentityId, commit.identityId);\n            _link_commits(agreementId, epoch, commit.identityId, refCommit.identityId);\n        } else {\n            // [] <-> [H] <-> [RC] <-> []\n            // [] <-> [H] <-> [RC] <-(NL)-> [NC] <-> []\n            _link_commits(agreementId, epoch, refCommit.identityId, commit.identityId);\n        }\n    }\n\n    function _link_commits(bytes32 agreementId, uint16 epoch, uint72 leftIdentityId, uint72 rightIdentityId)\n        private\n    {\n        bytes32 leftCommitId = keccak256(abi.encodePacked(agreementId, epoch, leftIdentityId));\n        commitSubmissions[leftCommitId].nextIdentityId = rightIdentityId;\n\n        bytes32 rightCommitId = keccak256(abi.encodePacked(agreementId, epoch, rightIdentityId));\n        commitSubmissions[rightCommitId].prevIdentityId = leftIdentityId;\n    }\n\n    function _generateAgreementId(address assetContract, uint256 tokenId, bytes memory keyword, uint8 hashFunctionId)\n        private\n        returns (bytes32)\n    {\n        HashingProxy hashingProxy = HashingProxy(hub.getContractAddress(\"HashingProxy\"));\n        return hashingProxy.callHashFunction(hashFunctionId, abi.encodePacked(assetContract, tokenId, keyword));\n    }\n\n    function _generatePseudorandomUint8(address sender, uint8 limit)\n        private\n        view\n        returns (uint8)\n    {\n        // TODO: Test type conversion\n        return uint8(uint256(keccak256(abi.encodePacked(block.timestamp, sender, block.number))) % limit);\n    }\n}\n",
  "sourcePath": "/Users/max/IdeaProjects/dkg-evm-module/contracts/storage/ServiceAgreementStorage.sol",
  "compiler": {
    "name": "solc",
    "version": "0.8.14+commit.80d49f37.Emscripten.clang"
  },
  "schemaVersion": "3.4.10",
  "updatedAt": "2022-11-24T16:20:27.515Z",
  "devdoc": {
    "kind": "dev",
    "methods": {},
    "version": 1
  },
  "userdoc": {
    "kind": "user",
    "methods": {},
    "version": 1
  }
}