{
  "contractName": "ServiceAgreementStorageV1",
  "abi": [
    {
      "inputs": [
        {
          "internalType": "address",
          "name": "hubAddress",
          "type": "address"
        }
      ],
      "stateMutability": "nonpayable",
      "type": "constructor"
    },
    {
      "inputs": [],
      "name": "hub",
      "outputs": [
        {
          "internalType": "contract Hub",
          "name": "",
          "type": "address"
        }
      ],
      "stateMutability": "view",
      "type": "function"
    },
    {
      "inputs": [],
      "name": "tokenContract",
      "outputs": [
        {
          "internalType": "contract IERC20",
          "name": "",
          "type": "address"
        }
      ],
      "stateMutability": "view",
      "type": "function"
    },
    {
      "inputs": [
        {
          "internalType": "bytes32",
          "name": "agreementId",
          "type": "bytes32"
        },
        {
          "internalType": "uint16",
          "name": "epochsNumber",
          "type": "uint16"
        },
        {
          "internalType": "uint128",
          "name": "epochLength",
          "type": "uint128"
        },
        {
          "internalType": "uint96",
          "name": "tokenAmount",
          "type": "uint96"
        },
        {
          "internalType": "uint8",
          "name": "scoreFunctionId",
          "type": "uint8"
        },
        {
          "internalType": "uint8",
          "name": "proofWindowOffsetPerc",
          "type": "uint8"
        }
      ],
      "name": "createServiceAgreementObject",
      "outputs": [],
      "stateMutability": "nonpayable",
      "type": "function"
    },
    {
      "inputs": [
        {
          "internalType": "bytes32",
          "name": "agreementId",
          "type": "bytes32"
        }
      ],
      "name": "getAgreementData",
      "outputs": [
        {
          "internalType": "uint256",
          "name": "",
          "type": "uint256"
        },
        {
          "internalType": "uint16",
          "name": "",
          "type": "uint16"
        },
        {
          "internalType": "uint128",
          "name": "",
          "type": "uint128"
        },
        {
          "internalType": "uint96",
          "name": "",
          "type": "uint96"
        },
        {
          "internalType": "uint8[2]",
          "name": "",
          "type": "uint8[2]"
        }
      ],
      "stateMutability": "view",
      "type": "function"
    },
    {
      "inputs": [
        {
          "internalType": "bytes32",
          "name": "agreementId",
          "type": "bytes32"
        }
      ],
      "name": "getAgreementStartTime",
      "outputs": [
        {
          "internalType": "uint256",
          "name": "",
          "type": "uint256"
        }
      ],
      "stateMutability": "view",
      "type": "function"
    },
    {
      "inputs": [
        {
          "internalType": "bytes32",
          "name": "agreementId",
          "type": "bytes32"
        },
        {
          "internalType": "uint256",
          "name": "startTime",
          "type": "uint256"
        }
      ],
      "name": "setAgreementStartTime",
      "outputs": [],
      "stateMutability": "nonpayable",
      "type": "function"
    },
    {
      "inputs": [
        {
          "internalType": "bytes32",
          "name": "agreementId",
          "type": "bytes32"
        }
      ],
      "name": "getAgreementEpochsNumber",
      "outputs": [
        {
          "internalType": "uint16",
          "name": "",
          "type": "uint16"
        }
      ],
      "stateMutability": "view",
      "type": "function"
    },
    {
      "inputs": [
        {
          "internalType": "bytes32",
          "name": "agreementId",
          "type": "bytes32"
        },
        {
          "internalType": "uint16",
          "name": "epochsNumber",
          "type": "uint16"
        }
      ],
      "name": "setAgreementEpochsNumber",
      "outputs": [],
      "stateMutability": "nonpayable",
      "type": "function"
    },
    {
      "inputs": [
        {
          "internalType": "bytes32",
          "name": "agreementId",
          "type": "bytes32"
        }
      ],
      "name": "getAgreementEpochLength",
      "outputs": [
        {
          "internalType": "uint128",
          "name": "",
          "type": "uint128"
        }
      ],
      "stateMutability": "view",
      "type": "function"
    },
    {
      "inputs": [
        {
          "internalType": "bytes32",
          "name": "agreementId",
          "type": "bytes32"
        },
        {
          "internalType": "uint128",
          "name": "epochLength",
          "type": "uint128"
        }
      ],
      "name": "setAgreementEpochLength",
      "outputs": [],
      "stateMutability": "nonpayable",
      "type": "function"
    },
    {
      "inputs": [
        {
          "internalType": "bytes32",
          "name": "agreementId",
          "type": "bytes32"
        }
      ],
      "name": "getAgreementTokenAmount",
      "outputs": [
        {
          "internalType": "uint96",
          "name": "",
          "type": "uint96"
        }
      ],
      "stateMutability": "view",
      "type": "function"
    },
    {
      "inputs": [
        {
          "internalType": "bytes32",
          "name": "agreementId",
          "type": "bytes32"
        },
        {
          "internalType": "uint96",
          "name": "tokenAmount",
          "type": "uint96"
        }
      ],
      "name": "setAgreementTokenAmount",
      "outputs": [],
      "stateMutability": "nonpayable",
      "type": "function"
    },
    {
      "inputs": [
        {
          "internalType": "bytes32",
          "name": "agreementId",
          "type": "bytes32"
        }
      ],
      "name": "getAgreementScoreFunctionId",
      "outputs": [
        {
          "internalType": "uint8",
          "name": "",
          "type": "uint8"
        }
      ],
      "stateMutability": "view",
      "type": "function"
    },
    {
      "inputs": [
        {
          "internalType": "bytes32",
          "name": "agreementId",
          "type": "bytes32"
        },
        {
          "internalType": "uint8",
          "name": "newScoreFunctionId",
          "type": "uint8"
        }
      ],
      "name": "setAgreementScoreFunctionId",
      "outputs": [],
      "stateMutability": "nonpayable",
      "type": "function"
    },
    {
      "inputs": [
        {
          "internalType": "bytes32",
          "name": "agreementId",
          "type": "bytes32"
        }
      ],
      "name": "getAgreementProofWindowOffsetPerc",
      "outputs": [
        {
          "internalType": "uint8",
          "name": "",
          "type": "uint8"
        }
      ],
      "stateMutability": "view",
      "type": "function"
    },
    {
      "inputs": [
        {
          "internalType": "bytes32",
          "name": "agreementId",
          "type": "bytes32"
        },
        {
          "internalType": "uint8",
          "name": "proofWindowOffsetPerc",
          "type": "uint8"
        }
      ],
      "name": "setAgreementProofWindowOffsetPerc",
      "outputs": [],
      "stateMutability": "nonpayable",
      "type": "function"
    },
    {
      "inputs": [
        {
          "internalType": "bytes32",
          "name": "agreementId",
          "type": "bytes32"
        },
        {
          "internalType": "uint16",
          "name": "epoch",
          "type": "uint16"
        }
      ],
      "name": "getAgreementEpochSubmissionHead",
      "outputs": [
        {
          "internalType": "bytes32",
          "name": "",
          "type": "bytes32"
        }
      ],
      "stateMutability": "view",
      "type": "function"
    },
    {
      "inputs": [
        {
          "internalType": "bytes32",
          "name": "agreementId",
          "type": "bytes32"
        },
        {
          "internalType": "uint16",
          "name": "epoch",
          "type": "uint16"
        },
        {
          "internalType": "bytes32",
          "name": "headCommitId",
          "type": "bytes32"
        }
      ],
      "name": "setAgreementEpochSubmissionHead",
      "outputs": [],
      "stateMutability": "nonpayable",
      "type": "function"
    },
    {
      "inputs": [
        {
          "internalType": "bytes32",
          "name": "agreementId",
          "type": "bytes32"
        },
        {
          "internalType": "uint16",
          "name": "epoch",
          "type": "uint16"
        }
      ],
      "name": "incrementAgreementRewardedNodesNumber",
      "outputs": [],
      "stateMutability": "nonpayable",
      "type": "function"
    },
    {
      "inputs": [
        {
          "internalType": "bytes32",
          "name": "agreementId",
          "type": "bytes32"
        },
        {
          "internalType": "uint16",
          "name": "epoch",
          "type": "uint16"
        }
      ],
      "name": "decrementAgreementRewardedNodesNumber",
      "outputs": [],
      "stateMutability": "nonpayable",
      "type": "function"
    },
    {
      "inputs": [
        {
          "internalType": "bytes32",
          "name": "agreementId",
          "type": "bytes32"
        },
        {
          "internalType": "uint16",
          "name": "epoch",
          "type": "uint16"
        }
      ],
      "name": "getAgreementRewardedNodesNumber",
      "outputs": [
        {
          "internalType": "uint32",
          "name": "",
          "type": "uint32"
        }
      ],
      "stateMutability": "view",
      "type": "function"
    },
    {
      "inputs": [
        {
          "internalType": "bytes32",
          "name": "agreementId",
          "type": "bytes32"
        },
        {
          "internalType": "uint16",
          "name": "epoch",
          "type": "uint16"
        },
        {
          "internalType": "uint32",
          "name": "rewardedNodesNumber",
          "type": "uint32"
        }
      ],
      "name": "setAgreementRewardedNodesNumber",
      "outputs": [],
      "stateMutability": "nonpayable",
      "type": "function"
    },
    {
      "inputs": [
        {
          "internalType": "bytes32",
          "name": "agreementId",
          "type": "bytes32"
        }
      ],
      "name": "serviceAgreementExists",
      "outputs": [
        {
          "internalType": "bool",
          "name": "",
          "type": "bool"
        }
      ],
      "stateMutability": "view",
      "type": "function"
    },
    {
      "inputs": [
        {
          "internalType": "bytes32",
          "name": "commitId",
          "type": "bytes32"
        },
        {
          "internalType": "uint72",
          "name": "identityId",
          "type": "uint72"
        },
        {
          "internalType": "uint72",
          "name": "prevIdentityId",
          "type": "uint72"
        },
        {
          "internalType": "uint72",
          "name": "nextIdentityId",
          "type": "uint72"
        },
        {
          "internalType": "uint40",
          "name": "score",
          "type": "uint40"
        }
      ],
      "name": "createCommitSubmissionObject",
      "outputs": [],
      "stateMutability": "nonpayable",
      "type": "function"
    },
    {
      "inputs": [
        {
          "internalType": "bytes32",
          "name": "commitId",
          "type": "bytes32"
        }
      ],
      "name": "getCommitSubmission",
      "outputs": [
        {
          "components": [
            {
              "internalType": "uint72",
              "name": "identityId",
              "type": "uint72"
            },
            {
              "internalType": "uint72",
              "name": "prevIdentityId",
              "type": "uint72"
            },
            {
              "internalType": "uint72",
              "name": "nextIdentityId",
              "type": "uint72"
            },
            {
              "internalType": "uint40",
              "name": "score",
              "type": "uint40"
            }
          ],
          "internalType": "struct ServiceAgreementStructsV1.CommitSubmission",
          "name": "",
          "type": "tuple"
        }
      ],
      "stateMutability": "view",
      "type": "function"
    },
    {
      "inputs": [
        {
          "internalType": "bytes32",
          "name": "commitId",
          "type": "bytes32"
        }
      ],
      "name": "getCommitSubmissionsIdentityId",
      "outputs": [
        {
          "internalType": "uint72",
          "name": "",
          "type": "uint72"
        }
      ],
      "stateMutability": "view",
      "type": "function"
    },
    {
      "inputs": [
        {
          "internalType": "bytes32",
          "name": "commitId",
          "type": "bytes32"
        },
        {
          "internalType": "uint72",
          "name": "identityId",
          "type": "uint72"
        }
      ],
      "name": "setCommitSubmissionIdentityId",
      "outputs": [],
      "stateMutability": "nonpayable",
      "type": "function"
    },
    {
      "inputs": [
        {
          "internalType": "bytes32",
          "name": "commitId",
          "type": "bytes32"
        }
      ],
      "name": "getCommitSubmissionPrevIdentityId",
      "outputs": [
        {
          "internalType": "uint72",
          "name": "",
          "type": "uint72"
        }
      ],
      "stateMutability": "view",
      "type": "function"
    },
    {
      "inputs": [
        {
          "internalType": "bytes32",
          "name": "commitId",
          "type": "bytes32"
        },
        {
          "internalType": "uint72",
          "name": "prevIdentityId",
          "type": "uint72"
        }
      ],
      "name": "setCommitSubmissionPrevIdentityId",
      "outputs": [],
      "stateMutability": "nonpayable",
      "type": "function"
    },
    {
      "inputs": [
        {
          "internalType": "bytes32",
          "name": "commitId",
          "type": "bytes32"
        }
      ],
      "name": "getCommitSubmissionNextIdentityId",
      "outputs": [
        {
          "internalType": "uint72",
          "name": "",
          "type": "uint72"
        }
      ],
      "stateMutability": "view",
      "type": "function"
    },
    {
      "inputs": [
        {
          "internalType": "bytes32",
          "name": "commitId",
          "type": "bytes32"
        },
        {
          "internalType": "uint72",
          "name": "nextIdentityId",
          "type": "uint72"
        }
      ],
      "name": "setCommitSubmissionNextIdentityId",
      "outputs": [],
      "stateMutability": "nonpayable",
      "type": "function"
    },
    {
      "inputs": [
        {
          "internalType": "bytes32",
          "name": "commitId",
          "type": "bytes32"
        }
      ],
      "name": "getCommitSubmissionScore",
      "outputs": [
        {
          "internalType": "uint40",
          "name": "",
          "type": "uint40"
        }
      ],
      "stateMutability": "view",
      "type": "function"
    },
    {
      "inputs": [
        {
          "internalType": "bytes32",
          "name": "commitId",
          "type": "bytes32"
        },
        {
          "internalType": "uint40",
          "name": "score",
          "type": "uint40"
        }
      ],
      "name": "setCommitSubmissionScore",
      "outputs": [],
      "stateMutability": "nonpayable",
      "type": "function"
    },
    {
      "inputs": [
        {
          "internalType": "bytes32",
          "name": "commitId",
          "type": "bytes32"
        }
      ],
      "name": "commitSubmissionExists",
      "outputs": [
        {
          "internalType": "bool",
          "name": "",
          "type": "bool"
        }
      ],
      "stateMutability": "view",
      "type": "function"
    },
    {
      "inputs": [
        {
          "internalType": "address",
          "name": "receiver",
          "type": "address"
        },
        {
          "internalType": "uint96",
          "name": "rewardAmount",
          "type": "uint96"
        }
      ],
      "name": "transferReward",
      "outputs": [],
      "stateMutability": "nonpayable",
      "type": "function"
    }
  ],
  "bytecode": "0x60806040523480156200001157600080fd5b5060405162001a0738038062001a07833981016040819052620000349162000103565b6001600160a01b0381166200004857600080fd5b600080546001600160a01b0319166001600160a01b038316908117909155604051630110ceef60e21b81526020600482015260056024820152642a37b5b2b760d91b60448201526304433bbc90606401602060405180830381865afa158015620000b6573d6000803e3d6000fd5b505050506040513d601f19601f82011682018060405250810190620000dc919062000103565b600180546001600160a01b0319166001600160a01b03929092169190911790555062000135565b6000602082840312156200011657600080fd5b81516001600160a01b03811681146200012e57600080fd5b9392505050565b6118c280620001456000396000f3fe608060405234801561001057600080fd5b50600436106102415760003560e01c806388f7a9b411610145578063beca40f3116100bd578063cf57ca2f1161008c578063d2692b3111610071578063d2692b31146108b3578063e184b9e8146108c6578063e54b26ff146108d957600080fd5b8063cf57ca2f14610866578063d1a640c71461087957600080fd5b8063beca40f3146107cb578063c45d1749146107de578063cb327c7d1461080b578063ce60dc611461081e57600080fd5b8063a631489611610114578063ac9d7cf4116100f9578063ac9d7cf414610728578063b2ffa99714610777578063b67b6e1e1461078a57600080fd5b8063a631489614610702578063ac64112e1461071557600080fd5b806388f7a9b4146105695780638a0f01b51461067457806399149f77146106875780639c70b3c0146106e257600080fd5b8063484a47e7116101d85780635c6c1fef116101a75780636ff015ae1161018c5780636ff015ae1461050057806386e0cc881461052457806388f6df561461055657600080fd5b80635c6c1fef146104915780636441a276146104ed57600080fd5b8063484a47e7146103bf5780634c72fefc1461041b57806355a373d61461042e578063572943f71461044e57600080fd5b80633c96f02b116102145780633c96f02b146102fd5780633d631716146103355780634089a17d146103485780634750b9f4146103ac57600080fd5b8063038fed731461024657806308feb20b1461025b5780630f3a549d146102a5578063365a86fc146102b8575b600080fd5b6102596102543660046113fc565b6108ec565b005b61028661026936600461141e565b60009081526002602052604090205468ffffffffffffffffff1690565b60405168ffffffffffffffffff90911681526020015b60405180910390f35b6102596102b336600461144e565b610906565b6000546102d89073ffffffffffffffffffffffffffffffffffffffff1681565b60405173ffffffffffffffffffffffffffffffffffffffff909116815260200161029c565b61028661030b36600461141e565b6000908152600260205260409020546901000000000000000000900468ffffffffffffffffff1690565b61025961034336600461148f565b610952565b61038f61035636600461141e565b600090815260036020526040902060010154720100000000000000000000000000000000000090046bffffffffffffffffffffffff1690565b6040516bffffffffffffffffffffffff909116815260200161029c565b6102596103ba3660046114cb565b6109b9565b6103fa6103cd36600461141e565b6000908152600360205260409020600101546201000090046fffffffffffffffffffffffffffffffff1690565b6040516fffffffffffffffffffffffffffffffff909116815260200161029c565b61025961042936600461153b565b610a09565b6001546102d89073ffffffffffffffffffffffffffffffffffffffff1681565b61048361045c36600461144e565b600082815260036020908152604080832061ffff8516845260020190915290205492915050565b60405190815260200161029c565b6104d761049f36600461141e565b6000908152600260205260409020547b01000000000000000000000000000000000000000000000000000000900464ffffffffff1690565b60405164ffffffffff909116815260200161029c565b6102596104fb3660046115a8565b610b59565b61051361050e36600461141e565b610bc7565b60405161029c9594939291906115cb565b61054661053236600461141e565b600090815260036020526040902054151590565b604051901515815260200161029c565b610259610564366004611643565b610c9d565b61062b61057736600461141e565b604080516080810182526000808252602082018190529181018290526060810191909152506000908152600260209081526040918290208251608081018452905468ffffffffffffffffff80821683526901000000000000000000820481169383019390935272010000000000000000000000000000000000008104909216928101929092527b01000000000000000000000000000000000000000000000000000000900464ffffffffff16606082015290565b60408051825168ffffffffffffffffff908116825260208085015182169083015283830151169181019190915260609182015164ffffffffff169181019190915260800161029c565b6102596106823660046114cb565b610cca565b6106d061069536600461141e565b6000908152600360205260409020600101547f0100000000000000000000000000000000000000000000000000000000000000900460ff1690565b60405160ff909116815260200161029c565b6104836106f036600461141e565b60009081526003602052604090205490565b610259610710366004611678565b610d31565b6102596107233660046115a8565b610d92565b61076261073636600461144e565b600082815260036020818152604080842061ffff86168552909201905290205463ffffffff1692915050565b60405163ffffffff909116815260200161029c565b61025961078536600461144e565b610e00565b61028661079836600461141e565b6000908152600260205260409020547201000000000000000000000000000000000000900468ffffffffffffffffff1690565b6102596107d936600461144e565b610e5c565b6105466107ec36600461141e565b60009081526002602052604090205468ffffffffffffffffff16151590565b61025961081936600461169b565b610e95565b6106d061082c36600461141e565b6000908152600360205260409020600101547e01000000000000000000000000000000000000000000000000000000000000900460ff1690565b6102596108743660046116e4565b610ef3565b6108a061088736600461141e565b60009081526003602052604090206001015461ffff1690565b60405161ffff909116815260200161029c565b6102596108c1366004611767565b611009565b6102596108d43660046114cb565b6110c0565b6102596108e7366004611793565b61111e565b6108f461118b565b60009182526003602052604090912055565b61090e61118b565b60009182526003602052604090912060010180547fffffffffffffffffffffffffffffffffffffffffffffffffffffffffffff00001661ffff909216919091179055565b61095a61118b565b600091825260026020526040909120805464ffffffffff9092167b01000000000000000000000000000000000000000000000000000000027affffffffffffffffffffffffffffffffffffffffffffffffffffff909216919091179055565b6109c161118b565b60009182526002602052604090912080547fffffffffffffffffffffffffffffffffffffffffffffff0000000000000000001668ffffffffffffffffff909216919091179055565b610a1161118b565b600095865260036020526040909520428155600101805460ff9687167f0100000000000000000000000000000000000000000000000000000000000000027effffffffffffffffffffffffffffffffffffffffffffffffffffffffffffff979093167e01000000000000000000000000000000000000000000000000000000000000027fff00ffffffffffffffffffffffffffffffffffffffffffffffffffffffffffff6bffffffffffffffffffffffff909516720100000000000000000000000000000000000002949094167fff00000000000000000000000000ffffffffffffffffffffffffffffffffffff6fffffffffffffffffffffffffffffffff90961662010000027fffffffffffffffffffffffffffff00000000000000000000000000000000000090921661ffff909716969096171793909316939093171792909216179055565b610b6161118b565b600091825260036020526040909120600101805460ff9092167e01000000000000000000000000000000000000000000000000000000000000027fff00ffffffffffffffffffffffffffffffffffffffffffffffffffffffffffff909216919091179055565b600080600080610bd56113de565b5050506000838152600360208181526040808420805460019091015482518084019093527e01000000000000000000000000000000000000000000000000000000000000810460ff9081168452989095529282527f01000000000000000000000000000000000000000000000000000000000000008404909616908601529461ffff8216946201000083046fffffffffffffffffffffffffffffffff16945072010000000000000000000000000000000000009092046bffffffffffffffffffffffff169250565b610ca561118b565b600092835260036020908152604080852061ffff909416855260029093019052912055565b610cd261118b565b600091825260026020526040909120805468ffffffffffffffffff9092167201000000000000000000000000000000000000027fffffffffff000000000000000000ffffffffffffffffffffffffffffffffffff909216919091179055565b610d3961118b565b60009182526003602052604090912060010180546fffffffffffffffffffffffffffffffff90921662010000027fffffffffffffffffffffffffffff00000000000000000000000000000000ffff909216919091179055565b610d9a61118b565b600091825260036020526040909120600101805460ff9092167f0100000000000000000000000000000000000000000000000000000000000000027effffffffffffffffffffffffffffffffffffffffffffffffffffffffffffff909216919091179055565b610e0861118b565b600082815260036020818152604080842061ffff8616855290920190528120805463ffffffff1691610e39836117e5565b91906101000a81548163ffffffff021916908363ffffffff160217905550505050565b610e6461118b565b600082815260036020818152604080842061ffff8616855290920190528120805463ffffffff1691610e3983611823565b610e9d61118b565b600092835260036020818152604080862061ffff959095168652939091019052912080547fffffffffffffffffffffffffffffffffffffffffffffffffffffffff000000001663ffffffff909216919091179055565b610efb61118b565b6040805160808101825268ffffffffffffffffff9586168152938516602080860191825293861685830190815264ffffffffff938416606087019081526000988952600290955291909620935184549651915193519086167fffffffffffffffffffffffffffff000000000000000000000000000000000000909716969096176901000000000000000000918616919091021771ffffffffffffffffffffffffffffffffffff16720100000000000000000000000000000000000092909416919091027affffffffffffffffffffffffffffffffffffffffffffffffffffff16929092177b010000000000000000000000000000000000000000000000000000009390921692909202179055565b61101161128a565b6001546040517fa9059cbb00000000000000000000000000000000000000000000000000000000815273ffffffffffffffffffffffffffffffffffffffff84811660048301526bffffffffffffffffffffffff841660248301529091169063a9059cbb906044016020604051808303816000875af1158015611097573d6000803e3d6000fd5b505050506040513d601f19601f820116820180604052508101906110bb9190611846565b505050565b6110c861118b565b600091825260026020526040909120805468ffffffffffffffffff9092166901000000000000000000027fffffffffffffffffffffffffffff000000000000000000ffffffffffffffffff909216919091179055565b61112661118b565b60009182526003602052604090912060010180546bffffffffffffffffffffffff9092167201000000000000000000000000000000000000027fffff000000000000000000000000ffffffffffffffffffffffffffffffffffff909216919091179055565b6000546040517f1627905500000000000000000000000000000000000000000000000000000000815233600482015273ffffffffffffffffffffffffffffffffffffffff90911690631627905590602401602060405180830381865afa1580156111f9573d6000803e3d6000fd5b505050506040513d601f19601f8201168201806040525081019061121d9190611846565b611288576040517f08c379a000000000000000000000000000000000000000000000000000000000815260206004820181905260248201527f466e2063616e206f6e6c792062652063616c6c6564206279207468652068756260448201526064015b60405180910390fd5b565b6000546040517f04433bbc00000000000000000000000000000000000000000000000000000000815260206004820152600760248201527f5374616b696e6700000000000000000000000000000000000000000000000000604482015273ffffffffffffffffffffffffffffffffffffffff909116906304433bbc90606401602060405180830381865afa158015611326573d6000803e3d6000fd5b505050506040513d601f19601f8201168201806040525081019061134a919061186f565b73ffffffffffffffffffffffffffffffffffffffff163373ffffffffffffffffffffffffffffffffffffffff1614611288576040517f08c379a000000000000000000000000000000000000000000000000000000000815260206004820181905260248201527f466e2063616e206f6e6c792062652063616c6c6564206279207374616b696e67604482015260640161127f565b60405180604001604052806002906020820280368337509192915050565b6000806040838503121561140f57600080fd5b50508035926020909101359150565b60006020828403121561143057600080fd5b5035919050565b803561ffff8116811461144957600080fd5b919050565b6000806040838503121561146157600080fd5b8235915061147160208401611437565b90509250929050565b803564ffffffffff8116811461144957600080fd5b600080604083850312156114a257600080fd5b823591506114716020840161147a565b803568ffffffffffffffffff8116811461144957600080fd5b600080604083850312156114de57600080fd5b82359150611471602084016114b2565b80356fffffffffffffffffffffffffffffffff8116811461144957600080fd5b80356bffffffffffffffffffffffff8116811461144957600080fd5b803560ff8116811461144957600080fd5b60008060008060008060c0878903121561155457600080fd5b8635955061156460208801611437565b9450611572604088016114ee565b93506115806060880161150e565b925061158e6080880161152a565b915061159c60a0880161152a565b90509295509295509295565b600080604083850312156115bb57600080fd5b823591506114716020840161152a565b600060c082019050868252602061ffff8716818401526fffffffffffffffffffffffffffffffff861660408401526bffffffffffffffffffffffff85166060840152608083018460005b600281101561163557815160ff1683529183019190830190600101611615565b505050509695505050505050565b60008060006060848603121561165857600080fd5b8335925061166860208501611437565b9150604084013590509250925092565b6000806040838503121561168b57600080fd5b82359150611471602084016114ee565b6000806000606084860312156116b057600080fd5b833592506116c060208501611437565b9150604084013563ffffffff811681146116d957600080fd5b809150509250925092565b600080600080600060a086880312156116fc57600080fd5b8535945061170c602087016114b2565b935061171a604087016114b2565b9250611728606087016114b2565b91506117366080870161147a565b90509295509295909350565b73ffffffffffffffffffffffffffffffffffffffff8116811461176457600080fd5b50565b6000806040838503121561177a57600080fd5b823561178581611742565b91506114716020840161150e565b600080604083850312156117a657600080fd5b823591506114716020840161150e565b7f4e487b7100000000000000000000000000000000000000000000000000000000600052601160045260246000fd5b600063ffffffff8216806117fb576117fb6117b6565b7fffffffffffffffffffffffffffffffffffffffffffffffffffffffffffffffff0192915050565b600063ffffffff80831681810361183c5761183c6117b6565b6001019392505050565b60006020828403121561185857600080fd5b8151801515811461186857600080fd5b9392505050565b60006020828403121561188157600080fd5b81516118688161174256fea2646970667358221220bb0d1ab7ae6eab6781b72e75cc05b59cac2ce4babf8b591e39cfe91635bd991164736f6c634300080e0033",
  "immutableReferences": {},
  "source": "// SPDX-License-Identifier: MIT\n\npragma solidity ^0.8.0;\n\nimport { Hub } from \"../Hub.sol\";\nimport { ServiceAgreementStructsV1 } from \"../structs/ServiceAgreementStructsV1.sol\";\nimport { IERC20 } from \"@openzeppelin/contracts/token/ERC20/IERC20.sol\";\n\ncontract ServiceAgreementStorageV1 {\n\n    Hub public hub;\n    IERC20 public tokenContract;\n\n    // CommitId [keccak256(agreementId + epoch + identityId)] => CommitSubmission\n    mapping(bytes32 => ServiceAgreementStructsV1.CommitSubmission) commitSubmissions;\n\n    // hash(asset type contract + tokenId + key) -> ServiceAgreement\n    mapping(bytes32 => ServiceAgreementStructsV1.ServiceAgreement) serviceAgreements;\n\n    constructor (address hubAddress) {\n        require(hubAddress != address(0));\n\n        hub = Hub(hubAddress);\n        tokenContract = IERC20(hub.getContractAddress(\"Token\"));\n    }\n\n    modifier onlyContracts() {\n        _checkHub();\n        _;\n    }\n\n    modifier onlyStakingContract() {\n        _checkStakingContract();\n        _;\n    }\n\n    function createServiceAgreementObject(\n        bytes32 agreementId,\n        uint16 epochsNumber,\n        uint128 epochLength,\n        uint96 tokenAmount,\n        uint8 scoreFunctionId,\n        uint8 proofWindowOffsetPerc\n    )\n        external\n        onlyContracts\n    {\n        ServiceAgreementStructsV1.ServiceAgreement storage agreement = serviceAgreements[agreementId];\n        agreement.startTime = block.timestamp;\n        agreement.epochsNumber = epochsNumber;\n        agreement.epochLength = epochLength;\n        agreement.tokenAmount = tokenAmount;\n        agreement.scoreFunctionId = scoreFunctionId;\n        agreement.proofWindowOffsetPerc = proofWindowOffsetPerc;\n    }\n\n    function getAgreementData(bytes32 agreementId)\n        external\n        view\n        returns (uint256, uint16, uint128, uint96, uint8[2] memory)\n    {\n        return (\n            serviceAgreements[agreementId].startTime,\n            serviceAgreements[agreementId].epochsNumber,\n            serviceAgreements[agreementId].epochLength,\n            serviceAgreements[agreementId].tokenAmount,\n            [\n                serviceAgreements[agreementId].scoreFunctionId,\n                serviceAgreements[agreementId].proofWindowOffsetPerc\n            ]\n        );\n    }\n\n    function getAgreementStartTime(bytes32 agreementId) external view returns (uint256) {\n        return serviceAgreements[agreementId].startTime;\n    }\n\n    function setAgreementStartTime(bytes32 agreementId, uint256 startTime) external onlyContracts {\n        serviceAgreements[agreementId].startTime = startTime;\n    }\n\n    function getAgreementEpochsNumber(bytes32 agreementId) external view returns (uint16) {\n        return serviceAgreements[agreementId].epochsNumber;\n    }\n\n    function setAgreementEpochsNumber(bytes32 agreementId, uint16 epochsNumber) external onlyContracts {\n        serviceAgreements[agreementId].epochsNumber = epochsNumber;\n    }\n\n    function getAgreementEpochLength(bytes32 agreementId) external view returns (uint128) {\n        return serviceAgreements[agreementId].epochLength;\n    }\n\n    function setAgreementEpochLength(bytes32 agreementId, uint128 epochLength) external onlyContracts {\n        serviceAgreements[agreementId].epochLength = epochLength;\n    }\n\n    function getAgreementTokenAmount(bytes32 agreementId) external view returns (uint96) {\n        return serviceAgreements[agreementId].tokenAmount;\n    }\n\n    function setAgreementTokenAmount(bytes32 agreementId, uint96 tokenAmount) external onlyContracts {\n        serviceAgreements[agreementId].tokenAmount = tokenAmount;\n    }\n\n    function getAgreementScoreFunctionId(bytes32 agreementId) external view returns (uint8) {\n        return serviceAgreements[agreementId].scoreFunctionId;\n    }\n\n    function setAgreementScoreFunctionId(bytes32 agreementId, uint8 newScoreFunctionId) external onlyContracts {\n        serviceAgreements[agreementId].scoreFunctionId = newScoreFunctionId;\n    }\n\n    function getAgreementProofWindowOffsetPerc(bytes32 agreementId) external view returns (uint8) {\n        return serviceAgreements[agreementId].proofWindowOffsetPerc;\n    }\n\n    function setAgreementProofWindowOffsetPerc(bytes32 agreementId, uint8 proofWindowOffsetPerc)\n        external\n        onlyContracts\n    {\n        serviceAgreements[agreementId].proofWindowOffsetPerc = proofWindowOffsetPerc;\n    }\n\n    function getAgreementEpochSubmissionHead(bytes32 agreementId, uint16 epoch) external view returns (bytes32) {\n        return serviceAgreements[agreementId].epochSubmissionHeads[epoch];\n    }\n\n    function setAgreementEpochSubmissionHead(bytes32 agreementId, uint16 epoch, bytes32 headCommitId)\n        external\n        onlyContracts\n    {\n        serviceAgreements[agreementId].epochSubmissionHeads[epoch] = headCommitId;\n    }\n\n    function incrementAgreementRewardedNodesNumber(bytes32 agreementId, uint16 epoch) external onlyContracts {\n        serviceAgreements[agreementId].rewardedNodesNumber[epoch]++;\n    }\n\n    function decrementAgreementRewardedNodesNumber(bytes32 agreementId, uint16 epoch) external onlyContracts {\n        serviceAgreements[agreementId].rewardedNodesNumber[epoch]--;\n    }\n\n    function getAgreementRewardedNodesNumber(bytes32 agreementId, uint16 epoch) external view returns (uint32) {\n        return serviceAgreements[agreementId].rewardedNodesNumber[epoch];\n    }\n\n    function setAgreementRewardedNodesNumber(bytes32 agreementId, uint16 epoch, uint32 rewardedNodesNumber)\n        external\n        onlyContracts\n    {\n        serviceAgreements[agreementId].rewardedNodesNumber[epoch] = rewardedNodesNumber;\n    }\n\n    function serviceAgreementExists(bytes32 agreementId) external view returns (bool) {\n        return serviceAgreements[agreementId].startTime != 0;\n    }\n\n    function createCommitSubmissionObject(\n        bytes32 commitId,\n        uint72 identityId,\n        uint72 prevIdentityId,\n        uint72 nextIdentityId,\n        uint40 score\n    )\n        external\n        onlyContracts\n    {\n        commitSubmissions[commitId] = ServiceAgreementStructsV1.CommitSubmission({\n            identityId: identityId,\n            prevIdentityId: prevIdentityId,\n            nextIdentityId: nextIdentityId,\n            score: score\n        });\n    }\n\n    function getCommitSubmission(bytes32 commitId)\n        external\n        view\n        returns (ServiceAgreementStructsV1.CommitSubmission memory)\n    {\n        return commitSubmissions[commitId];\n    }\n\n    function getCommitSubmissionsIdentityId(bytes32 commitId) external view returns (uint72) {\n        return commitSubmissions[commitId].identityId;\n    }\n\n    function setCommitSubmissionIdentityId(bytes32 commitId, uint72 identityId) external onlyContracts {\n        commitSubmissions[commitId].identityId = identityId;\n    }\n\n    function getCommitSubmissionPrevIdentityId(bytes32 commitId) external view returns (uint72) {\n        return commitSubmissions[commitId].prevIdentityId;\n    }\n\n    function setCommitSubmissionPrevIdentityId(bytes32 commitId, uint72 prevIdentityId) external onlyContracts {\n        commitSubmissions[commitId].prevIdentityId = prevIdentityId;\n    }\n\n    function getCommitSubmissionNextIdentityId(bytes32 commitId) external view returns (uint72) {\n        return commitSubmissions[commitId].nextIdentityId;\n    }\n\n    function setCommitSubmissionNextIdentityId(bytes32 commitId, uint72 nextIdentityId) external onlyContracts {\n        commitSubmissions[commitId].nextIdentityId = nextIdentityId;\n    }\n\n    function getCommitSubmissionScore(bytes32 commitId) external view returns (uint40) {\n        return commitSubmissions[commitId].score;\n    }\n\n    function setCommitSubmissionScore(bytes32 commitId, uint40 score) external onlyContracts {\n        commitSubmissions[commitId].score = score;\n    }\n\n    function commitSubmissionExists(bytes32 commitId) external view returns (bool) {\n        return commitSubmissions[commitId].identityId != 0;\n    }\n\n    function transferReward(address receiver, uint96 rewardAmount) external onlyStakingContract {\n        tokenContract.transfer(receiver, rewardAmount);\n    }\n\n    function _checkHub() internal view virtual {\n        require(hub.isContract(msg.sender), \"Fn can only be called by the hub\");\n    }\n\n    function _checkStakingContract() internal view virtual {\n        require(msg.sender == hub.getContractAddress(\"Staking\"), \"Fn can only be called by staking\");\n    }\n\n}\n",
  "sourcePath": "/Users/waving/Desktop/OriginTrail/dkg-evm-module/contracts/storage/ServiceAgreementStorageV1.sol",
  "compiler": {
    "name": "solc",
    "version": "0.8.14+commit.80d49f37.Emscripten.clang"
  },
  "schemaVersion": "3.4.10",
  "updatedAt": "2022-12-03T16:02:16.615Z",
  "devdoc": {
    "kind": "dev",
    "methods": {},
    "version": 1
  },
  "userdoc": {
    "kind": "user",
    "methods": {},
    "version": 1
  }
}