{
  "contractName": "ServiceAgreementV1",
  "abi": [
    {
      "inputs": [
        {
          "internalType": "address",
          "name": "hubAddress",
          "type": "address"
        }
      ],
      "stateMutability": "nonpayable",
      "type": "constructor"
    },
    {
      "anonymous": false,
      "inputs": [
        {
          "indexed": true,
          "internalType": "address",
          "name": "assetContract",
          "type": "address"
        },
        {
          "indexed": true,
          "internalType": "uint256",
          "name": "tokenId",
          "type": "uint256"
        },
        {
          "indexed": false,
          "internalType": "bytes",
          "name": "keyword",
          "type": "bytes"
        },
        {
          "indexed": false,
          "internalType": "uint8",
          "name": "hashFunctionId",
          "type": "uint8"
        },
        {
          "indexed": true,
          "internalType": "uint72",
          "name": "identityId",
          "type": "uint72"
        },
        {
          "indexed": false,
          "internalType": "uint40",
          "name": "score",
          "type": "uint40"
        }
      ],
      "name": "CommitSubmitted",
      "type": "event"
    },
    {
      "anonymous": false,
      "inputs": [
        {
          "indexed": true,
          "internalType": "address",
          "name": "assetContract",
          "type": "address"
        },
        {
          "indexed": true,
          "internalType": "uint256",
          "name": "tokenId",
          "type": "uint256"
        },
        {
          "indexed": false,
          "internalType": "bytes",
          "name": "keyword",
          "type": "bytes"
        },
        {
          "indexed": false,
          "internalType": "uint8",
          "name": "hashFunctionId",
          "type": "uint8"
        },
        {
          "indexed": true,
          "internalType": "uint72",
          "name": "identityId",
          "type": "uint72"
        }
      ],
      "name": "ProofSubmitted",
      "type": "event"
    },
    {
      "anonymous": false,
      "inputs": [
        {
          "indexed": true,
          "internalType": "address",
          "name": "assetContract",
          "type": "address"
        },
        {
          "indexed": true,
          "internalType": "uint256",
          "name": "tokenId",
          "type": "uint256"
        },
        {
          "indexed": false,
          "internalType": "bytes",
          "name": "keyword",
          "type": "bytes"
        },
        {
          "indexed": false,
          "internalType": "uint8",
          "name": "hashFunctionId",
          "type": "uint8"
        },
        {
          "indexed": false,
          "internalType": "uint256",
          "name": "startTime",
          "type": "uint256"
        },
        {
          "indexed": false,
          "internalType": "uint16",
          "name": "epochsNumber",
          "type": "uint16"
        },
        {
          "indexed": false,
          "internalType": "uint128",
          "name": "epochLength",
          "type": "uint128"
        },
        {
          "indexed": false,
          "internalType": "uint96",
          "name": "tokenAmount",
          "type": "uint96"
        }
      ],
      "name": "ServiceAgreementV1Created",
      "type": "event"
    },
    {
      "anonymous": false,
      "inputs": [
        {
          "indexed": true,
          "internalType": "address",
          "name": "assetContract",
          "type": "address"
        },
        {
          "indexed": true,
          "internalType": "uint256",
          "name": "tokenId",
          "type": "uint256"
        },
        {
          "indexed": false,
          "internalType": "bytes",
          "name": "keyword",
          "type": "bytes"
        },
        {
          "indexed": false,
          "internalType": "uint8",
          "name": "hashFunctionId",
          "type": "uint8"
        },
        {
          "indexed": false,
          "internalType": "uint16",
          "name": "epochsNumber",
          "type": "uint16"
        },
        {
          "indexed": false,
          "internalType": "uint96",
          "name": "tokenAmount",
          "type": "uint96"
        }
      ],
      "name": "ServiceAgreementV1Updated",
      "type": "event"
    },
    {
      "inputs": [],
      "name": "assertionStorage",
      "outputs": [
        {
          "internalType": "contract AssertionStorage",
          "name": "",
          "type": "address"
        }
      ],
      "stateMutability": "view",
      "type": "function"
    },
    {
      "inputs": [],
      "name": "hashingProxy",
      "outputs": [
        {
          "internalType": "contract HashingProxy",
          "name": "",
          "type": "address"
        }
      ],
      "stateMutability": "view",
      "type": "function"
    },
    {
      "inputs": [],
      "name": "hub",
      "outputs": [
        {
          "internalType": "contract Hub",
          "name": "",
          "type": "address"
        }
      ],
      "stateMutability": "view",
      "type": "function"
    },
    {
      "inputs": [],
      "name": "identityStorage",
      "outputs": [
        {
          "internalType": "contract IdentityStorage",
          "name": "",
          "type": "address"
        }
      ],
      "stateMutability": "view",
      "type": "function"
    },
    {
      "inputs": [],
      "name": "parametersStorage",
      "outputs": [
        {
          "internalType": "contract ParametersStorage",
          "name": "",
          "type": "address"
        }
      ],
      "stateMutability": "view",
      "type": "function"
    },
    {
      "inputs": [],
      "name": "profileStorage",
      "outputs": [
        {
          "internalType": "contract ProfileStorage",
          "name": "",
          "type": "address"
        }
      ],
      "stateMutability": "view",
      "type": "function"
    },
    {
      "inputs": [],
      "name": "scoringProxy",
      "outputs": [
        {
          "internalType": "contract ScoringProxy",
          "name": "",
          "type": "address"
        }
      ],
      "stateMutability": "view",
      "type": "function"
    },
    {
      "inputs": [],
      "name": "serviceAgreementStorageV1",
      "outputs": [
        {
          "internalType": "contract ServiceAgreementStorageV1",
          "name": "",
          "type": "address"
        }
      ],
      "stateMutability": "view",
      "type": "function"
    },
    {
      "inputs": [],
      "name": "stakingContract",
      "outputs": [
        {
          "internalType": "contract Staking",
          "name": "",
          "type": "address"
        }
      ],
      "stateMutability": "view",
      "type": "function"
    },
    {
      "inputs": [],
      "name": "stakingStorage",
      "outputs": [
        {
          "internalType": "contract StakingStorage",
          "name": "",
          "type": "address"
        }
      ],
      "stateMutability": "view",
      "type": "function"
    },
    {
      "inputs": [],
      "name": "tokenContract",
      "outputs": [
        {
          "internalType": "contract IERC20",
          "name": "",
          "type": "address"
        }
      ],
      "stateMutability": "view",
      "type": "function"
    },
    {
      "inputs": [],
      "name": "initialize",
      "outputs": [],
      "stateMutability": "nonpayable",
      "type": "function"
    },
    {
      "inputs": [],
      "name": "name",
      "outputs": [
        {
          "internalType": "string",
          "name": "",
          "type": "string"
        }
      ],
      "stateMutability": "pure",
      "type": "function"
    },
    {
      "inputs": [],
      "name": "version",
      "outputs": [
        {
          "internalType": "string",
          "name": "",
          "type": "string"
        }
      ],
      "stateMutability": "pure",
      "type": "function"
    },
    {
      "inputs": [
        {
          "components": [
            {
              "internalType": "address",
              "name": "assetCreator",
              "type": "address"
            },
            {
              "internalType": "address",
              "name": "assetContract",
              "type": "address"
            },
            {
              "internalType": "uint256",
              "name": "tokenId",
              "type": "uint256"
            },
            {
              "internalType": "bytes",
              "name": "keyword",
              "type": "bytes"
            },
            {
              "internalType": "uint8",
              "name": "hashFunctionId",
              "type": "uint8"
            },
            {
              "internalType": "uint16",
              "name": "epochsNumber",
              "type": "uint16"
            },
            {
              "internalType": "uint96",
              "name": "tokenAmount",
              "type": "uint96"
            },
            {
              "internalType": "uint8",
              "name": "scoreFunctionId",
              "type": "uint8"
            }
          ],
          "internalType": "struct ServiceAgreementStructsV1.ServiceAgreementInputArgs",
          "name": "args",
          "type": "tuple"
        }
      ],
      "name": "createServiceAgreement",
      "outputs": [],
      "stateMutability": "nonpayable",
      "type": "function"
    },
    {
      "inputs": [
        {
          "components": [
            {
              "internalType": "address",
              "name": "assetCreator",
              "type": "address"
            },
            {
              "internalType": "address",
              "name": "assetContract",
              "type": "address"
            },
            {
              "internalType": "uint256",
              "name": "tokenId",
              "type": "uint256"
            },
            {
              "internalType": "bytes",
              "name": "keyword",
              "type": "bytes"
            },
            {
              "internalType": "uint8",
              "name": "hashFunctionId",
              "type": "uint8"
            },
            {
              "internalType": "uint16",
              "name": "epochsNumber",
              "type": "uint16"
            },
            {
              "internalType": "uint96",
              "name": "tokenAmount",
              "type": "uint96"
            },
            {
              "internalType": "uint8",
              "name": "scoreFunctionId",
              "type": "uint8"
            }
          ],
          "internalType": "struct ServiceAgreementStructsV1.ServiceAgreementInputArgs",
          "name": "args",
          "type": "tuple"
        }
      ],
      "name": "updateServiceAgreement",
      "outputs": [],
      "stateMutability": "nonpayable",
      "type": "function"
    },
    {
      "inputs": [
        {
          "internalType": "bytes32",
          "name": "agreementId",
          "type": "bytes32"
        },
        {
          "internalType": "uint16",
          "name": "epoch",
          "type": "uint16"
        }
      ],
      "name": "isCommitWindowOpen",
      "outputs": [
        {
          "internalType": "bool",
          "name": "",
          "type": "bool"
        }
      ],
      "stateMutability": "view",
      "type": "function"
    },
    {
      "inputs": [
        {
          "internalType": "bytes32",
          "name": "agreementId",
          "type": "bytes32"
        },
        {
          "internalType": "uint16",
          "name": "epoch",
          "type": "uint16"
        }
      ],
      "name": "getTopCommitSubmissions",
      "outputs": [
        {
          "components": [
            {
              "internalType": "uint72",
              "name": "identityId",
              "type": "uint72"
            },
            {
              "internalType": "uint72",
              "name": "prevIdentityId",
              "type": "uint72"
            },
            {
              "internalType": "uint72",
              "name": "nextIdentityId",
              "type": "uint72"
            },
            {
              "internalType": "uint40",
              "name": "score",
              "type": "uint40"
            }
          ],
          "internalType": "struct ServiceAgreementStructsV1.CommitSubmission[]",
          "name": "",
          "type": "tuple[]"
        }
      ],
      "stateMutability": "view",
      "type": "function"
    },
    {
      "inputs": [
        {
          "components": [
            {
              "internalType": "address",
              "name": "assetContract",
              "type": "address"
            },
            {
              "internalType": "uint256",
              "name": "tokenId",
              "type": "uint256"
            },
            {
              "internalType": "bytes",
              "name": "keyword",
              "type": "bytes"
            },
            {
              "internalType": "uint8",
              "name": "hashFunctionId",
              "type": "uint8"
            },
            {
              "internalType": "uint16",
              "name": "epoch",
              "type": "uint16"
            }
          ],
          "internalType": "struct ServiceAgreementStructsV1.CommitInputArgs",
          "name": "args",
          "type": "tuple"
        }
      ],
      "name": "submitCommit",
      "outputs": [],
      "stateMutability": "nonpayable",
      "type": "function"
    },
    {
      "inputs": [
        {
          "internalType": "bytes32",
          "name": "agreementId",
          "type": "bytes32"
        },
        {
          "internalType": "uint16",
          "name": "epoch",
          "type": "uint16"
        }
      ],
      "name": "isProofWindowOpen",
      "outputs": [
        {
          "internalType": "bool",
          "name": "",
          "type": "bool"
        }
      ],
      "stateMutability": "view",
      "type": "function"
    },
    {
      "inputs": [
        {
          "internalType": "address",
          "name": "sender",
          "type": "address"
        },
        {
          "internalType": "address",
          "name": "assetContract",
          "type": "address"
        },
        {
          "internalType": "uint256",
          "name": "tokenId",
          "type": "uint256"
        },
        {
          "internalType": "uint16",
          "name": "epoch",
          "type": "uint16"
        }
      ],
      "name": "getChallenge",
      "outputs": [
        {
          "internalType": "bytes32",
          "name": "",
          "type": "bytes32"
        },
        {
          "internalType": "uint256",
          "name": "",
          "type": "uint256"
        }
      ],
      "stateMutability": "view",
      "type": "function"
    },
    {
      "inputs": [
        {
          "components": [
            {
              "internalType": "address",
              "name": "assetContract",
              "type": "address"
            },
            {
              "internalType": "uint256",
              "name": "tokenId",
              "type": "uint256"
            },
            {
              "internalType": "bytes",
              "name": "keyword",
              "type": "bytes"
            },
            {
              "internalType": "uint8",
              "name": "hashFunctionId",
              "type": "uint8"
            },
            {
              "internalType": "uint16",
              "name": "epoch",
              "type": "uint16"
            },
            {
              "internalType": "bytes32[]",
              "name": "proof",
              "type": "bytes32[]"
            },
            {
              "internalType": "bytes32",
              "name": "chunkHash",
              "type": "bytes32"
            }
          ],
          "internalType": "struct ServiceAgreementStructsV1.ProofInputArgs",
          "name": "args",
          "type": "tuple"
        }
      ],
      "name": "sendProof",
      "outputs": [],
      "stateMutability": "nonpayable",
      "type": "function"
    }
  ],
  "bytecode": "0x60806040523480156200001157600080fd5b5060405162004c5638038062004c5683398101604081905262000034916200006e565b6001600160a01b0381166200004857600080fd5b600080546001600160a01b0319166001600160a01b0392909216919091179055620000a0565b6000602082840312156200008157600080fd5b81516001600160a01b03811681146200009957600080fd5b9392505050565b614ba680620000b06000396000f3fe608060405234801561001057600080fd5b50600436106101425760003560e01c80637662966a116100b8578063becdd5971161007c578063becdd597146102f3578063d210b7cf14610306578063e1572ce614610319578063ee99205c1461032c578063f11abfd81461033f578063f42cb0381461035257600080fd5b80637662966a146102825780637db4ffd8146102955780638129fc1c146102b5578063aa6a00fd146102bd578063b518a00e146102e057600080fd5b8063365a86fc1161010a578063365a86fc1461020257806350d0c1441461021557806354fd4d501461022857806355a373d614610249578063639a86a31461025c5780637522c2b11461026f57600080fd5b806306fdde03146101475780630f0020161461018757806311c94ee8146101af578063169df8d8146101da578063271af8a8146101ef575b600080fd5b6040805180820190915260128152715365727669636541677265656d656e74563160701b60208201525b60405161017e91906141be565b60405180910390f35b61019a6101953660046141f9565b610365565b6040805192835260208301919091520161017e565b6001546101c2906001600160a01b031681565b6040516001600160a01b03909116815260200161017e565b6101ed6101e836600461424c565b610578565b005b6101ed6101fd366004614287565b610913565b6000546101c2906001600160a01b031681565b6008546101c2906001600160a01b031681565b6040805180820190915260058152640312e302e360dc1b6020820152610171565b600a546101c2906001600160a01b031681565b6006546101c2906001600160a01b031681565b6101ed61027d3660046142c3565b611120565b6002546101c2906001600160a01b031681565b6102a86102a33660046142fe565b611b79565b60405161017e919061432e565b6101ed611feb565b6102d06102cb3660046142fe565b612636565b604051901515815260200161017e565b6009546101c2906001600160a01b031681565b6102d06103013660046142fe565b6129a4565b6004546101c2906001600160a01b031681565b6101ed610327366004614287565b612ccf565b6003546101c2906001600160a01b031681565b6005546101c2906001600160a01b031681565b6007546101c2906001600160a01b031681565b60055460405163010cf48d60e71b81526001600160a01b038681166004830152600092839283929091169063867a468090602401602060405180830381865afa1580156103b6573d6000803e3d6000fd5b505050506040513d601f19601f820116820180604052508101906103da91906143c3565b60405163cede992f60e01b81526004810187905290915086906000906001600160a01b0383169063cede992f90602401602060405180830381865afa158015610427573d6000803e3d6000fd5b505050506040513d601f19601f8201168201806040525081019061044b91906143de565b60048054604051632111070960e01b81529182018390529192506000916001600160a01b031690632111070990602401602060405180830381865afa158015610498573d6000803e3d6000fd5b505050506040513d601f19601f820116820180604052508101906104bc919061440c565b6001600160601b0316905081816002898760405160200161050392919060f09290921b6001600160f01b031916825260b81b6001600160b81b0319166002820152600b0190565b60408051601f198184030181529082905261051d91614429565b602060405180830381855afa15801561053a573d6000803e3d6000fd5b5050506040513d601f19601f8201168201806040525081019061055d91906143de565b610567919061445b565b955095505050505094509492505050565b60006105b161058a602084018461446f565b602084013561059c604086018661448c565b6105ac60808801606089016144e9565b613663565b90506105c78161030160a0850160808601614506565b6106185760405162461bcd60e51b815260206004820152601760248201527f436f6d6d69742077696e646f7720697320636c6f73656400000000000000000060448201526064015b60405180910390fd5b60055460405163010cf48d60e71b81523360048201526000916001600160a01b03169063867a468090602401602060405180830381865afa158015610661573d6000803e3d6000fd5b505050506040513d601f19601f8201168201806040525081019061068591906143c3565b60025460085460405163ce60dc6160e01b8152600481018690529293506000926001600160a01b0392831692630b47a00892169063ce60dc6190602401602060405180830381865afa1580156106df573d6000803e3d6000fd5b505050506040513d601f19601f820116820180604052508101906107039190614523565b61071360808801606089016144e9565b6007546040516320e085cd60e11b81526001600160481b03881660048201526001600160a01b03909116906341c10b9a90602401600060405180830381865afa158015610764573d6000803e3d6000fd5b505050506040513d6000823e601f3d908101601f1916820160405261078c9190810190614556565b61079960408a018a61448c565b600954604051639d2b48ad60e01b81526001600160481b038b1660048201526001600160a01b0390911690639d2b48ad90602401602060405180830381865afa1580156107ea573d6000803e3d6000fd5b505050506040513d601f19601f8201168201806040525081019061080e919061440c565b6040518763ffffffff1660e01b815260040161082f9695949392919061462c565b6020604051808303816000875af115801561084e573d6000803e3d6000fd5b505050506040513d601f19601f820116820180604052508101906108729190614696565b90506108928361088860a0870160808801614506565b846000808661370b565b6001600160481b038216602085018035906108ad908761446f565b6001600160a01b03167f06d678193262cc8cf0c98a32a42cc9c6ccb379cf09a5766360b3a6b6d59723d36108e4604089018961448c565b6108f460808b0160608c016144e9565b8760405161090594939291906146b1565b60405180910390a450505050565b61091b613db0565b6000610952610930604084016020850161446f565b6040840135610942606086018661448c565b6105ac60a08801608089016144e9565b6008549091506001600160a01b03166000610970602085018561446f565b6001600160a01b0316036109c65760405162461bcd60e51b815260206004820152601b60248201527f41737365742063726561746f722063616e6e6f74206265203078300000000000604482015260640161060f565b6040516310dc199160e31b8152600481018390526001600160a01b038216906386e0cc8890602401602060405180830381865afa158015610a0b573d6000803e3d6000fd5b505050506040513d601f19601f82011682018060405250810190610a2f91906146e6565b610a4b5760405162461bcd60e51b815260040161060f90614708565b610a5b60c0840160a08501614506565b61ffff16600003610aaa5760405162461bcd60e51b8152602060048201526019602482015278045706f636873206e756d6265722063616e6e6f74206265203603c1b604482015260640161060f565b610aba60e0840160c0850161473f565b6001600160601b0316600003610b0d5760405162461bcd60e51b81526020600482015260186024820152770546f6b656e20616d6f756e742063616e6e6f7420626520360441b604482015260640161060f565b6002546001600160a01b031663e12e56a7610b2f610100860160e087016144e9565b6040516001600160e01b031960e084901b16815260ff9091166004820152602401602060405180830381865afa158015610b6d573d6000803e3d6000fd5b505050506040513d601f19601f82011682018060405250810190610b9191906146e6565b610bdd5760405162461bcd60e51b815260206004820152601c60248201527f53636f72652066756e6374696f6e20646f65736e277420657869737400000000604482015260640161060f565b604051634089a17d60e01b8152600481018390526000906001600160a01b03831690634089a17d90602401602060405180830381865afa158015610c25573d6000803e3d6000fd5b505050506040513d601f19601f82011682018060405250810190610c49919061440c565b90506001600160a01b038216630f3a549d84610c6b60c0880160a08901614506565b6040516001600160e01b031960e085901b168152600481019290925261ffff166024820152604401600060405180830381600087803b158015610cad57600080fd5b505af1158015610cc1573d6000803e3d6000fd5b5050506001600160a01b038316905063e54b26ff84610ce660e0880160c0890161473f565b6040516001600160e01b031960e085901b16815260048101929092526001600160601b03166024820152604401600060405180830381600087803b158015610d2d57600080fd5b505af1158015610d41573d6000803e3d6000fd5b5050506001600160a01b0383169050636441a27684610d67610100880160e089016144e9565b6040516001600160e01b031960e085901b168152600481019290925260ff166024820152604401600060405180830381600087803b158015610da857600080fd5b505af1158015610dbc573d6000803e3d6000fd5b5050600a546001600160a01b03169150829050610ddf60e0870160c0880161473f565b610de99190614772565b6001600160601b03166001600160a01b03821663dd62ed3e610e0e602089018961446f565b6040516001600160e01b031960e084901b1681526001600160a01b039091166004820152306024820152604401602060405180830381865afa158015610e58573d6000803e3d6000fd5b505050506040513d601f19601f82011682018060405250810190610e7c91906143de565b1015610ed55760405162461bcd60e51b815260206004820152602260248201527f53656e64657220616c6c6f77616e6365206d757374206265203e3d20616d6f756044820152611b9d60f21b606482015260840161060f565b81610ee660e0870160c0880161473f565b610ef09190614772565b6001600160601b03166001600160a01b0382166370a08231610f15602089018961446f565b6040516001600160e01b031960e084901b1681526001600160a01b039091166004820152602401602060405180830381865afa158015610f59573d6000803e3d6000fd5b505050506040513d601f19601f82011682018060405250810190610f7d91906143de565b1015610fcb5760405162461bcd60e51b815260206004820181905260248201527f53656e6465722062616c616e6365206d757374206265203e3d20616d6f756e74604482015260640161060f565b6001600160a01b0381166323b872dd610fe7602088018861446f565b8585610ff960e08b0160c08c0161473f565b6110039190614772565b6040516001600160e01b031960e086901b1681526001600160a01b0393841660048201529290911660248301526001600160601b031660448201526064016020604051808303816000875af1158015611060573d6000803e3d6000fd5b505050506040513d601f19601f8201168201806040525081019061108491906146e6565b5060408501803590611099906020880161446f565b6001600160a01b03167f18f7112b7bab68afa5bae58afb27a44357ea01c2850f33e5b17e264de835ef306110d0606089018961448c565b6110e060a08b0160808c016144e9565b6110f060c08c0160a08d01614506565b61110060e08d0160c08e0161473f565b604051611111959493929190614799565b60405180910390a35050505050565b600061113261058a602084018461446f565b9050611148816102cb60a0850160808601614506565b61118d5760405162461bcd60e51b8152602060048201526016602482015275141c9bdbd9881dda5b991bddc81a5cc818db1bdcd95960521b604482015260640161060f565b60055460405163010cf48d60e71b81523360048201526001600160a01b0390911690600090829063867a468090602401602060405180830381865afa1580156111da573d6000803e3d6000fd5b505050506040513d601f19601f820116820180604052508101906111fe91906143c3565b6008549091506001600160a01b031680635c6c1fef8561122460a0890160808a01614506565b85604051602001611237939291906147da565b604051602081830303815290604052805190602001206040518263ffffffff1660e01b815260040161126b91815260200190565b602060405180830381865afa158015611288573d6000803e3d6000fd5b505050506040513d601f19601f820116820180604052508101906112ac9190614696565b64ffffffffff166000036113025760405162461bcd60e51b815260206004820152601c60248201527f596f75277665206265656e20616c726561647920726577617264656400000000604482015260640161060f565b60006001600160a01b03821663572943f78661132460a08a0160808b01614506565b6040516001600160e01b031960e085901b168152600481019290925261ffff166024820152604401602060405180830381865afa158015611369573d6000803e3d6000fd5b505050506040513d601f19601f8201168201806040525081019061138d91906143de565b90506000600660009054906101000a90046001600160a01b03166001600160a01b0316638d73d86a6040518163ffffffff1660e01b8152600401602060405180830381865afa1580156113e4573d6000803e3d6000fd5b505050506040513d601f19601f82011682018060405250810190611408919061480a565b905060005b6040516308feb20b60e01b8152600481018490526001600160a01b038516906308feb20b90602401602060405180830381865afa158015611452573d6000803e3d6000fd5b505050506040513d601f19601f8201168201806040525081019061147691906143c3565b6001600160481b0316856001600160481b03161415801561149f57508163ffffffff168160ff16105b1561155257866114b560a08a0160808b01614506565b604051635b3db70f60e11b8152600481018690526001600160a01b0387169063b67b6e1e90602401602060405180830381865afa1580156114fa573d6000803e3d6000fd5b505050506040513d601f19601f8201168201806040525081019061151e91906143c3565b604051602001611530939291906147da565b60408051601f198184030181529190528051602090910120925060010161140d565b8163ffffffff168160ff16106115d05760405162461bcd60e51b815260206004820152603a60248201527f596f7572206e6f6465206861736e2774206265656e206177617264656420666f60448201527f72207468697320617373657420696e20746869732065706f6368000000000000606482015260840161060f565b6000806115fc336115e460208d018d61446f565b8c602001358d60800160208101906101959190614506565b909250905061167f61161160a08c018c614830565b8080602002602001604051908101604052809392919081815260200183836020028082843760009201919091525050604051869250611664915060c08f0135908690602001918252602082015260400190565b60405160208183030381529060405280519060200120613e6a565b6116cb5760405162461bcd60e51b815260206004820152601760248201527f526f6f74206861736820646f65736e2774206d61746368000000000000000000604482015260640161060f565b6001600160481b03871660208b018035906116e6908d61446f565b6001600160a01b03167f366aaa9c8abe80c090bc64cea91ec9dd40e38cc712d3381824709c5a1562f2c461171d60408f018f61448c565b8f606001602081019061173091906144e9565b60405161173f9392919061487a565b60405180910390a46000866001600160a01b031663ac9d7cf48b8d608001602081019061176c9190614506565b6040516001600160e01b031960e085901b168152600481019290925261ffff166024820152604401602060405180830381865afa1580156117b1573d6000803e3d6000fd5b505050506040513d601f19601f820116820180604052508101906117d5919061480a565b6117df90866148a1565b63ffffffff166117f560a08d0160808e01614506565b60405163d1a640c760e01b8152600481018d90526001600160a01b038a169063d1a640c790602401602060405180830381865afa15801561183a573d6000803e3d6000fd5b505050506040513d601f19601f8201168201806040525081019061185e91906148be565b61186891906148db565b6118739060016148f6565b61ffff16886001600160a01b0316634089a17d8d6040518263ffffffff1660e01b81526004016118a591815260200190565b602060405180830381865afa1580156118c2573d6000803e3d6000fd5b505050506040513d601f19601f820116820180604052508101906118e6919061440c565b6118f09190614911565b6118fa9190614911565b60035460405163a7b5dd5960e01b81526001600160481b038b1660048201526001600160601b03831660248201529192506001600160a01b03169063a7b5dd5990604401600060405180830381600087803b15801561195857600080fd5b505af115801561196c573d6000803e3d6000fd5b5050604051634089a17d60e01b8152600481018d90526001600160a01b038a16925063e54b26ff91508c9084908490634089a17d90602401602060405180830381865afa1580156119c1573d6000803e3d6000fd5b505050506040513d601f19601f820116820180604052508101906119e5919061440c565b6119ef9190614772565b6040516001600160e01b031960e085901b16815260048101929092526001600160601b03166024820152604401600060405180830381600087803b158015611a3657600080fd5b505af1158015611a4a573d6000803e3d6000fd5b50505050866001600160a01b031663beca40f38b8d6080016020810190611a719190614506565b6040516001600160e01b031960e085901b168152600481019290925261ffff166024820152604401600060405180830381600087803b158015611ab357600080fd5b505af1158015611ac7573d6000803e3d6000fd5b50505050866001600160a01b0316633d6317168b8d6080016020810190611aee9190614506565b8b604051602001611b01939291906147da565b60408051601f198184030181529082905280516020909101206001600160e01b031960e084901b168252600482015260006024820152604401600060405180830381600087803b158015611b5457600080fd5b505af1158015611b68573d6000803e3d6000fd5b505050505050505050505050505050565b6008546040516310dc199160e31b8152600481018490526060916001600160a01b03169081906386e0cc8890602401602060405180830381865afa158015611bc5573d6000803e3d6000fd5b505050506040513d601f19601f82011682018060405250810190611be991906146e6565b611c055760405162461bcd60e51b815260040161060f90614708565b60405163d1a640c760e01b8152600481018590526001600160a01b0382169063d1a640c790602401602060405180830381865afa158015611c4a573d6000803e3d6000fd5b505050506040513d601f19601f82011682018060405250810190611c6e91906148be565b61ffff168361ffff1610611cc05760405162461bcd60e51b815260206004820152601960248201527814d95c9d9a58d9481059dc99595b595b9d08195e1c1a5c9959603a1b604482015260640161060f565b600654604080516346b9ec3560e11b815290516000926001600160a01b031691638d73d86a9160048083019260209291908290030181865afa158015611d0a573d6000803e3d6000fd5b505050506040513d601f19601f82011682018060405250810190611d2e919061480a565b905060008163ffffffff1667ffffffffffffffff811115611d5157611d51614540565b604051908082528060200260200182016040528015611da357816020015b604080516080810182526000808252602080830182905292820181905260608201528252600019909201910181611d6f5790505b5060405163572943f760e01b81526004810188905261ffff871660248201529091506000906001600160a01b0385169063572943f790604401602060405180830381865afa158015611df9573d6000803e3d6000fd5b505050506040513d601f19601f82011682018060405250810190611e1d91906143de565b60405163223dea6d60e21b8152600481018290529091506001600160a01b038516906388f7a9b490602401608060405180830381865afa158015611e65573d6000803e3d6000fd5b505050506040513d601f19601f82011682018060405250810190611e899190614937565b82600081518110611e9c57611e9c6149b4565b602002602001018190525060008083600081518110611ebd57611ebd6149b4565b60200260200101516040015190506000600190505b8563ffffffff168160ff16108015611ef257506001600160481b03821615155b15611fdb57898983604051602001611f0c939291906147da565b60408051808303601f1901815290829052805160209091012063223dea6d60e21b82526004820181905293506001600160a01b038816906388f7a9b490602401608060405180830381865afa158015611f69573d6000803e3d6000fd5b505050506040513d601f19601f82011682018060405250810190611f8d9190614937565b858260ff1681518110611fa257611fa26149b4565b6020026020010181905250848160ff1681518110611fc257611fc26149b4565b6020908102919091010151604001519150600101611ed2565b5092955050505050505b92915050565b611ff3613e80565b600054604051630110ceef60e21b815260206004820152600c60248201526b48617368696e6750726f787960a01b60448201526001600160a01b03909116906304433bbc90606401602060405180830381865afa158015612058573d6000803e3d6000fd5b505050506040513d601f19601f8201168201806040525081019061207c91906149ca565b600180546001600160a01b0319166001600160a01b03928316179055600054604051630110ceef60e21b815260206004820152600c60248201526b53636f72696e6750726f787960a01b60448201529116906304433bbc90606401602060405180830381865afa1580156120f4573d6000803e3d6000fd5b505050506040513d601f19601f8201168201806040525081019061211891906149ca565b600280546001600160a01b0319166001600160a01b03928316179055600054604051630110ceef60e21b81526020600482015260076024820152665374616b696e6760c81b60448201529116906304433bbc90606401602060405180830381865afa15801561218b573d6000803e3d6000fd5b505050506040513d601f19601f820116820180604052508101906121af91906149ca565b600380546001600160a01b0319166001600160a01b03928316179055600054604051630110ceef60e21b815260206004820152601060248201526f417373657274696f6e53746f7261676560801b60448201529116906304433bbc90606401602060405180830381865afa15801561222b573d6000803e3d6000fd5b505050506040513d601f19601f8201168201806040525081019061224f91906149ca565b600480546001600160a01b039283166001600160a01b0319909116178155600054604051630110ceef60e21b81529216916304433bbc916122b491016020808252600f908201526e4964656e7469747953746f7261676560881b604082015260600190565b602060405180830381865afa1580156122d1573d6000803e3d6000fd5b505050506040513d601f19601f820116820180604052508101906122f591906149ca565b600580546001600160a01b0319166001600160a01b03928316179055600054604051630110ceef60e21b8152602060048201526011602482015270506172616d657465727353746f7261676560781b60448201529116906304433bbc90606401602060405180830381865afa158015612372573d6000803e3d6000fd5b505050506040513d601f19601f8201168201806040525081019061239691906149ca565b600680546001600160a01b0319166001600160a01b03928316179055600054604051630110ceef60e21b815260206004820152600e60248201526d50726f66696c6553746f7261676560901b60448201529116906304433bbc90606401602060405180830381865afa158015612410573d6000803e3d6000fd5b505050506040513d601f19601f8201168201806040525081019061243491906149ca565b600780546001600160a01b0319166001600160a01b03928316179055600054604051630110ceef60e21b815260206004820152601960248201527f5365727669636541677265656d656e7453746f7261676556310000000000000060448201529116906304433bbc90606401602060405180830381865afa1580156124bd573d6000803e3d6000fd5b505050506040513d601f19601f820116820180604052508101906124e191906149ca565b600880546001600160a01b0319166001600160a01b03928316179055600054604051630110ceef60e21b815260206004820152600e60248201526d5374616b696e6753746f7261676560901b60448201529116906304433bbc90606401602060405180830381865afa15801561255b573d6000803e3d6000fd5b505050506040513d601f19601f8201168201806040525081019061257f91906149ca565b600980546001600160a01b0319166001600160a01b03928316179055600054604051630110ceef60e21b81526020600482015260056024820152642a37b5b2b760d91b60448201529116906304433bbc90606401602060405180830381865afa1580156125f0573d6000803e3d6000fd5b505050506040513d601f19601f8201168201806040525081019061261491906149ca565b600a80546001600160a01b0319166001600160a01b0392909216919091179055565b600854604051630271c2cf60e61b8152600481018490526000916001600160a01b03169082908290639c70b3c090602401602060405180830381865afa158015612684573d6000803e3d6000fd5b505050506040513d601f19601f820116820180604052508101906126a891906143de565b9050806000036126ca5760405162461bcd60e51b815260040161060f90614708565b60405163d1a640c760e01b8152600481018690526001600160a01b0383169063d1a640c790602401602060405180830381865afa15801561270f573d6000803e3d6000fd5b505050506040513d601f19601f8201168201806040525081019061273391906148be565b61ffff168461ffff16106127855760405162461bcd60e51b815260206004820152601960248201527814d95c9d9a58d9481059dc99595b595b9d08195e1c1a5c9959603a1b604482015260640161060f565b60405163484a47e760e01b81526004810186905242906000906001600160a01b0385169063484a47e790602401602060405180830381865afa1580156127cf573d6000803e3d6000fd5b505050506040513d601f19601f820116820180604052508101906127f391906149e7565b6040516399149f7760e01b8152600481018990529091506000906001600160a01b038616906399149f7790602401602060405180830381865afa15801561283e573d6000803e3d6000fd5b505050506040513d601f19601f820116820180604052508101906128629190614523565b90506000606461287560ff841685614a10565b61287f9190614a3f565b6001600160801b0316905060006064600660009054906101000a90046001600160a01b03166001600160a01b0316639d3ceb0c6040518163ffffffff1660e01b8152600401602060405180830381865afa1580156128e1573d6000803e3d6000fd5b505050506040513d601f19601f820116820180604052508101906129059190614523565b6129129060ff1686614a10565b61291c9190614a3f565b6001600160801b031690508161293661ffff8b1686614a10565b612949906001600160801b031688614a59565b6129539190614a59565b851180156129965750808261296c61ffff8c1687614a10565b61297f906001600160801b031689614a59565b6129899190614a59565b6129939190614a59565b85105b9a9950505050505050505050565b600854604051630271c2cf60e61b8152600481018490526000916001600160a01b03169082908290639c70b3c090602401602060405180830381865afa1580156129f2573d6000803e3d6000fd5b505050506040513d601f19601f82011682018060405250810190612a1691906143de565b905080600003612a385760405162461bcd60e51b815260040161060f90614708565b60405163d1a640c760e01b8152600481018690526001600160a01b0383169063d1a640c790602401602060405180830381865afa158015612a7d573d6000803e3d6000fd5b505050506040513d601f19601f82011682018060405250810190612aa191906148be565b61ffff168461ffff1610612b025760405162461bcd60e51b815260206004820152602260248201527f536572766963652041677265656d656e7420686173206265656e206578706972604482015261195960f21b606482015260840161060f565b60065460405163484a47e760e01b8152600481018790526001600160a01b0391821691429160009186169063484a47e790602401602060405180830381865afa158015612b53573d6000803e3d6000fd5b505050506040513d601f19601f82011682018060405250810190612b7791906149e7565b90508661ffff16600003612c0357826001600160a01b031663e8d487ff6040518163ffffffff1660e01b8152600401602060405180830381865afa158015612bc3573d6000803e3d6000fd5b505050506040513d601f19601f82011682018060405250810190612be791906148be565b612bf59061ffff1685614a59565b821095505050505050611fe5565b612c1161ffff881682614a10565b612c24906001600160801b031685614a59565b82118015612cc35750826001600160a01b031663e8d487ff6040518163ffffffff1660e01b8152600401602060405180830381865afa158015612c6b573d6000803e3d6000fd5b505050506040513d601f19601f82011682018060405250810190612c8f91906148be565b61ffff168761ffff1682612ca39190614a10565b612cb6906001600160801b031686614a59565b612cc09190614a59565b82105b98975050505050505050565b612cd7613db0565b6000612ce6602083018361446f565b6001600160a01b031603612d3c5760405162461bcd60e51b815260206004820152601b60248201527f41737365742063726561746f722063616e6e6f74206265203078300000000000604482015260640161060f565b6000546001600160a01b0316638d5d2d85612d5d604084016020850161446f565b6040516001600160e01b031960e084901b1681526001600160a01b039091166004820152602401602060405180830381865afa158015612da1573d6000803e3d6000fd5b505050506040513d601f19601f82011682018060405250810190612dc591906146e6565b612e115760405162461bcd60e51b815260206004820152601d60248201527f417373657420436f6e7472616374206e6f7420696e2074686520687562000000604482015260640161060f565b7fc5d2460186f7233c927e7db2dcc703c0e500b653ca82273b7bfad8045d85a470612e3f606083018361448c565b604051612e4d929190614a6c565b604051809103902003612e9b5760405162461bcd60e51b81526020600482015260166024820152754b6579776f72642063616e277420626520656d70747960501b604482015260640161060f565b612eab60c0820160a08301614506565b61ffff16600003612efa5760405162461bcd60e51b8152602060048201526019602482015278045706f636873206e756d6265722063616e6e6f74206265203603c1b604482015260640161060f565b612f0a60e0820160c0830161473f565b6001600160601b0316600003612f5d5760405162461bcd60e51b81526020600482015260186024820152770546f6b656e20616d6f756e742063616e6e6f7420626520360441b604482015260640161060f565b6002546001600160a01b031663e12e56a7612f7f610100840160e085016144e9565b6040516001600160e01b031960e084901b16815260ff9091166004820152602401602060405180830381865afa158015612fbd573d6000803e3d6000fd5b505050506040513d601f19601f82011682018060405250810190612fe191906146e6565b61302d5760405162461bcd60e51b815260206004820152601c60248201527f53636f72652066756e6374696f6e20646f65736e277420657869737400000000604482015260640161060f565b6000613042610930604084016020850161446f565b6008546006549192506001600160a01b03908116911681634c72fefc8461306f60c0880160a08901614506565b846001600160a01b03166357d775f86040518163ffffffff1660e01b8152600401602060405180830381865afa1580156130ad573d6000803e3d6000fd5b505050506040513d601f19601f820116820180604052508101906130d191906149e7565b6130e160e08a0160c08b0161473f565b6130f26101008b0160e08c016144e9565b6131e061310260208d018d61446f565b896001600160a01b0316638e6262426040518163ffffffff1660e01b8152600401602060405180830381865afa158015613140573d6000803e3d6000fd5b505050506040513d601f19601f820116820180604052508101906131649190614523565b8a6001600160a01b031663ff2117436040518163ffffffff1660e01b8152600401602060405180830381865afa1580156131a2573d6000803e3d6000fd5b505050506040513d601f19601f820116820180604052508101906131c69190614523565b6131d09190614a7c565b6131db906001614a95565b613f55565b886001600160a01b0316638e6262426040518163ffffffff1660e01b8152600401602060405180830381865afa15801561321e573d6000803e3d6000fd5b505050506040513d601f19601f820116820180604052508101906132429190614523565b61324c9190614a95565b6040516001600160e01b031960e089901b168152600481019690965261ffff90941660248601526001600160801b0390921660448501526001600160601b0316606484015260ff90811660848401521660a482015260c401600060405180830381600087803b1580156132be57600080fd5b505af11580156132d2573d6000803e3d6000fd5b5050600a546001600160a01b031691506132f4905060e0860160c0870161473f565b6001600160601b03166001600160a01b03821663dd62ed3e613319602089018961446f565b6040516001600160e01b031960e084901b1681526001600160a01b039091166004820152306024820152604401602060405180830381865afa158015613363573d6000803e3d6000fd5b505050506040513d601f19601f8201168201806040525081019061338791906143de565b10156133d55760405162461bcd60e51b815260206004820152601f60248201527f53656e64657220616c6c6f77616e6365206d757374203e3d20616d6f756e7400604482015260640161060f565b6133e560e0860160c0870161473f565b6001600160601b03166001600160a01b0382166370a0823161340a602089018961446f565b6040516001600160e01b031960e084901b1681526001600160a01b039091166004820152602401602060405180830381865afa15801561344e573d6000803e3d6000fd5b505050506040513d601f19601f8201168201806040525081019061347291906143de565b10156134c05760405162461bcd60e51b815260206004820181905260248201527f53656e6465722062616c616e6365206d757374206265203e3d20616d6f756e74604482015260640161060f565b6001600160a01b0381166323b872dd6134dc602088018861446f565b856134ed60e08a0160c08b0161473f565b6040516001600160e01b031960e086901b1681526001600160a01b0393841660048201529290911660248301526001600160601b031660448201526064016020604051808303816000875af115801561354a573d6000803e3d6000fd5b505050506040513d601f19601f8201168201806040525081019061356e91906146e6565b5060408501803590613583906020880161446f565b6001600160a01b03167f4b81188c3c973dd634ec0dae5b7e72f92bb03834c830739d63935923950d6f646135ba606089018961448c565b6135ca60a08b0160808c016144e9565b426135db60c08d0160a08e01614506565b896001600160a01b03166357d775f86040518163ffffffff1660e01b8152600401602060405180830381865afa158015613619573d6000803e3d6000fd5b505050506040513d601f19601f8201168201806040525081019061363d91906149e7565b8d60c0016020810190613650919061473f565b6040516111119796959493929190614aae565b6001546040516000916001600160a01b0316906345ed59e5908490613692908a908a908a908a90602001614b05565b6040516020818303038152906040526040518363ffffffff1660e01b81526004016136be929190614b33565b6020604051808303816000875af11580156136dd573d6000803e3d6000fd5b505050506040513d601f19601f8201168201806040525081019061370191906143de565b9695505050505050565b6008546040516001600160a01b0390911690600090613732908990899089906020016147da565b60408051808303601f1901815290829052805160209091012063c45d174960e01b82526004820181905291506001600160a01b0383169063c45d174990602401602060405180830381865afa15801561378f573d6000803e3d6000fd5b505050506040513d601f19601f820116820180604052508101906137b391906146e6565b156138005760405162461bcd60e51b815260206004820152601960248201527f4e6f64652068617320616c726561647920636f6d6d6974656400000000000000604482015260640161060f565b60405163572943f760e01b81526004810189905261ffff881660248201526000906001600160a01b0384169063572943f790604401602060405180830381865afa158015613852573d6000803e3d6000fd5b505050506040513d601f19601f8201168201806040525081019061387691906143de565b600654604051635b3db70f60e11b8152600481018390529192506001600160a01b039081169160009186169063b67b6e1e90602401602060405180830381865afa1580156138c8573d6000803e3d6000fd5b505050506040513d601f19601f820116820180604052508101906138ec91906143c3565b90506000826001600160a01b0316638d73d86a6040518163ffffffff1660e01b8152600401602060405180830381865afa15801561392e573d6000803e3d6000fd5b505050506040513d601f19601f82011682018060405250810190613952919061480a565b905060005b604051635c6c1fef60e01b8152600481018690526001600160a01b03881690635c6c1fef90602401602060405180830381865afa15801561399c573d6000803e3d6000fd5b505050506040513d601f19601f820116820180604052508101906139c09190614696565b64ffffffffff168864ffffffffff161080156139e457506001600160481b03831615155b80156139f857508163ffffffff168160ff16105b15613a9d578c8c84604051602001613a12939291906147da565b60408051808303601f19018152908290528051602090910120635b3db70f60e11b82526004820181905295506001600160a01b0388169063b67b6e1e90602401602060405180830381865afa158015613a6f573d6000803e3d6000fd5b505050506040513d601f19601f82011682018060405250810190613a9391906143c3565b9250600101613957565b8163ffffffff168160ff1610613af55760405162461bcd60e51b815260206004820152601860248201527f4e6f64652072616e6b2073686f756c64206265203c2052300000000000000000604482015260640161060f565b60405163cf57ca2f60e01b8152600481018790526001600160481b03808d166024830152808c1660448301528a16606482015264ffffffffff891660848201526001600160a01b0388169063cf57ca2f9060a401600060405180830381600087803b158015613b6357600080fd5b505af1158015613b77573d6000803e3d6000fd5b505060405163223dea6d60e21b815260048101889052600092506001600160a01b038a1691506388f7a9b490602401608060405180830381865afa158015613bc3573d6000803e3d6000fd5b505050506040513d601f19601f82011682018060405250810190613be79190614937565b905060ff8216158015613c02575080516001600160481b0316155b15613c775760405163447b6fab60e11b8152600481018f905261ffff8e166024820152604481018890526001600160a01b038916906388f6df5690606401600060405180830381600087803b158015613c5a57600080fd5b505af1158015613c6e573d6000803e3d6000fd5b50505050613da0565b60ff8216158015613c9a5750806060015164ffffffffff168964ffffffffff1611155b15613cb457613caf8e8e83600001518f613fb5565b613da0565b60ff8216158015613cd65750806060015164ffffffffff168964ffffffffff16115b15613d565760405163447b6fab60e11b8152600481018f905261ffff8e166024820152604481018890526001600160a01b038916906388f6df5690606401600060405180830381600087803b158015613d2e57600080fd5b505af1158015613d42573d6000803e3d6000fd5b50505050613caf8e8e8e8460000151613fb5565b806060015164ffffffffff168964ffffffffff161115613d9057613d808e8e83602001518f613fb5565b613caf8e8e8e8460000151613fb5565b613da08e8e83600001518f613fb5565b5050505050505050505050505050565b600054604051638d5d2d8560e01b81523360048201526001600160a01b0390911690638d5d2d8590602401602060405180830381865afa158015613df8573d6000803e3d6000fd5b505050506040513d601f19601f82011682018060405250810190613e1c91906146e6565b613e685760405162461bcd60e51b815260206004820152601f60248201527f466e2063616e206f6e6c792062652063616c6c65642062792061737365747300604482015260640161060f565b565b600082613e7785846140f2565b14949350505050565b60008054906101000a90046001600160a01b03166001600160a01b0316638da5cb5b6040518163ffffffff1660e01b8152600401602060405180830381865afa158015613ed1573d6000803e3d6000fd5b505050506040513d601f19601f82011682018060405250810190613ef591906149ca565b6001600160a01b0316336001600160a01b031614613e685760405162461bcd60e51b815260206004820181905260248201527f466e2063616e206f6e6c79206265207573656420627920687562206f776e6572604482015260640161060f565b604080514260208201526bffffffffffffffffffffffff19606085901b169181019190915243605482015260009060ff8316906074016040516020818303038152906040528051906020012060001c613fae919061445b565b9392505050565b6008546040516001600160a01b03909116908190638a0f01b590613fe1908890889088906020016147da565b60408051601f198184030181529082905280516020909101206001600160e01b031960e084901b16825260048201526001600160481b0385166024820152604401600060405180830381600087803b15801561403c57600080fd5b505af1158015614050573d6000803e3d6000fd5b50505050806001600160a01b031663e184b9e8868685604051602001614078939291906147da565b60408051601f198184030181529082905280516020909101206001600160e01b031960e084901b16825260048201526001600160481b0386166024820152604401600060405180830381600087803b1580156140d357600080fd5b505af11580156140e7573d6000803e3d6000fd5b505050505050505050565b600081815b84518110156141375761412382868381518110614116576141166149b4565b602002602001015161413f565b91508061412f81614b57565b9150506140f7565b509392505050565b600081831061415b576000828152602084905260409020613fae565b6000838152602083905260409020613fae565b60005b83811015614189578181015183820152602001614171565b50506000910152565b600081518084526141aa81602086016020860161416e565b601f01601f19169290920160200192915050565b602081526000613fae6020830184614192565b6001600160a01b03811681146141e657600080fd5b50565b61ffff811681146141e657600080fd5b6000806000806080858703121561420f57600080fd5b843561421a816141d1565b9350602085013561422a816141d1565b9250604085013591506060850135614241816141e9565b939692955090935050565b60006020828403121561425e57600080fd5b813567ffffffffffffffff81111561427557600080fd5b820160a08185031215613fae57600080fd5b60006020828403121561429957600080fd5b813567ffffffffffffffff8111156142b057600080fd5b82016101008185031215613fae57600080fd5b6000602082840312156142d557600080fd5b813567ffffffffffffffff8111156142ec57600080fd5b820160e08185031215613fae57600080fd5b6000806040838503121561431157600080fd5b823591506020830135614323816141e9565b809150509250929050565b602080825282518282018190526000919060409081850190868401855b8281101561439a57815180516001600160481b0390811686528782015181168887015286820151168686015260609081015164ffffffffff16908501526080909301929085019060010161434b565b5091979650505050505050565b80516001600160481b03811681146143be57600080fd5b919050565b6000602082840312156143d557600080fd5b613fae826143a7565b6000602082840312156143f057600080fd5b5051919050565b6001600160601b03811681146141e657600080fd5b60006020828403121561441e57600080fd5b8151613fae816143f7565b6000825161443b81846020870161416e565b9190910192915050565b634e487b7160e01b600052601260045260246000fd5b60008261446a5761446a614445565b500690565b60006020828403121561448157600080fd5b8135613fae816141d1565b6000808335601e198436030181126144a357600080fd5b83018035915067ffffffffffffffff8211156144be57600080fd5b6020019150368190038213156144d357600080fd5b9250929050565b60ff811681146141e657600080fd5b6000602082840312156144fb57600080fd5b8135613fae816144da565b60006020828403121561451857600080fd5b8135613fae816141e9565b60006020828403121561453557600080fd5b8151613fae816144da565b634e487b7160e01b600052604160045260246000fd5b60006020828403121561456857600080fd5b815167ffffffffffffffff8082111561458057600080fd5b818401915084601f83011261459457600080fd5b8151818111156145a6576145a6614540565b604051601f8201601f19908116603f011681019083821181831017156145ce576145ce614540565b816040528281528760208487010111156145e757600080fd5b6145f883602083016020880161416e565b979650505050505050565b81835281816020850137506000828201602090810191909152601f909101601f19169091010190565b60ff8716815260ff8616602082015260a06040820152600061465160a0830187614192565b8281036060840152614664818688614603565b9150506001600160601b0383166080830152979650505050505050565b805164ffffffffff811681146143be57600080fd5b6000602082840312156146a857600080fd5b613fae82614681565b6060815260006146c5606083018688614603565b905060ff8416602083015264ffffffffff8316604083015295945050505050565b6000602082840312156146f857600080fd5b81518015158114613fae57600080fd5b6020808252601f908201527f536572766963652041677265656d656e7420646f65736e277420657869737400604082015260600190565b60006020828403121561475157600080fd5b8135613fae816143f7565b634e487b7160e01b600052601160045260246000fd5b6001600160601b038281168282160390808211156147925761479261475c565b5092915050565b6080815260006147ad608083018789614603565b60ff9590951660208301525061ffff9290921660408301526001600160601b031660609091015292915050565b92835260f09190911b6001600160f01b031916602083015260b81b6001600160b81b0319166022820152602b0190565b60006020828403121561481c57600080fd5b815163ffffffff81168114613fae57600080fd5b6000808335601e1984360301811261484757600080fd5b83018035915067ffffffffffffffff82111561486257600080fd5b6020019150600581901b36038213156144d357600080fd5b60408152600061488e604083018587614603565b905060ff83166020830152949350505050565b63ffffffff8281168282160390808211156147925761479261475c565b6000602082840312156148d057600080fd5b8151613fae816141e9565b61ffff8281168282160390808211156147925761479261475c565b61ffff8181168382160190808211156147925761479261475c565b60006001600160601b038084168061492b5761492b614445565b92169190910492915050565b60006080828403121561494957600080fd5b6040516080810181811067ffffffffffffffff8211171561496c5761496c614540565b604052614978836143a7565b8152614986602084016143a7565b6020820152614997604084016143a7565b60408201526149a860608401614681565b60608201529392505050565b634e487b7160e01b600052603260045260246000fd5b6000602082840312156149dc57600080fd5b8151613fae816141d1565b6000602082840312156149f957600080fd5b81516001600160801b0381168114613fae57600080fd5b60006001600160801b0380831681851681830481118215151615614a3657614a3661475c565b02949350505050565b60006001600160801b038084168061492b5761492b614445565b80820180821115611fe557611fe561475c565b8183823760009101908152919050565b60ff8281168282160390811115611fe557611fe561475c565b60ff8181168382160190811115611fe557611fe561475c565b60c081526000614ac260c08301898b614603565b60ff97909716602083015250604081019490945261ffff9290921660608401526001600160801b031660808301526001600160601b031660a09091015292915050565b6001600160601b03198560601b16815283601482015281836034830137600091016034019081529392505050565b60ff83168152604060208201526000614b4f6040830184614192565b949350505050565b600060018201614b6957614b6961475c565b506001019056fea2646970667358221220c03aacde0ae9b1209f66806079e527a854dac6576a36890e1a21c2dc44e1950164736f6c63430008100033",
  "immutableReferences": {},
  "source": "// SPDX-License-Identifier: MIT\n\npragma solidity ^0.8.4;\n\nimport { HashingProxy } from \"./HashingProxy.sol\";\nimport { Hub } from \"./Hub.sol\";\nimport { ScoringProxy } from \"./ScoringProxy.sol\";\nimport { Staking } from \"./Staking.sol\";\nimport { AbstractAsset } from \"./assets/AbstractAsset.sol\";\nimport { AssertionStorage } from \"./storage/AssertionStorage.sol\";\nimport { IdentityStorage } from \"./storage/IdentityStorage.sol\";\nimport { ParametersStorage } from \"./storage/ParametersStorage.sol\";\nimport { ProfileStorage } from \"./storage/ProfileStorage.sol\";\nimport { ServiceAgreementStorageV1 } from \"./storage/ServiceAgreementStorageV1.sol\";\nimport { StakingStorage } from \"./storage/StakingStorage.sol\";\nimport { Named } from \"./interface/Named.sol\";\nimport { Versioned } from \"./interface/Versioned.sol\";\nimport { ServiceAgreementStructsV1 } from \"./structs/ServiceAgreementStructsV1.sol\";\nimport { IERC20 } from \"@openzeppelin/contracts/token/ERC20/IERC20.sol\";\nimport { MerkleProof } from \"@openzeppelin/contracts/utils/cryptography/MerkleProof.sol\";\n\ncontract ServiceAgreementV1 is Named, Versioned {\n\n    event ServiceAgreementV1Created(\n        address indexed assetContract,\n        uint256 indexed tokenId,\n        bytes keyword,\n        uint8 hashFunctionId,\n        uint256 startTime,\n        uint16 epochsNumber,\n        uint128 epochLength,\n        uint96 tokenAmount\n    );\n    event ServiceAgreementV1Updated(\n        address indexed assetContract,\n        uint256 indexed tokenId,\n        bytes keyword,\n        uint8 hashFunctionId,\n        uint16 epochsNumber,\n        uint96 tokenAmount\n    );\n    event CommitSubmitted(\n        address indexed assetContract,\n        uint256 indexed tokenId,\n        bytes keyword,\n        uint8 hashFunctionId,\n        uint72 indexed identityId,\n        uint40 score\n    );\n    event ProofSubmitted(\n        address indexed assetContract,\n        uint256 indexed tokenId,\n        bytes keyword,\n        uint8 hashFunctionId,\n        uint72 indexed identityId\n    );\n\n    string constant private _NAME = \"ServiceAgreementV1\";\n    string constant private _VERSION = \"1.0.0\";\n\n    Hub public hub;\n    HashingProxy public hashingProxy;\n    ScoringProxy public scoringProxy;\n    Staking public stakingContract;\n    AssertionStorage public assertionStorage;\n    IdentityStorage public identityStorage;\n    ParametersStorage public parametersStorage;\n    ProfileStorage public profileStorage;\n    ServiceAgreementStorageV1 public serviceAgreementStorageV1;\n    StakingStorage public stakingStorage;\n    IERC20 public tokenContract;\n\n    constructor (address hubAddress) {\n        require(hubAddress != address(0));\n\n        hub = Hub(hubAddress);\n    }\n\n    modifier onlyHubOwner() {\n\t\t_checkHubOwner();\n\t\t_;\n\t}\n\n    modifier onlyAssetContracts() {\n        _checkAssetContract();\n        _;\n    }\n\n    function initialize() public onlyHubOwner {\n\t\thashingProxy = HashingProxy(hub.getContractAddress(\"HashingProxy\"));\n        scoringProxy = ScoringProxy(hub.getContractAddress(\"ScoringProxy\"));\n        stakingContract = Staking(hub.getContractAddress(\"Staking\"));\n        assertionStorage = AssertionStorage(hub.getContractAddress(\"AssertionStorage\"));\n        identityStorage = IdentityStorage(hub.getContractAddress(\"IdentityStorage\"));\n        parametersStorage = ParametersStorage(hub.getContractAddress(\"ParametersStorage\"));\n        profileStorage = ProfileStorage(hub.getContractAddress(\"ProfileStorage\"));\n        serviceAgreementStorageV1 = ServiceAgreementStorageV1(hub.getContractAddress(\"ServiceAgreementStorageV1\"));\n        stakingStorage = StakingStorage(hub.getContractAddress(\"StakingStorage\"));\n        tokenContract = IERC20(hub.getContractAddress(\"Token\"));\n\t}\n\n    function name() external pure virtual override returns (string memory) {\n        return _NAME;\n    }\n\n    function version() external pure virtual override returns (string memory) {\n        return _VERSION;\n    }\n\n    function createServiceAgreement(ServiceAgreementStructsV1.ServiceAgreementInputArgs calldata args)\n        external\n        onlyAssetContracts\n    {\n        require(args.assetCreator != address(0), \"Asset creator cannot be 0x0\");\n        require(hub.isAssetContract(args.assetContract), \"Asset Contract not in the hub\");\n        require(keccak256(args.keyword) != keccak256(\"\"), \"Keyword can't be empty\");\n        require(args.epochsNumber != 0, \"Epochs number cannot be 0\");\n        require(args.tokenAmount != 0, \"Token amount cannot be 0\");\n        require(scoringProxy.isScoreFunction(args.scoreFunctionId), \"Score function doesn't exist\");\n\n        bytes32 agreementId = _generateAgreementId(args.assetContract, args.tokenId, args.keyword, args.hashFunctionId);\n\n        ServiceAgreementStorageV1 sasV1 = serviceAgreementStorageV1;\n        ParametersStorage params = parametersStorage;\n\n        sasV1.createServiceAgreementObject(\n            agreementId,\n            args.epochsNumber,\n            params.epochLength(),\n            args.tokenAmount,\n            args.scoreFunctionId,\n            params.minProofWindowOffsetPerc() + _generatePseudorandomUint8(\n                args.assetCreator,\n                params.maxProofWindowOffsetPerc() - params.minProofWindowOffsetPerc() + 1\n            )\n        );\n\n        IERC20 tknc = tokenContract;\n        require(\n            tknc.allowance(args.assetCreator, address(this)) >= args.tokenAmount,\n            \"Sender allowance must >= amount\"\n        );\n        require(tknc.balanceOf(args.assetCreator) >= args.tokenAmount, \"Sender balance must be >= amount\");\n\n        tknc.transferFrom(args.assetCreator, address(sasV1), args.tokenAmount);\n\n        emit ServiceAgreementV1Created(\n            args.assetContract,\n            args.tokenId,\n            args.keyword,\n            args.hashFunctionId,\n            block.timestamp,\n            args.epochsNumber,\n            params.epochLength(),\n            args.tokenAmount\n        );\n    }\n\n    // TODO: Split into smaller functions [update only epochsNumber / tokenAmount / scoreFunctionId etc.]\n    function updateServiceAgreement(ServiceAgreementStructsV1.ServiceAgreementInputArgs calldata args)\n        external\n        onlyAssetContracts\n    {\n        bytes32 agreementId = _generateAgreementId(args.assetContract, args.tokenId, args.keyword, args.hashFunctionId);\n\n        ServiceAgreementStorageV1 sasV1 = serviceAgreementStorageV1;\n\n        require(args.assetCreator != address(0), \"Asset creator cannot be 0x0\");\n        require(sasV1.serviceAgreementExists(agreementId), \"Service Agreement doesn't exist\");\n        require(args.epochsNumber != 0, \"Epochs number cannot be 0\");\n        require(args.tokenAmount != 0, \"Token amount cannot be 0\");\n        require(scoringProxy.isScoreFunction(args.scoreFunctionId), \"Score function doesn't exist\");\n\n        uint96 actualRewardAmount = sasV1.getAgreementTokenAmount(agreementId);\n\n        sasV1.setAgreementEpochsNumber(agreementId, args.epochsNumber);\n        sasV1.setAgreementTokenAmount(agreementId, args.tokenAmount);\n        sasV1.setAgreementScoreFunctionId(agreementId, args.scoreFunctionId);\n\n        IERC20 tknc = tokenContract;\n\n        require(\n            tknc.allowance(args.assetCreator, address(this)) >= (args.tokenAmount - actualRewardAmount),\n            \"Sender allowance must be >= amount\"\n        );\n        require(\n            tknc.balanceOf(args.assetCreator) >= (args.tokenAmount - actualRewardAmount),\n            \"Sender balance must be >= amount\"\n        );\n\n        tknc.transferFrom(args.assetCreator, address(sasV1), args.tokenAmount - actualRewardAmount);\n\n        emit ServiceAgreementV1Updated(\n            args.assetContract,\n            args.tokenId,\n            args.keyword,\n            args.hashFunctionId,\n            args.epochsNumber,\n            args.tokenAmount\n        );\n    }\n\n    function isCommitWindowOpen(bytes32 agreementId, uint16 epoch) public view returns (bool) {\n        ServiceAgreementStorageV1 sasV1 = serviceAgreementStorageV1;\n        uint256 startTime = sasV1.getAgreementStartTime(agreementId);\n\n        require(startTime != 0, \"Service Agreement doesn't exist\");\n        require(epoch < sasV1.getAgreementEpochsNumber(agreementId), \"Service Agreement has been expired\");\n\n        ParametersStorage params = parametersStorage;\n        uint256 timeNow = block.timestamp;\n        uint128 epochLength = sasV1.getAgreementEpochLength(agreementId);\n\n        if (epoch == 0) {\n            return timeNow < (startTime + params.commitWindowDuration());\n        }\n\n        return (\n            timeNow > (startTime + epochLength * epoch) &&\n            timeNow < (startTime + epochLength * epoch + params.commitWindowDuration())\n        );\n    }\n\n    function getTopCommitSubmissions(bytes32 agreementId, uint16 epoch)\n        external\n        view\n        returns (ServiceAgreementStructsV1.CommitSubmission[] memory)\n    {\n        ServiceAgreementStorageV1 sasV1 = serviceAgreementStorageV1;\n\n        require(sasV1.serviceAgreementExists(agreementId), \"Service Agreement doesn't exist\");\n        require(epoch < sasV1.getAgreementEpochsNumber(agreementId), \"Service Agreement expired\");\n\n        uint32 r0 = parametersStorage.R0();\n\n        ServiceAgreementStructsV1.CommitSubmission[] memory epochCommits =\n            new ServiceAgreementStructsV1.CommitSubmission[](r0);\n\n        bytes32 epochSubmissionsHead = sasV1.getAgreementEpochSubmissionHead(agreementId, epoch);\n\n        epochCommits[0] = sasV1.getCommitSubmission(epochSubmissionsHead);\n\n        bytes32 commitId;\n        uint72 nextIdentityId = epochCommits[0].nextIdentityId;\n        uint8 submissionsIdx = 1;\n        while((submissionsIdx < r0) && (nextIdentityId != 0)) {\n            commitId = keccak256(abi.encodePacked(agreementId, epoch, nextIdentityId));\n            epochCommits[submissionsIdx] = sasV1.getCommitSubmission(commitId);\n\n            nextIdentityId = epochCommits[submissionsIdx].nextIdentityId;\n\n            unchecked { submissionsIdx++; }\n        }\n\n        return epochCommits;\n    }\n\n    function submitCommit(ServiceAgreementStructsV1.CommitInputArgs calldata args) external {\n        bytes32 agreementId = _generateAgreementId(args.assetContract, args.tokenId, args.keyword, args.hashFunctionId);\n\n        require(isCommitWindowOpen(agreementId, args.epoch), \"Commit window is closed\");\n\n        uint72 identityId = identityStorage.getIdentityId(msg.sender);\n\n        uint40 score = scoringProxy.callScoreFunction(\n            serviceAgreementStorageV1.getAgreementScoreFunctionId(agreementId),\n            args.hashFunctionId,\n            profileStorage.getNodeId(identityId),\n            args.keyword,\n            stakingStorage.totalStakes(identityId)\n        );\n\n        _insertCommit(\n            agreementId,\n            args.epoch,\n            identityId,\n            0,\n            0,\n            score\n        );\n\n        emit CommitSubmitted(\n            args.assetContract,\n            args.tokenId,\n            args.keyword,\n            args.hashFunctionId,\n            identityId,\n            score\n        );\n    }\n\n    function isProofWindowOpen(bytes32 agreementId, uint16 epoch) public view returns (bool) {\n        ServiceAgreementStorageV1 sasV1 = serviceAgreementStorageV1;\n        uint256 startTime = sasV1.getAgreementStartTime(agreementId);\n\n        require(startTime != 0, \"Service Agreement doesn't exist\");\n        require(epoch < sasV1.getAgreementEpochsNumber(agreementId), \"Service Agreement expired\");\n\n        uint256 timeNow = block.timestamp;\n        uint128 epochLength = sasV1.getAgreementEpochLength(agreementId);\n        uint8 proofWindowOffsetPerc = sasV1.getAgreementProofWindowOffsetPerc(agreementId);\n\n        uint256 proofWindowOffset = epochLength * proofWindowOffsetPerc / 100;\n        uint256 proofWindowDuration = epochLength * parametersStorage.proofWindowDurationPerc() / 100;\n\n        return (\n            timeNow > (startTime + epochLength * epoch + proofWindowOffset) &&\n            timeNow < (startTime + epochLength * epoch + proofWindowOffset + proofWindowDuration)\n        );\n    }\n\n    function getChallenge(address sender, address assetContract, uint256 tokenId, uint16 epoch)\n        public\n        view\n        returns (bytes32, uint256)\n    {\n        uint72 identityId = identityStorage.getIdentityId(sender);\n\n        AbstractAsset generalAssetInterface = AbstractAsset(assetContract);\n        bytes32 assertionId = generalAssetInterface.getLatestAssertionId(tokenId);\n\n        uint256 assertionChunksNumber = assertionStorage.getAssertionChunksNumber(assertionId);\n\n        // blockchash() function only works for last 256 blocks (25.6 min window in case of 6s block time)\n        // TODO: figure out how to achieve randomness\n        return (\n            assertionId,\n            uint256(\n                sha256(abi.encodePacked(epoch, identityId))\n            ) % assertionChunksNumber\n        );\n    }\n\n    function sendProof(ServiceAgreementStructsV1.ProofInputArgs calldata args) external {\n        bytes32 agreementId = _generateAgreementId(args.assetContract, args.tokenId, args.keyword, args.hashFunctionId);\n\n        require(isProofWindowOpen(agreementId, args.epoch), \"Proof window is closed\");\n\n        IdentityStorage ids = identityStorage;\n\n        uint72 identityId = ids.getIdentityId(msg.sender);\n\n        ServiceAgreementStorageV1 sasV1 = serviceAgreementStorageV1;\n\n        require(\n            sasV1.getCommitSubmissionScore(keccak256(abi.encodePacked(agreementId, args.epoch, identityId))) != 0,\n            \"You've been already rewarded\"\n        );\n\n        bytes32 nextCommitId = sasV1.getAgreementEpochSubmissionHead(agreementId, args.epoch);\n        uint32 r0 = parametersStorage.R0();\n        uint8 i;\n        while ((identityId != sasV1.getCommitSubmissionsIdentityId(nextCommitId)) && (i < r0)) {\n            nextCommitId = keccak256(\n                abi.encodePacked(agreementId, args.epoch, sasV1.getCommitSubmissionNextIdentityId(nextCommitId))\n            );\n            unchecked { i++; }\n        }\n\n        require(i < r0, \"Your node hasn't been awarded for this asset in this epoch\");\n\n        bytes32 merkleRoot;\n        uint256 challenge;\n        (merkleRoot, challenge) = getChallenge(msg.sender, args.assetContract, args.tokenId, args.epoch);\n\n        require(\n            MerkleProof.verify(args.proof, merkleRoot, keccak256(abi.encodePacked(args.chunkHash, challenge))),\n            \"Root hash doesn't match\"\n        );\n\n        emit ProofSubmitted(\n            args.assetContract,\n            args.tokenId,\n            args.keyword,\n            args.hashFunctionId,\n            identityId\n        );\n\n        uint96 reward = (\n            sasV1.getAgreementTokenAmount(agreementId) /\n            (sasV1.getAgreementEpochsNumber(agreementId) - args.epoch + 1) /\n            (r0 - sasV1.getAgreementRewardedNodesNumber(agreementId, args.epoch))\n        );\n\n        stakingContract.addReward(identityId, reward);\n        sasV1.setAgreementTokenAmount(agreementId, sasV1.getAgreementTokenAmount(agreementId) - reward);\n        sasV1.incrementAgreementRewardedNodesNumber(agreementId, args.epoch);\n\n        // To make sure that node already received reward\n        sasV1.setCommitSubmissionScore(keccak256(abi.encodePacked(agreementId, args.epoch, identityId)), 0);\n    }\n\n    function _insertCommit(\n        bytes32 agreementId,\n        uint16 epoch,\n        uint72 identityId,\n        uint72 prevIdentityId,\n        uint72 nextIdentityId,\n        uint40 score\n    )\n        private\n    {\n        ServiceAgreementStorageV1 sasV1 = serviceAgreementStorageV1;\n\n        bytes32 commitId = keccak256(abi.encodePacked(agreementId, epoch, identityId));\n\n        require(!sasV1.commitSubmissionExists(commitId), \"Node has already commited\");\n\n        bytes32 refCommitId = sasV1.getAgreementEpochSubmissionHead(agreementId, epoch);\n\n        ParametersStorage params = parametersStorage;\n\n        uint72 refCommitNextIdentityId = sasV1.getCommitSubmissionNextIdentityId(refCommitId);\n        uint32 r0 = params.R0();\n        uint8 i;\n        while (\n            (score <  sasV1.getCommitSubmissionScore(refCommitId)) &&\n            (refCommitNextIdentityId != 0) &&\n            (i < r0)\n        ) {\n            refCommitId = keccak256(\n                abi.encodePacked(agreementId, epoch, refCommitNextIdentityId)\n            );\n\n            refCommitNextIdentityId = sasV1.getCommitSubmissionNextIdentityId(refCommitId);\n            unchecked { i++; }\n        }\n\n        require(i < r0, \"Node rank should be < R0\");\n\n        sasV1.createCommitSubmissionObject(commitId, identityId, prevIdentityId, nextIdentityId, score);\n\n        ServiceAgreementStructsV1.CommitSubmission memory refCommit = sasV1.getCommitSubmission(refCommitId);\n\n        if ((i == 0) && (refCommit.identityId == 0)) {\n            //  No head -> Setting new head\n            sasV1.setAgreementEpochSubmissionHead(agreementId, epoch, commitId);\n        } else if ((i == 0) && (score <= refCommit.score)) {\n            // There is a head with higher or equal score, add new commit on the right\n            _link_commits(agreementId, epoch, refCommit.identityId, identityId);\n        } else if ((i == 0) && (score > refCommit.score)) {\n            // There is a head with lower score, replace the head\n            sasV1.setAgreementEpochSubmissionHead(agreementId, epoch, commitId);\n            _link_commits(agreementId, epoch, identityId, refCommit.identityId);\n        }  else if (score > refCommit.score) {\n            // [H] - head\n            // [RC] - reference commit\n            // [RC-] - commit before reference commit\n            // [RC+] - commit after reference commit\n            // [NC] - new commit\n            // [] <-> [H] <-> [X] ... [RC-] <-> [RC] <-> [RC+] ... [C] <-> []\n            // [] <-> [H] <-> [X] ... [RC-] <-(NL)-> [NC] <-(NL)-> [RC] <-> [RC+] ... [C] <-> []\n            _link_commits(agreementId, epoch, refCommit.prevIdentityId, identityId);\n            _link_commits(agreementId, epoch, identityId, refCommit.identityId);\n        } else {\n            // [] <-> [H] <-> [RC] <-> []\n            // [] <-> [H] <-> [RC] <-(NL)-> [NC] <-> []\n            _link_commits(agreementId, epoch, refCommit.identityId, identityId);\n        }\n    }\n\n    function _link_commits(bytes32 agreementId, uint16 epoch, uint72 leftIdentityId, uint72 rightIdentityId) private {\n        ServiceAgreementStorageV1 sasV1 = serviceAgreementStorageV1;\n\n        sasV1.setCommitSubmissionNextIdentityId(\n            keccak256(abi.encodePacked(agreementId, epoch, leftIdentityId)),  // leftCommitId\n            rightIdentityId\n        );\n\n        sasV1.setCommitSubmissionPrevIdentityId(\n            keccak256(abi.encodePacked(agreementId, epoch, rightIdentityId)),  // rightCommitId\n            leftIdentityId\n        );\n    }\n\n    function _generateAgreementId(address assetContract, uint256 tokenId, bytes calldata keyword, uint8 hashFunctionId)\n        private\n        returns (bytes32)\n    {\n        return hashingProxy.callHashFunction(hashFunctionId, abi.encodePacked(assetContract, tokenId, keyword));\n    }\n\n    function _generatePseudorandomUint8(address sender, uint8 limit) private view returns (uint8) {\n        return uint8(uint256(keccak256(abi.encodePacked(block.timestamp, sender, block.number))) % limit);\n    }\n\n    function _checkHubOwner() internal view virtual {\n\t\trequire(msg.sender == hub.owner(), \"Fn can only be used by hub owner\");\n\t}\n\n    function _checkAssetContract() internal view virtual {\n        require (hub.isAssetContract(msg.sender), \"Fn can only be called by assets\");\n    }\n\n}\n",
  "sourcePath": "/Users/waving/Desktop/OriginTrail/dkg-evm-module/contracts/ServiceAgreementV1.sol",
  "compiler": {
    "name": "solc",
    "version": "0.8.16+commit.07a7930e.Emscripten.clang"
  },
  "schemaVersion": "3.4.10",
  "updatedAt": "2022-12-06T03:50:29.732Z",
  "devdoc": {
    "kind": "dev",
    "methods": {},
    "version": 1
  },
  "userdoc": {
    "kind": "user",
    "methods": {},
    "version": 1
  }
}