{
  "contractName": "ServiceAgreementStorage",
  "abi": [
    {
      "inputs": [
        {
          "internalType": "address",
          "name": "hubAddress",
          "type": "address"
        }
      ],
      "stateMutability": "nonpayable",
      "type": "constructor"
    },
    {
      "anonymous": false,
      "inputs": [
        {
          "indexed": true,
          "internalType": "address",
          "name": "assetContract",
          "type": "address"
        },
        {
          "indexed": true,
          "internalType": "uint256",
          "name": "tokenId",
          "type": "uint256"
        },
        {
          "indexed": false,
          "internalType": "bytes",
          "name": "keyword",
          "type": "bytes"
        },
        {
          "indexed": false,
          "internalType": "uint8",
          "name": "hashFunctionId",
          "type": "uint8"
        },
        {
          "indexed": true,
          "internalType": "uint96",
          "name": "identityId",
          "type": "uint96"
        },
        {
          "indexed": false,
          "internalType": "bytes",
          "name": "nodeId",
          "type": "bytes"
        },
        {
          "indexed": false,
          "internalType": "uint32",
          "name": "score",
          "type": "uint32"
        }
      ],
      "name": "CommitSubmitted",
      "type": "event"
    },
    {
      "anonymous": false,
      "inputs": [
        {
          "indexed": true,
          "internalType": "address",
          "name": "assetContract",
          "type": "address"
        },
        {
          "indexed": true,
          "internalType": "uint256",
          "name": "tokenId",
          "type": "uint256"
        },
        {
          "indexed": false,
          "internalType": "bytes",
          "name": "keyword",
          "type": "bytes"
        },
        {
          "indexed": false,
          "internalType": "uint8",
          "name": "hashFunctionId",
          "type": "uint8"
        },
        {
          "indexed": true,
          "internalType": "uint96",
          "name": "identityId",
          "type": "uint96"
        },
        {
          "indexed": false,
          "internalType": "bytes",
          "name": "nodeId",
          "type": "bytes"
        }
      ],
      "name": "ProofSubmitted",
      "type": "event"
    },
    {
      "anonymous": false,
      "inputs": [
        {
          "indexed": true,
          "internalType": "address",
          "name": "assetContract",
          "type": "address"
        },
        {
          "indexed": true,
          "internalType": "uint256",
          "name": "tokenId",
          "type": "uint256"
        },
        {
          "indexed": false,
          "internalType": "bytes",
          "name": "keyword",
          "type": "bytes"
        },
        {
          "indexed": false,
          "internalType": "uint8",
          "name": "hashFunctionId",
          "type": "uint8"
        },
        {
          "indexed": false,
          "internalType": "uint256",
          "name": "startTime",
          "type": "uint256"
        },
        {
          "indexed": false,
          "internalType": "uint16",
          "name": "epochsNumber",
          "type": "uint16"
        },
        {
          "indexed": false,
          "internalType": "uint128",
          "name": "epochLength",
          "type": "uint128"
        },
        {
          "indexed": false,
          "internalType": "uint96",
          "name": "tokenAmount",
          "type": "uint96"
        }
      ],
      "name": "ServiceAgreementCreated",
      "type": "event"
    },
    {
      "anonymous": false,
      "inputs": [
        {
          "indexed": true,
          "internalType": "address",
          "name": "assetContract",
          "type": "address"
        },
        {
          "indexed": true,
          "internalType": "uint256",
          "name": "tokenId",
          "type": "uint256"
        },
        {
          "indexed": false,
          "internalType": "bytes",
          "name": "keyword",
          "type": "bytes"
        },
        {
          "indexed": false,
          "internalType": "uint8",
          "name": "hashFunctionId",
          "type": "uint8"
        },
        {
          "indexed": false,
          "internalType": "uint16",
          "name": "epochsNumber",
          "type": "uint16"
        },
        {
          "indexed": false,
          "internalType": "uint96",
          "name": "tokenAmount",
          "type": "uint96"
        }
      ],
      "name": "ServiceAgreementUpdated",
      "type": "event"
    },
    {
      "inputs": [],
      "name": "hub",
      "outputs": [
        {
          "internalType": "contract Hub",
          "name": "",
          "type": "address"
        }
      ],
      "stateMutability": "view",
      "type": "function"
    },
    {
      "inputs": [
        {
          "internalType": "bytes32",
          "name": "agreementId",
          "type": "bytes32"
        }
      ],
      "name": "getAgreementData",
      "outputs": [
        {
          "internalType": "uint256",
          "name": "",
          "type": "uint256"
        },
        {
          "internalType": "uint16",
          "name": "",
          "type": "uint16"
        },
        {
          "internalType": "uint128",
          "name": "",
          "type": "uint128"
        },
        {
          "internalType": "uint96",
          "name": "",
          "type": "uint96"
        },
        {
          "internalType": "uint8",
          "name": "",
          "type": "uint8"
        },
        {
          "internalType": "uint8",
          "name": "",
          "type": "uint8"
        }
      ],
      "stateMutability": "view",
      "type": "function"
    },
    {
      "inputs": [
        {
          "internalType": "bytes32",
          "name": "agreementId",
          "type": "bytes32"
        }
      ],
      "name": "getAgreementStartTime",
      "outputs": [
        {
          "internalType": "uint256",
          "name": "",
          "type": "uint256"
        }
      ],
      "stateMutability": "view",
      "type": "function"
    },
    {
      "inputs": [
        {
          "internalType": "bytes32",
          "name": "agreementId",
          "type": "bytes32"
        }
      ],
      "name": "getAgreementEpochsNumber",
      "outputs": [
        {
          "internalType": "uint16",
          "name": "",
          "type": "uint16"
        }
      ],
      "stateMutability": "view",
      "type": "function"
    },
    {
      "inputs": [
        {
          "internalType": "bytes32",
          "name": "agreementId",
          "type": "bytes32"
        }
      ],
      "name": "getAgreementEpochLength",
      "outputs": [
        {
          "internalType": "uint128",
          "name": "",
          "type": "uint128"
        }
      ],
      "stateMutability": "view",
      "type": "function"
    },
    {
      "inputs": [
        {
          "internalType": "bytes32",
          "name": "agreementId",
          "type": "bytes32"
        }
      ],
      "name": "getAgreementTokenAmount",
      "outputs": [
        {
          "internalType": "uint96",
          "name": "",
          "type": "uint96"
        }
      ],
      "stateMutability": "view",
      "type": "function"
    },
    {
      "inputs": [
        {
          "internalType": "bytes32",
          "name": "agreementId",
          "type": "bytes32"
        }
      ],
      "name": "getAgreementScoreFunctionId",
      "outputs": [
        {
          "internalType": "uint8",
          "name": "",
          "type": "uint8"
        }
      ],
      "stateMutability": "view",
      "type": "function"
    },
    {
      "inputs": [
        {
          "internalType": "bytes32",
          "name": "agreementId",
          "type": "bytes32"
        }
      ],
      "name": "getAgreementProofWindowOffsetPerc",
      "outputs": [
        {
          "internalType": "uint8",
          "name": "",
          "type": "uint8"
        }
      ],
      "stateMutability": "view",
      "type": "function"
    },
    {
      "inputs": [
        {
          "internalType": "address",
          "name": "operationalWallet",
          "type": "address"
        },
        {
          "internalType": "address",
          "name": "assetContract",
          "type": "address"
        },
        {
          "internalType": "uint256",
          "name": "tokenId",
          "type": "uint256"
        },
        {
          "internalType": "bytes",
          "name": "keyword",
          "type": "bytes"
        },
        {
          "internalType": "uint8",
          "name": "hashFunctionId",
          "type": "uint8"
        },
        {
          "internalType": "uint16",
          "name": "epochsNumber",
          "type": "uint16"
        },
        {
          "internalType": "uint96",
          "name": "tokenAmount",
          "type": "uint96"
        },
        {
          "internalType": "uint8",
          "name": "scoreFunctionId",
          "type": "uint8"
        }
      ],
      "name": "createServiceAgreement",
      "outputs": [],
      "stateMutability": "nonpayable",
      "type": "function"
    },
    {
      "inputs": [
        {
          "internalType": "address",
          "name": "operationalWallet",
          "type": "address"
        },
        {
          "internalType": "address",
          "name": "assetContract",
          "type": "address"
        },
        {
          "internalType": "uint256",
          "name": "tokenId",
          "type": "uint256"
        },
        {
          "internalType": "bytes",
          "name": "keyword",
          "type": "bytes"
        },
        {
          "internalType": "uint8",
          "name": "hashFunctionId",
          "type": "uint8"
        },
        {
          "internalType": "uint16",
          "name": "epochsNumber",
          "type": "uint16"
        },
        {
          "internalType": "uint96",
          "name": "tokenAmount",
          "type": "uint96"
        }
      ],
      "name": "updateServiceAgreement",
      "outputs": [],
      "stateMutability": "nonpayable",
      "type": "function"
    },
    {
      "inputs": [
        {
          "internalType": "bytes32",
          "name": "agreementId",
          "type": "bytes32"
        },
        {
          "internalType": "uint16",
          "name": "epoch",
          "type": "uint16"
        }
      ],
      "name": "isCommitWindowOpen",
      "outputs": [
        {
          "internalType": "bool",
          "name": "",
          "type": "bool"
        }
      ],
      "stateMutability": "view",
      "type": "function"
    },
    {
      "inputs": [
        {
          "internalType": "bytes32",
          "name": "agreementId",
          "type": "bytes32"
        },
        {
          "internalType": "uint16",
          "name": "epoch",
          "type": "uint16"
        }
      ],
      "name": "getCommitSubmissions",
      "outputs": [
        {
          "components": [
            {
              "internalType": "uint96",
              "name": "identityId",
              "type": "uint96"
            },
            {
              "internalType": "uint96",
              "name": "nextIdentityId",
              "type": "uint96"
            },
            {
              "internalType": "uint32",
              "name": "score",
              "type": "uint32"
            }
          ],
          "internalType": "struct ServiceAgreementStorage.CommitSubmission[]",
          "name": "",
          "type": "tuple[]"
        }
      ],
      "stateMutability": "view",
      "type": "function"
    },
    {
      "inputs": [
        {
          "internalType": "address",
          "name": "assetContract",
          "type": "address"
        },
        {
          "internalType": "uint256",
          "name": "tokenId",
          "type": "uint256"
        },
        {
          "internalType": "bytes",
          "name": "keyword",
          "type": "bytes"
        },
        {
          "internalType": "uint8",
          "name": "hashFunctionId",
          "type": "uint8"
        },
        {
          "internalType": "uint16",
          "name": "epoch",
          "type": "uint16"
        },
        {
          "internalType": "uint96",
          "name": "prevIdentityId",
          "type": "uint96"
        }
      ],
      "name": "submitCommit",
      "outputs": [],
      "stateMutability": "nonpayable",
      "type": "function"
    },
    {
      "inputs": [
        {
          "internalType": "bytes32",
          "name": "agreementId",
          "type": "bytes32"
        },
        {
          "internalType": "uint16",
          "name": "epoch",
          "type": "uint16"
        }
      ],
      "name": "isProofWindowOpen",
      "outputs": [
        {
          "internalType": "bool",
          "name": "",
          "type": "bool"
        }
      ],
      "stateMutability": "view",
      "type": "function"
    },
    {
      "inputs": [
        {
          "internalType": "address",
          "name": "sender",
          "type": "address"
        },
        {
          "internalType": "address",
          "name": "assetContract",
          "type": "address"
        },
        {
          "internalType": "uint256",
          "name": "tokenId",
          "type": "uint256"
        },
        {
          "internalType": "uint16",
          "name": "epoch",
          "type": "uint16"
        }
      ],
      "name": "getChallenge",
      "outputs": [
        {
          "internalType": "bytes32",
          "name": "",
          "type": "bytes32"
        },
        {
          "internalType": "uint256",
          "name": "",
          "type": "uint256"
        }
      ],
      "stateMutability": "view",
      "type": "function"
    },
    {
      "inputs": [
        {
          "internalType": "address",
          "name": "assetContract",
          "type": "address"
        },
        {
          "internalType": "uint256",
          "name": "tokenId",
          "type": "uint256"
        },
        {
          "internalType": "bytes",
          "name": "keyword",
          "type": "bytes"
        },
        {
          "internalType": "uint8",
          "name": "hashFunctionId",
          "type": "uint8"
        },
        {
          "internalType": "uint16",
          "name": "epoch",
          "type": "uint16"
        },
        {
          "internalType": "bytes32[]",
          "name": "proof",
          "type": "bytes32[]"
        },
        {
          "internalType": "bytes32",
          "name": "chunkHash",
          "type": "bytes32"
        }
      ],
      "name": "sendProof",
      "outputs": [],
      "stateMutability": "nonpayable",
      "type": "function"
    },
    {
      "inputs": [
        {
          "internalType": "bytes32",
          "name": "agreementId",
          "type": "bytes32"
        },
        {
          "internalType": "uint8",
          "name": "newScoreFunctionId",
          "type": "uint8"
        }
      ],
      "name": "setScoringFunction",
      "outputs": [],
      "stateMutability": "nonpayable",
      "type": "function"
    }
  ],
  "bytecode": "0x60806040523480156200001157600080fd5b5060405162005d9938038062005d99833981810160405281019062000037919062000122565b600073ffffffffffffffffffffffffffffffffffffffff168173ffffffffffffffffffffffffffffffffffffffff16036200007157600080fd5b806000806101000a81548173ffffffffffffffffffffffffffffffffffffffff021916908373ffffffffffffffffffffffffffffffffffffffff1602179055505062000154565b600080fd5b600073ffffffffffffffffffffffffffffffffffffffff82169050919050565b6000620000ea82620000bd565b9050919050565b620000fc81620000dd565b81146200010857600080fd5b50565b6000815190506200011c81620000f1565b92915050565b6000602082840312156200013b576200013a620000b8565b5b60006200014b848285016200010b565b91505092915050565b615c3580620001646000396000f3fe608060405234801561001057600080fd5b506004361061010b5760003560e01c806399149f77116100a2578063be82c4e211610071578063be82c4e214610308578063becdd59714610324578063ce60dc6114610354578063d1a640c714610384578063fc348cb6146103b45761010b565b806399149f771461025c5780639c70b3c01461028c578063aa6a00fd146102bc578063b1f38350146102ec5761010b565b80634fb96d50116100de5780634fb96d50146101bf57806361f14ece146101ef5780636ff015ae1461020b57806385e57f57146102405761010b565b80630f00201614610110578063365a86fc146101415780634089a17d1461015f578063484a47e71461018f575b600080fd5b61012a60048036038101906101259190613ad6565b6103d0565b604051610138929190613b65565b60405180910390f35b61014961072d565b6040516101569190613bed565b60405180910390f35b61017960048036038101906101749190613c34565b610751565b6040516101869190613c88565b60405180910390f35b6101a960048036038101906101a49190613c34565b610789565b6040516101b69190613cce565b60405180910390f35b6101d960048036038101906101d49190613ce9565b6107c5565b6040516101e69190613e48565b60405180910390f35b61020960048036038101906102049190614015565b610bd2565b005b61022560048036038101906102209190613c34565b6110ec565b604051610237969594939291906140f1565b60405180910390f35b61025a60048036038101906102559190614152565b6111f0565b005b61027660048036038101906102719190613c34565b611779565b60405161028391906141fb565b60405180910390f35b6102a660048036038101906102a19190613c34565b6117a6565b6040516102b39190614216565b60405180910390f35b6102d660048036038101906102d19190613ce9565b6117c6565b6040516102e3919061424c565b60405180910390f35b61030660048036038101906103019190614267565b611abf565b005b610322600480360381019061031d91906142a7565b611bcb565b005b61033e60048036038101906103399190613ce9565b612074565b60405161034b919061424c565b60405180910390f35b61036e60048036038101906103699190613c34565b612264565b60405161037b91906141fb565b60405180910390f35b61039e60048036038101906103999190613c34565b612291565b6040516103ab9190614379565b60405180910390f35b6103ce60048036038101906103c9919061445c565b6122bf565b005b60008060008060009054906101000a900473ffffffffffffffffffffffffffffffffffffffff1673ffffffffffffffffffffffffffffffffffffffff166304433bbc6040518163ffffffff1660e01b815260040161042d90614593565b602060405180830381865afa15801561044a573d6000803e3d6000fd5b505050506040513d601f19601f8201168201806040525081019061046e91906145c8565b905060008173ffffffffffffffffffffffffffffffffffffffff1663867a4680896040518263ffffffff1660e01b81526004016104ab9190614604565b602060405180830381865afa1580156104c8573d6000803e3d6000fd5b505050506040513d601f19601f820116820180604052508101906104ec9190614634565b9050600087905060008173ffffffffffffffffffffffffffffffffffffffff16637c29b293896040518263ffffffff1660e01b815260040161052e9190614216565b602060405180830381865afa15801561054b573d6000803e3d6000fd5b505050506040513d601f19601f8201168201806040525081019061056f9190614676565b905060008060009054906101000a900473ffffffffffffffffffffffffffffffffffffffff1673ffffffffffffffffffffffffffffffffffffffff166304433bbc6040518163ffffffff1660e01b81526004016105cb906146ef565b602060405180830381865afa1580156105e8573d6000803e3d6000fd5b505050506040513d601f19601f8201168201806040525081019061060c91906145c8565b905060008173ffffffffffffffffffffffffffffffffffffffff1663ec82e3a7846040518263ffffffff1660e01b8152600401610649919061470f565b602060405180830381865afa158015610666573d6000803e3d6000fd5b505050506040513d601f19601f8201168201806040525081019061068a9190614634565b6bffffffffffffffffffffffff169050828160028b886040516020016106b1929190614796565b6040516020818303038152906040526040516106cd919061483c565b602060405180830381855afa1580156106ea573d6000803e3d6000fd5b5050506040513d601f19601f8201168201806040525081019061070d9190614676565b60001c61071a9190614882565b9750975050505050505094509492505050565b60008054906101000a900473ffffffffffffffffffffffffffffffffffffffff1681565b60006002600083815260200190815260200160002060010160129054906101000a90046bffffffffffffffffffffffff169050919050565b60006002600083815260200190815260200160002060010160029054906101000a90046fffffffffffffffffffffffffffffffff169050919050565b606060008060009054906101000a900473ffffffffffffffffffffffffffffffffffffffff1673ffffffffffffffffffffffffffffffffffffffff166304433bbc6040518163ffffffff1660e01b8152600401610821906148ff565b602060405180830381865afa15801561083e573d6000803e3d6000fd5b505050506040513d601f19601f8201168201806040525081019061086291906145c8565b905060008173ffffffffffffffffffffffffffffffffffffffff1663fee2cb056040518163ffffffff1660e01b8152600401602060405180830381865afa1580156108b1573d6000803e3d6000fd5b505050506040513d601f19601f820116820180604052508101906108d5919061495d565b65ffffffffffff1667ffffffffffffffff8111156108f6576108f5613e85565b5b60405190808252806020026020018201604052801561092f57816020015b61091c6139b1565b8152602001906001900390816109145790505b50905060006002600087815260200190815260200160002060020160008661ffff1661ffff1681526020019081526020016000205490506000600160008381526020019081526020016000206040518060600160405290816000820160009054906101000a90046bffffffffffffffffffffffff166bffffffffffffffffffffffff166bffffffffffffffffffffffff16815260200160008201600c9054906101000a90046bffffffffffffffffffffffff166bffffffffffffffffffffffff166bffffffffffffffffffffffff1681526020016000820160189054906101000a900463ffffffff1663ffffffff1663ffffffff1681525050838260ff1681518110610a3e57610a3d61498a565b5b6020026020010181905250600060016000848152602001908152602001600020600001600c9054906101000a90046bffffffffffffffffffffffff1690505b6000816bffffffffffffffffffffffff1614610bc4576000888883604051602001610aaa939291906149da565b6040516020818303038152906040528051906020012090506000600160008381526020019081526020016000206040518060600160405290816000820160009054906101000a90046bffffffffffffffffffffffff166bffffffffffffffffffffffff166bffffffffffffffffffffffff16815260200160008201600c9054906101000a90046bffffffffffffffffffffffff166bffffffffffffffffffffffff166bffffffffffffffffffffffff1681526020016000820160189054906101000a900463ffffffff1663ffffffff1663ffffffff168152505090508380610b9190614a46565b94505080868560ff1681518110610bab57610baa61498a565b5b6020026020010181905250806020015192505050610a7d565b839550505050505092915050565b60008054906101000a900473ffffffffffffffffffffffffffffffffffffffff1673ffffffffffffffffffffffffffffffffffffffff16638d5d2d85336040518263ffffffff1660e01b8152600401610c2b9190614604565b602060405180830381865afa158015610c48573d6000803e3d6000fd5b505050506040513d601f19601f82011682018060405250810190610c6c9190614a9b565b610cab576040517f08c379a0000000000000000000000000000000000000000000000000000000008152600401610ca290614b3a565b60405180910390fd5b6000610cb987878787612d5b565b905060006002600083815260200190815260200160002060010160129054906101000a90046bffffffffffffffffffffffff169050836002600084815260200190815260200160002060010160006101000a81548161ffff021916908361ffff160217905550826002600084815260200190815260200160002060010160126101000a8154816bffffffffffffffffffffffff02191690836bffffffffffffffffffffffff16021790555060008060009054906101000a900473ffffffffffffffffffffffffffffffffffffffff1673ffffffffffffffffffffffffffffffffffffffff166304433bbc6040518163ffffffff1660e01b8152600401610dbe90614ba6565b602060405180830381865afa158015610ddb573d6000803e3d6000fd5b505050506040513d601f19601f82011682018060405250810190610dff91906145c8565b90508382610e0d9190614bc6565b6bffffffffffffffffffffffff168173ffffffffffffffffffffffffffffffffffffffff1663dd62ed3e8c306040518363ffffffff1660e01b8152600401610e56929190614bfa565b602060405180830381865afa158015610e73573d6000803e3d6000fd5b505050506040513d601f19601f82011682018060405250810190610e979190614c38565b1015610ed8576040517f08c379a0000000000000000000000000000000000000000000000000000000008152600401610ecf90614cd7565b60405180910390fd5b8382610ee49190614bc6565b6bffffffffffffffffffffffff168173ffffffffffffffffffffffffffffffffffffffff166370a082318c6040518263ffffffff1660e01b8152600401610f2b9190614604565b602060405180830381865afa158015610f48573d6000803e3d6000fd5b505050506040513d601f19601f82011682018060405250810190610f6c9190614c38565b1015610fad576040517f08c379a0000000000000000000000000000000000000000000000000000000008152600401610fa490614d69565b60405180910390fd5b8073ffffffffffffffffffffffffffffffffffffffff166323b872dd8b308786610fd79190614bc6565b6040518463ffffffff1660e01b8152600401610ff593929190614dba565b6020604051808303816000875af1158015611014573d6000803e3d6000fd5b505050506040513d601f19601f820116820180604052508101906110389190614a9b565b50878973ffffffffffffffffffffffffffffffffffffffff167f1abad9d03c6b61f6b6714655a41bdc5b88318ce5136915a9c8751a74ad5a30b989896002600089815260200190815260200160002060010160009054906101000a900461ffff16600260008a815260200190815260200160002060010160129054906101000a90046bffffffffffffffffffffffff166040516110d89493929190614e3b565b60405180910390a350505050505050505050565b60008060008060008060026000888152602001908152602001600020600001546002600089815260200190815260200160002060010160009054906101000a900461ffff16600260008a815260200190815260200160002060010160029054906101000a90046fffffffffffffffffffffffffffffffff16600260008b815260200190815260200160002060010160129054906101000a90046bffffffffffffffffffffffff16600260008c8152602001908152602001600020600101601e9054906101000a900460ff16600260008d8152602001908152602001600020600101601f9054906101000a900460ff1695509550955095509550955091939550919395565b60006111fe87878787612d5b565b905061120a8184612074565b611249576040517f08c379a000000000000000000000000000000000000000000000000000000000815260040161124090614ed3565b60405180910390fd5b60008060009054906101000a900473ffffffffffffffffffffffffffffffffffffffff1673ffffffffffffffffffffffffffffffffffffffff166304433bbc6040518163ffffffff1660e01b81526004016112a390614593565b602060405180830381865afa1580156112c0573d6000803e3d6000fd5b505050506040513d601f19601f820116820180604052508101906112e491906145c8565b905060008173ffffffffffffffffffffffffffffffffffffffff1663867a4680336040518263ffffffff1660e01b81526004016113219190614604565b602060405180830381865afa15801561133e573d6000803e3d6000fd5b505050506040513d601f19601f820116820180604052508101906113629190614634565b905060008060009054906101000a900473ffffffffffffffffffffffffffffffffffffffff1673ffffffffffffffffffffffffffffffffffffffff166304433bbc6040518163ffffffff1660e01b81526004016113be90614f3f565b602060405180830381865afa1580156113db573d6000803e3d6000fd5b505050506040513d601f19601f820116820180604052508101906113ff91906145c8565b905060008060009054906101000a900473ffffffffffffffffffffffffffffffffffffffff1673ffffffffffffffffffffffffffffffffffffffff166304433bbc6040518163ffffffff1660e01b815260040161145b90614fab565b602060405180830381865afa158015611478573d6000803e3d6000fd5b505050506040513d601f19601f8201168201806040525081019061149c91906145c8565b905060008173ffffffffffffffffffffffffffffffffffffffff16630b47a00860026000898152602001908152602001600020600101601e9054906101000a900460ff168b8673ffffffffffffffffffffffffffffffffffffffff16636c5c281c896040518263ffffffff1660e01b815260040161151a9190613c88565b600060405180830381865afa158015611537573d6000803e3d6000fd5b505050506040513d6000823e3d601f19601f82011682018060405250810190611560919061503b565b8e8873ffffffffffffffffffffffffffffffffffffffff16631860bd8e8b6040518263ffffffff1660e01b815260040161159a9190613c88565b602060405180830381865afa1580156115b7573d6000803e3d6000fd5b505050506040513d601f19601f820116820180604052508101906115db9190614634565b6040518663ffffffff1660e01b81526004016115fb959493929190615084565b6020604051808303816000875af115801561161a573d6000803e3d6000fd5b505050506040513d601f19601f8201168201806040525081019061163e9190615111565b90506116898689896040518060600160405280896bffffffffffffffffffffffff16815260200160006bffffffffffffffffffffffff1681526020018663ffffffff16815250612ea4565b836bffffffffffffffffffffffff168b8d73ffffffffffffffffffffffffffffffffffffffff167f216ae8cf3a7e83235b21d65afff2deeeed219e9cc836bcc0fa976f143610e9658d8d8873ffffffffffffffffffffffffffffffffffffffff16636c5c281c8b6040518263ffffffff1660e01b815260040161170c9190613c88565b600060405180830381865afa158015611729573d6000803e3d6000fd5b505050506040513d6000823e3d601f19601f82011682018060405250810190611752919061503b565b87604051611763949392919061514d565b60405180910390a4505050505050505050505050565b600060026000838152602001908152602001600020600101601f9054906101000a900460ff169050919050565b600060026000838152602001908152602001600020600001549050919050565b600080429050600060026000868152602001908152602001600020905060008060009054906101000a900473ffffffffffffffffffffffffffffffffffffffff1673ffffffffffffffffffffffffffffffffffffffff166304433bbc6040518163ffffffff1660e01b815260040161183d906148ff565b602060405180830381865afa15801561185a573d6000803e3d6000fd5b505050506040513d601f19601f8201168201806040525081019061187e91906145c8565b90506000606483600101601f9054906101000a900460ff1660ff168460010160009054906101000a900461ffff1661ffff168560010160029054906101000a90046fffffffffffffffffffffffffffffffff166118db91906151a0565b6118e591906151a0565b6118ef91906151ea565b6fffffffffffffffffffffffffffffffff169050600060648373ffffffffffffffffffffffffffffffffffffffff16639d3ceb0c6040518163ffffffff1660e01b8152600401602060405180830381865afa158015611952573d6000803e3d6000fd5b505050506040513d601f19601f820116820180604052508101906119769190615230565b60ff168560010160009054906101000a900461ffff1661ffff168660010160029054906101000a90046fffffffffffffffffffffffffffffffff166119bb91906151a0565b6119c591906151a0565b6119cf91906151ea565b6fffffffffffffffffffffffffffffffff169050818761ffff168560010160029054906101000a90046fffffffffffffffffffffffffffffffff16611a1491906151a0565b6fffffffffffffffffffffffffffffffff168560000154611a35919061525d565b611a3f919061525d565b85118015611ab2575080828861ffff168660010160029054906101000a90046fffffffffffffffffffffffffffffffff16611a7a91906151a0565b6fffffffffffffffffffffffffffffffff168660000154611a9b919061525d565b611aa5919061525d565b611aaf919061525d565b85105b9550505050505092915050565b60008054906101000a900473ffffffffffffffffffffffffffffffffffffffff1673ffffffffffffffffffffffffffffffffffffffff16638d5d2d85336040518263ffffffff1660e01b8152600401611b189190614604565b602060405180830381865afa158015611b35573d6000803e3d6000fd5b505050506040513d601f19601f82011682018060405250810190611b599190614a9b565b611b98576040517f08c379a0000000000000000000000000000000000000000000000000000000008152600401611b8f90614b3a565b60405180910390fd5b8060026000848152602001908152602001600020600101601e6101000a81548160ff021916908360ff1602179055505050565b60008054906101000a900473ffffffffffffffffffffffffffffffffffffffff1673ffffffffffffffffffffffffffffffffffffffff16638d5d2d85336040518263ffffffff1660e01b8152600401611c249190614604565b602060405180830381865afa158015611c41573d6000803e3d6000fd5b505050506040513d601f19601f82011682018060405250810190611c659190614a9b565b611ca4576040517f08c379a0000000000000000000000000000000000000000000000000000000008152600401611c9b90614b3a565b60405180910390fd5b6000611cb288888888612d5b565b9050611cc189828686866134d1565b60008060009054906101000a900473ffffffffffffffffffffffffffffffffffffffff1673ffffffffffffffffffffffffffffffffffffffff166304433bbc6040518163ffffffff1660e01b8152600401611d1b90614ba6565b602060405180830381865afa158015611d38573d6000803e3d6000fd5b505050506040513d601f19601f82011682018060405250810190611d5c91906145c8565b9050836bffffffffffffffffffffffff168173ffffffffffffffffffffffffffffffffffffffff1663dd62ed3e8c306040518363ffffffff1660e01b8152600401611da8929190614bfa565b602060405180830381865afa158015611dc5573d6000803e3d6000fd5b505050506040513d601f19601f82011682018060405250810190611de99190614c38565b1015611e2a576040517f08c379a0000000000000000000000000000000000000000000000000000000008152600401611e2190614cd7565b60405180910390fd5b836bffffffffffffffffffffffff168173ffffffffffffffffffffffffffffffffffffffff166370a082318c6040518263ffffffff1660e01b8152600401611e729190614604565b602060405180830381865afa158015611e8f573d6000803e3d6000fd5b505050506040513d601f19601f82011682018060405250810190611eb39190614c38565b1015611ef4576040517f08c379a0000000000000000000000000000000000000000000000000000000008152600401611eeb90614d69565b60405180910390fd5b8073ffffffffffffffffffffffffffffffffffffffff166323b872dd8b30876040518463ffffffff1660e01b8152600401611f3193929190614dba565b6020604051808303816000875af1158015611f50573d6000803e3d6000fd5b505050506040513d601f19601f82011682018060405250810190611f749190614a9b565b50878973ffffffffffffffffffffffffffffffffffffffff167f48298191f59170e97201484d4a3de75065cea587a165788d1f19459fabd39a5e898960026000888152602001908152602001600020600001546002600089815260200190815260200160002060010160009054906101000a900461ffff16600260008a815260200190815260200160002060010160029054906101000a90046fffffffffffffffffffffffffffffffff16600260008b815260200190815260200160002060010160129054906101000a90046bffffffffffffffffffffffff16604051612060969594939291906152b3565b60405180910390a350505050505050505050565b600080429050600060026000868152602001908152602001600020905060008060009054906101000a900473ffffffffffffffffffffffffffffffffffffffff1673ffffffffffffffffffffffffffffffffffffffff166304433bbc6040518163ffffffff1660e01b81526004016120eb906148ff565b602060405180830381865afa158015612108573d6000803e3d6000fd5b505050506040513d601f19601f8201168201806040525081019061212c91906145c8565b90508461ffff168260010160029054906101000a90046fffffffffffffffffffffffffffffffff1661215e91906151a0565b6fffffffffffffffffffffffffffffffff16826000015461217f919061525d565b8311801561225957508073ffffffffffffffffffffffffffffffffffffffff1663e8d487ff6040518163ffffffff1660e01b8152600401602060405180830381865afa1580156121d3573d6000803e3d6000fd5b505050506040513d601f19601f820116820180604052508101906121f79190615330565b61ffff168561ffff168360010160029054906101000a90046fffffffffffffffffffffffffffffffff1661222b91906151a0565b6fffffffffffffffffffffffffffffffff16836000015461224c919061525d565b612256919061525d565b83105b935050505092915050565b600060026000838152602001908152602001600020600101601e9054906101000a900460ff169050919050565b60006002600083815260200190815260200160002060010160009054906101000a900461ffff169050919050565b60006122cd88888888612d5b565b90506122d981856117c6565b15612319576040517f08c379a0000000000000000000000000000000000000000000000000000000008152600401612310906153a9565b60405180910390fd5b60008060009054906101000a900473ffffffffffffffffffffffffffffffffffffffff1673ffffffffffffffffffffffffffffffffffffffff166304433bbc6040518163ffffffff1660e01b815260040161237390614593565b602060405180830381865afa158015612390573d6000803e3d6000fd5b505050506040513d601f19601f820116820180604052508101906123b491906145c8565b73ffffffffffffffffffffffffffffffffffffffff1663867a4680336040518263ffffffff1660e01b81526004016123ec9190614604565b602060405180830381865afa158015612409573d6000803e3d6000fd5b505050506040513d601f19601f8201168201806040525081019061242d9190614634565b905060006001600084888560405160200161244a939291906149da565b60405160208183030381529060405280519060200120815260200190815260200160002060000160189054906101000a900463ffffffff1663ffffffff16036124c8576040517f08c379a00000000000000000000000000000000000000000000000000000000081526004016124bf9061543b565b60405180910390fd5b60006002600084815260200190815260200160002060020160008761ffff1661ffff16815260200190815260200160002054905060008060009054906101000a900473ffffffffffffffffffffffffffffffffffffffff1673ffffffffffffffffffffffffffffffffffffffff166304433bbc6040518163ffffffff1660e01b8152600401612556906148ff565b602060405180830381865afa158015612573573d6000803e3d6000fd5b505050506040513d601f19601f8201168201806040525081019061259791906145c8565b905060005b6001600084815260200190815260200160002060000160009054906101000a90046bffffffffffffffffffffffff166bffffffffffffffffffffffff16846bffffffffffffffffffffffff161415801561266f57508173ffffffffffffffffffffffffffffffffffffffff16638d73d86a6040518163ffffffff1660e01b8152600401602060405180830381865afa15801561263c573d6000803e3d6000fd5b505050506040513d601f19601f820116820180604052508101906126609190615111565b63ffffffff168163ffffffff16105b156126e257848860016000868152602001908152602001600020600001600c9054906101000a90046bffffffffffffffffffffffff166040516020016126b7939291906149da565b60405160208183030381529060405280519060200120925080806126da9061545b565b91505061259c565b8173ffffffffffffffffffffffffffffffffffffffff16638d73d86a6040518163ffffffff1660e01b8152600401602060405180830381865afa15801561272d573d6000803e3d6000fd5b505050506040513d601f19601f820116820180604052508101906127519190615111565b63ffffffff168163ffffffff161061279e576040517f08c379a0000000000000000000000000000000000000000000000000000000008152600401612795906154f9565b60405180910390fd5b6000806127ad338f8f8d6103d0565b80925081935050506127e889838a846040516020016127cd92919061553a565b60405160208183030381529060405280519060200120613841565b612827576040517f08c379a000000000000000000000000000000000000000000000000000000000815260040161281e906155b2565b60405180910390fd5b60008060009054906101000a900473ffffffffffffffffffffffffffffffffffffffff1673ffffffffffffffffffffffffffffffffffffffff166304433bbc6040518163ffffffff1660e01b815260040161288190614f3f565b602060405180830381865afa15801561289e573d6000803e3d6000fd5b505050506040513d601f19601f820116820180604052508101906128c291906145c8565b90506000600260008a815260200190815260200160002060030160008d61ffff1661ffff16815260200190815260200160002060009054906101000a900463ffffffff168673ffffffffffffffffffffffffffffffffffffffff16638d73d86a6040518163ffffffff1660e01b8152600401602060405180830381865afa158015612951573d6000803e3d6000fd5b505050506040513d601f19601f820116820180604052508101906129759190615111565b61297f91906155d2565b63ffffffff1660018d600260008d815260200190815260200160002060010160009054906101000a900461ffff166129b79190615606565b6129c1919061563a565b61ffff16600260008c815260200190815260200160002060010160129054906101000a90046bffffffffffffffffffffffff166129fe9190615672565b612a089190615672565b905060008054906101000a900473ffffffffffffffffffffffffffffffffffffffff1673ffffffffffffffffffffffffffffffffffffffff166304433bbc6040518163ffffffff1660e01b8152600401612a6190614ba6565b602060405180830381865afa158015612a7e573d6000803e3d6000fd5b505050506040513d601f19601f82011682018060405250810190612aa291906145c8565b73ffffffffffffffffffffffffffffffffffffffff1663a9059cbb83836040518363ffffffff1660e01b8152600401612adc9291906156a3565b6020604051808303816000875af1158015612afb573d6000803e3d6000fd5b505050506040513d601f19601f82011682018060405250810190612b1f9190614a9b565b508173ffffffffffffffffffffffffffffffffffffffff1663a4f9062389838573ffffffffffffffffffffffffffffffffffffffff166374cb0edb8d6040518263ffffffff1660e01b8152600401612b779190613c88565b602060405180830381865afa158015612b94573d6000803e3d6000fd5b505050506040513d601f19601f82011682018060405250810190612bb89190614634565b612bc291906156cc565b6040518363ffffffff1660e01b8152600401612bdf92919061570e565b600060405180830381600087803b158015612bf957600080fd5b505af1158015612c0d573d6000803e3d6000fd5b5050505080600260008b815260200190815260200160002060010160128282829054906101000a90046bffffffffffffffffffffffff16612c4e9190614bc6565b92506101000a8154816bffffffffffffffffffffffff02191690836bffffffffffffffffffffffff1602179055506001600260008b815260200190815260200160002060030160008e61ffff1661ffff16815260200190815260200160002060008282829054906101000a900463ffffffff16612ccb9190615737565b92506101000a81548163ffffffff021916908363ffffffff1602179055506000600160008b8f8c604051602001612d04939291906149da565b60405160208183030381529060405280519060200120815260200190815260200160002060000160186101000a81548163ffffffff021916908363ffffffff16021790555050505050505050505050505050505050565b60008060008054906101000a900473ffffffffffffffffffffffffffffffffffffffff1673ffffffffffffffffffffffffffffffffffffffff166304433bbc6040518163ffffffff1660e01b8152600401612db5906157bd565b602060405180830381865afa158015612dd2573d6000803e3d6000fd5b505050506040513d601f19601f82011682018060405250810190612df691906145c8565b90508073ffffffffffffffffffffffffffffffffffffffff166345ed59e584888888604051602001612e2a93929190615825565b6040516020818303038152906040526040518363ffffffff1660e01b8152600401612e5692919061585e565b6020604051808303816000875af1158015612e75573d6000803e3d6000fd5b505050506040513d601f19601f82011682018060405250810190612e999190614676565b915050949350505050565b600084848360000151604051602001612ebf939291906149da565b6040516020818303038152906040528051906020012090506000836bffffffffffffffffffffffff16036131445760006002600087815260200190815260200160002060020160008661ffff1661ffff168152602001908152602001600020549050600080821461304d576000600160008481526020019081526020016000206040518060600160405290816000820160009054906101000a90046bffffffffffffffffffffffff166bffffffffffffffffffffffff166bffffffffffffffffffffffff16815260200160008201600c9054906101000a90046bffffffffffffffffffffffff166bffffffffffffffffffffffff166bffffffffffffffffffffffff1681526020016000820160189054906101000a900463ffffffff1663ffffffff1663ffffffff1681525050905080600001519150806040015163ffffffff16856040015163ffffffff161161304b576040517f08c379a000000000000000000000000000000000000000000000000000000000815260040161304290615926565b60405180910390fd5b505b826002600089815260200190815260200160002060020160008861ffff1661ffff16815260200190815260200160002081905550836001600085815260200190815260200160002060008201518160000160006101000a8154816bffffffffffffffffffffffff02191690836bffffffffffffffffffffffff160217905550602082015181600001600c6101000a8154816bffffffffffffffffffffffff02191690836bffffffffffffffffffffffff16021790555060408201518160000160186101000a81548163ffffffff021916908363ffffffff16021790555090505061313d8787866000015184613858565b50506134ca565b600085858560405160200161315b939291906149da565b6040516020818303038152906040528051906020012090506000600160008381526020019081526020016000206040518060600160405290816000820160009054906101000a90046bffffffffffffffffffffffff166bffffffffffffffffffffffff166bffffffffffffffffffffffff16815260200160008201600c9054906101000a90046bffffffffffffffffffffffff166bffffffffffffffffffffffff166bffffffffffffffffffffffff1681526020016000820160189054906101000a900463ffffffff1663ffffffff1663ffffffff16815250509050806040015163ffffffff16846040015163ffffffff16111561328e576040517f08c379a0000000000000000000000000000000000000000000000000000000008152600401613285906159de565b60405180910390fd5b6000816020015190506000816bffffffffffffffffffffffff16146133fa5760008888836040516020016132c4939291906149da565b6040516020818303038152906040528051906020012090506000600160008381526020019081526020016000206040518060600160405290816000820160009054906101000a90046bffffffffffffffffffffffff166bffffffffffffffffffffffff166bffffffffffffffffffffffff16815260200160008201600c9054906101000a90046bffffffffffffffffffffffff166bffffffffffffffffffffffff166bffffffffffffffffffffffff1681526020016000820160189054906101000a900463ffffffff1663ffffffff1663ffffffff16815250509050806040015163ffffffff16876040015163ffffffff1610156133f7576040517f08c379a00000000000000000000000000000000000000000000000000000000081526004016133ee90615a96565b60405180910390fd5b50505b846001600086815260200190815260200160002060008201518160000160006101000a8154816bffffffffffffffffffffffff02191690836bffffffffffffffffffffffff160217905550602082015181600001600c6101000a8154816bffffffffffffffffffffffff02191690836bffffffffffffffffffffffff16021790555060408201518160000160186101000a81548163ffffffff021916908363ffffffff1602179055509050506134b68888888860000151613858565b6134c68888876000015184613858565b5050505b5050505050565b60008060009054906101000a900473ffffffffffffffffffffffffffffffffffffffff1673ffffffffffffffffffffffffffffffffffffffff166304433bbc6040518163ffffffff1660e01b815260040161352b906148ff565b602060405180830381865afa158015613548573d6000803e3d6000fd5b505050506040513d601f19601f8201168201806040525081019061356c91906145c8565b90506000600260008781526020019081526020016000209050428160000181905550848160010160006101000a81548161ffff021916908361ffff1602179055508173ffffffffffffffffffffffffffffffffffffffff166357d775f86040518163ffffffff1660e01b8152600401602060405180830381865afa1580156135f8573d6000803e3d6000fd5b505050506040513d601f19601f8201168201806040525081019061361c9190615ae2565b8160010160026101000a8154816fffffffffffffffffffffffffffffffff02191690836fffffffffffffffffffffffffffffffff1602179055506137538760018473ffffffffffffffffffffffffffffffffffffffff16638e6262426040518163ffffffff1660e01b8152600401602060405180830381865afa1580156136a7573d6000803e3d6000fd5b505050506040513d601f19601f820116820180604052508101906136cb9190615230565b8573ffffffffffffffffffffffffffffffffffffffff1663ff2117436040518163ffffffff1660e01b8152600401602060405180830381865afa158015613716573d6000803e3d6000fd5b505050506040513d601f19601f8201168201806040525081019061373a9190615230565b6137449190615b0f565b61374e9190615b43565b6138d3565b8273ffffffffffffffffffffffffffffffffffffffff16638e6262426040518163ffffffff1660e01b8152600401602060405180830381865afa15801561379e573d6000803e3d6000fd5b505050506040513d601f19601f820116820180604052508101906137c29190615230565b6137cc9190615b43565b81600101601f6101000a81548160ff021916908360ff160217905550838160010160126101000a8154816bffffffffffffffffffffffff02191690836bffffffffffffffffffffffff1602179055508281600101601e6101000a81548160ff021916908360ff16021790555050505050505050565b60008261384e8584613919565b1490509392505050565b600084848460405160200161386f939291906149da565b6040516020818303038152906040528051906020012090508160016000838152602001908152602001600020600001600c6101000a8154816bffffffffffffffffffffffff02191690836bffffffffffffffffffffffff1602179055505050505050565b60008160ff164284436040516020016138ee93929190615b7a565b6040516020818303038152906040528051906020012060001c6139119190614882565b905092915050565b60008082905060005b84518110156139645761394f828683815181106139425761394161498a565b5b602002602001015161396f565b9150808061395c90615bb7565b915050613922565b508091505092915050565b600081831061398757613982828461399a565b613992565b613991838361399a565b5b905092915050565b600082600052816020526040600020905092915050565b604051806060016040528060006bffffffffffffffffffffffff16815260200160006bffffffffffffffffffffffff168152602001600063ffffffff1681525090565b6000604051905090565b600080fd5b600080fd5b600073ffffffffffffffffffffffffffffffffffffffff82169050919050565b6000613a3382613a08565b9050919050565b613a4381613a28565b8114613a4e57600080fd5b50565b600081359050613a6081613a3a565b92915050565b6000819050919050565b613a7981613a66565b8114613a8457600080fd5b50565b600081359050613a9681613a70565b92915050565b600061ffff82169050919050565b613ab381613a9c565b8114613abe57600080fd5b50565b600081359050613ad081613aaa565b92915050565b60008060008060808587031215613af057613aef6139fe565b5b6000613afe87828801613a51565b9450506020613b0f87828801613a51565b9350506040613b2087828801613a87565b9250506060613b3187828801613ac1565b91505092959194509250565b6000819050919050565b613b5081613b3d565b82525050565b613b5f81613a66565b82525050565b6000604082019050613b7a6000830185613b47565b613b876020830184613b56565b9392505050565b6000819050919050565b6000613bb3613bae613ba984613a08565b613b8e565b613a08565b9050919050565b6000613bc582613b98565b9050919050565b6000613bd782613bba565b9050919050565b613be781613bcc565b82525050565b6000602082019050613c026000830184613bde565b92915050565b613c1181613b3d565b8114613c1c57600080fd5b50565b600081359050613c2e81613c08565b92915050565b600060208284031215613c4a57613c496139fe565b5b6000613c5884828501613c1f565b91505092915050565b60006bffffffffffffffffffffffff82169050919050565b613c8281613c61565b82525050565b6000602082019050613c9d6000830184613c79565b92915050565b60006fffffffffffffffffffffffffffffffff82169050919050565b613cc881613ca3565b82525050565b6000602082019050613ce36000830184613cbf565b92915050565b60008060408385031215613d0057613cff6139fe565b5b6000613d0e85828601613c1f565b9250506020613d1f85828601613ac1565b9150509250929050565b600081519050919050565b600082825260208201905092915050565b6000819050602082019050919050565b613d5e81613c61565b82525050565b600063ffffffff82169050919050565b613d7d81613d64565b82525050565b606082016000820151613d996000850182613d55565b506020820151613dac6020850182613d55565b506040820151613dbf6040850182613d74565b50505050565b6000613dd18383613d83565b60608301905092915050565b6000602082019050919050565b6000613df582613d29565b613dff8185613d34565b9350613e0a83613d45565b8060005b83811015613e3b578151613e228882613dc5565b9750613e2d83613ddd565b925050600181019050613e0e565b5085935050505092915050565b60006020820190508181036000830152613e628184613dea565b905092915050565b600080fd5b600080fd5b6000601f19601f8301169050919050565b7f4e487b7100000000000000000000000000000000000000000000000000000000600052604160045260246000fd5b613ebd82613e74565b810181811067ffffffffffffffff82111715613edc57613edb613e85565b5b80604052505050565b6000613eef6139f4565b9050613efb8282613eb4565b919050565b600067ffffffffffffffff821115613f1b57613f1a613e85565b5b613f2482613e74565b9050602081019050919050565b82818337600083830152505050565b6000613f53613f4e84613f00565b613ee5565b905082815260208101848484011115613f6f57613f6e613e6f565b5b613f7a848285613f31565b509392505050565b600082601f830112613f9757613f96613e6a565b5b8135613fa7848260208601613f40565b91505092915050565b600060ff82169050919050565b613fc681613fb0565b8114613fd157600080fd5b50565b600081359050613fe381613fbd565b92915050565b613ff281613c61565b8114613ffd57600080fd5b50565b60008135905061400f81613fe9565b92915050565b600080600080600080600060e0888a031215614034576140336139fe565b5b60006140428a828b01613a51565b97505060206140538a828b01613a51565b96505060406140648a828b01613a87565b955050606088013567ffffffffffffffff81111561408557614084613a03565b5b6140918a828b01613f82565b94505060806140a28a828b01613fd4565b93505060a06140b38a828b01613ac1565b92505060c06140c48a828b01614000565b91505092959891949750929550565b6140dc81613a9c565b82525050565b6140eb81613fb0565b82525050565b600060c0820190506141066000830189613b56565b61411360208301886140d3565b6141206040830187613cbf565b61412d6060830186613c79565b61413a60808301856140e2565b61414760a08301846140e2565b979650505050505050565b60008060008060008060c0878903121561416f5761416e6139fe565b5b600061417d89828a01613a51565b965050602061418e89828a01613a87565b955050604087013567ffffffffffffffff8111156141af576141ae613a03565b5b6141bb89828a01613f82565b94505060606141cc89828a01613fd4565b93505060806141dd89828a01613ac1565b92505060a06141ee89828a01614000565b9150509295509295509295565b600060208201905061421060008301846140e2565b92915050565b600060208201905061422b6000830184613b56565b92915050565b60008115159050919050565b61424681614231565b82525050565b6000602082019050614261600083018461423d565b92915050565b6000806040838503121561427e5761427d6139fe565b5b600061428c85828601613c1f565b925050602061429d85828601613fd4565b9150509250929050565b600080600080600080600080610100898b0312156142c8576142c76139fe565b5b60006142d68b828c01613a51565b98505060206142e78b828c01613a51565b97505060406142f88b828c01613a87565b965050606089013567ffffffffffffffff81111561431957614318613a03565b5b6143258b828c01613f82565b95505060806143368b828c01613fd4565b94505060a06143478b828c01613ac1565b93505060c06143588b828c01614000565b92505060e06143698b828c01613fd4565b9150509295985092959890939650565b600060208201905061438e60008301846140d3565b92915050565b600067ffffffffffffffff8211156143af576143ae613e85565b5b602082029050602081019050919050565b600080fd5b60006143d86143d384614394565b613ee5565b905080838252602082019050602084028301858111156143fb576143fa6143c0565b5b835b8181101561442457806144108882613c1f565b8452602084019350506020810190506143fd565b5050509392505050565b600082601f83011261444357614442613e6a565b5b81356144538482602086016143c5565b91505092915050565b600080600080600080600060e0888a03121561447b5761447a6139fe565b5b60006144898a828b01613a51565b975050602061449a8a828b01613a87565b965050604088013567ffffffffffffffff8111156144bb576144ba613a03565b5b6144c78a828b01613f82565b95505060606144d88a828b01613fd4565b94505060806144e98a828b01613ac1565b93505060a088013567ffffffffffffffff81111561450a57614509613a03565b5b6145168a828b0161442e565b92505060c06145278a828b01613c1f565b91505092959891949750929550565b600082825260208201905092915050565b7f4964656e7469747953746f726167650000000000000000000000000000000000600082015250565b600061457d600f83614536565b915061458882614547565b602082019050919050565b600060208201905081810360008301526145ac81614570565b9050919050565b6000815190506145c281613a3a565b92915050565b6000602082840312156145de576145dd6139fe565b5b60006145ec848285016145b3565b91505092915050565b6145fe81613a28565b82525050565b600060208201905061461960008301846145f5565b92915050565b60008151905061462e81613fe9565b92915050565b60006020828403121561464a576146496139fe565b5b60006146588482850161461f565b91505092915050565b60008151905061467081613c08565b92915050565b60006020828403121561468c5761468b6139fe565b5b600061469a84828501614661565b91505092915050565b7f417373657274696f6e5265676973747279000000000000000000000000000000600082015250565b60006146d9601183614536565b91506146e4826146a3565b602082019050919050565b60006020820190508181036000830152614708816146cc565b9050919050565b60006020820190506147246000830184613b47565b92915050565b60008160f01b9050919050565b60006147428261472a565b9050919050565b61475a61475582613a9c565b614737565b82525050565b60008160a01b9050919050565b600061477882614760565b9050919050565b61479061478b82613c61565b61476d565b82525050565b60006147a28285614749565b6002820191506147b2828461477f565b600c820191508190509392505050565b600081519050919050565b600081905092915050565b60005b838110156147f65780820151818401526020810190506147db565b83811115614805576000848401525b50505050565b6000614816826147c2565b61482081856147cd565b93506148308185602086016147d8565b80840191505092915050565b6000614848828461480b565b915081905092915050565b7f4e487b7100000000000000000000000000000000000000000000000000000000600052601260045260246000fd5b600061488d82613a66565b915061489883613a66565b9250826148a8576148a7614853565b5b828206905092915050565b7f506172616d657465727353746f72616765000000000000000000000000000000600082015250565b60006148e9601183614536565b91506148f4826148b3565b602082019050919050565b60006020820190508181036000830152614918816148dc565b9050919050565b600065ffffffffffff82169050919050565b61493a8161491f565b811461494557600080fd5b50565b60008151905061495781614931565b92915050565b600060208284031215614973576149726139fe565b5b600061498184828501614948565b91505092915050565b7f4e487b7100000000000000000000000000000000000000000000000000000000600052603260045260246000fd5b6000819050919050565b6149d46149cf82613b3d565b6149b9565b82525050565b60006149e682866149c3565b6020820191506149f68285614749565b600282019150614a06828461477f565b600c82019150819050949350505050565b7f4e487b7100000000000000000000000000000000000000000000000000000000600052601160045260246000fd5b6000614a5182613fb0565b915060ff8203614a6457614a63614a17565b5b600182019050919050565b614a7881614231565b8114614a8357600080fd5b50565b600081519050614a9581614a6f565b92915050565b600060208284031215614ab157614ab06139fe565b5b6000614abf84828501614a86565b91505092915050565b7f46756e6374696f6e2063616e206f6e6c792062652063616c6c6564206279204160008201527f73736574205479706520436f6e74726163747300000000000000000000000000602082015250565b6000614b24603383614536565b9150614b2f82614ac8565b604082019050919050565b60006020820190508181036000830152614b5381614b17565b9050919050565b7f546f6b656e000000000000000000000000000000000000000000000000000000600082015250565b6000614b90600583614536565b9150614b9b82614b5a565b602082019050919050565b60006020820190508181036000830152614bbf81614b83565b9050919050565b6000614bd182613c61565b9150614bdc83613c61565b925082821015614bef57614bee614a17565b5b828203905092915050565b6000604082019050614c0f60008301856145f5565b614c1c60208301846145f5565b9392505050565b600081519050614c3281613a70565b92915050565b600060208284031215614c4e57614c4d6139fe565b5b6000614c5c84828501614c23565b91505092915050565b7f53656e64657220616c6c6f77616e6365206d75737420626520657175616c207460008201527f6f206f7220686967686572207468616e2063686f73656e20616d6f756e742100602082015250565b6000614cc1603f83614536565b9150614ccc82614c65565b604082019050919050565b60006020820190508181036000830152614cf081614cb4565b9050919050565b7f53656e6465722062616c616e6365206d75737420626520657175616c20746f2060008201527f6f7220686967686572207468616e2063686f73656e20616d6f756e7421000000602082015250565b6000614d53603d83614536565b9150614d5e82614cf7565b604082019050919050565b60006020820190508181036000830152614d8281614d46565b9050919050565b6000614da4614d9f614d9a84613c61565b613b8e565b613a66565b9050919050565b614db481614d89565b82525050565b6000606082019050614dcf60008301866145f5565b614ddc60208301856145f5565b614de96040830184614dab565b949350505050565b600082825260208201905092915050565b6000614e0d826147c2565b614e178185614df1565b9350614e278185602086016147d8565b614e3081613e74565b840191505092915050565b60006080820190508181036000830152614e558187614e02565b9050614e6460208301866140e2565b614e7160408301856140d3565b614e7e6060830184613c79565b95945050505050565b7f436f6d6d69742077696e646f7720697320636c6f736564210000000000000000600082015250565b6000614ebd601883614536565b9150614ec882614e87565b602082019050919050565b60006020820190508181036000830152614eec81614eb0565b9050919050565b7f50726f66696c6553746f72616765000000000000000000000000000000000000600082015250565b6000614f29600e83614536565b9150614f3482614ef3565b602082019050919050565b60006020820190508181036000830152614f5881614f1c565b9050919050565b7f53636f72696e6750726f78790000000000000000000000000000000000000000600082015250565b6000614f95600c83614536565b9150614fa082614f5f565b602082019050919050565b60006020820190508181036000830152614fc481614f88565b9050919050565b6000614fde614fd984613f00565b613ee5565b905082815260208101848484011115614ffa57614ff9613e6f565b5b6150058482856147d8565b509392505050565b600082601f83011261502257615021613e6a565b5b8151615032848260208601614fcb565b91505092915050565b600060208284031215615051576150506139fe565b5b600082015167ffffffffffffffff81111561506f5761506e613a03565b5b61507b8482850161500d565b91505092915050565b600060a08201905061509960008301886140e2565b6150a660208301876140e2565b81810360408301526150b88186614e02565b905081810360608301526150cc8185614e02565b90506150db6080830184613c79565b9695505050505050565b6150ee81613d64565b81146150f957600080fd5b50565b60008151905061510b816150e5565b92915050565b600060208284031215615127576151266139fe565b5b6000615135848285016150fc565b91505092915050565b61514781613d64565b82525050565b600060808201905081810360008301526151678187614e02565b905061517660208301866140e2565b81810360408301526151888185614e02565b9050615197606083018461513e565b95945050505050565b60006151ab82613ca3565b91506151b683613ca3565b9250816fffffffffffffffffffffffffffffffff04831182151516156151df576151de614a17565b5b828202905092915050565b60006151f582613ca3565b915061520083613ca3565b9250826152105761520f614853565b5b828204905092915050565b60008151905061522a81613fbd565b92915050565b600060208284031215615246576152456139fe565b5b60006152548482850161521b565b91505092915050565b600061526882613a66565b915061527383613a66565b9250827fffffffffffffffffffffffffffffffffffffffffffffffffffffffffffffffff038211156152a8576152a7614a17565b5b828201905092915050565b600060c08201905081810360008301526152cd8189614e02565b90506152dc60208301886140e2565b6152e96040830187613b56565b6152f660608301866140d3565b6153036080830185613cbf565b61531060a0830184613c79565b979650505050505050565b60008151905061532a81613aaa565b92915050565b600060208284031215615346576153456139fe565b5b60006153548482850161531b565b91505092915050565b7f50726f6f662077696e646f77206973206f70656e000000000000000000000000600082015250565b6000615393601483614536565b915061539e8261535d565b602082019050919050565b600060208201905081810360008301526153c281615386565b9050919050565b7f596f75277665206265656e20616c726561647920726577617264656420696e2060008201527f746869732065706f636800000000000000000000000000000000000000000000602082015250565b6000615425602a83614536565b9150615430826153c9565b604082019050919050565b6000602082019050818103600083015261545481615418565b9050919050565b600061546682613d64565b915063ffffffff820361547c5761547b614a17565b5b600182019050919050565b7f596f7572206e6f6465206861736e2774206265656e206177617264656420666f60008201527f72207468697320617373657420696e20746869732065706f6368000000000000602082015250565b60006154e3603a83614536565b91506154ee82615487565b604082019050919050565b60006020820190508181036000830152615512816154d6565b9050919050565b6000819050919050565b61553461552f82613a66565b615519565b82525050565b600061554682856149c3565b6020820191506155568284615523565b6020820191508190509392505050565b7f526f6f74206861736820646f65736e2774206d61746368000000000000000000600082015250565b600061559c601783614536565b91506155a782615566565b602082019050919050565b600060208201905081810360008301526155cb8161558f565b9050919050565b60006155dd82613d64565b91506155e883613d64565b9250828210156155fb576155fa614a17565b5b828203905092915050565b600061561182613a9c565b915061561c83613a9c565b92508282101561562f5761562e614a17565b5b828203905092915050565b600061564582613a9c565b915061565083613a9c565b92508261ffff0382111561566757615666614a17565b5b828201905092915050565b600061567d82613c61565b915061568883613c61565b92508261569857615697614853565b5b828204905092915050565b60006040820190506156b860008301856145f5565b6156c56020830184614dab565b9392505050565b60006156d782613c61565b91506156e283613c61565b9250826bffffffffffffffffffffffff0382111561570357615702614a17565b5b828201905092915050565b60006040820190506157236000830185613c79565b6157306020830184613c79565b9392505050565b600061574282613d64565b915061574d83613d64565b92508263ffffffff0382111561576657615765614a17565b5b828201905092915050565b7f48617368696e6750726f78790000000000000000000000000000000000000000600082015250565b60006157a7600c83614536565b91506157b282615771565b602082019050919050565b600060208201905081810360008301526157d68161579a565b9050919050565b60008160601b9050919050565b60006157f5826157dd565b9050919050565b6000615807826157ea565b9050919050565b61581f61581a82613a28565b6157fc565b82525050565b6000615831828661580e565b6014820191506158418285615523565b602082019150615851828461480b565b9150819050949350505050565b600060408201905061587360008301856140e2565b81810360208301526158858184614e02565b90509392505050565b7f53636f7265206f662074686520636f6d6d6974206d757374206265206869676860008201527f65722074686174207468652073636f7265206f6620746865206865616420696e60208201527f206f7264657220746f207265706c616365206974210000000000000000000000604082015250565b6000615910605583614536565b915061591b8261588e565b606082019050919050565b6000602082019050818103600083015261593f81615903565b9050919050565b7f53636f7265206f662074686520636f6d6d6974206d757374206265206c65737360008201527f206f7220657175616c20746f20746865206f6e6520796f752077616e7420696e60208201527f7365727420616674657221000000000000000000000000000000000000000000604082015250565b60006159c8604b83614536565b91506159d382615946565b606082019050919050565b600060208201905081810360008301526159f7816159bb565b9050919050565b7f53636f7265206f662074686520636f6d6d6974206d757374206265206772656160008201527f746572206f7220657175616c20746f20746865206f6e6520796f752077616e7460208201527f20696e73657274206265666f7265210000000000000000000000000000000000604082015250565b6000615a80604f83614536565b9150615a8b826159fe565b606082019050919050565b60006020820190508181036000830152615aaf81615a73565b9050919050565b615abf81613ca3565b8114615aca57600080fd5b50565b600081519050615adc81615ab6565b92915050565b600060208284031215615af857615af76139fe565b5b6000615b0684828501615acd565b91505092915050565b6000615b1a82613fb0565b9150615b2583613fb0565b925082821015615b3857615b37614a17565b5b828203905092915050565b6000615b4e82613fb0565b9150615b5983613fb0565b92508260ff03821115615b6f57615b6e614a17565b5b828201905092915050565b6000615b868286615523565b602082019150615b96828561580e565b601482019150615ba68284615523565b602082019150819050949350505050565b6000615bc282613a66565b91507fffffffffffffffffffffffffffffffffffffffffffffffffffffffffffffffff8203615bf457615bf3614a17565b5b60018201905091905056fea264697066735822122055b0c28ed4d1647b77d5fa649ff63146a927f311efc64ef32b109868ec0d7a3664736f6c634300080e0033",
  "immutableReferences": {},
  "source": "// SPDX-License-Identifier: MIT\n\npragma solidity ^0.8.0;\n\nimport { AbstractAsset } from \"../assets/AbstractAsset.sol\";\nimport { AssertionRegistry } from \"../AssertionRegistry.sol\";\nimport { HashingProxy } from \"../HashingProxy.sol\";\nimport { Hub } from \"../Hub.sol\";\nimport { IdentityStorage } from \"./IdentityStorage.sol\";\nimport { IERC20 } from \"@openzeppelin/contracts/token/ERC20/IERC20.sol\";\nimport { MerkleProof } from \"@openzeppelin/contracts/utils/cryptography/MerkleProof.sol\";\nimport { ParametersStorage } from \"./ParametersStorage.sol\";\nimport { ProfileStorage } from \"./ProfileStorage.sol\";\nimport { ScoringProxy } from \"../ScoringProxy.sol\";\nimport { ShardingTable } from \"../ShardingTable.sol\";\n\ncontract ServiceAgreementStorage {\n    event ServiceAgreementCreated(\n        address indexed assetContract,\n        uint256 indexed tokenId,\n        bytes keyword,\n        uint8 hashFunctionId,\n        uint256 startTime,\n        uint16 epochsNumber,\n        uint128 epochLength,\n        uint96 tokenAmount\n    );\n    event ServiceAgreementUpdated(\n        address indexed assetContract,\n        uint256 indexed tokenId,\n        bytes keyword,\n        uint8 hashFunctionId,\n        uint16 epochsNumber,\n        uint96 tokenAmount\n    );\n    event CommitSubmitted(\n        address indexed assetContract,\n        uint256 indexed tokenId,\n        bytes keyword,\n        uint8 hashFunctionId,\n        uint96 indexed identityId,\n        bytes nodeId,\n        uint32 score\n    );\n    event ProofSubmitted(\n        address indexed assetContract,\n        uint256 indexed tokenId,\n        bytes keyword,\n        uint8 hashFunctionId,\n        uint96 indexed identityId,\n        bytes nodeId\n    );\n\n\n    struct CommitSubmission {\n        uint96 identityId;\n        uint96 nextIdentityId;\n        uint32 score;\n    }\n\n    struct ServiceAgreement {\n        uint256 startTime;\n        uint16 epochsNumber;\n        uint128 epochLength;\n        uint96 tokenAmount;\n        uint8 scoreFunctionId;\n        uint8 proofWindowOffsetPerc;  // Perc == In % of the epoch\n        mapping(uint16 => bytes32) epochSubmissionHeads;  // epoch => headCommitId\n        mapping(uint16 => uint32) rewardedNodes;\n    }\n\n    Hub public hub;\n\n    // CommitId [keccak256(agreementId + epoch + identityId)] => CommitSubmission\n    mapping(bytes32 => CommitSubmission) commitSubmissions;\n\n    // hash(asset type contract + tokenId + key) -> ServiceAgreement\n    mapping(bytes32 => ServiceAgreement) serviceAgreements;\n\n    constructor (address hubAddress) {\n        require(hubAddress != address(0));\n        hub = Hub(hubAddress);\n    }\n\n    modifier onlyAssetContracts() {\n        require (\n            hub.isAssetContract(msg.sender),\n            \"Function can only be called by Asset Type Contracts\"\n        );\n        _;\n    }\n\n    function getAgreementData(bytes32 agreementId)\n        public\n        view\n        returns (uint256, uint16, uint128, uint96, uint8, uint8)\n    {\n        return (\n            serviceAgreements[agreementId].startTime,\n            serviceAgreements[agreementId].epochsNumber,\n            serviceAgreements[agreementId].epochLength,\n            serviceAgreements[agreementId].tokenAmount,\n            serviceAgreements[agreementId].scoreFunctionId,\n            serviceAgreements[agreementId].proofWindowOffsetPerc\n        );\n    }\n\n    function getAgreementStartTime(bytes32 agreementId) public view returns (uint256) {\n        return serviceAgreements[agreementId].startTime;\n    }\n\n    function getAgreementEpochsNumber(bytes32 agreementId) public view returns (uint16) {\n        return serviceAgreements[agreementId].epochsNumber;\n    }\n\n    function getAgreementEpochLength(bytes32 agreementId) public view returns (uint128) {\n        return serviceAgreements[agreementId].epochLength;\n    }\n\n    function getAgreementTokenAmount(bytes32 agreementId) public view returns (uint96) {\n        return serviceAgreements[agreementId].tokenAmount;\n    }\n\n    function getAgreementScoreFunctionId(bytes32 agreementId) public view returns (uint8) {\n        return serviceAgreements[agreementId].scoreFunctionId;\n    }\n\n    function getAgreementProofWindowOffsetPerc(bytes32 agreementId) public view returns (uint8) {\n        return serviceAgreements[agreementId].proofWindowOffsetPerc;\n    }\n\n    function createServiceAgreement(\n        address operationalWallet,\n        address assetContract,\n        uint256 tokenId,\n        bytes memory keyword,\n        uint8 hashFunctionId,\n        uint16 epochsNumber,\n        uint96 tokenAmount,\n        uint8 scoreFunctionId\n    )\n        public\n        onlyAssetContracts\n    {\n        bytes32 agreementId = _generateAgreementId(assetContract, tokenId, keyword, hashFunctionId);\n\n        _createServiceAgreementObject(operationalWallet, agreementId, epochsNumber, tokenAmount, scoreFunctionId);\n\n        IERC20 tokenContract = IERC20(hub.getContractAddress(\"Token\"));\n        require(\n            tokenContract.allowance(operationalWallet, address(this)) >= tokenAmount,\n            \"Sender allowance must be equal to or higher than chosen amount!\"\n        );\n        require(\n            tokenContract.balanceOf(operationalWallet) >= tokenAmount,\n            \"Sender balance must be equal to or higher than chosen amount!\"\n        );\n\n        tokenContract.transferFrom(operationalWallet, address(this), tokenAmount);\n\n        emit ServiceAgreementCreated(\n            assetContract,\n            tokenId,\n            keyword,\n            hashFunctionId,\n            serviceAgreements[agreementId].startTime,\n            serviceAgreements[agreementId].epochsNumber,\n            serviceAgreements[agreementId].epochLength,\n            serviceAgreements[agreementId].tokenAmount\n        );\n    }\n\n    // TODO: Split into smaller functions\n    function updateServiceAgreement(\n        address operationalWallet,\n        address assetContract,\n        uint256 tokenId,\n        bytes memory keyword,\n        uint8 hashFunctionId,\n        uint16 epochsNumber,\n        uint96 tokenAmount\n    )\n        public\n        onlyAssetContracts\n    {\n        bytes32 agreementId = _generateAgreementId(assetContract, tokenId, keyword, hashFunctionId);\n\n        // require(serviceAgreements[agreementId]);\n\n        uint96 actualBalance = serviceAgreements[agreementId].tokenAmount;\n\n        serviceAgreements[agreementId].epochsNumber = epochsNumber;\n        serviceAgreements[agreementId].tokenAmount = tokenAmount;\n\n        IERC20 tokenContract = IERC20(hub.getContractAddress(\"Token\"));\n        require(\n            tokenContract.allowance(operationalWallet, address(this)) >= (actualBalance - tokenAmount),\n            \"Sender allowance must be equal to or higher than chosen amount!\"\n        );\n        require(\n            tokenContract.balanceOf(operationalWallet) >= (actualBalance - tokenAmount),\n            \"Sender balance must be equal to or higher than chosen amount!\"\n        );\n\n        tokenContract.transferFrom(operationalWallet, address(this), actualBalance - tokenAmount);\n\n        emit ServiceAgreementUpdated(\n            assetContract,\n            tokenId,\n            keyword,\n            hashFunctionId,\n            serviceAgreements[agreementId].epochsNumber,\n            serviceAgreements[agreementId].tokenAmount\n        );\n    }\n\n    function isCommitWindowOpen(bytes32 agreementId, uint16 epoch)\n        public\n        view\n        returns (bool)\n    {\n        uint256 timeNow = block.timestamp;\n        ServiceAgreement storage agreement = serviceAgreements[agreementId];\n\n        ParametersStorage parametersStorage = ParametersStorage(hub.getContractAddress(\"ParametersStorage\"));\n\n        return (\n            timeNow > (agreement.startTime + agreement.epochLength * epoch) &&\n            timeNow < (agreement.startTime + agreement.epochLength * epoch + parametersStorage.commitWindowDuration())\n        );\n    }\n\n    function getCommitSubmissions(bytes32 agreementId, uint16 epoch)\n        public\n        view\n        returns (CommitSubmission[] memory)\n    {\n        ParametersStorage parametersStorage = ParametersStorage(hub.getContractAddress(\"ParametersStorage\"));\n        CommitSubmission[] memory epochCommits = new CommitSubmission[](parametersStorage.R2());\n\n        bytes32 epochSubmissionsHead = serviceAgreements[agreementId].epochSubmissionHeads[epoch];\n\n        uint8 submissionsIdx = 0;\n\n        epochCommits[submissionsIdx] = commitSubmissions[epochSubmissionsHead];\n\n        uint96 nextIdentityId = commitSubmissions[epochSubmissionsHead].nextIdentityId;\n        while(nextIdentityId != 0) {\n            bytes32 commitId = keccak256(abi.encodePacked(agreementId, epoch, nextIdentityId));\n\n            CommitSubmission memory commit = commitSubmissions[commitId];\n            submissionsIdx++;\n            epochCommits[submissionsIdx] = commit;\n\n            nextIdentityId = commit.nextIdentityId;\n        }\n\n        return epochCommits;\n    }\n\n    function submitCommit(\n        address assetContract,\n        uint256 tokenId,\n        bytes memory keyword,\n        uint8 hashFunctionId,\n        uint16 epoch,\n        uint96 prevIdentityId\n    )\n        public\n    {\n        bytes32 agreementId = _generateAgreementId(assetContract, tokenId, keyword, hashFunctionId);\n\n        require(isCommitWindowOpen(agreementId, epoch), \"Commit window is closed!\");\n\n        IdentityStorage identityStorage = IdentityStorage(hub.getContractAddress(\"IdentityStorage\"));\n        uint96 identityId = identityStorage.getIdentityId(msg.sender);\n\n        ProfileStorage profileStorage = ProfileStorage(hub.getContractAddress(\"ProfileStorage\"));\n\n        ScoringProxy scoringProxy = ScoringProxy(hub.getContractAddress(\"ScoringProxy\"));\n        uint32 score = scoringProxy.callScoreFunction(\n            serviceAgreements[agreementId].scoreFunctionId,\n            hashFunctionId,\n            profileStorage.getNodeId(identityId),\n            keyword,\n            profileStorage.getStake(identityId)\n        );\n\n        _insertCommitAfter(\n            agreementId,\n            epoch,\n            prevIdentityId,\n            CommitSubmission({\n                identityId: identityId,\n                nextIdentityId: 0,\n                score: score\n            })\n        );\n\n        emit CommitSubmitted(\n            assetContract,\n            tokenId,\n            keyword,\n            hashFunctionId,\n            identityId,\n            profileStorage.getNodeId(identityId),\n            score\n        );\n    }\n\n    function isProofWindowOpen(bytes32 agreementId, uint16 epoch)\n        public\n        view\n        returns (bool)\n    {\n        uint256 timeNow = block.timestamp;\n        ServiceAgreement storage agreement = serviceAgreements[agreementId];\n\n        ParametersStorage parametersStorage = ParametersStorage(hub.getContractAddress(\"ParametersStorage\"));\n\n        uint256 proofWindowOffset = agreement.epochLength * agreement.epochsNumber * agreement.proofWindowOffsetPerc / 100;\n        uint256 proofWindowDuration = (\n            agreement.epochLength * agreement.epochsNumber * parametersStorage.proofWindowDurationPerc() / 100\n        );\n\n        return (\n            timeNow > (agreement.startTime + agreement.epochLength * epoch + proofWindowOffset) &&\n            timeNow < (agreement.startTime + agreement.epochLength * epoch + proofWindowOffset + proofWindowDuration)\n        );\n    }\n\n    function getChallenge(address sender, address assetContract, uint256 tokenId, uint16 epoch)\n        public\n        view\n        returns (bytes32, uint256)\n    {\n        IdentityStorage identityStorage = IdentityStorage(hub.getContractAddress(\"IdentityStorage\"));\n        uint96 identityId = identityStorage.getIdentityId(sender);\n\n        AbstractAsset generalAssetInterface = AbstractAsset(assetContract);\n        bytes32 assertionId = generalAssetInterface.getLatestAssertion(tokenId);\n\n        AssertionRegistry assertionRegistry = AssertionRegistry(hub.getContractAddress(\"AssertionRegistry\"));\n        uint256 assertionChunksNumber = assertionRegistry.getChunksNumber(assertionId);\n\n        // blockchash() function only works for last 256 blocks (25.6 min window in case of 6s block time)\n        // TODO: figure out how to achieve randomness\n        return (\n            assertionId,\n            uint256(\n                sha256(abi.encodePacked(epoch, identityId))\n            ) % assertionChunksNumber\n        );\n    }\n\n    function sendProof(\n        address assetContract,\n        uint256 tokenId,\n        bytes memory keyword,\n        uint8 hashFunctionId,\n        uint16 epoch,\n        bytes32[] memory proof,\n        bytes32 chunkHash\n    )\n        public\n    {\n        bytes32 agreementId = _generateAgreementId(assetContract, tokenId, keyword, hashFunctionId);\n        require(!isProofWindowOpen(agreementId, epoch), \"Proof window is open\");\n\n        uint96 identityId = IdentityStorage(hub.getContractAddress(\"IdentityStorage\")).getIdentityId(msg.sender);\n\n        require(\n            commitSubmissions[keccak256(abi.encodePacked(agreementId, epoch, identityId))].score != 0,\n            \"You've been already rewarded in this epoch\"\n        );\n\n        bytes32 nextCommitId = serviceAgreements[agreementId].epochSubmissionHeads[epoch];\n\n        ParametersStorage parametersStorage = ParametersStorage(hub.getContractAddress(\"ParametersStorage\"));\n\n        uint32 i = 0;\n        while ((identityId != commitSubmissions[nextCommitId].identityId) && i < parametersStorage.R0()) {\n            nextCommitId = keccak256(\n                abi.encodePacked(agreementId, epoch, commitSubmissions[nextCommitId].nextIdentityId)\n            );\n            i++;\n        }\n\n        require(i < parametersStorage.R0(), \"Your node hasn't been awarded for this asset in this epoch\");\n\n        bytes32 merkleRoot;\n        uint256 challenge;\n        (merkleRoot, challenge) = getChallenge(msg.sender, assetContract, tokenId, epoch);\n\n        require(\n            MerkleProof.verify(\n                proof,\n                merkleRoot,\n                keccak256(abi.encodePacked(chunkHash, challenge))\n            ),\n            \"Root hash doesn't match\"\n        );\n\n        ProfileStorage profileStorage = ProfileStorage(hub.getContractAddress(\"ProfileStorage\"));\n\n        // emit ProofSubmitted(\n        //     assetContract,\n        //     tokenId,\n        //     keyword,\n        //     hashFunctionId,\n        //     identityId,\n        //     profileStorage.getNodeId(identityId)\n        // );\n\n        uint96 reward = (\n            serviceAgreements[agreementId].tokenAmount /\n            (serviceAgreements[agreementId].epochsNumber - epoch + 1) /\n            (parametersStorage.R0() - serviceAgreements[agreementId].rewardedNodes[epoch])\n        );\n\n        IERC20(hub.getContractAddress(\"Token\")).transfer(address(profileStorage), reward);\n\n        profileStorage.setReward(identityId, profileStorage.getReward(identityId) + reward);\n\n        serviceAgreements[agreementId].tokenAmount -= reward;\n        serviceAgreements[agreementId].rewardedNodes[epoch] += 1;\n\n        // To make sure that node already received reward\n        commitSubmissions[keccak256(abi.encodePacked(agreementId, epoch, identityId))].score = 0;\n    }\n\n    function setScoringFunction(bytes32 agreementId, uint8 newScoreFunctionId)\n        public\n        onlyAssetContracts\n    {\n        serviceAgreements[agreementId].scoreFunctionId = newScoreFunctionId;\n    }        \n\n    function _createServiceAgreementObject(\n        address operationalWallet,\n        bytes32 agreementId,\n        uint16 epochsNumber,\n        uint96 tokenAmount,\n        uint8 scoreFunctionId\n    )\n        private\n    {\n        ParametersStorage parametersStorage = ParametersStorage(hub.getContractAddress(\"ParametersStorage\"));\n\n        ServiceAgreement storage agreement = serviceAgreements[agreementId];\n        agreement.startTime = block.timestamp;\n        agreement.epochsNumber = epochsNumber;\n        agreement.epochLength = parametersStorage.epochLength();\n        agreement.proofWindowOffsetPerc = parametersStorage.minProofWindowOffsetPerc() + _generatePseudorandomUint8(\n            operationalWallet,\n            parametersStorage.maxProofWindowOffsetPerc() - parametersStorage.minProofWindowOffsetPerc() + 1\n        );\n        agreement.tokenAmount = tokenAmount;\n        agreement.scoreFunctionId = scoreFunctionId;\n    }\n\n    function _insertCommitAfter(bytes32 agreementId, uint16 epoch, uint96 prevIdentityId, CommitSubmission memory commit)\n        private\n    {\n        bytes32 commitId = keccak256(abi.encodePacked(agreementId, epoch, commit.identityId));\n\n        // Replacing head\n        if (prevIdentityId == 0) {\n            bytes32 epochSubmissionsHead = serviceAgreements[agreementId].epochSubmissionHeads[epoch];\n\n            uint96 prevHeadIdentityId = 0;\n            if(epochSubmissionsHead != \"\") {\n                CommitSubmission memory commitHead = commitSubmissions[epochSubmissionsHead];\n                prevHeadIdentityId = commitHead.identityId;\n\n                require(\n                    commit.score > commitHead.score,\n                    \"Score of the commit must be higher that the score of the head in order to replace it!\"\n                );\n            }\n\n            serviceAgreements[agreementId].epochSubmissionHeads[epoch] = commitId;\n            commitSubmissions[commitId] = commit;\n            _link_commits(agreementId, epoch, commit.identityId, prevHeadIdentityId);\n        }\n        else {\n            bytes32 prevCommitId = keccak256(abi.encodePacked(agreementId, epoch, prevIdentityId));\n            CommitSubmission memory prevCommit = commitSubmissions[prevCommitId];\n\n            require(\n                commit.score <= prevCommit.score,\n                \"Score of the commit must be less or equal to the one you want insert after!\"\n            );\n\n            uint96 nextIdentityId = prevCommit.nextIdentityId;\n            if (nextIdentityId != 0) {\n                bytes32 nextCommitId = keccak256(abi.encodePacked(agreementId, epoch, nextIdentityId));\n                CommitSubmission memory nextCommit = commitSubmissions[nextCommitId];\n\n                require(\n                    commit.score >= nextCommit.score,\n                    \"Score of the commit must be greater or equal to the one you want insert before!\"\n                );\n            }\n\n            commitSubmissions[commitId] = commit;\n            _link_commits(agreementId, epoch, prevIdentityId, commit.identityId);\n            _link_commits(agreementId, epoch, commit.identityId, nextIdentityId);\n        }\n    }\n\n    function _link_commits(bytes32 agreementId, uint16 epoch, uint96 leftIdentityId, uint96 rightIdentityId)\n        private\n    {\n        bytes32 leftCommitId = keccak256(abi.encodePacked(agreementId, epoch, leftIdentityId));\n        commitSubmissions[leftCommitId].nextIdentityId = rightIdentityId;\n    }\n\n    function _generateAgreementId(address assetContract, uint256 tokenId, bytes memory keyword, uint8 hashFunctionId)\n        private\n        returns (bytes32)\n    {\n        HashingProxy hashingProxy = HashingProxy(hub.getContractAddress(\"HashingProxy\"));\n        return hashingProxy.callHashFunction(hashFunctionId, abi.encodePacked(assetContract, tokenId, keyword));\n    }\n\n    function _generatePseudorandomUint8(address sender, uint8 limit)\n        private\n        view\n        returns (uint8)\n    {\n        // TODO: Test type conversion\n        return uint8(uint256(keccak256(abi.encodePacked(block.timestamp, sender, block.number))) % limit);\n    }\n}\n",
  "sourcePath": "/Users/waving/Desktop/OriginTrail/dkg-evm-module/contracts/storage/ServiceAgreementStorage.sol",
  "compiler": {
    "name": "solc",
    "version": "0.8.14+commit.80d49f37.Emscripten.clang"
  },
  "schemaVersion": "3.4.10",
  "updatedAt": "2022-11-22T18:03:17.988Z",
  "devdoc": {
    "kind": "dev",
    "methods": {},
    "version": 1
  },
  "userdoc": {
    "kind": "user",
    "methods": {},
    "version": 1
  }
}