{
  "contractName": "ServiceAgreementV1",
  "abi": [
    {
      "inputs": [
        {
          "internalType": "address",
          "name": "hubAddress",
          "type": "address"
        }
      ],
      "stateMutability": "nonpayable",
      "type": "constructor"
    },
    {
      "inputs": [
        {
          "internalType": "address",
          "name": "contractAddress",
          "type": "address"
        }
      ],
      "name": "AssetStorgeNotInTheHub",
      "type": "error"
    },
    {
      "inputs": [
        {
          "internalType": "bytes32",
          "name": "agreementId",
          "type": "bytes32"
        },
        {
          "internalType": "uint16",
          "name": "epoch",
          "type": "uint16"
        },
        {
          "internalType": "uint256",
          "name": "commitWindowOpen",
          "type": "uint256"
        },
        {
          "internalType": "uint256",
          "name": "commitWindowClose",
          "type": "uint256"
        },
        {
          "internalType": "uint256",
          "name": "timeNow",
          "type": "uint256"
        }
      ],
      "name": "CommitWindowClosed",
      "type": "error"
    },
    {
      "inputs": [],
      "name": "EmptyAssetCreatorAddress",
      "type": "error"
    },
    {
      "inputs": [],
      "name": "EmptyKeyword",
      "type": "error"
    },
    {
      "inputs": [
        {
          "internalType": "bytes32",
          "name": "agreementId",
          "type": "bytes32"
        },
        {
          "internalType": "uint16",
          "name": "epoch",
          "type": "uint16"
        },
        {
          "internalType": "uint72",
          "name": "identityId",
          "type": "uint72"
        },
        {
          "internalType": "bytes",
          "name": "nodeId",
          "type": "bytes"
        }
      ],
      "name": "NodeAlreadyRewarded",
      "type": "error"
    },
    {
      "inputs": [
        {
          "internalType": "bytes32",
          "name": "agreementId",
          "type": "bytes32"
        },
        {
          "internalType": "uint16",
          "name": "epoch",
          "type": "uint16"
        },
        {
          "internalType": "uint72",
          "name": "identityId",
          "type": "uint72"
        },
        {
          "internalType": "bytes",
          "name": "nodeId",
          "type": "bytes"
        }
      ],
      "name": "NodeAlreadySubmittedCommit",
      "type": "error"
    },
    {
      "inputs": [
        {
          "internalType": "bytes32",
          "name": "agreementId",
          "type": "bytes32"
        },
        {
          "internalType": "uint16",
          "name": "epoch",
          "type": "uint16"
        },
        {
          "internalType": "uint72",
          "name": "identityId",
          "type": "uint72"
        },
        {
          "internalType": "bytes",
          "name": "nodeId",
          "type": "bytes"
        },
        {
          "internalType": "uint8",
          "name": "rank",
          "type": "uint8"
        }
      ],
      "name": "NodeNotAwarded",
      "type": "error"
    },
    {
      "inputs": [
        {
          "internalType": "uint72",
          "name": "identityId",
          "type": "uint72"
        },
        {
          "internalType": "bytes",
          "name": "nodeId",
          "type": "bytes"
        },
        {
          "internalType": "uint96",
          "name": "ask",
          "type": "uint96"
        },
        {
          "internalType": "uint96",
          "name": "stake",
          "type": "uint96"
        }
      ],
      "name": "NodeNotInShardingTable",
      "type": "error"
    },
    {
      "inputs": [
        {
          "internalType": "address",
          "name": "caller",
          "type": "address"
        }
      ],
      "name": "OnlyHubContractsFunction",
      "type": "error"
    },
    {
      "inputs": [
        {
          "internalType": "address",
          "name": "caller",
          "type": "address"
        }
      ],
      "name": "OnlyHubOwnerFunction",
      "type": "error"
    },
    {
      "inputs": [
        {
          "internalType": "bytes32",
          "name": "agreementId",
          "type": "bytes32"
        },
        {
          "internalType": "uint16",
          "name": "epoch",
          "type": "uint16"
        },
        {
          "internalType": "uint256",
          "name": "proofWindowOpen",
          "type": "uint256"
        },
        {
          "internalType": "uint256",
          "name": "proofWindowClose",
          "type": "uint256"
        },
        {
          "internalType": "uint256",
          "name": "timeNow",
          "type": "uint256"
        }
      ],
      "name": "ProofWindowClosed",
      "type": "error"
    },
    {
      "inputs": [
        {
          "internalType": "uint8",
          "name": "scoreFunctionId",
          "type": "uint8"
        }
      ],
      "name": "ScoreFunctionDoesntExist",
      "type": "error"
    },
    {
      "inputs": [
        {
          "internalType": "bytes32",
          "name": "agreementId",
          "type": "bytes32"
        }
      ],
      "name": "ServiceAgreementDoesntExist",
      "type": "error"
    },
    {
      "inputs": [
        {
          "internalType": "bytes32",
          "name": "agreementId",
          "type": "bytes32"
        },
        {
          "internalType": "uint256",
          "name": "startTime",
          "type": "uint256"
        },
        {
          "internalType": "uint16",
          "name": "epochsNumber",
          "type": "uint16"
        },
        {
          "internalType": "uint128",
          "name": "epochLength",
          "type": "uint128"
        }
      ],
      "name": "ServiceAgreementHasBeenExpired",
      "type": "error"
    },
    {
      "inputs": [
        {
          "internalType": "uint256",
          "name": "amount",
          "type": "uint256"
        }
      ],
      "name": "TooLowAllowance",
      "type": "error"
    },
    {
      "inputs": [
        {
          "internalType": "uint256",
          "name": "amount",
          "type": "uint256"
        }
      ],
      "name": "TooLowBalance",
      "type": "error"
    },
    {
      "inputs": [
        {
          "internalType": "bytes32",
          "name": "agreementId",
          "type": "bytes32"
        },
        {
          "internalType": "uint16",
          "name": "epoch",
          "type": "uint16"
        },
        {
          "internalType": "uint72",
          "name": "identityId",
          "type": "uint72"
        },
        {
          "internalType": "bytes",
          "name": "nodeId",
          "type": "bytes"
        },
        {
          "internalType": "bytes32[]",
          "name": "merkleProof",
          "type": "bytes32[]"
        },
        {
          "internalType": "bytes32",
          "name": "merkleRoot",
          "type": "bytes32"
        },
        {
          "internalType": "bytes32",
          "name": "chunkHash",
          "type": "bytes32"
        },
        {
          "internalType": "uint256",
          "name": "challenge",
          "type": "uint256"
        }
      ],
      "name": "WrongMerkleProof",
      "type": "error"
    },
    {
      "inputs": [],
      "name": "ZeroEpochsNumber",
      "type": "error"
    },
    {
      "inputs": [],
      "name": "ZeroTokenAmount",
      "type": "error"
    },
    {
      "anonymous": false,
      "inputs": [
        {
          "indexed": true,
          "internalType": "address",
          "name": "assetContract",
          "type": "address"
        },
        {
          "indexed": true,
          "internalType": "uint256",
          "name": "tokenId",
          "type": "uint256"
        },
        {
          "indexed": false,
          "internalType": "bytes",
          "name": "keyword",
          "type": "bytes"
        },
        {
          "indexed": false,
          "internalType": "uint8",
          "name": "hashFunctionId",
          "type": "uint8"
        },
        {
          "indexed": false,
          "internalType": "uint16",
          "name": "epoch",
          "type": "uint16"
        },
        {
          "indexed": true,
          "internalType": "uint72",
          "name": "identityId",
          "type": "uint72"
        },
        {
          "indexed": false,
          "internalType": "uint40",
          "name": "score",
          "type": "uint40"
        }
      ],
      "name": "CommitSubmitted",
      "type": "event"
    },
    {
      "anonymous": false,
      "inputs": [
        {
          "indexed": false,
          "internalType": "bool",
          "name": "value",
          "type": "bool"
        },
        {
          "indexed": false,
          "internalType": "string",
          "name": "message",
          "type": "string"
        }
      ],
      "name": "Logger",
      "type": "event"
    },
    {
      "anonymous": false,
      "inputs": [
        {
          "indexed": true,
          "internalType": "address",
          "name": "assetContract",
          "type": "address"
        },
        {
          "indexed": true,
          "internalType": "uint256",
          "name": "tokenId",
          "type": "uint256"
        },
        {
          "indexed": false,
          "internalType": "bytes",
          "name": "keyword",
          "type": "bytes"
        },
        {
          "indexed": false,
          "internalType": "uint8",
          "name": "hashFunctionId",
          "type": "uint8"
        },
        {
          "indexed": false,
          "internalType": "uint16",
          "name": "epoch",
          "type": "uint16"
        },
        {
          "indexed": true,
          "internalType": "uint72",
          "name": "identityId",
          "type": "uint72"
        }
      ],
      "name": "ProofSubmitted",
      "type": "event"
    },
    {
      "anonymous": false,
      "inputs": [
        {
          "indexed": true,
          "internalType": "address",
          "name": "assetContract",
          "type": "address"
        },
        {
          "indexed": true,
          "internalType": "uint256",
          "name": "tokenId",
          "type": "uint256"
        },
        {
          "indexed": false,
          "internalType": "bytes",
          "name": "keyword",
          "type": "bytes"
        },
        {
          "indexed": false,
          "internalType": "uint8",
          "name": "hashFunctionId",
          "type": "uint8"
        },
        {
          "indexed": false,
          "internalType": "uint256",
          "name": "startTime",
          "type": "uint256"
        },
        {
          "indexed": false,
          "internalType": "uint16",
          "name": "epochsNumber",
          "type": "uint16"
        },
        {
          "indexed": false,
          "internalType": "uint128",
          "name": "epochLength",
          "type": "uint128"
        },
        {
          "indexed": false,
          "internalType": "uint96",
          "name": "tokenAmount",
          "type": "uint96"
        }
      ],
      "name": "ServiceAgreementV1Created",
      "type": "event"
    },
    {
      "anonymous": false,
      "inputs": [
        {
          "indexed": true,
          "internalType": "address",
          "name": "assetContract",
          "type": "address"
        },
        {
          "indexed": true,
          "internalType": "uint256",
          "name": "tokenId",
          "type": "uint256"
        },
        {
          "indexed": false,
          "internalType": "bytes",
          "name": "keyword",
          "type": "bytes"
        },
        {
          "indexed": false,
          "internalType": "uint8",
          "name": "hashFunctionId",
          "type": "uint8"
        },
        {
          "indexed": false,
          "internalType": "uint16",
          "name": "epochsNumber",
          "type": "uint16"
        }
      ],
      "name": "ServiceAgreementV1Extended",
      "type": "event"
    },
    {
      "anonymous": false,
      "inputs": [
        {
          "indexed": true,
          "internalType": "address",
          "name": "assetContract",
          "type": "address"
        },
        {
          "indexed": true,
          "internalType": "uint256",
          "name": "tokenId",
          "type": "uint256"
        },
        {
          "indexed": false,
          "internalType": "bytes",
          "name": "keyword",
          "type": "bytes"
        },
        {
          "indexed": false,
          "internalType": "uint8",
          "name": "hashFunctionId",
          "type": "uint8"
        },
        {
          "indexed": false,
          "internalType": "uint96",
          "name": "tokenAmount",
          "type": "uint96"
        }
      ],
      "name": "ServiceAgreementV1RewardRaised",
      "type": "event"
    },
    {
      "anonymous": false,
      "inputs": [
        {
          "indexed": true,
          "internalType": "address",
          "name": "assetContract",
          "type": "address"
        },
        {
          "indexed": true,
          "internalType": "uint256",
          "name": "tokenId",
          "type": "uint256"
        },
        {
          "indexed": false,
          "internalType": "bytes",
          "name": "keyword",
          "type": "bytes"
        },
        {
          "indexed": false,
          "internalType": "uint8",
          "name": "hashFunctionId",
          "type": "uint8"
        }
      ],
      "name": "ServiceAgreementV1Terminated",
      "type": "event"
    },
    {
      "anonymous": false,
      "inputs": [
        {
          "indexed": true,
          "internalType": "address",
          "name": "assetContract",
          "type": "address"
        },
        {
          "indexed": true,
          "internalType": "uint256",
          "name": "tokenId",
          "type": "uint256"
        },
        {
          "indexed": false,
          "internalType": "bytes",
          "name": "keyword",
          "type": "bytes"
        },
        {
          "indexed": false,
          "internalType": "uint8",
          "name": "hashFunctionId",
          "type": "uint8"
        },
        {
          "indexed": false,
          "internalType": "uint16",
          "name": "epochsNumber",
          "type": "uint16"
        },
        {
          "indexed": false,
          "internalType": "uint96",
          "name": "tokenAmount",
          "type": "uint96"
        }
      ],
      "name": "ServiceAgreementV1Updated",
      "type": "event"
    },
    {
      "inputs": [],
      "name": "assertionStorage",
      "outputs": [
        {
          "internalType": "contract AssertionStorage",
          "name": "",
          "type": "address"
        }
      ],
      "stateMutability": "view",
      "type": "function"
    },
    {
      "inputs": [],
      "name": "hashingProxy",
      "outputs": [
        {
          "internalType": "contract HashingProxy",
          "name": "",
          "type": "address"
        }
      ],
      "stateMutability": "view",
      "type": "function"
    },
    {
      "inputs": [],
      "name": "hub",
      "outputs": [
        {
          "internalType": "contract Hub",
          "name": "",
          "type": "address"
        }
      ],
      "stateMutability": "view",
      "type": "function"
    },
    {
      "inputs": [],
      "name": "identityStorage",
      "outputs": [
        {
          "internalType": "contract IdentityStorage",
          "name": "",
          "type": "address"
        }
      ],
      "stateMutability": "view",
      "type": "function"
    },
    {
      "inputs": [],
      "name": "parametersStorage",
      "outputs": [
        {
          "internalType": "contract ParametersStorage",
          "name": "",
          "type": "address"
        }
      ],
      "stateMutability": "view",
      "type": "function"
    },
    {
      "inputs": [],
      "name": "profileStorage",
      "outputs": [
        {
          "internalType": "contract ProfileStorage",
          "name": "",
          "type": "address"
        }
      ],
      "stateMutability": "view",
      "type": "function"
    },
    {
      "inputs": [
        {
          "internalType": "uint256",
          "name": "",
          "type": "uint256"
        }
      ],
      "name": "reqs",
      "outputs": [
        {
          "internalType": "bool",
          "name": "",
          "type": "bool"
        }
      ],
      "stateMutability": "view",
      "type": "function"
    },
    {
      "inputs": [],
      "name": "scoringProxy",
      "outputs": [
        {
          "internalType": "contract ScoringProxy",
          "name": "",
          "type": "address"
        }
      ],
      "stateMutability": "view",
      "type": "function"
    },
    {
      "inputs": [],
      "name": "serviceAgreementStorageV1",
      "outputs": [
        {
          "internalType": "contract ServiceAgreementStorageV1",
          "name": "",
          "type": "address"
        }
      ],
      "stateMutability": "view",
      "type": "function"
    },
    {
      "inputs": [],
      "name": "shardingTableStorage",
      "outputs": [
        {
          "internalType": "contract ShardingTableStorage",
          "name": "",
          "type": "address"
        }
      ],
      "stateMutability": "view",
      "type": "function"
    },
    {
      "inputs": [],
      "name": "stakingContract",
      "outputs": [
        {
          "internalType": "contract Staking",
          "name": "",
          "type": "address"
        }
      ],
      "stateMutability": "view",
      "type": "function"
    },
    {
      "inputs": [],
      "name": "stakingStorage",
      "outputs": [
        {
          "internalType": "contract StakingStorage",
          "name": "",
          "type": "address"
        }
      ],
      "stateMutability": "view",
      "type": "function"
    },
    {
      "inputs": [],
      "name": "tokenContract",
      "outputs": [
        {
          "internalType": "contract IERC20",
          "name": "",
          "type": "address"
        }
      ],
      "stateMutability": "view",
      "type": "function"
    },
    {
      "inputs": [],
      "name": "initialize",
      "outputs": [],
      "stateMutability": "nonpayable",
      "type": "function"
    },
    {
      "inputs": [],
      "name": "name",
      "outputs": [
        {
          "internalType": "string",
          "name": "",
          "type": "string"
        }
      ],
      "stateMutability": "pure",
      "type": "function"
    },
    {
      "inputs": [],
      "name": "version",
      "outputs": [
        {
          "internalType": "string",
          "name": "",
          "type": "string"
        }
      ],
      "stateMutability": "pure",
      "type": "function"
    },
    {
      "inputs": [
        {
          "components": [
            {
              "internalType": "address",
              "name": "assetCreator",
              "type": "address"
            },
            {
              "internalType": "address",
              "name": "assetContract",
              "type": "address"
            },
            {
              "internalType": "uint256",
              "name": "tokenId",
              "type": "uint256"
            },
            {
              "internalType": "bytes",
              "name": "keyword",
              "type": "bytes"
            },
            {
              "internalType": "uint8",
              "name": "hashFunctionId",
              "type": "uint8"
            },
            {
              "internalType": "uint16",
              "name": "epochsNumber",
              "type": "uint16"
            },
            {
              "internalType": "uint96",
              "name": "tokenAmount",
              "type": "uint96"
            },
            {
              "internalType": "uint8",
              "name": "scoreFunctionId",
              "type": "uint8"
            }
          ],
          "internalType": "struct ServiceAgreementStructsV1.ServiceAgreementInputArgs",
          "name": "args",
          "type": "tuple"
        }
      ],
      "name": "createServiceAgreement",
      "outputs": [],
      "stateMutability": "nonpayable",
      "type": "function"
    },
    {
      "inputs": [
        {
          "internalType": "bytes32",
          "name": "agreementId",
          "type": "bytes32"
        },
        {
          "internalType": "uint16",
          "name": "epoch",
          "type": "uint16"
        }
      ],
      "name": "isCommitWindowOpen",
      "outputs": [
        {
          "internalType": "bool",
          "name": "",
          "type": "bool"
        }
      ],
      "stateMutability": "view",
      "type": "function"
    },
    {
      "inputs": [
        {
          "internalType": "bytes32",
          "name": "agreementId",
          "type": "bytes32"
        },
        {
          "internalType": "uint16",
          "name": "epoch",
          "type": "uint16"
        }
      ],
      "name": "getTopCommitSubmissions",
      "outputs": [
        {
          "components": [
            {
              "internalType": "uint72",
              "name": "identityId",
              "type": "uint72"
            },
            {
              "internalType": "uint72",
              "name": "prevIdentityId",
              "type": "uint72"
            },
            {
              "internalType": "uint72",
              "name": "nextIdentityId",
              "type": "uint72"
            },
            {
              "internalType": "uint40",
              "name": "score",
              "type": "uint40"
            }
          ],
          "internalType": "struct ServiceAgreementStructsV1.CommitSubmission[]",
          "name": "",
          "type": "tuple[]"
        }
      ],
      "stateMutability": "view",
      "type": "function"
    },
    {
      "inputs": [
        {
          "components": [
            {
              "internalType": "address",
              "name": "assetContract",
              "type": "address"
            },
            {
              "internalType": "uint256",
              "name": "tokenId",
              "type": "uint256"
            },
            {
              "internalType": "bytes",
              "name": "keyword",
              "type": "bytes"
            },
            {
              "internalType": "uint8",
              "name": "hashFunctionId",
              "type": "uint8"
            },
            {
              "internalType": "uint16",
              "name": "epoch",
              "type": "uint16"
            }
          ],
          "internalType": "struct ServiceAgreementStructsV1.CommitInputArgs",
          "name": "args",
          "type": "tuple"
        }
      ],
      "name": "submitCommit",
      "outputs": [],
      "stateMutability": "nonpayable",
      "type": "function"
    },
    {
      "inputs": [
        {
          "components": [
            {
              "internalType": "address",
              "name": "assetContract",
              "type": "address"
            },
            {
              "internalType": "uint256",
              "name": "tokenId",
              "type": "uint256"
            },
            {
              "internalType": "bytes",
              "name": "keyword",
              "type": "bytes"
            },
            {
              "internalType": "uint8",
              "name": "hashFunctionId",
              "type": "uint8"
            },
            {
              "internalType": "uint16",
              "name": "epoch",
              "type": "uint16"
            }
          ],
          "internalType": "struct ServiceAgreementStructsV1.CommitInputArgs[]",
          "name": "argsArray",
          "type": "tuple[]"
        }
      ],
      "name": "bulkSubmitCommit",
      "outputs": [],
      "stateMutability": "nonpayable",
      "type": "function"
    },
    {
      "inputs": [
        {
          "internalType": "bytes32",
          "name": "agreementId",
          "type": "bytes32"
        },
        {
          "internalType": "uint16",
          "name": "epoch",
          "type": "uint16"
        }
      ],
      "name": "isProofWindowOpen",
      "outputs": [
        {
          "internalType": "bool",
          "name": "",
          "type": "bool"
        }
      ],
      "stateMutability": "view",
      "type": "function"
    },
    {
      "inputs": [
        {
          "internalType": "address",
          "name": "sender",
          "type": "address"
        },
        {
          "internalType": "address",
          "name": "assetContract",
          "type": "address"
        },
        {
          "internalType": "uint256",
          "name": "tokenId",
          "type": "uint256"
        },
        {
          "internalType": "uint16",
          "name": "epoch",
          "type": "uint16"
        }
      ],
      "name": "getChallenge",
      "outputs": [
        {
          "internalType": "bytes32",
          "name": "",
          "type": "bytes32"
        },
        {
          "internalType": "uint256",
          "name": "",
          "type": "uint256"
        }
      ],
      "stateMutability": "view",
      "type": "function"
    },
    {
      "inputs": [
        {
          "components": [
            {
              "internalType": "address",
              "name": "assetContract",
              "type": "address"
            },
            {
              "internalType": "uint256",
              "name": "tokenId",
              "type": "uint256"
            },
            {
              "internalType": "bytes",
              "name": "keyword",
              "type": "bytes"
            },
            {
              "internalType": "uint8",
              "name": "hashFunctionId",
              "type": "uint8"
            },
            {
              "internalType": "uint16",
              "name": "epoch",
              "type": "uint16"
            },
            {
              "internalType": "bytes32[]",
              "name": "proof",
              "type": "bytes32[]"
            },
            {
              "internalType": "bytes32",
              "name": "chunkHash",
              "type": "bytes32"
            }
          ],
          "internalType": "struct ServiceAgreementStructsV1.ProofInputArgs",
          "name": "args",
          "type": "tuple"
        }
      ],
      "name": "sendProof",
      "outputs": [],
      "stateMutability": "nonpayable",
      "type": "function"
    },
    {
      "inputs": [
        {
          "components": [
            {
              "internalType": "address",
              "name": "assetContract",
              "type": "address"
            },
            {
              "internalType": "uint256",
              "name": "tokenId",
              "type": "uint256"
            },
            {
              "internalType": "bytes",
              "name": "keyword",
              "type": "bytes"
            },
            {
              "internalType": "uint8",
              "name": "hashFunctionId",
              "type": "uint8"
            },
            {
              "internalType": "uint16",
              "name": "epoch",
              "type": "uint16"
            },
            {
              "internalType": "bytes32[]",
              "name": "proof",
              "type": "bytes32[]"
            },
            {
              "internalType": "bytes32",
              "name": "chunkHash",
              "type": "bytes32"
            }
          ],
          "internalType": "struct ServiceAgreementStructsV1.ProofInputArgs[]",
          "name": "argsArray",
          "type": "tuple[]"
        }
      ],
      "name": "bulkSendProof",
      "outputs": [],
      "stateMutability": "nonpayable",
      "type": "function"
    },
    {
      "inputs": [
        {
          "components": [
            {
              "internalType": "address",
              "name": "assetContract",
              "type": "address"
            },
            {
              "internalType": "uint256",
              "name": "tokenId",
              "type": "uint256"
            },
            {
              "internalType": "bytes",
              "name": "keyword",
              "type": "bytes"
            },
            {
              "internalType": "uint8",
              "name": "hashFunctionId",
              "type": "uint8"
            },
            {
              "internalType": "uint16",
              "name": "epoch",
              "type": "uint16"
            },
            {
              "internalType": "bytes32[]",
              "name": "proof",
              "type": "bytes32[]"
            },
            {
              "internalType": "bytes32",
              "name": "chunkHash",
              "type": "bytes32"
            }
          ],
          "internalType": "struct ServiceAgreementStructsV1.ProofInputArgs",
          "name": "args",
          "type": "tuple"
        }
      ],
      "name": "sendProofWithAutoCommit",
      "outputs": [],
      "stateMutability": "nonpayable",
      "type": "function"
    },
    {
      "inputs": [
        {
          "internalType": "uint256",
          "name": "index",
          "type": "uint256"
        },
        {
          "internalType": "bool",
          "name": "req",
          "type": "bool"
        }
      ],
      "name": "setReq",
      "outputs": [],
      "stateMutability": "nonpayable",
      "type": "function"
    }
  ],
  "bytecode": "0x608060409080825234620006b557620000329062005a668038038091620000278285620006ba565b8339810190620006de565b81519061010082016001600160401b038111838210176200069f5783526000808352602092818482015281858201528160608201528160808201528160a08201528160c08201528160e08201528190825b85600882106200067a5750505081556001600160a01b039182169283156200063757600180546001600160a01b031990811686179091558551638da5cb5b60e01b8152909460049183818481855afa9081156200062d5790869186916200060b575b50163303620005f557865190630110ceef60e21b9081835284848401526024600c818501526044906b48617368696e6750726f787960a01b8286015260649487818781875afa908115620004b957908a918a91620005d3575b50168a60025416176002558a518481528787820152600c828201526b53636f72696e6750726f787960a01b8382015287818781875afa908115620004b957908a918a91620005b1575b50168a60035416176003558a518481528787820152600782820152665374616b696e6760c81b8382015287818781875afa908115620004b957908a918a916200058f575b50168a8754161786558a5184815287878201526010828201526f417373657274696f6e53746f7261676560801b8382015287818781875afa908115620004b957908a918a916200056d575b50168a60055416176005558a518481528787820152600f828201526e4964656e7469747953746f7261676560881b8382015287818781875afa908115620004b957908a918a916200054b575b50168a60065416176006558a51848152878782015260118282015270506172616d657465727353746f7261676560781b8382015287818781875afa908115620004b957908a918a9162000529575b50168a60075416176007558a518481528787820152600e828201526d50726f66696c6553746f7261676560901b8382015287818781875afa908115620004b957908a918a9162000507575b50168a60085416176008558a5184815287878201526019828201527f5365727669636541677265656d656e7453746f726167655631000000000000008382015287818781875afa908115620004b957908a918a91620004e5575b50168a60095416176009558a5184815287878201526014828201527f5368617264696e675461626c6553746f726167650000000000000000000000008382015287818781875afa908115620004b957908a918a91620004c3575b50168a600a541617600a558a518481528787820152600e828201526d5374616b696e6753746f7261676560901b8382015287818781875afa908115620004b95792600589989694938e8e8e642a37b5b2b760d91b968f988e9d9b999162000497575b501690600b541617600b55519a8b98899788528701528501528301525afa9283156200048c579262000458575b50501690600c541617600c55516153669081620007008239f35b6200047c9250803d1062000484575b620004738183620006ba565b810190620006de565b38806200043e565b503d62000467565b8651903d90823e3d90fd5b620004b291508d803d106200048457620004738183620006ba565b3862000411565b8c513d8b823e3d90fd5b620004de9150893d8b116200048457620004738183620006ba565b38620003af565b620005009150893d8b116200048457620004738183620006ba565b3862000355565b620005229150893d8b116200048457620004738183620006ba565b38620002fb565b620005449150893d8b116200048457620004738183620006ba565b38620002b0565b620005669150893d8b116200048457620004738183620006ba565b3862000262565b620005889150893d8b116200048457620004738183620006ba565b3862000216565b620005aa9150893d8b116200048457620004738183620006ba565b38620001cb565b620005cc9150893d8b116200048457620004738183620006ba565b3862000187565b620005ee9150893d8b116200048457620004738183620006ba565b386200013e565b8651632980dd4b60e21b81523381840152602490fd5b620006269150853d87116200048457620004738183620006ba565b38620000e5565b88513d87823e3d90fd5b60649085519062461bcd60e51b82526004820152601960248201527f48756220416464726573732063616e6e6f7420626520307830000000000000006044820152fd5b829360019293511515908460031b60ff811b9283911b16911916179301910162000083565b634e487b7160e01b600052604160045260246000fd5b600080fd5b601f909101601f19168101906001600160401b038211908210176200069f57604052565b90816020910312620006b557516001600160a01b0381168103620006b5579056fe60e0604052600436101561001257600080fd5b6000803560e01c806305b9c7eb146124d157806306fdde031461247e5780630f0020161461242157806311c94ee8146123f8578063169df8d8146123b6578063365a86fc1461238d57806350d0c1441461236457806354fd4d501461231a57806355a373d6146122f1578063639a86a3146122c85780637522c2b1146122aa5780637662966a146122815780637db4ffd814611d625780637ea63c6e14611d145780638129fc1c1461184c578063823e2bc71461182357806383de896b146117e5578063aa6a00fd146117be578063ab6fec7014611754578063b24d3c3514610c9c578063b518a00e14610c73578063becdd59714610c42578063d210b7cf14610c19578063e1572ce6146101c3578063ee99205c1461019a578063f11abfd8146101715763f42cb0381461014657600080fd5b3461016e578060031936011261016e576008546040516001600160a01b039091168152602090f35b80fd5b503461016e578060031936011261016e576006546040516001600160a01b039091168152602090f35b503461016e578060031936011261016e576004546040516001600160a01b039091168152602090f35b503461016e57600319602036820112610b7f576001600160401b0360043511610b7f57610100906004353603011261016e57600154604051631627905560e01b81523360048201526001600160a01b0390911690602081602481855afa90811561083a578391610bfa575b5015610be2576001600160a01b0361024960048035016126f7565b1615610bd057602061025f6024600435016126f7565b6040516334f702db60e01b81526001600160a01b03909116600482015291829060249082905afa908115610b3e578291610bb1575b5015610b83576102ae606460043501600435600401612723565b906102b8826126dc565b6102c5604051918261269c565b8281528360208201923685820111610b7f57847fc5d2460186f7233c927e7db2dcc703c0e500b653ca82273b7bfad8045d85a4709560209286378301015251902014610b6d5761ffff61031c60a460043501612755565b1615610b5b576001600160601b0361033860c460043501612764565b1615610b49576003546001600160a01b0316602060ff602461035e60043560e401612778565b604051948593849263e12e56a760e01b84521660048301525afa908115610b3e578291610b1f575b5015610af7576103ce61039d6024600435016126f7565b6103b1606460043501600435600401612723565b906103c0608460043501612778565b9260446004350135906151d5565b6009546007546001600160a01b03908116929116906103f160043560a401612755565b604051630afaeebf60e31b8152602081600481885afa908115610aec578691610acd575b5061042460c460043501612764565b9161043360e460043501612778565b604051634731312160e11b8082526020826004818c5afa918215610ac2578a92610aa1575b506104676004356004016126f7565b604051600162dee8bd60e01b031981529091908b6020826004818f5afa928315610a72578c928294610a7f575b5060209060046040518095819382525afa8015610a725760ff92839291610a43575b50169116039060ff8211610a2f5760ff60018184160111610a2f5761051b60ff9283600181809560405160208101914283526001600160601b03199060601b1660408201524360548201526054815261050e81612622565b5190209316011690612fa6565b169116019260ff8411610a1b57863b15610a175760ff946001600160801b036001600160601b039261ffff88966040519a63131cbfbf60e21b8c5260048c01521660248a01521660448801521660648601521660848401521660a4820152838160c48183865af18015610a0c576109f9575b50600c546001600160a01b0316906105dc60206105ad60048035016126f7565b604051636eb1769f60e11b81526001600160a01b03909116600482015230602482015291829081906044820190565b0381865afa9081156109195785916109c7575b506001600160601b0361060660c460043501612764565b16116109245761061a6004356004016126f7565b6040516370a0823160e01b81526001600160a01b039091166004820152602081602481865afa9081156109195785916108e7575b506001600160601b0361066560c460043501612764565b161161084557602090606461067e6004356004016126f7565b8661068d60c460043501612764565b956001600160601b0360405197889687956323b872dd60e01b875260018060a01b0316600487015260248601521660448401525af1801561083a5761080b575b506106dc6024600435016126f7565b9060046106f0606482350182358301612723565b90926106ff6084843501612778565b93602061070f60a4863501612755565b9260405195868092630afaeebf60e31b82525afa938415610800577f4b81188c3c973dd634ec0dae5b7e72f92bb03834c830739d63935923950d6f64946001600160601b03936001600160801b03928a926107cb575b5061ffff9060ff61079061077d60c460043501612764565b966040519960c08b5260c08b01916127be565b991660208801524260408801521660608601521660808401521660a082015260043560440135936001600160a01b03169281900390a3604051f35b61ffff9192506107f29060203d6020116107f9575b6107ea818361269c565b810190612786565b9190610765565b503d6107e0565b6040513d89823e3d90fd5b61082c9060203d602011610833575b610824818361269c565b81019061270b565b50386106cd565b503d61081a565b6040513d85823e3d90fd5b508260206108576004356004016126f7565b6040516370a0823160e01b81526001600160a01b03909116600482015292839060249082905afa9081156108db57906108a3575b602490604051906317bf085b60e11b82526004820152fd5b506020813d6020116108d3575b816108bd6020938361269c565b810103126108ce576024905161088b565b600080fd5b3d91506108b0565b604051903d90823e3d90fd5b90506020813d602011610911575b816109026020938361269c565b810103126108ce57513861064e565b3d91506108f5565b6040513d87823e3d90fd5b61096b846020846109396004356004016126f7565b604051636eb1769f60e11b81526001600160a01b03909116600482015230602482015293849190829081906044820190565b03915afa9081156108db5790610994575b60249060405190630aff60cd60e01b82526004820152fd5b506020813d6020116109bf575b816109ae6020938361269c565b810103126108ce576024905161097c565b3d91506109a1565b90506020813d6020116109f1575b816109e26020938361269c565b810103126108ce5751386105ef565b3d91506109d5565b610a0590939193612653565b913861058d565b6040513d86823e3d90fd5b8880fd5b634e487b7160e01b89526011600452602489fd5b634e487b7160e01b8b52601160045260248bfd5b610a65915060203d602011610a6b575b610a5d818361269c565b8101906127a5565b386104b6565b503d610a53565b50604051903d90823e3d90fd5b6020919450610a9a90823d8411610a6b57610a5d818361269c565b9390610494565b610abb91925060203d602011610a6b57610a5d818361269c565b9038610458565b6040513d8c823e3d90fd5b610ae6915060203d6020116107f9576107ea818361269c565b38610415565b6040513d88823e3d90fd5b6024610b0760e460043501612778565b60ff60405191633345e8a560e11b8352166004820152fd5b610b38915060203d60201161083357610824818361269c565b38610386565b6040513d84823e3d90fd5b6040516382c4a8c960e01b8152600490fd5b60405163223e71ab60e21b8152600490fd5b6040516330e90cc960e21b8152600490fd5b5080fd5b6024610b9281600435016126f7565b604051630d6e49f360e11b81526001600160a01b039091166004820152fd5b610bca915060203d60201161083357610824818361269c565b38610294565b604051630c2a482760e11b8152600490fd5b6040516322d7fbbf60e11b8152336004820152602490fd5b610c13915060203d60201161083357610824818361269c565b3861022e565b503461016e578060031936011261016e576005546040516001600160a01b039091168152602090f35b503461016e57604036600319011261016e576020610c69610c616125b5565b600435612868565b6040519015158152f35b503461016e578060031936011261016e57600b546040516001600160a01b039091168152602090f35b503461016e57610cab366125c6565b90610cb58261426c565b60035460095460405163ce60dc6160e01b8152600481018590526001600160a01b0391821696929091169392906020816024818a5afa908115610aec578691611735575b50610d0660608401612778565b9460018060a01b036008541695604051926320e085cd60e11b84526001600160481b038516600485015288846024818b5afa93841561172a57906024949392918a9461170e575b50610d5b6040880188612723565b600b54604051639d2b48ad60e01b81526001600160481b038a166004820152929760209184919082906001600160a01b03165afa9182156115325791610dc791602097969594938e926116df575b50604051630168f40160e31b815298899788968796600488016131d6565b03915afa908115610aec5786916116a1575b50610dee610de960808501612755565b613220565b948690604051610e1581610e07878b8b60208501612be1565b03601f19810183528261269c565b6020815191012090885460ff8160101c161580611650575b6115d95760405163c45d174960e01b8152600481018490526020816024818f5afa9081156113f2576080610eca949392600080516020615311833981519152928e916115ba575b5060405190151581526040602082015260046040820152637265713360e01b6060820152a160405163572943f760e01b8152600481018a905261ffff8b1660248201529260209084908e90829081906044820190565b03915afa9283156113f2578b93611582575b50828c602060018060a01b036007541692602460405180948193635b3db70f60e11b835260048301525afa908115611055578d9161153d575b5060805260405163659621b560e01b8152929190602090849060049082905afa928315611532578c8e9181956114fb575b5060249160209160a09794959697525b60405192838092635c6c1fef60e01b82528660048301525afa908115611055578d916114c1575b5064ffffffffff80911690881610806114ad575b80611499575b156110605750908b9291602460208c610e07610fc18e604051928391868301956080519187612be1565b5190209560405192838092635b3db70f60e11b82528960048301525afa90811561105557908e918e9161100f575b5060249160209160805260ff600160a051011660a0529592939495610f56565b9150506020813d60201161104d575b8161102b6020938361269c565b810103126110495760208e611041602493612b42565b915091610fef565b8c80fd5b3d915061101e565b6040513d8f823e3d90fd5b8c938c8c9460ff829d9560181c161580611484575b61140157505060806000805160206153118339815191529163ffffffff604051911660ff60a05116101581526040602082015260046040820152631c995c4d60e21b6060820152a1833b156113fd5760405163cf57ca2f60e01b81528560048201526001600160481b03891660248201528a60448201528a606482015264ffffffffff881660848201528a8160a48183895af180156113f2576113df575b506040519063223dea6d60e21b82526004820152608081602481875afa908115610aec5786916113b0575b508760ff60a051161580809161139e575b1561124057505050823b1561123c5760405163447b6fab60e11b8152600481019190915261ffff919091166024820152604481019290925282908290606490829084905af18015610b3e57611228575b50505b7fe1a7e1465ab7eb42ef723e017eaef81cadc2f5b2d92fc93fea184d3222854e5d6001600160481b036111d4856126f7565b936112206111e56040880188612723565b6111f460608a98939801612778565b611203610de960808c01612755565b916020604051978897169b01359960018060a01b03169886613233565b0390a4604051f35b6112328291612653565b61016e578061119f565b8480fd5b8080989496939897929790611382575b1561127257505050506001600160481b0361126d945116916150a6565b6111a2565b809691929394959690611367575b156113095750813b156113055760405163447b6fab60e11b81526004810186905261ffff8516602482015260448101919091529082908290606490829084905af18015610b3e5790879392916112e7575b50506001600160481b0361126d945116926150a6565b8192949593506112f690612653565b61016e579182869294936112d1565b8280fd5b939250505064ffffffffff60608501511664ffffffffff861611600014611350576001600160481b03846113488483602061126d9901511685886150a6565b5116926150a6565b6001600160481b0361126d949392935116916150a6565b5064ffffffffff60608801511664ffffffffff891611611280565b5064ffffffffff60608901511664ffffffffff8a161115611250565b506001600160481b038351161561114f565b6113d2915060803d6080116113d8575b6113ca818361269c565b810190612b68565b8a61113e565b503d6113c0565b6113ea919650612653565b88948a611113565b6040513d8d823e3d90fd5b8980fd5b85856024848e94604051928380926320e085cd60e11b82526001600160481b03891660048301525afa908115610919578561145d94959692611461575b50506040519485946311168fa360e01b865260a0519360048701614199565b0390fd5b61147d92503d8091833e611475818361269c565b810190613178565b858061143e565b5063ffffffff831660ff60a051161015611075565b5063ffffffff841660ff60a0511610610f97565b506001600160481b03608051161515610f91565b90506020813d6020116114f3575b816114dc6020938361269c565b81010312611049576114ed90612b56565b38610f7d565b3d91506114cf565b602091955091611522602493833d851161152b575b61151a818361269c565b810190612b0f565b95915091610f46565b503d611510565b6040513d8e823e3d90fd5b90506020813d60201161157a575b816115586020938361269c565b81010312611049576004939291611570602092612b42565b9150919293610f15565b3d915061154b565b9092506020813d6020116115b2575b8161159e6020938361269c565b810103126115ae57519138610edc565b8a80fd5b3d9150611591565b6115d3915060203d60201161083357610824818361269c565b38610e74565b6040516320e085cd60e11b81526001600160481b03871660048201528a908a908a908984826024818a5afa918215610919578561145d94959693611633575b5050604051631f5a1aa960e11b815294859460048601614169565b6116489293503d8091833e611475818361269c565b908580611618565b5060405163c45d174960e01b8152600481018490526020816024818f5afa9081156113f2578b91611682575b50610e2d565b61169b915060203d60201161083357610824818361269c565b3861167c565b90506020813d6020116116d7575b816116bc6020938361269c565b810103126116d3576116cd90612b56565b38610dd9565b8580fd5b3d91506116af565b611700919250883d8a11611707575b6116f8818361269c565b810190612f87565b9038610da9565b503d6116ee565b6117239194503d808c833e611475818361269c565b9238610d4d565b6040513d8b823e3d90fd5b61174e915060203d602011610a6b57610a5d818361269c565b38610cf9565b503461016e57602036600319011261016e576004356001600160401b038111610b7f5761178590369060040161253d565b90825b8281106117955783604051f35b8060051b82013590609e198336030182121561123c576117b8600192840161326b565b01611788565b503461016e57604036600319011261016e576020610c696117dd6125b5565b600435612c14565b503461016e57602036600319011261016e5760043590600882101561016e57602060ff611811846125f7565b9190546040519260031b1c1615158152f35b503461016e578060031936011261016e57600a546040516001600160a01b039091168152602090f35b503461016e578060031936011261016e5761186561529a565b60018060a01b038060015416906040519183630110ceef60e21b808552602092836004870152602490600c828801526044926b48617368696e6750726f787960a01b8489015260649186898481845afa988915610aec578699611cf5575b50876001600160601b0360a01b9916896002541617600255604051828152876004820152600c858201526b53636f72696e6750726f787960a01b8682015287818581855afa80156108005789918891611cd8575b5016896003541617600355604051828152876004820152600785820152665374616b696e6760c81b8682015287818581855afa80156108005789918891611cbb575b50168960045416176004556040518281528760048201526010858201526f417373657274696f6e53746f7261676560801b8682015287818581855afa80156108005789918891611c9e575b5016896005541617600555604051828152876004820152600f858201526e4964656e7469747953746f7261676560881b8682015287818581855afa80156108005789918891611c81575b501689600654161760065560405182815287600482015260118582015270506172616d657465727353746f7261676560781b8682015287818581855afa80156108005789918891611c64575b5016896007541617600755604051828152876004820152600e858201526d50726f66696c6553746f7261676560901b8682015287818581855afa80156108005789918891611c47575b50168960085416176008556040518281528760048201526019858201527f5365727669636541677265656d656e7453746f726167655631000000000000008682015287818581855afa80156108005789918891611c2a575b5016896009541617600955604051828152876004820152601485820152735368617264696e675461626c6553746f7261676560601b8682015287818581855afa80156108005789918891611c0d575b501689600a541617600a55604051828152876004820152600e858201526d5374616b696e6753746f7261676560901b8682015287818581855afa95861561080057898997642a37b5b2b760d91b9360059a91611bf0575b50168b600b541617600b55604051978896879586528860048701528501528301525afa918215610919578592611bc3575b50501690600c541617600c55604051f35b611be29250803d10611be9575b611bda818361269c565b8101906126bd565b3880611bb2565b503d611bd0565b611c079150893d8b11611be957611bda818361269c565b38611b81565b611c249150893d8b11611be957611bda818361269c565b38611b2a565b611c419150893d8b11611be957611bda818361269c565b38611adb565b611c5e9150893d8b11611be957611bda818361269c565b38611a83565b611c7b9150893d8b11611be957611bda818361269c565b38611a3a565b611c989150893d8b11611be957611bda818361269c565b386119ee565b611cb59150893d8b11611be957611bda818361269c565b386119a4565b611cd29150893d8b11611be957611bda818361269c565b38611959565b611cef9150893d8b11611be957611bda818361269c565b38611917565b611d0d919950873d8911611be957611bda818361269c565b97386118c3565b503461016e57604036600319011261016e57602435801515809103610b7f57611d3b61529a565b611d466004356125f7565b819291549060031b60ff811b9283911b16911916179055604051f35b503461016e57604036600319011261016e57611d7c6125b5565b6009546040516310dc199160e31b815260048035908201526001600160a01b03918216929190602081602481875afa908115610919578591612262575b50156122495760405163d1a640c760e01b808252600480359083015290602081602481885afa908115610aec57869161222a575b5061ffff80911690841610156120ff5750916020600493600754166040519485809263659621b560e01b82525afa928315610a0c5784936120de575b50611e3963ffffffff8416612b2b565b91611e47604051938461269c565b63ffffffff8416808452601f1990611e5e90612b2b565b01855b8181106120af57505060405163572943f760e01b8152600480359082015261ffff82166024820152602081604481865afa908115610aec57869161207d575b506040519063223dea6d60e21b82526004820152608081602481865afa908115610aec57869161205e575b50611ed584612bc0565b52611edf83612bc0565b506001600160481b036040611ef385612bc0565b510151166001905b63ffffffff861660ff8316108061204c575b15611fc257604051611f2b81610e0760208201948760043587612be1565b5190206040519063223dea6d60e21b82526004820152608081602481875afa908115610800578791611fa3575b50611f6660ff831686612bcd565b52611f7460ff821685612bcd565b5063ffffffff60ff60016001600160481b036040611f948487168a612bcd565b51015116930116919050611efb565b611fbc915060803d6080116113d8576113ca818361269c565b38611f58565b8487604051918291602083016020845282518091526020604085019301915b818110611fef575050500390f35b919350916020608060019286516001600160481b0381511682526001600160481b038482015116848301526001600160481b03604082015116604083015264ffffffffff6060809201511690820152019401910191849392611fe1565b506001600160481b0381161515611f0d565b612077915060803d6080116113d8576113ca818361269c565b38611ecb565b90506020813d6020116120a7575b816120986020938361269c565b810103126116d3575138611ea0565b3d915061208b565b6020906040516120be81612622565b888152888382015288604082015288606082015282828801015201611e61565b6120f891935060203d60201161152b5761151a818361269c565b9138611e29565b604051630271c2cf60e61b815260048035908201529250602083602481875afa9283156109195785936121f5575b50602090602460405180968193825260043560048301525afa928315610a0c5784936121c0575b5060206004916007541660405192838092630afaeebf60e31b82525afa908115610a0c5761145d929394916121a1575b50604051631b18d90960e31b8152938493600480359086016127f9565b6121ba915060203d6020116107f9576107ea818361269c565b38612184565b60049193506121e6602091823d84116121ee575b6121de818361269c565b8101906127df565b939150612154565b503d6121d4565b9092506020813d602011612222575b816122116020938361269c565b8101031261123c575191602061212d565b3d9150612204565b612243915060203d6020116121ee576121de818361269c565b38611ded565b6024604051635013c2b960e01b81526004356004820152fd5b61227b915060203d60201161083357610824818361269c565b38611db9565b503461016e578060031936011261016e576003546040516001600160a01b039091168152602090f35b503461016e576122c16122bc366125c6565b61426c565b5050604051f35b503461016e578060031936011261016e576007546040516001600160a01b039091168152602090f35b503461016e578060031936011261016e57600c546040516001600160a01b039091168152602090f35b503461016e578060031936011261016e5761236060405161233a81612666565b60058152640312e302e360dc1b6020820152604051918291602083526020830190612590565b0390f35b503461016e578060031936011261016e576009546040516001600160a01b039091168152602090f35b503461016e578060031936011261016e576001546040516001600160a01b039091168152602090f35b503461016e57600319602036820112610b7f57600435906001600160401b0382116113055760a0908236030112610b7f576123f39060040161326b565b604051f35b503461016e578060031936011261016e576002546040516001600160a01b039091168152602090f35b503461016e57608036600319011261016e576004356001600160a01b038082168203611305576024359081168103611305576064359261ffff8416840361016e576040612472856044358587612fc6565b82519182526020820152f35b503461016e578060031936011261016e5761236060405161249e81612666565b60128152715365727669636541677265656d656e74563160701b6020820152604051918291602083526020830190612590565b503461016e57602036600319011261016e576004356001600160401b038111610b7f5761250290369060040161253d565b90825b8281106125125783604051f35b8060051b8201359060de198336030182121561123c57612535600192840161426c565b505001612505565b9181601f840112156108ce578235916001600160401b0383116108ce576020808501948460051b0101116108ce57565b60005b8381106125805750506000910152565b8181015183820152602001612570565b906020916125a98151809281855285808601910161256d565b601f01601f1916010190565b6024359061ffff821682036108ce57565b600319906020818301126108ce57600435916001600160401b0383116108ce578260e0920301126108ce5760040190565b90600882101561260c57601f8260051c921690565b634e487b7160e01b600052603260045260246000fd5b608081019081106001600160401b0382111761263d57604052565b634e487b7160e01b600052604160045260246000fd5b6001600160401b03811161263d57604052565b604081019081106001600160401b0382111761263d57604052565b606081019081106001600160401b0382111761263d57604052565b90601f801991011681019081106001600160401b0382111761263d57604052565b908160209103126108ce57516001600160a01b03811681036108ce5790565b6001600160401b03811161263d57601f01601f191660200190565b356001600160a01b03811681036108ce5790565b908160209103126108ce575180151581036108ce5790565b903590601e19813603018212156108ce57018035906001600160401b0382116108ce576020019181360383136108ce57565b3561ffff811681036108ce5790565b356001600160601b03811681036108ce5790565b3560ff811681036108ce5790565b908160209103126108ce57516001600160801b03811681036108ce5790565b908160209103126108ce575160ff811681036108ce5790565b908060209392818452848401376000828201840152601f01601f1916010190565b908160209103126108ce575161ffff811681036108ce5790565b929361ffff6001600160801b0392969560609460808701988752602087015216604085015216910152565b6001600160801b039182809216918291169204821181151516612845570290565b634e487b7160e01b600052601160045260246000fd5b9190820180921161284557565b60095460408051630271c2cf60e61b815260048082018590526001600160a01b0393841695949193909160209182866024818b5afa958615612b0457600096612ad5575b50600754169084519763484a47e760e01b895281858a01528389602481845afa988915612aca57600099612aab575b508615612a9457855163d1a640c760e01b8082528682018490529098858a602481865afa998a15612a895760009a612a6a575b5061ffff80911699168910156129fa5750508451637ad65f2760e01b815293839285925082905afa9283156129f05750859260ff926064926000926129d3575b50506129666001600160801b03948594859316612824565b1604169280156129c2576129858261297e8388612824565b168461285b565b42119485612996575b505050505090565b6129b695506129b19392916129aa91612824565b169061285b565b61285b565b4210388080808061298e565b50506129ce925061285b565b421090565b6129e99250803d10610a6b57610a5d818361269c565b388061294e565b513d6000823e3d90fd5b898593928989868a95602483518096819382528a8a8301525afa928315612a5f5761145d959697600094612a40575b505051631b18d90960e31b815295869586016127f9565b612a57929450803d106121ee576121de818361269c565b918780612a29565b50513d6000823e3d90fd5b612a82919a50863d88116121ee576121de818361269c565b983861290e565b88513d6000823e3d90fd5b8551635013c2b960e01b8152808601839052602490fd5b612ac3919950843d86116107f9576107ea818361269c565b97386128db565b86513d6000823e3d90fd5b90958382813d8311612afd575b612aec818361269c565b8101031261016e57505194386128ac565b503d612ae2565b85513d6000823e3d90fd5b908160209103126108ce575163ffffffff811681036108ce5790565b6001600160401b03811161263d5760051b60200190565b51906001600160481b03821682036108ce57565b519064ffffffffff821682036108ce57565b908160809103126108ce57612bb8606060405192612b8584612622565b612b8e81612b42565b8452612b9c60208201612b42565b6020850152612bad60408201612b42565b604085015201612b56565b606082015290565b80511561260c5760200190565b805182101561260c5760209160051b010190565b90815260f09190911b6001600160f01b031916602082015260b89190911b6001600160b81b0319166022820152602b0190565b9060018060a01b0380600954166040805191630271c2cf60e61b95868452600491818386015260209160249883878b81865afa968715612aca57600097612f58575b508615612f4257855163d1a640c760e01b8082528682018490529099858b8d81885afa9a8b15612a895760009b612f23575b5061ffff8091169a168a1015612e09575050845163484a47e760e01b815284810182905298838a8281865afa998a15612aca5760009a612de6575b509083918651809481936399149f7760e01b8352888301525afa908115612ddb579160ff60648293612d0e979695600091612dbe575b506001600160801b039788938492168d612824565b160416966007541684519384809263274f3ac360e21b82525afa9283156129f05750612d4d60ff85946064948694600092612da1575b50501689612824565b16041693612d6a846129b184612d63858b612824565b168661285b565b42119586612d7c575b50505050505090565b612d949650916129aa6129b19594926129b194612824565b4210388080808080612d73565b612db79250803d10610a6b57610a5d818361269c565b3880612d44565b612dd59150843d8611610a6b57610a5d818361269c565b38612cf9565b84513d6000823e3d90fd5b8492919a50612e0190833d85116107f9576107ea818361269c565b999091612cc3565b8a939497508698929651918252868683015287828581885afa938415612f18578892600095612ee4575b50895180968193825289898301525afa928315612ed95795809791859697600095612eba575b5060075416825195868092630afaeebf60e31b82525afa938415612a5f5761145d959697600095612e9b57505051631b18d90960e31b815295869586016127f9565b612eb2929550803d106107f9576107ea818361269c565b928780612a29565b612ed2919550823d84116121ee576121de818361269c565b9389612e59565b87513d6000823e3d90fd5b919282819692963d8311612f11575b612efd818361269c565b8101031261016e575090879151938a612e33565b503d612ef3565b89513d6000823e3d90fd5b612f3b919b50863d88116121ee576121de818361269c565b9938612c88565b8551635013c2b960e01b81528086018390528a90fd5b90968482813d8311612f80575b612f6f818361269c565b8101031261016e5750519538612c56565b503d612f65565b908160209103126108ce57516001600160601b03811681036108ce5790565b8115612fb0570690565b634e487b7160e01b600052601260045260246000fd5b9391909360018060a01b03938491826006541693604094855194859363010cf48d60e71b855216600484015282602460209687935afa918215612b0457600092613139575b508697602485928751998a93849263cede992f60e01b84526004840152165afa958615612ddb57600096613108575b5082602495969760055416855196878092632111070960e01b82528b60048301525afa948515612ddb576000956130e0575b506000916130ba918551908582019261ffff60f01b9060f01b1683526001600160481b0360b81b9060b81b166022820152600b81526130aa81612666565b855192839283925192839161256d565b8101039060025afa156129f057506001600160601b036130dd9116600051612fa6565b90565b6130ba919550916130ff600093853d8711611707576116f8818361269c565b9591509161306c565b96958388813d8311613132575b61311f818361269c565b8101031261016e5750955194958261303a565b503d613115565b90918482813d8311613171575b613150818361269c565b8101031261016e5750869760246131678693612b42565b939250509761300b565b503d613146565b6020818303126108ce578051906001600160401b0382116108ce570181601f820112156108ce5780516131aa816126dc565b926131b8604051948561269c565b818452602082840101116108ce576130dd916020808501910161256d565b9461320b6001600160601b039460ff6132199581608099969c9b9c168a5216602089015260a0604089015260a0880190612590565b9186830360608801526127be565b9416910152565b90600161ffff8093160191821161284557565b9361ffff9060ff61325860609699989464ffffffffff9660808a5260808a01916127be565b9816602087015216604085015216910152565b61329d613277826126f7565b6132846040840184612723565b9061329160608601612778565b926020860135906151d5565b906000549160ff8316158061414d575b613faa5760008051602061531183398151915260806132d66132d0828601612755565b84612868565b156040519081526040602082015260046040820152637265713160e01b6060820152a160065460405163010cf48d60e71b815233600482015290602090829060249082906001600160a01b03165afa90811561372857600091613f70575b5060ff8460081c161580613f05575b613dad57600a5460405163175a11e760e21b81526001600160481b038316600482015290602090829060249082906001600160a01b03165afa9081156137285760008051602061531183398151915291608091600091613d8e575b50604051901581526040602082015260046040820152633932b89960e11b6060820152a160035460095460405163ce60dc6160e01b8152600481018590526001600160a01b039283169792909116949092602084602481895afa93841561372857600094613d6d575b5061341460608301612778565b6008546040516320e085cd60e11b81526001600160481b0384166004820152996001600160a01b0390911695909160008b6024818a5afa9182156137285760249b600093613d50575b5061346b6040870187612723565b600b54604051639d2b48ad60e01b81526001600160481b0389166004820152929e60209184919082906001600160a01b03165afa91821561372857600092613d2f575b50604051630168f40160e31b81529d8e9586956134ce95600488016131d6565b03815a93602094fa97881561372857600098613cf3575b506134f260808301612755565b9760008261350d8b610e076040519384928c60208501612be1565b6020815191012060c05260ff8960101c161580613ca0575b613c2c5760405163c45d174960e01b815260c0516004820152956020876024818c5afa8015613728576080600080516020615311833981519152916135be99600091613c0d575b5060405190151581526040602082015260046040820152637265713360e01b6060820152a160405163572943f760e01b81526004810189905261ffff8c16602482015296602090889081906044820190565b03818c5afa96871561372857600097613bd9575b50600754604051635b3db70f60e11b8152600481018990526001600160a01b0390911697916020826024818e5afa91821561372857600092613b9a575b506020600492996040519384809263659621b560e01b82525afa91821561372857600092613b79575b5091976000985b602460208d60405192838092635c6c1fef60e01b82528660048301525afa90811561372857600091613b3f575b5064ffffffffff8091169087161080613b2d575b80613b1b575b15613734575089906136a68e610e07604051938492602084019687612be1565b519020604051635b3db70f60e11b8152600481018290529092906020816024818f5afa908115613728576000916136e9575b50600160ff919a011698909261363f565b90506020813d602011613720575b816137046020938361269c565b810103126108ce57600161371960ff92612b42565b91506136d8565b3d91506136f7565b6040513d6000823e3d90fd5b9499979c959a969b60ff915098939892919260181c161580613b08575b613a93575060806000805160206153118339815191529163ffffffff604051911660ff8516101581526040602082015260046040820152631c995c4d60e21b6060820152a1833b156108ce5760405163cf57ca2f60e01b815260c05160048201526001600160481b0389166024820152600060448201526000606482015264ffffffffff8816608482015260008160a48183895af1801561372857613a7f575b506040519163223dea6d60e21b83526004830152608082602481875afa918215610aec579088918793613a5b575b5060ff16158080613a49575b156138fc57505050813b156138f85760405163447b6fab60e11b815260c051600482019490945261ffff919091166024820152604481019290925282908290606490829084905af18015610b3e576138e4575b50505b7fe1a7e1465ab7eb42ef723e017eaef81cadc2f5b2d92fc93fea184d3222854e5d6001600160481b036138b3856126f7565b936138df6138c46040880188612723565b6138d360608a98939801612778565b61120360808b01612755565b0390a4565b6138ee8291612653565b61016e578061387e565b8380fd5b919590949390918080613a2d575b1561392b575050506001600160481b03613926945116916150a6565b613881565b8095919293949590613a12575b156139bd5750803b15610b7f5760405163447b6fab60e11b815260c0516004820186905261ffff8516602483015260448201529082908290606490829084905af18015610b3e57908793929161399f575b50506001600160481b03613926945116926150a6565b8192949593506139ae90612653565b61016e57918286929493613989565b9291505064ffffffffff60608501511664ffffffffff8616116000146139fb576001600160481b0384611348848360206139269901511685886150a6565b6001600160481b03613926949392935116916150a6565b5064ffffffffff60608701511664ffffffffff881611613938565b5064ffffffffff60608801511664ffffffffff8916111561390a565b506001600160481b038351161561382b565b60ff919350613a789060803d6080116113d8576113ca818361269c565b929061381f565b613a8a919650612653565b600094386137f1565b866024848c60008995604051948580926320e085cd60e11b82526001600160481b03861660048301525afa9081156137285761145d93600092613aeb575b506040516311168fa360e01b815295869560048701614199565b613b019192503d806000833e611475818361269c565b9086613ad1565b5063ffffffff821660ff84161015613751565b5063ffffffff831660ff8b1610613686565b506001600160481b0382161515613680565b90506020813d602011613b71575b81613b5a6020938361269c565b810103126108ce57613b6b90612b56565b3861366c565b3d9150613b4d565b613b9391925060203d60201161152b5761151a818361269c565b9038613638565b91506020823d602011613bd1575b81613bb56020938361269c565b810103126108ce576020613bca600493612b42565b925061360f565b3d9150613ba8565b9096506020813d602011613c05575b81613bf56020938361269c565b810103126108ce575195386135d2565b3d9150613be8565b613c26915060203d60201161083357610824818361269c565b3861356c565b6040516320e085cd60e11b81526001600160481b03841660048201528a908890856000826024818d5afa9081156137285761145d92600092613c83575b50604051631f5a1aa960e11b815294859460048601614169565b613c999192503d806000833e611475818361269c565b9085613c69565b5060405163c45d174960e01b815260c05160048201526020816024818c5afa90811561372857600091613cd4575b50613525565b613ced915060203d60201161083357610824818361269c565b38613cce565b9097506020813d602011613d27575b81613d0f6020938361269c565b810103126108ce57613d2090612b56565b96386134e5565b3d9150613d02565b613d4991925060203d602011611707576116f8818361269c565b90386134ae565b613d669193503d806000833e611475818361269c565b913861345d565b613d8791945060203d602011610a6b57610a5d818361269c565b9238613407565b613da7915060203d60201161083357610824818361269c565b3861339e565b6008546040516320e085cd60e11b81526001600160481b039290921660048301819052906001600160a01b0316600083602481845afa92831561372857600093613ee2575b506020602491604051928380926339fb67dd60e01b82528660048301525afa801561372857602491600091613ec3575b50600b54604051639d2b48ad60e01b8152600481018590529260209184919082906001600160a01b03165afa91821561372857600092613ea2575b50613e87604051948594636e2310c160e01b86526004860152608060248601526084850190612590565b916001600160601b0380921660448501521660648301520390fd5b613ebc91925060203d602011611707576116f8818361269c565b9084613e5d565b613edc915060203d602011611707576116f8818361269c565b84613e22565b6024919350613efd6020913d806000833e611475818361269c565b939150613df2565b50600a5460405163175a11e760e21b81526001600160481b038316600482015290602090829060249082906001600160a01b03165afa90811561372857600091613f51575b5015613343565b613f6a915060203d60201161083357610824818361269c565b38613f4a565b90506020813d602011613fa2575b81613f8b6020938361269c565b810103126108ce57613f9c90612b42565b38613334565b3d9150613f7e565b60095460405163484a47e760e01b815260048101839052916001600160a01b03918216602084602481845afa9081156137285760249460009261412b575b5060209060405195868092630271c2cf60e61b82528660048301525afa938415613728576000946140f3575b50614041602061404d614047608060049798990198896129aa8761ffff6001600160801b03988994612755565b16612824565b97612755565b956007541660405195868092637ad65f2760e01b82525afa918215613728578161408c60649260ff6140959661145d996000916140d4575b5016612824565b1604168561285b565b604051632689ca7960e21b8152600481019290925261ffff909316602482015260448101939093526064830191909152426084830152819060a4820190565b6140ed915060203d602011610a6b57610a5d818361269c565b8c614085565b9293506020833d602011614123575b8161410f6020938361269c565b810103126108ce5791519291614041614014565b3d9150614102565b602091925061414690823d84116107f9576107ea818361269c565b9190613fe8565b5061416361415d60808401612755565b82612868565b156132ad565b906130dd949361ffff6080946001600160481b039385521660208401521660408201528160608201520190612590565b936001600160481b0360809461ffff60ff95613219959a999a895216602088015216604086015260a0606086015260a0850190612590565b903590601e19813603018212156108ce57018035906001600160401b0382116108ce57602001918160051b360383136108ce57565b929161421182612b2b565b9161421f604051938461269c565b829481845260208094019160051b81019283116108ce57905b8282106142455750505050565b81358152908301908301614238565b906001600160601b03809116918215612fb057160490565b9060006142a161427b846126f7565b6142886040860186612723565b9061429560608801612778565b926020880135906151d5565b9160018060a01b036009541682549460ff8660201c16158061502d575b614ebb5760008051602061531183398151915260806142e76142e1828501612755565b88612c14565b156040519081526040602082015260046040820152637265713560e01b6060820152a160065460405163010cf48d60e71b815233600482015290602090829060249082906001600160a01b03165afa908115610919578591614e81575b5060ff8760281c161580614de4575b614d53578061437a61436760808501612755565b610e076040519384928b60208501612be1565b6020815191012060405190635c6c1fef60e01b82526004820152602081602481875afa908115610aec578691614d07575b5060806000805160206153118339815191529164ffffffffff60405191161581526040602082015260046040820152633932b89b60e11b6060820152a161442460206143f960808501612755565b60405163572943f760e01b8152600481018a905261ffff909116602482015291829081906044820190565b0381875afa908115610aec578691614cd5575b5060075460405163659621b560e01b815291959190602090829060049082906001600160a01b03165afa908115610800578791614cb6575b5086955b604051620153f560ea1b8152600481018290526020816024818a5afa90811561172a578991614c7c575b506001600160481b038581169116141580614c6a575b15614565576144c460808601612755565b9060405190635b3db70f60e11b825260048201526020816024818a5afa90811561172a57908a918a9161451d575b509060019161451160ff94610e07604051938492602084019687612be1565b51902097011695614473565b9150506020813d60201161455d575b816145396020938361269c565b81010312610a17578960ff92614511614553600194612b42565b92935050926144f2565b3d915061452c565b5091979096959460ff8260301c161580614c57575b614bc45790600080516020615311833981519152608060ff93604051908563ffffffff88169116101581526040602082015260046040820152637265713760e01b6060820152a16145e66145cd856126f7565b6145d960808701612755565b9060208701359033612fc6565b92909160381c161580614b85575b614a7b576146506000805160206153118339815191529260809261464b61461e60a08901896141d1565b93604051602081019160c08c0135835260408201526040815261464081612681565b519020933691614206565b615049565b156040519081526040602082015260046040820152630e4cae2760e31b6060820152a161467c826126f7565b6146896040840184612723565b919061ffff61469a60608701612778565b9160ff6146bf6146ac60808a01612755565b92604051976060895260608901916127be565b931660208601521660408401527fe6ecae4b7152cd744b7711f430df2c51c97082e76242e59667c590f88a2b068a6001600160481b038b16938060208801359460018060a01b0316930390a4604051634089a17d60e01b815260048101869052602081602481875afa908115610919578591614a5c575b5060405163d1a640c760e01b815260048101879052602081602481885afa908115610aec578691614a3d575b5061ffff8061477360808701612755565b1691160361ffff8111614a29579061ffff61479061479793613220565b1690614254565b906147d460206147a960808601612755565b604051632b275f3d60e21b8152600481018a905261ffff909116602482015291829081906044820190565b0381885afa908115610aec5763ffffffff9182918891614a0a575b501691160363ffffffff81116149c4579063ffffffff614810921690614254565b6004546001600160a01b0316803b1561123c5760405163a7b5dd5960e01b81526001600160481b03891660048201528581604481836001600160601b03809816968760248401525af18015610aec576149f7575b50604051634089a17d60e01b815260048101879052602081602481885afa908115610aec5790839187916149d8575b501603908082116149c457833b1561123c5760405163e54b26ff60e01b81526004810187905291166024820152838160448183875af18015610a0c579084916149b0575b50506148e560808201612755565b823b156138f85760405163beca40f360e01b81526004810186905261ffff919091166024820152838160448183875af18015610a0c5790849161499c575b505060806149319101612755565b60405161494881610e078960208301958987612be1565b519020813b15611305578291604483926040519485938492631eb18b8b60e11b845260048401528160248401525af18015610b3e57614988575b50509190565b6149928291612653565b61016e5780614982565b6149a590612653565b611305578238614923565b6149b990612653565b6113055782386148d7565b634e487b7160e01b85526011600452602485fd5b6149f1915060203d602011611707576116f8818361269c565b38614893565b614a0390959195612653565b9338614864565b614a23915060203d60201161152b5761151a818361269c565b386147ef565b634e487b7160e01b86526011600452602486fd5b614a56915060203d6020116121ee576121de818361269c565b38614762565b614a75915060203d602011611707576116f8818361269c565b38614736565b858792858b936001600160481b03614a9560808401612755565b6008546040516320e085cd60e11b8152929097166004830181905290968690839060249082906001600160a01b03165afa918215610aec5791614b1f9161ffff938892614b69575b50614aeb60a08701876141d1565b9490996040519b635926ff1b60e11b8d5260048d01521660248b015260448a015261010060648a0152610104890190612590565b878103600319016084890152818152946001600160fb1b03821161016e5750869492602096949260c09260051b80968987013760a4870152013560c485015260e484015201030190fd5b614b7e9192503d808a833e611475818361269c565b908a614add565b50614bbe61464b82614b9a60a08801886141d1565b9290604051602081019060c08b013582528860408201526040815261464081612681565b156145f4565b888787926024614bd660808901612755565b6008546040516320e085cd60e11b81526001600160481b038716600482015291959192879184919082906001600160a01b03165afa918215610aec578661145d95969793614c3a575b50506040516311168fa360e01b815295869560048701614199565b614c4f9293503d8091833e611475818361269c565b908680614c1f565b5063ffffffff831660ff8216101561457a565b5063ffffffff821660ff8816106144b3565b90506020813d602011614cae575b81614c976020938361269c565b81010312610a1757614ca890612b42565b3861449d565b3d9150614c8a565b614ccf915060203d60201161152b5761151a818361269c565b3861446f565b90506020813d602011614cff575b81614cf06020938361269c565b810103126116d3575138614437565b3d9150614ce3565b90506020813d602011614d4b575b81614d226020938361269c565b810103126116d3576080614d4460008051602061531183398151915292612b56565b91506143ab565b3d9150614d15565b856024614d636080889501612755565b6008546040516320e085cd60e11b81526001600160481b038616600482015291949192869184919082906001600160a01b03165afa918215610919578561145d94959693614dc7575b50506040516305e3db5760e31b815294859460048601614169565b614ddc9293503d8091833e611475818361269c565b908580614dac565b50614df160808301612755565b604051614e0881610e078560208301958c87612be1565b51902060405190635c6c1fef60e01b82526004820152602081602481875afa8015610aec578690614e43575b64ffffffffff91501615614353565b506020813d602011614e79575b81614e5d6020938361269c565b810103126116d357614e7464ffffffffff91612b56565b614e34565b3d9150614e50565b90506020813d602011614eb3575b81614e9c6020938361269c565b8101031261123c57614ead90612b42565b38614344565b3d9150614e8f565b8484916040519363484a47e760e01b8552826004860152602085602481845afa948515610a0c578495615006575b5090602060249260405193848092630271c2cf60e61b82528760048301525afa918215610a0c578492614fd1575b5060800193614f42614f3c6001600160801b0393846129aa8561ffff6140418c612755565b95612755565b600754604051637ad65f2760e01b815291959190602090829060049082906001600160a01b03165afa9182156108db579361408c614f929460ff839560649561145d9a99916140d4575016612824565b60405163d28d7f1f60e01b8152600481019290925261ffff909316602482015260448101939093526064830191909152426084830152819060a4820190565b9091506020813d602011614ffe575b81614fed6020938361269c565b810103126138f85751906080614f17565b3d9150614fe0565b602492919550615024602091823d84116107f9576107ea818361269c565b95919250614ee9565b5061504361503d60808301612755565b86612c14565b156142be565b90926000925b825184101561509d576150628484612bcd565b519060008282101561508e575060005260205260406000205b926000198114612845576001019261504f565b9060409282526020522061507b565b91509291501490565b600954604080516000969195946001600160a01b03909316939260208201826150d188848885612be1565b03926150e5601f199485810183528261269c565b519020853b15610a17578751638a0f01b560e01b815260048101919091526001600160481b03841660248201528881604481838a5af180156151cb576151b4575b509061514b9161513f8851948592602084019788612be1565b0390810183528261269c565b519020813b1561123c578351631c30973d60e31b815260048101919091526001600160481b0392909216602483015290919083908390604490829084905af19081156151ab575061519a575050565b6151a48291612653565b61016e5750565b513d84823e3d90fd5b976151c361514b939299612653565b979091615126565b88513d8b823e3d90fd5b6152569461522b605460ff936020979695968060018060a01b036002541697604051998a946001600160601b03199060601b168c860152603485015284840137810160008382015203603481018752018561269c565b604051958694859384936345ed59e560e01b8552166004840152604060248401526044830190612590565b03915afa9081156137285760009161526c575090565b906020823d8211615292575b816152856020938361269c565b8101031261016e57505190565b3d9150615278565b600154604051638da5cb5b60e01b81526001600160a01b03916020908290600490829086165afa908115613728576000916152f2575b501633036152da57565b604051632980dd4b60e21b8152336004820152602490fd5b61530a915060203d8111611be957611bda818361269c565b386152d056fe016e1e1566f4e4051f44e151b6ee2104d817d8b587cea6447703c0e6547acbc6a2646970667358221220deef4b703196a0c1628a4e074bb9c4d9b4a4fdeba244ad4ccdc1d8cc6052b74b64736f6c63430008100033",
  "immutableReferences": {},
  "source": "// SPDX-License-Identifier: MIT\n\npragma solidity ^0.8.4;\n\nimport {HashingProxy} from \"./HashingProxy.sol\";\nimport {Hub} from \"./Hub.sol\";\nimport {ScoringProxy} from \"./ScoringProxy.sol\";\nimport {Staking} from \"./Staking.sol\";\nimport {AbstractAsset} from \"./assets/AbstractAsset.sol\";\nimport {AssertionStorage} from \"./storage/AssertionStorage.sol\";\nimport {IdentityStorage} from \"./storage/IdentityStorage.sol\";\nimport {ParametersStorage} from \"./storage/ParametersStorage.sol\";\nimport {ProfileStorage} from \"./storage/ProfileStorage.sol\";\nimport {ServiceAgreementStorageV1} from \"./storage/ServiceAgreementStorageV1.sol\";\nimport {ShardingTableStorage} from \"./storage/ShardingTableStorage.sol\";\nimport {StakingStorage} from \"./storage/StakingStorage.sol\";\nimport {Named} from \"./interface/Named.sol\";\nimport {Versioned} from \"./interface/Versioned.sol\";\nimport {ServiceAgreementStructsV1} from \"./structs/ServiceAgreementStructsV1.sol\";\nimport {GeneralErrors} from \"./errors/GeneralErrors.sol\";\nimport {ServiceAgreementErrorsV1} from \"./errors/ServiceAgreementErrorsV1.sol\";\nimport {IERC20} from \"@openzeppelin/contracts/token/ERC20/IERC20.sol\";\nimport {MerkleProof} from \"@openzeppelin/contracts/utils/cryptography/MerkleProof.sol\";\n\ncontract ServiceAgreementV1 is Named, Versioned {\n    event ServiceAgreementV1Created(\n        address indexed assetContract,\n        uint256 indexed tokenId,\n        bytes keyword,\n        uint8 hashFunctionId,\n        uint256 startTime,\n        uint16 epochsNumber,\n        uint128 epochLength,\n        uint96 tokenAmount\n    );\n    event ServiceAgreementV1Updated(\n        address indexed assetContract,\n        uint256 indexed tokenId,\n        bytes keyword,\n        uint8 hashFunctionId,\n        uint16 epochsNumber,\n        uint96 tokenAmount\n    );\n    event ServiceAgreementV1Terminated(\n        address indexed assetContract,\n        uint256 indexed tokenId,\n        bytes keyword,\n        uint8 hashFunctionId\n    );\n    event ServiceAgreementV1Extended(\n        address indexed assetContract,\n        uint256 indexed tokenId,\n        bytes keyword,\n        uint8 hashFunctionId,\n        uint16 epochsNumber\n    );\n    event ServiceAgreementV1RewardRaised(\n        address indexed assetContract,\n        uint256 indexed tokenId,\n        bytes keyword,\n        uint8 hashFunctionId,\n        uint96 tokenAmount\n    );\n    event CommitSubmitted(\n        address indexed assetContract,\n        uint256 indexed tokenId,\n        bytes keyword,\n        uint8 hashFunctionId,\n        uint16 epoch,\n        uint72 indexed identityId,\n        uint40 score\n    );\n    event ProofSubmitted(\n        address indexed assetContract,\n        uint256 indexed tokenId,\n        bytes keyword,\n        uint8 hashFunctionId,\n        uint16 epoch,\n        uint72 indexed identityId\n    );\n    event Logger(bool value, string message);\n\n    string private constant _NAME = \"ServiceAgreementV1\";\n    string private constant _VERSION = \"1.0.0\";\n\n    bool[8] public reqs = [false, false, false, false, false, false, false, false];\n\n    Hub public hub;\n    HashingProxy public hashingProxy;\n    ScoringProxy public scoringProxy;\n    Staking public stakingContract;\n    AssertionStorage public assertionStorage;\n    IdentityStorage public identityStorage;\n    ParametersStorage public parametersStorage;\n    ProfileStorage public profileStorage;\n    ServiceAgreementStorageV1 public serviceAgreementStorageV1;\n    ShardingTableStorage public shardingTableStorage;\n    StakingStorage public stakingStorage;\n    IERC20 public tokenContract;\n\n    constructor(address hubAddress) {\n        require(hubAddress != address(0), \"Hub Address cannot be 0x0\");\n\n        hub = Hub(hubAddress);\n        initialize();\n    }\n\n    modifier onlyHubOwner() {\n        _checkHubOwner();\n        _;\n    }\n\n    modifier onlyContracts() {\n        _checkHub();\n        _;\n    }\n\n    function initialize() public onlyHubOwner {\n        hashingProxy = HashingProxy(hub.getContractAddress(\"HashingProxy\"));\n        scoringProxy = ScoringProxy(hub.getContractAddress(\"ScoringProxy\"));\n        stakingContract = Staking(hub.getContractAddress(\"Staking\"));\n        assertionStorage = AssertionStorage(hub.getContractAddress(\"AssertionStorage\"));\n        identityStorage = IdentityStorage(hub.getContractAddress(\"IdentityStorage\"));\n        parametersStorage = ParametersStorage(hub.getContractAddress(\"ParametersStorage\"));\n        profileStorage = ProfileStorage(hub.getContractAddress(\"ProfileStorage\"));\n        serviceAgreementStorageV1 = ServiceAgreementStorageV1(hub.getContractAddress(\"ServiceAgreementStorageV1\"));\n        shardingTableStorage = ShardingTableStorage(hub.getContractAddress(\"ShardingTableStorage\"));\n        stakingStorage = StakingStorage(hub.getContractAddress(\"StakingStorage\"));\n        tokenContract = IERC20(hub.getContractAddress(\"Token\"));\n    }\n\n    function name() external pure virtual override returns (string memory) {\n        return _NAME;\n    }\n\n    function version() external pure virtual override returns (string memory) {\n        return _VERSION;\n    }\n\n    function createServiceAgreement(\n        ServiceAgreementStructsV1.ServiceAgreementInputArgs calldata args\n    ) external onlyContracts {\n        if (args.assetCreator == address(0x0)) revert ServiceAgreementErrorsV1.EmptyAssetCreatorAddress();\n        if (!hub.isAssetStorage(args.assetContract))\n            revert ServiceAgreementErrorsV1.AssetStorgeNotInTheHub(args.assetContract);\n        if (keccak256(args.keyword) == keccak256(\"\")) revert ServiceAgreementErrorsV1.EmptyKeyword();\n        if (args.epochsNumber == 0) revert ServiceAgreementErrorsV1.ZeroEpochsNumber();\n        if (args.tokenAmount == 0) revert ServiceAgreementErrorsV1.ZeroTokenAmount();\n        if (!scoringProxy.isScoreFunction(args.scoreFunctionId))\n            revert ServiceAgreementErrorsV1.ScoreFunctionDoesntExist(args.scoreFunctionId);\n\n        bytes32 agreementId = _generateAgreementId(args.assetContract, args.tokenId, args.keyword, args.hashFunctionId);\n\n        ServiceAgreementStorageV1 sasV1 = serviceAgreementStorageV1;\n        ParametersStorage params = parametersStorage;\n\n        sasV1.createServiceAgreementObject(\n            agreementId,\n            args.epochsNumber,\n            params.epochLength(),\n            args.tokenAmount,\n            args.scoreFunctionId,\n            params.minProofWindowOffsetPerc() +\n                _generatePseudorandomUint8(\n                    args.assetCreator,\n                    params.maxProofWindowOffsetPerc() - params.minProofWindowOffsetPerc() + 1\n                )\n        );\n\n        IERC20 tknc = tokenContract;\n        if (tknc.allowance(args.assetCreator, address(this)) < args.tokenAmount)\n            revert ServiceAgreementErrorsV1.TooLowAllowance(tknc.allowance(args.assetCreator, address(this)));\n        if (tknc.balanceOf(args.assetCreator) < args.tokenAmount)\n            revert ServiceAgreementErrorsV1.TooLowBalance(tknc.balanceOf(args.assetCreator));\n\n        tknc.transferFrom(args.assetCreator, address(sasV1), args.tokenAmount);\n\n        emit ServiceAgreementV1Created(\n            args.assetContract,\n            args.tokenId,\n            args.keyword,\n            args.hashFunctionId,\n            block.timestamp,\n            args.epochsNumber,\n            params.epochLength(),\n            args.tokenAmount\n        );\n    }\n\n    // function updateAgreement(\n    //     address assetOwner,\n    //     address assetContract,\n    //     uint256 tokenId,\n    //     bytes calldata keyword,\n    //     uint8 hashFunctionId,\n    //     uint96 tokenAmount\n    // ) external onlyContracts {\n    //     if (assetOwner == address(0x0)) revert ServiceAgreementErrorsV1.EmptyAssetCreatorAddress();\n    //     if (!hub.isAssetStorage(assetContract)) revert ServiceAgreementErrorsV1.AssetStorgeNotInTheHub(assetContract);\n    //     if (keccak256(keyword) == keccak256(\"\")) revert ServiceAgreementErrorsV1.EmptyKeyword();\n    //     if (tokenAmount == 0) revert ServiceAgreementErrorsV1.ZeroTokenAmount();\n\n    //     bytes32 agreementId = _generateAgreementId(assetContract, tokenId, keyword, hashFunctionId);\n\n    //     ServiceAgreementStorageV1 sasV1 = serviceAgreementStorageV1;\n\n    //     uint16 epochsNumber;\n    //     uint128 epochLength;\n    //     uint96 agreementBalance;\n    //     uint8[2] memory uint8Params;\n    //     (, epochsNumber, epochLength, agreementBalance, uint8Params) = sasV1.getAgreementData(agreementId);\n\n    //     sasV1.deleteServiceAgreementObject(agreementId);\n    //     sasV1.createServiceAgreementObject(\n    //         agreementId,\n    //         epochsNumber,\n    //         epochLength,\n    //         agreementBalance,\n    //         uint8Params[0],\n    //         uint8Params[1]\n    //     );\n\n    //     _addTokens(assetOwner, agreementId, tokenAmount);\n\n    //     emit ServiceAgreementV1Updated(assetContract, tokenId, keyword, hashFunctionId, epochsNumber, tokenAmount);\n    // }\n\n    // function terminateAgreement(\n    //     address assetOwner,\n    //     address assetContract,\n    //     uint256 tokenId,\n    //     bytes calldata keyword,\n    //     uint8 hashFunctionId\n    // ) external onlyContracts {\n    //     if (assetOwner == address(0x0)) revert ServiceAgreementErrorsV1.EmptyAssetCreatorAddress();\n    //     if (!hub.isAssetStorage(assetContract)) revert ServiceAgreementErrorsV1.AssetStorgeNotInTheHub(assetContract);\n    //     if (keccak256(keyword) == keccak256(\"\")) revert ServiceAgreementErrorsV1.EmptyKeyword();\n\n    //     bytes32 agreementId = _generateAgreementId(assetContract, tokenId, keyword, hashFunctionId);\n\n    //     ServiceAgreementStorageV1 sasV1 = serviceAgreementStorageV1;\n\n    //     uint96 agreementBalance = sasV1.getAgreementTokenAmount(agreementId);\n    //     sasV1.deleteServiceAgreementObject(agreementId);\n    //     sasV1.transferAgreementTokens(assetOwner, agreementBalance);\n\n    //     emit ServiceAgreementV1Terminated(assetContract, tokenId, keyword, hashFunctionId);\n    // }\n\n    // function extendStoringPeriod(\n    //     address assetOwner,\n    //     address assetContract,\n    //     uint256 tokenId,\n    //     bytes calldata keyword,\n    //     uint8 hashFunctionId,\n    //     uint16 epochsNumber,\n    //     uint96 tokenAmount\n    // ) external onlyContracts {\n    //     if (assetOwner == address(0x0)) revert ServiceAgreementErrorsV1.EmptyAssetCreatorAddress();\n    //     if (!hub.isAssetStorage(assetContract)) revert ServiceAgreementErrorsV1.AssetStorgeNotInTheHub(assetContract);\n    //     if (keccak256(keyword) == keccak256(\"\")) revert ServiceAgreementErrorsV1.EmptyKeyword();\n    //     if (epochsNumber == 0) revert ServiceAgreementErrorsV1.ZeroEpochsNumber();\n    //     if (tokenAmount == 0) revert ServiceAgreementErrorsV1.ZeroTokenAmount();\n\n    //     bytes32 agreementId = _generateAgreementId(assetContract, tokenId, keyword, hashFunctionId);\n\n    //     ServiceAgreementStorageV1 sasV1 = serviceAgreementStorageV1;\n    //     sasV1.setAgreementEpochsNumber(agreementId, sasV1.getAgreementEpochsNumber(agreementId) + epochsNumber);\n    //     _addTokens(assetOwner, agreementId, tokenAmount);\n\n    //     emit ServiceAgreementV1Extended(assetContract, tokenId, keyword, hashFunctionId, epochsNumber);\n    // }\n\n    // function addTokens(\n    //     address assetOwner,\n    //     address assetContract,\n    //     uint256 tokenId,\n    //     bytes calldata keyword,\n    //     uint8 hashFunctionId,\n    //     uint96 tokenAmount\n    // ) external onlyContracts {\n    //     if (assetOwner == address(0x0)) revert ServiceAgreementErrorsV1.EmptyAssetCreatorAddress();\n    //     if (!hub.isAssetStorage(assetContract)) revert ServiceAgreementErrorsV1.AssetStorgeNotInTheHub(assetContract);\n    //     if (keccak256(keyword) == keccak256(\"\")) revert ServiceAgreementErrorsV1.EmptyKeyword();\n    //     if (tokenAmount == 0) revert ServiceAgreementErrorsV1.ZeroTokenAmount();\n\n    //     bytes32 agreementId = _generateAgreementId(assetContract, tokenId, keyword, hashFunctionId);\n\n    //     _addTokens(assetOwner, agreementId, tokenAmount);\n\n    //     emit ServiceAgreementV1RewardRaised(assetContract, tokenId, keyword, hashFunctionId, tokenAmount);\n    // }\n\n    function isCommitWindowOpen(bytes32 agreementId, uint16 epoch) public view returns (bool) {\n        ServiceAgreementStorageV1 sasV1 = serviceAgreementStorageV1;\n        uint256 startTime = sasV1.getAgreementStartTime(agreementId);\n\n        ParametersStorage params = parametersStorage;\n        uint128 epochLength = sasV1.getAgreementEpochLength(agreementId);\n\n        if (startTime == 0) revert ServiceAgreementErrorsV1.ServiceAgreementDoesntExist(agreementId);\n        if (epoch >= sasV1.getAgreementEpochsNumber(agreementId))\n            revert ServiceAgreementErrorsV1.ServiceAgreementHasBeenExpired(\n                agreementId,\n                startTime,\n                sasV1.getAgreementEpochsNumber(agreementId),\n                epochLength\n            );\n\n        uint256 timeNow = block.timestamp;\n        uint256 commitWindowDuration = (params.commitWindowDurationPerc() * epochLength) / 100;\n\n        if (epoch == 0) {\n            return timeNow < (startTime + commitWindowDuration);\n        }\n\n        return (timeNow > (startTime + epochLength * epoch) &&\n            timeNow < (startTime + epochLength * epoch + commitWindowDuration));\n    }\n\n    function getTopCommitSubmissions(\n        bytes32 agreementId,\n        uint16 epoch\n    ) external view returns (ServiceAgreementStructsV1.CommitSubmission[] memory) {\n        ServiceAgreementStorageV1 sasV1 = serviceAgreementStorageV1;\n\n        if (!sasV1.serviceAgreementExists(agreementId))\n            revert ServiceAgreementErrorsV1.ServiceAgreementDoesntExist(agreementId);\n        if (epoch >= sasV1.getAgreementEpochsNumber(agreementId))\n            revert ServiceAgreementErrorsV1.ServiceAgreementHasBeenExpired(\n                agreementId,\n                sasV1.getAgreementStartTime(agreementId),\n                sasV1.getAgreementEpochsNumber(agreementId),\n                parametersStorage.epochLength()\n            );\n\n        uint32 r0 = parametersStorage.r0();\n\n        ServiceAgreementStructsV1.CommitSubmission[]\n            memory epochCommits = new ServiceAgreementStructsV1.CommitSubmission[](r0);\n\n        bytes32 epochSubmissionsHead = sasV1.getAgreementEpochSubmissionHead(agreementId, epoch);\n\n        epochCommits[0] = sasV1.getCommitSubmission(epochSubmissionsHead);\n\n        bytes32 commitId;\n        uint72 nextIdentityId = epochCommits[0].nextIdentityId;\n        uint8 submissionsIdx = 1;\n        while ((submissionsIdx < r0) && (nextIdentityId != 0)) {\n            commitId = keccak256(abi.encodePacked(agreementId, epoch, nextIdentityId));\n            epochCommits[submissionsIdx] = sasV1.getCommitSubmission(commitId);\n\n            nextIdentityId = epochCommits[submissionsIdx].nextIdentityId;\n\n            unchecked {\n                submissionsIdx++;\n            }\n        }\n\n        return epochCommits;\n    }\n\n    function submitCommit(ServiceAgreementStructsV1.CommitInputArgs calldata args) external {\n        _submitCommit(args);\n    }\n\n    function bulkSubmitCommit(ServiceAgreementStructsV1.CommitInputArgs[] calldata argsArray) external {\n        uint256 commitsNumber = argsArray.length;\n\n        for (uint256 i; i < commitsNumber; ) {\n            _submitCommit(argsArray[i]);\n            unchecked {\n                i++;\n            }\n        }\n    }\n\n    function isProofWindowOpen(bytes32 agreementId, uint16 epoch) public view returns (bool) {\n        ServiceAgreementStorageV1 sasV1 = serviceAgreementStorageV1;\n        uint256 startTime = sasV1.getAgreementStartTime(agreementId);\n\n        if (startTime == 0) revert ServiceAgreementErrorsV1.ServiceAgreementDoesntExist(agreementId);\n        if (epoch >= sasV1.getAgreementEpochsNumber(agreementId))\n            revert ServiceAgreementErrorsV1.ServiceAgreementHasBeenExpired(\n                agreementId,\n                sasV1.getAgreementStartTime(agreementId),\n                sasV1.getAgreementEpochsNumber(agreementId),\n                parametersStorage.epochLength()\n            );\n\n        uint256 timeNow = block.timestamp;\n        uint128 epochLength = sasV1.getAgreementEpochLength(agreementId);\n        uint8 proofWindowOffsetPerc = sasV1.getAgreementProofWindowOffsetPerc(agreementId);\n\n        uint256 proofWindowOffset = (epochLength * proofWindowOffsetPerc) / 100;\n        uint256 proofWindowDuration = (epochLength * parametersStorage.proofWindowDurationPerc()) / 100;\n\n        return (timeNow > (startTime + epochLength * epoch + proofWindowOffset) &&\n            timeNow < (startTime + epochLength * epoch + proofWindowOffset + proofWindowDuration));\n    }\n\n    function getChallenge(\n        address sender,\n        address assetContract,\n        uint256 tokenId,\n        uint16 epoch\n    ) public view returns (bytes32, uint256) {\n        uint72 identityId = identityStorage.getIdentityId(sender);\n\n        AbstractAsset generalAssetInterface = AbstractAsset(assetContract);\n        bytes32 assertionId = generalAssetInterface.getLatestAssertionId(tokenId);\n\n        uint256 assertionChunksNumber = assertionStorage.getAssertionChunksNumber(assertionId);\n\n        // blockchash() function only works for last 256 blocks (25.6 min window in case of 6s block time)\n        // TODO: figure out how to achieve randomness\n        return (assertionId, uint256(sha256(abi.encodePacked(epoch, identityId))) % assertionChunksNumber);\n    }\n\n    function sendProof(ServiceAgreementStructsV1.ProofInputArgs calldata args) external {\n        _sendProof(args);\n    }\n\n    function bulkSendProof(ServiceAgreementStructsV1.ProofInputArgs[] calldata argsArray) external {\n        uint256 proofsNumber = argsArray.length;\n\n        for (uint256 i; i < proofsNumber; ) {\n            _sendProof(argsArray[i]);\n            unchecked {\n                i++;\n            }\n        }\n    }\n\n    function sendProofWithAutoCommit(ServiceAgreementStructsV1.ProofInputArgs calldata args) external {\n        bytes32 agreementId;\n        uint72 identityId;\n        (agreementId, identityId) = _sendProof(args);\n\n        uint40 score = scoringProxy.callScoreFunction(\n            serviceAgreementStorageV1.getAgreementScoreFunctionId(agreementId),\n            args.hashFunctionId,\n            profileStorage.getNodeId(identityId),\n            args.keyword,\n            stakingStorage.totalStakes(identityId)\n        );\n\n        _insertCommit(agreementId, (args.epoch + 1), identityId, 0, 0, score);\n\n        emit CommitSubmitted(\n            args.assetContract,\n            args.tokenId,\n            args.keyword,\n            args.hashFunctionId,\n            (args.epoch + 1),\n            identityId,\n            score\n        );\n    }\n\n    // function bulkSendProofWithAutoCommit(ServiceAgreementStructsV1.ProofInputArgs[] calldata argsArray) external {\n    //     uint256 proofsNumber = argsArray.length;\n\n    //     bytes32 agreementId;\n    //     uint72 identityId;\n    //     uint40 score;\n    //     for (uint256 i; i < proofsNumber; ) {\n    //         (agreementId, identityId) = _sendProof(argsArray[i]);\n\n    //         score = scoringProxy.callScoreFunction(\n    //             serviceAgreementStorageV1.getAgreementScoreFunctionId(agreementId),\n    //             argsArray[i].hashFunctionId,\n    //             profileStorage.getNodeId(identityId),\n    //             argsArray[i].keyword,\n    //             stakingStorage.totalStakes(identityId)\n    //         );\n\n    //         _insertCommit(agreementId, (argsArray[i].epoch + 1), identityId, 0, 0, score);\n\n    //         emit CommitSubmitted(\n    //             argsArray[i].assetContract,\n    //             argsArray[i].tokenId,\n    //             argsArray[i].keyword,\n    //             argsArray[i].hashFunctionId,\n    //             (argsArray[i].epoch + 1),\n    //             identityId,\n    //             score\n    //         );\n\n    //         unchecked {\n    //             i++;\n    //         }\n    //     }\n    // }\n\n    function setReq(uint256 index, bool req) external onlyHubOwner {\n        reqs[index] = req;\n    }\n\n    function _submitCommit(ServiceAgreementStructsV1.CommitInputArgs calldata args) internal virtual {\n        bytes32 agreementId = _generateAgreementId(args.assetContract, args.tokenId, args.keyword, args.hashFunctionId);\n\n        if (!reqs[0] && !isCommitWindowOpen(agreementId, args.epoch)) {\n            ServiceAgreementStorageV1 sasV1 = serviceAgreementStorageV1;\n\n            uint128 epochLength = sasV1.getAgreementEpochLength(agreementId);\n\n            uint256 actualCommitWindowStart = (sasV1.getAgreementStartTime(agreementId) + args.epoch * epochLength);\n\n            revert ServiceAgreementErrorsV1.CommitWindowClosed(\n                agreementId,\n                args.epoch,\n                actualCommitWindowStart,\n                actualCommitWindowStart + (parametersStorage.commitWindowDurationPerc() * epochLength) / 100,\n                block.timestamp\n            );\n        }\n        emit Logger(!isCommitWindowOpen(agreementId, args.epoch), \"req1\");\n\n        uint72 identityId = identityStorage.getIdentityId(msg.sender);\n\n        if (!reqs[1] && !shardingTableStorage.nodeExists(identityId)) {\n            ProfileStorage ps = profileStorage;\n\n            revert ServiceAgreementErrorsV1.NodeNotInShardingTable(\n                identityId,\n                ps.getNodeId(identityId),\n                ps.getAsk(identityId),\n                stakingStorage.totalStakes(identityId)\n            );\n        }\n        emit Logger(!shardingTableStorage.nodeExists(identityId), \"req2\");\n\n        uint40 score = scoringProxy.callScoreFunction(\n            serviceAgreementStorageV1.getAgreementScoreFunctionId(agreementId),\n            args.hashFunctionId,\n            profileStorage.getNodeId(identityId),\n            args.keyword,\n            stakingStorage.totalStakes(identityId)\n        );\n\n        _insertCommit(agreementId, args.epoch, identityId, 0, 0, score);\n\n        emit CommitSubmitted(\n            args.assetContract,\n            args.tokenId,\n            args.keyword,\n            args.hashFunctionId,\n            args.epoch,\n            identityId,\n            score\n        );\n    }\n\n    function _sendProof(\n        ServiceAgreementStructsV1.ProofInputArgs calldata args\n    ) internal virtual returns (bytes32, uint72) {\n        bytes32 agreementId = _generateAgreementId(args.assetContract, args.tokenId, args.keyword, args.hashFunctionId);\n\n        ServiceAgreementStorageV1 sasV1 = serviceAgreementStorageV1;\n\n        if (!reqs[4] && !isProofWindowOpen(agreementId, args.epoch)) {\n            uint128 epochLength = sasV1.getAgreementEpochLength(agreementId);\n\n            uint256 actualCommitWindowStart = (sasV1.getAgreementStartTime(agreementId) + args.epoch * epochLength);\n\n            revert ServiceAgreementErrorsV1.ProofWindowClosed(\n                agreementId,\n                args.epoch,\n                actualCommitWindowStart,\n                actualCommitWindowStart + (parametersStorage.commitWindowDurationPerc() * epochLength) / 100,\n                block.timestamp\n            );\n        }\n        emit Logger(!isProofWindowOpen(agreementId, args.epoch), \"req5\");\n\n        IdentityStorage ids = identityStorage;\n\n        uint72 identityId = ids.getIdentityId(msg.sender);\n\n        if (\n            !reqs[5] &&\n            (sasV1.getCommitSubmissionScore(keccak256(abi.encodePacked(agreementId, args.epoch, identityId))) == 0)\n        )\n            revert ServiceAgreementErrorsV1.NodeAlreadyRewarded(\n                agreementId,\n                args.epoch,\n                identityId,\n                profileStorage.getNodeId(identityId)\n            );\n        emit Logger(\n            sasV1.getCommitSubmissionScore(keccak256(abi.encodePacked(agreementId, args.epoch, identityId))) == 0,\n            \"req6\"\n        );\n\n        bytes32 nextCommitId = sasV1.getAgreementEpochSubmissionHead(agreementId, args.epoch);\n        uint32 r0 = parametersStorage.r0();\n        uint8 i;\n        while ((identityId != sasV1.getCommitSubmissionIdentityId(nextCommitId)) && (i < r0)) {\n            nextCommitId = keccak256(\n                abi.encodePacked(agreementId, args.epoch, sasV1.getCommitSubmissionNextIdentityId(nextCommitId))\n            );\n            unchecked {\n                i++;\n            }\n        }\n\n        if (!reqs[6] && (i >= r0))\n            revert ServiceAgreementErrorsV1.NodeNotAwarded(\n                agreementId,\n                args.epoch,\n                identityId,\n                profileStorage.getNodeId(identityId),\n                i\n            );\n        emit Logger(i >= r0, \"req7\");\n\n        bytes32 merkleRoot;\n        uint256 challenge;\n        (merkleRoot, challenge) = getChallenge(msg.sender, args.assetContract, args.tokenId, args.epoch);\n\n        if (\n            !reqs[7] &&\n            !MerkleProof.verify(args.proof, merkleRoot, keccak256(abi.encodePacked(args.chunkHash, challenge)))\n        )\n            revert ServiceAgreementErrorsV1.WrongMerkleProof(\n                agreementId,\n                args.epoch,\n                identityId,\n                profileStorage.getNodeId(identityId),\n                args.proof,\n                merkleRoot,\n                args.chunkHash,\n                challenge\n            );\n        emit Logger(\n            !MerkleProof.verify(args.proof, merkleRoot, keccak256(abi.encodePacked(args.chunkHash, challenge))),\n            \"req8\"\n        );\n\n        emit ProofSubmitted(\n            args.assetContract,\n            args.tokenId,\n            args.keyword,\n            args.hashFunctionId,\n            args.epoch,\n            identityId\n        );\n\n        uint96 reward = (sasV1.getAgreementTokenAmount(agreementId) /\n            (sasV1.getAgreementEpochsNumber(agreementId) - args.epoch + 1) /\n            (r0 - sasV1.getAgreementRewardedNodesNumber(agreementId, args.epoch)));\n\n        stakingContract.addReward(identityId, reward);\n        sasV1.setAgreementTokenAmount(agreementId, sasV1.getAgreementTokenAmount(agreementId) - reward);\n        sasV1.incrementAgreementRewardedNodesNumber(agreementId, args.epoch);\n\n        // To make sure that node already received reward\n        sasV1.setCommitSubmissionScore(keccak256(abi.encodePacked(agreementId, args.epoch, identityId)), 0);\n\n        return (agreementId, identityId);\n    }\n\n    function _insertCommit(\n        bytes32 agreementId,\n        uint16 epoch,\n        uint72 identityId,\n        uint72 prevIdentityId,\n        uint72 nextIdentityId,\n        uint40 score\n    ) internal virtual {\n        ServiceAgreementStorageV1 sasV1 = serviceAgreementStorageV1;\n\n        bytes32 commitId = keccak256(abi.encodePacked(agreementId, epoch, identityId));\n\n        if (!reqs[2] && sasV1.commitSubmissionExists(commitId))\n            revert ServiceAgreementErrorsV1.NodeAlreadySubmittedCommit(\n                agreementId,\n                epoch,\n                identityId,\n                profileStorage.getNodeId(identityId)\n            );\n        emit Logger(sasV1.commitSubmissionExists(commitId), \"req3\");\n\n        bytes32 refCommitId = sasV1.getAgreementEpochSubmissionHead(agreementId, epoch);\n\n        ParametersStorage params = parametersStorage;\n\n        uint72 refCommitNextIdentityId = sasV1.getCommitSubmissionNextIdentityId(refCommitId);\n        uint32 r0 = params.r0();\n        uint8 i;\n        while ((score < sasV1.getCommitSubmissionScore(refCommitId)) && (refCommitNextIdentityId != 0) && (i < r0)) {\n            refCommitId = keccak256(abi.encodePacked(agreementId, epoch, refCommitNextIdentityId));\n\n            refCommitNextIdentityId = sasV1.getCommitSubmissionNextIdentityId(refCommitId);\n            unchecked {\n                i++;\n            }\n        }\n\n        if (!reqs[3] && (i >= r0))\n            revert ServiceAgreementErrorsV1.NodeNotAwarded(\n                agreementId,\n                epoch,\n                identityId,\n                profileStorage.getNodeId(identityId),\n                i\n            );\n        emit Logger(i >= r0, \"req4\");\n\n        sasV1.createCommitSubmissionObject(commitId, identityId, prevIdentityId, nextIdentityId, score);\n\n        ServiceAgreementStructsV1.CommitSubmission memory refCommit = sasV1.getCommitSubmission(refCommitId);\n\n        if ((i == 0) && (refCommit.identityId == 0)) {\n            //  No head -> Setting new head\n            sasV1.setAgreementEpochSubmissionHead(agreementId, epoch, commitId);\n        } else if ((i == 0) && (score <= refCommit.score)) {\n            // There is a head with higher or equal score, add new commit on the right\n            _linkCommits(agreementId, epoch, refCommit.identityId, identityId);\n        } else if ((i == 0) && (score > refCommit.score)) {\n            // There is a head with lower score, replace the head\n            sasV1.setAgreementEpochSubmissionHead(agreementId, epoch, commitId);\n            _linkCommits(agreementId, epoch, identityId, refCommit.identityId);\n        } else if (score > refCommit.score) {\n            // [H] - head\n            // [RC] - reference commit\n            // [RC-] - commit before reference commit\n            // [RC+] - commit after reference commit\n            // [NC] - new commit\n            // [] <-> [H] <-> [X] ... [RC-] <-> [RC] <-> [RC+] ... [C] <-> []\n            // [] <-> [H] <-> [X] ... [RC-] <-(NL)-> [NC] <-(NL)-> [RC] <-> [RC+] ... [C] <-> []\n            _linkCommits(agreementId, epoch, refCommit.prevIdentityId, identityId);\n            _linkCommits(agreementId, epoch, identityId, refCommit.identityId);\n        } else {\n            // [] <-> [H] <-> [RC] <-> []\n            // [] <-> [H] <-> [RC] <-(NL)-> [NC] <-> []\n            _linkCommits(agreementId, epoch, refCommit.identityId, identityId);\n        }\n    }\n\n    function _linkCommits(\n        bytes32 agreementId,\n        uint16 epoch,\n        uint72 leftIdentityId,\n        uint72 rightIdentityId\n    ) internal virtual {\n        ServiceAgreementStorageV1 sasV1 = serviceAgreementStorageV1;\n\n        sasV1.setCommitSubmissionNextIdentityId(\n            keccak256(abi.encodePacked(agreementId, epoch, leftIdentityId)), // leftCommitId\n            rightIdentityId\n        );\n\n        sasV1.setCommitSubmissionPrevIdentityId(\n            keccak256(abi.encodePacked(agreementId, epoch, rightIdentityId)), // rightCommitId\n            leftIdentityId\n        );\n    }\n\n    // function _addTokens(address assetOwner, bytes32 agreementId, uint96 tokenAmount) internal virtual {\n    //     ServiceAgreementStorageV1 sasV1 = serviceAgreementStorageV1;\n    //     IERC20 tknc = tokenContract;\n\n    //     if (tknc.allowance(assetOwner, address(this)) < tokenAmount)\n    //         revert ServiceAgreementErrorsV1.TooLowAllowance(tknc.allowance(assetOwner, address(this)));\n    //     if (tknc.balanceOf(assetOwner) < tokenAmount)\n    //         revert ServiceAgreementErrorsV1.TooLowBalance(tknc.balanceOf(assetOwner));\n\n    //     sasV1.setAgreementTokenAmount(agreementId, sasV1.getAgreementTokenAmount(agreementId) + tokenAmount);\n    //     tknc.transferFrom(assetOwner, address(sasV1), tokenAmount);\n    // }\n\n    function _generateAgreementId(\n        address assetContract,\n        uint256 tokenId,\n        bytes calldata keyword,\n        uint8 hashFunctionId\n    ) internal view virtual returns (bytes32) {\n        return hashingProxy.callHashFunction(hashFunctionId, abi.encodePacked(assetContract, tokenId, keyword));\n    }\n\n    function _generatePseudorandomUint8(address sender, uint8 limit) internal view virtual returns (uint8) {\n        return uint8(uint256(keccak256(abi.encodePacked(block.timestamp, sender, block.number))) % limit);\n    }\n\n    function _checkHubOwner() internal view virtual {\n        if (msg.sender != hub.owner()) revert GeneralErrors.OnlyHubOwnerFunction(msg.sender);\n    }\n\n    function _checkHub() internal view virtual {\n        if (!hub.isContract(msg.sender)) revert GeneralErrors.OnlyHubContractsFunction(msg.sender);\n    }\n}\n",
  "sourcePath": "/Users/waving/Desktop/OriginTrail/dkg-evm-module/contracts/ServiceAgreementV1.sol",
  "compiler": {
    "name": "solc",
    "version": "0.8.16+commit.07a7930e.Emscripten.clang"
  },
  "schemaVersion": "3.4.10",
  "updatedAt": "2022-12-14T11:36:06.404Z",
  "devdoc": {
    "kind": "dev",
    "methods": {},
    "version": 1
  },
  "userdoc": {
    "kind": "user",
    "methods": {},
    "version": 1
  }
}