{
  "contractName": "SHA256",
  "abi": [
    {
      "inputs": [],
      "name": "id",
      "outputs": [
        {
          "internalType": "uint8",
          "name": "",
          "type": "uint8"
        }
      ],
      "stateMutability": "pure",
      "type": "function",
      "constant": true
    },
    {
      "inputs": [],
      "name": "name",
      "outputs": [
        {
          "internalType": "string",
          "name": "",
          "type": "string"
        }
      ],
      "stateMutability": "pure",
      "type": "function",
      "constant": true
    },
    {
      "inputs": [
        {
          "internalType": "bytes",
          "name": "data",
          "type": "bytes"
        }
      ],
      "name": "hash",
      "outputs": [
        {
          "internalType": "bytes32",
          "name": "",
          "type": "bytes32"
        }
      ],
      "stateMutability": "pure",
      "type": "function",
      "constant": true
    }
  ],
  "bytecode": "0x608060405234801561001057600080fd5b50610221806100206000396000f3fe608060405234801561001057600080fd5b50600436106100415760003560e01c806306fdde0314610046578063aa1e84de14610077578063af640d0f14610098575b600080fd5b604080518082018252600681526539b430991a9b60d11b6020820152905161006e9190610102565b60405180910390f35b61008a610085366004610150565b6100a7565b60405190815260200161006e565b6040516001815260200161006e565b6000600283836040516100bb9291906101c2565b602060405180830381855afa1580156100d8573d6000803e3d6000fd5b5050506040513d601f19601f820116820180604052508101906100fb91906101d2565b9392505050565b600060208083528351808285015260005b8181101561012f57858101830151858201604001528201610113565b506000604082860101526040601f19601f8301168501019250505092915050565b6000806020838503121561016357600080fd5b823567ffffffffffffffff8082111561017b57600080fd5b818501915085601f83011261018f57600080fd5b81358181111561019e57600080fd5b8660208285010111156101b057600080fd5b60209290920196919550909350505050565b8183823760009101908152919050565b6000602082840312156101e457600080fd5b505191905056fea2646970667358221220daddcf5347bce83ae7227572492b5d36c857ba88b00697705426e5b364830d0964736f6c63430008100033",
  "immutableReferences": {},
  "source": "// SPDX-License-Identifier: MIT\n\npragma solidity^0.8.0;\n\nimport { IHashFunction } from \"../interface/IHashFunction.sol\";\nimport { Indexable } from \"../interface/Indexable.sol\";\nimport { Named } from \"../interface/Named.sol\";\n\ncontract SHA256 is IHashFunction, Indexable, Named {\n\n    uint8 private constant _ID = 1;\n    string private constant _NAME = \"sha256\";\n\n    function id() external pure virtual override returns (uint8) {\n        return _ID;\n    }\n\n    function name() external pure virtual override returns (string memory) {\n        return _NAME;\n    }\n\n    function hash(bytes calldata data) external pure returns (bytes32) {\n        return sha256(data);\n    }\n\n}\n",
  "sourcePath": "/Users/djordjekovacevic/Desktop/projects/dkg-evm-module/contracts/hashing/sha256.sol",
  "compiler": {
    "name": "solc",
    "version": "0.8.16+commit.07a7930e.Emscripten.clang"
  },
  "schemaVersion": "3.4.10",
  "updatedAt": "2022-12-06T17:21:37.098Z",
  "networkType": "ethereum",
  "devdoc": {
    "kind": "dev",
    "methods": {},
    "version": 1
  },
  "userdoc": {
    "kind": "user",
    "methods": {},
    "version": 1
  }
}