{
  "contractName": "SHA256",
  "abi": [
    {
      "inputs": [],
      "name": "id",
      "outputs": [
        {
          "internalType": "uint8",
          "name": "",
          "type": "uint8"
        }
      ],
      "stateMutability": "pure",
      "type": "function"
    },
    {
      "inputs": [],
      "name": "name",
      "outputs": [
        {
          "internalType": "string",
          "name": "",
          "type": "string"
        }
      ],
      "stateMutability": "pure",
      "type": "function"
    },
    {
      "inputs": [
        {
          "internalType": "bytes",
          "name": "data",
          "type": "bytes"
        }
      ],
      "name": "hash",
      "outputs": [
        {
          "internalType": "bytes32",
          "name": "",
          "type": "bytes32"
        }
      ],
      "stateMutability": "pure",
      "type": "function"
    }
  ],
  "bytecode": "0x608060405234801561001057600080fd5b5061025d806100206000396000f3fe608060405234801561001057600080fd5b50600436106100415760003560e01c806306fdde0314610046578063aa1e84de1461008e578063af640d0f146100af575b600080fd5b604080518082018252600681527f7368613235360000000000000000000000000000000000000000000000000000602082015290516100859190610119565b60405180910390f35b6100a161009c36600461018c565b6100be565b604051908152602001610085565b60405160018152602001610085565b6000600283836040516100d29291906101fe565b602060405180830381855afa1580156100ef573d6000803e3d6000fd5b5050506040513d601f19601f82011682018060405250810190610112919061020e565b9392505050565b600060208083528351808285015260005b818110156101465785810183015185820160400152820161012a565b81811115610158576000604083870101525b50601f017fffffffffffffffffffffffffffffffffffffffffffffffffffffffffffffffe016929092016040019392505050565b6000806020838503121561019f57600080fd5b823567ffffffffffffffff808211156101b757600080fd5b818501915085601f8301126101cb57600080fd5b8135818111156101da57600080fd5b8660208285010111156101ec57600080fd5b60209290920196919550909350505050565b8183823760009101908152919050565b60006020828403121561022057600080fd5b505191905056fea26469706673582212209ecb383ef6939bfefa2a1af07b209c687f5235e1487217224429f31c9f93ecd564736f6c634300080e0033",
  "immutableReferences": {},
  "source": "// SPDX-License-Identifier: MIT\n\npragma solidity^0.8.0;\n\nimport { IHashFunction } from \"../interface/IHashFunction.sol\";\nimport { Indexable } from \"../interface/Indexable.sol\";\nimport { Named } from \"../interface/Named.sol\";\n\ncontract SHA256 is IHashFunction, Indexable, Named {\n\n    uint8 private constant _ID = 1;\n    string private constant _NAME = \"sha256\";\n\n    function id() external pure virtual override returns (uint8) {\n        return _ID;\n    }\n\n    function name() external pure virtual override returns (string memory) {\n        return _NAME;\n    }\n\n    function hash(bytes calldata data) external pure returns (bytes32) {\n        return sha256(data);\n    }\n\n}\n",
  "sourcePath": "/Users/max/IdeaProjects/dkg-evm-module/contracts/hashing/sha256.sol",
  "compiler": {
    "name": "solc",
    "version": "0.8.14+commit.80d49f37.Emscripten.clang"
  },
  "schemaVersion": "3.4.10",
  "updatedAt": "2022-12-03T12:20:15.591Z",
  "devdoc": {
    "kind": "dev",
    "methods": {},
    "version": 1
  },
  "userdoc": {
    "kind": "user",
    "methods": {},
    "version": 1
  }
}