{
  "contractName": "SHA256",
  "abi": [
    {
      "inputs": [],
      "stateMutability": "nonpayable",
      "type": "constructor"
    },
    {
      "inputs": [],
      "name": "name",
      "outputs": [
        {
          "internalType": "string",
          "name": "",
          "type": "string"
        }
      ],
      "stateMutability": "view",
      "type": "function"
    },
    {
      "inputs": [
        {
          "internalType": "bytes",
          "name": "data",
          "type": "bytes"
        }
      ],
      "name": "hash",
      "outputs": [
        {
          "internalType": "bytes32",
          "name": "",
          "type": "bytes32"
        }
      ],
      "stateMutability": "pure",
      "type": "function"
    }
  ],
  "bytecode": "0x608060405234801561001057600080fd5b506040518060400160405280600681526020017f73686132353600000000000000000000000000000000000000000000000000008152506000908051906020019061005c929190610062565b50610165565b82805461006e90610134565b90600052602060002090601f01602090048101928261009057600085556100d7565b82601f106100a957805160ff19168380011785556100d7565b828001600101855582156100d7579182015b828111156100d65782518255916020019190600101906100bb565b5b5090506100e491906100e8565b5090565b5b808211156101015760008160009055506001016100e9565b5090565b7f4e487b7100000000000000000000000000000000000000000000000000000000600052602260045260246000fd5b6000600282049050600182168061014c57607f821691505b60208210810361015f5761015e610105565b5b50919050565b610542806101746000396000f3fe608060405234801561001057600080fd5b50600436106100365760003560e01c806306fdde031461003b578063aa1e84de14610059575b600080fd5b610043610089565b604051610050919061020d565b60405180910390f35b610073600480360381019061006e9190610378565b61011b565b60405161008091906103da565b60405180910390f35b60606000805461009890610424565b80601f01602080910402602001604051908101604052809291908181526020018280546100c490610424565b80156101115780601f106100e657610100808354040283529160200191610111565b820191906000526020600020905b8154815290600101906020018083116100f457829003601f168201915b5050505050905090565b600060028260405161012d919061049c565b602060405180830381855afa15801561014a573d6000803e3d6000fd5b5050506040513d601f19601f8201168201806040525081019061016d91906104df565b9050919050565b600081519050919050565b600082825260208201905092915050565b60005b838110156101ae578082015181840152602081019050610193565b838111156101bd576000848401525b50505050565b6000601f19601f8301169050919050565b60006101df82610174565b6101e9818561017f565b93506101f9818560208601610190565b610202816101c3565b840191505092915050565b6000602082019050818103600083015261022781846101d4565b905092915050565b6000604051905090565b600080fd5b600080fd5b600080fd5b600080fd5b7f4e487b7100000000000000000000000000000000000000000000000000000000600052604160045260246000fd5b610285826101c3565b810181811067ffffffffffffffff821117156102a4576102a361024d565b5b80604052505050565b60006102b761022f565b90506102c3828261027c565b919050565b600067ffffffffffffffff8211156102e3576102e261024d565b5b6102ec826101c3565b9050602081019050919050565b82818337600083830152505050565b600061031b610316846102c8565b6102ad565b90508281526020810184848401111561033757610336610248565b5b6103428482856102f9565b509392505050565b600082601f83011261035f5761035e610243565b5b813561036f848260208601610308565b91505092915050565b60006020828403121561038e5761038d610239565b5b600082013567ffffffffffffffff8111156103ac576103ab61023e565b5b6103b88482850161034a565b91505092915050565b6000819050919050565b6103d4816103c1565b82525050565b60006020820190506103ef60008301846103cb565b92915050565b7f4e487b7100000000000000000000000000000000000000000000000000000000600052602260045260246000fd5b6000600282049050600182168061043c57607f821691505b60208210810361044f5761044e6103f5565b5b50919050565b600081519050919050565b600081905092915050565b600061047682610455565b6104808185610460565b9350610490818560208601610190565b80840191505092915050565b60006104a8828461046b565b915081905092915050565b6104bc816103c1565b81146104c757600080fd5b50565b6000815190506104d9816104b3565b92915050565b6000602082840312156104f5576104f4610239565b5b6000610503848285016104ca565b9150509291505056fea2646970667358221220c298746b509ebc42d75b939e766dee45f7d2e0c048dd8a6b0107ab2c5975b40f64736f6c634300080e0033",
  "immutableReferences": {},
  "source": "// SPDX-License-Identifier: MIT\n\npragma solidity^0.8.0;\n\nimport { IHashingFunction } from \"../interface/HashingFunction.sol\";\n\ncontract SHA256 is IHashingFunction {\n    string private _name;\n\n    constructor() {\n        _name = \"sha256\";\n    }\n\n    function name()\n        public\n        view\n        virtual\n        override\n        returns (string memory)\n    {\n        return _name;\n    }\n\n    function hash(bytes memory data)\n        public\n        pure\n        returns (bytes32)\n    {\n        return sha256(data);\n    }\n}\n",
  "sourcePath": "/Users/waving/Desktop/OriginTrail/dkg-evm-module/contracts/hashing/sha256.sol",
  "compiler": {
    "name": "solc",
    "version": "0.8.14+commit.80d49f37.Emscripten.clang"
  },
  "schemaVersion": "3.4.10",
  "updatedAt": "2022-11-16T11:11:18.797Z",
  "devdoc": {
    "kind": "dev",
    "methods": {},
    "version": 1
  },
  "userdoc": {
    "kind": "user",
    "methods": {},
    "version": 1
  }
}