{
  "contractName": "ShardingTable",
  "abi": [
    {
      "inputs": [
        {
          "internalType": "address",
          "name": "hubAddress",
          "type": "address"
        }
      ],
      "stateMutability": "nonpayable",
      "type": "constructor"
    },
    {
      "anonymous": false,
      "inputs": [
        {
          "indexed": true,
          "internalType": "uint72",
          "name": "identityId",
          "type": "uint72"
        },
        {
          "indexed": false,
          "internalType": "bytes",
          "name": "nodeId",
          "type": "bytes"
        },
        {
          "indexed": false,
          "internalType": "uint96",
          "name": "ask",
          "type": "uint96"
        },
        {
          "indexed": false,
          "internalType": "uint96",
          "name": "stake",
          "type": "uint96"
        }
      ],
      "name": "NodeObjCreated",
      "type": "event"
    },
    {
      "anonymous": false,
      "inputs": [
        {
          "indexed": true,
          "internalType": "uint72",
          "name": "identityId",
          "type": "uint72"
        },
        {
          "indexed": false,
          "internalType": "bytes",
          "name": "nodeId",
          "type": "bytes"
        }
      ],
      "name": "NodeRemoved",
      "type": "event"
    },
    {
      "anonymous": false,
      "inputs": [
        {
          "indexed": false,
          "internalType": "bytes",
          "name": "nodeId",
          "type": "bytes"
        }
      ],
      "name": "NodeRemovedByHubOwner",
      "type": "event"
    },
    {
      "inputs": [],
      "name": "head",
      "outputs": [
        {
          "internalType": "bytes",
          "name": "",
          "type": "bytes"
        }
      ],
      "stateMutability": "view",
      "type": "function"
    },
    {
      "inputs": [],
      "name": "hub",
      "outputs": [
        {
          "internalType": "contract Hub",
          "name": "",
          "type": "address"
        }
      ],
      "stateMutability": "view",
      "type": "function"
    },
    {
      "inputs": [],
      "name": "nodesCount",
      "outputs": [
        {
          "internalType": "uint16",
          "name": "",
          "type": "uint16"
        }
      ],
      "stateMutability": "view",
      "type": "function"
    },
    {
      "inputs": [],
      "name": "tail",
      "outputs": [
        {
          "internalType": "bytes",
          "name": "",
          "type": "bytes"
        }
      ],
      "stateMutability": "view",
      "type": "function"
    },
    {
      "inputs": [
        {
          "internalType": "bytes",
          "name": "startingNodeId",
          "type": "bytes"
        },
        {
          "internalType": "uint16",
          "name": "nodesNumber",
          "type": "uint16"
        }
      ],
      "name": "getShardingTable",
      "outputs": [
        {
          "components": [
            {
              "internalType": "bytes",
              "name": "id",
              "type": "bytes"
            },
            {
              "internalType": "uint96",
              "name": "ask",
              "type": "uint96"
            },
            {
              "internalType": "uint96",
              "name": "stake",
              "type": "uint96"
            }
          ],
          "internalType": "struct ShardingTable.NodeInfo[]",
          "name": "",
          "type": "tuple[]"
        }
      ],
      "stateMutability": "view",
      "type": "function"
    },
    {
      "inputs": [],
      "name": "getShardingTable",
      "outputs": [
        {
          "components": [
            {
              "internalType": "bytes",
              "name": "id",
              "type": "bytes"
            },
            {
              "internalType": "uint96",
              "name": "ask",
              "type": "uint96"
            },
            {
              "internalType": "uint96",
              "name": "stake",
              "type": "uint96"
            }
          ],
          "internalType": "struct ShardingTable.NodeInfo[]",
          "name": "",
          "type": "tuple[]"
        }
      ],
      "stateMutability": "view",
      "type": "function"
    },
    {
      "inputs": [
        {
          "internalType": "uint72",
          "name": "identityId",
          "type": "uint72"
        }
      ],
      "name": "pushBack",
      "outputs": [],
      "stateMutability": "nonpayable",
      "type": "function"
    },
    {
      "inputs": [
        {
          "internalType": "uint72",
          "name": "identityId",
          "type": "uint72"
        }
      ],
      "name": "pushFront",
      "outputs": [],
      "stateMutability": "nonpayable",
      "type": "function"
    },
    {
      "inputs": [
        {
          "internalType": "uint72",
          "name": "identityId",
          "type": "uint72"
        }
      ],
      "name": "removeNode",
      "outputs": [],
      "stateMutability": "nonpayable",
      "type": "function"
    },
    {
      "inputs": [
        {
          "internalType": "bytes",
          "name": "nodeId",
          "type": "bytes"
        }
      ],
      "name": "removeNodeById",
      "outputs": [],
      "stateMutability": "nonpayable",
      "type": "function"
    }
  ],
  "bytecode": "0x60806040523480156200001157600080fd5b506040516200426b3803806200426b83398181016040528101906200003791906200036b565b600073ffffffffffffffffffffffffffffffffffffffff168173ffffffffffffffffffffffffffffffffffffffff16036200007157600080fd5b806000806101000a81548173ffffffffffffffffffffffffffffffffffffffff021916908373ffffffffffffffffffffffffffffffffffffffff1602179055506040518060200160405280600081525060019080519060200190620000d8929190620001b9565b5060026001604051620000ec9190620004ac565b602060405180830381855afa1580156200010a573d6000803e3d6000fd5b5050506040513d601f19601f820116820180604052508101906200012f919062000500565b60066001604051620001429190620004ac565b908152602001604051809103902081905550600160029080546200016690620003cc565b620001739291906200024a565b50600160039080546200018690620003cc565b620001939291906200024a565b506000600460006101000a81548161ffff021916908361ffff1602179055505062000532565b828054620001c790620003cc565b90600052602060002090601f016020900481019282620001eb576000855562000237565b82601f106200020657805160ff191683800117855562000237565b8280016001018555821562000237579182015b828111156200023657825182559160200191906001019062000219565b5b509050620002469190620002e2565b5090565b8280546200025890620003cc565b90600052602060002090601f0160209004810192826200027c5760008555620002cf565b82601f106200028f5780548555620002cf565b82800160010185558215620002cf57600052602060002091601f016020900482015b82811115620002ce578254825591600101919060010190620002b1565b5b509050620002de9190620002e2565b5090565b5b80821115620002fd576000816000905550600101620002e3565b5090565b600080fd5b600073ffffffffffffffffffffffffffffffffffffffff82169050919050565b6000620003338262000306565b9050919050565b620003458162000326565b81146200035157600080fd5b50565b60008151905062000365816200033a565b92915050565b60006020828403121562000384576200038362000301565b5b6000620003948482850162000354565b91505092915050565b7f4e487b7100000000000000000000000000000000000000000000000000000000600052602260045260246000fd5b60006002820490506001821680620003e557607f821691505b602082108103620003fb57620003fa6200039d565b5b50919050565b600081905092915050565b60008190508160005260206000209050919050565b600081546200043081620003cc565b6200043c818662000401565b945060018216600081146200045a57600181146200046c57620004a3565b60ff19831686528186019350620004a3565b62000477856200040c565b60005b838110156200049b578154818901526001820191506020810190506200047a565b838801955050505b50505092915050565b6000620004ba828462000421565b915081905092915050565b6000819050919050565b620004da81620004c5565b8114620004e657600080fd5b50565b600081519050620004fa81620004cf565b92915050565b60006020828403121562000519576200051862000301565b5b60006200052984828501620004e9565b91505092915050565b613d2980620005426000396000f3fe608060405234801561001057600080fd5b506004361061009e5760003560e01c8063415942b111610066578063415942b1146101495780638f7dcfa31461016557806392b7c87d14610183578063af9c1ec61461019f578063f1a3c5b3146101bb5761009e565b806304848448146100a357806313d8c840146100bf5780631593848f146100dd578063289220c61461010d578063365a86fc1461012b575b600080fd5b6100bd60048036038101906100b89190613196565b6101d9565b005b6100c7610a12565b6040516100d49190613267565b60405180910390f35b6100f760048036038101906100f291906132c3565b610aa0565b60405161010491906134a2565b60405180910390f35b61011561131b565b60405161012291906134a2565b60405180910390f35b6101336113c6565b6040516101409190613543565b60405180910390f35b610163600480360381019061015e919061359f565b6113ea565b005b61016d611944565b60405161017a9190613267565b60405180910390f35b61019d6004803603810190610198919061359f565b6119d2565b005b6101b960048036038101906101b4919061359f565b611f2c565b005b6101c361289c565b6040516101d091906135db565b60405180910390f35b60008054906101000a900473ffffffffffffffffffffffffffffffffffffffff1673ffffffffffffffffffffffffffffffffffffffff16638da5cb5b6040518163ffffffff1660e01b8152600401602060405180830381865afa158015610244573d6000803e3d6000fd5b505050506040513d601f19601f820116820180604052508101906102689190613634565b73ffffffffffffffffffffffffffffffffffffffff163373ffffffffffffffffffffffffffffffffffffffff16146102d5576040517f08c379a00000000000000000000000000000000000000000000000000000000081526004016102cc906136e4565b60405180910390fd5b60006005826040516102e79190613740565b90815260200160405180910390206040518060800160405290816000820160009054906101000a900468ffffffffffffffffff1668ffffffffffffffffff1668ffffffffffffffffff16815260200160018201805461034590613786565b80601f016020809104026020016040519081016040528092919081815260200182805461037190613786565b80156103be5780601f10610393576101008083540402835291602001916103be565b820191906000526020600020905b8154815290600101906020018083116103a157829003601f168201915b505050505081526020016002820180546103d790613786565b80601f016020809104026020016040519081016040528092919081815260200182805461040390613786565b80156104505780601f1061042557610100808354040283529160200191610450565b820191906000526020600020905b81548152906001019060200180831161043357829003601f168201915b5050505050815260200160038201805461046990613786565b80601f016020809104026020016040519081016040528092919081815260200182805461049590613786565b80156104e25780601f106104b7576101008083540402835291602001916104e2565b820191906000526020600020905b8154815290600101906020018083116104c557829003601f168201915b5050505050815250509050610581600280546104fd90613786565b80601f016020809104026020016040519081016040528092919081815260200182805461052990613786565b80156105765780601f1061054b57610100808354040283529160200191610576565b820191906000526020600020905b81548152906001019060200180831161055957829003601f168201915b5050505050836128b0565b801561061d575061061c6003805461059890613786565b80601f01602080910402602001604051908101604052809291908181526020018280546105c490613786565b80156106115780601f106105e657610100808354040283529160200191610611565b820191906000526020600020905b8154815290600101906020018083116105f457829003601f168201915b5050505050836128b0565b5b1561074d576106b56001805461063290613786565b80601f016020809104026020016040519081016040528092919081815260200182805461065e90613786565b80156106ab5780601f10610680576101008083540402835291602001916106ab565b820191906000526020600020905b81548152906001019060200180831161068e57829003601f168201915b50505050506128f9565b610748600180546106c590613786565b80601f01602080910402602001604051908101604052809291908181526020018280546106f190613786565b801561073e5780601f106107135761010080835404028352916020019161073e565b820191906000526020600020905b81548152906001019060200180831161072157829003601f168201915b5050505050612913565b610930565b6107e16002805461075d90613786565b80601f016020809104026020016040519081016040528092919081815260200182805461078990613786565b80156107d65780601f106107ab576101008083540402835291602001916107d6565b820191906000526020600020905b8154815290600101906020018083116107b957829003601f168201915b5050505050836128b0565b15610834576107f381606001516128f9565b600160056002604051610806919061384b565b908152602001604051809103902060020190805461082390613786565b61082e929190612e8f565b5061092f565b6108c86003805461084490613786565b80601f016020809104026020016040519081016040528092919081815260200182805461087090613786565b80156108bd5780601f10610892576101008083540402835291602001916108bd565b820191906000526020600020905b8154815290600101906020018083116108a057829003601f168201915b5050505050836128b0565b1561091b576108da8160400151612913565b6001600560036040516108ed919061384b565b908152602001604051809103902060030190805461090a90613786565b610915929190612e8f565b5061092e565b61092d8160400151826060015161292d565b5b5b5b6005826040516109409190613740565b9081526020016040518091039020600080820160006101000a81549068ffffffffffffffffff021916905560018201600061097b9190612f1c565b60028201600061098b9190612f1c565b60038201600061099b9190612f1c565b50506001600460008282829054906101000a900461ffff166109bd9190613891565b92506101000a81548161ffff021916908361ffff1602179055507f95cd81cf39e148b985bcebddacf7182ecfa6277e5d569a7d4c812b8896cb25aa82604051610a069190613267565b60405180910390a15050565b60038054610a1f90613786565b80601f0160208091040260200160405190810160405280929190818152602001828054610a4b90613786565b8015610a985780601f10610a6d57610100808354040283529160200191610a98565b820191906000526020600020905b815481529060010190602001808311610a7b57829003601f168201915b505050505081565b6060610b64600584604051610ab59190613740565b90815260200160405180910390206001018054610ad190613786565b80601f0160208091040260200160405190810160405280929190818152602001828054610afd90613786565b8015610b4a5780601f10610b1f57610100808354040283529160200191610b4a565b820191906000526020600020905b815481529060010190602001808311610b2d57829003601f168201915b5050505050604051806020016040528060008152506128b0565b1580610c005750610bff8360018054610b7c90613786565b80601f0160208091040260200160405190810160405280929190818152602001828054610ba890613786565b8015610bf55780601f10610bca57610100808354040283529160200191610bf5565b820191906000526020600020905b815481529060010190602001808311610bd857829003601f168201915b50505050506128b0565b5b610c0957600080fd5b60606000600460009054906101000a900461ffff1661ffff1603610c305780915050611315565b8261ffff1667ffffffffffffffff811115610c4e57610c4d61306b565b5b604051908082528060200260200182016040528015610c8757816020015b610c74612f5c565b815260200190600190039081610c6c5790505b50905060008060009054906101000a900473ffffffffffffffffffffffffffffffffffffffff1673ffffffffffffffffffffffffffffffffffffffff166304433bbc6040518163ffffffff1660e01b8152600401610ce490613911565b602060405180830381865afa158015610d01573d6000803e3d6000fd5b505050506040513d601f19601f82011682018060405250810190610d259190613634565b905060405180606001604052808681526020018273ffffffffffffffffffffffffffffffffffffffff166339fb67dd600589604051610d649190613740565b908152602001604051809103902060000160009054906101000a900468ffffffffffffffffff166040518263ffffffff1660e01b8152600401610da79190613940565b602060405180830381865afa158015610dc4573d6000803e3d6000fd5b505050506040513d601f19601f82011682018060405250810190610de89190613987565b6bffffffffffffffffffffffff1681526020018273ffffffffffffffffffffffffffffffffffffffff1663edf530c0600589604051610e279190613740565b908152602001604051809103902060000160009054906101000a900468ffffffffffffffffff166040518263ffffffff1660e01b8152600401610e6a9190613940565b602060405180830381865afa158015610e87573d6000803e3d6000fd5b505050506040513d601f19601f82011682018060405250810190610eab9190613987565b6bffffffffffffffffffffffff1681525082600081518110610ed057610ecf6139b4565b5b60200260200101819052506000600190505b8461ffff168161ffff16108015611061575061105f600584600184610f079190613891565b61ffff1681518110610f1c57610f1b6139b4565b5b602002602001015160000151604051610f359190613740565b90815260200160405180910390206003018054610f5190613786565b80601f0160208091040260200160405190810160405280929190818152602001828054610f7d90613786565b8015610fca5780601f10610f9f57610100808354040283529160200191610fca565b820191906000526020600020905b815481529060010190602001808311610fad57829003601f168201915b505050505060018054610fdc90613786565b80601f016020809104026020016040519081016040528092919081815260200182805461100890613786565b80156110555780601f1061102a57610100808354040283529160200191611055565b820191906000526020600020905b81548152906001019060200180831161103857829003601f168201915b50505050506128b0565b155b1561130e5760006005846001846110789190613891565b61ffff168151811061108d5761108c6139b4565b5b6020026020010151600001516040516110a69190613740565b908152602001604051809103902060030180546110c290613786565b80601f01602080910402602001604051908101604052809291908181526020018280546110ee90613786565b801561113b5780601f106111105761010080835404028352916020019161113b565b820191906000526020600020905b81548152906001019060200180831161111e57829003601f168201915b5050505050905060405180606001604052808281526020018473ffffffffffffffffffffffffffffffffffffffff166339fb67dd60058560405161117f9190613740565b908152602001604051809103902060000160009054906101000a900468ffffffffffffffffff166040518263ffffffff1660e01b81526004016111c29190613940565b602060405180830381865afa1580156111df573d6000803e3d6000fd5b505050506040513d601f19601f820116820180604052508101906112039190613987565b6bffffffffffffffffffffffff1681526020018473ffffffffffffffffffffffffffffffffffffffff1663edf530c06005856040516112429190613740565b908152602001604051809103902060000160009054906101000a900468ffffffffffffffffff166040518263ffffffff1660e01b81526004016112859190613940565b602060405180830381865afa1580156112a2573d6000803e3d6000fd5b505050506040513d601f19601f820116820180604052508101906112c69190613987565b6bffffffffffffffffffffffff16815250848361ffff16815181106112ee576112ed6139b4565b5b602002602001018190525060018261130691906139e3565b915050610ee2565b8293505050505b92915050565b60606113c16002805461132d90613786565b80601f016020809104026020016040519081016040528092919081815260200182805461135990613786565b80156113a65780601f1061137b576101008083540402835291602001916113a6565b820191906000526020600020905b81548152906001019060200180831161138957829003601f168201915b5050505050600460009054906101000a900461ffff16610aa0565b905090565b60008054906101000a900473ffffffffffffffffffffffffffffffffffffffff1681565b60008054906101000a900473ffffffffffffffffffffffffffffffffffffffff1673ffffffffffffffffffffffffffffffffffffffff166304433bbc6040518163ffffffff1660e01b815260040161144190613a67565b602060405180830381865afa15801561145e573d6000803e3d6000fd5b505050506040513d601f19601f820116820180604052508101906114829190613634565b73ffffffffffffffffffffffffffffffffffffffff163373ffffffffffffffffffffffffffffffffffffffff16146114ef576040517f08c379a00000000000000000000000000000000000000000000000000000000081526004016114e690613af9565b60405180910390fd5b6114f88161299d565b60008060009054906101000a900473ffffffffffffffffffffffffffffffffffffffff1673ffffffffffffffffffffffffffffffffffffffff166304433bbc6040518163ffffffff1660e01b815260040161155290613911565b602060405180830381865afa15801561156f573d6000803e3d6000fd5b505050506040513d601f19601f820116820180604052508101906115939190613634565b905060008173ffffffffffffffffffffffffffffffffffffffff166341c10b9a846040518263ffffffff1660e01b81526004016115d09190613940565b600060405180830381865afa1580156115ed573d6000803e3d6000fd5b505050506040513d6000823e3d601f19601f820116820180604052508101906116169190613b89565b90506117366003805461162890613786565b80601f016020809104026020016040519081016040528092919081815260200182805461165490613786565b80156116a15780601f10611676576101008083540402835291602001916116a1565b820191906000526020600020905b81548152906001019060200180831161168457829003601f168201915b5050505050600180546116b390613786565b80601f01602080910402602001604051908101604052809291908181526020018280546116df90613786565b801561172c5780601f106117015761010080835404028352916020019161172c565b820191906000526020600020905b81548152906001019060200180831161170f57829003601f168201915b50505050506128b0565b6117cf576117ce6003805461174a90613786565b80601f016020809104026020016040519081016040528092919081815260200182805461177690613786565b80156117c35780601f10611798576101008083540402835291602001916117c3565b820191906000526020600020905b8154815290600101906020018083116117a657829003601f168201915b50505050508261292d565b5b6117d881612913565b6118f6600280546117e890613786565b80601f016020809104026020016040519081016040528092919081815260200182805461181490613786565b80156118615780601f1061183657610100808354040283529160200191611861565b820191906000526020600020905b81548152906001019060200180831161184457829003601f168201915b50505050506001805461187390613786565b80601f016020809104026020016040519081016040528092919081815260200182805461189f90613786565b80156118ec5780601f106118c1576101008083540402835291602001916118ec565b820191906000526020600020905b8154815290600101906020018083116118cf57829003601f168201915b50505050506128b0565b1561190557611904816128f9565b5b6001600460008282829054906101000a900461ffff1661192591906139e3565b92506101000a81548161ffff021916908361ffff160217905550505050565b6002805461195190613786565b80601f016020809104026020016040519081016040528092919081815260200182805461197d90613786565b80156119ca5780601f1061199f576101008083540402835291602001916119ca565b820191906000526020600020905b8154815290600101906020018083116119ad57829003601f168201915b505050505081565b60008054906101000a900473ffffffffffffffffffffffffffffffffffffffff1673ffffffffffffffffffffffffffffffffffffffff166304433bbc6040518163ffffffff1660e01b8152600401611a2990613a67565b602060405180830381865afa158015611a46573d6000803e3d6000fd5b505050506040513d601f19601f82011682018060405250810190611a6a9190613634565b73ffffffffffffffffffffffffffffffffffffffff163373ffffffffffffffffffffffffffffffffffffffff1614611ad7576040517f08c379a0000000000000000000000000000000000000000000000000000000008152600401611ace90613af9565b60405180910390fd5b611ae08161299d565b60008060009054906101000a900473ffffffffffffffffffffffffffffffffffffffff1673ffffffffffffffffffffffffffffffffffffffff166304433bbc6040518163ffffffff1660e01b8152600401611b3a90613911565b602060405180830381865afa158015611b57573d6000803e3d6000fd5b505050506040513d601f19601f82011682018060405250810190611b7b9190613634565b905060008173ffffffffffffffffffffffffffffffffffffffff166341c10b9a846040518263ffffffff1660e01b8152600401611bb89190613940565b600060405180830381865afa158015611bd5573d6000803e3d6000fd5b505050506040513d6000823e3d601f19601f82011682018060405250810190611bfe9190613b89565b9050611d1e60028054611c1090613786565b80601f0160208091040260200160405190810160405280929190818152602001828054611c3c90613786565b8015611c895780601f10611c5e57610100808354040283529160200191611c89565b820191906000526020600020905b815481529060010190602001808311611c6c57829003601f168201915b505050505060018054611c9b90613786565b80601f0160208091040260200160405190810160405280929190818152602001828054611cc790613786565b8015611d145780601f10611ce957610100808354040283529160200191611d14565b820191906000526020600020905b815481529060010190602001808311611cf757829003601f168201915b50505050506128b0565b611db757611db68160028054611d3390613786565b80601f0160208091040260200160405190810160405280929190818152602001828054611d5f90613786565b8015611dac5780601f10611d8157610100808354040283529160200191611dac565b820191906000526020600020905b815481529060010190602001808311611d8f57829003601f168201915b505050505061292d565b5b611dc0816128f9565b611ede60038054611dd090613786565b80601f0160208091040260200160405190810160405280929190818152602001828054611dfc90613786565b8015611e495780601f10611e1e57610100808354040283529160200191611e49565b820191906000526020600020905b815481529060010190602001808311611e2c57829003601f168201915b505050505060018054611e5b90613786565b80601f0160208091040260200160405190810160405280929190818152602001828054611e8790613786565b8015611ed45780601f10611ea957610100808354040283529160200191611ed4565b820191906000526020600020905b815481529060010190602001808311611eb757829003601f168201915b50505050506128b0565b15611eed57611eec81612913565b5b6001600460008282829054906101000a900461ffff16611f0d91906139e3565b92506101000a81548161ffff021916908361ffff160217905550505050565b60008054906101000a900473ffffffffffffffffffffffffffffffffffffffff1673ffffffffffffffffffffffffffffffffffffffff166304433bbc6040518163ffffffff1660e01b8152600401611f8390613a67565b602060405180830381865afa158015611fa0573d6000803e3d6000fd5b505050506040513d601f19601f82011682018060405250810190611fc49190613634565b73ffffffffffffffffffffffffffffffffffffffff163373ffffffffffffffffffffffffffffffffffffffff1614612031576040517f08c379a000000000000000000000000000000000000000000000000000000000815260040161202890613af9565b60405180910390fd5b60008060009054906101000a900473ffffffffffffffffffffffffffffffffffffffff1673ffffffffffffffffffffffffffffffffffffffff166304433bbc6040518163ffffffff1660e01b815260040161208b90613911565b602060405180830381865afa1580156120a8573d6000803e3d6000fd5b505050506040513d601f19601f820116820180604052508101906120cc9190613634565b905060008173ffffffffffffffffffffffffffffffffffffffff166341c10b9a846040518263ffffffff1660e01b81526004016121099190613940565b600060405180830381865afa158015612126573d6000803e3d6000fd5b505050506040513d6000823e3d601f19601f8201168201806040525081019061214f9190613b89565b905060006005826040516121639190613740565b90815260200160405180910390206040518060800160405290816000820160009054906101000a900468ffffffffffffffffff1668ffffffffffffffffff1668ffffffffffffffffff1681526020016001820180546121c190613786565b80601f01602080910402602001604051908101604052809291908181526020018280546121ed90613786565b801561223a5780601f1061220f5761010080835404028352916020019161223a565b820191906000526020600020905b81548152906001019060200180831161221d57829003601f168201915b5050505050815260200160028201805461225390613786565b80601f016020809104026020016040519081016040528092919081815260200182805461227f90613786565b80156122cc5780601f106122a1576101008083540402835291602001916122cc565b820191906000526020600020905b8154815290600101906020018083116122af57829003601f168201915b505050505081526020016003820180546122e590613786565b80601f016020809104026020016040519081016040528092919081815260200182805461231190613786565b801561235e5780601f106123335761010080835404028352916020019161235e565b820191906000526020600020905b81548152906001019060200180831161234157829003601f168201915b50505050508152505090506123fd6002805461237990613786565b80601f01602080910402602001604051908101604052809291908181526020018280546123a590613786565b80156123f25780601f106123c7576101008083540402835291602001916123f2565b820191906000526020600020905b8154815290600101906020018083116123d557829003601f168201915b5050505050836128b0565b801561249957506124986003805461241490613786565b80601f016020809104026020016040519081016040528092919081815260200182805461244090613786565b801561248d5780601f106124625761010080835404028352916020019161248d565b820191906000526020600020905b81548152906001019060200180831161247057829003601f168201915b5050505050836128b0565b5b156125c957612531600180546124ae90613786565b80601f01602080910402602001604051908101604052809291908181526020018280546124da90613786565b80156125275780601f106124fc57610100808354040283529160200191612527565b820191906000526020600020905b81548152906001019060200180831161250a57829003601f168201915b50505050506128f9565b6125c46001805461254190613786565b80601f016020809104026020016040519081016040528092919081815260200182805461256d90613786565b80156125ba5780601f1061258f576101008083540402835291602001916125ba565b820191906000526020600020905b81548152906001019060200180831161259d57829003601f168201915b5050505050612913565b6127ac565b61265d600280546125d990613786565b80601f016020809104026020016040519081016040528092919081815260200182805461260590613786565b80156126525780601f1061262757610100808354040283529160200191612652565b820191906000526020600020905b81548152906001019060200180831161263557829003601f168201915b5050505050836128b0565b156126b05761266f81606001516128f9565b600160056002604051612682919061384b565b908152602001604051809103902060020190805461269f90613786565b6126aa929190612e8f565b506127ab565b612744600380546126c090613786565b80601f01602080910402602001604051908101604052809291908181526020018280546126ec90613786565b80156127395780601f1061270e57610100808354040283529160200191612739565b820191906000526020600020905b81548152906001019060200180831161271c57829003601f168201915b5050505050836128b0565b15612797576127568160400151612913565b600160056003604051612769919061384b565b908152602001604051809103902060030190805461278690613786565b612791929190612e8f565b506127aa565b6127a98160400151826060015161292d565b5b5b5b6005826040516127bc9190613740565b9081526020016040518091039020600080820160006101000a81549068ffffffffffffffffff02191690556001820160006127f79190612f1c565b6002820160006128079190612f1c565b6003820160006128179190612f1c565b50506001600460008282829054906101000a900461ffff166128399190613891565b92506101000a81548161ffff021916908361ffff1602179055508368ffffffffffffffffff167fef12f3576561c48ba6945e9b712ac4715d1ac62879143672fcd6e3c63a19619c8360405161288e9190613267565b60405180910390a250505050565b600460009054906101000a900461ffff1681565b60006006826040516128c29190613740565b9081526020016040518091039020546006846040516128e19190613740565b90815260200160405180910390205414905092915050565b806002908051906020019061290f929190612f99565b5050565b8060039080519060200190612929929190612f99565b5050565b8060058360405161293e9190613740565b90815260200160405180910390206003019080519060200190612962929190612f99565b50816005826040516129749190613740565b90815260200160405180910390206002019080519060200190612998929190612f99565b505050565b60008060009054906101000a900473ffffffffffffffffffffffffffffffffffffffff1673ffffffffffffffffffffffffffffffffffffffff166304433bbc6040518163ffffffff1660e01b81526004016129f790613911565b602060405180830381865afa158015612a14573d6000803e3d6000fd5b505050506040513d601f19601f82011682018060405250810190612a389190613634565b905060008173ffffffffffffffffffffffffffffffffffffffff166341c10b9a846040518263ffffffff1660e01b8152600401612a759190613940565b600060405180830381865afa158015612a92573d6000803e3d6000fd5b505050506040513d6000823e3d601f19601f82011682018060405250810190612abb9190613b89565b905060008273ffffffffffffffffffffffffffffffffffffffff1663b89bba068560006040518363ffffffff1660e01b8152600401612afb929190613c1a565b602060405180830381865afa158015612b18573d6000803e3d6000fd5b505050506040513d601f19601f82011682018060405250810190612b3c9190613c79565b9050600060405180608001604052808668ffffffffffffffffff16815260200184815260200160018054612b6f90613786565b80601f0160208091040260200160405190810160405280929190818152602001828054612b9b90613786565b8015612be85780601f10612bbd57610100808354040283529160200191612be8565b820191906000526020600020905b815481529060010190602001808311612bcb57829003601f168201915b5050505050815260200160018054612bff90613786565b80601f0160208091040260200160405190810160405280929190818152602001828054612c2b90613786565b8015612c785780601f10612c4d57610100808354040283529160200191612c78565b820191906000526020600020905b815481529060010190602001808311612c5b57829003601f168201915b5050505050815250905080600584604051612c939190613740565b908152602001604051809103902060008201518160000160006101000a81548168ffffffffffffffffff021916908368ffffffffffffffffff1602179055506020820151816001019080519060200190612cee929190612f99565b506040820151816002019080519060200190612d0b929190612f99565b506060820151816003019080519060200190612d28929190612f99565b5090505081600684604051612d3d9190613740565b9081526020016040518091039020819055508468ffffffffffffffffff167fb809abc01a45789aaa41489b7ab036b78824e81cd10f4a68339c640c461c1c91848673ffffffffffffffffffffffffffffffffffffffff166339fb67dd896040518263ffffffff1660e01b8152600401612db69190613940565b602060405180830381865afa158015612dd3573d6000803e3d6000fd5b505050506040513d601f19601f82011682018060405250810190612df79190613987565b8773ffffffffffffffffffffffffffffffffffffffff1663edf530c08a6040518263ffffffff1660e01b8152600401612e309190613940565b602060405180830381865afa158015612e4d573d6000803e3d6000fd5b505050506040513d601f19601f82011682018060405250810190612e719190613987565b604051612e8093929190613cb5565b60405180910390a25050505050565b828054612e9b90613786565b90600052602060002090601f016020900481019282612ebd5760008555612f0b565b82601f10612ece5780548555612f0b565b82800160010185558215612f0b57600052602060002091601f016020900482015b82811115612f0a578254825591600101919060010190612eef565b5b509050612f18919061301f565b5090565b508054612f2890613786565b6000825580601f10612f3a5750612f59565b601f016020900490600052602060002090810190612f58919061301f565b5b50565b60405180606001604052806060815260200160006bffffffffffffffffffffffff16815260200160006bffffffffffffffffffffffff1681525090565b828054612fa590613786565b90600052602060002090601f016020900481019282612fc7576000855561300e565b82601f10612fe057805160ff191683800117855561300e565b8280016001018555821561300e579182015b8281111561300d578251825591602001919060010190612ff2565b5b50905061301b919061301f565b5090565b5b80821115613038576000816000905550600101613020565b5090565b6000604051905090565b600080fd5b600080fd5b600080fd5b600080fd5b6000601f19601f8301169050919050565b7f4e487b7100000000000000000000000000000000000000000000000000000000600052604160045260246000fd5b6130a38261305a565b810181811067ffffffffffffffff821117156130c2576130c161306b565b5b80604052505050565b60006130d561303c565b90506130e1828261309a565b919050565b600067ffffffffffffffff8211156131015761310061306b565b5b61310a8261305a565b9050602081019050919050565b82818337600083830152505050565b6000613139613134846130e6565b6130cb565b90508281526020810184848401111561315557613154613055565b5b613160848285613117565b509392505050565b600082601f83011261317d5761317c613050565b5b813561318d848260208601613126565b91505092915050565b6000602082840312156131ac576131ab613046565b5b600082013567ffffffffffffffff8111156131ca576131c961304b565b5b6131d684828501613168565b91505092915050565b600081519050919050565b600082825260208201905092915050565b60005b838110156132195780820151818401526020810190506131fe565b83811115613228576000848401525b50505050565b6000613239826131df565b61324381856131ea565b93506132538185602086016131fb565b61325c8161305a565b840191505092915050565b60006020820190508181036000830152613281818461322e565b905092915050565b600061ffff82169050919050565b6132a081613289565b81146132ab57600080fd5b50565b6000813590506132bd81613297565b92915050565b600080604083850312156132da576132d9613046565b5b600083013567ffffffffffffffff8111156132f8576132f761304b565b5b61330485828601613168565b9250506020613315858286016132ae565b9150509250929050565b600081519050919050565b600082825260208201905092915050565b6000819050602082019050919050565b600082825260208201905092915050565b6000613367826131df565b613371818561334b565b93506133818185602086016131fb565b61338a8161305a565b840191505092915050565b60006bffffffffffffffffffffffff82169050919050565b6133b681613395565b82525050565b600060608301600083015184820360008601526133d9828261335c565b91505060208301516133ee60208601826133ad565b50604083015161340160408601826133ad565b508091505092915050565b600061341883836133bc565b905092915050565b6000602082019050919050565b60006134388261331f565b613442818561332a565b9350836020820285016134548561333b565b8060005b858110156134905784840389528151613471858261340c565b945061347c83613420565b925060208a01995050600181019050613458565b50829750879550505050505092915050565b600060208201905081810360008301526134bc818461342d565b905092915050565b600073ffffffffffffffffffffffffffffffffffffffff82169050919050565b6000819050919050565b60006135096135046134ff846134c4565b6134e4565b6134c4565b9050919050565b600061351b826134ee565b9050919050565b600061352d82613510565b9050919050565b61353d81613522565b82525050565b60006020820190506135586000830184613534565b92915050565b600068ffffffffffffffffff82169050919050565b61357c8161355e565b811461358757600080fd5b50565b60008135905061359981613573565b92915050565b6000602082840312156135b5576135b4613046565b5b60006135c38482850161358a565b91505092915050565b6135d581613289565b82525050565b60006020820190506135f060008301846135cc565b92915050565b6000613601826134c4565b9050919050565b613611816135f6565b811461361c57600080fd5b50565b60008151905061362e81613608565b92915050565b60006020828403121561364a57613649613046565b5b60006136588482850161361f565b91505092915050565b600082825260208201905092915050565b7f46756e6374696f6e2063616e206f6e6c792062652063616c6c6564206279206860008201527f7562206f776e6572210000000000000000000000000000000000000000000000602082015250565b60006136ce602983613661565b91506136d982613672565b604082019050919050565b600060208201905081810360008301526136fd816136c1565b9050919050565b600081905092915050565b600061371a826131df565b6137248185613704565b93506137348185602086016131fb565b80840191505092915050565b600061374c828461370f565b915081905092915050565b7f4e487b7100000000000000000000000000000000000000000000000000000000600052602260045260246000fd5b6000600282049050600182168061379e57607f821691505b6020821081036137b1576137b0613757565b5b50919050565b60008190508160005260206000209050919050565b600081546137d981613786565b6137e38186613704565b945060018216600081146137fe576001811461380f57613842565b60ff19831686528186019350613842565b613818856137b7565b60005b8381101561383a5781548189015260018201915060208101905061381b565b838801955050505b50505092915050565b600061385782846137cc565b915081905092915050565b7f4e487b7100000000000000000000000000000000000000000000000000000000600052601160045260246000fd5b600061389c82613289565b91506138a783613289565b9250828210156138ba576138b9613862565b5b828203905092915050565b7f50726f66696c6553746f72616765000000000000000000000000000000000000600082015250565b60006138fb600e83613661565b9150613906826138c5565b602082019050919050565b6000602082019050818103600083015261392a816138ee565b9050919050565b61393a8161355e565b82525050565b60006020820190506139556000830184613931565b92915050565b61396481613395565b811461396f57600080fd5b50565b6000815190506139818161395b565b92915050565b60006020828403121561399d5761399c613046565b5b60006139ab84828501613972565b91505092915050565b7f4e487b7100000000000000000000000000000000000000000000000000000000600052603260045260246000fd5b60006139ee82613289565b91506139f983613289565b92508261ffff03821115613a1057613a0f613862565b5b828201905092915050565b7f50726f66696c6500000000000000000000000000000000000000000000000000600082015250565b6000613a51600783613661565b9150613a5c82613a1b565b602082019050919050565b60006020820190508181036000830152613a8081613a44565b9050919050565b7f46756e6374696f6e2063616e206f6e6c792062652063616c6c6564206279205060008201527f726f66696c6520636f6e74726163742100000000000000000000000000000000602082015250565b6000613ae3603083613661565b9150613aee82613a87565b604082019050919050565b60006020820190508181036000830152613b1281613ad6565b9050919050565b6000613b2c613b27846130e6565b6130cb565b905082815260208101848484011115613b4857613b47613055565b5b613b538482856131fb565b509392505050565b600082601f830112613b7057613b6f613050565b5b8151613b80848260208601613b19565b91505092915050565b600060208284031215613b9f57613b9e613046565b5b600082015167ffffffffffffffff811115613bbd57613bbc61304b565b5b613bc984828501613b5b565b91505092915050565b6000819050919050565b600060ff82169050919050565b6000613c04613bff613bfa84613bd2565b6134e4565b613bdc565b9050919050565b613c1481613be9565b82525050565b6000604082019050613c2f6000830185613931565b613c3c6020830184613c0b565b9392505050565b6000819050919050565b613c5681613c43565b8114613c6157600080fd5b50565b600081519050613c7381613c4d565b92915050565b600060208284031215613c8f57613c8e613046565b5b6000613c9d84828501613c64565b91505092915050565b613caf81613395565b82525050565b60006060820190508181036000830152613ccf818661322e565b9050613cde6020830185613ca6565b613ceb6040830184613ca6565b94935050505056fea26469706673582212205ae6d30b78fbd303bbfbecd1d11f621cf5a3756e131d4ebedb8596cebd687b9e64736f6c634300080e0033",
  "immutableReferences": {},
  "source": "// SPDX-License-Identifier: MIT\n\npragma solidity^0.8.0;\n\nimport {Hub} from './Hub.sol';\nimport {ProfileStorage} from './storage/ProfileStorage.sol';\n\ncontract ShardingTable {\n    event NodeObjCreated(uint72 indexed identityId, bytes nodeId, uint96 ask, uint96 stake);\n    event NodeRemoved(uint72 indexed identityId, bytes nodeId);\n    event NodeRemovedByHubOwner(bytes nodeId);\n\n    struct Node {\n        uint72 identityId;\n        bytes id;\n        bytes prevNodeId;\n        bytes nextNodeId;\n    }\n\n    struct NodeInfo {\n        bytes id;\n        uint96 ask;\n        uint96 stake;\n    }\n\n    Hub public hub;\n\n    bytes private emptyPointer;\n    bytes public head;\n    bytes public tail;\n    uint16 public nodesCount;\n\n    mapping(bytes => Node) nodes;\n    mapping(bytes => bytes32) nodeIdsSha256;\n\n    constructor(address hubAddress) {\n        require(hubAddress != address(0));\n        hub = Hub(hubAddress);\n\n        emptyPointer = \"\";\n        nodeIdsSha256[emptyPointer] = sha256(emptyPointer);\n        head = emptyPointer;\n        tail = emptyPointer;\n        nodesCount = 0;\n    }\n\n    modifier onlyProfile() {\n        require(msg.sender == hub.getContractAddress(\"Profile\"),\n        \"Function can only be called by Profile contract!\");\n        _;\n    }\n\n    modifier onlyHubOwner() {\n        require (\n            msg.sender == hub.owner(),\n            \"Function can only be called by hub owner!\"\n        );\n        _;\n    }\n\n    function getShardingTable(bytes memory startingNodeId, uint16 nodesNumber)\n        public\n        view\n        returns (NodeInfo[] memory)\n    {\n        require(\n            !_equalIdHashes(nodes[startingNodeId].id, \"\") ||\n            _equalIdHashes(startingNodeId, emptyPointer)\n        );\n\n        NodeInfo[] memory nodesPage;\n\n        if (nodesCount == 0) {\n            return nodesPage;\n        }\n\n        nodesPage = new NodeInfo[](nodesNumber);\n\n        ProfileStorage profileStorage = ProfileStorage(hub.getContractAddress(\"ProfileStorage\"));\n\n        nodesPage[0] = NodeInfo(\n            startingNodeId,\n            profileStorage.getAsk(nodes[startingNodeId].identityId),\n            profileStorage.getStake(nodes[startingNodeId].identityId)\n        );\n\n        uint16 i = 1;\n        while (i < nodesNumber && !_equalIdHashes(nodes[nodesPage[i-1].id].nextNodeId, emptyPointer)) {\n            bytes memory nextNodeId = nodes[nodesPage[i-1].id].nextNodeId;\n\n            nodesPage[i] = NodeInfo(\n                nextNodeId,\n                profileStorage.getAsk(nodes[nextNodeId].identityId),\n                profileStorage.getStake(nodes[nextNodeId].identityId)\n            );\n            i += 1;\n        }\n        return nodesPage;\n    }\n\n    function getShardingTable()\n        public\n        view\n        returns (NodeInfo[] memory)\n    {\n        return getShardingTable(head, nodesCount);\n    }\n\n    function pushBack(uint72 identityId)\n        public\n        onlyProfile\n    {        \n        _createNodeObj(identityId);\n\n        ProfileStorage profileStorage = ProfileStorage(hub.getContractAddress(\"ProfileStorage\"));\n        bytes memory nodeId = profileStorage.getNodeId(identityId);\n\n        if (!_equalIdHashes(tail, emptyPointer)) _link(tail, nodeId);\n        _setTail(nodeId);\n\n        if (_equalIdHashes(head, emptyPointer)) _setHead(nodeId);\n\n        nodesCount += 1;\n    }\n\n    function pushFront(uint72 identityId)\n        public\n        onlyProfile\n    {\n        _createNodeObj(identityId);\n\n        ProfileStorage profileStorage = ProfileStorage(hub.getContractAddress(\"ProfileStorage\"));\n        bytes memory nodeId = profileStorage.getNodeId(identityId);\n\n        if (!_equalIdHashes(head, emptyPointer)) _link(nodeId, head);\n        _setHead(nodeId);\n\n        if (_equalIdHashes(tail, emptyPointer)) _setTail(nodeId);\n\n        nodesCount += 1;\n    }\n\n    function removeNode(uint72 identityId)\n        public\n        onlyProfile\n    {\n        ProfileStorage profileStorage = ProfileStorage(hub.getContractAddress(\"ProfileStorage\"));\n        bytes memory nodeId = profileStorage.getNodeId(identityId);\n\n        Node memory nodeToRemove = nodes[nodeId];\n\n        if (_equalIdHashes(head, nodeId) && _equalIdHashes(tail, nodeId)) {\n            _setHead(emptyPointer);\n            _setTail(emptyPointer);\n        }\n        else if (_equalIdHashes(head, nodeId)) {\n            _setHead(nodeToRemove.nextNodeId);\n            nodes[head].prevNodeId = emptyPointer;\n        }\n        else if (_equalIdHashes(tail, nodeId)) {\n            _setTail(nodeToRemove.prevNodeId);\n            nodes[tail].nextNodeId = emptyPointer;\n        }\n        else {\n            _link(nodeToRemove.prevNodeId, nodeToRemove.nextNodeId);\n        }\n\n        delete nodes[nodeId];\n\n        nodesCount -= 1;\n    \n        emit NodeRemoved(identityId, nodeId);\n    }\n\n    function removeNodeById(bytes memory nodeId)\n        public\n        onlyHubOwner\n    {\n        Node memory nodeToRemove = nodes[nodeId];\n\n        if (_equalIdHashes(head, nodeId) && _equalIdHashes(tail, nodeId)) {\n            _setHead(emptyPointer);\n            _setTail(emptyPointer);\n        }\n        else if (_equalIdHashes(head, nodeId)) {\n            _setHead(nodeToRemove.nextNodeId);\n            nodes[head].prevNodeId = emptyPointer;\n        }\n        else if (_equalIdHashes(tail, nodeId)) {\n            _setTail(nodeToRemove.prevNodeId);\n            nodes[tail].nextNodeId = emptyPointer;\n        }\n        else {\n            _link(nodeToRemove.prevNodeId, nodeToRemove.nextNodeId);\n        }\n\n        delete nodes[nodeId];\n\n        nodesCount -= 1;\n    \n        emit NodeRemovedByHubOwner(nodeId);\n    }\n\n    function _createNodeObj(uint72 identityId)\n        internal\n    {\n        ProfileStorage profileStorage = ProfileStorage(hub.getContractAddress(\"ProfileStorage\"));\n\n        bytes memory nodeId = profileStorage.getNodeId(identityId);\n        bytes32 nodeIdSha256 = profileStorage.getNodeAddress(identityId, 0);  // 0 - sha256\n\n        Node memory newNode = Node(\n            identityId,\n            nodeId,\n            emptyPointer,\n            emptyPointer\n        );\n\n        nodes[nodeId] = newNode;\n        nodeIdsSha256[nodeId] = nodeIdSha256;\n\n        emit NodeObjCreated(identityId, nodeId, profileStorage.getAsk(identityId), profileStorage.getStake(identityId));\n    }\n\n    function _setHead(bytes memory nodeId)\n        internal\n    {\n        head = nodeId;\n    }\n\n    function _setTail(bytes memory nodeId)\n        internal\n    {\n        tail = nodeId;\n    }\n\n    function _link(bytes memory _leftNodeId, bytes memory _rightNodeId)\n        internal\n    {\n        nodes[_leftNodeId].nextNodeId = _rightNodeId;\n        nodes[_rightNodeId].prevNodeId = _leftNodeId;\n    }\n\n    function _equalIdHashes(bytes memory _firstId, bytes memory _secondId)\n        internal\n        view\n        returns (bool)\n    {\n        return nodeIdsSha256[_firstId] == nodeIdsSha256[_secondId];\n    }\n}\n",
  "sourcePath": "/Users/max/IdeaProjects/dkg-evm-module/contracts/ShardingTable.sol",
  "compiler": {
    "name": "solc",
    "version": "0.8.14+commit.80d49f37.Emscripten.clang"
  },
  "schemaVersion": "3.4.10",
  "updatedAt": "2022-11-24T16:20:27.442Z",
  "devdoc": {
    "kind": "dev",
    "methods": {},
    "version": 1
  },
  "userdoc": {
    "kind": "user",
    "methods": {},
    "version": 1
  }
}