{
  "contractName": "ShardingTable",
  "abi": [
    {
      "inputs": [
        {
          "internalType": "address",
          "name": "hubAddress",
          "type": "address"
        }
      ],
      "stateMutability": "nonpayable",
      "type": "constructor"
    },
    {
      "anonymous": false,
      "inputs": [
        {
          "indexed": false,
          "internalType": "bytes32",
          "name": "nodeId",
          "type": "bytes32"
        },
        {
          "indexed": false,
          "internalType": "uint256",
          "name": "ask",
          "type": "uint256"
        },
        {
          "indexed": false,
          "internalType": "uint256",
          "name": "stake",
          "type": "uint256"
        }
      ],
      "name": "NodeObjCreated",
      "type": "event"
    },
    {
      "anonymous": false,
      "inputs": [
        {
          "indexed": false,
          "internalType": "bytes32",
          "name": "nodeId",
          "type": "bytes32"
        }
      ],
      "name": "NodeRemoved",
      "type": "event"
    },
    {
      "inputs": [],
      "name": "head",
      "outputs": [
        {
          "internalType": "bytes32",
          "name": "",
          "type": "bytes32"
        }
      ],
      "stateMutability": "view",
      "type": "function"
    },
    {
      "inputs": [],
      "name": "hub",
      "outputs": [
        {
          "internalType": "contract Hub",
          "name": "",
          "type": "address"
        }
      ],
      "stateMutability": "view",
      "type": "function"
    },
    {
      "inputs": [],
      "name": "nodeCount",
      "outputs": [
        {
          "internalType": "uint16",
          "name": "",
          "type": "uint16"
        }
      ],
      "stateMutability": "view",
      "type": "function"
    },
    {
      "inputs": [],
      "name": "tail",
      "outputs": [
        {
          "internalType": "bytes32",
          "name": "",
          "type": "bytes32"
        }
      ],
      "stateMutability": "view",
      "type": "function"
    },
    {
      "inputs": [],
      "name": "getShardingTable",
      "outputs": [
        {
          "components": [
            {
              "internalType": "bytes32",
              "name": "id",
              "type": "bytes32"
            },
            {
              "internalType": "uint256",
              "name": "ask",
              "type": "uint256"
            },
            {
              "internalType": "uint256",
              "name": "stake",
              "type": "uint256"
            }
          ],
          "internalType": "struct ShardingTable.NodeInfo[]",
          "name": "",
          "type": "tuple[]"
        }
      ],
      "stateMutability": "view",
      "type": "function"
    },
    {
      "inputs": [
        {
          "internalType": "bytes32",
          "name": "startingNodeId",
          "type": "bytes32"
        },
        {
          "internalType": "uint16",
          "name": "nodesNumber",
          "type": "uint16"
        }
      ],
      "name": "getShardingTable",
      "outputs": [
        {
          "components": [
            {
              "internalType": "bytes32",
              "name": "id",
              "type": "bytes32"
            },
            {
              "internalType": "uint256",
              "name": "ask",
              "type": "uint256"
            },
            {
              "internalType": "uint256",
              "name": "stake",
              "type": "uint256"
            }
          ],
          "internalType": "struct ShardingTable.NodeInfo[]",
          "name": "",
          "type": "tuple[]"
        }
      ],
      "stateMutability": "view",
      "type": "function"
    },
    {
      "inputs": [
        {
          "internalType": "address",
          "name": "identity",
          "type": "address"
        },
        {
          "internalType": "uint256",
          "name": "ask",
          "type": "uint256"
        }
      ],
      "name": "pushBack",
      "outputs": [],
      "stateMutability": "nonpayable",
      "type": "function"
    },
    {
      "inputs": [
        {
          "internalType": "address",
          "name": "identity",
          "type": "address"
        },
        {
          "internalType": "uint256",
          "name": "ask",
          "type": "uint256"
        }
      ],
      "name": "pushFront",
      "outputs": [],
      "stateMutability": "nonpayable",
      "type": "function"
    },
    {
      "inputs": [
        {
          "internalType": "address",
          "name": "identity",
          "type": "address"
        }
      ],
      "name": "removeNode",
      "outputs": [],
      "stateMutability": "nonpayable",
      "type": "function"
    }
  ],
  "bytecode": "0x60806040523480156200001157600080fd5b50604051620018f0380380620018f083398181016040528101906200003791906200015c565b600073ffffffffffffffffffffffffffffffffffffffff168173ffffffffffffffffffffffffffffffffffffffff16036200007157600080fd5b806000806101000a81548173ffffffffffffffffffffffffffffffffffffffff021916908373ffffffffffffffffffffffffffffffffffffffff1602179055506000801b6001819055506001546002819055506001546003819055506000600460006101000a81548161ffff021916908361ffff160217905550506200018e565b600080fd5b600073ffffffffffffffffffffffffffffffffffffffff82169050919050565b60006200012482620000f7565b9050919050565b620001368162000117565b81146200014257600080fd5b50565b60008151905062000156816200012b565b92915050565b600060208284031215620001755762000174620000f2565b5b6000620001858482850162000145565b91505092915050565b611752806200019e6000396000f3fe608060405234801561001057600080fd5b50600436106100935760003560e01c806336af73f71161006657806336af73f71461010e5780636da49b831461013e5780638f7dcfa31461015c578063b2b99ec91461017a578063e6a201341461019657610093565b80631292e2331461009857806313d8c840146100b4578063289220c6146100d2578063365a86fc146100f0575b600080fd5b6100b260048036038101906100ad91906110c2565b6101b2565b005b6100bc61035c565b6040516100c9919061111b565b60405180910390f35b6100da610362565b6040516100e79190611245565b60405180910390f35b6100f8610385565b60405161010591906112c6565b60405180910390f35b61012860048036038101906101239190611347565b6103a9565b6040516101359190611245565b60405180910390f35b6101466107dd565b6040516101539190611396565b60405180910390f35b6101646107f1565b604051610171919061111b565b60405180910390f35b610194600480360381019061018f91906113b1565b6107f7565b005b6101b060048036038101906101ab91906110c2565b610b5f565b005b6101bc8282610d09565b60008060009054906101000a900473ffffffffffffffffffffffffffffffffffffffff1673ffffffffffffffffffffffffffffffffffffffff166304433bbc6040518163ffffffff1660e01b81526004016102169061143b565b602060405180830381865afa158015610233573d6000803e3d6000fd5b505050506040513d601f19601f820116820180604052508101906102579190611470565b905060008173ffffffffffffffffffffffffffffffffffffffff1663b56e4129856040518263ffffffff1660e01b815260040161029491906114ac565b602060405180830381865afa1580156102b1573d6000803e3d6000fd5b505050506040513d601f19601f820116820180604052508101906102d591906114dc565b90506102e5600354600154610faa565b6102f6576102f560035482610fb7565b5b6102ff81610ff1565b61030d600254600154610faa565b1561031c5761031b81610ffb565b5b6001600460008282829054906101000a900461ffff1661033c9190611538565b92506101000a81548161ffff021916908361ffff16021790555050505050565b60035481565b6060610380600254600460009054906101000a900461ffff166103a9565b905090565b60008054906101000a900473ffffffffffffffffffffffffffffffffffffffff1681565b606060008261ffff1610156103f3576040517f08c379a00000000000000000000000000000000000000000000000000000000081526004016103ea906115e2565b60405180910390fd5b606060008361ffff160361040a57809150506107d7565b8261ffff1667ffffffffffffffff81111561042857610427611602565b5b60405190808252806020026020018201604052801561046157816020015b61044e611005565b8152602001906001900390816104465790505b50905060008060009054906101000a900473ffffffffffffffffffffffffffffffffffffffff1673ffffffffffffffffffffffffffffffffffffffff166304433bbc6040518163ffffffff1660e01b81526004016104be9061143b565b602060405180830381865afa1580156104db573d6000803e3d6000fd5b505050506040513d601f19601f820116820180604052508101906104ff9190611470565b90506040518060600160405280868152602001600560008881526020019081526020016000206004015481526020018273ffffffffffffffffffffffffffffffffffffffff16637a766460600560008a815260200190815260200160002060030160009054906101000a900473ffffffffffffffffffffffffffffffffffffffff166040518263ffffffff1660e01b815260040161059d91906114ac565b602060405180830381865afa1580156105ba573d6000803e3d6000fd5b505050506040513d601f19601f820116820180604052508101906105de9190611646565b815250826000815181106105f5576105f4611673565b5b60200260200101819052506000600190505b8461ffff168161ffff1610801561066b5750610669600560008560018561062e91906116a2565b61ffff168151811061064357610642611673565b5b602002602001015160000151815260200190815260200160002060010154600154610faa565b155b156107d0576000600560008560018561068491906116a2565b61ffff168151811061069957610698611673565b5b60200260200101516000015181526020019081526020016000206001015490506040518060600160405280828152602001600560008481526020019081526020016000206004015481526020018473ffffffffffffffffffffffffffffffffffffffff16637a7664606005600086815260200190815260200160002060030160009054906101000a900473ffffffffffffffffffffffffffffffffffffffff166040518263ffffffff1660e01b815260040161075591906114ac565b602060405180830381865afa158015610772573d6000803e3d6000fd5b505050506040513d601f19601f820116820180604052508101906107969190611646565b815250848361ffff16815181106107b0576107af611673565b5b60200260200101819052506001826107c89190611538565b915050610607565b8293505050505b92915050565b600460009054906101000a900461ffff1681565b60025481565b60008060009054906101000a900473ffffffffffffffffffffffffffffffffffffffff1673ffffffffffffffffffffffffffffffffffffffff166304433bbc6040518163ffffffff1660e01b81526004016108519061143b565b602060405180830381865afa15801561086e573d6000803e3d6000fd5b505050506040513d601f19601f820116820180604052508101906108929190611470565b905060008173ffffffffffffffffffffffffffffffffffffffff1663b56e4129846040518263ffffffff1660e01b81526004016108cf91906114ac565b602060405180830381865afa1580156108ec573d6000803e3d6000fd5b505050506040513d601f19601f8201168201806040525081019061091091906114dc565b90506000600560008381526020019081526020016000206040518060a00160405290816000820154815260200160018201548152602001600282015481526020016003820160009054906101000a900473ffffffffffffffffffffffffffffffffffffffff1673ffffffffffffffffffffffffffffffffffffffff1673ffffffffffffffffffffffffffffffffffffffff16815260200160048201548152505090506109be60025483610faa565b80156109d257506109d160035483610faa565b5b156109f2576109e2600154610ffb565b6109ed600154610ff1565b610a8b565b6109fe60025483610faa565b15610a3457610a108160200151610ffb565b60015460056000600254815260200190815260200160002060000181905550610a8a565b610a4060035483610faa565b15610a7657610a528160000151610ff1565b60015460056000600354815260200190815260200160002060010181905550610a89565b610a8881600001518260200151610fb7565b5b5b5b60056000838152602001908152602001600020600080820160009055600182016000905560028201600090556003820160006101000a81549073ffffffffffffffffffffffffffffffffffffffff0219169055600482016000905550506001600460008282829054906101000a900461ffff16610b0891906116a2565b92506101000a81548161ffff021916908361ffff1602179055507f5254e609a97bab37b7cc79fe128f85c097bd6015c6e1624ae0ba392eb975320582604051610b51919061111b565b60405180910390a150505050565b610b698282610d09565b60008060009054906101000a900473ffffffffffffffffffffffffffffffffffffffff1673ffffffffffffffffffffffffffffffffffffffff166304433bbc6040518163ffffffff1660e01b8152600401610bc39061143b565b602060405180830381865afa158015610be0573d6000803e3d6000fd5b505050506040513d601f19601f82011682018060405250810190610c049190611470565b905060008173ffffffffffffffffffffffffffffffffffffffff1663b56e4129856040518263ffffffff1660e01b8152600401610c4191906114ac565b602060405180830381865afa158015610c5e573d6000803e3d6000fd5b505050506040513d601f19601f82011682018060405250810190610c8291906114dc565b9050610c92600254600154610faa565b610ca357610ca281600254610fb7565b5b610cac81610ffb565b610cba600354600154610faa565b15610cc957610cc881610ff1565b5b6001600460008282829054906101000a900461ffff16610ce99190611538565b92506101000a81548161ffff021916908361ffff16021790555050505050565b60008060009054906101000a900473ffffffffffffffffffffffffffffffffffffffff1673ffffffffffffffffffffffffffffffffffffffff166304433bbc6040518163ffffffff1660e01b8152600401610d639061143b565b602060405180830381865afa158015610d80573d6000803e3d6000fd5b505050506040513d601f19601f82011682018060405250810190610da49190611470565b905060008173ffffffffffffffffffffffffffffffffffffffff1663b56e4129856040518263ffffffff1660e01b8152600401610de191906114ac565b602060405180830381865afa158015610dfe573d6000803e3d6000fd5b505050506040513d601f19601f82011682018060405250810190610e2291906114dc565b905060006040518060a00160405280600154815260200160015481526020018381526020018673ffffffffffffffffffffffffffffffffffffffff168152602001858152509050806005600084815260200190815260200160002060008201518160000155602082015181600101556040820151816002015560608201518160030160006101000a81548173ffffffffffffffffffffffffffffffffffffffff021916908373ffffffffffffffffffffffffffffffffffffffff160217905550608082015181600401559050507ff81abfb76aa8819c4a76c68796f53410178a5e3d372678d8d3ffdb412db686ee82858573ffffffffffffffffffffffffffffffffffffffff16637a766460896040518263ffffffff1660e01b8152600401610f4b91906114ac565b602060405180830381865afa158015610f68573d6000803e3d6000fd5b505050506040513d601f19601f82011682018060405250810190610f8c9190611646565b604051610f9b939291906116e5565b60405180910390a15050505050565b6000818314905092915050565b8060056000848152602001908152602001600020600101819055508160056000838152602001908152602001600020600001819055505050565b8060038190555050565b8060028190555050565b60405180606001604052806000801916815260200160008152602001600081525090565b600080fd5b600073ffffffffffffffffffffffffffffffffffffffff82169050919050565b60006110598261102e565b9050919050565b6110698161104e565b811461107457600080fd5b50565b60008135905061108681611060565b92915050565b6000819050919050565b61109f8161108c565b81146110aa57600080fd5b50565b6000813590506110bc81611096565b92915050565b600080604083850312156110d9576110d8611029565b5b60006110e785828601611077565b92505060206110f8858286016110ad565b9150509250929050565b6000819050919050565b61111581611102565b82525050565b6000602082019050611130600083018461110c565b92915050565b600081519050919050565b600082825260208201905092915050565b6000819050602082019050919050565b61116b81611102565b82525050565b61117a8161108c565b82525050565b6060820160008201516111966000850182611162565b5060208201516111a96020850182611171565b5060408201516111bc6040850182611171565b50505050565b60006111ce8383611180565b60608301905092915050565b6000602082019050919050565b60006111f282611136565b6111fc8185611141565b935061120783611152565b8060005b8381101561123857815161121f88826111c2565b975061122a836111da565b92505060018101905061120b565b5085935050505092915050565b6000602082019050818103600083015261125f81846111e7565b905092915050565b6000819050919050565b600061128c6112876112828461102e565b611267565b61102e565b9050919050565b600061129e82611271565b9050919050565b60006112b082611293565b9050919050565b6112c0816112a5565b82525050565b60006020820190506112db60008301846112b7565b92915050565b6112ea81611102565b81146112f557600080fd5b50565b600081359050611307816112e1565b92915050565b600061ffff82169050919050565b6113248161130d565b811461132f57600080fd5b50565b6000813590506113418161131b565b92915050565b6000806040838503121561135e5761135d611029565b5b600061136c858286016112f8565b925050602061137d85828601611332565b9150509250929050565b6113908161130d565b82525050565b60006020820190506113ab6000830184611387565b92915050565b6000602082840312156113c7576113c6611029565b5b60006113d584828501611077565b91505092915050565b600082825260208201905092915050565b7f50726f66696c6553746f72616765000000000000000000000000000000000000600082015250565b6000611425600e836113de565b9150611430826113ef565b602082019050919050565b6000602082019050818103600083015261145481611418565b9050919050565b60008151905061146a81611060565b92915050565b60006020828403121561148657611485611029565b5b60006114948482850161145b565b91505092915050565b6114a68161104e565b82525050565b60006020820190506114c1600083018461149d565b92915050565b6000815190506114d6816112e1565b92915050565b6000602082840312156114f2576114f1611029565b5b6000611500848285016114c7565b91505092915050565b7f4e487b7100000000000000000000000000000000000000000000000000000000600052601160045260246000fd5b60006115438261130d565b915061154e8361130d565b92508261ffff0382111561156557611564611509565b5b828201905092915050565b7f4e6f646573206e756d626572206d757374206265206e6f6e2d6e65676174697660008201527f6521000000000000000000000000000000000000000000000000000000000000602082015250565b60006115cc6022836113de565b91506115d782611570565b604082019050919050565b600060208201905081810360008301526115fb816115bf565b9050919050565b7f4e487b7100000000000000000000000000000000000000000000000000000000600052604160045260246000fd5b60008151905061164081611096565b92915050565b60006020828403121561165c5761165b611029565b5b600061166a84828501611631565b91505092915050565b7f4e487b7100000000000000000000000000000000000000000000000000000000600052603260045260246000fd5b60006116ad8261130d565b91506116b88361130d565b9250828210156116cb576116ca611509565b5b828203905092915050565b6116df8161108c565b82525050565b60006060820190506116fa600083018661110c565b61170760208301856116d6565b61171460408301846116d6565b94935050505056fea26469706673582212202ef33030fce352761193e5f26801435197b824897d562aa114c1698c6f016d6464736f6c634300080e0033",
  "immutableReferences": {},
  "source": "// SPDX-License-Identifier: MIT\n\npragma solidity^0.8.0;\n\nimport {Hub} from './Hub.sol';\nimport {ProfileStorage} from './storage/ProfileStorage.sol';\n\n\ncontract ShardingTable {\n    event NodeObjCreated(bytes32 nodeId, uint256 ask, uint256 stake);\n    event NodeRemoved(bytes32 nodeId);\n\n    struct Node {\n        bytes32 prevNodeId;\n        bytes32 nextNodeId;\n        bytes32 id;\n        address identity;\n        uint256 ask;\n    }\n\n    struct NodeInfo {\n        bytes32 id;\n        uint256 ask;\n        uint256 stake;\n    }\n\n    Hub public hub;\n\n    bytes32 private emptyPointer;\n    bytes32 public head;\n    bytes32 public tail;\n    uint16 public nodeCount;\n\n    mapping(bytes32 => Node) nodes;\n\n    constructor(address hubAddress) {\n        require(hubAddress != address(0));\n        hub = Hub(hubAddress);\n\n        emptyPointer = bytes32(0);\n        head = emptyPointer;\n        tail = emptyPointer;\n        nodeCount = 0;\n    }\n\n    function getShardingTable(bytes32 startingNodeId, uint16 nodesNumber)\n        public\n        view\n        returns (NodeInfo[] memory)\n    {\n        require(nodesNumber >= 0, \"Nodes number must be non-negative!\");\n\n        NodeInfo[] memory nodesPage;\n\n        if (nodesNumber == 0) {\n            return nodesPage;\n        }\n\n        nodesPage = new NodeInfo[](nodesNumber);\n\n        ProfileStorage profileStorageContract = ProfileStorage(hub.getContractAddress(\"ProfileStorage\"));\n\n        nodesPage[0] = NodeInfo(\n            startingNodeId,\n            nodes[startingNodeId].ask,  // TODO: profileStorageContract.getAsk(nodes[startingNodeId].identity),\n            profileStorageContract.getStake(nodes[startingNodeId].identity)\n        );\n\n        uint16 i = 1;\n        while (i < nodesNumber && !_equalIds(nodes[nodesPage[i-1].id].nextNodeId, emptyPointer)) {\n            bytes32 nextNodeId = nodes[nodesPage[i-1].id].nextNodeId;\n\n            nodesPage[i] = NodeInfo(\n                nextNodeId,\n                nodes[nextNodeId].ask,  // TODO: profileStorageContract.getAsk(nodes[nextNodeId].identity),\n                profileStorageContract.getStake(nodes[nextNodeId].identity)\n            );\n            i += 1;\n        }\n        return nodesPage;\n    }\n\n    function getShardingTable()\n        public\n        view\n        returns (NodeInfo[] memory)\n    {\n        return getShardingTable(head, nodeCount);\n    }\n\n    function pushBack(address identity, uint256 ask)\n        public\n    {\n        _createNodeObj(identity, ask);\n    \n        ProfileStorage profileStorageContract = ProfileStorage(hub.getContractAddress(\"ProfileStorage\"));\n        bytes32 nodeId = profileStorageContract.getNodeId(identity);\n\n        if (!_equalIds(tail, emptyPointer)) _link(tail, nodeId);\n        _setTail(nodeId);\n\n        if (_equalIds(head, emptyPointer)) _setHead(nodeId);\n\n        nodeCount += 1;\n    }\n\n    function pushFront(address identity, uint256 ask)\n        public\n    {\n        _createNodeObj(identity, ask);\n\n        ProfileStorage profileStorageContract = ProfileStorage(hub.getContractAddress(\"ProfileStorage\"));\n        bytes32 nodeId = profileStorageContract.getNodeId(identity);\n\n        if (!_equalIds(head, emptyPointer)) _link(nodeId, head);\n        _setHead(nodeId);\n\n        if (_equalIds(tail, emptyPointer)) _setTail(nodeId);\n\n        nodeCount += 1;\n    }\n\n    function removeNode(address identity)\n        public\n    {\n        ProfileStorage profileStorageContract = ProfileStorage(hub.getContractAddress(\"ProfileStorage\"));\n        bytes32 nodeId = profileStorageContract.getNodeId(identity);\n\n        Node memory nodeToRemove = nodes[nodeId];\n\n        if (_equalIds(head, nodeId) && _equalIds(tail, nodeId)) {\n            _setHead(emptyPointer);\n            _setTail(emptyPointer);\n        }\n        else if (_equalIds(head, nodeId)) {\n            _setHead(nodeToRemove.nextNodeId);\n            nodes[head].prevNodeId = emptyPointer;\n        }\n        else if (_equalIds(tail, nodeId)) {\n            _setTail(nodeToRemove.prevNodeId);\n            nodes[tail].nextNodeId = emptyPointer;\n        }\n        else {\n            _link(nodeToRemove.prevNodeId, nodeToRemove.nextNodeId);\n        }\n\n        delete nodes[nodeId];\n\n        nodeCount -= 1;\n    \n        emit NodeRemoved(nodeId);\n    }\n\n    function _createNodeObj(address identity, uint256 ask)\n        internal\n    {\n        ProfileStorage profileStorageContract = ProfileStorage(hub.getContractAddress(\"ProfileStorage\"));\n\n        bytes32 nodeId = profileStorageContract.getNodeId(identity);\n\n        Node memory newNode = Node(\n            emptyPointer,\n            emptyPointer,\n            nodeId,\n            identity,\n            ask\n        );\n\n        nodes[nodeId] = newNode;\n\n        emit NodeObjCreated(nodeId, ask, profileStorageContract.getStake(identity));\n    }\n\n    function _setHead(bytes32 nodeId)\n        internal\n    {\n        head = nodeId;\n    }\n\n    function _setTail(bytes32 nodeId)\n        internal\n    {\n        tail = nodeId;\n    }\n\n    function _link(bytes32 _leftNodeId, bytes32 _rightNodeId)\n        internal\n    {\n        nodes[_leftNodeId].nextNodeId = _rightNodeId;\n        nodes[_rightNodeId].prevNodeId = _leftNodeId;\n    }\n\n    function _equalIds(bytes32 _firstId, bytes32 _secondId)\n        internal\n        pure\n        returns (bool)\n    {\n        return _firstId == _secondId;\n    }\n}\n",
  "sourcePath": "/Users/waving/Desktop/OriginTrail/dkg-evm-module/contracts/ShardingTable.sol",
  "compiler": {
    "name": "solc",
    "version": "0.8.14+commit.80d49f37.Emscripten.clang"
  },
  "schemaVersion": "3.4.10",
  "updatedAt": "2022-10-26T15:16:10.939Z",
  "devdoc": {
    "kind": "dev",
    "methods": {},
    "version": 1
  },
  "userdoc": {
    "kind": "user",
    "methods": {},
    "version": 1
  }
}