{
  "contractName": "ShardingTable",
  "abi": [
    {
      "inputs": [
        {
          "internalType": "address",
          "name": "hubAddress",
          "type": "address"
        }
      ],
      "stateMutability": "nonpayable",
      "type": "constructor"
    },
    {
      "anonymous": false,
      "inputs": [
        {
          "indexed": false,
          "internalType": "bytes",
          "name": "nodeId",
          "type": "bytes"
        },
        {
          "indexed": false,
          "internalType": "uint256",
          "name": "ask",
          "type": "uint256"
        },
        {
          "indexed": false,
          "internalType": "uint256",
          "name": "stake",
          "type": "uint256"
        },
        {
          "indexed": false,
          "internalType": "bytes32",
          "name": "nodeIdSha256",
          "type": "bytes32"
        }
      ],
      "name": "NodeObjCreated",
      "type": "event"
    },
    {
      "anonymous": false,
      "inputs": [
        {
          "indexed": false,
          "internalType": "bytes",
          "name": "nodeId",
          "type": "bytes"
        }
      ],
      "name": "NodeRemoved",
      "type": "event"
    },
    {
      "inputs": [],
      "name": "head",
      "outputs": [
        {
          "internalType": "bytes",
          "name": "",
          "type": "bytes"
        }
      ],
      "stateMutability": "view",
      "type": "function"
    },
    {
      "inputs": [],
      "name": "hub",
      "outputs": [
        {
          "internalType": "contract Hub",
          "name": "",
          "type": "address"
        }
      ],
      "stateMutability": "view",
      "type": "function"
    },
    {
      "inputs": [],
      "name": "nodesCount",
      "outputs": [
        {
          "internalType": "uint16",
          "name": "",
          "type": "uint16"
        }
      ],
      "stateMutability": "view",
      "type": "function"
    },
    {
      "inputs": [],
      "name": "tail",
      "outputs": [
        {
          "internalType": "bytes",
          "name": "",
          "type": "bytes"
        }
      ],
      "stateMutability": "view",
      "type": "function"
    },
    {
      "inputs": [
        {
          "internalType": "bytes",
          "name": "startingNodeId",
          "type": "bytes"
        },
        {
          "internalType": "uint16",
          "name": "nodesNumber",
          "type": "uint16"
        }
      ],
      "name": "getShardingTable",
      "outputs": [
        {
          "components": [
            {
              "internalType": "bytes",
              "name": "id",
              "type": "bytes"
            },
            {
              "internalType": "uint256",
              "name": "ask",
              "type": "uint256"
            },
            {
              "internalType": "uint256",
              "name": "stake",
              "type": "uint256"
            },
            {
              "internalType": "bytes32",
              "name": "idSha256",
              "type": "bytes32"
            }
          ],
          "internalType": "struct ShardingTable.NodeInfo[]",
          "name": "",
          "type": "tuple[]"
        }
      ],
      "stateMutability": "view",
      "type": "function"
    },
    {
      "inputs": [],
      "name": "getShardingTable",
      "outputs": [
        {
          "components": [
            {
              "internalType": "bytes",
              "name": "id",
              "type": "bytes"
            },
            {
              "internalType": "uint256",
              "name": "ask",
              "type": "uint256"
            },
            {
              "internalType": "uint256",
              "name": "stake",
              "type": "uint256"
            },
            {
              "internalType": "bytes32",
              "name": "idSha256",
              "type": "bytes32"
            }
          ],
          "internalType": "struct ShardingTable.NodeInfo[]",
          "name": "",
          "type": "tuple[]"
        }
      ],
      "stateMutability": "view",
      "type": "function"
    },
    {
      "inputs": [
        {
          "internalType": "address",
          "name": "identity",
          "type": "address"
        }
      ],
      "name": "pushBack",
      "outputs": [],
      "stateMutability": "nonpayable",
      "type": "function"
    },
    {
      "inputs": [
        {
          "internalType": "address",
          "name": "identity",
          "type": "address"
        }
      ],
      "name": "pushFront",
      "outputs": [],
      "stateMutability": "nonpayable",
      "type": "function"
    },
    {
      "inputs": [
        {
          "internalType": "address",
          "name": "identity",
          "type": "address"
        }
      ],
      "name": "removeNode",
      "outputs": [],
      "stateMutability": "nonpayable",
      "type": "function"
    }
  ],
  "bytecode": "0x60806040523480156200001157600080fd5b50604051620038f8380380620038f883398181016040528101906200003791906200036b565b600073ffffffffffffffffffffffffffffffffffffffff168173ffffffffffffffffffffffffffffffffffffffff16036200007157600080fd5b806000806101000a81548173ffffffffffffffffffffffffffffffffffffffff021916908373ffffffffffffffffffffffffffffffffffffffff1602179055506040518060200160405280600081525060019080519060200190620000d8929190620001b9565b5060026001604051620000ec9190620004ac565b602060405180830381855afa1580156200010a573d6000803e3d6000fd5b5050506040513d601f19601f820116820180604052508101906200012f919062000500565b60066001604051620001429190620004ac565b908152602001604051809103902081905550600160029080546200016690620003cc565b620001739291906200024a565b50600160039080546200018690620003cc565b620001939291906200024a565b506000600460006101000a81548161ffff021916908361ffff1602179055505062000532565b828054620001c790620003cc565b90600052602060002090601f016020900481019282620001eb576000855562000237565b82601f106200020657805160ff191683800117855562000237565b8280016001018555821562000237579182015b828111156200023657825182559160200191906001019062000219565b5b509050620002469190620002e2565b5090565b8280546200025890620003cc565b90600052602060002090601f0160209004810192826200027c5760008555620002cf565b82601f106200028f5780548555620002cf565b82800160010185558215620002cf57600052602060002091601f016020900482015b82811115620002ce578254825591600101919060010190620002b1565b5b509050620002de9190620002e2565b5090565b5b80821115620002fd576000816000905550600101620002e3565b5090565b600080fd5b600073ffffffffffffffffffffffffffffffffffffffff82169050919050565b6000620003338262000306565b9050919050565b620003458162000326565b81146200035157600080fd5b50565b60008151905062000365816200033a565b92915050565b60006020828403121562000384576200038362000301565b5b6000620003948482850162000354565b91505092915050565b7f4e487b7100000000000000000000000000000000000000000000000000000000600052602260045260246000fd5b60006002820490506001821680620003e557607f821691505b602082108103620003fb57620003fa6200039d565b5b50919050565b600081905092915050565b60008190508160005260206000209050919050565b600081546200043081620003cc565b6200043c818662000401565b945060018216600081146200045a57600181146200046c57620004a3565b60ff19831686528186019350620004a3565b62000477856200040c565b60005b838110156200049b578154818901526001820191506020810190506200047a565b838801955050505b50505092915050565b6000620004ba828462000421565b915081905092915050565b6000819050919050565b620004da81620004c5565b8114620004e657600080fd5b50565b600081519050620004fa81620004cf565b92915050565b60006020828403121562000519576200051862000301565b5b60006200052984828501620004e9565b91505092915050565b6133b680620005426000396000f3fe608060405234801561001057600080fd5b50600436106100935760003560e01c806347ad65251161006657806347ad652514610122578063495a6ada1461013e5780638f7dcfa31461015a578063b2b99ec914610178578063f1a3c5b31461019457610093565b806313d8c840146100985780631593848f146100b6578063289220c6146100e6578063365a86fc14610104575b600080fd5b6100a06101b2565b6040516100ad91906128a9565b60405180910390f35b6100d060048036038101906100cb9190612a4e565b610240565b6040516100dd9190612c4b565b60405180910390f35b6100ee610af7565b6040516100fb9190612c4b565b60405180910390f35b61010c610ba2565b6040516101199190612cec565b60405180910390f35b61013c60048036038101906101379190612d45565b610bc6565b005b61015860048036038101906101539190612d45565b611120565b005b61016261167a565b60405161016f91906128a9565b60405180910390f35b610192600480360381019061018d9190612d45565b611708565b005b61019c612098565b6040516101a99190612d81565b60405180910390f35b600380546101bf90612dcb565b80601f01602080910402602001604051908101604052809291908181526020018280546101eb90612dcb565b80156102385780601f1061020d57610100808354040283529160200191610238565b820191906000526020600020905b81548152906001019060200180831161021b57829003601f168201915b505050505081565b60606103046005846040516102559190612e38565b9081526020016040518091039020600101805461027190612dcb565b80601f016020809104026020016040519081016040528092919081815260200182805461029d90612dcb565b80156102ea5780601f106102bf576101008083540402835291602001916102ea565b820191906000526020600020905b8154815290600101906020018083116102cd57829003601f168201915b5050505050604051806020016040528060008152506120ac565b15806103a0575061039f836001805461031c90612dcb565b80601f016020809104026020016040519081016040528092919081815260200182805461034890612dcb565b80156103955780601f1061036a57610100808354040283529160200191610395565b820191906000526020600020905b81548152906001019060200180831161037857829003601f168201915b50505050506120ac565b5b6103a957600080fd5b60606000600460009054906101000a900461ffff1661ffff16036103d05780915050610af1565b8261ffff1667ffffffffffffffff8111156103ee576103ed6128e9565b5b60405190808252806020026020018201604052801561042757816020015b610414612675565b81526020019060019003908161040c5790505b50905060008060009054906101000a900473ffffffffffffffffffffffffffffffffffffffff1673ffffffffffffffffffffffffffffffffffffffff166304433bbc6040518163ffffffff1660e01b815260040161048490612eac565b602060405180830381865afa1580156104a1573d6000803e3d6000fd5b505050506040513d601f19601f820116820180604052508101906104c59190612ee1565b905060405180608001604052808681526020018273ffffffffffffffffffffffffffffffffffffffff1663de129f4e6005896040516105049190612e38565b908152602001604051809103902060000160009054906101000a900473ffffffffffffffffffffffffffffffffffffffff166040518263ffffffff1660e01b81526004016105529190612f1d565b602060405180830381865afa15801561056f573d6000803e3d6000fd5b505050506040513d601f19601f820116820180604052508101906105939190612f64565b81526020018273ffffffffffffffffffffffffffffffffffffffff16637a7664606005896040516105c49190612e38565b908152602001604051809103902060000160009054906101000a900473ffffffffffffffffffffffffffffffffffffffff166040518263ffffffff1660e01b81526004016106129190612f1d565b602060405180830381865afa15801561062f573d6000803e3d6000fd5b505050506040513d601f19601f820116820180604052508101906106539190612f64565b81526020016006876040516106689190612e38565b9081526020016040518091039020548152508260008151811061068e5761068d612f91565b5b60200260200101819052506000600190505b8461ffff168161ffff1610801561081f575061081d6005846001846106c59190612fef565b61ffff16815181106106da576106d9612f91565b5b6020026020010151600001516040516106f39190612e38565b9081526020016040518091039020600301805461070f90612dcb565b80601f016020809104026020016040519081016040528092919081815260200182805461073b90612dcb565b80156107885780601f1061075d57610100808354040283529160200191610788565b820191906000526020600020905b81548152906001019060200180831161076b57829003601f168201915b50505050506001805461079a90612dcb565b80601f01602080910402602001604051908101604052809291908181526020018280546107c690612dcb565b80156108135780601f106107e857610100808354040283529160200191610813565b820191906000526020600020905b8154815290600101906020018083116107f657829003601f168201915b50505050506120ac565b155b15610aea5760006005846001846108369190612fef565b61ffff168151811061084b5761084a612f91565b5b6020026020010151600001516040516108649190612e38565b9081526020016040518091039020600301805461088090612dcb565b80601f01602080910402602001604051908101604052809291908181526020018280546108ac90612dcb565b80156108f95780601f106108ce576101008083540402835291602001916108f9565b820191906000526020600020905b8154815290600101906020018083116108dc57829003601f168201915b5050505050905060405180608001604052808281526020018473ffffffffffffffffffffffffffffffffffffffff1663de129f4e60058560405161093d9190612e38565b908152602001604051809103902060000160009054906101000a900473ffffffffffffffffffffffffffffffffffffffff166040518263ffffffff1660e01b815260040161098b9190612f1d565b602060405180830381865afa1580156109a8573d6000803e3d6000fd5b505050506040513d601f19601f820116820180604052508101906109cc9190612f64565b81526020018473ffffffffffffffffffffffffffffffffffffffff16637a7664606005856040516109fd9190612e38565b908152602001604051809103902060000160009054906101000a900473ffffffffffffffffffffffffffffffffffffffff166040518263ffffffff1660e01b8152600401610a4b9190612f1d565b602060405180830381865afa158015610a68573d6000803e3d6000fd5b505050506040513d601f19601f82011682018060405250810190610a8c9190612f64565b8152602001600683604051610aa19190612e38565b908152602001604051809103902054815250848361ffff1681518110610aca57610ac9612f91565b5b6020026020010181905250600182610ae29190613023565b9150506106a0565b8293505050505b92915050565b6060610b9d60028054610b0990612dcb565b80601f0160208091040260200160405190810160405280929190818152602001828054610b3590612dcb565b8015610b825780601f10610b5757610100808354040283529160200191610b82565b820191906000526020600020905b815481529060010190602001808311610b6557829003601f168201915b5050505050600460009054906101000a900461ffff16610240565b905090565b60008054906101000a900473ffffffffffffffffffffffffffffffffffffffff1681565b60008054906101000a900473ffffffffffffffffffffffffffffffffffffffff1673ffffffffffffffffffffffffffffffffffffffff166304433bbc6040518163ffffffff1660e01b8152600401610c1d906130a7565b602060405180830381865afa158015610c3a573d6000803e3d6000fd5b505050506040513d601f19601f82011682018060405250810190610c5e9190612ee1565b73ffffffffffffffffffffffffffffffffffffffff163373ffffffffffffffffffffffffffffffffffffffff1614610ccb576040517f08c379a0000000000000000000000000000000000000000000000000000000008152600401610cc290613139565b60405180910390fd5b610cd4816120f5565b60008060009054906101000a900473ffffffffffffffffffffffffffffffffffffffff1673ffffffffffffffffffffffffffffffffffffffff166304433bbc6040518163ffffffff1660e01b8152600401610d2e90612eac565b602060405180830381865afa158015610d4b573d6000803e3d6000fd5b505050506040513d601f19601f82011682018060405250810190610d6f9190612ee1565b905060008173ffffffffffffffffffffffffffffffffffffffff1663b56e4129846040518263ffffffff1660e01b8152600401610dac9190612f1d565b600060405180830381865afa158015610dc9573d6000803e3d6000fd5b505050506040513d6000823e3d601f19601f82011682018060405250810190610df291906131c9565b9050610f1260028054610e0490612dcb565b80601f0160208091040260200160405190810160405280929190818152602001828054610e3090612dcb565b8015610e7d5780601f10610e5257610100808354040283529160200191610e7d565b820191906000526020600020905b815481529060010190602001808311610e6057829003601f168201915b505050505060018054610e8f90612dcb565b80601f0160208091040260200160405190810160405280929190818152602001828054610ebb90612dcb565b8015610f085780601f10610edd57610100808354040283529160200191610f08565b820191906000526020600020905b815481529060010190602001808311610eeb57829003601f168201915b50505050506120ac565b610fab57610faa8160028054610f2790612dcb565b80601f0160208091040260200160405190810160405280929190818152602001828054610f5390612dcb565b8015610fa05780601f10610f7557610100808354040283529160200191610fa0565b820191906000526020600020905b815481529060010190602001808311610f8357829003601f168201915b50505050506125d1565b5b610fb481612641565b6110d260038054610fc490612dcb565b80601f0160208091040260200160405190810160405280929190818152602001828054610ff090612dcb565b801561103d5780601f106110125761010080835404028352916020019161103d565b820191906000526020600020905b81548152906001019060200180831161102057829003601f168201915b50505050506001805461104f90612dcb565b80601f016020809104026020016040519081016040528092919081815260200182805461107b90612dcb565b80156110c85780601f1061109d576101008083540402835291602001916110c8565b820191906000526020600020905b8154815290600101906020018083116110ab57829003601f168201915b50505050506120ac565b156110e1576110e08161265b565b5b6001600460008282829054906101000a900461ffff166111019190613023565b92506101000a81548161ffff021916908361ffff160217905550505050565b60008054906101000a900473ffffffffffffffffffffffffffffffffffffffff1673ffffffffffffffffffffffffffffffffffffffff166304433bbc6040518163ffffffff1660e01b8152600401611177906130a7565b602060405180830381865afa158015611194573d6000803e3d6000fd5b505050506040513d601f19601f820116820180604052508101906111b89190612ee1565b73ffffffffffffffffffffffffffffffffffffffff163373ffffffffffffffffffffffffffffffffffffffff1614611225576040517f08c379a000000000000000000000000000000000000000000000000000000000815260040161121c90613139565b60405180910390fd5b61122e816120f5565b60008060009054906101000a900473ffffffffffffffffffffffffffffffffffffffff1673ffffffffffffffffffffffffffffffffffffffff166304433bbc6040518163ffffffff1660e01b815260040161128890612eac565b602060405180830381865afa1580156112a5573d6000803e3d6000fd5b505050506040513d601f19601f820116820180604052508101906112c99190612ee1565b905060008173ffffffffffffffffffffffffffffffffffffffff1663b56e4129846040518263ffffffff1660e01b81526004016113069190612f1d565b600060405180830381865afa158015611323573d6000803e3d6000fd5b505050506040513d6000823e3d601f19601f8201168201806040525081019061134c91906131c9565b905061146c6003805461135e90612dcb565b80601f016020809104026020016040519081016040528092919081815260200182805461138a90612dcb565b80156113d75780601f106113ac576101008083540402835291602001916113d7565b820191906000526020600020905b8154815290600101906020018083116113ba57829003601f168201915b5050505050600180546113e990612dcb565b80601f016020809104026020016040519081016040528092919081815260200182805461141590612dcb565b80156114625780601f1061143757610100808354040283529160200191611462565b820191906000526020600020905b81548152906001019060200180831161144557829003601f168201915b50505050506120ac565b611505576115046003805461148090612dcb565b80601f01602080910402602001604051908101604052809291908181526020018280546114ac90612dcb565b80156114f95780601f106114ce576101008083540402835291602001916114f9565b820191906000526020600020905b8154815290600101906020018083116114dc57829003601f168201915b5050505050826125d1565b5b61150e8161265b565b61162c6002805461151e90612dcb565b80601f016020809104026020016040519081016040528092919081815260200182805461154a90612dcb565b80156115975780601f1061156c57610100808354040283529160200191611597565b820191906000526020600020905b81548152906001019060200180831161157a57829003601f168201915b5050505050600180546115a990612dcb565b80601f01602080910402602001604051908101604052809291908181526020018280546115d590612dcb565b80156116225780601f106115f757610100808354040283529160200191611622565b820191906000526020600020905b81548152906001019060200180831161160557829003601f168201915b50505050506120ac565b1561163b5761163a81612641565b5b6001600460008282829054906101000a900461ffff1661165b9190613023565b92506101000a81548161ffff021916908361ffff160217905550505050565b6002805461168790612dcb565b80601f01602080910402602001604051908101604052809291908181526020018280546116b390612dcb565b80156117005780601f106116d557610100808354040283529160200191611700565b820191906000526020600020905b8154815290600101906020018083116116e357829003601f168201915b505050505081565b60008054906101000a900473ffffffffffffffffffffffffffffffffffffffff1673ffffffffffffffffffffffffffffffffffffffff166304433bbc6040518163ffffffff1660e01b815260040161175f906130a7565b602060405180830381865afa15801561177c573d6000803e3d6000fd5b505050506040513d601f19601f820116820180604052508101906117a09190612ee1565b73ffffffffffffffffffffffffffffffffffffffff163373ffffffffffffffffffffffffffffffffffffffff161461180d576040517f08c379a000000000000000000000000000000000000000000000000000000000815260040161180490613139565b60405180910390fd5b60008060009054906101000a900473ffffffffffffffffffffffffffffffffffffffff1673ffffffffffffffffffffffffffffffffffffffff166304433bbc6040518163ffffffff1660e01b815260040161186790612eac565b602060405180830381865afa158015611884573d6000803e3d6000fd5b505050506040513d601f19601f820116820180604052508101906118a89190612ee1565b905060008173ffffffffffffffffffffffffffffffffffffffff1663b56e4129846040518263ffffffff1660e01b81526004016118e59190612f1d565b600060405180830381865afa158015611902573d6000803e3d6000fd5b505050506040513d6000823e3d601f19601f8201168201806040525081019061192b91906131c9565b9050600060058260405161193f9190612e38565b90815260200160405180910390206040518060800160405290816000820160009054906101000a900473ffffffffffffffffffffffffffffffffffffffff1673ffffffffffffffffffffffffffffffffffffffff1673ffffffffffffffffffffffffffffffffffffffff1681526020016001820180546119be90612dcb565b80601f01602080910402602001604051908101604052809291908181526020018280546119ea90612dcb565b8015611a375780601f10611a0c57610100808354040283529160200191611a37565b820191906000526020600020905b815481529060010190602001808311611a1a57829003601f168201915b50505050508152602001600282018054611a5090612dcb565b80601f0160208091040260200160405190810160405280929190818152602001828054611a7c90612dcb565b8015611ac95780601f10611a9e57610100808354040283529160200191611ac9565b820191906000526020600020905b815481529060010190602001808311611aac57829003601f168201915b50505050508152602001600382018054611ae290612dcb565b80601f0160208091040260200160405190810160405280929190818152602001828054611b0e90612dcb565b8015611b5b5780601f10611b3057610100808354040283529160200191611b5b565b820191906000526020600020905b815481529060010190602001808311611b3e57829003601f168201915b5050505050815250509050611bfa60028054611b7690612dcb565b80601f0160208091040260200160405190810160405280929190818152602001828054611ba290612dcb565b8015611bef5780601f10611bc457610100808354040283529160200191611bef565b820191906000526020600020905b815481529060010190602001808311611bd257829003601f168201915b5050505050836120ac565b8015611c965750611c9560038054611c1190612dcb565b80601f0160208091040260200160405190810160405280929190818152602001828054611c3d90612dcb565b8015611c8a5780601f10611c5f57610100808354040283529160200191611c8a565b820191906000526020600020905b815481529060010190602001808311611c6d57829003601f168201915b5050505050836120ac565b5b15611dc657611d2e60018054611cab90612dcb565b80601f0160208091040260200160405190810160405280929190818152602001828054611cd790612dcb565b8015611d245780601f10611cf957610100808354040283529160200191611d24565b820191906000526020600020905b815481529060010190602001808311611d0757829003601f168201915b5050505050612641565b611dc160018054611d3e90612dcb565b80601f0160208091040260200160405190810160405280929190818152602001828054611d6a90612dcb565b8015611db75780601f10611d8c57610100808354040283529160200191611db7565b820191906000526020600020905b815481529060010190602001808311611d9a57829003601f168201915b505050505061265b565b611fa9565b611e5a60028054611dd690612dcb565b80601f0160208091040260200160405190810160405280929190818152602001828054611e0290612dcb565b8015611e4f5780601f10611e2457610100808354040283529160200191611e4f565b820191906000526020600020905b815481529060010190602001808311611e3257829003601f168201915b5050505050836120ac565b15611ead57611e6c8160600151612641565b600160056002604051611e7f91906132a6565b9081526020016040518091039020600201908054611e9c90612dcb565b611ea79291906126a0565b50611fa8565b611f4160038054611ebd90612dcb565b80601f0160208091040260200160405190810160405280929190818152602001828054611ee990612dcb565b8015611f365780601f10611f0b57610100808354040283529160200191611f36565b820191906000526020600020905b815481529060010190602001808311611f1957829003601f168201915b5050505050836120ac565b15611f9457611f53816040015161265b565b600160056003604051611f6691906132a6565b9081526020016040518091039020600301908054611f8390612dcb565b611f8e9291906126a0565b50611fa7565b611fa6816040015182606001516125d1565b5b5b5b600582604051611fb99190612e38565b9081526020016040518091039020600080820160006101000a81549073ffffffffffffffffffffffffffffffffffffffff0219169055600182016000611fff919061272d565b60028201600061200f919061272d565b60038201600061201f919061272d565b50506001600460008282829054906101000a900461ffff166120419190612fef565b92506101000a81548161ffff021916908361ffff1602179055507fe205888acbb768f3542b55524208304eb30bc6221a431e1178015e87fb1ca7938260405161208a91906128a9565b60405180910390a150505050565b600460009054906101000a900461ffff1681565b60006006826040516120be9190612e38565b9081526020016040518091039020546006846040516120dd9190612e38565b90815260200160405180910390205414905092915050565b60008060009054906101000a900473ffffffffffffffffffffffffffffffffffffffff1673ffffffffffffffffffffffffffffffffffffffff166304433bbc6040518163ffffffff1660e01b815260040161214f90612eac565b602060405180830381865afa15801561216c573d6000803e3d6000fd5b505050506040513d601f19601f820116820180604052508101906121909190612ee1565b905060008173ffffffffffffffffffffffffffffffffffffffff1663b56e4129846040518263ffffffff1660e01b81526004016121cd9190612f1d565b600060405180830381865afa1580156121ea573d6000803e3d6000fd5b505050506040513d6000823e3d601f19601f8201168201806040525081019061221391906131c9565b905060006002826040516122279190612e38565b602060405180830381855afa158015612244573d6000803e3d6000fd5b5050506040513d601f19601f8201168201806040525081019061226791906132e9565b9050600060405180608001604052808673ffffffffffffffffffffffffffffffffffffffff168152602001848152602001600180546122a590612dcb565b80601f01602080910402602001604051908101604052809291908181526020018280546122d190612dcb565b801561231e5780601f106122f35761010080835404028352916020019161231e565b820191906000526020600020905b81548152906001019060200180831161230157829003601f168201915b505050505081526020016001805461233590612dcb565b80601f016020809104026020016040519081016040528092919081815260200182805461236190612dcb565b80156123ae5780601f10612383576101008083540402835291602001916123ae565b820191906000526020600020905b81548152906001019060200180831161239157829003601f168201915b50505050508152509050806005846040516123c99190612e38565b908152602001604051809103902060008201518160000160006101000a81548173ffffffffffffffffffffffffffffffffffffffff021916908373ffffffffffffffffffffffffffffffffffffffff160217905550602082015181600101908051906020019061243a92919061276d565b50604082015181600201908051906020019061245792919061276d565b50606082015181600301908051906020019061247492919061276d565b50905050816006846040516124899190612e38565b9081526020016040518091039020819055507fb6404cbe54b50f26abd792c257e9cf81f6589fc5f8a16f2cdce0b0360ee06dec838573ffffffffffffffffffffffffffffffffffffffff1663de129f4e886040518263ffffffff1660e01b81526004016124f69190612f1d565b602060405180830381865afa158015612513573d6000803e3d6000fd5b505050506040513d601f19601f820116820180604052508101906125379190612f64565b8673ffffffffffffffffffffffffffffffffffffffff16637a766460896040518263ffffffff1660e01b81526004016125709190612f1d565b602060405180830381865afa15801561258d573d6000803e3d6000fd5b505050506040513d601f19601f820116820180604052508101906125b19190612f64565b856040516125c29493929190613334565b60405180910390a15050505050565b806005836040516125e29190612e38565b9081526020016040518091039020600301908051906020019061260692919061276d565b50816005826040516126189190612e38565b9081526020016040518091039020600201908051906020019061263c92919061276d565b505050565b806002908051906020019061265792919061276d565b5050565b806003908051906020019061267192919061276d565b5050565b6040518060800160405280606081526020016000815260200160008152602001600080191681525090565b8280546126ac90612dcb565b90600052602060002090601f0160209004810192826126ce576000855561271c565b82601f106126df578054855561271c565b8280016001018555821561271c57600052602060002091601f016020900482015b8281111561271b578254825591600101919060010190612700565b5b50905061272991906127f3565b5090565b50805461273990612dcb565b6000825580601f1061274b575061276a565b601f01602090049060005260206000209081019061276991906127f3565b5b50565b82805461277990612dcb565b90600052602060002090601f01602090048101928261279b57600085556127e2565b82601f106127b457805160ff19168380011785556127e2565b828001600101855582156127e2579182015b828111156127e15782518255916020019190600101906127c6565b5b5090506127ef91906127f3565b5090565b5b8082111561280c5760008160009055506001016127f4565b5090565b600081519050919050565b600082825260208201905092915050565b60005b8381101561284a57808201518184015260208101905061282f565b83811115612859576000848401525b50505050565b6000601f19601f8301169050919050565b600061287b82612810565b612885818561281b565b935061289581856020860161282c565b61289e8161285f565b840191505092915050565b600060208201905081810360008301526128c38184612870565b905092915050565b6000604051905090565b600080fd5b600080fd5b600080fd5b600080fd5b7f4e487b7100000000000000000000000000000000000000000000000000000000600052604160045260246000fd5b6129218261285f565b810181811067ffffffffffffffff821117156129405761293f6128e9565b5b80604052505050565b60006129536128cb565b905061295f8282612918565b919050565b600067ffffffffffffffff82111561297f5761297e6128e9565b5b6129888261285f565b9050602081019050919050565b82818337600083830152505050565b60006129b76129b284612964565b612949565b9050828152602081018484840111156129d3576129d26128e4565b5b6129de848285612995565b509392505050565b600082601f8301126129fb576129fa6128df565b5b8135612a0b8482602086016129a4565b91505092915050565b600061ffff82169050919050565b612a2b81612a14565b8114612a3657600080fd5b50565b600081359050612a4881612a22565b92915050565b60008060408385031215612a6557612a646128d5565b5b600083013567ffffffffffffffff811115612a8357612a826128da565b5b612a8f858286016129e6565b9250506020612aa085828601612a39565b9150509250929050565b600081519050919050565b600082825260208201905092915050565b6000819050602082019050919050565b600082825260208201905092915050565b6000612af282612810565b612afc8185612ad6565b9350612b0c81856020860161282c565b612b158161285f565b840191505092915050565b6000819050919050565b612b3381612b20565b82525050565b6000819050919050565b612b4c81612b39565b82525050565b60006080830160008301518482036000860152612b6f8282612ae7565b9150506020830151612b846020860182612b2a565b506040830151612b976040860182612b2a565b506060830151612baa6060860182612b43565b508091505092915050565b6000612bc18383612b52565b905092915050565b6000602082019050919050565b6000612be182612aaa565b612beb8185612ab5565b935083602082028501612bfd85612ac6565b8060005b85811015612c395784840389528151612c1a8582612bb5565b9450612c2583612bc9565b925060208a01995050600181019050612c01565b50829750879550505050505092915050565b60006020820190508181036000830152612c658184612bd6565b905092915050565b600073ffffffffffffffffffffffffffffffffffffffff82169050919050565b6000819050919050565b6000612cb2612cad612ca884612c6d565b612c8d565b612c6d565b9050919050565b6000612cc482612c97565b9050919050565b6000612cd682612cb9565b9050919050565b612ce681612ccb565b82525050565b6000602082019050612d016000830184612cdd565b92915050565b6000612d1282612c6d565b9050919050565b612d2281612d07565b8114612d2d57600080fd5b50565b600081359050612d3f81612d19565b92915050565b600060208284031215612d5b57612d5a6128d5565b5b6000612d6984828501612d30565b91505092915050565b612d7b81612a14565b82525050565b6000602082019050612d966000830184612d72565b92915050565b7f4e487b7100000000000000000000000000000000000000000000000000000000600052602260045260246000fd5b60006002820490506001821680612de357607f821691505b602082108103612df657612df5612d9c565b5b50919050565b600081905092915050565b6000612e1282612810565b612e1c8185612dfc565b9350612e2c81856020860161282c565b80840191505092915050565b6000612e448284612e07565b915081905092915050565b600082825260208201905092915050565b7f50726f66696c6553746f72616765000000000000000000000000000000000000600082015250565b6000612e96600e83612e4f565b9150612ea182612e60565b602082019050919050565b60006020820190508181036000830152612ec581612e89565b9050919050565b600081519050612edb81612d19565b92915050565b600060208284031215612ef757612ef66128d5565b5b6000612f0584828501612ecc565b91505092915050565b612f1781612d07565b82525050565b6000602082019050612f326000830184612f0e565b92915050565b612f4181612b20565b8114612f4c57600080fd5b50565b600081519050612f5e81612f38565b92915050565b600060208284031215612f7a57612f796128d5565b5b6000612f8884828501612f4f565b91505092915050565b7f4e487b7100000000000000000000000000000000000000000000000000000000600052603260045260246000fd5b7f4e487b7100000000000000000000000000000000000000000000000000000000600052601160045260246000fd5b6000612ffa82612a14565b915061300583612a14565b92508282101561301857613017612fc0565b5b828203905092915050565b600061302e82612a14565b915061303983612a14565b92508261ffff038211156130505761304f612fc0565b5b828201905092915050565b7f50726f66696c6500000000000000000000000000000000000000000000000000600082015250565b6000613091600783612e4f565b915061309c8261305b565b602082019050919050565b600060208201905081810360008301526130c081613084565b9050919050565b7f46756e6374696f6e2063616e206f6e6c792062652063616c6c6564206279205060008201527f726f66696c6520636f6e74726163742100000000000000000000000000000000602082015250565b6000613123603083612e4f565b915061312e826130c7565b604082019050919050565b6000602082019050818103600083015261315281613116565b9050919050565b600061316c61316784612964565b612949565b905082815260208101848484011115613188576131876128e4565b5b61319384828561282c565b509392505050565b600082601f8301126131b0576131af6128df565b5b81516131c0848260208601613159565b91505092915050565b6000602082840312156131df576131de6128d5565b5b600082015167ffffffffffffffff8111156131fd576131fc6128da565b5b6132098482850161319b565b91505092915050565b60008190508160005260206000209050919050565b6000815461323481612dcb565b61323e8186612dfc565b94506001821660008114613259576001811461326a5761329d565b60ff1983168652818601935061329d565b61327385613212565b60005b8381101561329557815481890152600182019150602081019050613276565b838801955050505b50505092915050565b60006132b28284613227565b915081905092915050565b6132c681612b39565b81146132d157600080fd5b50565b6000815190506132e3816132bd565b92915050565b6000602082840312156132ff576132fe6128d5565b5b600061330d848285016132d4565b91505092915050565b61331f81612b20565b82525050565b61332e81612b39565b82525050565b6000608082019050818103600083015261334e8187612870565b905061335d6020830186613316565b61336a6040830185613316565b6133776060830184613325565b9594505050505056fea264697066735822122093f722e1168ae295f05e515a7cbff7eae17530e9c79e7ae5f0483befbf52145564736f6c634300080e0033",
  "immutableReferences": {},
  "source": "// SPDX-License-Identifier: MIT\n\npragma solidity^0.8.0;\n\nimport {Hub} from './Hub.sol';\nimport {ProfileStorage} from './storage/ProfileStorage.sol';\n\n\ncontract ShardingTable {\n    event NodeObjCreated(bytes nodeId, uint256 ask, uint256 stake, bytes32 nodeIdSha256);\n    event NodeRemoved(bytes nodeId);\n\n    struct Node {\n        address identity;\n        bytes id;\n        bytes prevNodeId;\n        bytes nextNodeId;\n    }\n\n    struct NodeInfo {\n        bytes id;\n        uint256 ask;\n        uint256 stake;\n        bytes32 idSha256;\n    }\n\n    Hub public hub;\n\n    bytes private emptyPointer;\n    bytes public head;\n    bytes public tail;\n    uint16 public nodesCount;\n\n    mapping(bytes => Node) nodes;\n    mapping(bytes => bytes32) nodeIdsSha256;\n\n    constructor(address hubAddress) {\n        require(hubAddress != address(0));\n        hub = Hub(hubAddress);\n\n        emptyPointer = \"\";\n        nodeIdsSha256[emptyPointer] = sha256(emptyPointer);\n        head = emptyPointer;\n        tail = emptyPointer;\n        nodesCount = 0;\n    }\n\n    modifier onlyProfile() {\n        require(msg.sender == hub.getContractAddress(\"Profile\"),\n        \"Function can only be called by Profile contract!\");\n        _;\n    }\n\n    function getShardingTable(bytes memory startingNodeId, uint16 nodesNumber)\n        public\n        view\n        returns (NodeInfo[] memory)\n    {\n        require(\n            !_equalIdHashes(nodes[startingNodeId].id, \"\") ||\n            _equalIdHashes(startingNodeId, emptyPointer)\n        );\n\n        NodeInfo[] memory nodesPage;\n\n        if (nodesCount == 0) {\n            return nodesPage;\n        }\n\n        nodesPage = new NodeInfo[](nodesNumber);\n\n        ProfileStorage profileStorageContract = ProfileStorage(hub.getContractAddress(\"ProfileStorage\"));\n\n        nodesPage[0] = NodeInfo(\n            startingNodeId,\n            profileStorageContract.getAsk(nodes[startingNodeId].identity),\n            profileStorageContract.getStake(nodes[startingNodeId].identity),\n            nodeIdsSha256[startingNodeId]\n        );\n\n        uint16 i = 1;\n        while (i < nodesNumber && !_equalIdHashes(nodes[nodesPage[i-1].id].nextNodeId, emptyPointer)) {\n            bytes memory nextNodeId = nodes[nodesPage[i-1].id].nextNodeId;\n\n            nodesPage[i] = NodeInfo(\n                nextNodeId,\n                profileStorageContract.getAsk(nodes[nextNodeId].identity),\n                profileStorageContract.getStake(nodes[nextNodeId].identity),\n                nodeIdsSha256[nextNodeId]\n            );\n            i += 1;\n        }\n        return nodesPage;\n    }\n\n    function getShardingTable()\n        public\n        view\n        returns (NodeInfo[] memory)\n    {\n        return getShardingTable(head, nodesCount);\n    }\n\n    function pushBack(address identity)\n        public\n        onlyProfile\n    {\n        _createNodeObj(identity);\n    \n        ProfileStorage profileStorageContract = ProfileStorage(hub.getContractAddress(\"ProfileStorage\"));\n        bytes memory nodeId = profileStorageContract.getNodeId(identity);\n\n        if (!_equalIdHashes(tail, emptyPointer)) _link(tail, nodeId);\n        _setTail(nodeId);\n\n        if (_equalIdHashes(head, emptyPointer)) _setHead(nodeId);\n\n        nodesCount += 1;\n    }\n\n    function pushFront(address identity)\n        public\n        onlyProfile\n    {\n        _createNodeObj(identity);\n\n        ProfileStorage profileStorageContract = ProfileStorage(hub.getContractAddress(\"ProfileStorage\"));\n        bytes memory nodeId = profileStorageContract.getNodeId(identity);\n\n        if (!_equalIdHashes(head, emptyPointer)) _link(nodeId, head);\n        _setHead(nodeId);\n\n        if (_equalIdHashes(tail, emptyPointer)) _setTail(nodeId);\n\n        nodesCount += 1;\n    }\n\n    function removeNode(address identity)\n        public\n        onlyProfile\n    {\n        ProfileStorage profileStorageContract = ProfileStorage(hub.getContractAddress(\"ProfileStorage\"));\n        bytes memory nodeId = profileStorageContract.getNodeId(identity);\n\n        Node memory nodeToRemove = nodes[nodeId];\n\n        if (_equalIdHashes(head, nodeId) && _equalIdHashes(tail, nodeId)) {\n            _setHead(emptyPointer);\n            _setTail(emptyPointer);\n        }\n        else if (_equalIdHashes(head, nodeId)) {\n            _setHead(nodeToRemove.nextNodeId);\n            nodes[head].prevNodeId = emptyPointer;\n        }\n        else if (_equalIdHashes(tail, nodeId)) {\n            _setTail(nodeToRemove.prevNodeId);\n            nodes[tail].nextNodeId = emptyPointer;\n        }\n        else {\n            _link(nodeToRemove.prevNodeId, nodeToRemove.nextNodeId);\n        }\n\n        delete nodes[nodeId];\n\n        nodesCount -= 1;\n    \n        emit NodeRemoved(nodeId);\n    }\n\n    function _createNodeObj(address identity)\n        internal\n    {\n        ProfileStorage profileStorageContract = ProfileStorage(hub.getContractAddress(\"ProfileStorage\"));\n\n        bytes memory nodeId = profileStorageContract.getNodeId(identity);\n        bytes32 nodeIdSha256 = sha256(nodeId);\n\n        Node memory newNode = Node(\n            identity,\n            nodeId,\n            emptyPointer,\n            emptyPointer\n        );\n\n        nodes[nodeId] = newNode;\n        nodeIdsSha256[nodeId] = nodeIdSha256;\n\n        emit NodeObjCreated(\n            nodeId,\n            profileStorageContract.getAsk(identity),\n            profileStorageContract.getStake(identity),\n            nodeIdSha256\n        );\n    }\n\n    function _setHead(bytes memory nodeId)\n        internal\n    {\n        head = nodeId;\n    }\n\n    function _setTail(bytes memory nodeId)\n        internal\n    {\n        tail = nodeId;\n    }\n\n    function _link(bytes memory _leftNodeId, bytes memory _rightNodeId)\n        internal\n    {\n        nodes[_leftNodeId].nextNodeId = _rightNodeId;\n        nodes[_rightNodeId].prevNodeId = _leftNodeId;\n    }\n\n    function _equalIdHashes(bytes memory _firstId, bytes memory _secondId)\n        internal\n        view\n        returns (bool)\n    {\n        return nodeIdsSha256[_firstId] == nodeIdsSha256[_secondId];\n    }\n}\n",
  "sourcePath": "/Users/waving/Desktop/OriginTrail/dkg-evm-module/contracts/ShardingTable.sol",
  "compiler": {
    "name": "solc",
    "version": "0.8.14+commit.80d49f37.Emscripten.clang"
  },
  "schemaVersion": "3.4.10",
  "updatedAt": "2022-11-02T12:03:50.098Z",
  "devdoc": {
    "kind": "dev",
    "methods": {},
    "version": 1
  },
  "userdoc": {
    "kind": "user",
    "methods": {},
    "version": 1
  }
}