{
  "contractName": "ShardingTable",
  "abi": [
    {
      "inputs": [
        {
          "internalType": "address",
          "name": "hubAddress",
          "type": "address"
        }
      ],
      "stateMutability": "nonpayable",
      "type": "constructor"
    },
    {
      "anonymous": false,
      "inputs": [
        {
          "indexed": true,
          "internalType": "uint96",
          "name": "identityId",
          "type": "uint96"
        },
        {
          "indexed": false,
          "internalType": "bytes",
          "name": "nodeId",
          "type": "bytes"
        },
        {
          "indexed": false,
          "internalType": "uint96",
          "name": "ask",
          "type": "uint96"
        },
        {
          "indexed": false,
          "internalType": "uint96",
          "name": "stake",
          "type": "uint96"
        }
      ],
      "name": "NodeObjCreated",
      "type": "event"
    },
    {
      "anonymous": false,
      "inputs": [
        {
          "indexed": true,
          "internalType": "uint96",
          "name": "identityId",
          "type": "uint96"
        },
        {
          "indexed": false,
          "internalType": "bytes",
          "name": "nodeId",
          "type": "bytes"
        }
      ],
      "name": "NodeRemoved",
      "type": "event"
    },
    {
      "anonymous": false,
      "inputs": [
        {
          "indexed": false,
          "internalType": "bytes",
          "name": "nodeId",
          "type": "bytes"
        }
      ],
      "name": "NodeRemovedByHubOwner",
      "type": "event"
    },
    {
      "inputs": [],
      "name": "head",
      "outputs": [
        {
          "internalType": "bytes",
          "name": "",
          "type": "bytes"
        }
      ],
      "stateMutability": "view",
      "type": "function"
    },
    {
      "inputs": [],
      "name": "hub",
      "outputs": [
        {
          "internalType": "contract Hub",
          "name": "",
          "type": "address"
        }
      ],
      "stateMutability": "view",
      "type": "function"
    },
    {
      "inputs": [],
      "name": "nodesCount",
      "outputs": [
        {
          "internalType": "uint16",
          "name": "",
          "type": "uint16"
        }
      ],
      "stateMutability": "view",
      "type": "function"
    },
    {
      "inputs": [],
      "name": "tail",
      "outputs": [
        {
          "internalType": "bytes",
          "name": "",
          "type": "bytes"
        }
      ],
      "stateMutability": "view",
      "type": "function"
    },
    {
      "inputs": [
        {
          "internalType": "bytes",
          "name": "startingNodeId",
          "type": "bytes"
        },
        {
          "internalType": "uint16",
          "name": "nodesNumber",
          "type": "uint16"
        }
      ],
      "name": "getShardingTable",
      "outputs": [
        {
          "components": [
            {
              "internalType": "bytes",
              "name": "id",
              "type": "bytes"
            },
            {
              "internalType": "uint96",
              "name": "ask",
              "type": "uint96"
            },
            {
              "internalType": "uint96",
              "name": "stake",
              "type": "uint96"
            }
          ],
          "internalType": "struct ShardingTable.NodeInfo[]",
          "name": "",
          "type": "tuple[]"
        }
      ],
      "stateMutability": "view",
      "type": "function"
    },
    {
      "inputs": [],
      "name": "getShardingTable",
      "outputs": [
        {
          "components": [
            {
              "internalType": "bytes",
              "name": "id",
              "type": "bytes"
            },
            {
              "internalType": "uint96",
              "name": "ask",
              "type": "uint96"
            },
            {
              "internalType": "uint96",
              "name": "stake",
              "type": "uint96"
            }
          ],
          "internalType": "struct ShardingTable.NodeInfo[]",
          "name": "",
          "type": "tuple[]"
        }
      ],
      "stateMutability": "view",
      "type": "function"
    },
    {
      "inputs": [
        {
          "internalType": "uint96",
          "name": "identityId",
          "type": "uint96"
        }
      ],
      "name": "pushBack",
      "outputs": [],
      "stateMutability": "nonpayable",
      "type": "function"
    },
    {
      "inputs": [
        {
          "internalType": "uint96",
          "name": "identityId",
          "type": "uint96"
        }
      ],
      "name": "pushFront",
      "outputs": [],
      "stateMutability": "nonpayable",
      "type": "function"
    },
    {
      "inputs": [
        {
          "internalType": "uint96",
          "name": "identityId",
          "type": "uint96"
        }
      ],
      "name": "removeNode",
      "outputs": [],
      "stateMutability": "nonpayable",
      "type": "function"
    },
    {
      "inputs": [
        {
          "internalType": "bytes",
          "name": "nodeId",
          "type": "bytes"
        }
      ],
      "name": "removeNodeById",
      "outputs": [],
      "stateMutability": "nonpayable",
      "type": "function"
    }
  ],
  "bytecode": "0x60806040523480156200001157600080fd5b50604051620042633803806200426383398181016040528101906200003791906200036b565b600073ffffffffffffffffffffffffffffffffffffffff168173ffffffffffffffffffffffffffffffffffffffff16036200007157600080fd5b806000806101000a81548173ffffffffffffffffffffffffffffffffffffffff021916908373ffffffffffffffffffffffffffffffffffffffff1602179055506040518060200160405280600081525060019080519060200190620000d8929190620001b9565b5060026001604051620000ec9190620004ac565b602060405180830381855afa1580156200010a573d6000803e3d6000fd5b5050506040513d601f19601f820116820180604052508101906200012f919062000500565b60066001604051620001429190620004ac565b908152602001604051809103902081905550600160029080546200016690620003cc565b620001739291906200024a565b50600160039080546200018690620003cc565b620001939291906200024a565b506000600460006101000a81548161ffff021916908361ffff1602179055505062000532565b828054620001c790620003cc565b90600052602060002090601f016020900481019282620001eb576000855562000237565b82601f106200020657805160ff191683800117855562000237565b8280016001018555821562000237579182015b828111156200023657825182559160200191906001019062000219565b5b509050620002469190620002e2565b5090565b8280546200025890620003cc565b90600052602060002090601f0160209004810192826200027c5760008555620002cf565b82601f106200028f5780548555620002cf565b82800160010185558215620002cf57600052602060002091601f016020900482015b82811115620002ce578254825591600101919060010190620002b1565b5b509050620002de9190620002e2565b5090565b5b80821115620002fd576000816000905550600101620002e3565b5090565b600080fd5b600073ffffffffffffffffffffffffffffffffffffffff82169050919050565b6000620003338262000306565b9050919050565b620003458162000326565b81146200035157600080fd5b50565b60008151905062000365816200033a565b92915050565b60006020828403121562000384576200038362000301565b5b6000620003948482850162000354565b91505092915050565b7f4e487b7100000000000000000000000000000000000000000000000000000000600052602260045260246000fd5b60006002820490506001821680620003e557607f821691505b602082108103620003fb57620003fa6200039d565b5b50919050565b600081905092915050565b60008190508160005260206000209050919050565b600081546200043081620003cc565b6200043c818662000401565b945060018216600081146200045a57600181146200046c57620004a3565b60ff19831686528186019350620004a3565b62000477856200040c565b60005b838110156200049b578154818901526001820191506020810190506200047a565b838801955050505b50505092915050565b6000620004ba828462000421565b915081905092915050565b6000819050919050565b620004da81620004c5565b8114620004e657600080fd5b50565b600081519050620004fa81620004cf565b92915050565b60006020828403121562000519576200051862000301565b5b60006200052984828501620004e9565b91505092915050565b613d2180620005426000396000f3fe608060405234801561001057600080fd5b506004361061009e5760003560e01c8063796f11aa11610066578063796f11aa146101495780638f7dcfa314610165578063e1131caa14610183578063f1a3c5b31461019f578063ffdd7edd146101bd5761009e565b806304848448146100a357806313d8c840146100bf5780631593848f146100dd578063289220c61461010d578063365a86fc1461012b575b600080fd5b6100bd60048036038101906100b891906131c9565b6101d9565b005b6100c7610a1e565b6040516100d4919061329a565b60405180910390f35b6100f760048036038101906100f291906132f6565b610aac565b60405161010491906134d5565b60405180910390f35b610115611333565b60405161012291906134d5565b60405180910390f35b6101336113de565b6040516101409190613576565b60405180910390f35b610163600480360381019061015e91906135bd565b611402565b005b61016d611d81565b60405161017a919061329a565b60405180910390f35b61019d600480360381019061019891906135bd565b611e0f565b005b6101a7612369565b6040516101b491906135f9565b60405180910390f35b6101d760048036038101906101d291906135bd565b61237d565b005b60008054906101000a900473ffffffffffffffffffffffffffffffffffffffff1673ffffffffffffffffffffffffffffffffffffffff16638da5cb5b6040518163ffffffff1660e01b8152600401602060405180830381865afa158015610244573d6000803e3d6000fd5b505050506040513d601f19601f820116820180604052508101906102689190613652565b73ffffffffffffffffffffffffffffffffffffffff163373ffffffffffffffffffffffffffffffffffffffff16146102d5576040517f08c379a00000000000000000000000000000000000000000000000000000000081526004016102cc90613702565b60405180910390fd5b60006005826040516102e7919061375e565b90815260200160405180910390206040518060800160405290816000820160009054906101000a90046bffffffffffffffffffffffff166bffffffffffffffffffffffff166bffffffffffffffffffffffff16815260200160018201805461034e906137a4565b80601f016020809104026020016040519081016040528092919081815260200182805461037a906137a4565b80156103c75780601f1061039c576101008083540402835291602001916103c7565b820191906000526020600020905b8154815290600101906020018083116103aa57829003601f168201915b505050505081526020016002820180546103e0906137a4565b80601f016020809104026020016040519081016040528092919081815260200182805461040c906137a4565b80156104595780601f1061042e57610100808354040283529160200191610459565b820191906000526020600020905b81548152906001019060200180831161043c57829003601f168201915b50505050508152602001600382018054610472906137a4565b80601f016020809104026020016040519081016040528092919081815260200182805461049e906137a4565b80156104eb5780601f106104c0576101008083540402835291602001916104eb565b820191906000526020600020905b8154815290600101906020018083116104ce57829003601f168201915b505050505081525050905061058a60028054610506906137a4565b80601f0160208091040260200160405190810160405280929190818152602001828054610532906137a4565b801561057f5780601f106105545761010080835404028352916020019161057f565b820191906000526020600020905b81548152906001019060200180831161056257829003601f168201915b5050505050836128d7565b80156106265750610625600380546105a1906137a4565b80601f01602080910402602001604051908101604052809291908181526020018280546105cd906137a4565b801561061a5780601f106105ef5761010080835404028352916020019161061a565b820191906000526020600020905b8154815290600101906020018083116105fd57829003601f168201915b5050505050836128d7565b5b15610756576106be6001805461063b906137a4565b80601f0160208091040260200160405190810160405280929190818152602001828054610667906137a4565b80156106b45780601f10610689576101008083540402835291602001916106b4565b820191906000526020600020905b81548152906001019060200180831161069757829003601f168201915b5050505050612920565b610751600180546106ce906137a4565b80601f01602080910402602001604051908101604052809291908181526020018280546106fa906137a4565b80156107475780601f1061071c57610100808354040283529160200191610747565b820191906000526020600020905b81548152906001019060200180831161072a57829003601f168201915b505050505061293a565b610939565b6107ea60028054610766906137a4565b80601f0160208091040260200160405190810160405280929190818152602001828054610792906137a4565b80156107df5780601f106107b4576101008083540402835291602001916107df565b820191906000526020600020905b8154815290600101906020018083116107c257829003601f168201915b5050505050836128d7565b1561083d576107fc8160600151612920565b60016005600260405161080f9190613869565b908152602001604051809103902060020190805461082c906137a4565b610837929190612ec2565b50610938565b6108d16003805461084d906137a4565b80601f0160208091040260200160405190810160405280929190818152602001828054610879906137a4565b80156108c65780601f1061089b576101008083540402835291602001916108c6565b820191906000526020600020905b8154815290600101906020018083116108a957829003601f168201915b5050505050836128d7565b15610924576108e3816040015161293a565b6001600560036040516108f69190613869565b9081526020016040518091039020600301908054610913906137a4565b61091e929190612ec2565b50610937565b61093681604001518260600151612954565b5b5b5b600582604051610949919061375e565b9081526020016040518091039020600080820160006101000a8154906bffffffffffffffffffffffff02191690556001820160006109879190612f4f565b6002820160006109979190612f4f565b6003820160006109a79190612f4f565b50506001600460008282829054906101000a900461ffff166109c991906138af565b92506101000a81548161ffff021916908361ffff1602179055507f95cd81cf39e148b985bcebddacf7182ecfa6277e5d569a7d4c812b8896cb25aa82604051610a12919061329a565b60405180910390a15050565b60038054610a2b906137a4565b80601f0160208091040260200160405190810160405280929190818152602001828054610a57906137a4565b8015610aa45780601f10610a7957610100808354040283529160200191610aa4565b820191906000526020600020905b815481529060010190602001808311610a8757829003601f168201915b505050505081565b6060610b70600584604051610ac1919061375e565b90815260200160405180910390206001018054610add906137a4565b80601f0160208091040260200160405190810160405280929190818152602001828054610b09906137a4565b8015610b565780601f10610b2b57610100808354040283529160200191610b56565b820191906000526020600020905b815481529060010190602001808311610b3957829003601f168201915b5050505050604051806020016040528060008152506128d7565b1580610c0c5750610c0b8360018054610b88906137a4565b80601f0160208091040260200160405190810160405280929190818152602001828054610bb4906137a4565b8015610c015780601f10610bd657610100808354040283529160200191610c01565b820191906000526020600020905b815481529060010190602001808311610be457829003601f168201915b50505050506128d7565b5b610c1557600080fd5b60606000600460009054906101000a900461ffff1661ffff1603610c3c578091505061132d565b8261ffff1667ffffffffffffffff811115610c5a57610c5961309e565b5b604051908082528060200260200182016040528015610c9357816020015b610c80612f8f565b815260200190600190039081610c785790505b50905060008060009054906101000a900473ffffffffffffffffffffffffffffffffffffffff1673ffffffffffffffffffffffffffffffffffffffff166304433bbc6040518163ffffffff1660e01b8152600401610cf09061392f565b602060405180830381865afa158015610d0d573d6000803e3d6000fd5b505050506040513d601f19601f82011682018060405250810190610d319190613652565b905060405180606001604052808681526020018273ffffffffffffffffffffffffffffffffffffffff166350f0f408600589604051610d70919061375e565b908152602001604051809103902060000160009054906101000a90046bffffffffffffffffffffffff166040518263ffffffff1660e01b8152600401610db6919061395e565b602060405180830381865afa158015610dd3573d6000803e3d6000fd5b505050506040513d601f19601f82011682018060405250810190610df7919061398e565b6bffffffffffffffffffffffff1681526020018273ffffffffffffffffffffffffffffffffffffffff16631860bd8e600589604051610e36919061375e565b908152602001604051809103902060000160009054906101000a90046bffffffffffffffffffffffff166040518263ffffffff1660e01b8152600401610e7c919061395e565b602060405180830381865afa158015610e99573d6000803e3d6000fd5b505050506040513d601f19601f82011682018060405250810190610ebd919061398e565b6bffffffffffffffffffffffff1681525082600081518110610ee257610ee16139bb565b5b60200260200101819052506000600190505b8461ffff168161ffff161080156110735750611071600584600184610f1991906138af565b61ffff1681518110610f2e57610f2d6139bb565b5b602002602001015160000151604051610f47919061375e565b90815260200160405180910390206003018054610f63906137a4565b80601f0160208091040260200160405190810160405280929190818152602001828054610f8f906137a4565b8015610fdc5780601f10610fb157610100808354040283529160200191610fdc565b820191906000526020600020905b815481529060010190602001808311610fbf57829003601f168201915b505050505060018054610fee906137a4565b80601f016020809104026020016040519081016040528092919081815260200182805461101a906137a4565b80156110675780601f1061103c57610100808354040283529160200191611067565b820191906000526020600020905b81548152906001019060200180831161104a57829003601f168201915b50505050506128d7565b155b1561132657600060058460018461108a91906138af565b61ffff168151811061109f5761109e6139bb565b5b6020026020010151600001516040516110b8919061375e565b908152602001604051809103902060030180546110d4906137a4565b80601f0160208091040260200160405190810160405280929190818152602001828054611100906137a4565b801561114d5780601f106111225761010080835404028352916020019161114d565b820191906000526020600020905b81548152906001019060200180831161113057829003601f168201915b5050505050905060405180606001604052808281526020018473ffffffffffffffffffffffffffffffffffffffff166350f0f408600585604051611191919061375e565b908152602001604051809103902060000160009054906101000a90046bffffffffffffffffffffffff166040518263ffffffff1660e01b81526004016111d7919061395e565b602060405180830381865afa1580156111f4573d6000803e3d6000fd5b505050506040513d601f19601f82011682018060405250810190611218919061398e565b6bffffffffffffffffffffffff1681526020018473ffffffffffffffffffffffffffffffffffffffff16631860bd8e600585604051611257919061375e565b908152602001604051809103902060000160009054906101000a90046bffffffffffffffffffffffff166040518263ffffffff1660e01b815260040161129d919061395e565b602060405180830381865afa1580156112ba573d6000803e3d6000fd5b505050506040513d601f19601f820116820180604052508101906112de919061398e565b6bffffffffffffffffffffffff16815250848361ffff1681518110611306576113056139bb565b5b602002602001018190525060018261131e91906139ea565b915050610ef4565b8293505050505b92915050565b60606113d960028054611345906137a4565b80601f0160208091040260200160405190810160405280929190818152602001828054611371906137a4565b80156113be5780601f10611393576101008083540402835291602001916113be565b820191906000526020600020905b8154815290600101906020018083116113a157829003601f168201915b5050505050600460009054906101000a900461ffff16610aac565b905090565b60008054906101000a900473ffffffffffffffffffffffffffffffffffffffff1681565b60008054906101000a900473ffffffffffffffffffffffffffffffffffffffff1673ffffffffffffffffffffffffffffffffffffffff166304433bbc6040518163ffffffff1660e01b815260040161145990613a6e565b602060405180830381865afa158015611476573d6000803e3d6000fd5b505050506040513d601f19601f8201168201806040525081019061149a9190613652565b73ffffffffffffffffffffffffffffffffffffffff163373ffffffffffffffffffffffffffffffffffffffff1614611507576040517f08c379a00000000000000000000000000000000000000000000000000000000081526004016114fe90613b00565b60405180910390fd5b60008060009054906101000a900473ffffffffffffffffffffffffffffffffffffffff1673ffffffffffffffffffffffffffffffffffffffff166304433bbc6040518163ffffffff1660e01b81526004016115619061392f565b602060405180830381865afa15801561157e573d6000803e3d6000fd5b505050506040513d601f19601f820116820180604052508101906115a29190613652565b905060008173ffffffffffffffffffffffffffffffffffffffff16636c5c281c846040518263ffffffff1660e01b81526004016115df919061395e565b600060405180830381865afa1580156115fc573d6000803e3d6000fd5b505050506040513d6000823e3d601f19601f820116820180604052508101906116259190613b90565b90506000600582604051611639919061375e565b90815260200160405180910390206040518060800160405290816000820160009054906101000a90046bffffffffffffffffffffffff166bffffffffffffffffffffffff166bffffffffffffffffffffffff1681526020016001820180546116a0906137a4565b80601f01602080910402602001604051908101604052809291908181526020018280546116cc906137a4565b80156117195780601f106116ee57610100808354040283529160200191611719565b820191906000526020600020905b8154815290600101906020018083116116fc57829003601f168201915b50505050508152602001600282018054611732906137a4565b80601f016020809104026020016040519081016040528092919081815260200182805461175e906137a4565b80156117ab5780601f10611780576101008083540402835291602001916117ab565b820191906000526020600020905b81548152906001019060200180831161178e57829003601f168201915b505050505081526020016003820180546117c4906137a4565b80601f01602080910402602001604051908101604052809291908181526020018280546117f0906137a4565b801561183d5780601f106118125761010080835404028352916020019161183d565b820191906000526020600020905b81548152906001019060200180831161182057829003601f168201915b50505050508152505090506118dc60028054611858906137a4565b80601f0160208091040260200160405190810160405280929190818152602001828054611884906137a4565b80156118d15780601f106118a6576101008083540402835291602001916118d1565b820191906000526020600020905b8154815290600101906020018083116118b457829003601f168201915b5050505050836128d7565b80156119785750611977600380546118f3906137a4565b80601f016020809104026020016040519081016040528092919081815260200182805461191f906137a4565b801561196c5780601f106119415761010080835404028352916020019161196c565b820191906000526020600020905b81548152906001019060200180831161194f57829003601f168201915b5050505050836128d7565b5b15611aa857611a106001805461198d906137a4565b80601f01602080910402602001604051908101604052809291908181526020018280546119b9906137a4565b8015611a065780601f106119db57610100808354040283529160200191611a06565b820191906000526020600020905b8154815290600101906020018083116119e957829003601f168201915b5050505050612920565b611aa360018054611a20906137a4565b80601f0160208091040260200160405190810160405280929190818152602001828054611a4c906137a4565b8015611a995780601f10611a6e57610100808354040283529160200191611a99565b820191906000526020600020905b815481529060010190602001808311611a7c57829003601f168201915b505050505061293a565b611c8b565b611b3c60028054611ab8906137a4565b80601f0160208091040260200160405190810160405280929190818152602001828054611ae4906137a4565b8015611b315780601f10611b0657610100808354040283529160200191611b31565b820191906000526020600020905b815481529060010190602001808311611b1457829003601f168201915b5050505050836128d7565b15611b8f57611b4e8160600151612920565b600160056002604051611b619190613869565b9081526020016040518091039020600201908054611b7e906137a4565b611b89929190612ec2565b50611c8a565b611c2360038054611b9f906137a4565b80601f0160208091040260200160405190810160405280929190818152602001828054611bcb906137a4565b8015611c185780601f10611bed57610100808354040283529160200191611c18565b820191906000526020600020905b815481529060010190602001808311611bfb57829003601f168201915b5050505050836128d7565b15611c7657611c35816040015161293a565b600160056003604051611c489190613869565b9081526020016040518091039020600301908054611c65906137a4565b611c70929190612ec2565b50611c89565b611c8881604001518260600151612954565b5b5b5b600582604051611c9b919061375e565b9081526020016040518091039020600080820160006101000a8154906bffffffffffffffffffffffff0219169055600182016000611cd99190612f4f565b600282016000611ce99190612f4f565b600382016000611cf99190612f4f565b50506001600460008282829054906101000a900461ffff16611d1b91906138af565b92506101000a81548161ffff021916908361ffff160217905550836bffffffffffffffffffffffff167f43570cb1c3f63cf79e837bd57bb9c02a727142a75728490ecc1eb015431655eb83604051611d73919061329a565b60405180910390a250505050565b60028054611d8e906137a4565b80601f0160208091040260200160405190810160405280929190818152602001828054611dba906137a4565b8015611e075780601f10611ddc57610100808354040283529160200191611e07565b820191906000526020600020905b815481529060010190602001808311611dea57829003601f168201915b505050505081565b60008054906101000a900473ffffffffffffffffffffffffffffffffffffffff1673ffffffffffffffffffffffffffffffffffffffff166304433bbc6040518163ffffffff1660e01b8152600401611e6690613a6e565b602060405180830381865afa158015611e83573d6000803e3d6000fd5b505050506040513d601f19601f82011682018060405250810190611ea79190613652565b73ffffffffffffffffffffffffffffffffffffffff163373ffffffffffffffffffffffffffffffffffffffff1614611f14576040517f08c379a0000000000000000000000000000000000000000000000000000000008152600401611f0b90613b00565b60405180910390fd5b611f1d816129c4565b60008060009054906101000a900473ffffffffffffffffffffffffffffffffffffffff1673ffffffffffffffffffffffffffffffffffffffff166304433bbc6040518163ffffffff1660e01b8152600401611f779061392f565b602060405180830381865afa158015611f94573d6000803e3d6000fd5b505050506040513d601f19601f82011682018060405250810190611fb89190613652565b905060008173ffffffffffffffffffffffffffffffffffffffff16636c5c281c846040518263ffffffff1660e01b8152600401611ff5919061395e565b600060405180830381865afa158015612012573d6000803e3d6000fd5b505050506040513d6000823e3d601f19601f8201168201806040525081019061203b9190613b90565b905061215b6003805461204d906137a4565b80601f0160208091040260200160405190810160405280929190818152602001828054612079906137a4565b80156120c65780601f1061209b576101008083540402835291602001916120c6565b820191906000526020600020905b8154815290600101906020018083116120a957829003601f168201915b5050505050600180546120d8906137a4565b80601f0160208091040260200160405190810160405280929190818152602001828054612104906137a4565b80156121515780601f1061212657610100808354040283529160200191612151565b820191906000526020600020905b81548152906001019060200180831161213457829003601f168201915b50505050506128d7565b6121f4576121f36003805461216f906137a4565b80601f016020809104026020016040519081016040528092919081815260200182805461219b906137a4565b80156121e85780601f106121bd576101008083540402835291602001916121e8565b820191906000526020600020905b8154815290600101906020018083116121cb57829003601f168201915b505050505082612954565b5b6121fd8161293a565b61231b6002805461220d906137a4565b80601f0160208091040260200160405190810160405280929190818152602001828054612239906137a4565b80156122865780601f1061225b57610100808354040283529160200191612286565b820191906000526020600020905b81548152906001019060200180831161226957829003601f168201915b505050505060018054612298906137a4565b80601f01602080910402602001604051908101604052809291908181526020018280546122c4906137a4565b80156123115780601f106122e657610100808354040283529160200191612311565b820191906000526020600020905b8154815290600101906020018083116122f457829003601f168201915b50505050506128d7565b1561232a5761232981612920565b5b6001600460008282829054906101000a900461ffff1661234a91906139ea565b92506101000a81548161ffff021916908361ffff160217905550505050565b600460009054906101000a900461ffff1681565b60008054906101000a900473ffffffffffffffffffffffffffffffffffffffff1673ffffffffffffffffffffffffffffffffffffffff166304433bbc6040518163ffffffff1660e01b81526004016123d490613a6e565b602060405180830381865afa1580156123f1573d6000803e3d6000fd5b505050506040513d601f19601f820116820180604052508101906124159190613652565b73ffffffffffffffffffffffffffffffffffffffff163373ffffffffffffffffffffffffffffffffffffffff1614612482576040517f08c379a000000000000000000000000000000000000000000000000000000000815260040161247990613b00565b60405180910390fd5b61248b816129c4565b60008060009054906101000a900473ffffffffffffffffffffffffffffffffffffffff1673ffffffffffffffffffffffffffffffffffffffff166304433bbc6040518163ffffffff1660e01b81526004016124e59061392f565b602060405180830381865afa158015612502573d6000803e3d6000fd5b505050506040513d601f19601f820116820180604052508101906125269190613652565b905060008173ffffffffffffffffffffffffffffffffffffffff16636c5c281c846040518263ffffffff1660e01b8152600401612563919061395e565b600060405180830381865afa158015612580573d6000803e3d6000fd5b505050506040513d6000823e3d601f19601f820116820180604052508101906125a99190613b90565b90506126c9600280546125bb906137a4565b80601f01602080910402602001604051908101604052809291908181526020018280546125e7906137a4565b80156126345780601f1061260957610100808354040283529160200191612634565b820191906000526020600020905b81548152906001019060200180831161261757829003601f168201915b505050505060018054612646906137a4565b80601f0160208091040260200160405190810160405280929190818152602001828054612672906137a4565b80156126bf5780601f10612694576101008083540402835291602001916126bf565b820191906000526020600020905b8154815290600101906020018083116126a257829003601f168201915b50505050506128d7565b6127625761276181600280546126de906137a4565b80601f016020809104026020016040519081016040528092919081815260200182805461270a906137a4565b80156127575780601f1061272c57610100808354040283529160200191612757565b820191906000526020600020905b81548152906001019060200180831161273a57829003601f168201915b5050505050612954565b5b61276b81612920565b6128896003805461277b906137a4565b80601f01602080910402602001604051908101604052809291908181526020018280546127a7906137a4565b80156127f45780601f106127c9576101008083540402835291602001916127f4565b820191906000526020600020905b8154815290600101906020018083116127d757829003601f168201915b505050505060018054612806906137a4565b80601f0160208091040260200160405190810160405280929190818152602001828054612832906137a4565b801561287f5780601f106128545761010080835404028352916020019161287f565b820191906000526020600020905b81548152906001019060200180831161286257829003601f168201915b50505050506128d7565b15612898576128978161293a565b5b6001600460008282829054906101000a900461ffff166128b891906139ea565b92506101000a81548161ffff021916908361ffff160217905550505050565b60006006826040516128e9919061375e565b908152602001604051809103902054600684604051612908919061375e565b90815260200160405180910390205414905092915050565b8060029080519060200190612936929190612fcc565b5050565b8060039080519060200190612950929190612fcc565b5050565b80600583604051612965919061375e565b90815260200160405180910390206003019080519060200190612989929190612fcc565b508160058260405161299b919061375e565b908152602001604051809103902060020190805190602001906129bf929190612fcc565b505050565b60008060009054906101000a900473ffffffffffffffffffffffffffffffffffffffff1673ffffffffffffffffffffffffffffffffffffffff166304433bbc6040518163ffffffff1660e01b8152600401612a1e9061392f565b602060405180830381865afa158015612a3b573d6000803e3d6000fd5b505050506040513d601f19601f82011682018060405250810190612a5f9190613652565b905060008173ffffffffffffffffffffffffffffffffffffffff16636c5c281c846040518263ffffffff1660e01b8152600401612a9c919061395e565b600060405180830381865afa158015612ab9573d6000803e3d6000fd5b505050506040513d6000823e3d601f19601f82011682018060405250810190612ae29190613b90565b905060008273ffffffffffffffffffffffffffffffffffffffff1663e2bd16bd8560006040518363ffffffff1660e01b8152600401612b22929190613c21565b602060405180830381865afa158015612b3f573d6000803e3d6000fd5b505050506040513d601f19601f82011682018060405250810190612b639190613c80565b905060006040518060800160405280866bffffffffffffffffffffffff16815260200184815260200160018054612b99906137a4565b80601f0160208091040260200160405190810160405280929190818152602001828054612bc5906137a4565b8015612c125780601f10612be757610100808354040283529160200191612c12565b820191906000526020600020905b815481529060010190602001808311612bf557829003601f168201915b5050505050815260200160018054612c29906137a4565b80601f0160208091040260200160405190810160405280929190818152602001828054612c55906137a4565b8015612ca25780601f10612c7757610100808354040283529160200191612ca2565b820191906000526020600020905b815481529060010190602001808311612c8557829003601f168201915b5050505050815250905080600584604051612cbd919061375e565b908152602001604051809103902060008201518160000160006101000a8154816bffffffffffffffffffffffff02191690836bffffffffffffffffffffffff1602179055506020820151816001019080519060200190612d1e929190612fcc565b506040820151816002019080519060200190612d3b929190612fcc565b506060820151816003019080519060200190612d58929190612fcc565b5090505081600684604051612d6d919061375e565b908152602001604051809103902081905550846bffffffffffffffffffffffff167ff90ec14cbfaed489dba4e58a1ff687b1235df546f2850d7bdb9715a100324665848673ffffffffffffffffffffffffffffffffffffffff166350f0f408896040518263ffffffff1660e01b8152600401612de9919061395e565b602060405180830381865afa158015612e06573d6000803e3d6000fd5b505050506040513d601f19601f82011682018060405250810190612e2a919061398e565b8773ffffffffffffffffffffffffffffffffffffffff16631860bd8e8a6040518263ffffffff1660e01b8152600401612e63919061395e565b602060405180830381865afa158015612e80573d6000803e3d6000fd5b505050506040513d601f19601f82011682018060405250810190612ea4919061398e565b604051612eb393929190613cad565b60405180910390a25050505050565b828054612ece906137a4565b90600052602060002090601f016020900481019282612ef05760008555612f3e565b82601f10612f015780548555612f3e565b82800160010185558215612f3e57600052602060002091601f016020900482015b82811115612f3d578254825591600101919060010190612f22565b5b509050612f4b9190613052565b5090565b508054612f5b906137a4565b6000825580601f10612f6d5750612f8c565b601f016020900490600052602060002090810190612f8b9190613052565b5b50565b60405180606001604052806060815260200160006bffffffffffffffffffffffff16815260200160006bffffffffffffffffffffffff1681525090565b828054612fd8906137a4565b90600052602060002090601f016020900481019282612ffa5760008555613041565b82601f1061301357805160ff1916838001178555613041565b82800160010185558215613041579182015b82811115613040578251825591602001919060010190613025565b5b50905061304e9190613052565b5090565b5b8082111561306b576000816000905550600101613053565b5090565b6000604051905090565b600080fd5b600080fd5b600080fd5b600080fd5b6000601f19601f8301169050919050565b7f4e487b7100000000000000000000000000000000000000000000000000000000600052604160045260246000fd5b6130d68261308d565b810181811067ffffffffffffffff821117156130f5576130f461309e565b5b80604052505050565b600061310861306f565b905061311482826130cd565b919050565b600067ffffffffffffffff8211156131345761313361309e565b5b61313d8261308d565b9050602081019050919050565b82818337600083830152505050565b600061316c61316784613119565b6130fe565b90508281526020810184848401111561318857613187613088565b5b61319384828561314a565b509392505050565b600082601f8301126131b0576131af613083565b5b81356131c0848260208601613159565b91505092915050565b6000602082840312156131df576131de613079565b5b600082013567ffffffffffffffff8111156131fd576131fc61307e565b5b6132098482850161319b565b91505092915050565b600081519050919050565b600082825260208201905092915050565b60005b8381101561324c578082015181840152602081019050613231565b8381111561325b576000848401525b50505050565b600061326c82613212565b613276818561321d565b935061328681856020860161322e565b61328f8161308d565b840191505092915050565b600060208201905081810360008301526132b48184613261565b905092915050565b600061ffff82169050919050565b6132d3816132bc565b81146132de57600080fd5b50565b6000813590506132f0816132ca565b92915050565b6000806040838503121561330d5761330c613079565b5b600083013567ffffffffffffffff81111561332b5761332a61307e565b5b6133378582860161319b565b9250506020613348858286016132e1565b9150509250929050565b600081519050919050565b600082825260208201905092915050565b6000819050602082019050919050565b600082825260208201905092915050565b600061339a82613212565b6133a4818561337e565b93506133b481856020860161322e565b6133bd8161308d565b840191505092915050565b60006bffffffffffffffffffffffff82169050919050565b6133e9816133c8565b82525050565b6000606083016000830151848203600086015261340c828261338f565b915050602083015161342160208601826133e0565b50604083015161343460408601826133e0565b508091505092915050565b600061344b83836133ef565b905092915050565b6000602082019050919050565b600061346b82613352565b613475818561335d565b9350836020820285016134878561336e565b8060005b858110156134c357848403895281516134a4858261343f565b94506134af83613453565b925060208a0199505060018101905061348b565b50829750879550505050505092915050565b600060208201905081810360008301526134ef8184613460565b905092915050565b600073ffffffffffffffffffffffffffffffffffffffff82169050919050565b6000819050919050565b600061353c613537613532846134f7565b613517565b6134f7565b9050919050565b600061354e82613521565b9050919050565b600061356082613543565b9050919050565b61357081613555565b82525050565b600060208201905061358b6000830184613567565b92915050565b61359a816133c8565b81146135a557600080fd5b50565b6000813590506135b781613591565b92915050565b6000602082840312156135d3576135d2613079565b5b60006135e1848285016135a8565b91505092915050565b6135f3816132bc565b82525050565b600060208201905061360e60008301846135ea565b92915050565b600061361f826134f7565b9050919050565b61362f81613614565b811461363a57600080fd5b50565b60008151905061364c81613626565b92915050565b60006020828403121561366857613667613079565b5b60006136768482850161363d565b91505092915050565b600082825260208201905092915050565b7f46756e6374696f6e2063616e206f6e6c792062652063616c6c6564206279206860008201527f7562206f776e6572210000000000000000000000000000000000000000000000602082015250565b60006136ec60298361367f565b91506136f782613690565b604082019050919050565b6000602082019050818103600083015261371b816136df565b9050919050565b600081905092915050565b600061373882613212565b6137428185613722565b935061375281856020860161322e565b80840191505092915050565b600061376a828461372d565b915081905092915050565b7f4e487b7100000000000000000000000000000000000000000000000000000000600052602260045260246000fd5b600060028204905060018216806137bc57607f821691505b6020821081036137cf576137ce613775565b5b50919050565b60008190508160005260206000209050919050565b600081546137f7816137a4565b6138018186613722565b9450600182166000811461381c576001811461382d57613860565b60ff19831686528186019350613860565b613836856137d5565b60005b8381101561385857815481890152600182019150602081019050613839565b838801955050505b50505092915050565b600061387582846137ea565b915081905092915050565b7f4e487b7100000000000000000000000000000000000000000000000000000000600052601160045260246000fd5b60006138ba826132bc565b91506138c5836132bc565b9250828210156138d8576138d7613880565b5b828203905092915050565b7f50726f66696c6553746f72616765000000000000000000000000000000000000600082015250565b6000613919600e8361367f565b9150613924826138e3565b602082019050919050565b600060208201905081810360008301526139488161390c565b9050919050565b613958816133c8565b82525050565b6000602082019050613973600083018461394f565b92915050565b60008151905061398881613591565b92915050565b6000602082840312156139a4576139a3613079565b5b60006139b284828501613979565b91505092915050565b7f4e487b7100000000000000000000000000000000000000000000000000000000600052603260045260246000fd5b60006139f5826132bc565b9150613a00836132bc565b92508261ffff03821115613a1757613a16613880565b5b828201905092915050565b7f50726f66696c6500000000000000000000000000000000000000000000000000600082015250565b6000613a5860078361367f565b9150613a6382613a22565b602082019050919050565b60006020820190508181036000830152613a8781613a4b565b9050919050565b7f46756e6374696f6e2063616e206f6e6c792062652063616c6c6564206279205060008201527f726f66696c6520636f6e74726163742100000000000000000000000000000000602082015250565b6000613aea60308361367f565b9150613af582613a8e565b604082019050919050565b60006020820190508181036000830152613b1981613add565b9050919050565b6000613b33613b2e84613119565b6130fe565b905082815260208101848484011115613b4f57613b4e613088565b5b613b5a84828561322e565b509392505050565b600082601f830112613b7757613b76613083565b5b8151613b87848260208601613b20565b91505092915050565b600060208284031215613ba657613ba5613079565b5b600082015167ffffffffffffffff811115613bc457613bc361307e565b5b613bd084828501613b62565b91505092915050565b6000819050919050565b600060ff82169050919050565b6000613c0b613c06613c0184613bd9565b613517565b613be3565b9050919050565b613c1b81613bf0565b82525050565b6000604082019050613c36600083018561394f565b613c436020830184613c12565b9392505050565b6000819050919050565b613c5d81613c4a565b8114613c6857600080fd5b50565b600081519050613c7a81613c54565b92915050565b600060208284031215613c9657613c95613079565b5b6000613ca484828501613c6b565b91505092915050565b60006060820190508181036000830152613cc78186613261565b9050613cd6602083018561394f565b613ce3604083018461394f565b94935050505056fea2646970667358221220d3d0fcc6ccc844dee187362e740ad6174e444733513e69d2343810fb1d7f7d2364736f6c634300080e0033",
  "immutableReferences": {},
  "source": "// SPDX-License-Identifier: MIT\n\npragma solidity^0.8.0;\n\nimport {Hub} from './Hub.sol';\nimport {ProfileStorage} from './storage/ProfileStorage.sol';\n\ncontract ShardingTable {\n    event NodeObjCreated(uint96 indexed identityId, bytes nodeId, uint96 ask, uint96 stake);\n    event NodeRemoved(uint96 indexed identityId, bytes nodeId);\n    event NodeRemovedByHubOwner(bytes nodeId);\n\n    struct Node {\n        uint96 identityId;\n        bytes id;\n        bytes prevNodeId;\n        bytes nextNodeId;\n    }\n\n    struct NodeInfo {\n        bytes id;\n        uint96 ask;\n        uint96 stake;\n    }\n\n    Hub public hub;\n\n    bytes private emptyPointer;\n    bytes public head;\n    bytes public tail;\n    uint16 public nodesCount;\n\n    mapping(bytes => Node) nodes;\n    mapping(bytes => bytes32) nodeIdsSha256;\n\n    constructor(address hubAddress) {\n        require(hubAddress != address(0));\n        hub = Hub(hubAddress);\n\n        emptyPointer = \"\";\n        nodeIdsSha256[emptyPointer] = sha256(emptyPointer);\n        head = emptyPointer;\n        tail = emptyPointer;\n        nodesCount = 0;\n    }\n\n    modifier onlyProfile() {\n        require(msg.sender == hub.getContractAddress(\"Profile\"),\n        \"Function can only be called by Profile contract!\");\n        _;\n    }\n\n    modifier onlyHubOwner() {\n        require (\n            msg.sender == hub.owner(),\n            \"Function can only be called by hub owner!\"\n        );\n        _;\n    }\n\n    function getShardingTable(bytes memory startingNodeId, uint16 nodesNumber)\n        public\n        view\n        returns (NodeInfo[] memory)\n    {\n        require(\n            !_equalIdHashes(nodes[startingNodeId].id, \"\") ||\n            _equalIdHashes(startingNodeId, emptyPointer)\n        );\n\n        NodeInfo[] memory nodesPage;\n\n        if (nodesCount == 0) {\n            return nodesPage;\n        }\n\n        nodesPage = new NodeInfo[](nodesNumber);\n\n        ProfileStorage profileStorage = ProfileStorage(hub.getContractAddress(\"ProfileStorage\"));\n\n        nodesPage[0] = NodeInfo(\n            startingNodeId,\n            profileStorage.getAsk(nodes[startingNodeId].identityId),\n            profileStorage.getStake(nodes[startingNodeId].identityId)\n        );\n\n        uint16 i = 1;\n        while (i < nodesNumber && !_equalIdHashes(nodes[nodesPage[i-1].id].nextNodeId, emptyPointer)) {\n            bytes memory nextNodeId = nodes[nodesPage[i-1].id].nextNodeId;\n\n            nodesPage[i] = NodeInfo(\n                nextNodeId,\n                profileStorage.getAsk(nodes[nextNodeId].identityId),\n                profileStorage.getStake(nodes[nextNodeId].identityId)\n            );\n            i += 1;\n        }\n        return nodesPage;\n    }\n\n    function getShardingTable()\n        public\n        view\n        returns (NodeInfo[] memory)\n    {\n        return getShardingTable(head, nodesCount);\n    }\n\n    function pushBack(uint96 identityId)\n        public\n        onlyProfile\n    {        \n        _createNodeObj(identityId);\n\n        ProfileStorage profileStorage = ProfileStorage(hub.getContractAddress(\"ProfileStorage\"));\n        bytes memory nodeId = profileStorage.getNodeId(identityId);\n\n        if (!_equalIdHashes(tail, emptyPointer)) _link(tail, nodeId);\n        _setTail(nodeId);\n\n        if (_equalIdHashes(head, emptyPointer)) _setHead(nodeId);\n\n        nodesCount += 1;\n    }\n\n    function pushFront(uint96 identityId)\n        public\n        onlyProfile\n    {\n        _createNodeObj(identityId);\n\n        ProfileStorage profileStorage = ProfileStorage(hub.getContractAddress(\"ProfileStorage\"));\n        bytes memory nodeId = profileStorage.getNodeId(identityId);\n\n        if (!_equalIdHashes(head, emptyPointer)) _link(nodeId, head);\n        _setHead(nodeId);\n\n        if (_equalIdHashes(tail, emptyPointer)) _setTail(nodeId);\n\n        nodesCount += 1;\n    }\n\n    function removeNode(uint96 identityId)\n        public\n        onlyProfile\n    {\n        ProfileStorage profileStorage = ProfileStorage(hub.getContractAddress(\"ProfileStorage\"));\n        bytes memory nodeId = profileStorage.getNodeId(identityId);\n\n        Node memory nodeToRemove = nodes[nodeId];\n\n        if (_equalIdHashes(head, nodeId) && _equalIdHashes(tail, nodeId)) {\n            _setHead(emptyPointer);\n            _setTail(emptyPointer);\n        }\n        else if (_equalIdHashes(head, nodeId)) {\n            _setHead(nodeToRemove.nextNodeId);\n            nodes[head].prevNodeId = emptyPointer;\n        }\n        else if (_equalIdHashes(tail, nodeId)) {\n            _setTail(nodeToRemove.prevNodeId);\n            nodes[tail].nextNodeId = emptyPointer;\n        }\n        else {\n            _link(nodeToRemove.prevNodeId, nodeToRemove.nextNodeId);\n        }\n\n        delete nodes[nodeId];\n\n        nodesCount -= 1;\n    \n        emit NodeRemoved(identityId, nodeId);\n    }\n\n    function removeNodeById(bytes memory nodeId)\n        public\n        onlyHubOwner\n    {\n        Node memory nodeToRemove = nodes[nodeId];\n\n        if (_equalIdHashes(head, nodeId) && _equalIdHashes(tail, nodeId)) {\n            _setHead(emptyPointer);\n            _setTail(emptyPointer);\n        }\n        else if (_equalIdHashes(head, nodeId)) {\n            _setHead(nodeToRemove.nextNodeId);\n            nodes[head].prevNodeId = emptyPointer;\n        }\n        else if (_equalIdHashes(tail, nodeId)) {\n            _setTail(nodeToRemove.prevNodeId);\n            nodes[tail].nextNodeId = emptyPointer;\n        }\n        else {\n            _link(nodeToRemove.prevNodeId, nodeToRemove.nextNodeId);\n        }\n\n        delete nodes[nodeId];\n\n        nodesCount -= 1;\n    \n        emit NodeRemovedByHubOwner(nodeId);\n    }\n\n    function _createNodeObj(uint96 identityId)\n        internal\n    {\n        ProfileStorage profileStorage = ProfileStorage(hub.getContractAddress(\"ProfileStorage\"));\n\n        bytes memory nodeId = profileStorage.getNodeId(identityId);\n        bytes32 nodeIdSha256 = profileStorage.getNodeAddress(identityId, 0);  // 0 - sha256\n\n        Node memory newNode = Node(\n            identityId,\n            nodeId,\n            emptyPointer,\n            emptyPointer\n        );\n\n        nodes[nodeId] = newNode;\n        nodeIdsSha256[nodeId] = nodeIdSha256;\n\n        emit NodeObjCreated(identityId, nodeId, profileStorage.getAsk(identityId), profileStorage.getStake(identityId));\n    }\n\n    function _setHead(bytes memory nodeId)\n        internal\n    {\n        head = nodeId;\n    }\n\n    function _setTail(bytes memory nodeId)\n        internal\n    {\n        tail = nodeId;\n    }\n\n    function _link(bytes memory _leftNodeId, bytes memory _rightNodeId)\n        internal\n    {\n        nodes[_leftNodeId].nextNodeId = _rightNodeId;\n        nodes[_rightNodeId].prevNodeId = _leftNodeId;\n    }\n\n    function _equalIdHashes(bytes memory _firstId, bytes memory _secondId)\n        internal\n        view\n        returns (bool)\n    {\n        return nodeIdsSha256[_firstId] == nodeIdsSha256[_secondId];\n    }\n}\n",
  "sourcePath": "/Users/waving/Desktop/OriginTrail/dkg-evm-module/contracts/ShardingTable.sol",
  "compiler": {
    "name": "solc",
    "version": "0.8.14+commit.80d49f37.Emscripten.clang"
  },
  "schemaVersion": "3.4.10",
  "updatedAt": "2022-11-17T12:48:33.199Z",
  "devdoc": {
    "kind": "dev",
    "methods": {},
    "version": 1
  },
  "userdoc": {
    "kind": "user",
    "methods": {},
    "version": 1
  }
}