{
  "contractName": "ShardingTable",
  "abi": [
    {
      "inputs": [
        {
          "internalType": "address",
          "name": "hubAddress",
          "type": "address"
        }
      ],
      "stateMutability": "nonpayable",
      "type": "constructor"
    },
    {
      "anonymous": false,
      "inputs": [
        {
          "indexed": true,
          "internalType": "uint72",
          "name": "identityId",
          "type": "uint72"
        },
        {
          "indexed": false,
          "internalType": "bytes",
          "name": "nodeId",
          "type": "bytes"
        },
        {
          "indexed": false,
          "internalType": "uint96",
          "name": "ask",
          "type": "uint96"
        },
        {
          "indexed": false,
          "internalType": "uint96",
          "name": "stake",
          "type": "uint96"
        }
      ],
      "name": "NodeAdded",
      "type": "event"
    },
    {
      "anonymous": false,
      "inputs": [
        {
          "indexed": true,
          "internalType": "uint72",
          "name": "identityId",
          "type": "uint72"
        },
        {
          "indexed": false,
          "internalType": "bytes",
          "name": "nodeId",
          "type": "bytes"
        }
      ],
      "name": "NodeRemoved",
      "type": "event"
    },
    {
      "inputs": [],
      "name": "hub",
      "outputs": [
        {
          "internalType": "contract Hub",
          "name": "",
          "type": "address"
        }
      ],
      "stateMutability": "view",
      "type": "function"
    },
    {
      "inputs": [],
      "name": "profileStorage",
      "outputs": [
        {
          "internalType": "contract ProfileStorage",
          "name": "",
          "type": "address"
        }
      ],
      "stateMutability": "view",
      "type": "function"
    },
    {
      "inputs": [],
      "name": "shardingTableStorage",
      "outputs": [
        {
          "internalType": "contract ShardingTableStorage",
          "name": "",
          "type": "address"
        }
      ],
      "stateMutability": "view",
      "type": "function"
    },
    {
      "inputs": [],
      "name": "stakingStorage",
      "outputs": [
        {
          "internalType": "contract StakingStorage",
          "name": "",
          "type": "address"
        }
      ],
      "stateMutability": "view",
      "type": "function"
    },
    {
      "inputs": [],
      "name": "initialize",
      "outputs": [],
      "stateMutability": "nonpayable",
      "type": "function"
    },
    {
      "inputs": [],
      "name": "name",
      "outputs": [
        {
          "internalType": "string",
          "name": "",
          "type": "string"
        }
      ],
      "stateMutability": "pure",
      "type": "function"
    },
    {
      "inputs": [],
      "name": "version",
      "outputs": [
        {
          "internalType": "string",
          "name": "",
          "type": "string"
        }
      ],
      "stateMutability": "pure",
      "type": "function"
    },
    {
      "inputs": [],
      "name": "getShardingTable",
      "outputs": [
        {
          "components": [
            {
              "internalType": "bytes",
              "name": "nodeId",
              "type": "bytes"
            },
            {
              "internalType": "uint72",
              "name": "identityId",
              "type": "uint72"
            },
            {
              "internalType": "uint96",
              "name": "ask",
              "type": "uint96"
            },
            {
              "internalType": "uint96",
              "name": "stake",
              "type": "uint96"
            }
          ],
          "internalType": "struct ShardingTableStructs.NodeInfo[]",
          "name": "",
          "type": "tuple[]"
        }
      ],
      "stateMutability": "view",
      "type": "function"
    },
    {
      "inputs": [
        {
          "internalType": "uint72",
          "name": "startingIdentityId",
          "type": "uint72"
        },
        {
          "internalType": "uint72",
          "name": "nodesNumber",
          "type": "uint72"
        }
      ],
      "name": "getShardingTable",
      "outputs": [
        {
          "components": [
            {
              "internalType": "bytes",
              "name": "nodeId",
              "type": "bytes"
            },
            {
              "internalType": "uint72",
              "name": "identityId",
              "type": "uint72"
            },
            {
              "internalType": "uint96",
              "name": "ask",
              "type": "uint96"
            },
            {
              "internalType": "uint96",
              "name": "stake",
              "type": "uint96"
            }
          ],
          "internalType": "struct ShardingTableStructs.NodeInfo[]",
          "name": "",
          "type": "tuple[]"
        }
      ],
      "stateMutability": "view",
      "type": "function"
    },
    {
      "inputs": [
        {
          "internalType": "uint72",
          "name": "identityId",
          "type": "uint72"
        }
      ],
      "name": "pushBack",
      "outputs": [],
      "stateMutability": "nonpayable",
      "type": "function"
    },
    {
      "inputs": [
        {
          "internalType": "uint72",
          "name": "identityId",
          "type": "uint72"
        }
      ],
      "name": "pushFront",
      "outputs": [],
      "stateMutability": "nonpayable",
      "type": "function"
    },
    {
      "inputs": [
        {
          "internalType": "uint72",
          "name": "identityId",
          "type": "uint72"
        }
      ],
      "name": "removeNode",
      "outputs": [],
      "stateMutability": "nonpayable",
      "type": "function"
    }
  ],
  "bytecode": "0x60806040523480156200001157600080fd5b50604051620022f5380380620022f583398101604081905262000034916200035e565b6001600160a01b0381166200004857600080fd5b600080546001600160a01b0319166001600160a01b0383161790556200006d62000074565b5062000390565b6200007e6200027f565b600054604051630110ceef60e21b815260206004820152600e60248201526d50726f66696c6553746f7261676560901b60448201526001600160a01b03909116906304433bbc90606401602060405180830381865afa158015620000e6573d6000803e3d6000fd5b505050506040513d601f19601f820116820180604052508101906200010c91906200035e565b600180546001600160a01b0319166001600160a01b03928316179055600054604051630110ceef60e21b815260206004820152601460248201527f5368617264696e675461626c6553746f7261676500000000000000000000000060448201529116906304433bbc90606401602060405180830381865afa15801562000196573d6000803e3d6000fd5b505050506040513d601f19601f82011682018060405250810190620001bc91906200035e565b600280546001600160a01b0319166001600160a01b03928316179055600054604051630110ceef60e21b815260206004820152600e60248201526d5374616b696e6753746f7261676560901b60448201529116906304433bbc90606401602060405180830381865afa15801562000237573d6000803e3d6000fd5b505050506040513d601f19601f820116820180604052508101906200025d91906200035e565b600380546001600160a01b0319166001600160a01b0392909216919091179055565b60008054906101000a90046001600160a01b03166001600160a01b0316638da5cb5b6040518163ffffffff1660e01b8152600401602060405180830381865afa158015620002d1573d6000803e3d6000fd5b505050506040513d601f19601f82011682018060405250810190620002f791906200035e565b6001600160a01b0316336001600160a01b0316146200035c5760405162461bcd60e51b815260206004820181905260248201527f466e2063616e206f6e6c79206265207573656420627920687562206f776e6572604482015260640160405180910390fd5b565b6000602082840312156200037157600080fd5b81516001600160a01b03811681146200038957600080fd5b9392505050565b611f5580620003a06000396000f3fe608060405234801561001057600080fd5b50600436106100b45760003560e01c8063823e2bc711610071578063823e2bc71461017257806392b7c87d14610185578063af9c1ec614610198578063b518a00e146101ab578063e5de01f1146101be578063f42cb038146101d157600080fd5b806306fdde03146100b9578063289220c6146100f4578063365a86fc14610109578063415942b11461013457806354fd4d50146101495780638129fc1c1461016a575b600080fd5b60408051808201909152600d81526c5368617264696e675461626c6560981b60208201525b6040516100eb9190611bb9565b60405180910390f35b6100fc6101e4565b6040516100eb9190611bd3565b60005461011c906001600160a01b031681565b6040516001600160a01b0390911681526020016100eb565b610147610142366004611c8b565b6102c0565b005b6040805180820190915260058152640312e302e360dc1b60208201526100de565b610147610858565b60025461011c906001600160a01b031681565b610147610193366004611c8b565b610a4f565b6101476101a6366004611c8b565b610dc4565b60035461011c906001600160a01b031681565b6100fc6101cc366004611ca8565b6113f3565b60015461011c906001600160a01b031681565b60025460408051638f7dcfa360e01b815290516060926001600160a01b0316916102ba918391638f7dcfa39160048083019260209291908290030181865afa158015610234573d6000803e3d6000fd5b505050506040513d601f19601f820116820180604052508101906102589190611ce1565b826001600160a01b031663f1a3c5b36040518163ffffffff1660e01b8152600401602060405180830381865afa158015610296573d6000803e3d6000fd5b505050506040513d601f19601f820116820180604052508101906101cc9190611ce1565b91505090565b6102c86119da565b60015460405163c04d7dcf60e01b81526001600160481b03831660048201526001600160a01b0390911690819063c04d7dcf90602401602060405180830381865afa15801561031b573d6000803e3d6000fd5b505050506040513d601f19601f8201168201806040525081019061033f9190611cfe565b6103645760405162461bcd60e51b815260040161035b90611d20565b60405180910390fd5b600254604051633ea2493560e21b81526001600160481b038416600482015260006024820181905260448201526001600160a01b0390911690819063fa8924d490606401600060405180830381600087803b1580156103c257600080fd5b505af11580156103d6573d6000803e3d6000fd5b5050505060006001600160481b0316816001600160a01b03166313d8c8406040518163ffffffff1660e01b8152600401602060405180830381865afa158015610423573d6000803e3d6000fd5b505050506040513d601f19601f820116820180604052508101906104479190611ce1565b6001600160481b03161461052857806001600160a01b031663283350a5826001600160a01b03166313d8c8406040518163ffffffff1660e01b8152600401602060405180830381865afa1580156104a2573d6000803e3d6000fd5b505050506040513d601f19601f820116820180604052508101906104c69190611ce1565b6040516001600160e01b031960e084901b1681526001600160481b0391821660048201529086166024820152604401600060405180830381600087803b15801561050f57600080fd5b505af1158015610523573d6000803e3d6000fd5b505050505b60405163406def5b60e01b81526001600160481b03841660048201526001600160a01b0382169063406def5b90602401600060405180830381600087803b15801561057257600080fd5b505af1158015610586573d6000803e3d6000fd5b5050505060006001600160481b0316816001600160a01b0316638f7dcfa36040518163ffffffff1660e01b8152600401602060405180830381865afa1580156105d3573d6000803e3d6000fd5b505050506040513d601f19601f820116820180604052508101906105f79190611ce1565b6001600160481b03160361066957604051631bcc8f9560e31b81526001600160481b03841660048201526001600160a01b0382169063de647ca8906024015b600060405180830381600087803b15801561065057600080fd5b505af1158015610664573d6000803e3d6000fd5b505050505b806001600160a01b0316634f3ae9ee6040518163ffffffff1660e01b8152600401600060405180830381600087803b1580156106a457600080fd5b505af11580156106b8573d6000803e3d6000fd5b50506040516320e085cd60e11b81526001600160481b0386166004820181905292507f05eef2d4c7b6f7d090582906c8987ff8d9afdead95f51156c0cda2e82707afc791506001600160a01b038516906341c10b9a90602401600060405180830381865afa15801561072e573d6000803e3d6000fd5b505050506040513d6000823e601f3d908101601f191682016040526107569190810190611d65565b6040516339fb67dd60e01b81526001600160481b03871660048201526001600160a01b038616906339fb67dd90602401602060405180830381865afa1580156107a3573d6000803e3d6000fd5b505050506040513d601f19601f820116820180604052508101906107c79190611e12565b600354604051639d2b48ad60e01b81526001600160481b03891660048201526001600160a01b0390911690639d2b48ad90602401602060405180830381865afa158015610818573d6000803e3d6000fd5b505050506040513d601f19601f8201168201806040525081019061083c9190611e12565b60405161084b93929190611e3b565b60405180910390a2505050565b610860611a94565b600054604051630110ceef60e21b815260206004820152600e60248201526d50726f66696c6553746f7261676560901b60448201526001600160a01b03909116906304433bbc90606401602060405180830381865afa1580156108c7573d6000803e3d6000fd5b505050506040513d601f19601f820116820180604052508101906108eb9190611e6e565b600180546001600160a01b0319166001600160a01b03928316179055600054604051630110ceef60e21b81526020600482015260146024820152735368617264696e675461626c6553746f7261676560601b60448201529116906304433bbc90606401602060405180830381865afa15801561096b573d6000803e3d6000fd5b505050506040513d601f19601f8201168201806040525081019061098f9190611e6e565b600280546001600160a01b0319166001600160a01b03928316179055600054604051630110ceef60e21b815260206004820152600e60248201526d5374616b696e6753746f7261676560901b60448201529116906304433bbc90606401602060405180830381865afa158015610a09573d6000803e3d6000fd5b505050506040513d601f19601f82011682018060405250810190610a2d9190611e6e565b600380546001600160a01b0319166001600160a01b0392909216919091179055565b610a576119da565b60015460405163c04d7dcf60e01b81526001600160481b03831660048201526001600160a01b0390911690819063c04d7dcf90602401602060405180830381865afa158015610aaa573d6000803e3d6000fd5b505050506040513d601f19601f82011682018060405250810190610ace9190611cfe565b610aea5760405162461bcd60e51b815260040161035b90611d20565b600254604051633ea2493560e21b81526001600160481b038416600482015260006024820181905260448201526001600160a01b0390911690819063fa8924d490606401600060405180830381600087803b158015610b4857600080fd5b505af1158015610b5c573d6000803e3d6000fd5b5050505060006001600160481b0316816001600160a01b0316638f7dcfa36040518163ffffffff1660e01b8152600401602060405180830381865afa158015610ba9573d6000803e3d6000fd5b505050506040513d601f19601f82011682018060405250810190610bcd9190611ce1565b6001600160481b031614610cae57806001600160a01b031663283350a584836001600160a01b0316638f7dcfa36040518163ffffffff1660e01b8152600401602060405180830381865afa158015610c29573d6000803e3d6000fd5b505050506040513d601f19601f82011682018060405250810190610c4d9190611ce1565b6040516001600160e01b031960e085901b1681526001600160481b03928316600482015291166024820152604401600060405180830381600087803b158015610c9557600080fd5b505af1158015610ca9573d6000803e3d6000fd5b505050505b600254604051631bcc8f9560e31b81526001600160481b03851660048201526001600160a01b039091169063de647ca890602401600060405180830381600087803b158015610cfc57600080fd5b505af1158015610d10573d6000803e3d6000fd5b5050505060006001600160481b0316816001600160a01b03166313d8c8406040518163ffffffff1660e01b8152600401602060405180830381865afa158015610d5d573d6000803e3d6000fd5b505050506040513d601f19601f82011682018060405250810190610d819190611ce1565b6001600160481b0316036106695760405163406def5b60e01b81526001600160481b03841660048201526001600160a01b0382169063406def5b90602401610636565b610dcc6119da565b60015460405163c04d7dcf60e01b81526001600160481b03831660048201526001600160a01b0390911690819063c04d7dcf90602401602060405180830381865afa158015610e1f573d6000803e3d6000fd5b505050506040513d601f19601f82011682018060405250810190610e439190611cfe565b610e5f5760405162461bcd60e51b815260040161035b90611d20565b60025460405163162929e960e01b81526001600160481b03841660048201526001600160a01b0390911690600090829063162929e990602401606060405180830381865afa158015610eb5573d6000803e3d6000fd5b505050506040513d601f19601f82011682018060405250810190610ed99190611e97565b90506000826001600160a01b0316638f7dcfa36040518163ffffffff1660e01b8152600401602060405180830381865afa158015610f1b573d6000803e3d6000fd5b505050506040513d601f19601f82011682018060405250810190610f3f9190611ce1565b90506000836001600160a01b03166313d8c8406040518163ffffffff1660e01b8152600401602060405180830381865afa158015610f81573d6000803e3d6000fd5b505050506040513d601f19601f82011682018060405250810190610fa59190611ce1565b9050856001600160481b0316826001600160481b0316148015610fd95750856001600160481b0316816001600160481b0316145b1561109857604051631bcc8f9560e31b8152600060048201526001600160a01b0385169063de647ca890602401600060405180830381600087803b15801561102057600080fd5b505af1158015611034573d6000803e3d6000fd5b505060405163406def5b60e01b8152600060048201526001600160a01b038716925063406def5b91506024015b600060405180830381600087803b15801561107b57600080fd5b505af115801561108f573d6000803e3d6000fd5b50505050611287565b856001600160481b0316816001600160481b03160361115557602083015160405163406def5b60e01b81526001600160481b0390911660048201526001600160a01b0385169063406def5b90602401600060405180830381600087803b15801561110157600080fd5b505af1158015611115573d6000803e3d6000fd5b505060405163d0f4c7cf60e01b81526001600160481b0384166004820152600060248201526001600160a01b038716925063d0f4c7cf9150604401611061565b856001600160481b0316826001600160481b031603611212576040838101519051631bcc8f9560e31b81526001600160481b0390911660048201526001600160a01b0385169063de647ca890602401600060405180830381600087803b1580156111be57600080fd5b505af11580156111d2573d6000803e3d6000fd5b50506040516335ab940760e11b81526001600160481b0385166004820152600060248201526001600160a01b0387169250636b57280e9150604401611061565b6020830151604080850151905163283350a560e01b81526001600160481b039283166004820152911660248201526001600160a01b0385169063283350a590604401600060405180830381600087803b15801561126e57600080fd5b505af1158015611282573d6000803e3d6000fd5b505050505b6040516357ce0f6360e11b81526001600160481b03871660048201526001600160a01b0385169063af9c1ec690602401600060405180830381600087803b1580156112d157600080fd5b505af11580156112e5573d6000803e3d6000fd5b50505050836001600160a01b031663d9b654636040518163ffffffff1660e01b8152600401600060405180830381600087803b15801561132457600080fd5b505af1158015611338573d6000803e3d6000fd5b50506040516320e085cd60e11b81526001600160481b0389166004820181905292507fef12f3576561c48ba6945e9b712ac4715d1ac62879143672fcd6e3c63a19619c91506001600160a01b038816906341c10b9a90602401600060405180830381865afa1580156113ae573d6000803e3d6000fd5b505050506040513d6000823e601f3d908101601f191682016040526113d69190810190611d65565b6040516113e39190611bb9565b60405180910390a2505050505050565b6002546040805163f1a3c5b360e01b8152905160609283926001600160a01b0390911691829163f1a3c5b39160048083019260209291908290030181865afa158015611443573d6000803e3d6000fd5b505050506040513d601f19601f820116820180604052508101906114679190611ce1565b6001600160481b0316158061148357506001600160481b038416155b15611490575090506119d4565b60405163162929e960e01b81526001600160481b03861660048201526000906001600160a01b0383169063162929e990602401606060405180830381865afa1580156114e0573d6000803e3d6000fd5b505050506040513d601f19601f820116820180604052508101906115049190611e97565b90506001600160481b0386161580611525575080516001600160481b031615155b61152e57600080fd5b846001600160481b031667ffffffffffffffff81111561155057611550611d4f565b6040519080825280602002602001820160405280156115a357816020015b6040805160808101825260608082526000602080840182905293830181905290820152825260001990920191018161156e5790505b506001546003546040805160808101918290526320e085cd60e11b9091526001600160481b038a1660848201529295506001600160a01b039182169291169080836341c10b9a60a48301600060405180830381865afa15801561160a573d6000803e3d6000fd5b505050506040513d6000823e601f3d908101601f191682016040526116329190810190611d65565b81526001600160481b038a811660208301528551604080516339fb67dd60e01b81529190921660048201529101906001600160a01b038516906339fb67dd90602401602060405180830381865afa158015611691573d6000803e3d6000fd5b505050506040513d601f19601f820116820180604052508101906116b59190611e12565b6001600160601b031681528451604051639d2b48ad60e01b81526001600160481b0390911660048201526020909101906001600160a01b03841690639d2b48ad90602401602060405180830381865afa158015611716573d6000803e3d6000fd5b505050506040513d601f19601f8201168201806040525081019061173a9190611e12565b6001600160601b03168152508560008151811061175957611759611f09565b60209081029190910101528760015b886001600160481b0316816001600160481b031610801561179157506001600160481b03821615155b156119ca5760405163162929e960e01b81526001600160481b03831660048201526001600160a01b0387169063162929e990602401606060405180830381865afa1580156117e3573d6000803e3d6000fd5b505050506040513d601f19601f820116820180604052508101906118079190611e97565b604090810151815160808101928390526320e085cd60e11b9092526001600160481b03811660848301529250806001600160a01b0386166341c10b9a60a48301600060405180830381865afa158015611864573d6000803e3d6000fd5b505050506040513d6000823e601f3d908101601f1916820160405261188c9190810190611d65565b81526001600160481b03841660208201819052604080516339fb67dd60e01b81526004810192909252909101906001600160a01b038716906339fb67dd90602401602060405180830381865afa1580156118ea573d6000803e3d6000fd5b505050506040513d601f19601f8201168201806040525081019061190e9190611e12565b6001600160601b03168152604051639d2b48ad60e01b81526001600160481b03851660048201526020909101906001600160a01b03861690639d2b48ad90602401602060405180830381865afa15801561196c573d6000803e3d6000fd5b505050506040513d601f19601f820116820180604052508101906119909190611e12565b6001600160601b031681525087826001600160481b0316815181106119b7576119b7611f09565b6020908102919091010152600101611768565b5094955050505050505b92915050565b600054604051631627905560e01b81523360048201526001600160a01b0390911690631627905590602401602060405180830381865afa158015611a22573d6000803e3d6000fd5b505050506040513d601f19601f82011682018060405250810190611a469190611cfe565b611a925760405162461bcd60e51b815260206004820181905260248201527f466e2063616e206f6e6c792062652063616c6c65642062792074686520687562604482015260640161035b565b565b60008054906101000a90046001600160a01b03166001600160a01b0316638da5cb5b6040518163ffffffff1660e01b8152600401602060405180830381865afa158015611ae5573d6000803e3d6000fd5b505050506040513d601f19601f82011682018060405250810190611b099190611e6e565b6001600160a01b0316336001600160a01b031614611a925760405162461bcd60e51b815260206004820181905260248201527f466e2063616e206f6e6c79206265207573656420627920687562206f776e6572604482015260640161035b565b60005b83811015611b84578181015183820152602001611b6c565b50506000910152565b60008151808452611ba5816020860160208601611b69565b601f01601f19169290920160200192915050565b602081526000611bcc6020830184611b8d565b9392505050565b60006020808301818452808551808352604092508286019150828160051b87010184880160005b83811015611c6557603f19898403018552815160808151818652611c2082870182611b8d565b838b01516001600160481b0316878c0152898401516001600160601b039081168b89015260609485015116939096019290925250509386019390860190600101611bfa565b509098975050505050505050565b6001600160481b0381168114611c8857600080fd5b50565b600060208284031215611c9d57600080fd5b8135611bcc81611c73565b60008060408385031215611cbb57600080fd5b8235611cc681611c73565b91506020830135611cd681611c73565b809150509250929050565b600060208284031215611cf357600080fd5b8151611bcc81611c73565b600060208284031215611d1057600080fd5b81518015158114611bcc57600080fd5b602080825260159082015274141c9bd99a5b1948191bd95cdb89dd08195e1a5cdd605a1b604082015260600190565b634e487b7160e01b600052604160045260246000fd5b600060208284031215611d7757600080fd5b815167ffffffffffffffff80821115611d8f57600080fd5b818401915084601f830112611da357600080fd5b815181811115611db557611db5611d4f565b604051601f8201601f19908116603f01168101908382118183101715611ddd57611ddd611d4f565b81604052828152876020848701011115611df657600080fd5b611e07836020830160208801611b69565b979650505050505050565b600060208284031215611e2457600080fd5b81516001600160601b0381168114611bcc57600080fd5b606081526000611e4e6060830186611b8d565b6001600160601b0394851660208401529290931660409091015292915050565b600060208284031215611e8057600080fd5b81516001600160a01b0381168114611bcc57600080fd5b600060608284031215611ea957600080fd5b6040516060810181811067ffffffffffffffff82111715611ecc57611ecc611d4f565b6040528251611eda81611c73565b81526020830151611eea81611c73565b60208201526040830151611efd81611c73565b60408201529392505050565b634e487b7160e01b600052603260045260246000fdfea26469706673582212202b9bae2a9a8c8b39edf905cd5300f9a110c33767da5636819118b38b3a3a55cb64736f6c63430008100033",
  "immutableReferences": {},
  "source": "// SPDX-License-Identifier: MIT\n\npragma solidity^0.8.0;\n\nimport { Hub } from \"./Hub.sol\";\nimport { IdentityStorage } from \"./storage/IdentityStorage.sol\";\nimport { ProfileStorage } from \"./storage/ProfileStorage.sol\";\nimport { ShardingTableStorage } from \"./storage/ShardingTableStorage.sol\";\nimport { StakingStorage } from \"./storage/StakingStorage.sol\";\nimport { Named } from \"./interface/Named.sol\";\nimport { Versioned } from \"./interface/Versioned.sol\";\nimport { ShardingTableStructs } from \"./structs/ShardingTableStructs.sol\";\nimport { NULL } from \"./constants/ShardingTableConstants.sol\";\n\ncontract ShardingTable is Named, Versioned {\n\n    event NodeAdded(uint72 indexed identityId, bytes nodeId, uint96 ask, uint96 stake);\n    event NodeRemoved(uint72 indexed identityId, bytes nodeId);\n\n    string constant private _NAME = \"ShardingTable\";\n    string constant private _VERSION = \"1.0.0\";\n\n    Hub public hub;\n    ProfileStorage public profileStorage;\n    ShardingTableStorage public shardingTableStorage;\n    StakingStorage public stakingStorage;\n\n    constructor(address hubAddress) {\n        require(hubAddress != address(0));\n\n        hub = Hub(hubAddress);\n        initialize();\n    }\n\n    modifier onlyHubOwner() {\n\t\t_checkHubOwner();\n\t\t_;\n\t}\n\n    modifier onlyContracts() {\n        _checkHub();\n        _;\n    }\n\n    function initialize() public onlyHubOwner {\n\t\tprofileStorage = ProfileStorage(hub.getContractAddress(\"ProfileStorage\"));\n        shardingTableStorage = ShardingTableStorage(hub.getContractAddress(\"ShardingTableStorage\"));\n        stakingStorage = StakingStorage(hub.getContractAddress(\"StakingStorage\"));\n\t}\n\n    function name() external pure virtual override returns (string memory) {\n        return _NAME;\n    }\n\n    function version() external pure virtual override returns (string memory) {\n        return _VERSION;\n    }\n\n    function getShardingTable(uint72 startingIdentityId, uint72 nodesNumber)\n        public\n        view\n        returns (ShardingTableStructs.NodeInfo[] memory)\n    {\n        ShardingTableStructs.NodeInfo[] memory nodesPage;\n        ShardingTableStorage sts = shardingTableStorage;\n\n        if ((sts.nodesCount() == 0) || (nodesNumber == 0)) {\n            return nodesPage;\n        }\n\n        ShardingTableStructs.Node memory startingNode = sts.getNode(startingIdentityId);\n\n        require((startingIdentityId == NULL) || (startingNode.identityId != NULL));\n\n        nodesPage = new ShardingTableStructs.NodeInfo[](nodesNumber);\n\n        ProfileStorage ps = profileStorage;\n        StakingStorage ss = stakingStorage;\n\n        nodesPage[0] = ShardingTableStructs.NodeInfo({\n            nodeId: ps.getNodeId(startingIdentityId),\n            identityId: startingIdentityId,\n            ask: ps.getAsk(startingNode.identityId),\n            stake: ss.totalStakes(startingNode.identityId)\n        });\n\n        uint72 nextIdentityId = startingIdentityId;\n        uint72 i = 1;\n        while ((i < nodesNumber) && (nextIdentityId != NULL)) {\n            nextIdentityId = sts.getNode(nextIdentityId).nextIdentityId;\n\n            nodesPage[i] = ShardingTableStructs.NodeInfo({\n                nodeId: ps.getNodeId(nextIdentityId),\n                identityId: nextIdentityId,\n                ask: ps.getAsk(nextIdentityId),\n                stake: ss.totalStakes(nextIdentityId)\n            });\n\n            unchecked { i += 1; }\n        }\n        return nodesPage;\n    }\n\n    function getShardingTable() external view returns (ShardingTableStructs.NodeInfo[] memory) {\n        ShardingTableStorage sts = shardingTableStorage;\n        return getShardingTable(sts.head(), sts.nodesCount());\n    }\n\n    function pushBack(uint72 identityId) external onlyContracts {\n        ProfileStorage ps = profileStorage;\n        require(ps.profileExists(identityId), \"Profile doesn't exist\");\n\n        ShardingTableStorage sts = shardingTableStorage;\n\n        sts.createNode(identityId, NULL, NULL);\n\n        if (sts.tail() != NULL)\n            sts.link(sts.tail(), identityId);\n\n        sts.setTail(identityId);\n\n        if (sts.head() == NULL)\n            sts.setHead(identityId);\n\n        sts.incrementNodesCount();\n\n        emit NodeAdded(\n            identityId,\n            ps.getNodeId(identityId),\n            ps.getAsk(identityId),\n            stakingStorage.totalStakes(identityId)\n        );\n    }\n\n    function pushFront(uint72 identityId) external onlyContracts {\n        ProfileStorage ps = profileStorage;\n        require(ps.profileExists(identityId), \"Profile doesn't exist\");\n\n        ShardingTableStorage sts = shardingTableStorage;\n\n        sts.createNode(identityId, NULL, NULL);\n\n        if (sts.head() != NULL)\n            sts.link(identityId, sts.head());\n\n        shardingTableStorage.setHead(identityId);\n\n        if (sts.tail() == NULL)\n            sts.setTail(identityId);\n\n        sts.incrementNodesCount();\n\n        emit NodeAdded(\n            identityId,\n            ps.getNodeId(identityId),\n            ps.getAsk(identityId),\n            stakingStorage.totalStakes(identityId)\n        );\n    }\n\n    function removeNode(uint72 identityId) external onlyContracts {\n        ProfileStorage ps = profileStorage;\n        require(ps.profileExists(identityId), \"Profile doesn't exist\");\n\n        ShardingTableStorage sts = shardingTableStorage;\n\n        ShardingTableStructs.Node memory nodeToRemove = sts.getNode(identityId);\n\n        uint72 head = sts.head();\n        uint72 tail = sts.tail();\n\n        if ((head == identityId) && (tail == identityId)) {\n            sts.setHead(NULL);\n            sts.setTail(NULL);\n        } else if (tail == identityId) {\n            sts.setTail(nodeToRemove.prevIdentityId);\n            sts.setNextIdentityId(tail, NULL);\n        } else if (head == identityId) {\n            sts.setHead(nodeToRemove.nextIdentityId);\n            sts.setPrevIdentityId(head, NULL);\n        } else {\n            sts.link(nodeToRemove.prevIdentityId, nodeToRemove.nextIdentityId);\n        }\n\n        sts.removeNode(identityId);\n        sts.decrementNodesCount();\n\n        emit NodeRemoved(identityId, ps.getNodeId(identityId));\n    }\n\n    function _checkHubOwner() internal view virtual {\n\t\trequire(msg.sender == hub.owner(), \"Fn can only be used by hub owner\");\n\t}\n\n    function _checkHub() internal view virtual {\n        require(hub.isContract(msg.sender), \"Fn can only be called by the hub\");\n    }\n\n}\n",
  "sourcePath": "/Users/waving/Desktop/OriginTrail/dkg-evm-module/contracts/ShardingTable.sol",
  "compiler": {
    "name": "solc",
    "version": "0.8.16+commit.07a7930e.Emscripten.clang"
  },
  "schemaVersion": "3.4.10",
  "updatedAt": "2022-12-08T14:40:18.032Z",
  "devdoc": {
    "kind": "dev",
    "methods": {},
    "version": 1
  },
  "userdoc": {
    "kind": "user",
    "methods": {},
    "version": 1
  }
}