{
  "contractName": "ShardingTable",
  "abi": [
    {
      "inputs": [
        {
          "internalType": "address",
          "name": "hubAddress",
          "type": "address"
        }
      ],
      "stateMutability": "nonpayable",
      "type": "constructor"
    },
    {
      "anonymous": false,
      "inputs": [
        {
          "indexed": true,
          "internalType": "uint72",
          "name": "identityId",
          "type": "uint72"
        },
        {
          "indexed": false,
          "internalType": "bytes",
          "name": "nodeId",
          "type": "bytes"
        },
        {
          "indexed": false,
          "internalType": "uint96",
          "name": "ask",
          "type": "uint96"
        },
        {
          "indexed": false,
          "internalType": "uint96",
          "name": "stake",
          "type": "uint96"
        }
      ],
      "name": "NodeAdded",
      "type": "event"
    },
    {
      "anonymous": false,
      "inputs": [
        {
          "indexed": true,
          "internalType": "uint72",
          "name": "identityId",
          "type": "uint72"
        },
        {
          "indexed": false,
          "internalType": "bytes",
          "name": "nodeId",
          "type": "bytes"
        }
      ],
      "name": "NodeRemoved",
      "type": "event"
    },
    {
      "inputs": [],
      "name": "hub",
      "outputs": [
        {
          "internalType": "contract Hub",
          "name": "",
          "type": "address"
        }
      ],
      "stateMutability": "view",
      "type": "function"
    },
    {
      "inputs": [],
      "name": "profileStorage",
      "outputs": [
        {
          "internalType": "contract ProfileStorage",
          "name": "",
          "type": "address"
        }
      ],
      "stateMutability": "view",
      "type": "function"
    },
    {
      "inputs": [],
      "name": "shardingTableStorage",
      "outputs": [
        {
          "internalType": "contract ShardingTableStorage",
          "name": "",
          "type": "address"
        }
      ],
      "stateMutability": "view",
      "type": "function"
    },
    {
      "inputs": [],
      "name": "stakingStorage",
      "outputs": [
        {
          "internalType": "contract StakingStorage",
          "name": "",
          "type": "address"
        }
      ],
      "stateMutability": "view",
      "type": "function"
    },
    {
      "inputs": [],
      "name": "getShardingTable",
      "outputs": [
        {
          "components": [
            {
              "internalType": "bytes",
              "name": "id",
              "type": "bytes"
            },
            {
              "internalType": "uint96",
              "name": "ask",
              "type": "uint96"
            },
            {
              "internalType": "uint96",
              "name": "stake",
              "type": "uint96"
            }
          ],
          "internalType": "struct ShardingTableStructs.NodeInfo[]",
          "name": "",
          "type": "tuple[]"
        }
      ],
      "stateMutability": "view",
      "type": "function"
    },
    {
      "inputs": [
        {
          "internalType": "uint72",
          "name": "startingIdentityId",
          "type": "uint72"
        },
        {
          "internalType": "uint72",
          "name": "nodesNumber",
          "type": "uint72"
        }
      ],
      "name": "getShardingTable",
      "outputs": [
        {
          "components": [
            {
              "internalType": "bytes",
              "name": "id",
              "type": "bytes"
            },
            {
              "internalType": "uint96",
              "name": "ask",
              "type": "uint96"
            },
            {
              "internalType": "uint96",
              "name": "stake",
              "type": "uint96"
            }
          ],
          "internalType": "struct ShardingTableStructs.NodeInfo[]",
          "name": "",
          "type": "tuple[]"
        }
      ],
      "stateMutability": "view",
      "type": "function"
    },
    {
      "inputs": [
        {
          "internalType": "uint72",
          "name": "identityId",
          "type": "uint72"
        }
      ],
      "name": "pushBack",
      "outputs": [],
      "stateMutability": "nonpayable",
      "type": "function"
    },
    {
      "inputs": [
        {
          "internalType": "uint72",
          "name": "identityId",
          "type": "uint72"
        }
      ],
      "name": "pushFront",
      "outputs": [],
      "stateMutability": "nonpayable",
      "type": "function"
    },
    {
      "inputs": [
        {
          "internalType": "uint72",
          "name": "identityId",
          "type": "uint72"
        }
      ],
      "name": "removeNode",
      "outputs": [],
      "stateMutability": "nonpayable",
      "type": "function"
    }
  ],
  "bytecode": "0x60806040523480156200001157600080fd5b50604051620026f0380380620026f083398101604081905262000034916200025d565b6001600160a01b0381166200004857600080fd5b600080546001600160a01b0319166001600160a01b038316908117909155604051630110ceef60e21b815260206004820152600e60248201526d50726f66696c6553746f7261676560901b60448201526304433bbc90606401602060405180830381865afa158015620000bf573d6000803e3d6000fd5b505050506040513d601f19601f82011682018060405250810190620000e591906200025d565b600180546001600160a01b0319166001600160a01b03928316179055600054604051630110ceef60e21b815260206004820152601460248201527f5368617264696e675461626c6553746f7261676500000000000000000000000060448201529116906304433bbc90606401602060405180830381865afa1580156200016f573d6000803e3d6000fd5b505050506040513d601f19601f820116820180604052508101906200019591906200025d565b600280546001600160a01b0319166001600160a01b03928316179055600054604051630110ceef60e21b815260206004820152600e60248201526d5374616b696e6753746f7261676560901b60448201529116906304433bbc90606401602060405180830381865afa15801562000210573d6000803e3d6000fd5b505050506040513d601f19601f820116820180604052508101906200023691906200025d565b600380546001600160a01b0319166001600160a01b0392909216919091179055506200028f565b6000602082840312156200027057600080fd5b81516001600160a01b03811681146200028857600080fd5b9392505050565b612451806200029f6000396000f3fe608060405234801561001057600080fd5b50600436106100a35760003560e01c806392b7c87d11610076578063b518a00e1161005b578063b518a00e14610166578063e5de01f114610186578063f42cb0381461019957600080fd5b806392b7c87d14610140578063af9c1ec61461015357600080fd5b8063289220c6146100a8578063365a86fc146100c6578063415942b11461010b578063823e2bc714610120575b600080fd5b6100b06101b9565b6040516100bd919061209f565b60405180910390f35b6000546100e69073ffffffffffffffffffffffffffffffffffffffff1681565b60405173ffffffffffffffffffffffffffffffffffffffff90911681526020016100bd565b61011e61011936600461216b565b6102c8565b005b6002546100e69073ffffffffffffffffffffffffffffffffffffffff1681565b61011e61014e36600461216b565b610a3f565b61011e61016136600461216b565b610ef4565b6003546100e69073ffffffffffffffffffffffffffffffffffffffff1681565b6100b061019436600461218f565b611776565b6001546100e69073ffffffffffffffffffffffffffffffffffffffff1681565b600254604080517f8f7dcfa3000000000000000000000000000000000000000000000000000000008152905160609273ffffffffffffffffffffffffffffffffffffffff16916102c2918391638f7dcfa39160048083019260209291908290030181865afa15801561022f573d6000803e3d6000fd5b505050506040513d601f19601f8201168201806040525081019061025391906121c8565b8273ffffffffffffffffffffffffffffffffffffffff1663f1a3c5b36040518163ffffffff1660e01b8152600401602060405180830381865afa15801561029e573d6000803e3d6000fd5b505050506040513d601f19601f8201168201806040525081019061019491906121c8565b91505090565b6102d0611f2b565b6001546040517fc04d7dcf00000000000000000000000000000000000000000000000000000000815268ffffffffffffffffff8316600482015273ffffffffffffffffffffffffffffffffffffffff90911690819063c04d7dcf90602401602060405180830381865afa15801561034b573d6000803e3d6000fd5b505050506040513d601f19601f8201168201806040525081019061036f91906121e5565b6103da576040517f08c379a000000000000000000000000000000000000000000000000000000000815260206004820152601560248201527f50726f66696c6520646f65736e2774206578697374000000000000000000000060448201526064015b60405180910390fd5b6002546040517ffa8924d400000000000000000000000000000000000000000000000000000000815268ffffffffffffffffff84166004820152600060248201819052604482015273ffffffffffffffffffffffffffffffffffffffff90911690819063fa8924d490606401600060405180830381600087803b15801561046057600080fd5b505af1158015610474573d6000803e3d6000fd5b50505050600068ffffffffffffffffff168173ffffffffffffffffffffffffffffffffffffffff166313d8c8406040518163ffffffff1660e01b8152600401602060405180830381865afa1580156104d0573d6000803e3d6000fd5b505050506040513d601f19601f820116820180604052508101906104f491906121c8565b68ffffffffffffffffff161461060b578073ffffffffffffffffffffffffffffffffffffffff1663283350a58273ffffffffffffffffffffffffffffffffffffffff166313d8c8406040518163ffffffff1660e01b8152600401602060405180830381865afa15801561056b573d6000803e3d6000fd5b505050506040513d601f19601f8201168201806040525081019061058f91906121c8565b6040517fffffffff0000000000000000000000000000000000000000000000000000000060e084901b16815268ffffffffffffffffff91821660048201529086166024820152604401600060405180830381600087803b1580156105f257600080fd5b505af1158015610606573d6000803e3d6000fd5b505050505b6040517f406def5b00000000000000000000000000000000000000000000000000000000815268ffffffffffffffffff8416600482015273ffffffffffffffffffffffffffffffffffffffff82169063406def5b90602401600060405180830381600087803b15801561067d57600080fd5b505af1158015610691573d6000803e3d6000fd5b50505050600068ffffffffffffffffff168173ffffffffffffffffffffffffffffffffffffffff16638f7dcfa36040518163ffffffff1660e01b8152600401602060405180830381865afa1580156106ed573d6000803e3d6000fd5b505050506040513d601f19601f8201168201806040525081019061071191906121c8565b68ffffffffffffffffff16036107ad576040517fde647ca800000000000000000000000000000000000000000000000000000000815268ffffffffffffffffff8416600482015273ffffffffffffffffffffffffffffffffffffffff82169063de647ca8906024015b600060405180830381600087803b15801561079457600080fd5b505af11580156107a8573d6000803e3d6000fd5b505050505b8073ffffffffffffffffffffffffffffffffffffffff16634f3ae9ee6040518163ffffffff1660e01b8152600401600060405180830381600087803b1580156107f557600080fd5b505af1158015610809573d6000803e3d6000fd5b50506040517f41c10b9a00000000000000000000000000000000000000000000000000000000815268ffffffffffffffffff86166004820181905292507f05eef2d4c7b6f7d090582906c8987ff8d9afdead95f51156c0cda2e82707afc7915073ffffffffffffffffffffffffffffffffffffffff8516906341c10b9a90602401600060405180830381865afa1580156108a7573d6000803e3d6000fd5b505050506040513d6000823e601f3d9081017fffffffffffffffffffffffffffffffffffffffffffffffffffffffffffffffe01682016040526108ed9190810190612236565b6040517f39fb67dd00000000000000000000000000000000000000000000000000000000815268ffffffffffffffffff8716600482015273ffffffffffffffffffffffffffffffffffffffff8616906339fb67dd90602401602060405180830381865afa158015610962573d6000803e3d6000fd5b505050506040513d601f19601f820116820180604052508101906109869190612301565b6003546040517f9d2b48ad00000000000000000000000000000000000000000000000000000000815268ffffffffffffffffff8916600482015273ffffffffffffffffffffffffffffffffffffffff90911690639d2b48ad90602401602060405180830381865afa1580156109ff573d6000803e3d6000fd5b505050506040513d601f19601f82011682018060405250810190610a239190612301565b604051610a329392919061232f565b60405180910390a2505050565b610a47611f2b565b6001546040517fc04d7dcf00000000000000000000000000000000000000000000000000000000815268ffffffffffffffffff8316600482015273ffffffffffffffffffffffffffffffffffffffff90911690819063c04d7dcf90602401602060405180830381865afa158015610ac2573d6000803e3d6000fd5b505050506040513d601f19601f82011682018060405250810190610ae691906121e5565b610b4c576040517f08c379a000000000000000000000000000000000000000000000000000000000815260206004820152601560248201527f50726f66696c6520646f65736e2774206578697374000000000000000000000060448201526064016103d1565b6002546040517ffa8924d400000000000000000000000000000000000000000000000000000000815268ffffffffffffffffff84166004820152600060248201819052604482015273ffffffffffffffffffffffffffffffffffffffff90911690819063fa8924d490606401600060405180830381600087803b158015610bd257600080fd5b505af1158015610be6573d6000803e3d6000fd5b50505050600068ffffffffffffffffff168173ffffffffffffffffffffffffffffffffffffffff16638f7dcfa36040518163ffffffff1660e01b8152600401602060405180830381865afa158015610c42573d6000803e3d6000fd5b505050506040513d601f19601f82011682018060405250810190610c6691906121c8565b68ffffffffffffffffff1614610d7d578073ffffffffffffffffffffffffffffffffffffffff1663283350a5848373ffffffffffffffffffffffffffffffffffffffff16638f7dcfa36040518163ffffffff1660e01b8152600401602060405180830381865afa158015610cde573d6000803e3d6000fd5b505050506040513d601f19601f82011682018060405250810190610d0291906121c8565b6040517fffffffff0000000000000000000000000000000000000000000000000000000060e085901b16815268ffffffffffffffffff928316600482015291166024820152604401600060405180830381600087803b158015610d6457600080fd5b505af1158015610d78573d6000803e3d6000fd5b505050505b6002546040517fde647ca800000000000000000000000000000000000000000000000000000000815268ffffffffffffffffff8516600482015273ffffffffffffffffffffffffffffffffffffffff9091169063de647ca890602401600060405180830381600087803b158015610df357600080fd5b505af1158015610e07573d6000803e3d6000fd5b50505050600068ffffffffffffffffff168173ffffffffffffffffffffffffffffffffffffffff166313d8c8406040518163ffffffff1660e01b8152600401602060405180830381865afa158015610e63573d6000803e3d6000fd5b505050506040513d601f19601f82011682018060405250810190610e8791906121c8565b68ffffffffffffffffff16036107ad576040517f406def5b00000000000000000000000000000000000000000000000000000000815268ffffffffffffffffff8416600482015273ffffffffffffffffffffffffffffffffffffffff82169063406def5b9060240161077a565b610efc611f2b565b6001546040517fc04d7dcf00000000000000000000000000000000000000000000000000000000815268ffffffffffffffffff8316600482015273ffffffffffffffffffffffffffffffffffffffff90911690819063c04d7dcf90602401602060405180830381865afa158015610f77573d6000803e3d6000fd5b505050506040513d601f19601f82011682018060405250810190610f9b91906121e5565b611001576040517f08c379a000000000000000000000000000000000000000000000000000000000815260206004820152601560248201527f50726f66696c6520646f65736e2774206578697374000000000000000000000060448201526064016103d1565b6002546040517f162929e900000000000000000000000000000000000000000000000000000000815268ffffffffffffffffff8416600482015273ffffffffffffffffffffffffffffffffffffffff90911690600090829063162929e990602401606060405180830381865afa15801561107f573d6000803e3d6000fd5b505050506040513d601f19601f820116820180604052508101906110a39190612367565b905060008273ffffffffffffffffffffffffffffffffffffffff16638f7dcfa36040518163ffffffff1660e01b8152600401602060405180830381865afa1580156110f2573d6000803e3d6000fd5b505050506040513d601f19601f8201168201806040525081019061111691906121c8565b905060008373ffffffffffffffffffffffffffffffffffffffff166313d8c8406040518163ffffffff1660e01b8152600401602060405180830381865afa158015611165573d6000803e3d6000fd5b505050506040513d601f19601f8201168201806040525081019061118991906121c8565b90508568ffffffffffffffffff168268ffffffffffffffffff161480156111c557508568ffffffffffffffffff168168ffffffffffffffffff16145b156112d0576040517fde647ca80000000000000000000000000000000000000000000000000000000081526000600482015273ffffffffffffffffffffffffffffffffffffffff85169063de647ca890602401600060405180830381600087803b15801561123257600080fd5b505af1158015611246573d6000803e3d6000fd5b50506040517f406def5b0000000000000000000000000000000000000000000000000000000081526000600482015273ffffffffffffffffffffffffffffffffffffffff8716925063406def5b91506024015b600060405180830381600087803b1580156112b357600080fd5b505af11580156112c7573d6000803e3d6000fd5b5050505061158f565b8568ffffffffffffffffff168168ffffffffffffffffff16036113e15760208301516040517f406def5b00000000000000000000000000000000000000000000000000000000815268ffffffffffffffffff909116600482015273ffffffffffffffffffffffffffffffffffffffff85169063406def5b90602401600060405180830381600087803b15801561136557600080fd5b505af1158015611379573d6000803e3d6000fd5b50506040517fd0f4c7cf00000000000000000000000000000000000000000000000000000000815268ffffffffffffffffff841660048201526000602482015273ffffffffffffffffffffffffffffffffffffffff8716925063d0f4c7cf9150604401611299565b8568ffffffffffffffffff168268ffffffffffffffffff16036114f25760408381015190517fde647ca800000000000000000000000000000000000000000000000000000000815268ffffffffffffffffff909116600482015273ffffffffffffffffffffffffffffffffffffffff85169063de647ca890602401600060405180830381600087803b15801561147657600080fd5b505af115801561148a573d6000803e3d6000fd5b50506040517f6b57280e00000000000000000000000000000000000000000000000000000000815268ffffffffffffffffff851660048201526000602482015273ffffffffffffffffffffffffffffffffffffffff87169250636b57280e9150604401611299565b602083015160408085015190517f283350a500000000000000000000000000000000000000000000000000000000815268ffffffffffffffffff92831660048201529116602482015273ffffffffffffffffffffffffffffffffffffffff85169063283350a590604401600060405180830381600087803b15801561157657600080fd5b505af115801561158a573d6000803e3d6000fd5b505050505b6040517faf9c1ec600000000000000000000000000000000000000000000000000000000815268ffffffffffffffffff8716600482015273ffffffffffffffffffffffffffffffffffffffff85169063af9c1ec690602401600060405180830381600087803b15801561160157600080fd5b505af1158015611615573d6000803e3d6000fd5b505050508373ffffffffffffffffffffffffffffffffffffffff1663d9b654636040518163ffffffff1660e01b8152600401600060405180830381600087803b15801561166157600080fd5b505af1158015611675573d6000803e3d6000fd5b50506040517f41c10b9a00000000000000000000000000000000000000000000000000000000815268ffffffffffffffffff89166004820181905292507fef12f3576561c48ba6945e9b712ac4715d1ac62879143672fcd6e3c63a19619c915073ffffffffffffffffffffffffffffffffffffffff8816906341c10b9a90602401600060405180830381865afa158015611713573d6000803e3d6000fd5b505050506040513d6000823e601f3d9081017fffffffffffffffffffffffffffffffffffffffffffffffffffffffffffffffe01682016040526117599190810190612236565b60405161176691906123d9565b60405180910390a2505050505050565b600254604080517ff1a3c5b30000000000000000000000000000000000000000000000000000000081529051606092839273ffffffffffffffffffffffffffffffffffffffff90911691829163f1a3c5b39160048083019260209291908290030181865afa1580156117ec573d6000803e3d6000fd5b505050506040513d601f19601f8201168201806040525081019061181091906121c8565b68ffffffffffffffffff161580611830575068ffffffffffffffffff8416155b1561183d57509050611f25565b6040517f162929e900000000000000000000000000000000000000000000000000000000815268ffffffffffffffffff8616600482015260009073ffffffffffffffffffffffffffffffffffffffff83169063162929e990602401606060405180830381865afa1580156118b5573d6000803e3d6000fd5b505050506040513d601f19601f820116820180604052508101906118d99190612367565b905068ffffffffffffffffff861615806118fe5750805168ffffffffffffffffff1615155b61190757600080fd5b8468ffffffffffffffffff1667ffffffffffffffff81111561192b5761192b612207565b60405190808252806020026020018201604052801561199457816020015b60408051606080820183528152600060208083018290529282015282527fffffffffffffffffffffffffffffffffffffffffffffffffffffffffffffffff9092019101816119495790505b506001546003546040805160608101918290527f41c10b9a0000000000000000000000000000000000000000000000000000000090915268ffffffffffffffffff8a16606482015292955073ffffffffffffffffffffffffffffffffffffffff9182169291169080836341c10b9a60848301600060405180830381865afa158015611a23573d6000803e3d6000fd5b505050506040513d6000823e601f3d9081017fffffffffffffffffffffffffffffffffffffffffffffffffffffffffffffffe0168201604052611a699190810190612236565b815284516040517f39fb67dd00000000000000000000000000000000000000000000000000000000815268ffffffffffffffffff909116600482015260209091019073ffffffffffffffffffffffffffffffffffffffff8516906339fb67dd90602401602060405180830381865afa158015611ae9573d6000803e3d6000fd5b505050506040513d601f19601f82011682018060405250810190611b0d9190612301565b6bffffffffffffffffffffffff16815284516040517f9d2b48ad00000000000000000000000000000000000000000000000000000000815268ffffffffffffffffff909116600482015260209091019073ffffffffffffffffffffffffffffffffffffffff841690639d2b48ad90602401602060405180830381865afa158015611b9b573d6000803e3d6000fd5b505050506040513d601f19601f82011682018060405250810190611bbf9190612301565b6bffffffffffffffffffffffff1681525085600081518110611be357611be36123ec565b60209081029190910101528760015b8868ffffffffffffffffff168168ffffffffffffffffff16108015611c21575068ffffffffffffffffff821615155b15611f1b576040517f162929e900000000000000000000000000000000000000000000000000000000815268ffffffffffffffffff8316600482015273ffffffffffffffffffffffffffffffffffffffff87169063162929e990602401606060405180830381865afa158015611c9b573d6000803e3d6000fd5b505050506040513d601f19601f82011682018060405250810190611cbf9190612367565b604090810151815160608101928390527f41c10b9a0000000000000000000000000000000000000000000000000000000090925268ffffffffffffffffff8116606483015292508073ffffffffffffffffffffffffffffffffffffffff86166341c10b9a60848301600060405180830381865afa158015611d44573d6000803e3d6000fd5b505050506040513d6000823e601f3d9081017fffffffffffffffffffffffffffffffffffffffffffffffffffffffffffffffe0168201604052611d8a9190810190612236565b81526040517f39fb67dd00000000000000000000000000000000000000000000000000000000815268ffffffffffffffffff8516600482015260209091019073ffffffffffffffffffffffffffffffffffffffff8716906339fb67dd90602401602060405180830381865afa158015611e07573d6000803e3d6000fd5b505050506040513d601f19601f82011682018060405250810190611e2b9190612301565b6bffffffffffffffffffffffff1681526040517f9d2b48ad00000000000000000000000000000000000000000000000000000000815268ffffffffffffffffff8516600482015260209091019073ffffffffffffffffffffffffffffffffffffffff861690639d2b48ad90602401602060405180830381865afa158015611eb6573d6000803e3d6000fd5b505050506040513d601f19601f82011682018060405250810190611eda9190612301565b6bffffffffffffffffffffffff16815250878268ffffffffffffffffff1681518110611f0857611f086123ec565b6020908102919091010152600101611bf2565b5094955050505050505b92915050565b6000546040517f1627905500000000000000000000000000000000000000000000000000000000815233600482015273ffffffffffffffffffffffffffffffffffffffff90911690631627905590602401602060405180830381865afa158015611f99573d6000803e3d6000fd5b505050506040513d601f19601f82011682018060405250810190611fbd91906121e5565b612023576040517f08c379a000000000000000000000000000000000000000000000000000000000815260206004820181905260248201527f466e2063616e206f6e6c792062652063616c6c6564206279207468652068756260448201526064016103d1565b565b60005b83811015612040578181015183820152602001612028565b8381111561204f576000848401525b50505050565b6000815180845261206d816020860160208601612025565b601f017fffffffffffffffffffffffffffffffffffffffffffffffffffffffffffffffe0169290920160200192915050565b60006020808301818452808551808352604092508286019150828160051b87010184880160005b83811015612143577fffffffffffffffffffffffffffffffffffffffffffffffffffffffffffffffc089840301855281516060815181865261210a82870182612055565b838b01516bffffffffffffffffffffffff908116888d0152938a01519093169589019590955250948701949250908601906001016120c6565b509098975050505050505050565b68ffffffffffffffffff8116811461216857600080fd5b50565b60006020828403121561217d57600080fd5b813561218881612151565b9392505050565b600080604083850312156121a257600080fd5b82356121ad81612151565b915060208301356121bd81612151565b809150509250929050565b6000602082840312156121da57600080fd5b815161218881612151565b6000602082840312156121f757600080fd5b8151801515811461218857600080fd5b7f4e487b7100000000000000000000000000000000000000000000000000000000600052604160045260246000fd5b60006020828403121561224857600080fd5b815167ffffffffffffffff8082111561226057600080fd5b818401915084601f83011261227457600080fd5b81518181111561228657612286612207565b604051601f82017fffffffffffffffffffffffffffffffffffffffffffffffffffffffffffffffe0908116603f011681019083821181831017156122cc576122cc612207565b816040528281528760208487010111156122e557600080fd5b6122f6836020830160208801612025565b979650505050505050565b60006020828403121561231357600080fd5b81516bffffffffffffffffffffffff8116811461218857600080fd5b6060815260006123426060830186612055565b6bffffffffffffffffffffffff94851660208401529290931660409091015292915050565b60006060828403121561237957600080fd5b6040516060810181811067ffffffffffffffff8211171561239c5761239c612207565b60405282516123aa81612151565b815260208301516123ba81612151565b602082015260408301516123cd81612151565b60408201529392505050565b6020815260006121886020830184612055565b7f4e487b7100000000000000000000000000000000000000000000000000000000600052603260045260246000fdfea264697066735822122089f15db54bdfe21c5fc4f0f481a82cc63a8ca8c6d383f99e6c9e37c0afb7372264736f6c634300080e0033",
  "immutableReferences": {},
  "source": "// SPDX-License-Identifier: MIT\n\npragma solidity^0.8.0;\n\nimport { Hub } from \"./Hub.sol\";\nimport { IdentityStorage } from \"./storage/IdentityStorage.sol\";\nimport { ProfileStorage } from \"./storage/ProfileStorage.sol\";\nimport { ShardingTableStorage } from \"./storage/ShardingTableStorage.sol\";\nimport { StakingStorage } from \"./storage/StakingStorage.sol\";\nimport { ShardingTableStructs } from \"./structs/ShardingTableStructs.sol\";\nimport { NULL } from \"./constants/ShardingTableConstants.sol\";\n\ncontract ShardingTable {\n\n    event NodeAdded(uint72 indexed identityId, bytes nodeId, uint96 ask, uint96 stake);\n    event NodeRemoved(uint72 indexed identityId, bytes nodeId);\n\n    Hub public hub;\n    ProfileStorage public profileStorage;\n    ShardingTableStorage public shardingTableStorage;\n    StakingStorage public stakingStorage;\n\n    constructor(address hubAddress) {\n        require(hubAddress != address(0));\n\n        hub = Hub(hubAddress);\n        profileStorage = ProfileStorage(hub.getContractAddress(\"ProfileStorage\"));\n        shardingTableStorage = ShardingTableStorage(hub.getContractAddress(\"ShardingTableStorage\"));\n        stakingStorage = StakingStorage(hub.getContractAddress(\"StakingStorage\"));\n    }\n\n    modifier onlyContracts() {\n        _checkHub();\n        _;\n    }\n\n    function getShardingTable(uint72 startingIdentityId, uint72 nodesNumber)\n        public\n        view\n        returns (ShardingTableStructs.NodeInfo[] memory)\n    {\n        ShardingTableStructs.NodeInfo[] memory nodesPage;\n        ShardingTableStorage sts = shardingTableStorage;\n\n        if ((sts.nodesCount() == 0) || (nodesNumber == 0)) {\n            return nodesPage;\n        }\n\n        ShardingTableStructs.Node memory startingNode = sts.getNode(startingIdentityId);\n\n        require((startingIdentityId == NULL) || (startingNode.identityId != NULL));\n\n        nodesPage = new ShardingTableStructs.NodeInfo[](nodesNumber);\n\n        ProfileStorage ps = profileStorage;\n        StakingStorage ss = stakingStorage;\n\n        nodesPage[0] = ShardingTableStructs.NodeInfo({\n            id: ps.getNodeId(startingIdentityId),\n            ask: ps.getAsk(startingNode.identityId),\n            stake: ss.totalStakes(startingNode.identityId)\n        });\n\n        uint72 nextIdentityId = startingIdentityId;\n        uint72 i = 1;\n        while ((i < nodesNumber) && (nextIdentityId != NULL)) {\n            nextIdentityId = sts.getNode(nextIdentityId).nextIdentityId;\n\n            nodesPage[i] = ShardingTableStructs.NodeInfo({\n                id: ps.getNodeId(nextIdentityId),\n                ask: ps.getAsk(nextIdentityId),\n                stake: ss.totalStakes(nextIdentityId)\n            });\n\n            unchecked { i += 1; }\n        }\n        return nodesPage;\n    }\n\n    function getShardingTable() external view returns (ShardingTableStructs.NodeInfo[] memory) {\n        ShardingTableStorage sts = shardingTableStorage;\n        return getShardingTable(sts.head(), sts.nodesCount());\n    }\n\n    function pushBack(uint72 identityId) external onlyContracts {\n        ProfileStorage ps = profileStorage;\n        require(ps.profileExists(identityId), \"Profile doesn't exist\");\n\n        ShardingTableStorage sts = shardingTableStorage;\n\n        sts.createNode(identityId, NULL, NULL);\n\n        if (sts.tail() != NULL)\n            sts.link(sts.tail(), identityId);\n\n        sts.setTail(identityId);\n\n        if (sts.head() == NULL)\n            sts.setHead(identityId);\n\n        sts.incrementNodesCount();\n\n        emit NodeAdded(\n            identityId,\n            ps.getNodeId(identityId),\n            ps.getAsk(identityId),\n            stakingStorage.totalStakes(identityId)\n        );\n    }\n\n    function pushFront(uint72 identityId) external onlyContracts {\n        ProfileStorage ps = profileStorage;\n        require(ps.profileExists(identityId), \"Profile doesn't exist\");\n\n        ShardingTableStorage sts = shardingTableStorage;\n\n        sts.createNode(identityId, NULL, NULL);\n\n        if (sts.head() != NULL)\n            sts.link(identityId, sts.head());\n\n        shardingTableStorage.setHead(identityId);\n\n        if (sts.tail() == NULL)\n            sts.setTail(identityId);\n\n        sts.incrementNodesCount();\n\n        emit NodeAdded(\n            identityId,\n            ps.getNodeId(identityId),\n            ps.getAsk(identityId),\n            stakingStorage.totalStakes(identityId)\n        );\n    }\n\n    function removeNode(uint72 identityId) external onlyContracts {\n        ProfileStorage ps = profileStorage;\n        require(ps.profileExists(identityId), \"Profile doesn't exist\");\n\n        ShardingTableStorage sts = shardingTableStorage;\n\n        ShardingTableStructs.Node memory nodeToRemove = sts.getNode(identityId);\n\n        uint72 head = sts.head();\n        uint72 tail = sts.tail();\n\n        if ((head == identityId) && (tail == identityId)) {\n            sts.setHead(NULL);\n            sts.setTail(NULL);\n        } else if (tail == identityId) {\n            sts.setTail(nodeToRemove.prevIdentityId);\n            sts.setNextIdentityId(tail, NULL);\n        } else if (head == identityId) {\n            sts.setHead(nodeToRemove.nextIdentityId);\n            sts.setPrevIdentityId(head, NULL);\n        } else {\n            sts.link(nodeToRemove.prevIdentityId, nodeToRemove.nextIdentityId);\n        }\n\n        sts.removeNode(identityId);\n        sts.decrementNodesCount();\n\n        emit NodeRemoved(identityId, ps.getNodeId(identityId));\n    }\n\n    function _checkHub() internal view virtual {\n        require(hub.isContract(msg.sender), \"Fn can only be called by the hub\");\n    }\n\n}\n",
  "sourcePath": "/Users/max/IdeaProjects/dkg-evm-module/contracts/ShardingTable.sol",
  "compiler": {
    "name": "solc",
    "version": "0.8.14+commit.80d49f37.Emscripten.clang"
  },
  "schemaVersion": "3.4.10",
  "updatedAt": "2022-12-03T12:20:15.553Z",
  "devdoc": {
    "kind": "dev",
    "methods": {},
    "version": 1
  },
  "userdoc": {
    "kind": "user",
    "methods": {},
    "version": 1
  }
}