{
  "contractName": "ShardingTable",
  "abi": [
    {
      "inputs": [
        {
          "internalType": "address",
          "name": "hubAddress",
          "type": "address"
        }
      ],
      "stateMutability": "nonpayable",
      "type": "constructor"
    },
    {
      "anonymous": false,
      "inputs": [
        {
          "indexed": false,
          "internalType": "bytes",
          "name": "nodeId",
          "type": "bytes"
        },
        {
          "indexed": false,
          "internalType": "uint256",
          "name": "ask",
          "type": "uint256"
        },
        {
          "indexed": false,
          "internalType": "uint256",
          "name": "stake",
          "type": "uint256"
        },
        {
          "indexed": false,
          "internalType": "bytes32",
          "name": "nodeIdSha256",
          "type": "bytes32"
        }
      ],
      "name": "NodeObjCreated",
      "type": "event"
    },
    {
      "anonymous": false,
      "inputs": [
        {
          "indexed": false,
          "internalType": "bytes",
          "name": "nodeId",
          "type": "bytes"
        }
      ],
      "name": "NodeRemoved",
      "type": "event"
    },
    {
      "inputs": [],
      "name": "head",
      "outputs": [
        {
          "internalType": "bytes",
          "name": "",
          "type": "bytes"
        }
      ],
      "stateMutability": "view",
      "type": "function"
    },
    {
      "inputs": [],
      "name": "hub",
      "outputs": [
        {
          "internalType": "contract Hub",
          "name": "",
          "type": "address"
        }
      ],
      "stateMutability": "view",
      "type": "function"
    },
    {
      "inputs": [],
      "name": "nodesCount",
      "outputs": [
        {
          "internalType": "uint16",
          "name": "",
          "type": "uint16"
        }
      ],
      "stateMutability": "view",
      "type": "function"
    },
    {
      "inputs": [],
      "name": "tail",
      "outputs": [
        {
          "internalType": "bytes",
          "name": "",
          "type": "bytes"
        }
      ],
      "stateMutability": "view",
      "type": "function"
    },
    {
      "inputs": [
        {
          "internalType": "bytes",
          "name": "startingNodeId",
          "type": "bytes"
        },
        {
          "internalType": "uint16",
          "name": "nodesNumber",
          "type": "uint16"
        }
      ],
      "name": "getShardingTable",
      "outputs": [
        {
          "components": [
            {
              "internalType": "bytes",
              "name": "id",
              "type": "bytes"
            },
            {
              "internalType": "uint256",
              "name": "ask",
              "type": "uint256"
            },
            {
              "internalType": "uint256",
              "name": "stake",
              "type": "uint256"
            },
            {
              "internalType": "bytes32",
              "name": "idSha256",
              "type": "bytes32"
            }
          ],
          "internalType": "struct ShardingTable.NodeInfo[]",
          "name": "",
          "type": "tuple[]"
        }
      ],
      "stateMutability": "view",
      "type": "function"
    },
    {
      "inputs": [],
      "name": "getShardingTable",
      "outputs": [
        {
          "components": [
            {
              "internalType": "bytes",
              "name": "id",
              "type": "bytes"
            },
            {
              "internalType": "uint256",
              "name": "ask",
              "type": "uint256"
            },
            {
              "internalType": "uint256",
              "name": "stake",
              "type": "uint256"
            },
            {
              "internalType": "bytes32",
              "name": "idSha256",
              "type": "bytes32"
            }
          ],
          "internalType": "struct ShardingTable.NodeInfo[]",
          "name": "",
          "type": "tuple[]"
        }
      ],
      "stateMutability": "view",
      "type": "function"
    },
    {
      "inputs": [
        {
          "internalType": "address",
          "name": "identity",
          "type": "address"
        }
      ],
      "name": "pushBack",
      "outputs": [],
      "stateMutability": "nonpayable",
      "type": "function"
    },
    {
      "inputs": [
        {
          "internalType": "address",
          "name": "identity",
          "type": "address"
        }
      ],
      "name": "pushFront",
      "outputs": [],
      "stateMutability": "nonpayable",
      "type": "function"
    },
    {
      "inputs": [
        {
          "internalType": "address",
          "name": "identity",
          "type": "address"
        }
      ],
      "name": "removeNode",
      "outputs": [],
      "stateMutability": "nonpayable",
      "type": "function"
    },
    {
      "inputs": [
        {
          "internalType": "bytes",
          "name": "nodeId",
          "type": "bytes"
        }
      ],
      "name": "removeNodeById",
      "outputs": [],
      "stateMutability": "nonpayable",
      "type": "function"
    }
  ],
  "bytecode": "0x60806040523480156200001157600080fd5b506040516200425f3803806200425f83398181016040528101906200003791906200036b565b600073ffffffffffffffffffffffffffffffffffffffff168173ffffffffffffffffffffffffffffffffffffffff16036200007157600080fd5b806000806101000a81548173ffffffffffffffffffffffffffffffffffffffff021916908373ffffffffffffffffffffffffffffffffffffffff1602179055506040518060200160405280600081525060019080519060200190620000d8929190620001b9565b5060026001604051620000ec9190620004ac565b602060405180830381855afa1580156200010a573d6000803e3d6000fd5b5050506040513d601f19601f820116820180604052508101906200012f919062000500565b60066001604051620001429190620004ac565b908152602001604051809103902081905550600160029080546200016690620003cc565b620001739291906200024a565b50600160039080546200018690620003cc565b620001939291906200024a565b506000600460006101000a81548161ffff021916908361ffff1602179055505062000532565b828054620001c790620003cc565b90600052602060002090601f016020900481019282620001eb576000855562000237565b82601f106200020657805160ff191683800117855562000237565b8280016001018555821562000237579182015b828111156200023657825182559160200191906001019062000219565b5b509050620002469190620002e2565b5090565b8280546200025890620003cc565b90600052602060002090601f0160209004810192826200027c5760008555620002cf565b82601f106200028f5780548555620002cf565b82800160010185558215620002cf57600052602060002091601f016020900482015b82811115620002ce578254825591600101919060010190620002b1565b5b509050620002de9190620002e2565b5090565b5b80821115620002fd576000816000905550600101620002e3565b5090565b600080fd5b600073ffffffffffffffffffffffffffffffffffffffff82169050919050565b6000620003338262000306565b9050919050565b620003458162000326565b81146200035157600080fd5b50565b60008151905062000365816200033a565b92915050565b60006020828403121562000384576200038362000301565b5b6000620003948482850162000354565b91505092915050565b7f4e487b7100000000000000000000000000000000000000000000000000000000600052602260045260246000fd5b60006002820490506001821680620003e557607f821691505b602082108103620003fb57620003fa6200039d565b5b50919050565b600081905092915050565b60008190508160005260206000209050919050565b600081546200043081620003cc565b6200043c818662000401565b945060018216600081146200045a57600181146200046c57620004a3565b60ff19831686528186019350620004a3565b62000477856200040c565b60005b838110156200049b578154818901526001820191506020810190506200047a565b838801955050505b50505092915050565b6000620004ba828462000421565b915081905092915050565b6000819050919050565b620004da81620004c5565b8114620004e657600080fd5b50565b600081519050620004fa81620004cf565b92915050565b60006020828403121562000519576200051862000301565b5b60006200052984828501620004e9565b91505092915050565b613d1d80620005426000396000f3fe608060405234801561001057600080fd5b506004361061009e5760003560e01c806347ad65251161006657806347ad652514610149578063495a6ada146101655780638f7dcfa314610181578063b2b99ec91461019f578063f1a3c5b3146101bb5761009e565b806304848448146100a357806313d8c840146100bf5780631593848f146100dd578063289220c61461010d578063365a86fc1461012b575b600080fd5b6100bd60048036038101906100b891906131f6565b6101d9565b005b6100c7610a3e565b6040516100d491906132c7565b60405180910390f35b6100f760048036038101906100f29190613323565b610acc565b6040516101049190613520565b60405180910390f35b610115611383565b6040516101229190613520565b60405180910390f35b61013361142e565b60405161014091906135c1565b60405180910390f35b610163600480360381019061015e919061361a565b611452565b005b61017f600480360381019061017a919061361a565b6119ac565b005b610189611f06565b60405161019691906132c7565b60405180910390f35b6101b960048036038101906101b4919061361a565b611f94565b005b6101c3612924565b6040516101d09190613656565b60405180910390f35b60008054906101000a900473ffffffffffffffffffffffffffffffffffffffff1673ffffffffffffffffffffffffffffffffffffffff16638da5cb5b6040518163ffffffff1660e01b8152600401602060405180830381865afa158015610244573d6000803e3d6000fd5b505050506040513d601f19601f820116820180604052508101906102689190613686565b73ffffffffffffffffffffffffffffffffffffffff163373ffffffffffffffffffffffffffffffffffffffff16146102d5576040517f08c379a00000000000000000000000000000000000000000000000000000000081526004016102cc90613736565b60405180910390fd5b60006005826040516102e79190613792565b90815260200160405180910390206040518060800160405290816000820160009054906101000a900473ffffffffffffffffffffffffffffffffffffffff1673ffffffffffffffffffffffffffffffffffffffff1673ffffffffffffffffffffffffffffffffffffffff168152602001600182018054610366906137d8565b80601f0160208091040260200160405190810160405280929190818152602001828054610392906137d8565b80156103df5780601f106103b4576101008083540402835291602001916103df565b820191906000526020600020905b8154815290600101906020018083116103c257829003601f168201915b505050505081526020016002820180546103f8906137d8565b80601f0160208091040260200160405190810160405280929190818152602001828054610424906137d8565b80156104715780601f1061044657610100808354040283529160200191610471565b820191906000526020600020905b81548152906001019060200180831161045457829003601f168201915b5050505050815260200160038201805461048a906137d8565b80601f01602080910402602001604051908101604052809291908181526020018280546104b6906137d8565b80156105035780601f106104d857610100808354040283529160200191610503565b820191906000526020600020905b8154815290600101906020018083116104e657829003601f168201915b50505050508152505090506105a26002805461051e906137d8565b80601f016020809104026020016040519081016040528092919081815260200182805461054a906137d8565b80156105975780601f1061056c57610100808354040283529160200191610597565b820191906000526020600020905b81548152906001019060200180831161057a57829003601f168201915b505050505083612938565b801561063e575061063d600380546105b9906137d8565b80601f01602080910402602001604051908101604052809291908181526020018280546105e5906137d8565b80156106325780601f1061060757610100808354040283529160200191610632565b820191906000526020600020905b81548152906001019060200180831161061557829003601f168201915b505050505083612938565b5b1561076e576106d660018054610653906137d8565b80601f016020809104026020016040519081016040528092919081815260200182805461067f906137d8565b80156106cc5780601f106106a1576101008083540402835291602001916106cc565b820191906000526020600020905b8154815290600101906020018083116106af57829003601f168201915b5050505050612981565b610769600180546106e6906137d8565b80601f0160208091040260200160405190810160405280929190818152602001828054610712906137d8565b801561075f5780601f106107345761010080835404028352916020019161075f565b820191906000526020600020905b81548152906001019060200180831161074257829003601f168201915b505050505061299b565b610951565b6108026002805461077e906137d8565b80601f01602080910402602001604051908101604052809291908181526020018280546107aa906137d8565b80156107f75780601f106107cc576101008083540402835291602001916107f7565b820191906000526020600020905b8154815290600101906020018083116107da57829003601f168201915b505050505083612938565b15610855576108148160600151612981565b600160056002604051610827919061389d565b9081526020016040518091039020600201908054610844906137d8565b61084f929190612f01565b50610950565b6108e960038054610865906137d8565b80601f0160208091040260200160405190810160405280929190818152602001828054610891906137d8565b80156108de5780601f106108b3576101008083540402835291602001916108de565b820191906000526020600020905b8154815290600101906020018083116108c157829003601f168201915b505050505083612938565b1561093c576108fb816040015161299b565b60016005600360405161090e919061389d565b908152602001604051809103902060030190805461092b906137d8565b610936929190612f01565b5061094f565b61094e816040015182606001516129b5565b5b5b5b6005826040516109619190613792565b9081526020016040518091039020600080820160006101000a81549073ffffffffffffffffffffffffffffffffffffffff02191690556001820160006109a79190612f8e565b6002820160006109b79190612f8e565b6003820160006109c79190612f8e565b50506001600460008282829054906101000a900461ffff166109e991906138e3565b92506101000a81548161ffff021916908361ffff1602179055507fe205888acbb768f3542b55524208304eb30bc6221a431e1178015e87fb1ca79382604051610a3291906132c7565b60405180910390a15050565b60038054610a4b906137d8565b80601f0160208091040260200160405190810160405280929190818152602001828054610a77906137d8565b8015610ac45780601f10610a9957610100808354040283529160200191610ac4565b820191906000526020600020905b815481529060010190602001808311610aa757829003601f168201915b505050505081565b6060610b90600584604051610ae19190613792565b90815260200160405180910390206001018054610afd906137d8565b80601f0160208091040260200160405190810160405280929190818152602001828054610b29906137d8565b8015610b765780601f10610b4b57610100808354040283529160200191610b76565b820191906000526020600020905b815481529060010190602001808311610b5957829003601f168201915b505050505060405180602001604052806000815250612938565b1580610c2c5750610c2b8360018054610ba8906137d8565b80601f0160208091040260200160405190810160405280929190818152602001828054610bd4906137d8565b8015610c215780601f10610bf657610100808354040283529160200191610c21565b820191906000526020600020905b815481529060010190602001808311610c0457829003601f168201915b5050505050612938565b5b610c3557600080fd5b60606000600460009054906101000a900461ffff1661ffff1603610c5c578091505061137d565b8261ffff1667ffffffffffffffff811115610c7a57610c796130cb565b5b604051908082528060200260200182016040528015610cb357816020015b610ca0612fce565b815260200190600190039081610c985790505b50905060008060009054906101000a900473ffffffffffffffffffffffffffffffffffffffff1673ffffffffffffffffffffffffffffffffffffffff166304433bbc6040518163ffffffff1660e01b8152600401610d1090613963565b602060405180830381865afa158015610d2d573d6000803e3d6000fd5b505050506040513d601f19601f82011682018060405250810190610d519190613686565b905060405180608001604052808681526020018273ffffffffffffffffffffffffffffffffffffffff1663de129f4e600589604051610d909190613792565b908152602001604051809103902060000160009054906101000a900473ffffffffffffffffffffffffffffffffffffffff166040518263ffffffff1660e01b8152600401610dde9190613992565b602060405180830381865afa158015610dfb573d6000803e3d6000fd5b505050506040513d601f19601f82011682018060405250810190610e1f91906139d9565b81526020018273ffffffffffffffffffffffffffffffffffffffff16637a766460600589604051610e509190613792565b908152602001604051809103902060000160009054906101000a900473ffffffffffffffffffffffffffffffffffffffff166040518263ffffffff1660e01b8152600401610e9e9190613992565b602060405180830381865afa158015610ebb573d6000803e3d6000fd5b505050506040513d601f19601f82011682018060405250810190610edf91906139d9565b8152602001600687604051610ef49190613792565b90815260200160405180910390205481525082600081518110610f1a57610f19613a06565b5b60200260200101819052506000600190505b8461ffff168161ffff161080156110ab57506110a9600584600184610f5191906138e3565b61ffff1681518110610f6657610f65613a06565b5b602002602001015160000151604051610f7f9190613792565b90815260200160405180910390206003018054610f9b906137d8565b80601f0160208091040260200160405190810160405280929190818152602001828054610fc7906137d8565b80156110145780601f10610fe957610100808354040283529160200191611014565b820191906000526020600020905b815481529060010190602001808311610ff757829003601f168201915b505050505060018054611026906137d8565b80601f0160208091040260200160405190810160405280929190818152602001828054611052906137d8565b801561109f5780601f106110745761010080835404028352916020019161109f565b820191906000526020600020905b81548152906001019060200180831161108257829003601f168201915b5050505050612938565b155b156113765760006005846001846110c291906138e3565b61ffff16815181106110d7576110d6613a06565b5b6020026020010151600001516040516110f09190613792565b9081526020016040518091039020600301805461110c906137d8565b80601f0160208091040260200160405190810160405280929190818152602001828054611138906137d8565b80156111855780601f1061115a57610100808354040283529160200191611185565b820191906000526020600020905b81548152906001019060200180831161116857829003601f168201915b5050505050905060405180608001604052808281526020018473ffffffffffffffffffffffffffffffffffffffff1663de129f4e6005856040516111c99190613792565b908152602001604051809103902060000160009054906101000a900473ffffffffffffffffffffffffffffffffffffffff166040518263ffffffff1660e01b81526004016112179190613992565b602060405180830381865afa158015611234573d6000803e3d6000fd5b505050506040513d601f19601f8201168201806040525081019061125891906139d9565b81526020018473ffffffffffffffffffffffffffffffffffffffff16637a7664606005856040516112899190613792565b908152602001604051809103902060000160009054906101000a900473ffffffffffffffffffffffffffffffffffffffff166040518263ffffffff1660e01b81526004016112d79190613992565b602060405180830381865afa1580156112f4573d6000803e3d6000fd5b505050506040513d601f19601f8201168201806040525081019061131891906139d9565b815260200160068360405161132d9190613792565b908152602001604051809103902054815250848361ffff168151811061135657611355613a06565b5b602002602001018190525060018261136e9190613a35565b915050610f2c565b8293505050505b92915050565b606061142960028054611395906137d8565b80601f01602080910402602001604051908101604052809291908181526020018280546113c1906137d8565b801561140e5780601f106113e35761010080835404028352916020019161140e565b820191906000526020600020905b8154815290600101906020018083116113f157829003601f168201915b5050505050600460009054906101000a900461ffff16610acc565b905090565b60008054906101000a900473ffffffffffffffffffffffffffffffffffffffff1681565b60008054906101000a900473ffffffffffffffffffffffffffffffffffffffff1673ffffffffffffffffffffffffffffffffffffffff166304433bbc6040518163ffffffff1660e01b81526004016114a990613ab9565b602060405180830381865afa1580156114c6573d6000803e3d6000fd5b505050506040513d601f19601f820116820180604052508101906114ea9190613686565b73ffffffffffffffffffffffffffffffffffffffff163373ffffffffffffffffffffffffffffffffffffffff1614611557576040517f08c379a000000000000000000000000000000000000000000000000000000000815260040161154e90613b4b565b60405180910390fd5b61156081612a25565b60008060009054906101000a900473ffffffffffffffffffffffffffffffffffffffff1673ffffffffffffffffffffffffffffffffffffffff166304433bbc6040518163ffffffff1660e01b81526004016115ba90613963565b602060405180830381865afa1580156115d7573d6000803e3d6000fd5b505050506040513d601f19601f820116820180604052508101906115fb9190613686565b905060008173ffffffffffffffffffffffffffffffffffffffff1663b56e4129846040518263ffffffff1660e01b81526004016116389190613992565b600060405180830381865afa158015611655573d6000803e3d6000fd5b505050506040513d6000823e3d601f19601f8201168201806040525081019061167e9190613bdb565b905061179e60028054611690906137d8565b80601f01602080910402602001604051908101604052809291908181526020018280546116bc906137d8565b80156117095780601f106116de57610100808354040283529160200191611709565b820191906000526020600020905b8154815290600101906020018083116116ec57829003601f168201915b50505050506001805461171b906137d8565b80601f0160208091040260200160405190810160405280929190818152602001828054611747906137d8565b80156117945780601f1061176957610100808354040283529160200191611794565b820191906000526020600020905b81548152906001019060200180831161177757829003601f168201915b5050505050612938565b6118375761183681600280546117b3906137d8565b80601f01602080910402602001604051908101604052809291908181526020018280546117df906137d8565b801561182c5780601f106118015761010080835404028352916020019161182c565b820191906000526020600020905b81548152906001019060200180831161180f57829003601f168201915b50505050506129b5565b5b61184081612981565b61195e60038054611850906137d8565b80601f016020809104026020016040519081016040528092919081815260200182805461187c906137d8565b80156118c95780601f1061189e576101008083540402835291602001916118c9565b820191906000526020600020905b8154815290600101906020018083116118ac57829003601f168201915b5050505050600180546118db906137d8565b80601f0160208091040260200160405190810160405280929190818152602001828054611907906137d8565b80156119545780601f1061192957610100808354040283529160200191611954565b820191906000526020600020905b81548152906001019060200180831161193757829003601f168201915b5050505050612938565b1561196d5761196c8161299b565b5b6001600460008282829054906101000a900461ffff1661198d9190613a35565b92506101000a81548161ffff021916908361ffff160217905550505050565b60008054906101000a900473ffffffffffffffffffffffffffffffffffffffff1673ffffffffffffffffffffffffffffffffffffffff166304433bbc6040518163ffffffff1660e01b8152600401611a0390613ab9565b602060405180830381865afa158015611a20573d6000803e3d6000fd5b505050506040513d601f19601f82011682018060405250810190611a449190613686565b73ffffffffffffffffffffffffffffffffffffffff163373ffffffffffffffffffffffffffffffffffffffff1614611ab1576040517f08c379a0000000000000000000000000000000000000000000000000000000008152600401611aa890613b4b565b60405180910390fd5b611aba81612a25565b60008060009054906101000a900473ffffffffffffffffffffffffffffffffffffffff1673ffffffffffffffffffffffffffffffffffffffff166304433bbc6040518163ffffffff1660e01b8152600401611b1490613963565b602060405180830381865afa158015611b31573d6000803e3d6000fd5b505050506040513d601f19601f82011682018060405250810190611b559190613686565b905060008173ffffffffffffffffffffffffffffffffffffffff1663b56e4129846040518263ffffffff1660e01b8152600401611b929190613992565b600060405180830381865afa158015611baf573d6000803e3d6000fd5b505050506040513d6000823e3d601f19601f82011682018060405250810190611bd89190613bdb565b9050611cf860038054611bea906137d8565b80601f0160208091040260200160405190810160405280929190818152602001828054611c16906137d8565b8015611c635780601f10611c3857610100808354040283529160200191611c63565b820191906000526020600020905b815481529060010190602001808311611c4657829003601f168201915b505050505060018054611c75906137d8565b80601f0160208091040260200160405190810160405280929190818152602001828054611ca1906137d8565b8015611cee5780601f10611cc357610100808354040283529160200191611cee565b820191906000526020600020905b815481529060010190602001808311611cd157829003601f168201915b5050505050612938565b611d9157611d9060038054611d0c906137d8565b80601f0160208091040260200160405190810160405280929190818152602001828054611d38906137d8565b8015611d855780601f10611d5a57610100808354040283529160200191611d85565b820191906000526020600020905b815481529060010190602001808311611d6857829003601f168201915b5050505050826129b5565b5b611d9a8161299b565b611eb860028054611daa906137d8565b80601f0160208091040260200160405190810160405280929190818152602001828054611dd6906137d8565b8015611e235780601f10611df857610100808354040283529160200191611e23565b820191906000526020600020905b815481529060010190602001808311611e0657829003601f168201915b505050505060018054611e35906137d8565b80601f0160208091040260200160405190810160405280929190818152602001828054611e61906137d8565b8015611eae5780601f10611e8357610100808354040283529160200191611eae565b820191906000526020600020905b815481529060010190602001808311611e9157829003601f168201915b5050505050612938565b15611ec757611ec681612981565b5b6001600460008282829054906101000a900461ffff16611ee79190613a35565b92506101000a81548161ffff021916908361ffff160217905550505050565b60028054611f13906137d8565b80601f0160208091040260200160405190810160405280929190818152602001828054611f3f906137d8565b8015611f8c5780601f10611f6157610100808354040283529160200191611f8c565b820191906000526020600020905b815481529060010190602001808311611f6f57829003601f168201915b505050505081565b60008054906101000a900473ffffffffffffffffffffffffffffffffffffffff1673ffffffffffffffffffffffffffffffffffffffff166304433bbc6040518163ffffffff1660e01b8152600401611feb90613ab9565b602060405180830381865afa158015612008573d6000803e3d6000fd5b505050506040513d601f19601f8201168201806040525081019061202c9190613686565b73ffffffffffffffffffffffffffffffffffffffff163373ffffffffffffffffffffffffffffffffffffffff1614612099576040517f08c379a000000000000000000000000000000000000000000000000000000000815260040161209090613b4b565b60405180910390fd5b60008060009054906101000a900473ffffffffffffffffffffffffffffffffffffffff1673ffffffffffffffffffffffffffffffffffffffff166304433bbc6040518163ffffffff1660e01b81526004016120f390613963565b602060405180830381865afa158015612110573d6000803e3d6000fd5b505050506040513d601f19601f820116820180604052508101906121349190613686565b905060008173ffffffffffffffffffffffffffffffffffffffff1663b56e4129846040518263ffffffff1660e01b81526004016121719190613992565b600060405180830381865afa15801561218e573d6000803e3d6000fd5b505050506040513d6000823e3d601f19601f820116820180604052508101906121b79190613bdb565b905060006005826040516121cb9190613792565b90815260200160405180910390206040518060800160405290816000820160009054906101000a900473ffffffffffffffffffffffffffffffffffffffff1673ffffffffffffffffffffffffffffffffffffffff1673ffffffffffffffffffffffffffffffffffffffff16815260200160018201805461224a906137d8565b80601f0160208091040260200160405190810160405280929190818152602001828054612276906137d8565b80156122c35780601f10612298576101008083540402835291602001916122c3565b820191906000526020600020905b8154815290600101906020018083116122a657829003601f168201915b505050505081526020016002820180546122dc906137d8565b80601f0160208091040260200160405190810160405280929190818152602001828054612308906137d8565b80156123555780601f1061232a57610100808354040283529160200191612355565b820191906000526020600020905b81548152906001019060200180831161233857829003601f168201915b5050505050815260200160038201805461236e906137d8565b80601f016020809104026020016040519081016040528092919081815260200182805461239a906137d8565b80156123e75780601f106123bc576101008083540402835291602001916123e7565b820191906000526020600020905b8154815290600101906020018083116123ca57829003601f168201915b505050505081525050905061248660028054612402906137d8565b80601f016020809104026020016040519081016040528092919081815260200182805461242e906137d8565b801561247b5780601f106124505761010080835404028352916020019161247b565b820191906000526020600020905b81548152906001019060200180831161245e57829003601f168201915b505050505083612938565b801561252257506125216003805461249d906137d8565b80601f01602080910402602001604051908101604052809291908181526020018280546124c9906137d8565b80156125165780601f106124eb57610100808354040283529160200191612516565b820191906000526020600020905b8154815290600101906020018083116124f957829003601f168201915b505050505083612938565b5b15612652576125ba60018054612537906137d8565b80601f0160208091040260200160405190810160405280929190818152602001828054612563906137d8565b80156125b05780601f10612585576101008083540402835291602001916125b0565b820191906000526020600020905b81548152906001019060200180831161259357829003601f168201915b5050505050612981565b61264d600180546125ca906137d8565b80601f01602080910402602001604051908101604052809291908181526020018280546125f6906137d8565b80156126435780601f1061261857610100808354040283529160200191612643565b820191906000526020600020905b81548152906001019060200180831161262657829003601f168201915b505050505061299b565b612835565b6126e660028054612662906137d8565b80601f016020809104026020016040519081016040528092919081815260200182805461268e906137d8565b80156126db5780601f106126b0576101008083540402835291602001916126db565b820191906000526020600020905b8154815290600101906020018083116126be57829003601f168201915b505050505083612938565b15612739576126f88160600151612981565b60016005600260405161270b919061389d565b9081526020016040518091039020600201908054612728906137d8565b612733929190612f01565b50612834565b6127cd60038054612749906137d8565b80601f0160208091040260200160405190810160405280929190818152602001828054612775906137d8565b80156127c25780601f10612797576101008083540402835291602001916127c2565b820191906000526020600020905b8154815290600101906020018083116127a557829003601f168201915b505050505083612938565b15612820576127df816040015161299b565b6001600560036040516127f2919061389d565b908152602001604051809103902060030190805461280f906137d8565b61281a929190612f01565b50612833565b612832816040015182606001516129b5565b5b5b5b6005826040516128459190613792565b9081526020016040518091039020600080820160006101000a81549073ffffffffffffffffffffffffffffffffffffffff021916905560018201600061288b9190612f8e565b60028201600061289b9190612f8e565b6003820160006128ab9190612f8e565b50506001600460008282829054906101000a900461ffff166128cd91906138e3565b92506101000a81548161ffff021916908361ffff1602179055507fe205888acbb768f3542b55524208304eb30bc6221a431e1178015e87fb1ca7938260405161291691906132c7565b60405180910390a150505050565b600460009054906101000a900461ffff1681565b600060068260405161294a9190613792565b9081526020016040518091039020546006846040516129699190613792565b90815260200160405180910390205414905092915050565b8060029080519060200190612997929190612ff9565b5050565b80600390805190602001906129b1929190612ff9565b5050565b806005836040516129c69190613792565b908152602001604051809103902060030190805190602001906129ea929190612ff9565b50816005826040516129fc9190613792565b90815260200160405180910390206002019080519060200190612a20929190612ff9565b505050565b60008060009054906101000a900473ffffffffffffffffffffffffffffffffffffffff1673ffffffffffffffffffffffffffffffffffffffff166304433bbc6040518163ffffffff1660e01b8152600401612a7f90613963565b602060405180830381865afa158015612a9c573d6000803e3d6000fd5b505050506040513d601f19601f82011682018060405250810190612ac09190613686565b905060008173ffffffffffffffffffffffffffffffffffffffff1663b56e4129846040518263ffffffff1660e01b8152600401612afd9190613992565b600060405180830381865afa158015612b1a573d6000803e3d6000fd5b505050506040513d6000823e3d601f19601f82011682018060405250810190612b439190613bdb565b90506000600282604051612b579190613792565b602060405180830381855afa158015612b74573d6000803e3d6000fd5b5050506040513d601f19601f82011682018060405250810190612b979190613c50565b9050600060405180608001604052808673ffffffffffffffffffffffffffffffffffffffff16815260200184815260200160018054612bd5906137d8565b80601f0160208091040260200160405190810160405280929190818152602001828054612c01906137d8565b8015612c4e5780601f10612c2357610100808354040283529160200191612c4e565b820191906000526020600020905b815481529060010190602001808311612c3157829003601f168201915b5050505050815260200160018054612c65906137d8565b80601f0160208091040260200160405190810160405280929190818152602001828054612c91906137d8565b8015612cde5780601f10612cb357610100808354040283529160200191612cde565b820191906000526020600020905b815481529060010190602001808311612cc157829003601f168201915b5050505050815250905080600584604051612cf99190613792565b908152602001604051809103902060008201518160000160006101000a81548173ffffffffffffffffffffffffffffffffffffffff021916908373ffffffffffffffffffffffffffffffffffffffff1602179055506020820151816001019080519060200190612d6a929190612ff9565b506040820151816002019080519060200190612d87929190612ff9565b506060820151816003019080519060200190612da4929190612ff9565b5090505081600684604051612db99190613792565b9081526020016040518091039020819055507fb6404cbe54b50f26abd792c257e9cf81f6589fc5f8a16f2cdce0b0360ee06dec838573ffffffffffffffffffffffffffffffffffffffff1663de129f4e886040518263ffffffff1660e01b8152600401612e269190613992565b602060405180830381865afa158015612e43573d6000803e3d6000fd5b505050506040513d601f19601f82011682018060405250810190612e6791906139d9565b8673ffffffffffffffffffffffffffffffffffffffff16637a766460896040518263ffffffff1660e01b8152600401612ea09190613992565b602060405180830381865afa158015612ebd573d6000803e3d6000fd5b505050506040513d601f19601f82011682018060405250810190612ee191906139d9565b85604051612ef29493929190613c9b565b60405180910390a15050505050565b828054612f0d906137d8565b90600052602060002090601f016020900481019282612f2f5760008555612f7d565b82601f10612f405780548555612f7d565b82800160010185558215612f7d57600052602060002091601f016020900482015b82811115612f7c578254825591600101919060010190612f61565b5b509050612f8a919061307f565b5090565b508054612f9a906137d8565b6000825580601f10612fac5750612fcb565b601f016020900490600052602060002090810190612fca919061307f565b5b50565b6040518060800160405280606081526020016000815260200160008152602001600080191681525090565b828054613005906137d8565b90600052602060002090601f016020900481019282613027576000855561306e565b82601f1061304057805160ff191683800117855561306e565b8280016001018555821561306e579182015b8281111561306d578251825591602001919060010190613052565b5b50905061307b919061307f565b5090565b5b80821115613098576000816000905550600101613080565b5090565b6000604051905090565b600080fd5b600080fd5b600080fd5b600080fd5b6000601f19601f8301169050919050565b7f4e487b7100000000000000000000000000000000000000000000000000000000600052604160045260246000fd5b613103826130ba565b810181811067ffffffffffffffff82111715613122576131216130cb565b5b80604052505050565b600061313561309c565b905061314182826130fa565b919050565b600067ffffffffffffffff821115613161576131606130cb565b5b61316a826130ba565b9050602081019050919050565b82818337600083830152505050565b600061319961319484613146565b61312b565b9050828152602081018484840111156131b5576131b46130b5565b5b6131c0848285613177565b509392505050565b600082601f8301126131dd576131dc6130b0565b5b81356131ed848260208601613186565b91505092915050565b60006020828403121561320c5761320b6130a6565b5b600082013567ffffffffffffffff81111561322a576132296130ab565b5b613236848285016131c8565b91505092915050565b600081519050919050565b600082825260208201905092915050565b60005b8381101561327957808201518184015260208101905061325e565b83811115613288576000848401525b50505050565b60006132998261323f565b6132a3818561324a565b93506132b381856020860161325b565b6132bc816130ba565b840191505092915050565b600060208201905081810360008301526132e1818461328e565b905092915050565b600061ffff82169050919050565b613300816132e9565b811461330b57600080fd5b50565b60008135905061331d816132f7565b92915050565b6000806040838503121561333a576133396130a6565b5b600083013567ffffffffffffffff811115613358576133576130ab565b5b613364858286016131c8565b92505060206133758582860161330e565b9150509250929050565b600081519050919050565b600082825260208201905092915050565b6000819050602082019050919050565b600082825260208201905092915050565b60006133c78261323f565b6133d181856133ab565b93506133e181856020860161325b565b6133ea816130ba565b840191505092915050565b6000819050919050565b613408816133f5565b82525050565b6000819050919050565b6134218161340e565b82525050565b6000608083016000830151848203600086015261344482826133bc565b915050602083015161345960208601826133ff565b50604083015161346c60408601826133ff565b50606083015161347f6060860182613418565b508091505092915050565b60006134968383613427565b905092915050565b6000602082019050919050565b60006134b68261337f565b6134c0818561338a565b9350836020820285016134d28561339b565b8060005b8581101561350e57848403895281516134ef858261348a565b94506134fa8361349e565b925060208a019950506001810190506134d6565b50829750879550505050505092915050565b6000602082019050818103600083015261353a81846134ab565b905092915050565b600073ffffffffffffffffffffffffffffffffffffffff82169050919050565b6000819050919050565b600061358761358261357d84613542565b613562565b613542565b9050919050565b60006135998261356c565b9050919050565b60006135ab8261358e565b9050919050565b6135bb816135a0565b82525050565b60006020820190506135d660008301846135b2565b92915050565b60006135e782613542565b9050919050565b6135f7816135dc565b811461360257600080fd5b50565b600081359050613614816135ee565b92915050565b6000602082840312156136305761362f6130a6565b5b600061363e84828501613605565b91505092915050565b613650816132e9565b82525050565b600060208201905061366b6000830184613647565b92915050565b600081519050613680816135ee565b92915050565b60006020828403121561369c5761369b6130a6565b5b60006136aa84828501613671565b91505092915050565b600082825260208201905092915050565b7f46756e6374696f6e2063616e206f6e6c792062652063616c6c6564206279206860008201527f7562206f776e6572210000000000000000000000000000000000000000000000602082015250565b60006137206029836136b3565b915061372b826136c4565b604082019050919050565b6000602082019050818103600083015261374f81613713565b9050919050565b600081905092915050565b600061376c8261323f565b6137768185613756565b935061378681856020860161325b565b80840191505092915050565b600061379e8284613761565b915081905092915050565b7f4e487b7100000000000000000000000000000000000000000000000000000000600052602260045260246000fd5b600060028204905060018216806137f057607f821691505b602082108103613803576138026137a9565b5b50919050565b60008190508160005260206000209050919050565b6000815461382b816137d8565b6138358186613756565b94506001821660008114613850576001811461386157613894565b60ff19831686528186019350613894565b61386a85613809565b60005b8381101561388c5781548189015260018201915060208101905061386d565b838801955050505b50505092915050565b60006138a9828461381e565b915081905092915050565b7f4e487b7100000000000000000000000000000000000000000000000000000000600052601160045260246000fd5b60006138ee826132e9565b91506138f9836132e9565b92508282101561390c5761390b6138b4565b5b828203905092915050565b7f50726f66696c6553746f72616765000000000000000000000000000000000000600082015250565b600061394d600e836136b3565b915061395882613917565b602082019050919050565b6000602082019050818103600083015261397c81613940565b9050919050565b61398c816135dc565b82525050565b60006020820190506139a76000830184613983565b92915050565b6139b6816133f5565b81146139c157600080fd5b50565b6000815190506139d3816139ad565b92915050565b6000602082840312156139ef576139ee6130a6565b5b60006139fd848285016139c4565b91505092915050565b7f4e487b7100000000000000000000000000000000000000000000000000000000600052603260045260246000fd5b6000613a40826132e9565b9150613a4b836132e9565b92508261ffff03821115613a6257613a616138b4565b5b828201905092915050565b7f50726f66696c6500000000000000000000000000000000000000000000000000600082015250565b6000613aa36007836136b3565b9150613aae82613a6d565b602082019050919050565b60006020820190508181036000830152613ad281613a96565b9050919050565b7f46756e6374696f6e2063616e206f6e6c792062652063616c6c6564206279205060008201527f726f66696c6520636f6e74726163742100000000000000000000000000000000602082015250565b6000613b356030836136b3565b9150613b4082613ad9565b604082019050919050565b60006020820190508181036000830152613b6481613b28565b9050919050565b6000613b7e613b7984613146565b61312b565b905082815260208101848484011115613b9a57613b996130b5565b5b613ba584828561325b565b509392505050565b600082601f830112613bc257613bc16130b0565b5b8151613bd2848260208601613b6b565b91505092915050565b600060208284031215613bf157613bf06130a6565b5b600082015167ffffffffffffffff811115613c0f57613c0e6130ab565b5b613c1b84828501613bad565b91505092915050565b613c2d8161340e565b8114613c3857600080fd5b50565b600081519050613c4a81613c24565b92915050565b600060208284031215613c6657613c656130a6565b5b6000613c7484828501613c3b565b91505092915050565b613c86816133f5565b82525050565b613c958161340e565b82525050565b60006080820190508181036000830152613cb5818761328e565b9050613cc46020830186613c7d565b613cd16040830185613c7d565b613cde6060830184613c8c565b9594505050505056fea264697066735822122058250937a1c2249a16732e382f669954906680f279efe9a683ec4fe139a8915c64736f6c634300080e0033",
  "immutableReferences": {},
  "source": "// SPDX-License-Identifier: MIT\n\npragma solidity^0.8.0;\n\nimport {Hub} from './Hub.sol';\nimport {ProfileStorage} from './storage/ProfileStorage.sol';\n\n\ncontract ShardingTable {\n    event NodeObjCreated(bytes nodeId, uint256 ask, uint256 stake, bytes32 nodeIdSha256);\n    event NodeRemoved(bytes nodeId);\n\n    struct Node {\n        address identity;\n        bytes id;\n        bytes prevNodeId;\n        bytes nextNodeId;\n    }\n\n    struct NodeInfo {\n        bytes id;\n        uint256 ask;\n        uint256 stake;\n        bytes32 idSha256;\n    }\n\n    Hub public hub;\n\n    bytes private emptyPointer;\n    bytes public head;\n    bytes public tail;\n    uint16 public nodesCount;\n\n    mapping(bytes => Node) nodes;\n    mapping(bytes => bytes32) nodeIdsSha256;\n\n    constructor(address hubAddress) {\n        require(hubAddress != address(0));\n        hub = Hub(hubAddress);\n\n        emptyPointer = \"\";\n        nodeIdsSha256[emptyPointer] = sha256(emptyPointer);\n        head = emptyPointer;\n        tail = emptyPointer;\n        nodesCount = 0;\n    }\n\n    modifier onlyProfile() {\n        require(msg.sender == hub.getContractAddress(\"Profile\"),\n        \"Function can only be called by Profile contract!\");\n        _;\n    }\n\n    modifier onlyHubOwner() {\n        require (\n            msg.sender == hub.owner(),\n            \"Function can only be called by hub owner!\"\n        );\n        _;\n    }\n\n    function getShardingTable(bytes memory startingNodeId, uint16 nodesNumber)\n        public\n        view\n        returns (NodeInfo[] memory)\n    {\n        require(\n            !_equalIdHashes(nodes[startingNodeId].id, \"\") ||\n            _equalIdHashes(startingNodeId, emptyPointer)\n        );\n\n        NodeInfo[] memory nodesPage;\n\n        if (nodesCount == 0) {\n            return nodesPage;\n        }\n\n        nodesPage = new NodeInfo[](nodesNumber);\n\n        ProfileStorage profileStorageContract = ProfileStorage(hub.getContractAddress(\"ProfileStorage\"));\n\n        nodesPage[0] = NodeInfo(\n            startingNodeId,\n            profileStorageContract.getAsk(nodes[startingNodeId].identity),\n            profileStorageContract.getStake(nodes[startingNodeId].identity),\n            nodeIdsSha256[startingNodeId]\n        );\n\n        uint16 i = 1;\n        while (i < nodesNumber && !_equalIdHashes(nodes[nodesPage[i-1].id].nextNodeId, emptyPointer)) {\n            bytes memory nextNodeId = nodes[nodesPage[i-1].id].nextNodeId;\n\n            nodesPage[i] = NodeInfo(\n                nextNodeId,\n                profileStorageContract.getAsk(nodes[nextNodeId].identity),\n                profileStorageContract.getStake(nodes[nextNodeId].identity),\n                nodeIdsSha256[nextNodeId]\n            );\n            i += 1;\n        }\n        return nodesPage;\n    }\n\n    function getShardingTable()\n        public\n        view\n        returns (NodeInfo[] memory)\n    {\n        return getShardingTable(head, nodesCount);\n    }\n\n    function pushBack(address identity)\n        public\n        onlyProfile\n    {\n        _createNodeObj(identity);\n    \n        ProfileStorage profileStorageContract = ProfileStorage(hub.getContractAddress(\"ProfileStorage\"));\n        bytes memory nodeId = profileStorageContract.getNodeId(identity);\n\n        if (!_equalIdHashes(tail, emptyPointer)) _link(tail, nodeId);\n        _setTail(nodeId);\n\n        if (_equalIdHashes(head, emptyPointer)) _setHead(nodeId);\n\n        nodesCount += 1;\n    }\n\n    function pushFront(address identity)\n        public\n        onlyProfile\n    {\n        _createNodeObj(identity);\n\n        ProfileStorage profileStorageContract = ProfileStorage(hub.getContractAddress(\"ProfileStorage\"));\n        bytes memory nodeId = profileStorageContract.getNodeId(identity);\n\n        if (!_equalIdHashes(head, emptyPointer)) _link(nodeId, head);\n        _setHead(nodeId);\n\n        if (_equalIdHashes(tail, emptyPointer)) _setTail(nodeId);\n\n        nodesCount += 1;\n    }\n\n    function removeNode(address identity)\n        public\n        onlyProfile\n    {\n        ProfileStorage profileStorageContract = ProfileStorage(hub.getContractAddress(\"ProfileStorage\"));\n        bytes memory nodeId = profileStorageContract.getNodeId(identity);\n\n        Node memory nodeToRemove = nodes[nodeId];\n\n        if (_equalIdHashes(head, nodeId) && _equalIdHashes(tail, nodeId)) {\n            _setHead(emptyPointer);\n            _setTail(emptyPointer);\n        }\n        else if (_equalIdHashes(head, nodeId)) {\n            _setHead(nodeToRemove.nextNodeId);\n            nodes[head].prevNodeId = emptyPointer;\n        }\n        else if (_equalIdHashes(tail, nodeId)) {\n            _setTail(nodeToRemove.prevNodeId);\n            nodes[tail].nextNodeId = emptyPointer;\n        }\n        else {\n            _link(nodeToRemove.prevNodeId, nodeToRemove.nextNodeId);\n        }\n\n        delete nodes[nodeId];\n\n        nodesCount -= 1;\n    \n        emit NodeRemoved(nodeId);\n    }\n\n    function removeNodeById(bytes memory nodeId)\n        public\n        onlyHubOwner\n    {\n        Node memory nodeToRemove = nodes[nodeId];\n\n        if (_equalIdHashes(head, nodeId) && _equalIdHashes(tail, nodeId)) {\n            _setHead(emptyPointer);\n            _setTail(emptyPointer);\n        }\n        else if (_equalIdHashes(head, nodeId)) {\n            _setHead(nodeToRemove.nextNodeId);\n            nodes[head].prevNodeId = emptyPointer;\n        }\n        else if (_equalIdHashes(tail, nodeId)) {\n            _setTail(nodeToRemove.prevNodeId);\n            nodes[tail].nextNodeId = emptyPointer;\n        }\n        else {\n            _link(nodeToRemove.prevNodeId, nodeToRemove.nextNodeId);\n        }\n\n        delete nodes[nodeId];\n\n        nodesCount -= 1;\n    \n        emit NodeRemoved(nodeId);\n    }\n\n    function _createNodeObj(address identity)\n        internal\n    {\n        ProfileStorage profileStorageContract = ProfileStorage(hub.getContractAddress(\"ProfileStorage\"));\n\n        bytes memory nodeId = profileStorageContract.getNodeId(identity);\n        bytes32 nodeIdSha256 = sha256(nodeId);\n\n        Node memory newNode = Node(\n            identity,\n            nodeId,\n            emptyPointer,\n            emptyPointer\n        );\n\n        nodes[nodeId] = newNode;\n        nodeIdsSha256[nodeId] = nodeIdSha256;\n\n        emit NodeObjCreated(\n            nodeId,\n            profileStorageContract.getAsk(identity),\n            profileStorageContract.getStake(identity),\n            nodeIdSha256\n        );\n    }\n\n    function _setHead(bytes memory nodeId)\n        internal\n    {\n        head = nodeId;\n    }\n\n    function _setTail(bytes memory nodeId)\n        internal\n    {\n        tail = nodeId;\n    }\n\n    function _link(bytes memory _leftNodeId, bytes memory _rightNodeId)\n        internal\n    {\n        nodes[_leftNodeId].nextNodeId = _rightNodeId;\n        nodes[_rightNodeId].prevNodeId = _leftNodeId;\n    }\n\n    function _equalIdHashes(bytes memory _firstId, bytes memory _secondId)\n        internal\n        view\n        returns (bool)\n    {\n        return nodeIdsSha256[_firstId] == nodeIdsSha256[_secondId];\n    }\n}\n",
  "sourcePath": "/Users/waving/Desktop/OriginTrail/dkg-evm-module/contracts/ShardingTable.sol",
  "compiler": {
    "name": "solc",
    "version": "0.8.14+commit.80d49f37.Emscripten.clang"
  },
  "schemaVersion": "3.4.10",
  "updatedAt": "2022-11-03T14:14:07.373Z",
  "devdoc": {
    "kind": "dev",
    "methods": {},
    "version": 1
  },
  "userdoc": {
    "kind": "user",
    "methods": {},
    "version": 1
  }
}