{
  "contractName": "ShardingTable",
  "abi": [
    {
      "inputs": [],
      "stateMutability": "nonpayable",
      "type": "constructor"
    },
    {
      "anonymous": false,
      "inputs": [
        {
          "indexed": false,
          "internalType": "string",
          "name": "peerId",
          "type": "string"
        },
        {
          "indexed": false,
          "internalType": "uint32",
          "name": "stake",
          "type": "uint32"
        },
        {
          "indexed": false,
          "internalType": "uint8",
          "name": "ask",
          "type": "uint8"
        }
      ],
      "name": "PeerObjCreated",
      "type": "event"
    },
    {
      "anonymous": false,
      "inputs": [
        {
          "indexed": false,
          "internalType": "string",
          "name": "peerId",
          "type": "string"
        },
        {
          "indexed": false,
          "internalType": "uint32",
          "name": "stake",
          "type": "uint32"
        },
        {
          "indexed": false,
          "internalType": "uint8",
          "name": "ask",
          "type": "uint8"
        }
      ],
      "name": "PeerParamsUpdated",
      "type": "event"
    },
    {
      "anonymous": false,
      "inputs": [
        {
          "indexed": false,
          "internalType": "string",
          "name": "peerId",
          "type": "string"
        }
      ],
      "name": "PeerRemoved",
      "type": "event"
    },
    {
      "inputs": [],
      "name": "head",
      "outputs": [
        {
          "internalType": "string",
          "name": "",
          "type": "string"
        }
      ],
      "stateMutability": "view",
      "type": "function"
    },
    {
      "inputs": [],
      "name": "peerCount",
      "outputs": [
        {
          "internalType": "uint16",
          "name": "",
          "type": "uint16"
        }
      ],
      "stateMutability": "view",
      "type": "function"
    },
    {
      "inputs": [],
      "name": "tail",
      "outputs": [
        {
          "internalType": "string",
          "name": "",
          "type": "string"
        }
      ],
      "stateMutability": "view",
      "type": "function"
    },
    {
      "inputs": [
        {
          "internalType": "string",
          "name": "peerId",
          "type": "string"
        }
      ],
      "name": "getPeer",
      "outputs": [
        {
          "internalType": "string",
          "name": "",
          "type": "string"
        },
        {
          "internalType": "uint32",
          "name": "",
          "type": "uint32"
        },
        {
          "internalType": "uint8",
          "name": "",
          "type": "uint8"
        }
      ],
      "stateMutability": "view",
      "type": "function"
    },
    {
      "inputs": [],
      "name": "getShardingTable",
      "outputs": [
        {
          "components": [
            {
              "internalType": "string",
              "name": "prevPeer",
              "type": "string"
            },
            {
              "internalType": "string",
              "name": "nextPeer",
              "type": "string"
            },
            {
              "internalType": "string",
              "name": "id",
              "type": "string"
            },
            {
              "internalType": "uint32",
              "name": "stake",
              "type": "uint32"
            },
            {
              "internalType": "uint8",
              "name": "ask",
              "type": "uint8"
            }
          ],
          "internalType": "struct ShardingTable.Peer[]",
          "name": "",
          "type": "tuple[]"
        }
      ],
      "stateMutability": "view",
      "type": "function"
    },
    {
      "inputs": [
        {
          "internalType": "string",
          "name": "startingPeerId",
          "type": "string"
        },
        {
          "internalType": "uint16",
          "name": "nodesNumber",
          "type": "uint16"
        }
      ],
      "name": "getShardingTable",
      "outputs": [
        {
          "components": [
            {
              "internalType": "string",
              "name": "prevPeer",
              "type": "string"
            },
            {
              "internalType": "string",
              "name": "nextPeer",
              "type": "string"
            },
            {
              "internalType": "string",
              "name": "id",
              "type": "string"
            },
            {
              "internalType": "uint32",
              "name": "stake",
              "type": "uint32"
            },
            {
              "internalType": "uint8",
              "name": "ask",
              "type": "uint8"
            }
          ],
          "internalType": "struct ShardingTable.Peer[]",
          "name": "",
          "type": "tuple[]"
        }
      ],
      "stateMutability": "view",
      "type": "function"
    },
    {
      "inputs": [
        {
          "internalType": "string",
          "name": "peerId",
          "type": "string"
        },
        {
          "internalType": "uint32",
          "name": "stake",
          "type": "uint32"
        },
        {
          "internalType": "uint8",
          "name": "ask",
          "type": "uint8"
        }
      ],
      "name": "pushBack",
      "outputs": [],
      "stateMutability": "nonpayable",
      "type": "function"
    },
    {
      "inputs": [
        {
          "internalType": "string",
          "name": "peerId",
          "type": "string"
        },
        {
          "internalType": "uint32",
          "name": "stake",
          "type": "uint32"
        },
        {
          "internalType": "uint8",
          "name": "ask",
          "type": "uint8"
        }
      ],
      "name": "pushFront",
      "outputs": [],
      "stateMutability": "nonpayable",
      "type": "function"
    },
    {
      "inputs": [
        {
          "internalType": "string",
          "name": "peerId",
          "type": "string"
        }
      ],
      "name": "removePeer",
      "outputs": [],
      "stateMutability": "nonpayable",
      "type": "function"
    },
    {
      "inputs": [
        {
          "internalType": "string",
          "name": "peerId",
          "type": "string"
        },
        {
          "internalType": "uint32",
          "name": "newStake",
          "type": "uint32"
        },
        {
          "internalType": "uint8",
          "name": "newAsk",
          "type": "uint8"
        }
      ],
      "name": "updateParams",
      "outputs": [],
      "stateMutability": "nonpayable",
      "type": "function"
    }
  ],
  "bytecode": "0x60806040523480156200001157600080fd5b506040518060200160405280600081525060009080519060200190620000399291906200009e565b50600060019080546200004c9062000215565b620000599291906200012f565b50600060029080546200006c9062000215565b620000799291906200012f565b506000600360006101000a81548161ffff021916908361ffff1602179055506200024a565b828054620000ac9062000215565b90600052602060002090601f016020900481019282620000d057600085556200011c565b82601f10620000eb57805160ff19168380011785556200011c565b828001600101855582156200011c579182015b828111156200011b578251825591602001919060010190620000fe565b5b5090506200012b9190620001c7565b5090565b8280546200013d9062000215565b90600052602060002090601f016020900481019282620001615760008555620001b4565b82601f10620001745780548555620001b4565b82800160010185558215620001b457600052602060002091601f016020900482015b82811115620001b357825482559160010191906001019062000196565b5b509050620001c39190620001c7565b5090565b5b80821115620001e2576000816000905550600101620001c8565b5090565b7f4e487b7100000000000000000000000000000000000000000000000000000000600052602260045260246000fd5b600060028204905060018216806200022e57607f821691505b602082108103620002445762000243620001e6565b5b50919050565b61297d806200025a6000396000f3fe608060405234801561001057600080fd5b506004361061009d5760003560e01c80638f7dcfa3116100665780638f7dcfa314610148578063bd2824ea14610166578063e81ea59514610196578063ee8c6599146101b4578063f683d96c146101d05761009d565b80626292db146100a257806313d8c840146100be578063289220c6146100dc57806358cf4ab6146100fa5780637823387e1461012c575b600080fd5b6100bc60048036038101906100b7919061217a565b6101ec565b005b6100c6610523565b6040516100d39190612271565b60405180910390f35b6100e46105b1565b6040516100f19190612441565b60405180910390f35b610114600480360381019061010f91906124c3565b61065c565b6040516101239392919061252e565b60405180910390f35b6101466004803603810190610141919061217a565b6108a6565b005b61015061096e565b60405161015d9190612271565b60405180910390f35b610180600480360381019061017b91906125a6565b6109fc565b60405161018d9190612441565b60405180910390f35b61019e611055565b6040516101ab9190612611565b60405180910390f35b6101ce60048036038101906101c9919061217a565b611069565b005b6101ea60048036038101906101e5919061262c565b6113a0565b005b6101f7838383611afa565b61031560018054610207906126a4565b80601f0160208091040260200160405190810160405280929190818152602001828054610233906126a4565b80156102805780601f1061025557610100808354040283529160200191610280565b820191906000526020600020905b81548152906001019060200180831161026357829003601f168201915b505050505060008054610292906126a4565b80601f01602080910402602001604051908101604052809291908181526020018280546102be906126a4565b801561030b5780601f106102e05761010080835404028352916020019161030b565b820191906000526020600020905b8154815290600101906020018083116102ee57829003601f168201915b5050505050611d44565b6103ae576103ad836001805461032a906126a4565b80601f0160208091040260200160405190810160405280929190818152602001828054610356906126a4565b80156103a35780601f10610378576101008083540402835291602001916103a3565b820191906000526020600020905b81548152906001019060200180831161038657829003601f168201915b5050505050611d5f565b5b6103b783611dcf565b6104d5600280546103c7906126a4565b80601f01602080910402602001604051908101604052809291908181526020018280546103f3906126a4565b80156104405780601f1061041557610100808354040283529160200191610440565b820191906000526020600020905b81548152906001019060200180831161042357829003601f168201915b505050505060008054610452906126a4565b80601f016020809104026020016040519081016040528092919081815260200182805461047e906126a4565b80156104cb5780601f106104a0576101008083540402835291602001916104cb565b820191906000526020600020905b8154815290600101906020018083116104ae57829003601f168201915b5050505050611d44565b156104e4576104e383611de9565b5b6001600360008282829054906101000a900461ffff166105049190612704565b92506101000a81548161ffff021916908361ffff160217905550505050565b60028054610530906126a4565b80601f016020809104026020016040519081016040528092919081815260200182805461055c906126a4565b80156105a95780601f1061057e576101008083540402835291602001916105a9565b820191906000526020600020905b81548152906001019060200180831161058c57829003601f168201915b505050505081565b6060610657600180546105c3906126a4565b80601f01602080910402602001604051908101604052809291908181526020018280546105ef906126a4565b801561063c5780601f106106115761010080835404028352916020019161063c565b820191906000526020600020905b81548152906001019060200180831161061f57829003601f168201915b5050505050600360009054906101000a900461ffff166109fc565b905090565b606060008060006004868660405161067592919061276c565b90815260200160405180910390206040518060a001604052908160008201805461069e906126a4565b80601f01602080910402602001604051908101604052809291908181526020018280546106ca906126a4565b80156107175780601f106106ec57610100808354040283529160200191610717565b820191906000526020600020905b8154815290600101906020018083116106fa57829003601f168201915b50505050508152602001600182018054610730906126a4565b80601f016020809104026020016040519081016040528092919081815260200182805461075c906126a4565b80156107a95780601f1061077e576101008083540402835291602001916107a9565b820191906000526020600020905b81548152906001019060200180831161078c57829003601f168201915b505050505081526020016002820180546107c2906126a4565b80601f01602080910402602001604051908101604052809291908181526020018280546107ee906126a4565b801561083b5780601f106108105761010080835404028352916020019161083b565b820191906000526020600020905b81548152906001019060200180831161081e57829003601f168201915b505050505081526020016003820160009054906101000a900463ffffffff1663ffffffff1663ffffffff1681526020016003820160049054906101000a900460ff1660ff1660ff16815250509050806040015181606001518260800151935093509350509250925092565b60006004846040516108b891906127b6565b90815260200160405180910390209050828160030160006101000a81548163ffffffff021916908363ffffffff160217905550818160030160046101000a81548160ff021916908360ff1602179055507f185b1cf146655c0ef33145022615a61d5a9d4d18093047925b329f4295acccf4848260030160009054906101000a900463ffffffff168360030160049054906101000a900460ff166040516109609392919061252e565b60405180910390a150505050565b6001805461097b906126a4565b80601f01602080910402602001604051908101604052809291908181526020018280546109a7906126a4565b80156109f45780601f106109c9576101008083540402835291602001916109f4565b820191906000526020600020905b8154815290600101906020018083116109d757829003601f168201915b505050505081565b606060008261ffff1611610a45576040517f08c379a0000000000000000000000000000000000000000000000000000000008152600401610a3c90612819565b60405180910390fd5b60008261ffff1667ffffffffffffffff811115610a6557610a64611fda565b5b604051908082528060200260200182016040528015610a9e57816020015b610a8b611e03565b815260200190600190039081610a835790505b509050600484604051610ab191906127b6565b90815260200160405180910390206040518060a0016040529081600082018054610ada906126a4565b80601f0160208091040260200160405190810160405280929190818152602001828054610b06906126a4565b8015610b535780601f10610b2857610100808354040283529160200191610b53565b820191906000526020600020905b815481529060010190602001808311610b3657829003601f168201915b50505050508152602001600182018054610b6c906126a4565b80601f0160208091040260200160405190810160405280929190818152602001828054610b98906126a4565b8015610be55780601f10610bba57610100808354040283529160200191610be5565b820191906000526020600020905b815481529060010190602001808311610bc857829003601f168201915b50505050508152602001600282018054610bfe906126a4565b80601f0160208091040260200160405190810160405280929190818152602001828054610c2a906126a4565b8015610c775780601f10610c4c57610100808354040283529160200191610c77565b820191906000526020600020905b815481529060010190602001808311610c5a57829003601f168201915b505050505081526020016003820160009054906101000a900463ffffffff1663ffffffff1663ffffffff1681526020016003820160049054906101000a900460ff1660ff1660ff168152505081600081518110610cd757610cd6612839565b5b60200260200101819052506000600190505b8361ffff168161ffff16108015610dbf5750610dbd82600183610d0c9190612868565b61ffff1681518110610d2157610d20612839565b5b60200260200101516020015160008054610d3a906126a4565b80601f0160208091040260200160405190810160405280929190818152602001828054610d66906126a4565b8015610db35780601f10610d8857610100808354040283529160200191610db3565b820191906000526020600020905b815481529060010190602001808311610d9657829003601f168201915b5050505050611d44565b155b1561104a57600482600183610dd49190612868565b61ffff1681518110610de957610de8612839565b5b602002602001015160200151604051610e0291906127b6565b90815260200160405180910390206040518060a0016040529081600082018054610e2b906126a4565b80601f0160208091040260200160405190810160405280929190818152602001828054610e57906126a4565b8015610ea45780601f10610e7957610100808354040283529160200191610ea4565b820191906000526020600020905b815481529060010190602001808311610e8757829003601f168201915b50505050508152602001600182018054610ebd906126a4565b80601f0160208091040260200160405190810160405280929190818152602001828054610ee9906126a4565b8015610f365780601f10610f0b57610100808354040283529160200191610f36565b820191906000526020600020905b815481529060010190602001808311610f1957829003601f168201915b50505050508152602001600282018054610f4f906126a4565b80601f0160208091040260200160405190810160405280929190818152602001828054610f7b906126a4565b8015610fc85780601f10610f9d57610100808354040283529160200191610fc8565b820191906000526020600020905b815481529060010190602001808311610fab57829003601f168201915b505050505081526020016003820160009054906101000a900463ffffffff1663ffffffff1663ffffffff1681526020016003820160049054906101000a900460ff1660ff1660ff1681525050828261ffff168151811061102b5761102a612839565b5b60200260200101819052506001816110439190612704565b9050610ce9565b819250505092915050565b600360009054906101000a900461ffff1681565b611074838383611afa565b61119260028054611084906126a4565b80601f01602080910402602001604051908101604052809291908181526020018280546110b0906126a4565b80156110fd5780601f106110d2576101008083540402835291602001916110fd565b820191906000526020600020905b8154815290600101906020018083116110e057829003601f168201915b50505050506000805461110f906126a4565b80601f016020809104026020016040519081016040528092919081815260200182805461113b906126a4565b80156111885780601f1061115d57610100808354040283529160200191611188565b820191906000526020600020905b81548152906001019060200180831161116b57829003601f168201915b5050505050611d44565b61122b5761122a600280546111a6906126a4565b80601f01602080910402602001604051908101604052809291908181526020018280546111d2906126a4565b801561121f5780601f106111f45761010080835404028352916020019161121f565b820191906000526020600020905b81548152906001019060200180831161120257829003601f168201915b505050505084611d5f565b5b61123483611de9565b61135260018054611244906126a4565b80601f0160208091040260200160405190810160405280929190818152602001828054611270906126a4565b80156112bd5780601f10611292576101008083540402835291602001916112bd565b820191906000526020600020905b8154815290600101906020018083116112a057829003601f168201915b5050505050600080546112cf906126a4565b80601f01602080910402602001604051908101604052809291908181526020018280546112fb906126a4565b80156113485780601f1061131d57610100808354040283529160200191611348565b820191906000526020600020905b81548152906001019060200180831161132b57829003601f168201915b5050505050611d44565b156113615761136083611dcf565b5b6001600360008282829054906101000a900461ffff166113819190612704565b92506101000a81548161ffff021916908361ffff160217905550505050565b60006004826040516113b291906127b6565b90815260200160405180910390206040518060a00160405290816000820180546113db906126a4565b80601f0160208091040260200160405190810160405280929190818152602001828054611407906126a4565b80156114545780601f1061142957610100808354040283529160200191611454565b820191906000526020600020905b81548152906001019060200180831161143757829003601f168201915b5050505050815260200160018201805461146d906126a4565b80601f0160208091040260200160405190810160405280929190818152602001828054611499906126a4565b80156114e65780601f106114bb576101008083540402835291602001916114e6565b820191906000526020600020905b8154815290600101906020018083116114c957829003601f168201915b505050505081526020016002820180546114ff906126a4565b80601f016020809104026020016040519081016040528092919081815260200182805461152b906126a4565b80156115785780601f1061154d57610100808354040283529160200191611578565b820191906000526020600020905b81548152906001019060200180831161155b57829003601f168201915b505050505081526020016003820160009054906101000a900463ffffffff1663ffffffff1663ffffffff1681526020016003820160049054906101000a900460ff1660ff1660ff1681525050905061165a600180546115d6906126a4565b80601f0160208091040260200160405190810160405280929190818152602001828054611602906126a4565b801561164f5780601f106116245761010080835404028352916020019161164f565b820191906000526020600020905b81548152906001019060200180831161163257829003601f168201915b505050505083611d44565b80156116f657506116f560028054611671906126a4565b80601f016020809104026020016040519081016040528092919081815260200182805461169d906126a4565b80156116ea5780601f106116bf576101008083540402835291602001916116ea565b820191906000526020600020905b8154815290600101906020018083116116cd57829003601f168201915b505050505083611d44565b5b156118265761178e6000805461170b906126a4565b80601f0160208091040260200160405190810160405280929190818152602001828054611737906126a4565b80156117845780601f1061175957610100808354040283529160200191611784565b820191906000526020600020905b81548152906001019060200180831161176757829003601f168201915b5050505050611dcf565b6118216000805461179e906126a4565b80601f01602080910402602001604051908101604052809291908181526020018280546117ca906126a4565b80156118175780601f106117ec57610100808354040283529160200191611817565b820191906000526020600020905b8154815290600101906020018083116117fa57829003601f168201915b5050505050611de9565b611a09565b6118ba60018054611836906126a4565b80601f0160208091040260200160405190810160405280929190818152602001828054611862906126a4565b80156118af5780601f10611884576101008083540402835291602001916118af565b820191906000526020600020905b81548152906001019060200180831161189257829003601f168201915b505050505083611d44565b1561190d576118cc8160200151611dcf565b6000600460016040516118df9190612930565b90815260200160405180910390206000019080546118fc906126a4565b611907929190611e3b565b50611a08565b6119a16002805461191d906126a4565b80601f0160208091040260200160405190810160405280929190818152602001828054611949906126a4565b80156119965780601f1061196b57610100808354040283529160200191611996565b820191906000526020600020905b81548152906001019060200180831161197957829003601f168201915b505050505083611d44565b156119f4576119b38160000151611de9565b6000600460026040516119c69190612930565b90815260200160405180910390206001019080546119e3906126a4565b6119ee929190611e3b565b50611a07565b611a0681600001518260200151611d5f565b5b5b5b600482604051611a1991906127b6565b908152602001604051809103902060008082016000611a389190611ec8565b600182016000611a489190611ec8565b600282016000611a589190611ec8565b6003820160006101000a81549063ffffffff02191690556003820160046101000a81549060ff021916905550506001600360008282829054906101000a900461ffff16611aa59190612868565b92506101000a81548161ffff021916908361ffff1602179055507f93bd1f979c000eb994b707077111a51cf5cecfe310c034422bfc3dc8ee93394f82604051611aee9190612271565b60405180910390a15050565b60006040518060a0016040528060008054611b14906126a4565b80601f0160208091040260200160405190810160405280929190818152602001828054611b40906126a4565b8015611b8d5780601f10611b6257610100808354040283529160200191611b8d565b820191906000526020600020905b815481529060010190602001808311611b7057829003601f168201915b5050505050815260200160008054611ba4906126a4565b80601f0160208091040260200160405190810160405280929190818152602001828054611bd0906126a4565b8015611c1d5780601f10611bf257610100808354040283529160200191611c1d565b820191906000526020600020905b815481529060010190602001808311611c0057829003601f168201915b505050505081526020018581526020018463ffffffff1681526020018360ff16815250905080600485604051611c5391906127b6565b90815260200160405180910390206000820151816000019080519060200190611c7d929190611f08565b506020820151816001019080519060200190611c9a929190611f08565b506040820151816002019080519060200190611cb7929190611f08565b5060608201518160030160006101000a81548163ffffffff021916908363ffffffff16021790555060808201518160030160046101000a81548160ff021916908360ff1602179055509050507fc875538d51d17afb93b9de23b08d4727445c8aed7527861be4b0150d9dc698ed848484604051611d369392919061252e565b60405180910390a150505050565b60008180519060200120838051906020012014905092915050565b80600483604051611d7091906127b6565b90815260200160405180910390206001019080519060200190611d94929190611f08565b5081600482604051611da691906127b6565b90815260200160405180910390206000019080519060200190611dca929190611f08565b505050565b8060019080519060200190611de5929190611f08565b5050565b8060029080519060200190611dff929190611f08565b5050565b6040518060a00160405280606081526020016060815260200160608152602001600063ffffffff168152602001600060ff1681525090565b828054611e47906126a4565b90600052602060002090601f016020900481019282611e695760008555611eb7565b82601f10611e7a5780548555611eb7565b82800160010185558215611eb757600052602060002091601f016020900482015b82811115611eb6578254825591600101919060010190611e9b565b5b509050611ec49190611f8e565b5090565b508054611ed4906126a4565b6000825580601f10611ee65750611f05565b601f016020900490600052602060002090810190611f049190611f8e565b5b50565b828054611f14906126a4565b90600052602060002090601f016020900481019282611f365760008555611f7d565b82601f10611f4f57805160ff1916838001178555611f7d565b82800160010185558215611f7d579182015b82811115611f7c578251825591602001919060010190611f61565b5b509050611f8a9190611f8e565b5090565b5b80821115611fa7576000816000905550600101611f8f565b5090565b6000604051905090565b600080fd5b600080fd5b600080fd5b600080fd5b6000601f19601f8301169050919050565b7f4e487b7100000000000000000000000000000000000000000000000000000000600052604160045260246000fd5b61201282611fc9565b810181811067ffffffffffffffff8211171561203157612030611fda565b5b80604052505050565b6000612044611fab565b90506120508282612009565b919050565b600067ffffffffffffffff8211156120705761206f611fda565b5b61207982611fc9565b9050602081019050919050565b82818337600083830152505050565b60006120a86120a384612055565b61203a565b9050828152602081018484840111156120c4576120c3611fc4565b5b6120cf848285612086565b509392505050565b600082601f8301126120ec576120eb611fbf565b5b81356120fc848260208601612095565b91505092915050565b600063ffffffff82169050919050565b61211e81612105565b811461212957600080fd5b50565b60008135905061213b81612115565b92915050565b600060ff82169050919050565b61215781612141565b811461216257600080fd5b50565b6000813590506121748161214e565b92915050565b60008060006060848603121561219357612192611fb5565b5b600084013567ffffffffffffffff8111156121b1576121b0611fba565b5b6121bd868287016120d7565b93505060206121ce8682870161212c565b92505060406121df86828701612165565b9150509250925092565b600081519050919050565b600082825260208201905092915050565b60005b83811015612223578082015181840152602081019050612208565b83811115612232576000848401525b50505050565b6000612243826121e9565b61224d81856121f4565b935061225d818560208601612205565b61226681611fc9565b840191505092915050565b6000602082019050818103600083015261228b8184612238565b905092915050565b600081519050919050565b600082825260208201905092915050565b6000819050602082019050919050565b600082825260208201905092915050565b60006122db826121e9565b6122e581856122bf565b93506122f5818560208601612205565b6122fe81611fc9565b840191505092915050565b61231281612105565b82525050565b61232181612141565b82525050565b600060a083016000830151848203600086015261234482826122d0565b9150506020830151848203602086015261235e82826122d0565b9150506040830151848203604086015261237882826122d0565b915050606083015161238d6060860182612309565b5060808301516123a06080860182612318565b508091505092915050565b60006123b78383612327565b905092915050565b6000602082019050919050565b60006123d782612293565b6123e1818561229e565b9350836020820285016123f3856122af565b8060005b8581101561242f578484038952815161241085826123ab565b945061241b836123bf565b925060208a019950506001810190506123f7565b50829750879550505050505092915050565b6000602082019050818103600083015261245b81846123cc565b905092915050565b600080fd5b600080fd5b60008083601f84011261248357612482611fbf565b5b8235905067ffffffffffffffff8111156124a05761249f612463565b5b6020830191508360018202830111156124bc576124bb612468565b5b9250929050565b600080602083850312156124da576124d9611fb5565b5b600083013567ffffffffffffffff8111156124f8576124f7611fba565b5b6125048582860161246d565b92509250509250929050565b61251981612105565b82525050565b61252881612141565b82525050565b600060608201905081810360008301526125488186612238565b90506125576020830185612510565b612564604083018461251f565b949350505050565b600061ffff82169050919050565b6125838161256c565b811461258e57600080fd5b50565b6000813590506125a08161257a565b92915050565b600080604083850312156125bd576125bc611fb5565b5b600083013567ffffffffffffffff8111156125db576125da611fba565b5b6125e7858286016120d7565b92505060206125f885828601612591565b9150509250929050565b61260b8161256c565b82525050565b60006020820190506126266000830184612602565b92915050565b60006020828403121561264257612641611fb5565b5b600082013567ffffffffffffffff8111156126605761265f611fba565b5b61266c848285016120d7565b91505092915050565b7f4e487b7100000000000000000000000000000000000000000000000000000000600052602260045260246000fd5b600060028204905060018216806126bc57607f821691505b6020821081036126cf576126ce612675565b5b50919050565b7f4e487b7100000000000000000000000000000000000000000000000000000000600052601160045260246000fd5b600061270f8261256c565b915061271a8361256c565b92508261ffff03821115612731576127306126d5565b5b828201905092915050565b600081905092915050565b6000612753838561273c565b9350612760838584612086565b82840190509392505050565b6000612779828486612747565b91508190509392505050565b6000612790826121e9565b61279a818561273c565b93506127aa818560208601612205565b80840191505092915050565b60006127c28284612785565b915081905092915050565b7f4e6f646573206e756d626572206d75737420626520706f736974697665210000600082015250565b6000612803601e836121f4565b915061280e826127cd565b602082019050919050565b60006020820190508181036000830152612832816127f6565b9050919050565b7f4e487b7100000000000000000000000000000000000000000000000000000000600052603260045260246000fd5b60006128738261256c565b915061287e8361256c565b925082821015612891576128906126d5565b5b828203905092915050565b60008190508160005260206000209050919050565b600081546128be816126a4565b6128c8818661273c565b945060018216600081146128e357600181146128f457612927565b60ff19831686528186019350612927565b6128fd8561289c565b60005b8381101561291f57815481890152600182019150602081019050612900565b838801955050505b50505092915050565b600061293c82846128b1565b91508190509291505056fea264697066735822122000540383ba2182998dfa41e5c156f90df2d43256d77ef27d175bd4c7a560364564736f6c634300080e0033",
  "immutableReferences": {},
  "source": "// SPDX-License-Identifier: MIT\n\npragma solidity^0.8.0;\n\n\ncontract ShardingTable {\n    event PeerObjCreated(string peerId, uint32 stake, uint8 ask);\n    event PeerRemoved(string peerId);\n    event PeerParamsUpdated(string peerId, uint32 stake, uint8 ask);\n\n    struct Peer {\n        string prevPeer;\n        string nextPeer;\n        string id;\n        uint32 stake;\n        uint8 ask;\n    }\n\n    string private emptyPointer;\n    string public head;\n    string public tail;\n    uint16 public peerCount;\n\n    mapping(string => Peer) peers;\n\n    constructor() {\n        emptyPointer = \"\";\n        head = emptyPointer;\n        tail = emptyPointer;\n        peerCount = 0;\n    }\n\n    function getPeer(string calldata peerId)\n        external\n        view\n        returns (string memory, uint32, uint8)\n    {\n        Peer memory peer = peers[peerId];\n\n        return (peer.id, peer.stake, peer.ask);\n    }\n\n    function getShardingTable(string memory startingPeerId, uint16 nodesNumber)\n        public\n        view\n        returns (Peer[] memory)\n    {\n        require(nodesNumber > 0, \"Nodes number must be positive!\");\n\n        Peer[] memory peersPage = new Peer[](nodesNumber);\n\n        peersPage[0] = peers[startingPeerId];\n        uint16 i = 1;\n\n        while (i < nodesNumber && !_equalIds(peersPage[i-1].nextPeer, emptyPointer)) {\n            peersPage[i] = peers[peersPage[i-1].nextPeer];\n            i += 1;\n        }\n        return peersPage;\n    }\n\n    function getShardingTable()\n        public\n        view\n        returns (Peer[] memory)\n    {\n        return getShardingTable(head, peerCount);\n    }\n\n    function pushBack(string memory peerId, uint32 stake, uint8 ask)\n        public\n    {\n        _createPeer(peerId, stake, ask);\n\n        if (!_equalIds(tail, emptyPointer)) _link(tail, peerId);\n        _setTail(peerId);\n\n        if (_equalIds(head, emptyPointer)) _setHead(peerId);\n\n        peerCount += 1;\n    }\n\n    function pushFront(string memory peerId, uint32 stake, uint8 ask)\n        public\n    {\n        _createPeer(peerId, stake, ask);\n\n        if (!_equalIds(head, emptyPointer)) _link(peerId, head);\n        _setHead(peerId);\n\n        if (_equalIds(tail, emptyPointer)) _setTail(peerId);\n\n        peerCount += 1;\n    }\n\n    function removePeer(string memory peerId)\n        public\n    {\n        Peer memory removedPeer = peers[peerId];\n\n        if (_equalIds(head, peerId) && _equalIds(tail, peerId)) {\n            _setHead(emptyPointer);\n            _setTail(emptyPointer);\n        }\n        else if (_equalIds(head, peerId)) {\n            _setHead(removedPeer.nextPeer);\n            peers[head].prevPeer = emptyPointer;\n        }\n        else if (_equalIds(tail, peerId)) {\n            _setTail(removedPeer.prevPeer);\n            peers[tail].nextPeer = emptyPointer;\n        }\n        else {\n            _link(removedPeer.prevPeer, removedPeer.nextPeer);\n        }\n\n        delete peers[peerId];\n\n        peerCount -= 1;\n    \n        emit PeerRemoved(peerId);\n    }\n\n    function updateParams(string memory peerId, uint32 newStake, uint8 newAsk)\n        external\n    {\n        Peer storage peer = peers[peerId];\n\n        peer.stake = newStake;\n        peer.ask = newAsk;\n\n        emit PeerParamsUpdated(peerId, peer.stake, peer.ask);\n    }\n\n    function _createPeer(string memory peerId, uint32 stake, uint8 ask)\n        internal\n    {\n        Peer memory newPeer = Peer(\n            emptyPointer,\n            emptyPointer,\n            peerId,\n            stake,\n            ask\n        );\n\n        peers[peerId] = newPeer;\n\n        emit PeerObjCreated(peerId, stake, ask);\n    }\n\n    function _setHead(string memory peerId)\n        internal\n    {\n        head = peerId;\n    }\n\n    function _setTail(string memory peerId)\n        internal\n    {\n        tail = peerId;\n    }\n\n    function _link(string memory _leftPeerId, string memory _rightPeerId)\n        internal\n    {\n        peers[_leftPeerId].nextPeer = _rightPeerId;\n        peers[_rightPeerId].prevPeer = _leftPeerId;\n    }\n\n    function _equalIds(string memory _firstId, string memory _secondId)\n        internal\n        pure\n        returns (bool)\n    {\n        return keccak256(bytes(_firstId)) == keccak256(bytes(_secondId));\n    }\n}\n",
  "sourcePath": "/Users/waving/Desktop/OriginTrail/dkg-evm-module/contracts/ShardingTable.sol",
  "compiler": {
    "name": "solc",
    "version": "0.8.14+commit.80d49f37.Emscripten.clang"
  },
  "schemaVersion": "3.4.10",
  "updatedAt": "2022-10-19T11:36:36.681Z",
  "devdoc": {
    "kind": "dev",
    "methods": {},
    "version": 1
  },
  "userdoc": {
    "kind": "user",
    "methods": {},
    "version": 1
  }
}