{
  "contractName": "ShardingTable",
  "abi": [
    {
      "inputs": [],
      "stateMutability": "nonpayable",
      "type": "constructor"
    },
    {
      "anonymous": false,
      "inputs": [
        {
          "indexed": false,
          "internalType": "string",
          "name": "peerId",
          "type": "string"
        },
        {
          "indexed": false,
          "internalType": "uint8",
          "name": "ask",
          "type": "uint8"
        },
        {
          "indexed": false,
          "internalType": "uint32",
          "name": "stake",
          "type": "uint32"
        }
      ],
      "name": "PeerObjCreated",
      "type": "event"
    },
    {
      "anonymous": false,
      "inputs": [
        {
          "indexed": false,
          "internalType": "string",
          "name": "peerId",
          "type": "string"
        },
        {
          "indexed": false,
          "internalType": "uint8",
          "name": "ask",
          "type": "uint8"
        },
        {
          "indexed": false,
          "internalType": "uint32",
          "name": "stake",
          "type": "uint32"
        }
      ],
      "name": "PeerParamsUpdated",
      "type": "event"
    },
    {
      "anonymous": false,
      "inputs": [
        {
          "indexed": false,
          "internalType": "string",
          "name": "peerId",
          "type": "string"
        }
      ],
      "name": "PeerRemoved",
      "type": "event"
    },
    {
      "inputs": [],
      "name": "head",
      "outputs": [
        {
          "internalType": "string",
          "name": "",
          "type": "string"
        }
      ],
      "stateMutability": "view",
      "type": "function"
    },
    {
      "inputs": [],
      "name": "peerCount",
      "outputs": [
        {
          "internalType": "uint16",
          "name": "",
          "type": "uint16"
        }
      ],
      "stateMutability": "view",
      "type": "function"
    },
    {
      "inputs": [],
      "name": "tail",
      "outputs": [
        {
          "internalType": "string",
          "name": "",
          "type": "string"
        }
      ],
      "stateMutability": "view",
      "type": "function"
    },
    {
      "inputs": [
        {
          "internalType": "string",
          "name": "peerId",
          "type": "string"
        }
      ],
      "name": "getPeer",
      "outputs": [
        {
          "internalType": "string",
          "name": "",
          "type": "string"
        },
        {
          "internalType": "uint8",
          "name": "",
          "type": "uint8"
        },
        {
          "internalType": "uint32",
          "name": "",
          "type": "uint32"
        }
      ],
      "stateMutability": "view",
      "type": "function"
    },
    {
      "inputs": [],
      "name": "getShardingTable",
      "outputs": [
        {
          "components": [
            {
              "internalType": "string",
              "name": "prevPeer",
              "type": "string"
            },
            {
              "internalType": "string",
              "name": "nextPeer",
              "type": "string"
            },
            {
              "internalType": "string",
              "name": "id",
              "type": "string"
            },
            {
              "internalType": "uint8",
              "name": "ask",
              "type": "uint8"
            },
            {
              "internalType": "uint32",
              "name": "stake",
              "type": "uint32"
            }
          ],
          "internalType": "struct ShardingTable.Peer[]",
          "name": "",
          "type": "tuple[]"
        }
      ],
      "stateMutability": "view",
      "type": "function"
    },
    {
      "inputs": [
        {
          "internalType": "string",
          "name": "startingPeerId",
          "type": "string"
        },
        {
          "internalType": "uint16",
          "name": "nodesNumber",
          "type": "uint16"
        }
      ],
      "name": "getShardingTable",
      "outputs": [
        {
          "components": [
            {
              "internalType": "string",
              "name": "prevPeer",
              "type": "string"
            },
            {
              "internalType": "string",
              "name": "nextPeer",
              "type": "string"
            },
            {
              "internalType": "string",
              "name": "id",
              "type": "string"
            },
            {
              "internalType": "uint8",
              "name": "ask",
              "type": "uint8"
            },
            {
              "internalType": "uint32",
              "name": "stake",
              "type": "uint32"
            }
          ],
          "internalType": "struct ShardingTable.Peer[]",
          "name": "",
          "type": "tuple[]"
        }
      ],
      "stateMutability": "view",
      "type": "function"
    },
    {
      "inputs": [
        {
          "internalType": "string",
          "name": "peerId",
          "type": "string"
        },
        {
          "internalType": "uint8",
          "name": "ask",
          "type": "uint8"
        },
        {
          "internalType": "uint32",
          "name": "stake",
          "type": "uint32"
        }
      ],
      "name": "pushBack",
      "outputs": [],
      "stateMutability": "nonpayable",
      "type": "function"
    },
    {
      "inputs": [
        {
          "internalType": "string",
          "name": "peerId",
          "type": "string"
        },
        {
          "internalType": "uint8",
          "name": "ask",
          "type": "uint8"
        },
        {
          "internalType": "uint32",
          "name": "stake",
          "type": "uint32"
        }
      ],
      "name": "pushFront",
      "outputs": [],
      "stateMutability": "nonpayable",
      "type": "function"
    },
    {
      "inputs": [
        {
          "internalType": "string",
          "name": "peerId",
          "type": "string"
        }
      ],
      "name": "removePeer",
      "outputs": [],
      "stateMutability": "nonpayable",
      "type": "function"
    },
    {
      "inputs": [
        {
          "internalType": "string",
          "name": "peerId",
          "type": "string"
        },
        {
          "internalType": "uint8",
          "name": "newAsk",
          "type": "uint8"
        },
        {
          "internalType": "uint32",
          "name": "newStake",
          "type": "uint32"
        }
      ],
      "name": "updateParams",
      "outputs": [],
      "stateMutability": "nonpayable",
      "type": "function"
    }
  ],
  "bytecode": "0x60806040523480156200001157600080fd5b506040518060200160405280600081525060009080519060200190620000399291906200009e565b50600060019080546200004c9062000215565b620000599291906200012f565b50600060029080546200006c9062000215565b620000799291906200012f565b506000600360006101000a81548161ffff021916908361ffff1602179055506200024a565b828054620000ac9062000215565b90600052602060002090601f016020900481019282620000d057600085556200011c565b82601f10620000eb57805160ff19168380011785556200011c565b828001600101855582156200011c579182015b828111156200011b578251825591602001919060010190620000fe565b5b5090506200012b9190620001c7565b5090565b8280546200013d9062000215565b90600052602060002090601f016020900481019282620001615760008555620001b4565b82601f10620001745780548555620001b4565b82800160010185558215620001b457600052602060002091601f016020900482015b82811115620001b357825482559160010191906001019062000196565b5b509050620001c39190620001c7565b5090565b5b80821115620001e2576000816000905550600101620001c8565b5090565b7f4e487b7100000000000000000000000000000000000000000000000000000000600052602260045260246000fd5b600060028204905060018216806200022e57607f821691505b602082108103620002445762000243620001e6565b5b50919050565b61297e806200025a6000396000f3fe608060405234801561001057600080fd5b506004361061009e5760003560e01c8063bd2824ea11610066578063bd2824ea1461014b578063cd75e4c21461017b578063e1dfaa8b14610197578063e81ea595146101b3578063f683d96c146101d15761009e565b806313d8c840146100a3578063289220c6146100c157806358cf4ab6146100df578063590f979a146101115780638f7dcfa31461012d575b600080fd5b6100ab6101ed565b6040516100b89190612045565b60405180910390f35b6100c961027b565b6040516100d69190612232565b60405180910390f35b6100f960048036038101906100f491906122cd565b610326565b60405161010893929190612338565b60405180910390f35b61012b600480360381019061012691906124fe565b610570565b005b610135610638565b6040516101429190612045565b60405180910390f35b610165600480360381019061016091906125a7565b6106c6565b6040516101729190612232565b60405180910390f35b610195600480360381019061019091906124fe565b610d1f565b005b6101b160048036038101906101ac91906124fe565b611056565b005b6101bb61138d565b6040516101c89190612612565b60405180910390f35b6101eb60048036038101906101e6919061262d565b6113a1565b005b600280546101fa906126a5565b80601f0160208091040260200160405190810160405280929190818152602001828054610226906126a5565b80156102735780601f1061024857610100808354040283529160200191610273565b820191906000526020600020905b81548152906001019060200180831161025657829003601f168201915b505050505081565b60606103216001805461028d906126a5565b80601f01602080910402602001604051908101604052809291908181526020018280546102b9906126a5565b80156103065780601f106102db57610100808354040283529160200191610306565b820191906000526020600020905b8154815290600101906020018083116102e957829003601f168201915b5050505050600360009054906101000a900461ffff166106c6565b905090565b606060008060006004868660405161033f929190612706565b90815260200160405180910390206040518060a0016040529081600082018054610368906126a5565b80601f0160208091040260200160405190810160405280929190818152602001828054610394906126a5565b80156103e15780601f106103b6576101008083540402835291602001916103e1565b820191906000526020600020905b8154815290600101906020018083116103c457829003601f168201915b505050505081526020016001820180546103fa906126a5565b80601f0160208091040260200160405190810160405280929190818152602001828054610426906126a5565b80156104735780601f1061044857610100808354040283529160200191610473565b820191906000526020600020905b81548152906001019060200180831161045657829003601f168201915b5050505050815260200160028201805461048c906126a5565b80601f01602080910402602001604051908101604052809291908181526020018280546104b8906126a5565b80156105055780601f106104da57610100808354040283529160200191610505565b820191906000526020600020905b8154815290600101906020018083116104e857829003601f168201915b505050505081526020016003820160009054906101000a900460ff1660ff1660ff1681526020016003820160019054906101000a900463ffffffff1663ffffffff1663ffffffff16815250509050806040015181606001518260800151935093509350509250925092565b60006004846040516105829190612750565b90815260200160405180910390209050828160030160006101000a81548160ff021916908360ff160217905550818160030160016101000a81548163ffffffff021916908363ffffffff1602179055507fc702ca9f5f628c8bda71b5032e25f657dc64b73f31587ed6c7ecee3070ff0aff848260030160009054906101000a900460ff168360030160019054906101000a900463ffffffff1660405161062a93929190612338565b60405180910390a150505050565b60018054610645906126a5565b80601f0160208091040260200160405190810160405280929190818152602001828054610671906126a5565b80156106be5780601f10610693576101008083540402835291602001916106be565b820191906000526020600020905b8154815290600101906020018083116106a157829003601f168201915b505050505081565b606060008261ffff161161070f576040517f08c379a0000000000000000000000000000000000000000000000000000000008152600401610706906127b3565b60405180910390fd5b60008261ffff1667ffffffffffffffff81111561072f5761072e61237b565b5b60405190808252806020026020018201604052801561076857816020015b610755611e04565b81526020019060019003908161074d5790505b50905060048460405161077b9190612750565b90815260200160405180910390206040518060a00160405290816000820180546107a4906126a5565b80601f01602080910402602001604051908101604052809291908181526020018280546107d0906126a5565b801561081d5780601f106107f25761010080835404028352916020019161081d565b820191906000526020600020905b81548152906001019060200180831161080057829003601f168201915b50505050508152602001600182018054610836906126a5565b80601f0160208091040260200160405190810160405280929190818152602001828054610862906126a5565b80156108af5780601f10610884576101008083540402835291602001916108af565b820191906000526020600020905b81548152906001019060200180831161089257829003601f168201915b505050505081526020016002820180546108c8906126a5565b80601f01602080910402602001604051908101604052809291908181526020018280546108f4906126a5565b80156109415780601f1061091657610100808354040283529160200191610941565b820191906000526020600020905b81548152906001019060200180831161092457829003601f168201915b505050505081526020016003820160009054906101000a900460ff1660ff1660ff1681526020016003820160019054906101000a900463ffffffff1663ffffffff1663ffffffff1681525050816000815181106109a1576109a06127d3565b5b60200260200101819052506000600190505b8361ffff168161ffff16108015610a895750610a87826001836109d69190612831565b61ffff16815181106109eb576109ea6127d3565b5b60200260200101516020015160008054610a04906126a5565b80601f0160208091040260200160405190810160405280929190818152602001828054610a30906126a5565b8015610a7d5780601f10610a5257610100808354040283529160200191610a7d565b820191906000526020600020905b815481529060010190602001808311610a6057829003601f168201915b5050505050611afb565b155b15610d1457600482600183610a9e9190612831565b61ffff1681518110610ab357610ab26127d3565b5b602002602001015160200151604051610acc9190612750565b90815260200160405180910390206040518060a0016040529081600082018054610af5906126a5565b80601f0160208091040260200160405190810160405280929190818152602001828054610b21906126a5565b8015610b6e5780601f10610b4357610100808354040283529160200191610b6e565b820191906000526020600020905b815481529060010190602001808311610b5157829003601f168201915b50505050508152602001600182018054610b87906126a5565b80601f0160208091040260200160405190810160405280929190818152602001828054610bb3906126a5565b8015610c005780601f10610bd557610100808354040283529160200191610c00565b820191906000526020600020905b815481529060010190602001808311610be357829003601f168201915b50505050508152602001600282018054610c19906126a5565b80601f0160208091040260200160405190810160405280929190818152602001828054610c45906126a5565b8015610c925780601f10610c6757610100808354040283529160200191610c92565b820191906000526020600020905b815481529060010190602001808311610c7557829003601f168201915b505050505081526020016003820160009054906101000a900460ff1660ff1660ff1681526020016003820160019054906101000a900463ffffffff1663ffffffff1663ffffffff1681525050828261ffff1681518110610cf557610cf46127d3565b5b6020026020010181905250600181610d0d9190612865565b90506109b3565b819250505092915050565b610d2a838383611b16565b610e4860018054610d3a906126a5565b80601f0160208091040260200160405190810160405280929190818152602001828054610d66906126a5565b8015610db35780601f10610d8857610100808354040283529160200191610db3565b820191906000526020600020905b815481529060010190602001808311610d9657829003601f168201915b505050505060008054610dc5906126a5565b80601f0160208091040260200160405190810160405280929190818152602001828054610df1906126a5565b8015610e3e5780601f10610e1357610100808354040283529160200191610e3e565b820191906000526020600020905b815481529060010190602001808311610e2157829003601f168201915b5050505050611afb565b610ee157610ee08360018054610e5d906126a5565b80601f0160208091040260200160405190810160405280929190818152602001828054610e89906126a5565b8015610ed65780601f10610eab57610100808354040283529160200191610ed6565b820191906000526020600020905b815481529060010190602001808311610eb957829003601f168201915b5050505050611d60565b5b610eea83611dd0565b61100860028054610efa906126a5565b80601f0160208091040260200160405190810160405280929190818152602001828054610f26906126a5565b8015610f735780601f10610f4857610100808354040283529160200191610f73565b820191906000526020600020905b815481529060010190602001808311610f5657829003601f168201915b505050505060008054610f85906126a5565b80601f0160208091040260200160405190810160405280929190818152602001828054610fb1906126a5565b8015610ffe5780601f10610fd357610100808354040283529160200191610ffe565b820191906000526020600020905b815481529060010190602001808311610fe157829003601f168201915b5050505050611afb565b156110175761101683611dea565b5b6001600360008282829054906101000a900461ffff166110379190612865565b92506101000a81548161ffff021916908361ffff160217905550505050565b611061838383611b16565b61117f60028054611071906126a5565b80601f016020809104026020016040519081016040528092919081815260200182805461109d906126a5565b80156110ea5780601f106110bf576101008083540402835291602001916110ea565b820191906000526020600020905b8154815290600101906020018083116110cd57829003601f168201915b5050505050600080546110fc906126a5565b80601f0160208091040260200160405190810160405280929190818152602001828054611128906126a5565b80156111755780601f1061114a57610100808354040283529160200191611175565b820191906000526020600020905b81548152906001019060200180831161115857829003601f168201915b5050505050611afb565b6112185761121760028054611193906126a5565b80601f01602080910402602001604051908101604052809291908181526020018280546111bf906126a5565b801561120c5780601f106111e15761010080835404028352916020019161120c565b820191906000526020600020905b8154815290600101906020018083116111ef57829003601f168201915b505050505084611d60565b5b61122183611dea565b61133f60018054611231906126a5565b80601f016020809104026020016040519081016040528092919081815260200182805461125d906126a5565b80156112aa5780601f1061127f576101008083540402835291602001916112aa565b820191906000526020600020905b81548152906001019060200180831161128d57829003601f168201915b5050505050600080546112bc906126a5565b80601f01602080910402602001604051908101604052809291908181526020018280546112e8906126a5565b80156113355780601f1061130a57610100808354040283529160200191611335565b820191906000526020600020905b81548152906001019060200180831161131857829003601f168201915b5050505050611afb565b1561134e5761134d83611dd0565b5b6001600360008282829054906101000a900461ffff1661136e9190612865565b92506101000a81548161ffff021916908361ffff160217905550505050565b600360009054906101000a900461ffff1681565b60006004826040516113b39190612750565b90815260200160405180910390206040518060a00160405290816000820180546113dc906126a5565b80601f0160208091040260200160405190810160405280929190818152602001828054611408906126a5565b80156114555780601f1061142a57610100808354040283529160200191611455565b820191906000526020600020905b81548152906001019060200180831161143857829003601f168201915b5050505050815260200160018201805461146e906126a5565b80601f016020809104026020016040519081016040528092919081815260200182805461149a906126a5565b80156114e75780601f106114bc576101008083540402835291602001916114e7565b820191906000526020600020905b8154815290600101906020018083116114ca57829003601f168201915b50505050508152602001600282018054611500906126a5565b80601f016020809104026020016040519081016040528092919081815260200182805461152c906126a5565b80156115795780601f1061154e57610100808354040283529160200191611579565b820191906000526020600020905b81548152906001019060200180831161155c57829003601f168201915b505050505081526020016003820160009054906101000a900460ff1660ff1660ff1681526020016003820160019054906101000a900463ffffffff1663ffffffff1663ffffffff1681525050905061165b600180546115d7906126a5565b80601f0160208091040260200160405190810160405280929190818152602001828054611603906126a5565b80156116505780601f1061162557610100808354040283529160200191611650565b820191906000526020600020905b81548152906001019060200180831161163357829003601f168201915b505050505083611afb565b80156116f757506116f660028054611672906126a5565b80601f016020809104026020016040519081016040528092919081815260200182805461169e906126a5565b80156116eb5780601f106116c0576101008083540402835291602001916116eb565b820191906000526020600020905b8154815290600101906020018083116116ce57829003601f168201915b505050505083611afb565b5b156118275761178f6000805461170c906126a5565b80601f0160208091040260200160405190810160405280929190818152602001828054611738906126a5565b80156117855780601f1061175a57610100808354040283529160200191611785565b820191906000526020600020905b81548152906001019060200180831161176857829003601f168201915b5050505050611dd0565b6118226000805461179f906126a5565b80601f01602080910402602001604051908101604052809291908181526020018280546117cb906126a5565b80156118185780601f106117ed57610100808354040283529160200191611818565b820191906000526020600020905b8154815290600101906020018083116117fb57829003601f168201915b5050505050611dea565b611a0a565b6118bb60018054611837906126a5565b80601f0160208091040260200160405190810160405280929190818152602001828054611863906126a5565b80156118b05780601f10611885576101008083540402835291602001916118b0565b820191906000526020600020905b81548152906001019060200180831161189357829003601f168201915b505050505083611afb565b1561190e576118cd8160200151611dd0565b6000600460016040516118e09190612931565b90815260200160405180910390206000019080546118fd906126a5565b611908929190611e3c565b50611a09565b6119a26002805461191e906126a5565b80601f016020809104026020016040519081016040528092919081815260200182805461194a906126a5565b80156119975780601f1061196c57610100808354040283529160200191611997565b820191906000526020600020905b81548152906001019060200180831161197a57829003601f168201915b505050505083611afb565b156119f5576119b48160000151611dea565b6000600460026040516119c79190612931565b90815260200160405180910390206001019080546119e4906126a5565b6119ef929190611e3c565b50611a08565b611a0781600001518260200151611d60565b5b5b5b600482604051611a1a9190612750565b908152602001604051809103902060008082016000611a399190611ec9565b600182016000611a499190611ec9565b600282016000611a599190611ec9565b6003820160006101000a81549060ff02191690556003820160016101000a81549063ffffffff021916905550506001600360008282829054906101000a900461ffff16611aa69190612831565b92506101000a81548161ffff021916908361ffff1602179055507f93bd1f979c000eb994b707077111a51cf5cecfe310c034422bfc3dc8ee93394f82604051611aef9190612045565b60405180910390a15050565b60008180519060200120838051906020012014905092915050565b60006040518060a0016040528060008054611b30906126a5565b80601f0160208091040260200160405190810160405280929190818152602001828054611b5c906126a5565b8015611ba95780601f10611b7e57610100808354040283529160200191611ba9565b820191906000526020600020905b815481529060010190602001808311611b8c57829003601f168201915b5050505050815260200160008054611bc0906126a5565b80601f0160208091040260200160405190810160405280929190818152602001828054611bec906126a5565b8015611c395780601f10611c0e57610100808354040283529160200191611c39565b820191906000526020600020905b815481529060010190602001808311611c1c57829003601f168201915b505050505081526020018581526020018460ff1681526020018363ffffffff16815250905080600485604051611c6f9190612750565b90815260200160405180910390206000820151816000019080519060200190611c99929190611f09565b506020820151816001019080519060200190611cb6929190611f09565b506040820151816002019080519060200190611cd3929190611f09565b5060608201518160030160006101000a81548160ff021916908360ff16021790555060808201518160030160016101000a81548163ffffffff021916908363ffffffff1602179055509050507f9bafefa4fadda1e1d9d8627e87dc3486f4abfa65ae9a29de91aa1176d1436ae6848484604051611d5293929190612338565b60405180910390a150505050565b80600483604051611d719190612750565b90815260200160405180910390206001019080519060200190611d95929190611f09565b5081600482604051611da79190612750565b90815260200160405180910390206000019080519060200190611dcb929190611f09565b505050565b8060019080519060200190611de6929190611f09565b5050565b8060029080519060200190611e00929190611f09565b5050565b6040518060a00160405280606081526020016060815260200160608152602001600060ff168152602001600063ffffffff1681525090565b828054611e48906126a5565b90600052602060002090601f016020900481019282611e6a5760008555611eb8565b82601f10611e7b5780548555611eb8565b82800160010185558215611eb857600052602060002091601f016020900482015b82811115611eb7578254825591600101919060010190611e9c565b5b509050611ec59190611f8f565b5090565b508054611ed5906126a5565b6000825580601f10611ee75750611f06565b601f016020900490600052602060002090810190611f059190611f8f565b5b50565b828054611f15906126a5565b90600052602060002090601f016020900481019282611f375760008555611f7e565b82601f10611f5057805160ff1916838001178555611f7e565b82800160010185558215611f7e579182015b82811115611f7d578251825591602001919060010190611f62565b5b509050611f8b9190611f8f565b5090565b5b80821115611fa8576000816000905550600101611f90565b5090565b600081519050919050565b600082825260208201905092915050565b60005b83811015611fe6578082015181840152602081019050611fcb565b83811115611ff5576000848401525b50505050565b6000601f19601f8301169050919050565b600061201782611fac565b6120218185611fb7565b9350612031818560208601611fc8565b61203a81611ffb565b840191505092915050565b6000602082019050818103600083015261205f818461200c565b905092915050565b600081519050919050565b600082825260208201905092915050565b6000819050602082019050919050565b600082825260208201905092915050565b60006120af82611fac565b6120b98185612093565b93506120c9818560208601611fc8565b6120d281611ffb565b840191505092915050565b600060ff82169050919050565b6120f3816120dd565b82525050565b600063ffffffff82169050919050565b612112816120f9565b82525050565b600060a083016000830151848203600086015261213582826120a4565b9150506020830151848203602086015261214f82826120a4565b9150506040830151848203604086015261216982826120a4565b915050606083015161217e60608601826120ea565b5060808301516121916080860182612109565b508091505092915050565b60006121a88383612118565b905092915050565b6000602082019050919050565b60006121c882612067565b6121d28185612072565b9350836020820285016121e485612083565b8060005b858110156122205784840389528151612201858261219c565b945061220c836121b0565b925060208a019950506001810190506121e8565b50829750879550505050505092915050565b6000602082019050818103600083015261224c81846121bd565b905092915050565b6000604051905090565b600080fd5b600080fd5b600080fd5b600080fd5b600080fd5b60008083601f84011261228d5761228c612268565b5b8235905067ffffffffffffffff8111156122aa576122a961226d565b5b6020830191508360018202830111156122c6576122c5612272565b5b9250929050565b600080602083850312156122e4576122e361225e565b5b600083013567ffffffffffffffff81111561230257612301612263565b5b61230e85828601612277565b92509250509250929050565b612323816120dd565b82525050565b612332816120f9565b82525050565b60006060820190508181036000830152612352818661200c565b9050612361602083018561231a565b61236e6040830184612329565b949350505050565b600080fd5b7f4e487b7100000000000000000000000000000000000000000000000000000000600052604160045260246000fd5b6123b382611ffb565b810181811067ffffffffffffffff821117156123d2576123d161237b565b5b80604052505050565b60006123e5612254565b90506123f182826123aa565b919050565b600067ffffffffffffffff8211156124115761241061237b565b5b61241a82611ffb565b9050602081019050919050565b82818337600083830152505050565b6000612449612444846123f6565b6123db565b90508281526020810184848401111561246557612464612376565b5b612470848285612427565b509392505050565b600082601f83011261248d5761248c612268565b5b813561249d848260208601612436565b91505092915050565b6124af816120dd565b81146124ba57600080fd5b50565b6000813590506124cc816124a6565b92915050565b6124db816120f9565b81146124e657600080fd5b50565b6000813590506124f8816124d2565b92915050565b6000806000606084860312156125175761251661225e565b5b600084013567ffffffffffffffff81111561253557612534612263565b5b61254186828701612478565b9350506020612552868287016124bd565b9250506040612563868287016124e9565b9150509250925092565b600061ffff82169050919050565b6125848161256d565b811461258f57600080fd5b50565b6000813590506125a18161257b565b92915050565b600080604083850312156125be576125bd61225e565b5b600083013567ffffffffffffffff8111156125dc576125db612263565b5b6125e885828601612478565b92505060206125f985828601612592565b9150509250929050565b61260c8161256d565b82525050565b60006020820190506126276000830184612603565b92915050565b6000602082840312156126435761264261225e565b5b600082013567ffffffffffffffff81111561266157612660612263565b5b61266d84828501612478565b91505092915050565b7f4e487b7100000000000000000000000000000000000000000000000000000000600052602260045260246000fd5b600060028204905060018216806126bd57607f821691505b6020821081036126d0576126cf612676565b5b50919050565b600081905092915050565b60006126ed83856126d6565b93506126fa838584612427565b82840190509392505050565b60006127138284866126e1565b91508190509392505050565b600061272a82611fac565b61273481856126d6565b9350612744818560208601611fc8565b80840191505092915050565b600061275c828461271f565b915081905092915050565b7f4e6f646573206e756d626572206d75737420626520706f736974697665210000600082015250565b600061279d601e83611fb7565b91506127a882612767565b602082019050919050565b600060208201905081810360008301526127cc81612790565b9050919050565b7f4e487b7100000000000000000000000000000000000000000000000000000000600052603260045260246000fd5b7f4e487b7100000000000000000000000000000000000000000000000000000000600052601160045260246000fd5b600061283c8261256d565b91506128478361256d565b92508282101561285a57612859612802565b5b828203905092915050565b60006128708261256d565b915061287b8361256d565b92508261ffff0382111561289257612891612802565b5b828201905092915050565b60008190508160005260206000209050919050565b600081546128bf816126a5565b6128c981866126d6565b945060018216600081146128e457600181146128f557612928565b60ff19831686528186019350612928565b6128fe8561289d565b60005b8381101561292057815481890152600182019150602081019050612901565b838801955050505b50505092915050565b600061293d82846128b2565b91508190509291505056fea2646970667358221220487c1e2e49f7468b92df25f6e475c65f30428fe3ab88f4fc095133451d550f1c64736f6c634300080e0033",
  "immutableReferences": {},
  "source": "// SPDX-License-Identifier: MIT\n\npragma solidity^0.8.0;\n\n\ncontract ShardingTable {\n    event PeerObjCreated(string peerId, uint8 ask, uint32 stake);\n    event PeerRemoved(string peerId);\n    event PeerParamsUpdated(string peerId, uint8 ask, uint32 stake);\n\n    struct Peer {\n        string prevPeer;\n        string nextPeer;\n        string id;\n        uint8 ask;\n        uint32 stake;\n    }\n\n    string private emptyPointer;\n    string public head;\n    string public tail;\n    uint16 public peerCount;\n\n    mapping(string => Peer) peers;\n\n    constructor() {\n        emptyPointer = \"\";\n        head = emptyPointer;\n        tail = emptyPointer;\n        peerCount = 0;\n    }\n\n    function getPeer(string calldata peerId)\n        external\n        view\n        returns (string memory, uint8, uint32)\n    {\n        Peer memory peer = peers[peerId];\n\n        return (peer.id, peer.ask, peer.stake);\n    }\n\n    function getShardingTable(string memory startingPeerId, uint16 nodesNumber)\n        public\n        view\n        returns (Peer[] memory)\n    {\n        require(nodesNumber > 0, \"Nodes number must be positive!\");\n\n        Peer[] memory peersPage = new Peer[](nodesNumber);\n\n        peersPage[0] = peers[startingPeerId];\n        uint16 i = 1;\n\n        while (i < nodesNumber && !_equalIds(peersPage[i-1].nextPeer, emptyPointer)) {\n            peersPage[i] = peers[peersPage[i-1].nextPeer];\n            i += 1;\n        }\n        return peersPage;\n    }\n\n    function getShardingTable()\n        public\n        view\n        returns (Peer[] memory)\n    {\n        return getShardingTable(head, peerCount);\n    }\n\n    function pushBack(string memory peerId, uint8 ask, uint32 stake)\n        public\n    {\n        _createPeer(peerId, ask, stake);\n\n        if (!_equalIds(tail, emptyPointer)) _link(tail, peerId);\n        _setTail(peerId);\n\n        if (_equalIds(head, emptyPointer)) _setHead(peerId);\n\n        peerCount += 1;\n    }\n\n    function pushFront(string memory peerId, uint8 ask, uint32 stake)\n        public\n    {\n        _createPeer(peerId, ask, stake);\n\n        if (!_equalIds(head, emptyPointer)) _link(peerId, head);\n        _setHead(peerId);\n\n        if (_equalIds(tail, emptyPointer)) _setTail(peerId);\n\n        peerCount += 1;\n    }\n\n    function removePeer(string memory peerId)\n        public\n    {\n        Peer memory removedPeer = peers[peerId];\n\n        if (_equalIds(head, peerId) && _equalIds(tail, peerId)) {\n            _setHead(emptyPointer);\n            _setTail(emptyPointer);\n        }\n        else if (_equalIds(head, peerId)) {\n            _setHead(removedPeer.nextPeer);\n            peers[head].prevPeer = emptyPointer;\n        }\n        else if (_equalIds(tail, peerId)) {\n            _setTail(removedPeer.prevPeer);\n            peers[tail].nextPeer = emptyPointer;\n        }\n        else {\n            _link(removedPeer.prevPeer, removedPeer.nextPeer);\n        }\n\n        delete peers[peerId];\n\n        peerCount -= 1;\n    \n        emit PeerRemoved(peerId);\n    }\n\n    function updateParams(string memory peerId, uint8 newAsk, uint32 newStake)\n        external\n    {\n        Peer storage peer = peers[peerId];\n\n        peer.ask = newAsk;\n        peer.stake = newStake;\n\n        emit PeerParamsUpdated(peerId, peer.ask, peer.stake);\n    }\n\n    function _createPeer(string memory peerId, uint8 ask, uint32 stake)\n        internal\n    {\n        Peer memory newPeer = Peer(\n            emptyPointer,\n            emptyPointer,\n            peerId,\n            ask,\n            stake\n        );\n\n        peers[peerId] = newPeer;\n\n        emit PeerObjCreated(peerId, ask, stake);\n    }\n\n    function _setHead(string memory peerId)\n        internal\n    {\n        head = peerId;\n    }\n\n    function _setTail(string memory peerId)\n        internal\n    {\n        tail = peerId;\n    }\n\n    function _link(string memory _leftPeerId, string memory _rightPeerId)\n        internal\n    {\n        peers[_leftPeerId].nextPeer = _rightPeerId;\n        peers[_rightPeerId].prevPeer = _leftPeerId;\n    }\n\n    function _equalIds(string memory _firstId, string memory _secondId)\n        internal\n        pure\n        returns (bool)\n    {\n        return keccak256(bytes(_firstId)) == keccak256(bytes(_secondId));\n    }\n}\n",
  "sourcePath": "/Users/waving/Desktop/OriginTrail/dkg-evm-module/contracts/ShardingTable.sol",
  "compiler": {
    "name": "solc",
    "version": "0.8.14+commit.80d49f37.Emscripten.clang"
  },
  "schemaVersion": "3.4.10",
  "updatedAt": "2022-10-20T07:23:25.974Z",
  "devdoc": {
    "kind": "dev",
    "methods": {},
    "version": 1
  },
  "userdoc": {
    "kind": "user",
    "methods": {},
    "version": 1
  }
}