{
  "contractName": "ShardingTable",
  "abi": [
    {
      "inputs": [
        {
          "internalType": "address",
          "name": "hubAddress",
          "type": "address"
        }
      ],
      "stateMutability": "nonpayable",
      "type": "constructor"
    },
    {
      "anonymous": false,
      "inputs": [
        {
          "indexed": true,
          "internalType": "uint96",
          "name": "identityId",
          "type": "uint96"
        },
        {
          "indexed": true,
          "internalType": "bytes",
          "name": "nodeId",
          "type": "bytes"
        },
        {
          "indexed": false,
          "internalType": "uint96",
          "name": "ask",
          "type": "uint96"
        },
        {
          "indexed": false,
          "internalType": "uint96",
          "name": "stake",
          "type": "uint96"
        }
      ],
      "name": "NodeObjCreated",
      "type": "event"
    },
    {
      "anonymous": false,
      "inputs": [
        {
          "indexed": true,
          "internalType": "uint96",
          "name": "identityId",
          "type": "uint96"
        },
        {
          "indexed": true,
          "internalType": "bytes",
          "name": "nodeId",
          "type": "bytes"
        }
      ],
      "name": "NodeRemoved",
      "type": "event"
    },
    {
      "anonymous": false,
      "inputs": [
        {
          "indexed": true,
          "internalType": "bytes",
          "name": "nodeId",
          "type": "bytes"
        }
      ],
      "name": "NodeRemovedByHubOwner",
      "type": "event"
    },
    {
      "inputs": [],
      "name": "head",
      "outputs": [
        {
          "internalType": "bytes",
          "name": "",
          "type": "bytes"
        }
      ],
      "stateMutability": "view",
      "type": "function"
    },
    {
      "inputs": [],
      "name": "hub",
      "outputs": [
        {
          "internalType": "contract Hub",
          "name": "",
          "type": "address"
        }
      ],
      "stateMutability": "view",
      "type": "function"
    },
    {
      "inputs": [],
      "name": "nodesCount",
      "outputs": [
        {
          "internalType": "uint16",
          "name": "",
          "type": "uint16"
        }
      ],
      "stateMutability": "view",
      "type": "function"
    },
    {
      "inputs": [],
      "name": "tail",
      "outputs": [
        {
          "internalType": "bytes",
          "name": "",
          "type": "bytes"
        }
      ],
      "stateMutability": "view",
      "type": "function"
    },
    {
      "inputs": [
        {
          "internalType": "bytes",
          "name": "startingNodeId",
          "type": "bytes"
        },
        {
          "internalType": "uint16",
          "name": "nodesNumber",
          "type": "uint16"
        }
      ],
      "name": "getShardingTable",
      "outputs": [
        {
          "components": [
            {
              "internalType": "bytes",
              "name": "id",
              "type": "bytes"
            },
            {
              "internalType": "uint96",
              "name": "ask",
              "type": "uint96"
            },
            {
              "internalType": "uint96",
              "name": "stake",
              "type": "uint96"
            }
          ],
          "internalType": "struct ShardingTable.NodeInfo[]",
          "name": "",
          "type": "tuple[]"
        }
      ],
      "stateMutability": "view",
      "type": "function"
    },
    {
      "inputs": [],
      "name": "getShardingTable",
      "outputs": [
        {
          "components": [
            {
              "internalType": "bytes",
              "name": "id",
              "type": "bytes"
            },
            {
              "internalType": "uint96",
              "name": "ask",
              "type": "uint96"
            },
            {
              "internalType": "uint96",
              "name": "stake",
              "type": "uint96"
            }
          ],
          "internalType": "struct ShardingTable.NodeInfo[]",
          "name": "",
          "type": "tuple[]"
        }
      ],
      "stateMutability": "view",
      "type": "function"
    },
    {
      "inputs": [
        {
          "internalType": "uint96",
          "name": "identityId",
          "type": "uint96"
        }
      ],
      "name": "pushBack",
      "outputs": [],
      "stateMutability": "nonpayable",
      "type": "function"
    },
    {
      "inputs": [
        {
          "internalType": "uint96",
          "name": "identityId",
          "type": "uint96"
        }
      ],
      "name": "pushFront",
      "outputs": [],
      "stateMutability": "nonpayable",
      "type": "function"
    },
    {
      "inputs": [
        {
          "internalType": "uint96",
          "name": "identityId",
          "type": "uint96"
        }
      ],
      "name": "removeNode",
      "outputs": [],
      "stateMutability": "nonpayable",
      "type": "function"
    },
    {
      "inputs": [
        {
          "internalType": "bytes",
          "name": "nodeId",
          "type": "bytes"
        }
      ],
      "name": "removeNodeById",
      "outputs": [],
      "stateMutability": "nonpayable",
      "type": "function"
    }
  ],
  "bytecode": "0x60806040523480156200001157600080fd5b50604051620042783803806200427883398181016040528101906200003791906200036b565b600073ffffffffffffffffffffffffffffffffffffffff168173ffffffffffffffffffffffffffffffffffffffff16036200007157600080fd5b806000806101000a81548173ffffffffffffffffffffffffffffffffffffffff021916908373ffffffffffffffffffffffffffffffffffffffff1602179055506040518060200160405280600081525060019080519060200190620000d8929190620001b9565b5060026001604051620000ec9190620004ac565b602060405180830381855afa1580156200010a573d6000803e3d6000fd5b5050506040513d601f19601f820116820180604052508101906200012f919062000500565b60066001604051620001429190620004ac565b908152602001604051809103902081905550600160029080546200016690620003cc565b620001739291906200024a565b50600160039080546200018690620003cc565b620001939291906200024a565b506000600460006101000a81548161ffff021916908361ffff1602179055505062000532565b828054620001c790620003cc565b90600052602060002090601f016020900481019282620001eb576000855562000237565b82601f106200020657805160ff191683800117855562000237565b8280016001018555821562000237579182015b828111156200023657825182559160200191906001019062000219565b5b509050620002469190620002e2565b5090565b8280546200025890620003cc565b90600052602060002090601f0160209004810192826200027c5760008555620002cf565b82601f106200028f5780548555620002cf565b82800160010185558215620002cf57600052602060002091601f016020900482015b82811115620002ce578254825591600101919060010190620002b1565b5b509050620002de9190620002e2565b5090565b5b80821115620002fd576000816000905550600101620002e3565b5090565b600080fd5b600073ffffffffffffffffffffffffffffffffffffffff82169050919050565b6000620003338262000306565b9050919050565b620003458162000326565b81146200035157600080fd5b50565b60008151905062000365816200033a565b92915050565b60006020828403121562000384576200038362000301565b5b6000620003948482850162000354565b91505092915050565b7f4e487b7100000000000000000000000000000000000000000000000000000000600052602260045260246000fd5b60006002820490506001821680620003e557607f821691505b602082108103620003fb57620003fa6200039d565b5b50919050565b600081905092915050565b60008190508160005260206000209050919050565b600081546200043081620003cc565b6200043c818662000401565b945060018216600081146200045a57600181146200046c57620004a3565b60ff19831686528186019350620004a3565b62000477856200040c565b60005b838110156200049b578154818901526001820191506020810190506200047a565b838801955050505b50505092915050565b6000620004ba828462000421565b915081905092915050565b6000819050919050565b620004da81620004c5565b8114620004e657600080fd5b50565b600081519050620004fa81620004cf565b92915050565b60006020828403121562000519576200051862000301565b5b60006200052984828501620004e9565b91505092915050565b613d3680620005426000396000f3fe608060405234801561001057600080fd5b506004361061009e5760003560e01c8063796f11aa11610066578063796f11aa146101495780638f7dcfa314610165578063e1131caa14610183578063f1a3c5b31461019f578063ffdd7edd146101bd5761009e565b806304848448146100a357806313d8c840146100bf5780631593848f146100dd578063289220c61461010d578063365a86fc1461012b575b600080fd5b6100bd60048036038101906100b891906131f3565b6101d9565b005b6100c7610a29565b6040516100d491906132c4565b60405180910390f35b6100f760048036038101906100f29190613320565b610ab7565b60405161010491906134ff565b60405180910390f35b61011561133e565b60405161012291906134ff565b60405180910390f35b6101336113e9565b60405161014091906135a0565b60405180910390f35b610163600480360381019061015e91906135e7565b61140d565b005b61016d611d97565b60405161017a91906132c4565b60405180910390f35b61019d600480360381019061019891906135e7565b611e25565b005b6101a761237f565b6040516101b49190613623565b60405180910390f35b6101d760048036038101906101d291906135e7565b612393565b005b60008054906101000a900473ffffffffffffffffffffffffffffffffffffffff1673ffffffffffffffffffffffffffffffffffffffff16638da5cb5b6040518163ffffffff1660e01b8152600401602060405180830381865afa158015610244573d6000803e3d6000fd5b505050506040513d601f19601f82011682018060405250810190610268919061367c565b73ffffffffffffffffffffffffffffffffffffffff163373ffffffffffffffffffffffffffffffffffffffff16146102d5576040517f08c379a00000000000000000000000000000000000000000000000000000000081526004016102cc9061372c565b60405180910390fd5b60006005826040516102e79190613788565b90815260200160405180910390206040518060800160405290816000820160009054906101000a90046bffffffffffffffffffffffff166bffffffffffffffffffffffff166bffffffffffffffffffffffff16815260200160018201805461034e906137ce565b80601f016020809104026020016040519081016040528092919081815260200182805461037a906137ce565b80156103c75780601f1061039c576101008083540402835291602001916103c7565b820191906000526020600020905b8154815290600101906020018083116103aa57829003601f168201915b505050505081526020016002820180546103e0906137ce565b80601f016020809104026020016040519081016040528092919081815260200182805461040c906137ce565b80156104595780601f1061042e57610100808354040283529160200191610459565b820191906000526020600020905b81548152906001019060200180831161043c57829003601f168201915b50505050508152602001600382018054610472906137ce565b80601f016020809104026020016040519081016040528092919081815260200182805461049e906137ce565b80156104eb5780601f106104c0576101008083540402835291602001916104eb565b820191906000526020600020905b8154815290600101906020018083116104ce57829003601f168201915b505050505081525050905061058a60028054610506906137ce565b80601f0160208091040260200160405190810160405280929190818152602001828054610532906137ce565b801561057f5780601f106105545761010080835404028352916020019161057f565b820191906000526020600020905b81548152906001019060200180831161056257829003601f168201915b5050505050836128ed565b80156106265750610625600380546105a1906137ce565b80601f01602080910402602001604051908101604052809291908181526020018280546105cd906137ce565b801561061a5780601f106105ef5761010080835404028352916020019161061a565b820191906000526020600020905b8154815290600101906020018083116105fd57829003601f168201915b5050505050836128ed565b5b15610756576106be6001805461063b906137ce565b80601f0160208091040260200160405190810160405280929190818152602001828054610667906137ce565b80156106b45780601f10610689576101008083540402835291602001916106b4565b820191906000526020600020905b81548152906001019060200180831161069757829003601f168201915b5050505050612936565b610751600180546106ce906137ce565b80601f01602080910402602001604051908101604052809291908181526020018280546106fa906137ce565b80156107475780601f1061071c57610100808354040283529160200191610747565b820191906000526020600020905b81548152906001019060200180831161072a57829003601f168201915b5050505050612950565b610939565b6107ea60028054610766906137ce565b80601f0160208091040260200160405190810160405280929190818152602001828054610792906137ce565b80156107df5780601f106107b4576101008083540402835291602001916107df565b820191906000526020600020905b8154815290600101906020018083116107c257829003601f168201915b5050505050836128ed565b1561083d576107fc8160600151612936565b60016005600260405161080f9190613893565b908152602001604051809103902060020190805461082c906137ce565b610837929190612eec565b50610938565b6108d16003805461084d906137ce565b80601f0160208091040260200160405190810160405280929190818152602001828054610879906137ce565b80156108c65780601f1061089b576101008083540402835291602001916108c6565b820191906000526020600020905b8154815290600101906020018083116108a957829003601f168201915b5050505050836128ed565b15610924576108e38160400151612950565b6001600560036040516108f69190613893565b9081526020016040518091039020600301908054610913906137ce565b61091e929190612eec565b50610937565b6109368160400151826060015161296a565b5b5b5b6005826040516109499190613788565b9081526020016040518091039020600080820160006101000a8154906bffffffffffffffffffffffff02191690556001820160006109879190612f79565b6002820160006109979190612f79565b6003820160006109a79190612f79565b50506001600460008282829054906101000a900461ffff166109c991906138d9565b92506101000a81548161ffff021916908361ffff160217905550816040516109f19190613788565b60405180910390207f95cd81cf39e148b985bcebddacf7182ecfa6277e5d569a7d4c812b8896cb25aa60405160405180910390a25050565b60038054610a36906137ce565b80601f0160208091040260200160405190810160405280929190818152602001828054610a62906137ce565b8015610aaf5780601f10610a8457610100808354040283529160200191610aaf565b820191906000526020600020905b815481529060010190602001808311610a9257829003601f168201915b505050505081565b6060610b7b600584604051610acc9190613788565b90815260200160405180910390206001018054610ae8906137ce565b80601f0160208091040260200160405190810160405280929190818152602001828054610b14906137ce565b8015610b615780601f10610b3657610100808354040283529160200191610b61565b820191906000526020600020905b815481529060010190602001808311610b4457829003601f168201915b5050505050604051806020016040528060008152506128ed565b1580610c175750610c168360018054610b93906137ce565b80601f0160208091040260200160405190810160405280929190818152602001828054610bbf906137ce565b8015610c0c5780601f10610be157610100808354040283529160200191610c0c565b820191906000526020600020905b815481529060010190602001808311610bef57829003601f168201915b50505050506128ed565b5b610c2057600080fd5b60606000600460009054906101000a900461ffff1661ffff1603610c475780915050611338565b8261ffff1667ffffffffffffffff811115610c6557610c646130c8565b5b604051908082528060200260200182016040528015610c9e57816020015b610c8b612fb9565b815260200190600190039081610c835790505b50905060008060009054906101000a900473ffffffffffffffffffffffffffffffffffffffff1673ffffffffffffffffffffffffffffffffffffffff166304433bbc6040518163ffffffff1660e01b8152600401610cfb90613959565b602060405180830381865afa158015610d18573d6000803e3d6000fd5b505050506040513d601f19601f82011682018060405250810190610d3c919061367c565b905060405180606001604052808681526020018273ffffffffffffffffffffffffffffffffffffffff166350f0f408600589604051610d7b9190613788565b908152602001604051809103902060000160009054906101000a90046bffffffffffffffffffffffff166040518263ffffffff1660e01b8152600401610dc19190613988565b602060405180830381865afa158015610dde573d6000803e3d6000fd5b505050506040513d601f19601f82011682018060405250810190610e0291906139b8565b6bffffffffffffffffffffffff1681526020018273ffffffffffffffffffffffffffffffffffffffff16631860bd8e600589604051610e419190613788565b908152602001604051809103902060000160009054906101000a90046bffffffffffffffffffffffff166040518263ffffffff1660e01b8152600401610e879190613988565b602060405180830381865afa158015610ea4573d6000803e3d6000fd5b505050506040513d601f19601f82011682018060405250810190610ec891906139b8565b6bffffffffffffffffffffffff1681525082600081518110610eed57610eec6139e5565b5b60200260200101819052506000600190505b8461ffff168161ffff1610801561107e575061107c600584600184610f2491906138d9565b61ffff1681518110610f3957610f386139e5565b5b602002602001015160000151604051610f529190613788565b90815260200160405180910390206003018054610f6e906137ce565b80601f0160208091040260200160405190810160405280929190818152602001828054610f9a906137ce565b8015610fe75780601f10610fbc57610100808354040283529160200191610fe7565b820191906000526020600020905b815481529060010190602001808311610fca57829003601f168201915b505050505060018054610ff9906137ce565b80601f0160208091040260200160405190810160405280929190818152602001828054611025906137ce565b80156110725780601f1061104757610100808354040283529160200191611072565b820191906000526020600020905b81548152906001019060200180831161105557829003601f168201915b50505050506128ed565b155b1561133157600060058460018461109591906138d9565b61ffff16815181106110aa576110a96139e5565b5b6020026020010151600001516040516110c39190613788565b908152602001604051809103902060030180546110df906137ce565b80601f016020809104026020016040519081016040528092919081815260200182805461110b906137ce565b80156111585780601f1061112d57610100808354040283529160200191611158565b820191906000526020600020905b81548152906001019060200180831161113b57829003601f168201915b5050505050905060405180606001604052808281526020018473ffffffffffffffffffffffffffffffffffffffff166350f0f40860058560405161119c9190613788565b908152602001604051809103902060000160009054906101000a90046bffffffffffffffffffffffff166040518263ffffffff1660e01b81526004016111e29190613988565b602060405180830381865afa1580156111ff573d6000803e3d6000fd5b505050506040513d601f19601f8201168201806040525081019061122391906139b8565b6bffffffffffffffffffffffff1681526020018473ffffffffffffffffffffffffffffffffffffffff16631860bd8e6005856040516112629190613788565b908152602001604051809103902060000160009054906101000a90046bffffffffffffffffffffffff166040518263ffffffff1660e01b81526004016112a89190613988565b602060405180830381865afa1580156112c5573d6000803e3d6000fd5b505050506040513d601f19601f820116820180604052508101906112e991906139b8565b6bffffffffffffffffffffffff16815250848361ffff1681518110611311576113106139e5565b5b60200260200101819052506001826113299190613a14565b915050610eff565b8293505050505b92915050565b60606113e460028054611350906137ce565b80601f016020809104026020016040519081016040528092919081815260200182805461137c906137ce565b80156113c95780601f1061139e576101008083540402835291602001916113c9565b820191906000526020600020905b8154815290600101906020018083116113ac57829003601f168201915b5050505050600460009054906101000a900461ffff16610ab7565b905090565b60008054906101000a900473ffffffffffffffffffffffffffffffffffffffff1681565b60008054906101000a900473ffffffffffffffffffffffffffffffffffffffff1673ffffffffffffffffffffffffffffffffffffffff166304433bbc6040518163ffffffff1660e01b815260040161146490613a98565b602060405180830381865afa158015611481573d6000803e3d6000fd5b505050506040513d601f19601f820116820180604052508101906114a5919061367c565b73ffffffffffffffffffffffffffffffffffffffff163373ffffffffffffffffffffffffffffffffffffffff1614611512576040517f08c379a000000000000000000000000000000000000000000000000000000000815260040161150990613b2a565b60405180910390fd5b60008060009054906101000a900473ffffffffffffffffffffffffffffffffffffffff1673ffffffffffffffffffffffffffffffffffffffff166304433bbc6040518163ffffffff1660e01b815260040161156c90613959565b602060405180830381865afa158015611589573d6000803e3d6000fd5b505050506040513d601f19601f820116820180604052508101906115ad919061367c565b905060008173ffffffffffffffffffffffffffffffffffffffff16636c5c281c846040518263ffffffff1660e01b81526004016115ea9190613988565b600060405180830381865afa158015611607573d6000803e3d6000fd5b505050506040513d6000823e3d601f19601f820116820180604052508101906116309190613bba565b905060006005826040516116449190613788565b90815260200160405180910390206040518060800160405290816000820160009054906101000a90046bffffffffffffffffffffffff166bffffffffffffffffffffffff166bffffffffffffffffffffffff1681526020016001820180546116ab906137ce565b80601f01602080910402602001604051908101604052809291908181526020018280546116d7906137ce565b80156117245780601f106116f957610100808354040283529160200191611724565b820191906000526020600020905b81548152906001019060200180831161170757829003601f168201915b5050505050815260200160028201805461173d906137ce565b80601f0160208091040260200160405190810160405280929190818152602001828054611769906137ce565b80156117b65780601f1061178b576101008083540402835291602001916117b6565b820191906000526020600020905b81548152906001019060200180831161179957829003601f168201915b505050505081526020016003820180546117cf906137ce565b80601f01602080910402602001604051908101604052809291908181526020018280546117fb906137ce565b80156118485780601f1061181d57610100808354040283529160200191611848565b820191906000526020600020905b81548152906001019060200180831161182b57829003601f168201915b50505050508152505090506118e760028054611863906137ce565b80601f016020809104026020016040519081016040528092919081815260200182805461188f906137ce565b80156118dc5780601f106118b1576101008083540402835291602001916118dc565b820191906000526020600020905b8154815290600101906020018083116118bf57829003601f168201915b5050505050836128ed565b80156119835750611982600380546118fe906137ce565b80601f016020809104026020016040519081016040528092919081815260200182805461192a906137ce565b80156119775780601f1061194c57610100808354040283529160200191611977565b820191906000526020600020905b81548152906001019060200180831161195a57829003601f168201915b5050505050836128ed565b5b15611ab357611a1b60018054611998906137ce565b80601f01602080910402602001604051908101604052809291908181526020018280546119c4906137ce565b8015611a115780601f106119e657610100808354040283529160200191611a11565b820191906000526020600020905b8154815290600101906020018083116119f457829003601f168201915b5050505050612936565b611aae60018054611a2b906137ce565b80601f0160208091040260200160405190810160405280929190818152602001828054611a57906137ce565b8015611aa45780601f10611a7957610100808354040283529160200191611aa4565b820191906000526020600020905b815481529060010190602001808311611a8757829003601f168201915b5050505050612950565b611c96565b611b4760028054611ac3906137ce565b80601f0160208091040260200160405190810160405280929190818152602001828054611aef906137ce565b8015611b3c5780601f10611b1157610100808354040283529160200191611b3c565b820191906000526020600020905b815481529060010190602001808311611b1f57829003601f168201915b5050505050836128ed565b15611b9a57611b598160600151612936565b600160056002604051611b6c9190613893565b9081526020016040518091039020600201908054611b89906137ce565b611b94929190612eec565b50611c95565b611c2e60038054611baa906137ce565b80601f0160208091040260200160405190810160405280929190818152602001828054611bd6906137ce565b8015611c235780601f10611bf857610100808354040283529160200191611c23565b820191906000526020600020905b815481529060010190602001808311611c0657829003601f168201915b5050505050836128ed565b15611c8157611c408160400151612950565b600160056003604051611c539190613893565b9081526020016040518091039020600301908054611c70906137ce565b611c7b929190612eec565b50611c94565b611c938160400151826060015161296a565b5b5b5b600582604051611ca69190613788565b9081526020016040518091039020600080820160006101000a8154906bffffffffffffffffffffffff0219169055600182016000611ce49190612f79565b600282016000611cf49190612f79565b600382016000611d049190612f79565b50506001600460008282829054906101000a900461ffff16611d2691906138d9565b92506101000a81548161ffff021916908361ffff16021790555081604051611d4e9190613788565b6040518091039020846bffffffffffffffffffffffff167f43570cb1c3f63cf79e837bd57bb9c02a727142a75728490ecc1eb015431655eb60405160405180910390a350505050565b60028054611da4906137ce565b80601f0160208091040260200160405190810160405280929190818152602001828054611dd0906137ce565b8015611e1d5780601f10611df257610100808354040283529160200191611e1d565b820191906000526020600020905b815481529060010190602001808311611e0057829003601f168201915b505050505081565b60008054906101000a900473ffffffffffffffffffffffffffffffffffffffff1673ffffffffffffffffffffffffffffffffffffffff166304433bbc6040518163ffffffff1660e01b8152600401611e7c90613a98565b602060405180830381865afa158015611e99573d6000803e3d6000fd5b505050506040513d601f19601f82011682018060405250810190611ebd919061367c565b73ffffffffffffffffffffffffffffffffffffffff163373ffffffffffffffffffffffffffffffffffffffff1614611f2a576040517f08c379a0000000000000000000000000000000000000000000000000000000008152600401611f2190613b2a565b60405180910390fd5b611f33816129da565b60008060009054906101000a900473ffffffffffffffffffffffffffffffffffffffff1673ffffffffffffffffffffffffffffffffffffffff166304433bbc6040518163ffffffff1660e01b8152600401611f8d90613959565b602060405180830381865afa158015611faa573d6000803e3d6000fd5b505050506040513d601f19601f82011682018060405250810190611fce919061367c565b905060008173ffffffffffffffffffffffffffffffffffffffff16636c5c281c846040518263ffffffff1660e01b815260040161200b9190613988565b600060405180830381865afa158015612028573d6000803e3d6000fd5b505050506040513d6000823e3d601f19601f820116820180604052508101906120519190613bba565b905061217160038054612063906137ce565b80601f016020809104026020016040519081016040528092919081815260200182805461208f906137ce565b80156120dc5780601f106120b1576101008083540402835291602001916120dc565b820191906000526020600020905b8154815290600101906020018083116120bf57829003601f168201915b5050505050600180546120ee906137ce565b80601f016020809104026020016040519081016040528092919081815260200182805461211a906137ce565b80156121675780601f1061213c57610100808354040283529160200191612167565b820191906000526020600020905b81548152906001019060200180831161214a57829003601f168201915b50505050506128ed565b61220a5761220960038054612185906137ce565b80601f01602080910402602001604051908101604052809291908181526020018280546121b1906137ce565b80156121fe5780601f106121d3576101008083540402835291602001916121fe565b820191906000526020600020905b8154815290600101906020018083116121e157829003601f168201915b50505050508261296a565b5b61221381612950565b61233160028054612223906137ce565b80601f016020809104026020016040519081016040528092919081815260200182805461224f906137ce565b801561229c5780601f106122715761010080835404028352916020019161229c565b820191906000526020600020905b81548152906001019060200180831161227f57829003601f168201915b5050505050600180546122ae906137ce565b80601f01602080910402602001604051908101604052809291908181526020018280546122da906137ce565b80156123275780601f106122fc57610100808354040283529160200191612327565b820191906000526020600020905b81548152906001019060200180831161230a57829003601f168201915b50505050506128ed565b156123405761233f81612936565b5b6001600460008282829054906101000a900461ffff166123609190613a14565b92506101000a81548161ffff021916908361ffff160217905550505050565b600460009054906101000a900461ffff1681565b60008054906101000a900473ffffffffffffffffffffffffffffffffffffffff1673ffffffffffffffffffffffffffffffffffffffff166304433bbc6040518163ffffffff1660e01b81526004016123ea90613a98565b602060405180830381865afa158015612407573d6000803e3d6000fd5b505050506040513d601f19601f8201168201806040525081019061242b919061367c565b73ffffffffffffffffffffffffffffffffffffffff163373ffffffffffffffffffffffffffffffffffffffff1614612498576040517f08c379a000000000000000000000000000000000000000000000000000000000815260040161248f90613b2a565b60405180910390fd5b6124a1816129da565b60008060009054906101000a900473ffffffffffffffffffffffffffffffffffffffff1673ffffffffffffffffffffffffffffffffffffffff166304433bbc6040518163ffffffff1660e01b81526004016124fb90613959565b602060405180830381865afa158015612518573d6000803e3d6000fd5b505050506040513d601f19601f8201168201806040525081019061253c919061367c565b905060008173ffffffffffffffffffffffffffffffffffffffff16636c5c281c846040518263ffffffff1660e01b81526004016125799190613988565b600060405180830381865afa158015612596573d6000803e3d6000fd5b505050506040513d6000823e3d601f19601f820116820180604052508101906125bf9190613bba565b90506126df600280546125d1906137ce565b80601f01602080910402602001604051908101604052809291908181526020018280546125fd906137ce565b801561264a5780601f1061261f5761010080835404028352916020019161264a565b820191906000526020600020905b81548152906001019060200180831161262d57829003601f168201915b50505050506001805461265c906137ce565b80601f0160208091040260200160405190810160405280929190818152602001828054612688906137ce565b80156126d55780601f106126aa576101008083540402835291602001916126d5565b820191906000526020600020905b8154815290600101906020018083116126b857829003601f168201915b50505050506128ed565b6127785761277781600280546126f4906137ce565b80601f0160208091040260200160405190810160405280929190818152602001828054612720906137ce565b801561276d5780601f106127425761010080835404028352916020019161276d565b820191906000526020600020905b81548152906001019060200180831161275057829003601f168201915b505050505061296a565b5b61278181612936565b61289f60038054612791906137ce565b80601f01602080910402602001604051908101604052809291908181526020018280546127bd906137ce565b801561280a5780601f106127df5761010080835404028352916020019161280a565b820191906000526020600020905b8154815290600101906020018083116127ed57829003601f168201915b50505050506001805461281c906137ce565b80601f0160208091040260200160405190810160405280929190818152602001828054612848906137ce565b80156128955780601f1061286a57610100808354040283529160200191612895565b820191906000526020600020905b81548152906001019060200180831161287857829003601f168201915b50505050506128ed565b156128ae576128ad81612950565b5b6001600460008282829054906101000a900461ffff166128ce9190613a14565b92506101000a81548161ffff021916908361ffff160217905550505050565b60006006826040516128ff9190613788565b90815260200160405180910390205460068460405161291e9190613788565b90815260200160405180910390205414905092915050565b806002908051906020019061294c929190612ff6565b5050565b8060039080519060200190612966929190612ff6565b5050565b8060058360405161297b9190613788565b9081526020016040518091039020600301908051906020019061299f929190612ff6565b50816005826040516129b19190613788565b908152602001604051809103902060020190805190602001906129d5929190612ff6565b505050565b60008060009054906101000a900473ffffffffffffffffffffffffffffffffffffffff1673ffffffffffffffffffffffffffffffffffffffff166304433bbc6040518163ffffffff1660e01b8152600401612a3490613959565b602060405180830381865afa158015612a51573d6000803e3d6000fd5b505050506040513d601f19601f82011682018060405250810190612a75919061367c565b905060008173ffffffffffffffffffffffffffffffffffffffff16636c5c281c846040518263ffffffff1660e01b8152600401612ab29190613988565b600060405180830381865afa158015612acf573d6000803e3d6000fd5b505050506040513d6000823e3d601f19601f82011682018060405250810190612af89190613bba565b905060008273ffffffffffffffffffffffffffffffffffffffff1663e2bd16bd8560006040518363ffffffff1660e01b8152600401612b38929190613c4b565b602060405180830381865afa158015612b55573d6000803e3d6000fd5b505050506040513d601f19601f82011682018060405250810190612b799190613caa565b905060006040518060800160405280866bffffffffffffffffffffffff16815260200184815260200160018054612baf906137ce565b80601f0160208091040260200160405190810160405280929190818152602001828054612bdb906137ce565b8015612c285780601f10612bfd57610100808354040283529160200191612c28565b820191906000526020600020905b815481529060010190602001808311612c0b57829003601f168201915b5050505050815260200160018054612c3f906137ce565b80601f0160208091040260200160405190810160405280929190818152602001828054612c6b906137ce565b8015612cb85780601f10612c8d57610100808354040283529160200191612cb8565b820191906000526020600020905b815481529060010190602001808311612c9b57829003601f168201915b5050505050815250905080600584604051612cd39190613788565b908152602001604051809103902060008201518160000160006101000a8154816bffffffffffffffffffffffff02191690836bffffffffffffffffffffffff1602179055506020820151816001019080519060200190612d34929190612ff6565b506040820151816002019080519060200190612d51929190612ff6565b506060820151816003019080519060200190612d6e929190612ff6565b5090505081600684604051612d839190613788565b90815260200160405180910390208190555082604051612da39190613788565b6040518091039020856bffffffffffffffffffffffff167ff90ec14cbfaed489dba4e58a1ff687b1235df546f2850d7bdb9715a1003246658673ffffffffffffffffffffffffffffffffffffffff166350f0f408896040518263ffffffff1660e01b8152600401612e149190613988565b602060405180830381865afa158015612e31573d6000803e3d6000fd5b505050506040513d601f19601f82011682018060405250810190612e5591906139b8565b8773ffffffffffffffffffffffffffffffffffffffff16631860bd8e8a6040518263ffffffff1660e01b8152600401612e8e9190613988565b602060405180830381865afa158015612eab573d6000803e3d6000fd5b505050506040513d601f19601f82011682018060405250810190612ecf91906139b8565b604051612edd929190613cd7565b60405180910390a35050505050565b828054612ef8906137ce565b90600052602060002090601f016020900481019282612f1a5760008555612f68565b82601f10612f2b5780548555612f68565b82800160010185558215612f6857600052602060002091601f016020900482015b82811115612f67578254825591600101919060010190612f4c565b5b509050612f75919061307c565b5090565b508054612f85906137ce565b6000825580601f10612f975750612fb6565b601f016020900490600052602060002090810190612fb5919061307c565b5b50565b60405180606001604052806060815260200160006bffffffffffffffffffffffff16815260200160006bffffffffffffffffffffffff1681525090565b828054613002906137ce565b90600052602060002090601f016020900481019282613024576000855561306b565b82601f1061303d57805160ff191683800117855561306b565b8280016001018555821561306b579182015b8281111561306a57825182559160200191906001019061304f565b5b509050613078919061307c565b5090565b5b8082111561309557600081600090555060010161307d565b5090565b6000604051905090565b600080fd5b600080fd5b600080fd5b600080fd5b6000601f19601f8301169050919050565b7f4e487b7100000000000000000000000000000000000000000000000000000000600052604160045260246000fd5b613100826130b7565b810181811067ffffffffffffffff8211171561311f5761311e6130c8565b5b80604052505050565b6000613132613099565b905061313e82826130f7565b919050565b600067ffffffffffffffff82111561315e5761315d6130c8565b5b613167826130b7565b9050602081019050919050565b82818337600083830152505050565b600061319661319184613143565b613128565b9050828152602081018484840111156131b2576131b16130b2565b5b6131bd848285613174565b509392505050565b600082601f8301126131da576131d96130ad565b5b81356131ea848260208601613183565b91505092915050565b600060208284031215613209576132086130a3565b5b600082013567ffffffffffffffff811115613227576132266130a8565b5b613233848285016131c5565b91505092915050565b600081519050919050565b600082825260208201905092915050565b60005b8381101561327657808201518184015260208101905061325b565b83811115613285576000848401525b50505050565b60006132968261323c565b6132a08185613247565b93506132b0818560208601613258565b6132b9816130b7565b840191505092915050565b600060208201905081810360008301526132de818461328b565b905092915050565b600061ffff82169050919050565b6132fd816132e6565b811461330857600080fd5b50565b60008135905061331a816132f4565b92915050565b60008060408385031215613337576133366130a3565b5b600083013567ffffffffffffffff811115613355576133546130a8565b5b613361858286016131c5565b92505060206133728582860161330b565b9150509250929050565b600081519050919050565b600082825260208201905092915050565b6000819050602082019050919050565b600082825260208201905092915050565b60006133c48261323c565b6133ce81856133a8565b93506133de818560208601613258565b6133e7816130b7565b840191505092915050565b60006bffffffffffffffffffffffff82169050919050565b613413816133f2565b82525050565b6000606083016000830151848203600086015261343682826133b9565b915050602083015161344b602086018261340a565b50604083015161345e604086018261340a565b508091505092915050565b60006134758383613419565b905092915050565b6000602082019050919050565b60006134958261337c565b61349f8185613387565b9350836020820285016134b185613398565b8060005b858110156134ed57848403895281516134ce8582613469565b94506134d98361347d565b925060208a019950506001810190506134b5565b50829750879550505050505092915050565b60006020820190508181036000830152613519818461348a565b905092915050565b600073ffffffffffffffffffffffffffffffffffffffff82169050919050565b6000819050919050565b600061356661356161355c84613521565b613541565b613521565b9050919050565b60006135788261354b565b9050919050565b600061358a8261356d565b9050919050565b61359a8161357f565b82525050565b60006020820190506135b56000830184613591565b92915050565b6135c4816133f2565b81146135cf57600080fd5b50565b6000813590506135e1816135bb565b92915050565b6000602082840312156135fd576135fc6130a3565b5b600061360b848285016135d2565b91505092915050565b61361d816132e6565b82525050565b60006020820190506136386000830184613614565b92915050565b600061364982613521565b9050919050565b6136598161363e565b811461366457600080fd5b50565b60008151905061367681613650565b92915050565b600060208284031215613692576136916130a3565b5b60006136a084828501613667565b91505092915050565b600082825260208201905092915050565b7f46756e6374696f6e2063616e206f6e6c792062652063616c6c6564206279206860008201527f7562206f776e6572210000000000000000000000000000000000000000000000602082015250565b60006137166029836136a9565b9150613721826136ba565b604082019050919050565b6000602082019050818103600083015261374581613709565b9050919050565b600081905092915050565b60006137628261323c565b61376c818561374c565b935061377c818560208601613258565b80840191505092915050565b60006137948284613757565b915081905092915050565b7f4e487b7100000000000000000000000000000000000000000000000000000000600052602260045260246000fd5b600060028204905060018216806137e657607f821691505b6020821081036137f9576137f861379f565b5b50919050565b60008190508160005260206000209050919050565b60008154613821816137ce565b61382b818661374c565b9450600182166000811461384657600181146138575761388a565b60ff1983168652818601935061388a565b613860856137ff565b60005b8381101561388257815481890152600182019150602081019050613863565b838801955050505b50505092915050565b600061389f8284613814565b915081905092915050565b7f4e487b7100000000000000000000000000000000000000000000000000000000600052601160045260246000fd5b60006138e4826132e6565b91506138ef836132e6565b925082821015613902576139016138aa565b5b828203905092915050565b7f50726f66696c6553746f72616765000000000000000000000000000000000000600082015250565b6000613943600e836136a9565b915061394e8261390d565b602082019050919050565b6000602082019050818103600083015261397281613936565b9050919050565b613982816133f2565b82525050565b600060208201905061399d6000830184613979565b92915050565b6000815190506139b2816135bb565b92915050565b6000602082840312156139ce576139cd6130a3565b5b60006139dc848285016139a3565b91505092915050565b7f4e487b7100000000000000000000000000000000000000000000000000000000600052603260045260246000fd5b6000613a1f826132e6565b9150613a2a836132e6565b92508261ffff03821115613a4157613a406138aa565b5b828201905092915050565b7f50726f66696c6500000000000000000000000000000000000000000000000000600082015250565b6000613a826007836136a9565b9150613a8d82613a4c565b602082019050919050565b60006020820190508181036000830152613ab181613a75565b9050919050565b7f46756e6374696f6e2063616e206f6e6c792062652063616c6c6564206279205060008201527f726f66696c6520636f6e74726163742100000000000000000000000000000000602082015250565b6000613b146030836136a9565b9150613b1f82613ab8565b604082019050919050565b60006020820190508181036000830152613b4381613b07565b9050919050565b6000613b5d613b5884613143565b613128565b905082815260208101848484011115613b7957613b786130b2565b5b613b84848285613258565b509392505050565b600082601f830112613ba157613ba06130ad565b5b8151613bb1848260208601613b4a565b91505092915050565b600060208284031215613bd057613bcf6130a3565b5b600082015167ffffffffffffffff811115613bee57613bed6130a8565b5b613bfa84828501613b8c565b91505092915050565b6000819050919050565b600060ff82169050919050565b6000613c35613c30613c2b84613c03565b613541565b613c0d565b9050919050565b613c4581613c1a565b82525050565b6000604082019050613c606000830185613979565b613c6d6020830184613c3c565b9392505050565b6000819050919050565b613c8781613c74565b8114613c9257600080fd5b50565b600081519050613ca481613c7e565b92915050565b600060208284031215613cc057613cbf6130a3565b5b6000613cce84828501613c95565b91505092915050565b6000604082019050613cec6000830185613979565b613cf96020830184613979565b939250505056fea26469706673582212206ab737db7365c6c403393bb9b8abfd022fc65ea32114b39428bd6bd2e3020e1264736f6c634300080e0033",
  "immutableReferences": {},
  "source": "// SPDX-License-Identifier: MIT\n\npragma solidity^0.8.0;\n\nimport {Hub} from './Hub.sol';\nimport {ProfileStorage} from './storage/ProfileStorage.sol';\n\ncontract ShardingTable {\n    event NodeObjCreated(uint96 indexed identityId, bytes indexed nodeId, uint96 ask, uint96 stake);\n    event NodeRemoved(uint96 indexed identityId, bytes indexed nodeId);\n    event NodeRemovedByHubOwner(bytes indexed nodeId);\n\n    struct Node {\n        uint96 identityId;\n        bytes id;\n        bytes prevNodeId;\n        bytes nextNodeId;\n    }\n\n    struct NodeInfo {\n        bytes id;\n        uint96 ask;\n        uint96 stake;\n    }\n\n    Hub public hub;\n\n    bytes private emptyPointer;\n    bytes public head;\n    bytes public tail;\n    uint16 public nodesCount;\n\n    mapping(bytes => Node) nodes;\n    mapping(bytes => bytes32) nodeIdsSha256;\n\n    constructor(address hubAddress) {\n        require(hubAddress != address(0));\n        hub = Hub(hubAddress);\n\n        emptyPointer = \"\";\n        nodeIdsSha256[emptyPointer] = sha256(emptyPointer);\n        head = emptyPointer;\n        tail = emptyPointer;\n        nodesCount = 0;\n    }\n\n    modifier onlyProfile() {\n        require(msg.sender == hub.getContractAddress(\"Profile\"),\n        \"Function can only be called by Profile contract!\");\n        _;\n    }\n\n    modifier onlyHubOwner() {\n        require (\n            msg.sender == hub.owner(),\n            \"Function can only be called by hub owner!\"\n        );\n        _;\n    }\n\n    function getShardingTable(bytes memory startingNodeId, uint16 nodesNumber)\n        public\n        view\n        returns (NodeInfo[] memory)\n    {\n        require(\n            !_equalIdHashes(nodes[startingNodeId].id, \"\") ||\n            _equalIdHashes(startingNodeId, emptyPointer)\n        );\n\n        NodeInfo[] memory nodesPage;\n\n        if (nodesCount == 0) {\n            return nodesPage;\n        }\n\n        nodesPage = new NodeInfo[](nodesNumber);\n\n        ProfileStorage profileStorage = ProfileStorage(hub.getContractAddress(\"ProfileStorage\"));\n\n        nodesPage[0] = NodeInfo(\n            startingNodeId,\n            profileStorage.getAsk(nodes[startingNodeId].identityId),\n            profileStorage.getStake(nodes[startingNodeId].identityId)\n        );\n\n        uint16 i = 1;\n        while (i < nodesNumber && !_equalIdHashes(nodes[nodesPage[i-1].id].nextNodeId, emptyPointer)) {\n            bytes memory nextNodeId = nodes[nodesPage[i-1].id].nextNodeId;\n\n            nodesPage[i] = NodeInfo(\n                nextNodeId,\n                profileStorage.getAsk(nodes[nextNodeId].identityId),\n                profileStorage.getStake(nodes[nextNodeId].identityId)\n            );\n            i += 1;\n        }\n        return nodesPage;\n    }\n\n    function getShardingTable()\n        public\n        view\n        returns (NodeInfo[] memory)\n    {\n        return getShardingTable(head, nodesCount);\n    }\n\n    function pushBack(uint96 identityId)\n        public\n        onlyProfile\n    {        \n        _createNodeObj(identityId);\n\n        ProfileStorage profileStorage = ProfileStorage(hub.getContractAddress(\"ProfileStorage\"));\n        bytes memory nodeId = profileStorage.getNodeId(identityId);\n\n        if (!_equalIdHashes(tail, emptyPointer)) _link(tail, nodeId);\n        _setTail(nodeId);\n\n        if (_equalIdHashes(head, emptyPointer)) _setHead(nodeId);\n\n        nodesCount += 1;\n    }\n\n    function pushFront(uint96 identityId)\n        public\n        onlyProfile\n    {\n        _createNodeObj(identityId);\n\n        ProfileStorage profileStorage = ProfileStorage(hub.getContractAddress(\"ProfileStorage\"));\n        bytes memory nodeId = profileStorage.getNodeId(identityId);\n\n        if (!_equalIdHashes(head, emptyPointer)) _link(nodeId, head);\n        _setHead(nodeId);\n\n        if (_equalIdHashes(tail, emptyPointer)) _setTail(nodeId);\n\n        nodesCount += 1;\n    }\n\n    function removeNode(uint96 identityId)\n        public\n        onlyProfile\n    {\n        ProfileStorage profileStorage = ProfileStorage(hub.getContractAddress(\"ProfileStorage\"));\n        bytes memory nodeId = profileStorage.getNodeId(identityId);\n\n        Node memory nodeToRemove = nodes[nodeId];\n\n        if (_equalIdHashes(head, nodeId) && _equalIdHashes(tail, nodeId)) {\n            _setHead(emptyPointer);\n            _setTail(emptyPointer);\n        }\n        else if (_equalIdHashes(head, nodeId)) {\n            _setHead(nodeToRemove.nextNodeId);\n            nodes[head].prevNodeId = emptyPointer;\n        }\n        else if (_equalIdHashes(tail, nodeId)) {\n            _setTail(nodeToRemove.prevNodeId);\n            nodes[tail].nextNodeId = emptyPointer;\n        }\n        else {\n            _link(nodeToRemove.prevNodeId, nodeToRemove.nextNodeId);\n        }\n\n        delete nodes[nodeId];\n\n        nodesCount -= 1;\n    \n        emit NodeRemoved(identityId, nodeId);\n    }\n\n    function removeNodeById(bytes memory nodeId)\n        public\n        onlyHubOwner\n    {\n        Node memory nodeToRemove = nodes[nodeId];\n\n        if (_equalIdHashes(head, nodeId) && _equalIdHashes(tail, nodeId)) {\n            _setHead(emptyPointer);\n            _setTail(emptyPointer);\n        }\n        else if (_equalIdHashes(head, nodeId)) {\n            _setHead(nodeToRemove.nextNodeId);\n            nodes[head].prevNodeId = emptyPointer;\n        }\n        else if (_equalIdHashes(tail, nodeId)) {\n            _setTail(nodeToRemove.prevNodeId);\n            nodes[tail].nextNodeId = emptyPointer;\n        }\n        else {\n            _link(nodeToRemove.prevNodeId, nodeToRemove.nextNodeId);\n        }\n\n        delete nodes[nodeId];\n\n        nodesCount -= 1;\n    \n        emit NodeRemovedByHubOwner(nodeId);\n    }\n\n    function _createNodeObj(uint96 identityId)\n        internal\n    {\n        ProfileStorage profileStorage = ProfileStorage(hub.getContractAddress(\"ProfileStorage\"));\n\n        bytes memory nodeId = profileStorage.getNodeId(identityId);\n        bytes32 nodeIdSha256 = profileStorage.getNodeAddress(identityId, 0);  // 0 - sha256\n\n        Node memory newNode = Node(\n            identityId,\n            nodeId,\n            emptyPointer,\n            emptyPointer\n        );\n\n        nodes[nodeId] = newNode;\n        nodeIdsSha256[nodeId] = nodeIdSha256;\n\n        emit NodeObjCreated(identityId, nodeId, profileStorage.getAsk(identityId), profileStorage.getStake(identityId));\n    }\n\n    function _setHead(bytes memory nodeId)\n        internal\n    {\n        head = nodeId;\n    }\n\n    function _setTail(bytes memory nodeId)\n        internal\n    {\n        tail = nodeId;\n    }\n\n    function _link(bytes memory _leftNodeId, bytes memory _rightNodeId)\n        internal\n    {\n        nodes[_leftNodeId].nextNodeId = _rightNodeId;\n        nodes[_rightNodeId].prevNodeId = _leftNodeId;\n    }\n\n    function _equalIdHashes(bytes memory _firstId, bytes memory _secondId)\n        internal\n        view\n        returns (bool)\n    {\n        return nodeIdsSha256[_firstId] == nodeIdsSha256[_secondId];\n    }\n}\n",
  "sourcePath": "/Users/waving/Desktop/OriginTrail/dkg-evm-module/contracts/ShardingTable.sol",
  "compiler": {
    "name": "solc",
    "version": "0.8.14+commit.80d49f37.Emscripten.clang"
  },
  "schemaVersion": "3.4.10",
  "updatedAt": "2022-11-16T11:11:18.769Z",
  "devdoc": {
    "kind": "dev",
    "methods": {},
    "version": 1
  },
  "userdoc": {
    "kind": "user",
    "methods": {},
    "version": 1
  }
}