{
  "contractName": "ShardingTableStorage",
  "abi": [
    {
      "inputs": [
        {
          "internalType": "address",
          "name": "hubAddress",
          "type": "address"
        }
      ],
      "stateMutability": "nonpayable",
      "type": "constructor"
    },
    {
      "inputs": [],
      "name": "head",
      "outputs": [
        {
          "internalType": "uint72",
          "name": "",
          "type": "uint72"
        }
      ],
      "stateMutability": "view",
      "type": "function"
    },
    {
      "inputs": [],
      "name": "hub",
      "outputs": [
        {
          "internalType": "contract Hub",
          "name": "",
          "type": "address"
        }
      ],
      "stateMutability": "view",
      "type": "function"
    },
    {
      "inputs": [],
      "name": "nodesCount",
      "outputs": [
        {
          "internalType": "uint72",
          "name": "",
          "type": "uint72"
        }
      ],
      "stateMutability": "view",
      "type": "function"
    },
    {
      "inputs": [],
      "name": "tail",
      "outputs": [
        {
          "internalType": "uint72",
          "name": "",
          "type": "uint72"
        }
      ],
      "stateMutability": "view",
      "type": "function"
    },
    {
      "inputs": [],
      "name": "incrementNodesCount",
      "outputs": [],
      "stateMutability": "nonpayable",
      "type": "function"
    },
    {
      "inputs": [],
      "name": "decrementNodesCount",
      "outputs": [],
      "stateMutability": "nonpayable",
      "type": "function"
    },
    {
      "inputs": [
        {
          "internalType": "uint72",
          "name": "identityId",
          "type": "uint72"
        }
      ],
      "name": "setHead",
      "outputs": [],
      "stateMutability": "nonpayable",
      "type": "function"
    },
    {
      "inputs": [
        {
          "internalType": "uint72",
          "name": "identityId",
          "type": "uint72"
        }
      ],
      "name": "setTail",
      "outputs": [],
      "stateMutability": "nonpayable",
      "type": "function"
    },
    {
      "inputs": [
        {
          "internalType": "uint72",
          "name": "identityId",
          "type": "uint72"
        },
        {
          "internalType": "uint72",
          "name": "prevIdentityId",
          "type": "uint72"
        },
        {
          "internalType": "uint72",
          "name": "nextIdentityId",
          "type": "uint72"
        }
      ],
      "name": "createNode",
      "outputs": [],
      "stateMutability": "nonpayable",
      "type": "function"
    },
    {
      "inputs": [
        {
          "internalType": "uint72",
          "name": "identityId",
          "type": "uint72"
        }
      ],
      "name": "getNode",
      "outputs": [
        {
          "components": [
            {
              "internalType": "uint72",
              "name": "identityId",
              "type": "uint72"
            },
            {
              "internalType": "uint72",
              "name": "prevIdentityId",
              "type": "uint72"
            },
            {
              "internalType": "uint72",
              "name": "nextIdentityId",
              "type": "uint72"
            }
          ],
          "internalType": "struct ShardingTableStructs.Node",
          "name": "",
          "type": "tuple"
        }
      ],
      "stateMutability": "view",
      "type": "function"
    },
    {
      "inputs": [
        {
          "internalType": "uint72",
          "name": "identityId",
          "type": "uint72"
        }
      ],
      "name": "removeNode",
      "outputs": [],
      "stateMutability": "nonpayable",
      "type": "function"
    },
    {
      "inputs": [
        {
          "internalType": "uint72",
          "name": "identityId",
          "type": "uint72"
        }
      ],
      "name": "nodeExists",
      "outputs": [
        {
          "internalType": "bool",
          "name": "",
          "type": "bool"
        }
      ],
      "stateMutability": "view",
      "type": "function"
    },
    {
      "inputs": [
        {
          "internalType": "uint72",
          "name": "identityId",
          "type": "uint72"
        },
        {
          "internalType": "uint72",
          "name": "newPrevIdentityId",
          "type": "uint72"
        }
      ],
      "name": "setPrevIdentityId",
      "outputs": [],
      "stateMutability": "nonpayable",
      "type": "function"
    },
    {
      "inputs": [
        {
          "internalType": "uint72",
          "name": "identityId",
          "type": "uint72"
        },
        {
          "internalType": "uint72",
          "name": "newNextIdentityId",
          "type": "uint72"
        }
      ],
      "name": "setNextIdentityId",
      "outputs": [],
      "stateMutability": "nonpayable",
      "type": "function"
    },
    {
      "inputs": [
        {
          "internalType": "uint72",
          "name": "firstIdentityId",
          "type": "uint72"
        },
        {
          "internalType": "uint16",
          "name": "nodesNumber",
          "type": "uint16"
        }
      ],
      "name": "getMultipleNodes",
      "outputs": [
        {
          "components": [
            {
              "internalType": "uint72",
              "name": "identityId",
              "type": "uint72"
            },
            {
              "internalType": "uint72",
              "name": "prevIdentityId",
              "type": "uint72"
            },
            {
              "internalType": "uint72",
              "name": "nextIdentityId",
              "type": "uint72"
            }
          ],
          "internalType": "struct ShardingTableStructs.Node[]",
          "name": "",
          "type": "tuple[]"
        }
      ],
      "stateMutability": "view",
      "type": "function"
    },
    {
      "inputs": [
        {
          "internalType": "uint72",
          "name": "leftNodeIdentityId",
          "type": "uint72"
        },
        {
          "internalType": "uint72",
          "name": "rightNodeIdentityId",
          "type": "uint72"
        }
      ],
      "name": "link",
      "outputs": [],
      "stateMutability": "nonpayable",
      "type": "function"
    }
  ],
  "bytecode": "0x608060405234801561001057600080fd5b50604051610d3a380380610d3a83398101604081905261002f91610076565b6001600160a01b03811661004257600080fd5b600080546001600160e81b0319166001600160a01b03909216919091179055600180546001600160481b03191690556100a6565b60006020828403121561008857600080fd5b81516001600160a01b038116811461009f57600080fd5b9392505050565b610c85806100b56000396000f3fe608060405234801561001057600080fd5b50600436106101005760003560e01c806376d03c2f11610097578063d9b6546311610066578063d9b6546314610307578063de647ca81461030f578063f1a3c5b314610322578063fa8924d41461034457600080fd5b806376d03c2f146102945780638f7dcfa3146102b4578063af9c1ec6146102e1578063d0f4c7cf146102f457600080fd5b8063406def5b116100d3578063406def5b146102265780634f3ae9ee146102395780635d68479c146102415780636b57280e1461028157600080fd5b806313d8c84014610105578063162929e914610139578063283350a5146101cc578063365a86fc146101e1575b600080fd5b60015461011a9068ffffffffffffffffff1681565b60405168ffffffffffffffffff90911681526020015b60405180910390f35b6101bf6101473660046109bb565b60408051606080820183526000808352602080840182905292840181905268ffffffffffffffffff948516815260028352839020835191820184525480851682526901000000000000000000810485169282019290925272010000000000000000000000000000000000009091049092169082015290565b60405161013091906109dd565b6101df6101da366004610a0f565b610357565b005b6000546102019073ffffffffffffffffffffffffffffffffffffffff1681565b60405173ffffffffffffffffffffffffffffffffffffffff9091168152602001610130565b6101df6102343660046109bb565b610401565b6101df610445565b61027161024f3660046109bb565b68ffffffffffffffffff90811660009081526002602052604090205416151590565b6040519015158152602001610130565b6101df61028f366004610a0f565b6104a0565b6102a76102a2366004610a42565b610501565b6040516101309190610a80565b60005461011a9074010000000000000000000000000000000000000000900468ffffffffffffffffff1681565b6101df6102ef3660046109bb565b61069a565b6101df610302366004610a0f565b6106e3565b6101df61074d565b6101df61031d3660046109bb565b61077d565b60015461011a906901000000000000000000900468ffffffffffffffffff1681565b6101df610352366004610af2565b6107d9565b61035f61089f565b68ffffffffffffffffff91821660008181526002602052604080822080547fffffffffff000000000000000000ffffffffffffffffffffffffffffffffffff167201000000000000000000000000000000000000959096169485029590951790945591825291902080547fffffffffffffffffffffffffffff000000000000000000ffffffffffffffffff166901000000000000000000909202919091179055565b61040961089f565b600180547fffffffffffffffffffffffffffffffffffffffffffffff0000000000000000001668ffffffffffffffffff92909216919091179055565b61044d61089f565b600180546901000000000000000000900468ffffffffffffffffff1690600961047583610b64565b91906101000a81548168ffffffffffffffffff021916908368ffffffffffffffffff16021790555050565b6104a861089f565b68ffffffffffffffffff91821660009081526002602052604090208054929091166901000000000000000000027fffffffffffffffffffffffffffff000000000000000000ffffffffffffffffff909216919091179055565b606060008261ffff1667ffffffffffffffff81111561052257610522610b8c565b60405190808252806020026020018201604052801561058b57816020015b60408051606081018252600080825260208083018290529282015282527fffffffffffffffffffffffffffffffffffffffffffffffffffffffffffffffff9092019101816105405790505b5068ffffffffffffffffff808616600090815260026020908152604080832081516060810183529054808616825269010000000000000000008104861693820193909352720100000000000000000000000000000000000090920490931692810192909252919250905b8461ffff1681101561068e578183828151811061061457610614610bbb565b60209081029190910181019190915260409283015168ffffffffffffffffff90811660009081526002835284902084516060810186529054808316825269010000000000000000008104831693820193909352720100000000000000000000000000000000000090920416928101929092526001016105f5565b50909150505b92915050565b6106a261089f565b68ffffffffffffffffff16600090815260026020526040902080547fffffffffff000000000000000000000000000000000000000000000000000000169055565b6106eb61089f565b68ffffffffffffffffff91821660009081526002602052604090208054929091167201000000000000000000000000000000000000027fffffffffff000000000000000000ffffffffffffffffffffffffffffffffffff909216919091179055565b61075561089f565b600180546901000000000000000000900468ffffffffffffffffff1690600961047583610bea565b61078561089f565b6000805468ffffffffffffffffff90921674010000000000000000000000000000000000000000027fffffff000000000000000000ffffffffffffffffffffffffffffffffffffffff909216919091179055565b6107e161089f565b6040805160608101825268ffffffffffffffffff94851680825293851660208083019182529386168284019081526000958652600290945291909320925183549151925185167201000000000000000000000000000000000000027fffffffffff000000000000000000ffffffffffffffffffffffffffffffffffff9386166901000000000000000000027fffffffffffffffffffffffffffff00000000000000000000000000000000000090931691909516171716919091179055565b6000546040517f1627905500000000000000000000000000000000000000000000000000000000815233600482015273ffffffffffffffffffffffffffffffffffffffff90911690631627905590602401602060405180830381865afa15801561090d573d6000803e3d6000fd5b505050506040513d601f19601f820116820180604052508101906109319190610c2d565b61099b576040517f08c379a000000000000000000000000000000000000000000000000000000000815260206004820152601c60248201527f466e2063616e206f6e6c792062652063616c6c65642062792068756200000000604482015260640160405180910390fd5b565b803568ffffffffffffffffff811681146109b657600080fd5b919050565b6000602082840312156109cd57600080fd5b6109d68261099d565b9392505050565b606081016106948284805168ffffffffffffffffff908116835260208083015182169084015260409182015116910152565b60008060408385031215610a2257600080fd5b610a2b8361099d565b9150610a396020840161099d565b90509250929050565b60008060408385031215610a5557600080fd5b610a5e8361099d565b9150602083013561ffff81168114610a7557600080fd5b809150509250929050565b6020808252825182820181905260009190848201906040850190845b81811015610ae657610ad3838551805168ffffffffffffffffff908116835260208083015182169084015260409182015116910152565b9284019260609290920191600101610a9c565b50909695505050505050565b600080600060608486031215610b0757600080fd5b610b108461099d565b9250610b1e6020850161099d565b9150610b2c6040850161099d565b90509250925092565b7f4e487b7100000000000000000000000000000000000000000000000000000000600052601160045260246000fd5b600068ffffffffffffffffff808316818103610b8257610b82610b35565b6001019392505050565b7f4e487b7100000000000000000000000000000000000000000000000000000000600052604160045260246000fd5b7f4e487b7100000000000000000000000000000000000000000000000000000000600052603260045260246000fd5b600068ffffffffffffffffff821680610c0557610c05610b35565b7fffffffffffffffffffffffffffffffffffffffffffffffffffffffffffffffff0192915050565b600060208284031215610c3f57600080fd5b815180151581146109d657600080fdfea2646970667358221220915b378810c0634c951cbceca56bb24397a1a72cdd31d69c406a5a1b1b7c36d864736f6c634300080e0033",
  "immutableReferences": {},
  "source": "// SPDX-License-Identifier: MIT\n\npragma solidity ^0.8.0;\n\nimport { Hub } from \"../Hub.sol\";\nimport { ShardingTableStructs } from \"../structs/ShardingTableStructs.sol\";\nimport { NULL } from \"../constants/ShardingTableConstants.sol\";\n\ncontract ShardingTableStorage {\n\n    Hub public hub;\n\n    uint72 public head;\n    uint72 public tail;\n    uint72 public nodesCount;\n\n    // identityId => Node\n    mapping(uint72 => ShardingTableStructs.Node) nodes;\n\n    constructor(address hubAddress) {\n        require(hubAddress != address(0));\n\n        hub = Hub(hubAddress);\n\n        head = NULL;\n        tail = NULL;\n    }\n\n    modifier onlyContracts() {\n        _checkHub();\n        _;\n    }\n\n    function incrementNodesCount() external onlyContracts {\n        nodesCount++;\n    }\n\n    function decrementNodesCount() external onlyContracts {\n        nodesCount--;\n    }\n\n    function setHead(uint72 identityId) external onlyContracts {\n        head = identityId;\n    }\n\n    function setTail(uint72 identityId) external onlyContracts {\n        tail = identityId;\n    }\n\n    function createNode(uint72 identityId, uint72 prevIdentityId, uint72 nextIdentityId) external onlyContracts {\n        nodes[identityId] = ShardingTableStructs.Node({\n            identityId: identityId,\n            prevIdentityId: prevIdentityId,\n            nextIdentityId: nextIdentityId\n        });\n    }\n\n    function getNode(uint72 identityId) external view returns (ShardingTableStructs.Node memory) {\n        return nodes[identityId];\n    }\n\n    function removeNode(uint72 identityId) external onlyContracts {\n        delete nodes[identityId];\n    }\n\n    function nodeExists(uint72 identityId) external view returns (bool) {\n        return nodes[identityId].identityId != 0;\n    }\n\n    function setPrevIdentityId(uint72 identityId, uint72 newPrevIdentityId) external onlyContracts {\n        nodes[identityId].prevIdentityId = newPrevIdentityId;\n    }\n\n    function setNextIdentityId(uint72 identityId, uint72 newNextIdentityId) external onlyContracts {\n        nodes[identityId].nextIdentityId = newNextIdentityId;\n    }\n\n    function getMultipleNodes(uint72 firstIdentityId, uint16 nodesNumber)\n        external\n        view\n        returns (ShardingTableStructs.Node[] memory)\n    {\n        ShardingTableStructs.Node[] memory nodesPage = new ShardingTableStructs.Node[](nodesNumber);\n\n        ShardingTableStructs.Node memory currentNode = nodes[firstIdentityId];\n        for (uint256 i; i < nodesNumber; ) {\n            nodesPage[i] = currentNode;\n            currentNode = nodes[currentNode.nextIdentityId];\n            unchecked { i++; }\n        }\n\n        return nodesPage;\n    }\n\n    function link(uint72 leftNodeIdentityId, uint72 rightNodeIdentityId) external onlyContracts {\n        nodes[leftNodeIdentityId].nextIdentityId = rightNodeIdentityId;\n        nodes[rightNodeIdentityId].prevIdentityId = leftNodeIdentityId;\n    }\n\n    function _checkHub() internal view virtual {\n        require(\n            hub.isContract(msg.sender),\n            \"Fn can only be called by hub\"\n        );\n    }\n\n}\n",
  "sourcePath": "/Users/waving/Desktop/OriginTrail/dkg-evm-module/contracts/storage/ShardingTableStorage.sol",
  "compiler": {
    "name": "solc",
    "version": "0.8.14+commit.80d49f37.Emscripten.clang"
  },
  "schemaVersion": "3.4.10",
  "updatedAt": "2022-12-02T21:13:29.181Z",
  "devdoc": {
    "kind": "dev",
    "methods": {},
    "version": 1
  },
  "userdoc": {
    "kind": "user",
    "methods": {},
    "version": 1
  }
}