{
  "contractName": "ShardingTable",
  "abi": [
    {
      "inputs": [
        {
          "internalType": "address",
          "name": "hubAddress",
          "type": "address"
        }
      ],
      "stateMutability": "nonpayable",
      "type": "constructor"
    },
    {
      "anonymous": false,
      "inputs": [
        {
          "indexed": false,
          "internalType": "bytes",
          "name": "nodeId",
          "type": "bytes"
        },
        {
          "indexed": false,
          "internalType": "uint256",
          "name": "ask",
          "type": "uint256"
        },
        {
          "indexed": false,
          "internalType": "uint256",
          "name": "stake",
          "type": "uint256"
        },
        {
          "indexed": false,
          "internalType": "bytes32",
          "name": "nodeIdSha256",
          "type": "bytes32"
        }
      ],
      "name": "NodeObjCreated",
      "type": "event"
    },
    {
      "anonymous": false,
      "inputs": [
        {
          "indexed": false,
          "internalType": "bytes",
          "name": "nodeId",
          "type": "bytes"
        }
      ],
      "name": "NodeRemoved",
      "type": "event"
    },
    {
      "inputs": [],
      "name": "head",
      "outputs": [
        {
          "internalType": "bytes",
          "name": "",
          "type": "bytes"
        }
      ],
      "stateMutability": "view",
      "type": "function"
    },
    {
      "inputs": [],
      "name": "hub",
      "outputs": [
        {
          "internalType": "contract Hub",
          "name": "",
          "type": "address"
        }
      ],
      "stateMutability": "view",
      "type": "function"
    },
    {
      "inputs": [],
      "name": "nodeCount",
      "outputs": [
        {
          "internalType": "uint16",
          "name": "",
          "type": "uint16"
        }
      ],
      "stateMutability": "view",
      "type": "function"
    },
    {
      "inputs": [],
      "name": "tail",
      "outputs": [
        {
          "internalType": "bytes",
          "name": "",
          "type": "bytes"
        }
      ],
      "stateMutability": "view",
      "type": "function"
    },
    {
      "inputs": [
        {
          "internalType": "bytes",
          "name": "startingNodeId",
          "type": "bytes"
        },
        {
          "internalType": "uint16",
          "name": "nodesNumber",
          "type": "uint16"
        }
      ],
      "name": "getShardingTable",
      "outputs": [
        {
          "components": [
            {
              "internalType": "bytes",
              "name": "id",
              "type": "bytes"
            },
            {
              "internalType": "uint256",
              "name": "ask",
              "type": "uint256"
            },
            {
              "internalType": "uint256",
              "name": "stake",
              "type": "uint256"
            },
            {
              "internalType": "bytes32",
              "name": "id_sha256",
              "type": "bytes32"
            }
          ],
          "internalType": "struct ShardingTable.NodeInfo[]",
          "name": "",
          "type": "tuple[]"
        }
      ],
      "stateMutability": "view",
      "type": "function"
    },
    {
      "inputs": [],
      "name": "getShardingTable",
      "outputs": [
        {
          "components": [
            {
              "internalType": "bytes",
              "name": "id",
              "type": "bytes"
            },
            {
              "internalType": "uint256",
              "name": "ask",
              "type": "uint256"
            },
            {
              "internalType": "uint256",
              "name": "stake",
              "type": "uint256"
            },
            {
              "internalType": "bytes32",
              "name": "id_sha256",
              "type": "bytes32"
            }
          ],
          "internalType": "struct ShardingTable.NodeInfo[]",
          "name": "",
          "type": "tuple[]"
        }
      ],
      "stateMutability": "view",
      "type": "function"
    },
    {
      "inputs": [
        {
          "internalType": "address",
          "name": "identity",
          "type": "address"
        }
      ],
      "name": "pushBack",
      "outputs": [],
      "stateMutability": "nonpayable",
      "type": "function"
    },
    {
      "inputs": [
        {
          "internalType": "address",
          "name": "identity",
          "type": "address"
        }
      ],
      "name": "pushFront",
      "outputs": [],
      "stateMutability": "nonpayable",
      "type": "function"
    },
    {
      "inputs": [
        {
          "internalType": "address",
          "name": "identity",
          "type": "address"
        }
      ],
      "name": "removeNode",
      "outputs": [],
      "stateMutability": "nonpayable",
      "type": "function"
    }
  ],
  "bytecode": "0x60806040523480156200001157600080fd5b5060405162003279380380620032798339818101604052810190620000379190620002f0565b600073ffffffffffffffffffffffffffffffffffffffff168173ffffffffffffffffffffffffffffffffffffffff16036200007157600080fd5b806000806101000a81548173ffffffffffffffffffffffffffffffffffffffff021916908373ffffffffffffffffffffffffffffffffffffffff1602179055506040518060200160405280600081525060019080519060200190620000d89291906200013e565b5060016002908054620000eb9062000351565b620000f8929190620001cf565b50600160039080546200010b9062000351565b62000118929190620001cf565b506000600460006101000a81548161ffff021916908361ffff1602179055505062000386565b8280546200014c9062000351565b90600052602060002090601f016020900481019282620001705760008555620001bc565b82601f106200018b57805160ff1916838001178555620001bc565b82800160010185558215620001bc579182015b82811115620001bb5782518255916020019190600101906200019e565b5b509050620001cb919062000267565b5090565b828054620001dd9062000351565b90600052602060002090601f01602090048101928262000201576000855562000254565b82601f1062000214578054855562000254565b828001600101855582156200025457600052602060002091601f016020900482015b828111156200025357825482559160010191906001019062000236565b5b50905062000263919062000267565b5090565b5b808211156200028257600081600090555060010162000268565b5090565b600080fd5b600073ffffffffffffffffffffffffffffffffffffffff82169050919050565b6000620002b8826200028b565b9050919050565b620002ca81620002ab565b8114620002d657600080fd5b50565b600081519050620002ea81620002bf565b92915050565b60006020828403121562000309576200030862000286565b5b60006200031984828501620002d9565b91505092915050565b7f4e487b7100000000000000000000000000000000000000000000000000000000600052602260045260246000fd5b600060028204905060018216806200036a57607f821691505b60208210810362000380576200037f62000322565b5b50919050565b612ee380620003966000396000f3fe608060405234801561001057600080fd5b50600436106100935760003560e01c806347ad65251161006657806347ad652514610122578063495a6ada1461013e5780636da49b831461015a5780638f7dcfa314610178578063b2b99ec91461019657610093565b806313d8c840146100985780631593848f146100b6578063289220c6146100e6578063365a86fc14610104575b600080fd5b6100a06101b2565b6040516100ad9190612442565b60405180910390f35b6100d060048036038101906100cb91906125e7565b610240565b6040516100dd91906127e4565b60405180910390f35b6100ee6109ce565b6040516100fb91906127e4565b60405180910390f35b61010c610a79565b6040516101199190612885565b60405180910390f35b61013c600480360381019061013791906128de565b610a9d565b005b610158600480360381019061015391906128de565b610ef2565b005b610162611347565b60405161016f919061291a565b60405180910390f35b61018061135b565b60405161018d9190612442565b60405180910390f35b6101b060048036038101906101ab91906128de565b6113e9565b005b600380546101bf90612964565b80601f01602080910402602001604051908101604052809291908181526020018280546101eb90612964565b80156102385780601f1061020d57610100808354040283529160200191610238565b820191906000526020600020905b81548152906001019060200180831161021b57829003601f168201915b505050505081565b606060008261ffff16101561028a576040517f08c379a000000000000000000000000000000000000000000000000000000000815260040161028190612a18565b60405180910390fd5b606060008361ffff16036102a157809150506109c8565b8261ffff1667ffffffffffffffff8111156102bf576102be612482565b5b6040519080825280602002602001820160405280156102f857816020015b6102e561220e565b8152602001906001900390816102dd5790505b50905060008060009054906101000a900473ffffffffffffffffffffffffffffffffffffffff1673ffffffffffffffffffffffffffffffffffffffff166304433bbc6040518163ffffffff1660e01b815260040161035590612a84565b602060405180830381865afa158015610372573d6000803e3d6000fd5b505050506040513d601f19601f820116820180604052508101906103969190612ab9565b905060405180608001604052808681526020018273ffffffffffffffffffffffffffffffffffffffff1663de129f4e6005896040516103d59190612b22565b908152602001604051809103902060000160009054906101000a900473ffffffffffffffffffffffffffffffffffffffff166040518263ffffffff1660e01b81526004016104239190612b48565b602060405180830381865afa158015610440573d6000803e3d6000fd5b505050506040513d601f19601f820116820180604052508101906104649190612b8f565b81526020018273ffffffffffffffffffffffffffffffffffffffff16637a7664606005896040516104959190612b22565b908152602001604051809103902060000160009054906101000a900473ffffffffffffffffffffffffffffffffffffffff166040518263ffffffff1660e01b81526004016104e39190612b48565b602060405180830381865afa158015610500573d6000803e3d6000fd5b505050506040513d601f19601f820116820180604052508101906105249190612b8f565b81526020016005876040516105399190612b22565b9081526020016040518091039020600401548152508260008151811061056257610561612bbc565b5b60200260200101819052506000600190505b8461ffff168161ffff161080156106f357506106f16005846001846105999190612c1a565b61ffff16815181106105ae576105ad612bbc565b5b6020026020010151600001516040516105c79190612b22565b908152602001604051809103902060030180546105e390612964565b80601f016020809104026020016040519081016040528092919081815260200182805461060f90612964565b801561065c5780601f106106315761010080835404028352916020019161065c565b820191906000526020600020905b81548152906001019060200180831161063f57829003601f168201915b50505050506001805461066e90612964565b80601f016020809104026020016040519081016040528092919081815260200182805461069a90612964565b80156106e75780601f106106bc576101008083540402835291602001916106e7565b820191906000526020600020905b8154815290600101906020018083116106ca57829003601f168201915b5050505050611c86565b155b156109c157600060058460018461070a9190612c1a565b61ffff168151811061071f5761071e612bbc565b5b6020026020010151600001516040516107389190612b22565b9081526020016040518091039020600301805461075490612964565b80601f016020809104026020016040519081016040528092919081815260200182805461078090612964565b80156107cd5780601f106107a2576101008083540402835291602001916107cd565b820191906000526020600020905b8154815290600101906020018083116107b057829003601f168201915b5050505050905060405180608001604052808281526020018473ffffffffffffffffffffffffffffffffffffffff1663de129f4e6005856040516108119190612b22565b908152602001604051809103902060000160009054906101000a900473ffffffffffffffffffffffffffffffffffffffff166040518263ffffffff1660e01b815260040161085f9190612b48565b602060405180830381865afa15801561087c573d6000803e3d6000fd5b505050506040513d601f19601f820116820180604052508101906108a09190612b8f565b81526020018473ffffffffffffffffffffffffffffffffffffffff16637a7664606005856040516108d19190612b22565b908152602001604051809103902060000160009054906101000a900473ffffffffffffffffffffffffffffffffffffffff166040518263ffffffff1660e01b815260040161091f9190612b48565b602060405180830381865afa15801561093c573d6000803e3d6000fd5b505050506040513d601f19601f820116820180604052508101906109609190612b8f565b81526020016005836040516109759190612b22565b908152602001604051809103902060040154815250848361ffff16815181106109a1576109a0612bbc565b5b60200260200101819052506001826109b99190612c4e565b915050610574565b8293505050505b92915050565b6060610a74600280546109e090612964565b80601f0160208091040260200160405190810160405280929190818152602001828054610a0c90612964565b8015610a595780601f10610a2e57610100808354040283529160200191610a59565b820191906000526020600020905b815481529060010190602001808311610a3c57829003601f168201915b5050505050600460009054906101000a900461ffff16610240565b905090565b60008054906101000a900473ffffffffffffffffffffffffffffffffffffffff1681565b610aa681611ca1565b60008060009054906101000a900473ffffffffffffffffffffffffffffffffffffffff1673ffffffffffffffffffffffffffffffffffffffff166304433bbc6040518163ffffffff1660e01b8152600401610b0090612a84565b602060405180830381865afa158015610b1d573d6000803e3d6000fd5b505050506040513d601f19601f82011682018060405250810190610b419190612ab9565b905060008173ffffffffffffffffffffffffffffffffffffffff1663b56e4129846040518263ffffffff1660e01b8152600401610b7e9190612b48565b600060405180830381865afa158015610b9b573d6000803e3d6000fd5b505050506040513d6000823e3d601f19601f82011682018060405250810190610bc49190612cf6565b9050610ce460028054610bd690612964565b80601f0160208091040260200160405190810160405280929190818152602001828054610c0290612964565b8015610c4f5780601f10610c2457610100808354040283529160200191610c4f565b820191906000526020600020905b815481529060010190602001808311610c3257829003601f168201915b505050505060018054610c6190612964565b80601f0160208091040260200160405190810160405280929190818152602001828054610c8d90612964565b8015610cda5780601f10610caf57610100808354040283529160200191610cda565b820191906000526020600020905b815481529060010190602001808311610cbd57829003601f168201915b5050505050611c86565b610d7d57610d7c8160028054610cf990612964565b80601f0160208091040260200160405190810160405280929190818152602001828054610d2590612964565b8015610d725780601f10610d4757610100808354040283529160200191610d72565b820191906000526020600020905b815481529060010190602001808311610d5557829003601f168201915b505050505061216a565b5b610d86816121da565b610ea460038054610d9690612964565b80601f0160208091040260200160405190810160405280929190818152602001828054610dc290612964565b8015610e0f5780601f10610de457610100808354040283529160200191610e0f565b820191906000526020600020905b815481529060010190602001808311610df257829003601f168201915b505050505060018054610e2190612964565b80601f0160208091040260200160405190810160405280929190818152602001828054610e4d90612964565b8015610e9a5780601f10610e6f57610100808354040283529160200191610e9a565b820191906000526020600020905b815481529060010190602001808311610e7d57829003601f168201915b5050505050611c86565b15610eb357610eb2816121f4565b5b6001600460008282829054906101000a900461ffff16610ed39190612c4e565b92506101000a81548161ffff021916908361ffff160217905550505050565b610efb81611ca1565b60008060009054906101000a900473ffffffffffffffffffffffffffffffffffffffff1673ffffffffffffffffffffffffffffffffffffffff166304433bbc6040518163ffffffff1660e01b8152600401610f5590612a84565b602060405180830381865afa158015610f72573d6000803e3d6000fd5b505050506040513d601f19601f82011682018060405250810190610f969190612ab9565b905060008173ffffffffffffffffffffffffffffffffffffffff1663b56e4129846040518263ffffffff1660e01b8152600401610fd39190612b48565b600060405180830381865afa158015610ff0573d6000803e3d6000fd5b505050506040513d6000823e3d601f19601f820116820180604052508101906110199190612cf6565b90506111396003805461102b90612964565b80601f016020809104026020016040519081016040528092919081815260200182805461105790612964565b80156110a45780601f10611079576101008083540402835291602001916110a4565b820191906000526020600020905b81548152906001019060200180831161108757829003601f168201915b5050505050600180546110b690612964565b80601f01602080910402602001604051908101604052809291908181526020018280546110e290612964565b801561112f5780601f106111045761010080835404028352916020019161112f565b820191906000526020600020905b81548152906001019060200180831161111257829003601f168201915b5050505050611c86565b6111d2576111d16003805461114d90612964565b80601f016020809104026020016040519081016040528092919081815260200182805461117990612964565b80156111c65780601f1061119b576101008083540402835291602001916111c6565b820191906000526020600020905b8154815290600101906020018083116111a957829003601f168201915b50505050508261216a565b5b6111db816121f4565b6112f9600280546111eb90612964565b80601f016020809104026020016040519081016040528092919081815260200182805461121790612964565b80156112645780601f1061123957610100808354040283529160200191611264565b820191906000526020600020905b81548152906001019060200180831161124757829003601f168201915b50505050506001805461127690612964565b80601f01602080910402602001604051908101604052809291908181526020018280546112a290612964565b80156112ef5780601f106112c4576101008083540402835291602001916112ef565b820191906000526020600020905b8154815290600101906020018083116112d257829003601f168201915b5050505050611c86565b1561130857611307816121da565b5b6001600460008282829054906101000a900461ffff166113289190612c4e565b92506101000a81548161ffff021916908361ffff160217905550505050565b600460009054906101000a900461ffff1681565b6002805461136890612964565b80601f016020809104026020016040519081016040528092919081815260200182805461139490612964565b80156113e15780601f106113b6576101008083540402835291602001916113e1565b820191906000526020600020905b8154815290600101906020018083116113c457829003601f168201915b505050505081565b60008060009054906101000a900473ffffffffffffffffffffffffffffffffffffffff1673ffffffffffffffffffffffffffffffffffffffff166304433bbc6040518163ffffffff1660e01b815260040161144390612a84565b602060405180830381865afa158015611460573d6000803e3d6000fd5b505050506040513d601f19601f820116820180604052508101906114849190612ab9565b905060008173ffffffffffffffffffffffffffffffffffffffff1663b56e4129846040518263ffffffff1660e01b81526004016114c19190612b48565b600060405180830381865afa1580156114de573d6000803e3d6000fd5b505050506040513d6000823e3d601f19601f820116820180604052508101906115079190612cf6565b9050600060058260405161151b9190612b22565b90815260200160405180910390206040518060a00160405290816000820160009054906101000a900473ffffffffffffffffffffffffffffffffffffffff1673ffffffffffffffffffffffffffffffffffffffff1673ffffffffffffffffffffffffffffffffffffffff16815260200160018201805461159a90612964565b80601f01602080910402602001604051908101604052809291908181526020018280546115c690612964565b80156116135780601f106115e857610100808354040283529160200191611613565b820191906000526020600020905b8154815290600101906020018083116115f657829003601f168201915b5050505050815260200160028201805461162c90612964565b80601f016020809104026020016040519081016040528092919081815260200182805461165890612964565b80156116a55780601f1061167a576101008083540402835291602001916116a5565b820191906000526020600020905b81548152906001019060200180831161168857829003601f168201915b505050505081526020016003820180546116be90612964565b80601f01602080910402602001604051908101604052809291908181526020018280546116ea90612964565b80156117375780601f1061170c57610100808354040283529160200191611737565b820191906000526020600020905b81548152906001019060200180831161171a57829003601f168201915b5050505050815260200160048201548152505090506117e06002805461175c90612964565b80601f016020809104026020016040519081016040528092919081815260200182805461178890612964565b80156117d55780601f106117aa576101008083540402835291602001916117d5565b820191906000526020600020905b8154815290600101906020018083116117b857829003601f168201915b505050505083611c86565b801561187c575061187b600380546117f790612964565b80601f016020809104026020016040519081016040528092919081815260200182805461182390612964565b80156118705780601f1061184557610100808354040283529160200191611870565b820191906000526020600020905b81548152906001019060200180831161185357829003601f168201915b505050505083611c86565b5b156119ac576119146001805461189190612964565b80601f01602080910402602001604051908101604052809291908181526020018280546118bd90612964565b801561190a5780601f106118df5761010080835404028352916020019161190a565b820191906000526020600020905b8154815290600101906020018083116118ed57829003601f168201915b50505050506121da565b6119a76001805461192490612964565b80601f016020809104026020016040519081016040528092919081815260200182805461195090612964565b801561199d5780601f106119725761010080835404028352916020019161199d565b820191906000526020600020905b81548152906001019060200180831161198057829003601f168201915b50505050506121f4565b611b8f565b611a40600280546119bc90612964565b80601f01602080910402602001604051908101604052809291908181526020018280546119e890612964565b8015611a355780601f10611a0a57610100808354040283529160200191611a35565b820191906000526020600020905b815481529060010190602001808311611a1857829003601f168201915b505050505083611c86565b15611a9357611a5281606001516121da565b600160056002604051611a659190612dd3565b9081526020016040518091039020600201908054611a8290612964565b611a8d929190612239565b50611b8e565b611b2760038054611aa390612964565b80601f0160208091040260200160405190810160405280929190818152602001828054611acf90612964565b8015611b1c5780601f10611af157610100808354040283529160200191611b1c565b820191906000526020600020905b815481529060010190602001808311611aff57829003601f168201915b505050505083611c86565b15611b7a57611b3981604001516121f4565b600160056003604051611b4c9190612dd3565b9081526020016040518091039020600301908054611b6990612964565b611b74929190612239565b50611b8d565b611b8c8160400151826060015161216a565b5b5b5b600582604051611b9f9190612b22565b9081526020016040518091039020600080820160006101000a81549073ffffffffffffffffffffffffffffffffffffffff0219169055600182016000611be591906122c6565b600282016000611bf591906122c6565b600382016000611c0591906122c6565b600482016000905550506001600460008282829054906101000a900461ffff16611c2f9190612c1a565b92506101000a81548161ffff021916908361ffff1602179055507fe205888acbb768f3542b55524208304eb30bc6221a431e1178015e87fb1ca79382604051611c789190612442565b60405180910390a150505050565b60008180519060200120838051906020012014905092915050565b60008060009054906101000a900473ffffffffffffffffffffffffffffffffffffffff1673ffffffffffffffffffffffffffffffffffffffff166304433bbc6040518163ffffffff1660e01b8152600401611cfb90612a84565b602060405180830381865afa158015611d18573d6000803e3d6000fd5b505050506040513d601f19601f82011682018060405250810190611d3c9190612ab9565b905060008173ffffffffffffffffffffffffffffffffffffffff1663b56e4129846040518263ffffffff1660e01b8152600401611d799190612b48565b600060405180830381865afa158015611d96573d6000803e3d6000fd5b505050506040513d6000823e3d601f19601f82011682018060405250810190611dbf9190612cf6565b90506000600282604051611dd39190612b22565b602060405180830381855afa158015611df0573d6000803e3d6000fd5b5050506040513d601f19601f82011682018060405250810190611e139190612e16565b905060006040518060a001604052808673ffffffffffffffffffffffffffffffffffffffff16815260200184815260200160018054611e5190612964565b80601f0160208091040260200160405190810160405280929190818152602001828054611e7d90612964565b8015611eca5780601f10611e9f57610100808354040283529160200191611eca565b820191906000526020600020905b815481529060010190602001808311611ead57829003601f168201915b5050505050815260200160018054611ee190612964565b80601f0160208091040260200160405190810160405280929190818152602001828054611f0d90612964565b8015611f5a5780601f10611f2f57610100808354040283529160200191611f5a565b820191906000526020600020905b815481529060010190602001808311611f3d57829003601f168201915b5050505050815260200183815250905080600584604051611f7b9190612b22565b908152602001604051809103902060008201518160000160006101000a81548173ffffffffffffffffffffffffffffffffffffffff021916908373ffffffffffffffffffffffffffffffffffffffff1602179055506020820151816001019080519060200190611fec929190612306565b506040820151816002019080519060200190612009929190612306565b506060820151816003019080519060200190612026929190612306565b50608082015181600401559050507fb6404cbe54b50f26abd792c257e9cf81f6589fc5f8a16f2cdce0b0360ee06dec838573ffffffffffffffffffffffffffffffffffffffff1663de129f4e886040518263ffffffff1660e01b815260040161208f9190612b48565b602060405180830381865afa1580156120ac573d6000803e3d6000fd5b505050506040513d601f19601f820116820180604052508101906120d09190612b8f565b8673ffffffffffffffffffffffffffffffffffffffff16637a766460896040518263ffffffff1660e01b81526004016121099190612b48565b602060405180830381865afa158015612126573d6000803e3d6000fd5b505050506040513d601f19601f8201168201806040525081019061214a9190612b8f565b8560405161215b9493929190612e61565b60405180910390a15050505050565b8060058360405161217b9190612b22565b9081526020016040518091039020600301908051906020019061219f929190612306565b50816005826040516121b19190612b22565b908152602001604051809103902060020190805190602001906121d5929190612306565b505050565b80600290805190602001906121f0929190612306565b5050565b806003908051906020019061220a929190612306565b5050565b6040518060800160405280606081526020016000815260200160008152602001600080191681525090565b82805461224590612964565b90600052602060002090601f01602090048101928261226757600085556122b5565b82601f1061227857805485556122b5565b828001600101855582156122b557600052602060002091601f016020900482015b828111156122b4578254825591600101919060010190612299565b5b5090506122c2919061238c565b5090565b5080546122d290612964565b6000825580601f106122e45750612303565b601f016020900490600052602060002090810190612302919061238c565b5b50565b82805461231290612964565b90600052602060002090601f016020900481019282612334576000855561237b565b82601f1061234d57805160ff191683800117855561237b565b8280016001018555821561237b579182015b8281111561237a57825182559160200191906001019061235f565b5b509050612388919061238c565b5090565b5b808211156123a557600081600090555060010161238d565b5090565b600081519050919050565b600082825260208201905092915050565b60005b838110156123e35780820151818401526020810190506123c8565b838111156123f2576000848401525b50505050565b6000601f19601f8301169050919050565b6000612414826123a9565b61241e81856123b4565b935061242e8185602086016123c5565b612437816123f8565b840191505092915050565b6000602082019050818103600083015261245c8184612409565b905092915050565b6000604051905090565b600080fd5b600080fd5b600080fd5b600080fd5b7f4e487b7100000000000000000000000000000000000000000000000000000000600052604160045260246000fd5b6124ba826123f8565b810181811067ffffffffffffffff821117156124d9576124d8612482565b5b80604052505050565b60006124ec612464565b90506124f882826124b1565b919050565b600067ffffffffffffffff82111561251857612517612482565b5b612521826123f8565b9050602081019050919050565b82818337600083830152505050565b600061255061254b846124fd565b6124e2565b90508281526020810184848401111561256c5761256b61247d565b5b61257784828561252e565b509392505050565b600082601f83011261259457612593612478565b5b81356125a484826020860161253d565b91505092915050565b600061ffff82169050919050565b6125c4816125ad565b81146125cf57600080fd5b50565b6000813590506125e1816125bb565b92915050565b600080604083850312156125fe576125fd61246e565b5b600083013567ffffffffffffffff81111561261c5761261b612473565b5b6126288582860161257f565b9250506020612639858286016125d2565b9150509250929050565b600081519050919050565b600082825260208201905092915050565b6000819050602082019050919050565b600082825260208201905092915050565b600061268b826123a9565b612695818561266f565b93506126a58185602086016123c5565b6126ae816123f8565b840191505092915050565b6000819050919050565b6126cc816126b9565b82525050565b6000819050919050565b6126e5816126d2565b82525050565b600060808301600083015184820360008601526127088282612680565b915050602083015161271d60208601826126c3565b50604083015161273060408601826126c3565b50606083015161274360608601826126dc565b508091505092915050565b600061275a83836126eb565b905092915050565b6000602082019050919050565b600061277a82612643565b612784818561264e565b9350836020820285016127968561265f565b8060005b858110156127d257848403895281516127b3858261274e565b94506127be83612762565b925060208a0199505060018101905061279a565b50829750879550505050505092915050565b600060208201905081810360008301526127fe818461276f565b905092915050565b600073ffffffffffffffffffffffffffffffffffffffff82169050919050565b6000819050919050565b600061284b61284661284184612806565b612826565b612806565b9050919050565b600061285d82612830565b9050919050565b600061286f82612852565b9050919050565b61287f81612864565b82525050565b600060208201905061289a6000830184612876565b92915050565b60006128ab82612806565b9050919050565b6128bb816128a0565b81146128c657600080fd5b50565b6000813590506128d8816128b2565b92915050565b6000602082840312156128f4576128f361246e565b5b6000612902848285016128c9565b91505092915050565b612914816125ad565b82525050565b600060208201905061292f600083018461290b565b92915050565b7f4e487b7100000000000000000000000000000000000000000000000000000000600052602260045260246000fd5b6000600282049050600182168061297c57607f821691505b60208210810361298f5761298e612935565b5b50919050565b600082825260208201905092915050565b7f4e6f646573206e756d626572206d757374206265206e6f6e2d6e65676174697660008201527f6521000000000000000000000000000000000000000000000000000000000000602082015250565b6000612a02602283612995565b9150612a0d826129a6565b604082019050919050565b60006020820190508181036000830152612a31816129f5565b9050919050565b7f50726f66696c6553746f72616765000000000000000000000000000000000000600082015250565b6000612a6e600e83612995565b9150612a7982612a38565b602082019050919050565b60006020820190508181036000830152612a9d81612a61565b9050919050565b600081519050612ab3816128b2565b92915050565b600060208284031215612acf57612ace61246e565b5b6000612add84828501612aa4565b91505092915050565b600081905092915050565b6000612afc826123a9565b612b068185612ae6565b9350612b168185602086016123c5565b80840191505092915050565b6000612b2e8284612af1565b915081905092915050565b612b42816128a0565b82525050565b6000602082019050612b5d6000830184612b39565b92915050565b612b6c816126b9565b8114612b7757600080fd5b50565b600081519050612b8981612b63565b92915050565b600060208284031215612ba557612ba461246e565b5b6000612bb384828501612b7a565b91505092915050565b7f4e487b7100000000000000000000000000000000000000000000000000000000600052603260045260246000fd5b7f4e487b7100000000000000000000000000000000000000000000000000000000600052601160045260246000fd5b6000612c25826125ad565b9150612c30836125ad565b925082821015612c4357612c42612beb565b5b828203905092915050565b6000612c59826125ad565b9150612c64836125ad565b92508261ffff03821115612c7b57612c7a612beb565b5b828201905092915050565b6000612c99612c94846124fd565b6124e2565b905082815260208101848484011115612cb557612cb461247d565b5b612cc08482856123c5565b509392505050565b600082601f830112612cdd57612cdc612478565b5b8151612ced848260208601612c86565b91505092915050565b600060208284031215612d0c57612d0b61246e565b5b600082015167ffffffffffffffff811115612d2a57612d29612473565b5b612d3684828501612cc8565b91505092915050565b60008190508160005260206000209050919050565b60008154612d6181612964565b612d6b8186612ae6565b94506001821660008114612d865760018114612d9757612dca565b60ff19831686528186019350612dca565b612da085612d3f565b60005b83811015612dc257815481890152600182019150602081019050612da3565b838801955050505b50505092915050565b6000612ddf8284612d54565b915081905092915050565b612df3816126d2565b8114612dfe57600080fd5b50565b600081519050612e1081612dea565b92915050565b600060208284031215612e2c57612e2b61246e565b5b6000612e3a84828501612e01565b91505092915050565b612e4c816126b9565b82525050565b612e5b816126d2565b82525050565b60006080820190508181036000830152612e7b8187612409565b9050612e8a6020830186612e43565b612e976040830185612e43565b612ea46060830184612e52565b9594505050505056fea2646970667358221220d8da44320cf3b5e44ba1a23486d0862fe55269fedc416f692e3c709ae4bec8e164736f6c634300080e0033",
  "immutableReferences": {},
  "source": "// SPDX-License-Identifier: MIT\n\npragma solidity^0.8.0;\n\nimport {Hub} from './Hub.sol';\nimport {ProfileStorage} from './storage/ProfileStorage.sol';\n\n\ncontract ShardingTable {\n    event NodeObjCreated(bytes nodeId, uint256 ask, uint256 stake, bytes32 nodeIdSha256);\n    event NodeRemoved(bytes nodeId);\n\n    struct Node {\n        address identity;\n        bytes id;\n        bytes prevNodeId;\n        bytes nextNodeId;\n        bytes32 id_sha256;\n    }\n\n    struct NodeInfo {\n        bytes id;\n        uint256 ask;\n        uint256 stake;\n        bytes32 id_sha256;\n    }\n\n    Hub public hub;\n\n    bytes private emptyPointer;\n    bytes public head;\n    bytes public tail;\n    uint16 public nodeCount;\n\n    mapping(bytes => Node) nodes;\n\n    constructor(address hubAddress) {\n        require(hubAddress != address(0));\n        hub = Hub(hubAddress);\n\n        emptyPointer = \"\";\n        head = emptyPointer;\n        tail = emptyPointer;\n        nodeCount = 0;\n    }\n\n    function getShardingTable(bytes memory startingNodeId, uint16 nodesNumber)\n        public\n        view\n        returns (NodeInfo[] memory)\n    {\n        require(nodesNumber >= 0, \"Nodes number must be non-negative!\");\n\n        NodeInfo[] memory nodesPage;\n\n        if (nodesNumber == 0) {\n            return nodesPage;\n        }\n\n        nodesPage = new NodeInfo[](nodesNumber);\n\n        ProfileStorage profileStorageContract = ProfileStorage(hub.getContractAddress(\"ProfileStorage\"));\n\n        nodesPage[0] = NodeInfo(\n            startingNodeId,\n            profileStorageContract.getAsk(nodes[startingNodeId].identity),\n            profileStorageContract.getStake(nodes[startingNodeId].identity),\n            nodes[startingNodeId].id_sha256\n        );\n\n        uint16 i = 1;\n        while (i < nodesNumber && !_equalIds(nodes[nodesPage[i-1].id].nextNodeId, emptyPointer)) {\n            bytes memory nextNodeId = nodes[nodesPage[i-1].id].nextNodeId;\n\n            nodesPage[i] = NodeInfo(\n                nextNodeId,\n                profileStorageContract.getAsk(nodes[nextNodeId].identity),\n                profileStorageContract.getStake(nodes[nextNodeId].identity),\n                nodes[nextNodeId].id_sha256\n            );\n            i += 1;\n        }\n        return nodesPage;\n    }\n\n    function getShardingTable()\n        public\n        view\n        returns (NodeInfo[] memory)\n    {\n        return getShardingTable(head, nodeCount);\n    }\n\n    function pushBack(address identity)\n        public\n    {\n        _createNodeObj(identity);\n    \n        ProfileStorage profileStorageContract = ProfileStorage(hub.getContractAddress(\"ProfileStorage\"));\n        bytes memory nodeId = profileStorageContract.getNodeId(identity);\n\n        if (!_equalIds(tail, emptyPointer)) _link(tail, nodeId);\n        _setTail(nodeId);\n\n        if (_equalIds(head, emptyPointer)) _setHead(nodeId);\n\n        nodeCount += 1;\n    }\n\n    function pushFront(address identity)\n        public\n    {\n        _createNodeObj(identity);\n\n        ProfileStorage profileStorageContract = ProfileStorage(hub.getContractAddress(\"ProfileStorage\"));\n        bytes memory nodeId = profileStorageContract.getNodeId(identity);\n\n        if (!_equalIds(head, emptyPointer)) _link(nodeId, head);\n        _setHead(nodeId);\n\n        if (_equalIds(tail, emptyPointer)) _setTail(nodeId);\n\n        nodeCount += 1;\n    }\n\n    function removeNode(address identity)\n        public\n    {\n        ProfileStorage profileStorageContract = ProfileStorage(hub.getContractAddress(\"ProfileStorage\"));\n        bytes memory nodeId = profileStorageContract.getNodeId(identity);\n\n        Node memory nodeToRemove = nodes[nodeId];\n\n        if (_equalIds(head, nodeId) && _equalIds(tail, nodeId)) {\n            _setHead(emptyPointer);\n            _setTail(emptyPointer);\n        }\n        else if (_equalIds(head, nodeId)) {\n            _setHead(nodeToRemove.nextNodeId);\n            nodes[head].prevNodeId = emptyPointer;\n        }\n        else if (_equalIds(tail, nodeId)) {\n            _setTail(nodeToRemove.prevNodeId);\n            nodes[tail].nextNodeId = emptyPointer;\n        }\n        else {\n            _link(nodeToRemove.prevNodeId, nodeToRemove.nextNodeId);\n        }\n\n        delete nodes[nodeId];\n\n        nodeCount -= 1;\n    \n        emit NodeRemoved(nodeId);\n    }\n\n    function _createNodeObj(address identity)\n        internal\n    {\n        ProfileStorage profileStorageContract = ProfileStorage(hub.getContractAddress(\"ProfileStorage\"));\n\n        bytes memory nodeId = profileStorageContract.getNodeId(identity);\n        bytes32 nodeIdSha256 = sha256(nodeId);\n\n        Node memory newNode = Node(\n            identity,\n            nodeId,\n            emptyPointer,\n            emptyPointer,\n            nodeIdSha256\n        );\n\n        nodes[nodeId] = newNode;\n\n        emit NodeObjCreated(\n            nodeId,\n            profileStorageContract.getAsk(identity),\n            profileStorageContract.getStake(identity),\n            nodeIdSha256\n        );\n    }\n\n    function _setHead(bytes memory nodeId)\n        internal\n    {\n        head = nodeId;\n    }\n\n    function _setTail(bytes memory nodeId)\n        internal\n    {\n        tail = nodeId;\n    }\n\n    function _link(bytes memory _leftNodeId, bytes memory _rightNodeId)\n        internal\n    {\n        nodes[_leftNodeId].nextNodeId = _rightNodeId;\n        nodes[_rightNodeId].prevNodeId = _leftNodeId;\n    }\n\n    function _equalIds(bytes memory _firstId, bytes memory _secondId)\n        internal\n        pure\n        returns (bool)\n    {\n        return keccak256(_firstId) == keccak256(_secondId);\n    }\n}\n",
  "sourcePath": "/Users/waving/Desktop/OriginTrail/dkg-evm-module/contracts/ShardingTable.sol",
  "compiler": {
    "name": "solc",
    "version": "0.8.14+commit.80d49f37.Emscripten.clang"
  },
  "schemaVersion": "3.4.10",
  "updatedAt": "2022-10-27T09:28:26.743Z",
  "devdoc": {
    "kind": "dev",
    "methods": {},
    "version": 1
  },
  "userdoc": {
    "kind": "user",
    "methods": {},
    "version": 1
  }
}