{
  "contractName": "ShardingTableStorage",
  "abi": [
    {
      "inputs": [
        {
          "internalType": "address",
          "name": "hubAddress",
          "type": "address"
        }
      ],
      "stateMutability": "nonpayable",
      "type": "constructor"
    },
    {
      "inputs": [],
      "name": "head",
      "outputs": [
        {
          "internalType": "uint72",
          "name": "",
          "type": "uint72"
        }
      ],
      "stateMutability": "view",
      "type": "function"
    },
    {
      "inputs": [],
      "name": "hub",
      "outputs": [
        {
          "internalType": "contract Hub",
          "name": "",
          "type": "address"
        }
      ],
      "stateMutability": "view",
      "type": "function"
    },
    {
      "inputs": [],
      "name": "nodesCount",
      "outputs": [
        {
          "internalType": "uint72",
          "name": "",
          "type": "uint72"
        }
      ],
      "stateMutability": "view",
      "type": "function"
    },
    {
      "inputs": [],
      "name": "tail",
      "outputs": [
        {
          "internalType": "uint72",
          "name": "",
          "type": "uint72"
        }
      ],
      "stateMutability": "view",
      "type": "function"
    },
    {
      "inputs": [],
      "name": "name",
      "outputs": [
        {
          "internalType": "string",
          "name": "",
          "type": "string"
        }
      ],
      "stateMutability": "pure",
      "type": "function"
    },
    {
      "inputs": [],
      "name": "version",
      "outputs": [
        {
          "internalType": "string",
          "name": "",
          "type": "string"
        }
      ],
      "stateMutability": "pure",
      "type": "function"
    },
    {
      "inputs": [],
      "name": "incrementNodesCount",
      "outputs": [],
      "stateMutability": "nonpayable",
      "type": "function"
    },
    {
      "inputs": [],
      "name": "decrementNodesCount",
      "outputs": [],
      "stateMutability": "nonpayable",
      "type": "function"
    },
    {
      "inputs": [
        {
          "internalType": "uint72",
          "name": "identityId",
          "type": "uint72"
        }
      ],
      "name": "setHead",
      "outputs": [],
      "stateMutability": "nonpayable",
      "type": "function"
    },
    {
      "inputs": [
        {
          "internalType": "uint72",
          "name": "identityId",
          "type": "uint72"
        }
      ],
      "name": "setTail",
      "outputs": [],
      "stateMutability": "nonpayable",
      "type": "function"
    },
    {
      "inputs": [
        {
          "internalType": "uint72",
          "name": "identityId",
          "type": "uint72"
        },
        {
          "internalType": "uint72",
          "name": "prevIdentityId",
          "type": "uint72"
        },
        {
          "internalType": "uint72",
          "name": "nextIdentityId",
          "type": "uint72"
        }
      ],
      "name": "createNode",
      "outputs": [],
      "stateMutability": "nonpayable",
      "type": "function"
    },
    {
      "inputs": [
        {
          "internalType": "uint72",
          "name": "identityId",
          "type": "uint72"
        }
      ],
      "name": "getNode",
      "outputs": [
        {
          "components": [
            {
              "internalType": "uint72",
              "name": "identityId",
              "type": "uint72"
            },
            {
              "internalType": "uint72",
              "name": "prevIdentityId",
              "type": "uint72"
            },
            {
              "internalType": "uint72",
              "name": "nextIdentityId",
              "type": "uint72"
            }
          ],
          "internalType": "struct ShardingTableStructs.Node",
          "name": "",
          "type": "tuple"
        }
      ],
      "stateMutability": "view",
      "type": "function"
    },
    {
      "inputs": [
        {
          "internalType": "uint72",
          "name": "identityId",
          "type": "uint72"
        }
      ],
      "name": "removeNode",
      "outputs": [],
      "stateMutability": "nonpayable",
      "type": "function"
    },
    {
      "inputs": [
        {
          "internalType": "uint72",
          "name": "identityId",
          "type": "uint72"
        }
      ],
      "name": "nodeExists",
      "outputs": [
        {
          "internalType": "bool",
          "name": "",
          "type": "bool"
        }
      ],
      "stateMutability": "view",
      "type": "function"
    },
    {
      "inputs": [
        {
          "internalType": "uint72",
          "name": "identityId",
          "type": "uint72"
        },
        {
          "internalType": "uint72",
          "name": "newPrevIdentityId",
          "type": "uint72"
        }
      ],
      "name": "setPrevIdentityId",
      "outputs": [],
      "stateMutability": "nonpayable",
      "type": "function"
    },
    {
      "inputs": [
        {
          "internalType": "uint72",
          "name": "identityId",
          "type": "uint72"
        },
        {
          "internalType": "uint72",
          "name": "newNextIdentityId",
          "type": "uint72"
        }
      ],
      "name": "setNextIdentityId",
      "outputs": [],
      "stateMutability": "nonpayable",
      "type": "function"
    },
    {
      "inputs": [
        {
          "internalType": "uint72",
          "name": "firstIdentityId",
          "type": "uint72"
        },
        {
          "internalType": "uint16",
          "name": "nodesNumber",
          "type": "uint16"
        }
      ],
      "name": "getMultipleNodes",
      "outputs": [
        {
          "components": [
            {
              "internalType": "uint72",
              "name": "identityId",
              "type": "uint72"
            },
            {
              "internalType": "uint72",
              "name": "prevIdentityId",
              "type": "uint72"
            },
            {
              "internalType": "uint72",
              "name": "nextIdentityId",
              "type": "uint72"
            }
          ],
          "internalType": "struct ShardingTableStructs.Node[]",
          "name": "",
          "type": "tuple[]"
        }
      ],
      "stateMutability": "view",
      "type": "function"
    },
    {
      "inputs": [
        {
          "internalType": "uint72",
          "name": "leftNodeIdentityId",
          "type": "uint72"
        },
        {
          "internalType": "uint72",
          "name": "rightNodeIdentityId",
          "type": "uint72"
        }
      ],
      "name": "link",
      "outputs": [],
      "stateMutability": "nonpayable",
      "type": "function"
    }
  ],
  "bytecode": "0x608060405234801561001057600080fd5b50604051610b8c380380610b8c83398101604081905261002f91610076565b6001600160a01b03811661004257600080fd5b600080546001600160e81b0319166001600160a01b03909216919091179055600180546001600160481b03191690556100a6565b60006020828403121561008857600080fd5b81516001600160a01b038116811461009f57600080fd5b9392505050565b610ad7806100b56000396000f3fe608060405234801561001057600080fd5b50600436106101165760003560e01c80636b57280e116100a2578063d0f4c7cf11610071578063d0f4c7cf1461031e578063d9b6546314610331578063de647ca814610339578063f1a3c5b31461034c578063fa8924d41461036657600080fd5b80636b57280e146102be57806376d03c2f146102d15780638f7dcfa3146102f1578063af9c1ec61461030b57600080fd5b8063365a86fc116100e9578063365a86fc14610219578063406def5b146102445780634f3ae9ee1461025757806354fd4d501461025f5780635d68479c1461028057600080fd5b806306fdde031461011b57806313d8c8401461015d578063162929e914610188578063283350a514610204575b600080fd5b6040805180820190915260148152735368617264696e675461626c6553746f7261676560601b60208201525b6040516101549190610814565b60405180910390f35b600154610170906001600160481b031681565b6040516001600160481b039091168152602001610154565b6101f761019636600461087e565b6040805160608082018352600080835260208084018290529284018190526001600160481b0394851681526002835283902083519182018452548085168252600160481b8104851692820192909252600160901b9091049092169082015290565b60405161015491906108a0565b6102176102123660046108d0565b610379565b005b60005461022c906001600160a01b031681565b6040516001600160a01b039091168152602001610154565b61021761025236600461087e565b6103e6565b610217610412565b6040805180820190915260058152640312e302e360dc1b6020820152610147565b6102ae61028e36600461087e565b6001600160481b0390811660009081526002602052604090205416151590565b6040519015158152602001610154565b6102176102cc3660046108d0565b610461565b6102e46102df366004610903565b6104a7565b6040516101549190610941565b60005461017090600160a01b90046001600160481b031681565b61021761031936600461087e565b6105f4565b61021761032c3660046108d0565b610623565b610217610669565b61021761034736600461087e565b610691565b60015461017090600160481b90046001600160481b031681565b6102176103743660046109b1565b6106c7565b610381610756565b6001600160481b03918216600081815260026020526040808220805468ffffffffffffffffff60901b1916600160901b9590961694850295909517909455918252919020805468ffffffffffffffffff60481b1916600160481b909202919091179055565b6103ee610756565b6001805468ffffffffffffffffff19166001600160481b0392909216919091179055565b61041a610756565b60018054600160481b90046001600160481b031690600961043a83610a0a565b91906101000a8154816001600160481b0302191690836001600160481b0316021790555050565b610469610756565b6001600160481b039182166000908152600260205260409020805492909116600160481b0268ffffffffffffffffff60481b19909216919091179055565b606060008261ffff1667ffffffffffffffff8111156104c8576104c8610a30565b60405190808252806020026020018201604052801561051357816020015b60408051606081018252600080825260208083018290529282015282526000199092019101816104e65790505b506001600160481b038086166000908152600260209081526040808320815160608101835290548086168252600160481b8104861693820193909352600160901b90920490931692810192909252919250905b8461ffff168110156105e8578183828151811061058557610585610a46565b6020908102919091018101919091526040928301516001600160481b03908116600090815260028352849020845160608101865290548083168252600160481b8104831693820193909352600160901b9092041692810192909252600101610566565b50909150505b92915050565b6105fc610756565b6001600160481b0316600090815260026020526040902080546001600160d81b0319169055565b61062b610756565b6001600160481b039182166000908152600260205260409020805492909116600160901b0268ffffffffffffffffff60901b19909216919091179055565b610671610756565b60018054600160481b90046001600160481b031690600961043a83610a5c565b610699610756565b600080546001600160481b03909216600160a01b0268ffffffffffffffffff60a01b19909216919091179055565b6106cf610756565b604080516060810182526001600160481b039485168082529385166020808301918252938616828401908152600095865260029094529190932092518354915192518516600160901b0268ffffffffffffffffff60901b19938616600160481b0271ffffffffffffffffffffffffffffffffffff1990931691909516171716919091179055565b600054604051631627905560e01b81523360048201526001600160a01b0390911690631627905590602401602060405180830381865afa15801561079e573d6000803e3d6000fd5b505050506040513d601f19601f820116820180604052508101906107c29190610a7f565b6108125760405162461bcd60e51b815260206004820181905260248201527f466e2063616e206f6e6c792062652063616c6c65642062792074686520687562604482015260640160405180910390fd5b565b600060208083528351808285015260005b8181101561084157858101830151858201604001528201610825565b506000604082860101526040601f19601f8301168501019250505092915050565b80356001600160481b038116811461087957600080fd5b919050565b60006020828403121561089057600080fd5b61089982610862565b9392505050565b606081016105ee828480516001600160481b03908116835260208083015182169084015260409182015116910152565b600080604083850312156108e357600080fd5b6108ec83610862565b91506108fa60208401610862565b90509250929050565b6000806040838503121561091657600080fd5b61091f83610862565b9150602083013561ffff8116811461093657600080fd5b809150509250929050565b6020808252825182820181905260009190848201906040850190845b818110156109a55761099283855180516001600160481b03908116835260208083015182169084015260409182015116910152565b928401926060929092019160010161095d565b50909695505050505050565b6000806000606084860312156109c657600080fd5b6109cf84610862565b92506109dd60208501610862565b91506109eb60408501610862565b90509250925092565b634e487b7160e01b600052601160045260246000fd5b60006001600160481b03808316818103610a2657610a266109f4565b6001019392505050565b634e487b7160e01b600052604160045260246000fd5b634e487b7160e01b600052603260045260246000fd5b60006001600160481b03821680610a7557610a756109f4565b6000190192915050565b600060208284031215610a9157600080fd5b8151801515811461089957600080fdfea2646970667358221220a8634f7de326e849ce4e6bbfb58502a24794ee9f486747544c6b6752063c0e1d64736f6c63430008100033",
  "immutableReferences": {},
  "source": "// SPDX-License-Identifier: MIT\n\npragma solidity ^0.8.4;\n\nimport { Hub } from \"../Hub.sol\";\nimport { Named } from \"../interface/Named.sol\";\nimport { Versioned } from \"../interface/Versioned.sol\";\nimport { ShardingTableStructs } from \"../structs/ShardingTableStructs.sol\";\nimport { NULL } from \"../constants/ShardingTableConstants.sol\";\n\ncontract ShardingTableStorage is Named, Versioned {\n\n    string constant private _NAME = \"ShardingTableStorage\";\n    string constant private _VERSION = \"1.0.0\";\n\n    Hub public hub;\n\n    uint72 public head;\n    uint72 public tail;\n    uint72 public nodesCount;\n\n    // identityId => Node\n    mapping(uint72 => ShardingTableStructs.Node) nodes;\n\n    constructor(address hubAddress) {\n        require(hubAddress != address(0));\n\n        hub = Hub(hubAddress);\n\n        head = NULL;\n        tail = NULL;\n    }\n\n    modifier onlyContracts() {\n        _checkHub();\n        _;\n    }\n\n    function name() external pure virtual override returns (string memory) {\n        return _NAME;\n    }\n\n    function version() external pure virtual override returns (string memory) {\n        return _VERSION;\n    }\n\n    function incrementNodesCount() external onlyContracts {\n        nodesCount++;\n    }\n\n    function decrementNodesCount() external onlyContracts {\n        nodesCount--;\n    }\n\n    function setHead(uint72 identityId) external onlyContracts {\n        head = identityId;\n    }\n\n    function setTail(uint72 identityId) external onlyContracts {\n        tail = identityId;\n    }\n\n    function createNode(uint72 identityId, uint72 prevIdentityId, uint72 nextIdentityId) external onlyContracts {\n        nodes[identityId] = ShardingTableStructs.Node({\n            identityId: identityId,\n            prevIdentityId: prevIdentityId,\n            nextIdentityId: nextIdentityId\n        });\n    }\n\n    function getNode(uint72 identityId) external view returns (ShardingTableStructs.Node memory) {\n        return nodes[identityId];\n    }\n\n    function removeNode(uint72 identityId) external onlyContracts {\n        delete nodes[identityId];\n    }\n\n    function nodeExists(uint72 identityId) external view returns (bool) {\n        return nodes[identityId].identityId != 0;\n    }\n\n    function setPrevIdentityId(uint72 identityId, uint72 newPrevIdentityId) external onlyContracts {\n        nodes[identityId].prevIdentityId = newPrevIdentityId;\n    }\n\n    function setNextIdentityId(uint72 identityId, uint72 newNextIdentityId) external onlyContracts {\n        nodes[identityId].nextIdentityId = newNextIdentityId;\n    }\n\n    function getMultipleNodes(uint72 firstIdentityId, uint16 nodesNumber)\n        external\n        view\n        returns (ShardingTableStructs.Node[] memory)\n    {\n        ShardingTableStructs.Node[] memory nodesPage = new ShardingTableStructs.Node[](nodesNumber);\n\n        ShardingTableStructs.Node memory currentNode = nodes[firstIdentityId];\n        for (uint256 i; i < nodesNumber; ) {\n            nodesPage[i] = currentNode;\n            currentNode = nodes[currentNode.nextIdentityId];\n            unchecked { i++; }\n        }\n\n        return nodesPage;\n    }\n\n    function link(uint72 leftNodeIdentityId, uint72 rightNodeIdentityId) external onlyContracts {\n        nodes[leftNodeIdentityId].nextIdentityId = rightNodeIdentityId;\n        nodes[rightNodeIdentityId].prevIdentityId = leftNodeIdentityId;\n    }\n\n    function _checkHub() internal view virtual {\n        require(hub.isContract(msg.sender), \"Fn can only be called by the hub\");\n    }\n\n}\n",
  "sourcePath": "/Users/waving/Desktop/OriginTrail/dkg-evm-module/contracts/storage/ShardingTableStorage.sol",
  "compiler": {
    "name": "solc",
    "version": "0.8.16+commit.07a7930e.Emscripten.clang"
  },
  "schemaVersion": "3.4.10",
  "updatedAt": "2022-12-08T16:29:53.254Z",
  "devdoc": {
    "kind": "dev",
    "methods": {},
    "version": 1
  },
  "userdoc": {
    "kind": "user",
    "methods": {},
    "version": 1
  }
}