{
  "contractName": "ShardingTable",
  "abi": [
    {
      "inputs": [],
      "stateMutability": "nonpayable",
      "type": "constructor"
    },
    {
      "anonymous": false,
      "inputs": [
        {
          "indexed": false,
          "internalType": "string",
          "name": "peerId",
          "type": "string"
        },
        {
          "indexed": false,
          "internalType": "uint8",
          "name": "ask",
          "type": "uint8"
        },
        {
          "indexed": false,
          "internalType": "uint32",
          "name": "stake",
          "type": "uint32"
        }
      ],
      "name": "PeerObjCreated",
      "type": "event"
    },
    {
      "anonymous": false,
      "inputs": [
        {
          "indexed": false,
          "internalType": "string",
          "name": "peerId",
          "type": "string"
        },
        {
          "indexed": false,
          "internalType": "uint8",
          "name": "ask",
          "type": "uint8"
        },
        {
          "indexed": false,
          "internalType": "uint32",
          "name": "stake",
          "type": "uint32"
        }
      ],
      "name": "PeerParamsUpdated",
      "type": "event"
    },
    {
      "anonymous": false,
      "inputs": [
        {
          "indexed": false,
          "internalType": "string",
          "name": "peerId",
          "type": "string"
        }
      ],
      "name": "PeerRemoved",
      "type": "event"
    },
    {
      "inputs": [],
      "name": "head",
      "outputs": [
        {
          "internalType": "string",
          "name": "",
          "type": "string"
        }
      ],
      "stateMutability": "view",
      "type": "function"
    },
    {
      "inputs": [],
      "name": "peerCount",
      "outputs": [
        {
          "internalType": "uint16",
          "name": "",
          "type": "uint16"
        }
      ],
      "stateMutability": "view",
      "type": "function"
    },
    {
      "inputs": [],
      "name": "tail",
      "outputs": [
        {
          "internalType": "string",
          "name": "",
          "type": "string"
        }
      ],
      "stateMutability": "view",
      "type": "function"
    },
    {
      "inputs": [
        {
          "internalType": "string",
          "name": "peerId",
          "type": "string"
        }
      ],
      "name": "getPeer",
      "outputs": [
        {
          "internalType": "string",
          "name": "",
          "type": "string"
        },
        {
          "internalType": "uint8",
          "name": "",
          "type": "uint8"
        },
        {
          "internalType": "uint32",
          "name": "",
          "type": "uint32"
        }
      ],
      "stateMutability": "view",
      "type": "function"
    },
    {
      "inputs": [],
      "name": "getShardingTable",
      "outputs": [
        {
          "components": [
            {
              "internalType": "string",
              "name": "prevPeer",
              "type": "string"
            },
            {
              "internalType": "string",
              "name": "nextPeer",
              "type": "string"
            },
            {
              "internalType": "string",
              "name": "id",
              "type": "string"
            },
            {
              "internalType": "uint8",
              "name": "ask",
              "type": "uint8"
            },
            {
              "internalType": "uint32",
              "name": "stake",
              "type": "uint32"
            }
          ],
          "internalType": "struct ShardingTable.Peer[]",
          "name": "",
          "type": "tuple[]"
        }
      ],
      "stateMutability": "view",
      "type": "function"
    },
    {
      "inputs": [
        {
          "internalType": "string",
          "name": "startingPeerId",
          "type": "string"
        },
        {
          "internalType": "uint16",
          "name": "nodesNumber",
          "type": "uint16"
        }
      ],
      "name": "getShardingTable",
      "outputs": [
        {
          "components": [
            {
              "internalType": "string",
              "name": "prevPeer",
              "type": "string"
            },
            {
              "internalType": "string",
              "name": "nextPeer",
              "type": "string"
            },
            {
              "internalType": "string",
              "name": "id",
              "type": "string"
            },
            {
              "internalType": "uint8",
              "name": "ask",
              "type": "uint8"
            },
            {
              "internalType": "uint32",
              "name": "stake",
              "type": "uint32"
            }
          ],
          "internalType": "struct ShardingTable.Peer[]",
          "name": "",
          "type": "tuple[]"
        }
      ],
      "stateMutability": "view",
      "type": "function"
    },
    {
      "inputs": [
        {
          "internalType": "string",
          "name": "peerId",
          "type": "string"
        },
        {
          "internalType": "uint8",
          "name": "ask",
          "type": "uint8"
        },
        {
          "internalType": "uint32",
          "name": "stake",
          "type": "uint32"
        }
      ],
      "name": "pushBack",
      "outputs": [],
      "stateMutability": "nonpayable",
      "type": "function"
    },
    {
      "inputs": [
        {
          "internalType": "string",
          "name": "peerId",
          "type": "string"
        },
        {
          "internalType": "uint8",
          "name": "ask",
          "type": "uint8"
        },
        {
          "internalType": "uint32",
          "name": "stake",
          "type": "uint32"
        }
      ],
      "name": "pushFront",
      "outputs": [],
      "stateMutability": "nonpayable",
      "type": "function"
    },
    {
      "inputs": [
        {
          "internalType": "string",
          "name": "peerId",
          "type": "string"
        }
      ],
      "name": "removePeer",
      "outputs": [],
      "stateMutability": "nonpayable",
      "type": "function"
    },
    {
      "inputs": [
        {
          "internalType": "string",
          "name": "peerId",
          "type": "string"
        },
        {
          "internalType": "uint8",
          "name": "newAsk",
          "type": "uint8"
        },
        {
          "internalType": "uint32",
          "name": "newStake",
          "type": "uint32"
        }
      ],
      "name": "updateParams",
      "outputs": [],
      "stateMutability": "nonpayable",
      "type": "function"
    }
  ],
  "bytecode": "0x60806040523480156200001157600080fd5b506040518060200160405280600081525060009080519060200190620000399291906200009e565b50600060019080546200004c9062000215565b620000599291906200012f565b50600060029080546200006c9062000215565b620000799291906200012f565b506000600360006101000a81548161ffff021916908361ffff1602179055506200024a565b828054620000ac9062000215565b90600052602060002090601f016020900481019282620000d057600085556200011c565b82601f10620000eb57805160ff19168380011785556200011c565b828001600101855582156200011c579182015b828111156200011b578251825591602001919060010190620000fe565b5b5090506200012b9190620001c7565b5090565b8280546200013d9062000215565b90600052602060002090601f016020900481019282620001615760008555620001b4565b82601f10620001745780548555620001b4565b82800160010185558215620001b457600052602060002091601f016020900482015b82811115620001b357825482559160010191906001019062000196565b5b509050620001c39190620001c7565b5090565b5b80821115620001e2576000816000905550600101620001c8565b5090565b7f4e487b7100000000000000000000000000000000000000000000000000000000600052602260045260246000fd5b600060028204905060018216806200022e57607f821691505b602082108103620002445762000243620001e6565b5b50919050565b6129bb806200025a6000396000f3fe608060405234801561001057600080fd5b506004361061009e5760003560e01c8063bd2824ea11610066578063bd2824ea1461014b578063cd75e4c21461017b578063e1dfaa8b14610197578063e81ea595146101b3578063f683d96c146101d15761009e565b806313d8c840146100a3578063289220c6146100c157806358cf4ab6146100df578063590f979a146101115780638f7dcfa31461012d575b600080fd5b6100ab6101ed565b6040516100b8919061205c565b60405180910390f35b6100c961027b565b6040516100d69190612249565b60405180910390f35b6100f960048036038101906100f491906122e4565b610326565b6040516101089392919061234f565b60405180910390f35b61012b60048036038101906101269190612515565b610570565b005b610135610638565b604051610142919061205c565b60405180910390f35b610165600480360381019061016091906125be565b6106c6565b6040516101729190612249565b60405180910390f35b61019560048036038101906101909190612515565b610d36565b005b6101b160048036038101906101ac9190612515565b61106d565b005b6101bb6113a4565b6040516101c89190612629565b60405180910390f35b6101eb60048036038101906101e69190612644565b6113b8565b005b600280546101fa906126bc565b80601f0160208091040260200160405190810160405280929190818152602001828054610226906126bc565b80156102735780601f1061024857610100808354040283529160200191610273565b820191906000526020600020905b81548152906001019060200180831161025657829003601f168201915b505050505081565b60606103216001805461028d906126bc565b80601f01602080910402602001604051908101604052809291908181526020018280546102b9906126bc565b80156103065780601f106102db57610100808354040283529160200191610306565b820191906000526020600020905b8154815290600101906020018083116102e957829003601f168201915b5050505050600360009054906101000a900461ffff166106c6565b905090565b606060008060006004868660405161033f92919061271d565b90815260200160405180910390206040518060a0016040529081600082018054610368906126bc565b80601f0160208091040260200160405190810160405280929190818152602001828054610394906126bc565b80156103e15780601f106103b6576101008083540402835291602001916103e1565b820191906000526020600020905b8154815290600101906020018083116103c457829003601f168201915b505050505081526020016001820180546103fa906126bc565b80601f0160208091040260200160405190810160405280929190818152602001828054610426906126bc565b80156104735780601f1061044857610100808354040283529160200191610473565b820191906000526020600020905b81548152906001019060200180831161045657829003601f168201915b5050505050815260200160028201805461048c906126bc565b80601f01602080910402602001604051908101604052809291908181526020018280546104b8906126bc565b80156105055780601f106104da57610100808354040283529160200191610505565b820191906000526020600020905b8154815290600101906020018083116104e857829003601f168201915b505050505081526020016003820160009054906101000a900460ff1660ff1660ff1681526020016003820160019054906101000a900463ffffffff1663ffffffff1663ffffffff16815250509050806040015181606001518260800151935093509350509250925092565b60006004846040516105829190612767565b90815260200160405180910390209050828160030160006101000a81548160ff021916908360ff160217905550818160030160016101000a81548163ffffffff021916908363ffffffff1602179055507fc702ca9f5f628c8bda71b5032e25f657dc64b73f31587ed6c7ecee3070ff0aff848260030160009054906101000a900460ff168360030160019054906101000a900463ffffffff1660405161062a9392919061234f565b60405180910390a150505050565b60018054610645906126bc565b80601f0160208091040260200160405190810160405280929190818152602001828054610671906126bc565b80156106be5780601f10610693576101008083540402835291602001916106be565b820191906000526020600020905b8154815290600101906020018083116106a157829003601f168201915b505050505081565b606060008261ffff161015610710576040517f08c379a0000000000000000000000000000000000000000000000000000000008152600401610707906127f0565b60405180910390fd5b606060008361ffff16036107275780915050610d30565b8261ffff1667ffffffffffffffff81111561074557610744612392565b5b60405190808252806020026020018201604052801561077e57816020015b61076b611e1b565b8152602001906001900390816107635790505b5090506004846040516107919190612767565b90815260200160405180910390206040518060a00160405290816000820180546107ba906126bc565b80601f01602080910402602001604051908101604052809291908181526020018280546107e6906126bc565b80156108335780601f1061080857610100808354040283529160200191610833565b820191906000526020600020905b81548152906001019060200180831161081657829003601f168201915b5050505050815260200160018201805461084c906126bc565b80601f0160208091040260200160405190810160405280929190818152602001828054610878906126bc565b80156108c55780601f1061089a576101008083540402835291602001916108c5565b820191906000526020600020905b8154815290600101906020018083116108a857829003601f168201915b505050505081526020016002820180546108de906126bc565b80601f016020809104026020016040519081016040528092919081815260200182805461090a906126bc565b80156109575780601f1061092c57610100808354040283529160200191610957565b820191906000526020600020905b81548152906001019060200180831161093a57829003601f168201915b505050505081526020016003820160009054906101000a900460ff1660ff1660ff1681526020016003820160019054906101000a900463ffffffff1663ffffffff1663ffffffff1681525050816000815181106109b7576109b6612810565b5b60200260200101819052506000600190505b8361ffff168161ffff16108015610a9f5750610a9d826001836109ec919061286e565b61ffff1681518110610a0157610a00612810565b5b60200260200101516020015160008054610a1a906126bc565b80601f0160208091040260200160405190810160405280929190818152602001828054610a46906126bc565b8015610a935780601f10610a6857610100808354040283529160200191610a93565b820191906000526020600020905b815481529060010190602001808311610a7657829003601f168201915b5050505050611b12565b155b15610d2a57600482600183610ab4919061286e565b61ffff1681518110610ac957610ac8612810565b5b602002602001015160200151604051610ae29190612767565b90815260200160405180910390206040518060a0016040529081600082018054610b0b906126bc565b80601f0160208091040260200160405190810160405280929190818152602001828054610b37906126bc565b8015610b845780601f10610b5957610100808354040283529160200191610b84565b820191906000526020600020905b815481529060010190602001808311610b6757829003601f168201915b50505050508152602001600182018054610b9d906126bc565b80601f0160208091040260200160405190810160405280929190818152602001828054610bc9906126bc565b8015610c165780601f10610beb57610100808354040283529160200191610c16565b820191906000526020600020905b815481529060010190602001808311610bf957829003601f168201915b50505050508152602001600282018054610c2f906126bc565b80601f0160208091040260200160405190810160405280929190818152602001828054610c5b906126bc565b8015610ca85780601f10610c7d57610100808354040283529160200191610ca8565b820191906000526020600020905b815481529060010190602001808311610c8b57829003601f168201915b505050505081526020016003820160009054906101000a900460ff1660ff1660ff1681526020016003820160019054906101000a900463ffffffff1663ffffffff1663ffffffff1681525050828261ffff1681518110610d0b57610d0a612810565b5b6020026020010181905250600181610d2391906128a2565b90506109c9565b81925050505b92915050565b610d41838383611b2d565b610e5f60018054610d51906126bc565b80601f0160208091040260200160405190810160405280929190818152602001828054610d7d906126bc565b8015610dca5780601f10610d9f57610100808354040283529160200191610dca565b820191906000526020600020905b815481529060010190602001808311610dad57829003601f168201915b505050505060008054610ddc906126bc565b80601f0160208091040260200160405190810160405280929190818152602001828054610e08906126bc565b8015610e555780601f10610e2a57610100808354040283529160200191610e55565b820191906000526020600020905b815481529060010190602001808311610e3857829003601f168201915b5050505050611b12565b610ef857610ef78360018054610e74906126bc565b80601f0160208091040260200160405190810160405280929190818152602001828054610ea0906126bc565b8015610eed5780601f10610ec257610100808354040283529160200191610eed565b820191906000526020600020905b815481529060010190602001808311610ed057829003601f168201915b5050505050611d77565b5b610f0183611de7565b61101f60028054610f11906126bc565b80601f0160208091040260200160405190810160405280929190818152602001828054610f3d906126bc565b8015610f8a5780601f10610f5f57610100808354040283529160200191610f8a565b820191906000526020600020905b815481529060010190602001808311610f6d57829003601f168201915b505050505060008054610f9c906126bc565b80601f0160208091040260200160405190810160405280929190818152602001828054610fc8906126bc565b80156110155780601f10610fea57610100808354040283529160200191611015565b820191906000526020600020905b815481529060010190602001808311610ff857829003601f168201915b5050505050611b12565b1561102e5761102d83611e01565b5b6001600360008282829054906101000a900461ffff1661104e91906128a2565b92506101000a81548161ffff021916908361ffff160217905550505050565b611078838383611b2d565b61119660028054611088906126bc565b80601f01602080910402602001604051908101604052809291908181526020018280546110b4906126bc565b80156111015780601f106110d657610100808354040283529160200191611101565b820191906000526020600020905b8154815290600101906020018083116110e457829003601f168201915b505050505060008054611113906126bc565b80601f016020809104026020016040519081016040528092919081815260200182805461113f906126bc565b801561118c5780601f106111615761010080835404028352916020019161118c565b820191906000526020600020905b81548152906001019060200180831161116f57829003601f168201915b5050505050611b12565b61122f5761122e600280546111aa906126bc565b80601f01602080910402602001604051908101604052809291908181526020018280546111d6906126bc565b80156112235780601f106111f857610100808354040283529160200191611223565b820191906000526020600020905b81548152906001019060200180831161120657829003601f168201915b505050505084611d77565b5b61123883611e01565b61135660018054611248906126bc565b80601f0160208091040260200160405190810160405280929190818152602001828054611274906126bc565b80156112c15780601f10611296576101008083540402835291602001916112c1565b820191906000526020600020905b8154815290600101906020018083116112a457829003601f168201915b5050505050600080546112d3906126bc565b80601f01602080910402602001604051908101604052809291908181526020018280546112ff906126bc565b801561134c5780601f106113215761010080835404028352916020019161134c565b820191906000526020600020905b81548152906001019060200180831161132f57829003601f168201915b5050505050611b12565b156113655761136483611de7565b5b6001600360008282829054906101000a900461ffff1661138591906128a2565b92506101000a81548161ffff021916908361ffff160217905550505050565b600360009054906101000a900461ffff1681565b60006004826040516113ca9190612767565b90815260200160405180910390206040518060a00160405290816000820180546113f3906126bc565b80601f016020809104026020016040519081016040528092919081815260200182805461141f906126bc565b801561146c5780601f106114415761010080835404028352916020019161146c565b820191906000526020600020905b81548152906001019060200180831161144f57829003601f168201915b50505050508152602001600182018054611485906126bc565b80601f01602080910402602001604051908101604052809291908181526020018280546114b1906126bc565b80156114fe5780601f106114d3576101008083540402835291602001916114fe565b820191906000526020600020905b8154815290600101906020018083116114e157829003601f168201915b50505050508152602001600282018054611517906126bc565b80601f0160208091040260200160405190810160405280929190818152602001828054611543906126bc565b80156115905780601f1061156557610100808354040283529160200191611590565b820191906000526020600020905b81548152906001019060200180831161157357829003601f168201915b505050505081526020016003820160009054906101000a900460ff1660ff1660ff1681526020016003820160019054906101000a900463ffffffff1663ffffffff1663ffffffff16815250509050611672600180546115ee906126bc565b80601f016020809104026020016040519081016040528092919081815260200182805461161a906126bc565b80156116675780601f1061163c57610100808354040283529160200191611667565b820191906000526020600020905b81548152906001019060200180831161164a57829003601f168201915b505050505083611b12565b801561170e575061170d60028054611689906126bc565b80601f01602080910402602001604051908101604052809291908181526020018280546116b5906126bc565b80156117025780601f106116d757610100808354040283529160200191611702565b820191906000526020600020905b8154815290600101906020018083116116e557829003601f168201915b505050505083611b12565b5b1561183e576117a660008054611723906126bc565b80601f016020809104026020016040519081016040528092919081815260200182805461174f906126bc565b801561179c5780601f106117715761010080835404028352916020019161179c565b820191906000526020600020905b81548152906001019060200180831161177f57829003601f168201915b5050505050611de7565b611839600080546117b6906126bc565b80601f01602080910402602001604051908101604052809291908181526020018280546117e2906126bc565b801561182f5780601f106118045761010080835404028352916020019161182f565b820191906000526020600020905b81548152906001019060200180831161181257829003601f168201915b5050505050611e01565b611a21565b6118d26001805461184e906126bc565b80601f016020809104026020016040519081016040528092919081815260200182805461187a906126bc565b80156118c75780601f1061189c576101008083540402835291602001916118c7565b820191906000526020600020905b8154815290600101906020018083116118aa57829003601f168201915b505050505083611b12565b15611925576118e48160200151611de7565b6000600460016040516118f7919061296e565b9081526020016040518091039020600001908054611914906126bc565b61191f929190611e53565b50611a20565b6119b960028054611935906126bc565b80601f0160208091040260200160405190810160405280929190818152602001828054611961906126bc565b80156119ae5780601f10611983576101008083540402835291602001916119ae565b820191906000526020600020905b81548152906001019060200180831161199157829003601f168201915b505050505083611b12565b15611a0c576119cb8160000151611e01565b6000600460026040516119de919061296e565b90815260200160405180910390206001019080546119fb906126bc565b611a06929190611e53565b50611a1f565b611a1e81600001518260200151611d77565b5b5b5b600482604051611a319190612767565b908152602001604051809103902060008082016000611a509190611ee0565b600182016000611a609190611ee0565b600282016000611a709190611ee0565b6003820160006101000a81549060ff02191690556003820160016101000a81549063ffffffff021916905550506001600360008282829054906101000a900461ffff16611abd919061286e565b92506101000a81548161ffff021916908361ffff1602179055507f93bd1f979c000eb994b707077111a51cf5cecfe310c034422bfc3dc8ee93394f82604051611b06919061205c565b60405180910390a15050565b60008180519060200120838051906020012014905092915050565b60006040518060a0016040528060008054611b47906126bc565b80601f0160208091040260200160405190810160405280929190818152602001828054611b73906126bc565b8015611bc05780601f10611b9557610100808354040283529160200191611bc0565b820191906000526020600020905b815481529060010190602001808311611ba357829003601f168201915b5050505050815260200160008054611bd7906126bc565b80601f0160208091040260200160405190810160405280929190818152602001828054611c03906126bc565b8015611c505780601f10611c2557610100808354040283529160200191611c50565b820191906000526020600020905b815481529060010190602001808311611c3357829003601f168201915b505050505081526020018581526020018460ff1681526020018363ffffffff16815250905080600485604051611c869190612767565b90815260200160405180910390206000820151816000019080519060200190611cb0929190611f20565b506020820151816001019080519060200190611ccd929190611f20565b506040820151816002019080519060200190611cea929190611f20565b5060608201518160030160006101000a81548160ff021916908360ff16021790555060808201518160030160016101000a81548163ffffffff021916908363ffffffff1602179055509050507f9bafefa4fadda1e1d9d8627e87dc3486f4abfa65ae9a29de91aa1176d1436ae6848484604051611d699392919061234f565b60405180910390a150505050565b80600483604051611d889190612767565b90815260200160405180910390206001019080519060200190611dac929190611f20565b5081600482604051611dbe9190612767565b90815260200160405180910390206000019080519060200190611de2929190611f20565b505050565b8060019080519060200190611dfd929190611f20565b5050565b8060029080519060200190611e17929190611f20565b5050565b6040518060a00160405280606081526020016060815260200160608152602001600060ff168152602001600063ffffffff1681525090565b828054611e5f906126bc565b90600052602060002090601f016020900481019282611e815760008555611ecf565b82601f10611e925780548555611ecf565b82800160010185558215611ecf57600052602060002091601f016020900482015b82811115611ece578254825591600101919060010190611eb3565b5b509050611edc9190611fa6565b5090565b508054611eec906126bc565b6000825580601f10611efe5750611f1d565b601f016020900490600052602060002090810190611f1c9190611fa6565b5b50565b828054611f2c906126bc565b90600052602060002090601f016020900481019282611f4e5760008555611f95565b82601f10611f6757805160ff1916838001178555611f95565b82800160010185558215611f95579182015b82811115611f94578251825591602001919060010190611f79565b5b509050611fa29190611fa6565b5090565b5b80821115611fbf576000816000905550600101611fa7565b5090565b600081519050919050565b600082825260208201905092915050565b60005b83811015611ffd578082015181840152602081019050611fe2565b8381111561200c576000848401525b50505050565b6000601f19601f8301169050919050565b600061202e82611fc3565b6120388185611fce565b9350612048818560208601611fdf565b61205181612012565b840191505092915050565b600060208201905081810360008301526120768184612023565b905092915050565b600081519050919050565b600082825260208201905092915050565b6000819050602082019050919050565b600082825260208201905092915050565b60006120c682611fc3565b6120d081856120aa565b93506120e0818560208601611fdf565b6120e981612012565b840191505092915050565b600060ff82169050919050565b61210a816120f4565b82525050565b600063ffffffff82169050919050565b61212981612110565b82525050565b600060a083016000830151848203600086015261214c82826120bb565b9150506020830151848203602086015261216682826120bb565b9150506040830151848203604086015261218082826120bb565b91505060608301516121956060860182612101565b5060808301516121a86080860182612120565b508091505092915050565b60006121bf838361212f565b905092915050565b6000602082019050919050565b60006121df8261207e565b6121e98185612089565b9350836020820285016121fb8561209a565b8060005b85811015612237578484038952815161221885826121b3565b9450612223836121c7565b925060208a019950506001810190506121ff565b50829750879550505050505092915050565b6000602082019050818103600083015261226381846121d4565b905092915050565b6000604051905090565b600080fd5b600080fd5b600080fd5b600080fd5b600080fd5b60008083601f8401126122a4576122a361227f565b5b8235905067ffffffffffffffff8111156122c1576122c0612284565b5b6020830191508360018202830111156122dd576122dc612289565b5b9250929050565b600080602083850312156122fb576122fa612275565b5b600083013567ffffffffffffffff8111156123195761231861227a565b5b6123258582860161228e565b92509250509250929050565b61233a816120f4565b82525050565b61234981612110565b82525050565b600060608201905081810360008301526123698186612023565b90506123786020830185612331565b6123856040830184612340565b949350505050565b600080fd5b7f4e487b7100000000000000000000000000000000000000000000000000000000600052604160045260246000fd5b6123ca82612012565b810181811067ffffffffffffffff821117156123e9576123e8612392565b5b80604052505050565b60006123fc61226b565b905061240882826123c1565b919050565b600067ffffffffffffffff82111561242857612427612392565b5b61243182612012565b9050602081019050919050565b82818337600083830152505050565b600061246061245b8461240d565b6123f2565b90508281526020810184848401111561247c5761247b61238d565b5b61248784828561243e565b509392505050565b600082601f8301126124a4576124a361227f565b5b81356124b484826020860161244d565b91505092915050565b6124c6816120f4565b81146124d157600080fd5b50565b6000813590506124e3816124bd565b92915050565b6124f281612110565b81146124fd57600080fd5b50565b60008135905061250f816124e9565b92915050565b60008060006060848603121561252e5761252d612275565b5b600084013567ffffffffffffffff81111561254c5761254b61227a565b5b6125588682870161248f565b9350506020612569868287016124d4565b925050604061257a86828701612500565b9150509250925092565b600061ffff82169050919050565b61259b81612584565b81146125a657600080fd5b50565b6000813590506125b881612592565b92915050565b600080604083850312156125d5576125d4612275565b5b600083013567ffffffffffffffff8111156125f3576125f261227a565b5b6125ff8582860161248f565b9250506020612610858286016125a9565b9150509250929050565b61262381612584565b82525050565b600060208201905061263e600083018461261a565b92915050565b60006020828403121561265a57612659612275565b5b600082013567ffffffffffffffff8111156126785761267761227a565b5b6126848482850161248f565b91505092915050565b7f4e487b7100000000000000000000000000000000000000000000000000000000600052602260045260246000fd5b600060028204905060018216806126d457607f821691505b6020821081036126e7576126e661268d565b5b50919050565b600081905092915050565b600061270483856126ed565b935061271183858461243e565b82840190509392505050565b600061272a8284866126f8565b91508190509392505050565b600061274182611fc3565b61274b81856126ed565b935061275b818560208601611fdf565b80840191505092915050565b60006127738284612736565b915081905092915050565b7f4e6f646573206e756d626572206d757374206265206e6f6e2d6e65676174697660008201527f6521000000000000000000000000000000000000000000000000000000000000602082015250565b60006127da602283611fce565b91506127e58261277e565b604082019050919050565b60006020820190508181036000830152612809816127cd565b9050919050565b7f4e487b7100000000000000000000000000000000000000000000000000000000600052603260045260246000fd5b7f4e487b7100000000000000000000000000000000000000000000000000000000600052601160045260246000fd5b600061287982612584565b915061288483612584565b9250828210156128975761289661283f565b5b828203905092915050565b60006128ad82612584565b91506128b883612584565b92508261ffff038211156128cf576128ce61283f565b5b828201905092915050565b60008190508160005260206000209050919050565b600081546128fc816126bc565b61290681866126ed565b94506001821660008114612921576001811461293257612965565b60ff19831686528186019350612965565b61293b856128da565b60005b8381101561295d5781548189015260018201915060208101905061293e565b838801955050505b50505092915050565b600061297a82846128ef565b91508190509291505056fea264697066735822122069b856b4f5d1fea3ce48a791d760eb09292944f37106ad7806e63ac3a6d93b9964736f6c634300080e0033",
  "immutableReferences": {},
  "source": "// SPDX-License-Identifier: MIT\n\npragma solidity^0.8.0;\n\n\ncontract ShardingTable {\n    event PeerObjCreated(string peerId, uint8 ask, uint32 stake);\n    event PeerRemoved(string peerId);\n    event PeerParamsUpdated(string peerId, uint8 ask, uint32 stake);\n\n    struct Peer {\n        string prevPeer;\n        string nextPeer;\n        string id;\n        uint8 ask;\n        uint32 stake;\n    }\n\n    string private emptyPointer;\n    string public head;\n    string public tail;\n    uint16 public peerCount;\n\n    mapping(string => Peer) peers;\n\n    constructor() {\n        emptyPointer = \"\";\n        head = emptyPointer;\n        tail = emptyPointer;\n        peerCount = 0;\n    }\n\n    function getPeer(string calldata peerId)\n        external\n        view\n        returns (string memory, uint8, uint32)\n    {\n        Peer memory peer = peers[peerId];\n\n        return (peer.id, peer.ask, peer.stake);\n    }\n\n    function getShardingTable(string memory startingPeerId, uint16 nodesNumber)\n        public\n        view\n        returns (Peer[] memory)\n    {\n        require(nodesNumber >= 0, \"Nodes number must be non-negative!\");\n\n        Peer[] memory peersPage;\n\n        if (nodesNumber == 0) {\n            return peersPage;\n        }\n\n        peersPage = new Peer[](nodesNumber);\n\n        peersPage[0] = peers[startingPeerId];\n        uint16 i = 1;\n\n        while (i < nodesNumber && !_equalIds(peersPage[i-1].nextPeer, emptyPointer)) {\n            peersPage[i] = peers[peersPage[i-1].nextPeer];\n            i += 1;\n        }\n        return peersPage;\n    }\n\n    function getShardingTable()\n        public\n        view\n        returns (Peer[] memory)\n    {\n        return getShardingTable(head, peerCount);\n    }\n\n    function pushBack(string memory peerId, uint8 ask, uint32 stake)\n        public\n    {\n        _createPeer(peerId, ask, stake);\n\n        if (!_equalIds(tail, emptyPointer)) _link(tail, peerId);\n        _setTail(peerId);\n\n        if (_equalIds(head, emptyPointer)) _setHead(peerId);\n\n        peerCount += 1;\n    }\n\n    function pushFront(string memory peerId, uint8 ask, uint32 stake)\n        public\n    {\n        _createPeer(peerId, ask, stake);\n\n        if (!_equalIds(head, emptyPointer)) _link(peerId, head);\n        _setHead(peerId);\n\n        if (_equalIds(tail, emptyPointer)) _setTail(peerId);\n\n        peerCount += 1;\n    }\n\n    function removePeer(string memory peerId)\n        public\n    {\n        Peer memory removedPeer = peers[peerId];\n\n        if (_equalIds(head, peerId) && _equalIds(tail, peerId)) {\n            _setHead(emptyPointer);\n            _setTail(emptyPointer);\n        }\n        else if (_equalIds(head, peerId)) {\n            _setHead(removedPeer.nextPeer);\n            peers[head].prevPeer = emptyPointer;\n        }\n        else if (_equalIds(tail, peerId)) {\n            _setTail(removedPeer.prevPeer);\n            peers[tail].nextPeer = emptyPointer;\n        }\n        else {\n            _link(removedPeer.prevPeer, removedPeer.nextPeer);\n        }\n\n        delete peers[peerId];\n\n        peerCount -= 1;\n    \n        emit PeerRemoved(peerId);\n    }\n\n    function updateParams(string memory peerId, uint8 newAsk, uint32 newStake)\n        external\n    {\n        Peer storage peer = peers[peerId];\n\n        peer.ask = newAsk;\n        peer.stake = newStake;\n\n        emit PeerParamsUpdated(peerId, peer.ask, peer.stake);\n    }\n\n    function _createPeer(string memory peerId, uint8 ask, uint32 stake)\n        internal\n    {\n        Peer memory newPeer = Peer(\n            emptyPointer,\n            emptyPointer,\n            peerId,\n            ask,\n            stake\n        );\n\n        peers[peerId] = newPeer;\n\n        emit PeerObjCreated(peerId, ask, stake);\n    }\n\n    function _setHead(string memory peerId)\n        internal\n    {\n        head = peerId;\n    }\n\n    function _setTail(string memory peerId)\n        internal\n    {\n        tail = peerId;\n    }\n\n    function _link(string memory _leftPeerId, string memory _rightPeerId)\n        internal\n    {\n        peers[_leftPeerId].nextPeer = _rightPeerId;\n        peers[_rightPeerId].prevPeer = _leftPeerId;\n    }\n\n    function _equalIds(string memory _firstId, string memory _secondId)\n        internal\n        pure\n        returns (bool)\n    {\n        return keccak256(bytes(_firstId)) == keccak256(bytes(_secondId));\n    }\n}\n",
  "sourcePath": "/Users/waving/Desktop/OriginTrail/dkg-evm-module/contracts/ShardingTable.sol",
  "compiler": {
    "name": "solc",
    "version": "0.8.14+commit.80d49f37.Emscripten.clang"
  },
  "schemaVersion": "3.4.10",
  "updatedAt": "2022-10-21T12:20:50.295Z",
  "devdoc": {
    "kind": "dev",
    "methods": {},
    "version": 1
  },
  "userdoc": {
    "kind": "user",
    "methods": {},
    "version": 1
  }
}