{
  "contractName": "ShardingTable",
  "abi": [
    {
      "inputs": [
        {
          "internalType": "address",
          "name": "hubAddress",
          "type": "address"
        }
      ],
      "stateMutability": "nonpayable",
      "type": "constructor"
    },
    {
      "anonymous": false,
      "inputs": [
        {
          "indexed": false,
          "internalType": "bytes",
          "name": "nodeId",
          "type": "bytes"
        },
        {
          "indexed": false,
          "internalType": "uint256",
          "name": "ask",
          "type": "uint256"
        },
        {
          "indexed": false,
          "internalType": "uint256",
          "name": "stake",
          "type": "uint256"
        },
        {
          "indexed": false,
          "internalType": "bytes32",
          "name": "nodeIdSha256",
          "type": "bytes32"
        }
      ],
      "name": "NodeObjCreated",
      "type": "event"
    },
    {
      "anonymous": false,
      "inputs": [
        {
          "indexed": false,
          "internalType": "bytes",
          "name": "nodeId",
          "type": "bytes"
        }
      ],
      "name": "NodeRemoved",
      "type": "event"
    },
    {
      "inputs": [],
      "name": "head",
      "outputs": [
        {
          "internalType": "bytes",
          "name": "",
          "type": "bytes"
        }
      ],
      "stateMutability": "view",
      "type": "function",
      "constant": true
    },
    {
      "inputs": [],
      "name": "hub",
      "outputs": [
        {
          "internalType": "contract Hub",
          "name": "",
          "type": "address"
        }
      ],
      "stateMutability": "view",
      "type": "function",
      "constant": true
    },
    {
      "inputs": [],
      "name": "nodesCount",
      "outputs": [
        {
          "internalType": "uint16",
          "name": "",
          "type": "uint16"
        }
      ],
      "stateMutability": "view",
      "type": "function",
      "constant": true
    },
    {
      "inputs": [],
      "name": "tail",
      "outputs": [
        {
          "internalType": "bytes",
          "name": "",
          "type": "bytes"
        }
      ],
      "stateMutability": "view",
      "type": "function",
      "constant": true
    },
    {
      "inputs": [
        {
          "internalType": "bytes",
          "name": "startingNodeId",
          "type": "bytes"
        },
        {
          "internalType": "uint16",
          "name": "nodesNumber",
          "type": "uint16"
        }
      ],
      "name": "getShardingTable",
      "outputs": [
        {
          "components": [
            {
              "internalType": "bytes",
              "name": "id",
              "type": "bytes"
            },
            {
              "internalType": "uint256",
              "name": "ask",
              "type": "uint256"
            },
            {
              "internalType": "uint256",
              "name": "stake",
              "type": "uint256"
            },
            {
              "internalType": "bytes32",
              "name": "idSha256",
              "type": "bytes32"
            }
          ],
          "internalType": "struct ShardingTable.NodeInfo[]",
          "name": "",
          "type": "tuple[]"
        }
      ],
      "stateMutability": "view",
      "type": "function",
      "constant": true
    },
    {
      "inputs": [],
      "name": "getShardingTable",
      "outputs": [
        {
          "components": [
            {
              "internalType": "bytes",
              "name": "id",
              "type": "bytes"
            },
            {
              "internalType": "uint256",
              "name": "ask",
              "type": "uint256"
            },
            {
              "internalType": "uint256",
              "name": "stake",
              "type": "uint256"
            },
            {
              "internalType": "bytes32",
              "name": "idSha256",
              "type": "bytes32"
            }
          ],
          "internalType": "struct ShardingTable.NodeInfo[]",
          "name": "",
          "type": "tuple[]"
        }
      ],
      "stateMutability": "view",
      "type": "function",
      "constant": true
    },
    {
      "inputs": [
        {
          "internalType": "address",
          "name": "identity",
          "type": "address"
        }
      ],
      "name": "pushBack",
      "outputs": [],
      "stateMutability": "nonpayable",
      "type": "function"
    },
    {
      "inputs": [
        {
          "internalType": "address",
          "name": "identity",
          "type": "address"
        }
      ],
      "name": "pushFront",
      "outputs": [],
      "stateMutability": "nonpayable",
      "type": "function"
    },
    {
      "inputs": [
        {
          "internalType": "address",
          "name": "identity",
          "type": "address"
        }
      ],
      "name": "removeNode",
      "outputs": [],
      "stateMutability": "nonpayable",
      "type": "function"
    }
  ],
  "bytecode": "0x60806040523480156200001157600080fd5b50604051620034eb380380620034eb83398181016040528101906200003791906200036b565b600073ffffffffffffffffffffffffffffffffffffffff168173ffffffffffffffffffffffffffffffffffffffff16036200007157600080fd5b806000806101000a81548173ffffffffffffffffffffffffffffffffffffffff021916908373ffffffffffffffffffffffffffffffffffffffff1602179055506040518060200160405280600081525060019080519060200190620000d8929190620001b9565b5060026001604051620000ec9190620004ac565b602060405180830381855afa1580156200010a573d6000803e3d6000fd5b5050506040513d601f19601f820116820180604052508101906200012f919062000500565b60066001604051620001429190620004ac565b908152602001604051809103902081905550600160029080546200016690620003cc565b620001739291906200024a565b50600160039080546200018690620003cc565b620001939291906200024a565b506000600460006101000a81548161ffff021916908361ffff1602179055505062000532565b828054620001c790620003cc565b90600052602060002090601f016020900481019282620001eb576000855562000237565b82601f106200020657805160ff191683800117855562000237565b8280016001018555821562000237579182015b828111156200023657825182559160200191906001019062000219565b5b509050620002469190620002e2565b5090565b8280546200025890620003cc565b90600052602060002090601f0160209004810192826200027c5760008555620002cf565b82601f106200028f5780548555620002cf565b82800160010185558215620002cf57600052602060002091601f016020900482015b82811115620002ce578254825591600101919060010190620002b1565b5b509050620002de9190620002e2565b5090565b5b80821115620002fd576000816000905550600101620002e3565b5090565b600080fd5b600073ffffffffffffffffffffffffffffffffffffffff82169050919050565b6000620003338262000306565b9050919050565b620003458162000326565b81146200035157600080fd5b50565b60008151905062000365816200033a565b92915050565b60006020828403121562000384576200038362000301565b5b6000620003948482850162000354565b91505092915050565b7f4e487b7100000000000000000000000000000000000000000000000000000000600052602260045260246000fd5b60006002820490506001821680620003e557607f821691505b602082108103620003fb57620003fa6200039d565b5b50919050565b600081905092915050565b60008190508160005260206000209050919050565b600081546200043081620003cc565b6200043c818662000401565b945060018216600081146200045a57600181146200046c57620004a3565b60ff19831686528186019350620004a3565b62000477856200040c565b60005b838110156200049b578154818901526001820191506020810190506200047a565b838801955050505b50505092915050565b6000620004ba828462000421565b915081905092915050565b6000819050919050565b620004da81620004c5565b8114620004e657600080fd5b50565b600081519050620004fa81620004cf565b92915050565b60006020828403121562000519576200051862000301565b5b60006200052984828501620004e9565b91505092915050565b612fa980620005426000396000f3fe608060405234801561001057600080fd5b50600436106100935760003560e01c806347ad65251161006657806347ad652514610122578063495a6ada1461013e5780638f7dcfa31461015a578063b2b99ec914610178578063f1a3c5b31461019457610093565b806313d8c840146100985780631593848f146100b6578063289220c6146100e6578063365a86fc14610104575b600080fd5b6100a06101b2565b6040516100ad919061259a565b60405180910390f35b6100d060048036038101906100cb919061273f565b610240565b6040516100dd919061293c565b60405180910390f35b6100ee610af7565b6040516100fb919061293c565b60405180910390f35b61010c610ba2565b60405161011991906129dd565b60405180910390f35b61013c60048036038101906101379190612a36565b610bc6565b005b61015860048036038101906101539190612a36565b61101b565b005b610162611470565b60405161016f919061259a565b60405180910390f35b610192600480360381019061018d9190612a36565b6114fe565b005b61019c611d89565b6040516101a99190612a72565b60405180910390f35b600380546101bf90612abc565b80601f01602080910402602001604051908101604052809291908181526020018280546101eb90612abc565b80156102385780601f1061020d57610100808354040283529160200191610238565b820191906000526020600020905b81548152906001019060200180831161021b57829003601f168201915b505050505081565b60606103046005846040516102559190612b29565b9081526020016040518091039020600101805461027190612abc565b80601f016020809104026020016040519081016040528092919081815260200182805461029d90612abc565b80156102ea5780601f106102bf576101008083540402835291602001916102ea565b820191906000526020600020905b8154815290600101906020018083116102cd57829003601f168201915b505050505060405180602001604052806000815250611d9d565b15806103a0575061039f836001805461031c90612abc565b80601f016020809104026020016040519081016040528092919081815260200182805461034890612abc565b80156103955780601f1061036a57610100808354040283529160200191610395565b820191906000526020600020905b81548152906001019060200180831161037857829003601f168201915b5050505050611d9d565b5b6103a957600080fd5b60606000600460009054906101000a900461ffff1661ffff16036103d05780915050610af1565b8261ffff1667ffffffffffffffff8111156103ee576103ed6125da565b5b60405190808252806020026020018201604052801561042757816020015b610414612366565b81526020019060019003908161040c5790505b50905060008060009054906101000a900473ffffffffffffffffffffffffffffffffffffffff1673ffffffffffffffffffffffffffffffffffffffff166304433bbc6040518163ffffffff1660e01b815260040161048490612b9d565b602060405180830381865afa1580156104a1573d6000803e3d6000fd5b505050506040513d601f19601f820116820180604052508101906104c59190612bd2565b905060405180608001604052808681526020018273ffffffffffffffffffffffffffffffffffffffff1663de129f4e6005896040516105049190612b29565b908152602001604051809103902060000160009054906101000a900473ffffffffffffffffffffffffffffffffffffffff166040518263ffffffff1660e01b81526004016105529190612c0e565b602060405180830381865afa15801561056f573d6000803e3d6000fd5b505050506040513d601f19601f820116820180604052508101906105939190612c55565b81526020018273ffffffffffffffffffffffffffffffffffffffff16637a7664606005896040516105c49190612b29565b908152602001604051809103902060000160009054906101000a900473ffffffffffffffffffffffffffffffffffffffff166040518263ffffffff1660e01b81526004016106129190612c0e565b602060405180830381865afa15801561062f573d6000803e3d6000fd5b505050506040513d601f19601f820116820180604052508101906106539190612c55565b81526020016006876040516106689190612b29565b9081526020016040518091039020548152508260008151811061068e5761068d612c82565b5b60200260200101819052506000600190505b8461ffff168161ffff1610801561081f575061081d6005846001846106c59190612ce0565b61ffff16815181106106da576106d9612c82565b5b6020026020010151600001516040516106f39190612b29565b9081526020016040518091039020600301805461070f90612abc565b80601f016020809104026020016040519081016040528092919081815260200182805461073b90612abc565b80156107885780601f1061075d57610100808354040283529160200191610788565b820191906000526020600020905b81548152906001019060200180831161076b57829003601f168201915b50505050506001805461079a90612abc565b80601f01602080910402602001604051908101604052809291908181526020018280546107c690612abc565b80156108135780601f106107e857610100808354040283529160200191610813565b820191906000526020600020905b8154815290600101906020018083116107f657829003601f168201915b5050505050611d9d565b155b15610aea5760006005846001846108369190612ce0565b61ffff168151811061084b5761084a612c82565b5b6020026020010151600001516040516108649190612b29565b9081526020016040518091039020600301805461088090612abc565b80601f01602080910402602001604051908101604052809291908181526020018280546108ac90612abc565b80156108f95780601f106108ce576101008083540402835291602001916108f9565b820191906000526020600020905b8154815290600101906020018083116108dc57829003601f168201915b5050505050905060405180608001604052808281526020018473ffffffffffffffffffffffffffffffffffffffff1663de129f4e60058560405161093d9190612b29565b908152602001604051809103902060000160009054906101000a900473ffffffffffffffffffffffffffffffffffffffff166040518263ffffffff1660e01b815260040161098b9190612c0e565b602060405180830381865afa1580156109a8573d6000803e3d6000fd5b505050506040513d601f19601f820116820180604052508101906109cc9190612c55565b81526020018473ffffffffffffffffffffffffffffffffffffffff16637a7664606005856040516109fd9190612b29565b908152602001604051809103902060000160009054906101000a900473ffffffffffffffffffffffffffffffffffffffff166040518263ffffffff1660e01b8152600401610a4b9190612c0e565b602060405180830381865afa158015610a68573d6000803e3d6000fd5b505050506040513d601f19601f82011682018060405250810190610a8c9190612c55565b8152602001600683604051610aa19190612b29565b908152602001604051809103902054815250848361ffff1681518110610aca57610ac9612c82565b5b6020026020010181905250600182610ae29190612d14565b9150506106a0565b8293505050505b92915050565b6060610b9d60028054610b0990612abc565b80601f0160208091040260200160405190810160405280929190818152602001828054610b3590612abc565b8015610b825780601f10610b5757610100808354040283529160200191610b82565b820191906000526020600020905b815481529060010190602001808311610b6557829003601f168201915b5050505050600460009054906101000a900461ffff16610240565b905090565b60008054906101000a900473ffffffffffffffffffffffffffffffffffffffff1681565b610bcf81611de6565b60008060009054906101000a900473ffffffffffffffffffffffffffffffffffffffff1673ffffffffffffffffffffffffffffffffffffffff166304433bbc6040518163ffffffff1660e01b8152600401610c2990612b9d565b602060405180830381865afa158015610c46573d6000803e3d6000fd5b505050506040513d601f19601f82011682018060405250810190610c6a9190612bd2565b905060008173ffffffffffffffffffffffffffffffffffffffff1663b56e4129846040518263ffffffff1660e01b8152600401610ca79190612c0e565b600060405180830381865afa158015610cc4573d6000803e3d6000fd5b505050506040513d6000823e3d601f19601f82011682018060405250810190610ced9190612dbc565b9050610e0d60028054610cff90612abc565b80601f0160208091040260200160405190810160405280929190818152602001828054610d2b90612abc565b8015610d785780601f10610d4d57610100808354040283529160200191610d78565b820191906000526020600020905b815481529060010190602001808311610d5b57829003601f168201915b505050505060018054610d8a90612abc565b80601f0160208091040260200160405190810160405280929190818152602001828054610db690612abc565b8015610e035780601f10610dd857610100808354040283529160200191610e03565b820191906000526020600020905b815481529060010190602001808311610de657829003601f168201915b5050505050611d9d565b610ea657610ea58160028054610e2290612abc565b80601f0160208091040260200160405190810160405280929190818152602001828054610e4e90612abc565b8015610e9b5780601f10610e7057610100808354040283529160200191610e9b565b820191906000526020600020905b815481529060010190602001808311610e7e57829003601f168201915b50505050506122c2565b5b610eaf81612332565b610fcd60038054610ebf90612abc565b80601f0160208091040260200160405190810160405280929190818152602001828054610eeb90612abc565b8015610f385780601f10610f0d57610100808354040283529160200191610f38565b820191906000526020600020905b815481529060010190602001808311610f1b57829003601f168201915b505050505060018054610f4a90612abc565b80601f0160208091040260200160405190810160405280929190818152602001828054610f7690612abc565b8015610fc35780601f10610f9857610100808354040283529160200191610fc3565b820191906000526020600020905b815481529060010190602001808311610fa657829003601f168201915b5050505050611d9d565b15610fdc57610fdb8161234c565b5b6001600460008282829054906101000a900461ffff16610ffc9190612d14565b92506101000a81548161ffff021916908361ffff160217905550505050565b61102481611de6565b60008060009054906101000a900473ffffffffffffffffffffffffffffffffffffffff1673ffffffffffffffffffffffffffffffffffffffff166304433bbc6040518163ffffffff1660e01b815260040161107e90612b9d565b602060405180830381865afa15801561109b573d6000803e3d6000fd5b505050506040513d601f19601f820116820180604052508101906110bf9190612bd2565b905060008173ffffffffffffffffffffffffffffffffffffffff1663b56e4129846040518263ffffffff1660e01b81526004016110fc9190612c0e565b600060405180830381865afa158015611119573d6000803e3d6000fd5b505050506040513d6000823e3d601f19601f820116820180604052508101906111429190612dbc565b90506112626003805461115490612abc565b80601f016020809104026020016040519081016040528092919081815260200182805461118090612abc565b80156111cd5780601f106111a2576101008083540402835291602001916111cd565b820191906000526020600020905b8154815290600101906020018083116111b057829003601f168201915b5050505050600180546111df90612abc565b80601f016020809104026020016040519081016040528092919081815260200182805461120b90612abc565b80156112585780601f1061122d57610100808354040283529160200191611258565b820191906000526020600020905b81548152906001019060200180831161123b57829003601f168201915b5050505050611d9d565b6112fb576112fa6003805461127690612abc565b80601f01602080910402602001604051908101604052809291908181526020018280546112a290612abc565b80156112ef5780601f106112c4576101008083540402835291602001916112ef565b820191906000526020600020905b8154815290600101906020018083116112d257829003601f168201915b5050505050826122c2565b5b6113048161234c565b6114226002805461131490612abc565b80601f016020809104026020016040519081016040528092919081815260200182805461134090612abc565b801561138d5780601f106113625761010080835404028352916020019161138d565b820191906000526020600020905b81548152906001019060200180831161137057829003601f168201915b50505050506001805461139f90612abc565b80601f01602080910402602001604051908101604052809291908181526020018280546113cb90612abc565b80156114185780601f106113ed57610100808354040283529160200191611418565b820191906000526020600020905b8154815290600101906020018083116113fb57829003601f168201915b5050505050611d9d565b156114315761143081612332565b5b6001600460008282829054906101000a900461ffff166114519190612d14565b92506101000a81548161ffff021916908361ffff160217905550505050565b6002805461147d90612abc565b80601f01602080910402602001604051908101604052809291908181526020018280546114a990612abc565b80156114f65780601f106114cb576101008083540402835291602001916114f6565b820191906000526020600020905b8154815290600101906020018083116114d957829003601f168201915b505050505081565b60008060009054906101000a900473ffffffffffffffffffffffffffffffffffffffff1673ffffffffffffffffffffffffffffffffffffffff166304433bbc6040518163ffffffff1660e01b815260040161155890612b9d565b602060405180830381865afa158015611575573d6000803e3d6000fd5b505050506040513d601f19601f820116820180604052508101906115999190612bd2565b905060008173ffffffffffffffffffffffffffffffffffffffff1663b56e4129846040518263ffffffff1660e01b81526004016115d69190612c0e565b600060405180830381865afa1580156115f3573d6000803e3d6000fd5b505050506040513d6000823e3d601f19601f8201168201806040525081019061161c9190612dbc565b905060006005826040516116309190612b29565b90815260200160405180910390206040518060800160405290816000820160009054906101000a900473ffffffffffffffffffffffffffffffffffffffff1673ffffffffffffffffffffffffffffffffffffffff1673ffffffffffffffffffffffffffffffffffffffff1681526020016001820180546116af90612abc565b80601f01602080910402602001604051908101604052809291908181526020018280546116db90612abc565b80156117285780601f106116fd57610100808354040283529160200191611728565b820191906000526020600020905b81548152906001019060200180831161170b57829003601f168201915b5050505050815260200160028201805461174190612abc565b80601f016020809104026020016040519081016040528092919081815260200182805461176d90612abc565b80156117ba5780601f1061178f576101008083540402835291602001916117ba565b820191906000526020600020905b81548152906001019060200180831161179d57829003601f168201915b505050505081526020016003820180546117d390612abc565b80601f01602080910402602001604051908101604052809291908181526020018280546117ff90612abc565b801561184c5780601f106118215761010080835404028352916020019161184c565b820191906000526020600020905b81548152906001019060200180831161182f57829003601f168201915b50505050508152505090506118eb6002805461186790612abc565b80601f016020809104026020016040519081016040528092919081815260200182805461189390612abc565b80156118e05780601f106118b5576101008083540402835291602001916118e0565b820191906000526020600020905b8154815290600101906020018083116118c357829003601f168201915b505050505083611d9d565b801561198757506119866003805461190290612abc565b80601f016020809104026020016040519081016040528092919081815260200182805461192e90612abc565b801561197b5780601f106119505761010080835404028352916020019161197b565b820191906000526020600020905b81548152906001019060200180831161195e57829003601f168201915b505050505083611d9d565b5b15611ab757611a1f6001805461199c90612abc565b80601f01602080910402602001604051908101604052809291908181526020018280546119c890612abc565b8015611a155780601f106119ea57610100808354040283529160200191611a15565b820191906000526020600020905b8154815290600101906020018083116119f857829003601f168201915b5050505050612332565b611ab260018054611a2f90612abc565b80601f0160208091040260200160405190810160405280929190818152602001828054611a5b90612abc565b8015611aa85780601f10611a7d57610100808354040283529160200191611aa8565b820191906000526020600020905b815481529060010190602001808311611a8b57829003601f168201915b505050505061234c565b611c9a565b611b4b60028054611ac790612abc565b80601f0160208091040260200160405190810160405280929190818152602001828054611af390612abc565b8015611b405780601f10611b1557610100808354040283529160200191611b40565b820191906000526020600020905b815481529060010190602001808311611b2357829003601f168201915b505050505083611d9d565b15611b9e57611b5d8160600151612332565b600160056002604051611b709190612e99565b9081526020016040518091039020600201908054611b8d90612abc565b611b98929190612391565b50611c99565b611c3260038054611bae90612abc565b80601f0160208091040260200160405190810160405280929190818152602001828054611bda90612abc565b8015611c275780601f10611bfc57610100808354040283529160200191611c27565b820191906000526020600020905b815481529060010190602001808311611c0a57829003601f168201915b505050505083611d9d565b15611c8557611c44816040015161234c565b600160056003604051611c579190612e99565b9081526020016040518091039020600301908054611c7490612abc565b611c7f929190612391565b50611c98565b611c97816040015182606001516122c2565b5b5b5b600582604051611caa9190612b29565b9081526020016040518091039020600080820160006101000a81549073ffffffffffffffffffffffffffffffffffffffff0219169055600182016000611cf0919061241e565b600282016000611d00919061241e565b600382016000611d10919061241e565b50506001600460008282829054906101000a900461ffff16611d329190612ce0565b92506101000a81548161ffff021916908361ffff1602179055507fe205888acbb768f3542b55524208304eb30bc6221a431e1178015e87fb1ca79382604051611d7b919061259a565b60405180910390a150505050565b600460009054906101000a900461ffff1681565b6000600682604051611daf9190612b29565b908152602001604051809103902054600684604051611dce9190612b29565b90815260200160405180910390205414905092915050565b60008060009054906101000a900473ffffffffffffffffffffffffffffffffffffffff1673ffffffffffffffffffffffffffffffffffffffff166304433bbc6040518163ffffffff1660e01b8152600401611e4090612b9d565b602060405180830381865afa158015611e5d573d6000803e3d6000fd5b505050506040513d601f19601f82011682018060405250810190611e819190612bd2565b905060008173ffffffffffffffffffffffffffffffffffffffff1663b56e4129846040518263ffffffff1660e01b8152600401611ebe9190612c0e565b600060405180830381865afa158015611edb573d6000803e3d6000fd5b505050506040513d6000823e3d601f19601f82011682018060405250810190611f049190612dbc565b90506000600282604051611f189190612b29565b602060405180830381855afa158015611f35573d6000803e3d6000fd5b5050506040513d601f19601f82011682018060405250810190611f589190612edc565b9050600060405180608001604052808673ffffffffffffffffffffffffffffffffffffffff16815260200184815260200160018054611f9690612abc565b80601f0160208091040260200160405190810160405280929190818152602001828054611fc290612abc565b801561200f5780601f10611fe45761010080835404028352916020019161200f565b820191906000526020600020905b815481529060010190602001808311611ff257829003601f168201915b505050505081526020016001805461202690612abc565b80601f016020809104026020016040519081016040528092919081815260200182805461205290612abc565b801561209f5780601f106120745761010080835404028352916020019161209f565b820191906000526020600020905b81548152906001019060200180831161208257829003601f168201915b50505050508152509050806005846040516120ba9190612b29565b908152602001604051809103902060008201518160000160006101000a81548173ffffffffffffffffffffffffffffffffffffffff021916908373ffffffffffffffffffffffffffffffffffffffff160217905550602082015181600101908051906020019061212b92919061245e565b50604082015181600201908051906020019061214892919061245e565b50606082015181600301908051906020019061216592919061245e565b509050508160068460405161217a9190612b29565b9081526020016040518091039020819055507fb6404cbe54b50f26abd792c257e9cf81f6589fc5f8a16f2cdce0b0360ee06dec838573ffffffffffffffffffffffffffffffffffffffff1663de129f4e886040518263ffffffff1660e01b81526004016121e79190612c0e565b602060405180830381865afa158015612204573d6000803e3d6000fd5b505050506040513d601f19601f820116820180604052508101906122289190612c55565b8673ffffffffffffffffffffffffffffffffffffffff16637a766460896040518263ffffffff1660e01b81526004016122619190612c0e565b602060405180830381865afa15801561227e573d6000803e3d6000fd5b505050506040513d601f19601f820116820180604052508101906122a29190612c55565b856040516122b39493929190612f27565b60405180910390a15050505050565b806005836040516122d39190612b29565b908152602001604051809103902060030190805190602001906122f792919061245e565b50816005826040516123099190612b29565b9081526020016040518091039020600201908051906020019061232d92919061245e565b505050565b806002908051906020019061234892919061245e565b5050565b806003908051906020019061236292919061245e565b5050565b6040518060800160405280606081526020016000815260200160008152602001600080191681525090565b82805461239d90612abc565b90600052602060002090601f0160209004810192826123bf576000855561240d565b82601f106123d0578054855561240d565b8280016001018555821561240d57600052602060002091601f016020900482015b8281111561240c5782548255916001019190600101906123f1565b5b50905061241a91906124e4565b5090565b50805461242a90612abc565b6000825580601f1061243c575061245b565b601f01602090049060005260206000209081019061245a91906124e4565b5b50565b82805461246a90612abc565b90600052602060002090601f01602090048101928261248c57600085556124d3565b82601f106124a557805160ff19168380011785556124d3565b828001600101855582156124d3579182015b828111156124d25782518255916020019190600101906124b7565b5b5090506124e091906124e4565b5090565b5b808211156124fd5760008160009055506001016124e5565b5090565b600081519050919050565b600082825260208201905092915050565b60005b8381101561253b578082015181840152602081019050612520565b8381111561254a576000848401525b50505050565b6000601f19601f8301169050919050565b600061256c82612501565b612576818561250c565b935061258681856020860161251d565b61258f81612550565b840191505092915050565b600060208201905081810360008301526125b48184612561565b905092915050565b6000604051905090565b600080fd5b600080fd5b600080fd5b600080fd5b7f4e487b7100000000000000000000000000000000000000000000000000000000600052604160045260246000fd5b61261282612550565b810181811067ffffffffffffffff82111715612631576126306125da565b5b80604052505050565b60006126446125bc565b90506126508282612609565b919050565b600067ffffffffffffffff8211156126705761266f6125da565b5b61267982612550565b9050602081019050919050565b82818337600083830152505050565b60006126a86126a384612655565b61263a565b9050828152602081018484840111156126c4576126c36125d5565b5b6126cf848285612686565b509392505050565b600082601f8301126126ec576126eb6125d0565b5b81356126fc848260208601612695565b91505092915050565b600061ffff82169050919050565b61271c81612705565b811461272757600080fd5b50565b60008135905061273981612713565b92915050565b60008060408385031215612756576127556125c6565b5b600083013567ffffffffffffffff811115612774576127736125cb565b5b612780858286016126d7565b92505060206127918582860161272a565b9150509250929050565b600081519050919050565b600082825260208201905092915050565b6000819050602082019050919050565b600082825260208201905092915050565b60006127e382612501565b6127ed81856127c7565b93506127fd81856020860161251d565b61280681612550565b840191505092915050565b6000819050919050565b61282481612811565b82525050565b6000819050919050565b61283d8161282a565b82525050565b6000608083016000830151848203600086015261286082826127d8565b9150506020830151612875602086018261281b565b506040830151612888604086018261281b565b50606083015161289b6060860182612834565b508091505092915050565b60006128b28383612843565b905092915050565b6000602082019050919050565b60006128d28261279b565b6128dc81856127a6565b9350836020820285016128ee856127b7565b8060005b8581101561292a578484038952815161290b85826128a6565b9450612916836128ba565b925060208a019950506001810190506128f2565b50829750879550505050505092915050565b6000602082019050818103600083015261295681846128c7565b905092915050565b600073ffffffffffffffffffffffffffffffffffffffff82169050919050565b6000819050919050565b60006129a361299e6129998461295e565b61297e565b61295e565b9050919050565b60006129b582612988565b9050919050565b60006129c7826129aa565b9050919050565b6129d7816129bc565b82525050565b60006020820190506129f260008301846129ce565b92915050565b6000612a038261295e565b9050919050565b612a13816129f8565b8114612a1e57600080fd5b50565b600081359050612a3081612a0a565b92915050565b600060208284031215612a4c57612a4b6125c6565b5b6000612a5a84828501612a21565b91505092915050565b612a6c81612705565b82525050565b6000602082019050612a876000830184612a63565b92915050565b7f4e487b7100000000000000000000000000000000000000000000000000000000600052602260045260246000fd5b60006002820490506001821680612ad457607f821691505b602082108103612ae757612ae6612a8d565b5b50919050565b600081905092915050565b6000612b0382612501565b612b0d8185612aed565b9350612b1d81856020860161251d565b80840191505092915050565b6000612b358284612af8565b915081905092915050565b600082825260208201905092915050565b7f50726f66696c6553746f72616765000000000000000000000000000000000000600082015250565b6000612b87600e83612b40565b9150612b9282612b51565b602082019050919050565b60006020820190508181036000830152612bb681612b7a565b9050919050565b600081519050612bcc81612a0a565b92915050565b600060208284031215612be857612be76125c6565b5b6000612bf684828501612bbd565b91505092915050565b612c08816129f8565b82525050565b6000602082019050612c236000830184612bff565b92915050565b612c3281612811565b8114612c3d57600080fd5b50565b600081519050612c4f81612c29565b92915050565b600060208284031215612c6b57612c6a6125c6565b5b6000612c7984828501612c40565b91505092915050565b7f4e487b7100000000000000000000000000000000000000000000000000000000600052603260045260246000fd5b7f4e487b7100000000000000000000000000000000000000000000000000000000600052601160045260246000fd5b6000612ceb82612705565b9150612cf683612705565b925082821015612d0957612d08612cb1565b5b828203905092915050565b6000612d1f82612705565b9150612d2a83612705565b92508261ffff03821115612d4157612d40612cb1565b5b828201905092915050565b6000612d5f612d5a84612655565b61263a565b905082815260208101848484011115612d7b57612d7a6125d5565b5b612d8684828561251d565b509392505050565b600082601f830112612da357612da26125d0565b5b8151612db3848260208601612d4c565b91505092915050565b600060208284031215612dd257612dd16125c6565b5b600082015167ffffffffffffffff811115612df057612def6125cb565b5b612dfc84828501612d8e565b91505092915050565b60008190508160005260206000209050919050565b60008154612e2781612abc565b612e318186612aed565b94506001821660008114612e4c5760018114612e5d57612e90565b60ff19831686528186019350612e90565b612e6685612e05565b60005b83811015612e8857815481890152600182019150602081019050612e69565b838801955050505b50505092915050565b6000612ea58284612e1a565b915081905092915050565b612eb98161282a565b8114612ec457600080fd5b50565b600081519050612ed681612eb0565b92915050565b600060208284031215612ef257612ef16125c6565b5b6000612f0084828501612ec7565b91505092915050565b612f1281612811565b82525050565b612f218161282a565b82525050565b60006080820190508181036000830152612f418187612561565b9050612f506020830186612f09565b612f5d6040830185612f09565b612f6a6060830184612f18565b9594505050505056fea2646970667358221220de7ae753fb150355075bbd9f2d1966ffbc3918ffcfbcf215016d53dfbf8ccc1f64736f6c634300080e0033",
  "immutableReferences": {},
  "source": "// SPDX-License-Identifier: MIT\n\npragma solidity^0.8.0;\n\nimport {Hub} from './Hub.sol';\nimport {ProfileStorage} from './storage/ProfileStorage.sol';\n\n\ncontract ShardingTable {\n    event NodeObjCreated(bytes nodeId, uint256 ask, uint256 stake, bytes32 nodeIdSha256);\n    event NodeRemoved(bytes nodeId);\n\n    struct Node {\n        address identity;\n        bytes id;\n        bytes prevNodeId;\n        bytes nextNodeId;\n    }\n\n    struct NodeInfo {\n        bytes id;\n        uint256 ask;\n        uint256 stake;\n        bytes32 idSha256;\n    }\n\n    Hub public hub;\n\n    bytes private emptyPointer;\n    bytes public head;\n    bytes public tail;\n    uint16 public nodesCount;\n\n    mapping(bytes => Node) nodes;\n    mapping(bytes => bytes32) nodeIdsSha256;\n\n    constructor(address hubAddress) {\n        require(hubAddress != address(0));\n        hub = Hub(hubAddress);\n\n        emptyPointer = \"\";\n        nodeIdsSha256[emptyPointer] = sha256(emptyPointer);\n        head = emptyPointer;\n        tail = emptyPointer;\n        nodesCount = 0;\n    }\n\n    function getShardingTable(bytes memory startingNodeId, uint16 nodesNumber)\n        public\n        view\n        returns (NodeInfo[] memory)\n    {\n        require(\n            !_equalIdHashes(nodes[startingNodeId].id, \"\") ||\n            _equalIdHashes(startingNodeId, emptyPointer)\n        );\n\n        NodeInfo[] memory nodesPage;\n\n        if (nodesCount == 0) {\n            return nodesPage;\n        }\n\n        nodesPage = new NodeInfo[](nodesNumber);\n\n        ProfileStorage profileStorageContract = ProfileStorage(hub.getContractAddress(\"ProfileStorage\"));\n\n        nodesPage[0] = NodeInfo(\n            startingNodeId,\n            profileStorageContract.getAsk(nodes[startingNodeId].identity),\n            profileStorageContract.getStake(nodes[startingNodeId].identity),\n            nodeIdsSha256[startingNodeId]\n        );\n\n        uint16 i = 1;\n        while (i < nodesNumber && !_equalIdHashes(nodes[nodesPage[i-1].id].nextNodeId, emptyPointer)) {\n            bytes memory nextNodeId = nodes[nodesPage[i-1].id].nextNodeId;\n\n            nodesPage[i] = NodeInfo(\n                nextNodeId,\n                profileStorageContract.getAsk(nodes[nextNodeId].identity),\n                profileStorageContract.getStake(nodes[nextNodeId].identity),\n                nodeIdsSha256[nextNodeId]\n            );\n            i += 1;\n        }\n        return nodesPage;\n    }\n\n    function getShardingTable()\n        public\n        view\n        returns (NodeInfo[] memory)\n    {\n        return getShardingTable(head, nodesCount);\n    }\n\n    function pushBack(address identity)\n        public\n    {\n        _createNodeObj(identity);\n    \n        ProfileStorage profileStorageContract = ProfileStorage(hub.getContractAddress(\"ProfileStorage\"));\n        bytes memory nodeId = profileStorageContract.getNodeId(identity);\n\n        if (!_equalIdHashes(tail, emptyPointer)) _link(tail, nodeId);\n        _setTail(nodeId);\n\n        if (_equalIdHashes(head, emptyPointer)) _setHead(nodeId);\n\n        nodesCount += 1;\n    }\n\n    function pushFront(address identity)\n        public\n    {\n        _createNodeObj(identity);\n\n        ProfileStorage profileStorageContract = ProfileStorage(hub.getContractAddress(\"ProfileStorage\"));\n        bytes memory nodeId = profileStorageContract.getNodeId(identity);\n\n        if (!_equalIdHashes(head, emptyPointer)) _link(nodeId, head);\n        _setHead(nodeId);\n\n        if (_equalIdHashes(tail, emptyPointer)) _setTail(nodeId);\n\n        nodesCount += 1;\n    }\n\n    function removeNode(address identity)\n        public\n    {\n        ProfileStorage profileStorageContract = ProfileStorage(hub.getContractAddress(\"ProfileStorage\"));\n        bytes memory nodeId = profileStorageContract.getNodeId(identity);\n\n        Node memory nodeToRemove = nodes[nodeId];\n\n        if (_equalIdHashes(head, nodeId) && _equalIdHashes(tail, nodeId)) {\n            _setHead(emptyPointer);\n            _setTail(emptyPointer);\n        }\n        else if (_equalIdHashes(head, nodeId)) {\n            _setHead(nodeToRemove.nextNodeId);\n            nodes[head].prevNodeId = emptyPointer;\n        }\n        else if (_equalIdHashes(tail, nodeId)) {\n            _setTail(nodeToRemove.prevNodeId);\n            nodes[tail].nextNodeId = emptyPointer;\n        }\n        else {\n            _link(nodeToRemove.prevNodeId, nodeToRemove.nextNodeId);\n        }\n\n        delete nodes[nodeId];\n\n        nodesCount -= 1;\n    \n        emit NodeRemoved(nodeId);\n    }\n\n    function _createNodeObj(address identity)\n        internal\n    {\n        ProfileStorage profileStorageContract = ProfileStorage(hub.getContractAddress(\"ProfileStorage\"));\n\n        bytes memory nodeId = profileStorageContract.getNodeId(identity);\n        bytes32 nodeIdSha256 = sha256(nodeId);\n\n        Node memory newNode = Node(\n            identity,\n            nodeId,\n            emptyPointer,\n            emptyPointer\n        );\n\n        nodes[nodeId] = newNode;\n        nodeIdsSha256[nodeId] = nodeIdSha256;\n\n        emit NodeObjCreated(\n            nodeId,\n            profileStorageContract.getAsk(identity),\n            profileStorageContract.getStake(identity),\n            nodeIdSha256\n        );\n    }\n\n    function _setHead(bytes memory nodeId)\n        internal\n    {\n        head = nodeId;\n    }\n\n    function _setTail(bytes memory nodeId)\n        internal\n    {\n        tail = nodeId;\n    }\n\n    function _link(bytes memory _leftNodeId, bytes memory _rightNodeId)\n        internal\n    {\n        nodes[_leftNodeId].nextNodeId = _rightNodeId;\n        nodes[_rightNodeId].prevNodeId = _leftNodeId;\n    }\n\n    function _equalIdHashes(bytes memory _firstId, bytes memory _secondId)\n        internal\n        view\n        returns (bool)\n    {\n        return nodeIdsSha256[_firstId] == nodeIdsSha256[_secondId];\n    }\n}\n",
  "sourcePath": "/Users/max/IdeaProjects/dkg-evm-module/contracts/ShardingTable.sol",
  "compiler": {
    "name": "solc",
    "version": "0.8.14+commit.80d49f37.Emscripten.clang"
  },
  "schemaVersion": "3.4.10",
  "updatedAt": "2022-10-28T13:06:36.686Z",
  "networkType": "ethereum",
  "devdoc": {
    "kind": "dev",
    "methods": {},
    "version": 1
  },
  "userdoc": {
    "kind": "user",
    "methods": {},
    "version": 1
  }
}