{
  "contractName": "StakingStorage",
  "abi": [
    {
      "inputs": [
        {
          "internalType": "address",
          "name": "hubAddress",
          "type": "address"
        }
      ],
      "stateMutability": "nonpayable",
      "type": "constructor"
    },
    {
      "inputs": [],
      "name": "hub",
      "outputs": [
        {
          "internalType": "contract Hub",
          "name": "",
          "type": "address"
        }
      ],
      "stateMutability": "view",
      "type": "function"
    },
    {
      "inputs": [
        {
          "internalType": "uint72",
          "name": "",
          "type": "uint72"
        }
      ],
      "name": "operatorFees",
      "outputs": [
        {
          "internalType": "uint96",
          "name": "",
          "type": "uint96"
        }
      ],
      "stateMutability": "view",
      "type": "function"
    },
    {
      "inputs": [],
      "name": "tokenContract",
      "outputs": [
        {
          "internalType": "contract IERC20",
          "name": "",
          "type": "address"
        }
      ],
      "stateMutability": "view",
      "type": "function"
    },
    {
      "inputs": [
        {
          "internalType": "uint72",
          "name": "",
          "type": "uint72"
        }
      ],
      "name": "totalStakes",
      "outputs": [
        {
          "internalType": "uint96",
          "name": "",
          "type": "uint96"
        }
      ],
      "stateMutability": "view",
      "type": "function"
    },
    {
      "inputs": [
        {
          "internalType": "uint72",
          "name": "",
          "type": "uint72"
        },
        {
          "internalType": "address",
          "name": "",
          "type": "address"
        }
      ],
      "name": "withdrawalRequests",
      "outputs": [
        {
          "internalType": "uint96",
          "name": "amount",
          "type": "uint96"
        },
        {
          "internalType": "uint256",
          "name": "timestamp",
          "type": "uint256"
        }
      ],
      "stateMutability": "view",
      "type": "function"
    },
    {
      "inputs": [],
      "name": "name",
      "outputs": [
        {
          "internalType": "string",
          "name": "",
          "type": "string"
        }
      ],
      "stateMutability": "pure",
      "type": "function"
    },
    {
      "inputs": [],
      "name": "version",
      "outputs": [
        {
          "internalType": "string",
          "name": "",
          "type": "string"
        }
      ],
      "stateMutability": "pure",
      "type": "function"
    },
    {
      "inputs": [
        {
          "internalType": "uint72",
          "name": "identityId",
          "type": "uint72"
        },
        {
          "internalType": "uint96",
          "name": "newTotalStake",
          "type": "uint96"
        }
      ],
      "name": "setTotalStake",
      "outputs": [],
      "stateMutability": "nonpayable",
      "type": "function"
    },
    {
      "inputs": [
        {
          "internalType": "uint72",
          "name": "identityId",
          "type": "uint72"
        },
        {
          "internalType": "uint96",
          "name": "operatorFee",
          "type": "uint96"
        }
      ],
      "name": "setOperatorFee",
      "outputs": [],
      "stateMutability": "nonpayable",
      "type": "function"
    },
    {
      "inputs": [
        {
          "internalType": "uint72",
          "name": "identityId",
          "type": "uint72"
        },
        {
          "internalType": "address",
          "name": "staker",
          "type": "address"
        },
        {
          "internalType": "uint96",
          "name": "amount",
          "type": "uint96"
        },
        {
          "internalType": "uint256",
          "name": "timestamp",
          "type": "uint256"
        }
      ],
      "name": "createWithdrawalRequest",
      "outputs": [],
      "stateMutability": "nonpayable",
      "type": "function"
    },
    {
      "inputs": [
        {
          "internalType": "uint72",
          "name": "identityId",
          "type": "uint72"
        },
        {
          "internalType": "address",
          "name": "staker",
          "type": "address"
        }
      ],
      "name": "deleteWithdrawalRequest",
      "outputs": [],
      "stateMutability": "nonpayable",
      "type": "function"
    },
    {
      "inputs": [
        {
          "internalType": "uint72",
          "name": "identityId",
          "type": "uint72"
        },
        {
          "internalType": "address",
          "name": "staker",
          "type": "address"
        }
      ],
      "name": "getWithdrawalRequestAmount",
      "outputs": [
        {
          "internalType": "uint96",
          "name": "",
          "type": "uint96"
        }
      ],
      "stateMutability": "view",
      "type": "function"
    },
    {
      "inputs": [
        {
          "internalType": "uint72",
          "name": "identityId",
          "type": "uint72"
        },
        {
          "internalType": "address",
          "name": "staker",
          "type": "address"
        }
      ],
      "name": "getWithdrawalRequestTimestamp",
      "outputs": [
        {
          "internalType": "uint256",
          "name": "",
          "type": "uint256"
        }
      ],
      "stateMutability": "view",
      "type": "function"
    },
    {
      "inputs": [
        {
          "internalType": "uint72",
          "name": "identityId",
          "type": "uint72"
        },
        {
          "internalType": "address",
          "name": "staker",
          "type": "address"
        }
      ],
      "name": "withdrawalRequestExists",
      "outputs": [
        {
          "internalType": "bool",
          "name": "",
          "type": "bool"
        }
      ],
      "stateMutability": "view",
      "type": "function"
    },
    {
      "inputs": [
        {
          "internalType": "address",
          "name": "receiver",
          "type": "address"
        },
        {
          "internalType": "uint96",
          "name": "stakeAmount",
          "type": "uint96"
        }
      ],
      "name": "transferStake",
      "outputs": [],
      "stateMutability": "nonpayable",
      "type": "function"
    }
  ],
  "bytecode": "0x608060405234801561001057600080fd5b50604051610a5d380380610a5d83398101604081905261002f916100f9565b6001600160a01b03811661004257600080fd5b600080546001600160a01b0319166001600160a01b038316908117909155604051630110ceef60e21b81526020600482015260056024820152642a37b5b2b760d91b60448201526304433bbc90606401602060405180830381865afa1580156100af573d6000803e3d6000fd5b505050506040513d601f19601f820116820180604052508101906100d391906100f9565b600180546001600160a01b0319166001600160a01b039290921691909117905550610129565b60006020828403121561010b57600080fd5b81516001600160a01b038116811461012257600080fd5b9392505050565b610925806101386000396000f3fe608060405234801561001057600080fd5b50600436106100f55760003560e01c806355a373d611610097578063ac37a2fb11610066578063ac37a2fb1461032a578063b63365ca1461037c578063dc99106f1461038f578063dedac1ae146103a257600080fd5b806355a373d6146102c65780635611f9a3146102d95780639d2b48ad146102ee578063a88021cb1461031757600080fd5b8063330eece2116100d3578063330eece2146101f5578063365a86fc1461021e5780633825b66d1461024957806354fd4d50146102a557600080fd5b806306fdde03146100fa5780632347e51714610136578063299d909414610198575b600080fd5b60408051808201909152600e81526d5374616b696e6753746f7261676560901b60208201525b60405161012d9190610720565b60405180910390f35b6101806101443660046107a2565b6001600160481b03821660009081526004602090815260408083206001600160a01b03851684529091529020546001600160601b031692915050565b6040516001600160601b03909116815260200161012d565b6101d66101a63660046107a2565b6004602090815260009283526040808420909152908252902080546001909101546001600160601b039091169082565b604080516001600160601b03909316835260208301919091520161012d565b6101806102033660046107d9565b6003602052600090815260409020546001600160601b031681565b600054610231906001600160a01b031681565b6040516001600160a01b03909116815260200161012d565b6102956102573660046107a2565b6001600160481b03821660009081526004602090815260408083206001600160a01b03851684529091529020546001600160601b0316151592915050565b604051901515815260200161012d565b6040805180820190915260058152640312e302e360dc1b6020820152610120565b600154610231906001600160a01b031681565b6102ec6102e7366004610812565b6103b5565b005b6101806102fc3660046107d9565b6002602052600090815260409020546001600160601b031681565b6102ec6103253660046107a2565b6103f6565b61036e6103383660046107a2565b6001600160481b03821660009081526004602090815260408083206001600160a01b038516845290915290206001015492915050565b60405190815260200161012d565b6102ec61038a366004610812565b610441565b6102ec61039d366004610845565b610482565b6102ec6103b0366004610892565b6104f1565b6103bd61057d565b6001600160481b0391909116600090815260026020526040902080546001600160601b0319166001600160601b03909216919091179055565b6103fe61057d565b6001600160481b0390911660009081526004602090815260408083206001600160a01b03909416835292905290812080546001600160601b031916815560010155565b61044961057d565b6001600160481b0391909116600090815260036020526040902080546001600160601b0319166001600160601b03909216919091179055565b61048a61057d565b6040805180820182526001600160601b03938416815260208082019384526001600160481b039096166000908152600487528281206001600160a01b039096168152949095529092209251835491166001600160601b031990911617825551600190910155565b6104f961063c565b60015460405163a9059cbb60e01b81526001600160a01b0384811660048301526001600160601b03841660248301529091169063a9059cbb906044016020604051808303816000875af1158015610554573d6000803e3d6000fd5b505050506040513d601f19601f8201168201806040525081019061057891906108b0565b505050565b600054604051631627905560e01b81523360048201526001600160a01b0390911690631627905590602401602060405180830381865afa1580156105c5573d6000803e3d6000fd5b505050506040513d601f19601f820116820180604052508101906105e991906108b0565b61063a5760405162461bcd60e51b815260206004820181905260248201527f466e2063616e206f6e6c792062652063616c6c6564206279207468652068756260448201526064015b60405180910390fd5b565b600054604051630110ceef60e21b81526020600482015260076024820152665374616b696e6760c81b60448201526001600160a01b03909116906304433bbc90606401602060405180830381865afa15801561069c573d6000803e3d6000fd5b505050506040513d601f19601f820116820180604052508101906106c091906108d2565b6001600160a01b0316336001600160a01b03161461063a5760405162461bcd60e51b815260206004820181905260248201527f466e2063616e206f6e6c792062652063616c6c6564206279205374616b696e676044820152606401610631565b600060208083528351808285015260005b8181101561074d57858101830151858201604001528201610731565b506000604082860101526040601f19601f8301168501019250505092915050565b80356001600160481b038116811461078557600080fd5b919050565b6001600160a01b038116811461079f57600080fd5b50565b600080604083850312156107b557600080fd5b6107be8361076e565b915060208301356107ce8161078a565b809150509250929050565b6000602082840312156107eb57600080fd5b6107f48261076e565b9392505050565b80356001600160601b038116811461078557600080fd5b6000806040838503121561082557600080fd5b61082e8361076e565b915061083c602084016107fb565b90509250929050565b6000806000806080858703121561085b57600080fd5b6108648561076e565b935060208501356108748161078a565b9250610882604086016107fb565b9396929550929360600135925050565b600080604083850312156108a557600080fd5b823561082e8161078a565b6000602082840312156108c257600080fd5b815180151581146107f457600080fd5b6000602082840312156108e457600080fd5b81516107f48161078a56fea26469706673582212203a34ef18b452765f926ef51bd231d22ab3ac892d8a5b5b6fd88f1094323b71ab64736f6c63430008100033",
  "immutableReferences": {},
  "source": "// SPDX-License-Identifier: MIT\n\npragma solidity ^0.8.4;\n\nimport { Hub } from \"../Hub.sol\";\nimport { Named } from \"../interface/Named.sol\";\nimport { Versioned } from \"../interface/Versioned.sol\";\nimport { IERC20 } from \"@openzeppelin/contracts/token/ERC20/IERC20.sol\";\n\ncontract StakingStorage is Named, Versioned {\n\n    string constant private _NAME = \"StakingStorage\";\n    string constant private _VERSION = \"1.0.0\";\n\n    struct WithdrawalRequest {\n        uint96 amount;\n        uint256 timestamp;\n    }\n\n    Hub public hub;\n    IERC20 public tokenContract;\n\n    // identityId => totalStake\n    mapping(uint72 => uint96) public totalStakes;\n\n    // identityId => operatorFee\n    mapping(uint72 => uint96) public operatorFees;\n\n    // identityId => withdrawalRequest\n    mapping(uint72 => mapping(address => WithdrawalRequest)) public withdrawalRequests;\n\n\n    constructor(address hubAddress) {\n        require(hubAddress != address(0));\n\n        hub = Hub(hubAddress);\n        tokenContract = IERC20(hub.getContractAddress(\"Token\"));\n    }\n\n    modifier onlyContracts() {\n        _checkHub();\n        _;\n    }\n\n    modifier onlyStakingContract() {\n        _checkStaking();\n        _;\n    }\n\n    function name() external pure virtual override returns (string memory) {\n        return _NAME;\n    }\n\n    function version() external pure virtual override returns (string memory) {\n        return _VERSION;\n    }\n\n    function setTotalStake(uint72 identityId, uint96 newTotalStake) external onlyContracts {\n        totalStakes[identityId] = newTotalStake;\n    }\n\n    function setOperatorFee(uint72 identityId, uint96 operatorFee) external onlyContracts {\n        operatorFees[identityId] = operatorFee;\n    }\n\n    function createWithdrawalRequest(uint72 identityId, address staker, uint96 amount, uint256 timestamp)\n        external\n        onlyContracts\n    {\n        withdrawalRequests[identityId][staker] = WithdrawalRequest({\n            amount: amount,\n            timestamp: timestamp\n        });\n    }\n\n    function deleteWithdrawalRequest(uint72 identityId, address staker) external onlyContracts {\n        delete withdrawalRequests[identityId][staker];\n    }\n\n    function getWithdrawalRequestAmount(uint72 identityId, address staker) external view returns (uint96) {\n        return withdrawalRequests[identityId][staker].amount;\n    }\n\n    function getWithdrawalRequestTimestamp(uint72 identityId, address staker) external view returns (uint256) {\n        return withdrawalRequests[identityId][staker].timestamp;\n    }\n\n    function withdrawalRequestExists(uint72 identityId, address staker) external view returns (bool) {\n        return withdrawalRequests[identityId][staker].amount != 0;\n    }\n\n    function transferStake(address receiver, uint96 stakeAmount) external onlyStakingContract {\n        tokenContract.transfer(receiver, stakeAmount);\n    }\n\n    function _checkHub() internal view virtual {\n        require(hub.isContract(msg.sender), \"Fn can only be called by the hub\");\n    }\n\n    function _checkStaking() internal view virtual {\n        require(msg.sender == hub.getContractAddress(\"Staking\"), \"Fn can only be called by Staking\");\n    }\n\n}\n",
  "sourcePath": "/Users/waving/Desktop/OriginTrail/dkg-evm-module/contracts/storage/StakingStorage.sol",
  "compiler": {
    "name": "solc",
    "version": "0.8.16+commit.07a7930e.Emscripten.clang"
  },
  "schemaVersion": "3.4.10",
  "updatedAt": "2022-12-06T11:50:01.305Z",
  "devdoc": {
    "kind": "dev",
    "methods": {},
    "version": 1
  },
  "userdoc": {
    "kind": "user",
    "methods": {},
    "version": 1
  }
}