{
  "contractName": "Staking",
  "abi": [
    {
      "inputs": [
        {
          "internalType": "address",
          "name": "hubAddress",
          "type": "address"
        }
      ],
      "stateMutability": "nonpayable",
      "type": "constructor"
    },
    {
      "anonymous": false,
      "inputs": [
        {
          "indexed": true,
          "internalType": "uint72",
          "name": "identityId",
          "type": "uint72"
        },
        {
          "indexed": false,
          "internalType": "uint96",
          "name": "rewardAmount",
          "type": "uint96"
        }
      ],
      "name": "RewardAdded",
      "type": "event"
    },
    {
      "anonymous": false,
      "inputs": [
        {
          "indexed": true,
          "internalType": "uint72",
          "name": "identityId",
          "type": "uint72"
        },
        {
          "indexed": true,
          "internalType": "address",
          "name": "staker",
          "type": "address"
        },
        {
          "indexed": false,
          "internalType": "uint96",
          "name": "newStakeAmount",
          "type": "uint96"
        }
      ],
      "name": "StakeIncreased",
      "type": "event"
    },
    {
      "anonymous": false,
      "inputs": [
        {
          "indexed": true,
          "internalType": "uint72",
          "name": "identityId",
          "type": "uint72"
        },
        {
          "indexed": true,
          "internalType": "address",
          "name": "staker",
          "type": "address"
        },
        {
          "indexed": false,
          "internalType": "uint96",
          "name": "withdrawnStakeAmount",
          "type": "uint96"
        }
      ],
      "name": "StakeWithdrawn",
      "type": "event"
    },
    {
      "inputs": [],
      "name": "hub",
      "outputs": [
        {
          "internalType": "contract Hub",
          "name": "",
          "type": "address"
        }
      ],
      "stateMutability": "view",
      "type": "function"
    },
    {
      "inputs": [],
      "name": "identityStorage",
      "outputs": [
        {
          "internalType": "contract IdentityStorage",
          "name": "",
          "type": "address"
        }
      ],
      "stateMutability": "view",
      "type": "function"
    },
    {
      "inputs": [],
      "name": "parametersStorage",
      "outputs": [
        {
          "internalType": "contract ParametersStorage",
          "name": "",
          "type": "address"
        }
      ],
      "stateMutability": "view",
      "type": "function"
    },
    {
      "inputs": [],
      "name": "profileStorage",
      "outputs": [
        {
          "internalType": "contract ProfileStorage",
          "name": "",
          "type": "address"
        }
      ],
      "stateMutability": "view",
      "type": "function"
    },
    {
      "inputs": [],
      "name": "serviceAgreementStorage",
      "outputs": [
        {
          "internalType": "contract ServiceAgreementStorageV1",
          "name": "",
          "type": "address"
        }
      ],
      "stateMutability": "view",
      "type": "function"
    },
    {
      "inputs": [],
      "name": "shardingTableContract",
      "outputs": [
        {
          "internalType": "contract ShardingTable",
          "name": "",
          "type": "address"
        }
      ],
      "stateMutability": "view",
      "type": "function"
    },
    {
      "inputs": [],
      "name": "shardingTableStorage",
      "outputs": [
        {
          "internalType": "contract ShardingTableStorage",
          "name": "",
          "type": "address"
        }
      ],
      "stateMutability": "view",
      "type": "function"
    },
    {
      "inputs": [],
      "name": "stakingStorage",
      "outputs": [
        {
          "internalType": "contract StakingStorage",
          "name": "",
          "type": "address"
        }
      ],
      "stateMutability": "view",
      "type": "function"
    },
    {
      "inputs": [],
      "name": "tokenContract",
      "outputs": [
        {
          "internalType": "contract IERC20",
          "name": "",
          "type": "address"
        }
      ],
      "stateMutability": "view",
      "type": "function"
    },
    {
      "inputs": [
        {
          "internalType": "uint72",
          "name": "identityId",
          "type": "uint72"
        },
        {
          "internalType": "uint96",
          "name": "tracAdded",
          "type": "uint96"
        }
      ],
      "name": "addStake",
      "outputs": [],
      "stateMutability": "nonpayable",
      "type": "function"
    },
    {
      "inputs": [
        {
          "internalType": "uint72",
          "name": "identityId",
          "type": "uint72"
        },
        {
          "internalType": "uint96",
          "name": "sharesToBurn",
          "type": "uint96"
        }
      ],
      "name": "withdrawStake",
      "outputs": [],
      "stateMutability": "nonpayable",
      "type": "function"
    },
    {
      "inputs": [
        {
          "internalType": "uint72",
          "name": "identityId",
          "type": "uint72"
        },
        {
          "internalType": "uint96",
          "name": "rewardAmount",
          "type": "uint96"
        }
      ],
      "name": "addReward",
      "outputs": [],
      "stateMutability": "nonpayable",
      "type": "function"
    },
    {
      "inputs": [
        {
          "internalType": "uint72",
          "name": "identityId",
          "type": "uint72"
        }
      ],
      "name": "slash",
      "outputs": [],
      "stateMutability": "nonpayable",
      "type": "function"
    },
    {
      "inputs": [
        {
          "internalType": "uint72",
          "name": "identityId",
          "type": "uint72"
        },
        {
          "internalType": "uint8",
          "name": "operatorFee",
          "type": "uint8"
        }
      ],
      "name": "setOperatorFee",
      "outputs": [],
      "stateMutability": "nonpayable",
      "type": "function"
    }
  ],
  "bytecode": "0x60806040523480156200001157600080fd5b5060405162002adc38038062002adc833981016040819052620000349162000593565b6001600160a01b0381166200004857600080fd5b600080546001600160a01b0319166001600160a01b038316908117909155604051630110ceef60e21b815260206004820152600d60248201526c5368617264696e675461626c6560981b60448201526304433bbc90606401602060405180830381865afa158015620000be573d6000803e3d6000fd5b505050506040513d601f19601f82011682018060405250810190620000e4919062000593565b600180546001600160a01b0319166001600160a01b03928316179055600054604051630110ceef60e21b815260206004820152600f60248201526e4964656e7469747953746f7261676560881b60448201529116906304433bbc90606401602060405180830381865afa15801562000160573d6000803e3d6000fd5b505050506040513d601f19601f8201168201806040525081019062000186919062000593565b600280546001600160a01b0319166001600160a01b03928316179055600054604051630110ceef60e21b8152602060048201526011602482015270506172616d657465727353746f7261676560781b60448201529116906304433bbc90606401602060405180830381865afa15801562000204573d6000803e3d6000fd5b505050506040513d601f19601f820116820180604052508101906200022a919062000593565b600380546001600160a01b0319166001600160a01b03928316179055600054604051630110ceef60e21b815260206004820152600e60248201526d50726f66696c6553746f7261676560901b60448201529116906304433bbc90606401602060405180830381865afa158015620002a5573d6000803e3d6000fd5b505050506040513d601f19601f82011682018060405250810190620002cb919062000593565b600480546001600160a01b039283166001600160a01b0319909116178155600054604051630110ceef60e21b81529216916304433bbc916200033091016020808252600e908201526d5374616b696e6753746f7261676560901b604082015260600190565b602060405180830381865afa1580156200034e573d6000803e3d6000fd5b505050506040513d601f19601f8201168201806040525081019062000374919062000593565b600580546001600160a01b0319166001600160a01b03928316179055600054604051630110ceef60e21b815260206004820152601760248201527f5365727669636541677265656d656e7453746f7261676500000000000000000060448201529116906304433bbc90606401602060405180830381865afa158015620003fe573d6000803e3d6000fd5b505050506040513d601f19601f8201168201806040525081019062000424919062000593565b600680546001600160a01b0319166001600160a01b03928316179055600054604051630110ceef60e21b815260206004820152601460248201527f5368617264696e675461626c6553746f7261676500000000000000000000000060448201529116906304433bbc90606401602060405180830381865afa158015620004ae573d6000803e3d6000fd5b505050506040513d601f19601f82011682018060405250810190620004d4919062000593565b600780546001600160a01b0319166001600160a01b03928316179055600054604051630110ceef60e21b81526020600482015260056024820152642a37b5b2b760d91b60448201529116906304433bbc90606401602060405180830381865afa15801562000546573d6000803e3d6000fd5b505050506040513d601f19601f820116820180604052508101906200056c919062000593565b600880546001600160a01b0319166001600160a01b039290921691909117905550620005c5565b600060208284031215620005a657600080fd5b81516001600160a01b0381168114620005be57600080fd5b9392505050565b61250780620005d56000396000f3fe608060405234801561001057600080fd5b50600436106100ea5760003560e01c8063a7b5dd591161008c578063c47408e311610066578063c47408e314610233578063d7ec3d7d14610246578063f11abfd814610259578063f42cb0381461027957600080fd5b8063a7b5dd59146101e0578063b518a00e146101f3578063b766db6a1461021357600080fd5b8063639a86a3116100c8578063639a86a31461016d5780636b838a5a1461018d578063823e2bc7146101ad57806397c59607146101cd57600080fd5b806323ca47d3146100ef578063365a86fc1461010457806355a373d61461014d575b600080fd5b6101026100fd36600461224d565b610299565b005b6000546101249073ffffffffffffffffffffffffffffffffffffffff1681565b60405173ffffffffffffffffffffffffffffffffffffffff909116815260200160405180910390f35b6008546101249073ffffffffffffffffffffffffffffffffffffffff1681565b6003546101249073ffffffffffffffffffffffffffffffffffffffff1681565b6001546101249073ffffffffffffffffffffffffffffffffffffffff1681565b6007546101249073ffffffffffffffffffffffffffffffffffffffff1681565b6101026101db366004612284565b610af5565b6101026101ee36600461224d565b610c09565b6005546101249073ffffffffffffffffffffffffffffffffffffffff1681565b6006546101249073ffffffffffffffffffffffffffffffffffffffff1681565b61010261024136600461224d565b611382565b6101026102543660046122b6565b611f90565b6002546101249073ffffffffffffffffffffffffffffffffffffffff1681565b6004546101249073ffffffffffffffffffffffffffffffffffffffff1681565b600480546040517fb8561a5400000000000000000000000000000000000000000000000000000000815268ffffffffffffffffff85169281019290925260009173ffffffffffffffffffffffffffffffffffffffff9091169063b8561a5490602401602060405180830381865afa158015610318573d6000803e3d6000fd5b505050506040513d601f19601f8201168201806040525081019061033c91906122d8565b6002546040517f9a53409c00000000000000000000000000000000000000000000000000000000815268ffffffffffffffffff8616600482015291925073ffffffffffffffffffffffffffffffffffffffff1690639a53409c90602401602060405180830381865afa1580156103b6573d6000803e3d6000fd5b505050506040513d601f19601f820116820180604052508101906103da919061230e565b610445576040517f08c379a000000000000000000000000000000000000000000000000000000000815260206004820152601660248201527f4964656e7469747920646f65736e27742065786973740000000000000000000060448201526064015b60405180910390fd5b600554600154600754604080517f18160ddd000000000000000000000000000000000000000000000000000000008152905173ffffffffffffffffffffffffffffffffffffffff948516949384169392831692600092908716916318160ddd916004808201926020929091908290030181865afa1580156104ca573d6000803e3d6000fd5b505050506040513d601f19601f820116820180604052508101906104ee9190612330565b6040517f9d2b48ad00000000000000000000000000000000000000000000000000000000815268ffffffffffffffffff891660048201526bffffffffffffffffffffffff88169073ffffffffffffffffffffffffffffffffffffffff871690639d2b48ad90602401602060405180830381865afa158015610573573d6000803e3d6000fd5b505050506040513d601f19601f820116820180604052508101906105979190612349565b6bffffffffffffffffffffffff166105af9190612395565b6105b99190612401565b6040517f79cc67900000000000000000000000000000000000000000000000000000000081523360048201526bffffffffffffffffffffffff8816602482015290915073ffffffffffffffffffffffffffffffffffffffff8616906379cc679090604401600060405180830381600087803b15801561063757600080fd5b505af115801561064b573d6000803e3d6000fd5b50506008546040517fa9059cbb0000000000000000000000000000000000000000000000000000000081523360048201526024810185905273ffffffffffffffffffffffffffffffffffffffff909116925063a9059cbb91506044016020604051808303816000875af11580156106c6573d6000803e3d6000fd5b505050506040513d601f19601f820116820180604052508101906106ea919061230e565b506040517f9d2b48ad00000000000000000000000000000000000000000000000000000000815268ffffffffffffffffff8816600482015273ffffffffffffffffffffffffffffffffffffffff851690635611f9a390899084908490639d2b48ad90602401602060405180830381865afa15801561076c573d6000803e3d6000fd5b505050506040513d601f19601f820116820180604052508101906107909190612349565b61079a9190612415565b6040517fffffffff0000000000000000000000000000000000000000000000000000000060e085901b16815268ffffffffffffffffff90921660048301526bffffffffffffffffffffffff166024820152604401600060405180830381600087803b15801561080857600080fd5b505af115801561081c573d6000803e3d6000fd5b50506040517f5d68479c00000000000000000000000000000000000000000000000000000000815268ffffffffffffffffff8a16600482015273ffffffffffffffffffffffffffffffffffffffff85169250635d68479c9150602401602060405180830381865afa158015610895573d6000803e3d6000fd5b505050506040513d601f19601f820116820180604052508101906108b9919061230e565b8015610a0c5750600360009054906101000a900473ffffffffffffffffffffffffffffffffffffffff1673ffffffffffffffffffffffffffffffffffffffff1663ec5ffac26040518163ffffffff1660e01b8152600401602060405180830381865afa15801561092d573d6000803e3d6000fd5b505050506040513d601f19601f820116820180604052508101906109519190612349565b6040517f9d2b48ad00000000000000000000000000000000000000000000000000000000815268ffffffffffffffffff891660048201526bffffffffffffffffffffffff919091169073ffffffffffffffffffffffffffffffffffffffff861690639d2b48ad90602401602060405180830381865afa1580156109d8573d6000803e3d6000fd5b505050506040513d601f19601f820116820180604052508101906109fc9190612349565b6bffffffffffffffffffffffff16105b15610a9c576040517faf9c1ec600000000000000000000000000000000000000000000000000000000815268ffffffffffffffffff8816600482015273ffffffffffffffffffffffffffffffffffffffff84169063af9c1ec690602401600060405180830381600087803b158015610a8357600080fd5b505af1158015610a97573d6000803e3d6000fd5b505050505b6040516bffffffffffffffffffffffff82168152339068ffffffffffffffffff8916907f63332afe085584b5ce1379946f6afc1e530cfa52904e2bc9b8d401da0b4f2c479060200160405180910390a350505050505050565b81610aff81611f9b565b60648260ff161115610b6d576040517f08c379a000000000000000000000000000000000000000000000000000000000815260206004820152601c60248201527f4f70657261746f7220666565206f7574206f66205b302c203130305d00000000604482015260640161043c565b6005546040517fb63365ca00000000000000000000000000000000000000000000000000000000815268ffffffffffffffffff8516600482015260ff8416602482015273ffffffffffffffffffffffffffffffffffffffff9091169063b63365ca90604401600060405180830381600087803b158015610bec57600080fd5b505af1158015610c00573d6000803e3d6000fd5b50505050505050565b610c1161211b565b6006546005546040517f330eece200000000000000000000000000000000000000000000000000000000815268ffffffffffffffffff8516600482015273ffffffffffffffffffffffffffffffffffffffff9283169290911690600090606490839063330eece290602401602060405180830381865afa158015610c99573d6000803e3d6000fd5b505050506040513d601f19601f82011682018060405250810190610cbd9190612349565b610cc79086612442565b610cd19190612476565b90506000610cdf8286612415565b90506bffffffffffffffffffffffff821615610ec857600480546040517fc12b4c7600000000000000000000000000000000000000000000000000000000815268ffffffffffffffffff89169281019290925273ffffffffffffffffffffffffffffffffffffffff1690819063d0ea3fee9089908690849063c12b4c7690602401602060405180830381865afa158015610d7d573d6000803e3d6000fd5b505050506040513d601f19601f82011682018060405250810190610da19190612349565b610dab91906124a1565b6040517fffffffff0000000000000000000000000000000000000000000000000000000060e085901b16815268ffffffffffffffffff90921660048301526bffffffffffffffffffffffff166024820152604401600060405180830381600087803b158015610e1957600080fd5b505af1158015610e2d573d6000803e3d6000fd5b50506040517fd2692b3100000000000000000000000000000000000000000000000000000000815273ffffffffffffffffffffffffffffffffffffffff84811660048301526bffffffffffffffffffffffff871660248301528816925063d2692b319150604401600060405180830381600087803b158015610eae57600080fd5b505af1158015610ec2573d6000803e3d6000fd5b50505050505b6bffffffffffffffffffffffff81161561132c576040517f9d2b48ad00000000000000000000000000000000000000000000000000000000815268ffffffffffffffffff8716600482015273ffffffffffffffffffffffffffffffffffffffff841690635611f9a390889084908490639d2b48ad90602401602060405180830381865afa158015610f5d573d6000803e3d6000fd5b505050506040513d601f19601f82011682018060405250810190610f819190612349565b610f8b91906124a1565b6040517fffffffff0000000000000000000000000000000000000000000000000000000060e085901b16815268ffffffffffffffffff90921660048301526bffffffffffffffffffffffff166024820152604401600060405180830381600087803b158015610ff957600080fd5b505af115801561100d573d6000803e3d6000fd5b50506040517fd2692b3100000000000000000000000000000000000000000000000000000000815273ffffffffffffffffffffffffffffffffffffffff86811660048301526bffffffffffffffffffffffff851660248301528716925063d2692b319150604401600060405180830381600087803b15801561108e57600080fd5b505af11580156110a2573d6000803e3d6000fd5b50506007546040517f5d68479c00000000000000000000000000000000000000000000000000000000815268ffffffffffffffffff8a16600482015273ffffffffffffffffffffffffffffffffffffffff9091169250635d68479c9150602401602060405180830381865afa15801561111f573d6000803e3d6000fd5b505050506040513d601f19601f82011682018060405250810190611143919061230e565b1580156112985750600360009054906101000a900473ffffffffffffffffffffffffffffffffffffffff1673ffffffffffffffffffffffffffffffffffffffff1663ec5ffac26040518163ffffffff1660e01b8152600401602060405180830381865afa1580156111b8573d6000803e3d6000fd5b505050506040513d601f19601f820116820180604052508101906111dc9190612349565b6040517f9d2b48ad00000000000000000000000000000000000000000000000000000000815268ffffffffffffffffff881660048201526bffffffffffffffffffffffff919091169073ffffffffffffffffffffffffffffffffffffffff851690639d2b48ad90602401602060405180830381865afa158015611263573d6000803e3d6000fd5b505050506040513d601f19601f820116820180604052508101906112879190612349565b6bffffffffffffffffffffffff1610155b1561132c576001546040517f415942b100000000000000000000000000000000000000000000000000000000815268ffffffffffffffffff8816600482015273ffffffffffffffffffffffffffffffffffffffff9091169063415942b190602401600060405180830381600087803b15801561131357600080fd5b505af1158015611327573d6000803e3d6000fd5b505050505b6040516bffffffffffffffffffffffff8616815268ffffffffffffffffff8716907f1d3ef2493f5d6859bddc4ede4853e0e23c68a0e84edd5bca7543f9abd5ed0df49060200160405180910390a2505050505050565b6005546003546001546007546008546040517fdd62ed3e00000000000000000000000000000000000000000000000000000000815233600482015230602482015273ffffffffffffffffffffffffffffffffffffffff95861695948516949384169392831692909116906bffffffffffffffffffffffff871690829063dd62ed3e90604401602060405180830381865afa158015611424573d6000803e3d6000fd5b505050506040513d601f19601f820116820180604052508101906114489190612330565b10156114d6576040517f08c379a000000000000000000000000000000000000000000000000000000000815260206004820152602a60248201527f4163636f756e7420646f6573206e6f7420686176652073756666696369656e7460448201527f20616c6c6f77616e636500000000000000000000000000000000000000000000606482015260840161043c565b8373ffffffffffffffffffffffffffffffffffffffff1663b5c6b4536040518163ffffffff1660e01b8152600401602060405180830381865afa158015611521573d6000803e3d6000fd5b505050506040513d601f19601f820116820180604052508101906115459190612349565b6040517f9d2b48ad00000000000000000000000000000000000000000000000000000000815268ffffffffffffffffff891660048201526bffffffffffffffffffffffff919091169073ffffffffffffffffffffffffffffffffffffffff871690639d2b48ad90602401602060405180830381865afa1580156115cc573d6000803e3d6000fd5b505050506040513d601f19601f820116820180604052508101906115f09190612349565b6115fa90886124a1565b6bffffffffffffffffffffffff161115611670576040517f08c379a000000000000000000000000000000000000000000000000000000000815260206004820152601b60248201527f457863656564656420746865206d6178696d756d207374616b65210000000000604482015260640161043c565b8373ffffffffffffffffffffffffffffffffffffffff166354b8c6016040518163ffffffff1660e01b8152600401602060405180830381865afa1580156116bb573d6000803e3d6000fd5b505050506040513d601f19601f820116820180604052508101906116df919061230e565b8061178257506002546040517f9a53409c00000000000000000000000000000000000000000000000000000000815268ffffffffffffffffff8916600482015273ffffffffffffffffffffffffffffffffffffffff90911690639a53409c90602401602060405180830381865afa15801561175e573d6000803e3d6000fd5b505050506040513d601f19601f82011682018060405250810190611782919061230e565b6117e8576040517f08c379a000000000000000000000000000000000000000000000000000000000815260206004820152601f60248201527f4e6f206964656e746974792f64656c65676174696f6e2064697361626c656400604482015260640161043c565b600480546040517fb8561a5400000000000000000000000000000000000000000000000000000000815268ffffffffffffffffff8a169281019290925260009173ffffffffffffffffffffffffffffffffffffffff9091169063b8561a5490602401602060405180830381865afa158015611867573d6000803e3d6000fd5b505050506040513d601f19601f8201168201806040525081019061188b91906122d8565b905060008173ffffffffffffffffffffffffffffffffffffffff166318160ddd6040518163ffffffff1660e01b8152600401602060405180830381865afa1580156118da573d6000803e3d6000fd5b505050506040513d601f19601f820116820180604052508101906118fe9190612330565b60000361191a57506bffffffffffffffffffffffff8716611a55565b6040517f9d2b48ad00000000000000000000000000000000000000000000000000000000815268ffffffffffffffffff8a16600482015273ffffffffffffffffffffffffffffffffffffffff881690639d2b48ad90602401602060405180830381865afa15801561198f573d6000803e3d6000fd5b505050506040513d601f19601f820116820180604052508101906119b39190612349565b6bffffffffffffffffffffffff168273ffffffffffffffffffffffffffffffffffffffff166318160ddd6040518163ffffffff1660e01b8152600401602060405180830381865afa158015611a0c573d6000803e3d6000fd5b505050506040513d601f19601f82011682018060405250810190611a309190612330565b611a48906bffffffffffffffffffffffff8b16612395565b611a529190612401565b90505b6040517f40c10f190000000000000000000000000000000000000000000000000000000081523360048201526024810182905273ffffffffffffffffffffffffffffffffffffffff8316906340c10f1990604401600060405180830381600087803b158015611ac357600080fd5b505af1158015611ad7573d6000803e3d6000fd5b50506040517fa9059cbb00000000000000000000000000000000000000000000000000000000815273ffffffffffffffffffffffffffffffffffffffff8a811660048301526bffffffffffffffffffffffff8c1660248301528616925063a9059cbb91506044016020604051808303816000875af1158015611b5d573d6000803e3d6000fd5b505050506040513d601f19601f82011682018060405250810190611b81919061230e565b506040517f9d2b48ad00000000000000000000000000000000000000000000000000000000815268ffffffffffffffffff8a16600482015273ffffffffffffffffffffffffffffffffffffffff881690635611f9a3908b908b908490639d2b48ad90602401602060405180830381865afa158015611c03573d6000803e3d6000fd5b505050506040513d601f19601f82011682018060405250810190611c279190612349565b611c3191906124a1565b6040517fffffffff0000000000000000000000000000000000000000000000000000000060e085901b16815268ffffffffffffffffff90921660048301526bffffffffffffffffffffffff166024820152604401600060405180830381600087803b158015611c9f57600080fd5b505af1158015611cb3573d6000803e3d6000fd5b50506040517f5d68479c00000000000000000000000000000000000000000000000000000000815268ffffffffffffffffff8c16600482015273ffffffffffffffffffffffffffffffffffffffff87169250635d68479c9150602401602060405180830381865afa158015611d2c573d6000803e3d6000fd5b505050506040513d601f19601f82011682018060405250810190611d50919061230e565b158015611ea55750600360009054906101000a900473ffffffffffffffffffffffffffffffffffffffff1673ffffffffffffffffffffffffffffffffffffffff1663ec5ffac26040518163ffffffff1660e01b8152600401602060405180830381865afa158015611dc5573d6000803e3d6000fd5b505050506040513d601f19601f82011682018060405250810190611de99190612349565b6040517f9d2b48ad00000000000000000000000000000000000000000000000000000000815268ffffffffffffffffff8b1660048201526bffffffffffffffffffffffff919091169073ffffffffffffffffffffffffffffffffffffffff891690639d2b48ad90602401602060405180830381865afa158015611e70573d6000803e3d6000fd5b505050506040513d601f19601f82011682018060405250810190611e949190612349565b6bffffffffffffffffffffffff1610155b15611f35576040517f415942b100000000000000000000000000000000000000000000000000000000815268ffffffffffffffffff8a16600482015273ffffffffffffffffffffffffffffffffffffffff86169063415942b190602401600060405180830381600087803b158015611f1c57600080fd5b505af1158015611f30573d6000803e3d6000fd5b505050505b6040516bffffffffffffffffffffffff89168152339068ffffffffffffffffff8b16907fb7283b612ad83954735b1230d77b4c1cd6c5b5361fa8ab2bfda2e9b7aa3695e59060200160405180910390a3505050505050505050565b611f9861211b565b50565b6002546040517fffffffffffffffffffffffffffffffffffffffff0000000000000000000000003360601b16602082015273ffffffffffffffffffffffffffffffffffffffff909116906335e4fb7a908390603401604080517fffffffffffffffffffffffffffffffffffffffffffffffffffffffffffffffe08184030181529082905280516020909101207fffffffff0000000000000000000000000000000000000000000000000000000060e085901b16825268ffffffffffffffffff9092166004820152602481019190915260016044820152606401602060405180830381865afa158015612091573d6000803e3d6000fd5b505050506040513d601f19601f820116820180604052508101906120b5919061230e565b611f98576040517f08c379a000000000000000000000000000000000000000000000000000000000815260206004820152600e60248201527f41646d696e2066756e6374696f6e000000000000000000000000000000000000604482015260640161043c565b6000546040517f1627905500000000000000000000000000000000000000000000000000000000815233600482015273ffffffffffffffffffffffffffffffffffffffff90911690631627905590602401602060405180830381865afa158015612189573d6000803e3d6000fd5b505050506040513d601f19601f820116820180604052508101906121ad919061230e565b612213576040517f08c379a000000000000000000000000000000000000000000000000000000000815260206004820181905260248201527f466e2063616e206f6e6c792062652063616c6c65642062792074686520687562604482015260640161043c565b565b803568ffffffffffffffffff8116811461222e57600080fd5b919050565b6bffffffffffffffffffffffff81168114611f9857600080fd5b6000806040838503121561226057600080fd5b61226983612215565b9150602083013561227981612233565b809150509250929050565b6000806040838503121561229757600080fd5b6122a083612215565b9150602083013560ff8116811461227957600080fd5b6000602082840312156122c857600080fd5b6122d182612215565b9392505050565b6000602082840312156122ea57600080fd5b815173ffffffffffffffffffffffffffffffffffffffff811681146122d157600080fd5b60006020828403121561232057600080fd5b815180151581146122d157600080fd5b60006020828403121561234257600080fd5b5051919050565b60006020828403121561235b57600080fd5b81516122d181612233565b7f4e487b7100000000000000000000000000000000000000000000000000000000600052601160045260246000fd5b6000817fffffffffffffffffffffffffffffffffffffffffffffffffffffffffffffffff04831182151516156123cd576123cd612366565b500290565b7f4e487b7100000000000000000000000000000000000000000000000000000000600052601260045260246000fd5b600082612410576124106123d2565b500490565b60006bffffffffffffffffffffffff8381169083168181101561243a5761243a612366565b039392505050565b60006bffffffffffffffffffffffff8083168185168183048111821515161561246d5761246d612366565b02949350505050565b60006bffffffffffffffffffffffff80841680612495576124956123d2565b92169190910492915050565b60006bffffffffffffffffffffffff8083168185168083038211156124c8576124c8612366565b0194935050505056fea26469706673582212200e8f09e1d0cd9e4985fdd4df0146cfd310160d2a04d83444985cde1893ce512764736f6c634300080e0033",
  "immutableReferences": {},
  "source": "// SPDX-License-Identifier: MIT\n\npragma solidity ^0.8.0;\n\nimport { Hub } from \"./Hub.sol\";\nimport { ShardingTable } from \"./ShardingTable.sol\";\nimport { Shares } from \"./Shares.sol\";\nimport { IdentityStorage } from \"./storage/IdentityStorage.sol\";\nimport { ParametersStorage } from \"./storage/ParametersStorage.sol\";\nimport { ProfileStorage } from \"./storage/ProfileStorage.sol\";\nimport { ServiceAgreementStorageV1 } from \"./storage/ServiceAgreementStorageV1.sol\";\nimport { ShardingTableStorage } from \"./storage/ShardingTableStorage.sol\";\nimport { StakingStorage } from \"./storage/StakingStorage.sol\";\nimport { ADMIN_KEY } from \"./constants/IdentityConstants.sol\";\nimport { IERC20 } from \"@openzeppelin/contracts/token/ERC20/IERC20.sol\";\n\ncontract Staking {\n\n    event StakeIncreased(\n        uint72 indexed identityId,\n        address indexed staker,\n        uint96 newStakeAmount\n    );\n    event StakeWithdrawn(\n        uint72 indexed identityId,\n        address indexed staker,\n        uint96 withdrawnStakeAmount\n    );\n    event RewardAdded(\n        uint72 indexed identityId,\n        uint96 rewardAmount\n    );\n\n    Hub public hub;\n    ShardingTable public shardingTableContract;\n    IdentityStorage public identityStorage;\n    ParametersStorage public parametersStorage;\n    ProfileStorage public profileStorage;\n    StakingStorage public stakingStorage;\n    ServiceAgreementStorageV1 public serviceAgreementStorage;\n    ShardingTableStorage public shardingTableStorage;\n    IERC20 public tokenContract;\n\n    constructor(address hubAddress) {\n        require(hubAddress != address(0));\n\n        hub = Hub(hubAddress);\n        shardingTableContract = ShardingTable(hub.getContractAddress(\"ShardingTable\"));\n        identityStorage = IdentityStorage(hub.getContractAddress(\"IdentityStorage\"));\n        parametersStorage = ParametersStorage(hub.getContractAddress(\"ParametersStorage\"));\n        profileStorage = ProfileStorage(hub.getContractAddress(\"ProfileStorage\"));\n        stakingStorage = StakingStorage(hub.getContractAddress(\"StakingStorage\"));\n        serviceAgreementStorage = ServiceAgreementStorageV1(hub.getContractAddress(\"ServiceAgreementStorage\"));\n        shardingTableStorage = ShardingTableStorage(hub.getContractAddress(\"ShardingTableStorage\"));\n        tokenContract = IERC20(hub.getContractAddress(\"Token\"));\n    }\n\n    modifier onlyContracts() {\n        _checkHub();\n        _;\n    }\n\n    modifier onlyAdmin(uint72 identityId) {\n        _checkAdmin(identityId);\n        _;\n    }\n\n    function addStake(uint72 identityId, uint96 tracAdded) external {\n        StakingStorage ss = stakingStorage;\n        ParametersStorage ps = parametersStorage;\n        ShardingTable stc = shardingTableContract;\n        ShardingTableStorage sts = shardingTableStorage;\n        IERC20 tknc = tokenContract;\n\n        require(\n            tknc.allowance(msg.sender, address(this)) >= tracAdded,\n            \"Account does not have sufficient allowance\"\n        );\n        require(tracAdded + ss.totalStakes(identityId) <= ps.maximumStake(), \"Exceeded the maximum stake!\");\n        require(\n            ps.delegationEnabled() || identityStorage.identityExists(identityId),\n            \"No identity/delegation disabled\"\n        );\n\n        Shares sharesContract = Shares(profileStorage.getSharesContractAddress(identityId));\n\n        uint256 sharesMinted;\n        if(sharesContract.totalSupply() == 0) {\n            sharesMinted = tracAdded;\n        } else {\n            sharesMinted = (\n                tracAdded * sharesContract.totalSupply() / ss.totalStakes(identityId)\n            );\n        }\n        sharesContract.mint(msg.sender, sharesMinted);\n\n        tknc.transfer(address(ss), tracAdded);\n\n        ss.setTotalStake(identityId, ss.totalStakes(identityId) + tracAdded);\n\n        if (!sts.nodeExists(identityId) && ss.totalStakes(identityId) >= parametersStorage.minimumStake()) {\n            stc.pushBack(identityId);\n        }\n\n        emit StakeIncreased(identityId, msg.sender, tracAdded);\n    }\n\n    function withdrawStake(uint72 identityId, uint96 sharesToBurn) external {\n        Shares sharesContract = Shares(profileStorage.getSharesContractAddress(identityId));\n\n        require(identityStorage.identityExists(identityId), \"Identity doesn't exist\");\n\n        StakingStorage ss = stakingStorage;\n        ShardingTable stc = shardingTableContract;\n        ShardingTableStorage sts = shardingTableStorage;\n\n        // TODO: potential optimization of types\n        uint256 tokensWithdrawalAmount = (\n            uint256(ss.totalStakes(identityId)) * sharesToBurn / sharesContract.totalSupply()\n        );\n        sharesContract.burnFrom(msg.sender, sharesToBurn);\n\n        // TODO: when slashing starts, introduce delay\n\n        tokenContract.transfer(msg.sender, tokensWithdrawalAmount);\n\n        ss.setTotalStake(identityId, ss.totalStakes(identityId) - uint96(tokensWithdrawalAmount));\n\n        if (sts.nodeExists(identityId) && ss.totalStakes(identityId) < parametersStorage.minimumStake()) {\n            stc.removeNode(identityId);\n        }\n\n        emit StakeWithdrawn(identityId, msg.sender, uint96(tokensWithdrawalAmount));\n    }\n\n    function addReward(uint72 identityId, uint96 rewardAmount) external onlyContracts {\n        ServiceAgreementStorageV1 sas = serviceAgreementStorage;\n        StakingStorage ss = stakingStorage;\n\n        uint96 operatorFee = rewardAmount * ss.operatorFees(identityId) / 100;\n        uint96 delegatorsReward = rewardAmount - operatorFee;\n\n        if(operatorFee != 0) {\n            ProfileStorage ps = profileStorage;\n            ps.setAccumulatedOperatorFee(identityId, ps.getAccumulatedOperatorFee(identityId) + operatorFee);\n            sas.transferReward(address(ps), operatorFee);\n        }\n\n        if(delegatorsReward != 0) {\n            ss.setTotalStake(identityId, ss.totalStakes(identityId) + delegatorsReward);\n            sas.transferReward(address(ss), delegatorsReward);\n\n            if (\n                !shardingTableStorage.nodeExists(identityId) &&\n                ss.totalStakes(identityId) >= parametersStorage.minimumStake()\n            ) {\n                shardingTableContract.pushBack(identityId);\n            }\n        }\n\n        emit RewardAdded(identityId, rewardAmount);\n    }\n\n    function slash(uint72 identityId) external onlyContracts {\n        // TBD\n    }\n\n    function setOperatorFee(uint72 identityId, uint8 operatorFee) external onlyAdmin(identityId) {\n        require(operatorFee <= 100, \"Operator fee out of [0, 100]\");\n        stakingStorage.setOperatorFee(identityId, operatorFee);\n    }\n\n    function _checkHub() internal view virtual {\n        require(hub.isContract(msg.sender), \"Fn can only be called by the hub\");\n    }\n\n    function _checkAdmin(uint72 identityId) internal view virtual {\n        require(\n            identityStorage.keyHasPurpose(identityId, keccak256(abi.encodePacked(msg.sender)), ADMIN_KEY),\n            \"Admin function\"\n        );\n    }\n\n}\n",
  "sourcePath": "/Users/waving/Desktop/OriginTrail/dkg-evm-module/contracts/Staking.sol",
  "compiler": {
    "name": "solc",
    "version": "0.8.14+commit.80d49f37.Emscripten.clang"
  },
  "schemaVersion": "3.4.10",
  "updatedAt": "2022-12-02T10:25:44.643Z",
  "devdoc": {
    "kind": "dev",
    "methods": {},
    "version": 1
  },
  "userdoc": {
    "kind": "user",
    "methods": {},
    "version": 1
  }
}