{
  "contractName": "StakingStorage",
  "abi": [
    {
      "inputs": [
        {
          "internalType": "address",
          "name": "hubAddress",
          "type": "address"
        }
      ],
      "stateMutability": "nonpayable",
      "type": "constructor"
    },
    {
      "anonymous": false,
      "inputs": [
        {
          "indexed": true,
          "internalType": "address",
          "name": "custodian",
          "type": "address"
        },
        {
          "indexed": false,
          "internalType": "uint256",
          "name": "amount",
          "type": "uint256"
        }
      ],
      "name": "MisplacedOTPWithdrawn",
      "type": "event"
    },
    {
      "anonymous": false,
      "inputs": [
        {
          "indexed": true,
          "internalType": "address",
          "name": "custodian",
          "type": "address"
        },
        {
          "indexed": false,
          "internalType": "address",
          "name": "tokenContract",
          "type": "address"
        },
        {
          "indexed": false,
          "internalType": "uint256",
          "name": "amount",
          "type": "uint256"
        }
      ],
      "name": "MisplacedTokensWithdrawn",
      "type": "event"
    },
    {
      "anonymous": false,
      "inputs": [
        {
          "indexed": true,
          "internalType": "address",
          "name": "custodian",
          "type": "address"
        },
        {
          "indexed": false,
          "internalType": "uint256",
          "name": "amount",
          "type": "uint256"
        }
      ],
      "name": "TokenTransferred",
      "type": "event"
    },
    {
      "inputs": [],
      "name": "hub",
      "outputs": [
        {
          "internalType": "contract Hub",
          "name": "",
          "type": "address"
        }
      ],
      "stateMutability": "view",
      "type": "function"
    },
    {
      "inputs": [],
      "name": "initialize",
      "outputs": [],
      "stateMutability": "nonpayable",
      "type": "function"
    },
    {
      "inputs": [
        {
          "internalType": "uint72",
          "name": "",
          "type": "uint72"
        }
      ],
      "name": "operatorFees",
      "outputs": [
        {
          "internalType": "uint96",
          "name": "",
          "type": "uint96"
        }
      ],
      "stateMutability": "view",
      "type": "function"
    },
    {
      "inputs": [],
      "name": "tokenContract",
      "outputs": [
        {
          "internalType": "contract IERC20",
          "name": "",
          "type": "address"
        }
      ],
      "stateMutability": "view",
      "type": "function"
    },
    {
      "inputs": [
        {
          "internalType": "uint72",
          "name": "",
          "type": "uint72"
        }
      ],
      "name": "totalStakes",
      "outputs": [
        {
          "internalType": "uint96",
          "name": "",
          "type": "uint96"
        }
      ],
      "stateMutability": "view",
      "type": "function"
    },
    {
      "inputs": [
        {
          "internalType": "address payable",
          "name": "custodian",
          "type": "address"
        }
      ],
      "name": "transferTokens",
      "outputs": [],
      "stateMutability": "nonpayable",
      "type": "function"
    },
    {
      "inputs": [],
      "name": "withdrawMisplacedOTP",
      "outputs": [],
      "stateMutability": "nonpayable",
      "type": "function"
    },
    {
      "inputs": [
        {
          "internalType": "address",
          "name": "tokenContractAddress",
          "type": "address"
        }
      ],
      "name": "withdrawMisplacedTokens",
      "outputs": [],
      "stateMutability": "nonpayable",
      "type": "function"
    },
    {
      "inputs": [
        {
          "internalType": "uint72",
          "name": "",
          "type": "uint72"
        },
        {
          "internalType": "address",
          "name": "",
          "type": "address"
        }
      ],
      "name": "withdrawalRequests",
      "outputs": [
        {
          "internalType": "uint96",
          "name": "amount",
          "type": "uint96"
        },
        {
          "internalType": "uint256",
          "name": "timestamp",
          "type": "uint256"
        }
      ],
      "stateMutability": "view",
      "type": "function"
    },
    {
      "inputs": [],
      "name": "name",
      "outputs": [
        {
          "internalType": "string",
          "name": "",
          "type": "string"
        }
      ],
      "stateMutability": "pure",
      "type": "function"
    },
    {
      "inputs": [],
      "name": "version",
      "outputs": [
        {
          "internalType": "string",
          "name": "",
          "type": "string"
        }
      ],
      "stateMutability": "pure",
      "type": "function"
    },
    {
      "inputs": [
        {
          "internalType": "uint72",
          "name": "identityId",
          "type": "uint72"
        },
        {
          "internalType": "uint96",
          "name": "newTotalStake",
          "type": "uint96"
        }
      ],
      "name": "setTotalStake",
      "outputs": [],
      "stateMutability": "nonpayable",
      "type": "function"
    },
    {
      "inputs": [
        {
          "internalType": "uint72",
          "name": "identityId",
          "type": "uint72"
        },
        {
          "internalType": "uint96",
          "name": "operatorFee",
          "type": "uint96"
        }
      ],
      "name": "setOperatorFee",
      "outputs": [],
      "stateMutability": "nonpayable",
      "type": "function"
    },
    {
      "inputs": [
        {
          "internalType": "uint72",
          "name": "identityId",
          "type": "uint72"
        },
        {
          "internalType": "address",
          "name": "staker",
          "type": "address"
        },
        {
          "internalType": "uint96",
          "name": "amount",
          "type": "uint96"
        },
        {
          "internalType": "uint256",
          "name": "timestamp",
          "type": "uint256"
        }
      ],
      "name": "createWithdrawalRequest",
      "outputs": [],
      "stateMutability": "nonpayable",
      "type": "function"
    },
    {
      "inputs": [
        {
          "internalType": "uint72",
          "name": "identityId",
          "type": "uint72"
        },
        {
          "internalType": "address",
          "name": "staker",
          "type": "address"
        }
      ],
      "name": "deleteWithdrawalRequest",
      "outputs": [],
      "stateMutability": "nonpayable",
      "type": "function"
    },
    {
      "inputs": [
        {
          "internalType": "uint72",
          "name": "identityId",
          "type": "uint72"
        },
        {
          "internalType": "address",
          "name": "staker",
          "type": "address"
        }
      ],
      "name": "getWithdrawalRequestAmount",
      "outputs": [
        {
          "internalType": "uint96",
          "name": "",
          "type": "uint96"
        }
      ],
      "stateMutability": "view",
      "type": "function"
    },
    {
      "inputs": [
        {
          "internalType": "uint72",
          "name": "identityId",
          "type": "uint72"
        },
        {
          "internalType": "address",
          "name": "staker",
          "type": "address"
        }
      ],
      "name": "getWithdrawalRequestTimestamp",
      "outputs": [
        {
          "internalType": "uint256",
          "name": "",
          "type": "uint256"
        }
      ],
      "stateMutability": "view",
      "type": "function"
    },
    {
      "inputs": [
        {
          "internalType": "uint72",
          "name": "identityId",
          "type": "uint72"
        },
        {
          "internalType": "address",
          "name": "staker",
          "type": "address"
        }
      ],
      "name": "withdrawalRequestExists",
      "outputs": [
        {
          "internalType": "bool",
          "name": "",
          "type": "bool"
        }
      ],
      "stateMutability": "view",
      "type": "function"
    },
    {
      "inputs": [
        {
          "internalType": "address",
          "name": "receiver",
          "type": "address"
        },
        {
          "internalType": "uint96",
          "name": "stakeAmount",
          "type": "uint96"
        }
      ],
      "name": "transferStake",
      "outputs": [],
      "stateMutability": "nonpayable",
      "type": "function"
    }
  ],
  "bytecode": "0x60806040523480156200001157600080fd5b506040516200143138038062001431833981016040819052620000349162000206565b806001600160a01b0381166200004957600080fd5b600080546001600160a01b0319166001600160a01b0383161790556200006e62000076565b505062000238565b6200008062000127565b600054604051630110ceef60e21b81526020600482015260056024820152642a37b5b2b760d91b60448201526001600160a01b03909116906304433bbc90606401602060405180830381865afa158015620000df573d6000803e3d6000fd5b505050506040513d601f19601f8201168201806040525081019062000105919062000206565b600180546001600160a01b0319166001600160a01b0392909216919091179055565b60008054906101000a90046001600160a01b03166001600160a01b0316638da5cb5b6040518163ffffffff1660e01b8152600401602060405180830381865afa15801562000179573d6000803e3d6000fd5b505050506040513d601f19601f820116820180604052508101906200019f919062000206565b6001600160a01b0316336001600160a01b031614620002045760405162461bcd60e51b815260206004820181905260248201527f466e2063616e206f6e6c79206265207573656420627920687562206f776e6572604482015260640160405180910390fd5b565b6000602082840312156200021957600080fd5b81516001600160a01b03811681146200023157600080fd5b9392505050565b6111e980620002486000396000f3fe608060405234801561001057600080fd5b50600436106101215760003560e01c80635611f9a3116100ad578063a88021cb11610071578063a88021cb14610379578063ac37a2fb1461038c578063b63365ca146103de578063dc99106f146103f1578063dedac1ae1461040457600080fd5b80635611f9a31461031a5780636ce1510e1461032d5780638129fc1c146103355780639d2b48ad1461033d5780639d7937b21461036657600080fd5b8063330eece2116100f4578063330eece214610236578063365a86fc1461025f5780633825b66d1461028a57806354fd4d50146102e657806355a373d61461030757600080fd5b806306fdde03146101265780630c89a0df146101625780632347e51714610177578063299d9094146101d9575b600080fd5b60408051808201909152600e81526d5374616b696e6753746f7261676560901b60208201525b6040516101599190610ec8565b60405180910390f35b610175610170366004610f2e565b610417565b005b6101c1610185366004610f6e565b6001600160481b03821660009081526004602090815260408083206001600160a01b03851684529091529020546001600160601b031692915050565b6040516001600160601b039091168152602001610159565b6102176101e7366004610f6e565b6004602090815260009283526040808420909152908252902080546001909101546001600160601b039091169082565b604080516001600160601b039093168352602083019190915201610159565b6101c1610244366004610fa5565b6003602052600090815260409020546001600160601b031681565b600054610272906001600160a01b031681565b6040516001600160a01b039091168152602001610159565b6102d6610298366004610f6e565b6001600160481b03821660009081526004602090815260408083206001600160a01b03851684529091529020546001600160601b0316151592915050565b6040519015158152602001610159565b6040805180820190915260058152640312e302e360dc1b602082015261014c565b600154610272906001600160a01b031681565b610175610328366004610fd7565b6107e5565b610175610826565b6101756108fa565b6101c161034b366004610fa5565b6002602052600090815260409020546001600160601b031681565b610175610374366004610f2e565b6109a6565b610175610387366004610f6e565b610bb2565b6103d061039a366004610f6e565b6001600160481b03821660009081526004602090815260408083206001600160a01b038516845290915290206001015492915050565b604051908152602001610159565b6101756103ec366004610fd7565b610bfd565b6101756103ff36600461100a565b610c3e565b610175610412366004611057565b610cad565b61041f610d39565b6001600160a01b0381166104855760405162461bcd60e51b815260206004820152602260248201527f437573746f6469616e2063616e6e6f742062652061207a65726f206164647265604482015261737360f01b60648201526084015b60405180910390fd5b803b806104fa5760405162461bcd60e51b815260206004820152603b60248201527f43616e6e6f74207472616e7366657220746f6b656e7320746f20637573746f6460448201527f69616e2074686174206973206e6f74206120636f6e7472616374210000000000606482015260840161047c565b60008290506000816001600160a01b031663a0e67e2b6040518163ffffffff1660e01b8152600401600060405180830381865afa92505050801561056057506040513d6000823e601f3d908101601f1916820160405261055d9190810190611096565b60015b156105e2576001915060008151116105e05760405162461bcd60e51b815260206004820152603b60248201527f43616e6e6f74207472616e7366657220746f6b656e7320746f20637573746f6460448201527f69616e20776974686f7574206f776e65727320646566696e6564210000000000606482015260840161047c565b505b806106555760405162461bcd60e51b815260206004820152603f60248201527f43616e6e6f74207472616e7366657220746f6b656e7320746f20637573746f6460448201527f69616e20776974686f7574206765744f776e6572732066756e6374696f6e2100606482015260840161047c565b6001546040516370a0823160e01b81523060048201526000916001600160a01b0316906370a0823190602401602060405180830381865afa15801561069e573d6000803e3d6000fd5b505050506040513d601f19601f820116820180604052508101906106c2919061115b565b60015460405163a9059cbb60e01b81526001600160a01b038881166004830152602482018490529293506000929091169063a9059cbb906044016020604051808303816000875af115801561071b573d6000803e3d6000fd5b505050506040513d601f19601f8201168201806040525081019061073f9190611174565b90508061079a5760405162461bcd60e51b815260206004820152602360248201527f546f6b656e207472616e73616374696f6e20657865637574696f6e206661696c60448201526265642160e81b606482015260840161047c565b856001600160a01b03167fefed6b8d78a916dbd402a323824ae4454c9214b8f3d05fa85b3bb7f30dc25c06836040516107d591815260200190565b60405180910390a2505050505050565b6107ed610e10565b6001600160481b0391909116600090815260026020526040902080546001600160601b0319166001600160601b03909216919091179055565b61082e610d39565b4780156108c257604051600090339083908381818185875af1925050503d8060008114610877576040519150601f19603f3d011682016040523d82523d6000602084013e61087c565b606091505b50509050806108c05760405162461bcd60e51b815260206004820152601060248201526f2a3930b739b332b9103330b4b632b21760811b604482015260640161047c565b505b60405181815233907fd32ec2b96f6389848e3f68f670160bf5a50b5024b6f62a61108f20025179a2919060200160405180910390a250565b610902610d39565b600054604051630110ceef60e21b81526020600482015260056024820152642a37b5b2b760d91b60448201526001600160a01b03909116906304433bbc90606401602060405180830381865afa158015610960573d6000803e3d6000fd5b505050506040513d601f19601f820116820180604052508101906109849190611196565b600180546001600160a01b0319166001600160a01b0392909216919091179055565b6109ae610d39565b6001546001600160a01b0390811690821603610a245760405162461bcd60e51b815260206004820152602f60248201527f43616e6e6f742075736520746869732066756e6374696f6e207769746820746860448201526e194815149050c818dbdb9d1c9858dd608a1b606482015260840161047c565b6040516370a0823160e01b815230600482015281906000906001600160a01b038316906370a0823190602401602060405180830381865afa158015610a6d573d6000803e3d6000fd5b505050506040513d601f19601f82011682018060405250810190610a91919061115b565b90508015610b695760405163a9059cbb60e01b8152336004820152602481018290526000906001600160a01b0384169063a9059cbb906044016020604051808303816000875af1158015610ae9573d6000803e3d6000fd5b505050506040513d601f19601f82011682018060405250810190610b0d9190611174565b905080610b675760405162461bcd60e51b815260206004820152602260248201527f546f6b656e207472616e73616374696f6e20657865637574696f6e206661696c604482015261195960f21b606482015260840161047c565b505b604080516001600160a01b03851681526020810183905233917f5fe8cbe5f97c59a4b590a924c3fc62aac6b6a653ec22e39f5fc6d3732f18c254910160405180910390a2505050565b610bba610e10565b6001600160481b0390911660009081526004602090815260408083206001600160a01b03909416835292905290812080546001600160601b031916815560010155565b610c05610e10565b6001600160481b0391909116600090815260036020526040902080546001600160601b0319166001600160601b03909216919091179055565b610c46610e10565b6040805180820182526001600160601b03938416815260208082019384526001600160481b039096166000908152600487528281206001600160a01b039096168152949095529092209251835491166001600160601b031990911617825551600190910155565b610cb5610e10565b60015460405163a9059cbb60e01b81526001600160a01b0384811660048301526001600160601b03841660248301529091169063a9059cbb906044016020604051808303816000875af1158015610d10573d6000803e3d6000fd5b505050506040513d601f19601f82011682018060405250810190610d349190611174565b505050565b60008054906101000a90046001600160a01b03166001600160a01b0316638da5cb5b6040518163ffffffff1660e01b8152600401602060405180830381865afa158015610d8a573d6000803e3d6000fd5b505050506040513d601f19601f82011682018060405250810190610dae9190611196565b6001600160a01b0316336001600160a01b031614610e0e5760405162461bcd60e51b815260206004820181905260248201527f466e2063616e206f6e6c79206265207573656420627920687562206f776e6572604482015260640161047c565b565b600054604051631627905560e01b81523360048201526001600160a01b0390911690631627905590602401602060405180830381865afa158015610e58573d6000803e3d6000fd5b505050506040513d601f19601f82011682018060405250810190610e7c9190611174565b610e0e5760405162461bcd60e51b815260206004820181905260248201527f466e2063616e206f6e6c792062652063616c6c65642062792074686520687562604482015260640161047c565b600060208083528351808285015260005b81811015610ef557858101830151858201604001528201610ed9565b506000604082860101526040601f19601f8301168501019250505092915050565b6001600160a01b0381168114610f2b57600080fd5b50565b600060208284031215610f4057600080fd5b8135610f4b81610f16565b9392505050565b80356001600160481b0381168114610f6957600080fd5b919050565b60008060408385031215610f8157600080fd5b610f8a83610f52565b91506020830135610f9a81610f16565b809150509250929050565b600060208284031215610fb757600080fd5b610f4b82610f52565b80356001600160601b0381168114610f6957600080fd5b60008060408385031215610fea57600080fd5b610ff383610f52565b915061100160208401610fc0565b90509250929050565b6000806000806080858703121561102057600080fd5b61102985610f52565b9350602085013561103981610f16565b925061104760408601610fc0565b9396929550929360600135925050565b6000806040838503121561106a57600080fd5b8235610ff381610f16565b634e487b7160e01b600052604160045260246000fd5b8051610f6981610f16565b600060208083850312156110a957600080fd5b825167ffffffffffffffff808211156110c157600080fd5b818501915085601f8301126110d557600080fd5b8151818111156110e7576110e7611075565b8060051b604051601f19603f8301168101818110858211171561110c5761110c611075565b60405291825284820192508381018501918883111561112a57600080fd5b938501935b8285101561114f576111408561108b565b8452938501939285019261112f565b98975050505050505050565b60006020828403121561116d57600080fd5b5051919050565b60006020828403121561118657600080fd5b81518015158114610f4b57600080fd5b6000602082840312156111a857600080fd5b8151610f4b81610f1656fea26469706673582212200f9d10aff24879ba9399b0874c064e0326e8ebb47c18a213bfd75ae391b2d0a164736f6c63430008100033",
  "immutableReferences": {},
  "source": "// SPDX-License-Identifier: MIT\n\npragma solidity ^0.8.4;\n\nimport { Guardian } from \"../Guardian.sol\";\nimport { Named } from \"../interface/Named.sol\";\nimport { Versioned } from \"../interface/Versioned.sol\";\n\ncontract StakingStorage is Named, Versioned, Guardian {\n\n    string constant private _NAME = \"StakingStorage\";\n    string constant private _VERSION = \"1.0.0\";\n\n    struct WithdrawalRequest {\n        uint96 amount;\n        uint256 timestamp;\n    }\n\n    // identityId => totalStake\n    mapping(uint72 => uint96) public totalStakes;\n\n    // identityId => operatorFee\n    mapping(uint72 => uint96) public operatorFees;\n\n    // identityId => withdrawalRequest\n    mapping(uint72 => mapping(address => WithdrawalRequest)) public withdrawalRequests;\n\n    constructor(address hubAddress) Guardian(hubAddress) {}\n\n    modifier onlyContracts() {\n        _checkHub();\n        _;\n    }\n\n    function name() external pure virtual override returns (string memory) {\n        return _NAME;\n    }\n\n    function version() external pure virtual override returns (string memory) {\n        return _VERSION;\n    }\n\n    function setTotalStake(uint72 identityId, uint96 newTotalStake) external onlyContracts {\n        totalStakes[identityId] = newTotalStake;\n    }\n\n    function setOperatorFee(uint72 identityId, uint96 operatorFee) external onlyContracts {\n        operatorFees[identityId] = operatorFee;\n    }\n\n    function createWithdrawalRequest(uint72 identityId, address staker, uint96 amount, uint256 timestamp)\n        external\n        onlyContracts\n    {\n        withdrawalRequests[identityId][staker] = WithdrawalRequest({\n            amount: amount,\n            timestamp: timestamp\n        });\n    }\n\n    function deleteWithdrawalRequest(uint72 identityId, address staker) external onlyContracts {\n        delete withdrawalRequests[identityId][staker];\n    }\n\n    function getWithdrawalRequestAmount(uint72 identityId, address staker) external view returns (uint96) {\n        return withdrawalRequests[identityId][staker].amount;\n    }\n\n    function getWithdrawalRequestTimestamp(uint72 identityId, address staker) external view returns (uint256) {\n        return withdrawalRequests[identityId][staker].timestamp;\n    }\n\n    function withdrawalRequestExists(uint72 identityId, address staker) external view returns (bool) {\n        return withdrawalRequests[identityId][staker].amount != 0;\n    }\n\n    function transferStake(address receiver, uint96 stakeAmount) external onlyContracts {\n        tokenContract.transfer(receiver, stakeAmount);\n    }\n\n    function _checkHub() internal view virtual {\n        require(hub.isContract(msg.sender), \"Fn can only be called by the hub\");\n    }\n\n}\n",
  "sourcePath": "/Users/waving/Desktop/OriginTrail/dkg-evm-module/contracts/storage/StakingStorage.sol",
  "compiler": {
    "name": "solc",
    "version": "0.8.16+commit.07a7930e.Emscripten.clang"
  },
  "schemaVersion": "3.4.10",
  "updatedAt": "2022-12-09T11:22:31.921Z",
  "devdoc": {
    "kind": "dev",
    "methods": {},
    "version": 1
  },
  "userdoc": {
    "kind": "user",
    "methods": {},
    "version": 1
  }
}