{
  "contractName": "Staking",
  "abi": [
    {
      "inputs": [
        {
          "internalType": "address",
          "name": "hubAddress",
          "type": "address"
        }
      ],
      "stateMutability": "nonpayable",
      "type": "constructor"
    },
    {
      "anonymous": false,
      "inputs": [
        {
          "indexed": true,
          "internalType": "uint72",
          "name": "identityId",
          "type": "uint72"
        },
        {
          "indexed": false,
          "internalType": "bytes",
          "name": "nodeId",
          "type": "bytes"
        },
        {
          "indexed": false,
          "internalType": "uint8",
          "name": "operatorFee",
          "type": "uint8"
        }
      ],
      "name": "OperatorFeeUpdated",
      "type": "event"
    },
    {
      "anonymous": false,
      "inputs": [
        {
          "indexed": true,
          "internalType": "uint72",
          "name": "identityId",
          "type": "uint72"
        },
        {
          "indexed": false,
          "internalType": "bytes",
          "name": "nodeId",
          "type": "bytes"
        },
        {
          "indexed": false,
          "internalType": "uint96",
          "name": "rewardAmount",
          "type": "uint96"
        }
      ],
      "name": "RewardAdded",
      "type": "event"
    },
    {
      "anonymous": false,
      "inputs": [
        {
          "indexed": true,
          "internalType": "uint72",
          "name": "identityId",
          "type": "uint72"
        },
        {
          "indexed": false,
          "internalType": "bytes",
          "name": "nodeId",
          "type": "bytes"
        },
        {
          "indexed": true,
          "internalType": "address",
          "name": "staker",
          "type": "address"
        },
        {
          "indexed": false,
          "internalType": "uint96",
          "name": "newStakeAmount",
          "type": "uint96"
        }
      ],
      "name": "StakeIncreased",
      "type": "event"
    },
    {
      "anonymous": false,
      "inputs": [
        {
          "indexed": true,
          "internalType": "uint72",
          "name": "identityId",
          "type": "uint72"
        },
        {
          "indexed": false,
          "internalType": "bytes",
          "name": "nodeId",
          "type": "bytes"
        },
        {
          "indexed": true,
          "internalType": "address",
          "name": "staker",
          "type": "address"
        },
        {
          "indexed": false,
          "internalType": "uint96",
          "name": "stakeAmount",
          "type": "uint96"
        },
        {
          "indexed": false,
          "internalType": "uint256",
          "name": "withdrawalPeriodEnd",
          "type": "uint256"
        }
      ],
      "name": "StakeWithdrawalStarted",
      "type": "event"
    },
    {
      "anonymous": false,
      "inputs": [
        {
          "indexed": true,
          "internalType": "uint72",
          "name": "identityId",
          "type": "uint72"
        },
        {
          "indexed": false,
          "internalType": "bytes",
          "name": "nodeId",
          "type": "bytes"
        },
        {
          "indexed": true,
          "internalType": "address",
          "name": "staker",
          "type": "address"
        },
        {
          "indexed": false,
          "internalType": "uint96",
          "name": "withdrawnStakeAmount",
          "type": "uint96"
        }
      ],
      "name": "StakeWithdrawn",
      "type": "event"
    },
    {
      "inputs": [],
      "name": "hub",
      "outputs": [
        {
          "internalType": "contract Hub",
          "name": "",
          "type": "address"
        }
      ],
      "stateMutability": "view",
      "type": "function"
    },
    {
      "inputs": [],
      "name": "identityStorage",
      "outputs": [
        {
          "internalType": "contract IdentityStorage",
          "name": "",
          "type": "address"
        }
      ],
      "stateMutability": "view",
      "type": "function"
    },
    {
      "inputs": [],
      "name": "parametersStorage",
      "outputs": [
        {
          "internalType": "contract ParametersStorage",
          "name": "",
          "type": "address"
        }
      ],
      "stateMutability": "view",
      "type": "function"
    },
    {
      "inputs": [],
      "name": "profileStorage",
      "outputs": [
        {
          "internalType": "contract ProfileStorage",
          "name": "",
          "type": "address"
        }
      ],
      "stateMutability": "view",
      "type": "function"
    },
    {
      "inputs": [],
      "name": "serviceAgreementStorageV1",
      "outputs": [
        {
          "internalType": "contract ServiceAgreementStorageV1",
          "name": "",
          "type": "address"
        }
      ],
      "stateMutability": "view",
      "type": "function"
    },
    {
      "inputs": [],
      "name": "shardingTableContract",
      "outputs": [
        {
          "internalType": "contract ShardingTable",
          "name": "",
          "type": "address"
        }
      ],
      "stateMutability": "view",
      "type": "function"
    },
    {
      "inputs": [],
      "name": "shardingTableStorage",
      "outputs": [
        {
          "internalType": "contract ShardingTableStorage",
          "name": "",
          "type": "address"
        }
      ],
      "stateMutability": "view",
      "type": "function"
    },
    {
      "inputs": [],
      "name": "stakingStorage",
      "outputs": [
        {
          "internalType": "contract StakingStorage",
          "name": "",
          "type": "address"
        }
      ],
      "stateMutability": "view",
      "type": "function"
    },
    {
      "inputs": [],
      "name": "tokenContract",
      "outputs": [
        {
          "internalType": "contract IERC20",
          "name": "",
          "type": "address"
        }
      ],
      "stateMutability": "view",
      "type": "function"
    },
    {
      "inputs": [],
      "name": "initialize",
      "outputs": [],
      "stateMutability": "nonpayable",
      "type": "function"
    },
    {
      "inputs": [],
      "name": "name",
      "outputs": [
        {
          "internalType": "string",
          "name": "",
          "type": "string"
        }
      ],
      "stateMutability": "pure",
      "type": "function"
    },
    {
      "inputs": [],
      "name": "version",
      "outputs": [
        {
          "internalType": "string",
          "name": "",
          "type": "string"
        }
      ],
      "stateMutability": "pure",
      "type": "function"
    },
    {
      "inputs": [
        {
          "internalType": "address",
          "name": "sender",
          "type": "address"
        },
        {
          "internalType": "uint72",
          "name": "identityId",
          "type": "uint72"
        },
        {
          "internalType": "uint96",
          "name": "stakeAmount",
          "type": "uint96"
        }
      ],
      "name": "addStake",
      "outputs": [],
      "stateMutability": "nonpayable",
      "type": "function"
    },
    {
      "inputs": [
        {
          "internalType": "uint72",
          "name": "identityId",
          "type": "uint72"
        },
        {
          "internalType": "uint96",
          "name": "stakeAmount",
          "type": "uint96"
        }
      ],
      "name": "addStake",
      "outputs": [],
      "stateMutability": "nonpayable",
      "type": "function"
    },
    {
      "inputs": [
        {
          "internalType": "uint72",
          "name": "identityId",
          "type": "uint72"
        },
        {
          "internalType": "uint96",
          "name": "sharesToBurn",
          "type": "uint96"
        }
      ],
      "name": "startStakeWithdrawal",
      "outputs": [],
      "stateMutability": "nonpayable",
      "type": "function"
    },
    {
      "inputs": [
        {
          "internalType": "uint72",
          "name": "identityId",
          "type": "uint72"
        }
      ],
      "name": "withdrawStake",
      "outputs": [],
      "stateMutability": "nonpayable",
      "type": "function"
    },
    {
      "inputs": [
        {
          "internalType": "uint72",
          "name": "identityId",
          "type": "uint72"
        },
        {
          "internalType": "uint96",
          "name": "rewardAmount",
          "type": "uint96"
        }
      ],
      "name": "addReward",
      "outputs": [],
      "stateMutability": "nonpayable",
      "type": "function"
    },
    {
      "inputs": [
        {
          "internalType": "uint72",
          "name": "identityId",
          "type": "uint72"
        }
      ],
      "name": "slash",
      "outputs": [],
      "stateMutability": "nonpayable",
      "type": "function"
    },
    {
      "inputs": [
        {
          "internalType": "uint72",
          "name": "identityId",
          "type": "uint72"
        },
        {
          "internalType": "uint8",
          "name": "operatorFee",
          "type": "uint8"
        }
      ],
      "name": "setOperatorFee",
      "outputs": [],
      "stateMutability": "nonpayable",
      "type": "function"
    }
  ],
  "bytecode": "0x60806040523480156200001157600080fd5b506040516200325a3803806200325a833981016040819052620000349162000694565b6001600160a01b0381166200004857600080fd5b600080546001600160a01b0319166001600160a01b0383161790556200006d62000074565b50620006c6565b6200007e620005b5565b600054604051630110ceef60e21b815260206004820152600d60248201526c5368617264696e675461626c6560981b60448201526001600160a01b03909116906304433bbc90606401602060405180830381865afa158015620000e5573d6000803e3d6000fd5b505050506040513d601f19601f820116820180604052508101906200010b919062000694565b600180546001600160a01b0319166001600160a01b03928316179055600054604051630110ceef60e21b815260206004820152600f60248201526e4964656e7469747953746f7261676560881b60448201529116906304433bbc90606401602060405180830381865afa15801562000187573d6000803e3d6000fd5b505050506040513d601f19601f82011682018060405250810190620001ad919062000694565b600280546001600160a01b0319166001600160a01b03928316179055600054604051630110ceef60e21b8152602060048201526011602482015270506172616d657465727353746f7261676560781b60448201529116906304433bbc90606401602060405180830381865afa1580156200022b573d6000803e3d6000fd5b505050506040513d601f19601f8201168201806040525081019062000251919062000694565b600380546001600160a01b0319166001600160a01b03928316179055600054604051630110ceef60e21b815260206004820152600e60248201526d50726f66696c6553746f7261676560901b60448201529116906304433bbc90606401602060405180830381865afa158015620002cc573d6000803e3d6000fd5b505050506040513d601f19601f82011682018060405250810190620002f2919062000694565b600480546001600160a01b039283166001600160a01b0319909116178155600054604051630110ceef60e21b81529216916304433bbc916200035791016020808252600e908201526d5374616b696e6753746f7261676560901b604082015260600190565b602060405180830381865afa15801562000375573d6000803e3d6000fd5b505050506040513d601f19601f820116820180604052508101906200039b919062000694565b600580546001600160a01b0319166001600160a01b03928316179055600054604051630110ceef60e21b815260206004820152601960248201527f5365727669636541677265656d656e7453746f7261676556310000000000000060448201529116906304433bbc90606401602060405180830381865afa15801562000425573d6000803e3d6000fd5b505050506040513d601f19601f820116820180604052508101906200044b919062000694565b600680546001600160a01b0319166001600160a01b03928316179055600054604051630110ceef60e21b815260206004820152601460248201527f5368617264696e675461626c6553746f7261676500000000000000000000000060448201529116906304433bbc90606401602060405180830381865afa158015620004d5573d6000803e3d6000fd5b505050506040513d601f19601f82011682018060405250810190620004fb919062000694565b600780546001600160a01b0319166001600160a01b03928316179055600054604051630110ceef60e21b81526020600482015260056024820152642a37b5b2b760d91b60448201529116906304433bbc90606401602060405180830381865afa1580156200056d573d6000803e3d6000fd5b505050506040513d601f19601f8201168201806040525081019062000593919062000694565b600880546001600160a01b0319166001600160a01b0392909216919091179055565b60008054906101000a90046001600160a01b03166001600160a01b0316638da5cb5b6040518163ffffffff1660e01b8152600401602060405180830381865afa15801562000607573d6000803e3d6000fd5b505050506040513d601f19601f820116820180604052508101906200062d919062000694565b6001600160a01b0316336001600160a01b031614620006925760405162461bcd60e51b815260206004820181905260248201527f466e2063616e206f6e6c79206265207573656420627920687562206f776e6572604482015260640160405180910390fd5b565b600060208284031215620006a757600080fd5b81516001600160a01b0381168114620006bf57600080fd5b9392505050565b612b8480620006d66000396000f3fe608060405234801561001057600080fd5b50600436106101215760003560e01c80638129fc1c116100ad578063b518a00e11610071578063b518a00e1461026f578063c47408e314610282578063d7ec3d7d14610295578063f11abfd8146102a8578063f42cb038146102bb57600080fd5b80638129fc1c1461021b578063823e2bc71461022357806397c5960714610236578063a7b5dd5914610249578063b16b109c1461025c57600080fd5b806350d0c144116100f457806350d0c144146101ae57806354fd4d50146101c157806355a373d6146101e2578063639a86a3146101f55780636b838a5a1461020857600080fd5b806306fdde0314610126578063268d6de41461015b5780632c86da5a14610170578063365a86fc14610183575b600080fd5b6040805180820190915260078152665374616b696e6760c81b60208201525b60405161015291906126b3565b60405180910390f35b61016e610169366004612713565b6102ce565b005b61016e61017e36600461275c565b6102e6565b600054610196906001600160a01b031681565b6040516001600160a01b039091168152602001610152565b600654610196906001600160a01b031681565b6040805180820190915260058152640312e302e360dc1b6020820152610145565b600854610196906001600160a01b031681565b600354610196906001600160a01b031681565b600154610196906001600160a01b031681565b61016e610aa9565b600754610196906001600160a01b031681565b61016e610244366004612793565b610fc6565b61016e61025736600461275c565b61114c565b61016e61026a3660046127c5565b611768565b600554610196906001600160a01b031681565b61016e61029036600461275c565b611aac565b61016e6102a33660046127c5565b611ac1565b600254610196906001600160a01b031681565b600454610196906001600160a01b031681565b6102d6611acc565b6102e1838383611b86565b505050565b806001600160601b03166000036103445760405162461bcd60e51b815260206004820152601d60248201527f5769746864726177616c20616d6f756e742063616e6e6f74206265203000000060448201526064015b60405180910390fd5b6004805460055460405163c04d7dcf60e01b81526001600160481b038616938101939093526001600160a01b0391821692911690829063c04d7dcf90602401602060405180830381865afa1580156103a0573d6000803e3d6000fd5b505050506040513d601f19601f820116820180604052508101906103c491906127e0565b6103e05760405162461bcd60e51b815260040161033b90612802565b604051632e15869560e21b81526001600160481b03851660048201526000906001600160a01b0384169063b8561a5490602401602060405180830381865afa158015610430573d6000803e3d6000fd5b505050506040513d601f19601f820116820180604052508101906104549190612831565b6040516370a0823160e01b81523360048201529091506001600160a01b038216906370a0823190602401602060405180830381865afa15801561049b573d6000803e3d6000fd5b505050506040513d601f19601f820116820180604052508101906104bf919061284e565b846001600160601b031611156105175760405162461bcd60e51b815260206004820152601f60248201527f736861726573546f4275726e206d757374206265203c3d2062616c616e636500604482015260640161033b565b604051639d2b48ad60e01b81526001600160481b03861660048201526000906001600160a01b03841690639d2b48ad90602401602060405180830381865afa158015610567573d6000803e3d6000fd5b505050506040513d601f19601f8201168201806040525081019061058b9190612867565b90506000826001600160a01b03166318160ddd6040518163ffffffff1660e01b8152600401602060405180830381865afa1580156105cd573d6000803e3d6000fd5b505050506040513d601f19601f820116820180604052508101906105f1919061284e565b6106076001600160601b0380891690851661289a565b61061191906128cf565b9050600061061f82846128e3565b604051632347e51760e01b81526001600160481b038a16600482015233602482015290915060009083906001600160a01b03881690632347e51790604401602060405180830381865afa15801561067a573d6000803e3d6000fd5b505050506040513d601f19601f8201168201806040525081019061069e9190612867565b6106a8919061290a565b90506000600360009054906101000a90046001600160a01b031690506000816001600160a01b031663151db1b96040518163ffffffff1660e01b8152600401602060405180830381865afa158015610704573d6000803e3d6000fd5b505050506040513d601f19601f82011682018060405250810190610728919061292a565b6107379062ffffff164261294f565b60405163dc99106f60e01b81526001600160481b038d1660048201523360248201526001600160601b0385166044820152606481018290529091506001600160a01b0389169063dc99106f90608401600060405180830381600087803b1580156107a057600080fd5b505af11580156107b4573d6000803e3d6000fd5b5050604051635611f9a360e01b81526001600160481b038e1660048201526001600160601b03871660248201526001600160a01b038b169250635611f9a39150604401600060405180830381600087803b15801561081157600080fd5b505af1158015610825573d6000803e3d6000fd5b505060405163079cc67960e41b81526001600160a01b038a1692506379cc679091506108579033908e90600401612968565b600060405180830381600087803b15801561087157600080fd5b505af1158015610885573d6000803e3d6000fd5b505060075460405163175a11e760e21b81526001600160481b038f1660048201526001600160a01b039091169250635d68479c9150602401602060405180830381865afa1580156108da573d6000803e3d6000fd5b505050506040513d601f19601f820116820180604052508101906108fe91906127e0565b801561097c5750816001600160a01b031663ec5ffac26040518163ffffffff1660e01b8152600401602060405180830381865afa158015610943573d6000803e3d6000fd5b505050506040513d601f19601f820116820180604052508101906109679190612867565b6001600160601b0316846001600160601b0316105b156109e8576001546040516357ce0f6360e11b81526001600160481b038d1660048201526001600160a01b039091169063af9c1ec690602401600060405180830381600087803b1580156109cf57600080fd5b505af11580156109e3573d6000803e3d6000fd5b505050505b6040516320e085cd60e11b81526001600160481b038c166004820181905233917fe39af003edd916653be5504f9d0222ff7f522ee3be2411eab59b328bd78f8024906001600160a01b038d16906341c10b9a90602401600060405180830381865afa158015610a5b573d6000803e3d6000fd5b505050506040513d6000823e601f3d908101601f19168201604052610a8391908101906129a0565b8685604051610a9493929190612a4d565b60405180910390a35050505050505050505050565b610ab161248f565b600054604051630110ceef60e21b815260206004820152600d60248201526c5368617264696e675461626c6560981b60448201526001600160a01b03909116906304433bbc90606401602060405180830381865afa158015610b17573d6000803e3d6000fd5b505050506040513d601f19601f82011682018060405250810190610b3b9190612831565b600180546001600160a01b0319166001600160a01b03928316179055600054604051630110ceef60e21b815260206004820152600f60248201526e4964656e7469747953746f7261676560881b60448201529116906304433bbc90606401602060405180830381865afa158015610bb6573d6000803e3d6000fd5b505050506040513d601f19601f82011682018060405250810190610bda9190612831565b600280546001600160a01b0319166001600160a01b03928316179055600054604051630110ceef60e21b8152602060048201526011602482015270506172616d657465727353746f7261676560781b60448201529116906304433bbc90606401602060405180830381865afa158015610c57573d6000803e3d6000fd5b505050506040513d601f19601f82011682018060405250810190610c7b9190612831565b600380546001600160a01b0319166001600160a01b03928316179055600054604051630110ceef60e21b815260206004820152600e60248201526d50726f66696c6553746f7261676560901b60448201529116906304433bbc90606401602060405180830381865afa158015610cf5573d6000803e3d6000fd5b505050506040513d601f19601f82011682018060405250810190610d199190612831565b600480546001600160a01b039283166001600160a01b0319909116178155600054604051630110ceef60e21b81529216916304433bbc91610d7d91016020808252600e908201526d5374616b696e6753746f7261676560901b604082015260600190565b602060405180830381865afa158015610d9a573d6000803e3d6000fd5b505050506040513d601f19601f82011682018060405250810190610dbe9190612831565b600580546001600160a01b0319166001600160a01b03928316179055600054604051630110ceef60e21b815260206004820152601960248201527f5365727669636541677265656d656e7453746f7261676556310000000000000060448201529116906304433bbc90606401602060405180830381865afa158015610e47573d6000803e3d6000fd5b505050506040513d601f19601f82011682018060405250810190610e6b9190612831565b600680546001600160a01b0319166001600160a01b03928316179055600054604051630110ceef60e21b81526020600482015260146024820152735368617264696e675461626c6553746f7261676560601b60448201529116906304433bbc90606401602060405180830381865afa158015610eeb573d6000803e3d6000fd5b505050506040513d601f19601f82011682018060405250810190610f0f9190612831565b600780546001600160a01b0319166001600160a01b03928316179055600054604051630110ceef60e21b81526020600482015260056024820152642a37b5b2b760d91b60448201529116906304433bbc90606401602060405180830381865afa158015610f80573d6000803e3d6000fd5b505050506040513d601f19601f82011682018060405250810190610fa49190612831565b600880546001600160a01b0319166001600160a01b0392909216919091179055565b81610fd081612564565b60648260ff1611156110245760405162461bcd60e51b815260206004820152601c60248201527f4f70657261746f7220666565206f7574206f66205b302c203130305d00000000604482015260640161033b565b600554604051635b19b2e560e11b81526001600160481b038516600482015260ff841660248201526001600160a01b039091169063b63365ca90604401600060405180830381600087803b15801561107b57600080fd5b505af115801561108f573d6000803e3d6000fd5b5050600480546040516320e085cd60e11b81526001600160481b0388169281018390529193507fe6a2394a4d6dad5274e51217afd3926e9caa2dd69a6fea3e91486e44af0060e892506001600160a01b0316906341c10b9a90602401600060405180830381865afa158015611108573d6000803e3d6000fd5b505050506040513d6000823e601f3d908101601f1916820160405261113091908101906129a0565b8460405161113f929190612a7b565b60405180910390a2505050565b611154611acc565b600654600554604051631987767160e11b81526001600160481b03851660048201526001600160a01b039283169290911690600090606490839063330eece290602401602060405180830381865afa1580156111b4573d6000803e3d6000fd5b505050506040513d601f19601f820116820180604052508101906111d89190612867565b6111e29086612aa0565b6111ec9190612acf565b905060006111fa82866128e3565b6004549091506001600160a01b03166001600160601b0383161561136757604051636095a63b60e11b81526001600160481b03881660048201526001600160a01b0382169063d0ea3fee9089908690849063c12b4c7690602401602060405180830381865afa158015611271573d6000803e3d6000fd5b505050506040513d601f19601f820116820180604052508101906112959190612867565b61129f919061290a565b6040516001600160e01b031960e085901b1681526001600160481b0390921660048301526001600160601b03166024820152604401600060405180830381600087803b1580156112ee57600080fd5b505af1158015611302573d6000803e3d6000fd5b505060405163d2692b3160e01b81526001600160a01b038816925063d2692b3191506113349084908790600401612968565b600060405180830381600087803b15801561134e57600080fd5b505af1158015611362573d6000803e3d6000fd5b505050505b6001600160601b038216156116ae57604051639d2b48ad60e01b81526001600160481b03881660048201526001600160a01b03851690635611f9a390899085908490639d2b48ad90602401602060405180830381865afa1580156113cf573d6000803e3d6000fd5b505050506040513d601f19601f820116820180604052508101906113f39190612867565b6113fd919061290a565b6040516001600160e01b031960e085901b1681526001600160481b0390921660048301526001600160601b03166024820152604401600060405180830381600087803b15801561144c57600080fd5b505af1158015611460573d6000803e3d6000fd5b505060405163d2692b3160e01b81526001600160a01b038816925063d2692b3191506114929087908690600401612968565b600060405180830381600087803b1580156114ac57600080fd5b505af11580156114c0573d6000803e3d6000fd5b505060075460405163175a11e760e21b81526001600160481b038b1660048201526001600160a01b039091169250635d68479c9150602401602060405180830381865afa158015611515573d6000803e3d6000fd5b505050506040513d601f19601f8201168201806040525081019061153991906127e0565b1580156116425750600360009054906101000a90046001600160a01b03166001600160a01b031663ec5ffac26040518163ffffffff1660e01b8152600401602060405180830381865afa158015611594573d6000803e3d6000fd5b505050506040513d601f19601f820116820180604052508101906115b89190612867565b604051639d2b48ad60e01b81526001600160481b03891660048201526001600160601b0391909116906001600160a01b03861690639d2b48ad90602401602060405180830381865afa158015611612573d6000803e3d6000fd5b505050506040513d601f19601f820116820180604052508101906116369190612867565b6001600160601b031610155b156116ae5760015460405163415942b160e01b81526001600160481b03891660048201526001600160a01b039091169063415942b190602401600060405180830381600087803b15801561169557600080fd5b505af11580156116a9573d6000803e3d6000fd5b505050505b6040516320e085cd60e11b81526001600160481b03881660048201819052907f3a9d6370b8729dd71bf1d551d14a83081992afa378f2f63940251021d0d80472906001600160a01b038416906341c10b9a90602401600060405180830381865afa158015611720573d6000803e3d6000fd5b505050506040513d6000823e601f3d908101601f1916820160405261174891908101906129a0565b88604051611757929190612af5565b60405180910390a250505050505050565b6004805460405163c04d7dcf60e01b81526001600160481b038416928101929092526001600160a01b031690819063c04d7dcf90602401602060405180830381865afa1580156117bc573d6000803e3d6000fd5b505050506040513d601f19601f820116820180604052508101906117e091906127e0565b6117fc5760405162461bcd60e51b815260040161033b90612802565b600554604051630a67642560e21b81526001600160481b03841660048201523360248201526001600160a01b03909116906000908190839063299d9094906044016040805180830381865afa158015611859573d6000803e3d6000fd5b505050506040513d601f19601f8201168201806040525081019061187d9190612b20565b90925090506001600160601b0382166000036118db5760405162461bcd60e51b815260206004820181905260248201527f5769746864726177616c206861736e2774206265656e20696e69746961746564604482015260640161033b565b42811061192a5760405162461bcd60e51b815260206004820152601e60248201527f5769746864726177616c20706572696f64206861736e277420656e6465640000604482015260640161033b565b60405163a88021cb60e01b81526001600160481b03861660048201523360248201526001600160a01b0384169063a88021cb90604401600060405180830381600087803b15801561197a57600080fd5b505af115801561198e573d6000803e3d6000fd5b5050604051636f6d60d760e11b81526001600160a01b038616925063dedac1ae91506119c09033908690600401612968565b600060405180830381600087803b1580156119da57600080fd5b505af11580156119ee573d6000803e3d6000fd5b50506040516320e085cd60e11b81526001600160481b0388166004820181905233935091507fd3bcdb34c5e5ee009db75963106b1f70754ba993806cb1eb6bc7225de01ba092906001600160a01b038816906341c10b9a90602401600060405180830381865afa158015611a66573d6000803e3d6000fd5b505050506040513d6000823e601f3d908101601f19168201604052611a8e91908101906129a0565b85604051611a9d929190612af5565b60405180910390a35050505050565b81611ab681612564565b6102e1338484611b86565b611ac9611acc565b50565b600054604051631627905560e01b81523360048201526001600160a01b0390911690631627905590602401602060405180830381865afa158015611b14573d6000803e3d6000fd5b505050506040513d601f19601f82011682018060405250810190611b3891906127e0565b611b845760405162461bcd60e51b815260206004820181905260248201527f466e2063616e206f6e6c792062652063616c6c65642062792074686520687562604482015260640161033b565b565b6005546004805460035460085460405163c04d7dcf60e01b81526001600160481b038816948101949094526001600160a01b039485169492831693918316921690839063c04d7dcf90602401602060405180830381865afa158015611bef573d6000803e3d6000fd5b505050506040513d601f19601f82011682018060405250810190611c1391906127e0565b611c2f5760405162461bcd60e51b815260040161033b90612802565b604051636eb1769f60e11b81526001600160a01b0388811660048301523060248301526001600160601b038716919083169063dd62ed3e90604401602060405180830381865afa158015611c87573d6000803e3d6000fd5b505050506040513d601f19601f82011682018060405250810190611cab919061284e565b1015611cf95760405162461bcd60e51b815260206004820152601760248201527f416c6c6f77616e6365203c207374616b65416d6f756e74000000000000000000604482015260640161033b565b816001600160a01b031663b5c6b4536040518163ffffffff1660e01b8152600401602060405180830381865afa158015611d37573d6000803e3d6000fd5b505050506040513d601f19601f82011682018060405250810190611d5b9190612867565b604051639d2b48ad60e01b81526001600160481b03881660048201526001600160601b0391909116906001600160a01b03861690639d2b48ad90602401602060405180830381865afa158015611db5573d6000803e3d6000fd5b505050506040513d601f19601f82011682018060405250810190611dd99190612867565b611de3908761290a565b6001600160601b03161115611e3a5760405162461bcd60e51b815260206004820152601a60248201527f457863656564656420746865206d6178696d756d207374616b65000000000000604482015260640161033b565b604051632e15869560e21b81526001600160481b03871660048201526000906001600160a01b0385169063b8561a5490602401602060405180830381865afa158015611e8a573d6000803e3d6000fd5b505050506040513d601f19601f82011682018060405250810190611eae9190612831565b90506000816001600160a01b03166318160ddd6040518163ffffffff1660e01b8152600401602060405180830381865afa158015611ef0573d6000803e3d6000fd5b505050506040513d601f19601f82011682018060405250810190611f14919061284e565b600003611f2b57506001600160601b038616612027565b604051639d2b48ad60e01b81526001600160481b03891660048201526001600160a01b03871690639d2b48ad90602401602060405180830381865afa158015611f78573d6000803e3d6000fd5b505050506040513d601f19601f82011682018060405250810190611f9c9190612867565b6001600160601b0316826001600160a01b03166318160ddd6040518163ffffffff1660e01b8152600401602060405180830381865afa158015611fe3573d6000803e3d6000fd5b505050506040513d601f19601f82011682018060405250810190612007919061284e565b61201a906001600160601b038a1661289a565b61202491906128cf565b90505b6040516340c10f1960e01b81526001600160a01b038a81166004830152602482018390528316906340c10f1990604401600060405180830381600087803b15801561207157600080fd5b505af1158015612085573d6000803e3d6000fd5b5050604051639d2b48ad60e01b81526001600160481b038b1660048201526001600160a01b0389169250635611f9a391508a908a908490639d2b48ad90602401602060405180830381865afa1580156120e2573d6000803e3d6000fd5b505050506040513d601f19601f820116820180604052508101906121069190612867565b612110919061290a565b6040516001600160e01b031960e085901b1681526001600160481b0390921660048301526001600160601b03166024820152604401600060405180830381600087803b15801561215f57600080fd5b505af1158015612173573d6000803e3d6000fd5b50506040516323b872dd60e01b81526001600160a01b038c8116600483015289811660248301526001600160601b038b166044830152861692506323b872dd91506064016020604051808303816000875af11580156121d6573d6000803e3d6000fd5b505050506040513d601f19601f820116820180604052508101906121fa91906127e0565b5060075460405163175a11e760e21b81526001600160481b038a1660048201526001600160a01b0390911690635d68479c90602401602060405180830381865afa15801561224c573d6000803e3d6000fd5b505050506040513d601f19601f8201168201806040525081019061227091906127e0565b1580156123645750836001600160a01b031663ec5ffac26040518163ffffffff1660e01b8152600401602060405180830381865afa1580156122b6573d6000803e3d6000fd5b505050506040513d601f19601f820116820180604052508101906122da9190612867565b604051639d2b48ad60e01b81526001600160481b038a1660048201526001600160601b0391909116906001600160a01b03881690639d2b48ad90602401602060405180830381865afa158015612334573d6000803e3d6000fd5b505050506040513d601f19601f820116820180604052508101906123589190612867565b6001600160601b031610155b156123d05760015460405163415942b160e01b81526001600160481b038a1660048201526001600160a01b039091169063415942b190602401600060405180830381600087803b1580156123b757600080fd5b505af11580156123cb573d6000803e3d6000fd5b505050505b6040516320e085cd60e11b81526001600160481b038916600482018190526001600160a01b03808c16927f23c5a229c631784e1c35273d5337c87003a406cd3cdf37d432a0cfd95652fcc3918916906341c10b9a90602401600060405180830381865afa158015612445573d6000803e3d6000fd5b505050506040513d6000823e601f3d908101601f1916820160405261246d91908101906129a0565b8a60405161247c929190612af5565b60405180910390a3505050505050505050565b60008054906101000a90046001600160a01b03166001600160a01b0316638da5cb5b6040518163ffffffff1660e01b8152600401602060405180830381865afa1580156124e0573d6000803e3d6000fd5b505050506040513d601f19601f820116820180604052508101906125049190612831565b6001600160a01b0316336001600160a01b031614611b845760405162461bcd60e51b815260206004820181905260248201527f466e2063616e206f6e6c79206265207573656420627920687562206f776e6572604482015260640161033b565b6002546040516bffffffffffffffffffffffff193360601b1660208201526001600160a01b03909116906335e4fb7a90839060340160408051601f198184030181529082905280516020909101206001600160e01b031960e085901b1682526001600160481b039092166004820152602481019190915260016044820152606401602060405180830381865afa158015612602573d6000803e3d6000fd5b505050506040513d601f19601f8201168201806040525081019061262691906127e0565b611ac95760405162461bcd60e51b815260206004820152600e60248201526d20b236b4b710333ab731ba34b7b760911b604482015260640161033b565b60005b8381101561267e578181015183820152602001612666565b50506000910152565b6000815180845261269f816020860160208601612663565b601f01601f19169290920160200192915050565b6020815260006126c66020830184612687565b9392505050565b6001600160a01b0381168114611ac957600080fd5b80356001600160481b03811681146126f957600080fd5b919050565b6001600160601b0381168114611ac957600080fd5b60008060006060848603121561272857600080fd5b8335612733816126cd565b9250612741602085016126e2565b91506040840135612751816126fe565b809150509250925092565b6000806040838503121561276f57600080fd5b612778836126e2565b91506020830135612788816126fe565b809150509250929050565b600080604083850312156127a657600080fd5b6127af836126e2565b9150602083013560ff8116811461278857600080fd5b6000602082840312156127d757600080fd5b6126c6826126e2565b6000602082840312156127f257600080fd5b815180151581146126c657600080fd5b602080825260159082015274141c9bd99a5b1948191bd95cdb89dd08195e1a5cdd605a1b604082015260600190565b60006020828403121561284357600080fd5b81516126c6816126cd565b60006020828403121561286057600080fd5b5051919050565b60006020828403121561287957600080fd5b81516126c6816126fe565b634e487b7160e01b600052601160045260246000fd5b60008160001904831182151516156128b4576128b4612884565b500290565b634e487b7160e01b600052601260045260246000fd5b6000826128de576128de6128b9565b500490565b6001600160601b0382811682821603908082111561290357612903612884565b5092915050565b6001600160601b0381811683821601908082111561290357612903612884565b60006020828403121561293c57600080fd5b815162ffffff811681146126c657600080fd5b8082018082111561296257612962612884565b92915050565b6001600160a01b039290921682526001600160601b0316602082015260400190565b634e487b7160e01b600052604160045260246000fd5b6000602082840312156129b257600080fd5b815167ffffffffffffffff808211156129ca57600080fd5b818401915084601f8301126129de57600080fd5b8151818111156129f0576129f061298a565b604051601f8201601f19908116603f01168101908382118183101715612a1857612a1861298a565b81604052828152876020848701011115612a3157600080fd5b612a42836020830160208801612663565b979650505050505050565b606081526000612a606060830186612687565b6001600160601b039490941660208301525060400152919050565b604081526000612a8e6040830185612687565b905060ff831660208301529392505050565b60006001600160601b0380831681851681830481118215151615612ac657612ac6612884565b02949350505050565b60006001600160601b0380841680612ae957612ae96128b9565b92169190910492915050565b604081526000612b086040830185612687565b90506001600160601b03831660208301529392505050565b60008060408385031215612b3357600080fd5b8251612b3e816126fe565b602093909301519294929350505056fea2646970667358221220e53d99cf9c49c3a45d296ea956005a7064aefa12f4fa56451fb41e6fb32e972b64736f6c63430008100033",
  "immutableReferences": {},
  "source": "// SPDX-License-Identifier: MIT\n\npragma solidity ^0.8.4;\n\nimport { Hub } from \"./Hub.sol\";\nimport { ShardingTable } from \"./ShardingTable.sol\";\nimport { Shares } from \"./Shares.sol\";\nimport { IdentityStorage } from \"./storage/IdentityStorage.sol\";\nimport { ParametersStorage } from \"./storage/ParametersStorage.sol\";\nimport { ProfileStorage } from \"./storage/ProfileStorage.sol\";\nimport { ServiceAgreementStorageV1 } from \"./storage/ServiceAgreementStorageV1.sol\";\nimport { ShardingTableStorage } from \"./storage/ShardingTableStorage.sol\";\nimport { StakingStorage } from \"./storage/StakingStorage.sol\";\nimport { Named } from \"./interface/Named.sol\";\nimport { Versioned } from \"./interface/Versioned.sol\";\nimport { ADMIN_KEY } from \"./constants/IdentityConstants.sol\";\nimport { IERC20 } from \"@openzeppelin/contracts/token/ERC20/IERC20.sol\";\n\ncontract Staking is Named, Versioned {\n\n    event StakeIncreased(uint72 indexed identityId, bytes nodeId, address indexed staker, uint96 newStakeAmount);\n    event StakeWithdrawalStarted(\n        uint72 indexed identityId,\n        bytes nodeId,\n        address indexed staker,\n        uint96 stakeAmount,\n        uint256 withdrawalPeriodEnd\n    );\n    event StakeWithdrawn(uint72 indexed identityId, bytes nodeId, address indexed staker, uint96 withdrawnStakeAmount);\n    event RewardAdded(uint72 indexed identityId, bytes nodeId, uint96 rewardAmount);\n    event OperatorFeeUpdated(uint72 indexed identityId, bytes nodeId, uint8 operatorFee);\n\n    string constant private _NAME = \"Staking\";\n    string constant private _VERSION = \"1.0.0\";\n\n    Hub public hub;\n    ShardingTable public shardingTableContract;\n    IdentityStorage public identityStorage;\n    ParametersStorage public parametersStorage;\n    ProfileStorage public profileStorage;\n    StakingStorage public stakingStorage;\n    ServiceAgreementStorageV1 public serviceAgreementStorageV1;\n    ShardingTableStorage public shardingTableStorage;\n    IERC20 public tokenContract;\n\n    constructor(address hubAddress) {\n        require(hubAddress != address(0));\n\n        hub = Hub(hubAddress);\n\n        initialize();\n    }\n\n    modifier onlyHubOwner() {\n\t\t_checkHubOwner();\n\t\t_;\n\t}\n\n    modifier onlyContracts() {\n        _checkHub();\n        _;\n    }\n\n    modifier onlyAdmin(uint72 identityId) {\n        _checkAdmin(identityId);\n        _;\n    }\n\n    function initialize() public onlyHubOwner {\n\t\tshardingTableContract = ShardingTable(hub.getContractAddress(\"ShardingTable\"));\n        identityStorage = IdentityStorage(hub.getContractAddress(\"IdentityStorage\"));\n        parametersStorage = ParametersStorage(hub.getContractAddress(\"ParametersStorage\"));\n        profileStorage = ProfileStorage(hub.getContractAddress(\"ProfileStorage\"));\n        stakingStorage = StakingStorage(hub.getContractAddress(\"StakingStorage\"));\n        serviceAgreementStorageV1 = ServiceAgreementStorageV1(hub.getContractAddress(\"ServiceAgreementStorageV1\"));\n        shardingTableStorage = ShardingTableStorage(hub.getContractAddress(\"ShardingTableStorage\"));\n        tokenContract = IERC20(hub.getContractAddress(\"Token\"));\n\t}\n\n    function name() external pure virtual override returns (string memory) {\n        return _NAME;\n    }\n\n    function version() external pure virtual override returns (string memory) {\n        return _VERSION;\n    }\n\n    function addStake(address sender, uint72 identityId, uint96 stakeAmount) external onlyContracts {\n        _addStake(sender, identityId, stakeAmount);\n    }\n\n    function addStake(uint72 identityId, uint96 stakeAmount) external onlyAdmin(identityId) {\n        _addStake(msg.sender, identityId, stakeAmount);\n    }\n\n    function startStakeWithdrawal(uint72 identityId, uint96 sharesToBurn) external {\n        require(sharesToBurn != 0, \"Withdrawal amount cannot be 0\");\n\n        ProfileStorage ps = profileStorage;\n        StakingStorage ss = stakingStorage;\n\n        require(ps.profileExists(identityId), \"Profile doesn't exist\");\n\n        Shares sharesContract = Shares(ps.getSharesContractAddress(identityId));\n\n        require(sharesToBurn <= sharesContract.balanceOf(msg.sender), \"sharesToBurn must be <= balance\");\n\n        uint96 oldStake = ss.totalStakes(identityId);\n        uint96 stakeWithdrawalAmount = (\n            uint96(uint256(oldStake) * sharesToBurn / sharesContract.totalSupply())\n        );\n        uint96 newStake = oldStake - stakeWithdrawalAmount;\n        uint96 newStakeWithdrawalAmount = ss.getWithdrawalRequestAmount(identityId, msg.sender) + stakeWithdrawalAmount;\n\n        ParametersStorage params = parametersStorage;\n\n        uint256 withdrawalPeriodEnd = block.timestamp + params.stakeWithdrawalDelay();\n        ss.createWithdrawalRequest(\n            identityId,\n            msg.sender,\n            newStakeWithdrawalAmount,\n            withdrawalPeriodEnd\n        );\n        ss.setTotalStake(identityId, newStake);\n        sharesContract.burnFrom(msg.sender, sharesToBurn);\n\n        if (shardingTableStorage.nodeExists(identityId) && (newStake < params.minimumStake())) {\n            shardingTableContract.removeNode(identityId);\n        }\n\n        emit StakeWithdrawalStarted(\n            identityId,\n            ps.getNodeId(identityId),\n            msg.sender,\n            newStakeWithdrawalAmount,\n            withdrawalPeriodEnd\n        );\n    }\n\n    function withdrawStake(uint72 identityId) external {\n        ProfileStorage ps = profileStorage;\n\n        require(ps.profileExists(identityId), \"Profile doesn't exist\");\n\n        StakingStorage ss = stakingStorage;\n\n        uint96 stakeWithdrawalAmount;\n        uint256 withdrawalTimestamp;\n        (stakeWithdrawalAmount, withdrawalTimestamp) = ss.withdrawalRequests(identityId, msg.sender);\n\n        require(stakeWithdrawalAmount != 0, \"Withdrawal hasn't been initiated\");\n        require(withdrawalTimestamp < block.timestamp, \"Withdrawal period hasn't ended\");\n\n        ss.deleteWithdrawalRequest(identityId, msg.sender);\n        ss.transferStake(msg.sender, stakeWithdrawalAmount);\n\n        emit StakeWithdrawn(identityId, ps.getNodeId(identityId), msg.sender, stakeWithdrawalAmount);\n    }\n\n    function addReward(uint72 identityId, uint96 rewardAmount) external onlyContracts {\n        ServiceAgreementStorageV1 sasV1 = serviceAgreementStorageV1;\n        StakingStorage ss = stakingStorage;\n\n        uint96 operatorFee = rewardAmount * ss.operatorFees(identityId) / 100;\n        uint96 delegatorsReward = rewardAmount - operatorFee;\n\n        ProfileStorage ps = profileStorage;\n\n        if(operatorFee != 0) {\n            ps.setAccumulatedOperatorFee(identityId, ps.getAccumulatedOperatorFee(identityId) + operatorFee);\n            sasV1.transferReward(address(ps), operatorFee);\n        }\n\n        if(delegatorsReward != 0) {\n            ss.setTotalStake(identityId, ss.totalStakes(identityId) + delegatorsReward);\n            sasV1.transferReward(address(ss), delegatorsReward);\n\n            if (\n                !shardingTableStorage.nodeExists(identityId) &&\n                ss.totalStakes(identityId) >= parametersStorage.minimumStake()\n            ) {\n                shardingTableContract.pushBack(identityId);\n            }\n        }\n\n        emit RewardAdded(identityId, ps.getNodeId(identityId), rewardAmount);\n    }\n\n    function slash(uint72 identityId) external onlyContracts {\n        // TBD\n    }\n\n    function setOperatorFee(uint72 identityId, uint8 operatorFee) external onlyAdmin(identityId) {\n        require(operatorFee <= 100, \"Operator fee out of [0, 100]\");\n        stakingStorage.setOperatorFee(identityId, operatorFee);\n\n        emit OperatorFeeUpdated(identityId, profileStorage.getNodeId(identityId), operatorFee);\n    }\n\n    function _addStake(address sender, uint72 identityId, uint96 stakeAmount) internal {\n        StakingStorage ss = stakingStorage;\n        ProfileStorage ps = profileStorage;\n        ParametersStorage params = parametersStorage;\n        IERC20 tknc = tokenContract;\n\n        require(ps.profileExists(identityId), \"Profile doesn't exist\");\n        require(tknc.allowance(sender, address(this)) >= stakeAmount, \"Allowance < stakeAmount\");\n        require(\n            (stakeAmount + ss.totalStakes(identityId)) <= params.maximumStake(),\n            \"Exceeded the maximum stake\"\n        );\n\n        Shares sharesContract = Shares(ps.getSharesContractAddress(identityId));\n\n        uint256 sharesMinted;\n        if(sharesContract.totalSupply() == 0) {\n            sharesMinted = stakeAmount;\n        } else {\n            sharesMinted = (\n                stakeAmount * sharesContract.totalSupply() / ss.totalStakes(identityId)\n            );\n        }\n        sharesContract.mint(sender, sharesMinted);\n\n        ss.setTotalStake(identityId, ss.totalStakes(identityId) + stakeAmount);\n        tknc.transferFrom(sender, address(ss), stakeAmount);\n\n        if (\n            !shardingTableStorage.nodeExists(identityId) &&\n            ss.totalStakes(identityId) >= params.minimumStake()\n        ) {\n            shardingTableContract.pushBack(identityId);\n        }\n\n        emit StakeIncreased(identityId, ps.getNodeId(identityId), sender, stakeAmount);\n    }\n\n    function _checkHubOwner() internal view virtual {\n\t\trequire(msg.sender == hub.owner(), \"Fn can only be used by hub owner\");\n\t}\n\n    function _checkHub() internal view virtual {\n        require(hub.isContract(msg.sender), \"Fn can only be called by the hub\");\n    }\n\n    function _checkAdmin(uint72 identityId) internal view virtual {\n        require(\n            identityStorage.keyHasPurpose(identityId, keccak256(abi.encodePacked(msg.sender)), ADMIN_KEY),\n            \"Admin function\"\n        );\n    }\n\n}\n",
  "sourcePath": "/Users/waving/Desktop/OriginTrail/dkg-evm-module/contracts/Staking.sol",
  "compiler": {
    "name": "solc",
    "version": "0.8.16+commit.07a7930e.Emscripten.clang"
  },
  "schemaVersion": "3.4.10",
  "updatedAt": "2022-12-09T11:22:31.871Z",
  "devdoc": {
    "kind": "dev",
    "methods": {},
    "version": 1
  },
  "userdoc": {
    "kind": "user",
    "methods": {},
    "version": 1
  }
}