{
  "contractName": "StakingStorage",
  "abi": [
    {
      "inputs": [
        {
          "internalType": "address",
          "name": "hubAddress",
          "type": "address"
        }
      ],
      "stateMutability": "nonpayable",
      "type": "constructor"
    },
    {
      "inputs": [],
      "name": "hub",
      "outputs": [
        {
          "internalType": "contract Hub",
          "name": "",
          "type": "address"
        }
      ],
      "stateMutability": "view",
      "type": "function",
      "constant": true
    },
    {
      "inputs": [
        {
          "internalType": "uint72",
          "name": "",
          "type": "uint72"
        }
      ],
      "name": "operatorFees",
      "outputs": [
        {
          "internalType": "uint96",
          "name": "",
          "type": "uint96"
        }
      ],
      "stateMutability": "view",
      "type": "function",
      "constant": true
    },
    {
      "inputs": [],
      "name": "tokenContract",
      "outputs": [
        {
          "internalType": "contract IERC20",
          "name": "",
          "type": "address"
        }
      ],
      "stateMutability": "view",
      "type": "function",
      "constant": true
    },
    {
      "inputs": [
        {
          "internalType": "uint72",
          "name": "",
          "type": "uint72"
        }
      ],
      "name": "totalStakes",
      "outputs": [
        {
          "internalType": "uint96",
          "name": "",
          "type": "uint96"
        }
      ],
      "stateMutability": "view",
      "type": "function",
      "constant": true
    },
    {
      "inputs": [
        {
          "internalType": "uint72",
          "name": "",
          "type": "uint72"
        },
        {
          "internalType": "address",
          "name": "",
          "type": "address"
        }
      ],
      "name": "withdrawalRequests",
      "outputs": [
        {
          "internalType": "uint96",
          "name": "amount",
          "type": "uint96"
        },
        {
          "internalType": "uint256",
          "name": "timestamp",
          "type": "uint256"
        }
      ],
      "stateMutability": "view",
      "type": "function",
      "constant": true
    },
    {
      "inputs": [],
      "name": "initialize",
      "outputs": [],
      "stateMutability": "nonpayable",
      "type": "function"
    },
    {
      "inputs": [],
      "name": "name",
      "outputs": [
        {
          "internalType": "string",
          "name": "",
          "type": "string"
        }
      ],
      "stateMutability": "pure",
      "type": "function",
      "constant": true
    },
    {
      "inputs": [],
      "name": "version",
      "outputs": [
        {
          "internalType": "string",
          "name": "",
          "type": "string"
        }
      ],
      "stateMutability": "pure",
      "type": "function",
      "constant": true
    },
    {
      "inputs": [
        {
          "internalType": "uint72",
          "name": "identityId",
          "type": "uint72"
        },
        {
          "internalType": "uint96",
          "name": "newTotalStake",
          "type": "uint96"
        }
      ],
      "name": "setTotalStake",
      "outputs": [],
      "stateMutability": "nonpayable",
      "type": "function"
    },
    {
      "inputs": [
        {
          "internalType": "uint72",
          "name": "identityId",
          "type": "uint72"
        },
        {
          "internalType": "uint96",
          "name": "operatorFee",
          "type": "uint96"
        }
      ],
      "name": "setOperatorFee",
      "outputs": [],
      "stateMutability": "nonpayable",
      "type": "function"
    },
    {
      "inputs": [
        {
          "internalType": "uint72",
          "name": "identityId",
          "type": "uint72"
        },
        {
          "internalType": "address",
          "name": "staker",
          "type": "address"
        },
        {
          "internalType": "uint96",
          "name": "amount",
          "type": "uint96"
        },
        {
          "internalType": "uint256",
          "name": "timestamp",
          "type": "uint256"
        }
      ],
      "name": "createWithdrawalRequest",
      "outputs": [],
      "stateMutability": "nonpayable",
      "type": "function"
    },
    {
      "inputs": [
        {
          "internalType": "uint72",
          "name": "identityId",
          "type": "uint72"
        },
        {
          "internalType": "address",
          "name": "staker",
          "type": "address"
        }
      ],
      "name": "deleteWithdrawalRequest",
      "outputs": [],
      "stateMutability": "nonpayable",
      "type": "function"
    },
    {
      "inputs": [
        {
          "internalType": "uint72",
          "name": "identityId",
          "type": "uint72"
        },
        {
          "internalType": "address",
          "name": "staker",
          "type": "address"
        }
      ],
      "name": "getWithdrawalRequestAmount",
      "outputs": [
        {
          "internalType": "uint96",
          "name": "",
          "type": "uint96"
        }
      ],
      "stateMutability": "view",
      "type": "function",
      "constant": true
    },
    {
      "inputs": [
        {
          "internalType": "uint72",
          "name": "identityId",
          "type": "uint72"
        },
        {
          "internalType": "address",
          "name": "staker",
          "type": "address"
        }
      ],
      "name": "getWithdrawalRequestTimestamp",
      "outputs": [
        {
          "internalType": "uint256",
          "name": "",
          "type": "uint256"
        }
      ],
      "stateMutability": "view",
      "type": "function",
      "constant": true
    },
    {
      "inputs": [
        {
          "internalType": "uint72",
          "name": "identityId",
          "type": "uint72"
        },
        {
          "internalType": "address",
          "name": "staker",
          "type": "address"
        }
      ],
      "name": "withdrawalRequestExists",
      "outputs": [
        {
          "internalType": "bool",
          "name": "",
          "type": "bool"
        }
      ],
      "stateMutability": "view",
      "type": "function",
      "constant": true
    },
    {
      "inputs": [
        {
          "internalType": "address",
          "name": "receiver",
          "type": "address"
        },
        {
          "internalType": "uint96",
          "name": "stakeAmount",
          "type": "uint96"
        }
      ],
      "name": "transferStake",
      "outputs": [],
      "stateMutability": "nonpayable",
      "type": "function"
    }
  ],
  "bytecode": "0x608060405234801561001057600080fd5b50604051610cea380380610cea83398101604081905261002f916101f2565b6001600160a01b03811661004257600080fd5b600080546001600160a01b0319166001600160a01b03831617905561006561006b565b50610222565b610073610117565b600054604051630110ceef60e21b81526020600482015260056024820152642a37b5b2b760d91b60448201526001600160a01b03909116906304433bbc90606401602060405180830381865afa1580156100d1573d6000803e3d6000fd5b505050506040513d601f19601f820116820180604052508101906100f591906101f2565b600180546001600160a01b0319166001600160a01b0392909216919091179055565b60008054906101000a90046001600160a01b03166001600160a01b0316638da5cb5b6040518163ffffffff1660e01b8152600401602060405180830381865afa158015610168573d6000803e3d6000fd5b505050506040513d601f19601f8201168201806040525081019061018c91906101f2565b6001600160a01b0316336001600160a01b0316146101f05760405162461bcd60e51b815260206004820181905260248201527f466e2063616e206f6e6c79206265207573656420627920687562206f776e6572604482015260640160405180910390fd5b565b60006020828403121561020457600080fd5b81516001600160a01b038116811461021b57600080fd5b9392505050565b610ab9806102316000396000f3fe608060405234801561001057600080fd5b50600436106101005760003560e01c80635611f9a311610097578063ac37a2fb11610066578063ac37a2fb1461033d578063b63365ca1461038f578063dc99106f146103a2578063dedac1ae146103b557600080fd5b80635611f9a3146102e45780638129fc1c146102f95780639d2b48ad14610301578063a88021cb1461032a57600080fd5b8063365a86fc116100d3578063365a86fc146102295780633825b66d1461025457806354fd4d50146102b057806355a373d6146102d157600080fd5b806306fdde03146101055780632347e51714610141578063299d9094146101a3578063330eece214610200575b600080fd5b60408051808201909152600e81526d5374616b696e6753746f7261676560901b60208201525b60405161013891906108b4565b60405180910390f35b61018b61014f366004610936565b6001600160481b03821660009081526004602090815260408083206001600160a01b03851684529091529020546001600160601b031692915050565b6040516001600160601b039091168152602001610138565b6101e16101b1366004610936565b6004602090815260009283526040808420909152908252902080546001909101546001600160601b039091169082565b604080516001600160601b039093168352602083019190915201610138565b61018b61020e36600461096d565b6003602052600090815260409020546001600160601b031681565b60005461023c906001600160a01b031681565b6040516001600160a01b039091168152602001610138565b6102a0610262366004610936565b6001600160481b03821660009081526004602090815260408083206001600160a01b03851684529091529020546001600160601b0316151592915050565b6040519015158152602001610138565b6040805180820190915260058152640312e302e360dc1b602082015261012b565b60015461023c906001600160a01b031681565b6102f76102f23660046109a6565b6103c8565b005b6102f7610409565b61018b61030f36600461096d565b6002602052600090815260409020546001600160601b031681565b6102f7610338366004610936565b6104b5565b61038161034b366004610936565b6001600160481b03821660009081526004602090815260408083206001600160a01b038516845290915290206001015492915050565b604051908152602001610138565b6102f761039d3660046109a6565b610500565b6102f76103b03660046109d9565b610541565b6102f76103c3366004610a26565b6105b0565b6103d061063c565b6001600160481b0391909116600090815260026020526040902080546001600160601b0319166001600160601b03909216919091179055565b6104116106fb565b600054604051630110ceef60e21b81526020600482015260056024820152642a37b5b2b760d91b60448201526001600160a01b03909116906304433bbc90606401602060405180830381865afa15801561046f573d6000803e3d6000fd5b505050506040513d601f19601f820116820180604052508101906104939190610a44565b600180546001600160a01b0319166001600160a01b0392909216919091179055565b6104bd61063c565b6001600160481b0390911660009081526004602090815260408083206001600160a01b03909416835292905290812080546001600160601b031916815560010155565b61050861063c565b6001600160481b0391909116600090815260036020526040902080546001600160601b0319166001600160601b03909216919091179055565b61054961063c565b6040805180820182526001600160601b03938416815260208082019384526001600160481b039096166000908152600487528281206001600160a01b039096168152949095529092209251835491166001600160601b031990911617825551600190910155565b6105b86107d0565b60015460405163a9059cbb60e01b81526001600160a01b0384811660048301526001600160601b03841660248301529091169063a9059cbb906044016020604051808303816000875af1158015610613573d6000803e3d6000fd5b505050506040513d601f19601f820116820180604052508101906106379190610a61565b505050565b600054604051631627905560e01b81523360048201526001600160a01b0390911690631627905590602401602060405180830381865afa158015610684573d6000803e3d6000fd5b505050506040513d601f19601f820116820180604052508101906106a89190610a61565b6106f95760405162461bcd60e51b815260206004820181905260248201527f466e2063616e206f6e6c792062652063616c6c6564206279207468652068756260448201526064015b60405180910390fd5b565b60008054906101000a90046001600160a01b03166001600160a01b0316638da5cb5b6040518163ffffffff1660e01b8152600401602060405180830381865afa15801561074c573d6000803e3d6000fd5b505050506040513d601f19601f820116820180604052508101906107709190610a44565b6001600160a01b0316336001600160a01b0316146106f95760405162461bcd60e51b815260206004820181905260248201527f466e2063616e206f6e6c79206265207573656420627920687562206f776e657260448201526064016106f0565b600054604051630110ceef60e21b81526020600482015260076024820152665374616b696e6760c81b60448201526001600160a01b03909116906304433bbc90606401602060405180830381865afa158015610830573d6000803e3d6000fd5b505050506040513d601f19601f820116820180604052508101906108549190610a44565b6001600160a01b0316336001600160a01b0316146106f95760405162461bcd60e51b815260206004820181905260248201527f466e2063616e206f6e6c792062652063616c6c6564206279205374616b696e6760448201526064016106f0565b600060208083528351808285015260005b818110156108e1578581018301518582016040015282016108c5565b506000604082860101526040601f19601f8301168501019250505092915050565b80356001600160481b038116811461091957600080fd5b919050565b6001600160a01b038116811461093357600080fd5b50565b6000806040838503121561094957600080fd5b61095283610902565b915060208301356109628161091e565b809150509250929050565b60006020828403121561097f57600080fd5b61098882610902565b9392505050565b80356001600160601b038116811461091957600080fd5b600080604083850312156109b957600080fd5b6109c283610902565b91506109d06020840161098f565b90509250929050565b600080600080608085870312156109ef57600080fd5b6109f885610902565b93506020850135610a088161091e565b9250610a166040860161098f565b9396929550929360600135925050565b60008060408385031215610a3957600080fd5b82356109c28161091e565b600060208284031215610a5657600080fd5b81516109888161091e565b600060208284031215610a7357600080fd5b8151801515811461098857600080fdfea2646970667358221220d3d80578567e9e625f34b50eac35ddcc03cd6823c4badb417fd21ea00b3a066764736f6c63430008100033",
  "immutableReferences": {},
  "source": "// SPDX-License-Identifier: MIT\n\npragma solidity ^0.8.4;\n\nimport { Hub } from \"../Hub.sol\";\nimport { Named } from \"../interface/Named.sol\";\nimport { Versioned } from \"../interface/Versioned.sol\";\nimport { IERC20 } from \"@openzeppelin/contracts/token/ERC20/IERC20.sol\";\n\ncontract StakingStorage is Named, Versioned {\n\n    string constant private _NAME = \"StakingStorage\";\n    string constant private _VERSION = \"1.0.0\";\n\n    struct WithdrawalRequest {\n        uint96 amount;\n        uint256 timestamp;\n    }\n\n    Hub public hub;\n    IERC20 public tokenContract;\n\n    // identityId => totalStake\n    mapping(uint72 => uint96) public totalStakes;\n\n    // identityId => operatorFee\n    mapping(uint72 => uint96) public operatorFees;\n\n    // identityId => withdrawalRequest\n    mapping(uint72 => mapping(address => WithdrawalRequest)) public withdrawalRequests;\n\n\n    constructor(address hubAddress) {\n        require(hubAddress != address(0));\n\n        hub = Hub(hubAddress);\n        initialize();\n    }\n\n    function initialize() public onlyHubOwner {\n        tokenContract = IERC20(hub.getContractAddress(\"Token\"));\n    }\n\n    modifier onlyHubOwner() {\n        _checkHubOwner();\n        _;\n    }\n\n    modifier onlyContracts() {\n        _checkHub();\n        _;\n    }\n\n    modifier onlyStakingContract() {\n        _checkStaking();\n        _;\n    }\n\n    function name() external pure virtual override returns (string memory) {\n        return _NAME;\n    }\n\n    function version() external pure virtual override returns (string memory) {\n        return _VERSION;\n    }\n\n    function setTotalStake(uint72 identityId, uint96 newTotalStake) external onlyContracts {\n        totalStakes[identityId] = newTotalStake;\n    }\n\n    function setOperatorFee(uint72 identityId, uint96 operatorFee) external onlyContracts {\n        operatorFees[identityId] = operatorFee;\n    }\n\n    function createWithdrawalRequest(uint72 identityId, address staker, uint96 amount, uint256 timestamp)\n        external\n        onlyContracts\n    {\n        withdrawalRequests[identityId][staker] = WithdrawalRequest({\n            amount: amount,\n            timestamp: timestamp\n        });\n    }\n\n    function deleteWithdrawalRequest(uint72 identityId, address staker) external onlyContracts {\n        delete withdrawalRequests[identityId][staker];\n    }\n\n    function getWithdrawalRequestAmount(uint72 identityId, address staker) external view returns (uint96) {\n        return withdrawalRequests[identityId][staker].amount;\n    }\n\n    function getWithdrawalRequestTimestamp(uint72 identityId, address staker) external view returns (uint256) {\n        return withdrawalRequests[identityId][staker].timestamp;\n    }\n\n    function withdrawalRequestExists(uint72 identityId, address staker) external view returns (bool) {\n        return withdrawalRequests[identityId][staker].amount != 0;\n    }\n\n    function transferStake(address receiver, uint96 stakeAmount) external onlyStakingContract {\n        tokenContract.transfer(receiver, stakeAmount);\n    }\n\n    function _checkHub() internal view virtual {\n        require(hub.isContract(msg.sender), \"Fn can only be called by the hub\");\n    }\n\n    function _checkHubOwner() internal view virtual {\n        require(msg.sender == hub.owner(), \"Fn can only be used by hub owner\");\n    }\n\n    function _checkStaking() internal view virtual {\n        require(msg.sender == hub.getContractAddress(\"Staking\"), \"Fn can only be called by Staking\");\n    }\n\n}\n",
  "sourcePath": "/Users/djordjekovacevic/Desktop/projects/dkg-evm-module/contracts/storage/StakingStorage.sol",
  "compiler": {
    "name": "solc",
    "version": "0.8.16+commit.07a7930e.Emscripten.clang"
  },
  "schemaVersion": "3.4.10",
  "updatedAt": "2022-12-06T17:21:37.236Z",
  "networkType": "ethereum",
  "devdoc": {
    "kind": "dev",
    "methods": {},
    "version": 1
  },
  "userdoc": {
    "kind": "user",
    "methods": {},
    "version": 1
  }
}