{
  "contractName": "StakingStorage",
  "abi": [
    {
      "inputs": [
        {
          "internalType": "address",
          "name": "hubAddress",
          "type": "address"
        }
      ],
      "stateMutability": "nonpayable",
      "type": "constructor"
    },
    {
      "inputs": [],
      "name": "hub",
      "outputs": [
        {
          "internalType": "contract Hub",
          "name": "",
          "type": "address"
        }
      ],
      "stateMutability": "view",
      "type": "function"
    },
    {
      "inputs": [
        {
          "internalType": "uint72",
          "name": "",
          "type": "uint72"
        }
      ],
      "name": "operatorFees",
      "outputs": [
        {
          "internalType": "uint96",
          "name": "",
          "type": "uint96"
        }
      ],
      "stateMutability": "view",
      "type": "function"
    },
    {
      "inputs": [],
      "name": "tokenContract",
      "outputs": [
        {
          "internalType": "contract IERC20",
          "name": "",
          "type": "address"
        }
      ],
      "stateMutability": "view",
      "type": "function"
    },
    {
      "inputs": [
        {
          "internalType": "uint72",
          "name": "",
          "type": "uint72"
        }
      ],
      "name": "totalStakes",
      "outputs": [
        {
          "internalType": "uint96",
          "name": "",
          "type": "uint96"
        }
      ],
      "stateMutability": "view",
      "type": "function"
    },
    {
      "inputs": [
        {
          "internalType": "uint72",
          "name": "identityId",
          "type": "uint72"
        },
        {
          "internalType": "uint96",
          "name": "totalStake",
          "type": "uint96"
        },
        {
          "internalType": "uint96",
          "name": "operatorFee",
          "type": "uint96"
        }
      ],
      "name": "initializeStaking",
      "outputs": [],
      "stateMutability": "nonpayable",
      "type": "function"
    },
    {
      "inputs": [
        {
          "internalType": "uint72",
          "name": "identityId",
          "type": "uint72"
        },
        {
          "internalType": "uint96",
          "name": "newTotalStake",
          "type": "uint96"
        }
      ],
      "name": "setTotalStake",
      "outputs": [],
      "stateMutability": "nonpayable",
      "type": "function"
    },
    {
      "inputs": [
        {
          "internalType": "uint72",
          "name": "identityId",
          "type": "uint72"
        },
        {
          "internalType": "uint96",
          "name": "operatorFee",
          "type": "uint96"
        }
      ],
      "name": "setOperatorFee",
      "outputs": [],
      "stateMutability": "nonpayable",
      "type": "function"
    },
    {
      "inputs": [
        {
          "internalType": "address",
          "name": "receiver",
          "type": "address"
        },
        {
          "internalType": "uint96",
          "name": "stakeAmount",
          "type": "uint96"
        }
      ],
      "name": "transferStake",
      "outputs": [],
      "stateMutability": "nonpayable",
      "type": "function"
    }
  ],
  "bytecode": "0x608060405234801561001057600080fd5b506040516108c03803806108c083398101604081905261002f916100f9565b6001600160a01b03811661004257600080fd5b600080546001600160a01b0319166001600160a01b038316908117909155604051630110ceef60e21b81526020600482015260056024820152642a37b5b2b760d91b60448201526304433bbc90606401602060405180830381865afa1580156100af573d6000803e3d6000fd5b505050506040513d601f19601f820116820180604052508101906100d391906100f9565b600180546001600160a01b0319166001600160a01b039290921691909117905550610129565b60006020828403121561010b57600080fd5b81516001600160a01b038116811461012257600080fd5b9392505050565b610788806101386000396000f3fe608060405234801561001057600080fd5b50600436106100885760003560e01c80639d2b48ad1161005b5780639d2b48ad14610157578063b63365ca14610185578063dedac1ae14610198578063e7f3263a146101ab57600080fd5b8063330eece21461008d578063365a86fc146100dd57806355a373d6146101225780635611f9a314610142575b600080fd5b6100bb61009b36600461061c565b6003602052600090815260409020546bffffffffffffffffffffffff1681565b6040516bffffffffffffffffffffffff90911681526020015b60405180910390f35b6000546100fd9073ffffffffffffffffffffffffffffffffffffffff1681565b60405173ffffffffffffffffffffffffffffffffffffffff90911681526020016100d4565b6001546100fd9073ffffffffffffffffffffffffffffffffffffffff1681565b61015561015036600461065a565b6101be565b005b6100bb61016536600461061c565b6002602052600090815260409020546bffffffffffffffffffffffff1681565b61015561019336600461065a565b61021e565b6101556101a63660046106b2565b61027e565b6101556101b93660046106d0565b610335565b6101c66103ab565b68ffffffffffffffffff91909116600090815260026020526040902080547fffffffffffffffffffffffffffffffffffffffff000000000000000000000000166bffffffffffffffffffffffff909216919091179055565b6102266103ab565b68ffffffffffffffffff91909116600090815260036020526040902080547fffffffffffffffffffffffffffffffffffffffff000000000000000000000000166bffffffffffffffffffffffff909216919091179055565b6102866104aa565b6001546040517fa9059cbb00000000000000000000000000000000000000000000000000000000815273ffffffffffffffffffffffffffffffffffffffff84811660048301526bffffffffffffffffffffffff841660248301529091169063a9059cbb906044016020604051808303816000875af115801561030c573d6000803e3d6000fd5b505050506040513d601f19601f820116820180604052508101906103309190610713565b505050565b61033d6103ab565b68ffffffffffffffffff92909216600090815260026020908152604080832080546bffffffffffffffffffffffff9586167fffffffffffffffffffffffffffffffffffffffff0000000000000000000000009182161790915560039092529091208054929093169116179055565b6000546040517f1627905500000000000000000000000000000000000000000000000000000000815233600482015273ffffffffffffffffffffffffffffffffffffffff90911690631627905590602401602060405180830381865afa158015610419573d6000803e3d6000fd5b505050506040513d601f19601f8201168201806040525081019061043d9190610713565b6104a8576040517f08c379a000000000000000000000000000000000000000000000000000000000815260206004820181905260248201527f466e2063616e206f6e6c792062652063616c6c6564206279207468652068756260448201526064015b60405180910390fd5b565b6000546040517f04433bbc00000000000000000000000000000000000000000000000000000000815260206004820152600760248201527f5374616b696e6700000000000000000000000000000000000000000000000000604482015273ffffffffffffffffffffffffffffffffffffffff909116906304433bbc90606401602060405180830381865afa158015610546573d6000803e3d6000fd5b505050506040513d601f19601f8201168201806040525081019061056a9190610735565b73ffffffffffffffffffffffffffffffffffffffff163373ffffffffffffffffffffffffffffffffffffffff16146104a8576040517f08c379a000000000000000000000000000000000000000000000000000000000815260206004820181905260248201527f466e2063616e206f6e6c792062652063616c6c6564206279205374616b696e67604482015260640161049f565b803568ffffffffffffffffff8116811461061757600080fd5b919050565b60006020828403121561062e57600080fd5b610637826105fe565b9392505050565b80356bffffffffffffffffffffffff8116811461061757600080fd5b6000806040838503121561066d57600080fd5b610676836105fe565b91506106846020840161063e565b90509250929050565b73ffffffffffffffffffffffffffffffffffffffff811681146106af57600080fd5b50565b600080604083850312156106c557600080fd5b82356106768161068d565b6000806000606084860312156106e557600080fd5b6106ee846105fe565b92506106fc6020850161063e565b915061070a6040850161063e565b90509250925092565b60006020828403121561072557600080fd5b8151801515811461063757600080fd5b60006020828403121561074757600080fd5b81516106378161068d56fea26469706673582212208a870c681c6a46a716e974329be93f500b6fe42fe68628a439875b810baf6eba64736f6c634300080e0033",
  "immutableReferences": {},
  "source": "// SPDX-License-Identifier: MIT\n\npragma solidity ^0.8.0;\n\nimport { Hub } from \"../Hub.sol\";\nimport { IERC20 } from \"@openzeppelin/contracts/token/ERC20/IERC20.sol\";\n\ncontract StakingStorage {\n\n    Hub public hub;\n    IERC20 public tokenContract;\n\n    // identityId => totalStake\n    mapping(uint72 => uint96) public totalStakes;\n\n    // identityId => operatorFee\n    mapping(uint72 => uint96) public operatorFees;\n\n    constructor(address hubAddress) {\n        require(hubAddress != address(0));\n\n        hub = Hub(hubAddress);\n        tokenContract = IERC20(hub.getContractAddress(\"Token\"));\n    }\n\n    modifier onlyContracts() {\n        _checkHub();\n        _;\n    }\n\n    modifier onlyStakingContract() {\n        _checkStaking();\n        _;\n    }\n\n    function initializeStaking(uint72 identityId, uint96 totalStake, uint96 operatorFee) external onlyContracts {\n        totalStakes[identityId] = totalStake;\n        operatorFees[identityId] = operatorFee;\n    }\n\n    function setTotalStake(uint72 identityId, uint96 newTotalStake) external onlyContracts {\n        totalStakes[identityId] = newTotalStake;\n    }\n\n    function setOperatorFee(uint72 identityId, uint96 operatorFee) external onlyContracts {\n        operatorFees[identityId] = operatorFee;\n    }\n\n    function transferStake(address receiver, uint96 stakeAmount) external onlyStakingContract {\n        tokenContract.transfer(receiver, stakeAmount);\n    }\n\n    function _checkHub() internal view virtual {\n        require(hub.isContract(msg.sender), \"Fn can only be called by the hub\");\n    }\n\n    function _checkStaking() internal view virtual {\n        require(msg.sender == hub.getContractAddress(\"Staking\"), \"Fn can only be called by Staking\");\n    }\n\n}\n",
  "sourcePath": "/Users/waving/Desktop/OriginTrail/dkg-evm-module/contracts/storage/StakingStorage.sol",
  "compiler": {
    "name": "solc",
    "version": "0.8.14+commit.80d49f37.Emscripten.clang"
  },
  "schemaVersion": "3.4.10",
  "updatedAt": "2022-12-02T16:52:10.473Z",
  "devdoc": {
    "kind": "dev",
    "methods": {},
    "version": 1
  },
  "userdoc": {
    "kind": "user",
    "methods": {},
    "version": 1
  }
}