{
  "contractName": "Staking",
  "abi": [
    {
      "inputs": [
        {
          "internalType": "address",
          "name": "hubAddress",
          "type": "address"
        }
      ],
      "stateMutability": "nonpayable",
      "type": "constructor"
    },
    {
      "anonymous": false,
      "inputs": [
        {
          "indexed": true,
          "internalType": "uint72",
          "name": "identityId",
          "type": "uint72"
        },
        {
          "indexed": false,
          "internalType": "uint96",
          "name": "rewardAmount",
          "type": "uint96"
        }
      ],
      "name": "RewardAdded",
      "type": "event"
    },
    {
      "anonymous": false,
      "inputs": [
        {
          "indexed": true,
          "internalType": "uint72",
          "name": "identityId",
          "type": "uint72"
        },
        {
          "indexed": true,
          "internalType": "address",
          "name": "staker",
          "type": "address"
        },
        {
          "indexed": false,
          "internalType": "uint96",
          "name": "newStakeAmount",
          "type": "uint96"
        }
      ],
      "name": "StakeIncreased",
      "type": "event"
    },
    {
      "anonymous": false,
      "inputs": [
        {
          "indexed": true,
          "internalType": "uint72",
          "name": "identityId",
          "type": "uint72"
        },
        {
          "indexed": true,
          "internalType": "address",
          "name": "staker",
          "type": "address"
        },
        {
          "indexed": false,
          "internalType": "uint96",
          "name": "withdrawnStakeAmount",
          "type": "uint96"
        }
      ],
      "name": "StakeWithdrawn",
      "type": "event"
    },
    {
      "inputs": [],
      "name": "hub",
      "outputs": [
        {
          "internalType": "contract Hub",
          "name": "",
          "type": "address"
        }
      ],
      "stateMutability": "view",
      "type": "function"
    },
    {
      "inputs": [],
      "name": "identityStorage",
      "outputs": [
        {
          "internalType": "contract IdentityStorage",
          "name": "",
          "type": "address"
        }
      ],
      "stateMutability": "view",
      "type": "function"
    },
    {
      "inputs": [],
      "name": "parametersStorage",
      "outputs": [
        {
          "internalType": "contract ParametersStorage",
          "name": "",
          "type": "address"
        }
      ],
      "stateMutability": "view",
      "type": "function"
    },
    {
      "inputs": [],
      "name": "profileStorage",
      "outputs": [
        {
          "internalType": "contract ProfileStorage",
          "name": "",
          "type": "address"
        }
      ],
      "stateMutability": "view",
      "type": "function"
    },
    {
      "inputs": [],
      "name": "serviceAgreementStorageV1",
      "outputs": [
        {
          "internalType": "contract ServiceAgreementStorageV1",
          "name": "",
          "type": "address"
        }
      ],
      "stateMutability": "view",
      "type": "function"
    },
    {
      "inputs": [],
      "name": "shardingTableContract",
      "outputs": [
        {
          "internalType": "contract ShardingTable",
          "name": "",
          "type": "address"
        }
      ],
      "stateMutability": "view",
      "type": "function"
    },
    {
      "inputs": [],
      "name": "shardingTableStorage",
      "outputs": [
        {
          "internalType": "contract ShardingTableStorage",
          "name": "",
          "type": "address"
        }
      ],
      "stateMutability": "view",
      "type": "function"
    },
    {
      "inputs": [],
      "name": "stakingStorage",
      "outputs": [
        {
          "internalType": "contract StakingStorage",
          "name": "",
          "type": "address"
        }
      ],
      "stateMutability": "view",
      "type": "function"
    },
    {
      "inputs": [],
      "name": "tokenContract",
      "outputs": [
        {
          "internalType": "contract IERC20",
          "name": "",
          "type": "address"
        }
      ],
      "stateMutability": "view",
      "type": "function"
    },
    {
      "inputs": [
        {
          "internalType": "address",
          "name": "sender",
          "type": "address"
        },
        {
          "internalType": "uint72",
          "name": "identityId",
          "type": "uint72"
        },
        {
          "internalType": "uint96",
          "name": "stakeAmount",
          "type": "uint96"
        }
      ],
      "name": "addStake",
      "outputs": [],
      "stateMutability": "nonpayable",
      "type": "function"
    },
    {
      "inputs": [
        {
          "internalType": "uint72",
          "name": "identityId",
          "type": "uint72"
        },
        {
          "internalType": "uint96",
          "name": "stakeAmount",
          "type": "uint96"
        }
      ],
      "name": "addStake",
      "outputs": [],
      "stateMutability": "nonpayable",
      "type": "function"
    },
    {
      "inputs": [
        {
          "internalType": "uint72",
          "name": "identityId",
          "type": "uint72"
        },
        {
          "internalType": "uint96",
          "name": "sharesToBurn",
          "type": "uint96"
        }
      ],
      "name": "withdrawStake",
      "outputs": [],
      "stateMutability": "nonpayable",
      "type": "function"
    },
    {
      "inputs": [
        {
          "internalType": "uint72",
          "name": "identityId",
          "type": "uint72"
        },
        {
          "internalType": "uint96",
          "name": "rewardAmount",
          "type": "uint96"
        }
      ],
      "name": "addReward",
      "outputs": [],
      "stateMutability": "nonpayable",
      "type": "function"
    },
    {
      "inputs": [
        {
          "internalType": "uint72",
          "name": "identityId",
          "type": "uint72"
        }
      ],
      "name": "slash",
      "outputs": [],
      "stateMutability": "nonpayable",
      "type": "function"
    },
    {
      "inputs": [
        {
          "internalType": "uint72",
          "name": "identityId",
          "type": "uint72"
        },
        {
          "internalType": "uint8",
          "name": "operatorFee",
          "type": "uint8"
        }
      ],
      "name": "setOperatorFee",
      "outputs": [],
      "stateMutability": "nonpayable",
      "type": "function"
    }
  ],
  "bytecode": "0x60806040523480156200001157600080fd5b5060405162002bf238038062002bf2833981016040819052620000349162000593565b6001600160a01b0381166200004857600080fd5b600080546001600160a01b0319166001600160a01b038316908117909155604051630110ceef60e21b815260206004820152600d60248201526c5368617264696e675461626c6560981b60448201526304433bbc90606401602060405180830381865afa158015620000be573d6000803e3d6000fd5b505050506040513d601f19601f82011682018060405250810190620000e4919062000593565b600180546001600160a01b0319166001600160a01b03928316179055600054604051630110ceef60e21b815260206004820152600f60248201526e4964656e7469747953746f7261676560881b60448201529116906304433bbc90606401602060405180830381865afa15801562000160573d6000803e3d6000fd5b505050506040513d601f19601f8201168201806040525081019062000186919062000593565b600280546001600160a01b0319166001600160a01b03928316179055600054604051630110ceef60e21b8152602060048201526011602482015270506172616d657465727353746f7261676560781b60448201529116906304433bbc90606401602060405180830381865afa15801562000204573d6000803e3d6000fd5b505050506040513d601f19601f820116820180604052508101906200022a919062000593565b600380546001600160a01b0319166001600160a01b03928316179055600054604051630110ceef60e21b815260206004820152600e60248201526d50726f66696c6553746f7261676560901b60448201529116906304433bbc90606401602060405180830381865afa158015620002a5573d6000803e3d6000fd5b505050506040513d601f19601f82011682018060405250810190620002cb919062000593565b600480546001600160a01b039283166001600160a01b0319909116178155600054604051630110ceef60e21b81529216916304433bbc916200033091016020808252600e908201526d5374616b696e6753746f7261676560901b604082015260600190565b602060405180830381865afa1580156200034e573d6000803e3d6000fd5b505050506040513d601f19601f8201168201806040525081019062000374919062000593565b600580546001600160a01b0319166001600160a01b03928316179055600054604051630110ceef60e21b815260206004820152601960248201527f5365727669636541677265656d656e7453746f7261676556310000000000000060448201529116906304433bbc90606401602060405180830381865afa158015620003fe573d6000803e3d6000fd5b505050506040513d601f19601f8201168201806040525081019062000424919062000593565b600680546001600160a01b0319166001600160a01b03928316179055600054604051630110ceef60e21b815260206004820152601460248201527f5368617264696e675461626c6553746f7261676500000000000000000000000060448201529116906304433bbc90606401602060405180830381865afa158015620004ae573d6000803e3d6000fd5b505050506040513d601f19601f82011682018060405250810190620004d4919062000593565b600780546001600160a01b0319166001600160a01b03928316179055600054604051630110ceef60e21b81526020600482015260056024820152642a37b5b2b760d91b60448201529116906304433bbc90606401602060405180830381865afa15801562000546573d6000803e3d6000fd5b505050506040513d601f19601f820116820180604052508101906200056c919062000593565b600880546001600160a01b0319166001600160a01b039290921691909117905550620005c5565b600060208284031215620005a657600080fd5b81516001600160a01b0381168114620005be57600080fd5b9392505050565b61261d80620005d56000396000f3fe608060405234801561001057600080fd5b50600436106100f55760003560e01c8063823e2bc711610097578063c47408e311610066578063c47408e314610251578063d7ec3d7d14610264578063f11abfd814610277578063f42cb0381461029757600080fd5b8063823e2bc7146101eb57806397c596071461020b578063a7b5dd591461021e578063b518a00e1461023157600080fd5b806350d0c144116100d357806350d0c1441461016b57806355a373d61461018b578063639a86a3146101ab5780636b838a5a146101cb57600080fd5b806323ca47d3146100fa578063268d6de41461010f578063365a86fc14610122575b600080fd5b61010d610108366004612311565b6102b7565b005b61010d61011d36600461236a565b610b1d565b6000546101429073ffffffffffffffffffffffffffffffffffffffff1681565b60405173ffffffffffffffffffffffffffffffffffffffff909116815260200160405180910390f35b6006546101429073ffffffffffffffffffffffffffffffffffffffff1681565b6008546101429073ffffffffffffffffffffffffffffffffffffffff1681565b6003546101429073ffffffffffffffffffffffffffffffffffffffff1681565b6001546101429073ffffffffffffffffffffffffffffffffffffffff1681565b6007546101429073ffffffffffffffffffffffffffffffffffffffff1681565b61010d6102193660046123b3565b610b35565b61010d61022c366004612311565b610c49565b6005546101429073ffffffffffffffffffffffffffffffffffffffff1681565b61010d61025f366004612311565b6113c2565b61010d6102723660046123e5565b6113d1565b6002546101429073ffffffffffffffffffffffffffffffffffffffff1681565b6004546101429073ffffffffffffffffffffffffffffffffffffffff1681565b600480546040517fb8561a5400000000000000000000000000000000000000000000000000000000815268ffffffffffffffffff85169281019290925260009173ffffffffffffffffffffffffffffffffffffffff9091169063b8561a5490602401602060405180830381865afa158015610336573d6000803e3d6000fd5b505050506040513d601f19601f8201168201806040525081019061035a9190612407565b600480546040517fc04d7dcf00000000000000000000000000000000000000000000000000000000815292935073ffffffffffffffffffffffffffffffffffffffff169163c04d7dcf916103c19187910168ffffffffffffffffff91909116815260200190565b602060405180830381865afa1580156103de573d6000803e3d6000fd5b505050506040513d601f19601f820116820180604052508101906104029190612424565b61046d576040517f08c379a000000000000000000000000000000000000000000000000000000000815260206004820152601560248201527f50726f66696c6520646f65736e2774206578697374000000000000000000000060448201526064015b60405180910390fd5b600554600154600754604080517f18160ddd000000000000000000000000000000000000000000000000000000008152905173ffffffffffffffffffffffffffffffffffffffff948516949384169392831692600092908716916318160ddd916004808201926020929091908290030181865afa1580156104f2573d6000803e3d6000fd5b505050506040513d601f19601f820116820180604052508101906105169190612446565b6040517f9d2b48ad00000000000000000000000000000000000000000000000000000000815268ffffffffffffffffff891660048201526bffffffffffffffffffffffff88169073ffffffffffffffffffffffffffffffffffffffff871690639d2b48ad90602401602060405180830381865afa15801561059b573d6000803e3d6000fd5b505050506040513d601f19601f820116820180604052508101906105bf919061245f565b6bffffffffffffffffffffffff166105d791906124ab565b6105e19190612517565b6040517f79cc67900000000000000000000000000000000000000000000000000000000081523360048201526bffffffffffffffffffffffff8816602482015290915073ffffffffffffffffffffffffffffffffffffffff8616906379cc679090604401600060405180830381600087803b15801561065f57600080fd5b505af1158015610673573d6000803e3d6000fd5b50506008546040517fa9059cbb0000000000000000000000000000000000000000000000000000000081523360048201526024810185905273ffffffffffffffffffffffffffffffffffffffff909116925063a9059cbb91506044016020604051808303816000875af11580156106ee573d6000803e3d6000fd5b505050506040513d601f19601f820116820180604052508101906107129190612424565b506040517f9d2b48ad00000000000000000000000000000000000000000000000000000000815268ffffffffffffffffff8816600482015273ffffffffffffffffffffffffffffffffffffffff851690635611f9a390899084908490639d2b48ad90602401602060405180830381865afa158015610794573d6000803e3d6000fd5b505050506040513d601f19601f820116820180604052508101906107b8919061245f565b6107c2919061252b565b6040517fffffffff0000000000000000000000000000000000000000000000000000000060e085901b16815268ffffffffffffffffff90921660048301526bffffffffffffffffffffffff166024820152604401600060405180830381600087803b15801561083057600080fd5b505af1158015610844573d6000803e3d6000fd5b50506040517f5d68479c00000000000000000000000000000000000000000000000000000000815268ffffffffffffffffff8a16600482015273ffffffffffffffffffffffffffffffffffffffff85169250635d68479c9150602401602060405180830381865afa1580156108bd573d6000803e3d6000fd5b505050506040513d601f19601f820116820180604052508101906108e19190612424565b8015610a345750600360009054906101000a900473ffffffffffffffffffffffffffffffffffffffff1673ffffffffffffffffffffffffffffffffffffffff1663ec5ffac26040518163ffffffff1660e01b8152600401602060405180830381865afa158015610955573d6000803e3d6000fd5b505050506040513d601f19601f82011682018060405250810190610979919061245f565b6040517f9d2b48ad00000000000000000000000000000000000000000000000000000000815268ffffffffffffffffff891660048201526bffffffffffffffffffffffff919091169073ffffffffffffffffffffffffffffffffffffffff861690639d2b48ad90602401602060405180830381865afa158015610a00573d6000803e3d6000fd5b505050506040513d601f19601f82011682018060405250810190610a24919061245f565b6bffffffffffffffffffffffff16105b15610ac4576040517faf9c1ec600000000000000000000000000000000000000000000000000000000815268ffffffffffffffffff8816600482015273ffffffffffffffffffffffffffffffffffffffff84169063af9c1ec690602401600060405180830381600087803b158015610aab57600080fd5b505af1158015610abf573d6000803e3d6000fd5b505050505b6040516bffffffffffffffffffffffff82168152339068ffffffffffffffffff8916907f63332afe085584b5ce1379946f6afc1e530cfa52904e2bc9b8d401da0b4f2c479060200160405180910390a350505050505050565b610b256113dc565b610b308383836114d6565b505050565b81610b3f81612065565b60648260ff161115610bad576040517f08c379a000000000000000000000000000000000000000000000000000000000815260206004820152601c60248201527f4f70657261746f7220666565206f7574206f66205b302c203130305d000000006044820152606401610464565b6005546040517fb63365ca00000000000000000000000000000000000000000000000000000000815268ffffffffffffffffff8516600482015260ff8416602482015273ffffffffffffffffffffffffffffffffffffffff9091169063b63365ca90604401600060405180830381600087803b158015610c2c57600080fd5b505af1158015610c40573d6000803e3d6000fd5b50505050505050565b610c516113dc565b6006546005546040517f330eece200000000000000000000000000000000000000000000000000000000815268ffffffffffffffffff8516600482015273ffffffffffffffffffffffffffffffffffffffff9283169290911690600090606490839063330eece290602401602060405180830381865afa158015610cd9573d6000803e3d6000fd5b505050506040513d601f19601f82011682018060405250810190610cfd919061245f565b610d079086612558565b610d11919061258c565b90506000610d1f828661252b565b90506bffffffffffffffffffffffff821615610f0857600480546040517fc12b4c7600000000000000000000000000000000000000000000000000000000815268ffffffffffffffffff89169281019290925273ffffffffffffffffffffffffffffffffffffffff1690819063d0ea3fee9089908690849063c12b4c7690602401602060405180830381865afa158015610dbd573d6000803e3d6000fd5b505050506040513d601f19601f82011682018060405250810190610de1919061245f565b610deb91906125b7565b6040517fffffffff0000000000000000000000000000000000000000000000000000000060e085901b16815268ffffffffffffffffff90921660048301526bffffffffffffffffffffffff166024820152604401600060405180830381600087803b158015610e5957600080fd5b505af1158015610e6d573d6000803e3d6000fd5b50506040517fd2692b3100000000000000000000000000000000000000000000000000000000815273ffffffffffffffffffffffffffffffffffffffff84811660048301526bffffffffffffffffffffffff871660248301528816925063d2692b319150604401600060405180830381600087803b158015610eee57600080fd5b505af1158015610f02573d6000803e3d6000fd5b50505050505b6bffffffffffffffffffffffff81161561136c576040517f9d2b48ad00000000000000000000000000000000000000000000000000000000815268ffffffffffffffffff8716600482015273ffffffffffffffffffffffffffffffffffffffff841690635611f9a390889084908490639d2b48ad90602401602060405180830381865afa158015610f9d573d6000803e3d6000fd5b505050506040513d601f19601f82011682018060405250810190610fc1919061245f565b610fcb91906125b7565b6040517fffffffff0000000000000000000000000000000000000000000000000000000060e085901b16815268ffffffffffffffffff90921660048301526bffffffffffffffffffffffff166024820152604401600060405180830381600087803b15801561103957600080fd5b505af115801561104d573d6000803e3d6000fd5b50506040517fd2692b3100000000000000000000000000000000000000000000000000000000815273ffffffffffffffffffffffffffffffffffffffff86811660048301526bffffffffffffffffffffffff851660248301528716925063d2692b319150604401600060405180830381600087803b1580156110ce57600080fd5b505af11580156110e2573d6000803e3d6000fd5b50506007546040517f5d68479c00000000000000000000000000000000000000000000000000000000815268ffffffffffffffffff8a16600482015273ffffffffffffffffffffffffffffffffffffffff9091169250635d68479c9150602401602060405180830381865afa15801561115f573d6000803e3d6000fd5b505050506040513d601f19601f820116820180604052508101906111839190612424565b1580156112d85750600360009054906101000a900473ffffffffffffffffffffffffffffffffffffffff1673ffffffffffffffffffffffffffffffffffffffff1663ec5ffac26040518163ffffffff1660e01b8152600401602060405180830381865afa1580156111f8573d6000803e3d6000fd5b505050506040513d601f19601f8201168201806040525081019061121c919061245f565b6040517f9d2b48ad00000000000000000000000000000000000000000000000000000000815268ffffffffffffffffff881660048201526bffffffffffffffffffffffff919091169073ffffffffffffffffffffffffffffffffffffffff851690639d2b48ad90602401602060405180830381865afa1580156112a3573d6000803e3d6000fd5b505050506040513d601f19601f820116820180604052508101906112c7919061245f565b6bffffffffffffffffffffffff1610155b1561136c576001546040517f415942b100000000000000000000000000000000000000000000000000000000815268ffffffffffffffffff8816600482015273ffffffffffffffffffffffffffffffffffffffff9091169063415942b190602401600060405180830381600087803b15801561135357600080fd5b505af1158015611367573d6000803e3d6000fd5b505050505b6040516bffffffffffffffffffffffff8616815268ffffffffffffffffff8716907f1d3ef2493f5d6859bddc4ede4853e0e23c68a0e84edd5bca7543f9abd5ed0df49060200160405180910390a2505050505050565b6113cd3383836114d6565b5050565b6113d96113dc565b50565b6000546040517f1627905500000000000000000000000000000000000000000000000000000000815233600482015273ffffffffffffffffffffffffffffffffffffffff90911690631627905590602401602060405180830381865afa15801561144a573d6000803e3d6000fd5b505050506040513d601f19601f8201168201806040525081019061146e9190612424565b6114d4576040517f08c379a000000000000000000000000000000000000000000000000000000000815260206004820181905260248201527f466e2063616e206f6e6c792062652063616c6c656420627920746865206875626044820152606401610464565b565b6005546003546008546040517fdd62ed3e00000000000000000000000000000000000000000000000000000000815273ffffffffffffffffffffffffffffffffffffffff87811660048301523060248301529384169392831692909116906bffffffffffffffffffffffff851690829063dd62ed3e90604401602060405180830381865afa15801561156c573d6000803e3d6000fd5b505050506040513d601f19601f820116820180604052508101906115909190612446565b10156115f8576040517f08c379a000000000000000000000000000000000000000000000000000000000815260206004820152601760248201527f416c6c6f77616e6365203c207374616b65416d6f756e740000000000000000006044820152606401610464565b8173ffffffffffffffffffffffffffffffffffffffff1663b5c6b4536040518163ffffffff1660e01b8152600401602060405180830381865afa158015611643573d6000803e3d6000fd5b505050506040513d601f19601f82011682018060405250810190611667919061245f565b6040517f9d2b48ad00000000000000000000000000000000000000000000000000000000815268ffffffffffffffffff871660048201526bffffffffffffffffffffffff919091169073ffffffffffffffffffffffffffffffffffffffff851690639d2b48ad90602401602060405180830381865afa1580156116ee573d6000803e3d6000fd5b505050506040513d601f19601f82011682018060405250810190611712919061245f565b61171c90866125b7565b6bffffffffffffffffffffffff161115611792576040517f08c379a000000000000000000000000000000000000000000000000000000000815260206004820152601a60248201527f457863656564656420746865206d6178696d756d207374616b650000000000006044820152606401610464565b600480546040517fc04d7dcf00000000000000000000000000000000000000000000000000000000815268ffffffffffffffffff88169281019290925273ffffffffffffffffffffffffffffffffffffffff169063c04d7dcf90602401602060405180830381865afa15801561180c573d6000803e3d6000fd5b505050506040513d601f19601f820116820180604052508101906118309190612424565b611896576040517f08c379a000000000000000000000000000000000000000000000000000000000815260206004820152601560248201527f50726f66696c6520646f65736e277420657869737400000000000000000000006044820152606401610464565b600480546040517fb8561a5400000000000000000000000000000000000000000000000000000000815268ffffffffffffffffff88169281019290925260009173ffffffffffffffffffffffffffffffffffffffff9091169063b8561a5490602401602060405180830381865afa158015611915573d6000803e3d6000fd5b505050506040513d601f19601f820116820180604052508101906119399190612407565b905060008173ffffffffffffffffffffffffffffffffffffffff166318160ddd6040518163ffffffff1660e01b8152600401602060405180830381865afa158015611988573d6000803e3d6000fd5b505050506040513d601f19601f820116820180604052508101906119ac9190612446565b6000036119c857506bffffffffffffffffffffffff8516611b03565b6040517f9d2b48ad00000000000000000000000000000000000000000000000000000000815268ffffffffffffffffff8816600482015273ffffffffffffffffffffffffffffffffffffffff861690639d2b48ad90602401602060405180830381865afa158015611a3d573d6000803e3d6000fd5b505050506040513d601f19601f82011682018060405250810190611a61919061245f565b6bffffffffffffffffffffffff168273ffffffffffffffffffffffffffffffffffffffff166318160ddd6040518163ffffffff1660e01b8152600401602060405180830381865afa158015611aba573d6000803e3d6000fd5b505050506040513d601f19601f82011682018060405250810190611ade9190612446565b611af6906bffffffffffffffffffffffff89166124ab565b611b009190612517565b90505b6040517f40c10f1900000000000000000000000000000000000000000000000000000000815273ffffffffffffffffffffffffffffffffffffffff8981166004830152602482018390528316906340c10f1990604401600060405180830381600087803b158015611b7357600080fd5b505af1158015611b87573d6000803e3d6000fd5b50506040517f23b872dd00000000000000000000000000000000000000000000000000000000815273ffffffffffffffffffffffffffffffffffffffff8b8116600483015288811660248301526bffffffffffffffffffffffff8a166044830152861692506323b872dd91506064016020604051808303816000875af1158015611c15573d6000803e3d6000fd5b505050506040513d601f19601f82011682018060405250810190611c399190612424565b506040517f9d2b48ad00000000000000000000000000000000000000000000000000000000815268ffffffffffffffffff8816600482015273ffffffffffffffffffffffffffffffffffffffff861690635611f9a390899089908490639d2b48ad90602401602060405180830381865afa158015611cbb573d6000803e3d6000fd5b505050506040513d601f19601f82011682018060405250810190611cdf919061245f565b611ce991906125b7565b6040517fffffffff0000000000000000000000000000000000000000000000000000000060e085901b16815268ffffffffffffffffff90921660048301526bffffffffffffffffffffffff166024820152604401600060405180830381600087803b158015611d5757600080fd5b505af1158015611d6b573d6000803e3d6000fd5b50506007546040517f5d68479c00000000000000000000000000000000000000000000000000000000815268ffffffffffffffffff8b16600482015273ffffffffffffffffffffffffffffffffffffffff9091169250635d68479c9150602401602060405180830381865afa158015611de8573d6000803e3d6000fd5b505050506040513d601f19601f82011682018060405250810190611e0c9190612424565b158015611f615750600360009054906101000a900473ffffffffffffffffffffffffffffffffffffffff1673ffffffffffffffffffffffffffffffffffffffff1663ec5ffac26040518163ffffffff1660e01b8152600401602060405180830381865afa158015611e81573d6000803e3d6000fd5b505050506040513d601f19601f82011682018060405250810190611ea5919061245f565b6040517f9d2b48ad00000000000000000000000000000000000000000000000000000000815268ffffffffffffffffff891660048201526bffffffffffffffffffffffff919091169073ffffffffffffffffffffffffffffffffffffffff871690639d2b48ad90602401602060405180830381865afa158015611f2c573d6000803e3d6000fd5b505050506040513d601f19601f82011682018060405250810190611f50919061245f565b6bffffffffffffffffffffffff1610155b15611ff5576001546040517f415942b100000000000000000000000000000000000000000000000000000000815268ffffffffffffffffff8916600482015273ffffffffffffffffffffffffffffffffffffffff9091169063415942b190602401600060405180830381600087803b158015611fdc57600080fd5b505af1158015611ff0573d6000803e3d6000fd5b505050505b6040516bffffffffffffffffffffffff8716815273ffffffffffffffffffffffffffffffffffffffff89169068ffffffffffffffffff8916907fb7283b612ad83954735b1230d77b4c1cd6c5b5361fa8ab2bfda2e9b7aa3695e59060200160405180910390a35050505050505050565b6000546040517f04433bbc00000000000000000000000000000000000000000000000000000000815260206004820152600760248201527f50726f66696c6500000000000000000000000000000000000000000000000000604482015273ffffffffffffffffffffffffffffffffffffffff909116906304433bbc90606401602060405180830381865afa158015612101573d6000803e3d6000fd5b505050506040513d601f19601f820116820180604052508101906121259190612407565b73ffffffffffffffffffffffffffffffffffffffff163373ffffffffffffffffffffffffffffffffffffffff16148061227357506002546040517fffffffffffffffffffffffffffffffffffffffff0000000000000000000000003360601b16602082015273ffffffffffffffffffffffffffffffffffffffff909116906335e4fb7a908390603401604080517fffffffffffffffffffffffffffffffffffffffffffffffffffffffffffffffe08184030181529082905280516020909101207fffffffff0000000000000000000000000000000000000000000000000000000060e085901b16825268ffffffffffffffffff9092166004820152602481019190915260016044820152606401602060405180830381865afa15801561224f573d6000803e3d6000fd5b505050506040513d601f19601f820116820180604052508101906122739190612424565b6113d9576040517f08c379a000000000000000000000000000000000000000000000000000000000815260206004820152600e60248201527f41646d696e2066756e6374696f6e0000000000000000000000000000000000006044820152606401610464565b803568ffffffffffffffffff811681146122f257600080fd5b919050565b6bffffffffffffffffffffffff811681146113d957600080fd5b6000806040838503121561232457600080fd5b61232d836122d9565b9150602083013561233d816122f7565b809150509250929050565b73ffffffffffffffffffffffffffffffffffffffff811681146113d957600080fd5b60008060006060848603121561237f57600080fd5b833561238a81612348565b9250612398602085016122d9565b915060408401356123a8816122f7565b809150509250925092565b600080604083850312156123c657600080fd5b6123cf836122d9565b9150602083013560ff8116811461233d57600080fd5b6000602082840312156123f757600080fd5b612400826122d9565b9392505050565b60006020828403121561241957600080fd5b815161240081612348565b60006020828403121561243657600080fd5b8151801515811461240057600080fd5b60006020828403121561245857600080fd5b5051919050565b60006020828403121561247157600080fd5b8151612400816122f7565b7f4e487b7100000000000000000000000000000000000000000000000000000000600052601160045260246000fd5b6000817fffffffffffffffffffffffffffffffffffffffffffffffffffffffffffffffff04831182151516156124e3576124e361247c565b500290565b7f4e487b7100000000000000000000000000000000000000000000000000000000600052601260045260246000fd5b600082612526576125266124e8565b500490565b60006bffffffffffffffffffffffff838116908316818110156125505761255061247c565b039392505050565b60006bffffffffffffffffffffffff808316818516818304811182151516156125835761258361247c565b02949350505050565b60006bffffffffffffffffffffffff808416806125ab576125ab6124e8565b92169190910492915050565b60006bffffffffffffffffffffffff8083168185168083038211156125de576125de61247c565b0194935050505056fea264697066735822122080207e9e0662af210a6d5617b87c2de7f807ef722b15560122330f6b5acb745f64736f6c634300080e0033",
  "immutableReferences": {},
  "source": "// SPDX-License-Identifier: MIT\n\npragma solidity ^0.8.0;\n\nimport { Hub } from \"./Hub.sol\";\nimport { ShardingTable } from \"./ShardingTable.sol\";\nimport { Shares } from \"./Shares.sol\";\nimport { IdentityStorage } from \"./storage/IdentityStorage.sol\";\nimport { ParametersStorage } from \"./storage/ParametersStorage.sol\";\nimport { ProfileStorage } from \"./storage/ProfileStorage.sol\";\nimport { ServiceAgreementStorageV1 } from \"./storage/ServiceAgreementStorageV1.sol\";\nimport { ShardingTableStorage } from \"./storage/ShardingTableStorage.sol\";\nimport { StakingStorage } from \"./storage/StakingStorage.sol\";\nimport { ADMIN_KEY } from \"./constants/IdentityConstants.sol\";\nimport { IERC20 } from \"@openzeppelin/contracts/token/ERC20/IERC20.sol\";\n\ncontract Staking {\n\n    event StakeIncreased(\n        uint72 indexed identityId,\n        address indexed staker,\n        uint96 newStakeAmount\n    );\n    event StakeWithdrawn(\n        uint72 indexed identityId,\n        address indexed staker,\n        uint96 withdrawnStakeAmount\n    );\n    event RewardAdded(\n        uint72 indexed identityId,\n        uint96 rewardAmount\n    );\n\n    Hub public hub;\n    ShardingTable public shardingTableContract;\n    IdentityStorage public identityStorage;\n    ParametersStorage public parametersStorage;\n    ProfileStorage public profileStorage;\n    StakingStorage public stakingStorage;\n    ServiceAgreementStorageV1 public serviceAgreementStorageV1;\n    ShardingTableStorage public shardingTableStorage;\n    IERC20 public tokenContract;\n\n    constructor(address hubAddress) {\n        require(hubAddress != address(0));\n\n        hub = Hub(hubAddress);\n        shardingTableContract = ShardingTable(hub.getContractAddress(\"ShardingTable\"));\n        identityStorage = IdentityStorage(hub.getContractAddress(\"IdentityStorage\"));\n        parametersStorage = ParametersStorage(hub.getContractAddress(\"ParametersStorage\"));\n        profileStorage = ProfileStorage(hub.getContractAddress(\"ProfileStorage\"));\n        stakingStorage = StakingStorage(hub.getContractAddress(\"StakingStorage\"));\n        serviceAgreementStorageV1 = ServiceAgreementStorageV1(hub.getContractAddress(\"ServiceAgreementStorageV1\"));\n        shardingTableStorage = ShardingTableStorage(hub.getContractAddress(\"ShardingTableStorage\"));\n        tokenContract = IERC20(hub.getContractAddress(\"Token\"));\n    }\n\n    modifier onlyContracts() {\n        _checkHub();\n        _;\n    }\n\n    modifier onlyProfileOrAdmin(uint72 identityId) {\n        _checkProfileOrAdmin(identityId);\n        _;\n    }\n\n    function addStake(address sender, uint72 identityId, uint96 stakeAmount) external onlyContracts {\n        _addStake(sender, identityId, stakeAmount);\n    }\n\n    function addStake(uint72 identityId, uint96 stakeAmount) external {\n        _addStake(msg.sender, identityId, stakeAmount);\n    }\n\n    function withdrawStake(uint72 identityId, uint96 sharesToBurn) external {\n        Shares sharesContract = Shares(profileStorage.getSharesContractAddress(identityId));\n\n        require(profileStorage.profileExists(identityId), \"Profile doesn't exist\");\n\n        StakingStorage ss = stakingStorage;\n        ShardingTable stc = shardingTableContract;\n        ShardingTableStorage sts = shardingTableStorage;\n\n        // TODO: potential optimization of types\n        uint256 tokensWithdrawalAmount = (\n            uint256(ss.totalStakes(identityId)) * sharesToBurn / sharesContract.totalSupply()\n        );\n        sharesContract.burnFrom(msg.sender, sharesToBurn);\n\n        // TODO: when slashing starts, introduce delay\n\n        tokenContract.transfer(msg.sender, tokensWithdrawalAmount);\n\n        ss.setTotalStake(identityId, ss.totalStakes(identityId) - uint96(tokensWithdrawalAmount));\n\n        if (sts.nodeExists(identityId) && ss.totalStakes(identityId) < parametersStorage.minimumStake()) {\n            stc.removeNode(identityId);\n        }\n\n        emit StakeWithdrawn(identityId, msg.sender, uint96(tokensWithdrawalAmount));\n    }\n\n    function addReward(uint72 identityId, uint96 rewardAmount) external onlyContracts {\n        ServiceAgreementStorageV1 sasV1 = serviceAgreementStorageV1;\n        StakingStorage ss = stakingStorage;\n\n        uint96 operatorFee = rewardAmount * ss.operatorFees(identityId) / 100;\n        uint96 delegatorsReward = rewardAmount - operatorFee;\n\n        if(operatorFee != 0) {\n            ProfileStorage ps = profileStorage;\n            ps.setAccumulatedOperatorFee(identityId, ps.getAccumulatedOperatorFee(identityId) + operatorFee);\n            sasV1.transferReward(address(ps), operatorFee);\n        }\n\n        if(delegatorsReward != 0) {\n            ss.setTotalStake(identityId, ss.totalStakes(identityId) + delegatorsReward);\n            sasV1.transferReward(address(ss), delegatorsReward);\n\n            if (\n                !shardingTableStorage.nodeExists(identityId) &&\n                ss.totalStakes(identityId) >= parametersStorage.minimumStake()\n            ) {\n                shardingTableContract.pushBack(identityId);\n            }\n        }\n\n        emit RewardAdded(identityId, rewardAmount);\n    }\n\n    function slash(uint72 identityId) external onlyContracts {\n        // TBD\n    }\n\n    function setOperatorFee(uint72 identityId, uint8 operatorFee) external onlyProfileOrAdmin(identityId) {\n        require(operatorFee <= 100, \"Operator fee out of [0, 100]\");\n        stakingStorage.setOperatorFee(identityId, operatorFee);\n    }\n\n    function _addStake(address sender, uint72 identityId, uint96 stakeAmount) internal {\n        StakingStorage ss = stakingStorage;\n        ParametersStorage ps = parametersStorage;\n        IERC20 tknc = tokenContract;\n\n        require(tknc.allowance(sender, address(this)) >= stakeAmount, \"Allowance < stakeAmount\");\n        require(stakeAmount + ss.totalStakes(identityId) <= ps.maximumStake(), \"Exceeded the maximum stake\");\n        require(profileStorage.profileExists(identityId), \"Profile doesn't exist\");\n\n        Shares sharesContract = Shares(profileStorage.getSharesContractAddress(identityId));\n\n        uint256 sharesMinted;\n        if(sharesContract.totalSupply() == 0) {\n            sharesMinted = stakeAmount;\n        } else {\n            sharesMinted = (\n                stakeAmount * sharesContract.totalSupply() / ss.totalStakes(identityId)\n            );\n        }\n        sharesContract.mint(sender, sharesMinted);\n\n        tknc.transferFrom(sender, address(ss), stakeAmount);\n\n        ss.setTotalStake(identityId, ss.totalStakes(identityId) + stakeAmount);\n\n        if (\n            !shardingTableStorage.nodeExists(identityId) &&\n            ss.totalStakes(identityId) >= parametersStorage.minimumStake()\n        ) {\n            shardingTableContract.pushBack(identityId);\n        }\n\n        emit StakeIncreased(identityId, sender, stakeAmount);\n    }\n\n    function _checkHub() internal view virtual {\n        require(hub.isContract(msg.sender), \"Fn can only be called by the hub\");\n    }\n\n    function _checkProfileOrAdmin(uint72 identityId) internal view virtual {\n        require(\n            (msg.sender == hub.getContractAddress(\"Profile\")) ||\n            identityStorage.keyHasPurpose(identityId, keccak256(abi.encodePacked(msg.sender)), ADMIN_KEY),\n            \"Admin function\"\n        );\n    }\n\n}\n",
  "sourcePath": "/Users/waving/Desktop/OriginTrail/dkg-evm-module/contracts/Staking.sol",
  "compiler": {
    "name": "solc",
    "version": "0.8.14+commit.80d49f37.Emscripten.clang"
  },
  "schemaVersion": "3.4.10",
  "updatedAt": "2022-12-03T16:02:16.589Z",
  "devdoc": {
    "kind": "dev",
    "methods": {},
    "version": 1
  },
  "userdoc": {
    "kind": "user",
    "methods": {},
    "version": 1
  }
}