{
  "contractName": "UAIRegistry",
  "abi": [
    {
      "inputs": [
        {
          "internalType": "address",
          "name": "hubAddress",
          "type": "address"
        }
      ],
      "stateMutability": "nonpayable",
      "type": "constructor"
    },
    {
      "anonymous": false,
      "inputs": [
        {
          "indexed": true,
          "internalType": "address",
          "name": "owner",
          "type": "address"
        },
        {
          "indexed": true,
          "internalType": "address",
          "name": "approved",
          "type": "address"
        },
        {
          "indexed": true,
          "internalType": "uint256",
          "name": "tokenId",
          "type": "uint256"
        }
      ],
      "name": "Approval",
      "type": "event"
    },
    {
      "anonymous": false,
      "inputs": [
        {
          "indexed": true,
          "internalType": "address",
          "name": "owner",
          "type": "address"
        },
        {
          "indexed": true,
          "internalType": "address",
          "name": "operator",
          "type": "address"
        },
        {
          "indexed": false,
          "internalType": "bool",
          "name": "approved",
          "type": "bool"
        }
      ],
      "name": "ApprovalForAll",
      "type": "event"
    },
    {
      "anonymous": false,
      "inputs": [
        {
          "indexed": true,
          "internalType": "address",
          "name": "previousOwner",
          "type": "address"
        },
        {
          "indexed": true,
          "internalType": "address",
          "name": "newOwner",
          "type": "address"
        }
      ],
      "name": "OwnershipTransferred",
      "type": "event"
    },
    {
      "anonymous": false,
      "inputs": [
        {
          "indexed": true,
          "internalType": "bytes32",
          "name": "role",
          "type": "bytes32"
        },
        {
          "indexed": true,
          "internalType": "bytes32",
          "name": "previousAdminRole",
          "type": "bytes32"
        },
        {
          "indexed": true,
          "internalType": "bytes32",
          "name": "newAdminRole",
          "type": "bytes32"
        }
      ],
      "name": "RoleAdminChanged",
      "type": "event"
    },
    {
      "anonymous": false,
      "inputs": [
        {
          "indexed": true,
          "internalType": "bytes32",
          "name": "role",
          "type": "bytes32"
        },
        {
          "indexed": true,
          "internalType": "address",
          "name": "account",
          "type": "address"
        },
        {
          "indexed": true,
          "internalType": "address",
          "name": "sender",
          "type": "address"
        }
      ],
      "name": "RoleGranted",
      "type": "event"
    },
    {
      "anonymous": false,
      "inputs": [
        {
          "indexed": true,
          "internalType": "bytes32",
          "name": "role",
          "type": "bytes32"
        },
        {
          "indexed": true,
          "internalType": "address",
          "name": "account",
          "type": "address"
        },
        {
          "indexed": true,
          "internalType": "address",
          "name": "sender",
          "type": "address"
        }
      ],
      "name": "RoleRevoked",
      "type": "event"
    },
    {
      "anonymous": false,
      "inputs": [
        {
          "indexed": true,
          "internalType": "address",
          "name": "from",
          "type": "address"
        },
        {
          "indexed": true,
          "internalType": "address",
          "name": "to",
          "type": "address"
        },
        {
          "indexed": true,
          "internalType": "uint256",
          "name": "tokenId",
          "type": "uint256"
        }
      ],
      "name": "Transfer",
      "type": "event"
    },
    {
      "inputs": [],
      "name": "DEFAULT_ADMIN_ROLE",
      "outputs": [
        {
          "internalType": "bytes32",
          "name": "",
          "type": "bytes32"
        }
      ],
      "stateMutability": "view",
      "type": "function",
      "constant": true
    },
    {
      "inputs": [],
      "name": "MINTER_ROLE",
      "outputs": [
        {
          "internalType": "bytes32",
          "name": "",
          "type": "bytes32"
        }
      ],
      "stateMutability": "view",
      "type": "function",
      "constant": true
    },
    {
      "inputs": [
        {
          "internalType": "address",
          "name": "to",
          "type": "address"
        },
        {
          "internalType": "uint256",
          "name": "tokenId",
          "type": "uint256"
        }
      ],
      "name": "approve",
      "outputs": [],
      "stateMutability": "nonpayable",
      "type": "function"
    },
    {
      "inputs": [
        {
          "internalType": "address",
          "name": "owner",
          "type": "address"
        }
      ],
      "name": "balanceOf",
      "outputs": [
        {
          "internalType": "uint256",
          "name": "",
          "type": "uint256"
        }
      ],
      "stateMutability": "view",
      "type": "function",
      "constant": true
    },
    {
      "inputs": [
        {
          "internalType": "uint256",
          "name": "tokenId",
          "type": "uint256"
        }
      ],
      "name": "getApproved",
      "outputs": [
        {
          "internalType": "address",
          "name": "",
          "type": "address"
        }
      ],
      "stateMutability": "view",
      "type": "function",
      "constant": true
    },
    {
      "inputs": [
        {
          "internalType": "bytes32",
          "name": "role",
          "type": "bytes32"
        }
      ],
      "name": "getRoleAdmin",
      "outputs": [
        {
          "internalType": "bytes32",
          "name": "",
          "type": "bytes32"
        }
      ],
      "stateMutability": "view",
      "type": "function",
      "constant": true
    },
    {
      "inputs": [
        {
          "internalType": "bytes32",
          "name": "role",
          "type": "bytes32"
        },
        {
          "internalType": "address",
          "name": "account",
          "type": "address"
        }
      ],
      "name": "grantRole",
      "outputs": [],
      "stateMutability": "nonpayable",
      "type": "function"
    },
    {
      "inputs": [
        {
          "internalType": "bytes32",
          "name": "role",
          "type": "bytes32"
        },
        {
          "internalType": "address",
          "name": "account",
          "type": "address"
        }
      ],
      "name": "hasRole",
      "outputs": [
        {
          "internalType": "bool",
          "name": "",
          "type": "bool"
        }
      ],
      "stateMutability": "view",
      "type": "function",
      "constant": true
    },
    {
      "inputs": [],
      "name": "hub",
      "outputs": [
        {
          "internalType": "contract Hub",
          "name": "",
          "type": "address"
        }
      ],
      "stateMutability": "view",
      "type": "function",
      "constant": true
    },
    {
      "inputs": [
        {
          "internalType": "address",
          "name": "owner",
          "type": "address"
        },
        {
          "internalType": "address",
          "name": "operator",
          "type": "address"
        }
      ],
      "name": "isApprovedForAll",
      "outputs": [
        {
          "internalType": "bool",
          "name": "",
          "type": "bool"
        }
      ],
      "stateMutability": "view",
      "type": "function",
      "constant": true
    },
    {
      "inputs": [],
      "name": "name",
      "outputs": [
        {
          "internalType": "string",
          "name": "",
          "type": "string"
        }
      ],
      "stateMutability": "view",
      "type": "function",
      "constant": true
    },
    {
      "inputs": [],
      "name": "owner",
      "outputs": [
        {
          "internalType": "address",
          "name": "",
          "type": "address"
        }
      ],
      "stateMutability": "view",
      "type": "function",
      "constant": true
    },
    {
      "inputs": [
        {
          "internalType": "uint256",
          "name": "tokenId",
          "type": "uint256"
        }
      ],
      "name": "ownerOf",
      "outputs": [
        {
          "internalType": "address",
          "name": "",
          "type": "address"
        }
      ],
      "stateMutability": "view",
      "type": "function",
      "constant": true
    },
    {
      "inputs": [],
      "name": "renounceOwnership",
      "outputs": [],
      "stateMutability": "nonpayable",
      "type": "function"
    },
    {
      "inputs": [
        {
          "internalType": "bytes32",
          "name": "role",
          "type": "bytes32"
        },
        {
          "internalType": "address",
          "name": "account",
          "type": "address"
        }
      ],
      "name": "renounceRole",
      "outputs": [],
      "stateMutability": "nonpayable",
      "type": "function"
    },
    {
      "inputs": [
        {
          "internalType": "bytes32",
          "name": "role",
          "type": "bytes32"
        },
        {
          "internalType": "address",
          "name": "account",
          "type": "address"
        }
      ],
      "name": "revokeRole",
      "outputs": [],
      "stateMutability": "nonpayable",
      "type": "function"
    },
    {
      "inputs": [
        {
          "internalType": "address",
          "name": "from",
          "type": "address"
        },
        {
          "internalType": "address",
          "name": "to",
          "type": "address"
        },
        {
          "internalType": "uint256",
          "name": "tokenId",
          "type": "uint256"
        }
      ],
      "name": "safeTransferFrom",
      "outputs": [],
      "stateMutability": "nonpayable",
      "type": "function"
    },
    {
      "inputs": [
        {
          "internalType": "address",
          "name": "from",
          "type": "address"
        },
        {
          "internalType": "address",
          "name": "to",
          "type": "address"
        },
        {
          "internalType": "uint256",
          "name": "tokenId",
          "type": "uint256"
        },
        {
          "internalType": "bytes",
          "name": "data",
          "type": "bytes"
        }
      ],
      "name": "safeTransferFrom",
      "outputs": [],
      "stateMutability": "nonpayable",
      "type": "function"
    },
    {
      "inputs": [
        {
          "internalType": "address",
          "name": "operator",
          "type": "address"
        },
        {
          "internalType": "bool",
          "name": "approved",
          "type": "bool"
        }
      ],
      "name": "setApprovalForAll",
      "outputs": [],
      "stateMutability": "nonpayable",
      "type": "function"
    },
    {
      "inputs": [],
      "name": "symbol",
      "outputs": [
        {
          "internalType": "string",
          "name": "",
          "type": "string"
        }
      ],
      "stateMutability": "view",
      "type": "function",
      "constant": true
    },
    {
      "inputs": [
        {
          "internalType": "uint256",
          "name": "tokenId",
          "type": "uint256"
        }
      ],
      "name": "tokenURI",
      "outputs": [
        {
          "internalType": "string",
          "name": "",
          "type": "string"
        }
      ],
      "stateMutability": "view",
      "type": "function",
      "constant": true
    },
    {
      "inputs": [
        {
          "internalType": "address",
          "name": "from",
          "type": "address"
        },
        {
          "internalType": "address",
          "name": "to",
          "type": "address"
        },
        {
          "internalType": "uint256",
          "name": "tokenId",
          "type": "uint256"
        }
      ],
      "name": "transferFrom",
      "outputs": [],
      "stateMutability": "nonpayable",
      "type": "function"
    },
    {
      "inputs": [
        {
          "internalType": "address",
          "name": "newOwner",
          "type": "address"
        }
      ],
      "name": "transferOwnership",
      "outputs": [],
      "stateMutability": "nonpayable",
      "type": "function"
    },
    {
      "inputs": [
        {
          "internalType": "address",
          "name": "minter",
          "type": "address"
        }
      ],
      "name": "setupRole",
      "outputs": [],
      "stateMutability": "nonpayable",
      "type": "function"
    },
    {
      "inputs": [
        {
          "internalType": "string",
          "name": "URI",
          "type": "string"
        }
      ],
      "name": "setBaseURI",
      "outputs": [],
      "stateMutability": "nonpayable",
      "type": "function"
    },
    {
      "inputs": [
        {
          "internalType": "address",
          "name": "to",
          "type": "address"
        }
      ],
      "name": "mintUAI",
      "outputs": [
        {
          "internalType": "uint256",
          "name": "",
          "type": "uint256"
        }
      ],
      "stateMutability": "nonpayable",
      "type": "function"
    },
    {
      "inputs": [
        {
          "internalType": "address",
          "name": "from",
          "type": "address"
        },
        {
          "internalType": "address",
          "name": "to",
          "type": "address"
        },
        {
          "internalType": "uint256",
          "name": "_tokenId",
          "type": "uint256"
        }
      ],
      "name": "transfer",
      "outputs": [],
      "stateMutability": "nonpayable",
      "type": "function"
    },
    {
      "inputs": [
        {
          "internalType": "uint256",
          "name": "_tokenId",
          "type": "uint256"
        }
      ],
      "name": "exists",
      "outputs": [
        {
          "internalType": "bool",
          "name": "",
          "type": "bool"
        }
      ],
      "stateMutability": "view",
      "type": "function",
      "constant": true
    },
    {
      "inputs": [
        {
          "internalType": "bytes4",
          "name": "interfaceId",
          "type": "bytes4"
        }
      ],
      "name": "supportsInterface",
      "outputs": [
        {
          "internalType": "bool",
          "name": "",
          "type": "bool"
        }
      ],
      "stateMutability": "view",
      "type": "function",
      "constant": true
    }
  ],
  "bytecode": "0x60806040523480156200001157600080fd5b5060405162003e1538038062003e1583398181016040528101906200003791906200047a565b6040518060400160405280601081526020017f444b4720417373657420477261706873000000000000000000000000000000008152506040518060400160405280600381526020017f444b4700000000000000000000000000000000000000000000000000000000008152508160009080519060200190620000bb92919062000360565b508060019080519060200190620000d492919062000360565b505050620000f7620000eb620001ab60201b60201c565b620001b360201b60201c565b600073ffffffffffffffffffffffffffffffffffffffff168173ffffffffffffffffffffffffffffffffffffffff16036200013157600080fd5b80600860006101000a81548173ffffffffffffffffffffffffffffffffffffffff021916908373ffffffffffffffffffffffffffffffffffffffff1602179055506200019c60405180606001604052806033815260200162003de2603391396200027960201b60201c565b6000600a819055505062000593565b600033905090565b6000600760009054906101000a900473ffffffffffffffffffffffffffffffffffffffff16905081600760006101000a81548173ffffffffffffffffffffffffffffffffffffffff021916908373ffffffffffffffffffffffffffffffffffffffff1602179055508173ffffffffffffffffffffffffffffffffffffffff168173ffffffffffffffffffffffffffffffffffffffff167f8be0079c531659141344cd1fd0a4f28419497f9722a3daafe3b4186f6b6457e060405160405180910390a35050565b62000289620002a560201b60201c565b8060099080519060200190620002a192919062000360565b5050565b620002b5620001ab60201b60201c565b73ffffffffffffffffffffffffffffffffffffffff16620002db6200033660201b60201c565b73ffffffffffffffffffffffffffffffffffffffff161462000334576040517f08c379a00000000000000000000000000000000000000000000000000000000081526004016200032b906200050d565b60405180910390fd5b565b6000600760009054906101000a900473ffffffffffffffffffffffffffffffffffffffff16905090565b8280546200036e906200055e565b90600052602060002090601f016020900481019282620003925760008555620003de565b82601f10620003ad57805160ff1916838001178555620003de565b82800160010185558215620003de579182015b82811115620003dd578251825591602001919060010190620003c0565b5b509050620003ed9190620003f1565b5090565b5b808211156200040c576000816000905550600101620003f2565b5090565b600080fd5b600073ffffffffffffffffffffffffffffffffffffffff82169050919050565b6000620004428262000415565b9050919050565b620004548162000435565b81146200046057600080fd5b50565b600081519050620004748162000449565b92915050565b60006020828403121562000493576200049262000410565b5b6000620004a38482850162000463565b91505092915050565b600082825260208201905092915050565b7f4f776e61626c653a2063616c6c6572206973206e6f7420746865206f776e6572600082015250565b6000620004f5602083620004ac565b91506200050282620004bd565b602082019050919050565b600060208201905081810360008301526200052881620004e6565b9050919050565b7f4e487b7100000000000000000000000000000000000000000000000000000000600052602260045260246000fd5b600060028204905060018216806200057757607f821691505b6020821081036200058d576200058c6200052f565b5b50919050565b61383f80620005a36000396000f3fe608060405234801561001057600080fd5b50600436106101cf5760003560e01c8063715018a611610104578063b88d4fde116100a2578063d539139311610071578063d53913931461053c578063d547741f1461055a578063e985e9c514610576578063f2fde38b146105a6576101cf565b8063b88d4fde146104b8578063beabacc8146104d4578063c28637ac146104f0578063c87b56dd1461050c576101cf565b806395d89b41116100de57806395d89b4114610430578063a217fddf1461044e578063a22cb4651461046c578063a61788ba14610488576101cf565b8063715018a6146103d85780638da5cb5b146103e257806391d1485414610400576101cf565b806336568abe116101715780634f558e791161014b5780634f558e791461032c57806355f804b31461035c5780636352211e1461037857806370a08231146103a8576101cf565b806336568abe146102d6578063365a86fc146102f257806342842e0e14610310576101cf565b8063095ea7b3116101ad578063095ea7b31461025257806323b872dd1461026e578063248a9ca31461028a5780632f2ff15d146102ba576101cf565b806301ffc9a7146101d457806306fdde0314610204578063081812fc14610222575b600080fd5b6101ee60048036038101906101e991906123b2565b6105c2565b6040516101fb91906123fa565b60405180910390f35b61020c6105d4565b60405161021991906124ae565b60405180910390f35b61023c60048036038101906102379190612506565b610666565b6040516102499190612574565b60405180910390f35b61026c600480360381019061026791906125bb565b6106ac565b005b610288600480360381019061028391906125fb565b6107c3565b005b6102a4600480360381019061029f9190612684565b610823565b6040516102b191906126c0565b60405180910390f35b6102d460048036038101906102cf91906126db565b610843565b005b6102f060048036038101906102eb91906126db565b610864565b005b6102fa6108e7565b604051610307919061277a565b60405180910390f35b61032a600480360381019061032591906125fb565b61090d565b005b61034660048036038101906103419190612506565b61092d565b60405161035391906123fa565b60405180910390f35b610376600480360381019061037191906128ca565b61093f565b005b610392600480360381019061038d9190612506565b610961565b60405161039f9190612574565b60405180910390f35b6103c260048036038101906103bd9190612913565b610a12565b6040516103cf919061294f565b60405180910390f35b6103e0610ac9565b005b6103ea610add565b6040516103f79190612574565b60405180910390f35b61041a600480360381019061041591906126db565b610b07565b60405161042791906123fa565b60405180910390f35b610438610b72565b60405161044591906124ae565b60405180910390f35b610456610c04565b60405161046391906126c0565b60405180910390f35b61048660048036038101906104819190612996565b610c0b565b005b6104a2600480360381019061049d9190612913565b610c21565b6040516104af919061294f565b60405180910390f35b6104d260048036038101906104cd9190612a77565b610cb6565b005b6104ee60048036038101906104e991906125fb565b610d18565b005b61050a60048036038101906105059190612913565b610d28565b005b61052660048036038101906105219190612506565b610d5d565b60405161053391906124ae565b60405180910390f35b610544610dc5565b60405161055191906126c0565b60405180910390f35b610574600480360381019061056f91906126db565b610de9565b005b610590600480360381019061058b9190612afa565b610e0a565b60405161059d91906123fa565b60405180910390f35b6105c060048036038101906105bb9190612913565b610e9e565b005b60006105cd82610f21565b9050919050565b6060600080546105e390612b69565b80601f016020809104026020016040519081016040528092919081815260200182805461060f90612b69565b801561065c5780601f106106315761010080835404028352916020019161065c565b820191906000526020600020905b81548152906001019060200180831161063f57829003601f168201915b5050505050905090565b600061067182610f9b565b6004600083815260200190815260200160002060009054906101000a900473ffffffffffffffffffffffffffffffffffffffff169050919050565b60006106b782610961565b90508073ffffffffffffffffffffffffffffffffffffffff168373ffffffffffffffffffffffffffffffffffffffff1603610727576040517f08c379a000000000000000000000000000000000000000000000000000000000815260040161071e90612c0c565b60405180910390fd5b8073ffffffffffffffffffffffffffffffffffffffff16610746610fe6565b73ffffffffffffffffffffffffffffffffffffffff16148061077557506107748161076f610fe6565b610e0a565b5b6107b4576040517f08c379a00000000000000000000000000000000000000000000000000000000081526004016107ab90612c9e565b60405180910390fd5b6107be8383610fee565b505050565b6107d46107ce610fe6565b826110a7565b610813576040517f08c379a000000000000000000000000000000000000000000000000000000000815260040161080a90612d30565b60405180910390fd5b61081e83838361113c565b505050565b600060066000838152602001908152602001600020600101549050919050565b61084c82610823565b610855816113a2565b61085f83836113b6565b505050565b61086c610fe6565b73ffffffffffffffffffffffffffffffffffffffff168173ffffffffffffffffffffffffffffffffffffffff16146108d9576040517f08c379a00000000000000000000000000000000000000000000000000000000081526004016108d090612dc2565b60405180910390fd5b6108e38282611497565b5050565b600860009054906101000a900473ffffffffffffffffffffffffffffffffffffffff1681565b61092883838360405180602001604052806000815250610cb6565b505050565b600061093882611579565b9050919050565b6109476115e5565b806009908051906020019061095d9291906122a3565b5050565b6000806002600084815260200190815260200160002060009054906101000a900473ffffffffffffffffffffffffffffffffffffffff169050600073ffffffffffffffffffffffffffffffffffffffff168173ffffffffffffffffffffffffffffffffffffffff1603610a09576040517f08c379a0000000000000000000000000000000000000000000000000000000008152600401610a0090612e2e565b60405180910390fd5b80915050919050565b60008073ffffffffffffffffffffffffffffffffffffffff168273ffffffffffffffffffffffffffffffffffffffff1603610a82576040517f08c379a0000000000000000000000000000000000000000000000000000000008152600401610a7990612ec0565b60405180910390fd5b600360008373ffffffffffffffffffffffffffffffffffffffff1673ffffffffffffffffffffffffffffffffffffffff168152602001908152602001600020549050919050565b610ad16115e5565b610adb6000611663565b565b6000600760009054906101000a900473ffffffffffffffffffffffffffffffffffffffff16905090565b60006006600084815260200190815260200160002060000160008373ffffffffffffffffffffffffffffffffffffffff1673ffffffffffffffffffffffffffffffffffffffff16815260200190815260200160002060009054906101000a900460ff16905092915050565b606060018054610b8190612b69565b80601f0160208091040260200160405190810160405280929190818152602001828054610bad90612b69565b8015610bfa5780601f10610bcf57610100808354040283529160200191610bfa565b820191906000526020600020905b815481529060010190602001808311610bdd57829003601f168201915b5050505050905090565b6000801b81565b610c1d610c16610fe6565b8383611729565b5050565b6000610c4d7f9f2df0fed2c77648de5860a4cc508cd0818c85b8b8a1ab4ceeef8d981c8956a633610b07565b610c8c576040517f08c379a0000000000000000000000000000000000000000000000000000000008152600401610c8390612f2c565b60405180910390fd5b610c9882600a54611895565b600a6000815480929190610cab90612f7b565b919050559050919050565b610cc7610cc1610fe6565b836110a7565b610d06576040517f08c379a0000000000000000000000000000000000000000000000000000000008152600401610cfd90612d30565b60405180910390fd5b610d1284848484611a6e565b50505050565b610d2383838361113c565b505050565b610d306115e5565b610d5a7f9f2df0fed2c77648de5860a4cc508cd0818c85b8b8a1ab4ceeef8d981c8956a682611aca565b50565b6060610d6882610f9b565b6000610d72611ad8565b90506000815111610d925760405180602001604052806000815250610dbd565b80610d9c84611b6a565b604051602001610dad929190612fff565b6040516020818303038152906040525b915050919050565b7f9f2df0fed2c77648de5860a4cc508cd0818c85b8b8a1ab4ceeef8d981c8956a681565b610df282610823565b610dfb816113a2565b610e058383611497565b505050565b6000600560008473ffffffffffffffffffffffffffffffffffffffff1673ffffffffffffffffffffffffffffffffffffffff16815260200190815260200160002060008373ffffffffffffffffffffffffffffffffffffffff1673ffffffffffffffffffffffffffffffffffffffff16815260200190815260200160002060009054906101000a900460ff16905092915050565b610ea66115e5565b600073ffffffffffffffffffffffffffffffffffffffff168173ffffffffffffffffffffffffffffffffffffffff1603610f15576040517f08c379a0000000000000000000000000000000000000000000000000000000008152600401610f0c90613095565b60405180910390fd5b610f1e81611663565b50565b60007f7965db0b000000000000000000000000000000000000000000000000000000007bffffffffffffffffffffffffffffffffffffffffffffffffffffffff1916827bffffffffffffffffffffffffffffffffffffffffffffffffffffffff19161480610f945750610f9382611cca565b5b9050919050565b610fa481611579565b610fe3576040517f08c379a0000000000000000000000000000000000000000000000000000000008152600401610fda90612e2e565b60405180910390fd5b50565b600033905090565b816004600083815260200190815260200160002060006101000a81548173ffffffffffffffffffffffffffffffffffffffff021916908373ffffffffffffffffffffffffffffffffffffffff160217905550808273ffffffffffffffffffffffffffffffffffffffff1661106183610961565b73ffffffffffffffffffffffffffffffffffffffff167f8c5be1e5ebec7d5bd14f71427d1e84f3dd0314c0f7b2291e5b200ac8c7c3b92560405160405180910390a45050565b6000806110b383610961565b90508073ffffffffffffffffffffffffffffffffffffffff168473ffffffffffffffffffffffffffffffffffffffff1614806110f557506110f48185610e0a565b5b8061113357508373ffffffffffffffffffffffffffffffffffffffff1661111b84610666565b73ffffffffffffffffffffffffffffffffffffffff16145b91505092915050565b8273ffffffffffffffffffffffffffffffffffffffff1661115c82610961565b73ffffffffffffffffffffffffffffffffffffffff16146111b2576040517f08c379a00000000000000000000000000000000000000000000000000000000081526004016111a990613127565b60405180910390fd5b600073ffffffffffffffffffffffffffffffffffffffff168273ffffffffffffffffffffffffffffffffffffffff1603611221576040517f08c379a0000000000000000000000000000000000000000000000000000000008152600401611218906131b9565b60405180910390fd5b61122c838383611dac565b611237600082610fee565b6001600360008573ffffffffffffffffffffffffffffffffffffffff1673ffffffffffffffffffffffffffffffffffffffff168152602001908152602001600020600082825461128791906131d9565b925050819055506001600360008473ffffffffffffffffffffffffffffffffffffffff1673ffffffffffffffffffffffffffffffffffffffff16815260200190815260200160002060008282546112de919061320d565b92505081905550816002600083815260200190815260200160002060006101000a81548173ffffffffffffffffffffffffffffffffffffffff021916908373ffffffffffffffffffffffffffffffffffffffff160217905550808273ffffffffffffffffffffffffffffffffffffffff168473ffffffffffffffffffffffffffffffffffffffff167fddf252ad1be2c89b69c2b068fc378daa952ba7f163c4a11628f55a4df523b3ef60405160405180910390a461139d838383611db1565b505050565b6113b3816113ae610fe6565b611db6565b50565b6113c08282610b07565b6114935760016006600084815260200190815260200160002060000160008373ffffffffffffffffffffffffffffffffffffffff1673ffffffffffffffffffffffffffffffffffffffff16815260200190815260200160002060006101000a81548160ff021916908315150217905550611438610fe6565b73ffffffffffffffffffffffffffffffffffffffff168173ffffffffffffffffffffffffffffffffffffffff16837f2f8788117e7eff1d82e926ec794901d17c78024a50270940304540a733656f0d60405160405180910390a45b5050565b6114a18282610b07565b156115755760006006600084815260200190815260200160002060000160008373ffffffffffffffffffffffffffffffffffffffff1673ffffffffffffffffffffffffffffffffffffffff16815260200190815260200160002060006101000a81548160ff02191690831515021790555061151a610fe6565b73ffffffffffffffffffffffffffffffffffffffff168173ffffffffffffffffffffffffffffffffffffffff16837ff6391f5c32d9c69d2a47ea670b442974b53935d1edc7fd64eb21e047a839171b60405160405180910390a45b5050565b60008073ffffffffffffffffffffffffffffffffffffffff166002600084815260200190815260200160002060009054906101000a900473ffffffffffffffffffffffffffffffffffffffff1673ffffffffffffffffffffffffffffffffffffffff1614159050919050565b6115ed610fe6565b73ffffffffffffffffffffffffffffffffffffffff1661160b610add565b73ffffffffffffffffffffffffffffffffffffffff1614611661576040517f08c379a0000000000000000000000000000000000000000000000000000000008152600401611658906132af565b60405180910390fd5b565b6000600760009054906101000a900473ffffffffffffffffffffffffffffffffffffffff16905081600760006101000a81548173ffffffffffffffffffffffffffffffffffffffff021916908373ffffffffffffffffffffffffffffffffffffffff1602179055508173ffffffffffffffffffffffffffffffffffffffff168173ffffffffffffffffffffffffffffffffffffffff167f8be0079c531659141344cd1fd0a4f28419497f9722a3daafe3b4186f6b6457e060405160405180910390a35050565b8173ffffffffffffffffffffffffffffffffffffffff168373ffffffffffffffffffffffffffffffffffffffff1603611797576040517f08c379a000000000000000000000000000000000000000000000000000000000815260040161178e9061331b565b60405180910390fd5b80600560008573ffffffffffffffffffffffffffffffffffffffff1673ffffffffffffffffffffffffffffffffffffffff16815260200190815260200160002060008473ffffffffffffffffffffffffffffffffffffffff1673ffffffffffffffffffffffffffffffffffffffff16815260200190815260200160002060006101000a81548160ff0219169083151502179055508173ffffffffffffffffffffffffffffffffffffffff168373ffffffffffffffffffffffffffffffffffffffff167f17307eab39ab6107e8899845ad3d59bd9653f200f220920489ca2b5937696c318360405161188891906123fa565b60405180910390a3505050565b600073ffffffffffffffffffffffffffffffffffffffff168273ffffffffffffffffffffffffffffffffffffffff1603611904576040517f08c379a00000000000000000000000000000000000000000000000000000000081526004016118fb90613387565b60405180910390fd5b61190d81611579565b1561194d576040517f08c379a0000000000000000000000000000000000000000000000000000000008152600401611944906133f3565b60405180910390fd5b61195960008383611dac565b6001600360008473ffffffffffffffffffffffffffffffffffffffff1673ffffffffffffffffffffffffffffffffffffffff16815260200190815260200160002060008282546119a9919061320d565b92505081905550816002600083815260200190815260200160002060006101000a81548173ffffffffffffffffffffffffffffffffffffffff021916908373ffffffffffffffffffffffffffffffffffffffff160217905550808273ffffffffffffffffffffffffffffffffffffffff16600073ffffffffffffffffffffffffffffffffffffffff167fddf252ad1be2c89b69c2b068fc378daa952ba7f163c4a11628f55a4df523b3ef60405160405180910390a4611a6a60008383611db1565b5050565b611a7984848461113c565b611a8584848484611e53565b611ac4576040517f08c379a0000000000000000000000000000000000000000000000000000000008152600401611abb90613485565b60405180910390fd5b50505050565b611ad482826113b6565b5050565b606060098054611ae790612b69565b80601f0160208091040260200160405190810160405280929190818152602001828054611b1390612b69565b8015611b605780601f10611b3557610100808354040283529160200191611b60565b820191906000526020600020905b815481529060010190602001808311611b4357829003601f168201915b5050505050905090565b606060008203611bb1576040518060400160405280600181526020017f30000000000000000000000000000000000000000000000000000000000000008152509050611cc5565b600082905060005b60008214611be3578080611bcc90612f7b565b915050600a82611bdc91906134d4565b9150611bb9565b60008167ffffffffffffffff811115611bff57611bfe61279f565b5b6040519080825280601f01601f191660200182016040528015611c315781602001600182028036833780820191505090505b5090505b60008514611cbe57600182611c4a91906131d9565b9150600a85611c599190613505565b6030611c65919061320d565b60f81b818381518110611c7b57611c7a613536565b5b60200101907effffffffffffffffffffffffffffffffffffffffffffffffffffffffffffff1916908160001a905350600a85611cb791906134d4565b9450611c35565b8093505050505b919050565b60007f80ac58cd000000000000000000000000000000000000000000000000000000007bffffffffffffffffffffffffffffffffffffffffffffffffffffffff1916827bffffffffffffffffffffffffffffffffffffffffffffffffffffffff19161480611d9557507f5b5e139f000000000000000000000000000000000000000000000000000000007bffffffffffffffffffffffffffffffffffffffffffffffffffffffff1916827bffffffffffffffffffffffffffffffffffffffffffffffffffffffff1916145b80611da55750611da482611fda565b5b9050919050565b505050565b505050565b611dc08282610b07565b611e4f57611de58173ffffffffffffffffffffffffffffffffffffffff166014612044565b611df38360001c6020612044565b604051602001611e049291906135fd565b6040516020818303038152906040526040517f08c379a0000000000000000000000000000000000000000000000000000000008152600401611e4691906124ae565b60405180910390fd5b5050565b6000611e748473ffffffffffffffffffffffffffffffffffffffff16612280565b15611fcd578373ffffffffffffffffffffffffffffffffffffffff1663150b7a02611e9d610fe6565b8786866040518563ffffffff1660e01b8152600401611ebf949392919061368c565b6020604051808303816000875af1925050508015611efb57506040513d601f19601f82011682018060405250810190611ef891906136ed565b60015b611f7d573d8060008114611f2b576040519150601f19603f3d011682016040523d82523d6000602084013e611f30565b606091505b506000815103611f75576040517f08c379a0000000000000000000000000000000000000000000000000000000008152600401611f6c90613485565b60405180910390fd5b805181602001fd5b63150b7a0260e01b7bffffffffffffffffffffffffffffffffffffffffffffffffffffffff1916817bffffffffffffffffffffffffffffffffffffffffffffffffffffffff191614915050611fd2565b600190505b949350505050565b60007f01ffc9a7000000000000000000000000000000000000000000000000000000007bffffffffffffffffffffffffffffffffffffffffffffffffffffffff1916827bffffffffffffffffffffffffffffffffffffffffffffffffffffffff1916149050919050565b606060006002836002612057919061371a565b612061919061320d565b67ffffffffffffffff81111561207a5761207961279f565b5b6040519080825280601f01601f1916602001820160405280156120ac5781602001600182028036833780820191505090505b5090507f3000000000000000000000000000000000000000000000000000000000000000816000815181106120e4576120e3613536565b5b60200101907effffffffffffffffffffffffffffffffffffffffffffffffffffffffffffff1916908160001a9053507f78000000000000000000000000000000000000000000000000000000000000008160018151811061214857612147613536565b5b60200101907effffffffffffffffffffffffffffffffffffffffffffffffffffffffffffff1916908160001a90535060006001846002612188919061371a565b612192919061320d565b90505b6001811115612232577f3031323334353637383961626364656600000000000000000000000000000000600f8616601081106121d4576121d3613536565b5b1a60f81b8282815181106121eb576121ea613536565b5b60200101907effffffffffffffffffffffffffffffffffffffffffffffffffffffffffffff1916908160001a905350600485901c94508061222b90613774565b9050612195565b5060008414612276576040517f08c379a000000000000000000000000000000000000000000000000000000000815260040161226d906137e9565b60405180910390fd5b8091505092915050565b6000808273ffffffffffffffffffffffffffffffffffffffff163b119050919050565b8280546122af90612b69565b90600052602060002090601f0160209004810192826122d15760008555612318565b82601f106122ea57805160ff1916838001178555612318565b82800160010185558215612318579182015b828111156123175782518255916020019190600101906122fc565b5b5090506123259190612329565b5090565b5b8082111561234257600081600090555060010161232a565b5090565b6000604051905090565b600080fd5b600080fd5b60007fffffffff0000000000000000000000000000000000000000000000000000000082169050919050565b61238f8161235a565b811461239a57600080fd5b50565b6000813590506123ac81612386565b92915050565b6000602082840312156123c8576123c7612350565b5b60006123d68482850161239d565b91505092915050565b60008115159050919050565b6123f4816123df565b82525050565b600060208201905061240f60008301846123eb565b92915050565b600081519050919050565b600082825260208201905092915050565b60005b8381101561244f578082015181840152602081019050612434565b8381111561245e576000848401525b50505050565b6000601f19601f8301169050919050565b600061248082612415565b61248a8185612420565b935061249a818560208601612431565b6124a381612464565b840191505092915050565b600060208201905081810360008301526124c88184612475565b905092915050565b6000819050919050565b6124e3816124d0565b81146124ee57600080fd5b50565b600081359050612500816124da565b92915050565b60006020828403121561251c5761251b612350565b5b600061252a848285016124f1565b91505092915050565b600073ffffffffffffffffffffffffffffffffffffffff82169050919050565b600061255e82612533565b9050919050565b61256e81612553565b82525050565b60006020820190506125896000830184612565565b92915050565b61259881612553565b81146125a357600080fd5b50565b6000813590506125b58161258f565b92915050565b600080604083850312156125d2576125d1612350565b5b60006125e0858286016125a6565b92505060206125f1858286016124f1565b9150509250929050565b60008060006060848603121561261457612613612350565b5b6000612622868287016125a6565b9350506020612633868287016125a6565b9250506040612644868287016124f1565b9150509250925092565b6000819050919050565b6126618161264e565b811461266c57600080fd5b50565b60008135905061267e81612658565b92915050565b60006020828403121561269a57612699612350565b5b60006126a88482850161266f565b91505092915050565b6126ba8161264e565b82525050565b60006020820190506126d560008301846126b1565b92915050565b600080604083850312156126f2576126f1612350565b5b60006127008582860161266f565b9250506020612711858286016125a6565b9150509250929050565b6000819050919050565b600061274061273b61273684612533565b61271b565b612533565b9050919050565b600061275282612725565b9050919050565b600061276482612747565b9050919050565b61277481612759565b82525050565b600060208201905061278f600083018461276b565b92915050565b600080fd5b600080fd5b7f4e487b7100000000000000000000000000000000000000000000000000000000600052604160045260246000fd5b6127d782612464565b810181811067ffffffffffffffff821117156127f6576127f561279f565b5b80604052505050565b6000612809612346565b905061281582826127ce565b919050565b600067ffffffffffffffff8211156128355761283461279f565b5b61283e82612464565b9050602081019050919050565b82818337600083830152505050565b600061286d6128688461281a565b6127ff565b9050828152602081018484840111156128895761288861279a565b5b61289484828561284b565b509392505050565b600082601f8301126128b1576128b0612795565b5b81356128c184826020860161285a565b91505092915050565b6000602082840312156128e0576128df612350565b5b600082013567ffffffffffffffff8111156128fe576128fd612355565b5b61290a8482850161289c565b91505092915050565b60006020828403121561292957612928612350565b5b6000612937848285016125a6565b91505092915050565b612949816124d0565b82525050565b60006020820190506129646000830184612940565b92915050565b612973816123df565b811461297e57600080fd5b50565b6000813590506129908161296a565b92915050565b600080604083850312156129ad576129ac612350565b5b60006129bb858286016125a6565b92505060206129cc85828601612981565b9150509250929050565b600067ffffffffffffffff8211156129f1576129f061279f565b5b6129fa82612464565b9050602081019050919050565b6000612a1a612a15846129d6565b6127ff565b905082815260208101848484011115612a3657612a3561279a565b5b612a4184828561284b565b509392505050565b600082601f830112612a5e57612a5d612795565b5b8135612a6e848260208601612a07565b91505092915050565b60008060008060808587031215612a9157612a90612350565b5b6000612a9f878288016125a6565b9450506020612ab0878288016125a6565b9350506040612ac1878288016124f1565b925050606085013567ffffffffffffffff811115612ae257612ae1612355565b5b612aee87828801612a49565b91505092959194509250565b60008060408385031215612b1157612b10612350565b5b6000612b1f858286016125a6565b9250506020612b30858286016125a6565b9150509250929050565b7f4e487b7100000000000000000000000000000000000000000000000000000000600052602260045260246000fd5b60006002820490506001821680612b8157607f821691505b602082108103612b9457612b93612b3a565b5b50919050565b7f4552433732313a20617070726f76616c20746f2063757272656e74206f776e6560008201527f7200000000000000000000000000000000000000000000000000000000000000602082015250565b6000612bf6602183612420565b9150612c0182612b9a565b604082019050919050565b60006020820190508181036000830152612c2581612be9565b9050919050565b7f4552433732313a20617070726f76652063616c6c6572206973206e6f7420746f60008201527f6b656e206f776e6572206e6f7220617070726f76656420666f7220616c6c0000602082015250565b6000612c88603e83612420565b9150612c9382612c2c565b604082019050919050565b60006020820190508181036000830152612cb781612c7b565b9050919050565b7f4552433732313a2063616c6c6572206973206e6f7420746f6b656e206f776e6560008201527f72206e6f7220617070726f766564000000000000000000000000000000000000602082015250565b6000612d1a602e83612420565b9150612d2582612cbe565b604082019050919050565b60006020820190508181036000830152612d4981612d0d565b9050919050565b7f416363657373436f6e74726f6c3a2063616e206f6e6c792072656e6f756e636560008201527f20726f6c657320666f722073656c660000000000000000000000000000000000602082015250565b6000612dac602f83612420565b9150612db782612d50565b604082019050919050565b60006020820190508181036000830152612ddb81612d9f565b9050919050565b7f4552433732313a20696e76616c696420746f6b656e2049440000000000000000600082015250565b6000612e18601883612420565b9150612e2382612de2565b602082019050919050565b60006020820190508181036000830152612e4781612e0b565b9050919050565b7f4552433732313a2061646472657373207a65726f206973206e6f74206120766160008201527f6c6964206f776e65720000000000000000000000000000000000000000000000602082015250565b6000612eaa602983612420565b9150612eb582612e4e565b604082019050919050565b60006020820190508181036000830152612ed981612e9d565b9050919050565b7f43616c6c6572206973206e6f742061206d696e74657200000000000000000000600082015250565b6000612f16601683612420565b9150612f2182612ee0565b602082019050919050565b60006020820190508181036000830152612f4581612f09565b9050919050565b7f4e487b7100000000000000000000000000000000000000000000000000000000600052601160045260246000fd5b6000612f86826124d0565b91507fffffffffffffffffffffffffffffffffffffffffffffffffffffffffffffffff8203612fb857612fb7612f4c565b5b600182019050919050565b600081905092915050565b6000612fd982612415565b612fe38185612fc3565b9350612ff3818560208601612431565b80840191505092915050565b600061300b8285612fce565b91506130178284612fce565b91508190509392505050565b7f4f776e61626c653a206e6577206f776e657220697320746865207a65726f206160008201527f6464726573730000000000000000000000000000000000000000000000000000602082015250565b600061307f602683612420565b915061308a82613023565b604082019050919050565b600060208201905081810360008301526130ae81613072565b9050919050565b7f4552433732313a207472616e736665722066726f6d20696e636f72726563742060008201527f6f776e6572000000000000000000000000000000000000000000000000000000602082015250565b6000613111602583612420565b915061311c826130b5565b604082019050919050565b6000602082019050818103600083015261314081613104565b9050919050565b7f4552433732313a207472616e7366657220746f20746865207a65726f2061646460008201527f7265737300000000000000000000000000000000000000000000000000000000602082015250565b60006131a3602483612420565b91506131ae82613147565b604082019050919050565b600060208201905081810360008301526131d281613196565b9050919050565b60006131e4826124d0565b91506131ef836124d0565b92508282101561320257613201612f4c565b5b828203905092915050565b6000613218826124d0565b9150613223836124d0565b9250827fffffffffffffffffffffffffffffffffffffffffffffffffffffffffffffffff0382111561325857613257612f4c565b5b828201905092915050565b7f4f776e61626c653a2063616c6c6572206973206e6f7420746865206f776e6572600082015250565b6000613299602083612420565b91506132a482613263565b602082019050919050565b600060208201905081810360008301526132c88161328c565b9050919050565b7f4552433732313a20617070726f766520746f2063616c6c657200000000000000600082015250565b6000613305601983612420565b9150613310826132cf565b602082019050919050565b60006020820190508181036000830152613334816132f8565b9050919050565b7f4552433732313a206d696e7420746f20746865207a65726f2061646472657373600082015250565b6000613371602083612420565b915061337c8261333b565b602082019050919050565b600060208201905081810360008301526133a081613364565b9050919050565b7f4552433732313a20746f6b656e20616c7265616479206d696e74656400000000600082015250565b60006133dd601c83612420565b91506133e8826133a7565b602082019050919050565b6000602082019050818103600083015261340c816133d0565b9050919050565b7f4552433732313a207472616e7366657220746f206e6f6e20455243373231526560008201527f63656976657220696d706c656d656e7465720000000000000000000000000000602082015250565b600061346f603283612420565b915061347a82613413565b604082019050919050565b6000602082019050818103600083015261349e81613462565b9050919050565b7f4e487b7100000000000000000000000000000000000000000000000000000000600052601260045260246000fd5b60006134df826124d0565b91506134ea836124d0565b9250826134fa576134f96134a5565b5b828204905092915050565b6000613510826124d0565b915061351b836124d0565b92508261352b5761352a6134a5565b5b828206905092915050565b7f4e487b7100000000000000000000000000000000000000000000000000000000600052603260045260246000fd5b7f416363657373436f6e74726f6c3a206163636f756e7420000000000000000000600082015250565b600061359b601783612fc3565b91506135a682613565565b601782019050919050565b7f206973206d697373696e6720726f6c6520000000000000000000000000000000600082015250565b60006135e7601183612fc3565b91506135f2826135b1565b601182019050919050565b60006136088261358e565b91506136148285612fce565b915061361f826135da565b915061362b8284612fce565b91508190509392505050565b600081519050919050565b600082825260208201905092915050565b600061365e82613637565b6136688185613642565b9350613678818560208601612431565b61368181612464565b840191505092915050565b60006080820190506136a16000830187612565565b6136ae6020830186612565565b6136bb6040830185612940565b81810360608301526136cd8184613653565b905095945050505050565b6000815190506136e781612386565b92915050565b60006020828403121561370357613702612350565b5b6000613711848285016136d8565b91505092915050565b6000613725826124d0565b9150613730836124d0565b9250817fffffffffffffffffffffffffffffffffffffffffffffffffffffffffffffffff048311821515161561376957613768612f4c565b5b828202905092915050565b600061377f826124d0565b91506000820361379257613791612f4c565b5b600182039050919050565b7f537472696e67733a20686578206c656e67746820696e73756666696369656e74600082015250565b60006137d3602083612420565b91506137de8261379d565b602082019050919050565b60006020820190508181036000830152613802816137c6565b905091905056fea26469706673582212201f9c959f5d2d75cece4e9f40cad06ea7821acd2f2c9cc943c257115691be0e9b64736f6c634300080e003368747470733a2f2f776562336578706c6f7265722e6f726967696e747261696c2e696f2f746f6b656e2d7265736f6c7665722f",
  "immutableReferences": {},
  "source": "// SPDX-License-Identifier: MIT\n// OpenZeppelin Contracts (last updated v4.6.0) (token/ERC721/ERC721.sol)\n\npragma solidity ^0.8.0;\n\nimport \"@openzeppelin/contracts/access/Ownable.sol\";\nimport \"@openzeppelin/contracts/token/ERC721/ERC721.sol\";\nimport \"@openzeppelin/contracts/access/AccessControl.sol\";\nimport \"./Hub.sol\";\n\n/**\n * @dev Implementation of https://eips.ethereum.org/EIPS/eip-721[ERC721] Non-Fungible Token Standard, including\n * the Metadata extension, but not including the Enumerable extension, which is available separately as\n * {ERC721Enumerable}.\n */\ncontract UAIRegistry is ERC721, AccessControl, Ownable  {\n    Hub public hub;\n\n    // Base URI\n    string private baseURI;\n    uint256 private tokenId;\n\n    bytes32 public constant MINTER_ROLE = keccak256(\"MINTER_ROLE\");\n\n\n    constructor(address hubAddress) ERC721(\"DKG Asset Graphs\", \"DKG\"){\n        require(hubAddress != address(0));\n        hub = Hub(hubAddress);\n\n        setBaseURI(\"https://web3explorer.origintrail.io/token-resolver/\");\n        tokenId = 0;\n    }\n\n    function setupRole(address minter) public onlyOwner {\n        _setupRole(MINTER_ROLE, minter);\n    }\n\n    function setBaseURI(string memory URI) public onlyOwner {\n        baseURI = URI;\n    }\n\n    function _baseURI() internal override view returns  (string memory) {\n        return baseURI;\n    }\n\n    function mintUAI(address to) public returns (uint256) {\n        require(hasRole(MINTER_ROLE, msg.sender), \"Caller is not a minter\");\n        //TODO check if tokenId < 2^256\n\n        _mint(to, tokenId);\n        return tokenId++;\n    }\n\n    function transfer(address from, address to, uint256 _tokenId) public {\n        _transfer(from, to, _tokenId);\n    }\n\n    function exists(uint256 _tokenId) public view returns (bool) {\n        return _exists(_tokenId);\n    }\n\n    function supportsInterface(bytes4 interfaceId) public view virtual override(ERC721, AccessControl) returns (bool) {\n        return super.supportsInterface(interfaceId);\n    }\n}\n",
  "sourcePath": "/Users/max/IdeaProjects/dkg-evm-module/contracts/UAIRegistry.sol",
  "compiler": {
    "name": "solc",
    "version": "0.8.14+commit.80d49f37.Emscripten.clang"
  },
  "schemaVersion": "3.4.1",
  "updatedAt": "2022-09-01T12:25:01.684Z",
  "networkType": "ethereum",
  "devdoc": {
    "details": "Implementation of https://eips.ethereum.org/EIPS/eip-721[ERC721] Non-Fungible Token Standard, including the Metadata extension, but not including the Enumerable extension, which is available separately as {ERC721Enumerable}.",
    "kind": "dev",
    "methods": {
      "approve(address,uint256)": {
        "details": "See {IERC721-approve}."
      },
      "balanceOf(address)": {
        "details": "See {IERC721-balanceOf}."
      },
      "getApproved(uint256)": {
        "details": "See {IERC721-getApproved}."
      },
      "getRoleAdmin(bytes32)": {
        "details": "Returns the admin role that controls `role`. See {grantRole} and {revokeRole}. To change a role's admin, use {_setRoleAdmin}."
      },
      "grantRole(bytes32,address)": {
        "details": "Grants `role` to `account`. If `account` had not been already granted `role`, emits a {RoleGranted} event. Requirements: - the caller must have ``role``'s admin role. May emit a {RoleGranted} event."
      },
      "hasRole(bytes32,address)": {
        "details": "Returns `true` if `account` has been granted `role`."
      },
      "isApprovedForAll(address,address)": {
        "details": "See {IERC721-isApprovedForAll}."
      },
      "name()": {
        "details": "See {IERC721Metadata-name}."
      },
      "owner()": {
        "details": "Returns the address of the current owner."
      },
      "ownerOf(uint256)": {
        "details": "See {IERC721-ownerOf}."
      },
      "renounceOwnership()": {
        "details": "Leaves the contract without owner. It will not be possible to call `onlyOwner` functions anymore. Can only be called by the current owner. NOTE: Renouncing ownership will leave the contract without an owner, thereby removing any functionality that is only available to the owner."
      },
      "renounceRole(bytes32,address)": {
        "details": "Revokes `role` from the calling account. Roles are often managed via {grantRole} and {revokeRole}: this function's purpose is to provide a mechanism for accounts to lose their privileges if they are compromised (such as when a trusted device is misplaced). If the calling account had been revoked `role`, emits a {RoleRevoked} event. Requirements: - the caller must be `account`. May emit a {RoleRevoked} event."
      },
      "revokeRole(bytes32,address)": {
        "details": "Revokes `role` from `account`. If `account` had been granted `role`, emits a {RoleRevoked} event. Requirements: - the caller must have ``role``'s admin role. May emit a {RoleRevoked} event."
      },
      "safeTransferFrom(address,address,uint256)": {
        "details": "See {IERC721-safeTransferFrom}."
      },
      "safeTransferFrom(address,address,uint256,bytes)": {
        "details": "See {IERC721-safeTransferFrom}."
      },
      "setApprovalForAll(address,bool)": {
        "details": "See {IERC721-setApprovalForAll}."
      },
      "symbol()": {
        "details": "See {IERC721Metadata-symbol}."
      },
      "tokenURI(uint256)": {
        "details": "See {IERC721Metadata-tokenURI}."
      },
      "transferFrom(address,address,uint256)": {
        "details": "See {IERC721-transferFrom}."
      },
      "transferOwnership(address)": {
        "details": "Transfers ownership of the contract to a new account (`newOwner`). Can only be called by the current owner."
      }
    },
    "version": 1
  },
  "userdoc": {
    "kind": "user",
    "methods": {},
    "version": 1
  }
}