{
  "contractName": "WhitelistStorage",
  "abi": [
    {
      "inputs": [
        {
          "internalType": "address",
          "name": "hubAddress",
          "type": "address"
        }
      ],
      "stateMutability": "nonpayable",
      "type": "constructor"
    },
    {
      "inputs": [],
      "name": "hub",
      "outputs": [
        {
          "internalType": "contract Hub",
          "name": "",
          "type": "address"
        }
      ],
      "stateMutability": "view",
      "type": "function"
    },
    {
      "inputs": [
        {
          "internalType": "address",
          "name": "",
          "type": "address"
        }
      ],
      "name": "whitelisted",
      "outputs": [
        {
          "internalType": "bool",
          "name": "",
          "type": "bool"
        }
      ],
      "stateMutability": "view",
      "type": "function"
    },
    {
      "inputs": [],
      "name": "whitelistingEnabled",
      "outputs": [
        {
          "internalType": "bool",
          "name": "",
          "type": "bool"
        }
      ],
      "stateMutability": "view",
      "type": "function"
    },
    {
      "inputs": [],
      "name": "name",
      "outputs": [
        {
          "internalType": "string",
          "name": "",
          "type": "string"
        }
      ],
      "stateMutability": "pure",
      "type": "function"
    },
    {
      "inputs": [],
      "name": "version",
      "outputs": [
        {
          "internalType": "string",
          "name": "",
          "type": "string"
        }
      ],
      "stateMutability": "pure",
      "type": "function"
    },
    {
      "inputs": [
        {
          "internalType": "address",
          "name": "addr",
          "type": "address"
        }
      ],
      "name": "whitelistAddress",
      "outputs": [],
      "stateMutability": "nonpayable",
      "type": "function"
    },
    {
      "inputs": [
        {
          "internalType": "address",
          "name": "addr",
          "type": "address"
        }
      ],
      "name": "blacklistAddress",
      "outputs": [],
      "stateMutability": "nonpayable",
      "type": "function"
    },
    {
      "inputs": [],
      "name": "enableWhitelist",
      "outputs": [],
      "stateMutability": "nonpayable",
      "type": "function"
    },
    {
      "inputs": [],
      "name": "disableWhitelist",
      "outputs": [],
      "stateMutability": "nonpayable",
      "type": "function"
    }
  ],
  "bytecode": "0x608060405234801561001057600080fd5b5060405161048a38038061048a83398101604081905261002f91610066565b6001600160a01b03811661004257600080fd5b600080546001600160a81b0319166001600160a01b03909216919091179055610096565b60006020828403121561007857600080fd5b81516001600160a01b038116811461008f57600080fd5b9392505050565b6103e5806100a56000396000f3fe608060405234801561001057600080fd5b50600436106100935760003560e01c80635b0c29eb116100665780635b0c29eb14610137578063cdfb2b4e1461015b578063d6b0f48414610163578063d936547e1461016b578063f3290d751461018e57600080fd5b806306fdde0314610098578063365a86fc146100d6578063415665851461010157806354fd4d5014610116575b600080fd5b60408051808201909152601081526f57686974656c69737453746f7261676560801b60208201525b6040516100cd9190610308565b60405180910390f35b6000546100e9906001600160a01b031681565b6040516001600160a01b0390911681526020016100cd565b61011461010f36600461036e565b6101a1565b005b6040805180820190915260058152640312e302e360dc1b60208201526100c0565b60005461014b90600160a01b900460ff1681565b60405190151581526020016100cd565b6101146101d0565b6101146101ed565b61014b61017936600461036e565b60016020526000908152604090205460ff1681565b61011461019c36600461036e565b610204565b6101a961022d565b6001600160a01b03166000908152600160208190526040909120805460ff19169091179055565b6101d861022d565b6000805460ff60a01b1916600160a01b179055565b6101f561022d565b6000805460ff60a01b19169055565b61020c61022d565b6001600160a01b03166000908152600160205260409020805460ff19169055565b60008054906101000a90046001600160a01b03166001600160a01b0316638da5cb5b6040518163ffffffff1660e01b8152600401602060405180830381865afa15801561027e573d6000803e3d6000fd5b505050506040513d601f19601f820116820180604052508101906102a29190610392565b6001600160a01b0316336001600160a01b0316146103065760405162461bcd60e51b815260206004820181905260248201527f466e2063616e206f6e6c79206265207573656420627920687562206f776e6572604482015260640160405180910390fd5b565b600060208083528351808285015260005b8181101561033557858101830151858201604001528201610319565b506000604082860101526040601f19601f8301168501019250505092915050565b6001600160a01b038116811461036b57600080fd5b50565b60006020828403121561038057600080fd5b813561038b81610356565b9392505050565b6000602082840312156103a457600080fd5b815161038b8161035656fea26469706673582212204451183844303117d5cb48429ab63921976b1faa86c72dacbd8e3daa56ae665264736f6c63430008100033",
  "immutableReferences": {},
  "source": "// SPDX-License-Identifier: MIT\n\npragma solidity ^0.8.4;\n\nimport { Hub } from \"../Hub.sol\";\nimport { Named } from \"../interface/Named.sol\";\nimport { Versioned } from \"../interface/Versioned.sol\";\n\ncontract WhitelistStorage is Named, Versioned {\n\n    string constant private _NAME = \"WhitelistStorage\";\n    string constant private _VERSION = \"1.0.0\";\n\n    Hub public hub;\n\n    bool public whitelistingEnabled;\n\n    mapping(address => bool) public whitelisted;\n\n    constructor(address hubAddress) {\n        require(hubAddress != address(0));\n\n        hub = Hub(hubAddress);\n\n        whitelistingEnabled = false;\n    }\n\n    modifier onlyHubOwner() {\n        _checkHubOwner();\n        _;\n    }\n\n    function name() external pure virtual override returns (string memory) {\n        return _NAME;\n    }\n\n    function version() external pure virtual override returns (string memory) {\n        return _VERSION;\n    }\n\n    function whitelistAddress(address addr) external onlyHubOwner {\n        whitelisted[addr] = true;\n    }\n\n    function blacklistAddress(address addr) external onlyHubOwner {\n        whitelisted[addr] = false;\n    }\n\n    function enableWhitelist() external onlyHubOwner {\n        whitelistingEnabled = true;\n    }\n\n    function disableWhitelist() external onlyHubOwner {\n        whitelistingEnabled = false;\n    }\n\n    function _checkHubOwner() internal view virtual {\n        require(msg.sender == hub.owner(), \"Fn can only be used by hub owner\");\n    }\n\n}\n",
  "sourcePath": "/Users/waving/Desktop/OriginTrail/dkg-evm-module/contracts/storage/WhitelistStorage.sol",
  "compiler": {
    "name": "solc",
    "version": "0.8.16+commit.07a7930e.Emscripten.clang"
  },
  "schemaVersion": "3.4.10",
  "updatedAt": "2022-12-08T16:40:13.624Z",
  "devdoc": {
    "kind": "dev",
    "methods": {},
    "version": 1
  },
  "userdoc": {
    "kind": "user",
    "methods": {},
    "version": 1
  }
}