{
  "contractName": "WhitelistStorage",
  "abi": [
    {
      "inputs": [
        {
          "internalType": "address",
          "name": "hubAddress",
          "type": "address"
        }
      ],
      "stateMutability": "nonpayable",
      "type": "constructor"
    },
    {
      "anonymous": false,
      "inputs": [
        {
          "indexed": true,
          "internalType": "address",
          "name": "previousOwner",
          "type": "address"
        },
        {
          "indexed": true,
          "internalType": "address",
          "name": "newOwner",
          "type": "address"
        }
      ],
      "name": "OwnershipTransferred",
      "type": "event"
    },
    {
      "inputs": [],
      "name": "hub",
      "outputs": [
        {
          "internalType": "contract Hub",
          "name": "",
          "type": "address"
        }
      ],
      "stateMutability": "view",
      "type": "function"
    },
    {
      "inputs": [],
      "name": "owner",
      "outputs": [
        {
          "internalType": "address",
          "name": "",
          "type": "address"
        }
      ],
      "stateMutability": "view",
      "type": "function"
    },
    {
      "inputs": [],
      "name": "renounceOwnership",
      "outputs": [],
      "stateMutability": "nonpayable",
      "type": "function"
    },
    {
      "inputs": [
        {
          "internalType": "address",
          "name": "newOwner",
          "type": "address"
        }
      ],
      "name": "transferOwnership",
      "outputs": [],
      "stateMutability": "nonpayable",
      "type": "function"
    },
    {
      "inputs": [
        {
          "internalType": "address",
          "name": "",
          "type": "address"
        }
      ],
      "name": "whitelisted",
      "outputs": [
        {
          "internalType": "bool",
          "name": "",
          "type": "bool"
        }
      ],
      "stateMutability": "view",
      "type": "function"
    },
    {
      "inputs": [],
      "name": "whitelistingEnabled",
      "outputs": [
        {
          "internalType": "bool",
          "name": "",
          "type": "bool"
        }
      ],
      "stateMutability": "view",
      "type": "function"
    },
    {
      "inputs": [],
      "name": "name",
      "outputs": [
        {
          "internalType": "string",
          "name": "",
          "type": "string"
        }
      ],
      "stateMutability": "pure",
      "type": "function"
    },
    {
      "inputs": [],
      "name": "version",
      "outputs": [
        {
          "internalType": "string",
          "name": "",
          "type": "string"
        }
      ],
      "stateMutability": "pure",
      "type": "function"
    },
    {
      "inputs": [
        {
          "internalType": "address",
          "name": "addr",
          "type": "address"
        }
      ],
      "name": "whitelistAddress",
      "outputs": [],
      "stateMutability": "nonpayable",
      "type": "function"
    },
    {
      "inputs": [
        {
          "internalType": "address",
          "name": "addr",
          "type": "address"
        }
      ],
      "name": "blacklistAddress",
      "outputs": [],
      "stateMutability": "nonpayable",
      "type": "function"
    },
    {
      "inputs": [],
      "name": "enableWhitelist",
      "outputs": [],
      "stateMutability": "nonpayable",
      "type": "function"
    },
    {
      "inputs": [],
      "name": "disableWhitelist",
      "outputs": [],
      "stateMutability": "nonpayable",
      "type": "function"
    }
  ],
  "bytecode": "0x608060405234801561001057600080fd5b5060405161056b38038061056b83398101604081905261002f916100c5565b61003833610075565b6001600160a01b03811661004b57600080fd5b600180546001600160a81b0319166001600160a01b0390921691909117600160a01b1790556100f5565b600080546001600160a01b038381166001600160a01b0319831681178455604051919092169283917f8be0079c531659141344cd1fd0a4f28419497f9722a3daafe3b4186f6b6457e09190a35050565b6000602082840312156100d757600080fd5b81516001600160a01b03811681146100ee57600080fd5b9392505050565b610467806101046000396000f3fe608060405234801561001057600080fd5b50600436106100b45760003560e01c80638da5cb5b116100715780638da5cb5b14610184578063cdfb2b4e14610195578063d6b0f4841461019d578063d936547e146101a5578063f2fde38b146101c8578063f3290d75146101db57600080fd5b806306fdde03146100b9578063365a86fc146100f7578063415665851461012257806354fd4d50146101375780635b0c29eb14610158578063715018a61461017c575b600080fd5b60408051808201909152601081526f57686974656c69737453746f7261676560801b60208201525b6040516100ee91906103b3565b60405180910390f35b60015461010a906001600160a01b031681565b6040516001600160a01b0390911681526020016100ee565b610135610130366004610401565b6101ee565b005b6040805180820190915260058152640312e302e360dc1b60208201526100e1565b60015461016c90600160a01b900460ff1681565b60405190151581526020016100ee565b61013561021a565b6000546001600160a01b031661010a565b61013561022e565b61013561024b565b61016c6101b3366004610401565b60026020526000908152604090205460ff1681565b6101356101d6366004610401565b610262565b6101356101e9366004610401565b6102e0565b6101f6610309565b6001600160a01b03166000908152600260205260409020805460ff19166001179055565b610222610309565b61022c6000610363565b565b610236610309565b6001805460ff60a01b1916600160a01b179055565b610253610309565b6001805460ff60a01b19169055565b61026a610309565b6001600160a01b0381166102d45760405162461bcd60e51b815260206004820152602660248201527f4f776e61626c653a206e6577206f776e657220697320746865207a65726f206160448201526564647265737360d01b60648201526084015b60405180910390fd5b6102dd81610363565b50565b6102e8610309565b6001600160a01b03166000908152600260205260409020805460ff19169055565b6000546001600160a01b0316331461022c5760405162461bcd60e51b815260206004820181905260248201527f4f776e61626c653a2063616c6c6572206973206e6f7420746865206f776e657260448201526064016102cb565b600080546001600160a01b038381166001600160a01b0319831681178455604051919092169283917f8be0079c531659141344cd1fd0a4f28419497f9722a3daafe3b4186f6b6457e09190a35050565b600060208083528351808285015260005b818110156103e0578581018301518582016040015282016103c4565b506000604082860101526040601f19601f8301168501019250505092915050565b60006020828403121561041357600080fd5b81356001600160a01b038116811461042a57600080fd5b939250505056fea26469706673582212204a549ae6889e52b0bb348c9c6f7b4cec546db1e5369d234c7fccafb42307c01e64736f6c63430008100033",
  "immutableReferences": {},
  "source": "// SPDX-License-Identifier: MIT\n\npragma solidity ^0.8.4;\n\nimport { Hub } from \"../Hub.sol\";\nimport { Named } from \"../interface/Named.sol\";\nimport { Versioned } from \"../interface/Versioned.sol\";\nimport { Ownable } from \"@openzeppelin/contracts/access/Ownable.sol\";\n\ncontract WhitelistStorage is Named, Versioned, Ownable {\n\n    string constant private _NAME = \"WhitelistStorage\";\n    string constant private _VERSION = \"1.0.0\";\n\n    Hub public hub;\n\n    bool public whitelistingEnabled;\n\n    mapping(address => bool) public whitelisted;\n\n    constructor(address hubAddress) {\n        require(hubAddress != address(0));\n\n        hub = Hub(hubAddress);\n\n        whitelistingEnabled = true;\n    }\n\n    function name() external pure virtual override returns (string memory) {\n        return _NAME;\n    }\n\n    function version() external pure virtual override returns (string memory) {\n        return _VERSION;\n    }\n\n    function whitelistAddress(address addr) external onlyOwner {\n        whitelisted[addr] = true;\n    }\n\n    function blacklistAddress(address addr) external onlyOwner {\n        whitelisted[addr] = false;\n    }\n\n    function enableWhitelist() external onlyOwner {\n        whitelistingEnabled = true;\n    }\n\n    function disableWhitelist() external onlyOwner {\n        whitelistingEnabled = false;\n    }\n\n}\n",
  "sourcePath": "/Users/waving/Desktop/OriginTrail/dkg-evm-module/contracts/storage/WhitelistStorage.sol",
  "compiler": {
    "name": "solc",
    "version": "0.8.16+commit.07a7930e.Emscripten.clang"
  },
  "schemaVersion": "3.4.10",
  "updatedAt": "2022-12-05T17:33:43.098Z",
  "devdoc": {
    "kind": "dev",
    "methods": {
      "owner()": {
        "details": "Returns the address of the current owner."
      },
      "renounceOwnership()": {
        "details": "Leaves the contract without owner. It will not be possible to call `onlyOwner` functions anymore. Can only be called by the current owner. NOTE: Renouncing ownership will leave the contract without an owner, thereby removing any functionality that is only available to the owner."
      },
      "transferOwnership(address)": {
        "details": "Transfers ownership of the contract to a new account (`newOwner`). Can only be called by the current owner."
      }
    },
    "version": 1
  },
  "userdoc": {
    "kind": "user",
    "methods": {},
    "version": 1
  }
}